{
  "_format": "hh-sol-artifact-1",
  "contractName": "tgetherMembersInfo",
  "sourceName": "contracts/tgetherMemberInfo.sol",
  "abi": [
    {
      "inputs": [],
      "stateMutability": "nonpayable",
      "type": "constructor"
    },
    {
      "anonymous": false,
      "inputs": [
        {
          "indexed": true,
          "internalType": "address",
          "name": "memberAddress",
          "type": "address"
        },
        {
          "indexed": true,
          "internalType": "string",
          "name": "name",
          "type": "string"
        },
        {
          "indexed": false,
          "internalType": "string",
          "name": "description",
          "type": "string"
        },
        {
          "indexed": false,
          "internalType": "string[]",
          "name": "degrees",
          "type": "string[]"
        },
        {
          "indexed": false,
          "internalType": "string[]",
          "name": "awards",
          "type": "string[]"
        },
        {
          "indexed": false,
          "internalType": "string",
          "name": "endpoint",
          "type": "string"
        }
      ],
      "name": "MemberInfo",
      "type": "event"
    },
    {
      "inputs": [
        {
          "internalType": "address",
          "name": "",
          "type": "address"
        }
      ],
      "name": "MembersInfo",
      "outputs": [
        {
          "internalType": "string",
          "name": "name",
          "type": "string"
        },
        {
          "internalType": "string",
          "name": "description",
          "type": "string"
        },
        {
          "internalType": "string",
          "name": "endpoint",
          "type": "string"
        }
      ],
      "stateMutability": "view",
      "type": "function"
    },
    {
      "inputs": [
        {
          "internalType": "address",
          "name": "_address",
          "type": "address"
        }
      ],
      "name": "getMemberInfo",
      "outputs": [
        {
          "internalType": "string",
          "name": "_name",
          "type": "string"
        },
        {
          "internalType": "string",
          "name": "_description",
          "type": "string"
        },
        {
          "internalType": "string[]",
          "name": "_degrees",
          "type": "string[]"
        },
        {
          "internalType": "string[]",
          "name": "_awards",
          "type": "string[]"
        },
        {
          "internalType": "string",
          "name": "_endpoint",
          "type": "string"
        }
      ],
      "stateMutability": "view",
      "type": "function"
    },
    {
      "inputs": [
        {
          "internalType": "string",
          "name": "_name",
          "type": "string"
        },
        {
          "internalType": "string",
          "name": "_description",
          "type": "string"
        },
        {
          "internalType": "string[]",
          "name": "_degrees",
          "type": "string[]"
        },
        {
          "internalType": "string[]",
          "name": "_awards",
          "type": "string[]"
        },
        {
          "internalType": "string",
          "name": "_endpoint",
          "type": "string"
        }
      ],
      "name": "updateMemberInfo",
      "outputs": [],
      "stateMutability": "nonpayable",
      "type": "function"
    }
  ],
  "bytecode": "0x6080806040523461002857600180546001600160a01b03191633179055610ccb908161002d8239f35b5f80fdfe60806040526004361015610011575f80fd5b5f3560e01c80635f1231ea146108dd5780638cddee08146100ce576392a1b23b1461003a575f80fd5b346100ca5760203660031901126100ca576004356001600160a01b038116908190036100ca575f525f6020526100aa60405f206100c661007982610b8a565b916100b8610095600461008e60018501610b8a565b9301610b8a565b916040519586956060875260608701906109c5565b9085820360208701526109c5565b9083820360408501526109c5565b0390f35b5f80fd5b346100ca5760a03660031901126100ca576004356001600160401b0381116100ca576100fe903690600401610a66565b6024356001600160401b0381116100ca5761011d903690600401610a66565b6044356001600160401b0381116100ca5761013c903690600401610ad2565b906064356001600160401b0381116100ca5761015c903690600401610ad2565b906084356001600160401b0381116100ca5761017c903690600401610a66565b91335f525f60205260405f2085516001600160401b038111610485576101a28254610b52565b601f81116108ad575b50806020601f8211600114610849575f9161083e575b508160011b915f199060031b1c19161790555b335f525f602052600160405f200182516001600160401b038111610485576101fc8254610b52565b601f811161080e575b50806020601f82116001146107ab575f916107a0575b508160011b915f199060031b1c19161790555b335f525f602052600260405f20018451600160401b811161048557815481835580821061072f575b5060208601915f5260205f20915f905b8282106106225750505050335f525f602052600360405f20018151600160401b81116104855781548183558082106105b1575b5060208301915f5260205f20915f905b8282106104995750505050335f525f602052600460405f2001948351956001600160401b038711610485576102de8154610b52565b601f811161044a575b50602096601f81116001146103b2579261038561035d6103a294610393948761037799987f981fcfd4e48ae5b4ea31f02a5c5b7b669c510f9fea5c9b39ff7388bee8b8c5c49b9c9d5f916103a7575b508160011b915f199060031b1c19161790555b6020604051928284809451938492016109a4565b8101039020986040519687966080885260808801906109c5565b9086820360208801526109ea565b9084820360408601526109ea565b828103606084015233956109c5565b0390a3005b90508c01518e610336565b601f198116825f5260205f20905f5b81811061043257506103a29461039394600185610385958c9d9e7f981fcfd4e48ae5b4ea31f02a5c5b7b669c510f9fea5c9b39ff7388bee8b8c5c49d6103779d9c9961035d981061041a575b505050811b019055610349565b01515f1960f88460031b161c191690558e808e61040d565b888b0151835560209a8b019a600190930192016103c1565b61047590825f5260205f20601f8a0160051c81019160208b1061047b575b601f0160051c0190610c2b565b876102e7565b9091508190610468565b634e487b7160e01b5f52604160045260245ffd5b80518051906001600160401b038211610485576104b68654610b52565b601f8111610576575b50602090601f831160011461050a5792826001949360209386955f926104ff575b50505f19600383901b1c191690841b1787555b019401910190926102a9565b015190508e806104e0565b90865f5260205f20915f5b601f198516811061055e575083602093600196938796938794601f19811610610546575b505050811b0187556104f3565b01515f1960f88460031b161c191690558e8080610539565b91926020600181928685015181550194019201610515565b6105a190875f5260205f206005601f8601811c820192602087106105a7575b601f01901c0190610c2b565b8b6104bf565b9192508291610595565b825f5260205f20908282015b81830181106105cd575050610299565b806105da60019254610b52565b806105e7575b50016105bd565b601f811183146105fc57505f81555b8b6105e0565b5f90828252610619601f60208420920160051c8201858301610c2b565b818355556105f6565b80518051906001600160401b0382116104855761063f8654610b52565b601f81116106ff575b50602090601f83116001146106935792826001949360209386955f92610688575b50505f19600383901b1c191690841b1787555b01940191019092610266565b015190508e80610669565b90865f5260205f20915f5b601f19851681106106e7575083602093600196938796938794601f198116106106cf575b505050811b01875561067c565b01515f1960f88460031b161c191690558e80806106c2565b9192602060018192868501518155019401920161069e565b61072990875f5260205f206005601f8601811c820192602087106105a757601f01901c0190610c2b565b8b610648565b825f5260205f20908282015b818301811061074b575050610256565b8061075860019254610b52565b80610765575b500161073b565b601f8111831461077a57505f81555b8b61075e565b5f90828252610797601f60208420920160051c8201858301610c2b565b81835555610774565b90508401518861021b565b9150825f5260205f205f925b601f19831684106107f6576001935082601f198116106107de575b5050811b01905561022e565b8601515f1960f88460031b161c1916905588806107d2565b868101518255602093840193600190920191016107b7565b61083890835f5260205f20601f840160051c8101916020851061047b57601f0160051c0190610c2b565b87610205565b9050870151886101c1565b5f848152602081209250601f198416905b8a828210610895575050908360019493921061087d575b5050811b0190556101d4565b8901515f1960f88460031b161c191690558880610871565b6001849560209395849301518155019401920161085a565b6108d790835f5260205f20601f840160051c8101916020851061047b57601f0160051c0190610c2b565b876101ab565b346100ca5760203660031901126100ca576004356001600160a01b038116908190036100ca575f525f60205261096c60405f206100c661091c82610b8a565b9161099661092c60018301610b8a565b9161098861093c60028301610c41565b61097a610957600461095060038701610c41565b9501610b8a565b95604051998a9960a08b5260a08b01906109c5565b9089820360208b01526109c5565b9087820360408901526109ea565b9085820360608701526109ea565b9083820360808501526109c5565b5f5b8381106109b55750505f910152565b81810151838201526020016109a6565b906020916109de815180928185528580860191016109a4565b601f01601f1916010190565b908082519081815260208091019281808460051b8301019501935f915b848310610a175750505050505090565b9091929394958480610a35600193601f198682030187528a516109c5565b9801930193019194939290610a07565b90601f801991011681019081106001600160401b0382111761048557604052565b81601f820112156100ca578035906001600160401b0382116104855760405192610a9a601f8401601f191660200185610a45565b828452602083830101116100ca57815f926020809301838601378301015290565b6001600160401b0381116104855760051b60200190565b9080601f830112156100ca57813590610aea82610abb565b92610af86040519485610a45565b828452602092838086019160051b830101928084116100ca57848301915b848310610b265750505050505090565b82356001600160401b0381116100ca578691610b4784848094890101610a66565b815201920191610b16565b90600182811c92168015610b80575b6020831014610b6c57565b634e487b7160e01b5f52602260045260245ffd5b91607f1691610b61565b9060405191825f825492610b9d84610b52565b9081845260019485811690815f14610c085750600114610bc8575b5050610bc692500383610a45565b565b909391505f52602090815f20935f915b818310610bf0575050610bc693508201015f80610bb8565b85548884018501529485019487945091830191610bd8565b915050610bc694506020925060ff191682840152151560051b8201015f80610bb8565b818110610c36575050565b5f8155600101610c2b565b908154610c4d81610abb565b92610c5b6040519485610a45565b8184525f90815260208082208186015b848410610c79575050505050565b6001838192610c8785610b8a565b815201920193019290610c6b56fea264697066735822122092a947601760043d7c39e8b4988915bb2e9060cfa8e9ae92c26ccad30248357164736f6c63430008140033",
  "linkReferences": {},
  "deployedLinkReferences": {}
}