{
  "_format": "hh-sol-artifact-1",
  "contractName": "MOCKCredAccess",
  "sourceName": "contracts/MOCKCredAccess.sol",
  "abi": [
    {
      "inputs": [
        {
          "internalType": "address",
          "name": "_communityMemberaddress",
          "type": "address"
        },
        {
          "internalType": "string",
          "name": "_communityName",
          "type": "string"
        }
      ],
      "stateMutability": "nonpayable",
      "type": "constructor"
    },
    {
      "inputs": [
        {
          "internalType": "address",
          "name": "_memberAddress",
          "type": "address"
        }
      ],
      "name": "inviteMember",
      "outputs": [
        {
          "internalType": "address",
          "name": "",
          "type": "address"
        }
      ],
      "stateMutability": "nonpayable",
      "type": "function"
    },
    {
      "inputs": [
        {
          "internalType": "address",
          "name": "_memberAddress",
          "type": "address"
        },
        {
          "internalType": "int256",
          "name": "_creds",
          "type": "int256"
        }
      ],
      "name": "setMemberCred",
      "outputs": [
        {
          "internalType": "int256",
          "name": "",
          "type": "int256"
        }
      ],
      "stateMutability": "nonpayable",
      "type": "function"
    },
    {
      "inputs": [
        {
          "internalType": "address",
          "name": "_memberAddress",
          "type": "address"
        }
      ],
      "name": "uninviteMember",
      "outputs": [
        {
          "internalType": "address",
          "name": "",
          "type": "address"
        }
      ],
      "stateMutability": "nonpayable",
      "type": "function"
    },
    {
      "inputs": [
        {
          "internalType": "string",
          "name": "_communityName",
          "type": "string"
        }
      ],
      "name": "updateCommunity",
      "outputs": [],
      "stateMutability": "nonpayable",
      "type": "function"
    }
  ],
  "bytecode": "0x6080604052346102045761073c8038038061001981610208565b9283398101906040818303126102045780516001600160a01b0381169190829003610204576020918282015160018060401b0392838211610204570192601f918583860112156102045784518481116101dc57601f199561007f82860188168501610208565b978289528483830101116102045783905f5b8381106101f05750505f918801015260018060a01b03195f5416175f5584519283116101dc5760019384548581811c911680156101d2575b838210146101be5783811161017b575b508192841160011461011e5750508192935f92610113575b50505f19600383901b1c191690821b1790555b60405161050e908161022e8239f35b015190505f806100f1565b5f858152828120918516969193925b8782106101645750508385961061014c575b505050811b019055610104565b01515f1960f88460031b161c191690555f808061013f565b80878596829496860151815501950193019061012d565b855f52825f208480870160051c8201928588106101b5575b0160051c019086905b8281106101aa5750506100d9565b5f815501869061019c565b92508192610193565b634e487b7160e01b5f52602260045260245ffd5b90607f16906100c9565b634e487b7160e01b5f52604160045260245ffd5b8181018301518a8201840152859201610091565b5f80fd5b6040519190601f01601f191682016001600160401b038111838210176101dc5760405256fe6080604081815260049081361015610015575f80fd5b5f92833560e01c9081632f890b93146103605750806343997088146101ba5780636779afef1461010f5763a69d578a1461004d575f80fd5b346100f957806003193601126100f95760206100676103b5565b84548351632fca8edd60e21b815260609581019590955284916001600160a01b03918216918391889183919061009f6064840161043d565b91166024830152602435604483015203925af19182156101055783926100ca575b6020838351908152f35b9091506020813d82116100fd575b816100e5602093836103cf565b810103126100f9576020925051905f6100c0565b8280fd5b3d91506100d8565b81513d85823e3d90fd5b5090346100f95760203660031901126100f95761012a6103b5565b9160208160018060a01b03938487541690878351809881958294631ac0e6ed60e21b84528301528861015e6044840161043d565b9116602483015203925af19283156101b05760209493610181575b505191168152f35b6101a2919350843d81116101a9575b61019a81836103cf565b8101906104b9565b915f610179565b503d610190565b81513d86823e3d90fd5b5091903461035c57602090816003193601126100f957803567ffffffffffffffff918282116103585736602383011215610358578181013595838711610345575195601f1992610211601f830185168701896103cf565b8188523660248383010111610341578187926024889301838b013788010152855192831161032e57506001926102478454610405565b601f81116102e8575b508091601f841160011461028b575050839482939492610280575b50505f19600383901b1c191690821b17905580f35b015190505f8061026b565b8392919216958486528286209286905b8882106102d157505083859697106102b9575b505050811b01905580f35b01515f1960f88460031b161c191690555f80806102ae565b80878596829496860151815501950193019061029b565b848652818620601f850160051c810191838610610324575b601f0160051c019085905b828110610319575050610250565b87815501859061030b565b9091508190610300565b634e487b7160e01b855260419052602484fd5b8680fd5b634e487b7160e01b865260418252602486fd5b8480fd5b5080fd5b92919050346103b15760203660031901126103b1576020836103806103b5565b865463336d0fa960e21b83529482018490526001600160a01b03948516908290889082908861015e6044840161043d565b8380fd5b600435906001600160a01b03821682036103cb57565b5f80fd5b90601f8019910116810190811067ffffffffffffffff8211176103f157604052565b634e487b7160e01b5f52604160045260245ffd5b90600182811c92168015610433575b602083101461041f57565b634e487b7160e01b5f52602260045260245ffd5b91607f1691610414565b600180545f939261044d82610405565b8082529183811690811561049e575060011461046857505050565b90929350815f52602092835f2092845f945b83861061048a5750505050010190565b80548587018301529401938590820161047a565b91935050602093945060ff191683830152151560051b010190565b908160209103126103cb57516001600160a01b03811681036103cb579056fea26469706673582212208411580dbdc6fbe6876414a8bd5e43e50df7fbf86e1020e2c8c8c83b7b87eb4a64736f6c63430008140033",
  "linkReferences": {},
  "deployedLinkReferences": {}
}