{
  "_format": "hh-sol-artifact-1",
  "contractName": "learntgetherSubjects",
  "sourceName": "contracts/learntgetherSubjects.sol",
  "abi": [
    {
      "inputs": [
        {
          "internalType": "address",
          "name": "_linkTokenAddress",
          "type": "address"
        },
        {
          "internalType": "address",
          "name": "_automationAddress",
          "type": "address"
        },
        {
          "internalType": "uint256",
          "name": "_feePrice",
          "type": "uint256"
        }
      ],
      "stateMutability": "nonpayable",
      "type": "constructor"
    },
    {
      "anonymous": false,
      "inputs": [
        {
          "indexed": false,
          "internalType": "uint256",
          "name": "proposalId",
          "type": "uint256"
        },
        {
          "indexed": false,
          "internalType": "uint256",
          "name": "activeProposalsIndex",
          "type": "uint256"
        }
      ],
      "name": "IndexChange",
      "type": "event"
    },
    {
      "anonymous": false,
      "inputs": [
        {
          "indexed": false,
          "internalType": "address",
          "name": "proposer",
          "type": "address"
        },
        {
          "indexed": false,
          "internalType": "string",
          "name": "subjectName",
          "type": "string"
        },
        {
          "indexed": false,
          "internalType": "uint256",
          "name": "numReviewsForAcceptance",
          "type": "uint256"
        },
        {
          "indexed": false,
          "internalType": "uint256",
          "name": "credsNeededForReview",
          "type": "uint256"
        },
        {
          "indexed": false,
          "internalType": "uint256",
          "name": "percentAcceptsNeeded",
          "type": "uint256"
        },
        {
          "indexed": false,
          "internalType": "uint256",
          "name": "reviewTime",
          "type": "uint256"
        },
        {
          "indexed": false,
          "internalType": "string[]",
          "name": "consenousTypes",
          "type": "string[]"
        },
        {
          "indexed": false,
          "internalType": "uint256",
          "name": "minCredsToProposeVote",
          "type": "uint256"
        },
        {
          "indexed": false,
          "internalType": "uint256",
          "name": "minCredsToVote",
          "type": "uint256"
        },
        {
          "indexed": false,
          "internalType": "uint256",
          "name": "maxCredsCountedForVote",
          "type": "uint256"
        },
        {
          "indexed": false,
          "internalType": "uint256",
          "name": "minProposalVotes",
          "type": "uint256"
        },
        {
          "indexed": false,
          "internalType": "uint256",
          "name": "proposalTime",
          "type": "uint256"
        },
        {
          "indexed": false,
          "internalType": "uint256",
          "name": "proposalDelay",
          "type": "uint256"
        },
        {
          "indexed": false,
          "internalType": "uint256",
          "name": "timestamp",
          "type": "uint256"
        },
        {
          "indexed": false,
          "internalType": "uint256",
          "name": "activeProposalsIndex",
          "type": "uint256"
        },
        {
          "indexed": false,
          "internalType": "bool",
          "name": "isActive",
          "type": "bool"
        }
      ],
      "name": "ProposalCreated",
      "type": "event"
    },
    {
      "anonymous": false,
      "inputs": [
        {
          "indexed": false,
          "internalType": "uint256",
          "name": "proposalId",
          "type": "uint256"
        },
        {
          "indexed": false,
          "internalType": "bool",
          "name": "passed",
          "type": "bool"
        }
      ],
      "name": "ProposalResult",
      "type": "event"
    },
    {
      "anonymous": false,
      "inputs": [
        {
          "indexed": true,
          "internalType": "string",
          "name": "subjectName",
          "type": "string"
        },
        {
          "indexed": false,
          "internalType": "address",
          "name": "creator",
          "type": "address"
        },
        {
          "indexed": false,
          "internalType": "uint256",
          "name": "numReviewsForAcceptance",
          "type": "uint256"
        },
        {
          "indexed": false,
          "internalType": "uint256",
          "name": "credsNeededForReview",
          "type": "uint256"
        },
        {
          "indexed": false,
          "internalType": "uint256",
          "name": "percentAcceptsNeeded",
          "type": "uint256"
        },
        {
          "indexed": false,
          "internalType": "uint256",
          "name": "reviewTime",
          "type": "uint256"
        },
        {
          "indexed": false,
          "internalType": "string[]",
          "name": "consenousTypes",
          "type": "string[]"
        },
        {
          "indexed": false,
          "internalType": "uint256",
          "name": "minCredsToProposeVote",
          "type": "uint256"
        },
        {
          "indexed": false,
          "internalType": "uint256",
          "name": "minCredsToVote",
          "type": "uint256"
        },
        {
          "indexed": false,
          "internalType": "uint256",
          "name": "maxCredsCountedForVote",
          "type": "uint256"
        },
        {
          "indexed": false,
          "internalType": "uint256",
          "name": "minProposalVotes",
          "type": "uint256"
        },
        {
          "indexed": false,
          "internalType": "uint256",
          "name": "proposalTime",
          "type": "uint256"
        },
        {
          "indexed": false,
          "internalType": "uint256",
          "name": "proposalDelay",
          "type": "uint256"
        }
      ],
      "name": "SubjectCreated",
      "type": "event"
    },
    {
      "anonymous": false,
      "inputs": [
        {
          "indexed": true,
          "internalType": "string",
          "name": "subjectName",
          "type": "string"
        },
        {
          "indexed": false,
          "internalType": "address",
          "name": "creator",
          "type": "address"
        },
        {
          "indexed": false,
          "internalType": "uint256",
          "name": "numReviewsForAcceptance",
          "type": "uint256"
        },
        {
          "indexed": false,
          "internalType": "uint256",
          "name": "credsNeededForReview",
          "type": "uint256"
        },
        {
          "indexed": false,
          "internalType": "uint256",
          "name": "percentAcceptsNeeded",
          "type": "uint256"
        },
        {
          "indexed": false,
          "internalType": "uint256",
          "name": "reviewTime",
          "type": "uint256"
        },
        {
          "indexed": false,
          "internalType": "string[]",
          "name": "consenousTypes",
          "type": "string[]"
        },
        {
          "indexed": false,
          "internalType": "uint256",
          "name": "minCredsToProposeVote",
          "type": "uint256"
        },
        {
          "indexed": false,
          "internalType": "uint256",
          "name": "minCredsToVote",
          "type": "uint256"
        },
        {
          "indexed": false,
          "internalType": "uint256",
          "name": "maxCredsCountedForVote",
          "type": "uint256"
        },
        {
          "indexed": false,
          "internalType": "uint256",
          "name": "minProposalVotes",
          "type": "uint256"
        },
        {
          "indexed": false,
          "internalType": "uint256",
          "name": "proposalTime",
          "type": "uint256"
        },
        {
          "indexed": false,
          "internalType": "uint256",
          "name": "proposalDelay",
          "type": "uint256"
        }
      ],
      "name": "SubjectUpdated",
      "type": "event"
    },
    {
      "anonymous": false,
      "inputs": [
        {
          "indexed": true,
          "internalType": "uint256",
          "name": "proposalId",
          "type": "uint256"
        },
        {
          "indexed": true,
          "internalType": "address",
          "name": "voter",
          "type": "address"
        },
        {
          "indexed": false,
          "internalType": "bool",
          "name": "voteChoice",
          "type": "bool"
        },
        {
          "indexed": false,
          "internalType": "uint256",
          "name": "creds",
          "type": "uint256"
        }
      ],
      "name": "Voted",
      "type": "event"
    },
    {
      "inputs": [],
      "name": "AutomationContract",
      "outputs": [
        {
          "internalType": "contract ChainlinkAutomationInterface",
          "name": "",
          "type": "address"
        }
      ],
      "stateMutability": "view",
      "type": "function"
    },
    {
      "inputs": [],
      "name": "ReviewerContract",
      "outputs": [
        {
          "internalType": "contract learntgetherReviewerInterface",
          "name": "",
          "type": "address"
        }
      ],
      "stateMutability": "view",
      "type": "function"
    },
    {
      "inputs": [
        {
          "internalType": "string",
          "name": "",
          "type": "string"
        },
        {
          "internalType": "uint256",
          "name": "",
          "type": "uint256"
        }
      ],
      "name": "SubjectProposals",
      "outputs": [
        {
          "internalType": "uint256",
          "name": "",
          "type": "uint256"
        }
      ],
      "stateMutability": "view",
      "type": "function"
    },
    {
      "inputs": [
        {
          "internalType": "bytes",
          "name": "",
          "type": "bytes"
        }
      ],
      "name": "checkUpKeep",
      "outputs": [
        {
          "internalType": "bool",
          "name": "upkeepNeeded",
          "type": "bool"
        },
        {
          "internalType": "bytes",
          "name": "performData",
          "type": "bytes"
        }
      ],
      "stateMutability": "view",
      "type": "function"
    },
    {
      "inputs": [
        {
          "internalType": "string",
          "name": "_subjectName",
          "type": "string"
        },
        {
          "internalType": "uint256",
          "name": "_numReviewsForAcceptance",
          "type": "uint256"
        },
        {
          "internalType": "uint256",
          "name": "_credsNeededForReview",
          "type": "uint256"
        },
        {
          "internalType": "uint256",
          "name": "_percentAcceptsNeeded",
          "type": "uint256"
        },
        {
          "internalType": "uint256",
          "name": "_reviewTime",
          "type": "uint256"
        },
        {
          "internalType": "string[]",
          "name": "_consenousTypes",
          "type": "string[]"
        },
        {
          "internalType": "uint256",
          "name": "_minCredsToProposeVote",
          "type": "uint256"
        },
        {
          "internalType": "uint256",
          "name": "_minCredsToVote",
          "type": "uint256"
        },
        {
          "internalType": "uint256",
          "name": "_maxCredsCountedForVote",
          "type": "uint256"
        },
        {
          "internalType": "uint256",
          "name": "_minProposalVotes",
          "type": "uint256"
        },
        {
          "internalType": "uint256",
          "name": "_proposalTime",
          "type": "uint256"
        },
        {
          "internalType": "uint256",
          "name": "_proposalDelay",
          "type": "uint256"
        }
      ],
      "name": "createSubject",
      "outputs": [],
      "stateMutability": "nonpayable",
      "type": "function"
    },
    {
      "inputs": [
        {
          "internalType": "uint256",
          "name": "_propId",
          "type": "uint256"
        }
      ],
      "name": "getActiveProposalIndex",
      "outputs": [
        {
          "internalType": "uint256",
          "name": "",
          "type": "uint256"
        }
      ],
      "stateMutability": "view",
      "type": "function"
    },
    {
      "inputs": [],
      "name": "getActiveProposalsLength",
      "outputs": [
        {
          "internalType": "uint256",
          "name": "",
          "type": "uint256"
        }
      ],
      "stateMutability": "view",
      "type": "function"
    },
    {
      "inputs": [
        {
          "internalType": "string",
          "name": "_subjectName",
          "type": "string"
        }
      ],
      "name": "getNumberReviewsForAcceptance",
      "outputs": [
        {
          "internalType": "uint256",
          "name": "",
          "type": "uint256"
        }
      ],
      "stateMutability": "view",
      "type": "function"
    },
    {
      "inputs": [
        {
          "internalType": "uint256",
          "name": "_proposalId",
          "type": "uint256"
        }
      ],
      "name": "getPoroposalConesnous",
      "outputs": [
        {
          "internalType": "string[]",
          "name": "consenousTypes",
          "type": "string[]"
        }
      ],
      "stateMutability": "view",
      "type": "function"
    },
    {
      "inputs": [
        {
          "internalType": "uint256",
          "name": "_proposalId",
          "type": "uint256"
        }
      ],
      "name": "getProposalResults",
      "outputs": [
        {
          "internalType": "bool",
          "name": "isActive",
          "type": "bool"
        },
        {
          "internalType": "bool",
          "name": "passed",
          "type": "bool"
        }
      ],
      "stateMutability": "view",
      "type": "function"
    },
    {
      "inputs": [
        {
          "internalType": "address",
          "name": "_address",
          "type": "address"
        },
        {
          "internalType": "uint256",
          "name": "_proposalId",
          "type": "uint256"
        }
      ],
      "name": "getProposalVote",
      "outputs": [
        {
          "internalType": "uint256",
          "name": "approveVotes",
          "type": "uint256"
        },
        {
          "internalType": "uint256",
          "name": "approveCreds",
          "type": "uint256"
        },
        {
          "internalType": "uint256",
          "name": "denyVotes",
          "type": "uint256"
        },
        {
          "internalType": "uint256",
          "name": "denyCreds",
          "type": "uint256"
        },
        {
          "internalType": "bool",
          "name": "",
          "type": "bool"
        }
      ],
      "stateMutability": "view",
      "type": "function"
    },
    {
      "inputs": [
        {
          "internalType": "string",
          "name": "_subjectName",
          "type": "string"
        }
      ],
      "name": "getSubjectConsensousTypes",
      "outputs": [
        {
          "internalType": "string[]",
          "name": "consenousTypes",
          "type": "string[]"
        }
      ],
      "stateMutability": "view",
      "type": "function"
    },
    {
      "inputs": [
        {
          "internalType": "string",
          "name": "_subjectName",
          "type": "string"
        }
      ],
      "name": "getSubjectExists",
      "outputs": [
        {
          "internalType": "bool",
          "name": "",
          "type": "bool"
        }
      ],
      "stateMutability": "view",
      "type": "function"
    },
    {
      "inputs": [
        {
          "internalType": "string",
          "name": "_subjectName",
          "type": "string"
        }
      ],
      "name": "getSubjectInfo",
      "outputs": [
        {
          "internalType": "uint256",
          "name": "numReviewsForAcceptance",
          "type": "uint256"
        },
        {
          "internalType": "uint256",
          "name": "credsNeededForReview",
          "type": "uint256"
        },
        {
          "internalType": "uint256",
          "name": "percentAcceptsNeeded",
          "type": "uint256"
        },
        {
          "internalType": "uint256",
          "name": "reviewTime",
          "type": "uint256"
        },
        {
          "internalType": "string[]",
          "name": "consenousTypes",
          "type": "string[]"
        }
      ],
      "stateMutability": "view",
      "type": "function"
    },
    {
      "inputs": [
        {
          "internalType": "string",
          "name": "_subjectName",
          "type": "string"
        }
      ],
      "name": "getSubjectReviewParams",
      "outputs": [
        {
          "internalType": "uint256",
          "name": "numReviewsForAcceptance",
          "type": "uint256"
        },
        {
          "internalType": "uint256",
          "name": "credsNeededForReview",
          "type": "uint256"
        },
        {
          "internalType": "uint256",
          "name": "percentAcceptsNeeded",
          "type": "uint256"
        }
      ],
      "stateMutability": "view",
      "type": "function"
    },
    {
      "inputs": [
        {
          "internalType": "string",
          "name": "_subjectName",
          "type": "string"
        }
      ],
      "name": "getSubjectReviewTime",
      "outputs": [
        {
          "internalType": "uint256",
          "name": "reviewTime",
          "type": "uint256"
        }
      ],
      "stateMutability": "view",
      "type": "function"
    },
    {
      "inputs": [
        {
          "internalType": "bytes",
          "name": "_performData",
          "type": "bytes"
        }
      ],
      "name": "performUpkeep",
      "outputs": [],
      "stateMutability": "nonpayable",
      "type": "function"
    },
    {
      "inputs": [],
      "name": "proposalFeeInLink",
      "outputs": [
        {
          "internalType": "uint256",
          "name": "",
          "type": "uint256"
        }
      ],
      "stateMutability": "view",
      "type": "function"
    },
    {
      "inputs": [
        {
          "internalType": "uint256",
          "name": "",
          "type": "uint256"
        }
      ],
      "name": "proposals",
      "outputs": [
        {
          "internalType": "address",
          "name": "proposer",
          "type": "address"
        },
        {
          "internalType": "string",
          "name": "subjectName",
          "type": "string"
        },
        {
          "internalType": "uint256",
          "name": "numReviewsForAcceptance",
          "type": "uint256"
        },
        {
          "internalType": "uint256",
          "name": "credsNeededForReview",
          "type": "uint256"
        },
        {
          "internalType": "uint256",
          "name": "percentAcceptsNeeded",
          "type": "uint256"
        },
        {
          "internalType": "uint256",
          "name": "reviewTime",
          "type": "uint256"
        },
        {
          "internalType": "uint256",
          "name": "minCredsToProposeVote",
          "type": "uint256"
        },
        {
          "internalType": "uint256",
          "name": "minCredsToVote",
          "type": "uint256"
        },
        {
          "internalType": "uint256",
          "name": "maxCredsCountedForVote",
          "type": "uint256"
        },
        {
          "internalType": "uint256",
          "name": "minProposalVotes",
          "type": "uint256"
        },
        {
          "internalType": "uint256",
          "name": "proposalTime",
          "type": "uint256"
        },
        {
          "internalType": "uint256",
          "name": "proposalDelay",
          "type": "uint256"
        },
        {
          "internalType": "uint256",
          "name": "timestamp",
          "type": "uint256"
        },
        {
          "internalType": "uint256",
          "name": "activeProposalsIndex",
          "type": "uint256"
        },
        {
          "internalType": "uint256",
          "name": "approveVotes",
          "type": "uint256"
        },
        {
          "internalType": "uint256",
          "name": "denyVotes",
          "type": "uint256"
        },
        {
          "internalType": "uint256",
          "name": "approveCreds",
          "type": "uint256"
        },
        {
          "internalType": "uint256",
          "name": "denyCreds",
          "type": "uint256"
        },
        {
          "internalType": "bool",
          "name": "isActive",
          "type": "bool"
        },
        {
          "internalType": "bool",
          "name": "passed",
          "type": "bool"
        }
      ],
      "stateMutability": "view",
      "type": "function"
    },
    {
      "inputs": [
        {
          "internalType": "string",
          "name": "_subjectName",
          "type": "string"
        },
        {
          "internalType": "uint256",
          "name": "_numReviewsForAcceptance",
          "type": "uint256"
        },
        {
          "internalType": "uint256",
          "name": "_credsNeededForReview",
          "type": "uint256"
        },
        {
          "internalType": "uint256",
          "name": "_percentAcceptsNeeded",
          "type": "uint256"
        },
        {
          "internalType": "uint256",
          "name": "_reviewTime",
          "type": "uint256"
        },
        {
          "internalType": "string[]",
          "name": "_consenousTypes",
          "type": "string[]"
        },
        {
          "internalType": "uint256",
          "name": "_minCredsToProposeVote",
          "type": "uint256"
        },
        {
          "internalType": "uint256",
          "name": "_minCredsToVote",
          "type": "uint256"
        },
        {
          "internalType": "uint256",
          "name": "_maxCredsCountedForVote",
          "type": "uint256"
        },
        {
          "internalType": "uint256",
          "name": "_minProposalVotes",
          "type": "uint256"
        },
        {
          "internalType": "uint256",
          "name": "_proposalTime",
          "type": "uint256"
        },
        {
          "internalType": "uint256",
          "name": "_proposalDelay",
          "type": "uint256"
        }
      ],
      "name": "propose",
      "outputs": [],
      "stateMutability": "nonpayable",
      "type": "function"
    },
    {
      "inputs": [
        {
          "internalType": "address",
          "name": "_contractAddress",
          "type": "address"
        }
      ],
      "name": "setAutomationRegistry",
      "outputs": [],
      "stateMutability": "nonpayable",
      "type": "function"
    },
    {
      "inputs": [
        {
          "internalType": "uint256",
          "name": "_feePrice",
          "type": "uint256"
        }
      ],
      "name": "setFee",
      "outputs": [],
      "stateMutability": "nonpayable",
      "type": "function"
    },
    {
      "inputs": [
        {
          "internalType": "uint256",
          "name": "_mpt",
          "type": "uint256"
        }
      ],
      "name": "setMaxProposalTime",
      "outputs": [],
      "stateMutability": "nonpayable",
      "type": "function"
    },
    {
      "inputs": [
        {
          "internalType": "uint256",
          "name": "_mrt",
          "type": "uint256"
        }
      ],
      "name": "setMaxReviewTime",
      "outputs": [],
      "stateMutability": "nonpayable",
      "type": "function"
    },
    {
      "inputs": [
        {
          "internalType": "uint256",
          "name": "_propId",
          "type": "uint256"
        }
      ],
      "name": "setProposalCanceled",
      "outputs": [],
      "stateMutability": "nonpayable",
      "type": "function"
    },
    {
      "inputs": [
        {
          "internalType": "uint256",
          "name": "_count",
          "type": "uint256"
        }
      ],
      "name": "setProposalCounter",
      "outputs": [],
      "stateMutability": "nonpayable",
      "type": "function"
    },
    {
      "inputs": [
        {
          "internalType": "uint256",
          "name": "_proposalId",
          "type": "uint256"
        }
      ],
      "name": "setProposalInactive",
      "outputs": [],
      "stateMutability": "nonpayable",
      "type": "function"
    },
    {
      "inputs": [
        {
          "internalType": "string",
          "name": "_subjectName",
          "type": "string"
        },
        {
          "internalType": "uint256",
          "name": "_pt",
          "type": "uint256"
        }
      ],
      "name": "setSubjectProposalTime",
      "outputs": [],
      "stateMutability": "nonpayable",
      "type": "function"
    },
    {
      "inputs": [
        {
          "internalType": "string",
          "name": "_subjectName",
          "type": "string"
        },
        {
          "internalType": "uint256",
          "name": "_rt",
          "type": "uint256"
        }
      ],
      "name": "setSubjectReviewTime",
      "outputs": [],
      "stateMutability": "nonpayable",
      "type": "function"
    },
    {
      "inputs": [
        {
          "internalType": "uint256",
          "name": "_upkeepId",
          "type": "uint256"
        }
      ],
      "name": "setUpkkepId",
      "outputs": [],
      "stateMutability": "nonpayable",
      "type": "function"
    },
    {
      "inputs": [
        {
          "internalType": "address",
          "name": "_contractAddress",
          "type": "address"
        }
      ],
      "name": "setlearntgetherReviewer",
      "outputs": [],
      "stateMutability": "nonpayable",
      "type": "function"
    },
    {
      "inputs": [
        {
          "internalType": "uint256",
          "name": "",
          "type": "uint256"
        }
      ],
      "name": "subjectNames",
      "outputs": [
        {
          "internalType": "string",
          "name": "",
          "type": "string"
        }
      ],
      "stateMutability": "view",
      "type": "function"
    },
    {
      "inputs": [
        {
          "internalType": "string",
          "name": "",
          "type": "string"
        }
      ],
      "name": "subjects",
      "outputs": [
        {
          "internalType": "address",
          "name": "creator",
          "type": "address"
        },
        {
          "internalType": "uint256",
          "name": "numReviewsForAcceptance",
          "type": "uint256"
        },
        {
          "internalType": "uint256",
          "name": "credsNeededForReview",
          "type": "uint256"
        },
        {
          "internalType": "uint256",
          "name": "percentAcceptsNeeded",
          "type": "uint256"
        },
        {
          "internalType": "uint256",
          "name": "reviewTime",
          "type": "uint256"
        },
        {
          "internalType": "uint256",
          "name": "minCredsToProposeVote",
          "type": "uint256"
        },
        {
          "internalType": "uint256",
          "name": "minCredsToVote",
          "type": "uint256"
        },
        {
          "internalType": "uint256",
          "name": "maxCredsCountedForVote",
          "type": "uint256"
        },
        {
          "internalType": "uint256",
          "name": "minProposalVotes",
          "type": "uint256"
        },
        {
          "internalType": "uint256",
          "name": "proposalTime",
          "type": "uint256"
        },
        {
          "internalType": "uint256",
          "name": "proposalDelay",
          "type": "uint256"
        }
      ],
      "stateMutability": "view",
      "type": "function"
    },
    {
      "inputs": [],
      "name": "upkeepId",
      "outputs": [
        {
          "internalType": "uint256",
          "name": "",
          "type": "uint256"
        }
      ],
      "stateMutability": "view",
      "type": "function"
    },
    {
      "inputs": [
        {
          "internalType": "uint256",
          "name": "proposalId",
          "type": "uint256"
        },
        {
          "internalType": "bool",
          "name": "voteChoice",
          "type": "bool"
        }
      ],
      "name": "vote",
      "outputs": [],
      "stateMutability": "nonpayable",
      "type": "function"
    }
  ],
  "bytecode": "0x6080346200011857601f62002e6038819003918201601f19168301916001600160401b03831184841017620001045780849260609460405283398101031262000118576200004d816200011c565b9060406200005e602083016200011c565b9101519160018060a01b0319913383600a541617600a5560018060a01b0380921683600954161760095516918282600c541617600c55600b55600d541617600d55627864508060065560075560016002556005546801000000000000000081101562000104576001810180600555811015620000f0575f9060058252602082200155604051612d2e9081620001328239f35b634e487b7160e01b5f52603260045260245ffd5b634e487b7160e01b5f52604160045260245ffd5b5f80fd5b51906001600160a01b0382168203620001185756fe6101206040526004361015610012575f80fd5b5f803560e01c8063013cf08b1461218957806304b38add146121315780631282f609146120ee5780631e21a31f14611d3e5780632afe399114611d0e5780632bc2d70514611cd45780632dac55d914611c6a5780633d69b07314611b8c5780633dc89bfe14611b40578063408958d614611b175780634585e33b146116b2578063495d855e146116945780634b429c831461164c5780634be6c059146116235780635787a0cc146115f35780635bdcd008146115b55780635e6c102e1461145a5780635ff2d2aa14611408578063685357091461138e57806369fe0e2d1461135e5780637823e226146113405780638b64044014611310578063a169093b146112e0578063a511d6851461125b578063ae9cff5e146111bf578063b60a85ae14611192578063b8fc4d9014610b30578063c9d27afe146106f5578063d0d83923146104c5578063d2aa789f146104a7578063d39686a714610369578063d7a5e5c01461033d578063dcb46377146102ef578063fc687c80146102785763fe2904231461019c575f80fd5b34610275576020366003190112610275576004356001600160401b038111610271576020610160926101d56101e9933690600401612441565b9082604051948386809551938492016123fb565b82019081520301902060018060a01b03815416906001810154906002810154600382015460048301546006840154600785015491600886015493600987015495600b600a890154980154986040519a8b5260208b015260408a01526060890152608088015260a087015260c086015260e0850152610100840152610120830152610140820152f35b5080fd5b80fd5b503461027557602036600319011261027557600435600154811015610271576102a0906124c7565b9190916102db576040516102d7906102c3816102bc8187612349565b03826123da565b60405191829160208352602083019061241c565b0390f35b634e487b7160e01b81526004819052602490fd5b5034610275576020600461032f61030536612496565b939061031c60018060a01b03600a54163314612beb565b81604051938285809451938492016123fb565b810186815203019020015580f35b5034610275576020600a61032f61035336612496565b939061031c60018060a01b038554163314612beb565b50346102755760209081600319360112610275576004356001600160401b0381116102715761039f6102d7913690600401612441565b604051906103d5815192868301936103b88183876123fb565b810186815281900387019020546001600160a01b03161515612c30565b6001604051868184516103e98183896123fb565b81018881520301902001549361048060056104718860026040518281806104148c8c519283916123fb565b810189815203019020015496600360405183818a516104348183886123fb565b81018a815203019020015495600460405184818b516104548183896123fb565b8101858152030190200154976040519485938492519283916123fb565b82019081520301902001612c76565b9260405196879687528601526040850152606084015260a0608084015260a0830190612678565b50346102755780600319360112610275576020600f54604051908152f35b50346102755760208060031936011261027157600435808352600380835260408420549192916001600160a01b031633036106b457828452808252600160ff60146040872001541615150361066f57828452808252600e604085200154600554801561062a575f19810190811161061657925f80516020612cd983398151915294928285604096899503610583575b5050838352815281600e8582206014810160ff1981541690550155610577612bad565b8351928352820152a180f35b7ff041f52db3fd2f56a979d9dd319aa6a6e399c198410349cf154eb4b4568d7daa916105d96105b289936124f3565b905490861b1c6105c1836124f3565b90919082549060031b91821b915f19901b1916179055565b6105e2816124f3565b905490851b1c865283855280600e83882001556105fe816124f3565b905490851b1c90825191825285820152a15f80610554565b634e487b7160e01b86526011600452602486fd5b60405162461bcd60e51b815260048101859052601d60248201527f546865726520617265206e6f206163746976652050726f706f73616c730000006044820152606490fd5b60405162461bcd60e51b815260048101839052601b60248201527f546869732070726f706f73616c206973206e6f742061637469766500000000006044820152606490fd5b60405162461bcd60e51b81526004810183905260196024820152785573657220646964206e6f742070726f706f7365207468697360381b6044820152606490fd5b503461027557604036600319011261027557600435602490813580151592838203610b2c57600254831015610aed578285526020906003825260408620906001918260ff601483015416151503610aa957600d8101549183820192610775600b8b886040518092610766828b61293a565b908152030190200154826129d4565b4210159081610a62575b5015610a2657600e546040516397206ab760e01b81526001600160a01b0390911693908681806107b38533600484016129e1565b0381885afa9081156109b0576107d59187918d916109f9575b501515146128bb565b6013830193335f5284875260ff60405f2054166109bb5786604051809263598f921b60e01b8252818061080c8733600484016129e1565b03915afa9081156109b0578b9161097f575b5060078b886040518092610832828861293a565b908152030190200154811061093b5790869160088c846040518092610857828861293a565b908152030190200154811115610932575060089161087b916040519283809261293a565b8d8152030190200154955b1561090857600f82018054918583018093116108f657505560110180546108ae9086906129d4565b90555b335f52825260405f209060ff198254161790556040519384528301527f7c2de587c00d75474a0c6c6fa96fd3b45dc974cd4e8a75f712bb84c950dce1b560403393a380f35b634e487b7160e01b8b5260116004528afd5b601082018054918583018093116108f6575055601201805461092b9086906129d4565b90556108b1565b91505095610886565b60405162461bcd60e51b815260048101889052601b818501527f496e73756666696369656e7420637265647320746f20766f74652e00000000006044820152606490fd5b90508681813d83116109a9575b61099681836123da565b810103126109a557515f61081e565b5f80fd5b503d61098c565b6040513d8d823e3d90fd5b60405162461bcd60e51b815260048101889052601781850152762cb7ba903430bb329030b63932b0b23c903b37ba32b21760491b6044820152606490fd5b610a199150893d8b11610a1f575b610a1181836123da565b81019061287e565b5f6107cc565b503d610a07565b8460166064926040519262461bcd60e51b84526004840152820152754e6f742041637469766520566f74696e672054696d6560501b6044820152fd5b610aa09150610a8d90600b8c896040518092610a7e828c61293a565b908152030190200154906129d4565b600a8b886040518092610a7e828b61293a565b4211155f61077f565b60405162461bcd60e51b815260048101859052601c818401527f50726f706f73616c206973206e6f206c6f6e67657220416374697665000000006044820152606490fd5b60649060186040519162461bcd60e51b83526020600484015282015277283937b837b9b0b6103237b2b9903737ba1032bc34b9ba1760411b6044820152fd5b8480fd5b50346102755780610b4036612537565b97989b96809b929693959a9b9180986040518551610b62818360208a016123fb565b8101918252908190036020019020546001600160a01b03161561115557338f52600860205260408f205460ff166110ee578e60018060a01b03600e5416906040516397206ab760e01b815260208180610bbf8a3360048401612896565b0381865afa9081156110e357610be19160019184916110ca57501515146128bb565b6020604051809363598f921b60e01b82528180610c028b3360048401612896565b03915afa9182156110bd578192611088575b506006906020604051809282610c308b848151938492016123fb565b820190815203019020015411611043578e80602060018060a01b03600954166064600b5460405194859384926323b872dd60e01b845233600485015230602485015260448401525af19182156110375791611018575b5015610fdd5760408f600254815260036020522091600754809111610fd5575b50600654809111610fcd575b5080546001600160a01b03191633178155610cd083600183016127bd565b8b60028201558c60038201558960048201558160058201558d60068201855191610cfa83836126e9565b90815260208082209087015b838310610fb05750505050808b6007601493015585600882015586600982015587600a82015588600b82015589600c82015542600d820155600554600e82015501600160ff198254161790558c602060018060a01b036009541691604460018060a01b03600d5416600b5492604051958694859363095ea7b360e01b8552600485015260248401525af18015610f8057610f91575b5060018060a01b03600c54168d600f54600b5490833b15610f8d5760449083604051958694859363085f452560e41b8552600485015260248401525af18015610f8057610f51575b50338d52600860205260408d20805460ff1916600117905560025460055490600160401b821015610f3d576105c1826001610e2194016005556124f3565b6040516020818451610e3681838589016123fb565b81016004815203019020600254815491600160401b831015610f3d57826105c1916001610e659501815561250b565b610e70600254612918565b60025560055498895f19810111610f29576040519c8d9c8d943386526102008060208801528601610ea09161241c565b946040015260608d015260808c015260a08b015289810360c08b0152610ec591612678565b9660e0890152610100880152610120870152610140860152610160850152610180840152426101a08401525f19016101c08301526101e0820160019052037f094938eebe14190c3ded8519c2964aa2ea82bd00f0bfb5c4410ab5a936a1435491a180f35b634e487b7160e01b8e52601160045260248efd5b634e487b7160e01b5f52604160045260245ffd5b6001600160401b03819e929e11610f6c576040529b5f610de3565b634e487b7160e01b82526041600452602482fd5b8e604051903d90823e3d90fd5b8280fd5b610fa99060203d602011610a1f57610a1181836123da565b505f610d9b565b6001602082610fc1839451866127bd565b01920192019190610d06565b97505f610cb2565b92505f610ca6565b60405162461bcd60e51b8152602060048201526013602482015272119959481d1c985b9cd9995c8819985a5b1959606a1b6044820152606490fd5b611031915060203d602011610a1f57610a1181836123da565b5f610c86565b604051903d90823e3d90fd5b60405162461bcd60e51b815260206004820152601e60248201527f496e73756666696369656e7420637265647320746f2070726f706f73652e00006044820152606490fd5b9091506020813d6020116110b5575b816110a4602093836123da565b810103126102715751906006610c14565b3d9150611097565b50604051903d90823e3d90fd5b610a19915060203d602011610a1f57610a1181836123da565b6040513d84823e3d90fd5b60405162461bcd60e51b815260206004820152603960248201527f5573657220686173204f70656e205265766965772c20506c65617365207761696044820152783a103ab73a34b6361034ba1034b990383937b1b2b9b9b2b21760391b6064820152608490fd5b60405162461bcd60e51b815260206004820152601560248201527414dd589a9958dd08191bd95cdb89dd08195e1a5cdd605a1b6044820152606490fd5b503461027557602036600319011261027557600e6040602092600435815260038452200154604051908152f35b50346102755760209081600319360112610275576004358082526003835260408220546001600160a01b03161561121b576040826006926112069452600385522001612c76565b906102d7604051928284938452830190612678565b60405162461bcd60e51b8152600481018490526018602482015277141c9bdc1bdcd85b08111bd95cc8139bdd08115e1cda5cdd60421b6044820152606490fd5b50346102755760209081600319360112610275576004356001600160401b0381116102715761047183611206936112986005943690600401612441565b90604051916112cf815193858301946112b28183886123fb565b810184815281900386019020546001600160a01b03161515612c30565b6040519485938492519283916123fb565b50346102755760203660031901126102755761130760018060a01b03600a54163314612beb565b60043560065580f35b50346102755760203660031901126102755761133760018060a01b03600a54163314612beb565b60043560025580f35b50346102755780600319360112610275576020600b54604051908152f35b50346102755760203660031901126102755761138560018060a01b03600a54163314612beb565b600435600b5580f35b50346102755760403660031901126102755760a0906113ab612662565b90602435815260036020526040812091600f8301549260ff604060118301549460136010850154946012810154966001808c1b03168352016020522054169260405194855260208501526040840152606083015215156080820152f35b503461027557602036600319011261027557611422612662565b600a546001600160a01b03919061143c9083163314612beb565b1660018060a01b03198181600c541617600c55600d541617600d5580f35b50346102755761146936612619565b5050808190600554806114d6575b506040519160208301526020825260408201928284106001600160401b038511176114c25750826040521515825260406060820152603f19906114bd608082018261241c565b030190f35b634e487b7160e01b81526041600452602490fd5b8360015b8281106114e8575050611477565b6114f1816124f3565b9054600391821b1c875261156060208281528261153c8a600b61153460016040600d8186200154946115228c6124f3565b905490891b1c815287895220016129b8565b0154906129d4565b91611546866124f3565b905490831b1c8b5252600a611534600160408c20016129b8565b9042821115806115a3575b611580575b505061157b90612918565b6114da565b94509450905061157b600193611595836124f3565b9054911b1c9491905f611570565b50838211158061156b5750831561156b565b5034610275576020366003190112610275576014604080926004358152600360205220015460ff8251918181161515835260081c1615156020820152f35b50346102755760203660031901126102755761161a60018060a01b03600a54163314612beb565b600435600f5580f35b5034610275578060031936011261027557600e546040516001600160a01b039091168152602090f35b503461027557602036600319011261027557611666612662565b600a546001600160a01b0391906116809083163314612beb565b1660018060a01b0319600e541617600e5580f35b50346102755780600319360112610275576020600554604051908152f35b50346102755760206116c336612619565b90809291810103126102715780358252600360205261170f6116f560408420600b6115346001600d84015493016129b8565b823584526003602052600a611534600160408720016129b8565b813515159081611b0c575b81611b02575b50611729575080f35b80358252600360205260408220600f81015460108201548082119182611ac3575b82611a92575b505015611a575760405160208161176a816001860161293a565b86815203019020600282015460018201556003820154600282015560048201549060038101918255600583015460048201556117ac6006840160058301612b60565b600783015460068201556008830154600782015560098301546008820155600a8301546009820155600b830154600a820155600c830154600b8201558335855260036020526014604086200161010061ff00198254161790555f80516020612cd9833981519152604080518635815260016020820152a160018060a01b038154169183600183015493600284015492549460048501549160068601546007870154908b60088901549360098a015495600a8b0154976001600b8d01549a611879604051809381930161293a565b0390209c6040519b8c93602061018095868101978152015260408d015260608c015260808b015260a08a015260058a01548091526101a06005818b019183821b8c01019b0183526020832092905b828210611a27575050505060c087015260e08601526101008501526101208401526101408301526101608201527f5a5f2bfc7b631120fc633d71c494b4ac40ec365f447c4e3cf4dca35ead9bdb3d9181900390a25b546001600160a01b03168252600860209081526040808420805460ff199081166001179091558335855260039092528320601481018054909216909155600e01546005545f198101908111611a1357808203611991575b5050358152600360205280600e60408220015561198e612bad565b80f35b7ff041f52db3fd2f56a979d9dd319aa6a6e399c198410349cf154eb4b4568d7daa916119d16119c16040936124f3565b90549060031b1c6105c1836124f3565b6119da816124f3565b90549060031b1c8552600360205280600e83872001556119f9816124f3565b90549060031b1c9082519182526020820152a15f80611973565b634e487b7160e01b84526011600452602484fd5b909192999a60206001611a4781938f8f9061019f19908303018752612349565b9d9c0194939190910191016118c7565b8135835260036020526014604084200161ff001981541690555f80516020612cd98339815191526040805184358152856020820152a161191c565b611a9c92506129d4565b6009604051602081611ab1816001880161293a565b88815203019020015411155f80611750565b915060118301546012840154108015611add575b9161174a565b506008604051602081611af3816001890161293a565b89815203019020015415611ad7565b905015155f611720565b42811115915061171a565b5034610275578060031936011261027557600c546040516001600160a01b039091168152602090f35b5034610275576020366003190112610275576004356001600160401b03811161027157611b796020809361129860049436908601612441565b8201908152030190200154604051908152f35b5034610275576020908160031936011261027557600435916001600160401b03831161027157611bc26060933690600401612441565b6003611c4e83604051611bfd85519183870192611be08183866123fb565b810189815281900384019020546001600160a01b03161515612c30565b600160405183818851611c118183886123fb565b81018b815203019020015496600260405184818951611c318183896123fb565b8101858152030190200154956040519485938492519283916123fb565b8201908152030190200154916040519384528301526040820152f35b5034610275576020366003190112610275576004356001600160401b0381116102715790611c9e6020923690600401612441565b82611cb260405192838151938492016123fb565b81019182529081900382019020546040516001600160a01b0390911615158152f35b5034610275576020366003190112610275576004356001600160401b03811161027157611b79602080936101d56001943690600401612441565b503461027557602036600319011261027557611d3560018060a01b03600a54163314612beb565b60043560075580f35b503461027557611d4d36612537565b959b9a8795979a989a9492949180968d6040518451611d708183602089016123fb565b8101918252908190036020019020546001600160a01b03166120af576007548091116120a7575b5060065480911161209f575b508b602060405180928451611dbb81848689016123fb565b8201908152030190203360018060a01b03198254161790558860018d60206040518092865190611dee8284868b016123fb565b8183015281010301902001558960028d602060405180928651611e148184868b016123fb565b82019081520301902001558a60038d602060405180928651611e398184868b016123fb565b82019081520301902001558160048d602060405180928651611e5e8184868b016123fb565b82019081520301902001558c8c60056040516020818651611e828183858b016123fb565b810185815203019020016020835193611e9b85846126e9565b0191528d6020812090915b83831061208257505050508760068d602060405180928651611ecb8184868b016123fb565b82019081520301902001558260078d602060405180928651611ef08184868b016123fb565b82019081520301902001558360088d602060405180928651611f158184868b016123fb565b82019081520301902001558460098d602060405180928651611f3a8184868b016123fb565b820190815203019020015585600a8d602060405180928651611f5f8184868b016123fb565b820190815203019020015586600b8d602060405180928651611f848184868b016123fb565b8201908152030190200155600154600160401b81101561206e57806001611fae92016001556124c7565b61205a5791611ffd827f4b9c75b54cbf512ca81ae3520bb91a353fff998b43b17a0da4edcf604657a8709d9e9f93611fe990612031966127bd565b6020604051928284809451938492016123fb565b81010390209c6040519b8c9b338d5260208d015260408c015260608b015260808a01526101808060a08b0152890190612678565b9560c088015260e08701526101008601526101208501526101408401526101608301520390a280f35b634e487b7160e01b8d5260048d905260248dfd5b634e487b7160e01b8d52604160045260248dfd5b6001602082612093839451866127bd565b01920192019190611ea6565b95505f611da3565b92505f611d97565b60405162461bcd60e51b815260206004820152601760248201527629bab13532b1ba1030b63932b0b23c9032bc34b9ba399760491b6044820152606490fd5b50346102755760203660031901126102755761211560018060a01b03600a54163314612beb565b6004358152600360205260408120601401805460ff1916905580f35b50346102755760209061215b61214636612496565b939081604051938285809451938492016123fb565b8101600481520301902090815483101561027557602061217b848461250b565b90546040519160031b1c8152f35b503461027557602036600319011261027557600435815260036020526040902080546001600160a01b0316906101206121c58160018401612349565b03610120906121d3916123da565b6002810154608052600381015461010052600481015460c052600581015491600782015460088301546009840154600a850154600b860154600c87015490600d88015492600e89015494600f8a01549660108b01549860118c01549a60128d01549c6014015460e0526040518060a052526102808060a0516020015260a05101610120906122609161241c565b9c60805160a051604001526101005160a0516060015260c05160a0516080015260a05160a0015260a05160c0015260a05160e0015260a051610100015260a051610120015260a051610140015260a051610160015260a051610180015260a0516101a0015260a0516101c0015260a0516101e0015260a051610200015260a051610220015260e05160ff16151560a051610240015260e05160081c60ff16151560a051610260015260a05180910390f35b90600182811c9216801561233f575b602083101461232b57565b634e487b7160e01b5f52602260045260245ffd5b91607f1691612320565b905f929180549161235983612311565b9182825260019384811690815f146123b7575060011461237a575b50505050565b90919394505f52602092835f2092845f945b8386106123a357505050500101905f808080612374565b80548587018301529401938590820161238c565b9294505050602093945060ff191683830152151560051b0101905f808080612374565b90601f801991011681019081106001600160401b03821117610f3d57604052565b5f5b83811061240c5750505f910152565b81810151838201526020016123fd565b90602091612435815180928185528580860191016123fb565b601f01601f1916010190565b81601f820112156109a5578035906001600160401b038211610f3d5760405192612475601f8401601f1916602001856123da565b828452602083830101116109a557815f926020809301838601378301015290565b60406003198201126109a557600435906001600160401b0382116109a5576124c091600401612441565b9060243590565b6001548110156124df5760015f5260205f2001905f90565b634e487b7160e01b5f52603260045260245ffd5b6005548110156124df5760055f5260205f2001905f90565b80548210156124df575f5260205f2001905f90565b6001600160401b038111610f3d5760051b60200190565b906101806003198301126109a5576001600160401b036004358181116109a5578361256491600401612441565b92602480359360443593606435936084359360a435928084116109a557826023850112156109a557836004013561259a81612520565b946125a860405196876123da565b818652602094848688019360051b830101948186116109a557808301935b8685106125f45750505050505050509060c4359060e435906101043590610124359061014435906101643590565b84358681116109a557889161260e85858594890101612441565b8152019401936125c6565b9060206003198301126109a5576004356001600160401b03928382116109a557806023830112156109a55781600401359384116109a557602484830101116109a5576024019190565b600435906001600160a01b03821682036109a557565b908082519081815260208091019281808460051b8301019501935f915b8483106126a55750505050505090565b90919293949584806126c3600193601f198682030187528a5161241c565b9801930193019194939290612695565b8181106126de575050565b5f81556001016126d3565b600160401b8211610f3d5780549180825582811061270657505050565b5f91825260209081832093840193015b8381106127235750505050565b808361273160019354612311565b8061273f575b505001612716565b601f808211851461275657505081555b835f612737565b61276f90848452868420920160051c82018583016126d3565b8183555561274f565b9190601f811161278757505050565b6127b1925f5260205f20906020601f840160051c830193106127b3575b601f0160051c01906126d3565b565b90915081906127a4565b91909182516001600160401b038111610f3d576127e4816127de8454612311565b84612778565b602080601f831160011461281e5750819293945f92612813575b50508160011b915f199060031b1c1916179055565b015190505f806127fe565b90601f19831695845f52825f20925f905b8882106128665750508360019596971061284e575b505050811b019055565b01515f1960f88460031b161c191690555f8080612844565b8060018596829496860151815501950193019061282f565b908160209103126109a5575180151581036109a55790565b6001600160a01b0390911681526040602082018190526128b89291019061241c565b90565b156128c257565b60405162461bcd60e51b815260206004820152602860248201527f596f7520617265206e6f74206120726576696577657220666f7220746869732060448201526739bab13532b1ba1760c11b6064820152608490fd5b5f1981146129265760010190565b634e487b7160e01b5f52601160045260245ffd5b5f9291815461294881612311565b9260019180831690811561299d57506001146129645750505050565b9091929394505f52602090815f20905f915b85831061298c575050505001905f808080612374565b805485840152918301918101612976565b60ff191684525050508115159091020191505f808080612374565b60206129ca916040519283809261293a565b5f81520301902090565b9190820180921161292657565b919060018060a01b031682526020916040838201525f928254612a0381612311565b9384604085015260019182811690815f14612a635750600114612a29575b505050505090565b5f908152828120949550935b858510612a4f575050506060925001015f80808080612a21565b805485850160600152938201938101612a35565b93505050506060935060ff929192191683830152151560051b01015f80808080612a21565b90808214612b5c57612a9a8154612311565b906001600160401b038211610f3d578190612abf82612ab98654612311565b86612778565b5f90601f8311600114612af2575f92612ae75750508160011b915f199060031b1c1916179055565b015490505f806127fe565b81526020808220858352818320935090601f1985169083905b828210612b43575050908460019594939210612b2b57505050811b019055565b01545f1960f88460031b161c191690555f8080612844565b8495819295850154815560018091019601940190612b0b565b5050565b818114612b5c57815491612b7483836126e9565b5f5260205f20905f5260205f20905f905b838210612b925750505050565b80612b9f60019285612a88565b928101929181019101612b85565b6005548015612bd7575f1990810190612bc5826124f3565b909182549160031b1b19169055600555565b634e487b7160e01b5f52603160045260245ffd5b15612bf257565b60405162461bcd60e51b81526020600482015260166024820152752737ba103a34329031b7b73a3930b1ba1037bbb732b960511b6044820152606490fd5b15612c3757565b60405162461bcd60e51b815260206004820152601760248201527614dd589a9958dd08111bd95cc8139bdd08115e1cda5cdd604a1b6044820152606490fd5b908154612c8281612520565b92604093612c92855191826123da565b82815280946020809201925f52815f20905f935b858510612cb557505050505050565b60018481928451612cca816102bc818a612349565b815201930194019391612ca656fe35baaec8d9c9da1c77f27119243a4384b49eae2bf0680aa0eebe3b62d28574a5a26469706673582212203abe6c3063f021e9c4bd175f01a0d9047ece2aa4cffe881ab19218bc6ebc096164736f6c63430008140033",
  "linkReferences": {},
  "deployedLinkReferences": {}
}