{"contracts/MockLaneContact.sol":{"MockLaneContract":{"abi":[{"inputs":[{"internalType":"uint256","name":"id","type":"uint256"}],"name":"appendToLane","outputs":[{"internalType":"uint256","name":"","type":"uint256"}],"stateMutability":"payable","type":"function"},{"inputs":[],"name":"getLaneLength","outputs":[{"internalType":"uint256","name":"","type":"uint256"}],"stateMutability":"view","type":"function"},{"inputs":[],"name":"laneLength","outputs":[{"internalType":"uint256","name":"","type":"uint256"}],"stateMutability":"view","type":"function"},{"inputs":[],"name":"performUpkeep","outputs":[],"stateMutability":"nonpayable","type":"function"},{"inputs":[{"internalType":"address","name":"registry","type":"address"},{"internalType":"uint256","name":"laneId","type":"uint256"},{"internalType":"uint256","name":"newLength","type":"uint256"}],"name":"reportLaneLengthToRegistry","outputs":[],"stateMutability":"nonpayable","type":"function"}],"evm":{"bytecode":{"linkReferences":{},"object":"60808060405234610016576101b5908161001b8239f35b5f80fdfe608060408181526004361015610013575f80fd5b5f91823560e01c9081636e4d243a146101685781638880c731146100cb57508063a30fcf24146100af578063a993983b146100755763b4e6011c14610056575f80fd5b34610071578160031936011261007157602091549051908152f35b5080fd5b506020366003190112610071578154906001820180921161009b57816020935551908152f35b634e487b7160e01b83526011600452602483fd5b5034610071578160031936011261007157602091549051908152f35b9190503461016457606036600319011261016457826004356001600160a01b0381169081900361007157604435808355813b156101645784838193604493632e6cfb9160e11b8452602435600485015260248401525af1801561015a57610130578280f35b67ffffffffffffffff821161014657525f808280f35b634e487b7160e01b83526041600452602483fd5b81513d85823e3d90fd5b8280fd5b833461017c578060031936011261017c5780f35b80fdfea26469706673582212206aa3de5a40f487ffec61f66ffad85344ebfba3b9da54bdb12d8d7b3692b081af64736f6c63430008140033","opcodes":"PUSH1 0x80 DUP1 PUSH1 0x40 MSTORE CALLVALUE PUSH2 0x16 JUMPI PUSH2 0x1B5 SWAP1 DUP2 PUSH2 0x1B DUP3 CODECOPY RETURN JUMPDEST PUSH0 DUP1 REVERT INVALID PUSH1 0x80 PUSH1 0x40 DUP2 DUP2 MSTORE PUSH1 0x4 CALLDATASIZE LT ISZERO PUSH2 0x13 JUMPI PUSH0 DUP1 REVERT JUMPDEST PUSH0 SWAP2 DUP3 CALLDATALOAD PUSH1 0xE0 SHR SWAP1 DUP2 PUSH4 0x6E4D243A EQ PUSH2 0x168 JUMPI DUP2 PUSH4 0x8880C731 EQ PUSH2 0xCB JUMPI POP DUP1 PUSH4 0xA30FCF24 EQ PUSH2 0xAF JUMPI DUP1 PUSH4 0xA993983B EQ PUSH2 0x75 JUMPI PUSH4 0xB4E6011C EQ PUSH2 0x56 JUMPI PUSH0 DUP1 REVERT JUMPDEST CALLVALUE PUSH2 0x71 JUMPI DUP2 PUSH1 0x3 NOT CALLDATASIZE ADD SLT PUSH2 0x71 JUMPI PUSH1 0x20 SWAP2 SLOAD SWAP1 MLOAD SWAP1 DUP2 MSTORE RETURN JUMPDEST POP DUP1 REVERT JUMPDEST POP PUSH1 0x20 CALLDATASIZE PUSH1 0x3 NOT ADD SLT PUSH2 0x71 JUMPI DUP2 SLOAD SWAP1 PUSH1 0x1 DUP3 ADD DUP1 SWAP3 GT PUSH2 0x9B JUMPI DUP2 PUSH1 0x20 SWAP4 SSTORE MLOAD SWAP1 DUP2 MSTORE RETURN JUMPDEST PUSH4 0x4E487B71 PUSH1 0xE0 SHL DUP4 MSTORE PUSH1 0x11 PUSH1 0x4 MSTORE PUSH1 0x24 DUP4 REVERT JUMPDEST POP CALLVALUE PUSH2 0x71 JUMPI DUP2 PUSH1 0x3 NOT CALLDATASIZE ADD SLT PUSH2 0x71 JUMPI PUSH1 0x20 SWAP2 SLOAD SWAP1 MLOAD SWAP1 DUP2 MSTORE RETURN JUMPDEST SWAP2 SWAP1 POP CALLVALUE PUSH2 0x164 JUMPI PUSH1 0x60 CALLDATASIZE PUSH1 0x3 NOT ADD SLT PUSH2 0x164 JUMPI DUP3 PUSH1 0x4 CALLDATALOAD PUSH1 0x1 PUSH1 0x1 PUSH1 0xA0 SHL SUB DUP2 AND SWAP1 DUP2 SWAP1 SUB PUSH2 0x71 JUMPI PUSH1 0x44 CALLDATALOAD DUP1 DUP4 SSTORE DUP2 EXTCODESIZE ISZERO PUSH2 0x164 JUMPI DUP5 DUP4 DUP2 SWAP4 PUSH1 0x44 SWAP4 PUSH4 0x2E6CFB91 PUSH1 0xE1 SHL DUP5 MSTORE PUSH1 0x24 CALLDATALOAD PUSH1 0x4 DUP6 ADD MSTORE PUSH1 0x24 DUP5 ADD MSTORE GAS CALL DUP1 ISZERO PUSH2 0x15A JUMPI PUSH2 0x130 JUMPI DUP3 DUP1 RETURN JUMPDEST PUSH8 0xFFFFFFFFFFFFFFFF DUP3 GT PUSH2 0x146 JUMPI MSTORE PUSH0 DUP1 DUP3 DUP1 RETURN JUMPDEST PUSH4 0x4E487B71 PUSH1 0xE0 SHL DUP4 MSTORE PUSH1 0x41 PUSH1 0x4 MSTORE PUSH1 0x24 DUP4 REVERT JUMPDEST DUP2 MLOAD RETURNDATASIZE DUP6 DUP3 RETURNDATACOPY RETURNDATASIZE SWAP1 REVERT JUMPDEST DUP3 DUP1 REVERT JUMPDEST DUP4 CALLVALUE PUSH2 0x17C JUMPI DUP1 PUSH1 0x3 NOT CALLDATASIZE ADD SLT PUSH2 0x17C JUMPI DUP1 RETURN JUMPDEST DUP1 REVERT INVALID LOG2 PUSH5 0x6970667358 0x22 SLT KECCAK256 PUSH11 0xA3DE5A40F487FFEC61F66F STATICCALL 0xD8 MSTORE8 PREVRANDAO 0xEB 0xFB LOG3 0xB9 0xDA SLOAD 0xBD 0xB1 0x2D DUP14 PUSH28 0x3692B081AF64736F6C63430008140033000000000000000000000000 "},"methodIdentifiers":{"appendToLane(uint256)":"a993983b","getLaneLength()":"a30fcf24","laneLength()":"b4e6011c","performUpkeep()":"6e4d243a","reportLaneLengthToRegistry(address,uint256,uint256)":"8880c731"}}}}}