{"contracts/tgehterPostConsensus.sol":{"tgetherPostConsensus":{"abi":[{"inputs":[{"internalType":"address","name":"_CommunityConsensusAddress","type":"address"},{"internalType":"address","name":"_MembersContract","type":"address"},{"internalType":"address","name":"_PostContract","type":"address"},{"internalType":"uint256","name":"_fee","type":"uint256"},{"internalType":"address","name":"_fundAddress","type":"address"}],"stateMutability":"nonpayable","type":"constructor"},{"anonymous":false,"inputs":[{"indexed":true,"internalType":"uint256","name":"communtiySubmissionId","type":"uint256"},{"indexed":true,"internalType":"string","name":"communityName","type":"string"},{"indexed":false,"internalType":"uint256","name":"timestamp","type":"uint256"},{"indexed":false,"internalType":"uint256","name":"consensusTime","type":"uint256"}],"name":"CommunitySubmitted","type":"event"},{"anonymous":false,"inputs":[{"indexed":true,"internalType":"uint256","name":"communitySubmissionId","type":"uint256"},{"indexed":false,"internalType":"uint256","name":"postId","type":"uint256"},{"indexed":false,"internalType":"string","name":"newConsensus","type":"string"}],"name":"ConsensusUpdated","type":"event"},{"anonymous":false,"inputs":[{"indexed":false,"internalType":"uint256","name":"postId","type":"uint256"},{"indexed":false,"internalType":"string","name":"keyword","type":"string"}],"name":"Keywords","type":"event"},{"anonymous":false,"inputs":[{"indexed":true,"internalType":"uint256","name":"postId","type":"uint256"},{"indexed":true,"internalType":"uint256","name":"communitySubmissionId","type":"uint256"}],"name":"PostSubmission","type":"event"},{"anonymous":false,"inputs":[{"indexed":true,"internalType":"uint256","name":"reviewId","type":"uint256"},{"indexed":true,"internalType":"uint256","name":"communitySubmissionId","type":"uint256"},{"indexed":true,"internalType":"address","name":"member","type":"address"}],"name":"ReviewCreated","type":"event"},{"anonymous":false,"inputs":[{"indexed":true,"internalType":"uint256","name":"reviewId","type":"uint256"},{"indexed":false,"internalType":"string","name":"consensus","type":"string"},{"indexed":false,"internalType":"uint256","name":"creds","type":"uint256"},{"indexed":false,"internalType":"string","name":"content","type":"string"},{"indexed":false,"internalType":"bool","name":"afterConsensus","type":"bool"}],"name":"ReviewSubmitted","type":"event"},{"inputs":[],"name":"CommunityConsensusContract","outputs":[{"internalType":"contract tgetherCommunityConsensusInterface","name":"","type":"address"}],"stateMutability":"view","type":"function"},{"inputs":[{"internalType":"uint256","name":"","type":"uint256"}],"name":"CommunitySubmissionToPost","outputs":[{"internalType":"uint256","name":"","type":"uint256"}],"stateMutability":"view","type":"function"},{"inputs":[{"internalType":"uint256","name":"","type":"uint256"}],"name":"CommunitySubmissions","outputs":[{"internalType":"string","name":"communityName","type":"string"},{"internalType":"uint256","name":"timestamp","type":"uint256"},{"internalType":"uint256","name":"consensusTime","type":"uint256"},{"internalType":"enum tgetherPostConsensus.Consensus","name":"consensus","type":"uint8"}],"stateMutability":"view","type":"function"},{"inputs":[],"name":"FundContract","outputs":[{"internalType":"contract tgetherFundInterface","name":"","type":"address"}],"stateMutability":"view","type":"function"},{"inputs":[],"name":"MembersContract","outputs":[{"internalType":"contract tgetherMembersInterface","name":"","type":"address"}],"stateMutability":"view","type":"function"},{"inputs":[{"internalType":"uint256","name":"","type":"uint256"},{"internalType":"uint256","name":"","type":"uint256"}],"name":"PostSubmissionList","outputs":[{"internalType":"uint256","name":"","type":"uint256"}],"stateMutability":"view","type":"function"},{"inputs":[],"name":"PostsContract","outputs":[{"internalType":"contract tgetherPostsInterface","name":"","type":"address"}],"stateMutability":"view","type":"function"},{"inputs":[{"internalType":"uint256","name":"","type":"uint256"}],"name":"SubmissionLane","outputs":[{"internalType":"uint256","name":"","type":"uint256"}],"stateMutability":"view","type":"function"},{"inputs":[],"name":"consensusFee","outputs":[{"internalType":"uint256","name":"","type":"uint256"}],"stateMutability":"view","type":"function"},{"inputs":[],"name":"csCounter","outputs":[{"internalType":"uint256","name":"","type":"uint256"}],"stateMutability":"view","type":"function"},{"inputs":[{"internalType":"uint256","name":"submissionId","type":"uint256"}],"name":"getCheckSubmissionForUpkeep","outputs":[{"internalType":"bool","name":"upkeepNeeded","type":"bool"},{"internalType":"int256","name":"resultId","type":"int256"}],"stateMutability":"view","type":"function"},{"inputs":[{"internalType":"uint256","name":"_communitySubmissionId","type":"uint256"}],"name":"getCommunitySubmission","outputs":[{"components":[{"internalType":"string","name":"communityName","type":"string"},{"internalType":"uint256","name":"timestamp","type":"uint256"},{"internalType":"uint256","name":"consensusTime","type":"uint256"},{"internalType":"enum tgetherPostConsensus.Consensus","name":"consensus","type":"uint8"}],"internalType":"struct tgetherPostConsensus.CommunitySubmission","name":"","type":"tuple"}],"stateMutability":"view","type":"function"},{"inputs":[{"internalType":"uint256","name":"_submissionId","type":"uint256"}],"name":"getPostConsesous","outputs":[{"internalType":"enum tgetherPostConsensus.Consensus","name":"","type":"uint8"}],"stateMutability":"view","type":"function"},{"inputs":[{"internalType":"uint256","name":"_postId","type":"uint256"}],"name":"getPostSubmissionCommunity","outputs":[{"internalType":"string","name":"","type":"string"}],"stateMutability":"view","type":"function"},{"inputs":[{"internalType":"uint256","name":"_postId","type":"uint256"}],"name":"getPostSubmissionConsensus","outputs":[{"internalType":"string","name":"","type":"string"}],"stateMutability":"view","type":"function"},{"inputs":[{"internalType":"uint256","name":"_postId","type":"uint256"}],"name":"getPostSubmissionList","outputs":[{"internalType":"uint256[]","name":"","type":"uint256[]"}],"stateMutability":"view","type":"function"},{"inputs":[{"internalType":"uint256","name":"_reviewId","type":"uint256"}],"name":"getReview","outputs":[{"components":[{"internalType":"address","name":"member","type":"address"},{"internalType":"string","name":"content","type":"string"},{"internalType":"uint256","name":"consensus","type":"uint256"},{"internalType":"string","name":"consensusType","type":"string"},{"internalType":"uint256","name":"creds","type":"uint256"},{"internalType":"bool","name":"afterConsensus","type":"bool"}],"internalType":"struct tgetherPostConsensus.Review","name":"","type":"tuple"}],"stateMutability":"view","type":"function"},{"inputs":[{"internalType":"uint256","name":"_reviewid","type":"uint256"}],"name":"getReviewConsenous","outputs":[{"internalType":"uint256","name":"consensus","type":"uint256"},{"internalType":"uint256","name":"creds","type":"uint256"},{"internalType":"bool","name":"afterConsensus","type":"bool"}],"stateMutability":"view","type":"function"},{"inputs":[{"internalType":"uint256","name":"_submissionId","type":"uint256"}],"name":"getReviewsForSubmission","outputs":[{"internalType":"uint256[]","name":"","type":"uint256[]"}],"stateMutability":"view","type":"function"},{"inputs":[{"internalType":"uint256","name":"_submissionId","type":"uint256"}],"name":"getSubmissionExpiration","outputs":[{"internalType":"uint256","name":"","type":"uint256"}],"stateMutability":"view","type":"function"},{"inputs":[{"internalType":"uint256","name":"","type":"uint256"},{"internalType":"address","name":"","type":"address"}],"name":"hasReviewed","outputs":[{"internalType":"bool","name":"","type":"bool"}],"stateMutability":"view","type":"function"},{"inputs":[{"internalType":"uint256","name":"submissionId","type":"uint256"}],"name":"manualUpkeepPost","outputs":[],"stateMutability":"nonpayable","type":"function"},{"inputs":[],"name":"maxReviews","outputs":[{"internalType":"uint256","name":"","type":"uint256"}],"stateMutability":"view","type":"function"},{"inputs":[{"internalType":"bytes","name":"performData","type":"bytes"}],"name":"performUpkeep","outputs":[],"stateMutability":"nonpayable","type":"function"},{"inputs":[{"internalType":"uint256","name":"","type":"uint256"},{"internalType":"string","name":"","type":"string"}],"name":"postCommunities","outputs":[{"internalType":"uint256","name":"","type":"uint256"}],"stateMutability":"view","type":"function"},{"inputs":[],"name":"reviewCounter","outputs":[{"internalType":"uint256","name":"","type":"uint256"}],"stateMutability":"view","type":"function"},{"inputs":[{"internalType":"uint256","name":"","type":"uint256"}],"name":"reviews","outputs":[{"internalType":"address","name":"member","type":"address"},{"internalType":"string","name":"content","type":"string"},{"internalType":"uint256","name":"consensus","type":"uint256"},{"internalType":"string","name":"consensusType","type":"string"},{"internalType":"uint256","name":"creds","type":"uint256"},{"internalType":"bool","name":"afterConsensus","type":"bool"}],"stateMutability":"view","type":"function"},{"inputs":[{"internalType":"address","name":"_contractAddress","type":"address"}],"name":"setAutomationRegistry","outputs":[],"stateMutability":"nonpayable","type":"function"},{"inputs":[{"internalType":"address","name":"_contractAddress","type":"address"}],"name":"setCommunitiesContract","outputs":[],"stateMutability":"nonpayable","type":"function"},{"inputs":[{"internalType":"uint256","name":"_feePrice","type":"uint256"}],"name":"setFee","outputs":[],"stateMutability":"nonpayable","type":"function"},{"inputs":[{"internalType":"address","name":"_contract","type":"address"}],"name":"setFundContract","outputs":[],"stateMutability":"nonpayable","type":"function"},{"inputs":[{"internalType":"address","name":"_contract","type":"address"}],"name":"setLaneRegistry","outputs":[],"stateMutability":"nonpayable","type":"function"},{"inputs":[{"internalType":"uint256","name":"_maxreviews","type":"uint256"}],"name":"setMaxReviews","outputs":[],"stateMutability":"nonpayable","type":"function"},{"inputs":[{"internalType":"address","name":"_contractAddress","type":"address"}],"name":"setMembersContract","outputs":[],"stateMutability":"nonpayable","type":"function"},{"inputs":[{"internalType":"address","name":"_contractAddress","type":"address"}],"name":"setPostsContract","outputs":[],"stateMutability":"nonpayable","type":"function"},{"inputs":[{"internalType":"string[]","name":"_deafultArray","type":"string[]"}],"name":"setdefaultConsenousTypes","outputs":[],"stateMutability":"nonpayable","type":"function"},{"inputs":[{"internalType":"uint256","name":"_communitySubmissionId","type":"uint256"},{"internalType":"string","name":"_content","type":"string"},{"internalType":"uint256","name":"_consensus","type":"uint256"}],"name":"submitReview","outputs":[{"internalType":"uint256","name":"","type":"uint256"}],"stateMutability":"nonpayable","type":"function"},{"inputs":[{"internalType":"uint256","name":"_postId","type":"uint256"},{"internalType":"string","name":"_communityName","type":"string"}],"name":"submitToCommunity","outputs":[{"internalType":"uint256","name":"","type":"uint256"}],"stateMutability":"payable","type":"function"},{"inputs":[{"internalType":"uint256","name":"","type":"uint256"},{"internalType":"uint256","name":"","type":"uint256"}],"name":"submmisionReviews","outputs":[{"internalType":"uint256","name":"","type":"uint256"}],"stateMutability":"view","type":"function"}],"evm":{"bytecode":{"linkReferences":{},"object":"6080346200035b57601f1962002c1938819003601f818101841685019490926001600160401b0392908287108488111762000347578160a09284926040998a528339810103126200035b5762000055816200037f565b6020620000648184016200037f565b94620000728885016200037f565b96620000866080606087015196016200037f565b95895190606082018281108282111762000347578b52620000a66200035f565b6012815271436f6e73656e736f75732050656e64696e6760701b868201528252620000d06200035f565b60088152671058d8d95c1d195960c21b8682015285830152620000f26200035f565b600881526714995a9958dd195960c21b868201528b8301526009549160039283600955808410620002cd575b5092915f94600986528686209386955b838710620001a65750505050505050505060018060a01b0319943386601254161760125560018060a01b0380958180941688600c541617600c551686600d541617600d551684600e541617600e5560105516906013541617601355600160075560016002556064601155516128319081620003e88239f35b8051805190868211620002b957908a91620001c2895462000394565b8681116200027e575b5082908b8784116001146200021557926001959281928796959262000209575b50505f19828a1b1c191690841b1789555b019601960195946200012e565b015190505f80620001eb565b50898c52838c2091908387168d5b8181106200026557509160019693918588979694106200024d575b505050831b83018955620001fc565b01515f19838b1b60f8161c191690555f80806200023e565b8284015185558f96600190950194938401930162000223565b620002a8908a8d52848d20600589808701821c830193888810620002af575b01901c0190620003cf565b5f620001cb565b935082936200029d565b634e487b7160e01b8a52604160045260248afd5b5f600981528488822092830192015b828110620002ec5750506200011e565b8082620002fc6001935462000394565b806200030c575b505001620002dc565b8a8111841462000322575081555b825f62000303565b8282526200033d8b8d8420920160051c8201858301620003cf565b818355556200031a565b634e487b7160e01b5f52604160045260245ffd5b5f80fd5b60408051919082016001600160401b038111838210176200034757604052565b51906001600160a01b03821682036200035b57565b90600182811c92168015620003c4575b6020831014620003b057565b634e487b7160e01b5f52602260045260245ffd5b91607f1691620003a4565b818110620003db575050565b5f8155600101620003cf56fe6080806040526004361015610012575f80fd5b5f90813560e01c908163059597f714611f3a575080631651902a14611efa5780631ea4905114611e9557806334ca35c414611c8a5780633c09203b14611c425780634215c5e414611c245780634585e33b14611a3b57806347631adb14611a125780634ed59812146119f457806359144baa146119ac5780635ff2d2aa146119645780636356eea414611143578063651fa206146110fb57806369fe0e2d146110cb5780636c79bd2b1461105a5780637c7198cc1461100a57806385dba4011461077f578063884b80f214610fe05780638ed8067e14610fb7578063990581b614610e9d578063a594004114610e7f578063ac97980d14610e55578063ad2957ff14610e0d578063b9e2fc3e14610dc3578063c5dce24d14610d48578063d1a34aa314610d18578063d39065fa14610cd0578063d3a3f77114610c8a578063d46219a214610c4f578063d8db3807146109b4578063de8b32c5146108cc578063e1485776146108a3578063e168b3a814610885578063e83ddcea146107d1578063ea487a9214610784578063eabccdb61461077f578063eeb0cf761461073e578063f27939021461070e5763fa1396f5146101cb575f80fd5b6101d436612224565b600e54604051632c89540360e21b8152600481018490526001600160a01b0393916020908290602490829088165afa9081156105f85785916106d0575b50156106955782600c5416916040516324c9db2f60e01b8152602060048201526020818061024260248201866120e2565b0381875afa90811561057b578691610657575b50156106035760206040518094633bebe05160e01b8252826004830152818061028160248201876120e2565b03915afa9283156105f85785936105c4575b50604051936102a185612009565b8185524260208601528360408601526001606086015283155f146104f457508460608501525b6002549384865285602052604086209080518051906001600160401b0382116104e0576102f4845461214e565b601f81116104a5575b50602090601f831160011461043f5760609392918a9183610434575b50508160011b915f199060031b1c19161783555b6020810151600184015560408101516002840155015190600482101561042057927fe4c157bdf18b292c67a85f8afa9036d1fd70e345be3ad305fafc7841c4801a3f6020976104077fd3f28a1c655091033012bc55d258bf3cbd4ea4fb8bc2ff81c626a2aad9354e46956103a760409660038c9a01612290565b84835260038b526103ba888785206122a8565b84835260048b52858320908887518d81845195828601966103dc81848a6120c1565b820190815203019020556103f16002546122dc565b600255888751968796868897a3519283916120c1565b81010390209381519042825287820152a3604051908152f35b634e487b7160e01b87526021600452602487fd5b015190505f80610319565b848a5260208a209190601f1984168b5b81811061048d5750916001939185606097969410610475575b505050811b01835561032d565b01515f1960f88460031b161c191690555f8080610468565b9293602060018192878601518155019501930161044f565b6104d090858b5260208b20601f850160051c810191602086106104d6575b601f0160051c019061227a565b5f6102fd565b90915081906104c3565b634e487b7160e01b89526041600452602489fd5b601054340361058657600f5416602060025460246040518094819363a993983b60e01b8352600483015234905af190811561057b578691610545575b506002548652600560205260408620556102c7565b90506020813d602011610573575b816105606020938361203f565b8101031261056f57515f610530565b5f80fd5b3d9150610553565b6040513d88823e3d90fd5b60405162461bcd60e51b81526020600482015260166024820152754d7573742073656e642070726f706f73616c2066656560501b6044820152606490fd5b9092506020813d6020116105f0575b816105e06020938361203f565b8101031261056f5751915f610293565b3d91506105d3565b6040513d87823e3d90fd5b60405162461bcd60e51b815260206004820152602660248201527f436f6d6d756e69747920436f6e73656e73757320506172616d7320646f6e277460448201526508195e1a5cdd60d21b6064820152608490fd5b90506020813d60201161068d575b816106726020938361203f565b81010312610689576106839061226d565b5f610255565b8580fd5b3d9150610665565b60405162461bcd60e51b8152602060048201526013602482015272141bdcdd08191bd95cc81b9bdd08195e1a5cdd606a1b6044820152606490fd5b90506020813d602011610706575b816106eb6020938361203f565b81010312610702576106fc9061226d565b5f610211565b8480fd5b3d91506106de565b503461073b57602036600319011261073b57604061072d6004356124da565b825191151582526020820152f35b80fd5b503461073b5761074d36611f5f565b9190815260036020526040812090815483101561073b5760206107708484611f75565b90549060031b1c604051908152f35b612107565b503461073b57602036600319011261073b5760ff600360406020936004358082528186526107b96001848420015415156122ea565b8152808552200154166107cf6040518092612217565bf35b503461073b57602036600319011261073b576004358152600660205260409081902080549151916001600160a01b03169061081a836108138160018501612186565b038461203f565b600281015461087460405191610837836108138160038801612186565b60ff600560048601549501541692610861604051978897885260c0602089015260c08801906120e2565b91604087015285820360608701526120e2565b916080840152151560a08301520390f35b503461073b578060031936011261073b576020600754604051908152f35b503461073b578060031936011261073b57600d546040516001600160a01b039091168152602090f35b503461073b576020908160031936011261073b5780604091606083516108f181612009565b818152828682015282858201520152600435815280835220906040519061091782612009565b60405161092f816109288187612186565b038261203f565b825260018301549080830191825260ff60036002860154956040860196875201541693606084019060048610156109a05761098461099c936080978452604051978897828952519188015260a08701906120e2565b93516040860152516060850152516080840190612217565b0390f35b634e487b7160e01b5f52602160045260245ffd5b503461073b57602080600319360112610c4b576004356001600160401b0391828211610c475736602383011215610c475781600401356109f381612256565b93610a01604051958661203f565b81855282850194859460249687600595861b83010191368311610c4357888101915b838310610c195750505050610a4360018060a01b036012541633146127b6565b5193600160401b8511610c065760095485600955808610610b95575b509491600987528387209287965b868810610a78578880f35b8051805190858211610b8257908791610a91885461214e565b908c601f9285848211610b4e575b5050508c84928411600114610ae8579260019592819287969592610add575b50505f19600383901b1c191690841b1788555b01950197019693610a6d565b015190505f80610abe565b9190601f1984168a8452858420935b818110610b365750916001969391858897969410610b1e575b505050831b83018855610ad1565b01515f1960f88460031b161c191690555f8080610b10565b8284015185558c966001909501949384019301610af7565b828c610b71945220848087018b1c820192888810610b79575b018a1c019061227a565b8c5f85610a9f565b92508192610b67565b634e487b7160e01b8b526041600452838bfd5b600988528585892091820191015b818110610bb05750610a5f565b8089610bbe6001935461214e565b80610bcc575b505001610ba3565b601f8082118514610be5575050505f81555b895f610bc4565b610bfd908484528a84209201891c820185830161227a565b5f835555610bde565b634e487b7160e01b875260416004528587fd5b8235868111610c3f578891610c3483928d369187010161207b565b815201920191610a23565b8b80fd5b8980fd5b8380fd5b5080fd5b503461073b57602036600319011261073b57610c8260406020926004358152808452206002600182015491015490612332565b604051908152f35b503461073b57610cbe602080926040610ca236612224565b92908152600484522082604051948386809551938492016120c1565b82019081520301902054604051908152f35b503461073b57602036600319011261073b57610cea611fc4565b6012546001600160a01b039190610d0490831633146127b6565b1660018060a01b0319600e541617600e5580f35b503461073b57602036600319011261073b57610d3f60018060a01b036012541633146127b6565b60043560115580f35b503461073b57602036600319011261073b576040610dae916004358152806020522060405190610d8382610d7c8184612186565b038361203f565b61099c60018201549160ff6003600283015492015416906040519586956080875260808701906120e2565b93602086015260408501526060840190612217565b503461073b57602036600319011261073b576040606091600435815260066020522060028101549060ff600560048301549201541690604051928352602083015215156040820152f35b503461073b57602036600319011261073b57610e27611fc4565b6012546001600160a01b039190610e4190831633146127b6565b1660018060a01b0319600c541617600c5580f35b503461073b57602036600319011261073b5760406020916004358152600183522054604051908152f35b503461073b578060031936011261073b576020600254604051908152f35b503461073b576020908160031936011261073b578060409160a08351610ec281611fda565b828152606086820152828582015260608082015282608082015201526004358152600683522060405190610ef582611fda565b60018060a01b0392838254168352610fa4604051610f1a816109288160018801612186565b82850190815260028401549060408601918252610f8b60405191610f45836108138160038b01612186565b6060880192835260ff600560048901549860808b01998a520154169560a089019615158752604051998a99828b525116908901525160c0604089015260e08801906120e2565b9151606087015251858203601f190160808701526120e2565b915160a084015251151560c08301520390f35b503461073b578060031936011261073b576013546040516001600160a01b039091168152602090f35b503461073b57602036600319011261073b5760406020916004358152600583522054604051908152f35b503461073b57604036600319011261073b576024356001600160a01b038116919082900361056f576040906004358152600a60205220905f52602052602060ff60405f2054166040519015158152f35b503461073b57602080600319360112610c4b5760043582526008815260408220916040518092808554928381520194835280832092905b8282106110b45761099c856110a88189038261203f565b60405191829182611f8a565b835486529485019460019384019390910190611091565b503461073b57602036600319011261073b576110f260018060a01b036012541633146127b6565b60043560105580f35b503461073b57602036600319011261073b57611115611fc4565b6012546001600160a01b03919061112f90831633146127b6565b1660018060a01b0319600f541617600f5580f35b503461073b57606036600319011261073b576024356001600160401b038111610c4b5761117490369060040161207b565b90600435815280602052611190600160408320015415156122ea565b6111cf8160018060a01b03600c541660043582528160205260408220906040518080958194626e7c3160e91b8352602060048401526024830190612186565b03915afa908115611959578291611831575b506044359260018411156117ed576111fd600954835190612332565b84116117ad576004358352600a60205260408320335f5260205260ff60405f20541661175e5761128d916004358452600a60205260408420335f5260205260405f20600160ff19825416179055602060018060a01b03600d54166004358652858252604086209060405180809781946302b5df5960e01b8352336004840152604060248401526044830190612186565b03915afa92831561175357849361171f575b50600954908186116116d157505f19908582018681116116bd5710156116a9576112dd6109289160095f528660205f20010160405192838092612186565b836004358552846020526112fe604086206002600182015491015490612332565b4210156116a1575b60405161131281611fda565b3381526020810196848852604082015282606082015284608082015281151560a082015260075486526006602052604086209660018060a01b0382511660018060a01b03198954161788555180516001600160401b0381116115ef578060018a019261137e845461214e565b601f8111611671575b50602090601f831160011461160e578a92611603575b50508160011b915f199060031b1c19161790555b6040810151600288015560608101519687516001600160401b0381116115ef576113de600383015461214e565b601f81116115bc575b506020601f82116001146115215760056114c49593837ffab0b7cc55d5c47eef9ab7fcd4c01a41a4ddfa36cec643d2a9cb97b3f57915d498969460a0948d9e6114e79e92611516575b50508160011b915f199060031b1c19161760038201555b6080840151600482015501910151151560ff801983541691161790556004358852600860205261147d60408920600754906122a8565b6114d7600754968796604051958695338d8b7f953de3727de1848ea7329bee97a44132bdd8271d8d663eb90bc2772f21541ec86004359280a46080875260808701906120e2565b91602086015284820360408601526120e2565b90151560608301520390a26122dc565b90816007555f19820191821161150257602082604051908152f35b634e487b7160e01b81526011600452602490fd5b015190505f80611430565b6003830189526020892099895b601f19841681106115a457506114c495936001846114e79c9d60a0956005957ffab0b7cc55d5c47eef9ab7fcd4c01a41a4ddfa36cec643d2a9cb97b3f57915d49c9a98601f1981161061158c575b505050811b016003820155611447565b01515f1960f88460031b161c191690555f808061157c565b828201518c556001909b019a6020928301920161152e565b6115e990600384018a5260208a20601f840160051c810191602085106104d657601f0160051c019061227a565b5f6113e7565b634e487b7160e01b88526041600452602488fd5b015190505f8061139d565b848b5260208b209250601f1984168b5b8181106116595750908460019594939210611641575b505050811b0190556113b1565b01515f1960f88460031b161c191690555f8080611634565b9293602060018192878601518155019501930161161e565b61169b90858c5260208c20601f850160051c810191602086106104d657601f0160051c019061227a565b5f611387565b506001611306565b634e487b7160e01b5f52603260045260245ffd5b634e487b7160e01b86526011600452602486fd5b9085039085821161170b575f1982019182116116f757906116f19161233f565b516112dd565b634e487b7160e01b85526011600452602485fd5b634e487b7160e01b5f52601160045260245ffd5b9092506020813d60201161174b575b8161173b6020938361203f565b8101031261056f5751915f61129f565b3d915061172e565b6040513d86823e3d90fd5b60405162461bcd60e51b815260206004820152602160248201527f596f7527766520616c7265616479207265766965776564207468697320706f736044820152601d60fa1b6064820152608490fd5b60405162461bcd60e51b8152602060048201526018602482015277436f6e73656e736f7573204e6f7420496e20426f756e647360401b6044820152606490fd5b606460405162461bcd60e51b815260206004820152602060248201527f436f6e73656e736f7573206d75732062652067726561746572207468616e20316044820152fd5b90503d8083833e611842818361203f565b60208282810103126119555781516001600160401b038111610c4757818301601f828501011215610c4757808301519061187b82612256565b93611889604051958661203f565b828552602085019184820160208560051b83850101011161195157602081830101925b60208560051b838501010184106118c9575050505050505f6111e1565b83516001600160401b03811161194d57868401603f828587010101121561194d576020818486010101516118fc81612060565b9161190a604051938461203f565b81835288860160408383888a010101011161194957928261193c60209593869594604087809701918a8c0101016120c1565b81520194019390506118ac565b8a80fd5b8880fd5b8680fd5b8280fd5b6040513d84823e3d90fd5b503461073b57602036600319011261073b5761197e611fc4565b6012546001600160a01b03919061199890831633146127b6565b1660018060a01b0319600b541617600b5580f35b503461073b57602036600319011261073b576119c6611fc4565b6012546001600160a01b0391906119e090831633146127b6565b1660018060a01b0319601354161760135580f35b503461073b578060031936011261073b576020601154604051908152f35b503461073b578060031936011261073b57600c546040516001600160a01b039091168152602090f35b503461073b57602080600319360112610c4b576001600160401b0390600435828111610c475736602382011215610c47578060040135928311610c47578281016024933685830111610689578303611be0578183910312610c47578201359183831215611bda57611aab83612353565b60018060a01b0380600b5416828752600585528460408820548560405180948193636f0817eb60e11b835260048301525afa908115611bcf578791611ba2575b501691823303611b51579083916040518094819363d670d4a960e01b835260048301525afa801561175357611b28575b83611b2584612382565b80f35b813d8311611b4a575b611b3b818361203f565b8101031261056f575f80611b1b565b503d611b31565b8360256084926040519262461bcd60e51b845260048401528201527f4f6e6c79206c616e6520636f6e74726163742063616e20706572666f726d20756044820152640706b6565760dc1b6064820152fd5b611bc29150853d8711611bc8575b611bba818361203f565b810190612363565b5f611aeb565b503d611bb0565b6040513d89823e3d90fd5b82611aab565b60405162461bcd60e51b815260048101849052601a818601527f496e76616c696420706572666f726d44617461206c656e6774680000000000006044820152606490fd5b503461073b578060031936011261073b576020601054604051908152f35b503461073b57602036600319011261073b57611c5c611fc4565b6012546001600160a01b039190611c7690831633146127b6565b1660018060a01b0319600d541617600d5580f35b503461073b57602080600319360112610c4b576004358015611e5857808352828252600160408420015415611e0057611cc2906124da565b9015611dad579081611cd48493612382565b82811215611da757611ce590612353565b905b60018060a01b039081600b541683855260058252816040862054602460405180948193636f0817eb60e11b835260048301525afa9182156105f8578592611d8a575b505016803b15611d86576024839260405194859384926302e43da960e31b845260048401525af1801561195957611d5e575080f35b6001600160401b038111611d725760405280f35b634e487b7160e01b82526041600452602482fd5b5050fd5b611da09250803d10611bc857611bba818361203f565b5f80611d29565b90611ce7565b60405162461bcd60e51b815260048101839052602560248201527f55706b656570206e6f74206e656564656420666f722074686973207375626d6960448201526439b9b4b7b760d91b6064820152608490fd5b60405162461bcd60e51b815260048101839052602a60248201527f5375626d697373696f6e20646f6573206e6f74206578697374206f72206973206044820152696e6f742061637469766560b01b6064820152608490fd5b60405162461bcd60e51b8152600481018390526015602482015274125b9d985b1a59081cdd589b5a5cdcda5bdb881251605a1b6044820152606490fd5b503461073b57602080600319360112610c4b5760043582526003815260408220916040518092808554928381520194835280832092905b828210611ee35761099c856110a88189038261203f565b835486529485019460019384019390910190611ecc565b503461073b57611f0936611f5f565b9190815260086020526040812090815483101561073b576020611f2c8484611f75565b90546040519160031b1c8152f35b905034610c4b5781600319360112610c4b57600e546001600160a01b03168152602090f35b604090600319011261056f576004359060243590565b80548210156116a9575f5260205f2001905f90565b602090816040818301928281528551809452019301915f5b828110611fb0575050505090565b835185529381019392810192600101611fa2565b600435906001600160a01b038216820361056f57565b60c081019081106001600160401b03821117611ff557604052565b634e487b7160e01b5f52604160045260245ffd5b608081019081106001600160401b03821117611ff557604052565b604081019081106001600160401b03821117611ff557604052565b90601f801991011681019081106001600160401b03821117611ff557604052565b6001600160401b038111611ff557601f01601f191660200190565b81601f8201121561056f5780359061209282612060565b926120a0604051948561203f565b8284526020838301011161056f57815f926020809301838601378301015290565b5f5b8381106120d25750505f910152565b81810151838201526020016120c3565b906020916120fb815180928185528580860191016120c1565b601f01601f1916010190565b3461056f57602036600319011261056f576004355f525f60205261099c61092861213a60405f2060405192838092612186565b6040519182916020835260208301906120e2565b90600182811c9216801561217c575b602083101461216857565b634e487b7160e01b5f52602260045260245ffd5b91607f169161215d565b905f92918054916121968361214e565b9182825260019384811690815f146121f457506001146121b7575b50505050565b90919394505f52602092835f2092845f945b8386106121e057505050500101905f8080806121b1565b8054858701830152940193859082016121c9565b9294505050602093945060ff191683830152151560051b0101905f8080806121b1565b9060048210156109a05752565b90604060031983011261056f5760043591602435906001600160401b03821161056f576122539160040161207b565b90565b6001600160401b038111611ff55760051b60200190565b5190811515820361056f57565b818110612285575050565b5f815560010161227a565b9060048110156109a05760ff80198354169116179055565b8054600160401b811015611ff5576122c591600182018155611f75565b819291549060031b91821b915f19901b1916179055565b5f19811461170b5760010190565b156122f157565b60405162461bcd60e51b815260206004820152601960248201527814dd589b5a5cdcda5bdb88191bd95cc81b9bdd08195e1a5cdd603a1b6044820152606490fd5b9190820180921161170b57565b80518210156116a95760209160051b010190565b600160ff1b811461170b575f0390565b9081602091031261056f57516001600160a01b038116810361056f5790565b5f91908281139081156124cb57905b811515806124a4575b8061248d575b6123ab575b50509050565b156124865760025b8184526020908482526123cd604091600383882001612290565b82855260018252808520549085835260ff6003828820015416600481101561042057906002612456927f3ed188edba0c6b2d9b7a54cec2942f1cab56a63a4dcfdca5ff11706ffdf25b1e96979850145f1461246157805161242d81612024565b60088152671058d8d95c1d195960c21b85820152905b80805195869586528501528301906120e2565b0390a2805f806123a5565b805161246c81612024565b600881526714995a9958dd195960c21b8582015290612443565b60036123b3565b5081845283602052600160408520015415156123a0565b50818452836020526124c3604085206002600182015491015490612332565b42101561239a565b6124d490612353565b90612391565b5f915f91805f525f6020526124fc60405f206002600182015491015490612332565b4210156125065750565b9250905061225360019261252a565b90815f03918083055f19149015171561170b57565b60018060a01b03600c54165f90828252602090828252604092838120845192632691798960e01b84528360049186838301526060958691818061257260249889830190612186565b03915afa9687156127ad57849185908699612771575b508986526008885281862090825180838b8295549384815201908a528b8a20928a5b8d82821061275b575050506125c19250038361203f565b8382511061274857869787998351601154908181115f146127405750935b895b858110612668575050505050505085158091811561265e575b5061264e5760648502948086046064149015171561263c5761262b5750505004106126225790565b61225390612515565b634e487b7160e01b83526012905281fd5b50634e487b7160e01b83526011905281fd5b5050505050505061225390612515565b905086105f6125fa565b612672818361233f565b51875190635cf17e1f60e11b82528a82015284818c81305afa8015612736578c8791819382916126f2575b506126e65710156126b8575b506126b3906122dc565b6125e1565b9c6126c46002916122dc565b9d146126d1575b5f6126a9565b9a6126de6126b3916122dc565b9b90506126cb565b5050506126b3906122dc565b93505050508481813d831161272f575b61270c818361203f565b81010312610c3f578581516127268a87850151940161226d565b9092905f61269d565b503d612702565b88513d8e823e3d90fd5b9050936125df565b5050505050505050505061225390612515565b85548452600195860195889550930192016125aa565b92505096508481813d83116127a6575b61278b818361203f565b81010312610c4757805196808783015192015197915f612588565b503d612781565b513d85823e3d90fd5b156127bd57565b60405162461bcd60e51b81526020600482015260166024820152752737ba103a34329031b7b73a3930b1ba1037bbb732b960511b6044820152606490fdfea2646970667358221220ac540ea3872384095a6577756a6fd16da84f292cc39c50d7e048db9d6143c3a964736f6c63430008140033","opcodes":"PUSH1 0x80 CALLVALUE PUSH3 0x35B JUMPI PUSH1 0x1F NOT PUSH3 0x2C19 CODESIZE DUP2 SWAP1 SUB PUSH1 0x1F DUP2 DUP2 ADD DUP5 AND DUP6 ADD SWAP5 SWAP1 SWAP3 PUSH1 0x1 PUSH1 0x1 PUSH1 0x40 SHL SUB SWAP3 SWAP1 DUP3 DUP8 LT DUP5 DUP9 GT OR PUSH3 0x347 JUMPI DUP2 PUSH1 0xA0 SWAP3 DUP5 SWAP3 PUSH1 0x40 SWAP10 DUP11 MSTORE DUP4 CODECOPY DUP2 ADD SUB SLT PUSH3 0x35B JUMPI PUSH3 0x55 DUP2 PUSH3 0x37F JUMP JUMPDEST PUSH1 0x20 PUSH3 0x64 DUP2 DUP5 ADD PUSH3 0x37F JUMP JUMPDEST SWAP5 PUSH3 0x72 DUP9 DUP6 ADD PUSH3 0x37F JUMP JUMPDEST SWAP7 PUSH3 0x86 PUSH1 0x80 PUSH1 0x60 DUP8 ADD MLOAD SWAP7 ADD PUSH3 0x37F JUMP JUMPDEST SWAP6 DUP10 MLOAD SWAP1 PUSH1 0x60 DUP3 ADD DUP3 DUP2 LT DUP3 DUP3 GT OR PUSH3 0x347 JUMPI DUP12 MSTORE PUSH3 0xA6 PUSH3 0x35F JUMP JUMPDEST PUSH1 0x12 DUP2 MSTORE PUSH18 0x436F6E73656E736F75732050656E64696E67 PUSH1 0x70 SHL DUP7 DUP3 ADD MSTORE DUP3 MSTORE PUSH3 0xD0 PUSH3 0x35F JUMP JUMPDEST PUSH1 0x8 DUP2 MSTORE PUSH8 0x1058D8D95C1D1959 PUSH1 0xC2 SHL DUP7 DUP3 ADD MSTORE DUP6 DUP4 ADD MSTORE PUSH3 0xF2 PUSH3 0x35F JUMP JUMPDEST PUSH1 0x8 DUP2 MSTORE PUSH8 0x14995A9958DD1959 PUSH1 0xC2 SHL DUP7 DUP3 ADD MSTORE DUP12 DUP4 ADD MSTORE PUSH1 0x9 SLOAD SWAP2 PUSH1 0x3 SWAP3 DUP4 PUSH1 0x9 SSTORE DUP1 DUP5 LT PUSH3 0x2CD JUMPI JUMPDEST POP SWAP3 SWAP2 PUSH0 SWAP5 PUSH1 0x9 DUP7 MSTORE DUP7 DUP7 KECCAK256 SWAP4 DUP7 SWAP6 JUMPDEST DUP4 DUP8 LT PUSH3 0x1A6 JUMPI POP POP POP POP POP POP POP POP POP PUSH1 0x1 DUP1 PUSH1 0xA0 SHL SUB NOT SWAP5 CALLER DUP7 PUSH1 0x12 SLOAD AND OR PUSH1 0x12 SSTORE PUSH1 0x1 DUP1 PUSH1 0xA0 SHL SUB DUP1 SWAP6 DUP2 DUP1 SWAP5 AND DUP9 PUSH1 0xC SLOAD AND OR PUSH1 0xC SSTORE AND DUP7 PUSH1 0xD SLOAD AND OR PUSH1 0xD SSTORE AND DUP5 PUSH1 0xE SLOAD AND OR PUSH1 0xE SSTORE PUSH1 0x10 SSTORE AND SWAP1 PUSH1 0x13 SLOAD AND OR PUSH1 0x13 SSTORE PUSH1 0x1 PUSH1 0x7 SSTORE PUSH1 0x1 PUSH1 0x2 SSTORE PUSH1 0x64 PUSH1 0x11 SSTORE MLOAD PUSH2 0x2831 SWAP1 DUP2 PUSH3 0x3E8 DUP3 CODECOPY RETURN JUMPDEST DUP1 MLOAD DUP1 MLOAD SWAP1 DUP7 DUP3 GT PUSH3 0x2B9 JUMPI SWAP1 DUP11 SWAP2 PUSH3 0x1C2 DUP10 SLOAD PUSH3 0x394 JUMP JUMPDEST DUP7 DUP2 GT PUSH3 0x27E JUMPI JUMPDEST POP DUP3 SWAP1 DUP12 DUP8 DUP5 GT PUSH1 0x1 EQ PUSH3 0x215 JUMPI SWAP3 PUSH1 0x1 SWAP6 SWAP3 DUP2 SWAP3 DUP8 SWAP7 SWAP6 SWAP3 PUSH3 0x209 JUMPI JUMPDEST POP POP PUSH0 NOT DUP3 DUP11 SHL SHR NOT AND SWAP1 DUP5 SHL OR DUP10 SSTORE JUMPDEST ADD SWAP7 ADD SWAP7 ADD SWAP6 SWAP5 PUSH3 0x12E JUMP JUMPDEST ADD MLOAD SWAP1 POP PUSH0 DUP1 PUSH3 0x1EB JUMP JUMPDEST POP DUP10 DUP13 MSTORE DUP4 DUP13 KECCAK256 SWAP2 SWAP1 DUP4 DUP8 AND DUP14 JUMPDEST DUP2 DUP2 LT PUSH3 0x265 JUMPI POP SWAP2 PUSH1 0x1 SWAP7 SWAP4 SWAP2 DUP6 DUP9 SWAP8 SWAP7 SWAP5 LT PUSH3 0x24D JUMPI JUMPDEST POP POP POP DUP4 SHL DUP4 ADD DUP10 SSTORE PUSH3 0x1FC JUMP JUMPDEST ADD MLOAD PUSH0 NOT DUP4 DUP12 SHL PUSH1 0xF8 AND SHR NOT AND SWAP1 SSTORE PUSH0 DUP1 DUP1 PUSH3 0x23E JUMP JUMPDEST DUP3 DUP5 ADD MLOAD DUP6 SSTORE DUP16 SWAP7 PUSH1 0x1 SWAP1 SWAP6 ADD SWAP5 SWAP4 DUP5 ADD SWAP4 ADD PUSH3 0x223 JUMP JUMPDEST PUSH3 0x2A8 SWAP1 DUP11 DUP14 MSTORE DUP5 DUP14 KECCAK256 PUSH1 0x5 DUP10 DUP1 DUP8 ADD DUP3 SHR DUP4 ADD SWAP4 DUP9 DUP9 LT PUSH3 0x2AF JUMPI JUMPDEST ADD SWAP1 SHR ADD SWAP1 PUSH3 0x3CF JUMP JUMPDEST PUSH0 PUSH3 0x1CB JUMP JUMPDEST SWAP4 POP DUP3 SWAP4 PUSH3 0x29D JUMP JUMPDEST PUSH4 0x4E487B71 PUSH1 0xE0 SHL DUP11 MSTORE PUSH1 0x41 PUSH1 0x4 MSTORE PUSH1 0x24 DUP11 REVERT JUMPDEST PUSH0 PUSH1 0x9 DUP2 MSTORE DUP5 DUP9 DUP3 KECCAK256 SWAP3 DUP4 ADD SWAP3 ADD JUMPDEST DUP3 DUP2 LT PUSH3 0x2EC JUMPI POP POP PUSH3 0x11E JUMP JUMPDEST DUP1 DUP3 PUSH3 0x2FC PUSH1 0x1 SWAP4 SLOAD PUSH3 0x394 JUMP JUMPDEST DUP1 PUSH3 0x30C JUMPI JUMPDEST POP POP ADD PUSH3 0x2DC JUMP JUMPDEST DUP11 DUP2 GT DUP5 EQ PUSH3 0x322 JUMPI POP DUP2 SSTORE JUMPDEST DUP3 PUSH0 PUSH3 0x303 JUMP JUMPDEST DUP3 DUP3 MSTORE PUSH3 0x33D DUP12 DUP14 DUP5 KECCAK256 SWAP3 ADD PUSH1 0x5 SHR DUP3 ADD DUP6 DUP4 ADD PUSH3 0x3CF JUMP JUMPDEST DUP2 DUP4 SSTORE SSTORE PUSH3 0x31A JUMP JUMPDEST PUSH4 0x4E487B71 PUSH1 0xE0 SHL PUSH0 MSTORE PUSH1 0x41 PUSH1 0x4 MSTORE PUSH1 0x24 PUSH0 REVERT JUMPDEST PUSH0 DUP1 REVERT JUMPDEST PUSH1 0x40 DUP1 MLOAD SWAP2 SWAP1 DUP3 ADD PUSH1 0x1 PUSH1 0x1 PUSH1 0x40 SHL SUB DUP2 GT DUP4 DUP3 LT OR PUSH3 0x347 JUMPI PUSH1 0x40 MSTORE JUMP JUMPDEST MLOAD SWAP1 PUSH1 0x1 PUSH1 0x1 PUSH1 0xA0 SHL SUB DUP3 AND DUP3 SUB PUSH3 0x35B JUMPI JUMP JUMPDEST SWAP1 PUSH1 0x1 DUP3 DUP2 SHR SWAP3 AND DUP1 ISZERO PUSH3 0x3C4 JUMPI JUMPDEST PUSH1 0x20 DUP4 LT EQ PUSH3 0x3B0 JUMPI JUMP JUMPDEST PUSH4 0x4E487B71 PUSH1 0xE0 SHL PUSH0 MSTORE PUSH1 0x22 PUSH1 0x4 MSTORE PUSH1 0x24 PUSH0 REVERT JUMPDEST SWAP2 PUSH1 0x7F AND SWAP2 PUSH3 0x3A4 JUMP JUMPDEST DUP2 DUP2 LT PUSH3 0x3DB JUMPI POP POP JUMP JUMPDEST PUSH0 DUP2 SSTORE PUSH1 0x1 ADD PUSH3 0x3CF JUMP INVALID PUSH1 0x80 DUP1 PUSH1 0x40 MSTORE PUSH1 0x4 CALLDATASIZE LT ISZERO PUSH2 0x12 JUMPI PUSH0 DUP1 REVERT JUMPDEST PUSH0 SWAP1 DUP2 CALLDATALOAD PUSH1 0xE0 SHR SWAP1 DUP2 PUSH4 0x59597F7 EQ PUSH2 0x1F3A JUMPI POP DUP1 PUSH4 0x1651902A EQ PUSH2 0x1EFA JUMPI DUP1 PUSH4 0x1EA49051 EQ PUSH2 0x1E95 JUMPI DUP1 PUSH4 0x34CA35C4 EQ PUSH2 0x1C8A JUMPI DUP1 PUSH4 0x3C09203B EQ PUSH2 0x1C42 JUMPI DUP1 PUSH4 0x4215C5E4 EQ PUSH2 0x1C24 JUMPI DUP1 PUSH4 0x4585E33B EQ PUSH2 0x1A3B JUMPI DUP1 PUSH4 0x47631ADB EQ PUSH2 0x1A12 JUMPI DUP1 PUSH4 0x4ED59812 EQ PUSH2 0x19F4 JUMPI DUP1 PUSH4 0x59144BAA EQ PUSH2 0x19AC JUMPI DUP1 PUSH4 0x5FF2D2AA EQ PUSH2 0x1964 JUMPI DUP1 PUSH4 0x6356EEA4 EQ PUSH2 0x1143 JUMPI DUP1 PUSH4 0x651FA206 EQ PUSH2 0x10FB JUMPI DUP1 PUSH4 0x69FE0E2D EQ PUSH2 0x10CB JUMPI DUP1 PUSH4 0x6C79BD2B EQ PUSH2 0x105A JUMPI DUP1 PUSH4 0x7C7198CC EQ PUSH2 0x100A JUMPI DUP1 PUSH4 0x85DBA401 EQ PUSH2 0x77F JUMPI DUP1 PUSH4 0x884B80F2 EQ PUSH2 0xFE0 JUMPI DUP1 PUSH4 0x8ED8067E EQ PUSH2 0xFB7 JUMPI DUP1 PUSH4 0x990581B6 EQ PUSH2 0xE9D JUMPI DUP1 PUSH4 0xA5940041 EQ PUSH2 0xE7F JUMPI DUP1 PUSH4 0xAC97980D EQ PUSH2 0xE55 JUMPI DUP1 PUSH4 0xAD2957FF EQ PUSH2 0xE0D JUMPI DUP1 PUSH4 0xB9E2FC3E EQ PUSH2 0xDC3 JUMPI DUP1 PUSH4 0xC5DCE24D EQ PUSH2 0xD48 JUMPI DUP1 PUSH4 0xD1A34AA3 EQ PUSH2 0xD18 JUMPI DUP1 PUSH4 0xD39065FA EQ PUSH2 0xCD0 JUMPI DUP1 PUSH4 0xD3A3F771 EQ PUSH2 0xC8A JUMPI DUP1 PUSH4 0xD46219A2 EQ PUSH2 0xC4F JUMPI DUP1 PUSH4 0xD8DB3807 EQ PUSH2 0x9B4 JUMPI DUP1 PUSH4 0xDE8B32C5 EQ PUSH2 0x8CC JUMPI DUP1 PUSH4 0xE1485776 EQ PUSH2 0x8A3 JUMPI DUP1 PUSH4 0xE168B3A8 EQ PUSH2 0x885 JUMPI DUP1 PUSH4 0xE83DDCEA EQ PUSH2 0x7D1 JUMPI DUP1 PUSH4 0xEA487A92 EQ PUSH2 0x784 JUMPI DUP1 PUSH4 0xEABCCDB6 EQ PUSH2 0x77F JUMPI DUP1 PUSH4 0xEEB0CF76 EQ PUSH2 0x73E JUMPI DUP1 PUSH4 0xF2793902 EQ PUSH2 0x70E JUMPI PUSH4 0xFA1396F5 EQ PUSH2 0x1CB JUMPI PUSH0 DUP1 REVERT JUMPDEST PUSH2 0x1D4 CALLDATASIZE PUSH2 0x2224 JUMP JUMPDEST PUSH1 0xE SLOAD PUSH1 0x40 MLOAD PUSH4 0x2C895403 PUSH1 0xE2 SHL DUP2 MSTORE PUSH1 0x4 DUP2 ADD DUP5 SWAP1 MSTORE PUSH1 0x1 PUSH1 0x1 PUSH1 0xA0 SHL SUB SWAP4 SWAP2 PUSH1 0x20 SWAP1 DUP3 SWAP1 PUSH1 0x24 SWAP1 DUP3 SWAP1 DUP9 AND GAS STATICCALL SWAP1 DUP2 ISZERO PUSH2 0x5F8 JUMPI DUP6 SWAP2 PUSH2 0x6D0 JUMPI JUMPDEST POP ISZERO PUSH2 0x695 JUMPI DUP3 PUSH1 0xC SLOAD AND SWAP2 PUSH1 0x40 MLOAD PUSH4 0x24C9DB2F PUSH1 0xE0 SHL DUP2 MSTORE PUSH1 0x20 PUSH1 0x4 DUP3 ADD MSTORE PUSH1 0x20 DUP2 DUP1 PUSH2 0x242 PUSH1 0x24 DUP3 ADD DUP7 PUSH2 0x20E2 JUMP JUMPDEST SUB DUP2 DUP8 GAS STATICCALL SWAP1 DUP2 ISZERO PUSH2 0x57B JUMPI DUP7 SWAP2 PUSH2 0x657 JUMPI JUMPDEST POP ISZERO PUSH2 0x603 JUMPI PUSH1 0x20 PUSH1 0x40 MLOAD DUP1 SWAP5 PUSH4 0x3BEBE051 PUSH1 0xE0 SHL DUP3 MSTORE DUP3 PUSH1 0x4 DUP4 ADD MSTORE DUP2 DUP1 PUSH2 0x281 PUSH1 0x24 DUP3 ADD DUP8 PUSH2 0x20E2 JUMP JUMPDEST SUB SWAP2 GAS STATICCALL SWAP3 DUP4 ISZERO PUSH2 0x5F8 JUMPI DUP6 SWAP4 PUSH2 0x5C4 JUMPI JUMPDEST POP PUSH1 0x40 MLOAD SWAP4 PUSH2 0x2A1 DUP6 PUSH2 0x2009 JUMP JUMPDEST DUP2 DUP6 MSTORE TIMESTAMP PUSH1 0x20 DUP7 ADD MSTORE DUP4 PUSH1 0x40 DUP7 ADD MSTORE PUSH1 0x1 PUSH1 0x60 DUP7 ADD MSTORE DUP4 ISZERO PUSH0 EQ PUSH2 0x4F4 JUMPI POP DUP5 PUSH1 0x60 DUP6 ADD MSTORE JUMPDEST PUSH1 0x2 SLOAD SWAP4 DUP5 DUP7 MSTORE DUP6 PUSH1 0x20 MSTORE PUSH1 0x40 DUP7 KECCAK256 SWAP1 DUP1 MLOAD DUP1 MLOAD SWAP1 PUSH1 0x1 PUSH1 0x1 PUSH1 0x40 SHL SUB DUP3 GT PUSH2 0x4E0 JUMPI PUSH2 0x2F4 DUP5 SLOAD PUSH2 0x214E JUMP JUMPDEST PUSH1 0x1F DUP2 GT PUSH2 0x4A5 JUMPI JUMPDEST POP PUSH1 0x20 SWAP1 PUSH1 0x1F DUP4 GT PUSH1 0x1 EQ PUSH2 0x43F JUMPI PUSH1 0x60 SWAP4 SWAP3 SWAP2 DUP11 SWAP2 DUP4 PUSH2 0x434 JUMPI JUMPDEST POP POP DUP2 PUSH1 0x1 SHL SWAP2 PUSH0 NOT SWAP1 PUSH1 0x3 SHL SHR NOT AND OR DUP4 SSTORE JUMPDEST PUSH1 0x20 DUP2 ADD MLOAD PUSH1 0x1 DUP5 ADD SSTORE PUSH1 0x40 DUP2 ADD MLOAD PUSH1 0x2 DUP5 ADD SSTORE ADD MLOAD SWAP1 PUSH1 0x4 DUP3 LT ISZERO PUSH2 0x420 JUMPI SWAP3 PUSH32 0xE4C157BDF18B292C67A85F8AFA9036D1FD70E345BE3AD305FAFC7841C4801A3F PUSH1 0x20 SWAP8 PUSH2 0x407 PUSH32 0xD3F28A1C655091033012BC55D258BF3CBD4EA4FB8BC2FF81C626A2AAD9354E46 SWAP6 PUSH2 0x3A7 PUSH1 0x40 SWAP7 PUSH1 0x3 DUP13 SWAP11 ADD PUSH2 0x2290 JUMP JUMPDEST DUP5 DUP4 MSTORE PUSH1 0x3 DUP12 MSTORE PUSH2 0x3BA DUP9 DUP8 DUP6 KECCAK256 PUSH2 0x22A8 JUMP JUMPDEST DUP5 DUP4 MSTORE PUSH1 0x4 DUP12 MSTORE DUP6 DUP4 KECCAK256 SWAP1 DUP9 DUP8 MLOAD DUP14 DUP2 DUP5 MLOAD SWAP6 DUP3 DUP7 ADD SWAP7 PUSH2 0x3DC DUP2 DUP5 DUP11 PUSH2 0x20C1 JUMP JUMPDEST DUP3 ADD SWAP1 DUP2 MSTORE SUB ADD SWAP1 KECCAK256 SSTORE PUSH2 0x3F1 PUSH1 0x2 SLOAD PUSH2 0x22DC JUMP JUMPDEST PUSH1 0x2 SSTORE DUP9 DUP8 MLOAD SWAP7 DUP8 SWAP7 DUP7 DUP9 SWAP8 LOG3 MLOAD SWAP3 DUP4 SWAP2 PUSH2 0x20C1 JUMP JUMPDEST DUP2 ADD SUB SWAP1 KECCAK256 SWAP4 DUP2 MLOAD SWAP1 TIMESTAMP DUP3 MSTORE DUP8 DUP3 ADD MSTORE LOG3 PUSH1 0x40 MLOAD SWAP1 DUP2 MSTORE RETURN JUMPDEST PUSH4 0x4E487B71 PUSH1 0xE0 SHL DUP8 MSTORE PUSH1 0x21 PUSH1 0x4 MSTORE PUSH1 0x24 DUP8 REVERT JUMPDEST ADD MLOAD SWAP1 POP PUSH0 DUP1 PUSH2 0x319 JUMP JUMPDEST DUP5 DUP11 MSTORE PUSH1 0x20 DUP11 KECCAK256 SWAP2 SWAP1 PUSH1 0x1F NOT DUP5 AND DUP12 JUMPDEST DUP2 DUP2 LT PUSH2 0x48D JUMPI POP SWAP2 PUSH1 0x1 SWAP4 SWAP2 DUP6 PUSH1 0x60 SWAP8 SWAP7 SWAP5 LT PUSH2 0x475 JUMPI JUMPDEST POP POP POP DUP2 SHL ADD DUP4 SSTORE PUSH2 0x32D JUMP JUMPDEST ADD MLOAD PUSH0 NOT PUSH1 0xF8 DUP5 PUSH1 0x3 SHL AND SHR NOT AND SWAP1 SSTORE PUSH0 DUP1 DUP1 PUSH2 0x468 JUMP JUMPDEST SWAP3 SWAP4 PUSH1 0x20 PUSH1 0x1 DUP2 SWAP3 DUP8 DUP7 ADD MLOAD DUP2 SSTORE ADD SWAP6 ADD SWAP4 ADD PUSH2 0x44F JUMP JUMPDEST PUSH2 0x4D0 SWAP1 DUP6 DUP12 MSTORE PUSH1 0x20 DUP12 KECCAK256 PUSH1 0x1F DUP6 ADD PUSH1 0x5 SHR DUP2 ADD SWAP2 PUSH1 0x20 DUP7 LT PUSH2 0x4D6 JUMPI JUMPDEST PUSH1 0x1F ADD PUSH1 0x5 SHR ADD SWAP1 PUSH2 0x227A JUMP JUMPDEST PUSH0 PUSH2 0x2FD JUMP JUMPDEST SWAP1 SWAP2 POP DUP2 SWAP1 PUSH2 0x4C3 JUMP JUMPDEST PUSH4 0x4E487B71 PUSH1 0xE0 SHL DUP10 MSTORE PUSH1 0x41 PUSH1 0x4 MSTORE PUSH1 0x24 DUP10 REVERT JUMPDEST PUSH1 0x10 SLOAD CALLVALUE SUB PUSH2 0x586 JUMPI PUSH1 0xF SLOAD AND PUSH1 0x20 PUSH1 0x2 SLOAD PUSH1 0x24 PUSH1 0x40 MLOAD DUP1 SWAP5 DUP2 SWAP4 PUSH4 0xA993983B PUSH1 0xE0 SHL DUP4 MSTORE PUSH1 0x4 DUP4 ADD MSTORE CALLVALUE SWAP1 GAS CALL SWAP1 DUP2 ISZERO PUSH2 0x57B JUMPI DUP7 SWAP2 PUSH2 0x545 JUMPI JUMPDEST POP PUSH1 0x2 SLOAD DUP7 MSTORE PUSH1 0x5 PUSH1 0x20 MSTORE PUSH1 0x40 DUP7 KECCAK256 SSTORE PUSH2 0x2C7 JUMP JUMPDEST SWAP1 POP PUSH1 0x20 DUP2 RETURNDATASIZE PUSH1 0x20 GT PUSH2 0x573 JUMPI JUMPDEST DUP2 PUSH2 0x560 PUSH1 0x20 SWAP4 DUP4 PUSH2 0x203F JUMP JUMPDEST DUP2 ADD SUB SLT PUSH2 0x56F JUMPI MLOAD PUSH0 PUSH2 0x530 JUMP JUMPDEST PUSH0 DUP1 REVERT JUMPDEST RETURNDATASIZE SWAP2 POP PUSH2 0x553 JUMP JUMPDEST PUSH1 0x40 MLOAD RETURNDATASIZE DUP9 DUP3 RETURNDATACOPY RETURNDATASIZE SWAP1 REVERT JUMPDEST PUSH1 0x40 MLOAD PUSH3 0x461BCD PUSH1 0xE5 SHL DUP2 MSTORE PUSH1 0x20 PUSH1 0x4 DUP3 ADD MSTORE PUSH1 0x16 PUSH1 0x24 DUP3 ADD MSTORE PUSH22 0x4D7573742073656E642070726F706F73616C20666565 PUSH1 0x50 SHL PUSH1 0x44 DUP3 ADD MSTORE PUSH1 0x64 SWAP1 REVERT JUMPDEST SWAP1 SWAP3 POP PUSH1 0x20 DUP2 RETURNDATASIZE PUSH1 0x20 GT PUSH2 0x5F0 JUMPI JUMPDEST DUP2 PUSH2 0x5E0 PUSH1 0x20 SWAP4 DUP4 PUSH2 0x203F JUMP JUMPDEST DUP2 ADD SUB SLT PUSH2 0x56F JUMPI MLOAD SWAP2 PUSH0 PUSH2 0x293 JUMP JUMPDEST RETURNDATASIZE SWAP2 POP PUSH2 0x5D3 JUMP JUMPDEST PUSH1 0x40 MLOAD RETURNDATASIZE DUP8 DUP3 RETURNDATACOPY RETURNDATASIZE SWAP1 REVERT JUMPDEST PUSH1 0x40 MLOAD PUSH3 0x461BCD PUSH1 0xE5 SHL DUP2 MSTORE PUSH1 0x20 PUSH1 0x4 DUP3 ADD MSTORE PUSH1 0x26 PUSH1 0x24 DUP3 ADD MSTORE PUSH32 0x436F6D6D756E69747920436F6E73656E73757320506172616D7320646F6E2774 PUSH1 0x44 DUP3 ADD MSTORE PUSH6 0x8195E1A5CDD PUSH1 0xD2 SHL PUSH1 0x64 DUP3 ADD MSTORE PUSH1 0x84 SWAP1 REVERT JUMPDEST SWAP1 POP PUSH1 0x20 DUP2 RETURNDATASIZE PUSH1 0x20 GT PUSH2 0x68D JUMPI JUMPDEST DUP2 PUSH2 0x672 PUSH1 0x20 SWAP4 DUP4 PUSH2 0x203F JUMP JUMPDEST DUP2 ADD SUB SLT PUSH2 0x689 JUMPI PUSH2 0x683 SWAP1 PUSH2 0x226D JUMP JUMPDEST PUSH0 PUSH2 0x255 JUMP JUMPDEST DUP6 DUP1 REVERT JUMPDEST RETURNDATASIZE SWAP2 POP PUSH2 0x665 JUMP JUMPDEST PUSH1 0x40 MLOAD PUSH3 0x461BCD PUSH1 0xE5 SHL DUP2 MSTORE PUSH1 0x20 PUSH1 0x4 DUP3 ADD MSTORE PUSH1 0x13 PUSH1 0x24 DUP3 ADD MSTORE PUSH19 0x141BDCDD08191BD95CC81B9BDD08195E1A5CDD PUSH1 0x6A SHL PUSH1 0x44 DUP3 ADD MSTORE PUSH1 0x64 SWAP1 REVERT JUMPDEST SWAP1 POP PUSH1 0x20 DUP2 RETURNDATASIZE PUSH1 0x20 GT PUSH2 0x706 JUMPI JUMPDEST DUP2 PUSH2 0x6EB PUSH1 0x20 SWAP4 DUP4 PUSH2 0x203F JUMP JUMPDEST DUP2 ADD SUB SLT PUSH2 0x702 JUMPI PUSH2 0x6FC SWAP1 PUSH2 0x226D JUMP JUMPDEST PUSH0 PUSH2 0x211 JUMP JUMPDEST DUP5 DUP1 REVERT JUMPDEST RETURNDATASIZE SWAP2 POP PUSH2 0x6DE JUMP JUMPDEST POP CALLVALUE PUSH2 0x73B JUMPI PUSH1 0x20 CALLDATASIZE PUSH1 0x3 NOT ADD SLT PUSH2 0x73B JUMPI PUSH1 0x40 PUSH2 0x72D PUSH1 0x4 CALLDATALOAD PUSH2 0x24DA JUMP JUMPDEST DUP3 MLOAD SWAP2 ISZERO ISZERO DUP3 MSTORE PUSH1 0x20 DUP3 ADD MSTORE RETURN JUMPDEST DUP1 REVERT JUMPDEST POP CALLVALUE PUSH2 0x73B JUMPI PUSH2 0x74D CALLDATASIZE PUSH2 0x1F5F JUMP JUMPDEST SWAP2 SWAP1 DUP2 MSTORE PUSH1 0x3 PUSH1 0x20 MSTORE PUSH1 0x40 DUP2 KECCAK256 SWAP1 DUP2 SLOAD DUP4 LT ISZERO PUSH2 0x73B JUMPI PUSH1 0x20 PUSH2 0x770 DUP5 DUP5 PUSH2 0x1F75 JUMP JUMPDEST SWAP1 SLOAD SWAP1 PUSH1 0x3 SHL SHR PUSH1 0x40 MLOAD SWAP1 DUP2 MSTORE RETURN JUMPDEST PUSH2 0x2107 JUMP JUMPDEST POP CALLVALUE PUSH2 0x73B JUMPI PUSH1 0x20 CALLDATASIZE PUSH1 0x3 NOT ADD SLT PUSH2 0x73B JUMPI PUSH1 0xFF PUSH1 0x3 PUSH1 0x40 PUSH1 0x20 SWAP4 PUSH1 0x4 CALLDATALOAD DUP1 DUP3 MSTORE DUP2 DUP7 MSTORE PUSH2 0x7B9 PUSH1 0x1 DUP5 DUP5 KECCAK256 ADD SLOAD ISZERO ISZERO PUSH2 0x22EA JUMP JUMPDEST DUP2 MSTORE DUP1 DUP6 MSTORE KECCAK256 ADD SLOAD AND PUSH2 0x7CF PUSH1 0x40 MLOAD DUP1 SWAP3 PUSH2 0x2217 JUMP JUMPDEST RETURN JUMPDEST POP CALLVALUE PUSH2 0x73B JUMPI PUSH1 0x20 CALLDATASIZE PUSH1 0x3 NOT ADD SLT PUSH2 0x73B JUMPI PUSH1 0x4 CALLDATALOAD DUP2 MSTORE PUSH1 0x6 PUSH1 0x20 MSTORE PUSH1 0x40 SWAP1 DUP2 SWAP1 KECCAK256 DUP1 SLOAD SWAP2 MLOAD SWAP2 PUSH1 0x1 PUSH1 0x1 PUSH1 0xA0 SHL SUB AND SWAP1 PUSH2 0x81A DUP4 PUSH2 0x813 DUP2 PUSH1 0x1 DUP6 ADD PUSH2 0x2186 JUMP JUMPDEST SUB DUP5 PUSH2 0x203F JUMP JUMPDEST PUSH1 0x2 DUP2 ADD SLOAD PUSH2 0x874 PUSH1 0x40 MLOAD SWAP2 PUSH2 0x837 DUP4 PUSH2 0x813 DUP2 PUSH1 0x3 DUP9 ADD PUSH2 0x2186 JUMP JUMPDEST PUSH1 0xFF PUSH1 0x5 PUSH1 0x4 DUP7 ADD SLOAD SWAP6 ADD SLOAD AND SWAP3 PUSH2 0x861 PUSH1 0x40 MLOAD SWAP8 DUP9 SWAP8 DUP9 MSTORE PUSH1 0xC0 PUSH1 0x20 DUP10 ADD MSTORE PUSH1 0xC0 DUP9 ADD SWAP1 PUSH2 0x20E2 JUMP JUMPDEST SWAP2 PUSH1 0x40 DUP8 ADD MSTORE DUP6 DUP3 SUB PUSH1 0x60 DUP8 ADD MSTORE PUSH2 0x20E2 JUMP JUMPDEST SWAP2 PUSH1 0x80 DUP5 ADD MSTORE ISZERO ISZERO PUSH1 0xA0 DUP4 ADD MSTORE SUB SWAP1 RETURN JUMPDEST POP CALLVALUE PUSH2 0x73B JUMPI DUP1 PUSH1 0x3 NOT CALLDATASIZE ADD SLT PUSH2 0x73B JUMPI PUSH1 0x20 PUSH1 0x7 SLOAD PUSH1 0x40 MLOAD SWAP1 DUP2 MSTORE RETURN JUMPDEST POP CALLVALUE PUSH2 0x73B JUMPI DUP1 PUSH1 0x3 NOT CALLDATASIZE ADD SLT PUSH2 0x73B JUMPI PUSH1 0xD SLOAD PUSH1 0x40 MLOAD PUSH1 0x1 PUSH1 0x1 PUSH1 0xA0 SHL SUB SWAP1 SWAP2 AND DUP2 MSTORE PUSH1 0x20 SWAP1 RETURN JUMPDEST POP CALLVALUE PUSH2 0x73B JUMPI PUSH1 0x20 SWAP1 DUP2 PUSH1 0x3 NOT CALLDATASIZE ADD SLT PUSH2 0x73B JUMPI DUP1 PUSH1 0x40 SWAP2 PUSH1 0x60 DUP4 MLOAD PUSH2 0x8F1 DUP2 PUSH2 0x2009 JUMP JUMPDEST DUP2 DUP2 MSTORE DUP3 DUP7 DUP3 ADD MSTORE DUP3 DUP6 DUP3 ADD MSTORE ADD MSTORE PUSH1 0x4 CALLDATALOAD DUP2 MSTORE DUP1 DUP4 MSTORE KECCAK256 SWAP1 PUSH1 0x40 MLOAD SWAP1 PUSH2 0x917 DUP3 PUSH2 0x2009 JUMP JUMPDEST PUSH1 0x40 MLOAD PUSH2 0x92F DUP2 PUSH2 0x928 DUP2 DUP8 PUSH2 0x2186 JUMP JUMPDEST SUB DUP3 PUSH2 0x203F JUMP JUMPDEST DUP3 MSTORE PUSH1 0x1 DUP4 ADD SLOAD SWAP1 DUP1 DUP4 ADD SWAP2 DUP3 MSTORE PUSH1 0xFF PUSH1 0x3 PUSH1 0x2 DUP7 ADD SLOAD SWAP6 PUSH1 0x40 DUP7 ADD SWAP7 DUP8 MSTORE ADD SLOAD AND SWAP4 PUSH1 0x60 DUP5 ADD SWAP1 PUSH1 0x4 DUP7 LT ISZERO PUSH2 0x9A0 JUMPI PUSH2 0x984 PUSH2 0x99C SWAP4 PUSH1 0x80 SWAP8 DUP5 MSTORE PUSH1 0x40 MLOAD SWAP8 DUP9 SWAP8 DUP3 DUP10 MSTORE MLOAD SWAP2 DUP9 ADD MSTORE PUSH1 0xA0 DUP8 ADD SWAP1 PUSH2 0x20E2 JUMP JUMPDEST SWAP4 MLOAD PUSH1 0x40 DUP7 ADD MSTORE MLOAD PUSH1 0x60 DUP6 ADD MSTORE MLOAD PUSH1 0x80 DUP5 ADD SWAP1 PUSH2 0x2217 JUMP JUMPDEST SUB SWAP1 RETURN JUMPDEST PUSH4 0x4E487B71 PUSH1 0xE0 SHL PUSH0 MSTORE PUSH1 0x21 PUSH1 0x4 MSTORE PUSH1 0x24 PUSH0 REVERT JUMPDEST POP CALLVALUE PUSH2 0x73B JUMPI PUSH1 0x20 DUP1 PUSH1 0x3 NOT CALLDATASIZE ADD SLT PUSH2 0xC4B JUMPI PUSH1 0x4 CALLDATALOAD PUSH1 0x1 PUSH1 0x1 PUSH1 0x40 SHL SUB SWAP2 DUP3 DUP3 GT PUSH2 0xC47 JUMPI CALLDATASIZE PUSH1 0x23 DUP4 ADD SLT ISZERO PUSH2 0xC47 JUMPI DUP2 PUSH1 0x4 ADD CALLDATALOAD PUSH2 0x9F3 DUP2 PUSH2 0x2256 JUMP JUMPDEST SWAP4 PUSH2 0xA01 PUSH1 0x40 MLOAD SWAP6 DUP7 PUSH2 0x203F JUMP JUMPDEST DUP2 DUP6 MSTORE DUP3 DUP6 ADD SWAP5 DUP6 SWAP5 PUSH1 0x24 SWAP7 DUP8 PUSH1 0x5 SWAP6 DUP7 SHL DUP4 ADD ADD SWAP2 CALLDATASIZE DUP4 GT PUSH2 0xC43 JUMPI DUP9 DUP2 ADD SWAP2 JUMPDEST DUP4 DUP4 LT PUSH2 0xC19 JUMPI POP POP POP POP PUSH2 0xA43 PUSH1 0x1 DUP1 PUSH1 0xA0 SHL SUB PUSH1 0x12 SLOAD AND CALLER EQ PUSH2 0x27B6 JUMP JUMPDEST MLOAD SWAP4 PUSH1 0x1 PUSH1 0x40 SHL DUP6 GT PUSH2 0xC06 JUMPI PUSH1 0x9 SLOAD DUP6 PUSH1 0x9 SSTORE DUP1 DUP7 LT PUSH2 0xB95 JUMPI JUMPDEST POP SWAP5 SWAP2 PUSH1 0x9 DUP8 MSTORE DUP4 DUP8 KECCAK256 SWAP3 DUP8 SWAP7 JUMPDEST DUP7 DUP9 LT PUSH2 0xA78 JUMPI DUP9 DUP1 RETURN JUMPDEST DUP1 MLOAD DUP1 MLOAD SWAP1 DUP6 DUP3 GT PUSH2 0xB82 JUMPI SWAP1 DUP8 SWAP2 PUSH2 0xA91 DUP9 SLOAD PUSH2 0x214E JUMP JUMPDEST SWAP1 DUP13 PUSH1 0x1F SWAP3 DUP6 DUP5 DUP3 GT PUSH2 0xB4E JUMPI JUMPDEST POP POP POP DUP13 DUP5 SWAP3 DUP5 GT PUSH1 0x1 EQ PUSH2 0xAE8 JUMPI SWAP3 PUSH1 0x1 SWAP6 SWAP3 DUP2 SWAP3 DUP8 SWAP7 SWAP6 SWAP3 PUSH2 0xADD JUMPI JUMPDEST POP POP PUSH0 NOT PUSH1 0x3 DUP4 SWAP1 SHL SHR NOT AND SWAP1 DUP5 SHL OR DUP9 SSTORE JUMPDEST ADD SWAP6 ADD SWAP8 ADD SWAP7 SWAP4 PUSH2 0xA6D JUMP JUMPDEST ADD MLOAD SWAP1 POP PUSH0 DUP1 PUSH2 0xABE JUMP JUMPDEST SWAP2 SWAP1 PUSH1 0x1F NOT DUP5 AND DUP11 DUP5 MSTORE DUP6 DUP5 KECCAK256 SWAP4 JUMPDEST DUP2 DUP2 LT PUSH2 0xB36 JUMPI POP SWAP2 PUSH1 0x1 SWAP7 SWAP4 SWAP2 DUP6 DUP9 SWAP8 SWAP7 SWAP5 LT PUSH2 0xB1E JUMPI JUMPDEST POP POP POP DUP4 SHL DUP4 ADD DUP9 SSTORE PUSH2 0xAD1 JUMP JUMPDEST ADD MLOAD PUSH0 NOT PUSH1 0xF8 DUP5 PUSH1 0x3 SHL AND SHR NOT AND SWAP1 SSTORE PUSH0 DUP1 DUP1 PUSH2 0xB10 JUMP JUMPDEST DUP3 DUP5 ADD MLOAD DUP6 SSTORE DUP13 SWAP7 PUSH1 0x1 SWAP1 SWAP6 ADD SWAP5 SWAP4 DUP5 ADD SWAP4 ADD PUSH2 0xAF7 JUMP JUMPDEST DUP3 DUP13 PUSH2 0xB71 SWAP5 MSTORE KECCAK256 DUP5 DUP1 DUP8 ADD DUP12 SHR DUP3 ADD SWAP3 DUP9 DUP9 LT PUSH2 0xB79 JUMPI JUMPDEST ADD DUP11 SHR ADD SWAP1 PUSH2 0x227A JUMP JUMPDEST DUP13 PUSH0 DUP6 PUSH2 0xA9F JUMP JUMPDEST SWAP3 POP DUP2 SWAP3 PUSH2 0xB67 JUMP JUMPDEST PUSH4 0x4E487B71 PUSH1 0xE0 SHL DUP12 MSTORE PUSH1 0x41 PUSH1 0x4 MSTORE DUP4 DUP12 REVERT JUMPDEST PUSH1 0x9 DUP9 MSTORE DUP6 DUP6 DUP10 KECCAK256 SWAP2 DUP3 ADD SWAP2 ADD JUMPDEST DUP2 DUP2 LT PUSH2 0xBB0 JUMPI POP PUSH2 0xA5F JUMP JUMPDEST DUP1 DUP10 PUSH2 0xBBE PUSH1 0x1 SWAP4 SLOAD PUSH2 0x214E JUMP JUMPDEST DUP1 PUSH2 0xBCC JUMPI JUMPDEST POP POP ADD PUSH2 0xBA3 JUMP JUMPDEST PUSH1 0x1F DUP1 DUP3 GT DUP6 EQ PUSH2 0xBE5 JUMPI POP POP POP PUSH0 DUP2 SSTORE JUMPDEST DUP10 PUSH0 PUSH2 0xBC4 JUMP JUMPDEST PUSH2 0xBFD SWAP1 DUP5 DUP5 MSTORE DUP11 DUP5 KECCAK256 SWAP3 ADD DUP10 SHR DUP3 ADD DUP6 DUP4 ADD PUSH2 0x227A JUMP JUMPDEST PUSH0 DUP4 SSTORE SSTORE PUSH2 0xBDE JUMP JUMPDEST PUSH4 0x4E487B71 PUSH1 0xE0 SHL DUP8 MSTORE PUSH1 0x41 PUSH1 0x4 MSTORE DUP6 DUP8 REVERT JUMPDEST DUP3 CALLDATALOAD DUP7 DUP2 GT PUSH2 0xC3F JUMPI DUP9 SWAP2 PUSH2 0xC34 DUP4 SWAP3 DUP14 CALLDATASIZE SWAP2 DUP8 ADD ADD PUSH2 0x207B JUMP JUMPDEST DUP2 MSTORE ADD SWAP3 ADD SWAP2 PUSH2 0xA23 JUMP JUMPDEST DUP12 DUP1 REVERT JUMPDEST DUP10 DUP1 REVERT JUMPDEST DUP4 DUP1 REVERT JUMPDEST POP DUP1 REVERT JUMPDEST POP CALLVALUE PUSH2 0x73B JUMPI PUSH1 0x20 CALLDATASIZE PUSH1 0x3 NOT ADD SLT PUSH2 0x73B JUMPI PUSH2 0xC82 PUSH1 0x40 PUSH1 0x20 SWAP3 PUSH1 0x4 CALLDATALOAD DUP2 MSTORE DUP1 DUP5 MSTORE KECCAK256 PUSH1 0x2 PUSH1 0x1 DUP3 ADD SLOAD SWAP2 ADD SLOAD SWAP1 PUSH2 0x2332 JUMP JUMPDEST PUSH1 0x40 MLOAD SWAP1 DUP2 MSTORE RETURN JUMPDEST POP CALLVALUE PUSH2 0x73B JUMPI PUSH2 0xCBE PUSH1 0x20 DUP1 SWAP3 PUSH1 0x40 PUSH2 0xCA2 CALLDATASIZE PUSH2 0x2224 JUMP JUMPDEST SWAP3 SWAP1 DUP2 MSTORE PUSH1 0x4 DUP5 MSTORE KECCAK256 DUP3 PUSH1 0x40 MLOAD SWAP5 DUP4 DUP7 DUP1 SWAP6 MLOAD SWAP4 DUP5 SWAP3 ADD PUSH2 0x20C1 JUMP JUMPDEST DUP3 ADD SWAP1 DUP2 MSTORE SUB ADD SWAP1 KECCAK256 SLOAD PUSH1 0x40 MLOAD SWAP1 DUP2 MSTORE RETURN JUMPDEST POP CALLVALUE PUSH2 0x73B JUMPI PUSH1 0x20 CALLDATASIZE PUSH1 0x3 NOT ADD SLT PUSH2 0x73B JUMPI PUSH2 0xCEA PUSH2 0x1FC4 JUMP JUMPDEST PUSH1 0x12 SLOAD PUSH1 0x1 PUSH1 0x1 PUSH1 0xA0 SHL SUB SWAP2 SWAP1 PUSH2 0xD04 SWAP1 DUP4 AND CALLER EQ PUSH2 0x27B6 JUMP JUMPDEST AND PUSH1 0x1 DUP1 PUSH1 0xA0 SHL SUB NOT PUSH1 0xE SLOAD AND OR PUSH1 0xE SSTORE DUP1 RETURN JUMPDEST POP CALLVALUE PUSH2 0x73B JUMPI PUSH1 0x20 CALLDATASIZE PUSH1 0x3 NOT ADD SLT PUSH2 0x73B JUMPI PUSH2 0xD3F PUSH1 0x1 DUP1 PUSH1 0xA0 SHL SUB PUSH1 0x12 SLOAD AND CALLER EQ PUSH2 0x27B6 JUMP JUMPDEST PUSH1 0x4 CALLDATALOAD PUSH1 0x11 SSTORE DUP1 RETURN JUMPDEST POP CALLVALUE PUSH2 0x73B JUMPI PUSH1 0x20 CALLDATASIZE PUSH1 0x3 NOT ADD SLT PUSH2 0x73B JUMPI PUSH1 0x40 PUSH2 0xDAE SWAP2 PUSH1 0x4 CALLDATALOAD DUP2 MSTORE DUP1 PUSH1 0x20 MSTORE KECCAK256 PUSH1 0x40 MLOAD SWAP1 PUSH2 0xD83 DUP3 PUSH2 0xD7C DUP2 DUP5 PUSH2 0x2186 JUMP JUMPDEST SUB DUP4 PUSH2 0x203F JUMP JUMPDEST PUSH2 0x99C PUSH1 0x1 DUP3 ADD SLOAD SWAP2 PUSH1 0xFF PUSH1 0x3 PUSH1 0x2 DUP4 ADD SLOAD SWAP3 ADD SLOAD AND SWAP1 PUSH1 0x40 MLOAD SWAP6 DUP7 SWAP6 PUSH1 0x80 DUP8 MSTORE PUSH1 0x80 DUP8 ADD SWAP1 PUSH2 0x20E2 JUMP JUMPDEST SWAP4 PUSH1 0x20 DUP7 ADD MSTORE PUSH1 0x40 DUP6 ADD MSTORE PUSH1 0x60 DUP5 ADD SWAP1 PUSH2 0x2217 JUMP JUMPDEST POP CALLVALUE PUSH2 0x73B JUMPI PUSH1 0x20 CALLDATASIZE PUSH1 0x3 NOT ADD SLT PUSH2 0x73B JUMPI PUSH1 0x40 PUSH1 0x60 SWAP2 PUSH1 0x4 CALLDATALOAD DUP2 MSTORE PUSH1 0x6 PUSH1 0x20 MSTORE KECCAK256 PUSH1 0x2 DUP2 ADD SLOAD SWAP1 PUSH1 0xFF PUSH1 0x5 PUSH1 0x4 DUP4 ADD SLOAD SWAP3 ADD SLOAD AND SWAP1 PUSH1 0x40 MLOAD SWAP3 DUP4 MSTORE PUSH1 0x20 DUP4 ADD MSTORE ISZERO ISZERO PUSH1 0x40 DUP3 ADD MSTORE RETURN JUMPDEST POP CALLVALUE PUSH2 0x73B JUMPI PUSH1 0x20 CALLDATASIZE PUSH1 0x3 NOT ADD SLT PUSH2 0x73B JUMPI PUSH2 0xE27 PUSH2 0x1FC4 JUMP JUMPDEST PUSH1 0x12 SLOAD PUSH1 0x1 PUSH1 0x1 PUSH1 0xA0 SHL SUB SWAP2 SWAP1 PUSH2 0xE41 SWAP1 DUP4 AND CALLER EQ PUSH2 0x27B6 JUMP JUMPDEST AND PUSH1 0x1 DUP1 PUSH1 0xA0 SHL SUB NOT PUSH1 0xC SLOAD AND OR PUSH1 0xC SSTORE DUP1 RETURN JUMPDEST POP CALLVALUE PUSH2 0x73B JUMPI PUSH1 0x20 CALLDATASIZE PUSH1 0x3 NOT ADD SLT PUSH2 0x73B JUMPI PUSH1 0x40 PUSH1 0x20 SWAP2 PUSH1 0x4 CALLDATALOAD DUP2 MSTORE PUSH1 0x1 DUP4 MSTORE KECCAK256 SLOAD PUSH1 0x40 MLOAD SWAP1 DUP2 MSTORE RETURN JUMPDEST POP CALLVALUE PUSH2 0x73B JUMPI DUP1 PUSH1 0x3 NOT CALLDATASIZE ADD SLT PUSH2 0x73B JUMPI PUSH1 0x20 PUSH1 0x2 SLOAD PUSH1 0x40 MLOAD SWAP1 DUP2 MSTORE RETURN JUMPDEST POP CALLVALUE PUSH2 0x73B JUMPI PUSH1 0x20 SWAP1 DUP2 PUSH1 0x3 NOT CALLDATASIZE ADD SLT PUSH2 0x73B JUMPI DUP1 PUSH1 0x40 SWAP2 PUSH1 0xA0 DUP4 MLOAD PUSH2 0xEC2 DUP2 PUSH2 0x1FDA JUMP JUMPDEST DUP3 DUP2 MSTORE PUSH1 0x60 DUP7 DUP3 ADD MSTORE DUP3 DUP6 DUP3 ADD MSTORE PUSH1 0x60 DUP1 DUP3 ADD MSTORE DUP3 PUSH1 0x80 DUP3 ADD MSTORE ADD MSTORE PUSH1 0x4 CALLDATALOAD DUP2 MSTORE PUSH1 0x6 DUP4 MSTORE KECCAK256 PUSH1 0x40 MLOAD SWAP1 PUSH2 0xEF5 DUP3 PUSH2 0x1FDA JUMP JUMPDEST PUSH1 0x1 DUP1 PUSH1 0xA0 SHL SUB SWAP3 DUP4 DUP3 SLOAD AND DUP4 MSTORE PUSH2 0xFA4 PUSH1 0x40 MLOAD PUSH2 0xF1A DUP2 PUSH2 0x928 DUP2 PUSH1 0x1 DUP9 ADD PUSH2 0x2186 JUMP JUMPDEST DUP3 DUP6 ADD SWAP1 DUP2 MSTORE PUSH1 0x2 DUP5 ADD SLOAD SWAP1 PUSH1 0x40 DUP7 ADD SWAP2 DUP3 MSTORE PUSH2 0xF8B PUSH1 0x40 MLOAD SWAP2 PUSH2 0xF45 DUP4 PUSH2 0x813 DUP2 PUSH1 0x3 DUP12 ADD PUSH2 0x2186 JUMP JUMPDEST PUSH1 0x60 DUP9 ADD SWAP3 DUP4 MSTORE PUSH1 0xFF PUSH1 0x5 PUSH1 0x4 DUP10 ADD SLOAD SWAP9 PUSH1 0x80 DUP12 ADD SWAP10 DUP11 MSTORE ADD SLOAD AND SWAP6 PUSH1 0xA0 DUP10 ADD SWAP7 ISZERO ISZERO DUP8 MSTORE PUSH1 0x40 MLOAD SWAP10 DUP11 SWAP10 DUP3 DUP12 MSTORE MLOAD AND SWAP1 DUP10 ADD MSTORE MLOAD PUSH1 0xC0 PUSH1 0x40 DUP10 ADD MSTORE PUSH1 0xE0 DUP9 ADD SWAP1 PUSH2 0x20E2 JUMP JUMPDEST SWAP2 MLOAD PUSH1 0x60 DUP8 ADD MSTORE MLOAD DUP6 DUP3 SUB PUSH1 0x1F NOT ADD PUSH1 0x80 DUP8 ADD MSTORE PUSH2 0x20E2 JUMP JUMPDEST SWAP2 MLOAD PUSH1 0xA0 DUP5 ADD MSTORE MLOAD ISZERO ISZERO PUSH1 0xC0 DUP4 ADD MSTORE SUB SWAP1 RETURN JUMPDEST POP CALLVALUE PUSH2 0x73B JUMPI DUP1 PUSH1 0x3 NOT CALLDATASIZE ADD SLT PUSH2 0x73B JUMPI PUSH1 0x13 SLOAD PUSH1 0x40 MLOAD PUSH1 0x1 PUSH1 0x1 PUSH1 0xA0 SHL SUB SWAP1 SWAP2 AND DUP2 MSTORE PUSH1 0x20 SWAP1 RETURN JUMPDEST POP CALLVALUE PUSH2 0x73B JUMPI PUSH1 0x20 CALLDATASIZE PUSH1 0x3 NOT ADD SLT PUSH2 0x73B JUMPI PUSH1 0x40 PUSH1 0x20 SWAP2 PUSH1 0x4 CALLDATALOAD DUP2 MSTORE PUSH1 0x5 DUP4 MSTORE KECCAK256 SLOAD PUSH1 0x40 MLOAD SWAP1 DUP2 MSTORE RETURN JUMPDEST POP CALLVALUE PUSH2 0x73B JUMPI PUSH1 0x40 CALLDATASIZE PUSH1 0x3 NOT ADD SLT PUSH2 0x73B JUMPI PUSH1 0x24 CALLDATALOAD PUSH1 0x1 PUSH1 0x1 PUSH1 0xA0 SHL SUB DUP2 AND SWAP2 SWAP1 DUP3 SWAP1 SUB PUSH2 0x56F JUMPI PUSH1 0x40 SWAP1 PUSH1 0x4 CALLDATALOAD DUP2 MSTORE PUSH1 0xA PUSH1 0x20 MSTORE KECCAK256 SWAP1 PUSH0 MSTORE PUSH1 0x20 MSTORE PUSH1 0x20 PUSH1 0xFF PUSH1 0x40 PUSH0 KECCAK256 SLOAD AND PUSH1 0x40 MLOAD SWAP1 ISZERO ISZERO DUP2 MSTORE RETURN JUMPDEST POP CALLVALUE PUSH2 0x73B JUMPI PUSH1 0x20 DUP1 PUSH1 0x3 NOT CALLDATASIZE ADD SLT PUSH2 0xC4B JUMPI PUSH1 0x4 CALLDATALOAD DUP3 MSTORE PUSH1 0x8 DUP2 MSTORE PUSH1 0x40 DUP3 KECCAK256 SWAP2 PUSH1 0x40 MLOAD DUP1 SWAP3 DUP1 DUP6 SLOAD SWAP3 DUP4 DUP2 MSTORE ADD SWAP5 DUP4 MSTORE DUP1 DUP4 KECCAK256 SWAP3 SWAP1 JUMPDEST DUP3 DUP3 LT PUSH2 0x10B4 JUMPI PUSH2 0x99C DUP6 PUSH2 0x10A8 DUP2 DUP10 SUB DUP3 PUSH2 0x203F JUMP JUMPDEST PUSH1 0x40 MLOAD SWAP2 DUP3 SWAP2 DUP3 PUSH2 0x1F8A JUMP JUMPDEST DUP4 SLOAD DUP7 MSTORE SWAP5 DUP6 ADD SWAP5 PUSH1 0x1 SWAP4 DUP5 ADD SWAP4 SWAP1 SWAP2 ADD SWAP1 PUSH2 0x1091 JUMP JUMPDEST POP CALLVALUE PUSH2 0x73B JUMPI PUSH1 0x20 CALLDATASIZE PUSH1 0x3 NOT ADD SLT PUSH2 0x73B JUMPI PUSH2 0x10F2 PUSH1 0x1 DUP1 PUSH1 0xA0 SHL SUB PUSH1 0x12 SLOAD AND CALLER EQ PUSH2 0x27B6 JUMP JUMPDEST PUSH1 0x4 CALLDATALOAD PUSH1 0x10 SSTORE DUP1 RETURN JUMPDEST POP CALLVALUE PUSH2 0x73B JUMPI PUSH1 0x20 CALLDATASIZE PUSH1 0x3 NOT ADD SLT PUSH2 0x73B JUMPI PUSH2 0x1115 PUSH2 0x1FC4 JUMP JUMPDEST PUSH1 0x12 SLOAD PUSH1 0x1 PUSH1 0x1 PUSH1 0xA0 SHL SUB SWAP2 SWAP1 PUSH2 0x112F SWAP1 DUP4 AND CALLER EQ PUSH2 0x27B6 JUMP JUMPDEST AND PUSH1 0x1 DUP1 PUSH1 0xA0 SHL SUB NOT PUSH1 0xF SLOAD AND OR PUSH1 0xF SSTORE DUP1 RETURN JUMPDEST POP CALLVALUE PUSH2 0x73B JUMPI PUSH1 0x60 CALLDATASIZE PUSH1 0x3 NOT ADD SLT PUSH2 0x73B JUMPI PUSH1 0x24 CALLDATALOAD PUSH1 0x1 PUSH1 0x1 PUSH1 0x40 SHL SUB DUP2 GT PUSH2 0xC4B JUMPI PUSH2 0x1174 SWAP1 CALLDATASIZE SWAP1 PUSH1 0x4 ADD PUSH2 0x207B JUMP JUMPDEST SWAP1 PUSH1 0x4 CALLDATALOAD DUP2 MSTORE DUP1 PUSH1 0x20 MSTORE PUSH2 0x1190 PUSH1 0x1 PUSH1 0x40 DUP4 KECCAK256 ADD SLOAD ISZERO ISZERO PUSH2 0x22EA JUMP JUMPDEST PUSH2 0x11CF DUP2 PUSH1 0x1 DUP1 PUSH1 0xA0 SHL SUB PUSH1 0xC SLOAD AND PUSH1 0x4 CALLDATALOAD DUP3 MSTORE DUP2 PUSH1 0x20 MSTORE PUSH1 0x40 DUP3 KECCAK256 SWAP1 PUSH1 0x40 MLOAD DUP1 DUP1 SWAP6 DUP2 SWAP5 PUSH3 0x6E7C31 PUSH1 0xE9 SHL DUP4 MSTORE PUSH1 0x20 PUSH1 0x4 DUP5 ADD MSTORE PUSH1 0x24 DUP4 ADD SWAP1 PUSH2 0x2186 JUMP JUMPDEST SUB SWAP2 GAS STATICCALL SWAP1 DUP2 ISZERO PUSH2 0x1959 JUMPI DUP3 SWAP2 PUSH2 0x1831 JUMPI JUMPDEST POP PUSH1 0x44 CALLDATALOAD SWAP3 PUSH1 0x1 DUP5 GT ISZERO PUSH2 0x17ED JUMPI PUSH2 0x11FD PUSH1 0x9 SLOAD DUP4 MLOAD SWAP1 PUSH2 0x2332 JUMP JUMPDEST DUP5 GT PUSH2 0x17AD JUMPI PUSH1 0x4 CALLDATALOAD DUP4 MSTORE PUSH1 0xA PUSH1 0x20 MSTORE PUSH1 0x40 DUP4 KECCAK256 CALLER PUSH0 MSTORE PUSH1 0x20 MSTORE PUSH1 0xFF PUSH1 0x40 PUSH0 KECCAK256 SLOAD AND PUSH2 0x175E JUMPI PUSH2 0x128D SWAP2 PUSH1 0x4 CALLDATALOAD DUP5 MSTORE PUSH1 0xA PUSH1 0x20 MSTORE PUSH1 0x40 DUP5 KECCAK256 CALLER PUSH0 MSTORE PUSH1 0x20 MSTORE PUSH1 0x40 PUSH0 KECCAK256 PUSH1 0x1 PUSH1 0xFF NOT DUP3 SLOAD AND OR SWAP1 SSTORE PUSH1 0x20 PUSH1 0x1 DUP1 PUSH1 0xA0 SHL SUB PUSH1 0xD SLOAD AND PUSH1 0x4 CALLDATALOAD DUP7 MSTORE DUP6 DUP3 MSTORE PUSH1 0x40 DUP7 KECCAK256 SWAP1 PUSH1 0x40 MLOAD DUP1 DUP1 SWAP8 DUP2 SWAP5 PUSH4 0x2B5DF59 PUSH1 0xE0 SHL DUP4 MSTORE CALLER PUSH1 0x4 DUP5 ADD MSTORE PUSH1 0x40 PUSH1 0x24 DUP5 ADD MSTORE PUSH1 0x44 DUP4 ADD SWAP1 PUSH2 0x2186 JUMP JUMPDEST SUB SWAP2 GAS STATICCALL SWAP3 DUP4 ISZERO PUSH2 0x1753 JUMPI DUP5 SWAP4 PUSH2 0x171F JUMPI JUMPDEST POP PUSH1 0x9 SLOAD SWAP1 DUP2 DUP7 GT PUSH2 0x16D1 JUMPI POP PUSH0 NOT SWAP1 DUP6 DUP3 ADD DUP7 DUP2 GT PUSH2 0x16BD JUMPI LT ISZERO PUSH2 0x16A9 JUMPI PUSH2 0x12DD PUSH2 0x928 SWAP2 PUSH1 0x9 PUSH0 MSTORE DUP7 PUSH1 0x20 PUSH0 KECCAK256 ADD ADD PUSH1 0x40 MLOAD SWAP3 DUP4 DUP1 SWAP3 PUSH2 0x2186 JUMP JUMPDEST DUP4 PUSH1 0x4 CALLDATALOAD DUP6 MSTORE DUP5 PUSH1 0x20 MSTORE PUSH2 0x12FE PUSH1 0x40 DUP7 KECCAK256 PUSH1 0x2 PUSH1 0x1 DUP3 ADD SLOAD SWAP2 ADD SLOAD SWAP1 PUSH2 0x2332 JUMP JUMPDEST TIMESTAMP LT ISZERO PUSH2 0x16A1 JUMPI JUMPDEST PUSH1 0x40 MLOAD PUSH2 0x1312 DUP2 PUSH2 0x1FDA JUMP JUMPDEST CALLER DUP2 MSTORE PUSH1 0x20 DUP2 ADD SWAP7 DUP5 DUP9 MSTORE PUSH1 0x40 DUP3 ADD MSTORE DUP3 PUSH1 0x60 DUP3 ADD MSTORE DUP5 PUSH1 0x80 DUP3 ADD MSTORE DUP2 ISZERO ISZERO PUSH1 0xA0 DUP3 ADD MSTORE PUSH1 0x7 SLOAD DUP7 MSTORE PUSH1 0x6 PUSH1 0x20 MSTORE PUSH1 0x40 DUP7 KECCAK256 SWAP7 PUSH1 0x1 DUP1 PUSH1 0xA0 SHL SUB DUP3 MLOAD AND PUSH1 0x1 DUP1 PUSH1 0xA0 SHL SUB NOT DUP10 SLOAD AND OR DUP9 SSTORE MLOAD DUP1 MLOAD PUSH1 0x1 PUSH1 0x1 PUSH1 0x40 SHL SUB DUP2 GT PUSH2 0x15EF JUMPI DUP1 PUSH1 0x1 DUP11 ADD SWAP3 PUSH2 0x137E DUP5 SLOAD PUSH2 0x214E JUMP JUMPDEST PUSH1 0x1F DUP2 GT PUSH2 0x1671 JUMPI JUMPDEST POP PUSH1 0x20 SWAP1 PUSH1 0x1F DUP4 GT PUSH1 0x1 EQ PUSH2 0x160E JUMPI DUP11 SWAP3 PUSH2 0x1603 JUMPI JUMPDEST POP POP DUP2 PUSH1 0x1 SHL SWAP2 PUSH0 NOT SWAP1 PUSH1 0x3 SHL SHR NOT AND OR SWAP1 SSTORE JUMPDEST PUSH1 0x40 DUP2 ADD MLOAD PUSH1 0x2 DUP9 ADD SSTORE PUSH1 0x60 DUP2 ADD MLOAD SWAP7 DUP8 MLOAD PUSH1 0x1 PUSH1 0x1 PUSH1 0x40 SHL SUB DUP2 GT PUSH2 0x15EF JUMPI PUSH2 0x13DE PUSH1 0x3 DUP4 ADD SLOAD PUSH2 0x214E JUMP JUMPDEST PUSH1 0x1F DUP2 GT PUSH2 0x15BC JUMPI JUMPDEST POP PUSH1 0x20 PUSH1 0x1F DUP3 GT PUSH1 0x1 EQ PUSH2 0x1521 JUMPI PUSH1 0x5 PUSH2 0x14C4 SWAP6 SWAP4 DUP4 PUSH32 0xFAB0B7CC55D5C47EEF9AB7FCD4C01A41A4DDFA36CEC643D2A9CB97B3F57915D4 SWAP9 SWAP7 SWAP5 PUSH1 0xA0 SWAP5 DUP14 SWAP15 PUSH2 0x14E7 SWAP15 SWAP3 PUSH2 0x1516 JUMPI JUMPDEST POP POP DUP2 PUSH1 0x1 SHL SWAP2 PUSH0 NOT SWAP1 PUSH1 0x3 SHL SHR NOT AND OR PUSH1 0x3 DUP3 ADD SSTORE JUMPDEST PUSH1 0x80 DUP5 ADD MLOAD PUSH1 0x4 DUP3 ADD SSTORE ADD SWAP2 ADD MLOAD ISZERO ISZERO PUSH1 0xFF DUP1 NOT DUP4 SLOAD AND SWAP2 AND OR SWAP1 SSTORE PUSH1 0x4 CALLDATALOAD DUP9 MSTORE PUSH1 0x8 PUSH1 0x20 MSTORE PUSH2 0x147D PUSH1 0x40 DUP10 KECCAK256 PUSH1 0x7 SLOAD SWAP1 PUSH2 0x22A8 JUMP JUMPDEST PUSH2 0x14D7 PUSH1 0x7 SLOAD SWAP7 DUP8 SWAP7 PUSH1 0x40 MLOAD SWAP6 DUP7 SWAP6 CALLER DUP14 DUP12 PUSH32 0x953DE3727DE1848EA7329BEE97A44132BDD8271D8D663EB90BC2772F21541EC8 PUSH1 0x4 CALLDATALOAD SWAP3 DUP1 LOG4 PUSH1 0x80 DUP8 MSTORE PUSH1 0x80 DUP8 ADD SWAP1 PUSH2 0x20E2 JUMP JUMPDEST SWAP2 PUSH1 0x20 DUP7 ADD MSTORE DUP5 DUP3 SUB PUSH1 0x40 DUP7 ADD MSTORE PUSH2 0x20E2 JUMP JUMPDEST SWAP1 ISZERO ISZERO PUSH1 0x60 DUP4 ADD MSTORE SUB SWAP1 LOG2 PUSH2 0x22DC JUMP JUMPDEST SWAP1 DUP2 PUSH1 0x7 SSTORE PUSH0 NOT DUP3 ADD SWAP2 DUP3 GT PUSH2 0x1502 JUMPI PUSH1 0x20 DUP3 PUSH1 0x40 MLOAD SWAP1 DUP2 MSTORE RETURN JUMPDEST PUSH4 0x4E487B71 PUSH1 0xE0 SHL DUP2 MSTORE PUSH1 0x11 PUSH1 0x4 MSTORE PUSH1 0x24 SWAP1 REVERT JUMPDEST ADD MLOAD SWAP1 POP PUSH0 DUP1 PUSH2 0x1430 JUMP JUMPDEST PUSH1 0x3 DUP4 ADD DUP10 MSTORE PUSH1 0x20 DUP10 KECCAK256 SWAP10 DUP10 JUMPDEST PUSH1 0x1F NOT DUP5 AND DUP2 LT PUSH2 0x15A4 JUMPI POP PUSH2 0x14C4 SWAP6 SWAP4 PUSH1 0x1 DUP5 PUSH2 0x14E7 SWAP13 SWAP14 PUSH1 0xA0 SWAP6 PUSH1 0x5 SWAP6 PUSH32 0xFAB0B7CC55D5C47EEF9AB7FCD4C01A41A4DDFA36CEC643D2A9CB97B3F57915D4 SWAP13 SWAP11 SWAP9 PUSH1 0x1F NOT DUP2 AND LT PUSH2 0x158C JUMPI JUMPDEST POP POP POP DUP2 SHL ADD PUSH1 0x3 DUP3 ADD SSTORE PUSH2 0x1447 JUMP JUMPDEST ADD MLOAD PUSH0 NOT PUSH1 0xF8 DUP5 PUSH1 0x3 SHL AND SHR NOT AND SWAP1 SSTORE PUSH0 DUP1 DUP1 PUSH2 0x157C JUMP JUMPDEST DUP3 DUP3 ADD MLOAD DUP13 SSTORE PUSH1 0x1 SWAP1 SWAP12 ADD SWAP11 PUSH1 0x20 SWAP3 DUP4 ADD SWAP3 ADD PUSH2 0x152E JUMP JUMPDEST PUSH2 0x15E9 SWAP1 PUSH1 0x3 DUP5 ADD DUP11 MSTORE PUSH1 0x20 DUP11 KECCAK256 PUSH1 0x1F DUP5 ADD PUSH1 0x5 SHR DUP2 ADD SWAP2 PUSH1 0x20 DUP6 LT PUSH2 0x4D6 JUMPI PUSH1 0x1F ADD PUSH1 0x5 SHR ADD SWAP1 PUSH2 0x227A JUMP JUMPDEST PUSH0 PUSH2 0x13E7 JUMP JUMPDEST PUSH4 0x4E487B71 PUSH1 0xE0 SHL DUP9 MSTORE PUSH1 0x41 PUSH1 0x4 MSTORE PUSH1 0x24 DUP9 REVERT JUMPDEST ADD MLOAD SWAP1 POP PUSH0 DUP1 PUSH2 0x139D JUMP JUMPDEST DUP5 DUP12 MSTORE PUSH1 0x20 DUP12 KECCAK256 SWAP3 POP PUSH1 0x1F NOT DUP5 AND DUP12 JUMPDEST DUP2 DUP2 LT PUSH2 0x1659 JUMPI POP SWAP1 DUP5 PUSH1 0x1 SWAP6 SWAP5 SWAP4 SWAP3 LT PUSH2 0x1641 JUMPI JUMPDEST POP POP POP DUP2 SHL ADD SWAP1 SSTORE PUSH2 0x13B1 JUMP JUMPDEST ADD MLOAD PUSH0 NOT PUSH1 0xF8 DUP5 PUSH1 0x3 SHL AND SHR NOT AND SWAP1 SSTORE PUSH0 DUP1 DUP1 PUSH2 0x1634 JUMP JUMPDEST SWAP3 SWAP4 PUSH1 0x20 PUSH1 0x1 DUP2 SWAP3 DUP8 DUP7 ADD MLOAD DUP2 SSTORE ADD SWAP6 ADD SWAP4 ADD PUSH2 0x161E JUMP JUMPDEST PUSH2 0x169B SWAP1 DUP6 DUP13 MSTORE PUSH1 0x20 DUP13 KECCAK256 PUSH1 0x1F DUP6 ADD PUSH1 0x5 SHR DUP2 ADD SWAP2 PUSH1 0x20 DUP7 LT PUSH2 0x4D6 JUMPI PUSH1 0x1F ADD PUSH1 0x5 SHR ADD SWAP1 PUSH2 0x227A JUMP JUMPDEST PUSH0 PUSH2 0x1387 JUMP JUMPDEST POP PUSH1 0x1 PUSH2 0x1306 JUMP JUMPDEST PUSH4 0x4E487B71 PUSH1 0xE0 SHL PUSH0 MSTORE PUSH1 0x32 PUSH1 0x4 MSTORE PUSH1 0x24 PUSH0 REVERT JUMPDEST PUSH4 0x4E487B71 PUSH1 0xE0 SHL DUP7 MSTORE PUSH1 0x11 PUSH1 0x4 MSTORE PUSH1 0x24 DUP7 REVERT JUMPDEST SWAP1 DUP6 SUB SWAP1 DUP6 DUP3 GT PUSH2 0x170B JUMPI PUSH0 NOT DUP3 ADD SWAP2 DUP3 GT PUSH2 0x16F7 JUMPI SWAP1 PUSH2 0x16F1 SWAP2 PUSH2 0x233F JUMP JUMPDEST MLOAD PUSH2 0x12DD JUMP JUMPDEST PUSH4 0x4E487B71 PUSH1 0xE0 SHL DUP6 MSTORE PUSH1 0x11 PUSH1 0x4 MSTORE PUSH1 0x24 DUP6 REVERT JUMPDEST PUSH4 0x4E487B71 PUSH1 0xE0 SHL PUSH0 MSTORE PUSH1 0x11 PUSH1 0x4 MSTORE PUSH1 0x24 PUSH0 REVERT JUMPDEST SWAP1 SWAP3 POP PUSH1 0x20 DUP2 RETURNDATASIZE PUSH1 0x20 GT PUSH2 0x174B JUMPI JUMPDEST DUP2 PUSH2 0x173B PUSH1 0x20 SWAP4 DUP4 PUSH2 0x203F JUMP JUMPDEST DUP2 ADD SUB SLT PUSH2 0x56F JUMPI MLOAD SWAP2 PUSH0 PUSH2 0x129F JUMP JUMPDEST RETURNDATASIZE SWAP2 POP PUSH2 0x172E JUMP JUMPDEST PUSH1 0x40 MLOAD RETURNDATASIZE DUP7 DUP3 RETURNDATACOPY RETURNDATASIZE SWAP1 REVERT JUMPDEST PUSH1 0x40 MLOAD PUSH3 0x461BCD PUSH1 0xE5 SHL DUP2 MSTORE PUSH1 0x20 PUSH1 0x4 DUP3 ADD MSTORE PUSH1 0x21 PUSH1 0x24 DUP3 ADD MSTORE PUSH32 0x596F7527766520616C7265616479207265766965776564207468697320706F73 PUSH1 0x44 DUP3 ADD MSTORE PUSH1 0x1D PUSH1 0xFA SHL PUSH1 0x64 DUP3 ADD MSTORE PUSH1 0x84 SWAP1 REVERT JUMPDEST PUSH1 0x40 MLOAD PUSH3 0x461BCD PUSH1 0xE5 SHL DUP2 MSTORE PUSH1 0x20 PUSH1 0x4 DUP3 ADD MSTORE PUSH1 0x18 PUSH1 0x24 DUP3 ADD MSTORE PUSH24 0x436F6E73656E736F7573204E6F7420496E20426F756E6473 PUSH1 0x40 SHL PUSH1 0x44 DUP3 ADD MSTORE PUSH1 0x64 SWAP1 REVERT JUMPDEST PUSH1 0x64 PUSH1 0x40 MLOAD PUSH3 0x461BCD PUSH1 0xE5 SHL DUP2 MSTORE PUSH1 0x20 PUSH1 0x4 DUP3 ADD MSTORE PUSH1 0x20 PUSH1 0x24 DUP3 ADD MSTORE PUSH32 0x436F6E73656E736F7573206D75732062652067726561746572207468616E2031 PUSH1 0x44 DUP3 ADD MSTORE REVERT JUMPDEST SWAP1 POP RETURNDATASIZE DUP1 DUP4 DUP4 RETURNDATACOPY PUSH2 0x1842 DUP2 DUP4 PUSH2 0x203F JUMP JUMPDEST PUSH1 0x20 DUP3 DUP3 DUP2 ADD SUB SLT PUSH2 0x1955 JUMPI DUP2 MLOAD PUSH1 0x1 PUSH1 0x1 PUSH1 0x40 SHL SUB DUP2 GT PUSH2 0xC47 JUMPI DUP2 DUP4 ADD PUSH1 0x1F DUP3 DUP6 ADD ADD SLT ISZERO PUSH2 0xC47 JUMPI DUP1 DUP4 ADD MLOAD SWAP1 PUSH2 0x187B DUP3 PUSH2 0x2256 JUMP JUMPDEST SWAP4 PUSH2 0x1889 PUSH1 0x40 MLOAD SWAP6 DUP7 PUSH2 0x203F JUMP JUMPDEST DUP3 DUP6 MSTORE PUSH1 0x20 DUP6 ADD SWAP2 DUP5 DUP3 ADD PUSH1 0x20 DUP6 PUSH1 0x5 SHL DUP4 DUP6 ADD ADD ADD GT PUSH2 0x1951 JUMPI PUSH1 0x20 DUP2 DUP4 ADD ADD SWAP3 JUMPDEST PUSH1 0x20 DUP6 PUSH1 0x5 SHL DUP4 DUP6 ADD ADD ADD DUP5 LT PUSH2 0x18C9 JUMPI POP POP POP POP POP POP PUSH0 PUSH2 0x11E1 JUMP JUMPDEST DUP4 MLOAD PUSH1 0x1 PUSH1 0x1 PUSH1 0x40 SHL SUB DUP2 GT PUSH2 0x194D JUMPI DUP7 DUP5 ADD PUSH1 0x3F DUP3 DUP6 DUP8 ADD ADD ADD SLT ISZERO PUSH2 0x194D JUMPI PUSH1 0x20 DUP2 DUP5 DUP7 ADD ADD ADD MLOAD PUSH2 0x18FC DUP2 PUSH2 0x2060 JUMP JUMPDEST SWAP2 PUSH2 0x190A PUSH1 0x40 MLOAD SWAP4 DUP5 PUSH2 0x203F JUMP JUMPDEST DUP2 DUP4 MSTORE DUP9 DUP7 ADD PUSH1 0x40 DUP4 DUP4 DUP9 DUP11 ADD ADD ADD ADD GT PUSH2 0x1949 JUMPI SWAP3 DUP3 PUSH2 0x193C PUSH1 0x20 SWAP6 SWAP4 DUP7 SWAP6 SWAP5 PUSH1 0x40 DUP8 DUP1 SWAP8 ADD SWAP2 DUP11 DUP13 ADD ADD ADD PUSH2 0x20C1 JUMP JUMPDEST DUP2 MSTORE ADD SWAP5 ADD SWAP4 SWAP1 POP PUSH2 0x18AC JUMP JUMPDEST DUP11 DUP1 REVERT JUMPDEST DUP9 DUP1 REVERT JUMPDEST DUP7 DUP1 REVERT JUMPDEST DUP3 DUP1 REVERT JUMPDEST PUSH1 0x40 MLOAD RETURNDATASIZE DUP5 DUP3 RETURNDATACOPY RETURNDATASIZE SWAP1 REVERT JUMPDEST POP CALLVALUE PUSH2 0x73B JUMPI PUSH1 0x20 CALLDATASIZE PUSH1 0x3 NOT ADD SLT PUSH2 0x73B JUMPI PUSH2 0x197E PUSH2 0x1FC4 JUMP JUMPDEST PUSH1 0x12 SLOAD PUSH1 0x1 PUSH1 0x1 PUSH1 0xA0 SHL SUB SWAP2 SWAP1 PUSH2 0x1998 SWAP1 DUP4 AND CALLER EQ PUSH2 0x27B6 JUMP JUMPDEST AND PUSH1 0x1 DUP1 PUSH1 0xA0 SHL SUB NOT PUSH1 0xB SLOAD AND OR PUSH1 0xB SSTORE DUP1 RETURN JUMPDEST POP CALLVALUE PUSH2 0x73B JUMPI PUSH1 0x20 CALLDATASIZE PUSH1 0x3 NOT ADD SLT PUSH2 0x73B JUMPI PUSH2 0x19C6 PUSH2 0x1FC4 JUMP JUMPDEST PUSH1 0x12 SLOAD PUSH1 0x1 PUSH1 0x1 PUSH1 0xA0 SHL SUB SWAP2 SWAP1 PUSH2 0x19E0 SWAP1 DUP4 AND CALLER EQ PUSH2 0x27B6 JUMP JUMPDEST AND PUSH1 0x1 DUP1 PUSH1 0xA0 SHL SUB NOT PUSH1 0x13 SLOAD AND OR PUSH1 0x13 SSTORE DUP1 RETURN JUMPDEST POP CALLVALUE PUSH2 0x73B JUMPI DUP1 PUSH1 0x3 NOT CALLDATASIZE ADD SLT PUSH2 0x73B JUMPI PUSH1 0x20 PUSH1 0x11 SLOAD PUSH1 0x40 MLOAD SWAP1 DUP2 MSTORE RETURN JUMPDEST POP CALLVALUE PUSH2 0x73B JUMPI DUP1 PUSH1 0x3 NOT CALLDATASIZE ADD SLT PUSH2 0x73B JUMPI PUSH1 0xC SLOAD PUSH1 0x40 MLOAD PUSH1 0x1 PUSH1 0x1 PUSH1 0xA0 SHL SUB SWAP1 SWAP2 AND DUP2 MSTORE PUSH1 0x20 SWAP1 RETURN JUMPDEST POP CALLVALUE PUSH2 0x73B JUMPI PUSH1 0x20 DUP1 PUSH1 0x3 NOT CALLDATASIZE ADD SLT PUSH2 0xC4B JUMPI PUSH1 0x1 PUSH1 0x1 PUSH1 0x40 SHL SUB SWAP1 PUSH1 0x4 CALLDATALOAD DUP3 DUP2 GT PUSH2 0xC47 JUMPI CALLDATASIZE PUSH1 0x23 DUP3 ADD SLT ISZERO PUSH2 0xC47 JUMPI DUP1 PUSH1 0x4 ADD CALLDATALOAD SWAP3 DUP4 GT PUSH2 0xC47 JUMPI DUP3 DUP2 ADD PUSH1 0x24 SWAP4 CALLDATASIZE DUP6 DUP4 ADD GT PUSH2 0x689 JUMPI DUP4 SUB PUSH2 0x1BE0 JUMPI DUP2 DUP4 SWAP2 SUB SLT PUSH2 0xC47 JUMPI DUP3 ADD CALLDATALOAD SWAP2 DUP4 DUP4 SLT ISZERO PUSH2 0x1BDA JUMPI PUSH2 0x1AAB DUP4 PUSH2 0x2353 JUMP JUMPDEST PUSH1 0x1 DUP1 PUSH1 0xA0 SHL SUB DUP1 PUSH1 0xB SLOAD AND DUP3 DUP8 MSTORE PUSH1 0x5 DUP6 MSTORE DUP5 PUSH1 0x40 DUP9 KECCAK256 SLOAD DUP6 PUSH1 0x40 MLOAD DUP1 SWAP5 DUP2 SWAP4 PUSH4 0x6F0817EB PUSH1 0xE1 SHL DUP4 MSTORE PUSH1 0x4 DUP4 ADD MSTORE GAS STATICCALL SWAP1 DUP2 ISZERO PUSH2 0x1BCF JUMPI DUP8 SWAP2 PUSH2 0x1BA2 JUMPI JUMPDEST POP AND SWAP2 DUP3 CALLER SUB PUSH2 0x1B51 JUMPI SWAP1 DUP4 SWAP2 PUSH1 0x40 MLOAD DUP1 SWAP5 DUP2 SWAP4 PUSH4 0xD670D4A9 PUSH1 0xE0 SHL DUP4 MSTORE PUSH1 0x4 DUP4 ADD MSTORE GAS STATICCALL DUP1 ISZERO PUSH2 0x1753 JUMPI PUSH2 0x1B28 JUMPI JUMPDEST DUP4 PUSH2 0x1B25 DUP5 PUSH2 0x2382 JUMP JUMPDEST DUP1 RETURN JUMPDEST DUP2 RETURNDATASIZE DUP4 GT PUSH2 0x1B4A JUMPI JUMPDEST PUSH2 0x1B3B DUP2 DUP4 PUSH2 0x203F JUMP JUMPDEST DUP2 ADD SUB SLT PUSH2 0x56F JUMPI PUSH0 DUP1 PUSH2 0x1B1B JUMP JUMPDEST POP RETURNDATASIZE PUSH2 0x1B31 JUMP JUMPDEST DUP4 PUSH1 0x25 PUSH1 0x84 SWAP3 PUSH1 0x40 MLOAD SWAP3 PUSH3 0x461BCD PUSH1 0xE5 SHL DUP5 MSTORE PUSH1 0x4 DUP5 ADD MSTORE DUP3 ADD MSTORE PUSH32 0x4F6E6C79206C616E6520636F6E74726163742063616E20706572666F726D2075 PUSH1 0x44 DUP3 ADD MSTORE PUSH5 0x706B65657 PUSH1 0xDC SHL PUSH1 0x64 DUP3 ADD MSTORE REVERT JUMPDEST PUSH2 0x1BC2 SWAP2 POP DUP6 RETURNDATASIZE DUP8 GT PUSH2 0x1BC8 JUMPI JUMPDEST PUSH2 0x1BBA DUP2 DUP4 PUSH2 0x203F JUMP JUMPDEST DUP2 ADD SWAP1 PUSH2 0x2363 JUMP JUMPDEST PUSH0 PUSH2 0x1AEB JUMP JUMPDEST POP RETURNDATASIZE PUSH2 0x1BB0 JUMP JUMPDEST PUSH1 0x40 MLOAD RETURNDATASIZE DUP10 DUP3 RETURNDATACOPY RETURNDATASIZE SWAP1 REVERT JUMPDEST DUP3 PUSH2 0x1AAB JUMP JUMPDEST PUSH1 0x40 MLOAD PUSH3 0x461BCD PUSH1 0xE5 SHL DUP2 MSTORE PUSH1 0x4 DUP2 ADD DUP5 SWAP1 MSTORE PUSH1 0x1A DUP2 DUP7 ADD MSTORE PUSH32 0x496E76616C696420706572666F726D44617461206C656E677468000000000000 PUSH1 0x44 DUP3 ADD MSTORE PUSH1 0x64 SWAP1 REVERT JUMPDEST POP CALLVALUE PUSH2 0x73B JUMPI DUP1 PUSH1 0x3 NOT CALLDATASIZE ADD SLT PUSH2 0x73B JUMPI PUSH1 0x20 PUSH1 0x10 SLOAD PUSH1 0x40 MLOAD SWAP1 DUP2 MSTORE RETURN JUMPDEST POP CALLVALUE PUSH2 0x73B JUMPI PUSH1 0x20 CALLDATASIZE PUSH1 0x3 NOT ADD SLT PUSH2 0x73B JUMPI PUSH2 0x1C5C PUSH2 0x1FC4 JUMP JUMPDEST PUSH1 0x12 SLOAD PUSH1 0x1 PUSH1 0x1 PUSH1 0xA0 SHL SUB SWAP2 SWAP1 PUSH2 0x1C76 SWAP1 DUP4 AND CALLER EQ PUSH2 0x27B6 JUMP JUMPDEST AND PUSH1 0x1 DUP1 PUSH1 0xA0 SHL SUB NOT PUSH1 0xD SLOAD AND OR PUSH1 0xD SSTORE DUP1 RETURN JUMPDEST POP CALLVALUE PUSH2 0x73B JUMPI PUSH1 0x20 DUP1 PUSH1 0x3 NOT CALLDATASIZE ADD SLT PUSH2 0xC4B JUMPI PUSH1 0x4 CALLDATALOAD DUP1 ISZERO PUSH2 0x1E58 JUMPI DUP1 DUP4 MSTORE DUP3 DUP3 MSTORE PUSH1 0x1 PUSH1 0x40 DUP5 KECCAK256 ADD SLOAD ISZERO PUSH2 0x1E00 JUMPI PUSH2 0x1CC2 SWAP1 PUSH2 0x24DA JUMP JUMPDEST SWAP1 ISZERO PUSH2 0x1DAD JUMPI SWAP1 DUP2 PUSH2 0x1CD4 DUP5 SWAP4 PUSH2 0x2382 JUMP JUMPDEST DUP3 DUP2 SLT ISZERO PUSH2 0x1DA7 JUMPI PUSH2 0x1CE5 SWAP1 PUSH2 0x2353 JUMP JUMPDEST SWAP1 JUMPDEST PUSH1 0x1 DUP1 PUSH1 0xA0 SHL SUB SWAP1 DUP2 PUSH1 0xB SLOAD AND DUP4 DUP6 MSTORE PUSH1 0x5 DUP3 MSTORE DUP2 PUSH1 0x40 DUP7 KECCAK256 SLOAD PUSH1 0x24 PUSH1 0x40 MLOAD DUP1 SWAP5 DUP2 SWAP4 PUSH4 0x6F0817EB PUSH1 0xE1 SHL DUP4 MSTORE PUSH1 0x4 DUP4 ADD MSTORE GAS STATICCALL SWAP2 DUP3 ISZERO PUSH2 0x5F8 JUMPI DUP6 SWAP3 PUSH2 0x1D8A JUMPI JUMPDEST POP POP AND DUP1 EXTCODESIZE ISZERO PUSH2 0x1D86 JUMPI PUSH1 0x24 DUP4 SWAP3 PUSH1 0x40 MLOAD SWAP5 DUP6 SWAP4 DUP5 SWAP3 PUSH4 0x2E43DA9 PUSH1 0xE3 SHL DUP5 MSTORE PUSH1 0x4 DUP5 ADD MSTORE GAS CALL DUP1 ISZERO PUSH2 0x1959 JUMPI PUSH2 0x1D5E JUMPI POP DUP1 RETURN JUMPDEST PUSH1 0x1 PUSH1 0x1 PUSH1 0x40 SHL SUB DUP2 GT PUSH2 0x1D72 JUMPI PUSH1 0x40 MSTORE DUP1 RETURN JUMPDEST PUSH4 0x4E487B71 PUSH1 0xE0 SHL DUP3 MSTORE PUSH1 0x41 PUSH1 0x4 MSTORE PUSH1 0x24 DUP3 REVERT JUMPDEST POP POP REVERT JUMPDEST PUSH2 0x1DA0 SWAP3 POP DUP1 RETURNDATASIZE LT PUSH2 0x1BC8 JUMPI PUSH2 0x1BBA DUP2 DUP4 PUSH2 0x203F JUMP JUMPDEST PUSH0 DUP1 PUSH2 0x1D29 JUMP JUMPDEST SWAP1 PUSH2 0x1CE7 JUMP JUMPDEST PUSH1 0x40 MLOAD PUSH3 0x461BCD PUSH1 0xE5 SHL DUP2 MSTORE PUSH1 0x4 DUP2 ADD DUP4 SWAP1 MSTORE PUSH1 0x25 PUSH1 0x24 DUP3 ADD MSTORE PUSH32 0x55706B656570206E6F74206E656564656420666F722074686973207375626D69 PUSH1 0x44 DUP3 ADD MSTORE PUSH5 0x39B9B4B7B7 PUSH1 0xD9 SHL PUSH1 0x64 DUP3 ADD MSTORE PUSH1 0x84 SWAP1 REVERT JUMPDEST PUSH1 0x40 MLOAD PUSH3 0x461BCD PUSH1 0xE5 SHL DUP2 MSTORE PUSH1 0x4 DUP2 ADD DUP4 SWAP1 MSTORE PUSH1 0x2A PUSH1 0x24 DUP3 ADD MSTORE PUSH32 0x5375626D697373696F6E20646F6573206E6F74206578697374206F7220697320 PUSH1 0x44 DUP3 ADD MSTORE PUSH10 0x6E6F7420616374697665 PUSH1 0xB0 SHL PUSH1 0x64 DUP3 ADD MSTORE PUSH1 0x84 SWAP1 REVERT JUMPDEST PUSH1 0x40 MLOAD PUSH3 0x461BCD PUSH1 0xE5 SHL DUP2 MSTORE PUSH1 0x4 DUP2 ADD DUP4 SWAP1 MSTORE PUSH1 0x15 PUSH1 0x24 DUP3 ADD MSTORE PUSH21 0x125B9D985B1A59081CDD589B5A5CDCDA5BDB881251 PUSH1 0x5A SHL PUSH1 0x44 DUP3 ADD MSTORE PUSH1 0x64 SWAP1 REVERT JUMPDEST POP CALLVALUE PUSH2 0x73B JUMPI PUSH1 0x20 DUP1 PUSH1 0x3 NOT CALLDATASIZE ADD SLT PUSH2 0xC4B JUMPI PUSH1 0x4 CALLDATALOAD DUP3 MSTORE PUSH1 0x3 DUP2 MSTORE PUSH1 0x40 DUP3 KECCAK256 SWAP2 PUSH1 0x40 MLOAD DUP1 SWAP3 DUP1 DUP6 SLOAD SWAP3 DUP4 DUP2 MSTORE ADD SWAP5 DUP4 MSTORE DUP1 DUP4 KECCAK256 SWAP3 SWAP1 JUMPDEST DUP3 DUP3 LT PUSH2 0x1EE3 JUMPI PUSH2 0x99C DUP6 PUSH2 0x10A8 DUP2 DUP10 SUB DUP3 PUSH2 0x203F JUMP JUMPDEST DUP4 SLOAD DUP7 MSTORE SWAP5 DUP6 ADD SWAP5 PUSH1 0x1 SWAP4 DUP5 ADD SWAP4 SWAP1 SWAP2 ADD SWAP1 PUSH2 0x1ECC JUMP JUMPDEST POP CALLVALUE PUSH2 0x73B JUMPI PUSH2 0x1F09 CALLDATASIZE PUSH2 0x1F5F JUMP JUMPDEST SWAP2 SWAP1 DUP2 MSTORE PUSH1 0x8 PUSH1 0x20 MSTORE PUSH1 0x40 DUP2 KECCAK256 SWAP1 DUP2 SLOAD DUP4 LT ISZERO PUSH2 0x73B JUMPI PUSH1 0x20 PUSH2 0x1F2C DUP5 DUP5 PUSH2 0x1F75 JUMP JUMPDEST SWAP1 SLOAD PUSH1 0x40 MLOAD SWAP2 PUSH1 0x3 SHL SHR DUP2 MSTORE RETURN JUMPDEST SWAP1 POP CALLVALUE PUSH2 0xC4B JUMPI DUP2 PUSH1 0x3 NOT CALLDATASIZE ADD SLT PUSH2 0xC4B JUMPI PUSH1 0xE SLOAD PUSH1 0x1 PUSH1 0x1 PUSH1 0xA0 SHL SUB AND DUP2 MSTORE PUSH1 0x20 SWAP1 RETURN JUMPDEST PUSH1 0x40 SWAP1 PUSH1 0x3 NOT ADD SLT PUSH2 0x56F JUMPI PUSH1 0x4 CALLDATALOAD SWAP1 PUSH1 0x24 CALLDATALOAD SWAP1 JUMP JUMPDEST DUP1 SLOAD DUP3 LT ISZERO PUSH2 0x16A9 JUMPI PUSH0 MSTORE PUSH1 0x20 PUSH0 KECCAK256 ADD SWAP1 PUSH0 SWAP1 JUMP JUMPDEST PUSH1 0x20 SWAP1 DUP2 PUSH1 0x40 DUP2 DUP4 ADD SWAP3 DUP3 DUP2 MSTORE DUP6 MLOAD DUP1 SWAP5 MSTORE ADD SWAP4 ADD SWAP2 PUSH0 JUMPDEST DUP3 DUP2 LT PUSH2 0x1FB0 JUMPI POP POP POP POP SWAP1 JUMP JUMPDEST DUP4 MLOAD DUP6 MSTORE SWAP4 DUP2 ADD SWAP4 SWAP3 DUP2 ADD SWAP3 PUSH1 0x1 ADD PUSH2 0x1FA2 JUMP JUMPDEST PUSH1 0x4 CALLDATALOAD SWAP1 PUSH1 0x1 PUSH1 0x1 PUSH1 0xA0 SHL SUB DUP3 AND DUP3 SUB PUSH2 0x56F JUMPI JUMP JUMPDEST PUSH1 0xC0 DUP2 ADD SWAP1 DUP2 LT PUSH1 0x1 PUSH1 0x1 PUSH1 0x40 SHL SUB DUP3 GT OR PUSH2 0x1FF5 JUMPI PUSH1 0x40 MSTORE JUMP JUMPDEST PUSH4 0x4E487B71 PUSH1 0xE0 SHL PUSH0 MSTORE PUSH1 0x41 PUSH1 0x4 MSTORE PUSH1 0x24 PUSH0 REVERT JUMPDEST PUSH1 0x80 DUP2 ADD SWAP1 DUP2 LT PUSH1 0x1 PUSH1 0x1 PUSH1 0x40 SHL SUB DUP3 GT OR PUSH2 0x1FF5 JUMPI PUSH1 0x40 MSTORE JUMP JUMPDEST PUSH1 0x40 DUP2 ADD SWAP1 DUP2 LT PUSH1 0x1 PUSH1 0x1 PUSH1 0x40 SHL SUB DUP3 GT OR PUSH2 0x1FF5 JUMPI PUSH1 0x40 MSTORE JUMP JUMPDEST SWAP1 PUSH1 0x1F DUP1 NOT SWAP2 ADD AND DUP2 ADD SWAP1 DUP2 LT PUSH1 0x1 PUSH1 0x1 PUSH1 0x40 SHL SUB DUP3 GT OR PUSH2 0x1FF5 JUMPI PUSH1 0x40 MSTORE JUMP JUMPDEST PUSH1 0x1 PUSH1 0x1 PUSH1 0x40 SHL SUB DUP2 GT PUSH2 0x1FF5 JUMPI PUSH1 0x1F ADD PUSH1 0x1F NOT AND PUSH1 0x20 ADD SWAP1 JUMP JUMPDEST DUP2 PUSH1 0x1F DUP3 ADD SLT ISZERO PUSH2 0x56F JUMPI DUP1 CALLDATALOAD SWAP1 PUSH2 0x2092 DUP3 PUSH2 0x2060 JUMP JUMPDEST SWAP3 PUSH2 0x20A0 PUSH1 0x40 MLOAD SWAP5 DUP6 PUSH2 0x203F JUMP JUMPDEST DUP3 DUP5 MSTORE PUSH1 0x20 DUP4 DUP4 ADD ADD GT PUSH2 0x56F JUMPI DUP2 PUSH0 SWAP3 PUSH1 0x20 DUP1 SWAP4 ADD DUP4 DUP7 ADD CALLDATACOPY DUP4 ADD ADD MSTORE SWAP1 JUMP JUMPDEST PUSH0 JUMPDEST DUP4 DUP2 LT PUSH2 0x20D2 JUMPI POP POP PUSH0 SWAP2 ADD MSTORE JUMP JUMPDEST DUP2 DUP2 ADD MLOAD DUP4 DUP3 ADD MSTORE PUSH1 0x20 ADD PUSH2 0x20C3 JUMP JUMPDEST SWAP1 PUSH1 0x20 SWAP2 PUSH2 0x20FB DUP2 MLOAD DUP1 SWAP3 DUP2 DUP6 MSTORE DUP6 DUP1 DUP7 ADD SWAP2 ADD PUSH2 0x20C1 JUMP JUMPDEST PUSH1 0x1F ADD PUSH1 0x1F NOT AND ADD ADD SWAP1 JUMP JUMPDEST CALLVALUE PUSH2 0x56F JUMPI PUSH1 0x20 CALLDATASIZE PUSH1 0x3 NOT ADD SLT PUSH2 0x56F JUMPI PUSH1 0x4 CALLDATALOAD PUSH0 MSTORE PUSH0 PUSH1 0x20 MSTORE PUSH2 0x99C PUSH2 0x928 PUSH2 0x213A PUSH1 0x40 PUSH0 KECCAK256 PUSH1 0x40 MLOAD SWAP3 DUP4 DUP1 SWAP3 PUSH2 0x2186 JUMP JUMPDEST PUSH1 0x40 MLOAD SWAP2 DUP3 SWAP2 PUSH1 0x20 DUP4 MSTORE PUSH1 0x20 DUP4 ADD SWAP1 PUSH2 0x20E2 JUMP JUMPDEST SWAP1 PUSH1 0x1 DUP3 DUP2 SHR SWAP3 AND DUP1 ISZERO PUSH2 0x217C JUMPI JUMPDEST PUSH1 0x20 DUP4 LT EQ PUSH2 0x2168 JUMPI JUMP JUMPDEST PUSH4 0x4E487B71 PUSH1 0xE0 SHL PUSH0 MSTORE PUSH1 0x22 PUSH1 0x4 MSTORE PUSH1 0x24 PUSH0 REVERT JUMPDEST SWAP2 PUSH1 0x7F AND SWAP2 PUSH2 0x215D JUMP JUMPDEST SWAP1 PUSH0 SWAP3 SWAP2 DUP1 SLOAD SWAP2 PUSH2 0x2196 DUP4 PUSH2 0x214E JUMP JUMPDEST SWAP2 DUP3 DUP3 MSTORE PUSH1 0x1 SWAP4 DUP5 DUP2 AND SWAP1 DUP2 PUSH0 EQ PUSH2 0x21F4 JUMPI POP PUSH1 0x1 EQ PUSH2 0x21B7 JUMPI JUMPDEST POP POP POP POP JUMP JUMPDEST SWAP1 SWAP2 SWAP4 SWAP5 POP PUSH0 MSTORE PUSH1 0x20 SWAP3 DUP4 PUSH0 KECCAK256 SWAP3 DUP5 PUSH0 SWAP5 JUMPDEST DUP4 DUP7 LT PUSH2 0x21E0 JUMPI POP POP POP POP ADD ADD SWAP1 PUSH0 DUP1 DUP1 DUP1 PUSH2 0x21B1 JUMP JUMPDEST DUP1 SLOAD DUP6 DUP8 ADD DUP4 ADD MSTORE SWAP5 ADD SWAP4 DUP6 SWAP1 DUP3 ADD PUSH2 0x21C9 JUMP JUMPDEST SWAP3 SWAP5 POP POP POP PUSH1 0x20 SWAP4 SWAP5 POP PUSH1 0xFF NOT AND DUP4 DUP4 ADD MSTORE ISZERO ISZERO PUSH1 0x5 SHL ADD ADD SWAP1 PUSH0 DUP1 DUP1 DUP1 PUSH2 0x21B1 JUMP JUMPDEST SWAP1 PUSH1 0x4 DUP3 LT ISZERO PUSH2 0x9A0 JUMPI MSTORE JUMP JUMPDEST SWAP1 PUSH1 0x40 PUSH1 0x3 NOT DUP4 ADD SLT PUSH2 0x56F JUMPI PUSH1 0x4 CALLDATALOAD SWAP2 PUSH1 0x24 CALLDATALOAD SWAP1 PUSH1 0x1 PUSH1 0x1 PUSH1 0x40 SHL SUB DUP3 GT PUSH2 0x56F JUMPI PUSH2 0x2253 SWAP2 PUSH1 0x4 ADD PUSH2 0x207B JUMP JUMPDEST SWAP1 JUMP JUMPDEST PUSH1 0x1 PUSH1 0x1 PUSH1 0x40 SHL SUB DUP2 GT PUSH2 0x1FF5 JUMPI PUSH1 0x5 SHL PUSH1 0x20 ADD SWAP1 JUMP JUMPDEST MLOAD SWAP1 DUP2 ISZERO ISZERO DUP3 SUB PUSH2 0x56F JUMPI JUMP JUMPDEST DUP2 DUP2 LT PUSH2 0x2285 JUMPI POP POP JUMP JUMPDEST PUSH0 DUP2 SSTORE PUSH1 0x1 ADD PUSH2 0x227A JUMP JUMPDEST SWAP1 PUSH1 0x4 DUP2 LT ISZERO PUSH2 0x9A0 JUMPI PUSH1 0xFF DUP1 NOT DUP4 SLOAD AND SWAP2 AND OR SWAP1 SSTORE JUMP JUMPDEST DUP1 SLOAD PUSH1 0x1 PUSH1 0x40 SHL DUP2 LT ISZERO PUSH2 0x1FF5 JUMPI PUSH2 0x22C5 SWAP2 PUSH1 0x1 DUP3 ADD DUP2 SSTORE PUSH2 0x1F75 JUMP JUMPDEST DUP2 SWAP3 SWAP2 SLOAD SWAP1 PUSH1 0x3 SHL SWAP2 DUP3 SHL SWAP2 PUSH0 NOT SWAP1 SHL NOT AND OR SWAP1 SSTORE JUMP JUMPDEST PUSH0 NOT DUP2 EQ PUSH2 0x170B JUMPI PUSH1 0x1 ADD SWAP1 JUMP JUMPDEST ISZERO PUSH2 0x22F1 JUMPI JUMP JUMPDEST PUSH1 0x40 MLOAD PUSH3 0x461BCD PUSH1 0xE5 SHL DUP2 MSTORE PUSH1 0x20 PUSH1 0x4 DUP3 ADD MSTORE PUSH1 0x19 PUSH1 0x24 DUP3 ADD MSTORE PUSH25 0x14DD589B5A5CDCDA5BDB88191BD95CC81B9BDD08195E1A5CDD PUSH1 0x3A SHL PUSH1 0x44 DUP3 ADD MSTORE PUSH1 0x64 SWAP1 REVERT JUMPDEST SWAP2 SWAP1 DUP3 ADD DUP1 SWAP3 GT PUSH2 0x170B JUMPI JUMP JUMPDEST DUP1 MLOAD DUP3 LT ISZERO PUSH2 0x16A9 JUMPI PUSH1 0x20 SWAP2 PUSH1 0x5 SHL ADD ADD SWAP1 JUMP JUMPDEST PUSH1 0x1 PUSH1 0xFF SHL DUP2 EQ PUSH2 0x170B JUMPI PUSH0 SUB SWAP1 JUMP JUMPDEST SWAP1 DUP2 PUSH1 0x20 SWAP2 SUB SLT PUSH2 0x56F JUMPI MLOAD PUSH1 0x1 PUSH1 0x1 PUSH1 0xA0 SHL SUB DUP2 AND DUP2 SUB PUSH2 0x56F JUMPI SWAP1 JUMP JUMPDEST PUSH0 SWAP2 SWAP1 DUP3 DUP2 SGT SWAP1 DUP2 ISZERO PUSH2 0x24CB JUMPI SWAP1 JUMPDEST DUP2 ISZERO ISZERO DUP1 PUSH2 0x24A4 JUMPI JUMPDEST DUP1 PUSH2 0x248D JUMPI JUMPDEST PUSH2 0x23AB JUMPI JUMPDEST POP POP SWAP1 POP JUMP JUMPDEST ISZERO PUSH2 0x2486 JUMPI PUSH1 0x2 JUMPDEST DUP2 DUP5 MSTORE PUSH1 0x20 SWAP1 DUP5 DUP3 MSTORE PUSH2 0x23CD PUSH1 0x40 SWAP2 PUSH1 0x3 DUP4 DUP9 KECCAK256 ADD PUSH2 0x2290 JUMP JUMPDEST DUP3 DUP6 MSTORE PUSH1 0x1 DUP3 MSTORE DUP1 DUP6 KECCAK256 SLOAD SWAP1 DUP6 DUP4 MSTORE PUSH1 0xFF PUSH1 0x3 DUP3 DUP9 KECCAK256 ADD SLOAD AND PUSH1 0x4 DUP2 LT ISZERO PUSH2 0x420 JUMPI SWAP1 PUSH1 0x2 PUSH2 0x2456 SWAP3 PUSH32 0x3ED188EDBA0C6B2D9B7A54CEC2942F1CAB56A63A4DCFDCA5FF11706FFDF25B1E SWAP7 SWAP8 SWAP9 POP EQ PUSH0 EQ PUSH2 0x2461 JUMPI DUP1 MLOAD PUSH2 0x242D DUP2 PUSH2 0x2024 JUMP JUMPDEST PUSH1 0x8 DUP2 MSTORE PUSH8 0x1058D8D95C1D1959 PUSH1 0xC2 SHL DUP6 DUP3 ADD MSTORE SWAP1 JUMPDEST DUP1 DUP1 MLOAD SWAP6 DUP7 SWAP6 DUP7 MSTORE DUP6 ADD MSTORE DUP4 ADD SWAP1 PUSH2 0x20E2 JUMP JUMPDEST SUB SWAP1 LOG2 DUP1 PUSH0 DUP1 PUSH2 0x23A5 JUMP JUMPDEST DUP1 MLOAD PUSH2 0x246C DUP2 PUSH2 0x2024 JUMP JUMPDEST PUSH1 0x8 DUP2 MSTORE PUSH8 0x14995A9958DD1959 PUSH1 0xC2 SHL DUP6 DUP3 ADD MSTORE SWAP1 PUSH2 0x2443 JUMP JUMPDEST PUSH1 0x3 PUSH2 0x23B3 JUMP JUMPDEST POP DUP2 DUP5 MSTORE DUP4 PUSH1 0x20 MSTORE PUSH1 0x1 PUSH1 0x40 DUP6 KECCAK256 ADD SLOAD ISZERO ISZERO PUSH2 0x23A0 JUMP JUMPDEST POP DUP2 DUP5 MSTORE DUP4 PUSH1 0x20 MSTORE PUSH2 0x24C3 PUSH1 0x40 DUP6 KECCAK256 PUSH1 0x2 PUSH1 0x1 DUP3 ADD SLOAD SWAP2 ADD SLOAD SWAP1 PUSH2 0x2332 JUMP JUMPDEST TIMESTAMP LT ISZERO PUSH2 0x239A JUMP JUMPDEST PUSH2 0x24D4 SWAP1 PUSH2 0x2353 JUMP JUMPDEST SWAP1 PUSH2 0x2391 JUMP JUMPDEST PUSH0 SWAP2 PUSH0 SWAP2 DUP1 PUSH0 MSTORE PUSH0 PUSH1 0x20 MSTORE PUSH2 0x24FC PUSH1 0x40 PUSH0 KECCAK256 PUSH1 0x2 PUSH1 0x1 DUP3 ADD SLOAD SWAP2 ADD SLOAD SWAP1 PUSH2 0x2332 JUMP JUMPDEST TIMESTAMP LT ISZERO PUSH2 0x2506 JUMPI POP JUMP JUMPDEST SWAP3 POP SWAP1 POP PUSH2 0x2253 PUSH1 0x1 SWAP3 PUSH2 0x252A JUMP JUMPDEST SWAP1 DUP2 PUSH0 SUB SWAP2 DUP1 DUP4 SDIV PUSH0 NOT EQ SWAP1 ISZERO OR ISZERO PUSH2 0x170B JUMPI JUMP JUMPDEST PUSH1 0x1 DUP1 PUSH1 0xA0 SHL SUB PUSH1 0xC SLOAD AND PUSH0 SWAP1 DUP3 DUP3 MSTORE PUSH1 0x20 SWAP1 DUP3 DUP3 MSTORE PUSH1 0x40 SWAP3 DUP4 DUP2 KECCAK256 DUP5 MLOAD SWAP3 PUSH4 0x26917989 PUSH1 0xE0 SHL DUP5 MSTORE DUP4 PUSH1 0x4 SWAP2 DUP7 DUP4 DUP4 ADD MSTORE PUSH1 0x60 SWAP6 DUP7 SWAP2 DUP2 DUP1 PUSH2 0x2572 PUSH1 0x24 SWAP9 DUP10 DUP4 ADD SWAP1 PUSH2 0x2186 JUMP JUMPDEST SUB SWAP2 GAS STATICCALL SWAP7 DUP8 ISZERO PUSH2 0x27AD JUMPI DUP5 SWAP2 DUP6 SWAP1 DUP7 SWAP10 PUSH2 0x2771 JUMPI JUMPDEST POP DUP10 DUP7 MSTORE PUSH1 0x8 DUP9 MSTORE DUP2 DUP7 KECCAK256 SWAP1 DUP3 MLOAD DUP1 DUP4 DUP12 DUP3 SWAP6 SLOAD SWAP4 DUP5 DUP2 MSTORE ADD SWAP1 DUP11 MSTORE DUP12 DUP11 KECCAK256 SWAP3 DUP11 JUMPDEST DUP14 DUP3 DUP3 LT PUSH2 0x275B JUMPI POP POP POP PUSH2 0x25C1 SWAP3 POP SUB DUP4 PUSH2 0x203F JUMP JUMPDEST DUP4 DUP3 MLOAD LT PUSH2 0x2748 JUMPI DUP7 SWAP8 DUP8 SWAP10 DUP4 MLOAD PUSH1 0x11 SLOAD SWAP1 DUP2 DUP2 GT PUSH0 EQ PUSH2 0x2740 JUMPI POP SWAP4 JUMPDEST DUP10 JUMPDEST DUP6 DUP2 LT PUSH2 0x2668 JUMPI POP POP POP POP POP POP POP DUP6 ISZERO DUP1 SWAP2 DUP2 ISZERO PUSH2 0x265E JUMPI JUMPDEST POP PUSH2 0x264E JUMPI PUSH1 0x64 DUP6 MUL SWAP5 DUP1 DUP7 DIV PUSH1 0x64 EQ SWAP1 ISZERO OR ISZERO PUSH2 0x263C JUMPI PUSH2 0x262B JUMPI POP POP POP DIV LT PUSH2 0x2622 JUMPI SWAP1 JUMP JUMPDEST PUSH2 0x2253 SWAP1 PUSH2 0x2515 JUMP JUMPDEST PUSH4 0x4E487B71 PUSH1 0xE0 SHL DUP4 MSTORE PUSH1 0x12 SWAP1 MSTORE DUP2 REVERT JUMPDEST POP PUSH4 0x4E487B71 PUSH1 0xE0 SHL DUP4 MSTORE PUSH1 0x11 SWAP1 MSTORE DUP2 REVERT JUMPDEST POP POP POP POP POP POP POP PUSH2 0x2253 SWAP1 PUSH2 0x2515 JUMP JUMPDEST SWAP1 POP DUP7 LT PUSH0 PUSH2 0x25FA JUMP JUMPDEST PUSH2 0x2672 DUP2 DUP4 PUSH2 0x233F JUMP JUMPDEST MLOAD DUP8 MLOAD SWAP1 PUSH4 0x5CF17E1F PUSH1 0xE1 SHL DUP3 MSTORE DUP11 DUP3 ADD MSTORE DUP5 DUP2 DUP13 DUP2 ADDRESS GAS STATICCALL DUP1 ISZERO PUSH2 0x2736 JUMPI DUP13 DUP8 SWAP2 DUP2 SWAP4 DUP3 SWAP2 PUSH2 0x26F2 JUMPI JUMPDEST POP PUSH2 0x26E6 JUMPI LT ISZERO PUSH2 0x26B8 JUMPI JUMPDEST POP PUSH2 0x26B3 SWAP1 PUSH2 0x22DC JUMP JUMPDEST PUSH2 0x25E1 JUMP JUMPDEST SWAP13 PUSH2 0x26C4 PUSH1 0x2 SWAP2 PUSH2 0x22DC JUMP JUMPDEST SWAP14 EQ PUSH2 0x26D1 JUMPI JUMPDEST PUSH0 PUSH2 0x26A9 JUMP JUMPDEST SWAP11 PUSH2 0x26DE PUSH2 0x26B3 SWAP2 PUSH2 0x22DC JUMP JUMPDEST SWAP12 SWAP1 POP PUSH2 0x26CB JUMP JUMPDEST POP POP POP PUSH2 0x26B3 SWAP1 PUSH2 0x22DC JUMP JUMPDEST SWAP4 POP POP POP POP DUP5 DUP2 DUP2 RETURNDATASIZE DUP4 GT PUSH2 0x272F JUMPI JUMPDEST PUSH2 0x270C DUP2 DUP4 PUSH2 0x203F JUMP JUMPDEST DUP2 ADD SUB SLT PUSH2 0xC3F JUMPI DUP6 DUP2 MLOAD PUSH2 0x2726 DUP11 DUP8 DUP6 ADD MLOAD SWAP5 ADD PUSH2 0x226D JUMP JUMPDEST SWAP1 SWAP3 SWAP1 PUSH0 PUSH2 0x269D JUMP JUMPDEST POP RETURNDATASIZE PUSH2 0x2702 JUMP JUMPDEST DUP9 MLOAD RETURNDATASIZE DUP15 DUP3 RETURNDATACOPY RETURNDATASIZE SWAP1 REVERT JUMPDEST SWAP1 POP SWAP4 PUSH2 0x25DF JUMP JUMPDEST POP POP POP POP POP POP POP POP POP POP PUSH2 0x2253 SWAP1 PUSH2 0x2515 JUMP JUMPDEST DUP6 SLOAD DUP5 MSTORE PUSH1 0x1 SWAP6 DUP7 ADD SWAP6 DUP9 SWAP6 POP SWAP4 ADD SWAP3 ADD PUSH2 0x25AA JUMP JUMPDEST SWAP3 POP POP SWAP7 POP DUP5 DUP2 DUP2 RETURNDATASIZE DUP4 GT PUSH2 0x27A6 JUMPI JUMPDEST PUSH2 0x278B DUP2 DUP4 PUSH2 0x203F JUMP JUMPDEST DUP2 ADD SUB SLT PUSH2 0xC47 JUMPI DUP1 MLOAD SWAP7 DUP1 DUP8 DUP4 ADD MLOAD SWAP3 ADD MLOAD SWAP8 SWAP2 PUSH0 PUSH2 0x2588 JUMP JUMPDEST POP RETURNDATASIZE PUSH2 0x2781 JUMP JUMPDEST MLOAD RETURNDATASIZE DUP6 DUP3 RETURNDATACOPY RETURNDATASIZE SWAP1 REVERT JUMPDEST ISZERO PUSH2 0x27BD JUMPI JUMP JUMPDEST PUSH1 0x40 MLOAD PUSH3 0x461BCD PUSH1 0xE5 SHL DUP2 MSTORE PUSH1 0x20 PUSH1 0x4 DUP3 ADD MSTORE PUSH1 0x16 PUSH1 0x24 DUP3 ADD MSTORE PUSH22 0x2737BA103A34329031B7B73A3930B1BA1037BBB732B9 PUSH1 0x51 SHL PUSH1 0x44 DUP3 ADD MSTORE PUSH1 0x64 SWAP1 REVERT INVALID LOG2 PUSH5 0x6970667358 0x22 SLT KECCAK256 0xAC SLOAD 0xE LOG3 DUP8 0x23 DUP5 MULMOD GAS PUSH6 0x77756A6FD16D 0xA8 0x4F 0x29 0x2C 0xC3 SWAP13 POP 0xD7 0xE0 BASEFEE 0xDB SWAP14 PUSH2 0x43C3 0xA9 PUSH5 0x736F6C6343 STOP ADDMOD EQ STOP CALLER "},"methodIdentifiers":{"CommunityConsensusContract()":"47631adb","CommunitySubmissionToPost(uint256)":"ac97980d","CommunitySubmissions(uint256)":"c5dce24d","FundContract()":"8ed8067e","MembersContract()":"e1485776","PostSubmissionList(uint256,uint256)":"eeb0cf76","PostsContract()":"059597f7","SubmissionLane(uint256)":"884b80f2","consensusFee()":"4215c5e4","csCounter()":"a5940041","getCheckSubmissionForUpkeep(uint256)":"f2793902","getCommunitySubmission(uint256)":"de8b32c5","getPostConsesous(uint256)":"ea487a92","getPostSubmissionCommunity(uint256)":"eabccdb6","getPostSubmissionConsensus(uint256)":"85dba401","getPostSubmissionList(uint256)":"1ea49051","getReview(uint256)":"990581b6","getReviewConsenous(uint256)":"b9e2fc3e","getReviewsForSubmission(uint256)":"6c79bd2b","getSubmissionExpiration(uint256)":"d46219a2","hasReviewed(uint256,address)":"7c7198cc","manualUpkeepPost(uint256)":"34ca35c4","maxReviews()":"4ed59812","performUpkeep(bytes)":"4585e33b","postCommunities(uint256,string)":"d3a3f771","reviewCounter()":"e168b3a8","reviews(uint256)":"e83ddcea","setAutomationRegistry(address)":"5ff2d2aa","setCommunitiesContract(address)":"ad2957ff","setFee(uint256)":"69fe0e2d","setFundContract(address)":"59144baa","setLaneRegistry(address)":"651fa206","setMaxReviews(uint256)":"d1a34aa3","setMembersContract(address)":"3c09203b","setPostsContract(address)":"d39065fa","setdefaultConsenousTypes(string[])":"d8db3807","submitReview(uint256,string,uint256)":"6356eea4","submitToCommunity(uint256,string)":"fa1396f5","submmisionReviews(uint256,uint256)":"1651902a"}}}}}