{"contracts/PostConsensusLane.sol":{"PostConsnesusLane":{"abi":[{"inputs":[{"internalType":"address","name":"_fundContractAddress","type":"address"},{"internalType":"address","name":"_postConsensus","type":"address"},{"internalType":"address","name":"_laneRegistryContract","type":"address"},{"internalType":"address","name":"_automationForwarder","type":"address"}],"stateMutability":"nonpayable","type":"constructor"},{"anonymous":false,"inputs":[{"indexed":false,"internalType":"uint256","name":"postId","type":"uint256"},{"indexed":false,"internalType":"uint256","name":"newIndex","type":"uint256"}],"name":"IndexChange","type":"event"},{"anonymous":false,"inputs":[{"indexed":false,"internalType":"uint256","name":"postId","type":"uint256"}],"name":"PostRemoved","type":"event"},{"inputs":[{"internalType":"uint256","name":"postId","type":"uint256"}],"name":"appendToLane","outputs":[{"internalType":"uint256","name":"","type":"uint256"}],"stateMutability":"payable","type":"function"},{"inputs":[],"name":"automationForwarder","outputs":[{"internalType":"address","name":"","type":"address"}],"stateMutability":"view","type":"function"},{"inputs":[{"internalType":"bytes","name":"","type":"bytes"}],"name":"checkUpkeep","outputs":[{"internalType":"bool","name":"upkeepNeeded","type":"bool"},{"internalType":"bytes","name":"performData","type":"bytes"}],"stateMutability":"view","type":"function"},{"inputs":[],"name":"fundContract","outputs":[{"internalType":"contract FundContract","name":"","type":"address"}],"stateMutability":"view","type":"function"},{"inputs":[{"internalType":"uint256","name":"index","type":"uint256"}],"name":"getPostByIndex","outputs":[{"internalType":"uint256","name":"","type":"uint256"}],"stateMutability":"view","type":"function"},{"inputs":[],"name":"getPostCount","outputs":[{"internalType":"uint256","name":"","type":"uint256"}],"stateMutability":"view","type":"function"},{"inputs":[{"internalType":"uint256","name":"postId","type":"uint256"}],"name":"getpostIndex","outputs":[{"internalType":"uint256","name":"","type":"uint256"}],"stateMutability":"view","type":"function"},{"inputs":[],"name":"laneId","outputs":[{"internalType":"uint256","name":"","type":"uint256"}],"stateMutability":"view","type":"function"},{"inputs":[],"name":"laneRegistryContract","outputs":[{"internalType":"address","name":"","type":"address"}],"stateMutability":"view","type":"function"},{"inputs":[],"name":"owner","outputs":[{"internalType":"address","name":"","type":"address"}],"stateMutability":"view","type":"function"},{"inputs":[{"internalType":"bytes","name":"_performData","type":"bytes"}],"name":"performUpkeep","outputs":[],"stateMutability":"nonpayable","type":"function"},{"inputs":[],"name":"postConsensus","outputs":[{"internalType":"address","name":"","type":"address"}],"stateMutability":"view","type":"function"},{"inputs":[{"internalType":"uint256","name":"","type":"uint256"}],"name":"postIndex","outputs":[{"internalType":"uint256","name":"","type":"uint256"}],"stateMutability":"view","type":"function"},{"inputs":[{"internalType":"uint256","name":"","type":"uint256"}],"name":"posts","outputs":[{"internalType":"uint256","name":"","type":"uint256"}],"stateMutability":"view","type":"function"},{"inputs":[],"name":"registry","outputs":[{"internalType":"address","name":"","type":"address"}],"stateMutability":"view","type":"function"},{"inputs":[{"internalType":"uint256","name":"postId","type":"uint256"}],"name":"removePost","outputs":[],"stateMutability":"nonpayable","type":"function"},{"inputs":[{"internalType":"address","name":"_forwarder","type":"address"}],"name":"setForwarder","outputs":[],"stateMutability":"nonpayable","type":"function"},{"inputs":[{"internalType":"address","name":"_fundContractAddress","type":"address"}],"name":"setFundContract","outputs":[],"stateMutability":"nonpayable","type":"function"},{"inputs":[{"internalType":"address","name":"_registry","type":"address"}],"name":"setRegistry","outputs":[],"stateMutability":"nonpayable","type":"function"}],"evm":{"bytecode":{"linkReferences":{},"object":"60808060405234620001345760808162000e5f803803809162000023828562000138565b83398101031262000134576020816200003d5f9362000170565b906200004b83820162000170565b90620000686060620000606040840162000170565b920162000170565b60018060a01b0319923384600254161760025560018060a01b03809381809316866004541617600455169485856005541617600555168360085416176008551690600654161760065560246040518094819362034db960e61b83523060048401525af190811562000129575f91620000ef575b50600755604051610cd99081620001868239f35b906020823d821162000120575b816200010b6020938362000138565b810103126200011d5750515f620000db565b80fd5b3d9150620000fc565b6040513d5f823e3d90fd5b5f80fd5b601f909101601f19168101906001600160401b038211908210176200015c57604052565b634e487b7160e01b5f52604160045260245ffd5b51906001600160a01b0382168203620001345756fe60806040818152600480361015610014575f80fd5b5f92833560e01c908163025f9d63146109c0575080630b1e7f83146109975780631721ed48146109175780633b2786cb146108ee5780633eab6bac146108c55780634585e33b1461073157806359144baa146106e45780636e04ff0d146104c45780637b1039991461049b5780638da5cb5b14610472578063a91ee0dc14610425578063a993983b14610295578063b9998a2414610248578063bcc954071461022b578063bd097e2114610202578063d670d4a9146101aa578063da5c2dfc1461018b578063fb35005c1461011b5763fc68e09f146100f1575f80fd5b346101175760203660031901126101175760209282913581526001845220549051908152f35b8280fd5b50829034610187576020366003190112610187578035915482101561015457602083610146846109e5565b91905490519160031b1c8152f35b606490602084519162461bcd60e51b8352820152600d60248201526c092dcecc2d8d2c840d2dcc8caf609b1b6044820152fd5b5080fd5b5050346101875781600319360112610187576020906007549051908152f35b50919034610187576020366003190112610187576101e4816020943593848152600186522054925f198414908115916101ea575b50610ade565b51908152f35b90506101f4610a11565b90549060031b1c145f6101de565b50503461018757816003193601126101875760085490516001600160a01b039091168152602090f35b505034610187578160031936011261018757602091549051908152f35b83823461018757602036600319011261018757356001600160a01b03818116918290036101175761027e90600254163314610c5e565b600680546001600160a01b03191691909117905580f35b509160209283600319360112610187576005548135906001600160a01b0390811633036103ef578560249160085416865192838092633de5599d60e11b8252308883015234905af19081156103e55784916103ac575b5015610371578254600160401b81101561035e578161031282600161032a940187556109e5565b90919082549060031b91821b915f19901b1916179055565b82545f1981019290831161034b575082526001845282822055549051908152f35b634e487b7160e01b845260119052602483fd5b634e487b7160e01b845260418352602484fd5b835162461bcd60e51b81528083018690526015602482015274155c1ad9595c081c185e5b595b9d0819985a5b1959605a1b6044820152606490fd5b90508581813d83116103de575b6103c38183610aaf565b810103126103da576103d490610ad1565b5f6102eb565b8380fd5b503d6103b9565b85513d86823e3d90fd5b845162461bcd60e51b8152808401879052601060248201526f4e6f742074686520726567697374727960801b6044820152606490fd5b83823461018757602036600319011261018757356001600160a01b03818116918290036101175761045b90600254163314610c5e565b600580546001600160a01b03191691909117905580f35b50503461018757816003193601126101875760025490516001600160a01b039091168152602090f35b50503461018757816003193601126101875760035490516001600160a01b039091168152602090f35b50919034610187576104d536610a39565b5050606091828194828354908161053b575b505050939190815194859315158452602090838286015280518094860152825b84811061052557505050828201840152601f01601f19168101030190f35b8181018301518882018801528795508201610507565b82546001600160a01b03169160019086825b828110610617575050505080156104e75790925084919650602482518094819363793c9c8160e11b83528a8301525afa90811561060d57829083926105d0575b50948351916020830152602082528382019082821067ffffffffffffffff8311176105bd575083525f80806104e7565b604190634e487b7160e01b5f525260245ffd5b809250848092503d8311610606575b6105e98183610aaf565b810103126101875760206105fc82610ad1565b910151905f61058d565b503d6105df565b83513d84823e3d90fd5b610620816109e5565b90549060031b1c8a51636a310cd160e11b8152818982015260209081816024818c5afa9182156106da578c926106a8575b50504281111580610696575b610686575b50505f19811461067357830161054d565b634e487b7160e01b895260118752602489fd5b949c5094508b9391505f80610662565b50838111158061065d5750831561065d565b90809250813d83116106d3575b6106bf8183610aaf565b810103126106cf57515f80610651565b8a80fd5b503d6106b5565b8d513d8e823e3d90fd5b83823461018757602036600319011261018757356001600160a01b03818116918290036101175761071a90600254163314610c5e565b600880546001600160a01b03191691909117905580f35b508290346101875761074236610a39565b6006549194916001600160a01b0391908216330361088257602086828101031261087e5785358581121561087857600160ff1b8114610865578503955b82855416803b1561086157908691602083604489878a5198899788968794634585e33b60e01b8652850152816024850152848401378181018301849052601f01601f191681010301925af1801561085757610842575b506107e08495610b20565b6005541691600754845493803b1561083e5785928360449286519788958694632e6cfb9160e11b865285015260248401525af190811561083557506108225750f35b61082b90610a87565b6108325780f35b80fd5b513d84823e3d90fd5b8580fd5b936108506107e09695610a87565b93946107d5565b83513d87823e3d90fd5b8680fd5b634e487b7160e01b865260118552602486fd5b9561077f565b8480fd5b825162461bcd60e51b8152602081860152601c60248201527f4e6f7420746865206175746f6d6174696f6e20666f72776172646572000000006044820152606490fd5b50503461018757816003193601126101875760055490516001600160a01b039091168152602090f35b50503461018757816003193601126101875760065490516001600160a01b039091168152602090f35b50903461011757602036600319011261011757600254336001600160a01b039182161490811561098a575b501561095657506109539035610b20565b80f35b906020606492519162461bcd60e51b8352820152600e60248201526d139bdd08185d5d1a1bdc9a5e995960921b6044820152fd5b905082541633145f610942565b5034610117576020366003190112610117573591805483101561083257506101466020926109e5565b92505034610117578260031936011261011757546001600160a01b0316815260209150f35b905f9182548110156109fd5782805260208320019190565b634e487b7160e01b83526032600452602483fd5b5f90815415610a2557818052602082209190565b634e487b7160e01b82526032600452602482fd5b906020600319830112610a835760043567ffffffffffffffff92838211610a835780602383011215610a83578160040135938411610a835760248483010111610a83576024019190565b5f80fd5b67ffffffffffffffff8111610a9b57604052565b634e487b7160e01b5f52604160045260245ffd5b90601f8019910116810190811067ffffffffffffffff821117610a9b57604052565b51908115158203610a8357565b15610ae557565b60405162461bcd60e51b8152602060048201526013602482015272141bdcdd08191bd95cc81b9bdd08195e1a5cdd606a1b6044820152606490fd5b5f818152600160205260408082205490915f1991828114801590610c42575b610b4890610ade565b8154838101908111610c2e5780610b5f86926109e5565b90549060031b1c908303610bdf575b50505080548015610bcb57918360209492827f4323787dc7b9146e99da5553dee506c8d881e5da3d09774f8b421274287532be979501610bad816109e5565b8582549160031b1b19169055815584815260018652205551908152a1565b634e487b7160e01b82526031600452602482fd5b82610c0e826103127ff041f52db3fd2f56a979d9dd319aa6a6e399c198410349cf154eb4b4568d7daa966109e5565b8185526001602052808386205582519182526020820152a15f8381610b6e565b634e487b7160e01b83526011600452602483fd5b50610b4885610c4f610a11565b90549060031b1c149050610b3f565b15610c6557565b60405162461bcd60e51b81526020600482015260166024820152752737ba103a34329031b7b73a3930b1ba1037bbb732b960511b6044820152606490fdfea26469706673582212207449d8b05d94b0bdc24ace21cf5de0b2428854cd5fb8e43d3439ffd3ba1b967164736f6c63430008140033","opcodes":"PUSH1 0x80 DUP1 PUSH1 0x40 MSTORE CALLVALUE PUSH3 0x134 JUMPI PUSH1 0x80 DUP2 PUSH3 0xE5F DUP1 CODESIZE SUB DUP1 SWAP2 PUSH3 0x23 DUP3 DUP6 PUSH3 0x138 JUMP JUMPDEST DUP4 CODECOPY DUP2 ADD SUB SLT PUSH3 0x134 JUMPI PUSH1 0x20 DUP2 PUSH3 0x3D PUSH0 SWAP4 PUSH3 0x170 JUMP JUMPDEST SWAP1 PUSH3 0x4B DUP4 DUP3 ADD PUSH3 0x170 JUMP JUMPDEST SWAP1 PUSH3 0x68 PUSH1 0x60 PUSH3 0x60 PUSH1 0x40 DUP5 ADD PUSH3 0x170 JUMP JUMPDEST SWAP3 ADD PUSH3 0x170 JUMP JUMPDEST PUSH1 0x1 DUP1 PUSH1 0xA0 SHL SUB NOT SWAP3 CALLER DUP5 PUSH1 0x2 SLOAD AND OR PUSH1 0x2 SSTORE PUSH1 0x1 DUP1 PUSH1 0xA0 SHL SUB DUP1 SWAP4 DUP2 DUP1 SWAP4 AND DUP7 PUSH1 0x4 SLOAD AND OR PUSH1 0x4 SSTORE AND SWAP5 DUP6 DUP6 PUSH1 0x5 SLOAD AND OR PUSH1 0x5 SSTORE AND DUP4 PUSH1 0x8 SLOAD AND OR PUSH1 0x8 SSTORE AND SWAP1 PUSH1 0x6 SLOAD AND OR PUSH1 0x6 SSTORE PUSH1 0x24 PUSH1 0x40 MLOAD DUP1 SWAP5 DUP2 SWAP4 PUSH3 0x34DB9 PUSH1 0xE6 SHL DUP4 MSTORE ADDRESS PUSH1 0x4 DUP5 ADD MSTORE GAS CALL SWAP1 DUP2 ISZERO PUSH3 0x129 JUMPI PUSH0 SWAP2 PUSH3 0xEF JUMPI JUMPDEST POP PUSH1 0x7 SSTORE PUSH1 0x40 MLOAD PUSH2 0xCD9 SWAP1 DUP2 PUSH3 0x186 DUP3 CODECOPY RETURN JUMPDEST SWAP1 PUSH1 0x20 DUP3 RETURNDATASIZE DUP3 GT PUSH3 0x120 JUMPI JUMPDEST DUP2 PUSH3 0x10B PUSH1 0x20 SWAP4 DUP4 PUSH3 0x138 JUMP JUMPDEST DUP2 ADD SUB SLT PUSH3 0x11D JUMPI POP MLOAD PUSH0 PUSH3 0xDB JUMP JUMPDEST DUP1 REVERT JUMPDEST RETURNDATASIZE SWAP2 POP PUSH3 0xFC JUMP JUMPDEST PUSH1 0x40 MLOAD RETURNDATASIZE PUSH0 DUP3 RETURNDATACOPY RETURNDATASIZE SWAP1 REVERT JUMPDEST PUSH0 DUP1 REVERT JUMPDEST PUSH1 0x1F SWAP1 SWAP2 ADD PUSH1 0x1F NOT AND DUP2 ADD SWAP1 PUSH1 0x1 PUSH1 0x1 PUSH1 0x40 SHL SUB DUP3 GT SWAP1 DUP3 LT OR PUSH3 0x15C JUMPI PUSH1 0x40 MSTORE JUMP JUMPDEST PUSH4 0x4E487B71 PUSH1 0xE0 SHL PUSH0 MSTORE PUSH1 0x41 PUSH1 0x4 MSTORE PUSH1 0x24 PUSH0 REVERT JUMPDEST MLOAD SWAP1 PUSH1 0x1 PUSH1 0x1 PUSH1 0xA0 SHL SUB DUP3 AND DUP3 SUB PUSH3 0x134 JUMPI JUMP INVALID PUSH1 0x80 PUSH1 0x40 DUP2 DUP2 MSTORE PUSH1 0x4 DUP1 CALLDATASIZE LT ISZERO PUSH2 0x14 JUMPI PUSH0 DUP1 REVERT JUMPDEST PUSH0 SWAP3 DUP4 CALLDATALOAD PUSH1 0xE0 SHR SWAP1 DUP2 PUSH4 0x25F9D63 EQ PUSH2 0x9C0 JUMPI POP DUP1 PUSH4 0xB1E7F83 EQ PUSH2 0x997 JUMPI DUP1 PUSH4 0x1721ED48 EQ PUSH2 0x917 JUMPI DUP1 PUSH4 0x3B2786CB EQ PUSH2 0x8EE JUMPI DUP1 PUSH4 0x3EAB6BAC EQ PUSH2 0x8C5 JUMPI DUP1 PUSH4 0x4585E33B EQ PUSH2 0x731 JUMPI DUP1 PUSH4 0x59144BAA EQ PUSH2 0x6E4 JUMPI DUP1 PUSH4 0x6E04FF0D EQ PUSH2 0x4C4 JUMPI DUP1 PUSH4 0x7B103999 EQ PUSH2 0x49B JUMPI DUP1 PUSH4 0x8DA5CB5B EQ PUSH2 0x472 JUMPI DUP1 PUSH4 0xA91EE0DC EQ PUSH2 0x425 JUMPI DUP1 PUSH4 0xA993983B EQ PUSH2 0x295 JUMPI DUP1 PUSH4 0xB9998A24 EQ PUSH2 0x248 JUMPI DUP1 PUSH4 0xBCC95407 EQ PUSH2 0x22B JUMPI DUP1 PUSH4 0xBD097E21 EQ PUSH2 0x202 JUMPI DUP1 PUSH4 0xD670D4A9 EQ PUSH2 0x1AA JUMPI DUP1 PUSH4 0xDA5C2DFC EQ PUSH2 0x18B JUMPI DUP1 PUSH4 0xFB35005C EQ PUSH2 0x11B JUMPI PUSH4 0xFC68E09F EQ PUSH2 0xF1 JUMPI PUSH0 DUP1 REVERT JUMPDEST CALLVALUE PUSH2 0x117 JUMPI PUSH1 0x20 CALLDATASIZE PUSH1 0x3 NOT ADD SLT PUSH2 0x117 JUMPI PUSH1 0x20 SWAP3 DUP3 SWAP2 CALLDATALOAD DUP2 MSTORE PUSH1 0x1 DUP5 MSTORE KECCAK256 SLOAD SWAP1 MLOAD SWAP1 DUP2 MSTORE RETURN JUMPDEST DUP3 DUP1 REVERT JUMPDEST POP DUP3 SWAP1 CALLVALUE PUSH2 0x187 JUMPI PUSH1 0x20 CALLDATASIZE PUSH1 0x3 NOT ADD SLT PUSH2 0x187 JUMPI DUP1 CALLDATALOAD SWAP2 SLOAD DUP3 LT ISZERO PUSH2 0x154 JUMPI PUSH1 0x20 DUP4 PUSH2 0x146 DUP5 PUSH2 0x9E5 JUMP JUMPDEST SWAP2 SWAP1 SLOAD SWAP1 MLOAD SWAP2 PUSH1 0x3 SHL SHR DUP2 MSTORE RETURN JUMPDEST PUSH1 0x64 SWAP1 PUSH1 0x20 DUP5 MLOAD SWAP2 PUSH3 0x461BCD PUSH1 0xE5 SHL DUP4 MSTORE DUP3 ADD MSTORE PUSH1 0xD PUSH1 0x24 DUP3 ADD MSTORE PUSH13 0x92DCECC2D8D2C840D2DCC8CAF PUSH1 0x9B SHL PUSH1 0x44 DUP3 ADD MSTORE REVERT JUMPDEST POP DUP1 REVERT JUMPDEST POP POP CALLVALUE PUSH2 0x187 JUMPI DUP2 PUSH1 0x3 NOT CALLDATASIZE ADD SLT PUSH2 0x187 JUMPI PUSH1 0x20 SWAP1 PUSH1 0x7 SLOAD SWAP1 MLOAD SWAP1 DUP2 MSTORE RETURN JUMPDEST POP SWAP2 SWAP1 CALLVALUE PUSH2 0x187 JUMPI PUSH1 0x20 CALLDATASIZE PUSH1 0x3 NOT ADD SLT PUSH2 0x187 JUMPI PUSH2 0x1E4 DUP2 PUSH1 0x20 SWAP5 CALLDATALOAD SWAP4 DUP5 DUP2 MSTORE PUSH1 0x1 DUP7 MSTORE KECCAK256 SLOAD SWAP3 PUSH0 NOT DUP5 EQ SWAP1 DUP2 ISZERO SWAP2 PUSH2 0x1EA JUMPI JUMPDEST POP PUSH2 0xADE JUMP JUMPDEST MLOAD SWAP1 DUP2 MSTORE RETURN JUMPDEST SWAP1 POP PUSH2 0x1F4 PUSH2 0xA11 JUMP JUMPDEST SWAP1 SLOAD SWAP1 PUSH1 0x3 SHL SHR EQ PUSH0 PUSH2 0x1DE JUMP JUMPDEST POP POP CALLVALUE PUSH2 0x187 JUMPI DUP2 PUSH1 0x3 NOT CALLDATASIZE ADD SLT PUSH2 0x187 JUMPI PUSH1 0x8 SLOAD SWAP1 MLOAD PUSH1 0x1 PUSH1 0x1 PUSH1 0xA0 SHL SUB SWAP1 SWAP2 AND DUP2 MSTORE PUSH1 0x20 SWAP1 RETURN JUMPDEST POP POP CALLVALUE PUSH2 0x187 JUMPI DUP2 PUSH1 0x3 NOT CALLDATASIZE ADD SLT PUSH2 0x187 JUMPI PUSH1 0x20 SWAP2 SLOAD SWAP1 MLOAD SWAP1 DUP2 MSTORE RETURN JUMPDEST DUP4 DUP3 CALLVALUE PUSH2 0x187 JUMPI PUSH1 0x20 CALLDATASIZE PUSH1 0x3 NOT ADD SLT PUSH2 0x187 JUMPI CALLDATALOAD PUSH1 0x1 PUSH1 0x1 PUSH1 0xA0 SHL SUB DUP2 DUP2 AND SWAP2 DUP3 SWAP1 SUB PUSH2 0x117 JUMPI PUSH2 0x27E SWAP1 PUSH1 0x2 SLOAD AND CALLER EQ PUSH2 0xC5E JUMP JUMPDEST PUSH1 0x6 DUP1 SLOAD PUSH1 0x1 PUSH1 0x1 PUSH1 0xA0 SHL SUB NOT AND SWAP2 SWAP1 SWAP2 OR SWAP1 SSTORE DUP1 RETURN JUMPDEST POP SWAP2 PUSH1 0x20 SWAP3 DUP4 PUSH1 0x3 NOT CALLDATASIZE ADD SLT PUSH2 0x187 JUMPI PUSH1 0x5 SLOAD DUP2 CALLDATALOAD SWAP1 PUSH1 0x1 PUSH1 0x1 PUSH1 0xA0 SHL SUB SWAP1 DUP2 AND CALLER SUB PUSH2 0x3EF JUMPI DUP6 PUSH1 0x24 SWAP2 PUSH1 0x8 SLOAD AND DUP7 MLOAD SWAP3 DUP4 DUP1 SWAP3 PUSH4 0x3DE5599D PUSH1 0xE1 SHL DUP3 MSTORE ADDRESS DUP9 DUP4 ADD MSTORE CALLVALUE SWAP1 GAS CALL SWAP1 DUP2 ISZERO PUSH2 0x3E5 JUMPI DUP5 SWAP2 PUSH2 0x3AC JUMPI JUMPDEST POP ISZERO PUSH2 0x371 JUMPI DUP3 SLOAD PUSH1 0x1 PUSH1 0x40 SHL DUP2 LT ISZERO PUSH2 0x35E JUMPI DUP2 PUSH2 0x312 DUP3 PUSH1 0x1 PUSH2 0x32A SWAP5 ADD DUP8 SSTORE PUSH2 0x9E5 JUMP JUMPDEST SWAP1 SWAP2 SWAP1 DUP3 SLOAD SWAP1 PUSH1 0x3 SHL SWAP2 DUP3 SHL SWAP2 PUSH0 NOT SWAP1 SHL NOT AND OR SWAP1 SSTORE JUMP JUMPDEST DUP3 SLOAD PUSH0 NOT DUP2 ADD SWAP3 SWAP1 DUP4 GT PUSH2 0x34B JUMPI POP DUP3 MSTORE PUSH1 0x1 DUP5 MSTORE DUP3 DUP3 KECCAK256 SSTORE SLOAD SWAP1 MLOAD SWAP1 DUP2 MSTORE RETURN JUMPDEST PUSH4 0x4E487B71 PUSH1 0xE0 SHL DUP5 MSTORE PUSH1 0x11 SWAP1 MSTORE PUSH1 0x24 DUP4 REVERT JUMPDEST PUSH4 0x4E487B71 PUSH1 0xE0 SHL DUP5 MSTORE PUSH1 0x41 DUP4 MSTORE PUSH1 0x24 DUP5 REVERT JUMPDEST DUP4 MLOAD PUSH3 0x461BCD PUSH1 0xE5 SHL DUP2 MSTORE DUP1 DUP4 ADD DUP7 SWAP1 MSTORE PUSH1 0x15 PUSH1 0x24 DUP3 ADD MSTORE PUSH21 0x155C1AD9595C081C185E5B595B9D0819985A5B1959 PUSH1 0x5A SHL PUSH1 0x44 DUP3 ADD MSTORE PUSH1 0x64 SWAP1 REVERT JUMPDEST SWAP1 POP DUP6 DUP2 DUP2 RETURNDATASIZE DUP4 GT PUSH2 0x3DE JUMPI JUMPDEST PUSH2 0x3C3 DUP2 DUP4 PUSH2 0xAAF JUMP JUMPDEST DUP2 ADD SUB SLT PUSH2 0x3DA JUMPI PUSH2 0x3D4 SWAP1 PUSH2 0xAD1 JUMP JUMPDEST PUSH0 PUSH2 0x2EB JUMP JUMPDEST DUP4 DUP1 REVERT JUMPDEST POP RETURNDATASIZE PUSH2 0x3B9 JUMP JUMPDEST DUP6 MLOAD RETURNDATASIZE DUP7 DUP3 RETURNDATACOPY RETURNDATASIZE SWAP1 REVERT JUMPDEST DUP5 MLOAD PUSH3 0x461BCD PUSH1 0xE5 SHL DUP2 MSTORE DUP1 DUP5 ADD DUP8 SWAP1 MSTORE PUSH1 0x10 PUSH1 0x24 DUP3 ADD MSTORE PUSH16 0x4E6F7420746865207265676973747279 PUSH1 0x80 SHL PUSH1 0x44 DUP3 ADD MSTORE PUSH1 0x64 SWAP1 REVERT JUMPDEST DUP4 DUP3 CALLVALUE PUSH2 0x187 JUMPI PUSH1 0x20 CALLDATASIZE PUSH1 0x3 NOT ADD SLT PUSH2 0x187 JUMPI CALLDATALOAD PUSH1 0x1 PUSH1 0x1 PUSH1 0xA0 SHL SUB DUP2 DUP2 AND SWAP2 DUP3 SWAP1 SUB PUSH2 0x117 JUMPI PUSH2 0x45B SWAP1 PUSH1 0x2 SLOAD AND CALLER EQ PUSH2 0xC5E JUMP JUMPDEST PUSH1 0x5 DUP1 SLOAD PUSH1 0x1 PUSH1 0x1 PUSH1 0xA0 SHL SUB NOT AND SWAP2 SWAP1 SWAP2 OR SWAP1 SSTORE DUP1 RETURN JUMPDEST POP POP CALLVALUE PUSH2 0x187 JUMPI DUP2 PUSH1 0x3 NOT CALLDATASIZE ADD SLT PUSH2 0x187 JUMPI PUSH1 0x2 SLOAD SWAP1 MLOAD PUSH1 0x1 PUSH1 0x1 PUSH1 0xA0 SHL SUB SWAP1 SWAP2 AND DUP2 MSTORE PUSH1 0x20 SWAP1 RETURN JUMPDEST POP POP CALLVALUE PUSH2 0x187 JUMPI DUP2 PUSH1 0x3 NOT CALLDATASIZE ADD SLT PUSH2 0x187 JUMPI PUSH1 0x3 SLOAD SWAP1 MLOAD PUSH1 0x1 PUSH1 0x1 PUSH1 0xA0 SHL SUB SWAP1 SWAP2 AND DUP2 MSTORE PUSH1 0x20 SWAP1 RETURN JUMPDEST POP SWAP2 SWAP1 CALLVALUE PUSH2 0x187 JUMPI PUSH2 0x4D5 CALLDATASIZE PUSH2 0xA39 JUMP JUMPDEST POP POP PUSH1 0x60 SWAP2 DUP3 DUP2 SWAP5 DUP3 DUP4 SLOAD SWAP1 DUP2 PUSH2 0x53B JUMPI JUMPDEST POP POP POP SWAP4 SWAP2 SWAP1 DUP2 MLOAD SWAP5 DUP6 SWAP4 ISZERO ISZERO DUP5 MSTORE PUSH1 0x20 SWAP1 DUP4 DUP3 DUP7 ADD MSTORE DUP1 MLOAD DUP1 SWAP5 DUP7 ADD MSTORE DUP3 JUMPDEST DUP5 DUP2 LT PUSH2 0x525 JUMPI POP POP POP DUP3 DUP3 ADD DUP5 ADD MSTORE PUSH1 0x1F ADD PUSH1 0x1F NOT AND DUP2 ADD SUB ADD SWAP1 RETURN JUMPDEST DUP2 DUP2 ADD DUP4 ADD MLOAD DUP9 DUP3 ADD DUP9 ADD MSTORE DUP8 SWAP6 POP DUP3 ADD PUSH2 0x507 JUMP JUMPDEST DUP3 SLOAD PUSH1 0x1 PUSH1 0x1 PUSH1 0xA0 SHL SUB AND SWAP2 PUSH1 0x1 SWAP1 DUP7 DUP3 JUMPDEST DUP3 DUP2 LT PUSH2 0x617 JUMPI POP POP POP POP DUP1 ISZERO PUSH2 0x4E7 JUMPI SWAP1 SWAP3 POP DUP5 SWAP2 SWAP7 POP PUSH1 0x24 DUP3 MLOAD DUP1 SWAP5 DUP2 SWAP4 PUSH4 0x793C9C81 PUSH1 0xE1 SHL DUP4 MSTORE DUP11 DUP4 ADD MSTORE GAS STATICCALL SWAP1 DUP2 ISZERO PUSH2 0x60D JUMPI DUP3 SWAP1 DUP4 SWAP3 PUSH2 0x5D0 JUMPI JUMPDEST POP SWAP5 DUP4 MLOAD SWAP2 PUSH1 0x20 DUP4 ADD MSTORE PUSH1 0x20 DUP3 MSTORE DUP4 DUP3 ADD SWAP1 DUP3 DUP3 LT PUSH8 0xFFFFFFFFFFFFFFFF DUP4 GT OR PUSH2 0x5BD JUMPI POP DUP4 MSTORE PUSH0 DUP1 DUP1 PUSH2 0x4E7 JUMP JUMPDEST PUSH1 0x41 SWAP1 PUSH4 0x4E487B71 PUSH1 0xE0 SHL PUSH0 MSTORE MSTORE PUSH1 0x24 PUSH0 REVERT JUMPDEST DUP1 SWAP3 POP DUP5 DUP1 SWAP3 POP RETURNDATASIZE DUP4 GT PUSH2 0x606 JUMPI JUMPDEST PUSH2 0x5E9 DUP2 DUP4 PUSH2 0xAAF JUMP JUMPDEST DUP2 ADD SUB SLT PUSH2 0x187 JUMPI PUSH1 0x20 PUSH2 0x5FC DUP3 PUSH2 0xAD1 JUMP JUMPDEST SWAP2 ADD MLOAD SWAP1 PUSH0 PUSH2 0x58D JUMP JUMPDEST POP RETURNDATASIZE PUSH2 0x5DF JUMP JUMPDEST DUP4 MLOAD RETURNDATASIZE DUP5 DUP3 RETURNDATACOPY RETURNDATASIZE SWAP1 REVERT JUMPDEST PUSH2 0x620 DUP2 PUSH2 0x9E5 JUMP JUMPDEST SWAP1 SLOAD SWAP1 PUSH1 0x3 SHL SHR DUP11 MLOAD PUSH4 0x6A310CD1 PUSH1 0xE1 SHL DUP2 MSTORE DUP2 DUP10 DUP3 ADD MSTORE PUSH1 0x20 SWAP1 DUP2 DUP2 PUSH1 0x24 DUP2 DUP13 GAS STATICCALL SWAP2 DUP3 ISZERO PUSH2 0x6DA JUMPI DUP13 SWAP3 PUSH2 0x6A8 JUMPI JUMPDEST POP POP TIMESTAMP DUP2 GT ISZERO DUP1 PUSH2 0x696 JUMPI JUMPDEST PUSH2 0x686 JUMPI JUMPDEST POP POP PUSH0 NOT DUP2 EQ PUSH2 0x673 JUMPI DUP4 ADD PUSH2 0x54D JUMP JUMPDEST PUSH4 0x4E487B71 PUSH1 0xE0 SHL DUP10 MSTORE PUSH1 0x11 DUP8 MSTORE PUSH1 0x24 DUP10 REVERT JUMPDEST SWAP5 SWAP13 POP SWAP5 POP DUP12 SWAP4 SWAP2 POP PUSH0 DUP1 PUSH2 0x662 JUMP JUMPDEST POP DUP4 DUP2 GT ISZERO DUP1 PUSH2 0x65D JUMPI POP DUP4 ISZERO PUSH2 0x65D JUMP JUMPDEST SWAP1 DUP1 SWAP3 POP DUP2 RETURNDATASIZE DUP4 GT PUSH2 0x6D3 JUMPI JUMPDEST PUSH2 0x6BF DUP2 DUP4 PUSH2 0xAAF JUMP JUMPDEST DUP2 ADD SUB SLT PUSH2 0x6CF JUMPI MLOAD PUSH0 DUP1 PUSH2 0x651 JUMP JUMPDEST DUP11 DUP1 REVERT JUMPDEST POP RETURNDATASIZE PUSH2 0x6B5 JUMP JUMPDEST DUP14 MLOAD RETURNDATASIZE DUP15 DUP3 RETURNDATACOPY RETURNDATASIZE SWAP1 REVERT JUMPDEST DUP4 DUP3 CALLVALUE PUSH2 0x187 JUMPI PUSH1 0x20 CALLDATASIZE PUSH1 0x3 NOT ADD SLT PUSH2 0x187 JUMPI CALLDATALOAD PUSH1 0x1 PUSH1 0x1 PUSH1 0xA0 SHL SUB DUP2 DUP2 AND SWAP2 DUP3 SWAP1 SUB PUSH2 0x117 JUMPI PUSH2 0x71A SWAP1 PUSH1 0x2 SLOAD AND CALLER EQ PUSH2 0xC5E JUMP JUMPDEST PUSH1 0x8 DUP1 SLOAD PUSH1 0x1 PUSH1 0x1 PUSH1 0xA0 SHL SUB NOT AND SWAP2 SWAP1 SWAP2 OR SWAP1 SSTORE DUP1 RETURN JUMPDEST POP DUP3 SWAP1 CALLVALUE PUSH2 0x187 JUMPI PUSH2 0x742 CALLDATASIZE PUSH2 0xA39 JUMP JUMPDEST PUSH1 0x6 SLOAD SWAP2 SWAP5 SWAP2 PUSH1 0x1 PUSH1 0x1 PUSH1 0xA0 SHL SUB SWAP2 SWAP1 DUP3 AND CALLER SUB PUSH2 0x882 JUMPI PUSH1 0x20 DUP7 DUP3 DUP2 ADD SUB SLT PUSH2 0x87E JUMPI DUP6 CALLDATALOAD DUP6 DUP2 SLT ISZERO PUSH2 0x878 JUMPI PUSH1 0x1 PUSH1 0xFF SHL DUP2 EQ PUSH2 0x865 JUMPI DUP6 SUB SWAP6 JUMPDEST DUP3 DUP6 SLOAD AND DUP1 EXTCODESIZE ISZERO PUSH2 0x861 JUMPI SWAP1 DUP7 SWAP2 PUSH1 0x20 DUP4 PUSH1 0x44 DUP10 DUP8 DUP11 MLOAD SWAP9 DUP10 SWAP8 DUP9 SWAP7 DUP8 SWAP5 PUSH4 0x4585E33B PUSH1 0xE0 SHL DUP7 MSTORE DUP6 ADD MSTORE DUP2 PUSH1 0x24 DUP6 ADD MSTORE DUP5 DUP5 ADD CALLDATACOPY DUP2 DUP2 ADD DUP4 ADD DUP5 SWAP1 MSTORE PUSH1 0x1F ADD PUSH1 0x1F NOT AND DUP2 ADD SUB ADD SWAP3 GAS CALL DUP1 ISZERO PUSH2 0x857 JUMPI PUSH2 0x842 JUMPI JUMPDEST POP PUSH2 0x7E0 DUP5 SWAP6 PUSH2 0xB20 JUMP JUMPDEST PUSH1 0x5 SLOAD AND SWAP2 PUSH1 0x7 SLOAD DUP5 SLOAD SWAP4 DUP1 EXTCODESIZE ISZERO PUSH2 0x83E JUMPI DUP6 SWAP3 DUP4 PUSH1 0x44 SWAP3 DUP7 MLOAD SWAP8 DUP9 SWAP6 DUP7 SWAP5 PUSH4 0x2E6CFB91 PUSH1 0xE1 SHL DUP7 MSTORE DUP6 ADD MSTORE PUSH1 0x24 DUP5 ADD MSTORE GAS CALL SWAP1 DUP2 ISZERO PUSH2 0x835 JUMPI POP PUSH2 0x822 JUMPI POP RETURN JUMPDEST PUSH2 0x82B SWAP1 PUSH2 0xA87 JUMP JUMPDEST PUSH2 0x832 JUMPI DUP1 RETURN JUMPDEST DUP1 REVERT JUMPDEST MLOAD RETURNDATASIZE DUP5 DUP3 RETURNDATACOPY RETURNDATASIZE SWAP1 REVERT JUMPDEST DUP6 DUP1 REVERT JUMPDEST SWAP4 PUSH2 0x850 PUSH2 0x7E0 SWAP7 SWAP6 PUSH2 0xA87 JUMP JUMPDEST SWAP4 SWAP5 PUSH2 0x7D5 JUMP JUMPDEST DUP4 MLOAD RETURNDATASIZE DUP8 DUP3 RETURNDATACOPY RETURNDATASIZE SWAP1 REVERT JUMPDEST DUP7 DUP1 REVERT JUMPDEST PUSH4 0x4E487B71 PUSH1 0xE0 SHL DUP7 MSTORE PUSH1 0x11 DUP6 MSTORE PUSH1 0x24 DUP7 REVERT JUMPDEST SWAP6 PUSH2 0x77F JUMP JUMPDEST DUP5 DUP1 REVERT JUMPDEST DUP3 MLOAD PUSH3 0x461BCD PUSH1 0xE5 SHL DUP2 MSTORE PUSH1 0x20 DUP2 DUP7 ADD MSTORE PUSH1 0x1C PUSH1 0x24 DUP3 ADD MSTORE PUSH32 0x4E6F7420746865206175746F6D6174696F6E20666F7277617264657200000000 PUSH1 0x44 DUP3 ADD MSTORE PUSH1 0x64 SWAP1 REVERT JUMPDEST POP POP CALLVALUE PUSH2 0x187 JUMPI DUP2 PUSH1 0x3 NOT CALLDATASIZE ADD SLT PUSH2 0x187 JUMPI PUSH1 0x5 SLOAD SWAP1 MLOAD PUSH1 0x1 PUSH1 0x1 PUSH1 0xA0 SHL SUB SWAP1 SWAP2 AND DUP2 MSTORE PUSH1 0x20 SWAP1 RETURN JUMPDEST POP POP CALLVALUE PUSH2 0x187 JUMPI DUP2 PUSH1 0x3 NOT CALLDATASIZE ADD SLT PUSH2 0x187 JUMPI PUSH1 0x6 SLOAD SWAP1 MLOAD PUSH1 0x1 PUSH1 0x1 PUSH1 0xA0 SHL SUB SWAP1 SWAP2 AND DUP2 MSTORE PUSH1 0x20 SWAP1 RETURN JUMPDEST POP SWAP1 CALLVALUE PUSH2 0x117 JUMPI PUSH1 0x20 CALLDATASIZE PUSH1 0x3 NOT ADD SLT PUSH2 0x117 JUMPI PUSH1 0x2 SLOAD CALLER PUSH1 0x1 PUSH1 0x1 PUSH1 0xA0 SHL SUB SWAP2 DUP3 AND EQ SWAP1 DUP2 ISZERO PUSH2 0x98A JUMPI JUMPDEST POP ISZERO PUSH2 0x956 JUMPI POP PUSH2 0x953 SWAP1 CALLDATALOAD PUSH2 0xB20 JUMP JUMPDEST DUP1 RETURN JUMPDEST SWAP1 PUSH1 0x20 PUSH1 0x64 SWAP3 MLOAD SWAP2 PUSH3 0x461BCD PUSH1 0xE5 SHL DUP4 MSTORE DUP3 ADD MSTORE PUSH1 0xE PUSH1 0x24 DUP3 ADD MSTORE PUSH14 0x139BDD08185D5D1A1BDC9A5E9959 PUSH1 0x92 SHL PUSH1 0x44 DUP3 ADD MSTORE REVERT JUMPDEST SWAP1 POP DUP3 SLOAD AND CALLER EQ PUSH0 PUSH2 0x942 JUMP JUMPDEST POP CALLVALUE PUSH2 0x117 JUMPI PUSH1 0x20 CALLDATASIZE PUSH1 0x3 NOT ADD SLT PUSH2 0x117 JUMPI CALLDATALOAD SWAP2 DUP1 SLOAD DUP4 LT ISZERO PUSH2 0x832 JUMPI POP PUSH2 0x146 PUSH1 0x20 SWAP3 PUSH2 0x9E5 JUMP JUMPDEST SWAP3 POP POP CALLVALUE PUSH2 0x117 JUMPI DUP3 PUSH1 0x3 NOT CALLDATASIZE ADD SLT PUSH2 0x117 JUMPI SLOAD PUSH1 0x1 PUSH1 0x1 PUSH1 0xA0 SHL SUB AND DUP2 MSTORE PUSH1 0x20 SWAP2 POP RETURN JUMPDEST SWAP1 PUSH0 SWAP2 DUP3 SLOAD DUP2 LT ISZERO PUSH2 0x9FD JUMPI DUP3 DUP1 MSTORE PUSH1 0x20 DUP4 KECCAK256 ADD SWAP2 SWAP1 JUMP JUMPDEST PUSH4 0x4E487B71 PUSH1 0xE0 SHL DUP4 MSTORE PUSH1 0x32 PUSH1 0x4 MSTORE PUSH1 0x24 DUP4 REVERT JUMPDEST PUSH0 SWAP1 DUP2 SLOAD ISZERO PUSH2 0xA25 JUMPI DUP2 DUP1 MSTORE PUSH1 0x20 DUP3 KECCAK256 SWAP2 SWAP1 JUMP JUMPDEST PUSH4 0x4E487B71 PUSH1 0xE0 SHL DUP3 MSTORE PUSH1 0x32 PUSH1 0x4 MSTORE PUSH1 0x24 DUP3 REVERT JUMPDEST SWAP1 PUSH1 0x20 PUSH1 0x3 NOT DUP4 ADD SLT PUSH2 0xA83 JUMPI PUSH1 0x4 CALLDATALOAD PUSH8 0xFFFFFFFFFFFFFFFF SWAP3 DUP4 DUP3 GT PUSH2 0xA83 JUMPI DUP1 PUSH1 0x23 DUP4 ADD SLT ISZERO PUSH2 0xA83 JUMPI DUP2 PUSH1 0x4 ADD CALLDATALOAD SWAP4 DUP5 GT PUSH2 0xA83 JUMPI PUSH1 0x24 DUP5 DUP4 ADD ADD GT PUSH2 0xA83 JUMPI PUSH1 0x24 ADD SWAP2 SWAP1 JUMP JUMPDEST PUSH0 DUP1 REVERT JUMPDEST PUSH8 0xFFFFFFFFFFFFFFFF DUP2 GT PUSH2 0xA9B JUMPI PUSH1 0x40 MSTORE JUMP JUMPDEST PUSH4 0x4E487B71 PUSH1 0xE0 SHL PUSH0 MSTORE PUSH1 0x41 PUSH1 0x4 MSTORE PUSH1 0x24 PUSH0 REVERT JUMPDEST SWAP1 PUSH1 0x1F DUP1 NOT SWAP2 ADD AND DUP2 ADD SWAP1 DUP2 LT PUSH8 0xFFFFFFFFFFFFFFFF DUP3 GT OR PUSH2 0xA9B JUMPI PUSH1 0x40 MSTORE JUMP JUMPDEST MLOAD SWAP1 DUP2 ISZERO ISZERO DUP3 SUB PUSH2 0xA83 JUMPI JUMP JUMPDEST ISZERO PUSH2 0xAE5 JUMPI JUMP JUMPDEST PUSH1 0x40 MLOAD PUSH3 0x461BCD PUSH1 0xE5 SHL DUP2 MSTORE PUSH1 0x20 PUSH1 0x4 DUP3 ADD MSTORE PUSH1 0x13 PUSH1 0x24 DUP3 ADD MSTORE PUSH19 0x141BDCDD08191BD95CC81B9BDD08195E1A5CDD PUSH1 0x6A SHL PUSH1 0x44 DUP3 ADD MSTORE PUSH1 0x64 SWAP1 REVERT JUMPDEST PUSH0 DUP2 DUP2 MSTORE PUSH1 0x1 PUSH1 0x20 MSTORE PUSH1 0x40 DUP1 DUP3 KECCAK256 SLOAD SWAP1 SWAP2 PUSH0 NOT SWAP2 DUP3 DUP2 EQ DUP1 ISZERO SWAP1 PUSH2 0xC42 JUMPI JUMPDEST PUSH2 0xB48 SWAP1 PUSH2 0xADE JUMP JUMPDEST DUP2 SLOAD DUP4 DUP2 ADD SWAP1 DUP2 GT PUSH2 0xC2E JUMPI DUP1 PUSH2 0xB5F DUP7 SWAP3 PUSH2 0x9E5 JUMP JUMPDEST SWAP1 SLOAD SWAP1 PUSH1 0x3 SHL SHR SWAP1 DUP4 SUB PUSH2 0xBDF JUMPI JUMPDEST POP POP POP DUP1 SLOAD DUP1 ISZERO PUSH2 0xBCB JUMPI SWAP2 DUP4 PUSH1 0x20 SWAP5 SWAP3 DUP3 PUSH32 0x4323787DC7B9146E99DA5553DEE506C8D881E5DA3D09774F8B421274287532BE SWAP8 SWAP6 ADD PUSH2 0xBAD DUP2 PUSH2 0x9E5 JUMP JUMPDEST DUP6 DUP3 SLOAD SWAP2 PUSH1 0x3 SHL SHL NOT AND SWAP1 SSTORE DUP2 SSTORE DUP5 DUP2 MSTORE PUSH1 0x1 DUP7 MSTORE KECCAK256 SSTORE MLOAD SWAP1 DUP2 MSTORE LOG1 JUMP JUMPDEST PUSH4 0x4E487B71 PUSH1 0xE0 SHL DUP3 MSTORE PUSH1 0x31 PUSH1 0x4 MSTORE PUSH1 0x24 DUP3 REVERT JUMPDEST DUP3 PUSH2 0xC0E DUP3 PUSH2 0x312 PUSH32 0xF041F52DB3FD2F56A979D9DD319AA6A6E399C198410349CF154EB4B4568D7DAA SWAP7 PUSH2 0x9E5 JUMP JUMPDEST DUP2 DUP6 MSTORE PUSH1 0x1 PUSH1 0x20 MSTORE DUP1 DUP4 DUP7 KECCAK256 SSTORE DUP3 MLOAD SWAP2 DUP3 MSTORE PUSH1 0x20 DUP3 ADD MSTORE LOG1 PUSH0 DUP4 DUP2 PUSH2 0xB6E JUMP JUMPDEST PUSH4 0x4E487B71 PUSH1 0xE0 SHL DUP4 MSTORE PUSH1 0x11 PUSH1 0x4 MSTORE PUSH1 0x24 DUP4 REVERT JUMPDEST POP PUSH2 0xB48 DUP6 PUSH2 0xC4F PUSH2 0xA11 JUMP JUMPDEST SWAP1 SLOAD SWAP1 PUSH1 0x3 SHL SHR EQ SWAP1 POP PUSH2 0xB3F JUMP JUMPDEST ISZERO PUSH2 0xC65 JUMPI JUMP JUMPDEST PUSH1 0x40 MLOAD PUSH3 0x461BCD PUSH1 0xE5 SHL DUP2 MSTORE PUSH1 0x20 PUSH1 0x4 DUP3 ADD MSTORE PUSH1 0x16 PUSH1 0x24 DUP3 ADD MSTORE PUSH22 0x2737BA103A34329031B7B73A3930B1BA1037BBB732B9 PUSH1 0x51 SHL PUSH1 0x44 DUP3 ADD MSTORE PUSH1 0x64 SWAP1 REVERT INVALID LOG2 PUSH5 0x6970667358 0x22 SLT KECCAK256 PUSH21 0x49D8B05D94B0BDC24ACE21CF5DE0B2428854CD5FB8 0xE4 RETURNDATASIZE CALLVALUE CODECOPY SELFDESTRUCT 0xD3 0xBA SHL SWAP7 PUSH18 0x64736F6C6343000814003300000000000000 "},"methodIdentifiers":{"appendToLane(uint256)":"a993983b","automationForwarder()":"3b2786cb","checkUpkeep(bytes)":"6e04ff0d","fundContract()":"bd097e21","getPostByIndex(uint256)":"fb35005c","getPostCount()":"bcc95407","getpostIndex(uint256)":"d670d4a9","laneId()":"da5c2dfc","laneRegistryContract()":"3eab6bac","owner()":"8da5cb5b","performUpkeep(bytes)":"4585e33b","postConsensus()":"025f9d63","postIndex(uint256)":"fc68e09f","posts(uint256)":"0b1e7f83","registry()":"7b103999","removePost(uint256)":"1721ed48","setForwarder(address)":"b9998a24","setFundContract(address)":"59144baa","setRegistry(address)":"a91ee0dc"}}}}}