{"contracts/MockAutomationContract.sol":{"MockAutomationContract":{"abi":[{"inputs":[{"internalType":"address","name":"_linkTokenAddress","type":"address"}],"stateMutability":"nonpayable","type":"constructor"},{"anonymous":false,"inputs":[{"indexed":false,"internalType":"uint256","name":"upkeepId","type":"uint256"},{"indexed":false,"internalType":"uint256","name":"amount","type":"uint256"}],"name":"FundsAdded","type":"event"},{"inputs":[{"internalType":"uint256","name":"upkeepId","type":"uint256"},{"internalType":"uint256","name":"amount","type":"uint256"}],"name":"addFunds","outputs":[],"stateMutability":"nonpayable","type":"function"}],"evm":{"bytecode":{"linkReferences":{},"object":"60803461007357601f61022438819003918201601f19168301916001600160401b038311848410176100775780849260209460405283398101031261007357516001600160a01b03811690819003610073575f80546001600160a01b031916919091179055604051610198908161008c8239f35b5f80fd5b634e487b7160e01b5f52604160045260245ffdfe608060408181526004361015610013575f80fd5b5f90813560e01c6385f4525014610028575f80fd5b3461015e578060031936011261015e57816024359360018060a01b038254166323b872dd60e01b82523360048301523060248301528560448301528160648160209586945af19081156101515784916100ec575b50156100b4577ff5e4934928a1e45d88c7a5aa2661fe0a801ca5017922e15122d74f1880155e1a92938251916004358352820152a180f35b606491519062461bcd60e51b825260048201526013602482015272119959481d1c985b9cd9995c8819985a5b1959606a1b6044820152fd5b9050813d831161014a575b601f8101601f1916820167ffffffffffffffff811183821017610136578391839186528101031261013257518015158103610132575f61007c565b8380fd5b634e487b7160e01b86526041600452602486fd5b503d6100f7565b50505051903d90823e3d90fd5b5080fdfea264697066735822122098df8f618160ab0f50f9e352ad5dc1f55c0d7fc831b75323abb30f7262904eed64736f6c63430008140033","opcodes":"PUSH1 0x80 CALLVALUE PUSH2 0x73 JUMPI PUSH1 0x1F PUSH2 0x224 CODESIZE DUP2 SWAP1 SUB SWAP2 DUP3 ADD PUSH1 0x1F NOT AND DUP4 ADD SWAP2 PUSH1 0x1 PUSH1 0x1 PUSH1 0x40 SHL SUB DUP4 GT DUP5 DUP5 LT OR PUSH2 0x77 JUMPI DUP1 DUP5 SWAP3 PUSH1 0x20 SWAP5 PUSH1 0x40 MSTORE DUP4 CODECOPY DUP2 ADD SUB SLT PUSH2 0x73 JUMPI MLOAD PUSH1 0x1 PUSH1 0x1 PUSH1 0xA0 SHL SUB DUP2 AND SWAP1 DUP2 SWAP1 SUB PUSH2 0x73 JUMPI PUSH0 DUP1 SLOAD PUSH1 0x1 PUSH1 0x1 PUSH1 0xA0 SHL SUB NOT AND SWAP2 SWAP1 SWAP2 OR SWAP1 SSTORE PUSH1 0x40 MLOAD PUSH2 0x198 SWAP1 DUP2 PUSH2 0x8C DUP3 CODECOPY RETURN JUMPDEST PUSH0 DUP1 REVERT JUMPDEST PUSH4 0x4E487B71 PUSH1 0xE0 SHL PUSH0 MSTORE PUSH1 0x41 PUSH1 0x4 MSTORE PUSH1 0x24 PUSH0 REVERT INVALID PUSH1 0x80 PUSH1 0x40 DUP2 DUP2 MSTORE PUSH1 0x4 CALLDATASIZE LT ISZERO PUSH2 0x13 JUMPI PUSH0 DUP1 REVERT JUMPDEST PUSH0 SWAP1 DUP2 CALLDATALOAD PUSH1 0xE0 SHR PUSH4 0x85F45250 EQ PUSH2 0x28 JUMPI PUSH0 DUP1 REVERT JUMPDEST CALLVALUE PUSH2 0x15E JUMPI DUP1 PUSH1 0x3 NOT CALLDATASIZE ADD SLT PUSH2 0x15E JUMPI DUP2 PUSH1 0x24 CALLDATALOAD SWAP4 PUSH1 0x1 DUP1 PUSH1 0xA0 SHL SUB DUP3 SLOAD AND PUSH4 0x23B872DD PUSH1 0xE0 SHL DUP3 MSTORE CALLER PUSH1 0x4 DUP4 ADD MSTORE ADDRESS PUSH1 0x24 DUP4 ADD MSTORE DUP6 PUSH1 0x44 DUP4 ADD MSTORE DUP2 PUSH1 0x64 DUP2 PUSH1 0x20 SWAP6 DUP7 SWAP5 GAS CALL SWAP1 DUP2 ISZERO PUSH2 0x151 JUMPI DUP5 SWAP2 PUSH2 0xEC JUMPI JUMPDEST POP ISZERO PUSH2 0xB4 JUMPI PUSH32 0xF5E4934928A1E45D88C7A5AA2661FE0A801CA5017922E15122D74F1880155E1A SWAP3 SWAP4 DUP3 MLOAD SWAP2 PUSH1 0x4 CALLDATALOAD DUP4 MSTORE DUP3 ADD MSTORE LOG1 DUP1 RETURN JUMPDEST PUSH1 0x64 SWAP2 MLOAD SWAP1 PUSH3 0x461BCD PUSH1 0xE5 SHL DUP3 MSTORE PUSH1 0x4 DUP3 ADD MSTORE PUSH1 0x13 PUSH1 0x24 DUP3 ADD MSTORE PUSH19 0x119959481D1C985B9CD9995C8819985A5B1959 PUSH1 0x6A SHL PUSH1 0x44 DUP3 ADD MSTORE REVERT JUMPDEST SWAP1 POP DUP2 RETURNDATASIZE DUP4 GT PUSH2 0x14A JUMPI JUMPDEST PUSH1 0x1F DUP2 ADD PUSH1 0x1F NOT AND DUP3 ADD PUSH8 0xFFFFFFFFFFFFFFFF DUP2 GT DUP4 DUP3 LT OR PUSH2 0x136 JUMPI DUP4 SWAP2 DUP4 SWAP2 DUP7 MSTORE DUP2 ADD SUB SLT PUSH2 0x132 JUMPI MLOAD DUP1 ISZERO ISZERO DUP2 SUB PUSH2 0x132 JUMPI PUSH0 PUSH2 0x7C JUMP JUMPDEST DUP4 DUP1 REVERT JUMPDEST PUSH4 0x4E487B71 PUSH1 0xE0 SHL DUP7 MSTORE PUSH1 0x41 PUSH1 0x4 MSTORE PUSH1 0x24 DUP7 REVERT JUMPDEST POP RETURNDATASIZE PUSH2 0xF7 JUMP JUMPDEST POP POP POP MLOAD SWAP1 RETURNDATASIZE SWAP1 DUP3 RETURNDATACOPY RETURNDATASIZE SWAP1 REVERT JUMPDEST POP DUP1 REVERT INVALID LOG2 PUSH5 0x6970667358 0x22 SLT KECCAK256 SWAP9 0xDF DUP16 PUSH2 0x8160 0xAB 0xF POP 0xF9 0xE3 MSTORE 0xAD 0x5D 0xC1 CREATE2 0x5C 0xD PUSH32 0xC831B75323ABB30F7262904EED64736F6C634300081400330000000000000000 "},"methodIdentifiers":{"addFunds(uint256,uint256)":"85f45250"}}}}}