{"contracts/learntgehterArticles.sol":{"learntgetherArticles":{"abi":[{"inputs":[{"internalType":"address","name":"_SubjectsContract","type":"address"},{"internalType":"address","name":"_ReviewersContract","type":"address"},{"internalType":"address","name":"_automationContract","type":"address"},{"internalType":"address","name":"_linkTokenAddress","type":"address"},{"internalType":"uint256","name":"_fee","type":"uint256"}],"stateMutability":"nonpayable","type":"constructor"},{"anonymous":false,"inputs":[{"indexed":false,"internalType":"uint256","name":"articleId","type":"uint256"},{"indexed":false,"internalType":"uint256","name":"index","type":"uint256"}],"name":"ActiveReviewIndex","type":"event"},{"anonymous":false,"inputs":[{"indexed":true,"internalType":"address","name":"owner","type":"address"},{"indexed":true,"internalType":"address","name":"approved","type":"address"},{"indexed":true,"internalType":"uint256","name":"tokenId","type":"uint256"}],"name":"Approval","type":"event"},{"anonymous":false,"inputs":[{"indexed":true,"internalType":"address","name":"owner","type":"address"},{"indexed":true,"internalType":"address","name":"operator","type":"address"},{"indexed":false,"internalType":"bool","name":"approved","type":"bool"}],"name":"ApprovalForAll","type":"event"},{"anonymous":false,"inputs":[{"indexed":true,"internalType":"uint256","name":"articleId","type":"uint256"},{"indexed":true,"internalType":"address","name":"authorAddress","type":"address"},{"indexed":false,"internalType":"string","name":"authorName","type":"string"},{"indexed":false,"internalType":"string","name":"title","type":"string"},{"indexed":false,"internalType":"string","name":"subjectName","type":"string"},{"indexed":false,"internalType":"string","name":"consensousType","type":"string"},{"indexed":false,"internalType":"string","name":"ipfsHash","type":"string"},{"indexed":false,"internalType":"string","name":"description","type":"string"}],"name":"ArticleMinted","type":"event"},{"anonymous":false,"inputs":[{"indexed":true,"internalType":"uint256","name":"articleId","type":"uint256"},{"indexed":false,"internalType":"string","name":"newConsensus","type":"string"}],"name":"ConsensusUpdated","type":"event"},{"anonymous":false,"inputs":[{"indexed":false,"internalType":"uint256","name":"articleId","type":"uint256"},{"indexed":false,"internalType":"string","name":"keyword","type":"string"}],"name":"Keywords","type":"event"},{"anonymous":false,"inputs":[{"indexed":true,"internalType":"address","name":"previousOwner","type":"address"},{"indexed":true,"internalType":"address","name":"newOwner","type":"address"}],"name":"OwnershipTransferred","type":"event"},{"anonymous":false,"inputs":[{"indexed":false,"internalType":"uint256","name":"reviewId","type":"uint256"},{"indexed":true,"internalType":"uint256","name":"articleId","type":"uint256"},{"indexed":true,"internalType":"address","name":"reviewer","type":"address"},{"indexed":false,"internalType":"uint256","name":"consensus","type":"uint256"},{"indexed":false,"internalType":"string","name":"consensousType","type":"string"},{"indexed":false,"internalType":"uint256","name":"creds","type":"uint256"},{"indexed":false,"internalType":"string","name":"ipfsHash","type":"string"}],"name":"ReviewSubmitted","type":"event"},{"anonymous":false,"inputs":[{"indexed":true,"internalType":"address","name":"from","type":"address"},{"indexed":true,"internalType":"address","name":"to","type":"address"},{"indexed":true,"internalType":"uint256","name":"tokenId","type":"uint256"}],"name":"Transfer","type":"event"},{"inputs":[{"internalType":"uint256","name":"","type":"uint256"}],"name":"ActiveReviews","outputs":[{"internalType":"uint256","name":"","type":"uint256"}],"stateMutability":"view","type":"function"},{"inputs":[{"internalType":"uint256","name":"","type":"uint256"}],"name":"ActiveReviewsIndexes","outputs":[{"internalType":"uint256","name":"","type":"uint256"}],"stateMutability":"view","type":"function"},{"inputs":[],"name":"AutomationContract","outputs":[{"internalType":"contract ChainlinkAutomationInterface","name":"","type":"address"}],"stateMutability":"view","type":"function"},{"inputs":[],"name":"ReviewersContract","outputs":[{"internalType":"contract learntgetherReviewersInterface","name":"","type":"address"}],"stateMutability":"view","type":"function"},{"inputs":[],"name":"SubjectsContract","outputs":[{"internalType":"contract learntgetherSubjectsInterface","name":"","type":"address"}],"stateMutability":"view","type":"function"},{"inputs":[{"internalType":"uint256","name":"_articleId","type":"uint256"},{"internalType":"string","name":"_keyword","type":"string"}],"name":"addKeyword","outputs":[],"stateMutability":"nonpayable","type":"function"},{"inputs":[{"internalType":"address","name":"to","type":"address"},{"internalType":"uint256","name":"tokenId","type":"uint256"}],"name":"approve","outputs":[],"stateMutability":"nonpayable","type":"function"},{"inputs":[{"internalType":"uint256","name":"","type":"uint256"},{"internalType":"uint256","name":"","type":"uint256"}],"name":"articleReviews","outputs":[{"internalType":"uint256","name":"","type":"uint256"}],"stateMutability":"view","type":"function"},{"inputs":[{"internalType":"uint256","name":"","type":"uint256"}],"name":"articles","outputs":[{"internalType":"string","name":"ipfsHash","type":"string"},{"internalType":"string","name":"title","type":"string"},{"internalType":"address","name":"authorAddress","type":"address"},{"internalType":"string","name":"authorName","type":"string"},{"internalType":"string","name":"description","type":"string"},{"internalType":"string","name":"subjectName","type":"string"},{"internalType":"string","name":"consensousType","type":"string"},{"internalType":"uint256","name":"timestamp","type":"uint256"},{"internalType":"uint256","name":"reviewTime","type":"uint256"}],"stateMutability":"view","type":"function"},{"inputs":[{"internalType":"address","name":"owner","type":"address"}],"name":"balanceOf","outputs":[{"internalType":"uint256","name":"","type":"uint256"}],"stateMutability":"view","type":"function"},{"inputs":[{"internalType":"bytes","name":"","type":"bytes"}],"name":"checkUpKeep","outputs":[{"internalType":"bool","name":"upkeepNeeded","type":"bool"},{"internalType":"bytes","name":"performData","type":"bytes"}],"stateMutability":"view","type":"function"},{"inputs":[],"name":"getActiveReviews","outputs":[{"internalType":"uint256[]","name":"","type":"uint256[]"}],"stateMutability":"view","type":"function"},{"inputs":[{"internalType":"uint256","name":"_articleId","type":"uint256"}],"name":"getActiveReviewsIndex","outputs":[{"internalType":"uint256","name":"","type":"uint256"}],"stateMutability":"view","type":"function"},{"inputs":[],"name":"getActiveReviewsLength","outputs":[{"internalType":"uint256","name":"","type":"uint256"}],"stateMutability":"view","type":"function"},{"inputs":[{"internalType":"uint256","name":"tokenId","type":"uint256"}],"name":"getApproved","outputs":[{"internalType":"address","name":"","type":"address"}],"stateMutability":"view","type":"function"},{"inputs":[{"internalType":"string","name":"_subjectName","type":"string"},{"internalType":"string","name":"_ipfsHash","type":"string"}],"name":"getArticleByHash","outputs":[{"components":[{"internalType":"string","name":"ipfsHash","type":"string"},{"internalType":"string","name":"title","type":"string"},{"internalType":"address","name":"authorAddress","type":"address"},{"internalType":"string","name":"authorName","type":"string"},{"internalType":"string","name":"description","type":"string"},{"internalType":"string","name":"subjectName","type":"string"},{"internalType":"string","name":"consensousType","type":"string"},{"internalType":"uint256","name":"timestamp","type":"uint256"},{"internalType":"uint256","name":"reviewTime","type":"uint256"}],"internalType":"struct learntgetherArticles.Article","name":"","type":"tuple"}],"stateMutability":"view","type":"function"},{"inputs":[{"internalType":"uint256","name":"_tokenId","type":"uint256"}],"name":"getArticleConsesous","outputs":[{"internalType":"string","name":"consensus","type":"string"}],"stateMutability":"view","type":"function"},{"inputs":[{"internalType":"string","name":"_subjectName","type":"string"},{"internalType":"string","name":"_ipfsHash","type":"string"}],"name":"getArticleIdByHash","outputs":[{"internalType":"uint256","name":"","type":"uint256"}],"stateMutability":"view","type":"function"},{"inputs":[{"internalType":"uint256","name":"_articleId","type":"uint256"}],"name":"getArticleReviews","outputs":[{"internalType":"uint256[]","name":"","type":"uint256[]"}],"stateMutability":"view","type":"function"},{"inputs":[{"internalType":"uint256","name":"_reviewId","type":"uint256"}],"name":"getReview","outputs":[{"components":[{"internalType":"address","name":"reviewer","type":"address"},{"internalType":"string","name":"ipfsHash","type":"string"},{"internalType":"uint256","name":"consensous","type":"uint256"},{"internalType":"string","name":"consensousType","type":"string"},{"internalType":"uint256","name":"creds","type":"uint256"}],"internalType":"struct learntgetherArticles.Review","name":"","type":"tuple"}],"stateMutability":"view","type":"function"},{"inputs":[{"internalType":"uint256","name":"_reviewid","type":"uint256"}],"name":"getReviewConsenous","outputs":[{"internalType":"uint256","name":"consensous","type":"uint256"},{"internalType":"uint256","name":"creds","type":"uint256"}],"stateMutability":"view","type":"function"},{"inputs":[{"internalType":"uint256","name":"_articleId","type":"uint256"}],"name":"getReviewsForArticle","outputs":[{"internalType":"uint256[]","name":"","type":"uint256[]"}],"stateMutability":"view","type":"function"},{"inputs":[{"internalType":"uint256","name":"","type":"uint256"},{"internalType":"address","name":"","type":"address"}],"name":"hasReviewed","outputs":[{"internalType":"bool","name":"","type":"bool"}],"stateMutability":"view","type":"function"},{"inputs":[],"name":"incrementToken","outputs":[],"stateMutability":"nonpayable","type":"function"},{"inputs":[{"internalType":"string","name":"","type":"string"},{"internalType":"string","name":"","type":"string"}],"name":"ipfsHashToTokenId","outputs":[{"internalType":"uint256","name":"","type":"uint256"}],"stateMutability":"view","type":"function"},{"inputs":[{"internalType":"address","name":"owner","type":"address"},{"internalType":"address","name":"operator","type":"address"}],"name":"isApprovedForAll","outputs":[{"internalType":"bool","name":"","type":"bool"}],"stateMutability":"view","type":"function"},{"inputs":[],"name":"maxReviews","outputs":[{"internalType":"uint256","name":"","type":"uint256"}],"stateMutability":"view","type":"function"},{"inputs":[{"internalType":"string","name":"_ipfsHash","type":"string"},{"internalType":"string","name":"_title","type":"string"},{"internalType":"string","name":"_authorName","type":"string"},{"internalType":"string","name":"_description","type":"string"},{"internalType":"string","name":"_subjectName","type":"string"}],"name":"mintArticle","outputs":[{"internalType":"uint256","name":"","type":"uint256"}],"stateMutability":"nonpayable","type":"function"},{"inputs":[],"name":"name","outputs":[{"internalType":"string","name":"","type":"string"}],"stateMutability":"view","type":"function"},{"inputs":[],"name":"openVoteTime","outputs":[{"internalType":"uint256","name":"","type":"uint256"}],"stateMutability":"view","type":"function"},{"inputs":[],"name":"owner","outputs":[{"internalType":"address","name":"","type":"address"}],"stateMutability":"view","type":"function"},{"inputs":[{"internalType":"uint256","name":"tokenId","type":"uint256"}],"name":"ownerOf","outputs":[{"internalType":"address","name":"","type":"address"}],"stateMutability":"view","type":"function"},{"inputs":[{"internalType":"bytes","name":"_performData","type":"bytes"}],"name":"performUpkeep","outputs":[],"stateMutability":"nonpayable","type":"function"},{"inputs":[],"name":"proposalFeeInLink","outputs":[{"internalType":"uint256","name":"","type":"uint256"}],"stateMutability":"view","type":"function"},{"inputs":[],"name":"renounceOwnership","outputs":[],"stateMutability":"nonpayable","type":"function"},{"inputs":[],"name":"reviewCounter","outputs":[{"internalType":"uint256","name":"","type":"uint256"}],"stateMutability":"view","type":"function"},{"inputs":[{"internalType":"uint256","name":"","type":"uint256"}],"name":"reviews","outputs":[{"internalType":"address","name":"reviewer","type":"address"},{"internalType":"string","name":"ipfsHash","type":"string"},{"internalType":"uint256","name":"consensous","type":"uint256"},{"internalType":"string","name":"consensousType","type":"string"},{"internalType":"uint256","name":"creds","type":"uint256"}],"stateMutability":"view","type":"function"},{"inputs":[{"internalType":"address","name":"from","type":"address"},{"internalType":"address","name":"to","type":"address"},{"internalType":"uint256","name":"tokenId","type":"uint256"}],"name":"safeTransferFrom","outputs":[],"stateMutability":"nonpayable","type":"function"},{"inputs":[{"internalType":"address","name":"from","type":"address"},{"internalType":"address","name":"to","type":"address"},{"internalType":"uint256","name":"tokenId","type":"uint256"},{"internalType":"bytes","name":"_data","type":"bytes"}],"name":"safeTransferFrom","outputs":[],"stateMutability":"nonpayable","type":"function"},{"inputs":[{"internalType":"address","name":"operator","type":"address"},{"internalType":"bool","name":"approved","type":"bool"}],"name":"setApprovalForAll","outputs":[],"stateMutability":"nonpayable","type":"function"},{"inputs":[{"internalType":"address","name":"_contractAddress","type":"address"}],"name":"setAutomationRegistry","outputs":[],"stateMutability":"nonpayable","type":"function"},{"inputs":[{"internalType":"uint256","name":"_feePrice","type":"uint256"}],"name":"setFee","outputs":[],"stateMutability":"nonpayable","type":"function"},{"inputs":[{"internalType":"uint256","name":"_maxreviews","type":"uint256"}],"name":"setMaxReviews","outputs":[],"stateMutability":"nonpayable","type":"function"},{"inputs":[{"internalType":"address","name":"_contractAddress","type":"address"}],"name":"setReviewersContract","outputs":[],"stateMutability":"nonpayable","type":"function"},{"inputs":[{"internalType":"address","name":"_contractAddress","type":"address"}],"name":"setSubjectsContract","outputs":[],"stateMutability":"nonpayable","type":"function"},{"inputs":[{"internalType":"uint256","name":"_upkeepId","type":"uint256"}],"name":"setUpkkepId","outputs":[],"stateMutability":"nonpayable","type":"function"},{"inputs":[{"internalType":"address","name":"_contractAddress","type":"address"}],"name":"setV2Contract","outputs":[],"stateMutability":"nonpayable","type":"function"},{"inputs":[{"internalType":"string[]","name":"_deafultArray","type":"string[]"}],"name":"setdefaultConsenousTypes","outputs":[],"stateMutability":"nonpayable","type":"function"},{"inputs":[{"internalType":"uint256","name":"_articleId","type":"uint256"},{"internalType":"string","name":"_ipfsHash","type":"string"},{"internalType":"uint256","name":"_consensous","type":"uint256"}],"name":"submitReview","outputs":[],"stateMutability":"nonpayable","type":"function"},{"inputs":[{"internalType":"bytes4","name":"interfaceId","type":"bytes4"}],"name":"supportsInterface","outputs":[{"internalType":"bool","name":"","type":"bool"}],"stateMutability":"view","type":"function"},{"inputs":[],"name":"symbol","outputs":[{"internalType":"string","name":"","type":"string"}],"stateMutability":"view","type":"function"},{"inputs":[{"internalType":"uint256","name":"index","type":"uint256"}],"name":"tokenByIndex","outputs":[{"internalType":"uint256","name":"","type":"uint256"}],"stateMutability":"view","type":"function"},{"inputs":[{"internalType":"address","name":"owner","type":"address"},{"internalType":"uint256","name":"index","type":"uint256"}],"name":"tokenOfOwnerByIndex","outputs":[{"internalType":"uint256","name":"","type":"uint256"}],"stateMutability":"view","type":"function"},{"inputs":[{"internalType":"uint256","name":"tokenId","type":"uint256"}],"name":"tokenURI","outputs":[{"internalType":"string","name":"","type":"string"}],"stateMutability":"view","type":"function"},{"inputs":[],"name":"totalSupply","outputs":[{"internalType":"uint256","name":"","type":"uint256"}],"stateMutability":"view","type":"function"},{"inputs":[{"internalType":"address","name":"from","type":"address"},{"internalType":"address","name":"to","type":"address"},{"internalType":"uint256","name":"tokenId","type":"uint256"}],"name":"transferFrom","outputs":[],"stateMutability":"nonpayable","type":"function"},{"inputs":[{"internalType":"uint256","name":"_tokenId","type":"uint256"}],"name":"transferNFTsToV2","outputs":[],"stateMutability":"nonpayable","type":"function"},{"inputs":[{"internalType":"address","name":"newOwner","type":"address"}],"name":"transferOwnership","outputs":[],"stateMutability":"nonpayable","type":"function"},{"inputs":[{"internalType":"address","name":"to","type":"address"},{"internalType":"uint256","name":"tokenId","type":"uint256"}],"name":"transferToken","outputs":[],"stateMutability":"nonpayable","type":"function"},{"inputs":[],"name":"upkeepId","outputs":[{"internalType":"uint256","name":"","type":"uint256"}],"stateMutability":"view","type":"function"}],"evm":{"bytecode":{"linkReferences":{},"object":"608034620006ca57601f62004daf38819003918201601f19168301916001600160401b03831184841017620003545780849260a094604052833981010312620006ca576200004d81620006ee565b906200005c60208201620006ee565b6200006a60408301620006ee565b9260806200007b60608501620006ee565b9301519362000089620006ce565b601481527f4c6561726e7467657468657241727469636c65730000000000000000000000006020820152620000bd620006ce565b60038152624c544760e81b6020820152815190916001600160401b03821162000354578190620000ee5f5462000703565b601f81116200068b575b50602090601f831160011462000617575f926200060b575b50508160011b915f199060031b1c1916175f555b8051906001600160401b038211620003545781906200014560015462000703565b601f8111620005bf575b50602090601f831160011462000544575f9262000538575b50508160011b915f199060031b1c1916176001555b600a8054336001600160a01b0319821681179092556001600160a01b03167f8be0079c531659141344cd1fd0a4f28419497f9722a3daafe3b4186f6b6457e05f80a36040516001600160401b036060820190811190821117620003545760608101604052620001ea620006ce565b600e81526d5265766965772050656e64696e6760901b6020820152815262000211620006ce565b60088152671058d8d95c1d195960c21b6020820152602082015262000235620006ce565b600881526714995a9958dd195960c21b60208201526040820152600f546003600f558060031062000492575b50600f5f9081525f8051602062004d8f833981519152915b6003821062000368575050601f80546001600160a01b031990811633179091556016805482166001600160a01b0394851690811790915560178054831690911790556018805482169484169490941790935550601980548316938216939093179092556015805490911692909116919091179055601b55600b80546001908101909155600e55601354680100000000000000008110156200035457600181018060135581101562000340575f90601382526020822001556040516145f89081620007578239f35b634e487b7160e01b5f52603260045260245ffd5b634e487b7160e01b5f52604160045260245ffd5b80518051906001600160401b038211620003545762000388855462000703565b601f811162000452575b50602090601f8311600114620003e15792826001949360209386955f92620003d5575b50505f19600383901b1c191690841b1786555b0193019101909162000279565b015190505f80620003b5565b90855f5260205f20915f5b601f198516811062000439575083602093600196938796938794601f1981161062000420575b505050811b018655620003c8565b01515f1960f88460031b161c191690555f808062000412565b91926020600181928685015181550194019201620003ec565b6200048090865f5260205f206005601f8601811c8201926020871062000487575b601f01901c01906200073e565b5f62000392565b919250829162000473565b600f5f525f8051602062004d8f833981519152907f8d1108e10bcb7c27dddfc02ed9d693a074039d026cf4ea4240b40f7d581ac8055b8183018110620004da57505062000261565b80620004e96001925462000703565b80620004f8575b5001620004c8565b601f811183146200050f57505f81555b5f620004f0565b5f908282526200052e601f60208420920160051c82018583016200073e565b8183555562000508565b015190505f8062000167565b60015f90815293505f8051602062004d6f83398151915291905b601f1984168510620005a3576001945083601f198116106200058a575b505050811b016001556200017c565b01515f1960f88460031b161c191690555f80806200057b565b818101518355602094850194600190930192909101906200055e565b60015f52620005f9905f8051602062004d6f833981519152601f850160051c8101916020861062000600575b601f0160051c01906200073e565b5f6200014f565b9091508190620005eb565b015190505f8062000110565b5f8080525f8051602062004d4f8339815191529350601f198516905b81811062000672575090846001959493921062000659575b505050811b015f5562000124565b01515f1960f88460031b161c191690555f80806200064b565b9293602060018192878601518155019501930162000633565b5f8052620006c3905f8051602062004d4f833981519152601f850160051c810191602086106200060057601f0160051c01906200073e565b5f620000f8565b5f80fd5b60408051919082016001600160401b038111838210176200035457604052565b51906001600160a01b0382168203620006ca57565b90600182811c9216801562000733575b60208310146200071f57565b634e487b7160e01b5f52602260045260245ffd5b91607f169162000713565b8181106200074a575050565b5f81556001016200073e56fe60806040526004361015610011575f80fd5b5f3560e01c806301ffc9a7146103ca578063041948ca146103c557806306fdde03146103c0578063081812fc146103bb578063095ea7b3146103b65780630cd305d3146103b15780630f299e34146102d05780631072cbea146103ac57806318160ddd146103a75780631bbb4d46146103a25780632056b05f146102e957806323b872dd1461039d5780632602c258146103985780632f745c5914610393578063336c1ad71461038e5780633e7c204214610389578063408958d61461038457806342842e0e1461037f5780634585e33b1461037a578063461350d9146103755780634ed59812146103705780634f6ccce71461036b57806356f5c94a146103665780635787a0cc146103615780635e6c102e1461035c5780635f23b056146103575780635ff2d2aa146103525780636352211e1461034d5780636356eea41461034857806369fe0e2d1461034357806370a082311461033e578063715018a61461033957806375bca85a146103345780637823e2261461032f5780637c7198cc1461032a5780637d67e967146103255780637eb9fd1d146103205780638da5cb5b1461031b57806395d89b4114610316578063990581b6146103115780639b1cb58e1461030c578063a164205a14610307578063a22cb46514610302578063ac3d8153146102fd578063b88d4fde146102f8578063b9e2fc3e146102f3578063c17589d7146102ee578063c6fea1a6146102e9578063c87b56dd146102e4578063d1a34aa3146102df578063d2aa789f146102da578063d8db3807146102d5578063dfcf5189146102d0578063e168b3a8146102cb578063e83ddcea146102c6578063e985e9c5146102c1578063edcfafe6146102bc578063f0f2e469146102b7578063f2fde38b146102b25763f6a800ee146102ad575f80fd5b61259e565b612508565b6124eb565b6123da565b6122fb565b612254565b612153565b6108a6565b6120b4565b612080565b612052565b611f78565b6109a8565b611f30565b611ef6565b611e97565b611e40565b611d5c565b611d25565b611d08565b611c53565b611b75565b611b4d565b611b05565b611a73565b611a25565b611a08565b6119c0565b611960565b611935565b611907565b611632565b611614565b6115c2565b611518565b6111f5565b6111ae565b611186565b6110dc565b6110bf565b6110a2565b610ffb565b610f8b565b610f63565b610f1e565b610dff565b610d4d565b610cb1565b610a42565b610980565b610963565b6108d0565b610869565b610696565b61063a565b610581565b6104b1565b6103e5565b6001600160e01b03198116036103e157565b5f80fd5b346103e15760203660031901126103e1576020600435610404816103cf565b63ffffffff60e01b1663780e9d6360e01b811490811561042a575b506040519015158152f35b6380ac58cd60e01b81149150811561045c575b811561044b575b505f61041f565b6301ffc9a760e01b1490505f610444565b635b5e139f60e01b8114915061043d565b5f9103126103e157565b602090816040818301928281528551809452019301915f5b82811061049d575050505090565b83518552938101939281019260010161048f565b346103e1575f8060031936011261052457604051601380548083529083526020808301935f8051602061458383398151915292915b82821061050d57610509856104fd81890382610b04565b60405191829182610477565b0390f35b8354865294850194600193840193909101906104e6565b80fd5b5f5b8381106105385750505f910152565b8181015183820152602001610529565b9060209161056181518092818552858086019101610527565b601f01601f1916010190565b90602061057e928181520190610548565b90565b346103e1575f80600319360112610524576040518180546105a181612170565b8084529060019081811690811561061257506001146105d7575b610509846105cb81880382610b04565b6040519182918261056d565b93508180526020938483205b8284106105ff5750505081610509936105cb92820101936105bb565b80548585018701529285019281016105e3565b61050996506105cb9450602092508593915060ff191682840152151560051b820101936105bb565b346103e15760203660031901126103e15760206106586004356127cd565b6040516001600160a01b039091168152f35b600435906001600160a01b03821682036103e157565b602435906001600160a01b03821682036103e157565b346103e15760403660031901126103e1576106af61066a565b6024356106bb816126d7565b916001600160a01b038084169082168114610733576106ed936106e89133149081156106ef575b50612760565b612c9c565b005b6001600160a01b03165f90815260056020526040902061072d91506107269033905b9060018060a01b03165f5260205260405f2090565b5460ff1690565b5f6106e2565b60405162461bcd60e51b815260206004820152602160248201527f4552433732313a20617070726f76616c20746f2063757272656e74206f776e656044820152603960f91b6064820152608490fd5b634e487b7160e01b5f52603260045260245ffd5b6013548110156107ae5760135f5260205f2001905f90565b610782565b600f548110156107ae57600f5f5260205f2001905f90565b600f54156107ae57600f5f9081525f805160206145a383398151915291565b600f54600210156107ae57600f5f9081527f8d1108e10bcb7c27dddfc02ed9d693a074039d026cf4ea4240b40f7d581ac80491565b600f54600110156107ae57600f5f9081527f8d1108e10bcb7c27dddfc02ed9d693a074039d026cf4ea4240b40f7d581ac80391565b80548210156107ae575f5260205f2001905f90565b346103e15760203660031901126103e1576004356013548110156103e15760135f525f805160206145838339815191520154604051908152602090f35b346103e15760203660031901126103e1576004355f526012602052602060405f2054604051908152f35b346103e15760403660031901126103e1576108e961066a565b6024356108f5816126d7565b336001600160a01b0390911603610910576106ed9133612b09565b60405162461bcd60e51b815260206004820152602560248201527f4f6e6c7920746865206f776e65722063616e207472616e7366657220746865206044820152643a37b5b2b760d91b6064820152608490fd5b346103e1575f3660031901126103e1576020600854604051908152f35b346103e1575f3660031901126103e1576018546040516001600160a01b039091168152602090f35b346103e1576020806003193601126103e1576004355f52600c815260405f209060405190818184549182815201935f52815f20915f905b8282106109f657610509856104fd81890382610b04565b8354865294850194600193840193909101906109df565b60609060031901126103e1576001600160a01b039060043582811681036103e1579160243590811681036103e1579060443590565b346103e1576106ed610a5336610a0d565b91610a66610a618433612987565b61284f565b612b09565b634e487b7160e01b5f52604160045260245ffd5b61012081019081106001600160401b03821117610a9b57604052565b610a6b565b60a081019081106001600160401b03821117610a9b57604052565b6001600160401b038111610a9b57604052565b602081019081106001600160401b03821117610a9b57604052565b604081019081106001600160401b03821117610a9b57604052565b90601f801991011681019081106001600160401b03821117610a9b57604052565b60405190610b3282610aa0565b565b60405190610b3282610a7f565b6001600160401b038111610a9b57601f01601f191660200190565b929192610b6882610b41565b91610b766040519384610b04565b8294818452818301116103e1578281602093845f960137010152565b9080601f830112156103e15781602061057e93359101610b5c565b9060406003198301126103e1576001600160401b036004358181116103e15783610bd991600401610b92565b926024359182116103e15761057e91600401610b92565b602081528151610c9a610c1161012092836020860152610140850190610548565b610c85610c71610c5d610c36602089015194601f1995868a83030160408b0152610548565b60408901516001600160a01b031660608901526060890151858983030160808a0152610548565b6080880151848883030160a0890152610548565b60a0870151838783030160c0880152610548565b9060c0860151908583030160e0860152610548565b9260e0810151906101009182850152015191015290565b346103e157610d2a610d19610d21610cc836610bad565b5f610100604095939551610cdb81610a7f565b606080825280602083015283604083015280808301528060808301528060a083015260c08201528260e08201520152610d138461249f565b906124c5565b5415156142c6565b610d138161249f565b545f526010602052610509610d4160405f2061431c565b60405191829182610bf0565b346103e15760403660031901126103e157610d6661066a565b60243590610d7381612661565b821015610da6576001600160a01b03165f9081526006602090815260408083209383529281529082902054915191825290f35b60405162461bcd60e51b815260206004820152602b60248201527f455243373231456e756d657261626c653a206f776e657220696e646578206f7560448201526a74206f6620626f756e647360a81b6064820152608490fd5b346103e15760203660031901126103e157601a54600435906020906001600160a01b031691610e4d6001600160a01b03610e3c81861615156144b3565b610e45836126d7565b16331461427a565b610e7281610e6b610e66825f52601060205260405f2090565b61431c565b94336128b5565b601a54610e9590610e89906001600160a01b031681565b6001600160a01b031690565b60408401516001600160a01b03165f606086015193610ee2868801519760a08101519060c081015160808251920151926040519b8c9a8b998a9863ba833f2360e01b8a5260048a016144ff565b03925af18015610f1957610ef257005b6106ed9060203d8111610f12575b610f0a8183610b04565b81019061330d565b503d610f00565b612d6e565b346103e15760403660031901126103e1576024356004355f52600c60205260405f2080548210156103e157602091610f5591610854565b90546040519160031b1c8152f35b346103e1575f3660031901126103e1576016546040516001600160a01b039091168152602090f35b346103e1576106ed610f9c36610a0d565b9060405192610faa84610ace565b5f84526128c8565b9060206003198301126103e1576004356001600160401b03928382116103e157806023830112156103e15781600401359384116103e157602484830101116103e1576024019190565b346103e15761100936610fb2565b601f54336001600160a01b0391821614908115611094575b5015611030576106ed91614063565b60405162461bcd60e51b815260206004820152603660248201527f4e6f742074686520636f6e7472616374206f776e6572206f72204175746f6d616044820152751d1a5bdb88149959da5cdd1c9e4810dbdb9d1c9858dd60521b6064820152608490fd5b90506017541633145f611021565b346103e1575f3660031901126103e1576020601354604051908152f35b346103e1575f3660031901126103e1576020601d54604051908152f35b346103e15760203660031901126103e15760043560085481101561112c5760085f527ff3f7a9fe364faab93b216da50a3214154f22a0a2b415b23a84c8169e8b636ee30154604051908152602090f35b60405162461bcd60e51b815260206004820152602c60248201527f455243373231456e756d657261626c653a20676c6f62616c20696e646578206f60448201526b7574206f6620626f756e647360a01b6064820152608490fd5b346103e1575f3660031901126103e1576019546040516001600160a01b039091168152602090f35b346103e15760203660031901126103e1576111d460018060a01b03600a541633146125ce565b600435601e55005b60409061057e9392151581528160208201520190610548565b346103e15761120336610fb2565b50505f80816013548061124a575b61122d8361123b84604051938491602083019190602083019252565b03601f198101845283610b04565b610509604051928392836111dc565b60019082825b82811061148357505050831561121157601854611275906001600160a01b0316610e89565b90600561128a865f52601060205260405f2090565b01906040606081518095633d69b07360e01b825281806112ae600498898301613c37565b03915afa948515610f1957809281958297611449575b506112df6112da8a5f52600c60205260405f2090565b613ed9565b918251968588105f1461130a5750505050505050505061123b61130461122d93613f51565b90611211565b81968298601d54908181115f146114415750945b835b8681106113885750505050505050509161123b939161122d9693821590811561137e575b501561135b5750505061135690613f51565b611304565b9061136861136d92613f3b565b6131c7565b10155f036113045761135690613f51565b905082105f611344565b6113b4886113968385613d54565b51815180938192635cf17e1f60e11b83528883019190602083019252565b0381305afa8015610f195785908792889161140e575b5010156113e1575b506113dc906131b9565b611320565b9a6113ec87916131b9565b9b146113f9575b5f6113d2565b986114066113dc916131b9565b9990506113f3565b90506114319192508a3d8c1161143a575b6114298183610b04565b810190613f25565b9190915f6113ca565b503d61141f565b90509461131e565b919350955061147091945060603d811161147c575b6114688183610b04565b810190613ebe565b9491929094955f6112c4565b503d61145e565b6114ca60076114af6114a161149785610796565b90549060031b1c90565b5f52601060205260405f2090565b015460086114c26114a161149786610796565b015490612afc565b4281111580611506575b6114e8575b506114e3906131b9565b611250565b965094505081936114e36114fe61149783610796565b9691906114d9565b5082811115806114d4575082156114d4565b346103e15760a03660031901126103e1576001600160401b03600480358281116103e1576115499036908301610b92565b6024358381116103e1576115609036908401610b92565b6044358481116103e1576115779036908501610b92565b6064358581116103e15761158e9036908601610b92565b916084359586116103e1576115ac6115b29561050997369101610b92565b93613609565b6040519081529081906020820190565b346103e15760203660031901126103e1576115db61066a565b600a546001600160a01b0391906115f590831633146125ce565b1660018060a01b03198181601654161760165560175416176017555f80f35b346103e15760203660031901126103e15760206106586004356126d7565b346103e15760603660031901126103e1576024356004356001600160401b0382116103e1576116686116c7923690600401610b92565b906044359161167e6116798361296b565b613b22565b601854611693906001600160a01b0316610e89565b9260056116a8845f52601060205260405f2090565b01604051809563a511d68560e01b825281805f998a9560048301613c37565b03915afa928315610f19576117ab9486946118e3575b506116e9821515613c48565b6117026116fa600f54865190612afc565b831115613c93565b61173b611736611732610726611720855f52601460205260405f2090565b335f9081526020919091526040902090565b1590565b613cda565b61176161175433610711845f52601460205260405f2090565b805460ff19166001179055565b601954602090611779906001600160a01b0316610e89565b600561178d845f52601060205260405f2090565b0190604051808099819463598f921b60e01b83523360048401613d32565b03915afa948515610f195761188f9561188a957fb888bf347d341b27d6e286de699070e38ae55a4e9db71c274c9d5a3c007a6b079289926118b3575b50600f549081861161189257505061180f61180961180486612ace565b6107b3565b50612239565b61184e61181a610b25565b338152876020820152866040820152826060820152836080820152611849600e545f52600d60205260405f2090565b613d68565b61186c611863855f52600c60205260405f2090565b600e5490613045565b611882600e549660405193849333988a86613e88565b0390a36131b9565b600e55565b80f35b6118a76118a26118ad9388612ae1565b612ace565b90613d54565b5161180f565b6118d591925060203d81116118dc575b6118cd8183610b04565b810190613367565b905f6117e7565b503d6118c3565b6119009194503d8088833e6118f88183610b04565b810190613b67565b925f6116dd565b346103e15760203660031901126103e15761192d60018060a01b03600a541633146125ce565b600435601b55005b346103e15760203660031901126103e157602061195861195361066a565b612661565b604051908152f35b346103e1575f8060031936011261052457600a5481906001600160a01b0381169061198c3383146125ce565b6001600160a01b031916600a557f8be0079c531659141344cd1fd0a4f28419497f9722a3daafe3b4186f6b6457e08280a380f35b346103e15760203660031901126103e1576119d961066a565b600a546001600160a01b0391906119f390831633146125ce565b1660018060a01b031960185416176018555f80f35b346103e1575f3660031901126103e1576020601b54604051908152f35b346103e15760403660031901126103e157602060ff611a67611a45610680565b6004355f526014845260405f209060018060a01b03165f5260205260405f2090565b54166040519015158152f35b346103e15760403660031901126103e1576024356004356001600160401b0382116103e157611ac77f0b290e01b548ae78ace76449298ed234c42194d80af9f7dfe02fc4f7de07b9d3923690600401610b92565b90611ae4611ad4826126d7565b6001600160a01b0316331461427a565b611b006040519283928352604060208401526040830190610548565b0390a1005b346103e15760203660031901126103e157611b1e61066a565b600a546001600160a01b039190611b3890831633146125ce565b1660018060a01b031960195416176019555f80f35b346103e1575f3660031901126103e157600a546040516001600160a01b039091168152602090f35b346103e1575f8060031936011261052457604051816001805490611b9882612170565b808552918181169081156106125750600114611bbe57610509846105cb81880382610b04565b80945082526020938483205b828410611be65750505081610509936105cb92820101936105bb565b8054858501870152928501928101611bca565b6020815260018060a01b03825116602082015260a06080611c4a611c2b602086015184604087015260c0860190610548565b604086015160608601526060860151601f198683030184870152610548565b93015191015290565b346103e15760203660031901126103e15761050960405f60808251611c7781610aa0565b82815260606020820152828482015260608082015201526004355f52600d602052805f20906004815192611caa84610aa0565b80546001600160a01b031684528251611cd181611cca81600186016121a8565b0382610b04565b60208501526002810154838501528251611cf281611cca81600386016121a8565b6060850152015460808301525191829182611bf9565b346103e1575f3660031901126103e1576020601c54604051908152f35b346103e1576020611d49610d19610d21611d3e36610bad565b610d1382949261249f565b54604051908152f35b801515036103e157565b346103e15760403660031901126103e157611d7561066a565b602435611d8181611d52565b6001600160a01b03821691338314611dff5781611dbc611dcd92335f52600560205260405f209060018060a01b03165f5260205260405f2090565b9060ff801983541691151516179055565b604051901515815233907f17307eab39ab6107e8899845ad3d59bd9653f200f220920489ca2b5937696c3190602090a3005b60405162461bcd60e51b815260206004820152601960248201527822a9219b99189d1030b8383937bb32903a379031b0b63632b960391b6044820152606490fd5b346103e15760203660031901126103e157600435611e606116798261296b565b5f526010602052610509611cca611e83600660405f2001604051928380926121a8565b604051918291602083526020830190610548565b346103e15760803660031901126103e157611eb061066a565b611eb8610680565b606435916001600160401b0383116103e157366023840112156103e157611eec6106ed933690602481600401359101610b5c565b91604435916128c8565b346103e15760203660031901126103e157600480355f908152600d6020908152604091829020600281015493015482519384529083015290f35b346103e15760203660031901126103e157611f4961066a565b600a546001600160a01b039190611f6390831633146125ce565b1660018060a01b0319601a541617601a555f80f35b346103e15760203660031901126103e157600435611f958161296b565b15611ff557611fa261274e565b805115611fe3576105cb611fcf91611fd5611fbf610509956131f6565b6040519485936020850190612488565b90612488565b03601f198101835282610b04565b5050610509611ff061274e565b6105cb565b60405162461bcd60e51b815260206004820152602f60248201527f4552433732314d657461646174613a2055524920717565727920666f72206e6f60448201526e3732bc34b9ba32b73a103a37b5b2b760891b6064820152608490fd5b346103e15760203660031901126103e15761207860018060a01b03600a541633146125ce565b600435601d55005b346103e1575f3660031901126103e1576020601e54604051908152f35b6001600160401b038111610a9b5760051b60200190565b346103e1576020806003193601126103e1576001600160401b036004358181116103e157366023820112156103e15780600401356120f18161209d565b926120ff6040519485610b04565b818452848401906024809360051b850101933685116103e157838101925b85841061212d576106ed876143af565b83358381116103e15788916121488392883691870101610b92565b81520193019261211d565b346103e1575f3660031901126103e1576020600e54604051908152f35b90600182811c9216801561219e575b602083101461218a57565b634e487b7160e01b5f52602260045260245ffd5b91607f169161217f565b905f92918054916121b883612170565b9182825260019384811690815f1461221657506001146121d9575b50505050565b90919394505f52602092835f2092845f945b83861061220257505050500101905f8080806121d3565b8054858701830152940193859082016121eb565b9294505050602093945060ff191683830152151560051b0101905f8080806121d3565b90610b3261224d92604051938480926121a8565b0383610b04565b346103e15760203660031901126103e1576004355f52600d60205260405f2060018060a01b03815416604051916122998361229281600185016121a8565b0384610b04565b6122f160028201546004604051936122bf856122b881600385016121a8565b0386610b04565b0154926122de604051968796875260a0602088015260a0870190610548565b9160408601528482036060860152610548565b9060808301520390f35b346103e15760403660031901126103e157602060ff611a6761231b61066a565b612323610680565b6001600160a01b039182165f9081526005865260408082209290931681526020919091522090565b9591946123a66123c29461010099966123896123d0999c9e9d9c61237b6123b4978d610120908181520190610548565b8c810360208e015290610548565b6001600160a01b0390921660408b015289820360608b0152610548565b908782036080890152610548565b9085820360a0870152610548565b9083820360c0850152610548565b9460e08201520152565b346103e15760203660031901126103e1576004355f52601060205260405f2060405161240a81611cca81856121a8565b610509604051926124298461242281600185016121a8565b0385610b04565b60018060a01b036002820154169060405161244b81611cca81600386016121a8565b61245760048301612239565b61246360058401612239565b9061247060068501612239565b926008600786015495015495604051998a998a61234b565b9061249b60209282815194859201610527565b0190565b60206124b8918160405193828580945193849201610527565b8101601181520301902090565b6020906124df928260405194838680955193849201610527565b82019081520301902090565b346103e1576020611d49610d1361250136610bad565b919061249f565b346103e15760203660031901126103e15761252161066a565b600a546001600160a01b039061253a90821633146125ce565b81161561254a576106ed90612619565b60405162461bcd60e51b815260206004820152602660248201527f4f776e61626c653a206e6577206f776e657220697320746865207a65726f206160448201526564647265737360d01b6064820152608490fd5b346103e1575f3660031901126103e1576125c360018060a01b03600a541633146125ce565b600b80546001019055005b156125d557565b606460405162461bcd60e51b815260206004820152602060248201527f4f776e61626c653a2063616c6c6572206973206e6f7420746865206f776e65726044820152fd5b600a80546001600160a01b039283166001600160a01b0319821681179092559091167f8be0079c531659141344cd1fd0a4f28419497f9722a3daafe3b4186f6b6457e05f80a3565b6001600160a01b0316801561267f575f52600360205260405f205490565b60405162461bcd60e51b815260206004820152602a60248201527f4552433732313a2062616c616e636520717565727920666f7220746865207a65604482015269726f206164647265737360b01b6064820152608490fd5b5f908152600260205260409020546001600160a01b031680156126f75790565b60405162461bcd60e51b815260206004820152602960248201527f4552433732313a206f776e657220717565727920666f72206e6f6e657869737460448201526832b73a103a37b5b2b760b91b6064820152608490fd5b6040519061275b82610ace565b5f8252565b1561276757565b60405162461bcd60e51b815260206004820152603860248201527f4552433732313a20617070726f76652063616c6c6572206973206e6f74206f776044820152771b995c881b9bdc88185c1c1c9bdd995908199bdc88185b1b60421b6064820152608490fd5b6127d68161296b565b156127f5575f908152600460205260409020546001600160a01b031690565b60405162461bcd60e51b815260206004820152602c60248201527f4552433732313a20617070726f76656420717565727920666f72206e6f6e657860448201526b34b9ba32b73a103a37b5b2b760a11b6064820152608490fd5b1561285657565b60405162461bcd60e51b815260206004820152603160248201527f4552433732313a207472616e736665722063616c6c6572206973206e6f74206f6044820152701ddb995c881b9bdc88185c1c1c9bdd9959607a1b6064820152608490fd5b9091610b329260405192610faa84610ace565b91610b3293916128ef936128df610a618433612987565b6128ea838383612b09565b612e67565b612947565b60809060208152603260208201527f4552433732313a207472616e7366657220746f206e6f6e20455243373231526560408201527131b2b4bb32b91034b6b83632b6b2b73a32b960711b60608201520190565b1561294e57565b60405162461bcd60e51b815280612967600482016128f4565b0390fd5b5f908152600260205260409020546001600160a01b0316151590565b6129908261296b565b15612a085761299e826126d7565b6001600160a01b0382811682821681149490919085156129f0575b50505082156129c757505090565b6001600160a01b03165f90815260056020526040902060ff92506129eb9190610711565b541690565b6129fd91929395506127cd565b1614915f80806129b9565b60405162461bcd60e51b815260206004820152602c60248201527f4552433732313a206f70657261746f7220717565727920666f72206e6f6e657860448201526b34b9ba32b73a103a37b5b2b760a11b6064820152608490fd5b15612a6957565b60405162461bcd60e51b8152602060048201526024808201527f4552433732313a207472616e7366657220746f20746865207a65726f206164646044820152637265737360e01b6064820152608490fd5b634e487b7160e01b5f52601160045260245ffd5b5f19810191908211612adc57565b612aba565b91908203918211612adc57565b9060018201809211612adc57565b91908201809211612adc57565b90612b13836126d7565b6001600160a01b038381169290918216839003612bf257612b6c612bcc92821694612b3f861515612a62565b612b4a878483612ecd565b612b5387612c49565b6001600160a01b03165f90815260036020526040902090565b612b768154612ace565b90556001600160a01b0381165f908152600360205260409020612b998154612aee565b9055612bad855f52600260205260405f2090565b80546001600160a01b0319166001600160a01b03909216919091179055565b7fddf252ad1be2c89b69c2b068fc378daa952ba7f163c4a11628f55a4df523b3ef5f80a4565b60405162461bcd60e51b815260206004820152602960248201527f4552433732313a207472616e73666572206f6620746f6b656e2074686174206960448201526839903737ba1037bbb760b91b6064820152608490fd5b5f81815260046020526040812080546001600160a01b03191690556001600160a01b03612c75836126d7565b167f8c5be1e5ebec7d5bd14f71427d1e84f3dd0314c0f7b2291e5b200ac8c7c3b9258280a4565b5f82815260046020526040902080546001600160a01b0319166001600160a01b0383161790556001600160a01b0380612cd4846126d7565b169116907f8c5be1e5ebec7d5bd14f71427d1e84f3dd0314c0f7b2291e5b200ac8c7c3b9255f80a4565b908160209103126103e1575161057e816103cf565b61057e939260809260018060a01b031682525f602083015260408201528160608201520190610548565b6001600160a01b03918216815291166020820152604081019190915260806060820181905261057e92910190610548565b6040513d5f823e3d90fd5b3d15612da3573d90612d8a82610b41565b91612d986040519384610b04565b82523d5f602084013e565b606090565b909190803b15612e5f57612dd96020915f93604051948580948193630a85bd0160e11b998a84523360048501612d13565b03926001600160a01b03165af15f9181612e2f575b50612e2157612dfb612d79565b80519081612e1c5760405162461bcd60e51b815280612967600482016128f4565b602001fd5b6001600160e01b0319161490565b612e5191925060203d8111612e58575b612e498183610b04565b810190612cfe565b905f612dee565b503d612e3f565b505050600190565b92909190823b15612e9957612dd9926020925f604051809681958294630a85bd0160e11b9a8b85523360048601612d3d565b50505050600190565b90612eac81613080565b6001600160a01b038216612ec457610b329150613113565b610b3291612fda565b9091906001600160a01b038082169182612f075750612eeb83613080565b831680612efe575050610b329150613113565b03612ec4575050565b8185168303612f17575b50612eeb565b612f2081612661565b5f198101908111612adc57612f8490612f775f9387855260076020526040852054838103612f8b575b5084612f5d895f52600760205260405f2090565b556001600160a01b03165f90815260066020526040902090565b905f5260205260405f2090565b555f612f11565b878652600660205260408620848752602052612fd3604087205480612fc484612f778760018060a01b03165f52600660205260405f2090565b555f52600760205260405f2090565b555f612f49565b604090612fe681612661565b925f9160018060a01b0316825260066020528282208483526020528083832055815260076020522055565b601354600160401b811015610a9b5760018101806013558110156107ae5760135f525f805160206145838339815191520155565b80549190600160401b831015610a9b5782613068916001610b3295018155610854565b90919082549060031b91821b915f19901b1916179055565b600854815f5260096020528060405f2055600160401b811015610a9b5760018101806008558110156107ae5760085f527ff3f7a9fe364faab93b216da50a3214154f22a0a2b415b23a84c8169e8b636ee30155565b60135480156130ff575f198181019190818310156107ae575f916013835260208320010155601355565b634e487b7160e01b5f52603160045260245ffd5b600880545f19929083810190808211612adc575f9280845260096020528160408520549310156107ae57848452858260208620010154918310156107ae5783926131736131829387865280836020882001555f52600960205260405f2090565b555f52600960205260405f2090565b5581549283156131a55780840193808510156107ae578383526020832001015555565b634e487b7160e01b82526031600452602482fd5b5f198114612adc5760010190565b81156131d1570490565b634e487b7160e01b5f52601260045260245ffd5b9081518110156107ae570160200190565b801561329257805f908282935b61327e575061321183610b41565b9261321f6040519485610b04565b80845281601f1961322f83610b41565b013660208701375b6132415750505090565b61324a90612ace565b90600a9060308282068101809111612adc5760f81b6001600160f81b031916841a61327584876131e5565b53049081613237565b9261328a600a916131b9565b930480613203565b5060405161329f81610ae9565b60018152600360fc1b602082015290565b156132b757565b60405162461bcd60e51b815260206004820152602860248201527f49504653206861736820616c72656164792075736564207769746820746869736044820152670814dd589a9958dd60c21b6064820152608490fd5b908160209103126103e1575161057e81611d52565b1561332957565b60405162461bcd60e51b815260206004820152601660248201527514dd589a9958dd08111bd95cc8139bdd08115e1a5cdd60521b6044820152606490fd5b908160209103126103e1575190565b6040519061338382610ae9565b60098252684e6f2052657669657760b81b6020830152565b156133a257565b60405162461bcd60e51b8152602060048201526013602482015272119959481d1c985b9cd9995c8819985a5b1959606a1b6044820152606490fd5b8181106133e8575050565b5f81556001016133dd565b9190601f811161340257505050565b610b32925f5260205f20906020601f840160051c8301931061342c575b601f0160051c01906133dd565b909150819061341f565b91909182516001600160401b038111610a9b5761345d816134578454612170565b846133f3565b602080601f83116001146134975750819293945f9261348c575b50508160011b915f199060031b1c1916179055565b015190505f80613477565b90601f198316956134ab855f5260205f2090565b925f905b8882106134e6575050836001959697106134ce575b505050811b019055565b01515f1960f88460031b161c191690555f80806134c4565b806001859682949686015181550195019301906134af565b90610100600891613510815185613436565b613521602082015160018601613436565b60408101516002850180546001600160a01b0319166001600160a01b03909216919091179055613558606082015160038601613436565b613569608082015160048601613436565b61357a60a082015160058601613436565b61358b60c082015160068601613436565b60e081015160078501550151910155565b9491936135df6135fb946135d161057e99976135c36135ed9660c08c5260c08c0190610548565b908a820360208c0152610548565b9088820360408a0152610548565b908682036060880152610548565b908482036080860152610548565b9160a0818403910152610548565b9392919261362961362261361c8361249f565b876124c5565b54156132b0565b60185461363e906001600160a01b0316610e89565b91604093845196632dac55d960e01b8852602097888180613662886004830161056d565b0381895afa908115610f1957613685916001915f916139d8575b50151514613322565b600b54978087518097631ee44dff60e11b825281806136a78a6004830161056d565b03915afa8015610f195789965f916139bb575b5080159182156139aa576136cc613376565b925b6136d6610b34565b858152828101889052338b820152928b60608501528660808501528860a08501528460c08501524260e085015261010084015215613792575b5090869761376c61378c9594936137477fe67e8665372d778117094ef9242f82e2fb28fc6328b119d80a5ab6520949cb3d9a336139f5565b6137556001600b5401600b55565b6137678b5f52601060205260405f2090565b6134fe565b8861377f6137798961249f565b856124c5565b5551958695339a8761359c565b0390a390565b9096505f816137e46137b2610e896015989796985460018060a01b031690565b601b548c516323b872dd60e01b8152336004820152306024820152604481019190915293849283919082906064820190565b03925af18015610f19576137ff915f9161398d575b5061339b565b60155461385290829061381a906001600160a01b0316610e89565b601754601b548c5163095ea7b360e01b81526001600160a01b03909216600483015260248201529283919082905f9082906044820190565b03925af18015610f195761396f575b5050601654613878906001600160a01b0316610e89565b92601e54601b54853b156103e157895163085f452560e41b815260048101929092526024820152935f908590604490829084905af1978815610f195761376c7fe67e8665372d778117094ef9242f82e2fb28fc6328b119d80a5ab6520949cb3d9861378c968d9b613956575b506138ee8b613011565b6138f9601354612ace565b61390b8c5f52601260205260405f2090565b557f0e151b6219a1f85bf5e747c9bfffda79d67773b9da98a8251092172802c9bcbe613938601354612ace565b84518d81526020810191909152604090a1929394955050979661370f565b8061396361396992610abb565b8061046d565b5f6138e4565b8161398592903d10610f1257610f0a8183610b04565b505f80613861565b6139a49150833d8511610f1257610f0a8183610b04565b5f6137f9565b6139b56118096107cb565b926136ce565b6139d29150823d84116118dc576118cd8183610b04565b5f6136ba565b6139ef91508b3d8d11610f1257610f0a8183610b04565b5f61367c565b90604051613a0281610ace565b5f81526001600160a01b038316918215613ade57613a1f8161296b565b613a995783816128ef94613a3682610b3298612ea2565b6001600160a01b0383165f908152600360205260409020613a578154612aee565b9055613a6f83612bad845f52600260205260405f2090565b5f7fddf252ad1be2c89b69c2b068fc378daa952ba7f163c4a11628f55a4df523b3ef8180a4612da8565b60405162461bcd60e51b815260206004820152601c60248201527f4552433732313a20746f6b656e20616c7265616479206d696e746564000000006044820152606490fd5b606460405162461bcd60e51b815260206004820152602060248201527f4552433732313a206d696e7420746f20746865207a65726f20616464726573736044820152fd5b15613b2957565b60405162461bcd60e51b8152602060048201526016602482015275105c9d1a58db1948191bd95cc81b9bdd08195e1a5cdd60521b6044820152606490fd5b60209081818403126103e15780516001600160401b03918282116103e157019083601f830112156103e1578151613b9d8161209d565b94604092613bad84519788610b04565b828752858088019360051b860101948286116103e157868101935b868510613bda57505050505050505090565b84518381116103e15782019084603f830112156103e1578882015190613bff82610b41565b613c0b89519182610b04565b828152868984860101116103e157613c2c8b949385948b8685019101610527565b815201940193613bc8565b90602061057e9281815201906121a8565b15613c4f57565b606460405162461bcd60e51b815260206004820152602060248201527f436f6e73656e736f7573206d75732062652067726561746572207468616e20306044820152fd5b15613c9a57565b60405162461bcd60e51b8152602060048201526018602482015277436f6e73656e736f7573206e6f7420496e20426f756e647360401b6044820152606490fd5b15613ce157565b60405162461bcd60e51b8152602060048201526024808201527f596f7527766520616c726561647920726576696577656420746869732061727460448201526369636c6560e01b6064820152608490fd5b6001600160a01b03909116815260406020820181905261057e929101906121a8565b80518210156107ae5760209160051b010190565b815181546001600160a01b0319166001600160a01b039190911617815590600190818301602080830151938451916001600160401b038311610a9b57613db883613db28654612170565b866133f3565b80601f8411600114613e1657509180809260809695946004985f94613e0b575b50501b915f199060031b1c19161790555b60408101516002850155613e04606082015160038601613436565b0151910155565b015192505f80613dd8565b91939495601f198416613e2c875f5260205f2090565b935f905b828210613e715750509160049795939185608098969410613e59575b505050811b019055613de9565b01515f1960f88460031b161c191690555f8080613e4c565b808886978294978701518155019601940190613e30565b919261057e9593613eab928452602084015260a0604084015260a0830190610548565b9260608201526080818403910152610548565b908160609103126103e1578051916040602083015192015190565b906040519182815491828252602092838301915f52835f20935f905b828210613f0b57505050610b3292500383610b04565b855484526001958601958895509381019390910190613ef5565b91908260409103126103e1576020825192015190565b90606482029180830460641490151715612adc57565b90815f03918083055f191490151715612adc57565b908160209103126103e1573590565b600160ff1b8114612adc575f0390565b91909182811461405e57613f998354612170565b6001600160401b038111610a9b57613fb5816134578454612170565b5f93601f8211600114613fed5793819293945f92613fe25750508160011b915f199060031b1c1916179055565b015490505f80613477565b613fff601f198316915f5260205f2090565b9461400d845f5260205f2090565b91815b8181106140465750958360019596971061402e57505050811b019055565b01545f1960f88460031b161c191690555f80806134c4565b87830154845560019384019390920191602001614010565b509050565b6020821461406f575050565b61407b91810190613f66565b5f8082131561426a575060015b81151580614234575b80614216575b806141fb575b6140a5575050565b5f9161415a9115156001036141eb576140da6140bf61081f565b5060066140d4845f52601060205260405f2090565b01613f85565b807f98c0c222d59ec9e997128b263105002de2747b52c5c56a9f8468e6c96c44c0ee6141206006614113845f52601060205260405f2090565b0160405191829182613c37565b0390a2614135815f52601260205260405f2090565b546013549061414382612ace565b8103614163575b50505f52601260205260405f2090565b55610b326130d5565b6141a461419b6114976141967f0e151b6219a1f85bf5e747c9bfffda79d67773b9da98a8251092172802c9bcbe95612ace565b610796565b61306883610796565b806141c76141b9611497614196601354612ace565b5f52601260205260405f2090565b556141d461149782610796565b604080519182526020820192909252a15f8061414a565b6141f66140bf6107ea565b6140da565b5061420e825f52601260205260405f2090565b54151561409d565b50600761422b835f52601060205260405f2090565b01541515614097565b50614262600761424c845f52601060205260405f2090565b015460086114c2855f52601060205260405f2090565b421015614091565b6142749091613f75565b90614088565b1561428157565b60405162461bcd60e51b815260206004820152601a60248201527f4e6f7420746865206f776e6572206f662074686520746f6b656e0000000000006044820152606490fd5b156142cd57565b60405162461bcd60e51b815260206004820152602160248201527f495046532068617368206e6f7420617474616368656420746f2041727469636c6044820152606560f81b6064820152608490fd5b906008614327610b34565b9261433181612239565b845261433f60018201612239565b602085015260028101546001600160a01b0316604085015261436360038201612239565b606085015261437460048201612239565b608085015261438560058201612239565b60a085015261439660068201612239565b60c0850152600781015460e08501520154610100830152565b6143c460018060a01b03600a541633146125ce565b805190600160401b8211610a9b57600f5482600f55808310614427575b50600f5f526020908101905f805160206145a38339815191525f925b84841061440b575050505050565b6001838261441b83945186613436565b019201930192906143fd565b600f5f9081525f805160206145a38339815191529182019184015b8281106144505750506143e1565b8061445d60019254612170565b8061446a575b5001614442565b601f9081811184146144825750508281555b5f614463565b836144a292614494855f5260205f2090565b920160051c820191016133dd565b5f818152602081208183555561447c565b156144ba57565b60405162461bcd60e51b815260206004820152601b60248201527f563220636f6e74726163742061646472657373206e6f742073657400000000006044820152606490fd5b96939461454a6145749661453c6145669661057e9c9a96614558968d5260018060a01b031660208d015260408c61010091829101528c0190610548565b908a820360608c0152610548565b9088820360808a0152610548565b9086820360a0880152610548565b9084820360c0860152610548565b9160e081840391015261054856fe66de8ffda797e3de9c05e8fc57b3bf0ec28a930d40b0d285d93c06501cf6a0908d1108e10bcb7c27dddfc02ed9d693a074039d026cf4ea4240b40f7d581ac802a26469706673582212204f357cba2435081d1582a87ee40b687d63289b71aa1c6b1dc51f0da9557202ff64736f6c63430008140033290decd9548b62a8d60345a988386fc84ba6bc95484008f6362f93160ef3e563b10e2d527612073b26eecdfd717e6a320cf44b4afac2b0732d9fcbe2b7fa0cf68d1108e10bcb7c27dddfc02ed9d693a074039d026cf4ea4240b40f7d581ac802","opcodes":"PUSH1 0x80 CALLVALUE PUSH3 0x6CA JUMPI PUSH1 0x1F PUSH3 0x4DAF CODESIZE DUP2 SWAP1 SUB SWAP2 DUP3 ADD PUSH1 0x1F NOT AND DUP4 ADD SWAP2 PUSH1 0x1 PUSH1 0x1 PUSH1 0x40 SHL SUB DUP4 GT DUP5 DUP5 LT OR PUSH3 0x354 JUMPI DUP1 DUP5 SWAP3 PUSH1 0xA0 SWAP5 PUSH1 0x40 MSTORE DUP4 CODECOPY DUP2 ADD SUB SLT PUSH3 0x6CA JUMPI PUSH3 0x4D DUP2 PUSH3 0x6EE JUMP JUMPDEST SWAP1 PUSH3 0x5C PUSH1 0x20 DUP3 ADD PUSH3 0x6EE JUMP JUMPDEST PUSH3 0x6A PUSH1 0x40 DUP4 ADD PUSH3 0x6EE JUMP JUMPDEST SWAP3 PUSH1 0x80 PUSH3 0x7B PUSH1 0x60 DUP6 ADD PUSH3 0x6EE JUMP JUMPDEST SWAP4 ADD MLOAD SWAP4 PUSH3 0x89 PUSH3 0x6CE JUMP JUMPDEST PUSH1 0x14 DUP2 MSTORE PUSH32 0x4C6561726E7467657468657241727469636C6573000000000000000000000000 PUSH1 0x20 DUP3 ADD MSTORE PUSH3 0xBD PUSH3 0x6CE JUMP JUMPDEST PUSH1 0x3 DUP2 MSTORE PUSH3 0x4C5447 PUSH1 0xE8 SHL PUSH1 0x20 DUP3 ADD MSTORE DUP2 MLOAD SWAP1 SWAP2 PUSH1 0x1 PUSH1 0x1 PUSH1 0x40 SHL SUB DUP3 GT PUSH3 0x354 JUMPI DUP2 SWAP1 PUSH3 0xEE PUSH0 SLOAD PUSH3 0x703 JUMP JUMPDEST PUSH1 0x1F DUP2 GT PUSH3 0x68B JUMPI JUMPDEST POP PUSH1 0x20 SWAP1 PUSH1 0x1F DUP4 GT PUSH1 0x1 EQ PUSH3 0x617 JUMPI PUSH0 SWAP3 PUSH3 0x60B JUMPI JUMPDEST POP POP DUP2 PUSH1 0x1 SHL SWAP2 PUSH0 NOT SWAP1 PUSH1 0x3 SHL SHR NOT AND OR PUSH0 SSTORE JUMPDEST DUP1 MLOAD SWAP1 PUSH1 0x1 PUSH1 0x1 PUSH1 0x40 SHL SUB DUP3 GT PUSH3 0x354 JUMPI DUP2 SWAP1 PUSH3 0x145 PUSH1 0x1 SLOAD PUSH3 0x703 JUMP JUMPDEST PUSH1 0x1F DUP2 GT PUSH3 0x5BF JUMPI JUMPDEST POP PUSH1 0x20 SWAP1 PUSH1 0x1F DUP4 GT PUSH1 0x1 EQ PUSH3 0x544 JUMPI PUSH0 SWAP3 PUSH3 0x538 JUMPI JUMPDEST POP POP DUP2 PUSH1 0x1 SHL SWAP2 PUSH0 NOT SWAP1 PUSH1 0x3 SHL SHR NOT AND OR PUSH1 0x1 SSTORE JUMPDEST PUSH1 0xA DUP1 SLOAD CALLER PUSH1 0x1 PUSH1 0x1 PUSH1 0xA0 SHL SUB NOT DUP3 AND DUP2 OR SWAP1 SWAP3 SSTORE PUSH1 0x1 PUSH1 0x1 PUSH1 0xA0 SHL SUB AND PUSH32 0x8BE0079C531659141344CD1FD0A4F28419497F9722A3DAAFE3B4186F6B6457E0 PUSH0 DUP1 LOG3 PUSH1 0x40 MLOAD PUSH1 0x1 PUSH1 0x1 PUSH1 0x40 SHL SUB PUSH1 0x60 DUP3 ADD SWAP1 DUP2 GT SWAP1 DUP3 GT OR PUSH3 0x354 JUMPI PUSH1 0x60 DUP2 ADD PUSH1 0x40 MSTORE PUSH3 0x1EA PUSH3 0x6CE JUMP JUMPDEST PUSH1 0xE DUP2 MSTORE PUSH14 0x5265766965772050656E64696E67 PUSH1 0x90 SHL PUSH1 0x20 DUP3 ADD MSTORE DUP2 MSTORE PUSH3 0x211 PUSH3 0x6CE JUMP JUMPDEST PUSH1 0x8 DUP2 MSTORE PUSH8 0x1058D8D95C1D1959 PUSH1 0xC2 SHL PUSH1 0x20 DUP3 ADD MSTORE PUSH1 0x20 DUP3 ADD MSTORE PUSH3 0x235 PUSH3 0x6CE JUMP JUMPDEST PUSH1 0x8 DUP2 MSTORE PUSH8 0x14995A9958DD1959 PUSH1 0xC2 SHL PUSH1 0x20 DUP3 ADD MSTORE PUSH1 0x40 DUP3 ADD MSTORE PUSH1 0xF SLOAD PUSH1 0x3 PUSH1 0xF SSTORE DUP1 PUSH1 0x3 LT PUSH3 0x492 JUMPI JUMPDEST POP PUSH1 0xF PUSH0 SWAP1 DUP2 MSTORE PUSH0 DUP1 MLOAD PUSH1 0x20 PUSH3 0x4D8F DUP4 CODECOPY DUP2 MLOAD SWAP2 MSTORE SWAP2 JUMPDEST PUSH1 0x3 DUP3 LT PUSH3 0x368 JUMPI POP POP PUSH1 0x1F DUP1 SLOAD PUSH1 0x1 PUSH1 0x1 PUSH1 0xA0 SHL SUB NOT SWAP1 DUP2 AND CALLER OR SWAP1 SWAP2 SSTORE PUSH1 0x16 DUP1 SLOAD DUP3 AND PUSH1 0x1 PUSH1 0x1 PUSH1 0xA0 SHL SUB SWAP5 DUP6 AND SWAP1 DUP2 OR SWAP1 SWAP2 SSTORE PUSH1 0x17 DUP1 SLOAD DUP4 AND SWAP1 SWAP2 OR SWAP1 SSTORE PUSH1 0x18 DUP1 SLOAD DUP3 AND SWAP5 DUP5 AND SWAP5 SWAP1 SWAP5 OR SWAP1 SWAP4 SSTORE POP PUSH1 0x19 DUP1 SLOAD DUP4 AND SWAP4 DUP3 AND SWAP4 SWAP1 SWAP4 OR SWAP1 SWAP3 SSTORE PUSH1 0x15 DUP1 SLOAD SWAP1 SWAP2 AND SWAP3 SWAP1 SWAP2 AND SWAP2 SWAP1 SWAP2 OR SWAP1 SSTORE PUSH1 0x1B SSTORE PUSH1 0xB DUP1 SLOAD PUSH1 0x1 SWAP1 DUP2 ADD SWAP1 SWAP2 SSTORE PUSH1 0xE SSTORE PUSH1 0x13 SLOAD PUSH9 0x10000000000000000 DUP2 LT ISZERO PUSH3 0x354 JUMPI PUSH1 0x1 DUP2 ADD DUP1 PUSH1 0x13 SSTORE DUP2 LT ISZERO PUSH3 0x340 JUMPI PUSH0 SWAP1 PUSH1 0x13 DUP3 MSTORE PUSH1 0x20 DUP3 KECCAK256 ADD SSTORE PUSH1 0x40 MLOAD PUSH2 0x45F8 SWAP1 DUP2 PUSH3 0x757 DUP3 CODECOPY RETURN JUMPDEST PUSH4 0x4E487B71 PUSH1 0xE0 SHL PUSH0 MSTORE PUSH1 0x32 PUSH1 0x4 MSTORE PUSH1 0x24 PUSH0 REVERT JUMPDEST PUSH4 0x4E487B71 PUSH1 0xE0 SHL PUSH0 MSTORE PUSH1 0x41 PUSH1 0x4 MSTORE PUSH1 0x24 PUSH0 REVERT JUMPDEST DUP1 MLOAD DUP1 MLOAD SWAP1 PUSH1 0x1 PUSH1 0x1 PUSH1 0x40 SHL SUB DUP3 GT PUSH3 0x354 JUMPI PUSH3 0x388 DUP6 SLOAD PUSH3 0x703 JUMP JUMPDEST PUSH1 0x1F DUP2 GT PUSH3 0x452 JUMPI JUMPDEST POP PUSH1 0x20 SWAP1 PUSH1 0x1F DUP4 GT PUSH1 0x1 EQ PUSH3 0x3E1 JUMPI SWAP3 DUP3 PUSH1 0x1 SWAP5 SWAP4 PUSH1 0x20 SWAP4 DUP7 SWAP6 PUSH0 SWAP3 PUSH3 0x3D5 JUMPI JUMPDEST POP POP PUSH0 NOT PUSH1 0x3 DUP4 SWAP1 SHL SHR NOT AND SWAP1 DUP5 SHL OR DUP7 SSTORE JUMPDEST ADD SWAP4 ADD SWAP2 ADD SWAP1 SWAP2 PUSH3 0x279 JUMP JUMPDEST ADD MLOAD SWAP1 POP PUSH0 DUP1 PUSH3 0x3B5 JUMP JUMPDEST SWAP1 DUP6 PUSH0 MSTORE PUSH1 0x20 PUSH0 KECCAK256 SWAP2 PUSH0 JUMPDEST PUSH1 0x1F NOT DUP6 AND DUP2 LT PUSH3 0x439 JUMPI POP DUP4 PUSH1 0x20 SWAP4 PUSH1 0x1 SWAP7 SWAP4 DUP8 SWAP7 SWAP4 DUP8 SWAP5 PUSH1 0x1F NOT DUP2 AND LT PUSH3 0x420 JUMPI JUMPDEST POP POP POP DUP2 SHL ADD DUP7 SSTORE PUSH3 0x3C8 JUMP JUMPDEST ADD MLOAD PUSH0 NOT PUSH1 0xF8 DUP5 PUSH1 0x3 SHL AND SHR NOT AND SWAP1 SSTORE PUSH0 DUP1 DUP1 PUSH3 0x412 JUMP JUMPDEST SWAP2 SWAP3 PUSH1 0x20 PUSH1 0x1 DUP2 SWAP3 DUP7 DUP6 ADD MLOAD DUP2 SSTORE ADD SWAP5 ADD SWAP3 ADD PUSH3 0x3EC JUMP JUMPDEST PUSH3 0x480 SWAP1 DUP7 PUSH0 MSTORE PUSH1 0x20 PUSH0 KECCAK256 PUSH1 0x5 PUSH1 0x1F DUP7 ADD DUP2 SHR DUP3 ADD SWAP3 PUSH1 0x20 DUP8 LT PUSH3 0x487 JUMPI JUMPDEST PUSH1 0x1F ADD SWAP1 SHR ADD SWAP1 PUSH3 0x73E JUMP JUMPDEST PUSH0 PUSH3 0x392 JUMP JUMPDEST SWAP2 SWAP3 POP DUP3 SWAP2 PUSH3 0x473 JUMP JUMPDEST PUSH1 0xF PUSH0 MSTORE PUSH0 DUP1 MLOAD PUSH1 0x20 PUSH3 0x4D8F DUP4 CODECOPY DUP2 MLOAD SWAP2 MSTORE SWAP1 PUSH32 0x8D1108E10BCB7C27DDDFC02ED9D693A074039D026CF4EA4240B40F7D581AC805 JUMPDEST DUP2 DUP4 ADD DUP2 LT PUSH3 0x4DA JUMPI POP POP PUSH3 0x261 JUMP JUMPDEST DUP1 PUSH3 0x4E9 PUSH1 0x1 SWAP3 SLOAD PUSH3 0x703 JUMP JUMPDEST DUP1 PUSH3 0x4F8 JUMPI JUMPDEST POP ADD PUSH3 0x4C8 JUMP JUMPDEST PUSH1 0x1F DUP2 GT DUP4 EQ PUSH3 0x50F JUMPI POP PUSH0 DUP2 SSTORE JUMPDEST PUSH0 PUSH3 0x4F0 JUMP JUMPDEST PUSH0 SWAP1 DUP3 DUP3 MSTORE PUSH3 0x52E PUSH1 0x1F PUSH1 0x20 DUP5 KECCAK256 SWAP3 ADD PUSH1 0x5 SHR DUP3 ADD DUP6 DUP4 ADD PUSH3 0x73E JUMP JUMPDEST DUP2 DUP4 SSTORE SSTORE PUSH3 0x508 JUMP JUMPDEST ADD MLOAD SWAP1 POP PUSH0 DUP1 PUSH3 0x167 JUMP JUMPDEST PUSH1 0x1 PUSH0 SWAP1 DUP2 MSTORE SWAP4 POP PUSH0 DUP1 MLOAD PUSH1 0x20 PUSH3 0x4D6F DUP4 CODECOPY DUP2 MLOAD SWAP2 MSTORE SWAP2 SWAP1 JUMPDEST PUSH1 0x1F NOT DUP5 AND DUP6 LT PUSH3 0x5A3 JUMPI PUSH1 0x1 SWAP5 POP DUP4 PUSH1 0x1F NOT DUP2 AND LT PUSH3 0x58A JUMPI JUMPDEST POP POP POP DUP2 SHL ADD PUSH1 0x1 SSTORE PUSH3 0x17C JUMP JUMPDEST ADD MLOAD PUSH0 NOT PUSH1 0xF8 DUP5 PUSH1 0x3 SHL AND SHR NOT AND SWAP1 SSTORE PUSH0 DUP1 DUP1 PUSH3 0x57B JUMP JUMPDEST DUP2 DUP2 ADD MLOAD DUP4 SSTORE PUSH1 0x20 SWAP5 DUP6 ADD SWAP5 PUSH1 0x1 SWAP1 SWAP4 ADD SWAP3 SWAP1 SWAP2 ADD SWAP1 PUSH3 0x55E JUMP JUMPDEST PUSH1 0x1 PUSH0 MSTORE PUSH3 0x5F9 SWAP1 PUSH0 DUP1 MLOAD PUSH1 0x20 PUSH3 0x4D6F DUP4 CODECOPY DUP2 MLOAD SWAP2 MSTORE PUSH1 0x1F DUP6 ADD PUSH1 0x5 SHR DUP2 ADD SWAP2 PUSH1 0x20 DUP7 LT PUSH3 0x600 JUMPI JUMPDEST PUSH1 0x1F ADD PUSH1 0x5 SHR ADD SWAP1 PUSH3 0x73E JUMP JUMPDEST PUSH0 PUSH3 0x14F JUMP JUMPDEST SWAP1 SWAP2 POP DUP2 SWAP1 PUSH3 0x5EB JUMP JUMPDEST ADD MLOAD SWAP1 POP PUSH0 DUP1 PUSH3 0x110 JUMP JUMPDEST PUSH0 DUP1 DUP1 MSTORE PUSH0 DUP1 MLOAD PUSH1 0x20 PUSH3 0x4D4F DUP4 CODECOPY DUP2 MLOAD SWAP2 MSTORE SWAP4 POP PUSH1 0x1F NOT DUP6 AND SWAP1 JUMPDEST DUP2 DUP2 LT PUSH3 0x672 JUMPI POP SWAP1 DUP5 PUSH1 0x1 SWAP6 SWAP5 SWAP4 SWAP3 LT PUSH3 0x659 JUMPI JUMPDEST POP POP POP DUP2 SHL ADD PUSH0 SSTORE PUSH3 0x124 JUMP JUMPDEST ADD MLOAD PUSH0 NOT PUSH1 0xF8 DUP5 PUSH1 0x3 SHL AND SHR NOT AND SWAP1 SSTORE PUSH0 DUP1 DUP1 PUSH3 0x64B JUMP JUMPDEST SWAP3 SWAP4 PUSH1 0x20 PUSH1 0x1 DUP2 SWAP3 DUP8 DUP7 ADD MLOAD DUP2 SSTORE ADD SWAP6 ADD SWAP4 ADD PUSH3 0x633 JUMP JUMPDEST PUSH0 DUP1 MSTORE PUSH3 0x6C3 SWAP1 PUSH0 DUP1 MLOAD PUSH1 0x20 PUSH3 0x4D4F DUP4 CODECOPY DUP2 MLOAD SWAP2 MSTORE PUSH1 0x1F DUP6 ADD PUSH1 0x5 SHR DUP2 ADD SWAP2 PUSH1 0x20 DUP7 LT PUSH3 0x600 JUMPI PUSH1 0x1F ADD PUSH1 0x5 SHR ADD SWAP1 PUSH3 0x73E JUMP JUMPDEST PUSH0 PUSH3 0xF8 JUMP JUMPDEST PUSH0 DUP1 REVERT JUMPDEST PUSH1 0x40 DUP1 MLOAD SWAP2 SWAP1 DUP3 ADD PUSH1 0x1 PUSH1 0x1 PUSH1 0x40 SHL SUB DUP2 GT DUP4 DUP3 LT OR PUSH3 0x354 JUMPI PUSH1 0x40 MSTORE JUMP JUMPDEST MLOAD SWAP1 PUSH1 0x1 PUSH1 0x1 PUSH1 0xA0 SHL SUB DUP3 AND DUP3 SUB PUSH3 0x6CA JUMPI JUMP JUMPDEST SWAP1 PUSH1 0x1 DUP3 DUP2 SHR SWAP3 AND DUP1 ISZERO PUSH3 0x733 JUMPI JUMPDEST PUSH1 0x20 DUP4 LT EQ PUSH3 0x71F JUMPI JUMP JUMPDEST PUSH4 0x4E487B71 PUSH1 0xE0 SHL PUSH0 MSTORE PUSH1 0x22 PUSH1 0x4 MSTORE PUSH1 0x24 PUSH0 REVERT JUMPDEST SWAP2 PUSH1 0x7F AND SWAP2 PUSH3 0x713 JUMP JUMPDEST DUP2 DUP2 LT PUSH3 0x74A JUMPI POP POP JUMP JUMPDEST PUSH0 DUP2 SSTORE PUSH1 0x1 ADD PUSH3 0x73E JUMP INVALID PUSH1 0x80 PUSH1 0x40 MSTORE PUSH1 0x4 CALLDATASIZE LT ISZERO PUSH2 0x11 JUMPI PUSH0 DUP1 REVERT JUMPDEST PUSH0 CALLDATALOAD PUSH1 0xE0 SHR DUP1 PUSH4 0x1FFC9A7 EQ PUSH2 0x3CA JUMPI DUP1 PUSH4 0x41948CA EQ PUSH2 0x3C5 JUMPI DUP1 PUSH4 0x6FDDE03 EQ PUSH2 0x3C0 JUMPI DUP1 PUSH4 0x81812FC EQ PUSH2 0x3BB JUMPI DUP1 PUSH4 0x95EA7B3 EQ PUSH2 0x3B6 JUMPI DUP1 PUSH4 0xCD305D3 EQ PUSH2 0x3B1 JUMPI DUP1 PUSH4 0xF299E34 EQ PUSH2 0x2D0 JUMPI DUP1 PUSH4 0x1072CBEA EQ PUSH2 0x3AC JUMPI DUP1 PUSH4 0x18160DDD EQ PUSH2 0x3A7 JUMPI DUP1 PUSH4 0x1BBB4D46 EQ PUSH2 0x3A2 JUMPI DUP1 PUSH4 0x2056B05F EQ PUSH2 0x2E9 JUMPI DUP1 PUSH4 0x23B872DD EQ PUSH2 0x39D JUMPI DUP1 PUSH4 0x2602C258 EQ PUSH2 0x398 JUMPI DUP1 PUSH4 0x2F745C59 EQ PUSH2 0x393 JUMPI DUP1 PUSH4 0x336C1AD7 EQ PUSH2 0x38E JUMPI DUP1 PUSH4 0x3E7C2042 EQ PUSH2 0x389 JUMPI DUP1 PUSH4 0x408958D6 EQ PUSH2 0x384 JUMPI DUP1 PUSH4 0x42842E0E EQ PUSH2 0x37F JUMPI DUP1 PUSH4 0x4585E33B EQ PUSH2 0x37A JUMPI DUP1 PUSH4 0x461350D9 EQ PUSH2 0x375 JUMPI DUP1 PUSH4 0x4ED59812 EQ PUSH2 0x370 JUMPI DUP1 PUSH4 0x4F6CCCE7 EQ PUSH2 0x36B JUMPI DUP1 PUSH4 0x56F5C94A EQ PUSH2 0x366 JUMPI DUP1 PUSH4 0x5787A0CC EQ PUSH2 0x361 JUMPI DUP1 PUSH4 0x5E6C102E EQ PUSH2 0x35C JUMPI DUP1 PUSH4 0x5F23B056 EQ PUSH2 0x357 JUMPI DUP1 PUSH4 0x5FF2D2AA EQ PUSH2 0x352 JUMPI DUP1 PUSH4 0x6352211E EQ PUSH2 0x34D JUMPI DUP1 PUSH4 0x6356EEA4 EQ PUSH2 0x348 JUMPI DUP1 PUSH4 0x69FE0E2D EQ PUSH2 0x343 JUMPI DUP1 PUSH4 0x70A08231 EQ PUSH2 0x33E JUMPI DUP1 PUSH4 0x715018A6 EQ PUSH2 0x339 JUMPI DUP1 PUSH4 0x75BCA85A EQ PUSH2 0x334 JUMPI DUP1 PUSH4 0x7823E226 EQ PUSH2 0x32F JUMPI DUP1 PUSH4 0x7C7198CC EQ PUSH2 0x32A JUMPI DUP1 PUSH4 0x7D67E967 EQ PUSH2 0x325 JUMPI DUP1 PUSH4 0x7EB9FD1D EQ PUSH2 0x320 JUMPI DUP1 PUSH4 0x8DA5CB5B EQ PUSH2 0x31B JUMPI DUP1 PUSH4 0x95D89B41 EQ PUSH2 0x316 JUMPI DUP1 PUSH4 0x990581B6 EQ PUSH2 0x311 JUMPI DUP1 PUSH4 0x9B1CB58E EQ PUSH2 0x30C JUMPI DUP1 PUSH4 0xA164205A EQ PUSH2 0x307 JUMPI DUP1 PUSH4 0xA22CB465 EQ PUSH2 0x302 JUMPI DUP1 PUSH4 0xAC3D8153 EQ PUSH2 0x2FD JUMPI DUP1 PUSH4 0xB88D4FDE EQ PUSH2 0x2F8 JUMPI DUP1 PUSH4 0xB9E2FC3E EQ PUSH2 0x2F3 JUMPI DUP1 PUSH4 0xC17589D7 EQ PUSH2 0x2EE JUMPI DUP1 PUSH4 0xC6FEA1A6 EQ PUSH2 0x2E9 JUMPI DUP1 PUSH4 0xC87B56DD EQ PUSH2 0x2E4 JUMPI DUP1 PUSH4 0xD1A34AA3 EQ PUSH2 0x2DF JUMPI DUP1 PUSH4 0xD2AA789F EQ PUSH2 0x2DA JUMPI DUP1 PUSH4 0xD8DB3807 EQ PUSH2 0x2D5 JUMPI DUP1 PUSH4 0xDFCF5189 EQ PUSH2 0x2D0 JUMPI DUP1 PUSH4 0xE168B3A8 EQ PUSH2 0x2CB JUMPI DUP1 PUSH4 0xE83DDCEA EQ PUSH2 0x2C6 JUMPI DUP1 PUSH4 0xE985E9C5 EQ PUSH2 0x2C1 JUMPI DUP1 PUSH4 0xEDCFAFE6 EQ PUSH2 0x2BC JUMPI DUP1 PUSH4 0xF0F2E469 EQ PUSH2 0x2B7 JUMPI DUP1 PUSH4 0xF2FDE38B EQ PUSH2 0x2B2 JUMPI PUSH4 0xF6A800EE EQ PUSH2 0x2AD JUMPI PUSH0 DUP1 REVERT JUMPDEST PUSH2 0x259E JUMP JUMPDEST PUSH2 0x2508 JUMP JUMPDEST PUSH2 0x24EB JUMP JUMPDEST PUSH2 0x23DA JUMP JUMPDEST PUSH2 0x22FB JUMP JUMPDEST PUSH2 0x2254 JUMP JUMPDEST PUSH2 0x2153 JUMP JUMPDEST PUSH2 0x8A6 JUMP JUMPDEST PUSH2 0x20B4 JUMP JUMPDEST PUSH2 0x2080 JUMP JUMPDEST PUSH2 0x2052 JUMP JUMPDEST PUSH2 0x1F78 JUMP JUMPDEST PUSH2 0x9A8 JUMP JUMPDEST PUSH2 0x1F30 JUMP JUMPDEST PUSH2 0x1EF6 JUMP JUMPDEST PUSH2 0x1E97 JUMP JUMPDEST PUSH2 0x1E40 JUMP JUMPDEST PUSH2 0x1D5C JUMP JUMPDEST PUSH2 0x1D25 JUMP JUMPDEST PUSH2 0x1D08 JUMP JUMPDEST PUSH2 0x1C53 JUMP JUMPDEST PUSH2 0x1B75 JUMP JUMPDEST PUSH2 0x1B4D JUMP JUMPDEST PUSH2 0x1B05 JUMP JUMPDEST PUSH2 0x1A73 JUMP JUMPDEST PUSH2 0x1A25 JUMP JUMPDEST PUSH2 0x1A08 JUMP JUMPDEST PUSH2 0x19C0 JUMP JUMPDEST PUSH2 0x1960 JUMP JUMPDEST PUSH2 0x1935 JUMP JUMPDEST PUSH2 0x1907 JUMP JUMPDEST PUSH2 0x1632 JUMP JUMPDEST PUSH2 0x1614 JUMP JUMPDEST PUSH2 0x15C2 JUMP JUMPDEST PUSH2 0x1518 JUMP JUMPDEST PUSH2 0x11F5 JUMP JUMPDEST PUSH2 0x11AE JUMP JUMPDEST PUSH2 0x1186 JUMP JUMPDEST PUSH2 0x10DC JUMP JUMPDEST PUSH2 0x10BF JUMP JUMPDEST PUSH2 0x10A2 JUMP JUMPDEST PUSH2 0xFFB JUMP JUMPDEST PUSH2 0xF8B JUMP JUMPDEST PUSH2 0xF63 JUMP JUMPDEST PUSH2 0xF1E JUMP JUMPDEST PUSH2 0xDFF JUMP JUMPDEST PUSH2 0xD4D JUMP JUMPDEST PUSH2 0xCB1 JUMP JUMPDEST PUSH2 0xA42 JUMP JUMPDEST PUSH2 0x980 JUMP JUMPDEST PUSH2 0x963 JUMP JUMPDEST PUSH2 0x8D0 JUMP JUMPDEST PUSH2 0x869 JUMP JUMPDEST PUSH2 0x696 JUMP JUMPDEST PUSH2 0x63A JUMP JUMPDEST PUSH2 0x581 JUMP JUMPDEST PUSH2 0x4B1 JUMP JUMPDEST PUSH2 0x3E5 JUMP JUMPDEST PUSH1 0x1 PUSH1 0x1 PUSH1 0xE0 SHL SUB NOT DUP2 AND SUB PUSH2 0x3E1 JUMPI JUMP JUMPDEST PUSH0 DUP1 REVERT JUMPDEST CALLVALUE PUSH2 0x3E1 JUMPI PUSH1 0x20 CALLDATASIZE PUSH1 0x3 NOT ADD SLT PUSH2 0x3E1 JUMPI PUSH1 0x20 PUSH1 0x4 CALLDATALOAD PUSH2 0x404 DUP2 PUSH2 0x3CF JUMP JUMPDEST PUSH4 0xFFFFFFFF PUSH1 0xE0 SHL AND PUSH4 0x780E9D63 PUSH1 0xE0 SHL DUP2 EQ SWAP1 DUP2 ISZERO PUSH2 0x42A JUMPI JUMPDEST POP PUSH1 0x40 MLOAD SWAP1 ISZERO ISZERO DUP2 MSTORE RETURN JUMPDEST PUSH4 0x80AC58CD PUSH1 0xE0 SHL DUP2 EQ SWAP2 POP DUP2 ISZERO PUSH2 0x45C JUMPI JUMPDEST DUP2 ISZERO PUSH2 0x44B JUMPI JUMPDEST POP PUSH0 PUSH2 0x41F JUMP JUMPDEST PUSH4 0x1FFC9A7 PUSH1 0xE0 SHL EQ SWAP1 POP PUSH0 PUSH2 0x444 JUMP JUMPDEST PUSH4 0x5B5E139F PUSH1 0xE0 SHL DUP2 EQ SWAP2 POP PUSH2 0x43D JUMP JUMPDEST PUSH0 SWAP2 SUB SLT PUSH2 0x3E1 JUMPI JUMP JUMPDEST PUSH1 0x20 SWAP1 DUP2 PUSH1 0x40 DUP2 DUP4 ADD SWAP3 DUP3 DUP2 MSTORE DUP6 MLOAD DUP1 SWAP5 MSTORE ADD SWAP4 ADD SWAP2 PUSH0 JUMPDEST DUP3 DUP2 LT PUSH2 0x49D JUMPI POP POP POP POP SWAP1 JUMP JUMPDEST DUP4 MLOAD DUP6 MSTORE SWAP4 DUP2 ADD SWAP4 SWAP3 DUP2 ADD SWAP3 PUSH1 0x1 ADD PUSH2 0x48F JUMP JUMPDEST CALLVALUE PUSH2 0x3E1 JUMPI PUSH0 DUP1 PUSH1 0x3 NOT CALLDATASIZE ADD SLT PUSH2 0x524 JUMPI PUSH1 0x40 MLOAD PUSH1 0x13 DUP1 SLOAD DUP1 DUP4 MSTORE SWAP1 DUP4 MSTORE PUSH1 0x20 DUP1 DUP4 ADD SWAP4 PUSH0 DUP1 MLOAD PUSH1 0x20 PUSH2 0x4583 DUP4 CODECOPY DUP2 MLOAD SWAP2 MSTORE SWAP3 SWAP2 JUMPDEST DUP3 DUP3 LT PUSH2 0x50D JUMPI PUSH2 0x509 DUP6 PUSH2 0x4FD DUP2 DUP10 SUB DUP3 PUSH2 0xB04 JUMP JUMPDEST PUSH1 0x40 MLOAD SWAP2 DUP3 SWAP2 DUP3 PUSH2 0x477 JUMP JUMPDEST SUB SWAP1 RETURN JUMPDEST DUP4 SLOAD DUP7 MSTORE SWAP5 DUP6 ADD SWAP5 PUSH1 0x1 SWAP4 DUP5 ADD SWAP4 SWAP1 SWAP2 ADD SWAP1 PUSH2 0x4E6 JUMP JUMPDEST DUP1 REVERT JUMPDEST PUSH0 JUMPDEST DUP4 DUP2 LT PUSH2 0x538 JUMPI POP POP PUSH0 SWAP2 ADD MSTORE JUMP JUMPDEST DUP2 DUP2 ADD MLOAD DUP4 DUP3 ADD MSTORE PUSH1 0x20 ADD PUSH2 0x529 JUMP JUMPDEST SWAP1 PUSH1 0x20 SWAP2 PUSH2 0x561 DUP2 MLOAD DUP1 SWAP3 DUP2 DUP6 MSTORE DUP6 DUP1 DUP7 ADD SWAP2 ADD PUSH2 0x527 JUMP JUMPDEST PUSH1 0x1F ADD PUSH1 0x1F NOT AND ADD ADD SWAP1 JUMP JUMPDEST SWAP1 PUSH1 0x20 PUSH2 0x57E SWAP3 DUP2 DUP2 MSTORE ADD SWAP1 PUSH2 0x548 JUMP JUMPDEST SWAP1 JUMP JUMPDEST CALLVALUE PUSH2 0x3E1 JUMPI PUSH0 DUP1 PUSH1 0x3 NOT CALLDATASIZE ADD SLT PUSH2 0x524 JUMPI PUSH1 0x40 MLOAD DUP2 DUP1 SLOAD PUSH2 0x5A1 DUP2 PUSH2 0x2170 JUMP JUMPDEST DUP1 DUP5 MSTORE SWAP1 PUSH1 0x1 SWAP1 DUP2 DUP2 AND SWAP1 DUP2 ISZERO PUSH2 0x612 JUMPI POP PUSH1 0x1 EQ PUSH2 0x5D7 JUMPI JUMPDEST PUSH2 0x509 DUP5 PUSH2 0x5CB DUP2 DUP9 SUB DUP3 PUSH2 0xB04 JUMP JUMPDEST PUSH1 0x40 MLOAD SWAP2 DUP3 SWAP2 DUP3 PUSH2 0x56D JUMP JUMPDEST SWAP4 POP DUP2 DUP1 MSTORE PUSH1 0x20 SWAP4 DUP5 DUP4 KECCAK256 JUMPDEST DUP3 DUP5 LT PUSH2 0x5FF JUMPI POP POP POP DUP2 PUSH2 0x509 SWAP4 PUSH2 0x5CB SWAP3 DUP3 ADD ADD SWAP4 PUSH2 0x5BB JUMP JUMPDEST DUP1 SLOAD DUP6 DUP6 ADD DUP8 ADD MSTORE SWAP3 DUP6 ADD SWAP3 DUP2 ADD PUSH2 0x5E3 JUMP JUMPDEST PUSH2 0x509 SWAP7 POP PUSH2 0x5CB SWAP5 POP PUSH1 0x20 SWAP3 POP DUP6 SWAP4 SWAP2 POP PUSH1 0xFF NOT AND DUP3 DUP5 ADD MSTORE ISZERO ISZERO PUSH1 0x5 SHL DUP3 ADD ADD SWAP4 PUSH2 0x5BB JUMP JUMPDEST CALLVALUE PUSH2 0x3E1 JUMPI PUSH1 0x20 CALLDATASIZE PUSH1 0x3 NOT ADD SLT PUSH2 0x3E1 JUMPI PUSH1 0x20 PUSH2 0x658 PUSH1 0x4 CALLDATALOAD PUSH2 0x27CD JUMP JUMPDEST PUSH1 0x40 MLOAD PUSH1 0x1 PUSH1 0x1 PUSH1 0xA0 SHL SUB SWAP1 SWAP2 AND DUP2 MSTORE RETURN JUMPDEST PUSH1 0x4 CALLDATALOAD SWAP1 PUSH1 0x1 PUSH1 0x1 PUSH1 0xA0 SHL SUB DUP3 AND DUP3 SUB PUSH2 0x3E1 JUMPI JUMP JUMPDEST PUSH1 0x24 CALLDATALOAD SWAP1 PUSH1 0x1 PUSH1 0x1 PUSH1 0xA0 SHL SUB DUP3 AND DUP3 SUB PUSH2 0x3E1 JUMPI JUMP JUMPDEST CALLVALUE PUSH2 0x3E1 JUMPI PUSH1 0x40 CALLDATASIZE PUSH1 0x3 NOT ADD SLT PUSH2 0x3E1 JUMPI PUSH2 0x6AF PUSH2 0x66A JUMP JUMPDEST PUSH1 0x24 CALLDATALOAD PUSH2 0x6BB DUP2 PUSH2 0x26D7 JUMP JUMPDEST SWAP2 PUSH1 0x1 PUSH1 0x1 PUSH1 0xA0 SHL SUB DUP1 DUP5 AND SWAP1 DUP3 AND DUP2 EQ PUSH2 0x733 JUMPI PUSH2 0x6ED SWAP4 PUSH2 0x6E8 SWAP2 CALLER EQ SWAP1 DUP2 ISZERO PUSH2 0x6EF JUMPI JUMPDEST POP PUSH2 0x2760 JUMP JUMPDEST PUSH2 0x2C9C JUMP JUMPDEST STOP JUMPDEST PUSH1 0x1 PUSH1 0x1 PUSH1 0xA0 SHL SUB AND PUSH0 SWAP1 DUP2 MSTORE PUSH1 0x5 PUSH1 0x20 MSTORE PUSH1 0x40 SWAP1 KECCAK256 PUSH2 0x72D SWAP2 POP PUSH2 0x726 SWAP1 CALLER SWAP1 JUMPDEST SWAP1 PUSH1 0x1 DUP1 PUSH1 0xA0 SHL SUB AND PUSH0 MSTORE PUSH1 0x20 MSTORE PUSH1 0x40 PUSH0 KECCAK256 SWAP1 JUMP JUMPDEST SLOAD PUSH1 0xFF AND SWAP1 JUMP JUMPDEST PUSH0 PUSH2 0x6E2 JUMP JUMPDEST PUSH1 0x40 MLOAD PUSH3 0x461BCD PUSH1 0xE5 SHL DUP2 MSTORE PUSH1 0x20 PUSH1 0x4 DUP3 ADD MSTORE PUSH1 0x21 PUSH1 0x24 DUP3 ADD MSTORE PUSH32 0x4552433732313A20617070726F76616C20746F2063757272656E74206F776E65 PUSH1 0x44 DUP3 ADD MSTORE PUSH1 0x39 PUSH1 0xF9 SHL PUSH1 0x64 DUP3 ADD MSTORE PUSH1 0x84 SWAP1 REVERT JUMPDEST PUSH4 0x4E487B71 PUSH1 0xE0 SHL PUSH0 MSTORE PUSH1 0x32 PUSH1 0x4 MSTORE PUSH1 0x24 PUSH0 REVERT JUMPDEST PUSH1 0x13 SLOAD DUP2 LT ISZERO PUSH2 0x7AE JUMPI PUSH1 0x13 PUSH0 MSTORE PUSH1 0x20 PUSH0 KECCAK256 ADD SWAP1 PUSH0 SWAP1 JUMP JUMPDEST PUSH2 0x782 JUMP JUMPDEST PUSH1 0xF SLOAD DUP2 LT ISZERO PUSH2 0x7AE JUMPI PUSH1 0xF PUSH0 MSTORE PUSH1 0x20 PUSH0 KECCAK256 ADD SWAP1 PUSH0 SWAP1 JUMP JUMPDEST PUSH1 0xF SLOAD ISZERO PUSH2 0x7AE JUMPI PUSH1 0xF PUSH0 SWAP1 DUP2 MSTORE PUSH0 DUP1 MLOAD PUSH1 0x20 PUSH2 0x45A3 DUP4 CODECOPY DUP2 MLOAD SWAP2 MSTORE SWAP2 JUMP JUMPDEST PUSH1 0xF SLOAD PUSH1 0x2 LT ISZERO PUSH2 0x7AE JUMPI PUSH1 0xF PUSH0 SWAP1 DUP2 MSTORE PUSH32 0x8D1108E10BCB7C27DDDFC02ED9D693A074039D026CF4EA4240B40F7D581AC804 SWAP2 JUMP JUMPDEST PUSH1 0xF SLOAD PUSH1 0x1 LT ISZERO PUSH2 0x7AE JUMPI PUSH1 0xF PUSH0 SWAP1 DUP2 MSTORE PUSH32 0x8D1108E10BCB7C27DDDFC02ED9D693A074039D026CF4EA4240B40F7D581AC803 SWAP2 JUMP JUMPDEST DUP1 SLOAD DUP3 LT ISZERO PUSH2 0x7AE JUMPI PUSH0 MSTORE PUSH1 0x20 PUSH0 KECCAK256 ADD SWAP1 PUSH0 SWAP1 JUMP JUMPDEST CALLVALUE PUSH2 0x3E1 JUMPI PUSH1 0x20 CALLDATASIZE PUSH1 0x3 NOT ADD SLT PUSH2 0x3E1 JUMPI PUSH1 0x4 CALLDATALOAD PUSH1 0x13 SLOAD DUP2 LT ISZERO PUSH2 0x3E1 JUMPI PUSH1 0x13 PUSH0 MSTORE PUSH0 DUP1 MLOAD PUSH1 0x20 PUSH2 0x4583 DUP4 CODECOPY DUP2 MLOAD SWAP2 MSTORE ADD SLOAD PUSH1 0x40 MLOAD SWAP1 DUP2 MSTORE PUSH1 0x20 SWAP1 RETURN JUMPDEST CALLVALUE PUSH2 0x3E1 JUMPI PUSH1 0x20 CALLDATASIZE PUSH1 0x3 NOT ADD SLT PUSH2 0x3E1 JUMPI PUSH1 0x4 CALLDATALOAD PUSH0 MSTORE PUSH1 0x12 PUSH1 0x20 MSTORE PUSH1 0x20 PUSH1 0x40 PUSH0 KECCAK256 SLOAD PUSH1 0x40 MLOAD SWAP1 DUP2 MSTORE RETURN JUMPDEST CALLVALUE PUSH2 0x3E1 JUMPI PUSH1 0x40 CALLDATASIZE PUSH1 0x3 NOT ADD SLT PUSH2 0x3E1 JUMPI PUSH2 0x8E9 PUSH2 0x66A JUMP JUMPDEST PUSH1 0x24 CALLDATALOAD PUSH2 0x8F5 DUP2 PUSH2 0x26D7 JUMP JUMPDEST CALLER PUSH1 0x1 PUSH1 0x1 PUSH1 0xA0 SHL SUB SWAP1 SWAP2 AND SUB PUSH2 0x910 JUMPI PUSH2 0x6ED SWAP2 CALLER PUSH2 0x2B09 JUMP JUMPDEST PUSH1 0x40 MLOAD PUSH3 0x461BCD PUSH1 0xE5 SHL DUP2 MSTORE PUSH1 0x20 PUSH1 0x4 DUP3 ADD MSTORE PUSH1 0x25 PUSH1 0x24 DUP3 ADD MSTORE PUSH32 0x4F6E6C7920746865206F776E65722063616E207472616E736665722074686520 PUSH1 0x44 DUP3 ADD MSTORE PUSH5 0x3A37B5B2B7 PUSH1 0xD9 SHL PUSH1 0x64 DUP3 ADD MSTORE PUSH1 0x84 SWAP1 REVERT JUMPDEST CALLVALUE PUSH2 0x3E1 JUMPI PUSH0 CALLDATASIZE PUSH1 0x3 NOT ADD SLT PUSH2 0x3E1 JUMPI PUSH1 0x20 PUSH1 0x8 SLOAD PUSH1 0x40 MLOAD SWAP1 DUP2 MSTORE RETURN JUMPDEST CALLVALUE PUSH2 0x3E1 JUMPI PUSH0 CALLDATASIZE PUSH1 0x3 NOT ADD SLT PUSH2 0x3E1 JUMPI PUSH1 0x18 SLOAD PUSH1 0x40 MLOAD PUSH1 0x1 PUSH1 0x1 PUSH1 0xA0 SHL SUB SWAP1 SWAP2 AND DUP2 MSTORE PUSH1 0x20 SWAP1 RETURN JUMPDEST CALLVALUE PUSH2 0x3E1 JUMPI PUSH1 0x20 DUP1 PUSH1 0x3 NOT CALLDATASIZE ADD SLT PUSH2 0x3E1 JUMPI PUSH1 0x4 CALLDATALOAD PUSH0 MSTORE PUSH1 0xC DUP2 MSTORE PUSH1 0x40 PUSH0 KECCAK256 SWAP1 PUSH1 0x40 MLOAD SWAP1 DUP2 DUP2 DUP5 SLOAD SWAP2 DUP3 DUP2 MSTORE ADD SWAP4 PUSH0 MSTORE DUP2 PUSH0 KECCAK256 SWAP2 PUSH0 SWAP1 JUMPDEST DUP3 DUP3 LT PUSH2 0x9F6 JUMPI PUSH2 0x509 DUP6 PUSH2 0x4FD DUP2 DUP10 SUB DUP3 PUSH2 0xB04 JUMP JUMPDEST DUP4 SLOAD DUP7 MSTORE SWAP5 DUP6 ADD SWAP5 PUSH1 0x1 SWAP4 DUP5 ADD SWAP4 SWAP1 SWAP2 ADD SWAP1 PUSH2 0x9DF JUMP JUMPDEST PUSH1 0x60 SWAP1 PUSH1 0x3 NOT ADD SLT PUSH2 0x3E1 JUMPI PUSH1 0x1 PUSH1 0x1 PUSH1 0xA0 SHL SUB SWAP1 PUSH1 0x4 CALLDATALOAD DUP3 DUP2 AND DUP2 SUB PUSH2 0x3E1 JUMPI SWAP2 PUSH1 0x24 CALLDATALOAD SWAP1 DUP2 AND DUP2 SUB PUSH2 0x3E1 JUMPI SWAP1 PUSH1 0x44 CALLDATALOAD SWAP1 JUMP JUMPDEST CALLVALUE PUSH2 0x3E1 JUMPI PUSH2 0x6ED PUSH2 0xA53 CALLDATASIZE PUSH2 0xA0D JUMP JUMPDEST SWAP2 PUSH2 0xA66 PUSH2 0xA61 DUP5 CALLER PUSH2 0x2987 JUMP JUMPDEST PUSH2 0x284F JUMP JUMPDEST PUSH2 0x2B09 JUMP JUMPDEST PUSH4 0x4E487B71 PUSH1 0xE0 SHL PUSH0 MSTORE PUSH1 0x41 PUSH1 0x4 MSTORE PUSH1 0x24 PUSH0 REVERT JUMPDEST PUSH2 0x120 DUP2 ADD SWAP1 DUP2 LT PUSH1 0x1 PUSH1 0x1 PUSH1 0x40 SHL SUB DUP3 GT OR PUSH2 0xA9B JUMPI PUSH1 0x40 MSTORE JUMP JUMPDEST PUSH2 0xA6B JUMP JUMPDEST PUSH1 0xA0 DUP2 ADD SWAP1 DUP2 LT PUSH1 0x1 PUSH1 0x1 PUSH1 0x40 SHL SUB DUP3 GT OR PUSH2 0xA9B JUMPI PUSH1 0x40 MSTORE JUMP JUMPDEST PUSH1 0x1 PUSH1 0x1 PUSH1 0x40 SHL SUB DUP2 GT PUSH2 0xA9B JUMPI PUSH1 0x40 MSTORE JUMP JUMPDEST PUSH1 0x20 DUP2 ADD SWAP1 DUP2 LT PUSH1 0x1 PUSH1 0x1 PUSH1 0x40 SHL SUB DUP3 GT OR PUSH2 0xA9B JUMPI PUSH1 0x40 MSTORE JUMP JUMPDEST PUSH1 0x40 DUP2 ADD SWAP1 DUP2 LT PUSH1 0x1 PUSH1 0x1 PUSH1 0x40 SHL SUB DUP3 GT OR PUSH2 0xA9B JUMPI PUSH1 0x40 MSTORE JUMP JUMPDEST SWAP1 PUSH1 0x1F DUP1 NOT SWAP2 ADD AND DUP2 ADD SWAP1 DUP2 LT PUSH1 0x1 PUSH1 0x1 PUSH1 0x40 SHL SUB DUP3 GT OR PUSH2 0xA9B JUMPI PUSH1 0x40 MSTORE JUMP JUMPDEST PUSH1 0x40 MLOAD SWAP1 PUSH2 0xB32 DUP3 PUSH2 0xAA0 JUMP JUMPDEST JUMP JUMPDEST PUSH1 0x40 MLOAD SWAP1 PUSH2 0xB32 DUP3 PUSH2 0xA7F JUMP JUMPDEST PUSH1 0x1 PUSH1 0x1 PUSH1 0x40 SHL SUB DUP2 GT PUSH2 0xA9B JUMPI PUSH1 0x1F ADD PUSH1 0x1F NOT AND PUSH1 0x20 ADD SWAP1 JUMP JUMPDEST SWAP3 SWAP2 SWAP3 PUSH2 0xB68 DUP3 PUSH2 0xB41 JUMP JUMPDEST SWAP2 PUSH2 0xB76 PUSH1 0x40 MLOAD SWAP4 DUP5 PUSH2 0xB04 JUMP JUMPDEST DUP3 SWAP5 DUP2 DUP5 MSTORE DUP2 DUP4 ADD GT PUSH2 0x3E1 JUMPI DUP3 DUP2 PUSH1 0x20 SWAP4 DUP5 PUSH0 SWAP7 ADD CALLDATACOPY ADD ADD MSTORE JUMP JUMPDEST SWAP1 DUP1 PUSH1 0x1F DUP4 ADD SLT ISZERO PUSH2 0x3E1 JUMPI DUP2 PUSH1 0x20 PUSH2 0x57E SWAP4 CALLDATALOAD SWAP2 ADD PUSH2 0xB5C JUMP JUMPDEST SWAP1 PUSH1 0x40 PUSH1 0x3 NOT DUP4 ADD SLT PUSH2 0x3E1 JUMPI PUSH1 0x1 PUSH1 0x1 PUSH1 0x40 SHL SUB PUSH1 0x4 CALLDATALOAD DUP2 DUP2 GT PUSH2 0x3E1 JUMPI DUP4 PUSH2 0xBD9 SWAP2 PUSH1 0x4 ADD PUSH2 0xB92 JUMP JUMPDEST SWAP3 PUSH1 0x24 CALLDATALOAD SWAP2 DUP3 GT PUSH2 0x3E1 JUMPI PUSH2 0x57E SWAP2 PUSH1 0x4 ADD PUSH2 0xB92 JUMP JUMPDEST PUSH1 0x20 DUP2 MSTORE DUP2 MLOAD PUSH2 0xC9A PUSH2 0xC11 PUSH2 0x120 SWAP3 DUP4 PUSH1 0x20 DUP7 ADD MSTORE PUSH2 0x140 DUP6 ADD SWAP1 PUSH2 0x548 JUMP JUMPDEST PUSH2 0xC85 PUSH2 0xC71 PUSH2 0xC5D PUSH2 0xC36 PUSH1 0x20 DUP10 ADD MLOAD SWAP5 PUSH1 0x1F NOT SWAP6 DUP7 DUP11 DUP4 SUB ADD PUSH1 0x40 DUP12 ADD MSTORE PUSH2 0x548 JUMP JUMPDEST PUSH1 0x40 DUP10 ADD MLOAD PUSH1 0x1 PUSH1 0x1 PUSH1 0xA0 SHL SUB AND PUSH1 0x60 DUP10 ADD MSTORE PUSH1 0x60 DUP10 ADD MLOAD DUP6 DUP10 DUP4 SUB ADD PUSH1 0x80 DUP11 ADD MSTORE PUSH2 0x548 JUMP JUMPDEST PUSH1 0x80 DUP9 ADD MLOAD DUP5 DUP9 DUP4 SUB ADD PUSH1 0xA0 DUP10 ADD MSTORE PUSH2 0x548 JUMP JUMPDEST PUSH1 0xA0 DUP8 ADD MLOAD DUP4 DUP8 DUP4 SUB ADD PUSH1 0xC0 DUP9 ADD MSTORE PUSH2 0x548 JUMP JUMPDEST SWAP1 PUSH1 0xC0 DUP7 ADD MLOAD SWAP1 DUP6 DUP4 SUB ADD PUSH1 0xE0 DUP7 ADD MSTORE PUSH2 0x548 JUMP JUMPDEST SWAP3 PUSH1 0xE0 DUP2 ADD MLOAD SWAP1 PUSH2 0x100 SWAP2 DUP3 DUP6 ADD MSTORE ADD MLOAD SWAP2 ADD MSTORE SWAP1 JUMP JUMPDEST CALLVALUE PUSH2 0x3E1 JUMPI PUSH2 0xD2A PUSH2 0xD19 PUSH2 0xD21 PUSH2 0xCC8 CALLDATASIZE PUSH2 0xBAD JUMP JUMPDEST PUSH0 PUSH2 0x100 PUSH1 0x40 SWAP6 SWAP4 SWAP6 MLOAD PUSH2 0xCDB DUP2 PUSH2 0xA7F JUMP JUMPDEST PUSH1 0x60 DUP1 DUP3 MSTORE DUP1 PUSH1 0x20 DUP4 ADD MSTORE DUP4 PUSH1 0x40 DUP4 ADD MSTORE DUP1 DUP1 DUP4 ADD MSTORE DUP1 PUSH1 0x80 DUP4 ADD MSTORE DUP1 PUSH1 0xA0 DUP4 ADD MSTORE PUSH1 0xC0 DUP3 ADD MSTORE DUP3 PUSH1 0xE0 DUP3 ADD MSTORE ADD MSTORE PUSH2 0xD13 DUP5 PUSH2 0x249F JUMP JUMPDEST SWAP1 PUSH2 0x24C5 JUMP JUMPDEST SLOAD ISZERO ISZERO PUSH2 0x42C6 JUMP JUMPDEST PUSH2 0xD13 DUP2 PUSH2 0x249F JUMP JUMPDEST SLOAD PUSH0 MSTORE PUSH1 0x10 PUSH1 0x20 MSTORE PUSH2 0x509 PUSH2 0xD41 PUSH1 0x40 PUSH0 KECCAK256 PUSH2 0x431C JUMP JUMPDEST PUSH1 0x40 MLOAD SWAP2 DUP3 SWAP2 DUP3 PUSH2 0xBF0 JUMP JUMPDEST CALLVALUE PUSH2 0x3E1 JUMPI PUSH1 0x40 CALLDATASIZE PUSH1 0x3 NOT ADD SLT PUSH2 0x3E1 JUMPI PUSH2 0xD66 PUSH2 0x66A JUMP JUMPDEST PUSH1 0x24 CALLDATALOAD SWAP1 PUSH2 0xD73 DUP2 PUSH2 0x2661 JUMP JUMPDEST DUP3 LT ISZERO PUSH2 0xDA6 JUMPI PUSH1 0x1 PUSH1 0x1 PUSH1 0xA0 SHL SUB AND PUSH0 SWAP1 DUP2 MSTORE PUSH1 0x6 PUSH1 0x20 SWAP1 DUP2 MSTORE PUSH1 0x40 DUP1 DUP4 KECCAK256 SWAP4 DUP4 MSTORE SWAP3 DUP2 MSTORE SWAP1 DUP3 SWAP1 KECCAK256 SLOAD SWAP2 MLOAD SWAP2 DUP3 MSTORE SWAP1 RETURN JUMPDEST PUSH1 0x40 MLOAD PUSH3 0x461BCD PUSH1 0xE5 SHL DUP2 MSTORE PUSH1 0x20 PUSH1 0x4 DUP3 ADD MSTORE PUSH1 0x2B PUSH1 0x24 DUP3 ADD MSTORE PUSH32 0x455243373231456E756D657261626C653A206F776E657220696E646578206F75 PUSH1 0x44 DUP3 ADD MSTORE PUSH11 0x74206F6620626F756E6473 PUSH1 0xA8 SHL PUSH1 0x64 DUP3 ADD MSTORE PUSH1 0x84 SWAP1 REVERT JUMPDEST CALLVALUE PUSH2 0x3E1 JUMPI PUSH1 0x20 CALLDATASIZE PUSH1 0x3 NOT ADD SLT PUSH2 0x3E1 JUMPI PUSH1 0x1A SLOAD PUSH1 0x4 CALLDATALOAD SWAP1 PUSH1 0x20 SWAP1 PUSH1 0x1 PUSH1 0x1 PUSH1 0xA0 SHL SUB AND SWAP2 PUSH2 0xE4D PUSH1 0x1 PUSH1 0x1 PUSH1 0xA0 SHL SUB PUSH2 0xE3C DUP2 DUP7 AND ISZERO ISZERO PUSH2 0x44B3 JUMP JUMPDEST PUSH2 0xE45 DUP4 PUSH2 0x26D7 JUMP JUMPDEST AND CALLER EQ PUSH2 0x427A JUMP JUMPDEST PUSH2 0xE72 DUP2 PUSH2 0xE6B PUSH2 0xE66 DUP3 PUSH0 MSTORE PUSH1 0x10 PUSH1 0x20 MSTORE PUSH1 0x40 PUSH0 KECCAK256 SWAP1 JUMP JUMPDEST PUSH2 0x431C JUMP JUMPDEST SWAP5 CALLER PUSH2 0x28B5 JUMP JUMPDEST PUSH1 0x1A SLOAD PUSH2 0xE95 SWAP1 PUSH2 0xE89 SWAP1 PUSH1 0x1 PUSH1 0x1 PUSH1 0xA0 SHL SUB AND DUP2 JUMP JUMPDEST PUSH1 0x1 PUSH1 0x1 PUSH1 0xA0 SHL SUB AND SWAP1 JUMP JUMPDEST PUSH1 0x40 DUP5 ADD MLOAD PUSH1 0x1 PUSH1 0x1 PUSH1 0xA0 SHL SUB AND PUSH0 PUSH1 0x60 DUP7 ADD MLOAD SWAP4 PUSH2 0xEE2 DUP7 DUP9 ADD MLOAD SWAP8 PUSH1 0xA0 DUP2 ADD MLOAD SWAP1 PUSH1 0xC0 DUP2 ADD MLOAD PUSH1 0x80 DUP3 MLOAD SWAP3 ADD MLOAD SWAP3 PUSH1 0x40 MLOAD SWAP12 DUP13 SWAP11 DUP12 SWAP10 DUP11 SWAP9 PUSH4 0xBA833F23 PUSH1 0xE0 SHL DUP11 MSTORE PUSH1 0x4 DUP11 ADD PUSH2 0x44FF JUMP JUMPDEST SUB SWAP3 GAS CALL DUP1 ISZERO PUSH2 0xF19 JUMPI PUSH2 0xEF2 JUMPI STOP JUMPDEST PUSH2 0x6ED SWAP1 PUSH1 0x20 RETURNDATASIZE DUP2 GT PUSH2 0xF12 JUMPI JUMPDEST PUSH2 0xF0A DUP2 DUP4 PUSH2 0xB04 JUMP JUMPDEST DUP2 ADD SWAP1 PUSH2 0x330D JUMP JUMPDEST POP RETURNDATASIZE PUSH2 0xF00 JUMP JUMPDEST PUSH2 0x2D6E JUMP JUMPDEST CALLVALUE PUSH2 0x3E1 JUMPI PUSH1 0x40 CALLDATASIZE PUSH1 0x3 NOT ADD SLT PUSH2 0x3E1 JUMPI PUSH1 0x24 CALLDATALOAD PUSH1 0x4 CALLDATALOAD PUSH0 MSTORE PUSH1 0xC PUSH1 0x20 MSTORE PUSH1 0x40 PUSH0 KECCAK256 DUP1 SLOAD DUP3 LT ISZERO PUSH2 0x3E1 JUMPI PUSH1 0x20 SWAP2 PUSH2 0xF55 SWAP2 PUSH2 0x854 JUMP JUMPDEST SWAP1 SLOAD PUSH1 0x40 MLOAD SWAP2 PUSH1 0x3 SHL SHR DUP2 MSTORE RETURN JUMPDEST CALLVALUE PUSH2 0x3E1 JUMPI PUSH0 CALLDATASIZE PUSH1 0x3 NOT ADD SLT PUSH2 0x3E1 JUMPI PUSH1 0x16 SLOAD PUSH1 0x40 MLOAD PUSH1 0x1 PUSH1 0x1 PUSH1 0xA0 SHL SUB SWAP1 SWAP2 AND DUP2 MSTORE PUSH1 0x20 SWAP1 RETURN JUMPDEST CALLVALUE PUSH2 0x3E1 JUMPI PUSH2 0x6ED PUSH2 0xF9C CALLDATASIZE PUSH2 0xA0D JUMP JUMPDEST SWAP1 PUSH1 0x40 MLOAD SWAP3 PUSH2 0xFAA DUP5 PUSH2 0xACE JUMP JUMPDEST PUSH0 DUP5 MSTORE PUSH2 0x28C8 JUMP JUMPDEST SWAP1 PUSH1 0x20 PUSH1 0x3 NOT DUP4 ADD SLT PUSH2 0x3E1 JUMPI PUSH1 0x4 CALLDATALOAD PUSH1 0x1 PUSH1 0x1 PUSH1 0x40 SHL SUB SWAP3 DUP4 DUP3 GT PUSH2 0x3E1 JUMPI DUP1 PUSH1 0x23 DUP4 ADD SLT ISZERO PUSH2 0x3E1 JUMPI DUP2 PUSH1 0x4 ADD CALLDATALOAD SWAP4 DUP5 GT PUSH2 0x3E1 JUMPI PUSH1 0x24 DUP5 DUP4 ADD ADD GT PUSH2 0x3E1 JUMPI PUSH1 0x24 ADD SWAP2 SWAP1 JUMP JUMPDEST CALLVALUE PUSH2 0x3E1 JUMPI PUSH2 0x1009 CALLDATASIZE PUSH2 0xFB2 JUMP JUMPDEST PUSH1 0x1F SLOAD CALLER PUSH1 0x1 PUSH1 0x1 PUSH1 0xA0 SHL SUB SWAP2 DUP3 AND EQ SWAP1 DUP2 ISZERO PUSH2 0x1094 JUMPI JUMPDEST POP ISZERO PUSH2 0x1030 JUMPI PUSH2 0x6ED SWAP2 PUSH2 0x4063 JUMP JUMPDEST PUSH1 0x40 MLOAD PUSH3 0x461BCD PUSH1 0xE5 SHL DUP2 MSTORE PUSH1 0x20 PUSH1 0x4 DUP3 ADD MSTORE PUSH1 0x36 PUSH1 0x24 DUP3 ADD MSTORE PUSH32 0x4E6F742074686520636F6E7472616374206F776E6572206F72204175746F6D61 PUSH1 0x44 DUP3 ADD MSTORE PUSH22 0x1D1A5BDB88149959DA5CDD1C9E4810DBDB9D1C9858DD PUSH1 0x52 SHL PUSH1 0x64 DUP3 ADD MSTORE PUSH1 0x84 SWAP1 REVERT JUMPDEST SWAP1 POP PUSH1 0x17 SLOAD AND CALLER EQ PUSH0 PUSH2 0x1021 JUMP JUMPDEST CALLVALUE PUSH2 0x3E1 JUMPI PUSH0 CALLDATASIZE PUSH1 0x3 NOT ADD SLT PUSH2 0x3E1 JUMPI PUSH1 0x20 PUSH1 0x13 SLOAD PUSH1 0x40 MLOAD SWAP1 DUP2 MSTORE RETURN JUMPDEST CALLVALUE PUSH2 0x3E1 JUMPI PUSH0 CALLDATASIZE PUSH1 0x3 NOT ADD SLT PUSH2 0x3E1 JUMPI PUSH1 0x20 PUSH1 0x1D SLOAD PUSH1 0x40 MLOAD SWAP1 DUP2 MSTORE RETURN JUMPDEST CALLVALUE PUSH2 0x3E1 JUMPI PUSH1 0x20 CALLDATASIZE PUSH1 0x3 NOT ADD SLT PUSH2 0x3E1 JUMPI PUSH1 0x4 CALLDATALOAD PUSH1 0x8 SLOAD DUP2 LT ISZERO PUSH2 0x112C JUMPI PUSH1 0x8 PUSH0 MSTORE PUSH32 0xF3F7A9FE364FAAB93B216DA50A3214154F22A0A2B415B23A84C8169E8B636EE3 ADD SLOAD PUSH1 0x40 MLOAD SWAP1 DUP2 MSTORE PUSH1 0x20 SWAP1 RETURN JUMPDEST PUSH1 0x40 MLOAD PUSH3 0x461BCD PUSH1 0xE5 SHL DUP2 MSTORE PUSH1 0x20 PUSH1 0x4 DUP3 ADD MSTORE PUSH1 0x2C PUSH1 0x24 DUP3 ADD MSTORE PUSH32 0x455243373231456E756D657261626C653A20676C6F62616C20696E646578206F PUSH1 0x44 DUP3 ADD MSTORE PUSH12 0x7574206F6620626F756E6473 PUSH1 0xA0 SHL PUSH1 0x64 DUP3 ADD MSTORE PUSH1 0x84 SWAP1 REVERT JUMPDEST CALLVALUE PUSH2 0x3E1 JUMPI PUSH0 CALLDATASIZE PUSH1 0x3 NOT ADD SLT PUSH2 0x3E1 JUMPI PUSH1 0x19 SLOAD PUSH1 0x40 MLOAD PUSH1 0x1 PUSH1 0x1 PUSH1 0xA0 SHL SUB SWAP1 SWAP2 AND DUP2 MSTORE PUSH1 0x20 SWAP1 RETURN JUMPDEST CALLVALUE PUSH2 0x3E1 JUMPI PUSH1 0x20 CALLDATASIZE PUSH1 0x3 NOT ADD SLT PUSH2 0x3E1 JUMPI PUSH2 0x11D4 PUSH1 0x1 DUP1 PUSH1 0xA0 SHL SUB PUSH1 0xA SLOAD AND CALLER EQ PUSH2 0x25CE JUMP JUMPDEST PUSH1 0x4 CALLDATALOAD PUSH1 0x1E SSTORE STOP JUMPDEST PUSH1 0x40 SWAP1 PUSH2 0x57E SWAP4 SWAP3 ISZERO ISZERO DUP2 MSTORE DUP2 PUSH1 0x20 DUP3 ADD MSTORE ADD SWAP1 PUSH2 0x548 JUMP JUMPDEST CALLVALUE PUSH2 0x3E1 JUMPI PUSH2 0x1203 CALLDATASIZE PUSH2 0xFB2 JUMP JUMPDEST POP POP PUSH0 DUP1 DUP2 PUSH1 0x13 SLOAD DUP1 PUSH2 0x124A JUMPI JUMPDEST PUSH2 0x122D DUP4 PUSH2 0x123B DUP5 PUSH1 0x40 MLOAD SWAP4 DUP5 SWAP2 PUSH1 0x20 DUP4 ADD SWAP2 SWAP1 PUSH1 0x20 DUP4 ADD SWAP3 MSTORE JUMP JUMPDEST SUB PUSH1 0x1F NOT DUP2 ADD DUP5 MSTORE DUP4 PUSH2 0xB04 JUMP JUMPDEST PUSH2 0x509 PUSH1 0x40 MLOAD SWAP3 DUP4 SWAP3 DUP4 PUSH2 0x11DC JUMP JUMPDEST PUSH1 0x1 SWAP1 DUP3 DUP3 JUMPDEST DUP3 DUP2 LT PUSH2 0x1483 JUMPI POP POP POP DUP4 ISZERO PUSH2 0x1211 JUMPI PUSH1 0x18 SLOAD PUSH2 0x1275 SWAP1 PUSH1 0x1 PUSH1 0x1 PUSH1 0xA0 SHL SUB AND PUSH2 0xE89 JUMP JUMPDEST SWAP1 PUSH1 0x5 PUSH2 0x128A DUP7 PUSH0 MSTORE PUSH1 0x10 PUSH1 0x20 MSTORE PUSH1 0x40 PUSH0 KECCAK256 SWAP1 JUMP JUMPDEST ADD SWAP1 PUSH1 0x40 PUSH1 0x60 DUP2 MLOAD DUP1 SWAP6 PUSH4 0x3D69B073 PUSH1 0xE0 SHL DUP3 MSTORE DUP2 DUP1 PUSH2 0x12AE PUSH1 0x4 SWAP9 DUP10 DUP4 ADD PUSH2 0x3C37 JUMP JUMPDEST SUB SWAP2 GAS STATICCALL SWAP5 DUP6 ISZERO PUSH2 0xF19 JUMPI DUP1 SWAP3 DUP2 SWAP6 DUP3 SWAP8 PUSH2 0x1449 JUMPI JUMPDEST POP PUSH2 0x12DF PUSH2 0x12DA DUP11 PUSH0 MSTORE PUSH1 0xC PUSH1 0x20 MSTORE PUSH1 0x40 PUSH0 KECCAK256 SWAP1 JUMP JUMPDEST PUSH2 0x3ED9 JUMP JUMPDEST SWAP2 DUP3 MLOAD SWAP7 DUP6 DUP9 LT PUSH0 EQ PUSH2 0x130A JUMPI POP POP POP POP POP POP POP POP POP PUSH2 0x123B PUSH2 0x1304 PUSH2 0x122D SWAP4 PUSH2 0x3F51 JUMP JUMPDEST SWAP1 PUSH2 0x1211 JUMP JUMPDEST DUP2 SWAP7 DUP3 SWAP9 PUSH1 0x1D SLOAD SWAP1 DUP2 DUP2 GT PUSH0 EQ PUSH2 0x1441 JUMPI POP SWAP5 JUMPDEST DUP4 JUMPDEST DUP7 DUP2 LT PUSH2 0x1388 JUMPI POP POP POP POP POP POP POP POP SWAP2 PUSH2 0x123B SWAP4 SWAP2 PUSH2 0x122D SWAP7 SWAP4 DUP3 ISZERO SWAP1 DUP2 ISZERO PUSH2 0x137E JUMPI JUMPDEST POP ISZERO PUSH2 0x135B JUMPI POP POP POP PUSH2 0x1356 SWAP1 PUSH2 0x3F51 JUMP JUMPDEST PUSH2 0x1304 JUMP JUMPDEST SWAP1 PUSH2 0x1368 PUSH2 0x136D SWAP3 PUSH2 0x3F3B JUMP JUMPDEST PUSH2 0x31C7 JUMP JUMPDEST LT ISZERO PUSH0 SUB PUSH2 0x1304 JUMPI PUSH2 0x1356 SWAP1 PUSH2 0x3F51 JUMP JUMPDEST SWAP1 POP DUP3 LT PUSH0 PUSH2 0x1344 JUMP JUMPDEST PUSH2 0x13B4 DUP9 PUSH2 0x1396 DUP4 DUP6 PUSH2 0x3D54 JUMP JUMPDEST MLOAD DUP2 MLOAD DUP1 SWAP4 DUP2 SWAP3 PUSH4 0x5CF17E1F PUSH1 0xE1 SHL DUP4 MSTORE DUP9 DUP4 ADD SWAP2 SWAP1 PUSH1 0x20 DUP4 ADD SWAP3 MSTORE JUMP JUMPDEST SUB DUP2 ADDRESS GAS STATICCALL DUP1 ISZERO PUSH2 0xF19 JUMPI DUP6 SWAP1 DUP8 SWAP3 DUP9 SWAP2 PUSH2 0x140E JUMPI JUMPDEST POP LT ISZERO PUSH2 0x13E1 JUMPI JUMPDEST POP PUSH2 0x13DC SWAP1 PUSH2 0x31B9 JUMP JUMPDEST PUSH2 0x1320 JUMP JUMPDEST SWAP11 PUSH2 0x13EC DUP8 SWAP2 PUSH2 0x31B9 JUMP JUMPDEST SWAP12 EQ PUSH2 0x13F9 JUMPI JUMPDEST PUSH0 PUSH2 0x13D2 JUMP JUMPDEST SWAP9 PUSH2 0x1406 PUSH2 0x13DC SWAP2 PUSH2 0x31B9 JUMP JUMPDEST SWAP10 SWAP1 POP PUSH2 0x13F3 JUMP JUMPDEST SWAP1 POP PUSH2 0x1431 SWAP2 SWAP3 POP DUP11 RETURNDATASIZE DUP13 GT PUSH2 0x143A JUMPI JUMPDEST PUSH2 0x1429 DUP2 DUP4 PUSH2 0xB04 JUMP JUMPDEST DUP2 ADD SWAP1 PUSH2 0x3F25 JUMP JUMPDEST SWAP2 SWAP1 SWAP2 PUSH0 PUSH2 0x13CA JUMP JUMPDEST POP RETURNDATASIZE PUSH2 0x141F JUMP JUMPDEST SWAP1 POP SWAP5 PUSH2 0x131E JUMP JUMPDEST SWAP2 SWAP4 POP SWAP6 POP PUSH2 0x1470 SWAP2 SWAP5 POP PUSH1 0x60 RETURNDATASIZE DUP2 GT PUSH2 0x147C JUMPI JUMPDEST PUSH2 0x1468 DUP2 DUP4 PUSH2 0xB04 JUMP JUMPDEST DUP2 ADD SWAP1 PUSH2 0x3EBE JUMP JUMPDEST SWAP5 SWAP2 SWAP3 SWAP1 SWAP5 SWAP6 PUSH0 PUSH2 0x12C4 JUMP JUMPDEST POP RETURNDATASIZE PUSH2 0x145E JUMP JUMPDEST PUSH2 0x14CA PUSH1 0x7 PUSH2 0x14AF PUSH2 0x14A1 PUSH2 0x1497 DUP6 PUSH2 0x796 JUMP JUMPDEST SWAP1 SLOAD SWAP1 PUSH1 0x3 SHL SHR SWAP1 JUMP JUMPDEST PUSH0 MSTORE PUSH1 0x10 PUSH1 0x20 MSTORE PUSH1 0x40 PUSH0 KECCAK256 SWAP1 JUMP JUMPDEST ADD SLOAD PUSH1 0x8 PUSH2 0x14C2 PUSH2 0x14A1 PUSH2 0x1497 DUP7 PUSH2 0x796 JUMP JUMPDEST ADD SLOAD SWAP1 PUSH2 0x2AFC JUMP JUMPDEST TIMESTAMP DUP2 GT ISZERO DUP1 PUSH2 0x1506 JUMPI JUMPDEST PUSH2 0x14E8 JUMPI JUMPDEST POP PUSH2 0x14E3 SWAP1 PUSH2 0x31B9 JUMP JUMPDEST PUSH2 0x1250 JUMP JUMPDEST SWAP7 POP SWAP5 POP POP DUP2 SWAP4 PUSH2 0x14E3 PUSH2 0x14FE PUSH2 0x1497 DUP4 PUSH2 0x796 JUMP JUMPDEST SWAP7 SWAP2 SWAP1 PUSH2 0x14D9 JUMP JUMPDEST POP DUP3 DUP2 GT ISZERO DUP1 PUSH2 0x14D4 JUMPI POP DUP3 ISZERO PUSH2 0x14D4 JUMP JUMPDEST CALLVALUE PUSH2 0x3E1 JUMPI PUSH1 0xA0 CALLDATASIZE PUSH1 0x3 NOT ADD SLT PUSH2 0x3E1 JUMPI PUSH1 0x1 PUSH1 0x1 PUSH1 0x40 SHL SUB PUSH1 0x4 DUP1 CALLDATALOAD DUP3 DUP2 GT PUSH2 0x3E1 JUMPI PUSH2 0x1549 SWAP1 CALLDATASIZE SWAP1 DUP4 ADD PUSH2 0xB92 JUMP JUMPDEST PUSH1 0x24 CALLDATALOAD DUP4 DUP2 GT PUSH2 0x3E1 JUMPI PUSH2 0x1560 SWAP1 CALLDATASIZE SWAP1 DUP5 ADD PUSH2 0xB92 JUMP JUMPDEST PUSH1 0x44 CALLDATALOAD DUP5 DUP2 GT PUSH2 0x3E1 JUMPI PUSH2 0x1577 SWAP1 CALLDATASIZE SWAP1 DUP6 ADD PUSH2 0xB92 JUMP JUMPDEST PUSH1 0x64 CALLDATALOAD DUP6 DUP2 GT PUSH2 0x3E1 JUMPI PUSH2 0x158E SWAP1 CALLDATASIZE SWAP1 DUP7 ADD PUSH2 0xB92 JUMP JUMPDEST SWAP2 PUSH1 0x84 CALLDATALOAD SWAP6 DUP7 GT PUSH2 0x3E1 JUMPI PUSH2 0x15AC PUSH2 0x15B2 SWAP6 PUSH2 0x509 SWAP8 CALLDATASIZE SWAP2 ADD PUSH2 0xB92 JUMP JUMPDEST SWAP4 PUSH2 0x3609 JUMP JUMPDEST PUSH1 0x40 MLOAD SWAP1 DUP2 MSTORE SWAP1 DUP2 SWAP1 PUSH1 0x20 DUP3 ADD SWAP1 JUMP JUMPDEST CALLVALUE PUSH2 0x3E1 JUMPI PUSH1 0x20 CALLDATASIZE PUSH1 0x3 NOT ADD SLT PUSH2 0x3E1 JUMPI PUSH2 0x15DB PUSH2 0x66A JUMP JUMPDEST PUSH1 0xA SLOAD PUSH1 0x1 PUSH1 0x1 PUSH1 0xA0 SHL SUB SWAP2 SWAP1 PUSH2 0x15F5 SWAP1 DUP4 AND CALLER EQ PUSH2 0x25CE JUMP JUMPDEST AND PUSH1 0x1 DUP1 PUSH1 0xA0 SHL SUB NOT DUP2 DUP2 PUSH1 0x16 SLOAD AND OR PUSH1 0x16 SSTORE PUSH1 0x17 SLOAD AND OR PUSH1 0x17 SSTORE PUSH0 DUP1 RETURN JUMPDEST CALLVALUE PUSH2 0x3E1 JUMPI PUSH1 0x20 CALLDATASIZE PUSH1 0x3 NOT ADD SLT PUSH2 0x3E1 JUMPI PUSH1 0x20 PUSH2 0x658 PUSH1 0x4 CALLDATALOAD PUSH2 0x26D7 JUMP JUMPDEST CALLVALUE PUSH2 0x3E1 JUMPI PUSH1 0x60 CALLDATASIZE PUSH1 0x3 NOT ADD SLT PUSH2 0x3E1 JUMPI PUSH1 0x24 CALLDATALOAD PUSH1 0x4 CALLDATALOAD PUSH1 0x1 PUSH1 0x1 PUSH1 0x40 SHL SUB DUP3 GT PUSH2 0x3E1 JUMPI PUSH2 0x1668 PUSH2 0x16C7 SWAP3 CALLDATASIZE SWAP1 PUSH1 0x4 ADD PUSH2 0xB92 JUMP JUMPDEST SWAP1 PUSH1 0x44 CALLDATALOAD SWAP2 PUSH2 0x167E PUSH2 0x1679 DUP4 PUSH2 0x296B JUMP JUMPDEST PUSH2 0x3B22 JUMP JUMPDEST PUSH1 0x18 SLOAD PUSH2 0x1693 SWAP1 PUSH1 0x1 PUSH1 0x1 PUSH1 0xA0 SHL SUB AND PUSH2 0xE89 JUMP JUMPDEST SWAP3 PUSH1 0x5 PUSH2 0x16A8 DUP5 PUSH0 MSTORE PUSH1 0x10 PUSH1 0x20 MSTORE PUSH1 0x40 PUSH0 KECCAK256 SWAP1 JUMP JUMPDEST ADD PUSH1 0x40 MLOAD DUP1 SWAP6 PUSH4 0xA511D685 PUSH1 0xE0 SHL DUP3 MSTORE DUP2 DUP1 PUSH0 SWAP10 DUP11 SWAP6 PUSH1 0x4 DUP4 ADD PUSH2 0x3C37 JUMP JUMPDEST SUB SWAP2 GAS STATICCALL SWAP3 DUP4 ISZERO PUSH2 0xF19 JUMPI PUSH2 0x17AB SWAP5 DUP7 SWAP5 PUSH2 0x18E3 JUMPI JUMPDEST POP PUSH2 0x16E9 DUP3 ISZERO ISZERO PUSH2 0x3C48 JUMP JUMPDEST PUSH2 0x1702 PUSH2 0x16FA PUSH1 0xF SLOAD DUP7 MLOAD SWAP1 PUSH2 0x2AFC JUMP JUMPDEST DUP4 GT ISZERO PUSH2 0x3C93 JUMP JUMPDEST PUSH2 0x173B PUSH2 0x1736 PUSH2 0x1732 PUSH2 0x726 PUSH2 0x1720 DUP6 PUSH0 MSTORE PUSH1 0x14 PUSH1 0x20 MSTORE PUSH1 0x40 PUSH0 KECCAK256 SWAP1 JUMP JUMPDEST CALLER PUSH0 SWAP1 DUP2 MSTORE PUSH1 0x20 SWAP2 SWAP1 SWAP2 MSTORE PUSH1 0x40 SWAP1 KECCAK256 SWAP1 JUMP JUMPDEST ISZERO SWAP1 JUMP JUMPDEST PUSH2 0x3CDA JUMP JUMPDEST PUSH2 0x1761 PUSH2 0x1754 CALLER PUSH2 0x711 DUP5 PUSH0 MSTORE PUSH1 0x14 PUSH1 0x20 MSTORE PUSH1 0x40 PUSH0 KECCAK256 SWAP1 JUMP JUMPDEST DUP1 SLOAD PUSH1 0xFF NOT AND PUSH1 0x1 OR SWAP1 SSTORE JUMP JUMPDEST PUSH1 0x19 SLOAD PUSH1 0x20 SWAP1 PUSH2 0x1779 SWAP1 PUSH1 0x1 PUSH1 0x1 PUSH1 0xA0 SHL SUB AND PUSH2 0xE89 JUMP JUMPDEST PUSH1 0x5 PUSH2 0x178D DUP5 PUSH0 MSTORE PUSH1 0x10 PUSH1 0x20 MSTORE PUSH1 0x40 PUSH0 KECCAK256 SWAP1 JUMP JUMPDEST ADD SWAP1 PUSH1 0x40 MLOAD DUP1 DUP1 SWAP10 DUP2 SWAP5 PUSH4 0x598F921B PUSH1 0xE0 SHL DUP4 MSTORE CALLER PUSH1 0x4 DUP5 ADD PUSH2 0x3D32 JUMP JUMPDEST SUB SWAP2 GAS STATICCALL SWAP5 DUP6 ISZERO PUSH2 0xF19 JUMPI PUSH2 0x188F SWAP6 PUSH2 0x188A SWAP6 PUSH32 0xB888BF347D341B27D6E286DE699070E38AE55A4E9DB71C274C9D5A3C007A6B07 SWAP3 DUP10 SWAP3 PUSH2 0x18B3 JUMPI JUMPDEST POP PUSH1 0xF SLOAD SWAP1 DUP2 DUP7 GT PUSH2 0x1892 JUMPI POP POP PUSH2 0x180F PUSH2 0x1809 PUSH2 0x1804 DUP7 PUSH2 0x2ACE JUMP JUMPDEST PUSH2 0x7B3 JUMP JUMPDEST POP PUSH2 0x2239 JUMP JUMPDEST PUSH2 0x184E PUSH2 0x181A PUSH2 0xB25 JUMP JUMPDEST CALLER DUP2 MSTORE DUP8 PUSH1 0x20 DUP3 ADD MSTORE DUP7 PUSH1 0x40 DUP3 ADD MSTORE DUP3 PUSH1 0x60 DUP3 ADD MSTORE DUP4 PUSH1 0x80 DUP3 ADD MSTORE PUSH2 0x1849 PUSH1 0xE SLOAD PUSH0 MSTORE PUSH1 0xD PUSH1 0x20 MSTORE PUSH1 0x40 PUSH0 KECCAK256 SWAP1 JUMP JUMPDEST PUSH2 0x3D68 JUMP JUMPDEST PUSH2 0x186C PUSH2 0x1863 DUP6 PUSH0 MSTORE PUSH1 0xC PUSH1 0x20 MSTORE PUSH1 0x40 PUSH0 KECCAK256 SWAP1 JUMP JUMPDEST PUSH1 0xE SLOAD SWAP1 PUSH2 0x3045 JUMP JUMPDEST PUSH2 0x1882 PUSH1 0xE SLOAD SWAP7 PUSH1 0x40 MLOAD SWAP4 DUP5 SWAP4 CALLER SWAP9 DUP11 DUP7 PUSH2 0x3E88 JUMP JUMPDEST SUB SWAP1 LOG3 PUSH2 0x31B9 JUMP JUMPDEST PUSH1 0xE SSTORE JUMP JUMPDEST DUP1 RETURN JUMPDEST PUSH2 0x18A7 PUSH2 0x18A2 PUSH2 0x18AD SWAP4 DUP9 PUSH2 0x2AE1 JUMP JUMPDEST PUSH2 0x2ACE JUMP JUMPDEST SWAP1 PUSH2 0x3D54 JUMP JUMPDEST MLOAD PUSH2 0x180F JUMP JUMPDEST PUSH2 0x18D5 SWAP2 SWAP3 POP PUSH1 0x20 RETURNDATASIZE DUP2 GT PUSH2 0x18DC JUMPI JUMPDEST PUSH2 0x18CD DUP2 DUP4 PUSH2 0xB04 JUMP JUMPDEST DUP2 ADD SWAP1 PUSH2 0x3367 JUMP JUMPDEST SWAP1 PUSH0 PUSH2 0x17E7 JUMP JUMPDEST POP RETURNDATASIZE PUSH2 0x18C3 JUMP JUMPDEST PUSH2 0x1900 SWAP2 SWAP5 POP RETURNDATASIZE DUP1 DUP9 DUP4 RETURNDATACOPY PUSH2 0x18F8 DUP2 DUP4 PUSH2 0xB04 JUMP JUMPDEST DUP2 ADD SWAP1 PUSH2 0x3B67 JUMP JUMPDEST SWAP3 PUSH0 PUSH2 0x16DD JUMP JUMPDEST CALLVALUE PUSH2 0x3E1 JUMPI PUSH1 0x20 CALLDATASIZE PUSH1 0x3 NOT ADD SLT PUSH2 0x3E1 JUMPI PUSH2 0x192D PUSH1 0x1 DUP1 PUSH1 0xA0 SHL SUB PUSH1 0xA SLOAD AND CALLER EQ PUSH2 0x25CE JUMP JUMPDEST PUSH1 0x4 CALLDATALOAD PUSH1 0x1B SSTORE STOP JUMPDEST CALLVALUE PUSH2 0x3E1 JUMPI PUSH1 0x20 CALLDATASIZE PUSH1 0x3 NOT ADD SLT PUSH2 0x3E1 JUMPI PUSH1 0x20 PUSH2 0x1958 PUSH2 0x1953 PUSH2 0x66A JUMP JUMPDEST PUSH2 0x2661 JUMP JUMPDEST PUSH1 0x40 MLOAD SWAP1 DUP2 MSTORE RETURN JUMPDEST CALLVALUE PUSH2 0x3E1 JUMPI PUSH0 DUP1 PUSH1 0x3 NOT CALLDATASIZE ADD SLT PUSH2 0x524 JUMPI PUSH1 0xA SLOAD DUP2 SWAP1 PUSH1 0x1 PUSH1 0x1 PUSH1 0xA0 SHL SUB DUP2 AND SWAP1 PUSH2 0x198C CALLER DUP4 EQ PUSH2 0x25CE JUMP JUMPDEST PUSH1 0x1 PUSH1 0x1 PUSH1 0xA0 SHL SUB NOT AND PUSH1 0xA SSTORE PUSH32 0x8BE0079C531659141344CD1FD0A4F28419497F9722A3DAAFE3B4186F6B6457E0 DUP3 DUP1 LOG3 DUP1 RETURN JUMPDEST CALLVALUE PUSH2 0x3E1 JUMPI PUSH1 0x20 CALLDATASIZE PUSH1 0x3 NOT ADD SLT PUSH2 0x3E1 JUMPI PUSH2 0x19D9 PUSH2 0x66A JUMP JUMPDEST PUSH1 0xA SLOAD PUSH1 0x1 PUSH1 0x1 PUSH1 0xA0 SHL SUB SWAP2 SWAP1 PUSH2 0x19F3 SWAP1 DUP4 AND CALLER EQ PUSH2 0x25CE JUMP JUMPDEST AND PUSH1 0x1 DUP1 PUSH1 0xA0 SHL SUB NOT PUSH1 0x18 SLOAD AND OR PUSH1 0x18 SSTORE PUSH0 DUP1 RETURN JUMPDEST CALLVALUE PUSH2 0x3E1 JUMPI PUSH0 CALLDATASIZE PUSH1 0x3 NOT ADD SLT PUSH2 0x3E1 JUMPI PUSH1 0x20 PUSH1 0x1B SLOAD PUSH1 0x40 MLOAD SWAP1 DUP2 MSTORE RETURN JUMPDEST CALLVALUE PUSH2 0x3E1 JUMPI PUSH1 0x40 CALLDATASIZE PUSH1 0x3 NOT ADD SLT PUSH2 0x3E1 JUMPI PUSH1 0x20 PUSH1 0xFF PUSH2 0x1A67 PUSH2 0x1A45 PUSH2 0x680 JUMP JUMPDEST PUSH1 0x4 CALLDATALOAD PUSH0 MSTORE PUSH1 0x14 DUP5 MSTORE PUSH1 0x40 PUSH0 KECCAK256 SWAP1 PUSH1 0x1 DUP1 PUSH1 0xA0 SHL SUB AND PUSH0 MSTORE PUSH1 0x20 MSTORE PUSH1 0x40 PUSH0 KECCAK256 SWAP1 JUMP JUMPDEST SLOAD AND PUSH1 0x40 MLOAD SWAP1 ISZERO ISZERO DUP2 MSTORE RETURN JUMPDEST CALLVALUE PUSH2 0x3E1 JUMPI PUSH1 0x40 CALLDATASIZE PUSH1 0x3 NOT ADD SLT PUSH2 0x3E1 JUMPI PUSH1 0x24 CALLDATALOAD PUSH1 0x4 CALLDATALOAD PUSH1 0x1 PUSH1 0x1 PUSH1 0x40 SHL SUB DUP3 GT PUSH2 0x3E1 JUMPI PUSH2 0x1AC7 PUSH32 0xB290E01B548AE78ACE76449298ED234C42194D80AF9F7DFE02FC4F7DE07B9D3 SWAP3 CALLDATASIZE SWAP1 PUSH1 0x4 ADD PUSH2 0xB92 JUMP JUMPDEST SWAP1 PUSH2 0x1AE4 PUSH2 0x1AD4 DUP3 PUSH2 0x26D7 JUMP JUMPDEST PUSH1 0x1 PUSH1 0x1 PUSH1 0xA0 SHL SUB AND CALLER EQ PUSH2 0x427A JUMP JUMPDEST PUSH2 0x1B00 PUSH1 0x40 MLOAD SWAP3 DUP4 SWAP3 DUP4 MSTORE PUSH1 0x40 PUSH1 0x20 DUP5 ADD MSTORE PUSH1 0x40 DUP4 ADD SWAP1 PUSH2 0x548 JUMP JUMPDEST SUB SWAP1 LOG1 STOP JUMPDEST CALLVALUE PUSH2 0x3E1 JUMPI PUSH1 0x20 CALLDATASIZE PUSH1 0x3 NOT ADD SLT PUSH2 0x3E1 JUMPI PUSH2 0x1B1E PUSH2 0x66A JUMP JUMPDEST PUSH1 0xA SLOAD PUSH1 0x1 PUSH1 0x1 PUSH1 0xA0 SHL SUB SWAP2 SWAP1 PUSH2 0x1B38 SWAP1 DUP4 AND CALLER EQ PUSH2 0x25CE JUMP JUMPDEST AND PUSH1 0x1 DUP1 PUSH1 0xA0 SHL SUB NOT PUSH1 0x19 SLOAD AND OR PUSH1 0x19 SSTORE PUSH0 DUP1 RETURN JUMPDEST CALLVALUE PUSH2 0x3E1 JUMPI PUSH0 CALLDATASIZE PUSH1 0x3 NOT ADD SLT PUSH2 0x3E1 JUMPI PUSH1 0xA SLOAD PUSH1 0x40 MLOAD PUSH1 0x1 PUSH1 0x1 PUSH1 0xA0 SHL SUB SWAP1 SWAP2 AND DUP2 MSTORE PUSH1 0x20 SWAP1 RETURN JUMPDEST CALLVALUE PUSH2 0x3E1 JUMPI PUSH0 DUP1 PUSH1 0x3 NOT CALLDATASIZE ADD SLT PUSH2 0x524 JUMPI PUSH1 0x40 MLOAD DUP2 PUSH1 0x1 DUP1 SLOAD SWAP1 PUSH2 0x1B98 DUP3 PUSH2 0x2170 JUMP JUMPDEST DUP1 DUP6 MSTORE SWAP2 DUP2 DUP2 AND SWAP1 DUP2 ISZERO PUSH2 0x612 JUMPI POP PUSH1 0x1 EQ PUSH2 0x1BBE JUMPI PUSH2 0x509 DUP5 PUSH2 0x5CB DUP2 DUP9 SUB DUP3 PUSH2 0xB04 JUMP JUMPDEST DUP1 SWAP5 POP DUP3 MSTORE PUSH1 0x20 SWAP4 DUP5 DUP4 KECCAK256 JUMPDEST DUP3 DUP5 LT PUSH2 0x1BE6 JUMPI POP POP POP DUP2 PUSH2 0x509 SWAP4 PUSH2 0x5CB SWAP3 DUP3 ADD ADD SWAP4 PUSH2 0x5BB JUMP JUMPDEST DUP1 SLOAD DUP6 DUP6 ADD DUP8 ADD MSTORE SWAP3 DUP6 ADD SWAP3 DUP2 ADD PUSH2 0x1BCA JUMP JUMPDEST PUSH1 0x20 DUP2 MSTORE PUSH1 0x1 DUP1 PUSH1 0xA0 SHL SUB DUP3 MLOAD AND PUSH1 0x20 DUP3 ADD MSTORE PUSH1 0xA0 PUSH1 0x80 PUSH2 0x1C4A PUSH2 0x1C2B PUSH1 0x20 DUP7 ADD MLOAD DUP5 PUSH1 0x40 DUP8 ADD MSTORE PUSH1 0xC0 DUP7 ADD SWAP1 PUSH2 0x548 JUMP JUMPDEST PUSH1 0x40 DUP7 ADD MLOAD PUSH1 0x60 DUP7 ADD MSTORE PUSH1 0x60 DUP7 ADD MLOAD PUSH1 0x1F NOT DUP7 DUP4 SUB ADD DUP5 DUP8 ADD MSTORE PUSH2 0x548 JUMP JUMPDEST SWAP4 ADD MLOAD SWAP2 ADD MSTORE SWAP1 JUMP JUMPDEST CALLVALUE PUSH2 0x3E1 JUMPI PUSH1 0x20 CALLDATASIZE PUSH1 0x3 NOT ADD SLT PUSH2 0x3E1 JUMPI PUSH2 0x509 PUSH1 0x40 PUSH0 PUSH1 0x80 DUP3 MLOAD PUSH2 0x1C77 DUP2 PUSH2 0xAA0 JUMP JUMPDEST DUP3 DUP2 MSTORE PUSH1 0x60 PUSH1 0x20 DUP3 ADD MSTORE DUP3 DUP5 DUP3 ADD MSTORE PUSH1 0x60 DUP1 DUP3 ADD MSTORE ADD MSTORE PUSH1 0x4 CALLDATALOAD PUSH0 MSTORE PUSH1 0xD PUSH1 0x20 MSTORE DUP1 PUSH0 KECCAK256 SWAP1 PUSH1 0x4 DUP2 MLOAD SWAP3 PUSH2 0x1CAA DUP5 PUSH2 0xAA0 JUMP JUMPDEST DUP1 SLOAD PUSH1 0x1 PUSH1 0x1 PUSH1 0xA0 SHL SUB AND DUP5 MSTORE DUP3 MLOAD PUSH2 0x1CD1 DUP2 PUSH2 0x1CCA DUP2 PUSH1 0x1 DUP7 ADD PUSH2 0x21A8 JUMP JUMPDEST SUB DUP3 PUSH2 0xB04 JUMP JUMPDEST PUSH1 0x20 DUP6 ADD MSTORE PUSH1 0x2 DUP2 ADD SLOAD DUP4 DUP6 ADD MSTORE DUP3 MLOAD PUSH2 0x1CF2 DUP2 PUSH2 0x1CCA DUP2 PUSH1 0x3 DUP7 ADD PUSH2 0x21A8 JUMP JUMPDEST PUSH1 0x60 DUP6 ADD MSTORE ADD SLOAD PUSH1 0x80 DUP4 ADD MSTORE MLOAD SWAP2 DUP3 SWAP2 DUP3 PUSH2 0x1BF9 JUMP JUMPDEST CALLVALUE PUSH2 0x3E1 JUMPI PUSH0 CALLDATASIZE PUSH1 0x3 NOT ADD SLT PUSH2 0x3E1 JUMPI PUSH1 0x20 PUSH1 0x1C SLOAD PUSH1 0x40 MLOAD SWAP1 DUP2 MSTORE RETURN JUMPDEST CALLVALUE PUSH2 0x3E1 JUMPI PUSH1 0x20 PUSH2 0x1D49 PUSH2 0xD19 PUSH2 0xD21 PUSH2 0x1D3E CALLDATASIZE PUSH2 0xBAD JUMP JUMPDEST PUSH2 0xD13 DUP3 SWAP5 SWAP3 PUSH2 0x249F JUMP JUMPDEST SLOAD PUSH1 0x40 MLOAD SWAP1 DUP2 MSTORE RETURN JUMPDEST DUP1 ISZERO ISZERO SUB PUSH2 0x3E1 JUMPI JUMP JUMPDEST CALLVALUE PUSH2 0x3E1 JUMPI PUSH1 0x40 CALLDATASIZE PUSH1 0x3 NOT ADD SLT PUSH2 0x3E1 JUMPI PUSH2 0x1D75 PUSH2 0x66A JUMP JUMPDEST PUSH1 0x24 CALLDATALOAD PUSH2 0x1D81 DUP2 PUSH2 0x1D52 JUMP JUMPDEST PUSH1 0x1 PUSH1 0x1 PUSH1 0xA0 SHL SUB DUP3 AND SWAP2 CALLER DUP4 EQ PUSH2 0x1DFF JUMPI DUP2 PUSH2 0x1DBC PUSH2 0x1DCD SWAP3 CALLER PUSH0 MSTORE PUSH1 0x5 PUSH1 0x20 MSTORE PUSH1 0x40 PUSH0 KECCAK256 SWAP1 PUSH1 0x1 DUP1 PUSH1 0xA0 SHL SUB AND PUSH0 MSTORE PUSH1 0x20 MSTORE PUSH1 0x40 PUSH0 KECCAK256 SWAP1 JUMP JUMPDEST SWAP1 PUSH1 0xFF DUP1 NOT DUP4 SLOAD AND SWAP2 ISZERO ISZERO AND OR SWAP1 SSTORE JUMP JUMPDEST PUSH1 0x40 MLOAD SWAP1 ISZERO ISZERO DUP2 MSTORE CALLER SWAP1 PUSH32 0x17307EAB39AB6107E8899845AD3D59BD9653F200F220920489CA2B5937696C31 SWAP1 PUSH1 0x20 SWAP1 LOG3 STOP JUMPDEST PUSH1 0x40 MLOAD PUSH3 0x461BCD PUSH1 0xE5 SHL DUP2 MSTORE PUSH1 0x20 PUSH1 0x4 DUP3 ADD MSTORE PUSH1 0x19 PUSH1 0x24 DUP3 ADD MSTORE PUSH25 0x22A9219B99189D1030B8383937BB32903A379031B0B63632B9 PUSH1 0x39 SHL PUSH1 0x44 DUP3 ADD MSTORE PUSH1 0x64 SWAP1 REVERT JUMPDEST CALLVALUE PUSH2 0x3E1 JUMPI PUSH1 0x20 CALLDATASIZE PUSH1 0x3 NOT ADD SLT PUSH2 0x3E1 JUMPI PUSH1 0x4 CALLDATALOAD PUSH2 0x1E60 PUSH2 0x1679 DUP3 PUSH2 0x296B JUMP JUMPDEST PUSH0 MSTORE PUSH1 0x10 PUSH1 0x20 MSTORE PUSH2 0x509 PUSH2 0x1CCA PUSH2 0x1E83 PUSH1 0x6 PUSH1 0x40 PUSH0 KECCAK256 ADD PUSH1 0x40 MLOAD SWAP3 DUP4 DUP1 SWAP3 PUSH2 0x21A8 JUMP JUMPDEST PUSH1 0x40 MLOAD SWAP2 DUP3 SWAP2 PUSH1 0x20 DUP4 MSTORE PUSH1 0x20 DUP4 ADD SWAP1 PUSH2 0x548 JUMP JUMPDEST CALLVALUE PUSH2 0x3E1 JUMPI PUSH1 0x80 CALLDATASIZE PUSH1 0x3 NOT ADD SLT PUSH2 0x3E1 JUMPI PUSH2 0x1EB0 PUSH2 0x66A JUMP JUMPDEST PUSH2 0x1EB8 PUSH2 0x680 JUMP JUMPDEST PUSH1 0x64 CALLDATALOAD SWAP2 PUSH1 0x1 PUSH1 0x1 PUSH1 0x40 SHL SUB DUP4 GT PUSH2 0x3E1 JUMPI CALLDATASIZE PUSH1 0x23 DUP5 ADD SLT ISZERO PUSH2 0x3E1 JUMPI PUSH2 0x1EEC PUSH2 0x6ED SWAP4 CALLDATASIZE SWAP1 PUSH1 0x24 DUP2 PUSH1 0x4 ADD CALLDATALOAD SWAP2 ADD PUSH2 0xB5C JUMP JUMPDEST SWAP2 PUSH1 0x44 CALLDATALOAD SWAP2 PUSH2 0x28C8 JUMP JUMPDEST CALLVALUE PUSH2 0x3E1 JUMPI PUSH1 0x20 CALLDATASIZE PUSH1 0x3 NOT ADD SLT PUSH2 0x3E1 JUMPI PUSH1 0x4 DUP1 CALLDATALOAD PUSH0 SWAP1 DUP2 MSTORE PUSH1 0xD PUSH1 0x20 SWAP1 DUP2 MSTORE PUSH1 0x40 SWAP2 DUP3 SWAP1 KECCAK256 PUSH1 0x2 DUP2 ADD SLOAD SWAP4 ADD SLOAD DUP3 MLOAD SWAP4 DUP5 MSTORE SWAP1 DUP4 ADD MSTORE SWAP1 RETURN JUMPDEST CALLVALUE PUSH2 0x3E1 JUMPI PUSH1 0x20 CALLDATASIZE PUSH1 0x3 NOT ADD SLT PUSH2 0x3E1 JUMPI PUSH2 0x1F49 PUSH2 0x66A JUMP JUMPDEST PUSH1 0xA SLOAD PUSH1 0x1 PUSH1 0x1 PUSH1 0xA0 SHL SUB SWAP2 SWAP1 PUSH2 0x1F63 SWAP1 DUP4 AND CALLER EQ PUSH2 0x25CE JUMP JUMPDEST AND PUSH1 0x1 DUP1 PUSH1 0xA0 SHL SUB NOT PUSH1 0x1A SLOAD AND OR PUSH1 0x1A SSTORE PUSH0 DUP1 RETURN JUMPDEST CALLVALUE PUSH2 0x3E1 JUMPI PUSH1 0x20 CALLDATASIZE PUSH1 0x3 NOT ADD SLT PUSH2 0x3E1 JUMPI PUSH1 0x4 CALLDATALOAD PUSH2 0x1F95 DUP2 PUSH2 0x296B JUMP JUMPDEST ISZERO PUSH2 0x1FF5 JUMPI PUSH2 0x1FA2 PUSH2 0x274E JUMP JUMPDEST DUP1 MLOAD ISZERO PUSH2 0x1FE3 JUMPI PUSH2 0x5CB PUSH2 0x1FCF SWAP2 PUSH2 0x1FD5 PUSH2 0x1FBF PUSH2 0x509 SWAP6 PUSH2 0x31F6 JUMP JUMPDEST PUSH1 0x40 MLOAD SWAP5 DUP6 SWAP4 PUSH1 0x20 DUP6 ADD SWAP1 PUSH2 0x2488 JUMP JUMPDEST SWAP1 PUSH2 0x2488 JUMP JUMPDEST SUB PUSH1 0x1F NOT DUP2 ADD DUP4 MSTORE DUP3 PUSH2 0xB04 JUMP JUMPDEST POP POP PUSH2 0x509 PUSH2 0x1FF0 PUSH2 0x274E JUMP JUMPDEST PUSH2 0x5CB JUMP JUMPDEST PUSH1 0x40 MLOAD PUSH3 0x461BCD PUSH1 0xE5 SHL DUP2 MSTORE PUSH1 0x20 PUSH1 0x4 DUP3 ADD MSTORE PUSH1 0x2F PUSH1 0x24 DUP3 ADD MSTORE PUSH32 0x4552433732314D657461646174613A2055524920717565727920666F72206E6F PUSH1 0x44 DUP3 ADD MSTORE PUSH15 0x3732BC34B9BA32B73A103A37B5B2B7 PUSH1 0x89 SHL PUSH1 0x64 DUP3 ADD MSTORE PUSH1 0x84 SWAP1 REVERT JUMPDEST CALLVALUE PUSH2 0x3E1 JUMPI PUSH1 0x20 CALLDATASIZE PUSH1 0x3 NOT ADD SLT PUSH2 0x3E1 JUMPI PUSH2 0x2078 PUSH1 0x1 DUP1 PUSH1 0xA0 SHL SUB PUSH1 0xA SLOAD AND CALLER EQ PUSH2 0x25CE JUMP JUMPDEST PUSH1 0x4 CALLDATALOAD PUSH1 0x1D SSTORE STOP JUMPDEST CALLVALUE PUSH2 0x3E1 JUMPI PUSH0 CALLDATASIZE PUSH1 0x3 NOT ADD SLT PUSH2 0x3E1 JUMPI PUSH1 0x20 PUSH1 0x1E SLOAD PUSH1 0x40 MLOAD SWAP1 DUP2 MSTORE RETURN JUMPDEST PUSH1 0x1 PUSH1 0x1 PUSH1 0x40 SHL SUB DUP2 GT PUSH2 0xA9B JUMPI PUSH1 0x5 SHL PUSH1 0x20 ADD SWAP1 JUMP JUMPDEST CALLVALUE PUSH2 0x3E1 JUMPI PUSH1 0x20 DUP1 PUSH1 0x3 NOT CALLDATASIZE ADD SLT PUSH2 0x3E1 JUMPI PUSH1 0x1 PUSH1 0x1 PUSH1 0x40 SHL SUB PUSH1 0x4 CALLDATALOAD DUP2 DUP2 GT PUSH2 0x3E1 JUMPI CALLDATASIZE PUSH1 0x23 DUP3 ADD SLT ISZERO PUSH2 0x3E1 JUMPI DUP1 PUSH1 0x4 ADD CALLDATALOAD PUSH2 0x20F1 DUP2 PUSH2 0x209D JUMP JUMPDEST SWAP3 PUSH2 0x20FF PUSH1 0x40 MLOAD SWAP5 DUP6 PUSH2 0xB04 JUMP JUMPDEST DUP2 DUP5 MSTORE DUP5 DUP5 ADD SWAP1 PUSH1 0x24 DUP1 SWAP4 PUSH1 0x5 SHL DUP6 ADD ADD SWAP4 CALLDATASIZE DUP6 GT PUSH2 0x3E1 JUMPI DUP4 DUP2 ADD SWAP3 JUMPDEST DUP6 DUP5 LT PUSH2 0x212D JUMPI PUSH2 0x6ED DUP8 PUSH2 0x43AF JUMP JUMPDEST DUP4 CALLDATALOAD DUP4 DUP2 GT PUSH2 0x3E1 JUMPI DUP9 SWAP2 PUSH2 0x2148 DUP4 SWAP3 DUP9 CALLDATASIZE SWAP2 DUP8 ADD ADD PUSH2 0xB92 JUMP JUMPDEST DUP2 MSTORE ADD SWAP4 ADD SWAP3 PUSH2 0x211D JUMP JUMPDEST CALLVALUE PUSH2 0x3E1 JUMPI PUSH0 CALLDATASIZE PUSH1 0x3 NOT ADD SLT PUSH2 0x3E1 JUMPI PUSH1 0x20 PUSH1 0xE SLOAD PUSH1 0x40 MLOAD SWAP1 DUP2 MSTORE RETURN JUMPDEST SWAP1 PUSH1 0x1 DUP3 DUP2 SHR SWAP3 AND DUP1 ISZERO PUSH2 0x219E JUMPI JUMPDEST PUSH1 0x20 DUP4 LT EQ PUSH2 0x218A JUMPI JUMP JUMPDEST PUSH4 0x4E487B71 PUSH1 0xE0 SHL PUSH0 MSTORE PUSH1 0x22 PUSH1 0x4 MSTORE PUSH1 0x24 PUSH0 REVERT JUMPDEST SWAP2 PUSH1 0x7F AND SWAP2 PUSH2 0x217F JUMP JUMPDEST SWAP1 PUSH0 SWAP3 SWAP2 DUP1 SLOAD SWAP2 PUSH2 0x21B8 DUP4 PUSH2 0x2170 JUMP JUMPDEST SWAP2 DUP3 DUP3 MSTORE PUSH1 0x1 SWAP4 DUP5 DUP2 AND SWAP1 DUP2 PUSH0 EQ PUSH2 0x2216 JUMPI POP PUSH1 0x1 EQ PUSH2 0x21D9 JUMPI JUMPDEST POP POP POP POP JUMP JUMPDEST SWAP1 SWAP2 SWAP4 SWAP5 POP PUSH0 MSTORE PUSH1 0x20 SWAP3 DUP4 PUSH0 KECCAK256 SWAP3 DUP5 PUSH0 SWAP5 JUMPDEST DUP4 DUP7 LT PUSH2 0x2202 JUMPI POP POP POP POP ADD ADD SWAP1 PUSH0 DUP1 DUP1 DUP1 PUSH2 0x21D3 JUMP JUMPDEST DUP1 SLOAD DUP6 DUP8 ADD DUP4 ADD MSTORE SWAP5 ADD SWAP4 DUP6 SWAP1 DUP3 ADD PUSH2 0x21EB JUMP JUMPDEST SWAP3 SWAP5 POP POP POP PUSH1 0x20 SWAP4 SWAP5 POP PUSH1 0xFF NOT AND DUP4 DUP4 ADD MSTORE ISZERO ISZERO PUSH1 0x5 SHL ADD ADD SWAP1 PUSH0 DUP1 DUP1 DUP1 PUSH2 0x21D3 JUMP JUMPDEST SWAP1 PUSH2 0xB32 PUSH2 0x224D SWAP3 PUSH1 0x40 MLOAD SWAP4 DUP5 DUP1 SWAP3 PUSH2 0x21A8 JUMP JUMPDEST SUB DUP4 PUSH2 0xB04 JUMP JUMPDEST CALLVALUE PUSH2 0x3E1 JUMPI PUSH1 0x20 CALLDATASIZE PUSH1 0x3 NOT ADD SLT PUSH2 0x3E1 JUMPI PUSH1 0x4 CALLDATALOAD PUSH0 MSTORE PUSH1 0xD PUSH1 0x20 MSTORE PUSH1 0x40 PUSH0 KECCAK256 PUSH1 0x1 DUP1 PUSH1 0xA0 SHL SUB DUP2 SLOAD AND PUSH1 0x40 MLOAD SWAP2 PUSH2 0x2299 DUP4 PUSH2 0x2292 DUP2 PUSH1 0x1 DUP6 ADD PUSH2 0x21A8 JUMP JUMPDEST SUB DUP5 PUSH2 0xB04 JUMP JUMPDEST PUSH2 0x22F1 PUSH1 0x2 DUP3 ADD SLOAD PUSH1 0x4 PUSH1 0x40 MLOAD SWAP4 PUSH2 0x22BF DUP6 PUSH2 0x22B8 DUP2 PUSH1 0x3 DUP6 ADD PUSH2 0x21A8 JUMP JUMPDEST SUB DUP7 PUSH2 0xB04 JUMP JUMPDEST ADD SLOAD SWAP3 PUSH2 0x22DE PUSH1 0x40 MLOAD SWAP7 DUP8 SWAP7 DUP8 MSTORE PUSH1 0xA0 PUSH1 0x20 DUP9 ADD MSTORE PUSH1 0xA0 DUP8 ADD SWAP1 PUSH2 0x548 JUMP JUMPDEST SWAP2 PUSH1 0x40 DUP7 ADD MSTORE DUP5 DUP3 SUB PUSH1 0x60 DUP7 ADD MSTORE PUSH2 0x548 JUMP JUMPDEST SWAP1 PUSH1 0x80 DUP4 ADD MSTORE SUB SWAP1 RETURN JUMPDEST CALLVALUE PUSH2 0x3E1 JUMPI PUSH1 0x40 CALLDATASIZE PUSH1 0x3 NOT ADD SLT PUSH2 0x3E1 JUMPI PUSH1 0x20 PUSH1 0xFF PUSH2 0x1A67 PUSH2 0x231B PUSH2 0x66A JUMP JUMPDEST PUSH2 0x2323 PUSH2 0x680 JUMP JUMPDEST PUSH1 0x1 PUSH1 0x1 PUSH1 0xA0 SHL SUB SWAP2 DUP3 AND PUSH0 SWAP1 DUP2 MSTORE PUSH1 0x5 DUP7 MSTORE PUSH1 0x40 DUP1 DUP3 KECCAK256 SWAP3 SWAP1 SWAP4 AND DUP2 MSTORE PUSH1 0x20 SWAP2 SWAP1 SWAP2 MSTORE KECCAK256 SWAP1 JUMP JUMPDEST SWAP6 SWAP2 SWAP5 PUSH2 0x23A6 PUSH2 0x23C2 SWAP5 PUSH2 0x100 SWAP10 SWAP7 PUSH2 0x2389 PUSH2 0x23D0 SWAP10 SWAP13 SWAP15 SWAP14 SWAP13 PUSH2 0x237B PUSH2 0x23B4 SWAP8 DUP14 PUSH2 0x120 SWAP1 DUP2 DUP2 MSTORE ADD SWAP1 PUSH2 0x548 JUMP JUMPDEST DUP13 DUP2 SUB PUSH1 0x20 DUP15 ADD MSTORE SWAP1 PUSH2 0x548 JUMP JUMPDEST PUSH1 0x1 PUSH1 0x1 PUSH1 0xA0 SHL SUB SWAP1 SWAP3 AND PUSH1 0x40 DUP12 ADD MSTORE DUP10 DUP3 SUB PUSH1 0x60 DUP12 ADD MSTORE PUSH2 0x548 JUMP JUMPDEST SWAP1 DUP8 DUP3 SUB PUSH1 0x80 DUP10 ADD MSTORE PUSH2 0x548 JUMP JUMPDEST SWAP1 DUP6 DUP3 SUB PUSH1 0xA0 DUP8 ADD MSTORE PUSH2 0x548 JUMP JUMPDEST SWAP1 DUP4 DUP3 SUB PUSH1 0xC0 DUP6 ADD MSTORE PUSH2 0x548 JUMP JUMPDEST SWAP5 PUSH1 0xE0 DUP3 ADD MSTORE ADD MSTORE JUMP JUMPDEST CALLVALUE PUSH2 0x3E1 JUMPI PUSH1 0x20 CALLDATASIZE PUSH1 0x3 NOT ADD SLT PUSH2 0x3E1 JUMPI PUSH1 0x4 CALLDATALOAD PUSH0 MSTORE PUSH1 0x10 PUSH1 0x20 MSTORE PUSH1 0x40 PUSH0 KECCAK256 PUSH1 0x40 MLOAD PUSH2 0x240A DUP2 PUSH2 0x1CCA DUP2 DUP6 PUSH2 0x21A8 JUMP JUMPDEST PUSH2 0x509 PUSH1 0x40 MLOAD SWAP3 PUSH2 0x2429 DUP5 PUSH2 0x2422 DUP2 PUSH1 0x1 DUP6 ADD PUSH2 0x21A8 JUMP JUMPDEST SUB DUP6 PUSH2 0xB04 JUMP JUMPDEST PUSH1 0x1 DUP1 PUSH1 0xA0 SHL SUB PUSH1 0x2 DUP3 ADD SLOAD AND SWAP1 PUSH1 0x40 MLOAD PUSH2 0x244B DUP2 PUSH2 0x1CCA DUP2 PUSH1 0x3 DUP7 ADD PUSH2 0x21A8 JUMP JUMPDEST PUSH2 0x2457 PUSH1 0x4 DUP4 ADD PUSH2 0x2239 JUMP JUMPDEST PUSH2 0x2463 PUSH1 0x5 DUP5 ADD PUSH2 0x2239 JUMP JUMPDEST SWAP1 PUSH2 0x2470 PUSH1 0x6 DUP6 ADD PUSH2 0x2239 JUMP JUMPDEST SWAP3 PUSH1 0x8 PUSH1 0x7 DUP7 ADD SLOAD SWAP6 ADD SLOAD SWAP6 PUSH1 0x40 MLOAD SWAP10 DUP11 SWAP10 DUP11 PUSH2 0x234B JUMP JUMPDEST SWAP1 PUSH2 0x249B PUSH1 0x20 SWAP3 DUP3 DUP2 MLOAD SWAP5 DUP6 SWAP3 ADD PUSH2 0x527 JUMP JUMPDEST ADD SWAP1 JUMP JUMPDEST PUSH1 0x20 PUSH2 0x24B8 SWAP2 DUP2 PUSH1 0x40 MLOAD SWAP4 DUP3 DUP6 DUP1 SWAP5 MLOAD SWAP4 DUP5 SWAP3 ADD PUSH2 0x527 JUMP JUMPDEST DUP2 ADD PUSH1 0x11 DUP2 MSTORE SUB ADD SWAP1 KECCAK256 SWAP1 JUMP JUMPDEST PUSH1 0x20 SWAP1 PUSH2 0x24DF SWAP3 DUP3 PUSH1 0x40 MLOAD SWAP5 DUP4 DUP7 DUP1 SWAP6 MLOAD SWAP4 DUP5 SWAP3 ADD PUSH2 0x527 JUMP JUMPDEST DUP3 ADD SWAP1 DUP2 MSTORE SUB ADD SWAP1 KECCAK256 SWAP1 JUMP JUMPDEST CALLVALUE PUSH2 0x3E1 JUMPI PUSH1 0x20 PUSH2 0x1D49 PUSH2 0xD13 PUSH2 0x2501 CALLDATASIZE PUSH2 0xBAD JUMP JUMPDEST SWAP2 SWAP1 PUSH2 0x249F JUMP JUMPDEST CALLVALUE PUSH2 0x3E1 JUMPI PUSH1 0x20 CALLDATASIZE PUSH1 0x3 NOT ADD SLT PUSH2 0x3E1 JUMPI PUSH2 0x2521 PUSH2 0x66A JUMP JUMPDEST PUSH1 0xA SLOAD PUSH1 0x1 PUSH1 0x1 PUSH1 0xA0 SHL SUB SWAP1 PUSH2 0x253A SWAP1 DUP3 AND CALLER EQ PUSH2 0x25CE JUMP JUMPDEST DUP2 AND ISZERO PUSH2 0x254A JUMPI PUSH2 0x6ED SWAP1 PUSH2 0x2619 JUMP JUMPDEST PUSH1 0x40 MLOAD PUSH3 0x461BCD PUSH1 0xE5 SHL DUP2 MSTORE PUSH1 0x20 PUSH1 0x4 DUP3 ADD MSTORE PUSH1 0x26 PUSH1 0x24 DUP3 ADD MSTORE PUSH32 0x4F776E61626C653A206E6577206F776E657220697320746865207A65726F2061 PUSH1 0x44 DUP3 ADD MSTORE PUSH6 0x646472657373 PUSH1 0xD0 SHL PUSH1 0x64 DUP3 ADD MSTORE PUSH1 0x84 SWAP1 REVERT JUMPDEST CALLVALUE PUSH2 0x3E1 JUMPI PUSH0 CALLDATASIZE PUSH1 0x3 NOT ADD SLT PUSH2 0x3E1 JUMPI PUSH2 0x25C3 PUSH1 0x1 DUP1 PUSH1 0xA0 SHL SUB PUSH1 0xA SLOAD AND CALLER EQ PUSH2 0x25CE JUMP JUMPDEST PUSH1 0xB DUP1 SLOAD PUSH1 0x1 ADD SWAP1 SSTORE STOP JUMPDEST ISZERO PUSH2 0x25D5 JUMPI JUMP JUMPDEST PUSH1 0x64 PUSH1 0x40 MLOAD PUSH3 0x461BCD PUSH1 0xE5 SHL DUP2 MSTORE PUSH1 0x20 PUSH1 0x4 DUP3 ADD MSTORE PUSH1 0x20 PUSH1 0x24 DUP3 ADD MSTORE PUSH32 0x4F776E61626C653A2063616C6C6572206973206E6F7420746865206F776E6572 PUSH1 0x44 DUP3 ADD MSTORE REVERT JUMPDEST PUSH1 0xA DUP1 SLOAD PUSH1 0x1 PUSH1 0x1 PUSH1 0xA0 SHL SUB SWAP3 DUP4 AND PUSH1 0x1 PUSH1 0x1 PUSH1 0xA0 SHL SUB NOT DUP3 AND DUP2 OR SWAP1 SWAP3 SSTORE SWAP1 SWAP2 AND PUSH32 0x8BE0079C531659141344CD1FD0A4F28419497F9722A3DAAFE3B4186F6B6457E0 PUSH0 DUP1 LOG3 JUMP JUMPDEST PUSH1 0x1 PUSH1 0x1 PUSH1 0xA0 SHL SUB AND DUP1 ISZERO PUSH2 0x267F JUMPI PUSH0 MSTORE PUSH1 0x3 PUSH1 0x20 MSTORE PUSH1 0x40 PUSH0 KECCAK256 SLOAD SWAP1 JUMP JUMPDEST PUSH1 0x40 MLOAD PUSH3 0x461BCD PUSH1 0xE5 SHL DUP2 MSTORE PUSH1 0x20 PUSH1 0x4 DUP3 ADD MSTORE PUSH1 0x2A PUSH1 0x24 DUP3 ADD MSTORE PUSH32 0x4552433732313A2062616C616E636520717565727920666F7220746865207A65 PUSH1 0x44 DUP3 ADD MSTORE PUSH10 0x726F2061646472657373 PUSH1 0xB0 SHL PUSH1 0x64 DUP3 ADD MSTORE PUSH1 0x84 SWAP1 REVERT JUMPDEST PUSH0 SWAP1 DUP2 MSTORE PUSH1 0x2 PUSH1 0x20 MSTORE PUSH1 0x40 SWAP1 KECCAK256 SLOAD PUSH1 0x1 PUSH1 0x1 PUSH1 0xA0 SHL SUB AND DUP1 ISZERO PUSH2 0x26F7 JUMPI SWAP1 JUMP JUMPDEST PUSH1 0x40 MLOAD PUSH3 0x461BCD PUSH1 0xE5 SHL DUP2 MSTORE PUSH1 0x20 PUSH1 0x4 DUP3 ADD MSTORE PUSH1 0x29 PUSH1 0x24 DUP3 ADD MSTORE PUSH32 0x4552433732313A206F776E657220717565727920666F72206E6F6E6578697374 PUSH1 0x44 DUP3 ADD MSTORE PUSH9 0x32B73A103A37B5B2B7 PUSH1 0xB9 SHL PUSH1 0x64 DUP3 ADD MSTORE PUSH1 0x84 SWAP1 REVERT JUMPDEST PUSH1 0x40 MLOAD SWAP1 PUSH2 0x275B DUP3 PUSH2 0xACE JUMP JUMPDEST PUSH0 DUP3 MSTORE JUMP JUMPDEST ISZERO PUSH2 0x2767 JUMPI JUMP JUMPDEST PUSH1 0x40 MLOAD PUSH3 0x461BCD PUSH1 0xE5 SHL DUP2 MSTORE PUSH1 0x20 PUSH1 0x4 DUP3 ADD MSTORE PUSH1 0x38 PUSH1 0x24 DUP3 ADD MSTORE PUSH32 0x4552433732313A20617070726F76652063616C6C6572206973206E6F74206F77 PUSH1 0x44 DUP3 ADD MSTORE PUSH24 0x1B995C881B9BDC88185C1C1C9BDD995908199BDC88185B1B PUSH1 0x42 SHL PUSH1 0x64 DUP3 ADD MSTORE PUSH1 0x84 SWAP1 REVERT JUMPDEST PUSH2 0x27D6 DUP2 PUSH2 0x296B JUMP JUMPDEST ISZERO PUSH2 0x27F5 JUMPI PUSH0 SWAP1 DUP2 MSTORE PUSH1 0x4 PUSH1 0x20 MSTORE PUSH1 0x40 SWAP1 KECCAK256 SLOAD PUSH1 0x1 PUSH1 0x1 PUSH1 0xA0 SHL SUB AND SWAP1 JUMP JUMPDEST PUSH1 0x40 MLOAD PUSH3 0x461BCD PUSH1 0xE5 SHL DUP2 MSTORE PUSH1 0x20 PUSH1 0x4 DUP3 ADD MSTORE PUSH1 0x2C PUSH1 0x24 DUP3 ADD MSTORE PUSH32 0x4552433732313A20617070726F76656420717565727920666F72206E6F6E6578 PUSH1 0x44 DUP3 ADD MSTORE PUSH12 0x34B9BA32B73A103A37B5B2B7 PUSH1 0xA1 SHL PUSH1 0x64 DUP3 ADD MSTORE PUSH1 0x84 SWAP1 REVERT JUMPDEST ISZERO PUSH2 0x2856 JUMPI JUMP JUMPDEST PUSH1 0x40 MLOAD PUSH3 0x461BCD PUSH1 0xE5 SHL DUP2 MSTORE PUSH1 0x20 PUSH1 0x4 DUP3 ADD MSTORE PUSH1 0x31 PUSH1 0x24 DUP3 ADD MSTORE PUSH32 0x4552433732313A207472616E736665722063616C6C6572206973206E6F74206F PUSH1 0x44 DUP3 ADD MSTORE PUSH17 0x1DDB995C881B9BDC88185C1C1C9BDD9959 PUSH1 0x7A SHL PUSH1 0x64 DUP3 ADD MSTORE PUSH1 0x84 SWAP1 REVERT JUMPDEST SWAP1 SWAP2 PUSH2 0xB32 SWAP3 PUSH1 0x40 MLOAD SWAP3 PUSH2 0xFAA DUP5 PUSH2 0xACE JUMP JUMPDEST SWAP2 PUSH2 0xB32 SWAP4 SWAP2 PUSH2 0x28EF SWAP4 PUSH2 0x28DF PUSH2 0xA61 DUP5 CALLER PUSH2 0x2987 JUMP JUMPDEST PUSH2 0x28EA DUP4 DUP4 DUP4 PUSH2 0x2B09 JUMP JUMPDEST PUSH2 0x2E67 JUMP JUMPDEST PUSH2 0x2947 JUMP JUMPDEST PUSH1 0x80 SWAP1 PUSH1 0x20 DUP2 MSTORE PUSH1 0x32 PUSH1 0x20 DUP3 ADD MSTORE PUSH32 0x4552433732313A207472616E7366657220746F206E6F6E204552433732315265 PUSH1 0x40 DUP3 ADD MSTORE PUSH18 0x31B2B4BB32B91034B6B83632B6B2B73A32B9 PUSH1 0x71 SHL PUSH1 0x60 DUP3 ADD MSTORE ADD SWAP1 JUMP JUMPDEST ISZERO PUSH2 0x294E JUMPI JUMP JUMPDEST PUSH1 0x40 MLOAD PUSH3 0x461BCD PUSH1 0xE5 SHL DUP2 MSTORE DUP1 PUSH2 0x2967 PUSH1 0x4 DUP3 ADD PUSH2 0x28F4 JUMP JUMPDEST SUB SWAP1 REVERT JUMPDEST PUSH0 SWAP1 DUP2 MSTORE PUSH1 0x2 PUSH1 0x20 MSTORE PUSH1 0x40 SWAP1 KECCAK256 SLOAD PUSH1 0x1 PUSH1 0x1 PUSH1 0xA0 SHL SUB AND ISZERO ISZERO SWAP1 JUMP JUMPDEST PUSH2 0x2990 DUP3 PUSH2 0x296B JUMP JUMPDEST ISZERO PUSH2 0x2A08 JUMPI PUSH2 0x299E DUP3 PUSH2 0x26D7 JUMP JUMPDEST PUSH1 0x1 PUSH1 0x1 PUSH1 0xA0 SHL SUB DUP3 DUP2 AND DUP3 DUP3 AND DUP2 EQ SWAP5 SWAP1 SWAP2 SWAP1 DUP6 ISZERO PUSH2 0x29F0 JUMPI JUMPDEST POP POP POP DUP3 ISZERO PUSH2 0x29C7 JUMPI POP POP SWAP1 JUMP JUMPDEST PUSH1 0x1 PUSH1 0x1 PUSH1 0xA0 SHL SUB AND PUSH0 SWAP1 DUP2 MSTORE PUSH1 0x5 PUSH1 0x20 MSTORE PUSH1 0x40 SWAP1 KECCAK256 PUSH1 0xFF SWAP3 POP PUSH2 0x29EB SWAP2 SWAP1 PUSH2 0x711 JUMP JUMPDEST SLOAD AND SWAP1 JUMP JUMPDEST PUSH2 0x29FD SWAP2 SWAP3 SWAP4 SWAP6 POP PUSH2 0x27CD JUMP JUMPDEST AND EQ SWAP2 PUSH0 DUP1 DUP1 PUSH2 0x29B9 JUMP JUMPDEST PUSH1 0x40 MLOAD PUSH3 0x461BCD PUSH1 0xE5 SHL DUP2 MSTORE PUSH1 0x20 PUSH1 0x4 DUP3 ADD MSTORE PUSH1 0x2C PUSH1 0x24 DUP3 ADD MSTORE PUSH32 0x4552433732313A206F70657261746F7220717565727920666F72206E6F6E6578 PUSH1 0x44 DUP3 ADD MSTORE PUSH12 0x34B9BA32B73A103A37B5B2B7 PUSH1 0xA1 SHL PUSH1 0x64 DUP3 ADD MSTORE PUSH1 0x84 SWAP1 REVERT JUMPDEST ISZERO PUSH2 0x2A69 JUMPI JUMP JUMPDEST PUSH1 0x40 MLOAD PUSH3 0x461BCD PUSH1 0xE5 SHL DUP2 MSTORE PUSH1 0x20 PUSH1 0x4 DUP3 ADD MSTORE PUSH1 0x24 DUP1 DUP3 ADD MSTORE PUSH32 0x4552433732313A207472616E7366657220746F20746865207A65726F20616464 PUSH1 0x44 DUP3 ADD MSTORE PUSH4 0x72657373 PUSH1 0xE0 SHL PUSH1 0x64 DUP3 ADD MSTORE PUSH1 0x84 SWAP1 REVERT JUMPDEST PUSH4 0x4E487B71 PUSH1 0xE0 SHL PUSH0 MSTORE PUSH1 0x11 PUSH1 0x4 MSTORE PUSH1 0x24 PUSH0 REVERT JUMPDEST PUSH0 NOT DUP2 ADD SWAP2 SWAP1 DUP3 GT PUSH2 0x2ADC JUMPI JUMP JUMPDEST PUSH2 0x2ABA JUMP JUMPDEST SWAP2 SWAP1 DUP3 SUB SWAP2 DUP3 GT PUSH2 0x2ADC JUMPI JUMP JUMPDEST SWAP1 PUSH1 0x1 DUP3 ADD DUP1 SWAP3 GT PUSH2 0x2ADC JUMPI JUMP JUMPDEST SWAP2 SWAP1 DUP3 ADD DUP1 SWAP3 GT PUSH2 0x2ADC JUMPI JUMP JUMPDEST SWAP1 PUSH2 0x2B13 DUP4 PUSH2 0x26D7 JUMP JUMPDEST PUSH1 0x1 PUSH1 0x1 PUSH1 0xA0 SHL SUB DUP4 DUP2 AND SWAP3 SWAP1 SWAP2 DUP3 AND DUP4 SWAP1 SUB PUSH2 0x2BF2 JUMPI PUSH2 0x2B6C PUSH2 0x2BCC SWAP3 DUP3 AND SWAP5 PUSH2 0x2B3F DUP7 ISZERO ISZERO PUSH2 0x2A62 JUMP JUMPDEST PUSH2 0x2B4A DUP8 DUP5 DUP4 PUSH2 0x2ECD JUMP JUMPDEST PUSH2 0x2B53 DUP8 PUSH2 0x2C49 JUMP JUMPDEST PUSH1 0x1 PUSH1 0x1 PUSH1 0xA0 SHL SUB AND PUSH0 SWAP1 DUP2 MSTORE PUSH1 0x3 PUSH1 0x20 MSTORE PUSH1 0x40 SWAP1 KECCAK256 SWAP1 JUMP JUMPDEST PUSH2 0x2B76 DUP2 SLOAD PUSH2 0x2ACE JUMP JUMPDEST SWAP1 SSTORE PUSH1 0x1 PUSH1 0x1 PUSH1 0xA0 SHL SUB DUP2 AND PUSH0 SWAP1 DUP2 MSTORE PUSH1 0x3 PUSH1 0x20 MSTORE PUSH1 0x40 SWAP1 KECCAK256 PUSH2 0x2B99 DUP2 SLOAD PUSH2 0x2AEE JUMP JUMPDEST SWAP1 SSTORE PUSH2 0x2BAD DUP6 PUSH0 MSTORE PUSH1 0x2 PUSH1 0x20 MSTORE PUSH1 0x40 PUSH0 KECCAK256 SWAP1 JUMP JUMPDEST DUP1 SLOAD PUSH1 0x1 PUSH1 0x1 PUSH1 0xA0 SHL SUB NOT AND PUSH1 0x1 PUSH1 0x1 PUSH1 0xA0 SHL SUB SWAP1 SWAP3 AND SWAP2 SWAP1 SWAP2 OR SWAP1 SSTORE JUMP JUMPDEST PUSH32 0xDDF252AD1BE2C89B69C2B068FC378DAA952BA7F163C4A11628F55A4DF523B3EF PUSH0 DUP1 LOG4 JUMP JUMPDEST PUSH1 0x40 MLOAD PUSH3 0x461BCD PUSH1 0xE5 SHL DUP2 MSTORE PUSH1 0x20 PUSH1 0x4 DUP3 ADD MSTORE PUSH1 0x29 PUSH1 0x24 DUP3 ADD MSTORE PUSH32 0x4552433732313A207472616E73666572206F6620746F6B656E20746861742069 PUSH1 0x44 DUP3 ADD MSTORE PUSH9 0x39903737BA1037BBB7 PUSH1 0xB9 SHL PUSH1 0x64 DUP3 ADD MSTORE PUSH1 0x84 SWAP1 REVERT JUMPDEST PUSH0 DUP2 DUP2 MSTORE PUSH1 0x4 PUSH1 0x20 MSTORE PUSH1 0x40 DUP2 KECCAK256 DUP1 SLOAD PUSH1 0x1 PUSH1 0x1 PUSH1 0xA0 SHL SUB NOT AND SWAP1 SSTORE PUSH1 0x1 PUSH1 0x1 PUSH1 0xA0 SHL SUB PUSH2 0x2C75 DUP4 PUSH2 0x26D7 JUMP JUMPDEST AND PUSH32 0x8C5BE1E5EBEC7D5BD14F71427D1E84F3DD0314C0F7B2291E5B200AC8C7C3B925 DUP3 DUP1 LOG4 JUMP JUMPDEST PUSH0 DUP3 DUP2 MSTORE PUSH1 0x4 PUSH1 0x20 MSTORE PUSH1 0x40 SWAP1 KECCAK256 DUP1 SLOAD PUSH1 0x1 PUSH1 0x1 PUSH1 0xA0 SHL SUB NOT AND PUSH1 0x1 PUSH1 0x1 PUSH1 0xA0 SHL SUB DUP4 AND OR SWAP1 SSTORE PUSH1 0x1 PUSH1 0x1 PUSH1 0xA0 SHL SUB DUP1 PUSH2 0x2CD4 DUP5 PUSH2 0x26D7 JUMP JUMPDEST AND SWAP2 AND SWAP1 PUSH32 0x8C5BE1E5EBEC7D5BD14F71427D1E84F3DD0314C0F7B2291E5B200AC8C7C3B925 PUSH0 DUP1 LOG4 JUMP JUMPDEST SWAP1 DUP2 PUSH1 0x20 SWAP2 SUB SLT PUSH2 0x3E1 JUMPI MLOAD PUSH2 0x57E DUP2 PUSH2 0x3CF JUMP JUMPDEST PUSH2 0x57E SWAP4 SWAP3 PUSH1 0x80 SWAP3 PUSH1 0x1 DUP1 PUSH1 0xA0 SHL SUB AND DUP3 MSTORE PUSH0 PUSH1 0x20 DUP4 ADD MSTORE PUSH1 0x40 DUP3 ADD MSTORE DUP2 PUSH1 0x60 DUP3 ADD MSTORE ADD SWAP1 PUSH2 0x548 JUMP JUMPDEST PUSH1 0x1 PUSH1 0x1 PUSH1 0xA0 SHL SUB SWAP2 DUP3 AND DUP2 MSTORE SWAP2 AND PUSH1 0x20 DUP3 ADD MSTORE PUSH1 0x40 DUP2 ADD SWAP2 SWAP1 SWAP2 MSTORE PUSH1 0x80 PUSH1 0x60 DUP3 ADD DUP2 SWAP1 MSTORE PUSH2 0x57E SWAP3 SWAP2 ADD SWAP1 PUSH2 0x548 JUMP JUMPDEST PUSH1 0x40 MLOAD RETURNDATASIZE PUSH0 DUP3 RETURNDATACOPY RETURNDATASIZE SWAP1 REVERT JUMPDEST RETURNDATASIZE ISZERO PUSH2 0x2DA3 JUMPI RETURNDATASIZE SWAP1 PUSH2 0x2D8A DUP3 PUSH2 0xB41 JUMP JUMPDEST SWAP2 PUSH2 0x2D98 PUSH1 0x40 MLOAD SWAP4 DUP5 PUSH2 0xB04 JUMP JUMPDEST DUP3 MSTORE RETURNDATASIZE PUSH0 PUSH1 0x20 DUP5 ADD RETURNDATACOPY JUMP JUMPDEST PUSH1 0x60 SWAP1 JUMP JUMPDEST SWAP1 SWAP2 SWAP1 DUP1 EXTCODESIZE ISZERO PUSH2 0x2E5F JUMPI PUSH2 0x2DD9 PUSH1 0x20 SWAP2 PUSH0 SWAP4 PUSH1 0x40 MLOAD SWAP5 DUP6 DUP1 SWAP5 DUP2 SWAP4 PUSH4 0xA85BD01 PUSH1 0xE1 SHL SWAP10 DUP11 DUP5 MSTORE CALLER PUSH1 0x4 DUP6 ADD PUSH2 0x2D13 JUMP JUMPDEST SUB SWAP3 PUSH1 0x1 PUSH1 0x1 PUSH1 0xA0 SHL SUB AND GAS CALL PUSH0 SWAP2 DUP2 PUSH2 0x2E2F JUMPI JUMPDEST POP PUSH2 0x2E21 JUMPI PUSH2 0x2DFB PUSH2 0x2D79 JUMP JUMPDEST DUP1 MLOAD SWAP1 DUP2 PUSH2 0x2E1C JUMPI PUSH1 0x40 MLOAD PUSH3 0x461BCD PUSH1 0xE5 SHL DUP2 MSTORE DUP1 PUSH2 0x2967 PUSH1 0x4 DUP3 ADD PUSH2 0x28F4 JUMP JUMPDEST PUSH1 0x20 ADD REVERT JUMPDEST PUSH1 0x1 PUSH1 0x1 PUSH1 0xE0 SHL SUB NOT AND EQ SWAP1 JUMP JUMPDEST PUSH2 0x2E51 SWAP2 SWAP3 POP PUSH1 0x20 RETURNDATASIZE DUP2 GT PUSH2 0x2E58 JUMPI JUMPDEST PUSH2 0x2E49 DUP2 DUP4 PUSH2 0xB04 JUMP JUMPDEST DUP2 ADD SWAP1 PUSH2 0x2CFE JUMP JUMPDEST SWAP1 PUSH0 PUSH2 0x2DEE JUMP JUMPDEST POP RETURNDATASIZE PUSH2 0x2E3F JUMP JUMPDEST POP POP POP PUSH1 0x1 SWAP1 JUMP JUMPDEST SWAP3 SWAP1 SWAP2 SWAP1 DUP3 EXTCODESIZE ISZERO PUSH2 0x2E99 JUMPI PUSH2 0x2DD9 SWAP3 PUSH1 0x20 SWAP3 PUSH0 PUSH1 0x40 MLOAD DUP1 SWAP7 DUP2 SWAP6 DUP3 SWAP5 PUSH4 0xA85BD01 PUSH1 0xE1 SHL SWAP11 DUP12 DUP6 MSTORE CALLER PUSH1 0x4 DUP7 ADD PUSH2 0x2D3D JUMP JUMPDEST POP POP POP POP PUSH1 0x1 SWAP1 JUMP JUMPDEST SWAP1 PUSH2 0x2EAC DUP2 PUSH2 0x3080 JUMP JUMPDEST PUSH1 0x1 PUSH1 0x1 PUSH1 0xA0 SHL SUB DUP3 AND PUSH2 0x2EC4 JUMPI PUSH2 0xB32 SWAP2 POP PUSH2 0x3113 JUMP JUMPDEST PUSH2 0xB32 SWAP2 PUSH2 0x2FDA JUMP JUMPDEST SWAP1 SWAP2 SWAP1 PUSH1 0x1 PUSH1 0x1 PUSH1 0xA0 SHL SUB DUP1 DUP3 AND SWAP2 DUP3 PUSH2 0x2F07 JUMPI POP PUSH2 0x2EEB DUP4 PUSH2 0x3080 JUMP JUMPDEST DUP4 AND DUP1 PUSH2 0x2EFE JUMPI POP POP PUSH2 0xB32 SWAP2 POP PUSH2 0x3113 JUMP JUMPDEST SUB PUSH2 0x2EC4 JUMPI POP POP JUMP JUMPDEST DUP2 DUP6 AND DUP4 SUB PUSH2 0x2F17 JUMPI JUMPDEST POP PUSH2 0x2EEB JUMP JUMPDEST PUSH2 0x2F20 DUP2 PUSH2 0x2661 JUMP JUMPDEST PUSH0 NOT DUP2 ADD SWAP1 DUP2 GT PUSH2 0x2ADC JUMPI PUSH2 0x2F84 SWAP1 PUSH2 0x2F77 PUSH0 SWAP4 DUP8 DUP6 MSTORE PUSH1 0x7 PUSH1 0x20 MSTORE PUSH1 0x40 DUP6 KECCAK256 SLOAD DUP4 DUP2 SUB PUSH2 0x2F8B JUMPI JUMPDEST POP DUP5 PUSH2 0x2F5D DUP10 PUSH0 MSTORE PUSH1 0x7 PUSH1 0x20 MSTORE PUSH1 0x40 PUSH0 KECCAK256 SWAP1 JUMP JUMPDEST SSTORE PUSH1 0x1 PUSH1 0x1 PUSH1 0xA0 SHL SUB AND PUSH0 SWAP1 DUP2 MSTORE PUSH1 0x6 PUSH1 0x20 MSTORE PUSH1 0x40 SWAP1 KECCAK256 SWAP1 JUMP JUMPDEST SWAP1 PUSH0 MSTORE PUSH1 0x20 MSTORE PUSH1 0x40 PUSH0 KECCAK256 SWAP1 JUMP JUMPDEST SSTORE PUSH0 PUSH2 0x2F11 JUMP JUMPDEST DUP8 DUP7 MSTORE PUSH1 0x6 PUSH1 0x20 MSTORE PUSH1 0x40 DUP7 KECCAK256 DUP5 DUP8 MSTORE PUSH1 0x20 MSTORE PUSH2 0x2FD3 PUSH1 0x40 DUP8 KECCAK256 SLOAD DUP1 PUSH2 0x2FC4 DUP5 PUSH2 0x2F77 DUP8 PUSH1 0x1 DUP1 PUSH1 0xA0 SHL SUB AND PUSH0 MSTORE PUSH1 0x6 PUSH1 0x20 MSTORE PUSH1 0x40 PUSH0 KECCAK256 SWAP1 JUMP JUMPDEST SSTORE PUSH0 MSTORE PUSH1 0x7 PUSH1 0x20 MSTORE PUSH1 0x40 PUSH0 KECCAK256 SWAP1 JUMP JUMPDEST SSTORE PUSH0 PUSH2 0x2F49 JUMP JUMPDEST PUSH1 0x40 SWAP1 PUSH2 0x2FE6 DUP2 PUSH2 0x2661 JUMP JUMPDEST SWAP3 PUSH0 SWAP2 PUSH1 0x1 DUP1 PUSH1 0xA0 SHL SUB AND DUP3 MSTORE PUSH1 0x6 PUSH1 0x20 MSTORE DUP3 DUP3 KECCAK256 DUP5 DUP4 MSTORE PUSH1 0x20 MSTORE DUP1 DUP4 DUP4 KECCAK256 SSTORE DUP2 MSTORE PUSH1 0x7 PUSH1 0x20 MSTORE KECCAK256 SSTORE JUMP JUMPDEST PUSH1 0x13 SLOAD PUSH1 0x1 PUSH1 0x40 SHL DUP2 LT ISZERO PUSH2 0xA9B JUMPI PUSH1 0x1 DUP2 ADD DUP1 PUSH1 0x13 SSTORE DUP2 LT ISZERO PUSH2 0x7AE JUMPI PUSH1 0x13 PUSH0 MSTORE PUSH0 DUP1 MLOAD PUSH1 0x20 PUSH2 0x4583 DUP4 CODECOPY DUP2 MLOAD SWAP2 MSTORE ADD SSTORE JUMP JUMPDEST DUP1 SLOAD SWAP2 SWAP1 PUSH1 0x1 PUSH1 0x40 SHL DUP4 LT ISZERO PUSH2 0xA9B JUMPI DUP3 PUSH2 0x3068 SWAP2 PUSH1 0x1 PUSH2 0xB32 SWAP6 ADD DUP2 SSTORE PUSH2 0x854 JUMP JUMPDEST SWAP1 SWAP2 SWAP1 DUP3 SLOAD SWAP1 PUSH1 0x3 SHL SWAP2 DUP3 SHL SWAP2 PUSH0 NOT SWAP1 SHL NOT AND OR SWAP1 SSTORE JUMP JUMPDEST PUSH1 0x8 SLOAD DUP2 PUSH0 MSTORE PUSH1 0x9 PUSH1 0x20 MSTORE DUP1 PUSH1 0x40 PUSH0 KECCAK256 SSTORE PUSH1 0x1 PUSH1 0x40 SHL DUP2 LT ISZERO PUSH2 0xA9B JUMPI PUSH1 0x1 DUP2 ADD DUP1 PUSH1 0x8 SSTORE DUP2 LT ISZERO PUSH2 0x7AE JUMPI PUSH1 0x8 PUSH0 MSTORE PUSH32 0xF3F7A9FE364FAAB93B216DA50A3214154F22A0A2B415B23A84C8169E8B636EE3 ADD SSTORE JUMP JUMPDEST PUSH1 0x13 SLOAD DUP1 ISZERO PUSH2 0x30FF JUMPI PUSH0 NOT DUP2 DUP2 ADD SWAP2 SWAP1 DUP2 DUP4 LT ISZERO PUSH2 0x7AE JUMPI PUSH0 SWAP2 PUSH1 0x13 DUP4 MSTORE PUSH1 0x20 DUP4 KECCAK256 ADD ADD SSTORE PUSH1 0x13 SSTORE JUMP JUMPDEST PUSH4 0x4E487B71 PUSH1 0xE0 SHL PUSH0 MSTORE PUSH1 0x31 PUSH1 0x4 MSTORE PUSH1 0x24 PUSH0 REVERT JUMPDEST PUSH1 0x8 DUP1 SLOAD PUSH0 NOT SWAP3 SWAP1 DUP4 DUP2 ADD SWAP1 DUP1 DUP3 GT PUSH2 0x2ADC JUMPI PUSH0 SWAP3 DUP1 DUP5 MSTORE PUSH1 0x9 PUSH1 0x20 MSTORE DUP2 PUSH1 0x40 DUP6 KECCAK256 SLOAD SWAP4 LT ISZERO PUSH2 0x7AE JUMPI DUP5 DUP5 MSTORE DUP6 DUP3 PUSH1 0x20 DUP7 KECCAK256 ADD ADD SLOAD SWAP2 DUP4 LT ISZERO PUSH2 0x7AE JUMPI DUP4 SWAP3 PUSH2 0x3173 PUSH2 0x3182 SWAP4 DUP8 DUP7 MSTORE DUP1 DUP4 PUSH1 0x20 DUP9 KECCAK256 ADD SSTORE PUSH0 MSTORE PUSH1 0x9 PUSH1 0x20 MSTORE PUSH1 0x40 PUSH0 KECCAK256 SWAP1 JUMP JUMPDEST SSTORE PUSH0 MSTORE PUSH1 0x9 PUSH1 0x20 MSTORE PUSH1 0x40 PUSH0 KECCAK256 SWAP1 JUMP JUMPDEST SSTORE DUP2 SLOAD SWAP3 DUP4 ISZERO PUSH2 0x31A5 JUMPI DUP1 DUP5 ADD SWAP4 DUP1 DUP6 LT ISZERO PUSH2 0x7AE JUMPI DUP4 DUP4 MSTORE PUSH1 0x20 DUP4 KECCAK256 ADD ADD SSTORE SSTORE JUMP JUMPDEST PUSH4 0x4E487B71 PUSH1 0xE0 SHL DUP3 MSTORE PUSH1 0x31 PUSH1 0x4 MSTORE PUSH1 0x24 DUP3 REVERT JUMPDEST PUSH0 NOT DUP2 EQ PUSH2 0x2ADC JUMPI PUSH1 0x1 ADD SWAP1 JUMP JUMPDEST DUP2 ISZERO PUSH2 0x31D1 JUMPI DIV SWAP1 JUMP JUMPDEST PUSH4 0x4E487B71 PUSH1 0xE0 SHL PUSH0 MSTORE PUSH1 0x12 PUSH1 0x4 MSTORE PUSH1 0x24 PUSH0 REVERT JUMPDEST SWAP1 DUP2 MLOAD DUP2 LT ISZERO PUSH2 0x7AE JUMPI ADD PUSH1 0x20 ADD SWAP1 JUMP JUMPDEST DUP1 ISZERO PUSH2 0x3292 JUMPI DUP1 PUSH0 SWAP1 DUP3 DUP3 SWAP4 JUMPDEST PUSH2 0x327E JUMPI POP PUSH2 0x3211 DUP4 PUSH2 0xB41 JUMP JUMPDEST SWAP3 PUSH2 0x321F PUSH1 0x40 MLOAD SWAP5 DUP6 PUSH2 0xB04 JUMP JUMPDEST DUP1 DUP5 MSTORE DUP2 PUSH1 0x1F NOT PUSH2 0x322F DUP4 PUSH2 0xB41 JUMP JUMPDEST ADD CALLDATASIZE PUSH1 0x20 DUP8 ADD CALLDATACOPY JUMPDEST PUSH2 0x3241 JUMPI POP POP POP SWAP1 JUMP JUMPDEST PUSH2 0x324A SWAP1 PUSH2 0x2ACE JUMP JUMPDEST SWAP1 PUSH1 0xA SWAP1 PUSH1 0x30 DUP3 DUP3 MOD DUP2 ADD DUP1 SWAP2 GT PUSH2 0x2ADC JUMPI PUSH1 0xF8 SHL PUSH1 0x1 PUSH1 0x1 PUSH1 0xF8 SHL SUB NOT AND DUP5 BYTE PUSH2 0x3275 DUP5 DUP8 PUSH2 0x31E5 JUMP JUMPDEST MSTORE8 DIV SWAP1 DUP2 PUSH2 0x3237 JUMP JUMPDEST SWAP3 PUSH2 0x328A PUSH1 0xA SWAP2 PUSH2 0x31B9 JUMP JUMPDEST SWAP4 DIV DUP1 PUSH2 0x3203 JUMP JUMPDEST POP PUSH1 0x40 MLOAD PUSH2 0x329F DUP2 PUSH2 0xAE9 JUMP JUMPDEST PUSH1 0x1 DUP2 MSTORE PUSH1 0x3 PUSH1 0xFC SHL PUSH1 0x20 DUP3 ADD MSTORE SWAP1 JUMP JUMPDEST ISZERO PUSH2 0x32B7 JUMPI JUMP JUMPDEST PUSH1 0x40 MLOAD PUSH3 0x461BCD PUSH1 0xE5 SHL DUP2 MSTORE PUSH1 0x20 PUSH1 0x4 DUP3 ADD MSTORE PUSH1 0x28 PUSH1 0x24 DUP3 ADD MSTORE PUSH32 0x49504653206861736820616C7265616479207573656420776974682074686973 PUSH1 0x44 DUP3 ADD MSTORE PUSH8 0x814DD589A9958DD PUSH1 0xC2 SHL PUSH1 0x64 DUP3 ADD MSTORE PUSH1 0x84 SWAP1 REVERT JUMPDEST SWAP1 DUP2 PUSH1 0x20 SWAP2 SUB SLT PUSH2 0x3E1 JUMPI MLOAD PUSH2 0x57E DUP2 PUSH2 0x1D52 JUMP JUMPDEST ISZERO PUSH2 0x3329 JUMPI JUMP JUMPDEST PUSH1 0x40 MLOAD PUSH3 0x461BCD PUSH1 0xE5 SHL DUP2 MSTORE PUSH1 0x20 PUSH1 0x4 DUP3 ADD MSTORE PUSH1 0x16 PUSH1 0x24 DUP3 ADD MSTORE PUSH22 0x14DD589A9958DD08111BD95CC8139BDD08115E1A5CDD PUSH1 0x52 SHL PUSH1 0x44 DUP3 ADD MSTORE PUSH1 0x64 SWAP1 REVERT JUMPDEST SWAP1 DUP2 PUSH1 0x20 SWAP2 SUB SLT PUSH2 0x3E1 JUMPI MLOAD SWAP1 JUMP JUMPDEST PUSH1 0x40 MLOAD SWAP1 PUSH2 0x3383 DUP3 PUSH2 0xAE9 JUMP JUMPDEST PUSH1 0x9 DUP3 MSTORE PUSH9 0x4E6F20526576696577 PUSH1 0xB8 SHL PUSH1 0x20 DUP4 ADD MSTORE JUMP JUMPDEST ISZERO PUSH2 0x33A2 JUMPI JUMP JUMPDEST PUSH1 0x40 MLOAD PUSH3 0x461BCD PUSH1 0xE5 SHL DUP2 MSTORE PUSH1 0x20 PUSH1 0x4 DUP3 ADD MSTORE PUSH1 0x13 PUSH1 0x24 DUP3 ADD MSTORE PUSH19 0x119959481D1C985B9CD9995C8819985A5B1959 PUSH1 0x6A SHL PUSH1 0x44 DUP3 ADD MSTORE PUSH1 0x64 SWAP1 REVERT JUMPDEST DUP2 DUP2 LT PUSH2 0x33E8 JUMPI POP POP JUMP JUMPDEST PUSH0 DUP2 SSTORE PUSH1 0x1 ADD PUSH2 0x33DD JUMP JUMPDEST SWAP2 SWAP1 PUSH1 0x1F DUP2 GT PUSH2 0x3402 JUMPI POP POP POP JUMP JUMPDEST PUSH2 0xB32 SWAP3 PUSH0 MSTORE PUSH1 0x20 PUSH0 KECCAK256 SWAP1 PUSH1 0x20 PUSH1 0x1F DUP5 ADD PUSH1 0x5 SHR DUP4 ADD SWAP4 LT PUSH2 0x342C JUMPI JUMPDEST PUSH1 0x1F ADD PUSH1 0x5 SHR ADD SWAP1 PUSH2 0x33DD JUMP JUMPDEST SWAP1 SWAP2 POP DUP2 SWAP1 PUSH2 0x341F JUMP JUMPDEST SWAP2 SWAP1 SWAP2 DUP3 MLOAD PUSH1 0x1 PUSH1 0x1 PUSH1 0x40 SHL SUB DUP2 GT PUSH2 0xA9B JUMPI PUSH2 0x345D DUP2 PUSH2 0x3457 DUP5 SLOAD PUSH2 0x2170 JUMP JUMPDEST DUP5 PUSH2 0x33F3 JUMP JUMPDEST PUSH1 0x20 DUP1 PUSH1 0x1F DUP4 GT PUSH1 0x1 EQ PUSH2 0x3497 JUMPI POP DUP2 SWAP3 SWAP4 SWAP5 PUSH0 SWAP3 PUSH2 0x348C JUMPI JUMPDEST POP POP DUP2 PUSH1 0x1 SHL SWAP2 PUSH0 NOT SWAP1 PUSH1 0x3 SHL SHR NOT AND OR SWAP1 SSTORE JUMP JUMPDEST ADD MLOAD SWAP1 POP PUSH0 DUP1 PUSH2 0x3477 JUMP JUMPDEST SWAP1 PUSH1 0x1F NOT DUP4 AND SWAP6 PUSH2 0x34AB DUP6 PUSH0 MSTORE PUSH1 0x20 PUSH0 KECCAK256 SWAP1 JUMP JUMPDEST SWAP3 PUSH0 SWAP1 JUMPDEST DUP9 DUP3 LT PUSH2 0x34E6 JUMPI POP POP DUP4 PUSH1 0x1 SWAP6 SWAP7 SWAP8 LT PUSH2 0x34CE JUMPI JUMPDEST POP POP POP DUP2 SHL ADD SWAP1 SSTORE JUMP JUMPDEST ADD MLOAD PUSH0 NOT PUSH1 0xF8 DUP5 PUSH1 0x3 SHL AND SHR NOT AND SWAP1 SSTORE PUSH0 DUP1 DUP1 PUSH2 0x34C4 JUMP JUMPDEST DUP1 PUSH1 0x1 DUP6 SWAP7 DUP3 SWAP5 SWAP7 DUP7 ADD MLOAD DUP2 SSTORE ADD SWAP6 ADD SWAP4 ADD SWAP1 PUSH2 0x34AF JUMP JUMPDEST SWAP1 PUSH2 0x100 PUSH1 0x8 SWAP2 PUSH2 0x3510 DUP2 MLOAD DUP6 PUSH2 0x3436 JUMP JUMPDEST PUSH2 0x3521 PUSH1 0x20 DUP3 ADD MLOAD PUSH1 0x1 DUP7 ADD PUSH2 0x3436 JUMP JUMPDEST PUSH1 0x40 DUP2 ADD MLOAD PUSH1 0x2 DUP6 ADD DUP1 SLOAD PUSH1 0x1 PUSH1 0x1 PUSH1 0xA0 SHL SUB NOT AND PUSH1 0x1 PUSH1 0x1 PUSH1 0xA0 SHL SUB SWAP1 SWAP3 AND SWAP2 SWAP1 SWAP2 OR SWAP1 SSTORE PUSH2 0x3558 PUSH1 0x60 DUP3 ADD MLOAD PUSH1 0x3 DUP7 ADD PUSH2 0x3436 JUMP JUMPDEST PUSH2 0x3569 PUSH1 0x80 DUP3 ADD MLOAD PUSH1 0x4 DUP7 ADD PUSH2 0x3436 JUMP JUMPDEST PUSH2 0x357A PUSH1 0xA0 DUP3 ADD MLOAD PUSH1 0x5 DUP7 ADD PUSH2 0x3436 JUMP JUMPDEST PUSH2 0x358B PUSH1 0xC0 DUP3 ADD MLOAD PUSH1 0x6 DUP7 ADD PUSH2 0x3436 JUMP JUMPDEST PUSH1 0xE0 DUP2 ADD MLOAD PUSH1 0x7 DUP6 ADD SSTORE ADD MLOAD SWAP2 ADD SSTORE JUMP JUMPDEST SWAP5 SWAP2 SWAP4 PUSH2 0x35DF PUSH2 0x35FB SWAP5 PUSH2 0x35D1 PUSH2 0x57E SWAP10 SWAP8 PUSH2 0x35C3 PUSH2 0x35ED SWAP7 PUSH1 0xC0 DUP13 MSTORE PUSH1 0xC0 DUP13 ADD SWAP1 PUSH2 0x548 JUMP JUMPDEST SWAP1 DUP11 DUP3 SUB PUSH1 0x20 DUP13 ADD MSTORE PUSH2 0x548 JUMP JUMPDEST SWAP1 DUP9 DUP3 SUB PUSH1 0x40 DUP11 ADD MSTORE PUSH2 0x548 JUMP JUMPDEST SWAP1 DUP7 DUP3 SUB PUSH1 0x60 DUP9 ADD MSTORE PUSH2 0x548 JUMP JUMPDEST SWAP1 DUP5 DUP3 SUB PUSH1 0x80 DUP7 ADD MSTORE PUSH2 0x548 JUMP JUMPDEST SWAP2 PUSH1 0xA0 DUP2 DUP5 SUB SWAP2 ADD MSTORE PUSH2 0x548 JUMP JUMPDEST SWAP4 SWAP3 SWAP2 SWAP3 PUSH2 0x3629 PUSH2 0x3622 PUSH2 0x361C DUP4 PUSH2 0x249F JUMP JUMPDEST DUP8 PUSH2 0x24C5 JUMP JUMPDEST SLOAD ISZERO PUSH2 0x32B0 JUMP JUMPDEST PUSH1 0x18 SLOAD PUSH2 0x363E SWAP1 PUSH1 0x1 PUSH1 0x1 PUSH1 0xA0 SHL SUB AND PUSH2 0xE89 JUMP JUMPDEST SWAP2 PUSH1 0x40 SWAP4 DUP5 MLOAD SWAP7 PUSH4 0x2DAC55D9 PUSH1 0xE0 SHL DUP9 MSTORE PUSH1 0x20 SWAP8 DUP9 DUP2 DUP1 PUSH2 0x3662 DUP9 PUSH1 0x4 DUP4 ADD PUSH2 0x56D JUMP JUMPDEST SUB DUP2 DUP10 GAS STATICCALL SWAP1 DUP2 ISZERO PUSH2 0xF19 JUMPI PUSH2 0x3685 SWAP2 PUSH1 0x1 SWAP2 PUSH0 SWAP2 PUSH2 0x39D8 JUMPI JUMPDEST POP ISZERO ISZERO EQ PUSH2 0x3322 JUMP JUMPDEST PUSH1 0xB SLOAD SWAP8 DUP1 DUP8 MLOAD DUP1 SWAP8 PUSH4 0x1EE44DFF PUSH1 0xE1 SHL DUP3 MSTORE DUP2 DUP1 PUSH2 0x36A7 DUP11 PUSH1 0x4 DUP4 ADD PUSH2 0x56D JUMP JUMPDEST SUB SWAP2 GAS STATICCALL DUP1 ISZERO PUSH2 0xF19 JUMPI DUP10 SWAP7 PUSH0 SWAP2 PUSH2 0x39BB JUMPI JUMPDEST POP DUP1 ISZERO SWAP2 DUP3 ISZERO PUSH2 0x39AA JUMPI PUSH2 0x36CC PUSH2 0x3376 JUMP JUMPDEST SWAP3 JUMPDEST PUSH2 0x36D6 PUSH2 0xB34 JUMP JUMPDEST DUP6 DUP2 MSTORE DUP3 DUP2 ADD DUP9 SWAP1 MSTORE CALLER DUP12 DUP3 ADD MSTORE SWAP3 DUP12 PUSH1 0x60 DUP6 ADD MSTORE DUP7 PUSH1 0x80 DUP6 ADD MSTORE DUP9 PUSH1 0xA0 DUP6 ADD MSTORE DUP5 PUSH1 0xC0 DUP6 ADD MSTORE TIMESTAMP PUSH1 0xE0 DUP6 ADD MSTORE PUSH2 0x100 DUP5 ADD MSTORE ISZERO PUSH2 0x3792 JUMPI JUMPDEST POP SWAP1 DUP7 SWAP8 PUSH2 0x376C PUSH2 0x378C SWAP6 SWAP5 SWAP4 PUSH2 0x3747 PUSH32 0xE67E8665372D778117094EF9242F82E2FB28FC6328B119D80A5AB6520949CB3D SWAP11 CALLER PUSH2 0x39F5 JUMP JUMPDEST PUSH2 0x3755 PUSH1 0x1 PUSH1 0xB SLOAD ADD PUSH1 0xB SSTORE JUMP JUMPDEST PUSH2 0x3767 DUP12 PUSH0 MSTORE PUSH1 0x10 PUSH1 0x20 MSTORE PUSH1 0x40 PUSH0 KECCAK256 SWAP1 JUMP JUMPDEST PUSH2 0x34FE JUMP JUMPDEST DUP9 PUSH2 0x377F PUSH2 0x3779 DUP10 PUSH2 0x249F JUMP JUMPDEST DUP6 PUSH2 0x24C5 JUMP JUMPDEST SSTORE MLOAD SWAP6 DUP7 SWAP6 CALLER SWAP11 DUP8 PUSH2 0x359C JUMP JUMPDEST SUB SWAP1 LOG3 SWAP1 JUMP JUMPDEST SWAP1 SWAP7 POP PUSH0 DUP2 PUSH2 0x37E4 PUSH2 0x37B2 PUSH2 0xE89 PUSH1 0x15 SWAP9 SWAP8 SWAP7 SWAP9 SLOAD PUSH1 0x1 DUP1 PUSH1 0xA0 SHL SUB AND SWAP1 JUMP JUMPDEST PUSH1 0x1B SLOAD DUP13 MLOAD PUSH4 0x23B872DD PUSH1 0xE0 SHL DUP2 MSTORE CALLER PUSH1 0x4 DUP3 ADD MSTORE ADDRESS PUSH1 0x24 DUP3 ADD MSTORE PUSH1 0x44 DUP2 ADD SWAP2 SWAP1 SWAP2 MSTORE SWAP4 DUP5 SWAP3 DUP4 SWAP2 SWAP1 DUP3 SWAP1 PUSH1 0x64 DUP3 ADD SWAP1 JUMP JUMPDEST SUB SWAP3 GAS CALL DUP1 ISZERO PUSH2 0xF19 JUMPI PUSH2 0x37FF SWAP2 PUSH0 SWAP2 PUSH2 0x398D JUMPI JUMPDEST POP PUSH2 0x339B JUMP JUMPDEST PUSH1 0x15 SLOAD PUSH2 0x3852 SWAP1 DUP3 SWAP1 PUSH2 0x381A SWAP1 PUSH1 0x1 PUSH1 0x1 PUSH1 0xA0 SHL SUB AND PUSH2 0xE89 JUMP JUMPDEST PUSH1 0x17 SLOAD PUSH1 0x1B SLOAD DUP13 MLOAD PUSH4 0x95EA7B3 PUSH1 0xE0 SHL DUP2 MSTORE PUSH1 0x1 PUSH1 0x1 PUSH1 0xA0 SHL SUB SWAP1 SWAP3 AND PUSH1 0x4 DUP4 ADD MSTORE PUSH1 0x24 DUP3 ADD MSTORE SWAP3 DUP4 SWAP2 SWAP1 DUP3 SWAP1 PUSH0 SWAP1 DUP3 SWAP1 PUSH1 0x44 DUP3 ADD SWAP1 JUMP JUMPDEST SUB SWAP3 GAS CALL DUP1 ISZERO PUSH2 0xF19 JUMPI PUSH2 0x396F JUMPI JUMPDEST POP POP PUSH1 0x16 SLOAD PUSH2 0x3878 SWAP1 PUSH1 0x1 PUSH1 0x1 PUSH1 0xA0 SHL SUB AND PUSH2 0xE89 JUMP JUMPDEST SWAP3 PUSH1 0x1E SLOAD PUSH1 0x1B SLOAD DUP6 EXTCODESIZE ISZERO PUSH2 0x3E1 JUMPI DUP10 MLOAD PUSH4 0x85F4525 PUSH1 0xE4 SHL DUP2 MSTORE PUSH1 0x4 DUP2 ADD SWAP3 SWAP1 SWAP3 MSTORE PUSH1 0x24 DUP3 ADD MSTORE SWAP4 PUSH0 SWAP1 DUP6 SWAP1 PUSH1 0x44 SWAP1 DUP3 SWAP1 DUP5 SWAP1 GAS CALL SWAP8 DUP9 ISZERO PUSH2 0xF19 JUMPI PUSH2 0x376C PUSH32 0xE67E8665372D778117094EF9242F82E2FB28FC6328B119D80A5AB6520949CB3D SWAP9 PUSH2 0x378C SWAP7 DUP14 SWAP12 PUSH2 0x3956 JUMPI JUMPDEST POP PUSH2 0x38EE DUP12 PUSH2 0x3011 JUMP JUMPDEST PUSH2 0x38F9 PUSH1 0x13 SLOAD PUSH2 0x2ACE JUMP JUMPDEST PUSH2 0x390B DUP13 PUSH0 MSTORE PUSH1 0x12 PUSH1 0x20 MSTORE PUSH1 0x40 PUSH0 KECCAK256 SWAP1 JUMP JUMPDEST SSTORE PUSH32 0xE151B6219A1F85BF5E747C9BFFFDA79D67773B9DA98A8251092172802C9BCBE PUSH2 0x3938 PUSH1 0x13 SLOAD PUSH2 0x2ACE JUMP JUMPDEST DUP5 MLOAD DUP14 DUP2 MSTORE PUSH1 0x20 DUP2 ADD SWAP2 SWAP1 SWAP2 MSTORE PUSH1 0x40 SWAP1 LOG1 SWAP3 SWAP4 SWAP5 SWAP6 POP POP SWAP8 SWAP7 PUSH2 0x370F JUMP JUMPDEST DUP1 PUSH2 0x3963 PUSH2 0x3969 SWAP3 PUSH2 0xABB JUMP JUMPDEST DUP1 PUSH2 0x46D JUMP JUMPDEST PUSH0 PUSH2 0x38E4 JUMP JUMPDEST DUP2 PUSH2 0x3985 SWAP3 SWAP1 RETURNDATASIZE LT PUSH2 0xF12 JUMPI PUSH2 0xF0A DUP2 DUP4 PUSH2 0xB04 JUMP JUMPDEST POP PUSH0 DUP1 PUSH2 0x3861 JUMP JUMPDEST PUSH2 0x39A4 SWAP2 POP DUP4 RETURNDATASIZE DUP6 GT PUSH2 0xF12 JUMPI PUSH2 0xF0A DUP2 DUP4 PUSH2 0xB04 JUMP JUMPDEST PUSH0 PUSH2 0x37F9 JUMP JUMPDEST PUSH2 0x39B5 PUSH2 0x1809 PUSH2 0x7CB JUMP JUMPDEST SWAP3 PUSH2 0x36CE JUMP JUMPDEST PUSH2 0x39D2 SWAP2 POP DUP3 RETURNDATASIZE DUP5 GT PUSH2 0x18DC JUMPI PUSH2 0x18CD DUP2 DUP4 PUSH2 0xB04 JUMP JUMPDEST PUSH0 PUSH2 0x36BA JUMP JUMPDEST PUSH2 0x39EF SWAP2 POP DUP12 RETURNDATASIZE DUP14 GT PUSH2 0xF12 JUMPI PUSH2 0xF0A DUP2 DUP4 PUSH2 0xB04 JUMP JUMPDEST PUSH0 PUSH2 0x367C JUMP JUMPDEST SWAP1 PUSH1 0x40 MLOAD PUSH2 0x3A02 DUP2 PUSH2 0xACE JUMP JUMPDEST PUSH0 DUP2 MSTORE PUSH1 0x1 PUSH1 0x1 PUSH1 0xA0 SHL SUB DUP4 AND SWAP2 DUP3 ISZERO PUSH2 0x3ADE JUMPI PUSH2 0x3A1F DUP2 PUSH2 0x296B JUMP JUMPDEST PUSH2 0x3A99 JUMPI DUP4 DUP2 PUSH2 0x28EF SWAP5 PUSH2 0x3A36 DUP3 PUSH2 0xB32 SWAP9 PUSH2 0x2EA2 JUMP JUMPDEST PUSH1 0x1 PUSH1 0x1 PUSH1 0xA0 SHL SUB DUP4 AND PUSH0 SWAP1 DUP2 MSTORE PUSH1 0x3 PUSH1 0x20 MSTORE PUSH1 0x40 SWAP1 KECCAK256 PUSH2 0x3A57 DUP2 SLOAD PUSH2 0x2AEE JUMP JUMPDEST SWAP1 SSTORE PUSH2 0x3A6F DUP4 PUSH2 0x2BAD DUP5 PUSH0 MSTORE PUSH1 0x2 PUSH1 0x20 MSTORE PUSH1 0x40 PUSH0 KECCAK256 SWAP1 JUMP JUMPDEST PUSH0 PUSH32 0xDDF252AD1BE2C89B69C2B068FC378DAA952BA7F163C4A11628F55A4DF523B3EF DUP2 DUP1 LOG4 PUSH2 0x2DA8 JUMP JUMPDEST PUSH1 0x40 MLOAD PUSH3 0x461BCD PUSH1 0xE5 SHL DUP2 MSTORE PUSH1 0x20 PUSH1 0x4 DUP3 ADD MSTORE PUSH1 0x1C PUSH1 0x24 DUP3 ADD MSTORE PUSH32 0x4552433732313A20746F6B656E20616C7265616479206D696E74656400000000 PUSH1 0x44 DUP3 ADD MSTORE PUSH1 0x64 SWAP1 REVERT JUMPDEST PUSH1 0x64 PUSH1 0x40 MLOAD PUSH3 0x461BCD PUSH1 0xE5 SHL DUP2 MSTORE PUSH1 0x20 PUSH1 0x4 DUP3 ADD MSTORE PUSH1 0x20 PUSH1 0x24 DUP3 ADD MSTORE PUSH32 0x4552433732313A206D696E7420746F20746865207A65726F2061646472657373 PUSH1 0x44 DUP3 ADD MSTORE REVERT JUMPDEST ISZERO PUSH2 0x3B29 JUMPI JUMP JUMPDEST PUSH1 0x40 MLOAD PUSH3 0x461BCD PUSH1 0xE5 SHL DUP2 MSTORE PUSH1 0x20 PUSH1 0x4 DUP3 ADD MSTORE PUSH1 0x16 PUSH1 0x24 DUP3 ADD MSTORE PUSH22 0x105C9D1A58DB1948191BD95CC81B9BDD08195E1A5CDD PUSH1 0x52 SHL PUSH1 0x44 DUP3 ADD MSTORE PUSH1 0x64 SWAP1 REVERT JUMPDEST PUSH1 0x20 SWAP1 DUP2 DUP2 DUP5 SUB SLT PUSH2 0x3E1 JUMPI DUP1 MLOAD PUSH1 0x1 PUSH1 0x1 PUSH1 0x40 SHL SUB SWAP2 DUP3 DUP3 GT PUSH2 0x3E1 JUMPI ADD SWAP1 DUP4 PUSH1 0x1F DUP4 ADD SLT ISZERO PUSH2 0x3E1 JUMPI DUP2 MLOAD PUSH2 0x3B9D DUP2 PUSH2 0x209D JUMP JUMPDEST SWAP5 PUSH1 0x40 SWAP3 PUSH2 0x3BAD DUP5 MLOAD SWAP8 DUP9 PUSH2 0xB04 JUMP JUMPDEST DUP3 DUP8 MSTORE DUP6 DUP1 DUP9 ADD SWAP4 PUSH1 0x5 SHL DUP7 ADD ADD SWAP5 DUP3 DUP7 GT PUSH2 0x3E1 JUMPI DUP7 DUP2 ADD SWAP4 JUMPDEST DUP7 DUP6 LT PUSH2 0x3BDA JUMPI POP POP POP POP POP POP POP POP SWAP1 JUMP JUMPDEST DUP5 MLOAD DUP4 DUP2 GT PUSH2 0x3E1 JUMPI DUP3 ADD SWAP1 DUP5 PUSH1 0x3F DUP4 ADD SLT ISZERO PUSH2 0x3E1 JUMPI DUP9 DUP3 ADD MLOAD SWAP1 PUSH2 0x3BFF DUP3 PUSH2 0xB41 JUMP JUMPDEST PUSH2 0x3C0B DUP10 MLOAD SWAP2 DUP3 PUSH2 0xB04 JUMP JUMPDEST DUP3 DUP2 MSTORE DUP7 DUP10 DUP5 DUP7 ADD ADD GT PUSH2 0x3E1 JUMPI PUSH2 0x3C2C DUP12 SWAP5 SWAP4 DUP6 SWAP5 DUP12 DUP7 DUP6 ADD SWAP2 ADD PUSH2 0x527 JUMP JUMPDEST DUP2 MSTORE ADD SWAP5 ADD SWAP4 PUSH2 0x3BC8 JUMP JUMPDEST SWAP1 PUSH1 0x20 PUSH2 0x57E SWAP3 DUP2 DUP2 MSTORE ADD SWAP1 PUSH2 0x21A8 JUMP JUMPDEST ISZERO PUSH2 0x3C4F JUMPI JUMP JUMPDEST PUSH1 0x64 PUSH1 0x40 MLOAD PUSH3 0x461BCD PUSH1 0xE5 SHL DUP2 MSTORE PUSH1 0x20 PUSH1 0x4 DUP3 ADD MSTORE PUSH1 0x20 PUSH1 0x24 DUP3 ADD MSTORE PUSH32 0x436F6E73656E736F7573206D75732062652067726561746572207468616E2030 PUSH1 0x44 DUP3 ADD MSTORE REVERT JUMPDEST ISZERO PUSH2 0x3C9A JUMPI JUMP JUMPDEST PUSH1 0x40 MLOAD PUSH3 0x461BCD PUSH1 0xE5 SHL DUP2 MSTORE PUSH1 0x20 PUSH1 0x4 DUP3 ADD MSTORE PUSH1 0x18 PUSH1 0x24 DUP3 ADD MSTORE PUSH24 0x436F6E73656E736F7573206E6F7420496E20426F756E6473 PUSH1 0x40 SHL PUSH1 0x44 DUP3 ADD MSTORE PUSH1 0x64 SWAP1 REVERT JUMPDEST ISZERO PUSH2 0x3CE1 JUMPI JUMP JUMPDEST PUSH1 0x40 MLOAD PUSH3 0x461BCD PUSH1 0xE5 SHL DUP2 MSTORE PUSH1 0x20 PUSH1 0x4 DUP3 ADD MSTORE PUSH1 0x24 DUP1 DUP3 ADD MSTORE PUSH32 0x596F7527766520616C7265616479207265766965776564207468697320617274 PUSH1 0x44 DUP3 ADD MSTORE PUSH4 0x69636C65 PUSH1 0xE0 SHL PUSH1 0x64 DUP3 ADD MSTORE PUSH1 0x84 SWAP1 REVERT JUMPDEST PUSH1 0x1 PUSH1 0x1 PUSH1 0xA0 SHL SUB SWAP1 SWAP2 AND DUP2 MSTORE PUSH1 0x40 PUSH1 0x20 DUP3 ADD DUP2 SWAP1 MSTORE PUSH2 0x57E SWAP3 SWAP2 ADD SWAP1 PUSH2 0x21A8 JUMP JUMPDEST DUP1 MLOAD DUP3 LT ISZERO PUSH2 0x7AE JUMPI PUSH1 0x20 SWAP2 PUSH1 0x5 SHL ADD ADD SWAP1 JUMP JUMPDEST DUP2 MLOAD DUP2 SLOAD PUSH1 0x1 PUSH1 0x1 PUSH1 0xA0 SHL SUB NOT AND PUSH1 0x1 PUSH1 0x1 PUSH1 0xA0 SHL SUB SWAP2 SWAP1 SWAP2 AND OR DUP2 SSTORE SWAP1 PUSH1 0x1 SWAP1 DUP2 DUP4 ADD PUSH1 0x20 DUP1 DUP4 ADD MLOAD SWAP4 DUP5 MLOAD SWAP2 PUSH1 0x1 PUSH1 0x1 PUSH1 0x40 SHL SUB DUP4 GT PUSH2 0xA9B JUMPI PUSH2 0x3DB8 DUP4 PUSH2 0x3DB2 DUP7 SLOAD PUSH2 0x2170 JUMP JUMPDEST DUP7 PUSH2 0x33F3 JUMP JUMPDEST DUP1 PUSH1 0x1F DUP5 GT PUSH1 0x1 EQ PUSH2 0x3E16 JUMPI POP SWAP2 DUP1 DUP1 SWAP3 PUSH1 0x80 SWAP7 SWAP6 SWAP5 PUSH1 0x4 SWAP9 PUSH0 SWAP5 PUSH2 0x3E0B JUMPI JUMPDEST POP POP SHL SWAP2 PUSH0 NOT SWAP1 PUSH1 0x3 SHL SHR NOT AND OR SWAP1 SSTORE JUMPDEST PUSH1 0x40 DUP2 ADD MLOAD PUSH1 0x2 DUP6 ADD SSTORE PUSH2 0x3E04 PUSH1 0x60 DUP3 ADD MLOAD PUSH1 0x3 DUP7 ADD PUSH2 0x3436 JUMP JUMPDEST ADD MLOAD SWAP2 ADD SSTORE JUMP JUMPDEST ADD MLOAD SWAP3 POP PUSH0 DUP1 PUSH2 0x3DD8 JUMP JUMPDEST SWAP2 SWAP4 SWAP5 SWAP6 PUSH1 0x1F NOT DUP5 AND PUSH2 0x3E2C DUP8 PUSH0 MSTORE PUSH1 0x20 PUSH0 KECCAK256 SWAP1 JUMP JUMPDEST SWAP4 PUSH0 SWAP1 JUMPDEST DUP3 DUP3 LT PUSH2 0x3E71 JUMPI POP POP SWAP2 PUSH1 0x4 SWAP8 SWAP6 SWAP4 SWAP2 DUP6 PUSH1 0x80 SWAP9 SWAP7 SWAP5 LT PUSH2 0x3E59 JUMPI JUMPDEST POP POP POP DUP2 SHL ADD SWAP1 SSTORE PUSH2 0x3DE9 JUMP JUMPDEST ADD MLOAD PUSH0 NOT PUSH1 0xF8 DUP5 PUSH1 0x3 SHL AND SHR NOT AND SWAP1 SSTORE PUSH0 DUP1 DUP1 PUSH2 0x3E4C JUMP JUMPDEST DUP1 DUP9 DUP7 SWAP8 DUP3 SWAP5 SWAP8 DUP8 ADD MLOAD DUP2 SSTORE ADD SWAP7 ADD SWAP5 ADD SWAP1 PUSH2 0x3E30 JUMP JUMPDEST SWAP2 SWAP3 PUSH2 0x57E SWAP6 SWAP4 PUSH2 0x3EAB SWAP3 DUP5 MSTORE PUSH1 0x20 DUP5 ADD MSTORE PUSH1 0xA0 PUSH1 0x40 DUP5 ADD MSTORE PUSH1 0xA0 DUP4 ADD SWAP1 PUSH2 0x548 JUMP JUMPDEST SWAP3 PUSH1 0x60 DUP3 ADD MSTORE PUSH1 0x80 DUP2 DUP5 SUB SWAP2 ADD MSTORE PUSH2 0x548 JUMP JUMPDEST SWAP1 DUP2 PUSH1 0x60 SWAP2 SUB SLT PUSH2 0x3E1 JUMPI DUP1 MLOAD SWAP2 PUSH1 0x40 PUSH1 0x20 DUP4 ADD MLOAD SWAP3 ADD MLOAD SWAP1 JUMP JUMPDEST SWAP1 PUSH1 0x40 MLOAD SWAP2 DUP3 DUP2 SLOAD SWAP2 DUP3 DUP3 MSTORE PUSH1 0x20 SWAP3 DUP4 DUP4 ADD SWAP2 PUSH0 MSTORE DUP4 PUSH0 KECCAK256 SWAP4 PUSH0 SWAP1 JUMPDEST DUP3 DUP3 LT PUSH2 0x3F0B JUMPI POP POP POP PUSH2 0xB32 SWAP3 POP SUB DUP4 PUSH2 0xB04 JUMP JUMPDEST DUP6 SLOAD DUP5 MSTORE PUSH1 0x1 SWAP6 DUP7 ADD SWAP6 DUP9 SWAP6 POP SWAP4 DUP2 ADD SWAP4 SWAP1 SWAP2 ADD SWAP1 PUSH2 0x3EF5 JUMP JUMPDEST SWAP2 SWAP1 DUP3 PUSH1 0x40 SWAP2 SUB SLT PUSH2 0x3E1 JUMPI PUSH1 0x20 DUP3 MLOAD SWAP3 ADD MLOAD SWAP1 JUMP JUMPDEST SWAP1 PUSH1 0x64 DUP3 MUL SWAP2 DUP1 DUP4 DIV PUSH1 0x64 EQ SWAP1 ISZERO OR ISZERO PUSH2 0x2ADC JUMPI JUMP JUMPDEST SWAP1 DUP2 PUSH0 SUB SWAP2 DUP1 DUP4 SDIV PUSH0 NOT EQ SWAP1 ISZERO OR ISZERO PUSH2 0x2ADC JUMPI JUMP JUMPDEST SWAP1 DUP2 PUSH1 0x20 SWAP2 SUB SLT PUSH2 0x3E1 JUMPI CALLDATALOAD SWAP1 JUMP JUMPDEST PUSH1 0x1 PUSH1 0xFF SHL DUP2 EQ PUSH2 0x2ADC JUMPI PUSH0 SUB SWAP1 JUMP JUMPDEST SWAP2 SWAP1 SWAP2 DUP3 DUP2 EQ PUSH2 0x405E JUMPI PUSH2 0x3F99 DUP4 SLOAD PUSH2 0x2170 JUMP JUMPDEST PUSH1 0x1 PUSH1 0x1 PUSH1 0x40 SHL SUB DUP2 GT PUSH2 0xA9B JUMPI PUSH2 0x3FB5 DUP2 PUSH2 0x3457 DUP5 SLOAD PUSH2 0x2170 JUMP JUMPDEST PUSH0 SWAP4 PUSH1 0x1F DUP3 GT PUSH1 0x1 EQ PUSH2 0x3FED JUMPI SWAP4 DUP2 SWAP3 SWAP4 SWAP5 PUSH0 SWAP3 PUSH2 0x3FE2 JUMPI POP POP DUP2 PUSH1 0x1 SHL SWAP2 PUSH0 NOT SWAP1 PUSH1 0x3 SHL SHR NOT AND OR SWAP1 SSTORE JUMP JUMPDEST ADD SLOAD SWAP1 POP PUSH0 DUP1 PUSH2 0x3477 JUMP JUMPDEST PUSH2 0x3FFF PUSH1 0x1F NOT DUP4 AND SWAP2 PUSH0 MSTORE PUSH1 0x20 PUSH0 KECCAK256 SWAP1 JUMP JUMPDEST SWAP5 PUSH2 0x400D DUP5 PUSH0 MSTORE PUSH1 0x20 PUSH0 KECCAK256 SWAP1 JUMP JUMPDEST SWAP2 DUP2 JUMPDEST DUP2 DUP2 LT PUSH2 0x4046 JUMPI POP SWAP6 DUP4 PUSH1 0x1 SWAP6 SWAP7 SWAP8 LT PUSH2 0x402E JUMPI POP POP POP DUP2 SHL ADD SWAP1 SSTORE JUMP JUMPDEST ADD SLOAD PUSH0 NOT PUSH1 0xF8 DUP5 PUSH1 0x3 SHL AND SHR NOT AND SWAP1 SSTORE PUSH0 DUP1 DUP1 PUSH2 0x34C4 JUMP JUMPDEST DUP8 DUP4 ADD SLOAD DUP5 SSTORE PUSH1 0x1 SWAP4 DUP5 ADD SWAP4 SWAP1 SWAP3 ADD SWAP2 PUSH1 0x20 ADD PUSH2 0x4010 JUMP JUMPDEST POP SWAP1 POP JUMP JUMPDEST PUSH1 0x20 DUP3 EQ PUSH2 0x406F JUMPI POP POP JUMP JUMPDEST PUSH2 0x407B SWAP2 DUP2 ADD SWAP1 PUSH2 0x3F66 JUMP JUMPDEST PUSH0 DUP1 DUP3 SGT ISZERO PUSH2 0x426A JUMPI POP PUSH1 0x1 JUMPDEST DUP2 ISZERO ISZERO DUP1 PUSH2 0x4234 JUMPI JUMPDEST DUP1 PUSH2 0x4216 JUMPI JUMPDEST DUP1 PUSH2 0x41FB JUMPI JUMPDEST PUSH2 0x40A5 JUMPI POP POP JUMP JUMPDEST PUSH0 SWAP2 PUSH2 0x415A SWAP2 ISZERO ISZERO PUSH1 0x1 SUB PUSH2 0x41EB JUMPI PUSH2 0x40DA PUSH2 0x40BF PUSH2 0x81F JUMP JUMPDEST POP PUSH1 0x6 PUSH2 0x40D4 DUP5 PUSH0 MSTORE PUSH1 0x10 PUSH1 0x20 MSTORE PUSH1 0x40 PUSH0 KECCAK256 SWAP1 JUMP JUMPDEST ADD PUSH2 0x3F85 JUMP JUMPDEST DUP1 PUSH32 0x98C0C222D59EC9E997128B263105002DE2747B52C5C56A9F8468E6C96C44C0EE PUSH2 0x4120 PUSH1 0x6 PUSH2 0x4113 DUP5 PUSH0 MSTORE PUSH1 0x10 PUSH1 0x20 MSTORE PUSH1 0x40 PUSH0 KECCAK256 SWAP1 JUMP JUMPDEST ADD PUSH1 0x40 MLOAD SWAP2 DUP3 SWAP2 DUP3 PUSH2 0x3C37 JUMP JUMPDEST SUB SWAP1 LOG2 PUSH2 0x4135 DUP2 PUSH0 MSTORE PUSH1 0x12 PUSH1 0x20 MSTORE PUSH1 0x40 PUSH0 KECCAK256 SWAP1 JUMP JUMPDEST SLOAD PUSH1 0x13 SLOAD SWAP1 PUSH2 0x4143 DUP3 PUSH2 0x2ACE JUMP JUMPDEST DUP2 SUB PUSH2 0x4163 JUMPI JUMPDEST POP POP PUSH0 MSTORE PUSH1 0x12 PUSH1 0x20 MSTORE PUSH1 0x40 PUSH0 KECCAK256 SWAP1 JUMP JUMPDEST SSTORE PUSH2 0xB32 PUSH2 0x30D5 JUMP JUMPDEST PUSH2 0x41A4 PUSH2 0x419B PUSH2 0x1497 PUSH2 0x4196 PUSH32 0xE151B6219A1F85BF5E747C9BFFFDA79D67773B9DA98A8251092172802C9BCBE SWAP6 PUSH2 0x2ACE JUMP JUMPDEST PUSH2 0x796 JUMP JUMPDEST PUSH2 0x3068 DUP4 PUSH2 0x796 JUMP JUMPDEST DUP1 PUSH2 0x41C7 PUSH2 0x41B9 PUSH2 0x1497 PUSH2 0x4196 PUSH1 0x13 SLOAD PUSH2 0x2ACE JUMP JUMPDEST PUSH0 MSTORE PUSH1 0x12 PUSH1 0x20 MSTORE PUSH1 0x40 PUSH0 KECCAK256 SWAP1 JUMP JUMPDEST SSTORE PUSH2 0x41D4 PUSH2 0x1497 DUP3 PUSH2 0x796 JUMP JUMPDEST PUSH1 0x40 DUP1 MLOAD SWAP2 DUP3 MSTORE PUSH1 0x20 DUP3 ADD SWAP3 SWAP1 SWAP3 MSTORE LOG1 PUSH0 DUP1 PUSH2 0x414A JUMP JUMPDEST PUSH2 0x41F6 PUSH2 0x40BF PUSH2 0x7EA JUMP JUMPDEST PUSH2 0x40DA JUMP JUMPDEST POP PUSH2 0x420E DUP3 PUSH0 MSTORE PUSH1 0x12 PUSH1 0x20 MSTORE PUSH1 0x40 PUSH0 KECCAK256 SWAP1 JUMP JUMPDEST SLOAD ISZERO ISZERO PUSH2 0x409D JUMP JUMPDEST POP PUSH1 0x7 PUSH2 0x422B DUP4 PUSH0 MSTORE PUSH1 0x10 PUSH1 0x20 MSTORE PUSH1 0x40 PUSH0 KECCAK256 SWAP1 JUMP JUMPDEST ADD SLOAD ISZERO ISZERO PUSH2 0x4097 JUMP JUMPDEST POP PUSH2 0x4262 PUSH1 0x7 PUSH2 0x424C DUP5 PUSH0 MSTORE PUSH1 0x10 PUSH1 0x20 MSTORE PUSH1 0x40 PUSH0 KECCAK256 SWAP1 JUMP JUMPDEST ADD SLOAD PUSH1 0x8 PUSH2 0x14C2 DUP6 PUSH0 MSTORE PUSH1 0x10 PUSH1 0x20 MSTORE PUSH1 0x40 PUSH0 KECCAK256 SWAP1 JUMP JUMPDEST TIMESTAMP LT ISZERO PUSH2 0x4091 JUMP JUMPDEST PUSH2 0x4274 SWAP1 SWAP2 PUSH2 0x3F75 JUMP JUMPDEST SWAP1 PUSH2 0x4088 JUMP JUMPDEST ISZERO PUSH2 0x4281 JUMPI JUMP JUMPDEST PUSH1 0x40 MLOAD PUSH3 0x461BCD PUSH1 0xE5 SHL DUP2 MSTORE PUSH1 0x20 PUSH1 0x4 DUP3 ADD MSTORE PUSH1 0x1A PUSH1 0x24 DUP3 ADD MSTORE PUSH32 0x4E6F7420746865206F776E6572206F662074686520746F6B656E000000000000 PUSH1 0x44 DUP3 ADD MSTORE PUSH1 0x64 SWAP1 REVERT JUMPDEST ISZERO PUSH2 0x42CD JUMPI JUMP JUMPDEST PUSH1 0x40 MLOAD PUSH3 0x461BCD PUSH1 0xE5 SHL DUP2 MSTORE PUSH1 0x20 PUSH1 0x4 DUP3 ADD MSTORE PUSH1 0x21 PUSH1 0x24 DUP3 ADD MSTORE PUSH32 0x495046532068617368206E6F7420617474616368656420746F2041727469636C PUSH1 0x44 DUP3 ADD MSTORE PUSH1 0x65 PUSH1 0xF8 SHL PUSH1 0x64 DUP3 ADD MSTORE PUSH1 0x84 SWAP1 REVERT JUMPDEST SWAP1 PUSH1 0x8 PUSH2 0x4327 PUSH2 0xB34 JUMP JUMPDEST SWAP3 PUSH2 0x4331 DUP2 PUSH2 0x2239 JUMP JUMPDEST DUP5 MSTORE PUSH2 0x433F PUSH1 0x1 DUP3 ADD PUSH2 0x2239 JUMP JUMPDEST PUSH1 0x20 DUP6 ADD MSTORE PUSH1 0x2 DUP2 ADD SLOAD PUSH1 0x1 PUSH1 0x1 PUSH1 0xA0 SHL SUB AND PUSH1 0x40 DUP6 ADD MSTORE PUSH2 0x4363 PUSH1 0x3 DUP3 ADD PUSH2 0x2239 JUMP JUMPDEST PUSH1 0x60 DUP6 ADD MSTORE PUSH2 0x4374 PUSH1 0x4 DUP3 ADD PUSH2 0x2239 JUMP JUMPDEST PUSH1 0x80 DUP6 ADD MSTORE PUSH2 0x4385 PUSH1 0x5 DUP3 ADD PUSH2 0x2239 JUMP JUMPDEST PUSH1 0xA0 DUP6 ADD MSTORE PUSH2 0x4396 PUSH1 0x6 DUP3 ADD PUSH2 0x2239 JUMP JUMPDEST PUSH1 0xC0 DUP6 ADD MSTORE PUSH1 0x7 DUP2 ADD SLOAD PUSH1 0xE0 DUP6 ADD MSTORE ADD SLOAD PUSH2 0x100 DUP4 ADD MSTORE JUMP JUMPDEST PUSH2 0x43C4 PUSH1 0x1 DUP1 PUSH1 0xA0 SHL SUB PUSH1 0xA SLOAD AND CALLER EQ PUSH2 0x25CE JUMP JUMPDEST DUP1 MLOAD SWAP1 PUSH1 0x1 PUSH1 0x40 SHL DUP3 GT PUSH2 0xA9B JUMPI PUSH1 0xF SLOAD DUP3 PUSH1 0xF SSTORE DUP1 DUP4 LT PUSH2 0x4427 JUMPI JUMPDEST POP PUSH1 0xF PUSH0 MSTORE PUSH1 0x20 SWAP1 DUP2 ADD SWAP1 PUSH0 DUP1 MLOAD PUSH1 0x20 PUSH2 0x45A3 DUP4 CODECOPY DUP2 MLOAD SWAP2 MSTORE PUSH0 SWAP3 JUMPDEST DUP5 DUP5 LT PUSH2 0x440B JUMPI POP POP POP POP POP JUMP JUMPDEST PUSH1 0x1 DUP4 DUP3 PUSH2 0x441B DUP4 SWAP5 MLOAD DUP7 PUSH2 0x3436 JUMP JUMPDEST ADD SWAP3 ADD SWAP4 ADD SWAP3 SWAP1 PUSH2 0x43FD JUMP JUMPDEST PUSH1 0xF PUSH0 SWAP1 DUP2 MSTORE PUSH0 DUP1 MLOAD PUSH1 0x20 PUSH2 0x45A3 DUP4 CODECOPY DUP2 MLOAD SWAP2 MSTORE SWAP2 DUP3 ADD SWAP2 DUP5 ADD JUMPDEST DUP3 DUP2 LT PUSH2 0x4450 JUMPI POP POP PUSH2 0x43E1 JUMP JUMPDEST DUP1 PUSH2 0x445D PUSH1 0x1 SWAP3 SLOAD PUSH2 0x2170 JUMP JUMPDEST DUP1 PUSH2 0x446A JUMPI JUMPDEST POP ADD PUSH2 0x4442 JUMP JUMPDEST PUSH1 0x1F SWAP1 DUP2 DUP2 GT DUP5 EQ PUSH2 0x4482 JUMPI POP POP DUP3 DUP2 SSTORE JUMPDEST PUSH0 PUSH2 0x4463 JUMP JUMPDEST DUP4 PUSH2 0x44A2 SWAP3 PUSH2 0x4494 DUP6 PUSH0 MSTORE PUSH1 0x20 PUSH0 KECCAK256 SWAP1 JUMP JUMPDEST SWAP3 ADD PUSH1 0x5 SHR DUP3 ADD SWAP2 ADD PUSH2 0x33DD JUMP JUMPDEST PUSH0 DUP2 DUP2 MSTORE PUSH1 0x20 DUP2 KECCAK256 DUP2 DUP4 SSTORE SSTORE PUSH2 0x447C JUMP JUMPDEST ISZERO PUSH2 0x44BA JUMPI JUMP JUMPDEST PUSH1 0x40 MLOAD PUSH3 0x461BCD PUSH1 0xE5 SHL DUP2 MSTORE PUSH1 0x20 PUSH1 0x4 DUP3 ADD MSTORE PUSH1 0x1B PUSH1 0x24 DUP3 ADD MSTORE PUSH32 0x563220636F6E74726163742061646472657373206E6F74207365740000000000 PUSH1 0x44 DUP3 ADD MSTORE PUSH1 0x64 SWAP1 REVERT JUMPDEST SWAP7 SWAP4 SWAP5 PUSH2 0x454A PUSH2 0x4574 SWAP7 PUSH2 0x453C PUSH2 0x4566 SWAP7 PUSH2 0x57E SWAP13 SWAP11 SWAP7 PUSH2 0x4558 SWAP7 DUP14 MSTORE PUSH1 0x1 DUP1 PUSH1 0xA0 SHL SUB AND PUSH1 0x20 DUP14 ADD MSTORE PUSH1 0x40 DUP13 PUSH2 0x100 SWAP2 DUP3 SWAP2 ADD MSTORE DUP13 ADD SWAP1 PUSH2 0x548 JUMP JUMPDEST SWAP1 DUP11 DUP3 SUB PUSH1 0x60 DUP13 ADD MSTORE PUSH2 0x548 JUMP JUMPDEST SWAP1 DUP9 DUP3 SUB PUSH1 0x80 DUP11 ADD MSTORE PUSH2 0x548 JUMP JUMPDEST SWAP1 DUP7 DUP3 SUB PUSH1 0xA0 DUP9 ADD MSTORE PUSH2 0x548 JUMP JUMPDEST SWAP1 DUP5 DUP3 SUB PUSH1 0xC0 DUP7 ADD MSTORE PUSH2 0x548 JUMP JUMPDEST SWAP2 PUSH1 0xE0 DUP2 DUP5 SUB SWAP2 ADD MSTORE PUSH2 0x548 JUMP INVALID PUSH7 0xDE8FFDA797E3DE SWAP13 SDIV 0xE8 0xFC JUMPI 0xB3 0xBF 0xE 0xC2 DUP11 SWAP4 0xD BLOCKHASH 0xB0 0xD2 DUP6 0xD9 EXTCODECOPY MOD POP SHR 0xF6 LOG0 SWAP1 DUP14 GT ADDMOD 0xE1 SIGNEXTEND 0xCB PUSH29 0x27DDDFC02ED9D693A074039D026CF4EA4240B40F7D581AC802A2646970 PUSH7 0x73582212204F35 PUSH29 0xBA2435081D1582A87EE40B687D63289B71AA1C6B1DC51F0DA9557202FF PUSH5 0x736F6C6343 STOP ADDMOD EQ STOP CALLER 0x29 0xD 0xEC 0xD9 SLOAD DUP12 PUSH3 0xA8D603 GASLIMIT 0xA9 DUP9 CODESIZE PUSH16 0xC84BA6BC95484008F6362F93160EF3E5 PUSH4 0xB10E2D52 PUSH23 0x12073B26EECDFD717E6A320CF44B4AFAC2B0732D9FCBE2 0xB7 STATICCALL 0xC 0xF6 DUP14 GT ADDMOD 0xE1 SIGNEXTEND 0xCB PUSH29 0x27DDDFC02ED9D693A074039D026CF4EA4240B40F7D581AC80200000000 "},"methodIdentifiers":{"ActiveReviews(uint256)":"0cd305d3","ActiveReviewsIndexes(uint256)":"0f299e34","AutomationContract()":"408958d6","ReviewersContract()":"56f5c94a","SubjectsContract()":"1bbb4d46","addKeyword(uint256,string)":"7d67e967","approve(address,uint256)":"095ea7b3","articleReviews(uint256,uint256)":"3e7c2042","articles(uint256)":"edcfafe6","balanceOf(address)":"70a08231","checkUpKeep(bytes)":"5e6c102e","getActiveReviews()":"041948ca","getActiveReviewsIndex(uint256)":"dfcf5189","getActiveReviewsLength()":"461350d9","getApproved(uint256)":"081812fc","getArticleByHash(string,string)":"2602c258","getArticleConsesous(uint256)":"ac3d8153","getArticleIdByHash(string,string)":"a164205a","getArticleReviews(uint256)":"c6fea1a6","getReview(uint256)":"990581b6","getReviewConsenous(uint256)":"b9e2fc3e","getReviewsForArticle(uint256)":"2056b05f","hasReviewed(uint256,address)":"7c7198cc","incrementToken()":"f6a800ee","ipfsHashToTokenId(string,string)":"f0f2e469","isApprovedForAll(address,address)":"e985e9c5","maxReviews()":"4ed59812","mintArticle(string,string,string,string,string)":"5f23b056","name()":"06fdde03","openVoteTime()":"9b1cb58e","owner()":"8da5cb5b","ownerOf(uint256)":"6352211e","performUpkeep(bytes)":"4585e33b","proposalFeeInLink()":"7823e226","renounceOwnership()":"715018a6","reviewCounter()":"e168b3a8","reviews(uint256)":"e83ddcea","safeTransferFrom(address,address,uint256)":"42842e0e","safeTransferFrom(address,address,uint256,bytes)":"b88d4fde","setApprovalForAll(address,bool)":"a22cb465","setAutomationRegistry(address)":"5ff2d2aa","setFee(uint256)":"69fe0e2d","setMaxReviews(uint256)":"d1a34aa3","setReviewersContract(address)":"7eb9fd1d","setSubjectsContract(address)":"75bca85a","setUpkkepId(uint256)":"5787a0cc","setV2Contract(address)":"c17589d7","setdefaultConsenousTypes(string[])":"d8db3807","submitReview(uint256,string,uint256)":"6356eea4","supportsInterface(bytes4)":"01ffc9a7","symbol()":"95d89b41","tokenByIndex(uint256)":"4f6ccce7","tokenOfOwnerByIndex(address,uint256)":"2f745c59","tokenURI(uint256)":"c87b56dd","totalSupply()":"18160ddd","transferFrom(address,address,uint256)":"23b872dd","transferNFTsToV2(uint256)":"336c1ad7","transferOwnership(address)":"f2fde38b","transferToken(address,uint256)":"1072cbea","upkeepId()":"d2aa789f"}}}}}