{"contracts/MockLinkToken.sol":{"MockLinkToken":{"abi":[{"anonymous":false,"inputs":[{"indexed":true,"internalType":"address","name":"owner","type":"address"},{"indexed":true,"internalType":"address","name":"spender","type":"address"},{"indexed":false,"internalType":"uint256","name":"value","type":"uint256"}],"name":"Approval","type":"event"},{"anonymous":false,"inputs":[{"indexed":true,"internalType":"address","name":"from","type":"address"},{"indexed":true,"internalType":"address","name":"to","type":"address"},{"indexed":false,"internalType":"uint256","name":"value","type":"uint256"}],"name":"Transfer","type":"event"},{"inputs":[{"internalType":"address","name":"spender","type":"address"},{"internalType":"uint256","name":"value","type":"uint256"}],"name":"approve","outputs":[{"internalType":"bool","name":"","type":"bool"}],"stateMutability":"nonpayable","type":"function"},{"inputs":[{"internalType":"address","name":"owner","type":"address"}],"name":"balanceOf","outputs":[{"internalType":"uint256","name":"","type":"uint256"}],"stateMutability":"view","type":"function"},{"inputs":[{"internalType":"address","name":"to","type":"address"},{"internalType":"uint256","name":"value","type":"uint256"}],"name":"mint","outputs":[],"stateMutability":"nonpayable","type":"function"},{"inputs":[{"internalType":"address","name":"to","type":"address"},{"internalType":"uint256","name":"value","type":"uint256"}],"name":"transfer","outputs":[{"internalType":"bool","name":"","type":"bool"}],"stateMutability":"nonpayable","type":"function"},{"inputs":[{"internalType":"address","name":"from","type":"address"},{"internalType":"address","name":"to","type":"address"},{"internalType":"uint256","name":"value","type":"uint256"}],"name":"transferFrom","outputs":[{"internalType":"bool","name":"","type":"bool"}],"stateMutability":"nonpayable","type":"function"}],"evm":{"bytecode":{"linkReferences":{},"object":"60808060405234610016576103cf908161001b8239f35b5f80fdfe608060408181526004361015610013575f80fd5b5f91823560e01c908163095ea7b31461027b5750806323b872dd1461016e57806340c10f191461011957806370a08231146100e35763a9059cbb14610056575f80fd5b346100df57806003193601126100df576020916100716102ee565b826024359133845283865261008b83838620541015610308565b33845283865281842061009f84825461034b565b90556001600160a01b0316808452838652922080546100bf90839061036c565b905582519081525f8051602061037a833981519152843392a35160018152f35b5080fd5b50346100df5760203660031901126100df5760209181906001600160a01b0361010a6102ee565b16815280845220549051908152f35b50346100df57806003193601126100df57815f8051602061037a83398151915260206101436102ee565b6024359060018060a01b03169485855284835280852061016483825461036c565b905551908152a380f35b50346100df5760603660031901126100df576101886102ee565b6024356001600160a01b038181169291839003610277576044359116908185526020948086526101bd82868320541015610308565b82815260018652848120338252865281858220541061023e575f8051602061037a833981519152918582858994528084528181206101fc84825461034b565b905586815280845281812061021284825461036c565b90558581526001845281812033825284522061022f82825461034b565b90558551908152a35160018152f35b845162461bcd60e51b8152600481018790526012602482015271105b1b1bddd85b98d948195e18d95959195960721b6044820152606490fd5b8480fd5b9050346102ea57816003193601126102ea57916020928261029a6102ee565b92602435918291338152600188528181209560018060a01b0316958682528852205581527f8c5be1e5ebec7d5bd14f71427d1e84f3dd0314c0f7b2291e5b200ac8c7c3b925843392a35160018152f35b8280fd5b600435906001600160a01b038216820361030457565b5f80fd5b1561030f57565b60405162461bcd60e51b8152602060048201526014602482015273496e73756666696369656e742062616c616e636560601b6044820152606490fd5b9190820391821161035857565b634e487b7160e01b5f52601160045260245ffd5b919082018092116103585756feddf252ad1be2c89b69c2b068fc378daa952ba7f163c4a11628f55a4df523b3efa264697066735822122010187a7a87457cc0e23bda31fbc1f89943672fae09a6959dc9b1c950bc32aa2264736f6c63430008140033","opcodes":"PUSH1 0x80 DUP1 PUSH1 0x40 MSTORE CALLVALUE PUSH2 0x16 JUMPI PUSH2 0x3CF SWAP1 DUP2 PUSH2 0x1B DUP3 CODECOPY RETURN JUMPDEST PUSH0 DUP1 REVERT INVALID PUSH1 0x80 PUSH1 0x40 DUP2 DUP2 MSTORE PUSH1 0x4 CALLDATASIZE LT ISZERO PUSH2 0x13 JUMPI PUSH0 DUP1 REVERT JUMPDEST PUSH0 SWAP2 DUP3 CALLDATALOAD PUSH1 0xE0 SHR SWAP1 DUP2 PUSH4 0x95EA7B3 EQ PUSH2 0x27B JUMPI POP DUP1 PUSH4 0x23B872DD EQ PUSH2 0x16E JUMPI DUP1 PUSH4 0x40C10F19 EQ PUSH2 0x119 JUMPI DUP1 PUSH4 0x70A08231 EQ PUSH2 0xE3 JUMPI PUSH4 0xA9059CBB EQ PUSH2 0x56 JUMPI PUSH0 DUP1 REVERT JUMPDEST CALLVALUE PUSH2 0xDF JUMPI DUP1 PUSH1 0x3 NOT CALLDATASIZE ADD SLT PUSH2 0xDF JUMPI PUSH1 0x20 SWAP2 PUSH2 0x71 PUSH2 0x2EE JUMP JUMPDEST DUP3 PUSH1 0x24 CALLDATALOAD SWAP2 CALLER DUP5 MSTORE DUP4 DUP7 MSTORE PUSH2 0x8B DUP4 DUP4 DUP7 KECCAK256 SLOAD LT ISZERO PUSH2 0x308 JUMP JUMPDEST CALLER DUP5 MSTORE DUP4 DUP7 MSTORE DUP2 DUP5 KECCAK256 PUSH2 0x9F DUP5 DUP3 SLOAD PUSH2 0x34B JUMP JUMPDEST SWAP1 SSTORE PUSH1 0x1 PUSH1 0x1 PUSH1 0xA0 SHL SUB AND DUP1 DUP5 MSTORE DUP4 DUP7 MSTORE SWAP3 KECCAK256 DUP1 SLOAD PUSH2 0xBF SWAP1 DUP4 SWAP1 PUSH2 0x36C JUMP JUMPDEST SWAP1 SSTORE DUP3 MLOAD SWAP1 DUP2 MSTORE PUSH0 DUP1 MLOAD PUSH1 0x20 PUSH2 0x37A DUP4 CODECOPY DUP2 MLOAD SWAP2 MSTORE DUP5 CALLER SWAP3 LOG3 MLOAD PUSH1 0x1 DUP2 MSTORE RETURN JUMPDEST POP DUP1 REVERT JUMPDEST POP CALLVALUE PUSH2 0xDF JUMPI PUSH1 0x20 CALLDATASIZE PUSH1 0x3 NOT ADD SLT PUSH2 0xDF JUMPI PUSH1 0x20 SWAP2 DUP2 SWAP1 PUSH1 0x1 PUSH1 0x1 PUSH1 0xA0 SHL SUB PUSH2 0x10A PUSH2 0x2EE JUMP JUMPDEST AND DUP2 MSTORE DUP1 DUP5 MSTORE KECCAK256 SLOAD SWAP1 MLOAD SWAP1 DUP2 MSTORE RETURN JUMPDEST POP CALLVALUE PUSH2 0xDF JUMPI DUP1 PUSH1 0x3 NOT CALLDATASIZE ADD SLT PUSH2 0xDF JUMPI DUP2 PUSH0 DUP1 MLOAD PUSH1 0x20 PUSH2 0x37A DUP4 CODECOPY DUP2 MLOAD SWAP2 MSTORE PUSH1 0x20 PUSH2 0x143 PUSH2 0x2EE JUMP JUMPDEST PUSH1 0x24 CALLDATALOAD SWAP1 PUSH1 0x1 DUP1 PUSH1 0xA0 SHL SUB AND SWAP5 DUP6 DUP6 MSTORE DUP5 DUP4 MSTORE DUP1 DUP6 KECCAK256 PUSH2 0x164 DUP4 DUP3 SLOAD PUSH2 0x36C JUMP JUMPDEST SWAP1 SSTORE MLOAD SWAP1 DUP2 MSTORE LOG3 DUP1 RETURN JUMPDEST POP CALLVALUE PUSH2 0xDF JUMPI PUSH1 0x60 CALLDATASIZE PUSH1 0x3 NOT ADD SLT PUSH2 0xDF JUMPI PUSH2 0x188 PUSH2 0x2EE JUMP JUMPDEST PUSH1 0x24 CALLDATALOAD PUSH1 0x1 PUSH1 0x1 PUSH1 0xA0 SHL SUB DUP2 DUP2 AND SWAP3 SWAP2 DUP4 SWAP1 SUB PUSH2 0x277 JUMPI PUSH1 0x44 CALLDATALOAD SWAP2 AND SWAP1 DUP2 DUP6 MSTORE PUSH1 0x20 SWAP5 DUP1 DUP7 MSTORE PUSH2 0x1BD DUP3 DUP7 DUP4 KECCAK256 SLOAD LT ISZERO PUSH2 0x308 JUMP JUMPDEST DUP3 DUP2 MSTORE PUSH1 0x1 DUP7 MSTORE DUP5 DUP2 KECCAK256 CALLER DUP3 MSTORE DUP7 MSTORE DUP2 DUP6 DUP3 KECCAK256 SLOAD LT PUSH2 0x23E JUMPI PUSH0 DUP1 MLOAD PUSH1 0x20 PUSH2 0x37A DUP4 CODECOPY DUP2 MLOAD SWAP2 MSTORE SWAP2 DUP6 DUP3 DUP6 DUP10 SWAP5 MSTORE DUP1 DUP5 MSTORE DUP2 DUP2 KECCAK256 PUSH2 0x1FC DUP5 DUP3 SLOAD PUSH2 0x34B JUMP JUMPDEST SWAP1 SSTORE DUP7 DUP2 MSTORE DUP1 DUP5 MSTORE DUP2 DUP2 KECCAK256 PUSH2 0x212 DUP5 DUP3 SLOAD PUSH2 0x36C JUMP JUMPDEST SWAP1 SSTORE DUP6 DUP2 MSTORE PUSH1 0x1 DUP5 MSTORE DUP2 DUP2 KECCAK256 CALLER DUP3 MSTORE DUP5 MSTORE KECCAK256 PUSH2 0x22F DUP3 DUP3 SLOAD PUSH2 0x34B JUMP JUMPDEST SWAP1 SSTORE DUP6 MLOAD SWAP1 DUP2 MSTORE LOG3 MLOAD PUSH1 0x1 DUP2 MSTORE RETURN JUMPDEST DUP5 MLOAD PUSH3 0x461BCD PUSH1 0xE5 SHL DUP2 MSTORE PUSH1 0x4 DUP2 ADD DUP8 SWAP1 MSTORE PUSH1 0x12 PUSH1 0x24 DUP3 ADD MSTORE PUSH18 0x105B1B1BDDD85B98D948195E18D959591959 PUSH1 0x72 SHL PUSH1 0x44 DUP3 ADD MSTORE PUSH1 0x64 SWAP1 REVERT JUMPDEST DUP5 DUP1 REVERT JUMPDEST SWAP1 POP CALLVALUE PUSH2 0x2EA JUMPI DUP2 PUSH1 0x3 NOT CALLDATASIZE ADD SLT PUSH2 0x2EA JUMPI SWAP2 PUSH1 0x20 SWAP3 DUP3 PUSH2 0x29A PUSH2 0x2EE JUMP JUMPDEST SWAP3 PUSH1 0x24 CALLDATALOAD SWAP2 DUP3 SWAP2 CALLER DUP2 MSTORE PUSH1 0x1 DUP9 MSTORE DUP2 DUP2 KECCAK256 SWAP6 PUSH1 0x1 DUP1 PUSH1 0xA0 SHL SUB AND SWAP6 DUP7 DUP3 MSTORE DUP9 MSTORE KECCAK256 SSTORE DUP2 MSTORE PUSH32 0x8C5BE1E5EBEC7D5BD14F71427D1E84F3DD0314C0F7B2291E5B200AC8C7C3B925 DUP5 CALLER SWAP3 LOG3 MLOAD PUSH1 0x1 DUP2 MSTORE RETURN JUMPDEST DUP3 DUP1 REVERT JUMPDEST PUSH1 0x4 CALLDATALOAD SWAP1 PUSH1 0x1 PUSH1 0x1 PUSH1 0xA0 SHL SUB DUP3 AND DUP3 SUB PUSH2 0x304 JUMPI JUMP JUMPDEST PUSH0 DUP1 REVERT JUMPDEST ISZERO PUSH2 0x30F JUMPI JUMP JUMPDEST PUSH1 0x40 MLOAD PUSH3 0x461BCD PUSH1 0xE5 SHL DUP2 MSTORE PUSH1 0x20 PUSH1 0x4 DUP3 ADD MSTORE PUSH1 0x14 PUSH1 0x24 DUP3 ADD MSTORE PUSH20 0x496E73756666696369656E742062616C616E6365 PUSH1 0x60 SHL PUSH1 0x44 DUP3 ADD MSTORE PUSH1 0x64 SWAP1 REVERT JUMPDEST SWAP2 SWAP1 DUP3 SUB SWAP2 DUP3 GT PUSH2 0x358 JUMPI JUMP JUMPDEST PUSH4 0x4E487B71 PUSH1 0xE0 SHL PUSH0 MSTORE PUSH1 0x11 PUSH1 0x4 MSTORE PUSH1 0x24 PUSH0 REVERT JUMPDEST SWAP2 SWAP1 DUP3 ADD DUP1 SWAP3 GT PUSH2 0x358 JUMPI JUMP INVALID 0xDD CALLCODE MSTORE 0xAD SHL 0xE2 0xC8 SWAP12 PUSH10 0xC2B068FC378DAA952BA7 CALL PUSH4 0xC4A11628 CREATE2 GAS 0x4D CREATE2 0x23 0xB3 0xEF LOG2 PUSH5 0x6970667358 0x22 SLT KECCAK256 LT XOR PUSH27 0x7A87457CC0E23BDA31FBC1F89943672FAE09A6959DC9B1C950BC32 0xAA 0x22 PUSH5 0x736F6C6343 STOP ADDMOD EQ STOP CALLER "},"methodIdentifiers":{"approve(address,uint256)":"095ea7b3","balanceOf(address)":"70a08231","mint(address,uint256)":"40c10f19","transfer(address,uint256)":"a9059cbb","transferFrom(address,address,uint256)":"23b872dd"}}}}}