{"contracts/tgehterPostConsensus.sol":{"tgetherPostConsensus":{"abi":[{"inputs":[{"internalType":"address","name":"_CommunityConsensusAddress","type":"address"},{"internalType":"address","name":"_MembersContract","type":"address"},{"internalType":"address","name":"_PostContract","type":"address"},{"internalType":"uint256","name":"_fee","type":"uint256"},{"internalType":"address","name":"_fundAddress","type":"address"}],"stateMutability":"nonpayable","type":"constructor"},{"anonymous":false,"inputs":[{"indexed":false,"internalType":"uint256","name":"communitySubmissionId","type":"uint256"},{"indexed":false,"internalType":"uint256","name":"index","type":"uint256"}],"name":"ActiveSubmissionsIndexUpdated","type":"event"},{"anonymous":false,"inputs":[{"indexed":true,"internalType":"uint256","name":"communtiySubmissionId","type":"uint256"},{"indexed":true,"internalType":"string","name":"communityName","type":"string"},{"indexed":false,"internalType":"uint256","name":"timestamp","type":"uint256"},{"indexed":false,"internalType":"uint256","name":"consensusTime","type":"uint256"}],"name":"CommunitySubmitted","type":"event"},{"anonymous":false,"inputs":[{"indexed":true,"internalType":"uint256","name":"communitySubmissionId","type":"uint256"},{"indexed":false,"internalType":"uint256","name":"postId","type":"uint256"},{"indexed":false,"internalType":"string","name":"newConsensus","type":"string"}],"name":"ConsensusUpdated","type":"event"},{"anonymous":false,"inputs":[{"indexed":false,"internalType":"uint256","name":"postId","type":"uint256"},{"indexed":false,"internalType":"string","name":"keyword","type":"string"}],"name":"Keywords","type":"event"},{"anonymous":false,"inputs":[{"indexed":true,"internalType":"uint256","name":"postId","type":"uint256"},{"indexed":true,"internalType":"uint256","name":"communitySubmissionId","type":"uint256"}],"name":"PostSubmission","type":"event"},{"anonymous":false,"inputs":[{"indexed":true,"internalType":"uint256","name":"reviewId","type":"uint256"},{"indexed":true,"internalType":"uint256","name":"communitySubmissionId","type":"uint256"},{"indexed":true,"internalType":"address","name":"member","type":"address"}],"name":"ReviewCreated","type":"event"},{"anonymous":false,"inputs":[{"indexed":true,"internalType":"uint256","name":"reviewId","type":"uint256"},{"indexed":false,"internalType":"string","name":"consensus","type":"string"},{"indexed":false,"internalType":"uint256","name":"creds","type":"uint256"},{"indexed":false,"internalType":"string","name":"content","type":"string"},{"indexed":false,"internalType":"bool","name":"afterConsensus","type":"bool"}],"name":"ReviewSubmitted","type":"event"},{"inputs":[{"internalType":"uint256","name":"","type":"uint256"}],"name":"ActiveSubmissions","outputs":[{"internalType":"uint256","name":"","type":"uint256"}],"stateMutability":"view","type":"function"},{"inputs":[{"internalType":"uint256","name":"","type":"uint256"}],"name":"ActiveSubmissionsIndexes","outputs":[{"internalType":"uint256","name":"","type":"uint256"}],"stateMutability":"view","type":"function"},{"inputs":[],"name":"CommunityConsensusContract","outputs":[{"internalType":"contract tgetherCommunityConsensusInterface","name":"","type":"address"}],"stateMutability":"view","type":"function"},{"inputs":[{"internalType":"uint256","name":"","type":"uint256"}],"name":"CommunitySubmissionToPost","outputs":[{"internalType":"uint256","name":"","type":"uint256"}],"stateMutability":"view","type":"function"},{"inputs":[{"internalType":"uint256","name":"","type":"uint256"}],"name":"CommunitySubmissions","outputs":[{"internalType":"string","name":"communityName","type":"string"},{"internalType":"string","name":"consensusType","type":"string"},{"internalType":"uint256","name":"timestamp","type":"uint256"},{"internalType":"uint256","name":"consensusTime","type":"uint256"}],"stateMutability":"view","type":"function"},{"inputs":[],"name":"FundContract","outputs":[{"internalType":"contract tgetherFundInterface","name":"","type":"address"}],"stateMutability":"view","type":"function"},{"inputs":[],"name":"MembersContract","outputs":[{"internalType":"contract tgetherMembersInterface","name":"","type":"address"}],"stateMutability":"view","type":"function"},{"inputs":[{"internalType":"uint256","name":"","type":"uint256"},{"internalType":"uint256","name":"","type":"uint256"}],"name":"PostSubmissionList","outputs":[{"internalType":"uint256","name":"","type":"uint256"}],"stateMutability":"view","type":"function"},{"inputs":[],"name":"PostsContract","outputs":[{"internalType":"contract tgetherPostsInterface","name":"","type":"address"}],"stateMutability":"view","type":"function"},{"inputs":[{"internalType":"bytes","name":"","type":"bytes"}],"name":"checkUpkeep","outputs":[{"internalType":"bool","name":"upkeepNeeded","type":"bool"},{"internalType":"bytes","name":"performData","type":"bytes"}],"stateMutability":"view","type":"function"},{"inputs":[],"name":"consensusFee","outputs":[{"internalType":"uint256","name":"","type":"uint256"}],"stateMutability":"view","type":"function"},{"inputs":[],"name":"csCounter","outputs":[{"internalType":"uint256","name":"","type":"uint256"}],"stateMutability":"view","type":"function"},{"inputs":[],"name":"getActiveSubmissions","outputs":[{"internalType":"uint256[]","name":"","type":"uint256[]"}],"stateMutability":"view","type":"function"},{"inputs":[{"internalType":"uint256","name":"_postId","type":"uint256"}],"name":"getActiveSubmissionsIndex","outputs":[{"internalType":"uint256","name":"","type":"uint256"}],"stateMutability":"view","type":"function"},{"inputs":[],"name":"getActiveSubmissionsLength","outputs":[{"internalType":"uint256","name":"","type":"uint256"}],"stateMutability":"view","type":"function"},{"inputs":[{"internalType":"uint256","name":"_communitySubmissionId","type":"uint256"}],"name":"getCommunitySubmission","outputs":[{"components":[{"internalType":"string","name":"communityName","type":"string"},{"internalType":"string","name":"consensusType","type":"string"},{"internalType":"uint256","name":"timestamp","type":"uint256"},{"internalType":"uint256","name":"consensusTime","type":"uint256"}],"internalType":"struct tgetherPostConsensus.CommunitySubmission","name":"","type":"tuple"}],"stateMutability":"view","type":"function"},{"inputs":[{"internalType":"uint256","name":"_submissionId","type":"uint256"}],"name":"getPostConsesous","outputs":[{"internalType":"string","name":"consensus","type":"string"}],"stateMutability":"view","type":"function"},{"inputs":[{"internalType":"uint256","name":"_postId","type":"uint256"}],"name":"getPostSubmissionList","outputs":[{"internalType":"uint256[]","name":"","type":"uint256[]"}],"stateMutability":"view","type":"function"},{"inputs":[{"internalType":"uint256","name":"_reviewId","type":"uint256"}],"name":"getReview","outputs":[{"components":[{"internalType":"address","name":"member","type":"address"},{"internalType":"string","name":"content","type":"string"},{"internalType":"uint256","name":"consensus","type":"uint256"},{"internalType":"string","name":"consensusType","type":"string"},{"internalType":"uint256","name":"creds","type":"uint256"},{"internalType":"bool","name":"afterConsensus","type":"bool"}],"internalType":"struct tgetherPostConsensus.Review","name":"","type":"tuple"}],"stateMutability":"view","type":"function"},{"inputs":[{"internalType":"uint256","name":"_reviewid","type":"uint256"}],"name":"getReviewConsenous","outputs":[{"internalType":"uint256","name":"consensus","type":"uint256"},{"internalType":"uint256","name":"creds","type":"uint256"}],"stateMutability":"view","type":"function"},{"inputs":[{"internalType":"uint256","name":"_submissionId","type":"uint256"}],"name":"getReviewsForSubmission","outputs":[{"internalType":"uint256[]","name":"","type":"uint256[]"}],"stateMutability":"view","type":"function"},{"inputs":[{"internalType":"uint256","name":"","type":"uint256"},{"internalType":"address","name":"","type":"address"}],"name":"hasReviewed","outputs":[{"internalType":"bool","name":"","type":"bool"}],"stateMutability":"view","type":"function"},{"inputs":[{"internalType":"uint256","name":"submissionId","type":"uint256"}],"name":"manualUpkeepPost","outputs":[],"stateMutability":"nonpayable","type":"function"},{"inputs":[],"name":"maxReviews","outputs":[{"internalType":"uint256","name":"","type":"uint256"}],"stateMutability":"view","type":"function"},{"inputs":[{"internalType":"bytes","name":"performData","type":"bytes"}],"name":"performUpkeep","outputs":[],"stateMutability":"nonpayable","type":"function"},{"inputs":[{"internalType":"uint256","name":"","type":"uint256"},{"internalType":"string","name":"","type":"string"}],"name":"postCommunities","outputs":[{"internalType":"uint256","name":"","type":"uint256"}],"stateMutability":"view","type":"function"},{"inputs":[],"name":"reviewCounter","outputs":[{"internalType":"uint256","name":"","type":"uint256"}],"stateMutability":"view","type":"function"},{"inputs":[{"internalType":"uint256","name":"","type":"uint256"}],"name":"reviews","outputs":[{"internalType":"address","name":"member","type":"address"},{"internalType":"string","name":"content","type":"string"},{"internalType":"uint256","name":"consensus","type":"uint256"},{"internalType":"string","name":"consensusType","type":"string"},{"internalType":"uint256","name":"creds","type":"uint256"},{"internalType":"bool","name":"afterConsensus","type":"bool"}],"stateMutability":"view","type":"function"},{"inputs":[{"internalType":"address","name":"_contractAddress","type":"address"}],"name":"setAutomationRegistry","outputs":[],"stateMutability":"nonpayable","type":"function"},{"inputs":[{"internalType":"address","name":"_contractAddress","type":"address"}],"name":"setCommunitiesContract","outputs":[],"stateMutability":"nonpayable","type":"function"},{"inputs":[{"internalType":"uint256","name":"_feePrice","type":"uint256"}],"name":"setFee","outputs":[],"stateMutability":"nonpayable","type":"function"},{"inputs":[{"internalType":"address","name":"_contract","type":"address"}],"name":"setFundContract","outputs":[],"stateMutability":"nonpayable","type":"function"},{"inputs":[{"internalType":"uint256","name":"_maxreviews","type":"uint256"}],"name":"setMaxReviews","outputs":[],"stateMutability":"nonpayable","type":"function"},{"inputs":[{"internalType":"address","name":"_contractAddress","type":"address"}],"name":"setMembersContract","outputs":[],"stateMutability":"nonpayable","type":"function"},{"inputs":[{"internalType":"address","name":"_contractAddress","type":"address"}],"name":"setPostsContract","outputs":[],"stateMutability":"nonpayable","type":"function"},{"inputs":[{"internalType":"string[]","name":"_deafultArray","type":"string[]"}],"name":"setdefaultConsenousTypes","outputs":[],"stateMutability":"nonpayable","type":"function"},{"inputs":[{"internalType":"uint256","name":"_communitySubmissionId","type":"uint256"},{"internalType":"string","name":"_content","type":"string"},{"internalType":"uint256","name":"_consensus","type":"uint256"}],"name":"submitReview","outputs":[{"internalType":"uint256","name":"","type":"uint256"}],"stateMutability":"nonpayable","type":"function"},{"inputs":[{"internalType":"uint256","name":"_postId","type":"uint256"},{"internalType":"string","name":"_communityName","type":"string"}],"name":"submitToCommunity","outputs":[{"internalType":"uint256","name":"","type":"uint256"}],"stateMutability":"payable","type":"function"},{"inputs":[{"internalType":"uint256","name":"","type":"uint256"},{"internalType":"uint256","name":"","type":"uint256"}],"name":"submmisionReviews","outputs":[{"internalType":"uint256","name":"","type":"uint256"}],"stateMutability":"view","type":"function"}],"evm":{"bytecode":{"linkReferences":{},"object":"608034620003bd57601f62002e3938819003918201601f19168301926001600160401b0392909183851183861017620003a9578160a09284926040978852833981010312620003bd576200005381620003e1565b9060209162000064838301620003e1565b9062000072868401620003e1565b9262000086608060608301519201620003e1565b918751966060880188811082821117620003a9578952620000a6620003c1565b6012815271436f6e73656e736f75732050656e64696e6760701b888201528852620000d0620003c1565b97600898898152671058d8d95c1d195960c21b8982015288820152620000f5620003c1565b8981526714995a9958dd195960c21b898201528a820152885460038a55806003106200032b575b50905f98895287892089925b60038410620001f2575050505060018060a01b0319943386601254161760125560018060a01b0380958180941688600d541617600d551686600e541617600e551684600f541617600f5560105516906013541617601355600160065560016002556009549068010000000000000000821015620001de576001820180600955821015620001ca5760098352822001556064601155516129ef90816200044a8239f35b634e487b7160e01b83526032600452602483fd5b634e487b7160e01b83526041600452602483fd5b80518051908482116200031757908c8c926200020f8654620003f6565b601f8111620002d9575b508391601f84116001146200026557926001959281928796959262000259575b50505f19600383901b1c191690841b1785555b0192019301929062000128565b015190505f8062000239565b9190601f198416878452858420935b818110620002b757509160019693918588979694106200029e575b505050831b830185556200024c565b01515f1960f88460031b161c191690555f80806200028f565b939560018496978495839495015181550195019301908f959493929162000274565b62000305908784528584206005601f8701811c8201928888106200030c575b601f01901c019062000431565b5f62000219565b9192508291620002f8565b634e487b7160e01b8d52604160045260248dfd5b5f8a815260038a822092830192015b8281106200034a5750506200011c565b80826200035a60019354620003f6565b806200036a575b5050016200033a565b8d601f821185146200038357505081555b825f62000361565b601f6200039f918585528420920160051c820185830162000431565b818355556200037b565b634e487b7160e01b5f52604160045260245ffd5b5f80fd5b60408051919082016001600160401b03811183821017620003a957604052565b51906001600160a01b0382168203620003bd57565b90600182811c9216801562000426575b60208310146200041257565b634e487b7160e01b5f52602260045260245ffd5b91607f169162000406565b8181106200043d575050565b5f81556001016200043156fe6080806040526004361015610012575f80fd5b5f3560e01c908163059597f714611e5b575080631651902a14611e2c5780631ea4905114611dc757806334ca35c414611c5e5780633c09203b14611c165780634215c5e414611bf95780634585e33b14611b5657806347631adb14611b2e5780634ed5981214611b1157806359144baa14611ac95780635ff2d2aa14611a815780636356eea41461136757806369fe0e2d146113395780636c79bd2b146112d45780636e04ff0d146111de57806374f0c641146111c15780637c7198cc146111735780638ed8067e1461114b57806393a018be14610b27578063990581b614611031578063a594004114611014578063ac97980d14610fea578063ad2957ff14610fa2578063b9e2fc3e14610f6c578063bdf5db3914610ee9578063c5dce24d14610e5c578063d1a34aa314610e2e578063d39065fa14610de6578063d3a3f77114610da2578063d8db380714610b51578063de78ab7c14610b27578063de8b32c514610a52578063e148577614610a2a578063e168b3a814610a0d578063e83ddcea1461095d578063ea487a92146108f6578063ee8eb507146108bf578063eeb0cf76146108815763fa1396f5146101c9575f80fd5b6101d23661213c565b600f54604051632c89540360e21b8152600481018490526001600160a01b0393916020908290602490829088165afa908115610733575f91610862575b50156108275782600d5416906040516324c9db2f60e01b81526020600482015260208180610240602482018861204e565b0381865afa908115610733575f91610808575b50156107b45760206040518093633bebe05160e01b8252826004830152818061027f602482018961204e565b03915afa918215610733575f9261077c575b5060405161029e81611f75565b8381526040519060208201956001600160401b039683811088821117610543576040525f83526020820192835242604083015284606083015284155f146105c657506040516102ec81611f90565b600d81526c4e6f20436f6e73656e736f757360981b602082015282525b6002545f525f60205260405f20918151805190888211610543578190610339826103338854612073565b886121d8565b602090601f8311600114610562575f92610557575b50508160011b915f199060031b1c19161783555b51958651908111610543576103878161037e6001860154612073565b600186016121d8565b6020601f82116001146104d15791816060926003946104989a5f926104c6575b50505f1982861b1c1916600191821b17908501555b604081015160028501550151910155805f5260036020526103e360405f206002549061219d565b6002545f5260016020528060405f20557fd3f28a1c655091033012bc55d258bf3cbd4ea4fb8bc2ff81c626a2aad9354e46604060025494858481955f526004602052610481845f20838651602081885194828a019561044381848961202d565b82019081520301902055855194859485947fe4c157bdf18b292c67a85f8afa9036d1fd70e345be3ad305fafc7841c4801a3f5f80a35192839161202d565b8101039020938151904282526020820152a361221b565b806002555f1981019081116104b257602090604051908152f35b634e487b7160e01b5f52601160045260245ffd5b015190505f806103a7565b600184015f5260205f20975f5b601f198416811061052b5750826104989960039593600193606096601f19811610610514575b505050811b0160018501556103bc565b01515f1983881b60f8161c191690555f8080610504565b828201518a55600190990198602092830192016104de565b634e487b7160e01b5f52604160045260245ffd5b015190505f8061034e565b5f878152602081209350601f198516905b8181106105ae5750908460019594939210610596575b505050811b018355610362565b01515f1960f88460031b161c191690555f8080610589565b92936020600181928786015181550195019301610573565b601054340361073e5760206024916013541660405192838092633de5599d60e11b825230600483015234905af1908115610733575f91610704575b501561030957600854156106f05760085f5260405161064b81610644817ff3f7a9fe364faab93b216da50a3214154f22a0a2b415b23a84c8169e8b636ee36120ab565b0382611fab565b825260025460095490600160401b8210156105435761067382600161068b9401600955611e94565b90919082549060031b91821b915f19901b1916179055565b6009545f19908181019081116104b2576002545f52600a60205260405f2055600254906009549081019081116104b2577f2f5a4ee168dca9eaef284f1844a3d24d74ba63a5fccc947454fc07515c8b37749160409182519182526020820152a1610309565b634e487b7160e01b5f52603260045260245ffd5b610726915060203d60201161072c575b61071e8183611fab565b810190612185565b5f610601565b503d610714565b6040513d5f823e3d90fd5b60405162461bcd60e51b81526020600482015260166024820152754d7573742073656e642070726f706f73616c2066656560501b6044820152606490fd5b9091506020813d6020116107ac575b8161079860209383611fab565b810103126107a85751905f610291565b5f80fd5b3d915061078b565b60405162461bcd60e51b815260206004820152602660248201527f436f6d6d756e69747920436f6e73656e73757320506172616d7320646f6e277460448201526508195e1a5cdd60d21b6064820152608490fd5b610821915060203d60201161072c5761071e8183611fab565b5f610253565b60405162461bcd60e51b8152602060048201526013602482015272141bdcdd08191bd95cc81b9bdd08195e1a5cdd606a1b6044820152606490fd5b61087b915060203d60201161072c5761071e8183611fab565b5f61020f565b346107a85761088f36611e7e565b905f52600360205260405f2080548210156107a8576020916108b091611eac565b90549060031b1c604051908152f35b346107a85760203660031901126107a8576004356009548110156107a8576108e8602091611e94565b90546040519160031b1c8152f35b346107a85760203660031901126107a857600435805f525f602052610923600260405f2001541515612229565b5f525f602052610959610644610945600160405f2001604051928380926120ab565b60405191829160208352602083019061204e565b0390f35b346107a85760203660031901126107a8576004355f52600560205260405f2060018060a01b03815416604051916109a28361099b81600185016120ab565b0384611fab565b60028101546109fc604051916109bf8361099b81600388016120ab565b60ff6005600486015495015416926109e9604051978897885260c0602089015260c088019061204e565b916040870152858203606087015261204e565b916080840152151560a08301520390f35b346107a8575f3660031901126107a8576020600654604051908152f35b346107a8575f3660031901126107a857600e546040516001600160a01b039091168152602090f35b346107a8576020806003193601126107a8576080905f6060604051610a7681611f75565b818152818482015282604082015201526004355f525f815260405f2060405191610a9f83611f75565b604051610ab08161064481866120ab565b8352610b16604051610ac98161064481600188016120ab565b828501908152610b0360036002860154956040880196875201549360608701948552604051978897828952519188015260a087019061204e565b9051858203601f1901604087015261204e565b915160608401525160808301520390f35b346107a85760203660031901126107a8576004355f52600a602052602060405f2054604051908152f35b346107a8576020806003193601126107a857600435906001600160401b03908183116107a857366023840112156107a857826004013591610b918361216e565b93610b9f6040519586611fab565b83855282850194859160249687600597881b830101913683116107a857888101915b838310610d7c5750505050610be160018060a01b03601254163314612974565b5193600160401b8511610d69576008549085600855818610610cfa575b5050939060085f52825f20915f955b858710610c1657005b8051805190848211610ce757908691610c3982610c338954612073565b896121d8565b8290601f8311600114610c80579180600195928695945f92610c75575b50505f19600383901b1c191690841b1787555b01940196019592610c0d565b015190508c80610c56565b90601f19831691885f52845f20925f5b818110610ccf5750916001969391858897969410610cb7575b505050831b83018755610c69565b01515f1960f88460031b161c191690558b8080610ca9565b8284015185558b966001909501949384019301610c90565b83634e487b7160e01b5f5260416004525ffd5b60085f5285855f2092830192015b828110610d155750610bfe565b80610d2260019254612073565b80610d2f575b5001610d08565b601f908181118414610d475750505f81555b89610d28565b610d605f928484528a84209201861c82018583016121c2565b81835555610d41565b85634e487b7160e01b5f5260416004525ffd5b82358781116107a8578891610d9783928d3691870101611fe7565b815201920191610bc1565b346107a8576020610dd481610db63661213c565b905f526004825260405f20826040519483868095519384920161202d565b82019081520301902054604051908152f35b346107a85760203660031901126107a857610dff611efb565b6012546001600160a01b039190610e199083163314612974565b1660018060a01b0319600f541617600f555f80f35b346107a85760203660031901126107a857610e5460018060a01b03601254163314612974565b600435601155005b346107a85760203660031901126107a8576004355f525f602052610ecc60405f2060405190610e9682610e8f81846120ab565b0383611fab565b604051610eaa8161064481600186016120ab565b610eda600360028401549301549160405195869560808752608087019061204e565b90858203602087015261204e565b91604084015260608301520390f35b346107a8575f3660031901126107a857604051600980548083525f918252602080840193927f6e1540171b6c0c960b71a7020d9f60077f6af931a8bbf590da0223dacf75c7af92915b828210610f555761095985610f4981890382611fab565b60405191829182611ec1565b835486529485019460019384019390910190610f32565b346107a85760203660031901126107a8576004355f5260056020526040805f206004600282015491015482519182526020820152f35b346107a85760203660031901126107a857610fbb611efb565b6012546001600160a01b039190610fd59083163314612974565b1660018060a01b0319600d541617600d555f80f35b346107a85760203660031901126107a8576004355f526001602052602060405f2054604051908152f35b346107a8575f3660031901126107a8576020600254604051908152f35b346107a8576020806003193601126107a8575f60a060405161105281611f5a565b82815260608482015282604082015260608082015282608082015201526004355f526005815260405f206040519061108982611f5a565b60018060a01b03928382541683526111386040516110ae8161064481600188016120ab565b8285019081526002840154906040860191825261111f604051916110d98361099b8160038b016120ab565b6060880192835260ff600560048901549860808b01998a520154169560a089019615158752604051998a99828b525116908901525160c0604089015260e088019061204e565b9151606087015251858203601f1901608087015261204e565b915160a084015251151560c08301520390f35b346107a8575f3660031901126107a8576013546040516001600160a01b039091168152602090f35b346107a85760403660031901126107a8576024356001600160a01b038116908190036107a8576004355f52600b60205260405f20905f52602052602060ff60405f2054166040519015158152f35b346107a8575f3660031901126107a8576020600954604051908152f35b346107a8576111ec36611f11565b505060605f806009548061121b575b50506109596040519283921515835260406020840152604083019061204e565b5f6001805b838110611260575050505080611237575b806111fb565b90506112439150612292565b6040519060208201526020815261125981611f90565b9082611231565b61129061126c82611e94565b919054600392831b1c91825f525f60205260405f2090600282015491015490612271565b42811115806112c2575b6112af575b50506112aa9061221b565b611220565b929650945090915084906112aa8861129f565b50848111158061129a5750841561129a565b346107a8576020806003193601126107a8576004355f526007815260405f209060405190818184549182815201935f52815f20915f905b8282106113225761095985610f4981890382611fab565b83548652948501946001938401939091019061130b565b346107a85760203660031901126107a85761135f60018060a01b03601254163314612974565b600435601055005b346107a85760603660031901126107a8576024356001600160401b0381116107a857611397903690600401611fe7565b6004355f525f6020526113b2600260405f2001541515612229565b6113f15f60018060a01b03600d541660043582528160205260408220906040518080958194626e7c3160e91b83526020600484015260248301906120ab565b03915afa908115610733575f9161196b575b506044359160018311156119275761141f600854835190612271565b83116118e7576004355f52600b60205260405f20335f5260205260ff60405f205416611898576114af916004355f52600b60205260405f20335f5260205260405f20600160ff19825416179055602060018060a01b03600e54166004355f525f825260405f209060405180809781946302b5df5960e01b83523360048401526040602484015260448301906120ab565b03915afa928315610733575f93611864575b506008549081851161184057505f19908482018581116104b25710156106f0576114ff6106449160085f528560205f200101604051928380926120ab565b5f6004355f525f60205261152060405f206003600282015491015490612271565b421015611838575b60405161153481611f5a565b3381526020810195848752604082015282606082015284608082015281151560a08201526006545f52600560205260405f209560018060a01b0382511660018060a01b03198854161787555180516001600160401b038111610543578060018901926115aa826115a48654612073565b866121d8565b602090601f83116001146117d4575f926117c9575b50508160011b915f199060031b1c19161790555b6040810151600287015560608101519586516001600160401b0381116105435761160d816116046003850154612073565b600385016121d8565b6020601f821160011461172f5760056116e79593837ffab0b7cc55d5c47eef9ab7fcd4c01a41a4ddfa36cec643d2a9cb97b3f57915d498969460a09461170a9d5f92611724575b50508160011b915f199060031b1c19161760038201555b6080840151600482015501910151151560ff801983541691161790556004355f5260076020526116a160405f206006549061219d565b6116fa600654968796604051958695336004358b7f953de3727de1848ea7329bee97a44132bdd8271d8d663eb90bc2772f21541ec85f80a460808752608087019061204e565b916020860152848203604086015261204e565b90151560608301520390a261221b565b806006555f1981019081116104b257602090604051908152f35b015190508d80611654565b600383015f5260205f20985f5b601f19841681106117b157506116e7959360018461170a9c60a0956005957ffab0b7cc55d5c47eef9ab7fcd4c01a41a4ddfa36cec643d2a9cb97b3f57915d49c9a98601f19811610611799575b505050811b01600382015561166b565b01515f1960f88460031b161c191690558d8080611789565b828201518b556001909a01996020928301920161173c565b0151905089806115bf565b5f858152602081209350601f198516905b8181106118205750908460019594939210611808575b505050811b0190556115d3565b01515f1960f88460031b161c191690558980806117fb565b929360206001819287860151815501950193016117e5565b506001611528565b9084038481116104b2575f1981019081116104b25761185e9161227e565b516114ff565b9092506020813d602011611890575b8161188060209383611fab565b810103126107a8575191846114c1565b3d9150611873565b60405162461bcd60e51b815260206004820152602160248201527f596f7527766520616c7265616479207265766965776564207468697320706f736044820152601d60fa1b6064820152608490fd5b60405162461bcd60e51b8152602060048201526018602482015277436f6e73656e736f7573204e6f7420496e20426f756e647360401b6044820152606490fd5b606460405162461bcd60e51b815260206004820152602060248201527f436f6e73656e736f7573206d75732062652067726561746572207468616e20316044820152fd5b3d9150815f823e61197c8282611fab565b60208183810103126107a85780516001600160401b0381116107a857828201601f8284010112156107a85780820151906119b58261216e565b936119c36040519586611fab565b828552602085019080850160208560051b8588010101116107a857602083860101915b60208560051b85880101018310611a035750505050505082611403565b82516001600160401b0381116107a857828701603f82878a01010112156107a857602081868901010151611a3681611fcc565b92611a446040519485611fab565b818452848901604083858a8d01010101116107a85783611a74602095938b604088978c898099019301010161202d565b81520193019290506119e6565b346107a85760203660031901126107a857611a9a611efb565b6012546001600160a01b039190611ab49083163314612974565b1660018060a01b0319600c541617600c555f80f35b346107a85760203660031901126107a857611ae2611efb565b6012546001600160a01b039190611afc9083163314612974565b1660018060a01b031960135416176013555f80f35b346107a8575f3660031901126107a8576020601154604051908152f35b346107a8575f3660031901126107a857600d546040516001600160a01b039091168152602090f35b346107a857611b6436611f11565b601254611b8690336001600160a01b0391821614908115611beb575b50612553565b60208103611ba65781602091810103126107a857611ba49035612693565b005b60405162461bcd60e51b815260206004820152601a60248201527f496e76616c696420706572666f726d44617461206c656e6774680000000000006044820152606490fd5b9050600c5416331484611b80565b346107a8575f3660031901126107a8576020601054604051908152f35b346107a85760203660031901126107a857611c2f611efb565b6012546001600160a01b039190611c499083163314612974565b1660018060a01b0319600e541617600e555f80f35b346107a8576020806003193601126107a85760125460043590611c9590336001600160a01b0391821614908115611beb5750612553565b8015611d8a57805f525f8252600260405f200154151580611d79575b15611d2157611cbf90612292565b919015611ccf57611ba482612693565b6084906040519062461bcd60e51b82526004820152602560248201527f55706b656570206e6f74206e656564656420666f722074686973207375626d6960448201526439b9b4b7b760d91b6064820152fd5b60405162461bcd60e51b815260048101839052602a60248201527f5375626d697373696f6e20646f6573206e6f74206578697374206f72206973206044820152696e6f742061637469766560b01b6064820152608490fd5b50600a825260405f20541515611cb1565b60405162461bcd60e51b8152600481018390526015602482015274125b9d985b1a59081cdd589b5a5cdcda5bdb881251605a1b6044820152606490fd5b346107a8576020806003193601126107a8576004355f526003815260405f209060405190818184549182815201935f52815f20915f905b828210611e155761095985610f4981890382611fab565b835486529485019460019384019390910190611dfe565b346107a857611e3a36611e7e565b905f52600760205260405f2080548210156107a8576020916108e891611eac565b346107a8575f3660031901126107a857600f546001600160a01b03168152602090f35b60409060031901126107a8576004359060243590565b6009548110156106f05760095f5260205f2001905f90565b80548210156106f0575f5260205f2001905f90565b602090816040818301928281528551809452019301915f5b828110611ee7575050505090565b835185529381019392810192600101611ed9565b600435906001600160a01b03821682036107a857565b9060206003198301126107a8576004356001600160401b03928382116107a857806023830112156107a85781600401359384116107a857602484830101116107a8576024019190565b60c081019081106001600160401b0382111761054357604052565b608081019081106001600160401b0382111761054357604052565b604081019081106001600160401b0382111761054357604052565b90601f801991011681019081106001600160401b0382111761054357604052565b6001600160401b03811161054357601f01601f191660200190565b81601f820112156107a857803590611ffe82611fcc565b9261200c6040519485611fab565b828452602083830101116107a857815f926020809301838601378301015290565b5f5b83811061203e5750505f910152565b818101518382015260200161202f565b906020916120678151809281855285808601910161202d565b601f01601f1916010190565b90600182811c921680156120a1575b602083101461208d57565b634e487b7160e01b5f52602260045260245ffd5b91607f1691612082565b905f92918054916120bb83612073565b9182825260019384811690815f1461211957506001146120dc575b50505050565b90919394505f52602092835f2092845f945b83861061210557505050500101905f8080806120d6565b8054858701830152940193859082016120ee565b9294505050602093945060ff191683830152151560051b0101905f8080806120d6565b9060406003198301126107a85760043591602435906001600160401b0382116107a85761216b91600401611fe7565b90565b6001600160401b0381116105435760051b60200190565b908160209103126107a8575180151581036107a85790565b80549190600160401b83101561054357826106739160016121c095018155611eac565b565b8181106121cd575050565b5f81556001016121c2565b9190601f81116121e757505050565b6121c0925f5260205f20906020601f840160051c83019310612211575b601f0160051c01906121c2565b9091508190612204565b5f1981146104b25760010190565b1561223057565b60405162461bcd60e51b815260206004820152601960248201527814dd589b5a5cdcda5bdb88191bd95cc81b9bdd08195e1a5cdd603a1b6044820152606490fd5b919082018092116104b257565b80518210156106f05760209160051b010190565b5f915f91805f525f6020526122b460405f206003600282015491015490612271565b4210156122be5750565b9250905061216b6001926122e2565b90815f03918083055f1914901517156104b257565b60018060a01b03600d54165f90828252602090828252604092838120845192632691798960e01b845260608460049287848301528180612327602497888301906120ab565b03915afa95861561254a57839084958598612508575b508885526007875280852090805180838a82955493848152019089528a892092895b8c8282106124f25750505061237692500383611fab565b828251106124e057859686988351601154908181115f146124d85750935b885b85811061241c57505050505050851580918115612412575b50612402576064850294808604606414901517156123f0576123df5750505004106123d65790565b61216b906122cd565b634e487b7160e01b83526012905281fd5b50634e487b7160e01b83526011905281fd5b5050505050505061216b906122cd565b905086105f6123ae565b612426818361227e565b51855190635cf17e1f60e11b82528982015285818b81305afa80156124ce5785908c928d91612495575b501015612467575b506124629061221b565b612396565b9b61247360029161221b565b9c14612480575b5f612458565b9961248d6124629161221b565b9a905061247a565b925050508581813d83116124c7575b6124ae8183611fab565b810103126124c357848482519201515f612450565b8a80fd5b503d6124a4565b86513d8d823e3d90fd5b905093612394565b50505050505050505061216b906122cd565b855484526001958601958895509301920161235f565b95509650506060843d8211612542575b8161252560609383611fab565b8101031261253e5783518585015194870151965f61233d565b8280fd5b3d9150612518565b513d84823e3d90fd5b1561255a57565b60405162461bcd60e51b815260206004820152603760248201527f4e6f742074686520636f6e7472616374206f776e6572206f72204175746f6d616044820152761d1a5bdb88119bdc9dd85c99195c8810dbdb9d1c9858dd604a1b6064820152608490fd5b9080821461268f576125d18154612073565b906001600160401b0382116105435781906125f0826115a48654612073565b5f90601f8311600114612624575f92612619575b50508160011b915f199060031b1c1916179055565b015490505f80612604565b81526020808220858352818320935090601f1985169083905b82821061267657505090846001959493921061265e575b505050811b019055565b01545f1960f88460031b161c191690555f8080612654565b849581929585015481556001809101960194019061263d565b5050565b5f8082139291831561294d57925b83151580612926575b8061290f575b806128fa575b6126c1575b50509050565b156128c457600854600110156128b057600881527ff3f7a9fe364faab93b216da50a3214154f22a0a2b415b23a84c8169e8b636ee4905b8381526020918183526127126040916001838520016125bf565b84825260018352847f3ed188edba0c6b2d9b7a54cec2942f1cab56a63a4dcfdca5ff11706ffdf25b1e8284205484865260018486200190612761855192839283528689840152868301906120ab565b0390a2848252600a83528082205492600954955f199485880197881161289c57878596979882036127db575b50508352600a90528120556009549081156127c757508101906127af82611e94565b909182549160031b1b19169055600955805f806126bb565b634e487b7160e01b81526031600452602490fd5b6128159192939495506127ed90611e94565b90546127f884611e94565b91909260031b1c9082549060031b91821b915f19901b1916179055565b60095486810190811161288857917f2f5a4ee168dca9eaef284f1844a3d24d74ba63a5fccc947454fc07515c8b37748587969593612854600a96611e94565b90549060031b1c8852858552808289205561286e81611e94565b90549060031b1c90825191825285820152a190915f61278d565b634e487b7160e01b86526011600452602486fd5b634e487b7160e01b85526011600452602485fd5b634e487b7160e01b81526032600452602490fd5b600854600210156128b057600881527ff3f7a9fe364faab93b216da50a3214154f22a0a2b415b23a84c8169e8b636ee5906126f8565b50838252600a602052604082205415156126b6565b5083825281602052600260408320015415156126b0565b5083825281602052612945604083206003600282015491015490612271565b4210156126aa565b600160ff1b8114612960578103926126a1565b634e487b7160e01b82526011600452602482fd5b1561297b57565b60405162461bcd60e51b81526020600482015260166024820152752737ba103a34329031b7b73a3930b1ba1037bbb732b960511b6044820152606490fdfea2646970667358221220c5116d880de3a93d2e5455860938678ed3f1dadaf8f4e637432e66e11958e8d164736f6c63430008140033","opcodes":"PUSH1 0x80 CALLVALUE PUSH3 0x3BD JUMPI PUSH1 0x1F PUSH3 0x2E39 CODESIZE DUP2 SWAP1 SUB SWAP2 DUP3 ADD PUSH1 0x1F NOT AND DUP4 ADD SWAP3 PUSH1 0x1 PUSH1 0x1 PUSH1 0x40 SHL SUB SWAP3 SWAP1 SWAP2 DUP4 DUP6 GT DUP4 DUP7 LT OR PUSH3 0x3A9 JUMPI DUP2 PUSH1 0xA0 SWAP3 DUP5 SWAP3 PUSH1 0x40 SWAP8 DUP9 MSTORE DUP4 CODECOPY DUP2 ADD SUB SLT PUSH3 0x3BD JUMPI PUSH3 0x53 DUP2 PUSH3 0x3E1 JUMP JUMPDEST SWAP1 PUSH1 0x20 SWAP2 PUSH3 0x64 DUP4 DUP4 ADD PUSH3 0x3E1 JUMP JUMPDEST SWAP1 PUSH3 0x72 DUP7 DUP5 ADD PUSH3 0x3E1 JUMP JUMPDEST SWAP3 PUSH3 0x86 PUSH1 0x80 PUSH1 0x60 DUP4 ADD MLOAD SWAP3 ADD PUSH3 0x3E1 JUMP JUMPDEST SWAP2 DUP8 MLOAD SWAP7 PUSH1 0x60 DUP9 ADD DUP9 DUP2 LT DUP3 DUP3 GT OR PUSH3 0x3A9 JUMPI DUP10 MSTORE PUSH3 0xA6 PUSH3 0x3C1 JUMP JUMPDEST PUSH1 0x12 DUP2 MSTORE PUSH18 0x436F6E73656E736F75732050656E64696E67 PUSH1 0x70 SHL DUP9 DUP3 ADD MSTORE DUP9 MSTORE PUSH3 0xD0 PUSH3 0x3C1 JUMP JUMPDEST SWAP8 PUSH1 0x8 SWAP9 DUP10 DUP2 MSTORE PUSH8 0x1058D8D95C1D1959 PUSH1 0xC2 SHL DUP10 DUP3 ADD MSTORE DUP9 DUP3 ADD MSTORE PUSH3 0xF5 PUSH3 0x3C1 JUMP JUMPDEST DUP10 DUP2 MSTORE PUSH8 0x14995A9958DD1959 PUSH1 0xC2 SHL DUP10 DUP3 ADD MSTORE DUP11 DUP3 ADD MSTORE DUP9 SLOAD PUSH1 0x3 DUP11 SSTORE DUP1 PUSH1 0x3 LT PUSH3 0x32B JUMPI JUMPDEST POP SWAP1 PUSH0 SWAP9 DUP10 MSTORE DUP8 DUP10 KECCAK256 DUP10 SWAP3 JUMPDEST PUSH1 0x3 DUP5 LT PUSH3 0x1F2 JUMPI POP POP POP POP PUSH1 0x1 DUP1 PUSH1 0xA0 SHL SUB NOT SWAP5 CALLER DUP7 PUSH1 0x12 SLOAD AND OR PUSH1 0x12 SSTORE PUSH1 0x1 DUP1 PUSH1 0xA0 SHL SUB DUP1 SWAP6 DUP2 DUP1 SWAP5 AND DUP9 PUSH1 0xD SLOAD AND OR PUSH1 0xD SSTORE AND DUP7 PUSH1 0xE SLOAD AND OR PUSH1 0xE SSTORE AND DUP5 PUSH1 0xF SLOAD AND OR PUSH1 0xF SSTORE PUSH1 0x10 SSTORE AND SWAP1 PUSH1 0x13 SLOAD AND OR PUSH1 0x13 SSTORE PUSH1 0x1 PUSH1 0x6 SSTORE PUSH1 0x1 PUSH1 0x2 SSTORE PUSH1 0x9 SLOAD SWAP1 PUSH9 0x10000000000000000 DUP3 LT ISZERO PUSH3 0x1DE JUMPI PUSH1 0x1 DUP3 ADD DUP1 PUSH1 0x9 SSTORE DUP3 LT ISZERO PUSH3 0x1CA JUMPI PUSH1 0x9 DUP4 MSTORE DUP3 KECCAK256 ADD SSTORE PUSH1 0x64 PUSH1 0x11 SSTORE MLOAD PUSH2 0x29EF SWAP1 DUP2 PUSH3 0x44A DUP3 CODECOPY RETURN JUMPDEST PUSH4 0x4E487B71 PUSH1 0xE0 SHL DUP4 MSTORE PUSH1 0x32 PUSH1 0x4 MSTORE PUSH1 0x24 DUP4 REVERT JUMPDEST PUSH4 0x4E487B71 PUSH1 0xE0 SHL DUP4 MSTORE PUSH1 0x41 PUSH1 0x4 MSTORE PUSH1 0x24 DUP4 REVERT JUMPDEST DUP1 MLOAD DUP1 MLOAD SWAP1 DUP5 DUP3 GT PUSH3 0x317 JUMPI SWAP1 DUP13 DUP13 SWAP3 PUSH3 0x20F DUP7 SLOAD PUSH3 0x3F6 JUMP JUMPDEST PUSH1 0x1F DUP2 GT PUSH3 0x2D9 JUMPI JUMPDEST POP DUP4 SWAP2 PUSH1 0x1F DUP5 GT PUSH1 0x1 EQ PUSH3 0x265 JUMPI SWAP3 PUSH1 0x1 SWAP6 SWAP3 DUP2 SWAP3 DUP8 SWAP7 SWAP6 SWAP3 PUSH3 0x259 JUMPI JUMPDEST POP POP PUSH0 NOT PUSH1 0x3 DUP4 SWAP1 SHL SHR NOT AND SWAP1 DUP5 SHL OR DUP6 SSTORE JUMPDEST ADD SWAP3 ADD SWAP4 ADD SWAP3 SWAP1 PUSH3 0x128 JUMP JUMPDEST ADD MLOAD SWAP1 POP PUSH0 DUP1 PUSH3 0x239 JUMP JUMPDEST SWAP2 SWAP1 PUSH1 0x1F NOT DUP5 AND DUP8 DUP5 MSTORE DUP6 DUP5 KECCAK256 SWAP4 JUMPDEST DUP2 DUP2 LT PUSH3 0x2B7 JUMPI POP SWAP2 PUSH1 0x1 SWAP7 SWAP4 SWAP2 DUP6 DUP9 SWAP8 SWAP7 SWAP5 LT PUSH3 0x29E JUMPI JUMPDEST POP POP POP DUP4 SHL DUP4 ADD DUP6 SSTORE PUSH3 0x24C JUMP JUMPDEST ADD MLOAD PUSH0 NOT PUSH1 0xF8 DUP5 PUSH1 0x3 SHL AND SHR NOT AND SWAP1 SSTORE PUSH0 DUP1 DUP1 PUSH3 0x28F JUMP JUMPDEST SWAP4 SWAP6 PUSH1 0x1 DUP5 SWAP7 SWAP8 DUP5 SWAP6 DUP4 SWAP5 SWAP6 ADD MLOAD DUP2 SSTORE ADD SWAP6 ADD SWAP4 ADD SWAP1 DUP16 SWAP6 SWAP5 SWAP4 SWAP3 SWAP2 PUSH3 0x274 JUMP JUMPDEST PUSH3 0x305 SWAP1 DUP8 DUP5 MSTORE DUP6 DUP5 KECCAK256 PUSH1 0x5 PUSH1 0x1F DUP8 ADD DUP2 SHR DUP3 ADD SWAP3 DUP9 DUP9 LT PUSH3 0x30C JUMPI JUMPDEST PUSH1 0x1F ADD SWAP1 SHR ADD SWAP1 PUSH3 0x431 JUMP JUMPDEST PUSH0 PUSH3 0x219 JUMP JUMPDEST SWAP2 SWAP3 POP DUP3 SWAP2 PUSH3 0x2F8 JUMP JUMPDEST PUSH4 0x4E487B71 PUSH1 0xE0 SHL DUP14 MSTORE PUSH1 0x41 PUSH1 0x4 MSTORE PUSH1 0x24 DUP14 REVERT JUMPDEST PUSH0 DUP11 DUP2 MSTORE PUSH1 0x3 DUP11 DUP3 KECCAK256 SWAP3 DUP4 ADD SWAP3 ADD JUMPDEST DUP3 DUP2 LT PUSH3 0x34A JUMPI POP POP PUSH3 0x11C JUMP JUMPDEST DUP1 DUP3 PUSH3 0x35A PUSH1 0x1 SWAP4 SLOAD PUSH3 0x3F6 JUMP JUMPDEST DUP1 PUSH3 0x36A JUMPI JUMPDEST POP POP ADD PUSH3 0x33A JUMP JUMPDEST DUP14 PUSH1 0x1F DUP3 GT DUP6 EQ PUSH3 0x383 JUMPI POP POP DUP2 SSTORE JUMPDEST DUP3 PUSH0 PUSH3 0x361 JUMP JUMPDEST PUSH1 0x1F PUSH3 0x39F SWAP2 DUP6 DUP6 MSTORE DUP5 KECCAK256 SWAP3 ADD PUSH1 0x5 SHR DUP3 ADD DUP6 DUP4 ADD PUSH3 0x431 JUMP JUMPDEST DUP2 DUP4 SSTORE SSTORE PUSH3 0x37B JUMP JUMPDEST PUSH4 0x4E487B71 PUSH1 0xE0 SHL PUSH0 MSTORE PUSH1 0x41 PUSH1 0x4 MSTORE PUSH1 0x24 PUSH0 REVERT JUMPDEST PUSH0 DUP1 REVERT JUMPDEST PUSH1 0x40 DUP1 MLOAD SWAP2 SWAP1 DUP3 ADD PUSH1 0x1 PUSH1 0x1 PUSH1 0x40 SHL SUB DUP2 GT DUP4 DUP3 LT OR PUSH3 0x3A9 JUMPI PUSH1 0x40 MSTORE JUMP JUMPDEST MLOAD SWAP1 PUSH1 0x1 PUSH1 0x1 PUSH1 0xA0 SHL SUB DUP3 AND DUP3 SUB PUSH3 0x3BD JUMPI JUMP JUMPDEST SWAP1 PUSH1 0x1 DUP3 DUP2 SHR SWAP3 AND DUP1 ISZERO PUSH3 0x426 JUMPI JUMPDEST PUSH1 0x20 DUP4 LT EQ PUSH3 0x412 JUMPI JUMP JUMPDEST PUSH4 0x4E487B71 PUSH1 0xE0 SHL PUSH0 MSTORE PUSH1 0x22 PUSH1 0x4 MSTORE PUSH1 0x24 PUSH0 REVERT JUMPDEST SWAP2 PUSH1 0x7F AND SWAP2 PUSH3 0x406 JUMP JUMPDEST DUP2 DUP2 LT PUSH3 0x43D JUMPI POP POP JUMP JUMPDEST PUSH0 DUP2 SSTORE PUSH1 0x1 ADD PUSH3 0x431 JUMP INVALID PUSH1 0x80 DUP1 PUSH1 0x40 MSTORE PUSH1 0x4 CALLDATASIZE LT ISZERO PUSH2 0x12 JUMPI PUSH0 DUP1 REVERT JUMPDEST PUSH0 CALLDATALOAD PUSH1 0xE0 SHR SWAP1 DUP2 PUSH4 0x59597F7 EQ PUSH2 0x1E5B JUMPI POP DUP1 PUSH4 0x1651902A EQ PUSH2 0x1E2C JUMPI DUP1 PUSH4 0x1EA49051 EQ PUSH2 0x1DC7 JUMPI DUP1 PUSH4 0x34CA35C4 EQ PUSH2 0x1C5E JUMPI DUP1 PUSH4 0x3C09203B EQ PUSH2 0x1C16 JUMPI DUP1 PUSH4 0x4215C5E4 EQ PUSH2 0x1BF9 JUMPI DUP1 PUSH4 0x4585E33B EQ PUSH2 0x1B56 JUMPI DUP1 PUSH4 0x47631ADB EQ PUSH2 0x1B2E JUMPI DUP1 PUSH4 0x4ED59812 EQ PUSH2 0x1B11 JUMPI DUP1 PUSH4 0x59144BAA EQ PUSH2 0x1AC9 JUMPI DUP1 PUSH4 0x5FF2D2AA EQ PUSH2 0x1A81 JUMPI DUP1 PUSH4 0x6356EEA4 EQ PUSH2 0x1367 JUMPI DUP1 PUSH4 0x69FE0E2D EQ PUSH2 0x1339 JUMPI DUP1 PUSH4 0x6C79BD2B EQ PUSH2 0x12D4 JUMPI DUP1 PUSH4 0x6E04FF0D EQ PUSH2 0x11DE JUMPI DUP1 PUSH4 0x74F0C641 EQ PUSH2 0x11C1 JUMPI DUP1 PUSH4 0x7C7198CC EQ PUSH2 0x1173 JUMPI DUP1 PUSH4 0x8ED8067E EQ PUSH2 0x114B JUMPI DUP1 PUSH4 0x93A018BE EQ PUSH2 0xB27 JUMPI DUP1 PUSH4 0x990581B6 EQ PUSH2 0x1031 JUMPI DUP1 PUSH4 0xA5940041 EQ PUSH2 0x1014 JUMPI DUP1 PUSH4 0xAC97980D EQ PUSH2 0xFEA JUMPI DUP1 PUSH4 0xAD2957FF EQ PUSH2 0xFA2 JUMPI DUP1 PUSH4 0xB9E2FC3E EQ PUSH2 0xF6C JUMPI DUP1 PUSH4 0xBDF5DB39 EQ PUSH2 0xEE9 JUMPI DUP1 PUSH4 0xC5DCE24D EQ PUSH2 0xE5C JUMPI DUP1 PUSH4 0xD1A34AA3 EQ PUSH2 0xE2E JUMPI DUP1 PUSH4 0xD39065FA EQ PUSH2 0xDE6 JUMPI DUP1 PUSH4 0xD3A3F771 EQ PUSH2 0xDA2 JUMPI DUP1 PUSH4 0xD8DB3807 EQ PUSH2 0xB51 JUMPI DUP1 PUSH4 0xDE78AB7C EQ PUSH2 0xB27 JUMPI DUP1 PUSH4 0xDE8B32C5 EQ PUSH2 0xA52 JUMPI DUP1 PUSH4 0xE1485776 EQ PUSH2 0xA2A JUMPI DUP1 PUSH4 0xE168B3A8 EQ PUSH2 0xA0D JUMPI DUP1 PUSH4 0xE83DDCEA EQ PUSH2 0x95D JUMPI DUP1 PUSH4 0xEA487A92 EQ PUSH2 0x8F6 JUMPI DUP1 PUSH4 0xEE8EB507 EQ PUSH2 0x8BF JUMPI DUP1 PUSH4 0xEEB0CF76 EQ PUSH2 0x881 JUMPI PUSH4 0xFA1396F5 EQ PUSH2 0x1C9 JUMPI PUSH0 DUP1 REVERT JUMPDEST PUSH2 0x1D2 CALLDATASIZE PUSH2 0x213C JUMP JUMPDEST PUSH1 0xF SLOAD PUSH1 0x40 MLOAD PUSH4 0x2C895403 PUSH1 0xE2 SHL DUP2 MSTORE PUSH1 0x4 DUP2 ADD DUP5 SWAP1 MSTORE PUSH1 0x1 PUSH1 0x1 PUSH1 0xA0 SHL SUB SWAP4 SWAP2 PUSH1 0x20 SWAP1 DUP3 SWAP1 PUSH1 0x24 SWAP1 DUP3 SWAP1 DUP9 AND GAS STATICCALL SWAP1 DUP2 ISZERO PUSH2 0x733 JUMPI PUSH0 SWAP2 PUSH2 0x862 JUMPI JUMPDEST POP ISZERO PUSH2 0x827 JUMPI DUP3 PUSH1 0xD SLOAD AND SWAP1 PUSH1 0x40 MLOAD PUSH4 0x24C9DB2F PUSH1 0xE0 SHL DUP2 MSTORE PUSH1 0x20 PUSH1 0x4 DUP3 ADD MSTORE PUSH1 0x20 DUP2 DUP1 PUSH2 0x240 PUSH1 0x24 DUP3 ADD DUP9 PUSH2 0x204E JUMP JUMPDEST SUB DUP2 DUP7 GAS STATICCALL SWAP1 DUP2 ISZERO PUSH2 0x733 JUMPI PUSH0 SWAP2 PUSH2 0x808 JUMPI JUMPDEST POP ISZERO PUSH2 0x7B4 JUMPI PUSH1 0x20 PUSH1 0x40 MLOAD DUP1 SWAP4 PUSH4 0x3BEBE051 PUSH1 0xE0 SHL DUP3 MSTORE DUP3 PUSH1 0x4 DUP4 ADD MSTORE DUP2 DUP1 PUSH2 0x27F PUSH1 0x24 DUP3 ADD DUP10 PUSH2 0x204E JUMP JUMPDEST SUB SWAP2 GAS STATICCALL SWAP2 DUP3 ISZERO PUSH2 0x733 JUMPI PUSH0 SWAP3 PUSH2 0x77C JUMPI JUMPDEST POP PUSH1 0x40 MLOAD PUSH2 0x29E DUP2 PUSH2 0x1F75 JUMP JUMPDEST DUP4 DUP2 MSTORE PUSH1 0x40 MLOAD SWAP1 PUSH1 0x20 DUP3 ADD SWAP6 PUSH1 0x1 PUSH1 0x1 PUSH1 0x40 SHL SUB SWAP7 DUP4 DUP2 LT DUP9 DUP3 GT OR PUSH2 0x543 JUMPI PUSH1 0x40 MSTORE PUSH0 DUP4 MSTORE PUSH1 0x20 DUP3 ADD SWAP3 DUP4 MSTORE TIMESTAMP PUSH1 0x40 DUP4 ADD MSTORE DUP5 PUSH1 0x60 DUP4 ADD MSTORE DUP5 ISZERO PUSH0 EQ PUSH2 0x5C6 JUMPI POP PUSH1 0x40 MLOAD PUSH2 0x2EC DUP2 PUSH2 0x1F90 JUMP JUMPDEST PUSH1 0xD DUP2 MSTORE PUSH13 0x4E6F20436F6E73656E736F7573 PUSH1 0x98 SHL PUSH1 0x20 DUP3 ADD MSTORE DUP3 MSTORE JUMPDEST PUSH1 0x2 SLOAD PUSH0 MSTORE PUSH0 PUSH1 0x20 MSTORE PUSH1 0x40 PUSH0 KECCAK256 SWAP2 DUP2 MLOAD DUP1 MLOAD SWAP1 DUP9 DUP3 GT PUSH2 0x543 JUMPI DUP2 SWAP1 PUSH2 0x339 DUP3 PUSH2 0x333 DUP9 SLOAD PUSH2 0x2073 JUMP JUMPDEST DUP9 PUSH2 0x21D8 JUMP JUMPDEST PUSH1 0x20 SWAP1 PUSH1 0x1F DUP4 GT PUSH1 0x1 EQ PUSH2 0x562 JUMPI PUSH0 SWAP3 PUSH2 0x557 JUMPI JUMPDEST POP POP DUP2 PUSH1 0x1 SHL SWAP2 PUSH0 NOT SWAP1 PUSH1 0x3 SHL SHR NOT AND OR DUP4 SSTORE JUMPDEST MLOAD SWAP6 DUP7 MLOAD SWAP1 DUP2 GT PUSH2 0x543 JUMPI PUSH2 0x387 DUP2 PUSH2 0x37E PUSH1 0x1 DUP7 ADD SLOAD PUSH2 0x2073 JUMP JUMPDEST PUSH1 0x1 DUP7 ADD PUSH2 0x21D8 JUMP JUMPDEST PUSH1 0x20 PUSH1 0x1F DUP3 GT PUSH1 0x1 EQ PUSH2 0x4D1 JUMPI SWAP2 DUP2 PUSH1 0x60 SWAP3 PUSH1 0x3 SWAP5 PUSH2 0x498 SWAP11 PUSH0 SWAP3 PUSH2 0x4C6 JUMPI JUMPDEST POP POP PUSH0 NOT DUP3 DUP7 SHL SHR NOT AND PUSH1 0x1 SWAP2 DUP3 SHL OR SWAP1 DUP6 ADD SSTORE JUMPDEST PUSH1 0x40 DUP2 ADD MLOAD PUSH1 0x2 DUP6 ADD SSTORE ADD MLOAD SWAP2 ADD SSTORE DUP1 PUSH0 MSTORE PUSH1 0x3 PUSH1 0x20 MSTORE PUSH2 0x3E3 PUSH1 0x40 PUSH0 KECCAK256 PUSH1 0x2 SLOAD SWAP1 PUSH2 0x219D JUMP JUMPDEST PUSH1 0x2 SLOAD PUSH0 MSTORE PUSH1 0x1 PUSH1 0x20 MSTORE DUP1 PUSH1 0x40 PUSH0 KECCAK256 SSTORE PUSH32 0xD3F28A1C655091033012BC55D258BF3CBD4EA4FB8BC2FF81C626A2AAD9354E46 PUSH1 0x40 PUSH1 0x2 SLOAD SWAP5 DUP6 DUP5 DUP2 SWAP6 PUSH0 MSTORE PUSH1 0x4 PUSH1 0x20 MSTORE PUSH2 0x481 DUP5 PUSH0 KECCAK256 DUP4 DUP7 MLOAD PUSH1 0x20 DUP2 DUP9 MLOAD SWAP5 DUP3 DUP11 ADD SWAP6 PUSH2 0x443 DUP2 DUP5 DUP10 PUSH2 0x202D JUMP JUMPDEST DUP3 ADD SWAP1 DUP2 MSTORE SUB ADD SWAP1 KECCAK256 SSTORE DUP6 MLOAD SWAP5 DUP6 SWAP5 DUP6 SWAP5 PUSH32 0xE4C157BDF18B292C67A85F8AFA9036D1FD70E345BE3AD305FAFC7841C4801A3F PUSH0 DUP1 LOG3 MLOAD SWAP3 DUP4 SWAP2 PUSH2 0x202D JUMP JUMPDEST DUP2 ADD SUB SWAP1 KECCAK256 SWAP4 DUP2 MLOAD SWAP1 TIMESTAMP DUP3 MSTORE PUSH1 0x20 DUP3 ADD MSTORE LOG3 PUSH2 0x221B JUMP JUMPDEST DUP1 PUSH1 0x2 SSTORE PUSH0 NOT DUP2 ADD SWAP1 DUP2 GT PUSH2 0x4B2 JUMPI PUSH1 0x20 SWAP1 PUSH1 0x40 MLOAD SWAP1 DUP2 MSTORE RETURN JUMPDEST PUSH4 0x4E487B71 PUSH1 0xE0 SHL PUSH0 MSTORE PUSH1 0x11 PUSH1 0x4 MSTORE PUSH1 0x24 PUSH0 REVERT JUMPDEST ADD MLOAD SWAP1 POP PUSH0 DUP1 PUSH2 0x3A7 JUMP JUMPDEST PUSH1 0x1 DUP5 ADD PUSH0 MSTORE PUSH1 0x20 PUSH0 KECCAK256 SWAP8 PUSH0 JUMPDEST PUSH1 0x1F NOT DUP5 AND DUP2 LT PUSH2 0x52B JUMPI POP DUP3 PUSH2 0x498 SWAP10 PUSH1 0x3 SWAP6 SWAP4 PUSH1 0x1 SWAP4 PUSH1 0x60 SWAP7 PUSH1 0x1F NOT DUP2 AND LT PUSH2 0x514 JUMPI JUMPDEST POP POP POP DUP2 SHL ADD PUSH1 0x1 DUP6 ADD SSTORE PUSH2 0x3BC JUMP JUMPDEST ADD MLOAD PUSH0 NOT DUP4 DUP9 SHL PUSH1 0xF8 AND SHR NOT AND SWAP1 SSTORE PUSH0 DUP1 DUP1 PUSH2 0x504 JUMP JUMPDEST DUP3 DUP3 ADD MLOAD DUP11 SSTORE PUSH1 0x1 SWAP1 SWAP10 ADD SWAP9 PUSH1 0x20 SWAP3 DUP4 ADD SWAP3 ADD PUSH2 0x4DE JUMP JUMPDEST PUSH4 0x4E487B71 PUSH1 0xE0 SHL PUSH0 MSTORE PUSH1 0x41 PUSH1 0x4 MSTORE PUSH1 0x24 PUSH0 REVERT JUMPDEST ADD MLOAD SWAP1 POP PUSH0 DUP1 PUSH2 0x34E JUMP JUMPDEST PUSH0 DUP8 DUP2 MSTORE PUSH1 0x20 DUP2 KECCAK256 SWAP4 POP PUSH1 0x1F NOT DUP6 AND SWAP1 JUMPDEST DUP2 DUP2 LT PUSH2 0x5AE JUMPI POP SWAP1 DUP5 PUSH1 0x1 SWAP6 SWAP5 SWAP4 SWAP3 LT PUSH2 0x596 JUMPI JUMPDEST POP POP POP DUP2 SHL ADD DUP4 SSTORE PUSH2 0x362 JUMP JUMPDEST ADD MLOAD PUSH0 NOT PUSH1 0xF8 DUP5 PUSH1 0x3 SHL AND SHR NOT AND SWAP1 SSTORE PUSH0 DUP1 DUP1 PUSH2 0x589 JUMP JUMPDEST SWAP3 SWAP4 PUSH1 0x20 PUSH1 0x1 DUP2 SWAP3 DUP8 DUP7 ADD MLOAD DUP2 SSTORE ADD SWAP6 ADD SWAP4 ADD PUSH2 0x573 JUMP JUMPDEST PUSH1 0x10 SLOAD CALLVALUE SUB PUSH2 0x73E JUMPI PUSH1 0x20 PUSH1 0x24 SWAP2 PUSH1 0x13 SLOAD AND PUSH1 0x40 MLOAD SWAP3 DUP4 DUP1 SWAP3 PUSH4 0x3DE5599D PUSH1 0xE1 SHL DUP3 MSTORE ADDRESS PUSH1 0x4 DUP4 ADD MSTORE CALLVALUE SWAP1 GAS CALL SWAP1 DUP2 ISZERO PUSH2 0x733 JUMPI PUSH0 SWAP2 PUSH2 0x704 JUMPI JUMPDEST POP ISZERO PUSH2 0x309 JUMPI PUSH1 0x8 SLOAD ISZERO PUSH2 0x6F0 JUMPI PUSH1 0x8 PUSH0 MSTORE PUSH1 0x40 MLOAD PUSH2 0x64B DUP2 PUSH2 0x644 DUP2 PUSH32 0xF3F7A9FE364FAAB93B216DA50A3214154F22A0A2B415B23A84C8169E8B636EE3 PUSH2 0x20AB JUMP JUMPDEST SUB DUP3 PUSH2 0x1FAB JUMP JUMPDEST DUP3 MSTORE PUSH1 0x2 SLOAD PUSH1 0x9 SLOAD SWAP1 PUSH1 0x1 PUSH1 0x40 SHL DUP3 LT ISZERO PUSH2 0x543 JUMPI PUSH2 0x673 DUP3 PUSH1 0x1 PUSH2 0x68B SWAP5 ADD PUSH1 0x9 SSTORE PUSH2 0x1E94 JUMP JUMPDEST SWAP1 SWAP2 SWAP1 DUP3 SLOAD SWAP1 PUSH1 0x3 SHL SWAP2 DUP3 SHL SWAP2 PUSH0 NOT SWAP1 SHL NOT AND OR SWAP1 SSTORE JUMP JUMPDEST PUSH1 0x9 SLOAD PUSH0 NOT SWAP1 DUP2 DUP2 ADD SWAP1 DUP2 GT PUSH2 0x4B2 JUMPI PUSH1 0x2 SLOAD PUSH0 MSTORE PUSH1 0xA PUSH1 0x20 MSTORE PUSH1 0x40 PUSH0 KECCAK256 SSTORE PUSH1 0x2 SLOAD SWAP1 PUSH1 0x9 SLOAD SWAP1 DUP2 ADD SWAP1 DUP2 GT PUSH2 0x4B2 JUMPI PUSH32 0x2F5A4EE168DCA9EAEF284F1844A3D24D74BA63A5FCCC947454FC07515C8B3774 SWAP2 PUSH1 0x40 SWAP2 DUP3 MLOAD SWAP2 DUP3 MSTORE PUSH1 0x20 DUP3 ADD MSTORE LOG1 PUSH2 0x309 JUMP JUMPDEST PUSH4 0x4E487B71 PUSH1 0xE0 SHL PUSH0 MSTORE PUSH1 0x32 PUSH1 0x4 MSTORE PUSH1 0x24 PUSH0 REVERT JUMPDEST PUSH2 0x726 SWAP2 POP PUSH1 0x20 RETURNDATASIZE PUSH1 0x20 GT PUSH2 0x72C JUMPI JUMPDEST PUSH2 0x71E DUP2 DUP4 PUSH2 0x1FAB JUMP JUMPDEST DUP2 ADD SWAP1 PUSH2 0x2185 JUMP JUMPDEST PUSH0 PUSH2 0x601 JUMP JUMPDEST POP RETURNDATASIZE PUSH2 0x714 JUMP JUMPDEST PUSH1 0x40 MLOAD RETURNDATASIZE PUSH0 DUP3 RETURNDATACOPY RETURNDATASIZE SWAP1 REVERT JUMPDEST PUSH1 0x40 MLOAD PUSH3 0x461BCD PUSH1 0xE5 SHL DUP2 MSTORE PUSH1 0x20 PUSH1 0x4 DUP3 ADD MSTORE PUSH1 0x16 PUSH1 0x24 DUP3 ADD MSTORE PUSH22 0x4D7573742073656E642070726F706F73616C20666565 PUSH1 0x50 SHL PUSH1 0x44 DUP3 ADD MSTORE PUSH1 0x64 SWAP1 REVERT JUMPDEST SWAP1 SWAP2 POP PUSH1 0x20 DUP2 RETURNDATASIZE PUSH1 0x20 GT PUSH2 0x7AC JUMPI JUMPDEST DUP2 PUSH2 0x798 PUSH1 0x20 SWAP4 DUP4 PUSH2 0x1FAB JUMP JUMPDEST DUP2 ADD SUB SLT PUSH2 0x7A8 JUMPI MLOAD SWAP1 PUSH0 PUSH2 0x291 JUMP JUMPDEST PUSH0 DUP1 REVERT JUMPDEST RETURNDATASIZE SWAP2 POP PUSH2 0x78B JUMP JUMPDEST PUSH1 0x40 MLOAD PUSH3 0x461BCD PUSH1 0xE5 SHL DUP2 MSTORE PUSH1 0x20 PUSH1 0x4 DUP3 ADD MSTORE PUSH1 0x26 PUSH1 0x24 DUP3 ADD MSTORE PUSH32 0x436F6D6D756E69747920436F6E73656E73757320506172616D7320646F6E2774 PUSH1 0x44 DUP3 ADD MSTORE PUSH6 0x8195E1A5CDD PUSH1 0xD2 SHL PUSH1 0x64 DUP3 ADD MSTORE PUSH1 0x84 SWAP1 REVERT JUMPDEST PUSH2 0x821 SWAP2 POP PUSH1 0x20 RETURNDATASIZE PUSH1 0x20 GT PUSH2 0x72C JUMPI PUSH2 0x71E DUP2 DUP4 PUSH2 0x1FAB JUMP JUMPDEST PUSH0 PUSH2 0x253 JUMP JUMPDEST PUSH1 0x40 MLOAD PUSH3 0x461BCD PUSH1 0xE5 SHL DUP2 MSTORE PUSH1 0x20 PUSH1 0x4 DUP3 ADD MSTORE PUSH1 0x13 PUSH1 0x24 DUP3 ADD MSTORE PUSH19 0x141BDCDD08191BD95CC81B9BDD08195E1A5CDD PUSH1 0x6A SHL PUSH1 0x44 DUP3 ADD MSTORE PUSH1 0x64 SWAP1 REVERT JUMPDEST PUSH2 0x87B SWAP2 POP PUSH1 0x20 RETURNDATASIZE PUSH1 0x20 GT PUSH2 0x72C JUMPI PUSH2 0x71E DUP2 DUP4 PUSH2 0x1FAB JUMP JUMPDEST PUSH0 PUSH2 0x20F JUMP JUMPDEST CALLVALUE PUSH2 0x7A8 JUMPI PUSH2 0x88F CALLDATASIZE PUSH2 0x1E7E JUMP JUMPDEST SWAP1 PUSH0 MSTORE PUSH1 0x3 PUSH1 0x20 MSTORE PUSH1 0x40 PUSH0 KECCAK256 DUP1 SLOAD DUP3 LT ISZERO PUSH2 0x7A8 JUMPI PUSH1 0x20 SWAP2 PUSH2 0x8B0 SWAP2 PUSH2 0x1EAC JUMP JUMPDEST SWAP1 SLOAD SWAP1 PUSH1 0x3 SHL SHR PUSH1 0x40 MLOAD SWAP1 DUP2 MSTORE RETURN JUMPDEST CALLVALUE PUSH2 0x7A8 JUMPI PUSH1 0x20 CALLDATASIZE PUSH1 0x3 NOT ADD SLT PUSH2 0x7A8 JUMPI PUSH1 0x4 CALLDATALOAD PUSH1 0x9 SLOAD DUP2 LT ISZERO PUSH2 0x7A8 JUMPI PUSH2 0x8E8 PUSH1 0x20 SWAP2 PUSH2 0x1E94 JUMP JUMPDEST SWAP1 SLOAD PUSH1 0x40 MLOAD SWAP2 PUSH1 0x3 SHL SHR DUP2 MSTORE RETURN JUMPDEST CALLVALUE PUSH2 0x7A8 JUMPI PUSH1 0x20 CALLDATASIZE PUSH1 0x3 NOT ADD SLT PUSH2 0x7A8 JUMPI PUSH1 0x4 CALLDATALOAD DUP1 PUSH0 MSTORE PUSH0 PUSH1 0x20 MSTORE PUSH2 0x923 PUSH1 0x2 PUSH1 0x40 PUSH0 KECCAK256 ADD SLOAD ISZERO ISZERO PUSH2 0x2229 JUMP JUMPDEST PUSH0 MSTORE PUSH0 PUSH1 0x20 MSTORE PUSH2 0x959 PUSH2 0x644 PUSH2 0x945 PUSH1 0x1 PUSH1 0x40 PUSH0 KECCAK256 ADD PUSH1 0x40 MLOAD SWAP3 DUP4 DUP1 SWAP3 PUSH2 0x20AB JUMP JUMPDEST PUSH1 0x40 MLOAD SWAP2 DUP3 SWAP2 PUSH1 0x20 DUP4 MSTORE PUSH1 0x20 DUP4 ADD SWAP1 PUSH2 0x204E JUMP JUMPDEST SUB SWAP1 RETURN JUMPDEST CALLVALUE PUSH2 0x7A8 JUMPI PUSH1 0x20 CALLDATASIZE PUSH1 0x3 NOT ADD SLT PUSH2 0x7A8 JUMPI PUSH1 0x4 CALLDATALOAD PUSH0 MSTORE PUSH1 0x5 PUSH1 0x20 MSTORE PUSH1 0x40 PUSH0 KECCAK256 PUSH1 0x1 DUP1 PUSH1 0xA0 SHL SUB DUP2 SLOAD AND PUSH1 0x40 MLOAD SWAP2 PUSH2 0x9A2 DUP4 PUSH2 0x99B DUP2 PUSH1 0x1 DUP6 ADD PUSH2 0x20AB JUMP JUMPDEST SUB DUP5 PUSH2 0x1FAB JUMP JUMPDEST PUSH1 0x2 DUP2 ADD SLOAD PUSH2 0x9FC PUSH1 0x40 MLOAD SWAP2 PUSH2 0x9BF DUP4 PUSH2 0x99B DUP2 PUSH1 0x3 DUP9 ADD PUSH2 0x20AB JUMP JUMPDEST PUSH1 0xFF PUSH1 0x5 PUSH1 0x4 DUP7 ADD SLOAD SWAP6 ADD SLOAD AND SWAP3 PUSH2 0x9E9 PUSH1 0x40 MLOAD SWAP8 DUP9 SWAP8 DUP9 MSTORE PUSH1 0xC0 PUSH1 0x20 DUP10 ADD MSTORE PUSH1 0xC0 DUP9 ADD SWAP1 PUSH2 0x204E JUMP JUMPDEST SWAP2 PUSH1 0x40 DUP8 ADD MSTORE DUP6 DUP3 SUB PUSH1 0x60 DUP8 ADD MSTORE PUSH2 0x204E JUMP JUMPDEST SWAP2 PUSH1 0x80 DUP5 ADD MSTORE ISZERO ISZERO PUSH1 0xA0 DUP4 ADD MSTORE SUB SWAP1 RETURN JUMPDEST CALLVALUE PUSH2 0x7A8 JUMPI PUSH0 CALLDATASIZE PUSH1 0x3 NOT ADD SLT PUSH2 0x7A8 JUMPI PUSH1 0x20 PUSH1 0x6 SLOAD PUSH1 0x40 MLOAD SWAP1 DUP2 MSTORE RETURN JUMPDEST CALLVALUE PUSH2 0x7A8 JUMPI PUSH0 CALLDATASIZE PUSH1 0x3 NOT ADD SLT PUSH2 0x7A8 JUMPI PUSH1 0xE SLOAD PUSH1 0x40 MLOAD PUSH1 0x1 PUSH1 0x1 PUSH1 0xA0 SHL SUB SWAP1 SWAP2 AND DUP2 MSTORE PUSH1 0x20 SWAP1 RETURN JUMPDEST CALLVALUE PUSH2 0x7A8 JUMPI PUSH1 0x20 DUP1 PUSH1 0x3 NOT CALLDATASIZE ADD SLT PUSH2 0x7A8 JUMPI PUSH1 0x80 SWAP1 PUSH0 PUSH1 0x60 PUSH1 0x40 MLOAD PUSH2 0xA76 DUP2 PUSH2 0x1F75 JUMP JUMPDEST DUP2 DUP2 MSTORE DUP2 DUP5 DUP3 ADD MSTORE DUP3 PUSH1 0x40 DUP3 ADD MSTORE ADD MSTORE PUSH1 0x4 CALLDATALOAD PUSH0 MSTORE PUSH0 DUP2 MSTORE PUSH1 0x40 PUSH0 KECCAK256 PUSH1 0x40 MLOAD SWAP2 PUSH2 0xA9F DUP4 PUSH2 0x1F75 JUMP JUMPDEST PUSH1 0x40 MLOAD PUSH2 0xAB0 DUP2 PUSH2 0x644 DUP2 DUP7 PUSH2 0x20AB JUMP JUMPDEST DUP4 MSTORE PUSH2 0xB16 PUSH1 0x40 MLOAD PUSH2 0xAC9 DUP2 PUSH2 0x644 DUP2 PUSH1 0x1 DUP9 ADD PUSH2 0x20AB JUMP JUMPDEST DUP3 DUP6 ADD SWAP1 DUP2 MSTORE PUSH2 0xB03 PUSH1 0x3 PUSH1 0x2 DUP7 ADD SLOAD SWAP6 PUSH1 0x40 DUP9 ADD SWAP7 DUP8 MSTORE ADD SLOAD SWAP4 PUSH1 0x60 DUP8 ADD SWAP5 DUP6 MSTORE PUSH1 0x40 MLOAD SWAP8 DUP9 SWAP8 DUP3 DUP10 MSTORE MLOAD SWAP2 DUP9 ADD MSTORE PUSH1 0xA0 DUP8 ADD SWAP1 PUSH2 0x204E JUMP JUMPDEST SWAP1 MLOAD DUP6 DUP3 SUB PUSH1 0x1F NOT ADD PUSH1 0x40 DUP8 ADD MSTORE PUSH2 0x204E JUMP JUMPDEST SWAP2 MLOAD PUSH1 0x60 DUP5 ADD MSTORE MLOAD PUSH1 0x80 DUP4 ADD MSTORE SUB SWAP1 RETURN JUMPDEST CALLVALUE PUSH2 0x7A8 JUMPI PUSH1 0x20 CALLDATASIZE PUSH1 0x3 NOT ADD SLT PUSH2 0x7A8 JUMPI PUSH1 0x4 CALLDATALOAD PUSH0 MSTORE PUSH1 0xA PUSH1 0x20 MSTORE PUSH1 0x20 PUSH1 0x40 PUSH0 KECCAK256 SLOAD PUSH1 0x40 MLOAD SWAP1 DUP2 MSTORE RETURN JUMPDEST CALLVALUE PUSH2 0x7A8 JUMPI PUSH1 0x20 DUP1 PUSH1 0x3 NOT CALLDATASIZE ADD SLT PUSH2 0x7A8 JUMPI PUSH1 0x4 CALLDATALOAD SWAP1 PUSH1 0x1 PUSH1 0x1 PUSH1 0x40 SHL SUB SWAP1 DUP2 DUP4 GT PUSH2 0x7A8 JUMPI CALLDATASIZE PUSH1 0x23 DUP5 ADD SLT ISZERO PUSH2 0x7A8 JUMPI DUP3 PUSH1 0x4 ADD CALLDATALOAD SWAP2 PUSH2 0xB91 DUP4 PUSH2 0x216E JUMP JUMPDEST SWAP4 PUSH2 0xB9F PUSH1 0x40 MLOAD SWAP6 DUP7 PUSH2 0x1FAB JUMP JUMPDEST DUP4 DUP6 MSTORE DUP3 DUP6 ADD SWAP5 DUP6 SWAP2 PUSH1 0x24 SWAP7 DUP8 PUSH1 0x5 SWAP8 DUP9 SHL DUP4 ADD ADD SWAP2 CALLDATASIZE DUP4 GT PUSH2 0x7A8 JUMPI DUP9 DUP2 ADD SWAP2 JUMPDEST DUP4 DUP4 LT PUSH2 0xD7C JUMPI POP POP POP POP PUSH2 0xBE1 PUSH1 0x1 DUP1 PUSH1 0xA0 SHL SUB PUSH1 0x12 SLOAD AND CALLER EQ PUSH2 0x2974 JUMP JUMPDEST MLOAD SWAP4 PUSH1 0x1 PUSH1 0x40 SHL DUP6 GT PUSH2 0xD69 JUMPI PUSH1 0x8 SLOAD SWAP1 DUP6 PUSH1 0x8 SSTORE DUP2 DUP7 LT PUSH2 0xCFA JUMPI JUMPDEST POP POP SWAP4 SWAP1 PUSH1 0x8 PUSH0 MSTORE DUP3 PUSH0 KECCAK256 SWAP2 PUSH0 SWAP6 JUMPDEST DUP6 DUP8 LT PUSH2 0xC16 JUMPI STOP JUMPDEST DUP1 MLOAD DUP1 MLOAD SWAP1 DUP5 DUP3 GT PUSH2 0xCE7 JUMPI SWAP1 DUP7 SWAP2 PUSH2 0xC39 DUP3 PUSH2 0xC33 DUP10 SLOAD PUSH2 0x2073 JUMP JUMPDEST DUP10 PUSH2 0x21D8 JUMP JUMPDEST DUP3 SWAP1 PUSH1 0x1F DUP4 GT PUSH1 0x1 EQ PUSH2 0xC80 JUMPI SWAP2 DUP1 PUSH1 0x1 SWAP6 SWAP3 DUP7 SWAP6 SWAP5 PUSH0 SWAP3 PUSH2 0xC75 JUMPI JUMPDEST POP POP PUSH0 NOT PUSH1 0x3 DUP4 SWAP1 SHL SHR NOT AND SWAP1 DUP5 SHL OR DUP8 SSTORE JUMPDEST ADD SWAP5 ADD SWAP7 ADD SWAP6 SWAP3 PUSH2 0xC0D JUMP JUMPDEST ADD MLOAD SWAP1 POP DUP13 DUP1 PUSH2 0xC56 JUMP JUMPDEST SWAP1 PUSH1 0x1F NOT DUP4 AND SWAP2 DUP9 PUSH0 MSTORE DUP5 PUSH0 KECCAK256 SWAP3 PUSH0 JUMPDEST DUP2 DUP2 LT PUSH2 0xCCF JUMPI POP SWAP2 PUSH1 0x1 SWAP7 SWAP4 SWAP2 DUP6 DUP9 SWAP8 SWAP7 SWAP5 LT PUSH2 0xCB7 JUMPI JUMPDEST POP POP POP DUP4 SHL DUP4 ADD DUP8 SSTORE PUSH2 0xC69 JUMP JUMPDEST ADD MLOAD PUSH0 NOT PUSH1 0xF8 DUP5 PUSH1 0x3 SHL AND SHR NOT AND SWAP1 SSTORE DUP12 DUP1 DUP1 PUSH2 0xCA9 JUMP JUMPDEST DUP3 DUP5 ADD MLOAD DUP6 SSTORE DUP12 SWAP7 PUSH1 0x1 SWAP1 SWAP6 ADD SWAP5 SWAP4 DUP5 ADD SWAP4 ADD PUSH2 0xC90 JUMP JUMPDEST DUP4 PUSH4 0x4E487B71 PUSH1 0xE0 SHL PUSH0 MSTORE PUSH1 0x41 PUSH1 0x4 MSTORE PUSH0 REVERT JUMPDEST PUSH1 0x8 PUSH0 MSTORE DUP6 DUP6 PUSH0 KECCAK256 SWAP3 DUP4 ADD SWAP3 ADD JUMPDEST DUP3 DUP2 LT PUSH2 0xD15 JUMPI POP PUSH2 0xBFE JUMP JUMPDEST DUP1 PUSH2 0xD22 PUSH1 0x1 SWAP3 SLOAD PUSH2 0x2073 JUMP JUMPDEST DUP1 PUSH2 0xD2F JUMPI JUMPDEST POP ADD PUSH2 0xD08 JUMP JUMPDEST PUSH1 0x1F SWAP1 DUP2 DUP2 GT DUP5 EQ PUSH2 0xD47 JUMPI POP POP PUSH0 DUP2 SSTORE JUMPDEST DUP10 PUSH2 0xD28 JUMP JUMPDEST PUSH2 0xD60 PUSH0 SWAP3 DUP5 DUP5 MSTORE DUP11 DUP5 KECCAK256 SWAP3 ADD DUP7 SHR DUP3 ADD DUP6 DUP4 ADD PUSH2 0x21C2 JUMP JUMPDEST DUP2 DUP4 SSTORE SSTORE PUSH2 0xD41 JUMP JUMPDEST DUP6 PUSH4 0x4E487B71 PUSH1 0xE0 SHL PUSH0 MSTORE PUSH1 0x41 PUSH1 0x4 MSTORE PUSH0 REVERT JUMPDEST DUP3 CALLDATALOAD DUP8 DUP2 GT PUSH2 0x7A8 JUMPI DUP9 SWAP2 PUSH2 0xD97 DUP4 SWAP3 DUP14 CALLDATASIZE SWAP2 DUP8 ADD ADD PUSH2 0x1FE7 JUMP JUMPDEST DUP2 MSTORE ADD SWAP3 ADD SWAP2 PUSH2 0xBC1 JUMP JUMPDEST CALLVALUE PUSH2 0x7A8 JUMPI PUSH1 0x20 PUSH2 0xDD4 DUP2 PUSH2 0xDB6 CALLDATASIZE PUSH2 0x213C JUMP JUMPDEST SWAP1 PUSH0 MSTORE PUSH1 0x4 DUP3 MSTORE PUSH1 0x40 PUSH0 KECCAK256 DUP3 PUSH1 0x40 MLOAD SWAP5 DUP4 DUP7 DUP1 SWAP6 MLOAD SWAP4 DUP5 SWAP3 ADD PUSH2 0x202D JUMP JUMPDEST DUP3 ADD SWAP1 DUP2 MSTORE SUB ADD SWAP1 KECCAK256 SLOAD PUSH1 0x40 MLOAD SWAP1 DUP2 MSTORE RETURN JUMPDEST CALLVALUE PUSH2 0x7A8 JUMPI PUSH1 0x20 CALLDATASIZE PUSH1 0x3 NOT ADD SLT PUSH2 0x7A8 JUMPI PUSH2 0xDFF PUSH2 0x1EFB JUMP JUMPDEST PUSH1 0x12 SLOAD PUSH1 0x1 PUSH1 0x1 PUSH1 0xA0 SHL SUB SWAP2 SWAP1 PUSH2 0xE19 SWAP1 DUP4 AND CALLER EQ PUSH2 0x2974 JUMP JUMPDEST AND PUSH1 0x1 DUP1 PUSH1 0xA0 SHL SUB NOT PUSH1 0xF SLOAD AND OR PUSH1 0xF SSTORE PUSH0 DUP1 RETURN JUMPDEST CALLVALUE PUSH2 0x7A8 JUMPI PUSH1 0x20 CALLDATASIZE PUSH1 0x3 NOT ADD SLT PUSH2 0x7A8 JUMPI PUSH2 0xE54 PUSH1 0x1 DUP1 PUSH1 0xA0 SHL SUB PUSH1 0x12 SLOAD AND CALLER EQ PUSH2 0x2974 JUMP JUMPDEST PUSH1 0x4 CALLDATALOAD PUSH1 0x11 SSTORE STOP JUMPDEST CALLVALUE PUSH2 0x7A8 JUMPI PUSH1 0x20 CALLDATASIZE PUSH1 0x3 NOT ADD SLT PUSH2 0x7A8 JUMPI PUSH1 0x4 CALLDATALOAD PUSH0 MSTORE PUSH0 PUSH1 0x20 MSTORE PUSH2 0xECC PUSH1 0x40 PUSH0 KECCAK256 PUSH1 0x40 MLOAD SWAP1 PUSH2 0xE96 DUP3 PUSH2 0xE8F DUP2 DUP5 PUSH2 0x20AB JUMP JUMPDEST SUB DUP4 PUSH2 0x1FAB JUMP JUMPDEST PUSH1 0x40 MLOAD PUSH2 0xEAA DUP2 PUSH2 0x644 DUP2 PUSH1 0x1 DUP7 ADD PUSH2 0x20AB JUMP JUMPDEST PUSH2 0xEDA PUSH1 0x3 PUSH1 0x2 DUP5 ADD SLOAD SWAP4 ADD SLOAD SWAP2 PUSH1 0x40 MLOAD SWAP6 DUP7 SWAP6 PUSH1 0x80 DUP8 MSTORE PUSH1 0x80 DUP8 ADD SWAP1 PUSH2 0x204E JUMP JUMPDEST SWAP1 DUP6 DUP3 SUB PUSH1 0x20 DUP8 ADD MSTORE PUSH2 0x204E JUMP JUMPDEST SWAP2 PUSH1 0x40 DUP5 ADD MSTORE PUSH1 0x60 DUP4 ADD MSTORE SUB SWAP1 RETURN JUMPDEST CALLVALUE PUSH2 0x7A8 JUMPI PUSH0 CALLDATASIZE PUSH1 0x3 NOT ADD SLT PUSH2 0x7A8 JUMPI PUSH1 0x40 MLOAD PUSH1 0x9 DUP1 SLOAD DUP1 DUP4 MSTORE PUSH0 SWAP2 DUP3 MSTORE PUSH1 0x20 DUP1 DUP5 ADD SWAP4 SWAP3 PUSH32 0x6E1540171B6C0C960B71A7020D9F60077F6AF931A8BBF590DA0223DACF75C7AF SWAP3 SWAP2 JUMPDEST DUP3 DUP3 LT PUSH2 0xF55 JUMPI PUSH2 0x959 DUP6 PUSH2 0xF49 DUP2 DUP10 SUB DUP3 PUSH2 0x1FAB JUMP JUMPDEST PUSH1 0x40 MLOAD SWAP2 DUP3 SWAP2 DUP3 PUSH2 0x1EC1 JUMP JUMPDEST DUP4 SLOAD DUP7 MSTORE SWAP5 DUP6 ADD SWAP5 PUSH1 0x1 SWAP4 DUP5 ADD SWAP4 SWAP1 SWAP2 ADD SWAP1 PUSH2 0xF32 JUMP JUMPDEST CALLVALUE PUSH2 0x7A8 JUMPI PUSH1 0x20 CALLDATASIZE PUSH1 0x3 NOT ADD SLT PUSH2 0x7A8 JUMPI PUSH1 0x4 CALLDATALOAD PUSH0 MSTORE PUSH1 0x5 PUSH1 0x20 MSTORE PUSH1 0x40 DUP1 PUSH0 KECCAK256 PUSH1 0x4 PUSH1 0x2 DUP3 ADD SLOAD SWAP2 ADD SLOAD DUP3 MLOAD SWAP2 DUP3 MSTORE PUSH1 0x20 DUP3 ADD MSTORE RETURN JUMPDEST CALLVALUE PUSH2 0x7A8 JUMPI PUSH1 0x20 CALLDATASIZE PUSH1 0x3 NOT ADD SLT PUSH2 0x7A8 JUMPI PUSH2 0xFBB PUSH2 0x1EFB JUMP JUMPDEST PUSH1 0x12 SLOAD PUSH1 0x1 PUSH1 0x1 PUSH1 0xA0 SHL SUB SWAP2 SWAP1 PUSH2 0xFD5 SWAP1 DUP4 AND CALLER EQ PUSH2 0x2974 JUMP JUMPDEST AND PUSH1 0x1 DUP1 PUSH1 0xA0 SHL SUB NOT PUSH1 0xD SLOAD AND OR PUSH1 0xD SSTORE PUSH0 DUP1 RETURN JUMPDEST CALLVALUE PUSH2 0x7A8 JUMPI PUSH1 0x20 CALLDATASIZE PUSH1 0x3 NOT ADD SLT PUSH2 0x7A8 JUMPI PUSH1 0x4 CALLDATALOAD PUSH0 MSTORE PUSH1 0x1 PUSH1 0x20 MSTORE PUSH1 0x20 PUSH1 0x40 PUSH0 KECCAK256 SLOAD PUSH1 0x40 MLOAD SWAP1 DUP2 MSTORE RETURN JUMPDEST CALLVALUE PUSH2 0x7A8 JUMPI PUSH0 CALLDATASIZE PUSH1 0x3 NOT ADD SLT PUSH2 0x7A8 JUMPI PUSH1 0x20 PUSH1 0x2 SLOAD PUSH1 0x40 MLOAD SWAP1 DUP2 MSTORE RETURN JUMPDEST CALLVALUE PUSH2 0x7A8 JUMPI PUSH1 0x20 DUP1 PUSH1 0x3 NOT CALLDATASIZE ADD SLT PUSH2 0x7A8 JUMPI PUSH0 PUSH1 0xA0 PUSH1 0x40 MLOAD PUSH2 0x1052 DUP2 PUSH2 0x1F5A JUMP JUMPDEST DUP3 DUP2 MSTORE PUSH1 0x60 DUP5 DUP3 ADD MSTORE DUP3 PUSH1 0x40 DUP3 ADD MSTORE PUSH1 0x60 DUP1 DUP3 ADD MSTORE DUP3 PUSH1 0x80 DUP3 ADD MSTORE ADD MSTORE PUSH1 0x4 CALLDATALOAD PUSH0 MSTORE PUSH1 0x5 DUP2 MSTORE PUSH1 0x40 PUSH0 KECCAK256 PUSH1 0x40 MLOAD SWAP1 PUSH2 0x1089 DUP3 PUSH2 0x1F5A JUMP JUMPDEST PUSH1 0x1 DUP1 PUSH1 0xA0 SHL SUB SWAP3 DUP4 DUP3 SLOAD AND DUP4 MSTORE PUSH2 0x1138 PUSH1 0x40 MLOAD PUSH2 0x10AE DUP2 PUSH2 0x644 DUP2 PUSH1 0x1 DUP9 ADD PUSH2 0x20AB JUMP JUMPDEST DUP3 DUP6 ADD SWAP1 DUP2 MSTORE PUSH1 0x2 DUP5 ADD SLOAD SWAP1 PUSH1 0x40 DUP7 ADD SWAP2 DUP3 MSTORE PUSH2 0x111F PUSH1 0x40 MLOAD SWAP2 PUSH2 0x10D9 DUP4 PUSH2 0x99B DUP2 PUSH1 0x3 DUP12 ADD PUSH2 0x20AB JUMP JUMPDEST PUSH1 0x60 DUP9 ADD SWAP3 DUP4 MSTORE PUSH1 0xFF PUSH1 0x5 PUSH1 0x4 DUP10 ADD SLOAD SWAP9 PUSH1 0x80 DUP12 ADD SWAP10 DUP11 MSTORE ADD SLOAD AND SWAP6 PUSH1 0xA0 DUP10 ADD SWAP7 ISZERO ISZERO DUP8 MSTORE PUSH1 0x40 MLOAD SWAP10 DUP11 SWAP10 DUP3 DUP12 MSTORE MLOAD AND SWAP1 DUP10 ADD MSTORE MLOAD PUSH1 0xC0 PUSH1 0x40 DUP10 ADD MSTORE PUSH1 0xE0 DUP9 ADD SWAP1 PUSH2 0x204E JUMP JUMPDEST SWAP2 MLOAD PUSH1 0x60 DUP8 ADD MSTORE MLOAD DUP6 DUP3 SUB PUSH1 0x1F NOT ADD PUSH1 0x80 DUP8 ADD MSTORE PUSH2 0x204E JUMP JUMPDEST SWAP2 MLOAD PUSH1 0xA0 DUP5 ADD MSTORE MLOAD ISZERO ISZERO PUSH1 0xC0 DUP4 ADD MSTORE SUB SWAP1 RETURN JUMPDEST CALLVALUE PUSH2 0x7A8 JUMPI PUSH0 CALLDATASIZE PUSH1 0x3 NOT ADD SLT PUSH2 0x7A8 JUMPI PUSH1 0x13 SLOAD PUSH1 0x40 MLOAD PUSH1 0x1 PUSH1 0x1 PUSH1 0xA0 SHL SUB SWAP1 SWAP2 AND DUP2 MSTORE PUSH1 0x20 SWAP1 RETURN JUMPDEST CALLVALUE PUSH2 0x7A8 JUMPI PUSH1 0x40 CALLDATASIZE PUSH1 0x3 NOT ADD SLT PUSH2 0x7A8 JUMPI PUSH1 0x24 CALLDATALOAD PUSH1 0x1 PUSH1 0x1 PUSH1 0xA0 SHL SUB DUP2 AND SWAP1 DUP2 SWAP1 SUB PUSH2 0x7A8 JUMPI PUSH1 0x4 CALLDATALOAD PUSH0 MSTORE PUSH1 0xB PUSH1 0x20 MSTORE PUSH1 0x40 PUSH0 KECCAK256 SWAP1 PUSH0 MSTORE PUSH1 0x20 MSTORE PUSH1 0x20 PUSH1 0xFF PUSH1 0x40 PUSH0 KECCAK256 SLOAD AND PUSH1 0x40 MLOAD SWAP1 ISZERO ISZERO DUP2 MSTORE RETURN JUMPDEST CALLVALUE PUSH2 0x7A8 JUMPI PUSH0 CALLDATASIZE PUSH1 0x3 NOT ADD SLT PUSH2 0x7A8 JUMPI PUSH1 0x20 PUSH1 0x9 SLOAD PUSH1 0x40 MLOAD SWAP1 DUP2 MSTORE RETURN JUMPDEST CALLVALUE PUSH2 0x7A8 JUMPI PUSH2 0x11EC CALLDATASIZE PUSH2 0x1F11 JUMP JUMPDEST POP POP PUSH1 0x60 PUSH0 DUP1 PUSH1 0x9 SLOAD DUP1 PUSH2 0x121B JUMPI JUMPDEST POP POP PUSH2 0x959 PUSH1 0x40 MLOAD SWAP3 DUP4 SWAP3 ISZERO ISZERO DUP4 MSTORE PUSH1 0x40 PUSH1 0x20 DUP5 ADD MSTORE PUSH1 0x40 DUP4 ADD SWAP1 PUSH2 0x204E JUMP JUMPDEST PUSH0 PUSH1 0x1 DUP1 JUMPDEST DUP4 DUP2 LT PUSH2 0x1260 JUMPI POP POP POP POP DUP1 PUSH2 0x1237 JUMPI JUMPDEST DUP1 PUSH2 0x11FB JUMP JUMPDEST SWAP1 POP PUSH2 0x1243 SWAP2 POP PUSH2 0x2292 JUMP JUMPDEST PUSH1 0x40 MLOAD SWAP1 PUSH1 0x20 DUP3 ADD MSTORE PUSH1 0x20 DUP2 MSTORE PUSH2 0x1259 DUP2 PUSH2 0x1F90 JUMP JUMPDEST SWAP1 DUP3 PUSH2 0x1231 JUMP JUMPDEST PUSH2 0x1290 PUSH2 0x126C DUP3 PUSH2 0x1E94 JUMP JUMPDEST SWAP2 SWAP1 SLOAD PUSH1 0x3 SWAP3 DUP4 SHL SHR SWAP2 DUP3 PUSH0 MSTORE PUSH0 PUSH1 0x20 MSTORE PUSH1 0x40 PUSH0 KECCAK256 SWAP1 PUSH1 0x2 DUP3 ADD SLOAD SWAP2 ADD SLOAD SWAP1 PUSH2 0x2271 JUMP JUMPDEST TIMESTAMP DUP2 GT ISZERO DUP1 PUSH2 0x12C2 JUMPI JUMPDEST PUSH2 0x12AF JUMPI JUMPDEST POP POP PUSH2 0x12AA SWAP1 PUSH2 0x221B JUMP JUMPDEST PUSH2 0x1220 JUMP JUMPDEST SWAP3 SWAP7 POP SWAP5 POP SWAP1 SWAP2 POP DUP5 SWAP1 PUSH2 0x12AA DUP9 PUSH2 0x129F JUMP JUMPDEST POP DUP5 DUP2 GT ISZERO DUP1 PUSH2 0x129A JUMPI POP DUP5 ISZERO PUSH2 0x129A JUMP JUMPDEST CALLVALUE PUSH2 0x7A8 JUMPI PUSH1 0x20 DUP1 PUSH1 0x3 NOT CALLDATASIZE ADD SLT PUSH2 0x7A8 JUMPI PUSH1 0x4 CALLDATALOAD PUSH0 MSTORE PUSH1 0x7 DUP2 MSTORE PUSH1 0x40 PUSH0 KECCAK256 SWAP1 PUSH1 0x40 MLOAD SWAP1 DUP2 DUP2 DUP5 SLOAD SWAP2 DUP3 DUP2 MSTORE ADD SWAP4 PUSH0 MSTORE DUP2 PUSH0 KECCAK256 SWAP2 PUSH0 SWAP1 JUMPDEST DUP3 DUP3 LT PUSH2 0x1322 JUMPI PUSH2 0x959 DUP6 PUSH2 0xF49 DUP2 DUP10 SUB DUP3 PUSH2 0x1FAB JUMP JUMPDEST DUP4 SLOAD DUP7 MSTORE SWAP5 DUP6 ADD SWAP5 PUSH1 0x1 SWAP4 DUP5 ADD SWAP4 SWAP1 SWAP2 ADD SWAP1 PUSH2 0x130B JUMP JUMPDEST CALLVALUE PUSH2 0x7A8 JUMPI PUSH1 0x20 CALLDATASIZE PUSH1 0x3 NOT ADD SLT PUSH2 0x7A8 JUMPI PUSH2 0x135F PUSH1 0x1 DUP1 PUSH1 0xA0 SHL SUB PUSH1 0x12 SLOAD AND CALLER EQ PUSH2 0x2974 JUMP JUMPDEST PUSH1 0x4 CALLDATALOAD PUSH1 0x10 SSTORE STOP JUMPDEST CALLVALUE PUSH2 0x7A8 JUMPI PUSH1 0x60 CALLDATASIZE PUSH1 0x3 NOT ADD SLT PUSH2 0x7A8 JUMPI PUSH1 0x24 CALLDATALOAD PUSH1 0x1 PUSH1 0x1 PUSH1 0x40 SHL SUB DUP2 GT PUSH2 0x7A8 JUMPI PUSH2 0x1397 SWAP1 CALLDATASIZE SWAP1 PUSH1 0x4 ADD PUSH2 0x1FE7 JUMP JUMPDEST PUSH1 0x4 CALLDATALOAD PUSH0 MSTORE PUSH0 PUSH1 0x20 MSTORE PUSH2 0x13B2 PUSH1 0x2 PUSH1 0x40 PUSH0 KECCAK256 ADD SLOAD ISZERO ISZERO PUSH2 0x2229 JUMP JUMPDEST PUSH2 0x13F1 PUSH0 PUSH1 0x1 DUP1 PUSH1 0xA0 SHL SUB PUSH1 0xD SLOAD AND PUSH1 0x4 CALLDATALOAD DUP3 MSTORE DUP2 PUSH1 0x20 MSTORE PUSH1 0x40 DUP3 KECCAK256 SWAP1 PUSH1 0x40 MLOAD DUP1 DUP1 SWAP6 DUP2 SWAP5 PUSH3 0x6E7C31 PUSH1 0xE9 SHL DUP4 MSTORE PUSH1 0x20 PUSH1 0x4 DUP5 ADD MSTORE PUSH1 0x24 DUP4 ADD SWAP1 PUSH2 0x20AB JUMP JUMPDEST SUB SWAP2 GAS STATICCALL SWAP1 DUP2 ISZERO PUSH2 0x733 JUMPI PUSH0 SWAP2 PUSH2 0x196B JUMPI JUMPDEST POP PUSH1 0x44 CALLDATALOAD SWAP2 PUSH1 0x1 DUP4 GT ISZERO PUSH2 0x1927 JUMPI PUSH2 0x141F PUSH1 0x8 SLOAD DUP4 MLOAD SWAP1 PUSH2 0x2271 JUMP JUMPDEST DUP4 GT PUSH2 0x18E7 JUMPI PUSH1 0x4 CALLDATALOAD PUSH0 MSTORE PUSH1 0xB PUSH1 0x20 MSTORE PUSH1 0x40 PUSH0 KECCAK256 CALLER PUSH0 MSTORE PUSH1 0x20 MSTORE PUSH1 0xFF PUSH1 0x40 PUSH0 KECCAK256 SLOAD AND PUSH2 0x1898 JUMPI PUSH2 0x14AF SWAP2 PUSH1 0x4 CALLDATALOAD PUSH0 MSTORE PUSH1 0xB PUSH1 0x20 MSTORE PUSH1 0x40 PUSH0 KECCAK256 CALLER PUSH0 MSTORE PUSH1 0x20 MSTORE PUSH1 0x40 PUSH0 KECCAK256 PUSH1 0x1 PUSH1 0xFF NOT DUP3 SLOAD AND OR SWAP1 SSTORE PUSH1 0x20 PUSH1 0x1 DUP1 PUSH1 0xA0 SHL SUB PUSH1 0xE SLOAD AND PUSH1 0x4 CALLDATALOAD PUSH0 MSTORE PUSH0 DUP3 MSTORE PUSH1 0x40 PUSH0 KECCAK256 SWAP1 PUSH1 0x40 MLOAD DUP1 DUP1 SWAP8 DUP2 SWAP5 PUSH4 0x2B5DF59 PUSH1 0xE0 SHL DUP4 MSTORE CALLER PUSH1 0x4 DUP5 ADD MSTORE PUSH1 0x40 PUSH1 0x24 DUP5 ADD MSTORE PUSH1 0x44 DUP4 ADD SWAP1 PUSH2 0x20AB JUMP JUMPDEST SUB SWAP2 GAS STATICCALL SWAP3 DUP4 ISZERO PUSH2 0x733 JUMPI PUSH0 SWAP4 PUSH2 0x1864 JUMPI JUMPDEST POP PUSH1 0x8 SLOAD SWAP1 DUP2 DUP6 GT PUSH2 0x1840 JUMPI POP PUSH0 NOT SWAP1 DUP5 DUP3 ADD DUP6 DUP2 GT PUSH2 0x4B2 JUMPI LT ISZERO PUSH2 0x6F0 JUMPI PUSH2 0x14FF PUSH2 0x644 SWAP2 PUSH1 0x8 PUSH0 MSTORE DUP6 PUSH1 0x20 PUSH0 KECCAK256 ADD ADD PUSH1 0x40 MLOAD SWAP3 DUP4 DUP1 SWAP3 PUSH2 0x20AB JUMP JUMPDEST PUSH0 PUSH1 0x4 CALLDATALOAD PUSH0 MSTORE PUSH0 PUSH1 0x20 MSTORE PUSH2 0x1520 PUSH1 0x40 PUSH0 KECCAK256 PUSH1 0x3 PUSH1 0x2 DUP3 ADD SLOAD SWAP2 ADD SLOAD SWAP1 PUSH2 0x2271 JUMP JUMPDEST TIMESTAMP LT ISZERO PUSH2 0x1838 JUMPI JUMPDEST PUSH1 0x40 MLOAD PUSH2 0x1534 DUP2 PUSH2 0x1F5A JUMP JUMPDEST CALLER DUP2 MSTORE PUSH1 0x20 DUP2 ADD SWAP6 DUP5 DUP8 MSTORE PUSH1 0x40 DUP3 ADD MSTORE DUP3 PUSH1 0x60 DUP3 ADD MSTORE DUP5 PUSH1 0x80 DUP3 ADD MSTORE DUP2 ISZERO ISZERO PUSH1 0xA0 DUP3 ADD MSTORE PUSH1 0x6 SLOAD PUSH0 MSTORE PUSH1 0x5 PUSH1 0x20 MSTORE PUSH1 0x40 PUSH0 KECCAK256 SWAP6 PUSH1 0x1 DUP1 PUSH1 0xA0 SHL SUB DUP3 MLOAD AND PUSH1 0x1 DUP1 PUSH1 0xA0 SHL SUB NOT DUP9 SLOAD AND OR DUP8 SSTORE MLOAD DUP1 MLOAD PUSH1 0x1 PUSH1 0x1 PUSH1 0x40 SHL SUB DUP2 GT PUSH2 0x543 JUMPI DUP1 PUSH1 0x1 DUP10 ADD SWAP3 PUSH2 0x15AA DUP3 PUSH2 0x15A4 DUP7 SLOAD PUSH2 0x2073 JUMP JUMPDEST DUP7 PUSH2 0x21D8 JUMP JUMPDEST PUSH1 0x20 SWAP1 PUSH1 0x1F DUP4 GT PUSH1 0x1 EQ PUSH2 0x17D4 JUMPI PUSH0 SWAP3 PUSH2 0x17C9 JUMPI JUMPDEST POP POP DUP2 PUSH1 0x1 SHL SWAP2 PUSH0 NOT SWAP1 PUSH1 0x3 SHL SHR NOT AND OR SWAP1 SSTORE JUMPDEST PUSH1 0x40 DUP2 ADD MLOAD PUSH1 0x2 DUP8 ADD SSTORE PUSH1 0x60 DUP2 ADD MLOAD SWAP6 DUP7 MLOAD PUSH1 0x1 PUSH1 0x1 PUSH1 0x40 SHL SUB DUP2 GT PUSH2 0x543 JUMPI PUSH2 0x160D DUP2 PUSH2 0x1604 PUSH1 0x3 DUP6 ADD SLOAD PUSH2 0x2073 JUMP JUMPDEST PUSH1 0x3 DUP6 ADD PUSH2 0x21D8 JUMP JUMPDEST PUSH1 0x20 PUSH1 0x1F DUP3 GT PUSH1 0x1 EQ PUSH2 0x172F JUMPI PUSH1 0x5 PUSH2 0x16E7 SWAP6 SWAP4 DUP4 PUSH32 0xFAB0B7CC55D5C47EEF9AB7FCD4C01A41A4DDFA36CEC643D2A9CB97B3F57915D4 SWAP9 SWAP7 SWAP5 PUSH1 0xA0 SWAP5 PUSH2 0x170A SWAP14 PUSH0 SWAP3 PUSH2 0x1724 JUMPI JUMPDEST POP POP DUP2 PUSH1 0x1 SHL SWAP2 PUSH0 NOT SWAP1 PUSH1 0x3 SHL SHR NOT AND OR PUSH1 0x3 DUP3 ADD SSTORE JUMPDEST PUSH1 0x80 DUP5 ADD MLOAD PUSH1 0x4 DUP3 ADD SSTORE ADD SWAP2 ADD MLOAD ISZERO ISZERO PUSH1 0xFF DUP1 NOT DUP4 SLOAD AND SWAP2 AND OR SWAP1 SSTORE PUSH1 0x4 CALLDATALOAD PUSH0 MSTORE PUSH1 0x7 PUSH1 0x20 MSTORE PUSH2 0x16A1 PUSH1 0x40 PUSH0 KECCAK256 PUSH1 0x6 SLOAD SWAP1 PUSH2 0x219D JUMP JUMPDEST PUSH2 0x16FA PUSH1 0x6 SLOAD SWAP7 DUP8 SWAP7 PUSH1 0x40 MLOAD SWAP6 DUP7 SWAP6 CALLER PUSH1 0x4 CALLDATALOAD DUP12 PUSH32 0x953DE3727DE1848EA7329BEE97A44132BDD8271D8D663EB90BC2772F21541EC8 PUSH0 DUP1 LOG4 PUSH1 0x80 DUP8 MSTORE PUSH1 0x80 DUP8 ADD SWAP1 PUSH2 0x204E JUMP JUMPDEST SWAP2 PUSH1 0x20 DUP7 ADD MSTORE DUP5 DUP3 SUB PUSH1 0x40 DUP7 ADD MSTORE PUSH2 0x204E JUMP JUMPDEST SWAP1 ISZERO ISZERO PUSH1 0x60 DUP4 ADD MSTORE SUB SWAP1 LOG2 PUSH2 0x221B JUMP JUMPDEST DUP1 PUSH1 0x6 SSTORE PUSH0 NOT DUP2 ADD SWAP1 DUP2 GT PUSH2 0x4B2 JUMPI PUSH1 0x20 SWAP1 PUSH1 0x40 MLOAD SWAP1 DUP2 MSTORE RETURN JUMPDEST ADD MLOAD SWAP1 POP DUP14 DUP1 PUSH2 0x1654 JUMP JUMPDEST PUSH1 0x3 DUP4 ADD PUSH0 MSTORE PUSH1 0x20 PUSH0 KECCAK256 SWAP9 PUSH0 JUMPDEST PUSH1 0x1F NOT DUP5 AND DUP2 LT PUSH2 0x17B1 JUMPI POP PUSH2 0x16E7 SWAP6 SWAP4 PUSH1 0x1 DUP5 PUSH2 0x170A SWAP13 PUSH1 0xA0 SWAP6 PUSH1 0x5 SWAP6 PUSH32 0xFAB0B7CC55D5C47EEF9AB7FCD4C01A41A4DDFA36CEC643D2A9CB97B3F57915D4 SWAP13 SWAP11 SWAP9 PUSH1 0x1F NOT DUP2 AND LT PUSH2 0x1799 JUMPI JUMPDEST POP POP POP DUP2 SHL ADD PUSH1 0x3 DUP3 ADD SSTORE PUSH2 0x166B JUMP JUMPDEST ADD MLOAD PUSH0 NOT PUSH1 0xF8 DUP5 PUSH1 0x3 SHL AND SHR NOT AND SWAP1 SSTORE DUP14 DUP1 DUP1 PUSH2 0x1789 JUMP JUMPDEST DUP3 DUP3 ADD MLOAD DUP12 SSTORE PUSH1 0x1 SWAP1 SWAP11 ADD SWAP10 PUSH1 0x20 SWAP3 DUP4 ADD SWAP3 ADD PUSH2 0x173C JUMP JUMPDEST ADD MLOAD SWAP1 POP DUP10 DUP1 PUSH2 0x15BF JUMP JUMPDEST PUSH0 DUP6 DUP2 MSTORE PUSH1 0x20 DUP2 KECCAK256 SWAP4 POP PUSH1 0x1F NOT DUP6 AND SWAP1 JUMPDEST DUP2 DUP2 LT PUSH2 0x1820 JUMPI POP SWAP1 DUP5 PUSH1 0x1 SWAP6 SWAP5 SWAP4 SWAP3 LT PUSH2 0x1808 JUMPI JUMPDEST POP POP POP DUP2 SHL ADD SWAP1 SSTORE PUSH2 0x15D3 JUMP JUMPDEST ADD MLOAD PUSH0 NOT PUSH1 0xF8 DUP5 PUSH1 0x3 SHL AND SHR NOT AND SWAP1 SSTORE DUP10 DUP1 DUP1 PUSH2 0x17FB JUMP JUMPDEST SWAP3 SWAP4 PUSH1 0x20 PUSH1 0x1 DUP2 SWAP3 DUP8 DUP7 ADD MLOAD DUP2 SSTORE ADD SWAP6 ADD SWAP4 ADD PUSH2 0x17E5 JUMP JUMPDEST POP PUSH1 0x1 PUSH2 0x1528 JUMP JUMPDEST SWAP1 DUP5 SUB DUP5 DUP2 GT PUSH2 0x4B2 JUMPI PUSH0 NOT DUP2 ADD SWAP1 DUP2 GT PUSH2 0x4B2 JUMPI PUSH2 0x185E SWAP2 PUSH2 0x227E JUMP JUMPDEST MLOAD PUSH2 0x14FF JUMP JUMPDEST SWAP1 SWAP3 POP PUSH1 0x20 DUP2 RETURNDATASIZE PUSH1 0x20 GT PUSH2 0x1890 JUMPI JUMPDEST DUP2 PUSH2 0x1880 PUSH1 0x20 SWAP4 DUP4 PUSH2 0x1FAB JUMP JUMPDEST DUP2 ADD SUB SLT PUSH2 0x7A8 JUMPI MLOAD SWAP2 DUP5 PUSH2 0x14C1 JUMP JUMPDEST RETURNDATASIZE SWAP2 POP PUSH2 0x1873 JUMP JUMPDEST PUSH1 0x40 MLOAD PUSH3 0x461BCD PUSH1 0xE5 SHL DUP2 MSTORE PUSH1 0x20 PUSH1 0x4 DUP3 ADD MSTORE PUSH1 0x21 PUSH1 0x24 DUP3 ADD MSTORE PUSH32 0x596F7527766520616C7265616479207265766965776564207468697320706F73 PUSH1 0x44 DUP3 ADD MSTORE PUSH1 0x1D PUSH1 0xFA SHL PUSH1 0x64 DUP3 ADD MSTORE PUSH1 0x84 SWAP1 REVERT JUMPDEST PUSH1 0x40 MLOAD PUSH3 0x461BCD PUSH1 0xE5 SHL DUP2 MSTORE PUSH1 0x20 PUSH1 0x4 DUP3 ADD MSTORE PUSH1 0x18 PUSH1 0x24 DUP3 ADD MSTORE PUSH24 0x436F6E73656E736F7573204E6F7420496E20426F756E6473 PUSH1 0x40 SHL PUSH1 0x44 DUP3 ADD MSTORE PUSH1 0x64 SWAP1 REVERT JUMPDEST PUSH1 0x64 PUSH1 0x40 MLOAD PUSH3 0x461BCD PUSH1 0xE5 SHL DUP2 MSTORE PUSH1 0x20 PUSH1 0x4 DUP3 ADD MSTORE PUSH1 0x20 PUSH1 0x24 DUP3 ADD MSTORE PUSH32 0x436F6E73656E736F7573206D75732062652067726561746572207468616E2031 PUSH1 0x44 DUP3 ADD MSTORE REVERT JUMPDEST RETURNDATASIZE SWAP2 POP DUP2 PUSH0 DUP3 RETURNDATACOPY PUSH2 0x197C DUP3 DUP3 PUSH2 0x1FAB JUMP JUMPDEST PUSH1 0x20 DUP2 DUP4 DUP2 ADD SUB SLT PUSH2 0x7A8 JUMPI DUP1 MLOAD PUSH1 0x1 PUSH1 0x1 PUSH1 0x40 SHL SUB DUP2 GT PUSH2 0x7A8 JUMPI DUP3 DUP3 ADD PUSH1 0x1F DUP3 DUP5 ADD ADD SLT ISZERO PUSH2 0x7A8 JUMPI DUP1 DUP3 ADD MLOAD SWAP1 PUSH2 0x19B5 DUP3 PUSH2 0x216E JUMP JUMPDEST SWAP4 PUSH2 0x19C3 PUSH1 0x40 MLOAD SWAP6 DUP7 PUSH2 0x1FAB JUMP JUMPDEST DUP3 DUP6 MSTORE PUSH1 0x20 DUP6 ADD SWAP1 DUP1 DUP6 ADD PUSH1 0x20 DUP6 PUSH1 0x5 SHL DUP6 DUP9 ADD ADD ADD GT PUSH2 0x7A8 JUMPI PUSH1 0x20 DUP4 DUP7 ADD ADD SWAP2 JUMPDEST PUSH1 0x20 DUP6 PUSH1 0x5 SHL DUP6 DUP9 ADD ADD ADD DUP4 LT PUSH2 0x1A03 JUMPI POP POP POP POP POP POP DUP3 PUSH2 0x1403 JUMP JUMPDEST DUP3 MLOAD PUSH1 0x1 PUSH1 0x1 PUSH1 0x40 SHL SUB DUP2 GT PUSH2 0x7A8 JUMPI DUP3 DUP8 ADD PUSH1 0x3F DUP3 DUP8 DUP11 ADD ADD ADD SLT ISZERO PUSH2 0x7A8 JUMPI PUSH1 0x20 DUP2 DUP7 DUP10 ADD ADD ADD MLOAD PUSH2 0x1A36 DUP2 PUSH2 0x1FCC JUMP JUMPDEST SWAP3 PUSH2 0x1A44 PUSH1 0x40 MLOAD SWAP5 DUP6 PUSH2 0x1FAB JUMP JUMPDEST DUP2 DUP5 MSTORE DUP5 DUP10 ADD PUSH1 0x40 DUP4 DUP6 DUP11 DUP14 ADD ADD ADD ADD GT PUSH2 0x7A8 JUMPI DUP4 PUSH2 0x1A74 PUSH1 0x20 SWAP6 SWAP4 DUP12 PUSH1 0x40 DUP9 SWAP8 DUP13 DUP10 DUP1 SWAP10 ADD SWAP4 ADD ADD ADD PUSH2 0x202D JUMP JUMPDEST DUP2 MSTORE ADD SWAP4 ADD SWAP3 SWAP1 POP PUSH2 0x19E6 JUMP JUMPDEST CALLVALUE PUSH2 0x7A8 JUMPI PUSH1 0x20 CALLDATASIZE PUSH1 0x3 NOT ADD SLT PUSH2 0x7A8 JUMPI PUSH2 0x1A9A PUSH2 0x1EFB JUMP JUMPDEST PUSH1 0x12 SLOAD PUSH1 0x1 PUSH1 0x1 PUSH1 0xA0 SHL SUB SWAP2 SWAP1 PUSH2 0x1AB4 SWAP1 DUP4 AND CALLER EQ PUSH2 0x2974 JUMP JUMPDEST AND PUSH1 0x1 DUP1 PUSH1 0xA0 SHL SUB NOT PUSH1 0xC SLOAD AND OR PUSH1 0xC SSTORE PUSH0 DUP1 RETURN JUMPDEST CALLVALUE PUSH2 0x7A8 JUMPI PUSH1 0x20 CALLDATASIZE PUSH1 0x3 NOT ADD SLT PUSH2 0x7A8 JUMPI PUSH2 0x1AE2 PUSH2 0x1EFB JUMP JUMPDEST PUSH1 0x12 SLOAD PUSH1 0x1 PUSH1 0x1 PUSH1 0xA0 SHL SUB SWAP2 SWAP1 PUSH2 0x1AFC SWAP1 DUP4 AND CALLER EQ PUSH2 0x2974 JUMP JUMPDEST AND PUSH1 0x1 DUP1 PUSH1 0xA0 SHL SUB NOT PUSH1 0x13 SLOAD AND OR PUSH1 0x13 SSTORE PUSH0 DUP1 RETURN JUMPDEST CALLVALUE PUSH2 0x7A8 JUMPI PUSH0 CALLDATASIZE PUSH1 0x3 NOT ADD SLT PUSH2 0x7A8 JUMPI PUSH1 0x20 PUSH1 0x11 SLOAD PUSH1 0x40 MLOAD SWAP1 DUP2 MSTORE RETURN JUMPDEST CALLVALUE PUSH2 0x7A8 JUMPI PUSH0 CALLDATASIZE PUSH1 0x3 NOT ADD SLT PUSH2 0x7A8 JUMPI PUSH1 0xD SLOAD PUSH1 0x40 MLOAD PUSH1 0x1 PUSH1 0x1 PUSH1 0xA0 SHL SUB SWAP1 SWAP2 AND DUP2 MSTORE PUSH1 0x20 SWAP1 RETURN JUMPDEST CALLVALUE PUSH2 0x7A8 JUMPI PUSH2 0x1B64 CALLDATASIZE PUSH2 0x1F11 JUMP JUMPDEST PUSH1 0x12 SLOAD PUSH2 0x1B86 SWAP1 CALLER PUSH1 0x1 PUSH1 0x1 PUSH1 0xA0 SHL SUB SWAP2 DUP3 AND EQ SWAP1 DUP2 ISZERO PUSH2 0x1BEB JUMPI JUMPDEST POP PUSH2 0x2553 JUMP JUMPDEST PUSH1 0x20 DUP2 SUB PUSH2 0x1BA6 JUMPI DUP2 PUSH1 0x20 SWAP2 DUP2 ADD SUB SLT PUSH2 0x7A8 JUMPI PUSH2 0x1BA4 SWAP1 CALLDATALOAD PUSH2 0x2693 JUMP JUMPDEST STOP JUMPDEST PUSH1 0x40 MLOAD PUSH3 0x461BCD PUSH1 0xE5 SHL DUP2 MSTORE PUSH1 0x20 PUSH1 0x4 DUP3 ADD MSTORE PUSH1 0x1A PUSH1 0x24 DUP3 ADD MSTORE PUSH32 0x496E76616C696420706572666F726D44617461206C656E677468000000000000 PUSH1 0x44 DUP3 ADD MSTORE PUSH1 0x64 SWAP1 REVERT JUMPDEST SWAP1 POP PUSH1 0xC SLOAD AND CALLER EQ DUP5 PUSH2 0x1B80 JUMP JUMPDEST CALLVALUE PUSH2 0x7A8 JUMPI PUSH0 CALLDATASIZE PUSH1 0x3 NOT ADD SLT PUSH2 0x7A8 JUMPI PUSH1 0x20 PUSH1 0x10 SLOAD PUSH1 0x40 MLOAD SWAP1 DUP2 MSTORE RETURN JUMPDEST CALLVALUE PUSH2 0x7A8 JUMPI PUSH1 0x20 CALLDATASIZE PUSH1 0x3 NOT ADD SLT PUSH2 0x7A8 JUMPI PUSH2 0x1C2F PUSH2 0x1EFB JUMP JUMPDEST PUSH1 0x12 SLOAD PUSH1 0x1 PUSH1 0x1 PUSH1 0xA0 SHL SUB SWAP2 SWAP1 PUSH2 0x1C49 SWAP1 DUP4 AND CALLER EQ PUSH2 0x2974 JUMP JUMPDEST AND PUSH1 0x1 DUP1 PUSH1 0xA0 SHL SUB NOT PUSH1 0xE SLOAD AND OR PUSH1 0xE SSTORE PUSH0 DUP1 RETURN JUMPDEST CALLVALUE PUSH2 0x7A8 JUMPI PUSH1 0x20 DUP1 PUSH1 0x3 NOT CALLDATASIZE ADD SLT PUSH2 0x7A8 JUMPI PUSH1 0x12 SLOAD PUSH1 0x4 CALLDATALOAD SWAP1 PUSH2 0x1C95 SWAP1 CALLER PUSH1 0x1 PUSH1 0x1 PUSH1 0xA0 SHL SUB SWAP2 DUP3 AND EQ SWAP1 DUP2 ISZERO PUSH2 0x1BEB JUMPI POP PUSH2 0x2553 JUMP JUMPDEST DUP1 ISZERO PUSH2 0x1D8A JUMPI DUP1 PUSH0 MSTORE PUSH0 DUP3 MSTORE PUSH1 0x2 PUSH1 0x40 PUSH0 KECCAK256 ADD SLOAD ISZERO ISZERO DUP1 PUSH2 0x1D79 JUMPI JUMPDEST ISZERO PUSH2 0x1D21 JUMPI PUSH2 0x1CBF SWAP1 PUSH2 0x2292 JUMP JUMPDEST SWAP2 SWAP1 ISZERO PUSH2 0x1CCF JUMPI PUSH2 0x1BA4 DUP3 PUSH2 0x2693 JUMP JUMPDEST PUSH1 0x84 SWAP1 PUSH1 0x40 MLOAD SWAP1 PUSH3 0x461BCD PUSH1 0xE5 SHL DUP3 MSTORE PUSH1 0x4 DUP3 ADD MSTORE PUSH1 0x25 PUSH1 0x24 DUP3 ADD MSTORE PUSH32 0x55706B656570206E6F74206E656564656420666F722074686973207375626D69 PUSH1 0x44 DUP3 ADD MSTORE PUSH5 0x39B9B4B7B7 PUSH1 0xD9 SHL PUSH1 0x64 DUP3 ADD MSTORE REVERT JUMPDEST PUSH1 0x40 MLOAD PUSH3 0x461BCD PUSH1 0xE5 SHL DUP2 MSTORE PUSH1 0x4 DUP2 ADD DUP4 SWAP1 MSTORE PUSH1 0x2A PUSH1 0x24 DUP3 ADD MSTORE PUSH32 0x5375626D697373696F6E20646F6573206E6F74206578697374206F7220697320 PUSH1 0x44 DUP3 ADD MSTORE PUSH10 0x6E6F7420616374697665 PUSH1 0xB0 SHL PUSH1 0x64 DUP3 ADD MSTORE PUSH1 0x84 SWAP1 REVERT JUMPDEST POP PUSH1 0xA DUP3 MSTORE PUSH1 0x40 PUSH0 KECCAK256 SLOAD ISZERO ISZERO PUSH2 0x1CB1 JUMP JUMPDEST PUSH1 0x40 MLOAD PUSH3 0x461BCD PUSH1 0xE5 SHL DUP2 MSTORE PUSH1 0x4 DUP2 ADD DUP4 SWAP1 MSTORE PUSH1 0x15 PUSH1 0x24 DUP3 ADD MSTORE PUSH21 0x125B9D985B1A59081CDD589B5A5CDCDA5BDB881251 PUSH1 0x5A SHL PUSH1 0x44 DUP3 ADD MSTORE PUSH1 0x64 SWAP1 REVERT JUMPDEST CALLVALUE PUSH2 0x7A8 JUMPI PUSH1 0x20 DUP1 PUSH1 0x3 NOT CALLDATASIZE ADD SLT PUSH2 0x7A8 JUMPI PUSH1 0x4 CALLDATALOAD PUSH0 MSTORE PUSH1 0x3 DUP2 MSTORE PUSH1 0x40 PUSH0 KECCAK256 SWAP1 PUSH1 0x40 MLOAD SWAP1 DUP2 DUP2 DUP5 SLOAD SWAP2 DUP3 DUP2 MSTORE ADD SWAP4 PUSH0 MSTORE DUP2 PUSH0 KECCAK256 SWAP2 PUSH0 SWAP1 JUMPDEST DUP3 DUP3 LT PUSH2 0x1E15 JUMPI PUSH2 0x959 DUP6 PUSH2 0xF49 DUP2 DUP10 SUB DUP3 PUSH2 0x1FAB JUMP JUMPDEST DUP4 SLOAD DUP7 MSTORE SWAP5 DUP6 ADD SWAP5 PUSH1 0x1 SWAP4 DUP5 ADD SWAP4 SWAP1 SWAP2 ADD SWAP1 PUSH2 0x1DFE JUMP JUMPDEST CALLVALUE PUSH2 0x7A8 JUMPI PUSH2 0x1E3A CALLDATASIZE PUSH2 0x1E7E JUMP JUMPDEST SWAP1 PUSH0 MSTORE PUSH1 0x7 PUSH1 0x20 MSTORE PUSH1 0x40 PUSH0 KECCAK256 DUP1 SLOAD DUP3 LT ISZERO PUSH2 0x7A8 JUMPI PUSH1 0x20 SWAP2 PUSH2 0x8E8 SWAP2 PUSH2 0x1EAC JUMP JUMPDEST CALLVALUE PUSH2 0x7A8 JUMPI PUSH0 CALLDATASIZE PUSH1 0x3 NOT ADD SLT PUSH2 0x7A8 JUMPI PUSH1 0xF SLOAD PUSH1 0x1 PUSH1 0x1 PUSH1 0xA0 SHL SUB AND DUP2 MSTORE PUSH1 0x20 SWAP1 RETURN JUMPDEST PUSH1 0x40 SWAP1 PUSH1 0x3 NOT ADD SLT PUSH2 0x7A8 JUMPI PUSH1 0x4 CALLDATALOAD SWAP1 PUSH1 0x24 CALLDATALOAD SWAP1 JUMP JUMPDEST PUSH1 0x9 SLOAD DUP2 LT ISZERO PUSH2 0x6F0 JUMPI PUSH1 0x9 PUSH0 MSTORE PUSH1 0x20 PUSH0 KECCAK256 ADD SWAP1 PUSH0 SWAP1 JUMP JUMPDEST DUP1 SLOAD DUP3 LT ISZERO PUSH2 0x6F0 JUMPI PUSH0 MSTORE PUSH1 0x20 PUSH0 KECCAK256 ADD SWAP1 PUSH0 SWAP1 JUMP JUMPDEST PUSH1 0x20 SWAP1 DUP2 PUSH1 0x40 DUP2 DUP4 ADD SWAP3 DUP3 DUP2 MSTORE DUP6 MLOAD DUP1 SWAP5 MSTORE ADD SWAP4 ADD SWAP2 PUSH0 JUMPDEST DUP3 DUP2 LT PUSH2 0x1EE7 JUMPI POP POP POP POP SWAP1 JUMP JUMPDEST DUP4 MLOAD DUP6 MSTORE SWAP4 DUP2 ADD SWAP4 SWAP3 DUP2 ADD SWAP3 PUSH1 0x1 ADD PUSH2 0x1ED9 JUMP JUMPDEST PUSH1 0x4 CALLDATALOAD SWAP1 PUSH1 0x1 PUSH1 0x1 PUSH1 0xA0 SHL SUB DUP3 AND DUP3 SUB PUSH2 0x7A8 JUMPI JUMP JUMPDEST SWAP1 PUSH1 0x20 PUSH1 0x3 NOT DUP4 ADD SLT PUSH2 0x7A8 JUMPI PUSH1 0x4 CALLDATALOAD PUSH1 0x1 PUSH1 0x1 PUSH1 0x40 SHL SUB SWAP3 DUP4 DUP3 GT PUSH2 0x7A8 JUMPI DUP1 PUSH1 0x23 DUP4 ADD SLT ISZERO PUSH2 0x7A8 JUMPI DUP2 PUSH1 0x4 ADD CALLDATALOAD SWAP4 DUP5 GT PUSH2 0x7A8 JUMPI PUSH1 0x24 DUP5 DUP4 ADD ADD GT PUSH2 0x7A8 JUMPI PUSH1 0x24 ADD SWAP2 SWAP1 JUMP JUMPDEST PUSH1 0xC0 DUP2 ADD SWAP1 DUP2 LT PUSH1 0x1 PUSH1 0x1 PUSH1 0x40 SHL SUB DUP3 GT OR PUSH2 0x543 JUMPI PUSH1 0x40 MSTORE JUMP JUMPDEST PUSH1 0x80 DUP2 ADD SWAP1 DUP2 LT PUSH1 0x1 PUSH1 0x1 PUSH1 0x40 SHL SUB DUP3 GT OR PUSH2 0x543 JUMPI PUSH1 0x40 MSTORE JUMP JUMPDEST PUSH1 0x40 DUP2 ADD SWAP1 DUP2 LT PUSH1 0x1 PUSH1 0x1 PUSH1 0x40 SHL SUB DUP3 GT OR PUSH2 0x543 JUMPI PUSH1 0x40 MSTORE JUMP JUMPDEST SWAP1 PUSH1 0x1F DUP1 NOT SWAP2 ADD AND DUP2 ADD SWAP1 DUP2 LT PUSH1 0x1 PUSH1 0x1 PUSH1 0x40 SHL SUB DUP3 GT OR PUSH2 0x543 JUMPI PUSH1 0x40 MSTORE JUMP JUMPDEST PUSH1 0x1 PUSH1 0x1 PUSH1 0x40 SHL SUB DUP2 GT PUSH2 0x543 JUMPI PUSH1 0x1F ADD PUSH1 0x1F NOT AND PUSH1 0x20 ADD SWAP1 JUMP JUMPDEST DUP2 PUSH1 0x1F DUP3 ADD SLT ISZERO PUSH2 0x7A8 JUMPI DUP1 CALLDATALOAD SWAP1 PUSH2 0x1FFE DUP3 PUSH2 0x1FCC JUMP JUMPDEST SWAP3 PUSH2 0x200C PUSH1 0x40 MLOAD SWAP5 DUP6 PUSH2 0x1FAB JUMP JUMPDEST DUP3 DUP5 MSTORE PUSH1 0x20 DUP4 DUP4 ADD ADD GT PUSH2 0x7A8 JUMPI DUP2 PUSH0 SWAP3 PUSH1 0x20 DUP1 SWAP4 ADD DUP4 DUP7 ADD CALLDATACOPY DUP4 ADD ADD MSTORE SWAP1 JUMP JUMPDEST PUSH0 JUMPDEST DUP4 DUP2 LT PUSH2 0x203E JUMPI POP POP PUSH0 SWAP2 ADD MSTORE JUMP JUMPDEST DUP2 DUP2 ADD MLOAD DUP4 DUP3 ADD MSTORE PUSH1 0x20 ADD PUSH2 0x202F JUMP JUMPDEST SWAP1 PUSH1 0x20 SWAP2 PUSH2 0x2067 DUP2 MLOAD DUP1 SWAP3 DUP2 DUP6 MSTORE DUP6 DUP1 DUP7 ADD SWAP2 ADD PUSH2 0x202D JUMP JUMPDEST PUSH1 0x1F ADD PUSH1 0x1F NOT AND ADD ADD SWAP1 JUMP JUMPDEST SWAP1 PUSH1 0x1 DUP3 DUP2 SHR SWAP3 AND DUP1 ISZERO PUSH2 0x20A1 JUMPI JUMPDEST PUSH1 0x20 DUP4 LT EQ PUSH2 0x208D JUMPI JUMP JUMPDEST PUSH4 0x4E487B71 PUSH1 0xE0 SHL PUSH0 MSTORE PUSH1 0x22 PUSH1 0x4 MSTORE PUSH1 0x24 PUSH0 REVERT JUMPDEST SWAP2 PUSH1 0x7F AND SWAP2 PUSH2 0x2082 JUMP JUMPDEST SWAP1 PUSH0 SWAP3 SWAP2 DUP1 SLOAD SWAP2 PUSH2 0x20BB DUP4 PUSH2 0x2073 JUMP JUMPDEST SWAP2 DUP3 DUP3 MSTORE PUSH1 0x1 SWAP4 DUP5 DUP2 AND SWAP1 DUP2 PUSH0 EQ PUSH2 0x2119 JUMPI POP PUSH1 0x1 EQ PUSH2 0x20DC JUMPI JUMPDEST POP POP POP POP JUMP JUMPDEST SWAP1 SWAP2 SWAP4 SWAP5 POP PUSH0 MSTORE PUSH1 0x20 SWAP3 DUP4 PUSH0 KECCAK256 SWAP3 DUP5 PUSH0 SWAP5 JUMPDEST DUP4 DUP7 LT PUSH2 0x2105 JUMPI POP POP POP POP ADD ADD SWAP1 PUSH0 DUP1 DUP1 DUP1 PUSH2 0x20D6 JUMP JUMPDEST DUP1 SLOAD DUP6 DUP8 ADD DUP4 ADD MSTORE SWAP5 ADD SWAP4 DUP6 SWAP1 DUP3 ADD PUSH2 0x20EE JUMP JUMPDEST SWAP3 SWAP5 POP POP POP PUSH1 0x20 SWAP4 SWAP5 POP PUSH1 0xFF NOT AND DUP4 DUP4 ADD MSTORE ISZERO ISZERO PUSH1 0x5 SHL ADD ADD SWAP1 PUSH0 DUP1 DUP1 DUP1 PUSH2 0x20D6 JUMP JUMPDEST SWAP1 PUSH1 0x40 PUSH1 0x3 NOT DUP4 ADD SLT PUSH2 0x7A8 JUMPI PUSH1 0x4 CALLDATALOAD SWAP2 PUSH1 0x24 CALLDATALOAD SWAP1 PUSH1 0x1 PUSH1 0x1 PUSH1 0x40 SHL SUB DUP3 GT PUSH2 0x7A8 JUMPI PUSH2 0x216B SWAP2 PUSH1 0x4 ADD PUSH2 0x1FE7 JUMP JUMPDEST SWAP1 JUMP JUMPDEST PUSH1 0x1 PUSH1 0x1 PUSH1 0x40 SHL SUB DUP2 GT PUSH2 0x543 JUMPI PUSH1 0x5 SHL PUSH1 0x20 ADD SWAP1 JUMP JUMPDEST SWAP1 DUP2 PUSH1 0x20 SWAP2 SUB SLT PUSH2 0x7A8 JUMPI MLOAD DUP1 ISZERO ISZERO DUP2 SUB PUSH2 0x7A8 JUMPI SWAP1 JUMP JUMPDEST DUP1 SLOAD SWAP2 SWAP1 PUSH1 0x1 PUSH1 0x40 SHL DUP4 LT ISZERO PUSH2 0x543 JUMPI DUP3 PUSH2 0x673 SWAP2 PUSH1 0x1 PUSH2 0x21C0 SWAP6 ADD DUP2 SSTORE PUSH2 0x1EAC JUMP JUMPDEST JUMP JUMPDEST DUP2 DUP2 LT PUSH2 0x21CD JUMPI POP POP JUMP JUMPDEST PUSH0 DUP2 SSTORE PUSH1 0x1 ADD PUSH2 0x21C2 JUMP JUMPDEST SWAP2 SWAP1 PUSH1 0x1F DUP2 GT PUSH2 0x21E7 JUMPI POP POP POP JUMP JUMPDEST PUSH2 0x21C0 SWAP3 PUSH0 MSTORE PUSH1 0x20 PUSH0 KECCAK256 SWAP1 PUSH1 0x20 PUSH1 0x1F DUP5 ADD PUSH1 0x5 SHR DUP4 ADD SWAP4 LT PUSH2 0x2211 JUMPI JUMPDEST PUSH1 0x1F ADD PUSH1 0x5 SHR ADD SWAP1 PUSH2 0x21C2 JUMP JUMPDEST SWAP1 SWAP2 POP DUP2 SWAP1 PUSH2 0x2204 JUMP JUMPDEST PUSH0 NOT DUP2 EQ PUSH2 0x4B2 JUMPI PUSH1 0x1 ADD SWAP1 JUMP JUMPDEST ISZERO PUSH2 0x2230 JUMPI JUMP JUMPDEST PUSH1 0x40 MLOAD PUSH3 0x461BCD PUSH1 0xE5 SHL DUP2 MSTORE PUSH1 0x20 PUSH1 0x4 DUP3 ADD MSTORE PUSH1 0x19 PUSH1 0x24 DUP3 ADD MSTORE PUSH25 0x14DD589B5A5CDCDA5BDB88191BD95CC81B9BDD08195E1A5CDD PUSH1 0x3A SHL PUSH1 0x44 DUP3 ADD MSTORE PUSH1 0x64 SWAP1 REVERT JUMPDEST SWAP2 SWAP1 DUP3 ADD DUP1 SWAP3 GT PUSH2 0x4B2 JUMPI JUMP JUMPDEST DUP1 MLOAD DUP3 LT ISZERO PUSH2 0x6F0 JUMPI PUSH1 0x20 SWAP2 PUSH1 0x5 SHL ADD ADD SWAP1 JUMP JUMPDEST PUSH0 SWAP2 PUSH0 SWAP2 DUP1 PUSH0 MSTORE PUSH0 PUSH1 0x20 MSTORE PUSH2 0x22B4 PUSH1 0x40 PUSH0 KECCAK256 PUSH1 0x3 PUSH1 0x2 DUP3 ADD SLOAD SWAP2 ADD SLOAD SWAP1 PUSH2 0x2271 JUMP JUMPDEST TIMESTAMP LT ISZERO PUSH2 0x22BE JUMPI POP JUMP JUMPDEST SWAP3 POP SWAP1 POP PUSH2 0x216B PUSH1 0x1 SWAP3 PUSH2 0x22E2 JUMP JUMPDEST SWAP1 DUP2 PUSH0 SUB SWAP2 DUP1 DUP4 SDIV PUSH0 NOT EQ SWAP1 ISZERO OR ISZERO PUSH2 0x4B2 JUMPI JUMP JUMPDEST PUSH1 0x1 DUP1 PUSH1 0xA0 SHL SUB PUSH1 0xD SLOAD AND PUSH0 SWAP1 DUP3 DUP3 MSTORE PUSH1 0x20 SWAP1 DUP3 DUP3 MSTORE PUSH1 0x40 SWAP3 DUP4 DUP2 KECCAK256 DUP5 MLOAD SWAP3 PUSH4 0x26917989 PUSH1 0xE0 SHL DUP5 MSTORE PUSH1 0x60 DUP5 PUSH1 0x4 SWAP3 DUP8 DUP5 DUP4 ADD MSTORE DUP2 DUP1 PUSH2 0x2327 PUSH1 0x24 SWAP8 DUP9 DUP4 ADD SWAP1 PUSH2 0x20AB JUMP JUMPDEST SUB SWAP2 GAS STATICCALL SWAP6 DUP7 ISZERO PUSH2 0x254A JUMPI DUP4 SWAP1 DUP5 SWAP6 DUP6 SWAP9 PUSH2 0x2508 JUMPI JUMPDEST POP DUP9 DUP6 MSTORE PUSH1 0x7 DUP8 MSTORE DUP1 DUP6 KECCAK256 SWAP1 DUP1 MLOAD DUP1 DUP4 DUP11 DUP3 SWAP6 SLOAD SWAP4 DUP5 DUP2 MSTORE ADD SWAP1 DUP10 MSTORE DUP11 DUP10 KECCAK256 SWAP3 DUP10 JUMPDEST DUP13 DUP3 DUP3 LT PUSH2 0x24F2 JUMPI POP POP POP PUSH2 0x2376 SWAP3 POP SUB DUP4 PUSH2 0x1FAB JUMP JUMPDEST DUP3 DUP3 MLOAD LT PUSH2 0x24E0 JUMPI DUP6 SWAP7 DUP7 SWAP9 DUP4 MLOAD PUSH1 0x11 SLOAD SWAP1 DUP2 DUP2 GT PUSH0 EQ PUSH2 0x24D8 JUMPI POP SWAP4 JUMPDEST DUP9 JUMPDEST DUP6 DUP2 LT PUSH2 0x241C JUMPI POP POP POP POP POP POP DUP6 ISZERO DUP1 SWAP2 DUP2 ISZERO PUSH2 0x2412 JUMPI JUMPDEST POP PUSH2 0x2402 JUMPI PUSH1 0x64 DUP6 MUL SWAP5 DUP1 DUP7 DIV PUSH1 0x64 EQ SWAP1 ISZERO OR ISZERO PUSH2 0x23F0 JUMPI PUSH2 0x23DF JUMPI POP POP POP DIV LT PUSH2 0x23D6 JUMPI SWAP1 JUMP JUMPDEST PUSH2 0x216B SWAP1 PUSH2 0x22CD JUMP JUMPDEST PUSH4 0x4E487B71 PUSH1 0xE0 SHL DUP4 MSTORE PUSH1 0x12 SWAP1 MSTORE DUP2 REVERT JUMPDEST POP PUSH4 0x4E487B71 PUSH1 0xE0 SHL DUP4 MSTORE PUSH1 0x11 SWAP1 MSTORE DUP2 REVERT JUMPDEST POP POP POP POP POP POP POP PUSH2 0x216B SWAP1 PUSH2 0x22CD JUMP JUMPDEST SWAP1 POP DUP7 LT PUSH0 PUSH2 0x23AE JUMP JUMPDEST PUSH2 0x2426 DUP2 DUP4 PUSH2 0x227E JUMP JUMPDEST MLOAD DUP6 MLOAD SWAP1 PUSH4 0x5CF17E1F PUSH1 0xE1 SHL DUP3 MSTORE DUP10 DUP3 ADD MSTORE DUP6 DUP2 DUP12 DUP2 ADDRESS GAS STATICCALL DUP1 ISZERO PUSH2 0x24CE JUMPI DUP6 SWAP1 DUP13 SWAP3 DUP14 SWAP2 PUSH2 0x2495 JUMPI JUMPDEST POP LT ISZERO PUSH2 0x2467 JUMPI JUMPDEST POP PUSH2 0x2462 SWAP1 PUSH2 0x221B JUMP JUMPDEST PUSH2 0x2396 JUMP JUMPDEST SWAP12 PUSH2 0x2473 PUSH1 0x2 SWAP2 PUSH2 0x221B JUMP JUMPDEST SWAP13 EQ PUSH2 0x2480 JUMPI JUMPDEST PUSH0 PUSH2 0x2458 JUMP JUMPDEST SWAP10 PUSH2 0x248D PUSH2 0x2462 SWAP2 PUSH2 0x221B JUMP JUMPDEST SWAP11 SWAP1 POP PUSH2 0x247A JUMP JUMPDEST SWAP3 POP POP POP DUP6 DUP2 DUP2 RETURNDATASIZE DUP4 GT PUSH2 0x24C7 JUMPI JUMPDEST PUSH2 0x24AE DUP2 DUP4 PUSH2 0x1FAB JUMP JUMPDEST DUP2 ADD SUB SLT PUSH2 0x24C3 JUMPI DUP5 DUP5 DUP3 MLOAD SWAP3 ADD MLOAD PUSH0 PUSH2 0x2450 JUMP JUMPDEST DUP11 DUP1 REVERT JUMPDEST POP RETURNDATASIZE PUSH2 0x24A4 JUMP JUMPDEST DUP7 MLOAD RETURNDATASIZE DUP14 DUP3 RETURNDATACOPY RETURNDATASIZE SWAP1 REVERT JUMPDEST SWAP1 POP SWAP4 PUSH2 0x2394 JUMP JUMPDEST POP POP POP POP POP POP POP POP POP PUSH2 0x216B SWAP1 PUSH2 0x22CD JUMP JUMPDEST DUP6 SLOAD DUP5 MSTORE PUSH1 0x1 SWAP6 DUP7 ADD SWAP6 DUP9 SWAP6 POP SWAP4 ADD SWAP3 ADD PUSH2 0x235F JUMP JUMPDEST SWAP6 POP SWAP7 POP POP PUSH1 0x60 DUP5 RETURNDATASIZE DUP3 GT PUSH2 0x2542 JUMPI JUMPDEST DUP2 PUSH2 0x2525 PUSH1 0x60 SWAP4 DUP4 PUSH2 0x1FAB JUMP JUMPDEST DUP2 ADD SUB SLT PUSH2 0x253E JUMPI DUP4 MLOAD DUP6 DUP6 ADD MLOAD SWAP5 DUP8 ADD MLOAD SWAP7 PUSH0 PUSH2 0x233D JUMP JUMPDEST DUP3 DUP1 REVERT JUMPDEST RETURNDATASIZE SWAP2 POP PUSH2 0x2518 JUMP JUMPDEST MLOAD RETURNDATASIZE DUP5 DUP3 RETURNDATACOPY RETURNDATASIZE SWAP1 REVERT JUMPDEST ISZERO PUSH2 0x255A JUMPI JUMP JUMPDEST PUSH1 0x40 MLOAD PUSH3 0x461BCD PUSH1 0xE5 SHL DUP2 MSTORE PUSH1 0x20 PUSH1 0x4 DUP3 ADD MSTORE PUSH1 0x37 PUSH1 0x24 DUP3 ADD MSTORE PUSH32 0x4E6F742074686520636F6E7472616374206F776E6572206F72204175746F6D61 PUSH1 0x44 DUP3 ADD MSTORE PUSH23 0x1D1A5BDB88119BDC9DD85C99195C8810DBDB9D1C9858DD PUSH1 0x4A SHL PUSH1 0x64 DUP3 ADD MSTORE PUSH1 0x84 SWAP1 REVERT JUMPDEST SWAP1 DUP1 DUP3 EQ PUSH2 0x268F JUMPI PUSH2 0x25D1 DUP2 SLOAD PUSH2 0x2073 JUMP JUMPDEST SWAP1 PUSH1 0x1 PUSH1 0x1 PUSH1 0x40 SHL SUB DUP3 GT PUSH2 0x543 JUMPI DUP2 SWAP1 PUSH2 0x25F0 DUP3 PUSH2 0x15A4 DUP7 SLOAD PUSH2 0x2073 JUMP JUMPDEST PUSH0 SWAP1 PUSH1 0x1F DUP4 GT PUSH1 0x1 EQ PUSH2 0x2624 JUMPI PUSH0 SWAP3 PUSH2 0x2619 JUMPI JUMPDEST POP POP DUP2 PUSH1 0x1 SHL SWAP2 PUSH0 NOT SWAP1 PUSH1 0x3 SHL SHR NOT AND OR SWAP1 SSTORE JUMP JUMPDEST ADD SLOAD SWAP1 POP PUSH0 DUP1 PUSH2 0x2604 JUMP JUMPDEST DUP2 MSTORE PUSH1 0x20 DUP1 DUP3 KECCAK256 DUP6 DUP4 MSTORE DUP2 DUP4 KECCAK256 SWAP4 POP SWAP1 PUSH1 0x1F NOT DUP6 AND SWAP1 DUP4 SWAP1 JUMPDEST DUP3 DUP3 LT PUSH2 0x2676 JUMPI POP POP SWAP1 DUP5 PUSH1 0x1 SWAP6 SWAP5 SWAP4 SWAP3 LT PUSH2 0x265E JUMPI JUMPDEST POP POP POP DUP2 SHL ADD SWAP1 SSTORE JUMP JUMPDEST ADD SLOAD PUSH0 NOT PUSH1 0xF8 DUP5 PUSH1 0x3 SHL AND SHR NOT AND SWAP1 SSTORE PUSH0 DUP1 DUP1 PUSH2 0x2654 JUMP JUMPDEST DUP5 SWAP6 DUP2 SWAP3 SWAP6 DUP6 ADD SLOAD DUP2 SSTORE PUSH1 0x1 DUP1 SWAP2 ADD SWAP7 ADD SWAP5 ADD SWAP1 PUSH2 0x263D JUMP JUMPDEST POP POP JUMP JUMPDEST PUSH0 DUP1 DUP3 SGT SWAP3 SWAP2 DUP4 ISZERO PUSH2 0x294D JUMPI SWAP3 JUMPDEST DUP4 ISZERO ISZERO DUP1 PUSH2 0x2926 JUMPI JUMPDEST DUP1 PUSH2 0x290F JUMPI JUMPDEST DUP1 PUSH2 0x28FA JUMPI JUMPDEST PUSH2 0x26C1 JUMPI JUMPDEST POP POP SWAP1 POP JUMP JUMPDEST ISZERO PUSH2 0x28C4 JUMPI PUSH1 0x8 SLOAD PUSH1 0x1 LT ISZERO PUSH2 0x28B0 JUMPI PUSH1 0x8 DUP2 MSTORE PUSH32 0xF3F7A9FE364FAAB93B216DA50A3214154F22A0A2B415B23A84C8169E8B636EE4 SWAP1 JUMPDEST DUP4 DUP2 MSTORE PUSH1 0x20 SWAP2 DUP2 DUP4 MSTORE PUSH2 0x2712 PUSH1 0x40 SWAP2 PUSH1 0x1 DUP4 DUP6 KECCAK256 ADD PUSH2 0x25BF JUMP JUMPDEST DUP5 DUP3 MSTORE PUSH1 0x1 DUP4 MSTORE DUP5 PUSH32 0x3ED188EDBA0C6B2D9B7A54CEC2942F1CAB56A63A4DCFDCA5FF11706FFDF25B1E DUP3 DUP5 KECCAK256 SLOAD DUP5 DUP7 MSTORE PUSH1 0x1 DUP5 DUP7 KECCAK256 ADD SWAP1 PUSH2 0x2761 DUP6 MLOAD SWAP3 DUP4 SWAP3 DUP4 MSTORE DUP7 DUP10 DUP5 ADD MSTORE DUP7 DUP4 ADD SWAP1 PUSH2 0x20AB JUMP JUMPDEST SUB SWAP1 LOG2 DUP5 DUP3 MSTORE PUSH1 0xA DUP4 MSTORE DUP1 DUP3 KECCAK256 SLOAD SWAP3 PUSH1 0x9 SLOAD SWAP6 PUSH0 NOT SWAP5 DUP6 DUP9 ADD SWAP8 DUP9 GT PUSH2 0x289C JUMPI DUP8 DUP6 SWAP7 SWAP8 SWAP9 DUP3 SUB PUSH2 0x27DB JUMPI JUMPDEST POP POP DUP4 MSTORE PUSH1 0xA SWAP1 MSTORE DUP2 KECCAK256 SSTORE PUSH1 0x9 SLOAD SWAP1 DUP2 ISZERO PUSH2 0x27C7 JUMPI POP DUP2 ADD SWAP1 PUSH2 0x27AF DUP3 PUSH2 0x1E94 JUMP JUMPDEST SWAP1 SWAP2 DUP3 SLOAD SWAP2 PUSH1 0x3 SHL SHL NOT AND SWAP1 SSTORE PUSH1 0x9 SSTORE DUP1 PUSH0 DUP1 PUSH2 0x26BB JUMP JUMPDEST PUSH4 0x4E487B71 PUSH1 0xE0 SHL DUP2 MSTORE PUSH1 0x31 PUSH1 0x4 MSTORE PUSH1 0x24 SWAP1 REVERT JUMPDEST PUSH2 0x2815 SWAP2 SWAP3 SWAP4 SWAP5 SWAP6 POP PUSH2 0x27ED SWAP1 PUSH2 0x1E94 JUMP JUMPDEST SWAP1 SLOAD PUSH2 0x27F8 DUP5 PUSH2 0x1E94 JUMP JUMPDEST SWAP2 SWAP1 SWAP3 PUSH1 0x3 SHL SHR SWAP1 DUP3 SLOAD SWAP1 PUSH1 0x3 SHL SWAP2 DUP3 SHL SWAP2 PUSH0 NOT SWAP1 SHL NOT AND OR SWAP1 SSTORE JUMP JUMPDEST PUSH1 0x9 SLOAD DUP7 DUP2 ADD SWAP1 DUP2 GT PUSH2 0x2888 JUMPI SWAP2 PUSH32 0x2F5A4EE168DCA9EAEF284F1844A3D24D74BA63A5FCCC947454FC07515C8B3774 DUP6 DUP8 SWAP7 SWAP6 SWAP4 PUSH2 0x2854 PUSH1 0xA SWAP7 PUSH2 0x1E94 JUMP JUMPDEST SWAP1 SLOAD SWAP1 PUSH1 0x3 SHL SHR DUP9 MSTORE DUP6 DUP6 MSTORE DUP1 DUP3 DUP10 KECCAK256 SSTORE PUSH2 0x286E DUP2 PUSH2 0x1E94 JUMP JUMPDEST SWAP1 SLOAD SWAP1 PUSH1 0x3 SHL SHR SWAP1 DUP3 MLOAD SWAP2 DUP3 MSTORE DUP6 DUP3 ADD MSTORE LOG1 SWAP1 SWAP2 PUSH0 PUSH2 0x278D JUMP JUMPDEST PUSH4 0x4E487B71 PUSH1 0xE0 SHL DUP7 MSTORE PUSH1 0x11 PUSH1 0x4 MSTORE PUSH1 0x24 DUP7 REVERT JUMPDEST PUSH4 0x4E487B71 PUSH1 0xE0 SHL DUP6 MSTORE PUSH1 0x11 PUSH1 0x4 MSTORE PUSH1 0x24 DUP6 REVERT JUMPDEST PUSH4 0x4E487B71 PUSH1 0xE0 SHL DUP2 MSTORE PUSH1 0x32 PUSH1 0x4 MSTORE PUSH1 0x24 SWAP1 REVERT JUMPDEST PUSH1 0x8 SLOAD PUSH1 0x2 LT ISZERO PUSH2 0x28B0 JUMPI PUSH1 0x8 DUP2 MSTORE PUSH32 0xF3F7A9FE364FAAB93B216DA50A3214154F22A0A2B415B23A84C8169E8B636EE5 SWAP1 PUSH2 0x26F8 JUMP JUMPDEST POP DUP4 DUP3 MSTORE PUSH1 0xA PUSH1 0x20 MSTORE PUSH1 0x40 DUP3 KECCAK256 SLOAD ISZERO ISZERO PUSH2 0x26B6 JUMP JUMPDEST POP DUP4 DUP3 MSTORE DUP2 PUSH1 0x20 MSTORE PUSH1 0x2 PUSH1 0x40 DUP4 KECCAK256 ADD SLOAD ISZERO ISZERO PUSH2 0x26B0 JUMP JUMPDEST POP DUP4 DUP3 MSTORE DUP2 PUSH1 0x20 MSTORE PUSH2 0x2945 PUSH1 0x40 DUP4 KECCAK256 PUSH1 0x3 PUSH1 0x2 DUP3 ADD SLOAD SWAP2 ADD SLOAD SWAP1 PUSH2 0x2271 JUMP JUMPDEST TIMESTAMP LT ISZERO PUSH2 0x26AA JUMP JUMPDEST PUSH1 0x1 PUSH1 0xFF SHL DUP2 EQ PUSH2 0x2960 JUMPI DUP2 SUB SWAP3 PUSH2 0x26A1 JUMP JUMPDEST PUSH4 0x4E487B71 PUSH1 0xE0 SHL DUP3 MSTORE PUSH1 0x11 PUSH1 0x4 MSTORE PUSH1 0x24 DUP3 REVERT JUMPDEST ISZERO PUSH2 0x297B JUMPI JUMP JUMPDEST PUSH1 0x40 MLOAD PUSH3 0x461BCD PUSH1 0xE5 SHL DUP2 MSTORE PUSH1 0x20 PUSH1 0x4 DUP3 ADD MSTORE PUSH1 0x16 PUSH1 0x24 DUP3 ADD MSTORE PUSH22 0x2737BA103A34329031B7B73A3930B1BA1037BBB732B9 PUSH1 0x51 SHL PUSH1 0x44 DUP3 ADD MSTORE PUSH1 0x64 SWAP1 REVERT INVALID LOG2 PUSH5 0x6970667358 0x22 SLT KECCAK256 0xC5 GT PUSH14 0x880DE3A93D2E5455860938678ED3 CALL 0xDA 0xDA 0xF8 DELEGATECALL 0xE6 CALLDATACOPY NUMBER 0x2E PUSH7 0xE11958E8D16473 PUSH16 0x6C634300081400330000000000000000 "},"methodIdentifiers":{"ActiveSubmissions(uint256)":"ee8eb507","ActiveSubmissionsIndexes(uint256)":"93a018be","CommunityConsensusContract()":"47631adb","CommunitySubmissionToPost(uint256)":"ac97980d","CommunitySubmissions(uint256)":"c5dce24d","FundContract()":"8ed8067e","MembersContract()":"e1485776","PostSubmissionList(uint256,uint256)":"eeb0cf76","PostsContract()":"059597f7","checkUpkeep(bytes)":"6e04ff0d","consensusFee()":"4215c5e4","csCounter()":"a5940041","getActiveSubmissions()":"bdf5db39","getActiveSubmissionsIndex(uint256)":"de78ab7c","getActiveSubmissionsLength()":"74f0c641","getCommunitySubmission(uint256)":"de8b32c5","getPostConsesous(uint256)":"ea487a92","getPostSubmissionList(uint256)":"1ea49051","getReview(uint256)":"990581b6","getReviewConsenous(uint256)":"b9e2fc3e","getReviewsForSubmission(uint256)":"6c79bd2b","hasReviewed(uint256,address)":"7c7198cc","manualUpkeepPost(uint256)":"34ca35c4","maxReviews()":"4ed59812","performUpkeep(bytes)":"4585e33b","postCommunities(uint256,string)":"d3a3f771","reviewCounter()":"e168b3a8","reviews(uint256)":"e83ddcea","setAutomationRegistry(address)":"5ff2d2aa","setCommunitiesContract(address)":"ad2957ff","setFee(uint256)":"69fe0e2d","setFundContract(address)":"59144baa","setMaxReviews(uint256)":"d1a34aa3","setMembersContract(address)":"3c09203b","setPostsContract(address)":"d39065fa","setdefaultConsenousTypes(string[])":"d8db3807","submitReview(uint256,string,uint256)":"6356eea4","submitToCommunity(uint256,string)":"fa1396f5","submmisionReviews(uint256,uint256)":"1651902a"}}}}}