{"contracts/learntgetherCommunities.sol":{"learntgetherCommunities":{"abi":[{"inputs":[{"internalType":"uint256","name":"_feePrice","type":"uint256"},{"internalType":"address payable","name":"_feeAddress","type":"address"}],"stateMutability":"nonpayable","type":"constructor"},{"anonymous":false,"inputs":[{"indexed":true,"internalType":"string","name":"communityName","type":"string"},{"indexed":false,"internalType":"address","name":"creator","type":"address"},{"indexed":false,"internalType":"bool","name":"isInviteOnly","type":"bool"}],"name":"CommunityCreated","type":"event"},{"anonymous":false,"inputs":[{"indexed":true,"internalType":"string","name":"communityName","type":"string"},{"indexed":false,"internalType":"uint256","name":"minCredsToProposeVote","type":"uint256"},{"indexed":false,"internalType":"uint256","name":"minCredsToVote","type":"uint256"},{"indexed":false,"internalType":"uint256","name":"maxCredsCountedForVote","type":"uint256"},{"indexed":false,"internalType":"uint256","name":"minProposalVotes","type":"uint256"},{"indexed":false,"internalType":"address","name":"memberAccessContract","type":"address"},{"indexed":false,"internalType":"uint256","name":"proposalTime","type":"uint256"},{"indexed":false,"internalType":"uint256","name":"proposalDelay","type":"uint256"},{"indexed":false,"internalType":"bool","name":"isInviteOnly","type":"bool"}],"name":"CommunityInfo","type":"event"},{"anonymous":false,"inputs":[{"indexed":true,"internalType":"string","name":"communityName","type":"string"},{"indexed":true,"internalType":"uint256","name":"proposalId","type":"uint256"},{"indexed":false,"internalType":"uint256","name":"minCredsToProposeVote","type":"uint256"},{"indexed":false,"internalType":"uint256","name":"minCredsToVote","type":"uint256"},{"indexed":false,"internalType":"uint256","name":"maxCredsCountedForVote","type":"uint256"},{"indexed":false,"internalType":"uint256","name":"minProposalVotes","type":"uint256"},{"indexed":false,"internalType":"address","name":"memberAccessContract","type":"address"},{"indexed":false,"internalType":"uint256","name":"proposalTime","type":"uint256"},{"indexed":false,"internalType":"uint256","name":"proposalDelay","type":"uint256"},{"indexed":false,"internalType":"bool","name":"isInviteOnly","type":"bool"}],"name":"CommunityProposalParams","type":"event"},{"anonymous":false,"inputs":[{"indexed":true,"internalType":"address","name":"contractAddress","type":"address"},{"indexed":true,"internalType":"uint256","name":"proposalId","type":"uint256"},{"indexed":true,"internalType":"address","name":"proposer","type":"address"}],"name":"CustomProposalCreated","type":"event"},{"anonymous":false,"inputs":[{"indexed":true,"internalType":"address","name":"contractAddress","type":"address"},{"indexed":true,"internalType":"uint256","name":"proposalId","type":"uint256"},{"indexed":true,"internalType":"bool","name":"passed","type":"bool"}],"name":"CustomProposalResult","type":"event"},{"anonymous":false,"inputs":[{"indexed":false,"internalType":"uint256","name":"proposalId","type":"uint256"},{"indexed":false,"internalType":"uint256","name":"activeProposalsIndex","type":"uint256"}],"name":"IndexChange","type":"event"},{"anonymous":false,"inputs":[{"indexed":true,"internalType":"uint256","name":"proposalId","type":"uint256"},{"indexed":true,"internalType":"address","name":"proposer","type":"address"},{"indexed":true,"internalType":"string","name":"communityName","type":"string"},{"indexed":false,"internalType":"uint256","name":"timestamp","type":"uint256"},{"indexed":false,"internalType":"uint256","name":"propType","type":"uint256"}],"name":"ProposalCreated","type":"event"},{"anonymous":false,"inputs":[{"indexed":true,"internalType":"uint256","name":"proposalId","type":"uint256"},{"indexed":true,"internalType":"bool","name":"passed","type":"bool"}],"name":"ProposalResult","type":"event"},{"anonymous":false,"inputs":[{"indexed":true,"internalType":"uint256","name":"proposalId","type":"uint256"},{"indexed":true,"internalType":"address","name":"voter","type":"address"},{"indexed":true,"internalType":"bool","name":"voteChoice","type":"bool"},{"indexed":false,"internalType":"uint256","name":"credsToCount","type":"uint256"}],"name":"Voted","type":"event"},{"inputs":[{"internalType":"uint256","name":"","type":"uint256"}],"name":"CommunityNames","outputs":[{"internalType":"string","name":"","type":"string"}],"stateMutability":"view","type":"function"},{"inputs":[{"internalType":"string","name":"_communityName","type":"string"},{"internalType":"uint256","name":"_minCredsToProposeVote","type":"uint256"},{"internalType":"uint256","name":"_minCredsToVote","type":"uint256"},{"internalType":"uint256","name":"_maxCredsCountedForVote","type":"uint256"},{"internalType":"uint256","name":"_minProposalVotes","type":"uint256"},{"internalType":"address","name":"_credsAccessAddress","type":"address"},{"internalType":"uint256","name":"_proposalTime","type":"uint256"},{"internalType":"uint256","name":"_proposalDelay","type":"uint256"},{"internalType":"bool","name":"_isInviteOnly","type":"bool"}],"name":"CommunityProposal","outputs":[{"internalType":"uint256","name":"","type":"uint256"}],"stateMutability":"payable","type":"function"},{"inputs":[{"internalType":"uint256","name":"","type":"uint256"}],"name":"CommunityProposals","outputs":[{"internalType":"uint256","name":"minCredsToProposeVote","type":"uint256"},{"internalType":"uint256","name":"minCredsToVote","type":"uint256"},{"internalType":"uint256","name":"maxCredsCountedForVote","type":"uint256"},{"internalType":"uint256","name":"minProposalVotes","type":"uint256"},{"internalType":"address","name":"memberAccessContract","type":"address"},{"internalType":"uint256","name":"proposalTime","type":"uint256"},{"internalType":"uint256","name":"proposalDelay","type":"uint256"},{"internalType":"bool","name":"isInviteOnly","type":"bool"}],"stateMutability":"view","type":"function"},{"inputs":[{"internalType":"string","name":"_communityName","type":"string"},{"internalType":"address","name":"_contractAddress","type":"address"}],"name":"CustomProposal","outputs":[{"internalType":"uint256","name":"","type":"uint256"}],"stateMutability":"payable","type":"function"},{"inputs":[{"internalType":"uint256","name":"","type":"uint256"}],"name":"CustomProposals","outputs":[{"internalType":"address","name":"","type":"address"}],"stateMutability":"view","type":"function"},{"inputs":[],"name":"MemberContract","outputs":[{"internalType":"contract learntgetherMembersInterface","name":"","type":"address"}],"stateMutability":"view","type":"function"},{"inputs":[{"internalType":"string","name":"_communityName","type":"string"},{"internalType":"address","name":"_newOwner","type":"address"}],"name":"changeCommunityOwner","outputs":[],"stateMutability":"nonpayable","type":"function"},{"inputs":[],"name":"checkUpKeep","outputs":[{"internalType":"bool","name":"upkeepNeeded","type":"bool"},{"internalType":"bytes","name":"performData","type":"bytes"}],"stateMutability":"view","type":"function"},{"inputs":[{"internalType":"string","name":"","type":"string"}],"name":"communities","outputs":[{"internalType":"address","name":"creator","type":"address"},{"internalType":"uint256","name":"minCredsToProposeVote","type":"uint256"},{"internalType":"uint256","name":"minCredsToVote","type":"uint256"},{"internalType":"uint256","name":"maxCredsCountedForVote","type":"uint256"},{"internalType":"uint256","name":"minProposalVotes","type":"uint256"},{"internalType":"address","name":"memberAccessContract","type":"address"},{"internalType":"uint256","name":"proposalTime","type":"uint256"},{"internalType":"uint256","name":"proposalDelay","type":"uint256"},{"internalType":"bool","name":"isInviteOnly","type":"bool"}],"stateMutability":"view","type":"function"},{"inputs":[{"internalType":"string","name":"_communityName","type":"string"},{"internalType":"uint256","name":"_minCredsToProposeVote","type":"uint256"},{"internalType":"uint256","name":"_minCredsToVote","type":"uint256"},{"internalType":"uint256","name":"_maxCredsCountedForVote","type":"uint256"},{"internalType":"uint256","name":"_minProposalVotes","type":"uint256"},{"internalType":"address","name":"_memberAccessContract","type":"address"},{"internalType":"uint256","name":"_proposalTime","type":"uint256"},{"internalType":"uint256","name":"_proposalDelay","type":"uint256"},{"internalType":"bool","name":"_isInviteOnly","type":"bool"}],"name":"createCommunity","outputs":[],"stateMutability":"nonpayable","type":"function"},{"inputs":[],"name":"fee","outputs":[{"internalType":"uint256","name":"","type":"uint256"}],"stateMutability":"view","type":"function"},{"inputs":[{"internalType":"uint256","name":"_propId","type":"uint256"}],"name":"getActiveProposalIndex","outputs":[{"internalType":"uint256","name":"","type":"uint256"}],"stateMutability":"view","type":"function"},{"inputs":[],"name":"getActiveProposalsLength","outputs":[{"internalType":"uint256","name":"","type":"uint256"}],"stateMutability":"view","type":"function"},{"inputs":[{"internalType":"string","name":"_communityName","type":"string"}],"name":"getCommunityExists","outputs":[{"internalType":"bool","name":"","type":"bool"}],"stateMutability":"view","type":"function"},{"inputs":[{"internalType":"string","name":"_communityName","type":"string"}],"name":"getCommunityInfo","outputs":[{"internalType":"uint256","name":"minCredsToProposeVote","type":"uint256"},{"internalType":"uint256","name":"minCredsToVote","type":"uint256"},{"internalType":"uint256","name":"maxCredsCountedForVote","type":"uint256"},{"internalType":"uint256","name":"minProposalVotes","type":"uint256"},{"internalType":"uint256","name":"proposalTime","type":"uint256"},{"internalType":"uint256","name":"proposalDelay","type":"uint256"},{"internalType":"bool","name":"isInviteOnly","type":"bool"}],"stateMutability":"view","type":"function"},{"inputs":[{"internalType":"string","name":"_communityName","type":"string"}],"name":"getCommunityIsInviteOnly","outputs":[{"internalType":"bool","name":"","type":"bool"}],"stateMutability":"view","type":"function"},{"inputs":[{"internalType":"string","name":"_communityName","type":"string"},{"internalType":"address","name":"_add","type":"address"}],"name":"getCommunityIsOwner","outputs":[{"internalType":"bool","name":"","type":"bool"}],"stateMutability":"view","type":"function"},{"inputs":[{"internalType":"string","name":"_communityName","type":"string"}],"name":"getCommunityOwner","outputs":[{"internalType":"address","name":"","type":"address"}],"stateMutability":"view","type":"function"},{"inputs":[],"name":"getFee","outputs":[{"internalType":"uint256","name":"","type":"uint256"}],"stateMutability":"view","type":"function"},{"inputs":[{"internalType":"string","name":"_communityName","type":"string"}],"name":"getMemberAccessContract","outputs":[{"internalType":"address","name":"","type":"address"}],"stateMutability":"view","type":"function"},{"inputs":[{"internalType":"uint256","name":"_numIdsreturned","type":"uint256"},{"internalType":"uint256","name":"_pageNumber","type":"uint256"}],"name":"getPaginatedActiveProposals","outputs":[{"internalType":"uint256[]","name":"","type":"uint256[]"},{"internalType":"uint256","name":"numPages","type":"uint256"}],"stateMutability":"view","type":"function"},{"inputs":[{"internalType":"string","name":"_communityName","type":"string"},{"internalType":"uint256","name":"_numIdsreturned","type":"uint256"},{"internalType":"uint256","name":"_pageNumber","type":"uint256"}],"name":"getPaginatedCommunityProposals","outputs":[{"internalType":"uint256[]","name":"","type":"uint256[]"},{"internalType":"uint256","name":"numPages","type":"uint256"}],"stateMutability":"view","type":"function"},{"inputs":[{"internalType":"uint256","name":"_proposalId","type":"uint256"}],"name":"getProposalResults","outputs":[{"internalType":"bool","name":"isActive","type":"bool"},{"internalType":"bool","name":"passed","type":"bool"}],"stateMutability":"view","type":"function"},{"inputs":[{"internalType":"uint256","name":"_proposalId","type":"uint256"}],"name":"getProposalType","outputs":[{"internalType":"uint256","name":"","type":"uint256"}],"stateMutability":"view","type":"function"},{"inputs":[{"internalType":"address","name":"_address","type":"address"},{"internalType":"uint256","name":"_proposalId","type":"uint256"}],"name":"getProposalVote","outputs":[{"internalType":"uint256","name":"approveVotes","type":"uint256"},{"internalType":"uint256","name":"approveCreds","type":"uint256"},{"internalType":"uint256","name":"denyVotes","type":"uint256"},{"internalType":"uint256","name":"denyCreds","type":"uint256"},{"internalType":"bool","name":"","type":"bool"}],"stateMutability":"view","type":"function"},{"inputs":[{"internalType":"bytes","name":"_performData","type":"bytes"}],"name":"performUpkeep","outputs":[],"stateMutability":"nonpayable","type":"function"},{"inputs":[{"internalType":"string","name":"","type":"string"},{"internalType":"uint256","name":"","type":"uint256"}],"name":"porposalsByCommunity","outputs":[{"internalType":"uint256","name":"","type":"uint256"}],"stateMutability":"view","type":"function"},{"inputs":[{"internalType":"uint256","name":"","type":"uint256"}],"name":"proposals","outputs":[{"internalType":"address","name":"proposer","type":"address"},{"internalType":"string","name":"communityName","type":"string"},{"internalType":"uint256","name":"timestamp","type":"uint256"},{"internalType":"uint256","name":"propType","type":"uint256"},{"internalType":"uint256","name":"activeProposalsIndex","type":"uint256"},{"internalType":"uint256","name":"approveVotes","type":"uint256"},{"internalType":"uint256","name":"denyVotes","type":"uint256"},{"internalType":"uint256","name":"approveCreds","type":"uint256"},{"internalType":"uint256","name":"denyCreds","type":"uint256"},{"internalType":"bool","name":"isActive","type":"bool"},{"internalType":"bool","name":"passed","type":"bool"}],"stateMutability":"view","type":"function"},{"inputs":[{"internalType":"uint256","name":"_feePrice","type":"uint256"}],"name":"setFee","outputs":[],"stateMutability":"nonpayable","type":"function"},{"inputs":[{"internalType":"address payable","name":"_feeAddress","type":"address"}],"name":"setFeeAddress","outputs":[],"stateMutability":"nonpayable","type":"function"},{"inputs":[{"internalType":"uint256","name":"_mpt","type":"uint256"}],"name":"setMaxProposalTime","outputs":[],"stateMutability":"nonpayable","type":"function"},{"inputs":[{"internalType":"uint256","name":"_propId","type":"uint256"}],"name":"setProposalCanceled","outputs":[],"stateMutability":"nonpayable","type":"function"},{"inputs":[{"internalType":"uint256","name":"_count","type":"uint256"}],"name":"setProposalCounter","outputs":[],"stateMutability":"nonpayable","type":"function"},{"inputs":[{"internalType":"uint256","name":"_proposalId","type":"uint256"}],"name":"setProposalInactive","outputs":[],"stateMutability":"nonpayable","type":"function"},{"inputs":[{"internalType":"uint256","name":"_upkeepId","type":"uint256"}],"name":"setUpkkepId","outputs":[],"stateMutability":"nonpayable","type":"function"},{"inputs":[{"internalType":"address","name":"_contractAddress","type":"address"}],"name":"setlearntgetherMembersContract","outputs":[],"stateMutability":"nonpayable","type":"function"},{"inputs":[],"name":"upkeepId","outputs":[{"internalType":"uint256","name":"","type":"uint256"}],"stateMutability":"view","type":"function"},{"inputs":[{"internalType":"uint256","name":"proposalId","type":"uint256"},{"internalType":"bool","name":"voteChoice","type":"bool"}],"name":"vote","outputs":[],"stateMutability":"nonpayable","type":"function"}],"evm":{"bytecode":{"linkReferences":{},"object":"608034620000ee57601f62002d7d38819003918201601f19168301916001600160401b03831184841017620000da578084926040948552833981010312620000ee5780516020909101516001600160a01b03811690819003620000ee5760018060a01b03193381600a541617600a55600c541617600c55600b5562786450600355600160055560075468010000000000000000811015620000da576001810180600755811015620000c6575f9060078252602082200155604051612c8a9081620000f38239f35b634e487b7160e01b5f52603260045260245ffd5b634e487b7160e01b5f52604160045260245ffd5b5f80fdfe60806040526004361015610011575f80fd5b5f3560e01c8063013cf08b146121b25780630163b9681461218a57806304413d86146121255780630dc85f7d146120da5780631282f6091461209757806325f8729f1461204f57806328adc24014611f89578063298a575014611eb857806331b4ea2e14611b575780633df6735214611acf5780634585e33b14611734578063495d855e146117175780635787a0cc146116e95780635bdcd008146116ac5780636219f117146113f7578063685357091461138057806369fe0e2d14611352578063789aa8f61461122d5780637b7fcfed146111c45780638126d89514611162578063860eb3d9146110bc5780638705fcd4146110705780638b6404401461104257806390943a8b14611010578063a169093b14610fe2578063a64108d514610e66578063b07bcbc514610bac578063b3f6702d14610b2c578063b60a85ae14610aff578063c2c2e5f814610a86578063c8249d8a14610933578063c9d27afe146104e6578063cbe02a9f14610452578063ced72f87146101bb578063d0d8392314610226578063d2aa789f14610209578063d978ffba146101dc5763ddca3f43146101bb575f80fd5b346101d8575f3660031901126101d8576020600b54604051908152f35b5f80fd5b346101d85760203660031901126101d8576004355f5260066020526020600360405f200154604051908152f35b346101d8575f3660031901126101d8576020600e54604051908152f35b346101d8576020806003193601126101d8576004355f8181526006835260409020546001600160a01b0316330361041157805f5260068252600160ff600a60405f200154161515036103cc57805f5260068252600460405f20015491600754906001821115610388575f1982019182116103745783826006935f96036102dd575b50508284525281600460408220600a810160ff19815416905501556102ca612adb565b5f80516020612c358339815191528280a3005b7ff041f52db3fd2f56a979d9dd319aa6a6e399c198410349cf154eb4b4568d7daa9161033561030d60409361249c565b90546103188461249c565b91909260031b1c9082549060031b91821b915f19901b1916179055565b61033e8161249c565b90549060031b1c8752848452806004838920015561035b8161249c565b90549060031b1c90825191825284820152a184806102a7565b634e487b7160e01b5f52601160045260245ffd5b6064906040519062461bcd60e51b82526004820152601d60248201527f546865726520617265206e6f206163746976652050726f706f73616c730000006044820152fd5b60405162461bcd60e51b815260048101839052601b60248201527f546869732070726f706f73616c206973206e6f742061637469766500000000006044820152606490fd5b60405162461bcd60e51b81526004810183905260196024820152785573657220646964206e6f742070726f706f7365207468697360381b6044820152606490fd5b346101d85760203660031901126101d8576004356001600160401b0381116101d85761048460209136906004016123d3565b60056104d283604051938051906104c1838201926104a3818986612372565b87015f8152878560018060a01b03998a930301902054161515612b5e565b604051938492839251928391612372565b81015f815203019020015416604051908152f35b346101d85760403660031901126101d8576024803580151591600435908383036101d8576005548210156108f457815f526020906006825260405f20906001918260ff600a830154161515036108b05760028101549183820192610556600761054e86612999565b015482612a27565b4210159081610880575b501561084457600d54604051635848e2a360e11b81526001600160a01b039091169390868180610594853360048401612a34565b0381885afa801561077a5786915f91610817575b501515036107c3576009830193335f5284875260ff60405f205416610785578660405180926302b5df5960e01b825281806105e7873360048401612a34565b03915afa90811561077a575f9161074d575b50600261060583612999565b0154811061070957600361061883612999565b0154811115610701575061062d600391612999565b0154965b156106b2576005820180549185830180931161069f5750916007917f7c2de587c00d75474a0c6c6fa96fd3b45dc974cd4e8a75f712bb84c950dce1b596959493550161067e878254612a27565b90555b335f52825260405f209060ff198254161790556040519384523393a4005b634e487b7160e01b5f9081526011600452fd5b6006820180549185830180931161069f5750916008917f7c2de587c00d75474a0c6c6fa96fd3b45dc974cd4e8a75f712bb84c950dce1b59695949355016106fa878254612a27565b9055610681565b905096610631565b60405162461bcd60e51b815260048101889052601b818501527f496e73756666696369656e7420637265647320746f20766f74652e00000000006044820152606490fd5b90508681813d8311610773575b61076481836122b0565b810103126101d857518a6105f9565b503d61075a565b6040513d5f823e3d90fd5b60405162461bcd60e51b815260048101889052601781850152762cb7ba903430bb329030b63932b0b23c903b37ba32b21760491b6044820152606490fd5b60405162461bcd60e51b8152600481018790526027818401527f596f7520617265206e6f742061206d656d626572206f66207468697320636f6d60448201526636bab734ba3c9760c91b6064820152608490fd5b6108379150883d8a1161083d575b61082f81836122b0565b810190612790565b8b6105a8565b503d610825565b8460166064926040519262461bcd60e51b84526004840152820152754e6f742041637469766520566f74696e672054696d6560501b6044820152fd5b6108a7915061089c90600761089487612999565b015490612a27565b600661089486612999565b42111589610560565b60405162461bcd60e51b815260048101859052601c818401527f50726f706f73616c206973206e6f206c6f6e67657220416374697665000000006044820152606490fd5b60649060186040519162461bcd60e51b83526020600484015282015277283937b837b9b0b6103237b2b9903737ba1032bc34b9ba1760411b6044820152fd5b346101d8575f3660031901126101d8575f806007805490816109af575b50506040519060208201526020815260408101918183106001600160401b0384111761099b57826040521515825260406060820152603f19906109966080820182612393565b030190f35b634e487b7160e01b5f52604160045260245ffd5b5f9060015b8381106109c2575050610950565b6109cb8161249c565b9054600391821b1c5f52610a32600660209080825280610a10600260405f2001546109f58861249c565b905490881b1c5f5282855288610894600160405f2001612999565b92610a1a8761249c565b905490871b1c5f5252610894600160405f2001612999565b4281111580610a74575b610a51575b5050610a4c9061298b565b6109b4565b955095509150610a4c600195610a668461249c565b9054911b1c94929087610a41565b508481111580610a3c57508415610a3c565b346101d85760403660031901126101d8576004356001600160401b0381116101d857610ab69036906004016123d3565b610ad26020602435928160405193828580945193849201612372565b8101600881520301902080548210156101d857602091610af1916124b4565b90546040519160031b1c8152f35b346101d85760203660031901126101d8576004355f5260066020526020600460405f200154604051908152f35b346101d85760203660031901126101d8576004356001600160401b0381116101d857610b5e60209136906004016123d3565b610b9982604051928051906104c183820192610b7b818886612372565b86015f8152868560018060a01b039889930301902054161515612b5e565b81015f8152030190205416604051908152f35b610bb53661242f565b604051825190602093610bee85820193610bd0818587612372565b83015f8152838760018060a01b0395869303019020541615156126dc565b325f5260098552610c0660ff60405f20541615612722565b81600d5416604051635848e2a360e11b8152868180610c298632600484016127a8565b0381855afa90811561077a57610c4c916001915f91610e49575b501515146127cd565b8560405180926302b5df5960e01b82528180610c6c8732600484016127a8565b03915afa90811561077a575f91610e1c575b5060405186818451610c9181838a612372565b81015f815203019020600101541115610ca99061282a565b600b543414610cb790612876565b600580545f908152600687526040902080546001600160a01b0319908116331782559195919290610ceb82600183016125b4565b42600282015560075460048201556003810160029055600a019460ff199586815416600117905587875492610d1f816126bc565b6040514281528381016002905285339160407f6c98a8c940418b35614f0cd02412d5c9606faff474cbb6cdd6640ba5d1a9f06b91a460405180938192518092610d6792612372565b8101600881520301902090610d7b91612968565b84545f52600486528260405f209116809282541617905532908454907f6a319039caa9a0b231fc1a3d10d617c656e322ebac0d326e9d0c95cbde9248a45f80a43490600c54165a5f809381938293f1610dd26128bb565b50610ddc906128ea565b325f526009835260405f209081541660011790558054610dfb9061292d565b8054610e069061298b565b8091555f19810190811161037457604051908152f35b90508581813d8311610e42575b610e3381836122b0565b810103126101d8575186610c7e565b503d610e29565b610e609150893d8b1161083d5761082f81836122b0565b89610c43565b346101d8576020806003193601126101d857600435906001600160401b0382116101d857610e9a60e09236906004016123d3565b9060405191610ed381519383830194610eb4818388612372565b5f90820190815281900384019020546001600160a01b03161515612b5e565b600160405183818451610ee781838a612372565b81015f815203019020015492600260405184818551610f07818388612372565b81015f8152030190200154600360405185818651610f26818389612372565b81015f8152030190200154600460405186818751610f4581838a612372565b81015f81520301902001549160ff6008610faf886006610f72828a8c604051938492839251928391612372565b81015f815203019020015497600760405183818d51610f92818388612372565b81015f815203019020015499604051938492839251928391612372565b81015f8152030190200154169560405197885287015260408601526060850152608084015260a0830152151560c0820152f35b346101d85760203660031901126101d85761100860018060a01b03600a54163314612b19565b600435600355005b346101d85760203660031901126101d8576004355f526004602052602060018060a01b0360405f205416604051908152f35b346101d85760203660031901126101d85761106860018060a01b03600a54163314612b19565b600435600555005b346101d85760203660031901126101d8576004356001600160a01b03818116918290036101d8576110a690600a54163314612b19565b600c80546001600160a01b031916919091179055005b346101d85760403660031901126101d8576004356110d981612bbd565b905f6110e782602435612bef565b906110f28383612a27565b906007549283831161115a575b905b82821061112757856111138686612c16565b9061112360405192839283612531565b0390f35b61114e611154916111378461249c565b90549060031b1c611148828a612c02565b5261298b565b9161298b565b90611101565b8392506110ff565b346101d85760203660031901126101d8576004355f52600260205260405f208054611123600183015492600281015490600381015460018060a01b0360048301541660058301549160ff60076006860154950154169460405198899889612573565b346101d85760203660031901126101d8576004356001600160401b0381116101d8576111f660209136906004016123d3565b8161120a6040519283815193849201612372565b5f90820190815281900382019020546040516001600160a01b0390911615158152f35b346101d85760603660031901126101d8576004356001600160401b0381116101d85761125d9036906004016123d3565b60243561126981612bbd565b915f61127783604435612bef565b916112828484612a27565b90604051918151936020958684019561129c818789612372565b85019487816008978881520301902054831161132e575b905b8282106112e85788611113896112d98a8a8a8a604051948593849251928391612372565b82019081520301902054612c16565b61114e61132891611317846113098b8b604051809381928d51928391612372565b81018c8152030190206124b4565b90549060031b1c611148828d612c02565b906112b5565b91506040518681855161134281838b612372565b81018781520301902054916112b3565b346101d85760203660031901126101d85761137860018060a01b03600a54163314612b19565b600435600b55005b346101d85760403660031901126101d85760a061139b612419565b6024355f52600660205260405f206005810154916007820154916009600682015491600881015493600180891b03165f520160205260ff60405f2054169260405194855260208501526040840152606083015215156080820152f35b346101d857611405366124c9565b92829491929897959891604051895190602097888c0192611427818486612372565b82015f8152828a60018060a01b0394859303019020541661166b57918b89928b8f8e8c97600354809111611662575b50926008959261158c95926115a79998956040518781875161147981838c612372565b81015f8152030190209260018060a01b031993338582541617905560016040518981806114aa8c8c51928391612372565b81015f81520301902001556002604051888188516114c981838d612372565b81015f81520301902001556003604051878187516114e881838c612372565b81015f81520301902001558960046040518781875161150881838c612372565b81015f815203019020015560056040518681865161152781838b612372565b81015f81520301902001918b16908254161790558960066040518581855161155081838a612372565b81015f81520301902001558a60076040518581855161157081838a612372565b81015f8152030190200155604051938492839251928391612372565b81015f815203019020019060ff801983541691151516179055565b600154600160401b81101561099b578060016115c69201600155612470565b61164f578961164a976115fd7fa33e969841918d6c70510ff52aaf2f08256c371553465cdd2beb001c23b0f5049c61163d946125b4565b7f770333f2d96faae538a5391fa34d7f90a88dc8af3aadcb1735c43839cb6955666040611629846126bc565b928151903382528b151590820152a26126bc565b9960405198899889612573565b0390a2005b634e487b7160e01b5f525f60045260245ffd5b9a506008611456565b60405162461bcd60e51b8152600481018a9052601960248201527821b7b6b6bab734ba3c9030b63932b0b23c9032bc34b9ba399760391b6044820152606490fd5b346101d85760203660031901126101d8576004355f5260066020526040600a815f20015460ff8251918181161515835260081c1615156020820152f35b346101d85760203660031901126101d85761170f60018060a01b03600a54163314612b19565b600435600e55005b346101d8575f3660031901126101d8576020600754604051908152f35b346101d8576020806003193601126101d8576004356001600160401b038082116101d857366023830112156101d85781600401359081116101d85781013660248201116101d85781839103126101d8576024013590815f5260069182825260405f206002906117c76117b28383015460076108946001809601612999565b845f52868652866108948460405f2001612999565b8315159081611ac4575b81611aba575b506117de57005b825f5284845260405f20916005830154868401548082119182611a8a575b82611a68575b5050156119f4578160038401548281145f1461195a57505050825f5260048452808360018060a01b0360405f2054167fca5be02c86f988b49c8f55fa1445e2252a5de3afaa608cc35db41feb6c22f83a5f80a45b825f80516020612c358339815191525f80a3815f52838352600a60405f200161010061ff00198254161790555b546001600160a01b03165f908152600983526040808220805460ff199081169091558383528585529120600a81018054909216909155600401546007545f198101908111610374578082036118eb575b50505f52525f60046040822001556118e9612adb565b005b7ff041f52db3fd2f56a979d9dd319aa6a6e399c198410349cf154eb4b4568d7daa9161191b61030d60409361249c565b6119248161249c565b90549060031b1c5f52858552806004835f2001556119418161249c565b90549060031b1c90825191825285820152a183806118d3565b14611966575b50611856565b6119ee90600860ff600761197b868801612999565b93885f52808a5260405f2090815488870155878201548187015581015460038601556003810154600486015560018060a01b03600482015416600586019060018060a01b031982541617905560058101548b8601558a8101548286015501541691019060ff801983541691151516179055565b85611960565b9050825f52848452600a60405f200161ff001981541690555f835f80516020612c358339815191528280a3600382015403611883576004835260405f9081205483906001600160a01b03167fca5be02c86f988b49c8f55fa1445e2252a5de3afaa608cc35db41feb6c22f83a8380a4611883565b611a729250612a27565b6004611a7f848601612999565b015411158780611802565b915060078501546008860154108015611aa4575b916117fc565b506003611ab2858701612999565b015415611a9e565b90501515866117d7565b4281111591506117d1565b346101d85760203660031901126101d8576004356001600160401b0381116101d85760ff6008611b416020611b09819536906004016123d3565b604051906104c181519284830193611b22818387612372565b5f90820190815281900385019020546001600160a01b03161515612b5e565b81015f8152030190200154166040519015158152f35b611b60366124c9565b92611ba260206040999698979994939451611b818c82815194859201612372565b5f918101918252908190036020019020546001600160a01b031615156126dc565b325f526009602052611bbb60ff60405f20541615612722565b600d54604051635848e2a360e11b81526001600160a01b039091169060208180611be98e32600484016127a8565b0381855afa90811561077a57611c2e92611c1260016020948f945f91611e9b57501515146127cd565b60405180809581946302b5df5960e01b835232600484016127a8565b03915afa90811561077a578a905f92611e59575b5097611c9d611de296959493926001611c8b60207f65513f3a4b238816f691e4322be549c10eeaa1ef78fe116618b0d83e5ca252b69d8160405193828580945193849201612372565b81015f8152030190200154111561282a565b611caa600b543414612876565b84836005545f5260026020528c60405f2091600354809111611e4f575b50600660205260405f2080546001600160a01b03191633178155611dd693926007929091611d889190611cfd82600183016125b4565b4260028201558454600482015560016003820155600a600160ff19828401541617910155611d79602060055492611d33816126bc565b604051428152600184820152857f6c98a8c940418b35614f0cd02412d5c9606faff474cbb6cdd6640ba5d1a9f06b60403393a48160405193828580945193849201612372565b81016008815203019020612968565b8a81558b60018201558d60028201558460038201556004810160018060a01b03871660018060a01b0319825416179055866005820155876006820155019060ff801983541691151516179055565b61163d6005549b6126bc565b0390a3611e085f8080803460018060a01b03600c54165af1611e026128bb565b506128ea565b335f52600960205260405f20600160ff19825416179055611e2a60055461292d565b611e3560055461298b565b806005555f19810190811161037457602090604051908152f35b9550611dd6611cc7565b959493929150506020853d602011611e93575b81611e79602093836122b0565b810103126101d85793519293919290919089611c9d611c42565b3d9150611e6c565b611eb29150863d881161083d5761082f81836122b0565b5f610c43565b346101d857611ec63661242f565b90604051908051906020810191611ede818585612372565b83015f815283602060018060a01b039586930301902054163303611f3457611f1491602091604051938492839251928391612372565b5f9082019081520301902080546001600160a01b03191691909216179055005b60405162461bcd60e51b815260206004820152602760248201527f55736572206973206e6f7420746865206f776e6572206f66207468697320636f6044820152666d6d756e69747960c81b6064820152608490fd5b346101d85760203660031901126101d8576004356001600160401b0381116101d857611fd46020611fc16101209336906004016123d3565b8160405193828580945193849201612372565b81015f81520301902060018060a01b0380825416916001810154916002820154906003830154906004840154906005850154169160068501549360ff600860078801549701541696604051988952602089015260408801526060870152608086015260a085015260c084015260e08301521515610100820152f35b346101d85760203660031901126101d857612068612419565b600a546001600160a01b0391906120829083163314612b19565b1660018060a01b0319600d541617600d555f80f35b346101d85760203660031901126101d8576120bd60018060a01b03600a54163314612b19565b6004355f908152600660205260409020600a01805460ff19169055005b346101d85760203660031901126101d8576004356001548110156101d85761210190612470565b61164f57612111611123916122d1565b604051918291602083526020830190612393565b346101d8576020806121363661242f565b919061217482604051928051906104c183820192612155818886612372565b86015f81528660018060a01b0398899889930301902054161515612b5e565b81015f8152030190205416906040519216148152f35b346101d8575f3660031901126101d857600d546040516001600160a01b039091168152602090f35b346101d85760203660031901126101d8576004355f90815260066020526040902080546001600160a01b03166121ea600183016122d1565b9160ff60028201549160038101549060048101546005820154600683015490600784015492600a6008860154950154956122386040519b8c9b8c5260208c61016091829101528c0190612393565b9860408b015260608a0152608089015260a088015260c087015260e0860152610100850152818116151561012085015260081c1615156101408301520390f35b90600182811c921680156122a6575b602083101461229257565b634e487b7160e01b5f52602260045260245ffd5b91607f1691612287565b90601f801991011681019081106001600160401b0382111761099b57604052565b9060405191825f8254926122e484612278565b9081845260019485811690815f1461234f575060011461230f575b505061230d925003836122b0565b565b909391505f52602090815f20935f915b81831061233757505061230d93508201015f806122ff565b8554888401850152948501948794509183019161231f565b91505061230d94506020925060ff191682840152151560051b8201015f806122ff565b5f5b8381106123835750505f910152565b8181015183820152602001612374565b906020916123ac81518092818552858086019101612372565b601f01601f1916010190565b6001600160401b03811161099b57601f01601f191660200190565b81601f820112156101d8578035906123ea826123b8565b926123f860405194856122b0565b828452602083830101116101d857815f926020809301838601378301015290565b600435906001600160a01b03821682036101d857565b60406003198201126101d857600435906001600160401b0382116101d857612459916004016123d3565b906024356001600160a01b03811681036101d85790565b6001548110156124885760015f5260205f2001905f90565b634e487b7160e01b5f52603260045260245ffd5b6007548110156124885760075f5260205f2001905f90565b8054821015612488575f5260205f2001905f90565b6101206003198201126101d857600435906001600160401b0382116101d8576124f4916004016123d3565b906024359060443590606435906084359060a4356001600160a01b03811681036101d8579060c4359060e435906101043580151581036101d85790565b9291906040840160408552815180915260608501906020809301905f5b8482821061255f5750505050930152565b83518552938401939092019160010161254e565b969390989794919260e0969361010089019a895260208901526040880152606087015260018060a01b0316608086015260a085015260c08401521515910152565b91909182516001600160401b03811161099b576125d18254612278565b601f8111612675575b50602080601f83116001146126155750819293945f9261260a575b50508160011b915f199060031b1c1916179055565b015190505f806125f5565b90601f19831695845f52825f20925f905b88821061265d57505083600195969710612645575b505050811b019055565b01515f1960f88460031b161c191690555f808061263b565b80600185968294968601518155019501930190612626565b5f83815260208120601f840160051c810192602085106126b2575b601f0160051c01915b8281106126a75750506125da565b818155600101612699565b9092508290612690565b6126d490602060405192828480945193849201612372565b810103902090565b156126e357565b60405162461bcd60e51b815260206004820152601760248201527610dbdb5b5d5b9a5d1e48191bd95cdb89dd08195e1a5cdd604a1b6044820152606490fd5b1561272957565b60405162461bcd60e51b815260206004820152603960248201527f5573657220686173204f70656e205265766965772c20506c65617365207761696044820152783a103ab73a34b6361034ba1034b990383937b1b2b9b9b2b21760391b6064820152608490fd5b908160209103126101d8575180151581036101d85790565b6001600160a01b0390911681526040602082018190526127ca92910190612393565b90565b156127d457565b60405162461bcd60e51b815260206004820152602860248201527f596f7520617265206e6f742061206d656d62657220666f72207468697320636f60448201526736b6bab734ba3c9760c11b6064820152608490fd5b1561283157565b60405162461bcd60e51b815260206004820152601e60248201527f496e73756666696369656e7420637265647320746f2070726f706f73652e00006044820152606490fd5b1561287d57565b60405162461bcd60e51b81526020600482015260166024820152754d7573742073656e642070726f706f73616c2066656560501b6044820152606490fd5b3d156128e5573d906128cc826123b8565b916128da60405193846122b0565b82523d5f602084013e565b606090565b156128f157565b60405162461bcd60e51b81526020600482015260146024820152732330b4b632b2103a379039b2b7321022ba3432b960611b6044820152606490fd5b60075490600160401b82101561099b5761295082600161230d940160075561249c565b90919082549060031b91821b915f19901b1916179055565b80549190600160401b83101561099b578261295091600161230d950181556124b4565b5f1981146103745760010190565b60405190815f82546129aa81612278565b93600191808316908115612a0b57506001146129d1575b5050602092505f81520301902090565b9091505f52602090815f20905f915b8583106129f7575050505060209181015f806129c1565b8054878401528694509183019181016129e0565b92505050602093915060ff191682528015150281015f806129c1565b9190820180921161037457565b919060018060a01b031682526020916040838201525f928254612a5681612278565b9384604085015260019182811690815f14612ab65750600114612a7c575b505050505090565b5f908152828120949550935b858510612aa2575050506060925001015f80808080612a74565b805485850160600152938201938101612a88565b93505050506060935060ff929192191683830152151560051b01015f80808080612a74565b6007548015612b05575f1990810190612af38261249c565b909182549160031b1b19169055600755565b634e487b7160e01b5f52603160045260245ffd5b15612b2057565b60405162461bcd60e51b81526020600482015260166024820152752737ba103a34329031b7b73a3930b1ba1037bbb732b960511b6044820152606490fd5b15612b6557565b60405162461bcd60e51b815260206004820152601960248201527810dbdb5b5d5b9a5d1e48111bd95cc8139bdd08115e1cda5cdd603a1b6044820152606490fd5b6001600160401b03811161099b5760051b60200190565b90612bc782612ba6565b612bd460405191826122b0565b8281528092612be5601f1991612ba6565b0190602036910137565b8181029291811591840414171561037457565b80518210156124885760209160051b010190565b8115612c20570490565b634e487b7160e01b5f52601260045260245ffdfe35baaec8d9c9da1c77f27119243a4384b49eae2bf0680aa0eebe3b62d28574a5a26469706673582212203af2f4265de126060633bc590435d4356269a33d798151359c948b3a5f47bc8264736f6c63430008140033","opcodes":"PUSH1 0x80 CALLVALUE PUSH3 0xEE JUMPI PUSH1 0x1F PUSH3 0x2D7D CODESIZE DUP2 SWAP1 SUB SWAP2 DUP3 ADD PUSH1 0x1F NOT AND DUP4 ADD SWAP2 PUSH1 0x1 PUSH1 0x1 PUSH1 0x40 SHL SUB DUP4 GT DUP5 DUP5 LT OR PUSH3 0xDA JUMPI DUP1 DUP5 SWAP3 PUSH1 0x40 SWAP5 DUP6 MSTORE DUP4 CODECOPY DUP2 ADD SUB SLT PUSH3 0xEE JUMPI DUP1 MLOAD PUSH1 0x20 SWAP1 SWAP2 ADD MLOAD PUSH1 0x1 PUSH1 0x1 PUSH1 0xA0 SHL SUB DUP2 AND SWAP1 DUP2 SWAP1 SUB PUSH3 0xEE JUMPI PUSH1 0x1 DUP1 PUSH1 0xA0 SHL SUB NOT CALLER DUP2 PUSH1 0xA SLOAD AND OR PUSH1 0xA SSTORE PUSH1 0xC SLOAD AND OR PUSH1 0xC SSTORE PUSH1 0xB SSTORE PUSH3 0x786450 PUSH1 0x3 SSTORE PUSH1 0x1 PUSH1 0x5 SSTORE PUSH1 0x7 SLOAD PUSH9 0x10000000000000000 DUP2 LT ISZERO PUSH3 0xDA JUMPI PUSH1 0x1 DUP2 ADD DUP1 PUSH1 0x7 SSTORE DUP2 LT ISZERO PUSH3 0xC6 JUMPI PUSH0 SWAP1 PUSH1 0x7 DUP3 MSTORE PUSH1 0x20 DUP3 KECCAK256 ADD SSTORE PUSH1 0x40 MLOAD PUSH2 0x2C8A SWAP1 DUP2 PUSH3 0xF3 DUP3 CODECOPY RETURN JUMPDEST PUSH4 0x4E487B71 PUSH1 0xE0 SHL PUSH0 MSTORE PUSH1 0x32 PUSH1 0x4 MSTORE PUSH1 0x24 PUSH0 REVERT JUMPDEST PUSH4 0x4E487B71 PUSH1 0xE0 SHL PUSH0 MSTORE PUSH1 0x41 PUSH1 0x4 MSTORE PUSH1 0x24 PUSH0 REVERT JUMPDEST PUSH0 DUP1 REVERT INVALID PUSH1 0x80 PUSH1 0x40 MSTORE PUSH1 0x4 CALLDATASIZE LT ISZERO PUSH2 0x11 JUMPI PUSH0 DUP1 REVERT JUMPDEST PUSH0 CALLDATALOAD PUSH1 0xE0 SHR DUP1 PUSH4 0x13CF08B EQ PUSH2 0x21B2 JUMPI DUP1 PUSH4 0x163B968 EQ PUSH2 0x218A JUMPI DUP1 PUSH4 0x4413D86 EQ PUSH2 0x2125 JUMPI DUP1 PUSH4 0xDC85F7D EQ PUSH2 0x20DA JUMPI DUP1 PUSH4 0x1282F609 EQ PUSH2 0x2097 JUMPI DUP1 PUSH4 0x25F8729F EQ PUSH2 0x204F JUMPI DUP1 PUSH4 0x28ADC240 EQ PUSH2 0x1F89 JUMPI DUP1 PUSH4 0x298A5750 EQ PUSH2 0x1EB8 JUMPI DUP1 PUSH4 0x31B4EA2E EQ PUSH2 0x1B57 JUMPI DUP1 PUSH4 0x3DF67352 EQ PUSH2 0x1ACF JUMPI DUP1 PUSH4 0x4585E33B EQ PUSH2 0x1734 JUMPI DUP1 PUSH4 0x495D855E EQ PUSH2 0x1717 JUMPI DUP1 PUSH4 0x5787A0CC EQ PUSH2 0x16E9 JUMPI DUP1 PUSH4 0x5BDCD008 EQ PUSH2 0x16AC JUMPI DUP1 PUSH4 0x6219F117 EQ PUSH2 0x13F7 JUMPI DUP1 PUSH4 0x68535709 EQ PUSH2 0x1380 JUMPI DUP1 PUSH4 0x69FE0E2D EQ PUSH2 0x1352 JUMPI DUP1 PUSH4 0x789AA8F6 EQ PUSH2 0x122D JUMPI DUP1 PUSH4 0x7B7FCFED EQ PUSH2 0x11C4 JUMPI DUP1 PUSH4 0x8126D895 EQ PUSH2 0x1162 JUMPI DUP1 PUSH4 0x860EB3D9 EQ PUSH2 0x10BC JUMPI DUP1 PUSH4 0x8705FCD4 EQ PUSH2 0x1070 JUMPI DUP1 PUSH4 0x8B640440 EQ PUSH2 0x1042 JUMPI DUP1 PUSH4 0x90943A8B EQ PUSH2 0x1010 JUMPI DUP1 PUSH4 0xA169093B EQ PUSH2 0xFE2 JUMPI DUP1 PUSH4 0xA64108D5 EQ PUSH2 0xE66 JUMPI DUP1 PUSH4 0xB07BCBC5 EQ PUSH2 0xBAC JUMPI DUP1 PUSH4 0xB3F6702D EQ PUSH2 0xB2C JUMPI DUP1 PUSH4 0xB60A85AE EQ PUSH2 0xAFF JUMPI DUP1 PUSH4 0xC2C2E5F8 EQ PUSH2 0xA86 JUMPI DUP1 PUSH4 0xC8249D8A EQ PUSH2 0x933 JUMPI DUP1 PUSH4 0xC9D27AFE EQ PUSH2 0x4E6 JUMPI DUP1 PUSH4 0xCBE02A9F EQ PUSH2 0x452 JUMPI DUP1 PUSH4 0xCED72F87 EQ PUSH2 0x1BB JUMPI DUP1 PUSH4 0xD0D83923 EQ PUSH2 0x226 JUMPI DUP1 PUSH4 0xD2AA789F EQ PUSH2 0x209 JUMPI DUP1 PUSH4 0xD978FFBA EQ PUSH2 0x1DC JUMPI PUSH4 0xDDCA3F43 EQ PUSH2 0x1BB JUMPI PUSH0 DUP1 REVERT JUMPDEST CALLVALUE PUSH2 0x1D8 JUMPI PUSH0 CALLDATASIZE PUSH1 0x3 NOT ADD SLT PUSH2 0x1D8 JUMPI PUSH1 0x20 PUSH1 0xB SLOAD PUSH1 0x40 MLOAD SWAP1 DUP2 MSTORE RETURN JUMPDEST PUSH0 DUP1 REVERT JUMPDEST CALLVALUE PUSH2 0x1D8 JUMPI PUSH1 0x20 CALLDATASIZE PUSH1 0x3 NOT ADD SLT PUSH2 0x1D8 JUMPI PUSH1 0x4 CALLDATALOAD PUSH0 MSTORE PUSH1 0x6 PUSH1 0x20 MSTORE PUSH1 0x20 PUSH1 0x3 PUSH1 0x40 PUSH0 KECCAK256 ADD SLOAD PUSH1 0x40 MLOAD SWAP1 DUP2 MSTORE RETURN JUMPDEST CALLVALUE PUSH2 0x1D8 JUMPI PUSH0 CALLDATASIZE PUSH1 0x3 NOT ADD SLT PUSH2 0x1D8 JUMPI PUSH1 0x20 PUSH1 0xE SLOAD PUSH1 0x40 MLOAD SWAP1 DUP2 MSTORE RETURN JUMPDEST CALLVALUE PUSH2 0x1D8 JUMPI PUSH1 0x20 DUP1 PUSH1 0x3 NOT CALLDATASIZE ADD SLT PUSH2 0x1D8 JUMPI PUSH1 0x4 CALLDATALOAD PUSH0 DUP2 DUP2 MSTORE PUSH1 0x6 DUP4 MSTORE PUSH1 0x40 SWAP1 KECCAK256 SLOAD PUSH1 0x1 PUSH1 0x1 PUSH1 0xA0 SHL SUB AND CALLER SUB PUSH2 0x411 JUMPI DUP1 PUSH0 MSTORE PUSH1 0x6 DUP3 MSTORE PUSH1 0x1 PUSH1 0xFF PUSH1 0xA PUSH1 0x40 PUSH0 KECCAK256 ADD SLOAD AND ISZERO ISZERO SUB PUSH2 0x3CC JUMPI DUP1 PUSH0 MSTORE PUSH1 0x6 DUP3 MSTORE PUSH1 0x4 PUSH1 0x40 PUSH0 KECCAK256 ADD SLOAD SWAP2 PUSH1 0x7 SLOAD SWAP1 PUSH1 0x1 DUP3 GT ISZERO PUSH2 0x388 JUMPI PUSH0 NOT DUP3 ADD SWAP2 DUP3 GT PUSH2 0x374 JUMPI DUP4 DUP3 PUSH1 0x6 SWAP4 PUSH0 SWAP7 SUB PUSH2 0x2DD JUMPI JUMPDEST POP POP DUP3 DUP5 MSTORE MSTORE DUP2 PUSH1 0x4 PUSH1 0x40 DUP3 KECCAK256 PUSH1 0xA DUP2 ADD PUSH1 0xFF NOT DUP2 SLOAD AND SWAP1 SSTORE ADD SSTORE PUSH2 0x2CA PUSH2 0x2ADB JUMP JUMPDEST PUSH0 DUP1 MLOAD PUSH1 0x20 PUSH2 0x2C35 DUP4 CODECOPY DUP2 MLOAD SWAP2 MSTORE DUP3 DUP1 LOG3 STOP JUMPDEST PUSH32 0xF041F52DB3FD2F56A979D9DD319AA6A6E399C198410349CF154EB4B4568D7DAA SWAP2 PUSH2 0x335 PUSH2 0x30D PUSH1 0x40 SWAP4 PUSH2 0x249C JUMP JUMPDEST SWAP1 SLOAD PUSH2 0x318 DUP5 PUSH2 0x249C JUMP JUMPDEST SWAP2 SWAP1 SWAP3 PUSH1 0x3 SHL SHR SWAP1 DUP3 SLOAD SWAP1 PUSH1 0x3 SHL SWAP2 DUP3 SHL SWAP2 PUSH0 NOT SWAP1 SHL NOT AND OR SWAP1 SSTORE JUMP JUMPDEST PUSH2 0x33E DUP2 PUSH2 0x249C JUMP JUMPDEST SWAP1 SLOAD SWAP1 PUSH1 0x3 SHL SHR DUP8 MSTORE DUP5 DUP5 MSTORE DUP1 PUSH1 0x4 DUP4 DUP10 KECCAK256 ADD SSTORE PUSH2 0x35B DUP2 PUSH2 0x249C JUMP JUMPDEST SWAP1 SLOAD SWAP1 PUSH1 0x3 SHL SHR SWAP1 DUP3 MLOAD SWAP2 DUP3 MSTORE DUP5 DUP3 ADD MSTORE LOG1 DUP5 DUP1 PUSH2 0x2A7 JUMP JUMPDEST PUSH4 0x4E487B71 PUSH1 0xE0 SHL PUSH0 MSTORE PUSH1 0x11 PUSH1 0x4 MSTORE PUSH1 0x24 PUSH0 REVERT JUMPDEST PUSH1 0x64 SWAP1 PUSH1 0x40 MLOAD SWAP1 PUSH3 0x461BCD PUSH1 0xE5 SHL DUP3 MSTORE PUSH1 0x4 DUP3 ADD MSTORE PUSH1 0x1D PUSH1 0x24 DUP3 ADD MSTORE PUSH32 0x546865726520617265206E6F206163746976652050726F706F73616C73000000 PUSH1 0x44 DUP3 ADD MSTORE REVERT JUMPDEST PUSH1 0x40 MLOAD PUSH3 0x461BCD PUSH1 0xE5 SHL DUP2 MSTORE PUSH1 0x4 DUP2 ADD DUP4 SWAP1 MSTORE PUSH1 0x1B PUSH1 0x24 DUP3 ADD MSTORE PUSH32 0x546869732070726F706F73616C206973206E6F74206163746976650000000000 PUSH1 0x44 DUP3 ADD MSTORE PUSH1 0x64 SWAP1 REVERT JUMPDEST PUSH1 0x40 MLOAD PUSH3 0x461BCD PUSH1 0xE5 SHL DUP2 MSTORE PUSH1 0x4 DUP2 ADD DUP4 SWAP1 MSTORE PUSH1 0x19 PUSH1 0x24 DUP3 ADD MSTORE PUSH25 0x5573657220646964206E6F742070726F706F73652074686973 PUSH1 0x38 SHL PUSH1 0x44 DUP3 ADD MSTORE PUSH1 0x64 SWAP1 REVERT JUMPDEST CALLVALUE PUSH2 0x1D8 JUMPI PUSH1 0x20 CALLDATASIZE PUSH1 0x3 NOT ADD SLT PUSH2 0x1D8 JUMPI PUSH1 0x4 CALLDATALOAD PUSH1 0x1 PUSH1 0x1 PUSH1 0x40 SHL SUB DUP2 GT PUSH2 0x1D8 JUMPI PUSH2 0x484 PUSH1 0x20 SWAP2 CALLDATASIZE SWAP1 PUSH1 0x4 ADD PUSH2 0x23D3 JUMP JUMPDEST PUSH1 0x5 PUSH2 0x4D2 DUP4 PUSH1 0x40 MLOAD SWAP4 DUP1 MLOAD SWAP1 PUSH2 0x4C1 DUP4 DUP3 ADD SWAP3 PUSH2 0x4A3 DUP2 DUP10 DUP7 PUSH2 0x2372 JUMP JUMPDEST DUP8 ADD PUSH0 DUP2 MSTORE DUP8 DUP6 PUSH1 0x1 DUP1 PUSH1 0xA0 SHL SUB SWAP10 DUP11 SWAP4 SUB ADD SWAP1 KECCAK256 SLOAD AND ISZERO ISZERO PUSH2 0x2B5E JUMP JUMPDEST PUSH1 0x40 MLOAD SWAP4 DUP5 SWAP3 DUP4 SWAP3 MLOAD SWAP3 DUP4 SWAP2 PUSH2 0x2372 JUMP JUMPDEST DUP2 ADD PUSH0 DUP2 MSTORE SUB ADD SWAP1 KECCAK256 ADD SLOAD AND PUSH1 0x40 MLOAD SWAP1 DUP2 MSTORE RETURN JUMPDEST CALLVALUE PUSH2 0x1D8 JUMPI PUSH1 0x40 CALLDATASIZE PUSH1 0x3 NOT ADD SLT PUSH2 0x1D8 JUMPI PUSH1 0x24 DUP1 CALLDATALOAD DUP1 ISZERO ISZERO SWAP2 PUSH1 0x4 CALLDATALOAD SWAP1 DUP4 DUP4 SUB PUSH2 0x1D8 JUMPI PUSH1 0x5 SLOAD DUP3 LT ISZERO PUSH2 0x8F4 JUMPI DUP2 PUSH0 MSTORE PUSH1 0x20 SWAP1 PUSH1 0x6 DUP3 MSTORE PUSH1 0x40 PUSH0 KECCAK256 SWAP1 PUSH1 0x1 SWAP2 DUP3 PUSH1 0xFF PUSH1 0xA DUP4 ADD SLOAD AND ISZERO ISZERO SUB PUSH2 0x8B0 JUMPI PUSH1 0x2 DUP2 ADD SLOAD SWAP2 DUP4 DUP3 ADD SWAP3 PUSH2 0x556 PUSH1 0x7 PUSH2 0x54E DUP7 PUSH2 0x2999 JUMP JUMPDEST ADD SLOAD DUP3 PUSH2 0x2A27 JUMP JUMPDEST TIMESTAMP LT ISZERO SWAP1 DUP2 PUSH2 0x880 JUMPI JUMPDEST POP ISZERO PUSH2 0x844 JUMPI PUSH1 0xD SLOAD PUSH1 0x40 MLOAD PUSH4 0x5848E2A3 PUSH1 0xE1 SHL DUP2 MSTORE PUSH1 0x1 PUSH1 0x1 PUSH1 0xA0 SHL SUB SWAP1 SWAP2 AND SWAP4 SWAP1 DUP7 DUP2 DUP1 PUSH2 0x594 DUP6 CALLER PUSH1 0x4 DUP5 ADD PUSH2 0x2A34 JUMP JUMPDEST SUB DUP2 DUP9 GAS STATICCALL DUP1 ISZERO PUSH2 0x77A JUMPI DUP7 SWAP2 PUSH0 SWAP2 PUSH2 0x817 JUMPI JUMPDEST POP ISZERO ISZERO SUB PUSH2 0x7C3 JUMPI PUSH1 0x9 DUP4 ADD SWAP4 CALLER PUSH0 MSTORE DUP5 DUP8 MSTORE PUSH1 0xFF PUSH1 0x40 PUSH0 KECCAK256 SLOAD AND PUSH2 0x785 JUMPI DUP7 PUSH1 0x40 MLOAD DUP1 SWAP3 PUSH4 0x2B5DF59 PUSH1 0xE0 SHL DUP3 MSTORE DUP2 DUP1 PUSH2 0x5E7 DUP8 CALLER PUSH1 0x4 DUP5 ADD PUSH2 0x2A34 JUMP JUMPDEST SUB SWAP2 GAS STATICCALL SWAP1 DUP2 ISZERO PUSH2 0x77A JUMPI PUSH0 SWAP2 PUSH2 0x74D JUMPI JUMPDEST POP PUSH1 0x2 PUSH2 0x605 DUP4 PUSH2 0x2999 JUMP JUMPDEST ADD SLOAD DUP2 LT PUSH2 0x709 JUMPI PUSH1 0x3 PUSH2 0x618 DUP4 PUSH2 0x2999 JUMP JUMPDEST ADD SLOAD DUP2 GT ISZERO PUSH2 0x701 JUMPI POP PUSH2 0x62D PUSH1 0x3 SWAP2 PUSH2 0x2999 JUMP JUMPDEST ADD SLOAD SWAP7 JUMPDEST ISZERO PUSH2 0x6B2 JUMPI PUSH1 0x5 DUP3 ADD DUP1 SLOAD SWAP2 DUP6 DUP4 ADD DUP1 SWAP4 GT PUSH2 0x69F JUMPI POP SWAP2 PUSH1 0x7 SWAP2 PUSH32 0x7C2DE587C00D75474A0C6C6FA96FD3B45DC974CD4E8A75F712BB84C950DCE1B5 SWAP7 SWAP6 SWAP5 SWAP4 SSTORE ADD PUSH2 0x67E DUP8 DUP3 SLOAD PUSH2 0x2A27 JUMP JUMPDEST SWAP1 SSTORE JUMPDEST CALLER PUSH0 MSTORE DUP3 MSTORE PUSH1 0x40 PUSH0 KECCAK256 SWAP1 PUSH1 0xFF NOT DUP3 SLOAD AND OR SWAP1 SSTORE PUSH1 0x40 MLOAD SWAP4 DUP5 MSTORE CALLER SWAP4 LOG4 STOP JUMPDEST PUSH4 0x4E487B71 PUSH1 0xE0 SHL PUSH0 SWAP1 DUP2 MSTORE PUSH1 0x11 PUSH1 0x4 MSTORE REVERT JUMPDEST PUSH1 0x6 DUP3 ADD DUP1 SLOAD SWAP2 DUP6 DUP4 ADD DUP1 SWAP4 GT PUSH2 0x69F JUMPI POP SWAP2 PUSH1 0x8 SWAP2 PUSH32 0x7C2DE587C00D75474A0C6C6FA96FD3B45DC974CD4E8A75F712BB84C950DCE1B5 SWAP7 SWAP6 SWAP5 SWAP4 SSTORE ADD PUSH2 0x6FA DUP8 DUP3 SLOAD PUSH2 0x2A27 JUMP JUMPDEST SWAP1 SSTORE PUSH2 0x681 JUMP JUMPDEST SWAP1 POP SWAP7 PUSH2 0x631 JUMP JUMPDEST PUSH1 0x40 MLOAD PUSH3 0x461BCD PUSH1 0xE5 SHL DUP2 MSTORE PUSH1 0x4 DUP2 ADD DUP9 SWAP1 MSTORE PUSH1 0x1B DUP2 DUP6 ADD MSTORE PUSH32 0x496E73756666696369656E7420637265647320746F20766F74652E0000000000 PUSH1 0x44 DUP3 ADD MSTORE PUSH1 0x64 SWAP1 REVERT JUMPDEST SWAP1 POP DUP7 DUP2 DUP2 RETURNDATASIZE DUP4 GT PUSH2 0x773 JUMPI JUMPDEST PUSH2 0x764 DUP2 DUP4 PUSH2 0x22B0 JUMP JUMPDEST DUP2 ADD SUB SLT PUSH2 0x1D8 JUMPI MLOAD DUP11 PUSH2 0x5F9 JUMP JUMPDEST POP RETURNDATASIZE PUSH2 0x75A JUMP JUMPDEST PUSH1 0x40 MLOAD RETURNDATASIZE PUSH0 DUP3 RETURNDATACOPY RETURNDATASIZE SWAP1 REVERT JUMPDEST PUSH1 0x40 MLOAD PUSH3 0x461BCD PUSH1 0xE5 SHL DUP2 MSTORE PUSH1 0x4 DUP2 ADD DUP9 SWAP1 MSTORE PUSH1 0x17 DUP2 DUP6 ADD MSTORE PUSH23 0x2CB7BA903430BB329030B63932B0B23C903B37BA32B217 PUSH1 0x49 SHL PUSH1 0x44 DUP3 ADD MSTORE PUSH1 0x64 SWAP1 REVERT JUMPDEST PUSH1 0x40 MLOAD PUSH3 0x461BCD PUSH1 0xE5 SHL DUP2 MSTORE PUSH1 0x4 DUP2 ADD DUP8 SWAP1 MSTORE PUSH1 0x27 DUP2 DUP5 ADD MSTORE PUSH32 0x596F7520617265206E6F742061206D656D626572206F66207468697320636F6D PUSH1 0x44 DUP3 ADD MSTORE PUSH7 0x36BAB734BA3C97 PUSH1 0xC9 SHL PUSH1 0x64 DUP3 ADD MSTORE PUSH1 0x84 SWAP1 REVERT JUMPDEST PUSH2 0x837 SWAP2 POP DUP9 RETURNDATASIZE DUP11 GT PUSH2 0x83D JUMPI JUMPDEST PUSH2 0x82F DUP2 DUP4 PUSH2 0x22B0 JUMP JUMPDEST DUP2 ADD SWAP1 PUSH2 0x2790 JUMP JUMPDEST DUP12 PUSH2 0x5A8 JUMP JUMPDEST POP RETURNDATASIZE PUSH2 0x825 JUMP JUMPDEST DUP5 PUSH1 0x16 PUSH1 0x64 SWAP3 PUSH1 0x40 MLOAD SWAP3 PUSH3 0x461BCD PUSH1 0xE5 SHL DUP5 MSTORE PUSH1 0x4 DUP5 ADD MSTORE DUP3 ADD MSTORE PUSH22 0x4E6F742041637469766520566F74696E672054696D65 PUSH1 0x50 SHL PUSH1 0x44 DUP3 ADD MSTORE REVERT JUMPDEST PUSH2 0x8A7 SWAP2 POP PUSH2 0x89C SWAP1 PUSH1 0x7 PUSH2 0x894 DUP8 PUSH2 0x2999 JUMP JUMPDEST ADD SLOAD SWAP1 PUSH2 0x2A27 JUMP JUMPDEST PUSH1 0x6 PUSH2 0x894 DUP7 PUSH2 0x2999 JUMP JUMPDEST TIMESTAMP GT ISZERO DUP10 PUSH2 0x560 JUMP JUMPDEST PUSH1 0x40 MLOAD PUSH3 0x461BCD PUSH1 0xE5 SHL DUP2 MSTORE PUSH1 0x4 DUP2 ADD DUP6 SWAP1 MSTORE PUSH1 0x1C DUP2 DUP5 ADD MSTORE PUSH32 0x50726F706F73616C206973206E6F206C6F6E6765722041637469766500000000 PUSH1 0x44 DUP3 ADD MSTORE PUSH1 0x64 SWAP1 REVERT JUMPDEST PUSH1 0x64 SWAP1 PUSH1 0x18 PUSH1 0x40 MLOAD SWAP2 PUSH3 0x461BCD PUSH1 0xE5 SHL DUP4 MSTORE PUSH1 0x20 PUSH1 0x4 DUP5 ADD MSTORE DUP3 ADD MSTORE PUSH24 0x283937B837B9B0B6103237B2B9903737BA1032BC34B9BA17 PUSH1 0x41 SHL PUSH1 0x44 DUP3 ADD MSTORE REVERT JUMPDEST CALLVALUE PUSH2 0x1D8 JUMPI PUSH0 CALLDATASIZE PUSH1 0x3 NOT ADD SLT PUSH2 0x1D8 JUMPI PUSH0 DUP1 PUSH1 0x7 DUP1 SLOAD SWAP1 DUP2 PUSH2 0x9AF JUMPI JUMPDEST POP POP PUSH1 0x40 MLOAD SWAP1 PUSH1 0x20 DUP3 ADD MSTORE PUSH1 0x20 DUP2 MSTORE PUSH1 0x40 DUP2 ADD SWAP2 DUP2 DUP4 LT PUSH1 0x1 PUSH1 0x1 PUSH1 0x40 SHL SUB DUP5 GT OR PUSH2 0x99B JUMPI DUP3 PUSH1 0x40 MSTORE ISZERO ISZERO DUP3 MSTORE PUSH1 0x40 PUSH1 0x60 DUP3 ADD MSTORE PUSH1 0x3F NOT SWAP1 PUSH2 0x996 PUSH1 0x80 DUP3 ADD DUP3 PUSH2 0x2393 JUMP JUMPDEST SUB ADD SWAP1 RETURN JUMPDEST PUSH4 0x4E487B71 PUSH1 0xE0 SHL PUSH0 MSTORE PUSH1 0x41 PUSH1 0x4 MSTORE PUSH1 0x24 PUSH0 REVERT JUMPDEST PUSH0 SWAP1 PUSH1 0x1 JUMPDEST DUP4 DUP2 LT PUSH2 0x9C2 JUMPI POP POP PUSH2 0x950 JUMP JUMPDEST PUSH2 0x9CB DUP2 PUSH2 0x249C JUMP JUMPDEST SWAP1 SLOAD PUSH1 0x3 SWAP2 DUP3 SHL SHR PUSH0 MSTORE PUSH2 0xA32 PUSH1 0x6 PUSH1 0x20 SWAP1 DUP1 DUP3 MSTORE DUP1 PUSH2 0xA10 PUSH1 0x2 PUSH1 0x40 PUSH0 KECCAK256 ADD SLOAD PUSH2 0x9F5 DUP9 PUSH2 0x249C JUMP JUMPDEST SWAP1 SLOAD SWAP1 DUP9 SHL SHR PUSH0 MSTORE DUP3 DUP6 MSTORE DUP9 PUSH2 0x894 PUSH1 0x1 PUSH1 0x40 PUSH0 KECCAK256 ADD PUSH2 0x2999 JUMP JUMPDEST SWAP3 PUSH2 0xA1A DUP8 PUSH2 0x249C JUMP JUMPDEST SWAP1 SLOAD SWAP1 DUP8 SHL SHR PUSH0 MSTORE MSTORE PUSH2 0x894 PUSH1 0x1 PUSH1 0x40 PUSH0 KECCAK256 ADD PUSH2 0x2999 JUMP JUMPDEST TIMESTAMP DUP2 GT ISZERO DUP1 PUSH2 0xA74 JUMPI JUMPDEST PUSH2 0xA51 JUMPI JUMPDEST POP POP PUSH2 0xA4C SWAP1 PUSH2 0x298B JUMP JUMPDEST PUSH2 0x9B4 JUMP JUMPDEST SWAP6 POP SWAP6 POP SWAP2 POP PUSH2 0xA4C PUSH1 0x1 SWAP6 PUSH2 0xA66 DUP5 PUSH2 0x249C JUMP JUMPDEST SWAP1 SLOAD SWAP2 SHL SHR SWAP5 SWAP3 SWAP1 DUP8 PUSH2 0xA41 JUMP JUMPDEST POP DUP5 DUP2 GT ISZERO DUP1 PUSH2 0xA3C JUMPI POP DUP5 ISZERO PUSH2 0xA3C JUMP JUMPDEST CALLVALUE PUSH2 0x1D8 JUMPI PUSH1 0x40 CALLDATASIZE PUSH1 0x3 NOT ADD SLT PUSH2 0x1D8 JUMPI PUSH1 0x4 CALLDATALOAD PUSH1 0x1 PUSH1 0x1 PUSH1 0x40 SHL SUB DUP2 GT PUSH2 0x1D8 JUMPI PUSH2 0xAB6 SWAP1 CALLDATASIZE SWAP1 PUSH1 0x4 ADD PUSH2 0x23D3 JUMP JUMPDEST PUSH2 0xAD2 PUSH1 0x20 PUSH1 0x24 CALLDATALOAD SWAP3 DUP2 PUSH1 0x40 MLOAD SWAP4 DUP3 DUP6 DUP1 SWAP5 MLOAD SWAP4 DUP5 SWAP3 ADD PUSH2 0x2372 JUMP JUMPDEST DUP2 ADD PUSH1 0x8 DUP2 MSTORE SUB ADD SWAP1 KECCAK256 DUP1 SLOAD DUP3 LT ISZERO PUSH2 0x1D8 JUMPI PUSH1 0x20 SWAP2 PUSH2 0xAF1 SWAP2 PUSH2 0x24B4 JUMP JUMPDEST SWAP1 SLOAD PUSH1 0x40 MLOAD SWAP2 PUSH1 0x3 SHL SHR DUP2 MSTORE RETURN JUMPDEST CALLVALUE PUSH2 0x1D8 JUMPI PUSH1 0x20 CALLDATASIZE PUSH1 0x3 NOT ADD SLT PUSH2 0x1D8 JUMPI PUSH1 0x4 CALLDATALOAD PUSH0 MSTORE PUSH1 0x6 PUSH1 0x20 MSTORE PUSH1 0x20 PUSH1 0x4 PUSH1 0x40 PUSH0 KECCAK256 ADD SLOAD PUSH1 0x40 MLOAD SWAP1 DUP2 MSTORE RETURN JUMPDEST CALLVALUE PUSH2 0x1D8 JUMPI PUSH1 0x20 CALLDATASIZE PUSH1 0x3 NOT ADD SLT PUSH2 0x1D8 JUMPI PUSH1 0x4 CALLDATALOAD PUSH1 0x1 PUSH1 0x1 PUSH1 0x40 SHL SUB DUP2 GT PUSH2 0x1D8 JUMPI PUSH2 0xB5E PUSH1 0x20 SWAP2 CALLDATASIZE SWAP1 PUSH1 0x4 ADD PUSH2 0x23D3 JUMP JUMPDEST PUSH2 0xB99 DUP3 PUSH1 0x40 MLOAD SWAP3 DUP1 MLOAD SWAP1 PUSH2 0x4C1 DUP4 DUP3 ADD SWAP3 PUSH2 0xB7B DUP2 DUP9 DUP7 PUSH2 0x2372 JUMP JUMPDEST DUP7 ADD PUSH0 DUP2 MSTORE DUP7 DUP6 PUSH1 0x1 DUP1 PUSH1 0xA0 SHL SUB SWAP9 DUP10 SWAP4 SUB ADD SWAP1 KECCAK256 SLOAD AND ISZERO ISZERO PUSH2 0x2B5E JUMP JUMPDEST DUP2 ADD PUSH0 DUP2 MSTORE SUB ADD SWAP1 KECCAK256 SLOAD AND PUSH1 0x40 MLOAD SWAP1 DUP2 MSTORE RETURN JUMPDEST PUSH2 0xBB5 CALLDATASIZE PUSH2 0x242F JUMP JUMPDEST PUSH1 0x40 MLOAD DUP3 MLOAD SWAP1 PUSH1 0x20 SWAP4 PUSH2 0xBEE DUP6 DUP3 ADD SWAP4 PUSH2 0xBD0 DUP2 DUP6 DUP8 PUSH2 0x2372 JUMP JUMPDEST DUP4 ADD PUSH0 DUP2 MSTORE DUP4 DUP8 PUSH1 0x1 DUP1 PUSH1 0xA0 SHL SUB SWAP6 DUP7 SWAP4 SUB ADD SWAP1 KECCAK256 SLOAD AND ISZERO ISZERO PUSH2 0x26DC JUMP JUMPDEST ORIGIN PUSH0 MSTORE PUSH1 0x9 DUP6 MSTORE PUSH2 0xC06 PUSH1 0xFF PUSH1 0x40 PUSH0 KECCAK256 SLOAD AND ISZERO PUSH2 0x2722 JUMP JUMPDEST DUP2 PUSH1 0xD SLOAD AND PUSH1 0x40 MLOAD PUSH4 0x5848E2A3 PUSH1 0xE1 SHL DUP2 MSTORE DUP7 DUP2 DUP1 PUSH2 0xC29 DUP7 ORIGIN PUSH1 0x4 DUP5 ADD PUSH2 0x27A8 JUMP JUMPDEST SUB DUP2 DUP6 GAS STATICCALL SWAP1 DUP2 ISZERO PUSH2 0x77A JUMPI PUSH2 0xC4C SWAP2 PUSH1 0x1 SWAP2 PUSH0 SWAP2 PUSH2 0xE49 JUMPI JUMPDEST POP ISZERO ISZERO EQ PUSH2 0x27CD JUMP JUMPDEST DUP6 PUSH1 0x40 MLOAD DUP1 SWAP3 PUSH4 0x2B5DF59 PUSH1 0xE0 SHL DUP3 MSTORE DUP2 DUP1 PUSH2 0xC6C DUP8 ORIGIN PUSH1 0x4 DUP5 ADD PUSH2 0x27A8 JUMP JUMPDEST SUB SWAP2 GAS STATICCALL SWAP1 DUP2 ISZERO PUSH2 0x77A JUMPI PUSH0 SWAP2 PUSH2 0xE1C JUMPI JUMPDEST POP PUSH1 0x40 MLOAD DUP7 DUP2 DUP5 MLOAD PUSH2 0xC91 DUP2 DUP4 DUP11 PUSH2 0x2372 JUMP JUMPDEST DUP2 ADD PUSH0 DUP2 MSTORE SUB ADD SWAP1 KECCAK256 PUSH1 0x1 ADD SLOAD GT ISZERO PUSH2 0xCA9 SWAP1 PUSH2 0x282A JUMP JUMPDEST PUSH1 0xB SLOAD CALLVALUE EQ PUSH2 0xCB7 SWAP1 PUSH2 0x2876 JUMP JUMPDEST PUSH1 0x5 DUP1 SLOAD PUSH0 SWAP1 DUP2 MSTORE PUSH1 0x6 DUP8 MSTORE PUSH1 0x40 SWAP1 KECCAK256 DUP1 SLOAD PUSH1 0x1 PUSH1 0x1 PUSH1 0xA0 SHL SUB NOT SWAP1 DUP2 AND CALLER OR DUP3 SSTORE SWAP2 SWAP6 SWAP2 SWAP3 SWAP1 PUSH2 0xCEB DUP3 PUSH1 0x1 DUP4 ADD PUSH2 0x25B4 JUMP JUMPDEST TIMESTAMP PUSH1 0x2 DUP3 ADD SSTORE PUSH1 0x7 SLOAD PUSH1 0x4 DUP3 ADD SSTORE PUSH1 0x3 DUP2 ADD PUSH1 0x2 SWAP1 SSTORE PUSH1 0xA ADD SWAP5 PUSH1 0xFF NOT SWAP6 DUP7 DUP2 SLOAD AND PUSH1 0x1 OR SWAP1 SSTORE DUP8 DUP8 SLOAD SWAP3 PUSH2 0xD1F DUP2 PUSH2 0x26BC JUMP JUMPDEST PUSH1 0x40 MLOAD TIMESTAMP DUP2 MSTORE DUP4 DUP2 ADD PUSH1 0x2 SWAP1 MSTORE DUP6 CALLER SWAP2 PUSH1 0x40 PUSH32 0x6C98A8C940418B35614F0CD02412D5C9606FAFF474CBB6CDD6640BA5D1A9F06B SWAP2 LOG4 PUSH1 0x40 MLOAD DUP1 SWAP4 DUP2 SWAP3 MLOAD DUP1 SWAP3 PUSH2 0xD67 SWAP3 PUSH2 0x2372 JUMP JUMPDEST DUP2 ADD PUSH1 0x8 DUP2 MSTORE SUB ADD SWAP1 KECCAK256 SWAP1 PUSH2 0xD7B SWAP2 PUSH2 0x2968 JUMP JUMPDEST DUP5 SLOAD PUSH0 MSTORE PUSH1 0x4 DUP7 MSTORE DUP3 PUSH1 0x40 PUSH0 KECCAK256 SWAP2 AND DUP1 SWAP3 DUP3 SLOAD AND OR SWAP1 SSTORE ORIGIN SWAP1 DUP5 SLOAD SWAP1 PUSH32 0x6A319039CAA9A0B231FC1A3D10D617C656E322EBAC0D326E9D0C95CBDE9248A4 PUSH0 DUP1 LOG4 CALLVALUE SWAP1 PUSH1 0xC SLOAD AND GAS PUSH0 DUP1 SWAP4 DUP2 SWAP4 DUP3 SWAP4 CALL PUSH2 0xDD2 PUSH2 0x28BB JUMP JUMPDEST POP PUSH2 0xDDC SWAP1 PUSH2 0x28EA JUMP JUMPDEST ORIGIN PUSH0 MSTORE PUSH1 0x9 DUP4 MSTORE PUSH1 0x40 PUSH0 KECCAK256 SWAP1 DUP2 SLOAD AND PUSH1 0x1 OR SWAP1 SSTORE DUP1 SLOAD PUSH2 0xDFB SWAP1 PUSH2 0x292D JUMP JUMPDEST DUP1 SLOAD PUSH2 0xE06 SWAP1 PUSH2 0x298B JUMP JUMPDEST DUP1 SWAP2 SSTORE PUSH0 NOT DUP2 ADD SWAP1 DUP2 GT PUSH2 0x374 JUMPI PUSH1 0x40 MLOAD SWAP1 DUP2 MSTORE RETURN JUMPDEST SWAP1 POP DUP6 DUP2 DUP2 RETURNDATASIZE DUP4 GT PUSH2 0xE42 JUMPI JUMPDEST PUSH2 0xE33 DUP2 DUP4 PUSH2 0x22B0 JUMP JUMPDEST DUP2 ADD SUB SLT PUSH2 0x1D8 JUMPI MLOAD DUP7 PUSH2 0xC7E JUMP JUMPDEST POP RETURNDATASIZE PUSH2 0xE29 JUMP JUMPDEST PUSH2 0xE60 SWAP2 POP DUP10 RETURNDATASIZE DUP12 GT PUSH2 0x83D JUMPI PUSH2 0x82F DUP2 DUP4 PUSH2 0x22B0 JUMP JUMPDEST DUP10 PUSH2 0xC43 JUMP JUMPDEST CALLVALUE PUSH2 0x1D8 JUMPI PUSH1 0x20 DUP1 PUSH1 0x3 NOT CALLDATASIZE ADD SLT PUSH2 0x1D8 JUMPI PUSH1 0x4 CALLDATALOAD SWAP1 PUSH1 0x1 PUSH1 0x1 PUSH1 0x40 SHL SUB DUP3 GT PUSH2 0x1D8 JUMPI PUSH2 0xE9A PUSH1 0xE0 SWAP3 CALLDATASIZE SWAP1 PUSH1 0x4 ADD PUSH2 0x23D3 JUMP JUMPDEST SWAP1 PUSH1 0x40 MLOAD SWAP2 PUSH2 0xED3 DUP2 MLOAD SWAP4 DUP4 DUP4 ADD SWAP5 PUSH2 0xEB4 DUP2 DUP4 DUP9 PUSH2 0x2372 JUMP JUMPDEST PUSH0 SWAP1 DUP3 ADD SWAP1 DUP2 MSTORE DUP2 SWAP1 SUB DUP5 ADD SWAP1 KECCAK256 SLOAD PUSH1 0x1 PUSH1 0x1 PUSH1 0xA0 SHL SUB AND ISZERO ISZERO PUSH2 0x2B5E JUMP JUMPDEST PUSH1 0x1 PUSH1 0x40 MLOAD DUP4 DUP2 DUP5 MLOAD PUSH2 0xEE7 DUP2 DUP4 DUP11 PUSH2 0x2372 JUMP JUMPDEST DUP2 ADD PUSH0 DUP2 MSTORE SUB ADD SWAP1 KECCAK256 ADD SLOAD SWAP3 PUSH1 0x2 PUSH1 0x40 MLOAD DUP5 DUP2 DUP6 MLOAD PUSH2 0xF07 DUP2 DUP4 DUP9 PUSH2 0x2372 JUMP JUMPDEST DUP2 ADD PUSH0 DUP2 MSTORE SUB ADD SWAP1 KECCAK256 ADD SLOAD PUSH1 0x3 PUSH1 0x40 MLOAD DUP6 DUP2 DUP7 MLOAD PUSH2 0xF26 DUP2 DUP4 DUP10 PUSH2 0x2372 JUMP JUMPDEST DUP2 ADD PUSH0 DUP2 MSTORE SUB ADD SWAP1 KECCAK256 ADD SLOAD PUSH1 0x4 PUSH1 0x40 MLOAD DUP7 DUP2 DUP8 MLOAD PUSH2 0xF45 DUP2 DUP4 DUP11 PUSH2 0x2372 JUMP JUMPDEST DUP2 ADD PUSH0 DUP2 MSTORE SUB ADD SWAP1 KECCAK256 ADD SLOAD SWAP2 PUSH1 0xFF PUSH1 0x8 PUSH2 0xFAF DUP9 PUSH1 0x6 PUSH2 0xF72 DUP3 DUP11 DUP13 PUSH1 0x40 MLOAD SWAP4 DUP5 SWAP3 DUP4 SWAP3 MLOAD SWAP3 DUP4 SWAP2 PUSH2 0x2372 JUMP JUMPDEST DUP2 ADD PUSH0 DUP2 MSTORE SUB ADD SWAP1 KECCAK256 ADD SLOAD SWAP8 PUSH1 0x7 PUSH1 0x40 MLOAD DUP4 DUP2 DUP14 MLOAD PUSH2 0xF92 DUP2 DUP4 DUP9 PUSH2 0x2372 JUMP JUMPDEST DUP2 ADD PUSH0 DUP2 MSTORE SUB ADD SWAP1 KECCAK256 ADD SLOAD SWAP10 PUSH1 0x40 MLOAD SWAP4 DUP5 SWAP3 DUP4 SWAP3 MLOAD SWAP3 DUP4 SWAP2 PUSH2 0x2372 JUMP JUMPDEST DUP2 ADD PUSH0 DUP2 MSTORE SUB ADD SWAP1 KECCAK256 ADD SLOAD AND SWAP6 PUSH1 0x40 MLOAD SWAP8 DUP9 MSTORE DUP8 ADD MSTORE PUSH1 0x40 DUP7 ADD MSTORE PUSH1 0x60 DUP6 ADD MSTORE PUSH1 0x80 DUP5 ADD MSTORE PUSH1 0xA0 DUP4 ADD MSTORE ISZERO ISZERO PUSH1 0xC0 DUP3 ADD MSTORE RETURN JUMPDEST CALLVALUE PUSH2 0x1D8 JUMPI PUSH1 0x20 CALLDATASIZE PUSH1 0x3 NOT ADD SLT PUSH2 0x1D8 JUMPI PUSH2 0x1008 PUSH1 0x1 DUP1 PUSH1 0xA0 SHL SUB PUSH1 0xA SLOAD AND CALLER EQ PUSH2 0x2B19 JUMP JUMPDEST PUSH1 0x4 CALLDATALOAD PUSH1 0x3 SSTORE STOP JUMPDEST CALLVALUE PUSH2 0x1D8 JUMPI PUSH1 0x20 CALLDATASIZE PUSH1 0x3 NOT ADD SLT PUSH2 0x1D8 JUMPI PUSH1 0x4 CALLDATALOAD PUSH0 MSTORE PUSH1 0x4 PUSH1 0x20 MSTORE PUSH1 0x20 PUSH1 0x1 DUP1 PUSH1 0xA0 SHL SUB PUSH1 0x40 PUSH0 KECCAK256 SLOAD AND PUSH1 0x40 MLOAD SWAP1 DUP2 MSTORE RETURN JUMPDEST CALLVALUE PUSH2 0x1D8 JUMPI PUSH1 0x20 CALLDATASIZE PUSH1 0x3 NOT ADD SLT PUSH2 0x1D8 JUMPI PUSH2 0x1068 PUSH1 0x1 DUP1 PUSH1 0xA0 SHL SUB PUSH1 0xA SLOAD AND CALLER EQ PUSH2 0x2B19 JUMP JUMPDEST PUSH1 0x4 CALLDATALOAD PUSH1 0x5 SSTORE STOP JUMPDEST CALLVALUE PUSH2 0x1D8 JUMPI PUSH1 0x20 CALLDATASIZE PUSH1 0x3 NOT ADD SLT PUSH2 0x1D8 JUMPI PUSH1 0x4 CALLDATALOAD PUSH1 0x1 PUSH1 0x1 PUSH1 0xA0 SHL SUB DUP2 DUP2 AND SWAP2 DUP3 SWAP1 SUB PUSH2 0x1D8 JUMPI PUSH2 0x10A6 SWAP1 PUSH1 0xA SLOAD AND CALLER EQ PUSH2 0x2B19 JUMP JUMPDEST PUSH1 0xC DUP1 SLOAD PUSH1 0x1 PUSH1 0x1 PUSH1 0xA0 SHL SUB NOT AND SWAP2 SWAP1 SWAP2 OR SWAP1 SSTORE STOP JUMPDEST CALLVALUE PUSH2 0x1D8 JUMPI PUSH1 0x40 CALLDATASIZE PUSH1 0x3 NOT ADD SLT PUSH2 0x1D8 JUMPI PUSH1 0x4 CALLDATALOAD PUSH2 0x10D9 DUP2 PUSH2 0x2BBD JUMP JUMPDEST SWAP1 PUSH0 PUSH2 0x10E7 DUP3 PUSH1 0x24 CALLDATALOAD PUSH2 0x2BEF JUMP JUMPDEST SWAP1 PUSH2 0x10F2 DUP4 DUP4 PUSH2 0x2A27 JUMP JUMPDEST SWAP1 PUSH1 0x7 SLOAD SWAP3 DUP4 DUP4 GT PUSH2 0x115A JUMPI JUMPDEST SWAP1 JUMPDEST DUP3 DUP3 LT PUSH2 0x1127 JUMPI DUP6 PUSH2 0x1113 DUP7 DUP7 PUSH2 0x2C16 JUMP JUMPDEST SWAP1 PUSH2 0x1123 PUSH1 0x40 MLOAD SWAP3 DUP4 SWAP3 DUP4 PUSH2 0x2531 JUMP JUMPDEST SUB SWAP1 RETURN JUMPDEST PUSH2 0x114E PUSH2 0x1154 SWAP2 PUSH2 0x1137 DUP5 PUSH2 0x249C JUMP JUMPDEST SWAP1 SLOAD SWAP1 PUSH1 0x3 SHL SHR PUSH2 0x1148 DUP3 DUP11 PUSH2 0x2C02 JUMP JUMPDEST MSTORE PUSH2 0x298B JUMP JUMPDEST SWAP2 PUSH2 0x298B JUMP JUMPDEST SWAP1 PUSH2 0x1101 JUMP JUMPDEST DUP4 SWAP3 POP PUSH2 0x10FF JUMP JUMPDEST CALLVALUE PUSH2 0x1D8 JUMPI PUSH1 0x20 CALLDATASIZE PUSH1 0x3 NOT ADD SLT PUSH2 0x1D8 JUMPI PUSH1 0x4 CALLDATALOAD PUSH0 MSTORE PUSH1 0x2 PUSH1 0x20 MSTORE PUSH1 0x40 PUSH0 KECCAK256 DUP1 SLOAD PUSH2 0x1123 PUSH1 0x1 DUP4 ADD SLOAD SWAP3 PUSH1 0x2 DUP2 ADD SLOAD SWAP1 PUSH1 0x3 DUP2 ADD SLOAD PUSH1 0x1 DUP1 PUSH1 0xA0 SHL SUB PUSH1 0x4 DUP4 ADD SLOAD AND PUSH1 0x5 DUP4 ADD SLOAD SWAP2 PUSH1 0xFF PUSH1 0x7 PUSH1 0x6 DUP7 ADD SLOAD SWAP6 ADD SLOAD AND SWAP5 PUSH1 0x40 MLOAD SWAP9 DUP10 SWAP9 DUP10 PUSH2 0x2573 JUMP JUMPDEST CALLVALUE PUSH2 0x1D8 JUMPI PUSH1 0x20 CALLDATASIZE PUSH1 0x3 NOT ADD SLT PUSH2 0x1D8 JUMPI PUSH1 0x4 CALLDATALOAD PUSH1 0x1 PUSH1 0x1 PUSH1 0x40 SHL SUB DUP2 GT PUSH2 0x1D8 JUMPI PUSH2 0x11F6 PUSH1 0x20 SWAP2 CALLDATASIZE SWAP1 PUSH1 0x4 ADD PUSH2 0x23D3 JUMP JUMPDEST DUP2 PUSH2 0x120A PUSH1 0x40 MLOAD SWAP3 DUP4 DUP2 MLOAD SWAP4 DUP5 SWAP3 ADD PUSH2 0x2372 JUMP JUMPDEST PUSH0 SWAP1 DUP3 ADD SWAP1 DUP2 MSTORE DUP2 SWAP1 SUB DUP3 ADD SWAP1 KECCAK256 SLOAD PUSH1 0x40 MLOAD PUSH1 0x1 PUSH1 0x1 PUSH1 0xA0 SHL SUB SWAP1 SWAP2 AND ISZERO ISZERO DUP2 MSTORE RETURN JUMPDEST CALLVALUE PUSH2 0x1D8 JUMPI PUSH1 0x60 CALLDATASIZE PUSH1 0x3 NOT ADD SLT PUSH2 0x1D8 JUMPI PUSH1 0x4 CALLDATALOAD PUSH1 0x1 PUSH1 0x1 PUSH1 0x40 SHL SUB DUP2 GT PUSH2 0x1D8 JUMPI PUSH2 0x125D SWAP1 CALLDATASIZE SWAP1 PUSH1 0x4 ADD PUSH2 0x23D3 JUMP JUMPDEST PUSH1 0x24 CALLDATALOAD PUSH2 0x1269 DUP2 PUSH2 0x2BBD JUMP JUMPDEST SWAP2 PUSH0 PUSH2 0x1277 DUP4 PUSH1 0x44 CALLDATALOAD PUSH2 0x2BEF JUMP JUMPDEST SWAP2 PUSH2 0x1282 DUP5 DUP5 PUSH2 0x2A27 JUMP JUMPDEST SWAP1 PUSH1 0x40 MLOAD SWAP2 DUP2 MLOAD SWAP4 PUSH1 0x20 SWAP6 DUP7 DUP5 ADD SWAP6 PUSH2 0x129C DUP2 DUP8 DUP10 PUSH2 0x2372 JUMP JUMPDEST DUP6 ADD SWAP5 DUP8 DUP2 PUSH1 0x8 SWAP8 DUP9 DUP2 MSTORE SUB ADD SWAP1 KECCAK256 SLOAD DUP4 GT PUSH2 0x132E JUMPI JUMPDEST SWAP1 JUMPDEST DUP3 DUP3 LT PUSH2 0x12E8 JUMPI DUP9 PUSH2 0x1113 DUP10 PUSH2 0x12D9 DUP11 DUP11 DUP11 DUP11 PUSH1 0x40 MLOAD SWAP5 DUP6 SWAP4 DUP5 SWAP3 MLOAD SWAP3 DUP4 SWAP2 PUSH2 0x2372 JUMP JUMPDEST DUP3 ADD SWAP1 DUP2 MSTORE SUB ADD SWAP1 KECCAK256 SLOAD PUSH2 0x2C16 JUMP JUMPDEST PUSH2 0x114E PUSH2 0x1328 SWAP2 PUSH2 0x1317 DUP5 PUSH2 0x1309 DUP12 DUP12 PUSH1 0x40 MLOAD DUP1 SWAP4 DUP2 SWAP3 DUP14 MLOAD SWAP3 DUP4 SWAP2 PUSH2 0x2372 JUMP JUMPDEST DUP2 ADD DUP13 DUP2 MSTORE SUB ADD SWAP1 KECCAK256 PUSH2 0x24B4 JUMP JUMPDEST SWAP1 SLOAD SWAP1 PUSH1 0x3 SHL SHR PUSH2 0x1148 DUP3 DUP14 PUSH2 0x2C02 JUMP JUMPDEST SWAP1 PUSH2 0x12B5 JUMP JUMPDEST SWAP2 POP PUSH1 0x40 MLOAD DUP7 DUP2 DUP6 MLOAD PUSH2 0x1342 DUP2 DUP4 DUP12 PUSH2 0x2372 JUMP JUMPDEST DUP2 ADD DUP8 DUP2 MSTORE SUB ADD SWAP1 KECCAK256 SLOAD SWAP2 PUSH2 0x12B3 JUMP JUMPDEST CALLVALUE PUSH2 0x1D8 JUMPI PUSH1 0x20 CALLDATASIZE PUSH1 0x3 NOT ADD SLT PUSH2 0x1D8 JUMPI PUSH2 0x1378 PUSH1 0x1 DUP1 PUSH1 0xA0 SHL SUB PUSH1 0xA SLOAD AND CALLER EQ PUSH2 0x2B19 JUMP JUMPDEST PUSH1 0x4 CALLDATALOAD PUSH1 0xB SSTORE STOP JUMPDEST CALLVALUE PUSH2 0x1D8 JUMPI PUSH1 0x40 CALLDATASIZE PUSH1 0x3 NOT ADD SLT PUSH2 0x1D8 JUMPI PUSH1 0xA0 PUSH2 0x139B PUSH2 0x2419 JUMP JUMPDEST PUSH1 0x24 CALLDATALOAD PUSH0 MSTORE PUSH1 0x6 PUSH1 0x20 MSTORE PUSH1 0x40 PUSH0 KECCAK256 PUSH1 0x5 DUP2 ADD SLOAD SWAP2 PUSH1 0x7 DUP3 ADD SLOAD SWAP2 PUSH1 0x9 PUSH1 0x6 DUP3 ADD SLOAD SWAP2 PUSH1 0x8 DUP2 ADD SLOAD SWAP4 PUSH1 0x1 DUP1 DUP10 SHL SUB AND PUSH0 MSTORE ADD PUSH1 0x20 MSTORE PUSH1 0xFF PUSH1 0x40 PUSH0 KECCAK256 SLOAD AND SWAP3 PUSH1 0x40 MLOAD SWAP5 DUP6 MSTORE PUSH1 0x20 DUP6 ADD MSTORE PUSH1 0x40 DUP5 ADD MSTORE PUSH1 0x60 DUP4 ADD MSTORE ISZERO ISZERO PUSH1 0x80 DUP3 ADD MSTORE RETURN JUMPDEST CALLVALUE PUSH2 0x1D8 JUMPI PUSH2 0x1405 CALLDATASIZE PUSH2 0x24C9 JUMP JUMPDEST SWAP3 DUP3 SWAP5 SWAP2 SWAP3 SWAP9 SWAP8 SWAP6 SWAP9 SWAP2 PUSH1 0x40 MLOAD DUP10 MLOAD SWAP1 PUSH1 0x20 SWAP8 DUP9 DUP13 ADD SWAP3 PUSH2 0x1427 DUP2 DUP5 DUP7 PUSH2 0x2372 JUMP JUMPDEST DUP3 ADD PUSH0 DUP2 MSTORE DUP3 DUP11 PUSH1 0x1 DUP1 PUSH1 0xA0 SHL SUB SWAP5 DUP6 SWAP4 SUB ADD SWAP1 KECCAK256 SLOAD AND PUSH2 0x166B JUMPI SWAP2 DUP12 DUP10 SWAP3 DUP12 DUP16 DUP15 DUP13 SWAP8 PUSH1 0x3 SLOAD DUP1 SWAP2 GT PUSH2 0x1662 JUMPI JUMPDEST POP SWAP3 PUSH1 0x8 SWAP6 SWAP3 PUSH2 0x158C SWAP6 SWAP3 PUSH2 0x15A7 SWAP10 SWAP9 SWAP6 PUSH1 0x40 MLOAD DUP8 DUP2 DUP8 MLOAD PUSH2 0x1479 DUP2 DUP4 DUP13 PUSH2 0x2372 JUMP JUMPDEST DUP2 ADD PUSH0 DUP2 MSTORE SUB ADD SWAP1 KECCAK256 SWAP3 PUSH1 0x1 DUP1 PUSH1 0xA0 SHL SUB NOT SWAP4 CALLER DUP6 DUP3 SLOAD AND OR SWAP1 SSTORE PUSH1 0x1 PUSH1 0x40 MLOAD DUP10 DUP2 DUP1 PUSH2 0x14AA DUP13 DUP13 MLOAD SWAP3 DUP4 SWAP2 PUSH2 0x2372 JUMP JUMPDEST DUP2 ADD PUSH0 DUP2 MSTORE SUB ADD SWAP1 KECCAK256 ADD SSTORE PUSH1 0x2 PUSH1 0x40 MLOAD DUP9 DUP2 DUP9 MLOAD PUSH2 0x14C9 DUP2 DUP4 DUP14 PUSH2 0x2372 JUMP JUMPDEST DUP2 ADD PUSH0 DUP2 MSTORE SUB ADD SWAP1 KECCAK256 ADD SSTORE PUSH1 0x3 PUSH1 0x40 MLOAD DUP8 DUP2 DUP8 MLOAD PUSH2 0x14E8 DUP2 DUP4 DUP13 PUSH2 0x2372 JUMP JUMPDEST DUP2 ADD PUSH0 DUP2 MSTORE SUB ADD SWAP1 KECCAK256 ADD SSTORE DUP10 PUSH1 0x4 PUSH1 0x40 MLOAD DUP8 DUP2 DUP8 MLOAD PUSH2 0x1508 DUP2 DUP4 DUP13 PUSH2 0x2372 JUMP JUMPDEST DUP2 ADD PUSH0 DUP2 MSTORE SUB ADD SWAP1 KECCAK256 ADD SSTORE PUSH1 0x5 PUSH1 0x40 MLOAD DUP7 DUP2 DUP7 MLOAD PUSH2 0x1527 DUP2 DUP4 DUP12 PUSH2 0x2372 JUMP JUMPDEST DUP2 ADD PUSH0 DUP2 MSTORE SUB ADD SWAP1 KECCAK256 ADD SWAP2 DUP12 AND SWAP1 DUP3 SLOAD AND OR SWAP1 SSTORE DUP10 PUSH1 0x6 PUSH1 0x40 MLOAD DUP6 DUP2 DUP6 MLOAD PUSH2 0x1550 DUP2 DUP4 DUP11 PUSH2 0x2372 JUMP JUMPDEST DUP2 ADD PUSH0 DUP2 MSTORE SUB ADD SWAP1 KECCAK256 ADD SSTORE DUP11 PUSH1 0x7 PUSH1 0x40 MLOAD DUP6 DUP2 DUP6 MLOAD PUSH2 0x1570 DUP2 DUP4 DUP11 PUSH2 0x2372 JUMP JUMPDEST DUP2 ADD PUSH0 DUP2 MSTORE SUB ADD SWAP1 KECCAK256 ADD SSTORE PUSH1 0x40 MLOAD SWAP4 DUP5 SWAP3 DUP4 SWAP3 MLOAD SWAP3 DUP4 SWAP2 PUSH2 0x2372 JUMP JUMPDEST DUP2 ADD PUSH0 DUP2 MSTORE SUB ADD SWAP1 KECCAK256 ADD SWAP1 PUSH1 0xFF DUP1 NOT DUP4 SLOAD AND SWAP2 ISZERO ISZERO AND OR SWAP1 SSTORE JUMP JUMPDEST PUSH1 0x1 SLOAD PUSH1 0x1 PUSH1 0x40 SHL DUP2 LT ISZERO PUSH2 0x99B JUMPI DUP1 PUSH1 0x1 PUSH2 0x15C6 SWAP3 ADD PUSH1 0x1 SSTORE PUSH2 0x2470 JUMP JUMPDEST PUSH2 0x164F JUMPI DUP10 PUSH2 0x164A SWAP8 PUSH2 0x15FD PUSH32 0xA33E969841918D6C70510FF52AAF2F08256C371553465CDD2BEB001C23B0F504 SWAP13 PUSH2 0x163D SWAP5 PUSH2 0x25B4 JUMP JUMPDEST PUSH32 0x770333F2D96FAAE538A5391FA34D7F90A88DC8AF3AADCB1735C43839CB695566 PUSH1 0x40 PUSH2 0x1629 DUP5 PUSH2 0x26BC JUMP JUMPDEST SWAP3 DUP2 MLOAD SWAP1 CALLER DUP3 MSTORE DUP12 ISZERO ISZERO SWAP1 DUP3 ADD MSTORE LOG2 PUSH2 0x26BC JUMP JUMPDEST SWAP10 PUSH1 0x40 MLOAD SWAP9 DUP10 SWAP9 DUP10 PUSH2 0x2573 JUMP JUMPDEST SUB SWAP1 LOG2 STOP JUMPDEST PUSH4 0x4E487B71 PUSH1 0xE0 SHL PUSH0 MSTORE PUSH0 PUSH1 0x4 MSTORE PUSH1 0x24 PUSH0 REVERT JUMPDEST SWAP11 POP PUSH1 0x8 PUSH2 0x1456 JUMP JUMPDEST PUSH1 0x40 MLOAD PUSH3 0x461BCD PUSH1 0xE5 SHL DUP2 MSTORE PUSH1 0x4 DUP2 ADD DUP11 SWAP1 MSTORE PUSH1 0x19 PUSH1 0x24 DUP3 ADD MSTORE PUSH25 0x21B7B6B6BAB734BA3C9030B63932B0B23C9032BC34B9BA3997 PUSH1 0x39 SHL PUSH1 0x44 DUP3 ADD MSTORE PUSH1 0x64 SWAP1 REVERT JUMPDEST CALLVALUE PUSH2 0x1D8 JUMPI PUSH1 0x20 CALLDATASIZE PUSH1 0x3 NOT ADD SLT PUSH2 0x1D8 JUMPI PUSH1 0x4 CALLDATALOAD PUSH0 MSTORE PUSH1 0x6 PUSH1 0x20 MSTORE PUSH1 0x40 PUSH1 0xA DUP2 PUSH0 KECCAK256 ADD SLOAD PUSH1 0xFF DUP3 MLOAD SWAP2 DUP2 DUP2 AND ISZERO ISZERO DUP4 MSTORE PUSH1 0x8 SHR AND ISZERO ISZERO PUSH1 0x20 DUP3 ADD MSTORE RETURN JUMPDEST CALLVALUE PUSH2 0x1D8 JUMPI PUSH1 0x20 CALLDATASIZE PUSH1 0x3 NOT ADD SLT PUSH2 0x1D8 JUMPI PUSH2 0x170F PUSH1 0x1 DUP1 PUSH1 0xA0 SHL SUB PUSH1 0xA SLOAD AND CALLER EQ PUSH2 0x2B19 JUMP JUMPDEST PUSH1 0x4 CALLDATALOAD PUSH1 0xE SSTORE STOP JUMPDEST CALLVALUE PUSH2 0x1D8 JUMPI PUSH0 CALLDATASIZE PUSH1 0x3 NOT ADD SLT PUSH2 0x1D8 JUMPI PUSH1 0x20 PUSH1 0x7 SLOAD PUSH1 0x40 MLOAD SWAP1 DUP2 MSTORE RETURN JUMPDEST CALLVALUE PUSH2 0x1D8 JUMPI PUSH1 0x20 DUP1 PUSH1 0x3 NOT CALLDATASIZE ADD SLT PUSH2 0x1D8 JUMPI PUSH1 0x4 CALLDATALOAD PUSH1 0x1 PUSH1 0x1 PUSH1 0x40 SHL SUB DUP1 DUP3 GT PUSH2 0x1D8 JUMPI CALLDATASIZE PUSH1 0x23 DUP4 ADD SLT ISZERO PUSH2 0x1D8 JUMPI DUP2 PUSH1 0x4 ADD CALLDATALOAD SWAP1 DUP2 GT PUSH2 0x1D8 JUMPI DUP2 ADD CALLDATASIZE PUSH1 0x24 DUP3 ADD GT PUSH2 0x1D8 JUMPI DUP2 DUP4 SWAP2 SUB SLT PUSH2 0x1D8 JUMPI PUSH1 0x24 ADD CALLDATALOAD SWAP1 DUP2 PUSH0 MSTORE PUSH1 0x6 SWAP2 DUP3 DUP3 MSTORE PUSH1 0x40 PUSH0 KECCAK256 PUSH1 0x2 SWAP1 PUSH2 0x17C7 PUSH2 0x17B2 DUP4 DUP4 ADD SLOAD PUSH1 0x7 PUSH2 0x894 PUSH1 0x1 DUP1 SWAP7 ADD PUSH2 0x2999 JUMP JUMPDEST DUP5 PUSH0 MSTORE DUP7 DUP7 MSTORE DUP7 PUSH2 0x894 DUP5 PUSH1 0x40 PUSH0 KECCAK256 ADD PUSH2 0x2999 JUMP JUMPDEST DUP4 ISZERO ISZERO SWAP1 DUP2 PUSH2 0x1AC4 JUMPI JUMPDEST DUP2 PUSH2 0x1ABA JUMPI JUMPDEST POP PUSH2 0x17DE JUMPI STOP JUMPDEST DUP3 PUSH0 MSTORE DUP5 DUP5 MSTORE PUSH1 0x40 PUSH0 KECCAK256 SWAP2 PUSH1 0x5 DUP4 ADD SLOAD DUP7 DUP5 ADD SLOAD DUP1 DUP3 GT SWAP2 DUP3 PUSH2 0x1A8A JUMPI JUMPDEST DUP3 PUSH2 0x1A68 JUMPI JUMPDEST POP POP ISZERO PUSH2 0x19F4 JUMPI DUP2 PUSH1 0x3 DUP5 ADD SLOAD DUP3 DUP2 EQ PUSH0 EQ PUSH2 0x195A JUMPI POP POP POP DUP3 PUSH0 MSTORE PUSH1 0x4 DUP5 MSTORE DUP1 DUP4 PUSH1 0x1 DUP1 PUSH1 0xA0 SHL SUB PUSH1 0x40 PUSH0 KECCAK256 SLOAD AND PUSH32 0xCA5BE02C86F988B49C8F55FA1445E2252A5DE3AFAA608CC35DB41FEB6C22F83A PUSH0 DUP1 LOG4 JUMPDEST DUP3 PUSH0 DUP1 MLOAD PUSH1 0x20 PUSH2 0x2C35 DUP4 CODECOPY DUP2 MLOAD SWAP2 MSTORE PUSH0 DUP1 LOG3 DUP2 PUSH0 MSTORE DUP4 DUP4 MSTORE PUSH1 0xA PUSH1 0x40 PUSH0 KECCAK256 ADD PUSH2 0x100 PUSH2 0xFF00 NOT DUP3 SLOAD AND OR SWAP1 SSTORE JUMPDEST SLOAD PUSH1 0x1 PUSH1 0x1 PUSH1 0xA0 SHL SUB AND PUSH0 SWAP1 DUP2 MSTORE PUSH1 0x9 DUP4 MSTORE PUSH1 0x40 DUP1 DUP3 KECCAK256 DUP1 SLOAD PUSH1 0xFF NOT SWAP1 DUP2 AND SWAP1 SWAP2 SSTORE DUP4 DUP4 MSTORE DUP6 DUP6 MSTORE SWAP2 KECCAK256 PUSH1 0xA DUP2 ADD DUP1 SLOAD SWAP1 SWAP3 AND SWAP1 SWAP2 SSTORE PUSH1 0x4 ADD SLOAD PUSH1 0x7 SLOAD PUSH0 NOT DUP2 ADD SWAP1 DUP2 GT PUSH2 0x374 JUMPI DUP1 DUP3 SUB PUSH2 0x18EB JUMPI JUMPDEST POP POP PUSH0 MSTORE MSTORE PUSH0 PUSH1 0x4 PUSH1 0x40 DUP3 KECCAK256 ADD SSTORE PUSH2 0x18E9 PUSH2 0x2ADB JUMP JUMPDEST STOP JUMPDEST PUSH32 0xF041F52DB3FD2F56A979D9DD319AA6A6E399C198410349CF154EB4B4568D7DAA SWAP2 PUSH2 0x191B PUSH2 0x30D PUSH1 0x40 SWAP4 PUSH2 0x249C JUMP JUMPDEST PUSH2 0x1924 DUP2 PUSH2 0x249C JUMP JUMPDEST SWAP1 SLOAD SWAP1 PUSH1 0x3 SHL SHR PUSH0 MSTORE DUP6 DUP6 MSTORE DUP1 PUSH1 0x4 DUP4 PUSH0 KECCAK256 ADD SSTORE PUSH2 0x1941 DUP2 PUSH2 0x249C JUMP JUMPDEST SWAP1 SLOAD SWAP1 PUSH1 0x3 SHL SHR SWAP1 DUP3 MLOAD SWAP2 DUP3 MSTORE DUP6 DUP3 ADD MSTORE LOG1 DUP4 DUP1 PUSH2 0x18D3 JUMP JUMPDEST EQ PUSH2 0x1966 JUMPI JUMPDEST POP PUSH2 0x1856 JUMP JUMPDEST PUSH2 0x19EE SWAP1 PUSH1 0x8 PUSH1 0xFF PUSH1 0x7 PUSH2 0x197B DUP7 DUP9 ADD PUSH2 0x2999 JUMP JUMPDEST SWAP4 DUP9 PUSH0 MSTORE DUP1 DUP11 MSTORE PUSH1 0x40 PUSH0 KECCAK256 SWAP1 DUP2 SLOAD DUP9 DUP8 ADD SSTORE DUP8 DUP3 ADD SLOAD DUP2 DUP8 ADD SSTORE DUP2 ADD SLOAD PUSH1 0x3 DUP7 ADD SSTORE PUSH1 0x3 DUP2 ADD SLOAD PUSH1 0x4 DUP7 ADD SSTORE PUSH1 0x1 DUP1 PUSH1 0xA0 SHL SUB PUSH1 0x4 DUP3 ADD SLOAD AND PUSH1 0x5 DUP7 ADD SWAP1 PUSH1 0x1 DUP1 PUSH1 0xA0 SHL SUB NOT DUP3 SLOAD AND OR SWAP1 SSTORE PUSH1 0x5 DUP2 ADD SLOAD DUP12 DUP7 ADD SSTORE DUP11 DUP2 ADD SLOAD DUP3 DUP7 ADD SSTORE ADD SLOAD AND SWAP2 ADD SWAP1 PUSH1 0xFF DUP1 NOT DUP4 SLOAD AND SWAP2 ISZERO ISZERO AND OR SWAP1 SSTORE JUMP JUMPDEST DUP6 PUSH2 0x1960 JUMP JUMPDEST SWAP1 POP DUP3 PUSH0 MSTORE DUP5 DUP5 MSTORE PUSH1 0xA PUSH1 0x40 PUSH0 KECCAK256 ADD PUSH2 0xFF00 NOT DUP2 SLOAD AND SWAP1 SSTORE PUSH0 DUP4 PUSH0 DUP1 MLOAD PUSH1 0x20 PUSH2 0x2C35 DUP4 CODECOPY DUP2 MLOAD SWAP2 MSTORE DUP3 DUP1 LOG3 PUSH1 0x3 DUP3 ADD SLOAD SUB PUSH2 0x1883 JUMPI PUSH1 0x4 DUP4 MSTORE PUSH1 0x40 PUSH0 SWAP1 DUP2 KECCAK256 SLOAD DUP4 SWAP1 PUSH1 0x1 PUSH1 0x1 PUSH1 0xA0 SHL SUB AND PUSH32 0xCA5BE02C86F988B49C8F55FA1445E2252A5DE3AFAA608CC35DB41FEB6C22F83A DUP4 DUP1 LOG4 PUSH2 0x1883 JUMP JUMPDEST PUSH2 0x1A72 SWAP3 POP PUSH2 0x2A27 JUMP JUMPDEST PUSH1 0x4 PUSH2 0x1A7F DUP5 DUP7 ADD PUSH2 0x2999 JUMP JUMPDEST ADD SLOAD GT ISZERO DUP8 DUP1 PUSH2 0x1802 JUMP JUMPDEST SWAP2 POP PUSH1 0x7 DUP6 ADD SLOAD PUSH1 0x8 DUP7 ADD SLOAD LT DUP1 ISZERO PUSH2 0x1AA4 JUMPI JUMPDEST SWAP2 PUSH2 0x17FC JUMP JUMPDEST POP PUSH1 0x3 PUSH2 0x1AB2 DUP6 DUP8 ADD PUSH2 0x2999 JUMP JUMPDEST ADD SLOAD ISZERO PUSH2 0x1A9E JUMP JUMPDEST SWAP1 POP ISZERO ISZERO DUP7 PUSH2 0x17D7 JUMP JUMPDEST TIMESTAMP DUP2 GT ISZERO SWAP2 POP PUSH2 0x17D1 JUMP JUMPDEST CALLVALUE PUSH2 0x1D8 JUMPI PUSH1 0x20 CALLDATASIZE PUSH1 0x3 NOT ADD SLT PUSH2 0x1D8 JUMPI PUSH1 0x4 CALLDATALOAD PUSH1 0x1 PUSH1 0x1 PUSH1 0x40 SHL SUB DUP2 GT PUSH2 0x1D8 JUMPI PUSH1 0xFF PUSH1 0x8 PUSH2 0x1B41 PUSH1 0x20 PUSH2 0x1B09 DUP2 SWAP6 CALLDATASIZE SWAP1 PUSH1 0x4 ADD PUSH2 0x23D3 JUMP JUMPDEST PUSH1 0x40 MLOAD SWAP1 PUSH2 0x4C1 DUP2 MLOAD SWAP3 DUP5 DUP4 ADD SWAP4 PUSH2 0x1B22 DUP2 DUP4 DUP8 PUSH2 0x2372 JUMP JUMPDEST PUSH0 SWAP1 DUP3 ADD SWAP1 DUP2 MSTORE DUP2 SWAP1 SUB DUP6 ADD SWAP1 KECCAK256 SLOAD PUSH1 0x1 PUSH1 0x1 PUSH1 0xA0 SHL SUB AND ISZERO ISZERO PUSH2 0x2B5E JUMP JUMPDEST DUP2 ADD PUSH0 DUP2 MSTORE SUB ADD SWAP1 KECCAK256 ADD SLOAD AND PUSH1 0x40 MLOAD SWAP1 ISZERO ISZERO DUP2 MSTORE RETURN JUMPDEST PUSH2 0x1B60 CALLDATASIZE PUSH2 0x24C9 JUMP JUMPDEST SWAP3 PUSH2 0x1BA2 PUSH1 0x20 PUSH1 0x40 SWAP10 SWAP7 SWAP9 SWAP8 SWAP10 SWAP5 SWAP4 SWAP5 MLOAD PUSH2 0x1B81 DUP13 DUP3 DUP2 MLOAD SWAP5 DUP6 SWAP3 ADD PUSH2 0x2372 JUMP JUMPDEST PUSH0 SWAP2 DUP2 ADD SWAP2 DUP3 MSTORE SWAP1 DUP2 SWAP1 SUB PUSH1 0x20 ADD SWAP1 KECCAK256 SLOAD PUSH1 0x1 PUSH1 0x1 PUSH1 0xA0 SHL SUB AND ISZERO ISZERO PUSH2 0x26DC JUMP JUMPDEST ORIGIN PUSH0 MSTORE PUSH1 0x9 PUSH1 0x20 MSTORE PUSH2 0x1BBB PUSH1 0xFF PUSH1 0x40 PUSH0 KECCAK256 SLOAD AND ISZERO PUSH2 0x2722 JUMP JUMPDEST PUSH1 0xD SLOAD PUSH1 0x40 MLOAD PUSH4 0x5848E2A3 PUSH1 0xE1 SHL DUP2 MSTORE PUSH1 0x1 PUSH1 0x1 PUSH1 0xA0 SHL SUB SWAP1 SWAP2 AND SWAP1 PUSH1 0x20 DUP2 DUP1 PUSH2 0x1BE9 DUP15 ORIGIN PUSH1 0x4 DUP5 ADD PUSH2 0x27A8 JUMP JUMPDEST SUB DUP2 DUP6 GAS STATICCALL SWAP1 DUP2 ISZERO PUSH2 0x77A JUMPI PUSH2 0x1C2E SWAP3 PUSH2 0x1C12 PUSH1 0x1 PUSH1 0x20 SWAP5 DUP16 SWAP5 PUSH0 SWAP2 PUSH2 0x1E9B JUMPI POP ISZERO ISZERO EQ PUSH2 0x27CD JUMP JUMPDEST PUSH1 0x40 MLOAD DUP1 DUP1 SWAP6 DUP2 SWAP5 PUSH4 0x2B5DF59 PUSH1 0xE0 SHL DUP4 MSTORE ORIGIN PUSH1 0x4 DUP5 ADD PUSH2 0x27A8 JUMP JUMPDEST SUB SWAP2 GAS STATICCALL SWAP1 DUP2 ISZERO PUSH2 0x77A JUMPI DUP11 SWAP1 PUSH0 SWAP3 PUSH2 0x1E59 JUMPI JUMPDEST POP SWAP8 PUSH2 0x1C9D PUSH2 0x1DE2 SWAP7 SWAP6 SWAP5 SWAP4 SWAP3 PUSH1 0x1 PUSH2 0x1C8B PUSH1 0x20 PUSH32 0x65513F3A4B238816F691E4322BE549C10EEAA1EF78FE116618B0D83E5CA252B6 SWAP14 DUP2 PUSH1 0x40 MLOAD SWAP4 DUP3 DUP6 DUP1 SWAP5 MLOAD SWAP4 DUP5 SWAP3 ADD PUSH2 0x2372 JUMP JUMPDEST DUP2 ADD PUSH0 DUP2 MSTORE SUB ADD SWAP1 KECCAK256 ADD SLOAD GT ISZERO PUSH2 0x282A JUMP JUMPDEST PUSH2 0x1CAA PUSH1 0xB SLOAD CALLVALUE EQ PUSH2 0x2876 JUMP JUMPDEST DUP5 DUP4 PUSH1 0x5 SLOAD PUSH0 MSTORE PUSH1 0x2 PUSH1 0x20 MSTORE DUP13 PUSH1 0x40 PUSH0 KECCAK256 SWAP2 PUSH1 0x3 SLOAD DUP1 SWAP2 GT PUSH2 0x1E4F JUMPI JUMPDEST POP PUSH1 0x6 PUSH1 0x20 MSTORE PUSH1 0x40 PUSH0 KECCAK256 DUP1 SLOAD PUSH1 0x1 PUSH1 0x1 PUSH1 0xA0 SHL SUB NOT AND CALLER OR DUP2 SSTORE PUSH2 0x1DD6 SWAP4 SWAP3 PUSH1 0x7 SWAP3 SWAP1 SWAP2 PUSH2 0x1D88 SWAP2 SWAP1 PUSH2 0x1CFD DUP3 PUSH1 0x1 DUP4 ADD PUSH2 0x25B4 JUMP JUMPDEST TIMESTAMP PUSH1 0x2 DUP3 ADD SSTORE DUP5 SLOAD PUSH1 0x4 DUP3 ADD SSTORE PUSH1 0x1 PUSH1 0x3 DUP3 ADD SSTORE PUSH1 0xA PUSH1 0x1 PUSH1 0xFF NOT DUP3 DUP5 ADD SLOAD AND OR SWAP2 ADD SSTORE PUSH2 0x1D79 PUSH1 0x20 PUSH1 0x5 SLOAD SWAP3 PUSH2 0x1D33 DUP2 PUSH2 0x26BC JUMP JUMPDEST PUSH1 0x40 MLOAD TIMESTAMP DUP2 MSTORE PUSH1 0x1 DUP5 DUP3 ADD MSTORE DUP6 PUSH32 0x6C98A8C940418B35614F0CD02412D5C9606FAFF474CBB6CDD6640BA5D1A9F06B PUSH1 0x40 CALLER SWAP4 LOG4 DUP2 PUSH1 0x40 MLOAD SWAP4 DUP3 DUP6 DUP1 SWAP5 MLOAD SWAP4 DUP5 SWAP3 ADD PUSH2 0x2372 JUMP JUMPDEST DUP2 ADD PUSH1 0x8 DUP2 MSTORE SUB ADD SWAP1 KECCAK256 PUSH2 0x2968 JUMP JUMPDEST DUP11 DUP2 SSTORE DUP12 PUSH1 0x1 DUP3 ADD SSTORE DUP14 PUSH1 0x2 DUP3 ADD SSTORE DUP5 PUSH1 0x3 DUP3 ADD SSTORE PUSH1 0x4 DUP2 ADD PUSH1 0x1 DUP1 PUSH1 0xA0 SHL SUB DUP8 AND PUSH1 0x1 DUP1 PUSH1 0xA0 SHL SUB NOT DUP3 SLOAD AND OR SWAP1 SSTORE DUP7 PUSH1 0x5 DUP3 ADD SSTORE DUP8 PUSH1 0x6 DUP3 ADD SSTORE ADD SWAP1 PUSH1 0xFF DUP1 NOT DUP4 SLOAD AND SWAP2 ISZERO ISZERO AND OR SWAP1 SSTORE JUMP JUMPDEST PUSH2 0x163D PUSH1 0x5 SLOAD SWAP12 PUSH2 0x26BC JUMP JUMPDEST SUB SWAP1 LOG3 PUSH2 0x1E08 PUSH0 DUP1 DUP1 DUP1 CALLVALUE PUSH1 0x1 DUP1 PUSH1 0xA0 SHL SUB PUSH1 0xC SLOAD AND GAS CALL PUSH2 0x1E02 PUSH2 0x28BB JUMP JUMPDEST POP PUSH2 0x28EA JUMP JUMPDEST CALLER PUSH0 MSTORE PUSH1 0x9 PUSH1 0x20 MSTORE PUSH1 0x40 PUSH0 KECCAK256 PUSH1 0x1 PUSH1 0xFF NOT DUP3 SLOAD AND OR SWAP1 SSTORE PUSH2 0x1E2A PUSH1 0x5 SLOAD PUSH2 0x292D JUMP JUMPDEST PUSH2 0x1E35 PUSH1 0x5 SLOAD PUSH2 0x298B JUMP JUMPDEST DUP1 PUSH1 0x5 SSTORE PUSH0 NOT DUP2 ADD SWAP1 DUP2 GT PUSH2 0x374 JUMPI PUSH1 0x20 SWAP1 PUSH1 0x40 MLOAD SWAP1 DUP2 MSTORE RETURN JUMPDEST SWAP6 POP PUSH2 0x1DD6 PUSH2 0x1CC7 JUMP JUMPDEST SWAP6 SWAP5 SWAP4 SWAP3 SWAP2 POP POP PUSH1 0x20 DUP6 RETURNDATASIZE PUSH1 0x20 GT PUSH2 0x1E93 JUMPI JUMPDEST DUP2 PUSH2 0x1E79 PUSH1 0x20 SWAP4 DUP4 PUSH2 0x22B0 JUMP JUMPDEST DUP2 ADD SUB SLT PUSH2 0x1D8 JUMPI SWAP4 MLOAD SWAP3 SWAP4 SWAP2 SWAP3 SWAP1 SWAP2 SWAP1 DUP10 PUSH2 0x1C9D PUSH2 0x1C42 JUMP JUMPDEST RETURNDATASIZE SWAP2 POP PUSH2 0x1E6C JUMP JUMPDEST PUSH2 0x1EB2 SWAP2 POP DUP7 RETURNDATASIZE DUP9 GT PUSH2 0x83D JUMPI PUSH2 0x82F DUP2 DUP4 PUSH2 0x22B0 JUMP JUMPDEST PUSH0 PUSH2 0xC43 JUMP JUMPDEST CALLVALUE PUSH2 0x1D8 JUMPI PUSH2 0x1EC6 CALLDATASIZE PUSH2 0x242F JUMP JUMPDEST SWAP1 PUSH1 0x40 MLOAD SWAP1 DUP1 MLOAD SWAP1 PUSH1 0x20 DUP2 ADD SWAP2 PUSH2 0x1EDE DUP2 DUP6 DUP6 PUSH2 0x2372 JUMP JUMPDEST DUP4 ADD PUSH0 DUP2 MSTORE DUP4 PUSH1 0x20 PUSH1 0x1 DUP1 PUSH1 0xA0 SHL SUB SWAP6 DUP7 SWAP4 SUB ADD SWAP1 KECCAK256 SLOAD AND CALLER SUB PUSH2 0x1F34 JUMPI PUSH2 0x1F14 SWAP2 PUSH1 0x20 SWAP2 PUSH1 0x40 MLOAD SWAP4 DUP5 SWAP3 DUP4 SWAP3 MLOAD SWAP3 DUP4 SWAP2 PUSH2 0x2372 JUMP JUMPDEST PUSH0 SWAP1 DUP3 ADD SWAP1 DUP2 MSTORE SUB ADD SWAP1 KECCAK256 DUP1 SLOAD PUSH1 0x1 PUSH1 0x1 PUSH1 0xA0 SHL SUB NOT AND SWAP2 SWAP1 SWAP3 AND OR SWAP1 SSTORE STOP JUMPDEST PUSH1 0x40 MLOAD PUSH3 0x461BCD PUSH1 0xE5 SHL DUP2 MSTORE PUSH1 0x20 PUSH1 0x4 DUP3 ADD MSTORE PUSH1 0x27 PUSH1 0x24 DUP3 ADD MSTORE PUSH32 0x55736572206973206E6F7420746865206F776E6572206F66207468697320636F PUSH1 0x44 DUP3 ADD MSTORE PUSH7 0x6D6D756E697479 PUSH1 0xC8 SHL PUSH1 0x64 DUP3 ADD MSTORE PUSH1 0x84 SWAP1 REVERT JUMPDEST CALLVALUE PUSH2 0x1D8 JUMPI PUSH1 0x20 CALLDATASIZE PUSH1 0x3 NOT ADD SLT PUSH2 0x1D8 JUMPI PUSH1 0x4 CALLDATALOAD PUSH1 0x1 PUSH1 0x1 PUSH1 0x40 SHL SUB DUP2 GT PUSH2 0x1D8 JUMPI PUSH2 0x1FD4 PUSH1 0x20 PUSH2 0x1FC1 PUSH2 0x120 SWAP4 CALLDATASIZE SWAP1 PUSH1 0x4 ADD PUSH2 0x23D3 JUMP JUMPDEST DUP2 PUSH1 0x40 MLOAD SWAP4 DUP3 DUP6 DUP1 SWAP5 MLOAD SWAP4 DUP5 SWAP3 ADD PUSH2 0x2372 JUMP JUMPDEST DUP2 ADD PUSH0 DUP2 MSTORE SUB ADD SWAP1 KECCAK256 PUSH1 0x1 DUP1 PUSH1 0xA0 SHL SUB DUP1 DUP3 SLOAD AND SWAP2 PUSH1 0x1 DUP2 ADD SLOAD SWAP2 PUSH1 0x2 DUP3 ADD SLOAD SWAP1 PUSH1 0x3 DUP4 ADD SLOAD SWAP1 PUSH1 0x4 DUP5 ADD SLOAD SWAP1 PUSH1 0x5 DUP6 ADD SLOAD AND SWAP2 PUSH1 0x6 DUP6 ADD SLOAD SWAP4 PUSH1 0xFF PUSH1 0x8 PUSH1 0x7 DUP9 ADD SLOAD SWAP8 ADD SLOAD AND SWAP7 PUSH1 0x40 MLOAD SWAP9 DUP10 MSTORE PUSH1 0x20 DUP10 ADD MSTORE PUSH1 0x40 DUP9 ADD MSTORE PUSH1 0x60 DUP8 ADD MSTORE PUSH1 0x80 DUP7 ADD MSTORE PUSH1 0xA0 DUP6 ADD MSTORE PUSH1 0xC0 DUP5 ADD MSTORE PUSH1 0xE0 DUP4 ADD MSTORE ISZERO ISZERO PUSH2 0x100 DUP3 ADD MSTORE RETURN JUMPDEST CALLVALUE PUSH2 0x1D8 JUMPI PUSH1 0x20 CALLDATASIZE PUSH1 0x3 NOT ADD SLT PUSH2 0x1D8 JUMPI PUSH2 0x2068 PUSH2 0x2419 JUMP JUMPDEST PUSH1 0xA SLOAD PUSH1 0x1 PUSH1 0x1 PUSH1 0xA0 SHL SUB SWAP2 SWAP1 PUSH2 0x2082 SWAP1 DUP4 AND CALLER EQ PUSH2 0x2B19 JUMP JUMPDEST AND PUSH1 0x1 DUP1 PUSH1 0xA0 SHL SUB NOT PUSH1 0xD SLOAD AND OR PUSH1 0xD SSTORE PUSH0 DUP1 RETURN JUMPDEST CALLVALUE PUSH2 0x1D8 JUMPI PUSH1 0x20 CALLDATASIZE PUSH1 0x3 NOT ADD SLT PUSH2 0x1D8 JUMPI PUSH2 0x20BD PUSH1 0x1 DUP1 PUSH1 0xA0 SHL SUB PUSH1 0xA SLOAD AND CALLER EQ PUSH2 0x2B19 JUMP JUMPDEST PUSH1 0x4 CALLDATALOAD PUSH0 SWAP1 DUP2 MSTORE PUSH1 0x6 PUSH1 0x20 MSTORE PUSH1 0x40 SWAP1 KECCAK256 PUSH1 0xA ADD DUP1 SLOAD PUSH1 0xFF NOT AND SWAP1 SSTORE STOP JUMPDEST CALLVALUE PUSH2 0x1D8 JUMPI PUSH1 0x20 CALLDATASIZE PUSH1 0x3 NOT ADD SLT PUSH2 0x1D8 JUMPI PUSH1 0x4 CALLDATALOAD PUSH1 0x1 SLOAD DUP2 LT ISZERO PUSH2 0x1D8 JUMPI PUSH2 0x2101 SWAP1 PUSH2 0x2470 JUMP JUMPDEST PUSH2 0x164F JUMPI PUSH2 0x2111 PUSH2 0x1123 SWAP2 PUSH2 0x22D1 JUMP JUMPDEST PUSH1 0x40 MLOAD SWAP2 DUP3 SWAP2 PUSH1 0x20 DUP4 MSTORE PUSH1 0x20 DUP4 ADD SWAP1 PUSH2 0x2393 JUMP JUMPDEST CALLVALUE PUSH2 0x1D8 JUMPI PUSH1 0x20 DUP1 PUSH2 0x2136 CALLDATASIZE PUSH2 0x242F JUMP JUMPDEST SWAP2 SWAP1 PUSH2 0x2174 DUP3 PUSH1 0x40 MLOAD SWAP3 DUP1 MLOAD SWAP1 PUSH2 0x4C1 DUP4 DUP3 ADD SWAP3 PUSH2 0x2155 DUP2 DUP9 DUP7 PUSH2 0x2372 JUMP JUMPDEST DUP7 ADD PUSH0 DUP2 MSTORE DUP7 PUSH1 0x1 DUP1 PUSH1 0xA0 SHL SUB SWAP9 DUP10 SWAP9 DUP10 SWAP4 SUB ADD SWAP1 KECCAK256 SLOAD AND ISZERO ISZERO PUSH2 0x2B5E JUMP JUMPDEST DUP2 ADD PUSH0 DUP2 MSTORE SUB ADD SWAP1 KECCAK256 SLOAD AND SWAP1 PUSH1 0x40 MLOAD SWAP3 AND EQ DUP2 MSTORE RETURN JUMPDEST CALLVALUE PUSH2 0x1D8 JUMPI PUSH0 CALLDATASIZE PUSH1 0x3 NOT ADD SLT PUSH2 0x1D8 JUMPI PUSH1 0xD SLOAD PUSH1 0x40 MLOAD PUSH1 0x1 PUSH1 0x1 PUSH1 0xA0 SHL SUB SWAP1 SWAP2 AND DUP2 MSTORE PUSH1 0x20 SWAP1 RETURN JUMPDEST CALLVALUE PUSH2 0x1D8 JUMPI PUSH1 0x20 CALLDATASIZE PUSH1 0x3 NOT ADD SLT PUSH2 0x1D8 JUMPI PUSH1 0x4 CALLDATALOAD PUSH0 SWAP1 DUP2 MSTORE PUSH1 0x6 PUSH1 0x20 MSTORE PUSH1 0x40 SWAP1 KECCAK256 DUP1 SLOAD PUSH1 0x1 PUSH1 0x1 PUSH1 0xA0 SHL SUB AND PUSH2 0x21EA PUSH1 0x1 DUP4 ADD PUSH2 0x22D1 JUMP JUMPDEST SWAP2 PUSH1 0xFF PUSH1 0x2 DUP3 ADD SLOAD SWAP2 PUSH1 0x3 DUP2 ADD SLOAD SWAP1 PUSH1 0x4 DUP2 ADD SLOAD PUSH1 0x5 DUP3 ADD SLOAD PUSH1 0x6 DUP4 ADD SLOAD SWAP1 PUSH1 0x7 DUP5 ADD SLOAD SWAP3 PUSH1 0xA PUSH1 0x8 DUP7 ADD SLOAD SWAP6 ADD SLOAD SWAP6 PUSH2 0x2238 PUSH1 0x40 MLOAD SWAP12 DUP13 SWAP12 DUP13 MSTORE PUSH1 0x20 DUP13 PUSH2 0x160 SWAP2 DUP3 SWAP2 ADD MSTORE DUP13 ADD SWAP1 PUSH2 0x2393 JUMP JUMPDEST SWAP9 PUSH1 0x40 DUP12 ADD MSTORE PUSH1 0x60 DUP11 ADD MSTORE PUSH1 0x80 DUP10 ADD MSTORE PUSH1 0xA0 DUP9 ADD MSTORE PUSH1 0xC0 DUP8 ADD MSTORE PUSH1 0xE0 DUP7 ADD MSTORE PUSH2 0x100 DUP6 ADD MSTORE DUP2 DUP2 AND ISZERO ISZERO PUSH2 0x120 DUP6 ADD MSTORE PUSH1 0x8 SHR AND ISZERO ISZERO PUSH2 0x140 DUP4 ADD MSTORE SUB SWAP1 RETURN JUMPDEST SWAP1 PUSH1 0x1 DUP3 DUP2 SHR SWAP3 AND DUP1 ISZERO PUSH2 0x22A6 JUMPI JUMPDEST PUSH1 0x20 DUP4 LT EQ PUSH2 0x2292 JUMPI JUMP JUMPDEST PUSH4 0x4E487B71 PUSH1 0xE0 SHL PUSH0 MSTORE PUSH1 0x22 PUSH1 0x4 MSTORE PUSH1 0x24 PUSH0 REVERT JUMPDEST SWAP2 PUSH1 0x7F AND SWAP2 PUSH2 0x2287 JUMP JUMPDEST SWAP1 PUSH1 0x1F DUP1 NOT SWAP2 ADD AND DUP2 ADD SWAP1 DUP2 LT PUSH1 0x1 PUSH1 0x1 PUSH1 0x40 SHL SUB DUP3 GT OR PUSH2 0x99B JUMPI PUSH1 0x40 MSTORE JUMP JUMPDEST SWAP1 PUSH1 0x40 MLOAD SWAP2 DUP3 PUSH0 DUP3 SLOAD SWAP3 PUSH2 0x22E4 DUP5 PUSH2 0x2278 JUMP JUMPDEST SWAP1 DUP2 DUP5 MSTORE PUSH1 0x1 SWAP5 DUP6 DUP2 AND SWAP1 DUP2 PUSH0 EQ PUSH2 0x234F JUMPI POP PUSH1 0x1 EQ PUSH2 0x230F JUMPI JUMPDEST POP POP PUSH2 0x230D SWAP3 POP SUB DUP4 PUSH2 0x22B0 JUMP JUMPDEST JUMP JUMPDEST SWAP1 SWAP4 SWAP2 POP PUSH0 MSTORE PUSH1 0x20 SWAP1 DUP2 PUSH0 KECCAK256 SWAP4 PUSH0 SWAP2 JUMPDEST DUP2 DUP4 LT PUSH2 0x2337 JUMPI POP POP PUSH2 0x230D SWAP4 POP DUP3 ADD ADD PUSH0 DUP1 PUSH2 0x22FF JUMP JUMPDEST DUP6 SLOAD DUP9 DUP5 ADD DUP6 ADD MSTORE SWAP5 DUP6 ADD SWAP5 DUP8 SWAP5 POP SWAP2 DUP4 ADD SWAP2 PUSH2 0x231F JUMP JUMPDEST SWAP2 POP POP PUSH2 0x230D SWAP5 POP PUSH1 0x20 SWAP3 POP PUSH1 0xFF NOT AND DUP3 DUP5 ADD MSTORE ISZERO ISZERO PUSH1 0x5 SHL DUP3 ADD ADD PUSH0 DUP1 PUSH2 0x22FF JUMP JUMPDEST PUSH0 JUMPDEST DUP4 DUP2 LT PUSH2 0x2383 JUMPI POP POP PUSH0 SWAP2 ADD MSTORE JUMP JUMPDEST DUP2 DUP2 ADD MLOAD DUP4 DUP3 ADD MSTORE PUSH1 0x20 ADD PUSH2 0x2374 JUMP JUMPDEST SWAP1 PUSH1 0x20 SWAP2 PUSH2 0x23AC DUP2 MLOAD DUP1 SWAP3 DUP2 DUP6 MSTORE DUP6 DUP1 DUP7 ADD SWAP2 ADD PUSH2 0x2372 JUMP JUMPDEST PUSH1 0x1F ADD PUSH1 0x1F NOT AND ADD ADD SWAP1 JUMP JUMPDEST PUSH1 0x1 PUSH1 0x1 PUSH1 0x40 SHL SUB DUP2 GT PUSH2 0x99B JUMPI PUSH1 0x1F ADD PUSH1 0x1F NOT AND PUSH1 0x20 ADD SWAP1 JUMP JUMPDEST DUP2 PUSH1 0x1F DUP3 ADD SLT ISZERO PUSH2 0x1D8 JUMPI DUP1 CALLDATALOAD SWAP1 PUSH2 0x23EA DUP3 PUSH2 0x23B8 JUMP JUMPDEST SWAP3 PUSH2 0x23F8 PUSH1 0x40 MLOAD SWAP5 DUP6 PUSH2 0x22B0 JUMP JUMPDEST DUP3 DUP5 MSTORE PUSH1 0x20 DUP4 DUP4 ADD ADD GT PUSH2 0x1D8 JUMPI DUP2 PUSH0 SWAP3 PUSH1 0x20 DUP1 SWAP4 ADD DUP4 DUP7 ADD CALLDATACOPY DUP4 ADD ADD MSTORE SWAP1 JUMP JUMPDEST PUSH1 0x4 CALLDATALOAD SWAP1 PUSH1 0x1 PUSH1 0x1 PUSH1 0xA0 SHL SUB DUP3 AND DUP3 SUB PUSH2 0x1D8 JUMPI JUMP JUMPDEST PUSH1 0x40 PUSH1 0x3 NOT DUP3 ADD SLT PUSH2 0x1D8 JUMPI PUSH1 0x4 CALLDATALOAD SWAP1 PUSH1 0x1 PUSH1 0x1 PUSH1 0x40 SHL SUB DUP3 GT PUSH2 0x1D8 JUMPI PUSH2 0x2459 SWAP2 PUSH1 0x4 ADD PUSH2 0x23D3 JUMP JUMPDEST SWAP1 PUSH1 0x24 CALLDATALOAD PUSH1 0x1 PUSH1 0x1 PUSH1 0xA0 SHL SUB DUP2 AND DUP2 SUB PUSH2 0x1D8 JUMPI SWAP1 JUMP JUMPDEST PUSH1 0x1 SLOAD DUP2 LT ISZERO PUSH2 0x2488 JUMPI PUSH1 0x1 PUSH0 MSTORE PUSH1 0x20 PUSH0 KECCAK256 ADD SWAP1 PUSH0 SWAP1 JUMP JUMPDEST PUSH4 0x4E487B71 PUSH1 0xE0 SHL PUSH0 MSTORE PUSH1 0x32 PUSH1 0x4 MSTORE PUSH1 0x24 PUSH0 REVERT JUMPDEST PUSH1 0x7 SLOAD DUP2 LT ISZERO PUSH2 0x2488 JUMPI PUSH1 0x7 PUSH0 MSTORE PUSH1 0x20 PUSH0 KECCAK256 ADD SWAP1 PUSH0 SWAP1 JUMP JUMPDEST DUP1 SLOAD DUP3 LT ISZERO PUSH2 0x2488 JUMPI PUSH0 MSTORE PUSH1 0x20 PUSH0 KECCAK256 ADD SWAP1 PUSH0 SWAP1 JUMP JUMPDEST PUSH2 0x120 PUSH1 0x3 NOT DUP3 ADD SLT PUSH2 0x1D8 JUMPI PUSH1 0x4 CALLDATALOAD SWAP1 PUSH1 0x1 PUSH1 0x1 PUSH1 0x40 SHL SUB DUP3 GT PUSH2 0x1D8 JUMPI PUSH2 0x24F4 SWAP2 PUSH1 0x4 ADD PUSH2 0x23D3 JUMP JUMPDEST SWAP1 PUSH1 0x24 CALLDATALOAD SWAP1 PUSH1 0x44 CALLDATALOAD SWAP1 PUSH1 0x64 CALLDATALOAD SWAP1 PUSH1 0x84 CALLDATALOAD SWAP1 PUSH1 0xA4 CALLDATALOAD PUSH1 0x1 PUSH1 0x1 PUSH1 0xA0 SHL SUB DUP2 AND DUP2 SUB PUSH2 0x1D8 JUMPI SWAP1 PUSH1 0xC4 CALLDATALOAD SWAP1 PUSH1 0xE4 CALLDATALOAD SWAP1 PUSH2 0x104 CALLDATALOAD DUP1 ISZERO ISZERO DUP2 SUB PUSH2 0x1D8 JUMPI SWAP1 JUMP JUMPDEST SWAP3 SWAP2 SWAP1 PUSH1 0x40 DUP5 ADD PUSH1 0x40 DUP6 MSTORE DUP2 MLOAD DUP1 SWAP2 MSTORE PUSH1 0x60 DUP6 ADD SWAP1 PUSH1 0x20 DUP1 SWAP4 ADD SWAP1 PUSH0 JUMPDEST DUP5 DUP3 DUP3 LT PUSH2 0x255F JUMPI POP POP POP POP SWAP4 ADD MSTORE JUMP JUMPDEST DUP4 MLOAD DUP6 MSTORE SWAP4 DUP5 ADD SWAP4 SWAP1 SWAP3 ADD SWAP2 PUSH1 0x1 ADD PUSH2 0x254E JUMP JUMPDEST SWAP7 SWAP4 SWAP1 SWAP9 SWAP8 SWAP5 SWAP2 SWAP3 PUSH1 0xE0 SWAP7 SWAP4 PUSH2 0x100 DUP10 ADD SWAP11 DUP10 MSTORE PUSH1 0x20 DUP10 ADD MSTORE PUSH1 0x40 DUP9 ADD MSTORE PUSH1 0x60 DUP8 ADD MSTORE PUSH1 0x1 DUP1 PUSH1 0xA0 SHL SUB AND PUSH1 0x80 DUP7 ADD MSTORE PUSH1 0xA0 DUP6 ADD MSTORE PUSH1 0xC0 DUP5 ADD MSTORE ISZERO ISZERO SWAP2 ADD MSTORE JUMP JUMPDEST SWAP2 SWAP1 SWAP2 DUP3 MLOAD PUSH1 0x1 PUSH1 0x1 PUSH1 0x40 SHL SUB DUP2 GT PUSH2 0x99B JUMPI PUSH2 0x25D1 DUP3 SLOAD PUSH2 0x2278 JUMP JUMPDEST PUSH1 0x1F DUP2 GT PUSH2 0x2675 JUMPI JUMPDEST POP PUSH1 0x20 DUP1 PUSH1 0x1F DUP4 GT PUSH1 0x1 EQ PUSH2 0x2615 JUMPI POP DUP2 SWAP3 SWAP4 SWAP5 PUSH0 SWAP3 PUSH2 0x260A JUMPI JUMPDEST POP POP DUP2 PUSH1 0x1 SHL SWAP2 PUSH0 NOT SWAP1 PUSH1 0x3 SHL SHR NOT AND OR SWAP1 SSTORE JUMP JUMPDEST ADD MLOAD SWAP1 POP PUSH0 DUP1 PUSH2 0x25F5 JUMP JUMPDEST SWAP1 PUSH1 0x1F NOT DUP4 AND SWAP6 DUP5 PUSH0 MSTORE DUP3 PUSH0 KECCAK256 SWAP3 PUSH0 SWAP1 JUMPDEST DUP9 DUP3 LT PUSH2 0x265D JUMPI POP POP DUP4 PUSH1 0x1 SWAP6 SWAP7 SWAP8 LT PUSH2 0x2645 JUMPI JUMPDEST POP POP POP DUP2 SHL ADD SWAP1 SSTORE JUMP JUMPDEST ADD MLOAD PUSH0 NOT PUSH1 0xF8 DUP5 PUSH1 0x3 SHL AND SHR NOT AND SWAP1 SSTORE PUSH0 DUP1 DUP1 PUSH2 0x263B JUMP JUMPDEST DUP1 PUSH1 0x1 DUP6 SWAP7 DUP3 SWAP5 SWAP7 DUP7 ADD MLOAD DUP2 SSTORE ADD SWAP6 ADD SWAP4 ADD SWAP1 PUSH2 0x2626 JUMP JUMPDEST PUSH0 DUP4 DUP2 MSTORE PUSH1 0x20 DUP2 KECCAK256 PUSH1 0x1F DUP5 ADD PUSH1 0x5 SHR DUP2 ADD SWAP3 PUSH1 0x20 DUP6 LT PUSH2 0x26B2 JUMPI JUMPDEST PUSH1 0x1F ADD PUSH1 0x5 SHR ADD SWAP2 JUMPDEST DUP3 DUP2 LT PUSH2 0x26A7 JUMPI POP POP PUSH2 0x25DA JUMP JUMPDEST DUP2 DUP2 SSTORE PUSH1 0x1 ADD PUSH2 0x2699 JUMP JUMPDEST SWAP1 SWAP3 POP DUP3 SWAP1 PUSH2 0x2690 JUMP JUMPDEST PUSH2 0x26D4 SWAP1 PUSH1 0x20 PUSH1 0x40 MLOAD SWAP3 DUP3 DUP5 DUP1 SWAP5 MLOAD SWAP4 DUP5 SWAP3 ADD PUSH2 0x2372 JUMP JUMPDEST DUP2 ADD SUB SWAP1 KECCAK256 SWAP1 JUMP JUMPDEST ISZERO PUSH2 0x26E3 JUMPI JUMP JUMPDEST PUSH1 0x40 MLOAD PUSH3 0x461BCD PUSH1 0xE5 SHL DUP2 MSTORE PUSH1 0x20 PUSH1 0x4 DUP3 ADD MSTORE PUSH1 0x17 PUSH1 0x24 DUP3 ADD MSTORE PUSH23 0x10DBDB5B5D5B9A5D1E48191BD95CDB89DD08195E1A5CDD PUSH1 0x4A SHL PUSH1 0x44 DUP3 ADD MSTORE PUSH1 0x64 SWAP1 REVERT JUMPDEST ISZERO PUSH2 0x2729 JUMPI JUMP JUMPDEST PUSH1 0x40 MLOAD PUSH3 0x461BCD PUSH1 0xE5 SHL DUP2 MSTORE PUSH1 0x20 PUSH1 0x4 DUP3 ADD MSTORE PUSH1 0x39 PUSH1 0x24 DUP3 ADD MSTORE PUSH32 0x5573657220686173204F70656E205265766965772C20506C6561736520776169 PUSH1 0x44 DUP3 ADD MSTORE PUSH25 0x3A103AB73A34B6361034BA1034B990383937B1B2B9B9B2B217 PUSH1 0x39 SHL PUSH1 0x64 DUP3 ADD MSTORE PUSH1 0x84 SWAP1 REVERT JUMPDEST SWAP1 DUP2 PUSH1 0x20 SWAP2 SUB SLT PUSH2 0x1D8 JUMPI MLOAD DUP1 ISZERO ISZERO DUP2 SUB PUSH2 0x1D8 JUMPI SWAP1 JUMP JUMPDEST PUSH1 0x1 PUSH1 0x1 PUSH1 0xA0 SHL SUB SWAP1 SWAP2 AND DUP2 MSTORE PUSH1 0x40 PUSH1 0x20 DUP3 ADD DUP2 SWAP1 MSTORE PUSH2 0x27CA SWAP3 SWAP2 ADD SWAP1 PUSH2 0x2393 JUMP JUMPDEST SWAP1 JUMP JUMPDEST ISZERO PUSH2 0x27D4 JUMPI JUMP JUMPDEST PUSH1 0x40 MLOAD PUSH3 0x461BCD PUSH1 0xE5 SHL DUP2 MSTORE PUSH1 0x20 PUSH1 0x4 DUP3 ADD MSTORE PUSH1 0x28 PUSH1 0x24 DUP3 ADD MSTORE PUSH32 0x596F7520617265206E6F742061206D656D62657220666F72207468697320636F PUSH1 0x44 DUP3 ADD MSTORE PUSH8 0x36B6BAB734BA3C97 PUSH1 0xC1 SHL PUSH1 0x64 DUP3 ADD MSTORE PUSH1 0x84 SWAP1 REVERT JUMPDEST ISZERO PUSH2 0x2831 JUMPI JUMP JUMPDEST PUSH1 0x40 MLOAD PUSH3 0x461BCD PUSH1 0xE5 SHL DUP2 MSTORE PUSH1 0x20 PUSH1 0x4 DUP3 ADD MSTORE PUSH1 0x1E PUSH1 0x24 DUP3 ADD MSTORE PUSH32 0x496E73756666696369656E7420637265647320746F2070726F706F73652E0000 PUSH1 0x44 DUP3 ADD MSTORE PUSH1 0x64 SWAP1 REVERT JUMPDEST ISZERO PUSH2 0x287D JUMPI JUMP JUMPDEST PUSH1 0x40 MLOAD PUSH3 0x461BCD PUSH1 0xE5 SHL DUP2 MSTORE PUSH1 0x20 PUSH1 0x4 DUP3 ADD MSTORE PUSH1 0x16 PUSH1 0x24 DUP3 ADD MSTORE PUSH22 0x4D7573742073656E642070726F706F73616C20666565 PUSH1 0x50 SHL PUSH1 0x44 DUP3 ADD MSTORE PUSH1 0x64 SWAP1 REVERT JUMPDEST RETURNDATASIZE ISZERO PUSH2 0x28E5 JUMPI RETURNDATASIZE SWAP1 PUSH2 0x28CC DUP3 PUSH2 0x23B8 JUMP JUMPDEST SWAP2 PUSH2 0x28DA PUSH1 0x40 MLOAD SWAP4 DUP5 PUSH2 0x22B0 JUMP JUMPDEST DUP3 MSTORE RETURNDATASIZE PUSH0 PUSH1 0x20 DUP5 ADD RETURNDATACOPY JUMP JUMPDEST PUSH1 0x60 SWAP1 JUMP JUMPDEST ISZERO PUSH2 0x28F1 JUMPI JUMP JUMPDEST PUSH1 0x40 MLOAD PUSH3 0x461BCD PUSH1 0xE5 SHL DUP2 MSTORE PUSH1 0x20 PUSH1 0x4 DUP3 ADD MSTORE PUSH1 0x14 PUSH1 0x24 DUP3 ADD MSTORE PUSH20 0x2330B4B632B2103A379039B2B7321022BA3432B9 PUSH1 0x61 SHL PUSH1 0x44 DUP3 ADD MSTORE PUSH1 0x64 SWAP1 REVERT JUMPDEST PUSH1 0x7 SLOAD SWAP1 PUSH1 0x1 PUSH1 0x40 SHL DUP3 LT ISZERO PUSH2 0x99B JUMPI PUSH2 0x2950 DUP3 PUSH1 0x1 PUSH2 0x230D SWAP5 ADD PUSH1 0x7 SSTORE PUSH2 0x249C JUMP JUMPDEST SWAP1 SWAP2 SWAP1 DUP3 SLOAD SWAP1 PUSH1 0x3 SHL SWAP2 DUP3 SHL SWAP2 PUSH0 NOT SWAP1 SHL NOT AND OR SWAP1 SSTORE JUMP JUMPDEST DUP1 SLOAD SWAP2 SWAP1 PUSH1 0x1 PUSH1 0x40 SHL DUP4 LT ISZERO PUSH2 0x99B JUMPI DUP3 PUSH2 0x2950 SWAP2 PUSH1 0x1 PUSH2 0x230D SWAP6 ADD DUP2 SSTORE PUSH2 0x24B4 JUMP JUMPDEST PUSH0 NOT DUP2 EQ PUSH2 0x374 JUMPI PUSH1 0x1 ADD SWAP1 JUMP JUMPDEST PUSH1 0x40 MLOAD SWAP1 DUP2 PUSH0 DUP3 SLOAD PUSH2 0x29AA DUP2 PUSH2 0x2278 JUMP JUMPDEST SWAP4 PUSH1 0x1 SWAP2 DUP1 DUP4 AND SWAP1 DUP2 ISZERO PUSH2 0x2A0B JUMPI POP PUSH1 0x1 EQ PUSH2 0x29D1 JUMPI JUMPDEST POP POP PUSH1 0x20 SWAP3 POP PUSH0 DUP2 MSTORE SUB ADD SWAP1 KECCAK256 SWAP1 JUMP JUMPDEST SWAP1 SWAP2 POP PUSH0 MSTORE PUSH1 0x20 SWAP1 DUP2 PUSH0 KECCAK256 SWAP1 PUSH0 SWAP2 JUMPDEST DUP6 DUP4 LT PUSH2 0x29F7 JUMPI POP POP POP POP PUSH1 0x20 SWAP2 DUP2 ADD PUSH0 DUP1 PUSH2 0x29C1 JUMP JUMPDEST DUP1 SLOAD DUP8 DUP5 ADD MSTORE DUP7 SWAP5 POP SWAP2 DUP4 ADD SWAP2 DUP2 ADD PUSH2 0x29E0 JUMP JUMPDEST SWAP3 POP POP POP PUSH1 0x20 SWAP4 SWAP2 POP PUSH1 0xFF NOT AND DUP3 MSTORE DUP1 ISZERO ISZERO MUL DUP2 ADD PUSH0 DUP1 PUSH2 0x29C1 JUMP JUMPDEST SWAP2 SWAP1 DUP3 ADD DUP1 SWAP3 GT PUSH2 0x374 JUMPI JUMP JUMPDEST SWAP2 SWAP1 PUSH1 0x1 DUP1 PUSH1 0xA0 SHL SUB AND DUP3 MSTORE PUSH1 0x20 SWAP2 PUSH1 0x40 DUP4 DUP3 ADD MSTORE PUSH0 SWAP3 DUP3 SLOAD PUSH2 0x2A56 DUP2 PUSH2 0x2278 JUMP JUMPDEST SWAP4 DUP5 PUSH1 0x40 DUP6 ADD MSTORE PUSH1 0x1 SWAP2 DUP3 DUP2 AND SWAP1 DUP2 PUSH0 EQ PUSH2 0x2AB6 JUMPI POP PUSH1 0x1 EQ PUSH2 0x2A7C JUMPI JUMPDEST POP POP POP POP POP SWAP1 JUMP JUMPDEST PUSH0 SWAP1 DUP2 MSTORE DUP3 DUP2 KECCAK256 SWAP5 SWAP6 POP SWAP4 JUMPDEST DUP6 DUP6 LT PUSH2 0x2AA2 JUMPI POP POP POP PUSH1 0x60 SWAP3 POP ADD ADD PUSH0 DUP1 DUP1 DUP1 DUP1 PUSH2 0x2A74 JUMP JUMPDEST DUP1 SLOAD DUP6 DUP6 ADD PUSH1 0x60 ADD MSTORE SWAP4 DUP3 ADD SWAP4 DUP2 ADD PUSH2 0x2A88 JUMP JUMPDEST SWAP4 POP POP POP POP PUSH1 0x60 SWAP4 POP PUSH1 0xFF SWAP3 SWAP2 SWAP3 NOT AND DUP4 DUP4 ADD MSTORE ISZERO ISZERO PUSH1 0x5 SHL ADD ADD PUSH0 DUP1 DUP1 DUP1 DUP1 PUSH2 0x2A74 JUMP JUMPDEST PUSH1 0x7 SLOAD DUP1 ISZERO PUSH2 0x2B05 JUMPI PUSH0 NOT SWAP1 DUP2 ADD SWAP1 PUSH2 0x2AF3 DUP3 PUSH2 0x249C JUMP JUMPDEST SWAP1 SWAP2 DUP3 SLOAD SWAP2 PUSH1 0x3 SHL SHL NOT AND SWAP1 SSTORE PUSH1 0x7 SSTORE JUMP JUMPDEST PUSH4 0x4E487B71 PUSH1 0xE0 SHL PUSH0 MSTORE PUSH1 0x31 PUSH1 0x4 MSTORE PUSH1 0x24 PUSH0 REVERT JUMPDEST ISZERO PUSH2 0x2B20 JUMPI JUMP JUMPDEST PUSH1 0x40 MLOAD PUSH3 0x461BCD PUSH1 0xE5 SHL DUP2 MSTORE PUSH1 0x20 PUSH1 0x4 DUP3 ADD MSTORE PUSH1 0x16 PUSH1 0x24 DUP3 ADD MSTORE PUSH22 0x2737BA103A34329031B7B73A3930B1BA1037BBB732B9 PUSH1 0x51 SHL PUSH1 0x44 DUP3 ADD MSTORE PUSH1 0x64 SWAP1 REVERT JUMPDEST ISZERO PUSH2 0x2B65 JUMPI JUMP JUMPDEST PUSH1 0x40 MLOAD PUSH3 0x461BCD PUSH1 0xE5 SHL DUP2 MSTORE PUSH1 0x20 PUSH1 0x4 DUP3 ADD MSTORE PUSH1 0x19 PUSH1 0x24 DUP3 ADD MSTORE PUSH25 0x10DBDB5B5D5B9A5D1E48111BD95CC8139BDD08115E1CDA5CDD PUSH1 0x3A SHL PUSH1 0x44 DUP3 ADD MSTORE PUSH1 0x64 SWAP1 REVERT JUMPDEST PUSH1 0x1 PUSH1 0x1 PUSH1 0x40 SHL SUB DUP2 GT PUSH2 0x99B JUMPI PUSH1 0x5 SHL PUSH1 0x20 ADD SWAP1 JUMP JUMPDEST SWAP1 PUSH2 0x2BC7 DUP3 PUSH2 0x2BA6 JUMP JUMPDEST PUSH2 0x2BD4 PUSH1 0x40 MLOAD SWAP2 DUP3 PUSH2 0x22B0 JUMP JUMPDEST DUP3 DUP2 MSTORE DUP1 SWAP3 PUSH2 0x2BE5 PUSH1 0x1F NOT SWAP2 PUSH2 0x2BA6 JUMP JUMPDEST ADD SWAP1 PUSH1 0x20 CALLDATASIZE SWAP2 ADD CALLDATACOPY JUMP JUMPDEST DUP2 DUP2 MUL SWAP3 SWAP2 DUP2 ISZERO SWAP2 DUP5 DIV EQ OR ISZERO PUSH2 0x374 JUMPI JUMP JUMPDEST DUP1 MLOAD DUP3 LT ISZERO PUSH2 0x2488 JUMPI PUSH1 0x20 SWAP2 PUSH1 0x5 SHL ADD ADD SWAP1 JUMP JUMPDEST DUP2 ISZERO PUSH2 0x2C20 JUMPI DIV SWAP1 JUMP JUMPDEST PUSH4 0x4E487B71 PUSH1 0xE0 SHL PUSH0 MSTORE PUSH1 0x12 PUSH1 0x4 MSTORE PUSH1 0x24 PUSH0 REVERT INVALID CALLDATALOAD 0xBA 0xAE 0xC8 0xD9 0xC9 0xDA SHR PUSH24 0xF27119243A4384B49EAE2BF0680AA0EEBE3B62D28574A5A2 PUSH5 0x6970667358 0x22 SLT KECCAK256 GASPRICE CALLCODE DELEGATECALL 0x26 0x5D 0xE1 0x26 MOD MOD CALLER 0xBC MSIZE DIV CALLDATALOAD 0xD4 CALLDATALOAD PUSH3 0x69A33D PUSH26 0x8151359C948B3A5F47BC8264736F6C6343000814003300000000 "},"methodIdentifiers":{"CommunityNames(uint256)":"0dc85f7d","CommunityProposal(string,uint256,uint256,uint256,uint256,address,uint256,uint256,bool)":"31b4ea2e","CommunityProposals(uint256)":"8126d895","CustomProposal(string,address)":"b07bcbc5","CustomProposals(uint256)":"90943a8b","MemberContract()":"0163b968","changeCommunityOwner(string,address)":"298a5750","checkUpKeep()":"c8249d8a","communities(string)":"28adc240","createCommunity(string,uint256,uint256,uint256,uint256,address,uint256,uint256,bool)":"6219f117","fee()":"ddca3f43","getActiveProposalIndex(uint256)":"b60a85ae","getActiveProposalsLength()":"495d855e","getCommunityExists(string)":"7b7fcfed","getCommunityInfo(string)":"a64108d5","getCommunityIsInviteOnly(string)":"3df67352","getCommunityIsOwner(string,address)":"04413d86","getCommunityOwner(string)":"b3f6702d","getFee()":"ced72f87","getMemberAccessContract(string)":"cbe02a9f","getPaginatedActiveProposals(uint256,uint256)":"860eb3d9","getPaginatedCommunityProposals(string,uint256,uint256)":"789aa8f6","getProposalResults(uint256)":"5bdcd008","getProposalType(uint256)":"d978ffba","getProposalVote(address,uint256)":"68535709","performUpkeep(bytes)":"4585e33b","porposalsByCommunity(string,uint256)":"c2c2e5f8","proposals(uint256)":"013cf08b","setFee(uint256)":"69fe0e2d","setFeeAddress(address)":"8705fcd4","setMaxProposalTime(uint256)":"a169093b","setProposalCanceled(uint256)":"d0d83923","setProposalCounter(uint256)":"8b640440","setProposalInactive(uint256)":"1282f609","setUpkkepId(uint256)":"5787a0cc","setlearntgetherMembersContract(address)":"25f8729f","upkeepId()":"d2aa789f","vote(uint256,bool)":"c9d27afe"}}}}}