{"contracts/learntgetherMembers.sol":{"learntgetherMembers":{"abi":[{"inputs":[],"stateMutability":"nonpayable","type":"constructor"},{"anonymous":false,"inputs":[{"indexed":true,"internalType":"string","name":"communityName","type":"string"},{"indexed":true,"internalType":"address","name":"memberAddress","type":"address"},{"indexed":true,"internalType":"address","name":"actor","type":"address"},{"indexed":false,"internalType":"int256","name":"creds","type":"int256"}],"name":"AddedNegCred","type":"event"},{"anonymous":false,"inputs":[{"indexed":true,"internalType":"string","name":"communityName","type":"string"},{"indexed":true,"internalType":"address","name":"memberAddress","type":"address"},{"indexed":true,"internalType":"address","name":"actor","type":"address"},{"indexed":false,"internalType":"int256","name":"creds","type":"int256"}],"name":"AddedPosCred","type":"event"},{"anonymous":false,"inputs":[{"indexed":true,"internalType":"address","name":"memberAddress","type":"address"},{"indexed":true,"internalType":"string","name":"communityName","type":"string"},{"indexed":false,"internalType":"int256","name":"creds","type":"int256"},{"indexed":true,"internalType":"uint256","name":"timestamp","type":"uint256"}],"name":"Creds","type":"event"},{"anonymous":false,"inputs":[{"indexed":true,"internalType":"string","name":"communityName","type":"string"},{"indexed":true,"internalType":"address","name":"memberAddress","type":"address"},{"indexed":true,"internalType":"address","name":"actor","type":"address"},{"indexed":false,"internalType":"int256","name":"index","type":"int256"}],"name":"IndexUpdated","type":"event"},{"anonymous":false,"inputs":[{"indexed":true,"internalType":"string","name":"communityName","type":"string"},{"indexed":true,"internalType":"address","name":"memberAddress","type":"address"}],"name":"MemberAdded","type":"event"},{"anonymous":false,"inputs":[{"indexed":true,"internalType":"address","name":"memberAddress","type":"address"},{"indexed":true,"internalType":"string","name":"name","type":"string"},{"indexed":false,"internalType":"string","name":"description","type":"string"},{"indexed":false,"internalType":"string[]","name":"degrees","type":"string[]"},{"indexed":false,"internalType":"string[]","name":"awards","type":"string[]"}],"name":"MemberInfo","type":"event"},{"anonymous":false,"inputs":[{"indexed":true,"internalType":"string","name":"communityName","type":"string"},{"indexed":true,"internalType":"address","name":"memberAddress","type":"address"}],"name":"MemberInvited","type":"event"},{"anonymous":false,"inputs":[{"indexed":true,"internalType":"string","name":"communityName","type":"string"},{"indexed":true,"internalType":"address","name":"memberAddress","type":"address"}],"name":"MemberRemoved","type":"event"},{"anonymous":false,"inputs":[{"indexed":true,"internalType":"string","name":"communityName","type":"string"},{"indexed":true,"internalType":"address","name":"memberAddress","type":"address"}],"name":"MemberUninvited","type":"event"},{"anonymous":false,"inputs":[{"indexed":true,"internalType":"string","name":"communityName","type":"string"},{"indexed":true,"internalType":"address","name":"memberAddress","type":"address"},{"indexed":true,"internalType":"address","name":"actor","type":"address"},{"indexed":false,"internalType":"int256","name":"creds","type":"int256"}],"name":"RemovedNegCred","type":"event"},{"anonymous":false,"inputs":[{"indexed":true,"internalType":"string","name":"communityName","type":"string"},{"indexed":true,"internalType":"address","name":"memberAddress","type":"address"},{"indexed":true,"internalType":"address","name":"actor","type":"address"},{"indexed":false,"internalType":"int256","name":"creds","type":"int256"}],"name":"RemovedPosCred","type":"event"},{"inputs":[{"internalType":"string","name":"_communityName","type":"string"},{"internalType":"address","name":"_member","type":"address"}],"name":"addNegCredsToMember","outputs":[],"stateMutability":"nonpayable","type":"function"},{"inputs":[{"internalType":"string","name":"_communityName","type":"string"},{"internalType":"address","name":"_member","type":"address"}],"name":"addPosCredsToMember","outputs":[],"stateMutability":"nonpayable","type":"function"},{"inputs":[{"internalType":"string","name":"_communityName","type":"string"}],"name":"addSelfAsMember","outputs":[],"stateMutability":"nonpayable","type":"function"},{"inputs":[],"name":"communityContract","outputs":[{"internalType":"contract learntgetherCommuityInterface","name":"","type":"address"}],"stateMutability":"view","type":"function"},{"inputs":[{"internalType":"string","name":"_communityName","type":"string"},{"internalType":"address","name":"_memberAddress","type":"address"},{"internalType":"int256","name":"_creds","type":"int256"}],"name":"contractSetCred","outputs":[{"internalType":"int256","name":"","type":"int256"}],"stateMutability":"nonpayable","type":"function"},{"inputs":[{"internalType":"address","name":"_memberAddress","type":"address"},{"internalType":"string","name":"_communityName","type":"string"}],"name":"getIsInvited","outputs":[{"internalType":"bool","name":"","type":"bool"}],"stateMutability":"view","type":"function"},{"inputs":[{"internalType":"address","name":"_memberAddress","type":"address"},{"internalType":"string","name":"_communityName","type":"string"}],"name":"getIsMember","outputs":[{"internalType":"bool","name":"","type":"bool"}],"stateMutability":"view","type":"function"},{"inputs":[{"internalType":"address","name":"_memberAddress","type":"address"},{"internalType":"address","name":"_credGiverAddress","type":"address"},{"internalType":"string","name":"_communityName","type":"string"}],"name":"getMemberCredIndex","outputs":[{"internalType":"int256","name":"index","type":"int256"}],"stateMutability":"view","type":"function"},{"inputs":[{"internalType":"address","name":"_memberAddress","type":"address"},{"internalType":"string","name":"_communityName","type":"string"}],"name":"getMemberCreds","outputs":[{"internalType":"int256","name":"creds","type":"int256"}],"stateMutability":"view","type":"function"},{"inputs":[{"internalType":"address","name":"_memberAddress","type":"address"},{"internalType":"string","name":"_communityName","type":"string"}],"name":"getMemberNegCredsList","outputs":[{"internalType":"address[]","name":"addressList","type":"address[]"}],"stateMutability":"view","type":"function"},{"inputs":[{"internalType":"address","name":"_memberAddress","type":"address"},{"internalType":"string","name":"_communityName","type":"string"}],"name":"getMemberPosCredsList","outputs":[{"internalType":"address[]","name":"addressList","type":"address[]"}],"stateMutability":"view","type":"function"},{"inputs":[{"internalType":"address","name":"_memberAddress","type":"address"},{"internalType":"string","name":"_communityName","type":"string"}],"name":"getReiewerCommunityInfo","outputs":[{"internalType":"int256","name":"_creds","type":"int256"},{"internalType":"address[]","name":"_posCreds","type":"address[]"},{"internalType":"address[]","name":"_negCreds","type":"address[]"}],"stateMutability":"view","type":"function"},{"inputs":[{"internalType":"address","name":"_memberAddress","type":"address"},{"internalType":"string","name":"_communityName","type":"string"},{"internalType":"address","name":"givenBy","type":"address"}],"name":"hasMemberGivenCred","outputs":[{"internalType":"bool","name":"","type":"bool"}],"stateMutability":"view","type":"function"},{"inputs":[{"internalType":"string","name":"_communityName","type":"string"},{"internalType":"address","name":"_memberAddress","type":"address"}],"name":"inviteMember","outputs":[{"internalType":"address","name":"","type":"address"}],"stateMutability":"nonpayable","type":"function"},{"inputs":[{"internalType":"string","name":"","type":"string"},{"internalType":"address","name":"","type":"address"}],"name":"isInvited","outputs":[{"internalType":"bool","name":"","type":"bool"}],"stateMutability":"view","type":"function"},{"inputs":[{"internalType":"address","name":"","type":"address"},{"internalType":"uint256","name":"","type":"uint256"}],"name":"memberCommunities","outputs":[{"internalType":"string","name":"","type":"string"}],"stateMutability":"view","type":"function"},{"inputs":[{"internalType":"string","name":"_communityName","type":"string"},{"internalType":"address","name":"_member","type":"address"}],"name":"removeNegCredsFromMember","outputs":[],"stateMutability":"nonpayable","type":"function"},{"inputs":[{"internalType":"string","name":"_communityName","type":"string"},{"internalType":"address","name":"_member","type":"address"}],"name":"removePosCredsFromMember","outputs":[],"stateMutability":"nonpayable","type":"function"},{"inputs":[{"internalType":"string","name":"_communityName","type":"string"}],"name":"removeSelfAsMember","outputs":[],"stateMutability":"nonpayable","type":"function"},{"inputs":[{"internalType":"address","name":"_contractAddress","type":"address"}],"name":"setlearntgetherCommunities","outputs":[],"stateMutability":"nonpayable","type":"function"},{"inputs":[{"internalType":"string","name":"_communityName","type":"string"},{"internalType":"address","name":"_memberAddress","type":"address"}],"name":"uninviteMember","outputs":[{"internalType":"address","name":"","type":"address"}],"stateMutability":"nonpayable","type":"function"}],"evm":{"bytecode":{"linkReferences":{},"object":"6080806040523461002857600280546001600160a01b03191633179055612af8908161002d8239f35b5f80fdfe60406080815260049081361015610014575f80fd5b5f91823560e01c806302b5df59146121d457806319f553e2146121505780634f64aedd14611d995780635450fdd5146119525780636255de33146118385780636b039bb41461148b5780638c5956c41461107f5780638e6340291461105657806399d03bf214610e7e5780639c419dc914610def578063a482857814610dc2578063b091c54614610da6578063b66fdab414610b3a578063bf2a3b74146109bb578063c783acb41461094d578063ca4f880b14610629578063cdb43ea41461029f578063e636f3141461024d578063ef0ed36014610199578063f3faf99a146101795763fbc3d96c14610105575f80fd5b3461017557600361015861014b846101719661015e95610124366122d1565b949060018060a01b03169182845283602052610142858520876123fb565b015415156129af565b81528060205220906123fb565b01612a0c565b9051918291602083526020830190612421565b0390f35b8280fd5b503461017557600261015861014b846101719661015e95610124366122d1565b50919034610249576101719061022161021b60036102146101da6101bc366122d1565b919060018060a01b0316998a8a5289602052610142888b20846123fb565b88885287602052856101ee818a20836123fb565b54988a8152806020526002610205838320856123fb565b019a81528060205220906123fb565b0195612a0c565b94612a0c565b61023c82519586958652606060208701526060860190612421565b9184830390850152612421565b5080fd5b5034610175578160209360ff9261027b86610267366122d1565b9093828751948386809551938492016123b5565b8201908152030190206001600160a01b039091168252855220549151911615158152f35b50919034610249576102b036612313565b919060018060a01b0380931692838552602095858752806102d3858820856123fb565b01546105d5578351918351928881818701956102f08183896123b5565b810185815203019020868852885260ff858820541661059b5780600354169085519063cbe02a9f60e01b8083528a858401528a8380610332602482018b6123d6565b0381875afa928315610591578a93610572575b50875163b3f6702d60e01b81528581018c90528b8180610368602482018c6123d6565b0381885afa908115610568579083918c9161054b575b501633149283610540575b5082156104ce575b50501561047b578785518092631efb39a960e11b8252828583015281806103bb602482018a6123d6565b03915afa90811561047157887fbee566e9904e3c5e202405f159f39bc31121d728f2772cabc7cf243bcf63a6479461043b9461040a60018b9a999661041a968e91610444575b50151514612494565b87518094819387519283916123b5565b8201908152030190208588528852838720805460ff191660011790556124eb565b91519480a38152f35b6104649150863d881161046a575b61045c8183612247565b81019061247c565b5f610401565b503d610452565b85513d89823e3d90fd5b845162461bcd60e51b8152808301899052602760248201527f596f7520646f6e742068617665207065726d697373696f6e20696e76697465206044820152664d656d6265727360c81b6064820152608490fd5b909150865190815289848201528981806104eb602482018a6123d6565b0381865afa908115610536578991610509575b501633145f80610391565b61052991508a3d8c1161052f575b6105218183612247565b81019061245d565b5f6104fe565b503d610517565b87513d8b823e3d90fd5b82161592505f610389565b61056291508d803d1061052f576105218183612247565b5f61037e565b89513d8d823e3d90fd5b61058a9193508b3d8d1161052f576105218183612247565b915f610345565b88513d8c823e3d90fd5b845162461bcd60e51b81528083018990526014602482015273155cd95c88105b1c9958591e48125b9d9a5d195960621b6044820152606490fd5b835162461bcd60e51b8152908101879052602860248201527f4d656d62657220616c726561647920657869737473206f66207468697320636f60448201526736b6bab734ba3c9760c11b6064820152608490fd5b5091903461024957602092836003193601126101755780356001600160401b0381116109495761065c903690830161227c565b6003548351637b7fcfed60e01b815283810187905260249692949291829082906001600160a01b031681806106938c82018b6123d6565b03915afa90811561093f57906106b0918791610922575b506125bb565b3385528481526106cf836106c6848820876123fb565b01541515612602565b338552848152826106e2838720866123fb565b01543386526001808352838720545f1998919290898101908111610910578103610808575b5033875281835283872097885480156107f6570191610726838a612354565b9290926107e6575092879594928987846107739761074583975461237d565b90816107a6575b505050505533825281815281856107658583208a6123fb565b0155338252528320846123fb565b015561077f33916124eb565b7fdd403bcc860194e697bd48a94ad259a004827525ef954ad73b044e400f3adfe08380a380f35b8390601f83116001146107c157505050555b838b808061074c565b6107df90848394959352601f898520950160051c850190850161250b565b55556107b8565b634e487b7160e01b895288875288fd5b634e487b7160e01b8952603187528289fd5b3388528284528488208054908a82019182116108fe579061082891612354565b5033895283855261083b82878b20612354565b6108ed57906108499161265e565b338852878452858589208486528561086384898d20612354565b508851928c918054906108758261237d565b91868b821691825f146108d557505060011461089e575b5050815282900301902001555f610707565b909192508d528c888482205b8383106108be57505050830190835f61088c565b8054878401528d97508b95909201918a91016108aa565b925094505060ff19168352801515028201915f61088c565b634e487b7160e01b8a52898852838afd5b634e487b7160e01b8a5260118852838afd5b634e487b7160e01b8952601187528289fd5b6109399150833d851161046a5761045c8183612247565b5f6106aa565b83513d88823e3d90fd5b8380fd5b503461017557606036600319011261017557610967612217565b90602435906001600160401b0382116109b7576109869136910161227c565b604435939091906001600160a01b03851685036109b45750926109ab91602094612a61565b90519015158152f35b80fd5b8480fd5b5091346109b45760603660031901126109b45782356001600160401b038111610249576109eb903690850161227c565b906109f4612231565b600354845163cbe02a9f60e01b81526020818801819052966001600160a01b0393929091908890829086168180610a2e602482018c6123d6565b03915afa908115610b30579084918691610b13575b50168033149081610b09575b5080610aea575b15610a8f5750918491610a87949316808252818752604435610a7a848420866123fb565b55815280865220906123fb565b549051908152f35b855162461bcd60e51b8152908101879052602f60248201527f4e6f742074686520637265642061636365737320636f6e7472616374206f722060448201526e2ab9b2b9103737ba1036b2b6b132b960891b6064820152608490fd5b50828216845283875280610b00878620876123fb565b01541515610a56565b905015155f610a4f565b610b2a9150893d8b1161052f576105218183612247565b5f610a43565b87513d87823e3d90fd5b503461017557610b4936612313565b6003548451637b7fcfed60e01b8152602081860181905293956001600160a01b0392831695909493909291848180610b84602482018c6123d6565b03818a5afa908115610d9c57839291610ba3918b91610d8557506125bb565b338952888552610bb9846106c6888c208b6123fb565b1694858852878452610bda83610bd1878b208a6123fb565b01541515612738565b610be68633141561279b565b838551809263cbe02a9f60e01b825282868301528180610c09602482018d6123d6565b03915afa908115610d7b5790610c2992918991610d5e575b5016156127e7565b8386528582526001610c3d848820876123fb565b013387528252610c508387205415612842565b838652858252610c62838720866123fb565b610c6c81546128a2565b9055838652858252610c80838720866123fb565b54610c8a866124eb565b8451918252855f80516020612aa3833981519152854294a4838652858252610cc0336002610cba868a20896123fb565b01612598565b8386528582526002610cd4848820876123fb565b01545f19810191908211610d4b5750907fd0f5d24e816c9fc4cba0f35b280898648e66604fc44212736e778bfefc338b0f918487528682526001610d1a858920886123fb565b01338852825283872055838652858152610d40610d39848820876123fb565b54956124eb565b92519485523394a480f35b634e487b7160e01b875260119052602486fd5b610d759150853d871161052f576105218183612247565b5f610c21565b85513d8a823e3d90fd5b6109399150873d891161046a5761045c8183612247565b86513d8b823e3d90fd5b505034610249576020906109ab610dbc366122d1565b9061297d565b5034610175578160209360ff9261027b86610ddc36612313565b93828751948386809551938492016123b5565b503461017557606036600319011261017557610e09612217565b610e11612231565b916044356001600160401b038111610e7a57916001610e6a869593610e3c602099963690830161227c565b90610e5c848060a01b0380961691828952888c526101428a8a20856123fb565b8652858952868620906123fb565b0191168252845220549051908152f35b8580fd5b503461017557610e8d36612313565b6003548451637b7fcfed60e01b8152602081860181905293956001600160a01b0392831695909493909291848180610ec8602482018c6123d6565b03818a5afa908115610d9c57839291610ee7918b91610d8557506125bb565b338952888552610efd846106c6888c208b6123fb565b1694858852878452610f1583610bd1878b208a6123fb565b610f218633141561279b565b838551809263cbe02a9f60e01b825282868301528180610f44602482018d6123d6565b03915afa908115610d7b5790610f6392918991610d5e575016156127e7565b8386528582526001610f77848820876123fb565b013387528252610f8a8387205415612842565b838652858252610f9c838720866123fb565b610fa681546128d2565b9055838652858252610fba838720866123fb565b54610fc4866124eb565b8451918252855f80516020612aa3833981519152854294a4838652858252610ff4336003610cba868a20896123fb565b8386528582526003611008848820876123fb565b01545f19810191908211610d4b5750906110427f8e3dd53aaad1909975de245668134b898a443d9d797f6a14e77b5cd0606ed541926128e3565b8487528682526001610d1a858920886123fb565b50503461024957816003193601126102495760035490516001600160a01b039091168152602090f35b50346101755761108e36612313565b6003548451637b7fcfed60e01b8152602081860181905293956001600160a01b03928316959094939092918481806110c9602482018c6123d6565b03818a5afa908115610d9c578392916110e8918b91610d8557506125bb565b3389528885526110fe846106c6888c208b6123fb565b169485885287845261111683610bd1878b208a6123fb565b6111228633141561279b565b838551809263cbe02a9f60e01b825282868301528180611145602482018d6123d6565b03915afa908115610d7b576111649183918a91611474575016156127e7565b8487528683526001611178858920886123fb565b013388528352868481205413156114135784875286835261119b848820876123fb565b6111a581546128d2565b90558487528683526111b9848820876123fb565b546111c3876124eb565b8551918252865f80516020612aa3833981519152864294a484875286835260016111ef858920886123fb565b013388528352838720549085885287845260029261121d600185611215898d208c6123fb565b0154116128f8565b86895288855283611230878b208a6123fb565b01545f1991908281019081116114005784036112bd575b50505050906112a87f6c5cfc2553aaffd4cd0342765cdbca370cda07554f00e4e5112884eae468e299928588528783526001611285868a20896123fb565b01338952835287858120558588528783526112a2858920886123fb565b0161293d565b838652858152610d40610d39848820876123fb565b878a52898652846112d0888c208b6123fb565b0190888b528a8752856112e5898d208c6123fb565b01549283019283116113ed57508261139f85876113588d8f808f988f929e7f6c5cfc2553aaffd4cd0342765cdbca370cda07554f00e4e5112884eae468e2999f819f9d6112a89f9d61133a9061137d95612354565b90549060031b1c16918c82525261135e8888611358878720896123fb565b01612354565b90919082549060031b9160018060a01b03809116831b921b1916179055565b888152808d526001611391838320856123fb565b01988152808d5220906123fb565b90549060031b1c168a52845280868a2055866113ba896124eb565b87519283527fd6fa86004958e4fadc7035e661e86172c72f1ea51e79e8bf8bd3f4103663e8e3863394a491925f80611247565b634e487b7160e01b8b526011905260248afd5b634e487b7160e01b8b526011825260248bfd5b50915162461bcd60e51b815291820152603660248201527f596f752068617665206e6f7420676976656e206120706f73697469766520637260448201527532b2103a37903a3434b99036b2b6b132b9103cb2ba1760511b6064820152608490fd5b610d759150863d881161052f576105218183612247565b509190346102495761149c36612313565b600354835163cbe02a9f60e01b80825260208289018190529793959493926024926001600160a01b0392918316918a82806114d98882018b6123d6565b0381865afa918215610591578a92611819575b50875163b3f6702d60e01b81528681018c90528b818061150e8982018c6123d6565b0381875afa90811561056857859182918e8e926117fc575b505016331492836117f1575b50508115611799575b5015611745578886518092631efb39a960e11b8252828783015281806115638882018b6123d6565b03915afa90811561173b57611584916001918a916117245750151514612494565b84519084519189818188019461159b8183886123b5565b8101878152030190209616958688528852600160ff86892054161515036116ed578533146116ab57876115d89186518093819288519283916123b5565b8101858152030190208587528752838620805460ff191690558351635848e2a360e11b815280830186905290810184905286818061161960448201876123d6565b0381305afa9081156116a15792867fe19753ef16cb08d80c81e7c26df1578544dc02c0a7538cf0d3fc2355dc180bca93600161043b948998978491611684575b50151514611669575b50506124eb565b868252818a5261167b868320846123fb565b0155865f611662565b61169b91508c8d3d1061046a5761045c8183612247565b5f611659565b84513d88823e3d90fd5b845162461bcd60e51b8152808401899052601d818401527f596f752063616e6e6f7420756e696e7669746520796f757273656c662e0000006044820152606490fd5b845162461bcd60e51b81528084018990526012818401527113595b58995c88139bdd08125b9d9a5d195960721b6044820152606490fd5b61046491508b3d8d1161046a5761045c8183612247565b86513d8a823e3d90fd5b855162461bcd60e51b81528085018a90526029818501527f596f7520646f6e742068617665207065726d697373696f6e20756e696e76697460448201526865204d656d6265727360b81b6064820152608490fd5b9050865190815289858201528981806117b48782018a6123d6565b0381855afa908115610536579083918a916117d4575b501633145f61153b565b6117eb91508b3d8d1161052f576105218183612247565b5f6117ca565b16159150835f611532565b6118129250803d1061052f576105218183612247565b5f8e611526565b6118319192508b3d8d1161052f576105218183612247565b905f6114ec565b50919034610249578060031936011261024957611853612217565b6001600160a01b031682526001602081815282842080549194916024359190821015610175579061188391612354565b959095611940575082519485928282549261189d8461237d565b938487528884821691825f146119165750506001146118d8575b8588610171896118c9848a0385612247565b519282849384528301906123d6565b87945081939291528383205b8284106118fe57505050820101816118c96101715f6118b7565b8054848a0186015288955087949093019281016118e4565b60ff19168882015294151560051b870190940194508593506118c9925061017191505f90506118b7565b634e487b7160e01b8252819052602490fd5b50903461017557602080600319360112610949576001600160401b038335818111610e7a57611984903690860161227c565b9360018060a01b0360035416845192637b7fcfed60e01b845284838501526024938581806119b48882018c6123d6565b0381865afa908115610536578991611d7c575b5015611d3f57338852878552826119e0878a20896123fb565b0154611ce9578486518093631efb39a960e11b825282868301528180611a088982018d6123d6565b03915afa91821561173b578892611cca575b5060018092151514611c47575b3388528185528588208054908115611bec575b5050338852818552858820805490600160401b821015611bda5790611a63918482018155612354565b919091611bc9578751908111611bb757611a8781611a81845461237d565b84612521565b8086601f8211600114611b5a578a91611b4f575b505f19600383901b1c191690831b1790555b3387528352838620545f19810192908311611b3e57509285600393611afb93611b0d96338452838352611ae28585208a6123fb565b0155338252818152611b016002611afb8585208a6123fb565b01612566565b338252528520846123fb565b611b1733916124eb565b7ff038f0d708fc70f18d5815d07a62a3b40d2035dc6af7429865f612242ff870588380a380f35b634e487b7160e01b87526011825286fd5b90508801515f611a9b565b838b52878b2085935090601f1983168c5b8a8d838310611ba2575050508311611b8a575b5050811b019055611aad565b8a01515f1960f88460031b161c191690555f80611b7e565b84015185558896909401939283019201611b6b565b634e487b7160e01b8952604184528489fd5b634e487b7160e01b89528884528489fd5b634e487b7160e01b8a5260418552858afd5b600160401b821015611bda5790611c07918482018155612354565b611bc95780611c175f925461237d565b601f8111611c29575b50555f80611a3a565b818b52878b20611c4191601f0160051c81019061250b565b5f611c20565b8551858181611c5c8b838151938492016123b5565b81018681520301902033895285528588205460ff1615158214611a2757855162461bcd60e51b81528084018690526026818601527f596f7520617265206e6f7420696e766974656420746f207468697320636f6d6d6044820152653ab734ba3c9760d11b6064820152608490fd5b611ce2919250853d871161046a5761045c8183612247565b905f611a1a565b855162461bcd60e51b8152808401869052602b818601527f596f752061726520616c72656164792061206d656d626572206f66207468697360448201526a1031b7b6b6bab734ba3c9760a91b6064820152608490fd5b855162461bcd60e51b81528084018690526018818601527710dbdb5b5d5b9a5d1e48111bd95cc81b9bdd08115e1a5cdd60421b6044820152606490fd5b611d939150863d881161046a5761045c8183612247565b5f6119c7565b503461017557611da836612313565b600380548551637b7fcfed60e01b8152602081870181905294966001600160a01b0392831696909594909291858180611de4602482018d6123d6565b03818b5afa90811561214657839291611e03918c9161212f57506125bb565b338a52898652611e19846106c6898d208c6123fb565b1695868952888552611e3183610bd1888c208b6123fb565b611e3d8733141561279b565b848651809263cbe02a9f60e01b825282868301528180611e618d60248301906123d6565b03915afa908115610d9c57611e809183918b91612118575016156127e7565b8588528784526001611e94868a20896123fb565b013389528452878581205412156120b657858852878452611eb7858920886123fb565b611ec181546128a2565b9055858852878452611ed5858920886123fb565b54611edf886124eb565b8651918252875f80516020612aa3833981519152874294a48588528784526001611f0b868a20896123fb565b013389528452611f1d858920546128e3565b91868952888552611f36600185611215898d208c6123fb565b86895288855283611f49878b208a6123fb565b01545f199190828101908111611400578403611f9e575b50505050906112a87fd6d87a1ec8d7320486a7705035a72a09149f3c5e25dcccb14a1c99eebc86d6c0928588528783526001611285868a20896123fb565b878a5289865284611fb1888c208b6123fb565b0190888b528a875285611fc6898d208c6123fb565b01549283019283116113ed57509285888461206584898f8f8e611358927fd6d87a1ec8d7320486a7705035a72a09149f3c5e25dcccb14a1c99eebc86d6c09f9e9c61203a906112a89f6120799e61201c91612354565b905490881b1c168a8352828c5261135e8888611358878720896123fb565b80612044876128e3565b9a8a82528181526001612059858420876123fb565b019a82525220906123fb565b905490871b1c168c528652878b20556128e3565b86612083896124eb565b87519283527fd6fa86004958e4fadc7035e661e86172c72f1ea51e79e8bf8bd3f4103663e8e3863394a491925f80611f60565b845162461bcd60e51b8152808301859052603660248201527f596f752068617665206e6f7420676976656e2061206e6567617469766520637260448201527532b2103a37903a3434b99036b2b6b132b9103cb2ba1760511b6064820152608490fd5b610d759150873d891161052f576105218183612247565b6109399150883d8a1161046a5761045c8183612247565b87513d8c823e3d90fd5b50346101755760203660031901126101755761216a612217565b6002546001600160a01b039391929190841633036121985750501660018060a01b0319600354161760035580f35b906020606492519162461bcd60e51b835282015260166024820152752737ba103a34329031b7b73a3930b1ba1037bbb732b960511b6044820152fd5b50346101755761220b82602094610a87936121ee366122d1565b949060018060a01b031691828452838952610142858520876123fb565b815280865220906123fb565b600435906001600160a01b038216820361222d57565b5f80fd5b602435906001600160a01b038216820361222d57565b90601f801991011681019081106001600160401b0382111761226857604052565b634e487b7160e01b5f52604160045260245ffd5b81601f8201121561222d578035906001600160401b03821161226857604051926122b0601f8401601f191660200185612247565b8284526020838301011161222d57815f926020809301838601378301015290565b90604060031983011261222d576004356001600160a01b038116810361222d5791602435906001600160401b03821161222d576123109160040161227c565b90565b604060031982011261222d57600435906001600160401b03821161222d5761233d9160040161227c565b906024356001600160a01b038116810361222d5790565b8054821015612369575f5260205f2001905f90565b634e487b7160e01b5f52603260045260245ffd5b90600182811c921680156123ab575b602083101461239757565b634e487b7160e01b5f52602260045260245ffd5b91607f169161238c565b5f5b8381106123c65750505f910152565b81810151838201526020016123b7565b906020916123ef815180928185528580860191016123b5565b601f01601f1916010190565b6020906124159282604051948386809551938492016123b5565b82019081520301902090565b9081518082526020808093019301915f5b828110612440575050505090565b83516001600160a01b031685529381019392810192600101612432565b9081602091031261222d57516001600160a01b038116810361222d5790565b9081602091031261222d5751801515810361222d5790565b1561249b57565b60405162461bcd60e51b815260206004820152602260248201527f5468697320636f6d6d756e697479206973206e6f7420696e76697465206f6e6c6044820152613c9760f11b6064820152608490fd5b612503906020604051928284809451938492016123b5565b810103902090565b818110612516575050565b5f815560010161250b565b9190601f811161253057505050565b61255a925f5260205f20906020601f840160051c8301931061255c575b601f0160051c019061250b565b565b909150819061254d565b8054600160401b8110156122685761258391600182018155612354565b81549060018060a01b039060031b1b19169055565b80549190600160401b831015612268578261135e91600161255a95018155612354565b156125c257565b60405162461bcd60e51b815260206004820152601860248201527710dbdb5b5d5b9a5d1e48111bd95cc8139bdd08115e1a5cdd60421b6044820152606490fd5b1561260957565b60405162461bcd60e51b815260206004820152602760248201527f596f7520617265206e6f742061206d656d626572206f66207468697320636f6d60448201526636bab734ba3c9760c91b6064820152608490fd5b9080821461273457612670815461237d565b906001600160401b0382116122685781906126958261268f865461237d565b86612521565b5f90601f83116001146126c9575f926126be575b50508160011b915f199060031b1c1916179055565b015490505f806126a9565b81526020808220858352818320935090601f1985169083905b82821061271b575050908460019594939210612703575b505050811b019055565b01545f1960f88460031b161c191690555f80806126f9565b84958192958501548155600180910196019401906126e2565b5050565b1561273f57565b60405162461bcd60e51b815260206004820152602e60248201527f546172676574206d656d62657220646f65736e2774206578697374206f66207460448201526d3434b99031b7b6b6bab734ba3c9760911b6064820152608490fd5b156127a257565b60405162461bcd60e51b815260206004820152601f60248201527f596f752063616e6e6f74206564697420796f7572206f776e2063726564732e006044820152606490fd5b156127ee57565b60405162461bcd60e51b815260206004820152602660248201527f436f6d6d6d756e6974792055736573206120637265642061636365737320636f6044820152651b9d1c9858dd60d21b6064820152608490fd5b1561284957565b60405162461bcd60e51b815260206004820152602b60248201527f596f7527766520616c726561647920676976656e2061206372656420746f207460448201526a3434b99036b2b6b132b91760a91b6064820152608490fd5b9060018201915f6001841291129080158216911516176128be57565b634e487b7160e01b5f52601160045260245ffd5b905f1982019182136001166128be57565b90815f03918083055f1914901517156128be57565b156128ff57565b60405162461bcd60e51b815260206004820152601660248201527554686973207573657220686173206e6f20437265647360501b6044820152606490fd5b80548015612969575f1901906129538282612354565b81549060018060a01b039060031b1b1916905555565b634e487b7160e01b5f52603160045260245ffd5b6001600160a01b03165f9081526020819052604090206004916129a091906123fb565b01546129aa575f90565b600190565b156129b657565b60405162461bcd60e51b815260206004820152602860248201527f4d656d62657220446f6573204e6f7420457869737420466f72207468697320636044820152676f6d6d756e69747960c01b6064820152608490fd5b906040519182815491828252602092838301915f52835f20935f905b828210612a3e5750505061255a92500383612247565b85546001600160a01b031684526001958601958895509381019390910190612a28565b6001600160a01b039081165f908152602081905260408120909392600191612a88916123fb565b91909216835201602052604081205415612310575060019056fe1956a939e1963127a6802bc7dff8c43f9bc551a0bf97efc611706570e4108402a26469706673582212200246fb86b05815aa18483d77b63d7254430759e2a48f15ad795b79633a44fa8364736f6c63430008140033","opcodes":"PUSH1 0x80 DUP1 PUSH1 0x40 MSTORE CALLVALUE PUSH2 0x28 JUMPI PUSH1 0x2 DUP1 SLOAD PUSH1 0x1 PUSH1 0x1 PUSH1 0xA0 SHL SUB NOT AND CALLER OR SWAP1 SSTORE PUSH2 0x2AF8 SWAP1 DUP2 PUSH2 0x2D DUP3 CODECOPY RETURN JUMPDEST PUSH0 DUP1 REVERT INVALID PUSH1 0x40 PUSH1 0x80 DUP2 MSTORE PUSH1 0x4 SWAP1 DUP2 CALLDATASIZE LT ISZERO PUSH2 0x14 JUMPI PUSH0 DUP1 REVERT JUMPDEST PUSH0 SWAP2 DUP3 CALLDATALOAD PUSH1 0xE0 SHR DUP1 PUSH4 0x2B5DF59 EQ PUSH2 0x21D4 JUMPI DUP1 PUSH4 0x19F553E2 EQ PUSH2 0x2150 JUMPI DUP1 PUSH4 0x4F64AEDD EQ PUSH2 0x1D99 JUMPI DUP1 PUSH4 0x5450FDD5 EQ PUSH2 0x1952 JUMPI DUP1 PUSH4 0x6255DE33 EQ PUSH2 0x1838 JUMPI DUP1 PUSH4 0x6B039BB4 EQ PUSH2 0x148B JUMPI DUP1 PUSH4 0x8C5956C4 EQ PUSH2 0x107F JUMPI DUP1 PUSH4 0x8E634029 EQ PUSH2 0x1056 JUMPI DUP1 PUSH4 0x99D03BF2 EQ PUSH2 0xE7E JUMPI DUP1 PUSH4 0x9C419DC9 EQ PUSH2 0xDEF JUMPI DUP1 PUSH4 0xA4828578 EQ PUSH2 0xDC2 JUMPI DUP1 PUSH4 0xB091C546 EQ PUSH2 0xDA6 JUMPI DUP1 PUSH4 0xB66FDAB4 EQ PUSH2 0xB3A JUMPI DUP1 PUSH4 0xBF2A3B74 EQ PUSH2 0x9BB JUMPI DUP1 PUSH4 0xC783ACB4 EQ PUSH2 0x94D JUMPI DUP1 PUSH4 0xCA4F880B EQ PUSH2 0x629 JUMPI DUP1 PUSH4 0xCDB43EA4 EQ PUSH2 0x29F JUMPI DUP1 PUSH4 0xE636F314 EQ PUSH2 0x24D JUMPI DUP1 PUSH4 0xEF0ED360 EQ PUSH2 0x199 JUMPI DUP1 PUSH4 0xF3FAF99A EQ PUSH2 0x179 JUMPI PUSH4 0xFBC3D96C EQ PUSH2 0x105 JUMPI PUSH0 DUP1 REVERT JUMPDEST CALLVALUE PUSH2 0x175 JUMPI PUSH1 0x3 PUSH2 0x158 PUSH2 0x14B DUP5 PUSH2 0x171 SWAP7 PUSH2 0x15E SWAP6 PUSH2 0x124 CALLDATASIZE PUSH2 0x22D1 JUMP JUMPDEST SWAP5 SWAP1 PUSH1 0x1 DUP1 PUSH1 0xA0 SHL SUB AND SWAP2 DUP3 DUP5 MSTORE DUP4 PUSH1 0x20 MSTORE PUSH2 0x142 DUP6 DUP6 KECCAK256 DUP8 PUSH2 0x23FB JUMP JUMPDEST ADD SLOAD ISZERO ISZERO PUSH2 0x29AF JUMP JUMPDEST DUP2 MSTORE DUP1 PUSH1 0x20 MSTORE KECCAK256 SWAP1 PUSH2 0x23FB JUMP JUMPDEST ADD PUSH2 0x2A0C JUMP JUMPDEST SWAP1 MLOAD SWAP2 DUP3 SWAP2 PUSH1 0x20 DUP4 MSTORE PUSH1 0x20 DUP4 ADD SWAP1 PUSH2 0x2421 JUMP JUMPDEST SUB SWAP1 RETURN JUMPDEST DUP3 DUP1 REVERT JUMPDEST POP CALLVALUE PUSH2 0x175 JUMPI PUSH1 0x2 PUSH2 0x158 PUSH2 0x14B DUP5 PUSH2 0x171 SWAP7 PUSH2 0x15E SWAP6 PUSH2 0x124 CALLDATASIZE PUSH2 0x22D1 JUMP JUMPDEST POP SWAP2 SWAP1 CALLVALUE PUSH2 0x249 JUMPI PUSH2 0x171 SWAP1 PUSH2 0x221 PUSH2 0x21B PUSH1 0x3 PUSH2 0x214 PUSH2 0x1DA PUSH2 0x1BC CALLDATASIZE PUSH2 0x22D1 JUMP JUMPDEST SWAP2 SWAP1 PUSH1 0x1 DUP1 PUSH1 0xA0 SHL SUB AND SWAP10 DUP11 DUP11 MSTORE DUP10 PUSH1 0x20 MSTORE PUSH2 0x142 DUP9 DUP12 KECCAK256 DUP5 PUSH2 0x23FB JUMP JUMPDEST DUP9 DUP9 MSTORE DUP8 PUSH1 0x20 MSTORE DUP6 PUSH2 0x1EE DUP2 DUP11 KECCAK256 DUP4 PUSH2 0x23FB JUMP JUMPDEST SLOAD SWAP9 DUP11 DUP2 MSTORE DUP1 PUSH1 0x20 MSTORE PUSH1 0x2 PUSH2 0x205 DUP4 DUP4 KECCAK256 DUP6 PUSH2 0x23FB JUMP JUMPDEST ADD SWAP11 DUP2 MSTORE DUP1 PUSH1 0x20 MSTORE KECCAK256 SWAP1 PUSH2 0x23FB JUMP JUMPDEST ADD SWAP6 PUSH2 0x2A0C JUMP JUMPDEST SWAP5 PUSH2 0x2A0C JUMP JUMPDEST PUSH2 0x23C DUP3 MLOAD SWAP6 DUP7 SWAP6 DUP7 MSTORE PUSH1 0x60 PUSH1 0x20 DUP8 ADD MSTORE PUSH1 0x60 DUP7 ADD SWAP1 PUSH2 0x2421 JUMP JUMPDEST SWAP2 DUP5 DUP4 SUB SWAP1 DUP6 ADD MSTORE PUSH2 0x2421 JUMP JUMPDEST POP DUP1 REVERT JUMPDEST POP CALLVALUE PUSH2 0x175 JUMPI DUP2 PUSH1 0x20 SWAP4 PUSH1 0xFF SWAP3 PUSH2 0x27B DUP7 PUSH2 0x267 CALLDATASIZE PUSH2 0x22D1 JUMP JUMPDEST SWAP1 SWAP4 DUP3 DUP8 MLOAD SWAP5 DUP4 DUP7 DUP1 SWAP6 MLOAD SWAP4 DUP5 SWAP3 ADD PUSH2 0x23B5 JUMP JUMPDEST DUP3 ADD SWAP1 DUP2 MSTORE SUB ADD SWAP1 KECCAK256 PUSH1 0x1 PUSH1 0x1 PUSH1 0xA0 SHL SUB SWAP1 SWAP2 AND DUP3 MSTORE DUP6 MSTORE KECCAK256 SLOAD SWAP2 MLOAD SWAP2 AND ISZERO ISZERO DUP2 MSTORE RETURN JUMPDEST POP SWAP2 SWAP1 CALLVALUE PUSH2 0x249 JUMPI PUSH2 0x2B0 CALLDATASIZE PUSH2 0x2313 JUMP JUMPDEST SWAP2 SWAP1 PUSH1 0x1 DUP1 PUSH1 0xA0 SHL SUB DUP1 SWAP4 AND SWAP3 DUP4 DUP6 MSTORE PUSH1 0x20 SWAP6 DUP6 DUP8 MSTORE DUP1 PUSH2 0x2D3 DUP6 DUP9 KECCAK256 DUP6 PUSH2 0x23FB JUMP JUMPDEST ADD SLOAD PUSH2 0x5D5 JUMPI DUP4 MLOAD SWAP2 DUP4 MLOAD SWAP3 DUP9 DUP2 DUP2 DUP8 ADD SWAP6 PUSH2 0x2F0 DUP2 DUP4 DUP10 PUSH2 0x23B5 JUMP JUMPDEST DUP2 ADD DUP6 DUP2 MSTORE SUB ADD SWAP1 KECCAK256 DUP7 DUP9 MSTORE DUP9 MSTORE PUSH1 0xFF DUP6 DUP9 KECCAK256 SLOAD AND PUSH2 0x59B JUMPI DUP1 PUSH1 0x3 SLOAD AND SWAP1 DUP6 MLOAD SWAP1 PUSH4 0xCBE02A9F PUSH1 0xE0 SHL DUP1 DUP4 MSTORE DUP11 DUP6 DUP5 ADD MSTORE DUP11 DUP4 DUP1 PUSH2 0x332 PUSH1 0x24 DUP3 ADD DUP12 PUSH2 0x23D6 JUMP JUMPDEST SUB DUP2 DUP8 GAS STATICCALL SWAP3 DUP4 ISZERO PUSH2 0x591 JUMPI DUP11 SWAP4 PUSH2 0x572 JUMPI JUMPDEST POP DUP8 MLOAD PUSH4 0xB3F6702D PUSH1 0xE0 SHL DUP2 MSTORE DUP6 DUP2 ADD DUP13 SWAP1 MSTORE DUP12 DUP2 DUP1 PUSH2 0x368 PUSH1 0x24 DUP3 ADD DUP13 PUSH2 0x23D6 JUMP JUMPDEST SUB DUP2 DUP9 GAS STATICCALL SWAP1 DUP2 ISZERO PUSH2 0x568 JUMPI SWAP1 DUP4 SWAP2 DUP13 SWAP2 PUSH2 0x54B JUMPI JUMPDEST POP AND CALLER EQ SWAP3 DUP4 PUSH2 0x540 JUMPI JUMPDEST POP DUP3 ISZERO PUSH2 0x4CE JUMPI JUMPDEST POP POP ISZERO PUSH2 0x47B JUMPI DUP8 DUP6 MLOAD DUP1 SWAP3 PUSH4 0x1EFB39A9 PUSH1 0xE1 SHL DUP3 MSTORE DUP3 DUP6 DUP4 ADD MSTORE DUP2 DUP1 PUSH2 0x3BB PUSH1 0x24 DUP3 ADD DUP11 PUSH2 0x23D6 JUMP JUMPDEST SUB SWAP2 GAS STATICCALL SWAP1 DUP2 ISZERO PUSH2 0x471 JUMPI DUP9 PUSH32 0xBEE566E9904E3C5E202405F159F39BC31121D728F2772CABC7CF243BCF63A647 SWAP5 PUSH2 0x43B SWAP5 PUSH2 0x40A PUSH1 0x1 DUP12 SWAP11 SWAP10 SWAP7 PUSH2 0x41A SWAP7 DUP15 SWAP2 PUSH2 0x444 JUMPI JUMPDEST POP ISZERO ISZERO EQ PUSH2 0x2494 JUMP JUMPDEST DUP8 MLOAD DUP1 SWAP5 DUP2 SWAP4 DUP8 MLOAD SWAP3 DUP4 SWAP2 PUSH2 0x23B5 JUMP JUMPDEST DUP3 ADD SWAP1 DUP2 MSTORE SUB ADD SWAP1 KECCAK256 DUP6 DUP9 MSTORE DUP9 MSTORE DUP4 DUP8 KECCAK256 DUP1 SLOAD PUSH1 0xFF NOT AND PUSH1 0x1 OR SWAP1 SSTORE PUSH2 0x24EB JUMP JUMPDEST SWAP2 MLOAD SWAP5 DUP1 LOG3 DUP2 MSTORE RETURN JUMPDEST PUSH2 0x464 SWAP2 POP DUP7 RETURNDATASIZE DUP9 GT PUSH2 0x46A JUMPI JUMPDEST PUSH2 0x45C DUP2 DUP4 PUSH2 0x2247 JUMP JUMPDEST DUP2 ADD SWAP1 PUSH2 0x247C JUMP JUMPDEST PUSH0 PUSH2 0x401 JUMP JUMPDEST POP RETURNDATASIZE PUSH2 0x452 JUMP JUMPDEST DUP6 MLOAD RETURNDATASIZE DUP10 DUP3 RETURNDATACOPY RETURNDATASIZE SWAP1 REVERT JUMPDEST DUP5 MLOAD PUSH3 0x461BCD PUSH1 0xE5 SHL DUP2 MSTORE DUP1 DUP4 ADD DUP10 SWAP1 MSTORE PUSH1 0x27 PUSH1 0x24 DUP3 ADD MSTORE PUSH32 0x596F7520646F6E742068617665207065726D697373696F6E20696E7669746520 PUSH1 0x44 DUP3 ADD MSTORE PUSH7 0x4D656D62657273 PUSH1 0xC8 SHL PUSH1 0x64 DUP3 ADD MSTORE PUSH1 0x84 SWAP1 REVERT JUMPDEST SWAP1 SWAP2 POP DUP7 MLOAD SWAP1 DUP2 MSTORE DUP10 DUP5 DUP3 ADD MSTORE DUP10 DUP2 DUP1 PUSH2 0x4EB PUSH1 0x24 DUP3 ADD DUP11 PUSH2 0x23D6 JUMP JUMPDEST SUB DUP2 DUP7 GAS STATICCALL SWAP1 DUP2 ISZERO PUSH2 0x536 JUMPI DUP10 SWAP2 PUSH2 0x509 JUMPI JUMPDEST POP AND CALLER EQ PUSH0 DUP1 PUSH2 0x391 JUMP JUMPDEST PUSH2 0x529 SWAP2 POP DUP11 RETURNDATASIZE DUP13 GT PUSH2 0x52F JUMPI JUMPDEST PUSH2 0x521 DUP2 DUP4 PUSH2 0x2247 JUMP JUMPDEST DUP2 ADD SWAP1 PUSH2 0x245D JUMP JUMPDEST PUSH0 PUSH2 0x4FE JUMP JUMPDEST POP RETURNDATASIZE PUSH2 0x517 JUMP JUMPDEST DUP8 MLOAD RETURNDATASIZE DUP12 DUP3 RETURNDATACOPY RETURNDATASIZE SWAP1 REVERT JUMPDEST DUP3 AND ISZERO SWAP3 POP PUSH0 PUSH2 0x389 JUMP JUMPDEST PUSH2 0x562 SWAP2 POP DUP14 DUP1 RETURNDATASIZE LT PUSH2 0x52F JUMPI PUSH2 0x521 DUP2 DUP4 PUSH2 0x2247 JUMP JUMPDEST PUSH0 PUSH2 0x37E JUMP JUMPDEST DUP10 MLOAD RETURNDATASIZE DUP14 DUP3 RETURNDATACOPY RETURNDATASIZE SWAP1 REVERT JUMPDEST PUSH2 0x58A SWAP2 SWAP4 POP DUP12 RETURNDATASIZE DUP14 GT PUSH2 0x52F JUMPI PUSH2 0x521 DUP2 DUP4 PUSH2 0x2247 JUMP JUMPDEST SWAP2 PUSH0 PUSH2 0x345 JUMP JUMPDEST DUP9 MLOAD RETURNDATASIZE DUP13 DUP3 RETURNDATACOPY RETURNDATASIZE SWAP1 REVERT JUMPDEST DUP5 MLOAD PUSH3 0x461BCD PUSH1 0xE5 SHL DUP2 MSTORE DUP1 DUP4 ADD DUP10 SWAP1 MSTORE PUSH1 0x14 PUSH1 0x24 DUP3 ADD MSTORE PUSH20 0x155CD95C88105B1C9958591E48125B9D9A5D1959 PUSH1 0x62 SHL PUSH1 0x44 DUP3 ADD MSTORE PUSH1 0x64 SWAP1 REVERT JUMPDEST DUP4 MLOAD PUSH3 0x461BCD PUSH1 0xE5 SHL DUP2 MSTORE SWAP1 DUP2 ADD DUP8 SWAP1 MSTORE PUSH1 0x28 PUSH1 0x24 DUP3 ADD MSTORE PUSH32 0x4D656D62657220616C726561647920657869737473206F66207468697320636F PUSH1 0x44 DUP3 ADD MSTORE PUSH8 0x36B6BAB734BA3C97 PUSH1 0xC1 SHL PUSH1 0x64 DUP3 ADD MSTORE PUSH1 0x84 SWAP1 REVERT JUMPDEST POP SWAP2 SWAP1 CALLVALUE PUSH2 0x249 JUMPI PUSH1 0x20 SWAP3 DUP4 PUSH1 0x3 NOT CALLDATASIZE ADD SLT PUSH2 0x175 JUMPI DUP1 CALLDATALOAD PUSH1 0x1 PUSH1 0x1 PUSH1 0x40 SHL SUB DUP2 GT PUSH2 0x949 JUMPI PUSH2 0x65C SWAP1 CALLDATASIZE SWAP1 DUP4 ADD PUSH2 0x227C JUMP JUMPDEST PUSH1 0x3 SLOAD DUP4 MLOAD PUSH4 0x7B7FCFED PUSH1 0xE0 SHL DUP2 MSTORE DUP4 DUP2 ADD DUP8 SWAP1 MSTORE PUSH1 0x24 SWAP7 SWAP3 SWAP5 SWAP3 SWAP2 DUP3 SWAP1 DUP3 SWAP1 PUSH1 0x1 PUSH1 0x1 PUSH1 0xA0 SHL SUB AND DUP2 DUP1 PUSH2 0x693 DUP13 DUP3 ADD DUP12 PUSH2 0x23D6 JUMP JUMPDEST SUB SWAP2 GAS STATICCALL SWAP1 DUP2 ISZERO PUSH2 0x93F JUMPI SWAP1 PUSH2 0x6B0 SWAP2 DUP8 SWAP2 PUSH2 0x922 JUMPI JUMPDEST POP PUSH2 0x25BB JUMP JUMPDEST CALLER DUP6 MSTORE DUP5 DUP2 MSTORE PUSH2 0x6CF DUP4 PUSH2 0x6C6 DUP5 DUP9 KECCAK256 DUP8 PUSH2 0x23FB JUMP JUMPDEST ADD SLOAD ISZERO ISZERO PUSH2 0x2602 JUMP JUMPDEST CALLER DUP6 MSTORE DUP5 DUP2 MSTORE DUP3 PUSH2 0x6E2 DUP4 DUP8 KECCAK256 DUP7 PUSH2 0x23FB JUMP JUMPDEST ADD SLOAD CALLER DUP7 MSTORE PUSH1 0x1 DUP1 DUP4 MSTORE DUP4 DUP8 KECCAK256 SLOAD PUSH0 NOT SWAP9 SWAP2 SWAP3 SWAP1 DUP10 DUP2 ADD SWAP1 DUP2 GT PUSH2 0x910 JUMPI DUP2 SUB PUSH2 0x808 JUMPI JUMPDEST POP CALLER DUP8 MSTORE DUP2 DUP4 MSTORE DUP4 DUP8 KECCAK256 SWAP8 DUP9 SLOAD DUP1 ISZERO PUSH2 0x7F6 JUMPI ADD SWAP2 PUSH2 0x726 DUP4 DUP11 PUSH2 0x2354 JUMP JUMPDEST SWAP3 SWAP1 SWAP3 PUSH2 0x7E6 JUMPI POP SWAP3 DUP8 SWAP6 SWAP5 SWAP3 DUP10 DUP8 DUP5 PUSH2 0x773 SWAP8 PUSH2 0x745 DUP4 SWAP8 SLOAD PUSH2 0x237D JUMP JUMPDEST SWAP1 DUP2 PUSH2 0x7A6 JUMPI JUMPDEST POP POP POP POP SSTORE CALLER DUP3 MSTORE DUP2 DUP2 MSTORE DUP2 DUP6 PUSH2 0x765 DUP6 DUP4 KECCAK256 DUP11 PUSH2 0x23FB JUMP JUMPDEST ADD SSTORE CALLER DUP3 MSTORE MSTORE DUP4 KECCAK256 DUP5 PUSH2 0x23FB JUMP JUMPDEST ADD SSTORE PUSH2 0x77F CALLER SWAP2 PUSH2 0x24EB JUMP JUMPDEST PUSH32 0xDD403BCC860194E697BD48A94AD259A004827525EF954AD73B044E400F3ADFE0 DUP4 DUP1 LOG3 DUP1 RETURN JUMPDEST DUP4 SWAP1 PUSH1 0x1F DUP4 GT PUSH1 0x1 EQ PUSH2 0x7C1 JUMPI POP POP POP SSTORE JUMPDEST DUP4 DUP12 DUP1 DUP1 PUSH2 0x74C JUMP JUMPDEST PUSH2 0x7DF SWAP1 DUP5 DUP4 SWAP5 SWAP6 SWAP4 MSTORE PUSH1 0x1F DUP10 DUP6 KECCAK256 SWAP6 ADD PUSH1 0x5 SHR DUP6 ADD SWAP1 DUP6 ADD PUSH2 0x250B JUMP JUMPDEST SSTORE SSTORE PUSH2 0x7B8 JUMP JUMPDEST PUSH4 0x4E487B71 PUSH1 0xE0 SHL DUP10 MSTORE DUP9 DUP8 MSTORE DUP9 REVERT JUMPDEST PUSH4 0x4E487B71 PUSH1 0xE0 SHL DUP10 MSTORE PUSH1 0x31 DUP8 MSTORE DUP3 DUP10 REVERT JUMPDEST CALLER DUP9 MSTORE DUP3 DUP5 MSTORE DUP5 DUP9 KECCAK256 DUP1 SLOAD SWAP1 DUP11 DUP3 ADD SWAP2 DUP3 GT PUSH2 0x8FE JUMPI SWAP1 PUSH2 0x828 SWAP2 PUSH2 0x2354 JUMP JUMPDEST POP CALLER DUP10 MSTORE DUP4 DUP6 MSTORE PUSH2 0x83B DUP3 DUP8 DUP12 KECCAK256 PUSH2 0x2354 JUMP JUMPDEST PUSH2 0x8ED JUMPI SWAP1 PUSH2 0x849 SWAP2 PUSH2 0x265E JUMP JUMPDEST CALLER DUP9 MSTORE DUP8 DUP5 MSTORE DUP6 DUP6 DUP10 KECCAK256 DUP5 DUP7 MSTORE DUP6 PUSH2 0x863 DUP5 DUP10 DUP14 KECCAK256 PUSH2 0x2354 JUMP JUMPDEST POP DUP9 MLOAD SWAP3 DUP13 SWAP2 DUP1 SLOAD SWAP1 PUSH2 0x875 DUP3 PUSH2 0x237D JUMP JUMPDEST SWAP2 DUP7 DUP12 DUP3 AND SWAP2 DUP3 PUSH0 EQ PUSH2 0x8D5 JUMPI POP POP PUSH1 0x1 EQ PUSH2 0x89E JUMPI JUMPDEST POP POP DUP2 MSTORE DUP3 SWAP1 SUB ADD SWAP1 KECCAK256 ADD SSTORE PUSH0 PUSH2 0x707 JUMP JUMPDEST SWAP1 SWAP2 SWAP3 POP DUP14 MSTORE DUP13 DUP9 DUP5 DUP3 KECCAK256 JUMPDEST DUP4 DUP4 LT PUSH2 0x8BE JUMPI POP POP POP DUP4 ADD SWAP1 DUP4 PUSH0 PUSH2 0x88C JUMP JUMPDEST DUP1 SLOAD DUP8 DUP5 ADD MSTORE DUP14 SWAP8 POP DUP12 SWAP6 SWAP1 SWAP3 ADD SWAP2 DUP11 SWAP2 ADD PUSH2 0x8AA JUMP JUMPDEST SWAP3 POP SWAP5 POP POP PUSH1 0xFF NOT AND DUP4 MSTORE DUP1 ISZERO ISZERO MUL DUP3 ADD SWAP2 PUSH0 PUSH2 0x88C JUMP JUMPDEST PUSH4 0x4E487B71 PUSH1 0xE0 SHL DUP11 MSTORE DUP10 DUP9 MSTORE DUP4 DUP11 REVERT JUMPDEST PUSH4 0x4E487B71 PUSH1 0xE0 SHL DUP11 MSTORE PUSH1 0x11 DUP9 MSTORE DUP4 DUP11 REVERT JUMPDEST PUSH4 0x4E487B71 PUSH1 0xE0 SHL DUP10 MSTORE PUSH1 0x11 DUP8 MSTORE DUP3 DUP10 REVERT JUMPDEST PUSH2 0x939 SWAP2 POP DUP4 RETURNDATASIZE DUP6 GT PUSH2 0x46A JUMPI PUSH2 0x45C DUP2 DUP4 PUSH2 0x2247 JUMP JUMPDEST PUSH0 PUSH2 0x6AA JUMP JUMPDEST DUP4 MLOAD RETURNDATASIZE DUP9 DUP3 RETURNDATACOPY RETURNDATASIZE SWAP1 REVERT JUMPDEST DUP4 DUP1 REVERT JUMPDEST POP CALLVALUE PUSH2 0x175 JUMPI PUSH1 0x60 CALLDATASIZE PUSH1 0x3 NOT ADD SLT PUSH2 0x175 JUMPI PUSH2 0x967 PUSH2 0x2217 JUMP JUMPDEST SWAP1 PUSH1 0x24 CALLDATALOAD SWAP1 PUSH1 0x1 PUSH1 0x1 PUSH1 0x40 SHL SUB DUP3 GT PUSH2 0x9B7 JUMPI PUSH2 0x986 SWAP2 CALLDATASIZE SWAP2 ADD PUSH2 0x227C JUMP JUMPDEST PUSH1 0x44 CALLDATALOAD SWAP4 SWAP1 SWAP2 SWAP1 PUSH1 0x1 PUSH1 0x1 PUSH1 0xA0 SHL SUB DUP6 AND DUP6 SUB PUSH2 0x9B4 JUMPI POP SWAP3 PUSH2 0x9AB SWAP2 PUSH1 0x20 SWAP5 PUSH2 0x2A61 JUMP JUMPDEST SWAP1 MLOAD SWAP1 ISZERO ISZERO DUP2 MSTORE RETURN JUMPDEST DUP1 REVERT JUMPDEST DUP5 DUP1 REVERT JUMPDEST POP SWAP2 CALLVALUE PUSH2 0x9B4 JUMPI PUSH1 0x60 CALLDATASIZE PUSH1 0x3 NOT ADD SLT PUSH2 0x9B4 JUMPI DUP3 CALLDATALOAD PUSH1 0x1 PUSH1 0x1 PUSH1 0x40 SHL SUB DUP2 GT PUSH2 0x249 JUMPI PUSH2 0x9EB SWAP1 CALLDATASIZE SWAP1 DUP6 ADD PUSH2 0x227C JUMP JUMPDEST SWAP1 PUSH2 0x9F4 PUSH2 0x2231 JUMP JUMPDEST PUSH1 0x3 SLOAD DUP5 MLOAD PUSH4 0xCBE02A9F PUSH1 0xE0 SHL DUP2 MSTORE PUSH1 0x20 DUP2 DUP9 ADD DUP2 SWAP1 MSTORE SWAP7 PUSH1 0x1 PUSH1 0x1 PUSH1 0xA0 SHL SUB SWAP4 SWAP3 SWAP1 SWAP2 SWAP1 DUP9 SWAP1 DUP3 SWAP1 DUP7 AND DUP2 DUP1 PUSH2 0xA2E PUSH1 0x24 DUP3 ADD DUP13 PUSH2 0x23D6 JUMP JUMPDEST SUB SWAP2 GAS STATICCALL SWAP1 DUP2 ISZERO PUSH2 0xB30 JUMPI SWAP1 DUP5 SWAP2 DUP7 SWAP2 PUSH2 0xB13 JUMPI JUMPDEST POP AND DUP1 CALLER EQ SWAP1 DUP2 PUSH2 0xB09 JUMPI JUMPDEST POP DUP1 PUSH2 0xAEA JUMPI JUMPDEST ISZERO PUSH2 0xA8F JUMPI POP SWAP2 DUP5 SWAP2 PUSH2 0xA87 SWAP5 SWAP4 AND DUP1 DUP3 MSTORE DUP2 DUP8 MSTORE PUSH1 0x44 CALLDATALOAD PUSH2 0xA7A DUP5 DUP5 KECCAK256 DUP7 PUSH2 0x23FB JUMP JUMPDEST SSTORE DUP2 MSTORE DUP1 DUP7 MSTORE KECCAK256 SWAP1 PUSH2 0x23FB JUMP JUMPDEST SLOAD SWAP1 MLOAD SWAP1 DUP2 MSTORE RETURN JUMPDEST DUP6 MLOAD PUSH3 0x461BCD PUSH1 0xE5 SHL DUP2 MSTORE SWAP1 DUP2 ADD DUP8 SWAP1 MSTORE PUSH1 0x2F PUSH1 0x24 DUP3 ADD MSTORE PUSH32 0x4E6F742074686520637265642061636365737320636F6E7472616374206F7220 PUSH1 0x44 DUP3 ADD MSTORE PUSH15 0x2AB9B2B9103737BA1036B2B6B132B9 PUSH1 0x89 SHL PUSH1 0x64 DUP3 ADD MSTORE PUSH1 0x84 SWAP1 REVERT JUMPDEST POP DUP3 DUP3 AND DUP5 MSTORE DUP4 DUP8 MSTORE DUP1 PUSH2 0xB00 DUP8 DUP7 KECCAK256 DUP8 PUSH2 0x23FB JUMP JUMPDEST ADD SLOAD ISZERO ISZERO PUSH2 0xA56 JUMP JUMPDEST SWAP1 POP ISZERO ISZERO PUSH0 PUSH2 0xA4F JUMP JUMPDEST PUSH2 0xB2A SWAP2 POP DUP10 RETURNDATASIZE DUP12 GT PUSH2 0x52F JUMPI PUSH2 0x521 DUP2 DUP4 PUSH2 0x2247 JUMP JUMPDEST PUSH0 PUSH2 0xA43 JUMP JUMPDEST DUP8 MLOAD RETURNDATASIZE DUP8 DUP3 RETURNDATACOPY RETURNDATASIZE SWAP1 REVERT JUMPDEST POP CALLVALUE PUSH2 0x175 JUMPI PUSH2 0xB49 CALLDATASIZE PUSH2 0x2313 JUMP JUMPDEST PUSH1 0x3 SLOAD DUP5 MLOAD PUSH4 0x7B7FCFED PUSH1 0xE0 SHL DUP2 MSTORE PUSH1 0x20 DUP2 DUP7 ADD DUP2 SWAP1 MSTORE SWAP4 SWAP6 PUSH1 0x1 PUSH1 0x1 PUSH1 0xA0 SHL SUB SWAP3 DUP4 AND SWAP6 SWAP1 SWAP5 SWAP4 SWAP1 SWAP3 SWAP2 DUP5 DUP2 DUP1 PUSH2 0xB84 PUSH1 0x24 DUP3 ADD DUP13 PUSH2 0x23D6 JUMP JUMPDEST SUB DUP2 DUP11 GAS STATICCALL SWAP1 DUP2 ISZERO PUSH2 0xD9C JUMPI DUP4 SWAP3 SWAP2 PUSH2 0xBA3 SWAP2 DUP12 SWAP2 PUSH2 0xD85 JUMPI POP PUSH2 0x25BB JUMP JUMPDEST CALLER DUP10 MSTORE DUP9 DUP6 MSTORE PUSH2 0xBB9 DUP5 PUSH2 0x6C6 DUP9 DUP13 KECCAK256 DUP12 PUSH2 0x23FB JUMP JUMPDEST AND SWAP5 DUP6 DUP9 MSTORE DUP8 DUP5 MSTORE PUSH2 0xBDA DUP4 PUSH2 0xBD1 DUP8 DUP12 KECCAK256 DUP11 PUSH2 0x23FB JUMP JUMPDEST ADD SLOAD ISZERO ISZERO PUSH2 0x2738 JUMP JUMPDEST PUSH2 0xBE6 DUP7 CALLER EQ ISZERO PUSH2 0x279B JUMP JUMPDEST DUP4 DUP6 MLOAD DUP1 SWAP3 PUSH4 0xCBE02A9F PUSH1 0xE0 SHL DUP3 MSTORE DUP3 DUP7 DUP4 ADD MSTORE DUP2 DUP1 PUSH2 0xC09 PUSH1 0x24 DUP3 ADD DUP14 PUSH2 0x23D6 JUMP JUMPDEST SUB SWAP2 GAS STATICCALL SWAP1 DUP2 ISZERO PUSH2 0xD7B JUMPI SWAP1 PUSH2 0xC29 SWAP3 SWAP2 DUP10 SWAP2 PUSH2 0xD5E JUMPI JUMPDEST POP AND ISZERO PUSH2 0x27E7 JUMP JUMPDEST DUP4 DUP7 MSTORE DUP6 DUP3 MSTORE PUSH1 0x1 PUSH2 0xC3D DUP5 DUP9 KECCAK256 DUP8 PUSH2 0x23FB JUMP JUMPDEST ADD CALLER DUP8 MSTORE DUP3 MSTORE PUSH2 0xC50 DUP4 DUP8 KECCAK256 SLOAD ISZERO PUSH2 0x2842 JUMP JUMPDEST DUP4 DUP7 MSTORE DUP6 DUP3 MSTORE PUSH2 0xC62 DUP4 DUP8 KECCAK256 DUP7 PUSH2 0x23FB JUMP JUMPDEST PUSH2 0xC6C DUP2 SLOAD PUSH2 0x28A2 JUMP JUMPDEST SWAP1 SSTORE DUP4 DUP7 MSTORE DUP6 DUP3 MSTORE PUSH2 0xC80 DUP4 DUP8 KECCAK256 DUP7 PUSH2 0x23FB JUMP JUMPDEST SLOAD PUSH2 0xC8A DUP7 PUSH2 0x24EB JUMP JUMPDEST DUP5 MLOAD SWAP2 DUP3 MSTORE DUP6 PUSH0 DUP1 MLOAD PUSH1 0x20 PUSH2 0x2AA3 DUP4 CODECOPY DUP2 MLOAD SWAP2 MSTORE DUP6 TIMESTAMP SWAP5 LOG4 DUP4 DUP7 MSTORE DUP6 DUP3 MSTORE PUSH2 0xCC0 CALLER PUSH1 0x2 PUSH2 0xCBA DUP7 DUP11 KECCAK256 DUP10 PUSH2 0x23FB JUMP JUMPDEST ADD PUSH2 0x2598 JUMP JUMPDEST DUP4 DUP7 MSTORE DUP6 DUP3 MSTORE PUSH1 0x2 PUSH2 0xCD4 DUP5 DUP9 KECCAK256 DUP8 PUSH2 0x23FB JUMP JUMPDEST ADD SLOAD PUSH0 NOT DUP2 ADD SWAP2 SWAP1 DUP3 GT PUSH2 0xD4B JUMPI POP SWAP1 PUSH32 0xD0F5D24E816C9FC4CBA0F35B280898648E66604FC44212736E778BFEFC338B0F SWAP2 DUP5 DUP8 MSTORE DUP7 DUP3 MSTORE PUSH1 0x1 PUSH2 0xD1A DUP6 DUP10 KECCAK256 DUP9 PUSH2 0x23FB JUMP JUMPDEST ADD CALLER DUP9 MSTORE DUP3 MSTORE DUP4 DUP8 KECCAK256 SSTORE DUP4 DUP7 MSTORE DUP6 DUP2 MSTORE PUSH2 0xD40 PUSH2 0xD39 DUP5 DUP9 KECCAK256 DUP8 PUSH2 0x23FB JUMP JUMPDEST SLOAD SWAP6 PUSH2 0x24EB JUMP JUMPDEST SWAP3 MLOAD SWAP5 DUP6 MSTORE CALLER SWAP5 LOG4 DUP1 RETURN JUMPDEST PUSH4 0x4E487B71 PUSH1 0xE0 SHL DUP8 MSTORE PUSH1 0x11 SWAP1 MSTORE PUSH1 0x24 DUP7 REVERT JUMPDEST PUSH2 0xD75 SWAP2 POP DUP6 RETURNDATASIZE DUP8 GT PUSH2 0x52F JUMPI PUSH2 0x521 DUP2 DUP4 PUSH2 0x2247 JUMP JUMPDEST PUSH0 PUSH2 0xC21 JUMP JUMPDEST DUP6 MLOAD RETURNDATASIZE DUP11 DUP3 RETURNDATACOPY RETURNDATASIZE SWAP1 REVERT JUMPDEST PUSH2 0x939 SWAP2 POP DUP8 RETURNDATASIZE DUP10 GT PUSH2 0x46A JUMPI PUSH2 0x45C DUP2 DUP4 PUSH2 0x2247 JUMP JUMPDEST DUP7 MLOAD RETURNDATASIZE DUP12 DUP3 RETURNDATACOPY RETURNDATASIZE SWAP1 REVERT JUMPDEST POP POP CALLVALUE PUSH2 0x249 JUMPI PUSH1 0x20 SWAP1 PUSH2 0x9AB PUSH2 0xDBC CALLDATASIZE PUSH2 0x22D1 JUMP JUMPDEST SWAP1 PUSH2 0x297D JUMP JUMPDEST POP CALLVALUE PUSH2 0x175 JUMPI DUP2 PUSH1 0x20 SWAP4 PUSH1 0xFF SWAP3 PUSH2 0x27B DUP7 PUSH2 0xDDC CALLDATASIZE PUSH2 0x2313 JUMP JUMPDEST SWAP4 DUP3 DUP8 MLOAD SWAP5 DUP4 DUP7 DUP1 SWAP6 MLOAD SWAP4 DUP5 SWAP3 ADD PUSH2 0x23B5 JUMP JUMPDEST POP CALLVALUE PUSH2 0x175 JUMPI PUSH1 0x60 CALLDATASIZE PUSH1 0x3 NOT ADD SLT PUSH2 0x175 JUMPI PUSH2 0xE09 PUSH2 0x2217 JUMP JUMPDEST PUSH2 0xE11 PUSH2 0x2231 JUMP JUMPDEST SWAP2 PUSH1 0x44 CALLDATALOAD PUSH1 0x1 PUSH1 0x1 PUSH1 0x40 SHL SUB DUP2 GT PUSH2 0xE7A JUMPI SWAP2 PUSH1 0x1 PUSH2 0xE6A DUP7 SWAP6 SWAP4 PUSH2 0xE3C PUSH1 0x20 SWAP10 SWAP7 CALLDATASIZE SWAP1 DUP4 ADD PUSH2 0x227C JUMP JUMPDEST SWAP1 PUSH2 0xE5C DUP5 DUP1 PUSH1 0xA0 SHL SUB DUP1 SWAP7 AND SWAP2 DUP3 DUP10 MSTORE DUP9 DUP13 MSTORE PUSH2 0x142 DUP11 DUP11 KECCAK256 DUP6 PUSH2 0x23FB JUMP JUMPDEST DUP7 MSTORE DUP6 DUP10 MSTORE DUP7 DUP7 KECCAK256 SWAP1 PUSH2 0x23FB JUMP JUMPDEST ADD SWAP2 AND DUP3 MSTORE DUP5 MSTORE KECCAK256 SLOAD SWAP1 MLOAD SWAP1 DUP2 MSTORE RETURN JUMPDEST DUP6 DUP1 REVERT JUMPDEST POP CALLVALUE PUSH2 0x175 JUMPI PUSH2 0xE8D CALLDATASIZE PUSH2 0x2313 JUMP JUMPDEST PUSH1 0x3 SLOAD DUP5 MLOAD PUSH4 0x7B7FCFED PUSH1 0xE0 SHL DUP2 MSTORE PUSH1 0x20 DUP2 DUP7 ADD DUP2 SWAP1 MSTORE SWAP4 SWAP6 PUSH1 0x1 PUSH1 0x1 PUSH1 0xA0 SHL SUB SWAP3 DUP4 AND SWAP6 SWAP1 SWAP5 SWAP4 SWAP1 SWAP3 SWAP2 DUP5 DUP2 DUP1 PUSH2 0xEC8 PUSH1 0x24 DUP3 ADD DUP13 PUSH2 0x23D6 JUMP JUMPDEST SUB DUP2 DUP11 GAS STATICCALL SWAP1 DUP2 ISZERO PUSH2 0xD9C JUMPI DUP4 SWAP3 SWAP2 PUSH2 0xEE7 SWAP2 DUP12 SWAP2 PUSH2 0xD85 JUMPI POP PUSH2 0x25BB JUMP JUMPDEST CALLER DUP10 MSTORE DUP9 DUP6 MSTORE PUSH2 0xEFD DUP5 PUSH2 0x6C6 DUP9 DUP13 KECCAK256 DUP12 PUSH2 0x23FB JUMP JUMPDEST AND SWAP5 DUP6 DUP9 MSTORE DUP8 DUP5 MSTORE PUSH2 0xF15 DUP4 PUSH2 0xBD1 DUP8 DUP12 KECCAK256 DUP11 PUSH2 0x23FB JUMP JUMPDEST PUSH2 0xF21 DUP7 CALLER EQ ISZERO PUSH2 0x279B JUMP JUMPDEST DUP4 DUP6 MLOAD DUP1 SWAP3 PUSH4 0xCBE02A9F PUSH1 0xE0 SHL DUP3 MSTORE DUP3 DUP7 DUP4 ADD MSTORE DUP2 DUP1 PUSH2 0xF44 PUSH1 0x24 DUP3 ADD DUP14 PUSH2 0x23D6 JUMP JUMPDEST SUB SWAP2 GAS STATICCALL SWAP1 DUP2 ISZERO PUSH2 0xD7B JUMPI SWAP1 PUSH2 0xF63 SWAP3 SWAP2 DUP10 SWAP2 PUSH2 0xD5E JUMPI POP AND ISZERO PUSH2 0x27E7 JUMP JUMPDEST DUP4 DUP7 MSTORE DUP6 DUP3 MSTORE PUSH1 0x1 PUSH2 0xF77 DUP5 DUP9 KECCAK256 DUP8 PUSH2 0x23FB JUMP JUMPDEST ADD CALLER DUP8 MSTORE DUP3 MSTORE PUSH2 0xF8A DUP4 DUP8 KECCAK256 SLOAD ISZERO PUSH2 0x2842 JUMP JUMPDEST DUP4 DUP7 MSTORE DUP6 DUP3 MSTORE PUSH2 0xF9C DUP4 DUP8 KECCAK256 DUP7 PUSH2 0x23FB JUMP JUMPDEST PUSH2 0xFA6 DUP2 SLOAD PUSH2 0x28D2 JUMP JUMPDEST SWAP1 SSTORE DUP4 DUP7 MSTORE DUP6 DUP3 MSTORE PUSH2 0xFBA DUP4 DUP8 KECCAK256 DUP7 PUSH2 0x23FB JUMP JUMPDEST SLOAD PUSH2 0xFC4 DUP7 PUSH2 0x24EB JUMP JUMPDEST DUP5 MLOAD SWAP2 DUP3 MSTORE DUP6 PUSH0 DUP1 MLOAD PUSH1 0x20 PUSH2 0x2AA3 DUP4 CODECOPY DUP2 MLOAD SWAP2 MSTORE DUP6 TIMESTAMP SWAP5 LOG4 DUP4 DUP7 MSTORE DUP6 DUP3 MSTORE PUSH2 0xFF4 CALLER PUSH1 0x3 PUSH2 0xCBA DUP7 DUP11 KECCAK256 DUP10 PUSH2 0x23FB JUMP JUMPDEST DUP4 DUP7 MSTORE DUP6 DUP3 MSTORE PUSH1 0x3 PUSH2 0x1008 DUP5 DUP9 KECCAK256 DUP8 PUSH2 0x23FB JUMP JUMPDEST ADD SLOAD PUSH0 NOT DUP2 ADD SWAP2 SWAP1 DUP3 GT PUSH2 0xD4B JUMPI POP SWAP1 PUSH2 0x1042 PUSH32 0x8E3DD53AAAD1909975DE245668134B898A443D9D797F6A14E77B5CD0606ED541 SWAP3 PUSH2 0x28E3 JUMP JUMPDEST DUP5 DUP8 MSTORE DUP7 DUP3 MSTORE PUSH1 0x1 PUSH2 0xD1A DUP6 DUP10 KECCAK256 DUP9 PUSH2 0x23FB JUMP JUMPDEST POP POP CALLVALUE PUSH2 0x249 JUMPI DUP2 PUSH1 0x3 NOT CALLDATASIZE ADD SLT PUSH2 0x249 JUMPI PUSH1 0x3 SLOAD SWAP1 MLOAD PUSH1 0x1 PUSH1 0x1 PUSH1 0xA0 SHL SUB SWAP1 SWAP2 AND DUP2 MSTORE PUSH1 0x20 SWAP1 RETURN JUMPDEST POP CALLVALUE PUSH2 0x175 JUMPI PUSH2 0x108E CALLDATASIZE PUSH2 0x2313 JUMP JUMPDEST PUSH1 0x3 SLOAD DUP5 MLOAD PUSH4 0x7B7FCFED PUSH1 0xE0 SHL DUP2 MSTORE PUSH1 0x20 DUP2 DUP7 ADD DUP2 SWAP1 MSTORE SWAP4 SWAP6 PUSH1 0x1 PUSH1 0x1 PUSH1 0xA0 SHL SUB SWAP3 DUP4 AND SWAP6 SWAP1 SWAP5 SWAP4 SWAP1 SWAP3 SWAP2 DUP5 DUP2 DUP1 PUSH2 0x10C9 PUSH1 0x24 DUP3 ADD DUP13 PUSH2 0x23D6 JUMP JUMPDEST SUB DUP2 DUP11 GAS STATICCALL SWAP1 DUP2 ISZERO PUSH2 0xD9C JUMPI DUP4 SWAP3 SWAP2 PUSH2 0x10E8 SWAP2 DUP12 SWAP2 PUSH2 0xD85 JUMPI POP PUSH2 0x25BB JUMP JUMPDEST CALLER DUP10 MSTORE DUP9 DUP6 MSTORE PUSH2 0x10FE DUP5 PUSH2 0x6C6 DUP9 DUP13 KECCAK256 DUP12 PUSH2 0x23FB JUMP JUMPDEST AND SWAP5 DUP6 DUP9 MSTORE DUP8 DUP5 MSTORE PUSH2 0x1116 DUP4 PUSH2 0xBD1 DUP8 DUP12 KECCAK256 DUP11 PUSH2 0x23FB JUMP JUMPDEST PUSH2 0x1122 DUP7 CALLER EQ ISZERO PUSH2 0x279B JUMP JUMPDEST DUP4 DUP6 MLOAD DUP1 SWAP3 PUSH4 0xCBE02A9F PUSH1 0xE0 SHL DUP3 MSTORE DUP3 DUP7 DUP4 ADD MSTORE DUP2 DUP1 PUSH2 0x1145 PUSH1 0x24 DUP3 ADD DUP14 PUSH2 0x23D6 JUMP JUMPDEST SUB SWAP2 GAS STATICCALL SWAP1 DUP2 ISZERO PUSH2 0xD7B JUMPI PUSH2 0x1164 SWAP2 DUP4 SWAP2 DUP11 SWAP2 PUSH2 0x1474 JUMPI POP AND ISZERO PUSH2 0x27E7 JUMP JUMPDEST DUP5 DUP8 MSTORE DUP7 DUP4 MSTORE PUSH1 0x1 PUSH2 0x1178 DUP6 DUP10 KECCAK256 DUP9 PUSH2 0x23FB JUMP JUMPDEST ADD CALLER DUP9 MSTORE DUP4 MSTORE DUP7 DUP5 DUP2 KECCAK256 SLOAD SGT ISZERO PUSH2 0x1413 JUMPI DUP5 DUP8 MSTORE DUP7 DUP4 MSTORE PUSH2 0x119B DUP5 DUP9 KECCAK256 DUP8 PUSH2 0x23FB JUMP JUMPDEST PUSH2 0x11A5 DUP2 SLOAD PUSH2 0x28D2 JUMP JUMPDEST SWAP1 SSTORE DUP5 DUP8 MSTORE DUP7 DUP4 MSTORE PUSH2 0x11B9 DUP5 DUP9 KECCAK256 DUP8 PUSH2 0x23FB JUMP JUMPDEST SLOAD PUSH2 0x11C3 DUP8 PUSH2 0x24EB JUMP JUMPDEST DUP6 MLOAD SWAP2 DUP3 MSTORE DUP7 PUSH0 DUP1 MLOAD PUSH1 0x20 PUSH2 0x2AA3 DUP4 CODECOPY DUP2 MLOAD SWAP2 MSTORE DUP7 TIMESTAMP SWAP5 LOG4 DUP5 DUP8 MSTORE DUP7 DUP4 MSTORE PUSH1 0x1 PUSH2 0x11EF DUP6 DUP10 KECCAK256 DUP9 PUSH2 0x23FB JUMP JUMPDEST ADD CALLER DUP9 MSTORE DUP4 MSTORE DUP4 DUP8 KECCAK256 SLOAD SWAP1 DUP6 DUP9 MSTORE DUP8 DUP5 MSTORE PUSH1 0x2 SWAP3 PUSH2 0x121D PUSH1 0x1 DUP6 PUSH2 0x1215 DUP10 DUP14 KECCAK256 DUP13 PUSH2 0x23FB JUMP JUMPDEST ADD SLOAD GT PUSH2 0x28F8 JUMP JUMPDEST DUP7 DUP10 MSTORE DUP9 DUP6 MSTORE DUP4 PUSH2 0x1230 DUP8 DUP12 KECCAK256 DUP11 PUSH2 0x23FB JUMP JUMPDEST ADD SLOAD PUSH0 NOT SWAP2 SWAP1 DUP3 DUP2 ADD SWAP1 DUP2 GT PUSH2 0x1400 JUMPI DUP5 SUB PUSH2 0x12BD JUMPI JUMPDEST POP POP POP POP SWAP1 PUSH2 0x12A8 PUSH32 0x6C5CFC2553AAFFD4CD0342765CDBCA370CDA07554F00E4E5112884EAE468E299 SWAP3 DUP6 DUP9 MSTORE DUP8 DUP4 MSTORE PUSH1 0x1 PUSH2 0x1285 DUP7 DUP11 KECCAK256 DUP10 PUSH2 0x23FB JUMP JUMPDEST ADD CALLER DUP10 MSTORE DUP4 MSTORE DUP8 DUP6 DUP2 KECCAK256 SSTORE DUP6 DUP9 MSTORE DUP8 DUP4 MSTORE PUSH2 0x12A2 DUP6 DUP10 KECCAK256 DUP9 PUSH2 0x23FB JUMP JUMPDEST ADD PUSH2 0x293D JUMP JUMPDEST DUP4 DUP7 MSTORE DUP6 DUP2 MSTORE PUSH2 0xD40 PUSH2 0xD39 DUP5 DUP9 KECCAK256 DUP8 PUSH2 0x23FB JUMP JUMPDEST DUP8 DUP11 MSTORE DUP10 DUP7 MSTORE DUP5 PUSH2 0x12D0 DUP9 DUP13 KECCAK256 DUP12 PUSH2 0x23FB JUMP JUMPDEST ADD SWAP1 DUP9 DUP12 MSTORE DUP11 DUP8 MSTORE DUP6 PUSH2 0x12E5 DUP10 DUP14 KECCAK256 DUP13 PUSH2 0x23FB JUMP JUMPDEST ADD SLOAD SWAP3 DUP4 ADD SWAP3 DUP4 GT PUSH2 0x13ED JUMPI POP DUP3 PUSH2 0x139F DUP6 DUP8 PUSH2 0x1358 DUP14 DUP16 DUP1 DUP16 SWAP9 DUP16 SWAP3 SWAP15 PUSH32 0x6C5CFC2553AAFFD4CD0342765CDBCA370CDA07554F00E4E5112884EAE468E299 SWAP16 DUP2 SWAP16 SWAP14 PUSH2 0x12A8 SWAP16 SWAP14 PUSH2 0x133A SWAP1 PUSH2 0x137D SWAP6 PUSH2 0x2354 JUMP JUMPDEST SWAP1 SLOAD SWAP1 PUSH1 0x3 SHL SHR AND SWAP2 DUP13 DUP3 MSTORE MSTORE PUSH2 0x135E DUP9 DUP9 PUSH2 0x1358 DUP8 DUP8 KECCAK256 DUP10 PUSH2 0x23FB JUMP JUMPDEST ADD PUSH2 0x2354 JUMP JUMPDEST SWAP1 SWAP2 SWAP1 DUP3 SLOAD SWAP1 PUSH1 0x3 SHL SWAP2 PUSH1 0x1 DUP1 PUSH1 0xA0 SHL SUB DUP1 SWAP2 AND DUP4 SHL SWAP3 SHL NOT AND OR SWAP1 SSTORE JUMP JUMPDEST DUP9 DUP2 MSTORE DUP1 DUP14 MSTORE PUSH1 0x1 PUSH2 0x1391 DUP4 DUP4 KECCAK256 DUP6 PUSH2 0x23FB JUMP JUMPDEST ADD SWAP9 DUP2 MSTORE DUP1 DUP14 MSTORE KECCAK256 SWAP1 PUSH2 0x23FB JUMP JUMPDEST SWAP1 SLOAD SWAP1 PUSH1 0x3 SHL SHR AND DUP11 MSTORE DUP5 MSTORE DUP1 DUP7 DUP11 KECCAK256 SSTORE DUP7 PUSH2 0x13BA DUP10 PUSH2 0x24EB JUMP JUMPDEST DUP8 MLOAD SWAP3 DUP4 MSTORE PUSH32 0xD6FA86004958E4FADC7035E661E86172C72F1EA51E79E8BF8BD3F4103663E8E3 DUP7 CALLER SWAP5 LOG4 SWAP2 SWAP3 PUSH0 DUP1 PUSH2 0x1247 JUMP JUMPDEST PUSH4 0x4E487B71 PUSH1 0xE0 SHL DUP12 MSTORE PUSH1 0x11 SWAP1 MSTORE PUSH1 0x24 DUP11 REVERT JUMPDEST PUSH4 0x4E487B71 PUSH1 0xE0 SHL DUP12 MSTORE PUSH1 0x11 DUP3 MSTORE PUSH1 0x24 DUP12 REVERT JUMPDEST POP SWAP2 MLOAD PUSH3 0x461BCD PUSH1 0xE5 SHL DUP2 MSTORE SWAP2 DUP3 ADD MSTORE PUSH1 0x36 PUSH1 0x24 DUP3 ADD MSTORE PUSH32 0x596F752068617665206E6F7420676976656E206120706F736974697665206372 PUSH1 0x44 DUP3 ADD MSTORE PUSH22 0x32B2103A37903A3434B99036B2B6B132B9103CB2BA17 PUSH1 0x51 SHL PUSH1 0x64 DUP3 ADD MSTORE PUSH1 0x84 SWAP1 REVERT JUMPDEST PUSH2 0xD75 SWAP2 POP DUP7 RETURNDATASIZE DUP9 GT PUSH2 0x52F JUMPI PUSH2 0x521 DUP2 DUP4 PUSH2 0x2247 JUMP JUMPDEST POP SWAP2 SWAP1 CALLVALUE PUSH2 0x249 JUMPI PUSH2 0x149C CALLDATASIZE PUSH2 0x2313 JUMP JUMPDEST PUSH1 0x3 SLOAD DUP4 MLOAD PUSH4 0xCBE02A9F PUSH1 0xE0 SHL DUP1 DUP3 MSTORE PUSH1 0x20 DUP3 DUP10 ADD DUP2 SWAP1 MSTORE SWAP8 SWAP4 SWAP6 SWAP5 SWAP4 SWAP3 PUSH1 0x24 SWAP3 PUSH1 0x1 PUSH1 0x1 PUSH1 0xA0 SHL SUB SWAP3 SWAP2 DUP4 AND SWAP2 DUP11 DUP3 DUP1 PUSH2 0x14D9 DUP9 DUP3 ADD DUP12 PUSH2 0x23D6 JUMP JUMPDEST SUB DUP2 DUP7 GAS STATICCALL SWAP2 DUP3 ISZERO PUSH2 0x591 JUMPI DUP11 SWAP3 PUSH2 0x1819 JUMPI JUMPDEST POP DUP8 MLOAD PUSH4 0xB3F6702D PUSH1 0xE0 SHL DUP2 MSTORE DUP7 DUP2 ADD DUP13 SWAP1 MSTORE DUP12 DUP2 DUP1 PUSH2 0x150E DUP10 DUP3 ADD DUP13 PUSH2 0x23D6 JUMP JUMPDEST SUB DUP2 DUP8 GAS STATICCALL SWAP1 DUP2 ISZERO PUSH2 0x568 JUMPI DUP6 SWAP2 DUP3 SWAP2 DUP15 DUP15 SWAP3 PUSH2 0x17FC JUMPI JUMPDEST POP POP AND CALLER EQ SWAP3 DUP4 PUSH2 0x17F1 JUMPI JUMPDEST POP POP DUP2 ISZERO PUSH2 0x1799 JUMPI JUMPDEST POP ISZERO PUSH2 0x1745 JUMPI DUP9 DUP7 MLOAD DUP1 SWAP3 PUSH4 0x1EFB39A9 PUSH1 0xE1 SHL DUP3 MSTORE DUP3 DUP8 DUP4 ADD MSTORE DUP2 DUP1 PUSH2 0x1563 DUP9 DUP3 ADD DUP12 PUSH2 0x23D6 JUMP JUMPDEST SUB SWAP2 GAS STATICCALL SWAP1 DUP2 ISZERO PUSH2 0x173B JUMPI PUSH2 0x1584 SWAP2 PUSH1 0x1 SWAP2 DUP11 SWAP2 PUSH2 0x1724 JUMPI POP ISZERO ISZERO EQ PUSH2 0x2494 JUMP JUMPDEST DUP5 MLOAD SWAP1 DUP5 MLOAD SWAP2 DUP10 DUP2 DUP2 DUP9 ADD SWAP5 PUSH2 0x159B DUP2 DUP4 DUP9 PUSH2 0x23B5 JUMP JUMPDEST DUP2 ADD DUP8 DUP2 MSTORE SUB ADD SWAP1 KECCAK256 SWAP7 AND SWAP6 DUP7 DUP9 MSTORE DUP9 MSTORE PUSH1 0x1 PUSH1 0xFF DUP7 DUP10 KECCAK256 SLOAD AND ISZERO ISZERO SUB PUSH2 0x16ED JUMPI DUP6 CALLER EQ PUSH2 0x16AB JUMPI DUP8 PUSH2 0x15D8 SWAP2 DUP7 MLOAD DUP1 SWAP4 DUP2 SWAP3 DUP9 MLOAD SWAP3 DUP4 SWAP2 PUSH2 0x23B5 JUMP JUMPDEST DUP2 ADD DUP6 DUP2 MSTORE SUB ADD SWAP1 KECCAK256 DUP6 DUP8 MSTORE DUP8 MSTORE DUP4 DUP7 KECCAK256 DUP1 SLOAD PUSH1 0xFF NOT AND SWAP1 SSTORE DUP4 MLOAD PUSH4 0x5848E2A3 PUSH1 0xE1 SHL DUP2 MSTORE DUP1 DUP4 ADD DUP7 SWAP1 MSTORE SWAP1 DUP2 ADD DUP5 SWAP1 MSTORE DUP7 DUP2 DUP1 PUSH2 0x1619 PUSH1 0x44 DUP3 ADD DUP8 PUSH2 0x23D6 JUMP JUMPDEST SUB DUP2 ADDRESS GAS STATICCALL SWAP1 DUP2 ISZERO PUSH2 0x16A1 JUMPI SWAP3 DUP7 PUSH32 0xE19753EF16CB08D80C81E7C26DF1578544DC02C0A7538CF0D3FC2355DC180BCA SWAP4 PUSH1 0x1 PUSH2 0x43B SWAP5 DUP10 SWAP9 SWAP8 DUP5 SWAP2 PUSH2 0x1684 JUMPI JUMPDEST POP ISZERO ISZERO EQ PUSH2 0x1669 JUMPI JUMPDEST POP POP PUSH2 0x24EB JUMP JUMPDEST DUP7 DUP3 MSTORE DUP2 DUP11 MSTORE PUSH2 0x167B DUP7 DUP4 KECCAK256 DUP5 PUSH2 0x23FB JUMP JUMPDEST ADD SSTORE DUP7 PUSH0 PUSH2 0x1662 JUMP JUMPDEST PUSH2 0x169B SWAP2 POP DUP13 DUP14 RETURNDATASIZE LT PUSH2 0x46A JUMPI PUSH2 0x45C DUP2 DUP4 PUSH2 0x2247 JUMP JUMPDEST PUSH0 PUSH2 0x1659 JUMP JUMPDEST DUP5 MLOAD RETURNDATASIZE DUP9 DUP3 RETURNDATACOPY RETURNDATASIZE SWAP1 REVERT JUMPDEST DUP5 MLOAD PUSH3 0x461BCD PUSH1 0xE5 SHL DUP2 MSTORE DUP1 DUP5 ADD DUP10 SWAP1 MSTORE PUSH1 0x1D DUP2 DUP5 ADD MSTORE PUSH32 0x596F752063616E6E6F7420756E696E7669746520796F757273656C662E000000 PUSH1 0x44 DUP3 ADD MSTORE PUSH1 0x64 SWAP1 REVERT JUMPDEST DUP5 MLOAD PUSH3 0x461BCD PUSH1 0xE5 SHL DUP2 MSTORE DUP1 DUP5 ADD DUP10 SWAP1 MSTORE PUSH1 0x12 DUP2 DUP5 ADD MSTORE PUSH18 0x13595B58995C88139BDD08125B9D9A5D1959 PUSH1 0x72 SHL PUSH1 0x44 DUP3 ADD MSTORE PUSH1 0x64 SWAP1 REVERT JUMPDEST PUSH2 0x464 SWAP2 POP DUP12 RETURNDATASIZE DUP14 GT PUSH2 0x46A JUMPI PUSH2 0x45C DUP2 DUP4 PUSH2 0x2247 JUMP JUMPDEST DUP7 MLOAD RETURNDATASIZE DUP11 DUP3 RETURNDATACOPY RETURNDATASIZE SWAP1 REVERT JUMPDEST DUP6 MLOAD PUSH3 0x461BCD PUSH1 0xE5 SHL DUP2 MSTORE DUP1 DUP6 ADD DUP11 SWAP1 MSTORE PUSH1 0x29 DUP2 DUP6 ADD MSTORE PUSH32 0x596F7520646F6E742068617665207065726D697373696F6E20756E696E766974 PUSH1 0x44 DUP3 ADD MSTORE PUSH9 0x65204D656D62657273 PUSH1 0xB8 SHL PUSH1 0x64 DUP3 ADD MSTORE PUSH1 0x84 SWAP1 REVERT JUMPDEST SWAP1 POP DUP7 MLOAD SWAP1 DUP2 MSTORE DUP10 DUP6 DUP3 ADD MSTORE DUP10 DUP2 DUP1 PUSH2 0x17B4 DUP8 DUP3 ADD DUP11 PUSH2 0x23D6 JUMP JUMPDEST SUB DUP2 DUP6 GAS STATICCALL SWAP1 DUP2 ISZERO PUSH2 0x536 JUMPI SWAP1 DUP4 SWAP2 DUP11 SWAP2 PUSH2 0x17D4 JUMPI JUMPDEST POP AND CALLER EQ PUSH0 PUSH2 0x153B JUMP JUMPDEST PUSH2 0x17EB SWAP2 POP DUP12 RETURNDATASIZE DUP14 GT PUSH2 0x52F JUMPI PUSH2 0x521 DUP2 DUP4 PUSH2 0x2247 JUMP JUMPDEST PUSH0 PUSH2 0x17CA JUMP JUMPDEST AND ISZERO SWAP2 POP DUP4 PUSH0 PUSH2 0x1532 JUMP JUMPDEST PUSH2 0x1812 SWAP3 POP DUP1 RETURNDATASIZE LT PUSH2 0x52F JUMPI PUSH2 0x521 DUP2 DUP4 PUSH2 0x2247 JUMP JUMPDEST PUSH0 DUP15 PUSH2 0x1526 JUMP JUMPDEST PUSH2 0x1831 SWAP2 SWAP3 POP DUP12 RETURNDATASIZE DUP14 GT PUSH2 0x52F JUMPI PUSH2 0x521 DUP2 DUP4 PUSH2 0x2247 JUMP JUMPDEST SWAP1 PUSH0 PUSH2 0x14EC JUMP JUMPDEST POP SWAP2 SWAP1 CALLVALUE PUSH2 0x249 JUMPI DUP1 PUSH1 0x3 NOT CALLDATASIZE ADD SLT PUSH2 0x249 JUMPI PUSH2 0x1853 PUSH2 0x2217 JUMP JUMPDEST PUSH1 0x1 PUSH1 0x1 PUSH1 0xA0 SHL SUB AND DUP3 MSTORE PUSH1 0x1 PUSH1 0x20 DUP2 DUP2 MSTORE DUP3 DUP5 KECCAK256 DUP1 SLOAD SWAP2 SWAP5 SWAP2 PUSH1 0x24 CALLDATALOAD SWAP2 SWAP1 DUP3 LT ISZERO PUSH2 0x175 JUMPI SWAP1 PUSH2 0x1883 SWAP2 PUSH2 0x2354 JUMP JUMPDEST SWAP6 SWAP1 SWAP6 PUSH2 0x1940 JUMPI POP DUP3 MLOAD SWAP5 DUP6 SWAP3 DUP3 DUP3 SLOAD SWAP3 PUSH2 0x189D DUP5 PUSH2 0x237D JUMP JUMPDEST SWAP4 DUP5 DUP8 MSTORE DUP9 DUP5 DUP3 AND SWAP2 DUP3 PUSH0 EQ PUSH2 0x1916 JUMPI POP POP PUSH1 0x1 EQ PUSH2 0x18D8 JUMPI JUMPDEST DUP6 DUP9 PUSH2 0x171 DUP10 PUSH2 0x18C9 DUP5 DUP11 SUB DUP6 PUSH2 0x2247 JUMP JUMPDEST MLOAD SWAP3 DUP3 DUP5 SWAP4 DUP5 MSTORE DUP4 ADD SWAP1 PUSH2 0x23D6 JUMP JUMPDEST DUP8 SWAP5 POP DUP2 SWAP4 SWAP3 SWAP2 MSTORE DUP4 DUP4 KECCAK256 JUMPDEST DUP3 DUP5 LT PUSH2 0x18FE JUMPI POP POP POP DUP3 ADD ADD DUP2 PUSH2 0x18C9 PUSH2 0x171 PUSH0 PUSH2 0x18B7 JUMP JUMPDEST DUP1 SLOAD DUP5 DUP11 ADD DUP7 ADD MSTORE DUP9 SWAP6 POP DUP8 SWAP5 SWAP1 SWAP4 ADD SWAP3 DUP2 ADD PUSH2 0x18E4 JUMP JUMPDEST PUSH1 0xFF NOT AND DUP9 DUP3 ADD MSTORE SWAP5 ISZERO ISZERO PUSH1 0x5 SHL DUP8 ADD SWAP1 SWAP5 ADD SWAP5 POP DUP6 SWAP4 POP PUSH2 0x18C9 SWAP3 POP PUSH2 0x171 SWAP2 POP PUSH0 SWAP1 POP PUSH2 0x18B7 JUMP JUMPDEST PUSH4 0x4E487B71 PUSH1 0xE0 SHL DUP3 MSTORE DUP2 SWAP1 MSTORE PUSH1 0x24 SWAP1 REVERT JUMPDEST POP SWAP1 CALLVALUE PUSH2 0x175 JUMPI PUSH1 0x20 DUP1 PUSH1 0x3 NOT CALLDATASIZE ADD SLT PUSH2 0x949 JUMPI PUSH1 0x1 PUSH1 0x1 PUSH1 0x40 SHL SUB DUP4 CALLDATALOAD DUP2 DUP2 GT PUSH2 0xE7A JUMPI PUSH2 0x1984 SWAP1 CALLDATASIZE SWAP1 DUP7 ADD PUSH2 0x227C JUMP JUMPDEST SWAP4 PUSH1 0x1 DUP1 PUSH1 0xA0 SHL SUB PUSH1 0x3 SLOAD AND DUP5 MLOAD SWAP3 PUSH4 0x7B7FCFED PUSH1 0xE0 SHL DUP5 MSTORE DUP5 DUP4 DUP6 ADD MSTORE PUSH1 0x24 SWAP4 DUP6 DUP2 DUP1 PUSH2 0x19B4 DUP9 DUP3 ADD DUP13 PUSH2 0x23D6 JUMP JUMPDEST SUB DUP2 DUP7 GAS STATICCALL SWAP1 DUP2 ISZERO PUSH2 0x536 JUMPI DUP10 SWAP2 PUSH2 0x1D7C JUMPI JUMPDEST POP ISZERO PUSH2 0x1D3F JUMPI CALLER DUP9 MSTORE DUP8 DUP6 MSTORE DUP3 PUSH2 0x19E0 DUP8 DUP11 KECCAK256 DUP10 PUSH2 0x23FB JUMP JUMPDEST ADD SLOAD PUSH2 0x1CE9 JUMPI DUP5 DUP7 MLOAD DUP1 SWAP4 PUSH4 0x1EFB39A9 PUSH1 0xE1 SHL DUP3 MSTORE DUP3 DUP7 DUP4 ADD MSTORE DUP2 DUP1 PUSH2 0x1A08 DUP10 DUP3 ADD DUP14 PUSH2 0x23D6 JUMP JUMPDEST SUB SWAP2 GAS STATICCALL SWAP2 DUP3 ISZERO PUSH2 0x173B JUMPI DUP9 SWAP3 PUSH2 0x1CCA JUMPI JUMPDEST POP PUSH1 0x1 DUP1 SWAP3 ISZERO ISZERO EQ PUSH2 0x1C47 JUMPI JUMPDEST CALLER DUP9 MSTORE DUP2 DUP6 MSTORE DUP6 DUP9 KECCAK256 DUP1 SLOAD SWAP1 DUP2 ISZERO PUSH2 0x1BEC JUMPI JUMPDEST POP POP CALLER DUP9 MSTORE DUP2 DUP6 MSTORE DUP6 DUP9 KECCAK256 DUP1 SLOAD SWAP1 PUSH1 0x1 PUSH1 0x40 SHL DUP3 LT ISZERO PUSH2 0x1BDA JUMPI SWAP1 PUSH2 0x1A63 SWAP2 DUP5 DUP3 ADD DUP2 SSTORE PUSH2 0x2354 JUMP JUMPDEST SWAP2 SWAP1 SWAP2 PUSH2 0x1BC9 JUMPI DUP8 MLOAD SWAP1 DUP2 GT PUSH2 0x1BB7 JUMPI PUSH2 0x1A87 DUP2 PUSH2 0x1A81 DUP5 SLOAD PUSH2 0x237D JUMP JUMPDEST DUP5 PUSH2 0x2521 JUMP JUMPDEST DUP1 DUP7 PUSH1 0x1F DUP3 GT PUSH1 0x1 EQ PUSH2 0x1B5A JUMPI DUP11 SWAP2 PUSH2 0x1B4F JUMPI JUMPDEST POP PUSH0 NOT PUSH1 0x3 DUP4 SWAP1 SHL SHR NOT AND SWAP1 DUP4 SHL OR SWAP1 SSTORE JUMPDEST CALLER DUP8 MSTORE DUP4 MSTORE DUP4 DUP7 KECCAK256 SLOAD PUSH0 NOT DUP2 ADD SWAP3 SWAP1 DUP4 GT PUSH2 0x1B3E JUMPI POP SWAP3 DUP6 PUSH1 0x3 SWAP4 PUSH2 0x1AFB SWAP4 PUSH2 0x1B0D SWAP7 CALLER DUP5 MSTORE DUP4 DUP4 MSTORE PUSH2 0x1AE2 DUP6 DUP6 KECCAK256 DUP11 PUSH2 0x23FB JUMP JUMPDEST ADD SSTORE CALLER DUP3 MSTORE DUP2 DUP2 MSTORE PUSH2 0x1B01 PUSH1 0x2 PUSH2 0x1AFB DUP6 DUP6 KECCAK256 DUP11 PUSH2 0x23FB JUMP JUMPDEST ADD PUSH2 0x2566 JUMP JUMPDEST CALLER DUP3 MSTORE MSTORE DUP6 KECCAK256 DUP5 PUSH2 0x23FB JUMP JUMPDEST PUSH2 0x1B17 CALLER SWAP2 PUSH2 0x24EB JUMP JUMPDEST PUSH32 0xF038F0D708FC70F18D5815D07A62A3B40D2035DC6AF7429865F612242FF87058 DUP4 DUP1 LOG3 DUP1 RETURN JUMPDEST PUSH4 0x4E487B71 PUSH1 0xE0 SHL DUP8 MSTORE PUSH1 0x11 DUP3 MSTORE DUP7 REVERT JUMPDEST SWAP1 POP DUP9 ADD MLOAD PUSH0 PUSH2 0x1A9B JUMP JUMPDEST DUP4 DUP12 MSTORE DUP8 DUP12 KECCAK256 DUP6 SWAP4 POP SWAP1 PUSH1 0x1F NOT DUP4 AND DUP13 JUMPDEST DUP11 DUP14 DUP4 DUP4 LT PUSH2 0x1BA2 JUMPI POP POP POP DUP4 GT PUSH2 0x1B8A JUMPI JUMPDEST POP POP DUP2 SHL ADD SWAP1 SSTORE PUSH2 0x1AAD JUMP JUMPDEST DUP11 ADD MLOAD PUSH0 NOT PUSH1 0xF8 DUP5 PUSH1 0x3 SHL AND SHR NOT AND SWAP1 SSTORE PUSH0 DUP1 PUSH2 0x1B7E JUMP JUMPDEST DUP5 ADD MLOAD DUP6 SSTORE DUP9 SWAP7 SWAP1 SWAP5 ADD SWAP4 SWAP3 DUP4 ADD SWAP3 ADD PUSH2 0x1B6B JUMP JUMPDEST PUSH4 0x4E487B71 PUSH1 0xE0 SHL DUP10 MSTORE PUSH1 0x41 DUP5 MSTORE DUP5 DUP10 REVERT JUMPDEST PUSH4 0x4E487B71 PUSH1 0xE0 SHL DUP10 MSTORE DUP9 DUP5 MSTORE DUP5 DUP10 REVERT JUMPDEST PUSH4 0x4E487B71 PUSH1 0xE0 SHL DUP11 MSTORE PUSH1 0x41 DUP6 MSTORE DUP6 DUP11 REVERT JUMPDEST PUSH1 0x1 PUSH1 0x40 SHL DUP3 LT ISZERO PUSH2 0x1BDA JUMPI SWAP1 PUSH2 0x1C07 SWAP2 DUP5 DUP3 ADD DUP2 SSTORE PUSH2 0x2354 JUMP JUMPDEST PUSH2 0x1BC9 JUMPI DUP1 PUSH2 0x1C17 PUSH0 SWAP3 SLOAD PUSH2 0x237D JUMP JUMPDEST PUSH1 0x1F DUP2 GT PUSH2 0x1C29 JUMPI JUMPDEST POP SSTORE PUSH0 DUP1 PUSH2 0x1A3A JUMP JUMPDEST DUP2 DUP12 MSTORE DUP8 DUP12 KECCAK256 PUSH2 0x1C41 SWAP2 PUSH1 0x1F ADD PUSH1 0x5 SHR DUP2 ADD SWAP1 PUSH2 0x250B JUMP JUMPDEST PUSH0 PUSH2 0x1C20 JUMP JUMPDEST DUP6 MLOAD DUP6 DUP2 DUP2 PUSH2 0x1C5C DUP12 DUP4 DUP2 MLOAD SWAP4 DUP5 SWAP3 ADD PUSH2 0x23B5 JUMP JUMPDEST DUP2 ADD DUP7 DUP2 MSTORE SUB ADD SWAP1 KECCAK256 CALLER DUP10 MSTORE DUP6 MSTORE DUP6 DUP9 KECCAK256 SLOAD PUSH1 0xFF AND ISZERO ISZERO DUP3 EQ PUSH2 0x1A27 JUMPI DUP6 MLOAD PUSH3 0x461BCD PUSH1 0xE5 SHL DUP2 MSTORE DUP1 DUP5 ADD DUP7 SWAP1 MSTORE PUSH1 0x26 DUP2 DUP7 ADD MSTORE PUSH32 0x596F7520617265206E6F7420696E766974656420746F207468697320636F6D6D PUSH1 0x44 DUP3 ADD MSTORE PUSH6 0x3AB734BA3C97 PUSH1 0xD1 SHL PUSH1 0x64 DUP3 ADD MSTORE PUSH1 0x84 SWAP1 REVERT JUMPDEST PUSH2 0x1CE2 SWAP2 SWAP3 POP DUP6 RETURNDATASIZE DUP8 GT PUSH2 0x46A JUMPI PUSH2 0x45C DUP2 DUP4 PUSH2 0x2247 JUMP JUMPDEST SWAP1 PUSH0 PUSH2 0x1A1A JUMP JUMPDEST DUP6 MLOAD PUSH3 0x461BCD PUSH1 0xE5 SHL DUP2 MSTORE DUP1 DUP5 ADD DUP7 SWAP1 MSTORE PUSH1 0x2B DUP2 DUP7 ADD MSTORE PUSH32 0x596F752061726520616C72656164792061206D656D626572206F662074686973 PUSH1 0x44 DUP3 ADD MSTORE PUSH11 0x1031B7B6B6BAB734BA3C97 PUSH1 0xA9 SHL PUSH1 0x64 DUP3 ADD MSTORE PUSH1 0x84 SWAP1 REVERT JUMPDEST DUP6 MLOAD PUSH3 0x461BCD PUSH1 0xE5 SHL DUP2 MSTORE DUP1 DUP5 ADD DUP7 SWAP1 MSTORE PUSH1 0x18 DUP2 DUP7 ADD MSTORE PUSH24 0x10DBDB5B5D5B9A5D1E48111BD95CC81B9BDD08115E1A5CDD PUSH1 0x42 SHL PUSH1 0x44 DUP3 ADD MSTORE PUSH1 0x64 SWAP1 REVERT JUMPDEST PUSH2 0x1D93 SWAP2 POP DUP7 RETURNDATASIZE DUP9 GT PUSH2 0x46A JUMPI PUSH2 0x45C DUP2 DUP4 PUSH2 0x2247 JUMP JUMPDEST PUSH0 PUSH2 0x19C7 JUMP JUMPDEST POP CALLVALUE PUSH2 0x175 JUMPI PUSH2 0x1DA8 CALLDATASIZE PUSH2 0x2313 JUMP JUMPDEST PUSH1 0x3 DUP1 SLOAD DUP6 MLOAD PUSH4 0x7B7FCFED PUSH1 0xE0 SHL DUP2 MSTORE PUSH1 0x20 DUP2 DUP8 ADD DUP2 SWAP1 MSTORE SWAP5 SWAP7 PUSH1 0x1 PUSH1 0x1 PUSH1 0xA0 SHL SUB SWAP3 DUP4 AND SWAP7 SWAP1 SWAP6 SWAP5 SWAP1 SWAP3 SWAP2 DUP6 DUP2 DUP1 PUSH2 0x1DE4 PUSH1 0x24 DUP3 ADD DUP14 PUSH2 0x23D6 JUMP JUMPDEST SUB DUP2 DUP12 GAS STATICCALL SWAP1 DUP2 ISZERO PUSH2 0x2146 JUMPI DUP4 SWAP3 SWAP2 PUSH2 0x1E03 SWAP2 DUP13 SWAP2 PUSH2 0x212F JUMPI POP PUSH2 0x25BB JUMP JUMPDEST CALLER DUP11 MSTORE DUP10 DUP7 MSTORE PUSH2 0x1E19 DUP5 PUSH2 0x6C6 DUP10 DUP14 KECCAK256 DUP13 PUSH2 0x23FB JUMP JUMPDEST AND SWAP6 DUP7 DUP10 MSTORE DUP9 DUP6 MSTORE PUSH2 0x1E31 DUP4 PUSH2 0xBD1 DUP9 DUP13 KECCAK256 DUP12 PUSH2 0x23FB JUMP JUMPDEST PUSH2 0x1E3D DUP8 CALLER EQ ISZERO PUSH2 0x279B JUMP JUMPDEST DUP5 DUP7 MLOAD DUP1 SWAP3 PUSH4 0xCBE02A9F PUSH1 0xE0 SHL DUP3 MSTORE DUP3 DUP7 DUP4 ADD MSTORE DUP2 DUP1 PUSH2 0x1E61 DUP14 PUSH1 0x24 DUP4 ADD SWAP1 PUSH2 0x23D6 JUMP JUMPDEST SUB SWAP2 GAS STATICCALL SWAP1 DUP2 ISZERO PUSH2 0xD9C JUMPI PUSH2 0x1E80 SWAP2 DUP4 SWAP2 DUP12 SWAP2 PUSH2 0x2118 JUMPI POP AND ISZERO PUSH2 0x27E7 JUMP JUMPDEST DUP6 DUP9 MSTORE DUP8 DUP5 MSTORE PUSH1 0x1 PUSH2 0x1E94 DUP7 DUP11 KECCAK256 DUP10 PUSH2 0x23FB JUMP JUMPDEST ADD CALLER DUP10 MSTORE DUP5 MSTORE DUP8 DUP6 DUP2 KECCAK256 SLOAD SLT ISZERO PUSH2 0x20B6 JUMPI DUP6 DUP9 MSTORE DUP8 DUP5 MSTORE PUSH2 0x1EB7 DUP6 DUP10 KECCAK256 DUP9 PUSH2 0x23FB JUMP JUMPDEST PUSH2 0x1EC1 DUP2 SLOAD PUSH2 0x28A2 JUMP JUMPDEST SWAP1 SSTORE DUP6 DUP9 MSTORE DUP8 DUP5 MSTORE PUSH2 0x1ED5 DUP6 DUP10 KECCAK256 DUP9 PUSH2 0x23FB JUMP JUMPDEST SLOAD PUSH2 0x1EDF DUP9 PUSH2 0x24EB JUMP JUMPDEST DUP7 MLOAD SWAP2 DUP3 MSTORE DUP8 PUSH0 DUP1 MLOAD PUSH1 0x20 PUSH2 0x2AA3 DUP4 CODECOPY DUP2 MLOAD SWAP2 MSTORE DUP8 TIMESTAMP SWAP5 LOG4 DUP6 DUP9 MSTORE DUP8 DUP5 MSTORE PUSH1 0x1 PUSH2 0x1F0B DUP7 DUP11 KECCAK256 DUP10 PUSH2 0x23FB JUMP JUMPDEST ADD CALLER DUP10 MSTORE DUP5 MSTORE PUSH2 0x1F1D DUP6 DUP10 KECCAK256 SLOAD PUSH2 0x28E3 JUMP JUMPDEST SWAP2 DUP7 DUP10 MSTORE DUP9 DUP6 MSTORE PUSH2 0x1F36 PUSH1 0x1 DUP6 PUSH2 0x1215 DUP10 DUP14 KECCAK256 DUP13 PUSH2 0x23FB JUMP JUMPDEST DUP7 DUP10 MSTORE DUP9 DUP6 MSTORE DUP4 PUSH2 0x1F49 DUP8 DUP12 KECCAK256 DUP11 PUSH2 0x23FB JUMP JUMPDEST ADD SLOAD PUSH0 NOT SWAP2 SWAP1 DUP3 DUP2 ADD SWAP1 DUP2 GT PUSH2 0x1400 JUMPI DUP5 SUB PUSH2 0x1F9E JUMPI JUMPDEST POP POP POP POP SWAP1 PUSH2 0x12A8 PUSH32 0xD6D87A1EC8D7320486A7705035A72A09149F3C5E25DCCCB14A1C99EEBC86D6C0 SWAP3 DUP6 DUP9 MSTORE DUP8 DUP4 MSTORE PUSH1 0x1 PUSH2 0x1285 DUP7 DUP11 KECCAK256 DUP10 PUSH2 0x23FB JUMP JUMPDEST DUP8 DUP11 MSTORE DUP10 DUP7 MSTORE DUP5 PUSH2 0x1FB1 DUP9 DUP13 KECCAK256 DUP12 PUSH2 0x23FB JUMP JUMPDEST ADD SWAP1 DUP9 DUP12 MSTORE DUP11 DUP8 MSTORE DUP6 PUSH2 0x1FC6 DUP10 DUP14 KECCAK256 DUP13 PUSH2 0x23FB JUMP JUMPDEST ADD SLOAD SWAP3 DUP4 ADD SWAP3 DUP4 GT PUSH2 0x13ED JUMPI POP SWAP3 DUP6 DUP9 DUP5 PUSH2 0x2065 DUP5 DUP10 DUP16 DUP16 DUP15 PUSH2 0x1358 SWAP3 PUSH32 0xD6D87A1EC8D7320486A7705035A72A09149F3C5E25DCCCB14A1C99EEBC86D6C0 SWAP16 SWAP15 SWAP13 PUSH2 0x203A SWAP1 PUSH2 0x12A8 SWAP16 PUSH2 0x2079 SWAP15 PUSH2 0x201C SWAP2 PUSH2 0x2354 JUMP JUMPDEST SWAP1 SLOAD SWAP1 DUP9 SHL SHR AND DUP11 DUP4 MSTORE DUP3 DUP13 MSTORE PUSH2 0x135E DUP9 DUP9 PUSH2 0x1358 DUP8 DUP8 KECCAK256 DUP10 PUSH2 0x23FB JUMP JUMPDEST DUP1 PUSH2 0x2044 DUP8 PUSH2 0x28E3 JUMP JUMPDEST SWAP11 DUP11 DUP3 MSTORE DUP2 DUP2 MSTORE PUSH1 0x1 PUSH2 0x2059 DUP6 DUP5 KECCAK256 DUP8 PUSH2 0x23FB JUMP JUMPDEST ADD SWAP11 DUP3 MSTORE MSTORE KECCAK256 SWAP1 PUSH2 0x23FB JUMP JUMPDEST SWAP1 SLOAD SWAP1 DUP8 SHL SHR AND DUP13 MSTORE DUP7 MSTORE DUP8 DUP12 KECCAK256 SSTORE PUSH2 0x28E3 JUMP JUMPDEST DUP7 PUSH2 0x2083 DUP10 PUSH2 0x24EB JUMP JUMPDEST DUP8 MLOAD SWAP3 DUP4 MSTORE PUSH32 0xD6FA86004958E4FADC7035E661E86172C72F1EA51E79E8BF8BD3F4103663E8E3 DUP7 CALLER SWAP5 LOG4 SWAP2 SWAP3 PUSH0 DUP1 PUSH2 0x1F60 JUMP JUMPDEST DUP5 MLOAD PUSH3 0x461BCD PUSH1 0xE5 SHL DUP2 MSTORE DUP1 DUP4 ADD DUP6 SWAP1 MSTORE PUSH1 0x36 PUSH1 0x24 DUP3 ADD MSTORE PUSH32 0x596F752068617665206E6F7420676976656E2061206E65676174697665206372 PUSH1 0x44 DUP3 ADD MSTORE PUSH22 0x32B2103A37903A3434B99036B2B6B132B9103CB2BA17 PUSH1 0x51 SHL PUSH1 0x64 DUP3 ADD MSTORE PUSH1 0x84 SWAP1 REVERT JUMPDEST PUSH2 0xD75 SWAP2 POP DUP8 RETURNDATASIZE DUP10 GT PUSH2 0x52F JUMPI PUSH2 0x521 DUP2 DUP4 PUSH2 0x2247 JUMP JUMPDEST PUSH2 0x939 SWAP2 POP DUP9 RETURNDATASIZE DUP11 GT PUSH2 0x46A JUMPI PUSH2 0x45C DUP2 DUP4 PUSH2 0x2247 JUMP JUMPDEST DUP8 MLOAD RETURNDATASIZE DUP13 DUP3 RETURNDATACOPY RETURNDATASIZE SWAP1 REVERT JUMPDEST POP CALLVALUE PUSH2 0x175 JUMPI PUSH1 0x20 CALLDATASIZE PUSH1 0x3 NOT ADD SLT PUSH2 0x175 JUMPI PUSH2 0x216A PUSH2 0x2217 JUMP JUMPDEST PUSH1 0x2 SLOAD PUSH1 0x1 PUSH1 0x1 PUSH1 0xA0 SHL SUB SWAP4 SWAP2 SWAP3 SWAP2 SWAP1 DUP5 AND CALLER SUB PUSH2 0x2198 JUMPI POP POP AND PUSH1 0x1 DUP1 PUSH1 0xA0 SHL SUB NOT PUSH1 0x3 SLOAD AND OR PUSH1 0x3 SSTORE DUP1 RETURN JUMPDEST SWAP1 PUSH1 0x20 PUSH1 0x64 SWAP3 MLOAD SWAP2 PUSH3 0x461BCD PUSH1 0xE5 SHL DUP4 MSTORE DUP3 ADD MSTORE PUSH1 0x16 PUSH1 0x24 DUP3 ADD MSTORE PUSH22 0x2737BA103A34329031B7B73A3930B1BA1037BBB732B9 PUSH1 0x51 SHL PUSH1 0x44 DUP3 ADD MSTORE REVERT JUMPDEST POP CALLVALUE PUSH2 0x175 JUMPI PUSH2 0x220B DUP3 PUSH1 0x20 SWAP5 PUSH2 0xA87 SWAP4 PUSH2 0x21EE CALLDATASIZE PUSH2 0x22D1 JUMP JUMPDEST SWAP5 SWAP1 PUSH1 0x1 DUP1 PUSH1 0xA0 SHL SUB AND SWAP2 DUP3 DUP5 MSTORE DUP4 DUP10 MSTORE PUSH2 0x142 DUP6 DUP6 KECCAK256 DUP8 PUSH2 0x23FB JUMP JUMPDEST DUP2 MSTORE DUP1 DUP7 MSTORE KECCAK256 SWAP1 PUSH2 0x23FB JUMP JUMPDEST PUSH1 0x4 CALLDATALOAD SWAP1 PUSH1 0x1 PUSH1 0x1 PUSH1 0xA0 SHL SUB DUP3 AND DUP3 SUB PUSH2 0x222D JUMPI JUMP JUMPDEST PUSH0 DUP1 REVERT JUMPDEST PUSH1 0x24 CALLDATALOAD SWAP1 PUSH1 0x1 PUSH1 0x1 PUSH1 0xA0 SHL SUB DUP3 AND DUP3 SUB PUSH2 0x222D JUMPI JUMP JUMPDEST SWAP1 PUSH1 0x1F DUP1 NOT SWAP2 ADD AND DUP2 ADD SWAP1 DUP2 LT PUSH1 0x1 PUSH1 0x1 PUSH1 0x40 SHL SUB DUP3 GT OR PUSH2 0x2268 JUMPI PUSH1 0x40 MSTORE JUMP JUMPDEST PUSH4 0x4E487B71 PUSH1 0xE0 SHL PUSH0 MSTORE PUSH1 0x41 PUSH1 0x4 MSTORE PUSH1 0x24 PUSH0 REVERT JUMPDEST DUP2 PUSH1 0x1F DUP3 ADD SLT ISZERO PUSH2 0x222D JUMPI DUP1 CALLDATALOAD SWAP1 PUSH1 0x1 PUSH1 0x1 PUSH1 0x40 SHL SUB DUP3 GT PUSH2 0x2268 JUMPI PUSH1 0x40 MLOAD SWAP3 PUSH2 0x22B0 PUSH1 0x1F DUP5 ADD PUSH1 0x1F NOT AND PUSH1 0x20 ADD DUP6 PUSH2 0x2247 JUMP JUMPDEST DUP3 DUP5 MSTORE PUSH1 0x20 DUP4 DUP4 ADD ADD GT PUSH2 0x222D JUMPI DUP2 PUSH0 SWAP3 PUSH1 0x20 DUP1 SWAP4 ADD DUP4 DUP7 ADD CALLDATACOPY DUP4 ADD ADD MSTORE SWAP1 JUMP JUMPDEST SWAP1 PUSH1 0x40 PUSH1 0x3 NOT DUP4 ADD SLT PUSH2 0x222D JUMPI PUSH1 0x4 CALLDATALOAD PUSH1 0x1 PUSH1 0x1 PUSH1 0xA0 SHL SUB DUP2 AND DUP2 SUB PUSH2 0x222D JUMPI SWAP2 PUSH1 0x24 CALLDATALOAD SWAP1 PUSH1 0x1 PUSH1 0x1 PUSH1 0x40 SHL SUB DUP3 GT PUSH2 0x222D JUMPI PUSH2 0x2310 SWAP2 PUSH1 0x4 ADD PUSH2 0x227C JUMP JUMPDEST SWAP1 JUMP JUMPDEST PUSH1 0x40 PUSH1 0x3 NOT DUP3 ADD SLT PUSH2 0x222D JUMPI PUSH1 0x4 CALLDATALOAD SWAP1 PUSH1 0x1 PUSH1 0x1 PUSH1 0x40 SHL SUB DUP3 GT PUSH2 0x222D JUMPI PUSH2 0x233D SWAP2 PUSH1 0x4 ADD PUSH2 0x227C JUMP JUMPDEST SWAP1 PUSH1 0x24 CALLDATALOAD PUSH1 0x1 PUSH1 0x1 PUSH1 0xA0 SHL SUB DUP2 AND DUP2 SUB PUSH2 0x222D JUMPI SWAP1 JUMP JUMPDEST DUP1 SLOAD DUP3 LT ISZERO PUSH2 0x2369 JUMPI PUSH0 MSTORE PUSH1 0x20 PUSH0 KECCAK256 ADD SWAP1 PUSH0 SWAP1 JUMP JUMPDEST PUSH4 0x4E487B71 PUSH1 0xE0 SHL PUSH0 MSTORE PUSH1 0x32 PUSH1 0x4 MSTORE PUSH1 0x24 PUSH0 REVERT JUMPDEST SWAP1 PUSH1 0x1 DUP3 DUP2 SHR SWAP3 AND DUP1 ISZERO PUSH2 0x23AB JUMPI JUMPDEST PUSH1 0x20 DUP4 LT EQ PUSH2 0x2397 JUMPI JUMP JUMPDEST PUSH4 0x4E487B71 PUSH1 0xE0 SHL PUSH0 MSTORE PUSH1 0x22 PUSH1 0x4 MSTORE PUSH1 0x24 PUSH0 REVERT JUMPDEST SWAP2 PUSH1 0x7F AND SWAP2 PUSH2 0x238C JUMP JUMPDEST PUSH0 JUMPDEST DUP4 DUP2 LT PUSH2 0x23C6 JUMPI POP POP PUSH0 SWAP2 ADD MSTORE JUMP JUMPDEST DUP2 DUP2 ADD MLOAD DUP4 DUP3 ADD MSTORE PUSH1 0x20 ADD PUSH2 0x23B7 JUMP JUMPDEST SWAP1 PUSH1 0x20 SWAP2 PUSH2 0x23EF DUP2 MLOAD DUP1 SWAP3 DUP2 DUP6 MSTORE DUP6 DUP1 DUP7 ADD SWAP2 ADD PUSH2 0x23B5 JUMP JUMPDEST PUSH1 0x1F ADD PUSH1 0x1F NOT AND ADD ADD SWAP1 JUMP JUMPDEST PUSH1 0x20 SWAP1 PUSH2 0x2415 SWAP3 DUP3 PUSH1 0x40 MLOAD SWAP5 DUP4 DUP7 DUP1 SWAP6 MLOAD SWAP4 DUP5 SWAP3 ADD PUSH2 0x23B5 JUMP JUMPDEST DUP3 ADD SWAP1 DUP2 MSTORE SUB ADD SWAP1 KECCAK256 SWAP1 JUMP JUMPDEST SWAP1 DUP2 MLOAD DUP1 DUP3 MSTORE PUSH1 0x20 DUP1 DUP1 SWAP4 ADD SWAP4 ADD SWAP2 PUSH0 JUMPDEST DUP3 DUP2 LT PUSH2 0x2440 JUMPI POP POP POP POP SWAP1 JUMP JUMPDEST DUP4 MLOAD PUSH1 0x1 PUSH1 0x1 PUSH1 0xA0 SHL SUB AND DUP6 MSTORE SWAP4 DUP2 ADD SWAP4 SWAP3 DUP2 ADD SWAP3 PUSH1 0x1 ADD PUSH2 0x2432 JUMP JUMPDEST SWAP1 DUP2 PUSH1 0x20 SWAP2 SUB SLT PUSH2 0x222D JUMPI MLOAD PUSH1 0x1 PUSH1 0x1 PUSH1 0xA0 SHL SUB DUP2 AND DUP2 SUB PUSH2 0x222D JUMPI SWAP1 JUMP JUMPDEST SWAP1 DUP2 PUSH1 0x20 SWAP2 SUB SLT PUSH2 0x222D JUMPI MLOAD DUP1 ISZERO ISZERO DUP2 SUB PUSH2 0x222D JUMPI SWAP1 JUMP JUMPDEST ISZERO PUSH2 0x249B JUMPI JUMP JUMPDEST PUSH1 0x40 MLOAD PUSH3 0x461BCD PUSH1 0xE5 SHL DUP2 MSTORE PUSH1 0x20 PUSH1 0x4 DUP3 ADD MSTORE PUSH1 0x22 PUSH1 0x24 DUP3 ADD MSTORE PUSH32 0x5468697320636F6D6D756E697479206973206E6F7420696E76697465206F6E6C PUSH1 0x44 DUP3 ADD MSTORE PUSH2 0x3C97 PUSH1 0xF1 SHL PUSH1 0x64 DUP3 ADD MSTORE PUSH1 0x84 SWAP1 REVERT JUMPDEST PUSH2 0x2503 SWAP1 PUSH1 0x20 PUSH1 0x40 MLOAD SWAP3 DUP3 DUP5 DUP1 SWAP5 MLOAD SWAP4 DUP5 SWAP3 ADD PUSH2 0x23B5 JUMP JUMPDEST DUP2 ADD SUB SWAP1 KECCAK256 SWAP1 JUMP JUMPDEST DUP2 DUP2 LT PUSH2 0x2516 JUMPI POP POP JUMP JUMPDEST PUSH0 DUP2 SSTORE PUSH1 0x1 ADD PUSH2 0x250B JUMP JUMPDEST SWAP2 SWAP1 PUSH1 0x1F DUP2 GT PUSH2 0x2530 JUMPI POP POP POP JUMP JUMPDEST PUSH2 0x255A SWAP3 PUSH0 MSTORE PUSH1 0x20 PUSH0 KECCAK256 SWAP1 PUSH1 0x20 PUSH1 0x1F DUP5 ADD PUSH1 0x5 SHR DUP4 ADD SWAP4 LT PUSH2 0x255C JUMPI JUMPDEST PUSH1 0x1F ADD PUSH1 0x5 SHR ADD SWAP1 PUSH2 0x250B JUMP JUMPDEST JUMP JUMPDEST SWAP1 SWAP2 POP DUP2 SWAP1 PUSH2 0x254D JUMP JUMPDEST DUP1 SLOAD PUSH1 0x1 PUSH1 0x40 SHL DUP2 LT ISZERO PUSH2 0x2268 JUMPI PUSH2 0x2583 SWAP2 PUSH1 0x1 DUP3 ADD DUP2 SSTORE PUSH2 0x2354 JUMP JUMPDEST DUP2 SLOAD SWAP1 PUSH1 0x1 DUP1 PUSH1 0xA0 SHL SUB SWAP1 PUSH1 0x3 SHL SHL NOT AND SWAP1 SSTORE JUMP JUMPDEST DUP1 SLOAD SWAP2 SWAP1 PUSH1 0x1 PUSH1 0x40 SHL DUP4 LT ISZERO PUSH2 0x2268 JUMPI DUP3 PUSH2 0x135E SWAP2 PUSH1 0x1 PUSH2 0x255A SWAP6 ADD DUP2 SSTORE PUSH2 0x2354 JUMP JUMPDEST ISZERO PUSH2 0x25C2 JUMPI JUMP JUMPDEST PUSH1 0x40 MLOAD PUSH3 0x461BCD PUSH1 0xE5 SHL DUP2 MSTORE PUSH1 0x20 PUSH1 0x4 DUP3 ADD MSTORE PUSH1 0x18 PUSH1 0x24 DUP3 ADD MSTORE PUSH24 0x10DBDB5B5D5B9A5D1E48111BD95CC8139BDD08115E1A5CDD PUSH1 0x42 SHL PUSH1 0x44 DUP3 ADD MSTORE PUSH1 0x64 SWAP1 REVERT JUMPDEST ISZERO PUSH2 0x2609 JUMPI JUMP JUMPDEST PUSH1 0x40 MLOAD PUSH3 0x461BCD PUSH1 0xE5 SHL DUP2 MSTORE PUSH1 0x20 PUSH1 0x4 DUP3 ADD MSTORE PUSH1 0x27 PUSH1 0x24 DUP3 ADD MSTORE PUSH32 0x596F7520617265206E6F742061206D656D626572206F66207468697320636F6D PUSH1 0x44 DUP3 ADD MSTORE PUSH7 0x36BAB734BA3C97 PUSH1 0xC9 SHL PUSH1 0x64 DUP3 ADD MSTORE PUSH1 0x84 SWAP1 REVERT JUMPDEST SWAP1 DUP1 DUP3 EQ PUSH2 0x2734 JUMPI PUSH2 0x2670 DUP2 SLOAD PUSH2 0x237D JUMP JUMPDEST SWAP1 PUSH1 0x1 PUSH1 0x1 PUSH1 0x40 SHL SUB DUP3 GT PUSH2 0x2268 JUMPI DUP2 SWAP1 PUSH2 0x2695 DUP3 PUSH2 0x268F DUP7 SLOAD PUSH2 0x237D JUMP JUMPDEST DUP7 PUSH2 0x2521 JUMP JUMPDEST PUSH0 SWAP1 PUSH1 0x1F DUP4 GT PUSH1 0x1 EQ PUSH2 0x26C9 JUMPI PUSH0 SWAP3 PUSH2 0x26BE JUMPI JUMPDEST POP POP DUP2 PUSH1 0x1 SHL SWAP2 PUSH0 NOT SWAP1 PUSH1 0x3 SHL SHR NOT AND OR SWAP1 SSTORE JUMP JUMPDEST ADD SLOAD SWAP1 POP PUSH0 DUP1 PUSH2 0x26A9 JUMP JUMPDEST DUP2 MSTORE PUSH1 0x20 DUP1 DUP3 KECCAK256 DUP6 DUP4 MSTORE DUP2 DUP4 KECCAK256 SWAP4 POP SWAP1 PUSH1 0x1F NOT DUP6 AND SWAP1 DUP4 SWAP1 JUMPDEST DUP3 DUP3 LT PUSH2 0x271B JUMPI POP POP SWAP1 DUP5 PUSH1 0x1 SWAP6 SWAP5 SWAP4 SWAP3 LT PUSH2 0x2703 JUMPI JUMPDEST POP POP POP DUP2 SHL ADD SWAP1 SSTORE JUMP JUMPDEST ADD SLOAD PUSH0 NOT PUSH1 0xF8 DUP5 PUSH1 0x3 SHL AND SHR NOT AND SWAP1 SSTORE PUSH0 DUP1 DUP1 PUSH2 0x26F9 JUMP JUMPDEST DUP5 SWAP6 DUP2 SWAP3 SWAP6 DUP6 ADD SLOAD DUP2 SSTORE PUSH1 0x1 DUP1 SWAP2 ADD SWAP7 ADD SWAP5 ADD SWAP1 PUSH2 0x26E2 JUMP JUMPDEST POP POP JUMP JUMPDEST ISZERO PUSH2 0x273F JUMPI JUMP JUMPDEST PUSH1 0x40 MLOAD PUSH3 0x461BCD PUSH1 0xE5 SHL DUP2 MSTORE PUSH1 0x20 PUSH1 0x4 DUP3 ADD MSTORE PUSH1 0x2E PUSH1 0x24 DUP3 ADD MSTORE PUSH32 0x546172676574206D656D62657220646F65736E2774206578697374206F662074 PUSH1 0x44 DUP3 ADD MSTORE PUSH14 0x3434B99031B7B6B6BAB734BA3C97 PUSH1 0x91 SHL PUSH1 0x64 DUP3 ADD MSTORE PUSH1 0x84 SWAP1 REVERT JUMPDEST ISZERO PUSH2 0x27A2 JUMPI JUMP JUMPDEST PUSH1 0x40 MLOAD PUSH3 0x461BCD PUSH1 0xE5 SHL DUP2 MSTORE PUSH1 0x20 PUSH1 0x4 DUP3 ADD MSTORE PUSH1 0x1F PUSH1 0x24 DUP3 ADD MSTORE PUSH32 0x596F752063616E6E6F74206564697420796F7572206F776E2063726564732E00 PUSH1 0x44 DUP3 ADD MSTORE PUSH1 0x64 SWAP1 REVERT JUMPDEST ISZERO PUSH2 0x27EE JUMPI JUMP JUMPDEST PUSH1 0x40 MLOAD PUSH3 0x461BCD PUSH1 0xE5 SHL DUP2 MSTORE PUSH1 0x20 PUSH1 0x4 DUP3 ADD MSTORE PUSH1 0x26 PUSH1 0x24 DUP3 ADD MSTORE PUSH32 0x436F6D6D6D756E6974792055736573206120637265642061636365737320636F PUSH1 0x44 DUP3 ADD MSTORE PUSH6 0x1B9D1C9858DD PUSH1 0xD2 SHL PUSH1 0x64 DUP3 ADD MSTORE PUSH1 0x84 SWAP1 REVERT JUMPDEST ISZERO PUSH2 0x2849 JUMPI JUMP JUMPDEST PUSH1 0x40 MLOAD PUSH3 0x461BCD PUSH1 0xE5 SHL DUP2 MSTORE PUSH1 0x20 PUSH1 0x4 DUP3 ADD MSTORE PUSH1 0x2B PUSH1 0x24 DUP3 ADD MSTORE PUSH32 0x596F7527766520616C726561647920676976656E2061206372656420746F2074 PUSH1 0x44 DUP3 ADD MSTORE PUSH11 0x3434B99036B2B6B132B917 PUSH1 0xA9 SHL PUSH1 0x64 DUP3 ADD MSTORE PUSH1 0x84 SWAP1 REVERT JUMPDEST SWAP1 PUSH1 0x1 DUP3 ADD SWAP2 PUSH0 PUSH1 0x1 DUP5 SLT SWAP2 SLT SWAP1 DUP1 ISZERO DUP3 AND SWAP2 ISZERO AND OR PUSH2 0x28BE JUMPI JUMP JUMPDEST PUSH4 0x4E487B71 PUSH1 0xE0 SHL PUSH0 MSTORE PUSH1 0x11 PUSH1 0x4 MSTORE PUSH1 0x24 PUSH0 REVERT JUMPDEST SWAP1 PUSH0 NOT DUP3 ADD SWAP2 DUP3 SGT PUSH1 0x1 AND PUSH2 0x28BE JUMPI JUMP JUMPDEST SWAP1 DUP2 PUSH0 SUB SWAP2 DUP1 DUP4 SDIV PUSH0 NOT EQ SWAP1 ISZERO OR ISZERO PUSH2 0x28BE JUMPI JUMP JUMPDEST ISZERO PUSH2 0x28FF JUMPI JUMP JUMPDEST PUSH1 0x40 MLOAD PUSH3 0x461BCD PUSH1 0xE5 SHL DUP2 MSTORE PUSH1 0x20 PUSH1 0x4 DUP3 ADD MSTORE PUSH1 0x16 PUSH1 0x24 DUP3 ADD MSTORE PUSH22 0x54686973207573657220686173206E6F204372656473 PUSH1 0x50 SHL PUSH1 0x44 DUP3 ADD MSTORE PUSH1 0x64 SWAP1 REVERT JUMPDEST DUP1 SLOAD DUP1 ISZERO PUSH2 0x2969 JUMPI PUSH0 NOT ADD SWAP1 PUSH2 0x2953 DUP3 DUP3 PUSH2 0x2354 JUMP JUMPDEST DUP2 SLOAD SWAP1 PUSH1 0x1 DUP1 PUSH1 0xA0 SHL SUB SWAP1 PUSH1 0x3 SHL SHL NOT AND SWAP1 SSTORE SSTORE JUMP JUMPDEST PUSH4 0x4E487B71 PUSH1 0xE0 SHL PUSH0 MSTORE PUSH1 0x31 PUSH1 0x4 MSTORE PUSH1 0x24 PUSH0 REVERT JUMPDEST PUSH1 0x1 PUSH1 0x1 PUSH1 0xA0 SHL SUB AND PUSH0 SWAP1 DUP2 MSTORE PUSH1 0x20 DUP2 SWAP1 MSTORE PUSH1 0x40 SWAP1 KECCAK256 PUSH1 0x4 SWAP2 PUSH2 0x29A0 SWAP2 SWAP1 PUSH2 0x23FB JUMP JUMPDEST ADD SLOAD PUSH2 0x29AA JUMPI PUSH0 SWAP1 JUMP JUMPDEST PUSH1 0x1 SWAP1 JUMP JUMPDEST ISZERO PUSH2 0x29B6 JUMPI JUMP JUMPDEST PUSH1 0x40 MLOAD PUSH3 0x461BCD PUSH1 0xE5 SHL DUP2 MSTORE PUSH1 0x20 PUSH1 0x4 DUP3 ADD MSTORE PUSH1 0x28 PUSH1 0x24 DUP3 ADD MSTORE PUSH32 0x4D656D62657220446F6573204E6F7420457869737420466F7220746869732063 PUSH1 0x44 DUP3 ADD MSTORE PUSH8 0x6F6D6D756E697479 PUSH1 0xC0 SHL PUSH1 0x64 DUP3 ADD MSTORE PUSH1 0x84 SWAP1 REVERT JUMPDEST SWAP1 PUSH1 0x40 MLOAD SWAP2 DUP3 DUP2 SLOAD SWAP2 DUP3 DUP3 MSTORE PUSH1 0x20 SWAP3 DUP4 DUP4 ADD SWAP2 PUSH0 MSTORE DUP4 PUSH0 KECCAK256 SWAP4 PUSH0 SWAP1 JUMPDEST DUP3 DUP3 LT PUSH2 0x2A3E JUMPI POP POP POP PUSH2 0x255A SWAP3 POP SUB DUP4 PUSH2 0x2247 JUMP JUMPDEST DUP6 SLOAD PUSH1 0x1 PUSH1 0x1 PUSH1 0xA0 SHL SUB AND DUP5 MSTORE PUSH1 0x1 SWAP6 DUP7 ADD SWAP6 DUP9 SWAP6 POP SWAP4 DUP2 ADD SWAP4 SWAP1 SWAP2 ADD SWAP1 PUSH2 0x2A28 JUMP JUMPDEST PUSH1 0x1 PUSH1 0x1 PUSH1 0xA0 SHL SUB SWAP1 DUP2 AND PUSH0 SWAP1 DUP2 MSTORE PUSH1 0x20 DUP2 SWAP1 MSTORE PUSH1 0x40 DUP2 KECCAK256 SWAP1 SWAP4 SWAP3 PUSH1 0x1 SWAP2 PUSH2 0x2A88 SWAP2 PUSH2 0x23FB JUMP JUMPDEST SWAP2 SWAP1 SWAP3 AND DUP4 MSTORE ADD PUSH1 0x20 MSTORE PUSH1 0x40 DUP2 KECCAK256 SLOAD ISZERO PUSH2 0x2310 JUMPI POP PUSH1 0x1 SWAP1 JUMP INVALID NOT JUMP 0xA9 CODECOPY 0xE1 SWAP7 BALANCE 0x27 0xA6 DUP1 0x2B 0xC7 0xDF 0xF8 0xC4 EXTCODEHASH SWAP12 0xC5 MLOAD LOG0 0xBF SWAP8 0xEF 0xC6 GT PUSH17 0x6570E4108402A264697066735822122002 CHAINID 0xFB DUP7 0xB0 PC ISZERO 0xAA XOR BASEFEE RETURNDATASIZE PUSH24 0xB63D7254430759E2A48F15AD795B79633A44FA8364736F6C PUSH4 0x43000814 STOP CALLER "},"methodIdentifiers":{"addNegCredsToMember(string,address)":"99d03bf2","addPosCredsToMember(string,address)":"b66fdab4","addSelfAsMember(string)":"5450fdd5","communityContract()":"8e634029","contractSetCred(string,address,int256)":"bf2a3b74","getIsInvited(address,string)":"e636f314","getIsMember(address,string)":"b091c546","getMemberCredIndex(address,address,string)":"9c419dc9","getMemberCreds(address,string)":"02b5df59","getMemberNegCredsList(address,string)":"fbc3d96c","getMemberPosCredsList(address,string)":"f3faf99a","getReiewerCommunityInfo(address,string)":"ef0ed360","hasMemberGivenCred(address,string,address)":"c783acb4","inviteMember(string,address)":"cdb43ea4","isInvited(string,address)":"a4828578","memberCommunities(address,uint256)":"6255de33","removeNegCredsFromMember(string,address)":"4f64aedd","removePosCredsFromMember(string,address)":"8c5956c4","removeSelfAsMember(string)":"ca4f880b","setlearntgetherCommunities(address)":"19f553e2","uninviteMember(string,address)":"6b039bb4"}}}}}