{"contracts/learntgether.sol":{"learntgether":{"abi":[{"inputs":[{"internalType":"address","name":"_linkTokenAddress","type":"address"},{"internalType":"address","name":"_automationAddress","type":"address"},{"internalType":"uint256","name":"_feePrice","type":"uint256"}],"stateMutability":"nonpayable","type":"constructor"},{"anonymous":false,"inputs":[{"indexed":true,"internalType":"string","name":"subjectName","type":"string"},{"indexed":true,"internalType":"address","name":"reviewer","type":"address"}],"name":"CredsAdded","type":"event"},{"anonymous":false,"inputs":[{"indexed":true,"internalType":"string","name":"subjectName","type":"string"},{"indexed":true,"internalType":"address","name":"reviewer","type":"address"}],"name":"CredsRemoved","type":"event"},{"anonymous":false,"inputs":[{"indexed":false,"internalType":"address","name":"proposer","type":"address"},{"indexed":false,"internalType":"string","name":"subjectName","type":"string"},{"indexed":false,"internalType":"uint256","name":"numReviewsForAcceptance","type":"uint256"},{"indexed":false,"internalType":"uint256","name":"credsNeededForReview","type":"uint256"},{"indexed":false,"internalType":"uint256","name":"percentAcceptsNeeded","type":"uint256"},{"indexed":false,"internalType":"uint256","name":"minCredsToProposeVote","type":"uint256"},{"indexed":false,"internalType":"uint256","name":"minCredsToVote","type":"uint256"},{"indexed":false,"internalType":"uint256","name":"maxCredsCountedForVote","type":"uint256"},{"indexed":false,"internalType":"uint256","name":"minProposalVotes","type":"uint256"},{"indexed":false,"internalType":"uint256","name":"timestamp","type":"uint256"}],"name":"ProposalCreated","type":"event"},{"anonymous":false,"inputs":[{"indexed":true,"internalType":"string","name":"subjectName","type":"string"},{"indexed":true,"internalType":"address","name":"reviewerAddress","type":"address"}],"name":"ReviewerAdded","type":"event"},{"anonymous":false,"inputs":[{"indexed":true,"internalType":"string","name":"subjectName","type":"string"},{"indexed":false,"internalType":"address","name":"creator","type":"address"},{"indexed":false,"internalType":"uint256","name":"numReviewsForAcceptance","type":"uint256"},{"indexed":false,"internalType":"uint256","name":"credsNeededForReview","type":"uint256"},{"indexed":false,"internalType":"uint256","name":"percentAcceptsNeeded","type":"uint256"},{"indexed":false,"internalType":"uint256","name":"minCredsToProposeVote","type":"uint256"},{"indexed":false,"internalType":"uint256","name":"minCredsToVote","type":"uint256"},{"indexed":false,"internalType":"uint256","name":"maxCredsCountedForVote","type":"uint256"},{"indexed":false,"internalType":"uint256","name":"minProposalVotes","type":"uint256"}],"name":"SubjectCreated","type":"event"},{"anonymous":false,"inputs":[{"indexed":true,"internalType":"uint256","name":"proposalId","type":"uint256"},{"indexed":true,"internalType":"address","name":"voter","type":"address"},{"indexed":false,"internalType":"bool","name":"voteChoice","type":"bool"}],"name":"Voted","type":"event"},{"inputs":[],"name":"AutomationContract","outputs":[{"internalType":"contract ChainlinkAutomation","name":"","type":"address"}],"stateMutability":"view","type":"function"},{"inputs":[{"internalType":"string","name":"_subjectName","type":"string"},{"internalType":"address","name":"_reviewer","type":"address"}],"name":"addCredsToReviewer","outputs":[],"stateMutability":"nonpayable","type":"function"},{"inputs":[{"internalType":"string","name":"_subjectName","type":"string"},{"internalType":"string","name":"_name","type":"string"},{"internalType":"string","name":"_description","type":"string"},{"internalType":"string[]","name":"_degrees","type":"string[]"},{"internalType":"string[]","name":"_awards","type":"string[]"}],"name":"addSelfAsReviewer","outputs":[],"stateMutability":"nonpayable","type":"function"},{"inputs":[{"internalType":"bytes","name":"","type":"bytes"}],"name":"checkUpKeep","outputs":[{"internalType":"bool","name":"upkeepNeeded","type":"bool"},{"internalType":"bytes","name":"","type":"bytes"}],"stateMutability":"view","type":"function"},{"inputs":[{"internalType":"string","name":"_subjectName","type":"string"},{"internalType":"uint256","name":"_numReviewsForAcceptance","type":"uint256"},{"internalType":"uint256","name":"_credsNeededForReview","type":"uint256"},{"internalType":"uint256","name":"_percentAcceptsNeeded","type":"uint256"},{"internalType":"uint256","name":"_minCredsToProposeVote","type":"uint256"},{"internalType":"uint256","name":"_minCredsToVote","type":"uint256"},{"internalType":"uint256","name":"_maxCredsCountedForVote","type":"uint256"},{"internalType":"uint256","name":"_minProposalVotes","type":"uint256"}],"name":"createSubject","outputs":[],"stateMutability":"nonpayable","type":"function"},{"inputs":[{"internalType":"string","name":"_subjectName","type":"string"},{"internalType":"address","name":"_reviewerAddress","type":"address"}],"name":"getReviewer","outputs":[{"internalType":"address","name":"","type":"address"},{"internalType":"uint256","name":"","type":"uint256"},{"internalType":"string","name":"","type":"string"},{"internalType":"string","name":"","type":"string"}],"stateMutability":"view","type":"function"},{"inputs":[{"internalType":"bytes","name":"","type":"bytes"}],"name":"performUpkeep","outputs":[],"stateMutability":"nonpayable","type":"function"},{"inputs":[],"name":"proposalFeeInLink","outputs":[{"internalType":"uint256","name":"","type":"uint256"}],"stateMutability":"view","type":"function"},{"inputs":[{"internalType":"uint256","name":"","type":"uint256"}],"name":"proposals","outputs":[{"internalType":"address","name":"proposer","type":"address"},{"internalType":"string","name":"subjectName","type":"string"},{"internalType":"uint256","name":"numReviewsForAcceptance","type":"uint256"},{"internalType":"uint256","name":"credsNeededForReview","type":"uint256"},{"internalType":"uint256","name":"percentAcceptsNeeded","type":"uint256"},{"internalType":"uint256","name":"minCredsToProposeVote","type":"uint256"},{"internalType":"uint256","name":"minCredsToVote","type":"uint256"},{"internalType":"uint256","name":"maxCredsCountedForVote","type":"uint256"},{"internalType":"uint256","name":"minProposalVotes","type":"uint256"},{"internalType":"uint256","name":"timestamp","type":"uint256"},{"internalType":"uint256","name":"yesVotes","type":"uint256"},{"internalType":"uint256","name":"noVotes","type":"uint256"},{"internalType":"uint256","name":"yesCreds","type":"uint256"},{"internalType":"uint256","name":"noCreds","type":"uint256"}],"stateMutability":"view","type":"function"},{"inputs":[{"internalType":"string","name":"_subjectName","type":"string"},{"internalType":"uint256","name":"_numReviewsForAcceptance","type":"uint256"},{"internalType":"uint256","name":"_credsNeededForReview","type":"uint256"},{"internalType":"uint256","name":"_percentAcceptsNeeded","type":"uint256"},{"internalType":"uint256","name":"_minCredsToProposeVote","type":"uint256"},{"internalType":"uint256","name":"_minCredsToVote","type":"uint256"},{"internalType":"uint256","name":"_maxCredsCountedForVote","type":"uint256"},{"internalType":"uint256","name":"_minProposalVotes","type":"uint256"}],"name":"propose","outputs":[],"stateMutability":"nonpayable","type":"function"},{"inputs":[{"internalType":"string","name":"_subjectName","type":"string"},{"internalType":"address","name":"_reviewer","type":"address"}],"name":"removeCredsFromReviewer","outputs":[],"stateMutability":"nonpayable","type":"function"},{"inputs":[{"internalType":"address","name":"_contractAddress","type":"address"}],"name":"setAutomationRegistry","outputs":[],"stateMutability":"nonpayable","type":"function"},{"inputs":[{"internalType":"uint256","name":"_feePrice","type":"uint256"}],"name":"setFee","outputs":[],"stateMutability":"nonpayable","type":"function"},{"inputs":[{"internalType":"uint256","name":"_votetime","type":"uint256"}],"name":"setOpenVoteTime","outputs":[],"stateMutability":"nonpayable","type":"function"},{"inputs":[{"internalType":"uint256","name":"_upkeepId","type":"uint256"}],"name":"setUpkkepId","outputs":[],"stateMutability":"nonpayable","type":"function"},{"inputs":[{"internalType":"uint256","name":"","type":"uint256"}],"name":"subjectNames","outputs":[{"internalType":"string","name":"","type":"string"}],"stateMutability":"view","type":"function"},{"inputs":[{"internalType":"string","name":"","type":"string"}],"name":"subjects","outputs":[{"internalType":"address","name":"creator","type":"address"},{"internalType":"uint256","name":"numReviewsForAcceptance","type":"uint256"},{"internalType":"uint256","name":"credsNeededForReview","type":"uint256"},{"internalType":"uint256","name":"percentAcceptsNeeded","type":"uint256"},{"internalType":"uint256","name":"minCredsToProposeVote","type":"uint256"},{"internalType":"uint256","name":"minCredsToVote","type":"uint256"},{"internalType":"uint256","name":"maxCredsCountedForVote","type":"uint256"},{"internalType":"uint256","name":"minProposalVotes","type":"uint256"}],"stateMutability":"view","type":"function"},{"inputs":[{"internalType":"uint256","name":"proposalId","type":"uint256"},{"internalType":"bool","name":"voteChoice","type":"bool"}],"name":"vote","outputs":[],"stateMutability":"nonpayable","type":"function"}],"evm":{"bytecode":{"linkReferences":{},"object":"608034620000af57601f620021e838819003918201601f19168301916001600160401b03831184841017620000b357808492606094604052833981010312620000af576200004d81620000c7565b9060406200005e60208301620000c7565b9101519160018060a01b0319913383600654161760065560018060a01b03809216836005541617600555169182826009541617600955600755600a541617600a5560405161210b9081620000dd8239f35b5f80fd5b634e487b7160e01b5f52604160045260245ffd5b51906001600160a01b0382168203620000af5756fe60806040526004361015610011575f80fd5b5f803560e01c8063013cf08b1461193957806318f6b962146116e35780633371ef7d146114a6578063408958d61461147d5780634585e33b146112995780635787a0cc14611269578063585e01e4146110035780635e6c102e14610f765780635ff2d2aa14610f2257806369fe0e2d14610ef257806374daa14914610a905780637823e22614610a725780638640f71814610a42578063ac92333414610507578063c9d27afe1461027d578063fc687c801461021a578063fdc1a91c1461017e5763fe290423146100e0575f80fd5b3461017b57602036600319011261017b576004356001600160401b0381116101775761012a916101166020923690600401611b6d565b908260405194838680955193849201611b27565b82019081520301902060018060a01b0381541661017360028301549260038101549060048101546005820154600683015491600860078501549401549460405198899889611d93565b0390f35b5080fd5b80fd5b503461017b5760016101a8602061019436611bc6565b948260405194838680955193849201611b27565b8201908152030190200160018060a01b038092165f5260205260405f209081541661017360018301549261020c6101ed60046101e660038501611a86565b9301611a86565b9160405195869586526020860152608060408601526080850190611b48565b908382036060850152611b48565b503461017b57602036600319011261017b576004356001548110156101775761024290611d1d565b9190916102695761017361025583611a86565b604051918291602083526020830190611b48565b634e487b7160e01b81526004819052602490fd5b503461017b57604036600319011261017b5760249081358015159060043590828103610503576004548210156104c4578184526020906002825260408520956001916102ca838901611a86565b91604051848451918781818801946102e3818388611b27565b81018d81520301902001335f5286526103093360018060a01b0360405f20541614611f49565b600e8a0193335f5284875260ff60405f2054166104865786869261033892604051938492839251928391611b27565b81018c81520301902001335f5285528360405f20015460068a015481106104425760078a0154908181111561043a5750915b156103eb57600a89018054918583018093116103d957507ff2913dbe661ee2acc4a046d8fbcdc792373bda34c41c6086484b5345e5785e5f969798996103b792600c92550191825461200a565b90555b335f52825260405f209060ff198254161790556040519384523393a380f35b634e487b7160e01b8a52601160045289fd5b600b89018054918583018093116103d957507ff2913dbe661ee2acc4a046d8fbcdc792373bda34c41c6086484b5345e5785e5f9697989961043392600d92550191825461200a565b90556103ba565b90509161036a565b60405162461bcd60e51b815260048101879052601b818401527f496e73756666696369656e7420637265647320746f20766f74652e00000000006044820152606490fd5b60405162461bcd60e51b815260048101889052601781850152762cb7ba903430bb329030b63932b0b23c903b37ba32b21760491b6044820152606490fd5b60405162461bcd60e51b81526020600482015260188187015277283937b837b9b0b6103237b2b9903737ba1032bc34b9ba1760411b6044820152606490fd5b8380fd5b503461017b5761051636611c07565b9488602060018060a09895989796971b0360055416606460075460405194859384926323b872dd60e01b845233600485015230602485015260448401525af19081156108ae578a91610a23575b50156109e8576005546040516370a0823160e01b8152336004820152906001600160a01b0316602082602481845afa9182156109a8578b926109b3575b50906020602492604051938480926370a0823160e01b82523060048301525afa9182156109a8578b9261096e575b50906105dc6105e192612088565b612088565b60405188519060208a01916105f7818385611b27565b81018b81528190036020019020546001600160a01b0316156109315760056106936020600160408e828f858961066d9284875184818451610639818389611b27565b81018a81520301902001338752835261065d33868060a01b03898920541614611f49565b8651938492839251928391611b27565b810185815203019020013382528452200154938d8d604051948593849251928391611b27565b8201908152030190200154116108ec57600454895260026020526040892080546001600160a01b031916331781556106ce8960018301611de8565b87600282015581600382015582600482015583600582015584600682015585600782015586600882015560094291015560018060a01b0360055416602060018060a01b03600a54166044600754918d604051958694859363095ea7b360e01b8552600485015260248401525af180156108ae576108bd575b5060018060a01b036009541689600b5460075490833b156108b95760449083604051958694859363085f452560e41b8552600485015260248401525af180156108ae5761087f575b50600454600354600160401b81101561086b57906107b58260016107cd9401600355611d7b565b90919082549060031b91821b915f19901b1916179055565b6004545f19811461085757916108259795939160017f3f33fae0a54ff18815b236d9451459bb96255ffc3c13b43794e8507ad23db4539a98969401600455604051988998338a526101408060208c01528a0190611b48565b9660408901526060880152608087015260a086015260c085015260e0840152610100830152426101208301520390a180f35b634e487b7160e01b8a52601160045260248afd5b634e487b7160e01b8b52604160045260248bfd5b6001600160401b03819a929a1161089a57604052975f61078e565b634e487b7160e01b82526041600452602482fd5b6040513d8c823e3d90fd5b8280fd5b6108de9060203d6020116108e5575b6108d68183611a51565b81019061202b565b505f610746565b503d6108cc565b60405162461bcd60e51b815260206004820152601e60248201527f496e73756666696369656e7420637265647320746f2070726f706f73652e00006044820152606490fd5b60405162461bcd60e51b815260206004820152601560248201527414dd589a9958dd08191bd95cdb89dd08195e1a5cdd605a1b6044820152606490fd5b91506020823d6020116109a0575b8161098960209383611a51565b8101031261099c579051906105dc6105ce565b8a80fd5b3d915061097c565b6040513d8d823e3d90fd5b91506020823d6020116109e0575b816109ce60209383611a51565b8101031261099c5790519060206105a0565b3d91506109c1565b60405162461bcd60e51b8152602060048201526013602482015272119959481d1c985b9cd9995c8819985a5b1959606a1b6044820152606490fd5b610a3c915060203d6020116108e5576108d68183611a51565b5f610563565b503461017b57602036600319011261017b57610a6960018060a01b03600654163314612043565b60043560085580f35b503461017b578060031936011261017b576020600754604051908152f35b503461017b5760a036600319011261017b576001600160401b036004358181116108b957610ac2903690600401611b6d565b9060243581811161050357610adb903690600401611b6d565b90604435818111610eee57610af4903690600401611b6d565b606435828111610eea57610b0c903690600401611c9a565b91608435908111610eea57610b25903690600401611c9a565b926040519385519260209283880194610b3f818988611b27565b870189815287856001998a930301902001338a52845260018060a01b038060408b205416610e9057610c58929188610c0f87898e8e610b9f610c2a9860405186818551610b8d81838b611b27565b81018781520301902054161515611f04565b8560405185818451610bb281838a611b27565b810186815203019020013383528452604082203360018060a01b03198254161790558560405185818451610be781838a611b27565b8101868152030190200133835284528186604082200155604051948593849251928391611b27565b82019081520301902001338c528652600360408c2001611de8565b8660405185818b51610c3d81838c611b27565b81018d81520301902001338a528452600460408a2001611de8565b8460405183818951610c6b81838a611b27565b81018b815203019020338952018252604087208451600160401b956005959286019087831161086b5785908254848455808510610e18575b5091818a959394929401908c52838c208c915b838310610df5575050505090610cd791604051809381928c51928391611b27565b81018b81520301902001338852825260066040882001928151948511610de1578354858555839291818710610d67575b50500191865280862086925b848410610d4c578733610d2589611ee4565b7fbdfa00028aa6c888a03528a2075ea227b56f2f5182dcf6691bc7c5e37220b2898380a380f35b858382610d5b83945186611de8565b01920193019290610d13565b858a528787858c2093840193015b838110610d83575050610d07565b9091929394508a610d948254611a19565b80610da8575b505001908785949392610d75565b601f808211600114610dc057505081555b8a5f610d9a565b610dd8908484528984209201861c8201858301611dd2565b81835555610db9565b634e487b7160e01b88526041600452602488fd5b9485610e08889496989395975186611de8565b0192019201899492879492610cb6565b8a85848f8781522092830192015b828110610e34575050610ca3565b90919293508d610e448254611a19565b80610e57575b505001908a889392610e26565b601f808211600114610e6f57505081555b8d5f610e4a565b610e87908484528c842092018d1c8201858301611dd2565b81835555610e68565b60405162461bcd60e51b815260048101869052602c60248201527f596f752061726520616c7265616479206120726576696577657220666f72207460448201526b3434b99039bab13532b1ba1760a11b6064820152608490fd5b8580fd5b8480fd5b503461017b57602036600319011261017b57610f1960018060a01b03600654163314612043565b60043560075580f35b503461017b57602036600319011261017b576004356001600160a01b03818116918290036108b957610f5990600654163314612043565b60018060a01b031981816009541617600955600a541617600a5580f35b503461017b57610f8536611c51565b5050610f8f611d49565b90549060031b1c815260209060028252610fb360096040832001546008549061200a565b42116040519283918252604081830152606092835191826040850152815b838110610fee575050828201840152601f01601f19168101030190f35b60808101518782018701528694508101610fd1565b503461017b5761101236611bc6565b91906040519080519360206110508184019661102f81878a611b27565b85018681528590038201909420546001600160a01b03949085161515611f04565b6110c360405192845161106481868b611b27565b8401878152848460019687930301902001338852835261108b338760408a20541614611f49565b85846110a3858b604051809381928c51928391611b27565b81018c815203019020019116958691828952845260408820541614611fa6565b83331461121b5781604051828186516110dd81838d611b27565b81018981520301902001848652815260026040862001338652815260ff6040862054166111c157816040518281865161111781838d611b27565b8101898152030190200184865281528160408620018054908382018092116111ad578261118696979885936111589355604051809381928951928391611b27565b81018a815203019020018587528152600260408720019033875252604085209060ff19825416179055611ee4565b7f5e36b8330e422094fde705d9432461ca3ff3b9404457b25fd96baf77b605a6748380a380f35b634e487b7160e01b87526011600452602487fd5b6084906040519062461bcd60e51b82526004820152602d60248201527f596f7527766520616c726561647920676976656e2061206372656420746f207460448201526c3434b9903932bb34b2bbb2b91760991b6064820152fd5b6084906040519062461bcd60e51b82526004820152602160248201527f596f752063616e6e6f742061646420637265647320746f20796f757273656c666044820152601760f91b6064820152fd5b503461017b57602036600319011261017b5761129060018060a01b03600654163314612043565b600435600b5580f35b503461017b576112a836611c51565b50506112b2611d49565b9054600391821b1c82526020600281526112d660096040852001546008549061200a565b42116112e0578280f35b6112e8611d49565b905490831b1c8352600281526040832090600a820154600b830154108061146c575b61139b575b505080546001811161135c575b508054908115611348575f199182019161133583611d7b565b9091825491841b1b19169055555f808280f35b634e487b7160e01b83526031600452602483fd5b5f1981019081116113875761137361138191611d7b565b905490831b1c6107b5611d49565b5f61131c565b634e487b7160e01b83526011600452602483fd5b600190818301916040519286918154916113b483611a19565b928281169081156114525750600114611421575b505050916008929181838886955203019020926002810154600285015584810154858501556004810154600485015560058101546005850155600681015460068501556007810154600785015501549101555f8061130f565b885283882091925087915b838310611441575050508201818360086113c8565b80548684015291840191810161142c565b60ff191687525050508015150283019050818360086113c8565b50600c820154600d8301541061130a565b503461017b578060031936011261017b576009546040516001600160a01b039091168152602090f35b503461017b576114b536611c07565b93966040969596939193518151602091828401916114d4818385611b27565b81018c815281900383019020546001600160a01b03166116a4576115fd82828860078f8f8f8f8f9a61154360029160089c8f60405183818351611518818388611b27565b81018c81520301902080546001600160a01b0319163317905560405190519093849282908490611b27565b810188815203019020015560038b8860405180925161156381838d611b27565b8101878152030190200155600460405187818d5161158281838c611b27565b810186815203019020015589600560405187818d516115a281838c611b27565b81018681520301902001558a600660405187818d516115c281838c611b27565b81018681520301902001558460405180928b516115e081848a611b27565b82019081520301902001558d604051809481938951928391611b27565b8201908152030190200155600154600160401b811015611690578060016116279201600155611d1d565b61167c5791611668826116637f9c96cead8f7fc8142f1af61e373480446b35d81bb5dfa183fd3880c45df68ad59a999896946116769896611de8565b611ee4565b986040519788973389611d93565b0390a280f35b634e487b7160e01b8a5260048a905260248afd5b634e487b7160e01b8a52604160045260248afd5b60405162461bcd60e51b815260048101839052601760248201527629bab13532b1ba1030b63932b0b23c9032bc34b9ba399760491b6044820152606490fd5b503461017b576116f236611bc6565b9190604051908051936020906117318284019661171081878a611b27565b85018681528590038301909420546001600160a01b03949085161515611f04565b6117a460405191845161174581858b611b27565b8301878152838560019586930301902001338852845261176c338760408a20541614611f49565b8583611784868b604051809381928c51928391611b27565b81018c815203019020019116958691828952855260408820541614611fa6565b8333146118e55780604051838186516117be81838d611b27565b81018981520301902001848652825260026040862001338652825260ff6040862054161561188d5780604051838186516117f981838d611b27565b81018981520301902085875201825260408520810180545f198101919082116111ad5761186695969761183a92859255604051809381928851928391611b27565b8101898152030190200184865281526002604086200190338652526040842060ff198154169055611ee4565b7f1e8a0a2dcb862255253b893b953460b9526eb6c2bc86fd2d3163a449b3d3d7b48380a380f35b60405162461bcd60e51b815260048101839052602a60248201527f596f7520686176656e277420676976656e2061206372656420746f2074686973604482015269103932bb34b2bbb2b91760b11b6064820152608490fd5b60405162461bcd60e51b815260048101839052602660248201527f596f752063616e6e6f742072656d6f76652063726564732066726f6d20796f756044820152653939b2b6331760d11b6064820152608490fd5b503461017b57602036600319011261017b57600435815260026020526040902080546001600160a01b031661197060018301611a86565b906002830154926003810154906004810154600582015460068301546007840154600885015490600986015492600a87015494600b88015496600c89015498600d0154996040519d8e9d8e9d8e528d6101c090816020820152016119d391611b48565b9c6040015260608d015260808c015260a08b015260c08a015260e08901526101008801526101208701526101408601526101608501526101808401526101a08301520390f35b90600182811c92168015611a47575b6020831014611a3357565b634e487b7160e01b5f52602260045260245ffd5b91607f1691611a28565b90601f801991011681019081106001600160401b03821117611a7257604052565b634e487b7160e01b5f52604160045260245ffd5b9060405191825f825492611a9984611a19565b9081845260019485811690815f14611b045750600114611ac4575b5050611ac292500383611a51565b565b909391505f52602090815f20935f915b818310611aec575050611ac293508201015f80611ab4565b85548884018501529485019487945091830191611ad4565b915050611ac294506020925060ff191682840152151560051b8201015f80611ab4565b5f5b838110611b385750505f910152565b8181015183820152602001611b29565b90602091611b6181518092818552858086019101611b27565b601f01601f1916010190565b81601f82011215611bc2578035906001600160401b038211611a725760405192611ba1601f8401601f191660200185611a51565b82845260208383010111611bc257815f926020809301838601378301015290565b5f80fd5b6040600319820112611bc257600435906001600160401b038211611bc257611bf091600401611b6d565b906024356001600160a01b0381168103611bc25790565b610100600319820112611bc257600435906001600160401b038211611bc257611c3291600401611b6d565b906024359060443590606435906084359060a4359060c4359060e43590565b906020600319830112611bc2576004356001600160401b0392838211611bc25780602383011215611bc2578160040135938411611bc25760248483010111611bc2576024019190565b9080601f83011215611bc2578135906001600160401b0392838311611a72578260051b60405194602094611cd086840188611a51565b8652848087019284010193808511611bc257858401925b858410611cf8575050505050505090565b8335838111611bc2578791611d12848480948a0101611b6d565b815201930192611ce7565b600154811015611d355760015f5260205f2001905f90565b634e487b7160e01b5f52603260045260245ffd5b60035415611d355760035f9081527fc2575a0e9e593c00f959f8c92f12db2869c3395a3b0502d05e2516446f71f85b91565b600354811015611d355760035f5260205f2001905f90565b94919260e0969399989794919961010087019a60018060a01b03168752602087015260408601526060850152608084015260a083015260c08201520152565b818110611ddd575050565b5f8155600101611dd2565b91909182516001600160401b038111611a7257611e058254611a19565b601f8111611ea9575b50602080601f8311600114611e495750819293945f92611e3e575b50508160011b915f199060031b1c1916179055565b015190505f80611e29565b90601f19831695845f52825f20925f905b888210611e9157505083600195969710611e79575b505050811b019055565b01515f1960f88460031b161c191690555f8080611e6f565b80600185968294968601518155019501930190611e5a565b611ed490835f5260205f20601f840160051c81019160208510611eda575b601f0160051c0190611dd2565b5f611e0e565b9091508190611ec7565b611efc90602060405192828480945193849201611b27565b810103902090565b15611f0b57565b60405162461bcd60e51b815260206004820152601660248201527529bab13532b1ba103237b2b9b713ba1032bc34b9ba1760511b6044820152606490fd5b15611f5057565b60405162461bcd60e51b815260206004820152602860248201527f596f7520617265206e6f74206120726576696577657220666f7220746869732060448201526739bab13532b1ba1760c11b6064820152608490fd5b15611fad57565b60405162461bcd60e51b815260206004820152602f60248201527f54617267657420726576696577657220646f65736e277420657869737420666f60448201526e39103a3434b99039bab13532b1ba1760891b6064820152608490fd5b9190820180921161201757565b634e487b7160e01b5f52601160045260245ffd5b90816020910312611bc257518015158103611bc25790565b1561204a57565b60405162461bcd60e51b81526020600482015260166024820152752737ba103a34329031b7b73a3930b1ba1037bbb732b960511b6044820152606490fd5b60405190602082019063f82c50f160e01b825260248301526024825260608201908282106001600160401b03831117611a72575f92839260405251906a636f6e736f6c652e6c6f675afa5056fea264697066735822122037af120728bccffe4850ed91cd5735b5e46bd423dcd74e949c9aae033bceeef164736f6c63430008140033","opcodes":"PUSH1 0x80 CALLVALUE PUSH3 0xAF JUMPI PUSH1 0x1F PUSH3 0x21E8 CODESIZE DUP2 SWAP1 SUB SWAP2 DUP3 ADD PUSH1 0x1F NOT AND DUP4 ADD SWAP2 PUSH1 0x1 PUSH1 0x1 PUSH1 0x40 SHL SUB DUP4 GT DUP5 DUP5 LT OR PUSH3 0xB3 JUMPI DUP1 DUP5 SWAP3 PUSH1 0x60 SWAP5 PUSH1 0x40 MSTORE DUP4 CODECOPY DUP2 ADD SUB SLT PUSH3 0xAF JUMPI PUSH3 0x4D DUP2 PUSH3 0xC7 JUMP JUMPDEST SWAP1 PUSH1 0x40 PUSH3 0x5E PUSH1 0x20 DUP4 ADD PUSH3 0xC7 JUMP JUMPDEST SWAP2 ADD MLOAD SWAP2 PUSH1 0x1 DUP1 PUSH1 0xA0 SHL SUB NOT SWAP2 CALLER DUP4 PUSH1 0x6 SLOAD AND OR PUSH1 0x6 SSTORE PUSH1 0x1 DUP1 PUSH1 0xA0 SHL SUB DUP1 SWAP3 AND DUP4 PUSH1 0x5 SLOAD AND OR PUSH1 0x5 SSTORE AND SWAP2 DUP3 DUP3 PUSH1 0x9 SLOAD AND OR PUSH1 0x9 SSTORE PUSH1 0x7 SSTORE PUSH1 0xA SLOAD AND OR PUSH1 0xA SSTORE PUSH1 0x40 MLOAD PUSH2 0x210B SWAP1 DUP2 PUSH3 0xDD DUP3 CODECOPY RETURN JUMPDEST PUSH0 DUP1 REVERT JUMPDEST PUSH4 0x4E487B71 PUSH1 0xE0 SHL PUSH0 MSTORE PUSH1 0x41 PUSH1 0x4 MSTORE PUSH1 0x24 PUSH0 REVERT JUMPDEST MLOAD SWAP1 PUSH1 0x1 PUSH1 0x1 PUSH1 0xA0 SHL SUB DUP3 AND DUP3 SUB PUSH3 0xAF JUMPI JUMP INVALID PUSH1 0x80 PUSH1 0x40 MSTORE PUSH1 0x4 CALLDATASIZE LT ISZERO PUSH2 0x11 JUMPI PUSH0 DUP1 REVERT JUMPDEST PUSH0 DUP1 CALLDATALOAD PUSH1 0xE0 SHR DUP1 PUSH4 0x13CF08B EQ PUSH2 0x1939 JUMPI DUP1 PUSH4 0x18F6B962 EQ PUSH2 0x16E3 JUMPI DUP1 PUSH4 0x3371EF7D EQ PUSH2 0x14A6 JUMPI DUP1 PUSH4 0x408958D6 EQ PUSH2 0x147D JUMPI DUP1 PUSH4 0x4585E33B EQ PUSH2 0x1299 JUMPI DUP1 PUSH4 0x5787A0CC EQ PUSH2 0x1269 JUMPI DUP1 PUSH4 0x585E01E4 EQ PUSH2 0x1003 JUMPI DUP1 PUSH4 0x5E6C102E EQ PUSH2 0xF76 JUMPI DUP1 PUSH4 0x5FF2D2AA EQ PUSH2 0xF22 JUMPI DUP1 PUSH4 0x69FE0E2D EQ PUSH2 0xEF2 JUMPI DUP1 PUSH4 0x74DAA149 EQ PUSH2 0xA90 JUMPI DUP1 PUSH4 0x7823E226 EQ PUSH2 0xA72 JUMPI DUP1 PUSH4 0x8640F718 EQ PUSH2 0xA42 JUMPI DUP1 PUSH4 0xAC923334 EQ PUSH2 0x507 JUMPI DUP1 PUSH4 0xC9D27AFE EQ PUSH2 0x27D JUMPI DUP1 PUSH4 0xFC687C80 EQ PUSH2 0x21A JUMPI DUP1 PUSH4 0xFDC1A91C EQ PUSH2 0x17E JUMPI PUSH4 0xFE290423 EQ PUSH2 0xE0 JUMPI PUSH0 DUP1 REVERT JUMPDEST CALLVALUE PUSH2 0x17B JUMPI PUSH1 0x20 CALLDATASIZE PUSH1 0x3 NOT ADD SLT PUSH2 0x17B JUMPI PUSH1 0x4 CALLDATALOAD PUSH1 0x1 PUSH1 0x1 PUSH1 0x40 SHL SUB DUP2 GT PUSH2 0x177 JUMPI PUSH2 0x12A SWAP2 PUSH2 0x116 PUSH1 0x20 SWAP3 CALLDATASIZE SWAP1 PUSH1 0x4 ADD PUSH2 0x1B6D JUMP JUMPDEST SWAP1 DUP3 PUSH1 0x40 MLOAD SWAP5 DUP4 DUP7 DUP1 SWAP6 MLOAD SWAP4 DUP5 SWAP3 ADD PUSH2 0x1B27 JUMP JUMPDEST DUP3 ADD SWAP1 DUP2 MSTORE SUB ADD SWAP1 KECCAK256 PUSH1 0x1 DUP1 PUSH1 0xA0 SHL SUB DUP2 SLOAD AND PUSH2 0x173 PUSH1 0x2 DUP4 ADD SLOAD SWAP3 PUSH1 0x3 DUP2 ADD SLOAD SWAP1 PUSH1 0x4 DUP2 ADD SLOAD PUSH1 0x5 DUP3 ADD SLOAD PUSH1 0x6 DUP4 ADD SLOAD SWAP2 PUSH1 0x8 PUSH1 0x7 DUP6 ADD SLOAD SWAP5 ADD SLOAD SWAP5 PUSH1 0x40 MLOAD SWAP9 DUP10 SWAP9 DUP10 PUSH2 0x1D93 JUMP JUMPDEST SUB SWAP1 RETURN JUMPDEST POP DUP1 REVERT JUMPDEST DUP1 REVERT JUMPDEST POP CALLVALUE PUSH2 0x17B JUMPI PUSH1 0x1 PUSH2 0x1A8 PUSH1 0x20 PUSH2 0x194 CALLDATASIZE PUSH2 0x1BC6 JUMP JUMPDEST SWAP5 DUP3 PUSH1 0x40 MLOAD SWAP5 DUP4 DUP7 DUP1 SWAP6 MLOAD SWAP4 DUP5 SWAP3 ADD PUSH2 0x1B27 JUMP JUMPDEST DUP3 ADD SWAP1 DUP2 MSTORE SUB ADD SWAP1 KECCAK256 ADD PUSH1 0x1 DUP1 PUSH1 0xA0 SHL SUB DUP1 SWAP3 AND PUSH0 MSTORE PUSH1 0x20 MSTORE PUSH1 0x40 PUSH0 KECCAK256 SWAP1 DUP2 SLOAD AND PUSH2 0x173 PUSH1 0x1 DUP4 ADD SLOAD SWAP3 PUSH2 0x20C PUSH2 0x1ED PUSH1 0x4 PUSH2 0x1E6 PUSH1 0x3 DUP6 ADD PUSH2 0x1A86 JUMP JUMPDEST SWAP4 ADD PUSH2 0x1A86 JUMP JUMPDEST SWAP2 PUSH1 0x40 MLOAD SWAP6 DUP7 SWAP6 DUP7 MSTORE PUSH1 0x20 DUP7 ADD MSTORE PUSH1 0x80 PUSH1 0x40 DUP7 ADD MSTORE PUSH1 0x80 DUP6 ADD SWAP1 PUSH2 0x1B48 JUMP JUMPDEST SWAP1 DUP4 DUP3 SUB PUSH1 0x60 DUP6 ADD MSTORE PUSH2 0x1B48 JUMP JUMPDEST POP CALLVALUE PUSH2 0x17B JUMPI PUSH1 0x20 CALLDATASIZE PUSH1 0x3 NOT ADD SLT PUSH2 0x17B JUMPI PUSH1 0x4 CALLDATALOAD PUSH1 0x1 SLOAD DUP2 LT ISZERO PUSH2 0x177 JUMPI PUSH2 0x242 SWAP1 PUSH2 0x1D1D JUMP JUMPDEST SWAP2 SWAP1 SWAP2 PUSH2 0x269 JUMPI PUSH2 0x173 PUSH2 0x255 DUP4 PUSH2 0x1A86 JUMP JUMPDEST PUSH1 0x40 MLOAD SWAP2 DUP3 SWAP2 PUSH1 0x20 DUP4 MSTORE PUSH1 0x20 DUP4 ADD SWAP1 PUSH2 0x1B48 JUMP JUMPDEST PUSH4 0x4E487B71 PUSH1 0xE0 SHL DUP2 MSTORE PUSH1 0x4 DUP2 SWAP1 MSTORE PUSH1 0x24 SWAP1 REVERT JUMPDEST POP CALLVALUE PUSH2 0x17B JUMPI PUSH1 0x40 CALLDATASIZE PUSH1 0x3 NOT ADD SLT PUSH2 0x17B JUMPI PUSH1 0x24 SWAP1 DUP2 CALLDATALOAD DUP1 ISZERO ISZERO SWAP1 PUSH1 0x4 CALLDATALOAD SWAP1 DUP3 DUP2 SUB PUSH2 0x503 JUMPI PUSH1 0x4 SLOAD DUP3 LT ISZERO PUSH2 0x4C4 JUMPI DUP2 DUP5 MSTORE PUSH1 0x20 SWAP1 PUSH1 0x2 DUP3 MSTORE PUSH1 0x40 DUP6 KECCAK256 SWAP6 PUSH1 0x1 SWAP2 PUSH2 0x2CA DUP4 DUP10 ADD PUSH2 0x1A86 JUMP JUMPDEST SWAP2 PUSH1 0x40 MLOAD DUP5 DUP5 MLOAD SWAP2 DUP8 DUP2 DUP2 DUP9 ADD SWAP5 PUSH2 0x2E3 DUP2 DUP4 DUP9 PUSH2 0x1B27 JUMP JUMPDEST DUP2 ADD DUP14 DUP2 MSTORE SUB ADD SWAP1 KECCAK256 ADD CALLER PUSH0 MSTORE DUP7 MSTORE PUSH2 0x309 CALLER PUSH1 0x1 DUP1 PUSH1 0xA0 SHL SUB PUSH1 0x40 PUSH0 KECCAK256 SLOAD AND EQ PUSH2 0x1F49 JUMP JUMPDEST PUSH1 0xE DUP11 ADD SWAP4 CALLER PUSH0 MSTORE DUP5 DUP8 MSTORE PUSH1 0xFF PUSH1 0x40 PUSH0 KECCAK256 SLOAD AND PUSH2 0x486 JUMPI DUP7 DUP7 SWAP3 PUSH2 0x338 SWAP3 PUSH1 0x40 MLOAD SWAP4 DUP5 SWAP3 DUP4 SWAP3 MLOAD SWAP3 DUP4 SWAP2 PUSH2 0x1B27 JUMP JUMPDEST DUP2 ADD DUP13 DUP2 MSTORE SUB ADD SWAP1 KECCAK256 ADD CALLER PUSH0 MSTORE DUP6 MSTORE DUP4 PUSH1 0x40 PUSH0 KECCAK256 ADD SLOAD PUSH1 0x6 DUP11 ADD SLOAD DUP2 LT PUSH2 0x442 JUMPI PUSH1 0x7 DUP11 ADD SLOAD SWAP1 DUP2 DUP2 GT ISZERO PUSH2 0x43A JUMPI POP SWAP2 JUMPDEST ISZERO PUSH2 0x3EB JUMPI PUSH1 0xA DUP10 ADD DUP1 SLOAD SWAP2 DUP6 DUP4 ADD DUP1 SWAP4 GT PUSH2 0x3D9 JUMPI POP PUSH32 0xF2913DBE661EE2ACC4A046D8FBCDC792373BDA34C41C6086484B5345E5785E5F SWAP7 SWAP8 SWAP9 SWAP10 PUSH2 0x3B7 SWAP3 PUSH1 0xC SWAP3 SSTORE ADD SWAP2 DUP3 SLOAD PUSH2 0x200A JUMP JUMPDEST SWAP1 SSTORE JUMPDEST CALLER PUSH0 MSTORE DUP3 MSTORE PUSH1 0x40 PUSH0 KECCAK256 SWAP1 PUSH1 0xFF NOT DUP3 SLOAD AND OR SWAP1 SSTORE PUSH1 0x40 MLOAD SWAP4 DUP5 MSTORE CALLER SWAP4 LOG3 DUP1 RETURN JUMPDEST PUSH4 0x4E487B71 PUSH1 0xE0 SHL DUP11 MSTORE PUSH1 0x11 PUSH1 0x4 MSTORE DUP10 REVERT JUMPDEST PUSH1 0xB DUP10 ADD DUP1 SLOAD SWAP2 DUP6 DUP4 ADD DUP1 SWAP4 GT PUSH2 0x3D9 JUMPI POP PUSH32 0xF2913DBE661EE2ACC4A046D8FBCDC792373BDA34C41C6086484B5345E5785E5F SWAP7 SWAP8 SWAP9 SWAP10 PUSH2 0x433 SWAP3 PUSH1 0xD SWAP3 SSTORE ADD SWAP2 DUP3 SLOAD PUSH2 0x200A JUMP JUMPDEST SWAP1 SSTORE PUSH2 0x3BA JUMP JUMPDEST SWAP1 POP SWAP2 PUSH2 0x36A JUMP JUMPDEST PUSH1 0x40 MLOAD PUSH3 0x461BCD PUSH1 0xE5 SHL DUP2 MSTORE PUSH1 0x4 DUP2 ADD DUP8 SWAP1 MSTORE PUSH1 0x1B DUP2 DUP5 ADD MSTORE PUSH32 0x496E73756666696369656E7420637265647320746F20766F74652E0000000000 PUSH1 0x44 DUP3 ADD MSTORE PUSH1 0x64 SWAP1 REVERT JUMPDEST PUSH1 0x40 MLOAD PUSH3 0x461BCD PUSH1 0xE5 SHL DUP2 MSTORE PUSH1 0x4 DUP2 ADD DUP9 SWAP1 MSTORE PUSH1 0x17 DUP2 DUP6 ADD MSTORE PUSH23 0x2CB7BA903430BB329030B63932B0B23C903B37BA32B217 PUSH1 0x49 SHL PUSH1 0x44 DUP3 ADD MSTORE PUSH1 0x64 SWAP1 REVERT JUMPDEST PUSH1 0x40 MLOAD PUSH3 0x461BCD PUSH1 0xE5 SHL DUP2 MSTORE PUSH1 0x20 PUSH1 0x4 DUP3 ADD MSTORE PUSH1 0x18 DUP2 DUP8 ADD MSTORE PUSH24 0x283937B837B9B0B6103237B2B9903737BA1032BC34B9BA17 PUSH1 0x41 SHL PUSH1 0x44 DUP3 ADD MSTORE PUSH1 0x64 SWAP1 REVERT JUMPDEST DUP4 DUP1 REVERT JUMPDEST POP CALLVALUE PUSH2 0x17B JUMPI PUSH2 0x516 CALLDATASIZE PUSH2 0x1C07 JUMP JUMPDEST SWAP5 DUP9 PUSH1 0x20 PUSH1 0x1 DUP1 PUSH1 0xA0 SWAP9 SWAP6 SWAP9 SWAP8 SWAP7 SWAP8 SHL SUB PUSH1 0x5 SLOAD AND PUSH1 0x64 PUSH1 0x7 SLOAD PUSH1 0x40 MLOAD SWAP5 DUP6 SWAP4 DUP5 SWAP3 PUSH4 0x23B872DD PUSH1 0xE0 SHL DUP5 MSTORE CALLER PUSH1 0x4 DUP6 ADD MSTORE ADDRESS PUSH1 0x24 DUP6 ADD MSTORE PUSH1 0x44 DUP5 ADD MSTORE GAS CALL SWAP1 DUP2 ISZERO PUSH2 0x8AE JUMPI DUP11 SWAP2 PUSH2 0xA23 JUMPI JUMPDEST POP ISZERO PUSH2 0x9E8 JUMPI PUSH1 0x5 SLOAD PUSH1 0x40 MLOAD PUSH4 0x70A08231 PUSH1 0xE0 SHL DUP2 MSTORE CALLER PUSH1 0x4 DUP3 ADD MSTORE SWAP1 PUSH1 0x1 PUSH1 0x1 PUSH1 0xA0 SHL SUB AND PUSH1 0x20 DUP3 PUSH1 0x24 DUP2 DUP5 GAS STATICCALL SWAP2 DUP3 ISZERO PUSH2 0x9A8 JUMPI DUP12 SWAP3 PUSH2 0x9B3 JUMPI JUMPDEST POP SWAP1 PUSH1 0x20 PUSH1 0x24 SWAP3 PUSH1 0x40 MLOAD SWAP4 DUP5 DUP1 SWAP3 PUSH4 0x70A08231 PUSH1 0xE0 SHL DUP3 MSTORE ADDRESS PUSH1 0x4 DUP4 ADD MSTORE GAS STATICCALL SWAP2 DUP3 ISZERO PUSH2 0x9A8 JUMPI DUP12 SWAP3 PUSH2 0x96E JUMPI JUMPDEST POP SWAP1 PUSH2 0x5DC PUSH2 0x5E1 SWAP3 PUSH2 0x2088 JUMP JUMPDEST PUSH2 0x2088 JUMP JUMPDEST PUSH1 0x40 MLOAD DUP9 MLOAD SWAP1 PUSH1 0x20 DUP11 ADD SWAP2 PUSH2 0x5F7 DUP2 DUP4 DUP6 PUSH2 0x1B27 JUMP JUMPDEST DUP2 ADD DUP12 DUP2 MSTORE DUP2 SWAP1 SUB PUSH1 0x20 ADD SWAP1 KECCAK256 SLOAD PUSH1 0x1 PUSH1 0x1 PUSH1 0xA0 SHL SUB AND ISZERO PUSH2 0x931 JUMPI PUSH1 0x5 PUSH2 0x693 PUSH1 0x20 PUSH1 0x1 PUSH1 0x40 DUP15 DUP3 DUP16 DUP6 DUP10 PUSH2 0x66D SWAP3 DUP5 DUP8 MLOAD DUP5 DUP2 DUP5 MLOAD PUSH2 0x639 DUP2 DUP4 DUP10 PUSH2 0x1B27 JUMP JUMPDEST DUP2 ADD DUP11 DUP2 MSTORE SUB ADD SWAP1 KECCAK256 ADD CALLER DUP8 MSTORE DUP4 MSTORE PUSH2 0x65D CALLER DUP7 DUP1 PUSH1 0xA0 SHL SUB DUP10 DUP10 KECCAK256 SLOAD AND EQ PUSH2 0x1F49 JUMP JUMPDEST DUP7 MLOAD SWAP4 DUP5 SWAP3 DUP4 SWAP3 MLOAD SWAP3 DUP4 SWAP2 PUSH2 0x1B27 JUMP JUMPDEST DUP2 ADD DUP6 DUP2 MSTORE SUB ADD SWAP1 KECCAK256 ADD CALLER DUP3 MSTORE DUP5 MSTORE KECCAK256 ADD SLOAD SWAP4 DUP14 DUP14 PUSH1 0x40 MLOAD SWAP5 DUP6 SWAP4 DUP5 SWAP3 MLOAD SWAP3 DUP4 SWAP2 PUSH2 0x1B27 JUMP JUMPDEST DUP3 ADD SWAP1 DUP2 MSTORE SUB ADD SWAP1 KECCAK256 ADD SLOAD GT PUSH2 0x8EC JUMPI PUSH1 0x4 SLOAD DUP10 MSTORE PUSH1 0x2 PUSH1 0x20 MSTORE PUSH1 0x40 DUP10 KECCAK256 DUP1 SLOAD PUSH1 0x1 PUSH1 0x1 PUSH1 0xA0 SHL SUB NOT AND CALLER OR DUP2 SSTORE PUSH2 0x6CE DUP10 PUSH1 0x1 DUP4 ADD PUSH2 0x1DE8 JUMP JUMPDEST DUP8 PUSH1 0x2 DUP3 ADD SSTORE DUP2 PUSH1 0x3 DUP3 ADD SSTORE DUP3 PUSH1 0x4 DUP3 ADD SSTORE DUP4 PUSH1 0x5 DUP3 ADD SSTORE DUP5 PUSH1 0x6 DUP3 ADD SSTORE DUP6 PUSH1 0x7 DUP3 ADD SSTORE DUP7 PUSH1 0x8 DUP3 ADD SSTORE PUSH1 0x9 TIMESTAMP SWAP2 ADD SSTORE PUSH1 0x1 DUP1 PUSH1 0xA0 SHL SUB PUSH1 0x5 SLOAD AND PUSH1 0x20 PUSH1 0x1 DUP1 PUSH1 0xA0 SHL SUB PUSH1 0xA SLOAD AND PUSH1 0x44 PUSH1 0x7 SLOAD SWAP2 DUP14 PUSH1 0x40 MLOAD SWAP6 DUP7 SWAP5 DUP6 SWAP4 PUSH4 0x95EA7B3 PUSH1 0xE0 SHL DUP6 MSTORE PUSH1 0x4 DUP6 ADD MSTORE PUSH1 0x24 DUP5 ADD MSTORE GAS CALL DUP1 ISZERO PUSH2 0x8AE JUMPI PUSH2 0x8BD JUMPI JUMPDEST POP PUSH1 0x1 DUP1 PUSH1 0xA0 SHL SUB PUSH1 0x9 SLOAD AND DUP10 PUSH1 0xB SLOAD PUSH1 0x7 SLOAD SWAP1 DUP4 EXTCODESIZE ISZERO PUSH2 0x8B9 JUMPI PUSH1 0x44 SWAP1 DUP4 PUSH1 0x40 MLOAD SWAP6 DUP7 SWAP5 DUP6 SWAP4 PUSH4 0x85F4525 PUSH1 0xE4 SHL DUP6 MSTORE PUSH1 0x4 DUP6 ADD MSTORE PUSH1 0x24 DUP5 ADD MSTORE GAS CALL DUP1 ISZERO PUSH2 0x8AE JUMPI PUSH2 0x87F JUMPI JUMPDEST POP PUSH1 0x4 SLOAD PUSH1 0x3 SLOAD PUSH1 0x1 PUSH1 0x40 SHL DUP2 LT ISZERO PUSH2 0x86B JUMPI SWAP1 PUSH2 0x7B5 DUP3 PUSH1 0x1 PUSH2 0x7CD SWAP5 ADD PUSH1 0x3 SSTORE PUSH2 0x1D7B JUMP JUMPDEST SWAP1 SWAP2 SWAP1 DUP3 SLOAD SWAP1 PUSH1 0x3 SHL SWAP2 DUP3 SHL SWAP2 PUSH0 NOT SWAP1 SHL NOT AND OR SWAP1 SSTORE JUMP JUMPDEST PUSH1 0x4 SLOAD PUSH0 NOT DUP2 EQ PUSH2 0x857 JUMPI SWAP2 PUSH2 0x825 SWAP8 SWAP6 SWAP4 SWAP2 PUSH1 0x1 PUSH32 0x3F33FAE0A54FF18815B236D9451459BB96255FFC3C13B43794E8507AD23DB453 SWAP11 SWAP9 SWAP7 SWAP5 ADD PUSH1 0x4 SSTORE PUSH1 0x40 MLOAD SWAP9 DUP10 SWAP9 CALLER DUP11 MSTORE PUSH2 0x140 DUP1 PUSH1 0x20 DUP13 ADD MSTORE DUP11 ADD SWAP1 PUSH2 0x1B48 JUMP JUMPDEST SWAP7 PUSH1 0x40 DUP10 ADD MSTORE PUSH1 0x60 DUP9 ADD MSTORE PUSH1 0x80 DUP8 ADD MSTORE PUSH1 0xA0 DUP7 ADD MSTORE PUSH1 0xC0 DUP6 ADD MSTORE PUSH1 0xE0 DUP5 ADD MSTORE PUSH2 0x100 DUP4 ADD MSTORE TIMESTAMP PUSH2 0x120 DUP4 ADD MSTORE SUB SWAP1 LOG1 DUP1 RETURN JUMPDEST PUSH4 0x4E487B71 PUSH1 0xE0 SHL DUP11 MSTORE PUSH1 0x11 PUSH1 0x4 MSTORE PUSH1 0x24 DUP11 REVERT JUMPDEST PUSH4 0x4E487B71 PUSH1 0xE0 SHL DUP12 MSTORE PUSH1 0x41 PUSH1 0x4 MSTORE PUSH1 0x24 DUP12 REVERT JUMPDEST PUSH1 0x1 PUSH1 0x1 PUSH1 0x40 SHL SUB DUP2 SWAP11 SWAP3 SWAP11 GT PUSH2 0x89A JUMPI PUSH1 0x40 MSTORE SWAP8 PUSH0 PUSH2 0x78E JUMP JUMPDEST PUSH4 0x4E487B71 PUSH1 0xE0 SHL DUP3 MSTORE PUSH1 0x41 PUSH1 0x4 MSTORE PUSH1 0x24 DUP3 REVERT JUMPDEST PUSH1 0x40 MLOAD RETURNDATASIZE DUP13 DUP3 RETURNDATACOPY RETURNDATASIZE SWAP1 REVERT JUMPDEST DUP3 DUP1 REVERT JUMPDEST PUSH2 0x8DE SWAP1 PUSH1 0x20 RETURNDATASIZE PUSH1 0x20 GT PUSH2 0x8E5 JUMPI JUMPDEST PUSH2 0x8D6 DUP2 DUP4 PUSH2 0x1A51 JUMP JUMPDEST DUP2 ADD SWAP1 PUSH2 0x202B JUMP JUMPDEST POP PUSH0 PUSH2 0x746 JUMP JUMPDEST POP RETURNDATASIZE PUSH2 0x8CC JUMP JUMPDEST PUSH1 0x40 MLOAD PUSH3 0x461BCD PUSH1 0xE5 SHL DUP2 MSTORE PUSH1 0x20 PUSH1 0x4 DUP3 ADD MSTORE PUSH1 0x1E PUSH1 0x24 DUP3 ADD MSTORE PUSH32 0x496E73756666696369656E7420637265647320746F2070726F706F73652E0000 PUSH1 0x44 DUP3 ADD MSTORE PUSH1 0x64 SWAP1 REVERT JUMPDEST PUSH1 0x40 MLOAD PUSH3 0x461BCD PUSH1 0xE5 SHL DUP2 MSTORE PUSH1 0x20 PUSH1 0x4 DUP3 ADD MSTORE PUSH1 0x15 PUSH1 0x24 DUP3 ADD MSTORE PUSH21 0x14DD589A9958DD08191BD95CDB89DD08195E1A5CDD PUSH1 0x5A SHL PUSH1 0x44 DUP3 ADD MSTORE PUSH1 0x64 SWAP1 REVERT JUMPDEST SWAP2 POP PUSH1 0x20 DUP3 RETURNDATASIZE PUSH1 0x20 GT PUSH2 0x9A0 JUMPI JUMPDEST DUP2 PUSH2 0x989 PUSH1 0x20 SWAP4 DUP4 PUSH2 0x1A51 JUMP JUMPDEST DUP2 ADD SUB SLT PUSH2 0x99C JUMPI SWAP1 MLOAD SWAP1 PUSH2 0x5DC PUSH2 0x5CE JUMP JUMPDEST DUP11 DUP1 REVERT JUMPDEST RETURNDATASIZE SWAP2 POP PUSH2 0x97C JUMP JUMPDEST PUSH1 0x40 MLOAD RETURNDATASIZE DUP14 DUP3 RETURNDATACOPY RETURNDATASIZE SWAP1 REVERT JUMPDEST SWAP2 POP PUSH1 0x20 DUP3 RETURNDATASIZE PUSH1 0x20 GT PUSH2 0x9E0 JUMPI JUMPDEST DUP2 PUSH2 0x9CE PUSH1 0x20 SWAP4 DUP4 PUSH2 0x1A51 JUMP JUMPDEST DUP2 ADD SUB SLT PUSH2 0x99C JUMPI SWAP1 MLOAD SWAP1 PUSH1 0x20 PUSH2 0x5A0 JUMP JUMPDEST RETURNDATASIZE SWAP2 POP PUSH2 0x9C1 JUMP JUMPDEST PUSH1 0x40 MLOAD PUSH3 0x461BCD PUSH1 0xE5 SHL DUP2 MSTORE PUSH1 0x20 PUSH1 0x4 DUP3 ADD MSTORE PUSH1 0x13 PUSH1 0x24 DUP3 ADD MSTORE PUSH19 0x119959481D1C985B9CD9995C8819985A5B1959 PUSH1 0x6A SHL PUSH1 0x44 DUP3 ADD MSTORE PUSH1 0x64 SWAP1 REVERT JUMPDEST PUSH2 0xA3C SWAP2 POP PUSH1 0x20 RETURNDATASIZE PUSH1 0x20 GT PUSH2 0x8E5 JUMPI PUSH2 0x8D6 DUP2 DUP4 PUSH2 0x1A51 JUMP JUMPDEST PUSH0 PUSH2 0x563 JUMP JUMPDEST POP CALLVALUE PUSH2 0x17B JUMPI PUSH1 0x20 CALLDATASIZE PUSH1 0x3 NOT ADD SLT PUSH2 0x17B JUMPI PUSH2 0xA69 PUSH1 0x1 DUP1 PUSH1 0xA0 SHL SUB PUSH1 0x6 SLOAD AND CALLER EQ PUSH2 0x2043 JUMP JUMPDEST PUSH1 0x4 CALLDATALOAD PUSH1 0x8 SSTORE DUP1 RETURN JUMPDEST POP CALLVALUE PUSH2 0x17B JUMPI DUP1 PUSH1 0x3 NOT CALLDATASIZE ADD SLT PUSH2 0x17B JUMPI PUSH1 0x20 PUSH1 0x7 SLOAD PUSH1 0x40 MLOAD SWAP1 DUP2 MSTORE RETURN JUMPDEST POP CALLVALUE PUSH2 0x17B JUMPI PUSH1 0xA0 CALLDATASIZE PUSH1 0x3 NOT ADD SLT PUSH2 0x17B JUMPI PUSH1 0x1 PUSH1 0x1 PUSH1 0x40 SHL SUB PUSH1 0x4 CALLDATALOAD DUP2 DUP2 GT PUSH2 0x8B9 JUMPI PUSH2 0xAC2 SWAP1 CALLDATASIZE SWAP1 PUSH1 0x4 ADD PUSH2 0x1B6D JUMP JUMPDEST SWAP1 PUSH1 0x24 CALLDATALOAD DUP2 DUP2 GT PUSH2 0x503 JUMPI PUSH2 0xADB SWAP1 CALLDATASIZE SWAP1 PUSH1 0x4 ADD PUSH2 0x1B6D JUMP JUMPDEST SWAP1 PUSH1 0x44 CALLDATALOAD DUP2 DUP2 GT PUSH2 0xEEE JUMPI PUSH2 0xAF4 SWAP1 CALLDATASIZE SWAP1 PUSH1 0x4 ADD PUSH2 0x1B6D JUMP JUMPDEST PUSH1 0x64 CALLDATALOAD DUP3 DUP2 GT PUSH2 0xEEA JUMPI PUSH2 0xB0C SWAP1 CALLDATASIZE SWAP1 PUSH1 0x4 ADD PUSH2 0x1C9A JUMP JUMPDEST SWAP2 PUSH1 0x84 CALLDATALOAD SWAP1 DUP2 GT PUSH2 0xEEA JUMPI PUSH2 0xB25 SWAP1 CALLDATASIZE SWAP1 PUSH1 0x4 ADD PUSH2 0x1C9A JUMP JUMPDEST SWAP3 PUSH1 0x40 MLOAD SWAP4 DUP6 MLOAD SWAP3 PUSH1 0x20 SWAP3 DUP4 DUP9 ADD SWAP5 PUSH2 0xB3F DUP2 DUP10 DUP9 PUSH2 0x1B27 JUMP JUMPDEST DUP8 ADD DUP10 DUP2 MSTORE DUP8 DUP6 PUSH1 0x1 SWAP10 DUP11 SWAP4 SUB ADD SWAP1 KECCAK256 ADD CALLER DUP11 MSTORE DUP5 MSTORE PUSH1 0x1 DUP1 PUSH1 0xA0 SHL SUB DUP1 PUSH1 0x40 DUP12 KECCAK256 SLOAD AND PUSH2 0xE90 JUMPI PUSH2 0xC58 SWAP3 SWAP2 DUP9 PUSH2 0xC0F DUP8 DUP10 DUP15 DUP15 PUSH2 0xB9F PUSH2 0xC2A SWAP9 PUSH1 0x40 MLOAD DUP7 DUP2 DUP6 MLOAD PUSH2 0xB8D DUP2 DUP4 DUP12 PUSH2 0x1B27 JUMP JUMPDEST DUP2 ADD DUP8 DUP2 MSTORE SUB ADD SWAP1 KECCAK256 SLOAD AND ISZERO ISZERO PUSH2 0x1F04 JUMP JUMPDEST DUP6 PUSH1 0x40 MLOAD DUP6 DUP2 DUP5 MLOAD PUSH2 0xBB2 DUP2 DUP4 DUP11 PUSH2 0x1B27 JUMP JUMPDEST DUP2 ADD DUP7 DUP2 MSTORE SUB ADD SWAP1 KECCAK256 ADD CALLER DUP4 MSTORE DUP5 MSTORE PUSH1 0x40 DUP3 KECCAK256 CALLER PUSH1 0x1 DUP1 PUSH1 0xA0 SHL SUB NOT DUP3 SLOAD AND OR SWAP1 SSTORE DUP6 PUSH1 0x40 MLOAD DUP6 DUP2 DUP5 MLOAD PUSH2 0xBE7 DUP2 DUP4 DUP11 PUSH2 0x1B27 JUMP JUMPDEST DUP2 ADD DUP7 DUP2 MSTORE SUB ADD SWAP1 KECCAK256 ADD CALLER DUP4 MSTORE DUP5 MSTORE DUP2 DUP7 PUSH1 0x40 DUP3 KECCAK256 ADD SSTORE PUSH1 0x40 MLOAD SWAP5 DUP6 SWAP4 DUP5 SWAP3 MLOAD SWAP3 DUP4 SWAP2 PUSH2 0x1B27 JUMP JUMPDEST DUP3 ADD SWAP1 DUP2 MSTORE SUB ADD SWAP1 KECCAK256 ADD CALLER DUP13 MSTORE DUP7 MSTORE PUSH1 0x3 PUSH1 0x40 DUP13 KECCAK256 ADD PUSH2 0x1DE8 JUMP JUMPDEST DUP7 PUSH1 0x40 MLOAD DUP6 DUP2 DUP12 MLOAD PUSH2 0xC3D DUP2 DUP4 DUP13 PUSH2 0x1B27 JUMP JUMPDEST DUP2 ADD DUP14 DUP2 MSTORE SUB ADD SWAP1 KECCAK256 ADD CALLER DUP11 MSTORE DUP5 MSTORE PUSH1 0x4 PUSH1 0x40 DUP11 KECCAK256 ADD PUSH2 0x1DE8 JUMP JUMPDEST DUP5 PUSH1 0x40 MLOAD DUP4 DUP2 DUP10 MLOAD PUSH2 0xC6B DUP2 DUP4 DUP11 PUSH2 0x1B27 JUMP JUMPDEST DUP2 ADD DUP12 DUP2 MSTORE SUB ADD SWAP1 KECCAK256 CALLER DUP10 MSTORE ADD DUP3 MSTORE PUSH1 0x40 DUP8 KECCAK256 DUP5 MLOAD PUSH1 0x1 PUSH1 0x40 SHL SWAP6 PUSH1 0x5 SWAP6 SWAP3 DUP7 ADD SWAP1 DUP8 DUP4 GT PUSH2 0x86B JUMPI DUP6 SWAP1 DUP3 SLOAD DUP5 DUP5 SSTORE DUP1 DUP6 LT PUSH2 0xE18 JUMPI JUMPDEST POP SWAP2 DUP2 DUP11 SWAP6 SWAP4 SWAP5 SWAP3 SWAP5 ADD SWAP1 DUP13 MSTORE DUP4 DUP13 KECCAK256 DUP13 SWAP2 JUMPDEST DUP4 DUP4 LT PUSH2 0xDF5 JUMPI POP POP POP POP SWAP1 PUSH2 0xCD7 SWAP2 PUSH1 0x40 MLOAD DUP1 SWAP4 DUP2 SWAP3 DUP13 MLOAD SWAP3 DUP4 SWAP2 PUSH2 0x1B27 JUMP JUMPDEST DUP2 ADD DUP12 DUP2 MSTORE SUB ADD SWAP1 KECCAK256 ADD CALLER DUP9 MSTORE DUP3 MSTORE PUSH1 0x6 PUSH1 0x40 DUP9 KECCAK256 ADD SWAP3 DUP2 MLOAD SWAP5 DUP6 GT PUSH2 0xDE1 JUMPI DUP4 SLOAD DUP6 DUP6 SSTORE DUP4 SWAP3 SWAP2 DUP2 DUP8 LT PUSH2 0xD67 JUMPI JUMPDEST POP POP ADD SWAP2 DUP7 MSTORE DUP1 DUP7 KECCAK256 DUP7 SWAP3 JUMPDEST DUP5 DUP5 LT PUSH2 0xD4C JUMPI DUP8 CALLER PUSH2 0xD25 DUP10 PUSH2 0x1EE4 JUMP JUMPDEST PUSH32 0xBDFA00028AA6C888A03528A2075EA227B56F2F5182DCF6691BC7C5E37220B289 DUP4 DUP1 LOG3 DUP1 RETURN JUMPDEST DUP6 DUP4 DUP3 PUSH2 0xD5B DUP4 SWAP5 MLOAD DUP7 PUSH2 0x1DE8 JUMP JUMPDEST ADD SWAP3 ADD SWAP4 ADD SWAP3 SWAP1 PUSH2 0xD13 JUMP JUMPDEST DUP6 DUP11 MSTORE DUP8 DUP8 DUP6 DUP13 KECCAK256 SWAP4 DUP5 ADD SWAP4 ADD JUMPDEST DUP4 DUP2 LT PUSH2 0xD83 JUMPI POP POP PUSH2 0xD07 JUMP JUMPDEST SWAP1 SWAP2 SWAP3 SWAP4 SWAP5 POP DUP11 PUSH2 0xD94 DUP3 SLOAD PUSH2 0x1A19 JUMP JUMPDEST DUP1 PUSH2 0xDA8 JUMPI JUMPDEST POP POP ADD SWAP1 DUP8 DUP6 SWAP5 SWAP4 SWAP3 PUSH2 0xD75 JUMP JUMPDEST PUSH1 0x1F DUP1 DUP3 GT PUSH1 0x1 EQ PUSH2 0xDC0 JUMPI POP POP DUP2 SSTORE JUMPDEST DUP11 PUSH0 PUSH2 0xD9A JUMP JUMPDEST PUSH2 0xDD8 SWAP1 DUP5 DUP5 MSTORE DUP10 DUP5 KECCAK256 SWAP3 ADD DUP7 SHR DUP3 ADD DUP6 DUP4 ADD PUSH2 0x1DD2 JUMP JUMPDEST DUP2 DUP4 SSTORE SSTORE PUSH2 0xDB9 JUMP JUMPDEST PUSH4 0x4E487B71 PUSH1 0xE0 SHL DUP9 MSTORE PUSH1 0x41 PUSH1 0x4 MSTORE PUSH1 0x24 DUP9 REVERT JUMPDEST SWAP5 DUP6 PUSH2 0xE08 DUP9 SWAP5 SWAP7 SWAP9 SWAP4 SWAP6 SWAP8 MLOAD DUP7 PUSH2 0x1DE8 JUMP JUMPDEST ADD SWAP3 ADD SWAP3 ADD DUP10 SWAP5 SWAP3 DUP8 SWAP5 SWAP3 PUSH2 0xCB6 JUMP JUMPDEST DUP11 DUP6 DUP5 DUP16 DUP8 DUP2 MSTORE KECCAK256 SWAP3 DUP4 ADD SWAP3 ADD JUMPDEST DUP3 DUP2 LT PUSH2 0xE34 JUMPI POP POP PUSH2 0xCA3 JUMP JUMPDEST SWAP1 SWAP2 SWAP3 SWAP4 POP DUP14 PUSH2 0xE44 DUP3 SLOAD PUSH2 0x1A19 JUMP JUMPDEST DUP1 PUSH2 0xE57 JUMPI JUMPDEST POP POP ADD SWAP1 DUP11 DUP9 SWAP4 SWAP3 PUSH2 0xE26 JUMP JUMPDEST PUSH1 0x1F DUP1 DUP3 GT PUSH1 0x1 EQ PUSH2 0xE6F JUMPI POP POP DUP2 SSTORE JUMPDEST DUP14 PUSH0 PUSH2 0xE4A JUMP JUMPDEST PUSH2 0xE87 SWAP1 DUP5 DUP5 MSTORE DUP13 DUP5 KECCAK256 SWAP3 ADD DUP14 SHR DUP3 ADD DUP6 DUP4 ADD PUSH2 0x1DD2 JUMP JUMPDEST DUP2 DUP4 SSTORE SSTORE PUSH2 0xE68 JUMP JUMPDEST PUSH1 0x40 MLOAD PUSH3 0x461BCD PUSH1 0xE5 SHL DUP2 MSTORE PUSH1 0x4 DUP2 ADD DUP7 SWAP1 MSTORE PUSH1 0x2C PUSH1 0x24 DUP3 ADD MSTORE PUSH32 0x596F752061726520616C7265616479206120726576696577657220666F722074 PUSH1 0x44 DUP3 ADD MSTORE PUSH12 0x3434B99039BAB13532B1BA17 PUSH1 0xA1 SHL PUSH1 0x64 DUP3 ADD MSTORE PUSH1 0x84 SWAP1 REVERT JUMPDEST DUP6 DUP1 REVERT JUMPDEST DUP5 DUP1 REVERT JUMPDEST POP CALLVALUE PUSH2 0x17B JUMPI PUSH1 0x20 CALLDATASIZE PUSH1 0x3 NOT ADD SLT PUSH2 0x17B JUMPI PUSH2 0xF19 PUSH1 0x1 DUP1 PUSH1 0xA0 SHL SUB PUSH1 0x6 SLOAD AND CALLER EQ PUSH2 0x2043 JUMP JUMPDEST PUSH1 0x4 CALLDATALOAD PUSH1 0x7 SSTORE DUP1 RETURN JUMPDEST POP CALLVALUE PUSH2 0x17B JUMPI PUSH1 0x20 CALLDATASIZE PUSH1 0x3 NOT ADD SLT PUSH2 0x17B JUMPI PUSH1 0x4 CALLDATALOAD PUSH1 0x1 PUSH1 0x1 PUSH1 0xA0 SHL SUB DUP2 DUP2 AND SWAP2 DUP3 SWAP1 SUB PUSH2 0x8B9 JUMPI PUSH2 0xF59 SWAP1 PUSH1 0x6 SLOAD AND CALLER EQ PUSH2 0x2043 JUMP JUMPDEST PUSH1 0x1 DUP1 PUSH1 0xA0 SHL SUB NOT DUP2 DUP2 PUSH1 0x9 SLOAD AND OR PUSH1 0x9 SSTORE PUSH1 0xA SLOAD AND OR PUSH1 0xA SSTORE DUP1 RETURN JUMPDEST POP CALLVALUE PUSH2 0x17B JUMPI PUSH2 0xF85 CALLDATASIZE PUSH2 0x1C51 JUMP JUMPDEST POP POP PUSH2 0xF8F PUSH2 0x1D49 JUMP JUMPDEST SWAP1 SLOAD SWAP1 PUSH1 0x3 SHL SHR DUP2 MSTORE PUSH1 0x20 SWAP1 PUSH1 0x2 DUP3 MSTORE PUSH2 0xFB3 PUSH1 0x9 PUSH1 0x40 DUP4 KECCAK256 ADD SLOAD PUSH1 0x8 SLOAD SWAP1 PUSH2 0x200A JUMP JUMPDEST TIMESTAMP GT PUSH1 0x40 MLOAD SWAP3 DUP4 SWAP2 DUP3 MSTORE PUSH1 0x40 DUP2 DUP4 ADD MSTORE PUSH1 0x60 SWAP3 DUP4 MLOAD SWAP2 DUP3 PUSH1 0x40 DUP6 ADD MSTORE DUP2 JUMPDEST DUP4 DUP2 LT PUSH2 0xFEE JUMPI POP POP DUP3 DUP3 ADD DUP5 ADD MSTORE PUSH1 0x1F ADD PUSH1 0x1F NOT AND DUP2 ADD SUB ADD SWAP1 RETURN JUMPDEST PUSH1 0x80 DUP2 ADD MLOAD DUP8 DUP3 ADD DUP8 ADD MSTORE DUP7 SWAP5 POP DUP2 ADD PUSH2 0xFD1 JUMP JUMPDEST POP CALLVALUE PUSH2 0x17B JUMPI PUSH2 0x1012 CALLDATASIZE PUSH2 0x1BC6 JUMP JUMPDEST SWAP2 SWAP1 PUSH1 0x40 MLOAD SWAP1 DUP1 MLOAD SWAP4 PUSH1 0x20 PUSH2 0x1050 DUP2 DUP5 ADD SWAP7 PUSH2 0x102F DUP2 DUP8 DUP11 PUSH2 0x1B27 JUMP JUMPDEST DUP6 ADD DUP7 DUP2 MSTORE DUP6 SWAP1 SUB DUP3 ADD SWAP1 SWAP5 KECCAK256 SLOAD PUSH1 0x1 PUSH1 0x1 PUSH1 0xA0 SHL SUB SWAP5 SWAP1 DUP6 AND ISZERO ISZERO PUSH2 0x1F04 JUMP JUMPDEST PUSH2 0x10C3 PUSH1 0x40 MLOAD SWAP3 DUP5 MLOAD PUSH2 0x1064 DUP2 DUP7 DUP12 PUSH2 0x1B27 JUMP JUMPDEST DUP5 ADD DUP8 DUP2 MSTORE DUP5 DUP5 PUSH1 0x1 SWAP7 DUP8 SWAP4 SUB ADD SWAP1 KECCAK256 ADD CALLER DUP9 MSTORE DUP4 MSTORE PUSH2 0x108B CALLER DUP8 PUSH1 0x40 DUP11 KECCAK256 SLOAD AND EQ PUSH2 0x1F49 JUMP JUMPDEST DUP6 DUP5 PUSH2 0x10A3 DUP6 DUP12 PUSH1 0x40 MLOAD DUP1 SWAP4 DUP2 SWAP3 DUP13 MLOAD SWAP3 DUP4 SWAP2 PUSH2 0x1B27 JUMP JUMPDEST DUP2 ADD DUP13 DUP2 MSTORE SUB ADD SWAP1 KECCAK256 ADD SWAP2 AND SWAP6 DUP7 SWAP2 DUP3 DUP10 MSTORE DUP5 MSTORE PUSH1 0x40 DUP9 KECCAK256 SLOAD AND EQ PUSH2 0x1FA6 JUMP JUMPDEST DUP4 CALLER EQ PUSH2 0x121B JUMPI DUP2 PUSH1 0x40 MLOAD DUP3 DUP2 DUP7 MLOAD PUSH2 0x10DD DUP2 DUP4 DUP14 PUSH2 0x1B27 JUMP JUMPDEST DUP2 ADD DUP10 DUP2 MSTORE SUB ADD SWAP1 KECCAK256 ADD DUP5 DUP7 MSTORE DUP2 MSTORE PUSH1 0x2 PUSH1 0x40 DUP7 KECCAK256 ADD CALLER DUP7 MSTORE DUP2 MSTORE PUSH1 0xFF PUSH1 0x40 DUP7 KECCAK256 SLOAD AND PUSH2 0x11C1 JUMPI DUP2 PUSH1 0x40 MLOAD DUP3 DUP2 DUP7 MLOAD PUSH2 0x1117 DUP2 DUP4 DUP14 PUSH2 0x1B27 JUMP JUMPDEST DUP2 ADD DUP10 DUP2 MSTORE SUB ADD SWAP1 KECCAK256 ADD DUP5 DUP7 MSTORE DUP2 MSTORE DUP2 PUSH1 0x40 DUP7 KECCAK256 ADD DUP1 SLOAD SWAP1 DUP4 DUP3 ADD DUP1 SWAP3 GT PUSH2 0x11AD JUMPI DUP3 PUSH2 0x1186 SWAP7 SWAP8 SWAP9 DUP6 SWAP4 PUSH2 0x1158 SWAP4 SSTORE PUSH1 0x40 MLOAD DUP1 SWAP4 DUP2 SWAP3 DUP10 MLOAD SWAP3 DUP4 SWAP2 PUSH2 0x1B27 JUMP JUMPDEST DUP2 ADD DUP11 DUP2 MSTORE SUB ADD SWAP1 KECCAK256 ADD DUP6 DUP8 MSTORE DUP2 MSTORE PUSH1 0x2 PUSH1 0x40 DUP8 KECCAK256 ADD SWAP1 CALLER DUP8 MSTORE MSTORE PUSH1 0x40 DUP6 KECCAK256 SWAP1 PUSH1 0xFF NOT DUP3 SLOAD AND OR SWAP1 SSTORE PUSH2 0x1EE4 JUMP JUMPDEST PUSH32 0x5E36B8330E422094FDE705D9432461CA3FF3B9404457B25FD96BAF77B605A674 DUP4 DUP1 LOG3 DUP1 RETURN JUMPDEST PUSH4 0x4E487B71 PUSH1 0xE0 SHL DUP8 MSTORE PUSH1 0x11 PUSH1 0x4 MSTORE PUSH1 0x24 DUP8 REVERT JUMPDEST PUSH1 0x84 SWAP1 PUSH1 0x40 MLOAD SWAP1 PUSH3 0x461BCD PUSH1 0xE5 SHL DUP3 MSTORE PUSH1 0x4 DUP3 ADD MSTORE PUSH1 0x2D PUSH1 0x24 DUP3 ADD MSTORE PUSH32 0x596F7527766520616C726561647920676976656E2061206372656420746F2074 PUSH1 0x44 DUP3 ADD MSTORE PUSH13 0x3434B9903932BB34B2BBB2B917 PUSH1 0x99 SHL PUSH1 0x64 DUP3 ADD MSTORE REVERT JUMPDEST PUSH1 0x84 SWAP1 PUSH1 0x40 MLOAD SWAP1 PUSH3 0x461BCD PUSH1 0xE5 SHL DUP3 MSTORE PUSH1 0x4 DUP3 ADD MSTORE PUSH1 0x21 PUSH1 0x24 DUP3 ADD MSTORE PUSH32 0x596F752063616E6E6F742061646420637265647320746F20796F757273656C66 PUSH1 0x44 DUP3 ADD MSTORE PUSH1 0x17 PUSH1 0xF9 SHL PUSH1 0x64 DUP3 ADD MSTORE REVERT JUMPDEST POP CALLVALUE PUSH2 0x17B JUMPI PUSH1 0x20 CALLDATASIZE PUSH1 0x3 NOT ADD SLT PUSH2 0x17B JUMPI PUSH2 0x1290 PUSH1 0x1 DUP1 PUSH1 0xA0 SHL SUB PUSH1 0x6 SLOAD AND CALLER EQ PUSH2 0x2043 JUMP JUMPDEST PUSH1 0x4 CALLDATALOAD PUSH1 0xB SSTORE DUP1 RETURN JUMPDEST POP CALLVALUE PUSH2 0x17B JUMPI PUSH2 0x12A8 CALLDATASIZE PUSH2 0x1C51 JUMP JUMPDEST POP POP PUSH2 0x12B2 PUSH2 0x1D49 JUMP JUMPDEST SWAP1 SLOAD PUSH1 0x3 SWAP2 DUP3 SHL SHR DUP3 MSTORE PUSH1 0x20 PUSH1 0x2 DUP2 MSTORE PUSH2 0x12D6 PUSH1 0x9 PUSH1 0x40 DUP6 KECCAK256 ADD SLOAD PUSH1 0x8 SLOAD SWAP1 PUSH2 0x200A JUMP JUMPDEST TIMESTAMP GT PUSH2 0x12E0 JUMPI DUP3 DUP1 RETURN JUMPDEST PUSH2 0x12E8 PUSH2 0x1D49 JUMP JUMPDEST SWAP1 SLOAD SWAP1 DUP4 SHL SHR DUP4 MSTORE PUSH1 0x2 DUP2 MSTORE PUSH1 0x40 DUP4 KECCAK256 SWAP1 PUSH1 0xA DUP3 ADD SLOAD PUSH1 0xB DUP4 ADD SLOAD LT DUP1 PUSH2 0x146C JUMPI JUMPDEST PUSH2 0x139B JUMPI JUMPDEST POP POP DUP1 SLOAD PUSH1 0x1 DUP2 GT PUSH2 0x135C JUMPI JUMPDEST POP DUP1 SLOAD SWAP1 DUP2 ISZERO PUSH2 0x1348 JUMPI PUSH0 NOT SWAP2 DUP3 ADD SWAP2 PUSH2 0x1335 DUP4 PUSH2 0x1D7B JUMP JUMPDEST SWAP1 SWAP2 DUP3 SLOAD SWAP2 DUP5 SHL SHL NOT AND SWAP1 SSTORE SSTORE PUSH0 DUP1 DUP3 DUP1 RETURN JUMPDEST PUSH4 0x4E487B71 PUSH1 0xE0 SHL DUP4 MSTORE PUSH1 0x31 PUSH1 0x4 MSTORE PUSH1 0x24 DUP4 REVERT JUMPDEST PUSH0 NOT DUP2 ADD SWAP1 DUP2 GT PUSH2 0x1387 JUMPI PUSH2 0x1373 PUSH2 0x1381 SWAP2 PUSH2 0x1D7B JUMP JUMPDEST SWAP1 SLOAD SWAP1 DUP4 SHL SHR PUSH2 0x7B5 PUSH2 0x1D49 JUMP JUMPDEST PUSH0 PUSH2 0x131C JUMP JUMPDEST PUSH4 0x4E487B71 PUSH1 0xE0 SHL DUP4 MSTORE PUSH1 0x11 PUSH1 0x4 MSTORE PUSH1 0x24 DUP4 REVERT JUMPDEST PUSH1 0x1 SWAP1 DUP2 DUP4 ADD SWAP2 PUSH1 0x40 MLOAD SWAP3 DUP7 SWAP2 DUP2 SLOAD SWAP2 PUSH2 0x13B4 DUP4 PUSH2 0x1A19 JUMP JUMPDEST SWAP3 DUP3 DUP2 AND SWAP1 DUP2 ISZERO PUSH2 0x1452 JUMPI POP PUSH1 0x1 EQ PUSH2 0x1421 JUMPI JUMPDEST POP POP POP SWAP2 PUSH1 0x8 SWAP3 SWAP2 DUP2 DUP4 DUP9 DUP7 SWAP6 MSTORE SUB ADD SWAP1 KECCAK256 SWAP3 PUSH1 0x2 DUP2 ADD SLOAD PUSH1 0x2 DUP6 ADD SSTORE DUP5 DUP2 ADD SLOAD DUP6 DUP6 ADD SSTORE PUSH1 0x4 DUP2 ADD SLOAD PUSH1 0x4 DUP6 ADD SSTORE PUSH1 0x5 DUP2 ADD SLOAD PUSH1 0x5 DUP6 ADD SSTORE PUSH1 0x6 DUP2 ADD SLOAD PUSH1 0x6 DUP6 ADD SSTORE PUSH1 0x7 DUP2 ADD SLOAD PUSH1 0x7 DUP6 ADD SSTORE ADD SLOAD SWAP2 ADD SSTORE PUSH0 DUP1 PUSH2 0x130F JUMP JUMPDEST DUP9 MSTORE DUP4 DUP9 KECCAK256 SWAP2 SWAP3 POP DUP8 SWAP2 JUMPDEST DUP4 DUP4 LT PUSH2 0x1441 JUMPI POP POP POP DUP3 ADD DUP2 DUP4 PUSH1 0x8 PUSH2 0x13C8 JUMP JUMPDEST DUP1 SLOAD DUP7 DUP5 ADD MSTORE SWAP2 DUP5 ADD SWAP2 DUP2 ADD PUSH2 0x142C JUMP JUMPDEST PUSH1 0xFF NOT AND DUP8 MSTORE POP POP POP DUP1 ISZERO ISZERO MUL DUP4 ADD SWAP1 POP DUP2 DUP4 PUSH1 0x8 PUSH2 0x13C8 JUMP JUMPDEST POP PUSH1 0xC DUP3 ADD SLOAD PUSH1 0xD DUP4 ADD SLOAD LT PUSH2 0x130A JUMP JUMPDEST POP CALLVALUE PUSH2 0x17B JUMPI DUP1 PUSH1 0x3 NOT CALLDATASIZE ADD SLT PUSH2 0x17B JUMPI PUSH1 0x9 SLOAD PUSH1 0x40 MLOAD PUSH1 0x1 PUSH1 0x1 PUSH1 0xA0 SHL SUB SWAP1 SWAP2 AND DUP2 MSTORE PUSH1 0x20 SWAP1 RETURN JUMPDEST POP CALLVALUE PUSH2 0x17B JUMPI PUSH2 0x14B5 CALLDATASIZE PUSH2 0x1C07 JUMP JUMPDEST SWAP4 SWAP7 PUSH1 0x40 SWAP7 SWAP6 SWAP7 SWAP4 SWAP2 SWAP4 MLOAD DUP2 MLOAD PUSH1 0x20 SWAP2 DUP3 DUP5 ADD SWAP2 PUSH2 0x14D4 DUP2 DUP4 DUP6 PUSH2 0x1B27 JUMP JUMPDEST DUP2 ADD DUP13 DUP2 MSTORE DUP2 SWAP1 SUB DUP4 ADD SWAP1 KECCAK256 SLOAD PUSH1 0x1 PUSH1 0x1 PUSH1 0xA0 SHL SUB AND PUSH2 0x16A4 JUMPI PUSH2 0x15FD DUP3 DUP3 DUP9 PUSH1 0x7 DUP16 DUP16 DUP16 DUP16 DUP16 SWAP11 PUSH2 0x1543 PUSH1 0x2 SWAP2 PUSH1 0x8 SWAP13 DUP16 PUSH1 0x40 MLOAD DUP4 DUP2 DUP4 MLOAD PUSH2 0x1518 DUP2 DUP4 DUP9 PUSH2 0x1B27 JUMP JUMPDEST DUP2 ADD DUP13 DUP2 MSTORE SUB ADD SWAP1 KECCAK256 DUP1 SLOAD PUSH1 0x1 PUSH1 0x1 PUSH1 0xA0 SHL SUB NOT AND CALLER OR SWAP1 SSTORE PUSH1 0x40 MLOAD SWAP1 MLOAD SWAP1 SWAP4 DUP5 SWAP3 DUP3 SWAP1 DUP5 SWAP1 PUSH2 0x1B27 JUMP JUMPDEST DUP2 ADD DUP9 DUP2 MSTORE SUB ADD SWAP1 KECCAK256 ADD SSTORE PUSH1 0x3 DUP12 DUP9 PUSH1 0x40 MLOAD DUP1 SWAP3 MLOAD PUSH2 0x1563 DUP2 DUP4 DUP14 PUSH2 0x1B27 JUMP JUMPDEST DUP2 ADD DUP8 DUP2 MSTORE SUB ADD SWAP1 KECCAK256 ADD SSTORE PUSH1 0x4 PUSH1 0x40 MLOAD DUP8 DUP2 DUP14 MLOAD PUSH2 0x1582 DUP2 DUP4 DUP13 PUSH2 0x1B27 JUMP JUMPDEST DUP2 ADD DUP7 DUP2 MSTORE SUB ADD SWAP1 KECCAK256 ADD SSTORE DUP10 PUSH1 0x5 PUSH1 0x40 MLOAD DUP8 DUP2 DUP14 MLOAD PUSH2 0x15A2 DUP2 DUP4 DUP13 PUSH2 0x1B27 JUMP JUMPDEST DUP2 ADD DUP7 DUP2 MSTORE SUB ADD SWAP1 KECCAK256 ADD SSTORE DUP11 PUSH1 0x6 PUSH1 0x40 MLOAD DUP8 DUP2 DUP14 MLOAD PUSH2 0x15C2 DUP2 DUP4 DUP13 PUSH2 0x1B27 JUMP JUMPDEST DUP2 ADD DUP7 DUP2 MSTORE SUB ADD SWAP1 KECCAK256 ADD SSTORE DUP5 PUSH1 0x40 MLOAD DUP1 SWAP3 DUP12 MLOAD PUSH2 0x15E0 DUP2 DUP5 DUP11 PUSH2 0x1B27 JUMP JUMPDEST DUP3 ADD SWAP1 DUP2 MSTORE SUB ADD SWAP1 KECCAK256 ADD SSTORE DUP14 PUSH1 0x40 MLOAD DUP1 SWAP5 DUP2 SWAP4 DUP10 MLOAD SWAP3 DUP4 SWAP2 PUSH2 0x1B27 JUMP JUMPDEST DUP3 ADD SWAP1 DUP2 MSTORE SUB ADD SWAP1 KECCAK256 ADD SSTORE PUSH1 0x1 SLOAD PUSH1 0x1 PUSH1 0x40 SHL DUP2 LT ISZERO PUSH2 0x1690 JUMPI DUP1 PUSH1 0x1 PUSH2 0x1627 SWAP3 ADD PUSH1 0x1 SSTORE PUSH2 0x1D1D JUMP JUMPDEST PUSH2 0x167C JUMPI SWAP2 PUSH2 0x1668 DUP3 PUSH2 0x1663 PUSH32 0x9C96CEAD8F7FC8142F1AF61E373480446B35D81BB5DFA183FD3880C45DF68AD5 SWAP11 SWAP10 SWAP9 SWAP7 SWAP5 PUSH2 0x1676 SWAP9 SWAP7 PUSH2 0x1DE8 JUMP JUMPDEST PUSH2 0x1EE4 JUMP JUMPDEST SWAP9 PUSH1 0x40 MLOAD SWAP8 DUP9 SWAP8 CALLER DUP10 PUSH2 0x1D93 JUMP JUMPDEST SUB SWAP1 LOG2 DUP1 RETURN JUMPDEST PUSH4 0x4E487B71 PUSH1 0xE0 SHL DUP11 MSTORE PUSH1 0x4 DUP11 SWAP1 MSTORE PUSH1 0x24 DUP11 REVERT JUMPDEST PUSH4 0x4E487B71 PUSH1 0xE0 SHL DUP11 MSTORE PUSH1 0x41 PUSH1 0x4 MSTORE PUSH1 0x24 DUP11 REVERT JUMPDEST PUSH1 0x40 MLOAD PUSH3 0x461BCD PUSH1 0xE5 SHL DUP2 MSTORE PUSH1 0x4 DUP2 ADD DUP4 SWAP1 MSTORE PUSH1 0x17 PUSH1 0x24 DUP3 ADD MSTORE PUSH23 0x29BAB13532B1BA1030B63932B0B23C9032BC34B9BA3997 PUSH1 0x49 SHL PUSH1 0x44 DUP3 ADD MSTORE PUSH1 0x64 SWAP1 REVERT JUMPDEST POP CALLVALUE PUSH2 0x17B JUMPI PUSH2 0x16F2 CALLDATASIZE PUSH2 0x1BC6 JUMP JUMPDEST SWAP2 SWAP1 PUSH1 0x40 MLOAD SWAP1 DUP1 MLOAD SWAP4 PUSH1 0x20 SWAP1 PUSH2 0x1731 DUP3 DUP5 ADD SWAP7 PUSH2 0x1710 DUP2 DUP8 DUP11 PUSH2 0x1B27 JUMP JUMPDEST DUP6 ADD DUP7 DUP2 MSTORE DUP6 SWAP1 SUB DUP4 ADD SWAP1 SWAP5 KECCAK256 SLOAD PUSH1 0x1 PUSH1 0x1 PUSH1 0xA0 SHL SUB SWAP5 SWAP1 DUP6 AND ISZERO ISZERO PUSH2 0x1F04 JUMP JUMPDEST PUSH2 0x17A4 PUSH1 0x40 MLOAD SWAP2 DUP5 MLOAD PUSH2 0x1745 DUP2 DUP6 DUP12 PUSH2 0x1B27 JUMP JUMPDEST DUP4 ADD DUP8 DUP2 MSTORE DUP4 DUP6 PUSH1 0x1 SWAP6 DUP7 SWAP4 SUB ADD SWAP1 KECCAK256 ADD CALLER DUP9 MSTORE DUP5 MSTORE PUSH2 0x176C CALLER DUP8 PUSH1 0x40 DUP11 KECCAK256 SLOAD AND EQ PUSH2 0x1F49 JUMP JUMPDEST DUP6 DUP4 PUSH2 0x1784 DUP7 DUP12 PUSH1 0x40 MLOAD DUP1 SWAP4 DUP2 SWAP3 DUP13 MLOAD SWAP3 DUP4 SWAP2 PUSH2 0x1B27 JUMP JUMPDEST DUP2 ADD DUP13 DUP2 MSTORE SUB ADD SWAP1 KECCAK256 ADD SWAP2 AND SWAP6 DUP7 SWAP2 DUP3 DUP10 MSTORE DUP6 MSTORE PUSH1 0x40 DUP9 KECCAK256 SLOAD AND EQ PUSH2 0x1FA6 JUMP JUMPDEST DUP4 CALLER EQ PUSH2 0x18E5 JUMPI DUP1 PUSH1 0x40 MLOAD DUP4 DUP2 DUP7 MLOAD PUSH2 0x17BE DUP2 DUP4 DUP14 PUSH2 0x1B27 JUMP JUMPDEST DUP2 ADD DUP10 DUP2 MSTORE SUB ADD SWAP1 KECCAK256 ADD DUP5 DUP7 MSTORE DUP3 MSTORE PUSH1 0x2 PUSH1 0x40 DUP7 KECCAK256 ADD CALLER DUP7 MSTORE DUP3 MSTORE PUSH1 0xFF PUSH1 0x40 DUP7 KECCAK256 SLOAD AND ISZERO PUSH2 0x188D JUMPI DUP1 PUSH1 0x40 MLOAD DUP4 DUP2 DUP7 MLOAD PUSH2 0x17F9 DUP2 DUP4 DUP14 PUSH2 0x1B27 JUMP JUMPDEST DUP2 ADD DUP10 DUP2 MSTORE SUB ADD SWAP1 KECCAK256 DUP6 DUP8 MSTORE ADD DUP3 MSTORE PUSH1 0x40 DUP6 KECCAK256 DUP2 ADD DUP1 SLOAD PUSH0 NOT DUP2 ADD SWAP2 SWAP1 DUP3 GT PUSH2 0x11AD JUMPI PUSH2 0x1866 SWAP6 SWAP7 SWAP8 PUSH2 0x183A SWAP3 DUP6 SWAP3 SSTORE PUSH1 0x40 MLOAD DUP1 SWAP4 DUP2 SWAP3 DUP9 MLOAD SWAP3 DUP4 SWAP2 PUSH2 0x1B27 JUMP JUMPDEST DUP2 ADD DUP10 DUP2 MSTORE SUB ADD SWAP1 KECCAK256 ADD DUP5 DUP7 MSTORE DUP2 MSTORE PUSH1 0x2 PUSH1 0x40 DUP7 KECCAK256 ADD SWAP1 CALLER DUP7 MSTORE MSTORE PUSH1 0x40 DUP5 KECCAK256 PUSH1 0xFF NOT DUP2 SLOAD AND SWAP1 SSTORE PUSH2 0x1EE4 JUMP JUMPDEST PUSH32 0x1E8A0A2DCB862255253B893B953460B9526EB6C2BC86FD2D3163A449B3D3D7B4 DUP4 DUP1 LOG3 DUP1 RETURN JUMPDEST PUSH1 0x40 MLOAD PUSH3 0x461BCD PUSH1 0xE5 SHL DUP2 MSTORE PUSH1 0x4 DUP2 ADD DUP4 SWAP1 MSTORE PUSH1 0x2A PUSH1 0x24 DUP3 ADD MSTORE PUSH32 0x596F7520686176656E277420676976656E2061206372656420746F2074686973 PUSH1 0x44 DUP3 ADD MSTORE PUSH10 0x103932BB34B2BBB2B917 PUSH1 0xB1 SHL PUSH1 0x64 DUP3 ADD MSTORE PUSH1 0x84 SWAP1 REVERT JUMPDEST PUSH1 0x40 MLOAD PUSH3 0x461BCD PUSH1 0xE5 SHL DUP2 MSTORE PUSH1 0x4 DUP2 ADD DUP4 SWAP1 MSTORE PUSH1 0x26 PUSH1 0x24 DUP3 ADD MSTORE PUSH32 0x596F752063616E6E6F742072656D6F76652063726564732066726F6D20796F75 PUSH1 0x44 DUP3 ADD MSTORE PUSH6 0x3939B2B63317 PUSH1 0xD1 SHL PUSH1 0x64 DUP3 ADD MSTORE PUSH1 0x84 SWAP1 REVERT JUMPDEST POP CALLVALUE PUSH2 0x17B JUMPI PUSH1 0x20 CALLDATASIZE PUSH1 0x3 NOT ADD SLT PUSH2 0x17B JUMPI PUSH1 0x4 CALLDATALOAD DUP2 MSTORE PUSH1 0x2 PUSH1 0x20 MSTORE PUSH1 0x40 SWAP1 KECCAK256 DUP1 SLOAD PUSH1 0x1 PUSH1 0x1 PUSH1 0xA0 SHL SUB AND PUSH2 0x1970 PUSH1 0x1 DUP4 ADD PUSH2 0x1A86 JUMP JUMPDEST SWAP1 PUSH1 0x2 DUP4 ADD SLOAD SWAP3 PUSH1 0x3 DUP2 ADD SLOAD SWAP1 PUSH1 0x4 DUP2 ADD SLOAD PUSH1 0x5 DUP3 ADD SLOAD PUSH1 0x6 DUP4 ADD SLOAD PUSH1 0x7 DUP5 ADD SLOAD PUSH1 0x8 DUP6 ADD SLOAD SWAP1 PUSH1 0x9 DUP7 ADD SLOAD SWAP3 PUSH1 0xA DUP8 ADD SLOAD SWAP5 PUSH1 0xB DUP9 ADD SLOAD SWAP7 PUSH1 0xC DUP10 ADD SLOAD SWAP9 PUSH1 0xD ADD SLOAD SWAP10 PUSH1 0x40 MLOAD SWAP14 DUP15 SWAP14 DUP15 SWAP14 DUP15 MSTORE DUP14 PUSH2 0x1C0 SWAP1 DUP2 PUSH1 0x20 DUP3 ADD MSTORE ADD PUSH2 0x19D3 SWAP2 PUSH2 0x1B48 JUMP JUMPDEST SWAP13 PUSH1 0x40 ADD MSTORE PUSH1 0x60 DUP14 ADD MSTORE PUSH1 0x80 DUP13 ADD MSTORE PUSH1 0xA0 DUP12 ADD MSTORE PUSH1 0xC0 DUP11 ADD MSTORE PUSH1 0xE0 DUP10 ADD MSTORE PUSH2 0x100 DUP9 ADD MSTORE PUSH2 0x120 DUP8 ADD MSTORE PUSH2 0x140 DUP7 ADD MSTORE PUSH2 0x160 DUP6 ADD MSTORE PUSH2 0x180 DUP5 ADD MSTORE PUSH2 0x1A0 DUP4 ADD MSTORE SUB SWAP1 RETURN JUMPDEST SWAP1 PUSH1 0x1 DUP3 DUP2 SHR SWAP3 AND DUP1 ISZERO PUSH2 0x1A47 JUMPI JUMPDEST PUSH1 0x20 DUP4 LT EQ PUSH2 0x1A33 JUMPI JUMP JUMPDEST PUSH4 0x4E487B71 PUSH1 0xE0 SHL PUSH0 MSTORE PUSH1 0x22 PUSH1 0x4 MSTORE PUSH1 0x24 PUSH0 REVERT JUMPDEST SWAP2 PUSH1 0x7F AND SWAP2 PUSH2 0x1A28 JUMP JUMPDEST SWAP1 PUSH1 0x1F DUP1 NOT SWAP2 ADD AND DUP2 ADD SWAP1 DUP2 LT PUSH1 0x1 PUSH1 0x1 PUSH1 0x40 SHL SUB DUP3 GT OR PUSH2 0x1A72 JUMPI PUSH1 0x40 MSTORE JUMP JUMPDEST PUSH4 0x4E487B71 PUSH1 0xE0 SHL PUSH0 MSTORE PUSH1 0x41 PUSH1 0x4 MSTORE PUSH1 0x24 PUSH0 REVERT JUMPDEST SWAP1 PUSH1 0x40 MLOAD SWAP2 DUP3 PUSH0 DUP3 SLOAD SWAP3 PUSH2 0x1A99 DUP5 PUSH2 0x1A19 JUMP JUMPDEST SWAP1 DUP2 DUP5 MSTORE PUSH1 0x1 SWAP5 DUP6 DUP2 AND SWAP1 DUP2 PUSH0 EQ PUSH2 0x1B04 JUMPI POP PUSH1 0x1 EQ PUSH2 0x1AC4 JUMPI JUMPDEST POP POP PUSH2 0x1AC2 SWAP3 POP SUB DUP4 PUSH2 0x1A51 JUMP JUMPDEST JUMP JUMPDEST SWAP1 SWAP4 SWAP2 POP PUSH0 MSTORE PUSH1 0x20 SWAP1 DUP2 PUSH0 KECCAK256 SWAP4 PUSH0 SWAP2 JUMPDEST DUP2 DUP4 LT PUSH2 0x1AEC JUMPI POP POP PUSH2 0x1AC2 SWAP4 POP DUP3 ADD ADD PUSH0 DUP1 PUSH2 0x1AB4 JUMP JUMPDEST DUP6 SLOAD DUP9 DUP5 ADD DUP6 ADD MSTORE SWAP5 DUP6 ADD SWAP5 DUP8 SWAP5 POP SWAP2 DUP4 ADD SWAP2 PUSH2 0x1AD4 JUMP JUMPDEST SWAP2 POP POP PUSH2 0x1AC2 SWAP5 POP PUSH1 0x20 SWAP3 POP PUSH1 0xFF NOT AND DUP3 DUP5 ADD MSTORE ISZERO ISZERO PUSH1 0x5 SHL DUP3 ADD ADD PUSH0 DUP1 PUSH2 0x1AB4 JUMP JUMPDEST PUSH0 JUMPDEST DUP4 DUP2 LT PUSH2 0x1B38 JUMPI POP POP PUSH0 SWAP2 ADD MSTORE JUMP JUMPDEST DUP2 DUP2 ADD MLOAD DUP4 DUP3 ADD MSTORE PUSH1 0x20 ADD PUSH2 0x1B29 JUMP JUMPDEST SWAP1 PUSH1 0x20 SWAP2 PUSH2 0x1B61 DUP2 MLOAD DUP1 SWAP3 DUP2 DUP6 MSTORE DUP6 DUP1 DUP7 ADD SWAP2 ADD PUSH2 0x1B27 JUMP JUMPDEST PUSH1 0x1F ADD PUSH1 0x1F NOT AND ADD ADD SWAP1 JUMP JUMPDEST DUP2 PUSH1 0x1F DUP3 ADD SLT ISZERO PUSH2 0x1BC2 JUMPI DUP1 CALLDATALOAD SWAP1 PUSH1 0x1 PUSH1 0x1 PUSH1 0x40 SHL SUB DUP3 GT PUSH2 0x1A72 JUMPI PUSH1 0x40 MLOAD SWAP3 PUSH2 0x1BA1 PUSH1 0x1F DUP5 ADD PUSH1 0x1F NOT AND PUSH1 0x20 ADD DUP6 PUSH2 0x1A51 JUMP JUMPDEST DUP3 DUP5 MSTORE PUSH1 0x20 DUP4 DUP4 ADD ADD GT PUSH2 0x1BC2 JUMPI DUP2 PUSH0 SWAP3 PUSH1 0x20 DUP1 SWAP4 ADD DUP4 DUP7 ADD CALLDATACOPY DUP4 ADD ADD MSTORE SWAP1 JUMP JUMPDEST PUSH0 DUP1 REVERT JUMPDEST PUSH1 0x40 PUSH1 0x3 NOT DUP3 ADD SLT PUSH2 0x1BC2 JUMPI PUSH1 0x4 CALLDATALOAD SWAP1 PUSH1 0x1 PUSH1 0x1 PUSH1 0x40 SHL SUB DUP3 GT PUSH2 0x1BC2 JUMPI PUSH2 0x1BF0 SWAP2 PUSH1 0x4 ADD PUSH2 0x1B6D JUMP JUMPDEST SWAP1 PUSH1 0x24 CALLDATALOAD PUSH1 0x1 PUSH1 0x1 PUSH1 0xA0 SHL SUB DUP2 AND DUP2 SUB PUSH2 0x1BC2 JUMPI SWAP1 JUMP JUMPDEST PUSH2 0x100 PUSH1 0x3 NOT DUP3 ADD SLT PUSH2 0x1BC2 JUMPI PUSH1 0x4 CALLDATALOAD SWAP1 PUSH1 0x1 PUSH1 0x1 PUSH1 0x40 SHL SUB DUP3 GT PUSH2 0x1BC2 JUMPI PUSH2 0x1C32 SWAP2 PUSH1 0x4 ADD PUSH2 0x1B6D JUMP JUMPDEST SWAP1 PUSH1 0x24 CALLDATALOAD SWAP1 PUSH1 0x44 CALLDATALOAD SWAP1 PUSH1 0x64 CALLDATALOAD SWAP1 PUSH1 0x84 CALLDATALOAD SWAP1 PUSH1 0xA4 CALLDATALOAD SWAP1 PUSH1 0xC4 CALLDATALOAD SWAP1 PUSH1 0xE4 CALLDATALOAD SWAP1 JUMP JUMPDEST SWAP1 PUSH1 0x20 PUSH1 0x3 NOT DUP4 ADD SLT PUSH2 0x1BC2 JUMPI PUSH1 0x4 CALLDATALOAD PUSH1 0x1 PUSH1 0x1 PUSH1 0x40 SHL SUB SWAP3 DUP4 DUP3 GT PUSH2 0x1BC2 JUMPI DUP1 PUSH1 0x23 DUP4 ADD SLT ISZERO PUSH2 0x1BC2 JUMPI DUP2 PUSH1 0x4 ADD CALLDATALOAD SWAP4 DUP5 GT PUSH2 0x1BC2 JUMPI PUSH1 0x24 DUP5 DUP4 ADD ADD GT PUSH2 0x1BC2 JUMPI PUSH1 0x24 ADD SWAP2 SWAP1 JUMP JUMPDEST SWAP1 DUP1 PUSH1 0x1F DUP4 ADD SLT ISZERO PUSH2 0x1BC2 JUMPI DUP2 CALLDATALOAD SWAP1 PUSH1 0x1 PUSH1 0x1 PUSH1 0x40 SHL SUB SWAP3 DUP4 DUP4 GT PUSH2 0x1A72 JUMPI DUP3 PUSH1 0x5 SHL PUSH1 0x40 MLOAD SWAP5 PUSH1 0x20 SWAP5 PUSH2 0x1CD0 DUP7 DUP5 ADD DUP9 PUSH2 0x1A51 JUMP JUMPDEST DUP7 MSTORE DUP5 DUP1 DUP8 ADD SWAP3 DUP5 ADD ADD SWAP4 DUP1 DUP6 GT PUSH2 0x1BC2 JUMPI DUP6 DUP5 ADD SWAP3 JUMPDEST DUP6 DUP5 LT PUSH2 0x1CF8 JUMPI POP POP POP POP POP POP POP SWAP1 JUMP JUMPDEST DUP4 CALLDATALOAD DUP4 DUP2 GT PUSH2 0x1BC2 JUMPI DUP8 SWAP2 PUSH2 0x1D12 DUP5 DUP5 DUP1 SWAP5 DUP11 ADD ADD PUSH2 0x1B6D JUMP JUMPDEST DUP2 MSTORE ADD SWAP4 ADD SWAP3 PUSH2 0x1CE7 JUMP JUMPDEST PUSH1 0x1 SLOAD DUP2 LT ISZERO PUSH2 0x1D35 JUMPI PUSH1 0x1 PUSH0 MSTORE PUSH1 0x20 PUSH0 KECCAK256 ADD SWAP1 PUSH0 SWAP1 JUMP JUMPDEST PUSH4 0x4E487B71 PUSH1 0xE0 SHL PUSH0 MSTORE PUSH1 0x32 PUSH1 0x4 MSTORE PUSH1 0x24 PUSH0 REVERT JUMPDEST PUSH1 0x3 SLOAD ISZERO PUSH2 0x1D35 JUMPI PUSH1 0x3 PUSH0 SWAP1 DUP2 MSTORE PUSH32 0xC2575A0E9E593C00F959F8C92F12DB2869C3395A3B0502D05E2516446F71F85B SWAP2 JUMP JUMPDEST PUSH1 0x3 SLOAD DUP2 LT ISZERO PUSH2 0x1D35 JUMPI PUSH1 0x3 PUSH0 MSTORE PUSH1 0x20 PUSH0 KECCAK256 ADD SWAP1 PUSH0 SWAP1 JUMP JUMPDEST SWAP5 SWAP2 SWAP3 PUSH1 0xE0 SWAP7 SWAP4 SWAP10 SWAP9 SWAP8 SWAP5 SWAP2 SWAP10 PUSH2 0x100 DUP8 ADD SWAP11 PUSH1 0x1 DUP1 PUSH1 0xA0 SHL SUB AND DUP8 MSTORE PUSH1 0x20 DUP8 ADD MSTORE PUSH1 0x40 DUP7 ADD MSTORE PUSH1 0x60 DUP6 ADD MSTORE PUSH1 0x80 DUP5 ADD MSTORE PUSH1 0xA0 DUP4 ADD MSTORE PUSH1 0xC0 DUP3 ADD MSTORE ADD MSTORE JUMP JUMPDEST DUP2 DUP2 LT PUSH2 0x1DDD JUMPI POP POP JUMP JUMPDEST PUSH0 DUP2 SSTORE PUSH1 0x1 ADD PUSH2 0x1DD2 JUMP JUMPDEST SWAP2 SWAP1 SWAP2 DUP3 MLOAD PUSH1 0x1 PUSH1 0x1 PUSH1 0x40 SHL SUB DUP2 GT PUSH2 0x1A72 JUMPI PUSH2 0x1E05 DUP3 SLOAD PUSH2 0x1A19 JUMP JUMPDEST PUSH1 0x1F DUP2 GT PUSH2 0x1EA9 JUMPI JUMPDEST POP PUSH1 0x20 DUP1 PUSH1 0x1F DUP4 GT PUSH1 0x1 EQ PUSH2 0x1E49 JUMPI POP DUP2 SWAP3 SWAP4 SWAP5 PUSH0 SWAP3 PUSH2 0x1E3E JUMPI JUMPDEST POP POP DUP2 PUSH1 0x1 SHL SWAP2 PUSH0 NOT SWAP1 PUSH1 0x3 SHL SHR NOT AND OR SWAP1 SSTORE JUMP JUMPDEST ADD MLOAD SWAP1 POP PUSH0 DUP1 PUSH2 0x1E29 JUMP JUMPDEST SWAP1 PUSH1 0x1F NOT DUP4 AND SWAP6 DUP5 PUSH0 MSTORE DUP3 PUSH0 KECCAK256 SWAP3 PUSH0 SWAP1 JUMPDEST DUP9 DUP3 LT PUSH2 0x1E91 JUMPI POP POP DUP4 PUSH1 0x1 SWAP6 SWAP7 SWAP8 LT PUSH2 0x1E79 JUMPI JUMPDEST POP POP POP DUP2 SHL ADD SWAP1 SSTORE JUMP JUMPDEST ADD MLOAD PUSH0 NOT PUSH1 0xF8 DUP5 PUSH1 0x3 SHL AND SHR NOT AND SWAP1 SSTORE PUSH0 DUP1 DUP1 PUSH2 0x1E6F JUMP JUMPDEST DUP1 PUSH1 0x1 DUP6 SWAP7 DUP3 SWAP5 SWAP7 DUP7 ADD MLOAD DUP2 SSTORE ADD SWAP6 ADD SWAP4 ADD SWAP1 PUSH2 0x1E5A JUMP JUMPDEST PUSH2 0x1ED4 SWAP1 DUP4 PUSH0 MSTORE PUSH1 0x20 PUSH0 KECCAK256 PUSH1 0x1F DUP5 ADD PUSH1 0x5 SHR DUP2 ADD SWAP2 PUSH1 0x20 DUP6 LT PUSH2 0x1EDA JUMPI JUMPDEST PUSH1 0x1F ADD PUSH1 0x5 SHR ADD SWAP1 PUSH2 0x1DD2 JUMP JUMPDEST PUSH0 PUSH2 0x1E0E JUMP JUMPDEST SWAP1 SWAP2 POP DUP2 SWAP1 PUSH2 0x1EC7 JUMP JUMPDEST PUSH2 0x1EFC SWAP1 PUSH1 0x20 PUSH1 0x40 MLOAD SWAP3 DUP3 DUP5 DUP1 SWAP5 MLOAD SWAP4 DUP5 SWAP3 ADD PUSH2 0x1B27 JUMP JUMPDEST DUP2 ADD SUB SWAP1 KECCAK256 SWAP1 JUMP JUMPDEST ISZERO PUSH2 0x1F0B JUMPI JUMP JUMPDEST PUSH1 0x40 MLOAD PUSH3 0x461BCD PUSH1 0xE5 SHL DUP2 MSTORE PUSH1 0x20 PUSH1 0x4 DUP3 ADD MSTORE PUSH1 0x16 PUSH1 0x24 DUP3 ADD MSTORE PUSH22 0x29BAB13532B1BA103237B2B9B713BA1032BC34B9BA17 PUSH1 0x51 SHL PUSH1 0x44 DUP3 ADD MSTORE PUSH1 0x64 SWAP1 REVERT JUMPDEST ISZERO PUSH2 0x1F50 JUMPI JUMP JUMPDEST PUSH1 0x40 MLOAD PUSH3 0x461BCD PUSH1 0xE5 SHL DUP2 MSTORE PUSH1 0x20 PUSH1 0x4 DUP3 ADD MSTORE PUSH1 0x28 PUSH1 0x24 DUP3 ADD MSTORE PUSH32 0x596F7520617265206E6F74206120726576696577657220666F72207468697320 PUSH1 0x44 DUP3 ADD MSTORE PUSH8 0x39BAB13532B1BA17 PUSH1 0xC1 SHL PUSH1 0x64 DUP3 ADD MSTORE PUSH1 0x84 SWAP1 REVERT JUMPDEST ISZERO PUSH2 0x1FAD JUMPI JUMP JUMPDEST PUSH1 0x40 MLOAD PUSH3 0x461BCD PUSH1 0xE5 SHL DUP2 MSTORE PUSH1 0x20 PUSH1 0x4 DUP3 ADD MSTORE PUSH1 0x2F PUSH1 0x24 DUP3 ADD MSTORE PUSH32 0x54617267657420726576696577657220646F65736E277420657869737420666F PUSH1 0x44 DUP3 ADD MSTORE PUSH15 0x39103A3434B99039BAB13532B1BA17 PUSH1 0x89 SHL PUSH1 0x64 DUP3 ADD MSTORE PUSH1 0x84 SWAP1 REVERT JUMPDEST SWAP2 SWAP1 DUP3 ADD DUP1 SWAP3 GT PUSH2 0x2017 JUMPI JUMP JUMPDEST PUSH4 0x4E487B71 PUSH1 0xE0 SHL PUSH0 MSTORE PUSH1 0x11 PUSH1 0x4 MSTORE PUSH1 0x24 PUSH0 REVERT JUMPDEST SWAP1 DUP2 PUSH1 0x20 SWAP2 SUB SLT PUSH2 0x1BC2 JUMPI MLOAD DUP1 ISZERO ISZERO DUP2 SUB PUSH2 0x1BC2 JUMPI SWAP1 JUMP JUMPDEST ISZERO PUSH2 0x204A JUMPI JUMP JUMPDEST PUSH1 0x40 MLOAD PUSH3 0x461BCD PUSH1 0xE5 SHL DUP2 MSTORE PUSH1 0x20 PUSH1 0x4 DUP3 ADD MSTORE PUSH1 0x16 PUSH1 0x24 DUP3 ADD MSTORE PUSH22 0x2737BA103A34329031B7B73A3930B1BA1037BBB732B9 PUSH1 0x51 SHL PUSH1 0x44 DUP3 ADD MSTORE PUSH1 0x64 SWAP1 REVERT JUMPDEST PUSH1 0x40 MLOAD SWAP1 PUSH1 0x20 DUP3 ADD SWAP1 PUSH4 0xF82C50F1 PUSH1 0xE0 SHL DUP3 MSTORE PUSH1 0x24 DUP4 ADD MSTORE PUSH1 0x24 DUP3 MSTORE PUSH1 0x60 DUP3 ADD SWAP1 DUP3 DUP3 LT PUSH1 0x1 PUSH1 0x1 PUSH1 0x40 SHL SUB DUP4 GT OR PUSH2 0x1A72 JUMPI PUSH0 SWAP3 DUP4 SWAP3 PUSH1 0x40 MSTORE MLOAD SWAP1 PUSH11 0x636F6E736F6C652E6C6F67 GAS STATICCALL POP JUMP INVALID LOG2 PUSH5 0x6970667358 0x22 SLT KECCAK256 CALLDATACOPY 0xAF SLT SMOD 0x28 0xBC 0xCF INVALID BASEFEE POP 0xED SWAP2 0xCD JUMPI CALLDATALOAD 0xB5 0xE4 PUSH12 0xD423DCD74E949C9AAE033BCE 0xEE CALL PUSH5 0x736F6C6343 STOP ADDMOD EQ STOP CALLER "},"methodIdentifiers":{"AutomationContract()":"408958d6","addCredsToReviewer(string,address)":"585e01e4","addSelfAsReviewer(string,string,string,string[],string[])":"74daa149","checkUpKeep(bytes)":"5e6c102e","createSubject(string,uint256,uint256,uint256,uint256,uint256,uint256,uint256)":"3371ef7d","getReviewer(string,address)":"fdc1a91c","performUpkeep(bytes)":"4585e33b","proposalFeeInLink()":"7823e226","proposals(uint256)":"013cf08b","propose(string,uint256,uint256,uint256,uint256,uint256,uint256,uint256)":"ac923334","removeCredsFromReviewer(string,address)":"18f6b962","setAutomationRegistry(address)":"5ff2d2aa","setFee(uint256)":"69fe0e2d","setOpenVoteTime(uint256)":"8640f718","setUpkkepId(uint256)":"5787a0cc","subjectNames(uint256)":"fc687c80","subjects(string)":"fe290423","vote(uint256,bool)":"c9d27afe"}}}}}