{"contracts/learntgetherCommunityConsensus.sol":{"learntgetherCommunityConsensus":{"abi":[{"inputs":[{"internalType":"uint256","name":"_feePrice","type":"uint256"},{"internalType":"address","name":"_communityContractAddress","type":"address"},{"internalType":"uint256","name":"_communityFee","type":"uint256"},{"internalType":"address payable","name":"_feeAddress","type":"address"}],"stateMutability":"nonpayable","type":"constructor"},{"anonymous":false,"inputs":[{"indexed":true,"internalType":"string","name":"communityName","type":"string"},{"indexed":false,"internalType":"uint256","name":"numReviewsForAcceptance","type":"uint256"},{"indexed":false,"internalType":"uint256","name":"credsNeededForReview","type":"uint256"},{"indexed":false,"internalType":"uint256","name":"percentAcceptsNeeded","type":"uint256"},{"indexed":false,"internalType":"uint256","name":"consensusTime","type":"uint256"},{"indexed":false,"internalType":"string[]","name":"consensusTypes","type":"string[]"}],"name":"CCParamCreated","type":"event"},{"anonymous":false,"inputs":[{"indexed":true,"internalType":"uint256","name":"proposalId","type":"uint256"},{"indexed":false,"internalType":"address","name":"proposer","type":"address"},{"indexed":false,"internalType":"uint256","name":"numReviewsForAcceptance","type":"uint256"},{"indexed":false,"internalType":"uint256","name":"credsNeededForReview","type":"uint256"},{"indexed":false,"internalType":"uint256","name":"percentAcceptsNeeded","type":"uint256"},{"indexed":false,"internalType":"uint256","name":"consensusTime","type":"uint256"},{"indexed":false,"internalType":"string[]","name":"consensusTypes","type":"string[]"}],"name":"CCProposalCreated","type":"event"},{"inputs":[{"internalType":"uint256","name":"","type":"uint256"}],"name":"CommunityConsensusProposals","outputs":[{"internalType":"address","name":"proposer","type":"address"},{"internalType":"string","name":"communityName","type":"string"},{"internalType":"uint256","name":"numReviewsForAcceptance","type":"uint256"},{"internalType":"uint256","name":"credsNeededForReview","type":"uint256"},{"internalType":"uint256","name":"percentAcceptsNeeded","type":"uint256"},{"internalType":"uint256","name":"consensusTime","type":"uint256"},{"internalType":"bool","name":"upkeeped","type":"bool"},{"internalType":"bool","name":"passed","type":"bool"}],"stateMutability":"view","type":"function"},{"inputs":[],"name":"CommunityContract","outputs":[{"internalType":"contract learntgtetherCommuunitiesInterfact","name":"","type":"address"}],"stateMutability":"view","type":"function"},{"inputs":[{"internalType":"string","name":"_communityName","type":"string"},{"internalType":"uint256","name":"_numReviewsForAcceptance","type":"uint256"},{"internalType":"uint256","name":"_credsNeededForReview","type":"uint256"},{"internalType":"uint256","name":"_percentAcceptsNeeded","type":"uint256"},{"internalType":"uint256","name":"_consensusTime","type":"uint256"},{"internalType":"string[]","name":"_consensusTypes","type":"string[]"}],"name":"CreateCCProposal","outputs":[{"internalType":"uint256","name":"","type":"uint256"}],"stateMutability":"payable","type":"function"},{"inputs":[],"name":"UpdateTotalFee","outputs":[],"stateMutability":"nonpayable","type":"function"},{"inputs":[{"internalType":"bytes32","name":"_address","type":"bytes32"}],"name":"bytes32ToAddress","outputs":[{"internalType":"address","name":"","type":"address"}],"stateMutability":"pure","type":"function"},{"inputs":[{"components":[{"internalType":"uint256","name":"index","type":"uint256"},{"internalType":"uint256","name":"timestamp","type":"uint256"},{"internalType":"bytes32","name":"txHash","type":"bytes32"},{"internalType":"uint256","name":"blockNumber","type":"uint256"},{"internalType":"bytes32","name":"blockHash","type":"bytes32"},{"internalType":"address","name":"source","type":"address"},{"internalType":"bytes32[]","name":"topics","type":"bytes32[]"},{"internalType":"bytes","name":"data","type":"bytes"}],"internalType":"struct learntgetherCommunityConsensus.Log","name":"log","type":"tuple"},{"internalType":"bytes","name":"","type":"bytes"}],"name":"checkLog","outputs":[{"internalType":"bool","name":"upkeepNeeded","type":"bool"},{"internalType":"bytes","name":"_performData","type":"bytes"}],"stateMutability":"view","type":"function"},{"inputs":[{"internalType":"string","name":"","type":"string"}],"name":"communityConsensus","outputs":[{"internalType":"uint256","name":"numReviewsForAcceptance","type":"uint256"},{"internalType":"uint256","name":"credsNeededForReview","type":"uint256"},{"internalType":"uint256","name":"percentAcceptsNeeded","type":"uint256"},{"internalType":"uint256","name":"consensusTime","type":"uint256"},{"internalType":"bool","name":"isSet","type":"bool"}],"stateMutability":"view","type":"function"},{"inputs":[],"name":"communityFee","outputs":[{"internalType":"uint256","name":"","type":"uint256"}],"stateMutability":"view","type":"function"},{"inputs":[],"name":"fee","outputs":[{"internalType":"uint256","name":"","type":"uint256"}],"stateMutability":"view","type":"function"},{"inputs":[],"name":"feeAddress","outputs":[{"internalType":"address payable","name":"","type":"address"}],"stateMutability":"view","type":"function"},{"inputs":[{"internalType":"string","name":"_communityName","type":"string"}],"name":"getCCParams","outputs":[{"internalType":"uint256","name":"_numReviewsForAcceptance","type":"uint256"},{"internalType":"uint256","name":"_credsNeededForReview","type":"uint256"},{"internalType":"uint256","name":"_percentAcceptsNeeded","type":"uint256"},{"internalType":"uint256","name":"_consensusTime","type":"uint256"},{"internalType":"string[]","name":"_consensusTypes","type":"string[]"},{"internalType":"bool","name":"_isSet","type":"bool"}],"stateMutability":"view","type":"function"},{"inputs":[{"internalType":"string","name":"_communityName","type":"string"}],"name":"getCCParamsExist","outputs":[{"internalType":"bool","name":"_isSet","type":"bool"}],"stateMutability":"view","type":"function"},{"inputs":[{"internalType":"string","name":"_communityName","type":"string"}],"name":"getCommunityConsensousTime","outputs":[{"internalType":"uint256","name":"","type":"uint256"}],"stateMutability":"view","type":"function"},{"inputs":[{"internalType":"string","name":"_communityName","type":"string"}],"name":"getCommunityConsensousTypes","outputs":[{"internalType":"string[]","name":"consensusTypes","type":"string[]"}],"stateMutability":"view","type":"function"},{"inputs":[{"internalType":"string","name":"_communityName","type":"string"}],"name":"getCommunityReviewParams","outputs":[{"internalType":"uint256","name":"numReviewsForAcceptance","type":"uint256"},{"internalType":"uint256","name":"credsNeededForReview","type":"uint256"},{"internalType":"uint256","name":"percentAcceptsNeeded","type":"uint256"}],"stateMutability":"view","type":"function"},{"inputs":[],"name":"maxConsensusTime","outputs":[{"internalType":"uint256","name":"","type":"uint256"}],"stateMutability":"view","type":"function"},{"inputs":[{"internalType":"bytes","name":"_performData","type":"bytes"}],"name":"performUpkeep","outputs":[],"stateMutability":"nonpayable","type":"function"},{"inputs":[{"internalType":"string","name":"_communityName","type":"string"},{"internalType":"uint256","name":"_numReviewsForAcceptance","type":"uint256"},{"internalType":"uint256","name":"_credsNeededForReview","type":"uint256"},{"internalType":"uint256","name":"_percentAcceptsNeeded","type":"uint256"},{"internalType":"uint256","name":"_consensusTime","type":"uint256"},{"internalType":"string[]","name":"_consensusTypes","type":"string[]"}],"name":"setCCParams","outputs":[{"internalType":"bool","name":"","type":"bool"}],"stateMutability":"nonpayable","type":"function"},{"inputs":[{"internalType":"uint256","name":"_feePrice","type":"uint256"}],"name":"setFee","outputs":[],"stateMutability":"nonpayable","type":"function"},{"inputs":[{"internalType":"address payable","name":"_feeAddress","type":"address"}],"name":"setFeeAddress","outputs":[],"stateMutability":"nonpayable","type":"function"},{"inputs":[{"internalType":"uint256","name":"_mrt","type":"uint256"}],"name":"setMaxConsensusTime","outputs":[],"stateMutability":"nonpayable","type":"function"},{"inputs":[{"internalType":"address","name":"_contractAddress","type":"address"}],"name":"setlearntgetherCommunityContract","outputs":[],"stateMutability":"nonpayable","type":"function"},{"inputs":[],"name":"totalFee","outputs":[{"internalType":"uint256","name":"","type":"uint256"}],"stateMutability":"view","type":"function"},{"inputs":[],"name":"upkeepId","outputs":[{"internalType":"uint256","name":"","type":"uint256"}],"stateMutability":"view","type":"function"}],"evm":{"bytecode":{"linkReferences":{},"object":"6080346100de57601f6200236f38819003918201601f19168301916001600160401b038311848410176100e2578084926080946040528339810103126100de57805160208201519091906001600160a01b0390818116908190036100de57606060408401519301519182168092036100de5760018060a01b03199030826009541617600955338260025416176002558160085416176008556007541617600755816003558060055581018091116100ca57600655627864506004556040516122789081620000f78239f35b634e487b7160e01b5f52601160045260245ffd5b5f80fd5b634e487b7160e01b5f52604160045260245ffdfe60806040526004361015610011575f80fd5b5f3560e01c806313a292ee14611e215780631df4ccfc14611e045780631e6a248814611d6657806324c9db2f14611d165780632627bc1e14611c9c5780632691798914611bf15780633bebe05114611ba657806340691db414611a635780634127535814611a3b5780634585e33b14610ef75780634e2413e814610b5e5780635ced058e14610b3757806369fe0e2d14610b095780638003822e14610abd5780638705fcd414610a715780638961be6b14610a54578063a804535d1461040c578063abb7d06c146102d0578063d1dda68f1461021a578063d2aa789f146101fd578063dcf8620014610187578063ddca3f431461016a578063f0642315146101425763f6eeda9d14610121575f80fd5b3461013e575f36600319011261013e576020600454604051908152f35b5f80fd5b3461013e575f36600319011261013e576008546040516001600160a01b039091168152602090f35b3461013e575f36600319011261013e576020600354604051908152f35b3461013e57602036600319011261013e576004356001600160401b03811161013e576101e560046101d660206101c36101f99536908501611ffc565b8160405193828580945193849201611f65565b81015f81520301902001612167565b6040519182916020835260208301906120f6565b0390f35b3461013e575f36600319011261013e576020600a54604051908152f35b3461013e575f36600319011261013e576004602060018060a01b03610244816002541633146121fd565b600854166040519283809263ced72f8760e01b82525afa9081156102c5575f91610294575b508060055560035490810180911161028057600655005b634e487b7160e01b5f52601160045260245ffd5b90506020813d82116102bd575b816102ae60209383611ea3565b8101031261013e575181610269565b3d91506102a1565b6040513d5f823e3d90fd5b3461013e5760208060031936011261013e576004356001600160401b03811161013e57610301903690600401611ffc565b6040519061040081519284818185019561031c818389611f65565b81015f815203019020549260016040518681865161033b818388611f65565b81015f81520301902001549060026040518781875161035b818388611f65565b81015f81520301902001546103d960ff60056103c78a600361038a82898d604051938492839251928391611f65565b81015f81520301902001549660048b836040518092516103ab818388611f65565b81015f815203019020019a604051938492839251928391611f65565b81015f81520301902001541695612167565b9260405197889788528701526040860152606085015260c0608085015260c08401906120f6565b90151560a08301520390f35b61041536612031565b938195929391956006543403610a1a5760018060a01b03600854169560206005546040519889809263b07bcbc560e01b8252604060048301528161045c604482018c611f86565b30602483015203925af19687156102c5575f976109e6575b5086156109aa576104ce9787967fc3c31a458b47a6df81fa50913e5e50a8d7903a95b235b5aa6b16fd81c7b05e1796610592946004548091116109a2575b50885f52600160205261053c600760405f206040519d8e611e87565b80546001600160a01b03168e528d60206104ea60018401611ec4565b9101528d604060028301549101528d606060038301549101528d608060048301549101528d60a060058301549101528d60e060ff6006840154818116151560c085015260081c16151591015201612167565b50338b5260208b01528460408b01528560608b01528060808b01528160a08b0152826101008b0152604051958695338752602087015260408601526060850152608084015260c060a084015260c08301906120f6565b0390a260075460055434908103916001600160a01b0316908211610280575f80809381935af13d1561099d573d6105c881611fab565b906105d66040519283611ea3565b81525f60203d92013e5b1561096157805f52600160205260405f209060018060a01b0383511660018060a01b031983541617825560208301519283516001600160401b03811161082b5761062d6001850154611e4f565b601f811161092e575b506020601f82116001146108be5781906101009495965f926108b3575b50508160011b915f199060031b1c19161760018501555b60408101516002850155606081015160038501556080810151600485015560a08101516005850155600684016106b260c08301511515829060ff801983541691151516179055565b60e0820151815461ff00191690151560081b61ff00161790550151805190600160401b821161082b57600784015482600786015580831061083f575b5060206007910193015f5260205f20925f905b82821061071357602084604051908152f35b80518051906001600160401b03821161082b576107308754611e4f565b601f81116107f0575b50602090601f83116001146107845792826001949360209386955f92610779575b50505f19600383901b1c191690841b1788555b01950191019093610701565b015190508a8061075a565b90875f5260205f20915f5b601f19851681106107d8575083602093600196938796938794601f198116106107c0575b505050811b01885561076d565b01515f1960f88460031b161c191690558a80806107b3565b9192602060018192868501518155019401920161078f565b61081b90885f5260205f20601f850160051c81019160208610610821575b601f0160051c0190612151565b87610739565b909150819061080e565b634e487b7160e01b5f52604160045260245ffd5b600785015f5260205f20908382015b818301811061085e5750506106ee565b8061086b60019254611e4f565b80610878575b500161084e565b601f8111831461088d57505f81555b88610871565b5f908282526108aa601f60208420920160051c8201858301612151565b81835555610887565b015190508680610653565b600185015f5260205f20955f5b601f19841681106109165750958291610100959697600194601f198116106108fe575b505050811b01600185015561066a565b01515f1960f88460031b161c191690558680806108ee565b828201518855600190970196602092830192016108cb565b61095b90600186015f5260205f20601f840160051c8101916020851061082157601f0160051c0190612151565b85610636565b60405162461bcd60e51b81526020600482015260146024820152732330b4b632b2103a379039b2b7321022ba3432b960611b6044820152606490fd5b6105e0565b92508b6104b2565b60405162461bcd60e51b8152602060048201526014602482015273141c9bdc1bdcd85b081b9bdd0818dc99585d195960621b6044820152606490fd5b9096506020813d602011610a12575b81610a0260209383611ea3565b8101031261013e57519588610474565b3d91506109f5565b60405162461bcd60e51b8152602060048201526012602482015271119959481c1c9a58d9481b9bdd081cd95b9d60721b6044820152606490fd5b3461013e575f36600319011261013e576020600554604051908152f35b3461013e57602036600319011261013e576004356001600160a01b038181169182900361013e57610aa7906002541633146121fd565b600780546001600160a01b031916919091179055005b3461013e57602036600319011261013e576004356001600160a01b038181169182900361013e57610af3906002541633146121fd565b600880546001600160a01b031916919091179055005b3461013e57602036600319011261013e57610b2f60018060a01b036002541633146121fd565b600435600355005b3461013e57602036600319011261013e576040516004356001600160a01b03168152602090f35b3461013e57610b6c36612031565b949290809360018060a01b038060085416906020604051809363b3f6702d60e01b82528260048301528180610ba46024820189611f86565b03915afa9182156102c5575f92610eba575b5033911603610e65576040519160ff600583519460208181870197610bdc81838b611f65565b81015f815203019020015416610e0d57600454809111610e03575b50610c1091602091604051938492839251928391611f65565b5f9082019081520301902093845560018401556002830155600382015581516004820192600160401b821161082b578354828555808310610d92575b50602001925f5260205f20925f905b828210610c7c5760058401600160ff19825416179055602060405160018152f35b80518051906001600160401b03821161082b57610c998754611e4f565b90601f91828111610d5a575b506020918311600114610cee5792826001949360209386955f92610ce3575b50505f19600383901b1c191690841b1788555b01950191019093610c5b565b015190508a80610cc4565b90875f5260205f20915f5b601f1985168110610d42575083602093600196938796938794601f19811610610d2a575b505050811b018855610cd7565b01515f1960f88460031b161c191690558a8080610d1d565b91926020600181928685015181550194019201610cf9565b610d8390895f5260205f208480870160051c82019260208810610d89575b0160051c0190612151565b88610ca5565b92508192610d78565b845f528260205f2091820191015b818110610dad5750610c4c565b80610dba60019254611e4f565b80610dc7575b5001610da0565b601f908181118414610ddf5750505f81555b87610dc0565b610dfa5f9284845260208420920160051c8201858301612151565b81835555610dd9565b9450610c10610bf7565b60405162461bcd60e51b815260206004820152602a60248201527f436f6d6d756e69747920436f6e73656e73757320506172616d657465727320616044820152691b1c9958591e481cd95d60b21b6064820152608490fd5b60405162461bcd60e51b815260206004820152602760248201527f55736572206973206e6f7420746865206f776e6572206f66207468697320636f6044820152666d6d756e69747960c81b6064820152608490fd5b9091506020813d602011610eef575b81610ed660209383611ea3565b8101031261013e5751818116810361013e579089610bb6565b3d9150610ec9565b3461013e57602036600319011261013e576004356001600160401b03811161013e573660238201121561013e5780600401356001600160401b03811161013e57810136602482011161013e5781602091031261013e5760248101355f908152600160205260409020546001600160a01b0316610f6f57005b60085460408051630b7b9a0160e31b81526024848101356004830152909283919082906001600160a01b03165afa9081156102c5575f905f926119f3575b5015610fb557005b1561166d5760248101355f526001602052602460405f2091611047600760405194610fdf86611e87565b80546001600160a01b03168652610ff860018201611ec4565b6020870152600281015460408701526003810154606087015260048101546080870152600581015460a087015260ff6006820154818116151560c089015260081c16151560e087015201612167565b610100840152600160c0840152600160e084015201355f52600160205260405f209060018060a01b0381511660018060a01b031983541617825560208101519182516001600160401b03811161082b576110a46001830154611e4f565b601f811161163a575b506020601f82116001146115d057819293945f926115c5575b50508160011b915f199060031b1c19161760018201555b60408201516002820155606082015160038201556080820151600482015560a082015160058201556006810161112560c08401511515829060ff801983541691151516179055565b60e0830151815461ff00191690151560081b61ff0016179055610100820151805190600160401b821161082b576007830154826007850155808310611551575b5060206007910192015f5260205f20915f905b828210611444575050505061119f6020808301518160405193828580945193849201611f65565b81015f81520301902060408201518155606082015160018201556080820151600282015560a08201516003820155610100820151805190600160401b821161082b5760048301548260048501558083106113d0575b5060200190600483015f5260205f20915f905b8282106112c35750505050600501805460ff8116156112b3575b50507f31344930ea150241e9734be108a301e6dff82664e95d744e8d7ab6885674532a602082015160408301516112ae60608501519260808601519561128061010060a083015192015192602060405192828480945193849201611f65565b810103902096604051958695865260208601526040850152606084015260a0608084015260a08301906120f6565b0390a2005b60ff191660011790558180611221565b80518051906001600160401b03821161082b576112e08654611e4f565b601f81116113a0575b50602090601f83116001146113345792826001949360209386955f92611329575b50505f19600383901b1c191690841b1787555b01940191019092611207565b015190508b8061130a565b90865f5260205f20915f5b601f1985168110611388575083602093600196938796938794601f19811610611370575b505050811b01875561131d565b01515f1960f88460031b161c191690558b8080611363565b9192602060018192868501518155019401920161133f565b6113ca90875f5260205f20601f850160051c8101916020861061082157601f0160051c0190612151565b886112e9565b600484015f5260205f20908382015b81830181106113ef5750506111f4565b806113fc60019254611e4f565b80611409575b50016113df565b601f8111831461141e57505f81555b88611402565b5f9082825261143b601f60208420920160051c8201858301612151565b81835555611418565b80518051906001600160401b03821161082b576114618654611e4f565b601f8111611521575b50602090601f83116001146114b55792826001949360209386955f926114aa575b50505f19600383901b1c191690841b1787555b01940191019092611178565b015190508a8061148b565b90865f5260205f20915f5b601f1985168110611509575083602093600196938796938794601f198116106114f1575b505050811b01875561149e565b01515f1960f88460031b161c191690558a80806114e4565b919260206001819286850151815501940192016114c0565b61154b90875f5260205f20601f850160051c8101916020861061082157601f0160051c0190612151565b8761146a565b600784015f5260205f20908382015b8183018110611570575050611165565b8061157d60019254611e4f565b8061158a575b5001611560565b601f8111831461159f57505f81555b88611583565b5f908282526115bc601f60208420920160051c8201858301612151565b81835555611599565b0151905084806110c6565b600183015f5260205f20905f5b601f19841681106116225750600193949583601f1981161061160a575b505050811b0160018201556110dd565b01515f1960f88460031b161c191690558480806115fa565b9091602060018192858a0151815501930191016115dd565b61166790600184015f5260205f20601f840160051c8101916020851061082157601f0160051c0190612151565b846110ad565b60248101355f526001602052602460405f2091611692600760405194610fdf86611e87565b610100840152600160c08401525f60e084015201355f52600160205260405f2060018060a01b0382511660018060a01b031982541617815560208201518051906001600160401b03821161082b576116ed6001840154611e4f565b601f81116119c0575b50602090601f831160011461194e57918061010094926007945f92611943575b50508160011b915f199060031b1c19161760018201555b60408401516002820155606084015160038201556080840151600482015560a084015160058201556006810161177560c08601511515829060ff801983541691151516179055565b60e0850151151561ff0082549160081b169061ff00191617905501910151805190600160401b821161082b5782548284558083106118d3575b50602001915f5260205f20915f905b8282106117c657005b80518051906001600160401b03821161082b576117e38654611e4f565b601f81116118a3575b50602090601f83116001146118375792826001949360209386955f9261182c575b50505f19600383901b1c191690841b1787555b019401910190926117bd565b01519050898061180d565b90865f5260205f20915f5b601f198516811061188b575083602093600196938796938794601f19811610611873575b505050811b018755611820565b01515f1960f88460031b161c19169055898080611866565b91926020600181928685015181550194019201611842565b6118cd90875f5260205f20601f850160051c8101916020861061082157601f0160051c0190612151565b866117ec565b835f528260205f2091820191015b8181106118ee57506117ae565b806118fb60019254611e4f565b80611908575b50016118e1565b601f8111831461191d57505f81555b86611901565b5f9082825261193a601f60208420920160051c8201858301612151565b81835555611917565b015190508680611716565b90600184015f5260205f20915f5b601f19851681106119a8575092610100949260019260079583601f19811610611990575b505050811b01600182015561172d565b01515f1960f88460031b161c19169055868080611980565b9192602060018192868501518155019401920161195c565b6119ed90600185015f5260205f20601f850160051c8101916020861061082157601f0160051c0190612151565b846116f6565b9150506040813d604011611a33575b81611a0f60409383611ea3565b8101031261013e57611a2c6020611a25836121f0565b92016121f0565b9083610fad565b3d9150611a02565b3461013e575f36600319011261013e576007546040516001600160a01b039091168152602090f35b3461013e5760031960403682011261013e576001600160401b039060043582811161013e576101008160040192823603011261013e5760243583811161013e573660238201121561013e57611ac2903690602481600401359101611fc6565b5060c45f910191611ad383826121bb565b93909315611b9257611ae4916121bb565b60011015611b9257602001359160018060a01b0390818060095416913516149081611b7a575b5080611b60575b611b58575b6040519160208301526020825260408201928284109084111761082b57826040521515825260406060820152603f1990611b536080820182611f86565b030190f35b506001611b16565b50815f52600160205260ff600660405f2001541615611b11565b9050825f52600160205260405f205416151584611b0a565b634e487b7160e01b5f52603260045260245ffd5b3461013e57602036600319011261013e576004356001600160401b03811161013e576003611bde60206101c381943690600401611ffc565b81015f8152030190200154604051908152f35b3461013e5760208060031936011261013e57600435906001600160401b03821161013e57611c256060923690600401611ffc565b90604051916002611c8083835195818181870198611c4481838c611f65565b81015f8152030190205495600160405183818851611c63818388611f65565b81015f815203019020015494604051938492839251928391611f65565b81015f8152030190200154916040519384528301526040820152f35b3461013e57602036600319011261013e576004356001600160401b03811161013e57611cd360206101c360a0933690600401611ffc565b81015f815203019020805490600181015490600281015460ff60056003840154930154169260405194855260208501526040840152606083015215156080820152f35b3461013e57602036600319011261013e576004356001600160401b03811161013e5760ff6005611d5060206101c381953690600401611ffc565b81015f8152030190200154166040519015158152f35b3461013e57602036600319011261013e576004355f52600160205260405f2060018060a01b03815416611d9b60018301611ec4565b9160ff60028201549160038101549060048101546006600583015492015492611dd660405198899889526101008060208b0152890190611f86565b9560408801526060870152608086015260a0850152818116151560c085015260081c16151560e08301520390f35b3461013e575f36600319011261013e576020600654604051908152f35b3461013e57602036600319011261013e57611e4760018060a01b036002541633146121fd565b600480359055005b90600182811c92168015611e7d575b6020831014611e6957565b634e487b7160e01b5f52602260045260245ffd5b91607f1691611e5e565b61012081019081106001600160401b0382111761082b57604052565b90601f801991011681019081106001600160401b0382111761082b57604052565b9060405191825f825492611ed784611e4f565b9081845260019485811690815f14611f425750600114611f02575b5050611f0092500383611ea3565b565b909391505f52602090815f20935f915b818310611f2a575050611f0093508201015f80611ef2565b85548884018501529485019487945091830191611f12565b915050611f0094506020925060ff191682840152151560051b8201015f80611ef2565b5f5b838110611f765750505f910152565b8181015183820152602001611f67565b90602091611f9f81518092818552858086019101611f65565b601f01601f1916010190565b6001600160401b03811161082b57601f01601f191660200190565b929192611fd282611fab565b91611fe06040519384611ea3565b82948184528183011161013e578281602093845f960137010152565b9080601f8301121561013e5781602061201793359101611fc6565b90565b6001600160401b03811161082b5760051b60200190565b9060c060031983011261013e576001600160401b0360043581811161013e578361205d91600401611ffc565b92602480359360443593606435936084359360a4359280841161013e578260238501121561013e5783600401356120938161201a565b946120a16040519687611ea3565b818652602094848688019360051b8301019481861161013e57808301935b8685106120d157505050505050505090565b843586811161013e5788916120eb85858594890101611ffc565b8152019401936120bf565b908082519081815260208091019281808460051b8301019501935f915b8483106121235750505050505090565b9091929394958480612141600193601f198682030187528a51611f86565b9801930193019194939290612113565b81811061215c575050565b5f8155600101612151565b9081546121738161201a565b926121816040519485611ea3565b8184525f90815260208082208186015b84841061219f575050505050565b60018381926121ad85611ec4565b815201920193019290612191565b903590601e198136030182121561013e57018035906001600160401b03821161013e57602001918160051b3603831361013e57565b5190811515820361013e57565b1561220457565b60405162461bcd60e51b81526020600482015260166024820152752737ba103a34329031b7b73a3930b1ba1037bbb732b960511b6044820152606490fdfea26469706673582212206705c17d7934340c138201c19ee80669b5a65d28b4ca23fc224db559e42226eb64736f6c63430008140033","opcodes":"PUSH1 0x80 CALLVALUE PUSH2 0xDE JUMPI PUSH1 0x1F PUSH3 0x236F CODESIZE DUP2 SWAP1 SUB SWAP2 DUP3 ADD PUSH1 0x1F NOT AND DUP4 ADD SWAP2 PUSH1 0x1 PUSH1 0x1 PUSH1 0x40 SHL SUB DUP4 GT DUP5 DUP5 LT OR PUSH2 0xE2 JUMPI DUP1 DUP5 SWAP3 PUSH1 0x80 SWAP5 PUSH1 0x40 MSTORE DUP4 CODECOPY DUP2 ADD SUB SLT PUSH2 0xDE JUMPI DUP1 MLOAD PUSH1 0x20 DUP3 ADD MLOAD SWAP1 SWAP2 SWAP1 PUSH1 0x1 PUSH1 0x1 PUSH1 0xA0 SHL SUB SWAP1 DUP2 DUP2 AND SWAP1 DUP2 SWAP1 SUB PUSH2 0xDE JUMPI PUSH1 0x60 PUSH1 0x40 DUP5 ADD MLOAD SWAP4 ADD MLOAD SWAP2 DUP3 AND DUP1 SWAP3 SUB PUSH2 0xDE JUMPI PUSH1 0x1 DUP1 PUSH1 0xA0 SHL SUB NOT SWAP1 ADDRESS DUP3 PUSH1 0x9 SLOAD AND OR PUSH1 0x9 SSTORE CALLER DUP3 PUSH1 0x2 SLOAD AND OR PUSH1 0x2 SSTORE DUP2 PUSH1 0x8 SLOAD AND OR PUSH1 0x8 SSTORE PUSH1 0x7 SLOAD AND OR PUSH1 0x7 SSTORE DUP2 PUSH1 0x3 SSTORE DUP1 PUSH1 0x5 SSTORE DUP2 ADD DUP1 SWAP2 GT PUSH2 0xCA JUMPI PUSH1 0x6 SSTORE PUSH3 0x786450 PUSH1 0x4 SSTORE PUSH1 0x40 MLOAD PUSH2 0x2278 SWAP1 DUP2 PUSH3 0xF7 DUP3 CODECOPY RETURN JUMPDEST PUSH4 0x4E487B71 PUSH1 0xE0 SHL PUSH0 MSTORE PUSH1 0x11 PUSH1 0x4 MSTORE PUSH1 0x24 PUSH0 REVERT JUMPDEST PUSH0 DUP1 REVERT JUMPDEST PUSH4 0x4E487B71 PUSH1 0xE0 SHL PUSH0 MSTORE PUSH1 0x41 PUSH1 0x4 MSTORE PUSH1 0x24 PUSH0 REVERT INVALID PUSH1 0x80 PUSH1 0x40 MSTORE PUSH1 0x4 CALLDATASIZE LT ISZERO PUSH2 0x11 JUMPI PUSH0 DUP1 REVERT JUMPDEST PUSH0 CALLDATALOAD PUSH1 0xE0 SHR DUP1 PUSH4 0x13A292EE EQ PUSH2 0x1E21 JUMPI DUP1 PUSH4 0x1DF4CCFC EQ PUSH2 0x1E04 JUMPI DUP1 PUSH4 0x1E6A2488 EQ PUSH2 0x1D66 JUMPI DUP1 PUSH4 0x24C9DB2F EQ PUSH2 0x1D16 JUMPI DUP1 PUSH4 0x2627BC1E EQ PUSH2 0x1C9C JUMPI DUP1 PUSH4 0x26917989 EQ PUSH2 0x1BF1 JUMPI DUP1 PUSH4 0x3BEBE051 EQ PUSH2 0x1BA6 JUMPI DUP1 PUSH4 0x40691DB4 EQ PUSH2 0x1A63 JUMPI DUP1 PUSH4 0x41275358 EQ PUSH2 0x1A3B JUMPI DUP1 PUSH4 0x4585E33B EQ PUSH2 0xEF7 JUMPI DUP1 PUSH4 0x4E2413E8 EQ PUSH2 0xB5E JUMPI DUP1 PUSH4 0x5CED058E EQ PUSH2 0xB37 JUMPI DUP1 PUSH4 0x69FE0E2D EQ PUSH2 0xB09 JUMPI DUP1 PUSH4 0x8003822E EQ PUSH2 0xABD JUMPI DUP1 PUSH4 0x8705FCD4 EQ PUSH2 0xA71 JUMPI DUP1 PUSH4 0x8961BE6B EQ PUSH2 0xA54 JUMPI DUP1 PUSH4 0xA804535D EQ PUSH2 0x40C JUMPI DUP1 PUSH4 0xABB7D06C EQ PUSH2 0x2D0 JUMPI DUP1 PUSH4 0xD1DDA68F EQ PUSH2 0x21A JUMPI DUP1 PUSH4 0xD2AA789F EQ PUSH2 0x1FD JUMPI DUP1 PUSH4 0xDCF86200 EQ PUSH2 0x187 JUMPI DUP1 PUSH4 0xDDCA3F43 EQ PUSH2 0x16A JUMPI DUP1 PUSH4 0xF0642315 EQ PUSH2 0x142 JUMPI PUSH4 0xF6EEDA9D EQ PUSH2 0x121 JUMPI PUSH0 DUP1 REVERT JUMPDEST CALLVALUE PUSH2 0x13E JUMPI PUSH0 CALLDATASIZE PUSH1 0x3 NOT ADD SLT PUSH2 0x13E JUMPI PUSH1 0x20 PUSH1 0x4 SLOAD PUSH1 0x40 MLOAD SWAP1 DUP2 MSTORE RETURN JUMPDEST PUSH0 DUP1 REVERT JUMPDEST CALLVALUE PUSH2 0x13E JUMPI PUSH0 CALLDATASIZE PUSH1 0x3 NOT ADD SLT PUSH2 0x13E JUMPI PUSH1 0x8 SLOAD PUSH1 0x40 MLOAD PUSH1 0x1 PUSH1 0x1 PUSH1 0xA0 SHL SUB SWAP1 SWAP2 AND DUP2 MSTORE PUSH1 0x20 SWAP1 RETURN JUMPDEST CALLVALUE PUSH2 0x13E JUMPI PUSH0 CALLDATASIZE PUSH1 0x3 NOT ADD SLT PUSH2 0x13E JUMPI PUSH1 0x20 PUSH1 0x3 SLOAD PUSH1 0x40 MLOAD SWAP1 DUP2 MSTORE RETURN JUMPDEST CALLVALUE PUSH2 0x13E JUMPI PUSH1 0x20 CALLDATASIZE PUSH1 0x3 NOT ADD SLT PUSH2 0x13E JUMPI PUSH1 0x4 CALLDATALOAD PUSH1 0x1 PUSH1 0x1 PUSH1 0x40 SHL SUB DUP2 GT PUSH2 0x13E JUMPI PUSH2 0x1E5 PUSH1 0x4 PUSH2 0x1D6 PUSH1 0x20 PUSH2 0x1C3 PUSH2 0x1F9 SWAP6 CALLDATASIZE SWAP1 DUP6 ADD PUSH2 0x1FFC JUMP JUMPDEST DUP2 PUSH1 0x40 MLOAD SWAP4 DUP3 DUP6 DUP1 SWAP5 MLOAD SWAP4 DUP5 SWAP3 ADD PUSH2 0x1F65 JUMP JUMPDEST DUP2 ADD PUSH0 DUP2 MSTORE SUB ADD SWAP1 KECCAK256 ADD PUSH2 0x2167 JUMP JUMPDEST PUSH1 0x40 MLOAD SWAP2 DUP3 SWAP2 PUSH1 0x20 DUP4 MSTORE PUSH1 0x20 DUP4 ADD SWAP1 PUSH2 0x20F6 JUMP JUMPDEST SUB SWAP1 RETURN JUMPDEST CALLVALUE PUSH2 0x13E JUMPI PUSH0 CALLDATASIZE PUSH1 0x3 NOT ADD SLT PUSH2 0x13E JUMPI PUSH1 0x20 PUSH1 0xA SLOAD PUSH1 0x40 MLOAD SWAP1 DUP2 MSTORE RETURN JUMPDEST CALLVALUE PUSH2 0x13E JUMPI PUSH0 CALLDATASIZE PUSH1 0x3 NOT ADD SLT PUSH2 0x13E JUMPI PUSH1 0x4 PUSH1 0x20 PUSH1 0x1 DUP1 PUSH1 0xA0 SHL SUB PUSH2 0x244 DUP2 PUSH1 0x2 SLOAD AND CALLER EQ PUSH2 0x21FD JUMP JUMPDEST PUSH1 0x8 SLOAD AND PUSH1 0x40 MLOAD SWAP3 DUP4 DUP1 SWAP3 PUSH4 0xCED72F87 PUSH1 0xE0 SHL DUP3 MSTORE GAS STATICCALL SWAP1 DUP2 ISZERO PUSH2 0x2C5 JUMPI PUSH0 SWAP2 PUSH2 0x294 JUMPI JUMPDEST POP DUP1 PUSH1 0x5 SSTORE PUSH1 0x3 SLOAD SWAP1 DUP2 ADD DUP1 SWAP2 GT PUSH2 0x280 JUMPI PUSH1 0x6 SSTORE STOP JUMPDEST PUSH4 0x4E487B71 PUSH1 0xE0 SHL PUSH0 MSTORE PUSH1 0x11 PUSH1 0x4 MSTORE PUSH1 0x24 PUSH0 REVERT JUMPDEST SWAP1 POP PUSH1 0x20 DUP2 RETURNDATASIZE DUP3 GT PUSH2 0x2BD JUMPI JUMPDEST DUP2 PUSH2 0x2AE PUSH1 0x20 SWAP4 DUP4 PUSH2 0x1EA3 JUMP JUMPDEST DUP2 ADD SUB SLT PUSH2 0x13E JUMPI MLOAD DUP2 PUSH2 0x269 JUMP JUMPDEST RETURNDATASIZE SWAP2 POP PUSH2 0x2A1 JUMP JUMPDEST PUSH1 0x40 MLOAD RETURNDATASIZE PUSH0 DUP3 RETURNDATACOPY RETURNDATASIZE SWAP1 REVERT JUMPDEST CALLVALUE PUSH2 0x13E JUMPI PUSH1 0x20 DUP1 PUSH1 0x3 NOT CALLDATASIZE ADD SLT PUSH2 0x13E JUMPI PUSH1 0x4 CALLDATALOAD PUSH1 0x1 PUSH1 0x1 PUSH1 0x40 SHL SUB DUP2 GT PUSH2 0x13E JUMPI PUSH2 0x301 SWAP1 CALLDATASIZE SWAP1 PUSH1 0x4 ADD PUSH2 0x1FFC JUMP JUMPDEST PUSH1 0x40 MLOAD SWAP1 PUSH2 0x400 DUP2 MLOAD SWAP3 DUP5 DUP2 DUP2 DUP6 ADD SWAP6 PUSH2 0x31C DUP2 DUP4 DUP10 PUSH2 0x1F65 JUMP JUMPDEST DUP2 ADD PUSH0 DUP2 MSTORE SUB ADD SWAP1 KECCAK256 SLOAD SWAP3 PUSH1 0x1 PUSH1 0x40 MLOAD DUP7 DUP2 DUP7 MLOAD PUSH2 0x33B DUP2 DUP4 DUP9 PUSH2 0x1F65 JUMP JUMPDEST DUP2 ADD PUSH0 DUP2 MSTORE SUB ADD SWAP1 KECCAK256 ADD SLOAD SWAP1 PUSH1 0x2 PUSH1 0x40 MLOAD DUP8 DUP2 DUP8 MLOAD PUSH2 0x35B DUP2 DUP4 DUP9 PUSH2 0x1F65 JUMP JUMPDEST DUP2 ADD PUSH0 DUP2 MSTORE SUB ADD SWAP1 KECCAK256 ADD SLOAD PUSH2 0x3D9 PUSH1 0xFF PUSH1 0x5 PUSH2 0x3C7 DUP11 PUSH1 0x3 PUSH2 0x38A DUP3 DUP10 DUP14 PUSH1 0x40 MLOAD SWAP4 DUP5 SWAP3 DUP4 SWAP3 MLOAD SWAP3 DUP4 SWAP2 PUSH2 0x1F65 JUMP JUMPDEST DUP2 ADD PUSH0 DUP2 MSTORE SUB ADD SWAP1 KECCAK256 ADD SLOAD SWAP7 PUSH1 0x4 DUP12 DUP4 PUSH1 0x40 MLOAD DUP1 SWAP3 MLOAD PUSH2 0x3AB DUP2 DUP4 DUP9 PUSH2 0x1F65 JUMP JUMPDEST DUP2 ADD PUSH0 DUP2 MSTORE SUB ADD SWAP1 KECCAK256 ADD SWAP11 PUSH1 0x40 MLOAD SWAP4 DUP5 SWAP3 DUP4 SWAP3 MLOAD SWAP3 DUP4 SWAP2 PUSH2 0x1F65 JUMP JUMPDEST DUP2 ADD PUSH0 DUP2 MSTORE SUB ADD SWAP1 KECCAK256 ADD SLOAD AND SWAP6 PUSH2 0x2167 JUMP JUMPDEST SWAP3 PUSH1 0x40 MLOAD SWAP8 DUP9 SWAP8 DUP9 MSTORE DUP8 ADD MSTORE PUSH1 0x40 DUP7 ADD MSTORE PUSH1 0x60 DUP6 ADD MSTORE PUSH1 0xC0 PUSH1 0x80 DUP6 ADD MSTORE PUSH1 0xC0 DUP5 ADD SWAP1 PUSH2 0x20F6 JUMP JUMPDEST SWAP1 ISZERO ISZERO PUSH1 0xA0 DUP4 ADD MSTORE SUB SWAP1 RETURN JUMPDEST PUSH2 0x415 CALLDATASIZE PUSH2 0x2031 JUMP JUMPDEST SWAP4 DUP2 SWAP6 SWAP3 SWAP4 SWAP2 SWAP6 PUSH1 0x6 SLOAD CALLVALUE SUB PUSH2 0xA1A JUMPI PUSH1 0x1 DUP1 PUSH1 0xA0 SHL SUB PUSH1 0x8 SLOAD AND SWAP6 PUSH1 0x20 PUSH1 0x5 SLOAD PUSH1 0x40 MLOAD SWAP9 DUP10 DUP1 SWAP3 PUSH4 0xB07BCBC5 PUSH1 0xE0 SHL DUP3 MSTORE PUSH1 0x40 PUSH1 0x4 DUP4 ADD MSTORE DUP2 PUSH2 0x45C PUSH1 0x44 DUP3 ADD DUP13 PUSH2 0x1F86 JUMP JUMPDEST ADDRESS PUSH1 0x24 DUP4 ADD MSTORE SUB SWAP3 GAS CALL SWAP7 DUP8 ISZERO PUSH2 0x2C5 JUMPI PUSH0 SWAP8 PUSH2 0x9E6 JUMPI JUMPDEST POP DUP7 ISZERO PUSH2 0x9AA JUMPI PUSH2 0x4CE SWAP8 DUP8 SWAP7 PUSH32 0xC3C31A458B47A6DF81FA50913E5E50A8D7903A95B235B5AA6B16FD81C7B05E17 SWAP7 PUSH2 0x592 SWAP5 PUSH1 0x4 SLOAD DUP1 SWAP2 GT PUSH2 0x9A2 JUMPI JUMPDEST POP DUP9 PUSH0 MSTORE PUSH1 0x1 PUSH1 0x20 MSTORE PUSH2 0x53C PUSH1 0x7 PUSH1 0x40 PUSH0 KECCAK256 PUSH1 0x40 MLOAD SWAP14 DUP15 PUSH2 0x1E87 JUMP JUMPDEST DUP1 SLOAD PUSH1 0x1 PUSH1 0x1 PUSH1 0xA0 SHL SUB AND DUP15 MSTORE DUP14 PUSH1 0x20 PUSH2 0x4EA PUSH1 0x1 DUP5 ADD PUSH2 0x1EC4 JUMP JUMPDEST SWAP2 ADD MSTORE DUP14 PUSH1 0x40 PUSH1 0x2 DUP4 ADD SLOAD SWAP2 ADD MSTORE DUP14 PUSH1 0x60 PUSH1 0x3 DUP4 ADD SLOAD SWAP2 ADD MSTORE DUP14 PUSH1 0x80 PUSH1 0x4 DUP4 ADD SLOAD SWAP2 ADD MSTORE DUP14 PUSH1 0xA0 PUSH1 0x5 DUP4 ADD SLOAD SWAP2 ADD MSTORE DUP14 PUSH1 0xE0 PUSH1 0xFF PUSH1 0x6 DUP5 ADD SLOAD DUP2 DUP2 AND ISZERO ISZERO PUSH1 0xC0 DUP6 ADD MSTORE PUSH1 0x8 SHR AND ISZERO ISZERO SWAP2 ADD MSTORE ADD PUSH2 0x2167 JUMP JUMPDEST POP CALLER DUP12 MSTORE PUSH1 0x20 DUP12 ADD MSTORE DUP5 PUSH1 0x40 DUP12 ADD MSTORE DUP6 PUSH1 0x60 DUP12 ADD MSTORE DUP1 PUSH1 0x80 DUP12 ADD MSTORE DUP2 PUSH1 0xA0 DUP12 ADD MSTORE DUP3 PUSH2 0x100 DUP12 ADD MSTORE PUSH1 0x40 MLOAD SWAP6 DUP7 SWAP6 CALLER DUP8 MSTORE PUSH1 0x20 DUP8 ADD MSTORE PUSH1 0x40 DUP7 ADD MSTORE PUSH1 0x60 DUP6 ADD MSTORE PUSH1 0x80 DUP5 ADD MSTORE PUSH1 0xC0 PUSH1 0xA0 DUP5 ADD MSTORE PUSH1 0xC0 DUP4 ADD SWAP1 PUSH2 0x20F6 JUMP JUMPDEST SUB SWAP1 LOG2 PUSH1 0x7 SLOAD PUSH1 0x5 SLOAD CALLVALUE SWAP1 DUP2 SUB SWAP2 PUSH1 0x1 PUSH1 0x1 PUSH1 0xA0 SHL SUB AND SWAP1 DUP3 GT PUSH2 0x280 JUMPI PUSH0 DUP1 DUP1 SWAP4 DUP2 SWAP4 GAS CALL RETURNDATASIZE ISZERO PUSH2 0x99D JUMPI RETURNDATASIZE PUSH2 0x5C8 DUP2 PUSH2 0x1FAB JUMP JUMPDEST SWAP1 PUSH2 0x5D6 PUSH1 0x40 MLOAD SWAP3 DUP4 PUSH2 0x1EA3 JUMP JUMPDEST DUP2 MSTORE PUSH0 PUSH1 0x20 RETURNDATASIZE SWAP3 ADD RETURNDATACOPY JUMPDEST ISZERO PUSH2 0x961 JUMPI DUP1 PUSH0 MSTORE PUSH1 0x1 PUSH1 0x20 MSTORE PUSH1 0x40 PUSH0 KECCAK256 SWAP1 PUSH1 0x1 DUP1 PUSH1 0xA0 SHL SUB DUP4 MLOAD AND PUSH1 0x1 DUP1 PUSH1 0xA0 SHL SUB NOT DUP4 SLOAD AND OR DUP3 SSTORE PUSH1 0x20 DUP4 ADD MLOAD SWAP3 DUP4 MLOAD PUSH1 0x1 PUSH1 0x1 PUSH1 0x40 SHL SUB DUP2 GT PUSH2 0x82B JUMPI PUSH2 0x62D PUSH1 0x1 DUP6 ADD SLOAD PUSH2 0x1E4F JUMP JUMPDEST PUSH1 0x1F DUP2 GT PUSH2 0x92E JUMPI JUMPDEST POP PUSH1 0x20 PUSH1 0x1F DUP3 GT PUSH1 0x1 EQ PUSH2 0x8BE JUMPI DUP2 SWAP1 PUSH2 0x100 SWAP5 SWAP6 SWAP7 PUSH0 SWAP3 PUSH2 0x8B3 JUMPI JUMPDEST POP POP DUP2 PUSH1 0x1 SHL SWAP2 PUSH0 NOT SWAP1 PUSH1 0x3 SHL SHR NOT AND OR PUSH1 0x1 DUP6 ADD SSTORE JUMPDEST PUSH1 0x40 DUP2 ADD MLOAD PUSH1 0x2 DUP6 ADD SSTORE PUSH1 0x60 DUP2 ADD MLOAD PUSH1 0x3 DUP6 ADD SSTORE PUSH1 0x80 DUP2 ADD MLOAD PUSH1 0x4 DUP6 ADD SSTORE PUSH1 0xA0 DUP2 ADD MLOAD PUSH1 0x5 DUP6 ADD SSTORE PUSH1 0x6 DUP5 ADD PUSH2 0x6B2 PUSH1 0xC0 DUP4 ADD MLOAD ISZERO ISZERO DUP3 SWAP1 PUSH1 0xFF DUP1 NOT DUP4 SLOAD AND SWAP2 ISZERO ISZERO AND OR SWAP1 SSTORE JUMP JUMPDEST PUSH1 0xE0 DUP3 ADD MLOAD DUP2 SLOAD PUSH2 0xFF00 NOT AND SWAP1 ISZERO ISZERO PUSH1 0x8 SHL PUSH2 0xFF00 AND OR SWAP1 SSTORE ADD MLOAD DUP1 MLOAD SWAP1 PUSH1 0x1 PUSH1 0x40 SHL DUP3 GT PUSH2 0x82B JUMPI PUSH1 0x7 DUP5 ADD SLOAD DUP3 PUSH1 0x7 DUP7 ADD SSTORE DUP1 DUP4 LT PUSH2 0x83F JUMPI JUMPDEST POP PUSH1 0x20 PUSH1 0x7 SWAP2 ADD SWAP4 ADD PUSH0 MSTORE PUSH1 0x20 PUSH0 KECCAK256 SWAP3 PUSH0 SWAP1 JUMPDEST DUP3 DUP3 LT PUSH2 0x713 JUMPI PUSH1 0x20 DUP5 PUSH1 0x40 MLOAD SWAP1 DUP2 MSTORE RETURN JUMPDEST DUP1 MLOAD DUP1 MLOAD SWAP1 PUSH1 0x1 PUSH1 0x1 PUSH1 0x40 SHL SUB DUP3 GT PUSH2 0x82B JUMPI PUSH2 0x730 DUP8 SLOAD PUSH2 0x1E4F JUMP JUMPDEST PUSH1 0x1F DUP2 GT PUSH2 0x7F0 JUMPI JUMPDEST POP PUSH1 0x20 SWAP1 PUSH1 0x1F DUP4 GT PUSH1 0x1 EQ PUSH2 0x784 JUMPI SWAP3 DUP3 PUSH1 0x1 SWAP5 SWAP4 PUSH1 0x20 SWAP4 DUP7 SWAP6 PUSH0 SWAP3 PUSH2 0x779 JUMPI JUMPDEST POP POP PUSH0 NOT PUSH1 0x3 DUP4 SWAP1 SHL SHR NOT AND SWAP1 DUP5 SHL OR DUP9 SSTORE JUMPDEST ADD SWAP6 ADD SWAP2 ADD SWAP1 SWAP4 PUSH2 0x701 JUMP JUMPDEST ADD MLOAD SWAP1 POP DUP11 DUP1 PUSH2 0x75A JUMP JUMPDEST SWAP1 DUP8 PUSH0 MSTORE PUSH1 0x20 PUSH0 KECCAK256 SWAP2 PUSH0 JUMPDEST PUSH1 0x1F NOT DUP6 AND DUP2 LT PUSH2 0x7D8 JUMPI POP DUP4 PUSH1 0x20 SWAP4 PUSH1 0x1 SWAP7 SWAP4 DUP8 SWAP7 SWAP4 DUP8 SWAP5 PUSH1 0x1F NOT DUP2 AND LT PUSH2 0x7C0 JUMPI JUMPDEST POP POP POP DUP2 SHL ADD DUP9 SSTORE PUSH2 0x76D JUMP JUMPDEST ADD MLOAD PUSH0 NOT PUSH1 0xF8 DUP5 PUSH1 0x3 SHL AND SHR NOT AND SWAP1 SSTORE DUP11 DUP1 DUP1 PUSH2 0x7B3 JUMP JUMPDEST SWAP2 SWAP3 PUSH1 0x20 PUSH1 0x1 DUP2 SWAP3 DUP7 DUP6 ADD MLOAD DUP2 SSTORE ADD SWAP5 ADD SWAP3 ADD PUSH2 0x78F JUMP JUMPDEST PUSH2 0x81B SWAP1 DUP9 PUSH0 MSTORE PUSH1 0x20 PUSH0 KECCAK256 PUSH1 0x1F DUP6 ADD PUSH1 0x5 SHR DUP2 ADD SWAP2 PUSH1 0x20 DUP7 LT PUSH2 0x821 JUMPI JUMPDEST PUSH1 0x1F ADD PUSH1 0x5 SHR ADD SWAP1 PUSH2 0x2151 JUMP JUMPDEST DUP8 PUSH2 0x739 JUMP JUMPDEST SWAP1 SWAP2 POP DUP2 SWAP1 PUSH2 0x80E JUMP JUMPDEST PUSH4 0x4E487B71 PUSH1 0xE0 SHL PUSH0 MSTORE PUSH1 0x41 PUSH1 0x4 MSTORE PUSH1 0x24 PUSH0 REVERT JUMPDEST PUSH1 0x7 DUP6 ADD PUSH0 MSTORE PUSH1 0x20 PUSH0 KECCAK256 SWAP1 DUP4 DUP3 ADD JUMPDEST DUP2 DUP4 ADD DUP2 LT PUSH2 0x85E JUMPI POP POP PUSH2 0x6EE JUMP JUMPDEST DUP1 PUSH2 0x86B PUSH1 0x1 SWAP3 SLOAD PUSH2 0x1E4F JUMP JUMPDEST DUP1 PUSH2 0x878 JUMPI JUMPDEST POP ADD PUSH2 0x84E JUMP JUMPDEST PUSH1 0x1F DUP2 GT DUP4 EQ PUSH2 0x88D JUMPI POP PUSH0 DUP2 SSTORE JUMPDEST DUP9 PUSH2 0x871 JUMP JUMPDEST PUSH0 SWAP1 DUP3 DUP3 MSTORE PUSH2 0x8AA PUSH1 0x1F PUSH1 0x20 DUP5 KECCAK256 SWAP3 ADD PUSH1 0x5 SHR DUP3 ADD DUP6 DUP4 ADD PUSH2 0x2151 JUMP JUMPDEST DUP2 DUP4 SSTORE SSTORE PUSH2 0x887 JUMP JUMPDEST ADD MLOAD SWAP1 POP DUP7 DUP1 PUSH2 0x653 JUMP JUMPDEST PUSH1 0x1 DUP6 ADD PUSH0 MSTORE PUSH1 0x20 PUSH0 KECCAK256 SWAP6 PUSH0 JUMPDEST PUSH1 0x1F NOT DUP5 AND DUP2 LT PUSH2 0x916 JUMPI POP SWAP6 DUP3 SWAP2 PUSH2 0x100 SWAP6 SWAP7 SWAP8 PUSH1 0x1 SWAP5 PUSH1 0x1F NOT DUP2 AND LT PUSH2 0x8FE JUMPI JUMPDEST POP POP POP DUP2 SHL ADD PUSH1 0x1 DUP6 ADD SSTORE PUSH2 0x66A JUMP JUMPDEST ADD MLOAD PUSH0 NOT PUSH1 0xF8 DUP5 PUSH1 0x3 SHL AND SHR NOT AND SWAP1 SSTORE DUP7 DUP1 DUP1 PUSH2 0x8EE JUMP JUMPDEST DUP3 DUP3 ADD MLOAD DUP9 SSTORE PUSH1 0x1 SWAP1 SWAP8 ADD SWAP7 PUSH1 0x20 SWAP3 DUP4 ADD SWAP3 ADD PUSH2 0x8CB JUMP JUMPDEST PUSH2 0x95B SWAP1 PUSH1 0x1 DUP7 ADD PUSH0 MSTORE PUSH1 0x20 PUSH0 KECCAK256 PUSH1 0x1F DUP5 ADD PUSH1 0x5 SHR DUP2 ADD SWAP2 PUSH1 0x20 DUP6 LT PUSH2 0x821 JUMPI PUSH1 0x1F ADD PUSH1 0x5 SHR ADD SWAP1 PUSH2 0x2151 JUMP JUMPDEST DUP6 PUSH2 0x636 JUMP JUMPDEST PUSH1 0x40 MLOAD PUSH3 0x461BCD PUSH1 0xE5 SHL DUP2 MSTORE PUSH1 0x20 PUSH1 0x4 DUP3 ADD MSTORE PUSH1 0x14 PUSH1 0x24 DUP3 ADD MSTORE PUSH20 0x2330B4B632B2103A379039B2B7321022BA3432B9 PUSH1 0x61 SHL PUSH1 0x44 DUP3 ADD MSTORE PUSH1 0x64 SWAP1 REVERT JUMPDEST PUSH2 0x5E0 JUMP JUMPDEST SWAP3 POP DUP12 PUSH2 0x4B2 JUMP JUMPDEST PUSH1 0x40 MLOAD PUSH3 0x461BCD PUSH1 0xE5 SHL DUP2 MSTORE PUSH1 0x20 PUSH1 0x4 DUP3 ADD MSTORE PUSH1 0x14 PUSH1 0x24 DUP3 ADD MSTORE PUSH20 0x141C9BDC1BDCD85B081B9BDD0818DC99585D1959 PUSH1 0x62 SHL PUSH1 0x44 DUP3 ADD MSTORE PUSH1 0x64 SWAP1 REVERT JUMPDEST SWAP1 SWAP7 POP PUSH1 0x20 DUP2 RETURNDATASIZE PUSH1 0x20 GT PUSH2 0xA12 JUMPI JUMPDEST DUP2 PUSH2 0xA02 PUSH1 0x20 SWAP4 DUP4 PUSH2 0x1EA3 JUMP JUMPDEST DUP2 ADD SUB SLT PUSH2 0x13E JUMPI MLOAD SWAP6 DUP9 PUSH2 0x474 JUMP JUMPDEST RETURNDATASIZE SWAP2 POP PUSH2 0x9F5 JUMP JUMPDEST PUSH1 0x40 MLOAD PUSH3 0x461BCD PUSH1 0xE5 SHL DUP2 MSTORE PUSH1 0x20 PUSH1 0x4 DUP3 ADD MSTORE PUSH1 0x12 PUSH1 0x24 DUP3 ADD MSTORE PUSH18 0x119959481C1C9A58D9481B9BDD081CD95B9D PUSH1 0x72 SHL PUSH1 0x44 DUP3 ADD MSTORE PUSH1 0x64 SWAP1 REVERT JUMPDEST CALLVALUE PUSH2 0x13E JUMPI PUSH0 CALLDATASIZE PUSH1 0x3 NOT ADD SLT PUSH2 0x13E JUMPI PUSH1 0x20 PUSH1 0x5 SLOAD PUSH1 0x40 MLOAD SWAP1 DUP2 MSTORE RETURN JUMPDEST CALLVALUE PUSH2 0x13E JUMPI PUSH1 0x20 CALLDATASIZE PUSH1 0x3 NOT ADD SLT PUSH2 0x13E JUMPI PUSH1 0x4 CALLDATALOAD PUSH1 0x1 PUSH1 0x1 PUSH1 0xA0 SHL SUB DUP2 DUP2 AND SWAP2 DUP3 SWAP1 SUB PUSH2 0x13E JUMPI PUSH2 0xAA7 SWAP1 PUSH1 0x2 SLOAD AND CALLER EQ PUSH2 0x21FD JUMP JUMPDEST PUSH1 0x7 DUP1 SLOAD PUSH1 0x1 PUSH1 0x1 PUSH1 0xA0 SHL SUB NOT AND SWAP2 SWAP1 SWAP2 OR SWAP1 SSTORE STOP JUMPDEST CALLVALUE PUSH2 0x13E JUMPI PUSH1 0x20 CALLDATASIZE PUSH1 0x3 NOT ADD SLT PUSH2 0x13E JUMPI PUSH1 0x4 CALLDATALOAD PUSH1 0x1 PUSH1 0x1 PUSH1 0xA0 SHL SUB DUP2 DUP2 AND SWAP2 DUP3 SWAP1 SUB PUSH2 0x13E JUMPI PUSH2 0xAF3 SWAP1 PUSH1 0x2 SLOAD AND CALLER EQ PUSH2 0x21FD JUMP JUMPDEST PUSH1 0x8 DUP1 SLOAD PUSH1 0x1 PUSH1 0x1 PUSH1 0xA0 SHL SUB NOT AND SWAP2 SWAP1 SWAP2 OR SWAP1 SSTORE STOP JUMPDEST CALLVALUE PUSH2 0x13E JUMPI PUSH1 0x20 CALLDATASIZE PUSH1 0x3 NOT ADD SLT PUSH2 0x13E JUMPI PUSH2 0xB2F PUSH1 0x1 DUP1 PUSH1 0xA0 SHL SUB PUSH1 0x2 SLOAD AND CALLER EQ PUSH2 0x21FD JUMP JUMPDEST PUSH1 0x4 CALLDATALOAD PUSH1 0x3 SSTORE STOP JUMPDEST CALLVALUE PUSH2 0x13E JUMPI PUSH1 0x20 CALLDATASIZE PUSH1 0x3 NOT ADD SLT PUSH2 0x13E JUMPI PUSH1 0x40 MLOAD PUSH1 0x4 CALLDATALOAD PUSH1 0x1 PUSH1 0x1 PUSH1 0xA0 SHL SUB AND DUP2 MSTORE PUSH1 0x20 SWAP1 RETURN JUMPDEST CALLVALUE PUSH2 0x13E JUMPI PUSH2 0xB6C CALLDATASIZE PUSH2 0x2031 JUMP JUMPDEST SWAP5 SWAP3 SWAP1 DUP1 SWAP4 PUSH1 0x1 DUP1 PUSH1 0xA0 SHL SUB DUP1 PUSH1 0x8 SLOAD AND SWAP1 PUSH1 0x20 PUSH1 0x40 MLOAD DUP1 SWAP4 PUSH4 0xB3F6702D PUSH1 0xE0 SHL DUP3 MSTORE DUP3 PUSH1 0x4 DUP4 ADD MSTORE DUP2 DUP1 PUSH2 0xBA4 PUSH1 0x24 DUP3 ADD DUP10 PUSH2 0x1F86 JUMP JUMPDEST SUB SWAP2 GAS STATICCALL SWAP2 DUP3 ISZERO PUSH2 0x2C5 JUMPI PUSH0 SWAP3 PUSH2 0xEBA JUMPI JUMPDEST POP CALLER SWAP2 AND SUB PUSH2 0xE65 JUMPI PUSH1 0x40 MLOAD SWAP2 PUSH1 0xFF PUSH1 0x5 DUP4 MLOAD SWAP5 PUSH1 0x20 DUP2 DUP2 DUP8 ADD SWAP8 PUSH2 0xBDC DUP2 DUP4 DUP12 PUSH2 0x1F65 JUMP JUMPDEST DUP2 ADD PUSH0 DUP2 MSTORE SUB ADD SWAP1 KECCAK256 ADD SLOAD AND PUSH2 0xE0D JUMPI PUSH1 0x4 SLOAD DUP1 SWAP2 GT PUSH2 0xE03 JUMPI JUMPDEST POP PUSH2 0xC10 SWAP2 PUSH1 0x20 SWAP2 PUSH1 0x40 MLOAD SWAP4 DUP5 SWAP3 DUP4 SWAP3 MLOAD SWAP3 DUP4 SWAP2 PUSH2 0x1F65 JUMP JUMPDEST PUSH0 SWAP1 DUP3 ADD SWAP1 DUP2 MSTORE SUB ADD SWAP1 KECCAK256 SWAP4 DUP5 SSTORE PUSH1 0x1 DUP5 ADD SSTORE PUSH1 0x2 DUP4 ADD SSTORE PUSH1 0x3 DUP3 ADD SSTORE DUP2 MLOAD PUSH1 0x4 DUP3 ADD SWAP3 PUSH1 0x1 PUSH1 0x40 SHL DUP3 GT PUSH2 0x82B JUMPI DUP4 SLOAD DUP3 DUP6 SSTORE DUP1 DUP4 LT PUSH2 0xD92 JUMPI JUMPDEST POP PUSH1 0x20 ADD SWAP3 PUSH0 MSTORE PUSH1 0x20 PUSH0 KECCAK256 SWAP3 PUSH0 SWAP1 JUMPDEST DUP3 DUP3 LT PUSH2 0xC7C JUMPI PUSH1 0x5 DUP5 ADD PUSH1 0x1 PUSH1 0xFF NOT DUP3 SLOAD AND OR SWAP1 SSTORE PUSH1 0x20 PUSH1 0x40 MLOAD PUSH1 0x1 DUP2 MSTORE RETURN JUMPDEST DUP1 MLOAD DUP1 MLOAD SWAP1 PUSH1 0x1 PUSH1 0x1 PUSH1 0x40 SHL SUB DUP3 GT PUSH2 0x82B JUMPI PUSH2 0xC99 DUP8 SLOAD PUSH2 0x1E4F JUMP JUMPDEST SWAP1 PUSH1 0x1F SWAP2 DUP3 DUP2 GT PUSH2 0xD5A JUMPI JUMPDEST POP PUSH1 0x20 SWAP2 DUP4 GT PUSH1 0x1 EQ PUSH2 0xCEE JUMPI SWAP3 DUP3 PUSH1 0x1 SWAP5 SWAP4 PUSH1 0x20 SWAP4 DUP7 SWAP6 PUSH0 SWAP3 PUSH2 0xCE3 JUMPI JUMPDEST POP POP PUSH0 NOT PUSH1 0x3 DUP4 SWAP1 SHL SHR NOT AND SWAP1 DUP5 SHL OR DUP9 SSTORE JUMPDEST ADD SWAP6 ADD SWAP2 ADD SWAP1 SWAP4 PUSH2 0xC5B JUMP JUMPDEST ADD MLOAD SWAP1 POP DUP11 DUP1 PUSH2 0xCC4 JUMP JUMPDEST SWAP1 DUP8 PUSH0 MSTORE PUSH1 0x20 PUSH0 KECCAK256 SWAP2 PUSH0 JUMPDEST PUSH1 0x1F NOT DUP6 AND DUP2 LT PUSH2 0xD42 JUMPI POP DUP4 PUSH1 0x20 SWAP4 PUSH1 0x1 SWAP7 SWAP4 DUP8 SWAP7 SWAP4 DUP8 SWAP5 PUSH1 0x1F NOT DUP2 AND LT PUSH2 0xD2A JUMPI JUMPDEST POP POP POP DUP2 SHL ADD DUP9 SSTORE PUSH2 0xCD7 JUMP JUMPDEST ADD MLOAD PUSH0 NOT PUSH1 0xF8 DUP5 PUSH1 0x3 SHL AND SHR NOT AND SWAP1 SSTORE DUP11 DUP1 DUP1 PUSH2 0xD1D JUMP JUMPDEST SWAP2 SWAP3 PUSH1 0x20 PUSH1 0x1 DUP2 SWAP3 DUP7 DUP6 ADD MLOAD DUP2 SSTORE ADD SWAP5 ADD SWAP3 ADD PUSH2 0xCF9 JUMP JUMPDEST PUSH2 0xD83 SWAP1 DUP10 PUSH0 MSTORE PUSH1 0x20 PUSH0 KECCAK256 DUP5 DUP1 DUP8 ADD PUSH1 0x5 SHR DUP3 ADD SWAP3 PUSH1 0x20 DUP9 LT PUSH2 0xD89 JUMPI JUMPDEST ADD PUSH1 0x5 SHR ADD SWAP1 PUSH2 0x2151 JUMP JUMPDEST DUP9 PUSH2 0xCA5 JUMP JUMPDEST SWAP3 POP DUP2 SWAP3 PUSH2 0xD78 JUMP JUMPDEST DUP5 PUSH0 MSTORE DUP3 PUSH1 0x20 PUSH0 KECCAK256 SWAP2 DUP3 ADD SWAP2 ADD JUMPDEST DUP2 DUP2 LT PUSH2 0xDAD JUMPI POP PUSH2 0xC4C JUMP JUMPDEST DUP1 PUSH2 0xDBA PUSH1 0x1 SWAP3 SLOAD PUSH2 0x1E4F JUMP JUMPDEST DUP1 PUSH2 0xDC7 JUMPI JUMPDEST POP ADD PUSH2 0xDA0 JUMP JUMPDEST PUSH1 0x1F SWAP1 DUP2 DUP2 GT DUP5 EQ PUSH2 0xDDF JUMPI POP POP PUSH0 DUP2 SSTORE JUMPDEST DUP8 PUSH2 0xDC0 JUMP JUMPDEST PUSH2 0xDFA PUSH0 SWAP3 DUP5 DUP5 MSTORE PUSH1 0x20 DUP5 KECCAK256 SWAP3 ADD PUSH1 0x5 SHR DUP3 ADD DUP6 DUP4 ADD PUSH2 0x2151 JUMP JUMPDEST DUP2 DUP4 SSTORE SSTORE PUSH2 0xDD9 JUMP JUMPDEST SWAP5 POP PUSH2 0xC10 PUSH2 0xBF7 JUMP JUMPDEST PUSH1 0x40 MLOAD PUSH3 0x461BCD PUSH1 0xE5 SHL DUP2 MSTORE PUSH1 0x20 PUSH1 0x4 DUP3 ADD MSTORE PUSH1 0x2A PUSH1 0x24 DUP3 ADD MSTORE PUSH32 0x436F6D6D756E69747920436F6E73656E73757320506172616D65746572732061 PUSH1 0x44 DUP3 ADD MSTORE PUSH10 0x1B1C9958591E481CD95D PUSH1 0xB2 SHL PUSH1 0x64 DUP3 ADD MSTORE PUSH1 0x84 SWAP1 REVERT JUMPDEST PUSH1 0x40 MLOAD PUSH3 0x461BCD PUSH1 0xE5 SHL DUP2 MSTORE PUSH1 0x20 PUSH1 0x4 DUP3 ADD MSTORE PUSH1 0x27 PUSH1 0x24 DUP3 ADD MSTORE PUSH32 0x55736572206973206E6F7420746865206F776E6572206F66207468697320636F PUSH1 0x44 DUP3 ADD MSTORE PUSH7 0x6D6D756E697479 PUSH1 0xC8 SHL PUSH1 0x64 DUP3 ADD MSTORE PUSH1 0x84 SWAP1 REVERT JUMPDEST SWAP1 SWAP2 POP PUSH1 0x20 DUP2 RETURNDATASIZE PUSH1 0x20 GT PUSH2 0xEEF JUMPI JUMPDEST DUP2 PUSH2 0xED6 PUSH1 0x20 SWAP4 DUP4 PUSH2 0x1EA3 JUMP JUMPDEST DUP2 ADD SUB SLT PUSH2 0x13E JUMPI MLOAD DUP2 DUP2 AND DUP2 SUB PUSH2 0x13E JUMPI SWAP1 DUP10 PUSH2 0xBB6 JUMP JUMPDEST RETURNDATASIZE SWAP2 POP PUSH2 0xEC9 JUMP JUMPDEST CALLVALUE PUSH2 0x13E JUMPI PUSH1 0x20 CALLDATASIZE PUSH1 0x3 NOT ADD SLT PUSH2 0x13E JUMPI PUSH1 0x4 CALLDATALOAD PUSH1 0x1 PUSH1 0x1 PUSH1 0x40 SHL SUB DUP2 GT PUSH2 0x13E JUMPI CALLDATASIZE PUSH1 0x23 DUP3 ADD SLT ISZERO PUSH2 0x13E JUMPI DUP1 PUSH1 0x4 ADD CALLDATALOAD PUSH1 0x1 PUSH1 0x1 PUSH1 0x40 SHL SUB DUP2 GT PUSH2 0x13E JUMPI DUP2 ADD CALLDATASIZE PUSH1 0x24 DUP3 ADD GT PUSH2 0x13E JUMPI DUP2 PUSH1 0x20 SWAP2 SUB SLT PUSH2 0x13E JUMPI PUSH1 0x24 DUP2 ADD CALLDATALOAD PUSH0 SWAP1 DUP2 MSTORE PUSH1 0x1 PUSH1 0x20 MSTORE PUSH1 0x40 SWAP1 KECCAK256 SLOAD PUSH1 0x1 PUSH1 0x1 PUSH1 0xA0 SHL SUB AND PUSH2 0xF6F JUMPI STOP JUMPDEST PUSH1 0x8 SLOAD PUSH1 0x40 DUP1 MLOAD PUSH4 0xB7B9A01 PUSH1 0xE3 SHL DUP2 MSTORE PUSH1 0x24 DUP5 DUP2 ADD CALLDATALOAD PUSH1 0x4 DUP4 ADD MSTORE SWAP1 SWAP3 DUP4 SWAP2 SWAP1 DUP3 SWAP1 PUSH1 0x1 PUSH1 0x1 PUSH1 0xA0 SHL SUB AND GAS STATICCALL SWAP1 DUP2 ISZERO PUSH2 0x2C5 JUMPI PUSH0 SWAP1 PUSH0 SWAP3 PUSH2 0x19F3 JUMPI JUMPDEST POP ISZERO PUSH2 0xFB5 JUMPI STOP JUMPDEST ISZERO PUSH2 0x166D JUMPI PUSH1 0x24 DUP2 ADD CALLDATALOAD PUSH0 MSTORE PUSH1 0x1 PUSH1 0x20 MSTORE PUSH1 0x24 PUSH1 0x40 PUSH0 KECCAK256 SWAP2 PUSH2 0x1047 PUSH1 0x7 PUSH1 0x40 MLOAD SWAP5 PUSH2 0xFDF DUP7 PUSH2 0x1E87 JUMP JUMPDEST DUP1 SLOAD PUSH1 0x1 PUSH1 0x1 PUSH1 0xA0 SHL SUB AND DUP7 MSTORE PUSH2 0xFF8 PUSH1 0x1 DUP3 ADD PUSH2 0x1EC4 JUMP JUMPDEST PUSH1 0x20 DUP8 ADD MSTORE PUSH1 0x2 DUP2 ADD SLOAD PUSH1 0x40 DUP8 ADD MSTORE PUSH1 0x3 DUP2 ADD SLOAD PUSH1 0x60 DUP8 ADD MSTORE PUSH1 0x4 DUP2 ADD SLOAD PUSH1 0x80 DUP8 ADD MSTORE PUSH1 0x5 DUP2 ADD SLOAD PUSH1 0xA0 DUP8 ADD MSTORE PUSH1 0xFF PUSH1 0x6 DUP3 ADD SLOAD DUP2 DUP2 AND ISZERO ISZERO PUSH1 0xC0 DUP10 ADD MSTORE PUSH1 0x8 SHR AND ISZERO ISZERO PUSH1 0xE0 DUP8 ADD MSTORE ADD PUSH2 0x2167 JUMP JUMPDEST PUSH2 0x100 DUP5 ADD MSTORE PUSH1 0x1 PUSH1 0xC0 DUP5 ADD MSTORE PUSH1 0x1 PUSH1 0xE0 DUP5 ADD MSTORE ADD CALLDATALOAD PUSH0 MSTORE PUSH1 0x1 PUSH1 0x20 MSTORE PUSH1 0x40 PUSH0 KECCAK256 SWAP1 PUSH1 0x1 DUP1 PUSH1 0xA0 SHL SUB DUP2 MLOAD AND PUSH1 0x1 DUP1 PUSH1 0xA0 SHL SUB NOT DUP4 SLOAD AND OR DUP3 SSTORE PUSH1 0x20 DUP2 ADD MLOAD SWAP2 DUP3 MLOAD PUSH1 0x1 PUSH1 0x1 PUSH1 0x40 SHL SUB DUP2 GT PUSH2 0x82B JUMPI PUSH2 0x10A4 PUSH1 0x1 DUP4 ADD SLOAD PUSH2 0x1E4F JUMP JUMPDEST PUSH1 0x1F DUP2 GT PUSH2 0x163A JUMPI JUMPDEST POP PUSH1 0x20 PUSH1 0x1F DUP3 GT PUSH1 0x1 EQ PUSH2 0x15D0 JUMPI DUP2 SWAP3 SWAP4 SWAP5 PUSH0 SWAP3 PUSH2 0x15C5 JUMPI JUMPDEST POP POP DUP2 PUSH1 0x1 SHL SWAP2 PUSH0 NOT SWAP1 PUSH1 0x3 SHL SHR NOT AND OR PUSH1 0x1 DUP3 ADD SSTORE JUMPDEST PUSH1 0x40 DUP3 ADD MLOAD PUSH1 0x2 DUP3 ADD SSTORE PUSH1 0x60 DUP3 ADD MLOAD PUSH1 0x3 DUP3 ADD SSTORE PUSH1 0x80 DUP3 ADD MLOAD PUSH1 0x4 DUP3 ADD SSTORE PUSH1 0xA0 DUP3 ADD MLOAD PUSH1 0x5 DUP3 ADD SSTORE PUSH1 0x6 DUP2 ADD PUSH2 0x1125 PUSH1 0xC0 DUP5 ADD MLOAD ISZERO ISZERO DUP3 SWAP1 PUSH1 0xFF DUP1 NOT DUP4 SLOAD AND SWAP2 ISZERO ISZERO AND OR SWAP1 SSTORE JUMP JUMPDEST PUSH1 0xE0 DUP4 ADD MLOAD DUP2 SLOAD PUSH2 0xFF00 NOT AND SWAP1 ISZERO ISZERO PUSH1 0x8 SHL PUSH2 0xFF00 AND OR SWAP1 SSTORE PUSH2 0x100 DUP3 ADD MLOAD DUP1 MLOAD SWAP1 PUSH1 0x1 PUSH1 0x40 SHL DUP3 GT PUSH2 0x82B JUMPI PUSH1 0x7 DUP4 ADD SLOAD DUP3 PUSH1 0x7 DUP6 ADD SSTORE DUP1 DUP4 LT PUSH2 0x1551 JUMPI JUMPDEST POP PUSH1 0x20 PUSH1 0x7 SWAP2 ADD SWAP3 ADD PUSH0 MSTORE PUSH1 0x20 PUSH0 KECCAK256 SWAP2 PUSH0 SWAP1 JUMPDEST DUP3 DUP3 LT PUSH2 0x1444 JUMPI POP POP POP POP PUSH2 0x119F PUSH1 0x20 DUP1 DUP4 ADD MLOAD DUP2 PUSH1 0x40 MLOAD SWAP4 DUP3 DUP6 DUP1 SWAP5 MLOAD SWAP4 DUP5 SWAP3 ADD PUSH2 0x1F65 JUMP JUMPDEST DUP2 ADD PUSH0 DUP2 MSTORE SUB ADD SWAP1 KECCAK256 PUSH1 0x40 DUP3 ADD MLOAD DUP2 SSTORE PUSH1 0x60 DUP3 ADD MLOAD PUSH1 0x1 DUP3 ADD SSTORE PUSH1 0x80 DUP3 ADD MLOAD PUSH1 0x2 DUP3 ADD SSTORE PUSH1 0xA0 DUP3 ADD MLOAD PUSH1 0x3 DUP3 ADD SSTORE PUSH2 0x100 DUP3 ADD MLOAD DUP1 MLOAD SWAP1 PUSH1 0x1 PUSH1 0x40 SHL DUP3 GT PUSH2 0x82B JUMPI PUSH1 0x4 DUP4 ADD SLOAD DUP3 PUSH1 0x4 DUP6 ADD SSTORE DUP1 DUP4 LT PUSH2 0x13D0 JUMPI JUMPDEST POP PUSH1 0x20 ADD SWAP1 PUSH1 0x4 DUP4 ADD PUSH0 MSTORE PUSH1 0x20 PUSH0 KECCAK256 SWAP2 PUSH0 SWAP1 JUMPDEST DUP3 DUP3 LT PUSH2 0x12C3 JUMPI POP POP POP POP PUSH1 0x5 ADD DUP1 SLOAD PUSH1 0xFF DUP2 AND ISZERO PUSH2 0x12B3 JUMPI JUMPDEST POP POP PUSH32 0x31344930EA150241E9734BE108A301E6DFF82664E95D744E8D7AB6885674532A PUSH1 0x20 DUP3 ADD MLOAD PUSH1 0x40 DUP4 ADD MLOAD PUSH2 0x12AE PUSH1 0x60 DUP6 ADD MLOAD SWAP3 PUSH1 0x80 DUP7 ADD MLOAD SWAP6 PUSH2 0x1280 PUSH2 0x100 PUSH1 0xA0 DUP4 ADD MLOAD SWAP3 ADD MLOAD SWAP3 PUSH1 0x20 PUSH1 0x40 MLOAD SWAP3 DUP3 DUP5 DUP1 SWAP5 MLOAD SWAP4 DUP5 SWAP3 ADD PUSH2 0x1F65 JUMP JUMPDEST DUP2 ADD SUB SWAP1 KECCAK256 SWAP7 PUSH1 0x40 MLOAD SWAP6 DUP7 SWAP6 DUP7 MSTORE PUSH1 0x20 DUP7 ADD MSTORE PUSH1 0x40 DUP6 ADD MSTORE PUSH1 0x60 DUP5 ADD MSTORE PUSH1 0xA0 PUSH1 0x80 DUP5 ADD MSTORE PUSH1 0xA0 DUP4 ADD SWAP1 PUSH2 0x20F6 JUMP JUMPDEST SUB SWAP1 LOG2 STOP JUMPDEST PUSH1 0xFF NOT AND PUSH1 0x1 OR SWAP1 SSTORE DUP2 DUP1 PUSH2 0x1221 JUMP JUMPDEST DUP1 MLOAD DUP1 MLOAD SWAP1 PUSH1 0x1 PUSH1 0x1 PUSH1 0x40 SHL SUB DUP3 GT PUSH2 0x82B JUMPI PUSH2 0x12E0 DUP7 SLOAD PUSH2 0x1E4F JUMP JUMPDEST PUSH1 0x1F DUP2 GT PUSH2 0x13A0 JUMPI JUMPDEST POP PUSH1 0x20 SWAP1 PUSH1 0x1F DUP4 GT PUSH1 0x1 EQ PUSH2 0x1334 JUMPI SWAP3 DUP3 PUSH1 0x1 SWAP5 SWAP4 PUSH1 0x20 SWAP4 DUP7 SWAP6 PUSH0 SWAP3 PUSH2 0x1329 JUMPI JUMPDEST POP POP PUSH0 NOT PUSH1 0x3 DUP4 SWAP1 SHL SHR NOT AND SWAP1 DUP5 SHL OR DUP8 SSTORE JUMPDEST ADD SWAP5 ADD SWAP2 ADD SWAP1 SWAP3 PUSH2 0x1207 JUMP JUMPDEST ADD MLOAD SWAP1 POP DUP12 DUP1 PUSH2 0x130A JUMP JUMPDEST SWAP1 DUP7 PUSH0 MSTORE PUSH1 0x20 PUSH0 KECCAK256 SWAP2 PUSH0 JUMPDEST PUSH1 0x1F NOT DUP6 AND DUP2 LT PUSH2 0x1388 JUMPI POP DUP4 PUSH1 0x20 SWAP4 PUSH1 0x1 SWAP7 SWAP4 DUP8 SWAP7 SWAP4 DUP8 SWAP5 PUSH1 0x1F NOT DUP2 AND LT PUSH2 0x1370 JUMPI JUMPDEST POP POP POP DUP2 SHL ADD DUP8 SSTORE PUSH2 0x131D JUMP JUMPDEST ADD MLOAD PUSH0 NOT PUSH1 0xF8 DUP5 PUSH1 0x3 SHL AND SHR NOT AND SWAP1 SSTORE DUP12 DUP1 DUP1 PUSH2 0x1363 JUMP JUMPDEST SWAP2 SWAP3 PUSH1 0x20 PUSH1 0x1 DUP2 SWAP3 DUP7 DUP6 ADD MLOAD DUP2 SSTORE ADD SWAP5 ADD SWAP3 ADD PUSH2 0x133F JUMP JUMPDEST PUSH2 0x13CA SWAP1 DUP8 PUSH0 MSTORE PUSH1 0x20 PUSH0 KECCAK256 PUSH1 0x1F DUP6 ADD PUSH1 0x5 SHR DUP2 ADD SWAP2 PUSH1 0x20 DUP7 LT PUSH2 0x821 JUMPI PUSH1 0x1F ADD PUSH1 0x5 SHR ADD SWAP1 PUSH2 0x2151 JUMP JUMPDEST DUP9 PUSH2 0x12E9 JUMP JUMPDEST PUSH1 0x4 DUP5 ADD PUSH0 MSTORE PUSH1 0x20 PUSH0 KECCAK256 SWAP1 DUP4 DUP3 ADD JUMPDEST DUP2 DUP4 ADD DUP2 LT PUSH2 0x13EF JUMPI POP POP PUSH2 0x11F4 JUMP JUMPDEST DUP1 PUSH2 0x13FC PUSH1 0x1 SWAP3 SLOAD PUSH2 0x1E4F JUMP JUMPDEST DUP1 PUSH2 0x1409 JUMPI JUMPDEST POP ADD PUSH2 0x13DF JUMP JUMPDEST PUSH1 0x1F DUP2 GT DUP4 EQ PUSH2 0x141E JUMPI POP PUSH0 DUP2 SSTORE JUMPDEST DUP9 PUSH2 0x1402 JUMP JUMPDEST PUSH0 SWAP1 DUP3 DUP3 MSTORE PUSH2 0x143B PUSH1 0x1F PUSH1 0x20 DUP5 KECCAK256 SWAP3 ADD PUSH1 0x5 SHR DUP3 ADD DUP6 DUP4 ADD PUSH2 0x2151 JUMP JUMPDEST DUP2 DUP4 SSTORE SSTORE PUSH2 0x1418 JUMP JUMPDEST DUP1 MLOAD DUP1 MLOAD SWAP1 PUSH1 0x1 PUSH1 0x1 PUSH1 0x40 SHL SUB DUP3 GT PUSH2 0x82B JUMPI PUSH2 0x1461 DUP7 SLOAD PUSH2 0x1E4F JUMP JUMPDEST PUSH1 0x1F DUP2 GT PUSH2 0x1521 JUMPI JUMPDEST POP PUSH1 0x20 SWAP1 PUSH1 0x1F DUP4 GT PUSH1 0x1 EQ PUSH2 0x14B5 JUMPI SWAP3 DUP3 PUSH1 0x1 SWAP5 SWAP4 PUSH1 0x20 SWAP4 DUP7 SWAP6 PUSH0 SWAP3 PUSH2 0x14AA JUMPI JUMPDEST POP POP PUSH0 NOT PUSH1 0x3 DUP4 SWAP1 SHL SHR NOT AND SWAP1 DUP5 SHL OR DUP8 SSTORE JUMPDEST ADD SWAP5 ADD SWAP2 ADD SWAP1 SWAP3 PUSH2 0x1178 JUMP JUMPDEST ADD MLOAD SWAP1 POP DUP11 DUP1 PUSH2 0x148B JUMP JUMPDEST SWAP1 DUP7 PUSH0 MSTORE PUSH1 0x20 PUSH0 KECCAK256 SWAP2 PUSH0 JUMPDEST PUSH1 0x1F NOT DUP6 AND DUP2 LT PUSH2 0x1509 JUMPI POP DUP4 PUSH1 0x20 SWAP4 PUSH1 0x1 SWAP7 SWAP4 DUP8 SWAP7 SWAP4 DUP8 SWAP5 PUSH1 0x1F NOT DUP2 AND LT PUSH2 0x14F1 JUMPI JUMPDEST POP POP POP DUP2 SHL ADD DUP8 SSTORE PUSH2 0x149E JUMP JUMPDEST ADD MLOAD PUSH0 NOT PUSH1 0xF8 DUP5 PUSH1 0x3 SHL AND SHR NOT AND SWAP1 SSTORE DUP11 DUP1 DUP1 PUSH2 0x14E4 JUMP JUMPDEST SWAP2 SWAP3 PUSH1 0x20 PUSH1 0x1 DUP2 SWAP3 DUP7 DUP6 ADD MLOAD DUP2 SSTORE ADD SWAP5 ADD SWAP3 ADD PUSH2 0x14C0 JUMP JUMPDEST PUSH2 0x154B SWAP1 DUP8 PUSH0 MSTORE PUSH1 0x20 PUSH0 KECCAK256 PUSH1 0x1F DUP6 ADD PUSH1 0x5 SHR DUP2 ADD SWAP2 PUSH1 0x20 DUP7 LT PUSH2 0x821 JUMPI PUSH1 0x1F ADD PUSH1 0x5 SHR ADD SWAP1 PUSH2 0x2151 JUMP JUMPDEST DUP8 PUSH2 0x146A JUMP JUMPDEST PUSH1 0x7 DUP5 ADD PUSH0 MSTORE PUSH1 0x20 PUSH0 KECCAK256 SWAP1 DUP4 DUP3 ADD JUMPDEST DUP2 DUP4 ADD DUP2 LT PUSH2 0x1570 JUMPI POP POP PUSH2 0x1165 JUMP JUMPDEST DUP1 PUSH2 0x157D PUSH1 0x1 SWAP3 SLOAD PUSH2 0x1E4F JUMP JUMPDEST DUP1 PUSH2 0x158A JUMPI JUMPDEST POP ADD PUSH2 0x1560 JUMP JUMPDEST PUSH1 0x1F DUP2 GT DUP4 EQ PUSH2 0x159F JUMPI POP PUSH0 DUP2 SSTORE JUMPDEST DUP9 PUSH2 0x1583 JUMP JUMPDEST PUSH0 SWAP1 DUP3 DUP3 MSTORE PUSH2 0x15BC PUSH1 0x1F PUSH1 0x20 DUP5 KECCAK256 SWAP3 ADD PUSH1 0x5 SHR DUP3 ADD DUP6 DUP4 ADD PUSH2 0x2151 JUMP JUMPDEST DUP2 DUP4 SSTORE SSTORE PUSH2 0x1599 JUMP JUMPDEST ADD MLOAD SWAP1 POP DUP5 DUP1 PUSH2 0x10C6 JUMP JUMPDEST PUSH1 0x1 DUP4 ADD PUSH0 MSTORE PUSH1 0x20 PUSH0 KECCAK256 SWAP1 PUSH0 JUMPDEST PUSH1 0x1F NOT DUP5 AND DUP2 LT PUSH2 0x1622 JUMPI POP PUSH1 0x1 SWAP4 SWAP5 SWAP6 DUP4 PUSH1 0x1F NOT DUP2 AND LT PUSH2 0x160A JUMPI JUMPDEST POP POP POP DUP2 SHL ADD PUSH1 0x1 DUP3 ADD SSTORE PUSH2 0x10DD JUMP JUMPDEST ADD MLOAD PUSH0 NOT PUSH1 0xF8 DUP5 PUSH1 0x3 SHL AND SHR NOT AND SWAP1 SSTORE DUP5 DUP1 DUP1 PUSH2 0x15FA JUMP JUMPDEST SWAP1 SWAP2 PUSH1 0x20 PUSH1 0x1 DUP2 SWAP3 DUP6 DUP11 ADD MLOAD DUP2 SSTORE ADD SWAP4 ADD SWAP2 ADD PUSH2 0x15DD JUMP JUMPDEST PUSH2 0x1667 SWAP1 PUSH1 0x1 DUP5 ADD PUSH0 MSTORE PUSH1 0x20 PUSH0 KECCAK256 PUSH1 0x1F DUP5 ADD PUSH1 0x5 SHR DUP2 ADD SWAP2 PUSH1 0x20 DUP6 LT PUSH2 0x821 JUMPI PUSH1 0x1F ADD PUSH1 0x5 SHR ADD SWAP1 PUSH2 0x2151 JUMP JUMPDEST DUP5 PUSH2 0x10AD JUMP JUMPDEST PUSH1 0x24 DUP2 ADD CALLDATALOAD PUSH0 MSTORE PUSH1 0x1 PUSH1 0x20 MSTORE PUSH1 0x24 PUSH1 0x40 PUSH0 KECCAK256 SWAP2 PUSH2 0x1692 PUSH1 0x7 PUSH1 0x40 MLOAD SWAP5 PUSH2 0xFDF DUP7 PUSH2 0x1E87 JUMP JUMPDEST PUSH2 0x100 DUP5 ADD MSTORE PUSH1 0x1 PUSH1 0xC0 DUP5 ADD MSTORE PUSH0 PUSH1 0xE0 DUP5 ADD MSTORE ADD CALLDATALOAD PUSH0 MSTORE PUSH1 0x1 PUSH1 0x20 MSTORE PUSH1 0x40 PUSH0 KECCAK256 PUSH1 0x1 DUP1 PUSH1 0xA0 SHL SUB DUP3 MLOAD AND PUSH1 0x1 DUP1 PUSH1 0xA0 SHL SUB NOT DUP3 SLOAD AND OR DUP2 SSTORE PUSH1 0x20 DUP3 ADD MLOAD DUP1 MLOAD SWAP1 PUSH1 0x1 PUSH1 0x1 PUSH1 0x40 SHL SUB DUP3 GT PUSH2 0x82B JUMPI PUSH2 0x16ED PUSH1 0x1 DUP5 ADD SLOAD PUSH2 0x1E4F JUMP JUMPDEST PUSH1 0x1F DUP2 GT PUSH2 0x19C0 JUMPI JUMPDEST POP PUSH1 0x20 SWAP1 PUSH1 0x1F DUP4 GT PUSH1 0x1 EQ PUSH2 0x194E JUMPI SWAP2 DUP1 PUSH2 0x100 SWAP5 SWAP3 PUSH1 0x7 SWAP5 PUSH0 SWAP3 PUSH2 0x1943 JUMPI JUMPDEST POP POP DUP2 PUSH1 0x1 SHL SWAP2 PUSH0 NOT SWAP1 PUSH1 0x3 SHL SHR NOT AND OR PUSH1 0x1 DUP3 ADD SSTORE JUMPDEST PUSH1 0x40 DUP5 ADD MLOAD PUSH1 0x2 DUP3 ADD SSTORE PUSH1 0x60 DUP5 ADD MLOAD PUSH1 0x3 DUP3 ADD SSTORE PUSH1 0x80 DUP5 ADD MLOAD PUSH1 0x4 DUP3 ADD SSTORE PUSH1 0xA0 DUP5 ADD MLOAD PUSH1 0x5 DUP3 ADD SSTORE PUSH1 0x6 DUP2 ADD PUSH2 0x1775 PUSH1 0xC0 DUP7 ADD MLOAD ISZERO ISZERO DUP3 SWAP1 PUSH1 0xFF DUP1 NOT DUP4 SLOAD AND SWAP2 ISZERO ISZERO AND OR SWAP1 SSTORE JUMP JUMPDEST PUSH1 0xE0 DUP6 ADD MLOAD ISZERO ISZERO PUSH2 0xFF00 DUP3 SLOAD SWAP2 PUSH1 0x8 SHL AND SWAP1 PUSH2 0xFF00 NOT AND OR SWAP1 SSTORE ADD SWAP2 ADD MLOAD DUP1 MLOAD SWAP1 PUSH1 0x1 PUSH1 0x40 SHL DUP3 GT PUSH2 0x82B JUMPI DUP3 SLOAD DUP3 DUP5 SSTORE DUP1 DUP4 LT PUSH2 0x18D3 JUMPI JUMPDEST POP PUSH1 0x20 ADD SWAP2 PUSH0 MSTORE PUSH1 0x20 PUSH0 KECCAK256 SWAP2 PUSH0 SWAP1 JUMPDEST DUP3 DUP3 LT PUSH2 0x17C6 JUMPI STOP JUMPDEST DUP1 MLOAD DUP1 MLOAD SWAP1 PUSH1 0x1 PUSH1 0x1 PUSH1 0x40 SHL SUB DUP3 GT PUSH2 0x82B JUMPI PUSH2 0x17E3 DUP7 SLOAD PUSH2 0x1E4F JUMP JUMPDEST PUSH1 0x1F DUP2 GT PUSH2 0x18A3 JUMPI JUMPDEST POP PUSH1 0x20 SWAP1 PUSH1 0x1F DUP4 GT PUSH1 0x1 EQ PUSH2 0x1837 JUMPI SWAP3 DUP3 PUSH1 0x1 SWAP5 SWAP4 PUSH1 0x20 SWAP4 DUP7 SWAP6 PUSH0 SWAP3 PUSH2 0x182C JUMPI JUMPDEST POP POP PUSH0 NOT PUSH1 0x3 DUP4 SWAP1 SHL SHR NOT AND SWAP1 DUP5 SHL OR DUP8 SSTORE JUMPDEST ADD SWAP5 ADD SWAP2 ADD SWAP1 SWAP3 PUSH2 0x17BD JUMP JUMPDEST ADD MLOAD SWAP1 POP DUP10 DUP1 PUSH2 0x180D JUMP JUMPDEST SWAP1 DUP7 PUSH0 MSTORE PUSH1 0x20 PUSH0 KECCAK256 SWAP2 PUSH0 JUMPDEST PUSH1 0x1F NOT DUP6 AND DUP2 LT PUSH2 0x188B JUMPI POP DUP4 PUSH1 0x20 SWAP4 PUSH1 0x1 SWAP7 SWAP4 DUP8 SWAP7 SWAP4 DUP8 SWAP5 PUSH1 0x1F NOT DUP2 AND LT PUSH2 0x1873 JUMPI JUMPDEST POP POP POP DUP2 SHL ADD DUP8 SSTORE PUSH2 0x1820 JUMP JUMPDEST ADD MLOAD PUSH0 NOT PUSH1 0xF8 DUP5 PUSH1 0x3 SHL AND SHR NOT AND SWAP1 SSTORE DUP10 DUP1 DUP1 PUSH2 0x1866 JUMP JUMPDEST SWAP2 SWAP3 PUSH1 0x20 PUSH1 0x1 DUP2 SWAP3 DUP7 DUP6 ADD MLOAD DUP2 SSTORE ADD SWAP5 ADD SWAP3 ADD PUSH2 0x1842 JUMP JUMPDEST PUSH2 0x18CD SWAP1 DUP8 PUSH0 MSTORE PUSH1 0x20 PUSH0 KECCAK256 PUSH1 0x1F DUP6 ADD PUSH1 0x5 SHR DUP2 ADD SWAP2 PUSH1 0x20 DUP7 LT PUSH2 0x821 JUMPI PUSH1 0x1F ADD PUSH1 0x5 SHR ADD SWAP1 PUSH2 0x2151 JUMP JUMPDEST DUP7 PUSH2 0x17EC JUMP JUMPDEST DUP4 PUSH0 MSTORE DUP3 PUSH1 0x20 PUSH0 KECCAK256 SWAP2 DUP3 ADD SWAP2 ADD JUMPDEST DUP2 DUP2 LT PUSH2 0x18EE JUMPI POP PUSH2 0x17AE JUMP JUMPDEST DUP1 PUSH2 0x18FB PUSH1 0x1 SWAP3 SLOAD PUSH2 0x1E4F JUMP JUMPDEST DUP1 PUSH2 0x1908 JUMPI JUMPDEST POP ADD PUSH2 0x18E1 JUMP JUMPDEST PUSH1 0x1F DUP2 GT DUP4 EQ PUSH2 0x191D JUMPI POP PUSH0 DUP2 SSTORE JUMPDEST DUP7 PUSH2 0x1901 JUMP JUMPDEST PUSH0 SWAP1 DUP3 DUP3 MSTORE PUSH2 0x193A PUSH1 0x1F PUSH1 0x20 DUP5 KECCAK256 SWAP3 ADD PUSH1 0x5 SHR DUP3 ADD DUP6 DUP4 ADD PUSH2 0x2151 JUMP JUMPDEST DUP2 DUP4 SSTORE SSTORE PUSH2 0x1917 JUMP JUMPDEST ADD MLOAD SWAP1 POP DUP7 DUP1 PUSH2 0x1716 JUMP JUMPDEST SWAP1 PUSH1 0x1 DUP5 ADD PUSH0 MSTORE PUSH1 0x20 PUSH0 KECCAK256 SWAP2 PUSH0 JUMPDEST PUSH1 0x1F NOT DUP6 AND DUP2 LT PUSH2 0x19A8 JUMPI POP SWAP3 PUSH2 0x100 SWAP5 SWAP3 PUSH1 0x1 SWAP3 PUSH1 0x7 SWAP6 DUP4 PUSH1 0x1F NOT DUP2 AND LT PUSH2 0x1990 JUMPI JUMPDEST POP POP POP DUP2 SHL ADD PUSH1 0x1 DUP3 ADD SSTORE PUSH2 0x172D JUMP JUMPDEST ADD MLOAD PUSH0 NOT PUSH1 0xF8 DUP5 PUSH1 0x3 SHL AND SHR NOT AND SWAP1 SSTORE DUP7 DUP1 DUP1 PUSH2 0x1980 JUMP JUMPDEST SWAP2 SWAP3 PUSH1 0x20 PUSH1 0x1 DUP2 SWAP3 DUP7 DUP6 ADD MLOAD DUP2 SSTORE ADD SWAP5 ADD SWAP3 ADD PUSH2 0x195C JUMP JUMPDEST PUSH2 0x19ED SWAP1 PUSH1 0x1 DUP6 ADD PUSH0 MSTORE PUSH1 0x20 PUSH0 KECCAK256 PUSH1 0x1F DUP6 ADD PUSH1 0x5 SHR DUP2 ADD SWAP2 PUSH1 0x20 DUP7 LT PUSH2 0x821 JUMPI PUSH1 0x1F ADD PUSH1 0x5 SHR ADD SWAP1 PUSH2 0x2151 JUMP JUMPDEST DUP5 PUSH2 0x16F6 JUMP JUMPDEST SWAP2 POP POP PUSH1 0x40 DUP2 RETURNDATASIZE PUSH1 0x40 GT PUSH2 0x1A33 JUMPI JUMPDEST DUP2 PUSH2 0x1A0F PUSH1 0x40 SWAP4 DUP4 PUSH2 0x1EA3 JUMP JUMPDEST DUP2 ADD SUB SLT PUSH2 0x13E JUMPI PUSH2 0x1A2C PUSH1 0x20 PUSH2 0x1A25 DUP4 PUSH2 0x21F0 JUMP JUMPDEST SWAP3 ADD PUSH2 0x21F0 JUMP JUMPDEST SWAP1 DUP4 PUSH2 0xFAD JUMP JUMPDEST RETURNDATASIZE SWAP2 POP PUSH2 0x1A02 JUMP JUMPDEST CALLVALUE PUSH2 0x13E JUMPI PUSH0 CALLDATASIZE PUSH1 0x3 NOT ADD SLT PUSH2 0x13E JUMPI PUSH1 0x7 SLOAD PUSH1 0x40 MLOAD PUSH1 0x1 PUSH1 0x1 PUSH1 0xA0 SHL SUB SWAP1 SWAP2 AND DUP2 MSTORE PUSH1 0x20 SWAP1 RETURN JUMPDEST CALLVALUE PUSH2 0x13E JUMPI PUSH1 0x3 NOT PUSH1 0x40 CALLDATASIZE DUP3 ADD SLT PUSH2 0x13E JUMPI PUSH1 0x1 PUSH1 0x1 PUSH1 0x40 SHL SUB SWAP1 PUSH1 0x4 CALLDATALOAD DUP3 DUP2 GT PUSH2 0x13E JUMPI PUSH2 0x100 DUP2 PUSH1 0x4 ADD SWAP3 DUP3 CALLDATASIZE SUB ADD SLT PUSH2 0x13E JUMPI PUSH1 0x24 CALLDATALOAD DUP4 DUP2 GT PUSH2 0x13E JUMPI CALLDATASIZE PUSH1 0x23 DUP3 ADD SLT ISZERO PUSH2 0x13E JUMPI PUSH2 0x1AC2 SWAP1 CALLDATASIZE SWAP1 PUSH1 0x24 DUP2 PUSH1 0x4 ADD CALLDATALOAD SWAP2 ADD PUSH2 0x1FC6 JUMP JUMPDEST POP PUSH1 0xC4 PUSH0 SWAP2 ADD SWAP2 PUSH2 0x1AD3 DUP4 DUP3 PUSH2 0x21BB JUMP JUMPDEST SWAP4 SWAP1 SWAP4 ISZERO PUSH2 0x1B92 JUMPI PUSH2 0x1AE4 SWAP2 PUSH2 0x21BB JUMP JUMPDEST PUSH1 0x1 LT ISZERO PUSH2 0x1B92 JUMPI PUSH1 0x20 ADD CALLDATALOAD SWAP2 PUSH1 0x1 DUP1 PUSH1 0xA0 SHL SUB SWAP1 DUP2 DUP1 PUSH1 0x9 SLOAD AND SWAP2 CALLDATALOAD AND EQ SWAP1 DUP2 PUSH2 0x1B7A JUMPI JUMPDEST POP DUP1 PUSH2 0x1B60 JUMPI JUMPDEST PUSH2 0x1B58 JUMPI JUMPDEST PUSH1 0x40 MLOAD SWAP2 PUSH1 0x20 DUP4 ADD MSTORE PUSH1 0x20 DUP3 MSTORE PUSH1 0x40 DUP3 ADD SWAP3 DUP3 DUP5 LT SWAP1 DUP5 GT OR PUSH2 0x82B JUMPI DUP3 PUSH1 0x40 MSTORE ISZERO ISZERO DUP3 MSTORE PUSH1 0x40 PUSH1 0x60 DUP3 ADD MSTORE PUSH1 0x3F NOT SWAP1 PUSH2 0x1B53 PUSH1 0x80 DUP3 ADD DUP3 PUSH2 0x1F86 JUMP JUMPDEST SUB ADD SWAP1 RETURN JUMPDEST POP PUSH1 0x1 PUSH2 0x1B16 JUMP JUMPDEST POP DUP2 PUSH0 MSTORE PUSH1 0x1 PUSH1 0x20 MSTORE PUSH1 0xFF PUSH1 0x6 PUSH1 0x40 PUSH0 KECCAK256 ADD SLOAD AND ISZERO PUSH2 0x1B11 JUMP JUMPDEST SWAP1 POP DUP3 PUSH0 MSTORE PUSH1 0x1 PUSH1 0x20 MSTORE PUSH1 0x40 PUSH0 KECCAK256 SLOAD AND ISZERO ISZERO DUP5 PUSH2 0x1B0A JUMP JUMPDEST PUSH4 0x4E487B71 PUSH1 0xE0 SHL PUSH0 MSTORE PUSH1 0x32 PUSH1 0x4 MSTORE PUSH1 0x24 PUSH0 REVERT JUMPDEST CALLVALUE PUSH2 0x13E JUMPI PUSH1 0x20 CALLDATASIZE PUSH1 0x3 NOT ADD SLT PUSH2 0x13E JUMPI PUSH1 0x4 CALLDATALOAD PUSH1 0x1 PUSH1 0x1 PUSH1 0x40 SHL SUB DUP2 GT PUSH2 0x13E JUMPI PUSH1 0x3 PUSH2 0x1BDE PUSH1 0x20 PUSH2 0x1C3 DUP2 SWAP5 CALLDATASIZE SWAP1 PUSH1 0x4 ADD PUSH2 0x1FFC JUMP JUMPDEST DUP2 ADD PUSH0 DUP2 MSTORE SUB ADD SWAP1 KECCAK256 ADD SLOAD PUSH1 0x40 MLOAD SWAP1 DUP2 MSTORE RETURN JUMPDEST CALLVALUE PUSH2 0x13E JUMPI PUSH1 0x20 DUP1 PUSH1 0x3 NOT CALLDATASIZE ADD SLT PUSH2 0x13E JUMPI PUSH1 0x4 CALLDATALOAD SWAP1 PUSH1 0x1 PUSH1 0x1 PUSH1 0x40 SHL SUB DUP3 GT PUSH2 0x13E JUMPI PUSH2 0x1C25 PUSH1 0x60 SWAP3 CALLDATASIZE SWAP1 PUSH1 0x4 ADD PUSH2 0x1FFC JUMP JUMPDEST SWAP1 PUSH1 0x40 MLOAD SWAP2 PUSH1 0x2 PUSH2 0x1C80 DUP4 DUP4 MLOAD SWAP6 DUP2 DUP2 DUP2 DUP8 ADD SWAP9 PUSH2 0x1C44 DUP2 DUP4 DUP13 PUSH2 0x1F65 JUMP JUMPDEST DUP2 ADD PUSH0 DUP2 MSTORE SUB ADD SWAP1 KECCAK256 SLOAD SWAP6 PUSH1 0x1 PUSH1 0x40 MLOAD DUP4 DUP2 DUP9 MLOAD PUSH2 0x1C63 DUP2 DUP4 DUP9 PUSH2 0x1F65 JUMP JUMPDEST DUP2 ADD PUSH0 DUP2 MSTORE SUB ADD SWAP1 KECCAK256 ADD SLOAD SWAP5 PUSH1 0x40 MLOAD SWAP4 DUP5 SWAP3 DUP4 SWAP3 MLOAD SWAP3 DUP4 SWAP2 PUSH2 0x1F65 JUMP JUMPDEST DUP2 ADD PUSH0 DUP2 MSTORE SUB ADD SWAP1 KECCAK256 ADD SLOAD SWAP2 PUSH1 0x40 MLOAD SWAP4 DUP5 MSTORE DUP4 ADD MSTORE PUSH1 0x40 DUP3 ADD MSTORE RETURN JUMPDEST CALLVALUE PUSH2 0x13E JUMPI PUSH1 0x20 CALLDATASIZE PUSH1 0x3 NOT ADD SLT PUSH2 0x13E JUMPI PUSH1 0x4 CALLDATALOAD PUSH1 0x1 PUSH1 0x1 PUSH1 0x40 SHL SUB DUP2 GT PUSH2 0x13E JUMPI PUSH2 0x1CD3 PUSH1 0x20 PUSH2 0x1C3 PUSH1 0xA0 SWAP4 CALLDATASIZE SWAP1 PUSH1 0x4 ADD PUSH2 0x1FFC JUMP JUMPDEST DUP2 ADD PUSH0 DUP2 MSTORE SUB ADD SWAP1 KECCAK256 DUP1 SLOAD SWAP1 PUSH1 0x1 DUP2 ADD SLOAD SWAP1 PUSH1 0x2 DUP2 ADD SLOAD PUSH1 0xFF PUSH1 0x5 PUSH1 0x3 DUP5 ADD SLOAD SWAP4 ADD SLOAD AND SWAP3 PUSH1 0x40 MLOAD SWAP5 DUP6 MSTORE PUSH1 0x20 DUP6 ADD MSTORE PUSH1 0x40 DUP5 ADD MSTORE PUSH1 0x60 DUP4 ADD MSTORE ISZERO ISZERO PUSH1 0x80 DUP3 ADD MSTORE RETURN JUMPDEST CALLVALUE PUSH2 0x13E JUMPI PUSH1 0x20 CALLDATASIZE PUSH1 0x3 NOT ADD SLT PUSH2 0x13E JUMPI PUSH1 0x4 CALLDATALOAD PUSH1 0x1 PUSH1 0x1 PUSH1 0x40 SHL SUB DUP2 GT PUSH2 0x13E JUMPI PUSH1 0xFF PUSH1 0x5 PUSH2 0x1D50 PUSH1 0x20 PUSH2 0x1C3 DUP2 SWAP6 CALLDATASIZE SWAP1 PUSH1 0x4 ADD PUSH2 0x1FFC JUMP JUMPDEST DUP2 ADD PUSH0 DUP2 MSTORE SUB ADD SWAP1 KECCAK256 ADD SLOAD AND PUSH1 0x40 MLOAD SWAP1 ISZERO ISZERO DUP2 MSTORE RETURN JUMPDEST CALLVALUE PUSH2 0x13E JUMPI PUSH1 0x20 CALLDATASIZE PUSH1 0x3 NOT ADD SLT PUSH2 0x13E JUMPI PUSH1 0x4 CALLDATALOAD PUSH0 MSTORE PUSH1 0x1 PUSH1 0x20 MSTORE PUSH1 0x40 PUSH0 KECCAK256 PUSH1 0x1 DUP1 PUSH1 0xA0 SHL SUB DUP2 SLOAD AND PUSH2 0x1D9B PUSH1 0x1 DUP4 ADD PUSH2 0x1EC4 JUMP JUMPDEST SWAP2 PUSH1 0xFF PUSH1 0x2 DUP3 ADD SLOAD SWAP2 PUSH1 0x3 DUP2 ADD SLOAD SWAP1 PUSH1 0x4 DUP2 ADD SLOAD PUSH1 0x6 PUSH1 0x5 DUP4 ADD SLOAD SWAP3 ADD SLOAD SWAP3 PUSH2 0x1DD6 PUSH1 0x40 MLOAD SWAP9 DUP10 SWAP9 DUP10 MSTORE PUSH2 0x100 DUP1 PUSH1 0x20 DUP12 ADD MSTORE DUP10 ADD SWAP1 PUSH2 0x1F86 JUMP JUMPDEST SWAP6 PUSH1 0x40 DUP9 ADD MSTORE PUSH1 0x60 DUP8 ADD MSTORE PUSH1 0x80 DUP7 ADD MSTORE PUSH1 0xA0 DUP6 ADD MSTORE DUP2 DUP2 AND ISZERO ISZERO PUSH1 0xC0 DUP6 ADD MSTORE PUSH1 0x8 SHR AND ISZERO ISZERO PUSH1 0xE0 DUP4 ADD MSTORE SUB SWAP1 RETURN JUMPDEST CALLVALUE PUSH2 0x13E JUMPI PUSH0 CALLDATASIZE PUSH1 0x3 NOT ADD SLT PUSH2 0x13E JUMPI PUSH1 0x20 PUSH1 0x6 SLOAD PUSH1 0x40 MLOAD SWAP1 DUP2 MSTORE RETURN JUMPDEST CALLVALUE PUSH2 0x13E JUMPI PUSH1 0x20 CALLDATASIZE PUSH1 0x3 NOT ADD SLT PUSH2 0x13E JUMPI PUSH2 0x1E47 PUSH1 0x1 DUP1 PUSH1 0xA0 SHL SUB PUSH1 0x2 SLOAD AND CALLER EQ PUSH2 0x21FD JUMP JUMPDEST PUSH1 0x4 DUP1 CALLDATALOAD SWAP1 SSTORE STOP JUMPDEST SWAP1 PUSH1 0x1 DUP3 DUP2 SHR SWAP3 AND DUP1 ISZERO PUSH2 0x1E7D JUMPI JUMPDEST PUSH1 0x20 DUP4 LT EQ PUSH2 0x1E69 JUMPI JUMP JUMPDEST PUSH4 0x4E487B71 PUSH1 0xE0 SHL PUSH0 MSTORE PUSH1 0x22 PUSH1 0x4 MSTORE PUSH1 0x24 PUSH0 REVERT JUMPDEST SWAP2 PUSH1 0x7F AND SWAP2 PUSH2 0x1E5E JUMP JUMPDEST PUSH2 0x120 DUP2 ADD SWAP1 DUP2 LT PUSH1 0x1 PUSH1 0x1 PUSH1 0x40 SHL SUB DUP3 GT OR PUSH2 0x82B JUMPI PUSH1 0x40 MSTORE JUMP JUMPDEST SWAP1 PUSH1 0x1F DUP1 NOT SWAP2 ADD AND DUP2 ADD SWAP1 DUP2 LT PUSH1 0x1 PUSH1 0x1 PUSH1 0x40 SHL SUB DUP3 GT OR PUSH2 0x82B JUMPI PUSH1 0x40 MSTORE JUMP JUMPDEST SWAP1 PUSH1 0x40 MLOAD SWAP2 DUP3 PUSH0 DUP3 SLOAD SWAP3 PUSH2 0x1ED7 DUP5 PUSH2 0x1E4F JUMP JUMPDEST SWAP1 DUP2 DUP5 MSTORE PUSH1 0x1 SWAP5 DUP6 DUP2 AND SWAP1 DUP2 PUSH0 EQ PUSH2 0x1F42 JUMPI POP PUSH1 0x1 EQ PUSH2 0x1F02 JUMPI JUMPDEST POP POP PUSH2 0x1F00 SWAP3 POP SUB DUP4 PUSH2 0x1EA3 JUMP JUMPDEST JUMP JUMPDEST SWAP1 SWAP4 SWAP2 POP PUSH0 MSTORE PUSH1 0x20 SWAP1 DUP2 PUSH0 KECCAK256 SWAP4 PUSH0 SWAP2 JUMPDEST DUP2 DUP4 LT PUSH2 0x1F2A JUMPI POP POP PUSH2 0x1F00 SWAP4 POP DUP3 ADD ADD PUSH0 DUP1 PUSH2 0x1EF2 JUMP JUMPDEST DUP6 SLOAD DUP9 DUP5 ADD DUP6 ADD MSTORE SWAP5 DUP6 ADD SWAP5 DUP8 SWAP5 POP SWAP2 DUP4 ADD SWAP2 PUSH2 0x1F12 JUMP JUMPDEST SWAP2 POP POP PUSH2 0x1F00 SWAP5 POP PUSH1 0x20 SWAP3 POP PUSH1 0xFF NOT AND DUP3 DUP5 ADD MSTORE ISZERO ISZERO PUSH1 0x5 SHL DUP3 ADD ADD PUSH0 DUP1 PUSH2 0x1EF2 JUMP JUMPDEST PUSH0 JUMPDEST DUP4 DUP2 LT PUSH2 0x1F76 JUMPI POP POP PUSH0 SWAP2 ADD MSTORE JUMP JUMPDEST DUP2 DUP2 ADD MLOAD DUP4 DUP3 ADD MSTORE PUSH1 0x20 ADD PUSH2 0x1F67 JUMP JUMPDEST SWAP1 PUSH1 0x20 SWAP2 PUSH2 0x1F9F DUP2 MLOAD DUP1 SWAP3 DUP2 DUP6 MSTORE DUP6 DUP1 DUP7 ADD SWAP2 ADD PUSH2 0x1F65 JUMP JUMPDEST PUSH1 0x1F ADD PUSH1 0x1F NOT AND ADD ADD SWAP1 JUMP JUMPDEST PUSH1 0x1 PUSH1 0x1 PUSH1 0x40 SHL SUB DUP2 GT PUSH2 0x82B JUMPI PUSH1 0x1F ADD PUSH1 0x1F NOT AND PUSH1 0x20 ADD SWAP1 JUMP JUMPDEST SWAP3 SWAP2 SWAP3 PUSH2 0x1FD2 DUP3 PUSH2 0x1FAB JUMP JUMPDEST SWAP2 PUSH2 0x1FE0 PUSH1 0x40 MLOAD SWAP4 DUP5 PUSH2 0x1EA3 JUMP JUMPDEST DUP3 SWAP5 DUP2 DUP5 MSTORE DUP2 DUP4 ADD GT PUSH2 0x13E JUMPI DUP3 DUP2 PUSH1 0x20 SWAP4 DUP5 PUSH0 SWAP7 ADD CALLDATACOPY ADD ADD MSTORE JUMP JUMPDEST SWAP1 DUP1 PUSH1 0x1F DUP4 ADD SLT ISZERO PUSH2 0x13E JUMPI DUP2 PUSH1 0x20 PUSH2 0x2017 SWAP4 CALLDATALOAD SWAP2 ADD PUSH2 0x1FC6 JUMP JUMPDEST SWAP1 JUMP JUMPDEST PUSH1 0x1 PUSH1 0x1 PUSH1 0x40 SHL SUB DUP2 GT PUSH2 0x82B JUMPI PUSH1 0x5 SHL PUSH1 0x20 ADD SWAP1 JUMP JUMPDEST SWAP1 PUSH1 0xC0 PUSH1 0x3 NOT DUP4 ADD SLT PUSH2 0x13E JUMPI PUSH1 0x1 PUSH1 0x1 PUSH1 0x40 SHL SUB PUSH1 0x4 CALLDATALOAD DUP2 DUP2 GT PUSH2 0x13E JUMPI DUP4 PUSH2 0x205D SWAP2 PUSH1 0x4 ADD PUSH2 0x1FFC JUMP JUMPDEST SWAP3 PUSH1 0x24 DUP1 CALLDATALOAD SWAP4 PUSH1 0x44 CALLDATALOAD SWAP4 PUSH1 0x64 CALLDATALOAD SWAP4 PUSH1 0x84 CALLDATALOAD SWAP4 PUSH1 0xA4 CALLDATALOAD SWAP3 DUP1 DUP5 GT PUSH2 0x13E JUMPI DUP3 PUSH1 0x23 DUP6 ADD SLT ISZERO PUSH2 0x13E JUMPI DUP4 PUSH1 0x4 ADD CALLDATALOAD PUSH2 0x2093 DUP2 PUSH2 0x201A JUMP JUMPDEST SWAP5 PUSH2 0x20A1 PUSH1 0x40 MLOAD SWAP7 DUP8 PUSH2 0x1EA3 JUMP JUMPDEST DUP2 DUP7 MSTORE PUSH1 0x20 SWAP5 DUP5 DUP7 DUP9 ADD SWAP4 PUSH1 0x5 SHL DUP4 ADD ADD SWAP5 DUP2 DUP7 GT PUSH2 0x13E JUMPI DUP1 DUP4 ADD SWAP4 JUMPDEST DUP7 DUP6 LT PUSH2 0x20D1 JUMPI POP POP POP POP POP POP POP POP SWAP1 JUMP JUMPDEST DUP5 CALLDATALOAD DUP7 DUP2 GT PUSH2 0x13E JUMPI DUP9 SWAP2 PUSH2 0x20EB DUP6 DUP6 DUP6 SWAP5 DUP10 ADD ADD PUSH2 0x1FFC JUMP JUMPDEST DUP2 MSTORE ADD SWAP5 ADD SWAP4 PUSH2 0x20BF JUMP JUMPDEST SWAP1 DUP1 DUP3 MLOAD SWAP1 DUP2 DUP2 MSTORE PUSH1 0x20 DUP1 SWAP2 ADD SWAP3 DUP2 DUP1 DUP5 PUSH1 0x5 SHL DUP4 ADD ADD SWAP6 ADD SWAP4 PUSH0 SWAP2 JUMPDEST DUP5 DUP4 LT PUSH2 0x2123 JUMPI POP POP POP POP POP POP SWAP1 JUMP JUMPDEST SWAP1 SWAP2 SWAP3 SWAP4 SWAP5 SWAP6 DUP5 DUP1 PUSH2 0x2141 PUSH1 0x1 SWAP4 PUSH1 0x1F NOT DUP7 DUP3 SUB ADD DUP8 MSTORE DUP11 MLOAD PUSH2 0x1F86 JUMP JUMPDEST SWAP9 ADD SWAP4 ADD SWAP4 ADD SWAP2 SWAP5 SWAP4 SWAP3 SWAP1 PUSH2 0x2113 JUMP JUMPDEST DUP2 DUP2 LT PUSH2 0x215C JUMPI POP POP JUMP JUMPDEST PUSH0 DUP2 SSTORE PUSH1 0x1 ADD PUSH2 0x2151 JUMP JUMPDEST SWAP1 DUP2 SLOAD PUSH2 0x2173 DUP2 PUSH2 0x201A JUMP JUMPDEST SWAP3 PUSH2 0x2181 PUSH1 0x40 MLOAD SWAP5 DUP6 PUSH2 0x1EA3 JUMP JUMPDEST DUP2 DUP5 MSTORE PUSH0 SWAP1 DUP2 MSTORE PUSH1 0x20 DUP1 DUP3 KECCAK256 DUP2 DUP7 ADD JUMPDEST DUP5 DUP5 LT PUSH2 0x219F JUMPI POP POP POP POP POP JUMP JUMPDEST PUSH1 0x1 DUP4 DUP2 SWAP3 PUSH2 0x21AD DUP6 PUSH2 0x1EC4 JUMP JUMPDEST DUP2 MSTORE ADD SWAP3 ADD SWAP4 ADD SWAP3 SWAP1 PUSH2 0x2191 JUMP JUMPDEST SWAP1 CALLDATALOAD SWAP1 PUSH1 0x1E NOT DUP2 CALLDATASIZE SUB ADD DUP3 SLT ISZERO PUSH2 0x13E JUMPI ADD DUP1 CALLDATALOAD SWAP1 PUSH1 0x1 PUSH1 0x1 PUSH1 0x40 SHL SUB DUP3 GT PUSH2 0x13E JUMPI PUSH1 0x20 ADD SWAP2 DUP2 PUSH1 0x5 SHL CALLDATASIZE SUB DUP4 SGT PUSH2 0x13E JUMPI JUMP JUMPDEST MLOAD SWAP1 DUP2 ISZERO ISZERO DUP3 SUB PUSH2 0x13E JUMPI JUMP JUMPDEST ISZERO PUSH2 0x2204 JUMPI JUMP JUMPDEST PUSH1 0x40 MLOAD PUSH3 0x461BCD PUSH1 0xE5 SHL DUP2 MSTORE PUSH1 0x20 PUSH1 0x4 DUP3 ADD MSTORE PUSH1 0x16 PUSH1 0x24 DUP3 ADD MSTORE PUSH22 0x2737BA103A34329031B7B73A3930B1BA1037BBB732B9 PUSH1 0x51 SHL PUSH1 0x44 DUP3 ADD MSTORE PUSH1 0x64 SWAP1 REVERT INVALID LOG2 PUSH5 0x6970667358 0x22 SLT KECCAK256 PUSH8 0x5C17D7934340C13 DUP3 ADD 0xC1 SWAP15 0xE8 MOD PUSH10 0xB5A65D28B4CA23FC224D 0xB5 MSIZE 0xE4 0x22 0x26 0xEB PUSH5 0x736F6C6343 STOP ADDMOD EQ STOP CALLER "},"methodIdentifiers":{"CommunityConsensusProposals(uint256)":"1e6a2488","CommunityContract()":"f0642315","CreateCCProposal(string,uint256,uint256,uint256,uint256,string[])":"a804535d","UpdateTotalFee()":"d1dda68f","bytes32ToAddress(bytes32)":"5ced058e","checkLog((uint256,uint256,bytes32,uint256,bytes32,address,bytes32[],bytes),bytes)":"40691db4","communityConsensus(string)":"2627bc1e","communityFee()":"8961be6b","fee()":"ddca3f43","feeAddress()":"41275358","getCCParams(string)":"abb7d06c","getCCParamsExist(string)":"24c9db2f","getCommunityConsensousTime(string)":"3bebe051","getCommunityConsensousTypes(string)":"dcf86200","getCommunityReviewParams(string)":"26917989","maxConsensusTime()":"f6eeda9d","performUpkeep(bytes)":"4585e33b","setCCParams(string,uint256,uint256,uint256,uint256,string[])":"4e2413e8","setFee(uint256)":"69fe0e2d","setFeeAddress(address)":"8705fcd4","setMaxConsensusTime(uint256)":"13a292ee","setlearntgetherCommunityContract(address)":"8003822e","totalFee()":"1df4ccfc","upkeepId()":"d2aa789f"}}}}}