{"contracts/learntgehterPosts.sol":{"learntgetherPosts":{"abi":[{"inputs":[{"internalType":"address","name":"_CommunitiesAddress","type":"address"},{"internalType":"address","name":"_MembersContract","type":"address"},{"internalType":"uint256","name":"_fee","type":"uint256"}],"stateMutability":"nonpayable","type":"constructor"},{"anonymous":false,"inputs":[{"indexed":false,"internalType":"uint256","name":"communitySubmissionId","type":"uint256"},{"indexed":false,"internalType":"uint256","name":"index","type":"uint256"}],"name":"ActiveSubmissionsIndexUpdated","type":"event"},{"anonymous":false,"inputs":[{"indexed":true,"internalType":"address","name":"owner","type":"address"},{"indexed":true,"internalType":"address","name":"approved","type":"address"},{"indexed":true,"internalType":"uint256","name":"tokenId","type":"uint256"}],"name":"Approval","type":"event"},{"anonymous":false,"inputs":[{"indexed":true,"internalType":"address","name":"owner","type":"address"},{"indexed":true,"internalType":"address","name":"operator","type":"address"},{"indexed":false,"internalType":"bool","name":"approved","type":"bool"}],"name":"ApprovalForAll","type":"event"},{"anonymous":false,"inputs":[{"indexed":true,"internalType":"uint256","name":"communtiySubmissionId","type":"uint256"},{"indexed":true,"internalType":"string","name":"communityName","type":"string"},{"indexed":false,"internalType":"uint256","name":"timestamp","type":"uint256"},{"indexed":false,"internalType":"uint256","name":"consensousTime","type":"uint256"}],"name":"CommunitySubmitted","type":"event"},{"anonymous":false,"inputs":[{"indexed":true,"internalType":"uint256","name":"communitySubmissionId","type":"uint256"},{"indexed":false,"internalType":"uint256","name":"postId","type":"uint256"},{"indexed":false,"internalType":"string","name":"newConsensus","type":"string"}],"name":"ConsensusUpdated","type":"event"},{"anonymous":false,"inputs":[{"indexed":false,"internalType":"uint256","name":"postId","type":"uint256"},{"indexed":false,"internalType":"string","name":"keyword","type":"string"}],"name":"Keywords","type":"event"},{"anonymous":false,"inputs":[{"indexed":true,"internalType":"address","name":"previousOwner","type":"address"},{"indexed":true,"internalType":"address","name":"newOwner","type":"address"}],"name":"OwnershipTransferred","type":"event"},{"anonymous":false,"inputs":[{"indexed":true,"internalType":"uint256","name":"postId","type":"uint256"},{"indexed":false,"internalType":"string","name":"content","type":"string"},{"indexed":false,"internalType":"string","name":"title","type":"string"},{"indexed":false,"internalType":"string","name":"description","type":"string"}],"name":"PostInfo","type":"event"},{"anonymous":false,"inputs":[{"indexed":true,"internalType":"uint256","name":"postId","type":"uint256"},{"indexed":true,"internalType":"address","name":"authorAddress","type":"address"},{"indexed":false,"internalType":"string","name":"authorName","type":"string"}],"name":"PostMintedTo","type":"event"},{"anonymous":false,"inputs":[{"indexed":true,"internalType":"uint256","name":"postId","type":"uint256"},{"indexed":true,"internalType":"uint256","name":"communitySubmissionId","type":"uint256"}],"name":"PostSubmission","type":"event"},{"anonymous":false,"inputs":[{"indexed":true,"internalType":"uint256","name":"reviewId","type":"uint256"},{"indexed":true,"internalType":"uint256","name":"communitySubmissionId","type":"uint256"},{"indexed":true,"internalType":"address","name":"member","type":"address"}],"name":"ReviewCreated","type":"event"},{"anonymous":false,"inputs":[{"indexed":true,"internalType":"uint256","name":"reviewId","type":"uint256"},{"indexed":false,"internalType":"string","name":"consensus","type":"string"},{"indexed":false,"internalType":"uint256","name":"creds","type":"uint256"},{"indexed":false,"internalType":"string","name":"content","type":"string"}],"name":"ReviewSubmitted","type":"event"},{"anonymous":false,"inputs":[{"indexed":true,"internalType":"address","name":"from","type":"address"},{"indexed":true,"internalType":"address","name":"to","type":"address"},{"indexed":true,"internalType":"uint256","name":"tokenId","type":"uint256"}],"name":"Transfer","type":"event"},{"inputs":[{"internalType":"uint256","name":"","type":"uint256"}],"name":"ActiveSubmissions","outputs":[{"internalType":"uint256","name":"","type":"uint256"}],"stateMutability":"view","type":"function"},{"inputs":[{"internalType":"uint256","name":"","type":"uint256"}],"name":"ActiveSubmissionsIndexes","outputs":[{"internalType":"uint256","name":"","type":"uint256"}],"stateMutability":"view","type":"function"},{"inputs":[],"name":"CommunitiesContract","outputs":[{"internalType":"contract learntgetherCommunitiesInterface","name":"","type":"address"}],"stateMutability":"view","type":"function"},{"inputs":[{"internalType":"uint256","name":"","type":"uint256"}],"name":"CommunitySubmissionToPost","outputs":[{"internalType":"uint256","name":"","type":"uint256"}],"stateMutability":"view","type":"function"},{"inputs":[{"internalType":"uint256","name":"","type":"uint256"}],"name":"CommunitySubmissions","outputs":[{"internalType":"string","name":"communityName","type":"string"},{"internalType":"string","name":"consensousType","type":"string"},{"internalType":"uint256","name":"timestamp","type":"uint256"},{"internalType":"uint256","name":"consensousTime","type":"uint256"}],"stateMutability":"view","type":"function"},{"inputs":[],"name":"MembersContract","outputs":[{"internalType":"contract learntgetherMembersInterface","name":"","type":"address"}],"stateMutability":"view","type":"function"},{"inputs":[{"internalType":"uint256","name":"","type":"uint256"},{"internalType":"uint256","name":"","type":"uint256"}],"name":"PostSubmissionList","outputs":[{"internalType":"uint256","name":"","type":"uint256"}],"stateMutability":"view","type":"function"},{"inputs":[{"internalType":"uint256","name":"_postId","type":"uint256"},{"internalType":"string","name":"_keyword","type":"string"}],"name":"addKeyword","outputs":[],"stateMutability":"nonpayable","type":"function"},{"inputs":[{"internalType":"address","name":"to","type":"address"},{"internalType":"uint256","name":"tokenId","type":"uint256"}],"name":"approve","outputs":[],"stateMutability":"nonpayable","type":"function"},{"inputs":[{"internalType":"address","name":"owner","type":"address"}],"name":"balanceOf","outputs":[{"internalType":"uint256","name":"","type":"uint256"}],"stateMutability":"view","type":"function"},{"inputs":[],"name":"checkUpKeep","outputs":[{"internalType":"bool","name":"upkeepNeeded","type":"bool"},{"internalType":"bytes","name":"performData","type":"bytes"}],"stateMutability":"view","type":"function"},{"inputs":[],"name":"consensousFee","outputs":[{"internalType":"uint256","name":"","type":"uint256"}],"stateMutability":"view","type":"function"},{"inputs":[],"name":"csCounter","outputs":[{"internalType":"uint256","name":"","type":"uint256"}],"stateMutability":"view","type":"function"},{"inputs":[],"name":"getActiveSubmissions","outputs":[{"internalType":"uint256[]","name":"","type":"uint256[]"}],"stateMutability":"view","type":"function"},{"inputs":[{"internalType":"uint256","name":"_postId","type":"uint256"}],"name":"getActiveSubmissionsIndex","outputs":[{"internalType":"uint256","name":"","type":"uint256"}],"stateMutability":"view","type":"function"},{"inputs":[],"name":"getActiveSubmissionsLength","outputs":[{"internalType":"uint256","name":"","type":"uint256"}],"stateMutability":"view","type":"function"},{"inputs":[{"internalType":"uint256","name":"tokenId","type":"uint256"}],"name":"getApproved","outputs":[{"internalType":"address","name":"","type":"address"}],"stateMutability":"view","type":"function"},{"inputs":[{"internalType":"uint256","name":"_communitySubmissionId","type":"uint256"}],"name":"getCommunitySubmission","outputs":[{"components":[{"internalType":"string","name":"communityName","type":"string"},{"internalType":"string","name":"consensousType","type":"string"},{"internalType":"uint256","name":"timestamp","type":"uint256"},{"internalType":"uint256","name":"consensousTime","type":"uint256"}],"internalType":"struct learntgetherPosts.CommunitySubmission","name":"","type":"tuple"}],"stateMutability":"view","type":"function"},{"inputs":[{"internalType":"uint256","name":"_postId","type":"uint256"}],"name":"getPost","outputs":[{"components":[{"internalType":"string","name":"content","type":"string"},{"internalType":"string","name":"title","type":"string"},{"internalType":"address","name":"authorAddress","type":"address"},{"internalType":"string","name":"authorName","type":"string"},{"internalType":"string","name":"description","type":"string"}],"internalType":"struct learntgetherPosts.Post","name":"","type":"tuple"}],"stateMutability":"view","type":"function"},{"inputs":[{"internalType":"uint256","name":"_submissionId","type":"uint256"}],"name":"getPostConsesous","outputs":[{"internalType":"string","name":"consensus","type":"string"}],"stateMutability":"view","type":"function"},{"inputs":[{"internalType":"uint256","name":"_reviewId","type":"uint256"}],"name":"getReview","outputs":[{"components":[{"internalType":"address","name":"member","type":"address"},{"internalType":"string","name":"content","type":"string"},{"internalType":"uint256","name":"consensous","type":"uint256"},{"internalType":"string","name":"consensousType","type":"string"},{"internalType":"uint256","name":"creds","type":"uint256"}],"internalType":"struct learntgetherPosts.Review","name":"","type":"tuple"}],"stateMutability":"view","type":"function"},{"inputs":[{"internalType":"uint256","name":"_reviewid","type":"uint256"}],"name":"getReviewConsenous","outputs":[{"internalType":"uint256","name":"consensous","type":"uint256"},{"internalType":"uint256","name":"creds","type":"uint256"}],"stateMutability":"view","type":"function"},{"inputs":[{"internalType":"uint256","name":"_submissionId","type":"uint256"}],"name":"getReviewsForSubmission","outputs":[{"internalType":"uint256[]","name":"","type":"uint256[]"}],"stateMutability":"view","type":"function"},{"inputs":[{"internalType":"uint256","name":"","type":"uint256"},{"internalType":"address","name":"","type":"address"}],"name":"hasReviewed","outputs":[{"internalType":"bool","name":"","type":"bool"}],"stateMutability":"view","type":"function"},{"inputs":[],"name":"incrementToken","outputs":[],"stateMutability":"nonpayable","type":"function"},{"inputs":[{"internalType":"address","name":"owner","type":"address"},{"internalType":"address","name":"operator","type":"address"}],"name":"isApprovedForAll","outputs":[{"internalType":"bool","name":"","type":"bool"}],"stateMutability":"view","type":"function"},{"inputs":[],"name":"maxReviews","outputs":[{"internalType":"uint256","name":"","type":"uint256"}],"stateMutability":"view","type":"function"},{"inputs":[{"internalType":"string","name":"_content","type":"string"},{"internalType":"string","name":"_title","type":"string"},{"internalType":"string","name":"_authorName","type":"string"},{"internalType":"string","name":"_description","type":"string"}],"name":"mintPost","outputs":[{"internalType":"uint256","name":"","type":"uint256"}],"stateMutability":"nonpayable","type":"function"},{"inputs":[],"name":"name","outputs":[{"internalType":"string","name":"","type":"string"}],"stateMutability":"view","type":"function"},{"inputs":[],"name":"openVoteTime","outputs":[{"internalType":"uint256","name":"","type":"uint256"}],"stateMutability":"view","type":"function"},{"inputs":[],"name":"owner","outputs":[{"internalType":"address","name":"","type":"address"}],"stateMutability":"view","type":"function"},{"inputs":[{"internalType":"uint256","name":"tokenId","type":"uint256"}],"name":"ownerOf","outputs":[{"internalType":"address","name":"","type":"address"}],"stateMutability":"view","type":"function"},{"inputs":[{"internalType":"bytes","name":"_performData","type":"bytes"}],"name":"performUpkeep","outputs":[],"stateMutability":"nonpayable","type":"function"},{"inputs":[{"internalType":"uint256","name":"","type":"uint256"},{"internalType":"string","name":"","type":"string"}],"name":"postCommunities","outputs":[{"internalType":"uint256","name":"","type":"uint256"}],"stateMutability":"view","type":"function"},{"inputs":[{"internalType":"uint256","name":"","type":"uint256"}],"name":"posts","outputs":[{"internalType":"string","name":"content","type":"string"},{"internalType":"string","name":"title","type":"string"},{"internalType":"address","name":"authorAddress","type":"address"},{"internalType":"string","name":"authorName","type":"string"},{"internalType":"string","name":"description","type":"string"}],"stateMutability":"view","type":"function"},{"inputs":[],"name":"renounceOwnership","outputs":[],"stateMutability":"nonpayable","type":"function"},{"inputs":[],"name":"reviewCounter","outputs":[{"internalType":"uint256","name":"","type":"uint256"}],"stateMutability":"view","type":"function"},{"inputs":[{"internalType":"uint256","name":"","type":"uint256"}],"name":"reviews","outputs":[{"internalType":"address","name":"member","type":"address"},{"internalType":"string","name":"content","type":"string"},{"internalType":"uint256","name":"consensous","type":"uint256"},{"internalType":"string","name":"consensousType","type":"string"},{"internalType":"uint256","name":"creds","type":"uint256"}],"stateMutability":"view","type":"function"},{"inputs":[{"internalType":"address","name":"from","type":"address"},{"internalType":"address","name":"to","type":"address"},{"internalType":"uint256","name":"tokenId","type":"uint256"}],"name":"safeTransferFrom","outputs":[],"stateMutability":"nonpayable","type":"function"},{"inputs":[{"internalType":"address","name":"from","type":"address"},{"internalType":"address","name":"to","type":"address"},{"internalType":"uint256","name":"tokenId","type":"uint256"},{"internalType":"bytes","name":"_data","type":"bytes"}],"name":"safeTransferFrom","outputs":[],"stateMutability":"nonpayable","type":"function"},{"inputs":[{"internalType":"address","name":"operator","type":"address"},{"internalType":"bool","name":"approved","type":"bool"}],"name":"setApprovalForAll","outputs":[],"stateMutability":"nonpayable","type":"function"},{"inputs":[{"internalType":"address","name":"_contractAddress","type":"address"}],"name":"setAutomationRegistry","outputs":[],"stateMutability":"nonpayable","type":"function"},{"inputs":[{"internalType":"address","name":"_contractAddress","type":"address"}],"name":"setCommunitiesContract","outputs":[],"stateMutability":"nonpayable","type":"function"},{"inputs":[{"internalType":"uint256","name":"_feePrice","type":"uint256"}],"name":"setFee","outputs":[],"stateMutability":"nonpayable","type":"function"},{"inputs":[{"internalType":"uint256","name":"_maxreviews","type":"uint256"}],"name":"setMaxReviews","outputs":[],"stateMutability":"nonpayable","type":"function"},{"inputs":[{"internalType":"address","name":"_contractAddress","type":"address"}],"name":"setMembersContract","outputs":[],"stateMutability":"nonpayable","type":"function"},{"inputs":[{"internalType":"uint256","name":"_upkeepId","type":"uint256"}],"name":"setUpkkepId","outputs":[],"stateMutability":"nonpayable","type":"function"},{"inputs":[{"internalType":"address","name":"_contractAddress","type":"address"}],"name":"setV2Contract","outputs":[],"stateMutability":"nonpayable","type":"function"},{"inputs":[{"internalType":"string[]","name":"_deafultArray","type":"string[]"}],"name":"setdefaultConsenousTypes","outputs":[],"stateMutability":"nonpayable","type":"function"},{"inputs":[{"internalType":"uint256","name":"_communitySubmissionId","type":"uint256"},{"internalType":"string","name":"_content","type":"string"},{"internalType":"uint256","name":"_consensous","type":"uint256"}],"name":"submitReview","outputs":[{"internalType":"uint256","name":"","type":"uint256"}],"stateMutability":"nonpayable","type":"function"},{"inputs":[{"internalType":"uint256","name":"_postId","type":"uint256"},{"internalType":"string","name":"_communityName","type":"string"}],"name":"submitToCommunity","outputs":[{"internalType":"uint256","name":"","type":"uint256"}],"stateMutability":"payable","type":"function"},{"inputs":[{"internalType":"uint256","name":"","type":"uint256"},{"internalType":"uint256","name":"","type":"uint256"}],"name":"submmisionReviews","outputs":[{"internalType":"uint256","name":"","type":"uint256"}],"stateMutability":"view","type":"function"},{"inputs":[{"internalType":"bytes4","name":"interfaceId","type":"bytes4"}],"name":"supportsInterface","outputs":[{"internalType":"bool","name":"","type":"bool"}],"stateMutability":"view","type":"function"},{"inputs":[],"name":"symbol","outputs":[{"internalType":"string","name":"","type":"string"}],"stateMutability":"view","type":"function"},{"inputs":[{"internalType":"uint256","name":"index","type":"uint256"}],"name":"tokenByIndex","outputs":[{"internalType":"uint256","name":"","type":"uint256"}],"stateMutability":"view","type":"function"},{"inputs":[{"internalType":"address","name":"owner","type":"address"},{"internalType":"uint256","name":"index","type":"uint256"}],"name":"tokenOfOwnerByIndex","outputs":[{"internalType":"uint256","name":"","type":"uint256"}],"stateMutability":"view","type":"function"},{"inputs":[{"internalType":"uint256","name":"tokenId","type":"uint256"}],"name":"tokenURI","outputs":[{"internalType":"string","name":"","type":"string"}],"stateMutability":"view","type":"function"},{"inputs":[],"name":"totalSupply","outputs":[{"internalType":"uint256","name":"","type":"uint256"}],"stateMutability":"view","type":"function"},{"inputs":[{"internalType":"address","name":"from","type":"address"},{"internalType":"address","name":"to","type":"address"},{"internalType":"uint256","name":"tokenId","type":"uint256"}],"name":"transferFrom","outputs":[],"stateMutability":"nonpayable","type":"function"},{"inputs":[{"internalType":"uint256","name":"_tokenId","type":"uint256"}],"name":"transferNFTsToV2","outputs":[],"stateMutability":"nonpayable","type":"function"},{"inputs":[{"internalType":"address","name":"newOwner","type":"address"}],"name":"transferOwnership","outputs":[],"stateMutability":"nonpayable","type":"function"},{"inputs":[{"internalType":"address","name":"to","type":"address"},{"internalType":"uint256","name":"tokenId","type":"uint256"}],"name":"transferToken","outputs":[],"stateMutability":"nonpayable","type":"function"},{"inputs":[],"name":"upkeepId","outputs":[{"internalType":"uint256","name":"","type":"uint256"}],"stateMutability":"view","type":"function"}],"evm":{"bytecode":{"linkReferences":{},"object":"6080346200068057601f62004f9b38819003918201601f19168301916001600160401b038311848410176200030a5780849260609460405283398101031262000680576200004d81620006a4565b9060406200005e60208301620006a4565b910151906200006c62000684565b9260118452704c6561726e74676574686572506f73747360781b60208501526200009562000684565b60038152624c544760e81b6020820152845190946001600160401b0382116200030a578190620000c65f54620006b9565b601f811162000641575b50602090601f8311600114620005cd575f92620005c1575b50508160011b915f199060031b1c1916175f555b83516001600160401b0381116200030a576200011a600154620006b9565b601f811162000563575b50602094601f8211600114620004fa579481929394955f92620004ee575b50508160011b915f199060031b1c1916176001555b600a8054336001600160a01b0319821681179092556001600160a01b03167f8be0079c531659141344cd1fd0a4f28419497f9722a3daafe3b4186f6b6457e05f80a3604051606081016001600160401b038111828210176200030a57604052620001c062000684565b6012815271436f6e73656e736f75732050656e64696e6760701b60208201528152620001eb62000684565b60088152671058d8d95c1d195960c21b602082015260208201526200020f62000684565b600881526714995a9958dd195960c21b6020820152604082015260155460036015558060031062000448575b5060155f9081525f8051602062004f5b833981519152915b600382106200031e575050602180546001600160a01b03199081163317909155601a805482166001600160a01b03948516179055601b80549091169390921692909217905550601d55600b805460019081019091556013819055600f55601654680100000000000000008110156200030a576001810180601655811015620002f6575f90601682526020822001556064601f5560405161484e90816200070d8239f35b634e487b7160e01b5f52603260045260245ffd5b634e487b7160e01b5f52604160045260245ffd5b80518051906001600160401b0382116200030a576200033e8554620006b9565b601f811162000408575b50602090601f8311600114620003975792826001949360209386955f926200038b575b50505f19600383901b1c191690841b1786555b0193019101909162000253565b015190505f806200036b565b90855f5260205f20915f5b601f1985168110620003ef575083602093600196938796938794601f19811610620003d6575b505050811b0186556200037e565b01515f1960f88460031b161c191690555f8080620003c8565b91926020600181928685015181550194019201620003a2565b6200043690865f5260205f206005601f8601811c820192602087106200043d575b601f01901c0190620006f4565b5f62000348565b919250829162000429565b60155f525f8051602062004f5b833981519152907f55f448fdea98c4d29eb340757ef0a66cd03dbb9538908a6a81d96026b71ec4785b8183018110620004905750506200023b565b806200049f60019254620006b9565b80620004ae575b50016200047e565b601f81118314620004c557505f81555b5f620004a6565b5f90828252620004e4601f60208420920160051c8201858301620006f4565b81835555620004be565b015190505f8062000142565b601f1982169560015f5260205f20915f5b8881106200054a5750836001959697981062000531575b505050811b0160015562000157565b01515f1960f88460031b161c191690555f808062000522565b919260206001819286850151815501940192016200050b565b60015f52620005af907fb10e2d527612073b26eecdfd717e6a320cf44b4afac2b0732d9fcbe2b7fa0cf6601f840160051c81019160208510620005b6575b601f0160051c0190620006f4565b5f62000124565b9091508190620005a1565b015190505f80620000e8565b5f8080525f8051602062004f7b8339815191529350601f198516905b8181106200062857509084600195949392106200060f575b505050811b015f55620000fc565b01515f1960f88460031b161c191690555f808062000601565b92936020600181928786015181550195019301620005e9565b5f805262000679905f8051602062004f7b833981519152601f850160051c81019160208610620005b657601f0160051c0190620006f4565b5f620000d0565b5f80fd5b60408051919082016001600160401b038111838210176200030a57604052565b51906001600160a01b03821682036200068057565b90600182811c92168015620006e9575b6020831014620006d557565b634e487b7160e01b5f52602260045260245ffd5b91607f1691620006c9565b81811062000700575050565b5f8155600101620006f456fe60806040526004361015610011575f80fd5b5f3560e01c806301ffc9a7146103ff57806306fdde03146103fa578063081812fc146103f5578063095ea7b3146103f05780630b1e7f83146103eb5780631072cbea146103e65780631651902a146103e157806318160ddd146103dc57806323b872dd146103d75780632f745c59146103d2578063336c1ad7146103cd5780633c09203b146103c857806340731c24146103c357806342842e0e146103be5780634585e33b146103b95780634ed59812146103b45780634f6ccce7146103af5780635787a0cc146103aa5780635ff2d2aa146103a55780636352211e146103a05780636356eea41461039b57806369fe0e2d146103965780636c79bd2b1461039157806370a082311461038c578063715018a61461038757806374f0c641146103825780637c7198cc1461037d5780637d67e967146103785780638da5cb5b1461037357806393a018be1461030a57806395d89b411461036e578063990581b6146103695780639b1cb58e14610364578063a22cb4651461035f578063a59400411461035a578063ac97980d14610355578063ad2957ff14610350578063b88d4fde1461034b578063b9e2fc3e14610346578063bdf5db3914610341578063c02c64161461033c578063c17589d714610337578063c5dce24d14610332578063c8249d8a1461032d578063c87b56dd14610328578063d1a34aa314610323578063d242d34e1461031e578063d2aa789f14610319578063d3a3f77114610314578063d8db38071461030f578063de78ab7c1461030a578063de8b32c514610305578063e148577614610300578063e168b3a8146102fb578063e83ddcea146102f6578063e985e9c5146102f1578063ea487a92146102ec578063ed322bc7146102e7578063ee8eb507146102e2578063eeb0cf76146102dd578063f2fde38b146102d8578063f6a800ee146102d35763fa1396f5146102ce575f80fd5b6128a1565b612871565b6127db565b6127a4565b612767565b61274a565b6126ef565b61269f565b612613565b6125f6565b6125ce565b612548565b6119b1565b612461565b612406565b6123ad565b612325565b6122f7565b61220f565b611eef565b611e5f565b611e17565b611def565b611d8c565b611d52565b611cf3565b611cab565b611c81565b611c64565b611b80565b611b59565b611ab9565b6119db565b611989565b61191c565b61189f565b611882565b611822565b6117f7565b611786565b61171e565b6113cc565b611328565b6112e0565b6112b2565b611208565b6111eb565b610ec3565b610e9c565b610dee565b610d2f565b610c1b565b610b69565b610b40565b610aee565b610aa9565b61092f565b610883565b610618565b6105bc565b6104fc565b61041a565b6001600160e01b031981160361041657565b5f80fd5b3461041657602036600319011261041657602060043561043981610404565b63ffffffff60e01b1663780e9d6360e01b811490811561045f575b506040519015158152f35b6380ac58cd60e01b811491508115610491575b8115610480575b505f610454565b6301ffc9a760e01b1490505f610479565b635b5e139f60e01b81149150610472565b5f5b8381106104b35750505f910152565b81810151838201526020016104a4565b906020916104dc815180928185528580860191016104a2565b601f01601f1916010190565b9060206104f99281815201906104c3565b90565b34610416575f806003193601126105b95760405181805461051c81610704565b808452906001908181169081156105915750600114610556575b61055284610546818803826107c1565b604051918291826104e8565b0390f35b93508180526020938483205b82841061057e5750505081610552936105469282010193610536565b8054858501870152928501928101610562565b61055296506105469450602092508593915060ff191682840152151560051b82010193610536565b80fd5b346104165760203660031901126104165760206105da600435612d7e565b6040516001600160a01b039091168152f35b600435906001600160a01b038216820361041657565b602435906001600160a01b038216820361041657565b34610416576040366003190112610416576106316105ec565b60243561063d81612c88565b916001600160a01b0380841690821681146106b55761066f9361066a913314908115610671575b50612d11565b61324d565b005b6001600160a01b03165f9081526005602052604090206106af91506106a89033905b9060018060a01b03165f5260205260405f2090565b5460ff1690565b5f610664565b60405162461bcd60e51b815260206004820152602160248201527f4552433732313a20617070726f76616c20746f2063757272656e74206f776e656044820152603960f91b6064820152608490fd5b90600182811c92168015610732575b602083101461071e57565b634e487b7160e01b5f52602260045260245ffd5b91607f1691610713565b634e487b7160e01b5f52604160045260245ffd5b60a081019081106001600160401b0382111761076b57604052565b61073c565b608081019081106001600160401b0382111761076b57604052565b602081019081106001600160401b0382111761076b57604052565b604081019081106001600160401b0382111761076b57604052565b90601f801991011681019081106001600160401b0382111761076b57604052565b9060405191825f8254926107f584610704565b9081845260019485811690815f146108605750600114610820575b505061081e925003836107c1565b565b909391505f52602090815f20935f915b81831061084857505061081e93508201015f80610810565b85548884018501529485019487945091830191610830565b91505061081e94506020925060ff191682840152151560051b8201015f80610810565b34610416576020366003190112610416576004355f52600c60205261090060405f206105526108b1826107e2565b916109216108c1600183016107e2565b9160018060a01b036002820154169061090e6108eb60046108e4600385016107e2565b93016107e2565b9460405198899860a08a5260a08a01906104c3565b9088820360208a01526104c3565b91604087015285820360608701526104c3565b9083820360808501526104c3565b34610416576040366003190112610416576109486105ec565b60243561095481612c88565b336001600160a01b039091160361096f5761066f91336130ba565b60405162461bcd60e51b815260206004820152602560248201527f4f6e6c7920746865206f776e65722063616e207472616e7366657220746865206044820152643a37b5b2b760d91b6064820152608490fd5b634e487b7160e01b5f52603260045260245ffd5b6015548110156109ee5760155f5260205f2001905f90565b6109c2565b6016548110156109ee5760165f5260205f2001905f90565b601554156109ee5760155f9081525f805160206147d983398151915291565b601554600210156109ee5760155f9081527f55f448fdea98c4d29eb340757ef0a66cd03dbb9538908a6a81d96026b71ec47791565b601554600110156109ee5760155f9081527f55f448fdea98c4d29eb340757ef0a66cd03dbb9538908a6a81d96026b71ec47691565b80548210156109ee575f5260205f2001905f90565b34610416576040366003190112610416576024356004355f52601460205260405f20805482101561041657602091610ae091610a94565b90546040519160031b1c8152f35b34610416575f366003190112610416576020600854604051908152f35b6060906003190112610416576001600160a01b0390600435828116810361041657916024359081168103610416579060443590565b346104165761066f610b5136610b0b565b91610b64610b5f8433612f2a565b612e0e565b6130ba565b3461041657604036600319011261041657610b826105ec565b60243590610b8f81612c12565b821015610bc2576001600160a01b03165f9081526006602090815260408083209383529281529082902054915191825290f35b60405162461bcd60e51b815260206004820152602b60248201527f455243373231456e756d657261626c653a206f776e657220696e646578206f7560448201526a74206f6620626f756e647360a81b6064820152608490fd5b3461041657602036600319011261041657601c54600435906020906001600160a01b031691610c696001600160a01b03610c5881861615156146e2565b610c6183612c88565b163314614531565b610c8e81610c87610c82825f52600c60205260405f2090565b61457d565b9433612e74565b601c54610cb190610ca5906001600160a01b031681565b6001600160a01b031690565b60408401516001600160a01b03165f606086015193610cf386880151976080815191015190604051998a98899788966306b72f8f60e11b88526004880161472e565b03925af18015610d2a57610d0357005b61066f9060203d8111610d23575b610d1b81836107c1565b810190613d6e565b503d610d11565b61331f565b3461041657602036600319011261041657610d486105ec565b600a546001600160a01b039190610d629083163314612b7f565b1660018060a01b0319601b541617601b555f80f35b906104f99160208152610d96825160a0602084015260c08301906104c3565b9060a06080610dde610dba602087015195601f1996878783030160408801526104c3565b600180851b03604088015116606086015260608701518686830301848701526104c3565b94015192828503019101526104c3565b3461041657602036600319011261041657610552608060408051610e1181610750565b60609281848093528260208201525f84820152828082015201526004355f52600c602052610e8d6004825f20835194610e4986610750565b610e52826107e2565b8652610e60600183016107e2565b602087015260028201546001600160a01b031685870152610e83600383016107e2565b90860152016107e2565b60808301525191829182610d77565b346104165761066f610ead36610b0b565b9060405192610ebb8461078b565b5f8452612e87565b34610416576020366003190112610416576004356001600160401b038082116104165736602383011215610416578160040135908111610416576024818301019036821161041657602154336001600160a01b03918216149081156111dd575b501561117957602014610f3257005b6024610f3e920161441d565b5f80821315611169575060015b8115158061112b575b8061110d575b806110f2575b610f6657005b5f9161102f9115156001036110e257610f9b610f80610a5f565b506001610f95845f52600d60205260405f2090565b0161443c565b807f3ed188edba0c6b2d9b7a54cec2942f1cab56a63a4dcfdca5ff11706ffdf25b1e610fcf825f52600e60205260405f2090565b546001610fe4845f52600d60205260405f2090565b0190610ff56040519283928361451a565b0390a261100a815f52601760205260405f2090565b54601654906110188261307f565b8103611038575b50505f52601760205260405f2090565b5561066f61366e565b61109b61107a61107061106b7f2f5a4ee168dca9eaef284f1844a3d24d74ba63a5fccc947454fc07515c8b37749561307f565b6109f3565b90549060031b1c90565b611083836109f3565b90919082549060031b91821b915f19901b1916179055565b806110be6110b061107061106b60165461307f565b5f52601760205260405f2090565b556110cb611070826109f3565b604080519182526020820192909252a15f8061101f565b6110ed610f80610a2a565b610f9b565b50611105825f52601760205260405f2090565b541515610f60565b506002611122835f52600d60205260405f2090565b01541515610f5a565b506111616002611143845f52600d60205260405f2090565b01546003611159855f52600d60205260405f2090565b0154906130ad565b421015610f54565b611173909161442c565b90610f4b565b60405162461bcd60e51b815260206004820152603660248201527f4e6f742074686520636f6e7472616374206f776e6572206f72204175746f6d616044820152751d1a5bdb88149959da5cdd1c9e4810dbdb9d1c9858dd60521b6064820152608490fd5b90506019541633145f610f23565b34610416575f366003190112610416576020601f54604051908152f35b34610416576020366003190112610416576004356008548110156112585760085f527ff3f7a9fe364faab93b216da50a3214154f22a0a2b415b23a84c8169e8b636ee30154604051908152602090f35b60405162461bcd60e51b815260206004820152602c60248201527f455243373231456e756d657261626c653a20676c6f62616c20696e646578206f60448201526b7574206f6620626f756e647360a01b6064820152608490fd5b34610416576020366003190112610416576112d860018060a01b03600a54163314612b7f565b600435602055005b34610416576020366003190112610416576112f96105ec565b600a546001600160a01b0391906113139083163314612b7f565b1660018060a01b031960195416176019555f80f35b346104165760203660031901126104165760206105da600435612c88565b6040519061081e82610750565b6040519061081e82610770565b6001600160401b03811161076b57601f01601f191660200190565b92919261138782611360565b9161139560405193846107c1565b829481845281830111610416578281602093845f960137010152565b9080601f83011215610416578160206104f99335910161137b565b34610416576060366003190112610416576004356024356001600160401b038111610416576113ff9036906004016113b1565b9061146c60443591611427600261141e835f52600d60205260405f2090565b01541515613f5a565b601a5461143c906001600160a01b0316610ca5565b9261144f825f52600d60205260405f2090565b6040518095626e7c3160e91b825281805f97889560048301614103565b03915afa928315610d2a5761154e9481946116fa575b5061148f60018311614114565b6114a86114a06015548651906130ad565b83111561415f565b6114e16114dc6114d86106a86114c6875f52601860205260405f2090565b335f9081526020919091526040902090565b1590565b6141a6565b6115076114fa33610693865f52601860205260405f2090565b805460ff19166001179055565b601b5460209061151f906001600160a01b0316610ca5565b611531855f52600d60205260405f2090565b9060405180809981946302b5df5960e01b835233600484016141fc565b03915afa928315610d2a5761165e966116599683956116a2575b50611651907fdf5898210dfd85b69a1551c8ec0bb02719a41f3283eadd1145b9bffc9f2e1730949596601554808811155f1461167c5750506115fb6115bd6115b76115b28961307f565b6109d6565b506107e2565b965b6115c7611346565b3381529083602083015260408201528760608201528860808201526115f66013545f52601260205260405f2090565b614232565b611619611610845f52601460205260405f2090565b601354906135f6565b601354968796604051958695897f953de3727de1848ea7329bee97a44132bdd8271d8d663eb90bc2772f21541ec8339380a48461434c565b0390a2613752565b601355565b61055261166c60135461307f565b6040519081529081906020820190565b6115fb9161169561169061169b938b613092565b61307f565b9061421e565b51966115bf565b7fdf5898210dfd85b69a1551c8ec0bb02719a41f3283eadd1145b9bffc9f2e1730949550906116ea6116519260203d81116116f3575b6116e281836107c1565b810190613dc8565b95945090611568565b503d6116d8565b6117179194503d8086833e61170f81836107c1565b810190613fa2565b925f611482565b346104165760203660031901126104165761174460018060a01b03600a54163314612b7f565b600435601d55005b602090816040818301928281528551809452019301915f5b828110611772575050505090565b835185529381019392810192600101611764565b3461041657602080600319360112610416576004355f526014815260405f209060405190818184549182815201935f52815f20915f905b8282106117e057610552856117d4818903826107c1565b6040519182918261174c565b8354865294850194600193840193909101906117bd565b3461041657602036600319011261041657602061181a6118156105ec565b612c12565b604051908152f35b34610416575f806003193601126105b957600a5481906001600160a01b0381169061184e338314612b7f565b6001600160a01b031916600a557f8be0079c531659141344cd1fd0a4f28419497f9722a3daafe3b4186f6b6457e08280a380f35b34610416575f366003190112610416576020601654604051908152f35b3461041657604036600319011261041657602060ff6118e16118bf610602565b6004355f526018845260405f209060018060a01b03165f5260205260405f2090565b54166040519015158152f35b9060406003198301126104165760043591602435906001600160401b038211610416576104f9916004016113b1565b34610416577f0b290e01b548ae78ace76449298ed234c42194d80af9f7dfe02fc4f7de07b9d361194b366118ed565b9061196861195882612c88565b6001600160a01b03163314614531565b61198460405192839283526040602084015260408301906104c3565b0390a1005b34610416575f36600319011261041657600a546040516001600160a01b039091168152602090f35b34610416576020366003190112610416576004355f526017602052602060405f2054604051908152f35b34610416575f806003193601126105b9576040518160018054906119fe82610704565b808552918181169081156105915750600114611a245761055284610546818803826107c1565b80945082526020938483205b828410611a4c5750505081610552936105469282010193610536565b8054858501870152928501928101611a30565b6020815260018060a01b03825116602082015260a06080611ab0611a91602086015184604087015260c08601906104c3565b604086015160608601526060860151601f1986830301848701526104c3565b93015191015290565b346104165760203660031901126104165761055260405f60808251611add81610750565b82815260606020820152828482015260608082015201526004355f526012602052805f20906004815192611b1084610750565b80546001600160a01b03168452611b29600182016107e2565b6020850152600281015483850152611b43600382016107e2565b6060850152015460808301525191829182611a5f565b34610416575f366003190112610416576020601e54604051908152f35b8015150361041657565b3461041657604036600319011261041657611b996105ec565b602435611ba581611b76565b6001600160a01b03821691338314611c235781611be0611bf192335f52600560205260405f209060018060a01b03165f5260205260405f2090565b9060ff801983541691151516179055565b604051901515815233907f17307eab39ab6107e8899845ad3d59bd9653f200f220920489ca2b5937696c3190602090a3005b60405162461bcd60e51b815260206004820152601960248201527822a9219b99189d1030b8383937bb32903a379031b0b63632b960391b6044820152606490fd5b34610416575f366003190112610416576020600f54604051908152f35b34610416576020366003190112610416576004355f52600e602052602060405f2054604051908152f35b3461041657602036600319011261041657611cc46105ec565b600a546001600160a01b039190611cde9083163314612b7f565b1660018060a01b0319601a541617601a555f80f35b3461041657608036600319011261041657611d0c6105ec565b611d14610602565b606435916001600160401b038311610416573660238401121561041657611d4861066f93369060248160040135910161137b565b9160443591612e87565b3461041657602036600319011261041657600480355f90815260126020908152604091829020600281015493015482519384529083015290f35b34610416575f806003193601126105b957604051601680548083529083526020808301935f805160206147f983398151915292915b828210611dd857610552856117d4818903826107c1565b835486529485019460019384019390910190611dc1565b34610416575f36600319011261041657601a546040516001600160a01b039091168152602090f35b3461041657602036600319011261041657611e306105ec565b600a546001600160a01b039190611e4a9083163314612b7f565b1660018060a01b0319601c541617601c555f80f35b34610416576020366003190112610416576004355f52600d602052611eb960405f20611e8a816107e2565b90611e97600182016107e2565b611ec760036002840154930154916040519586956080875260808701906104c3565b9085820360208701526104c3565b91604084015260608301520390f35b6040906104f993921515815281602082015201906104c3565b34610416575f806003193601126105b95780808060165480611f45575b611f2884611f3687604051938491602083019190602083019252565b03601f1981018452836107c1565b61055260405192839283611ed6565b826001805b83811061218b575050505080611f61575b80611f0c565b601a5491935090611f7a906001600160a01b0316610ca5565b611f8c825f52600d60205260405f2090565b93604091606083518092632691798960e01b82528180611fb060049b8c8301614103565b03915afa928315610d2a57829083928495612155575b50611fe1611fdc875f52601460205260405f2090565b614390565b97611feb8761478b565b885194838610156120145750505050505050611f28925061200e611f3691614408565b92611f5b565b80948196601f54908181115f1461214d5750925b825b84811061209257505050505050611f289650908291611f3695949315908115612088575b50156120655750505061206090614408565b61200e565b90612072612077926143f2565b613760565b10155f0361200e5761206090614408565b905082105f61204e565b6120bf866120a18f849061421e565b51815180938192635cf17e1f60e11b83528783019190602083019252565b0381305afa8015610d2a5784908692879161211a575b5010156120ec575b506120e790613752565b61202a565b986120f8600291613752565b9914612105575b5f6120dd565b966121126120e791613752565b9790506120ff565b905061213d919250883d8a11612146575b61213581836107c1565b8101906143dc565b9190915f6120d5565b503d61212b565b905092612028565b9150935061217a915060603d8111612184575b61217281836107c1565b810190614375565b919091935f611fc6565b503d612168565b6121c060026121ad61219f611070856109f3565b5f52600d60205260405f2090565b0154600361115961219f611070866109f3565b42811115806121fd575b6121de575b506121d990613752565b611f4a565b94509150809550946121d96121f5611070846109f3565b9492906121cf565b5083811115806121ca575083156121ca565b34610416576020366003190112610416576004355f818152600260205260409020546001600160a01b03161561229a57612247612cff565b805115612288576105466122749161227a6122646105529561378f565b60405194859360208501906123c9565b906123c9565b03601f1981018352826107c1565b5050610552612295612cff565b610546565b60405162461bcd60e51b815260206004820152602f60248201527f4552433732314d657461646174613a2055524920717565727920666f72206e6f60448201526e3732bc34b9ba32b73a103a37b5b2b760891b6064820152608490fd5b346104165760203660031901126104165761231d60018060a01b03600a54163314612b7f565b600435601f55005b34610416576080366003190112610416576001600160401b03600435818111610416576123569036906004016113b1565b906024358181116104165761236f9036906004016113b1565b91604435828111610416576123889036906004016113b1565b60643592831161041657610552936123a761166c9436906004016113b1565b92613ad4565b34610416575f3660031901126104165760208054604051908152f35b906123dc602092828151948592016104a2565b0190565b6020906123fa9282604051948386809551938492016104a2565b82019081520301902090565b346104165760206124388161241a366118ed565b905f526011825260405f2082604051948386809551938492016104a2565b82019081520301902054604051908152f35b6001600160401b03811161076b5760051b60200190565b3461041657602080600319360112610416576001600160401b03600435818111610416573660238201121561041657806004013561249e8161244a565b926124ac60405194856107c1565b818452848401906024809360051b8501019336851161041657838101925b8584106124da5761066f876145de565b83358381116104165788916124f583928836918701016113b1565b8152019301926124ca565b6020815260806060612536612520855184602087015260a08601906104c3565b6020860151858203601f190160408701526104c3565b93604081015182850152015191015290565b346104165760203660031901126104165761055260405f6060825161256c81610770565b818152816020820152828482015201526004355f52600d602052805f2090600381519261259884610770565b6125a1816107e2565b84526125af600182016107e2565b6020850152600281015483850152015460608301525191829182612500565b34610416575f36600319011261041657601b546040516001600160a01b039091168152602090f35b34610416575f366003190112610416576020601354604051908152f35b34610416576020366003190112610416576004355f90815260126020526040902080546001600160a01b031661264b600183016107e2565b9161269560028201546004612662600385016107e2565b93015492612682604051968796875260a0602088015260a08701906104c3565b91604086015284820360608601526104c3565b9060808301520390f35b3461041657604036600319011261041657602060ff6118e16126bf6105ec565b6126c7610602565b6001600160a01b039182165f9081526005865260408082209290931681526020919091522090565b3461041657602036600319011261041657600435805f52600d60205261271d600260405f2001541515613f5a565b5f52600d602052610552612736600160405f20016107e2565b6040519182916020835260208301906104c3565b34610416575f366003190112610416576020601d54604051908152f35b34610416576020366003190112610416576004356016548110156104165760165f525f805160206147f98339815191520154604051908152602090f35b34610416576040366003190112610416576024356004355f52601060205260405f20805482101561041657602091610ae091610a94565b34610416576020366003190112610416576127f46105ec565b600a546001600160a01b039061280d9082163314612b7f565b81161561281d5761066f90612bca565b60405162461bcd60e51b815260206004820152602660248201527f4f776e61626c653a206e6577206f776e657220697320746865207a65726f206160448201526564647265737360d01b6064820152608490fd5b34610416575f3660031901126104165761289660018060a01b03600a54163314612b7f565b600b80546001019055005b6128aa366118ed565b5f828152600260205260409020546128cc906001600160a01b03161515613cd4565b6128eb60026128e3845f52600d60205260405f2090565b015415613d16565b601a54612900906001600160a01b0316610ca5565b60408051637b7fcfed60e01b815290926020929183818061292485600483016104e8565b0381865afa8015610d2a57612940915f91612b62575b50613d83565b8284518093633bebe05160e01b8252818061295e86600483016104e8565b03915afa8015610d2a5761055295612a9e94612a99945f93612b3f575b506129d190612988611353565b90858252612994612cff565b908201908152428983015284606083015284155f14612ab8576129b5613e1c565b90525b6129cc600f545f52600d60205260405f2090565b613e45565b6129ef6129e6825f52601060205260405f2090565b600f54906135f6565b80612a04600f545f52600e60205260405f2090565b557fd3f28a1c655091033012bc55d258bf3cbd4ea4fb8bc2ff81c626a2aad9354e46612a91612a79600f5495868581612a4f612a4982995f52601160205260405f2090565b856123e0565b557fe4c157bdf18b292c67a85f8afa9036d1fd70e345be3ad305fafc7841c4801a3f5f80a3613f3a565b88514281526020810195909552939081906040820190565b0390a3613752565b600f55565b612aa9600f5461307f565b90519081529081906020820190565b612ac5601d543414613dd7565b612ad06115b7610a0b565b9052612add600f546135c2565b612ae860165461307f565b612afc600f545f52601760205260405f2090565b557f2f5a4ee168dca9eaef284f1844a3d24d74ba63a5fccc947454fc07515c8b3774600f54612b2c60165461307f565b8a519182526020820152604090a16129b8565b819350612b5b906129d1923d86116116f3576116e281836107c1565b929061297b565b612b799150853d8711610d2357610d1b81836107c1565b5f61293a565b15612b8657565b606460405162461bcd60e51b815260206004820152602060248201527f4f776e61626c653a2063616c6c6572206973206e6f7420746865206f776e65726044820152fd5b600a80546001600160a01b039283166001600160a01b0319821681179092559091167f8be0079c531659141344cd1fd0a4f28419497f9722a3daafe3b4186f6b6457e05f80a3565b6001600160a01b03168015612c30575f52600360205260405f205490565b60405162461bcd60e51b815260206004820152602a60248201527f4552433732313a2062616c616e636520717565727920666f7220746865207a65604482015269726f206164647265737360b01b6064820152608490fd5b5f908152600260205260409020546001600160a01b03168015612ca85790565b60405162461bcd60e51b815260206004820152602960248201527f4552433732313a206f776e657220717565727920666f72206e6f6e657869737460448201526832b73a103a37b5b2b760b91b6064820152608490fd5b60405190612d0c8261078b565b5f8252565b15612d1857565b60405162461bcd60e51b815260206004820152603860248201527f4552433732313a20617070726f76652063616c6c6572206973206e6f74206f776044820152771b995c881b9bdc88185c1c1c9bdd995908199bdc88185b1b60421b6064820152608490fd5b5f818152600260205260409020546001600160a01b031615612db4575f908152600460205260409020546001600160a01b031690565b60405162461bcd60e51b815260206004820152602c60248201527f4552433732313a20617070726f76656420717565727920666f72206e6f6e657860448201526b34b9ba32b73a103a37b5b2b760a11b6064820152608490fd5b15612e1557565b60405162461bcd60e51b815260206004820152603160248201527f4552433732313a207472616e736665722063616c6c6572206973206e6f74206f6044820152701ddb995c881b9bdc88185c1c1c9bdd9959607a1b6064820152608490fd5b909161081e9260405192610ebb8461078b565b9161081e9391612eae93612e9e610b5f8433612f2a565b612ea98383836130ba565b613418565b612f06565b60809060208152603260208201527f4552433732313a207472616e7366657220746f206e6f6e20455243373231526560408201527131b2b4bb32b91034b6b83632b6b2b73a32b960711b60608201520190565b15612f0d57565b60405162461bcd60e51b815280612f2660048201612eb3565b0390fd5b5f828152600260205260409020546001600160a01b031615612fb957612f4f82612c88565b6001600160a01b038281168282168114949091908515612fa1575b5050508215612f7857505090565b6001600160a01b03165f90815260056020526040902060ff9250612f9c9190610693565b541690565b612fae9192939550612d7e565b1614915f8080612f6a565b60405162461bcd60e51b815260206004820152602c60248201527f4552433732313a206f70657261746f7220717565727920666f72206e6f6e657860448201526b34b9ba32b73a103a37b5b2b760a11b6064820152608490fd5b1561301a57565b60405162461bcd60e51b8152602060048201526024808201527f4552433732313a207472616e7366657220746f20746865207a65726f206164646044820152637265737360e01b6064820152608490fd5b634e487b7160e01b5f52601160045260245ffd5b5f1981019190821161308d57565b61306b565b9190820391821161308d57565b906001820180921161308d57565b9190820180921161308d57565b906130c483612c88565b6001600160a01b0383811692909182168390036131a35761311d61317d928216946130f0861515613013565b6130fb87848361347e565b613104876131fa565b6001600160a01b03165f90815260036020526040902090565b613127815461307f565b90556001600160a01b0381165f90815260036020526040902061314a815461309f565b905561315e855f52600260205260405f2090565b80546001600160a01b0319166001600160a01b03909216919091179055565b7fddf252ad1be2c89b69c2b068fc378daa952ba7f163c4a11628f55a4df523b3ef5f80a4565b60405162461bcd60e51b815260206004820152602960248201527f4552433732313a207472616e73666572206f6620746f6b656e2074686174206960448201526839903737ba1037bbb760b91b6064820152608490fd5b5f81815260046020526040812080546001600160a01b03191690556001600160a01b0361322683612c88565b167f8c5be1e5ebec7d5bd14f71427d1e84f3dd0314c0f7b2291e5b200ac8c7c3b9258280a4565b5f82815260046020526040902080546001600160a01b0319166001600160a01b0383161790556001600160a01b038061328584612c88565b169116907f8c5be1e5ebec7d5bd14f71427d1e84f3dd0314c0f7b2291e5b200ac8c7c3b9255f80a4565b9081602091031261041657516104f981610404565b6104f9939260809260018060a01b031682525f6020830152604082015281606082015201906104c3565b6001600160a01b0391821681529116602082015260408101919091526080606082018190526104f9929101906104c3565b6040513d5f823e3d90fd5b3d15613354573d9061333b82611360565b9161334960405193846107c1565b82523d5f602084013e565b606090565b909190803b156134105761338a6020915f93604051948580948193630a85bd0160e11b998a845233600485016132c4565b03926001600160a01b03165af15f91816133e0575b506133d2576133ac61332a565b805190816133cd5760405162461bcd60e51b815280612f2660048201612eb3565b602001fd5b6001600160e01b0319161490565b61340291925060203d8111613409575b6133fa81836107c1565b8101906132af565b905f61339f565b503d6133f0565b505050600190565b92909190823b1561344a5761338a926020925f604051809681958294630a85bd0160e11b9a8b855233600486016132ee565b50505050600190565b9061345d81613619565b6001600160a01b0382166134755761081e91506136ac565b61081e9161358b565b9091906001600160a01b0380821691826134b8575061349c83613619565b8316806134af57505061081e91506136ac565b03613475575050565b81851683036134c8575b5061349c565b6134d181612c12565b5f19810190811161308d57613535906135285f938785526007602052604085205483810361353c575b508461350e895f52600760205260405f2090565b556001600160a01b03165f90815260066020526040902090565b905f5260205260405f2090565b555f6134c2565b878652600660205260408620848752602052613584604087205480613575846135288760018060a01b03165f52600660205260405f2090565b555f52600760205260405f2090565b555f6134fa565b60409061359781612c12565b925f9160018060a01b0316825260066020528282208483526020528083832055815260076020522055565b601654600160401b81101561076b5760018101806016558110156109ee5760165f525f805160206147f98339815191520155565b80549190600160401b83101561076b578261108391600161081e95018155610a94565b600854815f5260096020528060405f2055600160401b81101561076b5760018101806008558110156109ee5760085f527ff3f7a9fe364faab93b216da50a3214154f22a0a2b415b23a84c8169e8b636ee30155565b6016548015613698575f198181019190818310156109ee575f916016835260208320010155601655565b634e487b7160e01b5f52603160045260245ffd5b600880545f1992908381019080821161308d575f9280845260096020528160408520549310156109ee57848452858260208620010154918310156109ee57839261370c61371b9387865280836020882001555f52600960205260405f2090565b555f52600960205260405f2090565b55815492831561373e5780840193808510156109ee578383526020832001015555565b634e487b7160e01b82526031600452602482fd5b5f19811461308d5760010190565b811561376a570490565b634e487b7160e01b5f52601260045260245ffd5b9081518110156109ee570160200190565b801561382b57805f908282935b61381757506137aa83611360565b926137b860405194856107c1565b80845281601f196137c883611360565b013660208701375b6137da5750505090565b6137e39061307f565b90600a906030828206810180911161308d5760f81b6001600160f81b031916841a61380e848761377e565b530490816137d0565b92613823600a91613752565b93048061379c565b50604051613838816107a6565b60018152600360fc1b602082015290565b818110613854575050565b5f8155600101613849565b9190601f811161386e57505050565b61081e925f5260205f20906020601f840160051c83019310613898575b601f0160051c0190613849565b909150819061388b565b91909182516001600160401b03811161076b576138c9816138c38454610704565b8461385f565b602080601f83116001146139035750819293945f926138f8575b50508160011b915f199060031b1c1916179055565b015190505f806138e3565b90601f19831695613917855f5260205f2090565b925f905b8882106139525750508360019596971061393a575b505050811b019055565b01515f1960f88460031b161c191690555f8080613930565b8060018596829496860151815501950193019061391b565b91909182519283516001600160401b03811161076b576139948161398e8554610704565b8561385f565b6020948590601f8311600114613a275761081e959683608094600496946139dc945f92613a1c575b50508160011b915f199060031b1c19161786555b820151600186016138a2565b60408101516002850180546001600160a01b0319166001600160a01b03909216919091179055613a136060820151600386016138a2565b015191016138a2565b015190505f806139bc565b90601f19831691613a3b865f5260205f2090565b925f5b818110613a86575084600496946139dc9461081e9a9b9460809860019510613a6e575b505050811b0186556139d0565b01515f1960f88460031b161c191690555f8080613a61565b929389600181928786015181550195019301613a3e565b91613ac690613ab86104f995936060865260608601906104c3565b9084820360208601526104c3565b9160408184039101526104c3565b909192600b54936040908151613ae981610750565b84815285602082015233838201528160608201528360808201528251613b0e8161078b565b5f81523315613c455792613c3f92613c0289989693613bdd612eae7f41d9ee46553ca41d124afede342bf442c55b026baacc09a8e03e44ac6a05fae09a98613b74613b6f6114d88f5f52600260205260018060a01b0360405f205416151590565b613c88565b613b7e8d33613453565b335f908152600360205260409020613b96815461309f565b9055613baf8d61315e33915f52600260205260405f2090565b8c335f7fddf252ad1be2c89b69c2b068fc378daa952ba7f163c4a11628f55a4df523b3ef8180a48c33613359565b613beb6001600b5401600b55565b613bfd8a5f52600c60205260405f2090565b61396a565b877ff186850512b83bbf0f335f7c800bedbe0614ce9d5dbf664fd16bb7a2ef97683a835180613c323395826104e8565b0390a35193849384613a9d565b0390a290565b6064845162461bcd60e51b815260206004820152602060248201527f4552433732313a206d696e7420746f20746865207a65726f20616464726573736044820152fd5b15613c8f57565b60405162461bcd60e51b815260206004820152601c60248201527f4552433732313a20746f6b656e20616c7265616479206d696e746564000000006044820152606490fd5b15613cdb57565b60405162461bcd60e51b8152602060048201526013602482015272141bdcdd08191bd95cc81b9bdd08195e1a5cdd606a1b6044820152606490fd5b15613d1d57565b60405162461bcd60e51b815260206004820152602360248201527f506f737420616c7265616479207375626d697474656420746f20636f6d6d756e60448201526269747960e81b6064820152608490fd5b9081602091031261041657516104f981611b76565b15613d8a57565b60405162461bcd60e51b815260206004820152601660248201527514dd589a9958dd08191bd95cc81b9bdd08195e1a5cdd60521b6044820152606490fd5b90816020910312610416575190565b15613dde57565b60405162461bcd60e51b81526020600482015260166024820152754d7573742073656e642070726f706f73616c2066656560501b6044820152606490fd5b60405190613e29826107a6565b600d82526c4e6f20436f6e73656e736f757360981b6020830152565b90805180516001600160401b03811161076b57613e6c81613e668654610704565b8661385f565b6020918290601f8311600114613eca57928260039593613eae936060965f92613ebf575b50508160011b915f1990881b1c1916178655820151600186016138a2565b604081015160028501550151910155565b015190505f80613e90565b90601f19831691613ede875f5260205f2090565b925f5b818110613f23575093613eae93606096936001938360039a9810613f0c57505050811b0186556139d0565b01515f19838a1b60f8161c191690555f8080613a61565b929386600181928786015181550195019301613ee1565b613f52906020604051928284809451938492016104a2565b810103902090565b15613f6157565b60405162461bcd60e51b815260206004820152601960248201527814dd589b5a5cdcda5bdb88191bd95cc81b9bdd08195e1a5cdd603a1b6044820152606490fd5b60209081818403126104165780516001600160401b039182821161041657019083601f83011215610416578151613fd88161244a565b94604092613fe8845197886107c1565b828752858088019360051b8601019482861161041657868101935b86851061401557505050505050505090565b84518381116104165782019084603f8301121561041657888201519061403a82611360565b614046895191826107c1565b82815286898486010111610416576140678b949385948b86850191016104a2565b815201940193614003565b905f929180549161408283610704565b9182825260019384811690815f146140e057506001146140a3575b50505050565b90919394505f52602092835f2092845f945b8386106140cc57505050500101905f80808061409d565b8054858701830152940193859082016140b5565b9294505050602093945060ff191683830152151560051b0101905f80808061409d565b9060206104f9928181520190614072565b1561411b57565b606460405162461bcd60e51b815260206004820152602060248201527f436f6e73656e736f7573206d75732062652067726561746572207468616e20316044820152fd5b1561416657565b60405162461bcd60e51b8152602060048201526018602482015277436f6e73656e736f7573204e6f7420496e20426f756e647360401b6044820152606490fd5b156141ad57565b60405162461bcd60e51b815260206004820152602160248201527f596f7527766520616c7265616479207265766965776564207468697320706f736044820152601d60fa1b6064820152608490fd5b6001600160a01b0390911681526040602082018190526104f992910190614072565b80518210156109ee5760209160051b010190565b815181546001600160a01b0319166001600160a01b039190911617815590600190818301602080830151938451916001600160401b03831161076b5761427c83613e668654610704565b80601f84116001146142da57509180809260809695946004985f946142cf575b50501b915f199060031b1c19161790555b604081015160028501556142c86060820151600386016138a2565b0151910155565b015192505f8061429c565b91939495601f1984166142f0875f5260205f2090565b935f905b828210614335575050916004979593918560809896941061431d575b505050811b0190556142ad565b01515f1960f88460031b161c191690555f8080614310565b8088869782949787015181550196019401906142f4565b6143626104f994926060835260608301906104c3565b92602082015260408184039101526104c3565b90816060910312610416578051916040602083015192015190565b906040519182815491828252602092838301915f52835f20935f905b8282106143c25750505061081e925003836107c1565b8554845260019586019588955093810193909101906143ac565b9190826040910312610416576020825192015190565b9060648202918083046064149015171561308d57565b90815f03918083055f19149015171561308d57565b90816020910312610416573590565b600160ff1b811461308d575f0390565b919091828114614515576144508354610704565b6001600160401b03811161076b5761446c816138c38454610704565b5f93601f82116001146144a45793819293945f926144995750508160011b915f199060031b1c1916179055565b015490505f806138e3565b6144b6601f198316915f5260205f2090565b946144c4845f5260205f2090565b91815b8181106144fd575095836001959697106144e557505050811b019055565b01545f1960f88460031b161c191690555f8080613930565b878301548455600193840193909201916020016144c7565b509050565b6040906104f9939281528160208201520190614072565b1561453857565b60405162461bcd60e51b815260206004820152601a60248201527f4e6f7420746865206f776e6572206f662074686520746f6b656e0000000000006044820152606490fd5b9060405161458a81610750565b60806145d96004839561459c816107e2565b85526145aa600182016107e2565b602086015260028101546001600160a01b031660408601526145ce600382016107e2565b6060860152016107e2565b910152565b6145f360018060a01b03600a54163314612b7f565b805190600160401b821161076b5760155482601555808310614656575b5060155f526020908101905f805160206147d98339815191525f925b84841061463a575050505050565b6001838261464a839451866138a2565b0192019301929061462c565b60155f9081525f805160206147d98339815191529182019184015b82811061467f575050614610565b8061468c60019254610704565b80614699575b5001614671565b601f9081811184146146b15750508281555b5f614692565b836146d1926146c3855f5260205f2090565b920160051c82019101613849565b5f81815260208120818355556146ab565b156146e957565b60405162461bcd60e51b815260206004820152601b60248201527f563220636f6e74726163742061646472657373206e6f742073657400000000006044820152606490fd5b94919361476161477d946104f9989661476f94895260018060a01b0316602089015260c0604089015260c08801906104c3565b9086820360608801526104c3565b9084820360808601526104c3565b9160a08184039101526104c3565b60405190602082019063f82c50f160e01b825260248301526024825260608201908282106001600160401b0383111761076b575f92839260405251906a636f6e736f6c652e6c6f675afa5056fe55f448fdea98c4d29eb340757ef0a66cd03dbb9538908a6a81d96026b71ec475d833147d7dc355ba459fc788f669e58cfaf9dc25ddcd0702e87d69c7b5124289a2646970667358221220a22cd0b234f81c9eefbfaeff8090ba57c890011a275a21f9430eb973c06b36ab64736f6c6343000814003355f448fdea98c4d29eb340757ef0a66cd03dbb9538908a6a81d96026b71ec475290decd9548b62a8d60345a988386fc84ba6bc95484008f6362f93160ef3e563","opcodes":"PUSH1 0x80 CALLVALUE PUSH3 0x680 JUMPI PUSH1 0x1F PUSH3 0x4F9B CODESIZE DUP2 SWAP1 SUB SWAP2 DUP3 ADD PUSH1 0x1F NOT AND DUP4 ADD SWAP2 PUSH1 0x1 PUSH1 0x1 PUSH1 0x40 SHL SUB DUP4 GT DUP5 DUP5 LT OR PUSH3 0x30A JUMPI DUP1 DUP5 SWAP3 PUSH1 0x60 SWAP5 PUSH1 0x40 MSTORE DUP4 CODECOPY DUP2 ADD SUB SLT PUSH3 0x680 JUMPI PUSH3 0x4D DUP2 PUSH3 0x6A4 JUMP JUMPDEST SWAP1 PUSH1 0x40 PUSH3 0x5E PUSH1 0x20 DUP4 ADD PUSH3 0x6A4 JUMP JUMPDEST SWAP2 ADD MLOAD SWAP1 PUSH3 0x6C PUSH3 0x684 JUMP JUMPDEST SWAP3 PUSH1 0x11 DUP5 MSTORE PUSH17 0x4C6561726E74676574686572506F737473 PUSH1 0x78 SHL PUSH1 0x20 DUP6 ADD MSTORE PUSH3 0x95 PUSH3 0x684 JUMP JUMPDEST PUSH1 0x3 DUP2 MSTORE PUSH3 0x4C5447 PUSH1 0xE8 SHL PUSH1 0x20 DUP3 ADD MSTORE DUP5 MLOAD SWAP1 SWAP5 PUSH1 0x1 PUSH1 0x1 PUSH1 0x40 SHL SUB DUP3 GT PUSH3 0x30A JUMPI DUP2 SWAP1 PUSH3 0xC6 PUSH0 SLOAD PUSH3 0x6B9 JUMP JUMPDEST PUSH1 0x1F DUP2 GT PUSH3 0x641 JUMPI JUMPDEST POP PUSH1 0x20 SWAP1 PUSH1 0x1F DUP4 GT PUSH1 0x1 EQ PUSH3 0x5CD JUMPI PUSH0 SWAP3 PUSH3 0x5C1 JUMPI JUMPDEST POP POP DUP2 PUSH1 0x1 SHL SWAP2 PUSH0 NOT SWAP1 PUSH1 0x3 SHL SHR NOT AND OR PUSH0 SSTORE JUMPDEST DUP4 MLOAD PUSH1 0x1 PUSH1 0x1 PUSH1 0x40 SHL SUB DUP2 GT PUSH3 0x30A JUMPI PUSH3 0x11A PUSH1 0x1 SLOAD PUSH3 0x6B9 JUMP JUMPDEST PUSH1 0x1F DUP2 GT PUSH3 0x563 JUMPI JUMPDEST POP PUSH1 0x20 SWAP5 PUSH1 0x1F DUP3 GT PUSH1 0x1 EQ PUSH3 0x4FA JUMPI SWAP5 DUP2 SWAP3 SWAP4 SWAP5 SWAP6 PUSH0 SWAP3 PUSH3 0x4EE JUMPI JUMPDEST POP POP DUP2 PUSH1 0x1 SHL SWAP2 PUSH0 NOT SWAP1 PUSH1 0x3 SHL SHR NOT AND OR PUSH1 0x1 SSTORE JUMPDEST PUSH1 0xA DUP1 SLOAD CALLER PUSH1 0x1 PUSH1 0x1 PUSH1 0xA0 SHL SUB NOT DUP3 AND DUP2 OR SWAP1 SWAP3 SSTORE PUSH1 0x1 PUSH1 0x1 PUSH1 0xA0 SHL SUB AND PUSH32 0x8BE0079C531659141344CD1FD0A4F28419497F9722A3DAAFE3B4186F6B6457E0 PUSH0 DUP1 LOG3 PUSH1 0x40 MLOAD PUSH1 0x60 DUP2 ADD PUSH1 0x1 PUSH1 0x1 PUSH1 0x40 SHL SUB DUP2 GT DUP3 DUP3 LT OR PUSH3 0x30A JUMPI PUSH1 0x40 MSTORE PUSH3 0x1C0 PUSH3 0x684 JUMP JUMPDEST PUSH1 0x12 DUP2 MSTORE PUSH18 0x436F6E73656E736F75732050656E64696E67 PUSH1 0x70 SHL PUSH1 0x20 DUP3 ADD MSTORE DUP2 MSTORE PUSH3 0x1EB PUSH3 0x684 JUMP JUMPDEST PUSH1 0x8 DUP2 MSTORE PUSH8 0x1058D8D95C1D1959 PUSH1 0xC2 SHL PUSH1 0x20 DUP3 ADD MSTORE PUSH1 0x20 DUP3 ADD MSTORE PUSH3 0x20F PUSH3 0x684 JUMP JUMPDEST PUSH1 0x8 DUP2 MSTORE PUSH8 0x14995A9958DD1959 PUSH1 0xC2 SHL PUSH1 0x20 DUP3 ADD MSTORE PUSH1 0x40 DUP3 ADD MSTORE PUSH1 0x15 SLOAD PUSH1 0x3 PUSH1 0x15 SSTORE DUP1 PUSH1 0x3 LT PUSH3 0x448 JUMPI JUMPDEST POP PUSH1 0x15 PUSH0 SWAP1 DUP2 MSTORE PUSH0 DUP1 MLOAD PUSH1 0x20 PUSH3 0x4F5B DUP4 CODECOPY DUP2 MLOAD SWAP2 MSTORE SWAP2 JUMPDEST PUSH1 0x3 DUP3 LT PUSH3 0x31E JUMPI POP POP PUSH1 0x21 DUP1 SLOAD PUSH1 0x1 PUSH1 0x1 PUSH1 0xA0 SHL SUB NOT SWAP1 DUP2 AND CALLER OR SWAP1 SWAP2 SSTORE PUSH1 0x1A DUP1 SLOAD DUP3 AND PUSH1 0x1 PUSH1 0x1 PUSH1 0xA0 SHL SUB SWAP5 DUP6 AND OR SWAP1 SSTORE PUSH1 0x1B DUP1 SLOAD SWAP1 SWAP2 AND SWAP4 SWAP1 SWAP3 AND SWAP3 SWAP1 SWAP3 OR SWAP1 SSTORE POP PUSH1 0x1D SSTORE PUSH1 0xB DUP1 SLOAD PUSH1 0x1 SWAP1 DUP2 ADD SWAP1 SWAP2 SSTORE PUSH1 0x13 DUP2 SWAP1 SSTORE PUSH1 0xF SSTORE PUSH1 0x16 SLOAD PUSH9 0x10000000000000000 DUP2 LT ISZERO PUSH3 0x30A JUMPI PUSH1 0x1 DUP2 ADD DUP1 PUSH1 0x16 SSTORE DUP2 LT ISZERO PUSH3 0x2F6 JUMPI PUSH0 SWAP1 PUSH1 0x16 DUP3 MSTORE PUSH1 0x20 DUP3 KECCAK256 ADD SSTORE PUSH1 0x64 PUSH1 0x1F SSTORE PUSH1 0x40 MLOAD PUSH2 0x484E SWAP1 DUP2 PUSH3 0x70D DUP3 CODECOPY RETURN JUMPDEST PUSH4 0x4E487B71 PUSH1 0xE0 SHL PUSH0 MSTORE PUSH1 0x32 PUSH1 0x4 MSTORE PUSH1 0x24 PUSH0 REVERT JUMPDEST PUSH4 0x4E487B71 PUSH1 0xE0 SHL PUSH0 MSTORE PUSH1 0x41 PUSH1 0x4 MSTORE PUSH1 0x24 PUSH0 REVERT JUMPDEST DUP1 MLOAD DUP1 MLOAD SWAP1 PUSH1 0x1 PUSH1 0x1 PUSH1 0x40 SHL SUB DUP3 GT PUSH3 0x30A JUMPI PUSH3 0x33E DUP6 SLOAD PUSH3 0x6B9 JUMP JUMPDEST PUSH1 0x1F DUP2 GT PUSH3 0x408 JUMPI JUMPDEST POP PUSH1 0x20 SWAP1 PUSH1 0x1F DUP4 GT PUSH1 0x1 EQ PUSH3 0x397 JUMPI SWAP3 DUP3 PUSH1 0x1 SWAP5 SWAP4 PUSH1 0x20 SWAP4 DUP7 SWAP6 PUSH0 SWAP3 PUSH3 0x38B JUMPI JUMPDEST POP POP PUSH0 NOT PUSH1 0x3 DUP4 SWAP1 SHL SHR NOT AND SWAP1 DUP5 SHL OR DUP7 SSTORE JUMPDEST ADD SWAP4 ADD SWAP2 ADD SWAP1 SWAP2 PUSH3 0x253 JUMP JUMPDEST ADD MLOAD SWAP1 POP PUSH0 DUP1 PUSH3 0x36B JUMP JUMPDEST SWAP1 DUP6 PUSH0 MSTORE PUSH1 0x20 PUSH0 KECCAK256 SWAP2 PUSH0 JUMPDEST PUSH1 0x1F NOT DUP6 AND DUP2 LT PUSH3 0x3EF JUMPI POP DUP4 PUSH1 0x20 SWAP4 PUSH1 0x1 SWAP7 SWAP4 DUP8 SWAP7 SWAP4 DUP8 SWAP5 PUSH1 0x1F NOT DUP2 AND LT PUSH3 0x3D6 JUMPI JUMPDEST POP POP POP DUP2 SHL ADD DUP7 SSTORE PUSH3 0x37E JUMP JUMPDEST ADD MLOAD PUSH0 NOT PUSH1 0xF8 DUP5 PUSH1 0x3 SHL AND SHR NOT AND SWAP1 SSTORE PUSH0 DUP1 DUP1 PUSH3 0x3C8 JUMP JUMPDEST SWAP2 SWAP3 PUSH1 0x20 PUSH1 0x1 DUP2 SWAP3 DUP7 DUP6 ADD MLOAD DUP2 SSTORE ADD SWAP5 ADD SWAP3 ADD PUSH3 0x3A2 JUMP JUMPDEST PUSH3 0x436 SWAP1 DUP7 PUSH0 MSTORE PUSH1 0x20 PUSH0 KECCAK256 PUSH1 0x5 PUSH1 0x1F DUP7 ADD DUP2 SHR DUP3 ADD SWAP3 PUSH1 0x20 DUP8 LT PUSH3 0x43D JUMPI JUMPDEST PUSH1 0x1F ADD SWAP1 SHR ADD SWAP1 PUSH3 0x6F4 JUMP JUMPDEST PUSH0 PUSH3 0x348 JUMP JUMPDEST SWAP2 SWAP3 POP DUP3 SWAP2 PUSH3 0x429 JUMP JUMPDEST PUSH1 0x15 PUSH0 MSTORE PUSH0 DUP1 MLOAD PUSH1 0x20 PUSH3 0x4F5B DUP4 CODECOPY DUP2 MLOAD SWAP2 MSTORE SWAP1 PUSH32 0x55F448FDEA98C4D29EB340757EF0A66CD03DBB9538908A6A81D96026B71EC478 JUMPDEST DUP2 DUP4 ADD DUP2 LT PUSH3 0x490 JUMPI POP POP PUSH3 0x23B JUMP JUMPDEST DUP1 PUSH3 0x49F PUSH1 0x1 SWAP3 SLOAD PUSH3 0x6B9 JUMP JUMPDEST DUP1 PUSH3 0x4AE JUMPI JUMPDEST POP ADD PUSH3 0x47E JUMP JUMPDEST PUSH1 0x1F DUP2 GT DUP4 EQ PUSH3 0x4C5 JUMPI POP PUSH0 DUP2 SSTORE JUMPDEST PUSH0 PUSH3 0x4A6 JUMP JUMPDEST PUSH0 SWAP1 DUP3 DUP3 MSTORE PUSH3 0x4E4 PUSH1 0x1F PUSH1 0x20 DUP5 KECCAK256 SWAP3 ADD PUSH1 0x5 SHR DUP3 ADD DUP6 DUP4 ADD PUSH3 0x6F4 JUMP JUMPDEST DUP2 DUP4 SSTORE SSTORE PUSH3 0x4BE JUMP JUMPDEST ADD MLOAD SWAP1 POP PUSH0 DUP1 PUSH3 0x142 JUMP JUMPDEST PUSH1 0x1F NOT DUP3 AND SWAP6 PUSH1 0x1 PUSH0 MSTORE PUSH1 0x20 PUSH0 KECCAK256 SWAP2 PUSH0 JUMPDEST DUP9 DUP2 LT PUSH3 0x54A JUMPI POP DUP4 PUSH1 0x1 SWAP6 SWAP7 SWAP8 SWAP9 LT PUSH3 0x531 JUMPI JUMPDEST POP POP POP DUP2 SHL ADD PUSH1 0x1 SSTORE PUSH3 0x157 JUMP JUMPDEST ADD MLOAD PUSH0 NOT PUSH1 0xF8 DUP5 PUSH1 0x3 SHL AND SHR NOT AND SWAP1 SSTORE PUSH0 DUP1 DUP1 PUSH3 0x522 JUMP JUMPDEST SWAP2 SWAP3 PUSH1 0x20 PUSH1 0x1 DUP2 SWAP3 DUP7 DUP6 ADD MLOAD DUP2 SSTORE ADD SWAP5 ADD SWAP3 ADD PUSH3 0x50B JUMP JUMPDEST PUSH1 0x1 PUSH0 MSTORE PUSH3 0x5AF SWAP1 PUSH32 0xB10E2D527612073B26EECDFD717E6A320CF44B4AFAC2B0732D9FCBE2B7FA0CF6 PUSH1 0x1F DUP5 ADD PUSH1 0x5 SHR DUP2 ADD SWAP2 PUSH1 0x20 DUP6 LT PUSH3 0x5B6 JUMPI JUMPDEST PUSH1 0x1F ADD PUSH1 0x5 SHR ADD SWAP1 PUSH3 0x6F4 JUMP JUMPDEST PUSH0 PUSH3 0x124 JUMP JUMPDEST SWAP1 SWAP2 POP DUP2 SWAP1 PUSH3 0x5A1 JUMP JUMPDEST ADD MLOAD SWAP1 POP PUSH0 DUP1 PUSH3 0xE8 JUMP JUMPDEST PUSH0 DUP1 DUP1 MSTORE PUSH0 DUP1 MLOAD PUSH1 0x20 PUSH3 0x4F7B DUP4 CODECOPY DUP2 MLOAD SWAP2 MSTORE SWAP4 POP PUSH1 0x1F NOT DUP6 AND SWAP1 JUMPDEST DUP2 DUP2 LT PUSH3 0x628 JUMPI POP SWAP1 DUP5 PUSH1 0x1 SWAP6 SWAP5 SWAP4 SWAP3 LT PUSH3 0x60F JUMPI JUMPDEST POP POP POP DUP2 SHL ADD PUSH0 SSTORE PUSH3 0xFC JUMP JUMPDEST ADD MLOAD PUSH0 NOT PUSH1 0xF8 DUP5 PUSH1 0x3 SHL AND SHR NOT AND SWAP1 SSTORE PUSH0 DUP1 DUP1 PUSH3 0x601 JUMP JUMPDEST SWAP3 SWAP4 PUSH1 0x20 PUSH1 0x1 DUP2 SWAP3 DUP8 DUP7 ADD MLOAD DUP2 SSTORE ADD SWAP6 ADD SWAP4 ADD PUSH3 0x5E9 JUMP JUMPDEST PUSH0 DUP1 MSTORE PUSH3 0x679 SWAP1 PUSH0 DUP1 MLOAD PUSH1 0x20 PUSH3 0x4F7B DUP4 CODECOPY DUP2 MLOAD SWAP2 MSTORE PUSH1 0x1F DUP6 ADD PUSH1 0x5 SHR DUP2 ADD SWAP2 PUSH1 0x20 DUP7 LT PUSH3 0x5B6 JUMPI PUSH1 0x1F ADD PUSH1 0x5 SHR ADD SWAP1 PUSH3 0x6F4 JUMP JUMPDEST PUSH0 PUSH3 0xD0 JUMP JUMPDEST PUSH0 DUP1 REVERT JUMPDEST PUSH1 0x40 DUP1 MLOAD SWAP2 SWAP1 DUP3 ADD PUSH1 0x1 PUSH1 0x1 PUSH1 0x40 SHL SUB DUP2 GT DUP4 DUP3 LT OR PUSH3 0x30A JUMPI PUSH1 0x40 MSTORE JUMP JUMPDEST MLOAD SWAP1 PUSH1 0x1 PUSH1 0x1 PUSH1 0xA0 SHL SUB DUP3 AND DUP3 SUB PUSH3 0x680 JUMPI JUMP JUMPDEST SWAP1 PUSH1 0x1 DUP3 DUP2 SHR SWAP3 AND DUP1 ISZERO PUSH3 0x6E9 JUMPI JUMPDEST PUSH1 0x20 DUP4 LT EQ PUSH3 0x6D5 JUMPI JUMP JUMPDEST PUSH4 0x4E487B71 PUSH1 0xE0 SHL PUSH0 MSTORE PUSH1 0x22 PUSH1 0x4 MSTORE PUSH1 0x24 PUSH0 REVERT JUMPDEST SWAP2 PUSH1 0x7F AND SWAP2 PUSH3 0x6C9 JUMP JUMPDEST DUP2 DUP2 LT PUSH3 0x700 JUMPI POP POP JUMP JUMPDEST PUSH0 DUP2 SSTORE PUSH1 0x1 ADD PUSH3 0x6F4 JUMP INVALID PUSH1 0x80 PUSH1 0x40 MSTORE PUSH1 0x4 CALLDATASIZE LT ISZERO PUSH2 0x11 JUMPI PUSH0 DUP1 REVERT JUMPDEST PUSH0 CALLDATALOAD PUSH1 0xE0 SHR DUP1 PUSH4 0x1FFC9A7 EQ PUSH2 0x3FF JUMPI DUP1 PUSH4 0x6FDDE03 EQ PUSH2 0x3FA JUMPI DUP1 PUSH4 0x81812FC EQ PUSH2 0x3F5 JUMPI DUP1 PUSH4 0x95EA7B3 EQ PUSH2 0x3F0 JUMPI DUP1 PUSH4 0xB1E7F83 EQ PUSH2 0x3EB JUMPI DUP1 PUSH4 0x1072CBEA EQ PUSH2 0x3E6 JUMPI DUP1 PUSH4 0x1651902A EQ PUSH2 0x3E1 JUMPI DUP1 PUSH4 0x18160DDD EQ PUSH2 0x3DC JUMPI DUP1 PUSH4 0x23B872DD EQ PUSH2 0x3D7 JUMPI DUP1 PUSH4 0x2F745C59 EQ PUSH2 0x3D2 JUMPI DUP1 PUSH4 0x336C1AD7 EQ PUSH2 0x3CD JUMPI DUP1 PUSH4 0x3C09203B EQ PUSH2 0x3C8 JUMPI DUP1 PUSH4 0x40731C24 EQ PUSH2 0x3C3 JUMPI DUP1 PUSH4 0x42842E0E EQ PUSH2 0x3BE JUMPI DUP1 PUSH4 0x4585E33B EQ PUSH2 0x3B9 JUMPI DUP1 PUSH4 0x4ED59812 EQ PUSH2 0x3B4 JUMPI DUP1 PUSH4 0x4F6CCCE7 EQ PUSH2 0x3AF JUMPI DUP1 PUSH4 0x5787A0CC EQ PUSH2 0x3AA JUMPI DUP1 PUSH4 0x5FF2D2AA EQ PUSH2 0x3A5 JUMPI DUP1 PUSH4 0x6352211E EQ PUSH2 0x3A0 JUMPI DUP1 PUSH4 0x6356EEA4 EQ PUSH2 0x39B JUMPI DUP1 PUSH4 0x69FE0E2D EQ PUSH2 0x396 JUMPI DUP1 PUSH4 0x6C79BD2B EQ PUSH2 0x391 JUMPI DUP1 PUSH4 0x70A08231 EQ PUSH2 0x38C JUMPI DUP1 PUSH4 0x715018A6 EQ PUSH2 0x387 JUMPI DUP1 PUSH4 0x74F0C641 EQ PUSH2 0x382 JUMPI DUP1 PUSH4 0x7C7198CC EQ PUSH2 0x37D JUMPI DUP1 PUSH4 0x7D67E967 EQ PUSH2 0x378 JUMPI DUP1 PUSH4 0x8DA5CB5B EQ PUSH2 0x373 JUMPI DUP1 PUSH4 0x93A018BE EQ PUSH2 0x30A JUMPI DUP1 PUSH4 0x95D89B41 EQ PUSH2 0x36E JUMPI DUP1 PUSH4 0x990581B6 EQ PUSH2 0x369 JUMPI DUP1 PUSH4 0x9B1CB58E EQ PUSH2 0x364 JUMPI DUP1 PUSH4 0xA22CB465 EQ PUSH2 0x35F JUMPI DUP1 PUSH4 0xA5940041 EQ PUSH2 0x35A JUMPI DUP1 PUSH4 0xAC97980D EQ PUSH2 0x355 JUMPI DUP1 PUSH4 0xAD2957FF EQ PUSH2 0x350 JUMPI DUP1 PUSH4 0xB88D4FDE EQ PUSH2 0x34B JUMPI DUP1 PUSH4 0xB9E2FC3E EQ PUSH2 0x346 JUMPI DUP1 PUSH4 0xBDF5DB39 EQ PUSH2 0x341 JUMPI DUP1 PUSH4 0xC02C6416 EQ PUSH2 0x33C JUMPI DUP1 PUSH4 0xC17589D7 EQ PUSH2 0x337 JUMPI DUP1 PUSH4 0xC5DCE24D EQ PUSH2 0x332 JUMPI DUP1 PUSH4 0xC8249D8A EQ PUSH2 0x32D JUMPI DUP1 PUSH4 0xC87B56DD EQ PUSH2 0x328 JUMPI DUP1 PUSH4 0xD1A34AA3 EQ PUSH2 0x323 JUMPI DUP1 PUSH4 0xD242D34E EQ PUSH2 0x31E JUMPI DUP1 PUSH4 0xD2AA789F EQ PUSH2 0x319 JUMPI DUP1 PUSH4 0xD3A3F771 EQ PUSH2 0x314 JUMPI DUP1 PUSH4 0xD8DB3807 EQ PUSH2 0x30F JUMPI DUP1 PUSH4 0xDE78AB7C EQ PUSH2 0x30A JUMPI DUP1 PUSH4 0xDE8B32C5 EQ PUSH2 0x305 JUMPI DUP1 PUSH4 0xE1485776 EQ PUSH2 0x300 JUMPI DUP1 PUSH4 0xE168B3A8 EQ PUSH2 0x2FB JUMPI DUP1 PUSH4 0xE83DDCEA EQ PUSH2 0x2F6 JUMPI DUP1 PUSH4 0xE985E9C5 EQ PUSH2 0x2F1 JUMPI DUP1 PUSH4 0xEA487A92 EQ PUSH2 0x2EC JUMPI DUP1 PUSH4 0xED322BC7 EQ PUSH2 0x2E7 JUMPI DUP1 PUSH4 0xEE8EB507 EQ PUSH2 0x2E2 JUMPI DUP1 PUSH4 0xEEB0CF76 EQ PUSH2 0x2DD JUMPI DUP1 PUSH4 0xF2FDE38B EQ PUSH2 0x2D8 JUMPI DUP1 PUSH4 0xF6A800EE EQ PUSH2 0x2D3 JUMPI PUSH4 0xFA1396F5 EQ PUSH2 0x2CE JUMPI PUSH0 DUP1 REVERT JUMPDEST PUSH2 0x28A1 JUMP JUMPDEST PUSH2 0x2871 JUMP JUMPDEST PUSH2 0x27DB JUMP JUMPDEST PUSH2 0x27A4 JUMP JUMPDEST PUSH2 0x2767 JUMP JUMPDEST PUSH2 0x274A JUMP JUMPDEST PUSH2 0x26EF JUMP JUMPDEST PUSH2 0x269F JUMP JUMPDEST PUSH2 0x2613 JUMP JUMPDEST PUSH2 0x25F6 JUMP JUMPDEST PUSH2 0x25CE JUMP JUMPDEST PUSH2 0x2548 JUMP JUMPDEST PUSH2 0x19B1 JUMP JUMPDEST PUSH2 0x2461 JUMP JUMPDEST PUSH2 0x2406 JUMP JUMPDEST PUSH2 0x23AD JUMP JUMPDEST PUSH2 0x2325 JUMP JUMPDEST PUSH2 0x22F7 JUMP JUMPDEST PUSH2 0x220F JUMP JUMPDEST PUSH2 0x1EEF JUMP JUMPDEST PUSH2 0x1E5F JUMP JUMPDEST PUSH2 0x1E17 JUMP JUMPDEST PUSH2 0x1DEF JUMP JUMPDEST PUSH2 0x1D8C JUMP JUMPDEST PUSH2 0x1D52 JUMP JUMPDEST PUSH2 0x1CF3 JUMP JUMPDEST PUSH2 0x1CAB JUMP JUMPDEST PUSH2 0x1C81 JUMP JUMPDEST PUSH2 0x1C64 JUMP JUMPDEST PUSH2 0x1B80 JUMP JUMPDEST PUSH2 0x1B59 JUMP JUMPDEST PUSH2 0x1AB9 JUMP JUMPDEST PUSH2 0x19DB JUMP JUMPDEST PUSH2 0x1989 JUMP JUMPDEST PUSH2 0x191C JUMP JUMPDEST PUSH2 0x189F JUMP JUMPDEST PUSH2 0x1882 JUMP JUMPDEST PUSH2 0x1822 JUMP JUMPDEST PUSH2 0x17F7 JUMP JUMPDEST PUSH2 0x1786 JUMP JUMPDEST PUSH2 0x171E JUMP JUMPDEST PUSH2 0x13CC JUMP JUMPDEST PUSH2 0x1328 JUMP JUMPDEST PUSH2 0x12E0 JUMP JUMPDEST PUSH2 0x12B2 JUMP JUMPDEST PUSH2 0x1208 JUMP JUMPDEST PUSH2 0x11EB JUMP JUMPDEST PUSH2 0xEC3 JUMP JUMPDEST PUSH2 0xE9C JUMP JUMPDEST PUSH2 0xDEE JUMP JUMPDEST PUSH2 0xD2F JUMP JUMPDEST PUSH2 0xC1B JUMP JUMPDEST PUSH2 0xB69 JUMP JUMPDEST PUSH2 0xB40 JUMP JUMPDEST PUSH2 0xAEE JUMP JUMPDEST PUSH2 0xAA9 JUMP JUMPDEST PUSH2 0x92F JUMP JUMPDEST PUSH2 0x883 JUMP JUMPDEST PUSH2 0x618 JUMP JUMPDEST PUSH2 0x5BC JUMP JUMPDEST PUSH2 0x4FC JUMP JUMPDEST PUSH2 0x41A JUMP JUMPDEST PUSH1 0x1 PUSH1 0x1 PUSH1 0xE0 SHL SUB NOT DUP2 AND SUB PUSH2 0x416 JUMPI JUMP JUMPDEST PUSH0 DUP1 REVERT JUMPDEST CALLVALUE PUSH2 0x416 JUMPI PUSH1 0x20 CALLDATASIZE PUSH1 0x3 NOT ADD SLT PUSH2 0x416 JUMPI PUSH1 0x20 PUSH1 0x4 CALLDATALOAD PUSH2 0x439 DUP2 PUSH2 0x404 JUMP JUMPDEST PUSH4 0xFFFFFFFF PUSH1 0xE0 SHL AND PUSH4 0x780E9D63 PUSH1 0xE0 SHL DUP2 EQ SWAP1 DUP2 ISZERO PUSH2 0x45F JUMPI JUMPDEST POP PUSH1 0x40 MLOAD SWAP1 ISZERO ISZERO DUP2 MSTORE RETURN JUMPDEST PUSH4 0x80AC58CD PUSH1 0xE0 SHL DUP2 EQ SWAP2 POP DUP2 ISZERO PUSH2 0x491 JUMPI JUMPDEST DUP2 ISZERO PUSH2 0x480 JUMPI JUMPDEST POP PUSH0 PUSH2 0x454 JUMP JUMPDEST PUSH4 0x1FFC9A7 PUSH1 0xE0 SHL EQ SWAP1 POP PUSH0 PUSH2 0x479 JUMP JUMPDEST PUSH4 0x5B5E139F PUSH1 0xE0 SHL DUP2 EQ SWAP2 POP PUSH2 0x472 JUMP JUMPDEST PUSH0 JUMPDEST DUP4 DUP2 LT PUSH2 0x4B3 JUMPI POP POP PUSH0 SWAP2 ADD MSTORE JUMP JUMPDEST DUP2 DUP2 ADD MLOAD DUP4 DUP3 ADD MSTORE PUSH1 0x20 ADD PUSH2 0x4A4 JUMP JUMPDEST SWAP1 PUSH1 0x20 SWAP2 PUSH2 0x4DC DUP2 MLOAD DUP1 SWAP3 DUP2 DUP6 MSTORE DUP6 DUP1 DUP7 ADD SWAP2 ADD PUSH2 0x4A2 JUMP JUMPDEST PUSH1 0x1F ADD PUSH1 0x1F NOT AND ADD ADD SWAP1 JUMP JUMPDEST SWAP1 PUSH1 0x20 PUSH2 0x4F9 SWAP3 DUP2 DUP2 MSTORE ADD SWAP1 PUSH2 0x4C3 JUMP JUMPDEST SWAP1 JUMP JUMPDEST CALLVALUE PUSH2 0x416 JUMPI PUSH0 DUP1 PUSH1 0x3 NOT CALLDATASIZE ADD SLT PUSH2 0x5B9 JUMPI PUSH1 0x40 MLOAD DUP2 DUP1 SLOAD PUSH2 0x51C DUP2 PUSH2 0x704 JUMP JUMPDEST DUP1 DUP5 MSTORE SWAP1 PUSH1 0x1 SWAP1 DUP2 DUP2 AND SWAP1 DUP2 ISZERO PUSH2 0x591 JUMPI POP PUSH1 0x1 EQ PUSH2 0x556 JUMPI JUMPDEST PUSH2 0x552 DUP5 PUSH2 0x546 DUP2 DUP9 SUB DUP3 PUSH2 0x7C1 JUMP JUMPDEST PUSH1 0x40 MLOAD SWAP2 DUP3 SWAP2 DUP3 PUSH2 0x4E8 JUMP JUMPDEST SUB SWAP1 RETURN JUMPDEST SWAP4 POP DUP2 DUP1 MSTORE PUSH1 0x20 SWAP4 DUP5 DUP4 KECCAK256 JUMPDEST DUP3 DUP5 LT PUSH2 0x57E JUMPI POP POP POP DUP2 PUSH2 0x552 SWAP4 PUSH2 0x546 SWAP3 DUP3 ADD ADD SWAP4 PUSH2 0x536 JUMP JUMPDEST DUP1 SLOAD DUP6 DUP6 ADD DUP8 ADD MSTORE SWAP3 DUP6 ADD SWAP3 DUP2 ADD PUSH2 0x562 JUMP JUMPDEST PUSH2 0x552 SWAP7 POP PUSH2 0x546 SWAP5 POP PUSH1 0x20 SWAP3 POP DUP6 SWAP4 SWAP2 POP PUSH1 0xFF NOT AND DUP3 DUP5 ADD MSTORE ISZERO ISZERO PUSH1 0x5 SHL DUP3 ADD ADD SWAP4 PUSH2 0x536 JUMP JUMPDEST DUP1 REVERT JUMPDEST CALLVALUE PUSH2 0x416 JUMPI PUSH1 0x20 CALLDATASIZE PUSH1 0x3 NOT ADD SLT PUSH2 0x416 JUMPI PUSH1 0x20 PUSH2 0x5DA PUSH1 0x4 CALLDATALOAD PUSH2 0x2D7E JUMP JUMPDEST PUSH1 0x40 MLOAD PUSH1 0x1 PUSH1 0x1 PUSH1 0xA0 SHL SUB SWAP1 SWAP2 AND DUP2 MSTORE RETURN JUMPDEST PUSH1 0x4 CALLDATALOAD SWAP1 PUSH1 0x1 PUSH1 0x1 PUSH1 0xA0 SHL SUB DUP3 AND DUP3 SUB PUSH2 0x416 JUMPI JUMP JUMPDEST PUSH1 0x24 CALLDATALOAD SWAP1 PUSH1 0x1 PUSH1 0x1 PUSH1 0xA0 SHL SUB DUP3 AND DUP3 SUB PUSH2 0x416 JUMPI JUMP JUMPDEST CALLVALUE PUSH2 0x416 JUMPI PUSH1 0x40 CALLDATASIZE PUSH1 0x3 NOT ADD SLT PUSH2 0x416 JUMPI PUSH2 0x631 PUSH2 0x5EC JUMP JUMPDEST PUSH1 0x24 CALLDATALOAD PUSH2 0x63D DUP2 PUSH2 0x2C88 JUMP JUMPDEST SWAP2 PUSH1 0x1 PUSH1 0x1 PUSH1 0xA0 SHL SUB DUP1 DUP5 AND SWAP1 DUP3 AND DUP2 EQ PUSH2 0x6B5 JUMPI PUSH2 0x66F SWAP4 PUSH2 0x66A SWAP2 CALLER EQ SWAP1 DUP2 ISZERO PUSH2 0x671 JUMPI JUMPDEST POP PUSH2 0x2D11 JUMP JUMPDEST PUSH2 0x324D JUMP JUMPDEST STOP JUMPDEST PUSH1 0x1 PUSH1 0x1 PUSH1 0xA0 SHL SUB AND PUSH0 SWAP1 DUP2 MSTORE PUSH1 0x5 PUSH1 0x20 MSTORE PUSH1 0x40 SWAP1 KECCAK256 PUSH2 0x6AF SWAP2 POP PUSH2 0x6A8 SWAP1 CALLER SWAP1 JUMPDEST SWAP1 PUSH1 0x1 DUP1 PUSH1 0xA0 SHL SUB AND PUSH0 MSTORE PUSH1 0x20 MSTORE PUSH1 0x40 PUSH0 KECCAK256 SWAP1 JUMP JUMPDEST SLOAD PUSH1 0xFF AND SWAP1 JUMP JUMPDEST PUSH0 PUSH2 0x664 JUMP JUMPDEST PUSH1 0x40 MLOAD PUSH3 0x461BCD PUSH1 0xE5 SHL DUP2 MSTORE PUSH1 0x20 PUSH1 0x4 DUP3 ADD MSTORE PUSH1 0x21 PUSH1 0x24 DUP3 ADD MSTORE PUSH32 0x4552433732313A20617070726F76616C20746F2063757272656E74206F776E65 PUSH1 0x44 DUP3 ADD MSTORE PUSH1 0x39 PUSH1 0xF9 SHL PUSH1 0x64 DUP3 ADD MSTORE PUSH1 0x84 SWAP1 REVERT JUMPDEST SWAP1 PUSH1 0x1 DUP3 DUP2 SHR SWAP3 AND DUP1 ISZERO PUSH2 0x732 JUMPI JUMPDEST PUSH1 0x20 DUP4 LT EQ PUSH2 0x71E JUMPI JUMP JUMPDEST PUSH4 0x4E487B71 PUSH1 0xE0 SHL PUSH0 MSTORE PUSH1 0x22 PUSH1 0x4 MSTORE PUSH1 0x24 PUSH0 REVERT JUMPDEST SWAP2 PUSH1 0x7F AND SWAP2 PUSH2 0x713 JUMP JUMPDEST PUSH4 0x4E487B71 PUSH1 0xE0 SHL PUSH0 MSTORE PUSH1 0x41 PUSH1 0x4 MSTORE PUSH1 0x24 PUSH0 REVERT JUMPDEST PUSH1 0xA0 DUP2 ADD SWAP1 DUP2 LT PUSH1 0x1 PUSH1 0x1 PUSH1 0x40 SHL SUB DUP3 GT OR PUSH2 0x76B JUMPI PUSH1 0x40 MSTORE JUMP JUMPDEST PUSH2 0x73C JUMP JUMPDEST PUSH1 0x80 DUP2 ADD SWAP1 DUP2 LT PUSH1 0x1 PUSH1 0x1 PUSH1 0x40 SHL SUB DUP3 GT OR PUSH2 0x76B JUMPI PUSH1 0x40 MSTORE JUMP JUMPDEST PUSH1 0x20 DUP2 ADD SWAP1 DUP2 LT PUSH1 0x1 PUSH1 0x1 PUSH1 0x40 SHL SUB DUP3 GT OR PUSH2 0x76B JUMPI PUSH1 0x40 MSTORE JUMP JUMPDEST PUSH1 0x40 DUP2 ADD SWAP1 DUP2 LT PUSH1 0x1 PUSH1 0x1 PUSH1 0x40 SHL SUB DUP3 GT OR PUSH2 0x76B JUMPI PUSH1 0x40 MSTORE JUMP JUMPDEST SWAP1 PUSH1 0x1F DUP1 NOT SWAP2 ADD AND DUP2 ADD SWAP1 DUP2 LT PUSH1 0x1 PUSH1 0x1 PUSH1 0x40 SHL SUB DUP3 GT OR PUSH2 0x76B JUMPI PUSH1 0x40 MSTORE JUMP JUMPDEST SWAP1 PUSH1 0x40 MLOAD SWAP2 DUP3 PUSH0 DUP3 SLOAD SWAP3 PUSH2 0x7F5 DUP5 PUSH2 0x704 JUMP JUMPDEST SWAP1 DUP2 DUP5 MSTORE PUSH1 0x1 SWAP5 DUP6 DUP2 AND SWAP1 DUP2 PUSH0 EQ PUSH2 0x860 JUMPI POP PUSH1 0x1 EQ PUSH2 0x820 JUMPI JUMPDEST POP POP PUSH2 0x81E SWAP3 POP SUB DUP4 PUSH2 0x7C1 JUMP JUMPDEST JUMP JUMPDEST SWAP1 SWAP4 SWAP2 POP PUSH0 MSTORE PUSH1 0x20 SWAP1 DUP2 PUSH0 KECCAK256 SWAP4 PUSH0 SWAP2 JUMPDEST DUP2 DUP4 LT PUSH2 0x848 JUMPI POP POP PUSH2 0x81E SWAP4 POP DUP3 ADD ADD PUSH0 DUP1 PUSH2 0x810 JUMP JUMPDEST DUP6 SLOAD DUP9 DUP5 ADD DUP6 ADD MSTORE SWAP5 DUP6 ADD SWAP5 DUP8 SWAP5 POP SWAP2 DUP4 ADD SWAP2 PUSH2 0x830 JUMP JUMPDEST SWAP2 POP POP PUSH2 0x81E SWAP5 POP PUSH1 0x20 SWAP3 POP PUSH1 0xFF NOT AND DUP3 DUP5 ADD MSTORE ISZERO ISZERO PUSH1 0x5 SHL DUP3 ADD ADD PUSH0 DUP1 PUSH2 0x810 JUMP JUMPDEST CALLVALUE PUSH2 0x416 JUMPI PUSH1 0x20 CALLDATASIZE PUSH1 0x3 NOT ADD SLT PUSH2 0x416 JUMPI PUSH1 0x4 CALLDATALOAD PUSH0 MSTORE PUSH1 0xC PUSH1 0x20 MSTORE PUSH2 0x900 PUSH1 0x40 PUSH0 KECCAK256 PUSH2 0x552 PUSH2 0x8B1 DUP3 PUSH2 0x7E2 JUMP JUMPDEST SWAP2 PUSH2 0x921 PUSH2 0x8C1 PUSH1 0x1 DUP4 ADD PUSH2 0x7E2 JUMP JUMPDEST SWAP2 PUSH1 0x1 DUP1 PUSH1 0xA0 SHL SUB PUSH1 0x2 DUP3 ADD SLOAD AND SWAP1 PUSH2 0x90E PUSH2 0x8EB PUSH1 0x4 PUSH2 0x8E4 PUSH1 0x3 DUP6 ADD PUSH2 0x7E2 JUMP JUMPDEST SWAP4 ADD PUSH2 0x7E2 JUMP JUMPDEST SWAP5 PUSH1 0x40 MLOAD SWAP9 DUP10 SWAP9 PUSH1 0xA0 DUP11 MSTORE PUSH1 0xA0 DUP11 ADD SWAP1 PUSH2 0x4C3 JUMP JUMPDEST SWAP1 DUP9 DUP3 SUB PUSH1 0x20 DUP11 ADD MSTORE PUSH2 0x4C3 JUMP JUMPDEST SWAP2 PUSH1 0x40 DUP8 ADD MSTORE DUP6 DUP3 SUB PUSH1 0x60 DUP8 ADD MSTORE PUSH2 0x4C3 JUMP JUMPDEST SWAP1 DUP4 DUP3 SUB PUSH1 0x80 DUP6 ADD MSTORE PUSH2 0x4C3 JUMP JUMPDEST CALLVALUE PUSH2 0x416 JUMPI PUSH1 0x40 CALLDATASIZE PUSH1 0x3 NOT ADD SLT PUSH2 0x416 JUMPI PUSH2 0x948 PUSH2 0x5EC JUMP JUMPDEST PUSH1 0x24 CALLDATALOAD PUSH2 0x954 DUP2 PUSH2 0x2C88 JUMP JUMPDEST CALLER PUSH1 0x1 PUSH1 0x1 PUSH1 0xA0 SHL SUB SWAP1 SWAP2 AND SUB PUSH2 0x96F JUMPI PUSH2 0x66F SWAP2 CALLER PUSH2 0x30BA JUMP JUMPDEST PUSH1 0x40 MLOAD PUSH3 0x461BCD PUSH1 0xE5 SHL DUP2 MSTORE PUSH1 0x20 PUSH1 0x4 DUP3 ADD MSTORE PUSH1 0x25 PUSH1 0x24 DUP3 ADD MSTORE PUSH32 0x4F6E6C7920746865206F776E65722063616E207472616E736665722074686520 PUSH1 0x44 DUP3 ADD MSTORE PUSH5 0x3A37B5B2B7 PUSH1 0xD9 SHL PUSH1 0x64 DUP3 ADD MSTORE PUSH1 0x84 SWAP1 REVERT JUMPDEST PUSH4 0x4E487B71 PUSH1 0xE0 SHL PUSH0 MSTORE PUSH1 0x32 PUSH1 0x4 MSTORE PUSH1 0x24 PUSH0 REVERT JUMPDEST PUSH1 0x15 SLOAD DUP2 LT ISZERO PUSH2 0x9EE JUMPI PUSH1 0x15 PUSH0 MSTORE PUSH1 0x20 PUSH0 KECCAK256 ADD SWAP1 PUSH0 SWAP1 JUMP JUMPDEST PUSH2 0x9C2 JUMP JUMPDEST PUSH1 0x16 SLOAD DUP2 LT ISZERO PUSH2 0x9EE JUMPI PUSH1 0x16 PUSH0 MSTORE PUSH1 0x20 PUSH0 KECCAK256 ADD SWAP1 PUSH0 SWAP1 JUMP JUMPDEST PUSH1 0x15 SLOAD ISZERO PUSH2 0x9EE JUMPI PUSH1 0x15 PUSH0 SWAP1 DUP2 MSTORE PUSH0 DUP1 MLOAD PUSH1 0x20 PUSH2 0x47D9 DUP4 CODECOPY DUP2 MLOAD SWAP2 MSTORE SWAP2 JUMP JUMPDEST PUSH1 0x15 SLOAD PUSH1 0x2 LT ISZERO PUSH2 0x9EE JUMPI PUSH1 0x15 PUSH0 SWAP1 DUP2 MSTORE PUSH32 0x55F448FDEA98C4D29EB340757EF0A66CD03DBB9538908A6A81D96026B71EC477 SWAP2 JUMP JUMPDEST PUSH1 0x15 SLOAD PUSH1 0x1 LT ISZERO PUSH2 0x9EE JUMPI PUSH1 0x15 PUSH0 SWAP1 DUP2 MSTORE PUSH32 0x55F448FDEA98C4D29EB340757EF0A66CD03DBB9538908A6A81D96026B71EC476 SWAP2 JUMP JUMPDEST DUP1 SLOAD DUP3 LT ISZERO PUSH2 0x9EE JUMPI PUSH0 MSTORE PUSH1 0x20 PUSH0 KECCAK256 ADD SWAP1 PUSH0 SWAP1 JUMP JUMPDEST CALLVALUE PUSH2 0x416 JUMPI PUSH1 0x40 CALLDATASIZE PUSH1 0x3 NOT ADD SLT PUSH2 0x416 JUMPI PUSH1 0x24 CALLDATALOAD PUSH1 0x4 CALLDATALOAD PUSH0 MSTORE PUSH1 0x14 PUSH1 0x20 MSTORE PUSH1 0x40 PUSH0 KECCAK256 DUP1 SLOAD DUP3 LT ISZERO PUSH2 0x416 JUMPI PUSH1 0x20 SWAP2 PUSH2 0xAE0 SWAP2 PUSH2 0xA94 JUMP JUMPDEST SWAP1 SLOAD PUSH1 0x40 MLOAD SWAP2 PUSH1 0x3 SHL SHR DUP2 MSTORE RETURN JUMPDEST CALLVALUE PUSH2 0x416 JUMPI PUSH0 CALLDATASIZE PUSH1 0x3 NOT ADD SLT PUSH2 0x416 JUMPI PUSH1 0x20 PUSH1 0x8 SLOAD PUSH1 0x40 MLOAD SWAP1 DUP2 MSTORE RETURN JUMPDEST PUSH1 0x60 SWAP1 PUSH1 0x3 NOT ADD SLT PUSH2 0x416 JUMPI PUSH1 0x1 PUSH1 0x1 PUSH1 0xA0 SHL SUB SWAP1 PUSH1 0x4 CALLDATALOAD DUP3 DUP2 AND DUP2 SUB PUSH2 0x416 JUMPI SWAP2 PUSH1 0x24 CALLDATALOAD SWAP1 DUP2 AND DUP2 SUB PUSH2 0x416 JUMPI SWAP1 PUSH1 0x44 CALLDATALOAD SWAP1 JUMP JUMPDEST CALLVALUE PUSH2 0x416 JUMPI PUSH2 0x66F PUSH2 0xB51 CALLDATASIZE PUSH2 0xB0B JUMP JUMPDEST SWAP2 PUSH2 0xB64 PUSH2 0xB5F DUP5 CALLER PUSH2 0x2F2A JUMP JUMPDEST PUSH2 0x2E0E JUMP JUMPDEST PUSH2 0x30BA JUMP JUMPDEST CALLVALUE PUSH2 0x416 JUMPI PUSH1 0x40 CALLDATASIZE PUSH1 0x3 NOT ADD SLT PUSH2 0x416 JUMPI PUSH2 0xB82 PUSH2 0x5EC JUMP JUMPDEST PUSH1 0x24 CALLDATALOAD SWAP1 PUSH2 0xB8F DUP2 PUSH2 0x2C12 JUMP JUMPDEST DUP3 LT ISZERO PUSH2 0xBC2 JUMPI PUSH1 0x1 PUSH1 0x1 PUSH1 0xA0 SHL SUB AND PUSH0 SWAP1 DUP2 MSTORE PUSH1 0x6 PUSH1 0x20 SWAP1 DUP2 MSTORE PUSH1 0x40 DUP1 DUP4 KECCAK256 SWAP4 DUP4 MSTORE SWAP3 DUP2 MSTORE SWAP1 DUP3 SWAP1 KECCAK256 SLOAD SWAP2 MLOAD SWAP2 DUP3 MSTORE SWAP1 RETURN JUMPDEST PUSH1 0x40 MLOAD PUSH3 0x461BCD PUSH1 0xE5 SHL DUP2 MSTORE PUSH1 0x20 PUSH1 0x4 DUP3 ADD MSTORE PUSH1 0x2B PUSH1 0x24 DUP3 ADD MSTORE PUSH32 0x455243373231456E756D657261626C653A206F776E657220696E646578206F75 PUSH1 0x44 DUP3 ADD MSTORE PUSH11 0x74206F6620626F756E6473 PUSH1 0xA8 SHL PUSH1 0x64 DUP3 ADD MSTORE PUSH1 0x84 SWAP1 REVERT JUMPDEST CALLVALUE PUSH2 0x416 JUMPI PUSH1 0x20 CALLDATASIZE PUSH1 0x3 NOT ADD SLT PUSH2 0x416 JUMPI PUSH1 0x1C SLOAD PUSH1 0x4 CALLDATALOAD SWAP1 PUSH1 0x20 SWAP1 PUSH1 0x1 PUSH1 0x1 PUSH1 0xA0 SHL SUB AND SWAP2 PUSH2 0xC69 PUSH1 0x1 PUSH1 0x1 PUSH1 0xA0 SHL SUB PUSH2 0xC58 DUP2 DUP7 AND ISZERO ISZERO PUSH2 0x46E2 JUMP JUMPDEST PUSH2 0xC61 DUP4 PUSH2 0x2C88 JUMP JUMPDEST AND CALLER EQ PUSH2 0x4531 JUMP JUMPDEST PUSH2 0xC8E DUP2 PUSH2 0xC87 PUSH2 0xC82 DUP3 PUSH0 MSTORE PUSH1 0xC PUSH1 0x20 MSTORE PUSH1 0x40 PUSH0 KECCAK256 SWAP1 JUMP JUMPDEST PUSH2 0x457D JUMP JUMPDEST SWAP5 CALLER PUSH2 0x2E74 JUMP JUMPDEST PUSH1 0x1C SLOAD PUSH2 0xCB1 SWAP1 PUSH2 0xCA5 SWAP1 PUSH1 0x1 PUSH1 0x1 PUSH1 0xA0 SHL SUB AND DUP2 JUMP JUMPDEST PUSH1 0x1 PUSH1 0x1 PUSH1 0xA0 SHL SUB AND SWAP1 JUMP JUMPDEST PUSH1 0x40 DUP5 ADD MLOAD PUSH1 0x1 PUSH1 0x1 PUSH1 0xA0 SHL SUB AND PUSH0 PUSH1 0x60 DUP7 ADD MLOAD SWAP4 PUSH2 0xCF3 DUP7 DUP9 ADD MLOAD SWAP8 PUSH1 0x80 DUP2 MLOAD SWAP2 ADD MLOAD SWAP1 PUSH1 0x40 MLOAD SWAP10 DUP11 SWAP9 DUP10 SWAP8 DUP9 SWAP7 PUSH4 0x6B72F8F PUSH1 0xE1 SHL DUP9 MSTORE PUSH1 0x4 DUP9 ADD PUSH2 0x472E JUMP JUMPDEST SUB SWAP3 GAS CALL DUP1 ISZERO PUSH2 0xD2A JUMPI PUSH2 0xD03 JUMPI STOP JUMPDEST PUSH2 0x66F SWAP1 PUSH1 0x20 RETURNDATASIZE DUP2 GT PUSH2 0xD23 JUMPI JUMPDEST PUSH2 0xD1B DUP2 DUP4 PUSH2 0x7C1 JUMP JUMPDEST DUP2 ADD SWAP1 PUSH2 0x3D6E JUMP JUMPDEST POP RETURNDATASIZE PUSH2 0xD11 JUMP JUMPDEST PUSH2 0x331F JUMP JUMPDEST CALLVALUE PUSH2 0x416 JUMPI PUSH1 0x20 CALLDATASIZE PUSH1 0x3 NOT ADD SLT PUSH2 0x416 JUMPI PUSH2 0xD48 PUSH2 0x5EC JUMP JUMPDEST PUSH1 0xA SLOAD PUSH1 0x1 PUSH1 0x1 PUSH1 0xA0 SHL SUB SWAP2 SWAP1 PUSH2 0xD62 SWAP1 DUP4 AND CALLER EQ PUSH2 0x2B7F JUMP JUMPDEST AND PUSH1 0x1 DUP1 PUSH1 0xA0 SHL SUB NOT PUSH1 0x1B SLOAD AND OR PUSH1 0x1B SSTORE PUSH0 DUP1 RETURN JUMPDEST SWAP1 PUSH2 0x4F9 SWAP2 PUSH1 0x20 DUP2 MSTORE PUSH2 0xD96 DUP3 MLOAD PUSH1 0xA0 PUSH1 0x20 DUP5 ADD MSTORE PUSH1 0xC0 DUP4 ADD SWAP1 PUSH2 0x4C3 JUMP JUMPDEST SWAP1 PUSH1 0xA0 PUSH1 0x80 PUSH2 0xDDE PUSH2 0xDBA PUSH1 0x20 DUP8 ADD MLOAD SWAP6 PUSH1 0x1F NOT SWAP7 DUP8 DUP8 DUP4 SUB ADD PUSH1 0x40 DUP9 ADD MSTORE PUSH2 0x4C3 JUMP JUMPDEST PUSH1 0x1 DUP1 DUP6 SHL SUB PUSH1 0x40 DUP9 ADD MLOAD AND PUSH1 0x60 DUP7 ADD MSTORE PUSH1 0x60 DUP8 ADD MLOAD DUP7 DUP7 DUP4 SUB ADD DUP5 DUP8 ADD MSTORE PUSH2 0x4C3 JUMP JUMPDEST SWAP5 ADD MLOAD SWAP3 DUP3 DUP6 SUB ADD SWAP2 ADD MSTORE PUSH2 0x4C3 JUMP JUMPDEST CALLVALUE PUSH2 0x416 JUMPI PUSH1 0x20 CALLDATASIZE PUSH1 0x3 NOT ADD SLT PUSH2 0x416 JUMPI PUSH2 0x552 PUSH1 0x80 PUSH1 0x40 DUP1 MLOAD PUSH2 0xE11 DUP2 PUSH2 0x750 JUMP JUMPDEST PUSH1 0x60 SWAP3 DUP2 DUP5 DUP1 SWAP4 MSTORE DUP3 PUSH1 0x20 DUP3 ADD MSTORE PUSH0 DUP5 DUP3 ADD MSTORE DUP3 DUP1 DUP3 ADD MSTORE ADD MSTORE PUSH1 0x4 CALLDATALOAD PUSH0 MSTORE PUSH1 0xC PUSH1 0x20 MSTORE PUSH2 0xE8D PUSH1 0x4 DUP3 PUSH0 KECCAK256 DUP4 MLOAD SWAP5 PUSH2 0xE49 DUP7 PUSH2 0x750 JUMP JUMPDEST PUSH2 0xE52 DUP3 PUSH2 0x7E2 JUMP JUMPDEST DUP7 MSTORE PUSH2 0xE60 PUSH1 0x1 DUP4 ADD PUSH2 0x7E2 JUMP JUMPDEST PUSH1 0x20 DUP8 ADD MSTORE PUSH1 0x2 DUP3 ADD SLOAD PUSH1 0x1 PUSH1 0x1 PUSH1 0xA0 SHL SUB AND DUP6 DUP8 ADD MSTORE PUSH2 0xE83 PUSH1 0x3 DUP4 ADD PUSH2 0x7E2 JUMP JUMPDEST SWAP1 DUP7 ADD MSTORE ADD PUSH2 0x7E2 JUMP JUMPDEST PUSH1 0x80 DUP4 ADD MSTORE MLOAD SWAP2 DUP3 SWAP2 DUP3 PUSH2 0xD77 JUMP JUMPDEST CALLVALUE PUSH2 0x416 JUMPI PUSH2 0x66F PUSH2 0xEAD CALLDATASIZE PUSH2 0xB0B JUMP JUMPDEST SWAP1 PUSH1 0x40 MLOAD SWAP3 PUSH2 0xEBB DUP5 PUSH2 0x78B JUMP JUMPDEST PUSH0 DUP5 MSTORE PUSH2 0x2E87 JUMP JUMPDEST CALLVALUE PUSH2 0x416 JUMPI PUSH1 0x20 CALLDATASIZE PUSH1 0x3 NOT ADD SLT PUSH2 0x416 JUMPI PUSH1 0x4 CALLDATALOAD PUSH1 0x1 PUSH1 0x1 PUSH1 0x40 SHL SUB DUP1 DUP3 GT PUSH2 0x416 JUMPI CALLDATASIZE PUSH1 0x23 DUP4 ADD SLT ISZERO PUSH2 0x416 JUMPI DUP2 PUSH1 0x4 ADD CALLDATALOAD SWAP1 DUP2 GT PUSH2 0x416 JUMPI PUSH1 0x24 DUP2 DUP4 ADD ADD SWAP1 CALLDATASIZE DUP3 GT PUSH2 0x416 JUMPI PUSH1 0x21 SLOAD CALLER PUSH1 0x1 PUSH1 0x1 PUSH1 0xA0 SHL SUB SWAP2 DUP3 AND EQ SWAP1 DUP2 ISZERO PUSH2 0x11DD JUMPI JUMPDEST POP ISZERO PUSH2 0x1179 JUMPI PUSH1 0x20 EQ PUSH2 0xF32 JUMPI STOP JUMPDEST PUSH1 0x24 PUSH2 0xF3E SWAP3 ADD PUSH2 0x441D JUMP JUMPDEST PUSH0 DUP1 DUP3 SGT ISZERO PUSH2 0x1169 JUMPI POP PUSH1 0x1 JUMPDEST DUP2 ISZERO ISZERO DUP1 PUSH2 0x112B JUMPI JUMPDEST DUP1 PUSH2 0x110D JUMPI JUMPDEST DUP1 PUSH2 0x10F2 JUMPI JUMPDEST PUSH2 0xF66 JUMPI STOP JUMPDEST PUSH0 SWAP2 PUSH2 0x102F SWAP2 ISZERO ISZERO PUSH1 0x1 SUB PUSH2 0x10E2 JUMPI PUSH2 0xF9B PUSH2 0xF80 PUSH2 0xA5F JUMP JUMPDEST POP PUSH1 0x1 PUSH2 0xF95 DUP5 PUSH0 MSTORE PUSH1 0xD PUSH1 0x20 MSTORE PUSH1 0x40 PUSH0 KECCAK256 SWAP1 JUMP JUMPDEST ADD PUSH2 0x443C JUMP JUMPDEST DUP1 PUSH32 0x3ED188EDBA0C6B2D9B7A54CEC2942F1CAB56A63A4DCFDCA5FF11706FFDF25B1E PUSH2 0xFCF DUP3 PUSH0 MSTORE PUSH1 0xE PUSH1 0x20 MSTORE PUSH1 0x40 PUSH0 KECCAK256 SWAP1 JUMP JUMPDEST SLOAD PUSH1 0x1 PUSH2 0xFE4 DUP5 PUSH0 MSTORE PUSH1 0xD PUSH1 0x20 MSTORE PUSH1 0x40 PUSH0 KECCAK256 SWAP1 JUMP JUMPDEST ADD SWAP1 PUSH2 0xFF5 PUSH1 0x40 MLOAD SWAP3 DUP4 SWAP3 DUP4 PUSH2 0x451A JUMP JUMPDEST SUB SWAP1 LOG2 PUSH2 0x100A DUP2 PUSH0 MSTORE PUSH1 0x17 PUSH1 0x20 MSTORE PUSH1 0x40 PUSH0 KECCAK256 SWAP1 JUMP JUMPDEST SLOAD PUSH1 0x16 SLOAD SWAP1 PUSH2 0x1018 DUP3 PUSH2 0x307F JUMP JUMPDEST DUP2 SUB PUSH2 0x1038 JUMPI JUMPDEST POP POP PUSH0 MSTORE PUSH1 0x17 PUSH1 0x20 MSTORE PUSH1 0x40 PUSH0 KECCAK256 SWAP1 JUMP JUMPDEST SSTORE PUSH2 0x66F PUSH2 0x366E JUMP JUMPDEST PUSH2 0x109B PUSH2 0x107A PUSH2 0x1070 PUSH2 0x106B PUSH32 0x2F5A4EE168DCA9EAEF284F1844A3D24D74BA63A5FCCC947454FC07515C8B3774 SWAP6 PUSH2 0x307F JUMP JUMPDEST PUSH2 0x9F3 JUMP JUMPDEST SWAP1 SLOAD SWAP1 PUSH1 0x3 SHL SHR SWAP1 JUMP JUMPDEST PUSH2 0x1083 DUP4 PUSH2 0x9F3 JUMP JUMPDEST SWAP1 SWAP2 SWAP1 DUP3 SLOAD SWAP1 PUSH1 0x3 SHL SWAP2 DUP3 SHL SWAP2 PUSH0 NOT SWAP1 SHL NOT AND OR SWAP1 SSTORE JUMP JUMPDEST DUP1 PUSH2 0x10BE PUSH2 0x10B0 PUSH2 0x1070 PUSH2 0x106B PUSH1 0x16 SLOAD PUSH2 0x307F JUMP JUMPDEST PUSH0 MSTORE PUSH1 0x17 PUSH1 0x20 MSTORE PUSH1 0x40 PUSH0 KECCAK256 SWAP1 JUMP JUMPDEST SSTORE PUSH2 0x10CB PUSH2 0x1070 DUP3 PUSH2 0x9F3 JUMP JUMPDEST PUSH1 0x40 DUP1 MLOAD SWAP2 DUP3 MSTORE PUSH1 0x20 DUP3 ADD SWAP3 SWAP1 SWAP3 MSTORE LOG1 PUSH0 DUP1 PUSH2 0x101F JUMP JUMPDEST PUSH2 0x10ED PUSH2 0xF80 PUSH2 0xA2A JUMP JUMPDEST PUSH2 0xF9B JUMP JUMPDEST POP PUSH2 0x1105 DUP3 PUSH0 MSTORE PUSH1 0x17 PUSH1 0x20 MSTORE PUSH1 0x40 PUSH0 KECCAK256 SWAP1 JUMP JUMPDEST SLOAD ISZERO ISZERO PUSH2 0xF60 JUMP JUMPDEST POP PUSH1 0x2 PUSH2 0x1122 DUP4 PUSH0 MSTORE PUSH1 0xD PUSH1 0x20 MSTORE PUSH1 0x40 PUSH0 KECCAK256 SWAP1 JUMP JUMPDEST ADD SLOAD ISZERO ISZERO PUSH2 0xF5A JUMP JUMPDEST POP PUSH2 0x1161 PUSH1 0x2 PUSH2 0x1143 DUP5 PUSH0 MSTORE PUSH1 0xD PUSH1 0x20 MSTORE PUSH1 0x40 PUSH0 KECCAK256 SWAP1 JUMP JUMPDEST ADD SLOAD PUSH1 0x3 PUSH2 0x1159 DUP6 PUSH0 MSTORE PUSH1 0xD PUSH1 0x20 MSTORE PUSH1 0x40 PUSH0 KECCAK256 SWAP1 JUMP JUMPDEST ADD SLOAD SWAP1 PUSH2 0x30AD JUMP JUMPDEST TIMESTAMP LT ISZERO PUSH2 0xF54 JUMP JUMPDEST PUSH2 0x1173 SWAP1 SWAP2 PUSH2 0x442C JUMP JUMPDEST SWAP1 PUSH2 0xF4B JUMP JUMPDEST PUSH1 0x40 MLOAD PUSH3 0x461BCD PUSH1 0xE5 SHL DUP2 MSTORE PUSH1 0x20 PUSH1 0x4 DUP3 ADD MSTORE PUSH1 0x36 PUSH1 0x24 DUP3 ADD MSTORE PUSH32 0x4E6F742074686520636F6E7472616374206F776E6572206F72204175746F6D61 PUSH1 0x44 DUP3 ADD MSTORE PUSH22 0x1D1A5BDB88149959DA5CDD1C9E4810DBDB9D1C9858DD PUSH1 0x52 SHL PUSH1 0x64 DUP3 ADD MSTORE PUSH1 0x84 SWAP1 REVERT JUMPDEST SWAP1 POP PUSH1 0x19 SLOAD AND CALLER EQ PUSH0 PUSH2 0xF23 JUMP JUMPDEST CALLVALUE PUSH2 0x416 JUMPI PUSH0 CALLDATASIZE PUSH1 0x3 NOT ADD SLT PUSH2 0x416 JUMPI PUSH1 0x20 PUSH1 0x1F SLOAD PUSH1 0x40 MLOAD SWAP1 DUP2 MSTORE RETURN JUMPDEST CALLVALUE PUSH2 0x416 JUMPI PUSH1 0x20 CALLDATASIZE PUSH1 0x3 NOT ADD SLT PUSH2 0x416 JUMPI PUSH1 0x4 CALLDATALOAD PUSH1 0x8 SLOAD DUP2 LT ISZERO PUSH2 0x1258 JUMPI PUSH1 0x8 PUSH0 MSTORE PUSH32 0xF3F7A9FE364FAAB93B216DA50A3214154F22A0A2B415B23A84C8169E8B636EE3 ADD SLOAD PUSH1 0x40 MLOAD SWAP1 DUP2 MSTORE PUSH1 0x20 SWAP1 RETURN JUMPDEST PUSH1 0x40 MLOAD PUSH3 0x461BCD PUSH1 0xE5 SHL DUP2 MSTORE PUSH1 0x20 PUSH1 0x4 DUP3 ADD MSTORE PUSH1 0x2C PUSH1 0x24 DUP3 ADD MSTORE PUSH32 0x455243373231456E756D657261626C653A20676C6F62616C20696E646578206F PUSH1 0x44 DUP3 ADD MSTORE PUSH12 0x7574206F6620626F756E6473 PUSH1 0xA0 SHL PUSH1 0x64 DUP3 ADD MSTORE PUSH1 0x84 SWAP1 REVERT JUMPDEST CALLVALUE PUSH2 0x416 JUMPI PUSH1 0x20 CALLDATASIZE PUSH1 0x3 NOT ADD SLT PUSH2 0x416 JUMPI PUSH2 0x12D8 PUSH1 0x1 DUP1 PUSH1 0xA0 SHL SUB PUSH1 0xA SLOAD AND CALLER EQ PUSH2 0x2B7F JUMP JUMPDEST PUSH1 0x4 CALLDATALOAD PUSH1 0x20 SSTORE STOP JUMPDEST CALLVALUE PUSH2 0x416 JUMPI PUSH1 0x20 CALLDATASIZE PUSH1 0x3 NOT ADD SLT PUSH2 0x416 JUMPI PUSH2 0x12F9 PUSH2 0x5EC JUMP JUMPDEST PUSH1 0xA SLOAD PUSH1 0x1 PUSH1 0x1 PUSH1 0xA0 SHL SUB SWAP2 SWAP1 PUSH2 0x1313 SWAP1 DUP4 AND CALLER EQ PUSH2 0x2B7F JUMP JUMPDEST AND PUSH1 0x1 DUP1 PUSH1 0xA0 SHL SUB NOT PUSH1 0x19 SLOAD AND OR PUSH1 0x19 SSTORE PUSH0 DUP1 RETURN JUMPDEST CALLVALUE PUSH2 0x416 JUMPI PUSH1 0x20 CALLDATASIZE PUSH1 0x3 NOT ADD SLT PUSH2 0x416 JUMPI PUSH1 0x20 PUSH2 0x5DA PUSH1 0x4 CALLDATALOAD PUSH2 0x2C88 JUMP JUMPDEST PUSH1 0x40 MLOAD SWAP1 PUSH2 0x81E DUP3 PUSH2 0x750 JUMP JUMPDEST PUSH1 0x40 MLOAD SWAP1 PUSH2 0x81E DUP3 PUSH2 0x770 JUMP JUMPDEST PUSH1 0x1 PUSH1 0x1 PUSH1 0x40 SHL SUB DUP2 GT PUSH2 0x76B JUMPI PUSH1 0x1F ADD PUSH1 0x1F NOT AND PUSH1 0x20 ADD SWAP1 JUMP JUMPDEST SWAP3 SWAP2 SWAP3 PUSH2 0x1387 DUP3 PUSH2 0x1360 JUMP JUMPDEST SWAP2 PUSH2 0x1395 PUSH1 0x40 MLOAD SWAP4 DUP5 PUSH2 0x7C1 JUMP JUMPDEST DUP3 SWAP5 DUP2 DUP5 MSTORE DUP2 DUP4 ADD GT PUSH2 0x416 JUMPI DUP3 DUP2 PUSH1 0x20 SWAP4 DUP5 PUSH0 SWAP7 ADD CALLDATACOPY ADD ADD MSTORE JUMP JUMPDEST SWAP1 DUP1 PUSH1 0x1F DUP4 ADD SLT ISZERO PUSH2 0x416 JUMPI DUP2 PUSH1 0x20 PUSH2 0x4F9 SWAP4 CALLDATALOAD SWAP2 ADD PUSH2 0x137B JUMP JUMPDEST CALLVALUE PUSH2 0x416 JUMPI PUSH1 0x60 CALLDATASIZE PUSH1 0x3 NOT ADD SLT PUSH2 0x416 JUMPI PUSH1 0x4 CALLDATALOAD PUSH1 0x24 CALLDATALOAD PUSH1 0x1 PUSH1 0x1 PUSH1 0x40 SHL SUB DUP2 GT PUSH2 0x416 JUMPI PUSH2 0x13FF SWAP1 CALLDATASIZE SWAP1 PUSH1 0x4 ADD PUSH2 0x13B1 JUMP JUMPDEST SWAP1 PUSH2 0x146C PUSH1 0x44 CALLDATALOAD SWAP2 PUSH2 0x1427 PUSH1 0x2 PUSH2 0x141E DUP4 PUSH0 MSTORE PUSH1 0xD PUSH1 0x20 MSTORE PUSH1 0x40 PUSH0 KECCAK256 SWAP1 JUMP JUMPDEST ADD SLOAD ISZERO ISZERO PUSH2 0x3F5A JUMP JUMPDEST PUSH1 0x1A SLOAD PUSH2 0x143C SWAP1 PUSH1 0x1 PUSH1 0x1 PUSH1 0xA0 SHL SUB AND PUSH2 0xCA5 JUMP JUMPDEST SWAP3 PUSH2 0x144F DUP3 PUSH0 MSTORE PUSH1 0xD PUSH1 0x20 MSTORE PUSH1 0x40 PUSH0 KECCAK256 SWAP1 JUMP JUMPDEST PUSH1 0x40 MLOAD DUP1 SWAP6 PUSH3 0x6E7C31 PUSH1 0xE9 SHL DUP3 MSTORE DUP2 DUP1 PUSH0 SWAP8 DUP9 SWAP6 PUSH1 0x4 DUP4 ADD PUSH2 0x4103 JUMP JUMPDEST SUB SWAP2 GAS STATICCALL SWAP3 DUP4 ISZERO PUSH2 0xD2A JUMPI PUSH2 0x154E SWAP5 DUP2 SWAP5 PUSH2 0x16FA JUMPI JUMPDEST POP PUSH2 0x148F PUSH1 0x1 DUP4 GT PUSH2 0x4114 JUMP JUMPDEST PUSH2 0x14A8 PUSH2 0x14A0 PUSH1 0x15 SLOAD DUP7 MLOAD SWAP1 PUSH2 0x30AD JUMP JUMPDEST DUP4 GT ISZERO PUSH2 0x415F JUMP JUMPDEST PUSH2 0x14E1 PUSH2 0x14DC PUSH2 0x14D8 PUSH2 0x6A8 PUSH2 0x14C6 DUP8 PUSH0 MSTORE PUSH1 0x18 PUSH1 0x20 MSTORE PUSH1 0x40 PUSH0 KECCAK256 SWAP1 JUMP JUMPDEST CALLER PUSH0 SWAP1 DUP2 MSTORE PUSH1 0x20 SWAP2 SWAP1 SWAP2 MSTORE PUSH1 0x40 SWAP1 KECCAK256 SWAP1 JUMP JUMPDEST ISZERO SWAP1 JUMP JUMPDEST PUSH2 0x41A6 JUMP JUMPDEST PUSH2 0x1507 PUSH2 0x14FA CALLER PUSH2 0x693 DUP7 PUSH0 MSTORE PUSH1 0x18 PUSH1 0x20 MSTORE PUSH1 0x40 PUSH0 KECCAK256 SWAP1 JUMP JUMPDEST DUP1 SLOAD PUSH1 0xFF NOT AND PUSH1 0x1 OR SWAP1 SSTORE JUMP JUMPDEST PUSH1 0x1B SLOAD PUSH1 0x20 SWAP1 PUSH2 0x151F SWAP1 PUSH1 0x1 PUSH1 0x1 PUSH1 0xA0 SHL SUB AND PUSH2 0xCA5 JUMP JUMPDEST PUSH2 0x1531 DUP6 PUSH0 MSTORE PUSH1 0xD PUSH1 0x20 MSTORE PUSH1 0x40 PUSH0 KECCAK256 SWAP1 JUMP JUMPDEST SWAP1 PUSH1 0x40 MLOAD DUP1 DUP1 SWAP10 DUP2 SWAP5 PUSH4 0x2B5DF59 PUSH1 0xE0 SHL DUP4 MSTORE CALLER PUSH1 0x4 DUP5 ADD PUSH2 0x41FC JUMP JUMPDEST SUB SWAP2 GAS STATICCALL SWAP3 DUP4 ISZERO PUSH2 0xD2A JUMPI PUSH2 0x165E SWAP7 PUSH2 0x1659 SWAP7 DUP4 SWAP6 PUSH2 0x16A2 JUMPI JUMPDEST POP PUSH2 0x1651 SWAP1 PUSH32 0xDF5898210DFD85B69A1551C8EC0BB02719A41F3283EADD1145B9BFFC9F2E1730 SWAP5 SWAP6 SWAP7 PUSH1 0x15 SLOAD DUP1 DUP9 GT ISZERO PUSH0 EQ PUSH2 0x167C JUMPI POP POP PUSH2 0x15FB PUSH2 0x15BD PUSH2 0x15B7 PUSH2 0x15B2 DUP10 PUSH2 0x307F JUMP JUMPDEST PUSH2 0x9D6 JUMP JUMPDEST POP PUSH2 0x7E2 JUMP JUMPDEST SWAP7 JUMPDEST PUSH2 0x15C7 PUSH2 0x1346 JUMP JUMPDEST CALLER DUP2 MSTORE SWAP1 DUP4 PUSH1 0x20 DUP4 ADD MSTORE PUSH1 0x40 DUP3 ADD MSTORE DUP8 PUSH1 0x60 DUP3 ADD MSTORE DUP9 PUSH1 0x80 DUP3 ADD MSTORE PUSH2 0x15F6 PUSH1 0x13 SLOAD PUSH0 MSTORE PUSH1 0x12 PUSH1 0x20 MSTORE PUSH1 0x40 PUSH0 KECCAK256 SWAP1 JUMP JUMPDEST PUSH2 0x4232 JUMP JUMPDEST PUSH2 0x1619 PUSH2 0x1610 DUP5 PUSH0 MSTORE PUSH1 0x14 PUSH1 0x20 MSTORE PUSH1 0x40 PUSH0 KECCAK256 SWAP1 JUMP JUMPDEST PUSH1 0x13 SLOAD SWAP1 PUSH2 0x35F6 JUMP JUMPDEST PUSH1 0x13 SLOAD SWAP7 DUP8 SWAP7 PUSH1 0x40 MLOAD SWAP6 DUP7 SWAP6 DUP10 PUSH32 0x953DE3727DE1848EA7329BEE97A44132BDD8271D8D663EB90BC2772F21541EC8 CALLER SWAP4 DUP1 LOG4 DUP5 PUSH2 0x434C JUMP JUMPDEST SUB SWAP1 LOG2 PUSH2 0x3752 JUMP JUMPDEST PUSH1 0x13 SSTORE JUMP JUMPDEST PUSH2 0x552 PUSH2 0x166C PUSH1 0x13 SLOAD PUSH2 0x307F JUMP JUMPDEST PUSH1 0x40 MLOAD SWAP1 DUP2 MSTORE SWAP1 DUP2 SWAP1 PUSH1 0x20 DUP3 ADD SWAP1 JUMP JUMPDEST PUSH2 0x15FB SWAP2 PUSH2 0x1695 PUSH2 0x1690 PUSH2 0x169B SWAP4 DUP12 PUSH2 0x3092 JUMP JUMPDEST PUSH2 0x307F JUMP JUMPDEST SWAP1 PUSH2 0x421E JUMP JUMPDEST MLOAD SWAP7 PUSH2 0x15BF JUMP JUMPDEST PUSH32 0xDF5898210DFD85B69A1551C8EC0BB02719A41F3283EADD1145B9BFFC9F2E1730 SWAP5 SWAP6 POP SWAP1 PUSH2 0x16EA PUSH2 0x1651 SWAP3 PUSH1 0x20 RETURNDATASIZE DUP2 GT PUSH2 0x16F3 JUMPI JUMPDEST PUSH2 0x16E2 DUP2 DUP4 PUSH2 0x7C1 JUMP JUMPDEST DUP2 ADD SWAP1 PUSH2 0x3DC8 JUMP JUMPDEST SWAP6 SWAP5 POP SWAP1 PUSH2 0x1568 JUMP JUMPDEST POP RETURNDATASIZE PUSH2 0x16D8 JUMP JUMPDEST PUSH2 0x1717 SWAP2 SWAP5 POP RETURNDATASIZE DUP1 DUP7 DUP4 RETURNDATACOPY PUSH2 0x170F DUP2 DUP4 PUSH2 0x7C1 JUMP JUMPDEST DUP2 ADD SWAP1 PUSH2 0x3FA2 JUMP JUMPDEST SWAP3 PUSH0 PUSH2 0x1482 JUMP JUMPDEST CALLVALUE PUSH2 0x416 JUMPI PUSH1 0x20 CALLDATASIZE PUSH1 0x3 NOT ADD SLT PUSH2 0x416 JUMPI PUSH2 0x1744 PUSH1 0x1 DUP1 PUSH1 0xA0 SHL SUB PUSH1 0xA SLOAD AND CALLER EQ PUSH2 0x2B7F JUMP JUMPDEST PUSH1 0x4 CALLDATALOAD PUSH1 0x1D SSTORE STOP JUMPDEST PUSH1 0x20 SWAP1 DUP2 PUSH1 0x40 DUP2 DUP4 ADD SWAP3 DUP3 DUP2 MSTORE DUP6 MLOAD DUP1 SWAP5 MSTORE ADD SWAP4 ADD SWAP2 PUSH0 JUMPDEST DUP3 DUP2 LT PUSH2 0x1772 JUMPI POP POP POP POP SWAP1 JUMP JUMPDEST DUP4 MLOAD DUP6 MSTORE SWAP4 DUP2 ADD SWAP4 SWAP3 DUP2 ADD SWAP3 PUSH1 0x1 ADD PUSH2 0x1764 JUMP JUMPDEST CALLVALUE PUSH2 0x416 JUMPI PUSH1 0x20 DUP1 PUSH1 0x3 NOT CALLDATASIZE ADD SLT PUSH2 0x416 JUMPI PUSH1 0x4 CALLDATALOAD PUSH0 MSTORE PUSH1 0x14 DUP2 MSTORE PUSH1 0x40 PUSH0 KECCAK256 SWAP1 PUSH1 0x40 MLOAD SWAP1 DUP2 DUP2 DUP5 SLOAD SWAP2 DUP3 DUP2 MSTORE ADD SWAP4 PUSH0 MSTORE DUP2 PUSH0 KECCAK256 SWAP2 PUSH0 SWAP1 JUMPDEST DUP3 DUP3 LT PUSH2 0x17E0 JUMPI PUSH2 0x552 DUP6 PUSH2 0x17D4 DUP2 DUP10 SUB DUP3 PUSH2 0x7C1 JUMP JUMPDEST PUSH1 0x40 MLOAD SWAP2 DUP3 SWAP2 DUP3 PUSH2 0x174C JUMP JUMPDEST DUP4 SLOAD DUP7 MSTORE SWAP5 DUP6 ADD SWAP5 PUSH1 0x1 SWAP4 DUP5 ADD SWAP4 SWAP1 SWAP2 ADD SWAP1 PUSH2 0x17BD JUMP JUMPDEST CALLVALUE PUSH2 0x416 JUMPI PUSH1 0x20 CALLDATASIZE PUSH1 0x3 NOT ADD SLT PUSH2 0x416 JUMPI PUSH1 0x20 PUSH2 0x181A PUSH2 0x1815 PUSH2 0x5EC JUMP JUMPDEST PUSH2 0x2C12 JUMP JUMPDEST PUSH1 0x40 MLOAD SWAP1 DUP2 MSTORE RETURN JUMPDEST CALLVALUE PUSH2 0x416 JUMPI PUSH0 DUP1 PUSH1 0x3 NOT CALLDATASIZE ADD SLT PUSH2 0x5B9 JUMPI PUSH1 0xA SLOAD DUP2 SWAP1 PUSH1 0x1 PUSH1 0x1 PUSH1 0xA0 SHL SUB DUP2 AND SWAP1 PUSH2 0x184E CALLER DUP4 EQ PUSH2 0x2B7F JUMP JUMPDEST PUSH1 0x1 PUSH1 0x1 PUSH1 0xA0 SHL SUB NOT AND PUSH1 0xA SSTORE PUSH32 0x8BE0079C531659141344CD1FD0A4F28419497F9722A3DAAFE3B4186F6B6457E0 DUP3 DUP1 LOG3 DUP1 RETURN JUMPDEST CALLVALUE PUSH2 0x416 JUMPI PUSH0 CALLDATASIZE PUSH1 0x3 NOT ADD SLT PUSH2 0x416 JUMPI PUSH1 0x20 PUSH1 0x16 SLOAD PUSH1 0x40 MLOAD SWAP1 DUP2 MSTORE RETURN JUMPDEST CALLVALUE PUSH2 0x416 JUMPI PUSH1 0x40 CALLDATASIZE PUSH1 0x3 NOT ADD SLT PUSH2 0x416 JUMPI PUSH1 0x20 PUSH1 0xFF PUSH2 0x18E1 PUSH2 0x18BF PUSH2 0x602 JUMP JUMPDEST PUSH1 0x4 CALLDATALOAD PUSH0 MSTORE PUSH1 0x18 DUP5 MSTORE PUSH1 0x40 PUSH0 KECCAK256 SWAP1 PUSH1 0x1 DUP1 PUSH1 0xA0 SHL SUB AND PUSH0 MSTORE PUSH1 0x20 MSTORE PUSH1 0x40 PUSH0 KECCAK256 SWAP1 JUMP JUMPDEST SLOAD AND PUSH1 0x40 MLOAD SWAP1 ISZERO ISZERO DUP2 MSTORE RETURN JUMPDEST SWAP1 PUSH1 0x40 PUSH1 0x3 NOT DUP4 ADD SLT PUSH2 0x416 JUMPI PUSH1 0x4 CALLDATALOAD SWAP2 PUSH1 0x24 CALLDATALOAD SWAP1 PUSH1 0x1 PUSH1 0x1 PUSH1 0x40 SHL SUB DUP3 GT PUSH2 0x416 JUMPI PUSH2 0x4F9 SWAP2 PUSH1 0x4 ADD PUSH2 0x13B1 JUMP JUMPDEST CALLVALUE PUSH2 0x416 JUMPI PUSH32 0xB290E01B548AE78ACE76449298ED234C42194D80AF9F7DFE02FC4F7DE07B9D3 PUSH2 0x194B CALLDATASIZE PUSH2 0x18ED JUMP JUMPDEST SWAP1 PUSH2 0x1968 PUSH2 0x1958 DUP3 PUSH2 0x2C88 JUMP JUMPDEST PUSH1 0x1 PUSH1 0x1 PUSH1 0xA0 SHL SUB AND CALLER EQ PUSH2 0x4531 JUMP JUMPDEST PUSH2 0x1984 PUSH1 0x40 MLOAD SWAP3 DUP4 SWAP3 DUP4 MSTORE PUSH1 0x40 PUSH1 0x20 DUP5 ADD MSTORE PUSH1 0x40 DUP4 ADD SWAP1 PUSH2 0x4C3 JUMP JUMPDEST SUB SWAP1 LOG1 STOP JUMPDEST CALLVALUE PUSH2 0x416 JUMPI PUSH0 CALLDATASIZE PUSH1 0x3 NOT ADD SLT PUSH2 0x416 JUMPI PUSH1 0xA SLOAD PUSH1 0x40 MLOAD PUSH1 0x1 PUSH1 0x1 PUSH1 0xA0 SHL SUB SWAP1 SWAP2 AND DUP2 MSTORE PUSH1 0x20 SWAP1 RETURN JUMPDEST CALLVALUE PUSH2 0x416 JUMPI PUSH1 0x20 CALLDATASIZE PUSH1 0x3 NOT ADD SLT PUSH2 0x416 JUMPI PUSH1 0x4 CALLDATALOAD PUSH0 MSTORE PUSH1 0x17 PUSH1 0x20 MSTORE PUSH1 0x20 PUSH1 0x40 PUSH0 KECCAK256 SLOAD PUSH1 0x40 MLOAD SWAP1 DUP2 MSTORE RETURN JUMPDEST CALLVALUE PUSH2 0x416 JUMPI PUSH0 DUP1 PUSH1 0x3 NOT CALLDATASIZE ADD SLT PUSH2 0x5B9 JUMPI PUSH1 0x40 MLOAD DUP2 PUSH1 0x1 DUP1 SLOAD SWAP1 PUSH2 0x19FE DUP3 PUSH2 0x704 JUMP JUMPDEST DUP1 DUP6 MSTORE SWAP2 DUP2 DUP2 AND SWAP1 DUP2 ISZERO PUSH2 0x591 JUMPI POP PUSH1 0x1 EQ PUSH2 0x1A24 JUMPI PUSH2 0x552 DUP5 PUSH2 0x546 DUP2 DUP9 SUB DUP3 PUSH2 0x7C1 JUMP JUMPDEST DUP1 SWAP5 POP DUP3 MSTORE PUSH1 0x20 SWAP4 DUP5 DUP4 KECCAK256 JUMPDEST DUP3 DUP5 LT PUSH2 0x1A4C JUMPI POP POP POP DUP2 PUSH2 0x552 SWAP4 PUSH2 0x546 SWAP3 DUP3 ADD ADD SWAP4 PUSH2 0x536 JUMP JUMPDEST DUP1 SLOAD DUP6 DUP6 ADD DUP8 ADD MSTORE SWAP3 DUP6 ADD SWAP3 DUP2 ADD PUSH2 0x1A30 JUMP JUMPDEST PUSH1 0x20 DUP2 MSTORE PUSH1 0x1 DUP1 PUSH1 0xA0 SHL SUB DUP3 MLOAD AND PUSH1 0x20 DUP3 ADD MSTORE PUSH1 0xA0 PUSH1 0x80 PUSH2 0x1AB0 PUSH2 0x1A91 PUSH1 0x20 DUP7 ADD MLOAD DUP5 PUSH1 0x40 DUP8 ADD MSTORE PUSH1 0xC0 DUP7 ADD SWAP1 PUSH2 0x4C3 JUMP JUMPDEST PUSH1 0x40 DUP7 ADD MLOAD PUSH1 0x60 DUP7 ADD MSTORE PUSH1 0x60 DUP7 ADD MLOAD PUSH1 0x1F NOT DUP7 DUP4 SUB ADD DUP5 DUP8 ADD MSTORE PUSH2 0x4C3 JUMP JUMPDEST SWAP4 ADD MLOAD SWAP2 ADD MSTORE SWAP1 JUMP JUMPDEST CALLVALUE PUSH2 0x416 JUMPI PUSH1 0x20 CALLDATASIZE PUSH1 0x3 NOT ADD SLT PUSH2 0x416 JUMPI PUSH2 0x552 PUSH1 0x40 PUSH0 PUSH1 0x80 DUP3 MLOAD PUSH2 0x1ADD DUP2 PUSH2 0x750 JUMP JUMPDEST DUP3 DUP2 MSTORE PUSH1 0x60 PUSH1 0x20 DUP3 ADD MSTORE DUP3 DUP5 DUP3 ADD MSTORE PUSH1 0x60 DUP1 DUP3 ADD MSTORE ADD MSTORE PUSH1 0x4 CALLDATALOAD PUSH0 MSTORE PUSH1 0x12 PUSH1 0x20 MSTORE DUP1 PUSH0 KECCAK256 SWAP1 PUSH1 0x4 DUP2 MLOAD SWAP3 PUSH2 0x1B10 DUP5 PUSH2 0x750 JUMP JUMPDEST DUP1 SLOAD PUSH1 0x1 PUSH1 0x1 PUSH1 0xA0 SHL SUB AND DUP5 MSTORE PUSH2 0x1B29 PUSH1 0x1 DUP3 ADD PUSH2 0x7E2 JUMP JUMPDEST PUSH1 0x20 DUP6 ADD MSTORE PUSH1 0x2 DUP2 ADD SLOAD DUP4 DUP6 ADD MSTORE PUSH2 0x1B43 PUSH1 0x3 DUP3 ADD PUSH2 0x7E2 JUMP JUMPDEST PUSH1 0x60 DUP6 ADD MSTORE ADD SLOAD PUSH1 0x80 DUP4 ADD MSTORE MLOAD SWAP2 DUP3 SWAP2 DUP3 PUSH2 0x1A5F JUMP JUMPDEST CALLVALUE PUSH2 0x416 JUMPI PUSH0 CALLDATASIZE PUSH1 0x3 NOT ADD SLT PUSH2 0x416 JUMPI PUSH1 0x20 PUSH1 0x1E SLOAD PUSH1 0x40 MLOAD SWAP1 DUP2 MSTORE RETURN JUMPDEST DUP1 ISZERO ISZERO SUB PUSH2 0x416 JUMPI JUMP JUMPDEST CALLVALUE PUSH2 0x416 JUMPI PUSH1 0x40 CALLDATASIZE PUSH1 0x3 NOT ADD SLT PUSH2 0x416 JUMPI PUSH2 0x1B99 PUSH2 0x5EC JUMP JUMPDEST PUSH1 0x24 CALLDATALOAD PUSH2 0x1BA5 DUP2 PUSH2 0x1B76 JUMP JUMPDEST PUSH1 0x1 PUSH1 0x1 PUSH1 0xA0 SHL SUB DUP3 AND SWAP2 CALLER DUP4 EQ PUSH2 0x1C23 JUMPI DUP2 PUSH2 0x1BE0 PUSH2 0x1BF1 SWAP3 CALLER PUSH0 MSTORE PUSH1 0x5 PUSH1 0x20 MSTORE PUSH1 0x40 PUSH0 KECCAK256 SWAP1 PUSH1 0x1 DUP1 PUSH1 0xA0 SHL SUB AND PUSH0 MSTORE PUSH1 0x20 MSTORE PUSH1 0x40 PUSH0 KECCAK256 SWAP1 JUMP JUMPDEST SWAP1 PUSH1 0xFF DUP1 NOT DUP4 SLOAD AND SWAP2 ISZERO ISZERO AND OR SWAP1 SSTORE JUMP JUMPDEST PUSH1 0x40 MLOAD SWAP1 ISZERO ISZERO DUP2 MSTORE CALLER SWAP1 PUSH32 0x17307EAB39AB6107E8899845AD3D59BD9653F200F220920489CA2B5937696C31 SWAP1 PUSH1 0x20 SWAP1 LOG3 STOP JUMPDEST PUSH1 0x40 MLOAD PUSH3 0x461BCD PUSH1 0xE5 SHL DUP2 MSTORE PUSH1 0x20 PUSH1 0x4 DUP3 ADD MSTORE PUSH1 0x19 PUSH1 0x24 DUP3 ADD MSTORE PUSH25 0x22A9219B99189D1030B8383937BB32903A379031B0B63632B9 PUSH1 0x39 SHL PUSH1 0x44 DUP3 ADD MSTORE PUSH1 0x64 SWAP1 REVERT JUMPDEST CALLVALUE PUSH2 0x416 JUMPI PUSH0 CALLDATASIZE PUSH1 0x3 NOT ADD SLT PUSH2 0x416 JUMPI PUSH1 0x20 PUSH1 0xF SLOAD PUSH1 0x40 MLOAD SWAP1 DUP2 MSTORE RETURN JUMPDEST CALLVALUE PUSH2 0x416 JUMPI PUSH1 0x20 CALLDATASIZE PUSH1 0x3 NOT ADD SLT PUSH2 0x416 JUMPI PUSH1 0x4 CALLDATALOAD PUSH0 MSTORE PUSH1 0xE PUSH1 0x20 MSTORE PUSH1 0x20 PUSH1 0x40 PUSH0 KECCAK256 SLOAD PUSH1 0x40 MLOAD SWAP1 DUP2 MSTORE RETURN JUMPDEST CALLVALUE PUSH2 0x416 JUMPI PUSH1 0x20 CALLDATASIZE PUSH1 0x3 NOT ADD SLT PUSH2 0x416 JUMPI PUSH2 0x1CC4 PUSH2 0x5EC JUMP JUMPDEST PUSH1 0xA SLOAD PUSH1 0x1 PUSH1 0x1 PUSH1 0xA0 SHL SUB SWAP2 SWAP1 PUSH2 0x1CDE SWAP1 DUP4 AND CALLER EQ PUSH2 0x2B7F JUMP JUMPDEST AND PUSH1 0x1 DUP1 PUSH1 0xA0 SHL SUB NOT PUSH1 0x1A SLOAD AND OR PUSH1 0x1A SSTORE PUSH0 DUP1 RETURN JUMPDEST CALLVALUE PUSH2 0x416 JUMPI PUSH1 0x80 CALLDATASIZE PUSH1 0x3 NOT ADD SLT PUSH2 0x416 JUMPI PUSH2 0x1D0C PUSH2 0x5EC JUMP JUMPDEST PUSH2 0x1D14 PUSH2 0x602 JUMP JUMPDEST PUSH1 0x64 CALLDATALOAD SWAP2 PUSH1 0x1 PUSH1 0x1 PUSH1 0x40 SHL SUB DUP4 GT PUSH2 0x416 JUMPI CALLDATASIZE PUSH1 0x23 DUP5 ADD SLT ISZERO PUSH2 0x416 JUMPI PUSH2 0x1D48 PUSH2 0x66F SWAP4 CALLDATASIZE SWAP1 PUSH1 0x24 DUP2 PUSH1 0x4 ADD CALLDATALOAD SWAP2 ADD PUSH2 0x137B JUMP JUMPDEST SWAP2 PUSH1 0x44 CALLDATALOAD SWAP2 PUSH2 0x2E87 JUMP JUMPDEST CALLVALUE PUSH2 0x416 JUMPI PUSH1 0x20 CALLDATASIZE PUSH1 0x3 NOT ADD SLT PUSH2 0x416 JUMPI PUSH1 0x4 DUP1 CALLDATALOAD PUSH0 SWAP1 DUP2 MSTORE PUSH1 0x12 PUSH1 0x20 SWAP1 DUP2 MSTORE PUSH1 0x40 SWAP2 DUP3 SWAP1 KECCAK256 PUSH1 0x2 DUP2 ADD SLOAD SWAP4 ADD SLOAD DUP3 MLOAD SWAP4 DUP5 MSTORE SWAP1 DUP4 ADD MSTORE SWAP1 RETURN JUMPDEST CALLVALUE PUSH2 0x416 JUMPI PUSH0 DUP1 PUSH1 0x3 NOT CALLDATASIZE ADD SLT PUSH2 0x5B9 JUMPI PUSH1 0x40 MLOAD PUSH1 0x16 DUP1 SLOAD DUP1 DUP4 MSTORE SWAP1 DUP4 MSTORE PUSH1 0x20 DUP1 DUP4 ADD SWAP4 PUSH0 DUP1 MLOAD PUSH1 0x20 PUSH2 0x47F9 DUP4 CODECOPY DUP2 MLOAD SWAP2 MSTORE SWAP3 SWAP2 JUMPDEST DUP3 DUP3 LT PUSH2 0x1DD8 JUMPI PUSH2 0x552 DUP6 PUSH2 0x17D4 DUP2 DUP10 SUB DUP3 PUSH2 0x7C1 JUMP JUMPDEST DUP4 SLOAD DUP7 MSTORE SWAP5 DUP6 ADD SWAP5 PUSH1 0x1 SWAP4 DUP5 ADD SWAP4 SWAP1 SWAP2 ADD SWAP1 PUSH2 0x1DC1 JUMP JUMPDEST CALLVALUE PUSH2 0x416 JUMPI PUSH0 CALLDATASIZE PUSH1 0x3 NOT ADD SLT PUSH2 0x416 JUMPI PUSH1 0x1A SLOAD PUSH1 0x40 MLOAD PUSH1 0x1 PUSH1 0x1 PUSH1 0xA0 SHL SUB SWAP1 SWAP2 AND DUP2 MSTORE PUSH1 0x20 SWAP1 RETURN JUMPDEST CALLVALUE PUSH2 0x416 JUMPI PUSH1 0x20 CALLDATASIZE PUSH1 0x3 NOT ADD SLT PUSH2 0x416 JUMPI PUSH2 0x1E30 PUSH2 0x5EC JUMP JUMPDEST PUSH1 0xA SLOAD PUSH1 0x1 PUSH1 0x1 PUSH1 0xA0 SHL SUB SWAP2 SWAP1 PUSH2 0x1E4A SWAP1 DUP4 AND CALLER EQ PUSH2 0x2B7F JUMP JUMPDEST AND PUSH1 0x1 DUP1 PUSH1 0xA0 SHL SUB NOT PUSH1 0x1C SLOAD AND OR PUSH1 0x1C SSTORE PUSH0 DUP1 RETURN JUMPDEST CALLVALUE PUSH2 0x416 JUMPI PUSH1 0x20 CALLDATASIZE PUSH1 0x3 NOT ADD SLT PUSH2 0x416 JUMPI PUSH1 0x4 CALLDATALOAD PUSH0 MSTORE PUSH1 0xD PUSH1 0x20 MSTORE PUSH2 0x1EB9 PUSH1 0x40 PUSH0 KECCAK256 PUSH2 0x1E8A DUP2 PUSH2 0x7E2 JUMP JUMPDEST SWAP1 PUSH2 0x1E97 PUSH1 0x1 DUP3 ADD PUSH2 0x7E2 JUMP JUMPDEST PUSH2 0x1EC7 PUSH1 0x3 PUSH1 0x2 DUP5 ADD SLOAD SWAP4 ADD SLOAD SWAP2 PUSH1 0x40 MLOAD SWAP6 DUP7 SWAP6 PUSH1 0x80 DUP8 MSTORE PUSH1 0x80 DUP8 ADD SWAP1 PUSH2 0x4C3 JUMP JUMPDEST SWAP1 DUP6 DUP3 SUB PUSH1 0x20 DUP8 ADD MSTORE PUSH2 0x4C3 JUMP JUMPDEST SWAP2 PUSH1 0x40 DUP5 ADD MSTORE PUSH1 0x60 DUP4 ADD MSTORE SUB SWAP1 RETURN JUMPDEST PUSH1 0x40 SWAP1 PUSH2 0x4F9 SWAP4 SWAP3 ISZERO ISZERO DUP2 MSTORE DUP2 PUSH1 0x20 DUP3 ADD MSTORE ADD SWAP1 PUSH2 0x4C3 JUMP JUMPDEST CALLVALUE PUSH2 0x416 JUMPI PUSH0 DUP1 PUSH1 0x3 NOT CALLDATASIZE ADD SLT PUSH2 0x5B9 JUMPI DUP1 DUP1 DUP1 PUSH1 0x16 SLOAD DUP1 PUSH2 0x1F45 JUMPI JUMPDEST PUSH2 0x1F28 DUP5 PUSH2 0x1F36 DUP8 PUSH1 0x40 MLOAD SWAP4 DUP5 SWAP2 PUSH1 0x20 DUP4 ADD SWAP2 SWAP1 PUSH1 0x20 DUP4 ADD SWAP3 MSTORE JUMP JUMPDEST SUB PUSH1 0x1F NOT DUP2 ADD DUP5 MSTORE DUP4 PUSH2 0x7C1 JUMP JUMPDEST PUSH2 0x552 PUSH1 0x40 MLOAD SWAP3 DUP4 SWAP3 DUP4 PUSH2 0x1ED6 JUMP JUMPDEST DUP3 PUSH1 0x1 DUP1 JUMPDEST DUP4 DUP2 LT PUSH2 0x218B JUMPI POP POP POP POP DUP1 PUSH2 0x1F61 JUMPI JUMPDEST DUP1 PUSH2 0x1F0C JUMP JUMPDEST PUSH1 0x1A SLOAD SWAP2 SWAP4 POP SWAP1 PUSH2 0x1F7A SWAP1 PUSH1 0x1 PUSH1 0x1 PUSH1 0xA0 SHL SUB AND PUSH2 0xCA5 JUMP JUMPDEST PUSH2 0x1F8C DUP3 PUSH0 MSTORE PUSH1 0xD PUSH1 0x20 MSTORE PUSH1 0x40 PUSH0 KECCAK256 SWAP1 JUMP JUMPDEST SWAP4 PUSH1 0x40 SWAP2 PUSH1 0x60 DUP4 MLOAD DUP1 SWAP3 PUSH4 0x26917989 PUSH1 0xE0 SHL DUP3 MSTORE DUP2 DUP1 PUSH2 0x1FB0 PUSH1 0x4 SWAP12 DUP13 DUP4 ADD PUSH2 0x4103 JUMP JUMPDEST SUB SWAP2 GAS STATICCALL SWAP3 DUP4 ISZERO PUSH2 0xD2A JUMPI DUP3 SWAP1 DUP4 SWAP3 DUP5 SWAP6 PUSH2 0x2155 JUMPI JUMPDEST POP PUSH2 0x1FE1 PUSH2 0x1FDC DUP8 PUSH0 MSTORE PUSH1 0x14 PUSH1 0x20 MSTORE PUSH1 0x40 PUSH0 KECCAK256 SWAP1 JUMP JUMPDEST PUSH2 0x4390 JUMP JUMPDEST SWAP8 PUSH2 0x1FEB DUP8 PUSH2 0x478B JUMP JUMPDEST DUP9 MLOAD SWAP5 DUP4 DUP7 LT ISZERO PUSH2 0x2014 JUMPI POP POP POP POP POP POP POP PUSH2 0x1F28 SWAP3 POP PUSH2 0x200E PUSH2 0x1F36 SWAP2 PUSH2 0x4408 JUMP JUMPDEST SWAP3 PUSH2 0x1F5B JUMP JUMPDEST DUP1 SWAP5 DUP2 SWAP7 PUSH1 0x1F SLOAD SWAP1 DUP2 DUP2 GT PUSH0 EQ PUSH2 0x214D JUMPI POP SWAP3 JUMPDEST DUP3 JUMPDEST DUP5 DUP2 LT PUSH2 0x2092 JUMPI POP POP POP POP POP POP PUSH2 0x1F28 SWAP7 POP SWAP1 DUP3 SWAP2 PUSH2 0x1F36 SWAP6 SWAP5 SWAP4 ISZERO SWAP1 DUP2 ISZERO PUSH2 0x2088 JUMPI JUMPDEST POP ISZERO PUSH2 0x2065 JUMPI POP POP POP PUSH2 0x2060 SWAP1 PUSH2 0x4408 JUMP JUMPDEST PUSH2 0x200E JUMP JUMPDEST SWAP1 PUSH2 0x2072 PUSH2 0x2077 SWAP3 PUSH2 0x43F2 JUMP JUMPDEST PUSH2 0x3760 JUMP JUMPDEST LT ISZERO PUSH0 SUB PUSH2 0x200E JUMPI PUSH2 0x2060 SWAP1 PUSH2 0x4408 JUMP JUMPDEST SWAP1 POP DUP3 LT PUSH0 PUSH2 0x204E JUMP JUMPDEST PUSH2 0x20BF DUP7 PUSH2 0x20A1 DUP16 DUP5 SWAP1 PUSH2 0x421E JUMP JUMPDEST MLOAD DUP2 MLOAD DUP1 SWAP4 DUP2 SWAP3 PUSH4 0x5CF17E1F PUSH1 0xE1 SHL DUP4 MSTORE DUP8 DUP4 ADD SWAP2 SWAP1 PUSH1 0x20 DUP4 ADD SWAP3 MSTORE JUMP JUMPDEST SUB DUP2 ADDRESS GAS STATICCALL DUP1 ISZERO PUSH2 0xD2A JUMPI DUP5 SWAP1 DUP7 SWAP3 DUP8 SWAP2 PUSH2 0x211A JUMPI JUMPDEST POP LT ISZERO PUSH2 0x20EC JUMPI JUMPDEST POP PUSH2 0x20E7 SWAP1 PUSH2 0x3752 JUMP JUMPDEST PUSH2 0x202A JUMP JUMPDEST SWAP9 PUSH2 0x20F8 PUSH1 0x2 SWAP2 PUSH2 0x3752 JUMP JUMPDEST SWAP10 EQ PUSH2 0x2105 JUMPI JUMPDEST PUSH0 PUSH2 0x20DD JUMP JUMPDEST SWAP7 PUSH2 0x2112 PUSH2 0x20E7 SWAP2 PUSH2 0x3752 JUMP JUMPDEST SWAP8 SWAP1 POP PUSH2 0x20FF JUMP JUMPDEST SWAP1 POP PUSH2 0x213D SWAP2 SWAP3 POP DUP9 RETURNDATASIZE DUP11 GT PUSH2 0x2146 JUMPI JUMPDEST PUSH2 0x2135 DUP2 DUP4 PUSH2 0x7C1 JUMP JUMPDEST DUP2 ADD SWAP1 PUSH2 0x43DC JUMP JUMPDEST SWAP2 SWAP1 SWAP2 PUSH0 PUSH2 0x20D5 JUMP JUMPDEST POP RETURNDATASIZE PUSH2 0x212B JUMP JUMPDEST SWAP1 POP SWAP3 PUSH2 0x2028 JUMP JUMPDEST SWAP2 POP SWAP4 POP PUSH2 0x217A SWAP2 POP PUSH1 0x60 RETURNDATASIZE DUP2 GT PUSH2 0x2184 JUMPI JUMPDEST PUSH2 0x2172 DUP2 DUP4 PUSH2 0x7C1 JUMP JUMPDEST DUP2 ADD SWAP1 PUSH2 0x4375 JUMP JUMPDEST SWAP2 SWAP1 SWAP2 SWAP4 PUSH0 PUSH2 0x1FC6 JUMP JUMPDEST POP RETURNDATASIZE PUSH2 0x2168 JUMP JUMPDEST PUSH2 0x21C0 PUSH1 0x2 PUSH2 0x21AD PUSH2 0x219F PUSH2 0x1070 DUP6 PUSH2 0x9F3 JUMP JUMPDEST PUSH0 MSTORE PUSH1 0xD PUSH1 0x20 MSTORE PUSH1 0x40 PUSH0 KECCAK256 SWAP1 JUMP JUMPDEST ADD SLOAD PUSH1 0x3 PUSH2 0x1159 PUSH2 0x219F PUSH2 0x1070 DUP7 PUSH2 0x9F3 JUMP JUMPDEST TIMESTAMP DUP2 GT ISZERO DUP1 PUSH2 0x21FD JUMPI JUMPDEST PUSH2 0x21DE JUMPI JUMPDEST POP PUSH2 0x21D9 SWAP1 PUSH2 0x3752 JUMP JUMPDEST PUSH2 0x1F4A JUMP JUMPDEST SWAP5 POP SWAP2 POP DUP1 SWAP6 POP SWAP5 PUSH2 0x21D9 PUSH2 0x21F5 PUSH2 0x1070 DUP5 PUSH2 0x9F3 JUMP JUMPDEST SWAP5 SWAP3 SWAP1 PUSH2 0x21CF JUMP JUMPDEST POP DUP4 DUP2 GT ISZERO DUP1 PUSH2 0x21CA JUMPI POP DUP4 ISZERO PUSH2 0x21CA JUMP JUMPDEST CALLVALUE PUSH2 0x416 JUMPI PUSH1 0x20 CALLDATASIZE PUSH1 0x3 NOT ADD SLT PUSH2 0x416 JUMPI PUSH1 0x4 CALLDATALOAD PUSH0 DUP2 DUP2 MSTORE PUSH1 0x2 PUSH1 0x20 MSTORE PUSH1 0x40 SWAP1 KECCAK256 SLOAD PUSH1 0x1 PUSH1 0x1 PUSH1 0xA0 SHL SUB AND ISZERO PUSH2 0x229A JUMPI PUSH2 0x2247 PUSH2 0x2CFF JUMP JUMPDEST DUP1 MLOAD ISZERO PUSH2 0x2288 JUMPI PUSH2 0x546 PUSH2 0x2274 SWAP2 PUSH2 0x227A PUSH2 0x2264 PUSH2 0x552 SWAP6 PUSH2 0x378F JUMP JUMPDEST PUSH1 0x40 MLOAD SWAP5 DUP6 SWAP4 PUSH1 0x20 DUP6 ADD SWAP1 PUSH2 0x23C9 JUMP JUMPDEST SWAP1 PUSH2 0x23C9 JUMP JUMPDEST SUB PUSH1 0x1F NOT DUP2 ADD DUP4 MSTORE DUP3 PUSH2 0x7C1 JUMP JUMPDEST POP POP PUSH2 0x552 PUSH2 0x2295 PUSH2 0x2CFF JUMP JUMPDEST PUSH2 0x546 JUMP JUMPDEST PUSH1 0x40 MLOAD PUSH3 0x461BCD PUSH1 0xE5 SHL DUP2 MSTORE PUSH1 0x20 PUSH1 0x4 DUP3 ADD MSTORE PUSH1 0x2F PUSH1 0x24 DUP3 ADD MSTORE PUSH32 0x4552433732314D657461646174613A2055524920717565727920666F72206E6F PUSH1 0x44 DUP3 ADD MSTORE PUSH15 0x3732BC34B9BA32B73A103A37B5B2B7 PUSH1 0x89 SHL PUSH1 0x64 DUP3 ADD MSTORE PUSH1 0x84 SWAP1 REVERT JUMPDEST CALLVALUE PUSH2 0x416 JUMPI PUSH1 0x20 CALLDATASIZE PUSH1 0x3 NOT ADD SLT PUSH2 0x416 JUMPI PUSH2 0x231D PUSH1 0x1 DUP1 PUSH1 0xA0 SHL SUB PUSH1 0xA SLOAD AND CALLER EQ PUSH2 0x2B7F JUMP JUMPDEST PUSH1 0x4 CALLDATALOAD PUSH1 0x1F SSTORE STOP JUMPDEST CALLVALUE PUSH2 0x416 JUMPI PUSH1 0x80 CALLDATASIZE PUSH1 0x3 NOT ADD SLT PUSH2 0x416 JUMPI PUSH1 0x1 PUSH1 0x1 PUSH1 0x40 SHL SUB PUSH1 0x4 CALLDATALOAD DUP2 DUP2 GT PUSH2 0x416 JUMPI PUSH2 0x2356 SWAP1 CALLDATASIZE SWAP1 PUSH1 0x4 ADD PUSH2 0x13B1 JUMP JUMPDEST SWAP1 PUSH1 0x24 CALLDATALOAD DUP2 DUP2 GT PUSH2 0x416 JUMPI PUSH2 0x236F SWAP1 CALLDATASIZE SWAP1 PUSH1 0x4 ADD PUSH2 0x13B1 JUMP JUMPDEST SWAP2 PUSH1 0x44 CALLDATALOAD DUP3 DUP2 GT PUSH2 0x416 JUMPI PUSH2 0x2388 SWAP1 CALLDATASIZE SWAP1 PUSH1 0x4 ADD PUSH2 0x13B1 JUMP JUMPDEST PUSH1 0x64 CALLDATALOAD SWAP3 DUP4 GT PUSH2 0x416 JUMPI PUSH2 0x552 SWAP4 PUSH2 0x23A7 PUSH2 0x166C SWAP5 CALLDATASIZE SWAP1 PUSH1 0x4 ADD PUSH2 0x13B1 JUMP JUMPDEST SWAP3 PUSH2 0x3AD4 JUMP JUMPDEST CALLVALUE PUSH2 0x416 JUMPI PUSH0 CALLDATASIZE PUSH1 0x3 NOT ADD SLT PUSH2 0x416 JUMPI PUSH1 0x20 DUP1 SLOAD PUSH1 0x40 MLOAD SWAP1 DUP2 MSTORE RETURN JUMPDEST SWAP1 PUSH2 0x23DC PUSH1 0x20 SWAP3 DUP3 DUP2 MLOAD SWAP5 DUP6 SWAP3 ADD PUSH2 0x4A2 JUMP JUMPDEST ADD SWAP1 JUMP JUMPDEST PUSH1 0x20 SWAP1 PUSH2 0x23FA SWAP3 DUP3 PUSH1 0x40 MLOAD SWAP5 DUP4 DUP7 DUP1 SWAP6 MLOAD SWAP4 DUP5 SWAP3 ADD PUSH2 0x4A2 JUMP JUMPDEST DUP3 ADD SWAP1 DUP2 MSTORE SUB ADD SWAP1 KECCAK256 SWAP1 JUMP JUMPDEST CALLVALUE PUSH2 0x416 JUMPI PUSH1 0x20 PUSH2 0x2438 DUP2 PUSH2 0x241A CALLDATASIZE PUSH2 0x18ED JUMP JUMPDEST SWAP1 PUSH0 MSTORE PUSH1 0x11 DUP3 MSTORE PUSH1 0x40 PUSH0 KECCAK256 DUP3 PUSH1 0x40 MLOAD SWAP5 DUP4 DUP7 DUP1 SWAP6 MLOAD SWAP4 DUP5 SWAP3 ADD PUSH2 0x4A2 JUMP JUMPDEST DUP3 ADD SWAP1 DUP2 MSTORE SUB ADD SWAP1 KECCAK256 SLOAD PUSH1 0x40 MLOAD SWAP1 DUP2 MSTORE RETURN JUMPDEST PUSH1 0x1 PUSH1 0x1 PUSH1 0x40 SHL SUB DUP2 GT PUSH2 0x76B JUMPI PUSH1 0x5 SHL PUSH1 0x20 ADD SWAP1 JUMP JUMPDEST CALLVALUE PUSH2 0x416 JUMPI PUSH1 0x20 DUP1 PUSH1 0x3 NOT CALLDATASIZE ADD SLT PUSH2 0x416 JUMPI PUSH1 0x1 PUSH1 0x1 PUSH1 0x40 SHL SUB PUSH1 0x4 CALLDATALOAD DUP2 DUP2 GT PUSH2 0x416 JUMPI CALLDATASIZE PUSH1 0x23 DUP3 ADD SLT ISZERO PUSH2 0x416 JUMPI DUP1 PUSH1 0x4 ADD CALLDATALOAD PUSH2 0x249E DUP2 PUSH2 0x244A JUMP JUMPDEST SWAP3 PUSH2 0x24AC PUSH1 0x40 MLOAD SWAP5 DUP6 PUSH2 0x7C1 JUMP JUMPDEST DUP2 DUP5 MSTORE DUP5 DUP5 ADD SWAP1 PUSH1 0x24 DUP1 SWAP4 PUSH1 0x5 SHL DUP6 ADD ADD SWAP4 CALLDATASIZE DUP6 GT PUSH2 0x416 JUMPI DUP4 DUP2 ADD SWAP3 JUMPDEST DUP6 DUP5 LT PUSH2 0x24DA JUMPI PUSH2 0x66F DUP8 PUSH2 0x45DE JUMP JUMPDEST DUP4 CALLDATALOAD DUP4 DUP2 GT PUSH2 0x416 JUMPI DUP9 SWAP2 PUSH2 0x24F5 DUP4 SWAP3 DUP9 CALLDATASIZE SWAP2 DUP8 ADD ADD PUSH2 0x13B1 JUMP JUMPDEST DUP2 MSTORE ADD SWAP4 ADD SWAP3 PUSH2 0x24CA JUMP JUMPDEST PUSH1 0x20 DUP2 MSTORE PUSH1 0x80 PUSH1 0x60 PUSH2 0x2536 PUSH2 0x2520 DUP6 MLOAD DUP5 PUSH1 0x20 DUP8 ADD MSTORE PUSH1 0xA0 DUP7 ADD SWAP1 PUSH2 0x4C3 JUMP JUMPDEST PUSH1 0x20 DUP7 ADD MLOAD DUP6 DUP3 SUB PUSH1 0x1F NOT ADD PUSH1 0x40 DUP8 ADD MSTORE PUSH2 0x4C3 JUMP JUMPDEST SWAP4 PUSH1 0x40 DUP2 ADD MLOAD DUP3 DUP6 ADD MSTORE ADD MLOAD SWAP2 ADD MSTORE SWAP1 JUMP JUMPDEST CALLVALUE PUSH2 0x416 JUMPI PUSH1 0x20 CALLDATASIZE PUSH1 0x3 NOT ADD SLT PUSH2 0x416 JUMPI PUSH2 0x552 PUSH1 0x40 PUSH0 PUSH1 0x60 DUP3 MLOAD PUSH2 0x256C DUP2 PUSH2 0x770 JUMP JUMPDEST DUP2 DUP2 MSTORE DUP2 PUSH1 0x20 DUP3 ADD MSTORE DUP3 DUP5 DUP3 ADD MSTORE ADD MSTORE PUSH1 0x4 CALLDATALOAD PUSH0 MSTORE PUSH1 0xD PUSH1 0x20 MSTORE DUP1 PUSH0 KECCAK256 SWAP1 PUSH1 0x3 DUP2 MLOAD SWAP3 PUSH2 0x2598 DUP5 PUSH2 0x770 JUMP JUMPDEST PUSH2 0x25A1 DUP2 PUSH2 0x7E2 JUMP JUMPDEST DUP5 MSTORE PUSH2 0x25AF PUSH1 0x1 DUP3 ADD PUSH2 0x7E2 JUMP JUMPDEST PUSH1 0x20 DUP6 ADD MSTORE PUSH1 0x2 DUP2 ADD SLOAD DUP4 DUP6 ADD MSTORE ADD SLOAD PUSH1 0x60 DUP4 ADD MSTORE MLOAD SWAP2 DUP3 SWAP2 DUP3 PUSH2 0x2500 JUMP JUMPDEST CALLVALUE PUSH2 0x416 JUMPI PUSH0 CALLDATASIZE PUSH1 0x3 NOT ADD SLT PUSH2 0x416 JUMPI PUSH1 0x1B SLOAD PUSH1 0x40 MLOAD PUSH1 0x1 PUSH1 0x1 PUSH1 0xA0 SHL SUB SWAP1 SWAP2 AND DUP2 MSTORE PUSH1 0x20 SWAP1 RETURN JUMPDEST CALLVALUE PUSH2 0x416 JUMPI PUSH0 CALLDATASIZE PUSH1 0x3 NOT ADD SLT PUSH2 0x416 JUMPI PUSH1 0x20 PUSH1 0x13 SLOAD PUSH1 0x40 MLOAD SWAP1 DUP2 MSTORE RETURN JUMPDEST CALLVALUE PUSH2 0x416 JUMPI PUSH1 0x20 CALLDATASIZE PUSH1 0x3 NOT ADD SLT PUSH2 0x416 JUMPI PUSH1 0x4 CALLDATALOAD PUSH0 SWAP1 DUP2 MSTORE PUSH1 0x12 PUSH1 0x20 MSTORE PUSH1 0x40 SWAP1 KECCAK256 DUP1 SLOAD PUSH1 0x1 PUSH1 0x1 PUSH1 0xA0 SHL SUB AND PUSH2 0x264B PUSH1 0x1 DUP4 ADD PUSH2 0x7E2 JUMP JUMPDEST SWAP2 PUSH2 0x2695 PUSH1 0x2 DUP3 ADD SLOAD PUSH1 0x4 PUSH2 0x2662 PUSH1 0x3 DUP6 ADD PUSH2 0x7E2 JUMP JUMPDEST SWAP4 ADD SLOAD SWAP3 PUSH2 0x2682 PUSH1 0x40 MLOAD SWAP7 DUP8 SWAP7 DUP8 MSTORE PUSH1 0xA0 PUSH1 0x20 DUP9 ADD MSTORE PUSH1 0xA0 DUP8 ADD SWAP1 PUSH2 0x4C3 JUMP JUMPDEST SWAP2 PUSH1 0x40 DUP7 ADD MSTORE DUP5 DUP3 SUB PUSH1 0x60 DUP7 ADD MSTORE PUSH2 0x4C3 JUMP JUMPDEST SWAP1 PUSH1 0x80 DUP4 ADD MSTORE SUB SWAP1 RETURN JUMPDEST CALLVALUE PUSH2 0x416 JUMPI PUSH1 0x40 CALLDATASIZE PUSH1 0x3 NOT ADD SLT PUSH2 0x416 JUMPI PUSH1 0x20 PUSH1 0xFF PUSH2 0x18E1 PUSH2 0x26BF PUSH2 0x5EC JUMP JUMPDEST PUSH2 0x26C7 PUSH2 0x602 JUMP JUMPDEST PUSH1 0x1 PUSH1 0x1 PUSH1 0xA0 SHL SUB SWAP2 DUP3 AND PUSH0 SWAP1 DUP2 MSTORE PUSH1 0x5 DUP7 MSTORE PUSH1 0x40 DUP1 DUP3 KECCAK256 SWAP3 SWAP1 SWAP4 AND DUP2 MSTORE PUSH1 0x20 SWAP2 SWAP1 SWAP2 MSTORE KECCAK256 SWAP1 JUMP JUMPDEST CALLVALUE PUSH2 0x416 JUMPI PUSH1 0x20 CALLDATASIZE PUSH1 0x3 NOT ADD SLT PUSH2 0x416 JUMPI PUSH1 0x4 CALLDATALOAD DUP1 PUSH0 MSTORE PUSH1 0xD PUSH1 0x20 MSTORE PUSH2 0x271D PUSH1 0x2 PUSH1 0x40 PUSH0 KECCAK256 ADD SLOAD ISZERO ISZERO PUSH2 0x3F5A JUMP JUMPDEST PUSH0 MSTORE PUSH1 0xD PUSH1 0x20 MSTORE PUSH2 0x552 PUSH2 0x2736 PUSH1 0x1 PUSH1 0x40 PUSH0 KECCAK256 ADD PUSH2 0x7E2 JUMP JUMPDEST PUSH1 0x40 MLOAD SWAP2 DUP3 SWAP2 PUSH1 0x20 DUP4 MSTORE PUSH1 0x20 DUP4 ADD SWAP1 PUSH2 0x4C3 JUMP JUMPDEST CALLVALUE PUSH2 0x416 JUMPI PUSH0 CALLDATASIZE PUSH1 0x3 NOT ADD SLT PUSH2 0x416 JUMPI PUSH1 0x20 PUSH1 0x1D SLOAD PUSH1 0x40 MLOAD SWAP1 DUP2 MSTORE RETURN JUMPDEST CALLVALUE PUSH2 0x416 JUMPI PUSH1 0x20 CALLDATASIZE PUSH1 0x3 NOT ADD SLT PUSH2 0x416 JUMPI PUSH1 0x4 CALLDATALOAD PUSH1 0x16 SLOAD DUP2 LT ISZERO PUSH2 0x416 JUMPI PUSH1 0x16 PUSH0 MSTORE PUSH0 DUP1 MLOAD PUSH1 0x20 PUSH2 0x47F9 DUP4 CODECOPY DUP2 MLOAD SWAP2 MSTORE ADD SLOAD PUSH1 0x40 MLOAD SWAP1 DUP2 MSTORE PUSH1 0x20 SWAP1 RETURN JUMPDEST CALLVALUE PUSH2 0x416 JUMPI PUSH1 0x40 CALLDATASIZE PUSH1 0x3 NOT ADD SLT PUSH2 0x416 JUMPI PUSH1 0x24 CALLDATALOAD PUSH1 0x4 CALLDATALOAD PUSH0 MSTORE PUSH1 0x10 PUSH1 0x20 MSTORE PUSH1 0x40 PUSH0 KECCAK256 DUP1 SLOAD DUP3 LT ISZERO PUSH2 0x416 JUMPI PUSH1 0x20 SWAP2 PUSH2 0xAE0 SWAP2 PUSH2 0xA94 JUMP JUMPDEST CALLVALUE PUSH2 0x416 JUMPI PUSH1 0x20 CALLDATASIZE PUSH1 0x3 NOT ADD SLT PUSH2 0x416 JUMPI PUSH2 0x27F4 PUSH2 0x5EC JUMP JUMPDEST PUSH1 0xA SLOAD PUSH1 0x1 PUSH1 0x1 PUSH1 0xA0 SHL SUB SWAP1 PUSH2 0x280D SWAP1 DUP3 AND CALLER EQ PUSH2 0x2B7F JUMP JUMPDEST DUP2 AND ISZERO PUSH2 0x281D JUMPI PUSH2 0x66F SWAP1 PUSH2 0x2BCA JUMP JUMPDEST PUSH1 0x40 MLOAD PUSH3 0x461BCD PUSH1 0xE5 SHL DUP2 MSTORE PUSH1 0x20 PUSH1 0x4 DUP3 ADD MSTORE PUSH1 0x26 PUSH1 0x24 DUP3 ADD MSTORE PUSH32 0x4F776E61626C653A206E6577206F776E657220697320746865207A65726F2061 PUSH1 0x44 DUP3 ADD MSTORE PUSH6 0x646472657373 PUSH1 0xD0 SHL PUSH1 0x64 DUP3 ADD MSTORE PUSH1 0x84 SWAP1 REVERT JUMPDEST CALLVALUE PUSH2 0x416 JUMPI PUSH0 CALLDATASIZE PUSH1 0x3 NOT ADD SLT PUSH2 0x416 JUMPI PUSH2 0x2896 PUSH1 0x1 DUP1 PUSH1 0xA0 SHL SUB PUSH1 0xA SLOAD AND CALLER EQ PUSH2 0x2B7F JUMP JUMPDEST PUSH1 0xB DUP1 SLOAD PUSH1 0x1 ADD SWAP1 SSTORE STOP JUMPDEST PUSH2 0x28AA CALLDATASIZE PUSH2 0x18ED JUMP JUMPDEST PUSH0 DUP3 DUP2 MSTORE PUSH1 0x2 PUSH1 0x20 MSTORE PUSH1 0x40 SWAP1 KECCAK256 SLOAD PUSH2 0x28CC SWAP1 PUSH1 0x1 PUSH1 0x1 PUSH1 0xA0 SHL SUB AND ISZERO ISZERO PUSH2 0x3CD4 JUMP JUMPDEST PUSH2 0x28EB PUSH1 0x2 PUSH2 0x28E3 DUP5 PUSH0 MSTORE PUSH1 0xD PUSH1 0x20 MSTORE PUSH1 0x40 PUSH0 KECCAK256 SWAP1 JUMP JUMPDEST ADD SLOAD ISZERO PUSH2 0x3D16 JUMP JUMPDEST PUSH1 0x1A SLOAD PUSH2 0x2900 SWAP1 PUSH1 0x1 PUSH1 0x1 PUSH1 0xA0 SHL SUB AND PUSH2 0xCA5 JUMP JUMPDEST PUSH1 0x40 DUP1 MLOAD PUSH4 0x7B7FCFED PUSH1 0xE0 SHL DUP2 MSTORE SWAP1 SWAP3 PUSH1 0x20 SWAP3 SWAP2 DUP4 DUP2 DUP1 PUSH2 0x2924 DUP6 PUSH1 0x4 DUP4 ADD PUSH2 0x4E8 JUMP JUMPDEST SUB DUP2 DUP7 GAS STATICCALL DUP1 ISZERO PUSH2 0xD2A JUMPI PUSH2 0x2940 SWAP2 PUSH0 SWAP2 PUSH2 0x2B62 JUMPI JUMPDEST POP PUSH2 0x3D83 JUMP JUMPDEST DUP3 DUP5 MLOAD DUP1 SWAP4 PUSH4 0x3BEBE051 PUSH1 0xE0 SHL DUP3 MSTORE DUP2 DUP1 PUSH2 0x295E DUP7 PUSH1 0x4 DUP4 ADD PUSH2 0x4E8 JUMP JUMPDEST SUB SWAP2 GAS STATICCALL DUP1 ISZERO PUSH2 0xD2A JUMPI PUSH2 0x552 SWAP6 PUSH2 0x2A9E SWAP5 PUSH2 0x2A99 SWAP5 PUSH0 SWAP4 PUSH2 0x2B3F JUMPI JUMPDEST POP PUSH2 0x29D1 SWAP1 PUSH2 0x2988 PUSH2 0x1353 JUMP JUMPDEST SWAP1 DUP6 DUP3 MSTORE PUSH2 0x2994 PUSH2 0x2CFF JUMP JUMPDEST SWAP1 DUP3 ADD SWAP1 DUP2 MSTORE TIMESTAMP DUP10 DUP4 ADD MSTORE DUP5 PUSH1 0x60 DUP4 ADD MSTORE DUP5 ISZERO PUSH0 EQ PUSH2 0x2AB8 JUMPI PUSH2 0x29B5 PUSH2 0x3E1C JUMP JUMPDEST SWAP1 MSTORE JUMPDEST PUSH2 0x29CC PUSH1 0xF SLOAD PUSH0 MSTORE PUSH1 0xD PUSH1 0x20 MSTORE PUSH1 0x40 PUSH0 KECCAK256 SWAP1 JUMP JUMPDEST PUSH2 0x3E45 JUMP JUMPDEST PUSH2 0x29EF PUSH2 0x29E6 DUP3 PUSH0 MSTORE PUSH1 0x10 PUSH1 0x20 MSTORE PUSH1 0x40 PUSH0 KECCAK256 SWAP1 JUMP JUMPDEST PUSH1 0xF SLOAD SWAP1 PUSH2 0x35F6 JUMP JUMPDEST DUP1 PUSH2 0x2A04 PUSH1 0xF SLOAD PUSH0 MSTORE PUSH1 0xE PUSH1 0x20 MSTORE PUSH1 0x40 PUSH0 KECCAK256 SWAP1 JUMP JUMPDEST SSTORE PUSH32 0xD3F28A1C655091033012BC55D258BF3CBD4EA4FB8BC2FF81C626A2AAD9354E46 PUSH2 0x2A91 PUSH2 0x2A79 PUSH1 0xF SLOAD SWAP6 DUP7 DUP6 DUP2 PUSH2 0x2A4F PUSH2 0x2A49 DUP3 SWAP10 PUSH0 MSTORE PUSH1 0x11 PUSH1 0x20 MSTORE PUSH1 0x40 PUSH0 KECCAK256 SWAP1 JUMP JUMPDEST DUP6 PUSH2 0x23E0 JUMP JUMPDEST SSTORE PUSH32 0xE4C157BDF18B292C67A85F8AFA9036D1FD70E345BE3AD305FAFC7841C4801A3F PUSH0 DUP1 LOG3 PUSH2 0x3F3A JUMP JUMPDEST DUP9 MLOAD TIMESTAMP DUP2 MSTORE PUSH1 0x20 DUP2 ADD SWAP6 SWAP1 SWAP6 MSTORE SWAP4 SWAP1 DUP2 SWAP1 PUSH1 0x40 DUP3 ADD SWAP1 JUMP JUMPDEST SUB SWAP1 LOG3 PUSH2 0x3752 JUMP JUMPDEST PUSH1 0xF SSTORE JUMP JUMPDEST PUSH2 0x2AA9 PUSH1 0xF SLOAD PUSH2 0x307F JUMP JUMPDEST SWAP1 MLOAD SWAP1 DUP2 MSTORE SWAP1 DUP2 SWAP1 PUSH1 0x20 DUP3 ADD SWAP1 JUMP JUMPDEST PUSH2 0x2AC5 PUSH1 0x1D SLOAD CALLVALUE EQ PUSH2 0x3DD7 JUMP JUMPDEST PUSH2 0x2AD0 PUSH2 0x15B7 PUSH2 0xA0B JUMP JUMPDEST SWAP1 MSTORE PUSH2 0x2ADD PUSH1 0xF SLOAD PUSH2 0x35C2 JUMP JUMPDEST PUSH2 0x2AE8 PUSH1 0x16 SLOAD PUSH2 0x307F JUMP JUMPDEST PUSH2 0x2AFC PUSH1 0xF SLOAD PUSH0 MSTORE PUSH1 0x17 PUSH1 0x20 MSTORE PUSH1 0x40 PUSH0 KECCAK256 SWAP1 JUMP JUMPDEST SSTORE PUSH32 0x2F5A4EE168DCA9EAEF284F1844A3D24D74BA63A5FCCC947454FC07515C8B3774 PUSH1 0xF SLOAD PUSH2 0x2B2C PUSH1 0x16 SLOAD PUSH2 0x307F JUMP JUMPDEST DUP11 MLOAD SWAP2 DUP3 MSTORE PUSH1 0x20 DUP3 ADD MSTORE PUSH1 0x40 SWAP1 LOG1 PUSH2 0x29B8 JUMP JUMPDEST DUP2 SWAP4 POP PUSH2 0x2B5B SWAP1 PUSH2 0x29D1 SWAP3 RETURNDATASIZE DUP7 GT PUSH2 0x16F3 JUMPI PUSH2 0x16E2 DUP2 DUP4 PUSH2 0x7C1 JUMP JUMPDEST SWAP3 SWAP1 PUSH2 0x297B JUMP JUMPDEST PUSH2 0x2B79 SWAP2 POP DUP6 RETURNDATASIZE DUP8 GT PUSH2 0xD23 JUMPI PUSH2 0xD1B DUP2 DUP4 PUSH2 0x7C1 JUMP JUMPDEST PUSH0 PUSH2 0x293A JUMP JUMPDEST ISZERO PUSH2 0x2B86 JUMPI JUMP JUMPDEST PUSH1 0x64 PUSH1 0x40 MLOAD PUSH3 0x461BCD PUSH1 0xE5 SHL DUP2 MSTORE PUSH1 0x20 PUSH1 0x4 DUP3 ADD MSTORE PUSH1 0x20 PUSH1 0x24 DUP3 ADD MSTORE PUSH32 0x4F776E61626C653A2063616C6C6572206973206E6F7420746865206F776E6572 PUSH1 0x44 DUP3 ADD MSTORE REVERT JUMPDEST PUSH1 0xA DUP1 SLOAD PUSH1 0x1 PUSH1 0x1 PUSH1 0xA0 SHL SUB SWAP3 DUP4 AND PUSH1 0x1 PUSH1 0x1 PUSH1 0xA0 SHL SUB NOT DUP3 AND DUP2 OR SWAP1 SWAP3 SSTORE SWAP1 SWAP2 AND PUSH32 0x8BE0079C531659141344CD1FD0A4F28419497F9722A3DAAFE3B4186F6B6457E0 PUSH0 DUP1 LOG3 JUMP JUMPDEST PUSH1 0x1 PUSH1 0x1 PUSH1 0xA0 SHL SUB AND DUP1 ISZERO PUSH2 0x2C30 JUMPI PUSH0 MSTORE PUSH1 0x3 PUSH1 0x20 MSTORE PUSH1 0x40 PUSH0 KECCAK256 SLOAD SWAP1 JUMP JUMPDEST PUSH1 0x40 MLOAD PUSH3 0x461BCD PUSH1 0xE5 SHL DUP2 MSTORE PUSH1 0x20 PUSH1 0x4 DUP3 ADD MSTORE PUSH1 0x2A PUSH1 0x24 DUP3 ADD MSTORE PUSH32 0x4552433732313A2062616C616E636520717565727920666F7220746865207A65 PUSH1 0x44 DUP3 ADD MSTORE PUSH10 0x726F2061646472657373 PUSH1 0xB0 SHL PUSH1 0x64 DUP3 ADD MSTORE PUSH1 0x84 SWAP1 REVERT JUMPDEST PUSH0 SWAP1 DUP2 MSTORE PUSH1 0x2 PUSH1 0x20 MSTORE PUSH1 0x40 SWAP1 KECCAK256 SLOAD PUSH1 0x1 PUSH1 0x1 PUSH1 0xA0 SHL SUB AND DUP1 ISZERO PUSH2 0x2CA8 JUMPI SWAP1 JUMP JUMPDEST PUSH1 0x40 MLOAD PUSH3 0x461BCD PUSH1 0xE5 SHL DUP2 MSTORE PUSH1 0x20 PUSH1 0x4 DUP3 ADD MSTORE PUSH1 0x29 PUSH1 0x24 DUP3 ADD MSTORE PUSH32 0x4552433732313A206F776E657220717565727920666F72206E6F6E6578697374 PUSH1 0x44 DUP3 ADD MSTORE PUSH9 0x32B73A103A37B5B2B7 PUSH1 0xB9 SHL PUSH1 0x64 DUP3 ADD MSTORE PUSH1 0x84 SWAP1 REVERT JUMPDEST PUSH1 0x40 MLOAD SWAP1 PUSH2 0x2D0C DUP3 PUSH2 0x78B JUMP JUMPDEST PUSH0 DUP3 MSTORE JUMP JUMPDEST ISZERO PUSH2 0x2D18 JUMPI JUMP JUMPDEST PUSH1 0x40 MLOAD PUSH3 0x461BCD PUSH1 0xE5 SHL DUP2 MSTORE PUSH1 0x20 PUSH1 0x4 DUP3 ADD MSTORE PUSH1 0x38 PUSH1 0x24 DUP3 ADD MSTORE PUSH32 0x4552433732313A20617070726F76652063616C6C6572206973206E6F74206F77 PUSH1 0x44 DUP3 ADD MSTORE PUSH24 0x1B995C881B9BDC88185C1C1C9BDD995908199BDC88185B1B PUSH1 0x42 SHL PUSH1 0x64 DUP3 ADD MSTORE PUSH1 0x84 SWAP1 REVERT JUMPDEST PUSH0 DUP2 DUP2 MSTORE PUSH1 0x2 PUSH1 0x20 MSTORE PUSH1 0x40 SWAP1 KECCAK256 SLOAD PUSH1 0x1 PUSH1 0x1 PUSH1 0xA0 SHL SUB AND ISZERO PUSH2 0x2DB4 JUMPI PUSH0 SWAP1 DUP2 MSTORE PUSH1 0x4 PUSH1 0x20 MSTORE PUSH1 0x40 SWAP1 KECCAK256 SLOAD PUSH1 0x1 PUSH1 0x1 PUSH1 0xA0 SHL SUB AND SWAP1 JUMP JUMPDEST PUSH1 0x40 MLOAD PUSH3 0x461BCD PUSH1 0xE5 SHL DUP2 MSTORE PUSH1 0x20 PUSH1 0x4 DUP3 ADD MSTORE PUSH1 0x2C PUSH1 0x24 DUP3 ADD MSTORE PUSH32 0x4552433732313A20617070726F76656420717565727920666F72206E6F6E6578 PUSH1 0x44 DUP3 ADD MSTORE PUSH12 0x34B9BA32B73A103A37B5B2B7 PUSH1 0xA1 SHL PUSH1 0x64 DUP3 ADD MSTORE PUSH1 0x84 SWAP1 REVERT JUMPDEST ISZERO PUSH2 0x2E15 JUMPI JUMP JUMPDEST PUSH1 0x40 MLOAD PUSH3 0x461BCD PUSH1 0xE5 SHL DUP2 MSTORE PUSH1 0x20 PUSH1 0x4 DUP3 ADD MSTORE PUSH1 0x31 PUSH1 0x24 DUP3 ADD MSTORE PUSH32 0x4552433732313A207472616E736665722063616C6C6572206973206E6F74206F PUSH1 0x44 DUP3 ADD MSTORE PUSH17 0x1DDB995C881B9BDC88185C1C1C9BDD9959 PUSH1 0x7A SHL PUSH1 0x64 DUP3 ADD MSTORE PUSH1 0x84 SWAP1 REVERT JUMPDEST SWAP1 SWAP2 PUSH2 0x81E SWAP3 PUSH1 0x40 MLOAD SWAP3 PUSH2 0xEBB DUP5 PUSH2 0x78B JUMP JUMPDEST SWAP2 PUSH2 0x81E SWAP4 SWAP2 PUSH2 0x2EAE SWAP4 PUSH2 0x2E9E PUSH2 0xB5F DUP5 CALLER PUSH2 0x2F2A JUMP JUMPDEST PUSH2 0x2EA9 DUP4 DUP4 DUP4 PUSH2 0x30BA JUMP JUMPDEST PUSH2 0x3418 JUMP JUMPDEST PUSH2 0x2F06 JUMP JUMPDEST PUSH1 0x80 SWAP1 PUSH1 0x20 DUP2 MSTORE PUSH1 0x32 PUSH1 0x20 DUP3 ADD MSTORE PUSH32 0x4552433732313A207472616E7366657220746F206E6F6E204552433732315265 PUSH1 0x40 DUP3 ADD MSTORE PUSH18 0x31B2B4BB32B91034B6B83632B6B2B73A32B9 PUSH1 0x71 SHL PUSH1 0x60 DUP3 ADD MSTORE ADD SWAP1 JUMP JUMPDEST ISZERO PUSH2 0x2F0D JUMPI JUMP JUMPDEST PUSH1 0x40 MLOAD PUSH3 0x461BCD PUSH1 0xE5 SHL DUP2 MSTORE DUP1 PUSH2 0x2F26 PUSH1 0x4 DUP3 ADD PUSH2 0x2EB3 JUMP JUMPDEST SUB SWAP1 REVERT JUMPDEST PUSH0 DUP3 DUP2 MSTORE PUSH1 0x2 PUSH1 0x20 MSTORE PUSH1 0x40 SWAP1 KECCAK256 SLOAD PUSH1 0x1 PUSH1 0x1 PUSH1 0xA0 SHL SUB AND ISZERO PUSH2 0x2FB9 JUMPI PUSH2 0x2F4F DUP3 PUSH2 0x2C88 JUMP JUMPDEST PUSH1 0x1 PUSH1 0x1 PUSH1 0xA0 SHL SUB DUP3 DUP2 AND DUP3 DUP3 AND DUP2 EQ SWAP5 SWAP1 SWAP2 SWAP1 DUP6 ISZERO PUSH2 0x2FA1 JUMPI JUMPDEST POP POP POP DUP3 ISZERO PUSH2 0x2F78 JUMPI POP POP SWAP1 JUMP JUMPDEST PUSH1 0x1 PUSH1 0x1 PUSH1 0xA0 SHL SUB AND PUSH0 SWAP1 DUP2 MSTORE PUSH1 0x5 PUSH1 0x20 MSTORE PUSH1 0x40 SWAP1 KECCAK256 PUSH1 0xFF SWAP3 POP PUSH2 0x2F9C SWAP2 SWAP1 PUSH2 0x693 JUMP JUMPDEST SLOAD AND SWAP1 JUMP JUMPDEST PUSH2 0x2FAE SWAP2 SWAP3 SWAP4 SWAP6 POP PUSH2 0x2D7E JUMP JUMPDEST AND EQ SWAP2 PUSH0 DUP1 DUP1 PUSH2 0x2F6A JUMP JUMPDEST PUSH1 0x40 MLOAD PUSH3 0x461BCD PUSH1 0xE5 SHL DUP2 MSTORE PUSH1 0x20 PUSH1 0x4 DUP3 ADD MSTORE PUSH1 0x2C PUSH1 0x24 DUP3 ADD MSTORE PUSH32 0x4552433732313A206F70657261746F7220717565727920666F72206E6F6E6578 PUSH1 0x44 DUP3 ADD MSTORE PUSH12 0x34B9BA32B73A103A37B5B2B7 PUSH1 0xA1 SHL PUSH1 0x64 DUP3 ADD MSTORE PUSH1 0x84 SWAP1 REVERT JUMPDEST ISZERO PUSH2 0x301A JUMPI JUMP JUMPDEST PUSH1 0x40 MLOAD PUSH3 0x461BCD PUSH1 0xE5 SHL DUP2 MSTORE PUSH1 0x20 PUSH1 0x4 DUP3 ADD MSTORE PUSH1 0x24 DUP1 DUP3 ADD MSTORE PUSH32 0x4552433732313A207472616E7366657220746F20746865207A65726F20616464 PUSH1 0x44 DUP3 ADD MSTORE PUSH4 0x72657373 PUSH1 0xE0 SHL PUSH1 0x64 DUP3 ADD MSTORE PUSH1 0x84 SWAP1 REVERT JUMPDEST PUSH4 0x4E487B71 PUSH1 0xE0 SHL PUSH0 MSTORE PUSH1 0x11 PUSH1 0x4 MSTORE PUSH1 0x24 PUSH0 REVERT JUMPDEST PUSH0 NOT DUP2 ADD SWAP2 SWAP1 DUP3 GT PUSH2 0x308D JUMPI JUMP JUMPDEST PUSH2 0x306B JUMP JUMPDEST SWAP2 SWAP1 DUP3 SUB SWAP2 DUP3 GT PUSH2 0x308D JUMPI JUMP JUMPDEST SWAP1 PUSH1 0x1 DUP3 ADD DUP1 SWAP3 GT PUSH2 0x308D JUMPI JUMP JUMPDEST SWAP2 SWAP1 DUP3 ADD DUP1 SWAP3 GT PUSH2 0x308D JUMPI JUMP JUMPDEST SWAP1 PUSH2 0x30C4 DUP4 PUSH2 0x2C88 JUMP JUMPDEST PUSH1 0x1 PUSH1 0x1 PUSH1 0xA0 SHL SUB DUP4 DUP2 AND SWAP3 SWAP1 SWAP2 DUP3 AND DUP4 SWAP1 SUB PUSH2 0x31A3 JUMPI PUSH2 0x311D PUSH2 0x317D SWAP3 DUP3 AND SWAP5 PUSH2 0x30F0 DUP7 ISZERO ISZERO PUSH2 0x3013 JUMP JUMPDEST PUSH2 0x30FB DUP8 DUP5 DUP4 PUSH2 0x347E JUMP JUMPDEST PUSH2 0x3104 DUP8 PUSH2 0x31FA JUMP JUMPDEST PUSH1 0x1 PUSH1 0x1 PUSH1 0xA0 SHL SUB AND PUSH0 SWAP1 DUP2 MSTORE PUSH1 0x3 PUSH1 0x20 MSTORE PUSH1 0x40 SWAP1 KECCAK256 SWAP1 JUMP JUMPDEST PUSH2 0x3127 DUP2 SLOAD PUSH2 0x307F JUMP JUMPDEST SWAP1 SSTORE PUSH1 0x1 PUSH1 0x1 PUSH1 0xA0 SHL SUB DUP2 AND PUSH0 SWAP1 DUP2 MSTORE PUSH1 0x3 PUSH1 0x20 MSTORE PUSH1 0x40 SWAP1 KECCAK256 PUSH2 0x314A DUP2 SLOAD PUSH2 0x309F JUMP JUMPDEST SWAP1 SSTORE PUSH2 0x315E DUP6 PUSH0 MSTORE PUSH1 0x2 PUSH1 0x20 MSTORE PUSH1 0x40 PUSH0 KECCAK256 SWAP1 JUMP JUMPDEST DUP1 SLOAD PUSH1 0x1 PUSH1 0x1 PUSH1 0xA0 SHL SUB NOT AND PUSH1 0x1 PUSH1 0x1 PUSH1 0xA0 SHL SUB SWAP1 SWAP3 AND SWAP2 SWAP1 SWAP2 OR SWAP1 SSTORE JUMP JUMPDEST PUSH32 0xDDF252AD1BE2C89B69C2B068FC378DAA952BA7F163C4A11628F55A4DF523B3EF PUSH0 DUP1 LOG4 JUMP JUMPDEST PUSH1 0x40 MLOAD PUSH3 0x461BCD PUSH1 0xE5 SHL DUP2 MSTORE PUSH1 0x20 PUSH1 0x4 DUP3 ADD MSTORE PUSH1 0x29 PUSH1 0x24 DUP3 ADD MSTORE PUSH32 0x4552433732313A207472616E73666572206F6620746F6B656E20746861742069 PUSH1 0x44 DUP3 ADD MSTORE PUSH9 0x39903737BA1037BBB7 PUSH1 0xB9 SHL PUSH1 0x64 DUP3 ADD MSTORE PUSH1 0x84 SWAP1 REVERT JUMPDEST PUSH0 DUP2 DUP2 MSTORE PUSH1 0x4 PUSH1 0x20 MSTORE PUSH1 0x40 DUP2 KECCAK256 DUP1 SLOAD PUSH1 0x1 PUSH1 0x1 PUSH1 0xA0 SHL SUB NOT AND SWAP1 SSTORE PUSH1 0x1 PUSH1 0x1 PUSH1 0xA0 SHL SUB PUSH2 0x3226 DUP4 PUSH2 0x2C88 JUMP JUMPDEST AND PUSH32 0x8C5BE1E5EBEC7D5BD14F71427D1E84F3DD0314C0F7B2291E5B200AC8C7C3B925 DUP3 DUP1 LOG4 JUMP JUMPDEST PUSH0 DUP3 DUP2 MSTORE PUSH1 0x4 PUSH1 0x20 MSTORE PUSH1 0x40 SWAP1 KECCAK256 DUP1 SLOAD PUSH1 0x1 PUSH1 0x1 PUSH1 0xA0 SHL SUB NOT AND PUSH1 0x1 PUSH1 0x1 PUSH1 0xA0 SHL SUB DUP4 AND OR SWAP1 SSTORE PUSH1 0x1 PUSH1 0x1 PUSH1 0xA0 SHL SUB DUP1 PUSH2 0x3285 DUP5 PUSH2 0x2C88 JUMP JUMPDEST AND SWAP2 AND SWAP1 PUSH32 0x8C5BE1E5EBEC7D5BD14F71427D1E84F3DD0314C0F7B2291E5B200AC8C7C3B925 PUSH0 DUP1 LOG4 JUMP JUMPDEST SWAP1 DUP2 PUSH1 0x20 SWAP2 SUB SLT PUSH2 0x416 JUMPI MLOAD PUSH2 0x4F9 DUP2 PUSH2 0x404 JUMP JUMPDEST PUSH2 0x4F9 SWAP4 SWAP3 PUSH1 0x80 SWAP3 PUSH1 0x1 DUP1 PUSH1 0xA0 SHL SUB AND DUP3 MSTORE PUSH0 PUSH1 0x20 DUP4 ADD MSTORE PUSH1 0x40 DUP3 ADD MSTORE DUP2 PUSH1 0x60 DUP3 ADD MSTORE ADD SWAP1 PUSH2 0x4C3 JUMP JUMPDEST PUSH1 0x1 PUSH1 0x1 PUSH1 0xA0 SHL SUB SWAP2 DUP3 AND DUP2 MSTORE SWAP2 AND PUSH1 0x20 DUP3 ADD MSTORE PUSH1 0x40 DUP2 ADD SWAP2 SWAP1 SWAP2 MSTORE PUSH1 0x80 PUSH1 0x60 DUP3 ADD DUP2 SWAP1 MSTORE PUSH2 0x4F9 SWAP3 SWAP2 ADD SWAP1 PUSH2 0x4C3 JUMP JUMPDEST PUSH1 0x40 MLOAD RETURNDATASIZE PUSH0 DUP3 RETURNDATACOPY RETURNDATASIZE SWAP1 REVERT JUMPDEST RETURNDATASIZE ISZERO PUSH2 0x3354 JUMPI RETURNDATASIZE SWAP1 PUSH2 0x333B DUP3 PUSH2 0x1360 JUMP JUMPDEST SWAP2 PUSH2 0x3349 PUSH1 0x40 MLOAD SWAP4 DUP5 PUSH2 0x7C1 JUMP JUMPDEST DUP3 MSTORE RETURNDATASIZE PUSH0 PUSH1 0x20 DUP5 ADD RETURNDATACOPY JUMP JUMPDEST PUSH1 0x60 SWAP1 JUMP JUMPDEST SWAP1 SWAP2 SWAP1 DUP1 EXTCODESIZE ISZERO PUSH2 0x3410 JUMPI PUSH2 0x338A PUSH1 0x20 SWAP2 PUSH0 SWAP4 PUSH1 0x40 MLOAD SWAP5 DUP6 DUP1 SWAP5 DUP2 SWAP4 PUSH4 0xA85BD01 PUSH1 0xE1 SHL SWAP10 DUP11 DUP5 MSTORE CALLER PUSH1 0x4 DUP6 ADD PUSH2 0x32C4 JUMP JUMPDEST SUB SWAP3 PUSH1 0x1 PUSH1 0x1 PUSH1 0xA0 SHL SUB AND GAS CALL PUSH0 SWAP2 DUP2 PUSH2 0x33E0 JUMPI JUMPDEST POP PUSH2 0x33D2 JUMPI PUSH2 0x33AC PUSH2 0x332A JUMP JUMPDEST DUP1 MLOAD SWAP1 DUP2 PUSH2 0x33CD JUMPI PUSH1 0x40 MLOAD PUSH3 0x461BCD PUSH1 0xE5 SHL DUP2 MSTORE DUP1 PUSH2 0x2F26 PUSH1 0x4 DUP3 ADD PUSH2 0x2EB3 JUMP JUMPDEST PUSH1 0x20 ADD REVERT JUMPDEST PUSH1 0x1 PUSH1 0x1 PUSH1 0xE0 SHL SUB NOT AND EQ SWAP1 JUMP JUMPDEST PUSH2 0x3402 SWAP2 SWAP3 POP PUSH1 0x20 RETURNDATASIZE DUP2 GT PUSH2 0x3409 JUMPI JUMPDEST PUSH2 0x33FA DUP2 DUP4 PUSH2 0x7C1 JUMP JUMPDEST DUP2 ADD SWAP1 PUSH2 0x32AF JUMP JUMPDEST SWAP1 PUSH0 PUSH2 0x339F JUMP JUMPDEST POP RETURNDATASIZE PUSH2 0x33F0 JUMP JUMPDEST POP POP POP PUSH1 0x1 SWAP1 JUMP JUMPDEST SWAP3 SWAP1 SWAP2 SWAP1 DUP3 EXTCODESIZE ISZERO PUSH2 0x344A JUMPI PUSH2 0x338A SWAP3 PUSH1 0x20 SWAP3 PUSH0 PUSH1 0x40 MLOAD DUP1 SWAP7 DUP2 SWAP6 DUP3 SWAP5 PUSH4 0xA85BD01 PUSH1 0xE1 SHL SWAP11 DUP12 DUP6 MSTORE CALLER PUSH1 0x4 DUP7 ADD PUSH2 0x32EE JUMP JUMPDEST POP POP POP POP PUSH1 0x1 SWAP1 JUMP JUMPDEST SWAP1 PUSH2 0x345D DUP2 PUSH2 0x3619 JUMP JUMPDEST PUSH1 0x1 PUSH1 0x1 PUSH1 0xA0 SHL SUB DUP3 AND PUSH2 0x3475 JUMPI PUSH2 0x81E SWAP2 POP PUSH2 0x36AC JUMP JUMPDEST PUSH2 0x81E SWAP2 PUSH2 0x358B JUMP JUMPDEST SWAP1 SWAP2 SWAP1 PUSH1 0x1 PUSH1 0x1 PUSH1 0xA0 SHL SUB DUP1 DUP3 AND SWAP2 DUP3 PUSH2 0x34B8 JUMPI POP PUSH2 0x349C DUP4 PUSH2 0x3619 JUMP JUMPDEST DUP4 AND DUP1 PUSH2 0x34AF JUMPI POP POP PUSH2 0x81E SWAP2 POP PUSH2 0x36AC JUMP JUMPDEST SUB PUSH2 0x3475 JUMPI POP POP JUMP JUMPDEST DUP2 DUP6 AND DUP4 SUB PUSH2 0x34C8 JUMPI JUMPDEST POP PUSH2 0x349C JUMP JUMPDEST PUSH2 0x34D1 DUP2 PUSH2 0x2C12 JUMP JUMPDEST PUSH0 NOT DUP2 ADD SWAP1 DUP2 GT PUSH2 0x308D JUMPI PUSH2 0x3535 SWAP1 PUSH2 0x3528 PUSH0 SWAP4 DUP8 DUP6 MSTORE PUSH1 0x7 PUSH1 0x20 MSTORE PUSH1 0x40 DUP6 KECCAK256 SLOAD DUP4 DUP2 SUB PUSH2 0x353C JUMPI JUMPDEST POP DUP5 PUSH2 0x350E DUP10 PUSH0 MSTORE PUSH1 0x7 PUSH1 0x20 MSTORE PUSH1 0x40 PUSH0 KECCAK256 SWAP1 JUMP JUMPDEST SSTORE PUSH1 0x1 PUSH1 0x1 PUSH1 0xA0 SHL SUB AND PUSH0 SWAP1 DUP2 MSTORE PUSH1 0x6 PUSH1 0x20 MSTORE PUSH1 0x40 SWAP1 KECCAK256 SWAP1 JUMP JUMPDEST SWAP1 PUSH0 MSTORE PUSH1 0x20 MSTORE PUSH1 0x40 PUSH0 KECCAK256 SWAP1 JUMP JUMPDEST SSTORE PUSH0 PUSH2 0x34C2 JUMP JUMPDEST DUP8 DUP7 MSTORE PUSH1 0x6 PUSH1 0x20 MSTORE PUSH1 0x40 DUP7 KECCAK256 DUP5 DUP8 MSTORE PUSH1 0x20 MSTORE PUSH2 0x3584 PUSH1 0x40 DUP8 KECCAK256 SLOAD DUP1 PUSH2 0x3575 DUP5 PUSH2 0x3528 DUP8 PUSH1 0x1 DUP1 PUSH1 0xA0 SHL SUB AND PUSH0 MSTORE PUSH1 0x6 PUSH1 0x20 MSTORE PUSH1 0x40 PUSH0 KECCAK256 SWAP1 JUMP JUMPDEST SSTORE PUSH0 MSTORE PUSH1 0x7 PUSH1 0x20 MSTORE PUSH1 0x40 PUSH0 KECCAK256 SWAP1 JUMP JUMPDEST SSTORE PUSH0 PUSH2 0x34FA JUMP JUMPDEST PUSH1 0x40 SWAP1 PUSH2 0x3597 DUP2 PUSH2 0x2C12 JUMP JUMPDEST SWAP3 PUSH0 SWAP2 PUSH1 0x1 DUP1 PUSH1 0xA0 SHL SUB AND DUP3 MSTORE PUSH1 0x6 PUSH1 0x20 MSTORE DUP3 DUP3 KECCAK256 DUP5 DUP4 MSTORE PUSH1 0x20 MSTORE DUP1 DUP4 DUP4 KECCAK256 SSTORE DUP2 MSTORE PUSH1 0x7 PUSH1 0x20 MSTORE KECCAK256 SSTORE JUMP JUMPDEST PUSH1 0x16 SLOAD PUSH1 0x1 PUSH1 0x40 SHL DUP2 LT ISZERO PUSH2 0x76B JUMPI PUSH1 0x1 DUP2 ADD DUP1 PUSH1 0x16 SSTORE DUP2 LT ISZERO PUSH2 0x9EE JUMPI PUSH1 0x16 PUSH0 MSTORE PUSH0 DUP1 MLOAD PUSH1 0x20 PUSH2 0x47F9 DUP4 CODECOPY DUP2 MLOAD SWAP2 MSTORE ADD SSTORE JUMP JUMPDEST DUP1 SLOAD SWAP2 SWAP1 PUSH1 0x1 PUSH1 0x40 SHL DUP4 LT ISZERO PUSH2 0x76B JUMPI DUP3 PUSH2 0x1083 SWAP2 PUSH1 0x1 PUSH2 0x81E SWAP6 ADD DUP2 SSTORE PUSH2 0xA94 JUMP JUMPDEST PUSH1 0x8 SLOAD DUP2 PUSH0 MSTORE PUSH1 0x9 PUSH1 0x20 MSTORE DUP1 PUSH1 0x40 PUSH0 KECCAK256 SSTORE PUSH1 0x1 PUSH1 0x40 SHL DUP2 LT ISZERO PUSH2 0x76B JUMPI PUSH1 0x1 DUP2 ADD DUP1 PUSH1 0x8 SSTORE DUP2 LT ISZERO PUSH2 0x9EE JUMPI PUSH1 0x8 PUSH0 MSTORE PUSH32 0xF3F7A9FE364FAAB93B216DA50A3214154F22A0A2B415B23A84C8169E8B636EE3 ADD SSTORE JUMP JUMPDEST PUSH1 0x16 SLOAD DUP1 ISZERO PUSH2 0x3698 JUMPI PUSH0 NOT DUP2 DUP2 ADD SWAP2 SWAP1 DUP2 DUP4 LT ISZERO PUSH2 0x9EE JUMPI PUSH0 SWAP2 PUSH1 0x16 DUP4 MSTORE PUSH1 0x20 DUP4 KECCAK256 ADD ADD SSTORE PUSH1 0x16 SSTORE JUMP JUMPDEST PUSH4 0x4E487B71 PUSH1 0xE0 SHL PUSH0 MSTORE PUSH1 0x31 PUSH1 0x4 MSTORE PUSH1 0x24 PUSH0 REVERT JUMPDEST PUSH1 0x8 DUP1 SLOAD PUSH0 NOT SWAP3 SWAP1 DUP4 DUP2 ADD SWAP1 DUP1 DUP3 GT PUSH2 0x308D JUMPI PUSH0 SWAP3 DUP1 DUP5 MSTORE PUSH1 0x9 PUSH1 0x20 MSTORE DUP2 PUSH1 0x40 DUP6 KECCAK256 SLOAD SWAP4 LT ISZERO PUSH2 0x9EE JUMPI DUP5 DUP5 MSTORE DUP6 DUP3 PUSH1 0x20 DUP7 KECCAK256 ADD ADD SLOAD SWAP2 DUP4 LT ISZERO PUSH2 0x9EE JUMPI DUP4 SWAP3 PUSH2 0x370C PUSH2 0x371B SWAP4 DUP8 DUP7 MSTORE DUP1 DUP4 PUSH1 0x20 DUP9 KECCAK256 ADD SSTORE PUSH0 MSTORE PUSH1 0x9 PUSH1 0x20 MSTORE PUSH1 0x40 PUSH0 KECCAK256 SWAP1 JUMP JUMPDEST SSTORE PUSH0 MSTORE PUSH1 0x9 PUSH1 0x20 MSTORE PUSH1 0x40 PUSH0 KECCAK256 SWAP1 JUMP JUMPDEST SSTORE DUP2 SLOAD SWAP3 DUP4 ISZERO PUSH2 0x373E JUMPI DUP1 DUP5 ADD SWAP4 DUP1 DUP6 LT ISZERO PUSH2 0x9EE JUMPI DUP4 DUP4 MSTORE PUSH1 0x20 DUP4 KECCAK256 ADD ADD SSTORE SSTORE JUMP JUMPDEST PUSH4 0x4E487B71 PUSH1 0xE0 SHL DUP3 MSTORE PUSH1 0x31 PUSH1 0x4 MSTORE PUSH1 0x24 DUP3 REVERT JUMPDEST PUSH0 NOT DUP2 EQ PUSH2 0x308D JUMPI PUSH1 0x1 ADD SWAP1 JUMP JUMPDEST DUP2 ISZERO PUSH2 0x376A JUMPI DIV SWAP1 JUMP JUMPDEST PUSH4 0x4E487B71 PUSH1 0xE0 SHL PUSH0 MSTORE PUSH1 0x12 PUSH1 0x4 MSTORE PUSH1 0x24 PUSH0 REVERT JUMPDEST SWAP1 DUP2 MLOAD DUP2 LT ISZERO PUSH2 0x9EE JUMPI ADD PUSH1 0x20 ADD SWAP1 JUMP JUMPDEST DUP1 ISZERO PUSH2 0x382B JUMPI DUP1 PUSH0 SWAP1 DUP3 DUP3 SWAP4 JUMPDEST PUSH2 0x3817 JUMPI POP PUSH2 0x37AA DUP4 PUSH2 0x1360 JUMP JUMPDEST SWAP3 PUSH2 0x37B8 PUSH1 0x40 MLOAD SWAP5 DUP6 PUSH2 0x7C1 JUMP JUMPDEST DUP1 DUP5 MSTORE DUP2 PUSH1 0x1F NOT PUSH2 0x37C8 DUP4 PUSH2 0x1360 JUMP JUMPDEST ADD CALLDATASIZE PUSH1 0x20 DUP8 ADD CALLDATACOPY JUMPDEST PUSH2 0x37DA JUMPI POP POP POP SWAP1 JUMP JUMPDEST PUSH2 0x37E3 SWAP1 PUSH2 0x307F JUMP JUMPDEST SWAP1 PUSH1 0xA SWAP1 PUSH1 0x30 DUP3 DUP3 MOD DUP2 ADD DUP1 SWAP2 GT PUSH2 0x308D JUMPI PUSH1 0xF8 SHL PUSH1 0x1 PUSH1 0x1 PUSH1 0xF8 SHL SUB NOT AND DUP5 BYTE PUSH2 0x380E DUP5 DUP8 PUSH2 0x377E JUMP JUMPDEST MSTORE8 DIV SWAP1 DUP2 PUSH2 0x37D0 JUMP JUMPDEST SWAP3 PUSH2 0x3823 PUSH1 0xA SWAP2 PUSH2 0x3752 JUMP JUMPDEST SWAP4 DIV DUP1 PUSH2 0x379C JUMP JUMPDEST POP PUSH1 0x40 MLOAD PUSH2 0x3838 DUP2 PUSH2 0x7A6 JUMP JUMPDEST PUSH1 0x1 DUP2 MSTORE PUSH1 0x3 PUSH1 0xFC SHL PUSH1 0x20 DUP3 ADD MSTORE SWAP1 JUMP JUMPDEST DUP2 DUP2 LT PUSH2 0x3854 JUMPI POP POP JUMP JUMPDEST PUSH0 DUP2 SSTORE PUSH1 0x1 ADD PUSH2 0x3849 JUMP JUMPDEST SWAP2 SWAP1 PUSH1 0x1F DUP2 GT PUSH2 0x386E JUMPI POP POP POP JUMP JUMPDEST PUSH2 0x81E SWAP3 PUSH0 MSTORE PUSH1 0x20 PUSH0 KECCAK256 SWAP1 PUSH1 0x20 PUSH1 0x1F DUP5 ADD PUSH1 0x5 SHR DUP4 ADD SWAP4 LT PUSH2 0x3898 JUMPI JUMPDEST PUSH1 0x1F ADD PUSH1 0x5 SHR ADD SWAP1 PUSH2 0x3849 JUMP JUMPDEST SWAP1 SWAP2 POP DUP2 SWAP1 PUSH2 0x388B JUMP JUMPDEST SWAP2 SWAP1 SWAP2 DUP3 MLOAD PUSH1 0x1 PUSH1 0x1 PUSH1 0x40 SHL SUB DUP2 GT PUSH2 0x76B JUMPI PUSH2 0x38C9 DUP2 PUSH2 0x38C3 DUP5 SLOAD PUSH2 0x704 JUMP JUMPDEST DUP5 PUSH2 0x385F JUMP JUMPDEST PUSH1 0x20 DUP1 PUSH1 0x1F DUP4 GT PUSH1 0x1 EQ PUSH2 0x3903 JUMPI POP DUP2 SWAP3 SWAP4 SWAP5 PUSH0 SWAP3 PUSH2 0x38F8 JUMPI JUMPDEST POP POP DUP2 PUSH1 0x1 SHL SWAP2 PUSH0 NOT SWAP1 PUSH1 0x3 SHL SHR NOT AND OR SWAP1 SSTORE JUMP JUMPDEST ADD MLOAD SWAP1 POP PUSH0 DUP1 PUSH2 0x38E3 JUMP JUMPDEST SWAP1 PUSH1 0x1F NOT DUP4 AND SWAP6 PUSH2 0x3917 DUP6 PUSH0 MSTORE PUSH1 0x20 PUSH0 KECCAK256 SWAP1 JUMP JUMPDEST SWAP3 PUSH0 SWAP1 JUMPDEST DUP9 DUP3 LT PUSH2 0x3952 JUMPI POP POP DUP4 PUSH1 0x1 SWAP6 SWAP7 SWAP8 LT PUSH2 0x393A JUMPI JUMPDEST POP POP POP DUP2 SHL ADD SWAP1 SSTORE JUMP JUMPDEST ADD MLOAD PUSH0 NOT PUSH1 0xF8 DUP5 PUSH1 0x3 SHL AND SHR NOT AND SWAP1 SSTORE PUSH0 DUP1 DUP1 PUSH2 0x3930 JUMP JUMPDEST DUP1 PUSH1 0x1 DUP6 SWAP7 DUP3 SWAP5 SWAP7 DUP7 ADD MLOAD DUP2 SSTORE ADD SWAP6 ADD SWAP4 ADD SWAP1 PUSH2 0x391B JUMP JUMPDEST SWAP2 SWAP1 SWAP2 DUP3 MLOAD SWAP3 DUP4 MLOAD PUSH1 0x1 PUSH1 0x1 PUSH1 0x40 SHL SUB DUP2 GT PUSH2 0x76B JUMPI PUSH2 0x3994 DUP2 PUSH2 0x398E DUP6 SLOAD PUSH2 0x704 JUMP JUMPDEST DUP6 PUSH2 0x385F JUMP JUMPDEST PUSH1 0x20 SWAP5 DUP6 SWAP1 PUSH1 0x1F DUP4 GT PUSH1 0x1 EQ PUSH2 0x3A27 JUMPI PUSH2 0x81E SWAP6 SWAP7 DUP4 PUSH1 0x80 SWAP5 PUSH1 0x4 SWAP7 SWAP5 PUSH2 0x39DC SWAP5 PUSH0 SWAP3 PUSH2 0x3A1C JUMPI JUMPDEST POP POP DUP2 PUSH1 0x1 SHL SWAP2 PUSH0 NOT SWAP1 PUSH1 0x3 SHL SHR NOT AND OR DUP7 SSTORE JUMPDEST DUP3 ADD MLOAD PUSH1 0x1 DUP7 ADD PUSH2 0x38A2 JUMP JUMPDEST PUSH1 0x40 DUP2 ADD MLOAD PUSH1 0x2 DUP6 ADD DUP1 SLOAD PUSH1 0x1 PUSH1 0x1 PUSH1 0xA0 SHL SUB NOT AND PUSH1 0x1 PUSH1 0x1 PUSH1 0xA0 SHL SUB SWAP1 SWAP3 AND SWAP2 SWAP1 SWAP2 OR SWAP1 SSTORE PUSH2 0x3A13 PUSH1 0x60 DUP3 ADD MLOAD PUSH1 0x3 DUP7 ADD PUSH2 0x38A2 JUMP JUMPDEST ADD MLOAD SWAP2 ADD PUSH2 0x38A2 JUMP JUMPDEST ADD MLOAD SWAP1 POP PUSH0 DUP1 PUSH2 0x39BC JUMP JUMPDEST SWAP1 PUSH1 0x1F NOT DUP4 AND SWAP2 PUSH2 0x3A3B DUP7 PUSH0 MSTORE PUSH1 0x20 PUSH0 KECCAK256 SWAP1 JUMP JUMPDEST SWAP3 PUSH0 JUMPDEST DUP2 DUP2 LT PUSH2 0x3A86 JUMPI POP DUP5 PUSH1 0x4 SWAP7 SWAP5 PUSH2 0x39DC SWAP5 PUSH2 0x81E SWAP11 SWAP12 SWAP5 PUSH1 0x80 SWAP9 PUSH1 0x1 SWAP6 LT PUSH2 0x3A6E JUMPI JUMPDEST POP POP POP DUP2 SHL ADD DUP7 SSTORE PUSH2 0x39D0 JUMP JUMPDEST ADD MLOAD PUSH0 NOT PUSH1 0xF8 DUP5 PUSH1 0x3 SHL AND SHR NOT AND SWAP1 SSTORE PUSH0 DUP1 DUP1 PUSH2 0x3A61 JUMP JUMPDEST SWAP3 SWAP4 DUP10 PUSH1 0x1 DUP2 SWAP3 DUP8 DUP7 ADD MLOAD DUP2 SSTORE ADD SWAP6 ADD SWAP4 ADD PUSH2 0x3A3E JUMP JUMPDEST SWAP2 PUSH2 0x3AC6 SWAP1 PUSH2 0x3AB8 PUSH2 0x4F9 SWAP6 SWAP4 PUSH1 0x60 DUP7 MSTORE PUSH1 0x60 DUP7 ADD SWAP1 PUSH2 0x4C3 JUMP JUMPDEST SWAP1 DUP5 DUP3 SUB PUSH1 0x20 DUP7 ADD MSTORE PUSH2 0x4C3 JUMP JUMPDEST SWAP2 PUSH1 0x40 DUP2 DUP5 SUB SWAP2 ADD MSTORE PUSH2 0x4C3 JUMP JUMPDEST SWAP1 SWAP2 SWAP3 PUSH1 0xB SLOAD SWAP4 PUSH1 0x40 SWAP1 DUP2 MLOAD PUSH2 0x3AE9 DUP2 PUSH2 0x750 JUMP JUMPDEST DUP5 DUP2 MSTORE DUP6 PUSH1 0x20 DUP3 ADD MSTORE CALLER DUP4 DUP3 ADD MSTORE DUP2 PUSH1 0x60 DUP3 ADD MSTORE DUP4 PUSH1 0x80 DUP3 ADD MSTORE DUP3 MLOAD PUSH2 0x3B0E DUP2 PUSH2 0x78B JUMP JUMPDEST PUSH0 DUP2 MSTORE CALLER ISZERO PUSH2 0x3C45 JUMPI SWAP3 PUSH2 0x3C3F SWAP3 PUSH2 0x3C02 DUP10 SWAP9 SWAP7 SWAP4 PUSH2 0x3BDD PUSH2 0x2EAE PUSH32 0x41D9EE46553CA41D124AFEDE342BF442C55B026BAACC09A8E03E44AC6A05FAE0 SWAP11 SWAP9 PUSH2 0x3B74 PUSH2 0x3B6F PUSH2 0x14D8 DUP16 PUSH0 MSTORE PUSH1 0x2 PUSH1 0x20 MSTORE PUSH1 0x1 DUP1 PUSH1 0xA0 SHL SUB PUSH1 0x40 PUSH0 KECCAK256 SLOAD AND ISZERO ISZERO SWAP1 JUMP JUMPDEST PUSH2 0x3C88 JUMP JUMPDEST PUSH2 0x3B7E DUP14 CALLER PUSH2 0x3453 JUMP JUMPDEST CALLER PUSH0 SWAP1 DUP2 MSTORE PUSH1 0x3 PUSH1 0x20 MSTORE PUSH1 0x40 SWAP1 KECCAK256 PUSH2 0x3B96 DUP2 SLOAD PUSH2 0x309F JUMP JUMPDEST SWAP1 SSTORE PUSH2 0x3BAF DUP14 PUSH2 0x315E CALLER SWAP2 PUSH0 MSTORE PUSH1 0x2 PUSH1 0x20 MSTORE PUSH1 0x40 PUSH0 KECCAK256 SWAP1 JUMP JUMPDEST DUP13 CALLER PUSH0 PUSH32 0xDDF252AD1BE2C89B69C2B068FC378DAA952BA7F163C4A11628F55A4DF523B3EF DUP2 DUP1 LOG4 DUP13 CALLER PUSH2 0x3359 JUMP JUMPDEST PUSH2 0x3BEB PUSH1 0x1 PUSH1 0xB SLOAD ADD PUSH1 0xB SSTORE JUMP JUMPDEST PUSH2 0x3BFD DUP11 PUSH0 MSTORE PUSH1 0xC PUSH1 0x20 MSTORE PUSH1 0x40 PUSH0 KECCAK256 SWAP1 JUMP JUMPDEST PUSH2 0x396A JUMP JUMPDEST DUP8 PUSH32 0xF186850512B83BBF0F335F7C800BEDBE0614CE9D5DBF664FD16BB7A2EF97683A DUP4 MLOAD DUP1 PUSH2 0x3C32 CALLER SWAP6 DUP3 PUSH2 0x4E8 JUMP JUMPDEST SUB SWAP1 LOG3 MLOAD SWAP4 DUP5 SWAP4 DUP5 PUSH2 0x3A9D JUMP JUMPDEST SUB SWAP1 LOG2 SWAP1 JUMP JUMPDEST PUSH1 0x64 DUP5 MLOAD PUSH3 0x461BCD PUSH1 0xE5 SHL DUP2 MSTORE PUSH1 0x20 PUSH1 0x4 DUP3 ADD MSTORE PUSH1 0x20 PUSH1 0x24 DUP3 ADD MSTORE PUSH32 0x4552433732313A206D696E7420746F20746865207A65726F2061646472657373 PUSH1 0x44 DUP3 ADD MSTORE REVERT JUMPDEST ISZERO PUSH2 0x3C8F JUMPI JUMP JUMPDEST PUSH1 0x40 MLOAD PUSH3 0x461BCD PUSH1 0xE5 SHL DUP2 MSTORE PUSH1 0x20 PUSH1 0x4 DUP3 ADD MSTORE PUSH1 0x1C PUSH1 0x24 DUP3 ADD MSTORE PUSH32 0x4552433732313A20746F6B656E20616C7265616479206D696E74656400000000 PUSH1 0x44 DUP3 ADD MSTORE PUSH1 0x64 SWAP1 REVERT JUMPDEST ISZERO PUSH2 0x3CDB JUMPI JUMP JUMPDEST PUSH1 0x40 MLOAD PUSH3 0x461BCD PUSH1 0xE5 SHL DUP2 MSTORE PUSH1 0x20 PUSH1 0x4 DUP3 ADD MSTORE PUSH1 0x13 PUSH1 0x24 DUP3 ADD MSTORE PUSH19 0x141BDCDD08191BD95CC81B9BDD08195E1A5CDD PUSH1 0x6A SHL PUSH1 0x44 DUP3 ADD MSTORE PUSH1 0x64 SWAP1 REVERT JUMPDEST ISZERO PUSH2 0x3D1D JUMPI JUMP JUMPDEST PUSH1 0x40 MLOAD PUSH3 0x461BCD PUSH1 0xE5 SHL DUP2 MSTORE PUSH1 0x20 PUSH1 0x4 DUP3 ADD MSTORE PUSH1 0x23 PUSH1 0x24 DUP3 ADD MSTORE PUSH32 0x506F737420616C7265616479207375626D697474656420746F20636F6D6D756E PUSH1 0x44 DUP3 ADD MSTORE PUSH3 0x697479 PUSH1 0xE8 SHL PUSH1 0x64 DUP3 ADD MSTORE PUSH1 0x84 SWAP1 REVERT JUMPDEST SWAP1 DUP2 PUSH1 0x20 SWAP2 SUB SLT PUSH2 0x416 JUMPI MLOAD PUSH2 0x4F9 DUP2 PUSH2 0x1B76 JUMP JUMPDEST ISZERO PUSH2 0x3D8A JUMPI JUMP JUMPDEST PUSH1 0x40 MLOAD PUSH3 0x461BCD PUSH1 0xE5 SHL DUP2 MSTORE PUSH1 0x20 PUSH1 0x4 DUP3 ADD MSTORE PUSH1 0x16 PUSH1 0x24 DUP3 ADD MSTORE PUSH22 0x14DD589A9958DD08191BD95CC81B9BDD08195E1A5CDD PUSH1 0x52 SHL PUSH1 0x44 DUP3 ADD MSTORE PUSH1 0x64 SWAP1 REVERT JUMPDEST SWAP1 DUP2 PUSH1 0x20 SWAP2 SUB SLT PUSH2 0x416 JUMPI MLOAD SWAP1 JUMP JUMPDEST ISZERO PUSH2 0x3DDE JUMPI JUMP JUMPDEST PUSH1 0x40 MLOAD PUSH3 0x461BCD PUSH1 0xE5 SHL DUP2 MSTORE PUSH1 0x20 PUSH1 0x4 DUP3 ADD MSTORE PUSH1 0x16 PUSH1 0x24 DUP3 ADD MSTORE PUSH22 0x4D7573742073656E642070726F706F73616C20666565 PUSH1 0x50 SHL PUSH1 0x44 DUP3 ADD MSTORE PUSH1 0x64 SWAP1 REVERT JUMPDEST PUSH1 0x40 MLOAD SWAP1 PUSH2 0x3E29 DUP3 PUSH2 0x7A6 JUMP JUMPDEST PUSH1 0xD DUP3 MSTORE PUSH13 0x4E6F20436F6E73656E736F7573 PUSH1 0x98 SHL PUSH1 0x20 DUP4 ADD MSTORE JUMP JUMPDEST SWAP1 DUP1 MLOAD DUP1 MLOAD PUSH1 0x1 PUSH1 0x1 PUSH1 0x40 SHL SUB DUP2 GT PUSH2 0x76B JUMPI PUSH2 0x3E6C DUP2 PUSH2 0x3E66 DUP7 SLOAD PUSH2 0x704 JUMP JUMPDEST DUP7 PUSH2 0x385F JUMP JUMPDEST PUSH1 0x20 SWAP2 DUP3 SWAP1 PUSH1 0x1F DUP4 GT PUSH1 0x1 EQ PUSH2 0x3ECA JUMPI SWAP3 DUP3 PUSH1 0x3 SWAP6 SWAP4 PUSH2 0x3EAE SWAP4 PUSH1 0x60 SWAP7 PUSH0 SWAP3 PUSH2 0x3EBF JUMPI JUMPDEST POP POP DUP2 PUSH1 0x1 SHL SWAP2 PUSH0 NOT SWAP1 DUP9 SHL SHR NOT AND OR DUP7 SSTORE DUP3 ADD MLOAD PUSH1 0x1 DUP7 ADD PUSH2 0x38A2 JUMP JUMPDEST PUSH1 0x40 DUP2 ADD MLOAD PUSH1 0x2 DUP6 ADD SSTORE ADD MLOAD SWAP2 ADD SSTORE JUMP JUMPDEST ADD MLOAD SWAP1 POP PUSH0 DUP1 PUSH2 0x3E90 JUMP JUMPDEST SWAP1 PUSH1 0x1F NOT DUP4 AND SWAP2 PUSH2 0x3EDE DUP8 PUSH0 MSTORE PUSH1 0x20 PUSH0 KECCAK256 SWAP1 JUMP JUMPDEST SWAP3 PUSH0 JUMPDEST DUP2 DUP2 LT PUSH2 0x3F23 JUMPI POP SWAP4 PUSH2 0x3EAE SWAP4 PUSH1 0x60 SWAP7 SWAP4 PUSH1 0x1 SWAP4 DUP4 PUSH1 0x3 SWAP11 SWAP9 LT PUSH2 0x3F0C JUMPI POP POP POP DUP2 SHL ADD DUP7 SSTORE PUSH2 0x39D0 JUMP JUMPDEST ADD MLOAD PUSH0 NOT DUP4 DUP11 SHL PUSH1 0xF8 AND SHR NOT AND SWAP1 SSTORE PUSH0 DUP1 DUP1 PUSH2 0x3A61 JUMP JUMPDEST SWAP3 SWAP4 DUP7 PUSH1 0x1 DUP2 SWAP3 DUP8 DUP7 ADD MLOAD DUP2 SSTORE ADD SWAP6 ADD SWAP4 ADD PUSH2 0x3EE1 JUMP JUMPDEST PUSH2 0x3F52 SWAP1 PUSH1 0x20 PUSH1 0x40 MLOAD SWAP3 DUP3 DUP5 DUP1 SWAP5 MLOAD SWAP4 DUP5 SWAP3 ADD PUSH2 0x4A2 JUMP JUMPDEST DUP2 ADD SUB SWAP1 KECCAK256 SWAP1 JUMP JUMPDEST ISZERO PUSH2 0x3F61 JUMPI JUMP JUMPDEST PUSH1 0x40 MLOAD PUSH3 0x461BCD PUSH1 0xE5 SHL DUP2 MSTORE PUSH1 0x20 PUSH1 0x4 DUP3 ADD MSTORE PUSH1 0x19 PUSH1 0x24 DUP3 ADD MSTORE PUSH25 0x14DD589B5A5CDCDA5BDB88191BD95CC81B9BDD08195E1A5CDD PUSH1 0x3A SHL PUSH1 0x44 DUP3 ADD MSTORE PUSH1 0x64 SWAP1 REVERT JUMPDEST PUSH1 0x20 SWAP1 DUP2 DUP2 DUP5 SUB SLT PUSH2 0x416 JUMPI DUP1 MLOAD PUSH1 0x1 PUSH1 0x1 PUSH1 0x40 SHL SUB SWAP2 DUP3 DUP3 GT PUSH2 0x416 JUMPI ADD SWAP1 DUP4 PUSH1 0x1F DUP4 ADD SLT ISZERO PUSH2 0x416 JUMPI DUP2 MLOAD PUSH2 0x3FD8 DUP2 PUSH2 0x244A JUMP JUMPDEST SWAP5 PUSH1 0x40 SWAP3 PUSH2 0x3FE8 DUP5 MLOAD SWAP8 DUP9 PUSH2 0x7C1 JUMP JUMPDEST DUP3 DUP8 MSTORE DUP6 DUP1 DUP9 ADD SWAP4 PUSH1 0x5 SHL DUP7 ADD ADD SWAP5 DUP3 DUP7 GT PUSH2 0x416 JUMPI DUP7 DUP2 ADD SWAP4 JUMPDEST DUP7 DUP6 LT PUSH2 0x4015 JUMPI POP POP POP POP POP POP POP POP SWAP1 JUMP JUMPDEST DUP5 MLOAD DUP4 DUP2 GT PUSH2 0x416 JUMPI DUP3 ADD SWAP1 DUP5 PUSH1 0x3F DUP4 ADD SLT ISZERO PUSH2 0x416 JUMPI DUP9 DUP3 ADD MLOAD SWAP1 PUSH2 0x403A DUP3 PUSH2 0x1360 JUMP JUMPDEST PUSH2 0x4046 DUP10 MLOAD SWAP2 DUP3 PUSH2 0x7C1 JUMP JUMPDEST DUP3 DUP2 MSTORE DUP7 DUP10 DUP5 DUP7 ADD ADD GT PUSH2 0x416 JUMPI PUSH2 0x4067 DUP12 SWAP5 SWAP4 DUP6 SWAP5 DUP12 DUP7 DUP6 ADD SWAP2 ADD PUSH2 0x4A2 JUMP JUMPDEST DUP2 MSTORE ADD SWAP5 ADD SWAP4 PUSH2 0x4003 JUMP JUMPDEST SWAP1 PUSH0 SWAP3 SWAP2 DUP1 SLOAD SWAP2 PUSH2 0x4082 DUP4 PUSH2 0x704 JUMP JUMPDEST SWAP2 DUP3 DUP3 MSTORE PUSH1 0x1 SWAP4 DUP5 DUP2 AND SWAP1 DUP2 PUSH0 EQ PUSH2 0x40E0 JUMPI POP PUSH1 0x1 EQ PUSH2 0x40A3 JUMPI JUMPDEST POP POP POP POP JUMP JUMPDEST SWAP1 SWAP2 SWAP4 SWAP5 POP PUSH0 MSTORE PUSH1 0x20 SWAP3 DUP4 PUSH0 KECCAK256 SWAP3 DUP5 PUSH0 SWAP5 JUMPDEST DUP4 DUP7 LT PUSH2 0x40CC JUMPI POP POP POP POP ADD ADD SWAP1 PUSH0 DUP1 DUP1 DUP1 PUSH2 0x409D JUMP JUMPDEST DUP1 SLOAD DUP6 DUP8 ADD DUP4 ADD MSTORE SWAP5 ADD SWAP4 DUP6 SWAP1 DUP3 ADD PUSH2 0x40B5 JUMP JUMPDEST SWAP3 SWAP5 POP POP POP PUSH1 0x20 SWAP4 SWAP5 POP PUSH1 0xFF NOT AND DUP4 DUP4 ADD MSTORE ISZERO ISZERO PUSH1 0x5 SHL ADD ADD SWAP1 PUSH0 DUP1 DUP1 DUP1 PUSH2 0x409D JUMP JUMPDEST SWAP1 PUSH1 0x20 PUSH2 0x4F9 SWAP3 DUP2 DUP2 MSTORE ADD SWAP1 PUSH2 0x4072 JUMP JUMPDEST ISZERO PUSH2 0x411B JUMPI JUMP JUMPDEST PUSH1 0x64 PUSH1 0x40 MLOAD PUSH3 0x461BCD PUSH1 0xE5 SHL DUP2 MSTORE PUSH1 0x20 PUSH1 0x4 DUP3 ADD MSTORE PUSH1 0x20 PUSH1 0x24 DUP3 ADD MSTORE PUSH32 0x436F6E73656E736F7573206D75732062652067726561746572207468616E2031 PUSH1 0x44 DUP3 ADD MSTORE REVERT JUMPDEST ISZERO PUSH2 0x4166 JUMPI JUMP JUMPDEST PUSH1 0x40 MLOAD PUSH3 0x461BCD PUSH1 0xE5 SHL DUP2 MSTORE PUSH1 0x20 PUSH1 0x4 DUP3 ADD MSTORE PUSH1 0x18 PUSH1 0x24 DUP3 ADD MSTORE PUSH24 0x436F6E73656E736F7573204E6F7420496E20426F756E6473 PUSH1 0x40 SHL PUSH1 0x44 DUP3 ADD MSTORE PUSH1 0x64 SWAP1 REVERT JUMPDEST ISZERO PUSH2 0x41AD JUMPI JUMP JUMPDEST PUSH1 0x40 MLOAD PUSH3 0x461BCD PUSH1 0xE5 SHL DUP2 MSTORE PUSH1 0x20 PUSH1 0x4 DUP3 ADD MSTORE PUSH1 0x21 PUSH1 0x24 DUP3 ADD MSTORE PUSH32 0x596F7527766520616C7265616479207265766965776564207468697320706F73 PUSH1 0x44 DUP3 ADD MSTORE PUSH1 0x1D PUSH1 0xFA SHL PUSH1 0x64 DUP3 ADD MSTORE PUSH1 0x84 SWAP1 REVERT JUMPDEST PUSH1 0x1 PUSH1 0x1 PUSH1 0xA0 SHL SUB SWAP1 SWAP2 AND DUP2 MSTORE PUSH1 0x40 PUSH1 0x20 DUP3 ADD DUP2 SWAP1 MSTORE PUSH2 0x4F9 SWAP3 SWAP2 ADD SWAP1 PUSH2 0x4072 JUMP JUMPDEST DUP1 MLOAD DUP3 LT ISZERO PUSH2 0x9EE JUMPI PUSH1 0x20 SWAP2 PUSH1 0x5 SHL ADD ADD SWAP1 JUMP JUMPDEST DUP2 MLOAD DUP2 SLOAD PUSH1 0x1 PUSH1 0x1 PUSH1 0xA0 SHL SUB NOT AND PUSH1 0x1 PUSH1 0x1 PUSH1 0xA0 SHL SUB SWAP2 SWAP1 SWAP2 AND OR DUP2 SSTORE SWAP1 PUSH1 0x1 SWAP1 DUP2 DUP4 ADD PUSH1 0x20 DUP1 DUP4 ADD MLOAD SWAP4 DUP5 MLOAD SWAP2 PUSH1 0x1 PUSH1 0x1 PUSH1 0x40 SHL SUB DUP4 GT PUSH2 0x76B JUMPI PUSH2 0x427C DUP4 PUSH2 0x3E66 DUP7 SLOAD PUSH2 0x704 JUMP JUMPDEST DUP1 PUSH1 0x1F DUP5 GT PUSH1 0x1 EQ PUSH2 0x42DA JUMPI POP SWAP2 DUP1 DUP1 SWAP3 PUSH1 0x80 SWAP7 SWAP6 SWAP5 PUSH1 0x4 SWAP9 PUSH0 SWAP5 PUSH2 0x42CF JUMPI JUMPDEST POP POP SHL SWAP2 PUSH0 NOT SWAP1 PUSH1 0x3 SHL SHR NOT AND OR SWAP1 SSTORE JUMPDEST PUSH1 0x40 DUP2 ADD MLOAD PUSH1 0x2 DUP6 ADD SSTORE PUSH2 0x42C8 PUSH1 0x60 DUP3 ADD MLOAD PUSH1 0x3 DUP7 ADD PUSH2 0x38A2 JUMP JUMPDEST ADD MLOAD SWAP2 ADD SSTORE JUMP JUMPDEST ADD MLOAD SWAP3 POP PUSH0 DUP1 PUSH2 0x429C JUMP JUMPDEST SWAP2 SWAP4 SWAP5 SWAP6 PUSH1 0x1F NOT DUP5 AND PUSH2 0x42F0 DUP8 PUSH0 MSTORE PUSH1 0x20 PUSH0 KECCAK256 SWAP1 JUMP JUMPDEST SWAP4 PUSH0 SWAP1 JUMPDEST DUP3 DUP3 LT PUSH2 0x4335 JUMPI POP POP SWAP2 PUSH1 0x4 SWAP8 SWAP6 SWAP4 SWAP2 DUP6 PUSH1 0x80 SWAP9 SWAP7 SWAP5 LT PUSH2 0x431D JUMPI JUMPDEST POP POP POP DUP2 SHL ADD SWAP1 SSTORE PUSH2 0x42AD JUMP JUMPDEST ADD MLOAD PUSH0 NOT PUSH1 0xF8 DUP5 PUSH1 0x3 SHL AND SHR NOT AND SWAP1 SSTORE PUSH0 DUP1 DUP1 PUSH2 0x4310 JUMP JUMPDEST DUP1 DUP9 DUP7 SWAP8 DUP3 SWAP5 SWAP8 DUP8 ADD MLOAD DUP2 SSTORE ADD SWAP7 ADD SWAP5 ADD SWAP1 PUSH2 0x42F4 JUMP JUMPDEST PUSH2 0x4362 PUSH2 0x4F9 SWAP5 SWAP3 PUSH1 0x60 DUP4 MSTORE PUSH1 0x60 DUP4 ADD SWAP1 PUSH2 0x4C3 JUMP JUMPDEST SWAP3 PUSH1 0x20 DUP3 ADD MSTORE PUSH1 0x40 DUP2 DUP5 SUB SWAP2 ADD MSTORE PUSH2 0x4C3 JUMP JUMPDEST SWAP1 DUP2 PUSH1 0x60 SWAP2 SUB SLT PUSH2 0x416 JUMPI DUP1 MLOAD SWAP2 PUSH1 0x40 PUSH1 0x20 DUP4 ADD MLOAD SWAP3 ADD MLOAD SWAP1 JUMP JUMPDEST SWAP1 PUSH1 0x40 MLOAD SWAP2 DUP3 DUP2 SLOAD SWAP2 DUP3 DUP3 MSTORE PUSH1 0x20 SWAP3 DUP4 DUP4 ADD SWAP2 PUSH0 MSTORE DUP4 PUSH0 KECCAK256 SWAP4 PUSH0 SWAP1 JUMPDEST DUP3 DUP3 LT PUSH2 0x43C2 JUMPI POP POP POP PUSH2 0x81E SWAP3 POP SUB DUP4 PUSH2 0x7C1 JUMP JUMPDEST DUP6 SLOAD DUP5 MSTORE PUSH1 0x1 SWAP6 DUP7 ADD SWAP6 DUP9 SWAP6 POP SWAP4 DUP2 ADD SWAP4 SWAP1 SWAP2 ADD SWAP1 PUSH2 0x43AC JUMP JUMPDEST SWAP2 SWAP1 DUP3 PUSH1 0x40 SWAP2 SUB SLT PUSH2 0x416 JUMPI PUSH1 0x20 DUP3 MLOAD SWAP3 ADD MLOAD SWAP1 JUMP JUMPDEST SWAP1 PUSH1 0x64 DUP3 MUL SWAP2 DUP1 DUP4 DIV PUSH1 0x64 EQ SWAP1 ISZERO OR ISZERO PUSH2 0x308D JUMPI JUMP JUMPDEST SWAP1 DUP2 PUSH0 SUB SWAP2 DUP1 DUP4 SDIV PUSH0 NOT EQ SWAP1 ISZERO OR ISZERO PUSH2 0x308D JUMPI JUMP JUMPDEST SWAP1 DUP2 PUSH1 0x20 SWAP2 SUB SLT PUSH2 0x416 JUMPI CALLDATALOAD SWAP1 JUMP JUMPDEST PUSH1 0x1 PUSH1 0xFF SHL DUP2 EQ PUSH2 0x308D JUMPI PUSH0 SUB SWAP1 JUMP JUMPDEST SWAP2 SWAP1 SWAP2 DUP3 DUP2 EQ PUSH2 0x4515 JUMPI PUSH2 0x4450 DUP4 SLOAD PUSH2 0x704 JUMP JUMPDEST PUSH1 0x1 PUSH1 0x1 PUSH1 0x40 SHL SUB DUP2 GT PUSH2 0x76B JUMPI PUSH2 0x446C DUP2 PUSH2 0x38C3 DUP5 SLOAD PUSH2 0x704 JUMP JUMPDEST PUSH0 SWAP4 PUSH1 0x1F DUP3 GT PUSH1 0x1 EQ PUSH2 0x44A4 JUMPI SWAP4 DUP2 SWAP3 SWAP4 SWAP5 PUSH0 SWAP3 PUSH2 0x4499 JUMPI POP POP DUP2 PUSH1 0x1 SHL SWAP2 PUSH0 NOT SWAP1 PUSH1 0x3 SHL SHR NOT AND OR SWAP1 SSTORE JUMP JUMPDEST ADD SLOAD SWAP1 POP PUSH0 DUP1 PUSH2 0x38E3 JUMP JUMPDEST PUSH2 0x44B6 PUSH1 0x1F NOT DUP4 AND SWAP2 PUSH0 MSTORE PUSH1 0x20 PUSH0 KECCAK256 SWAP1 JUMP JUMPDEST SWAP5 PUSH2 0x44C4 DUP5 PUSH0 MSTORE PUSH1 0x20 PUSH0 KECCAK256 SWAP1 JUMP JUMPDEST SWAP2 DUP2 JUMPDEST DUP2 DUP2 LT PUSH2 0x44FD JUMPI POP SWAP6 DUP4 PUSH1 0x1 SWAP6 SWAP7 SWAP8 LT PUSH2 0x44E5 JUMPI POP POP POP DUP2 SHL ADD SWAP1 SSTORE JUMP JUMPDEST ADD SLOAD PUSH0 NOT PUSH1 0xF8 DUP5 PUSH1 0x3 SHL AND SHR NOT AND SWAP1 SSTORE PUSH0 DUP1 DUP1 PUSH2 0x3930 JUMP JUMPDEST DUP8 DUP4 ADD SLOAD DUP5 SSTORE PUSH1 0x1 SWAP4 DUP5 ADD SWAP4 SWAP1 SWAP3 ADD SWAP2 PUSH1 0x20 ADD PUSH2 0x44C7 JUMP JUMPDEST POP SWAP1 POP JUMP JUMPDEST PUSH1 0x40 SWAP1 PUSH2 0x4F9 SWAP4 SWAP3 DUP2 MSTORE DUP2 PUSH1 0x20 DUP3 ADD MSTORE ADD SWAP1 PUSH2 0x4072 JUMP JUMPDEST ISZERO PUSH2 0x4538 JUMPI JUMP JUMPDEST PUSH1 0x40 MLOAD PUSH3 0x461BCD PUSH1 0xE5 SHL DUP2 MSTORE PUSH1 0x20 PUSH1 0x4 DUP3 ADD MSTORE PUSH1 0x1A PUSH1 0x24 DUP3 ADD MSTORE PUSH32 0x4E6F7420746865206F776E6572206F662074686520746F6B656E000000000000 PUSH1 0x44 DUP3 ADD MSTORE PUSH1 0x64 SWAP1 REVERT JUMPDEST SWAP1 PUSH1 0x40 MLOAD PUSH2 0x458A DUP2 PUSH2 0x750 JUMP JUMPDEST PUSH1 0x80 PUSH2 0x45D9 PUSH1 0x4 DUP4 SWAP6 PUSH2 0x459C DUP2 PUSH2 0x7E2 JUMP JUMPDEST DUP6 MSTORE PUSH2 0x45AA PUSH1 0x1 DUP3 ADD PUSH2 0x7E2 JUMP JUMPDEST PUSH1 0x20 DUP7 ADD MSTORE PUSH1 0x2 DUP2 ADD SLOAD PUSH1 0x1 PUSH1 0x1 PUSH1 0xA0 SHL SUB AND PUSH1 0x40 DUP7 ADD MSTORE PUSH2 0x45CE PUSH1 0x3 DUP3 ADD PUSH2 0x7E2 JUMP JUMPDEST PUSH1 0x60 DUP7 ADD MSTORE ADD PUSH2 0x7E2 JUMP JUMPDEST SWAP2 ADD MSTORE JUMP JUMPDEST PUSH2 0x45F3 PUSH1 0x1 DUP1 PUSH1 0xA0 SHL SUB PUSH1 0xA SLOAD AND CALLER EQ PUSH2 0x2B7F JUMP JUMPDEST DUP1 MLOAD SWAP1 PUSH1 0x1 PUSH1 0x40 SHL DUP3 GT PUSH2 0x76B JUMPI PUSH1 0x15 SLOAD DUP3 PUSH1 0x15 SSTORE DUP1 DUP4 LT PUSH2 0x4656 JUMPI JUMPDEST POP PUSH1 0x15 PUSH0 MSTORE PUSH1 0x20 SWAP1 DUP2 ADD SWAP1 PUSH0 DUP1 MLOAD PUSH1 0x20 PUSH2 0x47D9 DUP4 CODECOPY DUP2 MLOAD SWAP2 MSTORE PUSH0 SWAP3 JUMPDEST DUP5 DUP5 LT PUSH2 0x463A JUMPI POP POP POP POP POP JUMP JUMPDEST PUSH1 0x1 DUP4 DUP3 PUSH2 0x464A DUP4 SWAP5 MLOAD DUP7 PUSH2 0x38A2 JUMP JUMPDEST ADD SWAP3 ADD SWAP4 ADD SWAP3 SWAP1 PUSH2 0x462C JUMP JUMPDEST PUSH1 0x15 PUSH0 SWAP1 DUP2 MSTORE PUSH0 DUP1 MLOAD PUSH1 0x20 PUSH2 0x47D9 DUP4 CODECOPY DUP2 MLOAD SWAP2 MSTORE SWAP2 DUP3 ADD SWAP2 DUP5 ADD JUMPDEST DUP3 DUP2 LT PUSH2 0x467F JUMPI POP POP PUSH2 0x4610 JUMP JUMPDEST DUP1 PUSH2 0x468C PUSH1 0x1 SWAP3 SLOAD PUSH2 0x704 JUMP JUMPDEST DUP1 PUSH2 0x4699 JUMPI JUMPDEST POP ADD PUSH2 0x4671 JUMP JUMPDEST PUSH1 0x1F SWAP1 DUP2 DUP2 GT DUP5 EQ PUSH2 0x46B1 JUMPI POP POP DUP3 DUP2 SSTORE JUMPDEST PUSH0 PUSH2 0x4692 JUMP JUMPDEST DUP4 PUSH2 0x46D1 SWAP3 PUSH2 0x46C3 DUP6 PUSH0 MSTORE PUSH1 0x20 PUSH0 KECCAK256 SWAP1 JUMP JUMPDEST SWAP3 ADD PUSH1 0x5 SHR DUP3 ADD SWAP2 ADD PUSH2 0x3849 JUMP JUMPDEST PUSH0 DUP2 DUP2 MSTORE PUSH1 0x20 DUP2 KECCAK256 DUP2 DUP4 SSTORE SSTORE PUSH2 0x46AB JUMP JUMPDEST ISZERO PUSH2 0x46E9 JUMPI JUMP JUMPDEST PUSH1 0x40 MLOAD PUSH3 0x461BCD PUSH1 0xE5 SHL DUP2 MSTORE PUSH1 0x20 PUSH1 0x4 DUP3 ADD MSTORE PUSH1 0x1B PUSH1 0x24 DUP3 ADD MSTORE PUSH32 0x563220636F6E74726163742061646472657373206E6F74207365740000000000 PUSH1 0x44 DUP3 ADD MSTORE PUSH1 0x64 SWAP1 REVERT JUMPDEST SWAP5 SWAP2 SWAP4 PUSH2 0x4761 PUSH2 0x477D SWAP5 PUSH2 0x4F9 SWAP9 SWAP7 PUSH2 0x476F SWAP5 DUP10 MSTORE PUSH1 0x1 DUP1 PUSH1 0xA0 SHL SUB AND PUSH1 0x20 DUP10 ADD MSTORE PUSH1 0xC0 PUSH1 0x40 DUP10 ADD MSTORE PUSH1 0xC0 DUP9 ADD SWAP1 PUSH2 0x4C3 JUMP JUMPDEST SWAP1 DUP7 DUP3 SUB PUSH1 0x60 DUP9 ADD MSTORE PUSH2 0x4C3 JUMP JUMPDEST SWAP1 DUP5 DUP3 SUB PUSH1 0x80 DUP7 ADD MSTORE PUSH2 0x4C3 JUMP JUMPDEST SWAP2 PUSH1 0xA0 DUP2 DUP5 SUB SWAP2 ADD MSTORE PUSH2 0x4C3 JUMP JUMPDEST PUSH1 0x40 MLOAD SWAP1 PUSH1 0x20 DUP3 ADD SWAP1 PUSH4 0xF82C50F1 PUSH1 0xE0 SHL DUP3 MSTORE PUSH1 0x24 DUP4 ADD MSTORE PUSH1 0x24 DUP3 MSTORE PUSH1 0x60 DUP3 ADD SWAP1 DUP3 DUP3 LT PUSH1 0x1 PUSH1 0x1 PUSH1 0x40 SHL SUB DUP4 GT OR PUSH2 0x76B JUMPI PUSH0 SWAP3 DUP4 SWAP3 PUSH1 0x40 MSTORE MLOAD SWAP1 PUSH11 0x636F6E736F6C652E6C6F67 GAS STATICCALL POP JUMP INVALID SSTORE DELEGATECALL BASEFEE REVERT 0xEA SWAP9 0xC4 0xD2 SWAP15 0xB3 BLOCKHASH PUSH22 0x7EF0A66CD03DBB9538908A6A81D96026B71EC475D833 EQ PUSH30 0x7DC355BA459FC788F669E58CFAF9DC25DDCD0702E87D69C7B5124289A264 PUSH10 0x70667358221220A22CD0 0xB2 CALLVALUE 0xF8 SHR SWAP15 0xEF 0xBF 0xAE SELFDESTRUCT DUP1 SWAP1 0xBA JUMPI 0xC8 SWAP1 ADD BYTE 0x27 GAS 0x21 0xF9 NUMBER 0xE 0xB9 PUSH20 0xC06B36AB64736F6C6343000814003355F448FDEA SWAP9 0xC4 0xD2 SWAP15 0xB3 BLOCKHASH PUSH22 0x7EF0A66CD03DBB9538908A6A81D96026B71EC475290D 0xEC 0xD9 SLOAD DUP12 PUSH3 0xA8D603 GASLIMIT 0xA9 DUP9 CODESIZE PUSH16 0xC84BA6BC95484008F6362F93160EF3E5 PUSH4 0x0 "},"methodIdentifiers":{"ActiveSubmissions(uint256)":"ee8eb507","ActiveSubmissionsIndexes(uint256)":"93a018be","CommunitiesContract()":"c02c6416","CommunitySubmissionToPost(uint256)":"ac97980d","CommunitySubmissions(uint256)":"c5dce24d","MembersContract()":"e1485776","PostSubmissionList(uint256,uint256)":"eeb0cf76","addKeyword(uint256,string)":"7d67e967","approve(address,uint256)":"095ea7b3","balanceOf(address)":"70a08231","checkUpKeep()":"c8249d8a","consensousFee()":"ed322bc7","csCounter()":"a5940041","getActiveSubmissions()":"bdf5db39","getActiveSubmissionsIndex(uint256)":"de78ab7c","getActiveSubmissionsLength()":"74f0c641","getApproved(uint256)":"081812fc","getCommunitySubmission(uint256)":"de8b32c5","getPost(uint256)":"40731c24","getPostConsesous(uint256)":"ea487a92","getReview(uint256)":"990581b6","getReviewConsenous(uint256)":"b9e2fc3e","getReviewsForSubmission(uint256)":"6c79bd2b","hasReviewed(uint256,address)":"7c7198cc","incrementToken()":"f6a800ee","isApprovedForAll(address,address)":"e985e9c5","maxReviews()":"4ed59812","mintPost(string,string,string,string)":"d242d34e","name()":"06fdde03","openVoteTime()":"9b1cb58e","owner()":"8da5cb5b","ownerOf(uint256)":"6352211e","performUpkeep(bytes)":"4585e33b","postCommunities(uint256,string)":"d3a3f771","posts(uint256)":"0b1e7f83","renounceOwnership()":"715018a6","reviewCounter()":"e168b3a8","reviews(uint256)":"e83ddcea","safeTransferFrom(address,address,uint256)":"42842e0e","safeTransferFrom(address,address,uint256,bytes)":"b88d4fde","setApprovalForAll(address,bool)":"a22cb465","setAutomationRegistry(address)":"5ff2d2aa","setCommunitiesContract(address)":"ad2957ff","setFee(uint256)":"69fe0e2d","setMaxReviews(uint256)":"d1a34aa3","setMembersContract(address)":"3c09203b","setUpkkepId(uint256)":"5787a0cc","setV2Contract(address)":"c17589d7","setdefaultConsenousTypes(string[])":"d8db3807","submitReview(uint256,string,uint256)":"6356eea4","submitToCommunity(uint256,string)":"fa1396f5","submmisionReviews(uint256,uint256)":"1651902a","supportsInterface(bytes4)":"01ffc9a7","symbol()":"95d89b41","tokenByIndex(uint256)":"4f6ccce7","tokenOfOwnerByIndex(address,uint256)":"2f745c59","tokenURI(uint256)":"c87b56dd","totalSupply()":"18160ddd","transferFrom(address,address,uint256)":"23b872dd","transferNFTsToV2(uint256)":"336c1ad7","transferOwnership(address)":"f2fde38b","transferToken(address,uint256)":"1072cbea","upkeepId()":"d2aa789f"}}}}}