{"contracts/tgetherConsensusBounty.sol":{"tgetherConsensusBounty":{"abi":[{"inputs":[{"internalType":"address","name":"_tgetherFundAddress","type":"address"},{"internalType":"address","name":"_tgetherPostConsensusAddress","type":"address"},{"internalType":"address","name":"_tgetherCommunityConsensusAddress","type":"address"},{"internalType":"address","name":"_tgetherIncentivesAddress","type":"address"},{"internalType":"uint256","name":"_fee","type":"uint256"},{"internalType":"address","name":"_AutomationContractAddress","type":"address"}],"stateMutability":"nonpayable","type":"constructor"},{"anonymous":false,"inputs":[{"indexed":false,"internalType":"uint256","name":"bountyId","type":"uint256"},{"indexed":false,"internalType":"uint256","name":"submissionId","type":"uint256"},{"indexed":false,"internalType":"address","name":"creator","type":"address"},{"indexed":false,"internalType":"uint256","name":"amount","type":"uint256"}],"name":"BountyCreated","type":"event"},{"anonymous":false,"inputs":[{"indexed":false,"internalType":"address","name":"recipient","type":"address"},{"indexed":false,"internalType":"uint256","name":"amount","type":"uint256"}],"name":"BountyPaid","type":"event"},{"inputs":[],"name":"AutomationContractAddress","outputs":[{"internalType":"address","name":"","type":"address"}],"stateMutability":"view","type":"function"},{"inputs":[{"internalType":"uint256","name":"_submissionId","type":"uint256"}],"name":"GetPostSubmissionBounties","outputs":[{"internalType":"uint256[]","name":"","type":"uint256[]"}],"stateMutability":"view","type":"function"},{"inputs":[{"internalType":"uint256","name":"","type":"uint256"}],"name":"bounties","outputs":[{"internalType":"uint256","name":"bountyAmount","type":"uint256"},{"internalType":"address","name":"bountyCreator","type":"address"},{"internalType":"bool","name":"bountyPaid","type":"bool"}],"stateMutability":"view","type":"function"},{"inputs":[],"name":"bountiesId","outputs":[{"internalType":"uint256","name":"","type":"uint256"}],"stateMutability":"view","type":"function"},{"inputs":[{"components":[{"internalType":"uint256","name":"index","type":"uint256"},{"internalType":"uint256","name":"timestamp","type":"uint256"},{"internalType":"bytes32","name":"txHash","type":"bytes32"},{"internalType":"uint256","name":"blockNumber","type":"uint256"},{"internalType":"bytes32","name":"blockHash","type":"bytes32"},{"internalType":"address","name":"source","type":"address"},{"internalType":"bytes32[]","name":"topics","type":"bytes32[]"},{"internalType":"bytes","name":"data","type":"bytes"}],"internalType":"struct Log","name":"log","type":"tuple"},{"internalType":"bytes","name":"","type":"bytes"}],"name":"checkLog","outputs":[{"internalType":"bool","name":"upkeepNeeded","type":"bool"},{"internalType":"bytes","name":"performData","type":"bytes"}],"stateMutability":"view","type":"function"},{"inputs":[{"internalType":"uint256","name":"_submissionId","type":"uint256"}],"name":"createBounty","outputs":[{"internalType":"uint256","name":"","type":"uint256"}],"stateMutability":"payable","type":"function"},{"inputs":[],"name":"fee","outputs":[{"internalType":"uint256","name":"","type":"uint256"}],"stateMutability":"view","type":"function"},{"inputs":[{"internalType":"uint256","name":"_submissionId","type":"uint256"}],"name":"manualUpkeep","outputs":[],"stateMutability":"nonpayable","type":"function"},{"inputs":[],"name":"owner","outputs":[{"internalType":"address","name":"","type":"address"}],"stateMutability":"view","type":"function"},{"inputs":[{"internalType":"bytes","name":"_performData","type":"bytes"}],"name":"performUpkeep","outputs":[],"stateMutability":"nonpayable","type":"function"},{"inputs":[{"internalType":"uint256","name":"","type":"uint256"},{"internalType":"uint256","name":"","type":"uint256"}],"name":"postSubmissionBounties","outputs":[{"internalType":"uint256","name":"","type":"uint256"}],"stateMutability":"view","type":"function"},{"inputs":[{"internalType":"address","name":"_AutomationContractAddress","type":"address"}],"name":"setAutomationContractAddress","outputs":[],"stateMutability":"nonpayable","type":"function"},{"inputs":[{"internalType":"uint256","name":"_fee","type":"uint256"}],"name":"setFee","outputs":[],"stateMutability":"nonpayable","type":"function"},{"inputs":[{"internalType":"address","name":"_tgetherCommunityConsensusAddress","type":"address"}],"name":"setTgetherCommunityConsensusAddress","outputs":[],"stateMutability":"nonpayable","type":"function"},{"inputs":[{"internalType":"address","name":"_tgetherFundAddress","type":"address"}],"name":"setTgetherFundAddress","outputs":[],"stateMutability":"nonpayable","type":"function"},{"inputs":[{"internalType":"address","name":"_tgetherIncentivesAddress","type":"address"}],"name":"setTgetherIncentivesAddress","outputs":[],"stateMutability":"nonpayable","type":"function"},{"inputs":[{"internalType":"address","name":"_tgetherPostConsensusAddress","type":"address"}],"name":"setTgetherPostConsensusAddress","outputs":[],"stateMutability":"nonpayable","type":"function"},{"inputs":[],"name":"tgetherCommunityConsensusContract","outputs":[{"internalType":"contract tgetherCommunityConsensusInterface","name":"","type":"address"}],"stateMutability":"view","type":"function"},{"inputs":[],"name":"tgetherFundContract","outputs":[{"internalType":"contract tgetherFundInterface","name":"","type":"address"}],"stateMutability":"view","type":"function"},{"inputs":[],"name":"tgetherIncentivesContract","outputs":[{"internalType":"contract tgetherIncentivesInterface","name":"","type":"address"}],"stateMutability":"view","type":"function"},{"inputs":[],"name":"tgetherPostConsensusContract","outputs":[{"internalType":"contract tgetherPostConsensusInterface","name":"","type":"address"}],"stateMutability":"view","type":"function"}],"evm":{"bytecode":{"linkReferences":{},"object":"608034620000fc57601f6200206438819003918201601f19168301916001600160401b03831184841017620001005780849260c094604052833981010312620000fc576200004d8162000114565b906200005c6020820162000114565b6200006a6040830162000114565b90620000796060840162000114565b906200008d60a06080860151950162000114565b9160015f5560018060a01b0380948180948160018060a01b03199a168a6004541617600455168860055416176005551686600654161760065516846007541617600755168260085416176008556009553390600a541617600a556001600355604051611f3a90816200012a8239f35b5f80fd5b634e487b7160e01b5f52604160045260245ffd5b51906001600160a01b0382168203620000fc5756fe60a0604081815260049182361015610015575f80fd5b5f92833560e01c9182630ee1bd2514610c49575081631e28b1c814610c2057816324c328f214610bf75781632bf2f01a14610baa57816337b308ac14610b335781633f28e9fb1461063e57816340691db4146105045781634585e33b146104015781634c87e49b146103d85781634db9e2071461039457816369fe0e2d146103655781638547cb8c146103465781638da5cb5b1461031d578163a383135e146102d0578163ac7f3d7b14610283578163b31926f414610236578163b9935ac31461020e578163bab488be146101c1578163c4ba65bb14610178578163dc2f87441461012a575063ddca3f4314610109575f80fd5b346101265781600319360112610126576020906009549051908152f35b5080fd5b9050346101745760203660031901126101745760609282913581526001602052209060ff60018354930154825193845260018060a01b038116602085015260a01c16151590820152f35b8280fd5b8284346101be57816003193601126101be576024359235815260026020528181209081548410156101be57506020926101b091610d8c565b91905490519160031b1c8152f35b80fd5b83903461012657602036600319011261012657356001600160a01b0381811691829003610174576101f790600a54163314611ead565b600580546001600160a01b03191691909117905580f35b9050346101745782600319360112610174575490516001600160a01b03909116815260209150f35b83903461012657602036600319011261012657356001600160a01b03818116918290036101745761026c90600a54163314611ead565b600680546001600160a01b03191691909117905580f35b83903461012657602036600319011261012657356001600160a01b0381811691829003610174576102b990600a54163314611ead565b600880546001600160a01b03191691909117905580f35b8390346101265760203660031901126101265780356001600160a01b03818116918290036103195761030790600a54163314611ead565b81546001600160a01b03191617905580f35b8380fd5b505034610126578160031936011261012657600a5490516001600160a01b039091168152602090f35b5050346101265781600319360112610126576020906003549051908152f35b8390346101265760203660031901126101265761038d60018060a01b03600a54163314611ead565b3560095580f35b839034610126576020366003190112610126576103b9906103b36119b8565b35610f68565b6080516103c9575b506001815580f35b6103d290611a0c565b816103c1565b50503461012657816003193601126101265760055490516001600160a01b039091168152602090f35b91905034610174576020366003190112610174578135916001600160401b03918284116105005736602385011215610500578382013592831161050057366024848601011161050057600a54336001600160a01b03918216149081156104f2575b501561048f578461048861048386866104796119b8565b6024369201610d0c565b611a0c565b6001815580f35b906020608492519162461bcd60e51b8352820152603760248201527f4e6f742074686520636f6e7472616374206f776e6572206f72204175746f6d616044820152761d1a5bdb88119bdc9dd85c99195c8810dbdb9d1c9858dd604a1b6064820152fd5b90506008541633145f610462565b8480fd5b905082346101be57600319918383360112610126578035916001600160401b03808411610126576101008436039586011261012657602492833582811161031957366023820112156103195761056290369086818501359101610d0c565b50829560609560c4810135916022190182121561050057019181830135908111610319578060051b360385840113610319576001101561062d57509080806044889401359485825260026020528482205490855190602082019263f82c50f160e01b84528183015281526105d581610ca1565b51906a636f6e736f6c652e6c6f675afa5082815260026020522054610615575b5061061190835193849315158452806020850152830190610d67565b0390f35b90506106219150610f68565b608051906106116105f5565b634e487b7160e01b83526032905250fd5b8383602092836003193601126101745760055482516375243d4960e11b8152823581840181905294602493909290916001600160a01b039182169088818781855afa9081156109d7578591610b06575b5083811015610af357600103610ab1578160075416865163755e66db60e11b90818152898682015286818981875afa908115610a8d576106f4949392918a918991610a97575b508c8251968792839263bac4cd0760e01b84528b8401528c830190610d67565b0381855afa938415610a8d578794610a5d575b506107156009549485610e65565b341115610a0f578690888a518095819382528d8a8301525afa918215610a0557918a916107639388926109e1575b508951808095819463cc271aa360e01b8352868b8401528c830190610d67565b03915afa9081156109d75785916109a2575b501561094d57878284541686885180948193633de5599d60e11b835230898401525af190811561094357849161090e575b50156108d4576107b860095434610e93565b8551906107c482610ca1565b8152878101913383526001878301928684526003548752818b52888720905181550192511682549160ff60a01b9051151560a01b169160018060a81b03191617179055848252600286528382209460035495805490600160401b8210156108c1578161083991600161089a9594018155610d8c565b81549060031b905f19809a831b921b19161790557f555a6ec1bcab187d5c03bcc543a554016e038bf7fb4313e551f96c155889418d60806003549261088060095434610e93565b8951918583528c830152338a8301526060820152a1610ea0565b948560035585019485116108b15750505051908152f35b634e487b7160e01b825260119052fd5b5050634e487b7160e01b83525060419052fd5b845162461bcd60e51b815280830188905260158186015274155c1ad9595c08199d5b991a5b99c819985a5b1959605a1b6044820152606490fd5b90508781813d831161093c575b6109258183610cd0565b810103126103195761093690610e86565b886107a6565b503d61091b565b86513d86823e3d90fd5b855162461bcd60e51b8152808401899052602a818701527f436f6d6d756e697479206d757374206861766520616e20696e63656e746976656044820152692073747275637475726560b01b6064820152608490fd5b90508881813d83116109d0575b6109b98183610cd0565b81010312610500576109ca90610e86565b89610775565b503d6109af565b87513d87823e3d90fd5b6109fe9192503d808a833e6109f68183610cd0565b810190610e12565b908c610743565b88513d88823e3d90fd5b885162461bcd60e51b81528087018c90526023818a01527f466565206d757374206265207061696420746f20637265617465206120626f756044820152626e747960e81b6064820152608490fd5b610a7e919450893d8b11610a86575b610a768183610cd0565b810190610e4b565b50928b610707565b503d610a6c565b89513d89823e3d90fd5b610aab91503d808b833e6109f68183610cd0565b8d6106d4565b855162461bcd60e51b8152808401899052601e818701527f506f7374206d7573742062652070656e64696e6720636f6e73656e73757300006044820152606490fd5b5050634e487b7160e01b83525060219052fd5b610b269150893d8b11610b2c575b610b1e8183610cd0565b810190610db5565b8961068e565b503d610b14565b9190503461017457602091826003193601126103195735835260028252808320815190819485928583549182815201928252858220915b86828210610b9357859061061188610b8484890385610cd0565b51928284938452830190610c6e565b835485528895509093019260019283019201610b6a565b83903461012657602036600319011261012657356001600160a01b038181169182900361017457610be090600a54163314611ead565b600780546001600160a01b03191691909117905580f35b50503461012657816003193601126101265760085490516001600160a01b039091168152602090f35b50503461012657816003193601126101265760075490516001600160a01b039091168152602090f35b8490346101265781600319360112610126576006546001600160a01b03168152602090f35b9081518082526020808093019301915f5b828110610c8d575050505090565b835185529381019392810192600101610c7f565b606081019081106001600160401b03821117610cbc57604052565b634e487b7160e01b5f52604160045260245ffd5b90601f801991011681019081106001600160401b03821117610cbc57604052565b6001600160401b038111610cbc57601f01601f191660200190565b929192610d1882610cf1565b91610d266040519384610cd0565b829481845281830111610d42578281602093845f960137010152565b5f80fd5b5f5b838110610d575750505f910152565b8181015183820152602001610d48565b90602091610d8081518092818552858086019101610d46565b601f01601f1916010190565b8054821015610da1575f5260205f2001905f90565b634e487b7160e01b5f52603260045260245ffd5b90816020910312610d4257516004811015610d425790565b81601f82011215610d42578051610de381610cf1565b92610df16040519485610cd0565b81845260208284010111610d4257610e0f9160208085019101610d46565b90565b90602082820312610d425781516001600160401b038111610d4257610e0f9201610dcd565b51906001600160a01b0382168203610d4257565b9190826040910312610d4257610e0f602083519301610e37565b91908201809211610e7257565b634e487b7160e01b5f52601160045260245ffd5b51908115158203610d4257565b91908203918211610e7257565b5f198114610e725760010190565b6001600160401b038111610cbc5760051b60200190565b90610ecf82610eae565b610edc6040519182610cd0565b8281528092610eed601f1991610eae565b0190602036910137565b8051821015610da15760209160051b010190565b939291606085019160608652805180935260808601926020809201905f5b818110610f4b5750505085830390860152604091610f4691610c6e565b930152565b82516001600160a01b031686529483019491830191600101610f29565b5f608052805f52600260205260405f2090604051808360208295549384815201905f5260205f20925f5b818110611702575050610fa792500383610cd0565b8151156116da57600160805260055460405163755e66db60e11b8152600481018390526001600160a01b039091169390925f84602481885afa938415611246575f946116be575b50600654604051632691798960e01b815260206004820152949060609086906001600160a01b031681806110256024820187610d67565b03915afa938415611246575f955f95611683575b50604051636c79bd2b60e01b8152600481018290525f816024818b5afa908115611246575f91611646575b5061106f8151610ec5565b9361107a8251610ec5565b925f965f955f985b608051156116325785518a1015611251578c5f61109f8c89610ef7565b51602460405180948193634c82c0db60e11b835260048301525afa908115611246575f91611154575b5060a081015115801590611147575b61113c576040810151600203611116575161111091611109916001600160a01b0316611103828d610ef7565b52610ea0565b995b610ea0565b98611082565b519099976111109161113691906001600160a01b0316611103828b610ef7565b97610ea0565b509861111090610ea0565b508b6080820151106110d7565b90503d805f833e6111658183610cd0565b6020828281010312610d42578151906001600160401b038211610d425760c08284018285010312610d4257604051928360c08101106001600160401b0360c086011117610cbc5760c084016040526111be838201610e37565b8452602083820101516001600160401b038111610d42576111e6908383019085840101610dcd565b60208501528083016040818101519086015260600151916001600160401b038311610d425761123c9261121f9183019085840101610dcd565b606085015260808382010151608085015260a09283910101610e86565b908201525f6110c8565b6040513d5f823e3d90fd5b97939b5097509750979386925088935b61126a87610ec5565b9661127483610ec5565b935f5b8281106115f8575050505f5b8281106115be5750505061129694611779565b805190816113ec575050506112ab8351610ec5565b906112b68451610ec5565b5f915f5b608051156113e1578651811015611357576112d58188610ef7565b515f5260805160205260405f20604051906112ef82610ca1565b8054825260805101546001600160a01b0381166020830181905260a09190911c60ff16158015604084015261132f575b505061132a90610ea0565b6112ba565b9461134f9161132a9396611343838a610ef7565b52516111038287610ef7565b93905f61131f565b5094509192905b61136781610ec5565b9261137182610ec5565b945f5b8381106113a4575050505090611396610e0f9260405194859360208501610f0b565b03601f198101835282610cd0565b6113dc906001600160a01b036113ba8285610ef7565b51166113c68289610ef7565b526113d18185610ef7565b51611103828a610ef7565b611374565b50945091929061135e565b9093929194505f92805f52600260205260405f2092604051808560208297549384815201905f5260205f20925f5b8181106115a457505061142f92500385610cd0565b5f5b608051156115925784518110156114b65761144c8186610ef7565b515f5260805160205260405f2060405161146581610ca1565b60ff825492838352608051015460018060a01b038116602084015260a01c161590604082159101526114a1575b5061149c90610ea0565b611431565b6114af9061149c9297610e65565b9590611492565b50939094925060406114f192965b60018060a01b03600754168251808096819463bac4cd0760e01b8352602060048401526024830190610d67565b03915afa9081156112465761150d925f92611570575b50610e93565b04906115198451610ec5565b935f5b6080511561155e57815181101561154157808461110361153c9389610ef7565b61151c565b50909392610e0f9250611396905b60405194859360208501610f0b565b50909392610e0f92506113969061154f565b61158a91925060403d604011610a8657610a768183610cd0565b50905f611507565b50939094925060406114f192966114c4565b84548352608051948501948994506020909301920161141a565b95969295929450909250906115eb906001600160a01b036115df8285610ef7565b51166111038288610ef7565b9188939594918793611283565b909294979896506116239193955060018060a01b036116178285610ef7565b51166111038289610ef7565b918a9597969391899593611277565b97939b509750975097938692508893611261565b90503d805f833e6116578183610cd0565b8101602082820312610d425781516001600160401b038111610d425761167d920161171b565b5f611064565b955093506060853d6060116116b6575b816116a060609383610cd0565b81010312610d425760208551950151935f611039565b3d9150611693565b6116d39194503d805f833e6109f68183610cd0565b925f610fee565b50505f608052604051602081018181106001600160401b03821117610cbc576040525f815290565b8454835260019485019487945060209093019201610f92565b81601f82011215610d425780519161173283610eae565b926117406040519485610cd0565b808452602092838086019260051b820101928311610d42578301905b82821061176a575050505090565b8151815290830190830161175c565b9290949360609060018060a01b0393846007541691604051948593630436ff8960e21b8552602094859181806117ba600498868a8401526024830190610d67565b03915afa958615611246575f9661197e575b50838760055416916024604051809481936375243d4960e11b8352888301525afa938415611246575f9461195f575b505061180a87518a5190610e65565b9482841015918261194c57841590811561193e575b8115611934575b5061192857600281101561191557806118b157505050505061184790610ec5565b915f5b815181101561187357808361186261186e9385610ef7565b51166111038287610ef7565b61184a565b5091935f5b81518110156118ab5780836118906118a69385610ef7565b51166111036118a0838851610e65565b89610ef7565b611878565b50505050565b90929450600191939697989550146118cd575b50505050905090565b6119025750600281036118e8575050505b805f8080806118c4565b600391929350146118fa575b506118de565b90505f6118f4565b602190634e487b7160e01b5f525260245ffd5b602183634e487b7160e01b5f525260245ffd5b50929750505050505050565b905086105f611826565b5f935060018614915061181f565b602184634e487b7160e01b5f525260245ffd5b611976929450803d10610b2c57610b1e8183610cd0565b915f806117fb565b8481819893983d83116119b1575b6119968183610cd0565b8101031261012657519060028210156101be5750945f6117cc565b503d61198c565b60025f54146119c75760025f55565b60405162461bcd60e51b815260206004820152601f60248201527f5265656e7472616e637947756172643a207265656e7472616e742063616c6c006044820152606490fd5b9081518201916020606082828601950312610d425780820151936001600160401b0394858111610d425783019080603f83011215610d42578282015195611a5287610eae565b92604097611a6289519586610cd0565b808552888686019160051b83010191848311610d425789879101915b838310611d9b575050505086850151908111610d425760609184611aa49287010161171b565b930151938151845103611d415794849560018060a01b039360248186600554168551928380926375243d4960e11b825260049d8e8301525afa908115611d37575f91611d1a575b5088811015611d075760028114908115611cfc575b5015611cb0575f5b8451811015611b3b578061110b87611b23611b369489610ef7565b5116611b2f838b610ef7565b5190611db3565b611b08565b50945094929150602481965f846005541684519384809263755e66db60e11b825289868301525afa918215611ca657611b9d9487915f94611c8b575b50600754169184519586948593849363bac4cd0760e01b85528401526024830190610d67565b03915afa908115611c81575f908192611c61575b5080611c51575b50505f5260028152825f209280518085848297549384815201905f52845f20925f5b86828210611c3b57505050611bf192500385610cd0565b5f5b8451811015611c345780611c0a611c2f9287610ef7565b515f90815260018086529084902001805460ff60a01b1916600160a01b179055610ea0565b611bf3565b5050509050565b855484526001958601958a955093019201611bda565b611c5a91611db3565b5f80611bb8565b9050611c7a9150853d8711610a8657610a768183610cd0565b905f611bb1565b85513d5f823e3d90fd5b611c9f91943d8091833e6109f68183610cd0565b925f611b77565b83513d5f823e3d90fd5b8760849184519162461bcd60e51b8352820152602160248201527f506f7374206d757374206265206163636570746564206f722072656a656374656044820152601960fa1b6064820152fd5b60039150145f611b00565b602189634e487b7160e01b5f525260245ffd5b611d319150823d8411610b2c57610b1e8183610cd0565b5f611aeb565b84513d5f823e3d90fd5b855162461bcd60e51b815260048101849052602d60248201527f41646472657373657320616e6420616d6f756e7473206d75737420626520746860448201526c0ca40e6c2daca40d8cadccee8d609b1b6064820152608490fd5b8190611da684610e37565b8152019101908690611a7e565b908015611e69575f80808084865af13d15611e64573d611dd281610cf1565b90611de06040519283610cd0565b81525f60203d92013e5b15611e2d57604080516001600160a01b03909316835260208301919091527f31dd4c1bc893bd53887b59c36c1a1b9f60960fa64c231ad0cd3603a1914bda3591a1565b60405162461bcd60e51b815260206004820152600f60248201526e151c985b9cd9995c8819985a5b1959608a1b6044820152606490fd5b611dea565b606460405162461bcd60e51b815260206004820152602060248201527f416d6f756e74206d7573742062652067726561746572207468616e207a65726f6044820152fd5b15611eb457565b60405162461bcd60e51b815260206004820152602260248201527f4f6e6c79206f776e65722063616e20706572666f726d2074686973206163746960448201526137b760f11b6064820152608490fdfea264697066735822122074e95d014c4c35d566ce172f1f0485fda8f192ffa7eb83eb77eb73622054667764736f6c63430008140033","opcodes":"PUSH1 0x80 CALLVALUE PUSH3 0xFC JUMPI PUSH1 0x1F PUSH3 0x2064 CODESIZE DUP2 SWAP1 SUB SWAP2 DUP3 ADD PUSH1 0x1F NOT AND DUP4 ADD SWAP2 PUSH1 0x1 PUSH1 0x1 PUSH1 0x40 SHL SUB DUP4 GT DUP5 DUP5 LT OR PUSH3 0x100 JUMPI DUP1 DUP5 SWAP3 PUSH1 0xC0 SWAP5 PUSH1 0x40 MSTORE DUP4 CODECOPY DUP2 ADD SUB SLT PUSH3 0xFC JUMPI PUSH3 0x4D DUP2 PUSH3 0x114 JUMP JUMPDEST SWAP1 PUSH3 0x5C PUSH1 0x20 DUP3 ADD PUSH3 0x114 JUMP JUMPDEST PUSH3 0x6A PUSH1 0x40 DUP4 ADD PUSH3 0x114 JUMP JUMPDEST SWAP1 PUSH3 0x79 PUSH1 0x60 DUP5 ADD PUSH3 0x114 JUMP JUMPDEST SWAP1 PUSH3 0x8D PUSH1 0xA0 PUSH1 0x80 DUP7 ADD MLOAD SWAP6 ADD PUSH3 0x114 JUMP JUMPDEST SWAP2 PUSH1 0x1 PUSH0 SSTORE PUSH1 0x1 DUP1 PUSH1 0xA0 SHL SUB DUP1 SWAP5 DUP2 DUP1 SWAP5 DUP2 PUSH1 0x1 DUP1 PUSH1 0xA0 SHL SUB NOT SWAP11 AND DUP11 PUSH1 0x4 SLOAD AND OR PUSH1 0x4 SSTORE AND DUP9 PUSH1 0x5 SLOAD AND OR PUSH1 0x5 SSTORE AND DUP7 PUSH1 0x6 SLOAD AND OR PUSH1 0x6 SSTORE AND DUP5 PUSH1 0x7 SLOAD AND OR PUSH1 0x7 SSTORE AND DUP3 PUSH1 0x8 SLOAD AND OR PUSH1 0x8 SSTORE PUSH1 0x9 SSTORE CALLER SWAP1 PUSH1 0xA SLOAD AND OR PUSH1 0xA SSTORE PUSH1 0x1 PUSH1 0x3 SSTORE PUSH1 0x40 MLOAD PUSH2 0x1F3A SWAP1 DUP2 PUSH3 0x12A DUP3 CODECOPY RETURN JUMPDEST PUSH0 DUP1 REVERT JUMPDEST PUSH4 0x4E487B71 PUSH1 0xE0 SHL PUSH0 MSTORE PUSH1 0x41 PUSH1 0x4 MSTORE PUSH1 0x24 PUSH0 REVERT JUMPDEST MLOAD SWAP1 PUSH1 0x1 PUSH1 0x1 PUSH1 0xA0 SHL SUB DUP3 AND DUP3 SUB PUSH3 0xFC JUMPI JUMP INVALID PUSH1 0xA0 PUSH1 0x40 DUP2 DUP2 MSTORE PUSH1 0x4 SWAP2 DUP3 CALLDATASIZE LT ISZERO PUSH2 0x15 JUMPI PUSH0 DUP1 REVERT JUMPDEST PUSH0 SWAP3 DUP4 CALLDATALOAD PUSH1 0xE0 SHR SWAP2 DUP3 PUSH4 0xEE1BD25 EQ PUSH2 0xC49 JUMPI POP DUP2 PUSH4 0x1E28B1C8 EQ PUSH2 0xC20 JUMPI DUP2 PUSH4 0x24C328F2 EQ PUSH2 0xBF7 JUMPI DUP2 PUSH4 0x2BF2F01A EQ PUSH2 0xBAA JUMPI DUP2 PUSH4 0x37B308AC EQ PUSH2 0xB33 JUMPI DUP2 PUSH4 0x3F28E9FB EQ PUSH2 0x63E JUMPI DUP2 PUSH4 0x40691DB4 EQ PUSH2 0x504 JUMPI DUP2 PUSH4 0x4585E33B EQ PUSH2 0x401 JUMPI DUP2 PUSH4 0x4C87E49B EQ PUSH2 0x3D8 JUMPI DUP2 PUSH4 0x4DB9E207 EQ PUSH2 0x394 JUMPI DUP2 PUSH4 0x69FE0E2D EQ PUSH2 0x365 JUMPI DUP2 PUSH4 0x8547CB8C EQ PUSH2 0x346 JUMPI DUP2 PUSH4 0x8DA5CB5B EQ PUSH2 0x31D JUMPI DUP2 PUSH4 0xA383135E EQ PUSH2 0x2D0 JUMPI DUP2 PUSH4 0xAC7F3D7B EQ PUSH2 0x283 JUMPI DUP2 PUSH4 0xB31926F4 EQ PUSH2 0x236 JUMPI DUP2 PUSH4 0xB9935AC3 EQ PUSH2 0x20E JUMPI DUP2 PUSH4 0xBAB488BE EQ PUSH2 0x1C1 JUMPI DUP2 PUSH4 0xC4BA65BB EQ PUSH2 0x178 JUMPI DUP2 PUSH4 0xDC2F8744 EQ PUSH2 0x12A JUMPI POP PUSH4 0xDDCA3F43 EQ PUSH2 0x109 JUMPI PUSH0 DUP1 REVERT JUMPDEST CALLVALUE PUSH2 0x126 JUMPI DUP2 PUSH1 0x3 NOT CALLDATASIZE ADD SLT PUSH2 0x126 JUMPI PUSH1 0x20 SWAP1 PUSH1 0x9 SLOAD SWAP1 MLOAD SWAP1 DUP2 MSTORE RETURN JUMPDEST POP DUP1 REVERT JUMPDEST SWAP1 POP CALLVALUE PUSH2 0x174 JUMPI PUSH1 0x20 CALLDATASIZE PUSH1 0x3 NOT ADD SLT PUSH2 0x174 JUMPI PUSH1 0x60 SWAP3 DUP3 SWAP2 CALLDATALOAD DUP2 MSTORE PUSH1 0x1 PUSH1 0x20 MSTORE KECCAK256 SWAP1 PUSH1 0xFF PUSH1 0x1 DUP4 SLOAD SWAP4 ADD SLOAD DUP3 MLOAD SWAP4 DUP5 MSTORE PUSH1 0x1 DUP1 PUSH1 0xA0 SHL SUB DUP2 AND PUSH1 0x20 DUP6 ADD MSTORE PUSH1 0xA0 SHR AND ISZERO ISZERO SWAP1 DUP3 ADD MSTORE RETURN JUMPDEST DUP3 DUP1 REVERT JUMPDEST DUP3 DUP5 CALLVALUE PUSH2 0x1BE JUMPI DUP2 PUSH1 0x3 NOT CALLDATASIZE ADD SLT PUSH2 0x1BE JUMPI PUSH1 0x24 CALLDATALOAD SWAP3 CALLDATALOAD DUP2 MSTORE PUSH1 0x2 PUSH1 0x20 MSTORE DUP2 DUP2 KECCAK256 SWAP1 DUP2 SLOAD DUP5 LT ISZERO PUSH2 0x1BE JUMPI POP PUSH1 0x20 SWAP3 PUSH2 0x1B0 SWAP2 PUSH2 0xD8C JUMP JUMPDEST SWAP2 SWAP1 SLOAD SWAP1 MLOAD SWAP2 PUSH1 0x3 SHL SHR DUP2 MSTORE RETURN JUMPDEST DUP1 REVERT JUMPDEST DUP4 SWAP1 CALLVALUE PUSH2 0x126 JUMPI PUSH1 0x20 CALLDATASIZE PUSH1 0x3 NOT ADD SLT PUSH2 0x126 JUMPI CALLDATALOAD PUSH1 0x1 PUSH1 0x1 PUSH1 0xA0 SHL SUB DUP2 DUP2 AND SWAP2 DUP3 SWAP1 SUB PUSH2 0x174 JUMPI PUSH2 0x1F7 SWAP1 PUSH1 0xA SLOAD AND CALLER EQ PUSH2 0x1EAD JUMP JUMPDEST PUSH1 0x5 DUP1 SLOAD PUSH1 0x1 PUSH1 0x1 PUSH1 0xA0 SHL SUB NOT AND SWAP2 SWAP1 SWAP2 OR SWAP1 SSTORE DUP1 RETURN JUMPDEST SWAP1 POP CALLVALUE PUSH2 0x174 JUMPI DUP3 PUSH1 0x3 NOT CALLDATASIZE ADD SLT PUSH2 0x174 JUMPI SLOAD SWAP1 MLOAD PUSH1 0x1 PUSH1 0x1 PUSH1 0xA0 SHL SUB SWAP1 SWAP2 AND DUP2 MSTORE PUSH1 0x20 SWAP2 POP RETURN JUMPDEST DUP4 SWAP1 CALLVALUE PUSH2 0x126 JUMPI PUSH1 0x20 CALLDATASIZE PUSH1 0x3 NOT ADD SLT PUSH2 0x126 JUMPI CALLDATALOAD PUSH1 0x1 PUSH1 0x1 PUSH1 0xA0 SHL SUB DUP2 DUP2 AND SWAP2 DUP3 SWAP1 SUB PUSH2 0x174 JUMPI PUSH2 0x26C SWAP1 PUSH1 0xA SLOAD AND CALLER EQ PUSH2 0x1EAD JUMP JUMPDEST PUSH1 0x6 DUP1 SLOAD PUSH1 0x1 PUSH1 0x1 PUSH1 0xA0 SHL SUB NOT AND SWAP2 SWAP1 SWAP2 OR SWAP1 SSTORE DUP1 RETURN JUMPDEST DUP4 SWAP1 CALLVALUE PUSH2 0x126 JUMPI PUSH1 0x20 CALLDATASIZE PUSH1 0x3 NOT ADD SLT PUSH2 0x126 JUMPI CALLDATALOAD PUSH1 0x1 PUSH1 0x1 PUSH1 0xA0 SHL SUB DUP2 DUP2 AND SWAP2 DUP3 SWAP1 SUB PUSH2 0x174 JUMPI PUSH2 0x2B9 SWAP1 PUSH1 0xA SLOAD AND CALLER EQ PUSH2 0x1EAD JUMP JUMPDEST PUSH1 0x8 DUP1 SLOAD PUSH1 0x1 PUSH1 0x1 PUSH1 0xA0 SHL SUB NOT AND SWAP2 SWAP1 SWAP2 OR SWAP1 SSTORE DUP1 RETURN JUMPDEST DUP4 SWAP1 CALLVALUE PUSH2 0x126 JUMPI PUSH1 0x20 CALLDATASIZE PUSH1 0x3 NOT ADD SLT PUSH2 0x126 JUMPI DUP1 CALLDATALOAD PUSH1 0x1 PUSH1 0x1 PUSH1 0xA0 SHL SUB DUP2 DUP2 AND SWAP2 DUP3 SWAP1 SUB PUSH2 0x319 JUMPI PUSH2 0x307 SWAP1 PUSH1 0xA SLOAD AND CALLER EQ PUSH2 0x1EAD JUMP JUMPDEST DUP2 SLOAD PUSH1 0x1 PUSH1 0x1 PUSH1 0xA0 SHL SUB NOT AND OR SWAP1 SSTORE DUP1 RETURN JUMPDEST DUP4 DUP1 REVERT JUMPDEST POP POP CALLVALUE PUSH2 0x126 JUMPI DUP2 PUSH1 0x3 NOT CALLDATASIZE ADD SLT PUSH2 0x126 JUMPI PUSH1 0xA SLOAD SWAP1 MLOAD PUSH1 0x1 PUSH1 0x1 PUSH1 0xA0 SHL SUB SWAP1 SWAP2 AND DUP2 MSTORE PUSH1 0x20 SWAP1 RETURN JUMPDEST POP POP CALLVALUE PUSH2 0x126 JUMPI DUP2 PUSH1 0x3 NOT CALLDATASIZE ADD SLT PUSH2 0x126 JUMPI PUSH1 0x20 SWAP1 PUSH1 0x3 SLOAD SWAP1 MLOAD SWAP1 DUP2 MSTORE RETURN JUMPDEST DUP4 SWAP1 CALLVALUE PUSH2 0x126 JUMPI PUSH1 0x20 CALLDATASIZE PUSH1 0x3 NOT ADD SLT PUSH2 0x126 JUMPI PUSH2 0x38D PUSH1 0x1 DUP1 PUSH1 0xA0 SHL SUB PUSH1 0xA SLOAD AND CALLER EQ PUSH2 0x1EAD JUMP JUMPDEST CALLDATALOAD PUSH1 0x9 SSTORE DUP1 RETURN JUMPDEST DUP4 SWAP1 CALLVALUE PUSH2 0x126 JUMPI PUSH1 0x20 CALLDATASIZE PUSH1 0x3 NOT ADD SLT PUSH2 0x126 JUMPI PUSH2 0x3B9 SWAP1 PUSH2 0x3B3 PUSH2 0x19B8 JUMP JUMPDEST CALLDATALOAD PUSH2 0xF68 JUMP JUMPDEST PUSH1 0x80 MLOAD PUSH2 0x3C9 JUMPI JUMPDEST POP PUSH1 0x1 DUP2 SSTORE DUP1 RETURN JUMPDEST PUSH2 0x3D2 SWAP1 PUSH2 0x1A0C JUMP JUMPDEST DUP2 PUSH2 0x3C1 JUMP JUMPDEST POP POP CALLVALUE PUSH2 0x126 JUMPI DUP2 PUSH1 0x3 NOT CALLDATASIZE ADD SLT PUSH2 0x126 JUMPI PUSH1 0x5 SLOAD SWAP1 MLOAD PUSH1 0x1 PUSH1 0x1 PUSH1 0xA0 SHL SUB SWAP1 SWAP2 AND DUP2 MSTORE PUSH1 0x20 SWAP1 RETURN JUMPDEST SWAP2 SWAP1 POP CALLVALUE PUSH2 0x174 JUMPI PUSH1 0x20 CALLDATASIZE PUSH1 0x3 NOT ADD SLT PUSH2 0x174 JUMPI DUP2 CALLDATALOAD SWAP2 PUSH1 0x1 PUSH1 0x1 PUSH1 0x40 SHL SUB SWAP2 DUP3 DUP5 GT PUSH2 0x500 JUMPI CALLDATASIZE PUSH1 0x23 DUP6 ADD SLT ISZERO PUSH2 0x500 JUMPI DUP4 DUP3 ADD CALLDATALOAD SWAP3 DUP4 GT PUSH2 0x500 JUMPI CALLDATASIZE PUSH1 0x24 DUP5 DUP7 ADD ADD GT PUSH2 0x500 JUMPI PUSH1 0xA SLOAD CALLER PUSH1 0x1 PUSH1 0x1 PUSH1 0xA0 SHL SUB SWAP2 DUP3 AND EQ SWAP1 DUP2 ISZERO PUSH2 0x4F2 JUMPI JUMPDEST POP ISZERO PUSH2 0x48F JUMPI DUP5 PUSH2 0x488 PUSH2 0x483 DUP7 DUP7 PUSH2 0x479 PUSH2 0x19B8 JUMP JUMPDEST PUSH1 0x24 CALLDATASIZE SWAP3 ADD PUSH2 0xD0C JUMP JUMPDEST PUSH2 0x1A0C JUMP JUMPDEST PUSH1 0x1 DUP2 SSTORE DUP1 RETURN JUMPDEST SWAP1 PUSH1 0x20 PUSH1 0x84 SWAP3 MLOAD SWAP2 PUSH3 0x461BCD PUSH1 0xE5 SHL DUP4 MSTORE DUP3 ADD MSTORE PUSH1 0x37 PUSH1 0x24 DUP3 ADD MSTORE PUSH32 0x4E6F742074686520636F6E7472616374206F776E6572206F72204175746F6D61 PUSH1 0x44 DUP3 ADD MSTORE PUSH23 0x1D1A5BDB88119BDC9DD85C99195C8810DBDB9D1C9858DD PUSH1 0x4A SHL PUSH1 0x64 DUP3 ADD MSTORE REVERT JUMPDEST SWAP1 POP PUSH1 0x8 SLOAD AND CALLER EQ PUSH0 PUSH2 0x462 JUMP JUMPDEST DUP5 DUP1 REVERT JUMPDEST SWAP1 POP DUP3 CALLVALUE PUSH2 0x1BE JUMPI PUSH1 0x3 NOT SWAP2 DUP4 DUP4 CALLDATASIZE ADD SLT PUSH2 0x126 JUMPI DUP1 CALLDATALOAD SWAP2 PUSH1 0x1 PUSH1 0x1 PUSH1 0x40 SHL SUB DUP1 DUP5 GT PUSH2 0x126 JUMPI PUSH2 0x100 DUP5 CALLDATASIZE SUB SWAP6 DUP7 ADD SLT PUSH2 0x126 JUMPI PUSH1 0x24 SWAP3 DUP4 CALLDATALOAD DUP3 DUP2 GT PUSH2 0x319 JUMPI CALLDATASIZE PUSH1 0x23 DUP3 ADD SLT ISZERO PUSH2 0x319 JUMPI PUSH2 0x562 SWAP1 CALLDATASIZE SWAP1 DUP7 DUP2 DUP6 ADD CALLDATALOAD SWAP2 ADD PUSH2 0xD0C JUMP JUMPDEST POP DUP3 SWAP6 PUSH1 0x60 SWAP6 PUSH1 0xC4 DUP2 ADD CALLDATALOAD SWAP2 PUSH1 0x22 NOT ADD DUP3 SLT ISZERO PUSH2 0x500 JUMPI ADD SWAP2 DUP2 DUP4 ADD CALLDATALOAD SWAP1 DUP2 GT PUSH2 0x319 JUMPI DUP1 PUSH1 0x5 SHL CALLDATASIZE SUB DUP6 DUP5 ADD SGT PUSH2 0x319 JUMPI PUSH1 0x1 LT ISZERO PUSH2 0x62D JUMPI POP SWAP1 DUP1 DUP1 PUSH1 0x44 DUP9 SWAP5 ADD CALLDATALOAD SWAP5 DUP6 DUP3 MSTORE PUSH1 0x2 PUSH1 0x20 MSTORE DUP5 DUP3 KECCAK256 SLOAD SWAP1 DUP6 MLOAD SWAP1 PUSH1 0x20 DUP3 ADD SWAP3 PUSH4 0xF82C50F1 PUSH1 0xE0 SHL DUP5 MSTORE DUP2 DUP4 ADD MSTORE DUP2 MSTORE PUSH2 0x5D5 DUP2 PUSH2 0xCA1 JUMP JUMPDEST MLOAD SWAP1 PUSH11 0x636F6E736F6C652E6C6F67 GAS STATICCALL POP DUP3 DUP2 MSTORE PUSH1 0x2 PUSH1 0x20 MSTORE KECCAK256 SLOAD PUSH2 0x615 JUMPI JUMPDEST POP PUSH2 0x611 SWAP1 DUP4 MLOAD SWAP4 DUP5 SWAP4 ISZERO ISZERO DUP5 MSTORE DUP1 PUSH1 0x20 DUP6 ADD MSTORE DUP4 ADD SWAP1 PUSH2 0xD67 JUMP JUMPDEST SUB SWAP1 RETURN JUMPDEST SWAP1 POP PUSH2 0x621 SWAP2 POP PUSH2 0xF68 JUMP JUMPDEST PUSH1 0x80 MLOAD SWAP1 PUSH2 0x611 PUSH2 0x5F5 JUMP JUMPDEST PUSH4 0x4E487B71 PUSH1 0xE0 SHL DUP4 MSTORE PUSH1 0x32 SWAP1 MSTORE POP REVERT JUMPDEST DUP4 DUP4 PUSH1 0x20 SWAP3 DUP4 PUSH1 0x3 NOT CALLDATASIZE ADD SLT PUSH2 0x174 JUMPI PUSH1 0x5 SLOAD DUP3 MLOAD PUSH4 0x75243D49 PUSH1 0xE1 SHL DUP2 MSTORE DUP3 CALLDATALOAD DUP2 DUP5 ADD DUP2 SWAP1 MSTORE SWAP5 PUSH1 0x24 SWAP4 SWAP1 SWAP3 SWAP1 SWAP2 PUSH1 0x1 PUSH1 0x1 PUSH1 0xA0 SHL SUB SWAP2 DUP3 AND SWAP1 DUP9 DUP2 DUP8 DUP2 DUP6 GAS STATICCALL SWAP1 DUP2 ISZERO PUSH2 0x9D7 JUMPI DUP6 SWAP2 PUSH2 0xB06 JUMPI JUMPDEST POP DUP4 DUP2 LT ISZERO PUSH2 0xAF3 JUMPI PUSH1 0x1 SUB PUSH2 0xAB1 JUMPI DUP2 PUSH1 0x7 SLOAD AND DUP7 MLOAD PUSH4 0x755E66DB PUSH1 0xE1 SHL SWAP1 DUP2 DUP2 MSTORE DUP10 DUP7 DUP3 ADD MSTORE DUP7 DUP2 DUP10 DUP2 DUP8 GAS STATICCALL SWAP1 DUP2 ISZERO PUSH2 0xA8D JUMPI PUSH2 0x6F4 SWAP5 SWAP4 SWAP3 SWAP2 DUP11 SWAP2 DUP10 SWAP2 PUSH2 0xA97 JUMPI JUMPDEST POP DUP13 DUP3 MLOAD SWAP7 DUP8 SWAP3 DUP4 SWAP3 PUSH4 0xBAC4CD07 PUSH1 0xE0 SHL DUP5 MSTORE DUP12 DUP5 ADD MSTORE DUP13 DUP4 ADD SWAP1 PUSH2 0xD67 JUMP JUMPDEST SUB DUP2 DUP6 GAS STATICCALL SWAP4 DUP5 ISZERO PUSH2 0xA8D JUMPI DUP8 SWAP5 PUSH2 0xA5D JUMPI JUMPDEST POP PUSH2 0x715 PUSH1 0x9 SLOAD SWAP5 DUP6 PUSH2 0xE65 JUMP JUMPDEST CALLVALUE GT ISZERO PUSH2 0xA0F JUMPI DUP7 SWAP1 DUP9 DUP11 MLOAD DUP1 SWAP6 DUP2 SWAP4 DUP3 MSTORE DUP14 DUP11 DUP4 ADD MSTORE GAS STATICCALL SWAP2 DUP3 ISZERO PUSH2 0xA05 JUMPI SWAP2 DUP11 SWAP2 PUSH2 0x763 SWAP4 DUP9 SWAP3 PUSH2 0x9E1 JUMPI JUMPDEST POP DUP10 MLOAD DUP1 DUP1 SWAP6 DUP2 SWAP5 PUSH4 0xCC271AA3 PUSH1 0xE0 SHL DUP4 MSTORE DUP7 DUP12 DUP5 ADD MSTORE DUP13 DUP4 ADD SWAP1 PUSH2 0xD67 JUMP JUMPDEST SUB SWAP2 GAS STATICCALL SWAP1 DUP2 ISZERO PUSH2 0x9D7 JUMPI DUP6 SWAP2 PUSH2 0x9A2 JUMPI JUMPDEST POP ISZERO PUSH2 0x94D JUMPI DUP8 DUP3 DUP5 SLOAD AND DUP7 DUP9 MLOAD DUP1 SWAP5 DUP2 SWAP4 PUSH4 0x3DE5599D PUSH1 0xE1 SHL DUP4 MSTORE ADDRESS DUP10 DUP5 ADD MSTORE GAS CALL SWAP1 DUP2 ISZERO PUSH2 0x943 JUMPI DUP5 SWAP2 PUSH2 0x90E JUMPI JUMPDEST POP ISZERO PUSH2 0x8D4 JUMPI PUSH2 0x7B8 PUSH1 0x9 SLOAD CALLVALUE PUSH2 0xE93 JUMP JUMPDEST DUP6 MLOAD SWAP1 PUSH2 0x7C4 DUP3 PUSH2 0xCA1 JUMP JUMPDEST DUP2 MSTORE DUP8 DUP2 ADD SWAP2 CALLER DUP4 MSTORE PUSH1 0x1 DUP8 DUP4 ADD SWAP3 DUP7 DUP5 MSTORE PUSH1 0x3 SLOAD DUP8 MSTORE DUP2 DUP12 MSTORE DUP9 DUP8 KECCAK256 SWAP1 MLOAD DUP2 SSTORE ADD SWAP3 MLOAD AND DUP3 SLOAD SWAP2 PUSH1 0xFF PUSH1 0xA0 SHL SWAP1 MLOAD ISZERO ISZERO PUSH1 0xA0 SHL AND SWAP2 PUSH1 0x1 DUP1 PUSH1 0xA8 SHL SUB NOT AND OR OR SWAP1 SSTORE DUP5 DUP3 MSTORE PUSH1 0x2 DUP7 MSTORE DUP4 DUP3 KECCAK256 SWAP5 PUSH1 0x3 SLOAD SWAP6 DUP1 SLOAD SWAP1 PUSH1 0x1 PUSH1 0x40 SHL DUP3 LT ISZERO PUSH2 0x8C1 JUMPI DUP2 PUSH2 0x839 SWAP2 PUSH1 0x1 PUSH2 0x89A SWAP6 SWAP5 ADD DUP2 SSTORE PUSH2 0xD8C JUMP JUMPDEST DUP2 SLOAD SWAP1 PUSH1 0x3 SHL SWAP1 PUSH0 NOT DUP1 SWAP11 DUP4 SHL SWAP3 SHL NOT AND OR SWAP1 SSTORE PUSH32 0x555A6EC1BCAB187D5C03BCC543A554016E038BF7FB4313E551F96C155889418D PUSH1 0x80 PUSH1 0x3 SLOAD SWAP3 PUSH2 0x880 PUSH1 0x9 SLOAD CALLVALUE PUSH2 0xE93 JUMP JUMPDEST DUP10 MLOAD SWAP2 DUP6 DUP4 MSTORE DUP13 DUP4 ADD MSTORE CALLER DUP11 DUP4 ADD MSTORE PUSH1 0x60 DUP3 ADD MSTORE LOG1 PUSH2 0xEA0 JUMP JUMPDEST SWAP5 DUP6 PUSH1 0x3 SSTORE DUP6 ADD SWAP5 DUP6 GT PUSH2 0x8B1 JUMPI POP POP POP MLOAD SWAP1 DUP2 MSTORE RETURN JUMPDEST PUSH4 0x4E487B71 PUSH1 0xE0 SHL DUP3 MSTORE PUSH1 0x11 SWAP1 MSTORE REVERT JUMPDEST POP POP PUSH4 0x4E487B71 PUSH1 0xE0 SHL DUP4 MSTORE POP PUSH1 0x41 SWAP1 MSTORE REVERT JUMPDEST DUP5 MLOAD PUSH3 0x461BCD PUSH1 0xE5 SHL DUP2 MSTORE DUP1 DUP4 ADD DUP9 SWAP1 MSTORE PUSH1 0x15 DUP2 DUP7 ADD MSTORE PUSH21 0x155C1AD9595C08199D5B991A5B99C819985A5B1959 PUSH1 0x5A SHL PUSH1 0x44 DUP3 ADD MSTORE PUSH1 0x64 SWAP1 REVERT JUMPDEST SWAP1 POP DUP8 DUP2 DUP2 RETURNDATASIZE DUP4 GT PUSH2 0x93C JUMPI JUMPDEST PUSH2 0x925 DUP2 DUP4 PUSH2 0xCD0 JUMP JUMPDEST DUP2 ADD SUB SLT PUSH2 0x319 JUMPI PUSH2 0x936 SWAP1 PUSH2 0xE86 JUMP JUMPDEST DUP9 PUSH2 0x7A6 JUMP JUMPDEST POP RETURNDATASIZE PUSH2 0x91B JUMP JUMPDEST DUP7 MLOAD RETURNDATASIZE DUP7 DUP3 RETURNDATACOPY RETURNDATASIZE SWAP1 REVERT JUMPDEST DUP6 MLOAD PUSH3 0x461BCD PUSH1 0xE5 SHL DUP2 MSTORE DUP1 DUP5 ADD DUP10 SWAP1 MSTORE PUSH1 0x2A DUP2 DUP8 ADD MSTORE PUSH32 0x436F6D6D756E697479206D757374206861766520616E20696E63656E74697665 PUSH1 0x44 DUP3 ADD MSTORE PUSH10 0x20737472756374757265 PUSH1 0xB0 SHL PUSH1 0x64 DUP3 ADD MSTORE PUSH1 0x84 SWAP1 REVERT JUMPDEST SWAP1 POP DUP9 DUP2 DUP2 RETURNDATASIZE DUP4 GT PUSH2 0x9D0 JUMPI JUMPDEST PUSH2 0x9B9 DUP2 DUP4 PUSH2 0xCD0 JUMP JUMPDEST DUP2 ADD SUB SLT PUSH2 0x500 JUMPI PUSH2 0x9CA SWAP1 PUSH2 0xE86 JUMP JUMPDEST DUP10 PUSH2 0x775 JUMP JUMPDEST POP RETURNDATASIZE PUSH2 0x9AF JUMP JUMPDEST DUP8 MLOAD RETURNDATASIZE DUP8 DUP3 RETURNDATACOPY RETURNDATASIZE SWAP1 REVERT JUMPDEST PUSH2 0x9FE SWAP2 SWAP3 POP RETURNDATASIZE DUP1 DUP11 DUP4 RETURNDATACOPY PUSH2 0x9F6 DUP2 DUP4 PUSH2 0xCD0 JUMP JUMPDEST DUP2 ADD SWAP1 PUSH2 0xE12 JUMP JUMPDEST SWAP1 DUP13 PUSH2 0x743 JUMP JUMPDEST DUP9 MLOAD RETURNDATASIZE DUP9 DUP3 RETURNDATACOPY RETURNDATASIZE SWAP1 REVERT JUMPDEST DUP9 MLOAD PUSH3 0x461BCD PUSH1 0xE5 SHL DUP2 MSTORE DUP1 DUP8 ADD DUP13 SWAP1 MSTORE PUSH1 0x23 DUP2 DUP11 ADD MSTORE PUSH32 0x466565206D757374206265207061696420746F20637265617465206120626F75 PUSH1 0x44 DUP3 ADD MSTORE PUSH3 0x6E7479 PUSH1 0xE8 SHL PUSH1 0x64 DUP3 ADD MSTORE PUSH1 0x84 SWAP1 REVERT JUMPDEST PUSH2 0xA7E SWAP2 SWAP5 POP DUP10 RETURNDATASIZE DUP12 GT PUSH2 0xA86 JUMPI JUMPDEST PUSH2 0xA76 DUP2 DUP4 PUSH2 0xCD0 JUMP JUMPDEST DUP2 ADD SWAP1 PUSH2 0xE4B JUMP JUMPDEST POP SWAP3 DUP12 PUSH2 0x707 JUMP JUMPDEST POP RETURNDATASIZE PUSH2 0xA6C JUMP JUMPDEST DUP10 MLOAD RETURNDATASIZE DUP10 DUP3 RETURNDATACOPY RETURNDATASIZE SWAP1 REVERT JUMPDEST PUSH2 0xAAB SWAP2 POP RETURNDATASIZE DUP1 DUP12 DUP4 RETURNDATACOPY PUSH2 0x9F6 DUP2 DUP4 PUSH2 0xCD0 JUMP JUMPDEST DUP14 PUSH2 0x6D4 JUMP JUMPDEST DUP6 MLOAD PUSH3 0x461BCD PUSH1 0xE5 SHL DUP2 MSTORE DUP1 DUP5 ADD DUP10 SWAP1 MSTORE PUSH1 0x1E DUP2 DUP8 ADD MSTORE PUSH32 0x506F7374206D7573742062652070656E64696E6720636F6E73656E7375730000 PUSH1 0x44 DUP3 ADD MSTORE PUSH1 0x64 SWAP1 REVERT JUMPDEST POP POP PUSH4 0x4E487B71 PUSH1 0xE0 SHL DUP4 MSTORE POP PUSH1 0x21 SWAP1 MSTORE REVERT JUMPDEST PUSH2 0xB26 SWAP2 POP DUP10 RETURNDATASIZE DUP12 GT PUSH2 0xB2C JUMPI JUMPDEST PUSH2 0xB1E DUP2 DUP4 PUSH2 0xCD0 JUMP JUMPDEST DUP2 ADD SWAP1 PUSH2 0xDB5 JUMP JUMPDEST DUP10 PUSH2 0x68E JUMP JUMPDEST POP RETURNDATASIZE PUSH2 0xB14 JUMP JUMPDEST SWAP2 SWAP1 POP CALLVALUE PUSH2 0x174 JUMPI PUSH1 0x20 SWAP2 DUP3 PUSH1 0x3 NOT CALLDATASIZE ADD SLT PUSH2 0x319 JUMPI CALLDATALOAD DUP4 MSTORE PUSH1 0x2 DUP3 MSTORE DUP1 DUP4 KECCAK256 DUP2 MLOAD SWAP1 DUP2 SWAP5 DUP6 SWAP3 DUP6 DUP4 SLOAD SWAP2 DUP3 DUP2 MSTORE ADD SWAP3 DUP3 MSTORE DUP6 DUP3 KECCAK256 SWAP2 JUMPDEST DUP7 DUP3 DUP3 LT PUSH2 0xB93 JUMPI DUP6 SWAP1 PUSH2 0x611 DUP9 PUSH2 0xB84 DUP5 DUP10 SUB DUP6 PUSH2 0xCD0 JUMP JUMPDEST MLOAD SWAP3 DUP3 DUP5 SWAP4 DUP5 MSTORE DUP4 ADD SWAP1 PUSH2 0xC6E JUMP JUMPDEST DUP4 SLOAD DUP6 MSTORE DUP9 SWAP6 POP SWAP1 SWAP4 ADD SWAP3 PUSH1 0x1 SWAP3 DUP4 ADD SWAP3 ADD PUSH2 0xB6A JUMP JUMPDEST DUP4 SWAP1 CALLVALUE PUSH2 0x126 JUMPI PUSH1 0x20 CALLDATASIZE PUSH1 0x3 NOT ADD SLT PUSH2 0x126 JUMPI CALLDATALOAD PUSH1 0x1 PUSH1 0x1 PUSH1 0xA0 SHL SUB DUP2 DUP2 AND SWAP2 DUP3 SWAP1 SUB PUSH2 0x174 JUMPI PUSH2 0xBE0 SWAP1 PUSH1 0xA SLOAD AND CALLER EQ PUSH2 0x1EAD JUMP JUMPDEST PUSH1 0x7 DUP1 SLOAD PUSH1 0x1 PUSH1 0x1 PUSH1 0xA0 SHL SUB NOT AND SWAP2 SWAP1 SWAP2 OR SWAP1 SSTORE DUP1 RETURN JUMPDEST POP POP CALLVALUE PUSH2 0x126 JUMPI DUP2 PUSH1 0x3 NOT CALLDATASIZE ADD SLT PUSH2 0x126 JUMPI PUSH1 0x8 SLOAD SWAP1 MLOAD PUSH1 0x1 PUSH1 0x1 PUSH1 0xA0 SHL SUB SWAP1 SWAP2 AND DUP2 MSTORE PUSH1 0x20 SWAP1 RETURN JUMPDEST POP POP CALLVALUE PUSH2 0x126 JUMPI DUP2 PUSH1 0x3 NOT CALLDATASIZE ADD SLT PUSH2 0x126 JUMPI PUSH1 0x7 SLOAD SWAP1 MLOAD PUSH1 0x1 PUSH1 0x1 PUSH1 0xA0 SHL SUB SWAP1 SWAP2 AND DUP2 MSTORE PUSH1 0x20 SWAP1 RETURN JUMPDEST DUP5 SWAP1 CALLVALUE PUSH2 0x126 JUMPI DUP2 PUSH1 0x3 NOT CALLDATASIZE ADD SLT PUSH2 0x126 JUMPI PUSH1 0x6 SLOAD PUSH1 0x1 PUSH1 0x1 PUSH1 0xA0 SHL SUB AND DUP2 MSTORE PUSH1 0x20 SWAP1 RETURN JUMPDEST SWAP1 DUP2 MLOAD DUP1 DUP3 MSTORE PUSH1 0x20 DUP1 DUP1 SWAP4 ADD SWAP4 ADD SWAP2 PUSH0 JUMPDEST DUP3 DUP2 LT PUSH2 0xC8D JUMPI POP POP POP POP SWAP1 JUMP JUMPDEST DUP4 MLOAD DUP6 MSTORE SWAP4 DUP2 ADD SWAP4 SWAP3 DUP2 ADD SWAP3 PUSH1 0x1 ADD PUSH2 0xC7F JUMP JUMPDEST PUSH1 0x60 DUP2 ADD SWAP1 DUP2 LT PUSH1 0x1 PUSH1 0x1 PUSH1 0x40 SHL SUB DUP3 GT OR PUSH2 0xCBC JUMPI PUSH1 0x40 MSTORE JUMP JUMPDEST PUSH4 0x4E487B71 PUSH1 0xE0 SHL PUSH0 MSTORE PUSH1 0x41 PUSH1 0x4 MSTORE PUSH1 0x24 PUSH0 REVERT JUMPDEST SWAP1 PUSH1 0x1F DUP1 NOT SWAP2 ADD AND DUP2 ADD SWAP1 DUP2 LT PUSH1 0x1 PUSH1 0x1 PUSH1 0x40 SHL SUB DUP3 GT OR PUSH2 0xCBC JUMPI PUSH1 0x40 MSTORE JUMP JUMPDEST PUSH1 0x1 PUSH1 0x1 PUSH1 0x40 SHL SUB DUP2 GT PUSH2 0xCBC JUMPI PUSH1 0x1F ADD PUSH1 0x1F NOT AND PUSH1 0x20 ADD SWAP1 JUMP JUMPDEST SWAP3 SWAP2 SWAP3 PUSH2 0xD18 DUP3 PUSH2 0xCF1 JUMP JUMPDEST SWAP2 PUSH2 0xD26 PUSH1 0x40 MLOAD SWAP4 DUP5 PUSH2 0xCD0 JUMP JUMPDEST DUP3 SWAP5 DUP2 DUP5 MSTORE DUP2 DUP4 ADD GT PUSH2 0xD42 JUMPI DUP3 DUP2 PUSH1 0x20 SWAP4 DUP5 PUSH0 SWAP7 ADD CALLDATACOPY ADD ADD MSTORE JUMP JUMPDEST PUSH0 DUP1 REVERT JUMPDEST PUSH0 JUMPDEST DUP4 DUP2 LT PUSH2 0xD57 JUMPI POP POP PUSH0 SWAP2 ADD MSTORE JUMP JUMPDEST DUP2 DUP2 ADD MLOAD DUP4 DUP3 ADD MSTORE PUSH1 0x20 ADD PUSH2 0xD48 JUMP JUMPDEST SWAP1 PUSH1 0x20 SWAP2 PUSH2 0xD80 DUP2 MLOAD DUP1 SWAP3 DUP2 DUP6 MSTORE DUP6 DUP1 DUP7 ADD SWAP2 ADD PUSH2 0xD46 JUMP JUMPDEST PUSH1 0x1F ADD PUSH1 0x1F NOT AND ADD ADD SWAP1 JUMP JUMPDEST DUP1 SLOAD DUP3 LT ISZERO PUSH2 0xDA1 JUMPI PUSH0 MSTORE PUSH1 0x20 PUSH0 KECCAK256 ADD SWAP1 PUSH0 SWAP1 JUMP JUMPDEST PUSH4 0x4E487B71 PUSH1 0xE0 SHL PUSH0 MSTORE PUSH1 0x32 PUSH1 0x4 MSTORE PUSH1 0x24 PUSH0 REVERT JUMPDEST SWAP1 DUP2 PUSH1 0x20 SWAP2 SUB SLT PUSH2 0xD42 JUMPI MLOAD PUSH1 0x4 DUP2 LT ISZERO PUSH2 0xD42 JUMPI SWAP1 JUMP JUMPDEST DUP2 PUSH1 0x1F DUP3 ADD SLT ISZERO PUSH2 0xD42 JUMPI DUP1 MLOAD PUSH2 0xDE3 DUP2 PUSH2 0xCF1 JUMP JUMPDEST SWAP3 PUSH2 0xDF1 PUSH1 0x40 MLOAD SWAP5 DUP6 PUSH2 0xCD0 JUMP JUMPDEST DUP2 DUP5 MSTORE PUSH1 0x20 DUP3 DUP5 ADD ADD GT PUSH2 0xD42 JUMPI PUSH2 0xE0F SWAP2 PUSH1 0x20 DUP1 DUP6 ADD SWAP2 ADD PUSH2 0xD46 JUMP JUMPDEST SWAP1 JUMP JUMPDEST SWAP1 PUSH1 0x20 DUP3 DUP3 SUB SLT PUSH2 0xD42 JUMPI DUP2 MLOAD PUSH1 0x1 PUSH1 0x1 PUSH1 0x40 SHL SUB DUP2 GT PUSH2 0xD42 JUMPI PUSH2 0xE0F SWAP3 ADD PUSH2 0xDCD JUMP JUMPDEST MLOAD SWAP1 PUSH1 0x1 PUSH1 0x1 PUSH1 0xA0 SHL SUB DUP3 AND DUP3 SUB PUSH2 0xD42 JUMPI JUMP JUMPDEST SWAP2 SWAP1 DUP3 PUSH1 0x40 SWAP2 SUB SLT PUSH2 0xD42 JUMPI PUSH2 0xE0F PUSH1 0x20 DUP4 MLOAD SWAP4 ADD PUSH2 0xE37 JUMP JUMPDEST SWAP2 SWAP1 DUP3 ADD DUP1 SWAP3 GT PUSH2 0xE72 JUMPI JUMP JUMPDEST PUSH4 0x4E487B71 PUSH1 0xE0 SHL PUSH0 MSTORE PUSH1 0x11 PUSH1 0x4 MSTORE PUSH1 0x24 PUSH0 REVERT JUMPDEST MLOAD SWAP1 DUP2 ISZERO ISZERO DUP3 SUB PUSH2 0xD42 JUMPI JUMP JUMPDEST SWAP2 SWAP1 DUP3 SUB SWAP2 DUP3 GT PUSH2 0xE72 JUMPI JUMP JUMPDEST PUSH0 NOT DUP2 EQ PUSH2 0xE72 JUMPI PUSH1 0x1 ADD SWAP1 JUMP JUMPDEST PUSH1 0x1 PUSH1 0x1 PUSH1 0x40 SHL SUB DUP2 GT PUSH2 0xCBC JUMPI PUSH1 0x5 SHL PUSH1 0x20 ADD SWAP1 JUMP JUMPDEST SWAP1 PUSH2 0xECF DUP3 PUSH2 0xEAE JUMP JUMPDEST PUSH2 0xEDC PUSH1 0x40 MLOAD SWAP2 DUP3 PUSH2 0xCD0 JUMP JUMPDEST DUP3 DUP2 MSTORE DUP1 SWAP3 PUSH2 0xEED PUSH1 0x1F NOT SWAP2 PUSH2 0xEAE JUMP JUMPDEST ADD SWAP1 PUSH1 0x20 CALLDATASIZE SWAP2 ADD CALLDATACOPY JUMP JUMPDEST DUP1 MLOAD DUP3 LT ISZERO PUSH2 0xDA1 JUMPI PUSH1 0x20 SWAP2 PUSH1 0x5 SHL ADD ADD SWAP1 JUMP JUMPDEST SWAP4 SWAP3 SWAP2 PUSH1 0x60 DUP6 ADD SWAP2 PUSH1 0x60 DUP7 MSTORE DUP1 MLOAD DUP1 SWAP4 MSTORE PUSH1 0x80 DUP7 ADD SWAP3 PUSH1 0x20 DUP1 SWAP3 ADD SWAP1 PUSH0 JUMPDEST DUP2 DUP2 LT PUSH2 0xF4B JUMPI POP POP POP DUP6 DUP4 SUB SWAP1 DUP7 ADD MSTORE PUSH1 0x40 SWAP2 PUSH2 0xF46 SWAP2 PUSH2 0xC6E JUMP JUMPDEST SWAP4 ADD MSTORE JUMP JUMPDEST DUP3 MLOAD PUSH1 0x1 PUSH1 0x1 PUSH1 0xA0 SHL SUB AND DUP7 MSTORE SWAP5 DUP4 ADD SWAP5 SWAP2 DUP4 ADD SWAP2 PUSH1 0x1 ADD PUSH2 0xF29 JUMP JUMPDEST PUSH0 PUSH1 0x80 MSTORE DUP1 PUSH0 MSTORE PUSH1 0x2 PUSH1 0x20 MSTORE PUSH1 0x40 PUSH0 KECCAK256 SWAP1 PUSH1 0x40 MLOAD DUP1 DUP4 PUSH1 0x20 DUP3 SWAP6 SLOAD SWAP4 DUP5 DUP2 MSTORE ADD SWAP1 PUSH0 MSTORE PUSH1 0x20 PUSH0 KECCAK256 SWAP3 PUSH0 JUMPDEST DUP2 DUP2 LT PUSH2 0x1702 JUMPI POP POP PUSH2 0xFA7 SWAP3 POP SUB DUP4 PUSH2 0xCD0 JUMP JUMPDEST DUP2 MLOAD ISZERO PUSH2 0x16DA JUMPI PUSH1 0x1 PUSH1 0x80 MSTORE PUSH1 0x5 SLOAD PUSH1 0x40 MLOAD PUSH4 0x755E66DB PUSH1 0xE1 SHL DUP2 MSTORE PUSH1 0x4 DUP2 ADD DUP4 SWAP1 MSTORE PUSH1 0x1 PUSH1 0x1 PUSH1 0xA0 SHL SUB SWAP1 SWAP2 AND SWAP4 SWAP1 SWAP3 PUSH0 DUP5 PUSH1 0x24 DUP2 DUP9 GAS STATICCALL SWAP4 DUP5 ISZERO PUSH2 0x1246 JUMPI PUSH0 SWAP5 PUSH2 0x16BE JUMPI JUMPDEST POP PUSH1 0x6 SLOAD PUSH1 0x40 MLOAD PUSH4 0x26917989 PUSH1 0xE0 SHL DUP2 MSTORE PUSH1 0x20 PUSH1 0x4 DUP3 ADD MSTORE SWAP5 SWAP1 PUSH1 0x60 SWAP1 DUP7 SWAP1 PUSH1 0x1 PUSH1 0x1 PUSH1 0xA0 SHL SUB AND DUP2 DUP1 PUSH2 0x1025 PUSH1 0x24 DUP3 ADD DUP8 PUSH2 0xD67 JUMP JUMPDEST SUB SWAP2 GAS STATICCALL SWAP4 DUP5 ISZERO PUSH2 0x1246 JUMPI PUSH0 SWAP6 PUSH0 SWAP6 PUSH2 0x1683 JUMPI JUMPDEST POP PUSH1 0x40 MLOAD PUSH4 0x6C79BD2B PUSH1 0xE0 SHL DUP2 MSTORE PUSH1 0x4 DUP2 ADD DUP3 SWAP1 MSTORE PUSH0 DUP2 PUSH1 0x24 DUP2 DUP12 GAS STATICCALL SWAP1 DUP2 ISZERO PUSH2 0x1246 JUMPI PUSH0 SWAP2 PUSH2 0x1646 JUMPI JUMPDEST POP PUSH2 0x106F DUP2 MLOAD PUSH2 0xEC5 JUMP JUMPDEST SWAP4 PUSH2 0x107A DUP3 MLOAD PUSH2 0xEC5 JUMP JUMPDEST SWAP3 PUSH0 SWAP7 PUSH0 SWAP6 PUSH0 SWAP9 JUMPDEST PUSH1 0x80 MLOAD ISZERO PUSH2 0x1632 JUMPI DUP6 MLOAD DUP11 LT ISZERO PUSH2 0x1251 JUMPI DUP13 PUSH0 PUSH2 0x109F DUP13 DUP10 PUSH2 0xEF7 JUMP JUMPDEST MLOAD PUSH1 0x24 PUSH1 0x40 MLOAD DUP1 SWAP5 DUP2 SWAP4 PUSH4 0x4C82C0DB PUSH1 0xE1 SHL DUP4 MSTORE PUSH1 0x4 DUP4 ADD MSTORE GAS STATICCALL SWAP1 DUP2 ISZERO PUSH2 0x1246 JUMPI PUSH0 SWAP2 PUSH2 0x1154 JUMPI JUMPDEST POP PUSH1 0xA0 DUP2 ADD MLOAD ISZERO DUP1 ISZERO SWAP1 PUSH2 0x1147 JUMPI JUMPDEST PUSH2 0x113C JUMPI PUSH1 0x40 DUP2 ADD MLOAD PUSH1 0x2 SUB PUSH2 0x1116 JUMPI MLOAD PUSH2 0x1110 SWAP2 PUSH2 0x1109 SWAP2 PUSH1 0x1 PUSH1 0x1 PUSH1 0xA0 SHL SUB AND PUSH2 0x1103 DUP3 DUP14 PUSH2 0xEF7 JUMP JUMPDEST MSTORE PUSH2 0xEA0 JUMP JUMPDEST SWAP10 JUMPDEST PUSH2 0xEA0 JUMP JUMPDEST SWAP9 PUSH2 0x1082 JUMP JUMPDEST MLOAD SWAP1 SWAP10 SWAP8 PUSH2 0x1110 SWAP2 PUSH2 0x1136 SWAP2 SWAP1 PUSH1 0x1 PUSH1 0x1 PUSH1 0xA0 SHL SUB AND PUSH2 0x1103 DUP3 DUP12 PUSH2 0xEF7 JUMP JUMPDEST SWAP8 PUSH2 0xEA0 JUMP JUMPDEST POP SWAP9 PUSH2 0x1110 SWAP1 PUSH2 0xEA0 JUMP JUMPDEST POP DUP12 PUSH1 0x80 DUP3 ADD MLOAD LT PUSH2 0x10D7 JUMP JUMPDEST SWAP1 POP RETURNDATASIZE DUP1 PUSH0 DUP4 RETURNDATACOPY PUSH2 0x1165 DUP2 DUP4 PUSH2 0xCD0 JUMP JUMPDEST PUSH1 0x20 DUP3 DUP3 DUP2 ADD SUB SLT PUSH2 0xD42 JUMPI DUP2 MLOAD SWAP1 PUSH1 0x1 PUSH1 0x1 PUSH1 0x40 SHL SUB DUP3 GT PUSH2 0xD42 JUMPI PUSH1 0xC0 DUP3 DUP5 ADD DUP3 DUP6 ADD SUB SLT PUSH2 0xD42 JUMPI PUSH1 0x40 MLOAD SWAP3 DUP4 PUSH1 0xC0 DUP2 ADD LT PUSH1 0x1 PUSH1 0x1 PUSH1 0x40 SHL SUB PUSH1 0xC0 DUP7 ADD GT OR PUSH2 0xCBC JUMPI PUSH1 0xC0 DUP5 ADD PUSH1 0x40 MSTORE PUSH2 0x11BE DUP4 DUP3 ADD PUSH2 0xE37 JUMP JUMPDEST DUP5 MSTORE PUSH1 0x20 DUP4 DUP3 ADD ADD MLOAD PUSH1 0x1 PUSH1 0x1 PUSH1 0x40 SHL SUB DUP2 GT PUSH2 0xD42 JUMPI PUSH2 0x11E6 SWAP1 DUP4 DUP4 ADD SWAP1 DUP6 DUP5 ADD ADD PUSH2 0xDCD JUMP JUMPDEST PUSH1 0x20 DUP6 ADD MSTORE DUP1 DUP4 ADD PUSH1 0x40 DUP2 DUP2 ADD MLOAD SWAP1 DUP7 ADD MSTORE PUSH1 0x60 ADD MLOAD SWAP2 PUSH1 0x1 PUSH1 0x1 PUSH1 0x40 SHL SUB DUP4 GT PUSH2 0xD42 JUMPI PUSH2 0x123C SWAP3 PUSH2 0x121F SWAP2 DUP4 ADD SWAP1 DUP6 DUP5 ADD ADD PUSH2 0xDCD JUMP JUMPDEST PUSH1 0x60 DUP6 ADD MSTORE PUSH1 0x80 DUP4 DUP3 ADD ADD MLOAD PUSH1 0x80 DUP6 ADD MSTORE PUSH1 0xA0 SWAP3 DUP4 SWAP2 ADD ADD PUSH2 0xE86 JUMP JUMPDEST SWAP1 DUP3 ADD MSTORE PUSH0 PUSH2 0x10C8 JUMP JUMPDEST PUSH1 0x40 MLOAD RETURNDATASIZE PUSH0 DUP3 RETURNDATACOPY RETURNDATASIZE SWAP1 REVERT JUMPDEST SWAP8 SWAP4 SWAP12 POP SWAP8 POP SWAP8 POP SWAP8 SWAP4 DUP7 SWAP3 POP DUP9 SWAP4 JUMPDEST PUSH2 0x126A DUP8 PUSH2 0xEC5 JUMP JUMPDEST SWAP7 PUSH2 0x1274 DUP4 PUSH2 0xEC5 JUMP JUMPDEST SWAP4 PUSH0 JUMPDEST DUP3 DUP2 LT PUSH2 0x15F8 JUMPI POP POP POP PUSH0 JUMPDEST DUP3 DUP2 LT PUSH2 0x15BE JUMPI POP POP POP PUSH2 0x1296 SWAP5 PUSH2 0x1779 JUMP JUMPDEST DUP1 MLOAD SWAP1 DUP2 PUSH2 0x13EC JUMPI POP POP POP PUSH2 0x12AB DUP4 MLOAD PUSH2 0xEC5 JUMP JUMPDEST SWAP1 PUSH2 0x12B6 DUP5 MLOAD PUSH2 0xEC5 JUMP JUMPDEST PUSH0 SWAP2 PUSH0 JUMPDEST PUSH1 0x80 MLOAD ISZERO PUSH2 0x13E1 JUMPI DUP7 MLOAD DUP2 LT ISZERO PUSH2 0x1357 JUMPI PUSH2 0x12D5 DUP2 DUP9 PUSH2 0xEF7 JUMP JUMPDEST MLOAD PUSH0 MSTORE PUSH1 0x80 MLOAD PUSH1 0x20 MSTORE PUSH1 0x40 PUSH0 KECCAK256 PUSH1 0x40 MLOAD SWAP1 PUSH2 0x12EF DUP3 PUSH2 0xCA1 JUMP JUMPDEST DUP1 SLOAD DUP3 MSTORE PUSH1 0x80 MLOAD ADD SLOAD PUSH1 0x1 PUSH1 0x1 PUSH1 0xA0 SHL SUB DUP2 AND PUSH1 0x20 DUP4 ADD DUP2 SWAP1 MSTORE PUSH1 0xA0 SWAP2 SWAP1 SWAP2 SHR PUSH1 0xFF AND ISZERO DUP1 ISZERO PUSH1 0x40 DUP5 ADD MSTORE PUSH2 0x132F JUMPI JUMPDEST POP POP PUSH2 0x132A SWAP1 PUSH2 0xEA0 JUMP JUMPDEST PUSH2 0x12BA JUMP JUMPDEST SWAP5 PUSH2 0x134F SWAP2 PUSH2 0x132A SWAP4 SWAP7 PUSH2 0x1343 DUP4 DUP11 PUSH2 0xEF7 JUMP JUMPDEST MSTORE MLOAD PUSH2 0x1103 DUP3 DUP8 PUSH2 0xEF7 JUMP JUMPDEST SWAP4 SWAP1 PUSH0 PUSH2 0x131F JUMP JUMPDEST POP SWAP5 POP SWAP2 SWAP3 SWAP1 JUMPDEST PUSH2 0x1367 DUP2 PUSH2 0xEC5 JUMP JUMPDEST SWAP3 PUSH2 0x1371 DUP3 PUSH2 0xEC5 JUMP JUMPDEST SWAP5 PUSH0 JUMPDEST DUP4 DUP2 LT PUSH2 0x13A4 JUMPI POP POP POP POP SWAP1 PUSH2 0x1396 PUSH2 0xE0F SWAP3 PUSH1 0x40 MLOAD SWAP5 DUP6 SWAP4 PUSH1 0x20 DUP6 ADD PUSH2 0xF0B JUMP JUMPDEST SUB PUSH1 0x1F NOT DUP2 ADD DUP4 MSTORE DUP3 PUSH2 0xCD0 JUMP JUMPDEST PUSH2 0x13DC SWAP1 PUSH1 0x1 PUSH1 0x1 PUSH1 0xA0 SHL SUB PUSH2 0x13BA DUP3 DUP6 PUSH2 0xEF7 JUMP JUMPDEST MLOAD AND PUSH2 0x13C6 DUP3 DUP10 PUSH2 0xEF7 JUMP JUMPDEST MSTORE PUSH2 0x13D1 DUP2 DUP6 PUSH2 0xEF7 JUMP JUMPDEST MLOAD PUSH2 0x1103 DUP3 DUP11 PUSH2 0xEF7 JUMP JUMPDEST PUSH2 0x1374 JUMP JUMPDEST POP SWAP5 POP SWAP2 SWAP3 SWAP1 PUSH2 0x135E JUMP JUMPDEST SWAP1 SWAP4 SWAP3 SWAP2 SWAP5 POP PUSH0 SWAP3 DUP1 PUSH0 MSTORE PUSH1 0x2 PUSH1 0x20 MSTORE PUSH1 0x40 PUSH0 KECCAK256 SWAP3 PUSH1 0x40 MLOAD DUP1 DUP6 PUSH1 0x20 DUP3 SWAP8 SLOAD SWAP4 DUP5 DUP2 MSTORE ADD SWAP1 PUSH0 MSTORE PUSH1 0x20 PUSH0 KECCAK256 SWAP3 PUSH0 JUMPDEST DUP2 DUP2 LT PUSH2 0x15A4 JUMPI POP POP PUSH2 0x142F SWAP3 POP SUB DUP6 PUSH2 0xCD0 JUMP JUMPDEST PUSH0 JUMPDEST PUSH1 0x80 MLOAD ISZERO PUSH2 0x1592 JUMPI DUP5 MLOAD DUP2 LT ISZERO PUSH2 0x14B6 JUMPI PUSH2 0x144C DUP2 DUP7 PUSH2 0xEF7 JUMP JUMPDEST MLOAD PUSH0 MSTORE PUSH1 0x80 MLOAD PUSH1 0x20 MSTORE PUSH1 0x40 PUSH0 KECCAK256 PUSH1 0x40 MLOAD PUSH2 0x1465 DUP2 PUSH2 0xCA1 JUMP JUMPDEST PUSH1 0xFF DUP3 SLOAD SWAP3 DUP4 DUP4 MSTORE PUSH1 0x80 MLOAD ADD SLOAD PUSH1 0x1 DUP1 PUSH1 0xA0 SHL SUB DUP2 AND PUSH1 0x20 DUP5 ADD MSTORE PUSH1 0xA0 SHR AND ISZERO SWAP1 PUSH1 0x40 DUP3 ISZERO SWAP2 ADD MSTORE PUSH2 0x14A1 JUMPI JUMPDEST POP PUSH2 0x149C SWAP1 PUSH2 0xEA0 JUMP JUMPDEST PUSH2 0x1431 JUMP JUMPDEST PUSH2 0x14AF SWAP1 PUSH2 0x149C SWAP3 SWAP8 PUSH2 0xE65 JUMP JUMPDEST SWAP6 SWAP1 PUSH2 0x1492 JUMP JUMPDEST POP SWAP4 SWAP1 SWAP5 SWAP3 POP PUSH1 0x40 PUSH2 0x14F1 SWAP3 SWAP7 JUMPDEST PUSH1 0x1 DUP1 PUSH1 0xA0 SHL SUB PUSH1 0x7 SLOAD AND DUP3 MLOAD DUP1 DUP1 SWAP7 DUP2 SWAP5 PUSH4 0xBAC4CD07 PUSH1 0xE0 SHL DUP4 MSTORE PUSH1 0x20 PUSH1 0x4 DUP5 ADD MSTORE PUSH1 0x24 DUP4 ADD SWAP1 PUSH2 0xD67 JUMP JUMPDEST SUB SWAP2 GAS STATICCALL SWAP1 DUP2 ISZERO PUSH2 0x1246 JUMPI PUSH2 0x150D SWAP3 PUSH0 SWAP3 PUSH2 0x1570 JUMPI JUMPDEST POP PUSH2 0xE93 JUMP JUMPDEST DIV SWAP1 PUSH2 0x1519 DUP5 MLOAD PUSH2 0xEC5 JUMP JUMPDEST SWAP4 PUSH0 JUMPDEST PUSH1 0x80 MLOAD ISZERO PUSH2 0x155E JUMPI DUP2 MLOAD DUP2 LT ISZERO PUSH2 0x1541 JUMPI DUP1 DUP5 PUSH2 0x1103 PUSH2 0x153C SWAP4 DUP10 PUSH2 0xEF7 JUMP JUMPDEST PUSH2 0x151C JUMP JUMPDEST POP SWAP1 SWAP4 SWAP3 PUSH2 0xE0F SWAP3 POP PUSH2 0x1396 SWAP1 JUMPDEST PUSH1 0x40 MLOAD SWAP5 DUP6 SWAP4 PUSH1 0x20 DUP6 ADD PUSH2 0xF0B JUMP JUMPDEST POP SWAP1 SWAP4 SWAP3 PUSH2 0xE0F SWAP3 POP PUSH2 0x1396 SWAP1 PUSH2 0x154F JUMP JUMPDEST PUSH2 0x158A SWAP2 SWAP3 POP PUSH1 0x40 RETURNDATASIZE PUSH1 0x40 GT PUSH2 0xA86 JUMPI PUSH2 0xA76 DUP2 DUP4 PUSH2 0xCD0 JUMP JUMPDEST POP SWAP1 PUSH0 PUSH2 0x1507 JUMP JUMPDEST POP SWAP4 SWAP1 SWAP5 SWAP3 POP PUSH1 0x40 PUSH2 0x14F1 SWAP3 SWAP7 PUSH2 0x14C4 JUMP JUMPDEST DUP5 SLOAD DUP4 MSTORE PUSH1 0x80 MLOAD SWAP5 DUP6 ADD SWAP5 DUP10 SWAP5 POP PUSH1 0x20 SWAP1 SWAP4 ADD SWAP3 ADD PUSH2 0x141A JUMP JUMPDEST SWAP6 SWAP7 SWAP3 SWAP6 SWAP3 SWAP5 POP SWAP1 SWAP3 POP SWAP1 PUSH2 0x15EB SWAP1 PUSH1 0x1 PUSH1 0x1 PUSH1 0xA0 SHL SUB PUSH2 0x15DF DUP3 DUP6 PUSH2 0xEF7 JUMP JUMPDEST MLOAD AND PUSH2 0x1103 DUP3 DUP9 PUSH2 0xEF7 JUMP JUMPDEST SWAP2 DUP9 SWAP4 SWAP6 SWAP5 SWAP2 DUP8 SWAP4 PUSH2 0x1283 JUMP JUMPDEST SWAP1 SWAP3 SWAP5 SWAP8 SWAP9 SWAP7 POP PUSH2 0x1623 SWAP2 SWAP4 SWAP6 POP PUSH1 0x1 DUP1 PUSH1 0xA0 SHL SUB PUSH2 0x1617 DUP3 DUP6 PUSH2 0xEF7 JUMP JUMPDEST MLOAD AND PUSH2 0x1103 DUP3 DUP10 PUSH2 0xEF7 JUMP JUMPDEST SWAP2 DUP11 SWAP6 SWAP8 SWAP7 SWAP4 SWAP2 DUP10 SWAP6 SWAP4 PUSH2 0x1277 JUMP JUMPDEST SWAP8 SWAP4 SWAP12 POP SWAP8 POP SWAP8 POP SWAP8 SWAP4 DUP7 SWAP3 POP DUP9 SWAP4 PUSH2 0x1261 JUMP JUMPDEST SWAP1 POP RETURNDATASIZE DUP1 PUSH0 DUP4 RETURNDATACOPY PUSH2 0x1657 DUP2 DUP4 PUSH2 0xCD0 JUMP JUMPDEST DUP2 ADD PUSH1 0x20 DUP3 DUP3 SUB SLT PUSH2 0xD42 JUMPI DUP2 MLOAD PUSH1 0x1 PUSH1 0x1 PUSH1 0x40 SHL SUB DUP2 GT PUSH2 0xD42 JUMPI PUSH2 0x167D SWAP3 ADD PUSH2 0x171B JUMP JUMPDEST PUSH0 PUSH2 0x1064 JUMP JUMPDEST SWAP6 POP SWAP4 POP PUSH1 0x60 DUP6 RETURNDATASIZE PUSH1 0x60 GT PUSH2 0x16B6 JUMPI JUMPDEST DUP2 PUSH2 0x16A0 PUSH1 0x60 SWAP4 DUP4 PUSH2 0xCD0 JUMP JUMPDEST DUP2 ADD SUB SLT PUSH2 0xD42 JUMPI PUSH1 0x20 DUP6 MLOAD SWAP6 ADD MLOAD SWAP4 PUSH0 PUSH2 0x1039 JUMP JUMPDEST RETURNDATASIZE SWAP2 POP PUSH2 0x1693 JUMP JUMPDEST PUSH2 0x16D3 SWAP2 SWAP5 POP RETURNDATASIZE DUP1 PUSH0 DUP4 RETURNDATACOPY PUSH2 0x9F6 DUP2 DUP4 PUSH2 0xCD0 JUMP JUMPDEST SWAP3 PUSH0 PUSH2 0xFEE JUMP JUMPDEST POP POP PUSH0 PUSH1 0x80 MSTORE PUSH1 0x40 MLOAD PUSH1 0x20 DUP2 ADD DUP2 DUP2 LT PUSH1 0x1 PUSH1 0x1 PUSH1 0x40 SHL SUB DUP3 GT OR PUSH2 0xCBC JUMPI PUSH1 0x40 MSTORE PUSH0 DUP2 MSTORE SWAP1 JUMP JUMPDEST DUP5 SLOAD DUP4 MSTORE PUSH1 0x1 SWAP5 DUP6 ADD SWAP5 DUP8 SWAP5 POP PUSH1 0x20 SWAP1 SWAP4 ADD SWAP3 ADD PUSH2 0xF92 JUMP JUMPDEST DUP2 PUSH1 0x1F DUP3 ADD SLT ISZERO PUSH2 0xD42 JUMPI DUP1 MLOAD SWAP2 PUSH2 0x1732 DUP4 PUSH2 0xEAE JUMP JUMPDEST SWAP3 PUSH2 0x1740 PUSH1 0x40 MLOAD SWAP5 DUP6 PUSH2 0xCD0 JUMP JUMPDEST DUP1 DUP5 MSTORE PUSH1 0x20 SWAP3 DUP4 DUP1 DUP7 ADD SWAP3 PUSH1 0x5 SHL DUP3 ADD ADD SWAP3 DUP4 GT PUSH2 0xD42 JUMPI DUP4 ADD SWAP1 JUMPDEST DUP3 DUP3 LT PUSH2 0x176A JUMPI POP POP POP POP SWAP1 JUMP JUMPDEST DUP2 MLOAD DUP2 MSTORE SWAP1 DUP4 ADD SWAP1 DUP4 ADD PUSH2 0x175C JUMP JUMPDEST SWAP3 SWAP1 SWAP5 SWAP4 PUSH1 0x60 SWAP1 PUSH1 0x1 DUP1 PUSH1 0xA0 SHL SUB SWAP4 DUP5 PUSH1 0x7 SLOAD AND SWAP2 PUSH1 0x40 MLOAD SWAP5 DUP6 SWAP4 PUSH4 0x436FF89 PUSH1 0xE2 SHL DUP6 MSTORE PUSH1 0x20 SWAP5 DUP6 SWAP2 DUP2 DUP1 PUSH2 0x17BA PUSH1 0x4 SWAP9 DUP7 DUP11 DUP5 ADD MSTORE PUSH1 0x24 DUP4 ADD SWAP1 PUSH2 0xD67 JUMP JUMPDEST SUB SWAP2 GAS STATICCALL SWAP6 DUP7 ISZERO PUSH2 0x1246 JUMPI PUSH0 SWAP7 PUSH2 0x197E JUMPI JUMPDEST POP DUP4 DUP8 PUSH1 0x5 SLOAD AND SWAP2 PUSH1 0x24 PUSH1 0x40 MLOAD DUP1 SWAP5 DUP2 SWAP4 PUSH4 0x75243D49 PUSH1 0xE1 SHL DUP4 MSTORE DUP9 DUP4 ADD MSTORE GAS STATICCALL SWAP4 DUP5 ISZERO PUSH2 0x1246 JUMPI PUSH0 SWAP5 PUSH2 0x195F JUMPI JUMPDEST POP POP PUSH2 0x180A DUP8 MLOAD DUP11 MLOAD SWAP1 PUSH2 0xE65 JUMP JUMPDEST SWAP5 DUP3 DUP5 LT ISZERO SWAP2 DUP3 PUSH2 0x194C JUMPI DUP5 ISZERO SWAP1 DUP2 ISZERO PUSH2 0x193E JUMPI JUMPDEST DUP2 ISZERO PUSH2 0x1934 JUMPI JUMPDEST POP PUSH2 0x1928 JUMPI PUSH1 0x2 DUP2 LT ISZERO PUSH2 0x1915 JUMPI DUP1 PUSH2 0x18B1 JUMPI POP POP POP POP POP PUSH2 0x1847 SWAP1 PUSH2 0xEC5 JUMP JUMPDEST SWAP2 PUSH0 JUMPDEST DUP2 MLOAD DUP2 LT ISZERO PUSH2 0x1873 JUMPI DUP1 DUP4 PUSH2 0x1862 PUSH2 0x186E SWAP4 DUP6 PUSH2 0xEF7 JUMP JUMPDEST MLOAD AND PUSH2 0x1103 DUP3 DUP8 PUSH2 0xEF7 JUMP JUMPDEST PUSH2 0x184A JUMP JUMPDEST POP SWAP2 SWAP4 PUSH0 JUMPDEST DUP2 MLOAD DUP2 LT ISZERO PUSH2 0x18AB JUMPI DUP1 DUP4 PUSH2 0x1890 PUSH2 0x18A6 SWAP4 DUP6 PUSH2 0xEF7 JUMP JUMPDEST MLOAD AND PUSH2 0x1103 PUSH2 0x18A0 DUP4 DUP9 MLOAD PUSH2 0xE65 JUMP JUMPDEST DUP10 PUSH2 0xEF7 JUMP JUMPDEST PUSH2 0x1878 JUMP JUMPDEST POP POP POP POP JUMP JUMPDEST SWAP1 SWAP3 SWAP5 POP PUSH1 0x1 SWAP2 SWAP4 SWAP7 SWAP8 SWAP9 SWAP6 POP EQ PUSH2 0x18CD JUMPI JUMPDEST POP POP POP POP SWAP1 POP SWAP1 JUMP JUMPDEST PUSH2 0x1902 JUMPI POP PUSH1 0x2 DUP2 SUB PUSH2 0x18E8 JUMPI POP POP POP JUMPDEST DUP1 PUSH0 DUP1 DUP1 DUP1 PUSH2 0x18C4 JUMP JUMPDEST PUSH1 0x3 SWAP2 SWAP3 SWAP4 POP EQ PUSH2 0x18FA JUMPI JUMPDEST POP PUSH2 0x18DE JUMP JUMPDEST SWAP1 POP PUSH0 PUSH2 0x18F4 JUMP JUMPDEST PUSH1 0x21 SWAP1 PUSH4 0x4E487B71 PUSH1 0xE0 SHL PUSH0 MSTORE MSTORE PUSH1 0x24 PUSH0 REVERT JUMPDEST PUSH1 0x21 DUP4 PUSH4 0x4E487B71 PUSH1 0xE0 SHL PUSH0 MSTORE MSTORE PUSH1 0x24 PUSH0 REVERT JUMPDEST POP SWAP3 SWAP8 POP POP POP POP POP POP POP JUMP JUMPDEST SWAP1 POP DUP7 LT PUSH0 PUSH2 0x1826 JUMP JUMPDEST PUSH0 SWAP4 POP PUSH1 0x1 DUP7 EQ SWAP2 POP PUSH2 0x181F JUMP JUMPDEST PUSH1 0x21 DUP5 PUSH4 0x4E487B71 PUSH1 0xE0 SHL PUSH0 MSTORE MSTORE PUSH1 0x24 PUSH0 REVERT JUMPDEST PUSH2 0x1976 SWAP3 SWAP5 POP DUP1 RETURNDATASIZE LT PUSH2 0xB2C JUMPI PUSH2 0xB1E DUP2 DUP4 PUSH2 0xCD0 JUMP JUMPDEST SWAP2 PUSH0 DUP1 PUSH2 0x17FB JUMP JUMPDEST DUP5 DUP2 DUP2 SWAP9 SWAP4 SWAP9 RETURNDATASIZE DUP4 GT PUSH2 0x19B1 JUMPI JUMPDEST PUSH2 0x1996 DUP2 DUP4 PUSH2 0xCD0 JUMP JUMPDEST DUP2 ADD SUB SLT PUSH2 0x126 JUMPI MLOAD SWAP1 PUSH1 0x2 DUP3 LT ISZERO PUSH2 0x1BE JUMPI POP SWAP5 PUSH0 PUSH2 0x17CC JUMP JUMPDEST POP RETURNDATASIZE PUSH2 0x198C JUMP JUMPDEST PUSH1 0x2 PUSH0 SLOAD EQ PUSH2 0x19C7 JUMPI PUSH1 0x2 PUSH0 SSTORE JUMP JUMPDEST PUSH1 0x40 MLOAD PUSH3 0x461BCD PUSH1 0xE5 SHL DUP2 MSTORE PUSH1 0x20 PUSH1 0x4 DUP3 ADD MSTORE PUSH1 0x1F PUSH1 0x24 DUP3 ADD MSTORE PUSH32 0x5265656E7472616E637947756172643A207265656E7472616E742063616C6C00 PUSH1 0x44 DUP3 ADD MSTORE PUSH1 0x64 SWAP1 REVERT JUMPDEST SWAP1 DUP2 MLOAD DUP3 ADD SWAP2 PUSH1 0x20 PUSH1 0x60 DUP3 DUP3 DUP7 ADD SWAP6 SUB SLT PUSH2 0xD42 JUMPI DUP1 DUP3 ADD MLOAD SWAP4 PUSH1 0x1 PUSH1 0x1 PUSH1 0x40 SHL SUB SWAP5 DUP6 DUP2 GT PUSH2 0xD42 JUMPI DUP4 ADD SWAP1 DUP1 PUSH1 0x3F DUP4 ADD SLT ISZERO PUSH2 0xD42 JUMPI DUP3 DUP3 ADD MLOAD SWAP6 PUSH2 0x1A52 DUP8 PUSH2 0xEAE JUMP JUMPDEST SWAP3 PUSH1 0x40 SWAP8 PUSH2 0x1A62 DUP10 MLOAD SWAP6 DUP7 PUSH2 0xCD0 JUMP JUMPDEST DUP1 DUP6 MSTORE DUP9 DUP7 DUP7 ADD SWAP2 PUSH1 0x5 SHL DUP4 ADD ADD SWAP2 DUP5 DUP4 GT PUSH2 0xD42 JUMPI DUP10 DUP8 SWAP2 ADD SWAP2 JUMPDEST DUP4 DUP4 LT PUSH2 0x1D9B JUMPI POP POP POP POP DUP7 DUP6 ADD MLOAD SWAP1 DUP2 GT PUSH2 0xD42 JUMPI PUSH1 0x60 SWAP2 DUP5 PUSH2 0x1AA4 SWAP3 DUP8 ADD ADD PUSH2 0x171B JUMP JUMPDEST SWAP4 ADD MLOAD SWAP4 DUP2 MLOAD DUP5 MLOAD SUB PUSH2 0x1D41 JUMPI SWAP5 DUP5 SWAP6 PUSH1 0x1 DUP1 PUSH1 0xA0 SHL SUB SWAP4 PUSH1 0x24 DUP2 DUP7 PUSH1 0x5 SLOAD AND DUP6 MLOAD SWAP3 DUP4 DUP1 SWAP3 PUSH4 0x75243D49 PUSH1 0xE1 SHL DUP3 MSTORE PUSH1 0x4 SWAP14 DUP15 DUP4 ADD MSTORE GAS STATICCALL SWAP1 DUP2 ISZERO PUSH2 0x1D37 JUMPI PUSH0 SWAP2 PUSH2 0x1D1A JUMPI JUMPDEST POP DUP9 DUP2 LT ISZERO PUSH2 0x1D07 JUMPI PUSH1 0x2 DUP2 EQ SWAP1 DUP2 ISZERO PUSH2 0x1CFC JUMPI JUMPDEST POP ISZERO PUSH2 0x1CB0 JUMPI PUSH0 JUMPDEST DUP5 MLOAD DUP2 LT ISZERO PUSH2 0x1B3B JUMPI DUP1 PUSH2 0x110B DUP8 PUSH2 0x1B23 PUSH2 0x1B36 SWAP5 DUP10 PUSH2 0xEF7 JUMP JUMPDEST MLOAD AND PUSH2 0x1B2F DUP4 DUP12 PUSH2 0xEF7 JUMP JUMPDEST MLOAD SWAP1 PUSH2 0x1DB3 JUMP JUMPDEST PUSH2 0x1B08 JUMP JUMPDEST POP SWAP5 POP SWAP5 SWAP3 SWAP2 POP PUSH1 0x24 DUP2 SWAP7 PUSH0 DUP5 PUSH1 0x5 SLOAD AND DUP5 MLOAD SWAP4 DUP5 DUP1 SWAP3 PUSH4 0x755E66DB PUSH1 0xE1 SHL DUP3 MSTORE DUP10 DUP7 DUP4 ADD MSTORE GAS STATICCALL SWAP2 DUP3 ISZERO PUSH2 0x1CA6 JUMPI PUSH2 0x1B9D SWAP5 DUP8 SWAP2 PUSH0 SWAP5 PUSH2 0x1C8B JUMPI JUMPDEST POP PUSH1 0x7 SLOAD AND SWAP2 DUP5 MLOAD SWAP6 DUP7 SWAP5 DUP6 SWAP4 DUP5 SWAP4 PUSH4 0xBAC4CD07 PUSH1 0xE0 SHL DUP6 MSTORE DUP5 ADD MSTORE PUSH1 0x24 DUP4 ADD SWAP1 PUSH2 0xD67 JUMP JUMPDEST SUB SWAP2 GAS STATICCALL SWAP1 DUP2 ISZERO PUSH2 0x1C81 JUMPI PUSH0 SWAP1 DUP2 SWAP3 PUSH2 0x1C61 JUMPI JUMPDEST POP DUP1 PUSH2 0x1C51 JUMPI JUMPDEST POP POP PUSH0 MSTORE PUSH1 0x2 DUP2 MSTORE DUP3 PUSH0 KECCAK256 SWAP3 DUP1 MLOAD DUP1 DUP6 DUP5 DUP3 SWAP8 SLOAD SWAP4 DUP5 DUP2 MSTORE ADD SWAP1 PUSH0 MSTORE DUP5 PUSH0 KECCAK256 SWAP3 PUSH0 JUMPDEST DUP7 DUP3 DUP3 LT PUSH2 0x1C3B JUMPI POP POP POP PUSH2 0x1BF1 SWAP3 POP SUB DUP6 PUSH2 0xCD0 JUMP JUMPDEST PUSH0 JUMPDEST DUP5 MLOAD DUP2 LT ISZERO PUSH2 0x1C34 JUMPI DUP1 PUSH2 0x1C0A PUSH2 0x1C2F SWAP3 DUP8 PUSH2 0xEF7 JUMP JUMPDEST MLOAD PUSH0 SWAP1 DUP2 MSTORE PUSH1 0x1 DUP1 DUP7 MSTORE SWAP1 DUP5 SWAP1 KECCAK256 ADD DUP1 SLOAD PUSH1 0xFF PUSH1 0xA0 SHL NOT AND PUSH1 0x1 PUSH1 0xA0 SHL OR SWAP1 SSTORE PUSH2 0xEA0 JUMP JUMPDEST PUSH2 0x1BF3 JUMP JUMPDEST POP POP POP SWAP1 POP JUMP JUMPDEST DUP6 SLOAD DUP5 MSTORE PUSH1 0x1 SWAP6 DUP7 ADD SWAP6 DUP11 SWAP6 POP SWAP4 ADD SWAP3 ADD PUSH2 0x1BDA JUMP JUMPDEST PUSH2 0x1C5A SWAP2 PUSH2 0x1DB3 JUMP JUMPDEST PUSH0 DUP1 PUSH2 0x1BB8 JUMP JUMPDEST SWAP1 POP PUSH2 0x1C7A SWAP2 POP DUP6 RETURNDATASIZE DUP8 GT PUSH2 0xA86 JUMPI PUSH2 0xA76 DUP2 DUP4 PUSH2 0xCD0 JUMP JUMPDEST SWAP1 PUSH0 PUSH2 0x1BB1 JUMP JUMPDEST DUP6 MLOAD RETURNDATASIZE PUSH0 DUP3 RETURNDATACOPY RETURNDATASIZE SWAP1 REVERT JUMPDEST PUSH2 0x1C9F SWAP2 SWAP5 RETURNDATASIZE DUP1 SWAP2 DUP4 RETURNDATACOPY PUSH2 0x9F6 DUP2 DUP4 PUSH2 0xCD0 JUMP JUMPDEST SWAP3 PUSH0 PUSH2 0x1B77 JUMP JUMPDEST DUP4 MLOAD RETURNDATASIZE PUSH0 DUP3 RETURNDATACOPY RETURNDATASIZE SWAP1 REVERT JUMPDEST DUP8 PUSH1 0x84 SWAP2 DUP5 MLOAD SWAP2 PUSH3 0x461BCD PUSH1 0xE5 SHL DUP4 MSTORE DUP3 ADD MSTORE PUSH1 0x21 PUSH1 0x24 DUP3 ADD MSTORE PUSH32 0x506F7374206D757374206265206163636570746564206F722072656A65637465 PUSH1 0x44 DUP3 ADD MSTORE PUSH1 0x19 PUSH1 0xFA SHL PUSH1 0x64 DUP3 ADD MSTORE REVERT JUMPDEST PUSH1 0x3 SWAP2 POP EQ PUSH0 PUSH2 0x1B00 JUMP JUMPDEST PUSH1 0x21 DUP10 PUSH4 0x4E487B71 PUSH1 0xE0 SHL PUSH0 MSTORE MSTORE PUSH1 0x24 PUSH0 REVERT JUMPDEST PUSH2 0x1D31 SWAP2 POP DUP3 RETURNDATASIZE DUP5 GT PUSH2 0xB2C JUMPI PUSH2 0xB1E DUP2 DUP4 PUSH2 0xCD0 JUMP JUMPDEST PUSH0 PUSH2 0x1AEB JUMP JUMPDEST DUP5 MLOAD RETURNDATASIZE PUSH0 DUP3 RETURNDATACOPY RETURNDATASIZE SWAP1 REVERT JUMPDEST DUP6 MLOAD PUSH3 0x461BCD PUSH1 0xE5 SHL DUP2 MSTORE PUSH1 0x4 DUP2 ADD DUP5 SWAP1 MSTORE PUSH1 0x2D PUSH1 0x24 DUP3 ADD MSTORE PUSH32 0x41646472657373657320616E6420616D6F756E7473206D757374206265207468 PUSH1 0x44 DUP3 ADD MSTORE PUSH13 0xCA40E6C2DACA40D8CADCCEE8D PUSH1 0x9B SHL PUSH1 0x64 DUP3 ADD MSTORE PUSH1 0x84 SWAP1 REVERT JUMPDEST DUP2 SWAP1 PUSH2 0x1DA6 DUP5 PUSH2 0xE37 JUMP JUMPDEST DUP2 MSTORE ADD SWAP2 ADD SWAP1 DUP7 SWAP1 PUSH2 0x1A7E JUMP JUMPDEST SWAP1 DUP1 ISZERO PUSH2 0x1E69 JUMPI PUSH0 DUP1 DUP1 DUP1 DUP5 DUP7 GAS CALL RETURNDATASIZE ISZERO PUSH2 0x1E64 JUMPI RETURNDATASIZE PUSH2 0x1DD2 DUP2 PUSH2 0xCF1 JUMP JUMPDEST SWAP1 PUSH2 0x1DE0 PUSH1 0x40 MLOAD SWAP3 DUP4 PUSH2 0xCD0 JUMP JUMPDEST DUP2 MSTORE PUSH0 PUSH1 0x20 RETURNDATASIZE SWAP3 ADD RETURNDATACOPY JUMPDEST ISZERO PUSH2 0x1E2D JUMPI PUSH1 0x40 DUP1 MLOAD PUSH1 0x1 PUSH1 0x1 PUSH1 0xA0 SHL SUB SWAP1 SWAP4 AND DUP4 MSTORE PUSH1 0x20 DUP4 ADD SWAP2 SWAP1 SWAP2 MSTORE PUSH32 0x31DD4C1BC893BD53887B59C36C1A1B9F60960FA64C231AD0CD3603A1914BDA35 SWAP2 LOG1 JUMP JUMPDEST PUSH1 0x40 MLOAD PUSH3 0x461BCD PUSH1 0xE5 SHL DUP2 MSTORE PUSH1 0x20 PUSH1 0x4 DUP3 ADD MSTORE PUSH1 0xF PUSH1 0x24 DUP3 ADD MSTORE PUSH15 0x151C985B9CD9995C8819985A5B1959 PUSH1 0x8A SHL PUSH1 0x44 DUP3 ADD MSTORE PUSH1 0x64 SWAP1 REVERT JUMPDEST PUSH2 0x1DEA JUMP JUMPDEST PUSH1 0x64 PUSH1 0x40 MLOAD PUSH3 0x461BCD PUSH1 0xE5 SHL DUP2 MSTORE PUSH1 0x20 PUSH1 0x4 DUP3 ADD MSTORE PUSH1 0x20 PUSH1 0x24 DUP3 ADD MSTORE PUSH32 0x416D6F756E74206D7573742062652067726561746572207468616E207A65726F PUSH1 0x44 DUP3 ADD MSTORE REVERT JUMPDEST ISZERO PUSH2 0x1EB4 JUMPI JUMP JUMPDEST PUSH1 0x40 MLOAD PUSH3 0x461BCD PUSH1 0xE5 SHL DUP2 MSTORE PUSH1 0x20 PUSH1 0x4 DUP3 ADD MSTORE PUSH1 0x22 PUSH1 0x24 DUP3 ADD MSTORE PUSH32 0x4F6E6C79206F776E65722063616E20706572666F726D20746869732061637469 PUSH1 0x44 DUP3 ADD MSTORE PUSH2 0x37B7 PUSH1 0xF1 SHL PUSH1 0x64 DUP3 ADD MSTORE PUSH1 0x84 SWAP1 REVERT INVALID LOG2 PUSH5 0x6970667358 0x22 SLT KECCAK256 PUSH21 0xE95D014C4C35D566CE172F1F0485FDA8F192FFA7EB DUP4 0xEB PUSH24 0xEB73622054667764736F6C63430008140033000000000000 "},"methodIdentifiers":{"AutomationContractAddress()":"24c328f2","GetPostSubmissionBounties(uint256)":"37b308ac","bounties(uint256)":"dc2f8744","bountiesId()":"8547cb8c","checkLog((uint256,uint256,bytes32,uint256,bytes32,address,bytes32[],bytes),bytes)":"40691db4","createBounty(uint256)":"3f28e9fb","fee()":"ddca3f43","manualUpkeep(uint256)":"4db9e207","owner()":"8da5cb5b","performUpkeep(bytes)":"4585e33b","postSubmissionBounties(uint256,uint256)":"c4ba65bb","setAutomationContractAddress(address)":"ac7f3d7b","setFee(uint256)":"69fe0e2d","setTgetherCommunityConsensusAddress(address)":"b31926f4","setTgetherFundAddress(address)":"a383135e","setTgetherIncentivesAddress(address)":"2bf2f01a","setTgetherPostConsensusAddress(address)":"bab488be","tgetherCommunityConsensusContract()":"0ee1bd25","tgetherFundContract()":"b9935ac3","tgetherIncentivesContract()":"1e28b1c8","tgetherPostConsensusContract()":"4c87e49b"}}}}}