{"contracts/LaneRegistry.sol":{"LaneRegistry":{"abi":[{"inputs":[{"internalType":"address","name":"_contractAddress","type":"address"}],"stateMutability":"nonpayable","type":"constructor"},{"inputs":[{"internalType":"address","name":"_contractAddress","type":"address"}],"name":"addLane","outputs":[{"internalType":"uint256","name":"","type":"uint256"}],"stateMutability":"nonpayable","type":"function"},{"inputs":[{"internalType":"uint256","name":"proposalId","type":"uint256"}],"name":"appendToLane","outputs":[{"internalType":"uint256","name":"","type":"uint256"}],"stateMutability":"payable","type":"function"},{"inputs":[],"name":"getIntakeContractAddress","outputs":[{"internalType":"address","name":"","type":"address"}],"stateMutability":"view","type":"function"},{"inputs":[{"internalType":"uint256","name":"laneId","type":"uint256"}],"name":"getLaneContractAddress","outputs":[{"internalType":"address","name":"","type":"address"}],"stateMutability":"view","type":"function"},{"inputs":[],"name":"intakeContract","outputs":[{"internalType":"address","name":"","type":"address"}],"stateMutability":"view","type":"function"},{"inputs":[{"internalType":"address","name":"","type":"address"}],"name":"laneAddresses","outputs":[{"internalType":"uint256","name":"","type":"uint256"}],"stateMutability":"view","type":"function"},{"inputs":[],"name":"laneCount","outputs":[{"internalType":"uint256","name":"","type":"uint256"}],"stateMutability":"view","type":"function"},{"inputs":[{"internalType":"uint256","name":"","type":"uint256"}],"name":"laneMap","outputs":[{"internalType":"address","name":"contractAddress","type":"address"},{"internalType":"uint256","name":"laneLength","type":"uint256"}],"stateMutability":"view","type":"function"},{"inputs":[],"name":"lowestLaneLengthId","outputs":[{"internalType":"uint256","name":"","type":"uint256"}],"stateMutability":"view","type":"function"},{"inputs":[],"name":"owner","outputs":[{"internalType":"address","name":"","type":"address"}],"stateMutability":"view","type":"function"},{"inputs":[{"internalType":"uint256","name":"laneId","type":"uint256"},{"internalType":"uint256","name":"newLength","type":"uint256"}],"name":"reportLaneLength","outputs":[],"stateMutability":"nonpayable","type":"function"},{"inputs":[{"internalType":"uint256","name":"","type":"uint256"}],"name":"zeroLengthArray","outputs":[{"internalType":"uint256","name":"","type":"uint256"}],"stateMutability":"view","type":"function"}],"evm":{"bytecode":{"linkReferences":{},"object":"60803461008357601f6106fd38819003918201601f19168301916001600160401b038311848410176100875780849260209460405283398101031261008357516001600160a01b038116908190036100835760018060a01b031933816003541617600355600160045560055416176005555f600655604051610661908161009c8239f35b5f80fd5b634e487b7160e01b5f52604160045260245ffdfe60806040818152600480361015610014575f80fd5b5f92833560e01c908162d36e401461042f57508063182f9fe1146103f65780632197a3841461011257806330c31870146103d75780634a55afd1146103ba5780634beff6f9146103825780635cd9f722146103035780638da5cb5b146102da578063a993983b1461013f578063d8db3e3e14610112578063de102fd6146100e05763effc1823146100a3575f80fd5b346100dc5760203660031901126100dc57359180548310156100d957506100cb60209261055d565b91905490519160031b1c8152f35b80fd5b8280fd5b50346100dc5760203660031901126100dc5735825260016020908152918190205490516001600160a01b039091168152f35b50503461013b578160031936011261013b5760055490516001600160a01b039091168152602090f35b5080fd5b509190602092836003193601126100dc576005546001600160a01b0393908416330361029e578054801594908561028d575f1981810191821161027a576101858261055d565b90549060031b1c9661026757918160249594936101a28a9461055d565b909182549160031b1b1916905583555b86835260018252858320541685519485809263a993983b60e01b825286358783015234905af191821561025b5781926101f9575b50506101f39150836105d1565b51908152f35b90915085903d8711610253575b601f8201601f191684019067ffffffffffffffff8211858310176102405750869184918652810103126100d957506101f390515f806101e6565b634e487b7160e01b845260419052602483fd5b3d9150610206565b508351903d90823e3d90fd5b634e487b7160e01b845260318552602484fd5b634e487b7160e01b845260118552602484fd5b5093509060249185600654956101b2565b5083606492519162461bcd60e51b83528201526017602482015276139bdd081d1a19481a5b9d185ad94818dbdb9d1c9858dd604a1b6044820152fd5b50503461013b578160031936011261013b5760035490516001600160a01b039091168152602090f35b50346100dc57816003193601126100dc5780358084526001602052828420549092906001600160a01b031633036103445783610341602435856105d1565b80f35b906020606492519162461bcd60e51b83528201526018602482015277139bdd08185d5d1a1bdc9a5e9959081d1bc81c995c1bdc9d60421b6044820152fd5b50346100dc5760203660031901126100dc579181923581526001602052206001808060a01b0382541691015482519182526020820152f35b50346100dc57826003193601126100dc5760209250549051908152f35b50503461013b578160031936011261013b576020906006549051908152f35b50346100dc5760203660031901126100dc57356001600160a01b038116908190036100dc57828291602094526002845220549051908152f35b90508284346100d9576020938460031936011261013b576001600160a01b0381358181169590869003610559578160035416320361051f575083519084820182811067ffffffffffffffff82111761050c578552858252868201848152835485526001808952868620935184546001600160a01b03191693169290921783555191015580546104bd90610589565b8054938252600285528383832055600654610503575b5f1984146104f0576001840180825584116104f057505051908152f35b634e487b7160e01b825260119052602490fd5b836006556104d3565b634e487b7160e01b855260418452602485fd5b62461bcd60e51b815282810187905260166024820152752737ba103a34329031b7b73a3930b1ba1037bbb732b960511b6044820152606490fd5b8380fd5b905f9182548110156105755782805260208320019190565b634e487b7160e01b83526032600452602483fd5b5f54600160401b8110156105bd578060016105a692015f5561055d565b819291549060031b91821b915f19901b1916179055565b634e487b7160e01b5f52604160045260245ffd5b90815f52600160205280600160405f200155801561061d575b6006545f526001602052600160405f200154809110908115610614575b5061060f5750565b600655565b9050155f610607565b61062682610589565b6105ea56fea264697066735822122031154e5f97c51a4264ac5c35a9bb9977d7a7b45e6918135248d454134a470b7564736f6c63430008140033","opcodes":"PUSH1 0x80 CALLVALUE PUSH2 0x83 JUMPI PUSH1 0x1F PUSH2 0x6FD CODESIZE DUP2 SWAP1 SUB SWAP2 DUP3 ADD PUSH1 0x1F NOT AND DUP4 ADD SWAP2 PUSH1 0x1 PUSH1 0x1 PUSH1 0x40 SHL SUB DUP4 GT DUP5 DUP5 LT OR PUSH2 0x87 JUMPI DUP1 DUP5 SWAP3 PUSH1 0x20 SWAP5 PUSH1 0x40 MSTORE DUP4 CODECOPY DUP2 ADD SUB SLT PUSH2 0x83 JUMPI MLOAD PUSH1 0x1 PUSH1 0x1 PUSH1 0xA0 SHL SUB DUP2 AND SWAP1 DUP2 SWAP1 SUB PUSH2 0x83 JUMPI PUSH1 0x1 DUP1 PUSH1 0xA0 SHL SUB NOT CALLER DUP2 PUSH1 0x3 SLOAD AND OR PUSH1 0x3 SSTORE PUSH1 0x1 PUSH1 0x4 SSTORE PUSH1 0x5 SLOAD AND OR PUSH1 0x5 SSTORE PUSH0 PUSH1 0x6 SSTORE PUSH1 0x40 MLOAD PUSH2 0x661 SWAP1 DUP2 PUSH2 0x9C DUP3 CODECOPY RETURN JUMPDEST PUSH0 DUP1 REVERT JUMPDEST PUSH4 0x4E487B71 PUSH1 0xE0 SHL PUSH0 MSTORE PUSH1 0x41 PUSH1 0x4 MSTORE PUSH1 0x24 PUSH0 REVERT INVALID PUSH1 0x80 PUSH1 0x40 DUP2 DUP2 MSTORE PUSH1 0x4 DUP1 CALLDATASIZE LT ISZERO PUSH2 0x14 JUMPI PUSH0 DUP1 REVERT JUMPDEST PUSH0 SWAP3 DUP4 CALLDATALOAD PUSH1 0xE0 SHR SWAP1 DUP2 PUSH3 0xD36E40 EQ PUSH2 0x42F JUMPI POP DUP1 PUSH4 0x182F9FE1 EQ PUSH2 0x3F6 JUMPI DUP1 PUSH4 0x2197A384 EQ PUSH2 0x112 JUMPI DUP1 PUSH4 0x30C31870 EQ PUSH2 0x3D7 JUMPI DUP1 PUSH4 0x4A55AFD1 EQ PUSH2 0x3BA JUMPI DUP1 PUSH4 0x4BEFF6F9 EQ PUSH2 0x382 JUMPI DUP1 PUSH4 0x5CD9F722 EQ PUSH2 0x303 JUMPI DUP1 PUSH4 0x8DA5CB5B EQ PUSH2 0x2DA JUMPI DUP1 PUSH4 0xA993983B EQ PUSH2 0x13F JUMPI DUP1 PUSH4 0xD8DB3E3E EQ PUSH2 0x112 JUMPI DUP1 PUSH4 0xDE102FD6 EQ PUSH2 0xE0 JUMPI PUSH4 0xEFFC1823 EQ PUSH2 0xA3 JUMPI PUSH0 DUP1 REVERT JUMPDEST CALLVALUE PUSH2 0xDC JUMPI PUSH1 0x20 CALLDATASIZE PUSH1 0x3 NOT ADD SLT PUSH2 0xDC JUMPI CALLDATALOAD SWAP2 DUP1 SLOAD DUP4 LT ISZERO PUSH2 0xD9 JUMPI POP PUSH2 0xCB PUSH1 0x20 SWAP3 PUSH2 0x55D JUMP JUMPDEST SWAP2 SWAP1 SLOAD SWAP1 MLOAD SWAP2 PUSH1 0x3 SHL SHR DUP2 MSTORE RETURN JUMPDEST DUP1 REVERT JUMPDEST DUP3 DUP1 REVERT JUMPDEST POP CALLVALUE PUSH2 0xDC JUMPI PUSH1 0x20 CALLDATASIZE PUSH1 0x3 NOT ADD SLT PUSH2 0xDC JUMPI CALLDATALOAD DUP3 MSTORE PUSH1 0x1 PUSH1 0x20 SWAP1 DUP2 MSTORE SWAP2 DUP2 SWAP1 KECCAK256 SLOAD SWAP1 MLOAD PUSH1 0x1 PUSH1 0x1 PUSH1 0xA0 SHL SUB SWAP1 SWAP2 AND DUP2 MSTORE RETURN JUMPDEST POP POP CALLVALUE PUSH2 0x13B JUMPI DUP2 PUSH1 0x3 NOT CALLDATASIZE ADD SLT PUSH2 0x13B JUMPI PUSH1 0x5 SLOAD SWAP1 MLOAD PUSH1 0x1 PUSH1 0x1 PUSH1 0xA0 SHL SUB SWAP1 SWAP2 AND DUP2 MSTORE PUSH1 0x20 SWAP1 RETURN JUMPDEST POP DUP1 REVERT JUMPDEST POP SWAP2 SWAP1 PUSH1 0x20 SWAP3 DUP4 PUSH1 0x3 NOT CALLDATASIZE ADD SLT PUSH2 0xDC JUMPI PUSH1 0x5 SLOAD PUSH1 0x1 PUSH1 0x1 PUSH1 0xA0 SHL SUB SWAP4 SWAP1 DUP5 AND CALLER SUB PUSH2 0x29E JUMPI DUP1 SLOAD DUP1 ISZERO SWAP5 SWAP1 DUP6 PUSH2 0x28D JUMPI PUSH0 NOT DUP2 DUP2 ADD SWAP2 DUP3 GT PUSH2 0x27A JUMPI PUSH2 0x185 DUP3 PUSH2 0x55D JUMP JUMPDEST SWAP1 SLOAD SWAP1 PUSH1 0x3 SHL SHR SWAP7 PUSH2 0x267 JUMPI SWAP2 DUP2 PUSH1 0x24 SWAP6 SWAP5 SWAP4 PUSH2 0x1A2 DUP11 SWAP5 PUSH2 0x55D JUMP JUMPDEST SWAP1 SWAP2 DUP3 SLOAD SWAP2 PUSH1 0x3 SHL SHL NOT AND SWAP1 SSTORE DUP4 SSTORE JUMPDEST DUP7 DUP4 MSTORE PUSH1 0x1 DUP3 MSTORE DUP6 DUP4 KECCAK256 SLOAD AND DUP6 MLOAD SWAP5 DUP6 DUP1 SWAP3 PUSH4 0xA993983B PUSH1 0xE0 SHL DUP3 MSTORE DUP7 CALLDATALOAD DUP8 DUP4 ADD MSTORE CALLVALUE SWAP1 GAS CALL SWAP2 DUP3 ISZERO PUSH2 0x25B JUMPI DUP2 SWAP3 PUSH2 0x1F9 JUMPI JUMPDEST POP POP PUSH2 0x1F3 SWAP2 POP DUP4 PUSH2 0x5D1 JUMP JUMPDEST MLOAD SWAP1 DUP2 MSTORE RETURN JUMPDEST SWAP1 SWAP2 POP DUP6 SWAP1 RETURNDATASIZE DUP8 GT PUSH2 0x253 JUMPI JUMPDEST PUSH1 0x1F DUP3 ADD PUSH1 0x1F NOT AND DUP5 ADD SWAP1 PUSH8 0xFFFFFFFFFFFFFFFF DUP3 GT DUP6 DUP4 LT OR PUSH2 0x240 JUMPI POP DUP7 SWAP2 DUP5 SWAP2 DUP7 MSTORE DUP2 ADD SUB SLT PUSH2 0xD9 JUMPI POP PUSH2 0x1F3 SWAP1 MLOAD PUSH0 DUP1 PUSH2 0x1E6 JUMP JUMPDEST PUSH4 0x4E487B71 PUSH1 0xE0 SHL DUP5 MSTORE PUSH1 0x41 SWAP1 MSTORE PUSH1 0x24 DUP4 REVERT JUMPDEST RETURNDATASIZE SWAP2 POP PUSH2 0x206 JUMP JUMPDEST POP DUP4 MLOAD SWAP1 RETURNDATASIZE SWAP1 DUP3 RETURNDATACOPY RETURNDATASIZE SWAP1 REVERT JUMPDEST PUSH4 0x4E487B71 PUSH1 0xE0 SHL DUP5 MSTORE PUSH1 0x31 DUP6 MSTORE PUSH1 0x24 DUP5 REVERT JUMPDEST PUSH4 0x4E487B71 PUSH1 0xE0 SHL DUP5 MSTORE PUSH1 0x11 DUP6 MSTORE PUSH1 0x24 DUP5 REVERT JUMPDEST POP SWAP4 POP SWAP1 PUSH1 0x24 SWAP2 DUP6 PUSH1 0x6 SLOAD SWAP6 PUSH2 0x1B2 JUMP JUMPDEST POP DUP4 PUSH1 0x64 SWAP3 MLOAD SWAP2 PUSH3 0x461BCD PUSH1 0xE5 SHL DUP4 MSTORE DUP3 ADD MSTORE PUSH1 0x17 PUSH1 0x24 DUP3 ADD MSTORE PUSH23 0x139BDD081D1A19481A5B9D185AD94818DBDB9D1C9858DD PUSH1 0x4A SHL PUSH1 0x44 DUP3 ADD MSTORE REVERT JUMPDEST POP POP CALLVALUE PUSH2 0x13B JUMPI DUP2 PUSH1 0x3 NOT CALLDATASIZE ADD SLT PUSH2 0x13B JUMPI PUSH1 0x3 SLOAD SWAP1 MLOAD PUSH1 0x1 PUSH1 0x1 PUSH1 0xA0 SHL SUB SWAP1 SWAP2 AND DUP2 MSTORE PUSH1 0x20 SWAP1 RETURN JUMPDEST POP CALLVALUE PUSH2 0xDC JUMPI DUP2 PUSH1 0x3 NOT CALLDATASIZE ADD SLT PUSH2 0xDC JUMPI DUP1 CALLDATALOAD DUP1 DUP5 MSTORE PUSH1 0x1 PUSH1 0x20 MSTORE DUP3 DUP5 KECCAK256 SLOAD SWAP1 SWAP3 SWAP1 PUSH1 0x1 PUSH1 0x1 PUSH1 0xA0 SHL SUB AND CALLER SUB PUSH2 0x344 JUMPI DUP4 PUSH2 0x341 PUSH1 0x24 CALLDATALOAD DUP6 PUSH2 0x5D1 JUMP JUMPDEST DUP1 RETURN JUMPDEST SWAP1 PUSH1 0x20 PUSH1 0x64 SWAP3 MLOAD SWAP2 PUSH3 0x461BCD PUSH1 0xE5 SHL DUP4 MSTORE DUP3 ADD MSTORE PUSH1 0x18 PUSH1 0x24 DUP3 ADD MSTORE PUSH24 0x139BDD08185D5D1A1BDC9A5E9959081D1BC81C995C1BDC9D PUSH1 0x42 SHL PUSH1 0x44 DUP3 ADD MSTORE REVERT JUMPDEST POP CALLVALUE PUSH2 0xDC JUMPI PUSH1 0x20 CALLDATASIZE PUSH1 0x3 NOT ADD SLT PUSH2 0xDC JUMPI SWAP2 DUP2 SWAP3 CALLDATALOAD DUP2 MSTORE PUSH1 0x1 PUSH1 0x20 MSTORE KECCAK256 PUSH1 0x1 DUP1 DUP1 PUSH1 0xA0 SHL SUB DUP3 SLOAD AND SWAP2 ADD SLOAD DUP3 MLOAD SWAP2 DUP3 MSTORE PUSH1 0x20 DUP3 ADD MSTORE RETURN JUMPDEST POP CALLVALUE PUSH2 0xDC JUMPI DUP3 PUSH1 0x3 NOT CALLDATASIZE ADD SLT PUSH2 0xDC JUMPI PUSH1 0x20 SWAP3 POP SLOAD SWAP1 MLOAD SWAP1 DUP2 MSTORE RETURN JUMPDEST POP POP CALLVALUE PUSH2 0x13B JUMPI DUP2 PUSH1 0x3 NOT CALLDATASIZE ADD SLT PUSH2 0x13B JUMPI PUSH1 0x20 SWAP1 PUSH1 0x6 SLOAD SWAP1 MLOAD SWAP1 DUP2 MSTORE RETURN JUMPDEST POP CALLVALUE PUSH2 0xDC JUMPI PUSH1 0x20 CALLDATASIZE PUSH1 0x3 NOT ADD SLT PUSH2 0xDC JUMPI CALLDATALOAD PUSH1 0x1 PUSH1 0x1 PUSH1 0xA0 SHL SUB DUP2 AND SWAP1 DUP2 SWAP1 SUB PUSH2 0xDC JUMPI DUP3 DUP3 SWAP2 PUSH1 0x20 SWAP5 MSTORE PUSH1 0x2 DUP5 MSTORE KECCAK256 SLOAD SWAP1 MLOAD SWAP1 DUP2 MSTORE RETURN JUMPDEST SWAP1 POP DUP3 DUP5 CALLVALUE PUSH2 0xD9 JUMPI PUSH1 0x20 SWAP4 DUP5 PUSH1 0x3 NOT CALLDATASIZE ADD SLT PUSH2 0x13B JUMPI PUSH1 0x1 PUSH1 0x1 PUSH1 0xA0 SHL SUB DUP2 CALLDATALOAD DUP2 DUP2 AND SWAP6 SWAP1 DUP7 SWAP1 SUB PUSH2 0x559 JUMPI DUP2 PUSH1 0x3 SLOAD AND ORIGIN SUB PUSH2 0x51F JUMPI POP DUP4 MLOAD SWAP1 DUP5 DUP3 ADD DUP3 DUP2 LT PUSH8 0xFFFFFFFFFFFFFFFF DUP3 GT OR PUSH2 0x50C JUMPI DUP6 MSTORE DUP6 DUP3 MSTORE DUP7 DUP3 ADD DUP5 DUP2 MSTORE DUP4 SLOAD DUP6 MSTORE PUSH1 0x1 DUP1 DUP10 MSTORE DUP7 DUP7 KECCAK256 SWAP4 MLOAD DUP5 SLOAD PUSH1 0x1 PUSH1 0x1 PUSH1 0xA0 SHL SUB NOT AND SWAP4 AND SWAP3 SWAP1 SWAP3 OR DUP4 SSTORE MLOAD SWAP2 ADD SSTORE DUP1 SLOAD PUSH2 0x4BD SWAP1 PUSH2 0x589 JUMP JUMPDEST DUP1 SLOAD SWAP4 DUP3 MSTORE PUSH1 0x2 DUP6 MSTORE DUP4 DUP4 DUP4 KECCAK256 SSTORE PUSH1 0x6 SLOAD PUSH2 0x503 JUMPI JUMPDEST PUSH0 NOT DUP5 EQ PUSH2 0x4F0 JUMPI PUSH1 0x1 DUP5 ADD DUP1 DUP3 SSTORE DUP5 GT PUSH2 0x4F0 JUMPI POP POP MLOAD SWAP1 DUP2 MSTORE RETURN JUMPDEST PUSH4 0x4E487B71 PUSH1 0xE0 SHL DUP3 MSTORE PUSH1 0x11 SWAP1 MSTORE PUSH1 0x24 SWAP1 REVERT JUMPDEST DUP4 PUSH1 0x6 SSTORE PUSH2 0x4D3 JUMP JUMPDEST PUSH4 0x4E487B71 PUSH1 0xE0 SHL DUP6 MSTORE PUSH1 0x41 DUP5 MSTORE PUSH1 0x24 DUP6 REVERT JUMPDEST PUSH3 0x461BCD PUSH1 0xE5 SHL DUP2 MSTORE DUP3 DUP2 ADD DUP8 SWAP1 MSTORE PUSH1 0x16 PUSH1 0x24 DUP3 ADD MSTORE PUSH22 0x2737BA103A34329031B7B73A3930B1BA1037BBB732B9 PUSH1 0x51 SHL PUSH1 0x44 DUP3 ADD MSTORE PUSH1 0x64 SWAP1 REVERT JUMPDEST DUP4 DUP1 REVERT JUMPDEST SWAP1 PUSH0 SWAP2 DUP3 SLOAD DUP2 LT ISZERO PUSH2 0x575 JUMPI DUP3 DUP1 MSTORE PUSH1 0x20 DUP4 KECCAK256 ADD SWAP2 SWAP1 JUMP JUMPDEST PUSH4 0x4E487B71 PUSH1 0xE0 SHL DUP4 MSTORE PUSH1 0x32 PUSH1 0x4 MSTORE PUSH1 0x24 DUP4 REVERT JUMPDEST PUSH0 SLOAD PUSH1 0x1 PUSH1 0x40 SHL DUP2 LT ISZERO PUSH2 0x5BD JUMPI DUP1 PUSH1 0x1 PUSH2 0x5A6 SWAP3 ADD PUSH0 SSTORE PUSH2 0x55D JUMP JUMPDEST DUP2 SWAP3 SWAP2 SLOAD SWAP1 PUSH1 0x3 SHL SWAP2 DUP3 SHL SWAP2 PUSH0 NOT SWAP1 SHL NOT AND OR SWAP1 SSTORE JUMP JUMPDEST PUSH4 0x4E487B71 PUSH1 0xE0 SHL PUSH0 MSTORE PUSH1 0x41 PUSH1 0x4 MSTORE PUSH1 0x24 PUSH0 REVERT JUMPDEST SWAP1 DUP2 PUSH0 MSTORE PUSH1 0x1 PUSH1 0x20 MSTORE DUP1 PUSH1 0x1 PUSH1 0x40 PUSH0 KECCAK256 ADD SSTORE DUP1 ISZERO PUSH2 0x61D JUMPI JUMPDEST PUSH1 0x6 SLOAD PUSH0 MSTORE PUSH1 0x1 PUSH1 0x20 MSTORE PUSH1 0x1 PUSH1 0x40 PUSH0 KECCAK256 ADD SLOAD DUP1 SWAP2 LT SWAP1 DUP2 ISZERO PUSH2 0x614 JUMPI JUMPDEST POP PUSH2 0x60F JUMPI POP JUMP JUMPDEST PUSH1 0x6 SSTORE JUMP JUMPDEST SWAP1 POP ISZERO PUSH0 PUSH2 0x607 JUMP JUMPDEST PUSH2 0x626 DUP3 PUSH2 0x589 JUMP JUMPDEST PUSH2 0x5EA JUMP INVALID LOG2 PUSH5 0x6970667358 0x22 SLT KECCAK256 BALANCE ISZERO 0x4E PUSH0 SWAP8 0xC5 BYTE TIMESTAMP PUSH5 0xAC5C35A9BB SWAP10 PUSH24 0xD7A7B45E6918135248D454134A470B7564736F6C63430008 EQ STOP CALLER "},"methodIdentifiers":{"addLane(address)":"00d36e40","appendToLane(uint256)":"a993983b","getIntakeContractAddress()":"2197a384","getLaneContractAddress(uint256)":"de102fd6","intakeContract()":"d8db3e3e","laneAddresses(address)":"182f9fe1","laneCount()":"4a55afd1","laneMap(uint256)":"4beff6f9","lowestLaneLengthId()":"30c31870","owner()":"8da5cb5b","reportLaneLength(uint256,uint256)":"5cd9f722","zeroLengthArray(uint256)":"effc1823"}}}}}