{"contracts/CommunitiesLaneRegistry.sol":{"LaneRegistry":{"abi":[{"inputs":[{"internalType":"address","name":"_contractAddress","type":"address"}],"stateMutability":"nonpayable","type":"constructor"},{"inputs":[{"internalType":"address","name":"_contractAddress","type":"address"}],"name":"addLane","outputs":[],"stateMutability":"nonpayable","type":"function"},{"inputs":[{"internalType":"uint256","name":"proposalId","type":"uint256"}],"name":"appendToLane","outputs":[],"stateMutability":"nonpayable","type":"function"},{"inputs":[],"name":"intakeContract","outputs":[{"internalType":"address","name":"","type":"address"}],"stateMutability":"view","type":"function"},{"inputs":[],"name":"laneCount","outputs":[{"internalType":"uint256","name":"","type":"uint256"}],"stateMutability":"view","type":"function"},{"inputs":[{"internalType":"uint256","name":"","type":"uint256"}],"name":"laneMap","outputs":[{"internalType":"address","name":"contractAddress","type":"address"},{"internalType":"uint256","name":"activeLanesIndex","type":"uint256"},{"internalType":"uint256","name":"laneLength","type":"uint256"}],"stateMutability":"view","type":"function"},{"inputs":[],"name":"lowestLaneLengthId","outputs":[{"internalType":"uint256","name":"","type":"uint256"}],"stateMutability":"view","type":"function"},{"inputs":[],"name":"owner","outputs":[{"internalType":"address","name":"","type":"address"}],"stateMutability":"view","type":"function"},{"inputs":[{"internalType":"uint256","name":"laneId","type":"uint256"},{"internalType":"uint256","name":"newLength","type":"uint256"}],"name":"reportLaneLength","outputs":[],"stateMutability":"nonpayable","type":"function"}],"evm":{"bytecode":{"linkReferences":{},"object":"60803461008357601f61067c38819003918201601f19168301916001600160401b038311848410176100875780849260209460405283398101031261008357516001600160a01b038116908190036100835760018060a01b031933816003541617600355600160045560055416176005555f6006556040516105e0908161009c8239f35b5f80fd5b634e487b7160e01b5f52604160045260245ffdfe6080604081815260049182361015610015575f80fd5b5f92833560e01c918262d36e40146103645750816330c31870146103455781634a55afd1146103275781634beff6f9146102e15781635cd9f722146102645781638da5cb5b1461023b578163a993983b146100a4575063d8db3e3e14610079575f80fd5b346100a057816003193601126100a05760055490516001600160a01b039091168152602090f35b5080fd5b839150346100a057602092836003193601126101a2576005546001600160a01b0394908516330361020057835480159290836101f1575f198181019182116101de576100ef826104dc565b90549060031b1c946101cb579681879861010986946104dc565b909182549160031b1b1916905587555b848752600282528287205416602483518098819363a993983b60e01b835289358a8401525af19384156101c157869461015b575b866101588686610550565b80f35b909180939450913d84116101b9575b601f8301601f191686019167ffffffffffffffff8311878410176101a65750528301839003126101a25761015891519084808061014d565b8280fd5b634e487b7160e01b885260419052602487fd5b3d925061016a565b81513d88823e3d90fd5b634e487b7160e01b875260318652602487fd5b634e487b7160e01b875260118652602487fd5b50849592508160065493610119565b905162461bcd60e51b8152918201526017602482015276139bdd081d1a19481a5b9d185ad94818dbdb9d1c9858dd604a1b6044820152606490fd5b5050346100a057816003193601126100a05760035490516001600160a01b039091168152602090f35b9050346101a257816003193601126101a25780358084526002602052828420549092906001600160a01b031633036102a3578361015860243585610550565b906020606492519162461bcd60e51b83528201526018602482015277139bdd08185d5d1a1bdc9a5e9959081d1bc81c995c1bdc9d60421b6044820152fd5b9050346101a25760203660031901126101a257606092829135815260026020522060018060a01b0381541691600260018301549201549181519384526020840152820152f35b9050346101a257826003193601126101a25760209250549051908152f35b5050346100a057816003193601126100a0576020906006549051908152f35b915091346104d85760203660031901126104d8576001600160a01b039183358381169291908390036104d4578360035416330361049a57506001928354908251936060850185811067ffffffffffffffff8211176104875784528452602080850192835284840188815287548952600291829052938820945185546001600160a01b03191692169190911784559051848401559051910155815461040790610508565b81548154600160401b81101561047457828101808455811015610461578190838652602086200155600654610458575b5f1981146104455701905580f35b634e487b7160e01b845260118352602484fd5b80600655610437565b634e487b7160e01b855260328452602485fd5b634e487b7160e01b855260418452602485fd5b634e487b7160e01b895260418852602489fd5b62461bcd60e51b815260208582015260166024820152752737ba103a34329031b7b73a3930b1ba1037bbb732b960511b6044820152606490fd5b8580fd5b8380fd5b905f9182548110156104f45782805260208320019190565b634e487b7160e01b83526032600452602483fd5b5f54600160401b81101561053c5780600161052592015f556104dc565b819291549060031b91821b915f19901b1916179055565b634e487b7160e01b5f52604160045260245ffd5b90815f52600260205280600260405f200155801561059c575b6006545f526002602052600260405f200154809110908115610593575b5061058e5750565b600655565b9050155f610586565b6105a582610508565b61056956fea264697066735822122009b3e9916dbd3870482bcf9af8620a5cc13e9e427d18a72da36151d25775f1be64736f6c63430008140033","opcodes":"PUSH1 0x80 CALLVALUE PUSH2 0x83 JUMPI PUSH1 0x1F PUSH2 0x67C CODESIZE DUP2 SWAP1 SUB SWAP2 DUP3 ADD PUSH1 0x1F NOT AND DUP4 ADD SWAP2 PUSH1 0x1 PUSH1 0x1 PUSH1 0x40 SHL SUB DUP4 GT DUP5 DUP5 LT OR PUSH2 0x87 JUMPI DUP1 DUP5 SWAP3 PUSH1 0x20 SWAP5 PUSH1 0x40 MSTORE DUP4 CODECOPY DUP2 ADD SUB SLT PUSH2 0x83 JUMPI MLOAD PUSH1 0x1 PUSH1 0x1 PUSH1 0xA0 SHL SUB DUP2 AND SWAP1 DUP2 SWAP1 SUB PUSH2 0x83 JUMPI PUSH1 0x1 DUP1 PUSH1 0xA0 SHL SUB NOT CALLER DUP2 PUSH1 0x3 SLOAD AND OR PUSH1 0x3 SSTORE PUSH1 0x1 PUSH1 0x4 SSTORE PUSH1 0x5 SLOAD AND OR PUSH1 0x5 SSTORE PUSH0 PUSH1 0x6 SSTORE PUSH1 0x40 MLOAD PUSH2 0x5E0 SWAP1 DUP2 PUSH2 0x9C DUP3 CODECOPY RETURN JUMPDEST PUSH0 DUP1 REVERT JUMPDEST PUSH4 0x4E487B71 PUSH1 0xE0 SHL PUSH0 MSTORE PUSH1 0x41 PUSH1 0x4 MSTORE PUSH1 0x24 PUSH0 REVERT INVALID PUSH1 0x80 PUSH1 0x40 DUP2 DUP2 MSTORE PUSH1 0x4 SWAP2 DUP3 CALLDATASIZE LT ISZERO PUSH2 0x15 JUMPI PUSH0 DUP1 REVERT JUMPDEST PUSH0 SWAP3 DUP4 CALLDATALOAD PUSH1 0xE0 SHR SWAP2 DUP3 PUSH3 0xD36E40 EQ PUSH2 0x364 JUMPI POP DUP2 PUSH4 0x30C31870 EQ PUSH2 0x345 JUMPI DUP2 PUSH4 0x4A55AFD1 EQ PUSH2 0x327 JUMPI DUP2 PUSH4 0x4BEFF6F9 EQ PUSH2 0x2E1 JUMPI DUP2 PUSH4 0x5CD9F722 EQ PUSH2 0x264 JUMPI DUP2 PUSH4 0x8DA5CB5B EQ PUSH2 0x23B JUMPI DUP2 PUSH4 0xA993983B EQ PUSH2 0xA4 JUMPI POP PUSH4 0xD8DB3E3E EQ PUSH2 0x79 JUMPI PUSH0 DUP1 REVERT JUMPDEST CALLVALUE PUSH2 0xA0 JUMPI DUP2 PUSH1 0x3 NOT CALLDATASIZE ADD SLT PUSH2 0xA0 JUMPI PUSH1 0x5 SLOAD SWAP1 MLOAD PUSH1 0x1 PUSH1 0x1 PUSH1 0xA0 SHL SUB SWAP1 SWAP2 AND DUP2 MSTORE PUSH1 0x20 SWAP1 RETURN JUMPDEST POP DUP1 REVERT JUMPDEST DUP4 SWAP2 POP CALLVALUE PUSH2 0xA0 JUMPI PUSH1 0x20 SWAP3 DUP4 PUSH1 0x3 NOT CALLDATASIZE ADD SLT PUSH2 0x1A2 JUMPI PUSH1 0x5 SLOAD PUSH1 0x1 PUSH1 0x1 PUSH1 0xA0 SHL SUB SWAP5 SWAP1 DUP6 AND CALLER SUB PUSH2 0x200 JUMPI DUP4 SLOAD DUP1 ISZERO SWAP3 SWAP1 DUP4 PUSH2 0x1F1 JUMPI PUSH0 NOT DUP2 DUP2 ADD SWAP2 DUP3 GT PUSH2 0x1DE JUMPI PUSH2 0xEF DUP3 PUSH2 0x4DC JUMP JUMPDEST SWAP1 SLOAD SWAP1 PUSH1 0x3 SHL SHR SWAP5 PUSH2 0x1CB JUMPI SWAP7 DUP2 DUP8 SWAP9 PUSH2 0x109 DUP7 SWAP5 PUSH2 0x4DC JUMP JUMPDEST SWAP1 SWAP2 DUP3 SLOAD SWAP2 PUSH1 0x3 SHL SHL NOT AND SWAP1 SSTORE DUP8 SSTORE JUMPDEST DUP5 DUP8 MSTORE PUSH1 0x2 DUP3 MSTORE DUP3 DUP8 KECCAK256 SLOAD AND PUSH1 0x24 DUP4 MLOAD DUP1 SWAP9 DUP2 SWAP4 PUSH4 0xA993983B PUSH1 0xE0 SHL DUP4 MSTORE DUP10 CALLDATALOAD DUP11 DUP5 ADD MSTORE GAS CALL SWAP4 DUP5 ISZERO PUSH2 0x1C1 JUMPI DUP7 SWAP5 PUSH2 0x15B JUMPI JUMPDEST DUP7 PUSH2 0x158 DUP7 DUP7 PUSH2 0x550 JUMP JUMPDEST DUP1 RETURN JUMPDEST SWAP1 SWAP2 DUP1 SWAP4 SWAP5 POP SWAP2 RETURNDATASIZE DUP5 GT PUSH2 0x1B9 JUMPI JUMPDEST PUSH1 0x1F DUP4 ADD PUSH1 0x1F NOT AND DUP7 ADD SWAP2 PUSH8 0xFFFFFFFFFFFFFFFF DUP4 GT DUP8 DUP5 LT OR PUSH2 0x1A6 JUMPI POP MSTORE DUP4 ADD DUP4 SWAP1 SUB SLT PUSH2 0x1A2 JUMPI PUSH2 0x158 SWAP2 MLOAD SWAP1 DUP5 DUP1 DUP1 PUSH2 0x14D JUMP JUMPDEST DUP3 DUP1 REVERT JUMPDEST PUSH4 0x4E487B71 PUSH1 0xE0 SHL DUP9 MSTORE PUSH1 0x41 SWAP1 MSTORE PUSH1 0x24 DUP8 REVERT JUMPDEST RETURNDATASIZE SWAP3 POP PUSH2 0x16A JUMP JUMPDEST DUP2 MLOAD RETURNDATASIZE DUP9 DUP3 RETURNDATACOPY RETURNDATASIZE SWAP1 REVERT JUMPDEST PUSH4 0x4E487B71 PUSH1 0xE0 SHL DUP8 MSTORE PUSH1 0x31 DUP7 MSTORE PUSH1 0x24 DUP8 REVERT JUMPDEST PUSH4 0x4E487B71 PUSH1 0xE0 SHL DUP8 MSTORE PUSH1 0x11 DUP7 MSTORE PUSH1 0x24 DUP8 REVERT JUMPDEST POP DUP5 SWAP6 SWAP3 POP DUP2 PUSH1 0x6 SLOAD SWAP4 PUSH2 0x119 JUMP JUMPDEST SWAP1 MLOAD PUSH3 0x461BCD PUSH1 0xE5 SHL DUP2 MSTORE SWAP2 DUP3 ADD MSTORE PUSH1 0x17 PUSH1 0x24 DUP3 ADD MSTORE PUSH23 0x139BDD081D1A19481A5B9D185AD94818DBDB9D1C9858DD PUSH1 0x4A SHL PUSH1 0x44 DUP3 ADD MSTORE PUSH1 0x64 SWAP1 REVERT JUMPDEST POP POP CALLVALUE PUSH2 0xA0 JUMPI DUP2 PUSH1 0x3 NOT CALLDATASIZE ADD SLT PUSH2 0xA0 JUMPI PUSH1 0x3 SLOAD SWAP1 MLOAD PUSH1 0x1 PUSH1 0x1 PUSH1 0xA0 SHL SUB SWAP1 SWAP2 AND DUP2 MSTORE PUSH1 0x20 SWAP1 RETURN JUMPDEST SWAP1 POP CALLVALUE PUSH2 0x1A2 JUMPI DUP2 PUSH1 0x3 NOT CALLDATASIZE ADD SLT PUSH2 0x1A2 JUMPI DUP1 CALLDATALOAD DUP1 DUP5 MSTORE PUSH1 0x2 PUSH1 0x20 MSTORE DUP3 DUP5 KECCAK256 SLOAD SWAP1 SWAP3 SWAP1 PUSH1 0x1 PUSH1 0x1 PUSH1 0xA0 SHL SUB AND CALLER SUB PUSH2 0x2A3 JUMPI DUP4 PUSH2 0x158 PUSH1 0x24 CALLDATALOAD DUP6 PUSH2 0x550 JUMP JUMPDEST SWAP1 PUSH1 0x20 PUSH1 0x64 SWAP3 MLOAD SWAP2 PUSH3 0x461BCD PUSH1 0xE5 SHL DUP4 MSTORE DUP3 ADD MSTORE PUSH1 0x18 PUSH1 0x24 DUP3 ADD MSTORE PUSH24 0x139BDD08185D5D1A1BDC9A5E9959081D1BC81C995C1BDC9D PUSH1 0x42 SHL PUSH1 0x44 DUP3 ADD MSTORE REVERT JUMPDEST SWAP1 POP CALLVALUE PUSH2 0x1A2 JUMPI PUSH1 0x20 CALLDATASIZE PUSH1 0x3 NOT ADD SLT PUSH2 0x1A2 JUMPI PUSH1 0x60 SWAP3 DUP3 SWAP2 CALLDATALOAD DUP2 MSTORE PUSH1 0x2 PUSH1 0x20 MSTORE KECCAK256 PUSH1 0x1 DUP1 PUSH1 0xA0 SHL SUB DUP2 SLOAD AND SWAP2 PUSH1 0x2 PUSH1 0x1 DUP4 ADD SLOAD SWAP3 ADD SLOAD SWAP2 DUP2 MLOAD SWAP4 DUP5 MSTORE PUSH1 0x20 DUP5 ADD MSTORE DUP3 ADD MSTORE RETURN JUMPDEST SWAP1 POP CALLVALUE PUSH2 0x1A2 JUMPI DUP3 PUSH1 0x3 NOT CALLDATASIZE ADD SLT PUSH2 0x1A2 JUMPI PUSH1 0x20 SWAP3 POP SLOAD SWAP1 MLOAD SWAP1 DUP2 MSTORE RETURN JUMPDEST POP POP CALLVALUE PUSH2 0xA0 JUMPI DUP2 PUSH1 0x3 NOT CALLDATASIZE ADD SLT PUSH2 0xA0 JUMPI PUSH1 0x20 SWAP1 PUSH1 0x6 SLOAD SWAP1 MLOAD SWAP1 DUP2 MSTORE RETURN JUMPDEST SWAP2 POP SWAP2 CALLVALUE PUSH2 0x4D8 JUMPI PUSH1 0x20 CALLDATASIZE PUSH1 0x3 NOT ADD SLT PUSH2 0x4D8 JUMPI PUSH1 0x1 PUSH1 0x1 PUSH1 0xA0 SHL SUB SWAP2 DUP4 CALLDATALOAD DUP4 DUP2 AND SWAP3 SWAP2 SWAP1 DUP4 SWAP1 SUB PUSH2 0x4D4 JUMPI DUP4 PUSH1 0x3 SLOAD AND CALLER SUB PUSH2 0x49A JUMPI POP PUSH1 0x1 SWAP3 DUP4 SLOAD SWAP1 DUP3 MLOAD SWAP4 PUSH1 0x60 DUP6 ADD DUP6 DUP2 LT PUSH8 0xFFFFFFFFFFFFFFFF DUP3 GT OR PUSH2 0x487 JUMPI DUP5 MSTORE DUP5 MSTORE PUSH1 0x20 DUP1 DUP6 ADD SWAP3 DUP4 MSTORE DUP5 DUP5 ADD DUP9 DUP2 MSTORE DUP8 SLOAD DUP10 MSTORE PUSH1 0x2 SWAP2 DUP3 SWAP1 MSTORE SWAP4 DUP9 KECCAK256 SWAP5 MLOAD DUP6 SLOAD PUSH1 0x1 PUSH1 0x1 PUSH1 0xA0 SHL SUB NOT AND SWAP3 AND SWAP2 SWAP1 SWAP2 OR DUP5 SSTORE SWAP1 MLOAD DUP5 DUP5 ADD SSTORE SWAP1 MLOAD SWAP2 ADD SSTORE DUP2 SLOAD PUSH2 0x407 SWAP1 PUSH2 0x508 JUMP JUMPDEST DUP2 SLOAD DUP2 SLOAD PUSH1 0x1 PUSH1 0x40 SHL DUP2 LT ISZERO PUSH2 0x474 JUMPI DUP3 DUP2 ADD DUP1 DUP5 SSTORE DUP2 LT ISZERO PUSH2 0x461 JUMPI DUP2 SWAP1 DUP4 DUP7 MSTORE PUSH1 0x20 DUP7 KECCAK256 ADD SSTORE PUSH1 0x6 SLOAD PUSH2 0x458 JUMPI JUMPDEST PUSH0 NOT DUP2 EQ PUSH2 0x445 JUMPI ADD SWAP1 SSTORE DUP1 RETURN JUMPDEST PUSH4 0x4E487B71 PUSH1 0xE0 SHL DUP5 MSTORE PUSH1 0x11 DUP4 MSTORE PUSH1 0x24 DUP5 REVERT JUMPDEST DUP1 PUSH1 0x6 SSTORE PUSH2 0x437 JUMP JUMPDEST PUSH4 0x4E487B71 PUSH1 0xE0 SHL DUP6 MSTORE PUSH1 0x32 DUP5 MSTORE PUSH1 0x24 DUP6 REVERT JUMPDEST PUSH4 0x4E487B71 PUSH1 0xE0 SHL DUP6 MSTORE PUSH1 0x41 DUP5 MSTORE PUSH1 0x24 DUP6 REVERT JUMPDEST PUSH4 0x4E487B71 PUSH1 0xE0 SHL DUP10 MSTORE PUSH1 0x41 DUP9 MSTORE PUSH1 0x24 DUP10 REVERT JUMPDEST PUSH3 0x461BCD PUSH1 0xE5 SHL DUP2 MSTORE PUSH1 0x20 DUP6 DUP3 ADD MSTORE PUSH1 0x16 PUSH1 0x24 DUP3 ADD MSTORE PUSH22 0x2737BA103A34329031B7B73A3930B1BA1037BBB732B9 PUSH1 0x51 SHL PUSH1 0x44 DUP3 ADD MSTORE PUSH1 0x64 SWAP1 REVERT JUMPDEST DUP6 DUP1 REVERT JUMPDEST DUP4 DUP1 REVERT JUMPDEST SWAP1 PUSH0 SWAP2 DUP3 SLOAD DUP2 LT ISZERO PUSH2 0x4F4 JUMPI DUP3 DUP1 MSTORE PUSH1 0x20 DUP4 KECCAK256 ADD SWAP2 SWAP1 JUMP JUMPDEST PUSH4 0x4E487B71 PUSH1 0xE0 SHL DUP4 MSTORE PUSH1 0x32 PUSH1 0x4 MSTORE PUSH1 0x24 DUP4 REVERT JUMPDEST PUSH0 SLOAD PUSH1 0x1 PUSH1 0x40 SHL DUP2 LT ISZERO PUSH2 0x53C JUMPI DUP1 PUSH1 0x1 PUSH2 0x525 SWAP3 ADD PUSH0 SSTORE PUSH2 0x4DC JUMP JUMPDEST DUP2 SWAP3 SWAP2 SLOAD SWAP1 PUSH1 0x3 SHL SWAP2 DUP3 SHL SWAP2 PUSH0 NOT SWAP1 SHL NOT AND OR SWAP1 SSTORE JUMP JUMPDEST PUSH4 0x4E487B71 PUSH1 0xE0 SHL PUSH0 MSTORE PUSH1 0x41 PUSH1 0x4 MSTORE PUSH1 0x24 PUSH0 REVERT JUMPDEST SWAP1 DUP2 PUSH0 MSTORE PUSH1 0x2 PUSH1 0x20 MSTORE DUP1 PUSH1 0x2 PUSH1 0x40 PUSH0 KECCAK256 ADD SSTORE DUP1 ISZERO PUSH2 0x59C JUMPI JUMPDEST PUSH1 0x6 SLOAD PUSH0 MSTORE PUSH1 0x2 PUSH1 0x20 MSTORE PUSH1 0x2 PUSH1 0x40 PUSH0 KECCAK256 ADD SLOAD DUP1 SWAP2 LT SWAP1 DUP2 ISZERO PUSH2 0x593 JUMPI JUMPDEST POP PUSH2 0x58E JUMPI POP JUMP JUMPDEST PUSH1 0x6 SSTORE JUMP JUMPDEST SWAP1 POP ISZERO PUSH0 PUSH2 0x586 JUMP JUMPDEST PUSH2 0x5A5 DUP3 PUSH2 0x508 JUMP JUMPDEST PUSH2 0x569 JUMP INVALID LOG2 PUSH5 0x6970667358 0x22 SLT KECCAK256 MULMOD 0xB3 0xE9 SWAP2 PUSH14 0xBD3870482BCF9AF8620A5CC13E9E TIMESTAMP PUSH30 0x18A72DA36151D25775F1BE64736F6C634300081400330000000000000000 "},"methodIdentifiers":{"addLane(address)":"00d36e40","appendToLane(uint256)":"a993983b","intakeContract()":"d8db3e3e","laneCount()":"4a55afd1","laneMap(uint256)":"4beff6f9","lowestLaneLengthId()":"30c31870","owner()":"8da5cb5b","reportLaneLength(uint256,uint256)":"5cd9f722"}}}}}