{"contracts/tgetherIncentives.sol":{"tgetherIncentives":{"abi":[{"inputs":[{"internalType":"uint256","name":"_feePrice","type":"uint256"},{"internalType":"address","name":"_communityContractAddress","type":"address"},{"internalType":"uint256","name":"_communityFee","type":"uint256"},{"internalType":"address","name":"_fundContract","type":"address"}],"stateMutability":"nonpayable","type":"constructor"},{"anonymous":false,"inputs":[{"indexed":false,"internalType":"uint256","name":"porposalId","type":"uint256"},{"indexed":false,"internalType":"address","name":"proposer","type":"address"},{"indexed":false,"internalType":"string","name":"communityName","type":"string"},{"indexed":false,"internalType":"enum tgetherIncentives.IncentiveStructure","name":"structure","type":"uint8"},{"indexed":false,"internalType":"uint256","name":"communityFee","type":"uint256"},{"indexed":false,"internalType":"address payable","name":"contractRecieveAddress","type":"address"}],"name":"IncentiveProposalCreated","type":"event"},{"anonymous":false,"inputs":[{"indexed":false,"internalType":"string","name":"communityName","type":"string"},{"indexed":false,"internalType":"enum tgetherIncentives.IncentiveStructure","name":"structure","type":"uint8"},{"indexed":false,"internalType":"uint256","name":"communityFee","type":"uint256"},{"indexed":false,"internalType":"address payable","name":"contractRecieveAddress","type":"address"}],"name":"IncentiveStructureSet","type":"event"},{"anonymous":false,"inputs":[{"indexed":false,"internalType":"string","name":"communityName","type":"string"},{"indexed":false,"internalType":"enum tgetherIncentives.IncentiveStructure","name":"structure","type":"uint8"},{"indexed":false,"internalType":"uint256","name":"communityFee","type":"uint256"},{"indexed":false,"internalType":"address payable","name":"contractRecieveAddress","type":"address"}],"name":"IncetniveParamsUpdated","type":"event"},{"inputs":[],"name":"CommunityContract","outputs":[{"internalType":"contract tgetherCommuunitiesInterfact","name":"","type":"address"}],"stateMutability":"view","type":"function"},{"inputs":[{"internalType":"uint256","name":"","type":"uint256"}],"name":"ContractParameterKeys","outputs":[{"internalType":"string","name":"","type":"string"}],"stateMutability":"view","type":"function"},{"inputs":[],"name":"FundContract","outputs":[{"internalType":"contract tgetherFundInterface","name":"","type":"address"}],"stateMutability":"view","type":"function"},{"inputs":[{"internalType":"uint256","name":"","type":"uint256"}],"name":"IncentiveProposals","outputs":[{"internalType":"address","name":"proposer","type":"address"},{"internalType":"string","name":"communityName","type":"string"},{"internalType":"enum tgetherIncentives.IncentiveStructure","name":"structure","type":"uint8"},{"internalType":"uint256","name":"communityFee","type":"uint256"},{"internalType":"address payable","name":"contractRecieveAddress","type":"address"},{"internalType":"bool","name":"upkeeped","type":"bool"},{"internalType":"bool","name":"passed","type":"bool"}],"stateMutability":"view","type":"function"},{"inputs":[{"internalType":"string","name":"","type":"string"}],"name":"IncentiveStructures","outputs":[{"internalType":"enum tgetherIncentives.IncentiveStructure","name":"structure","type":"uint8"},{"internalType":"uint256","name":"communityFee","type":"uint256"},{"internalType":"address payable","name":"contractRecieveAddress","type":"address"},{"internalType":"bool","name":"isSet","type":"bool"}],"stateMutability":"view","type":"function"},{"inputs":[],"name":"TGcommunitiesFee","outputs":[{"internalType":"uint256","name":"","type":"uint256"}],"stateMutability":"view","type":"function"},{"inputs":[],"name":"UpdateTotalFee","outputs":[],"stateMutability":"nonpayable","type":"function"},{"inputs":[{"internalType":"bytes32","name":"_address","type":"bytes32"}],"name":"bytes32ToAddress","outputs":[{"internalType":"address","name":"","type":"address"}],"stateMutability":"pure","type":"function"},{"inputs":[{"components":[{"internalType":"uint256","name":"index","type":"uint256"},{"internalType":"uint256","name":"timestamp","type":"uint256"},{"internalType":"bytes32","name":"txHash","type":"bytes32"},{"internalType":"uint256","name":"blockNumber","type":"uint256"},{"internalType":"bytes32","name":"blockHash","type":"bytes32"},{"internalType":"address","name":"source","type":"address"},{"internalType":"bytes32[]","name":"topics","type":"bytes32[]"},{"internalType":"bytes","name":"data","type":"bytes"}],"internalType":"struct Log","name":"log","type":"tuple"},{"internalType":"bytes","name":"","type":"bytes"}],"name":"checkLog","outputs":[{"internalType":"bool","name":"upkeepNeeded","type":"bool"},{"internalType":"bytes","name":"performData","type":"bytes"}],"stateMutability":"view","type":"function"},{"inputs":[{"internalType":"string","name":"_communityName","type":"string"},{"internalType":"enum tgetherIncentives.IncentiveStructure","name":"_structure","type":"uint8"},{"internalType":"uint256","name":"_communityFee","type":"uint256"},{"internalType":"address payable","name":"_contractRecieveAddress","type":"address"}],"name":"createProposal","outputs":[{"internalType":"uint256","name":"","type":"uint256"}],"stateMutability":"payable","type":"function"},{"inputs":[],"name":"fee","outputs":[{"internalType":"uint256","name":"","type":"uint256"}],"stateMutability":"view","type":"function"},{"inputs":[{"internalType":"string","name":"_communityName","type":"string"}],"name":"getCommunityFeeInfo","outputs":[{"internalType":"uint256","name":"_communityFee","type":"uint256"},{"internalType":"address","name":"_contractRecieveAddress","type":"address"}],"stateMutability":"view","type":"function"},{"inputs":[{"internalType":"string","name":"_communityName","type":"string"}],"name":"getIncentiveParamsExist","outputs":[{"internalType":"bool","name":"_isSet","type":"bool"}],"stateMutability":"view","type":"function"},{"inputs":[{"internalType":"string","name":"_communityName","type":"string"}],"name":"getInctiveStructure","outputs":[{"internalType":"enum tgetherIncentives.IncentiveStructure","name":"","type":"uint8"}],"stateMutability":"view","type":"function"},{"inputs":[{"internalType":"string","name":"_communityName","type":"string"}],"name":"getParams","outputs":[{"internalType":"enum tgetherIncentives.IncentiveStructure","name":"structure","type":"uint8"},{"internalType":"uint256","name":"_communityFee","type":"uint256"},{"internalType":"address","name":"_contractRecieveAddress","type":"address"},{"internalType":"bool","name":"_isSet","type":"bool"}],"stateMutability":"view","type":"function"},{"inputs":[{"internalType":"uint256","name":"_proposalId","type":"uint256"}],"name":"getProposal","outputs":[{"components":[{"internalType":"address","name":"proposer","type":"address"},{"internalType":"string","name":"communityName","type":"string"},{"internalType":"enum tgetherIncentives.IncentiveStructure","name":"structure","type":"uint8"},{"internalType":"uint256","name":"communityFee","type":"uint256"},{"internalType":"address payable","name":"contractRecieveAddress","type":"address"},{"internalType":"bool","name":"upkeeped","type":"bool"},{"internalType":"bool","name":"passed","type":"bool"}],"internalType":"struct tgetherIncentives.IncentiveProposal","name":"","type":"tuple"}],"stateMutability":"view","type":"function"},{"inputs":[{"internalType":"bytes","name":"_performData","type":"bytes"}],"name":"performUpkeep","outputs":[],"stateMutability":"nonpayable","type":"function"},{"inputs":[{"internalType":"uint256","name":"_feePrice","type":"uint256"}],"name":"setFee","outputs":[],"stateMutability":"nonpayable","type":"function"},{"inputs":[{"internalType":"address","name":"_contract","type":"address"}],"name":"setFundContract","outputs":[],"stateMutability":"nonpayable","type":"function"},{"inputs":[{"internalType":"string","name":"_communityName","type":"string"},{"internalType":"enum tgetherIncentives.IncentiveStructure","name":"_structure","type":"uint8"},{"internalType":"uint256","name":"_communityFee","type":"uint256"},{"internalType":"address payable","name":"_contractRecieveAddress","type":"address"}],"name":"setParams","outputs":[{"internalType":"bool","name":"","type":"bool"}],"stateMutability":"nonpayable","type":"function"},{"inputs":[{"internalType":"address","name":"_contractAddress","type":"address"}],"name":"settgetherCommunityContract","outputs":[],"stateMutability":"nonpayable","type":"function"},{"inputs":[],"name":"totalFee","outputs":[{"internalType":"uint256","name":"","type":"uint256"}],"stateMutability":"view","type":"function"},{"inputs":[],"name":"upkeepId","outputs":[{"internalType":"uint256","name":"","type":"uint256"}],"stateMutability":"view","type":"function"}],"evm":{"bytecode":{"linkReferences":{},"object":"6080346200039c57601f62001e6538819003828101601f199081168501946001600160401b0393919290918487118388101762000388578160809284926040998a528339810103126200039c578051936020906200005f828401620003c0565b620000716060898601519501620003c0565b91885195608087018781108982111762000388578a5262000091620003a0565b600981526873747275637475726560b81b868201528752620000b2620003a0565b600c81526b636f6d6d756e69747946656560a01b8682015285880152620000d8620003a0565b601681527f636f6e7472616374526563696576654164647265737300000000000000000000868201528a8801526200010f620003a0565b94600595868152641a5cd4d95d60da1b8282015260608901526002549760049889600255808a106200030e575b5060025f908152828120909a89989796958c9594935b8c8710620001cf575050505050505060018060a01b031991308360095416176009553383600354161760035560018060a01b0380921683600854161760085516906007541617600755858455558301809311620001bc57505060065551611a3c9081620004298239f35b634e487b7160e01b825260119052602490fd5b809192939495969798999a5051805190848211620002fa57908e87928d620001f88954620003d5565b878111620002bf575b50508391868411600114620002565792600195928192879695926200024a575b50505f19600383901b1c191690841b1787555b0194019601949392908a99989796929162000152565b015190505f8062000221565b91908a8416898452858420935b818110620002a657509160019693918588979694106200028d575b505050831b8301875562000234565b01515f1960f88460031b161c191690555f80806200027e565b8284015185558b96600190950194938401930162000263565b620002e8918a85528685209089808801821c830193898910620002f0575b01901c019062000410565b8d5f62000201565b93508293620002dd565b50634e487b7160e01b8e5260418d5260248efd5b5f600281528a84822092830192015b8281106200032d5750506200013c565b80826200033d60019354620003d5565b806200034d575b5050016200031d565b898111841462000363575081555b825f62000344565b8282526200037e8d8b8a85209301901c820185830162000410565b818355556200035b565b634e487b7160e01b5f52604160045260245ffd5b5f80fd5b60408051919082016001600160401b038111838210176200038857604052565b51906001600160a01b03821682036200039c57565b90600182811c9216801562000405575b6020831014620003f157565b634e487b7160e01b5f52602260045260245ffd5b91607f1691620003e5565b8181106200041c575050565b5f81556001016200041056fe6080806040526004361015610012575f80fd5b5f3560e01c90816303c0b3151461169f5750806304189d0b1461165357806310dbfe24146116015780631a216bbd1461117d5780631df4ccfc1461116057806340691db4146110145780634585e33b1461099e57806359144baa146109525780635ced058e1461092b57806369fe0e2d146108fd578063701a7a1d14610812578063769d5984146107735780638ed8067e1461074b578063b169499a146106e2578063bac4cd0714610654578063c7f758a81461052a578063cc271aa3146104d7578063d1dda68f1461042c578063d2aa789f1461040f578063ddca3f43146103f2578063eae7254d146101d8578063f0642315146101b05763f284918014610119575f80fd5b346101ac5760203660031901126101ac576004356001600160401b0381116101ac576101636020610150608093369060040161173a565b81604051938285809451938492016117b7565b81015f81520301902060ff8082541691600260018201549101549061018b6040518095611758565b60208401526001600160a01b038116604084015260a01c1615156060820152f35b5f80fd5b346101ac575f3660031901126101ac576008546040516001600160a01b039091168152602090f35b346101ac576101e636611765565b60085460405163b3f6702d60e01b8152602060048201819052956001600160a01b0395949093929091908790829088168180610225602482018a6117d8565b03915afa9081156103e7575f916103b1575b50853391160361035c5760405160ff600285519289818189019561025c8183896117b7565b81015f815203019020015460a01c1661031e57918160026102b5897ffd50b4e15ec361806ddcbe1d256b1c1354ec1e795aa839a328c9e13a245498f79897966102f99661030c575b604051809381928a519283916117b7565b81015f8152030190206102c88782611922565b600181018390550180546001600160a81b03191697831697909717600160a01b17968790556040519485948561193a565b0390a160ff6040519160a01c1615158152f35b6103198b871615156118d6565b6102a4565b60405162461bcd60e51b815260048101889052601660248201527514185c985b595d195c9cc8185b1c9958591e481cd95d60521b6044820152606490fd5b60405162461bcd60e51b815260048101879052602760248201527f55736572206973206e6f7420746865206f776e6572206f66207468697320636f6044820152666d6d756e69747960c81b6064820152608490fd5b90508681813d83116103e0575b6103c881836116d4565b810103126101ac575185811681036101ac5787610237565b503d6103be565b6040513d5f823e3d90fd5b346101ac575f3660031901126101ac576020600454604051908152f35b346101ac575f3660031901126101ac576020600a54604051908152f35b346101ac575f3660031901126101ac576004602060018060a01b03610456816003541633146119c1565b600854166040519283809263ced72f8760e01b82525afa9081156103e7575f916104a6575b508060055560045490810180911161049257600655005b634e487b7160e01b5f52601160045260245ffd5b90506020813d82116104cf575b816104c0602093836116d4565b810103126101ac57518161047b565b3d91506104b3565b346101ac5760203660031901126101ac576004356001600160401b0381116101ac5760ff600261051160206101508195369060040161173a565b81015f815203019020015460a01c166040519015158152f35b346101ac576020806003193601126101ac575f60c060405161054b816116b9565b8281526060848201528260408201528260608201528260808201528260a082015201526004355f526001815260405f209060405190610589826116b9565b82546001600160a01b039081168352926105a560018201611835565b918084019283528460ff600284015416936105c4604087019586611973565b6004600385015494606088019586520154936106336106276080890193858816855260a08a019660ff8960a01c161515885260ff60c08c019960a81c16151589526040519b8c9b828d525116908b01525160e060408b01526101008a01906117d8565b96516060890190611758565b516080870152511660a085015251151560c084015251151560e08301520390f35b346101ac5760203660031901126101ac576004356001600160401b0381116101ac57610686604091369060040161173a565b815160026001835192602081818701956106a18183896117b7565b81015f8152030190200154926106be8551938492519283916117b7565b8201915f835260208160018060a01b03940301902001541682519182526020820152f35b346101ac5760203660031901126101ac576004356002548110156101ac5760025f5261074790610733907f405787fa12a823e0f2b7631cc41b3ba8828b3321ca811111fa75cd3aa3bb5ace01611835565b6040519182916020835260208301906117d8565b0390f35b346101ac575f3660031901126101ac576007546040516001600160a01b039091168152602090f35b346101ac5760203660031901126101ac576004355f52600160205260405f2060018060a01b03808254169060ff6107ac60018501611835565b93816002820154169260046003830154920154916107ea6107df604051988998895260e060208a015260e08901906117d8565b956040880190611758565b606086015281166080850152818160a01c16151560a085015260a81c16151560c08301520390f35b346101ac576020806003193601126101ac57600435906001600160401b0382116101ac57610846608092369060040161173a565b906040519160ff81519383818185019661086181838a6117b7565b81015f81520301902054169260ff60026108cf8560016040518281895161088981838c6117b7565b81015f8152030190200154946040518488516108a68184866117b7565b8201915f8352848160018060a01b039403019020015416966040519384928392519283916117b7565b81015f815203019020015460a01c16926108ec6040518096611758565b840152604083015215156060820152f35b346101ac5760203660031901126101ac5761092360018060a01b036003541633146119c1565b600480359055005b346101ac5760203660031901126101ac576040516004356001600160a01b03168152602090f35b346101ac5760203660031901126101ac576004356001600160a01b03818116918290036101ac57610988906003541633146119c1565b600780546001600160a01b031916919091179055005b346101ac5760203660031901126101ac576004356001600160401b0381116101ac57366023820112156101ac5780600401356001600160401b0381116101ac5781013660248201116101ac578160209103126101ac5760248101355f908152600160205260409020546001600160a01b0316610a1657005b60085460408051630b7b9a0160e31b81526024848101356004830152909283919082906001600160a01b03165afa9081156103e7575f905f92610fcc575b5015610a5c57005b15610d9e5760248101355f526001602052602460405f209160405192610a81846116b9565b80546001600160a01b03168452610a9a60018201611835565b6020850152610ab360ff60028301541660408601611973565b60038101546060850152600460018060a01b03910154166080840152600160a0840152600160c084015201355f52600160205260405f209060018060a01b0381511660018060a01b031983541617825560208101519182516001600160401b038111610d8a57610b2660018301546117fd565b601f8111610d46575b506020601f8211600114610cdc57819293945f92610cd1575b50508160011b915f199060031b1c19161760018201555b6040820151906002821015610cbd57610b7d60049260028301611922565b6060830151600382015560808301519101805460a08085015160c086015160ff60a81b90151560a81b166001600160b01b03199093166001600160a01b0390951694909417931515901b60ff60a01b16929092179190911790556020808201516040518151909291839190610bf7908290849086016117b7565b81015f815203019020906040810151916002831015610cbd57610c3b7fd9237f0aa8acc77de66789c96f4a41c3aeb6142849b759750d482eb1361598349382611922565b610c9c606083015180600184015560ff602060018060a01b03608087015116956002860196875490848160018060a01b0319841617808b5560a01c1615610ca1575b505001519354169360018060a01b03905416906040519485948561193a565b0390a1005b6001600160a81b031990911617600160a01b1787558880610c7d565b634e487b7160e01b5f52602160045260245ffd5b015190508480610b48565b600183015f5260205f20905f5b601f1984168110610d2e5750600193949583601f19811610610d16575b505050811b016001820155610b5f565b01515f1960f88460031b161c19169055848080610d06565b9091602060018192858a015181550193019101610ce9565b600183015f5260205f20601f830160051c810160208410610d83575b601f830160051c82018110610d78575050610b2f565b5f8155600101610d62565b5080610d62565b634e487b7160e01b5f52604160045260245ffd5b60248101355f526001602052602460405f209160405192610dbe846116b9565b80546001600160a01b03168452610dd760018201611835565b6020850152610df060ff60028301541660408601611973565b60038101546060850152600460018060a01b03910154166080840152600160a08401525f60c084015201355f52600160205260405f209060018060a01b0381511660018060a01b031983541617825560208101519182516001600160401b038111610d8a57610e6260018301546117fd565b601f8111610f88575b506020601f8211600114610f2057819293945f92610f15575b50508160011b915f199060031b1c19161760018201555b60408201516002811015610cbd5781610ebb600492600260c09501611922565b6060840151600382015560808401519101805460a080860151949095015160ff60a81b90151560a81b166001600160b01b03199091166001600160a01b039093169290921792151590931b60ff60a01b1691909117179055005b015190508480610e84565b601f19821690600184015f5260205f20915f5b818110610f7057509583600195969710610f58575b505050811b016001820155610e9b565b01515f1960f88460031b161c19169055848080610f48565b9192602060018192868b015181550194019201610f33565b600183015f5260205f20601f830160051c810160208410610fc5575b601f830160051c82018110610fba575050610e6b565b5f8155600101610fa4565b5080610fa4565b9150506040813d60401161100c575b81610fe8604093836116d4565b810103126101ac576110056020610ffe8361197f565b920161197f565b9083610a54565b3d9150610fdb565b346101ac576003196040368201126101ac576001600160401b03906004358281116101ac57610100816004019282360301126101ac576024358381116101ac57366023820112156101ac576110739036906024816004013591016116f5565b5060c45f910191611084838261198c565b6001949194101561114c576110989161198c565b6002101561114c57604001359160018060a01b0390816020816009541692013516149081611134575b5080611117575b61110f575b60405191602083015260208252604082019282841090841117610d8a57826040521515825260406060820152603f199061110a60808201826117d8565b030190f35b5060016110cd565b50815f52600160205260ff600460405f20015460a01c16156110c8565b9050825f52600160205260405f2054161515846110c1565b634e487b7160e01b5f52603260045260245ffd5b346101ac575f3660031901126101ac576020600654604051908152f35b61118636611765565b92919060065434036115cc57806115b3575b60018060a01b03600854169260206005546040519586809263b07bcbc560e01b825260406004830152816111cf60448201886117d8565b30602483015203925af19384156103e7575f9461157f575b508315611543577ffa5b4cf8647cae9211a0088685c4e4610e9464dd64cc7ad7152c4fe69e04ae34926112e592855f52600160205260405f209660ff6004604051996112328b6116b9565b80546001600160a01b03168b5261124b60018201611835565b60208c01526112638360028301541660408d01611973565b600381015460608c015201546001600160a01b03811660808b015260a081811c83161515908b015260a81c16151560c0890152338852602088018490526112ad8360408a01611973565b81606089015260018060a01b0316908160808901526112f060405195869589875233602088015260c0604088015260c08701906117d8565b936060860190611758565b608084015260a08301520390a160075460055434908103916001600160a01b031690821161049257602090602460405180948193633de5599d60e11b83523060048401525af19081156103e7575f91611509575b50156101ac57805f52600160205260405f209060018060a01b0383511660018060a01b031983541617825560208301519283516001600160401b038111610d8a5761139260018501546117fd565b601f81116114c5575b506020601f821160011461145a5781929394955f9261144f575b50508160011b915f199060031b1c19161760018401555b6040810151926002841015610cbd576004816113ef602096600260c09501611922565b6060840151600382015560808401519101805460a080860151949095015160ff60a81b90151560a81b166001600160b01b03199091166001600160a01b039093169290921792151590931b60ff60a01b1691909117179055604051908152f35b0151905085806113b5565b600185015f5260205f20905f5b601f19841681106114ad575060019394959683601f19811610611495575b505050811b0160018401556113cc565b01515f1960f88460031b161c19169055858080611485565b9091602060018192858b015181550193019101611467565b600185015f5260205f20601f830160051c810160208410611502575b601f830160051c820181106114f757505061139b565b5f81556001016114e1565b50806114e1565b90506020813d60201161153b575b81611524602093836116d4565b810103126101ac576115359061197f565b83611344565b3d9150611517565b60405162461bcd60e51b8152602060048201526014602482015273141c9bdc1bdcd85b081b9bdd0818dc99585d195960621b6044820152606490fd5b9093506020813d6020116115ab575b8161159b602093836116d4565b810103126101ac575192856111e7565b3d915061158e565b6115c76001600160a01b03851615156118d6565b611198565b60405162461bcd60e51b815260206004820152600d60248201526c496e636f72726563742066656560981b6044820152606490fd5b346101ac5760203660031901126101ac576004356001600160401b0381116101ac5760ff61163960206101508194369060040161173a565b81015f81520301902054166116516040518092611758565bf35b346101ac5760203660031901126101ac576004356001600160a01b03818116918290036101ac57611689906003541633146119c1565b600880546001600160a01b031916919091179055005b346101ac575f3660031901126101ac576020906005548152f35b60e081019081106001600160401b03821117610d8a57604052565b90601f801991011681019081106001600160401b03821117610d8a57604052565b9291926001600160401b038211610d8a576040519161171e601f8201601f1916602001846116d4565b8294818452818301116101ac578281602093845f960137010152565b9080601f830112156101ac57816020611755933591016116f5565b90565b906002821015610cbd5752565b60806003198201126101ac57600435906001600160401b0382116101ac5761178f9160040161173a565b9060243560028110156101ac5790604435906064356001600160a01b03811681036101ac5790565b5f5b8381106117c85750505f910152565b81810151838201526020016117b9565b906020916117f1815180928185528580860191016117b7565b601f01601f1916010190565b90600182811c9216801561182b575b602083101461181757565b634e487b7160e01b5f52602260045260245ffd5b91607f169161180c565b9060405191825f825492611848846117fd565b9081845260019485811690815f146118b35750600114611873575b5050611871925003836116d4565b565b909391505f52602090815f20935f915b81831061189b57505061187193508201015f80611863565b85548884018501529485019487945091830191611883565b91505061187194506020925060ff191682840152151560051b8201015f80611863565b156118dd57565b60405162461bcd60e51b815260206004820152601b60248201527f53656e64696e6720616464726573732063616e6e6f74206265203000000000006044820152606490fd5b906002811015610cbd5760ff80198354169116179055565b926119606119556060949796936080875260808701906117d8565b966020860190611758565b60408401526001600160a01b0316910152565b6002821015610cbd5752565b519081151582036101ac57565b903590601e19813603018212156101ac57018035906001600160401b0382116101ac57602001918160051b360383136101ac57565b156119c857565b60405162461bcd60e51b81526020600482015260166024820152752737ba103a34329031b7b73a3930b1ba1037bbb732b960511b6044820152606490fdfea26469706673582212207de7ca1e6e76d0b9d66508442a0928356154205a5f6ad521b33d2d20aed059db64736f6c63430008140033","opcodes":"PUSH1 0x80 CALLVALUE PUSH3 0x39C JUMPI PUSH1 0x1F PUSH3 0x1E65 CODESIZE DUP2 SWAP1 SUB DUP3 DUP2 ADD PUSH1 0x1F NOT SWAP1 DUP2 AND DUP6 ADD SWAP5 PUSH1 0x1 PUSH1 0x1 PUSH1 0x40 SHL SUB SWAP4 SWAP2 SWAP3 SWAP1 SWAP2 DUP5 DUP8 GT DUP4 DUP9 LT OR PUSH3 0x388 JUMPI DUP2 PUSH1 0x80 SWAP3 DUP5 SWAP3 PUSH1 0x40 SWAP10 DUP11 MSTORE DUP4 CODECOPY DUP2 ADD SUB SLT PUSH3 0x39C JUMPI DUP1 MLOAD SWAP4 PUSH1 0x20 SWAP1 PUSH3 0x5F DUP3 DUP5 ADD PUSH3 0x3C0 JUMP JUMPDEST PUSH3 0x71 PUSH1 0x60 DUP10 DUP7 ADD MLOAD SWAP6 ADD PUSH3 0x3C0 JUMP JUMPDEST SWAP2 DUP9 MLOAD SWAP6 PUSH1 0x80 DUP8 ADD DUP8 DUP2 LT DUP10 DUP3 GT OR PUSH3 0x388 JUMPI DUP11 MSTORE PUSH3 0x91 PUSH3 0x3A0 JUMP JUMPDEST PUSH1 0x9 DUP2 MSTORE PUSH9 0x737472756374757265 PUSH1 0xB8 SHL DUP7 DUP3 ADD MSTORE DUP8 MSTORE PUSH3 0xB2 PUSH3 0x3A0 JUMP JUMPDEST PUSH1 0xC DUP2 MSTORE PUSH12 0x636F6D6D756E697479466565 PUSH1 0xA0 SHL DUP7 DUP3 ADD MSTORE DUP6 DUP9 ADD MSTORE PUSH3 0xD8 PUSH3 0x3A0 JUMP JUMPDEST PUSH1 0x16 DUP2 MSTORE PUSH32 0x636F6E7472616374526563696576654164647265737300000000000000000000 DUP7 DUP3 ADD MSTORE DUP11 DUP9 ADD MSTORE PUSH3 0x10F PUSH3 0x3A0 JUMP JUMPDEST SWAP5 PUSH1 0x5 SWAP6 DUP7 DUP2 MSTORE PUSH5 0x1A5CD4D95D PUSH1 0xDA SHL DUP3 DUP3 ADD MSTORE PUSH1 0x60 DUP10 ADD MSTORE PUSH1 0x2 SLOAD SWAP8 PUSH1 0x4 SWAP9 DUP10 PUSH1 0x2 SSTORE DUP1 DUP11 LT PUSH3 0x30E JUMPI JUMPDEST POP PUSH1 0x2 PUSH0 SWAP1 DUP2 MSTORE DUP3 DUP2 KECCAK256 SWAP1 SWAP11 DUP10 SWAP9 SWAP8 SWAP7 SWAP6 DUP13 SWAP6 SWAP5 SWAP4 JUMPDEST DUP13 DUP8 LT PUSH3 0x1CF JUMPI POP POP POP POP POP POP POP PUSH1 0x1 DUP1 PUSH1 0xA0 SHL SUB NOT SWAP2 ADDRESS DUP4 PUSH1 0x9 SLOAD AND OR PUSH1 0x9 SSTORE CALLER DUP4 PUSH1 0x3 SLOAD AND OR PUSH1 0x3 SSTORE PUSH1 0x1 DUP1 PUSH1 0xA0 SHL SUB DUP1 SWAP3 AND DUP4 PUSH1 0x8 SLOAD AND OR PUSH1 0x8 SSTORE AND SWAP1 PUSH1 0x7 SLOAD AND OR PUSH1 0x7 SSTORE DUP6 DUP5 SSTORE SSTORE DUP4 ADD DUP1 SWAP4 GT PUSH3 0x1BC JUMPI POP POP PUSH1 0x6 SSTORE MLOAD PUSH2 0x1A3C SWAP1 DUP2 PUSH3 0x429 DUP3 CODECOPY RETURN JUMPDEST PUSH4 0x4E487B71 PUSH1 0xE0 SHL DUP3 MSTORE PUSH1 0x11 SWAP1 MSTORE PUSH1 0x24 SWAP1 REVERT JUMPDEST DUP1 SWAP2 SWAP3 SWAP4 SWAP5 SWAP6 SWAP7 SWAP8 SWAP9 SWAP10 SWAP11 POP MLOAD DUP1 MLOAD SWAP1 DUP5 DUP3 GT PUSH3 0x2FA JUMPI SWAP1 DUP15 DUP8 SWAP3 DUP14 PUSH3 0x1F8 DUP10 SLOAD PUSH3 0x3D5 JUMP JUMPDEST DUP8 DUP2 GT PUSH3 0x2BF JUMPI JUMPDEST POP POP DUP4 SWAP2 DUP7 DUP5 GT PUSH1 0x1 EQ PUSH3 0x256 JUMPI SWAP3 PUSH1 0x1 SWAP6 SWAP3 DUP2 SWAP3 DUP8 SWAP7 SWAP6 SWAP3 PUSH3 0x24A JUMPI JUMPDEST POP POP PUSH0 NOT PUSH1 0x3 DUP4 SWAP1 SHL SHR NOT AND SWAP1 DUP5 SHL OR DUP8 SSTORE JUMPDEST ADD SWAP5 ADD SWAP7 ADD SWAP5 SWAP4 SWAP3 SWAP1 DUP11 SWAP10 SWAP9 SWAP8 SWAP7 SWAP3 SWAP2 PUSH3 0x152 JUMP JUMPDEST ADD MLOAD SWAP1 POP PUSH0 DUP1 PUSH3 0x221 JUMP JUMPDEST SWAP2 SWAP1 DUP11 DUP5 AND DUP10 DUP5 MSTORE DUP6 DUP5 KECCAK256 SWAP4 JUMPDEST DUP2 DUP2 LT PUSH3 0x2A6 JUMPI POP SWAP2 PUSH1 0x1 SWAP7 SWAP4 SWAP2 DUP6 DUP9 SWAP8 SWAP7 SWAP5 LT PUSH3 0x28D JUMPI JUMPDEST POP POP POP DUP4 SHL DUP4 ADD DUP8 SSTORE PUSH3 0x234 JUMP JUMPDEST ADD MLOAD PUSH0 NOT PUSH1 0xF8 DUP5 PUSH1 0x3 SHL AND SHR NOT AND SWAP1 SSTORE PUSH0 DUP1 DUP1 PUSH3 0x27E JUMP JUMPDEST DUP3 DUP5 ADD MLOAD DUP6 SSTORE DUP12 SWAP7 PUSH1 0x1 SWAP1 SWAP6 ADD SWAP5 SWAP4 DUP5 ADD SWAP4 ADD PUSH3 0x263 JUMP JUMPDEST PUSH3 0x2E8 SWAP2 DUP11 DUP6 MSTORE DUP7 DUP6 KECCAK256 SWAP1 DUP10 DUP1 DUP9 ADD DUP3 SHR DUP4 ADD SWAP4 DUP10 DUP10 LT PUSH3 0x2F0 JUMPI JUMPDEST ADD SWAP1 SHR ADD SWAP1 PUSH3 0x410 JUMP JUMPDEST DUP14 PUSH0 PUSH3 0x201 JUMP JUMPDEST SWAP4 POP DUP3 SWAP4 PUSH3 0x2DD JUMP JUMPDEST POP PUSH4 0x4E487B71 PUSH1 0xE0 SHL DUP15 MSTORE PUSH1 0x41 DUP14 MSTORE PUSH1 0x24 DUP15 REVERT JUMPDEST PUSH0 PUSH1 0x2 DUP2 MSTORE DUP11 DUP5 DUP3 KECCAK256 SWAP3 DUP4 ADD SWAP3 ADD JUMPDEST DUP3 DUP2 LT PUSH3 0x32D JUMPI POP POP PUSH3 0x13C JUMP JUMPDEST DUP1 DUP3 PUSH3 0x33D PUSH1 0x1 SWAP4 SLOAD PUSH3 0x3D5 JUMP JUMPDEST DUP1 PUSH3 0x34D JUMPI JUMPDEST POP POP ADD PUSH3 0x31D JUMP JUMPDEST DUP10 DUP2 GT DUP5 EQ PUSH3 0x363 JUMPI POP DUP2 SSTORE JUMPDEST DUP3 PUSH0 PUSH3 0x344 JUMP JUMPDEST DUP3 DUP3 MSTORE PUSH3 0x37E DUP14 DUP12 DUP11 DUP6 KECCAK256 SWAP4 ADD SWAP1 SHR DUP3 ADD DUP6 DUP4 ADD PUSH3 0x410 JUMP JUMPDEST DUP2 DUP4 SSTORE SSTORE PUSH3 0x35B JUMP JUMPDEST PUSH4 0x4E487B71 PUSH1 0xE0 SHL PUSH0 MSTORE PUSH1 0x41 PUSH1 0x4 MSTORE PUSH1 0x24 PUSH0 REVERT JUMPDEST PUSH0 DUP1 REVERT JUMPDEST PUSH1 0x40 DUP1 MLOAD SWAP2 SWAP1 DUP3 ADD PUSH1 0x1 PUSH1 0x1 PUSH1 0x40 SHL SUB DUP2 GT DUP4 DUP3 LT OR PUSH3 0x388 JUMPI PUSH1 0x40 MSTORE JUMP JUMPDEST MLOAD SWAP1 PUSH1 0x1 PUSH1 0x1 PUSH1 0xA0 SHL SUB DUP3 AND DUP3 SUB PUSH3 0x39C JUMPI JUMP JUMPDEST SWAP1 PUSH1 0x1 DUP3 DUP2 SHR SWAP3 AND DUP1 ISZERO PUSH3 0x405 JUMPI JUMPDEST PUSH1 0x20 DUP4 LT EQ PUSH3 0x3F1 JUMPI JUMP JUMPDEST PUSH4 0x4E487B71 PUSH1 0xE0 SHL PUSH0 MSTORE PUSH1 0x22 PUSH1 0x4 MSTORE PUSH1 0x24 PUSH0 REVERT JUMPDEST SWAP2 PUSH1 0x7F AND SWAP2 PUSH3 0x3E5 JUMP JUMPDEST DUP2 DUP2 LT PUSH3 0x41C JUMPI POP POP JUMP JUMPDEST PUSH0 DUP2 SSTORE PUSH1 0x1 ADD PUSH3 0x410 JUMP INVALID PUSH1 0x80 DUP1 PUSH1 0x40 MSTORE PUSH1 0x4 CALLDATASIZE LT ISZERO PUSH2 0x12 JUMPI PUSH0 DUP1 REVERT JUMPDEST PUSH0 CALLDATALOAD PUSH1 0xE0 SHR SWAP1 DUP2 PUSH4 0x3C0B315 EQ PUSH2 0x169F JUMPI POP DUP1 PUSH4 0x4189D0B EQ PUSH2 0x1653 JUMPI DUP1 PUSH4 0x10DBFE24 EQ PUSH2 0x1601 JUMPI DUP1 PUSH4 0x1A216BBD EQ PUSH2 0x117D JUMPI DUP1 PUSH4 0x1DF4CCFC EQ PUSH2 0x1160 JUMPI DUP1 PUSH4 0x40691DB4 EQ PUSH2 0x1014 JUMPI DUP1 PUSH4 0x4585E33B EQ PUSH2 0x99E JUMPI DUP1 PUSH4 0x59144BAA EQ PUSH2 0x952 JUMPI DUP1 PUSH4 0x5CED058E EQ PUSH2 0x92B JUMPI DUP1 PUSH4 0x69FE0E2D EQ PUSH2 0x8FD JUMPI DUP1 PUSH4 0x701A7A1D EQ PUSH2 0x812 JUMPI DUP1 PUSH4 0x769D5984 EQ PUSH2 0x773 JUMPI DUP1 PUSH4 0x8ED8067E EQ PUSH2 0x74B JUMPI DUP1 PUSH4 0xB169499A EQ PUSH2 0x6E2 JUMPI DUP1 PUSH4 0xBAC4CD07 EQ PUSH2 0x654 JUMPI DUP1 PUSH4 0xC7F758A8 EQ PUSH2 0x52A JUMPI DUP1 PUSH4 0xCC271AA3 EQ PUSH2 0x4D7 JUMPI DUP1 PUSH4 0xD1DDA68F EQ PUSH2 0x42C JUMPI DUP1 PUSH4 0xD2AA789F EQ PUSH2 0x40F JUMPI DUP1 PUSH4 0xDDCA3F43 EQ PUSH2 0x3F2 JUMPI DUP1 PUSH4 0xEAE7254D EQ PUSH2 0x1D8 JUMPI DUP1 PUSH4 0xF0642315 EQ PUSH2 0x1B0 JUMPI PUSH4 0xF2849180 EQ PUSH2 0x119 JUMPI PUSH0 DUP1 REVERT JUMPDEST CALLVALUE PUSH2 0x1AC JUMPI PUSH1 0x20 CALLDATASIZE PUSH1 0x3 NOT ADD SLT PUSH2 0x1AC JUMPI PUSH1 0x4 CALLDATALOAD PUSH1 0x1 PUSH1 0x1 PUSH1 0x40 SHL SUB DUP2 GT PUSH2 0x1AC JUMPI PUSH2 0x163 PUSH1 0x20 PUSH2 0x150 PUSH1 0x80 SWAP4 CALLDATASIZE SWAP1 PUSH1 0x4 ADD PUSH2 0x173A JUMP JUMPDEST DUP2 PUSH1 0x40 MLOAD SWAP4 DUP3 DUP6 DUP1 SWAP5 MLOAD SWAP4 DUP5 SWAP3 ADD PUSH2 0x17B7 JUMP JUMPDEST DUP2 ADD PUSH0 DUP2 MSTORE SUB ADD SWAP1 KECCAK256 PUSH1 0xFF DUP1 DUP3 SLOAD AND SWAP2 PUSH1 0x2 PUSH1 0x1 DUP3 ADD SLOAD SWAP2 ADD SLOAD SWAP1 PUSH2 0x18B PUSH1 0x40 MLOAD DUP1 SWAP6 PUSH2 0x1758 JUMP JUMPDEST PUSH1 0x20 DUP5 ADD MSTORE PUSH1 0x1 PUSH1 0x1 PUSH1 0xA0 SHL SUB DUP2 AND PUSH1 0x40 DUP5 ADD MSTORE PUSH1 0xA0 SHR AND ISZERO ISZERO PUSH1 0x60 DUP3 ADD MSTORE RETURN JUMPDEST PUSH0 DUP1 REVERT JUMPDEST CALLVALUE PUSH2 0x1AC JUMPI PUSH0 CALLDATASIZE PUSH1 0x3 NOT ADD SLT PUSH2 0x1AC JUMPI PUSH1 0x8 SLOAD PUSH1 0x40 MLOAD PUSH1 0x1 PUSH1 0x1 PUSH1 0xA0 SHL SUB SWAP1 SWAP2 AND DUP2 MSTORE PUSH1 0x20 SWAP1 RETURN JUMPDEST CALLVALUE PUSH2 0x1AC JUMPI PUSH2 0x1E6 CALLDATASIZE PUSH2 0x1765 JUMP JUMPDEST PUSH1 0x8 SLOAD PUSH1 0x40 MLOAD PUSH4 0xB3F6702D PUSH1 0xE0 SHL DUP2 MSTORE PUSH1 0x20 PUSH1 0x4 DUP3 ADD DUP2 SWAP1 MSTORE SWAP6 PUSH1 0x1 PUSH1 0x1 PUSH1 0xA0 SHL SUB SWAP6 SWAP5 SWAP1 SWAP4 SWAP3 SWAP1 SWAP2 SWAP1 DUP8 SWAP1 DUP3 SWAP1 DUP9 AND DUP2 DUP1 PUSH2 0x225 PUSH1 0x24 DUP3 ADD DUP11 PUSH2 0x17D8 JUMP JUMPDEST SUB SWAP2 GAS STATICCALL SWAP1 DUP2 ISZERO PUSH2 0x3E7 JUMPI PUSH0 SWAP2 PUSH2 0x3B1 JUMPI JUMPDEST POP DUP6 CALLER SWAP2 AND SUB PUSH2 0x35C JUMPI PUSH1 0x40 MLOAD PUSH1 0xFF PUSH1 0x2 DUP6 MLOAD SWAP3 DUP10 DUP2 DUP2 DUP10 ADD SWAP6 PUSH2 0x25C DUP2 DUP4 DUP10 PUSH2 0x17B7 JUMP JUMPDEST DUP2 ADD PUSH0 DUP2 MSTORE SUB ADD SWAP1 KECCAK256 ADD SLOAD PUSH1 0xA0 SHR AND PUSH2 0x31E JUMPI SWAP2 DUP2 PUSH1 0x2 PUSH2 0x2B5 DUP10 PUSH32 0xFD50B4E15EC361806DDCBE1D256B1C1354EC1E795AA839A328C9E13A245498F7 SWAP9 SWAP8 SWAP7 PUSH2 0x2F9 SWAP7 PUSH2 0x30C JUMPI JUMPDEST PUSH1 0x40 MLOAD DUP1 SWAP4 DUP2 SWAP3 DUP11 MLOAD SWAP3 DUP4 SWAP2 PUSH2 0x17B7 JUMP JUMPDEST DUP2 ADD PUSH0 DUP2 MSTORE SUB ADD SWAP1 KECCAK256 PUSH2 0x2C8 DUP8 DUP3 PUSH2 0x1922 JUMP JUMPDEST PUSH1 0x1 DUP2 ADD DUP4 SWAP1 SSTORE ADD DUP1 SLOAD PUSH1 0x1 PUSH1 0x1 PUSH1 0xA8 SHL SUB NOT AND SWAP8 DUP4 AND SWAP8 SWAP1 SWAP8 OR PUSH1 0x1 PUSH1 0xA0 SHL OR SWAP7 DUP8 SWAP1 SSTORE PUSH1 0x40 MLOAD SWAP5 DUP6 SWAP5 DUP6 PUSH2 0x193A JUMP JUMPDEST SUB SWAP1 LOG1 PUSH1 0xFF PUSH1 0x40 MLOAD SWAP2 PUSH1 0xA0 SHR AND ISZERO ISZERO DUP2 MSTORE RETURN JUMPDEST PUSH2 0x319 DUP12 DUP8 AND ISZERO ISZERO PUSH2 0x18D6 JUMP JUMPDEST PUSH2 0x2A4 JUMP JUMPDEST PUSH1 0x40 MLOAD PUSH3 0x461BCD PUSH1 0xE5 SHL DUP2 MSTORE PUSH1 0x4 DUP2 ADD DUP9 SWAP1 MSTORE PUSH1 0x16 PUSH1 0x24 DUP3 ADD MSTORE PUSH22 0x14185C985B595D195C9CC8185B1C9958591E481CD95D PUSH1 0x52 SHL PUSH1 0x44 DUP3 ADD MSTORE PUSH1 0x64 SWAP1 REVERT JUMPDEST PUSH1 0x40 MLOAD PUSH3 0x461BCD PUSH1 0xE5 SHL DUP2 MSTORE PUSH1 0x4 DUP2 ADD DUP8 SWAP1 MSTORE PUSH1 0x27 PUSH1 0x24 DUP3 ADD MSTORE PUSH32 0x55736572206973206E6F7420746865206F776E6572206F66207468697320636F PUSH1 0x44 DUP3 ADD MSTORE PUSH7 0x6D6D756E697479 PUSH1 0xC8 SHL PUSH1 0x64 DUP3 ADD MSTORE PUSH1 0x84 SWAP1 REVERT JUMPDEST SWAP1 POP DUP7 DUP2 DUP2 RETURNDATASIZE DUP4 GT PUSH2 0x3E0 JUMPI JUMPDEST PUSH2 0x3C8 DUP2 DUP4 PUSH2 0x16D4 JUMP JUMPDEST DUP2 ADD SUB SLT PUSH2 0x1AC JUMPI MLOAD DUP6 DUP2 AND DUP2 SUB PUSH2 0x1AC JUMPI DUP8 PUSH2 0x237 JUMP JUMPDEST POP RETURNDATASIZE PUSH2 0x3BE JUMP JUMPDEST PUSH1 0x40 MLOAD RETURNDATASIZE PUSH0 DUP3 RETURNDATACOPY RETURNDATASIZE SWAP1 REVERT JUMPDEST CALLVALUE PUSH2 0x1AC JUMPI PUSH0 CALLDATASIZE PUSH1 0x3 NOT ADD SLT PUSH2 0x1AC JUMPI PUSH1 0x20 PUSH1 0x4 SLOAD PUSH1 0x40 MLOAD SWAP1 DUP2 MSTORE RETURN JUMPDEST CALLVALUE PUSH2 0x1AC JUMPI PUSH0 CALLDATASIZE PUSH1 0x3 NOT ADD SLT PUSH2 0x1AC JUMPI PUSH1 0x20 PUSH1 0xA SLOAD PUSH1 0x40 MLOAD SWAP1 DUP2 MSTORE RETURN JUMPDEST CALLVALUE PUSH2 0x1AC JUMPI PUSH0 CALLDATASIZE PUSH1 0x3 NOT ADD SLT PUSH2 0x1AC JUMPI PUSH1 0x4 PUSH1 0x20 PUSH1 0x1 DUP1 PUSH1 0xA0 SHL SUB PUSH2 0x456 DUP2 PUSH1 0x3 SLOAD AND CALLER EQ PUSH2 0x19C1 JUMP JUMPDEST PUSH1 0x8 SLOAD AND PUSH1 0x40 MLOAD SWAP3 DUP4 DUP1 SWAP3 PUSH4 0xCED72F87 PUSH1 0xE0 SHL DUP3 MSTORE GAS STATICCALL SWAP1 DUP2 ISZERO PUSH2 0x3E7 JUMPI PUSH0 SWAP2 PUSH2 0x4A6 JUMPI JUMPDEST POP DUP1 PUSH1 0x5 SSTORE PUSH1 0x4 SLOAD SWAP1 DUP2 ADD DUP1 SWAP2 GT PUSH2 0x492 JUMPI PUSH1 0x6 SSTORE STOP JUMPDEST PUSH4 0x4E487B71 PUSH1 0xE0 SHL PUSH0 MSTORE PUSH1 0x11 PUSH1 0x4 MSTORE PUSH1 0x24 PUSH0 REVERT JUMPDEST SWAP1 POP PUSH1 0x20 DUP2 RETURNDATASIZE DUP3 GT PUSH2 0x4CF JUMPI JUMPDEST DUP2 PUSH2 0x4C0 PUSH1 0x20 SWAP4 DUP4 PUSH2 0x16D4 JUMP JUMPDEST DUP2 ADD SUB SLT PUSH2 0x1AC JUMPI MLOAD DUP2 PUSH2 0x47B JUMP JUMPDEST RETURNDATASIZE SWAP2 POP PUSH2 0x4B3 JUMP JUMPDEST CALLVALUE PUSH2 0x1AC JUMPI PUSH1 0x20 CALLDATASIZE PUSH1 0x3 NOT ADD SLT PUSH2 0x1AC JUMPI PUSH1 0x4 CALLDATALOAD PUSH1 0x1 PUSH1 0x1 PUSH1 0x40 SHL SUB DUP2 GT PUSH2 0x1AC JUMPI PUSH1 0xFF PUSH1 0x2 PUSH2 0x511 PUSH1 0x20 PUSH2 0x150 DUP2 SWAP6 CALLDATASIZE SWAP1 PUSH1 0x4 ADD PUSH2 0x173A JUMP JUMPDEST DUP2 ADD PUSH0 DUP2 MSTORE SUB ADD SWAP1 KECCAK256 ADD SLOAD PUSH1 0xA0 SHR AND PUSH1 0x40 MLOAD SWAP1 ISZERO ISZERO DUP2 MSTORE RETURN JUMPDEST CALLVALUE PUSH2 0x1AC JUMPI PUSH1 0x20 DUP1 PUSH1 0x3 NOT CALLDATASIZE ADD SLT PUSH2 0x1AC JUMPI PUSH0 PUSH1 0xC0 PUSH1 0x40 MLOAD PUSH2 0x54B DUP2 PUSH2 0x16B9 JUMP JUMPDEST DUP3 DUP2 MSTORE PUSH1 0x60 DUP5 DUP3 ADD MSTORE DUP3 PUSH1 0x40 DUP3 ADD MSTORE DUP3 PUSH1 0x60 DUP3 ADD MSTORE DUP3 PUSH1 0x80 DUP3 ADD MSTORE DUP3 PUSH1 0xA0 DUP3 ADD MSTORE ADD MSTORE PUSH1 0x4 CALLDATALOAD PUSH0 MSTORE PUSH1 0x1 DUP2 MSTORE PUSH1 0x40 PUSH0 KECCAK256 SWAP1 PUSH1 0x40 MLOAD SWAP1 PUSH2 0x589 DUP3 PUSH2 0x16B9 JUMP JUMPDEST DUP3 SLOAD PUSH1 0x1 PUSH1 0x1 PUSH1 0xA0 SHL SUB SWAP1 DUP2 AND DUP4 MSTORE SWAP3 PUSH2 0x5A5 PUSH1 0x1 DUP3 ADD PUSH2 0x1835 JUMP JUMPDEST SWAP2 DUP1 DUP5 ADD SWAP3 DUP4 MSTORE DUP5 PUSH1 0xFF PUSH1 0x2 DUP5 ADD SLOAD AND SWAP4 PUSH2 0x5C4 PUSH1 0x40 DUP8 ADD SWAP6 DUP7 PUSH2 0x1973 JUMP JUMPDEST PUSH1 0x4 PUSH1 0x3 DUP6 ADD SLOAD SWAP5 PUSH1 0x60 DUP9 ADD SWAP6 DUP7 MSTORE ADD SLOAD SWAP4 PUSH2 0x633 PUSH2 0x627 PUSH1 0x80 DUP10 ADD SWAP4 DUP6 DUP9 AND DUP6 MSTORE PUSH1 0xA0 DUP11 ADD SWAP7 PUSH1 0xFF DUP10 PUSH1 0xA0 SHR AND ISZERO ISZERO DUP9 MSTORE PUSH1 0xFF PUSH1 0xC0 DUP13 ADD SWAP10 PUSH1 0xA8 SHR AND ISZERO ISZERO DUP10 MSTORE PUSH1 0x40 MLOAD SWAP12 DUP13 SWAP12 DUP3 DUP14 MSTORE MLOAD AND SWAP1 DUP12 ADD MSTORE MLOAD PUSH1 0xE0 PUSH1 0x40 DUP12 ADD MSTORE PUSH2 0x100 DUP11 ADD SWAP1 PUSH2 0x17D8 JUMP JUMPDEST SWAP7 MLOAD PUSH1 0x60 DUP10 ADD SWAP1 PUSH2 0x1758 JUMP JUMPDEST MLOAD PUSH1 0x80 DUP8 ADD MSTORE MLOAD AND PUSH1 0xA0 DUP6 ADD MSTORE MLOAD ISZERO ISZERO PUSH1 0xC0 DUP5 ADD MSTORE MLOAD ISZERO ISZERO PUSH1 0xE0 DUP4 ADD MSTORE SUB SWAP1 RETURN JUMPDEST CALLVALUE PUSH2 0x1AC JUMPI PUSH1 0x20 CALLDATASIZE PUSH1 0x3 NOT ADD SLT PUSH2 0x1AC JUMPI PUSH1 0x4 CALLDATALOAD PUSH1 0x1 PUSH1 0x1 PUSH1 0x40 SHL SUB DUP2 GT PUSH2 0x1AC JUMPI PUSH2 0x686 PUSH1 0x40 SWAP2 CALLDATASIZE SWAP1 PUSH1 0x4 ADD PUSH2 0x173A JUMP JUMPDEST DUP2 MLOAD PUSH1 0x2 PUSH1 0x1 DUP4 MLOAD SWAP3 PUSH1 0x20 DUP2 DUP2 DUP8 ADD SWAP6 PUSH2 0x6A1 DUP2 DUP4 DUP10 PUSH2 0x17B7 JUMP JUMPDEST DUP2 ADD PUSH0 DUP2 MSTORE SUB ADD SWAP1 KECCAK256 ADD SLOAD SWAP3 PUSH2 0x6BE DUP6 MLOAD SWAP4 DUP5 SWAP3 MLOAD SWAP3 DUP4 SWAP2 PUSH2 0x17B7 JUMP JUMPDEST DUP3 ADD SWAP2 PUSH0 DUP4 MSTORE PUSH1 0x20 DUP2 PUSH1 0x1 DUP1 PUSH1 0xA0 SHL SUB SWAP5 SUB ADD SWAP1 KECCAK256 ADD SLOAD AND DUP3 MLOAD SWAP2 DUP3 MSTORE PUSH1 0x20 DUP3 ADD MSTORE RETURN JUMPDEST CALLVALUE PUSH2 0x1AC JUMPI PUSH1 0x20 CALLDATASIZE PUSH1 0x3 NOT ADD SLT PUSH2 0x1AC JUMPI PUSH1 0x4 CALLDATALOAD PUSH1 0x2 SLOAD DUP2 LT ISZERO PUSH2 0x1AC JUMPI PUSH1 0x2 PUSH0 MSTORE PUSH2 0x747 SWAP1 PUSH2 0x733 SWAP1 PUSH32 0x405787FA12A823E0F2B7631CC41B3BA8828B3321CA811111FA75CD3AA3BB5ACE ADD PUSH2 0x1835 JUMP JUMPDEST PUSH1 0x40 MLOAD SWAP2 DUP3 SWAP2 PUSH1 0x20 DUP4 MSTORE PUSH1 0x20 DUP4 ADD SWAP1 PUSH2 0x17D8 JUMP JUMPDEST SUB SWAP1 RETURN JUMPDEST CALLVALUE PUSH2 0x1AC JUMPI PUSH0 CALLDATASIZE PUSH1 0x3 NOT ADD SLT PUSH2 0x1AC JUMPI PUSH1 0x7 SLOAD PUSH1 0x40 MLOAD PUSH1 0x1 PUSH1 0x1 PUSH1 0xA0 SHL SUB SWAP1 SWAP2 AND DUP2 MSTORE PUSH1 0x20 SWAP1 RETURN JUMPDEST CALLVALUE PUSH2 0x1AC JUMPI PUSH1 0x20 CALLDATASIZE PUSH1 0x3 NOT ADD SLT PUSH2 0x1AC JUMPI PUSH1 0x4 CALLDATALOAD PUSH0 MSTORE PUSH1 0x1 PUSH1 0x20 MSTORE PUSH1 0x40 PUSH0 KECCAK256 PUSH1 0x1 DUP1 PUSH1 0xA0 SHL SUB DUP1 DUP3 SLOAD AND SWAP1 PUSH1 0xFF PUSH2 0x7AC PUSH1 0x1 DUP6 ADD PUSH2 0x1835 JUMP JUMPDEST SWAP4 DUP2 PUSH1 0x2 DUP3 ADD SLOAD AND SWAP3 PUSH1 0x4 PUSH1 0x3 DUP4 ADD SLOAD SWAP3 ADD SLOAD SWAP2 PUSH2 0x7EA PUSH2 0x7DF PUSH1 0x40 MLOAD SWAP9 DUP10 SWAP9 DUP10 MSTORE PUSH1 0xE0 PUSH1 0x20 DUP11 ADD MSTORE PUSH1 0xE0 DUP10 ADD SWAP1 PUSH2 0x17D8 JUMP JUMPDEST SWAP6 PUSH1 0x40 DUP9 ADD SWAP1 PUSH2 0x1758 JUMP JUMPDEST PUSH1 0x60 DUP7 ADD MSTORE DUP2 AND PUSH1 0x80 DUP6 ADD MSTORE DUP2 DUP2 PUSH1 0xA0 SHR AND ISZERO ISZERO PUSH1 0xA0 DUP6 ADD MSTORE PUSH1 0xA8 SHR AND ISZERO ISZERO PUSH1 0xC0 DUP4 ADD MSTORE SUB SWAP1 RETURN JUMPDEST CALLVALUE PUSH2 0x1AC JUMPI PUSH1 0x20 DUP1 PUSH1 0x3 NOT CALLDATASIZE ADD SLT PUSH2 0x1AC JUMPI PUSH1 0x4 CALLDATALOAD SWAP1 PUSH1 0x1 PUSH1 0x1 PUSH1 0x40 SHL SUB DUP3 GT PUSH2 0x1AC JUMPI PUSH2 0x846 PUSH1 0x80 SWAP3 CALLDATASIZE SWAP1 PUSH1 0x4 ADD PUSH2 0x173A JUMP JUMPDEST SWAP1 PUSH1 0x40 MLOAD SWAP2 PUSH1 0xFF DUP2 MLOAD SWAP4 DUP4 DUP2 DUP2 DUP6 ADD SWAP7 PUSH2 0x861 DUP2 DUP4 DUP11 PUSH2 0x17B7 JUMP JUMPDEST DUP2 ADD PUSH0 DUP2 MSTORE SUB ADD SWAP1 KECCAK256 SLOAD AND SWAP3 PUSH1 0xFF PUSH1 0x2 PUSH2 0x8CF DUP6 PUSH1 0x1 PUSH1 0x40 MLOAD DUP3 DUP2 DUP10 MLOAD PUSH2 0x889 DUP2 DUP4 DUP13 PUSH2 0x17B7 JUMP JUMPDEST DUP2 ADD PUSH0 DUP2 MSTORE SUB ADD SWAP1 KECCAK256 ADD SLOAD SWAP5 PUSH1 0x40 MLOAD DUP5 DUP9 MLOAD PUSH2 0x8A6 DUP2 DUP5 DUP7 PUSH2 0x17B7 JUMP JUMPDEST DUP3 ADD SWAP2 PUSH0 DUP4 MSTORE DUP5 DUP2 PUSH1 0x1 DUP1 PUSH1 0xA0 SHL SUB SWAP5 SUB ADD SWAP1 KECCAK256 ADD SLOAD AND SWAP7 PUSH1 0x40 MLOAD SWAP4 DUP5 SWAP3 DUP4 SWAP3 MLOAD SWAP3 DUP4 SWAP2 PUSH2 0x17B7 JUMP JUMPDEST DUP2 ADD PUSH0 DUP2 MSTORE SUB ADD SWAP1 KECCAK256 ADD SLOAD PUSH1 0xA0 SHR AND SWAP3 PUSH2 0x8EC PUSH1 0x40 MLOAD DUP1 SWAP7 PUSH2 0x1758 JUMP JUMPDEST DUP5 ADD MSTORE PUSH1 0x40 DUP4 ADD MSTORE ISZERO ISZERO PUSH1 0x60 DUP3 ADD MSTORE RETURN JUMPDEST CALLVALUE PUSH2 0x1AC JUMPI PUSH1 0x20 CALLDATASIZE PUSH1 0x3 NOT ADD SLT PUSH2 0x1AC JUMPI PUSH2 0x923 PUSH1 0x1 DUP1 PUSH1 0xA0 SHL SUB PUSH1 0x3 SLOAD AND CALLER EQ PUSH2 0x19C1 JUMP JUMPDEST PUSH1 0x4 DUP1 CALLDATALOAD SWAP1 SSTORE STOP JUMPDEST CALLVALUE PUSH2 0x1AC JUMPI PUSH1 0x20 CALLDATASIZE PUSH1 0x3 NOT ADD SLT PUSH2 0x1AC JUMPI PUSH1 0x40 MLOAD PUSH1 0x4 CALLDATALOAD PUSH1 0x1 PUSH1 0x1 PUSH1 0xA0 SHL SUB AND DUP2 MSTORE PUSH1 0x20 SWAP1 RETURN JUMPDEST CALLVALUE PUSH2 0x1AC JUMPI PUSH1 0x20 CALLDATASIZE PUSH1 0x3 NOT ADD SLT PUSH2 0x1AC JUMPI PUSH1 0x4 CALLDATALOAD PUSH1 0x1 PUSH1 0x1 PUSH1 0xA0 SHL SUB DUP2 DUP2 AND SWAP2 DUP3 SWAP1 SUB PUSH2 0x1AC JUMPI PUSH2 0x988 SWAP1 PUSH1 0x3 SLOAD AND CALLER EQ PUSH2 0x19C1 JUMP JUMPDEST PUSH1 0x7 DUP1 SLOAD PUSH1 0x1 PUSH1 0x1 PUSH1 0xA0 SHL SUB NOT AND SWAP2 SWAP1 SWAP2 OR SWAP1 SSTORE STOP JUMPDEST CALLVALUE PUSH2 0x1AC JUMPI PUSH1 0x20 CALLDATASIZE PUSH1 0x3 NOT ADD SLT PUSH2 0x1AC JUMPI PUSH1 0x4 CALLDATALOAD PUSH1 0x1 PUSH1 0x1 PUSH1 0x40 SHL SUB DUP2 GT PUSH2 0x1AC JUMPI CALLDATASIZE PUSH1 0x23 DUP3 ADD SLT ISZERO PUSH2 0x1AC JUMPI DUP1 PUSH1 0x4 ADD CALLDATALOAD PUSH1 0x1 PUSH1 0x1 PUSH1 0x40 SHL SUB DUP2 GT PUSH2 0x1AC JUMPI DUP2 ADD CALLDATASIZE PUSH1 0x24 DUP3 ADD GT PUSH2 0x1AC JUMPI DUP2 PUSH1 0x20 SWAP2 SUB SLT PUSH2 0x1AC JUMPI PUSH1 0x24 DUP2 ADD CALLDATALOAD PUSH0 SWAP1 DUP2 MSTORE PUSH1 0x1 PUSH1 0x20 MSTORE PUSH1 0x40 SWAP1 KECCAK256 SLOAD PUSH1 0x1 PUSH1 0x1 PUSH1 0xA0 SHL SUB AND PUSH2 0xA16 JUMPI STOP JUMPDEST PUSH1 0x8 SLOAD PUSH1 0x40 DUP1 MLOAD PUSH4 0xB7B9A01 PUSH1 0xE3 SHL DUP2 MSTORE PUSH1 0x24 DUP5 DUP2 ADD CALLDATALOAD PUSH1 0x4 DUP4 ADD MSTORE SWAP1 SWAP3 DUP4 SWAP2 SWAP1 DUP3 SWAP1 PUSH1 0x1 PUSH1 0x1 PUSH1 0xA0 SHL SUB AND GAS STATICCALL SWAP1 DUP2 ISZERO PUSH2 0x3E7 JUMPI PUSH0 SWAP1 PUSH0 SWAP3 PUSH2 0xFCC JUMPI JUMPDEST POP ISZERO PUSH2 0xA5C JUMPI STOP JUMPDEST ISZERO PUSH2 0xD9E JUMPI PUSH1 0x24 DUP2 ADD CALLDATALOAD PUSH0 MSTORE PUSH1 0x1 PUSH1 0x20 MSTORE PUSH1 0x24 PUSH1 0x40 PUSH0 KECCAK256 SWAP2 PUSH1 0x40 MLOAD SWAP3 PUSH2 0xA81 DUP5 PUSH2 0x16B9 JUMP JUMPDEST DUP1 SLOAD PUSH1 0x1 PUSH1 0x1 PUSH1 0xA0 SHL SUB AND DUP5 MSTORE PUSH2 0xA9A PUSH1 0x1 DUP3 ADD PUSH2 0x1835 JUMP JUMPDEST PUSH1 0x20 DUP6 ADD MSTORE PUSH2 0xAB3 PUSH1 0xFF PUSH1 0x2 DUP4 ADD SLOAD AND PUSH1 0x40 DUP7 ADD PUSH2 0x1973 JUMP JUMPDEST PUSH1 0x3 DUP2 ADD SLOAD PUSH1 0x60 DUP6 ADD MSTORE PUSH1 0x4 PUSH1 0x1 DUP1 PUSH1 0xA0 SHL SUB SWAP2 ADD SLOAD AND PUSH1 0x80 DUP5 ADD MSTORE PUSH1 0x1 PUSH1 0xA0 DUP5 ADD MSTORE PUSH1 0x1 PUSH1 0xC0 DUP5 ADD MSTORE ADD CALLDATALOAD PUSH0 MSTORE PUSH1 0x1 PUSH1 0x20 MSTORE PUSH1 0x40 PUSH0 KECCAK256 SWAP1 PUSH1 0x1 DUP1 PUSH1 0xA0 SHL SUB DUP2 MLOAD AND PUSH1 0x1 DUP1 PUSH1 0xA0 SHL SUB NOT DUP4 SLOAD AND OR DUP3 SSTORE PUSH1 0x20 DUP2 ADD MLOAD SWAP2 DUP3 MLOAD PUSH1 0x1 PUSH1 0x1 PUSH1 0x40 SHL SUB DUP2 GT PUSH2 0xD8A JUMPI PUSH2 0xB26 PUSH1 0x1 DUP4 ADD SLOAD PUSH2 0x17FD JUMP JUMPDEST PUSH1 0x1F DUP2 GT PUSH2 0xD46 JUMPI JUMPDEST POP PUSH1 0x20 PUSH1 0x1F DUP3 GT PUSH1 0x1 EQ PUSH2 0xCDC JUMPI DUP2 SWAP3 SWAP4 SWAP5 PUSH0 SWAP3 PUSH2 0xCD1 JUMPI JUMPDEST POP POP DUP2 PUSH1 0x1 SHL SWAP2 PUSH0 NOT SWAP1 PUSH1 0x3 SHL SHR NOT AND OR PUSH1 0x1 DUP3 ADD SSTORE JUMPDEST PUSH1 0x40 DUP3 ADD MLOAD SWAP1 PUSH1 0x2 DUP3 LT ISZERO PUSH2 0xCBD JUMPI PUSH2 0xB7D PUSH1 0x4 SWAP3 PUSH1 0x2 DUP4 ADD PUSH2 0x1922 JUMP JUMPDEST PUSH1 0x60 DUP4 ADD MLOAD PUSH1 0x3 DUP3 ADD SSTORE PUSH1 0x80 DUP4 ADD MLOAD SWAP2 ADD DUP1 SLOAD PUSH1 0xA0 DUP1 DUP6 ADD MLOAD PUSH1 0xC0 DUP7 ADD MLOAD PUSH1 0xFF PUSH1 0xA8 SHL SWAP1 ISZERO ISZERO PUSH1 0xA8 SHL AND PUSH1 0x1 PUSH1 0x1 PUSH1 0xB0 SHL SUB NOT SWAP1 SWAP4 AND PUSH1 0x1 PUSH1 0x1 PUSH1 0xA0 SHL SUB SWAP1 SWAP6 AND SWAP5 SWAP1 SWAP5 OR SWAP4 ISZERO ISZERO SWAP1 SHL PUSH1 0xFF PUSH1 0xA0 SHL AND SWAP3 SWAP1 SWAP3 OR SWAP2 SWAP1 SWAP2 OR SWAP1 SSTORE PUSH1 0x20 DUP1 DUP3 ADD MLOAD PUSH1 0x40 MLOAD DUP2 MLOAD SWAP1 SWAP3 SWAP2 DUP4 SWAP2 SWAP1 PUSH2 0xBF7 SWAP1 DUP3 SWAP1 DUP5 SWAP1 DUP7 ADD PUSH2 0x17B7 JUMP JUMPDEST DUP2 ADD PUSH0 DUP2 MSTORE SUB ADD SWAP1 KECCAK256 SWAP1 PUSH1 0x40 DUP2 ADD MLOAD SWAP2 PUSH1 0x2 DUP4 LT ISZERO PUSH2 0xCBD JUMPI PUSH2 0xC3B PUSH32 0xD9237F0AA8ACC77DE66789C96F4A41C3AEB6142849B759750D482EB136159834 SWAP4 DUP3 PUSH2 0x1922 JUMP JUMPDEST PUSH2 0xC9C PUSH1 0x60 DUP4 ADD MLOAD DUP1 PUSH1 0x1 DUP5 ADD SSTORE PUSH1 0xFF PUSH1 0x20 PUSH1 0x1 DUP1 PUSH1 0xA0 SHL SUB PUSH1 0x80 DUP8 ADD MLOAD AND SWAP6 PUSH1 0x2 DUP7 ADD SWAP7 DUP8 SLOAD SWAP1 DUP5 DUP2 PUSH1 0x1 DUP1 PUSH1 0xA0 SHL SUB NOT DUP5 AND OR DUP1 DUP12 SSTORE PUSH1 0xA0 SHR AND ISZERO PUSH2 0xCA1 JUMPI JUMPDEST POP POP ADD MLOAD SWAP4 SLOAD AND SWAP4 PUSH1 0x1 DUP1 PUSH1 0xA0 SHL SUB SWAP1 SLOAD AND SWAP1 PUSH1 0x40 MLOAD SWAP5 DUP6 SWAP5 DUP6 PUSH2 0x193A JUMP JUMPDEST SUB SWAP1 LOG1 STOP JUMPDEST PUSH1 0x1 PUSH1 0x1 PUSH1 0xA8 SHL SUB NOT SWAP1 SWAP2 AND OR PUSH1 0x1 PUSH1 0xA0 SHL OR DUP8 SSTORE DUP9 DUP1 PUSH2 0xC7D JUMP JUMPDEST PUSH4 0x4E487B71 PUSH1 0xE0 SHL PUSH0 MSTORE PUSH1 0x21 PUSH1 0x4 MSTORE PUSH1 0x24 PUSH0 REVERT JUMPDEST ADD MLOAD SWAP1 POP DUP5 DUP1 PUSH2 0xB48 JUMP JUMPDEST PUSH1 0x1 DUP4 ADD PUSH0 MSTORE PUSH1 0x20 PUSH0 KECCAK256 SWAP1 PUSH0 JUMPDEST PUSH1 0x1F NOT DUP5 AND DUP2 LT PUSH2 0xD2E JUMPI POP PUSH1 0x1 SWAP4 SWAP5 SWAP6 DUP4 PUSH1 0x1F NOT DUP2 AND LT PUSH2 0xD16 JUMPI JUMPDEST POP POP POP DUP2 SHL ADD PUSH1 0x1 DUP3 ADD SSTORE PUSH2 0xB5F JUMP JUMPDEST ADD MLOAD PUSH0 NOT PUSH1 0xF8 DUP5 PUSH1 0x3 SHL AND SHR NOT AND SWAP1 SSTORE DUP5 DUP1 DUP1 PUSH2 0xD06 JUMP JUMPDEST SWAP1 SWAP2 PUSH1 0x20 PUSH1 0x1 DUP2 SWAP3 DUP6 DUP11 ADD MLOAD DUP2 SSTORE ADD SWAP4 ADD SWAP2 ADD PUSH2 0xCE9 JUMP JUMPDEST PUSH1 0x1 DUP4 ADD PUSH0 MSTORE PUSH1 0x20 PUSH0 KECCAK256 PUSH1 0x1F DUP4 ADD PUSH1 0x5 SHR DUP2 ADD PUSH1 0x20 DUP5 LT PUSH2 0xD83 JUMPI JUMPDEST PUSH1 0x1F DUP4 ADD PUSH1 0x5 SHR DUP3 ADD DUP2 LT PUSH2 0xD78 JUMPI POP POP PUSH2 0xB2F JUMP JUMPDEST PUSH0 DUP2 SSTORE PUSH1 0x1 ADD PUSH2 0xD62 JUMP JUMPDEST POP DUP1 PUSH2 0xD62 JUMP JUMPDEST PUSH4 0x4E487B71 PUSH1 0xE0 SHL PUSH0 MSTORE PUSH1 0x41 PUSH1 0x4 MSTORE PUSH1 0x24 PUSH0 REVERT JUMPDEST PUSH1 0x24 DUP2 ADD CALLDATALOAD PUSH0 MSTORE PUSH1 0x1 PUSH1 0x20 MSTORE PUSH1 0x24 PUSH1 0x40 PUSH0 KECCAK256 SWAP2 PUSH1 0x40 MLOAD SWAP3 PUSH2 0xDBE DUP5 PUSH2 0x16B9 JUMP JUMPDEST DUP1 SLOAD PUSH1 0x1 PUSH1 0x1 PUSH1 0xA0 SHL SUB AND DUP5 MSTORE PUSH2 0xDD7 PUSH1 0x1 DUP3 ADD PUSH2 0x1835 JUMP JUMPDEST PUSH1 0x20 DUP6 ADD MSTORE PUSH2 0xDF0 PUSH1 0xFF PUSH1 0x2 DUP4 ADD SLOAD AND PUSH1 0x40 DUP7 ADD PUSH2 0x1973 JUMP JUMPDEST PUSH1 0x3 DUP2 ADD SLOAD PUSH1 0x60 DUP6 ADD MSTORE PUSH1 0x4 PUSH1 0x1 DUP1 PUSH1 0xA0 SHL SUB SWAP2 ADD SLOAD AND PUSH1 0x80 DUP5 ADD MSTORE PUSH1 0x1 PUSH1 0xA0 DUP5 ADD MSTORE PUSH0 PUSH1 0xC0 DUP5 ADD MSTORE ADD CALLDATALOAD PUSH0 MSTORE PUSH1 0x1 PUSH1 0x20 MSTORE PUSH1 0x40 PUSH0 KECCAK256 SWAP1 PUSH1 0x1 DUP1 PUSH1 0xA0 SHL SUB DUP2 MLOAD AND PUSH1 0x1 DUP1 PUSH1 0xA0 SHL SUB NOT DUP4 SLOAD AND OR DUP3 SSTORE PUSH1 0x20 DUP2 ADD MLOAD SWAP2 DUP3 MLOAD PUSH1 0x1 PUSH1 0x1 PUSH1 0x40 SHL SUB DUP2 GT PUSH2 0xD8A JUMPI PUSH2 0xE62 PUSH1 0x1 DUP4 ADD SLOAD PUSH2 0x17FD JUMP JUMPDEST PUSH1 0x1F DUP2 GT PUSH2 0xF88 JUMPI JUMPDEST POP PUSH1 0x20 PUSH1 0x1F DUP3 GT PUSH1 0x1 EQ PUSH2 0xF20 JUMPI DUP2 SWAP3 SWAP4 SWAP5 PUSH0 SWAP3 PUSH2 0xF15 JUMPI JUMPDEST POP POP DUP2 PUSH1 0x1 SHL SWAP2 PUSH0 NOT SWAP1 PUSH1 0x3 SHL SHR NOT AND OR PUSH1 0x1 DUP3 ADD SSTORE JUMPDEST PUSH1 0x40 DUP3 ADD MLOAD PUSH1 0x2 DUP2 LT ISZERO PUSH2 0xCBD JUMPI DUP2 PUSH2 0xEBB PUSH1 0x4 SWAP3 PUSH1 0x2 PUSH1 0xC0 SWAP6 ADD PUSH2 0x1922 JUMP JUMPDEST PUSH1 0x60 DUP5 ADD MLOAD PUSH1 0x3 DUP3 ADD SSTORE PUSH1 0x80 DUP5 ADD MLOAD SWAP2 ADD DUP1 SLOAD PUSH1 0xA0 DUP1 DUP7 ADD MLOAD SWAP5 SWAP1 SWAP6 ADD MLOAD PUSH1 0xFF PUSH1 0xA8 SHL SWAP1 ISZERO ISZERO PUSH1 0xA8 SHL AND PUSH1 0x1 PUSH1 0x1 PUSH1 0xB0 SHL SUB NOT SWAP1 SWAP2 AND PUSH1 0x1 PUSH1 0x1 PUSH1 0xA0 SHL SUB SWAP1 SWAP4 AND SWAP3 SWAP1 SWAP3 OR SWAP3 ISZERO ISZERO SWAP1 SWAP4 SHL PUSH1 0xFF PUSH1 0xA0 SHL AND SWAP2 SWAP1 SWAP2 OR OR SWAP1 SSTORE STOP JUMPDEST ADD MLOAD SWAP1 POP DUP5 DUP1 PUSH2 0xE84 JUMP JUMPDEST PUSH1 0x1F NOT DUP3 AND SWAP1 PUSH1 0x1 DUP5 ADD PUSH0 MSTORE PUSH1 0x20 PUSH0 KECCAK256 SWAP2 PUSH0 JUMPDEST DUP2 DUP2 LT PUSH2 0xF70 JUMPI POP SWAP6 DUP4 PUSH1 0x1 SWAP6 SWAP7 SWAP8 LT PUSH2 0xF58 JUMPI JUMPDEST POP POP POP DUP2 SHL ADD PUSH1 0x1 DUP3 ADD SSTORE PUSH2 0xE9B JUMP JUMPDEST ADD MLOAD PUSH0 NOT PUSH1 0xF8 DUP5 PUSH1 0x3 SHL AND SHR NOT AND SWAP1 SSTORE DUP5 DUP1 DUP1 PUSH2 0xF48 JUMP JUMPDEST SWAP2 SWAP3 PUSH1 0x20 PUSH1 0x1 DUP2 SWAP3 DUP7 DUP12 ADD MLOAD DUP2 SSTORE ADD SWAP5 ADD SWAP3 ADD PUSH2 0xF33 JUMP JUMPDEST PUSH1 0x1 DUP4 ADD PUSH0 MSTORE PUSH1 0x20 PUSH0 KECCAK256 PUSH1 0x1F DUP4 ADD PUSH1 0x5 SHR DUP2 ADD PUSH1 0x20 DUP5 LT PUSH2 0xFC5 JUMPI JUMPDEST PUSH1 0x1F DUP4 ADD PUSH1 0x5 SHR DUP3 ADD DUP2 LT PUSH2 0xFBA JUMPI POP POP PUSH2 0xE6B JUMP JUMPDEST PUSH0 DUP2 SSTORE PUSH1 0x1 ADD PUSH2 0xFA4 JUMP JUMPDEST POP DUP1 PUSH2 0xFA4 JUMP JUMPDEST SWAP2 POP POP PUSH1 0x40 DUP2 RETURNDATASIZE PUSH1 0x40 GT PUSH2 0x100C JUMPI JUMPDEST DUP2 PUSH2 0xFE8 PUSH1 0x40 SWAP4 DUP4 PUSH2 0x16D4 JUMP JUMPDEST DUP2 ADD SUB SLT PUSH2 0x1AC JUMPI PUSH2 0x1005 PUSH1 0x20 PUSH2 0xFFE DUP4 PUSH2 0x197F JUMP JUMPDEST SWAP3 ADD PUSH2 0x197F JUMP JUMPDEST SWAP1 DUP4 PUSH2 0xA54 JUMP JUMPDEST RETURNDATASIZE SWAP2 POP PUSH2 0xFDB JUMP JUMPDEST CALLVALUE PUSH2 0x1AC JUMPI PUSH1 0x3 NOT PUSH1 0x40 CALLDATASIZE DUP3 ADD SLT PUSH2 0x1AC JUMPI PUSH1 0x1 PUSH1 0x1 PUSH1 0x40 SHL SUB SWAP1 PUSH1 0x4 CALLDATALOAD DUP3 DUP2 GT PUSH2 0x1AC JUMPI PUSH2 0x100 DUP2 PUSH1 0x4 ADD SWAP3 DUP3 CALLDATASIZE SUB ADD SLT PUSH2 0x1AC JUMPI PUSH1 0x24 CALLDATALOAD DUP4 DUP2 GT PUSH2 0x1AC JUMPI CALLDATASIZE PUSH1 0x23 DUP3 ADD SLT ISZERO PUSH2 0x1AC JUMPI PUSH2 0x1073 SWAP1 CALLDATASIZE SWAP1 PUSH1 0x24 DUP2 PUSH1 0x4 ADD CALLDATALOAD SWAP2 ADD PUSH2 0x16F5 JUMP JUMPDEST POP PUSH1 0xC4 PUSH0 SWAP2 ADD SWAP2 PUSH2 0x1084 DUP4 DUP3 PUSH2 0x198C JUMP JUMPDEST PUSH1 0x1 SWAP5 SWAP2 SWAP5 LT ISZERO PUSH2 0x114C JUMPI PUSH2 0x1098 SWAP2 PUSH2 0x198C JUMP JUMPDEST PUSH1 0x2 LT ISZERO PUSH2 0x114C JUMPI PUSH1 0x40 ADD CALLDATALOAD SWAP2 PUSH1 0x1 DUP1 PUSH1 0xA0 SHL SUB SWAP1 DUP2 PUSH1 0x20 DUP2 PUSH1 0x9 SLOAD AND SWAP3 ADD CALLDATALOAD AND EQ SWAP1 DUP2 PUSH2 0x1134 JUMPI JUMPDEST POP DUP1 PUSH2 0x1117 JUMPI JUMPDEST PUSH2 0x110F JUMPI JUMPDEST PUSH1 0x40 MLOAD SWAP2 PUSH1 0x20 DUP4 ADD MSTORE PUSH1 0x20 DUP3 MSTORE PUSH1 0x40 DUP3 ADD SWAP3 DUP3 DUP5 LT SWAP1 DUP5 GT OR PUSH2 0xD8A JUMPI DUP3 PUSH1 0x40 MSTORE ISZERO ISZERO DUP3 MSTORE PUSH1 0x40 PUSH1 0x60 DUP3 ADD MSTORE PUSH1 0x3F NOT SWAP1 PUSH2 0x110A PUSH1 0x80 DUP3 ADD DUP3 PUSH2 0x17D8 JUMP JUMPDEST SUB ADD SWAP1 RETURN JUMPDEST POP PUSH1 0x1 PUSH2 0x10CD JUMP JUMPDEST POP DUP2 PUSH0 MSTORE PUSH1 0x1 PUSH1 0x20 MSTORE PUSH1 0xFF PUSH1 0x4 PUSH1 0x40 PUSH0 KECCAK256 ADD SLOAD PUSH1 0xA0 SHR AND ISZERO PUSH2 0x10C8 JUMP JUMPDEST SWAP1 POP DUP3 PUSH0 MSTORE PUSH1 0x1 PUSH1 0x20 MSTORE PUSH1 0x40 PUSH0 KECCAK256 SLOAD AND ISZERO ISZERO DUP5 PUSH2 0x10C1 JUMP JUMPDEST PUSH4 0x4E487B71 PUSH1 0xE0 SHL PUSH0 MSTORE PUSH1 0x32 PUSH1 0x4 MSTORE PUSH1 0x24 PUSH0 REVERT JUMPDEST CALLVALUE PUSH2 0x1AC JUMPI PUSH0 CALLDATASIZE PUSH1 0x3 NOT ADD SLT PUSH2 0x1AC JUMPI PUSH1 0x20 PUSH1 0x6 SLOAD PUSH1 0x40 MLOAD SWAP1 DUP2 MSTORE RETURN JUMPDEST PUSH2 0x1186 CALLDATASIZE PUSH2 0x1765 JUMP JUMPDEST SWAP3 SWAP2 SWAP1 PUSH1 0x6 SLOAD CALLVALUE SUB PUSH2 0x15CC JUMPI DUP1 PUSH2 0x15B3 JUMPI JUMPDEST PUSH1 0x1 DUP1 PUSH1 0xA0 SHL SUB PUSH1 0x8 SLOAD AND SWAP3 PUSH1 0x20 PUSH1 0x5 SLOAD PUSH1 0x40 MLOAD SWAP6 DUP7 DUP1 SWAP3 PUSH4 0xB07BCBC5 PUSH1 0xE0 SHL DUP3 MSTORE PUSH1 0x40 PUSH1 0x4 DUP4 ADD MSTORE DUP2 PUSH2 0x11CF PUSH1 0x44 DUP3 ADD DUP9 PUSH2 0x17D8 JUMP JUMPDEST ADDRESS PUSH1 0x24 DUP4 ADD MSTORE SUB SWAP3 GAS CALL SWAP4 DUP5 ISZERO PUSH2 0x3E7 JUMPI PUSH0 SWAP5 PUSH2 0x157F JUMPI JUMPDEST POP DUP4 ISZERO PUSH2 0x1543 JUMPI PUSH32 0xFA5B4CF8647CAE9211A0088685C4E4610E9464DD64CC7AD7152C4FE69E04AE34 SWAP3 PUSH2 0x12E5 SWAP3 DUP6 PUSH0 MSTORE PUSH1 0x1 PUSH1 0x20 MSTORE PUSH1 0x40 PUSH0 KECCAK256 SWAP7 PUSH1 0xFF PUSH1 0x4 PUSH1 0x40 MLOAD SWAP10 PUSH2 0x1232 DUP12 PUSH2 0x16B9 JUMP JUMPDEST DUP1 SLOAD PUSH1 0x1 PUSH1 0x1 PUSH1 0xA0 SHL SUB AND DUP12 MSTORE PUSH2 0x124B PUSH1 0x1 DUP3 ADD PUSH2 0x1835 JUMP JUMPDEST PUSH1 0x20 DUP13 ADD MSTORE PUSH2 0x1263 DUP4 PUSH1 0x2 DUP4 ADD SLOAD AND PUSH1 0x40 DUP14 ADD PUSH2 0x1973 JUMP JUMPDEST PUSH1 0x3 DUP2 ADD SLOAD PUSH1 0x60 DUP13 ADD MSTORE ADD SLOAD PUSH1 0x1 PUSH1 0x1 PUSH1 0xA0 SHL SUB DUP2 AND PUSH1 0x80 DUP12 ADD MSTORE PUSH1 0xA0 DUP2 DUP2 SHR DUP4 AND ISZERO ISZERO SWAP1 DUP12 ADD MSTORE PUSH1 0xA8 SHR AND ISZERO ISZERO PUSH1 0xC0 DUP10 ADD MSTORE CALLER DUP9 MSTORE PUSH1 0x20 DUP9 ADD DUP5 SWAP1 MSTORE PUSH2 0x12AD DUP4 PUSH1 0x40 DUP11 ADD PUSH2 0x1973 JUMP JUMPDEST DUP2 PUSH1 0x60 DUP10 ADD MSTORE PUSH1 0x1 DUP1 PUSH1 0xA0 SHL SUB AND SWAP1 DUP2 PUSH1 0x80 DUP10 ADD MSTORE PUSH2 0x12F0 PUSH1 0x40 MLOAD SWAP6 DUP7 SWAP6 DUP10 DUP8 MSTORE CALLER PUSH1 0x20 DUP9 ADD MSTORE PUSH1 0xC0 PUSH1 0x40 DUP9 ADD MSTORE PUSH1 0xC0 DUP8 ADD SWAP1 PUSH2 0x17D8 JUMP JUMPDEST SWAP4 PUSH1 0x60 DUP7 ADD SWAP1 PUSH2 0x1758 JUMP JUMPDEST PUSH1 0x80 DUP5 ADD MSTORE PUSH1 0xA0 DUP4 ADD MSTORE SUB SWAP1 LOG1 PUSH1 0x7 SLOAD PUSH1 0x5 SLOAD CALLVALUE SWAP1 DUP2 SUB SWAP2 PUSH1 0x1 PUSH1 0x1 PUSH1 0xA0 SHL SUB AND SWAP1 DUP3 GT PUSH2 0x492 JUMPI PUSH1 0x20 SWAP1 PUSH1 0x24 PUSH1 0x40 MLOAD DUP1 SWAP5 DUP2 SWAP4 PUSH4 0x3DE5599D PUSH1 0xE1 SHL DUP4 MSTORE ADDRESS PUSH1 0x4 DUP5 ADD MSTORE GAS CALL SWAP1 DUP2 ISZERO PUSH2 0x3E7 JUMPI PUSH0 SWAP2 PUSH2 0x1509 JUMPI JUMPDEST POP ISZERO PUSH2 0x1AC JUMPI DUP1 PUSH0 MSTORE PUSH1 0x1 PUSH1 0x20 MSTORE PUSH1 0x40 PUSH0 KECCAK256 SWAP1 PUSH1 0x1 DUP1 PUSH1 0xA0 SHL SUB DUP4 MLOAD AND PUSH1 0x1 DUP1 PUSH1 0xA0 SHL SUB NOT DUP4 SLOAD AND OR DUP3 SSTORE PUSH1 0x20 DUP4 ADD MLOAD SWAP3 DUP4 MLOAD PUSH1 0x1 PUSH1 0x1 PUSH1 0x40 SHL SUB DUP2 GT PUSH2 0xD8A JUMPI PUSH2 0x1392 PUSH1 0x1 DUP6 ADD SLOAD PUSH2 0x17FD JUMP JUMPDEST PUSH1 0x1F DUP2 GT PUSH2 0x14C5 JUMPI JUMPDEST POP PUSH1 0x20 PUSH1 0x1F DUP3 GT PUSH1 0x1 EQ PUSH2 0x145A JUMPI DUP2 SWAP3 SWAP4 SWAP5 SWAP6 PUSH0 SWAP3 PUSH2 0x144F JUMPI JUMPDEST POP POP DUP2 PUSH1 0x1 SHL SWAP2 PUSH0 NOT SWAP1 PUSH1 0x3 SHL SHR NOT AND OR PUSH1 0x1 DUP5 ADD SSTORE JUMPDEST PUSH1 0x40 DUP2 ADD MLOAD SWAP3 PUSH1 0x2 DUP5 LT ISZERO PUSH2 0xCBD JUMPI PUSH1 0x4 DUP2 PUSH2 0x13EF PUSH1 0x20 SWAP7 PUSH1 0x2 PUSH1 0xC0 SWAP6 ADD PUSH2 0x1922 JUMP JUMPDEST PUSH1 0x60 DUP5 ADD MLOAD PUSH1 0x3 DUP3 ADD SSTORE PUSH1 0x80 DUP5 ADD MLOAD SWAP2 ADD DUP1 SLOAD PUSH1 0xA0 DUP1 DUP7 ADD MLOAD SWAP5 SWAP1 SWAP6 ADD MLOAD PUSH1 0xFF PUSH1 0xA8 SHL SWAP1 ISZERO ISZERO PUSH1 0xA8 SHL AND PUSH1 0x1 PUSH1 0x1 PUSH1 0xB0 SHL SUB NOT SWAP1 SWAP2 AND PUSH1 0x1 PUSH1 0x1 PUSH1 0xA0 SHL SUB SWAP1 SWAP4 AND SWAP3 SWAP1 SWAP3 OR SWAP3 ISZERO ISZERO SWAP1 SWAP4 SHL PUSH1 0xFF PUSH1 0xA0 SHL AND SWAP2 SWAP1 SWAP2 OR OR SWAP1 SSTORE PUSH1 0x40 MLOAD SWAP1 DUP2 MSTORE RETURN JUMPDEST ADD MLOAD SWAP1 POP DUP6 DUP1 PUSH2 0x13B5 JUMP JUMPDEST PUSH1 0x1 DUP6 ADD PUSH0 MSTORE PUSH1 0x20 PUSH0 KECCAK256 SWAP1 PUSH0 JUMPDEST PUSH1 0x1F NOT DUP5 AND DUP2 LT PUSH2 0x14AD JUMPI POP PUSH1 0x1 SWAP4 SWAP5 SWAP6 SWAP7 DUP4 PUSH1 0x1F NOT DUP2 AND LT PUSH2 0x1495 JUMPI JUMPDEST POP POP POP DUP2 SHL ADD PUSH1 0x1 DUP5 ADD SSTORE PUSH2 0x13CC JUMP JUMPDEST ADD MLOAD PUSH0 NOT PUSH1 0xF8 DUP5 PUSH1 0x3 SHL AND SHR NOT AND SWAP1 SSTORE DUP6 DUP1 DUP1 PUSH2 0x1485 JUMP JUMPDEST SWAP1 SWAP2 PUSH1 0x20 PUSH1 0x1 DUP2 SWAP3 DUP6 DUP12 ADD MLOAD DUP2 SSTORE ADD SWAP4 ADD SWAP2 ADD PUSH2 0x1467 JUMP JUMPDEST PUSH1 0x1 DUP6 ADD PUSH0 MSTORE PUSH1 0x20 PUSH0 KECCAK256 PUSH1 0x1F DUP4 ADD PUSH1 0x5 SHR DUP2 ADD PUSH1 0x20 DUP5 LT PUSH2 0x1502 JUMPI JUMPDEST PUSH1 0x1F DUP4 ADD PUSH1 0x5 SHR DUP3 ADD DUP2 LT PUSH2 0x14F7 JUMPI POP POP PUSH2 0x139B JUMP JUMPDEST PUSH0 DUP2 SSTORE PUSH1 0x1 ADD PUSH2 0x14E1 JUMP JUMPDEST POP DUP1 PUSH2 0x14E1 JUMP JUMPDEST SWAP1 POP PUSH1 0x20 DUP2 RETURNDATASIZE PUSH1 0x20 GT PUSH2 0x153B JUMPI JUMPDEST DUP2 PUSH2 0x1524 PUSH1 0x20 SWAP4 DUP4 PUSH2 0x16D4 JUMP JUMPDEST DUP2 ADD SUB SLT PUSH2 0x1AC JUMPI PUSH2 0x1535 SWAP1 PUSH2 0x197F JUMP JUMPDEST DUP4 PUSH2 0x1344 JUMP JUMPDEST RETURNDATASIZE SWAP2 POP PUSH2 0x1517 JUMP JUMPDEST PUSH1 0x40 MLOAD PUSH3 0x461BCD PUSH1 0xE5 SHL DUP2 MSTORE PUSH1 0x20 PUSH1 0x4 DUP3 ADD MSTORE PUSH1 0x14 PUSH1 0x24 DUP3 ADD MSTORE PUSH20 0x141C9BDC1BDCD85B081B9BDD0818DC99585D1959 PUSH1 0x62 SHL PUSH1 0x44 DUP3 ADD MSTORE PUSH1 0x64 SWAP1 REVERT JUMPDEST SWAP1 SWAP4 POP PUSH1 0x20 DUP2 RETURNDATASIZE PUSH1 0x20 GT PUSH2 0x15AB JUMPI JUMPDEST DUP2 PUSH2 0x159B PUSH1 0x20 SWAP4 DUP4 PUSH2 0x16D4 JUMP JUMPDEST DUP2 ADD SUB SLT PUSH2 0x1AC JUMPI MLOAD SWAP3 DUP6 PUSH2 0x11E7 JUMP JUMPDEST RETURNDATASIZE SWAP2 POP PUSH2 0x158E JUMP JUMPDEST PUSH2 0x15C7 PUSH1 0x1 PUSH1 0x1 PUSH1 0xA0 SHL SUB DUP6 AND ISZERO ISZERO PUSH2 0x18D6 JUMP JUMPDEST PUSH2 0x1198 JUMP JUMPDEST PUSH1 0x40 MLOAD PUSH3 0x461BCD PUSH1 0xE5 SHL DUP2 MSTORE PUSH1 0x20 PUSH1 0x4 DUP3 ADD MSTORE PUSH1 0xD PUSH1 0x24 DUP3 ADD MSTORE PUSH13 0x496E636F727265637420666565 PUSH1 0x98 SHL PUSH1 0x44 DUP3 ADD MSTORE PUSH1 0x64 SWAP1 REVERT JUMPDEST CALLVALUE PUSH2 0x1AC JUMPI PUSH1 0x20 CALLDATASIZE PUSH1 0x3 NOT ADD SLT PUSH2 0x1AC JUMPI PUSH1 0x4 CALLDATALOAD PUSH1 0x1 PUSH1 0x1 PUSH1 0x40 SHL SUB DUP2 GT PUSH2 0x1AC JUMPI PUSH1 0xFF PUSH2 0x1639 PUSH1 0x20 PUSH2 0x150 DUP2 SWAP5 CALLDATASIZE SWAP1 PUSH1 0x4 ADD PUSH2 0x173A JUMP JUMPDEST DUP2 ADD PUSH0 DUP2 MSTORE SUB ADD SWAP1 KECCAK256 SLOAD AND PUSH2 0x1651 PUSH1 0x40 MLOAD DUP1 SWAP3 PUSH2 0x1758 JUMP JUMPDEST RETURN JUMPDEST CALLVALUE PUSH2 0x1AC JUMPI PUSH1 0x20 CALLDATASIZE PUSH1 0x3 NOT ADD SLT PUSH2 0x1AC JUMPI PUSH1 0x4 CALLDATALOAD PUSH1 0x1 PUSH1 0x1 PUSH1 0xA0 SHL SUB DUP2 DUP2 AND SWAP2 DUP3 SWAP1 SUB PUSH2 0x1AC JUMPI PUSH2 0x1689 SWAP1 PUSH1 0x3 SLOAD AND CALLER EQ PUSH2 0x19C1 JUMP JUMPDEST PUSH1 0x8 DUP1 SLOAD PUSH1 0x1 PUSH1 0x1 PUSH1 0xA0 SHL SUB NOT AND SWAP2 SWAP1 SWAP2 OR SWAP1 SSTORE STOP JUMPDEST CALLVALUE PUSH2 0x1AC JUMPI PUSH0 CALLDATASIZE PUSH1 0x3 NOT ADD SLT PUSH2 0x1AC JUMPI PUSH1 0x20 SWAP1 PUSH1 0x5 SLOAD DUP2 MSTORE RETURN JUMPDEST PUSH1 0xE0 DUP2 ADD SWAP1 DUP2 LT PUSH1 0x1 PUSH1 0x1 PUSH1 0x40 SHL SUB DUP3 GT OR PUSH2 0xD8A JUMPI PUSH1 0x40 MSTORE JUMP JUMPDEST SWAP1 PUSH1 0x1F DUP1 NOT SWAP2 ADD AND DUP2 ADD SWAP1 DUP2 LT PUSH1 0x1 PUSH1 0x1 PUSH1 0x40 SHL SUB DUP3 GT OR PUSH2 0xD8A JUMPI PUSH1 0x40 MSTORE JUMP JUMPDEST SWAP3 SWAP2 SWAP3 PUSH1 0x1 PUSH1 0x1 PUSH1 0x40 SHL SUB DUP3 GT PUSH2 0xD8A JUMPI PUSH1 0x40 MLOAD SWAP2 PUSH2 0x171E PUSH1 0x1F DUP3 ADD PUSH1 0x1F NOT AND PUSH1 0x20 ADD DUP5 PUSH2 0x16D4 JUMP JUMPDEST DUP3 SWAP5 DUP2 DUP5 MSTORE DUP2 DUP4 ADD GT PUSH2 0x1AC JUMPI DUP3 DUP2 PUSH1 0x20 SWAP4 DUP5 PUSH0 SWAP7 ADD CALLDATACOPY ADD ADD MSTORE JUMP JUMPDEST SWAP1 DUP1 PUSH1 0x1F DUP4 ADD SLT ISZERO PUSH2 0x1AC JUMPI DUP2 PUSH1 0x20 PUSH2 0x1755 SWAP4 CALLDATALOAD SWAP2 ADD PUSH2 0x16F5 JUMP JUMPDEST SWAP1 JUMP JUMPDEST SWAP1 PUSH1 0x2 DUP3 LT ISZERO PUSH2 0xCBD JUMPI MSTORE JUMP JUMPDEST PUSH1 0x80 PUSH1 0x3 NOT DUP3 ADD SLT PUSH2 0x1AC JUMPI PUSH1 0x4 CALLDATALOAD SWAP1 PUSH1 0x1 PUSH1 0x1 PUSH1 0x40 SHL SUB DUP3 GT PUSH2 0x1AC JUMPI PUSH2 0x178F SWAP2 PUSH1 0x4 ADD PUSH2 0x173A JUMP JUMPDEST SWAP1 PUSH1 0x24 CALLDATALOAD PUSH1 0x2 DUP2 LT ISZERO PUSH2 0x1AC JUMPI SWAP1 PUSH1 0x44 CALLDATALOAD SWAP1 PUSH1 0x64 CALLDATALOAD PUSH1 0x1 PUSH1 0x1 PUSH1 0xA0 SHL SUB DUP2 AND DUP2 SUB PUSH2 0x1AC JUMPI SWAP1 JUMP JUMPDEST PUSH0 JUMPDEST DUP4 DUP2 LT PUSH2 0x17C8 JUMPI POP POP PUSH0 SWAP2 ADD MSTORE JUMP JUMPDEST DUP2 DUP2 ADD MLOAD DUP4 DUP3 ADD MSTORE PUSH1 0x20 ADD PUSH2 0x17B9 JUMP JUMPDEST SWAP1 PUSH1 0x20 SWAP2 PUSH2 0x17F1 DUP2 MLOAD DUP1 SWAP3 DUP2 DUP6 MSTORE DUP6 DUP1 DUP7 ADD SWAP2 ADD PUSH2 0x17B7 JUMP JUMPDEST PUSH1 0x1F ADD PUSH1 0x1F NOT AND ADD ADD SWAP1 JUMP JUMPDEST SWAP1 PUSH1 0x1 DUP3 DUP2 SHR SWAP3 AND DUP1 ISZERO PUSH2 0x182B JUMPI JUMPDEST PUSH1 0x20 DUP4 LT EQ PUSH2 0x1817 JUMPI JUMP JUMPDEST PUSH4 0x4E487B71 PUSH1 0xE0 SHL PUSH0 MSTORE PUSH1 0x22 PUSH1 0x4 MSTORE PUSH1 0x24 PUSH0 REVERT JUMPDEST SWAP2 PUSH1 0x7F AND SWAP2 PUSH2 0x180C JUMP JUMPDEST SWAP1 PUSH1 0x40 MLOAD SWAP2 DUP3 PUSH0 DUP3 SLOAD SWAP3 PUSH2 0x1848 DUP5 PUSH2 0x17FD JUMP JUMPDEST SWAP1 DUP2 DUP5 MSTORE PUSH1 0x1 SWAP5 DUP6 DUP2 AND SWAP1 DUP2 PUSH0 EQ PUSH2 0x18B3 JUMPI POP PUSH1 0x1 EQ PUSH2 0x1873 JUMPI JUMPDEST POP POP PUSH2 0x1871 SWAP3 POP SUB DUP4 PUSH2 0x16D4 JUMP JUMPDEST JUMP JUMPDEST SWAP1 SWAP4 SWAP2 POP PUSH0 MSTORE PUSH1 0x20 SWAP1 DUP2 PUSH0 KECCAK256 SWAP4 PUSH0 SWAP2 JUMPDEST DUP2 DUP4 LT PUSH2 0x189B JUMPI POP POP PUSH2 0x1871 SWAP4 POP DUP3 ADD ADD PUSH0 DUP1 PUSH2 0x1863 JUMP JUMPDEST DUP6 SLOAD DUP9 DUP5 ADD DUP6 ADD MSTORE SWAP5 DUP6 ADD SWAP5 DUP8 SWAP5 POP SWAP2 DUP4 ADD SWAP2 PUSH2 0x1883 JUMP JUMPDEST SWAP2 POP POP PUSH2 0x1871 SWAP5 POP PUSH1 0x20 SWAP3 POP PUSH1 0xFF NOT AND DUP3 DUP5 ADD MSTORE ISZERO ISZERO PUSH1 0x5 SHL DUP3 ADD ADD PUSH0 DUP1 PUSH2 0x1863 JUMP JUMPDEST ISZERO PUSH2 0x18DD JUMPI JUMP JUMPDEST PUSH1 0x40 MLOAD PUSH3 0x461BCD PUSH1 0xE5 SHL DUP2 MSTORE PUSH1 0x20 PUSH1 0x4 DUP3 ADD MSTORE PUSH1 0x1B PUSH1 0x24 DUP3 ADD MSTORE PUSH32 0x53656E64696E6720616464726573732063616E6E6F7420626520300000000000 PUSH1 0x44 DUP3 ADD MSTORE PUSH1 0x64 SWAP1 REVERT JUMPDEST SWAP1 PUSH1 0x2 DUP2 LT ISZERO PUSH2 0xCBD JUMPI PUSH1 0xFF DUP1 NOT DUP4 SLOAD AND SWAP2 AND OR SWAP1 SSTORE JUMP JUMPDEST SWAP3 PUSH2 0x1960 PUSH2 0x1955 PUSH1 0x60 SWAP5 SWAP8 SWAP7 SWAP4 PUSH1 0x80 DUP8 MSTORE PUSH1 0x80 DUP8 ADD SWAP1 PUSH2 0x17D8 JUMP JUMPDEST SWAP7 PUSH1 0x20 DUP7 ADD SWAP1 PUSH2 0x1758 JUMP JUMPDEST PUSH1 0x40 DUP5 ADD MSTORE PUSH1 0x1 PUSH1 0x1 PUSH1 0xA0 SHL SUB AND SWAP2 ADD MSTORE JUMP JUMPDEST PUSH1 0x2 DUP3 LT ISZERO PUSH2 0xCBD JUMPI MSTORE JUMP JUMPDEST MLOAD SWAP1 DUP2 ISZERO ISZERO DUP3 SUB PUSH2 0x1AC JUMPI JUMP JUMPDEST SWAP1 CALLDATALOAD SWAP1 PUSH1 0x1E NOT DUP2 CALLDATASIZE SUB ADD DUP3 SLT ISZERO PUSH2 0x1AC JUMPI ADD DUP1 CALLDATALOAD SWAP1 PUSH1 0x1 PUSH1 0x1 PUSH1 0x40 SHL SUB DUP3 GT PUSH2 0x1AC JUMPI PUSH1 0x20 ADD SWAP2 DUP2 PUSH1 0x5 SHL CALLDATASIZE SUB DUP4 SGT PUSH2 0x1AC JUMPI JUMP JUMPDEST ISZERO PUSH2 0x19C8 JUMPI JUMP JUMPDEST PUSH1 0x40 MLOAD PUSH3 0x461BCD PUSH1 0xE5 SHL DUP2 MSTORE PUSH1 0x20 PUSH1 0x4 DUP3 ADD MSTORE PUSH1 0x16 PUSH1 0x24 DUP3 ADD MSTORE PUSH22 0x2737BA103A34329031B7B73A3930B1BA1037BBB732B9 PUSH1 0x51 SHL PUSH1 0x44 DUP3 ADD MSTORE PUSH1 0x64 SWAP1 REVERT INVALID LOG2 PUSH5 0x6970667358 0x22 SLT KECCAK256 PUSH30 0xE7CA1E6E76D0B9D66508442A0928356154205A5F6AD521B33D2D20AED059 0xDB PUSH5 0x736F6C6343 STOP ADDMOD EQ STOP CALLER "},"methodIdentifiers":{"CommunityContract()":"f0642315","ContractParameterKeys(uint256)":"b169499a","FundContract()":"8ed8067e","IncentiveProposals(uint256)":"769d5984","IncentiveStructures(string)":"f2849180","TGcommunitiesFee()":"03c0b315","UpdateTotalFee()":"d1dda68f","bytes32ToAddress(bytes32)":"5ced058e","checkLog((uint256,uint256,bytes32,uint256,bytes32,address,bytes32[],bytes),bytes)":"40691db4","createProposal(string,uint8,uint256,address)":"1a216bbd","fee()":"ddca3f43","getCommunityFeeInfo(string)":"bac4cd07","getIncentiveParamsExist(string)":"cc271aa3","getInctiveStructure(string)":"10dbfe24","getParams(string)":"701a7a1d","getProposal(uint256)":"c7f758a8","performUpkeep(bytes)":"4585e33b","setFee(uint256)":"69fe0e2d","setFundContract(address)":"59144baa","setParams(string,uint8,uint256,address)":"eae7254d","settgetherCommunityContract(address)":"04189d0b","totalFee()":"1df4ccfc","upkeepId()":"d2aa789f"}}}}}