{"contracts/learntgetherMembers.sol":{"learntgetherMembers":{"abi":[{"inputs":[],"stateMutability":"nonpayable","type":"constructor"},{"anonymous":false,"inputs":[{"indexed":true,"internalType":"string","name":"communityName","type":"string"},{"indexed":true,"internalType":"address","name":"memberAddress","type":"address"},{"indexed":true,"internalType":"address","name":"actor","type":"address"},{"indexed":false,"internalType":"int256","name":"creds","type":"int256"}],"name":"AddedNegCred","type":"event"},{"anonymous":false,"inputs":[{"indexed":true,"internalType":"string","name":"communityName","type":"string"},{"indexed":true,"internalType":"address","name":"memberAddress","type":"address"},{"indexed":true,"internalType":"address","name":"actor","type":"address"},{"indexed":false,"internalType":"int256","name":"creds","type":"int256"}],"name":"AddedPosCred","type":"event"},{"anonymous":false,"inputs":[{"indexed":true,"internalType":"address","name":"memberAddress","type":"address"},{"indexed":true,"internalType":"string","name":"communityName","type":"string"},{"indexed":false,"internalType":"int256","name":"creds","type":"int256"},{"indexed":true,"internalType":"uint256","name":"timestamp","type":"uint256"}],"name":"Creds","type":"event"},{"anonymous":false,"inputs":[{"indexed":true,"internalType":"string","name":"communityName","type":"string"},{"indexed":true,"internalType":"address","name":"memberAddress","type":"address"},{"indexed":true,"internalType":"address","name":"actor","type":"address"},{"indexed":false,"internalType":"int256","name":"index","type":"int256"}],"name":"IndexUpdated","type":"event"},{"anonymous":false,"inputs":[{"indexed":true,"internalType":"string","name":"communityName","type":"string"},{"indexed":true,"internalType":"address","name":"memberAddress","type":"address"}],"name":"MemberAdded","type":"event"},{"anonymous":false,"inputs":[{"indexed":true,"internalType":"address","name":"memberAddress","type":"address"},{"indexed":true,"internalType":"string","name":"name","type":"string"},{"indexed":false,"internalType":"string","name":"description","type":"string"},{"indexed":false,"internalType":"string[]","name":"degrees","type":"string[]"},{"indexed":false,"internalType":"string[]","name":"awards","type":"string[]"}],"name":"MemberInfo","type":"event"},{"anonymous":false,"inputs":[{"indexed":true,"internalType":"string","name":"communityName","type":"string"},{"indexed":true,"internalType":"address","name":"memberAddress","type":"address"}],"name":"MemberInvited","type":"event"},{"anonymous":false,"inputs":[{"indexed":true,"internalType":"string","name":"communityName","type":"string"},{"indexed":true,"internalType":"address","name":"memberAddress","type":"address"}],"name":"MemberRemoved","type":"event"},{"anonymous":false,"inputs":[{"indexed":true,"internalType":"string","name":"communityName","type":"string"},{"indexed":true,"internalType":"address","name":"memberAddress","type":"address"}],"name":"MemberUninvited","type":"event"},{"anonymous":false,"inputs":[{"indexed":true,"internalType":"string","name":"communityName","type":"string"},{"indexed":true,"internalType":"address","name":"memberAddress","type":"address"},{"indexed":true,"internalType":"address","name":"actor","type":"address"},{"indexed":false,"internalType":"int256","name":"creds","type":"int256"}],"name":"RemovedNegCred","type":"event"},{"anonymous":false,"inputs":[{"indexed":true,"internalType":"string","name":"communityName","type":"string"},{"indexed":true,"internalType":"address","name":"memberAddress","type":"address"},{"indexed":true,"internalType":"address","name":"actor","type":"address"},{"indexed":false,"internalType":"int256","name":"creds","type":"int256"}],"name":"RemovedPosCred","type":"event"},{"inputs":[{"internalType":"string","name":"_communityName","type":"string"},{"internalType":"address","name":"_member","type":"address"}],"name":"addNegCredsToMember","outputs":[],"stateMutability":"nonpayable","type":"function"},{"inputs":[{"internalType":"string","name":"_communityName","type":"string"},{"internalType":"address","name":"_member","type":"address"}],"name":"addPosCredsToMember","outputs":[],"stateMutability":"nonpayable","type":"function"},{"inputs":[{"internalType":"string","name":"_communityName","type":"string"}],"name":"addSelfAsMember","outputs":[],"stateMutability":"nonpayable","type":"function"},{"inputs":[],"name":"communityContract","outputs":[{"internalType":"contract learntgetherCommuityInterface","name":"","type":"address"}],"stateMutability":"view","type":"function"},{"inputs":[{"internalType":"string","name":"_communityName","type":"string"},{"internalType":"address","name":"_memberAddress","type":"address"},{"internalType":"int256","name":"_creds","type":"int256"}],"name":"contractSetCred","outputs":[{"internalType":"int256","name":"","type":"int256"}],"stateMutability":"nonpayable","type":"function"},{"inputs":[{"internalType":"address","name":"_memberAddress","type":"address"},{"internalType":"string","name":"_communityName","type":"string"}],"name":"getIsInvited","outputs":[{"internalType":"bool","name":"","type":"bool"}],"stateMutability":"view","type":"function"},{"inputs":[{"internalType":"address","name":"_memberAddress","type":"address"},{"internalType":"string","name":"_communityName","type":"string"}],"name":"getIsMember","outputs":[{"internalType":"bool","name":"","type":"bool"}],"stateMutability":"view","type":"function"},{"inputs":[{"internalType":"address","name":"_memberAddress","type":"address"},{"internalType":"address","name":"_credGiverAddress","type":"address"},{"internalType":"string","name":"_communityName","type":"string"}],"name":"getMemberCredIndex","outputs":[{"internalType":"int256","name":"index","type":"int256"}],"stateMutability":"view","type":"function"},{"inputs":[{"internalType":"address","name":"_memberAddress","type":"address"},{"internalType":"string","name":"_communityName","type":"string"}],"name":"getMemberCreds","outputs":[{"internalType":"int256","name":"creds","type":"int256"}],"stateMutability":"view","type":"function"},{"inputs":[{"internalType":"address","name":"_memberAddress","type":"address"},{"internalType":"string","name":"_communityName","type":"string"}],"name":"getMemberNegCredsList","outputs":[{"internalType":"address[]","name":"addressList","type":"address[]"}],"stateMutability":"view","type":"function"},{"inputs":[{"internalType":"address","name":"_memberAddress","type":"address"},{"internalType":"string","name":"_communityName","type":"string"}],"name":"getMemberPosCredsList","outputs":[{"internalType":"address[]","name":"addressList","type":"address[]"}],"stateMutability":"view","type":"function"},{"inputs":[{"internalType":"address","name":"_memberAddress","type":"address"},{"internalType":"string","name":"_communityName","type":"string"},{"internalType":"address","name":"givenBy","type":"address"}],"name":"hasMemberGivenCred","outputs":[{"internalType":"bool","name":"","type":"bool"}],"stateMutability":"view","type":"function"},{"inputs":[{"internalType":"string","name":"_communityName","type":"string"},{"internalType":"address","name":"_memberAddress","type":"address"}],"name":"inviteMember","outputs":[{"internalType":"address","name":"","type":"address"}],"stateMutability":"nonpayable","type":"function"},{"inputs":[{"internalType":"string","name":"","type":"string"},{"internalType":"address","name":"","type":"address"}],"name":"isInvited","outputs":[{"internalType":"bool","name":"","type":"bool"}],"stateMutability":"view","type":"function"},{"inputs":[{"internalType":"address","name":"","type":"address"},{"internalType":"uint256","name":"","type":"uint256"}],"name":"memberCommunities","outputs":[{"internalType":"string","name":"","type":"string"}],"stateMutability":"view","type":"function"},{"inputs":[{"internalType":"string","name":"_communityName","type":"string"},{"internalType":"address","name":"_member","type":"address"}],"name":"removeNegCredsFromMember","outputs":[],"stateMutability":"nonpayable","type":"function"},{"inputs":[{"internalType":"string","name":"_communityName","type":"string"},{"internalType":"address","name":"_member","type":"address"}],"name":"removePosCredsFromMember","outputs":[],"stateMutability":"nonpayable","type":"function"},{"inputs":[{"internalType":"string","name":"_communityName","type":"string"}],"name":"removeSelfAsMember","outputs":[],"stateMutability":"nonpayable","type":"function"},{"inputs":[{"internalType":"address","name":"_contractAddress","type":"address"}],"name":"setlearntgetherCommunities","outputs":[],"stateMutability":"nonpayable","type":"function"},{"inputs":[{"internalType":"string","name":"_communityName","type":"string"},{"internalType":"address","name":"_memberAddress","type":"address"}],"name":"uninviteMember","outputs":[{"internalType":"address","name":"","type":"address"}],"stateMutability":"nonpayable","type":"function"}],"evm":{"bytecode":{"linkReferences":{},"object":"6080806040523461002857600280546001600160a01b0319163317905561294f908161002d8239f35b5f80fdfe604060808152600480361015610013575f80fd5b5f91823560e01c806302b5df591461211357806319f553e21461208e5780634f64aedd14611db95780635450fdd5146119735780636255de33146118595780636b039bb4146114b05780638c5956c4146110815780638e6340291461105857806399d03bf214610e665780639c419dc914610dd6578063a482857814610da8578063b091c54614610d8c578063b66fdab414610af5578063bf2a3b7414610976578063c783acb414610907578063ca4f880b146105e3578063cdb43ea414610255578063e636f31414610202578063f3faf99a146101a45763fbc3d96c146100f9575f80fd5b346101a05761014992600361010d3661222c565b60018060a09893981b0380971680855261013b60209786895261013288882085612356565b0154151561285b565b845283865284842090612356565b01938251908194808754938481520196845280842093915b838310610187576101838787610179828c03836121b6565b519182918261237c565b0390f35b8454811688529681019660019485019490920191610161565b8280fd5b50346101a0576101b992600261010d3661222c565b01938251908194808754938481520196845280842093915b8383106101e9576101838787610179828c03836121b6565b84548116885296810196600194850194909201916101d1565b5090346101a0578160209360ff926102318661021d3661222c565b909382875194838680955193849201612310565b8201908152030190206001600160a01b039091168252855220549151911615158152f35b508290346105df576102663661226e565b919060018060a01b03809316928385526020958587528061028985882085612356565b015461058b578351918351928881818701956102a6818389612310565b810185815203019020868852885260ff85882054166105515780600354169085519063cbe02a9f60e01b8083528a858401528a83806102e8602482018b612331565b0381875afa928315610547578a93610528575b50875163b3f6702d60e01b81528581018c90528b818061031e602482018c612331565b0381885afa90811561051e579083918c91610501575b5016331492836104f6575b508215610484575b505015610431578785518092631efb39a960e11b825282858301528180610371602482018a612331565b03915afa90811561042757887fbee566e9904e3c5e202405f159f39bc31121d728f2772cabc7cf243bcf63a647946103f1946103c060018b9a99966103d0968e916103fa575b501515146123f6565b8751809481938751928391612310565b8201908152030190208588528852838720805460ff1916600117905561244d565b91519480a38152f35b61041a9150863d8811610420575b61041281836121b6565b8101906123de565b8f6103b7565b503d610408565b85513d89823e3d90fd5b845162461bcd60e51b8152808301899052602760248201527f596f7520646f6e742068617665207065726d697373696f6e20696e76697465206044820152664d656d6265727360c81b6064820152608490fd5b909150865190815289848201528981806104a1602482018a612331565b0381865afa9081156104ec5789916104bf575b501633148980610347565b6104df91508a3d8c116104e5575b6104d781836121b6565b8101906123bf565b8a6104b4565b503d6104cd565b87513d8b823e3d90fd5b82161592508b61033f565b61051891508d803d106104e5576104d781836121b6565b8d610334565b89513d8d823e3d90fd5b6105409193508b3d8d116104e5576104d781836121b6565b918b6102fb565b88513d8c823e3d90fd5b845162461bcd60e51b81528083018990526014602482015273155cd95c88105b1c9958591e48125b9d9a5d195960621b6044820152606490fd5b835162461bcd60e51b8152908101879052602860248201527f4d656d62657220616c726561647920657869737473206f66207468697320636f60448201526736b6bab734ba3c9760c11b6064820152608490fd5b5080fd5b508290346105df57602092836003193601126101a05780356001600160401b0381116109035761061690369083016121d7565b6003548351637b7fcfed60e01b815283810187905260249692949291829082906001600160a01b0316818061064d8c82018b612331565b03915afa9081156108f9579061066a9187916108dc575b50612508565b3385528481526106898361068084882087612356565b0154151561254f565b3385528481528261069c83872086612356565b01543386526001808352838720545f19989192908981019081116108ca5781036107c2575b5033875281835283872097885480156107b05701916106e0838a6122af565b9290926107a05750928795949289878461072d976106ff8397546122d8565b9081610760575b5050505055338252818152818561071f8583208a612356565b015533825252832084612356565b0155610739339161244d565b7fdd403bcc860194e697bd48a94ad259a004827525ef954ad73b044e400f3adfe08380a380f35b8390601f831160011461077b57505050555b838b8080610706565b61079990848394959352601f898520950160051c850190850161246d565b5555610772565b634e487b7160e01b895288875288fd5b634e487b7160e01b8952603187528289fd5b3388528284528488208054908a82019182116108b857906107e2916122af565b503389528385526107f582878b206122af565b6108a75790610803916125ab565b338852878452858589208486528561081d84898d206122af565b508851928c9180549061082f826122d8565b91868b821691825f1461088f575050600114610858575b505081528290030190200155886106c1565b909192508d528c888482205b83831061087857505050830190838f610846565b8054878401528d97508b95909201918a9101610864565b925094505060ff19168352801515028201918f610846565b634e487b7160e01b8a52898852838afd5b634e487b7160e01b8a5260118852838afd5b634e487b7160e01b8952601187528289fd5b6108f39150833d85116104205761041281836121b6565b88610664565b83513d88823e3d90fd5b8380fd5b5090346101a05760603660031901126101a057610922612157565b90602435906001600160401b03821161097257610941913691016121d7565b604435939091906001600160a01b038516850361096f575092610966916020946128b8565b90519015158152f35b80fd5b8480fd5b50823461096f57606036600319011261096f5782356001600160401b0381116105df576109a690369085016121d7565b906109af612171565b600354845163cbe02a9f60e01b81526020818801819052966001600160a01b03939290919088908290861681806109e9602482018c612331565b03915afa908115610aeb579084918691610ace575b50168033149081610ac4575b5080610aa5575b15610a4a5750918491610a42949316808252818752604435610a3584842086612356565b5581528086522090612356565b549051908152f35b855162461bcd60e51b8152908101879052602f60248201527f4e6f742074686520637265642061636365737320636f6e7472616374206f722060448201526e2ab9b2b9103737ba1036b2b6b132b960891b6064820152608490fd5b50828216845283875280610abb87862087612356565b01541515610a11565b9050151588610a0a565b610ae59150893d8b116104e5576104d781836121b6565b896109fe565b87513d87823e3d90fd5b5090346101a057610b053661226e565b6003548451637b7fcfed60e01b8152602081860181905293956001600160a01b0392831695909493909291848180610b40602482018c612331565b03818a5afa908115610d8257839291610b5f918b91610d655750612508565b338952888552610b7584610680888c208b612356565b1694858852878452610b9683610b8d878b208a612356565b01541515612685565b610ba2863314156126e8565b838551809263cbe02a9f60e01b825282868301528180610bc5602482018d612331565b03915afa908115610d5b5790610be592918991610d3e575b501615612734565b8386528582526001610bf984882087612356565b013387528252610c0c838720541561278f565b838652858252610c1e83872086612356565b805490600182019188600184129112908015821691151617610d2b5755838652858252610c4d83872086612356565b54610c578661244d565b8451918252855f805160206128fa833981519152854294a4838652858252610c8d336002610c87868a2089612356565b016124e5565b8386528582526002610ca184882087612356565b01545f19810191908211610d185750907fd0f5d24e816c9fc4cba0f35b280898648e66604fc44212736e778bfefc338b0f918487528682526001610ce785892088612356565b01338852825283872055838652858152610d0d610d0684882087612356565b549561244d565b92519485523394a480f35b634e487b7160e01b875260119052602486fd5b634e487b7160e01b885260118352602488fd5b610d559150853d87116104e5576104d781836121b6565b5f610bdd565b85513d8a823e3d90fd5b610d7c9150873d89116104205761041281836121b6565b5f610664565b86513d8b823e3d90fd5b8382346105df57602090610966610da23661222c565b90612829565b5090346101a0578160209360ff9261023186610dc33661226e565b9382875194838680955193849201612310565b5090346101a05760603660031901126101a057610df1612157565b610df9612171565b916044356001600160401b038111610e6257916001610e52869593610e2460209996369083016121d7565b90610e44848060a01b0380961691828952888c526101328a8a2085612356565b865285895286862090612356565b0191168252845220549051908152f35b8580fd5b5090346101a057610e763661226e565b6003548451637b7fcfed60e01b8152602081860181905293956001600160a01b0392831695909493909291848180610eb1602482018c612331565b03818a5afa908115610d8257839291610ed0918b91610d655750612508565b338952888552610ee684610680888c208b612356565b1694858852878452610efe83610b8d878b208a612356565b610f0a863314156126e8565b838551809263cbe02a9f60e01b825282868301528180610f2d602482018d612331565b03915afa908115610d5b5790610f4c92918991610d3e57501615612734565b8386528582526001610f6084882087612356565b013387528252610f73838720541561278f565b838652858252610f8583872086612356565b9081545f19928382019182136001166110455755848752868352610fab84882087612356565b54610fb58761244d565b8551918252865f805160206128fa833981519152864294a4848752868352610fe5336003610c87878b208a612356565b8487528683526003610ff985892088612356565b0154918201918211610d185750906110317f8e3dd53aaad1909975de245668134b898a443d9d797f6a14e77b5cd0606ed541926127ef565b8487528682526001610ce785892088612356565b634e487b7160e01b895260118352602489fd5b8382346105df57816003193601126105df5760035490516001600160a01b039091168152602090f35b50823461096f576110913661226e565b9260018060a01b0393846003541695825195637b7fcfed60e01b875260209283838901526024978481806110c78c82018b612331565b03818d5afa9081156114a65798809a61112386610b8d8a888e9f988e9f9e8f6106808f9b92868361114d9f948f611109611114988e98849161148f5750612508565b338252522090612356565b169c8d8152808852208d612356565b61112f893314156126e8565b8751808095819463cbe02a9f60e01b8352868a84015282018d612331565b03915afa908115610d5b579082918991611472575b501661142357848752868352600161117c85892088612356565b0133885283528387205491878313801561141c575b85519061119d82612187565b603682527f596f752068617665206e6f7420676976656e206120706f736974697665206372868301527532b2103a37903a3434b99036b2b6b132b9103cb2ba1760511b87830152156113f857508588528784526111fc85892088612356565b9182545f1993848201918b86841291129080158216911516176113e6575586895288855261122c868a2089612356565b546112368961244d565b8751918252885f805160206128fa833981519152884294a48689528885526002611262878b208a612356565b0193898554928584019384116113d457838303611317575b509050879150528784526001611292868a2089612356565b0133895284528785812055825490811561130557507f6c5cfc2553aaffd4cd0342765cdbca370cda07554f00e4e5112884eae468e29993929101906112ef6112da83836122af565b81549060018060a01b039060031b1b19169055565b55838652858152610d0d610d0684882087612356565b634e487b7160e01b8952603190528888fd5b61135981611328611397968a6122af565b90549060031b1c1661133a858a6122af565b90919082549060031b9160018060a01b03809116831b921b1916179055565b60016113768a61136886612818565b948d8152808c52208d612356565b019061138284896122af565b90549060031b1c168c528752878b2055612818565b866113a18961244d565b87519283527fd6fa86004958e4fadc7035e661e86172c72f1ea51e79e8bf8bd3f4103663e8e3873394a48980898161127a565b634e487b7160e01b8252601185528c82fd5b634e487b7160e01b8b52601184528b8bfd5b855162461bcd60e51b8152918201859052819061141890828c0190612331565b0390fd5b5087611191565b5060258760849385519362461bcd60e51b85528401528201527f436f6d6d756e6974792055736573206120637265642061636365737320636f6e6044820152641d1c9858dd60da1b6064820152fd5b6114899150853d87116104e5576104d781836121b6565b8a611162565b610d7c9150833d85116104205761041281836121b6565b86513d8a823e3d90fd5b508290346105df576114c13661226e565b600354835163cbe02a9f60e01b80825260208289018190529793959493926024926001600160a01b0392918316918a82806114fe8882018b612331565b0381865afa918215610547578a9261183a575b50875163b3f6702d60e01b81528681018c90528b81806115338982018c612331565b0381875afa90811561051e57859182918e8e9261181d575b50501633149283611812575b505081156117ba575b5015611766578886518092631efb39a960e11b8252828783015281806115888882018b612331565b03915afa9081156114a6576115a9916001918a9161174957501515146123f6565b8451908451918981818801946115c0818388612310565b8101878152030190209616958688528852600160ff8689205416151503611712578533146116d057876115fd918651809381928851928391612310565b8101858152030190208587528752838620805460ff191690558351635848e2a360e11b815280830186905290810184905286818061163e6044820187612331565b0381305afa9081156116c65792867fe19753ef16cb08d80c81e7c26df1578544dc02c0a7538cf0d3fc2355dc180bca9360016103f19489989784916116a9575b5015151461168e575b505061244d565b868252818a526116a086832084612356565b01558689611687565b6116c091508c8d3d106104205761041281836121b6565b8c61167e565b84513d88823e3d90fd5b845162461bcd60e51b8152808401899052601d818401527f596f752063616e6e6f7420756e696e7669746520796f757273656c662e0000006044820152606490fd5b845162461bcd60e51b81528084018990526012818401527113595b58995c88139bdd08125b9d9a5d195960721b6044820152606490fd5b61176091508b3d8d116104205761041281836121b6565b8b6103b7565b855162461bcd60e51b81528085018a90526029818501527f596f7520646f6e742068617665207065726d697373696f6e20756e696e76697460448201526865204d656d6265727360b81b6064820152608490fd5b9050865190815289858201528981806117d58782018a612331565b0381855afa9081156104ec579083918a916117f5575b501633148a611560565b61180c91508b3d8d116104e5576104d781836121b6565b8b6117eb565b16159150838c611557565b6118339250803d106104e5576104d781836121b6565b8e8e61154b565b6118529192508b3d8d116104e5576104d781836121b6565b908b611511565b508290346105df57806003193601126105df57611874612157565b6001600160a01b0316825260016020818152828420805491949160243591908210156101a057906118a4916122af565b95909561196157508251948592828254926118be846122d8565b938487528884821691825f146119375750506001146118f9575b8588610183896118ea848a03856121b6565b51928284938452830190612331565b87945081939291528383205b82841061191f57505050820101816118ea610183886118d8565b8054848a018601528895508794909301928101611905565b60ff19168882015294151560051b870190940194508593506118ea925061018391508990506118d8565b634e487b7160e01b8252819052602490fd5b50346101a057602080600319360112610903576001600160401b038335818111610e62576119a490369086016121d7565b9360018060a01b0360035416845192637b7fcfed60e01b845284838501526024938581806119d48882018c612331565b0381865afa9081156104ec578991611d9c575b5015611d5f5733885287855282611a00878a2089612356565b0154611d09578486518093631efb39a960e11b825282868301528180611a288982018d612331565b03915afa9182156114a6578892611cea575b5060018092151514611c67575b3388528185528588208054908115611c0c575b5050338852818552858820805490600160401b821015611bfa5790611a839184820181556122af565b919091611be9578751908111611bd757611aa781611aa184546122d8565b84612483565b8086601f8211600114611b7a578a91611b6f575b505f19600383901b1c191690831b1790555b3387528352838620545f19810192908311611b5e57509285600393611b1b93611b2d96338452838352611b028585208a612356565b0155338252818152611b216002611b1b8585208a612356565b016124c8565b33825252852084612356565b611b37339161244d565b7ff038f0d708fc70f18d5815d07a62a3b40d2035dc6af7429865f612242ff870588380a380f35b634e487b7160e01b87526011825286fd5b90508801515f611abb565b838b52878b2085935090601f1983168c5b8a8d838310611bc2575050508311611baa575b5050811b019055611acd565b8a01515f1960f88460031b161c191690555f80611b9e565b84015185558896909401939283019201611b8b565b634e487b7160e01b8952604184528489fd5b634e487b7160e01b89528884528489fd5b634e487b7160e01b8a5260418552858afd5b600160401b821015611bfa5790611c279184820181556122af565b611be95780611c375f92546122d8565b601f8111611c49575b50555f80611a5a565b818b52878b20611c6191601f0160051c81019061246d565b5f611c40565b8551858181611c7c8b83815193849201612310565b81018681520301902033895285528588205460ff1615158214611a4757855162461bcd60e51b81528084018690526026818601527f596f7520617265206e6f7420696e766974656420746f207468697320636f6d6d6044820152653ab734ba3c9760d11b6064820152608490fd5b611d02919250853d87116104205761041281836121b6565b905f611a3a565b855162461bcd60e51b8152808401869052602b818601527f596f752061726520616c72656164792061206d656d626572206f66207468697360448201526a1031b7b6b6bab734ba3c9760a91b6064820152608490fd5b855162461bcd60e51b81528084018690526018818601527710dbdb5b5d5b9a5d1e48111bd95cc81b9bdd08115e1a5cdd60421b6044820152606490fd5b611db39150863d88116104205761041281836121b6565b5f6119e7565b50823461096f57611dc93661226e565b9260018060a01b0393846003541695825195637b7fcfed60e01b87526020928383890152602497848180611dff8c82018b612331565b03818d5afa9081156114a65798809a61112386610b8d8a888e9f988e9f9e8f6106808f9b928683611e419f948f611109611114988e98849161148f5750612508565b03915afa908115610d5b579082918991612071575b5016611423578487528683526001611e7085892088612356565b013388528352838720548451611e8581612187565b602381527f48617665206e6f7420676976656e2061206e6567617469766520637265642079858201526232ba1760e91b86820152888212156120505750858852878452611ed485892088612356565b80549060018201918a60018412911290801582169115161761203e5790611f30929155868952888552611f09868a2089612356565b54611f138961244d565b8751918252885f805160206128fa833981519152884294a46127ef565b918588528784526003611f45868a2089612356565b0192835490895f19948584019384116113d457838303611fc0575b509050879150528784526001611f78868a2089612356565b0133895284528785812055825490811561130557507fd6d87a1ec8d7320486a7705035a72a09149f3c5e25dcccb14a1c99eebc86d6c093929101906112ef6112da83836122af565b611fd181611328612001968a6122af565b6001611fe08a611368866127ef565b0190611fec84896122af565b90549060031b1c168c528752878b20556127ef565b8661200b8961244d565b87519283527fd6fa86004958e4fadc7035e661e86172c72f1ea51e79e8bf8bd3f4103663e8e3873394a489808981611f60565b634e487b7160e01b8a52601185528a8afd5b855162461bcd60e51b815280850186905290819061141890828d0190612331565b6120889150853d87116104e5576104d781836121b6565b8a611e56565b5090346101a05760203660031901126101a0576120a9612157565b6002546001600160a01b039391929190841633036120d75750501660018060a01b0319600354161760035580f35b906020606492519162461bcd60e51b835282015260166024820152752737ba103a34329031b7b73a3930b1ba1037bbb732b960511b6044820152fd5b5090346101a05761214b82602094610a429361212e3661222c565b949060018060a01b03169182845283895261013285852087612356565b81528086522090612356565b600435906001600160a01b038216820361216d57565b5f80fd5b602435906001600160a01b038216820361216d57565b606081019081106001600160401b038211176121a257604052565b634e487b7160e01b5f52604160045260245ffd5b90601f801991011681019081106001600160401b038211176121a257604052565b81601f8201121561216d578035906001600160401b0382116121a2576040519261220b601f8401601f1916602001856121b6565b8284526020838301011161216d57815f926020809301838601378301015290565b90604060031983011261216d576004356001600160a01b038116810361216d5791602435906001600160401b03821161216d5761226b916004016121d7565b90565b604060031982011261216d57600435906001600160401b03821161216d57612298916004016121d7565b906024356001600160a01b038116810361216d5790565b80548210156122c4575f5260205f2001905f90565b634e487b7160e01b5f52603260045260245ffd5b90600182811c92168015612306575b60208310146122f257565b634e487b7160e01b5f52602260045260245ffd5b91607f16916122e7565b5f5b8381106123215750505f910152565b8181015183820152602001612312565b9060209161234a81518092818552858086019101612310565b601f01601f1916010190565b602090612370928260405194838680955193849201612310565b82019081520301902090565b602090816040818301928281528551809452019301915f5b8281106123a2575050505090565b83516001600160a01b031685529381019392810192600101612394565b9081602091031261216d57516001600160a01b038116810361216d5790565b9081602091031261216d5751801515810361216d5790565b156123fd57565b60405162461bcd60e51b815260206004820152602260248201527f5468697320636f6d6d756e697479206973206e6f7420696e76697465206f6e6c6044820152613c9760f11b6064820152608490fd5b61246590602060405192828480945193849201612310565b810103902090565b818110612478575050565b5f815560010161246d565b9190601f811161249257505050565b6124bc925f5260205f20906020601f840160051c830193106124be575b601f0160051c019061246d565b565b90915081906124af565b8054600160401b8110156121a2576112da916001820181556122af565b80549190600160401b8310156121a2578261133a9160016124bc950181556122af565b1561250f57565b60405162461bcd60e51b815260206004820152601860248201527710dbdb5b5d5b9a5d1e48111bd95cc8139bdd08115e1a5cdd60421b6044820152606490fd5b1561255657565b60405162461bcd60e51b815260206004820152602760248201527f596f7520617265206e6f742061206d656d626572206f66207468697320636f6d60448201526636bab734ba3c9760c91b6064820152608490fd5b90808214612681576125bd81546122d8565b906001600160401b0382116121a25781906125e2826125dc86546122d8565b86612483565b5f90601f8311600114612616575f9261260b575b50508160011b915f199060031b1c1916179055565b015490505f806125f6565b81526020808220858352818320935090601f1985169083905b828210612668575050908460019594939210612650575b505050811b019055565b01545f1960f88460031b161c191690555f8080612646565b849581929585015481556001809101960194019061262f565b5050565b1561268c57565b60405162461bcd60e51b815260206004820152602e60248201527f546172676574206d656d62657220646f65736e2774206578697374206f66207460448201526d3434b99031b7b6b6bab734ba3c9760911b6064820152608490fd5b156126ef57565b60405162461bcd60e51b815260206004820152601f60248201527f596f752063616e6e6f74206564697420796f7572206f776e2063726564732e006044820152606490fd5b1561273b57565b60405162461bcd60e51b815260206004820152602660248201527f436f6d6d6d756e6974792055736573206120637265642061636365737320636f6044820152651b9d1c9858dd60d21b6064820152608490fd5b1561279657565b60405162461bcd60e51b815260206004820152602b60248201527f596f7527766520616c726561647920676976656e2061206372656420746f207460448201526a3434b99036b2b6b132b91760a91b6064820152608490fd5b90815f03918083055f19149015171561280457565b634e487b7160e01b5f52601160045260245ffd5b908115600183800514171561280457565b6001600160a01b03165f90815260208190526040902060049161284c9190612356565b0154612856575f90565b600190565b1561286257565b60405162461bcd60e51b815260206004820152602860248201527f4d656d62657220446f6573204e6f7420457869737420466f72207468697320636044820152676f6d6d756e69747960c01b6064820152608490fd5b6001600160a01b039081165f9081526020819052604081209093926001916128df91612356565b9190921683520160205260408120541561226b575060019056fe1956a939e1963127a6802bc7dff8c43f9bc551a0bf97efc611706570e4108402a264697066735822122026d1b35fea2a9674f10577cecb7fc5e906854b072f0cd0cfbc5bbcc54826c4c864736f6c63430008140033","opcodes":"PUSH1 0x80 DUP1 PUSH1 0x40 MSTORE CALLVALUE PUSH2 0x28 JUMPI PUSH1 0x2 DUP1 SLOAD PUSH1 0x1 PUSH1 0x1 PUSH1 0xA0 SHL SUB NOT AND CALLER OR SWAP1 SSTORE PUSH2 0x294F SWAP1 DUP2 PUSH2 0x2D DUP3 CODECOPY RETURN JUMPDEST PUSH0 DUP1 REVERT INVALID PUSH1 0x40 PUSH1 0x80 DUP2 MSTORE PUSH1 0x4 DUP1 CALLDATASIZE LT ISZERO PUSH2 0x13 JUMPI PUSH0 DUP1 REVERT JUMPDEST PUSH0 SWAP2 DUP3 CALLDATALOAD PUSH1 0xE0 SHR DUP1 PUSH4 0x2B5DF59 EQ PUSH2 0x2113 JUMPI DUP1 PUSH4 0x19F553E2 EQ PUSH2 0x208E JUMPI DUP1 PUSH4 0x4F64AEDD EQ PUSH2 0x1DB9 JUMPI DUP1 PUSH4 0x5450FDD5 EQ PUSH2 0x1973 JUMPI DUP1 PUSH4 0x6255DE33 EQ PUSH2 0x1859 JUMPI DUP1 PUSH4 0x6B039BB4 EQ PUSH2 0x14B0 JUMPI DUP1 PUSH4 0x8C5956C4 EQ PUSH2 0x1081 JUMPI DUP1 PUSH4 0x8E634029 EQ PUSH2 0x1058 JUMPI DUP1 PUSH4 0x99D03BF2 EQ PUSH2 0xE66 JUMPI DUP1 PUSH4 0x9C419DC9 EQ PUSH2 0xDD6 JUMPI DUP1 PUSH4 0xA4828578 EQ PUSH2 0xDA8 JUMPI DUP1 PUSH4 0xB091C546 EQ PUSH2 0xD8C JUMPI DUP1 PUSH4 0xB66FDAB4 EQ PUSH2 0xAF5 JUMPI DUP1 PUSH4 0xBF2A3B74 EQ PUSH2 0x976 JUMPI DUP1 PUSH4 0xC783ACB4 EQ PUSH2 0x907 JUMPI DUP1 PUSH4 0xCA4F880B EQ PUSH2 0x5E3 JUMPI DUP1 PUSH4 0xCDB43EA4 EQ PUSH2 0x255 JUMPI DUP1 PUSH4 0xE636F314 EQ PUSH2 0x202 JUMPI DUP1 PUSH4 0xF3FAF99A EQ PUSH2 0x1A4 JUMPI PUSH4 0xFBC3D96C EQ PUSH2 0xF9 JUMPI PUSH0 DUP1 REVERT JUMPDEST CALLVALUE PUSH2 0x1A0 JUMPI PUSH2 0x149 SWAP3 PUSH1 0x3 PUSH2 0x10D CALLDATASIZE PUSH2 0x222C JUMP JUMPDEST PUSH1 0x1 DUP1 PUSH1 0xA0 SWAP9 SWAP4 SWAP9 SHL SUB DUP1 SWAP8 AND DUP1 DUP6 MSTORE PUSH2 0x13B PUSH1 0x20 SWAP8 DUP7 DUP10 MSTORE PUSH2 0x132 DUP9 DUP9 KECCAK256 DUP6 PUSH2 0x2356 JUMP JUMPDEST ADD SLOAD ISZERO ISZERO PUSH2 0x285B JUMP JUMPDEST DUP5 MSTORE DUP4 DUP7 MSTORE DUP5 DUP5 KECCAK256 SWAP1 PUSH2 0x2356 JUMP JUMPDEST ADD SWAP4 DUP3 MLOAD SWAP1 DUP2 SWAP5 DUP1 DUP8 SLOAD SWAP4 DUP5 DUP2 MSTORE ADD SWAP7 DUP5 MSTORE DUP1 DUP5 KECCAK256 SWAP4 SWAP2 JUMPDEST DUP4 DUP4 LT PUSH2 0x187 JUMPI PUSH2 0x183 DUP8 DUP8 PUSH2 0x179 DUP3 DUP13 SUB DUP4 PUSH2 0x21B6 JUMP JUMPDEST MLOAD SWAP2 DUP3 SWAP2 DUP3 PUSH2 0x237C JUMP JUMPDEST SUB SWAP1 RETURN JUMPDEST DUP5 SLOAD DUP2 AND DUP9 MSTORE SWAP7 DUP2 ADD SWAP7 PUSH1 0x1 SWAP5 DUP6 ADD SWAP5 SWAP1 SWAP3 ADD SWAP2 PUSH2 0x161 JUMP JUMPDEST DUP3 DUP1 REVERT JUMPDEST POP CALLVALUE PUSH2 0x1A0 JUMPI PUSH2 0x1B9 SWAP3 PUSH1 0x2 PUSH2 0x10D CALLDATASIZE PUSH2 0x222C JUMP JUMPDEST ADD SWAP4 DUP3 MLOAD SWAP1 DUP2 SWAP5 DUP1 DUP8 SLOAD SWAP4 DUP5 DUP2 MSTORE ADD SWAP7 DUP5 MSTORE DUP1 DUP5 KECCAK256 SWAP4 SWAP2 JUMPDEST DUP4 DUP4 LT PUSH2 0x1E9 JUMPI PUSH2 0x183 DUP8 DUP8 PUSH2 0x179 DUP3 DUP13 SUB DUP4 PUSH2 0x21B6 JUMP JUMPDEST DUP5 SLOAD DUP2 AND DUP9 MSTORE SWAP7 DUP2 ADD SWAP7 PUSH1 0x1 SWAP5 DUP6 ADD SWAP5 SWAP1 SWAP3 ADD SWAP2 PUSH2 0x1D1 JUMP JUMPDEST POP SWAP1 CALLVALUE PUSH2 0x1A0 JUMPI DUP2 PUSH1 0x20 SWAP4 PUSH1 0xFF SWAP3 PUSH2 0x231 DUP7 PUSH2 0x21D CALLDATASIZE PUSH2 0x222C JUMP JUMPDEST SWAP1 SWAP4 DUP3 DUP8 MLOAD SWAP5 DUP4 DUP7 DUP1 SWAP6 MLOAD SWAP4 DUP5 SWAP3 ADD PUSH2 0x2310 JUMP JUMPDEST DUP3 ADD SWAP1 DUP2 MSTORE SUB ADD SWAP1 KECCAK256 PUSH1 0x1 PUSH1 0x1 PUSH1 0xA0 SHL SUB SWAP1 SWAP2 AND DUP3 MSTORE DUP6 MSTORE KECCAK256 SLOAD SWAP2 MLOAD SWAP2 AND ISZERO ISZERO DUP2 MSTORE RETURN JUMPDEST POP DUP3 SWAP1 CALLVALUE PUSH2 0x5DF JUMPI PUSH2 0x266 CALLDATASIZE PUSH2 0x226E JUMP JUMPDEST SWAP2 SWAP1 PUSH1 0x1 DUP1 PUSH1 0xA0 SHL SUB DUP1 SWAP4 AND SWAP3 DUP4 DUP6 MSTORE PUSH1 0x20 SWAP6 DUP6 DUP8 MSTORE DUP1 PUSH2 0x289 DUP6 DUP9 KECCAK256 DUP6 PUSH2 0x2356 JUMP JUMPDEST ADD SLOAD PUSH2 0x58B JUMPI DUP4 MLOAD SWAP2 DUP4 MLOAD SWAP3 DUP9 DUP2 DUP2 DUP8 ADD SWAP6 PUSH2 0x2A6 DUP2 DUP4 DUP10 PUSH2 0x2310 JUMP JUMPDEST DUP2 ADD DUP6 DUP2 MSTORE SUB ADD SWAP1 KECCAK256 DUP7 DUP9 MSTORE DUP9 MSTORE PUSH1 0xFF DUP6 DUP9 KECCAK256 SLOAD AND PUSH2 0x551 JUMPI DUP1 PUSH1 0x3 SLOAD AND SWAP1 DUP6 MLOAD SWAP1 PUSH4 0xCBE02A9F PUSH1 0xE0 SHL DUP1 DUP4 MSTORE DUP11 DUP6 DUP5 ADD MSTORE DUP11 DUP4 DUP1 PUSH2 0x2E8 PUSH1 0x24 DUP3 ADD DUP12 PUSH2 0x2331 JUMP JUMPDEST SUB DUP2 DUP8 GAS STATICCALL SWAP3 DUP4 ISZERO PUSH2 0x547 JUMPI DUP11 SWAP4 PUSH2 0x528 JUMPI JUMPDEST POP DUP8 MLOAD PUSH4 0xB3F6702D PUSH1 0xE0 SHL DUP2 MSTORE DUP6 DUP2 ADD DUP13 SWAP1 MSTORE DUP12 DUP2 DUP1 PUSH2 0x31E PUSH1 0x24 DUP3 ADD DUP13 PUSH2 0x2331 JUMP JUMPDEST SUB DUP2 DUP9 GAS STATICCALL SWAP1 DUP2 ISZERO PUSH2 0x51E JUMPI SWAP1 DUP4 SWAP2 DUP13 SWAP2 PUSH2 0x501 JUMPI JUMPDEST POP AND CALLER EQ SWAP3 DUP4 PUSH2 0x4F6 JUMPI JUMPDEST POP DUP3 ISZERO PUSH2 0x484 JUMPI JUMPDEST POP POP ISZERO PUSH2 0x431 JUMPI DUP8 DUP6 MLOAD DUP1 SWAP3 PUSH4 0x1EFB39A9 PUSH1 0xE1 SHL DUP3 MSTORE DUP3 DUP6 DUP4 ADD MSTORE DUP2 DUP1 PUSH2 0x371 PUSH1 0x24 DUP3 ADD DUP11 PUSH2 0x2331 JUMP JUMPDEST SUB SWAP2 GAS STATICCALL SWAP1 DUP2 ISZERO PUSH2 0x427 JUMPI DUP9 PUSH32 0xBEE566E9904E3C5E202405F159F39BC31121D728F2772CABC7CF243BCF63A647 SWAP5 PUSH2 0x3F1 SWAP5 PUSH2 0x3C0 PUSH1 0x1 DUP12 SWAP11 SWAP10 SWAP7 PUSH2 0x3D0 SWAP7 DUP15 SWAP2 PUSH2 0x3FA JUMPI JUMPDEST POP ISZERO ISZERO EQ PUSH2 0x23F6 JUMP JUMPDEST DUP8 MLOAD DUP1 SWAP5 DUP2 SWAP4 DUP8 MLOAD SWAP3 DUP4 SWAP2 PUSH2 0x2310 JUMP JUMPDEST DUP3 ADD SWAP1 DUP2 MSTORE SUB ADD SWAP1 KECCAK256 DUP6 DUP9 MSTORE DUP9 MSTORE DUP4 DUP8 KECCAK256 DUP1 SLOAD PUSH1 0xFF NOT AND PUSH1 0x1 OR SWAP1 SSTORE PUSH2 0x244D JUMP JUMPDEST SWAP2 MLOAD SWAP5 DUP1 LOG3 DUP2 MSTORE RETURN JUMPDEST PUSH2 0x41A SWAP2 POP DUP7 RETURNDATASIZE DUP9 GT PUSH2 0x420 JUMPI JUMPDEST PUSH2 0x412 DUP2 DUP4 PUSH2 0x21B6 JUMP JUMPDEST DUP2 ADD SWAP1 PUSH2 0x23DE JUMP JUMPDEST DUP16 PUSH2 0x3B7 JUMP JUMPDEST POP RETURNDATASIZE PUSH2 0x408 JUMP JUMPDEST DUP6 MLOAD RETURNDATASIZE DUP10 DUP3 RETURNDATACOPY RETURNDATASIZE SWAP1 REVERT JUMPDEST DUP5 MLOAD PUSH3 0x461BCD PUSH1 0xE5 SHL DUP2 MSTORE DUP1 DUP4 ADD DUP10 SWAP1 MSTORE PUSH1 0x27 PUSH1 0x24 DUP3 ADD MSTORE PUSH32 0x596F7520646F6E742068617665207065726D697373696F6E20696E7669746520 PUSH1 0x44 DUP3 ADD MSTORE PUSH7 0x4D656D62657273 PUSH1 0xC8 SHL PUSH1 0x64 DUP3 ADD MSTORE PUSH1 0x84 SWAP1 REVERT JUMPDEST SWAP1 SWAP2 POP DUP7 MLOAD SWAP1 DUP2 MSTORE DUP10 DUP5 DUP3 ADD MSTORE DUP10 DUP2 DUP1 PUSH2 0x4A1 PUSH1 0x24 DUP3 ADD DUP11 PUSH2 0x2331 JUMP JUMPDEST SUB DUP2 DUP7 GAS STATICCALL SWAP1 DUP2 ISZERO PUSH2 0x4EC JUMPI DUP10 SWAP2 PUSH2 0x4BF JUMPI JUMPDEST POP AND CALLER EQ DUP10 DUP1 PUSH2 0x347 JUMP JUMPDEST PUSH2 0x4DF SWAP2 POP DUP11 RETURNDATASIZE DUP13 GT PUSH2 0x4E5 JUMPI JUMPDEST PUSH2 0x4D7 DUP2 DUP4 PUSH2 0x21B6 JUMP JUMPDEST DUP2 ADD SWAP1 PUSH2 0x23BF JUMP JUMPDEST DUP11 PUSH2 0x4B4 JUMP JUMPDEST POP RETURNDATASIZE PUSH2 0x4CD JUMP JUMPDEST DUP8 MLOAD RETURNDATASIZE DUP12 DUP3 RETURNDATACOPY RETURNDATASIZE SWAP1 REVERT JUMPDEST DUP3 AND ISZERO SWAP3 POP DUP12 PUSH2 0x33F JUMP JUMPDEST PUSH2 0x518 SWAP2 POP DUP14 DUP1 RETURNDATASIZE LT PUSH2 0x4E5 JUMPI PUSH2 0x4D7 DUP2 DUP4 PUSH2 0x21B6 JUMP JUMPDEST DUP14 PUSH2 0x334 JUMP JUMPDEST DUP10 MLOAD RETURNDATASIZE DUP14 DUP3 RETURNDATACOPY RETURNDATASIZE SWAP1 REVERT JUMPDEST PUSH2 0x540 SWAP2 SWAP4 POP DUP12 RETURNDATASIZE DUP14 GT PUSH2 0x4E5 JUMPI PUSH2 0x4D7 DUP2 DUP4 PUSH2 0x21B6 JUMP JUMPDEST SWAP2 DUP12 PUSH2 0x2FB JUMP JUMPDEST DUP9 MLOAD RETURNDATASIZE DUP13 DUP3 RETURNDATACOPY RETURNDATASIZE SWAP1 REVERT JUMPDEST DUP5 MLOAD PUSH3 0x461BCD PUSH1 0xE5 SHL DUP2 MSTORE DUP1 DUP4 ADD DUP10 SWAP1 MSTORE PUSH1 0x14 PUSH1 0x24 DUP3 ADD MSTORE PUSH20 0x155CD95C88105B1C9958591E48125B9D9A5D1959 PUSH1 0x62 SHL PUSH1 0x44 DUP3 ADD MSTORE PUSH1 0x64 SWAP1 REVERT JUMPDEST DUP4 MLOAD PUSH3 0x461BCD PUSH1 0xE5 SHL DUP2 MSTORE SWAP1 DUP2 ADD DUP8 SWAP1 MSTORE PUSH1 0x28 PUSH1 0x24 DUP3 ADD MSTORE PUSH32 0x4D656D62657220616C726561647920657869737473206F66207468697320636F PUSH1 0x44 DUP3 ADD MSTORE PUSH8 0x36B6BAB734BA3C97 PUSH1 0xC1 SHL PUSH1 0x64 DUP3 ADD MSTORE PUSH1 0x84 SWAP1 REVERT JUMPDEST POP DUP1 REVERT JUMPDEST POP DUP3 SWAP1 CALLVALUE PUSH2 0x5DF JUMPI PUSH1 0x20 SWAP3 DUP4 PUSH1 0x3 NOT CALLDATASIZE ADD SLT PUSH2 0x1A0 JUMPI DUP1 CALLDATALOAD PUSH1 0x1 PUSH1 0x1 PUSH1 0x40 SHL SUB DUP2 GT PUSH2 0x903 JUMPI PUSH2 0x616 SWAP1 CALLDATASIZE SWAP1 DUP4 ADD PUSH2 0x21D7 JUMP JUMPDEST PUSH1 0x3 SLOAD DUP4 MLOAD PUSH4 0x7B7FCFED PUSH1 0xE0 SHL DUP2 MSTORE DUP4 DUP2 ADD DUP8 SWAP1 MSTORE PUSH1 0x24 SWAP7 SWAP3 SWAP5 SWAP3 SWAP2 DUP3 SWAP1 DUP3 SWAP1 PUSH1 0x1 PUSH1 0x1 PUSH1 0xA0 SHL SUB AND DUP2 DUP1 PUSH2 0x64D DUP13 DUP3 ADD DUP12 PUSH2 0x2331 JUMP JUMPDEST SUB SWAP2 GAS STATICCALL SWAP1 DUP2 ISZERO PUSH2 0x8F9 JUMPI SWAP1 PUSH2 0x66A SWAP2 DUP8 SWAP2 PUSH2 0x8DC JUMPI JUMPDEST POP PUSH2 0x2508 JUMP JUMPDEST CALLER DUP6 MSTORE DUP5 DUP2 MSTORE PUSH2 0x689 DUP4 PUSH2 0x680 DUP5 DUP9 KECCAK256 DUP8 PUSH2 0x2356 JUMP JUMPDEST ADD SLOAD ISZERO ISZERO PUSH2 0x254F JUMP JUMPDEST CALLER DUP6 MSTORE DUP5 DUP2 MSTORE DUP3 PUSH2 0x69C DUP4 DUP8 KECCAK256 DUP7 PUSH2 0x2356 JUMP JUMPDEST ADD SLOAD CALLER DUP7 MSTORE PUSH1 0x1 DUP1 DUP4 MSTORE DUP4 DUP8 KECCAK256 SLOAD PUSH0 NOT SWAP9 SWAP2 SWAP3 SWAP1 DUP10 DUP2 ADD SWAP1 DUP2 GT PUSH2 0x8CA JUMPI DUP2 SUB PUSH2 0x7C2 JUMPI JUMPDEST POP CALLER DUP8 MSTORE DUP2 DUP4 MSTORE DUP4 DUP8 KECCAK256 SWAP8 DUP9 SLOAD DUP1 ISZERO PUSH2 0x7B0 JUMPI ADD SWAP2 PUSH2 0x6E0 DUP4 DUP11 PUSH2 0x22AF JUMP JUMPDEST SWAP3 SWAP1 SWAP3 PUSH2 0x7A0 JUMPI POP SWAP3 DUP8 SWAP6 SWAP5 SWAP3 DUP10 DUP8 DUP5 PUSH2 0x72D SWAP8 PUSH2 0x6FF DUP4 SWAP8 SLOAD PUSH2 0x22D8 JUMP JUMPDEST SWAP1 DUP2 PUSH2 0x760 JUMPI JUMPDEST POP POP POP POP SSTORE CALLER DUP3 MSTORE DUP2 DUP2 MSTORE DUP2 DUP6 PUSH2 0x71F DUP6 DUP4 KECCAK256 DUP11 PUSH2 0x2356 JUMP JUMPDEST ADD SSTORE CALLER DUP3 MSTORE MSTORE DUP4 KECCAK256 DUP5 PUSH2 0x2356 JUMP JUMPDEST ADD SSTORE PUSH2 0x739 CALLER SWAP2 PUSH2 0x244D JUMP JUMPDEST PUSH32 0xDD403BCC860194E697BD48A94AD259A004827525EF954AD73B044E400F3ADFE0 DUP4 DUP1 LOG3 DUP1 RETURN JUMPDEST DUP4 SWAP1 PUSH1 0x1F DUP4 GT PUSH1 0x1 EQ PUSH2 0x77B JUMPI POP POP POP SSTORE JUMPDEST DUP4 DUP12 DUP1 DUP1 PUSH2 0x706 JUMP JUMPDEST PUSH2 0x799 SWAP1 DUP5 DUP4 SWAP5 SWAP6 SWAP4 MSTORE PUSH1 0x1F DUP10 DUP6 KECCAK256 SWAP6 ADD PUSH1 0x5 SHR DUP6 ADD SWAP1 DUP6 ADD PUSH2 0x246D JUMP JUMPDEST SSTORE SSTORE PUSH2 0x772 JUMP JUMPDEST PUSH4 0x4E487B71 PUSH1 0xE0 SHL DUP10 MSTORE DUP9 DUP8 MSTORE DUP9 REVERT JUMPDEST PUSH4 0x4E487B71 PUSH1 0xE0 SHL DUP10 MSTORE PUSH1 0x31 DUP8 MSTORE DUP3 DUP10 REVERT JUMPDEST CALLER DUP9 MSTORE DUP3 DUP5 MSTORE DUP5 DUP9 KECCAK256 DUP1 SLOAD SWAP1 DUP11 DUP3 ADD SWAP2 DUP3 GT PUSH2 0x8B8 JUMPI SWAP1 PUSH2 0x7E2 SWAP2 PUSH2 0x22AF JUMP JUMPDEST POP CALLER DUP10 MSTORE DUP4 DUP6 MSTORE PUSH2 0x7F5 DUP3 DUP8 DUP12 KECCAK256 PUSH2 0x22AF JUMP JUMPDEST PUSH2 0x8A7 JUMPI SWAP1 PUSH2 0x803 SWAP2 PUSH2 0x25AB JUMP JUMPDEST CALLER DUP9 MSTORE DUP8 DUP5 MSTORE DUP6 DUP6 DUP10 KECCAK256 DUP5 DUP7 MSTORE DUP6 PUSH2 0x81D DUP5 DUP10 DUP14 KECCAK256 PUSH2 0x22AF JUMP JUMPDEST POP DUP9 MLOAD SWAP3 DUP13 SWAP2 DUP1 SLOAD SWAP1 PUSH2 0x82F DUP3 PUSH2 0x22D8 JUMP JUMPDEST SWAP2 DUP7 DUP12 DUP3 AND SWAP2 DUP3 PUSH0 EQ PUSH2 0x88F JUMPI POP POP PUSH1 0x1 EQ PUSH2 0x858 JUMPI JUMPDEST POP POP DUP2 MSTORE DUP3 SWAP1 SUB ADD SWAP1 KECCAK256 ADD SSTORE DUP9 PUSH2 0x6C1 JUMP JUMPDEST SWAP1 SWAP2 SWAP3 POP DUP14 MSTORE DUP13 DUP9 DUP5 DUP3 KECCAK256 JUMPDEST DUP4 DUP4 LT PUSH2 0x878 JUMPI POP POP POP DUP4 ADD SWAP1 DUP4 DUP16 PUSH2 0x846 JUMP JUMPDEST DUP1 SLOAD DUP8 DUP5 ADD MSTORE DUP14 SWAP8 POP DUP12 SWAP6 SWAP1 SWAP3 ADD SWAP2 DUP11 SWAP2 ADD PUSH2 0x864 JUMP JUMPDEST SWAP3 POP SWAP5 POP POP PUSH1 0xFF NOT AND DUP4 MSTORE DUP1 ISZERO ISZERO MUL DUP3 ADD SWAP2 DUP16 PUSH2 0x846 JUMP JUMPDEST PUSH4 0x4E487B71 PUSH1 0xE0 SHL DUP11 MSTORE DUP10 DUP9 MSTORE DUP4 DUP11 REVERT JUMPDEST PUSH4 0x4E487B71 PUSH1 0xE0 SHL DUP11 MSTORE PUSH1 0x11 DUP9 MSTORE DUP4 DUP11 REVERT JUMPDEST PUSH4 0x4E487B71 PUSH1 0xE0 SHL DUP10 MSTORE PUSH1 0x11 DUP8 MSTORE DUP3 DUP10 REVERT JUMPDEST PUSH2 0x8F3 SWAP2 POP DUP4 RETURNDATASIZE DUP6 GT PUSH2 0x420 JUMPI PUSH2 0x412 DUP2 DUP4 PUSH2 0x21B6 JUMP JUMPDEST DUP9 PUSH2 0x664 JUMP JUMPDEST DUP4 MLOAD RETURNDATASIZE DUP9 DUP3 RETURNDATACOPY RETURNDATASIZE SWAP1 REVERT JUMPDEST DUP4 DUP1 REVERT JUMPDEST POP SWAP1 CALLVALUE PUSH2 0x1A0 JUMPI PUSH1 0x60 CALLDATASIZE PUSH1 0x3 NOT ADD SLT PUSH2 0x1A0 JUMPI PUSH2 0x922 PUSH2 0x2157 JUMP JUMPDEST SWAP1 PUSH1 0x24 CALLDATALOAD SWAP1 PUSH1 0x1 PUSH1 0x1 PUSH1 0x40 SHL SUB DUP3 GT PUSH2 0x972 JUMPI PUSH2 0x941 SWAP2 CALLDATASIZE SWAP2 ADD PUSH2 0x21D7 JUMP JUMPDEST PUSH1 0x44 CALLDATALOAD SWAP4 SWAP1 SWAP2 SWAP1 PUSH1 0x1 PUSH1 0x1 PUSH1 0xA0 SHL SUB DUP6 AND DUP6 SUB PUSH2 0x96F JUMPI POP SWAP3 PUSH2 0x966 SWAP2 PUSH1 0x20 SWAP5 PUSH2 0x28B8 JUMP JUMPDEST SWAP1 MLOAD SWAP1 ISZERO ISZERO DUP2 MSTORE RETURN JUMPDEST DUP1 REVERT JUMPDEST DUP5 DUP1 REVERT JUMPDEST POP DUP3 CALLVALUE PUSH2 0x96F JUMPI PUSH1 0x60 CALLDATASIZE PUSH1 0x3 NOT ADD SLT PUSH2 0x96F JUMPI DUP3 CALLDATALOAD PUSH1 0x1 PUSH1 0x1 PUSH1 0x40 SHL SUB DUP2 GT PUSH2 0x5DF JUMPI PUSH2 0x9A6 SWAP1 CALLDATASIZE SWAP1 DUP6 ADD PUSH2 0x21D7 JUMP JUMPDEST SWAP1 PUSH2 0x9AF PUSH2 0x2171 JUMP JUMPDEST PUSH1 0x3 SLOAD DUP5 MLOAD PUSH4 0xCBE02A9F PUSH1 0xE0 SHL DUP2 MSTORE PUSH1 0x20 DUP2 DUP9 ADD DUP2 SWAP1 MSTORE SWAP7 PUSH1 0x1 PUSH1 0x1 PUSH1 0xA0 SHL SUB SWAP4 SWAP3 SWAP1 SWAP2 SWAP1 DUP9 SWAP1 DUP3 SWAP1 DUP7 AND DUP2 DUP1 PUSH2 0x9E9 PUSH1 0x24 DUP3 ADD DUP13 PUSH2 0x2331 JUMP JUMPDEST SUB SWAP2 GAS STATICCALL SWAP1 DUP2 ISZERO PUSH2 0xAEB JUMPI SWAP1 DUP5 SWAP2 DUP7 SWAP2 PUSH2 0xACE JUMPI JUMPDEST POP AND DUP1 CALLER EQ SWAP1 DUP2 PUSH2 0xAC4 JUMPI JUMPDEST POP DUP1 PUSH2 0xAA5 JUMPI JUMPDEST ISZERO PUSH2 0xA4A JUMPI POP SWAP2 DUP5 SWAP2 PUSH2 0xA42 SWAP5 SWAP4 AND DUP1 DUP3 MSTORE DUP2 DUP8 MSTORE PUSH1 0x44 CALLDATALOAD PUSH2 0xA35 DUP5 DUP5 KECCAK256 DUP7 PUSH2 0x2356 JUMP JUMPDEST SSTORE DUP2 MSTORE DUP1 DUP7 MSTORE KECCAK256 SWAP1 PUSH2 0x2356 JUMP JUMPDEST SLOAD SWAP1 MLOAD SWAP1 DUP2 MSTORE RETURN JUMPDEST DUP6 MLOAD PUSH3 0x461BCD PUSH1 0xE5 SHL DUP2 MSTORE SWAP1 DUP2 ADD DUP8 SWAP1 MSTORE PUSH1 0x2F PUSH1 0x24 DUP3 ADD MSTORE PUSH32 0x4E6F742074686520637265642061636365737320636F6E7472616374206F7220 PUSH1 0x44 DUP3 ADD MSTORE PUSH15 0x2AB9B2B9103737BA1036B2B6B132B9 PUSH1 0x89 SHL PUSH1 0x64 DUP3 ADD MSTORE PUSH1 0x84 SWAP1 REVERT JUMPDEST POP DUP3 DUP3 AND DUP5 MSTORE DUP4 DUP8 MSTORE DUP1 PUSH2 0xABB DUP8 DUP7 KECCAK256 DUP8 PUSH2 0x2356 JUMP JUMPDEST ADD SLOAD ISZERO ISZERO PUSH2 0xA11 JUMP JUMPDEST SWAP1 POP ISZERO ISZERO DUP9 PUSH2 0xA0A JUMP JUMPDEST PUSH2 0xAE5 SWAP2 POP DUP10 RETURNDATASIZE DUP12 GT PUSH2 0x4E5 JUMPI PUSH2 0x4D7 DUP2 DUP4 PUSH2 0x21B6 JUMP JUMPDEST DUP10 PUSH2 0x9FE JUMP JUMPDEST DUP8 MLOAD RETURNDATASIZE DUP8 DUP3 RETURNDATACOPY RETURNDATASIZE SWAP1 REVERT JUMPDEST POP SWAP1 CALLVALUE PUSH2 0x1A0 JUMPI PUSH2 0xB05 CALLDATASIZE PUSH2 0x226E JUMP JUMPDEST PUSH1 0x3 SLOAD DUP5 MLOAD PUSH4 0x7B7FCFED PUSH1 0xE0 SHL DUP2 MSTORE PUSH1 0x20 DUP2 DUP7 ADD DUP2 SWAP1 MSTORE SWAP4 SWAP6 PUSH1 0x1 PUSH1 0x1 PUSH1 0xA0 SHL SUB SWAP3 DUP4 AND SWAP6 SWAP1 SWAP5 SWAP4 SWAP1 SWAP3 SWAP2 DUP5 DUP2 DUP1 PUSH2 0xB40 PUSH1 0x24 DUP3 ADD DUP13 PUSH2 0x2331 JUMP JUMPDEST SUB DUP2 DUP11 GAS STATICCALL SWAP1 DUP2 ISZERO PUSH2 0xD82 JUMPI DUP4 SWAP3 SWAP2 PUSH2 0xB5F SWAP2 DUP12 SWAP2 PUSH2 0xD65 JUMPI POP PUSH2 0x2508 JUMP JUMPDEST CALLER DUP10 MSTORE DUP9 DUP6 MSTORE PUSH2 0xB75 DUP5 PUSH2 0x680 DUP9 DUP13 KECCAK256 DUP12 PUSH2 0x2356 JUMP JUMPDEST AND SWAP5 DUP6 DUP9 MSTORE DUP8 DUP5 MSTORE PUSH2 0xB96 DUP4 PUSH2 0xB8D DUP8 DUP12 KECCAK256 DUP11 PUSH2 0x2356 JUMP JUMPDEST ADD SLOAD ISZERO ISZERO PUSH2 0x2685 JUMP JUMPDEST PUSH2 0xBA2 DUP7 CALLER EQ ISZERO PUSH2 0x26E8 JUMP JUMPDEST DUP4 DUP6 MLOAD DUP1 SWAP3 PUSH4 0xCBE02A9F PUSH1 0xE0 SHL DUP3 MSTORE DUP3 DUP7 DUP4 ADD MSTORE DUP2 DUP1 PUSH2 0xBC5 PUSH1 0x24 DUP3 ADD DUP14 PUSH2 0x2331 JUMP JUMPDEST SUB SWAP2 GAS STATICCALL SWAP1 DUP2 ISZERO PUSH2 0xD5B JUMPI SWAP1 PUSH2 0xBE5 SWAP3 SWAP2 DUP10 SWAP2 PUSH2 0xD3E JUMPI JUMPDEST POP AND ISZERO PUSH2 0x2734 JUMP JUMPDEST DUP4 DUP7 MSTORE DUP6 DUP3 MSTORE PUSH1 0x1 PUSH2 0xBF9 DUP5 DUP9 KECCAK256 DUP8 PUSH2 0x2356 JUMP JUMPDEST ADD CALLER DUP8 MSTORE DUP3 MSTORE PUSH2 0xC0C DUP4 DUP8 KECCAK256 SLOAD ISZERO PUSH2 0x278F JUMP JUMPDEST DUP4 DUP7 MSTORE DUP6 DUP3 MSTORE PUSH2 0xC1E DUP4 DUP8 KECCAK256 DUP7 PUSH2 0x2356 JUMP JUMPDEST DUP1 SLOAD SWAP1 PUSH1 0x1 DUP3 ADD SWAP2 DUP9 PUSH1 0x1 DUP5 SLT SWAP2 SLT SWAP1 DUP1 ISZERO DUP3 AND SWAP2 ISZERO AND OR PUSH2 0xD2B JUMPI SSTORE DUP4 DUP7 MSTORE DUP6 DUP3 MSTORE PUSH2 0xC4D DUP4 DUP8 KECCAK256 DUP7 PUSH2 0x2356 JUMP JUMPDEST SLOAD PUSH2 0xC57 DUP7 PUSH2 0x244D JUMP JUMPDEST DUP5 MLOAD SWAP2 DUP3 MSTORE DUP6 PUSH0 DUP1 MLOAD PUSH1 0x20 PUSH2 0x28FA DUP4 CODECOPY DUP2 MLOAD SWAP2 MSTORE DUP6 TIMESTAMP SWAP5 LOG4 DUP4 DUP7 MSTORE DUP6 DUP3 MSTORE PUSH2 0xC8D CALLER PUSH1 0x2 PUSH2 0xC87 DUP7 DUP11 KECCAK256 DUP10 PUSH2 0x2356 JUMP JUMPDEST ADD PUSH2 0x24E5 JUMP JUMPDEST DUP4 DUP7 MSTORE DUP6 DUP3 MSTORE PUSH1 0x2 PUSH2 0xCA1 DUP5 DUP9 KECCAK256 DUP8 PUSH2 0x2356 JUMP JUMPDEST ADD SLOAD PUSH0 NOT DUP2 ADD SWAP2 SWAP1 DUP3 GT PUSH2 0xD18 JUMPI POP SWAP1 PUSH32 0xD0F5D24E816C9FC4CBA0F35B280898648E66604FC44212736E778BFEFC338B0F SWAP2 DUP5 DUP8 MSTORE DUP7 DUP3 MSTORE PUSH1 0x1 PUSH2 0xCE7 DUP6 DUP10 KECCAK256 DUP9 PUSH2 0x2356 JUMP JUMPDEST ADD CALLER DUP9 MSTORE DUP3 MSTORE DUP4 DUP8 KECCAK256 SSTORE DUP4 DUP7 MSTORE DUP6 DUP2 MSTORE PUSH2 0xD0D PUSH2 0xD06 DUP5 DUP9 KECCAK256 DUP8 PUSH2 0x2356 JUMP JUMPDEST SLOAD SWAP6 PUSH2 0x244D JUMP JUMPDEST SWAP3 MLOAD SWAP5 DUP6 MSTORE CALLER SWAP5 LOG4 DUP1 RETURN JUMPDEST PUSH4 0x4E487B71 PUSH1 0xE0 SHL DUP8 MSTORE PUSH1 0x11 SWAP1 MSTORE PUSH1 0x24 DUP7 REVERT JUMPDEST PUSH4 0x4E487B71 PUSH1 0xE0 SHL DUP9 MSTORE PUSH1 0x11 DUP4 MSTORE PUSH1 0x24 DUP9 REVERT JUMPDEST PUSH2 0xD55 SWAP2 POP DUP6 RETURNDATASIZE DUP8 GT PUSH2 0x4E5 JUMPI PUSH2 0x4D7 DUP2 DUP4 PUSH2 0x21B6 JUMP JUMPDEST PUSH0 PUSH2 0xBDD JUMP JUMPDEST DUP6 MLOAD RETURNDATASIZE DUP11 DUP3 RETURNDATACOPY RETURNDATASIZE SWAP1 REVERT JUMPDEST PUSH2 0xD7C SWAP2 POP DUP8 RETURNDATASIZE DUP10 GT PUSH2 0x420 JUMPI PUSH2 0x412 DUP2 DUP4 PUSH2 0x21B6 JUMP JUMPDEST PUSH0 PUSH2 0x664 JUMP JUMPDEST DUP7 MLOAD RETURNDATASIZE DUP12 DUP3 RETURNDATACOPY RETURNDATASIZE SWAP1 REVERT JUMPDEST DUP4 DUP3 CALLVALUE PUSH2 0x5DF JUMPI PUSH1 0x20 SWAP1 PUSH2 0x966 PUSH2 0xDA2 CALLDATASIZE PUSH2 0x222C JUMP JUMPDEST SWAP1 PUSH2 0x2829 JUMP JUMPDEST POP SWAP1 CALLVALUE PUSH2 0x1A0 JUMPI DUP2 PUSH1 0x20 SWAP4 PUSH1 0xFF SWAP3 PUSH2 0x231 DUP7 PUSH2 0xDC3 CALLDATASIZE PUSH2 0x226E JUMP JUMPDEST SWAP4 DUP3 DUP8 MLOAD SWAP5 DUP4 DUP7 DUP1 SWAP6 MLOAD SWAP4 DUP5 SWAP3 ADD PUSH2 0x2310 JUMP JUMPDEST POP SWAP1 CALLVALUE PUSH2 0x1A0 JUMPI PUSH1 0x60 CALLDATASIZE PUSH1 0x3 NOT ADD SLT PUSH2 0x1A0 JUMPI PUSH2 0xDF1 PUSH2 0x2157 JUMP JUMPDEST PUSH2 0xDF9 PUSH2 0x2171 JUMP JUMPDEST SWAP2 PUSH1 0x44 CALLDATALOAD PUSH1 0x1 PUSH1 0x1 PUSH1 0x40 SHL SUB DUP2 GT PUSH2 0xE62 JUMPI SWAP2 PUSH1 0x1 PUSH2 0xE52 DUP7 SWAP6 SWAP4 PUSH2 0xE24 PUSH1 0x20 SWAP10 SWAP7 CALLDATASIZE SWAP1 DUP4 ADD PUSH2 0x21D7 JUMP JUMPDEST SWAP1 PUSH2 0xE44 DUP5 DUP1 PUSH1 0xA0 SHL SUB DUP1 SWAP7 AND SWAP2 DUP3 DUP10 MSTORE DUP9 DUP13 MSTORE PUSH2 0x132 DUP11 DUP11 KECCAK256 DUP6 PUSH2 0x2356 JUMP JUMPDEST DUP7 MSTORE DUP6 DUP10 MSTORE DUP7 DUP7 KECCAK256 SWAP1 PUSH2 0x2356 JUMP JUMPDEST ADD SWAP2 AND DUP3 MSTORE DUP5 MSTORE KECCAK256 SLOAD SWAP1 MLOAD SWAP1 DUP2 MSTORE RETURN JUMPDEST DUP6 DUP1 REVERT JUMPDEST POP SWAP1 CALLVALUE PUSH2 0x1A0 JUMPI PUSH2 0xE76 CALLDATASIZE PUSH2 0x226E JUMP JUMPDEST PUSH1 0x3 SLOAD DUP5 MLOAD PUSH4 0x7B7FCFED PUSH1 0xE0 SHL DUP2 MSTORE PUSH1 0x20 DUP2 DUP7 ADD DUP2 SWAP1 MSTORE SWAP4 SWAP6 PUSH1 0x1 PUSH1 0x1 PUSH1 0xA0 SHL SUB SWAP3 DUP4 AND SWAP6 SWAP1 SWAP5 SWAP4 SWAP1 SWAP3 SWAP2 DUP5 DUP2 DUP1 PUSH2 0xEB1 PUSH1 0x24 DUP3 ADD DUP13 PUSH2 0x2331 JUMP JUMPDEST SUB DUP2 DUP11 GAS STATICCALL SWAP1 DUP2 ISZERO PUSH2 0xD82 JUMPI DUP4 SWAP3 SWAP2 PUSH2 0xED0 SWAP2 DUP12 SWAP2 PUSH2 0xD65 JUMPI POP PUSH2 0x2508 JUMP JUMPDEST CALLER DUP10 MSTORE DUP9 DUP6 MSTORE PUSH2 0xEE6 DUP5 PUSH2 0x680 DUP9 DUP13 KECCAK256 DUP12 PUSH2 0x2356 JUMP JUMPDEST AND SWAP5 DUP6 DUP9 MSTORE DUP8 DUP5 MSTORE PUSH2 0xEFE DUP4 PUSH2 0xB8D DUP8 DUP12 KECCAK256 DUP11 PUSH2 0x2356 JUMP JUMPDEST PUSH2 0xF0A DUP7 CALLER EQ ISZERO PUSH2 0x26E8 JUMP JUMPDEST DUP4 DUP6 MLOAD DUP1 SWAP3 PUSH4 0xCBE02A9F PUSH1 0xE0 SHL DUP3 MSTORE DUP3 DUP7 DUP4 ADD MSTORE DUP2 DUP1 PUSH2 0xF2D PUSH1 0x24 DUP3 ADD DUP14 PUSH2 0x2331 JUMP JUMPDEST SUB SWAP2 GAS STATICCALL SWAP1 DUP2 ISZERO PUSH2 0xD5B JUMPI SWAP1 PUSH2 0xF4C SWAP3 SWAP2 DUP10 SWAP2 PUSH2 0xD3E JUMPI POP AND ISZERO PUSH2 0x2734 JUMP JUMPDEST DUP4 DUP7 MSTORE DUP6 DUP3 MSTORE PUSH1 0x1 PUSH2 0xF60 DUP5 DUP9 KECCAK256 DUP8 PUSH2 0x2356 JUMP JUMPDEST ADD CALLER DUP8 MSTORE DUP3 MSTORE PUSH2 0xF73 DUP4 DUP8 KECCAK256 SLOAD ISZERO PUSH2 0x278F JUMP JUMPDEST DUP4 DUP7 MSTORE DUP6 DUP3 MSTORE PUSH2 0xF85 DUP4 DUP8 KECCAK256 DUP7 PUSH2 0x2356 JUMP JUMPDEST SWAP1 DUP2 SLOAD PUSH0 NOT SWAP3 DUP4 DUP3 ADD SWAP2 DUP3 SGT PUSH1 0x1 AND PUSH2 0x1045 JUMPI SSTORE DUP5 DUP8 MSTORE DUP7 DUP4 MSTORE PUSH2 0xFAB DUP5 DUP9 KECCAK256 DUP8 PUSH2 0x2356 JUMP JUMPDEST SLOAD PUSH2 0xFB5 DUP8 PUSH2 0x244D JUMP JUMPDEST DUP6 MLOAD SWAP2 DUP3 MSTORE DUP7 PUSH0 DUP1 MLOAD PUSH1 0x20 PUSH2 0x28FA DUP4 CODECOPY DUP2 MLOAD SWAP2 MSTORE DUP7 TIMESTAMP SWAP5 LOG4 DUP5 DUP8 MSTORE DUP7 DUP4 MSTORE PUSH2 0xFE5 CALLER PUSH1 0x3 PUSH2 0xC87 DUP8 DUP12 KECCAK256 DUP11 PUSH2 0x2356 JUMP JUMPDEST DUP5 DUP8 MSTORE DUP7 DUP4 MSTORE PUSH1 0x3 PUSH2 0xFF9 DUP6 DUP10 KECCAK256 DUP9 PUSH2 0x2356 JUMP JUMPDEST ADD SLOAD SWAP2 DUP3 ADD SWAP2 DUP3 GT PUSH2 0xD18 JUMPI POP SWAP1 PUSH2 0x1031 PUSH32 0x8E3DD53AAAD1909975DE245668134B898A443D9D797F6A14E77B5CD0606ED541 SWAP3 PUSH2 0x27EF JUMP JUMPDEST DUP5 DUP8 MSTORE DUP7 DUP3 MSTORE PUSH1 0x1 PUSH2 0xCE7 DUP6 DUP10 KECCAK256 DUP9 PUSH2 0x2356 JUMP JUMPDEST PUSH4 0x4E487B71 PUSH1 0xE0 SHL DUP10 MSTORE PUSH1 0x11 DUP4 MSTORE PUSH1 0x24 DUP10 REVERT JUMPDEST DUP4 DUP3 CALLVALUE PUSH2 0x5DF JUMPI DUP2 PUSH1 0x3 NOT CALLDATASIZE ADD SLT PUSH2 0x5DF JUMPI PUSH1 0x3 SLOAD SWAP1 MLOAD PUSH1 0x1 PUSH1 0x1 PUSH1 0xA0 SHL SUB SWAP1 SWAP2 AND DUP2 MSTORE PUSH1 0x20 SWAP1 RETURN JUMPDEST POP DUP3 CALLVALUE PUSH2 0x96F JUMPI PUSH2 0x1091 CALLDATASIZE PUSH2 0x226E JUMP JUMPDEST SWAP3 PUSH1 0x1 DUP1 PUSH1 0xA0 SHL SUB SWAP4 DUP5 PUSH1 0x3 SLOAD AND SWAP6 DUP3 MLOAD SWAP6 PUSH4 0x7B7FCFED PUSH1 0xE0 SHL DUP8 MSTORE PUSH1 0x20 SWAP3 DUP4 DUP4 DUP10 ADD MSTORE PUSH1 0x24 SWAP8 DUP5 DUP2 DUP1 PUSH2 0x10C7 DUP13 DUP3 ADD DUP12 PUSH2 0x2331 JUMP JUMPDEST SUB DUP2 DUP14 GAS STATICCALL SWAP1 DUP2 ISZERO PUSH2 0x14A6 JUMPI SWAP9 DUP1 SWAP11 PUSH2 0x1123 DUP7 PUSH2 0xB8D DUP11 DUP9 DUP15 SWAP16 SWAP9 DUP15 SWAP16 SWAP15 DUP16 PUSH2 0x680 DUP16 SWAP12 SWAP3 DUP7 DUP4 PUSH2 0x114D SWAP16 SWAP5 DUP16 PUSH2 0x1109 PUSH2 0x1114 SWAP9 DUP15 SWAP9 DUP5 SWAP2 PUSH2 0x148F JUMPI POP PUSH2 0x2508 JUMP JUMPDEST CALLER DUP3 MSTORE MSTORE KECCAK256 SWAP1 PUSH2 0x2356 JUMP JUMPDEST AND SWAP13 DUP14 DUP2 MSTORE DUP1 DUP9 MSTORE KECCAK256 DUP14 PUSH2 0x2356 JUMP JUMPDEST PUSH2 0x112F DUP10 CALLER EQ ISZERO PUSH2 0x26E8 JUMP JUMPDEST DUP8 MLOAD DUP1 DUP1 SWAP6 DUP2 SWAP5 PUSH4 0xCBE02A9F PUSH1 0xE0 SHL DUP4 MSTORE DUP7 DUP11 DUP5 ADD MSTORE DUP3 ADD DUP14 PUSH2 0x2331 JUMP JUMPDEST SUB SWAP2 GAS STATICCALL SWAP1 DUP2 ISZERO PUSH2 0xD5B JUMPI SWAP1 DUP3 SWAP2 DUP10 SWAP2 PUSH2 0x1472 JUMPI JUMPDEST POP AND PUSH2 0x1423 JUMPI DUP5 DUP8 MSTORE DUP7 DUP4 MSTORE PUSH1 0x1 PUSH2 0x117C DUP6 DUP10 KECCAK256 DUP9 PUSH2 0x2356 JUMP JUMPDEST ADD CALLER DUP9 MSTORE DUP4 MSTORE DUP4 DUP8 KECCAK256 SLOAD SWAP2 DUP8 DUP4 SGT DUP1 ISZERO PUSH2 0x141C JUMPI JUMPDEST DUP6 MLOAD SWAP1 PUSH2 0x119D DUP3 PUSH2 0x2187 JUMP JUMPDEST PUSH1 0x36 DUP3 MSTORE PUSH32 0x596F752068617665206E6F7420676976656E206120706F736974697665206372 DUP7 DUP4 ADD MSTORE PUSH22 0x32B2103A37903A3434B99036B2B6B132B9103CB2BA17 PUSH1 0x51 SHL DUP8 DUP4 ADD MSTORE ISZERO PUSH2 0x13F8 JUMPI POP DUP6 DUP9 MSTORE DUP8 DUP5 MSTORE PUSH2 0x11FC DUP6 DUP10 KECCAK256 DUP9 PUSH2 0x2356 JUMP JUMPDEST SWAP2 DUP3 SLOAD PUSH0 NOT SWAP4 DUP5 DUP3 ADD SWAP2 DUP12 DUP7 DUP5 SLT SWAP2 SLT SWAP1 DUP1 ISZERO DUP3 AND SWAP2 ISZERO AND OR PUSH2 0x13E6 JUMPI SSTORE DUP7 DUP10 MSTORE DUP9 DUP6 MSTORE PUSH2 0x122C DUP7 DUP11 KECCAK256 DUP10 PUSH2 0x2356 JUMP JUMPDEST SLOAD PUSH2 0x1236 DUP10 PUSH2 0x244D JUMP JUMPDEST DUP8 MLOAD SWAP2 DUP3 MSTORE DUP9 PUSH0 DUP1 MLOAD PUSH1 0x20 PUSH2 0x28FA DUP4 CODECOPY DUP2 MLOAD SWAP2 MSTORE DUP9 TIMESTAMP SWAP5 LOG4 DUP7 DUP10 MSTORE DUP9 DUP6 MSTORE PUSH1 0x2 PUSH2 0x1262 DUP8 DUP12 KECCAK256 DUP11 PUSH2 0x2356 JUMP JUMPDEST ADD SWAP4 DUP10 DUP6 SLOAD SWAP3 DUP6 DUP5 ADD SWAP4 DUP5 GT PUSH2 0x13D4 JUMPI DUP4 DUP4 SUB PUSH2 0x1317 JUMPI JUMPDEST POP SWAP1 POP DUP8 SWAP2 POP MSTORE DUP8 DUP5 MSTORE PUSH1 0x1 PUSH2 0x1292 DUP7 DUP11 KECCAK256 DUP10 PUSH2 0x2356 JUMP JUMPDEST ADD CALLER DUP10 MSTORE DUP5 MSTORE DUP8 DUP6 DUP2 KECCAK256 SSTORE DUP3 SLOAD SWAP1 DUP2 ISZERO PUSH2 0x1305 JUMPI POP PUSH32 0x6C5CFC2553AAFFD4CD0342765CDBCA370CDA07554F00E4E5112884EAE468E299 SWAP4 SWAP3 SWAP2 ADD SWAP1 PUSH2 0x12EF PUSH2 0x12DA DUP4 DUP4 PUSH2 0x22AF JUMP JUMPDEST DUP2 SLOAD SWAP1 PUSH1 0x1 DUP1 PUSH1 0xA0 SHL SUB SWAP1 PUSH1 0x3 SHL SHL NOT AND SWAP1 SSTORE JUMP JUMPDEST SSTORE DUP4 DUP7 MSTORE DUP6 DUP2 MSTORE PUSH2 0xD0D PUSH2 0xD06 DUP5 DUP9 KECCAK256 DUP8 PUSH2 0x2356 JUMP JUMPDEST PUSH4 0x4E487B71 PUSH1 0xE0 SHL DUP10 MSTORE PUSH1 0x31 SWAP1 MSTORE DUP9 DUP9 REVERT JUMPDEST PUSH2 0x1359 DUP2 PUSH2 0x1328 PUSH2 0x1397 SWAP7 DUP11 PUSH2 0x22AF JUMP JUMPDEST SWAP1 SLOAD SWAP1 PUSH1 0x3 SHL SHR AND PUSH2 0x133A DUP6 DUP11 PUSH2 0x22AF JUMP JUMPDEST SWAP1 SWAP2 SWAP1 DUP3 SLOAD SWAP1 PUSH1 0x3 SHL SWAP2 PUSH1 0x1 DUP1 PUSH1 0xA0 SHL SUB DUP1 SWAP2 AND DUP4 SHL SWAP3 SHL NOT AND OR SWAP1 SSTORE JUMP JUMPDEST PUSH1 0x1 PUSH2 0x1376 DUP11 PUSH2 0x1368 DUP7 PUSH2 0x2818 JUMP JUMPDEST SWAP5 DUP14 DUP2 MSTORE DUP1 DUP13 MSTORE KECCAK256 DUP14 PUSH2 0x2356 JUMP JUMPDEST ADD SWAP1 PUSH2 0x1382 DUP5 DUP10 PUSH2 0x22AF JUMP JUMPDEST SWAP1 SLOAD SWAP1 PUSH1 0x3 SHL SHR AND DUP13 MSTORE DUP8 MSTORE DUP8 DUP12 KECCAK256 SSTORE PUSH2 0x2818 JUMP JUMPDEST DUP7 PUSH2 0x13A1 DUP10 PUSH2 0x244D JUMP JUMPDEST DUP8 MLOAD SWAP3 DUP4 MSTORE PUSH32 0xD6FA86004958E4FADC7035E661E86172C72F1EA51E79E8BF8BD3F4103663E8E3 DUP8 CALLER SWAP5 LOG4 DUP10 DUP1 DUP10 DUP2 PUSH2 0x127A JUMP JUMPDEST PUSH4 0x4E487B71 PUSH1 0xE0 SHL DUP3 MSTORE PUSH1 0x11 DUP6 MSTORE DUP13 DUP3 REVERT JUMPDEST PUSH4 0x4E487B71 PUSH1 0xE0 SHL DUP12 MSTORE PUSH1 0x11 DUP5 MSTORE DUP12 DUP12 REVERT JUMPDEST DUP6 MLOAD PUSH3 0x461BCD PUSH1 0xE5 SHL DUP2 MSTORE SWAP2 DUP3 ADD DUP6 SWAP1 MSTORE DUP2 SWAP1 PUSH2 0x1418 SWAP1 DUP3 DUP13 ADD SWAP1 PUSH2 0x2331 JUMP JUMPDEST SUB SWAP1 REVERT JUMPDEST POP DUP8 PUSH2 0x1191 JUMP JUMPDEST POP PUSH1 0x25 DUP8 PUSH1 0x84 SWAP4 DUP6 MLOAD SWAP4 PUSH3 0x461BCD PUSH1 0xE5 SHL DUP6 MSTORE DUP5 ADD MSTORE DUP3 ADD MSTORE PUSH32 0x436F6D6D756E6974792055736573206120637265642061636365737320636F6E PUSH1 0x44 DUP3 ADD MSTORE PUSH5 0x1D1C9858DD PUSH1 0xDA SHL PUSH1 0x64 DUP3 ADD MSTORE REVERT JUMPDEST PUSH2 0x1489 SWAP2 POP DUP6 RETURNDATASIZE DUP8 GT PUSH2 0x4E5 JUMPI PUSH2 0x4D7 DUP2 DUP4 PUSH2 0x21B6 JUMP JUMPDEST DUP11 PUSH2 0x1162 JUMP JUMPDEST PUSH2 0xD7C SWAP2 POP DUP4 RETURNDATASIZE DUP6 GT PUSH2 0x420 JUMPI PUSH2 0x412 DUP2 DUP4 PUSH2 0x21B6 JUMP JUMPDEST DUP7 MLOAD RETURNDATASIZE DUP11 DUP3 RETURNDATACOPY RETURNDATASIZE SWAP1 REVERT JUMPDEST POP DUP3 SWAP1 CALLVALUE PUSH2 0x5DF JUMPI PUSH2 0x14C1 CALLDATASIZE PUSH2 0x226E JUMP JUMPDEST PUSH1 0x3 SLOAD DUP4 MLOAD PUSH4 0xCBE02A9F PUSH1 0xE0 SHL DUP1 DUP3 MSTORE PUSH1 0x20 DUP3 DUP10 ADD DUP2 SWAP1 MSTORE SWAP8 SWAP4 SWAP6 SWAP5 SWAP4 SWAP3 PUSH1 0x24 SWAP3 PUSH1 0x1 PUSH1 0x1 PUSH1 0xA0 SHL SUB SWAP3 SWAP2 DUP4 AND SWAP2 DUP11 DUP3 DUP1 PUSH2 0x14FE DUP9 DUP3 ADD DUP12 PUSH2 0x2331 JUMP JUMPDEST SUB DUP2 DUP7 GAS STATICCALL SWAP2 DUP3 ISZERO PUSH2 0x547 JUMPI DUP11 SWAP3 PUSH2 0x183A JUMPI JUMPDEST POP DUP8 MLOAD PUSH4 0xB3F6702D PUSH1 0xE0 SHL DUP2 MSTORE DUP7 DUP2 ADD DUP13 SWAP1 MSTORE DUP12 DUP2 DUP1 PUSH2 0x1533 DUP10 DUP3 ADD DUP13 PUSH2 0x2331 JUMP JUMPDEST SUB DUP2 DUP8 GAS STATICCALL SWAP1 DUP2 ISZERO PUSH2 0x51E JUMPI DUP6 SWAP2 DUP3 SWAP2 DUP15 DUP15 SWAP3 PUSH2 0x181D JUMPI JUMPDEST POP POP AND CALLER EQ SWAP3 DUP4 PUSH2 0x1812 JUMPI JUMPDEST POP POP DUP2 ISZERO PUSH2 0x17BA JUMPI JUMPDEST POP ISZERO PUSH2 0x1766 JUMPI DUP9 DUP7 MLOAD DUP1 SWAP3 PUSH4 0x1EFB39A9 PUSH1 0xE1 SHL DUP3 MSTORE DUP3 DUP8 DUP4 ADD MSTORE DUP2 DUP1 PUSH2 0x1588 DUP9 DUP3 ADD DUP12 PUSH2 0x2331 JUMP JUMPDEST SUB SWAP2 GAS STATICCALL SWAP1 DUP2 ISZERO PUSH2 0x14A6 JUMPI PUSH2 0x15A9 SWAP2 PUSH1 0x1 SWAP2 DUP11 SWAP2 PUSH2 0x1749 JUMPI POP ISZERO ISZERO EQ PUSH2 0x23F6 JUMP JUMPDEST DUP5 MLOAD SWAP1 DUP5 MLOAD SWAP2 DUP10 DUP2 DUP2 DUP9 ADD SWAP5 PUSH2 0x15C0 DUP2 DUP4 DUP9 PUSH2 0x2310 JUMP JUMPDEST DUP2 ADD DUP8 DUP2 MSTORE SUB ADD SWAP1 KECCAK256 SWAP7 AND SWAP6 DUP7 DUP9 MSTORE DUP9 MSTORE PUSH1 0x1 PUSH1 0xFF DUP7 DUP10 KECCAK256 SLOAD AND ISZERO ISZERO SUB PUSH2 0x1712 JUMPI DUP6 CALLER EQ PUSH2 0x16D0 JUMPI DUP8 PUSH2 0x15FD SWAP2 DUP7 MLOAD DUP1 SWAP4 DUP2 SWAP3 DUP9 MLOAD SWAP3 DUP4 SWAP2 PUSH2 0x2310 JUMP JUMPDEST DUP2 ADD DUP6 DUP2 MSTORE SUB ADD SWAP1 KECCAK256 DUP6 DUP8 MSTORE DUP8 MSTORE DUP4 DUP7 KECCAK256 DUP1 SLOAD PUSH1 0xFF NOT AND SWAP1 SSTORE DUP4 MLOAD PUSH4 0x5848E2A3 PUSH1 0xE1 SHL DUP2 MSTORE DUP1 DUP4 ADD DUP7 SWAP1 MSTORE SWAP1 DUP2 ADD DUP5 SWAP1 MSTORE DUP7 DUP2 DUP1 PUSH2 0x163E PUSH1 0x44 DUP3 ADD DUP8 PUSH2 0x2331 JUMP JUMPDEST SUB DUP2 ADDRESS GAS STATICCALL SWAP1 DUP2 ISZERO PUSH2 0x16C6 JUMPI SWAP3 DUP7 PUSH32 0xE19753EF16CB08D80C81E7C26DF1578544DC02C0A7538CF0D3FC2355DC180BCA SWAP4 PUSH1 0x1 PUSH2 0x3F1 SWAP5 DUP10 SWAP9 SWAP8 DUP5 SWAP2 PUSH2 0x16A9 JUMPI JUMPDEST POP ISZERO ISZERO EQ PUSH2 0x168E JUMPI JUMPDEST POP POP PUSH2 0x244D JUMP JUMPDEST DUP7 DUP3 MSTORE DUP2 DUP11 MSTORE PUSH2 0x16A0 DUP7 DUP4 KECCAK256 DUP5 PUSH2 0x2356 JUMP JUMPDEST ADD SSTORE DUP7 DUP10 PUSH2 0x1687 JUMP JUMPDEST PUSH2 0x16C0 SWAP2 POP DUP13 DUP14 RETURNDATASIZE LT PUSH2 0x420 JUMPI PUSH2 0x412 DUP2 DUP4 PUSH2 0x21B6 JUMP JUMPDEST DUP13 PUSH2 0x167E JUMP JUMPDEST DUP5 MLOAD RETURNDATASIZE DUP9 DUP3 RETURNDATACOPY RETURNDATASIZE SWAP1 REVERT JUMPDEST DUP5 MLOAD PUSH3 0x461BCD PUSH1 0xE5 SHL DUP2 MSTORE DUP1 DUP5 ADD DUP10 SWAP1 MSTORE PUSH1 0x1D DUP2 DUP5 ADD MSTORE PUSH32 0x596F752063616E6E6F7420756E696E7669746520796F757273656C662E000000 PUSH1 0x44 DUP3 ADD MSTORE PUSH1 0x64 SWAP1 REVERT JUMPDEST DUP5 MLOAD PUSH3 0x461BCD PUSH1 0xE5 SHL DUP2 MSTORE DUP1 DUP5 ADD DUP10 SWAP1 MSTORE PUSH1 0x12 DUP2 DUP5 ADD MSTORE PUSH18 0x13595B58995C88139BDD08125B9D9A5D1959 PUSH1 0x72 SHL PUSH1 0x44 DUP3 ADD MSTORE PUSH1 0x64 SWAP1 REVERT JUMPDEST PUSH2 0x1760 SWAP2 POP DUP12 RETURNDATASIZE DUP14 GT PUSH2 0x420 JUMPI PUSH2 0x412 DUP2 DUP4 PUSH2 0x21B6 JUMP JUMPDEST DUP12 PUSH2 0x3B7 JUMP JUMPDEST DUP6 MLOAD PUSH3 0x461BCD PUSH1 0xE5 SHL DUP2 MSTORE DUP1 DUP6 ADD DUP11 SWAP1 MSTORE PUSH1 0x29 DUP2 DUP6 ADD MSTORE PUSH32 0x596F7520646F6E742068617665207065726D697373696F6E20756E696E766974 PUSH1 0x44 DUP3 ADD MSTORE PUSH9 0x65204D656D62657273 PUSH1 0xB8 SHL PUSH1 0x64 DUP3 ADD MSTORE PUSH1 0x84 SWAP1 REVERT JUMPDEST SWAP1 POP DUP7 MLOAD SWAP1 DUP2 MSTORE DUP10 DUP6 DUP3 ADD MSTORE DUP10 DUP2 DUP1 PUSH2 0x17D5 DUP8 DUP3 ADD DUP11 PUSH2 0x2331 JUMP JUMPDEST SUB DUP2 DUP6 GAS STATICCALL SWAP1 DUP2 ISZERO PUSH2 0x4EC JUMPI SWAP1 DUP4 SWAP2 DUP11 SWAP2 PUSH2 0x17F5 JUMPI JUMPDEST POP AND CALLER EQ DUP11 PUSH2 0x1560 JUMP JUMPDEST PUSH2 0x180C SWAP2 POP DUP12 RETURNDATASIZE DUP14 GT PUSH2 0x4E5 JUMPI PUSH2 0x4D7 DUP2 DUP4 PUSH2 0x21B6 JUMP JUMPDEST DUP12 PUSH2 0x17EB JUMP JUMPDEST AND ISZERO SWAP2 POP DUP4 DUP13 PUSH2 0x1557 JUMP JUMPDEST PUSH2 0x1833 SWAP3 POP DUP1 RETURNDATASIZE LT PUSH2 0x4E5 JUMPI PUSH2 0x4D7 DUP2 DUP4 PUSH2 0x21B6 JUMP JUMPDEST DUP15 DUP15 PUSH2 0x154B JUMP JUMPDEST PUSH2 0x1852 SWAP2 SWAP3 POP DUP12 RETURNDATASIZE DUP14 GT PUSH2 0x4E5 JUMPI PUSH2 0x4D7 DUP2 DUP4 PUSH2 0x21B6 JUMP JUMPDEST SWAP1 DUP12 PUSH2 0x1511 JUMP JUMPDEST POP DUP3 SWAP1 CALLVALUE PUSH2 0x5DF JUMPI DUP1 PUSH1 0x3 NOT CALLDATASIZE ADD SLT PUSH2 0x5DF JUMPI PUSH2 0x1874 PUSH2 0x2157 JUMP JUMPDEST PUSH1 0x1 PUSH1 0x1 PUSH1 0xA0 SHL SUB AND DUP3 MSTORE PUSH1 0x1 PUSH1 0x20 DUP2 DUP2 MSTORE DUP3 DUP5 KECCAK256 DUP1 SLOAD SWAP2 SWAP5 SWAP2 PUSH1 0x24 CALLDATALOAD SWAP2 SWAP1 DUP3 LT ISZERO PUSH2 0x1A0 JUMPI SWAP1 PUSH2 0x18A4 SWAP2 PUSH2 0x22AF JUMP JUMPDEST SWAP6 SWAP1 SWAP6 PUSH2 0x1961 JUMPI POP DUP3 MLOAD SWAP5 DUP6 SWAP3 DUP3 DUP3 SLOAD SWAP3 PUSH2 0x18BE DUP5 PUSH2 0x22D8 JUMP JUMPDEST SWAP4 DUP5 DUP8 MSTORE DUP9 DUP5 DUP3 AND SWAP2 DUP3 PUSH0 EQ PUSH2 0x1937 JUMPI POP POP PUSH1 0x1 EQ PUSH2 0x18F9 JUMPI JUMPDEST DUP6 DUP9 PUSH2 0x183 DUP10 PUSH2 0x18EA DUP5 DUP11 SUB DUP6 PUSH2 0x21B6 JUMP JUMPDEST MLOAD SWAP3 DUP3 DUP5 SWAP4 DUP5 MSTORE DUP4 ADD SWAP1 PUSH2 0x2331 JUMP JUMPDEST DUP8 SWAP5 POP DUP2 SWAP4 SWAP3 SWAP2 MSTORE DUP4 DUP4 KECCAK256 JUMPDEST DUP3 DUP5 LT PUSH2 0x191F JUMPI POP POP POP DUP3 ADD ADD DUP2 PUSH2 0x18EA PUSH2 0x183 DUP9 PUSH2 0x18D8 JUMP JUMPDEST DUP1 SLOAD DUP5 DUP11 ADD DUP7 ADD MSTORE DUP9 SWAP6 POP DUP8 SWAP5 SWAP1 SWAP4 ADD SWAP3 DUP2 ADD PUSH2 0x1905 JUMP JUMPDEST PUSH1 0xFF NOT AND DUP9 DUP3 ADD MSTORE SWAP5 ISZERO ISZERO PUSH1 0x5 SHL DUP8 ADD SWAP1 SWAP5 ADD SWAP5 POP DUP6 SWAP4 POP PUSH2 0x18EA SWAP3 POP PUSH2 0x183 SWAP2 POP DUP10 SWAP1 POP PUSH2 0x18D8 JUMP JUMPDEST PUSH4 0x4E487B71 PUSH1 0xE0 SHL DUP3 MSTORE DUP2 SWAP1 MSTORE PUSH1 0x24 SWAP1 REVERT JUMPDEST POP CALLVALUE PUSH2 0x1A0 JUMPI PUSH1 0x20 DUP1 PUSH1 0x3 NOT CALLDATASIZE ADD SLT PUSH2 0x903 JUMPI PUSH1 0x1 PUSH1 0x1 PUSH1 0x40 SHL SUB DUP4 CALLDATALOAD DUP2 DUP2 GT PUSH2 0xE62 JUMPI PUSH2 0x19A4 SWAP1 CALLDATASIZE SWAP1 DUP7 ADD PUSH2 0x21D7 JUMP JUMPDEST SWAP4 PUSH1 0x1 DUP1 PUSH1 0xA0 SHL SUB PUSH1 0x3 SLOAD AND DUP5 MLOAD SWAP3 PUSH4 0x7B7FCFED PUSH1 0xE0 SHL DUP5 MSTORE DUP5 DUP4 DUP6 ADD MSTORE PUSH1 0x24 SWAP4 DUP6 DUP2 DUP1 PUSH2 0x19D4 DUP9 DUP3 ADD DUP13 PUSH2 0x2331 JUMP JUMPDEST SUB DUP2 DUP7 GAS STATICCALL SWAP1 DUP2 ISZERO PUSH2 0x4EC JUMPI DUP10 SWAP2 PUSH2 0x1D9C JUMPI JUMPDEST POP ISZERO PUSH2 0x1D5F JUMPI CALLER DUP9 MSTORE DUP8 DUP6 MSTORE DUP3 PUSH2 0x1A00 DUP8 DUP11 KECCAK256 DUP10 PUSH2 0x2356 JUMP JUMPDEST ADD SLOAD PUSH2 0x1D09 JUMPI DUP5 DUP7 MLOAD DUP1 SWAP4 PUSH4 0x1EFB39A9 PUSH1 0xE1 SHL DUP3 MSTORE DUP3 DUP7 DUP4 ADD MSTORE DUP2 DUP1 PUSH2 0x1A28 DUP10 DUP3 ADD DUP14 PUSH2 0x2331 JUMP JUMPDEST SUB SWAP2 GAS STATICCALL SWAP2 DUP3 ISZERO PUSH2 0x14A6 JUMPI DUP9 SWAP3 PUSH2 0x1CEA JUMPI JUMPDEST POP PUSH1 0x1 DUP1 SWAP3 ISZERO ISZERO EQ PUSH2 0x1C67 JUMPI JUMPDEST CALLER DUP9 MSTORE DUP2 DUP6 MSTORE DUP6 DUP9 KECCAK256 DUP1 SLOAD SWAP1 DUP2 ISZERO PUSH2 0x1C0C JUMPI JUMPDEST POP POP CALLER DUP9 MSTORE DUP2 DUP6 MSTORE DUP6 DUP9 KECCAK256 DUP1 SLOAD SWAP1 PUSH1 0x1 PUSH1 0x40 SHL DUP3 LT ISZERO PUSH2 0x1BFA JUMPI SWAP1 PUSH2 0x1A83 SWAP2 DUP5 DUP3 ADD DUP2 SSTORE PUSH2 0x22AF JUMP JUMPDEST SWAP2 SWAP1 SWAP2 PUSH2 0x1BE9 JUMPI DUP8 MLOAD SWAP1 DUP2 GT PUSH2 0x1BD7 JUMPI PUSH2 0x1AA7 DUP2 PUSH2 0x1AA1 DUP5 SLOAD PUSH2 0x22D8 JUMP JUMPDEST DUP5 PUSH2 0x2483 JUMP JUMPDEST DUP1 DUP7 PUSH1 0x1F DUP3 GT PUSH1 0x1 EQ PUSH2 0x1B7A JUMPI DUP11 SWAP2 PUSH2 0x1B6F JUMPI JUMPDEST POP PUSH0 NOT PUSH1 0x3 DUP4 SWAP1 SHL SHR NOT AND SWAP1 DUP4 SHL OR SWAP1 SSTORE JUMPDEST CALLER DUP8 MSTORE DUP4 MSTORE DUP4 DUP7 KECCAK256 SLOAD PUSH0 NOT DUP2 ADD SWAP3 SWAP1 DUP4 GT PUSH2 0x1B5E JUMPI POP SWAP3 DUP6 PUSH1 0x3 SWAP4 PUSH2 0x1B1B SWAP4 PUSH2 0x1B2D SWAP7 CALLER DUP5 MSTORE DUP4 DUP4 MSTORE PUSH2 0x1B02 DUP6 DUP6 KECCAK256 DUP11 PUSH2 0x2356 JUMP JUMPDEST ADD SSTORE CALLER DUP3 MSTORE DUP2 DUP2 MSTORE PUSH2 0x1B21 PUSH1 0x2 PUSH2 0x1B1B DUP6 DUP6 KECCAK256 DUP11 PUSH2 0x2356 JUMP JUMPDEST ADD PUSH2 0x24C8 JUMP JUMPDEST CALLER DUP3 MSTORE MSTORE DUP6 KECCAK256 DUP5 PUSH2 0x2356 JUMP JUMPDEST PUSH2 0x1B37 CALLER SWAP2 PUSH2 0x244D JUMP JUMPDEST PUSH32 0xF038F0D708FC70F18D5815D07A62A3B40D2035DC6AF7429865F612242FF87058 DUP4 DUP1 LOG3 DUP1 RETURN JUMPDEST PUSH4 0x4E487B71 PUSH1 0xE0 SHL DUP8 MSTORE PUSH1 0x11 DUP3 MSTORE DUP7 REVERT JUMPDEST SWAP1 POP DUP9 ADD MLOAD PUSH0 PUSH2 0x1ABB JUMP JUMPDEST DUP4 DUP12 MSTORE DUP8 DUP12 KECCAK256 DUP6 SWAP4 POP SWAP1 PUSH1 0x1F NOT DUP4 AND DUP13 JUMPDEST DUP11 DUP14 DUP4 DUP4 LT PUSH2 0x1BC2 JUMPI POP POP POP DUP4 GT PUSH2 0x1BAA JUMPI JUMPDEST POP POP DUP2 SHL ADD SWAP1 SSTORE PUSH2 0x1ACD JUMP JUMPDEST DUP11 ADD MLOAD PUSH0 NOT PUSH1 0xF8 DUP5 PUSH1 0x3 SHL AND SHR NOT AND SWAP1 SSTORE PUSH0 DUP1 PUSH2 0x1B9E JUMP JUMPDEST DUP5 ADD MLOAD DUP6 SSTORE DUP9 SWAP7 SWAP1 SWAP5 ADD SWAP4 SWAP3 DUP4 ADD SWAP3 ADD PUSH2 0x1B8B JUMP JUMPDEST PUSH4 0x4E487B71 PUSH1 0xE0 SHL DUP10 MSTORE PUSH1 0x41 DUP5 MSTORE DUP5 DUP10 REVERT JUMPDEST PUSH4 0x4E487B71 PUSH1 0xE0 SHL DUP10 MSTORE DUP9 DUP5 MSTORE DUP5 DUP10 REVERT JUMPDEST PUSH4 0x4E487B71 PUSH1 0xE0 SHL DUP11 MSTORE PUSH1 0x41 DUP6 MSTORE DUP6 DUP11 REVERT JUMPDEST PUSH1 0x1 PUSH1 0x40 SHL DUP3 LT ISZERO PUSH2 0x1BFA JUMPI SWAP1 PUSH2 0x1C27 SWAP2 DUP5 DUP3 ADD DUP2 SSTORE PUSH2 0x22AF JUMP JUMPDEST PUSH2 0x1BE9 JUMPI DUP1 PUSH2 0x1C37 PUSH0 SWAP3 SLOAD PUSH2 0x22D8 JUMP JUMPDEST PUSH1 0x1F DUP2 GT PUSH2 0x1C49 JUMPI JUMPDEST POP SSTORE PUSH0 DUP1 PUSH2 0x1A5A JUMP JUMPDEST DUP2 DUP12 MSTORE DUP8 DUP12 KECCAK256 PUSH2 0x1C61 SWAP2 PUSH1 0x1F ADD PUSH1 0x5 SHR DUP2 ADD SWAP1 PUSH2 0x246D JUMP JUMPDEST PUSH0 PUSH2 0x1C40 JUMP JUMPDEST DUP6 MLOAD DUP6 DUP2 DUP2 PUSH2 0x1C7C DUP12 DUP4 DUP2 MLOAD SWAP4 DUP5 SWAP3 ADD PUSH2 0x2310 JUMP JUMPDEST DUP2 ADD DUP7 DUP2 MSTORE SUB ADD SWAP1 KECCAK256 CALLER DUP10 MSTORE DUP6 MSTORE DUP6 DUP9 KECCAK256 SLOAD PUSH1 0xFF AND ISZERO ISZERO DUP3 EQ PUSH2 0x1A47 JUMPI DUP6 MLOAD PUSH3 0x461BCD PUSH1 0xE5 SHL DUP2 MSTORE DUP1 DUP5 ADD DUP7 SWAP1 MSTORE PUSH1 0x26 DUP2 DUP7 ADD MSTORE PUSH32 0x596F7520617265206E6F7420696E766974656420746F207468697320636F6D6D PUSH1 0x44 DUP3 ADD MSTORE PUSH6 0x3AB734BA3C97 PUSH1 0xD1 SHL PUSH1 0x64 DUP3 ADD MSTORE PUSH1 0x84 SWAP1 REVERT JUMPDEST PUSH2 0x1D02 SWAP2 SWAP3 POP DUP6 RETURNDATASIZE DUP8 GT PUSH2 0x420 JUMPI PUSH2 0x412 DUP2 DUP4 PUSH2 0x21B6 JUMP JUMPDEST SWAP1 PUSH0 PUSH2 0x1A3A JUMP JUMPDEST DUP6 MLOAD PUSH3 0x461BCD PUSH1 0xE5 SHL DUP2 MSTORE DUP1 DUP5 ADD DUP7 SWAP1 MSTORE PUSH1 0x2B DUP2 DUP7 ADD MSTORE PUSH32 0x596F752061726520616C72656164792061206D656D626572206F662074686973 PUSH1 0x44 DUP3 ADD MSTORE PUSH11 0x1031B7B6B6BAB734BA3C97 PUSH1 0xA9 SHL PUSH1 0x64 DUP3 ADD MSTORE PUSH1 0x84 SWAP1 REVERT JUMPDEST DUP6 MLOAD PUSH3 0x461BCD PUSH1 0xE5 SHL DUP2 MSTORE DUP1 DUP5 ADD DUP7 SWAP1 MSTORE PUSH1 0x18 DUP2 DUP7 ADD MSTORE PUSH24 0x10DBDB5B5D5B9A5D1E48111BD95CC81B9BDD08115E1A5CDD PUSH1 0x42 SHL PUSH1 0x44 DUP3 ADD MSTORE PUSH1 0x64 SWAP1 REVERT JUMPDEST PUSH2 0x1DB3 SWAP2 POP DUP7 RETURNDATASIZE DUP9 GT PUSH2 0x420 JUMPI PUSH2 0x412 DUP2 DUP4 PUSH2 0x21B6 JUMP JUMPDEST PUSH0 PUSH2 0x19E7 JUMP JUMPDEST POP DUP3 CALLVALUE PUSH2 0x96F JUMPI PUSH2 0x1DC9 CALLDATASIZE PUSH2 0x226E JUMP JUMPDEST SWAP3 PUSH1 0x1 DUP1 PUSH1 0xA0 SHL SUB SWAP4 DUP5 PUSH1 0x3 SLOAD AND SWAP6 DUP3 MLOAD SWAP6 PUSH4 0x7B7FCFED PUSH1 0xE0 SHL DUP8 MSTORE PUSH1 0x20 SWAP3 DUP4 DUP4 DUP10 ADD MSTORE PUSH1 0x24 SWAP8 DUP5 DUP2 DUP1 PUSH2 0x1DFF DUP13 DUP3 ADD DUP12 PUSH2 0x2331 JUMP JUMPDEST SUB DUP2 DUP14 GAS STATICCALL SWAP1 DUP2 ISZERO PUSH2 0x14A6 JUMPI SWAP9 DUP1 SWAP11 PUSH2 0x1123 DUP7 PUSH2 0xB8D DUP11 DUP9 DUP15 SWAP16 SWAP9 DUP15 SWAP16 SWAP15 DUP16 PUSH2 0x680 DUP16 SWAP12 SWAP3 DUP7 DUP4 PUSH2 0x1E41 SWAP16 SWAP5 DUP16 PUSH2 0x1109 PUSH2 0x1114 SWAP9 DUP15 SWAP9 DUP5 SWAP2 PUSH2 0x148F JUMPI POP PUSH2 0x2508 JUMP JUMPDEST SUB SWAP2 GAS STATICCALL SWAP1 DUP2 ISZERO PUSH2 0xD5B JUMPI SWAP1 DUP3 SWAP2 DUP10 SWAP2 PUSH2 0x2071 JUMPI JUMPDEST POP AND PUSH2 0x1423 JUMPI DUP5 DUP8 MSTORE DUP7 DUP4 MSTORE PUSH1 0x1 PUSH2 0x1E70 DUP6 DUP10 KECCAK256 DUP9 PUSH2 0x2356 JUMP JUMPDEST ADD CALLER DUP9 MSTORE DUP4 MSTORE DUP4 DUP8 KECCAK256 SLOAD DUP5 MLOAD PUSH2 0x1E85 DUP2 PUSH2 0x2187 JUMP JUMPDEST PUSH1 0x23 DUP2 MSTORE PUSH32 0x48617665206E6F7420676976656E2061206E6567617469766520637265642079 DUP6 DUP3 ADD MSTORE PUSH3 0x32BA17 PUSH1 0xE9 SHL DUP7 DUP3 ADD MSTORE DUP9 DUP3 SLT ISZERO PUSH2 0x2050 JUMPI POP DUP6 DUP9 MSTORE DUP8 DUP5 MSTORE PUSH2 0x1ED4 DUP6 DUP10 KECCAK256 DUP9 PUSH2 0x2356 JUMP JUMPDEST DUP1 SLOAD SWAP1 PUSH1 0x1 DUP3 ADD SWAP2 DUP11 PUSH1 0x1 DUP5 SLT SWAP2 SLT SWAP1 DUP1 ISZERO DUP3 AND SWAP2 ISZERO AND OR PUSH2 0x203E JUMPI SWAP1 PUSH2 0x1F30 SWAP3 SWAP2 SSTORE DUP7 DUP10 MSTORE DUP9 DUP6 MSTORE PUSH2 0x1F09 DUP7 DUP11 KECCAK256 DUP10 PUSH2 0x2356 JUMP JUMPDEST SLOAD PUSH2 0x1F13 DUP10 PUSH2 0x244D JUMP JUMPDEST DUP8 MLOAD SWAP2 DUP3 MSTORE DUP9 PUSH0 DUP1 MLOAD PUSH1 0x20 PUSH2 0x28FA DUP4 CODECOPY DUP2 MLOAD SWAP2 MSTORE DUP9 TIMESTAMP SWAP5 LOG4 PUSH2 0x27EF JUMP JUMPDEST SWAP2 DUP6 DUP9 MSTORE DUP8 DUP5 MSTORE PUSH1 0x3 PUSH2 0x1F45 DUP7 DUP11 KECCAK256 DUP10 PUSH2 0x2356 JUMP JUMPDEST ADD SWAP3 DUP4 SLOAD SWAP1 DUP10 PUSH0 NOT SWAP5 DUP6 DUP5 ADD SWAP4 DUP5 GT PUSH2 0x13D4 JUMPI DUP4 DUP4 SUB PUSH2 0x1FC0 JUMPI JUMPDEST POP SWAP1 POP DUP8 SWAP2 POP MSTORE DUP8 DUP5 MSTORE PUSH1 0x1 PUSH2 0x1F78 DUP7 DUP11 KECCAK256 DUP10 PUSH2 0x2356 JUMP JUMPDEST ADD CALLER DUP10 MSTORE DUP5 MSTORE DUP8 DUP6 DUP2 KECCAK256 SSTORE DUP3 SLOAD SWAP1 DUP2 ISZERO PUSH2 0x1305 JUMPI POP PUSH32 0xD6D87A1EC8D7320486A7705035A72A09149F3C5E25DCCCB14A1C99EEBC86D6C0 SWAP4 SWAP3 SWAP2 ADD SWAP1 PUSH2 0x12EF PUSH2 0x12DA DUP4 DUP4 PUSH2 0x22AF JUMP JUMPDEST PUSH2 0x1FD1 DUP2 PUSH2 0x1328 PUSH2 0x2001 SWAP7 DUP11 PUSH2 0x22AF JUMP JUMPDEST PUSH1 0x1 PUSH2 0x1FE0 DUP11 PUSH2 0x1368 DUP7 PUSH2 0x27EF JUMP JUMPDEST ADD SWAP1 PUSH2 0x1FEC DUP5 DUP10 PUSH2 0x22AF JUMP JUMPDEST SWAP1 SLOAD SWAP1 PUSH1 0x3 SHL SHR AND DUP13 MSTORE DUP8 MSTORE DUP8 DUP12 KECCAK256 SSTORE PUSH2 0x27EF JUMP JUMPDEST DUP7 PUSH2 0x200B DUP10 PUSH2 0x244D JUMP JUMPDEST DUP8 MLOAD SWAP3 DUP4 MSTORE PUSH32 0xD6FA86004958E4FADC7035E661E86172C72F1EA51E79E8BF8BD3F4103663E8E3 DUP8 CALLER SWAP5 LOG4 DUP10 DUP1 DUP10 DUP2 PUSH2 0x1F60 JUMP JUMPDEST PUSH4 0x4E487B71 PUSH1 0xE0 SHL DUP11 MSTORE PUSH1 0x11 DUP6 MSTORE DUP11 DUP11 REVERT JUMPDEST DUP6 MLOAD PUSH3 0x461BCD PUSH1 0xE5 SHL DUP2 MSTORE DUP1 DUP6 ADD DUP7 SWAP1 MSTORE SWAP1 DUP2 SWAP1 PUSH2 0x1418 SWAP1 DUP3 DUP14 ADD SWAP1 PUSH2 0x2331 JUMP JUMPDEST PUSH2 0x2088 SWAP2 POP DUP6 RETURNDATASIZE DUP8 GT PUSH2 0x4E5 JUMPI PUSH2 0x4D7 DUP2 DUP4 PUSH2 0x21B6 JUMP JUMPDEST DUP11 PUSH2 0x1E56 JUMP JUMPDEST POP SWAP1 CALLVALUE PUSH2 0x1A0 JUMPI PUSH1 0x20 CALLDATASIZE PUSH1 0x3 NOT ADD SLT PUSH2 0x1A0 JUMPI PUSH2 0x20A9 PUSH2 0x2157 JUMP JUMPDEST PUSH1 0x2 SLOAD PUSH1 0x1 PUSH1 0x1 PUSH1 0xA0 SHL SUB SWAP4 SWAP2 SWAP3 SWAP2 SWAP1 DUP5 AND CALLER SUB PUSH2 0x20D7 JUMPI POP POP AND PUSH1 0x1 DUP1 PUSH1 0xA0 SHL SUB NOT PUSH1 0x3 SLOAD AND OR PUSH1 0x3 SSTORE DUP1 RETURN JUMPDEST SWAP1 PUSH1 0x20 PUSH1 0x64 SWAP3 MLOAD SWAP2 PUSH3 0x461BCD PUSH1 0xE5 SHL DUP4 MSTORE DUP3 ADD MSTORE PUSH1 0x16 PUSH1 0x24 DUP3 ADD MSTORE PUSH22 0x2737BA103A34329031B7B73A3930B1BA1037BBB732B9 PUSH1 0x51 SHL PUSH1 0x44 DUP3 ADD MSTORE REVERT JUMPDEST POP SWAP1 CALLVALUE PUSH2 0x1A0 JUMPI PUSH2 0x214B DUP3 PUSH1 0x20 SWAP5 PUSH2 0xA42 SWAP4 PUSH2 0x212E CALLDATASIZE PUSH2 0x222C JUMP JUMPDEST SWAP5 SWAP1 PUSH1 0x1 DUP1 PUSH1 0xA0 SHL SUB AND SWAP2 DUP3 DUP5 MSTORE DUP4 DUP10 MSTORE PUSH2 0x132 DUP6 DUP6 KECCAK256 DUP8 PUSH2 0x2356 JUMP JUMPDEST DUP2 MSTORE DUP1 DUP7 MSTORE KECCAK256 SWAP1 PUSH2 0x2356 JUMP JUMPDEST PUSH1 0x4 CALLDATALOAD SWAP1 PUSH1 0x1 PUSH1 0x1 PUSH1 0xA0 SHL SUB DUP3 AND DUP3 SUB PUSH2 0x216D JUMPI JUMP JUMPDEST PUSH0 DUP1 REVERT JUMPDEST PUSH1 0x24 CALLDATALOAD SWAP1 PUSH1 0x1 PUSH1 0x1 PUSH1 0xA0 SHL SUB DUP3 AND DUP3 SUB PUSH2 0x216D JUMPI JUMP JUMPDEST PUSH1 0x60 DUP2 ADD SWAP1 DUP2 LT PUSH1 0x1 PUSH1 0x1 PUSH1 0x40 SHL SUB DUP3 GT OR PUSH2 0x21A2 JUMPI PUSH1 0x40 MSTORE JUMP JUMPDEST PUSH4 0x4E487B71 PUSH1 0xE0 SHL PUSH0 MSTORE PUSH1 0x41 PUSH1 0x4 MSTORE PUSH1 0x24 PUSH0 REVERT JUMPDEST SWAP1 PUSH1 0x1F DUP1 NOT SWAP2 ADD AND DUP2 ADD SWAP1 DUP2 LT PUSH1 0x1 PUSH1 0x1 PUSH1 0x40 SHL SUB DUP3 GT OR PUSH2 0x21A2 JUMPI PUSH1 0x40 MSTORE JUMP JUMPDEST DUP2 PUSH1 0x1F DUP3 ADD SLT ISZERO PUSH2 0x216D JUMPI DUP1 CALLDATALOAD SWAP1 PUSH1 0x1 PUSH1 0x1 PUSH1 0x40 SHL SUB DUP3 GT PUSH2 0x21A2 JUMPI PUSH1 0x40 MLOAD SWAP3 PUSH2 0x220B PUSH1 0x1F DUP5 ADD PUSH1 0x1F NOT AND PUSH1 0x20 ADD DUP6 PUSH2 0x21B6 JUMP JUMPDEST DUP3 DUP5 MSTORE PUSH1 0x20 DUP4 DUP4 ADD ADD GT PUSH2 0x216D JUMPI DUP2 PUSH0 SWAP3 PUSH1 0x20 DUP1 SWAP4 ADD DUP4 DUP7 ADD CALLDATACOPY DUP4 ADD ADD MSTORE SWAP1 JUMP JUMPDEST SWAP1 PUSH1 0x40 PUSH1 0x3 NOT DUP4 ADD SLT PUSH2 0x216D JUMPI PUSH1 0x4 CALLDATALOAD PUSH1 0x1 PUSH1 0x1 PUSH1 0xA0 SHL SUB DUP2 AND DUP2 SUB PUSH2 0x216D JUMPI SWAP2 PUSH1 0x24 CALLDATALOAD SWAP1 PUSH1 0x1 PUSH1 0x1 PUSH1 0x40 SHL SUB DUP3 GT PUSH2 0x216D JUMPI PUSH2 0x226B SWAP2 PUSH1 0x4 ADD PUSH2 0x21D7 JUMP JUMPDEST SWAP1 JUMP JUMPDEST PUSH1 0x40 PUSH1 0x3 NOT DUP3 ADD SLT PUSH2 0x216D JUMPI PUSH1 0x4 CALLDATALOAD SWAP1 PUSH1 0x1 PUSH1 0x1 PUSH1 0x40 SHL SUB DUP3 GT PUSH2 0x216D JUMPI PUSH2 0x2298 SWAP2 PUSH1 0x4 ADD PUSH2 0x21D7 JUMP JUMPDEST SWAP1 PUSH1 0x24 CALLDATALOAD PUSH1 0x1 PUSH1 0x1 PUSH1 0xA0 SHL SUB DUP2 AND DUP2 SUB PUSH2 0x216D JUMPI SWAP1 JUMP JUMPDEST DUP1 SLOAD DUP3 LT ISZERO PUSH2 0x22C4 JUMPI PUSH0 MSTORE PUSH1 0x20 PUSH0 KECCAK256 ADD SWAP1 PUSH0 SWAP1 JUMP JUMPDEST PUSH4 0x4E487B71 PUSH1 0xE0 SHL PUSH0 MSTORE PUSH1 0x32 PUSH1 0x4 MSTORE PUSH1 0x24 PUSH0 REVERT JUMPDEST SWAP1 PUSH1 0x1 DUP3 DUP2 SHR SWAP3 AND DUP1 ISZERO PUSH2 0x2306 JUMPI JUMPDEST PUSH1 0x20 DUP4 LT EQ PUSH2 0x22F2 JUMPI JUMP JUMPDEST PUSH4 0x4E487B71 PUSH1 0xE0 SHL PUSH0 MSTORE PUSH1 0x22 PUSH1 0x4 MSTORE PUSH1 0x24 PUSH0 REVERT JUMPDEST SWAP2 PUSH1 0x7F AND SWAP2 PUSH2 0x22E7 JUMP JUMPDEST PUSH0 JUMPDEST DUP4 DUP2 LT PUSH2 0x2321 JUMPI POP POP PUSH0 SWAP2 ADD MSTORE JUMP JUMPDEST DUP2 DUP2 ADD MLOAD DUP4 DUP3 ADD MSTORE PUSH1 0x20 ADD PUSH2 0x2312 JUMP JUMPDEST SWAP1 PUSH1 0x20 SWAP2 PUSH2 0x234A DUP2 MLOAD DUP1 SWAP3 DUP2 DUP6 MSTORE DUP6 DUP1 DUP7 ADD SWAP2 ADD PUSH2 0x2310 JUMP JUMPDEST PUSH1 0x1F ADD PUSH1 0x1F NOT AND ADD ADD SWAP1 JUMP JUMPDEST PUSH1 0x20 SWAP1 PUSH2 0x2370 SWAP3 DUP3 PUSH1 0x40 MLOAD SWAP5 DUP4 DUP7 DUP1 SWAP6 MLOAD SWAP4 DUP5 SWAP3 ADD PUSH2 0x2310 JUMP JUMPDEST DUP3 ADD SWAP1 DUP2 MSTORE SUB ADD SWAP1 KECCAK256 SWAP1 JUMP JUMPDEST PUSH1 0x20 SWAP1 DUP2 PUSH1 0x40 DUP2 DUP4 ADD SWAP3 DUP3 DUP2 MSTORE DUP6 MLOAD DUP1 SWAP5 MSTORE ADD SWAP4 ADD SWAP2 PUSH0 JUMPDEST DUP3 DUP2 LT PUSH2 0x23A2 JUMPI POP POP POP POP SWAP1 JUMP JUMPDEST DUP4 MLOAD PUSH1 0x1 PUSH1 0x1 PUSH1 0xA0 SHL SUB AND DUP6 MSTORE SWAP4 DUP2 ADD SWAP4 SWAP3 DUP2 ADD SWAP3 PUSH1 0x1 ADD PUSH2 0x2394 JUMP JUMPDEST SWAP1 DUP2 PUSH1 0x20 SWAP2 SUB SLT PUSH2 0x216D JUMPI MLOAD PUSH1 0x1 PUSH1 0x1 PUSH1 0xA0 SHL SUB DUP2 AND DUP2 SUB PUSH2 0x216D JUMPI SWAP1 JUMP JUMPDEST SWAP1 DUP2 PUSH1 0x20 SWAP2 SUB SLT PUSH2 0x216D JUMPI MLOAD DUP1 ISZERO ISZERO DUP2 SUB PUSH2 0x216D JUMPI SWAP1 JUMP JUMPDEST ISZERO PUSH2 0x23FD JUMPI JUMP JUMPDEST PUSH1 0x40 MLOAD PUSH3 0x461BCD PUSH1 0xE5 SHL DUP2 MSTORE PUSH1 0x20 PUSH1 0x4 DUP3 ADD MSTORE PUSH1 0x22 PUSH1 0x24 DUP3 ADD MSTORE PUSH32 0x5468697320636F6D6D756E697479206973206E6F7420696E76697465206F6E6C PUSH1 0x44 DUP3 ADD MSTORE PUSH2 0x3C97 PUSH1 0xF1 SHL PUSH1 0x64 DUP3 ADD MSTORE PUSH1 0x84 SWAP1 REVERT JUMPDEST PUSH2 0x2465 SWAP1 PUSH1 0x20 PUSH1 0x40 MLOAD SWAP3 DUP3 DUP5 DUP1 SWAP5 MLOAD SWAP4 DUP5 SWAP3 ADD PUSH2 0x2310 JUMP JUMPDEST DUP2 ADD SUB SWAP1 KECCAK256 SWAP1 JUMP JUMPDEST DUP2 DUP2 LT PUSH2 0x2478 JUMPI POP POP JUMP JUMPDEST PUSH0 DUP2 SSTORE PUSH1 0x1 ADD PUSH2 0x246D JUMP JUMPDEST SWAP2 SWAP1 PUSH1 0x1F DUP2 GT PUSH2 0x2492 JUMPI POP POP POP JUMP JUMPDEST PUSH2 0x24BC SWAP3 PUSH0 MSTORE PUSH1 0x20 PUSH0 KECCAK256 SWAP1 PUSH1 0x20 PUSH1 0x1F DUP5 ADD PUSH1 0x5 SHR DUP4 ADD SWAP4 LT PUSH2 0x24BE JUMPI JUMPDEST PUSH1 0x1F ADD PUSH1 0x5 SHR ADD SWAP1 PUSH2 0x246D JUMP JUMPDEST JUMP JUMPDEST SWAP1 SWAP2 POP DUP2 SWAP1 PUSH2 0x24AF JUMP JUMPDEST DUP1 SLOAD PUSH1 0x1 PUSH1 0x40 SHL DUP2 LT ISZERO PUSH2 0x21A2 JUMPI PUSH2 0x12DA SWAP2 PUSH1 0x1 DUP3 ADD DUP2 SSTORE PUSH2 0x22AF JUMP JUMPDEST DUP1 SLOAD SWAP2 SWAP1 PUSH1 0x1 PUSH1 0x40 SHL DUP4 LT ISZERO PUSH2 0x21A2 JUMPI DUP3 PUSH2 0x133A SWAP2 PUSH1 0x1 PUSH2 0x24BC SWAP6 ADD DUP2 SSTORE PUSH2 0x22AF JUMP JUMPDEST ISZERO PUSH2 0x250F JUMPI JUMP JUMPDEST PUSH1 0x40 MLOAD PUSH3 0x461BCD PUSH1 0xE5 SHL DUP2 MSTORE PUSH1 0x20 PUSH1 0x4 DUP3 ADD MSTORE PUSH1 0x18 PUSH1 0x24 DUP3 ADD MSTORE PUSH24 0x10DBDB5B5D5B9A5D1E48111BD95CC8139BDD08115E1A5CDD PUSH1 0x42 SHL PUSH1 0x44 DUP3 ADD MSTORE PUSH1 0x64 SWAP1 REVERT JUMPDEST ISZERO PUSH2 0x2556 JUMPI JUMP JUMPDEST PUSH1 0x40 MLOAD PUSH3 0x461BCD PUSH1 0xE5 SHL DUP2 MSTORE PUSH1 0x20 PUSH1 0x4 DUP3 ADD MSTORE PUSH1 0x27 PUSH1 0x24 DUP3 ADD MSTORE PUSH32 0x596F7520617265206E6F742061206D656D626572206F66207468697320636F6D PUSH1 0x44 DUP3 ADD MSTORE PUSH7 0x36BAB734BA3C97 PUSH1 0xC9 SHL PUSH1 0x64 DUP3 ADD MSTORE PUSH1 0x84 SWAP1 REVERT JUMPDEST SWAP1 DUP1 DUP3 EQ PUSH2 0x2681 JUMPI PUSH2 0x25BD DUP2 SLOAD PUSH2 0x22D8 JUMP JUMPDEST SWAP1 PUSH1 0x1 PUSH1 0x1 PUSH1 0x40 SHL SUB DUP3 GT PUSH2 0x21A2 JUMPI DUP2 SWAP1 PUSH2 0x25E2 DUP3 PUSH2 0x25DC DUP7 SLOAD PUSH2 0x22D8 JUMP JUMPDEST DUP7 PUSH2 0x2483 JUMP JUMPDEST PUSH0 SWAP1 PUSH1 0x1F DUP4 GT PUSH1 0x1 EQ PUSH2 0x2616 JUMPI PUSH0 SWAP3 PUSH2 0x260B JUMPI JUMPDEST POP POP DUP2 PUSH1 0x1 SHL SWAP2 PUSH0 NOT SWAP1 PUSH1 0x3 SHL SHR NOT AND OR SWAP1 SSTORE JUMP JUMPDEST ADD SLOAD SWAP1 POP PUSH0 DUP1 PUSH2 0x25F6 JUMP JUMPDEST DUP2 MSTORE PUSH1 0x20 DUP1 DUP3 KECCAK256 DUP6 DUP4 MSTORE DUP2 DUP4 KECCAK256 SWAP4 POP SWAP1 PUSH1 0x1F NOT DUP6 AND SWAP1 DUP4 SWAP1 JUMPDEST DUP3 DUP3 LT PUSH2 0x2668 JUMPI POP POP SWAP1 DUP5 PUSH1 0x1 SWAP6 SWAP5 SWAP4 SWAP3 LT PUSH2 0x2650 JUMPI JUMPDEST POP POP POP DUP2 SHL ADD SWAP1 SSTORE JUMP JUMPDEST ADD SLOAD PUSH0 NOT PUSH1 0xF8 DUP5 PUSH1 0x3 SHL AND SHR NOT AND SWAP1 SSTORE PUSH0 DUP1 DUP1 PUSH2 0x2646 JUMP JUMPDEST DUP5 SWAP6 DUP2 SWAP3 SWAP6 DUP6 ADD SLOAD DUP2 SSTORE PUSH1 0x1 DUP1 SWAP2 ADD SWAP7 ADD SWAP5 ADD SWAP1 PUSH2 0x262F JUMP JUMPDEST POP POP JUMP JUMPDEST ISZERO PUSH2 0x268C JUMPI JUMP JUMPDEST PUSH1 0x40 MLOAD PUSH3 0x461BCD PUSH1 0xE5 SHL DUP2 MSTORE PUSH1 0x20 PUSH1 0x4 DUP3 ADD MSTORE PUSH1 0x2E PUSH1 0x24 DUP3 ADD MSTORE PUSH32 0x546172676574206D656D62657220646F65736E2774206578697374206F662074 PUSH1 0x44 DUP3 ADD MSTORE PUSH14 0x3434B99031B7B6B6BAB734BA3C97 PUSH1 0x91 SHL PUSH1 0x64 DUP3 ADD MSTORE PUSH1 0x84 SWAP1 REVERT JUMPDEST ISZERO PUSH2 0x26EF JUMPI JUMP JUMPDEST PUSH1 0x40 MLOAD PUSH3 0x461BCD PUSH1 0xE5 SHL DUP2 MSTORE PUSH1 0x20 PUSH1 0x4 DUP3 ADD MSTORE PUSH1 0x1F PUSH1 0x24 DUP3 ADD MSTORE PUSH32 0x596F752063616E6E6F74206564697420796F7572206F776E2063726564732E00 PUSH1 0x44 DUP3 ADD MSTORE PUSH1 0x64 SWAP1 REVERT JUMPDEST ISZERO PUSH2 0x273B JUMPI JUMP JUMPDEST PUSH1 0x40 MLOAD PUSH3 0x461BCD PUSH1 0xE5 SHL DUP2 MSTORE PUSH1 0x20 PUSH1 0x4 DUP3 ADD MSTORE PUSH1 0x26 PUSH1 0x24 DUP3 ADD MSTORE PUSH32 0x436F6D6D6D756E6974792055736573206120637265642061636365737320636F PUSH1 0x44 DUP3 ADD MSTORE PUSH6 0x1B9D1C9858DD PUSH1 0xD2 SHL PUSH1 0x64 DUP3 ADD MSTORE PUSH1 0x84 SWAP1 REVERT JUMPDEST ISZERO PUSH2 0x2796 JUMPI JUMP JUMPDEST PUSH1 0x40 MLOAD PUSH3 0x461BCD PUSH1 0xE5 SHL DUP2 MSTORE PUSH1 0x20 PUSH1 0x4 DUP3 ADD MSTORE PUSH1 0x2B PUSH1 0x24 DUP3 ADD MSTORE PUSH32 0x596F7527766520616C726561647920676976656E2061206372656420746F2074 PUSH1 0x44 DUP3 ADD MSTORE PUSH11 0x3434B99036B2B6B132B917 PUSH1 0xA9 SHL PUSH1 0x64 DUP3 ADD MSTORE PUSH1 0x84 SWAP1 REVERT JUMPDEST SWAP1 DUP2 PUSH0 SUB SWAP2 DUP1 DUP4 SDIV PUSH0 NOT EQ SWAP1 ISZERO OR ISZERO PUSH2 0x2804 JUMPI JUMP JUMPDEST PUSH4 0x4E487B71 PUSH1 0xE0 SHL PUSH0 MSTORE PUSH1 0x11 PUSH1 0x4 MSTORE PUSH1 0x24 PUSH0 REVERT JUMPDEST SWAP1 DUP2 ISZERO PUSH1 0x1 DUP4 DUP1 SDIV EQ OR ISZERO PUSH2 0x2804 JUMPI JUMP JUMPDEST PUSH1 0x1 PUSH1 0x1 PUSH1 0xA0 SHL SUB AND PUSH0 SWAP1 DUP2 MSTORE PUSH1 0x20 DUP2 SWAP1 MSTORE PUSH1 0x40 SWAP1 KECCAK256 PUSH1 0x4 SWAP2 PUSH2 0x284C SWAP2 SWAP1 PUSH2 0x2356 JUMP JUMPDEST ADD SLOAD PUSH2 0x2856 JUMPI PUSH0 SWAP1 JUMP JUMPDEST PUSH1 0x1 SWAP1 JUMP JUMPDEST ISZERO PUSH2 0x2862 JUMPI JUMP JUMPDEST PUSH1 0x40 MLOAD PUSH3 0x461BCD PUSH1 0xE5 SHL DUP2 MSTORE PUSH1 0x20 PUSH1 0x4 DUP3 ADD MSTORE PUSH1 0x28 PUSH1 0x24 DUP3 ADD MSTORE PUSH32 0x4D656D62657220446F6573204E6F7420457869737420466F7220746869732063 PUSH1 0x44 DUP3 ADD MSTORE PUSH8 0x6F6D6D756E697479 PUSH1 0xC0 SHL PUSH1 0x64 DUP3 ADD MSTORE PUSH1 0x84 SWAP1 REVERT JUMPDEST PUSH1 0x1 PUSH1 0x1 PUSH1 0xA0 SHL SUB SWAP1 DUP2 AND PUSH0 SWAP1 DUP2 MSTORE PUSH1 0x20 DUP2 SWAP1 MSTORE PUSH1 0x40 DUP2 KECCAK256 SWAP1 SWAP4 SWAP3 PUSH1 0x1 SWAP2 PUSH2 0x28DF SWAP2 PUSH2 0x2356 JUMP JUMPDEST SWAP2 SWAP1 SWAP3 AND DUP4 MSTORE ADD PUSH1 0x20 MSTORE PUSH1 0x40 DUP2 KECCAK256 SLOAD ISZERO PUSH2 0x226B JUMPI POP PUSH1 0x1 SWAP1 JUMP INVALID NOT JUMP 0xA9 CODECOPY 0xE1 SWAP7 BALANCE 0x27 0xA6 DUP1 0x2B 0xC7 0xDF 0xF8 0xC4 EXTCODEHASH SWAP12 0xC5 MLOAD LOG0 0xBF SWAP8 0xEF 0xC6 GT PUSH17 0x6570E4108402A264697066735822122026 0xD1 0xB3 PUSH0 0xEA 0x2A SWAP7 PUSH21 0xF10577CECB7FC5E906854B072F0CD0CFBC5BBCC548 0x26 0xC4 0xC8 PUSH5 0x736F6C6343 STOP ADDMOD EQ STOP CALLER "},"methodIdentifiers":{"addNegCredsToMember(string,address)":"99d03bf2","addPosCredsToMember(string,address)":"b66fdab4","addSelfAsMember(string)":"5450fdd5","communityContract()":"8e634029","contractSetCred(string,address,int256)":"bf2a3b74","getIsInvited(address,string)":"e636f314","getIsMember(address,string)":"b091c546","getMemberCredIndex(address,address,string)":"9c419dc9","getMemberCreds(address,string)":"02b5df59","getMemberNegCredsList(address,string)":"fbc3d96c","getMemberPosCredsList(address,string)":"f3faf99a","hasMemberGivenCred(address,string,address)":"c783acb4","inviteMember(string,address)":"cdb43ea4","isInvited(string,address)":"a4828578","memberCommunities(address,uint256)":"6255de33","removeNegCredsFromMember(string,address)":"4f64aedd","removePosCredsFromMember(string,address)":"8c5956c4","removeSelfAsMember(string)":"ca4f880b","setlearntgetherCommunities(address)":"19f553e2","uninviteMember(string,address)":"6b039bb4"}}}}}