{"contracts/tgetherCommunityConsensus.sol":{"tgetherCommunityConsensus":{"abi":[{"inputs":[{"internalType":"uint256","name":"_feePrice","type":"uint256"},{"internalType":"address","name":"_communityContractAddress","type":"address"},{"internalType":"uint256","name":"_communityFee","type":"uint256"},{"internalType":"address payable","name":"_feeAddress","type":"address"}],"stateMutability":"nonpayable","type":"constructor"},{"anonymous":false,"inputs":[{"indexed":true,"internalType":"string","name":"communityName","type":"string"},{"indexed":false,"internalType":"uint256","name":"numReviewsForAcceptance","type":"uint256"},{"indexed":false,"internalType":"uint256","name":"credsNeededForReview","type":"uint256"},{"indexed":false,"internalType":"uint256","name":"percentAcceptsNeeded","type":"uint256"},{"indexed":false,"internalType":"uint256","name":"consensusTime","type":"uint256"},{"indexed":false,"internalType":"string[]","name":"consensusTypes","type":"string[]"}],"name":"CCParamCreated","type":"event"},{"anonymous":false,"inputs":[{"indexed":true,"internalType":"uint256","name":"proposalId","type":"uint256"},{"indexed":false,"internalType":"address","name":"proposer","type":"address"},{"indexed":false,"internalType":"uint256","name":"numReviewsForAcceptance","type":"uint256"},{"indexed":false,"internalType":"uint256","name":"credsNeededForReview","type":"uint256"},{"indexed":false,"internalType":"uint256","name":"percentAcceptsNeeded","type":"uint256"},{"indexed":false,"internalType":"uint256","name":"consensusTime","type":"uint256"},{"indexed":false,"internalType":"string[]","name":"consensusTypes","type":"string[]"}],"name":"CCProposalCreated","type":"event"},{"inputs":[{"internalType":"uint256","name":"","type":"uint256"}],"name":"CommunityConsensusProposals","outputs":[{"internalType":"address","name":"proposer","type":"address"},{"internalType":"string","name":"communityName","type":"string"},{"internalType":"uint256","name":"numReviewsForAcceptance","type":"uint256"},{"internalType":"uint256","name":"credsNeededForReview","type":"uint256"},{"internalType":"uint256","name":"percentAcceptsNeeded","type":"uint256"},{"internalType":"uint256","name":"consensusTime","type":"uint256"},{"internalType":"bool","name":"upkeeped","type":"bool"},{"internalType":"bool","name":"passed","type":"bool"}],"stateMutability":"view","type":"function"},{"inputs":[],"name":"CommunityContract","outputs":[{"internalType":"contract tgetherCommuunitiesInterfact","name":"","type":"address"}],"stateMutability":"view","type":"function"},{"inputs":[{"internalType":"string","name":"","type":"string"},{"internalType":"uint256","name":"","type":"uint256"}],"name":"ConsensusProposalArray","outputs":[{"internalType":"uint256","name":"","type":"uint256"}],"stateMutability":"view","type":"function"},{"inputs":[{"internalType":"string","name":"_communityName","type":"string"},{"internalType":"uint256","name":"_numReviewsForAcceptance","type":"uint256"},{"internalType":"uint256","name":"_credsNeededForReview","type":"uint256"},{"internalType":"uint256","name":"_percentAcceptsNeeded","type":"uint256"},{"internalType":"uint256","name":"_consensusTime","type":"uint256"},{"internalType":"string[]","name":"_consensusTypes","type":"string[]"}],"name":"CreateCCProposal","outputs":[{"internalType":"uint256","name":"","type":"uint256"}],"stateMutability":"payable","type":"function"},{"inputs":[],"name":"UpdateTotalFee","outputs":[],"stateMutability":"nonpayable","type":"function"},{"inputs":[{"internalType":"bytes32","name":"_address","type":"bytes32"}],"name":"bytes32ToAddress","outputs":[{"internalType":"address","name":"","type":"address"}],"stateMutability":"pure","type":"function"},{"inputs":[{"components":[{"internalType":"uint256","name":"index","type":"uint256"},{"internalType":"uint256","name":"timestamp","type":"uint256"},{"internalType":"bytes32","name":"txHash","type":"bytes32"},{"internalType":"uint256","name":"blockNumber","type":"uint256"},{"internalType":"bytes32","name":"blockHash","type":"bytes32"},{"internalType":"address","name":"source","type":"address"},{"internalType":"bytes32[]","name":"topics","type":"bytes32[]"},{"internalType":"bytes","name":"data","type":"bytes"}],"internalType":"struct Log","name":"log","type":"tuple"},{"internalType":"bytes","name":"","type":"bytes"}],"name":"checkLog","outputs":[{"internalType":"bool","name":"upkeepNeeded","type":"bool"},{"internalType":"bytes","name":"performData","type":"bytes"}],"stateMutability":"view","type":"function"},{"inputs":[{"internalType":"string","name":"","type":"string"}],"name":"communityConsensus","outputs":[{"internalType":"uint256","name":"numReviewsForAcceptance","type":"uint256"},{"internalType":"uint256","name":"credsNeededForReview","type":"uint256"},{"internalType":"uint256","name":"percentAcceptsNeeded","type":"uint256"},{"internalType":"uint256","name":"consensusTime","type":"uint256"},{"internalType":"bool","name":"isSet","type":"bool"}],"stateMutability":"view","type":"function"},{"inputs":[],"name":"communityFee","outputs":[{"internalType":"uint256","name":"","type":"uint256"}],"stateMutability":"view","type":"function"},{"inputs":[],"name":"fee","outputs":[{"internalType":"uint256","name":"","type":"uint256"}],"stateMutability":"view","type":"function"},{"inputs":[],"name":"feeAddress","outputs":[{"internalType":"address payable","name":"","type":"address"}],"stateMutability":"view","type":"function"},{"inputs":[{"internalType":"string","name":"_communityName","type":"string"}],"name":"getCCParams","outputs":[{"internalType":"uint256","name":"_numReviewsForAcceptance","type":"uint256"},{"internalType":"uint256","name":"_credsNeededForReview","type":"uint256"},{"internalType":"uint256","name":"_percentAcceptsNeeded","type":"uint256"},{"internalType":"uint256","name":"_consensusTime","type":"uint256"},{"internalType":"string[]","name":"_consensusTypes","type":"string[]"},{"internalType":"bool","name":"_isSet","type":"bool"}],"stateMutability":"view","type":"function"},{"inputs":[{"internalType":"string","name":"_communityName","type":"string"}],"name":"getCCParamsExist","outputs":[{"internalType":"bool","name":"_isSet","type":"bool"}],"stateMutability":"view","type":"function"},{"inputs":[{"internalType":"string","name":"_communityName","type":"string"}],"name":"getCommunityConsensousTime","outputs":[{"internalType":"uint256","name":"","type":"uint256"}],"stateMutability":"view","type":"function"},{"inputs":[{"internalType":"string","name":"_communityName","type":"string"}],"name":"getCommunityConsensousTypes","outputs":[{"internalType":"string[]","name":"consensusTypes","type":"string[]"}],"stateMutability":"view","type":"function"},{"inputs":[{"internalType":"string","name":"_communityName","type":"string"}],"name":"getCommunityReviewParams","outputs":[{"internalType":"uint256","name":"numReviewsForAcceptance","type":"uint256"},{"internalType":"uint256","name":"credsNeededForReview","type":"uint256"},{"internalType":"uint256","name":"percentAcceptsNeeded","type":"uint256"}],"stateMutability":"view","type":"function"},{"inputs":[{"internalType":"string","name":"_communityName","type":"string"}],"name":"getConsensusProposalArray","outputs":[{"internalType":"uint256[]","name":"","type":"uint256[]"}],"stateMutability":"view","type":"function"},{"inputs":[],"name":"maxConsensusTime","outputs":[{"internalType":"uint256","name":"","type":"uint256"}],"stateMutability":"view","type":"function"},{"inputs":[{"internalType":"bytes","name":"_performData","type":"bytes"}],"name":"performUpkeep","outputs":[],"stateMutability":"nonpayable","type":"function"},{"inputs":[{"internalType":"string","name":"_communityName","type":"string"},{"internalType":"uint256","name":"_numReviewsForAcceptance","type":"uint256"},{"internalType":"uint256","name":"_credsNeededForReview","type":"uint256"},{"internalType":"uint256","name":"_percentAcceptsNeeded","type":"uint256"},{"internalType":"uint256","name":"_consensusTime","type":"uint256"},{"internalType":"string[]","name":"_consensusTypes","type":"string[]"}],"name":"setCCParams","outputs":[{"internalType":"bool","name":"","type":"bool"}],"stateMutability":"nonpayable","type":"function"},{"inputs":[{"internalType":"uint256","name":"_feePrice","type":"uint256"}],"name":"setFee","outputs":[],"stateMutability":"nonpayable","type":"function"},{"inputs":[{"internalType":"address payable","name":"_feeAddress","type":"address"}],"name":"setFeeAddress","outputs":[],"stateMutability":"nonpayable","type":"function"},{"inputs":[{"internalType":"uint256","name":"_mrt","type":"uint256"}],"name":"setMaxConsensusTime","outputs":[],"stateMutability":"nonpayable","type":"function"},{"inputs":[{"internalType":"address","name":"_contractAddress","type":"address"}],"name":"settgetherCommunityContract","outputs":[],"stateMutability":"nonpayable","type":"function"},{"inputs":[],"name":"totalFee","outputs":[{"internalType":"uint256","name":"","type":"uint256"}],"stateMutability":"view","type":"function"},{"inputs":[],"name":"upkeepId","outputs":[{"internalType":"uint256","name":"","type":"uint256"}],"stateMutability":"view","type":"function"}],"evm":{"bytecode":{"linkReferences":{},"object":"6080346100de57601f6200253038819003918201601f19168301916001600160401b038311848410176100e2578084926080946040528339810103126100de57805160208201519091906001600160a01b0390818116908190036100de57606060408401519301519182168092036100de5760018060a01b0319903082600a541617600a55338260035416176003558160095416176009556008541617600855816004558060065581018091116100ca57600755627864506005556040516124399081620000f78239f35b634e487b7160e01b5f52601160045260245ffd5b5f80fd5b634e487b7160e01b5f52604160045260245ffdfe60806040526004361015610011575f80fd5b5f3560e01c806304189d0b14611faf57806313a292ee14611f815780631df4ccfc14611f645780631e6a248814611ec657806324c9db2f14611e765780632627bc1e14611dfc5780632691798914611d515780632dc5f3d714611c915780633bebe05114611c4657806340691db414611afd5780634127535814611ad55780634585e33b14610f915780634e2413e814610bf85780635ced058e14610bd157806369fe0e2d14610ba35780638705fcd414610b575780638961be6b14610b3a57806394977f7414610ac1578063a804535d14610422578063abb7d06c146102e6578063d1dda68f14610230578063d2aa789f14610213578063dcf862001461019d578063ddca3f4314610180578063f0642315146101585763f6eeda9d14610137575f80fd5b34610154575f366003190112610154576020600554604051908152f35b5f80fd5b34610154575f366003190112610154576009546040516001600160a01b039091168152602090f35b34610154575f366003190112610154576020600454604051908152f35b34610154576020366003190112610154576004356001600160401b038111610154576101fb60046101ec60206101d961020f95369085016121a8565b8160405193828580945193849201612111565b81015f81520301902001612328565b6040519182916020835260208301906122b7565b0390f35b34610154575f366003190112610154576020600b54604051908152f35b34610154575f366003190112610154576004602060018060a01b0361025a816003541633146123be565b600954166040519283809263ced72f8760e01b82525afa9081156102db575f916102aa575b508060065560045490810180911161029657600755005b634e487b7160e01b5f52601160045260245ffd5b90506020813d82116102d3575b816102c46020938361204f565b8101031261015457518161027f565b3d91506102b7565b6040513d5f823e3d90fd5b3461015457602080600319360112610154576004356001600160401b038111610154576103179036906004016121a8565b60405190610416815192848181850195610332818389612111565b81015f8152030190205492600160405186818651610351818388612111565b81015f815203019020015490600260405187818751610371818388612111565b81015f81520301902001546103ef60ff60056103dd8a60036103a082898d604051938492839251928391612111565b81015f81520301902001549660048b836040518092516103c1818388612111565b81015f815203019020019a604051938492839251928391612111565b81015f81520301902001541695612328565b9260405197889788528701526040860152606085015260c0608085015260c08401906122b7565b90151560a08301520390f35b61042b366121dd565b91928195946007543403610a87576009546006546040805163b07bcbc560e01b8152600481019190915298916020918a916001600160a01b031690829081610476604482018e612132565b30602483015203925af19788156102db575f98610a53575b508715610a175787947fc3c31a458b47a6df81fa50913e5e50a8d7903a95b235b5aa6b16fd81c7b05e17946105a892600554809111610a0f575b50865f52600160205260405f209761055160076040519a6104e88c612033565b80546001600160a01b03168c5261050160018201612070565b60208d0152600281015460408d0152600381015460608d0152600481015460808d0152600581015460a08d015260ff60068201548d60c0838316151591015260081c16151560e08d015201612328565b503389528960208a01528460408a01528560608a01528060808a01528160a08a0152826101008a0152604051958695338752602087015260408601526060850152608084015260c060a084015260c08301906122b7565b0390a260085460065434908103916001600160a01b0316908211610296575f80809381935af13d15610a0a573d6105de81612157565b906105ec604051928361204f565b81525f60203d92013e5b156109ce57825f52600160205260405f209060018060a01b0381511660018060a01b031983541617825560208101518051906001600160401b038211610780576106436001850154611ffb565b601f811161099b575b50602090601f831160011461092b576101009392915f9183610920575b50508160011b915f199060031b1c19161760018401555b60408101516002840155606081015160038401556080810151600484015560a08101516005840155600683016106c860c08301511515829060ff801983541691151516179055565b60e0820151815461ff00191690151560081b61ff00161790550151805190600160401b82116107805760078301548260078501558083106108ac575b5060206007910192015f5260205f20915f905b82821061079457856107386020878160405193828580945193849201612111565b8101600281520301902090815491600160401b83101561078057826107649160016020950181556122a2565b81549060031b9083821b915f19901b1916179055604051908152f35b634e487b7160e01b5f52604160045260245ffd5b80518051906001600160401b038211610780576107b18654611ffb565b601f8111610871575b50602090601f83116001146108055792826001949360209386955f926107fa575b50505f19600383901b1c191690841b1787555b01940191019092610717565b015190508b806107db565b90865f5260205f20915f5b601f1985168110610859575083602093600196938796938794601f19811610610841575b505050811b0187556107ee565b01515f1960f88460031b161c191690558b8080610834565b91926020600181928685015181550194019201610810565b61089c90875f5260205f20601f850160051c810191602086106108a2575b601f0160051c0190612312565b886107ba565b909150819061088f565b600784015f5260205f20908382015b81830181106108cb575050610704565b806108d860019254611ffb565b806108e5575b50016108bb565b601f811183146108fa57505f81555b896108de565b5f90828252610917601f60208420920160051c8201858301612312565b818355556108f4565b015190508780610669565b90600185015f5260205f20915f5b601f198516811061098357509183916001936101009695601f1981161061096b575b505050811b016001840155610680565b01515f1960f88460031b161c1916905587808061095b565b91926020600181928685015181550194019201610939565b6109c890600186015f5260205f20601f850160051c810191602086106108a257601f0160051c0190612312565b8661064c565b60405162461bcd60e51b81526020600482015260146024820152732330b4b632b2103a379039b2b7321022ba3432b960611b6044820152606490fd5b6105f6565b90508a6104c8565b60405162461bcd60e51b8152602060048201526014602482015273141c9bdc1bdcd85b081b9bdd0818dc99585d195960621b6044820152606490fd5b9097506020813d602011610a7f575b81610a6f6020938361204f565b810103126101545751968861048e565b3d9150610a62565b60405162461bcd60e51b8152602060048201526012602482015271119959481c1c9a58d9481b9bdd081cd95b9d60721b6044820152606490fd5b34610154576040366003190112610154576004356001600160401b03811161015457610af19036906004016121a8565b610b0d6020602435928160405193828580945193849201612111565b81016002815203019020805482101561015457602091610b2c916122a2565b90546040519160031b1c8152f35b34610154575f366003190112610154576020600654604051908152f35b34610154576020366003190112610154576004356001600160a01b038181169182900361015457610b8d906003541633146123be565b600880546001600160a01b031916919091179055005b3461015457602036600319011261015457610bc960018060a01b036003541633146123be565b600480359055005b34610154576020366003190112610154576040516004356001600160a01b03168152602090f35b3461015457610c06366121dd565b949290809360018060a01b038060095416906020604051809363b3f6702d60e01b82528260048301528180610c3e6024820189612132565b03915afa9182156102db575f92610f54575b5033911603610eff576040519160ff600583519460208181870197610c7681838b612111565b81015f815203019020015416610ea757600554809111610e9d575b50610caa91602091604051938492839251928391612111565b5f9082019081520301902093845560018401556002830155600382015581516004820192600160401b8211610780578354828555808310610e2c575b50602001925f5260205f20925f905b828210610d165760058401600160ff19825416179055602060405160018152f35b80518051906001600160401b03821161078057610d338754611ffb565b90601f91828111610df4575b506020918311600114610d885792826001949360209386955f92610d7d575b50505f19600383901b1c191690841b1788555b01950191019093610cf5565b015190508a80610d5e565b90875f5260205f20915f5b601f1985168110610ddc575083602093600196938796938794601f19811610610dc4575b505050811b018855610d71565b01515f1960f88460031b161c191690558a8080610db7565b91926020600181928685015181550194019201610d93565b610e1d90895f5260205f208480870160051c82019260208810610e23575b0160051c0190612312565b88610d3f565b92508192610e12565b845f528260205f2091820191015b818110610e475750610ce6565b80610e5460019254611ffb565b80610e61575b5001610e3a565b601f908181118414610e795750505f81555b87610e5a565b610e945f9284845260208420920160051c8201858301612312565b81835555610e73565b9450610caa610c91565b60405162461bcd60e51b815260206004820152602a60248201527f436f6d6d756e69747920436f6e73656e73757320506172616d657465727320616044820152691b1c9958591e481cd95d60b21b6064820152608490fd5b60405162461bcd60e51b815260206004820152602760248201527f55736572206973206e6f7420746865206f776e6572206f66207468697320636f6044820152666d6d756e69747960c81b6064820152608490fd5b9091506020813d602011610f89575b81610f706020938361204f565b8101031261015457518181168103610154579089610c50565b3d9150610f63565b34610154576020366003190112610154576004356001600160401b03811161015457366023820112156101545780600401356001600160401b038111610154578101366024820111610154578160209103126101545760248101355f908152600160205260409020546001600160a01b031661100957005b60095460408051630b7b9a0160e31b81526024848101356004830152909283919082906001600160a01b03165afa9081156102db575f905f92611a8d575b501561104f57005b156117075760248101355f526001602052602460405f20916110e160076040519461107986612033565b80546001600160a01b0316865261109260018201612070565b6020870152600281015460408701526003810154606087015260048101546080870152600581015460a087015260ff6006820154818116151560c089015260081c16151560e087015201612328565b610100840152600160c0840152600160e084015201355f52600160205260405f209060018060a01b0381511660018060a01b031983541617825560208101519182516001600160401b0381116107805761113e6001830154611ffb565b601f81116116d4575b506020601f821160011461166a57819293945f9261165f575b50508160011b915f199060031b1c19161760018201555b60408201516002820155606082015160038201556080820151600482015560a08201516005820155600681016111bf60c08401511515829060ff801983541691151516179055565b60e0830151815461ff00191690151560081b61ff0016179055610100820151805190600160401b82116107805760078301548260078501558083106115eb575b5060206007910192015f5260205f20915f905b8282106114de57505050506112396020808301518160405193828580945193849201612111565b81015f81520301902060408201518155606082015160018201556080820151600282015560a08201516003820155610100820151805190600160401b821161078057600483015482600485015580831061146a575b5060200190600483015f5260205f20915f905b82821061135d5750505050600501805460ff81161561134d575b50507f31344930ea150241e9734be108a301e6dff82664e95d744e8d7ab6885674532a6020820151604083015161134860608501519260808601519561131a61010060a083015192015192602060405192828480945193849201612111565b810103902096604051958695865260208601526040850152606084015260a0608084015260a08301906122b7565b0390a2005b60ff1916600117905581806112bb565b80518051906001600160401b0382116107805761137a8654611ffb565b601f811161143a575b50602090601f83116001146113ce5792826001949360209386955f926113c3575b50505f19600383901b1c191690841b1787555b019401910190926112a1565b015190508b806113a4565b90865f5260205f20915f5b601f1985168110611422575083602093600196938796938794601f1981161061140a575b505050811b0187556113b7565b01515f1960f88460031b161c191690558b80806113fd565b919260206001819286850151815501940192016113d9565b61146490875f5260205f20601f850160051c810191602086106108a257601f0160051c0190612312565b88611383565b600484015f5260205f20908382015b818301811061148957505061128e565b8061149660019254611ffb565b806114a3575b5001611479565b601f811183146114b857505f81555b8861149c565b5f908282526114d5601f60208420920160051c8201858301612312565b818355556114b2565b80518051906001600160401b038211610780576114fb8654611ffb565b601f81116115bb575b50602090601f831160011461154f5792826001949360209386955f92611544575b50505f19600383901b1c191690841b1787555b01940191019092611212565b015190508a80611525565b90865f5260205f20915f5b601f19851681106115a3575083602093600196938796938794601f1981161061158b575b505050811b018755611538565b01515f1960f88460031b161c191690558a808061157e565b9192602060018192868501518155019401920161155a565b6115e590875f5260205f20601f850160051c810191602086106108a257601f0160051c0190612312565b87611504565b600784015f5260205f20908382015b818301811061160a5750506111ff565b8061161760019254611ffb565b80611624575b50016115fa565b601f8111831461163957505f81555b8861161d565b5f90828252611656601f60208420920160051c8201858301612312565b81835555611633565b015190508480611160565b600183015f5260205f20905f5b601f19841681106116bc5750600193949583601f198116106116a4575b505050811b016001820155611177565b01515f1960f88460031b161c19169055848080611694565b9091602060018192858a015181550193019101611677565b61170190600184015f5260205f20601f840160051c810191602085106108a257601f0160051c0190612312565b84611147565b60248101355f526001602052602460405f209161172c60076040519461107986612033565b610100840152600160c08401525f60e084015201355f52600160205260405f2060018060a01b0382511660018060a01b031982541617815560208201518051906001600160401b038211610780576117876001840154611ffb565b601f8111611a5a575b50602090601f83116001146119e857918061010094926007945f926119dd575b50508160011b915f199060031b1c19161760018201555b60408401516002820155606084015160038201556080840151600482015560a084015160058201556006810161180f60c08601511515829060ff801983541691151516179055565b60e0850151151561ff0082549160081b169061ff00191617905501910151805190600160401b821161078057825482845580831061196d575b50602001915f5260205f20915f905b82821061186057005b80518051906001600160401b0382116107805761187d8654611ffb565b601f811161193d575b50602090601f83116001146118d15792826001949360209386955f926118c6575b50505f19600383901b1c191690841b1787555b01940191019092611857565b0151905089806118a7565b90865f5260205f20915f5b601f1985168110611925575083602093600196938796938794601f1981161061190d575b505050811b0187556118ba565b01515f1960f88460031b161c19169055898080611900565b919260206001819286850151815501940192016118dc565b61196790875f5260205f20601f850160051c810191602086106108a257601f0160051c0190612312565b86611886565b835f528260205f2091820191015b8181106119885750611848565b8061199560019254611ffb565b806119a2575b500161197b565b601f811183146119b757505f81555b8661199b565b5f908282526119d4601f60208420920160051c8201858301612312565b818355556119b1565b0151905086806117b0565b90600184015f5260205f20915f5b601f1985168110611a42575092610100949260019260079583601f19811610611a2a575b505050811b0160018201556117c7565b01515f1960f88460031b161c19169055868080611a1a565b919260206001819286850151815501940192016119f6565b611a8790600185015f5260205f20601f850160051c810191602086106108a257601f0160051c0190612312565b84611790565b9150506040813d604011611acd575b81611aa96040938361204f565b8101031261015457611ac66020611abf836123b1565b92016123b1565b9083611047565b3d9150611a9c565b34610154575f366003190112610154576008546040516001600160a01b039091168152602090f35b3461015457600319604036820112610154576001600160401b0390600435828111610154576101008160040192823603011261015457602435838111610154573660238201121561015457611b5c903690602481600401359101612172565b5060c45f910191611b6d838261237c565b60019491941015611c3257611b819161237c565b60021015611c3257604001359160018060a01b039081602081600a541692013516149081611c1a575b5080611c00575b611bf8575b6040519160208301526020825260408201928284109084111761078057826040521515825260406060820152603f1990611bf36080820182612132565b030190f35b506001611bb6565b50815f52600160205260ff600660405f2001541615611bb1565b9050825f52600160205260405f205416151584611baa565b634e487b7160e01b5f52603260045260245ffd5b34610154576020366003190112610154576004356001600160401b038111610154576003611c7e60206101d9819436906004016121a8565b81015f8152030190200154604051908152f35b3461015457602080600319360112610154576004356001600160401b03811161015457816101d9611cc69236906004016121a8565b81016002815203019020604051908183825491828152019081925f52845f20905f5b86828210611d3d578686611cfe8288038361204f565b60405192839281840190828552518091526040840192915f5b828110611d2657505050500390f35b835185528695509381019392810192600101611d17565b835485529093019260019283019201611ce8565b346101545760208060031936011261015457600435906001600160401b03821161015457611d8560609236906004016121a8565b90604051916002611de083835195818181870198611da481838c612111565b81015f8152030190205495600160405183818851611dc3818388612111565b81015f815203019020015494604051938492839251928391612111565b81015f8152030190200154916040519384528301526040820152f35b34610154576020366003190112610154576004356001600160401b03811161015457611e3360206101d960a09336906004016121a8565b81015f815203019020805490600181015490600281015460ff60056003840154930154169260405194855260208501526040840152606083015215156080820152f35b34610154576020366003190112610154576004356001600160401b0381116101545760ff6005611eb060206101d9819536906004016121a8565b81015f8152030190200154166040519015158152f35b34610154576020366003190112610154576004355f52600160205260405f2060018060a01b03815416611efb60018301612070565b9160ff60028201549160038101549060048101546006600583015492015492611f3660405198899889526101008060208b0152890190612132565b9560408801526060870152608086015260a0850152818116151560c085015260081c16151560e08301520390f35b34610154575f366003190112610154576020600754604051908152f35b3461015457602036600319011261015457611fa760018060a01b036003541633146123be565b600435600555005b34610154576020366003190112610154576004356001600160a01b038181169182900361015457611fe5906003541633146123be565b600980546001600160a01b031916919091179055005b90600182811c92168015612029575b602083101461201557565b634e487b7160e01b5f52602260045260245ffd5b91607f169161200a565b61012081019081106001600160401b0382111761078057604052565b90601f801991011681019081106001600160401b0382111761078057604052565b9060405191825f82549261208384611ffb565b9081845260019485811690815f146120ee57506001146120ae575b50506120ac9250038361204f565b565b909391505f52602090815f20935f915b8183106120d65750506120ac93508201015f8061209e565b855488840185015294850194879450918301916120be565b9150506120ac94506020925060ff191682840152151560051b8201015f8061209e565b5f5b8381106121225750505f910152565b8181015183820152602001612113565b9060209161214b81518092818552858086019101612111565b601f01601f1916010190565b6001600160401b03811161078057601f01601f191660200190565b92919261217e82612157565b9161218c604051938461204f565b829481845281830111610154578281602093845f960137010152565b9080601f83011215610154578160206121c393359101612172565b90565b6001600160401b0381116107805760051b60200190565b9060c0600319830112610154576001600160401b036004358181116101545783612209916004016121a8565b92602480359360443593606435936084359360a43592808411610154578260238501121561015457836004013561223f816121c6565b9461224d604051968761204f565b818652602094848688019360051b8301019481861161015457808301935b86851061227d57505050505050505090565b8435868111610154578891612297858585948901016121a8565b81520194019361226b565b8054821015611c32575f5260205f2001905f90565b908082519081815260208091019281808460051b8301019501935f915b8483106122e45750505050505090565b9091929394958480612302600193601f198682030187528a51612132565b98019301930191949392906122d4565b81811061231d575050565b5f8155600101612312565b908154612334816121c6565b92612342604051948561204f565b8184525f90815260208082208186015b848410612360575050505050565b600183819261236e85612070565b815201920193019290612352565b903590601e198136030182121561015457018035906001600160401b03821161015457602001918160051b3603831361015457565b5190811515820361015457565b156123c557565b60405162461bcd60e51b81526020600482015260166024820152752737ba103a34329031b7b73a3930b1ba1037bbb732b960511b6044820152606490fdfea2646970667358221220d841b619aaf317b2307b68ae4e4ddf81733e6b584456440e62434a70b474abf964736f6c63430008140033","opcodes":"PUSH1 0x80 CALLVALUE PUSH2 0xDE JUMPI PUSH1 0x1F PUSH3 0x2530 CODESIZE DUP2 SWAP1 SUB SWAP2 DUP3 ADD PUSH1 0x1F NOT AND DUP4 ADD SWAP2 PUSH1 0x1 PUSH1 0x1 PUSH1 0x40 SHL SUB DUP4 GT DUP5 DUP5 LT OR PUSH2 0xE2 JUMPI DUP1 DUP5 SWAP3 PUSH1 0x80 SWAP5 PUSH1 0x40 MSTORE DUP4 CODECOPY DUP2 ADD SUB SLT PUSH2 0xDE JUMPI DUP1 MLOAD PUSH1 0x20 DUP3 ADD MLOAD SWAP1 SWAP2 SWAP1 PUSH1 0x1 PUSH1 0x1 PUSH1 0xA0 SHL SUB SWAP1 DUP2 DUP2 AND SWAP1 DUP2 SWAP1 SUB PUSH2 0xDE JUMPI PUSH1 0x60 PUSH1 0x40 DUP5 ADD MLOAD SWAP4 ADD MLOAD SWAP2 DUP3 AND DUP1 SWAP3 SUB PUSH2 0xDE JUMPI PUSH1 0x1 DUP1 PUSH1 0xA0 SHL SUB NOT SWAP1 ADDRESS DUP3 PUSH1 0xA SLOAD AND OR PUSH1 0xA SSTORE CALLER DUP3 PUSH1 0x3 SLOAD AND OR PUSH1 0x3 SSTORE DUP2 PUSH1 0x9 SLOAD AND OR PUSH1 0x9 SSTORE PUSH1 0x8 SLOAD AND OR PUSH1 0x8 SSTORE DUP2 PUSH1 0x4 SSTORE DUP1 PUSH1 0x6 SSTORE DUP2 ADD DUP1 SWAP2 GT PUSH2 0xCA JUMPI PUSH1 0x7 SSTORE PUSH3 0x786450 PUSH1 0x5 SSTORE PUSH1 0x40 MLOAD PUSH2 0x2439 SWAP1 DUP2 PUSH3 0xF7 DUP3 CODECOPY RETURN JUMPDEST PUSH4 0x4E487B71 PUSH1 0xE0 SHL PUSH0 MSTORE PUSH1 0x11 PUSH1 0x4 MSTORE PUSH1 0x24 PUSH0 REVERT JUMPDEST PUSH0 DUP1 REVERT JUMPDEST PUSH4 0x4E487B71 PUSH1 0xE0 SHL PUSH0 MSTORE PUSH1 0x41 PUSH1 0x4 MSTORE PUSH1 0x24 PUSH0 REVERT INVALID PUSH1 0x80 PUSH1 0x40 MSTORE PUSH1 0x4 CALLDATASIZE LT ISZERO PUSH2 0x11 JUMPI PUSH0 DUP1 REVERT JUMPDEST PUSH0 CALLDATALOAD PUSH1 0xE0 SHR DUP1 PUSH4 0x4189D0B EQ PUSH2 0x1FAF JUMPI DUP1 PUSH4 0x13A292EE EQ PUSH2 0x1F81 JUMPI DUP1 PUSH4 0x1DF4CCFC EQ PUSH2 0x1F64 JUMPI DUP1 PUSH4 0x1E6A2488 EQ PUSH2 0x1EC6 JUMPI DUP1 PUSH4 0x24C9DB2F EQ PUSH2 0x1E76 JUMPI DUP1 PUSH4 0x2627BC1E EQ PUSH2 0x1DFC JUMPI DUP1 PUSH4 0x26917989 EQ PUSH2 0x1D51 JUMPI DUP1 PUSH4 0x2DC5F3D7 EQ PUSH2 0x1C91 JUMPI DUP1 PUSH4 0x3BEBE051 EQ PUSH2 0x1C46 JUMPI DUP1 PUSH4 0x40691DB4 EQ PUSH2 0x1AFD JUMPI DUP1 PUSH4 0x41275358 EQ PUSH2 0x1AD5 JUMPI DUP1 PUSH4 0x4585E33B EQ PUSH2 0xF91 JUMPI DUP1 PUSH4 0x4E2413E8 EQ PUSH2 0xBF8 JUMPI DUP1 PUSH4 0x5CED058E EQ PUSH2 0xBD1 JUMPI DUP1 PUSH4 0x69FE0E2D EQ PUSH2 0xBA3 JUMPI DUP1 PUSH4 0x8705FCD4 EQ PUSH2 0xB57 JUMPI DUP1 PUSH4 0x8961BE6B EQ PUSH2 0xB3A JUMPI DUP1 PUSH4 0x94977F74 EQ PUSH2 0xAC1 JUMPI DUP1 PUSH4 0xA804535D EQ PUSH2 0x422 JUMPI DUP1 PUSH4 0xABB7D06C EQ PUSH2 0x2E6 JUMPI DUP1 PUSH4 0xD1DDA68F EQ PUSH2 0x230 JUMPI DUP1 PUSH4 0xD2AA789F EQ PUSH2 0x213 JUMPI DUP1 PUSH4 0xDCF86200 EQ PUSH2 0x19D JUMPI DUP1 PUSH4 0xDDCA3F43 EQ PUSH2 0x180 JUMPI DUP1 PUSH4 0xF0642315 EQ PUSH2 0x158 JUMPI PUSH4 0xF6EEDA9D EQ PUSH2 0x137 JUMPI PUSH0 DUP1 REVERT JUMPDEST CALLVALUE PUSH2 0x154 JUMPI PUSH0 CALLDATASIZE PUSH1 0x3 NOT ADD SLT PUSH2 0x154 JUMPI PUSH1 0x20 PUSH1 0x5 SLOAD PUSH1 0x40 MLOAD SWAP1 DUP2 MSTORE RETURN JUMPDEST PUSH0 DUP1 REVERT JUMPDEST CALLVALUE PUSH2 0x154 JUMPI PUSH0 CALLDATASIZE PUSH1 0x3 NOT ADD SLT PUSH2 0x154 JUMPI PUSH1 0x9 SLOAD PUSH1 0x40 MLOAD PUSH1 0x1 PUSH1 0x1 PUSH1 0xA0 SHL SUB SWAP1 SWAP2 AND DUP2 MSTORE PUSH1 0x20 SWAP1 RETURN JUMPDEST CALLVALUE PUSH2 0x154 JUMPI PUSH0 CALLDATASIZE PUSH1 0x3 NOT ADD SLT PUSH2 0x154 JUMPI PUSH1 0x20 PUSH1 0x4 SLOAD PUSH1 0x40 MLOAD SWAP1 DUP2 MSTORE RETURN JUMPDEST CALLVALUE PUSH2 0x154 JUMPI PUSH1 0x20 CALLDATASIZE PUSH1 0x3 NOT ADD SLT PUSH2 0x154 JUMPI PUSH1 0x4 CALLDATALOAD PUSH1 0x1 PUSH1 0x1 PUSH1 0x40 SHL SUB DUP2 GT PUSH2 0x154 JUMPI PUSH2 0x1FB PUSH1 0x4 PUSH2 0x1EC PUSH1 0x20 PUSH2 0x1D9 PUSH2 0x20F SWAP6 CALLDATASIZE SWAP1 DUP6 ADD PUSH2 0x21A8 JUMP JUMPDEST DUP2 PUSH1 0x40 MLOAD SWAP4 DUP3 DUP6 DUP1 SWAP5 MLOAD SWAP4 DUP5 SWAP3 ADD PUSH2 0x2111 JUMP JUMPDEST DUP2 ADD PUSH0 DUP2 MSTORE SUB ADD SWAP1 KECCAK256 ADD PUSH2 0x2328 JUMP JUMPDEST PUSH1 0x40 MLOAD SWAP2 DUP3 SWAP2 PUSH1 0x20 DUP4 MSTORE PUSH1 0x20 DUP4 ADD SWAP1 PUSH2 0x22B7 JUMP JUMPDEST SUB SWAP1 RETURN JUMPDEST CALLVALUE PUSH2 0x154 JUMPI PUSH0 CALLDATASIZE PUSH1 0x3 NOT ADD SLT PUSH2 0x154 JUMPI PUSH1 0x20 PUSH1 0xB SLOAD PUSH1 0x40 MLOAD SWAP1 DUP2 MSTORE RETURN JUMPDEST CALLVALUE PUSH2 0x154 JUMPI PUSH0 CALLDATASIZE PUSH1 0x3 NOT ADD SLT PUSH2 0x154 JUMPI PUSH1 0x4 PUSH1 0x20 PUSH1 0x1 DUP1 PUSH1 0xA0 SHL SUB PUSH2 0x25A DUP2 PUSH1 0x3 SLOAD AND CALLER EQ PUSH2 0x23BE JUMP JUMPDEST PUSH1 0x9 SLOAD AND PUSH1 0x40 MLOAD SWAP3 DUP4 DUP1 SWAP3 PUSH4 0xCED72F87 PUSH1 0xE0 SHL DUP3 MSTORE GAS STATICCALL SWAP1 DUP2 ISZERO PUSH2 0x2DB JUMPI PUSH0 SWAP2 PUSH2 0x2AA JUMPI JUMPDEST POP DUP1 PUSH1 0x6 SSTORE PUSH1 0x4 SLOAD SWAP1 DUP2 ADD DUP1 SWAP2 GT PUSH2 0x296 JUMPI PUSH1 0x7 SSTORE STOP JUMPDEST PUSH4 0x4E487B71 PUSH1 0xE0 SHL PUSH0 MSTORE PUSH1 0x11 PUSH1 0x4 MSTORE PUSH1 0x24 PUSH0 REVERT JUMPDEST SWAP1 POP PUSH1 0x20 DUP2 RETURNDATASIZE DUP3 GT PUSH2 0x2D3 JUMPI JUMPDEST DUP2 PUSH2 0x2C4 PUSH1 0x20 SWAP4 DUP4 PUSH2 0x204F JUMP JUMPDEST DUP2 ADD SUB SLT PUSH2 0x154 JUMPI MLOAD DUP2 PUSH2 0x27F JUMP JUMPDEST RETURNDATASIZE SWAP2 POP PUSH2 0x2B7 JUMP JUMPDEST PUSH1 0x40 MLOAD RETURNDATASIZE PUSH0 DUP3 RETURNDATACOPY RETURNDATASIZE SWAP1 REVERT JUMPDEST CALLVALUE PUSH2 0x154 JUMPI PUSH1 0x20 DUP1 PUSH1 0x3 NOT CALLDATASIZE ADD SLT PUSH2 0x154 JUMPI PUSH1 0x4 CALLDATALOAD PUSH1 0x1 PUSH1 0x1 PUSH1 0x40 SHL SUB DUP2 GT PUSH2 0x154 JUMPI PUSH2 0x317 SWAP1 CALLDATASIZE SWAP1 PUSH1 0x4 ADD PUSH2 0x21A8 JUMP JUMPDEST PUSH1 0x40 MLOAD SWAP1 PUSH2 0x416 DUP2 MLOAD SWAP3 DUP5 DUP2 DUP2 DUP6 ADD SWAP6 PUSH2 0x332 DUP2 DUP4 DUP10 PUSH2 0x2111 JUMP JUMPDEST DUP2 ADD PUSH0 DUP2 MSTORE SUB ADD SWAP1 KECCAK256 SLOAD SWAP3 PUSH1 0x1 PUSH1 0x40 MLOAD DUP7 DUP2 DUP7 MLOAD PUSH2 0x351 DUP2 DUP4 DUP9 PUSH2 0x2111 JUMP JUMPDEST DUP2 ADD PUSH0 DUP2 MSTORE SUB ADD SWAP1 KECCAK256 ADD SLOAD SWAP1 PUSH1 0x2 PUSH1 0x40 MLOAD DUP8 DUP2 DUP8 MLOAD PUSH2 0x371 DUP2 DUP4 DUP9 PUSH2 0x2111 JUMP JUMPDEST DUP2 ADD PUSH0 DUP2 MSTORE SUB ADD SWAP1 KECCAK256 ADD SLOAD PUSH2 0x3EF PUSH1 0xFF PUSH1 0x5 PUSH2 0x3DD DUP11 PUSH1 0x3 PUSH2 0x3A0 DUP3 DUP10 DUP14 PUSH1 0x40 MLOAD SWAP4 DUP5 SWAP3 DUP4 SWAP3 MLOAD SWAP3 DUP4 SWAP2 PUSH2 0x2111 JUMP JUMPDEST DUP2 ADD PUSH0 DUP2 MSTORE SUB ADD SWAP1 KECCAK256 ADD SLOAD SWAP7 PUSH1 0x4 DUP12 DUP4 PUSH1 0x40 MLOAD DUP1 SWAP3 MLOAD PUSH2 0x3C1 DUP2 DUP4 DUP9 PUSH2 0x2111 JUMP JUMPDEST DUP2 ADD PUSH0 DUP2 MSTORE SUB ADD SWAP1 KECCAK256 ADD SWAP11 PUSH1 0x40 MLOAD SWAP4 DUP5 SWAP3 DUP4 SWAP3 MLOAD SWAP3 DUP4 SWAP2 PUSH2 0x2111 JUMP JUMPDEST DUP2 ADD PUSH0 DUP2 MSTORE SUB ADD SWAP1 KECCAK256 ADD SLOAD AND SWAP6 PUSH2 0x2328 JUMP JUMPDEST SWAP3 PUSH1 0x40 MLOAD SWAP8 DUP9 SWAP8 DUP9 MSTORE DUP8 ADD MSTORE PUSH1 0x40 DUP7 ADD MSTORE PUSH1 0x60 DUP6 ADD MSTORE PUSH1 0xC0 PUSH1 0x80 DUP6 ADD MSTORE PUSH1 0xC0 DUP5 ADD SWAP1 PUSH2 0x22B7 JUMP JUMPDEST SWAP1 ISZERO ISZERO PUSH1 0xA0 DUP4 ADD MSTORE SUB SWAP1 RETURN JUMPDEST PUSH2 0x42B CALLDATASIZE PUSH2 0x21DD JUMP JUMPDEST SWAP2 SWAP3 DUP2 SWAP6 SWAP5 PUSH1 0x7 SLOAD CALLVALUE SUB PUSH2 0xA87 JUMPI PUSH1 0x9 SLOAD PUSH1 0x6 SLOAD PUSH1 0x40 DUP1 MLOAD PUSH4 0xB07BCBC5 PUSH1 0xE0 SHL DUP2 MSTORE PUSH1 0x4 DUP2 ADD SWAP2 SWAP1 SWAP2 MSTORE SWAP9 SWAP2 PUSH1 0x20 SWAP2 DUP11 SWAP2 PUSH1 0x1 PUSH1 0x1 PUSH1 0xA0 SHL SUB AND SWAP1 DUP3 SWAP1 DUP2 PUSH2 0x476 PUSH1 0x44 DUP3 ADD DUP15 PUSH2 0x2132 JUMP JUMPDEST ADDRESS PUSH1 0x24 DUP4 ADD MSTORE SUB SWAP3 GAS CALL SWAP8 DUP9 ISZERO PUSH2 0x2DB JUMPI PUSH0 SWAP9 PUSH2 0xA53 JUMPI JUMPDEST POP DUP8 ISZERO PUSH2 0xA17 JUMPI DUP8 SWAP5 PUSH32 0xC3C31A458B47A6DF81FA50913E5E50A8D7903A95B235B5AA6B16FD81C7B05E17 SWAP5 PUSH2 0x5A8 SWAP3 PUSH1 0x5 SLOAD DUP1 SWAP2 GT PUSH2 0xA0F JUMPI JUMPDEST POP DUP7 PUSH0 MSTORE PUSH1 0x1 PUSH1 0x20 MSTORE PUSH1 0x40 PUSH0 KECCAK256 SWAP8 PUSH2 0x551 PUSH1 0x7 PUSH1 0x40 MLOAD SWAP11 PUSH2 0x4E8 DUP13 PUSH2 0x2033 JUMP JUMPDEST DUP1 SLOAD PUSH1 0x1 PUSH1 0x1 PUSH1 0xA0 SHL SUB AND DUP13 MSTORE PUSH2 0x501 PUSH1 0x1 DUP3 ADD PUSH2 0x2070 JUMP JUMPDEST PUSH1 0x20 DUP14 ADD MSTORE PUSH1 0x2 DUP2 ADD SLOAD PUSH1 0x40 DUP14 ADD MSTORE PUSH1 0x3 DUP2 ADD SLOAD PUSH1 0x60 DUP14 ADD MSTORE PUSH1 0x4 DUP2 ADD SLOAD PUSH1 0x80 DUP14 ADD MSTORE PUSH1 0x5 DUP2 ADD SLOAD PUSH1 0xA0 DUP14 ADD MSTORE PUSH1 0xFF PUSH1 0x6 DUP3 ADD SLOAD DUP14 PUSH1 0xC0 DUP4 DUP4 AND ISZERO ISZERO SWAP2 ADD MSTORE PUSH1 0x8 SHR AND ISZERO ISZERO PUSH1 0xE0 DUP14 ADD MSTORE ADD PUSH2 0x2328 JUMP JUMPDEST POP CALLER DUP10 MSTORE DUP10 PUSH1 0x20 DUP11 ADD MSTORE DUP5 PUSH1 0x40 DUP11 ADD MSTORE DUP6 PUSH1 0x60 DUP11 ADD MSTORE DUP1 PUSH1 0x80 DUP11 ADD MSTORE DUP2 PUSH1 0xA0 DUP11 ADD MSTORE DUP3 PUSH2 0x100 DUP11 ADD MSTORE PUSH1 0x40 MLOAD SWAP6 DUP7 SWAP6 CALLER DUP8 MSTORE PUSH1 0x20 DUP8 ADD MSTORE PUSH1 0x40 DUP7 ADD MSTORE PUSH1 0x60 DUP6 ADD MSTORE PUSH1 0x80 DUP5 ADD MSTORE PUSH1 0xC0 PUSH1 0xA0 DUP5 ADD MSTORE PUSH1 0xC0 DUP4 ADD SWAP1 PUSH2 0x22B7 JUMP JUMPDEST SUB SWAP1 LOG2 PUSH1 0x8 SLOAD PUSH1 0x6 SLOAD CALLVALUE SWAP1 DUP2 SUB SWAP2 PUSH1 0x1 PUSH1 0x1 PUSH1 0xA0 SHL SUB AND SWAP1 DUP3 GT PUSH2 0x296 JUMPI PUSH0 DUP1 DUP1 SWAP4 DUP2 SWAP4 GAS CALL RETURNDATASIZE ISZERO PUSH2 0xA0A JUMPI RETURNDATASIZE PUSH2 0x5DE DUP2 PUSH2 0x2157 JUMP JUMPDEST SWAP1 PUSH2 0x5EC PUSH1 0x40 MLOAD SWAP3 DUP4 PUSH2 0x204F JUMP JUMPDEST DUP2 MSTORE PUSH0 PUSH1 0x20 RETURNDATASIZE SWAP3 ADD RETURNDATACOPY JUMPDEST ISZERO PUSH2 0x9CE JUMPI DUP3 PUSH0 MSTORE PUSH1 0x1 PUSH1 0x20 MSTORE PUSH1 0x40 PUSH0 KECCAK256 SWAP1 PUSH1 0x1 DUP1 PUSH1 0xA0 SHL SUB DUP2 MLOAD AND PUSH1 0x1 DUP1 PUSH1 0xA0 SHL SUB NOT DUP4 SLOAD AND OR DUP3 SSTORE PUSH1 0x20 DUP2 ADD MLOAD DUP1 MLOAD SWAP1 PUSH1 0x1 PUSH1 0x1 PUSH1 0x40 SHL SUB DUP3 GT PUSH2 0x780 JUMPI PUSH2 0x643 PUSH1 0x1 DUP6 ADD SLOAD PUSH2 0x1FFB JUMP JUMPDEST PUSH1 0x1F DUP2 GT PUSH2 0x99B JUMPI JUMPDEST POP PUSH1 0x20 SWAP1 PUSH1 0x1F DUP4 GT PUSH1 0x1 EQ PUSH2 0x92B JUMPI PUSH2 0x100 SWAP4 SWAP3 SWAP2 PUSH0 SWAP2 DUP4 PUSH2 0x920 JUMPI JUMPDEST POP POP DUP2 PUSH1 0x1 SHL SWAP2 PUSH0 NOT SWAP1 PUSH1 0x3 SHL SHR NOT AND OR PUSH1 0x1 DUP5 ADD SSTORE JUMPDEST PUSH1 0x40 DUP2 ADD MLOAD PUSH1 0x2 DUP5 ADD SSTORE PUSH1 0x60 DUP2 ADD MLOAD PUSH1 0x3 DUP5 ADD SSTORE PUSH1 0x80 DUP2 ADD MLOAD PUSH1 0x4 DUP5 ADD SSTORE PUSH1 0xA0 DUP2 ADD MLOAD PUSH1 0x5 DUP5 ADD SSTORE PUSH1 0x6 DUP4 ADD PUSH2 0x6C8 PUSH1 0xC0 DUP4 ADD MLOAD ISZERO ISZERO DUP3 SWAP1 PUSH1 0xFF DUP1 NOT DUP4 SLOAD AND SWAP2 ISZERO ISZERO AND OR SWAP1 SSTORE JUMP JUMPDEST PUSH1 0xE0 DUP3 ADD MLOAD DUP2 SLOAD PUSH2 0xFF00 NOT AND SWAP1 ISZERO ISZERO PUSH1 0x8 SHL PUSH2 0xFF00 AND OR SWAP1 SSTORE ADD MLOAD DUP1 MLOAD SWAP1 PUSH1 0x1 PUSH1 0x40 SHL DUP3 GT PUSH2 0x780 JUMPI PUSH1 0x7 DUP4 ADD SLOAD DUP3 PUSH1 0x7 DUP6 ADD SSTORE DUP1 DUP4 LT PUSH2 0x8AC JUMPI JUMPDEST POP PUSH1 0x20 PUSH1 0x7 SWAP2 ADD SWAP3 ADD PUSH0 MSTORE PUSH1 0x20 PUSH0 KECCAK256 SWAP2 PUSH0 SWAP1 JUMPDEST DUP3 DUP3 LT PUSH2 0x794 JUMPI DUP6 PUSH2 0x738 PUSH1 0x20 DUP8 DUP2 PUSH1 0x40 MLOAD SWAP4 DUP3 DUP6 DUP1 SWAP5 MLOAD SWAP4 DUP5 SWAP3 ADD PUSH2 0x2111 JUMP JUMPDEST DUP2 ADD PUSH1 0x2 DUP2 MSTORE SUB ADD SWAP1 KECCAK256 SWAP1 DUP2 SLOAD SWAP2 PUSH1 0x1 PUSH1 0x40 SHL DUP4 LT ISZERO PUSH2 0x780 JUMPI DUP3 PUSH2 0x764 SWAP2 PUSH1 0x1 PUSH1 0x20 SWAP6 ADD DUP2 SSTORE PUSH2 0x22A2 JUMP JUMPDEST DUP2 SLOAD SWAP1 PUSH1 0x3 SHL SWAP1 DUP4 DUP3 SHL SWAP2 PUSH0 NOT SWAP1 SHL NOT AND OR SWAP1 SSTORE PUSH1 0x40 MLOAD SWAP1 DUP2 MSTORE RETURN JUMPDEST PUSH4 0x4E487B71 PUSH1 0xE0 SHL PUSH0 MSTORE PUSH1 0x41 PUSH1 0x4 MSTORE PUSH1 0x24 PUSH0 REVERT JUMPDEST DUP1 MLOAD DUP1 MLOAD SWAP1 PUSH1 0x1 PUSH1 0x1 PUSH1 0x40 SHL SUB DUP3 GT PUSH2 0x780 JUMPI PUSH2 0x7B1 DUP7 SLOAD PUSH2 0x1FFB JUMP JUMPDEST PUSH1 0x1F DUP2 GT PUSH2 0x871 JUMPI JUMPDEST POP PUSH1 0x20 SWAP1 PUSH1 0x1F DUP4 GT PUSH1 0x1 EQ PUSH2 0x805 JUMPI SWAP3 DUP3 PUSH1 0x1 SWAP5 SWAP4 PUSH1 0x20 SWAP4 DUP7 SWAP6 PUSH0 SWAP3 PUSH2 0x7FA JUMPI JUMPDEST POP POP PUSH0 NOT PUSH1 0x3 DUP4 SWAP1 SHL SHR NOT AND SWAP1 DUP5 SHL OR DUP8 SSTORE JUMPDEST ADD SWAP5 ADD SWAP2 ADD SWAP1 SWAP3 PUSH2 0x717 JUMP JUMPDEST ADD MLOAD SWAP1 POP DUP12 DUP1 PUSH2 0x7DB JUMP JUMPDEST SWAP1 DUP7 PUSH0 MSTORE PUSH1 0x20 PUSH0 KECCAK256 SWAP2 PUSH0 JUMPDEST PUSH1 0x1F NOT DUP6 AND DUP2 LT PUSH2 0x859 JUMPI POP DUP4 PUSH1 0x20 SWAP4 PUSH1 0x1 SWAP7 SWAP4 DUP8 SWAP7 SWAP4 DUP8 SWAP5 PUSH1 0x1F NOT DUP2 AND LT PUSH2 0x841 JUMPI JUMPDEST POP POP POP DUP2 SHL ADD DUP8 SSTORE PUSH2 0x7EE JUMP JUMPDEST ADD MLOAD PUSH0 NOT PUSH1 0xF8 DUP5 PUSH1 0x3 SHL AND SHR NOT AND SWAP1 SSTORE DUP12 DUP1 DUP1 PUSH2 0x834 JUMP JUMPDEST SWAP2 SWAP3 PUSH1 0x20 PUSH1 0x1 DUP2 SWAP3 DUP7 DUP6 ADD MLOAD DUP2 SSTORE ADD SWAP5 ADD SWAP3 ADD PUSH2 0x810 JUMP JUMPDEST PUSH2 0x89C SWAP1 DUP8 PUSH0 MSTORE PUSH1 0x20 PUSH0 KECCAK256 PUSH1 0x1F DUP6 ADD PUSH1 0x5 SHR DUP2 ADD SWAP2 PUSH1 0x20 DUP7 LT PUSH2 0x8A2 JUMPI JUMPDEST PUSH1 0x1F ADD PUSH1 0x5 SHR ADD SWAP1 PUSH2 0x2312 JUMP JUMPDEST DUP9 PUSH2 0x7BA JUMP JUMPDEST SWAP1 SWAP2 POP DUP2 SWAP1 PUSH2 0x88F JUMP JUMPDEST PUSH1 0x7 DUP5 ADD PUSH0 MSTORE PUSH1 0x20 PUSH0 KECCAK256 SWAP1 DUP4 DUP3 ADD JUMPDEST DUP2 DUP4 ADD DUP2 LT PUSH2 0x8CB JUMPI POP POP PUSH2 0x704 JUMP JUMPDEST DUP1 PUSH2 0x8D8 PUSH1 0x1 SWAP3 SLOAD PUSH2 0x1FFB JUMP JUMPDEST DUP1 PUSH2 0x8E5 JUMPI JUMPDEST POP ADD PUSH2 0x8BB JUMP JUMPDEST PUSH1 0x1F DUP2 GT DUP4 EQ PUSH2 0x8FA JUMPI POP PUSH0 DUP2 SSTORE JUMPDEST DUP10 PUSH2 0x8DE JUMP JUMPDEST PUSH0 SWAP1 DUP3 DUP3 MSTORE PUSH2 0x917 PUSH1 0x1F PUSH1 0x20 DUP5 KECCAK256 SWAP3 ADD PUSH1 0x5 SHR DUP3 ADD DUP6 DUP4 ADD PUSH2 0x2312 JUMP JUMPDEST DUP2 DUP4 SSTORE SSTORE PUSH2 0x8F4 JUMP JUMPDEST ADD MLOAD SWAP1 POP DUP8 DUP1 PUSH2 0x669 JUMP JUMPDEST SWAP1 PUSH1 0x1 DUP6 ADD PUSH0 MSTORE PUSH1 0x20 PUSH0 KECCAK256 SWAP2 PUSH0 JUMPDEST PUSH1 0x1F NOT DUP6 AND DUP2 LT PUSH2 0x983 JUMPI POP SWAP2 DUP4 SWAP2 PUSH1 0x1 SWAP4 PUSH2 0x100 SWAP7 SWAP6 PUSH1 0x1F NOT DUP2 AND LT PUSH2 0x96B JUMPI JUMPDEST POP POP POP DUP2 SHL ADD PUSH1 0x1 DUP5 ADD SSTORE PUSH2 0x680 JUMP JUMPDEST ADD MLOAD PUSH0 NOT PUSH1 0xF8 DUP5 PUSH1 0x3 SHL AND SHR NOT AND SWAP1 SSTORE DUP8 DUP1 DUP1 PUSH2 0x95B JUMP JUMPDEST SWAP2 SWAP3 PUSH1 0x20 PUSH1 0x1 DUP2 SWAP3 DUP7 DUP6 ADD MLOAD DUP2 SSTORE ADD SWAP5 ADD SWAP3 ADD PUSH2 0x939 JUMP JUMPDEST PUSH2 0x9C8 SWAP1 PUSH1 0x1 DUP7 ADD PUSH0 MSTORE PUSH1 0x20 PUSH0 KECCAK256 PUSH1 0x1F DUP6 ADD PUSH1 0x5 SHR DUP2 ADD SWAP2 PUSH1 0x20 DUP7 LT PUSH2 0x8A2 JUMPI PUSH1 0x1F ADD PUSH1 0x5 SHR ADD SWAP1 PUSH2 0x2312 JUMP JUMPDEST DUP7 PUSH2 0x64C JUMP JUMPDEST PUSH1 0x40 MLOAD PUSH3 0x461BCD PUSH1 0xE5 SHL DUP2 MSTORE PUSH1 0x20 PUSH1 0x4 DUP3 ADD MSTORE PUSH1 0x14 PUSH1 0x24 DUP3 ADD MSTORE PUSH20 0x2330B4B632B2103A379039B2B7321022BA3432B9 PUSH1 0x61 SHL PUSH1 0x44 DUP3 ADD MSTORE PUSH1 0x64 SWAP1 REVERT JUMPDEST PUSH2 0x5F6 JUMP JUMPDEST SWAP1 POP DUP11 PUSH2 0x4C8 JUMP JUMPDEST PUSH1 0x40 MLOAD PUSH3 0x461BCD PUSH1 0xE5 SHL DUP2 MSTORE PUSH1 0x20 PUSH1 0x4 DUP3 ADD MSTORE PUSH1 0x14 PUSH1 0x24 DUP3 ADD MSTORE PUSH20 0x141C9BDC1BDCD85B081B9BDD0818DC99585D1959 PUSH1 0x62 SHL PUSH1 0x44 DUP3 ADD MSTORE PUSH1 0x64 SWAP1 REVERT JUMPDEST SWAP1 SWAP8 POP PUSH1 0x20 DUP2 RETURNDATASIZE PUSH1 0x20 GT PUSH2 0xA7F JUMPI JUMPDEST DUP2 PUSH2 0xA6F PUSH1 0x20 SWAP4 DUP4 PUSH2 0x204F JUMP JUMPDEST DUP2 ADD SUB SLT PUSH2 0x154 JUMPI MLOAD SWAP7 DUP9 PUSH2 0x48E JUMP JUMPDEST RETURNDATASIZE SWAP2 POP PUSH2 0xA62 JUMP JUMPDEST PUSH1 0x40 MLOAD PUSH3 0x461BCD PUSH1 0xE5 SHL DUP2 MSTORE PUSH1 0x20 PUSH1 0x4 DUP3 ADD MSTORE PUSH1 0x12 PUSH1 0x24 DUP3 ADD MSTORE PUSH18 0x119959481C1C9A58D9481B9BDD081CD95B9D PUSH1 0x72 SHL PUSH1 0x44 DUP3 ADD MSTORE PUSH1 0x64 SWAP1 REVERT JUMPDEST CALLVALUE PUSH2 0x154 JUMPI PUSH1 0x40 CALLDATASIZE PUSH1 0x3 NOT ADD SLT PUSH2 0x154 JUMPI PUSH1 0x4 CALLDATALOAD PUSH1 0x1 PUSH1 0x1 PUSH1 0x40 SHL SUB DUP2 GT PUSH2 0x154 JUMPI PUSH2 0xAF1 SWAP1 CALLDATASIZE SWAP1 PUSH1 0x4 ADD PUSH2 0x21A8 JUMP JUMPDEST PUSH2 0xB0D PUSH1 0x20 PUSH1 0x24 CALLDATALOAD SWAP3 DUP2 PUSH1 0x40 MLOAD SWAP4 DUP3 DUP6 DUP1 SWAP5 MLOAD SWAP4 DUP5 SWAP3 ADD PUSH2 0x2111 JUMP JUMPDEST DUP2 ADD PUSH1 0x2 DUP2 MSTORE SUB ADD SWAP1 KECCAK256 DUP1 SLOAD DUP3 LT ISZERO PUSH2 0x154 JUMPI PUSH1 0x20 SWAP2 PUSH2 0xB2C SWAP2 PUSH2 0x22A2 JUMP JUMPDEST SWAP1 SLOAD PUSH1 0x40 MLOAD SWAP2 PUSH1 0x3 SHL SHR DUP2 MSTORE RETURN JUMPDEST CALLVALUE PUSH2 0x154 JUMPI PUSH0 CALLDATASIZE PUSH1 0x3 NOT ADD SLT PUSH2 0x154 JUMPI PUSH1 0x20 PUSH1 0x6 SLOAD PUSH1 0x40 MLOAD SWAP1 DUP2 MSTORE RETURN JUMPDEST CALLVALUE PUSH2 0x154 JUMPI PUSH1 0x20 CALLDATASIZE PUSH1 0x3 NOT ADD SLT PUSH2 0x154 JUMPI PUSH1 0x4 CALLDATALOAD PUSH1 0x1 PUSH1 0x1 PUSH1 0xA0 SHL SUB DUP2 DUP2 AND SWAP2 DUP3 SWAP1 SUB PUSH2 0x154 JUMPI PUSH2 0xB8D SWAP1 PUSH1 0x3 SLOAD AND CALLER EQ PUSH2 0x23BE JUMP JUMPDEST PUSH1 0x8 DUP1 SLOAD PUSH1 0x1 PUSH1 0x1 PUSH1 0xA0 SHL SUB NOT AND SWAP2 SWAP1 SWAP2 OR SWAP1 SSTORE STOP JUMPDEST CALLVALUE PUSH2 0x154 JUMPI PUSH1 0x20 CALLDATASIZE PUSH1 0x3 NOT ADD SLT PUSH2 0x154 JUMPI PUSH2 0xBC9 PUSH1 0x1 DUP1 PUSH1 0xA0 SHL SUB PUSH1 0x3 SLOAD AND CALLER EQ PUSH2 0x23BE JUMP JUMPDEST PUSH1 0x4 DUP1 CALLDATALOAD SWAP1 SSTORE STOP JUMPDEST CALLVALUE PUSH2 0x154 JUMPI PUSH1 0x20 CALLDATASIZE PUSH1 0x3 NOT ADD SLT PUSH2 0x154 JUMPI PUSH1 0x40 MLOAD PUSH1 0x4 CALLDATALOAD PUSH1 0x1 PUSH1 0x1 PUSH1 0xA0 SHL SUB AND DUP2 MSTORE PUSH1 0x20 SWAP1 RETURN JUMPDEST CALLVALUE PUSH2 0x154 JUMPI PUSH2 0xC06 CALLDATASIZE PUSH2 0x21DD JUMP JUMPDEST SWAP5 SWAP3 SWAP1 DUP1 SWAP4 PUSH1 0x1 DUP1 PUSH1 0xA0 SHL SUB DUP1 PUSH1 0x9 SLOAD AND SWAP1 PUSH1 0x20 PUSH1 0x40 MLOAD DUP1 SWAP4 PUSH4 0xB3F6702D PUSH1 0xE0 SHL DUP3 MSTORE DUP3 PUSH1 0x4 DUP4 ADD MSTORE DUP2 DUP1 PUSH2 0xC3E PUSH1 0x24 DUP3 ADD DUP10 PUSH2 0x2132 JUMP JUMPDEST SUB SWAP2 GAS STATICCALL SWAP2 DUP3 ISZERO PUSH2 0x2DB JUMPI PUSH0 SWAP3 PUSH2 0xF54 JUMPI JUMPDEST POP CALLER SWAP2 AND SUB PUSH2 0xEFF JUMPI PUSH1 0x40 MLOAD SWAP2 PUSH1 0xFF PUSH1 0x5 DUP4 MLOAD SWAP5 PUSH1 0x20 DUP2 DUP2 DUP8 ADD SWAP8 PUSH2 0xC76 DUP2 DUP4 DUP12 PUSH2 0x2111 JUMP JUMPDEST DUP2 ADD PUSH0 DUP2 MSTORE SUB ADD SWAP1 KECCAK256 ADD SLOAD AND PUSH2 0xEA7 JUMPI PUSH1 0x5 SLOAD DUP1 SWAP2 GT PUSH2 0xE9D JUMPI JUMPDEST POP PUSH2 0xCAA SWAP2 PUSH1 0x20 SWAP2 PUSH1 0x40 MLOAD SWAP4 DUP5 SWAP3 DUP4 SWAP3 MLOAD SWAP3 DUP4 SWAP2 PUSH2 0x2111 JUMP JUMPDEST PUSH0 SWAP1 DUP3 ADD SWAP1 DUP2 MSTORE SUB ADD SWAP1 KECCAK256 SWAP4 DUP5 SSTORE PUSH1 0x1 DUP5 ADD SSTORE PUSH1 0x2 DUP4 ADD SSTORE PUSH1 0x3 DUP3 ADD SSTORE DUP2 MLOAD PUSH1 0x4 DUP3 ADD SWAP3 PUSH1 0x1 PUSH1 0x40 SHL DUP3 GT PUSH2 0x780 JUMPI DUP4 SLOAD DUP3 DUP6 SSTORE DUP1 DUP4 LT PUSH2 0xE2C JUMPI JUMPDEST POP PUSH1 0x20 ADD SWAP3 PUSH0 MSTORE PUSH1 0x20 PUSH0 KECCAK256 SWAP3 PUSH0 SWAP1 JUMPDEST DUP3 DUP3 LT PUSH2 0xD16 JUMPI PUSH1 0x5 DUP5 ADD PUSH1 0x1 PUSH1 0xFF NOT DUP3 SLOAD AND OR SWAP1 SSTORE PUSH1 0x20 PUSH1 0x40 MLOAD PUSH1 0x1 DUP2 MSTORE RETURN JUMPDEST DUP1 MLOAD DUP1 MLOAD SWAP1 PUSH1 0x1 PUSH1 0x1 PUSH1 0x40 SHL SUB DUP3 GT PUSH2 0x780 JUMPI PUSH2 0xD33 DUP8 SLOAD PUSH2 0x1FFB JUMP JUMPDEST SWAP1 PUSH1 0x1F SWAP2 DUP3 DUP2 GT PUSH2 0xDF4 JUMPI JUMPDEST POP PUSH1 0x20 SWAP2 DUP4 GT PUSH1 0x1 EQ PUSH2 0xD88 JUMPI SWAP3 DUP3 PUSH1 0x1 SWAP5 SWAP4 PUSH1 0x20 SWAP4 DUP7 SWAP6 PUSH0 SWAP3 PUSH2 0xD7D JUMPI JUMPDEST POP POP PUSH0 NOT PUSH1 0x3 DUP4 SWAP1 SHL SHR NOT AND SWAP1 DUP5 SHL OR DUP9 SSTORE JUMPDEST ADD SWAP6 ADD SWAP2 ADD SWAP1 SWAP4 PUSH2 0xCF5 JUMP JUMPDEST ADD MLOAD SWAP1 POP DUP11 DUP1 PUSH2 0xD5E JUMP JUMPDEST SWAP1 DUP8 PUSH0 MSTORE PUSH1 0x20 PUSH0 KECCAK256 SWAP2 PUSH0 JUMPDEST PUSH1 0x1F NOT DUP6 AND DUP2 LT PUSH2 0xDDC JUMPI POP DUP4 PUSH1 0x20 SWAP4 PUSH1 0x1 SWAP7 SWAP4 DUP8 SWAP7 SWAP4 DUP8 SWAP5 PUSH1 0x1F NOT DUP2 AND LT PUSH2 0xDC4 JUMPI JUMPDEST POP POP POP DUP2 SHL ADD DUP9 SSTORE PUSH2 0xD71 JUMP JUMPDEST ADD MLOAD PUSH0 NOT PUSH1 0xF8 DUP5 PUSH1 0x3 SHL AND SHR NOT AND SWAP1 SSTORE DUP11 DUP1 DUP1 PUSH2 0xDB7 JUMP JUMPDEST SWAP2 SWAP3 PUSH1 0x20 PUSH1 0x1 DUP2 SWAP3 DUP7 DUP6 ADD MLOAD DUP2 SSTORE ADD SWAP5 ADD SWAP3 ADD PUSH2 0xD93 JUMP JUMPDEST PUSH2 0xE1D SWAP1 DUP10 PUSH0 MSTORE PUSH1 0x20 PUSH0 KECCAK256 DUP5 DUP1 DUP8 ADD PUSH1 0x5 SHR DUP3 ADD SWAP3 PUSH1 0x20 DUP9 LT PUSH2 0xE23 JUMPI JUMPDEST ADD PUSH1 0x5 SHR ADD SWAP1 PUSH2 0x2312 JUMP JUMPDEST DUP9 PUSH2 0xD3F JUMP JUMPDEST SWAP3 POP DUP2 SWAP3 PUSH2 0xE12 JUMP JUMPDEST DUP5 PUSH0 MSTORE DUP3 PUSH1 0x20 PUSH0 KECCAK256 SWAP2 DUP3 ADD SWAP2 ADD JUMPDEST DUP2 DUP2 LT PUSH2 0xE47 JUMPI POP PUSH2 0xCE6 JUMP JUMPDEST DUP1 PUSH2 0xE54 PUSH1 0x1 SWAP3 SLOAD PUSH2 0x1FFB JUMP JUMPDEST DUP1 PUSH2 0xE61 JUMPI JUMPDEST POP ADD PUSH2 0xE3A JUMP JUMPDEST PUSH1 0x1F SWAP1 DUP2 DUP2 GT DUP5 EQ PUSH2 0xE79 JUMPI POP POP PUSH0 DUP2 SSTORE JUMPDEST DUP8 PUSH2 0xE5A JUMP JUMPDEST PUSH2 0xE94 PUSH0 SWAP3 DUP5 DUP5 MSTORE PUSH1 0x20 DUP5 KECCAK256 SWAP3 ADD PUSH1 0x5 SHR DUP3 ADD DUP6 DUP4 ADD PUSH2 0x2312 JUMP JUMPDEST DUP2 DUP4 SSTORE SSTORE PUSH2 0xE73 JUMP JUMPDEST SWAP5 POP PUSH2 0xCAA PUSH2 0xC91 JUMP JUMPDEST PUSH1 0x40 MLOAD PUSH3 0x461BCD PUSH1 0xE5 SHL DUP2 MSTORE PUSH1 0x20 PUSH1 0x4 DUP3 ADD MSTORE PUSH1 0x2A PUSH1 0x24 DUP3 ADD MSTORE PUSH32 0x436F6D6D756E69747920436F6E73656E73757320506172616D65746572732061 PUSH1 0x44 DUP3 ADD MSTORE PUSH10 0x1B1C9958591E481CD95D PUSH1 0xB2 SHL PUSH1 0x64 DUP3 ADD MSTORE PUSH1 0x84 SWAP1 REVERT JUMPDEST PUSH1 0x40 MLOAD PUSH3 0x461BCD PUSH1 0xE5 SHL DUP2 MSTORE PUSH1 0x20 PUSH1 0x4 DUP3 ADD MSTORE PUSH1 0x27 PUSH1 0x24 DUP3 ADD MSTORE PUSH32 0x55736572206973206E6F7420746865206F776E6572206F66207468697320636F PUSH1 0x44 DUP3 ADD MSTORE PUSH7 0x6D6D756E697479 PUSH1 0xC8 SHL PUSH1 0x64 DUP3 ADD MSTORE PUSH1 0x84 SWAP1 REVERT JUMPDEST SWAP1 SWAP2 POP PUSH1 0x20 DUP2 RETURNDATASIZE PUSH1 0x20 GT PUSH2 0xF89 JUMPI JUMPDEST DUP2 PUSH2 0xF70 PUSH1 0x20 SWAP4 DUP4 PUSH2 0x204F JUMP JUMPDEST DUP2 ADD SUB SLT PUSH2 0x154 JUMPI MLOAD DUP2 DUP2 AND DUP2 SUB PUSH2 0x154 JUMPI SWAP1 DUP10 PUSH2 0xC50 JUMP JUMPDEST RETURNDATASIZE SWAP2 POP PUSH2 0xF63 JUMP JUMPDEST CALLVALUE PUSH2 0x154 JUMPI PUSH1 0x20 CALLDATASIZE PUSH1 0x3 NOT ADD SLT PUSH2 0x154 JUMPI PUSH1 0x4 CALLDATALOAD PUSH1 0x1 PUSH1 0x1 PUSH1 0x40 SHL SUB DUP2 GT PUSH2 0x154 JUMPI CALLDATASIZE PUSH1 0x23 DUP3 ADD SLT ISZERO PUSH2 0x154 JUMPI DUP1 PUSH1 0x4 ADD CALLDATALOAD PUSH1 0x1 PUSH1 0x1 PUSH1 0x40 SHL SUB DUP2 GT PUSH2 0x154 JUMPI DUP2 ADD CALLDATASIZE PUSH1 0x24 DUP3 ADD GT PUSH2 0x154 JUMPI DUP2 PUSH1 0x20 SWAP2 SUB SLT PUSH2 0x154 JUMPI PUSH1 0x24 DUP2 ADD CALLDATALOAD PUSH0 SWAP1 DUP2 MSTORE PUSH1 0x1 PUSH1 0x20 MSTORE PUSH1 0x40 SWAP1 KECCAK256 SLOAD PUSH1 0x1 PUSH1 0x1 PUSH1 0xA0 SHL SUB AND PUSH2 0x1009 JUMPI STOP JUMPDEST PUSH1 0x9 SLOAD PUSH1 0x40 DUP1 MLOAD PUSH4 0xB7B9A01 PUSH1 0xE3 SHL DUP2 MSTORE PUSH1 0x24 DUP5 DUP2 ADD CALLDATALOAD PUSH1 0x4 DUP4 ADD MSTORE SWAP1 SWAP3 DUP4 SWAP2 SWAP1 DUP3 SWAP1 PUSH1 0x1 PUSH1 0x1 PUSH1 0xA0 SHL SUB AND GAS STATICCALL SWAP1 DUP2 ISZERO PUSH2 0x2DB JUMPI PUSH0 SWAP1 PUSH0 SWAP3 PUSH2 0x1A8D JUMPI JUMPDEST POP ISZERO PUSH2 0x104F JUMPI STOP JUMPDEST ISZERO PUSH2 0x1707 JUMPI PUSH1 0x24 DUP2 ADD CALLDATALOAD PUSH0 MSTORE PUSH1 0x1 PUSH1 0x20 MSTORE PUSH1 0x24 PUSH1 0x40 PUSH0 KECCAK256 SWAP2 PUSH2 0x10E1 PUSH1 0x7 PUSH1 0x40 MLOAD SWAP5 PUSH2 0x1079 DUP7 PUSH2 0x2033 JUMP JUMPDEST DUP1 SLOAD PUSH1 0x1 PUSH1 0x1 PUSH1 0xA0 SHL SUB AND DUP7 MSTORE PUSH2 0x1092 PUSH1 0x1 DUP3 ADD PUSH2 0x2070 JUMP JUMPDEST PUSH1 0x20 DUP8 ADD MSTORE PUSH1 0x2 DUP2 ADD SLOAD PUSH1 0x40 DUP8 ADD MSTORE PUSH1 0x3 DUP2 ADD SLOAD PUSH1 0x60 DUP8 ADD MSTORE PUSH1 0x4 DUP2 ADD SLOAD PUSH1 0x80 DUP8 ADD MSTORE PUSH1 0x5 DUP2 ADD SLOAD PUSH1 0xA0 DUP8 ADD MSTORE PUSH1 0xFF PUSH1 0x6 DUP3 ADD SLOAD DUP2 DUP2 AND ISZERO ISZERO PUSH1 0xC0 DUP10 ADD MSTORE PUSH1 0x8 SHR AND ISZERO ISZERO PUSH1 0xE0 DUP8 ADD MSTORE ADD PUSH2 0x2328 JUMP JUMPDEST PUSH2 0x100 DUP5 ADD MSTORE PUSH1 0x1 PUSH1 0xC0 DUP5 ADD MSTORE PUSH1 0x1 PUSH1 0xE0 DUP5 ADD MSTORE ADD CALLDATALOAD PUSH0 MSTORE PUSH1 0x1 PUSH1 0x20 MSTORE PUSH1 0x40 PUSH0 KECCAK256 SWAP1 PUSH1 0x1 DUP1 PUSH1 0xA0 SHL SUB DUP2 MLOAD AND PUSH1 0x1 DUP1 PUSH1 0xA0 SHL SUB NOT DUP4 SLOAD AND OR DUP3 SSTORE PUSH1 0x20 DUP2 ADD MLOAD SWAP2 DUP3 MLOAD PUSH1 0x1 PUSH1 0x1 PUSH1 0x40 SHL SUB DUP2 GT PUSH2 0x780 JUMPI PUSH2 0x113E PUSH1 0x1 DUP4 ADD SLOAD PUSH2 0x1FFB JUMP JUMPDEST PUSH1 0x1F DUP2 GT PUSH2 0x16D4 JUMPI JUMPDEST POP PUSH1 0x20 PUSH1 0x1F DUP3 GT PUSH1 0x1 EQ PUSH2 0x166A JUMPI DUP2 SWAP3 SWAP4 SWAP5 PUSH0 SWAP3 PUSH2 0x165F JUMPI JUMPDEST POP POP DUP2 PUSH1 0x1 SHL SWAP2 PUSH0 NOT SWAP1 PUSH1 0x3 SHL SHR NOT AND OR PUSH1 0x1 DUP3 ADD SSTORE JUMPDEST PUSH1 0x40 DUP3 ADD MLOAD PUSH1 0x2 DUP3 ADD SSTORE PUSH1 0x60 DUP3 ADD MLOAD PUSH1 0x3 DUP3 ADD SSTORE PUSH1 0x80 DUP3 ADD MLOAD PUSH1 0x4 DUP3 ADD SSTORE PUSH1 0xA0 DUP3 ADD MLOAD PUSH1 0x5 DUP3 ADD SSTORE PUSH1 0x6 DUP2 ADD PUSH2 0x11BF PUSH1 0xC0 DUP5 ADD MLOAD ISZERO ISZERO DUP3 SWAP1 PUSH1 0xFF DUP1 NOT DUP4 SLOAD AND SWAP2 ISZERO ISZERO AND OR SWAP1 SSTORE JUMP JUMPDEST PUSH1 0xE0 DUP4 ADD MLOAD DUP2 SLOAD PUSH2 0xFF00 NOT AND SWAP1 ISZERO ISZERO PUSH1 0x8 SHL PUSH2 0xFF00 AND OR SWAP1 SSTORE PUSH2 0x100 DUP3 ADD MLOAD DUP1 MLOAD SWAP1 PUSH1 0x1 PUSH1 0x40 SHL DUP3 GT PUSH2 0x780 JUMPI PUSH1 0x7 DUP4 ADD SLOAD DUP3 PUSH1 0x7 DUP6 ADD SSTORE DUP1 DUP4 LT PUSH2 0x15EB JUMPI JUMPDEST POP PUSH1 0x20 PUSH1 0x7 SWAP2 ADD SWAP3 ADD PUSH0 MSTORE PUSH1 0x20 PUSH0 KECCAK256 SWAP2 PUSH0 SWAP1 JUMPDEST DUP3 DUP3 LT PUSH2 0x14DE JUMPI POP POP POP POP PUSH2 0x1239 PUSH1 0x20 DUP1 DUP4 ADD MLOAD DUP2 PUSH1 0x40 MLOAD SWAP4 DUP3 DUP6 DUP1 SWAP5 MLOAD SWAP4 DUP5 SWAP3 ADD PUSH2 0x2111 JUMP JUMPDEST DUP2 ADD PUSH0 DUP2 MSTORE SUB ADD SWAP1 KECCAK256 PUSH1 0x40 DUP3 ADD MLOAD DUP2 SSTORE PUSH1 0x60 DUP3 ADD MLOAD PUSH1 0x1 DUP3 ADD SSTORE PUSH1 0x80 DUP3 ADD MLOAD PUSH1 0x2 DUP3 ADD SSTORE PUSH1 0xA0 DUP3 ADD MLOAD PUSH1 0x3 DUP3 ADD SSTORE PUSH2 0x100 DUP3 ADD MLOAD DUP1 MLOAD SWAP1 PUSH1 0x1 PUSH1 0x40 SHL DUP3 GT PUSH2 0x780 JUMPI PUSH1 0x4 DUP4 ADD SLOAD DUP3 PUSH1 0x4 DUP6 ADD SSTORE DUP1 DUP4 LT PUSH2 0x146A JUMPI JUMPDEST POP PUSH1 0x20 ADD SWAP1 PUSH1 0x4 DUP4 ADD PUSH0 MSTORE PUSH1 0x20 PUSH0 KECCAK256 SWAP2 PUSH0 SWAP1 JUMPDEST DUP3 DUP3 LT PUSH2 0x135D JUMPI POP POP POP POP PUSH1 0x5 ADD DUP1 SLOAD PUSH1 0xFF DUP2 AND ISZERO PUSH2 0x134D JUMPI JUMPDEST POP POP PUSH32 0x31344930EA150241E9734BE108A301E6DFF82664E95D744E8D7AB6885674532A PUSH1 0x20 DUP3 ADD MLOAD PUSH1 0x40 DUP4 ADD MLOAD PUSH2 0x1348 PUSH1 0x60 DUP6 ADD MLOAD SWAP3 PUSH1 0x80 DUP7 ADD MLOAD SWAP6 PUSH2 0x131A PUSH2 0x100 PUSH1 0xA0 DUP4 ADD MLOAD SWAP3 ADD MLOAD SWAP3 PUSH1 0x20 PUSH1 0x40 MLOAD SWAP3 DUP3 DUP5 DUP1 SWAP5 MLOAD SWAP4 DUP5 SWAP3 ADD PUSH2 0x2111 JUMP JUMPDEST DUP2 ADD SUB SWAP1 KECCAK256 SWAP7 PUSH1 0x40 MLOAD SWAP6 DUP7 SWAP6 DUP7 MSTORE PUSH1 0x20 DUP7 ADD MSTORE PUSH1 0x40 DUP6 ADD MSTORE PUSH1 0x60 DUP5 ADD MSTORE PUSH1 0xA0 PUSH1 0x80 DUP5 ADD MSTORE PUSH1 0xA0 DUP4 ADD SWAP1 PUSH2 0x22B7 JUMP JUMPDEST SUB SWAP1 LOG2 STOP JUMPDEST PUSH1 0xFF NOT AND PUSH1 0x1 OR SWAP1 SSTORE DUP2 DUP1 PUSH2 0x12BB JUMP JUMPDEST DUP1 MLOAD DUP1 MLOAD SWAP1 PUSH1 0x1 PUSH1 0x1 PUSH1 0x40 SHL SUB DUP3 GT PUSH2 0x780 JUMPI PUSH2 0x137A DUP7 SLOAD PUSH2 0x1FFB JUMP JUMPDEST PUSH1 0x1F DUP2 GT PUSH2 0x143A JUMPI JUMPDEST POP PUSH1 0x20 SWAP1 PUSH1 0x1F DUP4 GT PUSH1 0x1 EQ PUSH2 0x13CE JUMPI SWAP3 DUP3 PUSH1 0x1 SWAP5 SWAP4 PUSH1 0x20 SWAP4 DUP7 SWAP6 PUSH0 SWAP3 PUSH2 0x13C3 JUMPI JUMPDEST POP POP PUSH0 NOT PUSH1 0x3 DUP4 SWAP1 SHL SHR NOT AND SWAP1 DUP5 SHL OR DUP8 SSTORE JUMPDEST ADD SWAP5 ADD SWAP2 ADD SWAP1 SWAP3 PUSH2 0x12A1 JUMP JUMPDEST ADD MLOAD SWAP1 POP DUP12 DUP1 PUSH2 0x13A4 JUMP JUMPDEST SWAP1 DUP7 PUSH0 MSTORE PUSH1 0x20 PUSH0 KECCAK256 SWAP2 PUSH0 JUMPDEST PUSH1 0x1F NOT DUP6 AND DUP2 LT PUSH2 0x1422 JUMPI POP DUP4 PUSH1 0x20 SWAP4 PUSH1 0x1 SWAP7 SWAP4 DUP8 SWAP7 SWAP4 DUP8 SWAP5 PUSH1 0x1F NOT DUP2 AND LT PUSH2 0x140A JUMPI JUMPDEST POP POP POP DUP2 SHL ADD DUP8 SSTORE PUSH2 0x13B7 JUMP JUMPDEST ADD MLOAD PUSH0 NOT PUSH1 0xF8 DUP5 PUSH1 0x3 SHL AND SHR NOT AND SWAP1 SSTORE DUP12 DUP1 DUP1 PUSH2 0x13FD JUMP JUMPDEST SWAP2 SWAP3 PUSH1 0x20 PUSH1 0x1 DUP2 SWAP3 DUP7 DUP6 ADD MLOAD DUP2 SSTORE ADD SWAP5 ADD SWAP3 ADD PUSH2 0x13D9 JUMP JUMPDEST PUSH2 0x1464 SWAP1 DUP8 PUSH0 MSTORE PUSH1 0x20 PUSH0 KECCAK256 PUSH1 0x1F DUP6 ADD PUSH1 0x5 SHR DUP2 ADD SWAP2 PUSH1 0x20 DUP7 LT PUSH2 0x8A2 JUMPI PUSH1 0x1F ADD PUSH1 0x5 SHR ADD SWAP1 PUSH2 0x2312 JUMP JUMPDEST DUP9 PUSH2 0x1383 JUMP JUMPDEST PUSH1 0x4 DUP5 ADD PUSH0 MSTORE PUSH1 0x20 PUSH0 KECCAK256 SWAP1 DUP4 DUP3 ADD JUMPDEST DUP2 DUP4 ADD DUP2 LT PUSH2 0x1489 JUMPI POP POP PUSH2 0x128E JUMP JUMPDEST DUP1 PUSH2 0x1496 PUSH1 0x1 SWAP3 SLOAD PUSH2 0x1FFB JUMP JUMPDEST DUP1 PUSH2 0x14A3 JUMPI JUMPDEST POP ADD PUSH2 0x1479 JUMP JUMPDEST PUSH1 0x1F DUP2 GT DUP4 EQ PUSH2 0x14B8 JUMPI POP PUSH0 DUP2 SSTORE JUMPDEST DUP9 PUSH2 0x149C JUMP JUMPDEST PUSH0 SWAP1 DUP3 DUP3 MSTORE PUSH2 0x14D5 PUSH1 0x1F PUSH1 0x20 DUP5 KECCAK256 SWAP3 ADD PUSH1 0x5 SHR DUP3 ADD DUP6 DUP4 ADD PUSH2 0x2312 JUMP JUMPDEST DUP2 DUP4 SSTORE SSTORE PUSH2 0x14B2 JUMP JUMPDEST DUP1 MLOAD DUP1 MLOAD SWAP1 PUSH1 0x1 PUSH1 0x1 PUSH1 0x40 SHL SUB DUP3 GT PUSH2 0x780 JUMPI PUSH2 0x14FB DUP7 SLOAD PUSH2 0x1FFB JUMP JUMPDEST PUSH1 0x1F DUP2 GT PUSH2 0x15BB JUMPI JUMPDEST POP PUSH1 0x20 SWAP1 PUSH1 0x1F DUP4 GT PUSH1 0x1 EQ PUSH2 0x154F JUMPI SWAP3 DUP3 PUSH1 0x1 SWAP5 SWAP4 PUSH1 0x20 SWAP4 DUP7 SWAP6 PUSH0 SWAP3 PUSH2 0x1544 JUMPI JUMPDEST POP POP PUSH0 NOT PUSH1 0x3 DUP4 SWAP1 SHL SHR NOT AND SWAP1 DUP5 SHL OR DUP8 SSTORE JUMPDEST ADD SWAP5 ADD SWAP2 ADD SWAP1 SWAP3 PUSH2 0x1212 JUMP JUMPDEST ADD MLOAD SWAP1 POP DUP11 DUP1 PUSH2 0x1525 JUMP JUMPDEST SWAP1 DUP7 PUSH0 MSTORE PUSH1 0x20 PUSH0 KECCAK256 SWAP2 PUSH0 JUMPDEST PUSH1 0x1F NOT DUP6 AND DUP2 LT PUSH2 0x15A3 JUMPI POP DUP4 PUSH1 0x20 SWAP4 PUSH1 0x1 SWAP7 SWAP4 DUP8 SWAP7 SWAP4 DUP8 SWAP5 PUSH1 0x1F NOT DUP2 AND LT PUSH2 0x158B JUMPI JUMPDEST POP POP POP DUP2 SHL ADD DUP8 SSTORE PUSH2 0x1538 JUMP JUMPDEST ADD MLOAD PUSH0 NOT PUSH1 0xF8 DUP5 PUSH1 0x3 SHL AND SHR NOT AND SWAP1 SSTORE DUP11 DUP1 DUP1 PUSH2 0x157E JUMP JUMPDEST SWAP2 SWAP3 PUSH1 0x20 PUSH1 0x1 DUP2 SWAP3 DUP7 DUP6 ADD MLOAD DUP2 SSTORE ADD SWAP5 ADD SWAP3 ADD PUSH2 0x155A JUMP JUMPDEST PUSH2 0x15E5 SWAP1 DUP8 PUSH0 MSTORE PUSH1 0x20 PUSH0 KECCAK256 PUSH1 0x1F DUP6 ADD PUSH1 0x5 SHR DUP2 ADD SWAP2 PUSH1 0x20 DUP7 LT PUSH2 0x8A2 JUMPI PUSH1 0x1F ADD PUSH1 0x5 SHR ADD SWAP1 PUSH2 0x2312 JUMP JUMPDEST DUP8 PUSH2 0x1504 JUMP JUMPDEST PUSH1 0x7 DUP5 ADD PUSH0 MSTORE PUSH1 0x20 PUSH0 KECCAK256 SWAP1 DUP4 DUP3 ADD JUMPDEST DUP2 DUP4 ADD DUP2 LT PUSH2 0x160A JUMPI POP POP PUSH2 0x11FF JUMP JUMPDEST DUP1 PUSH2 0x1617 PUSH1 0x1 SWAP3 SLOAD PUSH2 0x1FFB JUMP JUMPDEST DUP1 PUSH2 0x1624 JUMPI JUMPDEST POP ADD PUSH2 0x15FA JUMP JUMPDEST PUSH1 0x1F DUP2 GT DUP4 EQ PUSH2 0x1639 JUMPI POP PUSH0 DUP2 SSTORE JUMPDEST DUP9 PUSH2 0x161D JUMP JUMPDEST PUSH0 SWAP1 DUP3 DUP3 MSTORE PUSH2 0x1656 PUSH1 0x1F PUSH1 0x20 DUP5 KECCAK256 SWAP3 ADD PUSH1 0x5 SHR DUP3 ADD DUP6 DUP4 ADD PUSH2 0x2312 JUMP JUMPDEST DUP2 DUP4 SSTORE SSTORE PUSH2 0x1633 JUMP JUMPDEST ADD MLOAD SWAP1 POP DUP5 DUP1 PUSH2 0x1160 JUMP JUMPDEST PUSH1 0x1 DUP4 ADD PUSH0 MSTORE PUSH1 0x20 PUSH0 KECCAK256 SWAP1 PUSH0 JUMPDEST PUSH1 0x1F NOT DUP5 AND DUP2 LT PUSH2 0x16BC JUMPI POP PUSH1 0x1 SWAP4 SWAP5 SWAP6 DUP4 PUSH1 0x1F NOT DUP2 AND LT PUSH2 0x16A4 JUMPI JUMPDEST POP POP POP DUP2 SHL ADD PUSH1 0x1 DUP3 ADD SSTORE PUSH2 0x1177 JUMP JUMPDEST ADD MLOAD PUSH0 NOT PUSH1 0xF8 DUP5 PUSH1 0x3 SHL AND SHR NOT AND SWAP1 SSTORE DUP5 DUP1 DUP1 PUSH2 0x1694 JUMP JUMPDEST SWAP1 SWAP2 PUSH1 0x20 PUSH1 0x1 DUP2 SWAP3 DUP6 DUP11 ADD MLOAD DUP2 SSTORE ADD SWAP4 ADD SWAP2 ADD PUSH2 0x1677 JUMP JUMPDEST PUSH2 0x1701 SWAP1 PUSH1 0x1 DUP5 ADD PUSH0 MSTORE PUSH1 0x20 PUSH0 KECCAK256 PUSH1 0x1F DUP5 ADD PUSH1 0x5 SHR DUP2 ADD SWAP2 PUSH1 0x20 DUP6 LT PUSH2 0x8A2 JUMPI PUSH1 0x1F ADD PUSH1 0x5 SHR ADD SWAP1 PUSH2 0x2312 JUMP JUMPDEST DUP5 PUSH2 0x1147 JUMP JUMPDEST PUSH1 0x24 DUP2 ADD CALLDATALOAD PUSH0 MSTORE PUSH1 0x1 PUSH1 0x20 MSTORE PUSH1 0x24 PUSH1 0x40 PUSH0 KECCAK256 SWAP2 PUSH2 0x172C PUSH1 0x7 PUSH1 0x40 MLOAD SWAP5 PUSH2 0x1079 DUP7 PUSH2 0x2033 JUMP JUMPDEST PUSH2 0x100 DUP5 ADD MSTORE PUSH1 0x1 PUSH1 0xC0 DUP5 ADD MSTORE PUSH0 PUSH1 0xE0 DUP5 ADD MSTORE ADD CALLDATALOAD PUSH0 MSTORE PUSH1 0x1 PUSH1 0x20 MSTORE PUSH1 0x40 PUSH0 KECCAK256 PUSH1 0x1 DUP1 PUSH1 0xA0 SHL SUB DUP3 MLOAD AND PUSH1 0x1 DUP1 PUSH1 0xA0 SHL SUB NOT DUP3 SLOAD AND OR DUP2 SSTORE PUSH1 0x20 DUP3 ADD MLOAD DUP1 MLOAD SWAP1 PUSH1 0x1 PUSH1 0x1 PUSH1 0x40 SHL SUB DUP3 GT PUSH2 0x780 JUMPI PUSH2 0x1787 PUSH1 0x1 DUP5 ADD SLOAD PUSH2 0x1FFB JUMP JUMPDEST PUSH1 0x1F DUP2 GT PUSH2 0x1A5A JUMPI JUMPDEST POP PUSH1 0x20 SWAP1 PUSH1 0x1F DUP4 GT PUSH1 0x1 EQ PUSH2 0x19E8 JUMPI SWAP2 DUP1 PUSH2 0x100 SWAP5 SWAP3 PUSH1 0x7 SWAP5 PUSH0 SWAP3 PUSH2 0x19DD JUMPI JUMPDEST POP POP DUP2 PUSH1 0x1 SHL SWAP2 PUSH0 NOT SWAP1 PUSH1 0x3 SHL SHR NOT AND OR PUSH1 0x1 DUP3 ADD SSTORE JUMPDEST PUSH1 0x40 DUP5 ADD MLOAD PUSH1 0x2 DUP3 ADD SSTORE PUSH1 0x60 DUP5 ADD MLOAD PUSH1 0x3 DUP3 ADD SSTORE PUSH1 0x80 DUP5 ADD MLOAD PUSH1 0x4 DUP3 ADD SSTORE PUSH1 0xA0 DUP5 ADD MLOAD PUSH1 0x5 DUP3 ADD SSTORE PUSH1 0x6 DUP2 ADD PUSH2 0x180F PUSH1 0xC0 DUP7 ADD MLOAD ISZERO ISZERO DUP3 SWAP1 PUSH1 0xFF DUP1 NOT DUP4 SLOAD AND SWAP2 ISZERO ISZERO AND OR SWAP1 SSTORE JUMP JUMPDEST PUSH1 0xE0 DUP6 ADD MLOAD ISZERO ISZERO PUSH2 0xFF00 DUP3 SLOAD SWAP2 PUSH1 0x8 SHL AND SWAP1 PUSH2 0xFF00 NOT AND OR SWAP1 SSTORE ADD SWAP2 ADD MLOAD DUP1 MLOAD SWAP1 PUSH1 0x1 PUSH1 0x40 SHL DUP3 GT PUSH2 0x780 JUMPI DUP3 SLOAD DUP3 DUP5 SSTORE DUP1 DUP4 LT PUSH2 0x196D JUMPI JUMPDEST POP PUSH1 0x20 ADD SWAP2 PUSH0 MSTORE PUSH1 0x20 PUSH0 KECCAK256 SWAP2 PUSH0 SWAP1 JUMPDEST DUP3 DUP3 LT PUSH2 0x1860 JUMPI STOP JUMPDEST DUP1 MLOAD DUP1 MLOAD SWAP1 PUSH1 0x1 PUSH1 0x1 PUSH1 0x40 SHL SUB DUP3 GT PUSH2 0x780 JUMPI PUSH2 0x187D DUP7 SLOAD PUSH2 0x1FFB JUMP JUMPDEST PUSH1 0x1F DUP2 GT PUSH2 0x193D JUMPI JUMPDEST POP PUSH1 0x20 SWAP1 PUSH1 0x1F DUP4 GT PUSH1 0x1 EQ PUSH2 0x18D1 JUMPI SWAP3 DUP3 PUSH1 0x1 SWAP5 SWAP4 PUSH1 0x20 SWAP4 DUP7 SWAP6 PUSH0 SWAP3 PUSH2 0x18C6 JUMPI JUMPDEST POP POP PUSH0 NOT PUSH1 0x3 DUP4 SWAP1 SHL SHR NOT AND SWAP1 DUP5 SHL OR DUP8 SSTORE JUMPDEST ADD SWAP5 ADD SWAP2 ADD SWAP1 SWAP3 PUSH2 0x1857 JUMP JUMPDEST ADD MLOAD SWAP1 POP DUP10 DUP1 PUSH2 0x18A7 JUMP JUMPDEST SWAP1 DUP7 PUSH0 MSTORE PUSH1 0x20 PUSH0 KECCAK256 SWAP2 PUSH0 JUMPDEST PUSH1 0x1F NOT DUP6 AND DUP2 LT PUSH2 0x1925 JUMPI POP DUP4 PUSH1 0x20 SWAP4 PUSH1 0x1 SWAP7 SWAP4 DUP8 SWAP7 SWAP4 DUP8 SWAP5 PUSH1 0x1F NOT DUP2 AND LT PUSH2 0x190D JUMPI JUMPDEST POP POP POP DUP2 SHL ADD DUP8 SSTORE PUSH2 0x18BA JUMP JUMPDEST ADD MLOAD PUSH0 NOT PUSH1 0xF8 DUP5 PUSH1 0x3 SHL AND SHR NOT AND SWAP1 SSTORE DUP10 DUP1 DUP1 PUSH2 0x1900 JUMP JUMPDEST SWAP2 SWAP3 PUSH1 0x20 PUSH1 0x1 DUP2 SWAP3 DUP7 DUP6 ADD MLOAD DUP2 SSTORE ADD SWAP5 ADD SWAP3 ADD PUSH2 0x18DC JUMP JUMPDEST PUSH2 0x1967 SWAP1 DUP8 PUSH0 MSTORE PUSH1 0x20 PUSH0 KECCAK256 PUSH1 0x1F DUP6 ADD PUSH1 0x5 SHR DUP2 ADD SWAP2 PUSH1 0x20 DUP7 LT PUSH2 0x8A2 JUMPI PUSH1 0x1F ADD PUSH1 0x5 SHR ADD SWAP1 PUSH2 0x2312 JUMP JUMPDEST DUP7 PUSH2 0x1886 JUMP JUMPDEST DUP4 PUSH0 MSTORE DUP3 PUSH1 0x20 PUSH0 KECCAK256 SWAP2 DUP3 ADD SWAP2 ADD JUMPDEST DUP2 DUP2 LT PUSH2 0x1988 JUMPI POP PUSH2 0x1848 JUMP JUMPDEST DUP1 PUSH2 0x1995 PUSH1 0x1 SWAP3 SLOAD PUSH2 0x1FFB JUMP JUMPDEST DUP1 PUSH2 0x19A2 JUMPI JUMPDEST POP ADD PUSH2 0x197B JUMP JUMPDEST PUSH1 0x1F DUP2 GT DUP4 EQ PUSH2 0x19B7 JUMPI POP PUSH0 DUP2 SSTORE JUMPDEST DUP7 PUSH2 0x199B JUMP JUMPDEST PUSH0 SWAP1 DUP3 DUP3 MSTORE PUSH2 0x19D4 PUSH1 0x1F PUSH1 0x20 DUP5 KECCAK256 SWAP3 ADD PUSH1 0x5 SHR DUP3 ADD DUP6 DUP4 ADD PUSH2 0x2312 JUMP JUMPDEST DUP2 DUP4 SSTORE SSTORE PUSH2 0x19B1 JUMP JUMPDEST ADD MLOAD SWAP1 POP DUP7 DUP1 PUSH2 0x17B0 JUMP JUMPDEST SWAP1 PUSH1 0x1 DUP5 ADD PUSH0 MSTORE PUSH1 0x20 PUSH0 KECCAK256 SWAP2 PUSH0 JUMPDEST PUSH1 0x1F NOT DUP6 AND DUP2 LT PUSH2 0x1A42 JUMPI POP SWAP3 PUSH2 0x100 SWAP5 SWAP3 PUSH1 0x1 SWAP3 PUSH1 0x7 SWAP6 DUP4 PUSH1 0x1F NOT DUP2 AND LT PUSH2 0x1A2A JUMPI JUMPDEST POP POP POP DUP2 SHL ADD PUSH1 0x1 DUP3 ADD SSTORE PUSH2 0x17C7 JUMP JUMPDEST ADD MLOAD PUSH0 NOT PUSH1 0xF8 DUP5 PUSH1 0x3 SHL AND SHR NOT AND SWAP1 SSTORE DUP7 DUP1 DUP1 PUSH2 0x1A1A JUMP JUMPDEST SWAP2 SWAP3 PUSH1 0x20 PUSH1 0x1 DUP2 SWAP3 DUP7 DUP6 ADD MLOAD DUP2 SSTORE ADD SWAP5 ADD SWAP3 ADD PUSH2 0x19F6 JUMP JUMPDEST PUSH2 0x1A87 SWAP1 PUSH1 0x1 DUP6 ADD PUSH0 MSTORE PUSH1 0x20 PUSH0 KECCAK256 PUSH1 0x1F DUP6 ADD PUSH1 0x5 SHR DUP2 ADD SWAP2 PUSH1 0x20 DUP7 LT PUSH2 0x8A2 JUMPI PUSH1 0x1F ADD PUSH1 0x5 SHR ADD SWAP1 PUSH2 0x2312 JUMP JUMPDEST DUP5 PUSH2 0x1790 JUMP JUMPDEST SWAP2 POP POP PUSH1 0x40 DUP2 RETURNDATASIZE PUSH1 0x40 GT PUSH2 0x1ACD JUMPI JUMPDEST DUP2 PUSH2 0x1AA9 PUSH1 0x40 SWAP4 DUP4 PUSH2 0x204F JUMP JUMPDEST DUP2 ADD SUB SLT PUSH2 0x154 JUMPI PUSH2 0x1AC6 PUSH1 0x20 PUSH2 0x1ABF DUP4 PUSH2 0x23B1 JUMP JUMPDEST SWAP3 ADD PUSH2 0x23B1 JUMP JUMPDEST SWAP1 DUP4 PUSH2 0x1047 JUMP JUMPDEST RETURNDATASIZE SWAP2 POP PUSH2 0x1A9C JUMP JUMPDEST CALLVALUE PUSH2 0x154 JUMPI PUSH0 CALLDATASIZE PUSH1 0x3 NOT ADD SLT PUSH2 0x154 JUMPI PUSH1 0x8 SLOAD PUSH1 0x40 MLOAD PUSH1 0x1 PUSH1 0x1 PUSH1 0xA0 SHL SUB SWAP1 SWAP2 AND DUP2 MSTORE PUSH1 0x20 SWAP1 RETURN JUMPDEST CALLVALUE PUSH2 0x154 JUMPI PUSH1 0x3 NOT PUSH1 0x40 CALLDATASIZE DUP3 ADD SLT PUSH2 0x154 JUMPI PUSH1 0x1 PUSH1 0x1 PUSH1 0x40 SHL SUB SWAP1 PUSH1 0x4 CALLDATALOAD DUP3 DUP2 GT PUSH2 0x154 JUMPI PUSH2 0x100 DUP2 PUSH1 0x4 ADD SWAP3 DUP3 CALLDATASIZE SUB ADD SLT PUSH2 0x154 JUMPI PUSH1 0x24 CALLDATALOAD DUP4 DUP2 GT PUSH2 0x154 JUMPI CALLDATASIZE PUSH1 0x23 DUP3 ADD SLT ISZERO PUSH2 0x154 JUMPI PUSH2 0x1B5C SWAP1 CALLDATASIZE SWAP1 PUSH1 0x24 DUP2 PUSH1 0x4 ADD CALLDATALOAD SWAP2 ADD PUSH2 0x2172 JUMP JUMPDEST POP PUSH1 0xC4 PUSH0 SWAP2 ADD SWAP2 PUSH2 0x1B6D DUP4 DUP3 PUSH2 0x237C JUMP JUMPDEST PUSH1 0x1 SWAP5 SWAP2 SWAP5 LT ISZERO PUSH2 0x1C32 JUMPI PUSH2 0x1B81 SWAP2 PUSH2 0x237C JUMP JUMPDEST PUSH1 0x2 LT ISZERO PUSH2 0x1C32 JUMPI PUSH1 0x40 ADD CALLDATALOAD SWAP2 PUSH1 0x1 DUP1 PUSH1 0xA0 SHL SUB SWAP1 DUP2 PUSH1 0x20 DUP2 PUSH1 0xA SLOAD AND SWAP3 ADD CALLDATALOAD AND EQ SWAP1 DUP2 PUSH2 0x1C1A JUMPI JUMPDEST POP DUP1 PUSH2 0x1C00 JUMPI JUMPDEST PUSH2 0x1BF8 JUMPI JUMPDEST PUSH1 0x40 MLOAD SWAP2 PUSH1 0x20 DUP4 ADD MSTORE PUSH1 0x20 DUP3 MSTORE PUSH1 0x40 DUP3 ADD SWAP3 DUP3 DUP5 LT SWAP1 DUP5 GT OR PUSH2 0x780 JUMPI DUP3 PUSH1 0x40 MSTORE ISZERO ISZERO DUP3 MSTORE PUSH1 0x40 PUSH1 0x60 DUP3 ADD MSTORE PUSH1 0x3F NOT SWAP1 PUSH2 0x1BF3 PUSH1 0x80 DUP3 ADD DUP3 PUSH2 0x2132 JUMP JUMPDEST SUB ADD SWAP1 RETURN JUMPDEST POP PUSH1 0x1 PUSH2 0x1BB6 JUMP JUMPDEST POP DUP2 PUSH0 MSTORE PUSH1 0x1 PUSH1 0x20 MSTORE PUSH1 0xFF PUSH1 0x6 PUSH1 0x40 PUSH0 KECCAK256 ADD SLOAD AND ISZERO PUSH2 0x1BB1 JUMP JUMPDEST SWAP1 POP DUP3 PUSH0 MSTORE PUSH1 0x1 PUSH1 0x20 MSTORE PUSH1 0x40 PUSH0 KECCAK256 SLOAD AND ISZERO ISZERO DUP5 PUSH2 0x1BAA JUMP JUMPDEST PUSH4 0x4E487B71 PUSH1 0xE0 SHL PUSH0 MSTORE PUSH1 0x32 PUSH1 0x4 MSTORE PUSH1 0x24 PUSH0 REVERT JUMPDEST CALLVALUE PUSH2 0x154 JUMPI PUSH1 0x20 CALLDATASIZE PUSH1 0x3 NOT ADD SLT PUSH2 0x154 JUMPI PUSH1 0x4 CALLDATALOAD PUSH1 0x1 PUSH1 0x1 PUSH1 0x40 SHL SUB DUP2 GT PUSH2 0x154 JUMPI PUSH1 0x3 PUSH2 0x1C7E PUSH1 0x20 PUSH2 0x1D9 DUP2 SWAP5 CALLDATASIZE SWAP1 PUSH1 0x4 ADD PUSH2 0x21A8 JUMP JUMPDEST DUP2 ADD PUSH0 DUP2 MSTORE SUB ADD SWAP1 KECCAK256 ADD SLOAD PUSH1 0x40 MLOAD SWAP1 DUP2 MSTORE RETURN JUMPDEST CALLVALUE PUSH2 0x154 JUMPI PUSH1 0x20 DUP1 PUSH1 0x3 NOT CALLDATASIZE ADD SLT PUSH2 0x154 JUMPI PUSH1 0x4 CALLDATALOAD PUSH1 0x1 PUSH1 0x1 PUSH1 0x40 SHL SUB DUP2 GT PUSH2 0x154 JUMPI DUP2 PUSH2 0x1D9 PUSH2 0x1CC6 SWAP3 CALLDATASIZE SWAP1 PUSH1 0x4 ADD PUSH2 0x21A8 JUMP JUMPDEST DUP2 ADD PUSH1 0x2 DUP2 MSTORE SUB ADD SWAP1 KECCAK256 PUSH1 0x40 MLOAD SWAP1 DUP2 DUP4 DUP3 SLOAD SWAP2 DUP3 DUP2 MSTORE ADD SWAP1 DUP2 SWAP3 PUSH0 MSTORE DUP5 PUSH0 KECCAK256 SWAP1 PUSH0 JUMPDEST DUP7 DUP3 DUP3 LT PUSH2 0x1D3D JUMPI DUP7 DUP7 PUSH2 0x1CFE DUP3 DUP9 SUB DUP4 PUSH2 0x204F JUMP JUMPDEST PUSH1 0x40 MLOAD SWAP3 DUP4 SWAP3 DUP2 DUP5 ADD SWAP1 DUP3 DUP6 MSTORE MLOAD DUP1 SWAP2 MSTORE PUSH1 0x40 DUP5 ADD SWAP3 SWAP2 PUSH0 JUMPDEST DUP3 DUP2 LT PUSH2 0x1D26 JUMPI POP POP POP POP SUB SWAP1 RETURN JUMPDEST DUP4 MLOAD DUP6 MSTORE DUP7 SWAP6 POP SWAP4 DUP2 ADD SWAP4 SWAP3 DUP2 ADD SWAP3 PUSH1 0x1 ADD PUSH2 0x1D17 JUMP JUMPDEST DUP4 SLOAD DUP6 MSTORE SWAP1 SWAP4 ADD SWAP3 PUSH1 0x1 SWAP3 DUP4 ADD SWAP3 ADD PUSH2 0x1CE8 JUMP JUMPDEST CALLVALUE PUSH2 0x154 JUMPI PUSH1 0x20 DUP1 PUSH1 0x3 NOT CALLDATASIZE ADD SLT PUSH2 0x154 JUMPI PUSH1 0x4 CALLDATALOAD SWAP1 PUSH1 0x1 PUSH1 0x1 PUSH1 0x40 SHL SUB DUP3 GT PUSH2 0x154 JUMPI PUSH2 0x1D85 PUSH1 0x60 SWAP3 CALLDATASIZE SWAP1 PUSH1 0x4 ADD PUSH2 0x21A8 JUMP JUMPDEST SWAP1 PUSH1 0x40 MLOAD SWAP2 PUSH1 0x2 PUSH2 0x1DE0 DUP4 DUP4 MLOAD SWAP6 DUP2 DUP2 DUP2 DUP8 ADD SWAP9 PUSH2 0x1DA4 DUP2 DUP4 DUP13 PUSH2 0x2111 JUMP JUMPDEST DUP2 ADD PUSH0 DUP2 MSTORE SUB ADD SWAP1 KECCAK256 SLOAD SWAP6 PUSH1 0x1 PUSH1 0x40 MLOAD DUP4 DUP2 DUP9 MLOAD PUSH2 0x1DC3 DUP2 DUP4 DUP9 PUSH2 0x2111 JUMP JUMPDEST DUP2 ADD PUSH0 DUP2 MSTORE SUB ADD SWAP1 KECCAK256 ADD SLOAD SWAP5 PUSH1 0x40 MLOAD SWAP4 DUP5 SWAP3 DUP4 SWAP3 MLOAD SWAP3 DUP4 SWAP2 PUSH2 0x2111 JUMP JUMPDEST DUP2 ADD PUSH0 DUP2 MSTORE SUB ADD SWAP1 KECCAK256 ADD SLOAD SWAP2 PUSH1 0x40 MLOAD SWAP4 DUP5 MSTORE DUP4 ADD MSTORE PUSH1 0x40 DUP3 ADD MSTORE RETURN JUMPDEST CALLVALUE PUSH2 0x154 JUMPI PUSH1 0x20 CALLDATASIZE PUSH1 0x3 NOT ADD SLT PUSH2 0x154 JUMPI PUSH1 0x4 CALLDATALOAD PUSH1 0x1 PUSH1 0x1 PUSH1 0x40 SHL SUB DUP2 GT PUSH2 0x154 JUMPI PUSH2 0x1E33 PUSH1 0x20 PUSH2 0x1D9 PUSH1 0xA0 SWAP4 CALLDATASIZE SWAP1 PUSH1 0x4 ADD PUSH2 0x21A8 JUMP JUMPDEST DUP2 ADD PUSH0 DUP2 MSTORE SUB ADD SWAP1 KECCAK256 DUP1 SLOAD SWAP1 PUSH1 0x1 DUP2 ADD SLOAD SWAP1 PUSH1 0x2 DUP2 ADD SLOAD PUSH1 0xFF PUSH1 0x5 PUSH1 0x3 DUP5 ADD SLOAD SWAP4 ADD SLOAD AND SWAP3 PUSH1 0x40 MLOAD SWAP5 DUP6 MSTORE PUSH1 0x20 DUP6 ADD MSTORE PUSH1 0x40 DUP5 ADD MSTORE PUSH1 0x60 DUP4 ADD MSTORE ISZERO ISZERO PUSH1 0x80 DUP3 ADD MSTORE RETURN JUMPDEST CALLVALUE PUSH2 0x154 JUMPI PUSH1 0x20 CALLDATASIZE PUSH1 0x3 NOT ADD SLT PUSH2 0x154 JUMPI PUSH1 0x4 CALLDATALOAD PUSH1 0x1 PUSH1 0x1 PUSH1 0x40 SHL SUB DUP2 GT PUSH2 0x154 JUMPI PUSH1 0xFF PUSH1 0x5 PUSH2 0x1EB0 PUSH1 0x20 PUSH2 0x1D9 DUP2 SWAP6 CALLDATASIZE SWAP1 PUSH1 0x4 ADD PUSH2 0x21A8 JUMP JUMPDEST DUP2 ADD PUSH0 DUP2 MSTORE SUB ADD SWAP1 KECCAK256 ADD SLOAD AND PUSH1 0x40 MLOAD SWAP1 ISZERO ISZERO DUP2 MSTORE RETURN JUMPDEST CALLVALUE PUSH2 0x154 JUMPI PUSH1 0x20 CALLDATASIZE PUSH1 0x3 NOT ADD SLT PUSH2 0x154 JUMPI PUSH1 0x4 CALLDATALOAD PUSH0 MSTORE PUSH1 0x1 PUSH1 0x20 MSTORE PUSH1 0x40 PUSH0 KECCAK256 PUSH1 0x1 DUP1 PUSH1 0xA0 SHL SUB DUP2 SLOAD AND PUSH2 0x1EFB PUSH1 0x1 DUP4 ADD PUSH2 0x2070 JUMP JUMPDEST SWAP2 PUSH1 0xFF PUSH1 0x2 DUP3 ADD SLOAD SWAP2 PUSH1 0x3 DUP2 ADD SLOAD SWAP1 PUSH1 0x4 DUP2 ADD SLOAD PUSH1 0x6 PUSH1 0x5 DUP4 ADD SLOAD SWAP3 ADD SLOAD SWAP3 PUSH2 0x1F36 PUSH1 0x40 MLOAD SWAP9 DUP10 SWAP9 DUP10 MSTORE PUSH2 0x100 DUP1 PUSH1 0x20 DUP12 ADD MSTORE DUP10 ADD SWAP1 PUSH2 0x2132 JUMP JUMPDEST SWAP6 PUSH1 0x40 DUP9 ADD MSTORE PUSH1 0x60 DUP8 ADD MSTORE PUSH1 0x80 DUP7 ADD MSTORE PUSH1 0xA0 DUP6 ADD MSTORE DUP2 DUP2 AND ISZERO ISZERO PUSH1 0xC0 DUP6 ADD MSTORE PUSH1 0x8 SHR AND ISZERO ISZERO PUSH1 0xE0 DUP4 ADD MSTORE SUB SWAP1 RETURN JUMPDEST CALLVALUE PUSH2 0x154 JUMPI PUSH0 CALLDATASIZE PUSH1 0x3 NOT ADD SLT PUSH2 0x154 JUMPI PUSH1 0x20 PUSH1 0x7 SLOAD PUSH1 0x40 MLOAD SWAP1 DUP2 MSTORE RETURN JUMPDEST CALLVALUE PUSH2 0x154 JUMPI PUSH1 0x20 CALLDATASIZE PUSH1 0x3 NOT ADD SLT PUSH2 0x154 JUMPI PUSH2 0x1FA7 PUSH1 0x1 DUP1 PUSH1 0xA0 SHL SUB PUSH1 0x3 SLOAD AND CALLER EQ PUSH2 0x23BE JUMP JUMPDEST PUSH1 0x4 CALLDATALOAD PUSH1 0x5 SSTORE STOP JUMPDEST CALLVALUE PUSH2 0x154 JUMPI PUSH1 0x20 CALLDATASIZE PUSH1 0x3 NOT ADD SLT PUSH2 0x154 JUMPI PUSH1 0x4 CALLDATALOAD PUSH1 0x1 PUSH1 0x1 PUSH1 0xA0 SHL SUB DUP2 DUP2 AND SWAP2 DUP3 SWAP1 SUB PUSH2 0x154 JUMPI PUSH2 0x1FE5 SWAP1 PUSH1 0x3 SLOAD AND CALLER EQ PUSH2 0x23BE JUMP JUMPDEST PUSH1 0x9 DUP1 SLOAD PUSH1 0x1 PUSH1 0x1 PUSH1 0xA0 SHL SUB NOT AND SWAP2 SWAP1 SWAP2 OR SWAP1 SSTORE STOP JUMPDEST SWAP1 PUSH1 0x1 DUP3 DUP2 SHR SWAP3 AND DUP1 ISZERO PUSH2 0x2029 JUMPI JUMPDEST PUSH1 0x20 DUP4 LT EQ PUSH2 0x2015 JUMPI JUMP JUMPDEST PUSH4 0x4E487B71 PUSH1 0xE0 SHL PUSH0 MSTORE PUSH1 0x22 PUSH1 0x4 MSTORE PUSH1 0x24 PUSH0 REVERT JUMPDEST SWAP2 PUSH1 0x7F AND SWAP2 PUSH2 0x200A JUMP JUMPDEST PUSH2 0x120 DUP2 ADD SWAP1 DUP2 LT PUSH1 0x1 PUSH1 0x1 PUSH1 0x40 SHL SUB DUP3 GT OR PUSH2 0x780 JUMPI PUSH1 0x40 MSTORE JUMP JUMPDEST SWAP1 PUSH1 0x1F DUP1 NOT SWAP2 ADD AND DUP2 ADD SWAP1 DUP2 LT PUSH1 0x1 PUSH1 0x1 PUSH1 0x40 SHL SUB DUP3 GT OR PUSH2 0x780 JUMPI PUSH1 0x40 MSTORE JUMP JUMPDEST SWAP1 PUSH1 0x40 MLOAD SWAP2 DUP3 PUSH0 DUP3 SLOAD SWAP3 PUSH2 0x2083 DUP5 PUSH2 0x1FFB JUMP JUMPDEST SWAP1 DUP2 DUP5 MSTORE PUSH1 0x1 SWAP5 DUP6 DUP2 AND SWAP1 DUP2 PUSH0 EQ PUSH2 0x20EE JUMPI POP PUSH1 0x1 EQ PUSH2 0x20AE JUMPI JUMPDEST POP POP PUSH2 0x20AC SWAP3 POP SUB DUP4 PUSH2 0x204F JUMP JUMPDEST JUMP JUMPDEST SWAP1 SWAP4 SWAP2 POP PUSH0 MSTORE PUSH1 0x20 SWAP1 DUP2 PUSH0 KECCAK256 SWAP4 PUSH0 SWAP2 JUMPDEST DUP2 DUP4 LT PUSH2 0x20D6 JUMPI POP POP PUSH2 0x20AC SWAP4 POP DUP3 ADD ADD PUSH0 DUP1 PUSH2 0x209E JUMP JUMPDEST DUP6 SLOAD DUP9 DUP5 ADD DUP6 ADD MSTORE SWAP5 DUP6 ADD SWAP5 DUP8 SWAP5 POP SWAP2 DUP4 ADD SWAP2 PUSH2 0x20BE JUMP JUMPDEST SWAP2 POP POP PUSH2 0x20AC SWAP5 POP PUSH1 0x20 SWAP3 POP PUSH1 0xFF NOT AND DUP3 DUP5 ADD MSTORE ISZERO ISZERO PUSH1 0x5 SHL DUP3 ADD ADD PUSH0 DUP1 PUSH2 0x209E JUMP JUMPDEST PUSH0 JUMPDEST DUP4 DUP2 LT PUSH2 0x2122 JUMPI POP POP PUSH0 SWAP2 ADD MSTORE JUMP JUMPDEST DUP2 DUP2 ADD MLOAD DUP4 DUP3 ADD MSTORE PUSH1 0x20 ADD PUSH2 0x2113 JUMP JUMPDEST SWAP1 PUSH1 0x20 SWAP2 PUSH2 0x214B DUP2 MLOAD DUP1 SWAP3 DUP2 DUP6 MSTORE DUP6 DUP1 DUP7 ADD SWAP2 ADD PUSH2 0x2111 JUMP JUMPDEST PUSH1 0x1F ADD PUSH1 0x1F NOT AND ADD ADD SWAP1 JUMP JUMPDEST PUSH1 0x1 PUSH1 0x1 PUSH1 0x40 SHL SUB DUP2 GT PUSH2 0x780 JUMPI PUSH1 0x1F ADD PUSH1 0x1F NOT AND PUSH1 0x20 ADD SWAP1 JUMP JUMPDEST SWAP3 SWAP2 SWAP3 PUSH2 0x217E DUP3 PUSH2 0x2157 JUMP JUMPDEST SWAP2 PUSH2 0x218C PUSH1 0x40 MLOAD SWAP4 DUP5 PUSH2 0x204F JUMP JUMPDEST DUP3 SWAP5 DUP2 DUP5 MSTORE DUP2 DUP4 ADD GT PUSH2 0x154 JUMPI DUP3 DUP2 PUSH1 0x20 SWAP4 DUP5 PUSH0 SWAP7 ADD CALLDATACOPY ADD ADD MSTORE JUMP JUMPDEST SWAP1 DUP1 PUSH1 0x1F DUP4 ADD SLT ISZERO PUSH2 0x154 JUMPI DUP2 PUSH1 0x20 PUSH2 0x21C3 SWAP4 CALLDATALOAD SWAP2 ADD PUSH2 0x2172 JUMP JUMPDEST SWAP1 JUMP JUMPDEST PUSH1 0x1 PUSH1 0x1 PUSH1 0x40 SHL SUB DUP2 GT PUSH2 0x780 JUMPI PUSH1 0x5 SHL PUSH1 0x20 ADD SWAP1 JUMP JUMPDEST SWAP1 PUSH1 0xC0 PUSH1 0x3 NOT DUP4 ADD SLT PUSH2 0x154 JUMPI PUSH1 0x1 PUSH1 0x1 PUSH1 0x40 SHL SUB PUSH1 0x4 CALLDATALOAD DUP2 DUP2 GT PUSH2 0x154 JUMPI DUP4 PUSH2 0x2209 SWAP2 PUSH1 0x4 ADD PUSH2 0x21A8 JUMP JUMPDEST SWAP3 PUSH1 0x24 DUP1 CALLDATALOAD SWAP4 PUSH1 0x44 CALLDATALOAD SWAP4 PUSH1 0x64 CALLDATALOAD SWAP4 PUSH1 0x84 CALLDATALOAD SWAP4 PUSH1 0xA4 CALLDATALOAD SWAP3 DUP1 DUP5 GT PUSH2 0x154 JUMPI DUP3 PUSH1 0x23 DUP6 ADD SLT ISZERO PUSH2 0x154 JUMPI DUP4 PUSH1 0x4 ADD CALLDATALOAD PUSH2 0x223F DUP2 PUSH2 0x21C6 JUMP JUMPDEST SWAP5 PUSH2 0x224D PUSH1 0x40 MLOAD SWAP7 DUP8 PUSH2 0x204F JUMP JUMPDEST DUP2 DUP7 MSTORE PUSH1 0x20 SWAP5 DUP5 DUP7 DUP9 ADD SWAP4 PUSH1 0x5 SHL DUP4 ADD ADD SWAP5 DUP2 DUP7 GT PUSH2 0x154 JUMPI DUP1 DUP4 ADD SWAP4 JUMPDEST DUP7 DUP6 LT PUSH2 0x227D JUMPI POP POP POP POP POP POP POP POP SWAP1 JUMP JUMPDEST DUP5 CALLDATALOAD DUP7 DUP2 GT PUSH2 0x154 JUMPI DUP9 SWAP2 PUSH2 0x2297 DUP6 DUP6 DUP6 SWAP5 DUP10 ADD ADD PUSH2 0x21A8 JUMP JUMPDEST DUP2 MSTORE ADD SWAP5 ADD SWAP4 PUSH2 0x226B JUMP JUMPDEST DUP1 SLOAD DUP3 LT ISZERO PUSH2 0x1C32 JUMPI PUSH0 MSTORE PUSH1 0x20 PUSH0 KECCAK256 ADD SWAP1 PUSH0 SWAP1 JUMP JUMPDEST SWAP1 DUP1 DUP3 MLOAD SWAP1 DUP2 DUP2 MSTORE PUSH1 0x20 DUP1 SWAP2 ADD SWAP3 DUP2 DUP1 DUP5 PUSH1 0x5 SHL DUP4 ADD ADD SWAP6 ADD SWAP4 PUSH0 SWAP2 JUMPDEST DUP5 DUP4 LT PUSH2 0x22E4 JUMPI POP POP POP POP POP POP SWAP1 JUMP JUMPDEST SWAP1 SWAP2 SWAP3 SWAP4 SWAP5 SWAP6 DUP5 DUP1 PUSH2 0x2302 PUSH1 0x1 SWAP4 PUSH1 0x1F NOT DUP7 DUP3 SUB ADD DUP8 MSTORE DUP11 MLOAD PUSH2 0x2132 JUMP JUMPDEST SWAP9 ADD SWAP4 ADD SWAP4 ADD SWAP2 SWAP5 SWAP4 SWAP3 SWAP1 PUSH2 0x22D4 JUMP JUMPDEST DUP2 DUP2 LT PUSH2 0x231D JUMPI POP POP JUMP JUMPDEST PUSH0 DUP2 SSTORE PUSH1 0x1 ADD PUSH2 0x2312 JUMP JUMPDEST SWAP1 DUP2 SLOAD PUSH2 0x2334 DUP2 PUSH2 0x21C6 JUMP JUMPDEST SWAP3 PUSH2 0x2342 PUSH1 0x40 MLOAD SWAP5 DUP6 PUSH2 0x204F JUMP JUMPDEST DUP2 DUP5 MSTORE PUSH0 SWAP1 DUP2 MSTORE PUSH1 0x20 DUP1 DUP3 KECCAK256 DUP2 DUP7 ADD JUMPDEST DUP5 DUP5 LT PUSH2 0x2360 JUMPI POP POP POP POP POP JUMP JUMPDEST PUSH1 0x1 DUP4 DUP2 SWAP3 PUSH2 0x236E DUP6 PUSH2 0x2070 JUMP JUMPDEST DUP2 MSTORE ADD SWAP3 ADD SWAP4 ADD SWAP3 SWAP1 PUSH2 0x2352 JUMP JUMPDEST SWAP1 CALLDATALOAD SWAP1 PUSH1 0x1E NOT DUP2 CALLDATASIZE SUB ADD DUP3 SLT ISZERO PUSH2 0x154 JUMPI ADD DUP1 CALLDATALOAD SWAP1 PUSH1 0x1 PUSH1 0x1 PUSH1 0x40 SHL SUB DUP3 GT PUSH2 0x154 JUMPI PUSH1 0x20 ADD SWAP2 DUP2 PUSH1 0x5 SHL CALLDATASIZE SUB DUP4 SGT PUSH2 0x154 JUMPI JUMP JUMPDEST MLOAD SWAP1 DUP2 ISZERO ISZERO DUP3 SUB PUSH2 0x154 JUMPI JUMP JUMPDEST ISZERO PUSH2 0x23C5 JUMPI JUMP JUMPDEST PUSH1 0x40 MLOAD PUSH3 0x461BCD PUSH1 0xE5 SHL DUP2 MSTORE PUSH1 0x20 PUSH1 0x4 DUP3 ADD MSTORE PUSH1 0x16 PUSH1 0x24 DUP3 ADD MSTORE PUSH22 0x2737BA103A34329031B7B73A3930B1BA1037BBB732B9 PUSH1 0x51 SHL PUSH1 0x44 DUP3 ADD MSTORE PUSH1 0x64 SWAP1 REVERT INVALID LOG2 PUSH5 0x6970667358 0x22 SLT KECCAK256 0xD8 COINBASE 0xB6 NOT 0xAA RETURN OR 0xB2 ADDRESS PUSH28 0x68AE4E4DDF81733E6B584456440E62434A70B474ABF964736F6C6343 STOP ADDMOD EQ STOP CALLER "},"methodIdentifiers":{"CommunityConsensusProposals(uint256)":"1e6a2488","CommunityContract()":"f0642315","ConsensusProposalArray(string,uint256)":"94977f74","CreateCCProposal(string,uint256,uint256,uint256,uint256,string[])":"a804535d","UpdateTotalFee()":"d1dda68f","bytes32ToAddress(bytes32)":"5ced058e","checkLog((uint256,uint256,bytes32,uint256,bytes32,address,bytes32[],bytes),bytes)":"40691db4","communityConsensus(string)":"2627bc1e","communityFee()":"8961be6b","fee()":"ddca3f43","feeAddress()":"41275358","getCCParams(string)":"abb7d06c","getCCParamsExist(string)":"24c9db2f","getCommunityConsensousTime(string)":"3bebe051","getCommunityConsensousTypes(string)":"dcf86200","getCommunityReviewParams(string)":"26917989","getConsensusProposalArray(string)":"2dc5f3d7","maxConsensusTime()":"f6eeda9d","performUpkeep(bytes)":"4585e33b","setCCParams(string,uint256,uint256,uint256,uint256,string[])":"4e2413e8","setFee(uint256)":"69fe0e2d","setFeeAddress(address)":"8705fcd4","setMaxConsensusTime(uint256)":"13a292ee","settgetherCommunityContract(address)":"04189d0b","totalFee()":"1df4ccfc","upkeepId()":"d2aa789f"}}}}}