{"contracts/learntgetherCommunities.sol":{"learntgetherCommunities":{"abi":[{"inputs":[{"internalType":"uint256","name":"_feePrice","type":"uint256"},{"internalType":"address payable","name":"_feeAddress","type":"address"}],"stateMutability":"nonpayable","type":"constructor"},{"anonymous":false,"inputs":[{"indexed":true,"internalType":"string","name":"communityName","type":"string"},{"indexed":false,"internalType":"address","name":"creator","type":"address"},{"indexed":false,"internalType":"bool","name":"isInviteOnly","type":"bool"}],"name":"CommunityCreated","type":"event"},{"anonymous":false,"inputs":[{"indexed":true,"internalType":"string","name":"communityName","type":"string"},{"indexed":false,"internalType":"uint256","name":"minCredsToProposeVote","type":"uint256"},{"indexed":false,"internalType":"uint256","name":"minCredsToVote","type":"uint256"},{"indexed":false,"internalType":"uint256","name":"maxCredsCountedForVote","type":"uint256"},{"indexed":false,"internalType":"uint256","name":"minProposalVotes","type":"uint256"},{"indexed":false,"internalType":"address","name":"memberAccessContract","type":"address"},{"indexed":false,"internalType":"uint256","name":"proposalTime","type":"uint256"},{"indexed":false,"internalType":"uint256","name":"proposalDelay","type":"uint256"},{"indexed":false,"internalType":"bool","name":"isInviteOnly","type":"bool"}],"name":"CommunityInfo","type":"event"},{"anonymous":false,"inputs":[{"indexed":true,"internalType":"string","name":"communityName","type":"string"},{"indexed":true,"internalType":"uint256","name":"proposalId","type":"uint256"},{"indexed":false,"internalType":"uint256","name":"minCredsToProposeVote","type":"uint256"},{"indexed":false,"internalType":"uint256","name":"minCredsToVote","type":"uint256"},{"indexed":false,"internalType":"uint256","name":"maxCredsCountedForVote","type":"uint256"},{"indexed":false,"internalType":"uint256","name":"minProposalVotes","type":"uint256"},{"indexed":false,"internalType":"address","name":"memberAccessContract","type":"address"},{"indexed":false,"internalType":"uint256","name":"proposalTime","type":"uint256"},{"indexed":false,"internalType":"uint256","name":"proposalDelay","type":"uint256"},{"indexed":false,"internalType":"bool","name":"isInviteOnly","type":"bool"}],"name":"CommunityProposalParams","type":"event"},{"anonymous":false,"inputs":[{"indexed":true,"internalType":"address","name":"contractAddress","type":"address"},{"indexed":true,"internalType":"uint256","name":"proposalId","type":"uint256"},{"indexed":true,"internalType":"address","name":"proposer","type":"address"}],"name":"CustomProposalCreated","type":"event"},{"anonymous":false,"inputs":[{"indexed":true,"internalType":"address","name":"contractAddress","type":"address"},{"indexed":true,"internalType":"uint256","name":"proposalId","type":"uint256"},{"indexed":true,"internalType":"bool","name":"passed","type":"bool"}],"name":"CustomProposalResult","type":"event"},{"anonymous":false,"inputs":[{"indexed":false,"internalType":"uint256","name":"proposalId","type":"uint256"},{"indexed":false,"internalType":"uint256","name":"activeProposalsIndex","type":"uint256"}],"name":"IndexChange","type":"event"},{"anonymous":false,"inputs":[{"indexed":true,"internalType":"uint256","name":"proposalId","type":"uint256"},{"indexed":true,"internalType":"address","name":"proposer","type":"address"},{"indexed":true,"internalType":"string","name":"communityName","type":"string"},{"indexed":false,"internalType":"uint256","name":"timestamp","type":"uint256"},{"indexed":false,"internalType":"uint256","name":"propType","type":"uint256"}],"name":"ProposalCreated","type":"event"},{"anonymous":false,"inputs":[{"indexed":true,"internalType":"uint256","name":"proposalId","type":"uint256"},{"indexed":true,"internalType":"bool","name":"passed","type":"bool"}],"name":"ProposalResult","type":"event"},{"anonymous":false,"inputs":[{"indexed":true,"internalType":"uint256","name":"proposalId","type":"uint256"},{"indexed":true,"internalType":"address","name":"voter","type":"address"},{"indexed":true,"internalType":"bool","name":"voteChoice","type":"bool"},{"indexed":false,"internalType":"uint256","name":"credsToCount","type":"uint256"}],"name":"Voted","type":"event"},{"inputs":[{"internalType":"uint256","name":"","type":"uint256"}],"name":"CommunityNames","outputs":[{"internalType":"string","name":"","type":"string"}],"stateMutability":"view","type":"function"},{"inputs":[{"internalType":"string","name":"_communityName","type":"string"},{"internalType":"uint256","name":"_minCredsToProposeVote","type":"uint256"},{"internalType":"uint256","name":"_minCredsToVote","type":"uint256"},{"internalType":"uint256","name":"_maxCredsCountedForVote","type":"uint256"},{"internalType":"uint256","name":"_minProposalVotes","type":"uint256"},{"internalType":"address","name":"_credsAccessAddress","type":"address"},{"internalType":"uint256","name":"_proposalTime","type":"uint256"},{"internalType":"uint256","name":"_proposalDelay","type":"uint256"},{"internalType":"bool","name":"_isInviteOnly","type":"bool"}],"name":"CommunityProposal","outputs":[{"internalType":"uint256","name":"","type":"uint256"}],"stateMutability":"payable","type":"function"},{"inputs":[{"internalType":"uint256","name":"","type":"uint256"}],"name":"CommunityProposals","outputs":[{"internalType":"uint256","name":"minCredsToProposeVote","type":"uint256"},{"internalType":"uint256","name":"minCredsToVote","type":"uint256"},{"internalType":"uint256","name":"maxCredsCountedForVote","type":"uint256"},{"internalType":"uint256","name":"minProposalVotes","type":"uint256"},{"internalType":"address","name":"memberAccessContract","type":"address"},{"internalType":"uint256","name":"proposalTime","type":"uint256"},{"internalType":"uint256","name":"proposalDelay","type":"uint256"},{"internalType":"bool","name":"isInviteOnly","type":"bool"}],"stateMutability":"view","type":"function"},{"inputs":[{"internalType":"string","name":"_communityName","type":"string"},{"internalType":"address","name":"_contractAddress","type":"address"}],"name":"CustomProposal","outputs":[{"internalType":"uint256","name":"","type":"uint256"}],"stateMutability":"payable","type":"function"},{"inputs":[{"internalType":"uint256","name":"","type":"uint256"}],"name":"CustomProposals","outputs":[{"internalType":"address","name":"","type":"address"}],"stateMutability":"view","type":"function"},{"inputs":[],"name":"MemberContract","outputs":[{"internalType":"contract learntgetherMembersInterface","name":"","type":"address"}],"stateMutability":"view","type":"function"},{"inputs":[{"internalType":"string","name":"_communityName","type":"string"},{"internalType":"address","name":"_newOwner","type":"address"}],"name":"changeCommunityOwner","outputs":[],"stateMutability":"nonpayable","type":"function"},{"inputs":[],"name":"checkUpkeep","outputs":[{"internalType":"bool","name":"upkeepNeeded","type":"bool"},{"internalType":"bytes","name":"performData","type":"bytes"}],"stateMutability":"view","type":"function"},{"inputs":[{"internalType":"string","name":"","type":"string"}],"name":"communities","outputs":[{"internalType":"address","name":"creator","type":"address"},{"internalType":"uint256","name":"minCredsToProposeVote","type":"uint256"},{"internalType":"uint256","name":"minCredsToVote","type":"uint256"},{"internalType":"uint256","name":"maxCredsCountedForVote","type":"uint256"},{"internalType":"uint256","name":"minProposalVotes","type":"uint256"},{"internalType":"address","name":"memberAccessContract","type":"address"},{"internalType":"uint256","name":"proposalTime","type":"uint256"},{"internalType":"uint256","name":"proposalDelay","type":"uint256"},{"internalType":"bool","name":"isInviteOnly","type":"bool"}],"stateMutability":"view","type":"function"},{"inputs":[{"internalType":"string","name":"_communityName","type":"string"},{"internalType":"uint256","name":"_minCredsToProposeVote","type":"uint256"},{"internalType":"uint256","name":"_minCredsToVote","type":"uint256"},{"internalType":"uint256","name":"_maxCredsCountedForVote","type":"uint256"},{"internalType":"uint256","name":"_minProposalVotes","type":"uint256"},{"internalType":"address","name":"_memberAccessContract","type":"address"},{"internalType":"uint256","name":"_proposalTime","type":"uint256"},{"internalType":"uint256","name":"_proposalDelay","type":"uint256"},{"internalType":"bool","name":"_isInviteOnly","type":"bool"}],"name":"createCommunity","outputs":[],"stateMutability":"nonpayable","type":"function"},{"inputs":[],"name":"fee","outputs":[{"internalType":"uint256","name":"","type":"uint256"}],"stateMutability":"view","type":"function"},{"inputs":[{"internalType":"uint256","name":"_propId","type":"uint256"}],"name":"getActiveProposalIndex","outputs":[{"internalType":"uint256","name":"","type":"uint256"}],"stateMutability":"view","type":"function"},{"inputs":[],"name":"getActiveProposalsLength","outputs":[{"internalType":"uint256","name":"","type":"uint256"}],"stateMutability":"view","type":"function"},{"inputs":[{"internalType":"string","name":"_communityName","type":"string"}],"name":"getCommunityExists","outputs":[{"internalType":"bool","name":"","type":"bool"}],"stateMutability":"view","type":"function"},{"inputs":[{"internalType":"string","name":"_communityName","type":"string"}],"name":"getCommunityInfo","outputs":[{"internalType":"uint256","name":"minCredsToProposeVote","type":"uint256"},{"internalType":"uint256","name":"minCredsToVote","type":"uint256"},{"internalType":"uint256","name":"maxCredsCountedForVote","type":"uint256"},{"internalType":"uint256","name":"minProposalVotes","type":"uint256"},{"internalType":"uint256","name":"proposalTime","type":"uint256"},{"internalType":"uint256","name":"proposalDelay","type":"uint256"},{"internalType":"bool","name":"isInviteOnly","type":"bool"}],"stateMutability":"view","type":"function"},{"inputs":[{"internalType":"string","name":"_communityName","type":"string"}],"name":"getCommunityIsInviteOnly","outputs":[{"internalType":"bool","name":"","type":"bool"}],"stateMutability":"view","type":"function"},{"inputs":[{"internalType":"string","name":"_communityName","type":"string"},{"internalType":"address","name":"_add","type":"address"}],"name":"getCommunityIsOwner","outputs":[{"internalType":"bool","name":"","type":"bool"}],"stateMutability":"view","type":"function"},{"inputs":[{"internalType":"string","name":"_communityName","type":"string"}],"name":"getCommunityOwner","outputs":[{"internalType":"address","name":"","type":"address"}],"stateMutability":"view","type":"function"},{"inputs":[],"name":"getFee","outputs":[{"internalType":"uint256","name":"","type":"uint256"}],"stateMutability":"view","type":"function"},{"inputs":[{"internalType":"string","name":"_communityName","type":"string"}],"name":"getMemberAccessContract","outputs":[{"internalType":"address","name":"","type":"address"}],"stateMutability":"view","type":"function"},{"inputs":[{"internalType":"uint256","name":"_numIdsreturned","type":"uint256"},{"internalType":"uint256","name":"_pageNumber","type":"uint256"}],"name":"getPaginatedActiveProposals","outputs":[{"internalType":"uint256[]","name":"","type":"uint256[]"},{"internalType":"uint256","name":"numPages","type":"uint256"}],"stateMutability":"view","type":"function"},{"inputs":[{"internalType":"string","name":"_communityName","type":"string"},{"internalType":"uint256","name":"_numIdsreturned","type":"uint256"},{"internalType":"uint256","name":"_pageNumber","type":"uint256"}],"name":"getPaginatedCommunityProposals","outputs":[{"internalType":"uint256[]","name":"","type":"uint256[]"},{"internalType":"uint256","name":"numPages","type":"uint256"}],"stateMutability":"view","type":"function"},{"inputs":[{"internalType":"uint256","name":"_proposalId","type":"uint256"}],"name":"getProposalResults","outputs":[{"internalType":"bool","name":"isActive","type":"bool"},{"internalType":"bool","name":"passed","type":"bool"}],"stateMutability":"view","type":"function"},{"inputs":[{"internalType":"uint256","name":"_proposalId","type":"uint256"}],"name":"getProposalType","outputs":[{"internalType":"uint256","name":"","type":"uint256"}],"stateMutability":"view","type":"function"},{"inputs":[{"internalType":"address","name":"_address","type":"address"},{"internalType":"uint256","name":"_proposalId","type":"uint256"}],"name":"getProposalVote","outputs":[{"internalType":"uint256","name":"approveVotes","type":"uint256"},{"internalType":"uint256","name":"approveCreds","type":"uint256"},{"internalType":"uint256","name":"denyVotes","type":"uint256"},{"internalType":"uint256","name":"denyCreds","type":"uint256"},{"internalType":"bool","name":"","type":"bool"}],"stateMutability":"view","type":"function"},{"inputs":[{"internalType":"address","name":"","type":"address"}],"name":"hasOpenProposal","outputs":[{"internalType":"bool","name":"","type":"bool"}],"stateMutability":"view","type":"function"},{"inputs":[{"internalType":"bytes","name":"_performData","type":"bytes"}],"name":"performUpkeep","outputs":[],"stateMutability":"nonpayable","type":"function"},{"inputs":[{"internalType":"string","name":"","type":"string"},{"internalType":"uint256","name":"","type":"uint256"}],"name":"porposalsByCommunity","outputs":[{"internalType":"uint256","name":"","type":"uint256"}],"stateMutability":"view","type":"function"},{"inputs":[{"internalType":"uint256","name":"","type":"uint256"}],"name":"proposals","outputs":[{"internalType":"address","name":"proposer","type":"address"},{"internalType":"string","name":"communityName","type":"string"},{"internalType":"uint256","name":"timestamp","type":"uint256"},{"internalType":"uint256","name":"propType","type":"uint256"},{"internalType":"uint256","name":"activeProposalsIndex","type":"uint256"},{"internalType":"uint256","name":"approveVotes","type":"uint256"},{"internalType":"uint256","name":"denyVotes","type":"uint256"},{"internalType":"uint256","name":"approveCreds","type":"uint256"},{"internalType":"uint256","name":"denyCreds","type":"uint256"},{"internalType":"bool","name":"isActive","type":"bool"},{"internalType":"bool","name":"passed","type":"bool"}],"stateMutability":"view","type":"function"},{"inputs":[{"internalType":"uint256","name":"_feePrice","type":"uint256"}],"name":"setFee","outputs":[],"stateMutability":"nonpayable","type":"function"},{"inputs":[{"internalType":"address payable","name":"_feeAddress","type":"address"}],"name":"setFeeAddress","outputs":[],"stateMutability":"nonpayable","type":"function"},{"inputs":[{"internalType":"uint256","name":"_mpt","type":"uint256"}],"name":"setMaxProposalTime","outputs":[],"stateMutability":"nonpayable","type":"function"},{"inputs":[{"internalType":"uint256","name":"_propId","type":"uint256"}],"name":"setProposalCanceled","outputs":[],"stateMutability":"nonpayable","type":"function"},{"inputs":[{"internalType":"uint256","name":"_count","type":"uint256"}],"name":"setProposalCounter","outputs":[],"stateMutability":"nonpayable","type":"function"},{"inputs":[{"internalType":"uint256","name":"_proposalId","type":"uint256"}],"name":"setProposalInactive","outputs":[],"stateMutability":"nonpayable","type":"function"},{"inputs":[{"internalType":"uint256","name":"_upkeepId","type":"uint256"}],"name":"setUpkkepId","outputs":[],"stateMutability":"nonpayable","type":"function"},{"inputs":[{"internalType":"address","name":"_contractAddress","type":"address"}],"name":"setlearntgetherMembersContract","outputs":[],"stateMutability":"nonpayable","type":"function"},{"inputs":[],"name":"upkeepId","outputs":[{"internalType":"uint256","name":"","type":"uint256"}],"stateMutability":"view","type":"function"},{"inputs":[{"internalType":"uint256","name":"proposalId","type":"uint256"},{"internalType":"bool","name":"voteChoice","type":"bool"}],"name":"vote","outputs":[],"stateMutability":"nonpayable","type":"function"}],"evm":{"bytecode":{"linkReferences":{},"object":"608034620000ee57601f62002dc538819003918201601f19168301916001600160401b03831184841017620000da578084926040948552833981010312620000ee5780516020909101516001600160a01b03811690819003620000ee5760018060a01b03193381600a541617600a55600c541617600c55600b5562786450600355600160055560075468010000000000000000811015620000da576001810180600755811015620000c6575f9060078252602082200155604051612cd29081620000f38239f35b634e487b7160e01b5f52603260045260245ffd5b634e487b7160e01b5f52604160045260245ffd5b5f80fdfe60806040526004361015610011575f80fd5b5f3560e01c8063013cf08b146121fa5780630163b968146121d257806304413d861461216d5780630dc85f7d146121225780631282f609146120df57806325f8729f1461209757806328adc24014611fd1578063298a575014611f0057806331b4ea2e14611b9f5780633df6735214611b175780634585e33b1461177c578063495d855e1461175f5780635787a0cc146117315780635bdcd008146116f45780636219f1171461143f57806368535709146113c857806369fe0e2d1461139a578063789aa8f6146112755780637b7fcfed1461120c5780638126d895146111aa578063860eb3d9146111045780638705fcd4146110b85780638b6404401461108a57806390943a8b14611058578063a13abdad14610f05578063a169093b14610ed7578063a64108d514610d5b578063b07bcbc514610aa1578063b3f6702d14610a21578063b60a85ae146109f4578063c2c2e5f81461097b578063c9d27afe1461052e578063cbe02a9f1461049a578063ced72f8714610207578063d0d839231461026e578063d2aa789f14610251578063d978ffba14610224578063ddca3f43146102075763ff1225d9146101c6575f80fd5b34610203576020366003190112610203576001600160a01b036101e7612461565b165f526009602052602060ff60405f2054166040519015158152f35b5f80fd5b34610203575f366003190112610203576020600b54604051908152f35b34610203576020366003190112610203576004355f5260066020526020600360405f200154604051908152f35b34610203575f366003190112610203576020600e54604051908152f35b3461020357602080600319360112610203576004355f8181526006835260409020546001600160a01b0316330361045957805f5260068252600160ff600a60405f2001541615150361041457805f5260068252600460405f200154916007549060018211156103d0575f1982019182116103bc5783826006935f9603610325575b50508284525281600460408220600a810160ff1981541690550155610312612b23565b5f80516020612c7d8339815191528280a3005b7ff041f52db3fd2f56a979d9dd319aa6a6e399c198410349cf154eb4b4568d7daa9161037d6103556040936124e4565b9054610360846124e4565b91909260031b1c9082549060031b91821b915f19901b1916179055565b610386816124e4565b90549060031b1c875284845280600483892001556103a3816124e4565b90549060031b1c90825191825284820152a184806102ef565b634e487b7160e01b5f52601160045260245ffd5b6064906040519062461bcd60e51b82526004820152601d60248201527f546865726520617265206e6f206163746976652050726f706f73616c730000006044820152fd5b60405162461bcd60e51b815260048101839052601b60248201527f546869732070726f706f73616c206973206e6f742061637469766500000000006044820152606490fd5b60405162461bcd60e51b81526004810183905260196024820152785573657220646964206e6f742070726f706f7365207468697360381b6044820152606490fd5b34610203576020366003190112610203576004356001600160401b038111610203576104cc602091369060040161241b565b600561051a8360405193805190610509838201926104eb8189866123ba565b87015f8152878560018060a01b03998a930301902054161515612ba6565b6040519384928392519283916123ba565b81015f815203019020015416604051908152f35b34610203576040366003190112610203576024803580151591600435908383036102035760055482101561093c57815f526020906006825260405f20906001918260ff600a830154161515036108f8576002810154918382019261059e6007610596866129e1565b015482612a6f565b42101590816108c8575b501561088c57600d54604051635848e2a360e11b81526001600160a01b0390911693908681806105dc853360048401612a7c565b0381885afa80156107c25786915f9161085f575b5015150361080b576009830193335f5284875260ff60405f2054166107cd578660405180926302b5df5960e01b8252818061062f873360048401612a7c565b03915afa9081156107c2575f91610795575b50600261064d836129e1565b01548112610751576003610660836129e1565b015481131561074957506106756003916129e1565b0154965b156106fa57600582018054918583018093116106e75750916007917f7c2de587c00d75474a0c6c6fa96fd3b45dc974cd4e8a75f712bb84c950dce1b59695949355016106c6878254612a6f565b90555b335f52825260405f209060ff198254161790556040519384523393a4005b634e487b7160e01b5f9081526011600452fd5b600682018054918583018093116106e75750916008917f7c2de587c00d75474a0c6c6fa96fd3b45dc974cd4e8a75f712bb84c950dce1b5969594935501610742878254612a6f565b90556106c9565b905096610679565b60405162461bcd60e51b815260048101889052601b818501527f496e73756666696369656e7420637265647320746f20766f74652e00000000006044820152606490fd5b90508681813d83116107bb575b6107ac81836122f8565b8101031261020357518a610641565b503d6107a2565b6040513d5f823e3d90fd5b60405162461bcd60e51b815260048101889052601781850152762cb7ba903430bb329030b63932b0b23c903b37ba32b21760491b6044820152606490fd5b60405162461bcd60e51b8152600481018790526027818401527f596f7520617265206e6f742061206d656d626572206f66207468697320636f6d60448201526636bab734ba3c9760c91b6064820152608490fd5b61087f9150883d8a11610885575b61087781836122f8565b8101906127d8565b8b6105f0565b503d61086d565b8460166064926040519262461bcd60e51b84526004840152820152754e6f742041637469766520566f74696e672054696d6560501b6044820152fd5b6108ef91506108e49060076108dc876129e1565b015490612a6f565b60066108dc866129e1565b421115896105a8565b60405162461bcd60e51b815260048101859052601c818401527f50726f706f73616c206973206e6f206c6f6e67657220416374697665000000006044820152606490fd5b60649060186040519162461bcd60e51b83526020600484015282015277283937b837b9b0b6103237b2b9903737ba1032bc34b9ba1760411b6044820152fd5b34610203576040366003190112610203576004356001600160401b038111610203576109ab90369060040161241b565b6109c760206024359281604051938285809451938492016123ba565b810160088152030190208054821015610203576020916109e6916124fc565b90546040519160031b1c8152f35b34610203576020366003190112610203576004355f5260066020526020600460405f200154604051908152f35b34610203576020366003190112610203576004356001600160401b03811161020357610a53602091369060040161241b565b610a8e826040519280519061050983820192610a708188866123ba565b86015f8152868560018060a01b039889930301902054161515612ba6565b81015f8152030190205416604051908152f35b610aaa36612477565b604051825190602093610ae385820193610ac58185876123ba565b83015f8152838760018060a01b039586930301902054161515612724565b325f5260098552610afb60ff60405f2054161561276a565b81600d5416604051635848e2a360e11b8152868180610b1e8632600484016127f0565b0381855afa9081156107c257610b41916001915f91610d3e575b50151514612815565b8560405180926302b5df5960e01b82528180610b618732600484016127f0565b03915afa9081156107c2575f91610d11575b5060405186818451610b8681838a6123ba565b81015f815203019020600101541315610b9e90612872565b600b543414610bac906128be565b600580545f908152600687526040902080546001600160a01b0319908116331782559195919290610be082600183016125fc565b42600282015560075460048201556003810160029055600a019460ff199586815416600117905587875492610c1481612704565b6040514281528381016002905285339160407f6c98a8c940418b35614f0cd02412d5c9606faff474cbb6cdd6640ba5d1a9f06b91a460405180938192518092610c5c926123ba565b8101600881520301902090610c70916129b0565b84545f52600486528260405f209116809282541617905532908454907f6a319039caa9a0b231fc1a3d10d617c656e322ebac0d326e9d0c95cbde9248a45f80a43490600c54165a5f809381938293f1610cc7612903565b50610cd190612932565b325f526009835260405f209081541660011790558054610cf090612975565b8054610cfb906129d3565b8091555f1981019081116103bc57604051908152f35b90508581813d8311610d37575b610d2881836122f8565b81010312610203575186610b73565b503d610d1e565b610d559150893d8b116108855761087781836122f8565b89610b38565b346102035760208060031936011261020357600435906001600160401b03821161020357610d8f60e092369060040161241b565b9060405191610dc881519383830194610da98183886123ba565b5f90820190815281900384019020546001600160a01b03161515612ba6565b600160405183818451610ddc81838a6123ba565b81015f815203019020015492600260405184818551610dfc8183886123ba565b81015f8152030190200154600360405185818651610e1b8183896123ba565b81015f8152030190200154600460405186818751610e3a81838a6123ba565b81015f81520301902001549160ff6008610ea4886006610e67828a8c6040519384928392519283916123ba565b81015f815203019020015497600760405183818d51610e878183886123ba565b81015f8152030190200154996040519384928392519283916123ba565b81015f8152030190200154169560405197885287015260408601526060850152608084015260a0830152151560c0820152f35b3461020357602036600319011261020357610efd60018060a01b03600a54163314612b61565b600435600355005b34610203575f366003190112610203575f80600780549081610f81575b50506040519060208201526020815260408101918183106001600160401b03841117610f6d57826040521515825260406060820152603f1990610f6860808201826123db565b030190f35b634e487b7160e01b5f52604160045260245ffd5b5f9060015b838110610f94575050610f22565b610f9d816124e4565b9054600391821b1c5f52611004600660209080825280610fe2600260405f200154610fc7886124e4565b905490881b1c5f52828552886108dc600160405f20016129e1565b92610fec876124e4565b905490871b1c5f52526108dc600160405f20016129e1565b4281111580611046575b611023575b505061101e906129d3565b610f86565b95509550915061101e600195611038846124e4565b9054911b1c94929087611013565b50848111158061100e5750841561100e565b34610203576020366003190112610203576004355f526004602052602060018060a01b0360405f205416604051908152f35b34610203576020366003190112610203576110b060018060a01b03600a54163314612b61565b600435600555005b34610203576020366003190112610203576004356001600160a01b0381811691829003610203576110ee90600a54163314612b61565b600c80546001600160a01b031916919091179055005b346102035760403660031901126102035760043561112181612c05565b905f61112f82602435612c37565b9061113a8383612a6f565b90600754928383116111a2575b905b82821061116f578561115b8686612c5e565b9061116b60405192839283612579565b0390f35b61119661119c9161117f846124e4565b90549060031b1c611190828a612c4a565b526129d3565b916129d3565b90611149565b839250611147565b34610203576020366003190112610203576004355f52600260205260405f20805461116b600183015492600281015490600381015460018060a01b0360048301541660058301549160ff600760068601549501541694604051988998896125bb565b34610203576020366003190112610203576004356001600160401b0381116102035761123e602091369060040161241b565b8161125260405192838151938492016123ba565b5f90820190815281900382019020546040516001600160a01b0390911615158152f35b34610203576060366003190112610203576004356001600160401b038111610203576112a590369060040161241b565b6024356112b181612c05565b915f6112bf83604435612c37565b916112ca8484612a6f565b9060405191815193602095868401956112e48187896123ba565b850194878160089788815203019020548311611376575b905b828210611330578861115b896113218a8a8a8a6040519485938492519283916123ba565b82019081520301902054612c5e565b6111966113709161135f846113518b8b604051809381928d519283916123ba565b81018c8152030190206124fc565b90549060031b1c611190828d612c4a565b906112fd565b91506040518681855161138a81838b6123ba565b81018781520301902054916112fb565b34610203576020366003190112610203576113c060018060a01b03600a54163314612b61565b600435600b55005b346102035760403660031901126102035760a06113e3612461565b6024355f52600660205260405f206005810154916007820154916009600682015491600881015493600180891b03165f520160205260ff60405f2054169260405194855260208501526040840152606083015215156080820152f35b346102035761144d36612511565b92829491929897959891604051895190602097888c019261146f8184866123ba565b82015f8152828a60018060a01b039485930301902054166116b357918b89928b8f8e8c976003548091116116aa575b5092600895926115d495926115ef999895604051878187516114c181838c6123ba565b81015f8152030190209260018060a01b031993338582541617905560016040518981806114f28c8c519283916123ba565b81015f815203019020015560026040518881885161151181838d6123ba565b81015f815203019020015560036040518781875161153081838c6123ba565b81015f81520301902001558960046040518781875161155081838c6123ba565b81015f815203019020015560056040518681865161156f81838b6123ba565b81015f81520301902001918b16908254161790558960066040518581855161159881838a6123ba565b81015f81520301902001558a6007604051858185516115b881838a6123ba565b81015f81520301902001556040519384928392519283916123ba565b81015f815203019020019060ff801983541691151516179055565b600154600160401b811015610f6d5780600161160e92016001556124b8565b6116975789611692976116457fa33e969841918d6c70510ff52aaf2f08256c371553465cdd2beb001c23b0f5049c611685946125fc565b7f770333f2d96faae538a5391fa34d7f90a88dc8af3aadcb1735c43839cb695566604061167184612704565b928151903382528b151590820152a2612704565b99604051988998896125bb565b0390a2005b634e487b7160e01b5f525f60045260245ffd5b9a50600861149e565b60405162461bcd60e51b8152600481018a9052601960248201527821b7b6b6bab734ba3c9030b63932b0b23c9032bc34b9ba399760391b6044820152606490fd5b34610203576020366003190112610203576004355f5260066020526040600a815f20015460ff8251918181161515835260081c1615156020820152f35b346102035760203660031901126102035761175760018060a01b03600a54163314612b61565b600435600e55005b34610203575f366003190112610203576020600754604051908152f35b3461020357602080600319360112610203576004356001600160401b038082116102035736602383011215610203578160040135908111610203578101366024820111610203578183910312610203576024013590815f5260069182825260405f2060029061180f6117fa8383015460076108dc60018096016129e1565b845f52868652866108dc8460405f20016129e1565b8315159081611b0c575b81611b02575b5061182657005b825f5284845260405f20916005830154868401548082119182611ad2575b82611ab0575b505015611a3c578160038401548281145f146119a257505050825f5260048452808360018060a01b0360405f2054167fca5be02c86f988b49c8f55fa1445e2252a5de3afaa608cc35db41feb6c22f83a5f80a45b825f80516020612c7d8339815191525f80a3815f52838352600a60405f200161010061ff00198254161790555b546001600160a01b03165f908152600983526040808220805460ff199081169091558383528585529120600a81018054909216909155600401546007545f1981019081116103bc57808203611933575b50505f52525f6004604082200155611931612b23565b005b7ff041f52db3fd2f56a979d9dd319aa6a6e399c198410349cf154eb4b4568d7daa916119636103556040936124e4565b61196c816124e4565b90549060031b1c5f52858552806004835f200155611989816124e4565b90549060031b1c90825191825285820152a1838061191b565b146119ae575b5061189e565b611a3690600860ff60076119c38688016129e1565b93885f52808a5260405f2090815488870155878201548187015581015460038601556003810154600486015560018060a01b03600482015416600586019060018060a01b031982541617905560058101548b8601558a8101548286015501541691019060ff801983541691151516179055565b856119a8565b9050825f52848452600a60405f200161ff001981541690555f835f80516020612c7d8339815191528280a36003820154036118cb576004835260405f9081205483906001600160a01b03167fca5be02c86f988b49c8f55fa1445e2252a5de3afaa608cc35db41feb6c22f83a8380a46118cb565b611aba9250612a6f565b6004611ac78486016129e1565b01541115878061184a565b915060078501546008860154108015611aec575b91611844565b506003611afa8587016129e1565b015415611ae6565b905015158661181f565b428111159150611819565b34610203576020366003190112610203576004356001600160401b0381116102035760ff6008611b896020611b518195369060040161241b565b6040519061050981519284830193611b6a8183876123ba565b5f90820190815281900385019020546001600160a01b03161515612ba6565b81015f8152030190200154166040519015158152f35b611ba836612511565b92611bea60206040999698979994939451611bc98c828151948592016123ba565b5f918101918252908190036020019020546001600160a01b03161515612724565b325f526009602052611c0360ff60405f2054161561276a565b600d54604051635848e2a360e11b81526001600160a01b039091169060208180611c318e32600484016127f0565b0381855afa9081156107c257611c7692611c5a60016020948f945f91611ee35750151514612815565b60405180809581946302b5df5960e01b835232600484016127f0565b03915afa9081156107c2578a905f92611ea1575b5097611ce5611e2a96959493926001611cd360207f65513f3a4b238816f691e4322be549c10eeaa1ef78fe116618b0d83e5ca252b69d81604051938285809451938492016123ba565b81015f81520301902001541315612872565b611cf2600b5434146128be565b84836005545f5260026020528c60405f2091600354809111611e97575b50600660205260405f2080546001600160a01b03191633178155611e1e93926007929091611dd09190611d4582600183016125fc565b4260028201558454600482015560016003820155600a600160ff19828401541617910155611dc1602060055492611d7b81612704565b604051428152600184820152857f6c98a8c940418b35614f0cd02412d5c9606faff474cbb6cdd6640ba5d1a9f06b60403393a481604051938285809451938492016123ba565b810160088152030190206129b0565b8a81558b60018201558d60028201558460038201556004810160018060a01b03871660018060a01b0319825416179055866005820155876006820155019060ff801983541691151516179055565b6116856005549b612704565b0390a3611e505f8080803460018060a01b03600c54165af1611e4a612903565b50612932565b335f52600960205260405f20600160ff19825416179055611e72600554612975565b611e7d6005546129d3565b806005555f1981019081116103bc57602090604051908152f35b9550611e1e611d0f565b959493929150506020853d602011611edb575b81611ec1602093836122f8565b810103126102035793519293919290919089611ce5611c8a565b3d9150611eb4565b611efa9150863d88116108855761087781836122f8565b5f610b38565b3461020357611f0e36612477565b90604051908051906020810191611f268185856123ba565b83015f815283602060018060a01b039586930301902054163303611f7c57611f5c916020916040519384928392519283916123ba565b5f9082019081520301902080546001600160a01b03191691909216179055005b60405162461bcd60e51b815260206004820152602760248201527f55736572206973206e6f7420746865206f776e6572206f66207468697320636f6044820152666d6d756e69747960c81b6064820152608490fd5b34610203576020366003190112610203576004356001600160401b0381116102035761201c602061200961012093369060040161241b565b81604051938285809451938492016123ba565b81015f81520301902060018060a01b0380825416916001810154916002820154906003830154906004840154906005850154169160068501549360ff600860078801549701541696604051988952602089015260408801526060870152608086015260a085015260c084015260e08301521515610100820152f35b34610203576020366003190112610203576120b0612461565b600a546001600160a01b0391906120ca9083163314612b61565b1660018060a01b0319600d541617600d555f80f35b346102035760203660031901126102035761210560018060a01b03600a54163314612b61565b6004355f908152600660205260409020600a01805460ff19169055005b346102035760203660031901126102035760043560015481101561020357612149906124b8565b6116975761215961116b91612319565b6040519182916020835260208301906123db565b346102035760208061217e36612477565b91906121bc82604051928051906105098382019261219d8188866123ba565b86015f81528660018060a01b0398899889930301902054161515612ba6565b81015f8152030190205416906040519216148152f35b34610203575f36600319011261020357600d546040516001600160a01b039091168152602090f35b34610203576020366003190112610203576004355f90815260066020526040902080546001600160a01b031661223260018301612319565b9160ff60028201549160038101549060048101546005820154600683015490600784015492600a6008860154950154956122806040519b8c9b8c5260208c61016091829101528c01906123db565b9860408b015260608a0152608089015260a088015260c087015260e0860152610100850152818116151561012085015260081c1615156101408301520390f35b90600182811c921680156122ee575b60208310146122da57565b634e487b7160e01b5f52602260045260245ffd5b91607f16916122cf565b90601f801991011681019081106001600160401b03821117610f6d57604052565b9060405191825f82549261232c846122c0565b9081845260019485811690815f146123975750600114612357575b5050612355925003836122f8565b565b909391505f52602090815f20935f915b81831061237f57505061235593508201015f80612347565b85548884018501529485019487945091830191612367565b91505061235594506020925060ff191682840152151560051b8201015f80612347565b5f5b8381106123cb5750505f910152565b81810151838201526020016123bc565b906020916123f4815180928185528580860191016123ba565b601f01601f1916010190565b6001600160401b038111610f6d57601f01601f191660200190565b81601f820112156102035780359061243282612400565b9261244060405194856122f8565b8284526020838301011161020357815f926020809301838601378301015290565b600435906001600160a01b038216820361020357565b604060031982011261020357600435906001600160401b038211610203576124a19160040161241b565b906024356001600160a01b03811681036102035790565b6001548110156124d05760015f5260205f2001905f90565b634e487b7160e01b5f52603260045260245ffd5b6007548110156124d05760075f5260205f2001905f90565b80548210156124d0575f5260205f2001905f90565b61012060031982011261020357600435906001600160401b0382116102035761253c9160040161241b565b906024359060443590606435906084359060a4356001600160a01b0381168103610203579060c4359060e435906101043580151581036102035790565b9291906040840160408552815180915260608501906020809301905f5b848282106125a75750505050930152565b835185529384019390920191600101612596565b969390989794919260e0969361010089019a895260208901526040880152606087015260018060a01b0316608086015260a085015260c08401521515910152565b91909182516001600160401b038111610f6d5761261982546122c0565b601f81116126bd575b50602080601f831160011461265d5750819293945f92612652575b50508160011b915f199060031b1c1916179055565b015190505f8061263d565b90601f19831695845f52825f20925f905b8882106126a55750508360019596971061268d575b505050811b019055565b01515f1960f88460031b161c191690555f8080612683565b8060018596829496860151815501950193019061266e565b5f83815260208120601f840160051c810192602085106126fa575b601f0160051c01915b8281106126ef575050612622565b8181556001016126e1565b90925082906126d8565b61271c906020604051928284809451938492016123ba565b810103902090565b1561272b57565b60405162461bcd60e51b815260206004820152601760248201527610dbdb5b5d5b9a5d1e48191bd95cdb89dd08195e1a5cdd604a1b6044820152606490fd5b1561277157565b60405162461bcd60e51b815260206004820152603960248201527f5573657220686173204f70656e205265766965772c20506c65617365207761696044820152783a103ab73a34b6361034ba1034b990383937b1b2b9b9b2b21760391b6064820152608490fd5b90816020910312610203575180151581036102035790565b6001600160a01b039091168152604060208201819052612812929101906123db565b90565b1561281c57565b60405162461bcd60e51b815260206004820152602860248201527f596f7520617265206e6f742061206d656d62657220666f72207468697320636f60448201526736b6bab734ba3c9760c11b6064820152608490fd5b1561287957565b60405162461bcd60e51b815260206004820152601e60248201527f496e73756666696369656e7420637265647320746f2070726f706f73652e00006044820152606490fd5b156128c557565b60405162461bcd60e51b81526020600482015260166024820152754d7573742073656e642070726f706f73616c2066656560501b6044820152606490fd5b3d1561292d573d9061291482612400565b9161292260405193846122f8565b82523d5f602084013e565b606090565b1561293957565b60405162461bcd60e51b81526020600482015260146024820152732330b4b632b2103a379039b2b7321022ba3432b960611b6044820152606490fd5b60075490600160401b821015610f6d5761299882600161235594016007556124e4565b90919082549060031b91821b915f19901b1916179055565b80549190600160401b831015610f6d5782612998916001612355950181556124fc565b5f1981146103bc5760010190565b60405190815f82546129f2816122c0565b93600191808316908115612a535750600114612a19575b5050602092505f81520301902090565b9091505f52602090815f20905f915b858310612a3f575050505060209181015f80612a09565b805487840152869450918301918101612a28565b92505050602093915060ff191682528015150281015f80612a09565b919082018092116103bc57565b919060018060a01b031682526020916040838201525f928254612a9e816122c0565b9384604085015260019182811690815f14612afe5750600114612ac4575b505050505090565b5f908152828120949550935b858510612aea575050506060925001015f80808080612abc565b805485850160600152938201938101612ad0565b93505050506060935060ff929192191683830152151560051b01015f80808080612abc565b6007548015612b4d575f1990810190612b3b826124e4565b909182549160031b1b19169055600755565b634e487b7160e01b5f52603160045260245ffd5b15612b6857565b60405162461bcd60e51b81526020600482015260166024820152752737ba103a34329031b7b73a3930b1ba1037bbb732b960511b6044820152606490fd5b15612bad57565b60405162461bcd60e51b815260206004820152601960248201527810dbdb5b5d5b9a5d1e48111bd95cc8139bdd08115e1cda5cdd603a1b6044820152606490fd5b6001600160401b038111610f6d5760051b60200190565b90612c0f82612bee565b612c1c60405191826122f8565b8281528092612c2d601f1991612bee565b0190602036910137565b818102929181159184041417156103bc57565b80518210156124d05760209160051b010190565b8115612c68570490565b634e487b7160e01b5f52601260045260245ffdfe35baaec8d9c9da1c77f27119243a4384b49eae2bf0680aa0eebe3b62d28574a5a2646970667358221220f42a1e8db15247a15a89feda0b573648a33fd7324f886d0aac7d012ad617313964736f6c63430008140033","opcodes":"PUSH1 0x80 CALLVALUE PUSH3 0xEE JUMPI PUSH1 0x1F PUSH3 0x2DC5 CODESIZE DUP2 SWAP1 SUB SWAP2 DUP3 ADD PUSH1 0x1F NOT AND DUP4 ADD SWAP2 PUSH1 0x1 PUSH1 0x1 PUSH1 0x40 SHL SUB DUP4 GT DUP5 DUP5 LT OR PUSH3 0xDA JUMPI DUP1 DUP5 SWAP3 PUSH1 0x40 SWAP5 DUP6 MSTORE DUP4 CODECOPY DUP2 ADD SUB SLT PUSH3 0xEE JUMPI DUP1 MLOAD PUSH1 0x20 SWAP1 SWAP2 ADD MLOAD PUSH1 0x1 PUSH1 0x1 PUSH1 0xA0 SHL SUB DUP2 AND SWAP1 DUP2 SWAP1 SUB PUSH3 0xEE JUMPI PUSH1 0x1 DUP1 PUSH1 0xA0 SHL SUB NOT CALLER DUP2 PUSH1 0xA SLOAD AND OR PUSH1 0xA SSTORE PUSH1 0xC SLOAD AND OR PUSH1 0xC SSTORE PUSH1 0xB SSTORE PUSH3 0x786450 PUSH1 0x3 SSTORE PUSH1 0x1 PUSH1 0x5 SSTORE PUSH1 0x7 SLOAD PUSH9 0x10000000000000000 DUP2 LT ISZERO PUSH3 0xDA JUMPI PUSH1 0x1 DUP2 ADD DUP1 PUSH1 0x7 SSTORE DUP2 LT ISZERO PUSH3 0xC6 JUMPI PUSH0 SWAP1 PUSH1 0x7 DUP3 MSTORE PUSH1 0x20 DUP3 KECCAK256 ADD SSTORE PUSH1 0x40 MLOAD PUSH2 0x2CD2 SWAP1 DUP2 PUSH3 0xF3 DUP3 CODECOPY RETURN JUMPDEST PUSH4 0x4E487B71 PUSH1 0xE0 SHL PUSH0 MSTORE PUSH1 0x32 PUSH1 0x4 MSTORE PUSH1 0x24 PUSH0 REVERT JUMPDEST PUSH4 0x4E487B71 PUSH1 0xE0 SHL PUSH0 MSTORE PUSH1 0x41 PUSH1 0x4 MSTORE PUSH1 0x24 PUSH0 REVERT JUMPDEST PUSH0 DUP1 REVERT INVALID PUSH1 0x80 PUSH1 0x40 MSTORE PUSH1 0x4 CALLDATASIZE LT ISZERO PUSH2 0x11 JUMPI PUSH0 DUP1 REVERT JUMPDEST PUSH0 CALLDATALOAD PUSH1 0xE0 SHR DUP1 PUSH4 0x13CF08B EQ PUSH2 0x21FA JUMPI DUP1 PUSH4 0x163B968 EQ PUSH2 0x21D2 JUMPI DUP1 PUSH4 0x4413D86 EQ PUSH2 0x216D JUMPI DUP1 PUSH4 0xDC85F7D EQ PUSH2 0x2122 JUMPI DUP1 PUSH4 0x1282F609 EQ PUSH2 0x20DF JUMPI DUP1 PUSH4 0x25F8729F EQ PUSH2 0x2097 JUMPI DUP1 PUSH4 0x28ADC240 EQ PUSH2 0x1FD1 JUMPI DUP1 PUSH4 0x298A5750 EQ PUSH2 0x1F00 JUMPI DUP1 PUSH4 0x31B4EA2E EQ PUSH2 0x1B9F JUMPI DUP1 PUSH4 0x3DF67352 EQ PUSH2 0x1B17 JUMPI DUP1 PUSH4 0x4585E33B EQ PUSH2 0x177C JUMPI DUP1 PUSH4 0x495D855E EQ PUSH2 0x175F JUMPI DUP1 PUSH4 0x5787A0CC EQ PUSH2 0x1731 JUMPI DUP1 PUSH4 0x5BDCD008 EQ PUSH2 0x16F4 JUMPI DUP1 PUSH4 0x6219F117 EQ PUSH2 0x143F JUMPI DUP1 PUSH4 0x68535709 EQ PUSH2 0x13C8 JUMPI DUP1 PUSH4 0x69FE0E2D EQ PUSH2 0x139A JUMPI DUP1 PUSH4 0x789AA8F6 EQ PUSH2 0x1275 JUMPI DUP1 PUSH4 0x7B7FCFED EQ PUSH2 0x120C JUMPI DUP1 PUSH4 0x8126D895 EQ PUSH2 0x11AA JUMPI DUP1 PUSH4 0x860EB3D9 EQ PUSH2 0x1104 JUMPI DUP1 PUSH4 0x8705FCD4 EQ PUSH2 0x10B8 JUMPI DUP1 PUSH4 0x8B640440 EQ PUSH2 0x108A JUMPI DUP1 PUSH4 0x90943A8B EQ PUSH2 0x1058 JUMPI DUP1 PUSH4 0xA13ABDAD EQ PUSH2 0xF05 JUMPI DUP1 PUSH4 0xA169093B EQ PUSH2 0xED7 JUMPI DUP1 PUSH4 0xA64108D5 EQ PUSH2 0xD5B JUMPI DUP1 PUSH4 0xB07BCBC5 EQ PUSH2 0xAA1 JUMPI DUP1 PUSH4 0xB3F6702D EQ PUSH2 0xA21 JUMPI DUP1 PUSH4 0xB60A85AE EQ PUSH2 0x9F4 JUMPI DUP1 PUSH4 0xC2C2E5F8 EQ PUSH2 0x97B JUMPI DUP1 PUSH4 0xC9D27AFE EQ PUSH2 0x52E JUMPI DUP1 PUSH4 0xCBE02A9F EQ PUSH2 0x49A JUMPI DUP1 PUSH4 0xCED72F87 EQ PUSH2 0x207 JUMPI DUP1 PUSH4 0xD0D83923 EQ PUSH2 0x26E JUMPI DUP1 PUSH4 0xD2AA789F EQ PUSH2 0x251 JUMPI DUP1 PUSH4 0xD978FFBA EQ PUSH2 0x224 JUMPI DUP1 PUSH4 0xDDCA3F43 EQ PUSH2 0x207 JUMPI PUSH4 0xFF1225D9 EQ PUSH2 0x1C6 JUMPI PUSH0 DUP1 REVERT JUMPDEST CALLVALUE PUSH2 0x203 JUMPI PUSH1 0x20 CALLDATASIZE PUSH1 0x3 NOT ADD SLT PUSH2 0x203 JUMPI PUSH1 0x1 PUSH1 0x1 PUSH1 0xA0 SHL SUB PUSH2 0x1E7 PUSH2 0x2461 JUMP JUMPDEST AND PUSH0 MSTORE PUSH1 0x9 PUSH1 0x20 MSTORE PUSH1 0x20 PUSH1 0xFF PUSH1 0x40 PUSH0 KECCAK256 SLOAD AND PUSH1 0x40 MLOAD SWAP1 ISZERO ISZERO DUP2 MSTORE RETURN JUMPDEST PUSH0 DUP1 REVERT JUMPDEST CALLVALUE PUSH2 0x203 JUMPI PUSH0 CALLDATASIZE PUSH1 0x3 NOT ADD SLT PUSH2 0x203 JUMPI PUSH1 0x20 PUSH1 0xB SLOAD PUSH1 0x40 MLOAD SWAP1 DUP2 MSTORE RETURN JUMPDEST CALLVALUE PUSH2 0x203 JUMPI PUSH1 0x20 CALLDATASIZE PUSH1 0x3 NOT ADD SLT PUSH2 0x203 JUMPI PUSH1 0x4 CALLDATALOAD PUSH0 MSTORE PUSH1 0x6 PUSH1 0x20 MSTORE PUSH1 0x20 PUSH1 0x3 PUSH1 0x40 PUSH0 KECCAK256 ADD SLOAD PUSH1 0x40 MLOAD SWAP1 DUP2 MSTORE RETURN JUMPDEST CALLVALUE PUSH2 0x203 JUMPI PUSH0 CALLDATASIZE PUSH1 0x3 NOT ADD SLT PUSH2 0x203 JUMPI PUSH1 0x20 PUSH1 0xE SLOAD PUSH1 0x40 MLOAD SWAP1 DUP2 MSTORE RETURN JUMPDEST CALLVALUE PUSH2 0x203 JUMPI PUSH1 0x20 DUP1 PUSH1 0x3 NOT CALLDATASIZE ADD SLT PUSH2 0x203 JUMPI PUSH1 0x4 CALLDATALOAD PUSH0 DUP2 DUP2 MSTORE PUSH1 0x6 DUP4 MSTORE PUSH1 0x40 SWAP1 KECCAK256 SLOAD PUSH1 0x1 PUSH1 0x1 PUSH1 0xA0 SHL SUB AND CALLER SUB PUSH2 0x459 JUMPI DUP1 PUSH0 MSTORE PUSH1 0x6 DUP3 MSTORE PUSH1 0x1 PUSH1 0xFF PUSH1 0xA PUSH1 0x40 PUSH0 KECCAK256 ADD SLOAD AND ISZERO ISZERO SUB PUSH2 0x414 JUMPI DUP1 PUSH0 MSTORE PUSH1 0x6 DUP3 MSTORE PUSH1 0x4 PUSH1 0x40 PUSH0 KECCAK256 ADD SLOAD SWAP2 PUSH1 0x7 SLOAD SWAP1 PUSH1 0x1 DUP3 GT ISZERO PUSH2 0x3D0 JUMPI PUSH0 NOT DUP3 ADD SWAP2 DUP3 GT PUSH2 0x3BC JUMPI DUP4 DUP3 PUSH1 0x6 SWAP4 PUSH0 SWAP7 SUB PUSH2 0x325 JUMPI JUMPDEST POP POP DUP3 DUP5 MSTORE MSTORE DUP2 PUSH1 0x4 PUSH1 0x40 DUP3 KECCAK256 PUSH1 0xA DUP2 ADD PUSH1 0xFF NOT DUP2 SLOAD AND SWAP1 SSTORE ADD SSTORE PUSH2 0x312 PUSH2 0x2B23 JUMP JUMPDEST PUSH0 DUP1 MLOAD PUSH1 0x20 PUSH2 0x2C7D DUP4 CODECOPY DUP2 MLOAD SWAP2 MSTORE DUP3 DUP1 LOG3 STOP JUMPDEST PUSH32 0xF041F52DB3FD2F56A979D9DD319AA6A6E399C198410349CF154EB4B4568D7DAA SWAP2 PUSH2 0x37D PUSH2 0x355 PUSH1 0x40 SWAP4 PUSH2 0x24E4 JUMP JUMPDEST SWAP1 SLOAD PUSH2 0x360 DUP5 PUSH2 0x24E4 JUMP JUMPDEST SWAP2 SWAP1 SWAP3 PUSH1 0x3 SHL SHR SWAP1 DUP3 SLOAD SWAP1 PUSH1 0x3 SHL SWAP2 DUP3 SHL SWAP2 PUSH0 NOT SWAP1 SHL NOT AND OR SWAP1 SSTORE JUMP JUMPDEST PUSH2 0x386 DUP2 PUSH2 0x24E4 JUMP JUMPDEST SWAP1 SLOAD SWAP1 PUSH1 0x3 SHL SHR DUP8 MSTORE DUP5 DUP5 MSTORE DUP1 PUSH1 0x4 DUP4 DUP10 KECCAK256 ADD SSTORE PUSH2 0x3A3 DUP2 PUSH2 0x24E4 JUMP JUMPDEST SWAP1 SLOAD SWAP1 PUSH1 0x3 SHL SHR SWAP1 DUP3 MLOAD SWAP2 DUP3 MSTORE DUP5 DUP3 ADD MSTORE LOG1 DUP5 DUP1 PUSH2 0x2EF JUMP JUMPDEST PUSH4 0x4E487B71 PUSH1 0xE0 SHL PUSH0 MSTORE PUSH1 0x11 PUSH1 0x4 MSTORE PUSH1 0x24 PUSH0 REVERT JUMPDEST PUSH1 0x64 SWAP1 PUSH1 0x40 MLOAD SWAP1 PUSH3 0x461BCD PUSH1 0xE5 SHL DUP3 MSTORE PUSH1 0x4 DUP3 ADD MSTORE PUSH1 0x1D PUSH1 0x24 DUP3 ADD MSTORE PUSH32 0x546865726520617265206E6F206163746976652050726F706F73616C73000000 PUSH1 0x44 DUP3 ADD MSTORE REVERT JUMPDEST PUSH1 0x40 MLOAD PUSH3 0x461BCD PUSH1 0xE5 SHL DUP2 MSTORE PUSH1 0x4 DUP2 ADD DUP4 SWAP1 MSTORE PUSH1 0x1B PUSH1 0x24 DUP3 ADD MSTORE PUSH32 0x546869732070726F706F73616C206973206E6F74206163746976650000000000 PUSH1 0x44 DUP3 ADD MSTORE PUSH1 0x64 SWAP1 REVERT JUMPDEST PUSH1 0x40 MLOAD PUSH3 0x461BCD PUSH1 0xE5 SHL DUP2 MSTORE PUSH1 0x4 DUP2 ADD DUP4 SWAP1 MSTORE PUSH1 0x19 PUSH1 0x24 DUP3 ADD MSTORE PUSH25 0x5573657220646964206E6F742070726F706F73652074686973 PUSH1 0x38 SHL PUSH1 0x44 DUP3 ADD MSTORE PUSH1 0x64 SWAP1 REVERT JUMPDEST CALLVALUE PUSH2 0x203 JUMPI PUSH1 0x20 CALLDATASIZE PUSH1 0x3 NOT ADD SLT PUSH2 0x203 JUMPI PUSH1 0x4 CALLDATALOAD PUSH1 0x1 PUSH1 0x1 PUSH1 0x40 SHL SUB DUP2 GT PUSH2 0x203 JUMPI PUSH2 0x4CC PUSH1 0x20 SWAP2 CALLDATASIZE SWAP1 PUSH1 0x4 ADD PUSH2 0x241B JUMP JUMPDEST PUSH1 0x5 PUSH2 0x51A DUP4 PUSH1 0x40 MLOAD SWAP4 DUP1 MLOAD SWAP1 PUSH2 0x509 DUP4 DUP3 ADD SWAP3 PUSH2 0x4EB DUP2 DUP10 DUP7 PUSH2 0x23BA JUMP JUMPDEST DUP8 ADD PUSH0 DUP2 MSTORE DUP8 DUP6 PUSH1 0x1 DUP1 PUSH1 0xA0 SHL SUB SWAP10 DUP11 SWAP4 SUB ADD SWAP1 KECCAK256 SLOAD AND ISZERO ISZERO PUSH2 0x2BA6 JUMP JUMPDEST PUSH1 0x40 MLOAD SWAP4 DUP5 SWAP3 DUP4 SWAP3 MLOAD SWAP3 DUP4 SWAP2 PUSH2 0x23BA JUMP JUMPDEST DUP2 ADD PUSH0 DUP2 MSTORE SUB ADD SWAP1 KECCAK256 ADD SLOAD AND PUSH1 0x40 MLOAD SWAP1 DUP2 MSTORE RETURN JUMPDEST CALLVALUE PUSH2 0x203 JUMPI PUSH1 0x40 CALLDATASIZE PUSH1 0x3 NOT ADD SLT PUSH2 0x203 JUMPI PUSH1 0x24 DUP1 CALLDATALOAD DUP1 ISZERO ISZERO SWAP2 PUSH1 0x4 CALLDATALOAD SWAP1 DUP4 DUP4 SUB PUSH2 0x203 JUMPI PUSH1 0x5 SLOAD DUP3 LT ISZERO PUSH2 0x93C JUMPI DUP2 PUSH0 MSTORE PUSH1 0x20 SWAP1 PUSH1 0x6 DUP3 MSTORE PUSH1 0x40 PUSH0 KECCAK256 SWAP1 PUSH1 0x1 SWAP2 DUP3 PUSH1 0xFF PUSH1 0xA DUP4 ADD SLOAD AND ISZERO ISZERO SUB PUSH2 0x8F8 JUMPI PUSH1 0x2 DUP2 ADD SLOAD SWAP2 DUP4 DUP3 ADD SWAP3 PUSH2 0x59E PUSH1 0x7 PUSH2 0x596 DUP7 PUSH2 0x29E1 JUMP JUMPDEST ADD SLOAD DUP3 PUSH2 0x2A6F JUMP JUMPDEST TIMESTAMP LT ISZERO SWAP1 DUP2 PUSH2 0x8C8 JUMPI JUMPDEST POP ISZERO PUSH2 0x88C JUMPI PUSH1 0xD SLOAD PUSH1 0x40 MLOAD PUSH4 0x5848E2A3 PUSH1 0xE1 SHL DUP2 MSTORE PUSH1 0x1 PUSH1 0x1 PUSH1 0xA0 SHL SUB SWAP1 SWAP2 AND SWAP4 SWAP1 DUP7 DUP2 DUP1 PUSH2 0x5DC DUP6 CALLER PUSH1 0x4 DUP5 ADD PUSH2 0x2A7C JUMP JUMPDEST SUB DUP2 DUP9 GAS STATICCALL DUP1 ISZERO PUSH2 0x7C2 JUMPI DUP7 SWAP2 PUSH0 SWAP2 PUSH2 0x85F JUMPI JUMPDEST POP ISZERO ISZERO SUB PUSH2 0x80B JUMPI PUSH1 0x9 DUP4 ADD SWAP4 CALLER PUSH0 MSTORE DUP5 DUP8 MSTORE PUSH1 0xFF PUSH1 0x40 PUSH0 KECCAK256 SLOAD AND PUSH2 0x7CD JUMPI DUP7 PUSH1 0x40 MLOAD DUP1 SWAP3 PUSH4 0x2B5DF59 PUSH1 0xE0 SHL DUP3 MSTORE DUP2 DUP1 PUSH2 0x62F DUP8 CALLER PUSH1 0x4 DUP5 ADD PUSH2 0x2A7C JUMP JUMPDEST SUB SWAP2 GAS STATICCALL SWAP1 DUP2 ISZERO PUSH2 0x7C2 JUMPI PUSH0 SWAP2 PUSH2 0x795 JUMPI JUMPDEST POP PUSH1 0x2 PUSH2 0x64D DUP4 PUSH2 0x29E1 JUMP JUMPDEST ADD SLOAD DUP2 SLT PUSH2 0x751 JUMPI PUSH1 0x3 PUSH2 0x660 DUP4 PUSH2 0x29E1 JUMP JUMPDEST ADD SLOAD DUP2 SGT ISZERO PUSH2 0x749 JUMPI POP PUSH2 0x675 PUSH1 0x3 SWAP2 PUSH2 0x29E1 JUMP JUMPDEST ADD SLOAD SWAP7 JUMPDEST ISZERO PUSH2 0x6FA JUMPI PUSH1 0x5 DUP3 ADD DUP1 SLOAD SWAP2 DUP6 DUP4 ADD DUP1 SWAP4 GT PUSH2 0x6E7 JUMPI POP SWAP2 PUSH1 0x7 SWAP2 PUSH32 0x7C2DE587C00D75474A0C6C6FA96FD3B45DC974CD4E8A75F712BB84C950DCE1B5 SWAP7 SWAP6 SWAP5 SWAP4 SSTORE ADD PUSH2 0x6C6 DUP8 DUP3 SLOAD PUSH2 0x2A6F JUMP JUMPDEST SWAP1 SSTORE JUMPDEST CALLER PUSH0 MSTORE DUP3 MSTORE PUSH1 0x40 PUSH0 KECCAK256 SWAP1 PUSH1 0xFF NOT DUP3 SLOAD AND OR SWAP1 SSTORE PUSH1 0x40 MLOAD SWAP4 DUP5 MSTORE CALLER SWAP4 LOG4 STOP JUMPDEST PUSH4 0x4E487B71 PUSH1 0xE0 SHL PUSH0 SWAP1 DUP2 MSTORE PUSH1 0x11 PUSH1 0x4 MSTORE REVERT JUMPDEST PUSH1 0x6 DUP3 ADD DUP1 SLOAD SWAP2 DUP6 DUP4 ADD DUP1 SWAP4 GT PUSH2 0x6E7 JUMPI POP SWAP2 PUSH1 0x8 SWAP2 PUSH32 0x7C2DE587C00D75474A0C6C6FA96FD3B45DC974CD4E8A75F712BB84C950DCE1B5 SWAP7 SWAP6 SWAP5 SWAP4 SSTORE ADD PUSH2 0x742 DUP8 DUP3 SLOAD PUSH2 0x2A6F JUMP JUMPDEST SWAP1 SSTORE PUSH2 0x6C9 JUMP JUMPDEST SWAP1 POP SWAP7 PUSH2 0x679 JUMP JUMPDEST PUSH1 0x40 MLOAD PUSH3 0x461BCD PUSH1 0xE5 SHL DUP2 MSTORE PUSH1 0x4 DUP2 ADD DUP9 SWAP1 MSTORE PUSH1 0x1B DUP2 DUP6 ADD MSTORE PUSH32 0x496E73756666696369656E7420637265647320746F20766F74652E0000000000 PUSH1 0x44 DUP3 ADD MSTORE PUSH1 0x64 SWAP1 REVERT JUMPDEST SWAP1 POP DUP7 DUP2 DUP2 RETURNDATASIZE DUP4 GT PUSH2 0x7BB JUMPI JUMPDEST PUSH2 0x7AC DUP2 DUP4 PUSH2 0x22F8 JUMP JUMPDEST DUP2 ADD SUB SLT PUSH2 0x203 JUMPI MLOAD DUP11 PUSH2 0x641 JUMP JUMPDEST POP RETURNDATASIZE PUSH2 0x7A2 JUMP JUMPDEST PUSH1 0x40 MLOAD RETURNDATASIZE PUSH0 DUP3 RETURNDATACOPY RETURNDATASIZE SWAP1 REVERT JUMPDEST PUSH1 0x40 MLOAD PUSH3 0x461BCD PUSH1 0xE5 SHL DUP2 MSTORE PUSH1 0x4 DUP2 ADD DUP9 SWAP1 MSTORE PUSH1 0x17 DUP2 DUP6 ADD MSTORE PUSH23 0x2CB7BA903430BB329030B63932B0B23C903B37BA32B217 PUSH1 0x49 SHL PUSH1 0x44 DUP3 ADD MSTORE PUSH1 0x64 SWAP1 REVERT JUMPDEST PUSH1 0x40 MLOAD PUSH3 0x461BCD PUSH1 0xE5 SHL DUP2 MSTORE PUSH1 0x4 DUP2 ADD DUP8 SWAP1 MSTORE PUSH1 0x27 DUP2 DUP5 ADD MSTORE PUSH32 0x596F7520617265206E6F742061206D656D626572206F66207468697320636F6D PUSH1 0x44 DUP3 ADD MSTORE PUSH7 0x36BAB734BA3C97 PUSH1 0xC9 SHL PUSH1 0x64 DUP3 ADD MSTORE PUSH1 0x84 SWAP1 REVERT JUMPDEST PUSH2 0x87F SWAP2 POP DUP9 RETURNDATASIZE DUP11 GT PUSH2 0x885 JUMPI JUMPDEST PUSH2 0x877 DUP2 DUP4 PUSH2 0x22F8 JUMP JUMPDEST DUP2 ADD SWAP1 PUSH2 0x27D8 JUMP JUMPDEST DUP12 PUSH2 0x5F0 JUMP JUMPDEST POP RETURNDATASIZE PUSH2 0x86D JUMP JUMPDEST DUP5 PUSH1 0x16 PUSH1 0x64 SWAP3 PUSH1 0x40 MLOAD SWAP3 PUSH3 0x461BCD PUSH1 0xE5 SHL DUP5 MSTORE PUSH1 0x4 DUP5 ADD MSTORE DUP3 ADD MSTORE PUSH22 0x4E6F742041637469766520566F74696E672054696D65 PUSH1 0x50 SHL PUSH1 0x44 DUP3 ADD MSTORE REVERT JUMPDEST PUSH2 0x8EF SWAP2 POP PUSH2 0x8E4 SWAP1 PUSH1 0x7 PUSH2 0x8DC DUP8 PUSH2 0x29E1 JUMP JUMPDEST ADD SLOAD SWAP1 PUSH2 0x2A6F JUMP JUMPDEST PUSH1 0x6 PUSH2 0x8DC DUP7 PUSH2 0x29E1 JUMP JUMPDEST TIMESTAMP GT ISZERO DUP10 PUSH2 0x5A8 JUMP JUMPDEST PUSH1 0x40 MLOAD PUSH3 0x461BCD PUSH1 0xE5 SHL DUP2 MSTORE PUSH1 0x4 DUP2 ADD DUP6 SWAP1 MSTORE PUSH1 0x1C DUP2 DUP5 ADD MSTORE PUSH32 0x50726F706F73616C206973206E6F206C6F6E6765722041637469766500000000 PUSH1 0x44 DUP3 ADD MSTORE PUSH1 0x64 SWAP1 REVERT JUMPDEST PUSH1 0x64 SWAP1 PUSH1 0x18 PUSH1 0x40 MLOAD SWAP2 PUSH3 0x461BCD PUSH1 0xE5 SHL DUP4 MSTORE PUSH1 0x20 PUSH1 0x4 DUP5 ADD MSTORE DUP3 ADD MSTORE PUSH24 0x283937B837B9B0B6103237B2B9903737BA1032BC34B9BA17 PUSH1 0x41 SHL PUSH1 0x44 DUP3 ADD MSTORE REVERT JUMPDEST CALLVALUE PUSH2 0x203 JUMPI PUSH1 0x40 CALLDATASIZE PUSH1 0x3 NOT ADD SLT PUSH2 0x203 JUMPI PUSH1 0x4 CALLDATALOAD PUSH1 0x1 PUSH1 0x1 PUSH1 0x40 SHL SUB DUP2 GT PUSH2 0x203 JUMPI PUSH2 0x9AB SWAP1 CALLDATASIZE SWAP1 PUSH1 0x4 ADD PUSH2 0x241B JUMP JUMPDEST PUSH2 0x9C7 PUSH1 0x20 PUSH1 0x24 CALLDATALOAD SWAP3 DUP2 PUSH1 0x40 MLOAD SWAP4 DUP3 DUP6 DUP1 SWAP5 MLOAD SWAP4 DUP5 SWAP3 ADD PUSH2 0x23BA JUMP JUMPDEST DUP2 ADD PUSH1 0x8 DUP2 MSTORE SUB ADD SWAP1 KECCAK256 DUP1 SLOAD DUP3 LT ISZERO PUSH2 0x203 JUMPI PUSH1 0x20 SWAP2 PUSH2 0x9E6 SWAP2 PUSH2 0x24FC JUMP JUMPDEST SWAP1 SLOAD PUSH1 0x40 MLOAD SWAP2 PUSH1 0x3 SHL SHR DUP2 MSTORE RETURN JUMPDEST CALLVALUE PUSH2 0x203 JUMPI PUSH1 0x20 CALLDATASIZE PUSH1 0x3 NOT ADD SLT PUSH2 0x203 JUMPI PUSH1 0x4 CALLDATALOAD PUSH0 MSTORE PUSH1 0x6 PUSH1 0x20 MSTORE PUSH1 0x20 PUSH1 0x4 PUSH1 0x40 PUSH0 KECCAK256 ADD SLOAD PUSH1 0x40 MLOAD SWAP1 DUP2 MSTORE RETURN JUMPDEST CALLVALUE PUSH2 0x203 JUMPI PUSH1 0x20 CALLDATASIZE PUSH1 0x3 NOT ADD SLT PUSH2 0x203 JUMPI PUSH1 0x4 CALLDATALOAD PUSH1 0x1 PUSH1 0x1 PUSH1 0x40 SHL SUB DUP2 GT PUSH2 0x203 JUMPI PUSH2 0xA53 PUSH1 0x20 SWAP2 CALLDATASIZE SWAP1 PUSH1 0x4 ADD PUSH2 0x241B JUMP JUMPDEST PUSH2 0xA8E DUP3 PUSH1 0x40 MLOAD SWAP3 DUP1 MLOAD SWAP1 PUSH2 0x509 DUP4 DUP3 ADD SWAP3 PUSH2 0xA70 DUP2 DUP9 DUP7 PUSH2 0x23BA JUMP JUMPDEST DUP7 ADD PUSH0 DUP2 MSTORE DUP7 DUP6 PUSH1 0x1 DUP1 PUSH1 0xA0 SHL SUB SWAP9 DUP10 SWAP4 SUB ADD SWAP1 KECCAK256 SLOAD AND ISZERO ISZERO PUSH2 0x2BA6 JUMP JUMPDEST DUP2 ADD PUSH0 DUP2 MSTORE SUB ADD SWAP1 KECCAK256 SLOAD AND PUSH1 0x40 MLOAD SWAP1 DUP2 MSTORE RETURN JUMPDEST PUSH2 0xAAA CALLDATASIZE PUSH2 0x2477 JUMP JUMPDEST PUSH1 0x40 MLOAD DUP3 MLOAD SWAP1 PUSH1 0x20 SWAP4 PUSH2 0xAE3 DUP6 DUP3 ADD SWAP4 PUSH2 0xAC5 DUP2 DUP6 DUP8 PUSH2 0x23BA JUMP JUMPDEST DUP4 ADD PUSH0 DUP2 MSTORE DUP4 DUP8 PUSH1 0x1 DUP1 PUSH1 0xA0 SHL SUB SWAP6 DUP7 SWAP4 SUB ADD SWAP1 KECCAK256 SLOAD AND ISZERO ISZERO PUSH2 0x2724 JUMP JUMPDEST ORIGIN PUSH0 MSTORE PUSH1 0x9 DUP6 MSTORE PUSH2 0xAFB PUSH1 0xFF PUSH1 0x40 PUSH0 KECCAK256 SLOAD AND ISZERO PUSH2 0x276A JUMP JUMPDEST DUP2 PUSH1 0xD SLOAD AND PUSH1 0x40 MLOAD PUSH4 0x5848E2A3 PUSH1 0xE1 SHL DUP2 MSTORE DUP7 DUP2 DUP1 PUSH2 0xB1E DUP7 ORIGIN PUSH1 0x4 DUP5 ADD PUSH2 0x27F0 JUMP JUMPDEST SUB DUP2 DUP6 GAS STATICCALL SWAP1 DUP2 ISZERO PUSH2 0x7C2 JUMPI PUSH2 0xB41 SWAP2 PUSH1 0x1 SWAP2 PUSH0 SWAP2 PUSH2 0xD3E JUMPI JUMPDEST POP ISZERO ISZERO EQ PUSH2 0x2815 JUMP JUMPDEST DUP6 PUSH1 0x40 MLOAD DUP1 SWAP3 PUSH4 0x2B5DF59 PUSH1 0xE0 SHL DUP3 MSTORE DUP2 DUP1 PUSH2 0xB61 DUP8 ORIGIN PUSH1 0x4 DUP5 ADD PUSH2 0x27F0 JUMP JUMPDEST SUB SWAP2 GAS STATICCALL SWAP1 DUP2 ISZERO PUSH2 0x7C2 JUMPI PUSH0 SWAP2 PUSH2 0xD11 JUMPI JUMPDEST POP PUSH1 0x40 MLOAD DUP7 DUP2 DUP5 MLOAD PUSH2 0xB86 DUP2 DUP4 DUP11 PUSH2 0x23BA JUMP JUMPDEST DUP2 ADD PUSH0 DUP2 MSTORE SUB ADD SWAP1 KECCAK256 PUSH1 0x1 ADD SLOAD SGT ISZERO PUSH2 0xB9E SWAP1 PUSH2 0x2872 JUMP JUMPDEST PUSH1 0xB SLOAD CALLVALUE EQ PUSH2 0xBAC SWAP1 PUSH2 0x28BE JUMP JUMPDEST PUSH1 0x5 DUP1 SLOAD PUSH0 SWAP1 DUP2 MSTORE PUSH1 0x6 DUP8 MSTORE PUSH1 0x40 SWAP1 KECCAK256 DUP1 SLOAD PUSH1 0x1 PUSH1 0x1 PUSH1 0xA0 SHL SUB NOT SWAP1 DUP2 AND CALLER OR DUP3 SSTORE SWAP2 SWAP6 SWAP2 SWAP3 SWAP1 PUSH2 0xBE0 DUP3 PUSH1 0x1 DUP4 ADD PUSH2 0x25FC JUMP JUMPDEST TIMESTAMP PUSH1 0x2 DUP3 ADD SSTORE PUSH1 0x7 SLOAD PUSH1 0x4 DUP3 ADD SSTORE PUSH1 0x3 DUP2 ADD PUSH1 0x2 SWAP1 SSTORE PUSH1 0xA ADD SWAP5 PUSH1 0xFF NOT SWAP6 DUP7 DUP2 SLOAD AND PUSH1 0x1 OR SWAP1 SSTORE DUP8 DUP8 SLOAD SWAP3 PUSH2 0xC14 DUP2 PUSH2 0x2704 JUMP JUMPDEST PUSH1 0x40 MLOAD TIMESTAMP DUP2 MSTORE DUP4 DUP2 ADD PUSH1 0x2 SWAP1 MSTORE DUP6 CALLER SWAP2 PUSH1 0x40 PUSH32 0x6C98A8C940418B35614F0CD02412D5C9606FAFF474CBB6CDD6640BA5D1A9F06B SWAP2 LOG4 PUSH1 0x40 MLOAD DUP1 SWAP4 DUP2 SWAP3 MLOAD DUP1 SWAP3 PUSH2 0xC5C SWAP3 PUSH2 0x23BA JUMP JUMPDEST DUP2 ADD PUSH1 0x8 DUP2 MSTORE SUB ADD SWAP1 KECCAK256 SWAP1 PUSH2 0xC70 SWAP2 PUSH2 0x29B0 JUMP JUMPDEST DUP5 SLOAD PUSH0 MSTORE PUSH1 0x4 DUP7 MSTORE DUP3 PUSH1 0x40 PUSH0 KECCAK256 SWAP2 AND DUP1 SWAP3 DUP3 SLOAD AND OR SWAP1 SSTORE ORIGIN SWAP1 DUP5 SLOAD SWAP1 PUSH32 0x6A319039CAA9A0B231FC1A3D10D617C656E322EBAC0D326E9D0C95CBDE9248A4 PUSH0 DUP1 LOG4 CALLVALUE SWAP1 PUSH1 0xC SLOAD AND GAS PUSH0 DUP1 SWAP4 DUP2 SWAP4 DUP3 SWAP4 CALL PUSH2 0xCC7 PUSH2 0x2903 JUMP JUMPDEST POP PUSH2 0xCD1 SWAP1 PUSH2 0x2932 JUMP JUMPDEST ORIGIN PUSH0 MSTORE PUSH1 0x9 DUP4 MSTORE PUSH1 0x40 PUSH0 KECCAK256 SWAP1 DUP2 SLOAD AND PUSH1 0x1 OR SWAP1 SSTORE DUP1 SLOAD PUSH2 0xCF0 SWAP1 PUSH2 0x2975 JUMP JUMPDEST DUP1 SLOAD PUSH2 0xCFB SWAP1 PUSH2 0x29D3 JUMP JUMPDEST DUP1 SWAP2 SSTORE PUSH0 NOT DUP2 ADD SWAP1 DUP2 GT PUSH2 0x3BC JUMPI PUSH1 0x40 MLOAD SWAP1 DUP2 MSTORE RETURN JUMPDEST SWAP1 POP DUP6 DUP2 DUP2 RETURNDATASIZE DUP4 GT PUSH2 0xD37 JUMPI JUMPDEST PUSH2 0xD28 DUP2 DUP4 PUSH2 0x22F8 JUMP JUMPDEST DUP2 ADD SUB SLT PUSH2 0x203 JUMPI MLOAD DUP7 PUSH2 0xB73 JUMP JUMPDEST POP RETURNDATASIZE PUSH2 0xD1E JUMP JUMPDEST PUSH2 0xD55 SWAP2 POP DUP10 RETURNDATASIZE DUP12 GT PUSH2 0x885 JUMPI PUSH2 0x877 DUP2 DUP4 PUSH2 0x22F8 JUMP JUMPDEST DUP10 PUSH2 0xB38 JUMP JUMPDEST CALLVALUE PUSH2 0x203 JUMPI PUSH1 0x20 DUP1 PUSH1 0x3 NOT CALLDATASIZE ADD SLT PUSH2 0x203 JUMPI PUSH1 0x4 CALLDATALOAD SWAP1 PUSH1 0x1 PUSH1 0x1 PUSH1 0x40 SHL SUB DUP3 GT PUSH2 0x203 JUMPI PUSH2 0xD8F PUSH1 0xE0 SWAP3 CALLDATASIZE SWAP1 PUSH1 0x4 ADD PUSH2 0x241B JUMP JUMPDEST SWAP1 PUSH1 0x40 MLOAD SWAP2 PUSH2 0xDC8 DUP2 MLOAD SWAP4 DUP4 DUP4 ADD SWAP5 PUSH2 0xDA9 DUP2 DUP4 DUP9 PUSH2 0x23BA JUMP JUMPDEST PUSH0 SWAP1 DUP3 ADD SWAP1 DUP2 MSTORE DUP2 SWAP1 SUB DUP5 ADD SWAP1 KECCAK256 SLOAD PUSH1 0x1 PUSH1 0x1 PUSH1 0xA0 SHL SUB AND ISZERO ISZERO PUSH2 0x2BA6 JUMP JUMPDEST PUSH1 0x1 PUSH1 0x40 MLOAD DUP4 DUP2 DUP5 MLOAD PUSH2 0xDDC DUP2 DUP4 DUP11 PUSH2 0x23BA JUMP JUMPDEST DUP2 ADD PUSH0 DUP2 MSTORE SUB ADD SWAP1 KECCAK256 ADD SLOAD SWAP3 PUSH1 0x2 PUSH1 0x40 MLOAD DUP5 DUP2 DUP6 MLOAD PUSH2 0xDFC DUP2 DUP4 DUP9 PUSH2 0x23BA JUMP JUMPDEST DUP2 ADD PUSH0 DUP2 MSTORE SUB ADD SWAP1 KECCAK256 ADD SLOAD PUSH1 0x3 PUSH1 0x40 MLOAD DUP6 DUP2 DUP7 MLOAD PUSH2 0xE1B DUP2 DUP4 DUP10 PUSH2 0x23BA JUMP JUMPDEST DUP2 ADD PUSH0 DUP2 MSTORE SUB ADD SWAP1 KECCAK256 ADD SLOAD PUSH1 0x4 PUSH1 0x40 MLOAD DUP7 DUP2 DUP8 MLOAD PUSH2 0xE3A DUP2 DUP4 DUP11 PUSH2 0x23BA JUMP JUMPDEST DUP2 ADD PUSH0 DUP2 MSTORE SUB ADD SWAP1 KECCAK256 ADD SLOAD SWAP2 PUSH1 0xFF PUSH1 0x8 PUSH2 0xEA4 DUP9 PUSH1 0x6 PUSH2 0xE67 DUP3 DUP11 DUP13 PUSH1 0x40 MLOAD SWAP4 DUP5 SWAP3 DUP4 SWAP3 MLOAD SWAP3 DUP4 SWAP2 PUSH2 0x23BA JUMP JUMPDEST DUP2 ADD PUSH0 DUP2 MSTORE SUB ADD SWAP1 KECCAK256 ADD SLOAD SWAP8 PUSH1 0x7 PUSH1 0x40 MLOAD DUP4 DUP2 DUP14 MLOAD PUSH2 0xE87 DUP2 DUP4 DUP9 PUSH2 0x23BA JUMP JUMPDEST DUP2 ADD PUSH0 DUP2 MSTORE SUB ADD SWAP1 KECCAK256 ADD SLOAD SWAP10 PUSH1 0x40 MLOAD SWAP4 DUP5 SWAP3 DUP4 SWAP3 MLOAD SWAP3 DUP4 SWAP2 PUSH2 0x23BA JUMP JUMPDEST DUP2 ADD PUSH0 DUP2 MSTORE SUB ADD SWAP1 KECCAK256 ADD SLOAD AND SWAP6 PUSH1 0x40 MLOAD SWAP8 DUP9 MSTORE DUP8 ADD MSTORE PUSH1 0x40 DUP7 ADD MSTORE PUSH1 0x60 DUP6 ADD MSTORE PUSH1 0x80 DUP5 ADD MSTORE PUSH1 0xA0 DUP4 ADD MSTORE ISZERO ISZERO PUSH1 0xC0 DUP3 ADD MSTORE RETURN JUMPDEST CALLVALUE PUSH2 0x203 JUMPI PUSH1 0x20 CALLDATASIZE PUSH1 0x3 NOT ADD SLT PUSH2 0x203 JUMPI PUSH2 0xEFD PUSH1 0x1 DUP1 PUSH1 0xA0 SHL SUB PUSH1 0xA SLOAD AND CALLER EQ PUSH2 0x2B61 JUMP JUMPDEST PUSH1 0x4 CALLDATALOAD PUSH1 0x3 SSTORE STOP JUMPDEST CALLVALUE PUSH2 0x203 JUMPI PUSH0 CALLDATASIZE PUSH1 0x3 NOT ADD SLT PUSH2 0x203 JUMPI PUSH0 DUP1 PUSH1 0x7 DUP1 SLOAD SWAP1 DUP2 PUSH2 0xF81 JUMPI JUMPDEST POP POP PUSH1 0x40 MLOAD SWAP1 PUSH1 0x20 DUP3 ADD MSTORE PUSH1 0x20 DUP2 MSTORE PUSH1 0x40 DUP2 ADD SWAP2 DUP2 DUP4 LT PUSH1 0x1 PUSH1 0x1 PUSH1 0x40 SHL SUB DUP5 GT OR PUSH2 0xF6D JUMPI DUP3 PUSH1 0x40 MSTORE ISZERO ISZERO DUP3 MSTORE PUSH1 0x40 PUSH1 0x60 DUP3 ADD MSTORE PUSH1 0x3F NOT SWAP1 PUSH2 0xF68 PUSH1 0x80 DUP3 ADD DUP3 PUSH2 0x23DB JUMP JUMPDEST SUB ADD SWAP1 RETURN JUMPDEST PUSH4 0x4E487B71 PUSH1 0xE0 SHL PUSH0 MSTORE PUSH1 0x41 PUSH1 0x4 MSTORE PUSH1 0x24 PUSH0 REVERT JUMPDEST PUSH0 SWAP1 PUSH1 0x1 JUMPDEST DUP4 DUP2 LT PUSH2 0xF94 JUMPI POP POP PUSH2 0xF22 JUMP JUMPDEST PUSH2 0xF9D DUP2 PUSH2 0x24E4 JUMP JUMPDEST SWAP1 SLOAD PUSH1 0x3 SWAP2 DUP3 SHL SHR PUSH0 MSTORE PUSH2 0x1004 PUSH1 0x6 PUSH1 0x20 SWAP1 DUP1 DUP3 MSTORE DUP1 PUSH2 0xFE2 PUSH1 0x2 PUSH1 0x40 PUSH0 KECCAK256 ADD SLOAD PUSH2 0xFC7 DUP9 PUSH2 0x24E4 JUMP JUMPDEST SWAP1 SLOAD SWAP1 DUP9 SHL SHR PUSH0 MSTORE DUP3 DUP6 MSTORE DUP9 PUSH2 0x8DC PUSH1 0x1 PUSH1 0x40 PUSH0 KECCAK256 ADD PUSH2 0x29E1 JUMP JUMPDEST SWAP3 PUSH2 0xFEC DUP8 PUSH2 0x24E4 JUMP JUMPDEST SWAP1 SLOAD SWAP1 DUP8 SHL SHR PUSH0 MSTORE MSTORE PUSH2 0x8DC PUSH1 0x1 PUSH1 0x40 PUSH0 KECCAK256 ADD PUSH2 0x29E1 JUMP JUMPDEST TIMESTAMP DUP2 GT ISZERO DUP1 PUSH2 0x1046 JUMPI JUMPDEST PUSH2 0x1023 JUMPI JUMPDEST POP POP PUSH2 0x101E SWAP1 PUSH2 0x29D3 JUMP JUMPDEST PUSH2 0xF86 JUMP JUMPDEST SWAP6 POP SWAP6 POP SWAP2 POP PUSH2 0x101E PUSH1 0x1 SWAP6 PUSH2 0x1038 DUP5 PUSH2 0x24E4 JUMP JUMPDEST SWAP1 SLOAD SWAP2 SHL SHR SWAP5 SWAP3 SWAP1 DUP8 PUSH2 0x1013 JUMP JUMPDEST POP DUP5 DUP2 GT ISZERO DUP1 PUSH2 0x100E JUMPI POP DUP5 ISZERO PUSH2 0x100E JUMP JUMPDEST CALLVALUE PUSH2 0x203 JUMPI PUSH1 0x20 CALLDATASIZE PUSH1 0x3 NOT ADD SLT PUSH2 0x203 JUMPI PUSH1 0x4 CALLDATALOAD PUSH0 MSTORE PUSH1 0x4 PUSH1 0x20 MSTORE PUSH1 0x20 PUSH1 0x1 DUP1 PUSH1 0xA0 SHL SUB PUSH1 0x40 PUSH0 KECCAK256 SLOAD AND PUSH1 0x40 MLOAD SWAP1 DUP2 MSTORE RETURN JUMPDEST CALLVALUE PUSH2 0x203 JUMPI PUSH1 0x20 CALLDATASIZE PUSH1 0x3 NOT ADD SLT PUSH2 0x203 JUMPI PUSH2 0x10B0 PUSH1 0x1 DUP1 PUSH1 0xA0 SHL SUB PUSH1 0xA SLOAD AND CALLER EQ PUSH2 0x2B61 JUMP JUMPDEST PUSH1 0x4 CALLDATALOAD PUSH1 0x5 SSTORE STOP JUMPDEST CALLVALUE PUSH2 0x203 JUMPI PUSH1 0x20 CALLDATASIZE PUSH1 0x3 NOT ADD SLT PUSH2 0x203 JUMPI PUSH1 0x4 CALLDATALOAD PUSH1 0x1 PUSH1 0x1 PUSH1 0xA0 SHL SUB DUP2 DUP2 AND SWAP2 DUP3 SWAP1 SUB PUSH2 0x203 JUMPI PUSH2 0x10EE SWAP1 PUSH1 0xA SLOAD AND CALLER EQ PUSH2 0x2B61 JUMP JUMPDEST PUSH1 0xC DUP1 SLOAD PUSH1 0x1 PUSH1 0x1 PUSH1 0xA0 SHL SUB NOT AND SWAP2 SWAP1 SWAP2 OR SWAP1 SSTORE STOP JUMPDEST CALLVALUE PUSH2 0x203 JUMPI PUSH1 0x40 CALLDATASIZE PUSH1 0x3 NOT ADD SLT PUSH2 0x203 JUMPI PUSH1 0x4 CALLDATALOAD PUSH2 0x1121 DUP2 PUSH2 0x2C05 JUMP JUMPDEST SWAP1 PUSH0 PUSH2 0x112F DUP3 PUSH1 0x24 CALLDATALOAD PUSH2 0x2C37 JUMP JUMPDEST SWAP1 PUSH2 0x113A DUP4 DUP4 PUSH2 0x2A6F JUMP JUMPDEST SWAP1 PUSH1 0x7 SLOAD SWAP3 DUP4 DUP4 GT PUSH2 0x11A2 JUMPI JUMPDEST SWAP1 JUMPDEST DUP3 DUP3 LT PUSH2 0x116F JUMPI DUP6 PUSH2 0x115B DUP7 DUP7 PUSH2 0x2C5E JUMP JUMPDEST SWAP1 PUSH2 0x116B PUSH1 0x40 MLOAD SWAP3 DUP4 SWAP3 DUP4 PUSH2 0x2579 JUMP JUMPDEST SUB SWAP1 RETURN JUMPDEST PUSH2 0x1196 PUSH2 0x119C SWAP2 PUSH2 0x117F DUP5 PUSH2 0x24E4 JUMP JUMPDEST SWAP1 SLOAD SWAP1 PUSH1 0x3 SHL SHR PUSH2 0x1190 DUP3 DUP11 PUSH2 0x2C4A JUMP JUMPDEST MSTORE PUSH2 0x29D3 JUMP JUMPDEST SWAP2 PUSH2 0x29D3 JUMP JUMPDEST SWAP1 PUSH2 0x1149 JUMP JUMPDEST DUP4 SWAP3 POP PUSH2 0x1147 JUMP JUMPDEST CALLVALUE PUSH2 0x203 JUMPI PUSH1 0x20 CALLDATASIZE PUSH1 0x3 NOT ADD SLT PUSH2 0x203 JUMPI PUSH1 0x4 CALLDATALOAD PUSH0 MSTORE PUSH1 0x2 PUSH1 0x20 MSTORE PUSH1 0x40 PUSH0 KECCAK256 DUP1 SLOAD PUSH2 0x116B PUSH1 0x1 DUP4 ADD SLOAD SWAP3 PUSH1 0x2 DUP2 ADD SLOAD SWAP1 PUSH1 0x3 DUP2 ADD SLOAD PUSH1 0x1 DUP1 PUSH1 0xA0 SHL SUB PUSH1 0x4 DUP4 ADD SLOAD AND PUSH1 0x5 DUP4 ADD SLOAD SWAP2 PUSH1 0xFF PUSH1 0x7 PUSH1 0x6 DUP7 ADD SLOAD SWAP6 ADD SLOAD AND SWAP5 PUSH1 0x40 MLOAD SWAP9 DUP10 SWAP9 DUP10 PUSH2 0x25BB JUMP JUMPDEST CALLVALUE PUSH2 0x203 JUMPI PUSH1 0x20 CALLDATASIZE PUSH1 0x3 NOT ADD SLT PUSH2 0x203 JUMPI PUSH1 0x4 CALLDATALOAD PUSH1 0x1 PUSH1 0x1 PUSH1 0x40 SHL SUB DUP2 GT PUSH2 0x203 JUMPI PUSH2 0x123E PUSH1 0x20 SWAP2 CALLDATASIZE SWAP1 PUSH1 0x4 ADD PUSH2 0x241B JUMP JUMPDEST DUP2 PUSH2 0x1252 PUSH1 0x40 MLOAD SWAP3 DUP4 DUP2 MLOAD SWAP4 DUP5 SWAP3 ADD PUSH2 0x23BA JUMP JUMPDEST PUSH0 SWAP1 DUP3 ADD SWAP1 DUP2 MSTORE DUP2 SWAP1 SUB DUP3 ADD SWAP1 KECCAK256 SLOAD PUSH1 0x40 MLOAD PUSH1 0x1 PUSH1 0x1 PUSH1 0xA0 SHL SUB SWAP1 SWAP2 AND ISZERO ISZERO DUP2 MSTORE RETURN JUMPDEST CALLVALUE PUSH2 0x203 JUMPI PUSH1 0x60 CALLDATASIZE PUSH1 0x3 NOT ADD SLT PUSH2 0x203 JUMPI PUSH1 0x4 CALLDATALOAD PUSH1 0x1 PUSH1 0x1 PUSH1 0x40 SHL SUB DUP2 GT PUSH2 0x203 JUMPI PUSH2 0x12A5 SWAP1 CALLDATASIZE SWAP1 PUSH1 0x4 ADD PUSH2 0x241B JUMP JUMPDEST PUSH1 0x24 CALLDATALOAD PUSH2 0x12B1 DUP2 PUSH2 0x2C05 JUMP JUMPDEST SWAP2 PUSH0 PUSH2 0x12BF DUP4 PUSH1 0x44 CALLDATALOAD PUSH2 0x2C37 JUMP JUMPDEST SWAP2 PUSH2 0x12CA DUP5 DUP5 PUSH2 0x2A6F JUMP JUMPDEST SWAP1 PUSH1 0x40 MLOAD SWAP2 DUP2 MLOAD SWAP4 PUSH1 0x20 SWAP6 DUP7 DUP5 ADD SWAP6 PUSH2 0x12E4 DUP2 DUP8 DUP10 PUSH2 0x23BA JUMP JUMPDEST DUP6 ADD SWAP5 DUP8 DUP2 PUSH1 0x8 SWAP8 DUP9 DUP2 MSTORE SUB ADD SWAP1 KECCAK256 SLOAD DUP4 GT PUSH2 0x1376 JUMPI JUMPDEST SWAP1 JUMPDEST DUP3 DUP3 LT PUSH2 0x1330 JUMPI DUP9 PUSH2 0x115B DUP10 PUSH2 0x1321 DUP11 DUP11 DUP11 DUP11 PUSH1 0x40 MLOAD SWAP5 DUP6 SWAP4 DUP5 SWAP3 MLOAD SWAP3 DUP4 SWAP2 PUSH2 0x23BA JUMP JUMPDEST DUP3 ADD SWAP1 DUP2 MSTORE SUB ADD SWAP1 KECCAK256 SLOAD PUSH2 0x2C5E JUMP JUMPDEST PUSH2 0x1196 PUSH2 0x1370 SWAP2 PUSH2 0x135F DUP5 PUSH2 0x1351 DUP12 DUP12 PUSH1 0x40 MLOAD DUP1 SWAP4 DUP2 SWAP3 DUP14 MLOAD SWAP3 DUP4 SWAP2 PUSH2 0x23BA JUMP JUMPDEST DUP2 ADD DUP13 DUP2 MSTORE SUB ADD SWAP1 KECCAK256 PUSH2 0x24FC JUMP JUMPDEST SWAP1 SLOAD SWAP1 PUSH1 0x3 SHL SHR PUSH2 0x1190 DUP3 DUP14 PUSH2 0x2C4A JUMP JUMPDEST SWAP1 PUSH2 0x12FD JUMP JUMPDEST SWAP2 POP PUSH1 0x40 MLOAD DUP7 DUP2 DUP6 MLOAD PUSH2 0x138A DUP2 DUP4 DUP12 PUSH2 0x23BA JUMP JUMPDEST DUP2 ADD DUP8 DUP2 MSTORE SUB ADD SWAP1 KECCAK256 SLOAD SWAP2 PUSH2 0x12FB JUMP JUMPDEST CALLVALUE PUSH2 0x203 JUMPI PUSH1 0x20 CALLDATASIZE PUSH1 0x3 NOT ADD SLT PUSH2 0x203 JUMPI PUSH2 0x13C0 PUSH1 0x1 DUP1 PUSH1 0xA0 SHL SUB PUSH1 0xA SLOAD AND CALLER EQ PUSH2 0x2B61 JUMP JUMPDEST PUSH1 0x4 CALLDATALOAD PUSH1 0xB SSTORE STOP JUMPDEST CALLVALUE PUSH2 0x203 JUMPI PUSH1 0x40 CALLDATASIZE PUSH1 0x3 NOT ADD SLT PUSH2 0x203 JUMPI PUSH1 0xA0 PUSH2 0x13E3 PUSH2 0x2461 JUMP JUMPDEST PUSH1 0x24 CALLDATALOAD PUSH0 MSTORE PUSH1 0x6 PUSH1 0x20 MSTORE PUSH1 0x40 PUSH0 KECCAK256 PUSH1 0x5 DUP2 ADD SLOAD SWAP2 PUSH1 0x7 DUP3 ADD SLOAD SWAP2 PUSH1 0x9 PUSH1 0x6 DUP3 ADD SLOAD SWAP2 PUSH1 0x8 DUP2 ADD SLOAD SWAP4 PUSH1 0x1 DUP1 DUP10 SHL SUB AND PUSH0 MSTORE ADD PUSH1 0x20 MSTORE PUSH1 0xFF PUSH1 0x40 PUSH0 KECCAK256 SLOAD AND SWAP3 PUSH1 0x40 MLOAD SWAP5 DUP6 MSTORE PUSH1 0x20 DUP6 ADD MSTORE PUSH1 0x40 DUP5 ADD MSTORE PUSH1 0x60 DUP4 ADD MSTORE ISZERO ISZERO PUSH1 0x80 DUP3 ADD MSTORE RETURN JUMPDEST CALLVALUE PUSH2 0x203 JUMPI PUSH2 0x144D CALLDATASIZE PUSH2 0x2511 JUMP JUMPDEST SWAP3 DUP3 SWAP5 SWAP2 SWAP3 SWAP9 SWAP8 SWAP6 SWAP9 SWAP2 PUSH1 0x40 MLOAD DUP10 MLOAD SWAP1 PUSH1 0x20 SWAP8 DUP9 DUP13 ADD SWAP3 PUSH2 0x146F DUP2 DUP5 DUP7 PUSH2 0x23BA JUMP JUMPDEST DUP3 ADD PUSH0 DUP2 MSTORE DUP3 DUP11 PUSH1 0x1 DUP1 PUSH1 0xA0 SHL SUB SWAP5 DUP6 SWAP4 SUB ADD SWAP1 KECCAK256 SLOAD AND PUSH2 0x16B3 JUMPI SWAP2 DUP12 DUP10 SWAP3 DUP12 DUP16 DUP15 DUP13 SWAP8 PUSH1 0x3 SLOAD DUP1 SWAP2 GT PUSH2 0x16AA JUMPI JUMPDEST POP SWAP3 PUSH1 0x8 SWAP6 SWAP3 PUSH2 0x15D4 SWAP6 SWAP3 PUSH2 0x15EF SWAP10 SWAP9 SWAP6 PUSH1 0x40 MLOAD DUP8 DUP2 DUP8 MLOAD PUSH2 0x14C1 DUP2 DUP4 DUP13 PUSH2 0x23BA JUMP JUMPDEST DUP2 ADD PUSH0 DUP2 MSTORE SUB ADD SWAP1 KECCAK256 SWAP3 PUSH1 0x1 DUP1 PUSH1 0xA0 SHL SUB NOT SWAP4 CALLER DUP6 DUP3 SLOAD AND OR SWAP1 SSTORE PUSH1 0x1 PUSH1 0x40 MLOAD DUP10 DUP2 DUP1 PUSH2 0x14F2 DUP13 DUP13 MLOAD SWAP3 DUP4 SWAP2 PUSH2 0x23BA JUMP JUMPDEST DUP2 ADD PUSH0 DUP2 MSTORE SUB ADD SWAP1 KECCAK256 ADD SSTORE PUSH1 0x2 PUSH1 0x40 MLOAD DUP9 DUP2 DUP9 MLOAD PUSH2 0x1511 DUP2 DUP4 DUP14 PUSH2 0x23BA JUMP JUMPDEST DUP2 ADD PUSH0 DUP2 MSTORE SUB ADD SWAP1 KECCAK256 ADD SSTORE PUSH1 0x3 PUSH1 0x40 MLOAD DUP8 DUP2 DUP8 MLOAD PUSH2 0x1530 DUP2 DUP4 DUP13 PUSH2 0x23BA JUMP JUMPDEST DUP2 ADD PUSH0 DUP2 MSTORE SUB ADD SWAP1 KECCAK256 ADD SSTORE DUP10 PUSH1 0x4 PUSH1 0x40 MLOAD DUP8 DUP2 DUP8 MLOAD PUSH2 0x1550 DUP2 DUP4 DUP13 PUSH2 0x23BA JUMP JUMPDEST DUP2 ADD PUSH0 DUP2 MSTORE SUB ADD SWAP1 KECCAK256 ADD SSTORE PUSH1 0x5 PUSH1 0x40 MLOAD DUP7 DUP2 DUP7 MLOAD PUSH2 0x156F DUP2 DUP4 DUP12 PUSH2 0x23BA JUMP JUMPDEST DUP2 ADD PUSH0 DUP2 MSTORE SUB ADD SWAP1 KECCAK256 ADD SWAP2 DUP12 AND SWAP1 DUP3 SLOAD AND OR SWAP1 SSTORE DUP10 PUSH1 0x6 PUSH1 0x40 MLOAD DUP6 DUP2 DUP6 MLOAD PUSH2 0x1598 DUP2 DUP4 DUP11 PUSH2 0x23BA JUMP JUMPDEST DUP2 ADD PUSH0 DUP2 MSTORE SUB ADD SWAP1 KECCAK256 ADD SSTORE DUP11 PUSH1 0x7 PUSH1 0x40 MLOAD DUP6 DUP2 DUP6 MLOAD PUSH2 0x15B8 DUP2 DUP4 DUP11 PUSH2 0x23BA JUMP JUMPDEST DUP2 ADD PUSH0 DUP2 MSTORE SUB ADD SWAP1 KECCAK256 ADD SSTORE PUSH1 0x40 MLOAD SWAP4 DUP5 SWAP3 DUP4 SWAP3 MLOAD SWAP3 DUP4 SWAP2 PUSH2 0x23BA JUMP JUMPDEST DUP2 ADD PUSH0 DUP2 MSTORE SUB ADD SWAP1 KECCAK256 ADD SWAP1 PUSH1 0xFF DUP1 NOT DUP4 SLOAD AND SWAP2 ISZERO ISZERO AND OR SWAP1 SSTORE JUMP JUMPDEST PUSH1 0x1 SLOAD PUSH1 0x1 PUSH1 0x40 SHL DUP2 LT ISZERO PUSH2 0xF6D JUMPI DUP1 PUSH1 0x1 PUSH2 0x160E SWAP3 ADD PUSH1 0x1 SSTORE PUSH2 0x24B8 JUMP JUMPDEST PUSH2 0x1697 JUMPI DUP10 PUSH2 0x1692 SWAP8 PUSH2 0x1645 PUSH32 0xA33E969841918D6C70510FF52AAF2F08256C371553465CDD2BEB001C23B0F504 SWAP13 PUSH2 0x1685 SWAP5 PUSH2 0x25FC JUMP JUMPDEST PUSH32 0x770333F2D96FAAE538A5391FA34D7F90A88DC8AF3AADCB1735C43839CB695566 PUSH1 0x40 PUSH2 0x1671 DUP5 PUSH2 0x2704 JUMP JUMPDEST SWAP3 DUP2 MLOAD SWAP1 CALLER DUP3 MSTORE DUP12 ISZERO ISZERO SWAP1 DUP3 ADD MSTORE LOG2 PUSH2 0x2704 JUMP JUMPDEST SWAP10 PUSH1 0x40 MLOAD SWAP9 DUP10 SWAP9 DUP10 PUSH2 0x25BB JUMP JUMPDEST SUB SWAP1 LOG2 STOP JUMPDEST PUSH4 0x4E487B71 PUSH1 0xE0 SHL PUSH0 MSTORE PUSH0 PUSH1 0x4 MSTORE PUSH1 0x24 PUSH0 REVERT JUMPDEST SWAP11 POP PUSH1 0x8 PUSH2 0x149E JUMP JUMPDEST PUSH1 0x40 MLOAD PUSH3 0x461BCD PUSH1 0xE5 SHL DUP2 MSTORE PUSH1 0x4 DUP2 ADD DUP11 SWAP1 MSTORE PUSH1 0x19 PUSH1 0x24 DUP3 ADD MSTORE PUSH25 0x21B7B6B6BAB734BA3C9030B63932B0B23C9032BC34B9BA3997 PUSH1 0x39 SHL PUSH1 0x44 DUP3 ADD MSTORE PUSH1 0x64 SWAP1 REVERT JUMPDEST CALLVALUE PUSH2 0x203 JUMPI PUSH1 0x20 CALLDATASIZE PUSH1 0x3 NOT ADD SLT PUSH2 0x203 JUMPI PUSH1 0x4 CALLDATALOAD PUSH0 MSTORE PUSH1 0x6 PUSH1 0x20 MSTORE PUSH1 0x40 PUSH1 0xA DUP2 PUSH0 KECCAK256 ADD SLOAD PUSH1 0xFF DUP3 MLOAD SWAP2 DUP2 DUP2 AND ISZERO ISZERO DUP4 MSTORE PUSH1 0x8 SHR AND ISZERO ISZERO PUSH1 0x20 DUP3 ADD MSTORE RETURN JUMPDEST CALLVALUE PUSH2 0x203 JUMPI PUSH1 0x20 CALLDATASIZE PUSH1 0x3 NOT ADD SLT PUSH2 0x203 JUMPI PUSH2 0x1757 PUSH1 0x1 DUP1 PUSH1 0xA0 SHL SUB PUSH1 0xA SLOAD AND CALLER EQ PUSH2 0x2B61 JUMP JUMPDEST PUSH1 0x4 CALLDATALOAD PUSH1 0xE SSTORE STOP JUMPDEST CALLVALUE PUSH2 0x203 JUMPI PUSH0 CALLDATASIZE PUSH1 0x3 NOT ADD SLT PUSH2 0x203 JUMPI PUSH1 0x20 PUSH1 0x7 SLOAD PUSH1 0x40 MLOAD SWAP1 DUP2 MSTORE RETURN JUMPDEST CALLVALUE PUSH2 0x203 JUMPI PUSH1 0x20 DUP1 PUSH1 0x3 NOT CALLDATASIZE ADD SLT PUSH2 0x203 JUMPI PUSH1 0x4 CALLDATALOAD PUSH1 0x1 PUSH1 0x1 PUSH1 0x40 SHL SUB DUP1 DUP3 GT PUSH2 0x203 JUMPI CALLDATASIZE PUSH1 0x23 DUP4 ADD SLT ISZERO PUSH2 0x203 JUMPI DUP2 PUSH1 0x4 ADD CALLDATALOAD SWAP1 DUP2 GT PUSH2 0x203 JUMPI DUP2 ADD CALLDATASIZE PUSH1 0x24 DUP3 ADD GT PUSH2 0x203 JUMPI DUP2 DUP4 SWAP2 SUB SLT PUSH2 0x203 JUMPI PUSH1 0x24 ADD CALLDATALOAD SWAP1 DUP2 PUSH0 MSTORE PUSH1 0x6 SWAP2 DUP3 DUP3 MSTORE PUSH1 0x40 PUSH0 KECCAK256 PUSH1 0x2 SWAP1 PUSH2 0x180F PUSH2 0x17FA DUP4 DUP4 ADD SLOAD PUSH1 0x7 PUSH2 0x8DC PUSH1 0x1 DUP1 SWAP7 ADD PUSH2 0x29E1 JUMP JUMPDEST DUP5 PUSH0 MSTORE DUP7 DUP7 MSTORE DUP7 PUSH2 0x8DC DUP5 PUSH1 0x40 PUSH0 KECCAK256 ADD PUSH2 0x29E1 JUMP JUMPDEST DUP4 ISZERO ISZERO SWAP1 DUP2 PUSH2 0x1B0C JUMPI JUMPDEST DUP2 PUSH2 0x1B02 JUMPI JUMPDEST POP PUSH2 0x1826 JUMPI STOP JUMPDEST DUP3 PUSH0 MSTORE DUP5 DUP5 MSTORE PUSH1 0x40 PUSH0 KECCAK256 SWAP2 PUSH1 0x5 DUP4 ADD SLOAD DUP7 DUP5 ADD SLOAD DUP1 DUP3 GT SWAP2 DUP3 PUSH2 0x1AD2 JUMPI JUMPDEST DUP3 PUSH2 0x1AB0 JUMPI JUMPDEST POP POP ISZERO PUSH2 0x1A3C JUMPI DUP2 PUSH1 0x3 DUP5 ADD SLOAD DUP3 DUP2 EQ PUSH0 EQ PUSH2 0x19A2 JUMPI POP POP POP DUP3 PUSH0 MSTORE PUSH1 0x4 DUP5 MSTORE DUP1 DUP4 PUSH1 0x1 DUP1 PUSH1 0xA0 SHL SUB PUSH1 0x40 PUSH0 KECCAK256 SLOAD AND PUSH32 0xCA5BE02C86F988B49C8F55FA1445E2252A5DE3AFAA608CC35DB41FEB6C22F83A PUSH0 DUP1 LOG4 JUMPDEST DUP3 PUSH0 DUP1 MLOAD PUSH1 0x20 PUSH2 0x2C7D DUP4 CODECOPY DUP2 MLOAD SWAP2 MSTORE PUSH0 DUP1 LOG3 DUP2 PUSH0 MSTORE DUP4 DUP4 MSTORE PUSH1 0xA PUSH1 0x40 PUSH0 KECCAK256 ADD PUSH2 0x100 PUSH2 0xFF00 NOT DUP3 SLOAD AND OR SWAP1 SSTORE JUMPDEST SLOAD PUSH1 0x1 PUSH1 0x1 PUSH1 0xA0 SHL SUB AND PUSH0 SWAP1 DUP2 MSTORE PUSH1 0x9 DUP4 MSTORE PUSH1 0x40 DUP1 DUP3 KECCAK256 DUP1 SLOAD PUSH1 0xFF NOT SWAP1 DUP2 AND SWAP1 SWAP2 SSTORE DUP4 DUP4 MSTORE DUP6 DUP6 MSTORE SWAP2 KECCAK256 PUSH1 0xA DUP2 ADD DUP1 SLOAD SWAP1 SWAP3 AND SWAP1 SWAP2 SSTORE PUSH1 0x4 ADD SLOAD PUSH1 0x7 SLOAD PUSH0 NOT DUP2 ADD SWAP1 DUP2 GT PUSH2 0x3BC JUMPI DUP1 DUP3 SUB PUSH2 0x1933 JUMPI JUMPDEST POP POP PUSH0 MSTORE MSTORE PUSH0 PUSH1 0x4 PUSH1 0x40 DUP3 KECCAK256 ADD SSTORE PUSH2 0x1931 PUSH2 0x2B23 JUMP JUMPDEST STOP JUMPDEST PUSH32 0xF041F52DB3FD2F56A979D9DD319AA6A6E399C198410349CF154EB4B4568D7DAA SWAP2 PUSH2 0x1963 PUSH2 0x355 PUSH1 0x40 SWAP4 PUSH2 0x24E4 JUMP JUMPDEST PUSH2 0x196C DUP2 PUSH2 0x24E4 JUMP JUMPDEST SWAP1 SLOAD SWAP1 PUSH1 0x3 SHL SHR PUSH0 MSTORE DUP6 DUP6 MSTORE DUP1 PUSH1 0x4 DUP4 PUSH0 KECCAK256 ADD SSTORE PUSH2 0x1989 DUP2 PUSH2 0x24E4 JUMP JUMPDEST SWAP1 SLOAD SWAP1 PUSH1 0x3 SHL SHR SWAP1 DUP3 MLOAD SWAP2 DUP3 MSTORE DUP6 DUP3 ADD MSTORE LOG1 DUP4 DUP1 PUSH2 0x191B JUMP JUMPDEST EQ PUSH2 0x19AE JUMPI JUMPDEST POP PUSH2 0x189E JUMP JUMPDEST PUSH2 0x1A36 SWAP1 PUSH1 0x8 PUSH1 0xFF PUSH1 0x7 PUSH2 0x19C3 DUP7 DUP9 ADD PUSH2 0x29E1 JUMP JUMPDEST SWAP4 DUP9 PUSH0 MSTORE DUP1 DUP11 MSTORE PUSH1 0x40 PUSH0 KECCAK256 SWAP1 DUP2 SLOAD DUP9 DUP8 ADD SSTORE DUP8 DUP3 ADD SLOAD DUP2 DUP8 ADD SSTORE DUP2 ADD SLOAD PUSH1 0x3 DUP7 ADD SSTORE PUSH1 0x3 DUP2 ADD SLOAD PUSH1 0x4 DUP7 ADD SSTORE PUSH1 0x1 DUP1 PUSH1 0xA0 SHL SUB PUSH1 0x4 DUP3 ADD SLOAD AND PUSH1 0x5 DUP7 ADD SWAP1 PUSH1 0x1 DUP1 PUSH1 0xA0 SHL SUB NOT DUP3 SLOAD AND OR SWAP1 SSTORE PUSH1 0x5 DUP2 ADD SLOAD DUP12 DUP7 ADD SSTORE DUP11 DUP2 ADD SLOAD DUP3 DUP7 ADD SSTORE ADD SLOAD AND SWAP2 ADD SWAP1 PUSH1 0xFF DUP1 NOT DUP4 SLOAD AND SWAP2 ISZERO ISZERO AND OR SWAP1 SSTORE JUMP JUMPDEST DUP6 PUSH2 0x19A8 JUMP JUMPDEST SWAP1 POP DUP3 PUSH0 MSTORE DUP5 DUP5 MSTORE PUSH1 0xA PUSH1 0x40 PUSH0 KECCAK256 ADD PUSH2 0xFF00 NOT DUP2 SLOAD AND SWAP1 SSTORE PUSH0 DUP4 PUSH0 DUP1 MLOAD PUSH1 0x20 PUSH2 0x2C7D DUP4 CODECOPY DUP2 MLOAD SWAP2 MSTORE DUP3 DUP1 LOG3 PUSH1 0x3 DUP3 ADD SLOAD SUB PUSH2 0x18CB JUMPI PUSH1 0x4 DUP4 MSTORE PUSH1 0x40 PUSH0 SWAP1 DUP2 KECCAK256 SLOAD DUP4 SWAP1 PUSH1 0x1 PUSH1 0x1 PUSH1 0xA0 SHL SUB AND PUSH32 0xCA5BE02C86F988B49C8F55FA1445E2252A5DE3AFAA608CC35DB41FEB6C22F83A DUP4 DUP1 LOG4 PUSH2 0x18CB JUMP JUMPDEST PUSH2 0x1ABA SWAP3 POP PUSH2 0x2A6F JUMP JUMPDEST PUSH1 0x4 PUSH2 0x1AC7 DUP5 DUP7 ADD PUSH2 0x29E1 JUMP JUMPDEST ADD SLOAD GT ISZERO DUP8 DUP1 PUSH2 0x184A JUMP JUMPDEST SWAP2 POP PUSH1 0x7 DUP6 ADD SLOAD PUSH1 0x8 DUP7 ADD SLOAD LT DUP1 ISZERO PUSH2 0x1AEC JUMPI JUMPDEST SWAP2 PUSH2 0x1844 JUMP JUMPDEST POP PUSH1 0x3 PUSH2 0x1AFA DUP6 DUP8 ADD PUSH2 0x29E1 JUMP JUMPDEST ADD SLOAD ISZERO PUSH2 0x1AE6 JUMP JUMPDEST SWAP1 POP ISZERO ISZERO DUP7 PUSH2 0x181F JUMP JUMPDEST TIMESTAMP DUP2 GT ISZERO SWAP2 POP PUSH2 0x1819 JUMP JUMPDEST CALLVALUE PUSH2 0x203 JUMPI PUSH1 0x20 CALLDATASIZE PUSH1 0x3 NOT ADD SLT PUSH2 0x203 JUMPI PUSH1 0x4 CALLDATALOAD PUSH1 0x1 PUSH1 0x1 PUSH1 0x40 SHL SUB DUP2 GT PUSH2 0x203 JUMPI PUSH1 0xFF PUSH1 0x8 PUSH2 0x1B89 PUSH1 0x20 PUSH2 0x1B51 DUP2 SWAP6 CALLDATASIZE SWAP1 PUSH1 0x4 ADD PUSH2 0x241B JUMP JUMPDEST PUSH1 0x40 MLOAD SWAP1 PUSH2 0x509 DUP2 MLOAD SWAP3 DUP5 DUP4 ADD SWAP4 PUSH2 0x1B6A DUP2 DUP4 DUP8 PUSH2 0x23BA JUMP JUMPDEST PUSH0 SWAP1 DUP3 ADD SWAP1 DUP2 MSTORE DUP2 SWAP1 SUB DUP6 ADD SWAP1 KECCAK256 SLOAD PUSH1 0x1 PUSH1 0x1 PUSH1 0xA0 SHL SUB AND ISZERO ISZERO PUSH2 0x2BA6 JUMP JUMPDEST DUP2 ADD PUSH0 DUP2 MSTORE SUB ADD SWAP1 KECCAK256 ADD SLOAD AND PUSH1 0x40 MLOAD SWAP1 ISZERO ISZERO DUP2 MSTORE RETURN JUMPDEST PUSH2 0x1BA8 CALLDATASIZE PUSH2 0x2511 JUMP JUMPDEST SWAP3 PUSH2 0x1BEA PUSH1 0x20 PUSH1 0x40 SWAP10 SWAP7 SWAP9 SWAP8 SWAP10 SWAP5 SWAP4 SWAP5 MLOAD PUSH2 0x1BC9 DUP13 DUP3 DUP2 MLOAD SWAP5 DUP6 SWAP3 ADD PUSH2 0x23BA JUMP JUMPDEST PUSH0 SWAP2 DUP2 ADD SWAP2 DUP3 MSTORE SWAP1 DUP2 SWAP1 SUB PUSH1 0x20 ADD SWAP1 KECCAK256 SLOAD PUSH1 0x1 PUSH1 0x1 PUSH1 0xA0 SHL SUB AND ISZERO ISZERO PUSH2 0x2724 JUMP JUMPDEST ORIGIN PUSH0 MSTORE PUSH1 0x9 PUSH1 0x20 MSTORE PUSH2 0x1C03 PUSH1 0xFF PUSH1 0x40 PUSH0 KECCAK256 SLOAD AND ISZERO PUSH2 0x276A JUMP JUMPDEST PUSH1 0xD SLOAD PUSH1 0x40 MLOAD PUSH4 0x5848E2A3 PUSH1 0xE1 SHL DUP2 MSTORE PUSH1 0x1 PUSH1 0x1 PUSH1 0xA0 SHL SUB SWAP1 SWAP2 AND SWAP1 PUSH1 0x20 DUP2 DUP1 PUSH2 0x1C31 DUP15 ORIGIN PUSH1 0x4 DUP5 ADD PUSH2 0x27F0 JUMP JUMPDEST SUB DUP2 DUP6 GAS STATICCALL SWAP1 DUP2 ISZERO PUSH2 0x7C2 JUMPI PUSH2 0x1C76 SWAP3 PUSH2 0x1C5A PUSH1 0x1 PUSH1 0x20 SWAP5 DUP16 SWAP5 PUSH0 SWAP2 PUSH2 0x1EE3 JUMPI POP ISZERO ISZERO EQ PUSH2 0x2815 JUMP JUMPDEST PUSH1 0x40 MLOAD DUP1 DUP1 SWAP6 DUP2 SWAP5 PUSH4 0x2B5DF59 PUSH1 0xE0 SHL DUP4 MSTORE ORIGIN PUSH1 0x4 DUP5 ADD PUSH2 0x27F0 JUMP JUMPDEST SUB SWAP2 GAS STATICCALL SWAP1 DUP2 ISZERO PUSH2 0x7C2 JUMPI DUP11 SWAP1 PUSH0 SWAP3 PUSH2 0x1EA1 JUMPI JUMPDEST POP SWAP8 PUSH2 0x1CE5 PUSH2 0x1E2A SWAP7 SWAP6 SWAP5 SWAP4 SWAP3 PUSH1 0x1 PUSH2 0x1CD3 PUSH1 0x20 PUSH32 0x65513F3A4B238816F691E4322BE549C10EEAA1EF78FE116618B0D83E5CA252B6 SWAP14 DUP2 PUSH1 0x40 MLOAD SWAP4 DUP3 DUP6 DUP1 SWAP5 MLOAD SWAP4 DUP5 SWAP3 ADD PUSH2 0x23BA JUMP JUMPDEST DUP2 ADD PUSH0 DUP2 MSTORE SUB ADD SWAP1 KECCAK256 ADD SLOAD SGT ISZERO PUSH2 0x2872 JUMP JUMPDEST PUSH2 0x1CF2 PUSH1 0xB SLOAD CALLVALUE EQ PUSH2 0x28BE JUMP JUMPDEST DUP5 DUP4 PUSH1 0x5 SLOAD PUSH0 MSTORE PUSH1 0x2 PUSH1 0x20 MSTORE DUP13 PUSH1 0x40 PUSH0 KECCAK256 SWAP2 PUSH1 0x3 SLOAD DUP1 SWAP2 GT PUSH2 0x1E97 JUMPI JUMPDEST POP PUSH1 0x6 PUSH1 0x20 MSTORE PUSH1 0x40 PUSH0 KECCAK256 DUP1 SLOAD PUSH1 0x1 PUSH1 0x1 PUSH1 0xA0 SHL SUB NOT AND CALLER OR DUP2 SSTORE PUSH2 0x1E1E SWAP4 SWAP3 PUSH1 0x7 SWAP3 SWAP1 SWAP2 PUSH2 0x1DD0 SWAP2 SWAP1 PUSH2 0x1D45 DUP3 PUSH1 0x1 DUP4 ADD PUSH2 0x25FC JUMP JUMPDEST TIMESTAMP PUSH1 0x2 DUP3 ADD SSTORE DUP5 SLOAD PUSH1 0x4 DUP3 ADD SSTORE PUSH1 0x1 PUSH1 0x3 DUP3 ADD SSTORE PUSH1 0xA PUSH1 0x1 PUSH1 0xFF NOT DUP3 DUP5 ADD SLOAD AND OR SWAP2 ADD SSTORE PUSH2 0x1DC1 PUSH1 0x20 PUSH1 0x5 SLOAD SWAP3 PUSH2 0x1D7B DUP2 PUSH2 0x2704 JUMP JUMPDEST PUSH1 0x40 MLOAD TIMESTAMP DUP2 MSTORE PUSH1 0x1 DUP5 DUP3 ADD MSTORE DUP6 PUSH32 0x6C98A8C940418B35614F0CD02412D5C9606FAFF474CBB6CDD6640BA5D1A9F06B PUSH1 0x40 CALLER SWAP4 LOG4 DUP2 PUSH1 0x40 MLOAD SWAP4 DUP3 DUP6 DUP1 SWAP5 MLOAD SWAP4 DUP5 SWAP3 ADD PUSH2 0x23BA JUMP JUMPDEST DUP2 ADD PUSH1 0x8 DUP2 MSTORE SUB ADD SWAP1 KECCAK256 PUSH2 0x29B0 JUMP JUMPDEST DUP11 DUP2 SSTORE DUP12 PUSH1 0x1 DUP3 ADD SSTORE DUP14 PUSH1 0x2 DUP3 ADD SSTORE DUP5 PUSH1 0x3 DUP3 ADD SSTORE PUSH1 0x4 DUP2 ADD PUSH1 0x1 DUP1 PUSH1 0xA0 SHL SUB DUP8 AND PUSH1 0x1 DUP1 PUSH1 0xA0 SHL SUB NOT DUP3 SLOAD AND OR SWAP1 SSTORE DUP7 PUSH1 0x5 DUP3 ADD SSTORE DUP8 PUSH1 0x6 DUP3 ADD SSTORE ADD SWAP1 PUSH1 0xFF DUP1 NOT DUP4 SLOAD AND SWAP2 ISZERO ISZERO AND OR SWAP1 SSTORE JUMP JUMPDEST PUSH2 0x1685 PUSH1 0x5 SLOAD SWAP12 PUSH2 0x2704 JUMP JUMPDEST SUB SWAP1 LOG3 PUSH2 0x1E50 PUSH0 DUP1 DUP1 DUP1 CALLVALUE PUSH1 0x1 DUP1 PUSH1 0xA0 SHL SUB PUSH1 0xC SLOAD AND GAS CALL PUSH2 0x1E4A PUSH2 0x2903 JUMP JUMPDEST POP PUSH2 0x2932 JUMP JUMPDEST CALLER PUSH0 MSTORE PUSH1 0x9 PUSH1 0x20 MSTORE PUSH1 0x40 PUSH0 KECCAK256 PUSH1 0x1 PUSH1 0xFF NOT DUP3 SLOAD AND OR SWAP1 SSTORE PUSH2 0x1E72 PUSH1 0x5 SLOAD PUSH2 0x2975 JUMP JUMPDEST PUSH2 0x1E7D PUSH1 0x5 SLOAD PUSH2 0x29D3 JUMP JUMPDEST DUP1 PUSH1 0x5 SSTORE PUSH0 NOT DUP2 ADD SWAP1 DUP2 GT PUSH2 0x3BC JUMPI PUSH1 0x20 SWAP1 PUSH1 0x40 MLOAD SWAP1 DUP2 MSTORE RETURN JUMPDEST SWAP6 POP PUSH2 0x1E1E PUSH2 0x1D0F JUMP JUMPDEST SWAP6 SWAP5 SWAP4 SWAP3 SWAP2 POP POP PUSH1 0x20 DUP6 RETURNDATASIZE PUSH1 0x20 GT PUSH2 0x1EDB JUMPI JUMPDEST DUP2 PUSH2 0x1EC1 PUSH1 0x20 SWAP4 DUP4 PUSH2 0x22F8 JUMP JUMPDEST DUP2 ADD SUB SLT PUSH2 0x203 JUMPI SWAP4 MLOAD SWAP3 SWAP4 SWAP2 SWAP3 SWAP1 SWAP2 SWAP1 DUP10 PUSH2 0x1CE5 PUSH2 0x1C8A JUMP JUMPDEST RETURNDATASIZE SWAP2 POP PUSH2 0x1EB4 JUMP JUMPDEST PUSH2 0x1EFA SWAP2 POP DUP7 RETURNDATASIZE DUP9 GT PUSH2 0x885 JUMPI PUSH2 0x877 DUP2 DUP4 PUSH2 0x22F8 JUMP JUMPDEST PUSH0 PUSH2 0xB38 JUMP JUMPDEST CALLVALUE PUSH2 0x203 JUMPI PUSH2 0x1F0E CALLDATASIZE PUSH2 0x2477 JUMP JUMPDEST SWAP1 PUSH1 0x40 MLOAD SWAP1 DUP1 MLOAD SWAP1 PUSH1 0x20 DUP2 ADD SWAP2 PUSH2 0x1F26 DUP2 DUP6 DUP6 PUSH2 0x23BA JUMP JUMPDEST DUP4 ADD PUSH0 DUP2 MSTORE DUP4 PUSH1 0x20 PUSH1 0x1 DUP1 PUSH1 0xA0 SHL SUB SWAP6 DUP7 SWAP4 SUB ADD SWAP1 KECCAK256 SLOAD AND CALLER SUB PUSH2 0x1F7C JUMPI PUSH2 0x1F5C SWAP2 PUSH1 0x20 SWAP2 PUSH1 0x40 MLOAD SWAP4 DUP5 SWAP3 DUP4 SWAP3 MLOAD SWAP3 DUP4 SWAP2 PUSH2 0x23BA JUMP JUMPDEST PUSH0 SWAP1 DUP3 ADD SWAP1 DUP2 MSTORE SUB ADD SWAP1 KECCAK256 DUP1 SLOAD PUSH1 0x1 PUSH1 0x1 PUSH1 0xA0 SHL SUB NOT AND SWAP2 SWAP1 SWAP3 AND OR SWAP1 SSTORE STOP JUMPDEST PUSH1 0x40 MLOAD PUSH3 0x461BCD PUSH1 0xE5 SHL DUP2 MSTORE PUSH1 0x20 PUSH1 0x4 DUP3 ADD MSTORE PUSH1 0x27 PUSH1 0x24 DUP3 ADD MSTORE PUSH32 0x55736572206973206E6F7420746865206F776E6572206F66207468697320636F PUSH1 0x44 DUP3 ADD MSTORE PUSH7 0x6D6D756E697479 PUSH1 0xC8 SHL PUSH1 0x64 DUP3 ADD MSTORE PUSH1 0x84 SWAP1 REVERT JUMPDEST CALLVALUE PUSH2 0x203 JUMPI PUSH1 0x20 CALLDATASIZE PUSH1 0x3 NOT ADD SLT PUSH2 0x203 JUMPI PUSH1 0x4 CALLDATALOAD PUSH1 0x1 PUSH1 0x1 PUSH1 0x40 SHL SUB DUP2 GT PUSH2 0x203 JUMPI PUSH2 0x201C PUSH1 0x20 PUSH2 0x2009 PUSH2 0x120 SWAP4 CALLDATASIZE SWAP1 PUSH1 0x4 ADD PUSH2 0x241B JUMP JUMPDEST DUP2 PUSH1 0x40 MLOAD SWAP4 DUP3 DUP6 DUP1 SWAP5 MLOAD SWAP4 DUP5 SWAP3 ADD PUSH2 0x23BA JUMP JUMPDEST DUP2 ADD PUSH0 DUP2 MSTORE SUB ADD SWAP1 KECCAK256 PUSH1 0x1 DUP1 PUSH1 0xA0 SHL SUB DUP1 DUP3 SLOAD AND SWAP2 PUSH1 0x1 DUP2 ADD SLOAD SWAP2 PUSH1 0x2 DUP3 ADD SLOAD SWAP1 PUSH1 0x3 DUP4 ADD SLOAD SWAP1 PUSH1 0x4 DUP5 ADD SLOAD SWAP1 PUSH1 0x5 DUP6 ADD SLOAD AND SWAP2 PUSH1 0x6 DUP6 ADD SLOAD SWAP4 PUSH1 0xFF PUSH1 0x8 PUSH1 0x7 DUP9 ADD SLOAD SWAP8 ADD SLOAD AND SWAP7 PUSH1 0x40 MLOAD SWAP9 DUP10 MSTORE PUSH1 0x20 DUP10 ADD MSTORE PUSH1 0x40 DUP9 ADD MSTORE PUSH1 0x60 DUP8 ADD MSTORE PUSH1 0x80 DUP7 ADD MSTORE PUSH1 0xA0 DUP6 ADD MSTORE PUSH1 0xC0 DUP5 ADD MSTORE PUSH1 0xE0 DUP4 ADD MSTORE ISZERO ISZERO PUSH2 0x100 DUP3 ADD MSTORE RETURN JUMPDEST CALLVALUE PUSH2 0x203 JUMPI PUSH1 0x20 CALLDATASIZE PUSH1 0x3 NOT ADD SLT PUSH2 0x203 JUMPI PUSH2 0x20B0 PUSH2 0x2461 JUMP JUMPDEST PUSH1 0xA SLOAD PUSH1 0x1 PUSH1 0x1 PUSH1 0xA0 SHL SUB SWAP2 SWAP1 PUSH2 0x20CA SWAP1 DUP4 AND CALLER EQ PUSH2 0x2B61 JUMP JUMPDEST AND PUSH1 0x1 DUP1 PUSH1 0xA0 SHL SUB NOT PUSH1 0xD SLOAD AND OR PUSH1 0xD SSTORE PUSH0 DUP1 RETURN JUMPDEST CALLVALUE PUSH2 0x203 JUMPI PUSH1 0x20 CALLDATASIZE PUSH1 0x3 NOT ADD SLT PUSH2 0x203 JUMPI PUSH2 0x2105 PUSH1 0x1 DUP1 PUSH1 0xA0 SHL SUB PUSH1 0xA SLOAD AND CALLER EQ PUSH2 0x2B61 JUMP JUMPDEST PUSH1 0x4 CALLDATALOAD PUSH0 SWAP1 DUP2 MSTORE PUSH1 0x6 PUSH1 0x20 MSTORE PUSH1 0x40 SWAP1 KECCAK256 PUSH1 0xA ADD DUP1 SLOAD PUSH1 0xFF NOT AND SWAP1 SSTORE STOP JUMPDEST CALLVALUE PUSH2 0x203 JUMPI PUSH1 0x20 CALLDATASIZE PUSH1 0x3 NOT ADD SLT PUSH2 0x203 JUMPI PUSH1 0x4 CALLDATALOAD PUSH1 0x1 SLOAD DUP2 LT ISZERO PUSH2 0x203 JUMPI PUSH2 0x2149 SWAP1 PUSH2 0x24B8 JUMP JUMPDEST PUSH2 0x1697 JUMPI PUSH2 0x2159 PUSH2 0x116B SWAP2 PUSH2 0x2319 JUMP JUMPDEST PUSH1 0x40 MLOAD SWAP2 DUP3 SWAP2 PUSH1 0x20 DUP4 MSTORE PUSH1 0x20 DUP4 ADD SWAP1 PUSH2 0x23DB JUMP JUMPDEST CALLVALUE PUSH2 0x203 JUMPI PUSH1 0x20 DUP1 PUSH2 0x217E CALLDATASIZE PUSH2 0x2477 JUMP JUMPDEST SWAP2 SWAP1 PUSH2 0x21BC DUP3 PUSH1 0x40 MLOAD SWAP3 DUP1 MLOAD SWAP1 PUSH2 0x509 DUP4 DUP3 ADD SWAP3 PUSH2 0x219D DUP2 DUP9 DUP7 PUSH2 0x23BA JUMP JUMPDEST DUP7 ADD PUSH0 DUP2 MSTORE DUP7 PUSH1 0x1 DUP1 PUSH1 0xA0 SHL SUB SWAP9 DUP10 SWAP9 DUP10 SWAP4 SUB ADD SWAP1 KECCAK256 SLOAD AND ISZERO ISZERO PUSH2 0x2BA6 JUMP JUMPDEST DUP2 ADD PUSH0 DUP2 MSTORE SUB ADD SWAP1 KECCAK256 SLOAD AND SWAP1 PUSH1 0x40 MLOAD SWAP3 AND EQ DUP2 MSTORE RETURN JUMPDEST CALLVALUE PUSH2 0x203 JUMPI PUSH0 CALLDATASIZE PUSH1 0x3 NOT ADD SLT PUSH2 0x203 JUMPI PUSH1 0xD SLOAD PUSH1 0x40 MLOAD PUSH1 0x1 PUSH1 0x1 PUSH1 0xA0 SHL SUB SWAP1 SWAP2 AND DUP2 MSTORE PUSH1 0x20 SWAP1 RETURN JUMPDEST CALLVALUE PUSH2 0x203 JUMPI PUSH1 0x20 CALLDATASIZE PUSH1 0x3 NOT ADD SLT PUSH2 0x203 JUMPI PUSH1 0x4 CALLDATALOAD PUSH0 SWAP1 DUP2 MSTORE PUSH1 0x6 PUSH1 0x20 MSTORE PUSH1 0x40 SWAP1 KECCAK256 DUP1 SLOAD PUSH1 0x1 PUSH1 0x1 PUSH1 0xA0 SHL SUB AND PUSH2 0x2232 PUSH1 0x1 DUP4 ADD PUSH2 0x2319 JUMP JUMPDEST SWAP2 PUSH1 0xFF PUSH1 0x2 DUP3 ADD SLOAD SWAP2 PUSH1 0x3 DUP2 ADD SLOAD SWAP1 PUSH1 0x4 DUP2 ADD SLOAD PUSH1 0x5 DUP3 ADD SLOAD PUSH1 0x6 DUP4 ADD SLOAD SWAP1 PUSH1 0x7 DUP5 ADD SLOAD SWAP3 PUSH1 0xA PUSH1 0x8 DUP7 ADD SLOAD SWAP6 ADD SLOAD SWAP6 PUSH2 0x2280 PUSH1 0x40 MLOAD SWAP12 DUP13 SWAP12 DUP13 MSTORE PUSH1 0x20 DUP13 PUSH2 0x160 SWAP2 DUP3 SWAP2 ADD MSTORE DUP13 ADD SWAP1 PUSH2 0x23DB JUMP JUMPDEST SWAP9 PUSH1 0x40 DUP12 ADD MSTORE PUSH1 0x60 DUP11 ADD MSTORE PUSH1 0x80 DUP10 ADD MSTORE PUSH1 0xA0 DUP9 ADD MSTORE PUSH1 0xC0 DUP8 ADD MSTORE PUSH1 0xE0 DUP7 ADD MSTORE PUSH2 0x100 DUP6 ADD MSTORE DUP2 DUP2 AND ISZERO ISZERO PUSH2 0x120 DUP6 ADD MSTORE PUSH1 0x8 SHR AND ISZERO ISZERO PUSH2 0x140 DUP4 ADD MSTORE SUB SWAP1 RETURN JUMPDEST SWAP1 PUSH1 0x1 DUP3 DUP2 SHR SWAP3 AND DUP1 ISZERO PUSH2 0x22EE JUMPI JUMPDEST PUSH1 0x20 DUP4 LT EQ PUSH2 0x22DA JUMPI JUMP JUMPDEST PUSH4 0x4E487B71 PUSH1 0xE0 SHL PUSH0 MSTORE PUSH1 0x22 PUSH1 0x4 MSTORE PUSH1 0x24 PUSH0 REVERT JUMPDEST SWAP2 PUSH1 0x7F AND SWAP2 PUSH2 0x22CF JUMP JUMPDEST SWAP1 PUSH1 0x1F DUP1 NOT SWAP2 ADD AND DUP2 ADD SWAP1 DUP2 LT PUSH1 0x1 PUSH1 0x1 PUSH1 0x40 SHL SUB DUP3 GT OR PUSH2 0xF6D JUMPI PUSH1 0x40 MSTORE JUMP JUMPDEST SWAP1 PUSH1 0x40 MLOAD SWAP2 DUP3 PUSH0 DUP3 SLOAD SWAP3 PUSH2 0x232C DUP5 PUSH2 0x22C0 JUMP JUMPDEST SWAP1 DUP2 DUP5 MSTORE PUSH1 0x1 SWAP5 DUP6 DUP2 AND SWAP1 DUP2 PUSH0 EQ PUSH2 0x2397 JUMPI POP PUSH1 0x1 EQ PUSH2 0x2357 JUMPI JUMPDEST POP POP PUSH2 0x2355 SWAP3 POP SUB DUP4 PUSH2 0x22F8 JUMP JUMPDEST JUMP JUMPDEST SWAP1 SWAP4 SWAP2 POP PUSH0 MSTORE PUSH1 0x20 SWAP1 DUP2 PUSH0 KECCAK256 SWAP4 PUSH0 SWAP2 JUMPDEST DUP2 DUP4 LT PUSH2 0x237F JUMPI POP POP PUSH2 0x2355 SWAP4 POP DUP3 ADD ADD PUSH0 DUP1 PUSH2 0x2347 JUMP JUMPDEST DUP6 SLOAD DUP9 DUP5 ADD DUP6 ADD MSTORE SWAP5 DUP6 ADD SWAP5 DUP8 SWAP5 POP SWAP2 DUP4 ADD SWAP2 PUSH2 0x2367 JUMP JUMPDEST SWAP2 POP POP PUSH2 0x2355 SWAP5 POP PUSH1 0x20 SWAP3 POP PUSH1 0xFF NOT AND DUP3 DUP5 ADD MSTORE ISZERO ISZERO PUSH1 0x5 SHL DUP3 ADD ADD PUSH0 DUP1 PUSH2 0x2347 JUMP JUMPDEST PUSH0 JUMPDEST DUP4 DUP2 LT PUSH2 0x23CB JUMPI POP POP PUSH0 SWAP2 ADD MSTORE JUMP JUMPDEST DUP2 DUP2 ADD MLOAD DUP4 DUP3 ADD MSTORE PUSH1 0x20 ADD PUSH2 0x23BC JUMP JUMPDEST SWAP1 PUSH1 0x20 SWAP2 PUSH2 0x23F4 DUP2 MLOAD DUP1 SWAP3 DUP2 DUP6 MSTORE DUP6 DUP1 DUP7 ADD SWAP2 ADD PUSH2 0x23BA JUMP JUMPDEST PUSH1 0x1F ADD PUSH1 0x1F NOT AND ADD ADD SWAP1 JUMP JUMPDEST PUSH1 0x1 PUSH1 0x1 PUSH1 0x40 SHL SUB DUP2 GT PUSH2 0xF6D JUMPI PUSH1 0x1F ADD PUSH1 0x1F NOT AND PUSH1 0x20 ADD SWAP1 JUMP JUMPDEST DUP2 PUSH1 0x1F DUP3 ADD SLT ISZERO PUSH2 0x203 JUMPI DUP1 CALLDATALOAD SWAP1 PUSH2 0x2432 DUP3 PUSH2 0x2400 JUMP JUMPDEST SWAP3 PUSH2 0x2440 PUSH1 0x40 MLOAD SWAP5 DUP6 PUSH2 0x22F8 JUMP JUMPDEST DUP3 DUP5 MSTORE PUSH1 0x20 DUP4 DUP4 ADD ADD GT PUSH2 0x203 JUMPI DUP2 PUSH0 SWAP3 PUSH1 0x20 DUP1 SWAP4 ADD DUP4 DUP7 ADD CALLDATACOPY DUP4 ADD ADD MSTORE SWAP1 JUMP JUMPDEST PUSH1 0x4 CALLDATALOAD SWAP1 PUSH1 0x1 PUSH1 0x1 PUSH1 0xA0 SHL SUB DUP3 AND DUP3 SUB PUSH2 0x203 JUMPI JUMP JUMPDEST PUSH1 0x40 PUSH1 0x3 NOT DUP3 ADD SLT PUSH2 0x203 JUMPI PUSH1 0x4 CALLDATALOAD SWAP1 PUSH1 0x1 PUSH1 0x1 PUSH1 0x40 SHL SUB DUP3 GT PUSH2 0x203 JUMPI PUSH2 0x24A1 SWAP2 PUSH1 0x4 ADD PUSH2 0x241B JUMP JUMPDEST SWAP1 PUSH1 0x24 CALLDATALOAD PUSH1 0x1 PUSH1 0x1 PUSH1 0xA0 SHL SUB DUP2 AND DUP2 SUB PUSH2 0x203 JUMPI SWAP1 JUMP JUMPDEST PUSH1 0x1 SLOAD DUP2 LT ISZERO PUSH2 0x24D0 JUMPI PUSH1 0x1 PUSH0 MSTORE PUSH1 0x20 PUSH0 KECCAK256 ADD SWAP1 PUSH0 SWAP1 JUMP JUMPDEST PUSH4 0x4E487B71 PUSH1 0xE0 SHL PUSH0 MSTORE PUSH1 0x32 PUSH1 0x4 MSTORE PUSH1 0x24 PUSH0 REVERT JUMPDEST PUSH1 0x7 SLOAD DUP2 LT ISZERO PUSH2 0x24D0 JUMPI PUSH1 0x7 PUSH0 MSTORE PUSH1 0x20 PUSH0 KECCAK256 ADD SWAP1 PUSH0 SWAP1 JUMP JUMPDEST DUP1 SLOAD DUP3 LT ISZERO PUSH2 0x24D0 JUMPI PUSH0 MSTORE PUSH1 0x20 PUSH0 KECCAK256 ADD SWAP1 PUSH0 SWAP1 JUMP JUMPDEST PUSH2 0x120 PUSH1 0x3 NOT DUP3 ADD SLT PUSH2 0x203 JUMPI PUSH1 0x4 CALLDATALOAD SWAP1 PUSH1 0x1 PUSH1 0x1 PUSH1 0x40 SHL SUB DUP3 GT PUSH2 0x203 JUMPI PUSH2 0x253C SWAP2 PUSH1 0x4 ADD PUSH2 0x241B JUMP JUMPDEST SWAP1 PUSH1 0x24 CALLDATALOAD SWAP1 PUSH1 0x44 CALLDATALOAD SWAP1 PUSH1 0x64 CALLDATALOAD SWAP1 PUSH1 0x84 CALLDATALOAD SWAP1 PUSH1 0xA4 CALLDATALOAD PUSH1 0x1 PUSH1 0x1 PUSH1 0xA0 SHL SUB DUP2 AND DUP2 SUB PUSH2 0x203 JUMPI SWAP1 PUSH1 0xC4 CALLDATALOAD SWAP1 PUSH1 0xE4 CALLDATALOAD SWAP1 PUSH2 0x104 CALLDATALOAD DUP1 ISZERO ISZERO DUP2 SUB PUSH2 0x203 JUMPI SWAP1 JUMP JUMPDEST SWAP3 SWAP2 SWAP1 PUSH1 0x40 DUP5 ADD PUSH1 0x40 DUP6 MSTORE DUP2 MLOAD DUP1 SWAP2 MSTORE PUSH1 0x60 DUP6 ADD SWAP1 PUSH1 0x20 DUP1 SWAP4 ADD SWAP1 PUSH0 JUMPDEST DUP5 DUP3 DUP3 LT PUSH2 0x25A7 JUMPI POP POP POP POP SWAP4 ADD MSTORE JUMP JUMPDEST DUP4 MLOAD DUP6 MSTORE SWAP4 DUP5 ADD SWAP4 SWAP1 SWAP3 ADD SWAP2 PUSH1 0x1 ADD PUSH2 0x2596 JUMP JUMPDEST SWAP7 SWAP4 SWAP1 SWAP9 SWAP8 SWAP5 SWAP2 SWAP3 PUSH1 0xE0 SWAP7 SWAP4 PUSH2 0x100 DUP10 ADD SWAP11 DUP10 MSTORE PUSH1 0x20 DUP10 ADD MSTORE PUSH1 0x40 DUP9 ADD MSTORE PUSH1 0x60 DUP8 ADD MSTORE PUSH1 0x1 DUP1 PUSH1 0xA0 SHL SUB AND PUSH1 0x80 DUP7 ADD MSTORE PUSH1 0xA0 DUP6 ADD MSTORE PUSH1 0xC0 DUP5 ADD MSTORE ISZERO ISZERO SWAP2 ADD MSTORE JUMP JUMPDEST SWAP2 SWAP1 SWAP2 DUP3 MLOAD PUSH1 0x1 PUSH1 0x1 PUSH1 0x40 SHL SUB DUP2 GT PUSH2 0xF6D JUMPI PUSH2 0x2619 DUP3 SLOAD PUSH2 0x22C0 JUMP JUMPDEST PUSH1 0x1F DUP2 GT PUSH2 0x26BD JUMPI JUMPDEST POP PUSH1 0x20 DUP1 PUSH1 0x1F DUP4 GT PUSH1 0x1 EQ PUSH2 0x265D JUMPI POP DUP2 SWAP3 SWAP4 SWAP5 PUSH0 SWAP3 PUSH2 0x2652 JUMPI JUMPDEST POP POP DUP2 PUSH1 0x1 SHL SWAP2 PUSH0 NOT SWAP1 PUSH1 0x3 SHL SHR NOT AND OR SWAP1 SSTORE JUMP JUMPDEST ADD MLOAD SWAP1 POP PUSH0 DUP1 PUSH2 0x263D JUMP JUMPDEST SWAP1 PUSH1 0x1F NOT DUP4 AND SWAP6 DUP5 PUSH0 MSTORE DUP3 PUSH0 KECCAK256 SWAP3 PUSH0 SWAP1 JUMPDEST DUP9 DUP3 LT PUSH2 0x26A5 JUMPI POP POP DUP4 PUSH1 0x1 SWAP6 SWAP7 SWAP8 LT PUSH2 0x268D JUMPI JUMPDEST POP POP POP DUP2 SHL ADD SWAP1 SSTORE JUMP JUMPDEST ADD MLOAD PUSH0 NOT PUSH1 0xF8 DUP5 PUSH1 0x3 SHL AND SHR NOT AND SWAP1 SSTORE PUSH0 DUP1 DUP1 PUSH2 0x2683 JUMP JUMPDEST DUP1 PUSH1 0x1 DUP6 SWAP7 DUP3 SWAP5 SWAP7 DUP7 ADD MLOAD DUP2 SSTORE ADD SWAP6 ADD SWAP4 ADD SWAP1 PUSH2 0x266E JUMP JUMPDEST PUSH0 DUP4 DUP2 MSTORE PUSH1 0x20 DUP2 KECCAK256 PUSH1 0x1F DUP5 ADD PUSH1 0x5 SHR DUP2 ADD SWAP3 PUSH1 0x20 DUP6 LT PUSH2 0x26FA JUMPI JUMPDEST PUSH1 0x1F ADD PUSH1 0x5 SHR ADD SWAP2 JUMPDEST DUP3 DUP2 LT PUSH2 0x26EF JUMPI POP POP PUSH2 0x2622 JUMP JUMPDEST DUP2 DUP2 SSTORE PUSH1 0x1 ADD PUSH2 0x26E1 JUMP JUMPDEST SWAP1 SWAP3 POP DUP3 SWAP1 PUSH2 0x26D8 JUMP JUMPDEST PUSH2 0x271C SWAP1 PUSH1 0x20 PUSH1 0x40 MLOAD SWAP3 DUP3 DUP5 DUP1 SWAP5 MLOAD SWAP4 DUP5 SWAP3 ADD PUSH2 0x23BA JUMP JUMPDEST DUP2 ADD SUB SWAP1 KECCAK256 SWAP1 JUMP JUMPDEST ISZERO PUSH2 0x272B JUMPI JUMP JUMPDEST PUSH1 0x40 MLOAD PUSH3 0x461BCD PUSH1 0xE5 SHL DUP2 MSTORE PUSH1 0x20 PUSH1 0x4 DUP3 ADD MSTORE PUSH1 0x17 PUSH1 0x24 DUP3 ADD MSTORE PUSH23 0x10DBDB5B5D5B9A5D1E48191BD95CDB89DD08195E1A5CDD PUSH1 0x4A SHL PUSH1 0x44 DUP3 ADD MSTORE PUSH1 0x64 SWAP1 REVERT JUMPDEST ISZERO PUSH2 0x2771 JUMPI JUMP JUMPDEST PUSH1 0x40 MLOAD PUSH3 0x461BCD PUSH1 0xE5 SHL DUP2 MSTORE PUSH1 0x20 PUSH1 0x4 DUP3 ADD MSTORE PUSH1 0x39 PUSH1 0x24 DUP3 ADD MSTORE PUSH32 0x5573657220686173204F70656E205265766965772C20506C6561736520776169 PUSH1 0x44 DUP3 ADD MSTORE PUSH25 0x3A103AB73A34B6361034BA1034B990383937B1B2B9B9B2B217 PUSH1 0x39 SHL PUSH1 0x64 DUP3 ADD MSTORE PUSH1 0x84 SWAP1 REVERT JUMPDEST SWAP1 DUP2 PUSH1 0x20 SWAP2 SUB SLT PUSH2 0x203 JUMPI MLOAD DUP1 ISZERO ISZERO DUP2 SUB PUSH2 0x203 JUMPI SWAP1 JUMP JUMPDEST PUSH1 0x1 PUSH1 0x1 PUSH1 0xA0 SHL SUB SWAP1 SWAP2 AND DUP2 MSTORE PUSH1 0x40 PUSH1 0x20 DUP3 ADD DUP2 SWAP1 MSTORE PUSH2 0x2812 SWAP3 SWAP2 ADD SWAP1 PUSH2 0x23DB JUMP JUMPDEST SWAP1 JUMP JUMPDEST ISZERO PUSH2 0x281C JUMPI JUMP JUMPDEST PUSH1 0x40 MLOAD PUSH3 0x461BCD PUSH1 0xE5 SHL DUP2 MSTORE PUSH1 0x20 PUSH1 0x4 DUP3 ADD MSTORE PUSH1 0x28 PUSH1 0x24 DUP3 ADD MSTORE PUSH32 0x596F7520617265206E6F742061206D656D62657220666F72207468697320636F PUSH1 0x44 DUP3 ADD MSTORE PUSH8 0x36B6BAB734BA3C97 PUSH1 0xC1 SHL PUSH1 0x64 DUP3 ADD MSTORE PUSH1 0x84 SWAP1 REVERT JUMPDEST ISZERO PUSH2 0x2879 JUMPI JUMP JUMPDEST PUSH1 0x40 MLOAD PUSH3 0x461BCD PUSH1 0xE5 SHL DUP2 MSTORE PUSH1 0x20 PUSH1 0x4 DUP3 ADD MSTORE PUSH1 0x1E PUSH1 0x24 DUP3 ADD MSTORE PUSH32 0x496E73756666696369656E7420637265647320746F2070726F706F73652E0000 PUSH1 0x44 DUP3 ADD MSTORE PUSH1 0x64 SWAP1 REVERT JUMPDEST ISZERO PUSH2 0x28C5 JUMPI JUMP JUMPDEST PUSH1 0x40 MLOAD PUSH3 0x461BCD PUSH1 0xE5 SHL DUP2 MSTORE PUSH1 0x20 PUSH1 0x4 DUP3 ADD MSTORE PUSH1 0x16 PUSH1 0x24 DUP3 ADD MSTORE PUSH22 0x4D7573742073656E642070726F706F73616C20666565 PUSH1 0x50 SHL PUSH1 0x44 DUP3 ADD MSTORE PUSH1 0x64 SWAP1 REVERT JUMPDEST RETURNDATASIZE ISZERO PUSH2 0x292D JUMPI RETURNDATASIZE SWAP1 PUSH2 0x2914 DUP3 PUSH2 0x2400 JUMP JUMPDEST SWAP2 PUSH2 0x2922 PUSH1 0x40 MLOAD SWAP4 DUP5 PUSH2 0x22F8 JUMP JUMPDEST DUP3 MSTORE RETURNDATASIZE PUSH0 PUSH1 0x20 DUP5 ADD RETURNDATACOPY JUMP JUMPDEST PUSH1 0x60 SWAP1 JUMP JUMPDEST ISZERO PUSH2 0x2939 JUMPI JUMP JUMPDEST PUSH1 0x40 MLOAD PUSH3 0x461BCD PUSH1 0xE5 SHL DUP2 MSTORE PUSH1 0x20 PUSH1 0x4 DUP3 ADD MSTORE PUSH1 0x14 PUSH1 0x24 DUP3 ADD MSTORE PUSH20 0x2330B4B632B2103A379039B2B7321022BA3432B9 PUSH1 0x61 SHL PUSH1 0x44 DUP3 ADD MSTORE PUSH1 0x64 SWAP1 REVERT JUMPDEST PUSH1 0x7 SLOAD SWAP1 PUSH1 0x1 PUSH1 0x40 SHL DUP3 LT ISZERO PUSH2 0xF6D JUMPI PUSH2 0x2998 DUP3 PUSH1 0x1 PUSH2 0x2355 SWAP5 ADD PUSH1 0x7 SSTORE PUSH2 0x24E4 JUMP JUMPDEST SWAP1 SWAP2 SWAP1 DUP3 SLOAD SWAP1 PUSH1 0x3 SHL SWAP2 DUP3 SHL SWAP2 PUSH0 NOT SWAP1 SHL NOT AND OR SWAP1 SSTORE JUMP JUMPDEST DUP1 SLOAD SWAP2 SWAP1 PUSH1 0x1 PUSH1 0x40 SHL DUP4 LT ISZERO PUSH2 0xF6D JUMPI DUP3 PUSH2 0x2998 SWAP2 PUSH1 0x1 PUSH2 0x2355 SWAP6 ADD DUP2 SSTORE PUSH2 0x24FC JUMP JUMPDEST PUSH0 NOT DUP2 EQ PUSH2 0x3BC JUMPI PUSH1 0x1 ADD SWAP1 JUMP JUMPDEST PUSH1 0x40 MLOAD SWAP1 DUP2 PUSH0 DUP3 SLOAD PUSH2 0x29F2 DUP2 PUSH2 0x22C0 JUMP JUMPDEST SWAP4 PUSH1 0x1 SWAP2 DUP1 DUP4 AND SWAP1 DUP2 ISZERO PUSH2 0x2A53 JUMPI POP PUSH1 0x1 EQ PUSH2 0x2A19 JUMPI JUMPDEST POP POP PUSH1 0x20 SWAP3 POP PUSH0 DUP2 MSTORE SUB ADD SWAP1 KECCAK256 SWAP1 JUMP JUMPDEST SWAP1 SWAP2 POP PUSH0 MSTORE PUSH1 0x20 SWAP1 DUP2 PUSH0 KECCAK256 SWAP1 PUSH0 SWAP2 JUMPDEST DUP6 DUP4 LT PUSH2 0x2A3F JUMPI POP POP POP POP PUSH1 0x20 SWAP2 DUP2 ADD PUSH0 DUP1 PUSH2 0x2A09 JUMP JUMPDEST DUP1 SLOAD DUP8 DUP5 ADD MSTORE DUP7 SWAP5 POP SWAP2 DUP4 ADD SWAP2 DUP2 ADD PUSH2 0x2A28 JUMP JUMPDEST SWAP3 POP POP POP PUSH1 0x20 SWAP4 SWAP2 POP PUSH1 0xFF NOT AND DUP3 MSTORE DUP1 ISZERO ISZERO MUL DUP2 ADD PUSH0 DUP1 PUSH2 0x2A09 JUMP JUMPDEST SWAP2 SWAP1 DUP3 ADD DUP1 SWAP3 GT PUSH2 0x3BC JUMPI JUMP JUMPDEST SWAP2 SWAP1 PUSH1 0x1 DUP1 PUSH1 0xA0 SHL SUB AND DUP3 MSTORE PUSH1 0x20 SWAP2 PUSH1 0x40 DUP4 DUP3 ADD MSTORE PUSH0 SWAP3 DUP3 SLOAD PUSH2 0x2A9E DUP2 PUSH2 0x22C0 JUMP JUMPDEST SWAP4 DUP5 PUSH1 0x40 DUP6 ADD MSTORE PUSH1 0x1 SWAP2 DUP3 DUP2 AND SWAP1 DUP2 PUSH0 EQ PUSH2 0x2AFE JUMPI POP PUSH1 0x1 EQ PUSH2 0x2AC4 JUMPI JUMPDEST POP POP POP POP POP SWAP1 JUMP JUMPDEST PUSH0 SWAP1 DUP2 MSTORE DUP3 DUP2 KECCAK256 SWAP5 SWAP6 POP SWAP4 JUMPDEST DUP6 DUP6 LT PUSH2 0x2AEA JUMPI POP POP POP PUSH1 0x60 SWAP3 POP ADD ADD PUSH0 DUP1 DUP1 DUP1 DUP1 PUSH2 0x2ABC JUMP JUMPDEST DUP1 SLOAD DUP6 DUP6 ADD PUSH1 0x60 ADD MSTORE SWAP4 DUP3 ADD SWAP4 DUP2 ADD PUSH2 0x2AD0 JUMP JUMPDEST SWAP4 POP POP POP POP PUSH1 0x60 SWAP4 POP PUSH1 0xFF SWAP3 SWAP2 SWAP3 NOT AND DUP4 DUP4 ADD MSTORE ISZERO ISZERO PUSH1 0x5 SHL ADD ADD PUSH0 DUP1 DUP1 DUP1 DUP1 PUSH2 0x2ABC JUMP JUMPDEST PUSH1 0x7 SLOAD DUP1 ISZERO PUSH2 0x2B4D JUMPI PUSH0 NOT SWAP1 DUP2 ADD SWAP1 PUSH2 0x2B3B DUP3 PUSH2 0x24E4 JUMP JUMPDEST SWAP1 SWAP2 DUP3 SLOAD SWAP2 PUSH1 0x3 SHL SHL NOT AND SWAP1 SSTORE PUSH1 0x7 SSTORE JUMP JUMPDEST PUSH4 0x4E487B71 PUSH1 0xE0 SHL PUSH0 MSTORE PUSH1 0x31 PUSH1 0x4 MSTORE PUSH1 0x24 PUSH0 REVERT JUMPDEST ISZERO PUSH2 0x2B68 JUMPI JUMP JUMPDEST PUSH1 0x40 MLOAD PUSH3 0x461BCD PUSH1 0xE5 SHL DUP2 MSTORE PUSH1 0x20 PUSH1 0x4 DUP3 ADD MSTORE PUSH1 0x16 PUSH1 0x24 DUP3 ADD MSTORE PUSH22 0x2737BA103A34329031B7B73A3930B1BA1037BBB732B9 PUSH1 0x51 SHL PUSH1 0x44 DUP3 ADD MSTORE PUSH1 0x64 SWAP1 REVERT JUMPDEST ISZERO PUSH2 0x2BAD JUMPI JUMP JUMPDEST PUSH1 0x40 MLOAD PUSH3 0x461BCD PUSH1 0xE5 SHL DUP2 MSTORE PUSH1 0x20 PUSH1 0x4 DUP3 ADD MSTORE PUSH1 0x19 PUSH1 0x24 DUP3 ADD MSTORE PUSH25 0x10DBDB5B5D5B9A5D1E48111BD95CC8139BDD08115E1CDA5CDD PUSH1 0x3A SHL PUSH1 0x44 DUP3 ADD MSTORE PUSH1 0x64 SWAP1 REVERT JUMPDEST PUSH1 0x1 PUSH1 0x1 PUSH1 0x40 SHL SUB DUP2 GT PUSH2 0xF6D JUMPI PUSH1 0x5 SHL PUSH1 0x20 ADD SWAP1 JUMP JUMPDEST SWAP1 PUSH2 0x2C0F DUP3 PUSH2 0x2BEE JUMP JUMPDEST PUSH2 0x2C1C PUSH1 0x40 MLOAD SWAP2 DUP3 PUSH2 0x22F8 JUMP JUMPDEST DUP3 DUP2 MSTORE DUP1 SWAP3 PUSH2 0x2C2D PUSH1 0x1F NOT SWAP2 PUSH2 0x2BEE JUMP JUMPDEST ADD SWAP1 PUSH1 0x20 CALLDATASIZE SWAP2 ADD CALLDATACOPY JUMP JUMPDEST DUP2 DUP2 MUL SWAP3 SWAP2 DUP2 ISZERO SWAP2 DUP5 DIV EQ OR ISZERO PUSH2 0x3BC JUMPI JUMP JUMPDEST DUP1 MLOAD DUP3 LT ISZERO PUSH2 0x24D0 JUMPI PUSH1 0x20 SWAP2 PUSH1 0x5 SHL ADD ADD SWAP1 JUMP JUMPDEST DUP2 ISZERO PUSH2 0x2C68 JUMPI DIV SWAP1 JUMP JUMPDEST PUSH4 0x4E487B71 PUSH1 0xE0 SHL PUSH0 MSTORE PUSH1 0x12 PUSH1 0x4 MSTORE PUSH1 0x24 PUSH0 REVERT INVALID CALLDATALOAD 0xBA 0xAE 0xC8 0xD9 0xC9 0xDA SHR PUSH24 0xF27119243A4384B49EAE2BF0680AA0EEBE3B62D28574A5A2 PUSH5 0x6970667358 0x22 SLT KECCAK256 DELEGATECALL 0x2A 0x1E DUP14 0xB1 MSTORE SELFBALANCE LOG1 GAS DUP10 INVALID 0xDA SIGNEXTEND JUMPI CALLDATASIZE BASEFEE LOG3 EXTCODEHASH 0xD7 ORIGIN 0x4F DUP9 PUSH14 0xAAC7D012AD617313964736F6C63 NUMBER STOP ADDMOD EQ STOP CALLER "},"methodIdentifiers":{"CommunityNames(uint256)":"0dc85f7d","CommunityProposal(string,uint256,uint256,uint256,uint256,address,uint256,uint256,bool)":"31b4ea2e","CommunityProposals(uint256)":"8126d895","CustomProposal(string,address)":"b07bcbc5","CustomProposals(uint256)":"90943a8b","MemberContract()":"0163b968","changeCommunityOwner(string,address)":"298a5750","checkUpkeep()":"a13abdad","communities(string)":"28adc240","createCommunity(string,uint256,uint256,uint256,uint256,address,uint256,uint256,bool)":"6219f117","fee()":"ddca3f43","getActiveProposalIndex(uint256)":"b60a85ae","getActiveProposalsLength()":"495d855e","getCommunityExists(string)":"7b7fcfed","getCommunityInfo(string)":"a64108d5","getCommunityIsInviteOnly(string)":"3df67352","getCommunityIsOwner(string,address)":"04413d86","getCommunityOwner(string)":"b3f6702d","getFee()":"ced72f87","getMemberAccessContract(string)":"cbe02a9f","getPaginatedActiveProposals(uint256,uint256)":"860eb3d9","getPaginatedCommunityProposals(string,uint256,uint256)":"789aa8f6","getProposalResults(uint256)":"5bdcd008","getProposalType(uint256)":"d978ffba","getProposalVote(address,uint256)":"68535709","hasOpenProposal(address)":"ff1225d9","performUpkeep(bytes)":"4585e33b","porposalsByCommunity(string,uint256)":"c2c2e5f8","proposals(uint256)":"013cf08b","setFee(uint256)":"69fe0e2d","setFeeAddress(address)":"8705fcd4","setMaxProposalTime(uint256)":"a169093b","setProposalCanceled(uint256)":"d0d83923","setProposalCounter(uint256)":"8b640440","setProposalInactive(uint256)":"1282f609","setUpkkepId(uint256)":"5787a0cc","setlearntgetherMembersContract(address)":"25f8729f","upkeepId()":"d2aa789f","vote(uint256,bool)":"c9d27afe"}}}}}