{"contracts/learntgetherMembers.sol":{"learntgetherMembers":{"abi":[{"inputs":[],"stateMutability":"nonpayable","type":"constructor"},{"anonymous":false,"inputs":[{"indexed":true,"internalType":"string","name":"communityName","type":"string"},{"indexed":true,"internalType":"address","name":"memberAddress","type":"address"},{"indexed":true,"internalType":"address","name":"actor","type":"address"},{"indexed":false,"internalType":"int256","name":"creds","type":"int256"}],"name":"AddedNegCred","type":"event"},{"anonymous":false,"inputs":[{"indexed":true,"internalType":"string","name":"communityName","type":"string"},{"indexed":true,"internalType":"address","name":"memberAddress","type":"address"},{"indexed":true,"internalType":"address","name":"actor","type":"address"},{"indexed":false,"internalType":"int256","name":"creds","type":"int256"}],"name":"AddedPosCred","type":"event"},{"anonymous":false,"inputs":[{"indexed":true,"internalType":"address","name":"memberAddress","type":"address"},{"indexed":true,"internalType":"string","name":"communityName","type":"string"},{"indexed":false,"internalType":"int256","name":"creds","type":"int256"},{"indexed":true,"internalType":"uint256","name":"timestamp","type":"uint256"}],"name":"Creds","type":"event"},{"anonymous":false,"inputs":[{"indexed":true,"internalType":"string","name":"communityName","type":"string"},{"indexed":true,"internalType":"address","name":"memberAddress","type":"address"},{"indexed":true,"internalType":"address","name":"actor","type":"address"},{"indexed":false,"internalType":"int256","name":"index","type":"int256"}],"name":"IndexUpdated","type":"event"},{"anonymous":false,"inputs":[{"indexed":true,"internalType":"string","name":"communityName","type":"string"},{"indexed":true,"internalType":"address","name":"memberAddress","type":"address"}],"name":"MemberAdded","type":"event"},{"anonymous":false,"inputs":[{"indexed":true,"internalType":"address","name":"memberAddress","type":"address"},{"indexed":true,"internalType":"string","name":"name","type":"string"},{"indexed":false,"internalType":"string","name":"description","type":"string"},{"indexed":false,"internalType":"string[]","name":"degrees","type":"string[]"},{"indexed":false,"internalType":"string[]","name":"awards","type":"string[]"}],"name":"MemberInfo","type":"event"},{"anonymous":false,"inputs":[{"indexed":true,"internalType":"string","name":"communityName","type":"string"},{"indexed":true,"internalType":"address","name":"memberAddress","type":"address"}],"name":"MemberInvited","type":"event"},{"anonymous":false,"inputs":[{"indexed":true,"internalType":"string","name":"communityName","type":"string"},{"indexed":true,"internalType":"address","name":"memberAddress","type":"address"}],"name":"MemberRemoved","type":"event"},{"anonymous":false,"inputs":[{"indexed":true,"internalType":"string","name":"communityName","type":"string"},{"indexed":true,"internalType":"address","name":"memberAddress","type":"address"}],"name":"MemberUninvited","type":"event"},{"anonymous":false,"inputs":[{"indexed":true,"internalType":"string","name":"communityName","type":"string"},{"indexed":true,"internalType":"address","name":"memberAddress","type":"address"},{"indexed":true,"internalType":"address","name":"actor","type":"address"},{"indexed":false,"internalType":"int256","name":"creds","type":"int256"}],"name":"RemovedNegCred","type":"event"},{"anonymous":false,"inputs":[{"indexed":true,"internalType":"string","name":"communityName","type":"string"},{"indexed":true,"internalType":"address","name":"memberAddress","type":"address"},{"indexed":true,"internalType":"address","name":"actor","type":"address"},{"indexed":false,"internalType":"int256","name":"creds","type":"int256"}],"name":"RemovedPosCred","type":"event"},{"inputs":[{"internalType":"string","name":"_community","type":"string"},{"internalType":"address","name":"_member","type":"address"}],"name":"addNegCredsToMember","outputs":[],"stateMutability":"nonpayable","type":"function"},{"inputs":[{"internalType":"string","name":"_community","type":"string"},{"internalType":"address","name":"_member","type":"address"}],"name":"addPosCredsToMember","outputs":[],"stateMutability":"nonpayable","type":"function"},{"inputs":[{"internalType":"string","name":"_community","type":"string"}],"name":"addSelfAsMember","outputs":[],"stateMutability":"nonpayable","type":"function"},{"inputs":[],"name":"communityContract","outputs":[{"internalType":"contract learntgetherCommuityInterface","name":"","type":"address"}],"stateMutability":"view","type":"function"},{"inputs":[{"internalType":"string","name":"_community","type":"string"},{"internalType":"address","name":"_member","type":"address"},{"internalType":"int256","name":"_creds","type":"int256"}],"name":"contractSetCred","outputs":[{"internalType":"int256","name":"","type":"int256"}],"stateMutability":"nonpayable","type":"function"},{"inputs":[{"internalType":"address","name":"_member","type":"address"},{"internalType":"string","name":"_community","type":"string"}],"name":"getIsInvited","outputs":[{"internalType":"bool","name":"","type":"bool"}],"stateMutability":"view","type":"function"},{"inputs":[{"internalType":"address","name":"_member","type":"address"},{"internalType":"string","name":"_community","type":"string"}],"name":"getIsMember","outputs":[{"internalType":"bool","name":"","type":"bool"}],"stateMutability":"view","type":"function"},{"inputs":[{"internalType":"address","name":"_member","type":"address"}],"name":"getMemberCommunities","outputs":[{"internalType":"string[]","name":"","type":"string[]"}],"stateMutability":"view","type":"function"},{"inputs":[{"internalType":"address","name":"_memberAddress","type":"address"},{"internalType":"address","name":"_credGiverAddress","type":"address"},{"internalType":"string","name":"_communityName","type":"string"}],"name":"getMemberCredIndex","outputs":[{"internalType":"int256","name":"index","type":"int256"}],"stateMutability":"view","type":"function"},{"inputs":[{"internalType":"address","name":"_member","type":"address"},{"internalType":"string","name":"_community","type":"string"}],"name":"getMemberCreds","outputs":[{"internalType":"int256","name":"creds","type":"int256"}],"stateMutability":"view","type":"function"},{"inputs":[{"internalType":"address","name":"_member","type":"address"},{"internalType":"string","name":"_community","type":"string"}],"name":"getMemberNegCredsList","outputs":[{"internalType":"address[]","name":"addressList","type":"address[]"}],"stateMutability":"view","type":"function"},{"inputs":[{"internalType":"address","name":"_member","type":"address"},{"internalType":"string","name":"_community","type":"string"}],"name":"getMemberPosCredsList","outputs":[{"internalType":"address[]","name":"addressList","type":"address[]"}],"stateMutability":"view","type":"function"},{"inputs":[{"internalType":"address","name":"_member","type":"address"},{"internalType":"string","name":"_community","type":"string"},{"internalType":"address","name":"givenBy","type":"address"}],"name":"hasMemberGivenCred","outputs":[{"internalType":"bool","name":"","type":"bool"}],"stateMutability":"view","type":"function"},{"inputs":[{"internalType":"string","name":"_community","type":"string"},{"internalType":"address","name":"_member","type":"address"}],"name":"inviteMember","outputs":[{"internalType":"address","name":"","type":"address"}],"stateMutability":"nonpayable","type":"function"},{"inputs":[{"internalType":"string","name":"","type":"string"},{"internalType":"address","name":"","type":"address"}],"name":"isInvited","outputs":[{"internalType":"bool","name":"","type":"bool"}],"stateMutability":"view","type":"function"},{"inputs":[{"internalType":"address","name":"","type":"address"},{"internalType":"uint256","name":"","type":"uint256"}],"name":"memberCommunities","outputs":[{"internalType":"string","name":"","type":"string"}],"stateMutability":"view","type":"function"},{"inputs":[{"internalType":"string","name":"_community","type":"string"},{"internalType":"address","name":"_member","type":"address"}],"name":"removeNegCredsFromMember","outputs":[],"stateMutability":"nonpayable","type":"function"},{"inputs":[{"internalType":"string","name":"_community","type":"string"},{"internalType":"address","name":"_member","type":"address"}],"name":"removePosCredsFromMember","outputs":[],"stateMutability":"nonpayable","type":"function"},{"inputs":[{"internalType":"string","name":"_community","type":"string"}],"name":"removeSelfAsMember","outputs":[],"stateMutability":"nonpayable","type":"function"},{"inputs":[{"internalType":"address","name":"_contractAddress","type":"address"}],"name":"setlearntgetherCommunities","outputs":[],"stateMutability":"nonpayable","type":"function"},{"inputs":[{"internalType":"string","name":"_community","type":"string"},{"internalType":"address","name":"_member","type":"address"}],"name":"uninviteMember","outputs":[{"internalType":"address","name":"","type":"address"}],"stateMutability":"nonpayable","type":"function"}],"evm":{"bytecode":{"linkReferences":{},"object":"6080806040523461002857600280546001600160a01b031916331790556129f9908161002d8239f35b5f80fdfe60406080815260049081361015610014575f80fd5b5f91823560e01c90816302b5df59146121cb57816319f553e2146121465781634f64aedd14611e715781635450fdd514611a295781636255de33146119ab5781636b039bb4146116035781638c5956c4146111d45781638e634029146111ab57816399d03bf214610fb95781639c419dc914610f41578163a482857814610f13578163b091c54614610ef7578163b66fdab414610c57578163bf2a3b7414610ad8578163bf7cb216146109cb578163c783acb41461095c578163ca4f880b146105ee578163cdb43ea414610265578163e636f3141461020e57508063f3faf99a146101935763fbc3d96c14610107575f80fd5b3461018f57610115366122cf565b91909260018060a01b03809416815260036101386020948386528484209061249a565b01938251908194808754938481520196845280842093915b838310610176576101728787610168828c0383612259565b51918291826124c0565b0390f35b8454811688529681019660019485019490920191610150565b5080fd5b503461018f576101a2366122cf565b91909260018060a01b03809416815260026101c56020948386528484209061249a565b01938251908194808754938481520196845280842093915b8383106101f5576101728787610168828c0383612259565b84548116885296810196600194850194909201916101dd565b905034610261578160209360ff9261023d86610229366122cf565b909382875194838680955193849201612454565b8201908152030190206001600160a01b039091168252855220549151911615158152f35b8280fd5b83833461018f5761027536612311565b919060018060a01b0380931692838552602095858752806102988588208561249a565b015461059a578351918351928881818701956102b5818389612454565b810185815203019020868852885260ff85882054166105605780600354169085519063cbe02a9f60e01b8083528a858401528a83806102f7602482018b612475565b0381875afa928315610556578a93610537575b50875163b3f6702d60e01b81528581018c90528b818061032d602482018c612475565b0381885afa90811561052d579083918c91610510575b501633149283610505575b508215610493575b505015610440578785518092631efb39a960e11b825282858301528180610380602482018a612475565b03915afa90811561043657887fbee566e9904e3c5e202405f159f39bc31121d728f2772cabc7cf243bcf63a64794610400946103cf60018b9a99966103df968e91610409575b5015151461253a565b8751809481938751928391612454565b8201908152030190208588528852838720805460ff19166001179055612591565b91519480a38152f35b6104299150863d881161042f575b6104218183612259565b810190612522565b8f6103c6565b503d610417565b85513d89823e3d90fd5b845162461bcd60e51b8152808301899052602760248201527f596f7520646f6e742068617665207065726d697373696f6e20696e76697465206044820152664d656d6265727360c81b6064820152608490fd5b909150865190815289848201528981806104b0602482018a612475565b0381865afa9081156104fb5789916104ce575b501633148980610356565b6104ee91508a3d8c116104f4575b6104e68183612259565b810190612503565b8a6104c3565b503d6104dc565b87513d8b823e3d90fd5b82161592508b61034e565b61052791508d803d106104f4576104e68183612259565b8d610343565b89513d8d823e3d90fd5b61054f9193508b3d8d116104f4576104e68183612259565b918b61030a565b88513d8c823e3d90fd5b845162461bcd60e51b81528083018990526014602482015273155cd95c88105b1c9958591e48125b9d9a5d195960621b6044820152606490fd5b835162461bcd60e51b8152908101879052602860248201527f4d656d62657220616c726561647920657869737473206f66207468697320636f60448201526736b6bab734ba3c9760c11b6064820152608490fd5b83833461018f57602092836003193601126102615780356001600160401b03811161095857610620903690830161227a565b6003548351637b7fcfed60e01b815283810187905260249692949291829082906001600160a01b031681806106578c82018b612475565b03915afa90811561094e5790610674918791610931575b5061264a565b338552848152826106878387208661249a565b0154156108e157338552848152826106a18387208661249a565b01543386526001808352838720545f19989192908981019081116108cf5781036107c7575b5033875281835283872097885480156107b55701916106e5838a612352565b9290926107a5575092879594928987846107329761070483975461237b565b9081610765575b505050505533825281815281856107248583208a61249a565b01553382525283208461249a565b015561073e3391612591565b7fdd403bcc860194e697bd48a94ad259a004827525ef954ad73b044e400f3adfe08380a380f35b8390601f831160011461078057505050555b838b808061070b565b61079e90848394959352601f898520950160051c85019085016125b1565b5555610777565b634e487b7160e01b895288875288fd5b634e487b7160e01b8952603187528289fd5b3388528284528488208054908a82019182116108bd57906107e791612352565b503389528385526107fa82878b20612352565b6108ac579061080891612691565b338852878452858589208486528561082284898d20612352565b508851928c918054906108348261237b565b91868b821691825f1461089457505060011461085d575b505081528290030190200155886106c6565b909192508d528c888482205b83831061087d57505050830190838f61084b565b8054878401528d97508b95909201918a9101610869565b925094505060ff19168352801515028201918f61084b565b634e487b7160e01b8a52898852838afd5b634e487b7160e01b8a5260118852838afd5b634e487b7160e01b8952601187528289fd5b905162461bcd60e51b8152918201526027818501527f596f7520617265206e6f742061206d656d626572206f66207468697320636f6d60448201526636bab734ba3c9760c91b6064820152608490fd5b6109489150833d851161042f576104218183612259565b8861066e565b83513d88823e3d90fd5b8380fd5b905034610261576060366003190112610261576109776121fa565b90602435906001600160401b0382116109c7576109969136910161227a565b604435939091906001600160a01b03851685036109c45750926109bb91602094612962565b90519015158152f35b80fd5b8480fd5b83833461018f5760209283600319360112610261576001600160a01b036109f06121fa565b168352600193848152828420928354926001600160401b038411610ac557509184908692845191610a26828260051b0184612259565b8083528183018097855282852085915b838310610a9857505050508451948186019282875251809352808601908360051b8701019693905b838210610a6b5786880387f35b90919293948380610a87839a603f198b82030186528951612475565b999701959493919091019101610a5e565b90878086819c9a9594610aaf859d999a9b9d6123b3565b8152019201920192509896989795949397610a36565b634e487b7160e01b865260419052602485fd5b8284346109c45760603660031901126109c45782356001600160401b03811161018f57610b08903690850161227a565b90610b11612214565b600354845163cbe02a9f60e01b81526020818801819052966001600160a01b0393929091908890829086168180610b4b602482018c612475565b03915afa908115610c4d579084918691610c30575b50168033149081610c26575b5080610c07575b15610bac5750918491610ba4949316808252818752604435610b978484208661249a565b558152808652209061249a565b549051908152f35b855162461bcd60e51b8152908101879052602f60248201527f4e6f742074686520637265642061636365737320636f6e7472616374206f722060448201526e2ab9b2b9103737ba1036b2b6b132b960891b6064820152608490fd5b50828216845283875280610c1d8786208761249a565b01541515610b73565b9050151588610b6c565b610c479150893d8b116104f4576104e68183612259565b89610b60565b87513d87823e3d90fd5b90503461026157610c6736612311565b6003548451637b7fcfed60e01b8152602081860181905293956001600160a01b0392831695909493909291848180610ca2602482018c612475565b03818a5afa908115610eed57839291610cc1918b91610ed0575061264a565b338952888552610ce084610cd7888c208b61249a565b0154151561276b565b1694858852878452610d0183610cf8878b208a61249a565b015415156127af565b610d0d863314156127ef565b838551809263cbe02a9f60e01b825282868301528180610d30602482018d612475565b03915afa908115610ec65790610d5092918991610ea9575b50161561283b565b8386528582526001610d648488208761249a565b013387528252610d778387205415612896565b838652858252610d898387208661249a565b805490600182019188600184129112908015821691151617610e965755838652858252610db88387208661249a565b54610dc286612591565b8451918252855f805160206129a4833981519152854294a4838652858252610df8336002610df2868a208961249a565b01612627565b8386528582526002610e0c8488208761249a565b01545f19810191908211610e835750907fd0f5d24e816c9fc4cba0f35b280898648e66604fc44212736e778bfefc338b0f918487528682526001610e528589208861249a565b01338852825283872055838652858152610e78610e718488208761249a565b5495612591565b92519485523394a480f35b634e487b7160e01b875260119052602486fd5b634e487b7160e01b885260118352602488fd5b610ec09150853d87116104f4576104e68183612259565b5f610d48565b85513d8a823e3d90fd5b610ee79150873d891161042f576104218183612259565b5f61066e565b86513d8b823e3d90fd5b50503461018f576020906109bb610f0d366122cf565b90612930565b905034610261578160209360ff9261023d86610f2e36612311565b9382875194838680955193849201612454565b90503461026157606036600319011261026157610f5c6121fa565b610f64612214565b916044356001600160401b038111610fb557916001610fa5610f8e8796946020999636910161227a565b828060a01b0380941686528589528686209061249a565b0191168252845220549051908152f35b8580fd5b90503461026157610fc936612311565b6003548451637b7fcfed60e01b8152602081860181905293956001600160a01b0392831695909493909291848180611004602482018c612475565b03818a5afa908115610eed57839291611023918b91610ed0575061264a565b33895288855261103984610cd7888c208b61249a565b169485885287845261105183610cf8878b208a61249a565b61105d863314156127ef565b838551809263cbe02a9f60e01b825282868301528180611080602482018d612475565b03915afa908115610ec6579061109f92918991610ea95750161561283b565b83865285825260016110b38488208761249a565b0133875282526110c68387205415612896565b8386528582526110d88387208661249a565b9081545f199283820191821360011661119857558487528683526110fe8488208761249a565b5461110887612591565b8551918252865f805160206129a4833981519152864294a4848752868352611138336003610df2878b208a61249a565b848752868352600361114c8589208861249a565b0154918201918211610e835750906111847f8e3dd53aaad1909975de245668134b898a443d9d797f6a14e77b5cd0606ed541926128f6565b8487528682526001610e528589208861249a565b634e487b7160e01b895260118352602489fd5b50503461018f578160031936011261018f5760035490516001600160a01b039091168152602090f35b8284346109c4576111e436612311565b9260018060a01b0393846003541695825195637b7fcfed60e01b8752602092838389015260249784818061121a8c82018b612475565b03818d5afa9081156115f95798809a61127686610cf88a888e9f988e9f9e8f610cd78f9b9286836112a09f948f61125c611267988e9884916115e2575061264a565b33825252209061249a565b169c8d8152808852208d61249a565b611282893314156127ef565b8751808095819463cbe02a9f60e01b8352868a84015282018d612475565b03915afa908115610ec65790829189916115c5575b50166115765784875286835260016112cf8589208861249a565b0133885283528387205491878313801561156f575b8551906112f08261222a565b603682527f596f752068617665206e6f7420676976656e206120706f736974697665206372868301527532b2103a37903a3434b99036b2b6b132b9103cb2ba1760511b878301521561154b575085885287845261134f8589208861249a565b9182545f1993848201918b8684129112908015821691151617611539575586895288855261137f868a208961249a565b5461138989612591565b8751918252885f805160206129a4833981519152884294a486895288855260026113b5878b208a61249a565b0193898554928584019384116115275783830361146a575b5090508791505287845260016113e5868a208961249a565b0133895284528785812055825490811561145857507f6c5cfc2553aaffd4cd0342765cdbca370cda07554f00e4e5112884eae468e299939291019061144261142d8383612352565b81549060018060a01b039060031b1b19169055565b55838652858152610e78610e718488208761249a565b634e487b7160e01b8952603190528888fd5b6114ac8161147b6114ea968a612352565b90549060031b1c1661148d858a612352565b90919082549060031b9160018060a01b03809116831b921b1916179055565b60016114c98a6114bb8661291f565b948d8152808c52208d61249a565b01906114d58489612352565b90549060031b1c168c528752878b205561291f565b866114f489612591565b87519283527fd6fa86004958e4fadc7035e661e86172c72f1ea51e79e8bf8bd3f4103663e8e3873394a4898089816113cd565b634e487b7160e01b8252601185528c82fd5b634e487b7160e01b8b52601184528b8bfd5b855162461bcd60e51b8152918201859052819061156b90828c0190612475565b0390fd5b50876112e4565b5060258760849385519362461bcd60e51b85528401528201527f436f6d6d756e6974792055736573206120637265642061636365737320636f6e6044820152641d1c9858dd60da1b6064820152fd5b6115dc9150853d87116104f4576104e68183612259565b8a6112b5565b610ee79150833d851161042f576104218183612259565b86513d8a823e3d90fd5b83833461018f5761161336612311565b600354835163cbe02a9f60e01b80825260208289018190529793959493926024926001600160a01b0392918316918a82806116508882018b612475565b0381865afa918215610556578a9261198c575b50875163b3f6702d60e01b81528681018c90528b81806116858982018c612475565b0381875afa90811561052d57859182918e8e9261196f575b50501633149283611964575b5050811561190c575b50156118b8578886518092631efb39a960e11b8252828783015281806116da8882018b612475565b03915afa9081156115f9576116fb916001918a9161189b575015151461253a565b845190845191898181880194611712818388612454565b8101878152030190209616958688528852600160ff868920541615150361186457853314611822578761174f918651809381928851928391612454565b8101858152030190208587528752838620805460ff191690558351635848e2a360e11b81528083018690529081018490528681806117906044820187612475565b0381305afa9081156118185792867fe19753ef16cb08d80c81e7c26df1578544dc02c0a7538cf0d3fc2355dc180bca9360016104009489989784916117fb575b501515146117e0575b5050612591565b868252818a526117f28683208461249a565b015586896117d9565b61181291508c8d3d1061042f576104218183612259565b8c6117d0565b84513d88823e3d90fd5b845162461bcd60e51b8152808401899052601d818401527f596f752063616e6e6f7420756e696e7669746520796f757273656c662e0000006044820152606490fd5b845162461bcd60e51b81528084018990526012818401527113595b58995c88139bdd08125b9d9a5d195960721b6044820152606490fd5b6118b291508b3d8d1161042f576104218183612259565b8b6103c6565b855162461bcd60e51b81528085018a90526029818501527f596f7520646f6e742068617665207065726d697373696f6e20756e696e76697460448201526865204d656d6265727360b81b6064820152608490fd5b9050865190815289858201528981806119278782018a612475565b0381855afa9081156104fb579083918a91611947575b501633148a6116b2565b61195e91508b3d8d116104f4576104e68183612259565b8b61193d565b16159150838c6116a9565b6119859250803d106104f4576104e68183612259565b8e8e61169d565b6119a49192508b3d8d116104f4576104e68183612259565b908b611663565b8284346109c457816003193601126109c4576119c56121fa565b6001600160a01b0316815260016020528181208054602435919082101561026157906119f091612352565b939093611a175761017283611a04866123b3565b9051918291602083526020830190612475565b634e487b7160e01b8252819052602490fd5b9190503461026157602080600319360112610958576001600160401b038335818111610fb557611a5c903690860161227a565b9360018060a01b0360035416845192637b7fcfed60e01b84528483850152602493858180611a8c8882018c612475565b0381865afa9081156104fb578991611e54575b5015611e175733885287855282611ab8878a208961249a565b0154611dc1578486518093631efb39a960e11b825282868301528180611ae08982018d612475565b03915afa9182156115f9578892611da2575b5060018092151514611d1f575b3388528185528588208054908115611cc4575b5050338852818552858820805490600160401b821015611cb25790611b3b918482018155612352565b919091611ca1578751908111611c8f57611b5f81611b59845461237b565b846125c7565b8086601f8211600114611c32578a91611c27575b505f19600383901b1c191690831b1790555b3387528352838620545f19810192908311611c1657509285600393611bd393611be596338452838352611bba8585208a61249a565b0155338252818152611bd96002611bd38585208a61249a565b0161260a565b3382525285208461249a565b611bef3391612591565b7ff038f0d708fc70f18d5815d07a62a3b40d2035dc6af7429865f612242ff870588380a380f35b634e487b7160e01b87526011825286fd5b90508801515f611b73565b838b52878b2085935090601f1983168c5b8a8d838310611c7a575050508311611c62575b5050811b019055611b85565b8a01515f1960f88460031b161c191690555f80611c56565b84015185558896909401939283019201611c43565b634e487b7160e01b8952604184528489fd5b634e487b7160e01b89528884528489fd5b634e487b7160e01b8a5260418552858afd5b600160401b821015611cb25790611cdf918482018155612352565b611ca15780611cef5f925461237b565b601f8111611d01575b50555f80611b12565b818b52878b20611d1991601f0160051c8101906125b1565b5f611cf8565b8551858181611d348b83815193849201612454565b81018681520301902033895285528588205460ff1615158214611aff57855162461bcd60e51b81528084018690526026818601527f596f7520617265206e6f7420696e766974656420746f207468697320636f6d6d6044820152653ab734ba3c9760d11b6064820152608490fd5b611dba919250853d871161042f576104218183612259565b905f611af2565b855162461bcd60e51b8152808401869052602b818601527f596f752061726520616c72656164792061206d656d626572206f66207468697360448201526a1031b7b6b6bab734ba3c9760a91b6064820152608490fd5b855162461bcd60e51b81528084018690526018818601527710dbdb5b5d5b9a5d1e48111bd95cc81b9bdd08115e1a5cdd60421b6044820152606490fd5b611e6b9150863d881161042f576104218183612259565b5f611a9f565b8284346109c457611e8136612311565b9260018060a01b0393846003541695825195637b7fcfed60e01b87526020928383890152602497848180611eb78c82018b612475565b03818d5afa9081156115f95798809a61127686610cf88a888e9f988e9f9e8f610cd78f9b928683611ef99f948f61125c611267988e9884916115e2575061264a565b03915afa908115610ec6579082918991612129575b5016611576578487528683526001611f288589208861249a565b013388528352838720548451611f3d8161222a565b602381527f48617665206e6f7420676976656e2061206e6567617469766520637265642079858201526232ba1760e91b86820152888212156121085750858852878452611f8c8589208861249a565b80549060018201918a6001841291129080158216911516176120f65790611fe8929155868952888552611fc1868a208961249a565b54611fcb89612591565b8751918252885f805160206129a4833981519152884294a46128f6565b918588528784526003611ffd868a208961249a565b0192835490895f199485840193841161152757838303612078575b509050879150528784526001612030868a208961249a565b0133895284528785812055825490811561145857507fd6d87a1ec8d7320486a7705035a72a09149f3c5e25dcccb14a1c99eebc86d6c0939291019061144261142d8383612352565b6120898161147b6120b9968a612352565b60016120988a6114bb866128f6565b01906120a48489612352565b90549060031b1c168c528752878b20556128f6565b866120c389612591565b87519283527fd6fa86004958e4fadc7035e661e86172c72f1ea51e79e8bf8bd3f4103663e8e3873394a489808981612018565b634e487b7160e01b8a52601185528a8afd5b855162461bcd60e51b815280850186905290819061156b90828d0190612475565b6121409150853d87116104f4576104e68183612259565b8a611f0e565b905034610261576020366003190112610261576121616121fa565b6002546001600160a01b0393919291908416330361218f5750501660018060a01b0319600354161760035580f35b906020606492519162461bcd60e51b835282015260166024820152752737ba103a34329031b7b73a3930b1ba1037bbb732b960511b6044820152fd5b50503461018f57610ba4602092826121e2366122cf565b6001600160a01b03909116835282865291209061249a565b600435906001600160a01b038216820361221057565b5f80fd5b602435906001600160a01b038216820361221057565b606081019081106001600160401b0382111761224557604052565b634e487b7160e01b5f52604160045260245ffd5b90601f801991011681019081106001600160401b0382111761224557604052565b81601f82011215612210578035906001600160401b03821161224557604051926122ae601f8401601f191660200185612259565b8284526020838301011161221057815f926020809301838601378301015290565b906040600319830112612210576004356001600160a01b03811681036122105791602435906001600160401b0382116122105761230e9160040161227a565b90565b604060031982011261221057600435906001600160401b0382116122105761233b9160040161227a565b906024356001600160a01b03811681036122105790565b8054821015612367575f5260205f2001905f90565b634e487b7160e01b5f52603260045260245ffd5b90600182811c921680156123a9575b602083101461239557565b634e487b7160e01b5f52602260045260245ffd5b91607f169161238a565b9060405191825f8254926123c68461237b565b9081845260019485811690815f1461243157506001146123f1575b50506123ef92500383612259565b565b909391505f52602090815f20935f915b8183106124195750506123ef93508201015f806123e1565b85548884018501529485019487945091830191612401565b9150506123ef94506020925060ff191682840152151560051b8201015f806123e1565b5f5b8381106124655750505f910152565b8181015183820152602001612456565b9060209161248e81518092818552858086019101612454565b601f01601f1916010190565b6020906124b4928260405194838680955193849201612454565b82019081520301902090565b602090816040818301928281528551809452019301915f5b8281106124e6575050505090565b83516001600160a01b0316855293810193928101926001016124d8565b9081602091031261221057516001600160a01b03811681036122105790565b90816020910312612210575180151581036122105790565b1561254157565b60405162461bcd60e51b815260206004820152602260248201527f5468697320636f6d6d756e697479206973206e6f7420696e76697465206f6e6c6044820152613c9760f11b6064820152608490fd5b6125a990602060405192828480945193849201612454565b810103902090565b8181106125bc575050565b5f81556001016125b1565b9190601f81116125d657505050565b6123ef925f5260205f20906020601f840160051c83019310612600575b601f0160051c01906125b1565b90915081906125f3565b8054600160401b8110156122455761142d91600182018155612352565b80549190600160401b831015612245578261148d9160016123ef95018155612352565b1561265157565b60405162461bcd60e51b815260206004820152601860248201527710dbdb5b5d5b9a5d1e48111bd95cc8139bdd08115e1a5cdd60421b6044820152606490fd5b90808214612767576126a3815461237b565b906001600160401b0382116122455781906126c8826126c2865461237b565b866125c7565b5f90601f83116001146126fc575f926126f1575b50508160011b915f199060031b1c1916179055565b015490505f806126dc565b81526020808220858352818320935090601f1985169083905b82821061274e575050908460019594939210612736575b505050811b019055565b01545f1960f88460031b161c191690555f808061272c565b8495819295850154815560018091019601940190612715565b5050565b1561277257565b60405162461bcd60e51b81526020600482015260156024820152742cb7ba9030b932903737ba10309036b2b6b132b91760591b6044820152606490fd5b156127b657565b60405162461bcd60e51b8152602060048201526011602482015270546172676574206d656d62657220444e4560781b6044820152606490fd5b156127f657565b60405162461bcd60e51b815260206004820152601a60248201527f596f752063616e6e6f742065646974206f776e2063726564732e0000000000006044820152606490fd5b1561284257565b60405162461bcd60e51b815260206004820152602660248201527f436f6d6d6d756e6974792055736573206120637265642061636365737320636f6044820152651b9d1c9858dd60d21b6064820152608490fd5b1561289d57565b60405162461bcd60e51b815260206004820152602b60248201527f596f7527766520616c726561647920676976656e2061206372656420746f207460448201526a3434b99036b2b6b132b91760a91b6064820152608490fd5b90815f03918083055f19149015171561290b57565b634e487b7160e01b5f52601160045260245ffd5b908115600183800514171561290b57565b6001600160a01b03165f908152602081905260409020600491612953919061249a565b015461295d575f90565b600190565b6001600160a01b039081165f9081526020819052604081209093926001916129899161249a565b9190921683520160205260408120541561230e575060019056fe1956a939e1963127a6802bc7dff8c43f9bc551a0bf97efc611706570e4108402a2646970667358221220eac67a89f38da1c9e5ad8cc022356daa1a30078dfd42770d3f98bf4880e48f3d64736f6c63430008140033","opcodes":"PUSH1 0x80 DUP1 PUSH1 0x40 MSTORE CALLVALUE PUSH2 0x28 JUMPI PUSH1 0x2 DUP1 SLOAD PUSH1 0x1 PUSH1 0x1 PUSH1 0xA0 SHL SUB NOT AND CALLER OR SWAP1 SSTORE PUSH2 0x29F9 SWAP1 DUP2 PUSH2 0x2D DUP3 CODECOPY RETURN JUMPDEST PUSH0 DUP1 REVERT INVALID PUSH1 0x40 PUSH1 0x80 DUP2 MSTORE PUSH1 0x4 SWAP1 DUP2 CALLDATASIZE LT ISZERO PUSH2 0x14 JUMPI PUSH0 DUP1 REVERT JUMPDEST PUSH0 SWAP2 DUP3 CALLDATALOAD PUSH1 0xE0 SHR SWAP1 DUP2 PUSH4 0x2B5DF59 EQ PUSH2 0x21CB JUMPI DUP2 PUSH4 0x19F553E2 EQ PUSH2 0x2146 JUMPI DUP2 PUSH4 0x4F64AEDD EQ PUSH2 0x1E71 JUMPI DUP2 PUSH4 0x5450FDD5 EQ PUSH2 0x1A29 JUMPI DUP2 PUSH4 0x6255DE33 EQ PUSH2 0x19AB JUMPI DUP2 PUSH4 0x6B039BB4 EQ PUSH2 0x1603 JUMPI DUP2 PUSH4 0x8C5956C4 EQ PUSH2 0x11D4 JUMPI DUP2 PUSH4 0x8E634029 EQ PUSH2 0x11AB JUMPI DUP2 PUSH4 0x99D03BF2 EQ PUSH2 0xFB9 JUMPI DUP2 PUSH4 0x9C419DC9 EQ PUSH2 0xF41 JUMPI DUP2 PUSH4 0xA4828578 EQ PUSH2 0xF13 JUMPI DUP2 PUSH4 0xB091C546 EQ PUSH2 0xEF7 JUMPI DUP2 PUSH4 0xB66FDAB4 EQ PUSH2 0xC57 JUMPI DUP2 PUSH4 0xBF2A3B74 EQ PUSH2 0xAD8 JUMPI DUP2 PUSH4 0xBF7CB216 EQ PUSH2 0x9CB JUMPI DUP2 PUSH4 0xC783ACB4 EQ PUSH2 0x95C JUMPI DUP2 PUSH4 0xCA4F880B EQ PUSH2 0x5EE JUMPI DUP2 PUSH4 0xCDB43EA4 EQ PUSH2 0x265 JUMPI DUP2 PUSH4 0xE636F314 EQ PUSH2 0x20E JUMPI POP DUP1 PUSH4 0xF3FAF99A EQ PUSH2 0x193 JUMPI PUSH4 0xFBC3D96C EQ PUSH2 0x107 JUMPI PUSH0 DUP1 REVERT JUMPDEST CALLVALUE PUSH2 0x18F JUMPI PUSH2 0x115 CALLDATASIZE PUSH2 0x22CF JUMP JUMPDEST SWAP2 SWAP1 SWAP3 PUSH1 0x1 DUP1 PUSH1 0xA0 SHL SUB DUP1 SWAP5 AND DUP2 MSTORE PUSH1 0x3 PUSH2 0x138 PUSH1 0x20 SWAP5 DUP4 DUP7 MSTORE DUP5 DUP5 KECCAK256 SWAP1 PUSH2 0x249A JUMP JUMPDEST ADD SWAP4 DUP3 MLOAD SWAP1 DUP2 SWAP5 DUP1 DUP8 SLOAD SWAP4 DUP5 DUP2 MSTORE ADD SWAP7 DUP5 MSTORE DUP1 DUP5 KECCAK256 SWAP4 SWAP2 JUMPDEST DUP4 DUP4 LT PUSH2 0x176 JUMPI PUSH2 0x172 DUP8 DUP8 PUSH2 0x168 DUP3 DUP13 SUB DUP4 PUSH2 0x2259 JUMP JUMPDEST MLOAD SWAP2 DUP3 SWAP2 DUP3 PUSH2 0x24C0 JUMP JUMPDEST SUB SWAP1 RETURN JUMPDEST DUP5 SLOAD DUP2 AND DUP9 MSTORE SWAP7 DUP2 ADD SWAP7 PUSH1 0x1 SWAP5 DUP6 ADD SWAP5 SWAP1 SWAP3 ADD SWAP2 PUSH2 0x150 JUMP JUMPDEST POP DUP1 REVERT JUMPDEST POP CALLVALUE PUSH2 0x18F JUMPI PUSH2 0x1A2 CALLDATASIZE PUSH2 0x22CF JUMP JUMPDEST SWAP2 SWAP1 SWAP3 PUSH1 0x1 DUP1 PUSH1 0xA0 SHL SUB DUP1 SWAP5 AND DUP2 MSTORE PUSH1 0x2 PUSH2 0x1C5 PUSH1 0x20 SWAP5 DUP4 DUP7 MSTORE DUP5 DUP5 KECCAK256 SWAP1 PUSH2 0x249A JUMP JUMPDEST ADD SWAP4 DUP3 MLOAD SWAP1 DUP2 SWAP5 DUP1 DUP8 SLOAD SWAP4 DUP5 DUP2 MSTORE ADD SWAP7 DUP5 MSTORE DUP1 DUP5 KECCAK256 SWAP4 SWAP2 JUMPDEST DUP4 DUP4 LT PUSH2 0x1F5 JUMPI PUSH2 0x172 DUP8 DUP8 PUSH2 0x168 DUP3 DUP13 SUB DUP4 PUSH2 0x2259 JUMP JUMPDEST DUP5 SLOAD DUP2 AND DUP9 MSTORE SWAP7 DUP2 ADD SWAP7 PUSH1 0x1 SWAP5 DUP6 ADD SWAP5 SWAP1 SWAP3 ADD SWAP2 PUSH2 0x1DD JUMP JUMPDEST SWAP1 POP CALLVALUE PUSH2 0x261 JUMPI DUP2 PUSH1 0x20 SWAP4 PUSH1 0xFF SWAP3 PUSH2 0x23D DUP7 PUSH2 0x229 CALLDATASIZE PUSH2 0x22CF JUMP JUMPDEST SWAP1 SWAP4 DUP3 DUP8 MLOAD SWAP5 DUP4 DUP7 DUP1 SWAP6 MLOAD SWAP4 DUP5 SWAP3 ADD PUSH2 0x2454 JUMP JUMPDEST DUP3 ADD SWAP1 DUP2 MSTORE SUB ADD SWAP1 KECCAK256 PUSH1 0x1 PUSH1 0x1 PUSH1 0xA0 SHL SUB SWAP1 SWAP2 AND DUP3 MSTORE DUP6 MSTORE KECCAK256 SLOAD SWAP2 MLOAD SWAP2 AND ISZERO ISZERO DUP2 MSTORE RETURN JUMPDEST DUP3 DUP1 REVERT JUMPDEST DUP4 DUP4 CALLVALUE PUSH2 0x18F JUMPI PUSH2 0x275 CALLDATASIZE PUSH2 0x2311 JUMP JUMPDEST SWAP2 SWAP1 PUSH1 0x1 DUP1 PUSH1 0xA0 SHL SUB DUP1 SWAP4 AND SWAP3 DUP4 DUP6 MSTORE PUSH1 0x20 SWAP6 DUP6 DUP8 MSTORE DUP1 PUSH2 0x298 DUP6 DUP9 KECCAK256 DUP6 PUSH2 0x249A JUMP JUMPDEST ADD SLOAD PUSH2 0x59A JUMPI DUP4 MLOAD SWAP2 DUP4 MLOAD SWAP3 DUP9 DUP2 DUP2 DUP8 ADD SWAP6 PUSH2 0x2B5 DUP2 DUP4 DUP10 PUSH2 0x2454 JUMP JUMPDEST DUP2 ADD DUP6 DUP2 MSTORE SUB ADD SWAP1 KECCAK256 DUP7 DUP9 MSTORE DUP9 MSTORE PUSH1 0xFF DUP6 DUP9 KECCAK256 SLOAD AND PUSH2 0x560 JUMPI DUP1 PUSH1 0x3 SLOAD AND SWAP1 DUP6 MLOAD SWAP1 PUSH4 0xCBE02A9F PUSH1 0xE0 SHL DUP1 DUP4 MSTORE DUP11 DUP6 DUP5 ADD MSTORE DUP11 DUP4 DUP1 PUSH2 0x2F7 PUSH1 0x24 DUP3 ADD DUP12 PUSH2 0x2475 JUMP JUMPDEST SUB DUP2 DUP8 GAS STATICCALL SWAP3 DUP4 ISZERO PUSH2 0x556 JUMPI DUP11 SWAP4 PUSH2 0x537 JUMPI JUMPDEST POP DUP8 MLOAD PUSH4 0xB3F6702D PUSH1 0xE0 SHL DUP2 MSTORE DUP6 DUP2 ADD DUP13 SWAP1 MSTORE DUP12 DUP2 DUP1 PUSH2 0x32D PUSH1 0x24 DUP3 ADD DUP13 PUSH2 0x2475 JUMP JUMPDEST SUB DUP2 DUP9 GAS STATICCALL SWAP1 DUP2 ISZERO PUSH2 0x52D JUMPI SWAP1 DUP4 SWAP2 DUP13 SWAP2 PUSH2 0x510 JUMPI JUMPDEST POP AND CALLER EQ SWAP3 DUP4 PUSH2 0x505 JUMPI JUMPDEST POP DUP3 ISZERO PUSH2 0x493 JUMPI JUMPDEST POP POP ISZERO PUSH2 0x440 JUMPI DUP8 DUP6 MLOAD DUP1 SWAP3 PUSH4 0x1EFB39A9 PUSH1 0xE1 SHL DUP3 MSTORE DUP3 DUP6 DUP4 ADD MSTORE DUP2 DUP1 PUSH2 0x380 PUSH1 0x24 DUP3 ADD DUP11 PUSH2 0x2475 JUMP JUMPDEST SUB SWAP2 GAS STATICCALL SWAP1 DUP2 ISZERO PUSH2 0x436 JUMPI DUP9 PUSH32 0xBEE566E9904E3C5E202405F159F39BC31121D728F2772CABC7CF243BCF63A647 SWAP5 PUSH2 0x400 SWAP5 PUSH2 0x3CF PUSH1 0x1 DUP12 SWAP11 SWAP10 SWAP7 PUSH2 0x3DF SWAP7 DUP15 SWAP2 PUSH2 0x409 JUMPI JUMPDEST POP ISZERO ISZERO EQ PUSH2 0x253A JUMP JUMPDEST DUP8 MLOAD DUP1 SWAP5 DUP2 SWAP4 DUP8 MLOAD SWAP3 DUP4 SWAP2 PUSH2 0x2454 JUMP JUMPDEST DUP3 ADD SWAP1 DUP2 MSTORE SUB ADD SWAP1 KECCAK256 DUP6 DUP9 MSTORE DUP9 MSTORE DUP4 DUP8 KECCAK256 DUP1 SLOAD PUSH1 0xFF NOT AND PUSH1 0x1 OR SWAP1 SSTORE PUSH2 0x2591 JUMP JUMPDEST SWAP2 MLOAD SWAP5 DUP1 LOG3 DUP2 MSTORE RETURN JUMPDEST PUSH2 0x429 SWAP2 POP DUP7 RETURNDATASIZE DUP9 GT PUSH2 0x42F JUMPI JUMPDEST PUSH2 0x421 DUP2 DUP4 PUSH2 0x2259 JUMP JUMPDEST DUP2 ADD SWAP1 PUSH2 0x2522 JUMP JUMPDEST DUP16 PUSH2 0x3C6 JUMP JUMPDEST POP RETURNDATASIZE PUSH2 0x417 JUMP JUMPDEST DUP6 MLOAD RETURNDATASIZE DUP10 DUP3 RETURNDATACOPY RETURNDATASIZE SWAP1 REVERT JUMPDEST DUP5 MLOAD PUSH3 0x461BCD PUSH1 0xE5 SHL DUP2 MSTORE DUP1 DUP4 ADD DUP10 SWAP1 MSTORE PUSH1 0x27 PUSH1 0x24 DUP3 ADD MSTORE PUSH32 0x596F7520646F6E742068617665207065726D697373696F6E20696E7669746520 PUSH1 0x44 DUP3 ADD MSTORE PUSH7 0x4D656D62657273 PUSH1 0xC8 SHL PUSH1 0x64 DUP3 ADD MSTORE PUSH1 0x84 SWAP1 REVERT JUMPDEST SWAP1 SWAP2 POP DUP7 MLOAD SWAP1 DUP2 MSTORE DUP10 DUP5 DUP3 ADD MSTORE DUP10 DUP2 DUP1 PUSH2 0x4B0 PUSH1 0x24 DUP3 ADD DUP11 PUSH2 0x2475 JUMP JUMPDEST SUB DUP2 DUP7 GAS STATICCALL SWAP1 DUP2 ISZERO PUSH2 0x4FB JUMPI DUP10 SWAP2 PUSH2 0x4CE JUMPI JUMPDEST POP AND CALLER EQ DUP10 DUP1 PUSH2 0x356 JUMP JUMPDEST PUSH2 0x4EE SWAP2 POP DUP11 RETURNDATASIZE DUP13 GT PUSH2 0x4F4 JUMPI JUMPDEST PUSH2 0x4E6 DUP2 DUP4 PUSH2 0x2259 JUMP JUMPDEST DUP2 ADD SWAP1 PUSH2 0x2503 JUMP JUMPDEST DUP11 PUSH2 0x4C3 JUMP JUMPDEST POP RETURNDATASIZE PUSH2 0x4DC JUMP JUMPDEST DUP8 MLOAD RETURNDATASIZE DUP12 DUP3 RETURNDATACOPY RETURNDATASIZE SWAP1 REVERT JUMPDEST DUP3 AND ISZERO SWAP3 POP DUP12 PUSH2 0x34E JUMP JUMPDEST PUSH2 0x527 SWAP2 POP DUP14 DUP1 RETURNDATASIZE LT PUSH2 0x4F4 JUMPI PUSH2 0x4E6 DUP2 DUP4 PUSH2 0x2259 JUMP JUMPDEST DUP14 PUSH2 0x343 JUMP JUMPDEST DUP10 MLOAD RETURNDATASIZE DUP14 DUP3 RETURNDATACOPY RETURNDATASIZE SWAP1 REVERT JUMPDEST PUSH2 0x54F SWAP2 SWAP4 POP DUP12 RETURNDATASIZE DUP14 GT PUSH2 0x4F4 JUMPI PUSH2 0x4E6 DUP2 DUP4 PUSH2 0x2259 JUMP JUMPDEST SWAP2 DUP12 PUSH2 0x30A JUMP JUMPDEST DUP9 MLOAD RETURNDATASIZE DUP13 DUP3 RETURNDATACOPY RETURNDATASIZE SWAP1 REVERT JUMPDEST DUP5 MLOAD PUSH3 0x461BCD PUSH1 0xE5 SHL DUP2 MSTORE DUP1 DUP4 ADD DUP10 SWAP1 MSTORE PUSH1 0x14 PUSH1 0x24 DUP3 ADD MSTORE PUSH20 0x155CD95C88105B1C9958591E48125B9D9A5D1959 PUSH1 0x62 SHL PUSH1 0x44 DUP3 ADD MSTORE PUSH1 0x64 SWAP1 REVERT JUMPDEST DUP4 MLOAD PUSH3 0x461BCD PUSH1 0xE5 SHL DUP2 MSTORE SWAP1 DUP2 ADD DUP8 SWAP1 MSTORE PUSH1 0x28 PUSH1 0x24 DUP3 ADD MSTORE PUSH32 0x4D656D62657220616C726561647920657869737473206F66207468697320636F PUSH1 0x44 DUP3 ADD MSTORE PUSH8 0x36B6BAB734BA3C97 PUSH1 0xC1 SHL PUSH1 0x64 DUP3 ADD MSTORE PUSH1 0x84 SWAP1 REVERT JUMPDEST DUP4 DUP4 CALLVALUE PUSH2 0x18F JUMPI PUSH1 0x20 SWAP3 DUP4 PUSH1 0x3 NOT CALLDATASIZE ADD SLT PUSH2 0x261 JUMPI DUP1 CALLDATALOAD PUSH1 0x1 PUSH1 0x1 PUSH1 0x40 SHL SUB DUP2 GT PUSH2 0x958 JUMPI PUSH2 0x620 SWAP1 CALLDATASIZE SWAP1 DUP4 ADD PUSH2 0x227A JUMP JUMPDEST PUSH1 0x3 SLOAD DUP4 MLOAD PUSH4 0x7B7FCFED PUSH1 0xE0 SHL DUP2 MSTORE DUP4 DUP2 ADD DUP8 SWAP1 MSTORE PUSH1 0x24 SWAP7 SWAP3 SWAP5 SWAP3 SWAP2 DUP3 SWAP1 DUP3 SWAP1 PUSH1 0x1 PUSH1 0x1 PUSH1 0xA0 SHL SUB AND DUP2 DUP1 PUSH2 0x657 DUP13 DUP3 ADD DUP12 PUSH2 0x2475 JUMP JUMPDEST SUB SWAP2 GAS STATICCALL SWAP1 DUP2 ISZERO PUSH2 0x94E JUMPI SWAP1 PUSH2 0x674 SWAP2 DUP8 SWAP2 PUSH2 0x931 JUMPI JUMPDEST POP PUSH2 0x264A JUMP JUMPDEST CALLER DUP6 MSTORE DUP5 DUP2 MSTORE DUP3 PUSH2 0x687 DUP4 DUP8 KECCAK256 DUP7 PUSH2 0x249A JUMP JUMPDEST ADD SLOAD ISZERO PUSH2 0x8E1 JUMPI CALLER DUP6 MSTORE DUP5 DUP2 MSTORE DUP3 PUSH2 0x6A1 DUP4 DUP8 KECCAK256 DUP7 PUSH2 0x249A JUMP JUMPDEST ADD SLOAD CALLER DUP7 MSTORE PUSH1 0x1 DUP1 DUP4 MSTORE DUP4 DUP8 KECCAK256 SLOAD PUSH0 NOT SWAP9 SWAP2 SWAP3 SWAP1 DUP10 DUP2 ADD SWAP1 DUP2 GT PUSH2 0x8CF JUMPI DUP2 SUB PUSH2 0x7C7 JUMPI JUMPDEST POP CALLER DUP8 MSTORE DUP2 DUP4 MSTORE DUP4 DUP8 KECCAK256 SWAP8 DUP9 SLOAD DUP1 ISZERO PUSH2 0x7B5 JUMPI ADD SWAP2 PUSH2 0x6E5 DUP4 DUP11 PUSH2 0x2352 JUMP JUMPDEST SWAP3 SWAP1 SWAP3 PUSH2 0x7A5 JUMPI POP SWAP3 DUP8 SWAP6 SWAP5 SWAP3 DUP10 DUP8 DUP5 PUSH2 0x732 SWAP8 PUSH2 0x704 DUP4 SWAP8 SLOAD PUSH2 0x237B JUMP JUMPDEST SWAP1 DUP2 PUSH2 0x765 JUMPI JUMPDEST POP POP POP POP SSTORE CALLER DUP3 MSTORE DUP2 DUP2 MSTORE DUP2 DUP6 PUSH2 0x724 DUP6 DUP4 KECCAK256 DUP11 PUSH2 0x249A JUMP JUMPDEST ADD SSTORE CALLER DUP3 MSTORE MSTORE DUP4 KECCAK256 DUP5 PUSH2 0x249A JUMP JUMPDEST ADD SSTORE PUSH2 0x73E CALLER SWAP2 PUSH2 0x2591 JUMP JUMPDEST PUSH32 0xDD403BCC860194E697BD48A94AD259A004827525EF954AD73B044E400F3ADFE0 DUP4 DUP1 LOG3 DUP1 RETURN JUMPDEST DUP4 SWAP1 PUSH1 0x1F DUP4 GT PUSH1 0x1 EQ PUSH2 0x780 JUMPI POP POP POP SSTORE JUMPDEST DUP4 DUP12 DUP1 DUP1 PUSH2 0x70B JUMP JUMPDEST PUSH2 0x79E SWAP1 DUP5 DUP4 SWAP5 SWAP6 SWAP4 MSTORE PUSH1 0x1F DUP10 DUP6 KECCAK256 SWAP6 ADD PUSH1 0x5 SHR DUP6 ADD SWAP1 DUP6 ADD PUSH2 0x25B1 JUMP JUMPDEST SSTORE SSTORE PUSH2 0x777 JUMP JUMPDEST PUSH4 0x4E487B71 PUSH1 0xE0 SHL DUP10 MSTORE DUP9 DUP8 MSTORE DUP9 REVERT JUMPDEST PUSH4 0x4E487B71 PUSH1 0xE0 SHL DUP10 MSTORE PUSH1 0x31 DUP8 MSTORE DUP3 DUP10 REVERT JUMPDEST CALLER DUP9 MSTORE DUP3 DUP5 MSTORE DUP5 DUP9 KECCAK256 DUP1 SLOAD SWAP1 DUP11 DUP3 ADD SWAP2 DUP3 GT PUSH2 0x8BD JUMPI SWAP1 PUSH2 0x7E7 SWAP2 PUSH2 0x2352 JUMP JUMPDEST POP CALLER DUP10 MSTORE DUP4 DUP6 MSTORE PUSH2 0x7FA DUP3 DUP8 DUP12 KECCAK256 PUSH2 0x2352 JUMP JUMPDEST PUSH2 0x8AC JUMPI SWAP1 PUSH2 0x808 SWAP2 PUSH2 0x2691 JUMP JUMPDEST CALLER DUP9 MSTORE DUP8 DUP5 MSTORE DUP6 DUP6 DUP10 KECCAK256 DUP5 DUP7 MSTORE DUP6 PUSH2 0x822 DUP5 DUP10 DUP14 KECCAK256 PUSH2 0x2352 JUMP JUMPDEST POP DUP9 MLOAD SWAP3 DUP13 SWAP2 DUP1 SLOAD SWAP1 PUSH2 0x834 DUP3 PUSH2 0x237B JUMP JUMPDEST SWAP2 DUP7 DUP12 DUP3 AND SWAP2 DUP3 PUSH0 EQ PUSH2 0x894 JUMPI POP POP PUSH1 0x1 EQ PUSH2 0x85D JUMPI JUMPDEST POP POP DUP2 MSTORE DUP3 SWAP1 SUB ADD SWAP1 KECCAK256 ADD SSTORE DUP9 PUSH2 0x6C6 JUMP JUMPDEST SWAP1 SWAP2 SWAP3 POP DUP14 MSTORE DUP13 DUP9 DUP5 DUP3 KECCAK256 JUMPDEST DUP4 DUP4 LT PUSH2 0x87D JUMPI POP POP POP DUP4 ADD SWAP1 DUP4 DUP16 PUSH2 0x84B JUMP JUMPDEST DUP1 SLOAD DUP8 DUP5 ADD MSTORE DUP14 SWAP8 POP DUP12 SWAP6 SWAP1 SWAP3 ADD SWAP2 DUP11 SWAP2 ADD PUSH2 0x869 JUMP JUMPDEST SWAP3 POP SWAP5 POP POP PUSH1 0xFF NOT AND DUP4 MSTORE DUP1 ISZERO ISZERO MUL DUP3 ADD SWAP2 DUP16 PUSH2 0x84B JUMP JUMPDEST PUSH4 0x4E487B71 PUSH1 0xE0 SHL DUP11 MSTORE DUP10 DUP9 MSTORE DUP4 DUP11 REVERT JUMPDEST PUSH4 0x4E487B71 PUSH1 0xE0 SHL DUP11 MSTORE PUSH1 0x11 DUP9 MSTORE DUP4 DUP11 REVERT JUMPDEST PUSH4 0x4E487B71 PUSH1 0xE0 SHL DUP10 MSTORE PUSH1 0x11 DUP8 MSTORE DUP3 DUP10 REVERT JUMPDEST SWAP1 MLOAD PUSH3 0x461BCD PUSH1 0xE5 SHL DUP2 MSTORE SWAP2 DUP3 ADD MSTORE PUSH1 0x27 DUP2 DUP6 ADD MSTORE PUSH32 0x596F7520617265206E6F742061206D656D626572206F66207468697320636F6D PUSH1 0x44 DUP3 ADD MSTORE PUSH7 0x36BAB734BA3C97 PUSH1 0xC9 SHL PUSH1 0x64 DUP3 ADD MSTORE PUSH1 0x84 SWAP1 REVERT JUMPDEST PUSH2 0x948 SWAP2 POP DUP4 RETURNDATASIZE DUP6 GT PUSH2 0x42F JUMPI PUSH2 0x421 DUP2 DUP4 PUSH2 0x2259 JUMP JUMPDEST DUP9 PUSH2 0x66E JUMP JUMPDEST DUP4 MLOAD RETURNDATASIZE DUP9 DUP3 RETURNDATACOPY RETURNDATASIZE SWAP1 REVERT JUMPDEST DUP4 DUP1 REVERT JUMPDEST SWAP1 POP CALLVALUE PUSH2 0x261 JUMPI PUSH1 0x60 CALLDATASIZE PUSH1 0x3 NOT ADD SLT PUSH2 0x261 JUMPI PUSH2 0x977 PUSH2 0x21FA JUMP JUMPDEST SWAP1 PUSH1 0x24 CALLDATALOAD SWAP1 PUSH1 0x1 PUSH1 0x1 PUSH1 0x40 SHL SUB DUP3 GT PUSH2 0x9C7 JUMPI PUSH2 0x996 SWAP2 CALLDATASIZE SWAP2 ADD PUSH2 0x227A JUMP JUMPDEST PUSH1 0x44 CALLDATALOAD SWAP4 SWAP1 SWAP2 SWAP1 PUSH1 0x1 PUSH1 0x1 PUSH1 0xA0 SHL SUB DUP6 AND DUP6 SUB PUSH2 0x9C4 JUMPI POP SWAP3 PUSH2 0x9BB SWAP2 PUSH1 0x20 SWAP5 PUSH2 0x2962 JUMP JUMPDEST SWAP1 MLOAD SWAP1 ISZERO ISZERO DUP2 MSTORE RETURN JUMPDEST DUP1 REVERT JUMPDEST DUP5 DUP1 REVERT JUMPDEST DUP4 DUP4 CALLVALUE PUSH2 0x18F JUMPI PUSH1 0x20 SWAP3 DUP4 PUSH1 0x3 NOT CALLDATASIZE ADD SLT PUSH2 0x261 JUMPI PUSH1 0x1 PUSH1 0x1 PUSH1 0xA0 SHL SUB PUSH2 0x9F0 PUSH2 0x21FA JUMP JUMPDEST AND DUP4 MSTORE PUSH1 0x1 SWAP4 DUP5 DUP2 MSTORE DUP3 DUP5 KECCAK256 SWAP3 DUP4 SLOAD SWAP3 PUSH1 0x1 PUSH1 0x1 PUSH1 0x40 SHL SUB DUP5 GT PUSH2 0xAC5 JUMPI POP SWAP2 DUP5 SWAP1 DUP7 SWAP3 DUP5 MLOAD SWAP2 PUSH2 0xA26 DUP3 DUP3 PUSH1 0x5 SHL ADD DUP5 PUSH2 0x2259 JUMP JUMPDEST DUP1 DUP4 MSTORE DUP2 DUP4 ADD DUP1 SWAP8 DUP6 MSTORE DUP3 DUP6 KECCAK256 DUP6 SWAP2 JUMPDEST DUP4 DUP4 LT PUSH2 0xA98 JUMPI POP POP POP POP DUP5 MLOAD SWAP5 DUP2 DUP7 ADD SWAP3 DUP3 DUP8 MSTORE MLOAD DUP1 SWAP4 MSTORE DUP1 DUP7 ADD SWAP1 DUP4 PUSH1 0x5 SHL DUP8 ADD ADD SWAP7 SWAP4 SWAP1 JUMPDEST DUP4 DUP3 LT PUSH2 0xA6B JUMPI DUP7 DUP9 SUB DUP8 RETURN JUMPDEST SWAP1 SWAP2 SWAP3 SWAP4 SWAP5 DUP4 DUP1 PUSH2 0xA87 DUP4 SWAP11 PUSH1 0x3F NOT DUP12 DUP3 SUB ADD DUP7 MSTORE DUP10 MLOAD PUSH2 0x2475 JUMP JUMPDEST SWAP10 SWAP8 ADD SWAP6 SWAP5 SWAP4 SWAP2 SWAP1 SWAP2 ADD SWAP2 ADD PUSH2 0xA5E JUMP JUMPDEST SWAP1 DUP8 DUP1 DUP7 DUP2 SWAP13 SWAP11 SWAP6 SWAP5 PUSH2 0xAAF DUP6 SWAP14 SWAP10 SWAP11 SWAP12 SWAP14 PUSH2 0x23B3 JUMP JUMPDEST DUP2 MSTORE ADD SWAP3 ADD SWAP3 ADD SWAP3 POP SWAP9 SWAP7 SWAP9 SWAP8 SWAP6 SWAP5 SWAP4 SWAP8 PUSH2 0xA36 JUMP JUMPDEST PUSH4 0x4E487B71 PUSH1 0xE0 SHL DUP7 MSTORE PUSH1 0x41 SWAP1 MSTORE PUSH1 0x24 DUP6 REVERT JUMPDEST DUP3 DUP5 CALLVALUE PUSH2 0x9C4 JUMPI PUSH1 0x60 CALLDATASIZE PUSH1 0x3 NOT ADD SLT PUSH2 0x9C4 JUMPI DUP3 CALLDATALOAD PUSH1 0x1 PUSH1 0x1 PUSH1 0x40 SHL SUB DUP2 GT PUSH2 0x18F JUMPI PUSH2 0xB08 SWAP1 CALLDATASIZE SWAP1 DUP6 ADD PUSH2 0x227A JUMP JUMPDEST SWAP1 PUSH2 0xB11 PUSH2 0x2214 JUMP JUMPDEST PUSH1 0x3 SLOAD DUP5 MLOAD PUSH4 0xCBE02A9F PUSH1 0xE0 SHL DUP2 MSTORE PUSH1 0x20 DUP2 DUP9 ADD DUP2 SWAP1 MSTORE SWAP7 PUSH1 0x1 PUSH1 0x1 PUSH1 0xA0 SHL SUB SWAP4 SWAP3 SWAP1 SWAP2 SWAP1 DUP9 SWAP1 DUP3 SWAP1 DUP7 AND DUP2 DUP1 PUSH2 0xB4B PUSH1 0x24 DUP3 ADD DUP13 PUSH2 0x2475 JUMP JUMPDEST SUB SWAP2 GAS STATICCALL SWAP1 DUP2 ISZERO PUSH2 0xC4D JUMPI SWAP1 DUP5 SWAP2 DUP7 SWAP2 PUSH2 0xC30 JUMPI JUMPDEST POP AND DUP1 CALLER EQ SWAP1 DUP2 PUSH2 0xC26 JUMPI JUMPDEST POP DUP1 PUSH2 0xC07 JUMPI JUMPDEST ISZERO PUSH2 0xBAC JUMPI POP SWAP2 DUP5 SWAP2 PUSH2 0xBA4 SWAP5 SWAP4 AND DUP1 DUP3 MSTORE DUP2 DUP8 MSTORE PUSH1 0x44 CALLDATALOAD PUSH2 0xB97 DUP5 DUP5 KECCAK256 DUP7 PUSH2 0x249A JUMP JUMPDEST SSTORE DUP2 MSTORE DUP1 DUP7 MSTORE KECCAK256 SWAP1 PUSH2 0x249A JUMP JUMPDEST SLOAD SWAP1 MLOAD SWAP1 DUP2 MSTORE RETURN JUMPDEST DUP6 MLOAD PUSH3 0x461BCD PUSH1 0xE5 SHL DUP2 MSTORE SWAP1 DUP2 ADD DUP8 SWAP1 MSTORE PUSH1 0x2F PUSH1 0x24 DUP3 ADD MSTORE PUSH32 0x4E6F742074686520637265642061636365737320636F6E7472616374206F7220 PUSH1 0x44 DUP3 ADD MSTORE PUSH15 0x2AB9B2B9103737BA1036B2B6B132B9 PUSH1 0x89 SHL PUSH1 0x64 DUP3 ADD MSTORE PUSH1 0x84 SWAP1 REVERT JUMPDEST POP DUP3 DUP3 AND DUP5 MSTORE DUP4 DUP8 MSTORE DUP1 PUSH2 0xC1D DUP8 DUP7 KECCAK256 DUP8 PUSH2 0x249A JUMP JUMPDEST ADD SLOAD ISZERO ISZERO PUSH2 0xB73 JUMP JUMPDEST SWAP1 POP ISZERO ISZERO DUP9 PUSH2 0xB6C JUMP JUMPDEST PUSH2 0xC47 SWAP2 POP DUP10 RETURNDATASIZE DUP12 GT PUSH2 0x4F4 JUMPI PUSH2 0x4E6 DUP2 DUP4 PUSH2 0x2259 JUMP JUMPDEST DUP10 PUSH2 0xB60 JUMP JUMPDEST DUP8 MLOAD RETURNDATASIZE DUP8 DUP3 RETURNDATACOPY RETURNDATASIZE SWAP1 REVERT JUMPDEST SWAP1 POP CALLVALUE PUSH2 0x261 JUMPI PUSH2 0xC67 CALLDATASIZE PUSH2 0x2311 JUMP JUMPDEST PUSH1 0x3 SLOAD DUP5 MLOAD PUSH4 0x7B7FCFED PUSH1 0xE0 SHL DUP2 MSTORE PUSH1 0x20 DUP2 DUP7 ADD DUP2 SWAP1 MSTORE SWAP4 SWAP6 PUSH1 0x1 PUSH1 0x1 PUSH1 0xA0 SHL SUB SWAP3 DUP4 AND SWAP6 SWAP1 SWAP5 SWAP4 SWAP1 SWAP3 SWAP2 DUP5 DUP2 DUP1 PUSH2 0xCA2 PUSH1 0x24 DUP3 ADD DUP13 PUSH2 0x2475 JUMP JUMPDEST SUB DUP2 DUP11 GAS STATICCALL SWAP1 DUP2 ISZERO PUSH2 0xEED JUMPI DUP4 SWAP3 SWAP2 PUSH2 0xCC1 SWAP2 DUP12 SWAP2 PUSH2 0xED0 JUMPI POP PUSH2 0x264A JUMP JUMPDEST CALLER DUP10 MSTORE DUP9 DUP6 MSTORE PUSH2 0xCE0 DUP5 PUSH2 0xCD7 DUP9 DUP13 KECCAK256 DUP12 PUSH2 0x249A JUMP JUMPDEST ADD SLOAD ISZERO ISZERO PUSH2 0x276B JUMP JUMPDEST AND SWAP5 DUP6 DUP9 MSTORE DUP8 DUP5 MSTORE PUSH2 0xD01 DUP4 PUSH2 0xCF8 DUP8 DUP12 KECCAK256 DUP11 PUSH2 0x249A JUMP JUMPDEST ADD SLOAD ISZERO ISZERO PUSH2 0x27AF JUMP JUMPDEST PUSH2 0xD0D DUP7 CALLER EQ ISZERO PUSH2 0x27EF JUMP JUMPDEST DUP4 DUP6 MLOAD DUP1 SWAP3 PUSH4 0xCBE02A9F PUSH1 0xE0 SHL DUP3 MSTORE DUP3 DUP7 DUP4 ADD MSTORE DUP2 DUP1 PUSH2 0xD30 PUSH1 0x24 DUP3 ADD DUP14 PUSH2 0x2475 JUMP JUMPDEST SUB SWAP2 GAS STATICCALL SWAP1 DUP2 ISZERO PUSH2 0xEC6 JUMPI SWAP1 PUSH2 0xD50 SWAP3 SWAP2 DUP10 SWAP2 PUSH2 0xEA9 JUMPI JUMPDEST POP AND ISZERO PUSH2 0x283B JUMP JUMPDEST DUP4 DUP7 MSTORE DUP6 DUP3 MSTORE PUSH1 0x1 PUSH2 0xD64 DUP5 DUP9 KECCAK256 DUP8 PUSH2 0x249A JUMP JUMPDEST ADD CALLER DUP8 MSTORE DUP3 MSTORE PUSH2 0xD77 DUP4 DUP8 KECCAK256 SLOAD ISZERO PUSH2 0x2896 JUMP JUMPDEST DUP4 DUP7 MSTORE DUP6 DUP3 MSTORE PUSH2 0xD89 DUP4 DUP8 KECCAK256 DUP7 PUSH2 0x249A JUMP JUMPDEST DUP1 SLOAD SWAP1 PUSH1 0x1 DUP3 ADD SWAP2 DUP9 PUSH1 0x1 DUP5 SLT SWAP2 SLT SWAP1 DUP1 ISZERO DUP3 AND SWAP2 ISZERO AND OR PUSH2 0xE96 JUMPI SSTORE DUP4 DUP7 MSTORE DUP6 DUP3 MSTORE PUSH2 0xDB8 DUP4 DUP8 KECCAK256 DUP7 PUSH2 0x249A JUMP JUMPDEST SLOAD PUSH2 0xDC2 DUP7 PUSH2 0x2591 JUMP JUMPDEST DUP5 MLOAD SWAP2 DUP3 MSTORE DUP6 PUSH0 DUP1 MLOAD PUSH1 0x20 PUSH2 0x29A4 DUP4 CODECOPY DUP2 MLOAD SWAP2 MSTORE DUP6 TIMESTAMP SWAP5 LOG4 DUP4 DUP7 MSTORE DUP6 DUP3 MSTORE PUSH2 0xDF8 CALLER PUSH1 0x2 PUSH2 0xDF2 DUP7 DUP11 KECCAK256 DUP10 PUSH2 0x249A JUMP JUMPDEST ADD PUSH2 0x2627 JUMP JUMPDEST DUP4 DUP7 MSTORE DUP6 DUP3 MSTORE PUSH1 0x2 PUSH2 0xE0C DUP5 DUP9 KECCAK256 DUP8 PUSH2 0x249A JUMP JUMPDEST ADD SLOAD PUSH0 NOT DUP2 ADD SWAP2 SWAP1 DUP3 GT PUSH2 0xE83 JUMPI POP SWAP1 PUSH32 0xD0F5D24E816C9FC4CBA0F35B280898648E66604FC44212736E778BFEFC338B0F SWAP2 DUP5 DUP8 MSTORE DUP7 DUP3 MSTORE PUSH1 0x1 PUSH2 0xE52 DUP6 DUP10 KECCAK256 DUP9 PUSH2 0x249A JUMP JUMPDEST ADD CALLER DUP9 MSTORE DUP3 MSTORE DUP4 DUP8 KECCAK256 SSTORE DUP4 DUP7 MSTORE DUP6 DUP2 MSTORE PUSH2 0xE78 PUSH2 0xE71 DUP5 DUP9 KECCAK256 DUP8 PUSH2 0x249A JUMP JUMPDEST SLOAD SWAP6 PUSH2 0x2591 JUMP JUMPDEST SWAP3 MLOAD SWAP5 DUP6 MSTORE CALLER SWAP5 LOG4 DUP1 RETURN JUMPDEST PUSH4 0x4E487B71 PUSH1 0xE0 SHL DUP8 MSTORE PUSH1 0x11 SWAP1 MSTORE PUSH1 0x24 DUP7 REVERT JUMPDEST PUSH4 0x4E487B71 PUSH1 0xE0 SHL DUP9 MSTORE PUSH1 0x11 DUP4 MSTORE PUSH1 0x24 DUP9 REVERT JUMPDEST PUSH2 0xEC0 SWAP2 POP DUP6 RETURNDATASIZE DUP8 GT PUSH2 0x4F4 JUMPI PUSH2 0x4E6 DUP2 DUP4 PUSH2 0x2259 JUMP JUMPDEST PUSH0 PUSH2 0xD48 JUMP JUMPDEST DUP6 MLOAD RETURNDATASIZE DUP11 DUP3 RETURNDATACOPY RETURNDATASIZE SWAP1 REVERT JUMPDEST PUSH2 0xEE7 SWAP2 POP DUP8 RETURNDATASIZE DUP10 GT PUSH2 0x42F JUMPI PUSH2 0x421 DUP2 DUP4 PUSH2 0x2259 JUMP JUMPDEST PUSH0 PUSH2 0x66E JUMP JUMPDEST DUP7 MLOAD RETURNDATASIZE DUP12 DUP3 RETURNDATACOPY RETURNDATASIZE SWAP1 REVERT JUMPDEST POP POP CALLVALUE PUSH2 0x18F JUMPI PUSH1 0x20 SWAP1 PUSH2 0x9BB PUSH2 0xF0D CALLDATASIZE PUSH2 0x22CF JUMP JUMPDEST SWAP1 PUSH2 0x2930 JUMP JUMPDEST SWAP1 POP CALLVALUE PUSH2 0x261 JUMPI DUP2 PUSH1 0x20 SWAP4 PUSH1 0xFF SWAP3 PUSH2 0x23D DUP7 PUSH2 0xF2E CALLDATASIZE PUSH2 0x2311 JUMP JUMPDEST SWAP4 DUP3 DUP8 MLOAD SWAP5 DUP4 DUP7 DUP1 SWAP6 MLOAD SWAP4 DUP5 SWAP3 ADD PUSH2 0x2454 JUMP JUMPDEST SWAP1 POP CALLVALUE PUSH2 0x261 JUMPI PUSH1 0x60 CALLDATASIZE PUSH1 0x3 NOT ADD SLT PUSH2 0x261 JUMPI PUSH2 0xF5C PUSH2 0x21FA JUMP JUMPDEST PUSH2 0xF64 PUSH2 0x2214 JUMP JUMPDEST SWAP2 PUSH1 0x44 CALLDATALOAD PUSH1 0x1 PUSH1 0x1 PUSH1 0x40 SHL SUB DUP2 GT PUSH2 0xFB5 JUMPI SWAP2 PUSH1 0x1 PUSH2 0xFA5 PUSH2 0xF8E DUP8 SWAP7 SWAP5 PUSH1 0x20 SWAP10 SWAP7 CALLDATASIZE SWAP2 ADD PUSH2 0x227A JUMP JUMPDEST DUP3 DUP1 PUSH1 0xA0 SHL SUB DUP1 SWAP5 AND DUP7 MSTORE DUP6 DUP10 MSTORE DUP7 DUP7 KECCAK256 SWAP1 PUSH2 0x249A JUMP JUMPDEST ADD SWAP2 AND DUP3 MSTORE DUP5 MSTORE KECCAK256 SLOAD SWAP1 MLOAD SWAP1 DUP2 MSTORE RETURN JUMPDEST DUP6 DUP1 REVERT JUMPDEST SWAP1 POP CALLVALUE PUSH2 0x261 JUMPI PUSH2 0xFC9 CALLDATASIZE PUSH2 0x2311 JUMP JUMPDEST PUSH1 0x3 SLOAD DUP5 MLOAD PUSH4 0x7B7FCFED PUSH1 0xE0 SHL DUP2 MSTORE PUSH1 0x20 DUP2 DUP7 ADD DUP2 SWAP1 MSTORE SWAP4 SWAP6 PUSH1 0x1 PUSH1 0x1 PUSH1 0xA0 SHL SUB SWAP3 DUP4 AND SWAP6 SWAP1 SWAP5 SWAP4 SWAP1 SWAP3 SWAP2 DUP5 DUP2 DUP1 PUSH2 0x1004 PUSH1 0x24 DUP3 ADD DUP13 PUSH2 0x2475 JUMP JUMPDEST SUB DUP2 DUP11 GAS STATICCALL SWAP1 DUP2 ISZERO PUSH2 0xEED JUMPI DUP4 SWAP3 SWAP2 PUSH2 0x1023 SWAP2 DUP12 SWAP2 PUSH2 0xED0 JUMPI POP PUSH2 0x264A JUMP JUMPDEST CALLER DUP10 MSTORE DUP9 DUP6 MSTORE PUSH2 0x1039 DUP5 PUSH2 0xCD7 DUP9 DUP13 KECCAK256 DUP12 PUSH2 0x249A JUMP JUMPDEST AND SWAP5 DUP6 DUP9 MSTORE DUP8 DUP5 MSTORE PUSH2 0x1051 DUP4 PUSH2 0xCF8 DUP8 DUP12 KECCAK256 DUP11 PUSH2 0x249A JUMP JUMPDEST PUSH2 0x105D DUP7 CALLER EQ ISZERO PUSH2 0x27EF JUMP JUMPDEST DUP4 DUP6 MLOAD DUP1 SWAP3 PUSH4 0xCBE02A9F PUSH1 0xE0 SHL DUP3 MSTORE DUP3 DUP7 DUP4 ADD MSTORE DUP2 DUP1 PUSH2 0x1080 PUSH1 0x24 DUP3 ADD DUP14 PUSH2 0x2475 JUMP JUMPDEST SUB SWAP2 GAS STATICCALL SWAP1 DUP2 ISZERO PUSH2 0xEC6 JUMPI SWAP1 PUSH2 0x109F SWAP3 SWAP2 DUP10 SWAP2 PUSH2 0xEA9 JUMPI POP AND ISZERO PUSH2 0x283B JUMP JUMPDEST DUP4 DUP7 MSTORE DUP6 DUP3 MSTORE PUSH1 0x1 PUSH2 0x10B3 DUP5 DUP9 KECCAK256 DUP8 PUSH2 0x249A JUMP JUMPDEST ADD CALLER DUP8 MSTORE DUP3 MSTORE PUSH2 0x10C6 DUP4 DUP8 KECCAK256 SLOAD ISZERO PUSH2 0x2896 JUMP JUMPDEST DUP4 DUP7 MSTORE DUP6 DUP3 MSTORE PUSH2 0x10D8 DUP4 DUP8 KECCAK256 DUP7 PUSH2 0x249A JUMP JUMPDEST SWAP1 DUP2 SLOAD PUSH0 NOT SWAP3 DUP4 DUP3 ADD SWAP2 DUP3 SGT PUSH1 0x1 AND PUSH2 0x1198 JUMPI SSTORE DUP5 DUP8 MSTORE DUP7 DUP4 MSTORE PUSH2 0x10FE DUP5 DUP9 KECCAK256 DUP8 PUSH2 0x249A JUMP JUMPDEST SLOAD PUSH2 0x1108 DUP8 PUSH2 0x2591 JUMP JUMPDEST DUP6 MLOAD SWAP2 DUP3 MSTORE DUP7 PUSH0 DUP1 MLOAD PUSH1 0x20 PUSH2 0x29A4 DUP4 CODECOPY DUP2 MLOAD SWAP2 MSTORE DUP7 TIMESTAMP SWAP5 LOG4 DUP5 DUP8 MSTORE DUP7 DUP4 MSTORE PUSH2 0x1138 CALLER PUSH1 0x3 PUSH2 0xDF2 DUP8 DUP12 KECCAK256 DUP11 PUSH2 0x249A JUMP JUMPDEST DUP5 DUP8 MSTORE DUP7 DUP4 MSTORE PUSH1 0x3 PUSH2 0x114C DUP6 DUP10 KECCAK256 DUP9 PUSH2 0x249A JUMP JUMPDEST ADD SLOAD SWAP2 DUP3 ADD SWAP2 DUP3 GT PUSH2 0xE83 JUMPI POP SWAP1 PUSH2 0x1184 PUSH32 0x8E3DD53AAAD1909975DE245668134B898A443D9D797F6A14E77B5CD0606ED541 SWAP3 PUSH2 0x28F6 JUMP JUMPDEST DUP5 DUP8 MSTORE DUP7 DUP3 MSTORE PUSH1 0x1 PUSH2 0xE52 DUP6 DUP10 KECCAK256 DUP9 PUSH2 0x249A JUMP JUMPDEST PUSH4 0x4E487B71 PUSH1 0xE0 SHL DUP10 MSTORE PUSH1 0x11 DUP4 MSTORE PUSH1 0x24 DUP10 REVERT JUMPDEST POP POP CALLVALUE PUSH2 0x18F JUMPI DUP2 PUSH1 0x3 NOT CALLDATASIZE ADD SLT PUSH2 0x18F JUMPI PUSH1 0x3 SLOAD SWAP1 MLOAD PUSH1 0x1 PUSH1 0x1 PUSH1 0xA0 SHL SUB SWAP1 SWAP2 AND DUP2 MSTORE PUSH1 0x20 SWAP1 RETURN JUMPDEST DUP3 DUP5 CALLVALUE PUSH2 0x9C4 JUMPI PUSH2 0x11E4 CALLDATASIZE PUSH2 0x2311 JUMP JUMPDEST SWAP3 PUSH1 0x1 DUP1 PUSH1 0xA0 SHL SUB SWAP4 DUP5 PUSH1 0x3 SLOAD AND SWAP6 DUP3 MLOAD SWAP6 PUSH4 0x7B7FCFED PUSH1 0xE0 SHL DUP8 MSTORE PUSH1 0x20 SWAP3 DUP4 DUP4 DUP10 ADD MSTORE PUSH1 0x24 SWAP8 DUP5 DUP2 DUP1 PUSH2 0x121A DUP13 DUP3 ADD DUP12 PUSH2 0x2475 JUMP JUMPDEST SUB DUP2 DUP14 GAS STATICCALL SWAP1 DUP2 ISZERO PUSH2 0x15F9 JUMPI SWAP9 DUP1 SWAP11 PUSH2 0x1276 DUP7 PUSH2 0xCF8 DUP11 DUP9 DUP15 SWAP16 SWAP9 DUP15 SWAP16 SWAP15 DUP16 PUSH2 0xCD7 DUP16 SWAP12 SWAP3 DUP7 DUP4 PUSH2 0x12A0 SWAP16 SWAP5 DUP16 PUSH2 0x125C PUSH2 0x1267 SWAP9 DUP15 SWAP9 DUP5 SWAP2 PUSH2 0x15E2 JUMPI POP PUSH2 0x264A JUMP JUMPDEST CALLER DUP3 MSTORE MSTORE KECCAK256 SWAP1 PUSH2 0x249A JUMP JUMPDEST AND SWAP13 DUP14 DUP2 MSTORE DUP1 DUP9 MSTORE KECCAK256 DUP14 PUSH2 0x249A JUMP JUMPDEST PUSH2 0x1282 DUP10 CALLER EQ ISZERO PUSH2 0x27EF JUMP JUMPDEST DUP8 MLOAD DUP1 DUP1 SWAP6 DUP2 SWAP5 PUSH4 0xCBE02A9F PUSH1 0xE0 SHL DUP4 MSTORE DUP7 DUP11 DUP5 ADD MSTORE DUP3 ADD DUP14 PUSH2 0x2475 JUMP JUMPDEST SUB SWAP2 GAS STATICCALL SWAP1 DUP2 ISZERO PUSH2 0xEC6 JUMPI SWAP1 DUP3 SWAP2 DUP10 SWAP2 PUSH2 0x15C5 JUMPI JUMPDEST POP AND PUSH2 0x1576 JUMPI DUP5 DUP8 MSTORE DUP7 DUP4 MSTORE PUSH1 0x1 PUSH2 0x12CF DUP6 DUP10 KECCAK256 DUP9 PUSH2 0x249A JUMP JUMPDEST ADD CALLER DUP9 MSTORE DUP4 MSTORE DUP4 DUP8 KECCAK256 SLOAD SWAP2 DUP8 DUP4 SGT DUP1 ISZERO PUSH2 0x156F JUMPI JUMPDEST DUP6 MLOAD SWAP1 PUSH2 0x12F0 DUP3 PUSH2 0x222A JUMP JUMPDEST PUSH1 0x36 DUP3 MSTORE PUSH32 0x596F752068617665206E6F7420676976656E206120706F736974697665206372 DUP7 DUP4 ADD MSTORE PUSH22 0x32B2103A37903A3434B99036B2B6B132B9103CB2BA17 PUSH1 0x51 SHL DUP8 DUP4 ADD MSTORE ISZERO PUSH2 0x154B JUMPI POP DUP6 DUP9 MSTORE DUP8 DUP5 MSTORE PUSH2 0x134F DUP6 DUP10 KECCAK256 DUP9 PUSH2 0x249A JUMP JUMPDEST SWAP2 DUP3 SLOAD PUSH0 NOT SWAP4 DUP5 DUP3 ADD SWAP2 DUP12 DUP7 DUP5 SLT SWAP2 SLT SWAP1 DUP1 ISZERO DUP3 AND SWAP2 ISZERO AND OR PUSH2 0x1539 JUMPI SSTORE DUP7 DUP10 MSTORE DUP9 DUP6 MSTORE PUSH2 0x137F DUP7 DUP11 KECCAK256 DUP10 PUSH2 0x249A JUMP JUMPDEST SLOAD PUSH2 0x1389 DUP10 PUSH2 0x2591 JUMP JUMPDEST DUP8 MLOAD SWAP2 DUP3 MSTORE DUP9 PUSH0 DUP1 MLOAD PUSH1 0x20 PUSH2 0x29A4 DUP4 CODECOPY DUP2 MLOAD SWAP2 MSTORE DUP9 TIMESTAMP SWAP5 LOG4 DUP7 DUP10 MSTORE DUP9 DUP6 MSTORE PUSH1 0x2 PUSH2 0x13B5 DUP8 DUP12 KECCAK256 DUP11 PUSH2 0x249A JUMP JUMPDEST ADD SWAP4 DUP10 DUP6 SLOAD SWAP3 DUP6 DUP5 ADD SWAP4 DUP5 GT PUSH2 0x1527 JUMPI DUP4 DUP4 SUB PUSH2 0x146A JUMPI JUMPDEST POP SWAP1 POP DUP8 SWAP2 POP MSTORE DUP8 DUP5 MSTORE PUSH1 0x1 PUSH2 0x13E5 DUP7 DUP11 KECCAK256 DUP10 PUSH2 0x249A JUMP JUMPDEST ADD CALLER DUP10 MSTORE DUP5 MSTORE DUP8 DUP6 DUP2 KECCAK256 SSTORE DUP3 SLOAD SWAP1 DUP2 ISZERO PUSH2 0x1458 JUMPI POP PUSH32 0x6C5CFC2553AAFFD4CD0342765CDBCA370CDA07554F00E4E5112884EAE468E299 SWAP4 SWAP3 SWAP2 ADD SWAP1 PUSH2 0x1442 PUSH2 0x142D DUP4 DUP4 PUSH2 0x2352 JUMP JUMPDEST DUP2 SLOAD SWAP1 PUSH1 0x1 DUP1 PUSH1 0xA0 SHL SUB SWAP1 PUSH1 0x3 SHL SHL NOT AND SWAP1 SSTORE JUMP JUMPDEST SSTORE DUP4 DUP7 MSTORE DUP6 DUP2 MSTORE PUSH2 0xE78 PUSH2 0xE71 DUP5 DUP9 KECCAK256 DUP8 PUSH2 0x249A JUMP JUMPDEST PUSH4 0x4E487B71 PUSH1 0xE0 SHL DUP10 MSTORE PUSH1 0x31 SWAP1 MSTORE DUP9 DUP9 REVERT JUMPDEST PUSH2 0x14AC DUP2 PUSH2 0x147B PUSH2 0x14EA SWAP7 DUP11 PUSH2 0x2352 JUMP JUMPDEST SWAP1 SLOAD SWAP1 PUSH1 0x3 SHL SHR AND PUSH2 0x148D DUP6 DUP11 PUSH2 0x2352 JUMP JUMPDEST SWAP1 SWAP2 SWAP1 DUP3 SLOAD SWAP1 PUSH1 0x3 SHL SWAP2 PUSH1 0x1 DUP1 PUSH1 0xA0 SHL SUB DUP1 SWAP2 AND DUP4 SHL SWAP3 SHL NOT AND OR SWAP1 SSTORE JUMP JUMPDEST PUSH1 0x1 PUSH2 0x14C9 DUP11 PUSH2 0x14BB DUP7 PUSH2 0x291F JUMP JUMPDEST SWAP5 DUP14 DUP2 MSTORE DUP1 DUP13 MSTORE KECCAK256 DUP14 PUSH2 0x249A JUMP JUMPDEST ADD SWAP1 PUSH2 0x14D5 DUP5 DUP10 PUSH2 0x2352 JUMP JUMPDEST SWAP1 SLOAD SWAP1 PUSH1 0x3 SHL SHR AND DUP13 MSTORE DUP8 MSTORE DUP8 DUP12 KECCAK256 SSTORE PUSH2 0x291F JUMP JUMPDEST DUP7 PUSH2 0x14F4 DUP10 PUSH2 0x2591 JUMP JUMPDEST DUP8 MLOAD SWAP3 DUP4 MSTORE PUSH32 0xD6FA86004958E4FADC7035E661E86172C72F1EA51E79E8BF8BD3F4103663E8E3 DUP8 CALLER SWAP5 LOG4 DUP10 DUP1 DUP10 DUP2 PUSH2 0x13CD JUMP JUMPDEST PUSH4 0x4E487B71 PUSH1 0xE0 SHL DUP3 MSTORE PUSH1 0x11 DUP6 MSTORE DUP13 DUP3 REVERT JUMPDEST PUSH4 0x4E487B71 PUSH1 0xE0 SHL DUP12 MSTORE PUSH1 0x11 DUP5 MSTORE DUP12 DUP12 REVERT JUMPDEST DUP6 MLOAD PUSH3 0x461BCD PUSH1 0xE5 SHL DUP2 MSTORE SWAP2 DUP3 ADD DUP6 SWAP1 MSTORE DUP2 SWAP1 PUSH2 0x156B SWAP1 DUP3 DUP13 ADD SWAP1 PUSH2 0x2475 JUMP JUMPDEST SUB SWAP1 REVERT JUMPDEST POP DUP8 PUSH2 0x12E4 JUMP JUMPDEST POP PUSH1 0x25 DUP8 PUSH1 0x84 SWAP4 DUP6 MLOAD SWAP4 PUSH3 0x461BCD PUSH1 0xE5 SHL DUP6 MSTORE DUP5 ADD MSTORE DUP3 ADD MSTORE PUSH32 0x436F6D6D756E6974792055736573206120637265642061636365737320636F6E PUSH1 0x44 DUP3 ADD MSTORE PUSH5 0x1D1C9858DD PUSH1 0xDA SHL PUSH1 0x64 DUP3 ADD MSTORE REVERT JUMPDEST PUSH2 0x15DC SWAP2 POP DUP6 RETURNDATASIZE DUP8 GT PUSH2 0x4F4 JUMPI PUSH2 0x4E6 DUP2 DUP4 PUSH2 0x2259 JUMP JUMPDEST DUP11 PUSH2 0x12B5 JUMP JUMPDEST PUSH2 0xEE7 SWAP2 POP DUP4 RETURNDATASIZE DUP6 GT PUSH2 0x42F JUMPI PUSH2 0x421 DUP2 DUP4 PUSH2 0x2259 JUMP JUMPDEST DUP7 MLOAD RETURNDATASIZE DUP11 DUP3 RETURNDATACOPY RETURNDATASIZE SWAP1 REVERT JUMPDEST DUP4 DUP4 CALLVALUE PUSH2 0x18F JUMPI PUSH2 0x1613 CALLDATASIZE PUSH2 0x2311 JUMP JUMPDEST PUSH1 0x3 SLOAD DUP4 MLOAD PUSH4 0xCBE02A9F PUSH1 0xE0 SHL DUP1 DUP3 MSTORE PUSH1 0x20 DUP3 DUP10 ADD DUP2 SWAP1 MSTORE SWAP8 SWAP4 SWAP6 SWAP5 SWAP4 SWAP3 PUSH1 0x24 SWAP3 PUSH1 0x1 PUSH1 0x1 PUSH1 0xA0 SHL SUB SWAP3 SWAP2 DUP4 AND SWAP2 DUP11 DUP3 DUP1 PUSH2 0x1650 DUP9 DUP3 ADD DUP12 PUSH2 0x2475 JUMP JUMPDEST SUB DUP2 DUP7 GAS STATICCALL SWAP2 DUP3 ISZERO PUSH2 0x556 JUMPI DUP11 SWAP3 PUSH2 0x198C JUMPI JUMPDEST POP DUP8 MLOAD PUSH4 0xB3F6702D PUSH1 0xE0 SHL DUP2 MSTORE DUP7 DUP2 ADD DUP13 SWAP1 MSTORE DUP12 DUP2 DUP1 PUSH2 0x1685 DUP10 DUP3 ADD DUP13 PUSH2 0x2475 JUMP JUMPDEST SUB DUP2 DUP8 GAS STATICCALL SWAP1 DUP2 ISZERO PUSH2 0x52D JUMPI DUP6 SWAP2 DUP3 SWAP2 DUP15 DUP15 SWAP3 PUSH2 0x196F JUMPI JUMPDEST POP POP AND CALLER EQ SWAP3 DUP4 PUSH2 0x1964 JUMPI JUMPDEST POP POP DUP2 ISZERO PUSH2 0x190C JUMPI JUMPDEST POP ISZERO PUSH2 0x18B8 JUMPI DUP9 DUP7 MLOAD DUP1 SWAP3 PUSH4 0x1EFB39A9 PUSH1 0xE1 SHL DUP3 MSTORE DUP3 DUP8 DUP4 ADD MSTORE DUP2 DUP1 PUSH2 0x16DA DUP9 DUP3 ADD DUP12 PUSH2 0x2475 JUMP JUMPDEST SUB SWAP2 GAS STATICCALL SWAP1 DUP2 ISZERO PUSH2 0x15F9 JUMPI PUSH2 0x16FB SWAP2 PUSH1 0x1 SWAP2 DUP11 SWAP2 PUSH2 0x189B JUMPI POP ISZERO ISZERO EQ PUSH2 0x253A JUMP JUMPDEST DUP5 MLOAD SWAP1 DUP5 MLOAD SWAP2 DUP10 DUP2 DUP2 DUP9 ADD SWAP5 PUSH2 0x1712 DUP2 DUP4 DUP9 PUSH2 0x2454 JUMP JUMPDEST DUP2 ADD DUP8 DUP2 MSTORE SUB ADD SWAP1 KECCAK256 SWAP7 AND SWAP6 DUP7 DUP9 MSTORE DUP9 MSTORE PUSH1 0x1 PUSH1 0xFF DUP7 DUP10 KECCAK256 SLOAD AND ISZERO ISZERO SUB PUSH2 0x1864 JUMPI DUP6 CALLER EQ PUSH2 0x1822 JUMPI DUP8 PUSH2 0x174F SWAP2 DUP7 MLOAD DUP1 SWAP4 DUP2 SWAP3 DUP9 MLOAD SWAP3 DUP4 SWAP2 PUSH2 0x2454 JUMP JUMPDEST DUP2 ADD DUP6 DUP2 MSTORE SUB ADD SWAP1 KECCAK256 DUP6 DUP8 MSTORE DUP8 MSTORE DUP4 DUP7 KECCAK256 DUP1 SLOAD PUSH1 0xFF NOT AND SWAP1 SSTORE DUP4 MLOAD PUSH4 0x5848E2A3 PUSH1 0xE1 SHL DUP2 MSTORE DUP1 DUP4 ADD DUP7 SWAP1 MSTORE SWAP1 DUP2 ADD DUP5 SWAP1 MSTORE DUP7 DUP2 DUP1 PUSH2 0x1790 PUSH1 0x44 DUP3 ADD DUP8 PUSH2 0x2475 JUMP JUMPDEST SUB DUP2 ADDRESS GAS STATICCALL SWAP1 DUP2 ISZERO PUSH2 0x1818 JUMPI SWAP3 DUP7 PUSH32 0xE19753EF16CB08D80C81E7C26DF1578544DC02C0A7538CF0D3FC2355DC180BCA SWAP4 PUSH1 0x1 PUSH2 0x400 SWAP5 DUP10 SWAP9 SWAP8 DUP5 SWAP2 PUSH2 0x17FB JUMPI JUMPDEST POP ISZERO ISZERO EQ PUSH2 0x17E0 JUMPI JUMPDEST POP POP PUSH2 0x2591 JUMP JUMPDEST DUP7 DUP3 MSTORE DUP2 DUP11 MSTORE PUSH2 0x17F2 DUP7 DUP4 KECCAK256 DUP5 PUSH2 0x249A JUMP JUMPDEST ADD SSTORE DUP7 DUP10 PUSH2 0x17D9 JUMP JUMPDEST PUSH2 0x1812 SWAP2 POP DUP13 DUP14 RETURNDATASIZE LT PUSH2 0x42F JUMPI PUSH2 0x421 DUP2 DUP4 PUSH2 0x2259 JUMP JUMPDEST DUP13 PUSH2 0x17D0 JUMP JUMPDEST DUP5 MLOAD RETURNDATASIZE DUP9 DUP3 RETURNDATACOPY RETURNDATASIZE SWAP1 REVERT JUMPDEST DUP5 MLOAD PUSH3 0x461BCD PUSH1 0xE5 SHL DUP2 MSTORE DUP1 DUP5 ADD DUP10 SWAP1 MSTORE PUSH1 0x1D DUP2 DUP5 ADD MSTORE PUSH32 0x596F752063616E6E6F7420756E696E7669746520796F757273656C662E000000 PUSH1 0x44 DUP3 ADD MSTORE PUSH1 0x64 SWAP1 REVERT JUMPDEST DUP5 MLOAD PUSH3 0x461BCD PUSH1 0xE5 SHL DUP2 MSTORE DUP1 DUP5 ADD DUP10 SWAP1 MSTORE PUSH1 0x12 DUP2 DUP5 ADD MSTORE PUSH18 0x13595B58995C88139BDD08125B9D9A5D1959 PUSH1 0x72 SHL PUSH1 0x44 DUP3 ADD MSTORE PUSH1 0x64 SWAP1 REVERT JUMPDEST PUSH2 0x18B2 SWAP2 POP DUP12 RETURNDATASIZE DUP14 GT PUSH2 0x42F JUMPI PUSH2 0x421 DUP2 DUP4 PUSH2 0x2259 JUMP JUMPDEST DUP12 PUSH2 0x3C6 JUMP JUMPDEST DUP6 MLOAD PUSH3 0x461BCD PUSH1 0xE5 SHL DUP2 MSTORE DUP1 DUP6 ADD DUP11 SWAP1 MSTORE PUSH1 0x29 DUP2 DUP6 ADD MSTORE PUSH32 0x596F7520646F6E742068617665207065726D697373696F6E20756E696E766974 PUSH1 0x44 DUP3 ADD MSTORE PUSH9 0x65204D656D62657273 PUSH1 0xB8 SHL PUSH1 0x64 DUP3 ADD MSTORE PUSH1 0x84 SWAP1 REVERT JUMPDEST SWAP1 POP DUP7 MLOAD SWAP1 DUP2 MSTORE DUP10 DUP6 DUP3 ADD MSTORE DUP10 DUP2 DUP1 PUSH2 0x1927 DUP8 DUP3 ADD DUP11 PUSH2 0x2475 JUMP JUMPDEST SUB DUP2 DUP6 GAS STATICCALL SWAP1 DUP2 ISZERO PUSH2 0x4FB JUMPI SWAP1 DUP4 SWAP2 DUP11 SWAP2 PUSH2 0x1947 JUMPI JUMPDEST POP AND CALLER EQ DUP11 PUSH2 0x16B2 JUMP JUMPDEST PUSH2 0x195E SWAP2 POP DUP12 RETURNDATASIZE DUP14 GT PUSH2 0x4F4 JUMPI PUSH2 0x4E6 DUP2 DUP4 PUSH2 0x2259 JUMP JUMPDEST DUP12 PUSH2 0x193D JUMP JUMPDEST AND ISZERO SWAP2 POP DUP4 DUP13 PUSH2 0x16A9 JUMP JUMPDEST PUSH2 0x1985 SWAP3 POP DUP1 RETURNDATASIZE LT PUSH2 0x4F4 JUMPI PUSH2 0x4E6 DUP2 DUP4 PUSH2 0x2259 JUMP JUMPDEST DUP15 DUP15 PUSH2 0x169D JUMP JUMPDEST PUSH2 0x19A4 SWAP2 SWAP3 POP DUP12 RETURNDATASIZE DUP14 GT PUSH2 0x4F4 JUMPI PUSH2 0x4E6 DUP2 DUP4 PUSH2 0x2259 JUMP JUMPDEST SWAP1 DUP12 PUSH2 0x1663 JUMP JUMPDEST DUP3 DUP5 CALLVALUE PUSH2 0x9C4 JUMPI DUP2 PUSH1 0x3 NOT CALLDATASIZE ADD SLT PUSH2 0x9C4 JUMPI PUSH2 0x19C5 PUSH2 0x21FA JUMP JUMPDEST PUSH1 0x1 PUSH1 0x1 PUSH1 0xA0 SHL SUB AND DUP2 MSTORE PUSH1 0x1 PUSH1 0x20 MSTORE DUP2 DUP2 KECCAK256 DUP1 SLOAD PUSH1 0x24 CALLDATALOAD SWAP2 SWAP1 DUP3 LT ISZERO PUSH2 0x261 JUMPI SWAP1 PUSH2 0x19F0 SWAP2 PUSH2 0x2352 JUMP JUMPDEST SWAP4 SWAP1 SWAP4 PUSH2 0x1A17 JUMPI PUSH2 0x172 DUP4 PUSH2 0x1A04 DUP7 PUSH2 0x23B3 JUMP JUMPDEST SWAP1 MLOAD SWAP2 DUP3 SWAP2 PUSH1 0x20 DUP4 MSTORE PUSH1 0x20 DUP4 ADD SWAP1 PUSH2 0x2475 JUMP JUMPDEST PUSH4 0x4E487B71 PUSH1 0xE0 SHL DUP3 MSTORE DUP2 SWAP1 MSTORE PUSH1 0x24 SWAP1 REVERT JUMPDEST SWAP2 SWAP1 POP CALLVALUE PUSH2 0x261 JUMPI PUSH1 0x20 DUP1 PUSH1 0x3 NOT CALLDATASIZE ADD SLT PUSH2 0x958 JUMPI PUSH1 0x1 PUSH1 0x1 PUSH1 0x40 SHL SUB DUP4 CALLDATALOAD DUP2 DUP2 GT PUSH2 0xFB5 JUMPI PUSH2 0x1A5C SWAP1 CALLDATASIZE SWAP1 DUP7 ADD PUSH2 0x227A JUMP JUMPDEST SWAP4 PUSH1 0x1 DUP1 PUSH1 0xA0 SHL SUB PUSH1 0x3 SLOAD AND DUP5 MLOAD SWAP3 PUSH4 0x7B7FCFED PUSH1 0xE0 SHL DUP5 MSTORE DUP5 DUP4 DUP6 ADD MSTORE PUSH1 0x24 SWAP4 DUP6 DUP2 DUP1 PUSH2 0x1A8C DUP9 DUP3 ADD DUP13 PUSH2 0x2475 JUMP JUMPDEST SUB DUP2 DUP7 GAS STATICCALL SWAP1 DUP2 ISZERO PUSH2 0x4FB JUMPI DUP10 SWAP2 PUSH2 0x1E54 JUMPI JUMPDEST POP ISZERO PUSH2 0x1E17 JUMPI CALLER DUP9 MSTORE DUP8 DUP6 MSTORE DUP3 PUSH2 0x1AB8 DUP8 DUP11 KECCAK256 DUP10 PUSH2 0x249A JUMP JUMPDEST ADD SLOAD PUSH2 0x1DC1 JUMPI DUP5 DUP7 MLOAD DUP1 SWAP4 PUSH4 0x1EFB39A9 PUSH1 0xE1 SHL DUP3 MSTORE DUP3 DUP7 DUP4 ADD MSTORE DUP2 DUP1 PUSH2 0x1AE0 DUP10 DUP3 ADD DUP14 PUSH2 0x2475 JUMP JUMPDEST SUB SWAP2 GAS STATICCALL SWAP2 DUP3 ISZERO PUSH2 0x15F9 JUMPI DUP9 SWAP3 PUSH2 0x1DA2 JUMPI JUMPDEST POP PUSH1 0x1 DUP1 SWAP3 ISZERO ISZERO EQ PUSH2 0x1D1F JUMPI JUMPDEST CALLER DUP9 MSTORE DUP2 DUP6 MSTORE DUP6 DUP9 KECCAK256 DUP1 SLOAD SWAP1 DUP2 ISZERO PUSH2 0x1CC4 JUMPI JUMPDEST POP POP CALLER DUP9 MSTORE DUP2 DUP6 MSTORE DUP6 DUP9 KECCAK256 DUP1 SLOAD SWAP1 PUSH1 0x1 PUSH1 0x40 SHL DUP3 LT ISZERO PUSH2 0x1CB2 JUMPI SWAP1 PUSH2 0x1B3B SWAP2 DUP5 DUP3 ADD DUP2 SSTORE PUSH2 0x2352 JUMP JUMPDEST SWAP2 SWAP1 SWAP2 PUSH2 0x1CA1 JUMPI DUP8 MLOAD SWAP1 DUP2 GT PUSH2 0x1C8F JUMPI PUSH2 0x1B5F DUP2 PUSH2 0x1B59 DUP5 SLOAD PUSH2 0x237B JUMP JUMPDEST DUP5 PUSH2 0x25C7 JUMP JUMPDEST DUP1 DUP7 PUSH1 0x1F DUP3 GT PUSH1 0x1 EQ PUSH2 0x1C32 JUMPI DUP11 SWAP2 PUSH2 0x1C27 JUMPI JUMPDEST POP PUSH0 NOT PUSH1 0x3 DUP4 SWAP1 SHL SHR NOT AND SWAP1 DUP4 SHL OR SWAP1 SSTORE JUMPDEST CALLER DUP8 MSTORE DUP4 MSTORE DUP4 DUP7 KECCAK256 SLOAD PUSH0 NOT DUP2 ADD SWAP3 SWAP1 DUP4 GT PUSH2 0x1C16 JUMPI POP SWAP3 DUP6 PUSH1 0x3 SWAP4 PUSH2 0x1BD3 SWAP4 PUSH2 0x1BE5 SWAP7 CALLER DUP5 MSTORE DUP4 DUP4 MSTORE PUSH2 0x1BBA DUP6 DUP6 KECCAK256 DUP11 PUSH2 0x249A JUMP JUMPDEST ADD SSTORE CALLER DUP3 MSTORE DUP2 DUP2 MSTORE PUSH2 0x1BD9 PUSH1 0x2 PUSH2 0x1BD3 DUP6 DUP6 KECCAK256 DUP11 PUSH2 0x249A JUMP JUMPDEST ADD PUSH2 0x260A JUMP JUMPDEST CALLER DUP3 MSTORE MSTORE DUP6 KECCAK256 DUP5 PUSH2 0x249A JUMP JUMPDEST PUSH2 0x1BEF CALLER SWAP2 PUSH2 0x2591 JUMP JUMPDEST PUSH32 0xF038F0D708FC70F18D5815D07A62A3B40D2035DC6AF7429865F612242FF87058 DUP4 DUP1 LOG3 DUP1 RETURN JUMPDEST PUSH4 0x4E487B71 PUSH1 0xE0 SHL DUP8 MSTORE PUSH1 0x11 DUP3 MSTORE DUP7 REVERT JUMPDEST SWAP1 POP DUP9 ADD MLOAD PUSH0 PUSH2 0x1B73 JUMP JUMPDEST DUP4 DUP12 MSTORE DUP8 DUP12 KECCAK256 DUP6 SWAP4 POP SWAP1 PUSH1 0x1F NOT DUP4 AND DUP13 JUMPDEST DUP11 DUP14 DUP4 DUP4 LT PUSH2 0x1C7A JUMPI POP POP POP DUP4 GT PUSH2 0x1C62 JUMPI JUMPDEST POP POP DUP2 SHL ADD SWAP1 SSTORE PUSH2 0x1B85 JUMP JUMPDEST DUP11 ADD MLOAD PUSH0 NOT PUSH1 0xF8 DUP5 PUSH1 0x3 SHL AND SHR NOT AND SWAP1 SSTORE PUSH0 DUP1 PUSH2 0x1C56 JUMP JUMPDEST DUP5 ADD MLOAD DUP6 SSTORE DUP9 SWAP7 SWAP1 SWAP5 ADD SWAP4 SWAP3 DUP4 ADD SWAP3 ADD PUSH2 0x1C43 JUMP JUMPDEST PUSH4 0x4E487B71 PUSH1 0xE0 SHL DUP10 MSTORE PUSH1 0x41 DUP5 MSTORE DUP5 DUP10 REVERT JUMPDEST PUSH4 0x4E487B71 PUSH1 0xE0 SHL DUP10 MSTORE DUP9 DUP5 MSTORE DUP5 DUP10 REVERT JUMPDEST PUSH4 0x4E487B71 PUSH1 0xE0 SHL DUP11 MSTORE PUSH1 0x41 DUP6 MSTORE DUP6 DUP11 REVERT JUMPDEST PUSH1 0x1 PUSH1 0x40 SHL DUP3 LT ISZERO PUSH2 0x1CB2 JUMPI SWAP1 PUSH2 0x1CDF SWAP2 DUP5 DUP3 ADD DUP2 SSTORE PUSH2 0x2352 JUMP JUMPDEST PUSH2 0x1CA1 JUMPI DUP1 PUSH2 0x1CEF PUSH0 SWAP3 SLOAD PUSH2 0x237B JUMP JUMPDEST PUSH1 0x1F DUP2 GT PUSH2 0x1D01 JUMPI JUMPDEST POP SSTORE PUSH0 DUP1 PUSH2 0x1B12 JUMP JUMPDEST DUP2 DUP12 MSTORE DUP8 DUP12 KECCAK256 PUSH2 0x1D19 SWAP2 PUSH1 0x1F ADD PUSH1 0x5 SHR DUP2 ADD SWAP1 PUSH2 0x25B1 JUMP JUMPDEST PUSH0 PUSH2 0x1CF8 JUMP JUMPDEST DUP6 MLOAD DUP6 DUP2 DUP2 PUSH2 0x1D34 DUP12 DUP4 DUP2 MLOAD SWAP4 DUP5 SWAP3 ADD PUSH2 0x2454 JUMP JUMPDEST DUP2 ADD DUP7 DUP2 MSTORE SUB ADD SWAP1 KECCAK256 CALLER DUP10 MSTORE DUP6 MSTORE DUP6 DUP9 KECCAK256 SLOAD PUSH1 0xFF AND ISZERO ISZERO DUP3 EQ PUSH2 0x1AFF JUMPI DUP6 MLOAD PUSH3 0x461BCD PUSH1 0xE5 SHL DUP2 MSTORE DUP1 DUP5 ADD DUP7 SWAP1 MSTORE PUSH1 0x26 DUP2 DUP7 ADD MSTORE PUSH32 0x596F7520617265206E6F7420696E766974656420746F207468697320636F6D6D PUSH1 0x44 DUP3 ADD MSTORE PUSH6 0x3AB734BA3C97 PUSH1 0xD1 SHL PUSH1 0x64 DUP3 ADD MSTORE PUSH1 0x84 SWAP1 REVERT JUMPDEST PUSH2 0x1DBA SWAP2 SWAP3 POP DUP6 RETURNDATASIZE DUP8 GT PUSH2 0x42F JUMPI PUSH2 0x421 DUP2 DUP4 PUSH2 0x2259 JUMP JUMPDEST SWAP1 PUSH0 PUSH2 0x1AF2 JUMP JUMPDEST DUP6 MLOAD PUSH3 0x461BCD PUSH1 0xE5 SHL DUP2 MSTORE DUP1 DUP5 ADD DUP7 SWAP1 MSTORE PUSH1 0x2B DUP2 DUP7 ADD MSTORE PUSH32 0x596F752061726520616C72656164792061206D656D626572206F662074686973 PUSH1 0x44 DUP3 ADD MSTORE PUSH11 0x1031B7B6B6BAB734BA3C97 PUSH1 0xA9 SHL PUSH1 0x64 DUP3 ADD MSTORE PUSH1 0x84 SWAP1 REVERT JUMPDEST DUP6 MLOAD PUSH3 0x461BCD PUSH1 0xE5 SHL DUP2 MSTORE DUP1 DUP5 ADD DUP7 SWAP1 MSTORE PUSH1 0x18 DUP2 DUP7 ADD MSTORE PUSH24 0x10DBDB5B5D5B9A5D1E48111BD95CC81B9BDD08115E1A5CDD PUSH1 0x42 SHL PUSH1 0x44 DUP3 ADD MSTORE PUSH1 0x64 SWAP1 REVERT JUMPDEST PUSH2 0x1E6B SWAP2 POP DUP7 RETURNDATASIZE DUP9 GT PUSH2 0x42F JUMPI PUSH2 0x421 DUP2 DUP4 PUSH2 0x2259 JUMP JUMPDEST PUSH0 PUSH2 0x1A9F JUMP JUMPDEST DUP3 DUP5 CALLVALUE PUSH2 0x9C4 JUMPI PUSH2 0x1E81 CALLDATASIZE PUSH2 0x2311 JUMP JUMPDEST SWAP3 PUSH1 0x1 DUP1 PUSH1 0xA0 SHL SUB SWAP4 DUP5 PUSH1 0x3 SLOAD AND SWAP6 DUP3 MLOAD SWAP6 PUSH4 0x7B7FCFED PUSH1 0xE0 SHL DUP8 MSTORE PUSH1 0x20 SWAP3 DUP4 DUP4 DUP10 ADD MSTORE PUSH1 0x24 SWAP8 DUP5 DUP2 DUP1 PUSH2 0x1EB7 DUP13 DUP3 ADD DUP12 PUSH2 0x2475 JUMP JUMPDEST SUB DUP2 DUP14 GAS STATICCALL SWAP1 DUP2 ISZERO PUSH2 0x15F9 JUMPI SWAP9 DUP1 SWAP11 PUSH2 0x1276 DUP7 PUSH2 0xCF8 DUP11 DUP9 DUP15 SWAP16 SWAP9 DUP15 SWAP16 SWAP15 DUP16 PUSH2 0xCD7 DUP16 SWAP12 SWAP3 DUP7 DUP4 PUSH2 0x1EF9 SWAP16 SWAP5 DUP16 PUSH2 0x125C PUSH2 0x1267 SWAP9 DUP15 SWAP9 DUP5 SWAP2 PUSH2 0x15E2 JUMPI POP PUSH2 0x264A JUMP JUMPDEST SUB SWAP2 GAS STATICCALL SWAP1 DUP2 ISZERO PUSH2 0xEC6 JUMPI SWAP1 DUP3 SWAP2 DUP10 SWAP2 PUSH2 0x2129 JUMPI JUMPDEST POP AND PUSH2 0x1576 JUMPI DUP5 DUP8 MSTORE DUP7 DUP4 MSTORE PUSH1 0x1 PUSH2 0x1F28 DUP6 DUP10 KECCAK256 DUP9 PUSH2 0x249A JUMP JUMPDEST ADD CALLER DUP9 MSTORE DUP4 MSTORE DUP4 DUP8 KECCAK256 SLOAD DUP5 MLOAD PUSH2 0x1F3D DUP2 PUSH2 0x222A JUMP JUMPDEST PUSH1 0x23 DUP2 MSTORE PUSH32 0x48617665206E6F7420676976656E2061206E6567617469766520637265642079 DUP6 DUP3 ADD MSTORE PUSH3 0x32BA17 PUSH1 0xE9 SHL DUP7 DUP3 ADD MSTORE DUP9 DUP3 SLT ISZERO PUSH2 0x2108 JUMPI POP DUP6 DUP9 MSTORE DUP8 DUP5 MSTORE PUSH2 0x1F8C DUP6 DUP10 KECCAK256 DUP9 PUSH2 0x249A JUMP JUMPDEST DUP1 SLOAD SWAP1 PUSH1 0x1 DUP3 ADD SWAP2 DUP11 PUSH1 0x1 DUP5 SLT SWAP2 SLT SWAP1 DUP1 ISZERO DUP3 AND SWAP2 ISZERO AND OR PUSH2 0x20F6 JUMPI SWAP1 PUSH2 0x1FE8 SWAP3 SWAP2 SSTORE DUP7 DUP10 MSTORE DUP9 DUP6 MSTORE PUSH2 0x1FC1 DUP7 DUP11 KECCAK256 DUP10 PUSH2 0x249A JUMP JUMPDEST SLOAD PUSH2 0x1FCB DUP10 PUSH2 0x2591 JUMP JUMPDEST DUP8 MLOAD SWAP2 DUP3 MSTORE DUP9 PUSH0 DUP1 MLOAD PUSH1 0x20 PUSH2 0x29A4 DUP4 CODECOPY DUP2 MLOAD SWAP2 MSTORE DUP9 TIMESTAMP SWAP5 LOG4 PUSH2 0x28F6 JUMP JUMPDEST SWAP2 DUP6 DUP9 MSTORE DUP8 DUP5 MSTORE PUSH1 0x3 PUSH2 0x1FFD DUP7 DUP11 KECCAK256 DUP10 PUSH2 0x249A JUMP JUMPDEST ADD SWAP3 DUP4 SLOAD SWAP1 DUP10 PUSH0 NOT SWAP5 DUP6 DUP5 ADD SWAP4 DUP5 GT PUSH2 0x1527 JUMPI DUP4 DUP4 SUB PUSH2 0x2078 JUMPI JUMPDEST POP SWAP1 POP DUP8 SWAP2 POP MSTORE DUP8 DUP5 MSTORE PUSH1 0x1 PUSH2 0x2030 DUP7 DUP11 KECCAK256 DUP10 PUSH2 0x249A JUMP JUMPDEST ADD CALLER DUP10 MSTORE DUP5 MSTORE DUP8 DUP6 DUP2 KECCAK256 SSTORE DUP3 SLOAD SWAP1 DUP2 ISZERO PUSH2 0x1458 JUMPI POP PUSH32 0xD6D87A1EC8D7320486A7705035A72A09149F3C5E25DCCCB14A1C99EEBC86D6C0 SWAP4 SWAP3 SWAP2 ADD SWAP1 PUSH2 0x1442 PUSH2 0x142D DUP4 DUP4 PUSH2 0x2352 JUMP JUMPDEST PUSH2 0x2089 DUP2 PUSH2 0x147B PUSH2 0x20B9 SWAP7 DUP11 PUSH2 0x2352 JUMP JUMPDEST PUSH1 0x1 PUSH2 0x2098 DUP11 PUSH2 0x14BB DUP7 PUSH2 0x28F6 JUMP JUMPDEST ADD SWAP1 PUSH2 0x20A4 DUP5 DUP10 PUSH2 0x2352 JUMP JUMPDEST SWAP1 SLOAD SWAP1 PUSH1 0x3 SHL SHR AND DUP13 MSTORE DUP8 MSTORE DUP8 DUP12 KECCAK256 SSTORE PUSH2 0x28F6 JUMP JUMPDEST DUP7 PUSH2 0x20C3 DUP10 PUSH2 0x2591 JUMP JUMPDEST DUP8 MLOAD SWAP3 DUP4 MSTORE PUSH32 0xD6FA86004958E4FADC7035E661E86172C72F1EA51E79E8BF8BD3F4103663E8E3 DUP8 CALLER SWAP5 LOG4 DUP10 DUP1 DUP10 DUP2 PUSH2 0x2018 JUMP JUMPDEST PUSH4 0x4E487B71 PUSH1 0xE0 SHL DUP11 MSTORE PUSH1 0x11 DUP6 MSTORE DUP11 DUP11 REVERT JUMPDEST DUP6 MLOAD PUSH3 0x461BCD PUSH1 0xE5 SHL DUP2 MSTORE DUP1 DUP6 ADD DUP7 SWAP1 MSTORE SWAP1 DUP2 SWAP1 PUSH2 0x156B SWAP1 DUP3 DUP14 ADD SWAP1 PUSH2 0x2475 JUMP JUMPDEST PUSH2 0x2140 SWAP2 POP DUP6 RETURNDATASIZE DUP8 GT PUSH2 0x4F4 JUMPI PUSH2 0x4E6 DUP2 DUP4 PUSH2 0x2259 JUMP JUMPDEST DUP11 PUSH2 0x1F0E JUMP JUMPDEST SWAP1 POP CALLVALUE PUSH2 0x261 JUMPI PUSH1 0x20 CALLDATASIZE PUSH1 0x3 NOT ADD SLT PUSH2 0x261 JUMPI PUSH2 0x2161 PUSH2 0x21FA JUMP JUMPDEST PUSH1 0x2 SLOAD PUSH1 0x1 PUSH1 0x1 PUSH1 0xA0 SHL SUB SWAP4 SWAP2 SWAP3 SWAP2 SWAP1 DUP5 AND CALLER SUB PUSH2 0x218F JUMPI POP POP AND PUSH1 0x1 DUP1 PUSH1 0xA0 SHL SUB NOT PUSH1 0x3 SLOAD AND OR PUSH1 0x3 SSTORE DUP1 RETURN JUMPDEST SWAP1 PUSH1 0x20 PUSH1 0x64 SWAP3 MLOAD SWAP2 PUSH3 0x461BCD PUSH1 0xE5 SHL DUP4 MSTORE DUP3 ADD MSTORE PUSH1 0x16 PUSH1 0x24 DUP3 ADD MSTORE PUSH22 0x2737BA103A34329031B7B73A3930B1BA1037BBB732B9 PUSH1 0x51 SHL PUSH1 0x44 DUP3 ADD MSTORE REVERT JUMPDEST POP POP CALLVALUE PUSH2 0x18F JUMPI PUSH2 0xBA4 PUSH1 0x20 SWAP3 DUP3 PUSH2 0x21E2 CALLDATASIZE PUSH2 0x22CF JUMP JUMPDEST PUSH1 0x1 PUSH1 0x1 PUSH1 0xA0 SHL SUB SWAP1 SWAP2 AND DUP4 MSTORE DUP3 DUP7 MSTORE SWAP2 KECCAK256 SWAP1 PUSH2 0x249A JUMP JUMPDEST PUSH1 0x4 CALLDATALOAD SWAP1 PUSH1 0x1 PUSH1 0x1 PUSH1 0xA0 SHL SUB DUP3 AND DUP3 SUB PUSH2 0x2210 JUMPI JUMP JUMPDEST PUSH0 DUP1 REVERT JUMPDEST PUSH1 0x24 CALLDATALOAD SWAP1 PUSH1 0x1 PUSH1 0x1 PUSH1 0xA0 SHL SUB DUP3 AND DUP3 SUB PUSH2 0x2210 JUMPI JUMP JUMPDEST PUSH1 0x60 DUP2 ADD SWAP1 DUP2 LT PUSH1 0x1 PUSH1 0x1 PUSH1 0x40 SHL SUB DUP3 GT OR PUSH2 0x2245 JUMPI PUSH1 0x40 MSTORE JUMP JUMPDEST PUSH4 0x4E487B71 PUSH1 0xE0 SHL PUSH0 MSTORE PUSH1 0x41 PUSH1 0x4 MSTORE PUSH1 0x24 PUSH0 REVERT JUMPDEST SWAP1 PUSH1 0x1F DUP1 NOT SWAP2 ADD AND DUP2 ADD SWAP1 DUP2 LT PUSH1 0x1 PUSH1 0x1 PUSH1 0x40 SHL SUB DUP3 GT OR PUSH2 0x2245 JUMPI PUSH1 0x40 MSTORE JUMP JUMPDEST DUP2 PUSH1 0x1F DUP3 ADD SLT ISZERO PUSH2 0x2210 JUMPI DUP1 CALLDATALOAD SWAP1 PUSH1 0x1 PUSH1 0x1 PUSH1 0x40 SHL SUB DUP3 GT PUSH2 0x2245 JUMPI PUSH1 0x40 MLOAD SWAP3 PUSH2 0x22AE PUSH1 0x1F DUP5 ADD PUSH1 0x1F NOT AND PUSH1 0x20 ADD DUP6 PUSH2 0x2259 JUMP JUMPDEST DUP3 DUP5 MSTORE PUSH1 0x20 DUP4 DUP4 ADD ADD GT PUSH2 0x2210 JUMPI DUP2 PUSH0 SWAP3 PUSH1 0x20 DUP1 SWAP4 ADD DUP4 DUP7 ADD CALLDATACOPY DUP4 ADD ADD MSTORE SWAP1 JUMP JUMPDEST SWAP1 PUSH1 0x40 PUSH1 0x3 NOT DUP4 ADD SLT PUSH2 0x2210 JUMPI PUSH1 0x4 CALLDATALOAD PUSH1 0x1 PUSH1 0x1 PUSH1 0xA0 SHL SUB DUP2 AND DUP2 SUB PUSH2 0x2210 JUMPI SWAP2 PUSH1 0x24 CALLDATALOAD SWAP1 PUSH1 0x1 PUSH1 0x1 PUSH1 0x40 SHL SUB DUP3 GT PUSH2 0x2210 JUMPI PUSH2 0x230E SWAP2 PUSH1 0x4 ADD PUSH2 0x227A JUMP JUMPDEST SWAP1 JUMP JUMPDEST PUSH1 0x40 PUSH1 0x3 NOT DUP3 ADD SLT PUSH2 0x2210 JUMPI PUSH1 0x4 CALLDATALOAD SWAP1 PUSH1 0x1 PUSH1 0x1 PUSH1 0x40 SHL SUB DUP3 GT PUSH2 0x2210 JUMPI PUSH2 0x233B SWAP2 PUSH1 0x4 ADD PUSH2 0x227A JUMP JUMPDEST SWAP1 PUSH1 0x24 CALLDATALOAD PUSH1 0x1 PUSH1 0x1 PUSH1 0xA0 SHL SUB DUP2 AND DUP2 SUB PUSH2 0x2210 JUMPI SWAP1 JUMP JUMPDEST DUP1 SLOAD DUP3 LT ISZERO PUSH2 0x2367 JUMPI PUSH0 MSTORE PUSH1 0x20 PUSH0 KECCAK256 ADD SWAP1 PUSH0 SWAP1 JUMP JUMPDEST PUSH4 0x4E487B71 PUSH1 0xE0 SHL PUSH0 MSTORE PUSH1 0x32 PUSH1 0x4 MSTORE PUSH1 0x24 PUSH0 REVERT JUMPDEST SWAP1 PUSH1 0x1 DUP3 DUP2 SHR SWAP3 AND DUP1 ISZERO PUSH2 0x23A9 JUMPI JUMPDEST PUSH1 0x20 DUP4 LT EQ PUSH2 0x2395 JUMPI JUMP JUMPDEST PUSH4 0x4E487B71 PUSH1 0xE0 SHL PUSH0 MSTORE PUSH1 0x22 PUSH1 0x4 MSTORE PUSH1 0x24 PUSH0 REVERT JUMPDEST SWAP2 PUSH1 0x7F AND SWAP2 PUSH2 0x238A JUMP JUMPDEST SWAP1 PUSH1 0x40 MLOAD SWAP2 DUP3 PUSH0 DUP3 SLOAD SWAP3 PUSH2 0x23C6 DUP5 PUSH2 0x237B JUMP JUMPDEST SWAP1 DUP2 DUP5 MSTORE PUSH1 0x1 SWAP5 DUP6 DUP2 AND SWAP1 DUP2 PUSH0 EQ PUSH2 0x2431 JUMPI POP PUSH1 0x1 EQ PUSH2 0x23F1 JUMPI JUMPDEST POP POP PUSH2 0x23EF SWAP3 POP SUB DUP4 PUSH2 0x2259 JUMP JUMPDEST JUMP JUMPDEST SWAP1 SWAP4 SWAP2 POP PUSH0 MSTORE PUSH1 0x20 SWAP1 DUP2 PUSH0 KECCAK256 SWAP4 PUSH0 SWAP2 JUMPDEST DUP2 DUP4 LT PUSH2 0x2419 JUMPI POP POP PUSH2 0x23EF SWAP4 POP DUP3 ADD ADD PUSH0 DUP1 PUSH2 0x23E1 JUMP JUMPDEST DUP6 SLOAD DUP9 DUP5 ADD DUP6 ADD MSTORE SWAP5 DUP6 ADD SWAP5 DUP8 SWAP5 POP SWAP2 DUP4 ADD SWAP2 PUSH2 0x2401 JUMP JUMPDEST SWAP2 POP POP PUSH2 0x23EF SWAP5 POP PUSH1 0x20 SWAP3 POP PUSH1 0xFF NOT AND DUP3 DUP5 ADD MSTORE ISZERO ISZERO PUSH1 0x5 SHL DUP3 ADD ADD PUSH0 DUP1 PUSH2 0x23E1 JUMP JUMPDEST PUSH0 JUMPDEST DUP4 DUP2 LT PUSH2 0x2465 JUMPI POP POP PUSH0 SWAP2 ADD MSTORE JUMP JUMPDEST DUP2 DUP2 ADD MLOAD DUP4 DUP3 ADD MSTORE PUSH1 0x20 ADD PUSH2 0x2456 JUMP JUMPDEST SWAP1 PUSH1 0x20 SWAP2 PUSH2 0x248E DUP2 MLOAD DUP1 SWAP3 DUP2 DUP6 MSTORE DUP6 DUP1 DUP7 ADD SWAP2 ADD PUSH2 0x2454 JUMP JUMPDEST PUSH1 0x1F ADD PUSH1 0x1F NOT AND ADD ADD SWAP1 JUMP JUMPDEST PUSH1 0x20 SWAP1 PUSH2 0x24B4 SWAP3 DUP3 PUSH1 0x40 MLOAD SWAP5 DUP4 DUP7 DUP1 SWAP6 MLOAD SWAP4 DUP5 SWAP3 ADD PUSH2 0x2454 JUMP JUMPDEST DUP3 ADD SWAP1 DUP2 MSTORE SUB ADD SWAP1 KECCAK256 SWAP1 JUMP JUMPDEST PUSH1 0x20 SWAP1 DUP2 PUSH1 0x40 DUP2 DUP4 ADD SWAP3 DUP3 DUP2 MSTORE DUP6 MLOAD DUP1 SWAP5 MSTORE ADD SWAP4 ADD SWAP2 PUSH0 JUMPDEST DUP3 DUP2 LT PUSH2 0x24E6 JUMPI POP POP POP POP SWAP1 JUMP JUMPDEST DUP4 MLOAD PUSH1 0x1 PUSH1 0x1 PUSH1 0xA0 SHL SUB AND DUP6 MSTORE SWAP4 DUP2 ADD SWAP4 SWAP3 DUP2 ADD SWAP3 PUSH1 0x1 ADD PUSH2 0x24D8 JUMP JUMPDEST SWAP1 DUP2 PUSH1 0x20 SWAP2 SUB SLT PUSH2 0x2210 JUMPI MLOAD PUSH1 0x1 PUSH1 0x1 PUSH1 0xA0 SHL SUB DUP2 AND DUP2 SUB PUSH2 0x2210 JUMPI SWAP1 JUMP JUMPDEST SWAP1 DUP2 PUSH1 0x20 SWAP2 SUB SLT PUSH2 0x2210 JUMPI MLOAD DUP1 ISZERO ISZERO DUP2 SUB PUSH2 0x2210 JUMPI SWAP1 JUMP JUMPDEST ISZERO PUSH2 0x2541 JUMPI JUMP JUMPDEST PUSH1 0x40 MLOAD PUSH3 0x461BCD PUSH1 0xE5 SHL DUP2 MSTORE PUSH1 0x20 PUSH1 0x4 DUP3 ADD MSTORE PUSH1 0x22 PUSH1 0x24 DUP3 ADD MSTORE PUSH32 0x5468697320636F6D6D756E697479206973206E6F7420696E76697465206F6E6C PUSH1 0x44 DUP3 ADD MSTORE PUSH2 0x3C97 PUSH1 0xF1 SHL PUSH1 0x64 DUP3 ADD MSTORE PUSH1 0x84 SWAP1 REVERT JUMPDEST PUSH2 0x25A9 SWAP1 PUSH1 0x20 PUSH1 0x40 MLOAD SWAP3 DUP3 DUP5 DUP1 SWAP5 MLOAD SWAP4 DUP5 SWAP3 ADD PUSH2 0x2454 JUMP JUMPDEST DUP2 ADD SUB SWAP1 KECCAK256 SWAP1 JUMP JUMPDEST DUP2 DUP2 LT PUSH2 0x25BC JUMPI POP POP JUMP JUMPDEST PUSH0 DUP2 SSTORE PUSH1 0x1 ADD PUSH2 0x25B1 JUMP JUMPDEST SWAP2 SWAP1 PUSH1 0x1F DUP2 GT PUSH2 0x25D6 JUMPI POP POP POP JUMP JUMPDEST PUSH2 0x23EF SWAP3 PUSH0 MSTORE PUSH1 0x20 PUSH0 KECCAK256 SWAP1 PUSH1 0x20 PUSH1 0x1F DUP5 ADD PUSH1 0x5 SHR DUP4 ADD SWAP4 LT PUSH2 0x2600 JUMPI JUMPDEST PUSH1 0x1F ADD PUSH1 0x5 SHR ADD SWAP1 PUSH2 0x25B1 JUMP JUMPDEST SWAP1 SWAP2 POP DUP2 SWAP1 PUSH2 0x25F3 JUMP JUMPDEST DUP1 SLOAD PUSH1 0x1 PUSH1 0x40 SHL DUP2 LT ISZERO PUSH2 0x2245 JUMPI PUSH2 0x142D SWAP2 PUSH1 0x1 DUP3 ADD DUP2 SSTORE PUSH2 0x2352 JUMP JUMPDEST DUP1 SLOAD SWAP2 SWAP1 PUSH1 0x1 PUSH1 0x40 SHL DUP4 LT ISZERO PUSH2 0x2245 JUMPI DUP3 PUSH2 0x148D SWAP2 PUSH1 0x1 PUSH2 0x23EF SWAP6 ADD DUP2 SSTORE PUSH2 0x2352 JUMP JUMPDEST ISZERO PUSH2 0x2651 JUMPI JUMP JUMPDEST PUSH1 0x40 MLOAD PUSH3 0x461BCD PUSH1 0xE5 SHL DUP2 MSTORE PUSH1 0x20 PUSH1 0x4 DUP3 ADD MSTORE PUSH1 0x18 PUSH1 0x24 DUP3 ADD MSTORE PUSH24 0x10DBDB5B5D5B9A5D1E48111BD95CC8139BDD08115E1A5CDD PUSH1 0x42 SHL PUSH1 0x44 DUP3 ADD MSTORE PUSH1 0x64 SWAP1 REVERT JUMPDEST SWAP1 DUP1 DUP3 EQ PUSH2 0x2767 JUMPI PUSH2 0x26A3 DUP2 SLOAD PUSH2 0x237B JUMP JUMPDEST SWAP1 PUSH1 0x1 PUSH1 0x1 PUSH1 0x40 SHL SUB DUP3 GT PUSH2 0x2245 JUMPI DUP2 SWAP1 PUSH2 0x26C8 DUP3 PUSH2 0x26C2 DUP7 SLOAD PUSH2 0x237B JUMP JUMPDEST DUP7 PUSH2 0x25C7 JUMP JUMPDEST PUSH0 SWAP1 PUSH1 0x1F DUP4 GT PUSH1 0x1 EQ PUSH2 0x26FC JUMPI PUSH0 SWAP3 PUSH2 0x26F1 JUMPI JUMPDEST POP POP DUP2 PUSH1 0x1 SHL SWAP2 PUSH0 NOT SWAP1 PUSH1 0x3 SHL SHR NOT AND OR SWAP1 SSTORE JUMP JUMPDEST ADD SLOAD SWAP1 POP PUSH0 DUP1 PUSH2 0x26DC JUMP JUMPDEST DUP2 MSTORE PUSH1 0x20 DUP1 DUP3 KECCAK256 DUP6 DUP4 MSTORE DUP2 DUP4 KECCAK256 SWAP4 POP SWAP1 PUSH1 0x1F NOT DUP6 AND SWAP1 DUP4 SWAP1 JUMPDEST DUP3 DUP3 LT PUSH2 0x274E JUMPI POP POP SWAP1 DUP5 PUSH1 0x1 SWAP6 SWAP5 SWAP4 SWAP3 LT PUSH2 0x2736 JUMPI JUMPDEST POP POP POP DUP2 SHL ADD SWAP1 SSTORE JUMP JUMPDEST ADD SLOAD PUSH0 NOT PUSH1 0xF8 DUP5 PUSH1 0x3 SHL AND SHR NOT AND SWAP1 SSTORE PUSH0 DUP1 DUP1 PUSH2 0x272C JUMP JUMPDEST DUP5 SWAP6 DUP2 SWAP3 SWAP6 DUP6 ADD SLOAD DUP2 SSTORE PUSH1 0x1 DUP1 SWAP2 ADD SWAP7 ADD SWAP5 ADD SWAP1 PUSH2 0x2715 JUMP JUMPDEST POP POP JUMP JUMPDEST ISZERO PUSH2 0x2772 JUMPI JUMP JUMPDEST PUSH1 0x40 MLOAD PUSH3 0x461BCD PUSH1 0xE5 SHL DUP2 MSTORE PUSH1 0x20 PUSH1 0x4 DUP3 ADD MSTORE PUSH1 0x15 PUSH1 0x24 DUP3 ADD MSTORE PUSH21 0x2CB7BA9030B932903737BA10309036B2B6B132B917 PUSH1 0x59 SHL PUSH1 0x44 DUP3 ADD MSTORE PUSH1 0x64 SWAP1 REVERT JUMPDEST ISZERO PUSH2 0x27B6 JUMPI JUMP JUMPDEST PUSH1 0x40 MLOAD PUSH3 0x461BCD PUSH1 0xE5 SHL DUP2 MSTORE PUSH1 0x20 PUSH1 0x4 DUP3 ADD MSTORE PUSH1 0x11 PUSH1 0x24 DUP3 ADD MSTORE PUSH17 0x546172676574206D656D62657220444E45 PUSH1 0x78 SHL PUSH1 0x44 DUP3 ADD MSTORE PUSH1 0x64 SWAP1 REVERT JUMPDEST ISZERO PUSH2 0x27F6 JUMPI JUMP JUMPDEST PUSH1 0x40 MLOAD PUSH3 0x461BCD PUSH1 0xE5 SHL DUP2 MSTORE PUSH1 0x20 PUSH1 0x4 DUP3 ADD MSTORE PUSH1 0x1A PUSH1 0x24 DUP3 ADD MSTORE PUSH32 0x596F752063616E6E6F742065646974206F776E2063726564732E000000000000 PUSH1 0x44 DUP3 ADD MSTORE PUSH1 0x64 SWAP1 REVERT JUMPDEST ISZERO PUSH2 0x2842 JUMPI JUMP JUMPDEST PUSH1 0x40 MLOAD PUSH3 0x461BCD PUSH1 0xE5 SHL DUP2 MSTORE PUSH1 0x20 PUSH1 0x4 DUP3 ADD MSTORE PUSH1 0x26 PUSH1 0x24 DUP3 ADD MSTORE PUSH32 0x436F6D6D6D756E6974792055736573206120637265642061636365737320636F PUSH1 0x44 DUP3 ADD MSTORE PUSH6 0x1B9D1C9858DD PUSH1 0xD2 SHL PUSH1 0x64 DUP3 ADD MSTORE PUSH1 0x84 SWAP1 REVERT JUMPDEST ISZERO PUSH2 0x289D JUMPI JUMP JUMPDEST PUSH1 0x40 MLOAD PUSH3 0x461BCD PUSH1 0xE5 SHL DUP2 MSTORE PUSH1 0x20 PUSH1 0x4 DUP3 ADD MSTORE PUSH1 0x2B PUSH1 0x24 DUP3 ADD MSTORE PUSH32 0x596F7527766520616C726561647920676976656E2061206372656420746F2074 PUSH1 0x44 DUP3 ADD MSTORE PUSH11 0x3434B99036B2B6B132B917 PUSH1 0xA9 SHL PUSH1 0x64 DUP3 ADD MSTORE PUSH1 0x84 SWAP1 REVERT JUMPDEST SWAP1 DUP2 PUSH0 SUB SWAP2 DUP1 DUP4 SDIV PUSH0 NOT EQ SWAP1 ISZERO OR ISZERO PUSH2 0x290B JUMPI JUMP JUMPDEST PUSH4 0x4E487B71 PUSH1 0xE0 SHL PUSH0 MSTORE PUSH1 0x11 PUSH1 0x4 MSTORE PUSH1 0x24 PUSH0 REVERT JUMPDEST SWAP1 DUP2 ISZERO PUSH1 0x1 DUP4 DUP1 SDIV EQ OR ISZERO PUSH2 0x290B JUMPI JUMP JUMPDEST PUSH1 0x1 PUSH1 0x1 PUSH1 0xA0 SHL SUB AND PUSH0 SWAP1 DUP2 MSTORE PUSH1 0x20 DUP2 SWAP1 MSTORE PUSH1 0x40 SWAP1 KECCAK256 PUSH1 0x4 SWAP2 PUSH2 0x2953 SWAP2 SWAP1 PUSH2 0x249A JUMP JUMPDEST ADD SLOAD PUSH2 0x295D JUMPI PUSH0 SWAP1 JUMP JUMPDEST PUSH1 0x1 SWAP1 JUMP JUMPDEST PUSH1 0x1 PUSH1 0x1 PUSH1 0xA0 SHL SUB SWAP1 DUP2 AND PUSH0 SWAP1 DUP2 MSTORE PUSH1 0x20 DUP2 SWAP1 MSTORE PUSH1 0x40 DUP2 KECCAK256 SWAP1 SWAP4 SWAP3 PUSH1 0x1 SWAP2 PUSH2 0x2989 SWAP2 PUSH2 0x249A JUMP JUMPDEST SWAP2 SWAP1 SWAP3 AND DUP4 MSTORE ADD PUSH1 0x20 MSTORE PUSH1 0x40 DUP2 KECCAK256 SLOAD ISZERO PUSH2 0x230E JUMPI POP PUSH1 0x1 SWAP1 JUMP INVALID NOT JUMP 0xA9 CODECOPY 0xE1 SWAP7 BALANCE 0x27 0xA6 DUP1 0x2B 0xC7 0xDF 0xF8 0xC4 EXTCODEHASH SWAP12 0xC5 MLOAD LOG0 0xBF SWAP8 0xEF 0xC6 GT PUSH17 0x6570E4108402A2646970667358221220EA 0xC6 PUSH27 0x89F38DA1C9E5AD8CC022356DAA1A30078DFD42770D3F98BF4880E4 DUP16 RETURNDATASIZE PUSH5 0x736F6C6343 STOP ADDMOD EQ STOP CALLER "},"methodIdentifiers":{"addNegCredsToMember(string,address)":"99d03bf2","addPosCredsToMember(string,address)":"b66fdab4","addSelfAsMember(string)":"5450fdd5","communityContract()":"8e634029","contractSetCred(string,address,int256)":"bf2a3b74","getIsInvited(address,string)":"e636f314","getIsMember(address,string)":"b091c546","getMemberCommunities(address)":"bf7cb216","getMemberCredIndex(address,address,string)":"9c419dc9","getMemberCreds(address,string)":"02b5df59","getMemberNegCredsList(address,string)":"fbc3d96c","getMemberPosCredsList(address,string)":"f3faf99a","hasMemberGivenCred(address,string,address)":"c783acb4","inviteMember(string,address)":"cdb43ea4","isInvited(string,address)":"a4828578","memberCommunities(address,uint256)":"6255de33","removeNegCredsFromMember(string,address)":"4f64aedd","removePosCredsFromMember(string,address)":"8c5956c4","removeSelfAsMember(string)":"ca4f880b","setlearntgetherCommunities(address)":"19f553e2","uninviteMember(string,address)":"6b039bb4"}}}}}