{"contracts/learntgetherMemberInfo.sol":{"learntgetherMembersInfo":{"abi":[{"inputs":[],"stateMutability":"nonpayable","type":"constructor"},{"anonymous":false,"inputs":[{"indexed":true,"internalType":"address","name":"memberAddress","type":"address"},{"indexed":true,"internalType":"string","name":"name","type":"string"},{"indexed":false,"internalType":"string","name":"description","type":"string"},{"indexed":false,"internalType":"string[]","name":"degrees","type":"string[]"},{"indexed":false,"internalType":"string[]","name":"awards","type":"string[]"},{"indexed":false,"internalType":"string","name":"endpoint","type":"string"}],"name":"MemberInfo","type":"event"},{"inputs":[{"internalType":"address","name":"","type":"address"}],"name":"MembersInfo","outputs":[{"internalType":"string","name":"name","type":"string"},{"internalType":"string","name":"description","type":"string"},{"internalType":"string","name":"endpoint","type":"string"}],"stateMutability":"view","type":"function"},{"inputs":[{"internalType":"address","name":"_address","type":"address"}],"name":"getMemberInfo","outputs":[{"internalType":"string","name":"_name","type":"string"},{"internalType":"string","name":"_description","type":"string"},{"internalType":"string[]","name":"_degrees","type":"string[]"},{"internalType":"string[]","name":"_awards","type":"string[]"},{"internalType":"string","name":"_endpoint","type":"string"}],"stateMutability":"view","type":"function"},{"inputs":[{"internalType":"string","name":"","type":"string"},{"internalType":"address","name":"","type":"address"}],"name":"isInvited","outputs":[{"internalType":"bool","name":"","type":"bool"}],"stateMutability":"view","type":"function"},{"inputs":[{"internalType":"string","name":"_name","type":"string"},{"internalType":"string","name":"_description","type":"string"},{"internalType":"string[]","name":"_degrees","type":"string[]"},{"internalType":"string[]","name":"_awards","type":"string[]"},{"internalType":"string","name":"_endpoint","type":"string"}],"name":"updateMemberInfo","outputs":[],"stateMutability":"nonpayable","type":"function"}],"evm":{"bytecode":{"linkReferences":{},"object":"6080806040523461002857600180546001600160a01b03191633179055610d67908161002d8239f35b5f80fdfe60806040526004361015610011575f80fd5b5f3560e01c80635f1231ea146109675780638cddee081461015857806392a1b23b146100cc5763a482857814610045575f80fd5b346100c85760403660031901126100c8576004356001600160401b0381116100c857610075903690600401610b02565b6024356001600160a01b03811691908290036100c85760206100a4918160405193828580945193849201610a40565b81016002815203019020905f52602052602060ff60405f2054166040519015158152f35b5f80fd5b346100c85760203660031901126100c8576001600160a01b036100ed610a2a565b165f525f60205261013860405f2061015461010782610c26565b91610146610123600461011c60018501610c26565b9301610c26565b91604051958695606087526060870190610a61565b908582036020870152610a61565b908382036040850152610a61565b0390f35b346100c85760a03660031901126100c8576004356001600160401b0381116100c857610188903690600401610b02565b6024356001600160401b0381116100c8576101a7903690600401610b02565b6044356001600160401b0381116100c8576101c6903690600401610b6e565b906064356001600160401b0381116100c8576101e6903690600401610b6e565b906084356001600160401b0381116100c857610206903690600401610b02565b91335f525f60205260405f2085516001600160401b03811161050f5761022c8254610bee565b601f8111610937575b50806020601f82116001146108d3575f916108c8575b508160011b915f199060031b1c19161790555b335f525f602052600160405f200182516001600160401b03811161050f576102868254610bee565b601f8111610898575b50806020601f8211600114610835575f9161082a575b508160011b915f199060031b1c19161790555b335f525f602052600260405f20018451600160401b811161050f5781548183558082106107b9575b5060208601915f5260205f20915f905b8282106106ac5750505050335f525f602052600360405f20018151600160401b811161050f57815481835580821061063b575b5060208301915f5260205f20915f905b8282106105235750505050335f525f602052600460405f2001948351956001600160401b03871161050f576103688154610bee565b601f81116104d4575b50602096601f811160011461043c579261040f6103e761042c9461041d948761040199987f981fcfd4e48ae5b4ea31f02a5c5b7b669c510f9fea5c9b39ff7388bee8b8c5c49b9c9d5f91610431575b508160011b915f199060031b1c19161790555b602060405192828480945193849201610a40565b810103902098604051968796608088526080880190610a61565b908682036020880152610a86565b908482036040860152610a86565b82810360608401523395610a61565b0390a3005b90508c01518e6103c0565b601f198116825f5260205f20905f5b8181106104bc575061042c9461041d9460018561040f958c9d9e7f981fcfd4e48ae5b4ea31f02a5c5b7b669c510f9fea5c9b39ff7388bee8b8c5c49d6104019d9c996103e798106104a4575b505050811b0190556103d3565b01515f1960f88460031b161c191690558e808e610497565b888b0151835560209a8b019a6001909301920161044b565b6104ff90825f5260205f20601f8a0160051c81019160208b10610505575b601f0160051c0190610cc7565b87610371565b90915081906104f2565b634e487b7160e01b5f52604160045260245ffd5b80518051906001600160401b03821161050f576105408654610bee565b601f8111610600575b50602090601f83116001146105945792826001949360209386955f92610589575b50505f19600383901b1c191690841b1787555b01940191019092610333565b015190508e8061056a565b90865f5260205f20915f5b601f19851681106105e8575083602093600196938796938794601f198116106105d0575b505050811b01875561057d565b01515f1960f88460031b161c191690558e80806105c3565b9192602060018192868501518155019401920161059f565b61062b90875f5260205f206005601f8601811c82019260208710610631575b601f01901c0190610cc7565b8b610549565b919250829161061f565b825f5260205f20908282015b8183018110610657575050610323565b8061066460019254610bee565b80610671575b5001610647565b601f8111831461068657505f81555b8b61066a565b5f908282526106a3601f60208420920160051c8201858301610cc7565b81835555610680565b80518051906001600160401b03821161050f576106c98654610bee565b601f8111610789575b50602090601f831160011461071d5792826001949360209386955f92610712575b50505f19600383901b1c191690841b1787555b019401910190926102f0565b015190508e806106f3565b90865f5260205f20915f5b601f1985168110610771575083602093600196938796938794601f19811610610759575b505050811b018755610706565b01515f1960f88460031b161c191690558e808061074c565b91926020600181928685015181550194019201610728565b6107b390875f5260205f206005601f8601811c8201926020871061063157601f01901c0190610cc7565b8b6106d2565b825f5260205f20908282015b81830181106107d55750506102e0565b806107e260019254610bee565b806107ef575b50016107c5565b601f8111831461080457505f81555b8b6107e8565b5f90828252610821601f60208420920160051c8201858301610cc7565b818355556107fe565b9050840151886102a5565b9150825f5260205f205f925b601f1983168410610880576001935082601f19811610610868575b5050811b0190556102b8565b8601515f1960f88460031b161c19169055888061085c565b86810151825560209384019360019092019101610841565b6108c290835f5260205f20601f840160051c8101916020851061050557601f0160051c0190610cc7565b8761028f565b90508701518861024b565b5f848152602081209250601f198416905b8a82821061091f5750509083600194939210610907575b5050811b01905561025e565b8901515f1960f88460031b161c1916905588806108fb565b600184956020939584930151815501940192016108e4565b61096190835f5260205f20601f840160051c8101916020851061050557601f0160051c0190610cc7565b87610235565b346100c85760203660031901126100c8576001600160a01b03610988610a2a565b165f525f6020526109f260405f206101546109a282610c26565b91610a1c6109b260018301610c26565b91610a0e6109c260028301610cdd565b610a006109dd60046109d660038701610cdd565b9501610c26565b95604051998a9960a08b5260a08b0190610a61565b9089820360208b0152610a61565b908782036040890152610a86565b908582036060870152610a86565b908382036080850152610a61565b600435906001600160a01b03821682036100c857565b5f5b838110610a515750505f910152565b8181015183820152602001610a42565b90602091610a7a81518092818552858086019101610a40565b601f01601f1916010190565b908082519081815260208091019281808460051b8301019501935f915b848310610ab35750505050505090565b9091929394958480610ad1600193601f198682030187528a51610a61565b9801930193019194939290610aa3565b90601f801991011681019081106001600160401b0382111761050f57604052565b81601f820112156100c8578035906001600160401b03821161050f5760405192610b36601f8401601f191660200185610ae1565b828452602083830101116100c857815f926020809301838601378301015290565b6001600160401b03811161050f5760051b60200190565b9080601f830112156100c857813590610b8682610b57565b92610b946040519485610ae1565b828452602092838086019160051b830101928084116100c857848301915b848310610bc25750505050505090565b82356001600160401b0381116100c8578691610be384848094890101610b02565b815201920191610bb2565b90600182811c92168015610c1c575b6020831014610c0857565b634e487b7160e01b5f52602260045260245ffd5b91607f1691610bfd565b9060405191825f825492610c3984610bee565b9081845260019485811690815f14610ca45750600114610c64575b5050610c6292500383610ae1565b565b909391505f52602090815f20935f915b818310610c8c575050610c6293508201015f80610c54565b85548884018501529485019487945091830191610c74565b915050610c6294506020925060ff191682840152151560051b8201015f80610c54565b818110610cd2575050565b5f8155600101610cc7565b908154610ce981610b57565b92610cf76040519485610ae1565b8184525f90815260208082208186015b848410610d15575050505050565b6001838192610d2385610c26565b815201920193019290610d0756fea2646970667358221220448227b9701c12174189f0d090f1b310ba7ca808388a27bf1fe2e1b4c104e2e264736f6c63430008140033","opcodes":"PUSH1 0x80 DUP1 PUSH1 0x40 MSTORE CALLVALUE PUSH2 0x28 JUMPI PUSH1 0x1 DUP1 SLOAD PUSH1 0x1 PUSH1 0x1 PUSH1 0xA0 SHL SUB NOT AND CALLER OR SWAP1 SSTORE PUSH2 0xD67 SWAP1 DUP2 PUSH2 0x2D DUP3 CODECOPY RETURN JUMPDEST PUSH0 DUP1 REVERT INVALID PUSH1 0x80 PUSH1 0x40 MSTORE PUSH1 0x4 CALLDATASIZE LT ISZERO PUSH2 0x11 JUMPI PUSH0 DUP1 REVERT JUMPDEST PUSH0 CALLDATALOAD PUSH1 0xE0 SHR DUP1 PUSH4 0x5F1231EA EQ PUSH2 0x967 JUMPI DUP1 PUSH4 0x8CDDEE08 EQ PUSH2 0x158 JUMPI DUP1 PUSH4 0x92A1B23B EQ PUSH2 0xCC JUMPI PUSH4 0xA4828578 EQ PUSH2 0x45 JUMPI PUSH0 DUP1 REVERT JUMPDEST CALLVALUE PUSH2 0xC8 JUMPI PUSH1 0x40 CALLDATASIZE PUSH1 0x3 NOT ADD SLT PUSH2 0xC8 JUMPI PUSH1 0x4 CALLDATALOAD PUSH1 0x1 PUSH1 0x1 PUSH1 0x40 SHL SUB DUP2 GT PUSH2 0xC8 JUMPI PUSH2 0x75 SWAP1 CALLDATASIZE SWAP1 PUSH1 0x4 ADD PUSH2 0xB02 JUMP JUMPDEST PUSH1 0x24 CALLDATALOAD PUSH1 0x1 PUSH1 0x1 PUSH1 0xA0 SHL SUB DUP2 AND SWAP2 SWAP1 DUP3 SWAP1 SUB PUSH2 0xC8 JUMPI PUSH1 0x20 PUSH2 0xA4 SWAP2 DUP2 PUSH1 0x40 MLOAD SWAP4 DUP3 DUP6 DUP1 SWAP5 MLOAD SWAP4 DUP5 SWAP3 ADD PUSH2 0xA40 JUMP JUMPDEST DUP2 ADD PUSH1 0x2 DUP2 MSTORE SUB ADD SWAP1 KECCAK256 SWAP1 PUSH0 MSTORE PUSH1 0x20 MSTORE PUSH1 0x20 PUSH1 0xFF PUSH1 0x40 PUSH0 KECCAK256 SLOAD AND PUSH1 0x40 MLOAD SWAP1 ISZERO ISZERO DUP2 MSTORE RETURN JUMPDEST PUSH0 DUP1 REVERT JUMPDEST CALLVALUE PUSH2 0xC8 JUMPI PUSH1 0x20 CALLDATASIZE PUSH1 0x3 NOT ADD SLT PUSH2 0xC8 JUMPI PUSH1 0x1 PUSH1 0x1 PUSH1 0xA0 SHL SUB PUSH2 0xED PUSH2 0xA2A JUMP JUMPDEST AND PUSH0 MSTORE PUSH0 PUSH1 0x20 MSTORE PUSH2 0x138 PUSH1 0x40 PUSH0 KECCAK256 PUSH2 0x154 PUSH2 0x107 DUP3 PUSH2 0xC26 JUMP JUMPDEST SWAP2 PUSH2 0x146 PUSH2 0x123 PUSH1 0x4 PUSH2 0x11C PUSH1 0x1 DUP6 ADD PUSH2 0xC26 JUMP JUMPDEST SWAP4 ADD PUSH2 0xC26 JUMP JUMPDEST SWAP2 PUSH1 0x40 MLOAD SWAP6 DUP7 SWAP6 PUSH1 0x60 DUP8 MSTORE PUSH1 0x60 DUP8 ADD SWAP1 PUSH2 0xA61 JUMP JUMPDEST SWAP1 DUP6 DUP3 SUB PUSH1 0x20 DUP8 ADD MSTORE PUSH2 0xA61 JUMP JUMPDEST SWAP1 DUP4 DUP3 SUB PUSH1 0x40 DUP6 ADD MSTORE PUSH2 0xA61 JUMP JUMPDEST SUB SWAP1 RETURN JUMPDEST CALLVALUE PUSH2 0xC8 JUMPI PUSH1 0xA0 CALLDATASIZE PUSH1 0x3 NOT ADD SLT PUSH2 0xC8 JUMPI PUSH1 0x4 CALLDATALOAD PUSH1 0x1 PUSH1 0x1 PUSH1 0x40 SHL SUB DUP2 GT PUSH2 0xC8 JUMPI PUSH2 0x188 SWAP1 CALLDATASIZE SWAP1 PUSH1 0x4 ADD PUSH2 0xB02 JUMP JUMPDEST PUSH1 0x24 CALLDATALOAD PUSH1 0x1 PUSH1 0x1 PUSH1 0x40 SHL SUB DUP2 GT PUSH2 0xC8 JUMPI PUSH2 0x1A7 SWAP1 CALLDATASIZE SWAP1 PUSH1 0x4 ADD PUSH2 0xB02 JUMP JUMPDEST PUSH1 0x44 CALLDATALOAD PUSH1 0x1 PUSH1 0x1 PUSH1 0x40 SHL SUB DUP2 GT PUSH2 0xC8 JUMPI PUSH2 0x1C6 SWAP1 CALLDATASIZE SWAP1 PUSH1 0x4 ADD PUSH2 0xB6E JUMP JUMPDEST SWAP1 PUSH1 0x64 CALLDATALOAD PUSH1 0x1 PUSH1 0x1 PUSH1 0x40 SHL SUB DUP2 GT PUSH2 0xC8 JUMPI PUSH2 0x1E6 SWAP1 CALLDATASIZE SWAP1 PUSH1 0x4 ADD PUSH2 0xB6E JUMP JUMPDEST SWAP1 PUSH1 0x84 CALLDATALOAD PUSH1 0x1 PUSH1 0x1 PUSH1 0x40 SHL SUB DUP2 GT PUSH2 0xC8 JUMPI PUSH2 0x206 SWAP1 CALLDATASIZE SWAP1 PUSH1 0x4 ADD PUSH2 0xB02 JUMP JUMPDEST SWAP2 CALLER PUSH0 MSTORE PUSH0 PUSH1 0x20 MSTORE PUSH1 0x40 PUSH0 KECCAK256 DUP6 MLOAD PUSH1 0x1 PUSH1 0x1 PUSH1 0x40 SHL SUB DUP2 GT PUSH2 0x50F JUMPI PUSH2 0x22C DUP3 SLOAD PUSH2 0xBEE JUMP JUMPDEST PUSH1 0x1F DUP2 GT PUSH2 0x937 JUMPI JUMPDEST POP DUP1 PUSH1 0x20 PUSH1 0x1F DUP3 GT PUSH1 0x1 EQ PUSH2 0x8D3 JUMPI PUSH0 SWAP2 PUSH2 0x8C8 JUMPI JUMPDEST POP DUP2 PUSH1 0x1 SHL SWAP2 PUSH0 NOT SWAP1 PUSH1 0x3 SHL SHR NOT AND OR SWAP1 SSTORE JUMPDEST CALLER PUSH0 MSTORE PUSH0 PUSH1 0x20 MSTORE PUSH1 0x1 PUSH1 0x40 PUSH0 KECCAK256 ADD DUP3 MLOAD PUSH1 0x1 PUSH1 0x1 PUSH1 0x40 SHL SUB DUP2 GT PUSH2 0x50F JUMPI PUSH2 0x286 DUP3 SLOAD PUSH2 0xBEE JUMP JUMPDEST PUSH1 0x1F DUP2 GT PUSH2 0x898 JUMPI JUMPDEST POP DUP1 PUSH1 0x20 PUSH1 0x1F DUP3 GT PUSH1 0x1 EQ PUSH2 0x835 JUMPI PUSH0 SWAP2 PUSH2 0x82A JUMPI JUMPDEST POP DUP2 PUSH1 0x1 SHL SWAP2 PUSH0 NOT SWAP1 PUSH1 0x3 SHL SHR NOT AND OR SWAP1 SSTORE JUMPDEST CALLER PUSH0 MSTORE PUSH0 PUSH1 0x20 MSTORE PUSH1 0x2 PUSH1 0x40 PUSH0 KECCAK256 ADD DUP5 MLOAD PUSH1 0x1 PUSH1 0x40 SHL DUP2 GT PUSH2 0x50F JUMPI DUP2 SLOAD DUP2 DUP4 SSTORE DUP1 DUP3 LT PUSH2 0x7B9 JUMPI JUMPDEST POP PUSH1 0x20 DUP7 ADD SWAP2 PUSH0 MSTORE PUSH1 0x20 PUSH0 KECCAK256 SWAP2 PUSH0 SWAP1 JUMPDEST DUP3 DUP3 LT PUSH2 0x6AC JUMPI POP POP POP POP CALLER PUSH0 MSTORE PUSH0 PUSH1 0x20 MSTORE PUSH1 0x3 PUSH1 0x40 PUSH0 KECCAK256 ADD DUP2 MLOAD PUSH1 0x1 PUSH1 0x40 SHL DUP2 GT PUSH2 0x50F JUMPI DUP2 SLOAD DUP2 DUP4 SSTORE DUP1 DUP3 LT PUSH2 0x63B JUMPI JUMPDEST POP PUSH1 0x20 DUP4 ADD SWAP2 PUSH0 MSTORE PUSH1 0x20 PUSH0 KECCAK256 SWAP2 PUSH0 SWAP1 JUMPDEST DUP3 DUP3 LT PUSH2 0x523 JUMPI POP POP POP POP CALLER PUSH0 MSTORE PUSH0 PUSH1 0x20 MSTORE PUSH1 0x4 PUSH1 0x40 PUSH0 KECCAK256 ADD SWAP5 DUP4 MLOAD SWAP6 PUSH1 0x1 PUSH1 0x1 PUSH1 0x40 SHL SUB DUP8 GT PUSH2 0x50F JUMPI PUSH2 0x368 DUP2 SLOAD PUSH2 0xBEE JUMP JUMPDEST PUSH1 0x1F DUP2 GT PUSH2 0x4D4 JUMPI JUMPDEST POP PUSH1 0x20 SWAP7 PUSH1 0x1F DUP2 GT PUSH1 0x1 EQ PUSH2 0x43C JUMPI SWAP3 PUSH2 0x40F PUSH2 0x3E7 PUSH2 0x42C SWAP5 PUSH2 0x41D SWAP5 DUP8 PUSH2 0x401 SWAP10 SWAP9 PUSH32 0x981FCFD4E48AE5B4EA31F02A5C5B7B669C510F9FEA5C9B39FF7388BEE8B8C5C4 SWAP12 SWAP13 SWAP14 PUSH0 SWAP2 PUSH2 0x431 JUMPI JUMPDEST POP DUP2 PUSH1 0x1 SHL SWAP2 PUSH0 NOT SWAP1 PUSH1 0x3 SHL SHR NOT AND OR SWAP1 SSTORE JUMPDEST PUSH1 0x20 PUSH1 0x40 MLOAD SWAP3 DUP3 DUP5 DUP1 SWAP5 MLOAD SWAP4 DUP5 SWAP3 ADD PUSH2 0xA40 JUMP JUMPDEST DUP2 ADD SUB SWAP1 KECCAK256 SWAP9 PUSH1 0x40 MLOAD SWAP7 DUP8 SWAP7 PUSH1 0x80 DUP9 MSTORE PUSH1 0x80 DUP9 ADD SWAP1 PUSH2 0xA61 JUMP JUMPDEST SWAP1 DUP7 DUP3 SUB PUSH1 0x20 DUP9 ADD MSTORE PUSH2 0xA86 JUMP JUMPDEST SWAP1 DUP5 DUP3 SUB PUSH1 0x40 DUP7 ADD MSTORE PUSH2 0xA86 JUMP JUMPDEST DUP3 DUP2 SUB PUSH1 0x60 DUP5 ADD MSTORE CALLER SWAP6 PUSH2 0xA61 JUMP JUMPDEST SUB SWAP1 LOG3 STOP JUMPDEST SWAP1 POP DUP13 ADD MLOAD DUP15 PUSH2 0x3C0 JUMP JUMPDEST PUSH1 0x1F NOT DUP2 AND DUP3 PUSH0 MSTORE PUSH1 0x20 PUSH0 KECCAK256 SWAP1 PUSH0 JUMPDEST DUP2 DUP2 LT PUSH2 0x4BC JUMPI POP PUSH2 0x42C SWAP5 PUSH2 0x41D SWAP5 PUSH1 0x1 DUP6 PUSH2 0x40F SWAP6 DUP13 SWAP14 SWAP15 PUSH32 0x981FCFD4E48AE5B4EA31F02A5C5B7B669C510F9FEA5C9B39FF7388BEE8B8C5C4 SWAP14 PUSH2 0x401 SWAP14 SWAP13 SWAP10 PUSH2 0x3E7 SWAP9 LT PUSH2 0x4A4 JUMPI JUMPDEST POP POP POP DUP2 SHL ADD SWAP1 SSTORE PUSH2 0x3D3 JUMP JUMPDEST ADD MLOAD PUSH0 NOT PUSH1 0xF8 DUP5 PUSH1 0x3 SHL AND SHR NOT AND SWAP1 SSTORE DUP15 DUP1 DUP15 PUSH2 0x497 JUMP JUMPDEST DUP9 DUP12 ADD MLOAD DUP4 SSTORE PUSH1 0x20 SWAP11 DUP12 ADD SWAP11 PUSH1 0x1 SWAP1 SWAP4 ADD SWAP3 ADD PUSH2 0x44B JUMP JUMPDEST PUSH2 0x4FF SWAP1 DUP3 PUSH0 MSTORE PUSH1 0x20 PUSH0 KECCAK256 PUSH1 0x1F DUP11 ADD PUSH1 0x5 SHR DUP2 ADD SWAP2 PUSH1 0x20 DUP12 LT PUSH2 0x505 JUMPI JUMPDEST PUSH1 0x1F ADD PUSH1 0x5 SHR ADD SWAP1 PUSH2 0xCC7 JUMP JUMPDEST DUP8 PUSH2 0x371 JUMP JUMPDEST SWAP1 SWAP2 POP DUP2 SWAP1 PUSH2 0x4F2 JUMP JUMPDEST PUSH4 0x4E487B71 PUSH1 0xE0 SHL PUSH0 MSTORE PUSH1 0x41 PUSH1 0x4 MSTORE PUSH1 0x24 PUSH0 REVERT JUMPDEST DUP1 MLOAD DUP1 MLOAD SWAP1 PUSH1 0x1 PUSH1 0x1 PUSH1 0x40 SHL SUB DUP3 GT PUSH2 0x50F JUMPI PUSH2 0x540 DUP7 SLOAD PUSH2 0xBEE JUMP JUMPDEST PUSH1 0x1F DUP2 GT PUSH2 0x600 JUMPI JUMPDEST POP PUSH1 0x20 SWAP1 PUSH1 0x1F DUP4 GT PUSH1 0x1 EQ PUSH2 0x594 JUMPI SWAP3 DUP3 PUSH1 0x1 SWAP5 SWAP4 PUSH1 0x20 SWAP4 DUP7 SWAP6 PUSH0 SWAP3 PUSH2 0x589 JUMPI JUMPDEST POP POP PUSH0 NOT PUSH1 0x3 DUP4 SWAP1 SHL SHR NOT AND SWAP1 DUP5 SHL OR DUP8 SSTORE JUMPDEST ADD SWAP5 ADD SWAP2 ADD SWAP1 SWAP3 PUSH2 0x333 JUMP JUMPDEST ADD MLOAD SWAP1 POP DUP15 DUP1 PUSH2 0x56A JUMP JUMPDEST SWAP1 DUP7 PUSH0 MSTORE PUSH1 0x20 PUSH0 KECCAK256 SWAP2 PUSH0 JUMPDEST PUSH1 0x1F NOT DUP6 AND DUP2 LT PUSH2 0x5E8 JUMPI POP DUP4 PUSH1 0x20 SWAP4 PUSH1 0x1 SWAP7 SWAP4 DUP8 SWAP7 SWAP4 DUP8 SWAP5 PUSH1 0x1F NOT DUP2 AND LT PUSH2 0x5D0 JUMPI JUMPDEST POP POP POP DUP2 SHL ADD DUP8 SSTORE PUSH2 0x57D JUMP JUMPDEST ADD MLOAD PUSH0 NOT PUSH1 0xF8 DUP5 PUSH1 0x3 SHL AND SHR NOT AND SWAP1 SSTORE DUP15 DUP1 DUP1 PUSH2 0x5C3 JUMP JUMPDEST SWAP2 SWAP3 PUSH1 0x20 PUSH1 0x1 DUP2 SWAP3 DUP7 DUP6 ADD MLOAD DUP2 SSTORE ADD SWAP5 ADD SWAP3 ADD PUSH2 0x59F JUMP JUMPDEST PUSH2 0x62B SWAP1 DUP8 PUSH0 MSTORE PUSH1 0x20 PUSH0 KECCAK256 PUSH1 0x5 PUSH1 0x1F DUP7 ADD DUP2 SHR DUP3 ADD SWAP3 PUSH1 0x20 DUP8 LT PUSH2 0x631 JUMPI JUMPDEST PUSH1 0x1F ADD SWAP1 SHR ADD SWAP1 PUSH2 0xCC7 JUMP JUMPDEST DUP12 PUSH2 0x549 JUMP JUMPDEST SWAP2 SWAP3 POP DUP3 SWAP2 PUSH2 0x61F JUMP JUMPDEST DUP3 PUSH0 MSTORE PUSH1 0x20 PUSH0 KECCAK256 SWAP1 DUP3 DUP3 ADD JUMPDEST DUP2 DUP4 ADD DUP2 LT PUSH2 0x657 JUMPI POP POP PUSH2 0x323 JUMP JUMPDEST DUP1 PUSH2 0x664 PUSH1 0x1 SWAP3 SLOAD PUSH2 0xBEE JUMP JUMPDEST DUP1 PUSH2 0x671 JUMPI JUMPDEST POP ADD PUSH2 0x647 JUMP JUMPDEST PUSH1 0x1F DUP2 GT DUP4 EQ PUSH2 0x686 JUMPI POP PUSH0 DUP2 SSTORE JUMPDEST DUP12 PUSH2 0x66A JUMP JUMPDEST PUSH0 SWAP1 DUP3 DUP3 MSTORE PUSH2 0x6A3 PUSH1 0x1F PUSH1 0x20 DUP5 KECCAK256 SWAP3 ADD PUSH1 0x5 SHR DUP3 ADD DUP6 DUP4 ADD PUSH2 0xCC7 JUMP JUMPDEST DUP2 DUP4 SSTORE SSTORE PUSH2 0x680 JUMP JUMPDEST DUP1 MLOAD DUP1 MLOAD SWAP1 PUSH1 0x1 PUSH1 0x1 PUSH1 0x40 SHL SUB DUP3 GT PUSH2 0x50F JUMPI PUSH2 0x6C9 DUP7 SLOAD PUSH2 0xBEE JUMP JUMPDEST PUSH1 0x1F DUP2 GT PUSH2 0x789 JUMPI JUMPDEST POP PUSH1 0x20 SWAP1 PUSH1 0x1F DUP4 GT PUSH1 0x1 EQ PUSH2 0x71D JUMPI SWAP3 DUP3 PUSH1 0x1 SWAP5 SWAP4 PUSH1 0x20 SWAP4 DUP7 SWAP6 PUSH0 SWAP3 PUSH2 0x712 JUMPI JUMPDEST POP POP PUSH0 NOT PUSH1 0x3 DUP4 SWAP1 SHL SHR NOT AND SWAP1 DUP5 SHL OR DUP8 SSTORE JUMPDEST ADD SWAP5 ADD SWAP2 ADD SWAP1 SWAP3 PUSH2 0x2F0 JUMP JUMPDEST ADD MLOAD SWAP1 POP DUP15 DUP1 PUSH2 0x6F3 JUMP JUMPDEST SWAP1 DUP7 PUSH0 MSTORE PUSH1 0x20 PUSH0 KECCAK256 SWAP2 PUSH0 JUMPDEST PUSH1 0x1F NOT DUP6 AND DUP2 LT PUSH2 0x771 JUMPI POP DUP4 PUSH1 0x20 SWAP4 PUSH1 0x1 SWAP7 SWAP4 DUP8 SWAP7 SWAP4 DUP8 SWAP5 PUSH1 0x1F NOT DUP2 AND LT PUSH2 0x759 JUMPI JUMPDEST POP POP POP DUP2 SHL ADD DUP8 SSTORE PUSH2 0x706 JUMP JUMPDEST ADD MLOAD PUSH0 NOT PUSH1 0xF8 DUP5 PUSH1 0x3 SHL AND SHR NOT AND SWAP1 SSTORE DUP15 DUP1 DUP1 PUSH2 0x74C JUMP JUMPDEST SWAP2 SWAP3 PUSH1 0x20 PUSH1 0x1 DUP2 SWAP3 DUP7 DUP6 ADD MLOAD DUP2 SSTORE ADD SWAP5 ADD SWAP3 ADD PUSH2 0x728 JUMP JUMPDEST PUSH2 0x7B3 SWAP1 DUP8 PUSH0 MSTORE PUSH1 0x20 PUSH0 KECCAK256 PUSH1 0x5 PUSH1 0x1F DUP7 ADD DUP2 SHR DUP3 ADD SWAP3 PUSH1 0x20 DUP8 LT PUSH2 0x631 JUMPI PUSH1 0x1F ADD SWAP1 SHR ADD SWAP1 PUSH2 0xCC7 JUMP JUMPDEST DUP12 PUSH2 0x6D2 JUMP JUMPDEST DUP3 PUSH0 MSTORE PUSH1 0x20 PUSH0 KECCAK256 SWAP1 DUP3 DUP3 ADD JUMPDEST DUP2 DUP4 ADD DUP2 LT PUSH2 0x7D5 JUMPI POP POP PUSH2 0x2E0 JUMP JUMPDEST DUP1 PUSH2 0x7E2 PUSH1 0x1 SWAP3 SLOAD PUSH2 0xBEE JUMP JUMPDEST DUP1 PUSH2 0x7EF JUMPI JUMPDEST POP ADD PUSH2 0x7C5 JUMP JUMPDEST PUSH1 0x1F DUP2 GT DUP4 EQ PUSH2 0x804 JUMPI POP PUSH0 DUP2 SSTORE JUMPDEST DUP12 PUSH2 0x7E8 JUMP JUMPDEST PUSH0 SWAP1 DUP3 DUP3 MSTORE PUSH2 0x821 PUSH1 0x1F PUSH1 0x20 DUP5 KECCAK256 SWAP3 ADD PUSH1 0x5 SHR DUP3 ADD DUP6 DUP4 ADD PUSH2 0xCC7 JUMP JUMPDEST DUP2 DUP4 SSTORE SSTORE PUSH2 0x7FE JUMP JUMPDEST SWAP1 POP DUP5 ADD MLOAD DUP9 PUSH2 0x2A5 JUMP JUMPDEST SWAP2 POP DUP3 PUSH0 MSTORE PUSH1 0x20 PUSH0 KECCAK256 PUSH0 SWAP3 JUMPDEST PUSH1 0x1F NOT DUP4 AND DUP5 LT PUSH2 0x880 JUMPI PUSH1 0x1 SWAP4 POP DUP3 PUSH1 0x1F NOT DUP2 AND LT PUSH2 0x868 JUMPI JUMPDEST POP POP DUP2 SHL ADD SWAP1 SSTORE PUSH2 0x2B8 JUMP JUMPDEST DUP7 ADD MLOAD PUSH0 NOT PUSH1 0xF8 DUP5 PUSH1 0x3 SHL AND SHR NOT AND SWAP1 SSTORE DUP9 DUP1 PUSH2 0x85C JUMP JUMPDEST DUP7 DUP2 ADD MLOAD DUP3 SSTORE PUSH1 0x20 SWAP4 DUP5 ADD SWAP4 PUSH1 0x1 SWAP1 SWAP3 ADD SWAP2 ADD PUSH2 0x841 JUMP JUMPDEST PUSH2 0x8C2 SWAP1 DUP4 PUSH0 MSTORE PUSH1 0x20 PUSH0 KECCAK256 PUSH1 0x1F DUP5 ADD PUSH1 0x5 SHR DUP2 ADD SWAP2 PUSH1 0x20 DUP6 LT PUSH2 0x505 JUMPI PUSH1 0x1F ADD PUSH1 0x5 SHR ADD SWAP1 PUSH2 0xCC7 JUMP JUMPDEST DUP8 PUSH2 0x28F JUMP JUMPDEST SWAP1 POP DUP8 ADD MLOAD DUP9 PUSH2 0x24B JUMP JUMPDEST PUSH0 DUP5 DUP2 MSTORE PUSH1 0x20 DUP2 KECCAK256 SWAP3 POP PUSH1 0x1F NOT DUP5 AND SWAP1 JUMPDEST DUP11 DUP3 DUP3 LT PUSH2 0x91F JUMPI POP POP SWAP1 DUP4 PUSH1 0x1 SWAP5 SWAP4 SWAP3 LT PUSH2 0x907 JUMPI JUMPDEST POP POP DUP2 SHL ADD SWAP1 SSTORE PUSH2 0x25E JUMP JUMPDEST DUP10 ADD MLOAD PUSH0 NOT PUSH1 0xF8 DUP5 PUSH1 0x3 SHL AND SHR NOT AND SWAP1 SSTORE DUP9 DUP1 PUSH2 0x8FB JUMP JUMPDEST PUSH1 0x1 DUP5 SWAP6 PUSH1 0x20 SWAP4 SWAP6 DUP5 SWAP4 ADD MLOAD DUP2 SSTORE ADD SWAP5 ADD SWAP3 ADD PUSH2 0x8E4 JUMP JUMPDEST PUSH2 0x961 SWAP1 DUP4 PUSH0 MSTORE PUSH1 0x20 PUSH0 KECCAK256 PUSH1 0x1F DUP5 ADD PUSH1 0x5 SHR DUP2 ADD SWAP2 PUSH1 0x20 DUP6 LT PUSH2 0x505 JUMPI PUSH1 0x1F ADD PUSH1 0x5 SHR ADD SWAP1 PUSH2 0xCC7 JUMP JUMPDEST DUP8 PUSH2 0x235 JUMP JUMPDEST CALLVALUE PUSH2 0xC8 JUMPI PUSH1 0x20 CALLDATASIZE PUSH1 0x3 NOT ADD SLT PUSH2 0xC8 JUMPI PUSH1 0x1 PUSH1 0x1 PUSH1 0xA0 SHL SUB PUSH2 0x988 PUSH2 0xA2A JUMP JUMPDEST AND PUSH0 MSTORE PUSH0 PUSH1 0x20 MSTORE PUSH2 0x9F2 PUSH1 0x40 PUSH0 KECCAK256 PUSH2 0x154 PUSH2 0x9A2 DUP3 PUSH2 0xC26 JUMP JUMPDEST SWAP2 PUSH2 0xA1C PUSH2 0x9B2 PUSH1 0x1 DUP4 ADD PUSH2 0xC26 JUMP JUMPDEST SWAP2 PUSH2 0xA0E PUSH2 0x9C2 PUSH1 0x2 DUP4 ADD PUSH2 0xCDD JUMP JUMPDEST PUSH2 0xA00 PUSH2 0x9DD PUSH1 0x4 PUSH2 0x9D6 PUSH1 0x3 DUP8 ADD PUSH2 0xCDD JUMP JUMPDEST SWAP6 ADD PUSH2 0xC26 JUMP JUMPDEST SWAP6 PUSH1 0x40 MLOAD SWAP10 DUP11 SWAP10 PUSH1 0xA0 DUP12 MSTORE PUSH1 0xA0 DUP12 ADD SWAP1 PUSH2 0xA61 JUMP JUMPDEST SWAP1 DUP10 DUP3 SUB PUSH1 0x20 DUP12 ADD MSTORE PUSH2 0xA61 JUMP JUMPDEST SWAP1 DUP8 DUP3 SUB PUSH1 0x40 DUP10 ADD MSTORE PUSH2 0xA86 JUMP JUMPDEST SWAP1 DUP6 DUP3 SUB PUSH1 0x60 DUP8 ADD MSTORE PUSH2 0xA86 JUMP JUMPDEST SWAP1 DUP4 DUP3 SUB PUSH1 0x80 DUP6 ADD MSTORE PUSH2 0xA61 JUMP JUMPDEST PUSH1 0x4 CALLDATALOAD SWAP1 PUSH1 0x1 PUSH1 0x1 PUSH1 0xA0 SHL SUB DUP3 AND DUP3 SUB PUSH2 0xC8 JUMPI JUMP JUMPDEST PUSH0 JUMPDEST DUP4 DUP2 LT PUSH2 0xA51 JUMPI POP POP PUSH0 SWAP2 ADD MSTORE JUMP JUMPDEST DUP2 DUP2 ADD MLOAD DUP4 DUP3 ADD MSTORE PUSH1 0x20 ADD PUSH2 0xA42 JUMP JUMPDEST SWAP1 PUSH1 0x20 SWAP2 PUSH2 0xA7A DUP2 MLOAD DUP1 SWAP3 DUP2 DUP6 MSTORE DUP6 DUP1 DUP7 ADD SWAP2 ADD PUSH2 0xA40 JUMP JUMPDEST PUSH1 0x1F ADD PUSH1 0x1F NOT AND ADD ADD SWAP1 JUMP JUMPDEST SWAP1 DUP1 DUP3 MLOAD SWAP1 DUP2 DUP2 MSTORE PUSH1 0x20 DUP1 SWAP2 ADD SWAP3 DUP2 DUP1 DUP5 PUSH1 0x5 SHL DUP4 ADD ADD SWAP6 ADD SWAP4 PUSH0 SWAP2 JUMPDEST DUP5 DUP4 LT PUSH2 0xAB3 JUMPI POP POP POP POP POP POP SWAP1 JUMP JUMPDEST SWAP1 SWAP2 SWAP3 SWAP4 SWAP5 SWAP6 DUP5 DUP1 PUSH2 0xAD1 PUSH1 0x1 SWAP4 PUSH1 0x1F NOT DUP7 DUP3 SUB ADD DUP8 MSTORE DUP11 MLOAD PUSH2 0xA61 JUMP JUMPDEST SWAP9 ADD SWAP4 ADD SWAP4 ADD SWAP2 SWAP5 SWAP4 SWAP3 SWAP1 PUSH2 0xAA3 JUMP JUMPDEST SWAP1 PUSH1 0x1F DUP1 NOT SWAP2 ADD AND DUP2 ADD SWAP1 DUP2 LT PUSH1 0x1 PUSH1 0x1 PUSH1 0x40 SHL SUB DUP3 GT OR PUSH2 0x50F JUMPI PUSH1 0x40 MSTORE JUMP JUMPDEST DUP2 PUSH1 0x1F DUP3 ADD SLT ISZERO PUSH2 0xC8 JUMPI DUP1 CALLDATALOAD SWAP1 PUSH1 0x1 PUSH1 0x1 PUSH1 0x40 SHL SUB DUP3 GT PUSH2 0x50F JUMPI PUSH1 0x40 MLOAD SWAP3 PUSH2 0xB36 PUSH1 0x1F DUP5 ADD PUSH1 0x1F NOT AND PUSH1 0x20 ADD DUP6 PUSH2 0xAE1 JUMP JUMPDEST DUP3 DUP5 MSTORE PUSH1 0x20 DUP4 DUP4 ADD ADD GT PUSH2 0xC8 JUMPI DUP2 PUSH0 SWAP3 PUSH1 0x20 DUP1 SWAP4 ADD DUP4 DUP7 ADD CALLDATACOPY DUP4 ADD ADD MSTORE SWAP1 JUMP JUMPDEST PUSH1 0x1 PUSH1 0x1 PUSH1 0x40 SHL SUB DUP2 GT PUSH2 0x50F JUMPI PUSH1 0x5 SHL PUSH1 0x20 ADD SWAP1 JUMP JUMPDEST SWAP1 DUP1 PUSH1 0x1F DUP4 ADD SLT ISZERO PUSH2 0xC8 JUMPI DUP2 CALLDATALOAD SWAP1 PUSH2 0xB86 DUP3 PUSH2 0xB57 JUMP JUMPDEST SWAP3 PUSH2 0xB94 PUSH1 0x40 MLOAD SWAP5 DUP6 PUSH2 0xAE1 JUMP JUMPDEST DUP3 DUP5 MSTORE PUSH1 0x20 SWAP3 DUP4 DUP1 DUP7 ADD SWAP2 PUSH1 0x5 SHL DUP4 ADD ADD SWAP3 DUP1 DUP5 GT PUSH2 0xC8 JUMPI DUP5 DUP4 ADD SWAP2 JUMPDEST DUP5 DUP4 LT PUSH2 0xBC2 JUMPI POP POP POP POP POP POP SWAP1 JUMP JUMPDEST DUP3 CALLDATALOAD PUSH1 0x1 PUSH1 0x1 PUSH1 0x40 SHL SUB DUP2 GT PUSH2 0xC8 JUMPI DUP7 SWAP2 PUSH2 0xBE3 DUP5 DUP5 DUP1 SWAP5 DUP10 ADD ADD PUSH2 0xB02 JUMP JUMPDEST DUP2 MSTORE ADD SWAP3 ADD SWAP2 PUSH2 0xBB2 JUMP JUMPDEST SWAP1 PUSH1 0x1 DUP3 DUP2 SHR SWAP3 AND DUP1 ISZERO PUSH2 0xC1C JUMPI JUMPDEST PUSH1 0x20 DUP4 LT EQ PUSH2 0xC08 JUMPI JUMP JUMPDEST PUSH4 0x4E487B71 PUSH1 0xE0 SHL PUSH0 MSTORE PUSH1 0x22 PUSH1 0x4 MSTORE PUSH1 0x24 PUSH0 REVERT JUMPDEST SWAP2 PUSH1 0x7F AND SWAP2 PUSH2 0xBFD JUMP JUMPDEST SWAP1 PUSH1 0x40 MLOAD SWAP2 DUP3 PUSH0 DUP3 SLOAD SWAP3 PUSH2 0xC39 DUP5 PUSH2 0xBEE JUMP JUMPDEST SWAP1 DUP2 DUP5 MSTORE PUSH1 0x1 SWAP5 DUP6 DUP2 AND SWAP1 DUP2 PUSH0 EQ PUSH2 0xCA4 JUMPI POP PUSH1 0x1 EQ PUSH2 0xC64 JUMPI JUMPDEST POP POP PUSH2 0xC62 SWAP3 POP SUB DUP4 PUSH2 0xAE1 JUMP JUMPDEST JUMP JUMPDEST SWAP1 SWAP4 SWAP2 POP PUSH0 MSTORE PUSH1 0x20 SWAP1 DUP2 PUSH0 KECCAK256 SWAP4 PUSH0 SWAP2 JUMPDEST DUP2 DUP4 LT PUSH2 0xC8C JUMPI POP POP PUSH2 0xC62 SWAP4 POP DUP3 ADD ADD PUSH0 DUP1 PUSH2 0xC54 JUMP JUMPDEST DUP6 SLOAD DUP9 DUP5 ADD DUP6 ADD MSTORE SWAP5 DUP6 ADD SWAP5 DUP8 SWAP5 POP SWAP2 DUP4 ADD SWAP2 PUSH2 0xC74 JUMP JUMPDEST SWAP2 POP POP PUSH2 0xC62 SWAP5 POP PUSH1 0x20 SWAP3 POP PUSH1 0xFF NOT AND DUP3 DUP5 ADD MSTORE ISZERO ISZERO PUSH1 0x5 SHL DUP3 ADD ADD PUSH0 DUP1 PUSH2 0xC54 JUMP JUMPDEST DUP2 DUP2 LT PUSH2 0xCD2 JUMPI POP POP JUMP JUMPDEST PUSH0 DUP2 SSTORE PUSH1 0x1 ADD PUSH2 0xCC7 JUMP JUMPDEST SWAP1 DUP2 SLOAD PUSH2 0xCE9 DUP2 PUSH2 0xB57 JUMP JUMPDEST SWAP3 PUSH2 0xCF7 PUSH1 0x40 MLOAD SWAP5 DUP6 PUSH2 0xAE1 JUMP JUMPDEST DUP2 DUP5 MSTORE PUSH0 SWAP1 DUP2 MSTORE PUSH1 0x20 DUP1 DUP3 KECCAK256 DUP2 DUP7 ADD JUMPDEST DUP5 DUP5 LT PUSH2 0xD15 JUMPI POP POP POP POP POP JUMP JUMPDEST PUSH1 0x1 DUP4 DUP2 SWAP3 PUSH2 0xD23 DUP6 PUSH2 0xC26 JUMP JUMPDEST DUP2 MSTORE ADD SWAP3 ADD SWAP4 ADD SWAP3 SWAP1 PUSH2 0xD07 JUMP INVALID LOG2 PUSH5 0x6970667358 0x22 SLT KECCAK256 PREVRANDAO DUP3 0x27 0xB9 PUSH17 0x1C12174189F0D090F1B310BA7CA808388A 0x27 0xBF 0x1F 0xE2 0xE1 0xB4 0xC1 DIV 0xE2 0xE2 PUSH5 0x736F6C6343 STOP ADDMOD EQ STOP CALLER "},"methodIdentifiers":{"MembersInfo(address)":"92a1b23b","getMemberInfo(address)":"5f1231ea","isInvited(string,address)":"a4828578","updateMemberInfo(string,string,string[],string[],string)":"8cddee08"}}}}}