{"contracts/learntgetherReviewers.sol":{"learntgetherReviewers":{"abi":[{"inputs":[],"stateMutability":"nonpayable","type":"constructor"},{"anonymous":false,"inputs":[{"indexed":true,"internalType":"string","name":"subjectName","type":"string"},{"indexed":true,"internalType":"address","name":"reviewer","type":"address"},{"indexed":false,"internalType":"uint256","name":"creds","type":"uint256"}],"name":"CredsAdded","type":"event"},{"anonymous":false,"inputs":[{"indexed":true,"internalType":"string","name":"subjectName","type":"string"},{"indexed":true,"internalType":"address","name":"reviewer","type":"address"},{"indexed":false,"internalType":"uint256","name":"creds","type":"uint256"}],"name":"CredsRemoved","type":"event"},{"anonymous":false,"inputs":[{"indexed":true,"internalType":"string","name":"subjectName","type":"string"},{"indexed":true,"internalType":"address","name":"reviewerAddress","type":"address"}],"name":"ReviewerAdded","type":"event"},{"anonymous":false,"inputs":[{"indexed":false,"internalType":"address","name":"reviewerAddress","type":"address"},{"indexed":false,"internalType":"string","name":"name","type":"string"},{"indexed":false,"internalType":"string","name":"description","type":"string"},{"indexed":false,"internalType":"string[]","name":"degrees","type":"string[]"},{"indexed":false,"internalType":"string[]","name":"awards","type":"string[]"}],"name":"ReviewerInfo","type":"event"},{"anonymous":false,"inputs":[{"indexed":true,"internalType":"string","name":"subjectName","type":"string"},{"indexed":true,"internalType":"address","name":"reviewerAddress","type":"address"}],"name":"ReviewerRemoved","type":"event"},{"inputs":[{"internalType":"string","name":"_subjectName","type":"string"},{"internalType":"address","name":"_reviewer","type":"address"}],"name":"addCredsToReviewer","outputs":[],"stateMutability":"nonpayable","type":"function"},{"inputs":[{"internalType":"string","name":"_subjectName","type":"string"}],"name":"addSelfAsReviewer","outputs":[],"stateMutability":"nonpayable","type":"function"},{"inputs":[{"internalType":"address","name":"_reviewerAddress","type":"address"},{"internalType":"string","name":"_subjectName","type":"string"}],"name":"getIsReviewer","outputs":[{"internalType":"bool","name":"","type":"bool"}],"stateMutability":"view","type":"function"},{"inputs":[{"internalType":"address","name":"_reviewerAddress","type":"address"},{"internalType":"string","name":"_subjectName","type":"string"}],"name":"getReiewerSubjectInfo","outputs":[{"internalType":"uint256","name":"_creds","type":"uint256"},{"internalType":"address[]","name":"_credAddresses","type":"address[]"}],"stateMutability":"view","type":"function"},{"inputs":[{"internalType":"address","name":"_reviewerAddress","type":"address"},{"internalType":"address","name":"_credAddress","type":"address"},{"internalType":"string","name":"_subjectName","type":"string"}],"name":"getReviewerCredIndex","outputs":[{"internalType":"uint256","name":"index","type":"uint256"}],"stateMutability":"view","type":"function"},{"inputs":[{"internalType":"address","name":"_reviewerAddress","type":"address"},{"internalType":"string","name":"_subjectName","type":"string"}],"name":"getReviewerCreds","outputs":[{"internalType":"uint256","name":"creds","type":"uint256"}],"stateMutability":"view","type":"function"},{"inputs":[{"internalType":"address","name":"_reviewerAddress","type":"address"},{"internalType":"string","name":"_subjectName","type":"string"}],"name":"getReviewerCredsList","outputs":[{"internalType":"address[]","name":"addressList","type":"address[]"}],"stateMutability":"view","type":"function"},{"inputs":[{"internalType":"address","name":"_reviewerAddress","type":"address"}],"name":"getReviewerInfo","outputs":[{"internalType":"string","name":"name","type":"string"},{"internalType":"string","name":"descripion","type":"string"},{"internalType":"string[]","name":"degrees","type":"string[]"},{"internalType":"string[]","name":"awards","type":"string[]"}],"stateMutability":"view","type":"function"},{"inputs":[{"internalType":"address","name":"_reviewerAddress","type":"address"},{"internalType":"string","name":"_subjectName","type":"string"},{"internalType":"address","name":"givenBy","type":"address"}],"name":"hasReviewerGivenCred","outputs":[{"internalType":"bool","name":"","type":"bool"}],"stateMutability":"view","type":"function"},{"inputs":[{"internalType":"string","name":"_subjectName","type":"string"},{"internalType":"address","name":"_reviewer","type":"address"}],"name":"removeCredsFromReviewer","outputs":[],"stateMutability":"nonpayable","type":"function"},{"inputs":[{"internalType":"string","name":"_subjectName","type":"string"}],"name":"removeSelfAsReviewer","outputs":[],"stateMutability":"nonpayable","type":"function"},{"inputs":[{"internalType":"address","name":"_contractAddress","type":"address"}],"name":"setlearntgetherSubjects","outputs":[],"stateMutability":"nonpayable","type":"function"},{"inputs":[],"name":"subjectsContract","outputs":[{"internalType":"contract learntgetherSubjectsInterface","name":"","type":"address"}],"stateMutability":"view","type":"function"},{"inputs":[{"internalType":"string","name":"_name","type":"string"},{"internalType":"string","name":"_description","type":"string"},{"internalType":"string[]","name":"_degrees","type":"string[]"},{"internalType":"string[]","name":"_awards","type":"string[]"}],"name":"updateReviewerInfo","outputs":[],"stateMutability":"nonpayable","type":"function"}],"evm":{"bytecode":{"linkReferences":{},"object":"6080806040523461002857600180546001600160a01b03191633179055611e29908161002d8239f35b5f80fdfe60806040526004361015610011575f80fd5b5f3560e01c8063016f11b3146116bf578063072c1f411461161957806318f6b962146111025780632faa64ce146110da57806330e29a3a1461103657806338a87e55146109af5780633e8e033d1461094d578063585e01e414610640578063598f921b146105e057806366ea653a1461049d5780636e405a5f1461041c5780636f20d2a8146101ba57806385d9d19f1461010d576397206ab7146100b3575f80fd5b3461010957602060ff60036100f3836100cb366117fe565b9060018060a01b03165f525f8252600460405f2001826040519483868095519384920161187c565b8201908152030190200154166040519015158152f35b5f80fd5b34610109576101926101a16002610123366117fe565b939060018060a01b0316805f526020809581925f8352610174600160ff6003600460405f200160405197888092895161016081858d019d8e61187c565b820190815203019020015416151514611bf6565b5f525f8352600460405f20019060405194859384925192839161187c565b82019081520301902001611c53565b906101b6604051928284938452830190611840565b0390f35b3461010957602080600319360112610109576004356001600160401b038111610109576101eb9036906004016117a9565b600254604051632dac55d960e01b81526004810184905291926001600160a01b039290918290829085168180610224602482018a61189d565b03915afa908115610411575f916103e4575b50156103a757335f525f8152600460405f2001600160ff60036040518581895196828b019761026681848b61187c565b82019081520301902001541615151461034d576002916102d591335f525f82526003600460405f20018360405180928a516102a281848961187c565b82019081520301902001600160ff19825416179055335f525f8252600460405f200160405180948193895192839161187c565b820190815203019020018054600160401b811015610339576102fc91600182018155611a0d565b909182549160031b1b191690556103133391611a36565b7fbdfa00028aa6c888a03528a2075ea227b56f2f5182dcf6691bc7c5e37220b2895f80a3005b634e487b7160e01b5f52604160045260245ffd5b60405162461bcd60e51b815260048101839052602c60248201527f596f752061726520616c7265616479206120726576696577657220666f72207460448201526b3434b99039bab13532b1ba1760a11b6064820152608490fd5b6064906040519062461bcd60e51b82526004820152601660248201527514dd589a9958dd08111bd95cc81b9bdd08115e1a5cdd60521b6044820152fd5b6104049150823d841161040a575b6103fc8183611788565b8101906119f5565b84610236565b503d6103f2565b6040513d5f823e3d90fd5b3461010957602036600319011261010957610435611772565b6001546001600160a01b0391908216330361045f571660018060a01b031960025416176002555f80f35b60405162461bcd60e51b81526020600482015260166024820152752737ba103a34329031b7b73a3930b1ba1037bbb732b960511b6044820152606490fd5b3461010957602080600319360112610109576004356001600160401b038111610109576104ce9036906004016117a9565b600254604051632dac55d960e01b815260048101849052919290819083906001600160a01b03168180610504602482018961189d565b03915afa90811561041157610526610581926003945f916105c3575b50611a56565b335f525f8152600460405f200161056360ff8560405185818a5196828c019761055081848b61187c565b8201908152030190200154161515611a9b565b335f525f8252600460405f200160405180948193885192839161187c565b8201908152030190200160ff19815416905561059d3391611a36565b7fffcf81133aec081f5d14dbff5c602986674612ec939e52e1960baeedf3bc53325f80a3005b6105da9150833d851161040a576103fc8183611788565b86610520565b346101095761062e6105f1366117fe565b919060018060a01b0316805f526020809381925f8352610174600160ff6003600460405f200160405197888092895161016081858d019d8e61187c565b82019081520301902054604051908152f35b346101095761064e3661191d565b600254604051632dac55d960e01b81526020600482018190526001600160a01b03949392909190829082908716818061068a602482018a61189d565b03915afa8015610411576106a4915f916105c35750611a56565b335f525f8152600460405f200193604051926106ea855196848701976106cb81888b61187c565b860190815260ff600387876001998a9503019020015416151514611a9b565b1693845f525f82526107288360ff6003600460405f20018660405180928b5161071481848c61187c565b820190815203019020015416151514611b46565b61073485331415611baa565b845f525f825282600460405f2001836040518092885161075581848961187c565b82019081520301902001335f52825260405f20546108f257845f525f8252600460405f2001826040518092875161078d81848861187c565b8201908152030190208054908482018092116108de5755845f525f82526002600460405f200183604051809288516107c681848961187c565b82019081520301902001805490600160401b82101561033957816107f1918661080f94018155611a0d565b81546001600160a01b0360039290921b91821b19163390911b179055565b845f525f82526002600460405f2001836040518092885161083181848961187c565b82019081520301902001545f1981019081116108de57826108d4926108c4927ff40892af1cef89c48077c1923285cac4d53fc49e28d7d981f0cd804b2570401096895f525f8452600460405f20018460405180928c5161089281848a61187c565b82019081520301902001335f52835260405f2055875f525f8252600460405f2001604051809481938a5192839161187c565b8201908152030190205493611a36565b92604051908152a3005b634e487b7160e01b5f52601160045260245ffd5b60405162461bcd60e51b815260048101839052602d60248201527f596f7527766520616c726561647920676976656e2061206372656420746f207460448201526c3434b9903932bb34b2bbb2b91760991b6064820152608490fd5b3461010957606036600319011261010957610966611772565b6024356001600160401b038111610109576109859036906004016117a9565b906044356001600160a01b0381168103610109576020926109a592611caa565b6040519015158152f35b34610109576080366003190112610109576004356001600160401b038111610109576109df9036906004016117a9565b6024356001600160401b038111610109576109fe9036906004016117a9565b6044356001600160401b03811161010957610a1d903690600401611975565b6064356001600160401b03811161010957610a3c903690600401611975565b91335f525f60205260405f2084516001600160401b03811161033957610a628254611af8565b601f8111611006575b50806020601f8211600114610fa4575f91610f99575b508160011b915f199060031b1c19161790555b335f525f602052600160405f200181516001600160401b03811161033957610abc8254611af8565b601f8111610f5e575b50806020601f8211600114610efc575f91610ef1575b508160011b915f199060031b1c19161790555b335f525f602052600260405f20018251600160401b8111610339578154818355808210610e80575b5060208401915f5260205f20915f905b828210610d735750505050335f525f602052600360405f20018351600160401b8111610339578154818355808210610d02575b5060208501915f5260205f20915f905b828210610bea577f627dda018eb8c1473e432fa4a06937ef8127ac6112d8d9f7dd1175f81d394ede610bbb89610be58a610bd78b610bc98c60405197889733895260a060208a015260a089019061189d565b90878203604089015261189d565b9085820360608701526118c2565b9083820360808501526118c2565b0390a1005b80518051906001600160401b03821161033957610c078654611af8565b601f8111610cc7575b50602090601f8311600114610c5b5792826001949360209386955f92610c50575b50505f19600383901b1c191690841b1787555b01940191019092610b69565b015190508d80610c31565b90865f5260205f20915f5b601f1985168110610caf575083602093600196938796938794601f19811610610c97575b505050811b018755610c44565b01515f1960f88460031b161c191690558d8080610c8a565b91926020600181928685015181550194019201610c66565b610cf290875f5260205f206005601f8601811c82019260208710610cf8575b601f01901c0190611b30565b8a610c10565b9192508291610ce6565b825f5260205f20908282015b8183018110610d1e575050610b59565b80610d2b60019254611af8565b80610d38575b5001610d0e565b601f81118314610d4d57505f81555b8a610d31565b5f90828252610d6a601f60208420920160051c8201858301611b30565b81835555610d47565b80518051906001600160401b03821161033957610d908654611af8565b601f8111610e50575b50602090601f8311600114610de45792826001949360209386955f92610dd9575b50505f19600383901b1c191690841b1787555b01940191019092610b26565b015190508d80610dba565b90865f5260205f20915f5b601f1985168110610e38575083602093600196938796938794601f19811610610e20575b505050811b018755610dcd565b01515f1960f88460031b161c191690558d8080610e13565b91926020600181928685015181550194019201610def565b610e7a90875f5260205f206005601f8601811c82019260208710610cf857601f01901c0190611b30565b8a610d99565b825f5260205f20908282015b8183018110610e9c575050610b16565b80610ea960019254611af8565b80610eb6575b5001610e8c565b601f81118314610ecb57505f81555b8a610eaf565b5f90828252610ee8601f60208420920160051c8201858301611b30565b81835555610ec5565b905083015187610adb565b5f848152602081209250601f198416905b818110610f4657509083600194939210610f2e575b5050811b019055610aee565b8501515f1960f88460031b161c191690558780610f22565b9192602060018192868a015181550194019201610f0d565b610f8990835f5260205f20601f840160051c81019160208510610f8f575b601f0160051c0190611b30565b86610ac5565b9091508190610f7c565b905086015187610a81565b5f848152602081209250601f198416905b818110610fee57509083600194939210610fd6575b5050811b019055610a94565b8801515f1960f88460031b161c191690558780610fca565b9192602060018192868d015181550194019201610fb5565b61103090835f5260205f20601f840160051c81019160208510610f8f57601f0160051c0190611b30565b86610a6b565b346101095760603660031901126101095761104f611772565b6024356001600160a01b0381811691829003610109576044356001600160401b0381116101095760019161108a6110be9236906004016117a9565b9416805f526020809581925f83526101748660ff6003600460405f200160405197888092895161016081858d019d8e61187c565b82019081520301902001905f52815260405f2054604051908152f35b34610109575f366003190112610109576002546040516001600160a01b039091168152602090f35b34610109576111103661191d565b60028054604051632dac55d960e01b8152602060048201819052929493916001600160a01b0391602491859082908516818061114e8782018c61189d565b03915afa801561041157611168915f916115fc5750611a56565b335f525f8452600460405f20019282604051916111af885196888a019761119081878b61187c565b850190815260ff6003868b600198899503019020015416151514611a9b565b1696875f525f86526111de8260ff60036107148a8a8d600460405f20019060405194859384925192839161187c565b6111ea88331415611baa565b875f525f865281600460405f20018760405180928b5161120b81848d61187c565b82019081520301902001335f52865260405f2054156115a057875f525f8652600460405f20018660405180928a5161124481848c61187c565b82019081520301902080545f1993918482019182116115505755885f525f8752806112838888600460405f20018c60405194859384925192839161187c565b82019081520301902001335f52875260405f2054895f525f885281836112be8a8a8d600460405f20019060405194859384925192839161187c565b8201908152030190200154111561156357895f525f8852826112f48989600460405f20018d60405194859384925192839161187c565b82019081520301902001548481019081116115505781036113f5575b50885f525f8752600460405f20018760405180928b5161133181848d61187c565b82019081520301902001335f5286525f6040812055875f525f8652600460405f20018660405180928a5161136681848c61187c565b820190815203019020019182549081156113e25750936108d4936108c4938796937f762e6755472076df5543749c551be6860563e0a6140161161de0ba7ff211b2e3989401916113b68383611a0d565b909182549160031b1b1916905555875f525f8252600460405f2001604051809481938a5192839161187c565b634e487b7160e01b5f9081526031600452fd5b895f525f88528261141a8989600460405f20018d60405194859384925192839161187c565b820190815203019020018a5f525f89528361144a8a8a8d600460405f20019060405194859384925192839161187c565b82019081520301902001549085820191821161153d5761152683866114ae8f958f8f91908f918f61147f6114dc92829b611a0d565b90549060031b1c168a5f525f85526114bd8888600460405f2001886040518092816114ae8c8c5192839161187c565b82019081520301902001611a0d565b90919082549060031b9160018060a01b03809116831b921b1916179055565b885f525f83528a600460405f200184604051809285516114fd81848a61187c565b82019081520301902001985f525f8352600460405f20019060405194859384925192839161187c565b90549060031b1c165f52885260405f205589611310565b86634e487b7160e01b5f5260116004525ffd5b85634e487b7160e01b5f5260116004525ffd5b60405162461bcd60e51b8152600481018990526016818701527554686973207573657220686173206e6f20437265647360501b6044820152606490fd5b60405162461bcd60e51b815260048101879052602f818501527f596f752068617665206e6f7420676976656e2061206372656420746f2074686960448201526e39903932bb34b2bbb2b9103cb2ba1760891b6064820152608490fd5b6116139150863d881161040a576103fc8183611788565b88610520565b34610109576020366003190112610109576001600160a01b0361163a611772565b165f525f60205261169560405f206101b661165482611d00565b916116b161166460018301611d00565b916116a3611680600361167960028501611d9f565b9301611d9f565b9360405197889760808952608089019061189d565b90878203602089015261189d565b9085820360408701526118c2565b9083820360608501526118c2565b34610109576116cd366117fe565b9060018060a01b0316805f526101b661175c6002610192602080965f8252600460405f200190611713600160ff600360405187818751988289019961016081848d61187c565b875f525f8352600460405f2001836040518092845161173381848961187c565b82019081520301902054975f525f8352600460405f20019060405194859384925192839161187c565b6040805194859485528401526040830190611840565b600435906001600160a01b038216820361010957565b90601f801991011681019081106001600160401b0382111761033957604052565b81601f82011215610109578035906001600160401b03821161033957604051926117dd601f8401601f191660200185611788565b8284526020838301011161010957815f926020809301838601378301015290565b906040600319830112610109576004356001600160a01b03811681036101095791602435906001600160401b0382116101095761183d916004016117a9565b90565b9081518082526020808093019301915f5b82811061185f575050505090565b83516001600160a01b031685529381019392810192600101611851565b5f5b83811061188d5750505f910152565b818101518382015260200161187e565b906020916118b68151809281855285808601910161187c565b601f01601f1916010190565b908082519081815260208091019281808460051b8301019501935f915b8483106118ef5750505050505090565b909192939495848061190d600193601f198682030187528a5161189d565b98019301930191949392906118df565b604060031982011261010957600435906001600160401b03821161010957611947916004016117a9565b906024356001600160a01b03811681036101095790565b6001600160401b0381116103395760051b60200190565b9080601f830112156101095781359061198d8261195e565b9261199b6040519485611788565b828452602092838086019160051b8301019280841161010957848301915b8483106119c95750505050505090565b82356001600160401b0381116101095786916119ea848480948901016117a9565b8152019201916119b9565b90816020910312610109575180151581036101095790565b8054821015611a22575f5260205f2001905f90565b634e487b7160e01b5f52603260045260245ffd5b611a4e9060206040519282848094519384920161187c565b810103902090565b15611a5d57565b60405162461bcd60e51b815260206004820152601660248201527514dd589a9958dd08111bd95cc8139bdd08115e1a5cdd60521b6044820152606490fd5b15611aa257565b60405162461bcd60e51b815260206004820152602860248201527f596f7520617265206e6f74206120726576696577657220666f7220746869732060448201526739bab13532b1ba1760c11b6064820152608490fd5b90600182811c92168015611b26575b6020831014611b1257565b634e487b7160e01b5f52602260045260245ffd5b91607f1691611b07565b818110611b3b575050565b5f8155600101611b30565b15611b4d57565b60405162461bcd60e51b815260206004820152602f60248201527f54617267657420726576696577657220646f65736e277420657869737420666f60448201526e39103a3434b99039bab13532b1ba1760891b6064820152608490fd5b15611bb157565b60405162461bcd60e51b815260206004820152601f60248201527f596f752063616e6e6f74206564697420796f7572206f776e2063726564732e006044820152606490fd5b15611bfd57565b60405162461bcd60e51b815260206004820152602860248201527f526576696577657220446f6573204e6f7420457869737420466f722074686973604482015267081cdd589a9958dd60c21b6064820152608490fd5b906040519182815491828252602092838301915f52835f20935f905b828210611c8757505050611c8592500383611788565b565b85546001600160a01b031684526001958601958895509381019390910190611c6f565b91906001611cdd6020828060a01b0393845f9716875286825260046040882001826040519483868095519384920161187c565b82019081520301902001911682526020526040812054155f1461183d5750600190565b9060405191825f825492611d1384611af8565b9081845260019485811690815f14611d7c5750600114611d3c575b5050611c8592500383611788565b909391505f52602090815f20935f915b818310611d64575050611c8593508201015f80611d2e565b85548884018501529485019487945091830191611d4c565b915050611c8594506020925060ff191682840152151560051b8201015f80611d2e565b908154611dab8161195e565b92611db96040519485611788565b8184525f90815260208082208186015b848410611dd7575050505050565b6001838192611de585611d00565b815201920193019290611dc956fea2646970667358221220713ba5f33aa856835beafae833d8871b3879f8639232facc14a0e3a30950adbf64736f6c63430008140033","opcodes":"PUSH1 0x80 DUP1 PUSH1 0x40 MSTORE CALLVALUE PUSH2 0x28 JUMPI PUSH1 0x1 DUP1 SLOAD PUSH1 0x1 PUSH1 0x1 PUSH1 0xA0 SHL SUB NOT AND CALLER OR SWAP1 SSTORE PUSH2 0x1E29 SWAP1 DUP2 PUSH2 0x2D DUP3 CODECOPY RETURN JUMPDEST PUSH0 DUP1 REVERT INVALID PUSH1 0x80 PUSH1 0x40 MSTORE PUSH1 0x4 CALLDATASIZE LT ISZERO PUSH2 0x11 JUMPI PUSH0 DUP1 REVERT JUMPDEST PUSH0 CALLDATALOAD PUSH1 0xE0 SHR DUP1 PUSH4 0x16F11B3 EQ PUSH2 0x16BF JUMPI DUP1 PUSH4 0x72C1F41 EQ PUSH2 0x1619 JUMPI DUP1 PUSH4 0x18F6B962 EQ PUSH2 0x1102 JUMPI DUP1 PUSH4 0x2FAA64CE EQ PUSH2 0x10DA JUMPI DUP1 PUSH4 0x30E29A3A EQ PUSH2 0x1036 JUMPI DUP1 PUSH4 0x38A87E55 EQ PUSH2 0x9AF JUMPI DUP1 PUSH4 0x3E8E033D EQ PUSH2 0x94D JUMPI DUP1 PUSH4 0x585E01E4 EQ PUSH2 0x640 JUMPI DUP1 PUSH4 0x598F921B EQ PUSH2 0x5E0 JUMPI DUP1 PUSH4 0x66EA653A EQ PUSH2 0x49D JUMPI DUP1 PUSH4 0x6E405A5F EQ PUSH2 0x41C JUMPI DUP1 PUSH4 0x6F20D2A8 EQ PUSH2 0x1BA JUMPI DUP1 PUSH4 0x85D9D19F EQ PUSH2 0x10D JUMPI PUSH4 0x97206AB7 EQ PUSH2 0xB3 JUMPI PUSH0 DUP1 REVERT JUMPDEST CALLVALUE PUSH2 0x109 JUMPI PUSH1 0x20 PUSH1 0xFF PUSH1 0x3 PUSH2 0xF3 DUP4 PUSH2 0xCB CALLDATASIZE PUSH2 0x17FE JUMP JUMPDEST SWAP1 PUSH1 0x1 DUP1 PUSH1 0xA0 SHL SUB AND PUSH0 MSTORE PUSH0 DUP3 MSTORE PUSH1 0x4 PUSH1 0x40 PUSH0 KECCAK256 ADD DUP3 PUSH1 0x40 MLOAD SWAP5 DUP4 DUP7 DUP1 SWAP6 MLOAD SWAP4 DUP5 SWAP3 ADD PUSH2 0x187C JUMP JUMPDEST DUP3 ADD SWAP1 DUP2 MSTORE SUB ADD SWAP1 KECCAK256 ADD SLOAD AND PUSH1 0x40 MLOAD SWAP1 ISZERO ISZERO DUP2 MSTORE RETURN JUMPDEST PUSH0 DUP1 REVERT JUMPDEST CALLVALUE PUSH2 0x109 JUMPI PUSH2 0x192 PUSH2 0x1A1 PUSH1 0x2 PUSH2 0x123 CALLDATASIZE PUSH2 0x17FE JUMP JUMPDEST SWAP4 SWAP1 PUSH1 0x1 DUP1 PUSH1 0xA0 SHL SUB AND DUP1 PUSH0 MSTORE PUSH1 0x20 DUP1 SWAP6 DUP2 SWAP3 PUSH0 DUP4 MSTORE PUSH2 0x174 PUSH1 0x1 PUSH1 0xFF PUSH1 0x3 PUSH1 0x4 PUSH1 0x40 PUSH0 KECCAK256 ADD PUSH1 0x40 MLOAD SWAP8 DUP9 DUP1 SWAP3 DUP10 MLOAD PUSH2 0x160 DUP2 DUP6 DUP14 ADD SWAP14 DUP15 PUSH2 0x187C JUMP JUMPDEST DUP3 ADD SWAP1 DUP2 MSTORE SUB ADD SWAP1 KECCAK256 ADD SLOAD AND ISZERO ISZERO EQ PUSH2 0x1BF6 JUMP JUMPDEST PUSH0 MSTORE PUSH0 DUP4 MSTORE PUSH1 0x4 PUSH1 0x40 PUSH0 KECCAK256 ADD SWAP1 PUSH1 0x40 MLOAD SWAP5 DUP6 SWAP4 DUP5 SWAP3 MLOAD SWAP3 DUP4 SWAP2 PUSH2 0x187C JUMP JUMPDEST DUP3 ADD SWAP1 DUP2 MSTORE SUB ADD SWAP1 KECCAK256 ADD PUSH2 0x1C53 JUMP JUMPDEST SWAP1 PUSH2 0x1B6 PUSH1 0x40 MLOAD SWAP3 DUP3 DUP5 SWAP4 DUP5 MSTORE DUP4 ADD SWAP1 PUSH2 0x1840 JUMP JUMPDEST SUB SWAP1 RETURN JUMPDEST CALLVALUE PUSH2 0x109 JUMPI PUSH1 0x20 DUP1 PUSH1 0x3 NOT CALLDATASIZE ADD SLT PUSH2 0x109 JUMPI PUSH1 0x4 CALLDATALOAD PUSH1 0x1 PUSH1 0x1 PUSH1 0x40 SHL SUB DUP2 GT PUSH2 0x109 JUMPI PUSH2 0x1EB SWAP1 CALLDATASIZE SWAP1 PUSH1 0x4 ADD PUSH2 0x17A9 JUMP JUMPDEST PUSH1 0x2 SLOAD PUSH1 0x40 MLOAD PUSH4 0x2DAC55D9 PUSH1 0xE0 SHL DUP2 MSTORE PUSH1 0x4 DUP2 ADD DUP5 SWAP1 MSTORE SWAP2 SWAP3 PUSH1 0x1 PUSH1 0x1 PUSH1 0xA0 SHL SUB SWAP3 SWAP1 SWAP2 DUP3 SWAP1 DUP3 SWAP1 DUP6 AND DUP2 DUP1 PUSH2 0x224 PUSH1 0x24 DUP3 ADD DUP11 PUSH2 0x189D JUMP JUMPDEST SUB SWAP2 GAS STATICCALL SWAP1 DUP2 ISZERO PUSH2 0x411 JUMPI PUSH0 SWAP2 PUSH2 0x3E4 JUMPI JUMPDEST POP ISZERO PUSH2 0x3A7 JUMPI CALLER PUSH0 MSTORE PUSH0 DUP2 MSTORE PUSH1 0x4 PUSH1 0x40 PUSH0 KECCAK256 ADD PUSH1 0x1 PUSH1 0xFF PUSH1 0x3 PUSH1 0x40 MLOAD DUP6 DUP2 DUP10 MLOAD SWAP7 DUP3 DUP12 ADD SWAP8 PUSH2 0x266 DUP2 DUP5 DUP12 PUSH2 0x187C JUMP JUMPDEST DUP3 ADD SWAP1 DUP2 MSTORE SUB ADD SWAP1 KECCAK256 ADD SLOAD AND ISZERO ISZERO EQ PUSH2 0x34D JUMPI PUSH1 0x2 SWAP2 PUSH2 0x2D5 SWAP2 CALLER PUSH0 MSTORE PUSH0 DUP3 MSTORE PUSH1 0x3 PUSH1 0x4 PUSH1 0x40 PUSH0 KECCAK256 ADD DUP4 PUSH1 0x40 MLOAD DUP1 SWAP3 DUP11 MLOAD PUSH2 0x2A2 DUP2 DUP5 DUP10 PUSH2 0x187C JUMP JUMPDEST DUP3 ADD SWAP1 DUP2 MSTORE SUB ADD SWAP1 KECCAK256 ADD PUSH1 0x1 PUSH1 0xFF NOT DUP3 SLOAD AND OR SWAP1 SSTORE CALLER PUSH0 MSTORE PUSH0 DUP3 MSTORE PUSH1 0x4 PUSH1 0x40 PUSH0 KECCAK256 ADD PUSH1 0x40 MLOAD DUP1 SWAP5 DUP2 SWAP4 DUP10 MLOAD SWAP3 DUP4 SWAP2 PUSH2 0x187C JUMP JUMPDEST DUP3 ADD SWAP1 DUP2 MSTORE SUB ADD SWAP1 KECCAK256 ADD DUP1 SLOAD PUSH1 0x1 PUSH1 0x40 SHL DUP2 LT ISZERO PUSH2 0x339 JUMPI PUSH2 0x2FC SWAP2 PUSH1 0x1 DUP3 ADD DUP2 SSTORE PUSH2 0x1A0D JUMP JUMPDEST SWAP1 SWAP2 DUP3 SLOAD SWAP2 PUSH1 0x3 SHL SHL NOT AND SWAP1 SSTORE PUSH2 0x313 CALLER SWAP2 PUSH2 0x1A36 JUMP JUMPDEST PUSH32 0xBDFA00028AA6C888A03528A2075EA227B56F2F5182DCF6691BC7C5E37220B289 PUSH0 DUP1 LOG3 STOP JUMPDEST PUSH4 0x4E487B71 PUSH1 0xE0 SHL PUSH0 MSTORE PUSH1 0x41 PUSH1 0x4 MSTORE PUSH1 0x24 PUSH0 REVERT JUMPDEST PUSH1 0x40 MLOAD PUSH3 0x461BCD PUSH1 0xE5 SHL DUP2 MSTORE PUSH1 0x4 DUP2 ADD DUP4 SWAP1 MSTORE PUSH1 0x2C PUSH1 0x24 DUP3 ADD MSTORE PUSH32 0x596F752061726520616C7265616479206120726576696577657220666F722074 PUSH1 0x44 DUP3 ADD MSTORE PUSH12 0x3434B99039BAB13532B1BA17 PUSH1 0xA1 SHL PUSH1 0x64 DUP3 ADD MSTORE PUSH1 0x84 SWAP1 REVERT JUMPDEST PUSH1 0x64 SWAP1 PUSH1 0x40 MLOAD SWAP1 PUSH3 0x461BCD PUSH1 0xE5 SHL DUP3 MSTORE PUSH1 0x4 DUP3 ADD MSTORE PUSH1 0x16 PUSH1 0x24 DUP3 ADD MSTORE PUSH22 0x14DD589A9958DD08111BD95CC81B9BDD08115E1A5CDD PUSH1 0x52 SHL PUSH1 0x44 DUP3 ADD MSTORE REVERT JUMPDEST PUSH2 0x404 SWAP2 POP DUP3 RETURNDATASIZE DUP5 GT PUSH2 0x40A JUMPI JUMPDEST PUSH2 0x3FC DUP2 DUP4 PUSH2 0x1788 JUMP JUMPDEST DUP2 ADD SWAP1 PUSH2 0x19F5 JUMP JUMPDEST DUP5 PUSH2 0x236 JUMP JUMPDEST POP RETURNDATASIZE PUSH2 0x3F2 JUMP JUMPDEST PUSH1 0x40 MLOAD RETURNDATASIZE PUSH0 DUP3 RETURNDATACOPY RETURNDATASIZE SWAP1 REVERT JUMPDEST CALLVALUE PUSH2 0x109 JUMPI PUSH1 0x20 CALLDATASIZE PUSH1 0x3 NOT ADD SLT PUSH2 0x109 JUMPI PUSH2 0x435 PUSH2 0x1772 JUMP JUMPDEST PUSH1 0x1 SLOAD PUSH1 0x1 PUSH1 0x1 PUSH1 0xA0 SHL SUB SWAP2 SWAP1 DUP3 AND CALLER SUB PUSH2 0x45F JUMPI AND PUSH1 0x1 DUP1 PUSH1 0xA0 SHL SUB NOT PUSH1 0x2 SLOAD AND OR PUSH1 0x2 SSTORE PUSH0 DUP1 RETURN JUMPDEST PUSH1 0x40 MLOAD PUSH3 0x461BCD PUSH1 0xE5 SHL DUP2 MSTORE PUSH1 0x20 PUSH1 0x4 DUP3 ADD MSTORE PUSH1 0x16 PUSH1 0x24 DUP3 ADD MSTORE PUSH22 0x2737BA103A34329031B7B73A3930B1BA1037BBB732B9 PUSH1 0x51 SHL PUSH1 0x44 DUP3 ADD MSTORE PUSH1 0x64 SWAP1 REVERT JUMPDEST CALLVALUE PUSH2 0x109 JUMPI PUSH1 0x20 DUP1 PUSH1 0x3 NOT CALLDATASIZE ADD SLT PUSH2 0x109 JUMPI PUSH1 0x4 CALLDATALOAD PUSH1 0x1 PUSH1 0x1 PUSH1 0x40 SHL SUB DUP2 GT PUSH2 0x109 JUMPI PUSH2 0x4CE SWAP1 CALLDATASIZE SWAP1 PUSH1 0x4 ADD PUSH2 0x17A9 JUMP JUMPDEST PUSH1 0x2 SLOAD PUSH1 0x40 MLOAD PUSH4 0x2DAC55D9 PUSH1 0xE0 SHL DUP2 MSTORE PUSH1 0x4 DUP2 ADD DUP5 SWAP1 MSTORE SWAP2 SWAP3 SWAP1 DUP2 SWAP1 DUP4 SWAP1 PUSH1 0x1 PUSH1 0x1 PUSH1 0xA0 SHL SUB AND DUP2 DUP1 PUSH2 0x504 PUSH1 0x24 DUP3 ADD DUP10 PUSH2 0x189D JUMP JUMPDEST SUB SWAP2 GAS STATICCALL SWAP1 DUP2 ISZERO PUSH2 0x411 JUMPI PUSH2 0x526 PUSH2 0x581 SWAP3 PUSH1 0x3 SWAP5 PUSH0 SWAP2 PUSH2 0x5C3 JUMPI JUMPDEST POP PUSH2 0x1A56 JUMP JUMPDEST CALLER PUSH0 MSTORE PUSH0 DUP2 MSTORE PUSH1 0x4 PUSH1 0x40 PUSH0 KECCAK256 ADD PUSH2 0x563 PUSH1 0xFF DUP6 PUSH1 0x40 MLOAD DUP6 DUP2 DUP11 MLOAD SWAP7 DUP3 DUP13 ADD SWAP8 PUSH2 0x550 DUP2 DUP5 DUP12 PUSH2 0x187C JUMP JUMPDEST DUP3 ADD SWAP1 DUP2 MSTORE SUB ADD SWAP1 KECCAK256 ADD SLOAD AND ISZERO ISZERO PUSH2 0x1A9B JUMP JUMPDEST CALLER PUSH0 MSTORE PUSH0 DUP3 MSTORE PUSH1 0x4 PUSH1 0x40 PUSH0 KECCAK256 ADD PUSH1 0x40 MLOAD DUP1 SWAP5 DUP2 SWAP4 DUP9 MLOAD SWAP3 DUP4 SWAP2 PUSH2 0x187C JUMP JUMPDEST DUP3 ADD SWAP1 DUP2 MSTORE SUB ADD SWAP1 KECCAK256 ADD PUSH1 0xFF NOT DUP2 SLOAD AND SWAP1 SSTORE PUSH2 0x59D CALLER SWAP2 PUSH2 0x1A36 JUMP JUMPDEST PUSH32 0xFFCF81133AEC081F5D14DBFF5C602986674612EC939E52E1960BAEEDF3BC5332 PUSH0 DUP1 LOG3 STOP JUMPDEST PUSH2 0x5DA SWAP2 POP DUP4 RETURNDATASIZE DUP6 GT PUSH2 0x40A JUMPI PUSH2 0x3FC DUP2 DUP4 PUSH2 0x1788 JUMP JUMPDEST DUP7 PUSH2 0x520 JUMP JUMPDEST CALLVALUE PUSH2 0x109 JUMPI PUSH2 0x62E PUSH2 0x5F1 CALLDATASIZE PUSH2 0x17FE JUMP JUMPDEST SWAP2 SWAP1 PUSH1 0x1 DUP1 PUSH1 0xA0 SHL SUB AND DUP1 PUSH0 MSTORE PUSH1 0x20 DUP1 SWAP4 DUP2 SWAP3 PUSH0 DUP4 MSTORE PUSH2 0x174 PUSH1 0x1 PUSH1 0xFF PUSH1 0x3 PUSH1 0x4 PUSH1 0x40 PUSH0 KECCAK256 ADD PUSH1 0x40 MLOAD SWAP8 DUP9 DUP1 SWAP3 DUP10 MLOAD PUSH2 0x160 DUP2 DUP6 DUP14 ADD SWAP14 DUP15 PUSH2 0x187C JUMP JUMPDEST DUP3 ADD SWAP1 DUP2 MSTORE SUB ADD SWAP1 KECCAK256 SLOAD PUSH1 0x40 MLOAD SWAP1 DUP2 MSTORE RETURN JUMPDEST CALLVALUE PUSH2 0x109 JUMPI PUSH2 0x64E CALLDATASIZE PUSH2 0x191D JUMP JUMPDEST PUSH1 0x2 SLOAD PUSH1 0x40 MLOAD PUSH4 0x2DAC55D9 PUSH1 0xE0 SHL DUP2 MSTORE PUSH1 0x20 PUSH1 0x4 DUP3 ADD DUP2 SWAP1 MSTORE PUSH1 0x1 PUSH1 0x1 PUSH1 0xA0 SHL SUB SWAP5 SWAP4 SWAP3 SWAP1 SWAP2 SWAP1 DUP3 SWAP1 DUP3 SWAP1 DUP8 AND DUP2 DUP1 PUSH2 0x68A PUSH1 0x24 DUP3 ADD DUP11 PUSH2 0x189D JUMP JUMPDEST SUB SWAP2 GAS STATICCALL DUP1 ISZERO PUSH2 0x411 JUMPI PUSH2 0x6A4 SWAP2 PUSH0 SWAP2 PUSH2 0x5C3 JUMPI POP PUSH2 0x1A56 JUMP JUMPDEST CALLER PUSH0 MSTORE PUSH0 DUP2 MSTORE PUSH1 0x4 PUSH1 0x40 PUSH0 KECCAK256 ADD SWAP4 PUSH1 0x40 MLOAD SWAP3 PUSH2 0x6EA DUP6 MLOAD SWAP7 DUP5 DUP8 ADD SWAP8 PUSH2 0x6CB DUP2 DUP9 DUP12 PUSH2 0x187C JUMP JUMPDEST DUP7 ADD SWAP1 DUP2 MSTORE PUSH1 0xFF PUSH1 0x3 DUP8 DUP8 PUSH1 0x1 SWAP10 DUP11 SWAP6 SUB ADD SWAP1 KECCAK256 ADD SLOAD AND ISZERO ISZERO EQ PUSH2 0x1A9B JUMP JUMPDEST AND SWAP4 DUP5 PUSH0 MSTORE PUSH0 DUP3 MSTORE PUSH2 0x728 DUP4 PUSH1 0xFF PUSH1 0x3 PUSH1 0x4 PUSH1 0x40 PUSH0 KECCAK256 ADD DUP7 PUSH1 0x40 MLOAD DUP1 SWAP3 DUP12 MLOAD PUSH2 0x714 DUP2 DUP5 DUP13 PUSH2 0x187C JUMP JUMPDEST DUP3 ADD SWAP1 DUP2 MSTORE SUB ADD SWAP1 KECCAK256 ADD SLOAD AND ISZERO ISZERO EQ PUSH2 0x1B46 JUMP JUMPDEST PUSH2 0x734 DUP6 CALLER EQ ISZERO PUSH2 0x1BAA JUMP JUMPDEST DUP5 PUSH0 MSTORE PUSH0 DUP3 MSTORE DUP3 PUSH1 0x4 PUSH1 0x40 PUSH0 KECCAK256 ADD DUP4 PUSH1 0x40 MLOAD DUP1 SWAP3 DUP9 MLOAD PUSH2 0x755 DUP2 DUP5 DUP10 PUSH2 0x187C JUMP JUMPDEST DUP3 ADD SWAP1 DUP2 MSTORE SUB ADD SWAP1 KECCAK256 ADD CALLER PUSH0 MSTORE DUP3 MSTORE PUSH1 0x40 PUSH0 KECCAK256 SLOAD PUSH2 0x8F2 JUMPI DUP5 PUSH0 MSTORE PUSH0 DUP3 MSTORE PUSH1 0x4 PUSH1 0x40 PUSH0 KECCAK256 ADD DUP3 PUSH1 0x40 MLOAD DUP1 SWAP3 DUP8 MLOAD PUSH2 0x78D DUP2 DUP5 DUP9 PUSH2 0x187C JUMP JUMPDEST DUP3 ADD SWAP1 DUP2 MSTORE SUB ADD SWAP1 KECCAK256 DUP1 SLOAD SWAP1 DUP5 DUP3 ADD DUP1 SWAP3 GT PUSH2 0x8DE JUMPI SSTORE DUP5 PUSH0 MSTORE PUSH0 DUP3 MSTORE PUSH1 0x2 PUSH1 0x4 PUSH1 0x40 PUSH0 KECCAK256 ADD DUP4 PUSH1 0x40 MLOAD DUP1 SWAP3 DUP9 MLOAD PUSH2 0x7C6 DUP2 DUP5 DUP10 PUSH2 0x187C JUMP JUMPDEST DUP3 ADD SWAP1 DUP2 MSTORE SUB ADD SWAP1 KECCAK256 ADD DUP1 SLOAD SWAP1 PUSH1 0x1 PUSH1 0x40 SHL DUP3 LT ISZERO PUSH2 0x339 JUMPI DUP2 PUSH2 0x7F1 SWAP2 DUP7 PUSH2 0x80F SWAP5 ADD DUP2 SSTORE PUSH2 0x1A0D JUMP JUMPDEST DUP2 SLOAD PUSH1 0x1 PUSH1 0x1 PUSH1 0xA0 SHL SUB PUSH1 0x3 SWAP3 SWAP1 SWAP3 SHL SWAP2 DUP3 SHL NOT AND CALLER SWAP1 SWAP2 SHL OR SWAP1 SSTORE JUMP JUMPDEST DUP5 PUSH0 MSTORE PUSH0 DUP3 MSTORE PUSH1 0x2 PUSH1 0x4 PUSH1 0x40 PUSH0 KECCAK256 ADD DUP4 PUSH1 0x40 MLOAD DUP1 SWAP3 DUP9 MLOAD PUSH2 0x831 DUP2 DUP5 DUP10 PUSH2 0x187C JUMP JUMPDEST DUP3 ADD SWAP1 DUP2 MSTORE SUB ADD SWAP1 KECCAK256 ADD SLOAD PUSH0 NOT DUP2 ADD SWAP1 DUP2 GT PUSH2 0x8DE JUMPI DUP3 PUSH2 0x8D4 SWAP3 PUSH2 0x8C4 SWAP3 PUSH32 0xF40892AF1CEF89C48077C1923285CAC4D53FC49E28D7D981F0CD804B25704010 SWAP7 DUP10 PUSH0 MSTORE PUSH0 DUP5 MSTORE PUSH1 0x4 PUSH1 0x40 PUSH0 KECCAK256 ADD DUP5 PUSH1 0x40 MLOAD DUP1 SWAP3 DUP13 MLOAD PUSH2 0x892 DUP2 DUP5 DUP11 PUSH2 0x187C JUMP JUMPDEST DUP3 ADD SWAP1 DUP2 MSTORE SUB ADD SWAP1 KECCAK256 ADD CALLER PUSH0 MSTORE DUP4 MSTORE PUSH1 0x40 PUSH0 KECCAK256 SSTORE DUP8 PUSH0 MSTORE PUSH0 DUP3 MSTORE PUSH1 0x4 PUSH1 0x40 PUSH0 KECCAK256 ADD PUSH1 0x40 MLOAD DUP1 SWAP5 DUP2 SWAP4 DUP11 MLOAD SWAP3 DUP4 SWAP2 PUSH2 0x187C JUMP JUMPDEST DUP3 ADD SWAP1 DUP2 MSTORE SUB ADD SWAP1 KECCAK256 SLOAD SWAP4 PUSH2 0x1A36 JUMP JUMPDEST SWAP3 PUSH1 0x40 MLOAD SWAP1 DUP2 MSTORE LOG3 STOP JUMPDEST PUSH4 0x4E487B71 PUSH1 0xE0 SHL PUSH0 MSTORE PUSH1 0x11 PUSH1 0x4 MSTORE PUSH1 0x24 PUSH0 REVERT JUMPDEST PUSH1 0x40 MLOAD PUSH3 0x461BCD PUSH1 0xE5 SHL DUP2 MSTORE PUSH1 0x4 DUP2 ADD DUP4 SWAP1 MSTORE PUSH1 0x2D PUSH1 0x24 DUP3 ADD MSTORE PUSH32 0x596F7527766520616C726561647920676976656E2061206372656420746F2074 PUSH1 0x44 DUP3 ADD MSTORE PUSH13 0x3434B9903932BB34B2BBB2B917 PUSH1 0x99 SHL PUSH1 0x64 DUP3 ADD MSTORE PUSH1 0x84 SWAP1 REVERT JUMPDEST CALLVALUE PUSH2 0x109 JUMPI PUSH1 0x60 CALLDATASIZE PUSH1 0x3 NOT ADD SLT PUSH2 0x109 JUMPI PUSH2 0x966 PUSH2 0x1772 JUMP JUMPDEST PUSH1 0x24 CALLDATALOAD PUSH1 0x1 PUSH1 0x1 PUSH1 0x40 SHL SUB DUP2 GT PUSH2 0x109 JUMPI PUSH2 0x985 SWAP1 CALLDATASIZE SWAP1 PUSH1 0x4 ADD PUSH2 0x17A9 JUMP JUMPDEST SWAP1 PUSH1 0x44 CALLDATALOAD PUSH1 0x1 PUSH1 0x1 PUSH1 0xA0 SHL SUB DUP2 AND DUP2 SUB PUSH2 0x109 JUMPI PUSH1 0x20 SWAP3 PUSH2 0x9A5 SWAP3 PUSH2 0x1CAA JUMP JUMPDEST PUSH1 0x40 MLOAD SWAP1 ISZERO ISZERO DUP2 MSTORE RETURN JUMPDEST CALLVALUE PUSH2 0x109 JUMPI PUSH1 0x80 CALLDATASIZE PUSH1 0x3 NOT ADD SLT PUSH2 0x109 JUMPI PUSH1 0x4 CALLDATALOAD PUSH1 0x1 PUSH1 0x1 PUSH1 0x40 SHL SUB DUP2 GT PUSH2 0x109 JUMPI PUSH2 0x9DF SWAP1 CALLDATASIZE SWAP1 PUSH1 0x4 ADD PUSH2 0x17A9 JUMP JUMPDEST PUSH1 0x24 CALLDATALOAD PUSH1 0x1 PUSH1 0x1 PUSH1 0x40 SHL SUB DUP2 GT PUSH2 0x109 JUMPI PUSH2 0x9FE SWAP1 CALLDATASIZE SWAP1 PUSH1 0x4 ADD PUSH2 0x17A9 JUMP JUMPDEST PUSH1 0x44 CALLDATALOAD PUSH1 0x1 PUSH1 0x1 PUSH1 0x40 SHL SUB DUP2 GT PUSH2 0x109 JUMPI PUSH2 0xA1D SWAP1 CALLDATASIZE SWAP1 PUSH1 0x4 ADD PUSH2 0x1975 JUMP JUMPDEST PUSH1 0x64 CALLDATALOAD PUSH1 0x1 PUSH1 0x1 PUSH1 0x40 SHL SUB DUP2 GT PUSH2 0x109 JUMPI PUSH2 0xA3C SWAP1 CALLDATASIZE SWAP1 PUSH1 0x4 ADD PUSH2 0x1975 JUMP JUMPDEST SWAP2 CALLER PUSH0 MSTORE PUSH0 PUSH1 0x20 MSTORE PUSH1 0x40 PUSH0 KECCAK256 DUP5 MLOAD PUSH1 0x1 PUSH1 0x1 PUSH1 0x40 SHL SUB DUP2 GT PUSH2 0x339 JUMPI PUSH2 0xA62 DUP3 SLOAD PUSH2 0x1AF8 JUMP JUMPDEST PUSH1 0x1F DUP2 GT PUSH2 0x1006 JUMPI JUMPDEST POP DUP1 PUSH1 0x20 PUSH1 0x1F DUP3 GT PUSH1 0x1 EQ PUSH2 0xFA4 JUMPI PUSH0 SWAP2 PUSH2 0xF99 JUMPI JUMPDEST POP DUP2 PUSH1 0x1 SHL SWAP2 PUSH0 NOT SWAP1 PUSH1 0x3 SHL SHR NOT AND OR SWAP1 SSTORE JUMPDEST CALLER PUSH0 MSTORE PUSH0 PUSH1 0x20 MSTORE PUSH1 0x1 PUSH1 0x40 PUSH0 KECCAK256 ADD DUP2 MLOAD PUSH1 0x1 PUSH1 0x1 PUSH1 0x40 SHL SUB DUP2 GT PUSH2 0x339 JUMPI PUSH2 0xABC DUP3 SLOAD PUSH2 0x1AF8 JUMP JUMPDEST PUSH1 0x1F DUP2 GT PUSH2 0xF5E JUMPI JUMPDEST POP DUP1 PUSH1 0x20 PUSH1 0x1F DUP3 GT PUSH1 0x1 EQ PUSH2 0xEFC JUMPI PUSH0 SWAP2 PUSH2 0xEF1 JUMPI JUMPDEST POP DUP2 PUSH1 0x1 SHL SWAP2 PUSH0 NOT SWAP1 PUSH1 0x3 SHL SHR NOT AND OR SWAP1 SSTORE JUMPDEST CALLER PUSH0 MSTORE PUSH0 PUSH1 0x20 MSTORE PUSH1 0x2 PUSH1 0x40 PUSH0 KECCAK256 ADD DUP3 MLOAD PUSH1 0x1 PUSH1 0x40 SHL DUP2 GT PUSH2 0x339 JUMPI DUP2 SLOAD DUP2 DUP4 SSTORE DUP1 DUP3 LT PUSH2 0xE80 JUMPI JUMPDEST POP PUSH1 0x20 DUP5 ADD SWAP2 PUSH0 MSTORE PUSH1 0x20 PUSH0 KECCAK256 SWAP2 PUSH0 SWAP1 JUMPDEST DUP3 DUP3 LT PUSH2 0xD73 JUMPI POP POP POP POP CALLER PUSH0 MSTORE PUSH0 PUSH1 0x20 MSTORE PUSH1 0x3 PUSH1 0x40 PUSH0 KECCAK256 ADD DUP4 MLOAD PUSH1 0x1 PUSH1 0x40 SHL DUP2 GT PUSH2 0x339 JUMPI DUP2 SLOAD DUP2 DUP4 SSTORE DUP1 DUP3 LT PUSH2 0xD02 JUMPI JUMPDEST POP PUSH1 0x20 DUP6 ADD SWAP2 PUSH0 MSTORE PUSH1 0x20 PUSH0 KECCAK256 SWAP2 PUSH0 SWAP1 JUMPDEST DUP3 DUP3 LT PUSH2 0xBEA JUMPI PUSH32 0x627DDA018EB8C1473E432FA4A06937EF8127AC6112D8D9F7DD1175F81D394EDE PUSH2 0xBBB DUP10 PUSH2 0xBE5 DUP11 PUSH2 0xBD7 DUP12 PUSH2 0xBC9 DUP13 PUSH1 0x40 MLOAD SWAP8 DUP9 SWAP8 CALLER DUP10 MSTORE PUSH1 0xA0 PUSH1 0x20 DUP11 ADD MSTORE PUSH1 0xA0 DUP10 ADD SWAP1 PUSH2 0x189D JUMP JUMPDEST SWAP1 DUP8 DUP3 SUB PUSH1 0x40 DUP10 ADD MSTORE PUSH2 0x189D JUMP JUMPDEST SWAP1 DUP6 DUP3 SUB PUSH1 0x60 DUP8 ADD MSTORE PUSH2 0x18C2 JUMP JUMPDEST SWAP1 DUP4 DUP3 SUB PUSH1 0x80 DUP6 ADD MSTORE PUSH2 0x18C2 JUMP JUMPDEST SUB SWAP1 LOG1 STOP JUMPDEST DUP1 MLOAD DUP1 MLOAD SWAP1 PUSH1 0x1 PUSH1 0x1 PUSH1 0x40 SHL SUB DUP3 GT PUSH2 0x339 JUMPI PUSH2 0xC07 DUP7 SLOAD PUSH2 0x1AF8 JUMP JUMPDEST PUSH1 0x1F DUP2 GT PUSH2 0xCC7 JUMPI JUMPDEST POP PUSH1 0x20 SWAP1 PUSH1 0x1F DUP4 GT PUSH1 0x1 EQ PUSH2 0xC5B JUMPI SWAP3 DUP3 PUSH1 0x1 SWAP5 SWAP4 PUSH1 0x20 SWAP4 DUP7 SWAP6 PUSH0 SWAP3 PUSH2 0xC50 JUMPI JUMPDEST POP POP PUSH0 NOT PUSH1 0x3 DUP4 SWAP1 SHL SHR NOT AND SWAP1 DUP5 SHL OR DUP8 SSTORE JUMPDEST ADD SWAP5 ADD SWAP2 ADD SWAP1 SWAP3 PUSH2 0xB69 JUMP JUMPDEST ADD MLOAD SWAP1 POP DUP14 DUP1 PUSH2 0xC31 JUMP JUMPDEST SWAP1 DUP7 PUSH0 MSTORE PUSH1 0x20 PUSH0 KECCAK256 SWAP2 PUSH0 JUMPDEST PUSH1 0x1F NOT DUP6 AND DUP2 LT PUSH2 0xCAF JUMPI POP DUP4 PUSH1 0x20 SWAP4 PUSH1 0x1 SWAP7 SWAP4 DUP8 SWAP7 SWAP4 DUP8 SWAP5 PUSH1 0x1F NOT DUP2 AND LT PUSH2 0xC97 JUMPI JUMPDEST POP POP POP DUP2 SHL ADD DUP8 SSTORE PUSH2 0xC44 JUMP JUMPDEST ADD MLOAD PUSH0 NOT PUSH1 0xF8 DUP5 PUSH1 0x3 SHL AND SHR NOT AND SWAP1 SSTORE DUP14 DUP1 DUP1 PUSH2 0xC8A JUMP JUMPDEST SWAP2 SWAP3 PUSH1 0x20 PUSH1 0x1 DUP2 SWAP3 DUP7 DUP6 ADD MLOAD DUP2 SSTORE ADD SWAP5 ADD SWAP3 ADD PUSH2 0xC66 JUMP JUMPDEST PUSH2 0xCF2 SWAP1 DUP8 PUSH0 MSTORE PUSH1 0x20 PUSH0 KECCAK256 PUSH1 0x5 PUSH1 0x1F DUP7 ADD DUP2 SHR DUP3 ADD SWAP3 PUSH1 0x20 DUP8 LT PUSH2 0xCF8 JUMPI JUMPDEST PUSH1 0x1F ADD SWAP1 SHR ADD SWAP1 PUSH2 0x1B30 JUMP JUMPDEST DUP11 PUSH2 0xC10 JUMP JUMPDEST SWAP2 SWAP3 POP DUP3 SWAP2 PUSH2 0xCE6 JUMP JUMPDEST DUP3 PUSH0 MSTORE PUSH1 0x20 PUSH0 KECCAK256 SWAP1 DUP3 DUP3 ADD JUMPDEST DUP2 DUP4 ADD DUP2 LT PUSH2 0xD1E JUMPI POP POP PUSH2 0xB59 JUMP JUMPDEST DUP1 PUSH2 0xD2B PUSH1 0x1 SWAP3 SLOAD PUSH2 0x1AF8 JUMP JUMPDEST DUP1 PUSH2 0xD38 JUMPI JUMPDEST POP ADD PUSH2 0xD0E JUMP JUMPDEST PUSH1 0x1F DUP2 GT DUP4 EQ PUSH2 0xD4D JUMPI POP PUSH0 DUP2 SSTORE JUMPDEST DUP11 PUSH2 0xD31 JUMP JUMPDEST PUSH0 SWAP1 DUP3 DUP3 MSTORE PUSH2 0xD6A PUSH1 0x1F PUSH1 0x20 DUP5 KECCAK256 SWAP3 ADD PUSH1 0x5 SHR DUP3 ADD DUP6 DUP4 ADD PUSH2 0x1B30 JUMP JUMPDEST DUP2 DUP4 SSTORE SSTORE PUSH2 0xD47 JUMP JUMPDEST DUP1 MLOAD DUP1 MLOAD SWAP1 PUSH1 0x1 PUSH1 0x1 PUSH1 0x40 SHL SUB DUP3 GT PUSH2 0x339 JUMPI PUSH2 0xD90 DUP7 SLOAD PUSH2 0x1AF8 JUMP JUMPDEST PUSH1 0x1F DUP2 GT PUSH2 0xE50 JUMPI JUMPDEST POP PUSH1 0x20 SWAP1 PUSH1 0x1F DUP4 GT PUSH1 0x1 EQ PUSH2 0xDE4 JUMPI SWAP3 DUP3 PUSH1 0x1 SWAP5 SWAP4 PUSH1 0x20 SWAP4 DUP7 SWAP6 PUSH0 SWAP3 PUSH2 0xDD9 JUMPI JUMPDEST POP POP PUSH0 NOT PUSH1 0x3 DUP4 SWAP1 SHL SHR NOT AND SWAP1 DUP5 SHL OR DUP8 SSTORE JUMPDEST ADD SWAP5 ADD SWAP2 ADD SWAP1 SWAP3 PUSH2 0xB26 JUMP JUMPDEST ADD MLOAD SWAP1 POP DUP14 DUP1 PUSH2 0xDBA JUMP JUMPDEST SWAP1 DUP7 PUSH0 MSTORE PUSH1 0x20 PUSH0 KECCAK256 SWAP2 PUSH0 JUMPDEST PUSH1 0x1F NOT DUP6 AND DUP2 LT PUSH2 0xE38 JUMPI POP DUP4 PUSH1 0x20 SWAP4 PUSH1 0x1 SWAP7 SWAP4 DUP8 SWAP7 SWAP4 DUP8 SWAP5 PUSH1 0x1F NOT DUP2 AND LT PUSH2 0xE20 JUMPI JUMPDEST POP POP POP DUP2 SHL ADD DUP8 SSTORE PUSH2 0xDCD JUMP JUMPDEST ADD MLOAD PUSH0 NOT PUSH1 0xF8 DUP5 PUSH1 0x3 SHL AND SHR NOT AND SWAP1 SSTORE DUP14 DUP1 DUP1 PUSH2 0xE13 JUMP JUMPDEST SWAP2 SWAP3 PUSH1 0x20 PUSH1 0x1 DUP2 SWAP3 DUP7 DUP6 ADD MLOAD DUP2 SSTORE ADD SWAP5 ADD SWAP3 ADD PUSH2 0xDEF JUMP JUMPDEST PUSH2 0xE7A SWAP1 DUP8 PUSH0 MSTORE PUSH1 0x20 PUSH0 KECCAK256 PUSH1 0x5 PUSH1 0x1F DUP7 ADD DUP2 SHR DUP3 ADD SWAP3 PUSH1 0x20 DUP8 LT PUSH2 0xCF8 JUMPI PUSH1 0x1F ADD SWAP1 SHR ADD SWAP1 PUSH2 0x1B30 JUMP JUMPDEST DUP11 PUSH2 0xD99 JUMP JUMPDEST DUP3 PUSH0 MSTORE PUSH1 0x20 PUSH0 KECCAK256 SWAP1 DUP3 DUP3 ADD JUMPDEST DUP2 DUP4 ADD DUP2 LT PUSH2 0xE9C JUMPI POP POP PUSH2 0xB16 JUMP JUMPDEST DUP1 PUSH2 0xEA9 PUSH1 0x1 SWAP3 SLOAD PUSH2 0x1AF8 JUMP JUMPDEST DUP1 PUSH2 0xEB6 JUMPI JUMPDEST POP ADD PUSH2 0xE8C JUMP JUMPDEST PUSH1 0x1F DUP2 GT DUP4 EQ PUSH2 0xECB JUMPI POP PUSH0 DUP2 SSTORE JUMPDEST DUP11 PUSH2 0xEAF JUMP JUMPDEST PUSH0 SWAP1 DUP3 DUP3 MSTORE PUSH2 0xEE8 PUSH1 0x1F PUSH1 0x20 DUP5 KECCAK256 SWAP3 ADD PUSH1 0x5 SHR DUP3 ADD DUP6 DUP4 ADD PUSH2 0x1B30 JUMP JUMPDEST DUP2 DUP4 SSTORE SSTORE PUSH2 0xEC5 JUMP JUMPDEST SWAP1 POP DUP4 ADD MLOAD DUP8 PUSH2 0xADB JUMP JUMPDEST PUSH0 DUP5 DUP2 MSTORE PUSH1 0x20 DUP2 KECCAK256 SWAP3 POP PUSH1 0x1F NOT DUP5 AND SWAP1 JUMPDEST DUP2 DUP2 LT PUSH2 0xF46 JUMPI POP SWAP1 DUP4 PUSH1 0x1 SWAP5 SWAP4 SWAP3 LT PUSH2 0xF2E JUMPI JUMPDEST POP POP DUP2 SHL ADD SWAP1 SSTORE PUSH2 0xAEE JUMP JUMPDEST DUP6 ADD MLOAD PUSH0 NOT PUSH1 0xF8 DUP5 PUSH1 0x3 SHL AND SHR NOT AND SWAP1 SSTORE DUP8 DUP1 PUSH2 0xF22 JUMP JUMPDEST SWAP2 SWAP3 PUSH1 0x20 PUSH1 0x1 DUP2 SWAP3 DUP7 DUP11 ADD MLOAD DUP2 SSTORE ADD SWAP5 ADD SWAP3 ADD PUSH2 0xF0D JUMP JUMPDEST PUSH2 0xF89 SWAP1 DUP4 PUSH0 MSTORE PUSH1 0x20 PUSH0 KECCAK256 PUSH1 0x1F DUP5 ADD PUSH1 0x5 SHR DUP2 ADD SWAP2 PUSH1 0x20 DUP6 LT PUSH2 0xF8F JUMPI JUMPDEST PUSH1 0x1F ADD PUSH1 0x5 SHR ADD SWAP1 PUSH2 0x1B30 JUMP JUMPDEST DUP7 PUSH2 0xAC5 JUMP JUMPDEST SWAP1 SWAP2 POP DUP2 SWAP1 PUSH2 0xF7C JUMP JUMPDEST SWAP1 POP DUP7 ADD MLOAD DUP8 PUSH2 0xA81 JUMP JUMPDEST PUSH0 DUP5 DUP2 MSTORE PUSH1 0x20 DUP2 KECCAK256 SWAP3 POP PUSH1 0x1F NOT DUP5 AND SWAP1 JUMPDEST DUP2 DUP2 LT PUSH2 0xFEE JUMPI POP SWAP1 DUP4 PUSH1 0x1 SWAP5 SWAP4 SWAP3 LT PUSH2 0xFD6 JUMPI JUMPDEST POP POP DUP2 SHL ADD SWAP1 SSTORE PUSH2 0xA94 JUMP JUMPDEST DUP9 ADD MLOAD PUSH0 NOT PUSH1 0xF8 DUP5 PUSH1 0x3 SHL AND SHR NOT AND SWAP1 SSTORE DUP8 DUP1 PUSH2 0xFCA JUMP JUMPDEST SWAP2 SWAP3 PUSH1 0x20 PUSH1 0x1 DUP2 SWAP3 DUP7 DUP14 ADD MLOAD DUP2 SSTORE ADD SWAP5 ADD SWAP3 ADD PUSH2 0xFB5 JUMP JUMPDEST PUSH2 0x1030 SWAP1 DUP4 PUSH0 MSTORE PUSH1 0x20 PUSH0 KECCAK256 PUSH1 0x1F DUP5 ADD PUSH1 0x5 SHR DUP2 ADD SWAP2 PUSH1 0x20 DUP6 LT PUSH2 0xF8F JUMPI PUSH1 0x1F ADD PUSH1 0x5 SHR ADD SWAP1 PUSH2 0x1B30 JUMP JUMPDEST DUP7 PUSH2 0xA6B JUMP JUMPDEST CALLVALUE PUSH2 0x109 JUMPI PUSH1 0x60 CALLDATASIZE PUSH1 0x3 NOT ADD SLT PUSH2 0x109 JUMPI PUSH2 0x104F PUSH2 0x1772 JUMP JUMPDEST PUSH1 0x24 CALLDATALOAD PUSH1 0x1 PUSH1 0x1 PUSH1 0xA0 SHL SUB DUP2 DUP2 AND SWAP2 DUP3 SWAP1 SUB PUSH2 0x109 JUMPI PUSH1 0x44 CALLDATALOAD PUSH1 0x1 PUSH1 0x1 PUSH1 0x40 SHL SUB DUP2 GT PUSH2 0x109 JUMPI PUSH1 0x1 SWAP2 PUSH2 0x108A PUSH2 0x10BE SWAP3 CALLDATASIZE SWAP1 PUSH1 0x4 ADD PUSH2 0x17A9 JUMP JUMPDEST SWAP5 AND DUP1 PUSH0 MSTORE PUSH1 0x20 DUP1 SWAP6 DUP2 SWAP3 PUSH0 DUP4 MSTORE PUSH2 0x174 DUP7 PUSH1 0xFF PUSH1 0x3 PUSH1 0x4 PUSH1 0x40 PUSH0 KECCAK256 ADD PUSH1 0x40 MLOAD SWAP8 DUP9 DUP1 SWAP3 DUP10 MLOAD PUSH2 0x160 DUP2 DUP6 DUP14 ADD SWAP14 DUP15 PUSH2 0x187C JUMP JUMPDEST DUP3 ADD SWAP1 DUP2 MSTORE SUB ADD SWAP1 KECCAK256 ADD SWAP1 PUSH0 MSTORE DUP2 MSTORE PUSH1 0x40 PUSH0 KECCAK256 SLOAD PUSH1 0x40 MLOAD SWAP1 DUP2 MSTORE RETURN JUMPDEST CALLVALUE PUSH2 0x109 JUMPI PUSH0 CALLDATASIZE PUSH1 0x3 NOT ADD SLT PUSH2 0x109 JUMPI PUSH1 0x2 SLOAD PUSH1 0x40 MLOAD PUSH1 0x1 PUSH1 0x1 PUSH1 0xA0 SHL SUB SWAP1 SWAP2 AND DUP2 MSTORE PUSH1 0x20 SWAP1 RETURN JUMPDEST CALLVALUE PUSH2 0x109 JUMPI PUSH2 0x1110 CALLDATASIZE PUSH2 0x191D JUMP JUMPDEST PUSH1 0x2 DUP1 SLOAD PUSH1 0x40 MLOAD PUSH4 0x2DAC55D9 PUSH1 0xE0 SHL DUP2 MSTORE PUSH1 0x20 PUSH1 0x4 DUP3 ADD DUP2 SWAP1 MSTORE SWAP3 SWAP5 SWAP4 SWAP2 PUSH1 0x1 PUSH1 0x1 PUSH1 0xA0 SHL SUB SWAP2 PUSH1 0x24 SWAP2 DUP6 SWAP1 DUP3 SWAP1 DUP6 AND DUP2 DUP1 PUSH2 0x114E DUP8 DUP3 ADD DUP13 PUSH2 0x189D JUMP JUMPDEST SUB SWAP2 GAS STATICCALL DUP1 ISZERO PUSH2 0x411 JUMPI PUSH2 0x1168 SWAP2 PUSH0 SWAP2 PUSH2 0x15FC JUMPI POP PUSH2 0x1A56 JUMP JUMPDEST CALLER PUSH0 MSTORE PUSH0 DUP5 MSTORE PUSH1 0x4 PUSH1 0x40 PUSH0 KECCAK256 ADD SWAP3 DUP3 PUSH1 0x40 MLOAD SWAP2 PUSH2 0x11AF DUP9 MLOAD SWAP7 DUP9 DUP11 ADD SWAP8 PUSH2 0x1190 DUP2 DUP8 DUP12 PUSH2 0x187C JUMP JUMPDEST DUP6 ADD SWAP1 DUP2 MSTORE PUSH1 0xFF PUSH1 0x3 DUP7 DUP12 PUSH1 0x1 SWAP9 DUP10 SWAP6 SUB ADD SWAP1 KECCAK256 ADD SLOAD AND ISZERO ISZERO EQ PUSH2 0x1A9B JUMP JUMPDEST AND SWAP7 DUP8 PUSH0 MSTORE PUSH0 DUP7 MSTORE PUSH2 0x11DE DUP3 PUSH1 0xFF PUSH1 0x3 PUSH2 0x714 DUP11 DUP11 DUP14 PUSH1 0x4 PUSH1 0x40 PUSH0 KECCAK256 ADD SWAP1 PUSH1 0x40 MLOAD SWAP5 DUP6 SWAP4 DUP5 SWAP3 MLOAD SWAP3 DUP4 SWAP2 PUSH2 0x187C JUMP JUMPDEST PUSH2 0x11EA DUP9 CALLER EQ ISZERO PUSH2 0x1BAA JUMP JUMPDEST DUP8 PUSH0 MSTORE PUSH0 DUP7 MSTORE DUP2 PUSH1 0x4 PUSH1 0x40 PUSH0 KECCAK256 ADD DUP8 PUSH1 0x40 MLOAD DUP1 SWAP3 DUP12 MLOAD PUSH2 0x120B DUP2 DUP5 DUP14 PUSH2 0x187C JUMP JUMPDEST DUP3 ADD SWAP1 DUP2 MSTORE SUB ADD SWAP1 KECCAK256 ADD CALLER PUSH0 MSTORE DUP7 MSTORE PUSH1 0x40 PUSH0 KECCAK256 SLOAD ISZERO PUSH2 0x15A0 JUMPI DUP8 PUSH0 MSTORE PUSH0 DUP7 MSTORE PUSH1 0x4 PUSH1 0x40 PUSH0 KECCAK256 ADD DUP7 PUSH1 0x40 MLOAD DUP1 SWAP3 DUP11 MLOAD PUSH2 0x1244 DUP2 DUP5 DUP13 PUSH2 0x187C JUMP JUMPDEST DUP3 ADD SWAP1 DUP2 MSTORE SUB ADD SWAP1 KECCAK256 DUP1 SLOAD PUSH0 NOT SWAP4 SWAP2 DUP5 DUP3 ADD SWAP2 DUP3 GT PUSH2 0x1550 JUMPI SSTORE DUP9 PUSH0 MSTORE PUSH0 DUP8 MSTORE DUP1 PUSH2 0x1283 DUP9 DUP9 PUSH1 0x4 PUSH1 0x40 PUSH0 KECCAK256 ADD DUP13 PUSH1 0x40 MLOAD SWAP5 DUP6 SWAP4 DUP5 SWAP3 MLOAD SWAP3 DUP4 SWAP2 PUSH2 0x187C JUMP JUMPDEST DUP3 ADD SWAP1 DUP2 MSTORE SUB ADD SWAP1 KECCAK256 ADD CALLER PUSH0 MSTORE DUP8 MSTORE PUSH1 0x40 PUSH0 KECCAK256 SLOAD DUP10 PUSH0 MSTORE PUSH0 DUP9 MSTORE DUP2 DUP4 PUSH2 0x12BE DUP11 DUP11 DUP14 PUSH1 0x4 PUSH1 0x40 PUSH0 KECCAK256 ADD SWAP1 PUSH1 0x40 MLOAD SWAP5 DUP6 SWAP4 DUP5 SWAP3 MLOAD SWAP3 DUP4 SWAP2 PUSH2 0x187C JUMP JUMPDEST DUP3 ADD SWAP1 DUP2 MSTORE SUB ADD SWAP1 KECCAK256 ADD SLOAD GT ISZERO PUSH2 0x1563 JUMPI DUP10 PUSH0 MSTORE PUSH0 DUP9 MSTORE DUP3 PUSH2 0x12F4 DUP10 DUP10 PUSH1 0x4 PUSH1 0x40 PUSH0 KECCAK256 ADD DUP14 PUSH1 0x40 MLOAD SWAP5 DUP6 SWAP4 DUP5 SWAP3 MLOAD SWAP3 DUP4 SWAP2 PUSH2 0x187C JUMP JUMPDEST DUP3 ADD SWAP1 DUP2 MSTORE SUB ADD SWAP1 KECCAK256 ADD SLOAD DUP5 DUP2 ADD SWAP1 DUP2 GT PUSH2 0x1550 JUMPI DUP2 SUB PUSH2 0x13F5 JUMPI JUMPDEST POP DUP9 PUSH0 MSTORE PUSH0 DUP8 MSTORE PUSH1 0x4 PUSH1 0x40 PUSH0 KECCAK256 ADD DUP8 PUSH1 0x40 MLOAD DUP1 SWAP3 DUP12 MLOAD PUSH2 0x1331 DUP2 DUP5 DUP14 PUSH2 0x187C JUMP JUMPDEST DUP3 ADD SWAP1 DUP2 MSTORE SUB ADD SWAP1 KECCAK256 ADD CALLER PUSH0 MSTORE DUP7 MSTORE PUSH0 PUSH1 0x40 DUP2 KECCAK256 SSTORE DUP8 PUSH0 MSTORE PUSH0 DUP7 MSTORE PUSH1 0x4 PUSH1 0x40 PUSH0 KECCAK256 ADD DUP7 PUSH1 0x40 MLOAD DUP1 SWAP3 DUP11 MLOAD PUSH2 0x1366 DUP2 DUP5 DUP13 PUSH2 0x187C JUMP JUMPDEST DUP3 ADD SWAP1 DUP2 MSTORE SUB ADD SWAP1 KECCAK256 ADD SWAP2 DUP3 SLOAD SWAP1 DUP2 ISZERO PUSH2 0x13E2 JUMPI POP SWAP4 PUSH2 0x8D4 SWAP4 PUSH2 0x8C4 SWAP4 DUP8 SWAP7 SWAP4 PUSH32 0x762E6755472076DF5543749C551BE6860563E0A6140161161DE0BA7FF211B2E3 SWAP9 SWAP5 ADD SWAP2 PUSH2 0x13B6 DUP4 DUP4 PUSH2 0x1A0D JUMP JUMPDEST SWAP1 SWAP2 DUP3 SLOAD SWAP2 PUSH1 0x3 SHL SHL NOT AND SWAP1 SSTORE SSTORE DUP8 PUSH0 MSTORE PUSH0 DUP3 MSTORE PUSH1 0x4 PUSH1 0x40 PUSH0 KECCAK256 ADD PUSH1 0x40 MLOAD DUP1 SWAP5 DUP2 SWAP4 DUP11 MLOAD SWAP3 DUP4 SWAP2 PUSH2 0x187C JUMP JUMPDEST PUSH4 0x4E487B71 PUSH1 0xE0 SHL PUSH0 SWAP1 DUP2 MSTORE PUSH1 0x31 PUSH1 0x4 MSTORE REVERT JUMPDEST DUP10 PUSH0 MSTORE PUSH0 DUP9 MSTORE DUP3 PUSH2 0x141A DUP10 DUP10 PUSH1 0x4 PUSH1 0x40 PUSH0 KECCAK256 ADD DUP14 PUSH1 0x40 MLOAD SWAP5 DUP6 SWAP4 DUP5 SWAP3 MLOAD SWAP3 DUP4 SWAP2 PUSH2 0x187C JUMP JUMPDEST DUP3 ADD SWAP1 DUP2 MSTORE SUB ADD SWAP1 KECCAK256 ADD DUP11 PUSH0 MSTORE PUSH0 DUP10 MSTORE DUP4 PUSH2 0x144A DUP11 DUP11 DUP14 PUSH1 0x4 PUSH1 0x40 PUSH0 KECCAK256 ADD SWAP1 PUSH1 0x40 MLOAD SWAP5 DUP6 SWAP4 DUP5 SWAP3 MLOAD SWAP3 DUP4 SWAP2 PUSH2 0x187C JUMP JUMPDEST DUP3 ADD SWAP1 DUP2 MSTORE SUB ADD SWAP1 KECCAK256 ADD SLOAD SWAP1 DUP6 DUP3 ADD SWAP2 DUP3 GT PUSH2 0x153D JUMPI PUSH2 0x1526 DUP4 DUP7 PUSH2 0x14AE DUP16 SWAP6 DUP16 DUP16 SWAP2 SWAP1 DUP16 SWAP2 DUP16 PUSH2 0x147F PUSH2 0x14DC SWAP3 DUP3 SWAP12 PUSH2 0x1A0D JUMP JUMPDEST SWAP1 SLOAD SWAP1 PUSH1 0x3 SHL SHR AND DUP11 PUSH0 MSTORE PUSH0 DUP6 MSTORE PUSH2 0x14BD DUP9 DUP9 PUSH1 0x4 PUSH1 0x40 PUSH0 KECCAK256 ADD DUP9 PUSH1 0x40 MLOAD DUP1 SWAP3 DUP2 PUSH2 0x14AE DUP13 DUP13 MLOAD SWAP3 DUP4 SWAP2 PUSH2 0x187C JUMP JUMPDEST DUP3 ADD SWAP1 DUP2 MSTORE SUB ADD SWAP1 KECCAK256 ADD PUSH2 0x1A0D JUMP JUMPDEST SWAP1 SWAP2 SWAP1 DUP3 SLOAD SWAP1 PUSH1 0x3 SHL SWAP2 PUSH1 0x1 DUP1 PUSH1 0xA0 SHL SUB DUP1 SWAP2 AND DUP4 SHL SWAP3 SHL NOT AND OR SWAP1 SSTORE JUMP JUMPDEST DUP9 PUSH0 MSTORE PUSH0 DUP4 MSTORE DUP11 PUSH1 0x4 PUSH1 0x40 PUSH0 KECCAK256 ADD DUP5 PUSH1 0x40 MLOAD DUP1 SWAP3 DUP6 MLOAD PUSH2 0x14FD DUP2 DUP5 DUP11 PUSH2 0x187C JUMP JUMPDEST DUP3 ADD SWAP1 DUP2 MSTORE SUB ADD SWAP1 KECCAK256 ADD SWAP9 PUSH0 MSTORE PUSH0 DUP4 MSTORE PUSH1 0x4 PUSH1 0x40 PUSH0 KECCAK256 ADD SWAP1 PUSH1 0x40 MLOAD SWAP5 DUP6 SWAP4 DUP5 SWAP3 MLOAD SWAP3 DUP4 SWAP2 PUSH2 0x187C JUMP JUMPDEST SWAP1 SLOAD SWAP1 PUSH1 0x3 SHL SHR AND PUSH0 MSTORE DUP9 MSTORE PUSH1 0x40 PUSH0 KECCAK256 SSTORE DUP10 PUSH2 0x1310 JUMP JUMPDEST DUP7 PUSH4 0x4E487B71 PUSH1 0xE0 SHL PUSH0 MSTORE PUSH1 0x11 PUSH1 0x4 MSTORE PUSH0 REVERT JUMPDEST DUP6 PUSH4 0x4E487B71 PUSH1 0xE0 SHL PUSH0 MSTORE PUSH1 0x11 PUSH1 0x4 MSTORE PUSH0 REVERT JUMPDEST PUSH1 0x40 MLOAD PUSH3 0x461BCD PUSH1 0xE5 SHL DUP2 MSTORE PUSH1 0x4 DUP2 ADD DUP10 SWAP1 MSTORE PUSH1 0x16 DUP2 DUP8 ADD MSTORE PUSH22 0x54686973207573657220686173206E6F204372656473 PUSH1 0x50 SHL PUSH1 0x44 DUP3 ADD MSTORE PUSH1 0x64 SWAP1 REVERT JUMPDEST PUSH1 0x40 MLOAD PUSH3 0x461BCD PUSH1 0xE5 SHL DUP2 MSTORE PUSH1 0x4 DUP2 ADD DUP8 SWAP1 MSTORE PUSH1 0x2F DUP2 DUP6 ADD MSTORE PUSH32 0x596F752068617665206E6F7420676976656E2061206372656420746F20746869 PUSH1 0x44 DUP3 ADD MSTORE PUSH15 0x39903932BB34B2BBB2B9103CB2BA17 PUSH1 0x89 SHL PUSH1 0x64 DUP3 ADD MSTORE PUSH1 0x84 SWAP1 REVERT JUMPDEST PUSH2 0x1613 SWAP2 POP DUP7 RETURNDATASIZE DUP9 GT PUSH2 0x40A JUMPI PUSH2 0x3FC DUP2 DUP4 PUSH2 0x1788 JUMP JUMPDEST DUP9 PUSH2 0x520 JUMP JUMPDEST CALLVALUE PUSH2 0x109 JUMPI PUSH1 0x20 CALLDATASIZE PUSH1 0x3 NOT ADD SLT PUSH2 0x109 JUMPI PUSH1 0x1 PUSH1 0x1 PUSH1 0xA0 SHL SUB PUSH2 0x163A PUSH2 0x1772 JUMP JUMPDEST AND PUSH0 MSTORE PUSH0 PUSH1 0x20 MSTORE PUSH2 0x1695 PUSH1 0x40 PUSH0 KECCAK256 PUSH2 0x1B6 PUSH2 0x1654 DUP3 PUSH2 0x1D00 JUMP JUMPDEST SWAP2 PUSH2 0x16B1 PUSH2 0x1664 PUSH1 0x1 DUP4 ADD PUSH2 0x1D00 JUMP JUMPDEST SWAP2 PUSH2 0x16A3 PUSH2 0x1680 PUSH1 0x3 PUSH2 0x1679 PUSH1 0x2 DUP6 ADD PUSH2 0x1D9F JUMP JUMPDEST SWAP4 ADD PUSH2 0x1D9F JUMP JUMPDEST SWAP4 PUSH1 0x40 MLOAD SWAP8 DUP9 SWAP8 PUSH1 0x80 DUP10 MSTORE PUSH1 0x80 DUP10 ADD SWAP1 PUSH2 0x189D JUMP JUMPDEST SWAP1 DUP8 DUP3 SUB PUSH1 0x20 DUP10 ADD MSTORE PUSH2 0x189D JUMP JUMPDEST SWAP1 DUP6 DUP3 SUB PUSH1 0x40 DUP8 ADD MSTORE PUSH2 0x18C2 JUMP JUMPDEST SWAP1 DUP4 DUP3 SUB PUSH1 0x60 DUP6 ADD MSTORE PUSH2 0x18C2 JUMP JUMPDEST CALLVALUE PUSH2 0x109 JUMPI PUSH2 0x16CD CALLDATASIZE PUSH2 0x17FE JUMP JUMPDEST SWAP1 PUSH1 0x1 DUP1 PUSH1 0xA0 SHL SUB AND DUP1 PUSH0 MSTORE PUSH2 0x1B6 PUSH2 0x175C PUSH1 0x2 PUSH2 0x192 PUSH1 0x20 DUP1 SWAP7 PUSH0 DUP3 MSTORE PUSH1 0x4 PUSH1 0x40 PUSH0 KECCAK256 ADD SWAP1 PUSH2 0x1713 PUSH1 0x1 PUSH1 0xFF PUSH1 0x3 PUSH1 0x40 MLOAD DUP8 DUP2 DUP8 MLOAD SWAP9 DUP3 DUP10 ADD SWAP10 PUSH2 0x160 DUP2 DUP5 DUP14 PUSH2 0x187C JUMP JUMPDEST DUP8 PUSH0 MSTORE PUSH0 DUP4 MSTORE PUSH1 0x4 PUSH1 0x40 PUSH0 KECCAK256 ADD DUP4 PUSH1 0x40 MLOAD DUP1 SWAP3 DUP5 MLOAD PUSH2 0x1733 DUP2 DUP5 DUP10 PUSH2 0x187C JUMP JUMPDEST DUP3 ADD SWAP1 DUP2 MSTORE SUB ADD SWAP1 KECCAK256 SLOAD SWAP8 PUSH0 MSTORE PUSH0 DUP4 MSTORE PUSH1 0x4 PUSH1 0x40 PUSH0 KECCAK256 ADD SWAP1 PUSH1 0x40 MLOAD SWAP5 DUP6 SWAP4 DUP5 SWAP3 MLOAD SWAP3 DUP4 SWAP2 PUSH2 0x187C JUMP JUMPDEST PUSH1 0x40 DUP1 MLOAD SWAP5 DUP6 SWAP5 DUP6 MSTORE DUP5 ADD MSTORE PUSH1 0x40 DUP4 ADD SWAP1 PUSH2 0x1840 JUMP JUMPDEST PUSH1 0x4 CALLDATALOAD SWAP1 PUSH1 0x1 PUSH1 0x1 PUSH1 0xA0 SHL SUB DUP3 AND DUP3 SUB PUSH2 0x109 JUMPI JUMP JUMPDEST SWAP1 PUSH1 0x1F DUP1 NOT SWAP2 ADD AND DUP2 ADD SWAP1 DUP2 LT PUSH1 0x1 PUSH1 0x1 PUSH1 0x40 SHL SUB DUP3 GT OR PUSH2 0x339 JUMPI PUSH1 0x40 MSTORE JUMP JUMPDEST DUP2 PUSH1 0x1F DUP3 ADD SLT ISZERO PUSH2 0x109 JUMPI DUP1 CALLDATALOAD SWAP1 PUSH1 0x1 PUSH1 0x1 PUSH1 0x40 SHL SUB DUP3 GT PUSH2 0x339 JUMPI PUSH1 0x40 MLOAD SWAP3 PUSH2 0x17DD PUSH1 0x1F DUP5 ADD PUSH1 0x1F NOT AND PUSH1 0x20 ADD DUP6 PUSH2 0x1788 JUMP JUMPDEST DUP3 DUP5 MSTORE PUSH1 0x20 DUP4 DUP4 ADD ADD GT PUSH2 0x109 JUMPI DUP2 PUSH0 SWAP3 PUSH1 0x20 DUP1 SWAP4 ADD DUP4 DUP7 ADD CALLDATACOPY DUP4 ADD ADD MSTORE SWAP1 JUMP JUMPDEST SWAP1 PUSH1 0x40 PUSH1 0x3 NOT DUP4 ADD SLT PUSH2 0x109 JUMPI PUSH1 0x4 CALLDATALOAD PUSH1 0x1 PUSH1 0x1 PUSH1 0xA0 SHL SUB DUP2 AND DUP2 SUB PUSH2 0x109 JUMPI SWAP2 PUSH1 0x24 CALLDATALOAD SWAP1 PUSH1 0x1 PUSH1 0x1 PUSH1 0x40 SHL SUB DUP3 GT PUSH2 0x109 JUMPI PUSH2 0x183D SWAP2 PUSH1 0x4 ADD PUSH2 0x17A9 JUMP JUMPDEST SWAP1 JUMP JUMPDEST SWAP1 DUP2 MLOAD DUP1 DUP3 MSTORE PUSH1 0x20 DUP1 DUP1 SWAP4 ADD SWAP4 ADD SWAP2 PUSH0 JUMPDEST DUP3 DUP2 LT PUSH2 0x185F JUMPI POP POP POP POP SWAP1 JUMP JUMPDEST DUP4 MLOAD PUSH1 0x1 PUSH1 0x1 PUSH1 0xA0 SHL SUB AND DUP6 MSTORE SWAP4 DUP2 ADD SWAP4 SWAP3 DUP2 ADD SWAP3 PUSH1 0x1 ADD PUSH2 0x1851 JUMP JUMPDEST PUSH0 JUMPDEST DUP4 DUP2 LT PUSH2 0x188D JUMPI POP POP PUSH0 SWAP2 ADD MSTORE JUMP JUMPDEST DUP2 DUP2 ADD MLOAD DUP4 DUP3 ADD MSTORE PUSH1 0x20 ADD PUSH2 0x187E JUMP JUMPDEST SWAP1 PUSH1 0x20 SWAP2 PUSH2 0x18B6 DUP2 MLOAD DUP1 SWAP3 DUP2 DUP6 MSTORE DUP6 DUP1 DUP7 ADD SWAP2 ADD PUSH2 0x187C JUMP JUMPDEST PUSH1 0x1F ADD PUSH1 0x1F NOT AND ADD ADD SWAP1 JUMP JUMPDEST SWAP1 DUP1 DUP3 MLOAD SWAP1 DUP2 DUP2 MSTORE PUSH1 0x20 DUP1 SWAP2 ADD SWAP3 DUP2 DUP1 DUP5 PUSH1 0x5 SHL DUP4 ADD ADD SWAP6 ADD SWAP4 PUSH0 SWAP2 JUMPDEST DUP5 DUP4 LT PUSH2 0x18EF JUMPI POP POP POP POP POP POP SWAP1 JUMP JUMPDEST SWAP1 SWAP2 SWAP3 SWAP4 SWAP5 SWAP6 DUP5 DUP1 PUSH2 0x190D PUSH1 0x1 SWAP4 PUSH1 0x1F NOT DUP7 DUP3 SUB ADD DUP8 MSTORE DUP11 MLOAD PUSH2 0x189D JUMP JUMPDEST SWAP9 ADD SWAP4 ADD SWAP4 ADD SWAP2 SWAP5 SWAP4 SWAP3 SWAP1 PUSH2 0x18DF JUMP JUMPDEST PUSH1 0x40 PUSH1 0x3 NOT DUP3 ADD SLT PUSH2 0x109 JUMPI PUSH1 0x4 CALLDATALOAD SWAP1 PUSH1 0x1 PUSH1 0x1 PUSH1 0x40 SHL SUB DUP3 GT PUSH2 0x109 JUMPI PUSH2 0x1947 SWAP2 PUSH1 0x4 ADD PUSH2 0x17A9 JUMP JUMPDEST SWAP1 PUSH1 0x24 CALLDATALOAD PUSH1 0x1 PUSH1 0x1 PUSH1 0xA0 SHL SUB DUP2 AND DUP2 SUB PUSH2 0x109 JUMPI SWAP1 JUMP JUMPDEST PUSH1 0x1 PUSH1 0x1 PUSH1 0x40 SHL SUB DUP2 GT PUSH2 0x339 JUMPI PUSH1 0x5 SHL PUSH1 0x20 ADD SWAP1 JUMP JUMPDEST SWAP1 DUP1 PUSH1 0x1F DUP4 ADD SLT ISZERO PUSH2 0x109 JUMPI DUP2 CALLDATALOAD SWAP1 PUSH2 0x198D DUP3 PUSH2 0x195E JUMP JUMPDEST SWAP3 PUSH2 0x199B PUSH1 0x40 MLOAD SWAP5 DUP6 PUSH2 0x1788 JUMP JUMPDEST DUP3 DUP5 MSTORE PUSH1 0x20 SWAP3 DUP4 DUP1 DUP7 ADD SWAP2 PUSH1 0x5 SHL DUP4 ADD ADD SWAP3 DUP1 DUP5 GT PUSH2 0x109 JUMPI DUP5 DUP4 ADD SWAP2 JUMPDEST DUP5 DUP4 LT PUSH2 0x19C9 JUMPI POP POP POP POP POP POP SWAP1 JUMP JUMPDEST DUP3 CALLDATALOAD PUSH1 0x1 PUSH1 0x1 PUSH1 0x40 SHL SUB DUP2 GT PUSH2 0x109 JUMPI DUP7 SWAP2 PUSH2 0x19EA DUP5 DUP5 DUP1 SWAP5 DUP10 ADD ADD PUSH2 0x17A9 JUMP JUMPDEST DUP2 MSTORE ADD SWAP3 ADD SWAP2 PUSH2 0x19B9 JUMP JUMPDEST SWAP1 DUP2 PUSH1 0x20 SWAP2 SUB SLT PUSH2 0x109 JUMPI MLOAD DUP1 ISZERO ISZERO DUP2 SUB PUSH2 0x109 JUMPI SWAP1 JUMP JUMPDEST DUP1 SLOAD DUP3 LT ISZERO PUSH2 0x1A22 JUMPI PUSH0 MSTORE PUSH1 0x20 PUSH0 KECCAK256 ADD SWAP1 PUSH0 SWAP1 JUMP JUMPDEST PUSH4 0x4E487B71 PUSH1 0xE0 SHL PUSH0 MSTORE PUSH1 0x32 PUSH1 0x4 MSTORE PUSH1 0x24 PUSH0 REVERT JUMPDEST PUSH2 0x1A4E SWAP1 PUSH1 0x20 PUSH1 0x40 MLOAD SWAP3 DUP3 DUP5 DUP1 SWAP5 MLOAD SWAP4 DUP5 SWAP3 ADD PUSH2 0x187C JUMP JUMPDEST DUP2 ADD SUB SWAP1 KECCAK256 SWAP1 JUMP JUMPDEST ISZERO PUSH2 0x1A5D JUMPI JUMP JUMPDEST PUSH1 0x40 MLOAD PUSH3 0x461BCD PUSH1 0xE5 SHL DUP2 MSTORE PUSH1 0x20 PUSH1 0x4 DUP3 ADD MSTORE PUSH1 0x16 PUSH1 0x24 DUP3 ADD MSTORE PUSH22 0x14DD589A9958DD08111BD95CC8139BDD08115E1A5CDD PUSH1 0x52 SHL PUSH1 0x44 DUP3 ADD MSTORE PUSH1 0x64 SWAP1 REVERT JUMPDEST ISZERO PUSH2 0x1AA2 JUMPI JUMP JUMPDEST PUSH1 0x40 MLOAD PUSH3 0x461BCD PUSH1 0xE5 SHL DUP2 MSTORE PUSH1 0x20 PUSH1 0x4 DUP3 ADD MSTORE PUSH1 0x28 PUSH1 0x24 DUP3 ADD MSTORE PUSH32 0x596F7520617265206E6F74206120726576696577657220666F72207468697320 PUSH1 0x44 DUP3 ADD MSTORE PUSH8 0x39BAB13532B1BA17 PUSH1 0xC1 SHL PUSH1 0x64 DUP3 ADD MSTORE PUSH1 0x84 SWAP1 REVERT JUMPDEST SWAP1 PUSH1 0x1 DUP3 DUP2 SHR SWAP3 AND DUP1 ISZERO PUSH2 0x1B26 JUMPI JUMPDEST PUSH1 0x20 DUP4 LT EQ PUSH2 0x1B12 JUMPI JUMP JUMPDEST PUSH4 0x4E487B71 PUSH1 0xE0 SHL PUSH0 MSTORE PUSH1 0x22 PUSH1 0x4 MSTORE PUSH1 0x24 PUSH0 REVERT JUMPDEST SWAP2 PUSH1 0x7F AND SWAP2 PUSH2 0x1B07 JUMP JUMPDEST DUP2 DUP2 LT PUSH2 0x1B3B JUMPI POP POP JUMP JUMPDEST PUSH0 DUP2 SSTORE PUSH1 0x1 ADD PUSH2 0x1B30 JUMP JUMPDEST ISZERO PUSH2 0x1B4D JUMPI JUMP JUMPDEST PUSH1 0x40 MLOAD PUSH3 0x461BCD PUSH1 0xE5 SHL DUP2 MSTORE PUSH1 0x20 PUSH1 0x4 DUP3 ADD MSTORE PUSH1 0x2F PUSH1 0x24 DUP3 ADD MSTORE PUSH32 0x54617267657420726576696577657220646F65736E277420657869737420666F PUSH1 0x44 DUP3 ADD MSTORE PUSH15 0x39103A3434B99039BAB13532B1BA17 PUSH1 0x89 SHL PUSH1 0x64 DUP3 ADD MSTORE PUSH1 0x84 SWAP1 REVERT JUMPDEST ISZERO PUSH2 0x1BB1 JUMPI JUMP JUMPDEST PUSH1 0x40 MLOAD PUSH3 0x461BCD PUSH1 0xE5 SHL DUP2 MSTORE PUSH1 0x20 PUSH1 0x4 DUP3 ADD MSTORE PUSH1 0x1F PUSH1 0x24 DUP3 ADD MSTORE PUSH32 0x596F752063616E6E6F74206564697420796F7572206F776E2063726564732E00 PUSH1 0x44 DUP3 ADD MSTORE PUSH1 0x64 SWAP1 REVERT JUMPDEST ISZERO PUSH2 0x1BFD JUMPI JUMP JUMPDEST PUSH1 0x40 MLOAD PUSH3 0x461BCD PUSH1 0xE5 SHL DUP2 MSTORE PUSH1 0x20 PUSH1 0x4 DUP3 ADD MSTORE PUSH1 0x28 PUSH1 0x24 DUP3 ADD MSTORE PUSH32 0x526576696577657220446F6573204E6F7420457869737420466F722074686973 PUSH1 0x44 DUP3 ADD MSTORE PUSH8 0x81CDD589A9958DD PUSH1 0xC2 SHL PUSH1 0x64 DUP3 ADD MSTORE PUSH1 0x84 SWAP1 REVERT JUMPDEST SWAP1 PUSH1 0x40 MLOAD SWAP2 DUP3 DUP2 SLOAD SWAP2 DUP3 DUP3 MSTORE PUSH1 0x20 SWAP3 DUP4 DUP4 ADD SWAP2 PUSH0 MSTORE DUP4 PUSH0 KECCAK256 SWAP4 PUSH0 SWAP1 JUMPDEST DUP3 DUP3 LT PUSH2 0x1C87 JUMPI POP POP POP PUSH2 0x1C85 SWAP3 POP SUB DUP4 PUSH2 0x1788 JUMP JUMPDEST JUMP JUMPDEST DUP6 SLOAD PUSH1 0x1 PUSH1 0x1 PUSH1 0xA0 SHL SUB AND DUP5 MSTORE PUSH1 0x1 SWAP6 DUP7 ADD SWAP6 DUP9 SWAP6 POP SWAP4 DUP2 ADD SWAP4 SWAP1 SWAP2 ADD SWAP1 PUSH2 0x1C6F JUMP JUMPDEST SWAP2 SWAP1 PUSH1 0x1 PUSH2 0x1CDD PUSH1 0x20 DUP3 DUP1 PUSH1 0xA0 SHL SUB SWAP4 DUP5 PUSH0 SWAP8 AND DUP8 MSTORE DUP7 DUP3 MSTORE PUSH1 0x4 PUSH1 0x40 DUP9 KECCAK256 ADD DUP3 PUSH1 0x40 MLOAD SWAP5 DUP4 DUP7 DUP1 SWAP6 MLOAD SWAP4 DUP5 SWAP3 ADD PUSH2 0x187C JUMP JUMPDEST DUP3 ADD SWAP1 DUP2 MSTORE SUB ADD SWAP1 KECCAK256 ADD SWAP2 AND DUP3 MSTORE PUSH1 0x20 MSTORE PUSH1 0x40 DUP2 KECCAK256 SLOAD ISZERO PUSH0 EQ PUSH2 0x183D JUMPI POP PUSH1 0x1 SWAP1 JUMP JUMPDEST SWAP1 PUSH1 0x40 MLOAD SWAP2 DUP3 PUSH0 DUP3 SLOAD SWAP3 PUSH2 0x1D13 DUP5 PUSH2 0x1AF8 JUMP JUMPDEST SWAP1 DUP2 DUP5 MSTORE PUSH1 0x1 SWAP5 DUP6 DUP2 AND SWAP1 DUP2 PUSH0 EQ PUSH2 0x1D7C JUMPI POP PUSH1 0x1 EQ PUSH2 0x1D3C JUMPI JUMPDEST POP POP PUSH2 0x1C85 SWAP3 POP SUB DUP4 PUSH2 0x1788 JUMP JUMPDEST SWAP1 SWAP4 SWAP2 POP PUSH0 MSTORE PUSH1 0x20 SWAP1 DUP2 PUSH0 KECCAK256 SWAP4 PUSH0 SWAP2 JUMPDEST DUP2 DUP4 LT PUSH2 0x1D64 JUMPI POP POP PUSH2 0x1C85 SWAP4 POP DUP3 ADD ADD PUSH0 DUP1 PUSH2 0x1D2E JUMP JUMPDEST DUP6 SLOAD DUP9 DUP5 ADD DUP6 ADD MSTORE SWAP5 DUP6 ADD SWAP5 DUP8 SWAP5 POP SWAP2 DUP4 ADD SWAP2 PUSH2 0x1D4C JUMP JUMPDEST SWAP2 POP POP PUSH2 0x1C85 SWAP5 POP PUSH1 0x20 SWAP3 POP PUSH1 0xFF NOT AND DUP3 DUP5 ADD MSTORE ISZERO ISZERO PUSH1 0x5 SHL DUP3 ADD ADD PUSH0 DUP1 PUSH2 0x1D2E JUMP JUMPDEST SWAP1 DUP2 SLOAD PUSH2 0x1DAB DUP2 PUSH2 0x195E JUMP JUMPDEST SWAP3 PUSH2 0x1DB9 PUSH1 0x40 MLOAD SWAP5 DUP6 PUSH2 0x1788 JUMP JUMPDEST DUP2 DUP5 MSTORE PUSH0 SWAP1 DUP2 MSTORE PUSH1 0x20 DUP1 DUP3 KECCAK256 DUP2 DUP7 ADD JUMPDEST DUP5 DUP5 LT PUSH2 0x1DD7 JUMPI POP POP POP POP POP JUMP JUMPDEST PUSH1 0x1 DUP4 DUP2 SWAP3 PUSH2 0x1DE5 DUP6 PUSH2 0x1D00 JUMP JUMPDEST DUP2 MSTORE ADD SWAP3 ADD SWAP4 ADD SWAP3 SWAP1 PUSH2 0x1DC9 JUMP INVALID LOG2 PUSH5 0x6970667358 0x22 SLT KECCAK256 PUSH18 0x3BA5F33AA856835BEAFAE833D8871B3879F8 PUSH4 0x9232FACC EQ LOG0 0xE3 LOG3 MULMOD POP 0xAD 0xBF PUSH5 0x736F6C6343 STOP ADDMOD EQ STOP CALLER "},"methodIdentifiers":{"addCredsToReviewer(string,address)":"585e01e4","addSelfAsReviewer(string)":"6f20d2a8","getIsReviewer(address,string)":"97206ab7","getReiewerSubjectInfo(address,string)":"016f11b3","getReviewerCredIndex(address,address,string)":"30e29a3a","getReviewerCreds(address,string)":"598f921b","getReviewerCredsList(address,string)":"85d9d19f","getReviewerInfo(address)":"072c1f41","hasReviewerGivenCred(address,string,address)":"3e8e033d","removeCredsFromReviewer(string,address)":"18f6b962","removeSelfAsReviewer(string)":"66ea653a","setlearntgetherSubjects(address)":"6e405a5f","subjectsContract()":"2faa64ce","updateReviewerInfo(string,string,string[],string[])":"38a87e55"}}}}}