{"contracts/tgehterPostConsensus.sol":{"tgetherPostConsensus":{"abi":[{"inputs":[{"internalType":"address","name":"_CommunityConsensusAddress","type":"address"},{"internalType":"address","name":"_MembersContract","type":"address"},{"internalType":"address","name":"_PostContract","type":"address"},{"internalType":"uint256","name":"_fee","type":"uint256"}],"stateMutability":"nonpayable","type":"constructor"},{"anonymous":false,"inputs":[{"indexed":true,"internalType":"uint256","name":"communtiySubmissionId","type":"uint256"},{"indexed":true,"internalType":"string","name":"communityName","type":"string"},{"indexed":false,"internalType":"uint256","name":"timestamp","type":"uint256"},{"indexed":false,"internalType":"uint256","name":"consensusTime","type":"uint256"}],"name":"CommunitySubmitted","type":"event"},{"anonymous":false,"inputs":[{"indexed":true,"internalType":"uint256","name":"communitySubmissionId","type":"uint256"},{"indexed":false,"internalType":"uint256","name":"postId","type":"uint256"},{"indexed":false,"internalType":"string","name":"newConsensus","type":"string"}],"name":"ConsensusUpdated","type":"event"},{"anonymous":false,"inputs":[{"indexed":false,"internalType":"uint256","name":"postId","type":"uint256"},{"indexed":false,"internalType":"string","name":"keyword","type":"string"}],"name":"Keywords","type":"event"},{"anonymous":false,"inputs":[{"indexed":true,"internalType":"uint256","name":"postId","type":"uint256"},{"indexed":true,"internalType":"uint256","name":"communitySubmissionId","type":"uint256"}],"name":"PostSubmission","type":"event"},{"anonymous":false,"inputs":[{"indexed":true,"internalType":"uint256","name":"reviewId","type":"uint256"},{"indexed":true,"internalType":"uint256","name":"communitySubmissionId","type":"uint256"},{"indexed":true,"internalType":"address","name":"member","type":"address"}],"name":"ReviewCreated","type":"event"},{"anonymous":false,"inputs":[{"indexed":true,"internalType":"uint256","name":"reviewId","type":"uint256"},{"indexed":false,"internalType":"string","name":"consensus","type":"string"},{"indexed":false,"internalType":"uint256","name":"creds","type":"uint256"},{"indexed":false,"internalType":"string","name":"content","type":"string"},{"indexed":false,"internalType":"bool","name":"afterConsensus","type":"bool"}],"name":"ReviewSubmitted","type":"event"},{"inputs":[],"name":"CommunityConsensusContract","outputs":[{"internalType":"contract tgetherCommunityConsensusInterface","name":"","type":"address"}],"stateMutability":"view","type":"function"},{"inputs":[{"internalType":"uint256","name":"","type":"uint256"}],"name":"CommunitySubmissionToPost","outputs":[{"internalType":"uint256","name":"","type":"uint256"}],"stateMutability":"view","type":"function"},{"inputs":[{"internalType":"uint256","name":"","type":"uint256"}],"name":"CommunitySubmissions","outputs":[{"internalType":"string","name":"communityName","type":"string"},{"internalType":"uint256","name":"timestamp","type":"uint256"},{"internalType":"uint256","name":"consensusTime","type":"uint256"},{"internalType":"enum tgetherPostConsensus.Consensus","name":"consensus","type":"uint8"}],"stateMutability":"view","type":"function"},{"inputs":[],"name":"MembersContract","outputs":[{"internalType":"contract tgetherMembersInterface","name":"","type":"address"}],"stateMutability":"view","type":"function"},{"inputs":[{"internalType":"uint256","name":"","type":"uint256"},{"internalType":"uint256","name":"","type":"uint256"}],"name":"PostSubmissionList","outputs":[{"internalType":"uint256","name":"","type":"uint256"}],"stateMutability":"view","type":"function"},{"inputs":[],"name":"PostsContract","outputs":[{"internalType":"contract tgetherPostsInterface","name":"","type":"address"}],"stateMutability":"view","type":"function"},{"inputs":[{"internalType":"uint256","name":"","type":"uint256"}],"name":"SubmissionLane","outputs":[{"internalType":"uint256","name":"","type":"uint256"}],"stateMutability":"view","type":"function"},{"inputs":[],"name":"consensusFee","outputs":[{"internalType":"uint256","name":"","type":"uint256"}],"stateMutability":"view","type":"function"},{"inputs":[],"name":"csCounter","outputs":[{"internalType":"uint256","name":"","type":"uint256"}],"stateMutability":"view","type":"function"},{"inputs":[{"internalType":"uint256","name":"submissionId","type":"uint256"}],"name":"getCheckSubmissionForUpkeep","outputs":[{"internalType":"bool","name":"upkeepNeeded","type":"bool"},{"internalType":"int256","name":"resultId","type":"int256"}],"stateMutability":"view","type":"function"},{"inputs":[{"internalType":"uint256","name":"_communitySubmissionId","type":"uint256"}],"name":"getCommunitySubmission","outputs":[{"components":[{"internalType":"string","name":"communityName","type":"string"},{"internalType":"uint256","name":"timestamp","type":"uint256"},{"internalType":"uint256","name":"consensusTime","type":"uint256"},{"internalType":"enum tgetherPostConsensus.Consensus","name":"consensus","type":"uint8"}],"internalType":"struct tgetherPostConsensus.CommunitySubmission","name":"","type":"tuple"}],"stateMutability":"view","type":"function"},{"inputs":[{"internalType":"uint256","name":"_submissionId","type":"uint256"}],"name":"getPostConsesous","outputs":[{"internalType":"enum tgetherPostConsensus.Consensus","name":"","type":"uint8"}],"stateMutability":"view","type":"function"},{"inputs":[{"internalType":"uint256","name":"_postId","type":"uint256"}],"name":"getPostSubmissionCommunity","outputs":[{"internalType":"string","name":"","type":"string"}],"stateMutability":"view","type":"function"},{"inputs":[{"internalType":"uint256","name":"_postId","type":"uint256"}],"name":"getPostSubmissionConsensus","outputs":[{"internalType":"string","name":"","type":"string"}],"stateMutability":"view","type":"function"},{"inputs":[{"internalType":"uint256","name":"_postId","type":"uint256"}],"name":"getPostSubmissionList","outputs":[{"internalType":"uint256[]","name":"","type":"uint256[]"}],"stateMutability":"view","type":"function"},{"inputs":[{"internalType":"uint256","name":"_reviewId","type":"uint256"}],"name":"getReview","outputs":[{"components":[{"internalType":"address","name":"member","type":"address"},{"internalType":"string","name":"content","type":"string"},{"internalType":"uint256","name":"consensus","type":"uint256"},{"internalType":"string","name":"consensusType","type":"string"},{"internalType":"uint256","name":"creds","type":"uint256"},{"internalType":"bool","name":"afterConsensus","type":"bool"}],"internalType":"struct tgetherPostConsensus.Review","name":"","type":"tuple"}],"stateMutability":"view","type":"function"},{"inputs":[{"internalType":"uint256","name":"_reviewid","type":"uint256"}],"name":"getReviewConsenous","outputs":[{"internalType":"uint256","name":"consensus","type":"uint256"},{"internalType":"uint256","name":"creds","type":"uint256"},{"internalType":"bool","name":"afterConsensus","type":"bool"}],"stateMutability":"view","type":"function"},{"inputs":[{"internalType":"uint256","name":"_submissionId","type":"uint256"}],"name":"getReviewsForSubmission","outputs":[{"internalType":"uint256[]","name":"","type":"uint256[]"}],"stateMutability":"view","type":"function"},{"inputs":[{"internalType":"uint256","name":"_submissionId","type":"uint256"}],"name":"getSubmissionExpiration","outputs":[{"internalType":"uint256","name":"","type":"uint256"}],"stateMutability":"view","type":"function"},{"inputs":[{"internalType":"uint256","name":"","type":"uint256"},{"internalType":"address","name":"","type":"address"}],"name":"hasReviewed","outputs":[{"internalType":"bool","name":"","type":"bool"}],"stateMutability":"view","type":"function"},{"inputs":[{"internalType":"uint256","name":"submissionId","type":"uint256"}],"name":"manualUpkeepPost","outputs":[],"stateMutability":"nonpayable","type":"function"},{"inputs":[],"name":"maxReviews","outputs":[{"internalType":"uint256","name":"","type":"uint256"}],"stateMutability":"view","type":"function"},{"inputs":[{"internalType":"bytes","name":"performData","type":"bytes"}],"name":"performUpkeep","outputs":[],"stateMutability":"nonpayable","type":"function"},{"inputs":[{"internalType":"uint256","name":"","type":"uint256"},{"internalType":"string","name":"","type":"string"}],"name":"postCommunities","outputs":[{"internalType":"uint256","name":"","type":"uint256"}],"stateMutability":"view","type":"function"},{"inputs":[],"name":"reviewCounter","outputs":[{"internalType":"uint256","name":"","type":"uint256"}],"stateMutability":"view","type":"function"},{"inputs":[{"internalType":"uint256","name":"","type":"uint256"}],"name":"reviews","outputs":[{"internalType":"address","name":"member","type":"address"},{"internalType":"string","name":"content","type":"string"},{"internalType":"uint256","name":"consensus","type":"uint256"},{"internalType":"string","name":"consensusType","type":"string"},{"internalType":"uint256","name":"creds","type":"uint256"},{"internalType":"bool","name":"afterConsensus","type":"bool"}],"stateMutability":"view","type":"function"},{"inputs":[{"internalType":"address","name":"_contractAddress","type":"address"}],"name":"setAutomationRegistry","outputs":[],"stateMutability":"nonpayable","type":"function"},{"inputs":[{"internalType":"address","name":"_contractAddress","type":"address"}],"name":"setCommunitiesContract","outputs":[],"stateMutability":"nonpayable","type":"function"},{"inputs":[{"internalType":"uint256","name":"_feePrice","type":"uint256"}],"name":"setFee","outputs":[],"stateMutability":"nonpayable","type":"function"},{"inputs":[{"internalType":"address","name":"_contract","type":"address"}],"name":"setLaneRegistry","outputs":[],"stateMutability":"nonpayable","type":"function"},{"inputs":[{"internalType":"uint256","name":"_maxreviews","type":"uint256"}],"name":"setMaxReviews","outputs":[],"stateMutability":"nonpayable","type":"function"},{"inputs":[{"internalType":"address","name":"_contractAddress","type":"address"}],"name":"setMembersContract","outputs":[],"stateMutability":"nonpayable","type":"function"},{"inputs":[{"internalType":"address","name":"_contractAddress","type":"address"}],"name":"setPostsContract","outputs":[],"stateMutability":"nonpayable","type":"function"},{"inputs":[{"internalType":"string[]","name":"_deafultArray","type":"string[]"}],"name":"setdefaultConsenousTypes","outputs":[],"stateMutability":"nonpayable","type":"function"},{"inputs":[{"internalType":"uint256","name":"_communitySubmissionId","type":"uint256"},{"internalType":"string","name":"_content","type":"string"},{"internalType":"uint256","name":"_consensus","type":"uint256"}],"name":"submitReview","outputs":[{"internalType":"uint256","name":"","type":"uint256"}],"stateMutability":"nonpayable","type":"function"},{"inputs":[{"internalType":"uint256","name":"_postId","type":"uint256"},{"internalType":"string","name":"_communityName","type":"string"}],"name":"submitToCommunity","outputs":[{"internalType":"uint256","name":"","type":"uint256"}],"stateMutability":"payable","type":"function"},{"inputs":[{"internalType":"uint256","name":"","type":"uint256"},{"internalType":"uint256","name":"","type":"uint256"}],"name":"submmisionReviews","outputs":[{"internalType":"uint256","name":"","type":"uint256"}],"stateMutability":"view","type":"function"}],"evm":{"bytecode":{"linkReferences":{},"object":"6080346200033c5762002b9580380391601f19601f91818386011681019460018060401b03948287108688111762000328578160809284926040998a528339810103126200033c57620000528162000360565b926020906200006382840162000360565b9360606200007389860162000360565b94015196885190606082018281108282111762000328578a526200009662000340565b6012815271436f6e73656e736f75732050656e64696e6760701b868201528252620000c062000340565b60088152671058d8d95c1d195960c21b8682015285830152620000e262000340565b600881526714995a9958dd195960c21b868201528a8301526009549160039283600955808410620002ae575b5092915f94600986528686209386955b83871062000187578d8d8d8d8d60018060a01b0319923384601254161760125560018060a01b03928380921685600c541617600c551683600d541617600d551690600e541617600e55601055600160075560016002556064601155516127cc9081620003c98239f35b80518051908682116200029a57908a91620001a3895462000375565b8681116200025f575b5082908b878411600114620001f6579260019592819287969592620001ea575b50505f19828a1b1c191690841b1789555b019601960195946200011e565b015190505f80620001cc565b50898c52838c2091908387168d5b8181106200024657509160019693918588979694106200022e575b505050831b83018955620001dd565b01515f19838b1b60f8161c191690555f80806200021f565b8284015185558f96600190950194938401930162000204565b62000289908a8d52848d20600589808701821c83019388881062000290575b01901c0190620003b0565b5f620001ac565b935082936200027e565b634e487b7160e01b8a52604160045260248afd5b5f600981528488822092830192015b828110620002cd5750506200010e565b8082620002dd6001935462000375565b80620002ed575b505001620002bd565b8a8111841462000303575081555b825f620002e4565b8282526200031e8b8d8420920160051c8201858301620003b0565b81835555620002fb565b634e487b7160e01b5f52604160045260245ffd5b5f80fd5b60408051919082016001600160401b038111838210176200032857604052565b51906001600160a01b03821682036200033c57565b90600182811c92168015620003a5575b60208310146200039157565b634e487b7160e01b5f52602260045260245ffd5b91607f169162000385565b818110620003bc575050565b5f8155600101620003b056fe6080806040526004361015610012575f80fd5b5f90813560e01c908163059597f714611ee1575080631651902a14611ea15780631ea4905114611e3c57806334ca35c414611c315780633c09203b14611be95780634215c5e414611bcb5780634585e33b146119d757806347631adb146119ae5780634ed59812146119905780635ff2d2aa146119485780636356eea414611104578063651fa206146110bc57806369fe0e2d1461108c5780636c79bd2b1461101b5780637c7198cc14610fcb57806385dba40114610769578063884b80f214610fa1578063990581b614610e87578063a594004114610e69578063ac97980d14610e3f578063ad2957ff14610df7578063b9e2fc3e14610dad578063c5dce24d14610d32578063d1a34aa314610d02578063d39065fa14610cba578063d3a3f77114610c74578063d46219a214610c39578063d8db38071461099e578063de8b32c5146108b6578063e14857761461088d578063e168b3a81461086f578063e83ddcea146107bb578063ea487a921461076e578063eabccdb614610769578063eeb0cf7614610728578063f2793902146106f85763fa1396f5146101b5575f80fd5b6101be366121cb565b600e54604051632c89540360e21b8152600481018490526001600160a01b0393916020908290602490829088165afa9081156105e25785916106ba575b501561067f5782600c5416916040516324c9db2f60e01b8152602060048201526020818061022c6024820186612089565b0381875afa908115610565578691610641575b50156105ed5760206040518094633bebe05160e01b8252826004830152818061026b6024820187612089565b03915afa9283156105e25785936105ae575b506040519361028b85611fb0565b8185524260208601528360408601526001606086015283155f146104de57508460608501525b6002549384865285602052604086209080518051906001600160401b0382116104ca576102de84546120f5565b601f811161048f575b50602090601f83116001146104295760609392918a918361041e575b50508160011b915f199060031b1c19161783555b6020810151600184015560408101516002840155015190600482101561040a57927fe4c157bdf18b292c67a85f8afa9036d1fd70e345be3ad305fafc7841c4801a3f6020976103f17fd3f28a1c655091033012bc55d258bf3cbd4ea4fb8bc2ff81c626a2aad9354e469561039160409660038c9a01612237565b84835260038b526103a48887852061224f565b84835260048b52858320908887518d81845195828601966103c681848a612068565b820190815203019020556103db600254612283565b600255888751968796868897a351928391612068565b81010390209381519042825287820152a3604051908152f35b634e487b7160e01b87526021600452602487fd5b015190505f80610303565b848a5260208a209190601f1984168b5b818110610477575091600193918560609796941061045f575b505050811b018355610317565b01515f1960f88460031b161c191690555f8080610452565b92936020600181928786015181550195019301610439565b6104ba90858b5260208b20601f850160051c810191602086106104c0575b601f0160051c0190612221565b5f6102e7565b90915081906104ad565b634e487b7160e01b89526041600452602489fd5b601054340361057057600f5416602060025460246040518094819363a993983b60e01b8352600483015234905af190811561056557869161052f575b506002548652600560205260408620556102b1565b90506020813d60201161055d575b8161054a60209383611fe6565b8101031261055957515f61051a565b5f80fd5b3d915061053d565b6040513d88823e3d90fd5b60405162461bcd60e51b81526020600482015260166024820152754d7573742073656e642070726f706f73616c2066656560501b6044820152606490fd5b9092506020813d6020116105da575b816105ca60209383611fe6565b810103126105595751915f61027d565b3d91506105bd565b6040513d87823e3d90fd5b60405162461bcd60e51b815260206004820152602660248201527f436f6d6d756e69747920436f6e73656e73757320506172616d7320646f6e277460448201526508195e1a5cdd60d21b6064820152608490fd5b90506020813d602011610677575b8161065c60209383611fe6565b810103126106735761066d90612214565b5f61023f565b8580fd5b3d915061064f565b60405162461bcd60e51b8152602060048201526013602482015272141bdcdd08191bd95cc81b9bdd08195e1a5cdd606a1b6044820152606490fd5b90506020813d6020116106f0575b816106d560209383611fe6565b810103126106ec576106e690612214565b5f6101fb565b8480fd5b3d91506106c8565b5034610725576020366003190112610725576040610717600435612475565b825191151582526020820152f35b80fd5b50346107255761073736611f06565b9190815260036020526040812090815483101561072557602061075a8484611f1c565b90549060031b1c604051908152f35b6120ae565b50346107255760203660031901126107255760ff600360406020936004358082528186526107a3600184842001541515612291565b8152808552200154166107b960405180926121be565bf35b5034610725576020366003190112610725576004358152600660205260409081902080549151916001600160a01b031690610804836107fd816001850161212d565b0384611fe6565b600281015461085e60405191610821836107fd816003880161212d565b60ff60056004860154950154169261084b604051978897885260c0602089015260c0880190612089565b9160408701528582036060870152612089565b916080840152151560a08301520390f35b50346107255780600319360112610725576020600754604051908152f35b5034610725578060031936011261072557600d546040516001600160a01b039091168152602090f35b503461072557602090816003193601126107255780604091606083516108db81611fb0565b818152828682015282858201520152600435815280835220906040519061090182611fb0565b60405161091981610912818761212d565b0382611fe6565b825260018301549080830191825260ff600360028601549560408601968752015416936060840190600486101561098a5761096e610986936080978452604051978897828952519188015260a0870190612089565b935160408601525160608501525160808401906121be565b0390f35b634e487b7160e01b5f52602160045260245ffd5b503461072557602080600319360112610c35576004356001600160401b0391828211610c315736602383011215610c315781600401356109dd816121fd565b936109eb6040519586611fe6565b81855282850194859460249687600595861b83010191368311610c2d57888101915b838310610c035750505050610a2d60018060a01b03601254163314612751565b5193600160401b8511610bf05760095485600955808610610b7f575b509491600987528387209287965b868810610a62578880f35b8051805190858211610b6c57908791610a7b88546120f5565b908c601f9285848211610b38575b5050508c84928411600114610ad2579260019592819287969592610ac7575b50505f19600383901b1c191690841b1788555b01950197019693610a57565b015190505f80610aa8565b9190601f1984168a8452858420935b818110610b205750916001969391858897969410610b08575b505050831b83018855610abb565b01515f1960f88460031b161c191690555f8080610afa565b8284015185558c966001909501949384019301610ae1565b828c610b5b945220848087018b1c820192888810610b63575b018a1c0190612221565b8c5f85610a89565b92508192610b51565b634e487b7160e01b8b526041600452838bfd5b600988528585892091820191015b818110610b9a5750610a49565b8089610ba8600193546120f5565b80610bb6575b505001610b8d565b601f8082118514610bcf575050505f81555b895f610bae565b610be7908484528a84209201891c8201858301612221565b5f835555610bc8565b634e487b7160e01b875260416004528587fd5b8235868111610c29578891610c1e83928d3691870101612022565b815201920191610a0d565b8b80fd5b8980fd5b8380fd5b5080fd5b503461072557602036600319011261072557610c6c604060209260043581528084522060026001820154910154906122d9565b604051908152f35b503461072557610ca8602080926040610c8c366121cb565b9290815260048452208260405194838680955193849201612068565b82019081520301902054604051908152f35b503461072557602036600319011261072557610cd4611f6b565b6012546001600160a01b039190610cee9083163314612751565b1660018060a01b0319600e541617600e5580f35b503461072557602036600319011261072557610d2960018060a01b03601254163314612751565b60043560115580f35b5034610725576020366003190112610725576040610d98916004358152806020522060405190610d6d82610d66818461212d565b0383611fe6565b61098660018201549160ff600360028301549201541690604051958695608087526080870190612089565b936020860152604085015260608401906121be565b5034610725576020366003190112610725576040606091600435815260066020522060028101549060ff600560048301549201541690604051928352602083015215156040820152f35b503461072557602036600319011261072557610e11611f6b565b6012546001600160a01b039190610e2b9083163314612751565b1660018060a01b0319600c541617600c5580f35b50346107255760203660031901126107255760406020916004358152600183522054604051908152f35b50346107255780600319360112610725576020600254604051908152f35b50346107255760209081600319360112610725578060409160a08351610eac81611f81565b828152606086820152828582015260608082015282608082015201526004358152600683522060405190610edf82611f81565b60018060a01b0392838254168352610f8e604051610f0481610912816001880161212d565b82850190815260028401549060408601918252610f7560405191610f2f836107fd8160038b0161212d565b6060880192835260ff600560048901549860808b01998a520154169560a089019615158752604051998a99828b525116908901525160c0604089015260e0880190612089565b9151606087015251858203601f19016080870152612089565b915160a084015251151560c08301520390f35b50346107255760203660031901126107255760406020916004358152600583522054604051908152f35b5034610725576040366003190112610725576024356001600160a01b0381169190829003610559576040906004358152600a60205220905f52602052602060ff60405f2054166040519015158152f35b503461072557602080600319360112610c355760043582526008815260408220916040518092808554928381520194835280832092905b828210611075576109868561106981890382611fe6565b60405191829182611f31565b835486529485019460019384019390910190611052565b5034610725576020366003190112610725576110b360018060a01b03601254163314612751565b60043560105580f35b5034610725576020366003190112610725576110d6611f6b565b6012546001600160a01b0391906110f09083163314612751565b1660018060a01b0319600f541617600f5580f35b5034610725576060366003190112610725576024356001600160401b038111610c3557611135903690600401612022565b9060043581528060205261115160016040832001541515612291565b6111908160018060a01b03600c541660043582528160205260408220906040518080958194626e7c3160e91b835260206004840152602483019061212d565b03915afa90811561193d578291611815575b50600160443511156117d1576111bc6009548251906122d9565b60443511611791576004358252600a60205260408220335f5260205260ff60405f2054166117425761124e906004358352600a60205260408320335f5260205260405f20600160ff19825416179055602060018060a01b03600d54166004358552848252604085209060405180809681946302b5df5960e01b835233600484015260406024840152604483019061212d565b03915afa918215611737578392611703575b506009549060443582106116b257505f199060443580830190811161169e57101561168a576112a56109129160095f5260443560205f2001016040519283809261212d565b925b829360043584528360205260ff60036040862001541660048110156116765760010361166d575b604051946112db86611f81565b3386526020860195838752604435604082015282606082015284608082015281151560a082015260075486526006602052604086209660018060a01b0382511660018060a01b03198954161788555180516001600160401b0381116115bb578060018a019261134a84546120f5565b601f811161163d575b50602090601f83116001146115da578a926115cf575b50508160011b915f199060031b1c19161790555b6040810151600288015560608101519687516001600160401b0381116115bb576113aa60038301546120f5565b601f8111611588575b506020601f82116001146114ed5760056114909593837ffab0b7cc55d5c47eef9ab7fcd4c01a41a4ddfa36cec643d2a9cb97b3f57915d498969460a0948d9e6114b39e926114e2575b50508160011b915f199060031b1c19161760038201555b6080840151600482015501910151151560ff8019835416911617905560043588526008602052611449604089206007549061224f565b6114a3600754968796604051958695338d8b7f953de3727de1848ea7329bee97a44132bdd8271d8d663eb90bc2772f21541ec86004359280a4608087526080870190612089565b9160208601528482036040860152612089565b90151560608301520390a2612283565b90816007555f1982019182116114ce57602082604051908152f35b634e487b7160e01b81526011600452602490fd5b015190505f806113fc565b6003830189526020892099895b601f1984168110611570575061149095936001846114b39c9d60a0956005957ffab0b7cc55d5c47eef9ab7fcd4c01a41a4ddfa36cec643d2a9cb97b3f57915d49c9a98601f19811610611558575b505050811b016003820155611413565b01515f1960f88460031b161c191690555f8080611548565b828201518c556001909b019a602092830192016114fa565b6115b590600384018a5260208a20601f840160051c810191602085106104c057601f0160051c0190612221565b5f6113b3565b634e487b7160e01b88526041600452602488fd5b015190505f80611369565b848b5260208b209250601f1984168b5b818110611625575090846001959493921061160d575b505050811b01905561137d565b01515f1960f88460031b161c191690555f8080611600565b929360206001819287860151815501950193016115ea565b61166790858c5260208c20601f850160051c810191602086106104c057601f0160051c0190612221565b5f611353565b600194506112ce565b634e487b7160e01b85526021600452602485fd5b634e487b7160e01b5f52603260045260245ffd5b634e487b7160e01b85526011600452602485fd5b6044359182039182116116ef575f1982019182116116db57906116d4916122e6565b51926112a7565b634e487b7160e01b84526011600452602484fd5b634e487b7160e01b5f52601160045260245ffd5b9091506020813d60201161172f575b8161171f60209383611fe6565b810103126105595751905f611260565b3d9150611712565b6040513d85823e3d90fd5b60405162461bcd60e51b815260206004820152602160248201527f596f7527766520616c7265616479207265766965776564207468697320706f736044820152601d60fa1b6064820152608490fd5b60405162461bcd60e51b8152602060048201526018602482015277436f6e73656e736f7573204e6f7420496e20426f756e647360401b6044820152606490fd5b606460405162461bcd60e51b815260206004820152602060248201527f436f6e73656e736f7573206d75732062652067726561746572207468616e20316044820152fd5b90503d8083833e6118268183611fe6565b60208282810103126119395781516001600160401b038111610c3157818301601f828501011215610c3157808301519061185f826121fd565b9361186d6040519586611fe6565b828552602085019184820160208560051b83850101011161193557602081830101925b60208560051b838501010184106118ad575050505050505f6111a2565b83516001600160401b03811161193157868401603f8285870101011215611931576020818486010101516118e081612007565b916118ee6040519384611fe6565b81835288860160408383888a010101011161192d57928261192060209593869594604087809701918a8c010101612068565b8152019401939050611890565b8a80fd5b8880fd5b8680fd5b8280fd5b6040513d84823e3d90fd5b503461072557602036600319011261072557611962611f6b565b6012546001600160a01b03919061197c9083163314612751565b1660018060a01b0319600b541617600b5580f35b50346107255780600319360112610725576020601154604051908152f35b5034610725578060031936011261072557600c546040516001600160a01b039091168152602090f35b503461072557602080600319360112610c35576001600160401b0390600435828111610c315736602382011215610c31578060040135928311610c31578281016024933685830111610673578303611b87578183910312610c31578201359183831215611b8157611a47836122fa565b60018060a01b0380600f5416828752600585528460408820548560405180948193636f0817eb60e11b835260048301525afa908115611b76578791611b49575b501691823303611af8579083916040518094819363d670d4a960e01b835260048301525afa8015611aed57611ac4575b83611ac184612329565b80f35b813d8311611ae6575b611ad78183611fe6565b81010312610559575f80611ab7565b503d611acd565b6040513d86823e3d90fd5b8360256084926040519262461bcd60e51b845260048401528201527f4f6e6c79206c616e6520636f6e74726163742063616e20706572666f726d20756044820152640706b6565760dc1b6064820152fd5b611b699150853d8711611b6f575b611b618183611fe6565b81019061230a565b5f611a87565b503d611b57565b6040513d89823e3d90fd5b82611a47565b60405162461bcd60e51b815260048101849052601a818601527f496e76616c696420706572666f726d44617461206c656e6774680000000000006044820152606490fd5b50346107255780600319360112610725576020601054604051908152f35b503461072557602036600319011261072557611c03611f6b565b6012546001600160a01b039190611c1d9083163314612751565b1660018060a01b0319600d541617600d5580f35b503461072557602080600319360112610c35576004358015611dff57808352828252600160408420015415611da757611c6990612475565b919015611d545781611c7b8493612329565b82811215611d4e57611c8c906122fa565b905b60018060a01b039081600f541683855260058252816040862054602460405180948193636f0817eb60e11b835260048301525afa9182156105e2578592611d31575b505016803b15611d2d576024839260405194859384926302e43da960e31b845260048401525af1801561193d57611d05575080f35b6001600160401b038111611d195760405280f35b634e487b7160e01b82526041600452602482fd5b5050fd5b611d479250803d10611b6f57611b618183611fe6565b5f80611cd0565b90611c8e565b60405162461bcd60e51b815260206004820152602560248201527f55706b656570206e6f74206e656564656420666f722074686973207375626d6960448201526439b9b4b7b760d91b6064820152608490fd5b60405162461bcd60e51b815260048101839052602a60248201527f5375626d697373696f6e20646f6573206e6f74206578697374206f72206973206044820152696e6f742061637469766560b01b6064820152608490fd5b60405162461bcd60e51b8152600481018390526015602482015274125b9d985b1a59081cdd589b5a5cdcda5bdb881251605a1b6044820152606490fd5b503461072557602080600319360112610c355760043582526003815260408220916040518092808554928381520194835280832092905b828210611e8a576109868561106981890382611fe6565b835486529485019460019384019390910190611e73565b503461072557611eb036611f06565b91908152600860205260408120908154831015610725576020611ed38484611f1c565b90546040519160031b1c8152f35b905034610c355781600319360112610c3557600e546001600160a01b03168152602090f35b6040906003190112610559576004359060243590565b805482101561168a575f5260205f2001905f90565b602090816040818301928281528551809452019301915f5b828110611f57575050505090565b835185529381019392810192600101611f49565b600435906001600160a01b038216820361055957565b60c081019081106001600160401b03821117611f9c57604052565b634e487b7160e01b5f52604160045260245ffd5b608081019081106001600160401b03821117611f9c57604052565b604081019081106001600160401b03821117611f9c57604052565b90601f801991011681019081106001600160401b03821117611f9c57604052565b6001600160401b038111611f9c57601f01601f191660200190565b81601f820112156105595780359061203982612007565b926120476040519485611fe6565b8284526020838301011161055957815f926020809301838601378301015290565b5f5b8381106120795750505f910152565b818101518382015260200161206a565b906020916120a281518092818552858086019101612068565b601f01601f1916010190565b34610559576020366003190112610559576004355f525f6020526109866109126120e160405f206040519283809261212d565b604051918291602083526020830190612089565b90600182811c92168015612123575b602083101461210f57565b634e487b7160e01b5f52602260045260245ffd5b91607f1691612104565b905f929180549161213d836120f5565b9182825260019384811690815f1461219b575060011461215e575b50505050565b90919394505f52602092835f2092845f945b83861061218757505050500101905f808080612158565b805485870183015294019385908201612170565b9294505050602093945060ff191683830152151560051b0101905f808080612158565b90600482101561098a5752565b9060406003198301126105595760043591602435906001600160401b038211610559576121fa91600401612022565b90565b6001600160401b038111611f9c5760051b60200190565b5190811515820361055957565b81811061222c575050565b5f8155600101612221565b90600481101561098a5760ff80198354169116179055565b8054600160401b811015611f9c5761226c91600182018155611f1c565b819291549060031b91821b915f19901b1916179055565b5f1981146116ef5760010190565b1561229857565b60405162461bcd60e51b815260206004820152601960248201527814dd589b5a5cdcda5bdb88191bd95cc81b9bdd08195e1a5cdd603a1b6044820152606490fd5b919082018092116116ef57565b805182101561168a5760209160051b010190565b600160ff1b81146116ef575f0390565b9081602091031261055957516001600160a01b03811681036105595790565b5f919082811390811561246657905b8115158061243f575b80612428575b15611d5457156124215760025b81845260209084825261236e604091600383882001612237565b82855260018252808520549085835260ff6003828820015416600481101561040a579060026123f7927f3ed188edba0c6b2d9b7a54cec2942f1cab56a63a4dcfdca5ff11706ffdf25b1e96979850145f146123fc5780516123ce81611fcb565b60088152671058d8d95c1d195960c21b85820152905b8080519586958652850152830190612089565b0390a2565b805161240781611fcb565b600881526714995a9958dd195960c21b85820152906123e4565b6003612354565b508184528360205260016040852001541515612347565b508184528360205261245e6040852060026001820154910154906122d9565b421015612341565b61246f906122fa565b90612338565b5f915f91805f525f60205261249760405f2060026001820154910154906122d9565b4210156124a15750565b925090506121fa6001926124c5565b90815f03918083055f1914901517156116ef57565b60018060a01b03600c54165f90828252602090828252604092838120845192632691798960e01b84528360049186838301526060958691818061250d6024988983019061212d565b03915afa9687156127485784918590869961270c575b508986526008885281862090825180838b8295549384815201908a528b8a20928a5b8d8282106126f65750505061255c92500383611fe6565b838251106126e357869787998351601154908181115f146126db5750935b895b85811061260357505050505050508515809181156125f9575b506125e9576064850294808604606414901517156125d7576125c65750505004106125bd5790565b6121fa906124b0565b634e487b7160e01b83526012905281fd5b50634e487b7160e01b83526011905281fd5b505050505050506121fa906124b0565b905086105f612595565b61260d81836122e6565b51875190635cf17e1f60e11b82528a82015284818c81305afa80156126d1578c87918193829161268d575b50612681571015612653575b5061264e90612283565b61257c565b9c61265f600291612283565b9d1461266c575b5f612644565b9a61267961264e91612283565b9b9050612666565b50505061264e90612283565b93505050508481813d83116126ca575b6126a78183611fe6565b81010312610c29578581516126c18a878501519401612214565b9092905f612638565b503d61269d565b88513d8e823e3d90fd5b90509361257a565b505050505050505050506121fa906124b0565b8554845260019586019588955093019201612545565b92505096508481813d8311612741575b6127268183611fe6565b81010312610c3157805196808783015192015197915f612523565b503d61271c565b513d85823e3d90fd5b1561275857565b60405162461bcd60e51b81526020600482015260166024820152752737ba103a34329031b7b73a3930b1ba1037bbb732b960511b6044820152606490fdfea264697066735822122057c93060b13465f2677d2400e4284fd288d78ff6325b65d81200a1433cda256964736f6c63430008140033","opcodes":"PUSH1 0x80 CALLVALUE PUSH3 0x33C JUMPI PUSH3 0x2B95 DUP1 CODESIZE SUB SWAP2 PUSH1 0x1F NOT PUSH1 0x1F SWAP2 DUP2 DUP4 DUP7 ADD AND DUP2 ADD SWAP5 PUSH1 0x1 DUP1 PUSH1 0x40 SHL SUB SWAP5 DUP3 DUP8 LT DUP7 DUP9 GT OR PUSH3 0x328 JUMPI DUP2 PUSH1 0x80 SWAP3 DUP5 SWAP3 PUSH1 0x40 SWAP10 DUP11 MSTORE DUP4 CODECOPY DUP2 ADD SUB SLT PUSH3 0x33C JUMPI PUSH3 0x52 DUP2 PUSH3 0x360 JUMP JUMPDEST SWAP3 PUSH1 0x20 SWAP1 PUSH3 0x63 DUP3 DUP5 ADD PUSH3 0x360 JUMP JUMPDEST SWAP4 PUSH1 0x60 PUSH3 0x73 DUP10 DUP7 ADD PUSH3 0x360 JUMP JUMPDEST SWAP5 ADD MLOAD SWAP7 DUP9 MLOAD SWAP1 PUSH1 0x60 DUP3 ADD DUP3 DUP2 LT DUP3 DUP3 GT OR PUSH3 0x328 JUMPI DUP11 MSTORE PUSH3 0x96 PUSH3 0x340 JUMP JUMPDEST PUSH1 0x12 DUP2 MSTORE PUSH18 0x436F6E73656E736F75732050656E64696E67 PUSH1 0x70 SHL DUP7 DUP3 ADD MSTORE DUP3 MSTORE PUSH3 0xC0 PUSH3 0x340 JUMP JUMPDEST PUSH1 0x8 DUP2 MSTORE PUSH8 0x1058D8D95C1D1959 PUSH1 0xC2 SHL DUP7 DUP3 ADD MSTORE DUP6 DUP4 ADD MSTORE PUSH3 0xE2 PUSH3 0x340 JUMP JUMPDEST PUSH1 0x8 DUP2 MSTORE PUSH8 0x14995A9958DD1959 PUSH1 0xC2 SHL DUP7 DUP3 ADD MSTORE DUP11 DUP4 ADD MSTORE PUSH1 0x9 SLOAD SWAP2 PUSH1 0x3 SWAP3 DUP4 PUSH1 0x9 SSTORE DUP1 DUP5 LT PUSH3 0x2AE JUMPI JUMPDEST POP SWAP3 SWAP2 PUSH0 SWAP5 PUSH1 0x9 DUP7 MSTORE DUP7 DUP7 KECCAK256 SWAP4 DUP7 SWAP6 JUMPDEST DUP4 DUP8 LT PUSH3 0x187 JUMPI DUP14 DUP14 DUP14 DUP14 DUP14 PUSH1 0x1 DUP1 PUSH1 0xA0 SHL SUB NOT SWAP3 CALLER DUP5 PUSH1 0x12 SLOAD AND OR PUSH1 0x12 SSTORE PUSH1 0x1 DUP1 PUSH1 0xA0 SHL SUB SWAP3 DUP4 DUP1 SWAP3 AND DUP6 PUSH1 0xC SLOAD AND OR PUSH1 0xC SSTORE AND DUP4 PUSH1 0xD SLOAD AND OR PUSH1 0xD SSTORE AND SWAP1 PUSH1 0xE SLOAD AND OR PUSH1 0xE SSTORE PUSH1 0x10 SSTORE PUSH1 0x1 PUSH1 0x7 SSTORE PUSH1 0x1 PUSH1 0x2 SSTORE PUSH1 0x64 PUSH1 0x11 SSTORE MLOAD PUSH2 0x27CC SWAP1 DUP2 PUSH3 0x3C9 DUP3 CODECOPY RETURN JUMPDEST DUP1 MLOAD DUP1 MLOAD SWAP1 DUP7 DUP3 GT PUSH3 0x29A JUMPI SWAP1 DUP11 SWAP2 PUSH3 0x1A3 DUP10 SLOAD PUSH3 0x375 JUMP JUMPDEST DUP7 DUP2 GT PUSH3 0x25F JUMPI JUMPDEST POP DUP3 SWAP1 DUP12 DUP8 DUP5 GT PUSH1 0x1 EQ PUSH3 0x1F6 JUMPI SWAP3 PUSH1 0x1 SWAP6 SWAP3 DUP2 SWAP3 DUP8 SWAP7 SWAP6 SWAP3 PUSH3 0x1EA JUMPI JUMPDEST POP POP PUSH0 NOT DUP3 DUP11 SHL SHR NOT AND SWAP1 DUP5 SHL OR DUP10 SSTORE JUMPDEST ADD SWAP7 ADD SWAP7 ADD SWAP6 SWAP5 PUSH3 0x11E JUMP JUMPDEST ADD MLOAD SWAP1 POP PUSH0 DUP1 PUSH3 0x1CC JUMP JUMPDEST POP DUP10 DUP13 MSTORE DUP4 DUP13 KECCAK256 SWAP2 SWAP1 DUP4 DUP8 AND DUP14 JUMPDEST DUP2 DUP2 LT PUSH3 0x246 JUMPI POP SWAP2 PUSH1 0x1 SWAP7 SWAP4 SWAP2 DUP6 DUP9 SWAP8 SWAP7 SWAP5 LT PUSH3 0x22E JUMPI JUMPDEST POP POP POP DUP4 SHL DUP4 ADD DUP10 SSTORE PUSH3 0x1DD JUMP JUMPDEST ADD MLOAD PUSH0 NOT DUP4 DUP12 SHL PUSH1 0xF8 AND SHR NOT AND SWAP1 SSTORE PUSH0 DUP1 DUP1 PUSH3 0x21F JUMP JUMPDEST DUP3 DUP5 ADD MLOAD DUP6 SSTORE DUP16 SWAP7 PUSH1 0x1 SWAP1 SWAP6 ADD SWAP5 SWAP4 DUP5 ADD SWAP4 ADD PUSH3 0x204 JUMP JUMPDEST PUSH3 0x289 SWAP1 DUP11 DUP14 MSTORE DUP5 DUP14 KECCAK256 PUSH1 0x5 DUP10 DUP1 DUP8 ADD DUP3 SHR DUP4 ADD SWAP4 DUP9 DUP9 LT PUSH3 0x290 JUMPI JUMPDEST ADD SWAP1 SHR ADD SWAP1 PUSH3 0x3B0 JUMP JUMPDEST PUSH0 PUSH3 0x1AC JUMP JUMPDEST SWAP4 POP DUP3 SWAP4 PUSH3 0x27E JUMP JUMPDEST PUSH4 0x4E487B71 PUSH1 0xE0 SHL DUP11 MSTORE PUSH1 0x41 PUSH1 0x4 MSTORE PUSH1 0x24 DUP11 REVERT JUMPDEST PUSH0 PUSH1 0x9 DUP2 MSTORE DUP5 DUP9 DUP3 KECCAK256 SWAP3 DUP4 ADD SWAP3 ADD JUMPDEST DUP3 DUP2 LT PUSH3 0x2CD JUMPI POP POP PUSH3 0x10E JUMP JUMPDEST DUP1 DUP3 PUSH3 0x2DD PUSH1 0x1 SWAP4 SLOAD PUSH3 0x375 JUMP JUMPDEST DUP1 PUSH3 0x2ED JUMPI JUMPDEST POP POP ADD PUSH3 0x2BD JUMP JUMPDEST DUP11 DUP2 GT DUP5 EQ PUSH3 0x303 JUMPI POP DUP2 SSTORE JUMPDEST DUP3 PUSH0 PUSH3 0x2E4 JUMP JUMPDEST DUP3 DUP3 MSTORE PUSH3 0x31E DUP12 DUP14 DUP5 KECCAK256 SWAP3 ADD PUSH1 0x5 SHR DUP3 ADD DUP6 DUP4 ADD PUSH3 0x3B0 JUMP JUMPDEST DUP2 DUP4 SSTORE SSTORE PUSH3 0x2FB JUMP JUMPDEST PUSH4 0x4E487B71 PUSH1 0xE0 SHL PUSH0 MSTORE PUSH1 0x41 PUSH1 0x4 MSTORE PUSH1 0x24 PUSH0 REVERT JUMPDEST PUSH0 DUP1 REVERT JUMPDEST PUSH1 0x40 DUP1 MLOAD SWAP2 SWAP1 DUP3 ADD PUSH1 0x1 PUSH1 0x1 PUSH1 0x40 SHL SUB DUP2 GT DUP4 DUP3 LT OR PUSH3 0x328 JUMPI PUSH1 0x40 MSTORE JUMP JUMPDEST MLOAD SWAP1 PUSH1 0x1 PUSH1 0x1 PUSH1 0xA0 SHL SUB DUP3 AND DUP3 SUB PUSH3 0x33C JUMPI JUMP JUMPDEST SWAP1 PUSH1 0x1 DUP3 DUP2 SHR SWAP3 AND DUP1 ISZERO PUSH3 0x3A5 JUMPI JUMPDEST PUSH1 0x20 DUP4 LT EQ PUSH3 0x391 JUMPI JUMP JUMPDEST PUSH4 0x4E487B71 PUSH1 0xE0 SHL PUSH0 MSTORE PUSH1 0x22 PUSH1 0x4 MSTORE PUSH1 0x24 PUSH0 REVERT JUMPDEST SWAP2 PUSH1 0x7F AND SWAP2 PUSH3 0x385 JUMP JUMPDEST DUP2 DUP2 LT PUSH3 0x3BC JUMPI POP POP JUMP JUMPDEST PUSH0 DUP2 SSTORE PUSH1 0x1 ADD PUSH3 0x3B0 JUMP INVALID PUSH1 0x80 DUP1 PUSH1 0x40 MSTORE PUSH1 0x4 CALLDATASIZE LT ISZERO PUSH2 0x12 JUMPI PUSH0 DUP1 REVERT JUMPDEST PUSH0 SWAP1 DUP2 CALLDATALOAD PUSH1 0xE0 SHR SWAP1 DUP2 PUSH4 0x59597F7 EQ PUSH2 0x1EE1 JUMPI POP DUP1 PUSH4 0x1651902A EQ PUSH2 0x1EA1 JUMPI DUP1 PUSH4 0x1EA49051 EQ PUSH2 0x1E3C JUMPI DUP1 PUSH4 0x34CA35C4 EQ PUSH2 0x1C31 JUMPI DUP1 PUSH4 0x3C09203B EQ PUSH2 0x1BE9 JUMPI DUP1 PUSH4 0x4215C5E4 EQ PUSH2 0x1BCB JUMPI DUP1 PUSH4 0x4585E33B EQ PUSH2 0x19D7 JUMPI DUP1 PUSH4 0x47631ADB EQ PUSH2 0x19AE JUMPI DUP1 PUSH4 0x4ED59812 EQ PUSH2 0x1990 JUMPI DUP1 PUSH4 0x5FF2D2AA EQ PUSH2 0x1948 JUMPI DUP1 PUSH4 0x6356EEA4 EQ PUSH2 0x1104 JUMPI DUP1 PUSH4 0x651FA206 EQ PUSH2 0x10BC JUMPI DUP1 PUSH4 0x69FE0E2D EQ PUSH2 0x108C JUMPI DUP1 PUSH4 0x6C79BD2B EQ PUSH2 0x101B JUMPI DUP1 PUSH4 0x7C7198CC EQ PUSH2 0xFCB JUMPI DUP1 PUSH4 0x85DBA401 EQ PUSH2 0x769 JUMPI DUP1 PUSH4 0x884B80F2 EQ PUSH2 0xFA1 JUMPI DUP1 PUSH4 0x990581B6 EQ PUSH2 0xE87 JUMPI DUP1 PUSH4 0xA5940041 EQ PUSH2 0xE69 JUMPI DUP1 PUSH4 0xAC97980D EQ PUSH2 0xE3F JUMPI DUP1 PUSH4 0xAD2957FF EQ PUSH2 0xDF7 JUMPI DUP1 PUSH4 0xB9E2FC3E EQ PUSH2 0xDAD JUMPI DUP1 PUSH4 0xC5DCE24D EQ PUSH2 0xD32 JUMPI DUP1 PUSH4 0xD1A34AA3 EQ PUSH2 0xD02 JUMPI DUP1 PUSH4 0xD39065FA EQ PUSH2 0xCBA JUMPI DUP1 PUSH4 0xD3A3F771 EQ PUSH2 0xC74 JUMPI DUP1 PUSH4 0xD46219A2 EQ PUSH2 0xC39 JUMPI DUP1 PUSH4 0xD8DB3807 EQ PUSH2 0x99E JUMPI DUP1 PUSH4 0xDE8B32C5 EQ PUSH2 0x8B6 JUMPI DUP1 PUSH4 0xE1485776 EQ PUSH2 0x88D JUMPI DUP1 PUSH4 0xE168B3A8 EQ PUSH2 0x86F JUMPI DUP1 PUSH4 0xE83DDCEA EQ PUSH2 0x7BB JUMPI DUP1 PUSH4 0xEA487A92 EQ PUSH2 0x76E JUMPI DUP1 PUSH4 0xEABCCDB6 EQ PUSH2 0x769 JUMPI DUP1 PUSH4 0xEEB0CF76 EQ PUSH2 0x728 JUMPI DUP1 PUSH4 0xF2793902 EQ PUSH2 0x6F8 JUMPI PUSH4 0xFA1396F5 EQ PUSH2 0x1B5 JUMPI PUSH0 DUP1 REVERT JUMPDEST PUSH2 0x1BE CALLDATASIZE PUSH2 0x21CB JUMP JUMPDEST PUSH1 0xE SLOAD PUSH1 0x40 MLOAD PUSH4 0x2C895403 PUSH1 0xE2 SHL DUP2 MSTORE PUSH1 0x4 DUP2 ADD DUP5 SWAP1 MSTORE PUSH1 0x1 PUSH1 0x1 PUSH1 0xA0 SHL SUB SWAP4 SWAP2 PUSH1 0x20 SWAP1 DUP3 SWAP1 PUSH1 0x24 SWAP1 DUP3 SWAP1 DUP9 AND GAS STATICCALL SWAP1 DUP2 ISZERO PUSH2 0x5E2 JUMPI DUP6 SWAP2 PUSH2 0x6BA JUMPI JUMPDEST POP ISZERO PUSH2 0x67F JUMPI DUP3 PUSH1 0xC SLOAD AND SWAP2 PUSH1 0x40 MLOAD PUSH4 0x24C9DB2F PUSH1 0xE0 SHL DUP2 MSTORE PUSH1 0x20 PUSH1 0x4 DUP3 ADD MSTORE PUSH1 0x20 DUP2 DUP1 PUSH2 0x22C PUSH1 0x24 DUP3 ADD DUP7 PUSH2 0x2089 JUMP JUMPDEST SUB DUP2 DUP8 GAS STATICCALL SWAP1 DUP2 ISZERO PUSH2 0x565 JUMPI DUP7 SWAP2 PUSH2 0x641 JUMPI JUMPDEST POP ISZERO PUSH2 0x5ED JUMPI PUSH1 0x20 PUSH1 0x40 MLOAD DUP1 SWAP5 PUSH4 0x3BEBE051 PUSH1 0xE0 SHL DUP3 MSTORE DUP3 PUSH1 0x4 DUP4 ADD MSTORE DUP2 DUP1 PUSH2 0x26B PUSH1 0x24 DUP3 ADD DUP8 PUSH2 0x2089 JUMP JUMPDEST SUB SWAP2 GAS STATICCALL SWAP3 DUP4 ISZERO PUSH2 0x5E2 JUMPI DUP6 SWAP4 PUSH2 0x5AE JUMPI JUMPDEST POP PUSH1 0x40 MLOAD SWAP4 PUSH2 0x28B DUP6 PUSH2 0x1FB0 JUMP JUMPDEST DUP2 DUP6 MSTORE TIMESTAMP PUSH1 0x20 DUP7 ADD MSTORE DUP4 PUSH1 0x40 DUP7 ADD MSTORE PUSH1 0x1 PUSH1 0x60 DUP7 ADD MSTORE DUP4 ISZERO PUSH0 EQ PUSH2 0x4DE JUMPI POP DUP5 PUSH1 0x60 DUP6 ADD MSTORE JUMPDEST PUSH1 0x2 SLOAD SWAP4 DUP5 DUP7 MSTORE DUP6 PUSH1 0x20 MSTORE PUSH1 0x40 DUP7 KECCAK256 SWAP1 DUP1 MLOAD DUP1 MLOAD SWAP1 PUSH1 0x1 PUSH1 0x1 PUSH1 0x40 SHL SUB DUP3 GT PUSH2 0x4CA JUMPI PUSH2 0x2DE DUP5 SLOAD PUSH2 0x20F5 JUMP JUMPDEST PUSH1 0x1F DUP2 GT PUSH2 0x48F JUMPI JUMPDEST POP PUSH1 0x20 SWAP1 PUSH1 0x1F DUP4 GT PUSH1 0x1 EQ PUSH2 0x429 JUMPI PUSH1 0x60 SWAP4 SWAP3 SWAP2 DUP11 SWAP2 DUP4 PUSH2 0x41E JUMPI JUMPDEST POP POP DUP2 PUSH1 0x1 SHL SWAP2 PUSH0 NOT SWAP1 PUSH1 0x3 SHL SHR NOT AND OR DUP4 SSTORE JUMPDEST PUSH1 0x20 DUP2 ADD MLOAD PUSH1 0x1 DUP5 ADD SSTORE PUSH1 0x40 DUP2 ADD MLOAD PUSH1 0x2 DUP5 ADD SSTORE ADD MLOAD SWAP1 PUSH1 0x4 DUP3 LT ISZERO PUSH2 0x40A JUMPI SWAP3 PUSH32 0xE4C157BDF18B292C67A85F8AFA9036D1FD70E345BE3AD305FAFC7841C4801A3F PUSH1 0x20 SWAP8 PUSH2 0x3F1 PUSH32 0xD3F28A1C655091033012BC55D258BF3CBD4EA4FB8BC2FF81C626A2AAD9354E46 SWAP6 PUSH2 0x391 PUSH1 0x40 SWAP7 PUSH1 0x3 DUP13 SWAP11 ADD PUSH2 0x2237 JUMP JUMPDEST DUP5 DUP4 MSTORE PUSH1 0x3 DUP12 MSTORE PUSH2 0x3A4 DUP9 DUP8 DUP6 KECCAK256 PUSH2 0x224F JUMP JUMPDEST DUP5 DUP4 MSTORE PUSH1 0x4 DUP12 MSTORE DUP6 DUP4 KECCAK256 SWAP1 DUP9 DUP8 MLOAD DUP14 DUP2 DUP5 MLOAD SWAP6 DUP3 DUP7 ADD SWAP7 PUSH2 0x3C6 DUP2 DUP5 DUP11 PUSH2 0x2068 JUMP JUMPDEST DUP3 ADD SWAP1 DUP2 MSTORE SUB ADD SWAP1 KECCAK256 SSTORE PUSH2 0x3DB PUSH1 0x2 SLOAD PUSH2 0x2283 JUMP JUMPDEST PUSH1 0x2 SSTORE DUP9 DUP8 MLOAD SWAP7 DUP8 SWAP7 DUP7 DUP9 SWAP8 LOG3 MLOAD SWAP3 DUP4 SWAP2 PUSH2 0x2068 JUMP JUMPDEST DUP2 ADD SUB SWAP1 KECCAK256 SWAP4 DUP2 MLOAD SWAP1 TIMESTAMP DUP3 MSTORE DUP8 DUP3 ADD MSTORE LOG3 PUSH1 0x40 MLOAD SWAP1 DUP2 MSTORE RETURN JUMPDEST PUSH4 0x4E487B71 PUSH1 0xE0 SHL DUP8 MSTORE PUSH1 0x21 PUSH1 0x4 MSTORE PUSH1 0x24 DUP8 REVERT JUMPDEST ADD MLOAD SWAP1 POP PUSH0 DUP1 PUSH2 0x303 JUMP JUMPDEST DUP5 DUP11 MSTORE PUSH1 0x20 DUP11 KECCAK256 SWAP2 SWAP1 PUSH1 0x1F NOT DUP5 AND DUP12 JUMPDEST DUP2 DUP2 LT PUSH2 0x477 JUMPI POP SWAP2 PUSH1 0x1 SWAP4 SWAP2 DUP6 PUSH1 0x60 SWAP8 SWAP7 SWAP5 LT PUSH2 0x45F JUMPI JUMPDEST POP POP POP DUP2 SHL ADD DUP4 SSTORE PUSH2 0x317 JUMP JUMPDEST ADD MLOAD PUSH0 NOT PUSH1 0xF8 DUP5 PUSH1 0x3 SHL AND SHR NOT AND SWAP1 SSTORE PUSH0 DUP1 DUP1 PUSH2 0x452 JUMP JUMPDEST SWAP3 SWAP4 PUSH1 0x20 PUSH1 0x1 DUP2 SWAP3 DUP8 DUP7 ADD MLOAD DUP2 SSTORE ADD SWAP6 ADD SWAP4 ADD PUSH2 0x439 JUMP JUMPDEST PUSH2 0x4BA SWAP1 DUP6 DUP12 MSTORE PUSH1 0x20 DUP12 KECCAK256 PUSH1 0x1F DUP6 ADD PUSH1 0x5 SHR DUP2 ADD SWAP2 PUSH1 0x20 DUP7 LT PUSH2 0x4C0 JUMPI JUMPDEST PUSH1 0x1F ADD PUSH1 0x5 SHR ADD SWAP1 PUSH2 0x2221 JUMP JUMPDEST PUSH0 PUSH2 0x2E7 JUMP JUMPDEST SWAP1 SWAP2 POP DUP2 SWAP1 PUSH2 0x4AD JUMP JUMPDEST PUSH4 0x4E487B71 PUSH1 0xE0 SHL DUP10 MSTORE PUSH1 0x41 PUSH1 0x4 MSTORE PUSH1 0x24 DUP10 REVERT JUMPDEST PUSH1 0x10 SLOAD CALLVALUE SUB PUSH2 0x570 JUMPI PUSH1 0xF SLOAD AND PUSH1 0x20 PUSH1 0x2 SLOAD PUSH1 0x24 PUSH1 0x40 MLOAD DUP1 SWAP5 DUP2 SWAP4 PUSH4 0xA993983B PUSH1 0xE0 SHL DUP4 MSTORE PUSH1 0x4 DUP4 ADD MSTORE CALLVALUE SWAP1 GAS CALL SWAP1 DUP2 ISZERO PUSH2 0x565 JUMPI DUP7 SWAP2 PUSH2 0x52F JUMPI JUMPDEST POP PUSH1 0x2 SLOAD DUP7 MSTORE PUSH1 0x5 PUSH1 0x20 MSTORE PUSH1 0x40 DUP7 KECCAK256 SSTORE PUSH2 0x2B1 JUMP JUMPDEST SWAP1 POP PUSH1 0x20 DUP2 RETURNDATASIZE PUSH1 0x20 GT PUSH2 0x55D JUMPI JUMPDEST DUP2 PUSH2 0x54A PUSH1 0x20 SWAP4 DUP4 PUSH2 0x1FE6 JUMP JUMPDEST DUP2 ADD SUB SLT PUSH2 0x559 JUMPI MLOAD PUSH0 PUSH2 0x51A JUMP JUMPDEST PUSH0 DUP1 REVERT JUMPDEST RETURNDATASIZE SWAP2 POP PUSH2 0x53D JUMP JUMPDEST PUSH1 0x40 MLOAD RETURNDATASIZE DUP9 DUP3 RETURNDATACOPY RETURNDATASIZE SWAP1 REVERT JUMPDEST PUSH1 0x40 MLOAD PUSH3 0x461BCD PUSH1 0xE5 SHL DUP2 MSTORE PUSH1 0x20 PUSH1 0x4 DUP3 ADD MSTORE PUSH1 0x16 PUSH1 0x24 DUP3 ADD MSTORE PUSH22 0x4D7573742073656E642070726F706F73616C20666565 PUSH1 0x50 SHL PUSH1 0x44 DUP3 ADD MSTORE PUSH1 0x64 SWAP1 REVERT JUMPDEST SWAP1 SWAP3 POP PUSH1 0x20 DUP2 RETURNDATASIZE PUSH1 0x20 GT PUSH2 0x5DA JUMPI JUMPDEST DUP2 PUSH2 0x5CA PUSH1 0x20 SWAP4 DUP4 PUSH2 0x1FE6 JUMP JUMPDEST DUP2 ADD SUB SLT PUSH2 0x559 JUMPI MLOAD SWAP2 PUSH0 PUSH2 0x27D JUMP JUMPDEST RETURNDATASIZE SWAP2 POP PUSH2 0x5BD JUMP JUMPDEST PUSH1 0x40 MLOAD RETURNDATASIZE DUP8 DUP3 RETURNDATACOPY RETURNDATASIZE SWAP1 REVERT JUMPDEST PUSH1 0x40 MLOAD PUSH3 0x461BCD PUSH1 0xE5 SHL DUP2 MSTORE PUSH1 0x20 PUSH1 0x4 DUP3 ADD MSTORE PUSH1 0x26 PUSH1 0x24 DUP3 ADD MSTORE PUSH32 0x436F6D6D756E69747920436F6E73656E73757320506172616D7320646F6E2774 PUSH1 0x44 DUP3 ADD MSTORE PUSH6 0x8195E1A5CDD PUSH1 0xD2 SHL PUSH1 0x64 DUP3 ADD MSTORE PUSH1 0x84 SWAP1 REVERT JUMPDEST SWAP1 POP PUSH1 0x20 DUP2 RETURNDATASIZE PUSH1 0x20 GT PUSH2 0x677 JUMPI JUMPDEST DUP2 PUSH2 0x65C PUSH1 0x20 SWAP4 DUP4 PUSH2 0x1FE6 JUMP JUMPDEST DUP2 ADD SUB SLT PUSH2 0x673 JUMPI PUSH2 0x66D SWAP1 PUSH2 0x2214 JUMP JUMPDEST PUSH0 PUSH2 0x23F JUMP JUMPDEST DUP6 DUP1 REVERT JUMPDEST RETURNDATASIZE SWAP2 POP PUSH2 0x64F JUMP JUMPDEST PUSH1 0x40 MLOAD PUSH3 0x461BCD PUSH1 0xE5 SHL DUP2 MSTORE PUSH1 0x20 PUSH1 0x4 DUP3 ADD MSTORE PUSH1 0x13 PUSH1 0x24 DUP3 ADD MSTORE PUSH19 0x141BDCDD08191BD95CC81B9BDD08195E1A5CDD PUSH1 0x6A SHL PUSH1 0x44 DUP3 ADD MSTORE PUSH1 0x64 SWAP1 REVERT JUMPDEST SWAP1 POP PUSH1 0x20 DUP2 RETURNDATASIZE PUSH1 0x20 GT PUSH2 0x6F0 JUMPI JUMPDEST DUP2 PUSH2 0x6D5 PUSH1 0x20 SWAP4 DUP4 PUSH2 0x1FE6 JUMP JUMPDEST DUP2 ADD SUB SLT PUSH2 0x6EC JUMPI PUSH2 0x6E6 SWAP1 PUSH2 0x2214 JUMP JUMPDEST PUSH0 PUSH2 0x1FB JUMP JUMPDEST DUP5 DUP1 REVERT JUMPDEST RETURNDATASIZE SWAP2 POP PUSH2 0x6C8 JUMP JUMPDEST POP CALLVALUE PUSH2 0x725 JUMPI PUSH1 0x20 CALLDATASIZE PUSH1 0x3 NOT ADD SLT PUSH2 0x725 JUMPI PUSH1 0x40 PUSH2 0x717 PUSH1 0x4 CALLDATALOAD PUSH2 0x2475 JUMP JUMPDEST DUP3 MLOAD SWAP2 ISZERO ISZERO DUP3 MSTORE PUSH1 0x20 DUP3 ADD MSTORE RETURN JUMPDEST DUP1 REVERT JUMPDEST POP CALLVALUE PUSH2 0x725 JUMPI PUSH2 0x737 CALLDATASIZE PUSH2 0x1F06 JUMP JUMPDEST SWAP2 SWAP1 DUP2 MSTORE PUSH1 0x3 PUSH1 0x20 MSTORE PUSH1 0x40 DUP2 KECCAK256 SWAP1 DUP2 SLOAD DUP4 LT ISZERO PUSH2 0x725 JUMPI PUSH1 0x20 PUSH2 0x75A DUP5 DUP5 PUSH2 0x1F1C JUMP JUMPDEST SWAP1 SLOAD SWAP1 PUSH1 0x3 SHL SHR PUSH1 0x40 MLOAD SWAP1 DUP2 MSTORE RETURN JUMPDEST PUSH2 0x20AE JUMP JUMPDEST POP CALLVALUE PUSH2 0x725 JUMPI PUSH1 0x20 CALLDATASIZE PUSH1 0x3 NOT ADD SLT PUSH2 0x725 JUMPI PUSH1 0xFF PUSH1 0x3 PUSH1 0x40 PUSH1 0x20 SWAP4 PUSH1 0x4 CALLDATALOAD DUP1 DUP3 MSTORE DUP2 DUP7 MSTORE PUSH2 0x7A3 PUSH1 0x1 DUP5 DUP5 KECCAK256 ADD SLOAD ISZERO ISZERO PUSH2 0x2291 JUMP JUMPDEST DUP2 MSTORE DUP1 DUP6 MSTORE KECCAK256 ADD SLOAD AND PUSH2 0x7B9 PUSH1 0x40 MLOAD DUP1 SWAP3 PUSH2 0x21BE JUMP JUMPDEST RETURN JUMPDEST POP CALLVALUE PUSH2 0x725 JUMPI PUSH1 0x20 CALLDATASIZE PUSH1 0x3 NOT ADD SLT PUSH2 0x725 JUMPI PUSH1 0x4 CALLDATALOAD DUP2 MSTORE PUSH1 0x6 PUSH1 0x20 MSTORE PUSH1 0x40 SWAP1 DUP2 SWAP1 KECCAK256 DUP1 SLOAD SWAP2 MLOAD SWAP2 PUSH1 0x1 PUSH1 0x1 PUSH1 0xA0 SHL SUB AND SWAP1 PUSH2 0x804 DUP4 PUSH2 0x7FD DUP2 PUSH1 0x1 DUP6 ADD PUSH2 0x212D JUMP JUMPDEST SUB DUP5 PUSH2 0x1FE6 JUMP JUMPDEST PUSH1 0x2 DUP2 ADD SLOAD PUSH2 0x85E PUSH1 0x40 MLOAD SWAP2 PUSH2 0x821 DUP4 PUSH2 0x7FD DUP2 PUSH1 0x3 DUP9 ADD PUSH2 0x212D JUMP JUMPDEST PUSH1 0xFF PUSH1 0x5 PUSH1 0x4 DUP7 ADD SLOAD SWAP6 ADD SLOAD AND SWAP3 PUSH2 0x84B PUSH1 0x40 MLOAD SWAP8 DUP9 SWAP8 DUP9 MSTORE PUSH1 0xC0 PUSH1 0x20 DUP10 ADD MSTORE PUSH1 0xC0 DUP9 ADD SWAP1 PUSH2 0x2089 JUMP JUMPDEST SWAP2 PUSH1 0x40 DUP8 ADD MSTORE DUP6 DUP3 SUB PUSH1 0x60 DUP8 ADD MSTORE PUSH2 0x2089 JUMP JUMPDEST SWAP2 PUSH1 0x80 DUP5 ADD MSTORE ISZERO ISZERO PUSH1 0xA0 DUP4 ADD MSTORE SUB SWAP1 RETURN JUMPDEST POP CALLVALUE PUSH2 0x725 JUMPI DUP1 PUSH1 0x3 NOT CALLDATASIZE ADD SLT PUSH2 0x725 JUMPI PUSH1 0x20 PUSH1 0x7 SLOAD PUSH1 0x40 MLOAD SWAP1 DUP2 MSTORE RETURN JUMPDEST POP CALLVALUE PUSH2 0x725 JUMPI DUP1 PUSH1 0x3 NOT CALLDATASIZE ADD SLT PUSH2 0x725 JUMPI PUSH1 0xD SLOAD PUSH1 0x40 MLOAD PUSH1 0x1 PUSH1 0x1 PUSH1 0xA0 SHL SUB SWAP1 SWAP2 AND DUP2 MSTORE PUSH1 0x20 SWAP1 RETURN JUMPDEST POP CALLVALUE PUSH2 0x725 JUMPI PUSH1 0x20 SWAP1 DUP2 PUSH1 0x3 NOT CALLDATASIZE ADD SLT PUSH2 0x725 JUMPI DUP1 PUSH1 0x40 SWAP2 PUSH1 0x60 DUP4 MLOAD PUSH2 0x8DB DUP2 PUSH2 0x1FB0 JUMP JUMPDEST DUP2 DUP2 MSTORE DUP3 DUP7 DUP3 ADD MSTORE DUP3 DUP6 DUP3 ADD MSTORE ADD MSTORE PUSH1 0x4 CALLDATALOAD DUP2 MSTORE DUP1 DUP4 MSTORE KECCAK256 SWAP1 PUSH1 0x40 MLOAD SWAP1 PUSH2 0x901 DUP3 PUSH2 0x1FB0 JUMP JUMPDEST PUSH1 0x40 MLOAD PUSH2 0x919 DUP2 PUSH2 0x912 DUP2 DUP8 PUSH2 0x212D JUMP JUMPDEST SUB DUP3 PUSH2 0x1FE6 JUMP JUMPDEST DUP3 MSTORE PUSH1 0x1 DUP4 ADD SLOAD SWAP1 DUP1 DUP4 ADD SWAP2 DUP3 MSTORE PUSH1 0xFF PUSH1 0x3 PUSH1 0x2 DUP7 ADD SLOAD SWAP6 PUSH1 0x40 DUP7 ADD SWAP7 DUP8 MSTORE ADD SLOAD AND SWAP4 PUSH1 0x60 DUP5 ADD SWAP1 PUSH1 0x4 DUP7 LT ISZERO PUSH2 0x98A JUMPI PUSH2 0x96E PUSH2 0x986 SWAP4 PUSH1 0x80 SWAP8 DUP5 MSTORE PUSH1 0x40 MLOAD SWAP8 DUP9 SWAP8 DUP3 DUP10 MSTORE MLOAD SWAP2 DUP9 ADD MSTORE PUSH1 0xA0 DUP8 ADD SWAP1 PUSH2 0x2089 JUMP JUMPDEST SWAP4 MLOAD PUSH1 0x40 DUP7 ADD MSTORE MLOAD PUSH1 0x60 DUP6 ADD MSTORE MLOAD PUSH1 0x80 DUP5 ADD SWAP1 PUSH2 0x21BE JUMP JUMPDEST SUB SWAP1 RETURN JUMPDEST PUSH4 0x4E487B71 PUSH1 0xE0 SHL PUSH0 MSTORE PUSH1 0x21 PUSH1 0x4 MSTORE PUSH1 0x24 PUSH0 REVERT JUMPDEST POP CALLVALUE PUSH2 0x725 JUMPI PUSH1 0x20 DUP1 PUSH1 0x3 NOT CALLDATASIZE ADD SLT PUSH2 0xC35 JUMPI PUSH1 0x4 CALLDATALOAD PUSH1 0x1 PUSH1 0x1 PUSH1 0x40 SHL SUB SWAP2 DUP3 DUP3 GT PUSH2 0xC31 JUMPI CALLDATASIZE PUSH1 0x23 DUP4 ADD SLT ISZERO PUSH2 0xC31 JUMPI DUP2 PUSH1 0x4 ADD CALLDATALOAD PUSH2 0x9DD DUP2 PUSH2 0x21FD JUMP JUMPDEST SWAP4 PUSH2 0x9EB PUSH1 0x40 MLOAD SWAP6 DUP7 PUSH2 0x1FE6 JUMP JUMPDEST DUP2 DUP6 MSTORE DUP3 DUP6 ADD SWAP5 DUP6 SWAP5 PUSH1 0x24 SWAP7 DUP8 PUSH1 0x5 SWAP6 DUP7 SHL DUP4 ADD ADD SWAP2 CALLDATASIZE DUP4 GT PUSH2 0xC2D JUMPI DUP9 DUP2 ADD SWAP2 JUMPDEST DUP4 DUP4 LT PUSH2 0xC03 JUMPI POP POP POP POP PUSH2 0xA2D PUSH1 0x1 DUP1 PUSH1 0xA0 SHL SUB PUSH1 0x12 SLOAD AND CALLER EQ PUSH2 0x2751 JUMP JUMPDEST MLOAD SWAP4 PUSH1 0x1 PUSH1 0x40 SHL DUP6 GT PUSH2 0xBF0 JUMPI PUSH1 0x9 SLOAD DUP6 PUSH1 0x9 SSTORE DUP1 DUP7 LT PUSH2 0xB7F JUMPI JUMPDEST POP SWAP5 SWAP2 PUSH1 0x9 DUP8 MSTORE DUP4 DUP8 KECCAK256 SWAP3 DUP8 SWAP7 JUMPDEST DUP7 DUP9 LT PUSH2 0xA62 JUMPI DUP9 DUP1 RETURN JUMPDEST DUP1 MLOAD DUP1 MLOAD SWAP1 DUP6 DUP3 GT PUSH2 0xB6C JUMPI SWAP1 DUP8 SWAP2 PUSH2 0xA7B DUP9 SLOAD PUSH2 0x20F5 JUMP JUMPDEST SWAP1 DUP13 PUSH1 0x1F SWAP3 DUP6 DUP5 DUP3 GT PUSH2 0xB38 JUMPI JUMPDEST POP POP POP DUP13 DUP5 SWAP3 DUP5 GT PUSH1 0x1 EQ PUSH2 0xAD2 JUMPI SWAP3 PUSH1 0x1 SWAP6 SWAP3 DUP2 SWAP3 DUP8 SWAP7 SWAP6 SWAP3 PUSH2 0xAC7 JUMPI JUMPDEST POP POP PUSH0 NOT PUSH1 0x3 DUP4 SWAP1 SHL SHR NOT AND SWAP1 DUP5 SHL OR DUP9 SSTORE JUMPDEST ADD SWAP6 ADD SWAP8 ADD SWAP7 SWAP4 PUSH2 0xA57 JUMP JUMPDEST ADD MLOAD SWAP1 POP PUSH0 DUP1 PUSH2 0xAA8 JUMP JUMPDEST SWAP2 SWAP1 PUSH1 0x1F NOT DUP5 AND DUP11 DUP5 MSTORE DUP6 DUP5 KECCAK256 SWAP4 JUMPDEST DUP2 DUP2 LT PUSH2 0xB20 JUMPI POP SWAP2 PUSH1 0x1 SWAP7 SWAP4 SWAP2 DUP6 DUP9 SWAP8 SWAP7 SWAP5 LT PUSH2 0xB08 JUMPI JUMPDEST POP POP POP DUP4 SHL DUP4 ADD DUP9 SSTORE PUSH2 0xABB JUMP JUMPDEST ADD MLOAD PUSH0 NOT PUSH1 0xF8 DUP5 PUSH1 0x3 SHL AND SHR NOT AND SWAP1 SSTORE PUSH0 DUP1 DUP1 PUSH2 0xAFA JUMP JUMPDEST DUP3 DUP5 ADD MLOAD DUP6 SSTORE DUP13 SWAP7 PUSH1 0x1 SWAP1 SWAP6 ADD SWAP5 SWAP4 DUP5 ADD SWAP4 ADD PUSH2 0xAE1 JUMP JUMPDEST DUP3 DUP13 PUSH2 0xB5B SWAP5 MSTORE KECCAK256 DUP5 DUP1 DUP8 ADD DUP12 SHR DUP3 ADD SWAP3 DUP9 DUP9 LT PUSH2 0xB63 JUMPI JUMPDEST ADD DUP11 SHR ADD SWAP1 PUSH2 0x2221 JUMP JUMPDEST DUP13 PUSH0 DUP6 PUSH2 0xA89 JUMP JUMPDEST SWAP3 POP DUP2 SWAP3 PUSH2 0xB51 JUMP JUMPDEST PUSH4 0x4E487B71 PUSH1 0xE0 SHL DUP12 MSTORE PUSH1 0x41 PUSH1 0x4 MSTORE DUP4 DUP12 REVERT JUMPDEST PUSH1 0x9 DUP9 MSTORE DUP6 DUP6 DUP10 KECCAK256 SWAP2 DUP3 ADD SWAP2 ADD JUMPDEST DUP2 DUP2 LT PUSH2 0xB9A JUMPI POP PUSH2 0xA49 JUMP JUMPDEST DUP1 DUP10 PUSH2 0xBA8 PUSH1 0x1 SWAP4 SLOAD PUSH2 0x20F5 JUMP JUMPDEST DUP1 PUSH2 0xBB6 JUMPI JUMPDEST POP POP ADD PUSH2 0xB8D JUMP JUMPDEST PUSH1 0x1F DUP1 DUP3 GT DUP6 EQ PUSH2 0xBCF JUMPI POP POP POP PUSH0 DUP2 SSTORE JUMPDEST DUP10 PUSH0 PUSH2 0xBAE JUMP JUMPDEST PUSH2 0xBE7 SWAP1 DUP5 DUP5 MSTORE DUP11 DUP5 KECCAK256 SWAP3 ADD DUP10 SHR DUP3 ADD DUP6 DUP4 ADD PUSH2 0x2221 JUMP JUMPDEST PUSH0 DUP4 SSTORE SSTORE PUSH2 0xBC8 JUMP JUMPDEST PUSH4 0x4E487B71 PUSH1 0xE0 SHL DUP8 MSTORE PUSH1 0x41 PUSH1 0x4 MSTORE DUP6 DUP8 REVERT JUMPDEST DUP3 CALLDATALOAD DUP7 DUP2 GT PUSH2 0xC29 JUMPI DUP9 SWAP2 PUSH2 0xC1E DUP4 SWAP3 DUP14 CALLDATASIZE SWAP2 DUP8 ADD ADD PUSH2 0x2022 JUMP JUMPDEST DUP2 MSTORE ADD SWAP3 ADD SWAP2 PUSH2 0xA0D JUMP JUMPDEST DUP12 DUP1 REVERT JUMPDEST DUP10 DUP1 REVERT JUMPDEST DUP4 DUP1 REVERT JUMPDEST POP DUP1 REVERT JUMPDEST POP CALLVALUE PUSH2 0x725 JUMPI PUSH1 0x20 CALLDATASIZE PUSH1 0x3 NOT ADD SLT PUSH2 0x725 JUMPI PUSH2 0xC6C PUSH1 0x40 PUSH1 0x20 SWAP3 PUSH1 0x4 CALLDATALOAD DUP2 MSTORE DUP1 DUP5 MSTORE KECCAK256 PUSH1 0x2 PUSH1 0x1 DUP3 ADD SLOAD SWAP2 ADD SLOAD SWAP1 PUSH2 0x22D9 JUMP JUMPDEST PUSH1 0x40 MLOAD SWAP1 DUP2 MSTORE RETURN JUMPDEST POP CALLVALUE PUSH2 0x725 JUMPI PUSH2 0xCA8 PUSH1 0x20 DUP1 SWAP3 PUSH1 0x40 PUSH2 0xC8C CALLDATASIZE PUSH2 0x21CB JUMP JUMPDEST SWAP3 SWAP1 DUP2 MSTORE PUSH1 0x4 DUP5 MSTORE KECCAK256 DUP3 PUSH1 0x40 MLOAD SWAP5 DUP4 DUP7 DUP1 SWAP6 MLOAD SWAP4 DUP5 SWAP3 ADD PUSH2 0x2068 JUMP JUMPDEST DUP3 ADD SWAP1 DUP2 MSTORE SUB ADD SWAP1 KECCAK256 SLOAD PUSH1 0x40 MLOAD SWAP1 DUP2 MSTORE RETURN JUMPDEST POP CALLVALUE PUSH2 0x725 JUMPI PUSH1 0x20 CALLDATASIZE PUSH1 0x3 NOT ADD SLT PUSH2 0x725 JUMPI PUSH2 0xCD4 PUSH2 0x1F6B JUMP JUMPDEST PUSH1 0x12 SLOAD PUSH1 0x1 PUSH1 0x1 PUSH1 0xA0 SHL SUB SWAP2 SWAP1 PUSH2 0xCEE SWAP1 DUP4 AND CALLER EQ PUSH2 0x2751 JUMP JUMPDEST AND PUSH1 0x1 DUP1 PUSH1 0xA0 SHL SUB NOT PUSH1 0xE SLOAD AND OR PUSH1 0xE SSTORE DUP1 RETURN JUMPDEST POP CALLVALUE PUSH2 0x725 JUMPI PUSH1 0x20 CALLDATASIZE PUSH1 0x3 NOT ADD SLT PUSH2 0x725 JUMPI PUSH2 0xD29 PUSH1 0x1 DUP1 PUSH1 0xA0 SHL SUB PUSH1 0x12 SLOAD AND CALLER EQ PUSH2 0x2751 JUMP JUMPDEST PUSH1 0x4 CALLDATALOAD PUSH1 0x11 SSTORE DUP1 RETURN JUMPDEST POP CALLVALUE PUSH2 0x725 JUMPI PUSH1 0x20 CALLDATASIZE PUSH1 0x3 NOT ADD SLT PUSH2 0x725 JUMPI PUSH1 0x40 PUSH2 0xD98 SWAP2 PUSH1 0x4 CALLDATALOAD DUP2 MSTORE DUP1 PUSH1 0x20 MSTORE KECCAK256 PUSH1 0x40 MLOAD SWAP1 PUSH2 0xD6D DUP3 PUSH2 0xD66 DUP2 DUP5 PUSH2 0x212D JUMP JUMPDEST SUB DUP4 PUSH2 0x1FE6 JUMP JUMPDEST PUSH2 0x986 PUSH1 0x1 DUP3 ADD SLOAD SWAP2 PUSH1 0xFF PUSH1 0x3 PUSH1 0x2 DUP4 ADD SLOAD SWAP3 ADD SLOAD AND SWAP1 PUSH1 0x40 MLOAD SWAP6 DUP7 SWAP6 PUSH1 0x80 DUP8 MSTORE PUSH1 0x80 DUP8 ADD SWAP1 PUSH2 0x2089 JUMP JUMPDEST SWAP4 PUSH1 0x20 DUP7 ADD MSTORE PUSH1 0x40 DUP6 ADD MSTORE PUSH1 0x60 DUP5 ADD SWAP1 PUSH2 0x21BE JUMP JUMPDEST POP CALLVALUE PUSH2 0x725 JUMPI PUSH1 0x20 CALLDATASIZE PUSH1 0x3 NOT ADD SLT PUSH2 0x725 JUMPI PUSH1 0x40 PUSH1 0x60 SWAP2 PUSH1 0x4 CALLDATALOAD DUP2 MSTORE PUSH1 0x6 PUSH1 0x20 MSTORE KECCAK256 PUSH1 0x2 DUP2 ADD SLOAD SWAP1 PUSH1 0xFF PUSH1 0x5 PUSH1 0x4 DUP4 ADD SLOAD SWAP3 ADD SLOAD AND SWAP1 PUSH1 0x40 MLOAD SWAP3 DUP4 MSTORE PUSH1 0x20 DUP4 ADD MSTORE ISZERO ISZERO PUSH1 0x40 DUP3 ADD MSTORE RETURN JUMPDEST POP CALLVALUE PUSH2 0x725 JUMPI PUSH1 0x20 CALLDATASIZE PUSH1 0x3 NOT ADD SLT PUSH2 0x725 JUMPI PUSH2 0xE11 PUSH2 0x1F6B JUMP JUMPDEST PUSH1 0x12 SLOAD PUSH1 0x1 PUSH1 0x1 PUSH1 0xA0 SHL SUB SWAP2 SWAP1 PUSH2 0xE2B SWAP1 DUP4 AND CALLER EQ PUSH2 0x2751 JUMP JUMPDEST AND PUSH1 0x1 DUP1 PUSH1 0xA0 SHL SUB NOT PUSH1 0xC SLOAD AND OR PUSH1 0xC SSTORE DUP1 RETURN JUMPDEST POP CALLVALUE PUSH2 0x725 JUMPI PUSH1 0x20 CALLDATASIZE PUSH1 0x3 NOT ADD SLT PUSH2 0x725 JUMPI PUSH1 0x40 PUSH1 0x20 SWAP2 PUSH1 0x4 CALLDATALOAD DUP2 MSTORE PUSH1 0x1 DUP4 MSTORE KECCAK256 SLOAD PUSH1 0x40 MLOAD SWAP1 DUP2 MSTORE RETURN JUMPDEST POP CALLVALUE PUSH2 0x725 JUMPI DUP1 PUSH1 0x3 NOT CALLDATASIZE ADD SLT PUSH2 0x725 JUMPI PUSH1 0x20 PUSH1 0x2 SLOAD PUSH1 0x40 MLOAD SWAP1 DUP2 MSTORE RETURN JUMPDEST POP CALLVALUE PUSH2 0x725 JUMPI PUSH1 0x20 SWAP1 DUP2 PUSH1 0x3 NOT CALLDATASIZE ADD SLT PUSH2 0x725 JUMPI DUP1 PUSH1 0x40 SWAP2 PUSH1 0xA0 DUP4 MLOAD PUSH2 0xEAC DUP2 PUSH2 0x1F81 JUMP JUMPDEST DUP3 DUP2 MSTORE PUSH1 0x60 DUP7 DUP3 ADD MSTORE DUP3 DUP6 DUP3 ADD MSTORE PUSH1 0x60 DUP1 DUP3 ADD MSTORE DUP3 PUSH1 0x80 DUP3 ADD MSTORE ADD MSTORE PUSH1 0x4 CALLDATALOAD DUP2 MSTORE PUSH1 0x6 DUP4 MSTORE KECCAK256 PUSH1 0x40 MLOAD SWAP1 PUSH2 0xEDF DUP3 PUSH2 0x1F81 JUMP JUMPDEST PUSH1 0x1 DUP1 PUSH1 0xA0 SHL SUB SWAP3 DUP4 DUP3 SLOAD AND DUP4 MSTORE PUSH2 0xF8E PUSH1 0x40 MLOAD PUSH2 0xF04 DUP2 PUSH2 0x912 DUP2 PUSH1 0x1 DUP9 ADD PUSH2 0x212D JUMP JUMPDEST DUP3 DUP6 ADD SWAP1 DUP2 MSTORE PUSH1 0x2 DUP5 ADD SLOAD SWAP1 PUSH1 0x40 DUP7 ADD SWAP2 DUP3 MSTORE PUSH2 0xF75 PUSH1 0x40 MLOAD SWAP2 PUSH2 0xF2F DUP4 PUSH2 0x7FD DUP2 PUSH1 0x3 DUP12 ADD PUSH2 0x212D JUMP JUMPDEST PUSH1 0x60 DUP9 ADD SWAP3 DUP4 MSTORE PUSH1 0xFF PUSH1 0x5 PUSH1 0x4 DUP10 ADD SLOAD SWAP9 PUSH1 0x80 DUP12 ADD SWAP10 DUP11 MSTORE ADD SLOAD AND SWAP6 PUSH1 0xA0 DUP10 ADD SWAP7 ISZERO ISZERO DUP8 MSTORE PUSH1 0x40 MLOAD SWAP10 DUP11 SWAP10 DUP3 DUP12 MSTORE MLOAD AND SWAP1 DUP10 ADD MSTORE MLOAD PUSH1 0xC0 PUSH1 0x40 DUP10 ADD MSTORE PUSH1 0xE0 DUP9 ADD SWAP1 PUSH2 0x2089 JUMP JUMPDEST SWAP2 MLOAD PUSH1 0x60 DUP8 ADD MSTORE MLOAD DUP6 DUP3 SUB PUSH1 0x1F NOT ADD PUSH1 0x80 DUP8 ADD MSTORE PUSH2 0x2089 JUMP JUMPDEST SWAP2 MLOAD PUSH1 0xA0 DUP5 ADD MSTORE MLOAD ISZERO ISZERO PUSH1 0xC0 DUP4 ADD MSTORE SUB SWAP1 RETURN JUMPDEST POP CALLVALUE PUSH2 0x725 JUMPI PUSH1 0x20 CALLDATASIZE PUSH1 0x3 NOT ADD SLT PUSH2 0x725 JUMPI PUSH1 0x40 PUSH1 0x20 SWAP2 PUSH1 0x4 CALLDATALOAD DUP2 MSTORE PUSH1 0x5 DUP4 MSTORE KECCAK256 SLOAD PUSH1 0x40 MLOAD SWAP1 DUP2 MSTORE RETURN JUMPDEST POP CALLVALUE PUSH2 0x725 JUMPI PUSH1 0x40 CALLDATASIZE PUSH1 0x3 NOT ADD SLT PUSH2 0x725 JUMPI PUSH1 0x24 CALLDATALOAD PUSH1 0x1 PUSH1 0x1 PUSH1 0xA0 SHL SUB DUP2 AND SWAP2 SWAP1 DUP3 SWAP1 SUB PUSH2 0x559 JUMPI PUSH1 0x40 SWAP1 PUSH1 0x4 CALLDATALOAD DUP2 MSTORE PUSH1 0xA PUSH1 0x20 MSTORE KECCAK256 SWAP1 PUSH0 MSTORE PUSH1 0x20 MSTORE PUSH1 0x20 PUSH1 0xFF PUSH1 0x40 PUSH0 KECCAK256 SLOAD AND PUSH1 0x40 MLOAD SWAP1 ISZERO ISZERO DUP2 MSTORE RETURN JUMPDEST POP CALLVALUE PUSH2 0x725 JUMPI PUSH1 0x20 DUP1 PUSH1 0x3 NOT CALLDATASIZE ADD SLT PUSH2 0xC35 JUMPI PUSH1 0x4 CALLDATALOAD DUP3 MSTORE PUSH1 0x8 DUP2 MSTORE PUSH1 0x40 DUP3 KECCAK256 SWAP2 PUSH1 0x40 MLOAD DUP1 SWAP3 DUP1 DUP6 SLOAD SWAP3 DUP4 DUP2 MSTORE ADD SWAP5 DUP4 MSTORE DUP1 DUP4 KECCAK256 SWAP3 SWAP1 JUMPDEST DUP3 DUP3 LT PUSH2 0x1075 JUMPI PUSH2 0x986 DUP6 PUSH2 0x1069 DUP2 DUP10 SUB DUP3 PUSH2 0x1FE6 JUMP JUMPDEST PUSH1 0x40 MLOAD SWAP2 DUP3 SWAP2 DUP3 PUSH2 0x1F31 JUMP JUMPDEST DUP4 SLOAD DUP7 MSTORE SWAP5 DUP6 ADD SWAP5 PUSH1 0x1 SWAP4 DUP5 ADD SWAP4 SWAP1 SWAP2 ADD SWAP1 PUSH2 0x1052 JUMP JUMPDEST POP CALLVALUE PUSH2 0x725 JUMPI PUSH1 0x20 CALLDATASIZE PUSH1 0x3 NOT ADD SLT PUSH2 0x725 JUMPI PUSH2 0x10B3 PUSH1 0x1 DUP1 PUSH1 0xA0 SHL SUB PUSH1 0x12 SLOAD AND CALLER EQ PUSH2 0x2751 JUMP JUMPDEST PUSH1 0x4 CALLDATALOAD PUSH1 0x10 SSTORE DUP1 RETURN JUMPDEST POP CALLVALUE PUSH2 0x725 JUMPI PUSH1 0x20 CALLDATASIZE PUSH1 0x3 NOT ADD SLT PUSH2 0x725 JUMPI PUSH2 0x10D6 PUSH2 0x1F6B JUMP JUMPDEST PUSH1 0x12 SLOAD PUSH1 0x1 PUSH1 0x1 PUSH1 0xA0 SHL SUB SWAP2 SWAP1 PUSH2 0x10F0 SWAP1 DUP4 AND CALLER EQ PUSH2 0x2751 JUMP JUMPDEST AND PUSH1 0x1 DUP1 PUSH1 0xA0 SHL SUB NOT PUSH1 0xF SLOAD AND OR PUSH1 0xF SSTORE DUP1 RETURN JUMPDEST POP CALLVALUE PUSH2 0x725 JUMPI PUSH1 0x60 CALLDATASIZE PUSH1 0x3 NOT ADD SLT PUSH2 0x725 JUMPI PUSH1 0x24 CALLDATALOAD PUSH1 0x1 PUSH1 0x1 PUSH1 0x40 SHL SUB DUP2 GT PUSH2 0xC35 JUMPI PUSH2 0x1135 SWAP1 CALLDATASIZE SWAP1 PUSH1 0x4 ADD PUSH2 0x2022 JUMP JUMPDEST SWAP1 PUSH1 0x4 CALLDATALOAD DUP2 MSTORE DUP1 PUSH1 0x20 MSTORE PUSH2 0x1151 PUSH1 0x1 PUSH1 0x40 DUP4 KECCAK256 ADD SLOAD ISZERO ISZERO PUSH2 0x2291 JUMP JUMPDEST PUSH2 0x1190 DUP2 PUSH1 0x1 DUP1 PUSH1 0xA0 SHL SUB PUSH1 0xC SLOAD AND PUSH1 0x4 CALLDATALOAD DUP3 MSTORE DUP2 PUSH1 0x20 MSTORE PUSH1 0x40 DUP3 KECCAK256 SWAP1 PUSH1 0x40 MLOAD DUP1 DUP1 SWAP6 DUP2 SWAP5 PUSH3 0x6E7C31 PUSH1 0xE9 SHL DUP4 MSTORE PUSH1 0x20 PUSH1 0x4 DUP5 ADD MSTORE PUSH1 0x24 DUP4 ADD SWAP1 PUSH2 0x212D JUMP JUMPDEST SUB SWAP2 GAS STATICCALL SWAP1 DUP2 ISZERO PUSH2 0x193D JUMPI DUP3 SWAP2 PUSH2 0x1815 JUMPI JUMPDEST POP PUSH1 0x1 PUSH1 0x44 CALLDATALOAD GT ISZERO PUSH2 0x17D1 JUMPI PUSH2 0x11BC PUSH1 0x9 SLOAD DUP3 MLOAD SWAP1 PUSH2 0x22D9 JUMP JUMPDEST PUSH1 0x44 CALLDATALOAD GT PUSH2 0x1791 JUMPI PUSH1 0x4 CALLDATALOAD DUP3 MSTORE PUSH1 0xA PUSH1 0x20 MSTORE PUSH1 0x40 DUP3 KECCAK256 CALLER PUSH0 MSTORE PUSH1 0x20 MSTORE PUSH1 0xFF PUSH1 0x40 PUSH0 KECCAK256 SLOAD AND PUSH2 0x1742 JUMPI PUSH2 0x124E SWAP1 PUSH1 0x4 CALLDATALOAD DUP4 MSTORE PUSH1 0xA PUSH1 0x20 MSTORE PUSH1 0x40 DUP4 KECCAK256 CALLER PUSH0 MSTORE PUSH1 0x20 MSTORE PUSH1 0x40 PUSH0 KECCAK256 PUSH1 0x1 PUSH1 0xFF NOT DUP3 SLOAD AND OR SWAP1 SSTORE PUSH1 0x20 PUSH1 0x1 DUP1 PUSH1 0xA0 SHL SUB PUSH1 0xD SLOAD AND PUSH1 0x4 CALLDATALOAD DUP6 MSTORE DUP5 DUP3 MSTORE PUSH1 0x40 DUP6 KECCAK256 SWAP1 PUSH1 0x40 MLOAD DUP1 DUP1 SWAP7 DUP2 SWAP5 PUSH4 0x2B5DF59 PUSH1 0xE0 SHL DUP4 MSTORE CALLER PUSH1 0x4 DUP5 ADD MSTORE PUSH1 0x40 PUSH1 0x24 DUP5 ADD MSTORE PUSH1 0x44 DUP4 ADD SWAP1 PUSH2 0x212D JUMP JUMPDEST SUB SWAP2 GAS STATICCALL SWAP2 DUP3 ISZERO PUSH2 0x1737 JUMPI DUP4 SWAP3 PUSH2 0x1703 JUMPI JUMPDEST POP PUSH1 0x9 SLOAD SWAP1 PUSH1 0x44 CALLDATALOAD DUP3 LT PUSH2 0x16B2 JUMPI POP PUSH0 NOT SWAP1 PUSH1 0x44 CALLDATALOAD DUP1 DUP4 ADD SWAP1 DUP2 GT PUSH2 0x169E JUMPI LT ISZERO PUSH2 0x168A JUMPI PUSH2 0x12A5 PUSH2 0x912 SWAP2 PUSH1 0x9 PUSH0 MSTORE PUSH1 0x44 CALLDATALOAD PUSH1 0x20 PUSH0 KECCAK256 ADD ADD PUSH1 0x40 MLOAD SWAP3 DUP4 DUP1 SWAP3 PUSH2 0x212D JUMP JUMPDEST SWAP3 JUMPDEST DUP3 SWAP4 PUSH1 0x4 CALLDATALOAD DUP5 MSTORE DUP4 PUSH1 0x20 MSTORE PUSH1 0xFF PUSH1 0x3 PUSH1 0x40 DUP7 KECCAK256 ADD SLOAD AND PUSH1 0x4 DUP2 LT ISZERO PUSH2 0x1676 JUMPI PUSH1 0x1 SUB PUSH2 0x166D JUMPI JUMPDEST PUSH1 0x40 MLOAD SWAP5 PUSH2 0x12DB DUP7 PUSH2 0x1F81 JUMP JUMPDEST CALLER DUP7 MSTORE PUSH1 0x20 DUP7 ADD SWAP6 DUP4 DUP8 MSTORE PUSH1 0x44 CALLDATALOAD PUSH1 0x40 DUP3 ADD MSTORE DUP3 PUSH1 0x60 DUP3 ADD MSTORE DUP5 PUSH1 0x80 DUP3 ADD MSTORE DUP2 ISZERO ISZERO PUSH1 0xA0 DUP3 ADD MSTORE PUSH1 0x7 SLOAD DUP7 MSTORE PUSH1 0x6 PUSH1 0x20 MSTORE PUSH1 0x40 DUP7 KECCAK256 SWAP7 PUSH1 0x1 DUP1 PUSH1 0xA0 SHL SUB DUP3 MLOAD AND PUSH1 0x1 DUP1 PUSH1 0xA0 SHL SUB NOT DUP10 SLOAD AND OR DUP9 SSTORE MLOAD DUP1 MLOAD PUSH1 0x1 PUSH1 0x1 PUSH1 0x40 SHL SUB DUP2 GT PUSH2 0x15BB JUMPI DUP1 PUSH1 0x1 DUP11 ADD SWAP3 PUSH2 0x134A DUP5 SLOAD PUSH2 0x20F5 JUMP JUMPDEST PUSH1 0x1F DUP2 GT PUSH2 0x163D JUMPI JUMPDEST POP PUSH1 0x20 SWAP1 PUSH1 0x1F DUP4 GT PUSH1 0x1 EQ PUSH2 0x15DA JUMPI DUP11 SWAP3 PUSH2 0x15CF JUMPI JUMPDEST POP POP DUP2 PUSH1 0x1 SHL SWAP2 PUSH0 NOT SWAP1 PUSH1 0x3 SHL SHR NOT AND OR SWAP1 SSTORE JUMPDEST PUSH1 0x40 DUP2 ADD MLOAD PUSH1 0x2 DUP9 ADD SSTORE PUSH1 0x60 DUP2 ADD MLOAD SWAP7 DUP8 MLOAD PUSH1 0x1 PUSH1 0x1 PUSH1 0x40 SHL SUB DUP2 GT PUSH2 0x15BB JUMPI PUSH2 0x13AA PUSH1 0x3 DUP4 ADD SLOAD PUSH2 0x20F5 JUMP JUMPDEST PUSH1 0x1F DUP2 GT PUSH2 0x1588 JUMPI JUMPDEST POP PUSH1 0x20 PUSH1 0x1F DUP3 GT PUSH1 0x1 EQ PUSH2 0x14ED JUMPI PUSH1 0x5 PUSH2 0x1490 SWAP6 SWAP4 DUP4 PUSH32 0xFAB0B7CC55D5C47EEF9AB7FCD4C01A41A4DDFA36CEC643D2A9CB97B3F57915D4 SWAP9 SWAP7 SWAP5 PUSH1 0xA0 SWAP5 DUP14 SWAP15 PUSH2 0x14B3 SWAP15 SWAP3 PUSH2 0x14E2 JUMPI JUMPDEST POP POP DUP2 PUSH1 0x1 SHL SWAP2 PUSH0 NOT SWAP1 PUSH1 0x3 SHL SHR NOT AND OR PUSH1 0x3 DUP3 ADD SSTORE JUMPDEST PUSH1 0x80 DUP5 ADD MLOAD PUSH1 0x4 DUP3 ADD SSTORE ADD SWAP2 ADD MLOAD ISZERO ISZERO PUSH1 0xFF DUP1 NOT DUP4 SLOAD AND SWAP2 AND OR SWAP1 SSTORE PUSH1 0x4 CALLDATALOAD DUP9 MSTORE PUSH1 0x8 PUSH1 0x20 MSTORE PUSH2 0x1449 PUSH1 0x40 DUP10 KECCAK256 PUSH1 0x7 SLOAD SWAP1 PUSH2 0x224F JUMP JUMPDEST PUSH2 0x14A3 PUSH1 0x7 SLOAD SWAP7 DUP8 SWAP7 PUSH1 0x40 MLOAD SWAP6 DUP7 SWAP6 CALLER DUP14 DUP12 PUSH32 0x953DE3727DE1848EA7329BEE97A44132BDD8271D8D663EB90BC2772F21541EC8 PUSH1 0x4 CALLDATALOAD SWAP3 DUP1 LOG4 PUSH1 0x80 DUP8 MSTORE PUSH1 0x80 DUP8 ADD SWAP1 PUSH2 0x2089 JUMP JUMPDEST SWAP2 PUSH1 0x20 DUP7 ADD MSTORE DUP5 DUP3 SUB PUSH1 0x40 DUP7 ADD MSTORE PUSH2 0x2089 JUMP JUMPDEST SWAP1 ISZERO ISZERO PUSH1 0x60 DUP4 ADD MSTORE SUB SWAP1 LOG2 PUSH2 0x2283 JUMP JUMPDEST SWAP1 DUP2 PUSH1 0x7 SSTORE PUSH0 NOT DUP3 ADD SWAP2 DUP3 GT PUSH2 0x14CE JUMPI PUSH1 0x20 DUP3 PUSH1 0x40 MLOAD SWAP1 DUP2 MSTORE RETURN JUMPDEST PUSH4 0x4E487B71 PUSH1 0xE0 SHL DUP2 MSTORE PUSH1 0x11 PUSH1 0x4 MSTORE PUSH1 0x24 SWAP1 REVERT JUMPDEST ADD MLOAD SWAP1 POP PUSH0 DUP1 PUSH2 0x13FC JUMP JUMPDEST PUSH1 0x3 DUP4 ADD DUP10 MSTORE PUSH1 0x20 DUP10 KECCAK256 SWAP10 DUP10 JUMPDEST PUSH1 0x1F NOT DUP5 AND DUP2 LT PUSH2 0x1570 JUMPI POP PUSH2 0x1490 SWAP6 SWAP4 PUSH1 0x1 DUP5 PUSH2 0x14B3 SWAP13 SWAP14 PUSH1 0xA0 SWAP6 PUSH1 0x5 SWAP6 PUSH32 0xFAB0B7CC55D5C47EEF9AB7FCD4C01A41A4DDFA36CEC643D2A9CB97B3F57915D4 SWAP13 SWAP11 SWAP9 PUSH1 0x1F NOT DUP2 AND LT PUSH2 0x1558 JUMPI JUMPDEST POP POP POP DUP2 SHL ADD PUSH1 0x3 DUP3 ADD SSTORE PUSH2 0x1413 JUMP JUMPDEST ADD MLOAD PUSH0 NOT PUSH1 0xF8 DUP5 PUSH1 0x3 SHL AND SHR NOT AND SWAP1 SSTORE PUSH0 DUP1 DUP1 PUSH2 0x1548 JUMP JUMPDEST DUP3 DUP3 ADD MLOAD DUP13 SSTORE PUSH1 0x1 SWAP1 SWAP12 ADD SWAP11 PUSH1 0x20 SWAP3 DUP4 ADD SWAP3 ADD PUSH2 0x14FA JUMP JUMPDEST PUSH2 0x15B5 SWAP1 PUSH1 0x3 DUP5 ADD DUP11 MSTORE PUSH1 0x20 DUP11 KECCAK256 PUSH1 0x1F DUP5 ADD PUSH1 0x5 SHR DUP2 ADD SWAP2 PUSH1 0x20 DUP6 LT PUSH2 0x4C0 JUMPI PUSH1 0x1F ADD PUSH1 0x5 SHR ADD SWAP1 PUSH2 0x2221 JUMP JUMPDEST PUSH0 PUSH2 0x13B3 JUMP JUMPDEST PUSH4 0x4E487B71 PUSH1 0xE0 SHL DUP9 MSTORE PUSH1 0x41 PUSH1 0x4 MSTORE PUSH1 0x24 DUP9 REVERT JUMPDEST ADD MLOAD SWAP1 POP PUSH0 DUP1 PUSH2 0x1369 JUMP JUMPDEST DUP5 DUP12 MSTORE PUSH1 0x20 DUP12 KECCAK256 SWAP3 POP PUSH1 0x1F NOT DUP5 AND DUP12 JUMPDEST DUP2 DUP2 LT PUSH2 0x1625 JUMPI POP SWAP1 DUP5 PUSH1 0x1 SWAP6 SWAP5 SWAP4 SWAP3 LT PUSH2 0x160D JUMPI JUMPDEST POP POP POP DUP2 SHL ADD SWAP1 SSTORE PUSH2 0x137D JUMP JUMPDEST ADD MLOAD PUSH0 NOT PUSH1 0xF8 DUP5 PUSH1 0x3 SHL AND SHR NOT AND SWAP1 SSTORE PUSH0 DUP1 DUP1 PUSH2 0x1600 JUMP JUMPDEST SWAP3 SWAP4 PUSH1 0x20 PUSH1 0x1 DUP2 SWAP3 DUP8 DUP7 ADD MLOAD DUP2 SSTORE ADD SWAP6 ADD SWAP4 ADD PUSH2 0x15EA JUMP JUMPDEST PUSH2 0x1667 SWAP1 DUP6 DUP13 MSTORE PUSH1 0x20 DUP13 KECCAK256 PUSH1 0x1F DUP6 ADD PUSH1 0x5 SHR DUP2 ADD SWAP2 PUSH1 0x20 DUP7 LT PUSH2 0x4C0 JUMPI PUSH1 0x1F ADD PUSH1 0x5 SHR ADD SWAP1 PUSH2 0x2221 JUMP JUMPDEST PUSH0 PUSH2 0x1353 JUMP JUMPDEST PUSH1 0x1 SWAP5 POP PUSH2 0x12CE JUMP JUMPDEST PUSH4 0x4E487B71 PUSH1 0xE0 SHL DUP6 MSTORE PUSH1 0x21 PUSH1 0x4 MSTORE PUSH1 0x24 DUP6 REVERT JUMPDEST PUSH4 0x4E487B71 PUSH1 0xE0 SHL PUSH0 MSTORE PUSH1 0x32 PUSH1 0x4 MSTORE PUSH1 0x24 PUSH0 REVERT JUMPDEST PUSH4 0x4E487B71 PUSH1 0xE0 SHL DUP6 MSTORE PUSH1 0x11 PUSH1 0x4 MSTORE PUSH1 0x24 DUP6 REVERT JUMPDEST PUSH1 0x44 CALLDATALOAD SWAP2 DUP3 SUB SWAP2 DUP3 GT PUSH2 0x16EF JUMPI PUSH0 NOT DUP3 ADD SWAP2 DUP3 GT PUSH2 0x16DB JUMPI SWAP1 PUSH2 0x16D4 SWAP2 PUSH2 0x22E6 JUMP JUMPDEST MLOAD SWAP3 PUSH2 0x12A7 JUMP JUMPDEST PUSH4 0x4E487B71 PUSH1 0xE0 SHL DUP5 MSTORE PUSH1 0x11 PUSH1 0x4 MSTORE PUSH1 0x24 DUP5 REVERT JUMPDEST PUSH4 0x4E487B71 PUSH1 0xE0 SHL PUSH0 MSTORE PUSH1 0x11 PUSH1 0x4 MSTORE PUSH1 0x24 PUSH0 REVERT JUMPDEST SWAP1 SWAP2 POP PUSH1 0x20 DUP2 RETURNDATASIZE PUSH1 0x20 GT PUSH2 0x172F JUMPI JUMPDEST DUP2 PUSH2 0x171F PUSH1 0x20 SWAP4 DUP4 PUSH2 0x1FE6 JUMP JUMPDEST DUP2 ADD SUB SLT PUSH2 0x559 JUMPI MLOAD SWAP1 PUSH0 PUSH2 0x1260 JUMP JUMPDEST RETURNDATASIZE SWAP2 POP PUSH2 0x1712 JUMP JUMPDEST PUSH1 0x40 MLOAD RETURNDATASIZE DUP6 DUP3 RETURNDATACOPY RETURNDATASIZE SWAP1 REVERT JUMPDEST PUSH1 0x40 MLOAD PUSH3 0x461BCD PUSH1 0xE5 SHL DUP2 MSTORE PUSH1 0x20 PUSH1 0x4 DUP3 ADD MSTORE PUSH1 0x21 PUSH1 0x24 DUP3 ADD MSTORE PUSH32 0x596F7527766520616C7265616479207265766965776564207468697320706F73 PUSH1 0x44 DUP3 ADD MSTORE PUSH1 0x1D PUSH1 0xFA SHL PUSH1 0x64 DUP3 ADD MSTORE PUSH1 0x84 SWAP1 REVERT JUMPDEST PUSH1 0x40 MLOAD PUSH3 0x461BCD PUSH1 0xE5 SHL DUP2 MSTORE PUSH1 0x20 PUSH1 0x4 DUP3 ADD MSTORE PUSH1 0x18 PUSH1 0x24 DUP3 ADD MSTORE PUSH24 0x436F6E73656E736F7573204E6F7420496E20426F756E6473 PUSH1 0x40 SHL PUSH1 0x44 DUP3 ADD MSTORE PUSH1 0x64 SWAP1 REVERT JUMPDEST PUSH1 0x64 PUSH1 0x40 MLOAD PUSH3 0x461BCD PUSH1 0xE5 SHL DUP2 MSTORE PUSH1 0x20 PUSH1 0x4 DUP3 ADD MSTORE PUSH1 0x20 PUSH1 0x24 DUP3 ADD MSTORE PUSH32 0x436F6E73656E736F7573206D75732062652067726561746572207468616E2031 PUSH1 0x44 DUP3 ADD MSTORE REVERT JUMPDEST SWAP1 POP RETURNDATASIZE DUP1 DUP4 DUP4 RETURNDATACOPY PUSH2 0x1826 DUP2 DUP4 PUSH2 0x1FE6 JUMP JUMPDEST PUSH1 0x20 DUP3 DUP3 DUP2 ADD SUB SLT PUSH2 0x1939 JUMPI DUP2 MLOAD PUSH1 0x1 PUSH1 0x1 PUSH1 0x40 SHL SUB DUP2 GT PUSH2 0xC31 JUMPI DUP2 DUP4 ADD PUSH1 0x1F DUP3 DUP6 ADD ADD SLT ISZERO PUSH2 0xC31 JUMPI DUP1 DUP4 ADD MLOAD SWAP1 PUSH2 0x185F DUP3 PUSH2 0x21FD JUMP JUMPDEST SWAP4 PUSH2 0x186D PUSH1 0x40 MLOAD SWAP6 DUP7 PUSH2 0x1FE6 JUMP JUMPDEST DUP3 DUP6 MSTORE PUSH1 0x20 DUP6 ADD SWAP2 DUP5 DUP3 ADD PUSH1 0x20 DUP6 PUSH1 0x5 SHL DUP4 DUP6 ADD ADD ADD GT PUSH2 0x1935 JUMPI PUSH1 0x20 DUP2 DUP4 ADD ADD SWAP3 JUMPDEST PUSH1 0x20 DUP6 PUSH1 0x5 SHL DUP4 DUP6 ADD ADD ADD DUP5 LT PUSH2 0x18AD JUMPI POP POP POP POP POP POP PUSH0 PUSH2 0x11A2 JUMP JUMPDEST DUP4 MLOAD PUSH1 0x1 PUSH1 0x1 PUSH1 0x40 SHL SUB DUP2 GT PUSH2 0x1931 JUMPI DUP7 DUP5 ADD PUSH1 0x3F DUP3 DUP6 DUP8 ADD ADD ADD SLT ISZERO PUSH2 0x1931 JUMPI PUSH1 0x20 DUP2 DUP5 DUP7 ADD ADD ADD MLOAD PUSH2 0x18E0 DUP2 PUSH2 0x2007 JUMP JUMPDEST SWAP2 PUSH2 0x18EE PUSH1 0x40 MLOAD SWAP4 DUP5 PUSH2 0x1FE6 JUMP JUMPDEST DUP2 DUP4 MSTORE DUP9 DUP7 ADD PUSH1 0x40 DUP4 DUP4 DUP9 DUP11 ADD ADD ADD ADD GT PUSH2 0x192D JUMPI SWAP3 DUP3 PUSH2 0x1920 PUSH1 0x20 SWAP6 SWAP4 DUP7 SWAP6 SWAP5 PUSH1 0x40 DUP8 DUP1 SWAP8 ADD SWAP2 DUP11 DUP13 ADD ADD ADD PUSH2 0x2068 JUMP JUMPDEST DUP2 MSTORE ADD SWAP5 ADD SWAP4 SWAP1 POP PUSH2 0x1890 JUMP JUMPDEST DUP11 DUP1 REVERT JUMPDEST DUP9 DUP1 REVERT JUMPDEST DUP7 DUP1 REVERT JUMPDEST DUP3 DUP1 REVERT JUMPDEST PUSH1 0x40 MLOAD RETURNDATASIZE DUP5 DUP3 RETURNDATACOPY RETURNDATASIZE SWAP1 REVERT JUMPDEST POP CALLVALUE PUSH2 0x725 JUMPI PUSH1 0x20 CALLDATASIZE PUSH1 0x3 NOT ADD SLT PUSH2 0x725 JUMPI PUSH2 0x1962 PUSH2 0x1F6B JUMP JUMPDEST PUSH1 0x12 SLOAD PUSH1 0x1 PUSH1 0x1 PUSH1 0xA0 SHL SUB SWAP2 SWAP1 PUSH2 0x197C SWAP1 DUP4 AND CALLER EQ PUSH2 0x2751 JUMP JUMPDEST AND PUSH1 0x1 DUP1 PUSH1 0xA0 SHL SUB NOT PUSH1 0xB SLOAD AND OR PUSH1 0xB SSTORE DUP1 RETURN JUMPDEST POP CALLVALUE PUSH2 0x725 JUMPI DUP1 PUSH1 0x3 NOT CALLDATASIZE ADD SLT PUSH2 0x725 JUMPI PUSH1 0x20 PUSH1 0x11 SLOAD PUSH1 0x40 MLOAD SWAP1 DUP2 MSTORE RETURN JUMPDEST POP CALLVALUE PUSH2 0x725 JUMPI DUP1 PUSH1 0x3 NOT CALLDATASIZE ADD SLT PUSH2 0x725 JUMPI PUSH1 0xC SLOAD PUSH1 0x40 MLOAD PUSH1 0x1 PUSH1 0x1 PUSH1 0xA0 SHL SUB SWAP1 SWAP2 AND DUP2 MSTORE PUSH1 0x20 SWAP1 RETURN JUMPDEST POP CALLVALUE PUSH2 0x725 JUMPI PUSH1 0x20 DUP1 PUSH1 0x3 NOT CALLDATASIZE ADD SLT PUSH2 0xC35 JUMPI PUSH1 0x1 PUSH1 0x1 PUSH1 0x40 SHL SUB SWAP1 PUSH1 0x4 CALLDATALOAD DUP3 DUP2 GT PUSH2 0xC31 JUMPI CALLDATASIZE PUSH1 0x23 DUP3 ADD SLT ISZERO PUSH2 0xC31 JUMPI DUP1 PUSH1 0x4 ADD CALLDATALOAD SWAP3 DUP4 GT PUSH2 0xC31 JUMPI DUP3 DUP2 ADD PUSH1 0x24 SWAP4 CALLDATASIZE DUP6 DUP4 ADD GT PUSH2 0x673 JUMPI DUP4 SUB PUSH2 0x1B87 JUMPI DUP2 DUP4 SWAP2 SUB SLT PUSH2 0xC31 JUMPI DUP3 ADD CALLDATALOAD SWAP2 DUP4 DUP4 SLT ISZERO PUSH2 0x1B81 JUMPI PUSH2 0x1A47 DUP4 PUSH2 0x22FA JUMP JUMPDEST PUSH1 0x1 DUP1 PUSH1 0xA0 SHL SUB DUP1 PUSH1 0xF SLOAD AND DUP3 DUP8 MSTORE PUSH1 0x5 DUP6 MSTORE DUP5 PUSH1 0x40 DUP9 KECCAK256 SLOAD DUP6 PUSH1 0x40 MLOAD DUP1 SWAP5 DUP2 SWAP4 PUSH4 0x6F0817EB PUSH1 0xE1 SHL DUP4 MSTORE PUSH1 0x4 DUP4 ADD MSTORE GAS STATICCALL SWAP1 DUP2 ISZERO PUSH2 0x1B76 JUMPI DUP8 SWAP2 PUSH2 0x1B49 JUMPI JUMPDEST POP AND SWAP2 DUP3 CALLER SUB PUSH2 0x1AF8 JUMPI SWAP1 DUP4 SWAP2 PUSH1 0x40 MLOAD DUP1 SWAP5 DUP2 SWAP4 PUSH4 0xD670D4A9 PUSH1 0xE0 SHL DUP4 MSTORE PUSH1 0x4 DUP4 ADD MSTORE GAS STATICCALL DUP1 ISZERO PUSH2 0x1AED JUMPI PUSH2 0x1AC4 JUMPI JUMPDEST DUP4 PUSH2 0x1AC1 DUP5 PUSH2 0x2329 JUMP JUMPDEST DUP1 RETURN JUMPDEST DUP2 RETURNDATASIZE DUP4 GT PUSH2 0x1AE6 JUMPI JUMPDEST PUSH2 0x1AD7 DUP2 DUP4 PUSH2 0x1FE6 JUMP JUMPDEST DUP2 ADD SUB SLT PUSH2 0x559 JUMPI PUSH0 DUP1 PUSH2 0x1AB7 JUMP JUMPDEST POP RETURNDATASIZE PUSH2 0x1ACD JUMP JUMPDEST PUSH1 0x40 MLOAD RETURNDATASIZE DUP7 DUP3 RETURNDATACOPY RETURNDATASIZE SWAP1 REVERT JUMPDEST DUP4 PUSH1 0x25 PUSH1 0x84 SWAP3 PUSH1 0x40 MLOAD SWAP3 PUSH3 0x461BCD PUSH1 0xE5 SHL DUP5 MSTORE PUSH1 0x4 DUP5 ADD MSTORE DUP3 ADD MSTORE PUSH32 0x4F6E6C79206C616E6520636F6E74726163742063616E20706572666F726D2075 PUSH1 0x44 DUP3 ADD MSTORE PUSH5 0x706B65657 PUSH1 0xDC SHL PUSH1 0x64 DUP3 ADD MSTORE REVERT JUMPDEST PUSH2 0x1B69 SWAP2 POP DUP6 RETURNDATASIZE DUP8 GT PUSH2 0x1B6F JUMPI JUMPDEST PUSH2 0x1B61 DUP2 DUP4 PUSH2 0x1FE6 JUMP JUMPDEST DUP2 ADD SWAP1 PUSH2 0x230A JUMP JUMPDEST PUSH0 PUSH2 0x1A87 JUMP JUMPDEST POP RETURNDATASIZE PUSH2 0x1B57 JUMP JUMPDEST PUSH1 0x40 MLOAD RETURNDATASIZE DUP10 DUP3 RETURNDATACOPY RETURNDATASIZE SWAP1 REVERT JUMPDEST DUP3 PUSH2 0x1A47 JUMP JUMPDEST PUSH1 0x40 MLOAD PUSH3 0x461BCD PUSH1 0xE5 SHL DUP2 MSTORE PUSH1 0x4 DUP2 ADD DUP5 SWAP1 MSTORE PUSH1 0x1A DUP2 DUP7 ADD MSTORE PUSH32 0x496E76616C696420706572666F726D44617461206C656E677468000000000000 PUSH1 0x44 DUP3 ADD MSTORE PUSH1 0x64 SWAP1 REVERT JUMPDEST POP CALLVALUE PUSH2 0x725 JUMPI DUP1 PUSH1 0x3 NOT CALLDATASIZE ADD SLT PUSH2 0x725 JUMPI PUSH1 0x20 PUSH1 0x10 SLOAD PUSH1 0x40 MLOAD SWAP1 DUP2 MSTORE RETURN JUMPDEST POP CALLVALUE PUSH2 0x725 JUMPI PUSH1 0x20 CALLDATASIZE PUSH1 0x3 NOT ADD SLT PUSH2 0x725 JUMPI PUSH2 0x1C03 PUSH2 0x1F6B JUMP JUMPDEST PUSH1 0x12 SLOAD PUSH1 0x1 PUSH1 0x1 PUSH1 0xA0 SHL SUB SWAP2 SWAP1 PUSH2 0x1C1D SWAP1 DUP4 AND CALLER EQ PUSH2 0x2751 JUMP JUMPDEST AND PUSH1 0x1 DUP1 PUSH1 0xA0 SHL SUB NOT PUSH1 0xD SLOAD AND OR PUSH1 0xD SSTORE DUP1 RETURN JUMPDEST POP CALLVALUE PUSH2 0x725 JUMPI PUSH1 0x20 DUP1 PUSH1 0x3 NOT CALLDATASIZE ADD SLT PUSH2 0xC35 JUMPI PUSH1 0x4 CALLDATALOAD DUP1 ISZERO PUSH2 0x1DFF JUMPI DUP1 DUP4 MSTORE DUP3 DUP3 MSTORE PUSH1 0x1 PUSH1 0x40 DUP5 KECCAK256 ADD SLOAD ISZERO PUSH2 0x1DA7 JUMPI PUSH2 0x1C69 SWAP1 PUSH2 0x2475 JUMP JUMPDEST SWAP2 SWAP1 ISZERO PUSH2 0x1D54 JUMPI DUP2 PUSH2 0x1C7B DUP5 SWAP4 PUSH2 0x2329 JUMP JUMPDEST DUP3 DUP2 SLT ISZERO PUSH2 0x1D4E JUMPI PUSH2 0x1C8C SWAP1 PUSH2 0x22FA JUMP JUMPDEST SWAP1 JUMPDEST PUSH1 0x1 DUP1 PUSH1 0xA0 SHL SUB SWAP1 DUP2 PUSH1 0xF SLOAD AND DUP4 DUP6 MSTORE PUSH1 0x5 DUP3 MSTORE DUP2 PUSH1 0x40 DUP7 KECCAK256 SLOAD PUSH1 0x24 PUSH1 0x40 MLOAD DUP1 SWAP5 DUP2 SWAP4 PUSH4 0x6F0817EB PUSH1 0xE1 SHL DUP4 MSTORE PUSH1 0x4 DUP4 ADD MSTORE GAS STATICCALL SWAP2 DUP3 ISZERO PUSH2 0x5E2 JUMPI DUP6 SWAP3 PUSH2 0x1D31 JUMPI JUMPDEST POP POP AND DUP1 EXTCODESIZE ISZERO PUSH2 0x1D2D JUMPI PUSH1 0x24 DUP4 SWAP3 PUSH1 0x40 MLOAD SWAP5 DUP6 SWAP4 DUP5 SWAP3 PUSH4 0x2E43DA9 PUSH1 0xE3 SHL DUP5 MSTORE PUSH1 0x4 DUP5 ADD MSTORE GAS CALL DUP1 ISZERO PUSH2 0x193D JUMPI PUSH2 0x1D05 JUMPI POP DUP1 RETURN JUMPDEST PUSH1 0x1 PUSH1 0x1 PUSH1 0x40 SHL SUB DUP2 GT PUSH2 0x1D19 JUMPI PUSH1 0x40 MSTORE DUP1 RETURN JUMPDEST PUSH4 0x4E487B71 PUSH1 0xE0 SHL DUP3 MSTORE PUSH1 0x41 PUSH1 0x4 MSTORE PUSH1 0x24 DUP3 REVERT JUMPDEST POP POP REVERT JUMPDEST PUSH2 0x1D47 SWAP3 POP DUP1 RETURNDATASIZE LT PUSH2 0x1B6F JUMPI PUSH2 0x1B61 DUP2 DUP4 PUSH2 0x1FE6 JUMP JUMPDEST PUSH0 DUP1 PUSH2 0x1CD0 JUMP JUMPDEST SWAP1 PUSH2 0x1C8E JUMP JUMPDEST PUSH1 0x40 MLOAD PUSH3 0x461BCD PUSH1 0xE5 SHL DUP2 MSTORE PUSH1 0x20 PUSH1 0x4 DUP3 ADD MSTORE PUSH1 0x25 PUSH1 0x24 DUP3 ADD MSTORE PUSH32 0x55706B656570206E6F74206E656564656420666F722074686973207375626D69 PUSH1 0x44 DUP3 ADD MSTORE PUSH5 0x39B9B4B7B7 PUSH1 0xD9 SHL PUSH1 0x64 DUP3 ADD MSTORE PUSH1 0x84 SWAP1 REVERT JUMPDEST PUSH1 0x40 MLOAD PUSH3 0x461BCD PUSH1 0xE5 SHL DUP2 MSTORE PUSH1 0x4 DUP2 ADD DUP4 SWAP1 MSTORE PUSH1 0x2A PUSH1 0x24 DUP3 ADD MSTORE PUSH32 0x5375626D697373696F6E20646F6573206E6F74206578697374206F7220697320 PUSH1 0x44 DUP3 ADD MSTORE PUSH10 0x6E6F7420616374697665 PUSH1 0xB0 SHL PUSH1 0x64 DUP3 ADD MSTORE PUSH1 0x84 SWAP1 REVERT JUMPDEST PUSH1 0x40 MLOAD PUSH3 0x461BCD PUSH1 0xE5 SHL DUP2 MSTORE PUSH1 0x4 DUP2 ADD DUP4 SWAP1 MSTORE PUSH1 0x15 PUSH1 0x24 DUP3 ADD MSTORE PUSH21 0x125B9D985B1A59081CDD589B5A5CDCDA5BDB881251 PUSH1 0x5A SHL PUSH1 0x44 DUP3 ADD MSTORE PUSH1 0x64 SWAP1 REVERT JUMPDEST POP CALLVALUE PUSH2 0x725 JUMPI PUSH1 0x20 DUP1 PUSH1 0x3 NOT CALLDATASIZE ADD SLT PUSH2 0xC35 JUMPI PUSH1 0x4 CALLDATALOAD DUP3 MSTORE PUSH1 0x3 DUP2 MSTORE PUSH1 0x40 DUP3 KECCAK256 SWAP2 PUSH1 0x40 MLOAD DUP1 SWAP3 DUP1 DUP6 SLOAD SWAP3 DUP4 DUP2 MSTORE ADD SWAP5 DUP4 MSTORE DUP1 DUP4 KECCAK256 SWAP3 SWAP1 JUMPDEST DUP3 DUP3 LT PUSH2 0x1E8A JUMPI PUSH2 0x986 DUP6 PUSH2 0x1069 DUP2 DUP10 SUB DUP3 PUSH2 0x1FE6 JUMP JUMPDEST DUP4 SLOAD DUP7 MSTORE SWAP5 DUP6 ADD SWAP5 PUSH1 0x1 SWAP4 DUP5 ADD SWAP4 SWAP1 SWAP2 ADD SWAP1 PUSH2 0x1E73 JUMP JUMPDEST POP CALLVALUE PUSH2 0x725 JUMPI PUSH2 0x1EB0 CALLDATASIZE PUSH2 0x1F06 JUMP JUMPDEST SWAP2 SWAP1 DUP2 MSTORE PUSH1 0x8 PUSH1 0x20 MSTORE PUSH1 0x40 DUP2 KECCAK256 SWAP1 DUP2 SLOAD DUP4 LT ISZERO PUSH2 0x725 JUMPI PUSH1 0x20 PUSH2 0x1ED3 DUP5 DUP5 PUSH2 0x1F1C JUMP JUMPDEST SWAP1 SLOAD PUSH1 0x40 MLOAD SWAP2 PUSH1 0x3 SHL SHR DUP2 MSTORE RETURN JUMPDEST SWAP1 POP CALLVALUE PUSH2 0xC35 JUMPI DUP2 PUSH1 0x3 NOT CALLDATASIZE ADD SLT PUSH2 0xC35 JUMPI PUSH1 0xE SLOAD PUSH1 0x1 PUSH1 0x1 PUSH1 0xA0 SHL SUB AND DUP2 MSTORE PUSH1 0x20 SWAP1 RETURN JUMPDEST PUSH1 0x40 SWAP1 PUSH1 0x3 NOT ADD SLT PUSH2 0x559 JUMPI PUSH1 0x4 CALLDATALOAD SWAP1 PUSH1 0x24 CALLDATALOAD SWAP1 JUMP JUMPDEST DUP1 SLOAD DUP3 LT ISZERO PUSH2 0x168A JUMPI PUSH0 MSTORE PUSH1 0x20 PUSH0 KECCAK256 ADD SWAP1 PUSH0 SWAP1 JUMP JUMPDEST PUSH1 0x20 SWAP1 DUP2 PUSH1 0x40 DUP2 DUP4 ADD SWAP3 DUP3 DUP2 MSTORE DUP6 MLOAD DUP1 SWAP5 MSTORE ADD SWAP4 ADD SWAP2 PUSH0 JUMPDEST DUP3 DUP2 LT PUSH2 0x1F57 JUMPI POP POP POP POP SWAP1 JUMP JUMPDEST DUP4 MLOAD DUP6 MSTORE SWAP4 DUP2 ADD SWAP4 SWAP3 DUP2 ADD SWAP3 PUSH1 0x1 ADD PUSH2 0x1F49 JUMP JUMPDEST PUSH1 0x4 CALLDATALOAD SWAP1 PUSH1 0x1 PUSH1 0x1 PUSH1 0xA0 SHL SUB DUP3 AND DUP3 SUB PUSH2 0x559 JUMPI JUMP JUMPDEST PUSH1 0xC0 DUP2 ADD SWAP1 DUP2 LT PUSH1 0x1 PUSH1 0x1 PUSH1 0x40 SHL SUB DUP3 GT OR PUSH2 0x1F9C JUMPI PUSH1 0x40 MSTORE JUMP JUMPDEST PUSH4 0x4E487B71 PUSH1 0xE0 SHL PUSH0 MSTORE PUSH1 0x41 PUSH1 0x4 MSTORE PUSH1 0x24 PUSH0 REVERT JUMPDEST PUSH1 0x80 DUP2 ADD SWAP1 DUP2 LT PUSH1 0x1 PUSH1 0x1 PUSH1 0x40 SHL SUB DUP3 GT OR PUSH2 0x1F9C JUMPI PUSH1 0x40 MSTORE JUMP JUMPDEST PUSH1 0x40 DUP2 ADD SWAP1 DUP2 LT PUSH1 0x1 PUSH1 0x1 PUSH1 0x40 SHL SUB DUP3 GT OR PUSH2 0x1F9C JUMPI PUSH1 0x40 MSTORE JUMP JUMPDEST SWAP1 PUSH1 0x1F DUP1 NOT SWAP2 ADD AND DUP2 ADD SWAP1 DUP2 LT PUSH1 0x1 PUSH1 0x1 PUSH1 0x40 SHL SUB DUP3 GT OR PUSH2 0x1F9C JUMPI PUSH1 0x40 MSTORE JUMP JUMPDEST PUSH1 0x1 PUSH1 0x1 PUSH1 0x40 SHL SUB DUP2 GT PUSH2 0x1F9C JUMPI PUSH1 0x1F ADD PUSH1 0x1F NOT AND PUSH1 0x20 ADD SWAP1 JUMP JUMPDEST DUP2 PUSH1 0x1F DUP3 ADD SLT ISZERO PUSH2 0x559 JUMPI DUP1 CALLDATALOAD SWAP1 PUSH2 0x2039 DUP3 PUSH2 0x2007 JUMP JUMPDEST SWAP3 PUSH2 0x2047 PUSH1 0x40 MLOAD SWAP5 DUP6 PUSH2 0x1FE6 JUMP JUMPDEST DUP3 DUP5 MSTORE PUSH1 0x20 DUP4 DUP4 ADD ADD GT PUSH2 0x559 JUMPI DUP2 PUSH0 SWAP3 PUSH1 0x20 DUP1 SWAP4 ADD DUP4 DUP7 ADD CALLDATACOPY DUP4 ADD ADD MSTORE SWAP1 JUMP JUMPDEST PUSH0 JUMPDEST DUP4 DUP2 LT PUSH2 0x2079 JUMPI POP POP PUSH0 SWAP2 ADD MSTORE JUMP JUMPDEST DUP2 DUP2 ADD MLOAD DUP4 DUP3 ADD MSTORE PUSH1 0x20 ADD PUSH2 0x206A JUMP JUMPDEST SWAP1 PUSH1 0x20 SWAP2 PUSH2 0x20A2 DUP2 MLOAD DUP1 SWAP3 DUP2 DUP6 MSTORE DUP6 DUP1 DUP7 ADD SWAP2 ADD PUSH2 0x2068 JUMP JUMPDEST PUSH1 0x1F ADD PUSH1 0x1F NOT AND ADD ADD SWAP1 JUMP JUMPDEST CALLVALUE PUSH2 0x559 JUMPI PUSH1 0x20 CALLDATASIZE PUSH1 0x3 NOT ADD SLT PUSH2 0x559 JUMPI PUSH1 0x4 CALLDATALOAD PUSH0 MSTORE PUSH0 PUSH1 0x20 MSTORE PUSH2 0x986 PUSH2 0x912 PUSH2 0x20E1 PUSH1 0x40 PUSH0 KECCAK256 PUSH1 0x40 MLOAD SWAP3 DUP4 DUP1 SWAP3 PUSH2 0x212D JUMP JUMPDEST PUSH1 0x40 MLOAD SWAP2 DUP3 SWAP2 PUSH1 0x20 DUP4 MSTORE PUSH1 0x20 DUP4 ADD SWAP1 PUSH2 0x2089 JUMP JUMPDEST SWAP1 PUSH1 0x1 DUP3 DUP2 SHR SWAP3 AND DUP1 ISZERO PUSH2 0x2123 JUMPI JUMPDEST PUSH1 0x20 DUP4 LT EQ PUSH2 0x210F JUMPI JUMP JUMPDEST PUSH4 0x4E487B71 PUSH1 0xE0 SHL PUSH0 MSTORE PUSH1 0x22 PUSH1 0x4 MSTORE PUSH1 0x24 PUSH0 REVERT JUMPDEST SWAP2 PUSH1 0x7F AND SWAP2 PUSH2 0x2104 JUMP JUMPDEST SWAP1 PUSH0 SWAP3 SWAP2 DUP1 SLOAD SWAP2 PUSH2 0x213D DUP4 PUSH2 0x20F5 JUMP JUMPDEST SWAP2 DUP3 DUP3 MSTORE PUSH1 0x1 SWAP4 DUP5 DUP2 AND SWAP1 DUP2 PUSH0 EQ PUSH2 0x219B JUMPI POP PUSH1 0x1 EQ PUSH2 0x215E JUMPI JUMPDEST POP POP POP POP JUMP JUMPDEST SWAP1 SWAP2 SWAP4 SWAP5 POP PUSH0 MSTORE PUSH1 0x20 SWAP3 DUP4 PUSH0 KECCAK256 SWAP3 DUP5 PUSH0 SWAP5 JUMPDEST DUP4 DUP7 LT PUSH2 0x2187 JUMPI POP POP POP POP ADD ADD SWAP1 PUSH0 DUP1 DUP1 DUP1 PUSH2 0x2158 JUMP JUMPDEST DUP1 SLOAD DUP6 DUP8 ADD DUP4 ADD MSTORE SWAP5 ADD SWAP4 DUP6 SWAP1 DUP3 ADD PUSH2 0x2170 JUMP JUMPDEST SWAP3 SWAP5 POP POP POP PUSH1 0x20 SWAP4 SWAP5 POP PUSH1 0xFF NOT AND DUP4 DUP4 ADD MSTORE ISZERO ISZERO PUSH1 0x5 SHL ADD ADD SWAP1 PUSH0 DUP1 DUP1 DUP1 PUSH2 0x2158 JUMP JUMPDEST SWAP1 PUSH1 0x4 DUP3 LT ISZERO PUSH2 0x98A JUMPI MSTORE JUMP JUMPDEST SWAP1 PUSH1 0x40 PUSH1 0x3 NOT DUP4 ADD SLT PUSH2 0x559 JUMPI PUSH1 0x4 CALLDATALOAD SWAP2 PUSH1 0x24 CALLDATALOAD SWAP1 PUSH1 0x1 PUSH1 0x1 PUSH1 0x40 SHL SUB DUP3 GT PUSH2 0x559 JUMPI PUSH2 0x21FA SWAP2 PUSH1 0x4 ADD PUSH2 0x2022 JUMP JUMPDEST SWAP1 JUMP JUMPDEST PUSH1 0x1 PUSH1 0x1 PUSH1 0x40 SHL SUB DUP2 GT PUSH2 0x1F9C JUMPI PUSH1 0x5 SHL PUSH1 0x20 ADD SWAP1 JUMP JUMPDEST MLOAD SWAP1 DUP2 ISZERO ISZERO DUP3 SUB PUSH2 0x559 JUMPI JUMP JUMPDEST DUP2 DUP2 LT PUSH2 0x222C JUMPI POP POP JUMP JUMPDEST PUSH0 DUP2 SSTORE PUSH1 0x1 ADD PUSH2 0x2221 JUMP JUMPDEST SWAP1 PUSH1 0x4 DUP2 LT ISZERO PUSH2 0x98A JUMPI PUSH1 0xFF DUP1 NOT DUP4 SLOAD AND SWAP2 AND OR SWAP1 SSTORE JUMP JUMPDEST DUP1 SLOAD PUSH1 0x1 PUSH1 0x40 SHL DUP2 LT ISZERO PUSH2 0x1F9C JUMPI PUSH2 0x226C SWAP2 PUSH1 0x1 DUP3 ADD DUP2 SSTORE PUSH2 0x1F1C JUMP JUMPDEST DUP2 SWAP3 SWAP2 SLOAD SWAP1 PUSH1 0x3 SHL SWAP2 DUP3 SHL SWAP2 PUSH0 NOT SWAP1 SHL NOT AND OR SWAP1 SSTORE JUMP JUMPDEST PUSH0 NOT DUP2 EQ PUSH2 0x16EF JUMPI PUSH1 0x1 ADD SWAP1 JUMP JUMPDEST ISZERO PUSH2 0x2298 JUMPI JUMP JUMPDEST PUSH1 0x40 MLOAD PUSH3 0x461BCD PUSH1 0xE5 SHL DUP2 MSTORE PUSH1 0x20 PUSH1 0x4 DUP3 ADD MSTORE PUSH1 0x19 PUSH1 0x24 DUP3 ADD MSTORE PUSH25 0x14DD589B5A5CDCDA5BDB88191BD95CC81B9BDD08195E1A5CDD PUSH1 0x3A SHL PUSH1 0x44 DUP3 ADD MSTORE PUSH1 0x64 SWAP1 REVERT JUMPDEST SWAP2 SWAP1 DUP3 ADD DUP1 SWAP3 GT PUSH2 0x16EF JUMPI JUMP JUMPDEST DUP1 MLOAD DUP3 LT ISZERO PUSH2 0x168A JUMPI PUSH1 0x20 SWAP2 PUSH1 0x5 SHL ADD ADD SWAP1 JUMP JUMPDEST PUSH1 0x1 PUSH1 0xFF SHL DUP2 EQ PUSH2 0x16EF JUMPI PUSH0 SUB SWAP1 JUMP JUMPDEST SWAP1 DUP2 PUSH1 0x20 SWAP2 SUB SLT PUSH2 0x559 JUMPI MLOAD PUSH1 0x1 PUSH1 0x1 PUSH1 0xA0 SHL SUB DUP2 AND DUP2 SUB PUSH2 0x559 JUMPI SWAP1 JUMP JUMPDEST PUSH0 SWAP2 SWAP1 DUP3 DUP2 SGT SWAP1 DUP2 ISZERO PUSH2 0x2466 JUMPI SWAP1 JUMPDEST DUP2 ISZERO ISZERO DUP1 PUSH2 0x243F JUMPI JUMPDEST DUP1 PUSH2 0x2428 JUMPI JUMPDEST ISZERO PUSH2 0x1D54 JUMPI ISZERO PUSH2 0x2421 JUMPI PUSH1 0x2 JUMPDEST DUP2 DUP5 MSTORE PUSH1 0x20 SWAP1 DUP5 DUP3 MSTORE PUSH2 0x236E PUSH1 0x40 SWAP2 PUSH1 0x3 DUP4 DUP9 KECCAK256 ADD PUSH2 0x2237 JUMP JUMPDEST DUP3 DUP6 MSTORE PUSH1 0x1 DUP3 MSTORE DUP1 DUP6 KECCAK256 SLOAD SWAP1 DUP6 DUP4 MSTORE PUSH1 0xFF PUSH1 0x3 DUP3 DUP9 KECCAK256 ADD SLOAD AND PUSH1 0x4 DUP2 LT ISZERO PUSH2 0x40A JUMPI SWAP1 PUSH1 0x2 PUSH2 0x23F7 SWAP3 PUSH32 0x3ED188EDBA0C6B2D9B7A54CEC2942F1CAB56A63A4DCFDCA5FF11706FFDF25B1E SWAP7 SWAP8 SWAP9 POP EQ PUSH0 EQ PUSH2 0x23FC JUMPI DUP1 MLOAD PUSH2 0x23CE DUP2 PUSH2 0x1FCB JUMP JUMPDEST PUSH1 0x8 DUP2 MSTORE PUSH8 0x1058D8D95C1D1959 PUSH1 0xC2 SHL DUP6 DUP3 ADD MSTORE SWAP1 JUMPDEST DUP1 DUP1 MLOAD SWAP6 DUP7 SWAP6 DUP7 MSTORE DUP6 ADD MSTORE DUP4 ADD SWAP1 PUSH2 0x2089 JUMP JUMPDEST SUB SWAP1 LOG2 JUMP JUMPDEST DUP1 MLOAD PUSH2 0x2407 DUP2 PUSH2 0x1FCB JUMP JUMPDEST PUSH1 0x8 DUP2 MSTORE PUSH8 0x14995A9958DD1959 PUSH1 0xC2 SHL DUP6 DUP3 ADD MSTORE SWAP1 PUSH2 0x23E4 JUMP JUMPDEST PUSH1 0x3 PUSH2 0x2354 JUMP JUMPDEST POP DUP2 DUP5 MSTORE DUP4 PUSH1 0x20 MSTORE PUSH1 0x1 PUSH1 0x40 DUP6 KECCAK256 ADD SLOAD ISZERO ISZERO PUSH2 0x2347 JUMP JUMPDEST POP DUP2 DUP5 MSTORE DUP4 PUSH1 0x20 MSTORE PUSH2 0x245E PUSH1 0x40 DUP6 KECCAK256 PUSH1 0x2 PUSH1 0x1 DUP3 ADD SLOAD SWAP2 ADD SLOAD SWAP1 PUSH2 0x22D9 JUMP JUMPDEST TIMESTAMP LT ISZERO PUSH2 0x2341 JUMP JUMPDEST PUSH2 0x246F SWAP1 PUSH2 0x22FA JUMP JUMPDEST SWAP1 PUSH2 0x2338 JUMP JUMPDEST PUSH0 SWAP2 PUSH0 SWAP2 DUP1 PUSH0 MSTORE PUSH0 PUSH1 0x20 MSTORE PUSH2 0x2497 PUSH1 0x40 PUSH0 KECCAK256 PUSH1 0x2 PUSH1 0x1 DUP3 ADD SLOAD SWAP2 ADD SLOAD SWAP1 PUSH2 0x22D9 JUMP JUMPDEST TIMESTAMP LT ISZERO PUSH2 0x24A1 JUMPI POP JUMP JUMPDEST SWAP3 POP SWAP1 POP PUSH2 0x21FA PUSH1 0x1 SWAP3 PUSH2 0x24C5 JUMP JUMPDEST SWAP1 DUP2 PUSH0 SUB SWAP2 DUP1 DUP4 SDIV PUSH0 NOT EQ SWAP1 ISZERO OR ISZERO PUSH2 0x16EF JUMPI JUMP JUMPDEST PUSH1 0x1 DUP1 PUSH1 0xA0 SHL SUB PUSH1 0xC SLOAD AND PUSH0 SWAP1 DUP3 DUP3 MSTORE PUSH1 0x20 SWAP1 DUP3 DUP3 MSTORE PUSH1 0x40 SWAP3 DUP4 DUP2 KECCAK256 DUP5 MLOAD SWAP3 PUSH4 0x26917989 PUSH1 0xE0 SHL DUP5 MSTORE DUP4 PUSH1 0x4 SWAP2 DUP7 DUP4 DUP4 ADD MSTORE PUSH1 0x60 SWAP6 DUP7 SWAP2 DUP2 DUP1 PUSH2 0x250D PUSH1 0x24 SWAP9 DUP10 DUP4 ADD SWAP1 PUSH2 0x212D JUMP JUMPDEST SUB SWAP2 GAS STATICCALL SWAP7 DUP8 ISZERO PUSH2 0x2748 JUMPI DUP5 SWAP2 DUP6 SWAP1 DUP7 SWAP10 PUSH2 0x270C JUMPI JUMPDEST POP DUP10 DUP7 MSTORE PUSH1 0x8 DUP9 MSTORE DUP2 DUP7 KECCAK256 SWAP1 DUP3 MLOAD DUP1 DUP4 DUP12 DUP3 SWAP6 SLOAD SWAP4 DUP5 DUP2 MSTORE ADD SWAP1 DUP11 MSTORE DUP12 DUP11 KECCAK256 SWAP3 DUP11 JUMPDEST DUP14 DUP3 DUP3 LT PUSH2 0x26F6 JUMPI POP POP POP PUSH2 0x255C SWAP3 POP SUB DUP4 PUSH2 0x1FE6 JUMP JUMPDEST DUP4 DUP3 MLOAD LT PUSH2 0x26E3 JUMPI DUP7 SWAP8 DUP8 SWAP10 DUP4 MLOAD PUSH1 0x11 SLOAD SWAP1 DUP2 DUP2 GT PUSH0 EQ PUSH2 0x26DB JUMPI POP SWAP4 JUMPDEST DUP10 JUMPDEST DUP6 DUP2 LT PUSH2 0x2603 JUMPI POP POP POP POP POP POP POP DUP6 ISZERO DUP1 SWAP2 DUP2 ISZERO PUSH2 0x25F9 JUMPI JUMPDEST POP PUSH2 0x25E9 JUMPI PUSH1 0x64 DUP6 MUL SWAP5 DUP1 DUP7 DIV PUSH1 0x64 EQ SWAP1 ISZERO OR ISZERO PUSH2 0x25D7 JUMPI PUSH2 0x25C6 JUMPI POP POP POP DIV LT PUSH2 0x25BD JUMPI SWAP1 JUMP JUMPDEST PUSH2 0x21FA SWAP1 PUSH2 0x24B0 JUMP JUMPDEST PUSH4 0x4E487B71 PUSH1 0xE0 SHL DUP4 MSTORE PUSH1 0x12 SWAP1 MSTORE DUP2 REVERT JUMPDEST POP PUSH4 0x4E487B71 PUSH1 0xE0 SHL DUP4 MSTORE PUSH1 0x11 SWAP1 MSTORE DUP2 REVERT JUMPDEST POP POP POP POP POP POP POP PUSH2 0x21FA SWAP1 PUSH2 0x24B0 JUMP JUMPDEST SWAP1 POP DUP7 LT PUSH0 PUSH2 0x2595 JUMP JUMPDEST PUSH2 0x260D DUP2 DUP4 PUSH2 0x22E6 JUMP JUMPDEST MLOAD DUP8 MLOAD SWAP1 PUSH4 0x5CF17E1F PUSH1 0xE1 SHL DUP3 MSTORE DUP11 DUP3 ADD MSTORE DUP5 DUP2 DUP13 DUP2 ADDRESS GAS STATICCALL DUP1 ISZERO PUSH2 0x26D1 JUMPI DUP13 DUP8 SWAP2 DUP2 SWAP4 DUP3 SWAP2 PUSH2 0x268D JUMPI JUMPDEST POP PUSH2 0x2681 JUMPI LT ISZERO PUSH2 0x2653 JUMPI JUMPDEST POP PUSH2 0x264E SWAP1 PUSH2 0x2283 JUMP JUMPDEST PUSH2 0x257C JUMP JUMPDEST SWAP13 PUSH2 0x265F PUSH1 0x2 SWAP2 PUSH2 0x2283 JUMP JUMPDEST SWAP14 EQ PUSH2 0x266C JUMPI JUMPDEST PUSH0 PUSH2 0x2644 JUMP JUMPDEST SWAP11 PUSH2 0x2679 PUSH2 0x264E SWAP2 PUSH2 0x2283 JUMP JUMPDEST SWAP12 SWAP1 POP PUSH2 0x2666 JUMP JUMPDEST POP POP POP PUSH2 0x264E SWAP1 PUSH2 0x2283 JUMP JUMPDEST SWAP4 POP POP POP POP DUP5 DUP2 DUP2 RETURNDATASIZE DUP4 GT PUSH2 0x26CA JUMPI JUMPDEST PUSH2 0x26A7 DUP2 DUP4 PUSH2 0x1FE6 JUMP JUMPDEST DUP2 ADD SUB SLT PUSH2 0xC29 JUMPI DUP6 DUP2 MLOAD PUSH2 0x26C1 DUP11 DUP8 DUP6 ADD MLOAD SWAP5 ADD PUSH2 0x2214 JUMP JUMPDEST SWAP1 SWAP3 SWAP1 PUSH0 PUSH2 0x2638 JUMP JUMPDEST POP RETURNDATASIZE PUSH2 0x269D JUMP JUMPDEST DUP9 MLOAD RETURNDATASIZE DUP15 DUP3 RETURNDATACOPY RETURNDATASIZE SWAP1 REVERT JUMPDEST SWAP1 POP SWAP4 PUSH2 0x257A JUMP JUMPDEST POP POP POP POP POP POP POP POP POP POP PUSH2 0x21FA SWAP1 PUSH2 0x24B0 JUMP JUMPDEST DUP6 SLOAD DUP5 MSTORE PUSH1 0x1 SWAP6 DUP7 ADD SWAP6 DUP9 SWAP6 POP SWAP4 ADD SWAP3 ADD PUSH2 0x2545 JUMP JUMPDEST SWAP3 POP POP SWAP7 POP DUP5 DUP2 DUP2 RETURNDATASIZE DUP4 GT PUSH2 0x2741 JUMPI JUMPDEST PUSH2 0x2726 DUP2 DUP4 PUSH2 0x1FE6 JUMP JUMPDEST DUP2 ADD SUB SLT PUSH2 0xC31 JUMPI DUP1 MLOAD SWAP7 DUP1 DUP8 DUP4 ADD MLOAD SWAP3 ADD MLOAD SWAP8 SWAP2 PUSH0 PUSH2 0x2523 JUMP JUMPDEST POP RETURNDATASIZE PUSH2 0x271C JUMP JUMPDEST MLOAD RETURNDATASIZE DUP6 DUP3 RETURNDATACOPY RETURNDATASIZE SWAP1 REVERT JUMPDEST ISZERO PUSH2 0x2758 JUMPI JUMP JUMPDEST PUSH1 0x40 MLOAD PUSH3 0x461BCD PUSH1 0xE5 SHL DUP2 MSTORE PUSH1 0x20 PUSH1 0x4 DUP3 ADD MSTORE PUSH1 0x16 PUSH1 0x24 DUP3 ADD MSTORE PUSH22 0x2737BA103A34329031B7B73A3930B1BA1037BBB732B9 PUSH1 0x51 SHL PUSH1 0x44 DUP3 ADD MSTORE PUSH1 0x64 SWAP1 REVERT INVALID LOG2 PUSH5 0x6970667358 0x22 SLT KECCAK256 JUMPI 0xC9 ADDRESS PUSH1 0xB1 CALLVALUE PUSH6 0xF2677D2400E4 0x28 0x4F 0xD2 DUP9 0xD7 DUP16 0xF6 ORIGIN JUMPDEST PUSH6 0xD81200A1433C 0xDA 0x25 PUSH10 0x64736F6C634300081400 CALLER "},"methodIdentifiers":{"CommunityConsensusContract()":"47631adb","CommunitySubmissionToPost(uint256)":"ac97980d","CommunitySubmissions(uint256)":"c5dce24d","MembersContract()":"e1485776","PostSubmissionList(uint256,uint256)":"eeb0cf76","PostsContract()":"059597f7","SubmissionLane(uint256)":"884b80f2","consensusFee()":"4215c5e4","csCounter()":"a5940041","getCheckSubmissionForUpkeep(uint256)":"f2793902","getCommunitySubmission(uint256)":"de8b32c5","getPostConsesous(uint256)":"ea487a92","getPostSubmissionCommunity(uint256)":"eabccdb6","getPostSubmissionConsensus(uint256)":"85dba401","getPostSubmissionList(uint256)":"1ea49051","getReview(uint256)":"990581b6","getReviewConsenous(uint256)":"b9e2fc3e","getReviewsForSubmission(uint256)":"6c79bd2b","getSubmissionExpiration(uint256)":"d46219a2","hasReviewed(uint256,address)":"7c7198cc","manualUpkeepPost(uint256)":"34ca35c4","maxReviews()":"4ed59812","performUpkeep(bytes)":"4585e33b","postCommunities(uint256,string)":"d3a3f771","reviewCounter()":"e168b3a8","reviews(uint256)":"e83ddcea","setAutomationRegistry(address)":"5ff2d2aa","setCommunitiesContract(address)":"ad2957ff","setFee(uint256)":"69fe0e2d","setLaneRegistry(address)":"651fa206","setMaxReviews(uint256)":"d1a34aa3","setMembersContract(address)":"3c09203b","setPostsContract(address)":"d39065fa","setdefaultConsenousTypes(string[])":"d8db3807","submitReview(uint256,string,uint256)":"6356eea4","submitToCommunity(uint256,string)":"fa1396f5","submmisionReviews(uint256,uint256)":"1651902a"}}}}}