{"contracts/tgetherParameterGroupRegistry.sol":{"tgetherParameterGroupRegistry":{"abi":[{"inputs":[],"stateMutability":"nonpayable","type":"constructor"},{"anonymous":false,"inputs":[{"indexed":false,"internalType":"string","name":"name","type":"string"},{"indexed":false,"internalType":"address","name":"oldAddress","type":"address"},{"indexed":false,"internalType":"address","name":"newAddress","type":"address"}],"name":"ContractAddressUpdated","type":"event"},{"anonymous":false,"inputs":[{"indexed":false,"internalType":"string","name":"name","type":"string"},{"indexed":false,"internalType":"uint256","name":"newCount","type":"uint256"}],"name":"EnrollmentCountUpdated","type":"event"},{"anonymous":false,"inputs":[{"indexed":false,"internalType":"string","name":"name","type":"string"},{"indexed":false,"internalType":"address","name":"oldOwner","type":"address"},{"indexed":false,"internalType":"address","name":"newOwner","type":"address"}],"name":"OwnerUpdated","type":"event"},{"anonymous":false,"inputs":[{"indexed":true,"internalType":"string","name":"name","type":"string"},{"indexed":true,"internalType":"address","name":"contractAddress","type":"address"},{"indexed":false,"internalType":"address","name":"owner","type":"address"},{"indexed":false,"internalType":"string","name":"description","type":"string"},{"indexed":true,"internalType":"uint256","name":"id","type":"uint256"}],"name":"ParameterGroupRegistered","type":"event"},{"inputs":[],"name":"communityEnrollmentContract","outputs":[{"internalType":"address","name":"","type":"address"}],"stateMutability":"view","type":"function"},{"inputs":[{"internalType":"string","name":"_name","type":"string"}],"name":"decrementEnrollmentCount","outputs":[],"stateMutability":"nonpayable","type":"function"},{"inputs":[{"internalType":"string","name":"_name","type":"string"},{"internalType":"address","name":"_contractAddress","type":"address"},{"internalType":"string","name":"_encodedABI","type":"string"},{"internalType":"string","name":"_description","type":"string"}],"name":"editParameterGroup","outputs":[],"stateMutability":"nonpayable","type":"function"},{"inputs":[{"internalType":"address","name":"_contractAddress","type":"address"}],"name":"getParameterGroupByAddress","outputs":[{"components":[{"internalType":"string","name":"name","type":"string"},{"internalType":"address","name":"contractAddress","type":"address"},{"internalType":"string","name":"encodedABI","type":"string"},{"internalType":"string","name":"description","type":"string"},{"internalType":"address","name":"owner","type":"address"},{"internalType":"uint256","name":"enrollmentCount","type":"uint256"},{"internalType":"uint256","name":"id","type":"uint256"}],"internalType":"struct tgetherParameterGroupRegistry.ParameterGroup","name":"","type":"tuple"}],"stateMutability":"view","type":"function"},{"inputs":[{"internalType":"string","name":"_name","type":"string"}],"name":"getParameterGroupExists","outputs":[{"internalType":"bool","name":"","type":"bool"}],"stateMutability":"view","type":"function"},{"inputs":[{"internalType":"uint256","name":"_amt","type":"uint256"},{"internalType":"uint256","name":"_pageNum","type":"uint256"}],"name":"getParameterGroupNamesPaginated","outputs":[{"internalType":"string[]","name":"","type":"string[]"}],"stateMutability":"view","type":"function"},{"inputs":[{"internalType":"string","name":"_name","type":"string"}],"name":"incrementEnrollmentCount","outputs":[],"stateMutability":"nonpayable","type":"function"},{"inputs":[],"name":"owner","outputs":[{"internalType":"address","name":"","type":"address"}],"stateMutability":"view","type":"function"},{"inputs":[],"name":"parameterGroupCount","outputs":[{"internalType":"uint256","name":"","type":"uint256"}],"stateMutability":"view","type":"function"},{"inputs":[{"internalType":"uint256","name":"","type":"uint256"}],"name":"parameterGroupIds","outputs":[{"internalType":"string","name":"","type":"string"}],"stateMutability":"view","type":"function"},{"inputs":[{"internalType":"address","name":"","type":"address"}],"name":"parameterGroupNamesByAddress","outputs":[{"internalType":"string","name":"","type":"string"}],"stateMutability":"view","type":"function"},{"inputs":[{"internalType":"uint256","name":"","type":"uint256"}],"name":"parameterGroupNamesById","outputs":[{"internalType":"string","name":"","type":"string"}],"stateMutability":"view","type":"function"},{"inputs":[{"internalType":"string","name":"","type":"string"}],"name":"parameterGroupsByName","outputs":[{"internalType":"string","name":"name","type":"string"},{"internalType":"address","name":"contractAddress","type":"address"},{"internalType":"string","name":"encodedABI","type":"string"},{"internalType":"string","name":"description","type":"string"},{"internalType":"address","name":"owner","type":"address"},{"internalType":"uint256","name":"enrollmentCount","type":"uint256"},{"internalType":"uint256","name":"id","type":"uint256"}],"stateMutability":"view","type":"function"},{"inputs":[{"internalType":"string","name":"_name","type":"string"},{"internalType":"address","name":"_contractAddress","type":"address"},{"internalType":"string","name":"_encodedABI","type":"string"},{"internalType":"string","name":"_description","type":"string"}],"name":"registerParameterGroup","outputs":[],"stateMutability":"nonpayable","type":"function"},{"inputs":[{"internalType":"address","name":"_address","type":"address"}],"name":"setCommunityEnrollmentContract","outputs":[],"stateMutability":"nonpayable","type":"function"},{"inputs":[{"internalType":"string","name":"_name","type":"string"},{"internalType":"address","name":"_newAddress","type":"address"}],"name":"updateContractAddress","outputs":[],"stateMutability":"nonpayable","type":"function"},{"inputs":[{"internalType":"string","name":"_name","type":"string"},{"internalType":"address","name":"_newOwner","type":"address"}],"name":"updateOwner","outputs":[],"stateMutability":"nonpayable","type":"function"}],"evm":{"bytecode":{"linkReferences":{},"object":"6080806040523461002d57600680546001600160a01b03191633179055600160045561159490816100328239f35b5f80fdfe60406080815260049081361015610014575f80fd5b5f803560e01c8063260118cd14610f315780632a4d8c2a14610dcf57806334581e9914610d6957806338aed2f714610bdd5780636fdf4b1414610bbf5780637bee5d131461093e578063887e5f48146109035780638da5cb5b146108da5780639cbc90e614610892578063a212f60114610869578063b319692f14610783578063b58b125a146106ba578063d9d0bc8b1461054e578063ddc67cf5146103b8578063df22d38a14610239578063e39d22dc146101425763fbd61666146100d8575f80fd5b3461013f57602036600319011261013f57823560035481101561013b576100fe906111ec565b939093610129576101258361011286610fe3565b90519182916020835260208301906110a5565b0390f35b634e487b7160e01b8252819052602490fd5b5080fd5b80fd5b50823461013b5761015236611139565b845160208184516101668183858901611084565b81018781520301902060018101546001600160a01b0391859161018c9084161515611454565b0190815490808216953387036101ea57506001600160a01b0319909116908316179055935192937f7d19f93590534d2cce4c1a78a48b1dc4501feeff13106aee90fbb77b5abe8d0a939283926101e4929190846114a0565b0390a180f35b60849060208a519162461bcd60e51b8352820152602360248201527f4f6e6c7920746865206f776e65722063616e20757064617465206f776e65727360448201526206869760ec1b6064820152fd5b509190346103b45761024a3661117a565b9193929460018060a01b0390610265826006541633146114cf565b866102978360018b60208a51809282885198019761028481848b611084565b8201908152030190200154161515611454565b855183838a516102a8818587611084565b8301928c84526020813395030190200154160361035d5760067f9a52091f0c1324342293a52b987697d1afef630b68b88fa5cb95f4843e048b1495949361035793610332610307602061034c968f8f8e51948593849251928391611084565b8201908152030190206001810180546001600160a01b0319169c85169c8d17905596600288016112a8565b61033f87600388016112a8565b85015416930154976113a4565b9451928392836113c4565b0390a480f35b855162461bcd60e51b8152602081840152602b60248201527f4f6e6c7920746865206f776e65722063616e206564697420746865207061726160448201526a06d657465722067726f75760ac1b6064820152608490fd5b8280fd5b50903461013b57602090816003193601126103b45783356001600160401b03811161054a576103ea90369086016110ca565b9160018060a01b03610401816005541633146113e6565b61043083519160018651938581818a019661041d81838a611084565b81018b8152030190200154161515611454565b6005835183818751610443818388611084565b8101898152030190200154156104f5576005835183818751610466818388611084565b81018981520301902001805480156104e2575f19019055825184519596507fb5d6d4f279e94103034092b974c0c4f6fb820ec2abe1fd65563515167b882d8b95600592849183916104ba9082908490611084565b81018981520301902001546104d883519484869586528501906110a5565b918301520390a180f35b634e487b7160e01b875260118852602487fd5b825162461bcd60e51b8152808701839052602960248201527f456e726f6c6c6d656e7420636f756e742063616e6e6f74206265206c657373206044820152687468616e207a65726f60b81b6064820152608490fd5b8380fd5b50823461013b57602092836003193601126103b45761056b611123565b848083519561057987610f93565b806060978881528184820152888782015288808201528160808201528160a082015260c00152600160a01b600190038094168152600282528481206105bd90610fe3565b90855193848381945192839101916105d492611084565b820190815203019020908251946105ea86610f93565b6105f383610fe3565b8652600183015482168787019081529461060f60028501610fe3565b878601908152958361062360038701610fe3565b92848a0193845286015416966080890197885260058601549560a08a01968752600601549660c08a019788528581519b8c9b818d5251908c0160e090526101008c0161066e916110a5565b935116908a01525190601f1993848a830301908a015261068d916110a5565b9051918782030160808801526106a2916110a5565b93511660a08501525160c08401525160e08301520390f35b509190346103b4576020908160031936011261054a5782356001600160401b03811161077f577fb5d6d4f279e94103034092b974c0c4f6fb820ec2abe1fd65563515167b882d8b9361070e913691016110ca565b9160056104ba828561074760018060a01b0361072e8187541633146113e6565b60018b858a51809282885198019761028481848b611084565b83865183818a51610759818388611084565b81018d8152030190200161076d8154611270565b90558551809381928951928391611084565b8480fd5b5091346103b45760203660031901126103b45780356001600160401b03811161054a576020610835946107bc6107cf93369086016110ca565b9082865194838680955193849201611084565b820190815203019020916107e283610fe3565b9261085560018060a01b03936108478560018501541661080460028601610fe3565b9661081160038701610fe3565b938601541696600660058701549601549680519a8b9a60e08c5260e08c01906110a5565b9260208b0152898303908a01526110a5565b9086820360608801526110a5565b92608085015260a084015260c08301520390f35b50903461013b578160031936011261013b5760055490516001600160a01b039091168152602090f35b503461013f57602036600319011261013f576108ac611123565b6006546001600160a01b0391906108c690831633146114cf565b1660018060a01b0319600554161760055580f35b50903461013b578160031936011261013b5760065490516001600160a01b039091168152602090f35b50903461013b57602036600319011261013b57610125916101129082906001600160a01b03610930611123565b168152600260205220610fe3565b5091346103b45761094e3661117a565b91839195935115610b7057835194825160209283850191610970818a85611084565b88018a81528890038401909720600101546001600160a01b0397908816610b2d57871696878a5260028452868a20546109a890610f5b565b156109b290611218565b868a84549a8b936109c285611270565b87558351956109d087610f93565b898752888701928d845285880190815260608801918c83528a8c60808b019733895260a08c0199818b5260c08d019b8c525180948193518092610a1292611084565b8201908152030190209751610a2790896112a8565b92516001880180549184166001600160a01b03199283161790559251610a5090600289016112a8565b51610a5e90600388016112a8565b86860192511690825416179055516005830155519060060155600354600160401b811015610b1a57806001610a9692016003556111ec565b919091610b0857508260027f9a52091f0c1324342293a52b987697d1afef630b68b88fa5cb95f4843e048b149593610ad461035796610afc956112a8565b898b5260018152610ae783898d206112a8565b888b5252610af781878b206112a8565b6113a4565b935191829133836113c4565b634e487b7160e01b8952889052602488fd5b634e487b7160e01b895260418252602489fd5b865162461bcd60e51b8152808401859052601e60248201527f506172616d657465722067726f757020616c72656164792065786973747300006044820152606490fd5b835162461bcd60e51b81526020818701526024808201527f506172616d657465722067726f7570206e616d652063616e6e6f7420626520656044820152636d70747960e01b6064820152608490fd5b5091346103b457826003193601126103b45760209250549051908152f35b50823461013b57610bed36611139565b845180835160209281610c04859383858a01611084565b810188815203019020936001850180549160018060a01b0390818181861699610c2e8b1515611454565b0154163303610d0f5750928798927fa90fb318cef160851f542872dfce25dadafdfde152ba8cc05e3f0b882842e53c989286956101e49716809281865260028552610c85610c7e88882054610f5b565b1515611218565b6001600160a01b031916179055825260028152828220610ca69087906112a8565b8682526002815282822090610cbb8254610f5b565b9081610cd0575b5050505051938493846114a0565b8390601f8311600114610ceb57505050555b86888080610cc2565b8382528120929091610d0890601f0160051c840160018501611292565b5555610ce2565b895162461bcd60e51b8152908101859052602e60248201527f4f6e6c7920746865206f776e65722063616e207570646174652074686520636f60448201526d6e7472616374206164647265737360901b6064820152608490fd5b5091346103b45760203660031901126103b45780356001600160401b03811161054a57610d9e602094926001923691016110ca565b84610db185519283815193849201611084565b81019283528481838060a01b03940301902001541615159051908152f35b50823461013b578260031936011261013b5780359060243591828102928184041481151715610f1e57820190818311610f0b5750600354808211610f03575b50610e198282611526565b91610e2383611533565b92610e3086519485610fc2565b808452610e3f601f1991611533565b01845b818110610ef2575050805b828110610eb257505050825191602080840190808552835180925280868601968360051b870101940192955b828710610e865785850386f35b909192938280610ea2600193603f198a820301865288516110a5565b9601920196019592919092610e79565b80610ee7610ec2610eed936111ec565b50610ed6610ed08685611526565b91610fe3565b610ee0828961154a565b528661154a565b50611270565b610e4d565b806060602080938801015201610e42565b905084610e0e565b634e487b7160e01b845260119052602483fd5b634e487b7160e01b845260118252602484fd5b5091346103b45760203660031901126103b457816101259361011292358152600160205220610fe3565b90600182811c92168015610f89575b6020831014610f7557565b634e487b7160e01b5f52602260045260245ffd5b91607f1691610f6a565b60e081019081106001600160401b03821117610fae57604052565b634e487b7160e01b5f52604160045260245ffd5b90601f801991011681019081106001600160401b03821117610fae57604052565b9060405191825f825492610ff684610f5b565b9081845260019485811690815f146110615750600114611021575b505061101f92500383610fc2565b565b909391505f52602090815f20935f915b81831061104957505061101f93508201015f80611011565b85548884018501529485019487945091830191611031565b91505061101f94506020925060ff191682840152151560051b8201015f80611011565b5f5b8381106110955750505f910152565b8181015183820152602001611086565b906020916110be81518092818552858086019101611084565b601f01601f1916010190565b81601f8201121561111f578035906001600160401b038211610fae57604051926110fe601f8401601f191660200185610fc2565b8284526020838301011161111f57815f926020809301838601378301015290565b5f80fd5b600435906001600160a01b038216820361111f57565b604060031982011261111f57600435906001600160401b03821161111f57611163916004016110ca565b906024356001600160a01b038116810361111f5790565b608060031982011261111f576001600160401b039060043582811161111f57816111a6916004016110ca565b926024356001600160a01b038116810361111f579260443581811161111f57836111d2916004016110ca565b9260643591821161111f576111e9916004016110ca565b90565b6003548110156112045760035f5260205f2001905f90565b634e487b7160e01b5f52603260045260245ffd5b1561121f57565b60405162461bcd60e51b815260206004820152602360248201527f436f6e7472616374206164647265737320616c726561647920726567697374656044820152621c995960ea1b6064820152608490fd5b5f19811461127e5760010190565b634e487b7160e01b5f52601160045260245ffd5b81811061129d575050565b5f8155600101611292565b91909182516001600160401b038111610fae576112c58254610f5b565b601f8111611369575b50602080601f83116001146113095750819293945f926112fe575b50508160011b915f199060031b1c1916179055565b015190505f806112e9565b90601f19831695845f52825f20925f905b88821061135157505083600195969710611339575b505050811b019055565b01515f1960f88460031b161c191690555f808061132f565b8060018596829496860151815501950193019061131a565b61139490835f5260205f20601f840160051c8101916020851061139a575b601f0160051c0190611292565b5f6112ce565b9091508190611387565b6113bc90602060405192828480945193849201611084565b810103902090565b6001600160a01b0390911681526040602082018190526111e9929101906110a5565b156113ed57565b60405162461bcd60e51b815260206004820152603960248201527f4f6e6c7920436f6d6d756e697479456e726f6c6c6d656e7420636f6e747261636044820152783a1031b0b7103832b93337b936903a3434b99030b1ba34b7b760391b6064820152608490fd5b1561145b57565b60405162461bcd60e51b815260206004820152601e60248201527f506172616d657465722067726f757020646f6573206e6f7420657869737400006044820152606490fd5b916114b86040929594956060855260608501906110a5565b6001600160a01b0391821660208501529416910152565b156114d657565b60405162461bcd60e51b815260206004820152602260248201527f4f6e6c79206f776e65722063616e20706572666f726d2074686973206163746960448201526137b760f11b6064820152608490fd5b9190820391821161127e57565b6001600160401b038111610fae5760051b60200190565b80518210156112045760209160051b01019056fea2646970667358221220f0f7451734da1c7dee8a6c3c1d249d56d42ac2be6353de6eb924c988aec9f30e64736f6c63430008140033","opcodes":"PUSH1 0x80 DUP1 PUSH1 0x40 MSTORE CALLVALUE PUSH2 0x2D JUMPI PUSH1 0x6 DUP1 SLOAD PUSH1 0x1 PUSH1 0x1 PUSH1 0xA0 SHL SUB NOT AND CALLER OR SWAP1 SSTORE PUSH1 0x1 PUSH1 0x4 SSTORE PUSH2 0x1594 SWAP1 DUP2 PUSH2 0x32 DUP3 CODECOPY RETURN JUMPDEST PUSH0 DUP1 REVERT INVALID PUSH1 0x40 PUSH1 0x80 DUP2 MSTORE PUSH1 0x4 SWAP1 DUP2 CALLDATASIZE LT ISZERO PUSH2 0x14 JUMPI PUSH0 DUP1 REVERT JUMPDEST PUSH0 DUP1 CALLDATALOAD PUSH1 0xE0 SHR DUP1 PUSH4 0x260118CD EQ PUSH2 0xF31 JUMPI DUP1 PUSH4 0x2A4D8C2A EQ PUSH2 0xDCF JUMPI DUP1 PUSH4 0x34581E99 EQ PUSH2 0xD69 JUMPI DUP1 PUSH4 0x38AED2F7 EQ PUSH2 0xBDD JUMPI DUP1 PUSH4 0x6FDF4B14 EQ PUSH2 0xBBF JUMPI DUP1 PUSH4 0x7BEE5D13 EQ PUSH2 0x93E JUMPI DUP1 PUSH4 0x887E5F48 EQ PUSH2 0x903 JUMPI DUP1 PUSH4 0x8DA5CB5B EQ PUSH2 0x8DA JUMPI DUP1 PUSH4 0x9CBC90E6 EQ PUSH2 0x892 JUMPI DUP1 PUSH4 0xA212F601 EQ PUSH2 0x869 JUMPI DUP1 PUSH4 0xB319692F EQ PUSH2 0x783 JUMPI DUP1 PUSH4 0xB58B125A EQ PUSH2 0x6BA JUMPI DUP1 PUSH4 0xD9D0BC8B EQ PUSH2 0x54E JUMPI DUP1 PUSH4 0xDDC67CF5 EQ PUSH2 0x3B8 JUMPI DUP1 PUSH4 0xDF22D38A EQ PUSH2 0x239 JUMPI DUP1 PUSH4 0xE39D22DC EQ PUSH2 0x142 JUMPI PUSH4 0xFBD61666 EQ PUSH2 0xD8 JUMPI PUSH0 DUP1 REVERT JUMPDEST CALLVALUE PUSH2 0x13F JUMPI PUSH1 0x20 CALLDATASIZE PUSH1 0x3 NOT ADD SLT PUSH2 0x13F JUMPI DUP3 CALLDATALOAD PUSH1 0x3 SLOAD DUP2 LT ISZERO PUSH2 0x13B JUMPI PUSH2 0xFE SWAP1 PUSH2 0x11EC JUMP JUMPDEST SWAP4 SWAP1 SWAP4 PUSH2 0x129 JUMPI PUSH2 0x125 DUP4 PUSH2 0x112 DUP7 PUSH2 0xFE3 JUMP JUMPDEST SWAP1 MLOAD SWAP2 DUP3 SWAP2 PUSH1 0x20 DUP4 MSTORE PUSH1 0x20 DUP4 ADD SWAP1 PUSH2 0x10A5 JUMP JUMPDEST SUB SWAP1 RETURN JUMPDEST PUSH4 0x4E487B71 PUSH1 0xE0 SHL DUP3 MSTORE DUP2 SWAP1 MSTORE PUSH1 0x24 SWAP1 REVERT JUMPDEST POP DUP1 REVERT JUMPDEST DUP1 REVERT JUMPDEST POP DUP3 CALLVALUE PUSH2 0x13B JUMPI PUSH2 0x152 CALLDATASIZE PUSH2 0x1139 JUMP JUMPDEST DUP5 MLOAD PUSH1 0x20 DUP2 DUP5 MLOAD PUSH2 0x166 DUP2 DUP4 DUP6 DUP10 ADD PUSH2 0x1084 JUMP JUMPDEST DUP2 ADD DUP8 DUP2 MSTORE SUB ADD SWAP1 KECCAK256 PUSH1 0x1 DUP2 ADD SLOAD PUSH1 0x1 PUSH1 0x1 PUSH1 0xA0 SHL SUB SWAP2 DUP6 SWAP2 PUSH2 0x18C SWAP1 DUP5 AND ISZERO ISZERO PUSH2 0x1454 JUMP JUMPDEST ADD SWAP1 DUP2 SLOAD SWAP1 DUP1 DUP3 AND SWAP6 CALLER DUP8 SUB PUSH2 0x1EA JUMPI POP PUSH1 0x1 PUSH1 0x1 PUSH1 0xA0 SHL SUB NOT SWAP1 SWAP2 AND SWAP1 DUP4 AND OR SWAP1 SSTORE SWAP4 MLOAD SWAP3 SWAP4 PUSH32 0x7D19F93590534D2CCE4C1A78A48B1DC4501FEEFF13106AEE90FBB77B5ABE8D0A SWAP4 SWAP3 DUP4 SWAP3 PUSH2 0x1E4 SWAP3 SWAP2 SWAP1 DUP5 PUSH2 0x14A0 JUMP JUMPDEST SUB SWAP1 LOG1 DUP1 RETURN JUMPDEST PUSH1 0x84 SWAP1 PUSH1 0x20 DUP11 MLOAD SWAP2 PUSH3 0x461BCD PUSH1 0xE5 SHL DUP4 MSTORE DUP3 ADD MSTORE PUSH1 0x23 PUSH1 0x24 DUP3 ADD MSTORE PUSH32 0x4F6E6C7920746865206F776E65722063616E20757064617465206F776E657273 PUSH1 0x44 DUP3 ADD MSTORE PUSH3 0x68697 PUSH1 0xEC SHL PUSH1 0x64 DUP3 ADD MSTORE REVERT JUMPDEST POP SWAP2 SWAP1 CALLVALUE PUSH2 0x3B4 JUMPI PUSH2 0x24A CALLDATASIZE PUSH2 0x117A JUMP JUMPDEST SWAP2 SWAP4 SWAP3 SWAP5 PUSH1 0x1 DUP1 PUSH1 0xA0 SHL SUB SWAP1 PUSH2 0x265 DUP3 PUSH1 0x6 SLOAD AND CALLER EQ PUSH2 0x14CF JUMP JUMPDEST DUP7 PUSH2 0x297 DUP4 PUSH1 0x1 DUP12 PUSH1 0x20 DUP11 MLOAD DUP1 SWAP3 DUP3 DUP9 MLOAD SWAP9 ADD SWAP8 PUSH2 0x284 DUP2 DUP5 DUP12 PUSH2 0x1084 JUMP JUMPDEST DUP3 ADD SWAP1 DUP2 MSTORE SUB ADD SWAP1 KECCAK256 ADD SLOAD AND ISZERO ISZERO PUSH2 0x1454 JUMP JUMPDEST DUP6 MLOAD DUP4 DUP4 DUP11 MLOAD PUSH2 0x2A8 DUP2 DUP6 DUP8 PUSH2 0x1084 JUMP JUMPDEST DUP4 ADD SWAP3 DUP13 DUP5 MSTORE PUSH1 0x20 DUP2 CALLER SWAP6 SUB ADD SWAP1 KECCAK256 ADD SLOAD AND SUB PUSH2 0x35D JUMPI PUSH1 0x6 PUSH32 0x9A52091F0C1324342293A52B987697D1AFEF630B68B88FA5CB95F4843E048B14 SWAP6 SWAP5 SWAP4 PUSH2 0x357 SWAP4 PUSH2 0x332 PUSH2 0x307 PUSH1 0x20 PUSH2 0x34C SWAP7 DUP16 DUP16 DUP15 MLOAD SWAP5 DUP6 SWAP4 DUP5 SWAP3 MLOAD SWAP3 DUP4 SWAP2 PUSH2 0x1084 JUMP JUMPDEST DUP3 ADD SWAP1 DUP2 MSTORE SUB ADD SWAP1 KECCAK256 PUSH1 0x1 DUP2 ADD DUP1 SLOAD PUSH1 0x1 PUSH1 0x1 PUSH1 0xA0 SHL SUB NOT AND SWAP13 DUP6 AND SWAP13 DUP14 OR SWAP1 SSTORE SWAP7 PUSH1 0x2 DUP9 ADD PUSH2 0x12A8 JUMP JUMPDEST PUSH2 0x33F DUP8 PUSH1 0x3 DUP9 ADD PUSH2 0x12A8 JUMP JUMPDEST DUP6 ADD SLOAD AND SWAP4 ADD SLOAD SWAP8 PUSH2 0x13A4 JUMP JUMPDEST SWAP5 MLOAD SWAP3 DUP4 SWAP3 DUP4 PUSH2 0x13C4 JUMP JUMPDEST SUB SWAP1 LOG4 DUP1 RETURN JUMPDEST DUP6 MLOAD PUSH3 0x461BCD PUSH1 0xE5 SHL DUP2 MSTORE PUSH1 0x20 DUP2 DUP5 ADD MSTORE PUSH1 0x2B PUSH1 0x24 DUP3 ADD MSTORE PUSH32 0x4F6E6C7920746865206F776E65722063616E2065646974207468652070617261 PUSH1 0x44 DUP3 ADD MSTORE PUSH11 0x6D657465722067726F757 PUSH1 0xAC SHL PUSH1 0x64 DUP3 ADD MSTORE PUSH1 0x84 SWAP1 REVERT JUMPDEST DUP3 DUP1 REVERT JUMPDEST POP SWAP1 CALLVALUE PUSH2 0x13B JUMPI PUSH1 0x20 SWAP1 DUP2 PUSH1 0x3 NOT CALLDATASIZE ADD SLT PUSH2 0x3B4 JUMPI DUP4 CALLDATALOAD PUSH1 0x1 PUSH1 0x1 PUSH1 0x40 SHL SUB DUP2 GT PUSH2 0x54A JUMPI PUSH2 0x3EA SWAP1 CALLDATASIZE SWAP1 DUP7 ADD PUSH2 0x10CA JUMP JUMPDEST SWAP2 PUSH1 0x1 DUP1 PUSH1 0xA0 SHL SUB PUSH2 0x401 DUP2 PUSH1 0x5 SLOAD AND CALLER EQ PUSH2 0x13E6 JUMP JUMPDEST PUSH2 0x430 DUP4 MLOAD SWAP2 PUSH1 0x1 DUP7 MLOAD SWAP4 DUP6 DUP2 DUP2 DUP11 ADD SWAP7 PUSH2 0x41D DUP2 DUP4 DUP11 PUSH2 0x1084 JUMP JUMPDEST DUP2 ADD DUP12 DUP2 MSTORE SUB ADD SWAP1 KECCAK256 ADD SLOAD AND ISZERO ISZERO PUSH2 0x1454 JUMP JUMPDEST PUSH1 0x5 DUP4 MLOAD DUP4 DUP2 DUP8 MLOAD PUSH2 0x443 DUP2 DUP4 DUP9 PUSH2 0x1084 JUMP JUMPDEST DUP2 ADD DUP10 DUP2 MSTORE SUB ADD SWAP1 KECCAK256 ADD SLOAD ISZERO PUSH2 0x4F5 JUMPI PUSH1 0x5 DUP4 MLOAD DUP4 DUP2 DUP8 MLOAD PUSH2 0x466 DUP2 DUP4 DUP9 PUSH2 0x1084 JUMP JUMPDEST DUP2 ADD DUP10 DUP2 MSTORE SUB ADD SWAP1 KECCAK256 ADD DUP1 SLOAD DUP1 ISZERO PUSH2 0x4E2 JUMPI PUSH0 NOT ADD SWAP1 SSTORE DUP3 MLOAD DUP5 MLOAD SWAP6 SWAP7 POP PUSH32 0xB5D6D4F279E94103034092B974C0C4F6FB820EC2ABE1FD65563515167B882D8B SWAP6 PUSH1 0x5 SWAP3 DUP5 SWAP2 DUP4 SWAP2 PUSH2 0x4BA SWAP1 DUP3 SWAP1 DUP5 SWAP1 PUSH2 0x1084 JUMP JUMPDEST DUP2 ADD DUP10 DUP2 MSTORE SUB ADD SWAP1 KECCAK256 ADD SLOAD PUSH2 0x4D8 DUP4 MLOAD SWAP5 DUP5 DUP7 SWAP6 DUP7 MSTORE DUP6 ADD SWAP1 PUSH2 0x10A5 JUMP JUMPDEST SWAP2 DUP4 ADD MSTORE SUB SWAP1 LOG1 DUP1 RETURN JUMPDEST PUSH4 0x4E487B71 PUSH1 0xE0 SHL DUP8 MSTORE PUSH1 0x11 DUP9 MSTORE PUSH1 0x24 DUP8 REVERT JUMPDEST DUP3 MLOAD PUSH3 0x461BCD PUSH1 0xE5 SHL DUP2 MSTORE DUP1 DUP8 ADD DUP4 SWAP1 MSTORE PUSH1 0x29 PUSH1 0x24 DUP3 ADD MSTORE PUSH32 0x456E726F6C6C6D656E7420636F756E742063616E6E6F74206265206C65737320 PUSH1 0x44 DUP3 ADD MSTORE PUSH9 0x7468616E207A65726F PUSH1 0xB8 SHL PUSH1 0x64 DUP3 ADD MSTORE PUSH1 0x84 SWAP1 REVERT JUMPDEST DUP4 DUP1 REVERT JUMPDEST POP DUP3 CALLVALUE PUSH2 0x13B JUMPI PUSH1 0x20 SWAP3 DUP4 PUSH1 0x3 NOT CALLDATASIZE ADD SLT PUSH2 0x3B4 JUMPI PUSH2 0x56B PUSH2 0x1123 JUMP JUMPDEST DUP5 DUP1 DUP4 MLOAD SWAP6 PUSH2 0x579 DUP8 PUSH2 0xF93 JUMP JUMPDEST DUP1 PUSH1 0x60 SWAP8 DUP9 DUP2 MSTORE DUP2 DUP5 DUP3 ADD MSTORE DUP9 DUP8 DUP3 ADD MSTORE DUP9 DUP1 DUP3 ADD MSTORE DUP2 PUSH1 0x80 DUP3 ADD MSTORE DUP2 PUSH1 0xA0 DUP3 ADD MSTORE PUSH1 0xC0 ADD MSTORE PUSH1 0x1 PUSH1 0xA0 SHL PUSH1 0x1 SWAP1 SUB DUP1 SWAP5 AND DUP2 MSTORE PUSH1 0x2 DUP3 MSTORE DUP5 DUP2 KECCAK256 PUSH2 0x5BD SWAP1 PUSH2 0xFE3 JUMP JUMPDEST SWAP1 DUP6 MLOAD SWAP4 DUP5 DUP4 DUP2 SWAP5 MLOAD SWAP3 DUP4 SWAP2 ADD SWAP2 PUSH2 0x5D4 SWAP3 PUSH2 0x1084 JUMP JUMPDEST DUP3 ADD SWAP1 DUP2 MSTORE SUB ADD SWAP1 KECCAK256 SWAP1 DUP3 MLOAD SWAP5 PUSH2 0x5EA DUP7 PUSH2 0xF93 JUMP JUMPDEST PUSH2 0x5F3 DUP4 PUSH2 0xFE3 JUMP JUMPDEST DUP7 MSTORE PUSH1 0x1 DUP4 ADD SLOAD DUP3 AND DUP8 DUP8 ADD SWAP1 DUP2 MSTORE SWAP5 PUSH2 0x60F PUSH1 0x2 DUP6 ADD PUSH2 0xFE3 JUMP JUMPDEST DUP8 DUP7 ADD SWAP1 DUP2 MSTORE SWAP6 DUP4 PUSH2 0x623 PUSH1 0x3 DUP8 ADD PUSH2 0xFE3 JUMP JUMPDEST SWAP3 DUP5 DUP11 ADD SWAP4 DUP5 MSTORE DUP7 ADD SLOAD AND SWAP7 PUSH1 0x80 DUP10 ADD SWAP8 DUP9 MSTORE PUSH1 0x5 DUP7 ADD SLOAD SWAP6 PUSH1 0xA0 DUP11 ADD SWAP7 DUP8 MSTORE PUSH1 0x6 ADD SLOAD SWAP7 PUSH1 0xC0 DUP11 ADD SWAP8 DUP9 MSTORE DUP6 DUP2 MLOAD SWAP12 DUP13 SWAP12 DUP2 DUP14 MSTORE MLOAD SWAP1 DUP13 ADD PUSH1 0xE0 SWAP1 MSTORE PUSH2 0x100 DUP13 ADD PUSH2 0x66E SWAP2 PUSH2 0x10A5 JUMP JUMPDEST SWAP4 MLOAD AND SWAP1 DUP11 ADD MSTORE MLOAD SWAP1 PUSH1 0x1F NOT SWAP4 DUP5 DUP11 DUP4 SUB ADD SWAP1 DUP11 ADD MSTORE PUSH2 0x68D SWAP2 PUSH2 0x10A5 JUMP JUMPDEST SWAP1 MLOAD SWAP2 DUP8 DUP3 SUB ADD PUSH1 0x80 DUP9 ADD MSTORE PUSH2 0x6A2 SWAP2 PUSH2 0x10A5 JUMP JUMPDEST SWAP4 MLOAD AND PUSH1 0xA0 DUP6 ADD MSTORE MLOAD PUSH1 0xC0 DUP5 ADD MSTORE MLOAD PUSH1 0xE0 DUP4 ADD MSTORE SUB SWAP1 RETURN JUMPDEST POP SWAP2 SWAP1 CALLVALUE PUSH2 0x3B4 JUMPI PUSH1 0x20 SWAP1 DUP2 PUSH1 0x3 NOT CALLDATASIZE ADD SLT PUSH2 0x54A JUMPI DUP3 CALLDATALOAD PUSH1 0x1 PUSH1 0x1 PUSH1 0x40 SHL SUB DUP2 GT PUSH2 0x77F JUMPI PUSH32 0xB5D6D4F279E94103034092B974C0C4F6FB820EC2ABE1FD65563515167B882D8B SWAP4 PUSH2 0x70E SWAP2 CALLDATASIZE SWAP2 ADD PUSH2 0x10CA JUMP JUMPDEST SWAP2 PUSH1 0x5 PUSH2 0x4BA DUP3 DUP6 PUSH2 0x747 PUSH1 0x1 DUP1 PUSH1 0xA0 SHL SUB PUSH2 0x72E DUP2 DUP8 SLOAD AND CALLER EQ PUSH2 0x13E6 JUMP JUMPDEST PUSH1 0x1 DUP12 DUP6 DUP11 MLOAD DUP1 SWAP3 DUP3 DUP9 MLOAD SWAP9 ADD SWAP8 PUSH2 0x284 DUP2 DUP5 DUP12 PUSH2 0x1084 JUMP JUMPDEST DUP4 DUP7 MLOAD DUP4 DUP2 DUP11 MLOAD PUSH2 0x759 DUP2 DUP4 DUP9 PUSH2 0x1084 JUMP JUMPDEST DUP2 ADD DUP14 DUP2 MSTORE SUB ADD SWAP1 KECCAK256 ADD PUSH2 0x76D DUP2 SLOAD PUSH2 0x1270 JUMP JUMPDEST SWAP1 SSTORE DUP6 MLOAD DUP1 SWAP4 DUP2 SWAP3 DUP10 MLOAD SWAP3 DUP4 SWAP2 PUSH2 0x1084 JUMP JUMPDEST DUP5 DUP1 REVERT JUMPDEST POP SWAP2 CALLVALUE PUSH2 0x3B4 JUMPI PUSH1 0x20 CALLDATASIZE PUSH1 0x3 NOT ADD SLT PUSH2 0x3B4 JUMPI DUP1 CALLDATALOAD PUSH1 0x1 PUSH1 0x1 PUSH1 0x40 SHL SUB DUP2 GT PUSH2 0x54A JUMPI PUSH1 0x20 PUSH2 0x835 SWAP5 PUSH2 0x7BC PUSH2 0x7CF SWAP4 CALLDATASIZE SWAP1 DUP7 ADD PUSH2 0x10CA JUMP JUMPDEST SWAP1 DUP3 DUP7 MLOAD SWAP5 DUP4 DUP7 DUP1 SWAP6 MLOAD SWAP4 DUP5 SWAP3 ADD PUSH2 0x1084 JUMP JUMPDEST DUP3 ADD SWAP1 DUP2 MSTORE SUB ADD SWAP1 KECCAK256 SWAP2 PUSH2 0x7E2 DUP4 PUSH2 0xFE3 JUMP JUMPDEST SWAP3 PUSH2 0x855 PUSH1 0x1 DUP1 PUSH1 0xA0 SHL SUB SWAP4 PUSH2 0x847 DUP6 PUSH1 0x1 DUP6 ADD SLOAD AND PUSH2 0x804 PUSH1 0x2 DUP7 ADD PUSH2 0xFE3 JUMP JUMPDEST SWAP7 PUSH2 0x811 PUSH1 0x3 DUP8 ADD PUSH2 0xFE3 JUMP JUMPDEST SWAP4 DUP7 ADD SLOAD AND SWAP7 PUSH1 0x6 PUSH1 0x5 DUP8 ADD SLOAD SWAP7 ADD SLOAD SWAP7 DUP1 MLOAD SWAP11 DUP12 SWAP11 PUSH1 0xE0 DUP13 MSTORE PUSH1 0xE0 DUP13 ADD SWAP1 PUSH2 0x10A5 JUMP JUMPDEST SWAP3 PUSH1 0x20 DUP12 ADD MSTORE DUP10 DUP4 SUB SWAP1 DUP11 ADD MSTORE PUSH2 0x10A5 JUMP JUMPDEST SWAP1 DUP7 DUP3 SUB PUSH1 0x60 DUP9 ADD MSTORE PUSH2 0x10A5 JUMP JUMPDEST SWAP3 PUSH1 0x80 DUP6 ADD MSTORE PUSH1 0xA0 DUP5 ADD MSTORE PUSH1 0xC0 DUP4 ADD MSTORE SUB SWAP1 RETURN JUMPDEST POP SWAP1 CALLVALUE PUSH2 0x13B JUMPI DUP2 PUSH1 0x3 NOT CALLDATASIZE ADD SLT PUSH2 0x13B JUMPI PUSH1 0x5 SLOAD SWAP1 MLOAD PUSH1 0x1 PUSH1 0x1 PUSH1 0xA0 SHL SUB SWAP1 SWAP2 AND DUP2 MSTORE PUSH1 0x20 SWAP1 RETURN JUMPDEST POP CALLVALUE PUSH2 0x13F JUMPI PUSH1 0x20 CALLDATASIZE PUSH1 0x3 NOT ADD SLT PUSH2 0x13F JUMPI PUSH2 0x8AC PUSH2 0x1123 JUMP JUMPDEST PUSH1 0x6 SLOAD PUSH1 0x1 PUSH1 0x1 PUSH1 0xA0 SHL SUB SWAP2 SWAP1 PUSH2 0x8C6 SWAP1 DUP4 AND CALLER EQ PUSH2 0x14CF JUMP JUMPDEST AND PUSH1 0x1 DUP1 PUSH1 0xA0 SHL SUB NOT PUSH1 0x5 SLOAD AND OR PUSH1 0x5 SSTORE DUP1 RETURN JUMPDEST POP SWAP1 CALLVALUE PUSH2 0x13B JUMPI DUP2 PUSH1 0x3 NOT CALLDATASIZE ADD SLT PUSH2 0x13B JUMPI PUSH1 0x6 SLOAD SWAP1 MLOAD PUSH1 0x1 PUSH1 0x1 PUSH1 0xA0 SHL SUB SWAP1 SWAP2 AND DUP2 MSTORE PUSH1 0x20 SWAP1 RETURN JUMPDEST POP SWAP1 CALLVALUE PUSH2 0x13B JUMPI PUSH1 0x20 CALLDATASIZE PUSH1 0x3 NOT ADD SLT PUSH2 0x13B JUMPI PUSH2 0x125 SWAP2 PUSH2 0x112 SWAP1 DUP3 SWAP1 PUSH1 0x1 PUSH1 0x1 PUSH1 0xA0 SHL SUB PUSH2 0x930 PUSH2 0x1123 JUMP JUMPDEST AND DUP2 MSTORE PUSH1 0x2 PUSH1 0x20 MSTORE KECCAK256 PUSH2 0xFE3 JUMP JUMPDEST POP SWAP2 CALLVALUE PUSH2 0x3B4 JUMPI PUSH2 0x94E CALLDATASIZE PUSH2 0x117A JUMP JUMPDEST SWAP2 DUP4 SWAP2 SWAP6 SWAP4 MLOAD ISZERO PUSH2 0xB70 JUMPI DUP4 MLOAD SWAP5 DUP3 MLOAD PUSH1 0x20 SWAP3 DUP4 DUP6 ADD SWAP2 PUSH2 0x970 DUP2 DUP11 DUP6 PUSH2 0x1084 JUMP JUMPDEST DUP9 ADD DUP11 DUP2 MSTORE DUP9 SWAP1 SUB DUP5 ADD SWAP1 SWAP8 KECCAK256 PUSH1 0x1 ADD SLOAD PUSH1 0x1 PUSH1 0x1 PUSH1 0xA0 SHL SUB SWAP8 SWAP1 DUP9 AND PUSH2 0xB2D JUMPI DUP8 AND SWAP7 DUP8 DUP11 MSTORE PUSH1 0x2 DUP5 MSTORE DUP7 DUP11 KECCAK256 SLOAD PUSH2 0x9A8 SWAP1 PUSH2 0xF5B JUMP JUMPDEST ISZERO PUSH2 0x9B2 SWAP1 PUSH2 0x1218 JUMP JUMPDEST DUP7 DUP11 DUP5 SLOAD SWAP11 DUP12 SWAP4 PUSH2 0x9C2 DUP6 PUSH2 0x1270 JUMP JUMPDEST DUP8 SSTORE DUP4 MLOAD SWAP6 PUSH2 0x9D0 DUP8 PUSH2 0xF93 JUMP JUMPDEST DUP10 DUP8 MSTORE DUP9 DUP8 ADD SWAP3 DUP14 DUP5 MSTORE DUP6 DUP9 ADD SWAP1 DUP2 MSTORE PUSH1 0x60 DUP9 ADD SWAP2 DUP13 DUP4 MSTORE DUP11 DUP13 PUSH1 0x80 DUP12 ADD SWAP8 CALLER DUP10 MSTORE PUSH1 0xA0 DUP13 ADD SWAP10 DUP2 DUP12 MSTORE PUSH1 0xC0 DUP14 ADD SWAP12 DUP13 MSTORE MLOAD DUP1 SWAP5 DUP2 SWAP4 MLOAD DUP1 SWAP3 PUSH2 0xA12 SWAP3 PUSH2 0x1084 JUMP JUMPDEST DUP3 ADD SWAP1 DUP2 MSTORE SUB ADD SWAP1 KECCAK256 SWAP8 MLOAD PUSH2 0xA27 SWAP1 DUP10 PUSH2 0x12A8 JUMP JUMPDEST SWAP3 MLOAD PUSH1 0x1 DUP9 ADD DUP1 SLOAD SWAP2 DUP5 AND PUSH1 0x1 PUSH1 0x1 PUSH1 0xA0 SHL SUB NOT SWAP3 DUP4 AND OR SWAP1 SSTORE SWAP3 MLOAD PUSH2 0xA50 SWAP1 PUSH1 0x2 DUP10 ADD PUSH2 0x12A8 JUMP JUMPDEST MLOAD PUSH2 0xA5E SWAP1 PUSH1 0x3 DUP9 ADD PUSH2 0x12A8 JUMP JUMPDEST DUP7 DUP7 ADD SWAP3 MLOAD AND SWAP1 DUP3 SLOAD AND OR SWAP1 SSTORE MLOAD PUSH1 0x5 DUP4 ADD SSTORE MLOAD SWAP1 PUSH1 0x6 ADD SSTORE PUSH1 0x3 SLOAD PUSH1 0x1 PUSH1 0x40 SHL DUP2 LT ISZERO PUSH2 0xB1A JUMPI DUP1 PUSH1 0x1 PUSH2 0xA96 SWAP3 ADD PUSH1 0x3 SSTORE PUSH2 0x11EC JUMP JUMPDEST SWAP2 SWAP1 SWAP2 PUSH2 0xB08 JUMPI POP DUP3 PUSH1 0x2 PUSH32 0x9A52091F0C1324342293A52B987697D1AFEF630B68B88FA5CB95F4843E048B14 SWAP6 SWAP4 PUSH2 0xAD4 PUSH2 0x357 SWAP7 PUSH2 0xAFC SWAP6 PUSH2 0x12A8 JUMP JUMPDEST DUP10 DUP12 MSTORE PUSH1 0x1 DUP2 MSTORE PUSH2 0xAE7 DUP4 DUP10 DUP14 KECCAK256 PUSH2 0x12A8 JUMP JUMPDEST DUP9 DUP12 MSTORE MSTORE PUSH2 0xAF7 DUP2 DUP8 DUP12 KECCAK256 PUSH2 0x12A8 JUMP JUMPDEST PUSH2 0x13A4 JUMP JUMPDEST SWAP4 MLOAD SWAP2 DUP3 SWAP2 CALLER DUP4 PUSH2 0x13C4 JUMP JUMPDEST PUSH4 0x4E487B71 PUSH1 0xE0 SHL DUP10 MSTORE DUP9 SWAP1 MSTORE PUSH1 0x24 DUP9 REVERT JUMPDEST PUSH4 0x4E487B71 PUSH1 0xE0 SHL DUP10 MSTORE PUSH1 0x41 DUP3 MSTORE PUSH1 0x24 DUP10 REVERT JUMPDEST DUP7 MLOAD PUSH3 0x461BCD PUSH1 0xE5 SHL DUP2 MSTORE DUP1 DUP5 ADD DUP6 SWAP1 MSTORE PUSH1 0x1E PUSH1 0x24 DUP3 ADD MSTORE PUSH32 0x506172616D657465722067726F757020616C7265616479206578697374730000 PUSH1 0x44 DUP3 ADD MSTORE PUSH1 0x64 SWAP1 REVERT JUMPDEST DUP4 MLOAD PUSH3 0x461BCD PUSH1 0xE5 SHL DUP2 MSTORE PUSH1 0x20 DUP2 DUP8 ADD MSTORE PUSH1 0x24 DUP1 DUP3 ADD MSTORE PUSH32 0x506172616D657465722067726F7570206E616D652063616E6E6F742062652065 PUSH1 0x44 DUP3 ADD MSTORE PUSH4 0x6D707479 PUSH1 0xE0 SHL PUSH1 0x64 DUP3 ADD MSTORE PUSH1 0x84 SWAP1 REVERT JUMPDEST POP SWAP2 CALLVALUE PUSH2 0x3B4 JUMPI DUP3 PUSH1 0x3 NOT CALLDATASIZE ADD SLT PUSH2 0x3B4 JUMPI PUSH1 0x20 SWAP3 POP SLOAD SWAP1 MLOAD SWAP1 DUP2 MSTORE RETURN JUMPDEST POP DUP3 CALLVALUE PUSH2 0x13B JUMPI PUSH2 0xBED CALLDATASIZE PUSH2 0x1139 JUMP JUMPDEST DUP5 MLOAD DUP1 DUP4 MLOAD PUSH1 0x20 SWAP3 DUP2 PUSH2 0xC04 DUP6 SWAP4 DUP4 DUP6 DUP11 ADD PUSH2 0x1084 JUMP JUMPDEST DUP2 ADD DUP9 DUP2 MSTORE SUB ADD SWAP1 KECCAK256 SWAP4 PUSH1 0x1 DUP6 ADD DUP1 SLOAD SWAP2 PUSH1 0x1 DUP1 PUSH1 0xA0 SHL SUB SWAP1 DUP2 DUP2 DUP2 DUP7 AND SWAP10 PUSH2 0xC2E DUP12 ISZERO ISZERO PUSH2 0x1454 JUMP JUMPDEST ADD SLOAD AND CALLER SUB PUSH2 0xD0F JUMPI POP SWAP3 DUP8 SWAP9 SWAP3 PUSH32 0xA90FB318CEF160851F542872DFCE25DADAFDFDE152BA8CC05E3F0B882842E53C SWAP9 SWAP3 DUP7 SWAP6 PUSH2 0x1E4 SWAP8 AND DUP1 SWAP3 DUP2 DUP7 MSTORE PUSH1 0x2 DUP6 MSTORE PUSH2 0xC85 PUSH2 0xC7E DUP9 DUP9 KECCAK256 SLOAD PUSH2 0xF5B JUMP JUMPDEST ISZERO ISZERO PUSH2 0x1218 JUMP JUMPDEST PUSH1 0x1 PUSH1 0x1 PUSH1 0xA0 SHL SUB NOT AND OR SWAP1 SSTORE DUP3 MSTORE PUSH1 0x2 DUP2 MSTORE DUP3 DUP3 KECCAK256 PUSH2 0xCA6 SWAP1 DUP8 SWAP1 PUSH2 0x12A8 JUMP JUMPDEST DUP7 DUP3 MSTORE PUSH1 0x2 DUP2 MSTORE DUP3 DUP3 KECCAK256 SWAP1 PUSH2 0xCBB DUP3 SLOAD PUSH2 0xF5B JUMP JUMPDEST SWAP1 DUP2 PUSH2 0xCD0 JUMPI JUMPDEST POP POP POP POP MLOAD SWAP4 DUP5 SWAP4 DUP5 PUSH2 0x14A0 JUMP JUMPDEST DUP4 SWAP1 PUSH1 0x1F DUP4 GT PUSH1 0x1 EQ PUSH2 0xCEB JUMPI POP POP POP SSTORE JUMPDEST DUP7 DUP9 DUP1 DUP1 PUSH2 0xCC2 JUMP JUMPDEST DUP4 DUP3 MSTORE DUP2 KECCAK256 SWAP3 SWAP1 SWAP2 PUSH2 0xD08 SWAP1 PUSH1 0x1F ADD PUSH1 0x5 SHR DUP5 ADD PUSH1 0x1 DUP6 ADD PUSH2 0x1292 JUMP JUMPDEST SSTORE SSTORE PUSH2 0xCE2 JUMP JUMPDEST DUP10 MLOAD PUSH3 0x461BCD PUSH1 0xE5 SHL DUP2 MSTORE SWAP1 DUP2 ADD DUP6 SWAP1 MSTORE PUSH1 0x2E PUSH1 0x24 DUP3 ADD MSTORE PUSH32 0x4F6E6C7920746865206F776E65722063616E207570646174652074686520636F PUSH1 0x44 DUP3 ADD MSTORE PUSH14 0x6E74726163742061646472657373 PUSH1 0x90 SHL PUSH1 0x64 DUP3 ADD MSTORE PUSH1 0x84 SWAP1 REVERT JUMPDEST POP SWAP2 CALLVALUE PUSH2 0x3B4 JUMPI PUSH1 0x20 CALLDATASIZE PUSH1 0x3 NOT ADD SLT PUSH2 0x3B4 JUMPI DUP1 CALLDATALOAD PUSH1 0x1 PUSH1 0x1 PUSH1 0x40 SHL SUB DUP2 GT PUSH2 0x54A JUMPI PUSH2 0xD9E PUSH1 0x20 SWAP5 SWAP3 PUSH1 0x1 SWAP3 CALLDATASIZE SWAP2 ADD PUSH2 0x10CA JUMP JUMPDEST DUP5 PUSH2 0xDB1 DUP6 MLOAD SWAP3 DUP4 DUP2 MLOAD SWAP4 DUP5 SWAP3 ADD PUSH2 0x1084 JUMP JUMPDEST DUP2 ADD SWAP3 DUP4 MSTORE DUP5 DUP2 DUP4 DUP1 PUSH1 0xA0 SHL SUB SWAP5 SUB ADD SWAP1 KECCAK256 ADD SLOAD AND ISZERO ISZERO SWAP1 MLOAD SWAP1 DUP2 MSTORE RETURN JUMPDEST POP DUP3 CALLVALUE PUSH2 0x13B JUMPI DUP3 PUSH1 0x3 NOT CALLDATASIZE ADD SLT PUSH2 0x13B JUMPI DUP1 CALLDATALOAD SWAP1 PUSH1 0x24 CALLDATALOAD SWAP2 DUP3 DUP2 MUL SWAP3 DUP2 DUP5 DIV EQ DUP2 ISZERO OR ISZERO PUSH2 0xF1E JUMPI DUP3 ADD SWAP1 DUP2 DUP4 GT PUSH2 0xF0B JUMPI POP PUSH1 0x3 SLOAD DUP1 DUP3 GT PUSH2 0xF03 JUMPI JUMPDEST POP PUSH2 0xE19 DUP3 DUP3 PUSH2 0x1526 JUMP JUMPDEST SWAP2 PUSH2 0xE23 DUP4 PUSH2 0x1533 JUMP JUMPDEST SWAP3 PUSH2 0xE30 DUP7 MLOAD SWAP5 DUP6 PUSH2 0xFC2 JUMP JUMPDEST DUP1 DUP5 MSTORE PUSH2 0xE3F PUSH1 0x1F NOT SWAP2 PUSH2 0x1533 JUMP JUMPDEST ADD DUP5 JUMPDEST DUP2 DUP2 LT PUSH2 0xEF2 JUMPI POP POP DUP1 JUMPDEST DUP3 DUP2 LT PUSH2 0xEB2 JUMPI POP POP POP DUP3 MLOAD SWAP2 PUSH1 0x20 DUP1 DUP5 ADD SWAP1 DUP1 DUP6 MSTORE DUP4 MLOAD DUP1 SWAP3 MSTORE DUP1 DUP7 DUP7 ADD SWAP7 DUP4 PUSH1 0x5 SHL DUP8 ADD ADD SWAP5 ADD SWAP3 SWAP6 JUMPDEST DUP3 DUP8 LT PUSH2 0xE86 JUMPI DUP6 DUP6 SUB DUP7 RETURN JUMPDEST SWAP1 SWAP2 SWAP3 SWAP4 DUP3 DUP1 PUSH2 0xEA2 PUSH1 0x1 SWAP4 PUSH1 0x3F NOT DUP11 DUP3 SUB ADD DUP7 MSTORE DUP9 MLOAD PUSH2 0x10A5 JUMP JUMPDEST SWAP7 ADD SWAP3 ADD SWAP7 ADD SWAP6 SWAP3 SWAP2 SWAP1 SWAP3 PUSH2 0xE79 JUMP JUMPDEST DUP1 PUSH2 0xEE7 PUSH2 0xEC2 PUSH2 0xEED SWAP4 PUSH2 0x11EC JUMP JUMPDEST POP PUSH2 0xED6 PUSH2 0xED0 DUP7 DUP6 PUSH2 0x1526 JUMP JUMPDEST SWAP2 PUSH2 0xFE3 JUMP JUMPDEST PUSH2 0xEE0 DUP3 DUP10 PUSH2 0x154A JUMP JUMPDEST MSTORE DUP7 PUSH2 0x154A JUMP JUMPDEST POP PUSH2 0x1270 JUMP JUMPDEST PUSH2 0xE4D JUMP JUMPDEST DUP1 PUSH1 0x60 PUSH1 0x20 DUP1 SWAP4 DUP9 ADD ADD MSTORE ADD PUSH2 0xE42 JUMP JUMPDEST SWAP1 POP DUP5 PUSH2 0xE0E JUMP JUMPDEST PUSH4 0x4E487B71 PUSH1 0xE0 SHL DUP5 MSTORE PUSH1 0x11 SWAP1 MSTORE PUSH1 0x24 DUP4 REVERT JUMPDEST PUSH4 0x4E487B71 PUSH1 0xE0 SHL DUP5 MSTORE PUSH1 0x11 DUP3 MSTORE PUSH1 0x24 DUP5 REVERT JUMPDEST POP SWAP2 CALLVALUE PUSH2 0x3B4 JUMPI PUSH1 0x20 CALLDATASIZE PUSH1 0x3 NOT ADD SLT PUSH2 0x3B4 JUMPI DUP2 PUSH2 0x125 SWAP4 PUSH2 0x112 SWAP3 CALLDATALOAD DUP2 MSTORE PUSH1 0x1 PUSH1 0x20 MSTORE KECCAK256 PUSH2 0xFE3 JUMP JUMPDEST SWAP1 PUSH1 0x1 DUP3 DUP2 SHR SWAP3 AND DUP1 ISZERO PUSH2 0xF89 JUMPI JUMPDEST PUSH1 0x20 DUP4 LT EQ PUSH2 0xF75 JUMPI JUMP JUMPDEST PUSH4 0x4E487B71 PUSH1 0xE0 SHL PUSH0 MSTORE PUSH1 0x22 PUSH1 0x4 MSTORE PUSH1 0x24 PUSH0 REVERT JUMPDEST SWAP2 PUSH1 0x7F AND SWAP2 PUSH2 0xF6A JUMP JUMPDEST PUSH1 0xE0 DUP2 ADD SWAP1 DUP2 LT PUSH1 0x1 PUSH1 0x1 PUSH1 0x40 SHL SUB DUP3 GT OR PUSH2 0xFAE JUMPI PUSH1 0x40 MSTORE JUMP JUMPDEST PUSH4 0x4E487B71 PUSH1 0xE0 SHL PUSH0 MSTORE PUSH1 0x41 PUSH1 0x4 MSTORE PUSH1 0x24 PUSH0 REVERT JUMPDEST SWAP1 PUSH1 0x1F DUP1 NOT SWAP2 ADD AND DUP2 ADD SWAP1 DUP2 LT PUSH1 0x1 PUSH1 0x1 PUSH1 0x40 SHL SUB DUP3 GT OR PUSH2 0xFAE JUMPI PUSH1 0x40 MSTORE JUMP JUMPDEST SWAP1 PUSH1 0x40 MLOAD SWAP2 DUP3 PUSH0 DUP3 SLOAD SWAP3 PUSH2 0xFF6 DUP5 PUSH2 0xF5B JUMP JUMPDEST SWAP1 DUP2 DUP5 MSTORE PUSH1 0x1 SWAP5 DUP6 DUP2 AND SWAP1 DUP2 PUSH0 EQ PUSH2 0x1061 JUMPI POP PUSH1 0x1 EQ PUSH2 0x1021 JUMPI JUMPDEST POP POP PUSH2 0x101F SWAP3 POP SUB DUP4 PUSH2 0xFC2 JUMP JUMPDEST JUMP JUMPDEST SWAP1 SWAP4 SWAP2 POP PUSH0 MSTORE PUSH1 0x20 SWAP1 DUP2 PUSH0 KECCAK256 SWAP4 PUSH0 SWAP2 JUMPDEST DUP2 DUP4 LT PUSH2 0x1049 JUMPI POP POP PUSH2 0x101F SWAP4 POP DUP3 ADD ADD PUSH0 DUP1 PUSH2 0x1011 JUMP JUMPDEST DUP6 SLOAD DUP9 DUP5 ADD DUP6 ADD MSTORE SWAP5 DUP6 ADD SWAP5 DUP8 SWAP5 POP SWAP2 DUP4 ADD SWAP2 PUSH2 0x1031 JUMP JUMPDEST SWAP2 POP POP PUSH2 0x101F SWAP5 POP PUSH1 0x20 SWAP3 POP PUSH1 0xFF NOT AND DUP3 DUP5 ADD MSTORE ISZERO ISZERO PUSH1 0x5 SHL DUP3 ADD ADD PUSH0 DUP1 PUSH2 0x1011 JUMP JUMPDEST PUSH0 JUMPDEST DUP4 DUP2 LT PUSH2 0x1095 JUMPI POP POP PUSH0 SWAP2 ADD MSTORE JUMP JUMPDEST DUP2 DUP2 ADD MLOAD DUP4 DUP3 ADD MSTORE PUSH1 0x20 ADD PUSH2 0x1086 JUMP JUMPDEST SWAP1 PUSH1 0x20 SWAP2 PUSH2 0x10BE DUP2 MLOAD DUP1 SWAP3 DUP2 DUP6 MSTORE DUP6 DUP1 DUP7 ADD SWAP2 ADD PUSH2 0x1084 JUMP JUMPDEST PUSH1 0x1F ADD PUSH1 0x1F NOT AND ADD ADD SWAP1 JUMP JUMPDEST DUP2 PUSH1 0x1F DUP3 ADD SLT ISZERO PUSH2 0x111F JUMPI DUP1 CALLDATALOAD SWAP1 PUSH1 0x1 PUSH1 0x1 PUSH1 0x40 SHL SUB DUP3 GT PUSH2 0xFAE JUMPI PUSH1 0x40 MLOAD SWAP3 PUSH2 0x10FE PUSH1 0x1F DUP5 ADD PUSH1 0x1F NOT AND PUSH1 0x20 ADD DUP6 PUSH2 0xFC2 JUMP JUMPDEST DUP3 DUP5 MSTORE PUSH1 0x20 DUP4 DUP4 ADD ADD GT PUSH2 0x111F JUMPI DUP2 PUSH0 SWAP3 PUSH1 0x20 DUP1 SWAP4 ADD DUP4 DUP7 ADD CALLDATACOPY DUP4 ADD ADD MSTORE SWAP1 JUMP JUMPDEST PUSH0 DUP1 REVERT JUMPDEST PUSH1 0x4 CALLDATALOAD SWAP1 PUSH1 0x1 PUSH1 0x1 PUSH1 0xA0 SHL SUB DUP3 AND DUP3 SUB PUSH2 0x111F JUMPI JUMP JUMPDEST PUSH1 0x40 PUSH1 0x3 NOT DUP3 ADD SLT PUSH2 0x111F JUMPI PUSH1 0x4 CALLDATALOAD SWAP1 PUSH1 0x1 PUSH1 0x1 PUSH1 0x40 SHL SUB DUP3 GT PUSH2 0x111F JUMPI PUSH2 0x1163 SWAP2 PUSH1 0x4 ADD PUSH2 0x10CA JUMP JUMPDEST SWAP1 PUSH1 0x24 CALLDATALOAD PUSH1 0x1 PUSH1 0x1 PUSH1 0xA0 SHL SUB DUP2 AND DUP2 SUB PUSH2 0x111F JUMPI SWAP1 JUMP JUMPDEST PUSH1 0x80 PUSH1 0x3 NOT DUP3 ADD SLT PUSH2 0x111F JUMPI PUSH1 0x1 PUSH1 0x1 PUSH1 0x40 SHL SUB SWAP1 PUSH1 0x4 CALLDATALOAD DUP3 DUP2 GT PUSH2 0x111F JUMPI DUP2 PUSH2 0x11A6 SWAP2 PUSH1 0x4 ADD PUSH2 0x10CA JUMP JUMPDEST SWAP3 PUSH1 0x24 CALLDATALOAD PUSH1 0x1 PUSH1 0x1 PUSH1 0xA0 SHL SUB DUP2 AND DUP2 SUB PUSH2 0x111F JUMPI SWAP3 PUSH1 0x44 CALLDATALOAD DUP2 DUP2 GT PUSH2 0x111F JUMPI DUP4 PUSH2 0x11D2 SWAP2 PUSH1 0x4 ADD PUSH2 0x10CA JUMP JUMPDEST SWAP3 PUSH1 0x64 CALLDATALOAD SWAP2 DUP3 GT PUSH2 0x111F JUMPI PUSH2 0x11E9 SWAP2 PUSH1 0x4 ADD PUSH2 0x10CA JUMP JUMPDEST SWAP1 JUMP JUMPDEST PUSH1 0x3 SLOAD DUP2 LT ISZERO PUSH2 0x1204 JUMPI PUSH1 0x3 PUSH0 MSTORE PUSH1 0x20 PUSH0 KECCAK256 ADD SWAP1 PUSH0 SWAP1 JUMP JUMPDEST PUSH4 0x4E487B71 PUSH1 0xE0 SHL PUSH0 MSTORE PUSH1 0x32 PUSH1 0x4 MSTORE PUSH1 0x24 PUSH0 REVERT JUMPDEST ISZERO PUSH2 0x121F JUMPI JUMP JUMPDEST PUSH1 0x40 MLOAD PUSH3 0x461BCD PUSH1 0xE5 SHL DUP2 MSTORE PUSH1 0x20 PUSH1 0x4 DUP3 ADD MSTORE PUSH1 0x23 PUSH1 0x24 DUP3 ADD MSTORE PUSH32 0x436F6E7472616374206164647265737320616C72656164792072656769737465 PUSH1 0x44 DUP3 ADD MSTORE PUSH3 0x1C9959 PUSH1 0xEA SHL PUSH1 0x64 DUP3 ADD MSTORE PUSH1 0x84 SWAP1 REVERT JUMPDEST PUSH0 NOT DUP2 EQ PUSH2 0x127E JUMPI PUSH1 0x1 ADD SWAP1 JUMP JUMPDEST PUSH4 0x4E487B71 PUSH1 0xE0 SHL PUSH0 MSTORE PUSH1 0x11 PUSH1 0x4 MSTORE PUSH1 0x24 PUSH0 REVERT JUMPDEST DUP2 DUP2 LT PUSH2 0x129D JUMPI POP POP JUMP JUMPDEST PUSH0 DUP2 SSTORE PUSH1 0x1 ADD PUSH2 0x1292 JUMP JUMPDEST SWAP2 SWAP1 SWAP2 DUP3 MLOAD PUSH1 0x1 PUSH1 0x1 PUSH1 0x40 SHL SUB DUP2 GT PUSH2 0xFAE JUMPI PUSH2 0x12C5 DUP3 SLOAD PUSH2 0xF5B JUMP JUMPDEST PUSH1 0x1F DUP2 GT PUSH2 0x1369 JUMPI JUMPDEST POP PUSH1 0x20 DUP1 PUSH1 0x1F DUP4 GT PUSH1 0x1 EQ PUSH2 0x1309 JUMPI POP DUP2 SWAP3 SWAP4 SWAP5 PUSH0 SWAP3 PUSH2 0x12FE JUMPI JUMPDEST POP POP DUP2 PUSH1 0x1 SHL SWAP2 PUSH0 NOT SWAP1 PUSH1 0x3 SHL SHR NOT AND OR SWAP1 SSTORE JUMP JUMPDEST ADD MLOAD SWAP1 POP PUSH0 DUP1 PUSH2 0x12E9 JUMP JUMPDEST SWAP1 PUSH1 0x1F NOT DUP4 AND SWAP6 DUP5 PUSH0 MSTORE DUP3 PUSH0 KECCAK256 SWAP3 PUSH0 SWAP1 JUMPDEST DUP9 DUP3 LT PUSH2 0x1351 JUMPI POP POP DUP4 PUSH1 0x1 SWAP6 SWAP7 SWAP8 LT PUSH2 0x1339 JUMPI JUMPDEST POP POP POP DUP2 SHL ADD SWAP1 SSTORE JUMP JUMPDEST ADD MLOAD PUSH0 NOT PUSH1 0xF8 DUP5 PUSH1 0x3 SHL AND SHR NOT AND SWAP1 SSTORE PUSH0 DUP1 DUP1 PUSH2 0x132F JUMP JUMPDEST DUP1 PUSH1 0x1 DUP6 SWAP7 DUP3 SWAP5 SWAP7 DUP7 ADD MLOAD DUP2 SSTORE ADD SWAP6 ADD SWAP4 ADD SWAP1 PUSH2 0x131A JUMP JUMPDEST PUSH2 0x1394 SWAP1 DUP4 PUSH0 MSTORE PUSH1 0x20 PUSH0 KECCAK256 PUSH1 0x1F DUP5 ADD PUSH1 0x5 SHR DUP2 ADD SWAP2 PUSH1 0x20 DUP6 LT PUSH2 0x139A JUMPI JUMPDEST PUSH1 0x1F ADD PUSH1 0x5 SHR ADD SWAP1 PUSH2 0x1292 JUMP JUMPDEST PUSH0 PUSH2 0x12CE JUMP JUMPDEST SWAP1 SWAP2 POP DUP2 SWAP1 PUSH2 0x1387 JUMP JUMPDEST PUSH2 0x13BC SWAP1 PUSH1 0x20 PUSH1 0x40 MLOAD SWAP3 DUP3 DUP5 DUP1 SWAP5 MLOAD SWAP4 DUP5 SWAP3 ADD PUSH2 0x1084 JUMP JUMPDEST DUP2 ADD SUB SWAP1 KECCAK256 SWAP1 JUMP JUMPDEST PUSH1 0x1 PUSH1 0x1 PUSH1 0xA0 SHL SUB SWAP1 SWAP2 AND DUP2 MSTORE PUSH1 0x40 PUSH1 0x20 DUP3 ADD DUP2 SWAP1 MSTORE PUSH2 0x11E9 SWAP3 SWAP2 ADD SWAP1 PUSH2 0x10A5 JUMP JUMPDEST ISZERO PUSH2 0x13ED JUMPI JUMP JUMPDEST PUSH1 0x40 MLOAD PUSH3 0x461BCD PUSH1 0xE5 SHL DUP2 MSTORE PUSH1 0x20 PUSH1 0x4 DUP3 ADD MSTORE PUSH1 0x39 PUSH1 0x24 DUP3 ADD MSTORE PUSH32 0x4F6E6C7920436F6D6D756E697479456E726F6C6C6D656E7420636F6E74726163 PUSH1 0x44 DUP3 ADD MSTORE PUSH25 0x3A1031B0B7103832B93337B936903A3434B99030B1BA34B7B7 PUSH1 0x39 SHL PUSH1 0x64 DUP3 ADD MSTORE PUSH1 0x84 SWAP1 REVERT JUMPDEST ISZERO PUSH2 0x145B JUMPI JUMP JUMPDEST PUSH1 0x40 MLOAD PUSH3 0x461BCD PUSH1 0xE5 SHL DUP2 MSTORE PUSH1 0x20 PUSH1 0x4 DUP3 ADD MSTORE PUSH1 0x1E PUSH1 0x24 DUP3 ADD MSTORE PUSH32 0x506172616D657465722067726F757020646F6573206E6F742065786973740000 PUSH1 0x44 DUP3 ADD MSTORE PUSH1 0x64 SWAP1 REVERT JUMPDEST SWAP2 PUSH2 0x14B8 PUSH1 0x40 SWAP3 SWAP6 SWAP5 SWAP6 PUSH1 0x60 DUP6 MSTORE PUSH1 0x60 DUP6 ADD SWAP1 PUSH2 0x10A5 JUMP JUMPDEST PUSH1 0x1 PUSH1 0x1 PUSH1 0xA0 SHL SUB SWAP2 DUP3 AND PUSH1 0x20 DUP6 ADD MSTORE SWAP5 AND SWAP2 ADD MSTORE JUMP JUMPDEST ISZERO PUSH2 0x14D6 JUMPI JUMP JUMPDEST PUSH1 0x40 MLOAD PUSH3 0x461BCD PUSH1 0xE5 SHL DUP2 MSTORE PUSH1 0x20 PUSH1 0x4 DUP3 ADD MSTORE PUSH1 0x22 PUSH1 0x24 DUP3 ADD MSTORE PUSH32 0x4F6E6C79206F776E65722063616E20706572666F726D20746869732061637469 PUSH1 0x44 DUP3 ADD MSTORE PUSH2 0x37B7 PUSH1 0xF1 SHL PUSH1 0x64 DUP3 ADD MSTORE PUSH1 0x84 SWAP1 REVERT JUMPDEST SWAP2 SWAP1 DUP3 SUB SWAP2 DUP3 GT PUSH2 0x127E JUMPI JUMP JUMPDEST PUSH1 0x1 PUSH1 0x1 PUSH1 0x40 SHL SUB DUP2 GT PUSH2 0xFAE JUMPI PUSH1 0x5 SHL PUSH1 0x20 ADD SWAP1 JUMP JUMPDEST DUP1 MLOAD DUP3 LT ISZERO PUSH2 0x1204 JUMPI PUSH1 0x20 SWAP2 PUSH1 0x5 SHL ADD ADD SWAP1 JUMP INVALID LOG2 PUSH5 0x6970667358 0x22 SLT KECCAK256 CREATE 0xF7 GASLIMIT OR CALLVALUE 0xDA SHR PUSH30 0xEE8A6C3C1D249D56D42AC2BE6353DE6EB924C988AEC9F30E64736F6C6343 STOP ADDMOD EQ STOP CALLER "},"methodIdentifiers":{"communityEnrollmentContract()":"a212f601","decrementEnrollmentCount(string)":"ddc67cf5","editParameterGroup(string,address,string,string)":"df22d38a","getParameterGroupByAddress(address)":"d9d0bc8b","getParameterGroupExists(string)":"34581e99","getParameterGroupNamesPaginated(uint256,uint256)":"2a4d8c2a","incrementEnrollmentCount(string)":"b58b125a","owner()":"8da5cb5b","parameterGroupCount()":"6fdf4b14","parameterGroupIds(uint256)":"260118cd","parameterGroupNamesByAddress(address)":"887e5f48","parameterGroupNamesById(uint256)":"fbd61666","parameterGroupsByName(string)":"b319692f","registerParameterGroup(string,address,string,string)":"7bee5d13","setCommunityEnrollmentContract(address)":"9cbc90e6","updateContractAddress(string,address)":"38aed2f7","updateOwner(string,address)":"e39d22dc"}}}}}