{"contracts/testnetFundContract.sol":{"tgetherFundTest":{"abi":[{"inputs":[],"stateMutability":"nonpayable","type":"constructor"},{"inputs":[],"name":"LINK","outputs":[{"internalType":"contract IERC677","name":"","type":"address"}],"stateMutability":"view","type":"function"},{"inputs":[],"name":"checkBal","outputs":[{"internalType":"uint256","name":"","type":"uint256"}],"stateMutability":"view","type":"function"},{"inputs":[{"internalType":"address","name":"_contractAddress","type":"address"}],"name":"fundUpkeep","outputs":[{"internalType":"bool","name":"","type":"bool"}],"stateMutability":"payable","type":"function"},{"inputs":[{"internalType":"address","name":"_address","type":"address"},{"internalType":"uint256","name":"_upkeep","type":"uint256"}],"name":"setUpkeeps","outputs":[],"stateMutability":"nonpayable","type":"function"},{"inputs":[{"internalType":"address","name":"_address","type":"address"}],"name":"updateRegistrar","outputs":[],"stateMutability":"nonpayable","type":"function"}],"evm":{"bytecode":{"linkReferences":{},"object":"608080604052346100625760018060a01b031973b1d4538b4571d411f07960ef2838ce337fe1e80e815f5416175f55738194399b3f11fca2e8ccefc4c9a658c61b8bf412816001541617600155339060025416176002556104df90816100678239f35b5f80fdfe6080604081815260049182361015610015575f80fd5b5f92833560e01c9182631b6b6d23146103c6575081632058ad6b1461032b578163592b700a146102e05781637bcab33a146100a1575063f6fd54fe14610059575f80fd5b3461009d578060031936011261009d576100716103ea565b6002546001600160a01b03919061008b9083163314610452565b16825260036020526024359082205580f35b5080fd5b82846020928360031936011261009d576001600160a01b0391826100c36103ea565b169283825260038652848220541561029d578082541685516323b872dd60e01b8152328582015230602482015287816064818766470de4df820000968760448401525af1908115610293578491610266575b501561022c57818354169160015416948352600387528583205494865195888701528786528686019486861067ffffffffffffffff87111761021957509184918893838952630200057560e51b84526044880152606487015260606084870152838680518060a483015285835b8281106101fc57505080820160c401839052601f01601f1916810103608401918391905af19081156101f1575083906101c0575b5050505160018152f35b6101e09285903d87116101e9575b6101d88285610404565b01019061043a565b508280826101b6565b3d91506101ce565b8451903d90823e3d90fd5b9283018082015160c4909101528895508793508992879101610182565b634e487b7160e01b855260419052602484fd5b855162461bcd60e51b8152808501889052601460248201527313125392c81d1c985b9cd9995c8819985a5b195960621b6044820152606490fd5b6102869150883d8a1161028c575b61027e8183610404565b81019061043a565b88610115565b503d610274565b87513d86823e3d90fd5b845162461bcd60e51b8152808401879052601f60248201527f4e6f2075706b6565702073657420666f72207468697320636f6e7472616374006044820152606490fd5b8334610328576020366003190112610328576102fa6103ea565b6002546001600160a01b0391906103149083163314610452565b1660018060a01b0319600154161760015580f35b80fd5b919050346103b057826003193601126103b057825481516370a0823160e01b81523093810193909352602090839060249082906001600160a01b03165afa9182156103bc578392610381575b6020838351908152f35b9091506020813d82116103b4575b8161039c60209383610404565b810103126103b0576020925051905f610377565b8280fd5b3d915061038f565b81513d85823e3d90fd5b84903461009d578160031936011261009d5790546001600160a01b03168152602090f35b600435906001600160a01b038216820361040057565b5f80fd5b90601f8019910116810190811067ffffffffffffffff82111761042657604052565b634e487b7160e01b5f52604160045260245ffd5b90816020910312610400575180151581036104005790565b1561045957565b60405162461bcd60e51b815260206004820152602260248201527f4f6e6c79206f776e65722063616e20706572666f726d2074686973206163746960448201526137b760f11b6064820152608490fdfea2646970667358221220b87b2e3aec83630fb7caecd878fcafa0eddb8c3c8f4cbb5191dbe86b393bd36d64736f6c63430008140033","opcodes":"PUSH1 0x80 DUP1 PUSH1 0x40 MSTORE CALLVALUE PUSH2 0x62 JUMPI PUSH1 0x1 DUP1 PUSH1 0xA0 SHL SUB NOT PUSH20 0xB1D4538B4571D411F07960EF2838CE337FE1E80E DUP2 PUSH0 SLOAD AND OR PUSH0 SSTORE PUSH20 0x8194399B3F11FCA2E8CCEFC4C9A658C61B8BF412 DUP2 PUSH1 0x1 SLOAD AND OR PUSH1 0x1 SSTORE CALLER SWAP1 PUSH1 0x2 SLOAD AND OR PUSH1 0x2 SSTORE PUSH2 0x4DF SWAP1 DUP2 PUSH2 0x67 DUP3 CODECOPY RETURN JUMPDEST PUSH0 DUP1 REVERT INVALID PUSH1 0x80 PUSH1 0x40 DUP2 DUP2 MSTORE PUSH1 0x4 SWAP2 DUP3 CALLDATASIZE LT ISZERO PUSH2 0x15 JUMPI PUSH0 DUP1 REVERT JUMPDEST PUSH0 SWAP3 DUP4 CALLDATALOAD PUSH1 0xE0 SHR SWAP2 DUP3 PUSH4 0x1B6B6D23 EQ PUSH2 0x3C6 JUMPI POP DUP2 PUSH4 0x2058AD6B EQ PUSH2 0x32B JUMPI DUP2 PUSH4 0x592B700A EQ PUSH2 0x2E0 JUMPI DUP2 PUSH4 0x7BCAB33A EQ PUSH2 0xA1 JUMPI POP PUSH4 0xF6FD54FE EQ PUSH2 0x59 JUMPI PUSH0 DUP1 REVERT JUMPDEST CALLVALUE PUSH2 0x9D JUMPI DUP1 PUSH1 0x3 NOT CALLDATASIZE ADD SLT PUSH2 0x9D JUMPI PUSH2 0x71 PUSH2 0x3EA JUMP JUMPDEST PUSH1 0x2 SLOAD PUSH1 0x1 PUSH1 0x1 PUSH1 0xA0 SHL SUB SWAP2 SWAP1 PUSH2 0x8B SWAP1 DUP4 AND CALLER EQ PUSH2 0x452 JUMP JUMPDEST AND DUP3 MSTORE PUSH1 0x3 PUSH1 0x20 MSTORE PUSH1 0x24 CALLDATALOAD SWAP1 DUP3 KECCAK256 SSTORE DUP1 RETURN JUMPDEST POP DUP1 REVERT JUMPDEST DUP3 DUP5 PUSH1 0x20 SWAP3 DUP4 PUSH1 0x3 NOT CALLDATASIZE ADD SLT PUSH2 0x9D JUMPI PUSH1 0x1 PUSH1 0x1 PUSH1 0xA0 SHL SUB SWAP2 DUP3 PUSH2 0xC3 PUSH2 0x3EA JUMP JUMPDEST AND SWAP3 DUP4 DUP3 MSTORE PUSH1 0x3 DUP7 MSTORE DUP5 DUP3 KECCAK256 SLOAD ISZERO PUSH2 0x29D JUMPI DUP1 DUP3 SLOAD AND DUP6 MLOAD PUSH4 0x23B872DD PUSH1 0xE0 SHL DUP2 MSTORE ORIGIN DUP6 DUP3 ADD MSTORE ADDRESS PUSH1 0x24 DUP3 ADD MSTORE DUP8 DUP2 PUSH1 0x64 DUP2 DUP8 PUSH7 0x470DE4DF820000 SWAP7 DUP8 PUSH1 0x44 DUP5 ADD MSTORE GAS CALL SWAP1 DUP2 ISZERO PUSH2 0x293 JUMPI DUP5 SWAP2 PUSH2 0x266 JUMPI JUMPDEST POP ISZERO PUSH2 0x22C JUMPI DUP2 DUP4 SLOAD AND SWAP2 PUSH1 0x1 SLOAD AND SWAP5 DUP4 MSTORE PUSH1 0x3 DUP8 MSTORE DUP6 DUP4 KECCAK256 SLOAD SWAP5 DUP7 MLOAD SWAP6 DUP9 DUP8 ADD MSTORE DUP8 DUP7 MSTORE DUP7 DUP7 ADD SWAP5 DUP7 DUP7 LT PUSH8 0xFFFFFFFFFFFFFFFF DUP8 GT OR PUSH2 0x219 JUMPI POP SWAP2 DUP5 SWAP2 DUP9 SWAP4 DUP4 DUP10 MSTORE PUSH4 0x2000575 PUSH1 0xE5 SHL DUP5 MSTORE PUSH1 0x44 DUP9 ADD MSTORE PUSH1 0x64 DUP8 ADD MSTORE PUSH1 0x60 PUSH1 0x84 DUP8 ADD MSTORE DUP4 DUP7 DUP1 MLOAD DUP1 PUSH1 0xA4 DUP4 ADD MSTORE DUP6 DUP4 JUMPDEST DUP3 DUP2 LT PUSH2 0x1FC JUMPI POP POP DUP1 DUP3 ADD PUSH1 0xC4 ADD DUP4 SWAP1 MSTORE PUSH1 0x1F ADD PUSH1 0x1F NOT AND DUP2 ADD SUB PUSH1 0x84 ADD SWAP2 DUP4 SWAP2 SWAP1 GAS CALL SWAP1 DUP2 ISZERO PUSH2 0x1F1 JUMPI POP DUP4 SWAP1 PUSH2 0x1C0 JUMPI JUMPDEST POP POP POP MLOAD PUSH1 0x1 DUP2 MSTORE RETURN JUMPDEST PUSH2 0x1E0 SWAP3 DUP6 SWAP1 RETURNDATASIZE DUP8 GT PUSH2 0x1E9 JUMPI JUMPDEST PUSH2 0x1D8 DUP3 DUP6 PUSH2 0x404 JUMP JUMPDEST ADD ADD SWAP1 PUSH2 0x43A JUMP JUMPDEST POP DUP3 DUP1 DUP3 PUSH2 0x1B6 JUMP JUMPDEST RETURNDATASIZE SWAP2 POP PUSH2 0x1CE JUMP JUMPDEST DUP5 MLOAD SWAP1 RETURNDATASIZE SWAP1 DUP3 RETURNDATACOPY RETURNDATASIZE SWAP1 REVERT JUMPDEST SWAP3 DUP4 ADD DUP1 DUP3 ADD MLOAD PUSH1 0xC4 SWAP1 SWAP2 ADD MSTORE DUP9 SWAP6 POP DUP8 SWAP4 POP DUP10 SWAP3 DUP8 SWAP2 ADD PUSH2 0x182 JUMP JUMPDEST PUSH4 0x4E487B71 PUSH1 0xE0 SHL DUP6 MSTORE PUSH1 0x41 SWAP1 MSTORE PUSH1 0x24 DUP5 REVERT JUMPDEST DUP6 MLOAD PUSH3 0x461BCD PUSH1 0xE5 SHL DUP2 MSTORE DUP1 DUP6 ADD DUP9 SWAP1 MSTORE PUSH1 0x14 PUSH1 0x24 DUP3 ADD MSTORE PUSH20 0x13125392C81D1C985B9CD9995C8819985A5B1959 PUSH1 0x62 SHL PUSH1 0x44 DUP3 ADD MSTORE PUSH1 0x64 SWAP1 REVERT JUMPDEST PUSH2 0x286 SWAP2 POP DUP9 RETURNDATASIZE DUP11 GT PUSH2 0x28C JUMPI JUMPDEST PUSH2 0x27E DUP2 DUP4 PUSH2 0x404 JUMP JUMPDEST DUP2 ADD SWAP1 PUSH2 0x43A JUMP JUMPDEST DUP9 PUSH2 0x115 JUMP JUMPDEST POP RETURNDATASIZE PUSH2 0x274 JUMP JUMPDEST DUP8 MLOAD RETURNDATASIZE DUP7 DUP3 RETURNDATACOPY RETURNDATASIZE SWAP1 REVERT JUMPDEST DUP5 MLOAD PUSH3 0x461BCD PUSH1 0xE5 SHL DUP2 MSTORE DUP1 DUP5 ADD DUP8 SWAP1 MSTORE PUSH1 0x1F PUSH1 0x24 DUP3 ADD MSTORE PUSH32 0x4E6F2075706B6565702073657420666F72207468697320636F6E747261637400 PUSH1 0x44 DUP3 ADD MSTORE PUSH1 0x64 SWAP1 REVERT JUMPDEST DUP4 CALLVALUE PUSH2 0x328 JUMPI PUSH1 0x20 CALLDATASIZE PUSH1 0x3 NOT ADD SLT PUSH2 0x328 JUMPI PUSH2 0x2FA PUSH2 0x3EA JUMP JUMPDEST PUSH1 0x2 SLOAD PUSH1 0x1 PUSH1 0x1 PUSH1 0xA0 SHL SUB SWAP2 SWAP1 PUSH2 0x314 SWAP1 DUP4 AND CALLER EQ PUSH2 0x452 JUMP JUMPDEST AND PUSH1 0x1 DUP1 PUSH1 0xA0 SHL SUB NOT PUSH1 0x1 SLOAD AND OR PUSH1 0x1 SSTORE DUP1 RETURN JUMPDEST DUP1 REVERT JUMPDEST SWAP2 SWAP1 POP CALLVALUE PUSH2 0x3B0 JUMPI DUP3 PUSH1 0x3 NOT CALLDATASIZE ADD SLT PUSH2 0x3B0 JUMPI DUP3 SLOAD DUP2 MLOAD PUSH4 0x70A08231 PUSH1 0xE0 SHL DUP2 MSTORE ADDRESS SWAP4 DUP2 ADD SWAP4 SWAP1 SWAP4 MSTORE PUSH1 0x20 SWAP1 DUP4 SWAP1 PUSH1 0x24 SWAP1 DUP3 SWAP1 PUSH1 0x1 PUSH1 0x1 PUSH1 0xA0 SHL SUB AND GAS STATICCALL SWAP2 DUP3 ISZERO PUSH2 0x3BC JUMPI DUP4 SWAP3 PUSH2 0x381 JUMPI JUMPDEST PUSH1 0x20 DUP4 DUP4 MLOAD SWAP1 DUP2 MSTORE RETURN JUMPDEST SWAP1 SWAP2 POP PUSH1 0x20 DUP2 RETURNDATASIZE DUP3 GT PUSH2 0x3B4 JUMPI JUMPDEST DUP2 PUSH2 0x39C PUSH1 0x20 SWAP4 DUP4 PUSH2 0x404 JUMP JUMPDEST DUP2 ADD SUB SLT PUSH2 0x3B0 JUMPI PUSH1 0x20 SWAP3 POP MLOAD SWAP1 PUSH0 PUSH2 0x377 JUMP JUMPDEST DUP3 DUP1 REVERT JUMPDEST RETURNDATASIZE SWAP2 POP PUSH2 0x38F JUMP JUMPDEST DUP2 MLOAD RETURNDATASIZE DUP6 DUP3 RETURNDATACOPY RETURNDATASIZE SWAP1 REVERT JUMPDEST DUP5 SWAP1 CALLVALUE PUSH2 0x9D JUMPI DUP2 PUSH1 0x3 NOT CALLDATASIZE ADD SLT PUSH2 0x9D JUMPI SWAP1 SLOAD PUSH1 0x1 PUSH1 0x1 PUSH1 0xA0 SHL SUB AND DUP2 MSTORE PUSH1 0x20 SWAP1 RETURN JUMPDEST PUSH1 0x4 CALLDATALOAD SWAP1 PUSH1 0x1 PUSH1 0x1 PUSH1 0xA0 SHL SUB DUP3 AND DUP3 SUB PUSH2 0x400 JUMPI JUMP JUMPDEST PUSH0 DUP1 REVERT JUMPDEST SWAP1 PUSH1 0x1F DUP1 NOT SWAP2 ADD AND DUP2 ADD SWAP1 DUP2 LT PUSH8 0xFFFFFFFFFFFFFFFF DUP3 GT OR PUSH2 0x426 JUMPI PUSH1 0x40 MSTORE JUMP JUMPDEST PUSH4 0x4E487B71 PUSH1 0xE0 SHL PUSH0 MSTORE PUSH1 0x41 PUSH1 0x4 MSTORE PUSH1 0x24 PUSH0 REVERT JUMPDEST SWAP1 DUP2 PUSH1 0x20 SWAP2 SUB SLT PUSH2 0x400 JUMPI MLOAD DUP1 ISZERO ISZERO DUP2 SUB PUSH2 0x400 JUMPI SWAP1 JUMP JUMPDEST ISZERO PUSH2 0x459 JUMPI JUMP JUMPDEST PUSH1 0x40 MLOAD PUSH3 0x461BCD PUSH1 0xE5 SHL DUP2 MSTORE PUSH1 0x20 PUSH1 0x4 DUP3 ADD MSTORE PUSH1 0x22 PUSH1 0x24 DUP3 ADD MSTORE PUSH32 0x4F6E6C79206F776E65722063616E20706572666F726D20746869732061637469 PUSH1 0x44 DUP3 ADD MSTORE PUSH2 0x37B7 PUSH1 0xF1 SHL PUSH1 0x64 DUP3 ADD MSTORE PUSH1 0x84 SWAP1 REVERT INVALID LOG2 PUSH5 0x6970667358 0x22 SLT KECCAK256 0xB8 PUSH28 0x2E3AEC83630FB7CAECD878FCAFA0EDDB8C3C8F4CBB5191DBE86B393B 0xD3 PUSH14 0x64736F6C63430008140033000000 "},"methodIdentifiers":{"LINK()":"1b6b6d23","checkBal()":"2058ad6b","fundUpkeep(address)":"7bcab33a","setUpkeeps(address,uint256)":"f6fd54fe","updateRegistrar(address)":"592b700a"}}}}}