{"contracts/tgetherConsensusBounty.sol":{"tgetherConsensusBounty":{"abi":[{"inputs":[{"internalType":"address","name":"_tgetherFundAddress","type":"address"},{"internalType":"address","name":"_tgetherPostConsensusAddress","type":"address"},{"internalType":"address","name":"_tgetherCommunityConsensusAddress","type":"address"},{"internalType":"address","name":"_tgetherIncentivesAddress","type":"address"},{"internalType":"uint256","name":"_fee","type":"uint256"}],"stateMutability":"nonpayable","type":"constructor"},{"anonymous":false,"inputs":[{"indexed":false,"internalType":"uint256","name":"bountyId","type":"uint256"},{"indexed":false,"internalType":"uint256","name":"submissionId","type":"uint256"},{"indexed":false,"internalType":"address","name":"creator","type":"address"},{"indexed":false,"internalType":"uint256","name":"amount","type":"uint256"}],"name":"BountyCreated","type":"event"},{"anonymous":false,"inputs":[{"indexed":false,"internalType":"address","name":"recipient","type":"address"},{"indexed":false,"internalType":"uint256","name":"amount","type":"uint256"}],"name":"BountyPaid","type":"event"},{"inputs":[],"name":"AutomationContractAddress","outputs":[{"internalType":"address","name":"","type":"address"}],"stateMutability":"view","type":"function"},{"inputs":[{"internalType":"uint256","name":"_submissionId","type":"uint256"}],"name":"GetPostSubmissionBounties","outputs":[{"internalType":"uint256[]","name":"","type":"uint256[]"}],"stateMutability":"view","type":"function"},{"inputs":[{"internalType":"uint256","name":"","type":"uint256"}],"name":"bounties","outputs":[{"internalType":"uint256","name":"bountyAmount","type":"uint256"},{"internalType":"address","name":"bountyCreator","type":"address"},{"internalType":"bool","name":"bountyPaid","type":"bool"}],"stateMutability":"view","type":"function"},{"inputs":[],"name":"bountiesId","outputs":[{"internalType":"uint256","name":"","type":"uint256"}],"stateMutability":"view","type":"function"},{"inputs":[{"components":[{"internalType":"uint256","name":"index","type":"uint256"},{"internalType":"uint256","name":"timestamp","type":"uint256"},{"internalType":"bytes32","name":"txHash","type":"bytes32"},{"internalType":"uint256","name":"blockNumber","type":"uint256"},{"internalType":"bytes32","name":"blockHash","type":"bytes32"},{"internalType":"address","name":"source","type":"address"},{"internalType":"bytes32[]","name":"topics","type":"bytes32[]"},{"internalType":"bytes","name":"data","type":"bytes"}],"internalType":"struct Log","name":"log","type":"tuple"},{"internalType":"bytes","name":"","type":"bytes"}],"name":"checkLog","outputs":[{"internalType":"bool","name":"upkeepNeeded","type":"bool"},{"internalType":"bytes","name":"performData","type":"bytes"}],"stateMutability":"view","type":"function"},{"inputs":[{"internalType":"uint256","name":"_submissionId","type":"uint256"}],"name":"createBounty","outputs":[{"internalType":"uint256","name":"","type":"uint256"}],"stateMutability":"payable","type":"function"},{"inputs":[],"name":"fee","outputs":[{"internalType":"uint256","name":"","type":"uint256"}],"stateMutability":"view","type":"function"},{"inputs":[{"internalType":"uint256","name":"_submissionId","type":"uint256"}],"name":"manualUpkeep","outputs":[],"stateMutability":"nonpayable","type":"function"},{"inputs":[],"name":"owner","outputs":[{"internalType":"address","name":"","type":"address"}],"stateMutability":"view","type":"function"},{"inputs":[{"internalType":"bytes","name":"_performData","type":"bytes"}],"name":"performUpkeep","outputs":[],"stateMutability":"nonpayable","type":"function"},{"inputs":[{"internalType":"uint256","name":"","type":"uint256"},{"internalType":"uint256","name":"","type":"uint256"}],"name":"postSubmissionBounties","outputs":[{"internalType":"uint256","name":"","type":"uint256"}],"stateMutability":"view","type":"function"},{"inputs":[{"internalType":"address","name":"_AutomationContractAddress","type":"address"}],"name":"setAutomationContractAddress","outputs":[],"stateMutability":"nonpayable","type":"function"},{"inputs":[{"internalType":"uint256","name":"_fee","type":"uint256"}],"name":"setFee","outputs":[],"stateMutability":"nonpayable","type":"function"},{"inputs":[{"internalType":"address","name":"_tgetherCommunityConsensusAddress","type":"address"}],"name":"setTgetherCommunityConsensusAddress","outputs":[],"stateMutability":"nonpayable","type":"function"},{"inputs":[{"internalType":"address","name":"_tgetherFundAddress","type":"address"}],"name":"setTgetherFundAddress","outputs":[],"stateMutability":"nonpayable","type":"function"},{"inputs":[{"internalType":"address","name":"_tgetherIncentivesAddress","type":"address"}],"name":"setTgetherIncentivesAddress","outputs":[],"stateMutability":"nonpayable","type":"function"},{"inputs":[{"internalType":"address","name":"_tgetherPostConsensusAddress","type":"address"}],"name":"setTgetherPostConsensusAddress","outputs":[],"stateMutability":"nonpayable","type":"function"},{"inputs":[],"name":"tgetherCommunityConsensusContract","outputs":[{"internalType":"contract tgetherCommunityConsensusInterface","name":"","type":"address"}],"stateMutability":"view","type":"function"},{"inputs":[],"name":"tgetherFundContract","outputs":[{"internalType":"contract tgetherFundInterface","name":"","type":"address"}],"stateMutability":"view","type":"function"},{"inputs":[],"name":"tgetherIncentivesContract","outputs":[{"internalType":"contract tgetherIncentivesInterface","name":"","type":"address"}],"stateMutability":"view","type":"function"},{"inputs":[],"name":"tgetherPostConsensusContract","outputs":[{"internalType":"contract tgetherPostConsensusInterface","name":"","type":"address"}],"stateMutability":"view","type":"function"}],"evm":{"bytecode":{"linkReferences":{},"object":"608034620000e357601f6200200c38819003918201601f19168301916001600160401b03831184841017620000e75780849260a094604052833981010312620000e3576200004d81620000fb565b906200005c60208201620000fb565b906200006b60408201620000fb565b9060806200007c60608301620000fb565b9101519260015f5560018060a01b03928380928160018060a01b031998168860045416176004551686600554161760055516846006541617600655168260075416176007556009553390600a541617600a556001600355604051611efb9081620001118239f35b5f80fd5b634e487b7160e01b5f52604160045260245ffd5b51906001600160a01b0382168203620000e35756fe60a0604081815260049182361015610015575f80fd5b5f92833560e01c9182630ee1bd2514610c0a575081631e28b1c814610be157816324c328f214610bb85781632bf2f01a14610b6b57816337b308ac14610af45781633f28e9fb146105ff57816340691db4146105045781634585e33b146104015781634c87e49b146103d85781634db9e2071461039457816369fe0e2d146103655781638547cb8c146103465781638da5cb5b1461031d578163a383135e146102d0578163ac7f3d7b14610283578163b31926f414610236578163b9935ac31461020e578163bab488be146101c1578163c4ba65bb14610178578163dc2f87441461012a575063ddca3f4314610109575f80fd5b346101265781600319360112610126576020906009549051908152f35b5080fd5b9050346101745760203660031901126101745760609282913581526001602052209060ff60018354930154825193845260018060a01b038116602085015260a01c16151590820152f35b8280fd5b8284346101be57816003193601126101be576024359235815260026020528181209081548410156101be57506020926101b091610d4d565b91905490519160031b1c8152f35b80fd5b83903461012657602036600319011261012657356001600160a01b0381811691829003610174576101f790600a54163314611e6e565b600580546001600160a01b03191691909117905580f35b9050346101745782600319360112610174575490516001600160a01b03909116815260209150f35b83903461012657602036600319011261012657356001600160a01b03818116918290036101745761026c90600a54163314611e6e565b600680546001600160a01b03191691909117905580f35b83903461012657602036600319011261012657356001600160a01b0381811691829003610174576102b990600a54163314611e6e565b600880546001600160a01b03191691909117905580f35b8390346101265760203660031901126101265780356001600160a01b03818116918290036103195761030790600a54163314611e6e565b81546001600160a01b03191617905580f35b8380fd5b505034610126578160031936011261012657600a5490516001600160a01b039091168152602090f35b5050346101265781600319360112610126576020906003549051908152f35b8390346101265760203660031901126101265761038d60018060a01b03600a54163314611e6e565b3560095580f35b839034610126576020366003190112610126576103b9906103b3611979565b35610f29565b6080516103c9575b506001815580f35b6103d2906119cd565b816103c1565b50503461012657816003193601126101265760055490516001600160a01b039091168152602090f35b91905034610174576020366003190112610174578135916001600160401b03918284116105005736602385011215610500578382013592831161050057366024848601011161050057600a54336001600160a01b03918216149081156104f2575b501561048f57846104886104838686610479611979565b6024369201610ccd565b6119cd565b6001815580f35b906020608492519162461bcd60e51b8352820152603760248201527f4e6f742074686520636f6e7472616374206f776e6572206f72204175746f6d616044820152761d1a5bdb88119bdc9dd85c99195c8810dbdb9d1c9858dd604a1b6064820152fd5b90506008541633145f610462565b8480fd5b83915034610126576003199183833601126101be578135916001600160401b03908184116101745761010084360395860112610174576024358281116103195736602382011215610319576105629036906024818501359101610ccd565b50829460609460c4810135916022190182121561050057019181830135908111610319578060051b3603602484011361031957600110156105ec575060448591013591828152600260205220546105d4575b506105d090835193849315158452806020850152830190610d28565b0390f35b90506105e09150610f29565b608051906105d06105b4565b634e487b7160e01b835260329052602482fd5b8383602092836003193601126101745760055482516375243d4960e11b8152823581840181905294602493909290916001600160a01b039182169088818781855afa908115610998578591610ac7575b5083811015610ab457600103610a72578160075416865163755e66db60e11b90818152898682015286818981875afa908115610a4e576106b5949392918a918991610a58575b508c8251968792839263bac4cd0760e01b84528b8401528c830190610d28565b0381855afa938415610a4e578794610a1e575b506106d66009549485610e26565b3411156109d0578690888a518095819382528d8a8301525afa9182156109c657918a916107249388926109a2575b508951808095819463cc271aa360e01b8352868b8401528c830190610d28565b03915afa908115610998578591610963575b501561090e57878284541686885180948193633de5599d60e11b835230898401525af19081156109045784916108cf575b50156108955761077960095434610e54565b85519061078582610c62565b8152878101913383526001878301928684526003548752818b52888720905181550192511682549160ff60a01b9051151560a01b169160018060a81b03191617179055848252600286528382209460035495805490600160401b82101561088257816107fa91600161085b9594018155610d4d565b81549060031b905f19809a831b921b19161790557f555a6ec1bcab187d5c03bcc543a554016e038bf7fb4313e551f96c155889418d60806003549261084160095434610e54565b8951918583528c830152338a8301526060820152a1610e61565b948560035585019485116108725750505051908152f35b634e487b7160e01b825260119052fd5b5050634e487b7160e01b83525060419052fd5b845162461bcd60e51b815280830188905260158186015274155c1ad9595c08199d5b991a5b99c819985a5b1959605a1b6044820152606490fd5b90508781813d83116108fd575b6108e68183610c91565b81010312610319576108f790610e47565b88610767565b503d6108dc565b86513d86823e3d90fd5b855162461bcd60e51b8152808401899052602a818701527f436f6d6d756e697479206d757374206861766520616e20696e63656e746976656044820152692073747275637475726560b01b6064820152608490fd5b90508881813d8311610991575b61097a8183610c91565b810103126105005761098b90610e47565b89610736565b503d610970565b87513d87823e3d90fd5b6109bf9192503d808a833e6109b78183610c91565b810190610dd3565b908c610704565b88513d88823e3d90fd5b885162461bcd60e51b81528087018c90526023818a01527f466565206d757374206265207061696420746f20637265617465206120626f756044820152626e747960e81b6064820152608490fd5b610a3f919450893d8b11610a47575b610a378183610c91565b810190610e0c565b50928b6106c8565b503d610a2d565b89513d89823e3d90fd5b610a6c91503d808b833e6109b78183610c91565b8d610695565b855162461bcd60e51b8152808401899052601e818701527f506f7374206d7573742062652070656e64696e6720636f6e73656e73757300006044820152606490fd5b5050634e487b7160e01b83525060219052fd5b610ae79150893d8b11610aed575b610adf8183610c91565b810190610d76565b8961064f565b503d610ad5565b9190503461017457602091826003193601126103195735835260028252808320815190819485928583549182815201928252858220915b86828210610b545785906105d088610b4584890385610c91565b51928284938452830190610c2f565b835485528895509093019260019283019201610b2b565b83903461012657602036600319011261012657356001600160a01b038181169182900361017457610ba190600a54163314611e6e565b600780546001600160a01b03191691909117905580f35b50503461012657816003193601126101265760085490516001600160a01b039091168152602090f35b50503461012657816003193601126101265760075490516001600160a01b039091168152602090f35b8490346101265781600319360112610126576006546001600160a01b03168152602090f35b9081518082526020808093019301915f5b828110610c4e575050505090565b835185529381019392810192600101610c40565b606081019081106001600160401b03821117610c7d57604052565b634e487b7160e01b5f52604160045260245ffd5b90601f801991011681019081106001600160401b03821117610c7d57604052565b6001600160401b038111610c7d57601f01601f191660200190565b929192610cd982610cb2565b91610ce76040519384610c91565b829481845281830111610d03578281602093845f960137010152565b5f80fd5b5f5b838110610d185750505f910152565b8181015183820152602001610d09565b90602091610d4181518092818552858086019101610d07565b601f01601f1916010190565b8054821015610d62575f5260205f2001905f90565b634e487b7160e01b5f52603260045260245ffd5b90816020910312610d0357516004811015610d035790565b81601f82011215610d03578051610da481610cb2565b92610db26040519485610c91565b81845260208284010111610d0357610dd09160208085019101610d07565b90565b90602082820312610d035781516001600160401b038111610d0357610dd09201610d8e565b51906001600160a01b0382168203610d0357565b9190826040910312610d0357610dd0602083519301610df8565b91908201809211610e3357565b634e487b7160e01b5f52601160045260245ffd5b51908115158203610d0357565b91908203918211610e3357565b5f198114610e335760010190565b6001600160401b038111610c7d5760051b60200190565b90610e9082610e6f565b610e9d6040519182610c91565b8281528092610eae601f1991610e6f565b0190602036910137565b8051821015610d625760209160051b010190565b939291606085019160608652805180935260808601926020809201905f5b818110610f0c5750505085830390860152604091610f0791610c2f565b930152565b82516001600160a01b031686529483019491830191600101610eea565b5f608052805f52600260205260405f2090604051808360208295549384815201905f5260205f20925f5b8181106116c3575050610f6892500383610c91565b81511561169b57600160805260055460405163755e66db60e11b8152600481018390526001600160a01b039091169390925f84602481885afa938415611207575f9461167f575b50600654604051632691798960e01b815260206004820152949060609086906001600160a01b03168180610fe66024820187610d28565b03915afa938415611207575f955f95611644575b50604051636c79bd2b60e01b8152600481018290525f816024818b5afa908115611207575f91611607575b506110308151610e86565b9361103b8251610e86565b925f965f955f985b608051156115f35785518a1015611212578c5f6110608c89610eb8565b51602460405180948193634c82c0db60e11b835260048301525afa908115611207575f91611115575b5060a081015115801590611108575b6110fd5760408101516002036110d757516110d1916110ca916001600160a01b03166110c4828d610eb8565b52610e61565b995b610e61565b98611043565b519099976110d1916110f791906001600160a01b03166110c4828b610eb8565b97610e61565b50986110d190610e61565b508b608082015110611098565b90503d805f833e6111268183610c91565b6020828281010312610d03578151906001600160401b038211610d035760c08284018285010312610d0357604051928360c08101106001600160401b0360c086011117610c7d5760c0840160405261117f838201610df8565b8452602083820101516001600160401b038111610d03576111a7908383019085840101610d8e565b60208501528083016040818101519086015260600151916001600160401b038311610d03576111fd926111e09183019085840101610d8e565b606085015260808382010151608085015260a09283910101610e47565b908201525f611089565b6040513d5f823e3d90fd5b97939b5097509750979386925088935b61122b87610e86565b9661123583610e86565b935f5b8281106115b9575050505f5b82811061157f575050506112579461173a565b805190816113ad5750505061126c8351610e86565b906112778451610e86565b5f915f5b608051156113a2578651811015611318576112968188610eb8565b515f5260805160205260405f20604051906112b082610c62565b8054825260805101546001600160a01b0381166020830181905260a09190911c60ff1615801560408401526112f0575b50506112eb90610e61565b61127b565b94611310916112eb9396611304838a610eb8565b52516110c48287610eb8565b93905f6112e0565b5094509192905b61132881610e86565b9261133282610e86565b945f5b838110611365575050505090611357610dd09260405194859360208501610ecc565b03601f198101835282610c91565b61139d906001600160a01b0361137b8285610eb8565b51166113878289610eb8565b526113928185610eb8565b516110c4828a610eb8565b611335565b50945091929061131f565b9093929194505f92805f52600260205260405f2092604051808560208297549384815201905f5260205f20925f5b8181106115655750506113f092500385610c91565b5f5b608051156115535784518110156114775761140d8186610eb8565b515f5260805160205260405f2060405161142681610c62565b60ff825492838352608051015460018060a01b038116602084015260a01c16159060408215910152611462575b5061145d90610e61565b6113f2565b6114709061145d9297610e26565b9590611453565b50939094925060406114b292965b60018060a01b03600754168251808096819463bac4cd0760e01b8352602060048401526024830190610d28565b03915afa908115611207576114ce925f92611531575b50610e54565b04906114da8451610e86565b935f5b6080511561151f5781518110156115025780846110c46114fd9389610eb8565b6114dd565b50909392610dd09250611357905b60405194859360208501610ecc565b50909392610dd0925061135790611510565b61154b91925060403d604011610a4757610a378183610c91565b50905f6114c8565b50939094925060406114b29296611485565b8454835260805194850194899450602090930192016113db565b95969295929450909250906115ac906001600160a01b036115a08285610eb8565b51166110c48288610eb8565b9188939594918793611244565b909294979896506115e49193955060018060a01b036115d88285610eb8565b51166110c48289610eb8565b918a9597969391899593611238565b97939b509750975097938692508893611222565b90503d805f833e6116188183610c91565b8101602082820312610d035781516001600160401b038111610d035761163e92016116dc565b5f611025565b955093506060853d606011611677575b8161166160609383610c91565b81010312610d035760208551950151935f610ffa565b3d9150611654565b6116949194503d805f833e6109b78183610c91565b925f610faf565b50505f608052604051602081018181106001600160401b03821117610c7d576040525f815290565b8454835260019485019487945060209093019201610f53565b81601f82011215610d03578051916116f383610e6f565b926117016040519485610c91565b808452602092838086019260051b820101928311610d03578301905b82821061172b575050505090565b8151815290830190830161171d565b9290949360609060018060a01b0393846007541691604051948593630436ff8960e21b85526020948591818061177b600498868a8401526024830190610d28565b03915afa958615611207575f9661193f575b50838760055416916024604051809481936375243d4960e11b8352888301525afa938415611207575f94611920575b50506117cb87518a5190610e26565b9482841015918261190d5784159081156118ff575b81156118f5575b506118e95760028110156118d6578061187257505050505061180890610e86565b915f5b815181101561183457808361182361182f9385610eb8565b51166110c48287610eb8565b61180b565b5091935f5b815181101561186c5780836118516118679385610eb8565b51166110c4611861838851610e26565b89610eb8565b611839565b50505050565b909294506001919396979895501461188e575b50505050905090565b6118c35750600281036118a9575050505b805f808080611885565b600391929350146118bb575b5061189f565b90505f6118b5565b602190634e487b7160e01b5f525260245ffd5b602183634e487b7160e01b5f525260245ffd5b50929750505050505050565b905086105f6117e7565b5f93506001861491506117e0565b602184634e487b7160e01b5f525260245ffd5b611937929450803d10610aed57610adf8183610c91565b915f806117bc565b8481819893983d8311611972575b6119578183610c91565b8101031261012657519060028210156101be5750945f61178d565b503d61194d565b60025f54146119885760025f55565b60405162461bcd60e51b815260206004820152601f60248201527f5265656e7472616e637947756172643a207265656e7472616e742063616c6c006044820152606490fd5b9081518201916020606082828601950312610d035780820151936001600160401b0394858111610d035783019080603f83011215610d03578282015195611a1387610e6f565b92604097611a2389519586610c91565b808552888686019160051b83010191848311610d035789879101915b838310611d5c575050505086850151908111610d035760609184611a65928701016116dc565b930151938151845103611d025794849560018060a01b039360248186600554168551928380926375243d4960e11b825260049d8e8301525afa908115611cf8575f91611cdb575b5088811015611cc85760028114908115611cbd575b5015611c71575f5b8451811015611afc57806110cc87611ae4611af79489610eb8565b5116611af0838b610eb8565b5190611d74565b611ac9565b50945094929150602481965f846005541684519384809263755e66db60e11b825289868301525afa918215611c6757611b5e9487915f94611c4c575b50600754169184519586948593849363bac4cd0760e01b85528401526024830190610d28565b03915afa908115611c42575f908192611c22575b5080611c12575b50505f5260028152825f209280518085848297549384815201905f52845f20925f5b86828210611bfc57505050611bb292500385610c91565b5f5b8451811015611bf55780611bcb611bf09287610eb8565b515f90815260018086529084902001805460ff60a01b1916600160a01b179055610e61565b611bb4565b5050509050565b855484526001958601958a955093019201611b9b565b611c1b91611d74565b5f80611b79565b9050611c3b9150853d8711610a4757610a378183610c91565b905f611b72565b85513d5f823e3d90fd5b611c6091943d8091833e6109b78183610c91565b925f611b38565b83513d5f823e3d90fd5b8760849184519162461bcd60e51b8352820152602160248201527f506f7374206d757374206265206163636570746564206f722072656a656374656044820152601960fa1b6064820152fd5b60039150145f611ac1565b602189634e487b7160e01b5f525260245ffd5b611cf29150823d8411610aed57610adf8183610c91565b5f611aac565b84513d5f823e3d90fd5b855162461bcd60e51b815260048101849052602d60248201527f41646472657373657320616e6420616d6f756e7473206d75737420626520746860448201526c0ca40e6c2daca40d8cadccee8d609b1b6064820152608490fd5b8190611d6784610df8565b8152019101908690611a3f565b908015611e2a575f80808084865af13d15611e25573d611d9381610cb2565b90611da16040519283610c91565b81525f60203d92013e5b15611dee57604080516001600160a01b03909316835260208301919091527f31dd4c1bc893bd53887b59c36c1a1b9f60960fa64c231ad0cd3603a1914bda3591a1565b60405162461bcd60e51b815260206004820152600f60248201526e151c985b9cd9995c8819985a5b1959608a1b6044820152606490fd5b611dab565b606460405162461bcd60e51b815260206004820152602060248201527f416d6f756e74206d7573742062652067726561746572207468616e207a65726f6044820152fd5b15611e7557565b60405162461bcd60e51b815260206004820152602260248201527f4f6e6c79206f776e65722063616e20706572666f726d2074686973206163746960448201526137b760f11b6064820152608490fdfea2646970667358221220cb06602a1396eab2d8590cc9a935feef9e5bdbd3f2f2478ca536ebfac1f8eba364736f6c63430008140033","opcodes":"PUSH1 0x80 CALLVALUE PUSH3 0xE3 JUMPI PUSH1 0x1F PUSH3 0x200C CODESIZE DUP2 SWAP1 SUB SWAP2 DUP3 ADD PUSH1 0x1F NOT AND DUP4 ADD SWAP2 PUSH1 0x1 PUSH1 0x1 PUSH1 0x40 SHL SUB DUP4 GT DUP5 DUP5 LT OR PUSH3 0xE7 JUMPI DUP1 DUP5 SWAP3 PUSH1 0xA0 SWAP5 PUSH1 0x40 MSTORE DUP4 CODECOPY DUP2 ADD SUB SLT PUSH3 0xE3 JUMPI PUSH3 0x4D DUP2 PUSH3 0xFB JUMP JUMPDEST SWAP1 PUSH3 0x5C PUSH1 0x20 DUP3 ADD PUSH3 0xFB JUMP JUMPDEST SWAP1 PUSH3 0x6B PUSH1 0x40 DUP3 ADD PUSH3 0xFB JUMP JUMPDEST SWAP1 PUSH1 0x80 PUSH3 0x7C PUSH1 0x60 DUP4 ADD PUSH3 0xFB JUMP JUMPDEST SWAP2 ADD MLOAD SWAP3 PUSH1 0x1 PUSH0 SSTORE PUSH1 0x1 DUP1 PUSH1 0xA0 SHL SUB SWAP3 DUP4 DUP1 SWAP3 DUP2 PUSH1 0x1 DUP1 PUSH1 0xA0 SHL SUB NOT SWAP9 AND DUP9 PUSH1 0x4 SLOAD AND OR PUSH1 0x4 SSTORE AND DUP7 PUSH1 0x5 SLOAD AND OR PUSH1 0x5 SSTORE AND DUP5 PUSH1 0x6 SLOAD AND OR PUSH1 0x6 SSTORE AND DUP3 PUSH1 0x7 SLOAD AND OR PUSH1 0x7 SSTORE PUSH1 0x9 SSTORE CALLER SWAP1 PUSH1 0xA SLOAD AND OR PUSH1 0xA SSTORE PUSH1 0x1 PUSH1 0x3 SSTORE PUSH1 0x40 MLOAD PUSH2 0x1EFB SWAP1 DUP2 PUSH3 0x111 DUP3 CODECOPY RETURN JUMPDEST PUSH0 DUP1 REVERT JUMPDEST PUSH4 0x4E487B71 PUSH1 0xE0 SHL PUSH0 MSTORE PUSH1 0x41 PUSH1 0x4 MSTORE PUSH1 0x24 PUSH0 REVERT JUMPDEST MLOAD SWAP1 PUSH1 0x1 PUSH1 0x1 PUSH1 0xA0 SHL SUB DUP3 AND DUP3 SUB PUSH3 0xE3 JUMPI JUMP INVALID PUSH1 0xA0 PUSH1 0x40 DUP2 DUP2 MSTORE PUSH1 0x4 SWAP2 DUP3 CALLDATASIZE LT ISZERO PUSH2 0x15 JUMPI PUSH0 DUP1 REVERT JUMPDEST PUSH0 SWAP3 DUP4 CALLDATALOAD PUSH1 0xE0 SHR SWAP2 DUP3 PUSH4 0xEE1BD25 EQ PUSH2 0xC0A JUMPI POP DUP2 PUSH4 0x1E28B1C8 EQ PUSH2 0xBE1 JUMPI DUP2 PUSH4 0x24C328F2 EQ PUSH2 0xBB8 JUMPI DUP2 PUSH4 0x2BF2F01A EQ PUSH2 0xB6B JUMPI DUP2 PUSH4 0x37B308AC EQ PUSH2 0xAF4 JUMPI DUP2 PUSH4 0x3F28E9FB EQ PUSH2 0x5FF JUMPI DUP2 PUSH4 0x40691DB4 EQ PUSH2 0x504 JUMPI DUP2 PUSH4 0x4585E33B EQ PUSH2 0x401 JUMPI DUP2 PUSH4 0x4C87E49B EQ PUSH2 0x3D8 JUMPI DUP2 PUSH4 0x4DB9E207 EQ PUSH2 0x394 JUMPI DUP2 PUSH4 0x69FE0E2D EQ PUSH2 0x365 JUMPI DUP2 PUSH4 0x8547CB8C EQ PUSH2 0x346 JUMPI DUP2 PUSH4 0x8DA5CB5B EQ PUSH2 0x31D JUMPI DUP2 PUSH4 0xA383135E EQ PUSH2 0x2D0 JUMPI DUP2 PUSH4 0xAC7F3D7B EQ PUSH2 0x283 JUMPI DUP2 PUSH4 0xB31926F4 EQ PUSH2 0x236 JUMPI DUP2 PUSH4 0xB9935AC3 EQ PUSH2 0x20E JUMPI DUP2 PUSH4 0xBAB488BE EQ PUSH2 0x1C1 JUMPI DUP2 PUSH4 0xC4BA65BB EQ PUSH2 0x178 JUMPI DUP2 PUSH4 0xDC2F8744 EQ PUSH2 0x12A JUMPI POP PUSH4 0xDDCA3F43 EQ PUSH2 0x109 JUMPI PUSH0 DUP1 REVERT JUMPDEST CALLVALUE PUSH2 0x126 JUMPI DUP2 PUSH1 0x3 NOT CALLDATASIZE ADD SLT PUSH2 0x126 JUMPI PUSH1 0x20 SWAP1 PUSH1 0x9 SLOAD SWAP1 MLOAD SWAP1 DUP2 MSTORE RETURN JUMPDEST POP DUP1 REVERT JUMPDEST SWAP1 POP CALLVALUE PUSH2 0x174 JUMPI PUSH1 0x20 CALLDATASIZE PUSH1 0x3 NOT ADD SLT PUSH2 0x174 JUMPI PUSH1 0x60 SWAP3 DUP3 SWAP2 CALLDATALOAD DUP2 MSTORE PUSH1 0x1 PUSH1 0x20 MSTORE KECCAK256 SWAP1 PUSH1 0xFF PUSH1 0x1 DUP4 SLOAD SWAP4 ADD SLOAD DUP3 MLOAD SWAP4 DUP5 MSTORE PUSH1 0x1 DUP1 PUSH1 0xA0 SHL SUB DUP2 AND PUSH1 0x20 DUP6 ADD MSTORE PUSH1 0xA0 SHR AND ISZERO ISZERO SWAP1 DUP3 ADD MSTORE RETURN JUMPDEST DUP3 DUP1 REVERT JUMPDEST DUP3 DUP5 CALLVALUE PUSH2 0x1BE JUMPI DUP2 PUSH1 0x3 NOT CALLDATASIZE ADD SLT PUSH2 0x1BE JUMPI PUSH1 0x24 CALLDATALOAD SWAP3 CALLDATALOAD DUP2 MSTORE PUSH1 0x2 PUSH1 0x20 MSTORE DUP2 DUP2 KECCAK256 SWAP1 DUP2 SLOAD DUP5 LT ISZERO PUSH2 0x1BE JUMPI POP PUSH1 0x20 SWAP3 PUSH2 0x1B0 SWAP2 PUSH2 0xD4D JUMP JUMPDEST SWAP2 SWAP1 SLOAD SWAP1 MLOAD SWAP2 PUSH1 0x3 SHL SHR DUP2 MSTORE RETURN JUMPDEST DUP1 REVERT JUMPDEST DUP4 SWAP1 CALLVALUE PUSH2 0x126 JUMPI PUSH1 0x20 CALLDATASIZE PUSH1 0x3 NOT ADD SLT PUSH2 0x126 JUMPI CALLDATALOAD PUSH1 0x1 PUSH1 0x1 PUSH1 0xA0 SHL SUB DUP2 DUP2 AND SWAP2 DUP3 SWAP1 SUB PUSH2 0x174 JUMPI PUSH2 0x1F7 SWAP1 PUSH1 0xA SLOAD AND CALLER EQ PUSH2 0x1E6E JUMP JUMPDEST PUSH1 0x5 DUP1 SLOAD PUSH1 0x1 PUSH1 0x1 PUSH1 0xA0 SHL SUB NOT AND SWAP2 SWAP1 SWAP2 OR SWAP1 SSTORE DUP1 RETURN JUMPDEST SWAP1 POP CALLVALUE PUSH2 0x174 JUMPI DUP3 PUSH1 0x3 NOT CALLDATASIZE ADD SLT PUSH2 0x174 JUMPI SLOAD SWAP1 MLOAD PUSH1 0x1 PUSH1 0x1 PUSH1 0xA0 SHL SUB SWAP1 SWAP2 AND DUP2 MSTORE PUSH1 0x20 SWAP2 POP RETURN JUMPDEST DUP4 SWAP1 CALLVALUE PUSH2 0x126 JUMPI PUSH1 0x20 CALLDATASIZE PUSH1 0x3 NOT ADD SLT PUSH2 0x126 JUMPI CALLDATALOAD PUSH1 0x1 PUSH1 0x1 PUSH1 0xA0 SHL SUB DUP2 DUP2 AND SWAP2 DUP3 SWAP1 SUB PUSH2 0x174 JUMPI PUSH2 0x26C SWAP1 PUSH1 0xA SLOAD AND CALLER EQ PUSH2 0x1E6E JUMP JUMPDEST PUSH1 0x6 DUP1 SLOAD PUSH1 0x1 PUSH1 0x1 PUSH1 0xA0 SHL SUB NOT AND SWAP2 SWAP1 SWAP2 OR SWAP1 SSTORE DUP1 RETURN JUMPDEST DUP4 SWAP1 CALLVALUE PUSH2 0x126 JUMPI PUSH1 0x20 CALLDATASIZE PUSH1 0x3 NOT ADD SLT PUSH2 0x126 JUMPI CALLDATALOAD PUSH1 0x1 PUSH1 0x1 PUSH1 0xA0 SHL SUB DUP2 DUP2 AND SWAP2 DUP3 SWAP1 SUB PUSH2 0x174 JUMPI PUSH2 0x2B9 SWAP1 PUSH1 0xA SLOAD AND CALLER EQ PUSH2 0x1E6E JUMP JUMPDEST PUSH1 0x8 DUP1 SLOAD PUSH1 0x1 PUSH1 0x1 PUSH1 0xA0 SHL SUB NOT AND SWAP2 SWAP1 SWAP2 OR SWAP1 SSTORE DUP1 RETURN JUMPDEST DUP4 SWAP1 CALLVALUE PUSH2 0x126 JUMPI PUSH1 0x20 CALLDATASIZE PUSH1 0x3 NOT ADD SLT PUSH2 0x126 JUMPI DUP1 CALLDATALOAD PUSH1 0x1 PUSH1 0x1 PUSH1 0xA0 SHL SUB DUP2 DUP2 AND SWAP2 DUP3 SWAP1 SUB PUSH2 0x319 JUMPI PUSH2 0x307 SWAP1 PUSH1 0xA SLOAD AND CALLER EQ PUSH2 0x1E6E JUMP JUMPDEST DUP2 SLOAD PUSH1 0x1 PUSH1 0x1 PUSH1 0xA0 SHL SUB NOT AND OR SWAP1 SSTORE DUP1 RETURN JUMPDEST DUP4 DUP1 REVERT JUMPDEST POP POP CALLVALUE PUSH2 0x126 JUMPI DUP2 PUSH1 0x3 NOT CALLDATASIZE ADD SLT PUSH2 0x126 JUMPI PUSH1 0xA SLOAD SWAP1 MLOAD PUSH1 0x1 PUSH1 0x1 PUSH1 0xA0 SHL SUB SWAP1 SWAP2 AND DUP2 MSTORE PUSH1 0x20 SWAP1 RETURN JUMPDEST POP POP CALLVALUE PUSH2 0x126 JUMPI DUP2 PUSH1 0x3 NOT CALLDATASIZE ADD SLT PUSH2 0x126 JUMPI PUSH1 0x20 SWAP1 PUSH1 0x3 SLOAD SWAP1 MLOAD SWAP1 DUP2 MSTORE RETURN JUMPDEST DUP4 SWAP1 CALLVALUE PUSH2 0x126 JUMPI PUSH1 0x20 CALLDATASIZE PUSH1 0x3 NOT ADD SLT PUSH2 0x126 JUMPI PUSH2 0x38D PUSH1 0x1 DUP1 PUSH1 0xA0 SHL SUB PUSH1 0xA SLOAD AND CALLER EQ PUSH2 0x1E6E JUMP JUMPDEST CALLDATALOAD PUSH1 0x9 SSTORE DUP1 RETURN JUMPDEST DUP4 SWAP1 CALLVALUE PUSH2 0x126 JUMPI PUSH1 0x20 CALLDATASIZE PUSH1 0x3 NOT ADD SLT PUSH2 0x126 JUMPI PUSH2 0x3B9 SWAP1 PUSH2 0x3B3 PUSH2 0x1979 JUMP JUMPDEST CALLDATALOAD PUSH2 0xF29 JUMP JUMPDEST PUSH1 0x80 MLOAD PUSH2 0x3C9 JUMPI JUMPDEST POP PUSH1 0x1 DUP2 SSTORE DUP1 RETURN JUMPDEST PUSH2 0x3D2 SWAP1 PUSH2 0x19CD JUMP JUMPDEST DUP2 PUSH2 0x3C1 JUMP JUMPDEST POP POP CALLVALUE PUSH2 0x126 JUMPI DUP2 PUSH1 0x3 NOT CALLDATASIZE ADD SLT PUSH2 0x126 JUMPI PUSH1 0x5 SLOAD SWAP1 MLOAD PUSH1 0x1 PUSH1 0x1 PUSH1 0xA0 SHL SUB SWAP1 SWAP2 AND DUP2 MSTORE PUSH1 0x20 SWAP1 RETURN JUMPDEST SWAP2 SWAP1 POP CALLVALUE PUSH2 0x174 JUMPI PUSH1 0x20 CALLDATASIZE PUSH1 0x3 NOT ADD SLT PUSH2 0x174 JUMPI DUP2 CALLDATALOAD SWAP2 PUSH1 0x1 PUSH1 0x1 PUSH1 0x40 SHL SUB SWAP2 DUP3 DUP5 GT PUSH2 0x500 JUMPI CALLDATASIZE PUSH1 0x23 DUP6 ADD SLT ISZERO PUSH2 0x500 JUMPI DUP4 DUP3 ADD CALLDATALOAD SWAP3 DUP4 GT PUSH2 0x500 JUMPI CALLDATASIZE PUSH1 0x24 DUP5 DUP7 ADD ADD GT PUSH2 0x500 JUMPI PUSH1 0xA SLOAD CALLER PUSH1 0x1 PUSH1 0x1 PUSH1 0xA0 SHL SUB SWAP2 DUP3 AND EQ SWAP1 DUP2 ISZERO PUSH2 0x4F2 JUMPI JUMPDEST POP ISZERO PUSH2 0x48F JUMPI DUP5 PUSH2 0x488 PUSH2 0x483 DUP7 DUP7 PUSH2 0x479 PUSH2 0x1979 JUMP JUMPDEST PUSH1 0x24 CALLDATASIZE SWAP3 ADD PUSH2 0xCCD JUMP JUMPDEST PUSH2 0x19CD JUMP JUMPDEST PUSH1 0x1 DUP2 SSTORE DUP1 RETURN JUMPDEST SWAP1 PUSH1 0x20 PUSH1 0x84 SWAP3 MLOAD SWAP2 PUSH3 0x461BCD PUSH1 0xE5 SHL DUP4 MSTORE DUP3 ADD MSTORE PUSH1 0x37 PUSH1 0x24 DUP3 ADD MSTORE PUSH32 0x4E6F742074686520636F6E7472616374206F776E6572206F72204175746F6D61 PUSH1 0x44 DUP3 ADD MSTORE PUSH23 0x1D1A5BDB88119BDC9DD85C99195C8810DBDB9D1C9858DD PUSH1 0x4A SHL PUSH1 0x64 DUP3 ADD MSTORE REVERT JUMPDEST SWAP1 POP PUSH1 0x8 SLOAD AND CALLER EQ PUSH0 PUSH2 0x462 JUMP JUMPDEST DUP5 DUP1 REVERT JUMPDEST DUP4 SWAP2 POP CALLVALUE PUSH2 0x126 JUMPI PUSH1 0x3 NOT SWAP2 DUP4 DUP4 CALLDATASIZE ADD SLT PUSH2 0x1BE JUMPI DUP2 CALLDATALOAD SWAP2 PUSH1 0x1 PUSH1 0x1 PUSH1 0x40 SHL SUB SWAP1 DUP2 DUP5 GT PUSH2 0x174 JUMPI PUSH2 0x100 DUP5 CALLDATASIZE SUB SWAP6 DUP7 ADD SLT PUSH2 0x174 JUMPI PUSH1 0x24 CALLDATALOAD DUP3 DUP2 GT PUSH2 0x319 JUMPI CALLDATASIZE PUSH1 0x23 DUP3 ADD SLT ISZERO PUSH2 0x319 JUMPI PUSH2 0x562 SWAP1 CALLDATASIZE SWAP1 PUSH1 0x24 DUP2 DUP6 ADD CALLDATALOAD SWAP2 ADD PUSH2 0xCCD JUMP JUMPDEST POP DUP3 SWAP5 PUSH1 0x60 SWAP5 PUSH1 0xC4 DUP2 ADD CALLDATALOAD SWAP2 PUSH1 0x22 NOT ADD DUP3 SLT ISZERO PUSH2 0x500 JUMPI ADD SWAP2 DUP2 DUP4 ADD CALLDATALOAD SWAP1 DUP2 GT PUSH2 0x319 JUMPI DUP1 PUSH1 0x5 SHL CALLDATASIZE SUB PUSH1 0x24 DUP5 ADD SGT PUSH2 0x319 JUMPI PUSH1 0x1 LT ISZERO PUSH2 0x5EC JUMPI POP PUSH1 0x44 DUP6 SWAP2 ADD CALLDATALOAD SWAP2 DUP3 DUP2 MSTORE PUSH1 0x2 PUSH1 0x20 MSTORE KECCAK256 SLOAD PUSH2 0x5D4 JUMPI JUMPDEST POP PUSH2 0x5D0 SWAP1 DUP4 MLOAD SWAP4 DUP5 SWAP4 ISZERO ISZERO DUP5 MSTORE DUP1 PUSH1 0x20 DUP6 ADD MSTORE DUP4 ADD SWAP1 PUSH2 0xD28 JUMP JUMPDEST SUB SWAP1 RETURN JUMPDEST SWAP1 POP PUSH2 0x5E0 SWAP2 POP PUSH2 0xF29 JUMP JUMPDEST PUSH1 0x80 MLOAD SWAP1 PUSH2 0x5D0 PUSH2 0x5B4 JUMP JUMPDEST PUSH4 0x4E487B71 PUSH1 0xE0 SHL DUP4 MSTORE PUSH1 0x32 SWAP1 MSTORE PUSH1 0x24 DUP3 REVERT JUMPDEST DUP4 DUP4 PUSH1 0x20 SWAP3 DUP4 PUSH1 0x3 NOT CALLDATASIZE ADD SLT PUSH2 0x174 JUMPI PUSH1 0x5 SLOAD DUP3 MLOAD PUSH4 0x75243D49 PUSH1 0xE1 SHL DUP2 MSTORE DUP3 CALLDATALOAD DUP2 DUP5 ADD DUP2 SWAP1 MSTORE SWAP5 PUSH1 0x24 SWAP4 SWAP1 SWAP3 SWAP1 SWAP2 PUSH1 0x1 PUSH1 0x1 PUSH1 0xA0 SHL SUB SWAP2 DUP3 AND SWAP1 DUP9 DUP2 DUP8 DUP2 DUP6 GAS STATICCALL SWAP1 DUP2 ISZERO PUSH2 0x998 JUMPI DUP6 SWAP2 PUSH2 0xAC7 JUMPI JUMPDEST POP DUP4 DUP2 LT ISZERO PUSH2 0xAB4 JUMPI PUSH1 0x1 SUB PUSH2 0xA72 JUMPI DUP2 PUSH1 0x7 SLOAD AND DUP7 MLOAD PUSH4 0x755E66DB PUSH1 0xE1 SHL SWAP1 DUP2 DUP2 MSTORE DUP10 DUP7 DUP3 ADD MSTORE DUP7 DUP2 DUP10 DUP2 DUP8 GAS STATICCALL SWAP1 DUP2 ISZERO PUSH2 0xA4E JUMPI PUSH2 0x6B5 SWAP5 SWAP4 SWAP3 SWAP2 DUP11 SWAP2 DUP10 SWAP2 PUSH2 0xA58 JUMPI JUMPDEST POP DUP13 DUP3 MLOAD SWAP7 DUP8 SWAP3 DUP4 SWAP3 PUSH4 0xBAC4CD07 PUSH1 0xE0 SHL DUP5 MSTORE DUP12 DUP5 ADD MSTORE DUP13 DUP4 ADD SWAP1 PUSH2 0xD28 JUMP JUMPDEST SUB DUP2 DUP6 GAS STATICCALL SWAP4 DUP5 ISZERO PUSH2 0xA4E JUMPI DUP8 SWAP5 PUSH2 0xA1E JUMPI JUMPDEST POP PUSH2 0x6D6 PUSH1 0x9 SLOAD SWAP5 DUP6 PUSH2 0xE26 JUMP JUMPDEST CALLVALUE GT ISZERO PUSH2 0x9D0 JUMPI DUP7 SWAP1 DUP9 DUP11 MLOAD DUP1 SWAP6 DUP2 SWAP4 DUP3 MSTORE DUP14 DUP11 DUP4 ADD MSTORE GAS STATICCALL SWAP2 DUP3 ISZERO PUSH2 0x9C6 JUMPI SWAP2 DUP11 SWAP2 PUSH2 0x724 SWAP4 DUP9 SWAP3 PUSH2 0x9A2 JUMPI JUMPDEST POP DUP10 MLOAD DUP1 DUP1 SWAP6 DUP2 SWAP5 PUSH4 0xCC271AA3 PUSH1 0xE0 SHL DUP4 MSTORE DUP7 DUP12 DUP5 ADD MSTORE DUP13 DUP4 ADD SWAP1 PUSH2 0xD28 JUMP JUMPDEST SUB SWAP2 GAS STATICCALL SWAP1 DUP2 ISZERO PUSH2 0x998 JUMPI DUP6 SWAP2 PUSH2 0x963 JUMPI JUMPDEST POP ISZERO PUSH2 0x90E JUMPI DUP8 DUP3 DUP5 SLOAD AND DUP7 DUP9 MLOAD DUP1 SWAP5 DUP2 SWAP4 PUSH4 0x3DE5599D PUSH1 0xE1 SHL DUP4 MSTORE ADDRESS DUP10 DUP5 ADD MSTORE GAS CALL SWAP1 DUP2 ISZERO PUSH2 0x904 JUMPI DUP5 SWAP2 PUSH2 0x8CF JUMPI JUMPDEST POP ISZERO PUSH2 0x895 JUMPI PUSH2 0x779 PUSH1 0x9 SLOAD CALLVALUE PUSH2 0xE54 JUMP JUMPDEST DUP6 MLOAD SWAP1 PUSH2 0x785 DUP3 PUSH2 0xC62 JUMP JUMPDEST DUP2 MSTORE DUP8 DUP2 ADD SWAP2 CALLER DUP4 MSTORE PUSH1 0x1 DUP8 DUP4 ADD SWAP3 DUP7 DUP5 MSTORE PUSH1 0x3 SLOAD DUP8 MSTORE DUP2 DUP12 MSTORE DUP9 DUP8 KECCAK256 SWAP1 MLOAD DUP2 SSTORE ADD SWAP3 MLOAD AND DUP3 SLOAD SWAP2 PUSH1 0xFF PUSH1 0xA0 SHL SWAP1 MLOAD ISZERO ISZERO PUSH1 0xA0 SHL AND SWAP2 PUSH1 0x1 DUP1 PUSH1 0xA8 SHL SUB NOT AND OR OR SWAP1 SSTORE DUP5 DUP3 MSTORE PUSH1 0x2 DUP7 MSTORE DUP4 DUP3 KECCAK256 SWAP5 PUSH1 0x3 SLOAD SWAP6 DUP1 SLOAD SWAP1 PUSH1 0x1 PUSH1 0x40 SHL DUP3 LT ISZERO PUSH2 0x882 JUMPI DUP2 PUSH2 0x7FA SWAP2 PUSH1 0x1 PUSH2 0x85B SWAP6 SWAP5 ADD DUP2 SSTORE PUSH2 0xD4D JUMP JUMPDEST DUP2 SLOAD SWAP1 PUSH1 0x3 SHL SWAP1 PUSH0 NOT DUP1 SWAP11 DUP4 SHL SWAP3 SHL NOT AND OR SWAP1 SSTORE PUSH32 0x555A6EC1BCAB187D5C03BCC543A554016E038BF7FB4313E551F96C155889418D PUSH1 0x80 PUSH1 0x3 SLOAD SWAP3 PUSH2 0x841 PUSH1 0x9 SLOAD CALLVALUE PUSH2 0xE54 JUMP JUMPDEST DUP10 MLOAD SWAP2 DUP6 DUP4 MSTORE DUP13 DUP4 ADD MSTORE CALLER DUP11 DUP4 ADD MSTORE PUSH1 0x60 DUP3 ADD MSTORE LOG1 PUSH2 0xE61 JUMP JUMPDEST SWAP5 DUP6 PUSH1 0x3 SSTORE DUP6 ADD SWAP5 DUP6 GT PUSH2 0x872 JUMPI POP POP POP MLOAD SWAP1 DUP2 MSTORE RETURN JUMPDEST PUSH4 0x4E487B71 PUSH1 0xE0 SHL DUP3 MSTORE PUSH1 0x11 SWAP1 MSTORE REVERT JUMPDEST POP POP PUSH4 0x4E487B71 PUSH1 0xE0 SHL DUP4 MSTORE POP PUSH1 0x41 SWAP1 MSTORE REVERT JUMPDEST DUP5 MLOAD PUSH3 0x461BCD PUSH1 0xE5 SHL DUP2 MSTORE DUP1 DUP4 ADD DUP9 SWAP1 MSTORE PUSH1 0x15 DUP2 DUP7 ADD MSTORE PUSH21 0x155C1AD9595C08199D5B991A5B99C819985A5B1959 PUSH1 0x5A SHL PUSH1 0x44 DUP3 ADD MSTORE PUSH1 0x64 SWAP1 REVERT JUMPDEST SWAP1 POP DUP8 DUP2 DUP2 RETURNDATASIZE DUP4 GT PUSH2 0x8FD JUMPI JUMPDEST PUSH2 0x8E6 DUP2 DUP4 PUSH2 0xC91 JUMP JUMPDEST DUP2 ADD SUB SLT PUSH2 0x319 JUMPI PUSH2 0x8F7 SWAP1 PUSH2 0xE47 JUMP JUMPDEST DUP9 PUSH2 0x767 JUMP JUMPDEST POP RETURNDATASIZE PUSH2 0x8DC JUMP JUMPDEST DUP7 MLOAD RETURNDATASIZE DUP7 DUP3 RETURNDATACOPY RETURNDATASIZE SWAP1 REVERT JUMPDEST DUP6 MLOAD PUSH3 0x461BCD PUSH1 0xE5 SHL DUP2 MSTORE DUP1 DUP5 ADD DUP10 SWAP1 MSTORE PUSH1 0x2A DUP2 DUP8 ADD MSTORE PUSH32 0x436F6D6D756E697479206D757374206861766520616E20696E63656E74697665 PUSH1 0x44 DUP3 ADD MSTORE PUSH10 0x20737472756374757265 PUSH1 0xB0 SHL PUSH1 0x64 DUP3 ADD MSTORE PUSH1 0x84 SWAP1 REVERT JUMPDEST SWAP1 POP DUP9 DUP2 DUP2 RETURNDATASIZE DUP4 GT PUSH2 0x991 JUMPI JUMPDEST PUSH2 0x97A DUP2 DUP4 PUSH2 0xC91 JUMP JUMPDEST DUP2 ADD SUB SLT PUSH2 0x500 JUMPI PUSH2 0x98B SWAP1 PUSH2 0xE47 JUMP JUMPDEST DUP10 PUSH2 0x736 JUMP JUMPDEST POP RETURNDATASIZE PUSH2 0x970 JUMP JUMPDEST DUP8 MLOAD RETURNDATASIZE DUP8 DUP3 RETURNDATACOPY RETURNDATASIZE SWAP1 REVERT JUMPDEST PUSH2 0x9BF SWAP2 SWAP3 POP RETURNDATASIZE DUP1 DUP11 DUP4 RETURNDATACOPY PUSH2 0x9B7 DUP2 DUP4 PUSH2 0xC91 JUMP JUMPDEST DUP2 ADD SWAP1 PUSH2 0xDD3 JUMP JUMPDEST SWAP1 DUP13 PUSH2 0x704 JUMP JUMPDEST DUP9 MLOAD RETURNDATASIZE DUP9 DUP3 RETURNDATACOPY RETURNDATASIZE SWAP1 REVERT JUMPDEST DUP9 MLOAD PUSH3 0x461BCD PUSH1 0xE5 SHL DUP2 MSTORE DUP1 DUP8 ADD DUP13 SWAP1 MSTORE PUSH1 0x23 DUP2 DUP11 ADD MSTORE PUSH32 0x466565206D757374206265207061696420746F20637265617465206120626F75 PUSH1 0x44 DUP3 ADD MSTORE PUSH3 0x6E7479 PUSH1 0xE8 SHL PUSH1 0x64 DUP3 ADD MSTORE PUSH1 0x84 SWAP1 REVERT JUMPDEST PUSH2 0xA3F SWAP2 SWAP5 POP DUP10 RETURNDATASIZE DUP12 GT PUSH2 0xA47 JUMPI JUMPDEST PUSH2 0xA37 DUP2 DUP4 PUSH2 0xC91 JUMP JUMPDEST DUP2 ADD SWAP1 PUSH2 0xE0C JUMP JUMPDEST POP SWAP3 DUP12 PUSH2 0x6C8 JUMP JUMPDEST POP RETURNDATASIZE PUSH2 0xA2D JUMP JUMPDEST DUP10 MLOAD RETURNDATASIZE DUP10 DUP3 RETURNDATACOPY RETURNDATASIZE SWAP1 REVERT JUMPDEST PUSH2 0xA6C SWAP2 POP RETURNDATASIZE DUP1 DUP12 DUP4 RETURNDATACOPY PUSH2 0x9B7 DUP2 DUP4 PUSH2 0xC91 JUMP JUMPDEST DUP14 PUSH2 0x695 JUMP JUMPDEST DUP6 MLOAD PUSH3 0x461BCD PUSH1 0xE5 SHL DUP2 MSTORE DUP1 DUP5 ADD DUP10 SWAP1 MSTORE PUSH1 0x1E DUP2 DUP8 ADD MSTORE PUSH32 0x506F7374206D7573742062652070656E64696E6720636F6E73656E7375730000 PUSH1 0x44 DUP3 ADD MSTORE PUSH1 0x64 SWAP1 REVERT JUMPDEST POP POP PUSH4 0x4E487B71 PUSH1 0xE0 SHL DUP4 MSTORE POP PUSH1 0x21 SWAP1 MSTORE REVERT JUMPDEST PUSH2 0xAE7 SWAP2 POP DUP10 RETURNDATASIZE DUP12 GT PUSH2 0xAED JUMPI JUMPDEST PUSH2 0xADF DUP2 DUP4 PUSH2 0xC91 JUMP JUMPDEST DUP2 ADD SWAP1 PUSH2 0xD76 JUMP JUMPDEST DUP10 PUSH2 0x64F JUMP JUMPDEST POP RETURNDATASIZE PUSH2 0xAD5 JUMP JUMPDEST SWAP2 SWAP1 POP CALLVALUE PUSH2 0x174 JUMPI PUSH1 0x20 SWAP2 DUP3 PUSH1 0x3 NOT CALLDATASIZE ADD SLT PUSH2 0x319 JUMPI CALLDATALOAD DUP4 MSTORE PUSH1 0x2 DUP3 MSTORE DUP1 DUP4 KECCAK256 DUP2 MLOAD SWAP1 DUP2 SWAP5 DUP6 SWAP3 DUP6 DUP4 SLOAD SWAP2 DUP3 DUP2 MSTORE ADD SWAP3 DUP3 MSTORE DUP6 DUP3 KECCAK256 SWAP2 JUMPDEST DUP7 DUP3 DUP3 LT PUSH2 0xB54 JUMPI DUP6 SWAP1 PUSH2 0x5D0 DUP9 PUSH2 0xB45 DUP5 DUP10 SUB DUP6 PUSH2 0xC91 JUMP JUMPDEST MLOAD SWAP3 DUP3 DUP5 SWAP4 DUP5 MSTORE DUP4 ADD SWAP1 PUSH2 0xC2F JUMP JUMPDEST DUP4 SLOAD DUP6 MSTORE DUP9 SWAP6 POP SWAP1 SWAP4 ADD SWAP3 PUSH1 0x1 SWAP3 DUP4 ADD SWAP3 ADD PUSH2 0xB2B JUMP JUMPDEST DUP4 SWAP1 CALLVALUE PUSH2 0x126 JUMPI PUSH1 0x20 CALLDATASIZE PUSH1 0x3 NOT ADD SLT PUSH2 0x126 JUMPI CALLDATALOAD PUSH1 0x1 PUSH1 0x1 PUSH1 0xA0 SHL SUB DUP2 DUP2 AND SWAP2 DUP3 SWAP1 SUB PUSH2 0x174 JUMPI PUSH2 0xBA1 SWAP1 PUSH1 0xA SLOAD AND CALLER EQ PUSH2 0x1E6E JUMP JUMPDEST PUSH1 0x7 DUP1 SLOAD PUSH1 0x1 PUSH1 0x1 PUSH1 0xA0 SHL SUB NOT AND SWAP2 SWAP1 SWAP2 OR SWAP1 SSTORE DUP1 RETURN JUMPDEST POP POP CALLVALUE PUSH2 0x126 JUMPI DUP2 PUSH1 0x3 NOT CALLDATASIZE ADD SLT PUSH2 0x126 JUMPI PUSH1 0x8 SLOAD SWAP1 MLOAD PUSH1 0x1 PUSH1 0x1 PUSH1 0xA0 SHL SUB SWAP1 SWAP2 AND DUP2 MSTORE PUSH1 0x20 SWAP1 RETURN JUMPDEST POP POP CALLVALUE PUSH2 0x126 JUMPI DUP2 PUSH1 0x3 NOT CALLDATASIZE ADD SLT PUSH2 0x126 JUMPI PUSH1 0x7 SLOAD SWAP1 MLOAD PUSH1 0x1 PUSH1 0x1 PUSH1 0xA0 SHL SUB SWAP1 SWAP2 AND DUP2 MSTORE PUSH1 0x20 SWAP1 RETURN JUMPDEST DUP5 SWAP1 CALLVALUE PUSH2 0x126 JUMPI DUP2 PUSH1 0x3 NOT CALLDATASIZE ADD SLT PUSH2 0x126 JUMPI PUSH1 0x6 SLOAD PUSH1 0x1 PUSH1 0x1 PUSH1 0xA0 SHL SUB AND DUP2 MSTORE PUSH1 0x20 SWAP1 RETURN JUMPDEST SWAP1 DUP2 MLOAD DUP1 DUP3 MSTORE PUSH1 0x20 DUP1 DUP1 SWAP4 ADD SWAP4 ADD SWAP2 PUSH0 JUMPDEST DUP3 DUP2 LT PUSH2 0xC4E JUMPI POP POP POP POP SWAP1 JUMP JUMPDEST DUP4 MLOAD DUP6 MSTORE SWAP4 DUP2 ADD SWAP4 SWAP3 DUP2 ADD SWAP3 PUSH1 0x1 ADD PUSH2 0xC40 JUMP JUMPDEST PUSH1 0x60 DUP2 ADD SWAP1 DUP2 LT PUSH1 0x1 PUSH1 0x1 PUSH1 0x40 SHL SUB DUP3 GT OR PUSH2 0xC7D JUMPI PUSH1 0x40 MSTORE JUMP JUMPDEST PUSH4 0x4E487B71 PUSH1 0xE0 SHL PUSH0 MSTORE PUSH1 0x41 PUSH1 0x4 MSTORE PUSH1 0x24 PUSH0 REVERT JUMPDEST SWAP1 PUSH1 0x1F DUP1 NOT SWAP2 ADD AND DUP2 ADD SWAP1 DUP2 LT PUSH1 0x1 PUSH1 0x1 PUSH1 0x40 SHL SUB DUP3 GT OR PUSH2 0xC7D JUMPI PUSH1 0x40 MSTORE JUMP JUMPDEST PUSH1 0x1 PUSH1 0x1 PUSH1 0x40 SHL SUB DUP2 GT PUSH2 0xC7D JUMPI PUSH1 0x1F ADD PUSH1 0x1F NOT AND PUSH1 0x20 ADD SWAP1 JUMP JUMPDEST SWAP3 SWAP2 SWAP3 PUSH2 0xCD9 DUP3 PUSH2 0xCB2 JUMP JUMPDEST SWAP2 PUSH2 0xCE7 PUSH1 0x40 MLOAD SWAP4 DUP5 PUSH2 0xC91 JUMP JUMPDEST DUP3 SWAP5 DUP2 DUP5 MSTORE DUP2 DUP4 ADD GT PUSH2 0xD03 JUMPI DUP3 DUP2 PUSH1 0x20 SWAP4 DUP5 PUSH0 SWAP7 ADD CALLDATACOPY ADD ADD MSTORE JUMP JUMPDEST PUSH0 DUP1 REVERT JUMPDEST PUSH0 JUMPDEST DUP4 DUP2 LT PUSH2 0xD18 JUMPI POP POP PUSH0 SWAP2 ADD MSTORE JUMP JUMPDEST DUP2 DUP2 ADD MLOAD DUP4 DUP3 ADD MSTORE PUSH1 0x20 ADD PUSH2 0xD09 JUMP JUMPDEST SWAP1 PUSH1 0x20 SWAP2 PUSH2 0xD41 DUP2 MLOAD DUP1 SWAP3 DUP2 DUP6 MSTORE DUP6 DUP1 DUP7 ADD SWAP2 ADD PUSH2 0xD07 JUMP JUMPDEST PUSH1 0x1F ADD PUSH1 0x1F NOT AND ADD ADD SWAP1 JUMP JUMPDEST DUP1 SLOAD DUP3 LT ISZERO PUSH2 0xD62 JUMPI PUSH0 MSTORE PUSH1 0x20 PUSH0 KECCAK256 ADD SWAP1 PUSH0 SWAP1 JUMP JUMPDEST PUSH4 0x4E487B71 PUSH1 0xE0 SHL PUSH0 MSTORE PUSH1 0x32 PUSH1 0x4 MSTORE PUSH1 0x24 PUSH0 REVERT JUMPDEST SWAP1 DUP2 PUSH1 0x20 SWAP2 SUB SLT PUSH2 0xD03 JUMPI MLOAD PUSH1 0x4 DUP2 LT ISZERO PUSH2 0xD03 JUMPI SWAP1 JUMP JUMPDEST DUP2 PUSH1 0x1F DUP3 ADD SLT ISZERO PUSH2 0xD03 JUMPI DUP1 MLOAD PUSH2 0xDA4 DUP2 PUSH2 0xCB2 JUMP JUMPDEST SWAP3 PUSH2 0xDB2 PUSH1 0x40 MLOAD SWAP5 DUP6 PUSH2 0xC91 JUMP JUMPDEST DUP2 DUP5 MSTORE PUSH1 0x20 DUP3 DUP5 ADD ADD GT PUSH2 0xD03 JUMPI PUSH2 0xDD0 SWAP2 PUSH1 0x20 DUP1 DUP6 ADD SWAP2 ADD PUSH2 0xD07 JUMP JUMPDEST SWAP1 JUMP JUMPDEST SWAP1 PUSH1 0x20 DUP3 DUP3 SUB SLT PUSH2 0xD03 JUMPI DUP2 MLOAD PUSH1 0x1 PUSH1 0x1 PUSH1 0x40 SHL SUB DUP2 GT PUSH2 0xD03 JUMPI PUSH2 0xDD0 SWAP3 ADD PUSH2 0xD8E JUMP JUMPDEST MLOAD SWAP1 PUSH1 0x1 PUSH1 0x1 PUSH1 0xA0 SHL SUB DUP3 AND DUP3 SUB PUSH2 0xD03 JUMPI JUMP JUMPDEST SWAP2 SWAP1 DUP3 PUSH1 0x40 SWAP2 SUB SLT PUSH2 0xD03 JUMPI PUSH2 0xDD0 PUSH1 0x20 DUP4 MLOAD SWAP4 ADD PUSH2 0xDF8 JUMP JUMPDEST SWAP2 SWAP1 DUP3 ADD DUP1 SWAP3 GT PUSH2 0xE33 JUMPI JUMP JUMPDEST PUSH4 0x4E487B71 PUSH1 0xE0 SHL PUSH0 MSTORE PUSH1 0x11 PUSH1 0x4 MSTORE PUSH1 0x24 PUSH0 REVERT JUMPDEST MLOAD SWAP1 DUP2 ISZERO ISZERO DUP3 SUB PUSH2 0xD03 JUMPI JUMP JUMPDEST SWAP2 SWAP1 DUP3 SUB SWAP2 DUP3 GT PUSH2 0xE33 JUMPI JUMP JUMPDEST PUSH0 NOT DUP2 EQ PUSH2 0xE33 JUMPI PUSH1 0x1 ADD SWAP1 JUMP JUMPDEST PUSH1 0x1 PUSH1 0x1 PUSH1 0x40 SHL SUB DUP2 GT PUSH2 0xC7D JUMPI PUSH1 0x5 SHL PUSH1 0x20 ADD SWAP1 JUMP JUMPDEST SWAP1 PUSH2 0xE90 DUP3 PUSH2 0xE6F JUMP JUMPDEST PUSH2 0xE9D PUSH1 0x40 MLOAD SWAP2 DUP3 PUSH2 0xC91 JUMP JUMPDEST DUP3 DUP2 MSTORE DUP1 SWAP3 PUSH2 0xEAE PUSH1 0x1F NOT SWAP2 PUSH2 0xE6F JUMP JUMPDEST ADD SWAP1 PUSH1 0x20 CALLDATASIZE SWAP2 ADD CALLDATACOPY JUMP JUMPDEST DUP1 MLOAD DUP3 LT ISZERO PUSH2 0xD62 JUMPI PUSH1 0x20 SWAP2 PUSH1 0x5 SHL ADD ADD SWAP1 JUMP JUMPDEST SWAP4 SWAP3 SWAP2 PUSH1 0x60 DUP6 ADD SWAP2 PUSH1 0x60 DUP7 MSTORE DUP1 MLOAD DUP1 SWAP4 MSTORE PUSH1 0x80 DUP7 ADD SWAP3 PUSH1 0x20 DUP1 SWAP3 ADD SWAP1 PUSH0 JUMPDEST DUP2 DUP2 LT PUSH2 0xF0C JUMPI POP POP POP DUP6 DUP4 SUB SWAP1 DUP7 ADD MSTORE PUSH1 0x40 SWAP2 PUSH2 0xF07 SWAP2 PUSH2 0xC2F JUMP JUMPDEST SWAP4 ADD MSTORE JUMP JUMPDEST DUP3 MLOAD PUSH1 0x1 PUSH1 0x1 PUSH1 0xA0 SHL SUB AND DUP7 MSTORE SWAP5 DUP4 ADD SWAP5 SWAP2 DUP4 ADD SWAP2 PUSH1 0x1 ADD PUSH2 0xEEA JUMP JUMPDEST PUSH0 PUSH1 0x80 MSTORE DUP1 PUSH0 MSTORE PUSH1 0x2 PUSH1 0x20 MSTORE PUSH1 0x40 PUSH0 KECCAK256 SWAP1 PUSH1 0x40 MLOAD DUP1 DUP4 PUSH1 0x20 DUP3 SWAP6 SLOAD SWAP4 DUP5 DUP2 MSTORE ADD SWAP1 PUSH0 MSTORE PUSH1 0x20 PUSH0 KECCAK256 SWAP3 PUSH0 JUMPDEST DUP2 DUP2 LT PUSH2 0x16C3 JUMPI POP POP PUSH2 0xF68 SWAP3 POP SUB DUP4 PUSH2 0xC91 JUMP JUMPDEST DUP2 MLOAD ISZERO PUSH2 0x169B JUMPI PUSH1 0x1 PUSH1 0x80 MSTORE PUSH1 0x5 SLOAD PUSH1 0x40 MLOAD PUSH4 0x755E66DB PUSH1 0xE1 SHL DUP2 MSTORE PUSH1 0x4 DUP2 ADD DUP4 SWAP1 MSTORE PUSH1 0x1 PUSH1 0x1 PUSH1 0xA0 SHL SUB SWAP1 SWAP2 AND SWAP4 SWAP1 SWAP3 PUSH0 DUP5 PUSH1 0x24 DUP2 DUP9 GAS STATICCALL SWAP4 DUP5 ISZERO PUSH2 0x1207 JUMPI PUSH0 SWAP5 PUSH2 0x167F JUMPI JUMPDEST POP PUSH1 0x6 SLOAD PUSH1 0x40 MLOAD PUSH4 0x26917989 PUSH1 0xE0 SHL DUP2 MSTORE PUSH1 0x20 PUSH1 0x4 DUP3 ADD MSTORE SWAP5 SWAP1 PUSH1 0x60 SWAP1 DUP7 SWAP1 PUSH1 0x1 PUSH1 0x1 PUSH1 0xA0 SHL SUB AND DUP2 DUP1 PUSH2 0xFE6 PUSH1 0x24 DUP3 ADD DUP8 PUSH2 0xD28 JUMP JUMPDEST SUB SWAP2 GAS STATICCALL SWAP4 DUP5 ISZERO PUSH2 0x1207 JUMPI PUSH0 SWAP6 PUSH0 SWAP6 PUSH2 0x1644 JUMPI JUMPDEST POP PUSH1 0x40 MLOAD PUSH4 0x6C79BD2B PUSH1 0xE0 SHL DUP2 MSTORE PUSH1 0x4 DUP2 ADD DUP3 SWAP1 MSTORE PUSH0 DUP2 PUSH1 0x24 DUP2 DUP12 GAS STATICCALL SWAP1 DUP2 ISZERO PUSH2 0x1207 JUMPI PUSH0 SWAP2 PUSH2 0x1607 JUMPI JUMPDEST POP PUSH2 0x1030 DUP2 MLOAD PUSH2 0xE86 JUMP JUMPDEST SWAP4 PUSH2 0x103B DUP3 MLOAD PUSH2 0xE86 JUMP JUMPDEST SWAP3 PUSH0 SWAP7 PUSH0 SWAP6 PUSH0 SWAP9 JUMPDEST PUSH1 0x80 MLOAD ISZERO PUSH2 0x15F3 JUMPI DUP6 MLOAD DUP11 LT ISZERO PUSH2 0x1212 JUMPI DUP13 PUSH0 PUSH2 0x1060 DUP13 DUP10 PUSH2 0xEB8 JUMP JUMPDEST MLOAD PUSH1 0x24 PUSH1 0x40 MLOAD DUP1 SWAP5 DUP2 SWAP4 PUSH4 0x4C82C0DB PUSH1 0xE1 SHL DUP4 MSTORE PUSH1 0x4 DUP4 ADD MSTORE GAS STATICCALL SWAP1 DUP2 ISZERO PUSH2 0x1207 JUMPI PUSH0 SWAP2 PUSH2 0x1115 JUMPI JUMPDEST POP PUSH1 0xA0 DUP2 ADD MLOAD ISZERO DUP1 ISZERO SWAP1 PUSH2 0x1108 JUMPI JUMPDEST PUSH2 0x10FD JUMPI PUSH1 0x40 DUP2 ADD MLOAD PUSH1 0x2 SUB PUSH2 0x10D7 JUMPI MLOAD PUSH2 0x10D1 SWAP2 PUSH2 0x10CA SWAP2 PUSH1 0x1 PUSH1 0x1 PUSH1 0xA0 SHL SUB AND PUSH2 0x10C4 DUP3 DUP14 PUSH2 0xEB8 JUMP JUMPDEST MSTORE PUSH2 0xE61 JUMP JUMPDEST SWAP10 JUMPDEST PUSH2 0xE61 JUMP JUMPDEST SWAP9 PUSH2 0x1043 JUMP JUMPDEST MLOAD SWAP1 SWAP10 SWAP8 PUSH2 0x10D1 SWAP2 PUSH2 0x10F7 SWAP2 SWAP1 PUSH1 0x1 PUSH1 0x1 PUSH1 0xA0 SHL SUB AND PUSH2 0x10C4 DUP3 DUP12 PUSH2 0xEB8 JUMP JUMPDEST SWAP8 PUSH2 0xE61 JUMP JUMPDEST POP SWAP9 PUSH2 0x10D1 SWAP1 PUSH2 0xE61 JUMP JUMPDEST POP DUP12 PUSH1 0x80 DUP3 ADD MLOAD LT PUSH2 0x1098 JUMP JUMPDEST SWAP1 POP RETURNDATASIZE DUP1 PUSH0 DUP4 RETURNDATACOPY PUSH2 0x1126 DUP2 DUP4 PUSH2 0xC91 JUMP JUMPDEST PUSH1 0x20 DUP3 DUP3 DUP2 ADD SUB SLT PUSH2 0xD03 JUMPI DUP2 MLOAD SWAP1 PUSH1 0x1 PUSH1 0x1 PUSH1 0x40 SHL SUB DUP3 GT PUSH2 0xD03 JUMPI PUSH1 0xC0 DUP3 DUP5 ADD DUP3 DUP6 ADD SUB SLT PUSH2 0xD03 JUMPI PUSH1 0x40 MLOAD SWAP3 DUP4 PUSH1 0xC0 DUP2 ADD LT PUSH1 0x1 PUSH1 0x1 PUSH1 0x40 SHL SUB PUSH1 0xC0 DUP7 ADD GT OR PUSH2 0xC7D JUMPI PUSH1 0xC0 DUP5 ADD PUSH1 0x40 MSTORE PUSH2 0x117F DUP4 DUP3 ADD PUSH2 0xDF8 JUMP JUMPDEST DUP5 MSTORE PUSH1 0x20 DUP4 DUP3 ADD ADD MLOAD PUSH1 0x1 PUSH1 0x1 PUSH1 0x40 SHL SUB DUP2 GT PUSH2 0xD03 JUMPI PUSH2 0x11A7 SWAP1 DUP4 DUP4 ADD SWAP1 DUP6 DUP5 ADD ADD PUSH2 0xD8E JUMP JUMPDEST PUSH1 0x20 DUP6 ADD MSTORE DUP1 DUP4 ADD PUSH1 0x40 DUP2 DUP2 ADD MLOAD SWAP1 DUP7 ADD MSTORE PUSH1 0x60 ADD MLOAD SWAP2 PUSH1 0x1 PUSH1 0x1 PUSH1 0x40 SHL SUB DUP4 GT PUSH2 0xD03 JUMPI PUSH2 0x11FD SWAP3 PUSH2 0x11E0 SWAP2 DUP4 ADD SWAP1 DUP6 DUP5 ADD ADD PUSH2 0xD8E JUMP JUMPDEST PUSH1 0x60 DUP6 ADD MSTORE PUSH1 0x80 DUP4 DUP3 ADD ADD MLOAD PUSH1 0x80 DUP6 ADD MSTORE PUSH1 0xA0 SWAP3 DUP4 SWAP2 ADD ADD PUSH2 0xE47 JUMP JUMPDEST SWAP1 DUP3 ADD MSTORE PUSH0 PUSH2 0x1089 JUMP JUMPDEST PUSH1 0x40 MLOAD RETURNDATASIZE PUSH0 DUP3 RETURNDATACOPY RETURNDATASIZE SWAP1 REVERT JUMPDEST SWAP8 SWAP4 SWAP12 POP SWAP8 POP SWAP8 POP SWAP8 SWAP4 DUP7 SWAP3 POP DUP9 SWAP4 JUMPDEST PUSH2 0x122B DUP8 PUSH2 0xE86 JUMP JUMPDEST SWAP7 PUSH2 0x1235 DUP4 PUSH2 0xE86 JUMP JUMPDEST SWAP4 PUSH0 JUMPDEST DUP3 DUP2 LT PUSH2 0x15B9 JUMPI POP POP POP PUSH0 JUMPDEST DUP3 DUP2 LT PUSH2 0x157F JUMPI POP POP POP PUSH2 0x1257 SWAP5 PUSH2 0x173A JUMP JUMPDEST DUP1 MLOAD SWAP1 DUP2 PUSH2 0x13AD JUMPI POP POP POP PUSH2 0x126C DUP4 MLOAD PUSH2 0xE86 JUMP JUMPDEST SWAP1 PUSH2 0x1277 DUP5 MLOAD PUSH2 0xE86 JUMP JUMPDEST PUSH0 SWAP2 PUSH0 JUMPDEST PUSH1 0x80 MLOAD ISZERO PUSH2 0x13A2 JUMPI DUP7 MLOAD DUP2 LT ISZERO PUSH2 0x1318 JUMPI PUSH2 0x1296 DUP2 DUP9 PUSH2 0xEB8 JUMP JUMPDEST MLOAD PUSH0 MSTORE PUSH1 0x80 MLOAD PUSH1 0x20 MSTORE PUSH1 0x40 PUSH0 KECCAK256 PUSH1 0x40 MLOAD SWAP1 PUSH2 0x12B0 DUP3 PUSH2 0xC62 JUMP JUMPDEST DUP1 SLOAD DUP3 MSTORE PUSH1 0x80 MLOAD ADD SLOAD PUSH1 0x1 PUSH1 0x1 PUSH1 0xA0 SHL SUB DUP2 AND PUSH1 0x20 DUP4 ADD DUP2 SWAP1 MSTORE PUSH1 0xA0 SWAP2 SWAP1 SWAP2 SHR PUSH1 0xFF AND ISZERO DUP1 ISZERO PUSH1 0x40 DUP5 ADD MSTORE PUSH2 0x12F0 JUMPI JUMPDEST POP POP PUSH2 0x12EB SWAP1 PUSH2 0xE61 JUMP JUMPDEST PUSH2 0x127B JUMP JUMPDEST SWAP5 PUSH2 0x1310 SWAP2 PUSH2 0x12EB SWAP4 SWAP7 PUSH2 0x1304 DUP4 DUP11 PUSH2 0xEB8 JUMP JUMPDEST MSTORE MLOAD PUSH2 0x10C4 DUP3 DUP8 PUSH2 0xEB8 JUMP JUMPDEST SWAP4 SWAP1 PUSH0 PUSH2 0x12E0 JUMP JUMPDEST POP SWAP5 POP SWAP2 SWAP3 SWAP1 JUMPDEST PUSH2 0x1328 DUP2 PUSH2 0xE86 JUMP JUMPDEST SWAP3 PUSH2 0x1332 DUP3 PUSH2 0xE86 JUMP JUMPDEST SWAP5 PUSH0 JUMPDEST DUP4 DUP2 LT PUSH2 0x1365 JUMPI POP POP POP POP SWAP1 PUSH2 0x1357 PUSH2 0xDD0 SWAP3 PUSH1 0x40 MLOAD SWAP5 DUP6 SWAP4 PUSH1 0x20 DUP6 ADD PUSH2 0xECC JUMP JUMPDEST SUB PUSH1 0x1F NOT DUP2 ADD DUP4 MSTORE DUP3 PUSH2 0xC91 JUMP JUMPDEST PUSH2 0x139D SWAP1 PUSH1 0x1 PUSH1 0x1 PUSH1 0xA0 SHL SUB PUSH2 0x137B DUP3 DUP6 PUSH2 0xEB8 JUMP JUMPDEST MLOAD AND PUSH2 0x1387 DUP3 DUP10 PUSH2 0xEB8 JUMP JUMPDEST MSTORE PUSH2 0x1392 DUP2 DUP6 PUSH2 0xEB8 JUMP JUMPDEST MLOAD PUSH2 0x10C4 DUP3 DUP11 PUSH2 0xEB8 JUMP JUMPDEST PUSH2 0x1335 JUMP JUMPDEST POP SWAP5 POP SWAP2 SWAP3 SWAP1 PUSH2 0x131F JUMP JUMPDEST SWAP1 SWAP4 SWAP3 SWAP2 SWAP5 POP PUSH0 SWAP3 DUP1 PUSH0 MSTORE PUSH1 0x2 PUSH1 0x20 MSTORE PUSH1 0x40 PUSH0 KECCAK256 SWAP3 PUSH1 0x40 MLOAD DUP1 DUP6 PUSH1 0x20 DUP3 SWAP8 SLOAD SWAP4 DUP5 DUP2 MSTORE ADD SWAP1 PUSH0 MSTORE PUSH1 0x20 PUSH0 KECCAK256 SWAP3 PUSH0 JUMPDEST DUP2 DUP2 LT PUSH2 0x1565 JUMPI POP POP PUSH2 0x13F0 SWAP3 POP SUB DUP6 PUSH2 0xC91 JUMP JUMPDEST PUSH0 JUMPDEST PUSH1 0x80 MLOAD ISZERO PUSH2 0x1553 JUMPI DUP5 MLOAD DUP2 LT ISZERO PUSH2 0x1477 JUMPI PUSH2 0x140D DUP2 DUP7 PUSH2 0xEB8 JUMP JUMPDEST MLOAD PUSH0 MSTORE PUSH1 0x80 MLOAD PUSH1 0x20 MSTORE PUSH1 0x40 PUSH0 KECCAK256 PUSH1 0x40 MLOAD PUSH2 0x1426 DUP2 PUSH2 0xC62 JUMP JUMPDEST PUSH1 0xFF DUP3 SLOAD SWAP3 DUP4 DUP4 MSTORE PUSH1 0x80 MLOAD ADD SLOAD PUSH1 0x1 DUP1 PUSH1 0xA0 SHL SUB DUP2 AND PUSH1 0x20 DUP5 ADD MSTORE PUSH1 0xA0 SHR AND ISZERO SWAP1 PUSH1 0x40 DUP3 ISZERO SWAP2 ADD MSTORE PUSH2 0x1462 JUMPI JUMPDEST POP PUSH2 0x145D SWAP1 PUSH2 0xE61 JUMP JUMPDEST PUSH2 0x13F2 JUMP JUMPDEST PUSH2 0x1470 SWAP1 PUSH2 0x145D SWAP3 SWAP8 PUSH2 0xE26 JUMP JUMPDEST SWAP6 SWAP1 PUSH2 0x1453 JUMP JUMPDEST POP SWAP4 SWAP1 SWAP5 SWAP3 POP PUSH1 0x40 PUSH2 0x14B2 SWAP3 SWAP7 JUMPDEST PUSH1 0x1 DUP1 PUSH1 0xA0 SHL SUB PUSH1 0x7 SLOAD AND DUP3 MLOAD DUP1 DUP1 SWAP7 DUP2 SWAP5 PUSH4 0xBAC4CD07 PUSH1 0xE0 SHL DUP4 MSTORE PUSH1 0x20 PUSH1 0x4 DUP5 ADD MSTORE PUSH1 0x24 DUP4 ADD SWAP1 PUSH2 0xD28 JUMP JUMPDEST SUB SWAP2 GAS STATICCALL SWAP1 DUP2 ISZERO PUSH2 0x1207 JUMPI PUSH2 0x14CE SWAP3 PUSH0 SWAP3 PUSH2 0x1531 JUMPI JUMPDEST POP PUSH2 0xE54 JUMP JUMPDEST DIV SWAP1 PUSH2 0x14DA DUP5 MLOAD PUSH2 0xE86 JUMP JUMPDEST SWAP4 PUSH0 JUMPDEST PUSH1 0x80 MLOAD ISZERO PUSH2 0x151F JUMPI DUP2 MLOAD DUP2 LT ISZERO PUSH2 0x1502 JUMPI DUP1 DUP5 PUSH2 0x10C4 PUSH2 0x14FD SWAP4 DUP10 PUSH2 0xEB8 JUMP JUMPDEST PUSH2 0x14DD JUMP JUMPDEST POP SWAP1 SWAP4 SWAP3 PUSH2 0xDD0 SWAP3 POP PUSH2 0x1357 SWAP1 JUMPDEST PUSH1 0x40 MLOAD SWAP5 DUP6 SWAP4 PUSH1 0x20 DUP6 ADD PUSH2 0xECC JUMP JUMPDEST POP SWAP1 SWAP4 SWAP3 PUSH2 0xDD0 SWAP3 POP PUSH2 0x1357 SWAP1 PUSH2 0x1510 JUMP JUMPDEST PUSH2 0x154B SWAP2 SWAP3 POP PUSH1 0x40 RETURNDATASIZE PUSH1 0x40 GT PUSH2 0xA47 JUMPI PUSH2 0xA37 DUP2 DUP4 PUSH2 0xC91 JUMP JUMPDEST POP SWAP1 PUSH0 PUSH2 0x14C8 JUMP JUMPDEST POP SWAP4 SWAP1 SWAP5 SWAP3 POP PUSH1 0x40 PUSH2 0x14B2 SWAP3 SWAP7 PUSH2 0x1485 JUMP JUMPDEST DUP5 SLOAD DUP4 MSTORE PUSH1 0x80 MLOAD SWAP5 DUP6 ADD SWAP5 DUP10 SWAP5 POP PUSH1 0x20 SWAP1 SWAP4 ADD SWAP3 ADD PUSH2 0x13DB JUMP JUMPDEST SWAP6 SWAP7 SWAP3 SWAP6 SWAP3 SWAP5 POP SWAP1 SWAP3 POP SWAP1 PUSH2 0x15AC SWAP1 PUSH1 0x1 PUSH1 0x1 PUSH1 0xA0 SHL SUB PUSH2 0x15A0 DUP3 DUP6 PUSH2 0xEB8 JUMP JUMPDEST MLOAD AND PUSH2 0x10C4 DUP3 DUP9 PUSH2 0xEB8 JUMP JUMPDEST SWAP2 DUP9 SWAP4 SWAP6 SWAP5 SWAP2 DUP8 SWAP4 PUSH2 0x1244 JUMP JUMPDEST SWAP1 SWAP3 SWAP5 SWAP8 SWAP9 SWAP7 POP PUSH2 0x15E4 SWAP2 SWAP4 SWAP6 POP PUSH1 0x1 DUP1 PUSH1 0xA0 SHL SUB PUSH2 0x15D8 DUP3 DUP6 PUSH2 0xEB8 JUMP JUMPDEST MLOAD AND PUSH2 0x10C4 DUP3 DUP10 PUSH2 0xEB8 JUMP JUMPDEST SWAP2 DUP11 SWAP6 SWAP8 SWAP7 SWAP4 SWAP2 DUP10 SWAP6 SWAP4 PUSH2 0x1238 JUMP JUMPDEST SWAP8 SWAP4 SWAP12 POP SWAP8 POP SWAP8 POP SWAP8 SWAP4 DUP7 SWAP3 POP DUP9 SWAP4 PUSH2 0x1222 JUMP JUMPDEST SWAP1 POP RETURNDATASIZE DUP1 PUSH0 DUP4 RETURNDATACOPY PUSH2 0x1618 DUP2 DUP4 PUSH2 0xC91 JUMP JUMPDEST DUP2 ADD PUSH1 0x20 DUP3 DUP3 SUB SLT PUSH2 0xD03 JUMPI DUP2 MLOAD PUSH1 0x1 PUSH1 0x1 PUSH1 0x40 SHL SUB DUP2 GT PUSH2 0xD03 JUMPI PUSH2 0x163E SWAP3 ADD PUSH2 0x16DC JUMP JUMPDEST PUSH0 PUSH2 0x1025 JUMP JUMPDEST SWAP6 POP SWAP4 POP PUSH1 0x60 DUP6 RETURNDATASIZE PUSH1 0x60 GT PUSH2 0x1677 JUMPI JUMPDEST DUP2 PUSH2 0x1661 PUSH1 0x60 SWAP4 DUP4 PUSH2 0xC91 JUMP JUMPDEST DUP2 ADD SUB SLT PUSH2 0xD03 JUMPI PUSH1 0x20 DUP6 MLOAD SWAP6 ADD MLOAD SWAP4 PUSH0 PUSH2 0xFFA JUMP JUMPDEST RETURNDATASIZE SWAP2 POP PUSH2 0x1654 JUMP JUMPDEST PUSH2 0x1694 SWAP2 SWAP5 POP RETURNDATASIZE DUP1 PUSH0 DUP4 RETURNDATACOPY PUSH2 0x9B7 DUP2 DUP4 PUSH2 0xC91 JUMP JUMPDEST SWAP3 PUSH0 PUSH2 0xFAF JUMP JUMPDEST POP POP PUSH0 PUSH1 0x80 MSTORE PUSH1 0x40 MLOAD PUSH1 0x20 DUP2 ADD DUP2 DUP2 LT PUSH1 0x1 PUSH1 0x1 PUSH1 0x40 SHL SUB DUP3 GT OR PUSH2 0xC7D JUMPI PUSH1 0x40 MSTORE PUSH0 DUP2 MSTORE SWAP1 JUMP JUMPDEST DUP5 SLOAD DUP4 MSTORE PUSH1 0x1 SWAP5 DUP6 ADD SWAP5 DUP8 SWAP5 POP PUSH1 0x20 SWAP1 SWAP4 ADD SWAP3 ADD PUSH2 0xF53 JUMP JUMPDEST DUP2 PUSH1 0x1F DUP3 ADD SLT ISZERO PUSH2 0xD03 JUMPI DUP1 MLOAD SWAP2 PUSH2 0x16F3 DUP4 PUSH2 0xE6F JUMP JUMPDEST SWAP3 PUSH2 0x1701 PUSH1 0x40 MLOAD SWAP5 DUP6 PUSH2 0xC91 JUMP JUMPDEST DUP1 DUP5 MSTORE PUSH1 0x20 SWAP3 DUP4 DUP1 DUP7 ADD SWAP3 PUSH1 0x5 SHL DUP3 ADD ADD SWAP3 DUP4 GT PUSH2 0xD03 JUMPI DUP4 ADD SWAP1 JUMPDEST DUP3 DUP3 LT PUSH2 0x172B JUMPI POP POP POP POP SWAP1 JUMP JUMPDEST DUP2 MLOAD DUP2 MSTORE SWAP1 DUP4 ADD SWAP1 DUP4 ADD PUSH2 0x171D JUMP JUMPDEST SWAP3 SWAP1 SWAP5 SWAP4 PUSH1 0x60 SWAP1 PUSH1 0x1 DUP1 PUSH1 0xA0 SHL SUB SWAP4 DUP5 PUSH1 0x7 SLOAD AND SWAP2 PUSH1 0x40 MLOAD SWAP5 DUP6 SWAP4 PUSH4 0x436FF89 PUSH1 0xE2 SHL DUP6 MSTORE PUSH1 0x20 SWAP5 DUP6 SWAP2 DUP2 DUP1 PUSH2 0x177B PUSH1 0x4 SWAP9 DUP7 DUP11 DUP5 ADD MSTORE PUSH1 0x24 DUP4 ADD SWAP1 PUSH2 0xD28 JUMP JUMPDEST SUB SWAP2 GAS STATICCALL SWAP6 DUP7 ISZERO PUSH2 0x1207 JUMPI PUSH0 SWAP7 PUSH2 0x193F JUMPI JUMPDEST POP DUP4 DUP8 PUSH1 0x5 SLOAD AND SWAP2 PUSH1 0x24 PUSH1 0x40 MLOAD DUP1 SWAP5 DUP2 SWAP4 PUSH4 0x75243D49 PUSH1 0xE1 SHL DUP4 MSTORE DUP9 DUP4 ADD MSTORE GAS STATICCALL SWAP4 DUP5 ISZERO PUSH2 0x1207 JUMPI PUSH0 SWAP5 PUSH2 0x1920 JUMPI JUMPDEST POP POP PUSH2 0x17CB DUP8 MLOAD DUP11 MLOAD SWAP1 PUSH2 0xE26 JUMP JUMPDEST SWAP5 DUP3 DUP5 LT ISZERO SWAP2 DUP3 PUSH2 0x190D JUMPI DUP5 ISZERO SWAP1 DUP2 ISZERO PUSH2 0x18FF JUMPI JUMPDEST DUP2 ISZERO PUSH2 0x18F5 JUMPI JUMPDEST POP PUSH2 0x18E9 JUMPI PUSH1 0x2 DUP2 LT ISZERO PUSH2 0x18D6 JUMPI DUP1 PUSH2 0x1872 JUMPI POP POP POP POP POP PUSH2 0x1808 SWAP1 PUSH2 0xE86 JUMP JUMPDEST SWAP2 PUSH0 JUMPDEST DUP2 MLOAD DUP2 LT ISZERO PUSH2 0x1834 JUMPI DUP1 DUP4 PUSH2 0x1823 PUSH2 0x182F SWAP4 DUP6 PUSH2 0xEB8 JUMP JUMPDEST MLOAD AND PUSH2 0x10C4 DUP3 DUP8 PUSH2 0xEB8 JUMP JUMPDEST PUSH2 0x180B JUMP JUMPDEST POP SWAP2 SWAP4 PUSH0 JUMPDEST DUP2 MLOAD DUP2 LT ISZERO PUSH2 0x186C JUMPI DUP1 DUP4 PUSH2 0x1851 PUSH2 0x1867 SWAP4 DUP6 PUSH2 0xEB8 JUMP JUMPDEST MLOAD AND PUSH2 0x10C4 PUSH2 0x1861 DUP4 DUP9 MLOAD PUSH2 0xE26 JUMP JUMPDEST DUP10 PUSH2 0xEB8 JUMP JUMPDEST PUSH2 0x1839 JUMP JUMPDEST POP POP POP POP JUMP JUMPDEST SWAP1 SWAP3 SWAP5 POP PUSH1 0x1 SWAP2 SWAP4 SWAP7 SWAP8 SWAP9 SWAP6 POP EQ PUSH2 0x188E JUMPI JUMPDEST POP POP POP POP SWAP1 POP SWAP1 JUMP JUMPDEST PUSH2 0x18C3 JUMPI POP PUSH1 0x2 DUP2 SUB PUSH2 0x18A9 JUMPI POP POP POP JUMPDEST DUP1 PUSH0 DUP1 DUP1 DUP1 PUSH2 0x1885 JUMP JUMPDEST PUSH1 0x3 SWAP2 SWAP3 SWAP4 POP EQ PUSH2 0x18BB JUMPI JUMPDEST POP PUSH2 0x189F JUMP JUMPDEST SWAP1 POP PUSH0 PUSH2 0x18B5 JUMP JUMPDEST PUSH1 0x21 SWAP1 PUSH4 0x4E487B71 PUSH1 0xE0 SHL PUSH0 MSTORE MSTORE PUSH1 0x24 PUSH0 REVERT JUMPDEST PUSH1 0x21 DUP4 PUSH4 0x4E487B71 PUSH1 0xE0 SHL PUSH0 MSTORE MSTORE PUSH1 0x24 PUSH0 REVERT JUMPDEST POP SWAP3 SWAP8 POP POP POP POP POP POP POP JUMP JUMPDEST SWAP1 POP DUP7 LT PUSH0 PUSH2 0x17E7 JUMP JUMPDEST PUSH0 SWAP4 POP PUSH1 0x1 DUP7 EQ SWAP2 POP PUSH2 0x17E0 JUMP JUMPDEST PUSH1 0x21 DUP5 PUSH4 0x4E487B71 PUSH1 0xE0 SHL PUSH0 MSTORE MSTORE PUSH1 0x24 PUSH0 REVERT JUMPDEST PUSH2 0x1937 SWAP3 SWAP5 POP DUP1 RETURNDATASIZE LT PUSH2 0xAED JUMPI PUSH2 0xADF DUP2 DUP4 PUSH2 0xC91 JUMP JUMPDEST SWAP2 PUSH0 DUP1 PUSH2 0x17BC JUMP JUMPDEST DUP5 DUP2 DUP2 SWAP9 SWAP4 SWAP9 RETURNDATASIZE DUP4 GT PUSH2 0x1972 JUMPI JUMPDEST PUSH2 0x1957 DUP2 DUP4 PUSH2 0xC91 JUMP JUMPDEST DUP2 ADD SUB SLT PUSH2 0x126 JUMPI MLOAD SWAP1 PUSH1 0x2 DUP3 LT ISZERO PUSH2 0x1BE JUMPI POP SWAP5 PUSH0 PUSH2 0x178D JUMP JUMPDEST POP RETURNDATASIZE PUSH2 0x194D JUMP JUMPDEST PUSH1 0x2 PUSH0 SLOAD EQ PUSH2 0x1988 JUMPI PUSH1 0x2 PUSH0 SSTORE JUMP JUMPDEST PUSH1 0x40 MLOAD PUSH3 0x461BCD PUSH1 0xE5 SHL DUP2 MSTORE PUSH1 0x20 PUSH1 0x4 DUP3 ADD MSTORE PUSH1 0x1F PUSH1 0x24 DUP3 ADD MSTORE PUSH32 0x5265656E7472616E637947756172643A207265656E7472616E742063616C6C00 PUSH1 0x44 DUP3 ADD MSTORE PUSH1 0x64 SWAP1 REVERT JUMPDEST SWAP1 DUP2 MLOAD DUP3 ADD SWAP2 PUSH1 0x20 PUSH1 0x60 DUP3 DUP3 DUP7 ADD SWAP6 SUB SLT PUSH2 0xD03 JUMPI DUP1 DUP3 ADD MLOAD SWAP4 PUSH1 0x1 PUSH1 0x1 PUSH1 0x40 SHL SUB SWAP5 DUP6 DUP2 GT PUSH2 0xD03 JUMPI DUP4 ADD SWAP1 DUP1 PUSH1 0x3F DUP4 ADD SLT ISZERO PUSH2 0xD03 JUMPI DUP3 DUP3 ADD MLOAD SWAP6 PUSH2 0x1A13 DUP8 PUSH2 0xE6F JUMP JUMPDEST SWAP3 PUSH1 0x40 SWAP8 PUSH2 0x1A23 DUP10 MLOAD SWAP6 DUP7 PUSH2 0xC91 JUMP JUMPDEST DUP1 DUP6 MSTORE DUP9 DUP7 DUP7 ADD SWAP2 PUSH1 0x5 SHL DUP4 ADD ADD SWAP2 DUP5 DUP4 GT PUSH2 0xD03 JUMPI DUP10 DUP8 SWAP2 ADD SWAP2 JUMPDEST DUP4 DUP4 LT PUSH2 0x1D5C JUMPI POP POP POP POP DUP7 DUP6 ADD MLOAD SWAP1 DUP2 GT PUSH2 0xD03 JUMPI PUSH1 0x60 SWAP2 DUP5 PUSH2 0x1A65 SWAP3 DUP8 ADD ADD PUSH2 0x16DC JUMP JUMPDEST SWAP4 ADD MLOAD SWAP4 DUP2 MLOAD DUP5 MLOAD SUB PUSH2 0x1D02 JUMPI SWAP5 DUP5 SWAP6 PUSH1 0x1 DUP1 PUSH1 0xA0 SHL SUB SWAP4 PUSH1 0x24 DUP2 DUP7 PUSH1 0x5 SLOAD AND DUP6 MLOAD SWAP3 DUP4 DUP1 SWAP3 PUSH4 0x75243D49 PUSH1 0xE1 SHL DUP3 MSTORE PUSH1 0x4 SWAP14 DUP15 DUP4 ADD MSTORE GAS STATICCALL SWAP1 DUP2 ISZERO PUSH2 0x1CF8 JUMPI PUSH0 SWAP2 PUSH2 0x1CDB JUMPI JUMPDEST POP DUP9 DUP2 LT ISZERO PUSH2 0x1CC8 JUMPI PUSH1 0x2 DUP2 EQ SWAP1 DUP2 ISZERO PUSH2 0x1CBD JUMPI JUMPDEST POP ISZERO PUSH2 0x1C71 JUMPI PUSH0 JUMPDEST DUP5 MLOAD DUP2 LT ISZERO PUSH2 0x1AFC JUMPI DUP1 PUSH2 0x10CC DUP8 PUSH2 0x1AE4 PUSH2 0x1AF7 SWAP5 DUP10 PUSH2 0xEB8 JUMP JUMPDEST MLOAD AND PUSH2 0x1AF0 DUP4 DUP12 PUSH2 0xEB8 JUMP JUMPDEST MLOAD SWAP1 PUSH2 0x1D74 JUMP JUMPDEST PUSH2 0x1AC9 JUMP JUMPDEST POP SWAP5 POP SWAP5 SWAP3 SWAP2 POP PUSH1 0x24 DUP2 SWAP7 PUSH0 DUP5 PUSH1 0x5 SLOAD AND DUP5 MLOAD SWAP4 DUP5 DUP1 SWAP3 PUSH4 0x755E66DB PUSH1 0xE1 SHL DUP3 MSTORE DUP10 DUP7 DUP4 ADD MSTORE GAS STATICCALL SWAP2 DUP3 ISZERO PUSH2 0x1C67 JUMPI PUSH2 0x1B5E SWAP5 DUP8 SWAP2 PUSH0 SWAP5 PUSH2 0x1C4C JUMPI JUMPDEST POP PUSH1 0x7 SLOAD AND SWAP2 DUP5 MLOAD SWAP6 DUP7 SWAP5 DUP6 SWAP4 DUP5 SWAP4 PUSH4 0xBAC4CD07 PUSH1 0xE0 SHL DUP6 MSTORE DUP5 ADD MSTORE PUSH1 0x24 DUP4 ADD SWAP1 PUSH2 0xD28 JUMP JUMPDEST SUB SWAP2 GAS STATICCALL SWAP1 DUP2 ISZERO PUSH2 0x1C42 JUMPI PUSH0 SWAP1 DUP2 SWAP3 PUSH2 0x1C22 JUMPI JUMPDEST POP DUP1 PUSH2 0x1C12 JUMPI JUMPDEST POP POP PUSH0 MSTORE PUSH1 0x2 DUP2 MSTORE DUP3 PUSH0 KECCAK256 SWAP3 DUP1 MLOAD DUP1 DUP6 DUP5 DUP3 SWAP8 SLOAD SWAP4 DUP5 DUP2 MSTORE ADD SWAP1 PUSH0 MSTORE DUP5 PUSH0 KECCAK256 SWAP3 PUSH0 JUMPDEST DUP7 DUP3 DUP3 LT PUSH2 0x1BFC JUMPI POP POP POP PUSH2 0x1BB2 SWAP3 POP SUB DUP6 PUSH2 0xC91 JUMP JUMPDEST PUSH0 JUMPDEST DUP5 MLOAD DUP2 LT ISZERO PUSH2 0x1BF5 JUMPI DUP1 PUSH2 0x1BCB PUSH2 0x1BF0 SWAP3 DUP8 PUSH2 0xEB8 JUMP JUMPDEST MLOAD PUSH0 SWAP1 DUP2 MSTORE PUSH1 0x1 DUP1 DUP7 MSTORE SWAP1 DUP5 SWAP1 KECCAK256 ADD DUP1 SLOAD PUSH1 0xFF PUSH1 0xA0 SHL NOT AND PUSH1 0x1 PUSH1 0xA0 SHL OR SWAP1 SSTORE PUSH2 0xE61 JUMP JUMPDEST PUSH2 0x1BB4 JUMP JUMPDEST POP POP POP SWAP1 POP JUMP JUMPDEST DUP6 SLOAD DUP5 MSTORE PUSH1 0x1 SWAP6 DUP7 ADD SWAP6 DUP11 SWAP6 POP SWAP4 ADD SWAP3 ADD PUSH2 0x1B9B JUMP JUMPDEST PUSH2 0x1C1B SWAP2 PUSH2 0x1D74 JUMP JUMPDEST PUSH0 DUP1 PUSH2 0x1B79 JUMP JUMPDEST SWAP1 POP PUSH2 0x1C3B SWAP2 POP DUP6 RETURNDATASIZE DUP8 GT PUSH2 0xA47 JUMPI PUSH2 0xA37 DUP2 DUP4 PUSH2 0xC91 JUMP JUMPDEST SWAP1 PUSH0 PUSH2 0x1B72 JUMP JUMPDEST DUP6 MLOAD RETURNDATASIZE PUSH0 DUP3 RETURNDATACOPY RETURNDATASIZE SWAP1 REVERT JUMPDEST PUSH2 0x1C60 SWAP2 SWAP5 RETURNDATASIZE DUP1 SWAP2 DUP4 RETURNDATACOPY PUSH2 0x9B7 DUP2 DUP4 PUSH2 0xC91 JUMP JUMPDEST SWAP3 PUSH0 PUSH2 0x1B38 JUMP JUMPDEST DUP4 MLOAD RETURNDATASIZE PUSH0 DUP3 RETURNDATACOPY RETURNDATASIZE SWAP1 REVERT JUMPDEST DUP8 PUSH1 0x84 SWAP2 DUP5 MLOAD SWAP2 PUSH3 0x461BCD PUSH1 0xE5 SHL DUP4 MSTORE DUP3 ADD MSTORE PUSH1 0x21 PUSH1 0x24 DUP3 ADD MSTORE PUSH32 0x506F7374206D757374206265206163636570746564206F722072656A65637465 PUSH1 0x44 DUP3 ADD MSTORE PUSH1 0x19 PUSH1 0xFA SHL PUSH1 0x64 DUP3 ADD MSTORE REVERT JUMPDEST PUSH1 0x3 SWAP2 POP EQ PUSH0 PUSH2 0x1AC1 JUMP JUMPDEST PUSH1 0x21 DUP10 PUSH4 0x4E487B71 PUSH1 0xE0 SHL PUSH0 MSTORE MSTORE PUSH1 0x24 PUSH0 REVERT JUMPDEST PUSH2 0x1CF2 SWAP2 POP DUP3 RETURNDATASIZE DUP5 GT PUSH2 0xAED JUMPI PUSH2 0xADF DUP2 DUP4 PUSH2 0xC91 JUMP JUMPDEST PUSH0 PUSH2 0x1AAC JUMP JUMPDEST DUP5 MLOAD RETURNDATASIZE PUSH0 DUP3 RETURNDATACOPY RETURNDATASIZE SWAP1 REVERT JUMPDEST DUP6 MLOAD PUSH3 0x461BCD PUSH1 0xE5 SHL DUP2 MSTORE PUSH1 0x4 DUP2 ADD DUP5 SWAP1 MSTORE PUSH1 0x2D PUSH1 0x24 DUP3 ADD MSTORE PUSH32 0x41646472657373657320616E6420616D6F756E7473206D757374206265207468 PUSH1 0x44 DUP3 ADD MSTORE PUSH13 0xCA40E6C2DACA40D8CADCCEE8D PUSH1 0x9B SHL PUSH1 0x64 DUP3 ADD MSTORE PUSH1 0x84 SWAP1 REVERT JUMPDEST DUP2 SWAP1 PUSH2 0x1D67 DUP5 PUSH2 0xDF8 JUMP JUMPDEST DUP2 MSTORE ADD SWAP2 ADD SWAP1 DUP7 SWAP1 PUSH2 0x1A3F JUMP JUMPDEST SWAP1 DUP1 ISZERO PUSH2 0x1E2A JUMPI PUSH0 DUP1 DUP1 DUP1 DUP5 DUP7 GAS CALL RETURNDATASIZE ISZERO PUSH2 0x1E25 JUMPI RETURNDATASIZE PUSH2 0x1D93 DUP2 PUSH2 0xCB2 JUMP JUMPDEST SWAP1 PUSH2 0x1DA1 PUSH1 0x40 MLOAD SWAP3 DUP4 PUSH2 0xC91 JUMP JUMPDEST DUP2 MSTORE PUSH0 PUSH1 0x20 RETURNDATASIZE SWAP3 ADD RETURNDATACOPY JUMPDEST ISZERO PUSH2 0x1DEE JUMPI PUSH1 0x40 DUP1 MLOAD PUSH1 0x1 PUSH1 0x1 PUSH1 0xA0 SHL SUB SWAP1 SWAP4 AND DUP4 MSTORE PUSH1 0x20 DUP4 ADD SWAP2 SWAP1 SWAP2 MSTORE PUSH32 0x31DD4C1BC893BD53887B59C36C1A1B9F60960FA64C231AD0CD3603A1914BDA35 SWAP2 LOG1 JUMP JUMPDEST PUSH1 0x40 MLOAD PUSH3 0x461BCD PUSH1 0xE5 SHL DUP2 MSTORE PUSH1 0x20 PUSH1 0x4 DUP3 ADD MSTORE PUSH1 0xF PUSH1 0x24 DUP3 ADD MSTORE PUSH15 0x151C985B9CD9995C8819985A5B1959 PUSH1 0x8A SHL PUSH1 0x44 DUP3 ADD MSTORE PUSH1 0x64 SWAP1 REVERT JUMPDEST PUSH2 0x1DAB JUMP JUMPDEST PUSH1 0x64 PUSH1 0x40 MLOAD PUSH3 0x461BCD PUSH1 0xE5 SHL DUP2 MSTORE PUSH1 0x20 PUSH1 0x4 DUP3 ADD MSTORE PUSH1 0x20 PUSH1 0x24 DUP3 ADD MSTORE PUSH32 0x416D6F756E74206D7573742062652067726561746572207468616E207A65726F PUSH1 0x44 DUP3 ADD MSTORE REVERT JUMPDEST ISZERO PUSH2 0x1E75 JUMPI JUMP JUMPDEST PUSH1 0x40 MLOAD PUSH3 0x461BCD PUSH1 0xE5 SHL DUP2 MSTORE PUSH1 0x20 PUSH1 0x4 DUP3 ADD MSTORE PUSH1 0x22 PUSH1 0x24 DUP3 ADD MSTORE PUSH32 0x4F6E6C79206F776E65722063616E20706572666F726D20746869732061637469 PUSH1 0x44 DUP3 ADD MSTORE PUSH2 0x37B7 PUSH1 0xF1 SHL PUSH1 0x64 DUP3 ADD MSTORE PUSH1 0x84 SWAP1 REVERT INVALID LOG2 PUSH5 0x6970667358 0x22 SLT KECCAK256 0xCB MOD PUSH1 0x2A SGT SWAP7 0xEA 0xB2 0xD8 MSIZE 0xC 0xC9 0xA9 CALLDATALOAD INVALID 0xEF SWAP15 JUMPDEST 0xDB 0xD3 CALLCODE CALLCODE SELFBALANCE DUP13 0xA5 CALLDATASIZE 0xEB STATICCALL 0xC1 0xF8 0xEB LOG3 PUSH5 0x736F6C6343 STOP ADDMOD EQ STOP CALLER "},"methodIdentifiers":{"AutomationContractAddress()":"24c328f2","GetPostSubmissionBounties(uint256)":"37b308ac","bounties(uint256)":"dc2f8744","bountiesId()":"8547cb8c","checkLog((uint256,uint256,bytes32,uint256,bytes32,address,bytes32[],bytes),bytes)":"40691db4","createBounty(uint256)":"3f28e9fb","fee()":"ddca3f43","manualUpkeep(uint256)":"4db9e207","owner()":"8da5cb5b","performUpkeep(bytes)":"4585e33b","postSubmissionBounties(uint256,uint256)":"c4ba65bb","setAutomationContractAddress(address)":"ac7f3d7b","setFee(uint256)":"69fe0e2d","setTgetherCommunityConsensusAddress(address)":"b31926f4","setTgetherFundAddress(address)":"a383135e","setTgetherIncentivesAddress(address)":"2bf2f01a","setTgetherPostConsensusAddress(address)":"bab488be","tgetherCommunityConsensusContract()":"0ee1bd25","tgetherFundContract()":"b9935ac3","tgetherIncentivesContract()":"1e28b1c8","tgetherPostConsensusContract()":"4c87e49b"}}}}}