{"contracts/learntgehterArticles.sol":{"learntgetherArticles":{"abi":[{"inputs":[{"internalType":"address","name":"_orchestrationContract","type":"address"},{"internalType":"address","name":"_automationContract","type":"address"},{"internalType":"address","name":"_linkTokenAddress","type":"address"}],"stateMutability":"nonpayable","type":"constructor"},{"anonymous":false,"inputs":[{"indexed":true,"internalType":"address","name":"owner","type":"address"},{"indexed":true,"internalType":"address","name":"approved","type":"address"},{"indexed":true,"internalType":"uint256","name":"tokenId","type":"uint256"}],"name":"Approval","type":"event"},{"anonymous":false,"inputs":[{"indexed":true,"internalType":"address","name":"owner","type":"address"},{"indexed":true,"internalType":"address","name":"operator","type":"address"},{"indexed":false,"internalType":"bool","name":"approved","type":"bool"}],"name":"ApprovalForAll","type":"event"},{"anonymous":false,"inputs":[{"indexed":true,"internalType":"uint256","name":"articleId","type":"uint256"},{"indexed":true,"internalType":"address","name":"author","type":"address"},{"indexed":false,"internalType":"string","name":"title","type":"string"},{"indexed":false,"internalType":"string","name":"subject","type":"string"},{"indexed":false,"internalType":"string","name":"ipfsHash","type":"string"},{"indexed":false,"internalType":"string","name":"description","type":"string"}],"name":"ArticleMinted","type":"event"},{"anonymous":false,"inputs":[{"indexed":true,"internalType":"uint256","name":"articleId","type":"uint256"},{"indexed":false,"internalType":"uint256","name":"newConsensus","type":"uint256"}],"name":"ConsensusUpdated","type":"event"},{"anonymous":false,"inputs":[{"indexed":true,"internalType":"address","name":"previousOwner","type":"address"},{"indexed":true,"internalType":"address","name":"newOwner","type":"address"}],"name":"OwnershipTransferred","type":"event"},{"anonymous":false,"inputs":[{"indexed":true,"internalType":"uint256","name":"articleId","type":"uint256"},{"indexed":true,"internalType":"address","name":"reviewer","type":"address"},{"indexed":false,"internalType":"uint256","name":"consensus","type":"uint256"},{"indexed":false,"internalType":"uint256","name":"creds","type":"uint256"},{"indexed":false,"internalType":"string","name":"ipfsHash","type":"string"}],"name":"ReviewSubmitted","type":"event"},{"anonymous":false,"inputs":[{"indexed":true,"internalType":"address","name":"from","type":"address"},{"indexed":true,"internalType":"address","name":"to","type":"address"},{"indexed":true,"internalType":"uint256","name":"tokenId","type":"uint256"}],"name":"Transfer","type":"event"},{"inputs":[],"name":"AutomationContract","outputs":[{"internalType":"contract ChainlinkAutomation","name":"","type":"address"}],"stateMutability":"view","type":"function"},{"inputs":[],"name":"OrchestrationContract","outputs":[{"internalType":"contract OrchestrationContractInterface","name":"","type":"address"}],"stateMutability":"view","type":"function"},{"inputs":[{"internalType":"address","name":"to","type":"address"},{"internalType":"uint256","name":"tokenId","type":"uint256"}],"name":"approve","outputs":[],"stateMutability":"nonpayable","type":"function"},{"inputs":[{"internalType":"uint256","name":"","type":"uint256"},{"internalType":"uint256","name":"","type":"uint256"}],"name":"articleReviews","outputs":[{"internalType":"address","name":"reviewer","type":"address"},{"internalType":"string","name":"ipfsHash","type":"string"},{"internalType":"uint256","name":"consensous","type":"uint256"},{"internalType":"uint256","name":"creds","type":"uint256"}],"stateMutability":"view","type":"function"},{"inputs":[{"internalType":"uint256","name":"","type":"uint256"}],"name":"articles","outputs":[{"internalType":"string","name":"ipfsHash","type":"string"},{"internalType":"string","name":"title","type":"string"},{"internalType":"address","name":"authorAddress","type":"address"},{"internalType":"string","name":"authorName","type":"string"},{"internalType":"string","name":"description","type":"string"},{"internalType":"string","name":"subject","type":"string"},{"internalType":"uint256","name":"consensous","type":"uint256"},{"internalType":"uint256","name":"timestamp","type":"uint256"}],"stateMutability":"view","type":"function"},{"inputs":[{"internalType":"address","name":"owner","type":"address"}],"name":"balanceOf","outputs":[{"internalType":"uint256","name":"","type":"uint256"}],"stateMutability":"view","type":"function"},{"inputs":[{"internalType":"bytes","name":"","type":"bytes"}],"name":"checkUpKeep","outputs":[{"internalType":"bool","name":"upkeepNeeded","type":"bool"},{"internalType":"bytes","name":"","type":"bytes"}],"stateMutability":"view","type":"function"},{"inputs":[{"internalType":"uint256","name":"tokenId","type":"uint256"}],"name":"getApproved","outputs":[{"internalType":"address","name":"","type":"address"}],"stateMutability":"view","type":"function"},{"inputs":[{"internalType":"uint256","name":"tokenId","type":"uint256"}],"name":"getArticle","outputs":[{"components":[{"internalType":"string","name":"ipfsHash","type":"string"},{"internalType":"string","name":"title","type":"string"},{"internalType":"address","name":"authorAddress","type":"address"},{"internalType":"string","name":"authorName","type":"string"},{"internalType":"string","name":"description","type":"string"},{"internalType":"string","name":"subject","type":"string"},{"internalType":"uint256","name":"consensous","type":"uint256"},{"internalType":"uint256","name":"timestamp","type":"uint256"}],"internalType":"struct learntgetherArticles.Article","name":"","type":"tuple"}],"stateMutability":"view","type":"function"},{"inputs":[{"internalType":"string","name":"_ipfsHash","type":"string"}],"name":"getArticleByHash","outputs":[{"internalType":"string","name":"ipfsHash","type":"string"},{"internalType":"string","name":"title","type":"string"},{"internalType":"address","name":"authorAddress","type":"address"},{"internalType":"string","name":"authorName","type":"string"},{"internalType":"string","name":"description","type":"string"},{"internalType":"string","name":"subject","type":"string"},{"internalType":"uint256","name":"consensous","type":"uint256"},{"internalType":"uint256","name":"timestamp","type":"uint256"}],"stateMutability":"nonpayable","type":"function"},{"inputs":[{"internalType":"uint256","name":"_articleId","type":"uint256"}],"name":"getReviewsForArticle","outputs":[{"components":[{"internalType":"address","name":"reviewer","type":"address"},{"internalType":"string","name":"ipfsHash","type":"string"},{"internalType":"uint256","name":"consensous","type":"uint256"},{"internalType":"uint256","name":"creds","type":"uint256"}],"internalType":"struct learntgetherArticles.Review[]","name":"","type":"tuple[]"}],"stateMutability":"view","type":"function"},{"inputs":[{"internalType":"string","name":"","type":"string"}],"name":"ipfsHashToTokenId","outputs":[{"internalType":"uint256","name":"","type":"uint256"}],"stateMutability":"view","type":"function"},{"inputs":[{"internalType":"address","name":"owner","type":"address"},{"internalType":"address","name":"operator","type":"address"}],"name":"isApprovedForAll","outputs":[{"internalType":"bool","name":"","type":"bool"}],"stateMutability":"view","type":"function"},{"inputs":[{"internalType":"string","name":"_ipfsHash","type":"string"},{"internalType":"string","name":"_title","type":"string"},{"internalType":"string","name":"_authorName","type":"string"},{"internalType":"string","name":"_description","type":"string"},{"internalType":"string","name":"_subject","type":"string"}],"name":"mintArticle","outputs":[{"internalType":"uint256","name":"","type":"uint256"}],"stateMutability":"nonpayable","type":"function"},{"inputs":[],"name":"name","outputs":[{"internalType":"string","name":"","type":"string"}],"stateMutability":"view","type":"function"},{"inputs":[],"name":"openVoteTime","outputs":[{"internalType":"uint256","name":"","type":"uint256"}],"stateMutability":"view","type":"function"},{"inputs":[],"name":"owner","outputs":[{"internalType":"address","name":"","type":"address"}],"stateMutability":"view","type":"function"},{"inputs":[{"internalType":"uint256","name":"tokenId","type":"uint256"}],"name":"ownerOf","outputs":[{"internalType":"address","name":"","type":"address"}],"stateMutability":"view","type":"function"},{"inputs":[{"internalType":"bytes","name":"","type":"bytes"}],"name":"performUpkeep","outputs":[],"stateMutability":"nonpayable","type":"function"},{"inputs":[],"name":"proposalFeeInLink","outputs":[{"internalType":"uint256","name":"","type":"uint256"}],"stateMutability":"view","type":"function"},{"inputs":[],"name":"proposalQueueCounter","outputs":[{"internalType":"uint256","name":"","type":"uint256"}],"stateMutability":"view","type":"function"},{"inputs":[],"name":"renounceOwnership","outputs":[],"stateMutability":"nonpayable","type":"function"},{"inputs":[{"internalType":"address","name":"from","type":"address"},{"internalType":"address","name":"to","type":"address"},{"internalType":"uint256","name":"tokenId","type":"uint256"}],"name":"safeTransferFrom","outputs":[],"stateMutability":"nonpayable","type":"function"},{"inputs":[{"internalType":"address","name":"from","type":"address"},{"internalType":"address","name":"to","type":"address"},{"internalType":"uint256","name":"tokenId","type":"uint256"},{"internalType":"bytes","name":"_data","type":"bytes"}],"name":"safeTransferFrom","outputs":[],"stateMutability":"nonpayable","type":"function"},{"inputs":[{"internalType":"uint256","name":"tokenId","type":"uint256"},{"internalType":"address","name":"contractAddress","type":"address"}],"name":"sendArticleToContract","outputs":[],"stateMutability":"nonpayable","type":"function"},{"inputs":[{"internalType":"address","name":"operator","type":"address"},{"internalType":"bool","name":"approved","type":"bool"}],"name":"setApprovalForAll","outputs":[],"stateMutability":"nonpayable","type":"function"},{"inputs":[{"internalType":"address","name":"_contractAddress","type":"address"}],"name":"setAutomationRegistry","outputs":[],"stateMutability":"nonpayable","type":"function"},{"inputs":[{"internalType":"uint256","name":"_feePrice","type":"uint256"}],"name":"setFee","outputs":[],"stateMutability":"nonpayable","type":"function"},{"inputs":[{"internalType":"uint256","name":"_votetime","type":"uint256"}],"name":"setOpenVoteTime","outputs":[],"stateMutability":"nonpayable","type":"function"},{"inputs":[{"internalType":"uint256","name":"_upkeepId","type":"uint256"}],"name":"setUpkkepId","outputs":[],"stateMutability":"nonpayable","type":"function"},{"inputs":[{"internalType":"uint256","name":"_articleId","type":"uint256"},{"internalType":"string","name":"_ipfsHash","type":"string"},{"internalType":"uint256","name":"_consensous","type":"uint256"}],"name":"submitReview","outputs":[],"stateMutability":"nonpayable","type":"function"},{"inputs":[{"internalType":"bytes4","name":"interfaceId","type":"bytes4"}],"name":"supportsInterface","outputs":[{"internalType":"bool","name":"","type":"bool"}],"stateMutability":"view","type":"function"},{"inputs":[],"name":"symbol","outputs":[{"internalType":"string","name":"","type":"string"}],"stateMutability":"view","type":"function"},{"inputs":[{"internalType":"uint256","name":"index","type":"uint256"}],"name":"tokenByIndex","outputs":[{"internalType":"uint256","name":"","type":"uint256"}],"stateMutability":"view","type":"function"},{"inputs":[{"internalType":"address","name":"owner","type":"address"},{"internalType":"uint256","name":"index","type":"uint256"}],"name":"tokenOfOwnerByIndex","outputs":[{"internalType":"uint256","name":"","type":"uint256"}],"stateMutability":"view","type":"function"},{"inputs":[{"internalType":"uint256","name":"tokenId","type":"uint256"}],"name":"tokenURI","outputs":[{"internalType":"string","name":"","type":"string"}],"stateMutability":"view","type":"function"},{"inputs":[],"name":"totalSupply","outputs":[{"internalType":"uint256","name":"","type":"uint256"}],"stateMutability":"view","type":"function"},{"inputs":[{"internalType":"address","name":"from","type":"address"},{"internalType":"address","name":"to","type":"address"},{"internalType":"uint256","name":"tokenId","type":"uint256"}],"name":"transferFrom","outputs":[],"stateMutability":"nonpayable","type":"function"},{"inputs":[{"internalType":"address","name":"newOwner","type":"address"}],"name":"transferOwnership","outputs":[],"stateMutability":"nonpayable","type":"function"},{"inputs":[],"name":"upkeepId","outputs":[{"internalType":"uint256","name":"","type":"uint256"}],"stateMutability":"view","type":"function"}],"evm":{"bytecode":{"linkReferences":{},"object":"6080346200041657601f6200379438819003828101601f199081168501946001600160401b0394939092908587118488101762000402578160609285926040998a52833981010312620004165762000057826200043a565b60209462000074876200006c8887016200043a565b95016200043a565b936200007f6200041a565b91601483527f4c6561726e7467657468657241727469636c657300000000000000000000000088840152620000b36200041a565b96600397888152624c544160e81b8a82015284518381116200040257805f96620000de88546200044f565b8d868211620003d1575b50508c908583116001146200036e57889262000362575b50508160011b915f19908c1b1c19161785555b80519283116200034e579082916001976200012e89546200044f565b8c84821162000312575b50508b928411600114620002b357508592620002a7575b50505f1982891b1c191690851b1784555b87600a5492600c60018060a01b031999338b871617600a5560018060a01b03998a988997883391167f8be0079c531659141344cd1fd0a4f28419497f9722a3daafe3b4186f6b6457e08780a3848052838352858520620001cc620001c582546200044f565b82620004a2565b601c6d5265766965772050656e64696e6760901b0190558452828252848420620001fb620001c582546200044f565b6010671058d8d95c1d195960c21b0190556002845282825284842062000226620001c582546200044f565b60106714995a9958dd195960c21b019055835252206200024b620001c582546200044f565b60267f52657669736520616e642052657375626d69740000000000000000000000000001905516808660115416176011558560125416176012551683601354161760135516906010541617601055516132c69081620004ce8239f35b015190505f806200014f565b8887528b872089959093929116875b8d828210620002fb5750508411620002e3575b505050811b01845562000160565b01515f19838b1b60f8161c191690555f8080620002d5565b8385015186558b97909501949384019301620002c2565b6200033c918b8a5285828b209181890160051c830193891062000344575b0160051c01906200048a565b5f8c62000138565b9250819262000330565b634e487b7160e01b85526041600452602485fd5b015190505f80620000ff565b8880528d8920928b16898f5b828210620003b9575050908460019594939210620003a1575b505050811b01855562000112565b01515f19838e1b60f8161c191690555f808062000393565b60018596829396860151815501950193018f6200037a565b620003fa918a805287828c209181870160051c830193871062000344570160051c01906200048a565b5f8d620000e8565b634e487b7160e01b5f52604160045260245ffd5b5f80fd5b60408051919082016001600160401b038111838210176200040257604052565b51906001600160a01b03821682036200041657565b90600182811c921680156200047f575b60208310146200046b57565b634e487b7160e01b5f52602260045260245ffd5b91607f16916200045f565b81811062000496575050565b5f81556001016200048a565b90601f8111620004b0575050565b620004cb915f52601f60205f20910160051c8101906200048a565b56fe60806040526004361015610011575f80fd5b5f3560e01c806301ffc9a71461029457806306fdde031461028f578063081812fc1461028a578063095ea7b31461028557806318160ddd146102805780632056b05f1461027b57806323b872dd146102765780632f745c59146102715780633e7c20421461026c578063408958d61461026757806342842e0e146102625780634585e33b1461025d57806348d6c25b146102585780634f6ccce7146102535780635787a0cc1461024e5780635e6c102e146102495780635f23b056146102445780635ff2d2aa1461023f5780636352211e1461023a5780636356eea41461023557806369fe0e2d146102305780636fd00fc81461022b57806370a0823114610226578063715018a6146102215780637823e2261461021c5780638640f718146102175780638da5cb5b1461021257806395d89b411461020d5780639b1cb58e146102085780639cd2cadc14610203578063a22cb465146101fe578063ae1d47c9146101f9578063b88d4fde146101f4578063bd85d867146101ef578063bfc67d9a146101ea578063c87b56dd146101e5578063d2aa789f146101e0578063e985e9c5146101db578063edcfafe6146101d65763f2fde38b146101d1575f80fd5b611bb3565b611b19565b611abd565b611aa0565b6119c6565b6119a5565b611876565b611770565b6116c1565b6115dd565b6115b6565b611599565b611515565b6114ed565b6114bf565b6114a2565b611442565b611417565b61132c565b611259565b6110e8565b6110ca565b611078565b610fce565b610ec3565b610e95565b610deb565b610dc3565b610b1a565b610aaa565b610a82565b610a0c565b610775565b61074c565b610650565b6105a3565b6104b7565b61045b565b61039b565b6102af565b6001600160e01b03198116036102ab57565b5f80fd5b346102ab5760203660031901126102ab5760206004356102ce81610299565b63ffffffff60e01b1663780e9d6360e01b81149081156102f4575b506040519015158152f35b6380ac58cd60e01b811491508115610326575b8115610315575b505f6102e9565b6301ffc9a760e01b1490505f61030e565b635b5e139f60e01b81149150610307565b5f9103126102ab57565b5f5b8381106103525750505f910152565b8181015183820152602001610343565b9060209161037b81518092818552858086019101610341565b601f01601f1916010190565b906020610398928181520190610362565b90565b346102ab575f80600319360112610458576040518180546103bb81610859565b8084529060019081811690811561043057506001146103f5575b6103f1846103e58188038261099b565b60405191829182610387565b0390f35b93508180526020938483205b82841061041d57505050816103f1936103e592820101936103d5565b8054858501870152928501928101610401565b6103f196506103e59450602092508593915060ff191682840152151560051b820101936103d5565b80fd5b346102ab5760203660031901126102ab576020610479600435611e48565b6040516001600160a01b039091168152f35b600435906001600160a01b03821682036102ab57565b602435906001600160a01b03821682036102ab57565b346102ab5760403660031901126102ab576104d061048b565b6024356104dc81611d52565b916001600160a01b0380841690821681146105545761050e93610509913314908115610510575b50611ddb565b612313565b005b6001600160a01b03165f90815260056020526040902061054e91506105479033905b9060018060a01b03165f5260205260405f2090565b5460ff1690565b5f610503565b60405162461bcd60e51b815260206004820152602160248201527f4552433732313a20617070726f76616c20746f2063757272656e74206f776e656044820152603960f91b6064820152608490fd5b346102ab575f3660031901126102ab576020600854604051908152f35b602080820190808352835180925260409283810182858560051b8401019601945f925b8584106105f4575050505050505090565b909192939495968580600192603f198582030187528a5190848060a01b03825116815261062d8383015160808086850152830190610362565b9187810151888301526060809101519101529901940194019295949391906105e3565b346102ab576020806003193601126102ab5760049081355f52600d8152604091825f20908154916001600160401b03831161071257845193610697818560051b018661099b565b8385525f9182528082208186015b8584106106b9578751806103f189826105c0565b84836001928a516106c981610936565b848060a01b0386541681528b516106ed816106e681898b01610891565b038261099b565b8382015260028601548c820152600386015460608201528152019201930192906106a5565b610922565b60609060031901126102ab576001600160a01b039060043582811681036102ab579160243590811681036102ab579060443590565b346102ab5761050e61075d36610717565b9161077061076b8433612002565b611eca565b612180565b346102ab5760403660031901126102ab5761078e61048b565b6024359061079b81611cdc565b8210156107ce576001600160a01b03165f9081526006602090815260408083209383529281529082902054915191825290f35b60405162461bcd60e51b815260206004820152602b60248201527f455243373231456e756d657261626c653a206f776e657220696e646578206f7560448201526a74206f6620626f756e647360a81b6064820152608490fd5b634e487b7160e01b5f52603260045260245ffd5b8054821015610854575f5260205f209060021b01905f90565b610827565b90600182811c92168015610887575b602083101461087357565b634e487b7160e01b5f52602260045260245ffd5b91607f1691610868565b905f92918054916108a183610859565b9182825260019384811690815f146108ff57506001146108c2575b50505050565b90919394505f52602092835f2092845f945b8386106108eb57505050500101905f8080806108bc565b8054858701830152940193859082016108d4565b9294505050602093945060ff191683830152151560051b0101905f8080806108bc565b634e487b7160e01b5f52604160045260245ffd5b608081019081106001600160401b0382111761071257604052565b61010081019081106001600160401b0382111761071257604052565b6001600160401b03811161071257604052565b602081019081106001600160401b0382111761071257604052565b90601f801991011681019081106001600160401b0382111761071257604052565b906109d76109d09260405193848092610891565b038361099b565b565b6001600160a01b03909116815260806020820181905292949392606092610a0291830190610362565b9460408201520152565b346102ab5760403660031901126102ab576024356004355f52600d60205260405f209081548110156102ab57610a419161083b565b5060018060a01b038154166103f160405192610a6b84610a648160018501610891565b038561099b565b6003600282015491015490604051948594856109d9565b346102ab575f3660031901126102ab576011546040516001600160a01b039091168152602090f35b346102ab5761050e610abb36610717565b9060405192610ac984610980565b5f8452611f43565b9060206003198301126102ab576004356001600160401b03928382116102ab57806023830112156102ab5781600401359384116102ab57602484830101116102ab576024019190565b346102ab57610b2836610ad1565b5050601654610b4f6007610b44835f52600e60205260405f2090565b015460155490612173565b4211610b5757005b601354610baf90600590610b8e90610b7f906001600160a01b03165b6001600160a01b031690565b935f52600e60205260405f2090565b0160409283519163d39686a760e01b835282806060958693600483016131bb565b03815f80955af1928315610dbe578182938395610d88575b50601654610be5610be0825f52600d60205260405f2090565b6131cc565b918251105f14610c7857505050505050610c73610c6b61050e92610c1f6006610c186016545f52600e60205260405f2090565b0160029055565b7fdf1d8803086d741b575c965086104b4857dc93dae33b008f5bc631f432fe0e7f6016549283926006610c5a855f52600e60205260405f2090565b015490519081529081906020820190565b0390a2612783565b601655565b83948491855b8451811015610d0a578286610c938388613266565b5101511015610cab575b610ca690612783565b610c7e565b959660018a610cba8988613266565b51015103610cef57610ce6610ce0610ca69288610cd78b8a613266565b51015190612173565b98612783565b965b9050610c9d565b969592610d04610ca69187610cd78789613266565b93610ce8565b5093505094610c7395610d30610c6b9693610d2861050e9a9761327a565b905190612791565b92119182610d7d575b505015610d665750610d616006610d5a6016545f52600e60205260405f2090565b0160019055565b610c1f565b6006610c18610d61925f52600e60205260405f2090565b101590505f80610d39565b91945050610dad919250833d8511610db7575b610da5818361099b565b8101906128db565b939092915f610bc7565b503d610d9b565b6123e5565b346102ab575f3660031901126102ab576013546040516001600160a01b039091168152602090f35b346102ab5760203660031901126102ab57600435600854811015610e3b5760085f527ff3f7a9fe364faab93b216da50a3214154f22a0a2b415b23a84c8169e8b636ee30154604051908152602090f35b60405162461bcd60e51b815260206004820152602c60248201527f455243373231456e756d657261626c653a20676c6f62616c20696e646578206f60448201526b7574206f6620626f756e647360a01b6064820152608490fd5b346102ab5760203660031901126102ab57610ebb60018060a01b03600a54163314611c49565b600435601755005b346102ab57610ed136610ad1565b50506016545f526020600e8152600760405f200154906015548201809211610f43576040519142118252604081830152816060918251908160408401525f5b828110610f2e5750505f828201840152601f01601f19168101030190f35b60808101518682018601528593508101610f10565b612135565b604051906109d782610936565b604051906109d782610951565b6001600160401b03811161071257601f01601f191660200190565b929192610f8982610f62565b91610f97604051938461099b565b8294818452818301116102ab578281602093845f960137010152565b9080601f830112156102ab5781602061039893359101610f7d565b346102ab5760a03660031901126102ab576001600160401b03600480358281116102ab57610fff9036908301610fb3565b6024358381116102ab576110169036908401610fb3565b6044358481116102ab5761102d9036908501610fb3565b6064358581116102ab576110449036908601610fb3565b916084359586116102ab57611062611068956103f197369101610fb3565b93612c02565b6040519081529081906020820190565b346102ab5760203660031901126102ab5761109161048b565b600a546001600160a01b0391906110ab9083163314611c49565b1660018060a01b03198181601154161760115560125416176012555f80f35b346102ab5760203660031901126102ab576020610479600435611d52565b346102ab5760603660031901126102ab576024356004356001600160401b0382116102ab5761111c5f923690600401610fb3565b906044359061113261112d82611fe6565b612fed565b6013546020906111809061114e906001600160a01b0316610b73565b6005611162855f52600e60205260405f2090565b0160405197888094819363598f921b60e01b83523360048401613041565b03925af1918215610dbe5761050e945f93611203575b50817f1c70a9494d995a031d308f3b6a0a2d15c50b9103e38461cea81bac8eb4a0dd8f6111fe94956111c6610f48565b338152968160208901528460408901528060608901526111ed604051928392339784613063565b0390a35f52600d60205260405f2090565b61307f565b6111fe93507f1c70a9494d995a031d308f3b6a0a2d15c50b9103e38461cea81bac8eb4a0dd8f61124a849260203d8111611252575b611242818361099b565b810190613032565b945050611196565b503d611238565b346102ab5760203660031901126102ab5761127f60018060a01b03600a54163314611c49565b600435601455005b60206003198201126102ab57600435906001600160401b0382116102ab5761039891600401610fb3565b949060e09693611322956112e9611314956112db611306959e9d9c9e610100808d528c0190610362565b908a820360208c0152610362565b6001600160a01b0390921660408901528782036060890152610362565b908582036080870152610362565b9083820360a0850152610362565b9460c08201520152565b346102ab5761133a36611287565b6113438161197f565b54156113c8576113556113649161197f565b545f52600e60205260405f2090565b60028101546001600160a01b03166103f16006830154600784015490611389856109bc565b93611396600187016109bc565b956113a3600382016109bc565b6113bb60056113b4600485016109bc565b93016109bc565b92604051988998896112b1565b60405162461bcd60e51b815260206004820152602160248201527f495046532068617368206e6f7420617474616368656420746f2041727469636c6044820152606560f81b6064820152608490fd5b346102ab5760203660031901126102ab57602061143a61143561048b565b611cdc565b604051908152f35b346102ab575f8060031936011261045857600a5481906001600160a01b0381169061146e338314611c49565b6001600160a01b031916600a557f8be0079c531659141344cd1fd0a4f28419497f9722a3daafe3b4186f6b6457e08280a380f35b346102ab575f3660031901126102ab576020601454604051908152f35b346102ab5760203660031901126102ab576114e560018060a01b03600a54163314611c49565b600435601555005b346102ab575f3660031901126102ab57600a546040516001600160a01b039091168152602090f35b346102ab575f806003193601126104585760405181600180549061153882610859565b80855291818116908115610430575060011461155e576103f1846103e58188038261099b565b80945082526020938483205b82841061158657505050816103f1936103e592820101936103d5565b805485850187015292850192810161156a565b346102ab575f3660031901126102ab576020601554604051908152f35b346102ab575f3660031901126102ab576020601654604051908152f35b801515036102ab57565b346102ab5760403660031901126102ab576115f661048b565b602435611602816115d3565b6001600160a01b03821691338314611680578161163d61164e92335f52600560205260405f209060018060a01b03165f5260205260405f2090565b9060ff801983541691151516179055565b604051901515815233907f17307eab39ab6107e8899845ad3d59bd9653f200f220920489ca2b5937696c3190602090a3005b60405162461bcd60e51b815260206004820152601960248201527822a9219b99189d1030b8383937bb32903a379031b0b63632b960391b6044820152606490fd5b346102ab5760403660031901126102ab576004356116dd6104a1565b906116e781611d52565b6001600160a01b039081163314908115611742575b501561170c5761050e9133611f30565b60405162461bcd60e51b815260206004820152600e60248201526d139bdd08185d5d1a1bdc9a5e995960921b6044820152606490fd5b905061174d82611d52565b165f90815260056020908152604080832033845290915281205460ff16906116fc565b346102ab5760803660031901126102ab5761178961048b565b6117916104a1565b606435916001600160401b0383116102ab57366023840112156102ab576117c561050e933690602481600401359101610f7d565b9160443591611f43565b60208152815160e06118646117f261010093846020870152610120860190610362565b61184f61183b611814602089015193601f1994858a83030160408b0152610362565b60408901516001600160a01b031660608901526060890151848983030160808a0152610362565b6080880151838883030160a0890152610362565b9060a0870151908683030160c0870152610362565b9360c081015182850152015191015290565b346102ab5760203660031901126102ab576103f16004356040519061189a82610951565b5f60e060609384815284602082015282604082015284808201528460808201528460a08201528260c082015201526118d461112d82611fe6565b5f52600e602052600760405f206118e9610f55565b926118f3826109bc565b8452611901600183016109bc565b602085015260028201546001600160a01b03166040850152611925600383016109bc565b90840152611935600482016109bc565b6080840152611946600582016109bc565b60a0840152600681015460c0840152015460e0820152604051918291826117cf565b9061197b60209282815194859201610341565b0190565b6020611998918160405193828580945193849201610341565b8101600f81520301902090565b346102ab5760206119bd6119b836611287565b61197f565b54604051908152f35b346102ab5760203660031901126102ab576004356119e381611fe6565b15611a43576119f0611dc9565b805115611a31576103e5611a1d91611a23611a0d6103f1956127c0565b6040519485936020850190611968565b90611968565b03601f19810183528261099b565b50506103f1611a3e611dc9565b6103e5565b60405162461bcd60e51b815260206004820152602f60248201527f4552433732314d657461646174613a2055524920717565727920666f72206e6f60448201526e3732bc34b9ba32b73a103a37b5b2b760891b6064820152608490fd5b346102ab575f3660031901126102ab576020601754604051908152f35b346102ab5760403660031901126102ab57602060ff611b0d611add61048b565b611ae56104a1565b6001600160a01b039182165f9081526005865260408082209290931681526020919091522090565b54166040519015158152f35b346102ab5760203660031901126102ab576004355f52600e60205260405f20604051611b49816106e68185610891565b6103f160405192611b6184610a648160018501610891565b60018060a01b0360028201541690604051611b83816106e68160038601610891565b611b8f600483016109bc565b611b9b600584016109bc565b916007600685015494015494604051988998896112b1565b346102ab5760203660031901126102ab57611bcc61048b565b600a546001600160a01b0390611be59082163314611c49565b811615611bf55761050e90611c94565b60405162461bcd60e51b815260206004820152602660248201527f4f776e61626c653a206e6577206f776e657220697320746865207a65726f206160448201526564647265737360d01b6064820152608490fd5b15611c5057565b606460405162461bcd60e51b815260206004820152602060248201527f4f776e61626c653a2063616c6c6572206973206e6f7420746865206f776e65726044820152fd5b600a80546001600160a01b039283166001600160a01b0319821681179092559091167f8be0079c531659141344cd1fd0a4f28419497f9722a3daafe3b4186f6b6457e05f80a3565b6001600160a01b03168015611cfa575f52600360205260405f205490565b60405162461bcd60e51b815260206004820152602a60248201527f4552433732313a2062616c616e636520717565727920666f7220746865207a65604482015269726f206164647265737360b01b6064820152608490fd5b5f908152600260205260409020546001600160a01b03168015611d725790565b60405162461bcd60e51b815260206004820152602960248201527f4552433732313a206f776e657220717565727920666f72206e6f6e657869737460448201526832b73a103a37b5b2b760b91b6064820152608490fd5b60405190611dd682610980565b5f8252565b15611de257565b60405162461bcd60e51b815260206004820152603860248201527f4552433732313a20617070726f76652063616c6c6572206973206e6f74206f776044820152771b995c881b9bdc88185c1c1c9bdd995908199bdc88185b1b60421b6064820152608490fd5b611e5181611fe6565b15611e70575f908152600460205260409020546001600160a01b031690565b60405162461bcd60e51b815260206004820152602c60248201527f4552433732313a20617070726f76656420717565727920666f72206e6f6e657860448201526b34b9ba32b73a103a37b5b2b760a11b6064820152608490fd5b15611ed157565b60405162461bcd60e51b815260206004820152603160248201527f4552433732313a207472616e736665722063616c6c6572206973206e6f74206f6044820152701ddb995c881b9bdc88185c1c1c9bdd9959607a1b6064820152608490fd5b90916109d79260405192610ac984610980565b916109d79391611f6a93611f5a61076b8433612002565b611f65838383612180565b6124de565b611fc2565b60809060208152603260208201527f4552433732313a207472616e7366657220746f206e6f6e20455243373231526560408201527131b2b4bb32b91034b6b83632b6b2b73a32b960711b60608201520190565b15611fc957565b60405162461bcd60e51b815280611fe260048201611f6f565b0390fd5b5f908152600260205260409020546001600160a01b0316151590565b61200b82611fe6565b156120835761201982611d52565b6001600160a01b03828116828216811494909190851561206b575b505050821561204257505090565b6001600160a01b03165f90815260056020526040902060ff92506120669190610532565b541690565b6120789192939550611e48565b1614915f8080612034565b60405162461bcd60e51b815260206004820152602c60248201527f4552433732313a206f70657261746f7220717565727920666f72206e6f6e657860448201526b34b9ba32b73a103a37b5b2b760a11b6064820152608490fd5b156120e457565b60405162461bcd60e51b8152602060048201526024808201527f4552433732313a207472616e7366657220746f20746865207a65726f206164646044820152637265737360e01b6064820152608490fd5b634e487b7160e01b5f52601160045260245ffd5b5f19810191908211610f4357565b9060018201809211610f4357565b6030019081603011610f4357565b91908201809211610f4357565b9061218a83611d52565b6001600160a01b038381169290918216839003612269576121e3612243928216946121b68615156120dd565b6121c1878483612544565b6121ca876122c0565b6001600160a01b03165f90815260036020526040902090565b6121ed8154612149565b90556001600160a01b0381165f9081526003602052604090206122108154612157565b9055612224855f52600260205260405f2090565b80546001600160a01b0319166001600160a01b03909216919091179055565b7fddf252ad1be2c89b69c2b068fc378daa952ba7f163c4a11628f55a4df523b3ef5f80a4565b60405162461bcd60e51b815260206004820152602960248201527f4552433732313a207472616e73666572206f6620746f6b656e2074686174206960448201526839903737ba1037bbb760b91b6064820152608490fd5b5f81815260046020526040812080546001600160a01b03191690556001600160a01b036122ec83611d52565b167f8c5be1e5ebec7d5bd14f71427d1e84f3dd0314c0f7b2291e5b200ac8c7c3b9258280a4565b5f82815260046020526040902080546001600160a01b0319166001600160a01b0383161790556001600160a01b038061234b84611d52565b169116907f8c5be1e5ebec7d5bd14f71427d1e84f3dd0314c0f7b2291e5b200ac8c7c3b9255f80a4565b908160209103126102ab575161039881610299565b610398939260809260018060a01b031682525f602083015260408201528160608201520190610362565b6001600160a01b03918216815291166020820152604081019190915260806060820181905261039892910190610362565b6040513d5f823e3d90fd5b3d1561241a573d9061240182610f62565b9161240f604051938461099b565b82523d5f602084013e565b606090565b909190803b156124d6576124506020915f93604051948580948193630a85bd0160e11b998a8452336004850161238a565b03926001600160a01b03165af15f91816124a6575b50612498576124726123f0565b805190816124935760405162461bcd60e51b815280611fe260048201611f6f565b602001fd5b6001600160e01b0319161490565b6124c891925060203d81116124cf575b6124c0818361099b565b810190612375565b905f612465565b503d6124b6565b505050600190565b92909190823b1561251057612450926020925f604051809681958294630a85bd0160e11b9a8b855233600486016123b4565b50505050600190565b9061252381612688565b6001600160a01b03821661253b576109d791506126dd565b6109d791612651565b9091906001600160a01b03808216918261257e575061256283612688565b8316806125755750506109d791506126dd565b0361253b575050565b818516830361258e575b50612562565b61259781611cdc565b5f198101908111610f43576125fb906125ee5f9387855260076020526040852054838103612602575b50846125d4895f52600760205260405f2090565b556001600160a01b03165f90815260066020526040902090565b905f5260205260405f2090565b555f612588565b87865260066020526040862084875260205261264a60408720548061263b846125ee8760018060a01b03165f52600660205260405f2090565b555f52600760205260405f2090565b555f6125c0565b60409061265d81611cdc565b925f9160018060a01b0316825260066020528282208483526020528083832055815260076020522055565b600854815f5260096020528060405f2055600160401b8110156107125760018101806008558110156108545760085f527ff3f7a9fe364faab93b216da50a3214154f22a0a2b415b23a84c8169e8b636ee30155565b600880545f19929083810190808211610f43575f928084526009602052816040852054931015610854578484528582602086200101549183101561085457839261273d61274c9387865280836020882001555f52600960205260405f2090565b555f52600960205260405f2090565b55815492831561276f578084019380851015610854578383526020832001015555565b634e487b7160e01b82526031600452602482fd5b5f198114610f435760010190565b811561279b570490565b634e487b7160e01b5f52601260045260245ffd5b908151811015610854570160200190565b801561286857805f908282935b61285457506127db83610f62565b926127e9604051948561099b565b80845281601f196127f983610f62565b013660208701375b61280b5750505090565b61281490612149565b90600a9061283f61282f612829848406612165565b60ff1690565b60f81b6001600160f81b03191690565b841a61284b84876127af565b53049081612801565b92612860600a91612783565b9304806127cd565b50604051604081018181106001600160401b038211176107125760405260018152600360fc1b602082015290565b1561289d57565b60405162461bcd60e51b815260206004820152601660248201527512541194c81a185cda08185b1c9958591e481d5cd95960521b6044820152606490fd5b908160609103126102ab578051916040602083015192015190565b908160209103126102ab5751610398816115d3565b1561291257565b60405162461bcd60e51b8152602060048201526013602482015272119959481d1c985b9cd9995c8819985a5b1959606a1b6044820152606490fd5b90601f811161295b57505050565b5f91825260208220906020601f850160051c83019410612996575b601f0160051c01915b82811061298b57505050565b81815560010161297f565b9092508290612976565b91909182516001600160401b038111610712576129c7816129c18454610859565b8461294d565b602080601f8311600114612a015750819293945f926129f6575b50508160011b915f199060031b1c1916179055565b015190505f806129e1565b90601f19831695612a15855f5260205f2090565b925f905b888210612a5057505083600195969710612a38575b505050811b019055565b01515f1960f88460031b161c191690555f8080612a2e565b80600185968294968601518155019501930190612a19565b90805180516001600160401b03811161071257612a8f81612a898654610859565b8661294d565b6020918290601f8311600114612b4857928260079593612ad39360e0965f92612b3d575b50508160011b915f199060031b1c19161786555b820151600186016129a0565b60408101516002850180546001600160a01b0319166001600160a01b03909216919091179055612b0a6060820151600386016129a0565b612b1b6080820151600486016129a0565b612b2c60a0820151600586016129a0565b60c081015160068501550151910155565b015190505f80612ab3565b90601f19831691612b5c875f5260205f2090565b925f5b818110612ba3575093612ad39360e096936001938360079a9810612b8b575b505050811b018655612ac7565b01515f1960f88460031b161c191690555f8080612b7e565b929386600181928786015181550195019301612b5f565b92612be66103989593612bd8612bf494608088526080880190610362565b908682036020880152610362565b908482036040860152610362565b916060818403910152610362565b92919092612c19612c128261197f565b5415612896565b601354612c2e906001600160a01b0316610b73565b94604093845163d39686a760e01b815260608180612c4f8660048301610387565b03815f809c5af18015610dbe57612ea2575b50600b5496612c708833612ec0565b612c7e6001600b5401600b55565b612c86610f55565b84815260208082018990523388830152909560608701528260808701528360a08701528160c08701524260e08701528181612d00612cce610b7360105460018060a01b031690565b6014548b516323b872dd60e01b8152336004820152306024820152604481019190915293849283919082906064820190565b03925af18015610dbe57612d1b918491612e85575b5061290b565b601054612d6e908290612d36906001600160a01b0316610b73565b6012546014548b5163095ea7b360e01b81526001600160a01b0390921660048301526024820152928391908290879082906044820190565b03925af18015610dbe57612e57575b5050601154612d94906001600160a01b0316610b73565b6017549060145491813b15612e5357885163085f452560e41b815260048101919091526024810192909252909291908390604490829084905af1958615610dbe57612e1d7f1920a8e4a417eb5ab62a3f8e9497491e1fe3b9652d09d8c3cdc674f0b50d546096612e34948b99612e3a575b50612e18895f52600e60205260405f2090565b612a68565b86612e278661197f565b5551938493339885612bba565b0390a390565b80612e47612e4d9261096d565b80610337565b5f612e05565b8380fd5b81612e7692903d10612e7e575b612e6e818361099b565b8101906128f6565b505f80612d7d565b503d612e64565b612e9c9150833d8511612e7e57612e6e818361099b565b5f612d15565b612eb99060603d8111610db757610da5818361099b565b5050612c61565b90604051612ecd81610980565b5f81526001600160a01b038316918215612fa957612eea81611fe6565b612f64578381611f6a94612f01826109d798612519565b6001600160a01b0383165f908152600360205260409020612f228154612157565b9055612f3a83612224845f52600260205260405f2090565b5f7fddf252ad1be2c89b69c2b068fc378daa952ba7f163c4a11628f55a4df523b3ef8180a461241f565b60405162461bcd60e51b815260206004820152601c60248201527f4552433732313a20746f6b656e20616c7265616479206d696e746564000000006044820152606490fd5b606460405162461bcd60e51b815260206004820152602060248201527f4552433732313a206d696e7420746f20746865207a65726f20616464726573736044820152fd5b15612ff457565b60405162461bcd60e51b8152602060048201526016602482015275105c9d1a58db1948191bd95cc81b9bdd08195e1a5cdd60521b6044820152606490fd5b908160209103126102ab575190565b6001600160a01b03909116815260406020820181905261039892910190610891565b6103989392606092825260208201528160408201520190610362565b8054600160401b8110156107125761309e90600192838201815561083b565b9290926131a857805183546001600160a01b0319166001600160a01b0391909116178355818301602080830151938451916001600160401b038311610712576130eb83612a898654610859565b80601f841160011461313757509180809260609695946003985f9461312c575b50501b915f1990871b1c19161790555b604081015160028501550151910155565b015192505f8061310b565b91939495601f19841661314d875f5260205f2090565b935f905b828210613191575050916003979593918560609896941061317a575b505050811b01905561311b565b01515f1983891b60f8161c191690555f808061316d565b808886978294978701518155019601940190613151565b634e487b7160e01b5f525f60045260245ffd5b906020610398928181520190610891565b9081546001600160401b038111610712576040928351936020906131f5828560051b018761099b565b8386525f928352818320908287015b85851061321357505050505050565b600484600192845161322481610936565b848060a01b0387541681528551613241816106e681898c01610891565b8382015260028701548682015260038701546060820152815201930194019391613204565b80518210156108545760209160051b010190565b90606482029180830460641490151715610f435756fea2646970667358221220476be4e8f1cfea9e7bca4ff08f377eb7bd044b066a06ddfa0d327ccd607d9a8364736f6c63430008140033","opcodes":"PUSH1 0x80 CALLVALUE PUSH3 0x416 JUMPI PUSH1 0x1F PUSH3 0x3794 CODESIZE DUP2 SWAP1 SUB DUP3 DUP2 ADD PUSH1 0x1F NOT SWAP1 DUP2 AND DUP6 ADD SWAP5 PUSH1 0x1 PUSH1 0x1 PUSH1 0x40 SHL SUB SWAP5 SWAP4 SWAP1 SWAP3 SWAP1 DUP6 DUP8 GT DUP5 DUP9 LT OR PUSH3 0x402 JUMPI DUP2 PUSH1 0x60 SWAP3 DUP6 SWAP3 PUSH1 0x40 SWAP10 DUP11 MSTORE DUP4 CODECOPY DUP2 ADD SUB SLT PUSH3 0x416 JUMPI PUSH3 0x57 DUP3 PUSH3 0x43A JUMP JUMPDEST PUSH1 0x20 SWAP5 PUSH3 0x74 DUP8 PUSH3 0x6C DUP9 DUP8 ADD PUSH3 0x43A JUMP JUMPDEST SWAP6 ADD PUSH3 0x43A JUMP JUMPDEST SWAP4 PUSH3 0x7F PUSH3 0x41A JUMP JUMPDEST SWAP2 PUSH1 0x14 DUP4 MSTORE PUSH32 0x4C6561726E7467657468657241727469636C6573000000000000000000000000 DUP9 DUP5 ADD MSTORE PUSH3 0xB3 PUSH3 0x41A JUMP JUMPDEST SWAP7 PUSH1 0x3 SWAP8 DUP9 DUP2 MSTORE PUSH3 0x4C5441 PUSH1 0xE8 SHL DUP11 DUP3 ADD MSTORE DUP5 MLOAD DUP4 DUP2 GT PUSH3 0x402 JUMPI DUP1 PUSH0 SWAP7 PUSH3 0xDE DUP9 SLOAD PUSH3 0x44F JUMP JUMPDEST DUP14 DUP7 DUP3 GT PUSH3 0x3D1 JUMPI JUMPDEST POP POP DUP13 SWAP1 DUP6 DUP4 GT PUSH1 0x1 EQ PUSH3 0x36E JUMPI DUP9 SWAP3 PUSH3 0x362 JUMPI JUMPDEST POP POP DUP2 PUSH1 0x1 SHL SWAP2 PUSH0 NOT SWAP1 DUP13 SHL SHR NOT AND OR DUP6 SSTORE JUMPDEST DUP1 MLOAD SWAP3 DUP4 GT PUSH3 0x34E JUMPI SWAP1 DUP3 SWAP2 PUSH1 0x1 SWAP8 PUSH3 0x12E DUP10 SLOAD PUSH3 0x44F JUMP JUMPDEST DUP13 DUP5 DUP3 GT PUSH3 0x312 JUMPI JUMPDEST POP POP DUP12 SWAP3 DUP5 GT PUSH1 0x1 EQ PUSH3 0x2B3 JUMPI POP DUP6 SWAP3 PUSH3 0x2A7 JUMPI JUMPDEST POP POP PUSH0 NOT DUP3 DUP10 SHL SHR NOT AND SWAP1 DUP6 SHL OR DUP5 SSTORE JUMPDEST DUP8 PUSH1 0xA SLOAD SWAP3 PUSH1 0xC PUSH1 0x1 DUP1 PUSH1 0xA0 SHL SUB NOT SWAP10 CALLER DUP12 DUP8 AND OR PUSH1 0xA SSTORE PUSH1 0x1 DUP1 PUSH1 0xA0 SHL SUB SWAP10 DUP11 SWAP9 DUP10 SWAP8 DUP9 CALLER SWAP2 AND PUSH32 0x8BE0079C531659141344CD1FD0A4F28419497F9722A3DAAFE3B4186F6B6457E0 DUP8 DUP1 LOG3 DUP5 DUP1 MSTORE DUP4 DUP4 MSTORE DUP6 DUP6 KECCAK256 PUSH3 0x1CC PUSH3 0x1C5 DUP3 SLOAD PUSH3 0x44F JUMP JUMPDEST DUP3 PUSH3 0x4A2 JUMP JUMPDEST PUSH1 0x1C PUSH14 0x5265766965772050656E64696E67 PUSH1 0x90 SHL ADD SWAP1 SSTORE DUP5 MSTORE DUP3 DUP3 MSTORE DUP5 DUP5 KECCAK256 PUSH3 0x1FB PUSH3 0x1C5 DUP3 SLOAD PUSH3 0x44F JUMP JUMPDEST PUSH1 0x10 PUSH8 0x1058D8D95C1D1959 PUSH1 0xC2 SHL ADD SWAP1 SSTORE PUSH1 0x2 DUP5 MSTORE DUP3 DUP3 MSTORE DUP5 DUP5 KECCAK256 PUSH3 0x226 PUSH3 0x1C5 DUP3 SLOAD PUSH3 0x44F JUMP JUMPDEST PUSH1 0x10 PUSH8 0x14995A9958DD1959 PUSH1 0xC2 SHL ADD SWAP1 SSTORE DUP4 MSTORE MSTORE KECCAK256 PUSH3 0x24B PUSH3 0x1C5 DUP3 SLOAD PUSH3 0x44F JUMP JUMPDEST PUSH1 0x26 PUSH32 0x52657669736520616E642052657375626D697400000000000000000000000000 ADD SWAP1 SSTORE AND DUP1 DUP7 PUSH1 0x11 SLOAD AND OR PUSH1 0x11 SSTORE DUP6 PUSH1 0x12 SLOAD AND OR PUSH1 0x12 SSTORE AND DUP4 PUSH1 0x13 SLOAD AND OR PUSH1 0x13 SSTORE AND SWAP1 PUSH1 0x10 SLOAD AND OR PUSH1 0x10 SSTORE MLOAD PUSH2 0x32C6 SWAP1 DUP2 PUSH3 0x4CE DUP3 CODECOPY RETURN JUMPDEST ADD MLOAD SWAP1 POP PUSH0 DUP1 PUSH3 0x14F JUMP JUMPDEST DUP9 DUP8 MSTORE DUP12 DUP8 KECCAK256 DUP10 SWAP6 SWAP1 SWAP4 SWAP3 SWAP2 AND DUP8 JUMPDEST DUP14 DUP3 DUP3 LT PUSH3 0x2FB JUMPI POP POP DUP5 GT PUSH3 0x2E3 JUMPI JUMPDEST POP POP POP DUP2 SHL ADD DUP5 SSTORE PUSH3 0x160 JUMP JUMPDEST ADD MLOAD PUSH0 NOT DUP4 DUP12 SHL PUSH1 0xF8 AND SHR NOT AND SWAP1 SSTORE PUSH0 DUP1 DUP1 PUSH3 0x2D5 JUMP JUMPDEST DUP4 DUP6 ADD MLOAD DUP7 SSTORE DUP12 SWAP8 SWAP1 SWAP6 ADD SWAP5 SWAP4 DUP5 ADD SWAP4 ADD PUSH3 0x2C2 JUMP JUMPDEST PUSH3 0x33C SWAP2 DUP12 DUP11 MSTORE DUP6 DUP3 DUP12 KECCAK256 SWAP2 DUP2 DUP10 ADD PUSH1 0x5 SHR DUP4 ADD SWAP4 DUP10 LT PUSH3 0x344 JUMPI JUMPDEST ADD PUSH1 0x5 SHR ADD SWAP1 PUSH3 0x48A JUMP JUMPDEST PUSH0 DUP13 PUSH3 0x138 JUMP JUMPDEST SWAP3 POP DUP2 SWAP3 PUSH3 0x330 JUMP JUMPDEST PUSH4 0x4E487B71 PUSH1 0xE0 SHL DUP6 MSTORE PUSH1 0x41 PUSH1 0x4 MSTORE PUSH1 0x24 DUP6 REVERT JUMPDEST ADD MLOAD SWAP1 POP PUSH0 DUP1 PUSH3 0xFF JUMP JUMPDEST DUP9 DUP1 MSTORE DUP14 DUP10 KECCAK256 SWAP3 DUP12 AND DUP10 DUP16 JUMPDEST DUP3 DUP3 LT PUSH3 0x3B9 JUMPI POP POP SWAP1 DUP5 PUSH1 0x1 SWAP6 SWAP5 SWAP4 SWAP3 LT PUSH3 0x3A1 JUMPI JUMPDEST POP POP POP DUP2 SHL ADD DUP6 SSTORE PUSH3 0x112 JUMP JUMPDEST ADD MLOAD PUSH0 NOT DUP4 DUP15 SHL PUSH1 0xF8 AND SHR NOT AND SWAP1 SSTORE PUSH0 DUP1 DUP1 PUSH3 0x393 JUMP JUMPDEST PUSH1 0x1 DUP6 SWAP7 DUP3 SWAP4 SWAP7 DUP7 ADD MLOAD DUP2 SSTORE ADD SWAP6 ADD SWAP4 ADD DUP16 PUSH3 0x37A JUMP JUMPDEST PUSH3 0x3FA SWAP2 DUP11 DUP1 MSTORE DUP8 DUP3 DUP13 KECCAK256 SWAP2 DUP2 DUP8 ADD PUSH1 0x5 SHR DUP4 ADD SWAP4 DUP8 LT PUSH3 0x344 JUMPI ADD PUSH1 0x5 SHR ADD SWAP1 PUSH3 0x48A JUMP JUMPDEST PUSH0 DUP14 PUSH3 0xE8 JUMP JUMPDEST PUSH4 0x4E487B71 PUSH1 0xE0 SHL PUSH0 MSTORE PUSH1 0x41 PUSH1 0x4 MSTORE PUSH1 0x24 PUSH0 REVERT JUMPDEST PUSH0 DUP1 REVERT JUMPDEST PUSH1 0x40 DUP1 MLOAD SWAP2 SWAP1 DUP3 ADD PUSH1 0x1 PUSH1 0x1 PUSH1 0x40 SHL SUB DUP2 GT DUP4 DUP3 LT OR PUSH3 0x402 JUMPI PUSH1 0x40 MSTORE JUMP JUMPDEST MLOAD SWAP1 PUSH1 0x1 PUSH1 0x1 PUSH1 0xA0 SHL SUB DUP3 AND DUP3 SUB PUSH3 0x416 JUMPI JUMP JUMPDEST SWAP1 PUSH1 0x1 DUP3 DUP2 SHR SWAP3 AND DUP1 ISZERO PUSH3 0x47F JUMPI JUMPDEST PUSH1 0x20 DUP4 LT EQ PUSH3 0x46B JUMPI JUMP JUMPDEST PUSH4 0x4E487B71 PUSH1 0xE0 SHL PUSH0 MSTORE PUSH1 0x22 PUSH1 0x4 MSTORE PUSH1 0x24 PUSH0 REVERT JUMPDEST SWAP2 PUSH1 0x7F AND SWAP2 PUSH3 0x45F JUMP JUMPDEST DUP2 DUP2 LT PUSH3 0x496 JUMPI POP POP JUMP JUMPDEST PUSH0 DUP2 SSTORE PUSH1 0x1 ADD PUSH3 0x48A JUMP JUMPDEST SWAP1 PUSH1 0x1F DUP2 GT PUSH3 0x4B0 JUMPI POP POP JUMP JUMPDEST PUSH3 0x4CB SWAP2 PUSH0 MSTORE PUSH1 0x1F PUSH1 0x20 PUSH0 KECCAK256 SWAP2 ADD PUSH1 0x5 SHR DUP2 ADD SWAP1 PUSH3 0x48A JUMP JUMPDEST JUMP INVALID PUSH1 0x80 PUSH1 0x40 MSTORE PUSH1 0x4 CALLDATASIZE LT ISZERO PUSH2 0x11 JUMPI PUSH0 DUP1 REVERT JUMPDEST PUSH0 CALLDATALOAD PUSH1 0xE0 SHR DUP1 PUSH4 0x1FFC9A7 EQ PUSH2 0x294 JUMPI DUP1 PUSH4 0x6FDDE03 EQ PUSH2 0x28F JUMPI DUP1 PUSH4 0x81812FC EQ PUSH2 0x28A JUMPI DUP1 PUSH4 0x95EA7B3 EQ PUSH2 0x285 JUMPI DUP1 PUSH4 0x18160DDD EQ PUSH2 0x280 JUMPI DUP1 PUSH4 0x2056B05F EQ PUSH2 0x27B JUMPI DUP1 PUSH4 0x23B872DD EQ PUSH2 0x276 JUMPI DUP1 PUSH4 0x2F745C59 EQ PUSH2 0x271 JUMPI DUP1 PUSH4 0x3E7C2042 EQ PUSH2 0x26C JUMPI DUP1 PUSH4 0x408958D6 EQ PUSH2 0x267 JUMPI DUP1 PUSH4 0x42842E0E EQ PUSH2 0x262 JUMPI DUP1 PUSH4 0x4585E33B EQ PUSH2 0x25D JUMPI DUP1 PUSH4 0x48D6C25B EQ PUSH2 0x258 JUMPI DUP1 PUSH4 0x4F6CCCE7 EQ PUSH2 0x253 JUMPI DUP1 PUSH4 0x5787A0CC EQ PUSH2 0x24E JUMPI DUP1 PUSH4 0x5E6C102E EQ PUSH2 0x249 JUMPI DUP1 PUSH4 0x5F23B056 EQ PUSH2 0x244 JUMPI DUP1 PUSH4 0x5FF2D2AA EQ PUSH2 0x23F JUMPI DUP1 PUSH4 0x6352211E EQ PUSH2 0x23A JUMPI DUP1 PUSH4 0x6356EEA4 EQ PUSH2 0x235 JUMPI DUP1 PUSH4 0x69FE0E2D EQ PUSH2 0x230 JUMPI DUP1 PUSH4 0x6FD00FC8 EQ PUSH2 0x22B JUMPI DUP1 PUSH4 0x70A08231 EQ PUSH2 0x226 JUMPI DUP1 PUSH4 0x715018A6 EQ PUSH2 0x221 JUMPI DUP1 PUSH4 0x7823E226 EQ PUSH2 0x21C JUMPI DUP1 PUSH4 0x8640F718 EQ PUSH2 0x217 JUMPI DUP1 PUSH4 0x8DA5CB5B EQ PUSH2 0x212 JUMPI DUP1 PUSH4 0x95D89B41 EQ PUSH2 0x20D JUMPI DUP1 PUSH4 0x9B1CB58E EQ PUSH2 0x208 JUMPI DUP1 PUSH4 0x9CD2CADC EQ PUSH2 0x203 JUMPI DUP1 PUSH4 0xA22CB465 EQ PUSH2 0x1FE JUMPI DUP1 PUSH4 0xAE1D47C9 EQ PUSH2 0x1F9 JUMPI DUP1 PUSH4 0xB88D4FDE EQ PUSH2 0x1F4 JUMPI DUP1 PUSH4 0xBD85D867 EQ PUSH2 0x1EF JUMPI DUP1 PUSH4 0xBFC67D9A EQ PUSH2 0x1EA JUMPI DUP1 PUSH4 0xC87B56DD EQ PUSH2 0x1E5 JUMPI DUP1 PUSH4 0xD2AA789F EQ PUSH2 0x1E0 JUMPI DUP1 PUSH4 0xE985E9C5 EQ PUSH2 0x1DB JUMPI DUP1 PUSH4 0xEDCFAFE6 EQ PUSH2 0x1D6 JUMPI PUSH4 0xF2FDE38B EQ PUSH2 0x1D1 JUMPI PUSH0 DUP1 REVERT JUMPDEST PUSH2 0x1BB3 JUMP JUMPDEST PUSH2 0x1B19 JUMP JUMPDEST PUSH2 0x1ABD JUMP JUMPDEST PUSH2 0x1AA0 JUMP JUMPDEST PUSH2 0x19C6 JUMP JUMPDEST PUSH2 0x19A5 JUMP JUMPDEST PUSH2 0x1876 JUMP JUMPDEST PUSH2 0x1770 JUMP JUMPDEST PUSH2 0x16C1 JUMP JUMPDEST PUSH2 0x15DD JUMP JUMPDEST PUSH2 0x15B6 JUMP JUMPDEST PUSH2 0x1599 JUMP JUMPDEST PUSH2 0x1515 JUMP JUMPDEST PUSH2 0x14ED JUMP JUMPDEST PUSH2 0x14BF JUMP JUMPDEST PUSH2 0x14A2 JUMP JUMPDEST PUSH2 0x1442 JUMP JUMPDEST PUSH2 0x1417 JUMP JUMPDEST PUSH2 0x132C JUMP JUMPDEST PUSH2 0x1259 JUMP JUMPDEST PUSH2 0x10E8 JUMP JUMPDEST PUSH2 0x10CA JUMP JUMPDEST PUSH2 0x1078 JUMP JUMPDEST PUSH2 0xFCE JUMP JUMPDEST PUSH2 0xEC3 JUMP JUMPDEST PUSH2 0xE95 JUMP JUMPDEST PUSH2 0xDEB JUMP JUMPDEST PUSH2 0xDC3 JUMP JUMPDEST PUSH2 0xB1A JUMP JUMPDEST PUSH2 0xAAA JUMP JUMPDEST PUSH2 0xA82 JUMP JUMPDEST PUSH2 0xA0C JUMP JUMPDEST PUSH2 0x775 JUMP JUMPDEST PUSH2 0x74C JUMP JUMPDEST PUSH2 0x650 JUMP JUMPDEST PUSH2 0x5A3 JUMP JUMPDEST PUSH2 0x4B7 JUMP JUMPDEST PUSH2 0x45B JUMP JUMPDEST PUSH2 0x39B JUMP JUMPDEST PUSH2 0x2AF JUMP JUMPDEST PUSH1 0x1 PUSH1 0x1 PUSH1 0xE0 SHL SUB NOT DUP2 AND SUB PUSH2 0x2AB JUMPI JUMP JUMPDEST PUSH0 DUP1 REVERT JUMPDEST CALLVALUE PUSH2 0x2AB JUMPI PUSH1 0x20 CALLDATASIZE PUSH1 0x3 NOT ADD SLT PUSH2 0x2AB JUMPI PUSH1 0x20 PUSH1 0x4 CALLDATALOAD PUSH2 0x2CE DUP2 PUSH2 0x299 JUMP JUMPDEST PUSH4 0xFFFFFFFF PUSH1 0xE0 SHL AND PUSH4 0x780E9D63 PUSH1 0xE0 SHL DUP2 EQ SWAP1 DUP2 ISZERO PUSH2 0x2F4 JUMPI JUMPDEST POP PUSH1 0x40 MLOAD SWAP1 ISZERO ISZERO DUP2 MSTORE RETURN JUMPDEST PUSH4 0x80AC58CD PUSH1 0xE0 SHL DUP2 EQ SWAP2 POP DUP2 ISZERO PUSH2 0x326 JUMPI JUMPDEST DUP2 ISZERO PUSH2 0x315 JUMPI JUMPDEST POP PUSH0 PUSH2 0x2E9 JUMP JUMPDEST PUSH4 0x1FFC9A7 PUSH1 0xE0 SHL EQ SWAP1 POP PUSH0 PUSH2 0x30E JUMP JUMPDEST PUSH4 0x5B5E139F PUSH1 0xE0 SHL DUP2 EQ SWAP2 POP PUSH2 0x307 JUMP JUMPDEST PUSH0 SWAP2 SUB SLT PUSH2 0x2AB JUMPI JUMP JUMPDEST PUSH0 JUMPDEST DUP4 DUP2 LT PUSH2 0x352 JUMPI POP POP PUSH0 SWAP2 ADD MSTORE JUMP JUMPDEST DUP2 DUP2 ADD MLOAD DUP4 DUP3 ADD MSTORE PUSH1 0x20 ADD PUSH2 0x343 JUMP JUMPDEST SWAP1 PUSH1 0x20 SWAP2 PUSH2 0x37B DUP2 MLOAD DUP1 SWAP3 DUP2 DUP6 MSTORE DUP6 DUP1 DUP7 ADD SWAP2 ADD PUSH2 0x341 JUMP JUMPDEST PUSH1 0x1F ADD PUSH1 0x1F NOT AND ADD ADD SWAP1 JUMP JUMPDEST SWAP1 PUSH1 0x20 PUSH2 0x398 SWAP3 DUP2 DUP2 MSTORE ADD SWAP1 PUSH2 0x362 JUMP JUMPDEST SWAP1 JUMP JUMPDEST CALLVALUE PUSH2 0x2AB JUMPI PUSH0 DUP1 PUSH1 0x3 NOT CALLDATASIZE ADD SLT PUSH2 0x458 JUMPI PUSH1 0x40 MLOAD DUP2 DUP1 SLOAD PUSH2 0x3BB DUP2 PUSH2 0x859 JUMP JUMPDEST DUP1 DUP5 MSTORE SWAP1 PUSH1 0x1 SWAP1 DUP2 DUP2 AND SWAP1 DUP2 ISZERO PUSH2 0x430 JUMPI POP PUSH1 0x1 EQ PUSH2 0x3F5 JUMPI JUMPDEST PUSH2 0x3F1 DUP5 PUSH2 0x3E5 DUP2 DUP9 SUB DUP3 PUSH2 0x99B JUMP JUMPDEST PUSH1 0x40 MLOAD SWAP2 DUP3 SWAP2 DUP3 PUSH2 0x387 JUMP JUMPDEST SUB SWAP1 RETURN JUMPDEST SWAP4 POP DUP2 DUP1 MSTORE PUSH1 0x20 SWAP4 DUP5 DUP4 KECCAK256 JUMPDEST DUP3 DUP5 LT PUSH2 0x41D JUMPI POP POP POP DUP2 PUSH2 0x3F1 SWAP4 PUSH2 0x3E5 SWAP3 DUP3 ADD ADD SWAP4 PUSH2 0x3D5 JUMP JUMPDEST DUP1 SLOAD DUP6 DUP6 ADD DUP8 ADD MSTORE SWAP3 DUP6 ADD SWAP3 DUP2 ADD PUSH2 0x401 JUMP JUMPDEST PUSH2 0x3F1 SWAP7 POP PUSH2 0x3E5 SWAP5 POP PUSH1 0x20 SWAP3 POP DUP6 SWAP4 SWAP2 POP PUSH1 0xFF NOT AND DUP3 DUP5 ADD MSTORE ISZERO ISZERO PUSH1 0x5 SHL DUP3 ADD ADD SWAP4 PUSH2 0x3D5 JUMP JUMPDEST DUP1 REVERT JUMPDEST CALLVALUE PUSH2 0x2AB JUMPI PUSH1 0x20 CALLDATASIZE PUSH1 0x3 NOT ADD SLT PUSH2 0x2AB JUMPI PUSH1 0x20 PUSH2 0x479 PUSH1 0x4 CALLDATALOAD PUSH2 0x1E48 JUMP JUMPDEST PUSH1 0x40 MLOAD PUSH1 0x1 PUSH1 0x1 PUSH1 0xA0 SHL SUB SWAP1 SWAP2 AND DUP2 MSTORE RETURN JUMPDEST PUSH1 0x4 CALLDATALOAD SWAP1 PUSH1 0x1 PUSH1 0x1 PUSH1 0xA0 SHL SUB DUP3 AND DUP3 SUB PUSH2 0x2AB JUMPI JUMP JUMPDEST PUSH1 0x24 CALLDATALOAD SWAP1 PUSH1 0x1 PUSH1 0x1 PUSH1 0xA0 SHL SUB DUP3 AND DUP3 SUB PUSH2 0x2AB JUMPI JUMP JUMPDEST CALLVALUE PUSH2 0x2AB JUMPI PUSH1 0x40 CALLDATASIZE PUSH1 0x3 NOT ADD SLT PUSH2 0x2AB JUMPI PUSH2 0x4D0 PUSH2 0x48B JUMP JUMPDEST PUSH1 0x24 CALLDATALOAD PUSH2 0x4DC DUP2 PUSH2 0x1D52 JUMP JUMPDEST SWAP2 PUSH1 0x1 PUSH1 0x1 PUSH1 0xA0 SHL SUB DUP1 DUP5 AND SWAP1 DUP3 AND DUP2 EQ PUSH2 0x554 JUMPI PUSH2 0x50E SWAP4 PUSH2 0x509 SWAP2 CALLER EQ SWAP1 DUP2 ISZERO PUSH2 0x510 JUMPI JUMPDEST POP PUSH2 0x1DDB JUMP JUMPDEST PUSH2 0x2313 JUMP JUMPDEST STOP JUMPDEST PUSH1 0x1 PUSH1 0x1 PUSH1 0xA0 SHL SUB AND PUSH0 SWAP1 DUP2 MSTORE PUSH1 0x5 PUSH1 0x20 MSTORE PUSH1 0x40 SWAP1 KECCAK256 PUSH2 0x54E SWAP2 POP PUSH2 0x547 SWAP1 CALLER SWAP1 JUMPDEST SWAP1 PUSH1 0x1 DUP1 PUSH1 0xA0 SHL SUB AND PUSH0 MSTORE PUSH1 0x20 MSTORE PUSH1 0x40 PUSH0 KECCAK256 SWAP1 JUMP JUMPDEST SLOAD PUSH1 0xFF AND SWAP1 JUMP JUMPDEST PUSH0 PUSH2 0x503 JUMP JUMPDEST PUSH1 0x40 MLOAD PUSH3 0x461BCD PUSH1 0xE5 SHL DUP2 MSTORE PUSH1 0x20 PUSH1 0x4 DUP3 ADD MSTORE PUSH1 0x21 PUSH1 0x24 DUP3 ADD MSTORE PUSH32 0x4552433732313A20617070726F76616C20746F2063757272656E74206F776E65 PUSH1 0x44 DUP3 ADD MSTORE PUSH1 0x39 PUSH1 0xF9 SHL PUSH1 0x64 DUP3 ADD MSTORE PUSH1 0x84 SWAP1 REVERT JUMPDEST CALLVALUE PUSH2 0x2AB JUMPI PUSH0 CALLDATASIZE PUSH1 0x3 NOT ADD SLT PUSH2 0x2AB JUMPI PUSH1 0x20 PUSH1 0x8 SLOAD PUSH1 0x40 MLOAD SWAP1 DUP2 MSTORE RETURN JUMPDEST PUSH1 0x20 DUP1 DUP3 ADD SWAP1 DUP1 DUP4 MSTORE DUP4 MLOAD DUP1 SWAP3 MSTORE PUSH1 0x40 SWAP3 DUP4 DUP2 ADD DUP3 DUP6 DUP6 PUSH1 0x5 SHL DUP5 ADD ADD SWAP7 ADD SWAP5 PUSH0 SWAP3 JUMPDEST DUP6 DUP5 LT PUSH2 0x5F4 JUMPI POP POP POP POP POP POP POP SWAP1 JUMP JUMPDEST SWAP1 SWAP2 SWAP3 SWAP4 SWAP5 SWAP6 SWAP7 DUP6 DUP1 PUSH1 0x1 SWAP3 PUSH1 0x3F NOT DUP6 DUP3 SUB ADD DUP8 MSTORE DUP11 MLOAD SWAP1 DUP5 DUP1 PUSH1 0xA0 SHL SUB DUP3 MLOAD AND DUP2 MSTORE PUSH2 0x62D DUP4 DUP4 ADD MLOAD PUSH1 0x80 DUP1 DUP7 DUP6 ADD MSTORE DUP4 ADD SWAP1 PUSH2 0x362 JUMP JUMPDEST SWAP2 DUP8 DUP2 ADD MLOAD DUP9 DUP4 ADD MSTORE PUSH1 0x60 DUP1 SWAP2 ADD MLOAD SWAP2 ADD MSTORE SWAP10 ADD SWAP5 ADD SWAP5 ADD SWAP3 SWAP6 SWAP5 SWAP4 SWAP2 SWAP1 PUSH2 0x5E3 JUMP JUMPDEST CALLVALUE PUSH2 0x2AB JUMPI PUSH1 0x20 DUP1 PUSH1 0x3 NOT CALLDATASIZE ADD SLT PUSH2 0x2AB JUMPI PUSH1 0x4 SWAP1 DUP2 CALLDATALOAD PUSH0 MSTORE PUSH1 0xD DUP2 MSTORE PUSH1 0x40 SWAP2 DUP3 PUSH0 KECCAK256 SWAP1 DUP2 SLOAD SWAP2 PUSH1 0x1 PUSH1 0x1 PUSH1 0x40 SHL SUB DUP4 GT PUSH2 0x712 JUMPI DUP5 MLOAD SWAP4 PUSH2 0x697 DUP2 DUP6 PUSH1 0x5 SHL ADD DUP7 PUSH2 0x99B JUMP JUMPDEST DUP4 DUP6 MSTORE PUSH0 SWAP2 DUP3 MSTORE DUP1 DUP3 KECCAK256 DUP2 DUP7 ADD JUMPDEST DUP6 DUP5 LT PUSH2 0x6B9 JUMPI DUP8 MLOAD DUP1 PUSH2 0x3F1 DUP10 DUP3 PUSH2 0x5C0 JUMP JUMPDEST DUP5 DUP4 PUSH1 0x1 SWAP3 DUP11 MLOAD PUSH2 0x6C9 DUP2 PUSH2 0x936 JUMP JUMPDEST DUP5 DUP1 PUSH1 0xA0 SHL SUB DUP7 SLOAD AND DUP2 MSTORE DUP12 MLOAD PUSH2 0x6ED DUP2 PUSH2 0x6E6 DUP2 DUP10 DUP12 ADD PUSH2 0x891 JUMP JUMPDEST SUB DUP3 PUSH2 0x99B JUMP JUMPDEST DUP4 DUP3 ADD MSTORE PUSH1 0x2 DUP7 ADD SLOAD DUP13 DUP3 ADD MSTORE PUSH1 0x3 DUP7 ADD SLOAD PUSH1 0x60 DUP3 ADD MSTORE DUP2 MSTORE ADD SWAP3 ADD SWAP4 ADD SWAP3 SWAP1 PUSH2 0x6A5 JUMP JUMPDEST PUSH2 0x922 JUMP JUMPDEST PUSH1 0x60 SWAP1 PUSH1 0x3 NOT ADD SLT PUSH2 0x2AB JUMPI PUSH1 0x1 PUSH1 0x1 PUSH1 0xA0 SHL SUB SWAP1 PUSH1 0x4 CALLDATALOAD DUP3 DUP2 AND DUP2 SUB PUSH2 0x2AB JUMPI SWAP2 PUSH1 0x24 CALLDATALOAD SWAP1 DUP2 AND DUP2 SUB PUSH2 0x2AB JUMPI SWAP1 PUSH1 0x44 CALLDATALOAD SWAP1 JUMP JUMPDEST CALLVALUE PUSH2 0x2AB JUMPI PUSH2 0x50E PUSH2 0x75D CALLDATASIZE PUSH2 0x717 JUMP JUMPDEST SWAP2 PUSH2 0x770 PUSH2 0x76B DUP5 CALLER PUSH2 0x2002 JUMP JUMPDEST PUSH2 0x1ECA JUMP JUMPDEST PUSH2 0x2180 JUMP JUMPDEST CALLVALUE PUSH2 0x2AB JUMPI PUSH1 0x40 CALLDATASIZE PUSH1 0x3 NOT ADD SLT PUSH2 0x2AB JUMPI PUSH2 0x78E PUSH2 0x48B JUMP JUMPDEST PUSH1 0x24 CALLDATALOAD SWAP1 PUSH2 0x79B DUP2 PUSH2 0x1CDC JUMP JUMPDEST DUP3 LT ISZERO PUSH2 0x7CE JUMPI PUSH1 0x1 PUSH1 0x1 PUSH1 0xA0 SHL SUB AND PUSH0 SWAP1 DUP2 MSTORE PUSH1 0x6 PUSH1 0x20 SWAP1 DUP2 MSTORE PUSH1 0x40 DUP1 DUP4 KECCAK256 SWAP4 DUP4 MSTORE SWAP3 DUP2 MSTORE SWAP1 DUP3 SWAP1 KECCAK256 SLOAD SWAP2 MLOAD SWAP2 DUP3 MSTORE SWAP1 RETURN JUMPDEST PUSH1 0x40 MLOAD PUSH3 0x461BCD PUSH1 0xE5 SHL DUP2 MSTORE PUSH1 0x20 PUSH1 0x4 DUP3 ADD MSTORE PUSH1 0x2B PUSH1 0x24 DUP3 ADD MSTORE PUSH32 0x455243373231456E756D657261626C653A206F776E657220696E646578206F75 PUSH1 0x44 DUP3 ADD MSTORE PUSH11 0x74206F6620626F756E6473 PUSH1 0xA8 SHL PUSH1 0x64 DUP3 ADD MSTORE PUSH1 0x84 SWAP1 REVERT JUMPDEST PUSH4 0x4E487B71 PUSH1 0xE0 SHL PUSH0 MSTORE PUSH1 0x32 PUSH1 0x4 MSTORE PUSH1 0x24 PUSH0 REVERT JUMPDEST DUP1 SLOAD DUP3 LT ISZERO PUSH2 0x854 JUMPI PUSH0 MSTORE PUSH1 0x20 PUSH0 KECCAK256 SWAP1 PUSH1 0x2 SHL ADD SWAP1 PUSH0 SWAP1 JUMP JUMPDEST PUSH2 0x827 JUMP JUMPDEST SWAP1 PUSH1 0x1 DUP3 DUP2 SHR SWAP3 AND DUP1 ISZERO PUSH2 0x887 JUMPI JUMPDEST PUSH1 0x20 DUP4 LT EQ PUSH2 0x873 JUMPI JUMP JUMPDEST PUSH4 0x4E487B71 PUSH1 0xE0 SHL PUSH0 MSTORE PUSH1 0x22 PUSH1 0x4 MSTORE PUSH1 0x24 PUSH0 REVERT JUMPDEST SWAP2 PUSH1 0x7F AND SWAP2 PUSH2 0x868 JUMP JUMPDEST SWAP1 PUSH0 SWAP3 SWAP2 DUP1 SLOAD SWAP2 PUSH2 0x8A1 DUP4 PUSH2 0x859 JUMP JUMPDEST SWAP2 DUP3 DUP3 MSTORE PUSH1 0x1 SWAP4 DUP5 DUP2 AND SWAP1 DUP2 PUSH0 EQ PUSH2 0x8FF JUMPI POP PUSH1 0x1 EQ PUSH2 0x8C2 JUMPI JUMPDEST POP POP POP POP JUMP JUMPDEST SWAP1 SWAP2 SWAP4 SWAP5 POP PUSH0 MSTORE PUSH1 0x20 SWAP3 DUP4 PUSH0 KECCAK256 SWAP3 DUP5 PUSH0 SWAP5 JUMPDEST DUP4 DUP7 LT PUSH2 0x8EB JUMPI POP POP POP POP ADD ADD SWAP1 PUSH0 DUP1 DUP1 DUP1 PUSH2 0x8BC JUMP JUMPDEST DUP1 SLOAD DUP6 DUP8 ADD DUP4 ADD MSTORE SWAP5 ADD SWAP4 DUP6 SWAP1 DUP3 ADD PUSH2 0x8D4 JUMP JUMPDEST SWAP3 SWAP5 POP POP POP PUSH1 0x20 SWAP4 SWAP5 POP PUSH1 0xFF NOT AND DUP4 DUP4 ADD MSTORE ISZERO ISZERO PUSH1 0x5 SHL ADD ADD SWAP1 PUSH0 DUP1 DUP1 DUP1 PUSH2 0x8BC JUMP JUMPDEST PUSH4 0x4E487B71 PUSH1 0xE0 SHL PUSH0 MSTORE PUSH1 0x41 PUSH1 0x4 MSTORE PUSH1 0x24 PUSH0 REVERT JUMPDEST PUSH1 0x80 DUP2 ADD SWAP1 DUP2 LT PUSH1 0x1 PUSH1 0x1 PUSH1 0x40 SHL SUB DUP3 GT OR PUSH2 0x712 JUMPI PUSH1 0x40 MSTORE JUMP JUMPDEST PUSH2 0x100 DUP2 ADD SWAP1 DUP2 LT PUSH1 0x1 PUSH1 0x1 PUSH1 0x40 SHL SUB DUP3 GT OR PUSH2 0x712 JUMPI PUSH1 0x40 MSTORE JUMP JUMPDEST PUSH1 0x1 PUSH1 0x1 PUSH1 0x40 SHL SUB DUP2 GT PUSH2 0x712 JUMPI PUSH1 0x40 MSTORE JUMP JUMPDEST PUSH1 0x20 DUP2 ADD SWAP1 DUP2 LT PUSH1 0x1 PUSH1 0x1 PUSH1 0x40 SHL SUB DUP3 GT OR PUSH2 0x712 JUMPI PUSH1 0x40 MSTORE JUMP JUMPDEST SWAP1 PUSH1 0x1F DUP1 NOT SWAP2 ADD AND DUP2 ADD SWAP1 DUP2 LT PUSH1 0x1 PUSH1 0x1 PUSH1 0x40 SHL SUB DUP3 GT OR PUSH2 0x712 JUMPI PUSH1 0x40 MSTORE JUMP JUMPDEST SWAP1 PUSH2 0x9D7 PUSH2 0x9D0 SWAP3 PUSH1 0x40 MLOAD SWAP4 DUP5 DUP1 SWAP3 PUSH2 0x891 JUMP JUMPDEST SUB DUP4 PUSH2 0x99B JUMP JUMPDEST JUMP JUMPDEST PUSH1 0x1 PUSH1 0x1 PUSH1 0xA0 SHL SUB SWAP1 SWAP2 AND DUP2 MSTORE PUSH1 0x80 PUSH1 0x20 DUP3 ADD DUP2 SWAP1 MSTORE SWAP3 SWAP5 SWAP4 SWAP3 PUSH1 0x60 SWAP3 PUSH2 0xA02 SWAP2 DUP4 ADD SWAP1 PUSH2 0x362 JUMP JUMPDEST SWAP5 PUSH1 0x40 DUP3 ADD MSTORE ADD MSTORE JUMP JUMPDEST CALLVALUE PUSH2 0x2AB JUMPI PUSH1 0x40 CALLDATASIZE PUSH1 0x3 NOT ADD SLT PUSH2 0x2AB JUMPI PUSH1 0x24 CALLDATALOAD PUSH1 0x4 CALLDATALOAD PUSH0 MSTORE PUSH1 0xD PUSH1 0x20 MSTORE PUSH1 0x40 PUSH0 KECCAK256 SWAP1 DUP2 SLOAD DUP2 LT ISZERO PUSH2 0x2AB JUMPI PUSH2 0xA41 SWAP2 PUSH2 0x83B JUMP JUMPDEST POP PUSH1 0x1 DUP1 PUSH1 0xA0 SHL SUB DUP2 SLOAD AND PUSH2 0x3F1 PUSH1 0x40 MLOAD SWAP3 PUSH2 0xA6B DUP5 PUSH2 0xA64 DUP2 PUSH1 0x1 DUP6 ADD PUSH2 0x891 JUMP JUMPDEST SUB DUP6 PUSH2 0x99B JUMP JUMPDEST PUSH1 0x3 PUSH1 0x2 DUP3 ADD SLOAD SWAP2 ADD SLOAD SWAP1 PUSH1 0x40 MLOAD SWAP5 DUP6 SWAP5 DUP6 PUSH2 0x9D9 JUMP JUMPDEST CALLVALUE PUSH2 0x2AB JUMPI PUSH0 CALLDATASIZE PUSH1 0x3 NOT ADD SLT PUSH2 0x2AB JUMPI PUSH1 0x11 SLOAD PUSH1 0x40 MLOAD PUSH1 0x1 PUSH1 0x1 PUSH1 0xA0 SHL SUB SWAP1 SWAP2 AND DUP2 MSTORE PUSH1 0x20 SWAP1 RETURN JUMPDEST CALLVALUE PUSH2 0x2AB JUMPI PUSH2 0x50E PUSH2 0xABB CALLDATASIZE PUSH2 0x717 JUMP JUMPDEST SWAP1 PUSH1 0x40 MLOAD SWAP3 PUSH2 0xAC9 DUP5 PUSH2 0x980 JUMP JUMPDEST PUSH0 DUP5 MSTORE PUSH2 0x1F43 JUMP JUMPDEST SWAP1 PUSH1 0x20 PUSH1 0x3 NOT DUP4 ADD SLT PUSH2 0x2AB JUMPI PUSH1 0x4 CALLDATALOAD PUSH1 0x1 PUSH1 0x1 PUSH1 0x40 SHL SUB SWAP3 DUP4 DUP3 GT PUSH2 0x2AB JUMPI DUP1 PUSH1 0x23 DUP4 ADD SLT ISZERO PUSH2 0x2AB JUMPI DUP2 PUSH1 0x4 ADD CALLDATALOAD SWAP4 DUP5 GT PUSH2 0x2AB JUMPI PUSH1 0x24 DUP5 DUP4 ADD ADD GT PUSH2 0x2AB JUMPI PUSH1 0x24 ADD SWAP2 SWAP1 JUMP JUMPDEST CALLVALUE PUSH2 0x2AB JUMPI PUSH2 0xB28 CALLDATASIZE PUSH2 0xAD1 JUMP JUMPDEST POP POP PUSH1 0x16 SLOAD PUSH2 0xB4F PUSH1 0x7 PUSH2 0xB44 DUP4 PUSH0 MSTORE PUSH1 0xE PUSH1 0x20 MSTORE PUSH1 0x40 PUSH0 KECCAK256 SWAP1 JUMP JUMPDEST ADD SLOAD PUSH1 0x15 SLOAD SWAP1 PUSH2 0x2173 JUMP JUMPDEST TIMESTAMP GT PUSH2 0xB57 JUMPI STOP JUMPDEST PUSH1 0x13 SLOAD PUSH2 0xBAF SWAP1 PUSH1 0x5 SWAP1 PUSH2 0xB8E SWAP1 PUSH2 0xB7F SWAP1 PUSH1 0x1 PUSH1 0x1 PUSH1 0xA0 SHL SUB AND JUMPDEST PUSH1 0x1 PUSH1 0x1 PUSH1 0xA0 SHL SUB AND SWAP1 JUMP JUMPDEST SWAP4 PUSH0 MSTORE PUSH1 0xE PUSH1 0x20 MSTORE PUSH1 0x40 PUSH0 KECCAK256 SWAP1 JUMP JUMPDEST ADD PUSH1 0x40 SWAP3 DUP4 MLOAD SWAP2 PUSH4 0xD39686A7 PUSH1 0xE0 SHL DUP4 MSTORE DUP3 DUP1 PUSH1 0x60 SWAP6 DUP7 SWAP4 PUSH1 0x4 DUP4 ADD PUSH2 0x31BB JUMP JUMPDEST SUB DUP2 PUSH0 DUP1 SWAP6 GAS CALL SWAP3 DUP4 ISZERO PUSH2 0xDBE JUMPI DUP2 DUP3 SWAP4 DUP4 SWAP6 PUSH2 0xD88 JUMPI JUMPDEST POP PUSH1 0x16 SLOAD PUSH2 0xBE5 PUSH2 0xBE0 DUP3 PUSH0 MSTORE PUSH1 0xD PUSH1 0x20 MSTORE PUSH1 0x40 PUSH0 KECCAK256 SWAP1 JUMP JUMPDEST PUSH2 0x31CC JUMP JUMPDEST SWAP2 DUP3 MLOAD LT PUSH0 EQ PUSH2 0xC78 JUMPI POP POP POP POP POP POP PUSH2 0xC73 PUSH2 0xC6B PUSH2 0x50E SWAP3 PUSH2 0xC1F PUSH1 0x6 PUSH2 0xC18 PUSH1 0x16 SLOAD PUSH0 MSTORE PUSH1 0xE PUSH1 0x20 MSTORE PUSH1 0x40 PUSH0 KECCAK256 SWAP1 JUMP JUMPDEST ADD PUSH1 0x2 SWAP1 SSTORE JUMP JUMPDEST PUSH32 0xDF1D8803086D741B575C965086104B4857DC93DAE33B008F5BC631F432FE0E7F PUSH1 0x16 SLOAD SWAP3 DUP4 SWAP3 PUSH1 0x6 PUSH2 0xC5A DUP6 PUSH0 MSTORE PUSH1 0xE PUSH1 0x20 MSTORE PUSH1 0x40 PUSH0 KECCAK256 SWAP1 JUMP JUMPDEST ADD SLOAD SWAP1 MLOAD SWAP1 DUP2 MSTORE SWAP1 DUP2 SWAP1 PUSH1 0x20 DUP3 ADD SWAP1 JUMP JUMPDEST SUB SWAP1 LOG2 PUSH2 0x2783 JUMP JUMPDEST PUSH1 0x16 SSTORE JUMP JUMPDEST DUP4 SWAP5 DUP5 SWAP2 DUP6 JUMPDEST DUP5 MLOAD DUP2 LT ISZERO PUSH2 0xD0A JUMPI DUP3 DUP7 PUSH2 0xC93 DUP4 DUP9 PUSH2 0x3266 JUMP JUMPDEST MLOAD ADD MLOAD LT ISZERO PUSH2 0xCAB JUMPI JUMPDEST PUSH2 0xCA6 SWAP1 PUSH2 0x2783 JUMP JUMPDEST PUSH2 0xC7E JUMP JUMPDEST SWAP6 SWAP7 PUSH1 0x1 DUP11 PUSH2 0xCBA DUP10 DUP9 PUSH2 0x3266 JUMP JUMPDEST MLOAD ADD MLOAD SUB PUSH2 0xCEF JUMPI PUSH2 0xCE6 PUSH2 0xCE0 PUSH2 0xCA6 SWAP3 DUP9 PUSH2 0xCD7 DUP12 DUP11 PUSH2 0x3266 JUMP JUMPDEST MLOAD ADD MLOAD SWAP1 PUSH2 0x2173 JUMP JUMPDEST SWAP9 PUSH2 0x2783 JUMP JUMPDEST SWAP7 JUMPDEST SWAP1 POP PUSH2 0xC9D JUMP JUMPDEST SWAP7 SWAP6 SWAP3 PUSH2 0xD04 PUSH2 0xCA6 SWAP2 DUP8 PUSH2 0xCD7 DUP8 DUP10 PUSH2 0x3266 JUMP JUMPDEST SWAP4 PUSH2 0xCE8 JUMP JUMPDEST POP SWAP4 POP POP SWAP5 PUSH2 0xC73 SWAP6 PUSH2 0xD30 PUSH2 0xC6B SWAP7 SWAP4 PUSH2 0xD28 PUSH2 0x50E SWAP11 SWAP8 PUSH2 0x327A JUMP JUMPDEST SWAP1 MLOAD SWAP1 PUSH2 0x2791 JUMP JUMPDEST SWAP3 GT SWAP2 DUP3 PUSH2 0xD7D JUMPI JUMPDEST POP POP ISZERO PUSH2 0xD66 JUMPI POP PUSH2 0xD61 PUSH1 0x6 PUSH2 0xD5A PUSH1 0x16 SLOAD PUSH0 MSTORE PUSH1 0xE PUSH1 0x20 MSTORE PUSH1 0x40 PUSH0 KECCAK256 SWAP1 JUMP JUMPDEST ADD PUSH1 0x1 SWAP1 SSTORE JUMP JUMPDEST PUSH2 0xC1F JUMP JUMPDEST PUSH1 0x6 PUSH2 0xC18 PUSH2 0xD61 SWAP3 PUSH0 MSTORE PUSH1 0xE PUSH1 0x20 MSTORE PUSH1 0x40 PUSH0 KECCAK256 SWAP1 JUMP JUMPDEST LT ISZERO SWAP1 POP PUSH0 DUP1 PUSH2 0xD39 JUMP JUMPDEST SWAP2 SWAP5 POP POP PUSH2 0xDAD SWAP2 SWAP3 POP DUP4 RETURNDATASIZE DUP6 GT PUSH2 0xDB7 JUMPI JUMPDEST PUSH2 0xDA5 DUP2 DUP4 PUSH2 0x99B JUMP JUMPDEST DUP2 ADD SWAP1 PUSH2 0x28DB JUMP JUMPDEST SWAP4 SWAP1 SWAP3 SWAP2 PUSH0 PUSH2 0xBC7 JUMP JUMPDEST POP RETURNDATASIZE PUSH2 0xD9B JUMP JUMPDEST PUSH2 0x23E5 JUMP JUMPDEST CALLVALUE PUSH2 0x2AB JUMPI PUSH0 CALLDATASIZE PUSH1 0x3 NOT ADD SLT PUSH2 0x2AB JUMPI PUSH1 0x13 SLOAD PUSH1 0x40 MLOAD PUSH1 0x1 PUSH1 0x1 PUSH1 0xA0 SHL SUB SWAP1 SWAP2 AND DUP2 MSTORE PUSH1 0x20 SWAP1 RETURN JUMPDEST CALLVALUE PUSH2 0x2AB JUMPI PUSH1 0x20 CALLDATASIZE PUSH1 0x3 NOT ADD SLT PUSH2 0x2AB JUMPI PUSH1 0x4 CALLDATALOAD PUSH1 0x8 SLOAD DUP2 LT ISZERO PUSH2 0xE3B JUMPI PUSH1 0x8 PUSH0 MSTORE PUSH32 0xF3F7A9FE364FAAB93B216DA50A3214154F22A0A2B415B23A84C8169E8B636EE3 ADD SLOAD PUSH1 0x40 MLOAD SWAP1 DUP2 MSTORE PUSH1 0x20 SWAP1 RETURN JUMPDEST PUSH1 0x40 MLOAD PUSH3 0x461BCD PUSH1 0xE5 SHL DUP2 MSTORE PUSH1 0x20 PUSH1 0x4 DUP3 ADD MSTORE PUSH1 0x2C PUSH1 0x24 DUP3 ADD MSTORE PUSH32 0x455243373231456E756D657261626C653A20676C6F62616C20696E646578206F PUSH1 0x44 DUP3 ADD MSTORE PUSH12 0x7574206F6620626F756E6473 PUSH1 0xA0 SHL PUSH1 0x64 DUP3 ADD MSTORE PUSH1 0x84 SWAP1 REVERT JUMPDEST CALLVALUE PUSH2 0x2AB JUMPI PUSH1 0x20 CALLDATASIZE PUSH1 0x3 NOT ADD SLT PUSH2 0x2AB JUMPI PUSH2 0xEBB PUSH1 0x1 DUP1 PUSH1 0xA0 SHL SUB PUSH1 0xA SLOAD AND CALLER EQ PUSH2 0x1C49 JUMP JUMPDEST PUSH1 0x4 CALLDATALOAD PUSH1 0x17 SSTORE STOP JUMPDEST CALLVALUE PUSH2 0x2AB JUMPI PUSH2 0xED1 CALLDATASIZE PUSH2 0xAD1 JUMP JUMPDEST POP POP PUSH1 0x16 SLOAD PUSH0 MSTORE PUSH1 0x20 PUSH1 0xE DUP2 MSTORE PUSH1 0x7 PUSH1 0x40 PUSH0 KECCAK256 ADD SLOAD SWAP1 PUSH1 0x15 SLOAD DUP3 ADD DUP1 SWAP3 GT PUSH2 0xF43 JUMPI PUSH1 0x40 MLOAD SWAP2 TIMESTAMP GT DUP3 MSTORE PUSH1 0x40 DUP2 DUP4 ADD MSTORE DUP2 PUSH1 0x60 SWAP2 DUP3 MLOAD SWAP1 DUP2 PUSH1 0x40 DUP5 ADD MSTORE PUSH0 JUMPDEST DUP3 DUP2 LT PUSH2 0xF2E JUMPI POP POP PUSH0 DUP3 DUP3 ADD DUP5 ADD MSTORE PUSH1 0x1F ADD PUSH1 0x1F NOT AND DUP2 ADD SUB ADD SWAP1 RETURN JUMPDEST PUSH1 0x80 DUP2 ADD MLOAD DUP7 DUP3 ADD DUP7 ADD MSTORE DUP6 SWAP4 POP DUP2 ADD PUSH2 0xF10 JUMP JUMPDEST PUSH2 0x2135 JUMP JUMPDEST PUSH1 0x40 MLOAD SWAP1 PUSH2 0x9D7 DUP3 PUSH2 0x936 JUMP JUMPDEST PUSH1 0x40 MLOAD SWAP1 PUSH2 0x9D7 DUP3 PUSH2 0x951 JUMP JUMPDEST PUSH1 0x1 PUSH1 0x1 PUSH1 0x40 SHL SUB DUP2 GT PUSH2 0x712 JUMPI PUSH1 0x1F ADD PUSH1 0x1F NOT AND PUSH1 0x20 ADD SWAP1 JUMP JUMPDEST SWAP3 SWAP2 SWAP3 PUSH2 0xF89 DUP3 PUSH2 0xF62 JUMP JUMPDEST SWAP2 PUSH2 0xF97 PUSH1 0x40 MLOAD SWAP4 DUP5 PUSH2 0x99B JUMP JUMPDEST DUP3 SWAP5 DUP2 DUP5 MSTORE DUP2 DUP4 ADD GT PUSH2 0x2AB JUMPI DUP3 DUP2 PUSH1 0x20 SWAP4 DUP5 PUSH0 SWAP7 ADD CALLDATACOPY ADD ADD MSTORE JUMP JUMPDEST SWAP1 DUP1 PUSH1 0x1F DUP4 ADD SLT ISZERO PUSH2 0x2AB JUMPI DUP2 PUSH1 0x20 PUSH2 0x398 SWAP4 CALLDATALOAD SWAP2 ADD PUSH2 0xF7D JUMP JUMPDEST CALLVALUE PUSH2 0x2AB JUMPI PUSH1 0xA0 CALLDATASIZE PUSH1 0x3 NOT ADD SLT PUSH2 0x2AB JUMPI PUSH1 0x1 PUSH1 0x1 PUSH1 0x40 SHL SUB PUSH1 0x4 DUP1 CALLDATALOAD DUP3 DUP2 GT PUSH2 0x2AB JUMPI PUSH2 0xFFF SWAP1 CALLDATASIZE SWAP1 DUP4 ADD PUSH2 0xFB3 JUMP JUMPDEST PUSH1 0x24 CALLDATALOAD DUP4 DUP2 GT PUSH2 0x2AB JUMPI PUSH2 0x1016 SWAP1 CALLDATASIZE SWAP1 DUP5 ADD PUSH2 0xFB3 JUMP JUMPDEST PUSH1 0x44 CALLDATALOAD DUP5 DUP2 GT PUSH2 0x2AB JUMPI PUSH2 0x102D SWAP1 CALLDATASIZE SWAP1 DUP6 ADD PUSH2 0xFB3 JUMP JUMPDEST PUSH1 0x64 CALLDATALOAD DUP6 DUP2 GT PUSH2 0x2AB JUMPI PUSH2 0x1044 SWAP1 CALLDATASIZE SWAP1 DUP7 ADD PUSH2 0xFB3 JUMP JUMPDEST SWAP2 PUSH1 0x84 CALLDATALOAD SWAP6 DUP7 GT PUSH2 0x2AB JUMPI PUSH2 0x1062 PUSH2 0x1068 SWAP6 PUSH2 0x3F1 SWAP8 CALLDATASIZE SWAP2 ADD PUSH2 0xFB3 JUMP JUMPDEST SWAP4 PUSH2 0x2C02 JUMP JUMPDEST PUSH1 0x40 MLOAD SWAP1 DUP2 MSTORE SWAP1 DUP2 SWAP1 PUSH1 0x20 DUP3 ADD SWAP1 JUMP JUMPDEST CALLVALUE PUSH2 0x2AB JUMPI PUSH1 0x20 CALLDATASIZE PUSH1 0x3 NOT ADD SLT PUSH2 0x2AB JUMPI PUSH2 0x1091 PUSH2 0x48B JUMP JUMPDEST PUSH1 0xA SLOAD PUSH1 0x1 PUSH1 0x1 PUSH1 0xA0 SHL SUB SWAP2 SWAP1 PUSH2 0x10AB SWAP1 DUP4 AND CALLER EQ PUSH2 0x1C49 JUMP JUMPDEST AND PUSH1 0x1 DUP1 PUSH1 0xA0 SHL SUB NOT DUP2 DUP2 PUSH1 0x11 SLOAD AND OR PUSH1 0x11 SSTORE PUSH1 0x12 SLOAD AND OR PUSH1 0x12 SSTORE PUSH0 DUP1 RETURN JUMPDEST CALLVALUE PUSH2 0x2AB JUMPI PUSH1 0x20 CALLDATASIZE PUSH1 0x3 NOT ADD SLT PUSH2 0x2AB JUMPI PUSH1 0x20 PUSH2 0x479 PUSH1 0x4 CALLDATALOAD PUSH2 0x1D52 JUMP JUMPDEST CALLVALUE PUSH2 0x2AB JUMPI PUSH1 0x60 CALLDATASIZE PUSH1 0x3 NOT ADD SLT PUSH2 0x2AB JUMPI PUSH1 0x24 CALLDATALOAD PUSH1 0x4 CALLDATALOAD PUSH1 0x1 PUSH1 0x1 PUSH1 0x40 SHL SUB DUP3 GT PUSH2 0x2AB JUMPI PUSH2 0x111C PUSH0 SWAP3 CALLDATASIZE SWAP1 PUSH1 0x4 ADD PUSH2 0xFB3 JUMP JUMPDEST SWAP1 PUSH1 0x44 CALLDATALOAD SWAP1 PUSH2 0x1132 PUSH2 0x112D DUP3 PUSH2 0x1FE6 JUMP JUMPDEST PUSH2 0x2FED JUMP JUMPDEST PUSH1 0x13 SLOAD PUSH1 0x20 SWAP1 PUSH2 0x1180 SWAP1 PUSH2 0x114E SWAP1 PUSH1 0x1 PUSH1 0x1 PUSH1 0xA0 SHL SUB AND PUSH2 0xB73 JUMP JUMPDEST PUSH1 0x5 PUSH2 0x1162 DUP6 PUSH0 MSTORE PUSH1 0xE PUSH1 0x20 MSTORE PUSH1 0x40 PUSH0 KECCAK256 SWAP1 JUMP JUMPDEST ADD PUSH1 0x40 MLOAD SWAP8 DUP9 DUP1 SWAP5 DUP2 SWAP4 PUSH4 0x598F921B PUSH1 0xE0 SHL DUP4 MSTORE CALLER PUSH1 0x4 DUP5 ADD PUSH2 0x3041 JUMP JUMPDEST SUB SWAP3 GAS CALL SWAP2 DUP3 ISZERO PUSH2 0xDBE JUMPI PUSH2 0x50E SWAP5 PUSH0 SWAP4 PUSH2 0x1203 JUMPI JUMPDEST POP DUP2 PUSH32 0x1C70A9494D995A031D308F3B6A0A2D15C50B9103E38461CEA81BAC8EB4A0DD8F PUSH2 0x11FE SWAP5 SWAP6 PUSH2 0x11C6 PUSH2 0xF48 JUMP JUMPDEST CALLER DUP2 MSTORE SWAP7 DUP2 PUSH1 0x20 DUP10 ADD MSTORE DUP5 PUSH1 0x40 DUP10 ADD MSTORE DUP1 PUSH1 0x60 DUP10 ADD MSTORE PUSH2 0x11ED PUSH1 0x40 MLOAD SWAP3 DUP4 SWAP3 CALLER SWAP8 DUP5 PUSH2 0x3063 JUMP JUMPDEST SUB SWAP1 LOG3 PUSH0 MSTORE PUSH1 0xD PUSH1 0x20 MSTORE PUSH1 0x40 PUSH0 KECCAK256 SWAP1 JUMP JUMPDEST PUSH2 0x307F JUMP JUMPDEST PUSH2 0x11FE SWAP4 POP PUSH32 0x1C70A9494D995A031D308F3B6A0A2D15C50B9103E38461CEA81BAC8EB4A0DD8F PUSH2 0x124A DUP5 SWAP3 PUSH1 0x20 RETURNDATASIZE DUP2 GT PUSH2 0x1252 JUMPI JUMPDEST PUSH2 0x1242 DUP2 DUP4 PUSH2 0x99B JUMP JUMPDEST DUP2 ADD SWAP1 PUSH2 0x3032 JUMP JUMPDEST SWAP5 POP POP PUSH2 0x1196 JUMP JUMPDEST POP RETURNDATASIZE PUSH2 0x1238 JUMP JUMPDEST CALLVALUE PUSH2 0x2AB JUMPI PUSH1 0x20 CALLDATASIZE PUSH1 0x3 NOT ADD SLT PUSH2 0x2AB JUMPI PUSH2 0x127F PUSH1 0x1 DUP1 PUSH1 0xA0 SHL SUB PUSH1 0xA SLOAD AND CALLER EQ PUSH2 0x1C49 JUMP JUMPDEST PUSH1 0x4 CALLDATALOAD PUSH1 0x14 SSTORE STOP JUMPDEST PUSH1 0x20 PUSH1 0x3 NOT DUP3 ADD SLT PUSH2 0x2AB JUMPI PUSH1 0x4 CALLDATALOAD SWAP1 PUSH1 0x1 PUSH1 0x1 PUSH1 0x40 SHL SUB DUP3 GT PUSH2 0x2AB JUMPI PUSH2 0x398 SWAP2 PUSH1 0x4 ADD PUSH2 0xFB3 JUMP JUMPDEST SWAP5 SWAP1 PUSH1 0xE0 SWAP7 SWAP4 PUSH2 0x1322 SWAP6 PUSH2 0x12E9 PUSH2 0x1314 SWAP6 PUSH2 0x12DB PUSH2 0x1306 SWAP6 SWAP15 SWAP14 SWAP13 SWAP15 PUSH2 0x100 DUP1 DUP14 MSTORE DUP13 ADD SWAP1 PUSH2 0x362 JUMP JUMPDEST SWAP1 DUP11 DUP3 SUB PUSH1 0x20 DUP13 ADD MSTORE PUSH2 0x362 JUMP JUMPDEST PUSH1 0x1 PUSH1 0x1 PUSH1 0xA0 SHL SUB SWAP1 SWAP3 AND PUSH1 0x40 DUP10 ADD MSTORE DUP8 DUP3 SUB PUSH1 0x60 DUP10 ADD MSTORE PUSH2 0x362 JUMP JUMPDEST SWAP1 DUP6 DUP3 SUB PUSH1 0x80 DUP8 ADD MSTORE PUSH2 0x362 JUMP JUMPDEST SWAP1 DUP4 DUP3 SUB PUSH1 0xA0 DUP6 ADD MSTORE PUSH2 0x362 JUMP JUMPDEST SWAP5 PUSH1 0xC0 DUP3 ADD MSTORE ADD MSTORE JUMP JUMPDEST CALLVALUE PUSH2 0x2AB JUMPI PUSH2 0x133A CALLDATASIZE PUSH2 0x1287 JUMP JUMPDEST PUSH2 0x1343 DUP2 PUSH2 0x197F JUMP JUMPDEST SLOAD ISZERO PUSH2 0x13C8 JUMPI PUSH2 0x1355 PUSH2 0x1364 SWAP2 PUSH2 0x197F JUMP JUMPDEST SLOAD PUSH0 MSTORE PUSH1 0xE PUSH1 0x20 MSTORE PUSH1 0x40 PUSH0 KECCAK256 SWAP1 JUMP JUMPDEST PUSH1 0x2 DUP2 ADD SLOAD PUSH1 0x1 PUSH1 0x1 PUSH1 0xA0 SHL SUB AND PUSH2 0x3F1 PUSH1 0x6 DUP4 ADD SLOAD PUSH1 0x7 DUP5 ADD SLOAD SWAP1 PUSH2 0x1389 DUP6 PUSH2 0x9BC JUMP JUMPDEST SWAP4 PUSH2 0x1396 PUSH1 0x1 DUP8 ADD PUSH2 0x9BC JUMP JUMPDEST SWAP6 PUSH2 0x13A3 PUSH1 0x3 DUP3 ADD PUSH2 0x9BC JUMP JUMPDEST PUSH2 0x13BB PUSH1 0x5 PUSH2 0x13B4 PUSH1 0x4 DUP6 ADD PUSH2 0x9BC JUMP JUMPDEST SWAP4 ADD PUSH2 0x9BC JUMP JUMPDEST SWAP3 PUSH1 0x40 MLOAD SWAP9 DUP10 SWAP9 DUP10 PUSH2 0x12B1 JUMP JUMPDEST PUSH1 0x40 MLOAD PUSH3 0x461BCD PUSH1 0xE5 SHL DUP2 MSTORE PUSH1 0x20 PUSH1 0x4 DUP3 ADD MSTORE PUSH1 0x21 PUSH1 0x24 DUP3 ADD MSTORE PUSH32 0x495046532068617368206E6F7420617474616368656420746F2041727469636C PUSH1 0x44 DUP3 ADD MSTORE PUSH1 0x65 PUSH1 0xF8 SHL PUSH1 0x64 DUP3 ADD MSTORE PUSH1 0x84 SWAP1 REVERT JUMPDEST CALLVALUE PUSH2 0x2AB JUMPI PUSH1 0x20 CALLDATASIZE PUSH1 0x3 NOT ADD SLT PUSH2 0x2AB JUMPI PUSH1 0x20 PUSH2 0x143A PUSH2 0x1435 PUSH2 0x48B JUMP JUMPDEST PUSH2 0x1CDC JUMP JUMPDEST PUSH1 0x40 MLOAD SWAP1 DUP2 MSTORE RETURN JUMPDEST CALLVALUE PUSH2 0x2AB JUMPI PUSH0 DUP1 PUSH1 0x3 NOT CALLDATASIZE ADD SLT PUSH2 0x458 JUMPI PUSH1 0xA SLOAD DUP2 SWAP1 PUSH1 0x1 PUSH1 0x1 PUSH1 0xA0 SHL SUB DUP2 AND SWAP1 PUSH2 0x146E CALLER DUP4 EQ PUSH2 0x1C49 JUMP JUMPDEST PUSH1 0x1 PUSH1 0x1 PUSH1 0xA0 SHL SUB NOT AND PUSH1 0xA SSTORE PUSH32 0x8BE0079C531659141344CD1FD0A4F28419497F9722A3DAAFE3B4186F6B6457E0 DUP3 DUP1 LOG3 DUP1 RETURN JUMPDEST CALLVALUE PUSH2 0x2AB JUMPI PUSH0 CALLDATASIZE PUSH1 0x3 NOT ADD SLT PUSH2 0x2AB JUMPI PUSH1 0x20 PUSH1 0x14 SLOAD PUSH1 0x40 MLOAD SWAP1 DUP2 MSTORE RETURN JUMPDEST CALLVALUE PUSH2 0x2AB JUMPI PUSH1 0x20 CALLDATASIZE PUSH1 0x3 NOT ADD SLT PUSH2 0x2AB JUMPI PUSH2 0x14E5 PUSH1 0x1 DUP1 PUSH1 0xA0 SHL SUB PUSH1 0xA SLOAD AND CALLER EQ PUSH2 0x1C49 JUMP JUMPDEST PUSH1 0x4 CALLDATALOAD PUSH1 0x15 SSTORE STOP JUMPDEST CALLVALUE PUSH2 0x2AB JUMPI PUSH0 CALLDATASIZE PUSH1 0x3 NOT ADD SLT PUSH2 0x2AB JUMPI PUSH1 0xA SLOAD PUSH1 0x40 MLOAD PUSH1 0x1 PUSH1 0x1 PUSH1 0xA0 SHL SUB SWAP1 SWAP2 AND DUP2 MSTORE PUSH1 0x20 SWAP1 RETURN JUMPDEST CALLVALUE PUSH2 0x2AB JUMPI PUSH0 DUP1 PUSH1 0x3 NOT CALLDATASIZE ADD SLT PUSH2 0x458 JUMPI PUSH1 0x40 MLOAD DUP2 PUSH1 0x1 DUP1 SLOAD SWAP1 PUSH2 0x1538 DUP3 PUSH2 0x859 JUMP JUMPDEST DUP1 DUP6 MSTORE SWAP2 DUP2 DUP2 AND SWAP1 DUP2 ISZERO PUSH2 0x430 JUMPI POP PUSH1 0x1 EQ PUSH2 0x155E JUMPI PUSH2 0x3F1 DUP5 PUSH2 0x3E5 DUP2 DUP9 SUB DUP3 PUSH2 0x99B JUMP JUMPDEST DUP1 SWAP5 POP DUP3 MSTORE PUSH1 0x20 SWAP4 DUP5 DUP4 KECCAK256 JUMPDEST DUP3 DUP5 LT PUSH2 0x1586 JUMPI POP POP POP DUP2 PUSH2 0x3F1 SWAP4 PUSH2 0x3E5 SWAP3 DUP3 ADD ADD SWAP4 PUSH2 0x3D5 JUMP JUMPDEST DUP1 SLOAD DUP6 DUP6 ADD DUP8 ADD MSTORE SWAP3 DUP6 ADD SWAP3 DUP2 ADD PUSH2 0x156A JUMP JUMPDEST CALLVALUE PUSH2 0x2AB JUMPI PUSH0 CALLDATASIZE PUSH1 0x3 NOT ADD SLT PUSH2 0x2AB JUMPI PUSH1 0x20 PUSH1 0x15 SLOAD PUSH1 0x40 MLOAD SWAP1 DUP2 MSTORE RETURN JUMPDEST CALLVALUE PUSH2 0x2AB JUMPI PUSH0 CALLDATASIZE PUSH1 0x3 NOT ADD SLT PUSH2 0x2AB JUMPI PUSH1 0x20 PUSH1 0x16 SLOAD PUSH1 0x40 MLOAD SWAP1 DUP2 MSTORE RETURN JUMPDEST DUP1 ISZERO ISZERO SUB PUSH2 0x2AB JUMPI JUMP JUMPDEST CALLVALUE PUSH2 0x2AB JUMPI PUSH1 0x40 CALLDATASIZE PUSH1 0x3 NOT ADD SLT PUSH2 0x2AB JUMPI PUSH2 0x15F6 PUSH2 0x48B JUMP JUMPDEST PUSH1 0x24 CALLDATALOAD PUSH2 0x1602 DUP2 PUSH2 0x15D3 JUMP JUMPDEST PUSH1 0x1 PUSH1 0x1 PUSH1 0xA0 SHL SUB DUP3 AND SWAP2 CALLER DUP4 EQ PUSH2 0x1680 JUMPI DUP2 PUSH2 0x163D PUSH2 0x164E SWAP3 CALLER PUSH0 MSTORE PUSH1 0x5 PUSH1 0x20 MSTORE PUSH1 0x40 PUSH0 KECCAK256 SWAP1 PUSH1 0x1 DUP1 PUSH1 0xA0 SHL SUB AND PUSH0 MSTORE PUSH1 0x20 MSTORE PUSH1 0x40 PUSH0 KECCAK256 SWAP1 JUMP JUMPDEST SWAP1 PUSH1 0xFF DUP1 NOT DUP4 SLOAD AND SWAP2 ISZERO ISZERO AND OR SWAP1 SSTORE JUMP JUMPDEST PUSH1 0x40 MLOAD SWAP1 ISZERO ISZERO DUP2 MSTORE CALLER SWAP1 PUSH32 0x17307EAB39AB6107E8899845AD3D59BD9653F200F220920489CA2B5937696C31 SWAP1 PUSH1 0x20 SWAP1 LOG3 STOP JUMPDEST PUSH1 0x40 MLOAD PUSH3 0x461BCD PUSH1 0xE5 SHL DUP2 MSTORE PUSH1 0x20 PUSH1 0x4 DUP3 ADD MSTORE PUSH1 0x19 PUSH1 0x24 DUP3 ADD MSTORE PUSH25 0x22A9219B99189D1030B8383937BB32903A379031B0B63632B9 PUSH1 0x39 SHL PUSH1 0x44 DUP3 ADD MSTORE PUSH1 0x64 SWAP1 REVERT JUMPDEST CALLVALUE PUSH2 0x2AB JUMPI PUSH1 0x40 CALLDATASIZE PUSH1 0x3 NOT ADD SLT PUSH2 0x2AB JUMPI PUSH1 0x4 CALLDATALOAD PUSH2 0x16DD PUSH2 0x4A1 JUMP JUMPDEST SWAP1 PUSH2 0x16E7 DUP2 PUSH2 0x1D52 JUMP JUMPDEST PUSH1 0x1 PUSH1 0x1 PUSH1 0xA0 SHL SUB SWAP1 DUP2 AND CALLER EQ SWAP1 DUP2 ISZERO PUSH2 0x1742 JUMPI JUMPDEST POP ISZERO PUSH2 0x170C JUMPI PUSH2 0x50E SWAP2 CALLER PUSH2 0x1F30 JUMP JUMPDEST PUSH1 0x40 MLOAD PUSH3 0x461BCD PUSH1 0xE5 SHL DUP2 MSTORE PUSH1 0x20 PUSH1 0x4 DUP3 ADD MSTORE PUSH1 0xE PUSH1 0x24 DUP3 ADD MSTORE PUSH14 0x139BDD08185D5D1A1BDC9A5E9959 PUSH1 0x92 SHL PUSH1 0x44 DUP3 ADD MSTORE PUSH1 0x64 SWAP1 REVERT JUMPDEST SWAP1 POP PUSH2 0x174D DUP3 PUSH2 0x1D52 JUMP JUMPDEST AND PUSH0 SWAP1 DUP2 MSTORE PUSH1 0x5 PUSH1 0x20 SWAP1 DUP2 MSTORE PUSH1 0x40 DUP1 DUP4 KECCAK256 CALLER DUP5 MSTORE SWAP1 SWAP2 MSTORE DUP2 KECCAK256 SLOAD PUSH1 0xFF AND SWAP1 PUSH2 0x16FC JUMP JUMPDEST CALLVALUE PUSH2 0x2AB JUMPI PUSH1 0x80 CALLDATASIZE PUSH1 0x3 NOT ADD SLT PUSH2 0x2AB JUMPI PUSH2 0x1789 PUSH2 0x48B JUMP JUMPDEST PUSH2 0x1791 PUSH2 0x4A1 JUMP JUMPDEST PUSH1 0x64 CALLDATALOAD SWAP2 PUSH1 0x1 PUSH1 0x1 PUSH1 0x40 SHL SUB DUP4 GT PUSH2 0x2AB JUMPI CALLDATASIZE PUSH1 0x23 DUP5 ADD SLT ISZERO PUSH2 0x2AB JUMPI PUSH2 0x17C5 PUSH2 0x50E SWAP4 CALLDATASIZE SWAP1 PUSH1 0x24 DUP2 PUSH1 0x4 ADD CALLDATALOAD SWAP2 ADD PUSH2 0xF7D JUMP JUMPDEST SWAP2 PUSH1 0x44 CALLDATALOAD SWAP2 PUSH2 0x1F43 JUMP JUMPDEST PUSH1 0x20 DUP2 MSTORE DUP2 MLOAD PUSH1 0xE0 PUSH2 0x1864 PUSH2 0x17F2 PUSH2 0x100 SWAP4 DUP5 PUSH1 0x20 DUP8 ADD MSTORE PUSH2 0x120 DUP7 ADD SWAP1 PUSH2 0x362 JUMP JUMPDEST PUSH2 0x184F PUSH2 0x183B PUSH2 0x1814 PUSH1 0x20 DUP10 ADD MLOAD SWAP4 PUSH1 0x1F NOT SWAP5 DUP6 DUP11 DUP4 SUB ADD PUSH1 0x40 DUP12 ADD MSTORE PUSH2 0x362 JUMP JUMPDEST PUSH1 0x40 DUP10 ADD MLOAD PUSH1 0x1 PUSH1 0x1 PUSH1 0xA0 SHL SUB AND PUSH1 0x60 DUP10 ADD MSTORE PUSH1 0x60 DUP10 ADD MLOAD DUP5 DUP10 DUP4 SUB ADD PUSH1 0x80 DUP11 ADD MSTORE PUSH2 0x362 JUMP JUMPDEST PUSH1 0x80 DUP9 ADD MLOAD DUP4 DUP9 DUP4 SUB ADD PUSH1 0xA0 DUP10 ADD MSTORE PUSH2 0x362 JUMP JUMPDEST SWAP1 PUSH1 0xA0 DUP8 ADD MLOAD SWAP1 DUP7 DUP4 SUB ADD PUSH1 0xC0 DUP8 ADD MSTORE PUSH2 0x362 JUMP JUMPDEST SWAP4 PUSH1 0xC0 DUP2 ADD MLOAD DUP3 DUP6 ADD MSTORE ADD MLOAD SWAP2 ADD MSTORE SWAP1 JUMP JUMPDEST CALLVALUE PUSH2 0x2AB JUMPI PUSH1 0x20 CALLDATASIZE PUSH1 0x3 NOT ADD SLT PUSH2 0x2AB JUMPI PUSH2 0x3F1 PUSH1 0x4 CALLDATALOAD PUSH1 0x40 MLOAD SWAP1 PUSH2 0x189A DUP3 PUSH2 0x951 JUMP JUMPDEST PUSH0 PUSH1 0xE0 PUSH1 0x60 SWAP4 DUP5 DUP2 MSTORE DUP5 PUSH1 0x20 DUP3 ADD MSTORE DUP3 PUSH1 0x40 DUP3 ADD MSTORE DUP5 DUP1 DUP3 ADD MSTORE DUP5 PUSH1 0x80 DUP3 ADD MSTORE DUP5 PUSH1 0xA0 DUP3 ADD MSTORE DUP3 PUSH1 0xC0 DUP3 ADD MSTORE ADD MSTORE PUSH2 0x18D4 PUSH2 0x112D DUP3 PUSH2 0x1FE6 JUMP JUMPDEST PUSH0 MSTORE PUSH1 0xE PUSH1 0x20 MSTORE PUSH1 0x7 PUSH1 0x40 PUSH0 KECCAK256 PUSH2 0x18E9 PUSH2 0xF55 JUMP JUMPDEST SWAP3 PUSH2 0x18F3 DUP3 PUSH2 0x9BC JUMP JUMPDEST DUP5 MSTORE PUSH2 0x1901 PUSH1 0x1 DUP4 ADD PUSH2 0x9BC JUMP JUMPDEST PUSH1 0x20 DUP6 ADD MSTORE PUSH1 0x2 DUP3 ADD SLOAD PUSH1 0x1 PUSH1 0x1 PUSH1 0xA0 SHL SUB AND PUSH1 0x40 DUP6 ADD MSTORE PUSH2 0x1925 PUSH1 0x3 DUP4 ADD PUSH2 0x9BC JUMP JUMPDEST SWAP1 DUP5 ADD MSTORE PUSH2 0x1935 PUSH1 0x4 DUP3 ADD PUSH2 0x9BC JUMP JUMPDEST PUSH1 0x80 DUP5 ADD MSTORE PUSH2 0x1946 PUSH1 0x5 DUP3 ADD PUSH2 0x9BC JUMP JUMPDEST PUSH1 0xA0 DUP5 ADD MSTORE PUSH1 0x6 DUP2 ADD SLOAD PUSH1 0xC0 DUP5 ADD MSTORE ADD SLOAD PUSH1 0xE0 DUP3 ADD MSTORE PUSH1 0x40 MLOAD SWAP2 DUP3 SWAP2 DUP3 PUSH2 0x17CF JUMP JUMPDEST SWAP1 PUSH2 0x197B PUSH1 0x20 SWAP3 DUP3 DUP2 MLOAD SWAP5 DUP6 SWAP3 ADD PUSH2 0x341 JUMP JUMPDEST ADD SWAP1 JUMP JUMPDEST PUSH1 0x20 PUSH2 0x1998 SWAP2 DUP2 PUSH1 0x40 MLOAD SWAP4 DUP3 DUP6 DUP1 SWAP5 MLOAD SWAP4 DUP5 SWAP3 ADD PUSH2 0x341 JUMP JUMPDEST DUP2 ADD PUSH1 0xF DUP2 MSTORE SUB ADD SWAP1 KECCAK256 SWAP1 JUMP JUMPDEST CALLVALUE PUSH2 0x2AB JUMPI PUSH1 0x20 PUSH2 0x19BD PUSH2 0x19B8 CALLDATASIZE PUSH2 0x1287 JUMP JUMPDEST PUSH2 0x197F JUMP JUMPDEST SLOAD PUSH1 0x40 MLOAD SWAP1 DUP2 MSTORE RETURN JUMPDEST CALLVALUE PUSH2 0x2AB JUMPI PUSH1 0x20 CALLDATASIZE PUSH1 0x3 NOT ADD SLT PUSH2 0x2AB JUMPI PUSH1 0x4 CALLDATALOAD PUSH2 0x19E3 DUP2 PUSH2 0x1FE6 JUMP JUMPDEST ISZERO PUSH2 0x1A43 JUMPI PUSH2 0x19F0 PUSH2 0x1DC9 JUMP JUMPDEST DUP1 MLOAD ISZERO PUSH2 0x1A31 JUMPI PUSH2 0x3E5 PUSH2 0x1A1D SWAP2 PUSH2 0x1A23 PUSH2 0x1A0D PUSH2 0x3F1 SWAP6 PUSH2 0x27C0 JUMP JUMPDEST PUSH1 0x40 MLOAD SWAP5 DUP6 SWAP4 PUSH1 0x20 DUP6 ADD SWAP1 PUSH2 0x1968 JUMP JUMPDEST SWAP1 PUSH2 0x1968 JUMP JUMPDEST SUB PUSH1 0x1F NOT DUP2 ADD DUP4 MSTORE DUP3 PUSH2 0x99B JUMP JUMPDEST POP POP PUSH2 0x3F1 PUSH2 0x1A3E PUSH2 0x1DC9 JUMP JUMPDEST PUSH2 0x3E5 JUMP JUMPDEST PUSH1 0x40 MLOAD PUSH3 0x461BCD PUSH1 0xE5 SHL DUP2 MSTORE PUSH1 0x20 PUSH1 0x4 DUP3 ADD MSTORE PUSH1 0x2F PUSH1 0x24 DUP3 ADD MSTORE PUSH32 0x4552433732314D657461646174613A2055524920717565727920666F72206E6F PUSH1 0x44 DUP3 ADD MSTORE PUSH15 0x3732BC34B9BA32B73A103A37B5B2B7 PUSH1 0x89 SHL PUSH1 0x64 DUP3 ADD MSTORE PUSH1 0x84 SWAP1 REVERT JUMPDEST CALLVALUE PUSH2 0x2AB JUMPI PUSH0 CALLDATASIZE PUSH1 0x3 NOT ADD SLT PUSH2 0x2AB JUMPI PUSH1 0x20 PUSH1 0x17 SLOAD PUSH1 0x40 MLOAD SWAP1 DUP2 MSTORE RETURN JUMPDEST CALLVALUE PUSH2 0x2AB JUMPI PUSH1 0x40 CALLDATASIZE PUSH1 0x3 NOT ADD SLT PUSH2 0x2AB JUMPI PUSH1 0x20 PUSH1 0xFF PUSH2 0x1B0D PUSH2 0x1ADD PUSH2 0x48B JUMP JUMPDEST PUSH2 0x1AE5 PUSH2 0x4A1 JUMP JUMPDEST PUSH1 0x1 PUSH1 0x1 PUSH1 0xA0 SHL SUB SWAP2 DUP3 AND PUSH0 SWAP1 DUP2 MSTORE PUSH1 0x5 DUP7 MSTORE PUSH1 0x40 DUP1 DUP3 KECCAK256 SWAP3 SWAP1 SWAP4 AND DUP2 MSTORE PUSH1 0x20 SWAP2 SWAP1 SWAP2 MSTORE KECCAK256 SWAP1 JUMP JUMPDEST SLOAD AND PUSH1 0x40 MLOAD SWAP1 ISZERO ISZERO DUP2 MSTORE RETURN JUMPDEST CALLVALUE PUSH2 0x2AB JUMPI PUSH1 0x20 CALLDATASIZE PUSH1 0x3 NOT ADD SLT PUSH2 0x2AB JUMPI PUSH1 0x4 CALLDATALOAD PUSH0 MSTORE PUSH1 0xE PUSH1 0x20 MSTORE PUSH1 0x40 PUSH0 KECCAK256 PUSH1 0x40 MLOAD PUSH2 0x1B49 DUP2 PUSH2 0x6E6 DUP2 DUP6 PUSH2 0x891 JUMP JUMPDEST PUSH2 0x3F1 PUSH1 0x40 MLOAD SWAP3 PUSH2 0x1B61 DUP5 PUSH2 0xA64 DUP2 PUSH1 0x1 DUP6 ADD PUSH2 0x891 JUMP JUMPDEST PUSH1 0x1 DUP1 PUSH1 0xA0 SHL SUB PUSH1 0x2 DUP3 ADD SLOAD AND SWAP1 PUSH1 0x40 MLOAD PUSH2 0x1B83 DUP2 PUSH2 0x6E6 DUP2 PUSH1 0x3 DUP7 ADD PUSH2 0x891 JUMP JUMPDEST PUSH2 0x1B8F PUSH1 0x4 DUP4 ADD PUSH2 0x9BC JUMP JUMPDEST PUSH2 0x1B9B PUSH1 0x5 DUP5 ADD PUSH2 0x9BC JUMP JUMPDEST SWAP2 PUSH1 0x7 PUSH1 0x6 DUP6 ADD SLOAD SWAP5 ADD SLOAD SWAP5 PUSH1 0x40 MLOAD SWAP9 DUP10 SWAP9 DUP10 PUSH2 0x12B1 JUMP JUMPDEST CALLVALUE PUSH2 0x2AB JUMPI PUSH1 0x20 CALLDATASIZE PUSH1 0x3 NOT ADD SLT PUSH2 0x2AB JUMPI PUSH2 0x1BCC PUSH2 0x48B JUMP JUMPDEST PUSH1 0xA SLOAD PUSH1 0x1 PUSH1 0x1 PUSH1 0xA0 SHL SUB SWAP1 PUSH2 0x1BE5 SWAP1 DUP3 AND CALLER EQ PUSH2 0x1C49 JUMP JUMPDEST DUP2 AND ISZERO PUSH2 0x1BF5 JUMPI PUSH2 0x50E SWAP1 PUSH2 0x1C94 JUMP JUMPDEST PUSH1 0x40 MLOAD PUSH3 0x461BCD PUSH1 0xE5 SHL DUP2 MSTORE PUSH1 0x20 PUSH1 0x4 DUP3 ADD MSTORE PUSH1 0x26 PUSH1 0x24 DUP3 ADD MSTORE PUSH32 0x4F776E61626C653A206E6577206F776E657220697320746865207A65726F2061 PUSH1 0x44 DUP3 ADD MSTORE PUSH6 0x646472657373 PUSH1 0xD0 SHL PUSH1 0x64 DUP3 ADD MSTORE PUSH1 0x84 SWAP1 REVERT JUMPDEST ISZERO PUSH2 0x1C50 JUMPI JUMP JUMPDEST PUSH1 0x64 PUSH1 0x40 MLOAD PUSH3 0x461BCD PUSH1 0xE5 SHL DUP2 MSTORE PUSH1 0x20 PUSH1 0x4 DUP3 ADD MSTORE PUSH1 0x20 PUSH1 0x24 DUP3 ADD MSTORE PUSH32 0x4F776E61626C653A2063616C6C6572206973206E6F7420746865206F776E6572 PUSH1 0x44 DUP3 ADD MSTORE REVERT JUMPDEST PUSH1 0xA DUP1 SLOAD PUSH1 0x1 PUSH1 0x1 PUSH1 0xA0 SHL SUB SWAP3 DUP4 AND PUSH1 0x1 PUSH1 0x1 PUSH1 0xA0 SHL SUB NOT DUP3 AND DUP2 OR SWAP1 SWAP3 SSTORE SWAP1 SWAP2 AND PUSH32 0x8BE0079C531659141344CD1FD0A4F28419497F9722A3DAAFE3B4186F6B6457E0 PUSH0 DUP1 LOG3 JUMP JUMPDEST PUSH1 0x1 PUSH1 0x1 PUSH1 0xA0 SHL SUB AND DUP1 ISZERO PUSH2 0x1CFA JUMPI PUSH0 MSTORE PUSH1 0x3 PUSH1 0x20 MSTORE PUSH1 0x40 PUSH0 KECCAK256 SLOAD SWAP1 JUMP JUMPDEST PUSH1 0x40 MLOAD PUSH3 0x461BCD PUSH1 0xE5 SHL DUP2 MSTORE PUSH1 0x20 PUSH1 0x4 DUP3 ADD MSTORE PUSH1 0x2A PUSH1 0x24 DUP3 ADD MSTORE PUSH32 0x4552433732313A2062616C616E636520717565727920666F7220746865207A65 PUSH1 0x44 DUP3 ADD MSTORE PUSH10 0x726F2061646472657373 PUSH1 0xB0 SHL PUSH1 0x64 DUP3 ADD MSTORE PUSH1 0x84 SWAP1 REVERT JUMPDEST PUSH0 SWAP1 DUP2 MSTORE PUSH1 0x2 PUSH1 0x20 MSTORE PUSH1 0x40 SWAP1 KECCAK256 SLOAD PUSH1 0x1 PUSH1 0x1 PUSH1 0xA0 SHL SUB AND DUP1 ISZERO PUSH2 0x1D72 JUMPI SWAP1 JUMP JUMPDEST PUSH1 0x40 MLOAD PUSH3 0x461BCD PUSH1 0xE5 SHL DUP2 MSTORE PUSH1 0x20 PUSH1 0x4 DUP3 ADD MSTORE PUSH1 0x29 PUSH1 0x24 DUP3 ADD MSTORE PUSH32 0x4552433732313A206F776E657220717565727920666F72206E6F6E6578697374 PUSH1 0x44 DUP3 ADD MSTORE PUSH9 0x32B73A103A37B5B2B7 PUSH1 0xB9 SHL PUSH1 0x64 DUP3 ADD MSTORE PUSH1 0x84 SWAP1 REVERT JUMPDEST PUSH1 0x40 MLOAD SWAP1 PUSH2 0x1DD6 DUP3 PUSH2 0x980 JUMP JUMPDEST PUSH0 DUP3 MSTORE JUMP JUMPDEST ISZERO PUSH2 0x1DE2 JUMPI JUMP JUMPDEST PUSH1 0x40 MLOAD PUSH3 0x461BCD PUSH1 0xE5 SHL DUP2 MSTORE PUSH1 0x20 PUSH1 0x4 DUP3 ADD MSTORE PUSH1 0x38 PUSH1 0x24 DUP3 ADD MSTORE PUSH32 0x4552433732313A20617070726F76652063616C6C6572206973206E6F74206F77 PUSH1 0x44 DUP3 ADD MSTORE PUSH24 0x1B995C881B9BDC88185C1C1C9BDD995908199BDC88185B1B PUSH1 0x42 SHL PUSH1 0x64 DUP3 ADD MSTORE PUSH1 0x84 SWAP1 REVERT JUMPDEST PUSH2 0x1E51 DUP2 PUSH2 0x1FE6 JUMP JUMPDEST ISZERO PUSH2 0x1E70 JUMPI PUSH0 SWAP1 DUP2 MSTORE PUSH1 0x4 PUSH1 0x20 MSTORE PUSH1 0x40 SWAP1 KECCAK256 SLOAD PUSH1 0x1 PUSH1 0x1 PUSH1 0xA0 SHL SUB AND SWAP1 JUMP JUMPDEST PUSH1 0x40 MLOAD PUSH3 0x461BCD PUSH1 0xE5 SHL DUP2 MSTORE PUSH1 0x20 PUSH1 0x4 DUP3 ADD MSTORE PUSH1 0x2C PUSH1 0x24 DUP3 ADD MSTORE PUSH32 0x4552433732313A20617070726F76656420717565727920666F72206E6F6E6578 PUSH1 0x44 DUP3 ADD MSTORE PUSH12 0x34B9BA32B73A103A37B5B2B7 PUSH1 0xA1 SHL PUSH1 0x64 DUP3 ADD MSTORE PUSH1 0x84 SWAP1 REVERT JUMPDEST ISZERO PUSH2 0x1ED1 JUMPI JUMP JUMPDEST PUSH1 0x40 MLOAD PUSH3 0x461BCD PUSH1 0xE5 SHL DUP2 MSTORE PUSH1 0x20 PUSH1 0x4 DUP3 ADD MSTORE PUSH1 0x31 PUSH1 0x24 DUP3 ADD MSTORE PUSH32 0x4552433732313A207472616E736665722063616C6C6572206973206E6F74206F PUSH1 0x44 DUP3 ADD MSTORE PUSH17 0x1DDB995C881B9BDC88185C1C1C9BDD9959 PUSH1 0x7A SHL PUSH1 0x64 DUP3 ADD MSTORE PUSH1 0x84 SWAP1 REVERT JUMPDEST SWAP1 SWAP2 PUSH2 0x9D7 SWAP3 PUSH1 0x40 MLOAD SWAP3 PUSH2 0xAC9 DUP5 PUSH2 0x980 JUMP JUMPDEST SWAP2 PUSH2 0x9D7 SWAP4 SWAP2 PUSH2 0x1F6A SWAP4 PUSH2 0x1F5A PUSH2 0x76B DUP5 CALLER PUSH2 0x2002 JUMP JUMPDEST PUSH2 0x1F65 DUP4 DUP4 DUP4 PUSH2 0x2180 JUMP JUMPDEST PUSH2 0x24DE JUMP JUMPDEST PUSH2 0x1FC2 JUMP JUMPDEST PUSH1 0x80 SWAP1 PUSH1 0x20 DUP2 MSTORE PUSH1 0x32 PUSH1 0x20 DUP3 ADD MSTORE PUSH32 0x4552433732313A207472616E7366657220746F206E6F6E204552433732315265 PUSH1 0x40 DUP3 ADD MSTORE PUSH18 0x31B2B4BB32B91034B6B83632B6B2B73A32B9 PUSH1 0x71 SHL PUSH1 0x60 DUP3 ADD MSTORE ADD SWAP1 JUMP JUMPDEST ISZERO PUSH2 0x1FC9 JUMPI JUMP JUMPDEST PUSH1 0x40 MLOAD PUSH3 0x461BCD PUSH1 0xE5 SHL DUP2 MSTORE DUP1 PUSH2 0x1FE2 PUSH1 0x4 DUP3 ADD PUSH2 0x1F6F JUMP JUMPDEST SUB SWAP1 REVERT JUMPDEST PUSH0 SWAP1 DUP2 MSTORE PUSH1 0x2 PUSH1 0x20 MSTORE PUSH1 0x40 SWAP1 KECCAK256 SLOAD PUSH1 0x1 PUSH1 0x1 PUSH1 0xA0 SHL SUB AND ISZERO ISZERO SWAP1 JUMP JUMPDEST PUSH2 0x200B DUP3 PUSH2 0x1FE6 JUMP JUMPDEST ISZERO PUSH2 0x2083 JUMPI PUSH2 0x2019 DUP3 PUSH2 0x1D52 JUMP JUMPDEST PUSH1 0x1 PUSH1 0x1 PUSH1 0xA0 SHL SUB DUP3 DUP2 AND DUP3 DUP3 AND DUP2 EQ SWAP5 SWAP1 SWAP2 SWAP1 DUP6 ISZERO PUSH2 0x206B JUMPI JUMPDEST POP POP POP DUP3 ISZERO PUSH2 0x2042 JUMPI POP POP SWAP1 JUMP JUMPDEST PUSH1 0x1 PUSH1 0x1 PUSH1 0xA0 SHL SUB AND PUSH0 SWAP1 DUP2 MSTORE PUSH1 0x5 PUSH1 0x20 MSTORE PUSH1 0x40 SWAP1 KECCAK256 PUSH1 0xFF SWAP3 POP PUSH2 0x2066 SWAP2 SWAP1 PUSH2 0x532 JUMP JUMPDEST SLOAD AND SWAP1 JUMP JUMPDEST PUSH2 0x2078 SWAP2 SWAP3 SWAP4 SWAP6 POP PUSH2 0x1E48 JUMP JUMPDEST AND EQ SWAP2 PUSH0 DUP1 DUP1 PUSH2 0x2034 JUMP JUMPDEST PUSH1 0x40 MLOAD PUSH3 0x461BCD PUSH1 0xE5 SHL DUP2 MSTORE PUSH1 0x20 PUSH1 0x4 DUP3 ADD MSTORE PUSH1 0x2C PUSH1 0x24 DUP3 ADD MSTORE PUSH32 0x4552433732313A206F70657261746F7220717565727920666F72206E6F6E6578 PUSH1 0x44 DUP3 ADD MSTORE PUSH12 0x34B9BA32B73A103A37B5B2B7 PUSH1 0xA1 SHL PUSH1 0x64 DUP3 ADD MSTORE PUSH1 0x84 SWAP1 REVERT JUMPDEST ISZERO PUSH2 0x20E4 JUMPI JUMP JUMPDEST PUSH1 0x40 MLOAD PUSH3 0x461BCD PUSH1 0xE5 SHL DUP2 MSTORE PUSH1 0x20 PUSH1 0x4 DUP3 ADD MSTORE PUSH1 0x24 DUP1 DUP3 ADD MSTORE PUSH32 0x4552433732313A207472616E7366657220746F20746865207A65726F20616464 PUSH1 0x44 DUP3 ADD MSTORE PUSH4 0x72657373 PUSH1 0xE0 SHL PUSH1 0x64 DUP3 ADD MSTORE PUSH1 0x84 SWAP1 REVERT JUMPDEST PUSH4 0x4E487B71 PUSH1 0xE0 SHL PUSH0 MSTORE PUSH1 0x11 PUSH1 0x4 MSTORE PUSH1 0x24 PUSH0 REVERT JUMPDEST PUSH0 NOT DUP2 ADD SWAP2 SWAP1 DUP3 GT PUSH2 0xF43 JUMPI JUMP JUMPDEST SWAP1 PUSH1 0x1 DUP3 ADD DUP1 SWAP3 GT PUSH2 0xF43 JUMPI JUMP JUMPDEST PUSH1 0x30 ADD SWAP1 DUP2 PUSH1 0x30 GT PUSH2 0xF43 JUMPI JUMP JUMPDEST SWAP2 SWAP1 DUP3 ADD DUP1 SWAP3 GT PUSH2 0xF43 JUMPI JUMP JUMPDEST SWAP1 PUSH2 0x218A DUP4 PUSH2 0x1D52 JUMP JUMPDEST PUSH1 0x1 PUSH1 0x1 PUSH1 0xA0 SHL SUB DUP4 DUP2 AND SWAP3 SWAP1 SWAP2 DUP3 AND DUP4 SWAP1 SUB PUSH2 0x2269 JUMPI PUSH2 0x21E3 PUSH2 0x2243 SWAP3 DUP3 AND SWAP5 PUSH2 0x21B6 DUP7 ISZERO ISZERO PUSH2 0x20DD JUMP JUMPDEST PUSH2 0x21C1 DUP8 DUP5 DUP4 PUSH2 0x2544 JUMP JUMPDEST PUSH2 0x21CA DUP8 PUSH2 0x22C0 JUMP JUMPDEST PUSH1 0x1 PUSH1 0x1 PUSH1 0xA0 SHL SUB AND PUSH0 SWAP1 DUP2 MSTORE PUSH1 0x3 PUSH1 0x20 MSTORE PUSH1 0x40 SWAP1 KECCAK256 SWAP1 JUMP JUMPDEST PUSH2 0x21ED DUP2 SLOAD PUSH2 0x2149 JUMP JUMPDEST SWAP1 SSTORE PUSH1 0x1 PUSH1 0x1 PUSH1 0xA0 SHL SUB DUP2 AND PUSH0 SWAP1 DUP2 MSTORE PUSH1 0x3 PUSH1 0x20 MSTORE PUSH1 0x40 SWAP1 KECCAK256 PUSH2 0x2210 DUP2 SLOAD PUSH2 0x2157 JUMP JUMPDEST SWAP1 SSTORE PUSH2 0x2224 DUP6 PUSH0 MSTORE PUSH1 0x2 PUSH1 0x20 MSTORE PUSH1 0x40 PUSH0 KECCAK256 SWAP1 JUMP JUMPDEST DUP1 SLOAD PUSH1 0x1 PUSH1 0x1 PUSH1 0xA0 SHL SUB NOT AND PUSH1 0x1 PUSH1 0x1 PUSH1 0xA0 SHL SUB SWAP1 SWAP3 AND SWAP2 SWAP1 SWAP2 OR SWAP1 SSTORE JUMP JUMPDEST PUSH32 0xDDF252AD1BE2C89B69C2B068FC378DAA952BA7F163C4A11628F55A4DF523B3EF PUSH0 DUP1 LOG4 JUMP JUMPDEST PUSH1 0x40 MLOAD PUSH3 0x461BCD PUSH1 0xE5 SHL DUP2 MSTORE PUSH1 0x20 PUSH1 0x4 DUP3 ADD MSTORE PUSH1 0x29 PUSH1 0x24 DUP3 ADD MSTORE PUSH32 0x4552433732313A207472616E73666572206F6620746F6B656E20746861742069 PUSH1 0x44 DUP3 ADD MSTORE PUSH9 0x39903737BA1037BBB7 PUSH1 0xB9 SHL PUSH1 0x64 DUP3 ADD MSTORE PUSH1 0x84 SWAP1 REVERT JUMPDEST PUSH0 DUP2 DUP2 MSTORE PUSH1 0x4 PUSH1 0x20 MSTORE PUSH1 0x40 DUP2 KECCAK256 DUP1 SLOAD PUSH1 0x1 PUSH1 0x1 PUSH1 0xA0 SHL SUB NOT AND SWAP1 SSTORE PUSH1 0x1 PUSH1 0x1 PUSH1 0xA0 SHL SUB PUSH2 0x22EC DUP4 PUSH2 0x1D52 JUMP JUMPDEST AND PUSH32 0x8C5BE1E5EBEC7D5BD14F71427D1E84F3DD0314C0F7B2291E5B200AC8C7C3B925 DUP3 DUP1 LOG4 JUMP JUMPDEST PUSH0 DUP3 DUP2 MSTORE PUSH1 0x4 PUSH1 0x20 MSTORE PUSH1 0x40 SWAP1 KECCAK256 DUP1 SLOAD PUSH1 0x1 PUSH1 0x1 PUSH1 0xA0 SHL SUB NOT AND PUSH1 0x1 PUSH1 0x1 PUSH1 0xA0 SHL SUB DUP4 AND OR SWAP1 SSTORE PUSH1 0x1 PUSH1 0x1 PUSH1 0xA0 SHL SUB DUP1 PUSH2 0x234B DUP5 PUSH2 0x1D52 JUMP JUMPDEST AND SWAP2 AND SWAP1 PUSH32 0x8C5BE1E5EBEC7D5BD14F71427D1E84F3DD0314C0F7B2291E5B200AC8C7C3B925 PUSH0 DUP1 LOG4 JUMP JUMPDEST SWAP1 DUP2 PUSH1 0x20 SWAP2 SUB SLT PUSH2 0x2AB JUMPI MLOAD PUSH2 0x398 DUP2 PUSH2 0x299 JUMP JUMPDEST PUSH2 0x398 SWAP4 SWAP3 PUSH1 0x80 SWAP3 PUSH1 0x1 DUP1 PUSH1 0xA0 SHL SUB AND DUP3 MSTORE PUSH0 PUSH1 0x20 DUP4 ADD MSTORE PUSH1 0x40 DUP3 ADD MSTORE DUP2 PUSH1 0x60 DUP3 ADD MSTORE ADD SWAP1 PUSH2 0x362 JUMP JUMPDEST PUSH1 0x1 PUSH1 0x1 PUSH1 0xA0 SHL SUB SWAP2 DUP3 AND DUP2 MSTORE SWAP2 AND PUSH1 0x20 DUP3 ADD MSTORE PUSH1 0x40 DUP2 ADD SWAP2 SWAP1 SWAP2 MSTORE PUSH1 0x80 PUSH1 0x60 DUP3 ADD DUP2 SWAP1 MSTORE PUSH2 0x398 SWAP3 SWAP2 ADD SWAP1 PUSH2 0x362 JUMP JUMPDEST PUSH1 0x40 MLOAD RETURNDATASIZE PUSH0 DUP3 RETURNDATACOPY RETURNDATASIZE SWAP1 REVERT JUMPDEST RETURNDATASIZE ISZERO PUSH2 0x241A JUMPI RETURNDATASIZE SWAP1 PUSH2 0x2401 DUP3 PUSH2 0xF62 JUMP JUMPDEST SWAP2 PUSH2 0x240F PUSH1 0x40 MLOAD SWAP4 DUP5 PUSH2 0x99B JUMP JUMPDEST DUP3 MSTORE RETURNDATASIZE PUSH0 PUSH1 0x20 DUP5 ADD RETURNDATACOPY JUMP JUMPDEST PUSH1 0x60 SWAP1 JUMP JUMPDEST SWAP1 SWAP2 SWAP1 DUP1 EXTCODESIZE ISZERO PUSH2 0x24D6 JUMPI PUSH2 0x2450 PUSH1 0x20 SWAP2 PUSH0 SWAP4 PUSH1 0x40 MLOAD SWAP5 DUP6 DUP1 SWAP5 DUP2 SWAP4 PUSH4 0xA85BD01 PUSH1 0xE1 SHL SWAP10 DUP11 DUP5 MSTORE CALLER PUSH1 0x4 DUP6 ADD PUSH2 0x238A JUMP JUMPDEST SUB SWAP3 PUSH1 0x1 PUSH1 0x1 PUSH1 0xA0 SHL SUB AND GAS CALL PUSH0 SWAP2 DUP2 PUSH2 0x24A6 JUMPI JUMPDEST POP PUSH2 0x2498 JUMPI PUSH2 0x2472 PUSH2 0x23F0 JUMP JUMPDEST DUP1 MLOAD SWAP1 DUP2 PUSH2 0x2493 JUMPI PUSH1 0x40 MLOAD PUSH3 0x461BCD PUSH1 0xE5 SHL DUP2 MSTORE DUP1 PUSH2 0x1FE2 PUSH1 0x4 DUP3 ADD PUSH2 0x1F6F JUMP JUMPDEST PUSH1 0x20 ADD REVERT JUMPDEST PUSH1 0x1 PUSH1 0x1 PUSH1 0xE0 SHL SUB NOT AND EQ SWAP1 JUMP JUMPDEST PUSH2 0x24C8 SWAP2 SWAP3 POP PUSH1 0x20 RETURNDATASIZE DUP2 GT PUSH2 0x24CF JUMPI JUMPDEST PUSH2 0x24C0 DUP2 DUP4 PUSH2 0x99B JUMP JUMPDEST DUP2 ADD SWAP1 PUSH2 0x2375 JUMP JUMPDEST SWAP1 PUSH0 PUSH2 0x2465 JUMP JUMPDEST POP RETURNDATASIZE PUSH2 0x24B6 JUMP JUMPDEST POP POP POP PUSH1 0x1 SWAP1 JUMP JUMPDEST SWAP3 SWAP1 SWAP2 SWAP1 DUP3 EXTCODESIZE ISZERO PUSH2 0x2510 JUMPI PUSH2 0x2450 SWAP3 PUSH1 0x20 SWAP3 PUSH0 PUSH1 0x40 MLOAD DUP1 SWAP7 DUP2 SWAP6 DUP3 SWAP5 PUSH4 0xA85BD01 PUSH1 0xE1 SHL SWAP11 DUP12 DUP6 MSTORE CALLER PUSH1 0x4 DUP7 ADD PUSH2 0x23B4 JUMP JUMPDEST POP POP POP POP PUSH1 0x1 SWAP1 JUMP JUMPDEST SWAP1 PUSH2 0x2523 DUP2 PUSH2 0x2688 JUMP JUMPDEST PUSH1 0x1 PUSH1 0x1 PUSH1 0xA0 SHL SUB DUP3 AND PUSH2 0x253B JUMPI PUSH2 0x9D7 SWAP2 POP PUSH2 0x26DD JUMP JUMPDEST PUSH2 0x9D7 SWAP2 PUSH2 0x2651 JUMP JUMPDEST SWAP1 SWAP2 SWAP1 PUSH1 0x1 PUSH1 0x1 PUSH1 0xA0 SHL SUB DUP1 DUP3 AND SWAP2 DUP3 PUSH2 0x257E JUMPI POP PUSH2 0x2562 DUP4 PUSH2 0x2688 JUMP JUMPDEST DUP4 AND DUP1 PUSH2 0x2575 JUMPI POP POP PUSH2 0x9D7 SWAP2 POP PUSH2 0x26DD JUMP JUMPDEST SUB PUSH2 0x253B JUMPI POP POP JUMP JUMPDEST DUP2 DUP6 AND DUP4 SUB PUSH2 0x258E JUMPI JUMPDEST POP PUSH2 0x2562 JUMP JUMPDEST PUSH2 0x2597 DUP2 PUSH2 0x1CDC JUMP JUMPDEST PUSH0 NOT DUP2 ADD SWAP1 DUP2 GT PUSH2 0xF43 JUMPI PUSH2 0x25FB SWAP1 PUSH2 0x25EE PUSH0 SWAP4 DUP8 DUP6 MSTORE PUSH1 0x7 PUSH1 0x20 MSTORE PUSH1 0x40 DUP6 KECCAK256 SLOAD DUP4 DUP2 SUB PUSH2 0x2602 JUMPI JUMPDEST POP DUP5 PUSH2 0x25D4 DUP10 PUSH0 MSTORE PUSH1 0x7 PUSH1 0x20 MSTORE PUSH1 0x40 PUSH0 KECCAK256 SWAP1 JUMP JUMPDEST SSTORE PUSH1 0x1 PUSH1 0x1 PUSH1 0xA0 SHL SUB AND PUSH0 SWAP1 DUP2 MSTORE PUSH1 0x6 PUSH1 0x20 MSTORE PUSH1 0x40 SWAP1 KECCAK256 SWAP1 JUMP JUMPDEST SWAP1 PUSH0 MSTORE PUSH1 0x20 MSTORE PUSH1 0x40 PUSH0 KECCAK256 SWAP1 JUMP JUMPDEST SSTORE PUSH0 PUSH2 0x2588 JUMP JUMPDEST DUP8 DUP7 MSTORE PUSH1 0x6 PUSH1 0x20 MSTORE PUSH1 0x40 DUP7 KECCAK256 DUP5 DUP8 MSTORE PUSH1 0x20 MSTORE PUSH2 0x264A PUSH1 0x40 DUP8 KECCAK256 SLOAD DUP1 PUSH2 0x263B DUP5 PUSH2 0x25EE DUP8 PUSH1 0x1 DUP1 PUSH1 0xA0 SHL SUB AND PUSH0 MSTORE PUSH1 0x6 PUSH1 0x20 MSTORE PUSH1 0x40 PUSH0 KECCAK256 SWAP1 JUMP JUMPDEST SSTORE PUSH0 MSTORE PUSH1 0x7 PUSH1 0x20 MSTORE PUSH1 0x40 PUSH0 KECCAK256 SWAP1 JUMP JUMPDEST SSTORE PUSH0 PUSH2 0x25C0 JUMP JUMPDEST PUSH1 0x40 SWAP1 PUSH2 0x265D DUP2 PUSH2 0x1CDC JUMP JUMPDEST SWAP3 PUSH0 SWAP2 PUSH1 0x1 DUP1 PUSH1 0xA0 SHL SUB AND DUP3 MSTORE PUSH1 0x6 PUSH1 0x20 MSTORE DUP3 DUP3 KECCAK256 DUP5 DUP4 MSTORE PUSH1 0x20 MSTORE DUP1 DUP4 DUP4 KECCAK256 SSTORE DUP2 MSTORE PUSH1 0x7 PUSH1 0x20 MSTORE KECCAK256 SSTORE JUMP JUMPDEST PUSH1 0x8 SLOAD DUP2 PUSH0 MSTORE PUSH1 0x9 PUSH1 0x20 MSTORE DUP1 PUSH1 0x40 PUSH0 KECCAK256 SSTORE PUSH1 0x1 PUSH1 0x40 SHL DUP2 LT ISZERO PUSH2 0x712 JUMPI PUSH1 0x1 DUP2 ADD DUP1 PUSH1 0x8 SSTORE DUP2 LT ISZERO PUSH2 0x854 JUMPI PUSH1 0x8 PUSH0 MSTORE PUSH32 0xF3F7A9FE364FAAB93B216DA50A3214154F22A0A2B415B23A84C8169E8B636EE3 ADD SSTORE JUMP JUMPDEST PUSH1 0x8 DUP1 SLOAD PUSH0 NOT SWAP3 SWAP1 DUP4 DUP2 ADD SWAP1 DUP1 DUP3 GT PUSH2 0xF43 JUMPI PUSH0 SWAP3 DUP1 DUP5 MSTORE PUSH1 0x9 PUSH1 0x20 MSTORE DUP2 PUSH1 0x40 DUP6 KECCAK256 SLOAD SWAP4 LT ISZERO PUSH2 0x854 JUMPI DUP5 DUP5 MSTORE DUP6 DUP3 PUSH1 0x20 DUP7 KECCAK256 ADD ADD SLOAD SWAP2 DUP4 LT ISZERO PUSH2 0x854 JUMPI DUP4 SWAP3 PUSH2 0x273D PUSH2 0x274C SWAP4 DUP8 DUP7 MSTORE DUP1 DUP4 PUSH1 0x20 DUP9 KECCAK256 ADD SSTORE PUSH0 MSTORE PUSH1 0x9 PUSH1 0x20 MSTORE PUSH1 0x40 PUSH0 KECCAK256 SWAP1 JUMP JUMPDEST SSTORE PUSH0 MSTORE PUSH1 0x9 PUSH1 0x20 MSTORE PUSH1 0x40 PUSH0 KECCAK256 SWAP1 JUMP JUMPDEST SSTORE DUP2 SLOAD SWAP3 DUP4 ISZERO PUSH2 0x276F JUMPI DUP1 DUP5 ADD SWAP4 DUP1 DUP6 LT ISZERO PUSH2 0x854 JUMPI DUP4 DUP4 MSTORE PUSH1 0x20 DUP4 KECCAK256 ADD ADD SSTORE SSTORE JUMP JUMPDEST PUSH4 0x4E487B71 PUSH1 0xE0 SHL DUP3 MSTORE PUSH1 0x31 PUSH1 0x4 MSTORE PUSH1 0x24 DUP3 REVERT JUMPDEST PUSH0 NOT DUP2 EQ PUSH2 0xF43 JUMPI PUSH1 0x1 ADD SWAP1 JUMP JUMPDEST DUP2 ISZERO PUSH2 0x279B JUMPI DIV SWAP1 JUMP JUMPDEST PUSH4 0x4E487B71 PUSH1 0xE0 SHL PUSH0 MSTORE PUSH1 0x12 PUSH1 0x4 MSTORE PUSH1 0x24 PUSH0 REVERT JUMPDEST SWAP1 DUP2 MLOAD DUP2 LT ISZERO PUSH2 0x854 JUMPI ADD PUSH1 0x20 ADD SWAP1 JUMP JUMPDEST DUP1 ISZERO PUSH2 0x2868 JUMPI DUP1 PUSH0 SWAP1 DUP3 DUP3 SWAP4 JUMPDEST PUSH2 0x2854 JUMPI POP PUSH2 0x27DB DUP4 PUSH2 0xF62 JUMP JUMPDEST SWAP3 PUSH2 0x27E9 PUSH1 0x40 MLOAD SWAP5 DUP6 PUSH2 0x99B JUMP JUMPDEST DUP1 DUP5 MSTORE DUP2 PUSH1 0x1F NOT PUSH2 0x27F9 DUP4 PUSH2 0xF62 JUMP JUMPDEST ADD CALLDATASIZE PUSH1 0x20 DUP8 ADD CALLDATACOPY JUMPDEST PUSH2 0x280B JUMPI POP POP POP SWAP1 JUMP JUMPDEST PUSH2 0x2814 SWAP1 PUSH2 0x2149 JUMP JUMPDEST SWAP1 PUSH1 0xA SWAP1 PUSH2 0x283F PUSH2 0x282F PUSH2 0x2829 DUP5 DUP5 MOD PUSH2 0x2165 JUMP JUMPDEST PUSH1 0xFF AND SWAP1 JUMP JUMPDEST PUSH1 0xF8 SHL PUSH1 0x1 PUSH1 0x1 PUSH1 0xF8 SHL SUB NOT AND SWAP1 JUMP JUMPDEST DUP5 BYTE PUSH2 0x284B DUP5 DUP8 PUSH2 0x27AF JUMP JUMPDEST MSTORE8 DIV SWAP1 DUP2 PUSH2 0x2801 JUMP JUMPDEST SWAP3 PUSH2 0x2860 PUSH1 0xA SWAP2 PUSH2 0x2783 JUMP JUMPDEST SWAP4 DIV DUP1 PUSH2 0x27CD JUMP JUMPDEST POP PUSH1 0x40 MLOAD PUSH1 0x40 DUP2 ADD DUP2 DUP2 LT PUSH1 0x1 PUSH1 0x1 PUSH1 0x40 SHL SUB DUP3 GT OR PUSH2 0x712 JUMPI PUSH1 0x40 MSTORE PUSH1 0x1 DUP2 MSTORE PUSH1 0x3 PUSH1 0xFC SHL PUSH1 0x20 DUP3 ADD MSTORE SWAP1 JUMP JUMPDEST ISZERO PUSH2 0x289D JUMPI JUMP JUMPDEST PUSH1 0x40 MLOAD PUSH3 0x461BCD PUSH1 0xE5 SHL DUP2 MSTORE PUSH1 0x20 PUSH1 0x4 DUP3 ADD MSTORE PUSH1 0x16 PUSH1 0x24 DUP3 ADD MSTORE PUSH22 0x12541194C81A185CDA08185B1C9958591E481D5CD959 PUSH1 0x52 SHL PUSH1 0x44 DUP3 ADD MSTORE PUSH1 0x64 SWAP1 REVERT JUMPDEST SWAP1 DUP2 PUSH1 0x60 SWAP2 SUB SLT PUSH2 0x2AB JUMPI DUP1 MLOAD SWAP2 PUSH1 0x40 PUSH1 0x20 DUP4 ADD MLOAD SWAP3 ADD MLOAD SWAP1 JUMP JUMPDEST SWAP1 DUP2 PUSH1 0x20 SWAP2 SUB SLT PUSH2 0x2AB JUMPI MLOAD PUSH2 0x398 DUP2 PUSH2 0x15D3 JUMP JUMPDEST ISZERO PUSH2 0x2912 JUMPI JUMP JUMPDEST PUSH1 0x40 MLOAD PUSH3 0x461BCD PUSH1 0xE5 SHL DUP2 MSTORE PUSH1 0x20 PUSH1 0x4 DUP3 ADD MSTORE PUSH1 0x13 PUSH1 0x24 DUP3 ADD MSTORE PUSH19 0x119959481D1C985B9CD9995C8819985A5B1959 PUSH1 0x6A SHL PUSH1 0x44 DUP3 ADD MSTORE PUSH1 0x64 SWAP1 REVERT JUMPDEST SWAP1 PUSH1 0x1F DUP2 GT PUSH2 0x295B JUMPI POP POP POP JUMP JUMPDEST PUSH0 SWAP2 DUP3 MSTORE PUSH1 0x20 DUP3 KECCAK256 SWAP1 PUSH1 0x20 PUSH1 0x1F DUP6 ADD PUSH1 0x5 SHR DUP4 ADD SWAP5 LT PUSH2 0x2996 JUMPI JUMPDEST PUSH1 0x1F ADD PUSH1 0x5 SHR ADD SWAP2 JUMPDEST DUP3 DUP2 LT PUSH2 0x298B JUMPI POP POP POP JUMP JUMPDEST DUP2 DUP2 SSTORE PUSH1 0x1 ADD PUSH2 0x297F JUMP JUMPDEST SWAP1 SWAP3 POP DUP3 SWAP1 PUSH2 0x2976 JUMP JUMPDEST SWAP2 SWAP1 SWAP2 DUP3 MLOAD PUSH1 0x1 PUSH1 0x1 PUSH1 0x40 SHL SUB DUP2 GT PUSH2 0x712 JUMPI PUSH2 0x29C7 DUP2 PUSH2 0x29C1 DUP5 SLOAD PUSH2 0x859 JUMP JUMPDEST DUP5 PUSH2 0x294D JUMP JUMPDEST PUSH1 0x20 DUP1 PUSH1 0x1F DUP4 GT PUSH1 0x1 EQ PUSH2 0x2A01 JUMPI POP DUP2 SWAP3 SWAP4 SWAP5 PUSH0 SWAP3 PUSH2 0x29F6 JUMPI JUMPDEST POP POP DUP2 PUSH1 0x1 SHL SWAP2 PUSH0 NOT SWAP1 PUSH1 0x3 SHL SHR NOT AND OR SWAP1 SSTORE JUMP JUMPDEST ADD MLOAD SWAP1 POP PUSH0 DUP1 PUSH2 0x29E1 JUMP JUMPDEST SWAP1 PUSH1 0x1F NOT DUP4 AND SWAP6 PUSH2 0x2A15 DUP6 PUSH0 MSTORE PUSH1 0x20 PUSH0 KECCAK256 SWAP1 JUMP JUMPDEST SWAP3 PUSH0 SWAP1 JUMPDEST DUP9 DUP3 LT PUSH2 0x2A50 JUMPI POP POP DUP4 PUSH1 0x1 SWAP6 SWAP7 SWAP8 LT PUSH2 0x2A38 JUMPI JUMPDEST POP POP POP DUP2 SHL ADD SWAP1 SSTORE JUMP JUMPDEST ADD MLOAD PUSH0 NOT PUSH1 0xF8 DUP5 PUSH1 0x3 SHL AND SHR NOT AND SWAP1 SSTORE PUSH0 DUP1 DUP1 PUSH2 0x2A2E JUMP JUMPDEST DUP1 PUSH1 0x1 DUP6 SWAP7 DUP3 SWAP5 SWAP7 DUP7 ADD MLOAD DUP2 SSTORE ADD SWAP6 ADD SWAP4 ADD SWAP1 PUSH2 0x2A19 JUMP JUMPDEST SWAP1 DUP1 MLOAD DUP1 MLOAD PUSH1 0x1 PUSH1 0x1 PUSH1 0x40 SHL SUB DUP2 GT PUSH2 0x712 JUMPI PUSH2 0x2A8F DUP2 PUSH2 0x2A89 DUP7 SLOAD PUSH2 0x859 JUMP JUMPDEST DUP7 PUSH2 0x294D JUMP JUMPDEST PUSH1 0x20 SWAP2 DUP3 SWAP1 PUSH1 0x1F DUP4 GT PUSH1 0x1 EQ PUSH2 0x2B48 JUMPI SWAP3 DUP3 PUSH1 0x7 SWAP6 SWAP4 PUSH2 0x2AD3 SWAP4 PUSH1 0xE0 SWAP7 PUSH0 SWAP3 PUSH2 0x2B3D JUMPI JUMPDEST POP POP DUP2 PUSH1 0x1 SHL SWAP2 PUSH0 NOT SWAP1 PUSH1 0x3 SHL SHR NOT AND OR DUP7 SSTORE JUMPDEST DUP3 ADD MLOAD PUSH1 0x1 DUP7 ADD PUSH2 0x29A0 JUMP JUMPDEST PUSH1 0x40 DUP2 ADD MLOAD PUSH1 0x2 DUP6 ADD DUP1 SLOAD PUSH1 0x1 PUSH1 0x1 PUSH1 0xA0 SHL SUB NOT AND PUSH1 0x1 PUSH1 0x1 PUSH1 0xA0 SHL SUB SWAP1 SWAP3 AND SWAP2 SWAP1 SWAP2 OR SWAP1 SSTORE PUSH2 0x2B0A PUSH1 0x60 DUP3 ADD MLOAD PUSH1 0x3 DUP7 ADD PUSH2 0x29A0 JUMP JUMPDEST PUSH2 0x2B1B PUSH1 0x80 DUP3 ADD MLOAD PUSH1 0x4 DUP7 ADD PUSH2 0x29A0 JUMP JUMPDEST PUSH2 0x2B2C PUSH1 0xA0 DUP3 ADD MLOAD PUSH1 0x5 DUP7 ADD PUSH2 0x29A0 JUMP JUMPDEST PUSH1 0xC0 DUP2 ADD MLOAD PUSH1 0x6 DUP6 ADD SSTORE ADD MLOAD SWAP2 ADD SSTORE JUMP JUMPDEST ADD MLOAD SWAP1 POP PUSH0 DUP1 PUSH2 0x2AB3 JUMP JUMPDEST SWAP1 PUSH1 0x1F NOT DUP4 AND SWAP2 PUSH2 0x2B5C DUP8 PUSH0 MSTORE PUSH1 0x20 PUSH0 KECCAK256 SWAP1 JUMP JUMPDEST SWAP3 PUSH0 JUMPDEST DUP2 DUP2 LT PUSH2 0x2BA3 JUMPI POP SWAP4 PUSH2 0x2AD3 SWAP4 PUSH1 0xE0 SWAP7 SWAP4 PUSH1 0x1 SWAP4 DUP4 PUSH1 0x7 SWAP11 SWAP9 LT PUSH2 0x2B8B JUMPI JUMPDEST POP POP POP DUP2 SHL ADD DUP7 SSTORE PUSH2 0x2AC7 JUMP JUMPDEST ADD MLOAD PUSH0 NOT PUSH1 0xF8 DUP5 PUSH1 0x3 SHL AND SHR NOT AND SWAP1 SSTORE PUSH0 DUP1 DUP1 PUSH2 0x2B7E JUMP JUMPDEST SWAP3 SWAP4 DUP7 PUSH1 0x1 DUP2 SWAP3 DUP8 DUP7 ADD MLOAD DUP2 SSTORE ADD SWAP6 ADD SWAP4 ADD PUSH2 0x2B5F JUMP JUMPDEST SWAP3 PUSH2 0x2BE6 PUSH2 0x398 SWAP6 SWAP4 PUSH2 0x2BD8 PUSH2 0x2BF4 SWAP5 PUSH1 0x80 DUP9 MSTORE PUSH1 0x80 DUP9 ADD SWAP1 PUSH2 0x362 JUMP JUMPDEST SWAP1 DUP7 DUP3 SUB PUSH1 0x20 DUP9 ADD MSTORE PUSH2 0x362 JUMP JUMPDEST SWAP1 DUP5 DUP3 SUB PUSH1 0x40 DUP7 ADD MSTORE PUSH2 0x362 JUMP JUMPDEST SWAP2 PUSH1 0x60 DUP2 DUP5 SUB SWAP2 ADD MSTORE PUSH2 0x362 JUMP JUMPDEST SWAP3 SWAP2 SWAP1 SWAP3 PUSH2 0x2C19 PUSH2 0x2C12 DUP3 PUSH2 0x197F JUMP JUMPDEST SLOAD ISZERO PUSH2 0x2896 JUMP JUMPDEST PUSH1 0x13 SLOAD PUSH2 0x2C2E SWAP1 PUSH1 0x1 PUSH1 0x1 PUSH1 0xA0 SHL SUB AND PUSH2 0xB73 JUMP JUMPDEST SWAP5 PUSH1 0x40 SWAP4 DUP5 MLOAD PUSH4 0xD39686A7 PUSH1 0xE0 SHL DUP2 MSTORE PUSH1 0x60 DUP2 DUP1 PUSH2 0x2C4F DUP7 PUSH1 0x4 DUP4 ADD PUSH2 0x387 JUMP JUMPDEST SUB DUP2 PUSH0 DUP1 SWAP13 GAS CALL DUP1 ISZERO PUSH2 0xDBE JUMPI PUSH2 0x2EA2 JUMPI JUMPDEST POP PUSH1 0xB SLOAD SWAP7 PUSH2 0x2C70 DUP9 CALLER PUSH2 0x2EC0 JUMP JUMPDEST PUSH2 0x2C7E PUSH1 0x1 PUSH1 0xB SLOAD ADD PUSH1 0xB SSTORE JUMP JUMPDEST PUSH2 0x2C86 PUSH2 0xF55 JUMP JUMPDEST DUP5 DUP2 MSTORE PUSH1 0x20 DUP1 DUP3 ADD DUP10 SWAP1 MSTORE CALLER DUP9 DUP4 ADD MSTORE SWAP1 SWAP6 PUSH1 0x60 DUP8 ADD MSTORE DUP3 PUSH1 0x80 DUP8 ADD MSTORE DUP4 PUSH1 0xA0 DUP8 ADD MSTORE DUP2 PUSH1 0xC0 DUP8 ADD MSTORE TIMESTAMP PUSH1 0xE0 DUP8 ADD MSTORE DUP2 DUP2 PUSH2 0x2D00 PUSH2 0x2CCE PUSH2 0xB73 PUSH1 0x10 SLOAD PUSH1 0x1 DUP1 PUSH1 0xA0 SHL SUB AND SWAP1 JUMP JUMPDEST PUSH1 0x14 SLOAD DUP12 MLOAD PUSH4 0x23B872DD PUSH1 0xE0 SHL DUP2 MSTORE CALLER PUSH1 0x4 DUP3 ADD MSTORE ADDRESS PUSH1 0x24 DUP3 ADD MSTORE PUSH1 0x44 DUP2 ADD SWAP2 SWAP1 SWAP2 MSTORE SWAP4 DUP5 SWAP3 DUP4 SWAP2 SWAP1 DUP3 SWAP1 PUSH1 0x64 DUP3 ADD SWAP1 JUMP JUMPDEST SUB SWAP3 GAS CALL DUP1 ISZERO PUSH2 0xDBE JUMPI PUSH2 0x2D1B SWAP2 DUP5 SWAP2 PUSH2 0x2E85 JUMPI JUMPDEST POP PUSH2 0x290B JUMP JUMPDEST PUSH1 0x10 SLOAD PUSH2 0x2D6E SWAP1 DUP3 SWAP1 PUSH2 0x2D36 SWAP1 PUSH1 0x1 PUSH1 0x1 PUSH1 0xA0 SHL SUB AND PUSH2 0xB73 JUMP JUMPDEST PUSH1 0x12 SLOAD PUSH1 0x14 SLOAD DUP12 MLOAD PUSH4 0x95EA7B3 PUSH1 0xE0 SHL DUP2 MSTORE PUSH1 0x1 PUSH1 0x1 PUSH1 0xA0 SHL SUB SWAP1 SWAP3 AND PUSH1 0x4 DUP4 ADD MSTORE PUSH1 0x24 DUP3 ADD MSTORE SWAP3 DUP4 SWAP2 SWAP1 DUP3 SWAP1 DUP8 SWAP1 DUP3 SWAP1 PUSH1 0x44 DUP3 ADD SWAP1 JUMP JUMPDEST SUB SWAP3 GAS CALL DUP1 ISZERO PUSH2 0xDBE JUMPI PUSH2 0x2E57 JUMPI JUMPDEST POP POP PUSH1 0x11 SLOAD PUSH2 0x2D94 SWAP1 PUSH1 0x1 PUSH1 0x1 PUSH1 0xA0 SHL SUB AND PUSH2 0xB73 JUMP JUMPDEST PUSH1 0x17 SLOAD SWAP1 PUSH1 0x14 SLOAD SWAP2 DUP2 EXTCODESIZE ISZERO PUSH2 0x2E53 JUMPI DUP9 MLOAD PUSH4 0x85F4525 PUSH1 0xE4 SHL DUP2 MSTORE PUSH1 0x4 DUP2 ADD SWAP2 SWAP1 SWAP2 MSTORE PUSH1 0x24 DUP2 ADD SWAP3 SWAP1 SWAP3 MSTORE SWAP1 SWAP3 SWAP2 SWAP1 DUP4 SWAP1 PUSH1 0x44 SWAP1 DUP3 SWAP1 DUP5 SWAP1 GAS CALL SWAP6 DUP7 ISZERO PUSH2 0xDBE JUMPI PUSH2 0x2E1D PUSH32 0x1920A8E4A417EB5AB62A3F8E9497491E1FE3B9652D09D8C3CDC674F0B50D5460 SWAP7 PUSH2 0x2E34 SWAP5 DUP12 SWAP10 PUSH2 0x2E3A JUMPI JUMPDEST POP PUSH2 0x2E18 DUP10 PUSH0 MSTORE PUSH1 0xE PUSH1 0x20 MSTORE PUSH1 0x40 PUSH0 KECCAK256 SWAP1 JUMP JUMPDEST PUSH2 0x2A68 JUMP JUMPDEST DUP7 PUSH2 0x2E27 DUP7 PUSH2 0x197F JUMP JUMPDEST SSTORE MLOAD SWAP4 DUP5 SWAP4 CALLER SWAP9 DUP6 PUSH2 0x2BBA JUMP JUMPDEST SUB SWAP1 LOG3 SWAP1 JUMP JUMPDEST DUP1 PUSH2 0x2E47 PUSH2 0x2E4D SWAP3 PUSH2 0x96D JUMP JUMPDEST DUP1 PUSH2 0x337 JUMP JUMPDEST PUSH0 PUSH2 0x2E05 JUMP JUMPDEST DUP4 DUP1 REVERT JUMPDEST DUP2 PUSH2 0x2E76 SWAP3 SWAP1 RETURNDATASIZE LT PUSH2 0x2E7E JUMPI JUMPDEST PUSH2 0x2E6E DUP2 DUP4 PUSH2 0x99B JUMP JUMPDEST DUP2 ADD SWAP1 PUSH2 0x28F6 JUMP JUMPDEST POP PUSH0 DUP1 PUSH2 0x2D7D JUMP JUMPDEST POP RETURNDATASIZE PUSH2 0x2E64 JUMP JUMPDEST PUSH2 0x2E9C SWAP2 POP DUP4 RETURNDATASIZE DUP6 GT PUSH2 0x2E7E JUMPI PUSH2 0x2E6E DUP2 DUP4 PUSH2 0x99B JUMP JUMPDEST PUSH0 PUSH2 0x2D15 JUMP JUMPDEST PUSH2 0x2EB9 SWAP1 PUSH1 0x60 RETURNDATASIZE DUP2 GT PUSH2 0xDB7 JUMPI PUSH2 0xDA5 DUP2 DUP4 PUSH2 0x99B JUMP JUMPDEST POP POP PUSH2 0x2C61 JUMP JUMPDEST SWAP1 PUSH1 0x40 MLOAD PUSH2 0x2ECD DUP2 PUSH2 0x980 JUMP JUMPDEST PUSH0 DUP2 MSTORE PUSH1 0x1 PUSH1 0x1 PUSH1 0xA0 SHL SUB DUP4 AND SWAP2 DUP3 ISZERO PUSH2 0x2FA9 JUMPI PUSH2 0x2EEA DUP2 PUSH2 0x1FE6 JUMP JUMPDEST PUSH2 0x2F64 JUMPI DUP4 DUP2 PUSH2 0x1F6A SWAP5 PUSH2 0x2F01 DUP3 PUSH2 0x9D7 SWAP9 PUSH2 0x2519 JUMP JUMPDEST PUSH1 0x1 PUSH1 0x1 PUSH1 0xA0 SHL SUB DUP4 AND PUSH0 SWAP1 DUP2 MSTORE PUSH1 0x3 PUSH1 0x20 MSTORE PUSH1 0x40 SWAP1 KECCAK256 PUSH2 0x2F22 DUP2 SLOAD PUSH2 0x2157 JUMP JUMPDEST SWAP1 SSTORE PUSH2 0x2F3A DUP4 PUSH2 0x2224 DUP5 PUSH0 MSTORE PUSH1 0x2 PUSH1 0x20 MSTORE PUSH1 0x40 PUSH0 KECCAK256 SWAP1 JUMP JUMPDEST PUSH0 PUSH32 0xDDF252AD1BE2C89B69C2B068FC378DAA952BA7F163C4A11628F55A4DF523B3EF DUP2 DUP1 LOG4 PUSH2 0x241F JUMP JUMPDEST PUSH1 0x40 MLOAD PUSH3 0x461BCD PUSH1 0xE5 SHL DUP2 MSTORE PUSH1 0x20 PUSH1 0x4 DUP3 ADD MSTORE PUSH1 0x1C PUSH1 0x24 DUP3 ADD MSTORE PUSH32 0x4552433732313A20746F6B656E20616C7265616479206D696E74656400000000 PUSH1 0x44 DUP3 ADD MSTORE PUSH1 0x64 SWAP1 REVERT JUMPDEST PUSH1 0x64 PUSH1 0x40 MLOAD PUSH3 0x461BCD PUSH1 0xE5 SHL DUP2 MSTORE PUSH1 0x20 PUSH1 0x4 DUP3 ADD MSTORE PUSH1 0x20 PUSH1 0x24 DUP3 ADD MSTORE PUSH32 0x4552433732313A206D696E7420746F20746865207A65726F2061646472657373 PUSH1 0x44 DUP3 ADD MSTORE REVERT JUMPDEST ISZERO PUSH2 0x2FF4 JUMPI JUMP JUMPDEST PUSH1 0x40 MLOAD PUSH3 0x461BCD PUSH1 0xE5 SHL DUP2 MSTORE PUSH1 0x20 PUSH1 0x4 DUP3 ADD MSTORE PUSH1 0x16 PUSH1 0x24 DUP3 ADD MSTORE PUSH22 0x105C9D1A58DB1948191BD95CC81B9BDD08195E1A5CDD PUSH1 0x52 SHL PUSH1 0x44 DUP3 ADD MSTORE PUSH1 0x64 SWAP1 REVERT JUMPDEST SWAP1 DUP2 PUSH1 0x20 SWAP2 SUB SLT PUSH2 0x2AB JUMPI MLOAD SWAP1 JUMP JUMPDEST PUSH1 0x1 PUSH1 0x1 PUSH1 0xA0 SHL SUB SWAP1 SWAP2 AND DUP2 MSTORE PUSH1 0x40 PUSH1 0x20 DUP3 ADD DUP2 SWAP1 MSTORE PUSH2 0x398 SWAP3 SWAP2 ADD SWAP1 PUSH2 0x891 JUMP JUMPDEST PUSH2 0x398 SWAP4 SWAP3 PUSH1 0x60 SWAP3 DUP3 MSTORE PUSH1 0x20 DUP3 ADD MSTORE DUP2 PUSH1 0x40 DUP3 ADD MSTORE ADD SWAP1 PUSH2 0x362 JUMP JUMPDEST DUP1 SLOAD PUSH1 0x1 PUSH1 0x40 SHL DUP2 LT ISZERO PUSH2 0x712 JUMPI PUSH2 0x309E SWAP1 PUSH1 0x1 SWAP3 DUP4 DUP3 ADD DUP2 SSTORE PUSH2 0x83B JUMP JUMPDEST SWAP3 SWAP1 SWAP3 PUSH2 0x31A8 JUMPI DUP1 MLOAD DUP4 SLOAD PUSH1 0x1 PUSH1 0x1 PUSH1 0xA0 SHL SUB NOT AND PUSH1 0x1 PUSH1 0x1 PUSH1 0xA0 SHL SUB SWAP2 SWAP1 SWAP2 AND OR DUP4 SSTORE DUP2 DUP4 ADD PUSH1 0x20 DUP1 DUP4 ADD MLOAD SWAP4 DUP5 MLOAD SWAP2 PUSH1 0x1 PUSH1 0x1 PUSH1 0x40 SHL SUB DUP4 GT PUSH2 0x712 JUMPI PUSH2 0x30EB DUP4 PUSH2 0x2A89 DUP7 SLOAD PUSH2 0x859 JUMP JUMPDEST DUP1 PUSH1 0x1F DUP5 GT PUSH1 0x1 EQ PUSH2 0x3137 JUMPI POP SWAP2 DUP1 DUP1 SWAP3 PUSH1 0x60 SWAP7 SWAP6 SWAP5 PUSH1 0x3 SWAP9 PUSH0 SWAP5 PUSH2 0x312C JUMPI JUMPDEST POP POP SHL SWAP2 PUSH0 NOT SWAP1 DUP8 SHL SHR NOT AND OR SWAP1 SSTORE JUMPDEST PUSH1 0x40 DUP2 ADD MLOAD PUSH1 0x2 DUP6 ADD SSTORE ADD MLOAD SWAP2 ADD SSTORE JUMP JUMPDEST ADD MLOAD SWAP3 POP PUSH0 DUP1 PUSH2 0x310B JUMP JUMPDEST SWAP2 SWAP4 SWAP5 SWAP6 PUSH1 0x1F NOT DUP5 AND PUSH2 0x314D DUP8 PUSH0 MSTORE PUSH1 0x20 PUSH0 KECCAK256 SWAP1 JUMP JUMPDEST SWAP4 PUSH0 SWAP1 JUMPDEST DUP3 DUP3 LT PUSH2 0x3191 JUMPI POP POP SWAP2 PUSH1 0x3 SWAP8 SWAP6 SWAP4 SWAP2 DUP6 PUSH1 0x60 SWAP9 SWAP7 SWAP5 LT PUSH2 0x317A JUMPI JUMPDEST POP POP POP DUP2 SHL ADD SWAP1 SSTORE PUSH2 0x311B JUMP JUMPDEST ADD MLOAD PUSH0 NOT DUP4 DUP10 SHL PUSH1 0xF8 AND SHR NOT AND SWAP1 SSTORE PUSH0 DUP1 DUP1 PUSH2 0x316D JUMP JUMPDEST DUP1 DUP9 DUP7 SWAP8 DUP3 SWAP5 SWAP8 DUP8 ADD MLOAD DUP2 SSTORE ADD SWAP7 ADD SWAP5 ADD SWAP1 PUSH2 0x3151 JUMP JUMPDEST PUSH4 0x4E487B71 PUSH1 0xE0 SHL PUSH0 MSTORE PUSH0 PUSH1 0x4 MSTORE PUSH1 0x24 PUSH0 REVERT JUMPDEST SWAP1 PUSH1 0x20 PUSH2 0x398 SWAP3 DUP2 DUP2 MSTORE ADD SWAP1 PUSH2 0x891 JUMP JUMPDEST SWAP1 DUP2 SLOAD PUSH1 0x1 PUSH1 0x1 PUSH1 0x40 SHL SUB DUP2 GT PUSH2 0x712 JUMPI PUSH1 0x40 SWAP3 DUP4 MLOAD SWAP4 PUSH1 0x20 SWAP1 PUSH2 0x31F5 DUP3 DUP6 PUSH1 0x5 SHL ADD DUP8 PUSH2 0x99B JUMP JUMPDEST DUP4 DUP7 MSTORE PUSH0 SWAP3 DUP4 MSTORE DUP2 DUP4 KECCAK256 SWAP1 DUP3 DUP8 ADD JUMPDEST DUP6 DUP6 LT PUSH2 0x3213 JUMPI POP POP POP POP POP POP JUMP JUMPDEST PUSH1 0x4 DUP5 PUSH1 0x1 SWAP3 DUP5 MLOAD PUSH2 0x3224 DUP2 PUSH2 0x936 JUMP JUMPDEST DUP5 DUP1 PUSH1 0xA0 SHL SUB DUP8 SLOAD AND DUP2 MSTORE DUP6 MLOAD PUSH2 0x3241 DUP2 PUSH2 0x6E6 DUP2 DUP10 DUP13 ADD PUSH2 0x891 JUMP JUMPDEST DUP4 DUP3 ADD MSTORE PUSH1 0x2 DUP8 ADD SLOAD DUP7 DUP3 ADD MSTORE PUSH1 0x3 DUP8 ADD SLOAD PUSH1 0x60 DUP3 ADD MSTORE DUP2 MSTORE ADD SWAP4 ADD SWAP5 ADD SWAP4 SWAP2 PUSH2 0x3204 JUMP JUMPDEST DUP1 MLOAD DUP3 LT ISZERO PUSH2 0x854 JUMPI PUSH1 0x20 SWAP2 PUSH1 0x5 SHL ADD ADD SWAP1 JUMP JUMPDEST SWAP1 PUSH1 0x64 DUP3 MUL SWAP2 DUP1 DUP4 DIV PUSH1 0x64 EQ SWAP1 ISZERO OR ISZERO PUSH2 0xF43 JUMPI JUMP INVALID LOG2 PUSH5 0x6970667358 0x22 SLT KECCAK256 SELFBALANCE PUSH12 0xE4E8F1CFEA9E7BCA4FF08F37 PUSH31 0xB7BD044B066A06DDFA0D327CCD607D9A8364736F6C63430008140033000000 "},"methodIdentifiers":{"AutomationContract()":"408958d6","OrchestrationContract()":"48d6c25b","approve(address,uint256)":"095ea7b3","articleReviews(uint256,uint256)":"3e7c2042","articles(uint256)":"edcfafe6","balanceOf(address)":"70a08231","checkUpKeep(bytes)":"5e6c102e","getApproved(uint256)":"081812fc","getArticle(uint256)":"bd85d867","getArticleByHash(string)":"6fd00fc8","getReviewsForArticle(uint256)":"2056b05f","ipfsHashToTokenId(string)":"bfc67d9a","isApprovedForAll(address,address)":"e985e9c5","mintArticle(string,string,string,string,string)":"5f23b056","name()":"06fdde03","openVoteTime()":"9b1cb58e","owner()":"8da5cb5b","ownerOf(uint256)":"6352211e","performUpkeep(bytes)":"4585e33b","proposalFeeInLink()":"7823e226","proposalQueueCounter()":"9cd2cadc","renounceOwnership()":"715018a6","safeTransferFrom(address,address,uint256)":"42842e0e","safeTransferFrom(address,address,uint256,bytes)":"b88d4fde","sendArticleToContract(uint256,address)":"ae1d47c9","setApprovalForAll(address,bool)":"a22cb465","setAutomationRegistry(address)":"5ff2d2aa","setFee(uint256)":"69fe0e2d","setOpenVoteTime(uint256)":"8640f718","setUpkkepId(uint256)":"5787a0cc","submitReview(uint256,string,uint256)":"6356eea4","supportsInterface(bytes4)":"01ffc9a7","symbol()":"95d89b41","tokenByIndex(uint256)":"4f6ccce7","tokenOfOwnerByIndex(address,uint256)":"2f745c59","tokenURI(uint256)":"c87b56dd","totalSupply()":"18160ddd","transferFrom(address,address,uint256)":"23b872dd","transferOwnership(address)":"f2fde38b","upkeepId()":"d2aa789f"}}}}}