{"contracts/learntgetherOrchestration.sol":{"learntgetherOrchestration":{"abi":[{"inputs":[{"internalType":"address","name":"_linkTokenAddress","type":"address"},{"internalType":"address","name":"_automationAddress","type":"address"},{"internalType":"uint256","name":"_feePrice","type":"uint256"},{"internalType":"bool","name":"_devMode","type":"bool"}],"stateMutability":"nonpayable","type":"constructor"},{"anonymous":false,"inputs":[{"indexed":true,"internalType":"string","name":"subjectName","type":"string"},{"indexed":true,"internalType":"address","name":"reviewer","type":"address"},{"indexed":false,"internalType":"uint256","name":"creds","type":"uint256"}],"name":"CredsAdded","type":"event"},{"anonymous":false,"inputs":[{"indexed":true,"internalType":"string","name":"subjectName","type":"string"},{"indexed":true,"internalType":"address","name":"reviewer","type":"address"},{"indexed":false,"internalType":"uint256","name":"creds","type":"uint256"}],"name":"CredsRemoved","type":"event"},{"anonymous":false,"inputs":[{"indexed":false,"internalType":"address","name":"proposer","type":"address"},{"indexed":false,"internalType":"string","name":"subjectName","type":"string"},{"indexed":false,"internalType":"uint256","name":"numReviewsForAcceptance","type":"uint256"},{"indexed":false,"internalType":"uint256","name":"credsNeededForReview","type":"uint256"},{"indexed":false,"internalType":"uint256","name":"percentAcceptsNeeded","type":"uint256"},{"indexed":false,"internalType":"uint256","name":"minCredsToProposeVote","type":"uint256"},{"indexed":false,"internalType":"uint256","name":"minCredsToVote","type":"uint256"},{"indexed":false,"internalType":"uint256","name":"maxCredsCountedForVote","type":"uint256"},{"indexed":false,"internalType":"uint256","name":"minProposalVotes","type":"uint256"},{"indexed":false,"internalType":"uint256","name":"timestamp","type":"uint256"},{"indexed":false,"internalType":"bool","name":"isActive","type":"bool"}],"name":"ProposalCreated","type":"event"},{"anonymous":false,"inputs":[{"indexed":false,"internalType":"uint256","name":"proposalId","type":"uint256"},{"indexed":false,"internalType":"bool","name":"passed","type":"bool"}],"name":"ProposalResult","type":"event"},{"anonymous":false,"inputs":[{"indexed":true,"internalType":"string","name":"subjectName","type":"string"},{"indexed":true,"internalType":"address","name":"reviewerAddress","type":"address"}],"name":"ReviewerAdded","type":"event"},{"anonymous":false,"inputs":[{"indexed":false,"internalType":"address","name":"reviewerAddress","type":"address"},{"indexed":false,"internalType":"string","name":"name","type":"string"},{"indexed":false,"internalType":"string","name":"description","type":"string"},{"indexed":false,"internalType":"string[]","name":"degrees","type":"string[]"},{"indexed":false,"internalType":"string[]","name":"awards","type":"string[]"}],"name":"ReviewerInfo","type":"event"},{"anonymous":false,"inputs":[{"indexed":true,"internalType":"string","name":"subjectName","type":"string"},{"indexed":true,"internalType":"address","name":"reviewerAddress","type":"address"}],"name":"ReviewerRemoved","type":"event"},{"anonymous":false,"inputs":[{"indexed":true,"internalType":"string","name":"subjectName","type":"string"},{"indexed":false,"internalType":"address","name":"creator","type":"address"},{"indexed":false,"internalType":"uint256","name":"numReviewsForAcceptance","type":"uint256"},{"indexed":false,"internalType":"uint256","name":"credsNeededForReview","type":"uint256"},{"indexed":false,"internalType":"uint256","name":"percentAcceptsNeeded","type":"uint256"},{"indexed":false,"internalType":"uint256","name":"minCredsToProposeVote","type":"uint256"},{"indexed":false,"internalType":"uint256","name":"minCredsToVote","type":"uint256"},{"indexed":false,"internalType":"uint256","name":"maxCredsCountedForVote","type":"uint256"},{"indexed":false,"internalType":"uint256","name":"minProposalVotes","type":"uint256"}],"name":"SubjectCreated","type":"event"},{"anonymous":false,"inputs":[{"indexed":true,"internalType":"string","name":"subjectName","type":"string"},{"indexed":false,"internalType":"uint256","name":"proposalId","type":"uint256"},{"indexed":false,"internalType":"address","name":"creator","type":"address"},{"indexed":false,"internalType":"uint256","name":"numReviewsForAcceptance","type":"uint256"},{"indexed":false,"internalType":"uint256","name":"credsNeededForReview","type":"uint256"},{"indexed":false,"internalType":"uint256","name":"percentAcceptsNeeded","type":"uint256"},{"indexed":false,"internalType":"uint256","name":"minCredsToProposeVote","type":"uint256"},{"indexed":false,"internalType":"uint256","name":"minCredsToVote","type":"uint256"},{"indexed":false,"internalType":"uint256","name":"maxCredsCountedForVote","type":"uint256"},{"indexed":false,"internalType":"uint256","name":"minProposalVotes","type":"uint256"}],"name":"SubjectUpdated","type":"event"},{"anonymous":false,"inputs":[{"indexed":true,"internalType":"uint256","name":"proposalId","type":"uint256"},{"indexed":true,"internalType":"address","name":"voter","type":"address"},{"indexed":false,"internalType":"bool","name":"voteChoice","type":"bool"}],"name":"Voted","type":"event"},{"inputs":[],"name":"AutomationContract","outputs":[{"internalType":"contract ChainlinkAutomation","name":"","type":"address"}],"stateMutability":"view","type":"function"},{"inputs":[{"internalType":"string","name":"_subjectName","type":"string"},{"internalType":"address","name":"_reviewer","type":"address"}],"name":"addCredsToReviewer","outputs":[],"stateMutability":"nonpayable","type":"function"},{"inputs":[{"internalType":"string","name":"_subjectName","type":"string"}],"name":"addSelfAsReviewer","outputs":[],"stateMutability":"nonpayable","type":"function"},{"inputs":[{"internalType":"bytes","name":"","type":"bytes"}],"name":"checkUpKeep","outputs":[{"internalType":"bool","name":"upkeepNeeded","type":"bool"},{"internalType":"bytes","name":"","type":"bytes"}],"stateMutability":"view","type":"function"},{"inputs":[{"internalType":"string","name":"_subjectName","type":"string"},{"internalType":"uint256","name":"_numReviewsForAcceptance","type":"uint256"},{"internalType":"uint256","name":"_credsNeededForReview","type":"uint256"},{"internalType":"uint256","name":"_percentAcceptsNeeded","type":"uint256"},{"internalType":"uint256","name":"_minCredsToProposeVote","type":"uint256"},{"internalType":"uint256","name":"_minCredsToVote","type":"uint256"},{"internalType":"uint256","name":"_maxCredsCountedForVote","type":"uint256"},{"internalType":"uint256","name":"_minProposalVotes","type":"uint256"}],"name":"createSubject","outputs":[],"stateMutability":"nonpayable","type":"function"},{"inputs":[{"internalType":"uint256","name":"_proposalId","type":"uint256"}],"name":"getProposalResults","outputs":[{"internalType":"bool","name":"","type":"bool"},{"internalType":"bool","name":"","type":"bool"}],"stateMutability":"view","type":"function"},{"inputs":[{"internalType":"address","name":"_address","type":"address"},{"internalType":"uint256","name":"_proposalId","type":"uint256"}],"name":"getProposalVote","outputs":[{"internalType":"uint256","name":"","type":"uint256"},{"internalType":"uint256","name":"","type":"uint256"},{"internalType":"uint256","name":"","type":"uint256"},{"internalType":"uint256","name":"","type":"uint256"},{"internalType":"bool","name":"","type":"bool"}],"stateMutability":"view","type":"function"},{"inputs":[{"internalType":"address","name":"reviewerAddress","type":"address"},{"internalType":"string","name":"subjectName","type":"string"}],"name":"getReviewerCreds","outputs":[{"internalType":"uint256","name":"","type":"uint256"}],"stateMutability":"view","type":"function"},{"inputs":[{"internalType":"address","name":"reviewerAddress","type":"address"}],"name":"getReviewerInfo","outputs":[{"internalType":"string","name":"","type":"string"},{"internalType":"string","name":"","type":"string"},{"internalType":"string[]","name":"","type":"string[]"},{"internalType":"string[]","name":"","type":"string[]"}],"stateMutability":"view","type":"function"},{"inputs":[{"internalType":"address","name":"reviewerAddress","type":"address"},{"internalType":"string","name":"subjectName","type":"string"}],"name":"getReviewerIsReviewer","outputs":[{"internalType":"bool","name":"","type":"bool"}],"stateMutability":"view","type":"function"},{"inputs":[{"internalType":"string","name":"_subjectName","type":"string"}],"name":"getSubjectInfo","outputs":[{"internalType":"uint256","name":"numReviewsForAcceptance","type":"uint256"},{"internalType":"uint256","name":"credsNeededForReview","type":"uint256"},{"internalType":"uint256","name":"percentAcceptsNeeded","type":"uint256"}],"stateMutability":"view","type":"function"},{"inputs":[{"internalType":"address","name":"reviewerAddress","type":"address"},{"internalType":"string","name":"subjectName","type":"string"},{"internalType":"address","name":"givenBy","type":"address"}],"name":"hasReviewerGivenCred","outputs":[{"internalType":"bool","name":"","type":"bool"}],"stateMutability":"view","type":"function"},{"inputs":[],"name":"openVoteTime","outputs":[{"internalType":"uint256","name":"","type":"uint256"}],"stateMutability":"view","type":"function"},{"inputs":[{"internalType":"bytes","name":"","type":"bytes"}],"name":"performUpkeep","outputs":[],"stateMutability":"nonpayable","type":"function"},{"inputs":[],"name":"proposalCounter","outputs":[{"internalType":"uint256","name":"","type":"uint256"}],"stateMutability":"view","type":"function"},{"inputs":[],"name":"proposalFeeInLink","outputs":[{"internalType":"uint256","name":"","type":"uint256"}],"stateMutability":"view","type":"function"},{"inputs":[],"name":"proposalQueueCounter","outputs":[{"internalType":"uint256","name":"","type":"uint256"}],"stateMutability":"view","type":"function"},{"inputs":[{"internalType":"uint256","name":"","type":"uint256"}],"name":"proposals","outputs":[{"internalType":"address","name":"proposer","type":"address"},{"internalType":"string","name":"subjectName","type":"string"},{"internalType":"uint256","name":"numReviewsForAcceptance","type":"uint256"},{"internalType":"uint256","name":"credsNeededForReview","type":"uint256"},{"internalType":"uint256","name":"percentAcceptsNeeded","type":"uint256"},{"internalType":"uint256","name":"minCredsToProposeVote","type":"uint256"},{"internalType":"uint256","name":"minCredsToVote","type":"uint256"},{"internalType":"uint256","name":"maxCredsCountedForVote","type":"uint256"},{"internalType":"uint256","name":"minProposalVotes","type":"uint256"},{"internalType":"uint256","name":"timestamp","type":"uint256"},{"internalType":"uint256","name":"approveVotes","type":"uint256"},{"internalType":"uint256","name":"denyVotes","type":"uint256"},{"internalType":"uint256","name":"approveCreds","type":"uint256"},{"internalType":"uint256","name":"denyCreds","type":"uint256"},{"internalType":"bool","name":"isActive","type":"bool"},{"internalType":"bool","name":"passed","type":"bool"}],"stateMutability":"view","type":"function"},{"inputs":[{"internalType":"string","name":"_subjectName","type":"string"},{"internalType":"uint256","name":"_numReviewsForAcceptance","type":"uint256"},{"internalType":"uint256","name":"_credsNeededForReview","type":"uint256"},{"internalType":"uint256","name":"_percentAcceptsNeeded","type":"uint256"},{"internalType":"uint256","name":"_minCredsToProposeVote","type":"uint256"},{"internalType":"uint256","name":"_minCredsToVote","type":"uint256"},{"internalType":"uint256","name":"_maxCredsCountedForVote","type":"uint256"},{"internalType":"uint256","name":"_minProposalVotes","type":"uint256"}],"name":"propose","outputs":[],"stateMutability":"nonpayable","type":"function"},{"inputs":[{"internalType":"string","name":"_subjectName","type":"string"},{"internalType":"address","name":"_reviewer","type":"address"}],"name":"removeCredsFromReviewer","outputs":[],"stateMutability":"nonpayable","type":"function"},{"inputs":[{"internalType":"string","name":"_subjectName","type":"string"}],"name":"removeSelfAsReviewer","outputs":[],"stateMutability":"nonpayable","type":"function"},{"inputs":[{"internalType":"address","name":"_contractAddress","type":"address"}],"name":"setAutomationRegistry","outputs":[],"stateMutability":"nonpayable","type":"function"},{"inputs":[{"internalType":"uint256","name":"_creds","type":"uint256"},{"internalType":"address","name":"_reviewer","type":"address"},{"internalType":"string","name":"subjectName","type":"string"}],"name":"setCreds","outputs":[],"stateMutability":"nonpayable","type":"function"},{"inputs":[{"internalType":"uint256","name":"_feePrice","type":"uint256"}],"name":"setFee","outputs":[],"stateMutability":"nonpayable","type":"function"},{"inputs":[{"internalType":"uint256","name":"_votetime","type":"uint256"}],"name":"setOpenVoteTime","outputs":[],"stateMutability":"nonpayable","type":"function"},{"inputs":[{"internalType":"uint256","name":"_count","type":"uint256"}],"name":"setProposalCounter","outputs":[],"stateMutability":"nonpayable","type":"function"},{"inputs":[{"internalType":"uint256","name":"_proposalId","type":"uint256"}],"name":"setProposalInactive","outputs":[],"stateMutability":"nonpayable","type":"function"},{"inputs":[{"internalType":"uint256","name":"_upkeepId","type":"uint256"}],"name":"setUpkkepId","outputs":[],"stateMutability":"nonpayable","type":"function"},{"inputs":[{"internalType":"uint256","name":"","type":"uint256"}],"name":"subjectNames","outputs":[{"internalType":"string","name":"","type":"string"}],"stateMutability":"view","type":"function"},{"inputs":[{"internalType":"string","name":"","type":"string"}],"name":"subjects","outputs":[{"internalType":"address","name":"creator","type":"address"},{"internalType":"uint256","name":"numReviewsForAcceptance","type":"uint256"},{"internalType":"uint256","name":"credsNeededForReview","type":"uint256"},{"internalType":"uint256","name":"percentAcceptsNeeded","type":"uint256"},{"internalType":"uint256","name":"minCredsToProposeVote","type":"uint256"},{"internalType":"uint256","name":"minCredsToVote","type":"uint256"},{"internalType":"uint256","name":"maxCredsCountedForVote","type":"uint256"},{"internalType":"uint256","name":"minProposalVotes","type":"uint256"}],"stateMutability":"view","type":"function"},{"inputs":[{"internalType":"string","name":"_name","type":"string"},{"internalType":"string","name":"_description","type":"string"},{"internalType":"string[]","name":"_degrees","type":"string[]"},{"internalType":"string[]","name":"_awards","type":"string[]"}],"name":"updateReviewerInfo","outputs":[],"stateMutability":"nonpayable","type":"function"},{"inputs":[],"name":"upkeepId","outputs":[{"internalType":"uint256","name":"","type":"uint256"}],"stateMutability":"view","type":"function"},{"inputs":[{"internalType":"uint256","name":"proposalId","type":"uint256"},{"internalType":"bool","name":"voteChoice","type":"bool"}],"name":"vote","outputs":[],"stateMutability":"nonpayable","type":"function"}],"evm":{"bytecode":{"linkReferences":{},"object":"608034620000d757601f6200289238819003918201601f19168301916001600160401b03831184841017620000db57808492608094604052833981010312620000d7576200004d81620000ef565b906200005c60208201620000ef565b6060604083015192015192831515809403620000d75760018060a01b0319913383600654161760065560018060a01b0380921683600554161760055516918282600a541617600a55600755600b541617600b556001600455600160095560ff8019600d5416911617600d5560405161278d9081620001058239f35b5f80fd5b634e487b7160e01b5f52604160045260245ffd5b51906001600160a01b0382168203620000d75756fe6080604052600480361015610012575f80fd5b5f803560e01c8063013cf08b14611dd4578063072c1f4114611d2c5780630c0512e914611d0e5780631282f60914611cb957806318f6b96214611b075780633371ef7d146118cc57806338a87e55146115e95780633e8e033d1461155d578063408958d6146115345780634585e33b1461129e5780635787a0cc1461126f578063585e01e41461109c578063598f921b14610fe55780635bdcd00814610fa75780635e6c102e14610f265780635ff2d2aa14610ed457806366ea653a14610df55780636853570914610d7b57806369fe0e2d14610d4c5780636f20d2a814610c135780637823e22614610bf55780638640f71814610bc65780638b64044014610b975780639498b08114610b0e5780639b1cb58e14610af05780639cd2cadc14610ad2578063ac923334146106fe578063c9d27afe14610403578063d2aa789f146103e5578063d39686a7146102c7578063e99d966f14610284578063fc687c80146102205763fe29042314610186575f80fd5b3461021d57602036600319011261021d578135906001600160401b03821161021d575060206101bb6101ce923690850161209a565b8160405193828580945193849201611fdf565b810160018152030190209061021960018060a01b03835416916001840154936002810154916003820154908201546005830154916007600685015494015494604051988998896122ee565b0390f35b80fd5b503461021d57602036600319011261021d578135600254811015610280576102479061229c565b92909261026e5761021961025a84611f3e565b604051918291602083526020830190612000565b634e487b7160e01b8252819052602490fd5b5080fd5b5090346102805760026102ba60209360ff9360406102a13661225a565b6001600160a01b039091168452838852922001906122c8565b0154166040519015158152f35b509034610280576020918260031936011261021d578135906001600160401b03821161021d57506102fb903690830161209a565b916040519183519282850193610312818387611fdf565b600190820190815281900383019020546001600160a01b0316156103a95750606092600361038c8360016040518281875161034e81838d611fdf565b81018481520301902001549560026040518381885161036e818388611fdf565b81016001815203019020015494604051938492839251928391611fdf565b810160018152030190200154916040519384528301526040820152f35b6064916040519162461bcd60e51b8352820152601760248201527614dd589a9958dd08111bd95cc8139bdd08115e1cda5cdd604a1b6044820152fd5b503461021d578060031936011261021d576020600c54604051908152f35b503461021d57604036600319011261021d5781356024908135801515928382036106fa5785548310156106bc578285526020916003835260408620966001928360ff600f8b01541615150361067957908492918861048c8660ff60026104818f6040858a920197806104748a611f3e565b9d3382525220018a6122c8565b0154161515146124a4565b600e8b0194335f5285885260ff60405f20541661063c576104b990338c528b89528460408d2001906122c8565b54600560405189816104cb81876125f8565b8b815203019020015481106105f957908791600660405184816104ee81876125f8565b8c81520301902001548111156105f0575060069161051291604051928380926125f8565b898152030190200154925b1561059f57600a8a019081549286840180941161058e5750507ff2913dbe661ee2acc4a046d8fbcdc792373bda34c41c6086484b5345e5785e5f9697989961056c92600c9255019182546125b1565b90555b335f52825260405f209060ff198254161790556040519384523393a380f35b634e487b7160e01b8b526011905289fd5b600b8a019081549286840180941161058e5750507ff2913dbe661ee2acc4a046d8fbcdc792373bda34c41c6086484b5345e5785e5f969798996105e992600d9255019182546125b1565b905561056f565b9150509261051d565b60405162461bcd60e51b8152808501899052601b818501527f496e73756666696369656e7420637265647320746f20766f74652e00000000006044820152606490fd5b60405162461bcd60e51b8152808501899052601781850152762cb7ba903430bb329030b63932b0b23c903b37ba32b21760491b6044820152606490fd5b60405162461bcd60e51b8152918201859052601c908201527f50726f706f73616c206973206e6f206c6f6e67657220416374697665000000006044820152606490fd5b85601860649260206040519362461bcd60e51b855284015282015277283937b837b9b0b6103237b2b9903737ba1032bc34b9ba1760411b6044820152fd5b8480fd5b5090346102805761070e36612130565b926040969594969291925196885195602098898b019761072f81838b611fdf565b60019082018181528290038b019091205490976001600160a01b0391821615610a96578c6107a18f8e9361078e8f9260408f91610780889333835282885260ff60026104818d8888882001906122c8565b3381528086522001866122c8565b5494604051938492839251928391611fdf565b81018d815203019020015411610a52578c8c8b8360055416916064600754918560405195869485936323b872dd60e01b8552339085015230602485015260448401525af1918215610a465791610a29575b50156109ef578b8a8e600f8b8f61082690865485526003865260408520923360018060a01b03198554161784558301612343565b8d600282015586600382015587858201558860058201558960068201558a60078201558b6008820155426009820155018b60ff19825416179055604484600554169385600b54169260075495604051968795869463095ea7b360e01b865285015260248401525af180156109e2576109b5575b50600a54168c600c5460075492803b156109b1578e83604492604051968795869463085f452560e41b865285015260248401525af180156109a65761095c575b508a6109067fd8f2df2889333f1b8bcbf270d30b518ed0c9cc58cd18ed0e344783c0b3c021879c546125ea565b90556109246040519a8b9a338c5261016080918d01528b0190612000565b9760408a01526060890152608088015260a087015260c086015260e0850152610100840152426101208401526101408301520390a180f35b6001600160401b038111610993576040527fd8f2df2889333f1b8bcbf270d30b518ed0c9cc58cd18ed0e344783c0b3c021876108d9565b634e487b7160e01b8d5260418c5260248dfd5b6040513d8f823e3d90fd5b8280fd5b6109d4908b3d8d116109db575b6109cc8183611f09565b8101906125d2565b505f610899565b503d6109c2565b8e604051903d90823e3d90fd5b60405162461bcd60e51b8152808d018b90526013602482015272119959481d1c985b9cd9995c8819985a5b1959606a1b6044820152606490fd5b610a4091508b3d8d116109db576109cc8183611f09565b5f6107f2565b604051903d90823e3d90fd5b60405162461bcd60e51b8152808d018b9052601e60248201527f496e73756666696369656e7420637265647320746f2070726f706f73652e00006044820152606490fd5b60405162461bcd60e51b8152808e018c9052601560248201527414dd589a9958dd08191bd95cdb89dd08195e1a5cdd605a1b6044820152606490fd5b503461021d578060031936011261021d576020600954604051908152f35b503461021d578060031936011261021d576020600854604051908152f35b509034610280576060366003190112610280576024356001600160a01b0381811691829003610b9357604435916001600160401b0383116106fa57610b68610b5c610b8f943690870161209a565b92600654163314612677565b610b7b600160ff600d5416151514612710565b8452836020528235926040852001906122c8565b5580f35b8380fd5b50903461028057602036600319011261028057610bbf60018060a01b03600654163314612677565b8035905580f35b50903461028057602036600319011261028057610bee60018060a01b03600654163314612677565b3560085580f35b503461021d578060031936011261021d576020600754604051908152f35b50903461028057602090816003193601126109b15780356001600160401b038111610b9357610c45903690830161209a565b91610c7b6040518451610c5b8183868901611fdf565b600190820190815281900383019020546001600160a01b0316151561245f565b338452838152600160ff6002610c96856040892001876122c8565b015416151514610cf45760029184610cb792338252526040852001836122c8565b01600160ff19825416179055610ccd339161243f565b7fbdfa00028aa6c888a03528a2075ea227b56f2f5182dcf6691bc7c5e37220b2898380a380f35b60405162461bcd60e51b815291820152602c60248201527f596f752061726520616c7265616479206120726576696577657220666f72207460448201526b3434b99039bab13532b1ba1760a11b606482015260849150fd5b50903461028057602036600319011261028057610d7460018060a01b03600654163314612677565b3560075580f35b503461021d57604036600319011261021d5760a090610d98612025565b90602435815260036020526040812091600a8301549260ff6040600c83015494600e600b85015494600d810154966001808c1b03168352016020522054169260405194855260208501526040840152606083015215156080820152f35b5090346102805760203660031901126102805780356001600160401b0381116109b157610e9a610e2a6002923690850161209a565b92610e626040518551610e41818360208a01611fdf565b60019082019081528190036020019020546001600160a01b0316151561245f565b33855284602052610e8860ff84610e7e8460408a2001886122c8565b01541615156124a4565b338552846020526040852001836122c8565b0160ff198154169055610ead339161243f565b7fffcf81133aec081f5d14dbff5c602986674612ec939e52e1960baeedf3bc53328380a380f35b503461021d57602036600319011261021d57610eee612025565b6006546001600160a01b039190610f089083163314612677565b1660018060a01b03198181600a541617600a55600b541617600b5580f35b503461021d57610f3536612211565b5050600954815260209060038252610f576009604083200154600854906125b1565b42116040519283918252604081830152606092835191826040850152815b838110610f92575050828201840152601f01601f19168101030190f35b60808101518782018701528694508101610f75565b5090346102805760203660031901126102805760408092600f92358152600360205220015460ff8251918181161515835260081c1615156020820152f35b50903461028057610ff53661225a565b929060018060a01b031680825281602052600160ff600261101b866040872001886122c8565b015416151503611046579160408261103d9460209694528086522001906122c8565b54604051908152f35b60405162461bcd60e51b8152602081850152602960248201527f526576696577657220446f6573204e6f742045787369737420466f72207468696044820152681cc81cdd589a9958dd60ba1b6064820152608490fd5b503461021d576110ab366120ef565b906040518151906020916110c28183858701611fdf565b600190820181815282900383019091205490936001600160a01b03916110eb908316151561245f565b3386528583526111088560ff60026104818b60408c2001896122c8565b16928385528482526111328160ff60026111278a60408b2001886122c8565b015416151514612501565b61113e84331415612565565b83855284825280611154876040882001856122c8565b01338652825260ff6040862054166112155783855284825261117b866040872001846122c8565b80549082820180921161120257877ff40892af1cef89c48077c1923285cac4d53fc49e28d7d981f0cd804b2570401094936111f7936111f09355878952888552806111cb8360408c2001896122c8565b01338a528552604089209060ff198254161790558688528784526040882001856122c8565b549361243f565b92604051908152a380f35b634e487b7160e01b875260118852602487fd5b60405162461bcd60e51b8152808701839052602d60248201527f596f7527766520616c726561647920676976656e2061206372656420746f207460448201526c3434b9903932bb34b2bbb2b91760991b6064820152608490fd5b5090346102805760203660031901126102805761129760018060a01b03600654163314612677565b35600c5580f35b509034610280576112ae36612211565b505060099081548084526003916020918383526112d485604088200154600854906125b1565b42116112de578580f35b8086528383526040862090600a820154600b83015480821191826114f5575b826114c4575b505015611477575060018101604051848161131e81856125f8565b600181520301902091600281015493600184019485558682015491600285019283558181015491888601928355600582015490860190815560068201549060058701918255600783015492600688019384556008015493600788019485558b548d528a8a5260408d20600f0195610100968761ff00198254161790558c54986040518a81528c81016001905260407f35baaec8d9c9da1c77f27119243a4384b49eae2bf0680aa0eebe3b62d28574a591a1600160a01b600190039054169954905491549254935494549554976040516113f88180936125f8565b03902099604051998a528b8a015260408901526060880152608087015260a086015260c085015260e08401528201526101207f4164d6164d0bb5e68f8e3d0e7f0fe94553672f89041253b9be3a2dd4b24a11e491a25b8254845252600f604083200160ff19815416905561146c81546125ea565b90555f808080808580f35b9150508452818152600f604085200161ff001981541690557f35baaec8d9c9da1c77f27119243a4384b49eae2bf0680aa0eebe3b62d28574a56040845481519081528684820152a161144e565b6114ce92506125b1565b600760405186816114e281600189016125f8565b6001815203019020015411155f80611303565b9150600c840154600d85015410801561150f575b916112fd565b50600660405187816115248160018a016125f8565b6001815203019020015415611509565b503461021d578060031936011261021d57600a546040516001600160a01b039091168152602090f35b50903461028057606036600319011261028057611578612025565b906024356001600160401b038111610b9357611597903690830161209a565b6001600160a01b0360443581811694929392908590036115e5576115d26040946020979460ff979460019416865285895286862001906122c8565b0190825284522054166040519015158152f35b8580fd5b509034610280576080366003190112610280576001600160401b038135818111610b935761161a903690840161209a565b906024358181116106fa57611632903690850161209a565b6044358281116115e5576116499036908601612191565b916064359081116115e5576116619036908601612191565b923386526020948686526116788260408920612343565b338752868652600190611690848360408b2001612343565b338852878752604088208551600160401b92916002018382116118b9578054828255808310611844575b508a52888a208a9085898c015b8c85851061182957505050505050338952888852600360408a2001908751928311611816575080548282558083106117a4575b50885286882088908789015b8383106117895750897f627dda018eb8c1473e432fa4a06937ef8127ac6112d8d9f7dd1175f81d394ede60a08b6117838c6117758d6117678e6117598f604051998a99338b528a015260a0890190612000565b908782036040890152612000565b90858203606087015261203f565b90838203608085015261203f565b0390a180f35b848a8261179883945186612343565b01920192019190611706565b818a5283838a8c2092830192015b8281106117c05750506116fa565b8b6117cb8254611ed1565b806117db575b50500184906117b2565b8c601f8083116001146117f55750505081555b8b5f6117d1565b61180d918585528420920160051c820185830161232d565b818355556117ee565b634e487b7160e01b8a5260419052602489fd5b8161183684935186612343565b0192019201919086906116c7565b85838c8e8581522092830192015b8281106118605750506116ba565b8d8d61186c8354611ed1565b908161187e575b505050018690611852565b601f8083116001146118985750505081555b8d5f8e611873565b6118b0918585528420920160051c820185830161232d565b81835555611890565b634e487b7160e01b8b526041835260248bfd5b503461021d576118db36612130565b93966040969596939193518151602090818401906118fa818584611fdf565b60019084018181528490038301909320546001600160a01b0316611ac957611a26826007928f88908f8f8f8f998b908d6040519283915161193c81848d611fdf565b82019081520301902080546001600160a01b031916331790556040518c518c91908990829061196c81838d611fdf565b810184815203019020015560028a878d6040519283915161198e81848d611fdf565b8201908152030190200155600360405186818d516119ad81838b611fdf565b81018d815203019020015560405184818b516119ca818389611fdf565b81018b815203019020015588600560405184818b516119ea818389611fdf565b81018b815203019020015589600660405184818b51611a0a818389611fdf565b81018b8152030190200155604051809381928951928391611fdf565b810186815203019020015560025490600160401b821015611ab6578101600255611a4f9061229c565b611aa45791611a9082611a8b7f9c96cead8f7fc8142f1af61e373480446b35d81bb5dfa183fd3880c45df68ad59a99989694611a9e9896612343565b61243f565b9860405197889733896122ee565b0390a280f35b634e487b7160e01b8a52898b5260248afd5b634e487b7160e01b8b5260418c5260248bfd5b60405162461bcd60e51b8152808e01839052601760248201527629bab13532b1ba1030b63932b0b23c9032bc34b9ba399760491b6044820152606490fd5b503461021d57611b16366120ef565b90604051815192611b4f602094611b308185888801611fdf565b830160018152838660018060a01b03958693030190205416151561245f565b338552848452611b6d600160ff60026104818a60408b2001886122c8565b1691828452838152611b8d600160ff60026111278960408a2001876122c8565b611b9983331415612565565b8284528381526001611bb0866040872001846122c8565b01338552815260ff60408520541615611c5e57828452838152611bd8856040862001836122c8565b80545f19810191908211611c4b576111f0877f762e6755472076df5543749c551be6860563e0a6140161161de0ba7ff211b2e394936111f793558688528784526001611c298260408b2001886122c8565b338a520184526040808920805460ff19169055878952888552882001856122c8565b634e487b7160e01b865260118752602486fd5b846084916040519162461bcd60e51b8352820152602f60248201527f596f752068617665206e6f7420676976656e2061206372656420746f2074686960448201526e39903932bb34b2bbb2b9103cb2ba1760891b6064820152fd5b50903461028057602036600319011261028057611ce160018060a01b03600654163314612677565b611cf4600160ff600d5416151514612710565b358152600360205260408120600f01805460ff1916905580f35b50903461028057816003193601126102805760209054604051908152f35b503461021d57602036600319011261021d57611daa906040906001600160a01b03611d55612025565b1681528060205220610219611d6982611f3e565b91611dc6611d7960018301611f3e565b91611db8611d956003611d8e600285016126bc565b93016126bc565b93604051978897608089526080890190612000565b908782036020890152612000565b90858203604087015261203f565b90838203606085015261203f565b503461021d57602036600319011261021d578135815260036020526040902080546001600160a01b03169190611e0c60018201611f3e565b916002820154916003810154918101546005820154600683015460078401546008850154600986015491600a87015493600b88015495600c89015497600d8a015499600f01549a6040519e8f9e8f9182526102008060208401528201611e7191612000565b9d60408201526060015260808d015260a08c015260c08b015260e08a01526101008901526101208801526101408701526101608601526101808501526101a084015260ff811615156101c084015260081c60ff1615156101e08301520390f35b90600182811c92168015611eff575b6020831014611eeb57565b634e487b7160e01b5f52602260045260245ffd5b91607f1691611ee0565b90601f801991011681019081106001600160401b03821117611f2a57604052565b634e487b7160e01b5f52604160045260245ffd5b9060405191825f825492611f5184611ed1565b9081845260019485811690815f14611fbc5750600114611f7c575b5050611f7a92500383611f09565b565b909391505f52602090815f20935f915b818310611fa4575050611f7a93508201015f80611f6c565b85548884018501529485019487945091830191611f8c565b915050611f7a94506020925060ff191682840152151560051b8201015f80611f6c565b5f5b838110611ff05750505f910152565b8181015183820152602001611fe1565b9060209161201981518092818552858086019101611fdf565b601f01601f1916010190565b600435906001600160a01b038216820361203b57565b5f80fd5b908082519081815260208091019281808460051b8301019501935f915b84831061206c5750505050505090565b909192939495848061208a600193601f198682030187528a51612000565b980193019301919493929061205c565b81601f8201121561203b578035906001600160401b038211611f2a57604051926120ce601f8401601f191660200185611f09565b8284526020838301011161203b57815f926020809301838601378301015290565b604060031982011261203b57600435906001600160401b03821161203b576121199160040161209a565b906024356001600160a01b038116810361203b5790565b61010060031982011261203b57600435906001600160401b03821161203b5761215b9160040161209a565b906024359060443590606435906084359060a4359060c4359060e43590565b6001600160401b038111611f2a5760051b60200190565b9080601f8301121561203b578135906121a98261217a565b926121b76040519485611f09565b828452602092838086019160051b8301019280841161203b57848301915b8483106121e55750505050505090565b82356001600160401b03811161203b5786916122068484809489010161209a565b8152019201916121d5565b90602060031983011261203b576004356001600160401b039283821161203b578060238301121561203b57816004013593841161203b576024848301011161203b576024019190565b90604060031983011261203b576004356001600160a01b038116810361203b5791602435906001600160401b03821161203b576122999160040161209a565b90565b6002548110156122b45760025f5260205f2001905f90565b634e487b7160e01b5f52603260045260245ffd5b6020906122e2928260405194838680955193849201611fdf565b82019081520301902090565b94919260e0969399989794919961010087019a60018060a01b03168752602087015260408601526060850152608084015260a083015260c08201520152565b818110612338575050565b5f815560010161232d565b91909182516001600160401b038111611f2a576123608254611ed1565b601f8111612404575b50602080601f83116001146123a45750819293945f92612399575b50508160011b915f199060031b1c1916179055565b015190505f80612384565b90601f19831695845f52825f20925f905b8882106123ec575050836001959697106123d4575b505050811b019055565b01515f1960f88460031b161c191690555f80806123ca565b806001859682949686015181550195019301906123b5565b61242f90835f5260205f20601f840160051c81019160208510612435575b601f0160051c019061232d565b5f612369565b9091508190612422565b61245790602060405192828480945193849201611fdf565b810103902090565b1561246657565b60405162461bcd60e51b815260206004820152601660248201527529bab13532b1ba103237b2b9b713ba1032bc34b9ba1760511b6044820152606490fd5b156124ab57565b60405162461bcd60e51b815260206004820152602860248201527f596f7520617265206e6f74206120726576696577657220666f7220746869732060448201526739bab13532b1ba1760c11b6064820152608490fd5b1561250857565b60405162461bcd60e51b815260206004820152602f60248201527f54617267657420726576696577657220646f65736e277420657869737420666f60448201526e39103a3434b99039bab13532b1ba1760891b6064820152608490fd5b1561256c57565b60405162461bcd60e51b815260206004820152601f60248201527f596f752063616e6e6f74206564697420796f7572206f776e2063726564732e006044820152606490fd5b919082018092116125be57565b634e487b7160e01b5f52601160045260245ffd5b9081602091031261203b5751801515810361203b5790565b5f1981146125be5760010190565b5f9291815461260681611ed1565b9260019180831690811561265c5750600114612623575b50505050565b9091929394505f52602090815f20905f915b85831061264b575050505001905f80808061261d565b805485840152918301918101612635565b60ff191684525050508115159091020191505f80808061261d565b1561267e57565b60405162461bcd60e51b81526020600482015260166024820152752737ba103a34329031b7b73a3930b1ba1037bbb732b960511b6044820152606490fd5b9081546126c88161217a565b926126d66040519485611f09565b8184525f90815260208082208186015b8484106126f4575050505050565b600183819261270285611f3e565b8152019201930192906126e6565b1561271757565b60405162461bcd60e51b8152602060048201526018602482015277436f6e7472616374204e6f7420496e20446576204d6f646560401b6044820152606490fdfea26469706673582212205e9aa920895937fde8f378c0f4947ee558ca257ba7e50797db7b16f82f49c38064736f6c63430008140033","opcodes":"PUSH1 0x80 CALLVALUE PUSH3 0xD7 JUMPI PUSH1 0x1F PUSH3 0x2892 CODESIZE DUP2 SWAP1 SUB SWAP2 DUP3 ADD PUSH1 0x1F NOT AND DUP4 ADD SWAP2 PUSH1 0x1 PUSH1 0x1 PUSH1 0x40 SHL SUB DUP4 GT DUP5 DUP5 LT OR PUSH3 0xDB JUMPI DUP1 DUP5 SWAP3 PUSH1 0x80 SWAP5 PUSH1 0x40 MSTORE DUP4 CODECOPY DUP2 ADD SUB SLT PUSH3 0xD7 JUMPI PUSH3 0x4D DUP2 PUSH3 0xEF JUMP JUMPDEST SWAP1 PUSH3 0x5C PUSH1 0x20 DUP3 ADD PUSH3 0xEF JUMP JUMPDEST PUSH1 0x60 PUSH1 0x40 DUP4 ADD MLOAD SWAP3 ADD MLOAD SWAP3 DUP4 ISZERO ISZERO DUP1 SWAP5 SUB PUSH3 0xD7 JUMPI PUSH1 0x1 DUP1 PUSH1 0xA0 SHL SUB NOT SWAP2 CALLER DUP4 PUSH1 0x6 SLOAD AND OR PUSH1 0x6 SSTORE PUSH1 0x1 DUP1 PUSH1 0xA0 SHL SUB DUP1 SWAP3 AND DUP4 PUSH1 0x5 SLOAD AND OR PUSH1 0x5 SSTORE AND SWAP2 DUP3 DUP3 PUSH1 0xA SLOAD AND OR PUSH1 0xA SSTORE PUSH1 0x7 SSTORE PUSH1 0xB SLOAD AND OR PUSH1 0xB SSTORE PUSH1 0x1 PUSH1 0x4 SSTORE PUSH1 0x1 PUSH1 0x9 SSTORE PUSH1 0xFF DUP1 NOT PUSH1 0xD SLOAD AND SWAP2 AND OR PUSH1 0xD SSTORE PUSH1 0x40 MLOAD PUSH2 0x278D SWAP1 DUP2 PUSH3 0x105 DUP3 CODECOPY RETURN JUMPDEST PUSH0 DUP1 REVERT JUMPDEST PUSH4 0x4E487B71 PUSH1 0xE0 SHL PUSH0 MSTORE PUSH1 0x41 PUSH1 0x4 MSTORE PUSH1 0x24 PUSH0 REVERT JUMPDEST MLOAD SWAP1 PUSH1 0x1 PUSH1 0x1 PUSH1 0xA0 SHL SUB DUP3 AND DUP3 SUB PUSH3 0xD7 JUMPI JUMP INVALID PUSH1 0x80 PUSH1 0x40 MSTORE PUSH1 0x4 DUP1 CALLDATASIZE LT ISZERO PUSH2 0x12 JUMPI PUSH0 DUP1 REVERT JUMPDEST PUSH0 DUP1 CALLDATALOAD PUSH1 0xE0 SHR DUP1 PUSH4 0x13CF08B EQ PUSH2 0x1DD4 JUMPI DUP1 PUSH4 0x72C1F41 EQ PUSH2 0x1D2C JUMPI DUP1 PUSH4 0xC0512E9 EQ PUSH2 0x1D0E JUMPI DUP1 PUSH4 0x1282F609 EQ PUSH2 0x1CB9 JUMPI DUP1 PUSH4 0x18F6B962 EQ PUSH2 0x1B07 JUMPI DUP1 PUSH4 0x3371EF7D EQ PUSH2 0x18CC JUMPI DUP1 PUSH4 0x38A87E55 EQ PUSH2 0x15E9 JUMPI DUP1 PUSH4 0x3E8E033D EQ PUSH2 0x155D JUMPI DUP1 PUSH4 0x408958D6 EQ PUSH2 0x1534 JUMPI DUP1 PUSH4 0x4585E33B EQ PUSH2 0x129E JUMPI DUP1 PUSH4 0x5787A0CC EQ PUSH2 0x126F JUMPI DUP1 PUSH4 0x585E01E4 EQ PUSH2 0x109C JUMPI DUP1 PUSH4 0x598F921B EQ PUSH2 0xFE5 JUMPI DUP1 PUSH4 0x5BDCD008 EQ PUSH2 0xFA7 JUMPI DUP1 PUSH4 0x5E6C102E EQ PUSH2 0xF26 JUMPI DUP1 PUSH4 0x5FF2D2AA EQ PUSH2 0xED4 JUMPI DUP1 PUSH4 0x66EA653A EQ PUSH2 0xDF5 JUMPI DUP1 PUSH4 0x68535709 EQ PUSH2 0xD7B JUMPI DUP1 PUSH4 0x69FE0E2D EQ PUSH2 0xD4C JUMPI DUP1 PUSH4 0x6F20D2A8 EQ PUSH2 0xC13 JUMPI DUP1 PUSH4 0x7823E226 EQ PUSH2 0xBF5 JUMPI DUP1 PUSH4 0x8640F718 EQ PUSH2 0xBC6 JUMPI DUP1 PUSH4 0x8B640440 EQ PUSH2 0xB97 JUMPI DUP1 PUSH4 0x9498B081 EQ PUSH2 0xB0E JUMPI DUP1 PUSH4 0x9B1CB58E EQ PUSH2 0xAF0 JUMPI DUP1 PUSH4 0x9CD2CADC EQ PUSH2 0xAD2 JUMPI DUP1 PUSH4 0xAC923334 EQ PUSH2 0x6FE JUMPI DUP1 PUSH4 0xC9D27AFE EQ PUSH2 0x403 JUMPI DUP1 PUSH4 0xD2AA789F EQ PUSH2 0x3E5 JUMPI DUP1 PUSH4 0xD39686A7 EQ PUSH2 0x2C7 JUMPI DUP1 PUSH4 0xE99D966F EQ PUSH2 0x284 JUMPI DUP1 PUSH4 0xFC687C80 EQ PUSH2 0x220 JUMPI PUSH4 0xFE290423 EQ PUSH2 0x186 JUMPI PUSH0 DUP1 REVERT JUMPDEST CALLVALUE PUSH2 0x21D JUMPI PUSH1 0x20 CALLDATASIZE PUSH1 0x3 NOT ADD SLT PUSH2 0x21D JUMPI DUP2 CALLDATALOAD SWAP1 PUSH1 0x1 PUSH1 0x1 PUSH1 0x40 SHL SUB DUP3 GT PUSH2 0x21D JUMPI POP PUSH1 0x20 PUSH2 0x1BB PUSH2 0x1CE SWAP3 CALLDATASIZE SWAP1 DUP6 ADD PUSH2 0x209A JUMP JUMPDEST DUP2 PUSH1 0x40 MLOAD SWAP4 DUP3 DUP6 DUP1 SWAP5 MLOAD SWAP4 DUP5 SWAP3 ADD PUSH2 0x1FDF JUMP JUMPDEST DUP2 ADD PUSH1 0x1 DUP2 MSTORE SUB ADD SWAP1 KECCAK256 SWAP1 PUSH2 0x219 PUSH1 0x1 DUP1 PUSH1 0xA0 SHL SUB DUP4 SLOAD AND SWAP2 PUSH1 0x1 DUP5 ADD SLOAD SWAP4 PUSH1 0x2 DUP2 ADD SLOAD SWAP2 PUSH1 0x3 DUP3 ADD SLOAD SWAP1 DUP3 ADD SLOAD PUSH1 0x5 DUP4 ADD SLOAD SWAP2 PUSH1 0x7 PUSH1 0x6 DUP6 ADD SLOAD SWAP5 ADD SLOAD SWAP5 PUSH1 0x40 MLOAD SWAP9 DUP10 SWAP9 DUP10 PUSH2 0x22EE JUMP JUMPDEST SUB SWAP1 RETURN JUMPDEST DUP1 REVERT JUMPDEST POP CALLVALUE PUSH2 0x21D JUMPI PUSH1 0x20 CALLDATASIZE PUSH1 0x3 NOT ADD SLT PUSH2 0x21D JUMPI DUP2 CALLDATALOAD PUSH1 0x2 SLOAD DUP2 LT ISZERO PUSH2 0x280 JUMPI PUSH2 0x247 SWAP1 PUSH2 0x229C JUMP JUMPDEST SWAP3 SWAP1 SWAP3 PUSH2 0x26E JUMPI PUSH2 0x219 PUSH2 0x25A DUP5 PUSH2 0x1F3E JUMP JUMPDEST PUSH1 0x40 MLOAD SWAP2 DUP3 SWAP2 PUSH1 0x20 DUP4 MSTORE PUSH1 0x20 DUP4 ADD SWAP1 PUSH2 0x2000 JUMP JUMPDEST PUSH4 0x4E487B71 PUSH1 0xE0 SHL DUP3 MSTORE DUP2 SWAP1 MSTORE PUSH1 0x24 SWAP1 REVERT JUMPDEST POP DUP1 REVERT JUMPDEST POP SWAP1 CALLVALUE PUSH2 0x280 JUMPI PUSH1 0x2 PUSH2 0x2BA PUSH1 0x20 SWAP4 PUSH1 0xFF SWAP4 PUSH1 0x40 PUSH2 0x2A1 CALLDATASIZE PUSH2 0x225A JUMP JUMPDEST PUSH1 0x1 PUSH1 0x1 PUSH1 0xA0 SHL SUB SWAP1 SWAP2 AND DUP5 MSTORE DUP4 DUP9 MSTORE SWAP3 KECCAK256 ADD SWAP1 PUSH2 0x22C8 JUMP JUMPDEST ADD SLOAD AND PUSH1 0x40 MLOAD SWAP1 ISZERO ISZERO DUP2 MSTORE RETURN JUMPDEST POP SWAP1 CALLVALUE PUSH2 0x280 JUMPI PUSH1 0x20 SWAP2 DUP3 PUSH1 0x3 NOT CALLDATASIZE ADD SLT PUSH2 0x21D JUMPI DUP2 CALLDATALOAD SWAP1 PUSH1 0x1 PUSH1 0x1 PUSH1 0x40 SHL SUB DUP3 GT PUSH2 0x21D JUMPI POP PUSH2 0x2FB SWAP1 CALLDATASIZE SWAP1 DUP4 ADD PUSH2 0x209A JUMP JUMPDEST SWAP2 PUSH1 0x40 MLOAD SWAP2 DUP4 MLOAD SWAP3 DUP3 DUP6 ADD SWAP4 PUSH2 0x312 DUP2 DUP4 DUP8 PUSH2 0x1FDF JUMP JUMPDEST PUSH1 0x1 SWAP1 DUP3 ADD SWAP1 DUP2 MSTORE DUP2 SWAP1 SUB DUP4 ADD SWAP1 KECCAK256 SLOAD PUSH1 0x1 PUSH1 0x1 PUSH1 0xA0 SHL SUB AND ISZERO PUSH2 0x3A9 JUMPI POP PUSH1 0x60 SWAP3 PUSH1 0x3 PUSH2 0x38C DUP4 PUSH1 0x1 PUSH1 0x40 MLOAD DUP3 DUP2 DUP8 MLOAD PUSH2 0x34E DUP2 DUP4 DUP14 PUSH2 0x1FDF JUMP JUMPDEST DUP2 ADD DUP5 DUP2 MSTORE SUB ADD SWAP1 KECCAK256 ADD SLOAD SWAP6 PUSH1 0x2 PUSH1 0x40 MLOAD DUP4 DUP2 DUP9 MLOAD PUSH2 0x36E DUP2 DUP4 DUP9 PUSH2 0x1FDF JUMP JUMPDEST DUP2 ADD PUSH1 0x1 DUP2 MSTORE SUB ADD SWAP1 KECCAK256 ADD SLOAD SWAP5 PUSH1 0x40 MLOAD SWAP4 DUP5 SWAP3 DUP4 SWAP3 MLOAD SWAP3 DUP4 SWAP2 PUSH2 0x1FDF JUMP JUMPDEST DUP2 ADD PUSH1 0x1 DUP2 MSTORE SUB ADD SWAP1 KECCAK256 ADD SLOAD SWAP2 PUSH1 0x40 MLOAD SWAP4 DUP5 MSTORE DUP4 ADD MSTORE PUSH1 0x40 DUP3 ADD MSTORE RETURN JUMPDEST PUSH1 0x64 SWAP2 PUSH1 0x40 MLOAD SWAP2 PUSH3 0x461BCD PUSH1 0xE5 SHL DUP4 MSTORE DUP3 ADD MSTORE PUSH1 0x17 PUSH1 0x24 DUP3 ADD MSTORE PUSH23 0x14DD589A9958DD08111BD95CC8139BDD08115E1CDA5CDD PUSH1 0x4A SHL PUSH1 0x44 DUP3 ADD MSTORE REVERT JUMPDEST POP CALLVALUE PUSH2 0x21D JUMPI DUP1 PUSH1 0x3 NOT CALLDATASIZE ADD SLT PUSH2 0x21D JUMPI PUSH1 0x20 PUSH1 0xC SLOAD PUSH1 0x40 MLOAD SWAP1 DUP2 MSTORE RETURN JUMPDEST POP CALLVALUE PUSH2 0x21D JUMPI PUSH1 0x40 CALLDATASIZE PUSH1 0x3 NOT ADD SLT PUSH2 0x21D JUMPI DUP2 CALLDATALOAD PUSH1 0x24 SWAP1 DUP2 CALLDATALOAD DUP1 ISZERO ISZERO SWAP3 DUP4 DUP3 SUB PUSH2 0x6FA JUMPI DUP6 SLOAD DUP4 LT ISZERO PUSH2 0x6BC JUMPI DUP3 DUP6 MSTORE PUSH1 0x20 SWAP2 PUSH1 0x3 DUP4 MSTORE PUSH1 0x40 DUP7 KECCAK256 SWAP7 PUSH1 0x1 SWAP3 DUP4 PUSH1 0xFF PUSH1 0xF DUP12 ADD SLOAD AND ISZERO ISZERO SUB PUSH2 0x679 JUMPI SWAP1 DUP5 SWAP3 SWAP2 DUP9 PUSH2 0x48C DUP7 PUSH1 0xFF PUSH1 0x2 PUSH2 0x481 DUP16 PUSH1 0x40 DUP6 DUP11 SWAP3 ADD SWAP8 DUP1 PUSH2 0x474 DUP11 PUSH2 0x1F3E JUMP JUMPDEST SWAP14 CALLER DUP3 MSTORE MSTORE KECCAK256 ADD DUP11 PUSH2 0x22C8 JUMP JUMPDEST ADD SLOAD AND ISZERO ISZERO EQ PUSH2 0x24A4 JUMP JUMPDEST PUSH1 0xE DUP12 ADD SWAP5 CALLER PUSH0 MSTORE DUP6 DUP9 MSTORE PUSH1 0xFF PUSH1 0x40 PUSH0 KECCAK256 SLOAD AND PUSH2 0x63C JUMPI PUSH2 0x4B9 SWAP1 CALLER DUP13 MSTORE DUP12 DUP10 MSTORE DUP5 PUSH1 0x40 DUP14 KECCAK256 ADD SWAP1 PUSH2 0x22C8 JUMP JUMPDEST SLOAD PUSH1 0x5 PUSH1 0x40 MLOAD DUP10 DUP2 PUSH2 0x4CB DUP2 DUP8 PUSH2 0x25F8 JUMP JUMPDEST DUP12 DUP2 MSTORE SUB ADD SWAP1 KECCAK256 ADD SLOAD DUP2 LT PUSH2 0x5F9 JUMPI SWAP1 DUP8 SWAP2 PUSH1 0x6 PUSH1 0x40 MLOAD DUP5 DUP2 PUSH2 0x4EE DUP2 DUP8 PUSH2 0x25F8 JUMP JUMPDEST DUP13 DUP2 MSTORE SUB ADD SWAP1 KECCAK256 ADD SLOAD DUP2 GT ISZERO PUSH2 0x5F0 JUMPI POP PUSH1 0x6 SWAP2 PUSH2 0x512 SWAP2 PUSH1 0x40 MLOAD SWAP3 DUP4 DUP1 SWAP3 PUSH2 0x25F8 JUMP JUMPDEST DUP10 DUP2 MSTORE SUB ADD SWAP1 KECCAK256 ADD SLOAD SWAP3 JUMPDEST ISZERO PUSH2 0x59F JUMPI PUSH1 0xA DUP11 ADD SWAP1 DUP2 SLOAD SWAP3 DUP7 DUP5 ADD DUP1 SWAP5 GT PUSH2 0x58E JUMPI POP POP PUSH32 0xF2913DBE661EE2ACC4A046D8FBCDC792373BDA34C41C6086484B5345E5785E5F SWAP7 SWAP8 SWAP9 SWAP10 PUSH2 0x56C SWAP3 PUSH1 0xC SWAP3 SSTORE ADD SWAP2 DUP3 SLOAD PUSH2 0x25B1 JUMP JUMPDEST SWAP1 SSTORE JUMPDEST CALLER PUSH0 MSTORE DUP3 MSTORE PUSH1 0x40 PUSH0 KECCAK256 SWAP1 PUSH1 0xFF NOT DUP3 SLOAD AND OR SWAP1 SSTORE PUSH1 0x40 MLOAD SWAP4 DUP5 MSTORE CALLER SWAP4 LOG3 DUP1 RETURN JUMPDEST PUSH4 0x4E487B71 PUSH1 0xE0 SHL DUP12 MSTORE PUSH1 0x11 SWAP1 MSTORE DUP10 REVERT JUMPDEST PUSH1 0xB DUP11 ADD SWAP1 DUP2 SLOAD SWAP3 DUP7 DUP5 ADD DUP1 SWAP5 GT PUSH2 0x58E JUMPI POP POP PUSH32 0xF2913DBE661EE2ACC4A046D8FBCDC792373BDA34C41C6086484B5345E5785E5F SWAP7 SWAP8 SWAP9 SWAP10 PUSH2 0x5E9 SWAP3 PUSH1 0xD SWAP3 SSTORE ADD SWAP2 DUP3 SLOAD PUSH2 0x25B1 JUMP JUMPDEST SWAP1 SSTORE PUSH2 0x56F JUMP JUMPDEST SWAP2 POP POP SWAP3 PUSH2 0x51D JUMP JUMPDEST PUSH1 0x40 MLOAD PUSH3 0x461BCD PUSH1 0xE5 SHL DUP2 MSTORE DUP1 DUP6 ADD DUP10 SWAP1 MSTORE PUSH1 0x1B DUP2 DUP6 ADD MSTORE PUSH32 0x496E73756666696369656E7420637265647320746F20766F74652E0000000000 PUSH1 0x44 DUP3 ADD MSTORE PUSH1 0x64 SWAP1 REVERT JUMPDEST PUSH1 0x40 MLOAD PUSH3 0x461BCD PUSH1 0xE5 SHL DUP2 MSTORE DUP1 DUP6 ADD DUP10 SWAP1 MSTORE PUSH1 0x17 DUP2 DUP6 ADD MSTORE PUSH23 0x2CB7BA903430BB329030B63932B0B23C903B37BA32B217 PUSH1 0x49 SHL PUSH1 0x44 DUP3 ADD MSTORE PUSH1 0x64 SWAP1 REVERT JUMPDEST PUSH1 0x40 MLOAD PUSH3 0x461BCD PUSH1 0xE5 SHL DUP2 MSTORE SWAP2 DUP3 ADD DUP6 SWAP1 MSTORE PUSH1 0x1C SWAP1 DUP3 ADD MSTORE PUSH32 0x50726F706F73616C206973206E6F206C6F6E6765722041637469766500000000 PUSH1 0x44 DUP3 ADD MSTORE PUSH1 0x64 SWAP1 REVERT JUMPDEST DUP6 PUSH1 0x18 PUSH1 0x64 SWAP3 PUSH1 0x20 PUSH1 0x40 MLOAD SWAP4 PUSH3 0x461BCD PUSH1 0xE5 SHL DUP6 MSTORE DUP5 ADD MSTORE DUP3 ADD MSTORE PUSH24 0x283937B837B9B0B6103237B2B9903737BA1032BC34B9BA17 PUSH1 0x41 SHL PUSH1 0x44 DUP3 ADD MSTORE REVERT JUMPDEST DUP5 DUP1 REVERT JUMPDEST POP SWAP1 CALLVALUE PUSH2 0x280 JUMPI PUSH2 0x70E CALLDATASIZE PUSH2 0x2130 JUMP JUMPDEST SWAP3 PUSH1 0x40 SWAP7 SWAP6 SWAP5 SWAP7 SWAP3 SWAP2 SWAP3 MLOAD SWAP7 DUP9 MLOAD SWAP6 PUSH1 0x20 SWAP9 DUP10 DUP12 ADD SWAP8 PUSH2 0x72F DUP2 DUP4 DUP12 PUSH2 0x1FDF JUMP JUMPDEST PUSH1 0x1 SWAP1 DUP3 ADD DUP2 DUP2 MSTORE DUP3 SWAP1 SUB DUP12 ADD SWAP1 SWAP2 KECCAK256 SLOAD SWAP1 SWAP8 PUSH1 0x1 PUSH1 0x1 PUSH1 0xA0 SHL SUB SWAP2 DUP3 AND ISZERO PUSH2 0xA96 JUMPI DUP13 PUSH2 0x7A1 DUP16 DUP15 SWAP4 PUSH2 0x78E DUP16 SWAP3 PUSH1 0x40 DUP16 SWAP2 PUSH2 0x780 DUP9 SWAP4 CALLER DUP4 MSTORE DUP3 DUP9 MSTORE PUSH1 0xFF PUSH1 0x2 PUSH2 0x481 DUP14 DUP9 DUP9 DUP9 KECCAK256 ADD SWAP1 PUSH2 0x22C8 JUMP JUMPDEST CALLER DUP2 MSTORE DUP1 DUP7 MSTORE KECCAK256 ADD DUP7 PUSH2 0x22C8 JUMP JUMPDEST SLOAD SWAP5 PUSH1 0x40 MLOAD SWAP4 DUP5 SWAP3 DUP4 SWAP3 MLOAD SWAP3 DUP4 SWAP2 PUSH2 0x1FDF JUMP JUMPDEST DUP2 ADD DUP14 DUP2 MSTORE SUB ADD SWAP1 KECCAK256 ADD SLOAD GT PUSH2 0xA52 JUMPI DUP13 DUP13 DUP12 DUP4 PUSH1 0x5 SLOAD AND SWAP2 PUSH1 0x64 PUSH1 0x7 SLOAD SWAP2 DUP6 PUSH1 0x40 MLOAD SWAP6 DUP7 SWAP5 DUP6 SWAP4 PUSH4 0x23B872DD PUSH1 0xE0 SHL DUP6 MSTORE CALLER SWAP1 DUP6 ADD MSTORE ADDRESS PUSH1 0x24 DUP6 ADD MSTORE PUSH1 0x44 DUP5 ADD MSTORE GAS CALL SWAP2 DUP3 ISZERO PUSH2 0xA46 JUMPI SWAP2 PUSH2 0xA29 JUMPI JUMPDEST POP ISZERO PUSH2 0x9EF JUMPI DUP12 DUP11 DUP15 PUSH1 0xF DUP12 DUP16 PUSH2 0x826 SWAP1 DUP7 SLOAD DUP6 MSTORE PUSH1 0x3 DUP7 MSTORE PUSH1 0x40 DUP6 KECCAK256 SWAP3 CALLER PUSH1 0x1 DUP1 PUSH1 0xA0 SHL SUB NOT DUP6 SLOAD AND OR DUP5 SSTORE DUP4 ADD PUSH2 0x2343 JUMP JUMPDEST DUP14 PUSH1 0x2 DUP3 ADD SSTORE DUP7 PUSH1 0x3 DUP3 ADD SSTORE DUP8 DUP6 DUP3 ADD SSTORE DUP9 PUSH1 0x5 DUP3 ADD SSTORE DUP10 PUSH1 0x6 DUP3 ADD SSTORE DUP11 PUSH1 0x7 DUP3 ADD SSTORE DUP12 PUSH1 0x8 DUP3 ADD SSTORE TIMESTAMP PUSH1 0x9 DUP3 ADD SSTORE ADD DUP12 PUSH1 0xFF NOT DUP3 SLOAD AND OR SWAP1 SSTORE PUSH1 0x44 DUP5 PUSH1 0x5 SLOAD AND SWAP4 DUP6 PUSH1 0xB SLOAD AND SWAP3 PUSH1 0x7 SLOAD SWAP6 PUSH1 0x40 MLOAD SWAP7 DUP8 SWAP6 DUP7 SWAP5 PUSH4 0x95EA7B3 PUSH1 0xE0 SHL DUP7 MSTORE DUP6 ADD MSTORE PUSH1 0x24 DUP5 ADD MSTORE GAS CALL DUP1 ISZERO PUSH2 0x9E2 JUMPI PUSH2 0x9B5 JUMPI JUMPDEST POP PUSH1 0xA SLOAD AND DUP13 PUSH1 0xC SLOAD PUSH1 0x7 SLOAD SWAP3 DUP1 EXTCODESIZE ISZERO PUSH2 0x9B1 JUMPI DUP15 DUP4 PUSH1 0x44 SWAP3 PUSH1 0x40 MLOAD SWAP7 DUP8 SWAP6 DUP7 SWAP5 PUSH4 0x85F4525 PUSH1 0xE4 SHL DUP7 MSTORE DUP6 ADD MSTORE PUSH1 0x24 DUP5 ADD MSTORE GAS CALL DUP1 ISZERO PUSH2 0x9A6 JUMPI PUSH2 0x95C JUMPI JUMPDEST POP DUP11 PUSH2 0x906 PUSH32 0xD8F2DF2889333F1B8BCBF270D30B518ED0C9CC58CD18ED0E344783C0B3C02187 SWAP13 SLOAD PUSH2 0x25EA JUMP JUMPDEST SWAP1 SSTORE PUSH2 0x924 PUSH1 0x40 MLOAD SWAP11 DUP12 SWAP11 CALLER DUP13 MSTORE PUSH2 0x160 DUP1 SWAP2 DUP14 ADD MSTORE DUP12 ADD SWAP1 PUSH2 0x2000 JUMP JUMPDEST SWAP8 PUSH1 0x40 DUP11 ADD MSTORE PUSH1 0x60 DUP10 ADD MSTORE PUSH1 0x80 DUP9 ADD MSTORE PUSH1 0xA0 DUP8 ADD MSTORE PUSH1 0xC0 DUP7 ADD MSTORE PUSH1 0xE0 DUP6 ADD MSTORE PUSH2 0x100 DUP5 ADD MSTORE TIMESTAMP PUSH2 0x120 DUP5 ADD MSTORE PUSH2 0x140 DUP4 ADD MSTORE SUB SWAP1 LOG1 DUP1 RETURN JUMPDEST PUSH1 0x1 PUSH1 0x1 PUSH1 0x40 SHL SUB DUP2 GT PUSH2 0x993 JUMPI PUSH1 0x40 MSTORE PUSH32 0xD8F2DF2889333F1B8BCBF270D30B518ED0C9CC58CD18ED0E344783C0B3C02187 PUSH2 0x8D9 JUMP JUMPDEST PUSH4 0x4E487B71 PUSH1 0xE0 SHL DUP14 MSTORE PUSH1 0x41 DUP13 MSTORE PUSH1 0x24 DUP14 REVERT JUMPDEST PUSH1 0x40 MLOAD RETURNDATASIZE DUP16 DUP3 RETURNDATACOPY RETURNDATASIZE SWAP1 REVERT JUMPDEST DUP3 DUP1 REVERT JUMPDEST PUSH2 0x9D4 SWAP1 DUP12 RETURNDATASIZE DUP14 GT PUSH2 0x9DB JUMPI JUMPDEST PUSH2 0x9CC DUP2 DUP4 PUSH2 0x1F09 JUMP JUMPDEST DUP2 ADD SWAP1 PUSH2 0x25D2 JUMP JUMPDEST POP PUSH0 PUSH2 0x899 JUMP JUMPDEST POP RETURNDATASIZE PUSH2 0x9C2 JUMP JUMPDEST DUP15 PUSH1 0x40 MLOAD SWAP1 RETURNDATASIZE SWAP1 DUP3 RETURNDATACOPY RETURNDATASIZE SWAP1 REVERT JUMPDEST PUSH1 0x40 MLOAD PUSH3 0x461BCD PUSH1 0xE5 SHL DUP2 MSTORE DUP1 DUP14 ADD DUP12 SWAP1 MSTORE PUSH1 0x13 PUSH1 0x24 DUP3 ADD MSTORE PUSH19 0x119959481D1C985B9CD9995C8819985A5B1959 PUSH1 0x6A SHL PUSH1 0x44 DUP3 ADD MSTORE PUSH1 0x64 SWAP1 REVERT JUMPDEST PUSH2 0xA40 SWAP2 POP DUP12 RETURNDATASIZE DUP14 GT PUSH2 0x9DB JUMPI PUSH2 0x9CC DUP2 DUP4 PUSH2 0x1F09 JUMP JUMPDEST PUSH0 PUSH2 0x7F2 JUMP JUMPDEST PUSH1 0x40 MLOAD SWAP1 RETURNDATASIZE SWAP1 DUP3 RETURNDATACOPY RETURNDATASIZE SWAP1 REVERT JUMPDEST PUSH1 0x40 MLOAD PUSH3 0x461BCD PUSH1 0xE5 SHL DUP2 MSTORE DUP1 DUP14 ADD DUP12 SWAP1 MSTORE PUSH1 0x1E PUSH1 0x24 DUP3 ADD MSTORE PUSH32 0x496E73756666696369656E7420637265647320746F2070726F706F73652E0000 PUSH1 0x44 DUP3 ADD MSTORE PUSH1 0x64 SWAP1 REVERT JUMPDEST PUSH1 0x40 MLOAD PUSH3 0x461BCD PUSH1 0xE5 SHL DUP2 MSTORE DUP1 DUP15 ADD DUP13 SWAP1 MSTORE PUSH1 0x15 PUSH1 0x24 DUP3 ADD MSTORE PUSH21 0x14DD589A9958DD08191BD95CDB89DD08195E1A5CDD PUSH1 0x5A SHL PUSH1 0x44 DUP3 ADD MSTORE PUSH1 0x64 SWAP1 REVERT JUMPDEST POP CALLVALUE PUSH2 0x21D JUMPI DUP1 PUSH1 0x3 NOT CALLDATASIZE ADD SLT PUSH2 0x21D JUMPI PUSH1 0x20 PUSH1 0x9 SLOAD PUSH1 0x40 MLOAD SWAP1 DUP2 MSTORE RETURN JUMPDEST POP CALLVALUE PUSH2 0x21D JUMPI DUP1 PUSH1 0x3 NOT CALLDATASIZE ADD SLT PUSH2 0x21D JUMPI PUSH1 0x20 PUSH1 0x8 SLOAD PUSH1 0x40 MLOAD SWAP1 DUP2 MSTORE RETURN JUMPDEST POP SWAP1 CALLVALUE PUSH2 0x280 JUMPI PUSH1 0x60 CALLDATASIZE PUSH1 0x3 NOT ADD SLT PUSH2 0x280 JUMPI PUSH1 0x24 CALLDATALOAD PUSH1 0x1 PUSH1 0x1 PUSH1 0xA0 SHL SUB DUP2 DUP2 AND SWAP2 DUP3 SWAP1 SUB PUSH2 0xB93 JUMPI PUSH1 0x44 CALLDATALOAD SWAP2 PUSH1 0x1 PUSH1 0x1 PUSH1 0x40 SHL SUB DUP4 GT PUSH2 0x6FA JUMPI PUSH2 0xB68 PUSH2 0xB5C PUSH2 0xB8F SWAP5 CALLDATASIZE SWAP1 DUP8 ADD PUSH2 0x209A JUMP JUMPDEST SWAP3 PUSH1 0x6 SLOAD AND CALLER EQ PUSH2 0x2677 JUMP JUMPDEST PUSH2 0xB7B PUSH1 0x1 PUSH1 0xFF PUSH1 0xD SLOAD AND ISZERO ISZERO EQ PUSH2 0x2710 JUMP JUMPDEST DUP5 MSTORE DUP4 PUSH1 0x20 MSTORE DUP3 CALLDATALOAD SWAP3 PUSH1 0x40 DUP6 KECCAK256 ADD SWAP1 PUSH2 0x22C8 JUMP JUMPDEST SSTORE DUP1 RETURN JUMPDEST DUP4 DUP1 REVERT JUMPDEST POP SWAP1 CALLVALUE PUSH2 0x280 JUMPI PUSH1 0x20 CALLDATASIZE PUSH1 0x3 NOT ADD SLT PUSH2 0x280 JUMPI PUSH2 0xBBF PUSH1 0x1 DUP1 PUSH1 0xA0 SHL SUB PUSH1 0x6 SLOAD AND CALLER EQ PUSH2 0x2677 JUMP JUMPDEST DUP1 CALLDATALOAD SWAP1 SSTORE DUP1 RETURN JUMPDEST POP SWAP1 CALLVALUE PUSH2 0x280 JUMPI PUSH1 0x20 CALLDATASIZE PUSH1 0x3 NOT ADD SLT PUSH2 0x280 JUMPI PUSH2 0xBEE PUSH1 0x1 DUP1 PUSH1 0xA0 SHL SUB PUSH1 0x6 SLOAD AND CALLER EQ PUSH2 0x2677 JUMP JUMPDEST CALLDATALOAD PUSH1 0x8 SSTORE DUP1 RETURN JUMPDEST POP CALLVALUE PUSH2 0x21D JUMPI DUP1 PUSH1 0x3 NOT CALLDATASIZE ADD SLT PUSH2 0x21D JUMPI PUSH1 0x20 PUSH1 0x7 SLOAD PUSH1 0x40 MLOAD SWAP1 DUP2 MSTORE RETURN JUMPDEST POP SWAP1 CALLVALUE PUSH2 0x280 JUMPI PUSH1 0x20 SWAP1 DUP2 PUSH1 0x3 NOT CALLDATASIZE ADD SLT PUSH2 0x9B1 JUMPI DUP1 CALLDATALOAD PUSH1 0x1 PUSH1 0x1 PUSH1 0x40 SHL SUB DUP2 GT PUSH2 0xB93 JUMPI PUSH2 0xC45 SWAP1 CALLDATASIZE SWAP1 DUP4 ADD PUSH2 0x209A JUMP JUMPDEST SWAP2 PUSH2 0xC7B PUSH1 0x40 MLOAD DUP5 MLOAD PUSH2 0xC5B DUP2 DUP4 DUP7 DUP10 ADD PUSH2 0x1FDF JUMP JUMPDEST PUSH1 0x1 SWAP1 DUP3 ADD SWAP1 DUP2 MSTORE DUP2 SWAP1 SUB DUP4 ADD SWAP1 KECCAK256 SLOAD PUSH1 0x1 PUSH1 0x1 PUSH1 0xA0 SHL SUB AND ISZERO ISZERO PUSH2 0x245F JUMP JUMPDEST CALLER DUP5 MSTORE DUP4 DUP2 MSTORE PUSH1 0x1 PUSH1 0xFF PUSH1 0x2 PUSH2 0xC96 DUP6 PUSH1 0x40 DUP10 KECCAK256 ADD DUP8 PUSH2 0x22C8 JUMP JUMPDEST ADD SLOAD AND ISZERO ISZERO EQ PUSH2 0xCF4 JUMPI PUSH1 0x2 SWAP2 DUP5 PUSH2 0xCB7 SWAP3 CALLER DUP3 MSTORE MSTORE PUSH1 0x40 DUP6 KECCAK256 ADD DUP4 PUSH2 0x22C8 JUMP JUMPDEST ADD PUSH1 0x1 PUSH1 0xFF NOT DUP3 SLOAD AND OR SWAP1 SSTORE PUSH2 0xCCD CALLER SWAP2 PUSH2 0x243F JUMP JUMPDEST PUSH32 0xBDFA00028AA6C888A03528A2075EA227B56F2F5182DCF6691BC7C5E37220B289 DUP4 DUP1 LOG3 DUP1 RETURN JUMPDEST PUSH1 0x40 MLOAD PUSH3 0x461BCD PUSH1 0xE5 SHL DUP2 MSTORE SWAP2 DUP3 ADD MSTORE PUSH1 0x2C PUSH1 0x24 DUP3 ADD MSTORE PUSH32 0x596F752061726520616C7265616479206120726576696577657220666F722074 PUSH1 0x44 DUP3 ADD MSTORE PUSH12 0x3434B99039BAB13532B1BA17 PUSH1 0xA1 SHL PUSH1 0x64 DUP3 ADD MSTORE PUSH1 0x84 SWAP2 POP REVERT JUMPDEST POP SWAP1 CALLVALUE PUSH2 0x280 JUMPI PUSH1 0x20 CALLDATASIZE PUSH1 0x3 NOT ADD SLT PUSH2 0x280 JUMPI PUSH2 0xD74 PUSH1 0x1 DUP1 PUSH1 0xA0 SHL SUB PUSH1 0x6 SLOAD AND CALLER EQ PUSH2 0x2677 JUMP JUMPDEST CALLDATALOAD PUSH1 0x7 SSTORE DUP1 RETURN JUMPDEST POP CALLVALUE PUSH2 0x21D JUMPI PUSH1 0x40 CALLDATASIZE PUSH1 0x3 NOT ADD SLT PUSH2 0x21D JUMPI PUSH1 0xA0 SWAP1 PUSH2 0xD98 PUSH2 0x2025 JUMP JUMPDEST SWAP1 PUSH1 0x24 CALLDATALOAD DUP2 MSTORE PUSH1 0x3 PUSH1 0x20 MSTORE PUSH1 0x40 DUP2 KECCAK256 SWAP2 PUSH1 0xA DUP4 ADD SLOAD SWAP3 PUSH1 0xFF PUSH1 0x40 PUSH1 0xC DUP4 ADD SLOAD SWAP5 PUSH1 0xE PUSH1 0xB DUP6 ADD SLOAD SWAP5 PUSH1 0xD DUP2 ADD SLOAD SWAP7 PUSH1 0x1 DUP1 DUP13 SHL SUB AND DUP4 MSTORE ADD PUSH1 0x20 MSTORE KECCAK256 SLOAD AND SWAP3 PUSH1 0x40 MLOAD SWAP5 DUP6 MSTORE PUSH1 0x20 DUP6 ADD MSTORE PUSH1 0x40 DUP5 ADD MSTORE PUSH1 0x60 DUP4 ADD MSTORE ISZERO ISZERO PUSH1 0x80 DUP3 ADD MSTORE RETURN JUMPDEST POP SWAP1 CALLVALUE PUSH2 0x280 JUMPI PUSH1 0x20 CALLDATASIZE PUSH1 0x3 NOT ADD SLT PUSH2 0x280 JUMPI DUP1 CALLDATALOAD PUSH1 0x1 PUSH1 0x1 PUSH1 0x40 SHL SUB DUP2 GT PUSH2 0x9B1 JUMPI PUSH2 0xE9A PUSH2 0xE2A PUSH1 0x2 SWAP3 CALLDATASIZE SWAP1 DUP6 ADD PUSH2 0x209A JUMP JUMPDEST SWAP3 PUSH2 0xE62 PUSH1 0x40 MLOAD DUP6 MLOAD PUSH2 0xE41 DUP2 DUP4 PUSH1 0x20 DUP11 ADD PUSH2 0x1FDF JUMP JUMPDEST PUSH1 0x1 SWAP1 DUP3 ADD SWAP1 DUP2 MSTORE DUP2 SWAP1 SUB PUSH1 0x20 ADD SWAP1 KECCAK256 SLOAD PUSH1 0x1 PUSH1 0x1 PUSH1 0xA0 SHL SUB AND ISZERO ISZERO PUSH2 0x245F JUMP JUMPDEST CALLER DUP6 MSTORE DUP5 PUSH1 0x20 MSTORE PUSH2 0xE88 PUSH1 0xFF DUP5 PUSH2 0xE7E DUP5 PUSH1 0x40 DUP11 KECCAK256 ADD DUP9 PUSH2 0x22C8 JUMP JUMPDEST ADD SLOAD AND ISZERO ISZERO PUSH2 0x24A4 JUMP JUMPDEST CALLER DUP6 MSTORE DUP5 PUSH1 0x20 MSTORE PUSH1 0x40 DUP6 KECCAK256 ADD DUP4 PUSH2 0x22C8 JUMP JUMPDEST ADD PUSH1 0xFF NOT DUP2 SLOAD AND SWAP1 SSTORE PUSH2 0xEAD CALLER SWAP2 PUSH2 0x243F JUMP JUMPDEST PUSH32 0xFFCF81133AEC081F5D14DBFF5C602986674612EC939E52E1960BAEEDF3BC5332 DUP4 DUP1 LOG3 DUP1 RETURN JUMPDEST POP CALLVALUE PUSH2 0x21D JUMPI PUSH1 0x20 CALLDATASIZE PUSH1 0x3 NOT ADD SLT PUSH2 0x21D JUMPI PUSH2 0xEEE PUSH2 0x2025 JUMP JUMPDEST PUSH1 0x6 SLOAD PUSH1 0x1 PUSH1 0x1 PUSH1 0xA0 SHL SUB SWAP2 SWAP1 PUSH2 0xF08 SWAP1 DUP4 AND CALLER EQ PUSH2 0x2677 JUMP JUMPDEST AND PUSH1 0x1 DUP1 PUSH1 0xA0 SHL SUB NOT DUP2 DUP2 PUSH1 0xA SLOAD AND OR PUSH1 0xA SSTORE PUSH1 0xB SLOAD AND OR PUSH1 0xB SSTORE DUP1 RETURN JUMPDEST POP CALLVALUE PUSH2 0x21D JUMPI PUSH2 0xF35 CALLDATASIZE PUSH2 0x2211 JUMP JUMPDEST POP POP PUSH1 0x9 SLOAD DUP2 MSTORE PUSH1 0x20 SWAP1 PUSH1 0x3 DUP3 MSTORE PUSH2 0xF57 PUSH1 0x9 PUSH1 0x40 DUP4 KECCAK256 ADD SLOAD PUSH1 0x8 SLOAD SWAP1 PUSH2 0x25B1 JUMP JUMPDEST TIMESTAMP GT PUSH1 0x40 MLOAD SWAP3 DUP4 SWAP2 DUP3 MSTORE PUSH1 0x40 DUP2 DUP4 ADD MSTORE PUSH1 0x60 SWAP3 DUP4 MLOAD SWAP2 DUP3 PUSH1 0x40 DUP6 ADD MSTORE DUP2 JUMPDEST DUP4 DUP2 LT PUSH2 0xF92 JUMPI POP POP DUP3 DUP3 ADD DUP5 ADD MSTORE PUSH1 0x1F ADD PUSH1 0x1F NOT AND DUP2 ADD SUB ADD SWAP1 RETURN JUMPDEST PUSH1 0x80 DUP2 ADD MLOAD DUP8 DUP3 ADD DUP8 ADD MSTORE DUP7 SWAP5 POP DUP2 ADD PUSH2 0xF75 JUMP JUMPDEST POP SWAP1 CALLVALUE PUSH2 0x280 JUMPI PUSH1 0x20 CALLDATASIZE PUSH1 0x3 NOT ADD SLT PUSH2 0x280 JUMPI PUSH1 0x40 DUP1 SWAP3 PUSH1 0xF SWAP3 CALLDATALOAD DUP2 MSTORE PUSH1 0x3 PUSH1 0x20 MSTORE KECCAK256 ADD SLOAD PUSH1 0xFF DUP3 MLOAD SWAP2 DUP2 DUP2 AND ISZERO ISZERO DUP4 MSTORE PUSH1 0x8 SHR AND ISZERO ISZERO PUSH1 0x20 DUP3 ADD MSTORE RETURN JUMPDEST POP SWAP1 CALLVALUE PUSH2 0x280 JUMPI PUSH2 0xFF5 CALLDATASIZE PUSH2 0x225A JUMP JUMPDEST SWAP3 SWAP1 PUSH1 0x1 DUP1 PUSH1 0xA0 SHL SUB AND DUP1 DUP3 MSTORE DUP2 PUSH1 0x20 MSTORE PUSH1 0x1 PUSH1 0xFF PUSH1 0x2 PUSH2 0x101B DUP7 PUSH1 0x40 DUP8 KECCAK256 ADD DUP9 PUSH2 0x22C8 JUMP JUMPDEST ADD SLOAD AND ISZERO ISZERO SUB PUSH2 0x1046 JUMPI SWAP2 PUSH1 0x40 DUP3 PUSH2 0x103D SWAP5 PUSH1 0x20 SWAP7 SWAP5 MSTORE DUP1 DUP7 MSTORE KECCAK256 ADD SWAP1 PUSH2 0x22C8 JUMP JUMPDEST SLOAD PUSH1 0x40 MLOAD SWAP1 DUP2 MSTORE RETURN JUMPDEST PUSH1 0x40 MLOAD PUSH3 0x461BCD PUSH1 0xE5 SHL DUP2 MSTORE PUSH1 0x20 DUP2 DUP6 ADD MSTORE PUSH1 0x29 PUSH1 0x24 DUP3 ADD MSTORE PUSH32 0x526576696577657220446F6573204E6F742045787369737420466F7220746869 PUSH1 0x44 DUP3 ADD MSTORE PUSH9 0x1CC81CDD589A9958DD PUSH1 0xBA SHL PUSH1 0x64 DUP3 ADD MSTORE PUSH1 0x84 SWAP1 REVERT JUMPDEST POP CALLVALUE PUSH2 0x21D JUMPI PUSH2 0x10AB CALLDATASIZE PUSH2 0x20EF JUMP JUMPDEST SWAP1 PUSH1 0x40 MLOAD DUP2 MLOAD SWAP1 PUSH1 0x20 SWAP2 PUSH2 0x10C2 DUP2 DUP4 DUP6 DUP8 ADD PUSH2 0x1FDF JUMP JUMPDEST PUSH1 0x1 SWAP1 DUP3 ADD DUP2 DUP2 MSTORE DUP3 SWAP1 SUB DUP4 ADD SWAP1 SWAP2 KECCAK256 SLOAD SWAP1 SWAP4 PUSH1 0x1 PUSH1 0x1 PUSH1 0xA0 SHL SUB SWAP2 PUSH2 0x10EB SWAP1 DUP4 AND ISZERO ISZERO PUSH2 0x245F JUMP JUMPDEST CALLER DUP7 MSTORE DUP6 DUP4 MSTORE PUSH2 0x1108 DUP6 PUSH1 0xFF PUSH1 0x2 PUSH2 0x481 DUP12 PUSH1 0x40 DUP13 KECCAK256 ADD DUP10 PUSH2 0x22C8 JUMP JUMPDEST AND SWAP3 DUP4 DUP6 MSTORE DUP5 DUP3 MSTORE PUSH2 0x1132 DUP2 PUSH1 0xFF PUSH1 0x2 PUSH2 0x1127 DUP11 PUSH1 0x40 DUP12 KECCAK256 ADD DUP9 PUSH2 0x22C8 JUMP JUMPDEST ADD SLOAD AND ISZERO ISZERO EQ PUSH2 0x2501 JUMP JUMPDEST PUSH2 0x113E DUP5 CALLER EQ ISZERO PUSH2 0x2565 JUMP JUMPDEST DUP4 DUP6 MSTORE DUP5 DUP3 MSTORE DUP1 PUSH2 0x1154 DUP8 PUSH1 0x40 DUP9 KECCAK256 ADD DUP6 PUSH2 0x22C8 JUMP JUMPDEST ADD CALLER DUP7 MSTORE DUP3 MSTORE PUSH1 0xFF PUSH1 0x40 DUP7 KECCAK256 SLOAD AND PUSH2 0x1215 JUMPI DUP4 DUP6 MSTORE DUP5 DUP3 MSTORE PUSH2 0x117B DUP7 PUSH1 0x40 DUP8 KECCAK256 ADD DUP5 PUSH2 0x22C8 JUMP JUMPDEST DUP1 SLOAD SWAP1 DUP3 DUP3 ADD DUP1 SWAP3 GT PUSH2 0x1202 JUMPI DUP8 PUSH32 0xF40892AF1CEF89C48077C1923285CAC4D53FC49E28D7D981F0CD804B25704010 SWAP5 SWAP4 PUSH2 0x11F7 SWAP4 PUSH2 0x11F0 SWAP4 SSTORE DUP8 DUP10 MSTORE DUP9 DUP6 MSTORE DUP1 PUSH2 0x11CB DUP4 PUSH1 0x40 DUP13 KECCAK256 ADD DUP10 PUSH2 0x22C8 JUMP JUMPDEST ADD CALLER DUP11 MSTORE DUP6 MSTORE PUSH1 0x40 DUP10 KECCAK256 SWAP1 PUSH1 0xFF NOT DUP3 SLOAD AND OR SWAP1 SSTORE DUP7 DUP9 MSTORE DUP8 DUP5 MSTORE PUSH1 0x40 DUP9 KECCAK256 ADD DUP6 PUSH2 0x22C8 JUMP JUMPDEST SLOAD SWAP4 PUSH2 0x243F JUMP JUMPDEST SWAP3 PUSH1 0x40 MLOAD SWAP1 DUP2 MSTORE LOG3 DUP1 RETURN JUMPDEST PUSH4 0x4E487B71 PUSH1 0xE0 SHL DUP8 MSTORE PUSH1 0x11 DUP9 MSTORE PUSH1 0x24 DUP8 REVERT JUMPDEST PUSH1 0x40 MLOAD PUSH3 0x461BCD PUSH1 0xE5 SHL DUP2 MSTORE DUP1 DUP8 ADD DUP4 SWAP1 MSTORE PUSH1 0x2D PUSH1 0x24 DUP3 ADD MSTORE PUSH32 0x596F7527766520616C726561647920676976656E2061206372656420746F2074 PUSH1 0x44 DUP3 ADD MSTORE PUSH13 0x3434B9903932BB34B2BBB2B917 PUSH1 0x99 SHL PUSH1 0x64 DUP3 ADD MSTORE PUSH1 0x84 SWAP1 REVERT JUMPDEST POP SWAP1 CALLVALUE PUSH2 0x280 JUMPI PUSH1 0x20 CALLDATASIZE PUSH1 0x3 NOT ADD SLT PUSH2 0x280 JUMPI PUSH2 0x1297 PUSH1 0x1 DUP1 PUSH1 0xA0 SHL SUB PUSH1 0x6 SLOAD AND CALLER EQ PUSH2 0x2677 JUMP JUMPDEST CALLDATALOAD PUSH1 0xC SSTORE DUP1 RETURN JUMPDEST POP SWAP1 CALLVALUE PUSH2 0x280 JUMPI PUSH2 0x12AE CALLDATASIZE PUSH2 0x2211 JUMP JUMPDEST POP POP PUSH1 0x9 SWAP1 DUP2 SLOAD DUP1 DUP5 MSTORE PUSH1 0x3 SWAP2 PUSH1 0x20 SWAP2 DUP4 DUP4 MSTORE PUSH2 0x12D4 DUP6 PUSH1 0x40 DUP9 KECCAK256 ADD SLOAD PUSH1 0x8 SLOAD SWAP1 PUSH2 0x25B1 JUMP JUMPDEST TIMESTAMP GT PUSH2 0x12DE JUMPI DUP6 DUP1 RETURN JUMPDEST DUP1 DUP7 MSTORE DUP4 DUP4 MSTORE PUSH1 0x40 DUP7 KECCAK256 SWAP1 PUSH1 0xA DUP3 ADD SLOAD PUSH1 0xB DUP4 ADD SLOAD DUP1 DUP3 GT SWAP2 DUP3 PUSH2 0x14F5 JUMPI JUMPDEST DUP3 PUSH2 0x14C4 JUMPI JUMPDEST POP POP ISZERO PUSH2 0x1477 JUMPI POP PUSH1 0x1 DUP2 ADD PUSH1 0x40 MLOAD DUP5 DUP2 PUSH2 0x131E DUP2 DUP6 PUSH2 0x25F8 JUMP JUMPDEST PUSH1 0x1 DUP2 MSTORE SUB ADD SWAP1 KECCAK256 SWAP2 PUSH1 0x2 DUP2 ADD SLOAD SWAP4 PUSH1 0x1 DUP5 ADD SWAP5 DUP6 SSTORE DUP7 DUP3 ADD SLOAD SWAP2 PUSH1 0x2 DUP6 ADD SWAP3 DUP4 SSTORE DUP2 DUP2 ADD SLOAD SWAP2 DUP9 DUP7 ADD SWAP3 DUP4 SSTORE PUSH1 0x5 DUP3 ADD SLOAD SWAP1 DUP7 ADD SWAP1 DUP2 SSTORE PUSH1 0x6 DUP3 ADD SLOAD SWAP1 PUSH1 0x5 DUP8 ADD SWAP2 DUP3 SSTORE PUSH1 0x7 DUP4 ADD SLOAD SWAP3 PUSH1 0x6 DUP9 ADD SWAP4 DUP5 SSTORE PUSH1 0x8 ADD SLOAD SWAP4 PUSH1 0x7 DUP9 ADD SWAP5 DUP6 SSTORE DUP12 SLOAD DUP14 MSTORE DUP11 DUP11 MSTORE PUSH1 0x40 DUP14 KECCAK256 PUSH1 0xF ADD SWAP6 PUSH2 0x100 SWAP7 DUP8 PUSH2 0xFF00 NOT DUP3 SLOAD AND OR SWAP1 SSTORE DUP13 SLOAD SWAP9 PUSH1 0x40 MLOAD DUP11 DUP2 MSTORE DUP13 DUP2 ADD PUSH1 0x1 SWAP1 MSTORE PUSH1 0x40 PUSH32 0x35BAAEC8D9C9DA1C77F27119243A4384B49EAE2BF0680AA0EEBE3B62D28574A5 SWAP2 LOG1 PUSH1 0x1 PUSH1 0xA0 SHL PUSH1 0x1 SWAP1 SUB SWAP1 SLOAD AND SWAP10 SLOAD SWAP1 SLOAD SWAP2 SLOAD SWAP3 SLOAD SWAP4 SLOAD SWAP5 SLOAD SWAP6 SLOAD SWAP8 PUSH1 0x40 MLOAD PUSH2 0x13F8 DUP2 DUP1 SWAP4 PUSH2 0x25F8 JUMP JUMPDEST SUB SWAP1 KECCAK256 SWAP10 PUSH1 0x40 MLOAD SWAP10 DUP11 MSTORE DUP12 DUP11 ADD MSTORE PUSH1 0x40 DUP10 ADD MSTORE PUSH1 0x60 DUP9 ADD MSTORE PUSH1 0x80 DUP8 ADD MSTORE PUSH1 0xA0 DUP7 ADD MSTORE PUSH1 0xC0 DUP6 ADD MSTORE PUSH1 0xE0 DUP5 ADD MSTORE DUP3 ADD MSTORE PUSH2 0x120 PUSH32 0x4164D6164D0BB5E68F8E3D0E7F0FE94553672F89041253B9BE3A2DD4B24A11E4 SWAP2 LOG2 JUMPDEST DUP3 SLOAD DUP5 MSTORE MSTORE PUSH1 0xF PUSH1 0x40 DUP4 KECCAK256 ADD PUSH1 0xFF NOT DUP2 SLOAD AND SWAP1 SSTORE PUSH2 0x146C DUP2 SLOAD PUSH2 0x25EA JUMP JUMPDEST SWAP1 SSTORE PUSH0 DUP1 DUP1 DUP1 DUP1 DUP6 DUP1 RETURN JUMPDEST SWAP2 POP POP DUP5 MSTORE DUP2 DUP2 MSTORE PUSH1 0xF PUSH1 0x40 DUP6 KECCAK256 ADD PUSH2 0xFF00 NOT DUP2 SLOAD AND SWAP1 SSTORE PUSH32 0x35BAAEC8D9C9DA1C77F27119243A4384B49EAE2BF0680AA0EEBE3B62D28574A5 PUSH1 0x40 DUP5 SLOAD DUP2 MLOAD SWAP1 DUP2 MSTORE DUP7 DUP5 DUP3 ADD MSTORE LOG1 PUSH2 0x144E JUMP JUMPDEST PUSH2 0x14CE SWAP3 POP PUSH2 0x25B1 JUMP JUMPDEST PUSH1 0x7 PUSH1 0x40 MLOAD DUP7 DUP2 PUSH2 0x14E2 DUP2 PUSH1 0x1 DUP10 ADD PUSH2 0x25F8 JUMP JUMPDEST PUSH1 0x1 DUP2 MSTORE SUB ADD SWAP1 KECCAK256 ADD SLOAD GT ISZERO PUSH0 DUP1 PUSH2 0x1303 JUMP JUMPDEST SWAP2 POP PUSH1 0xC DUP5 ADD SLOAD PUSH1 0xD DUP6 ADD SLOAD LT DUP1 ISZERO PUSH2 0x150F JUMPI JUMPDEST SWAP2 PUSH2 0x12FD JUMP JUMPDEST POP PUSH1 0x6 PUSH1 0x40 MLOAD DUP8 DUP2 PUSH2 0x1524 DUP2 PUSH1 0x1 DUP11 ADD PUSH2 0x25F8 JUMP JUMPDEST PUSH1 0x1 DUP2 MSTORE SUB ADD SWAP1 KECCAK256 ADD SLOAD ISZERO PUSH2 0x1509 JUMP JUMPDEST POP CALLVALUE PUSH2 0x21D JUMPI DUP1 PUSH1 0x3 NOT CALLDATASIZE ADD SLT PUSH2 0x21D JUMPI PUSH1 0xA SLOAD PUSH1 0x40 MLOAD PUSH1 0x1 PUSH1 0x1 PUSH1 0xA0 SHL SUB SWAP1 SWAP2 AND DUP2 MSTORE PUSH1 0x20 SWAP1 RETURN JUMPDEST POP SWAP1 CALLVALUE PUSH2 0x280 JUMPI PUSH1 0x60 CALLDATASIZE PUSH1 0x3 NOT ADD SLT PUSH2 0x280 JUMPI PUSH2 0x1578 PUSH2 0x2025 JUMP JUMPDEST SWAP1 PUSH1 0x24 CALLDATALOAD PUSH1 0x1 PUSH1 0x1 PUSH1 0x40 SHL SUB DUP2 GT PUSH2 0xB93 JUMPI PUSH2 0x1597 SWAP1 CALLDATASIZE SWAP1 DUP4 ADD PUSH2 0x209A JUMP JUMPDEST PUSH1 0x1 PUSH1 0x1 PUSH1 0xA0 SHL SUB PUSH1 0x44 CALLDATALOAD DUP2 DUP2 AND SWAP5 SWAP3 SWAP4 SWAP3 SWAP1 DUP6 SWAP1 SUB PUSH2 0x15E5 JUMPI PUSH2 0x15D2 PUSH1 0x40 SWAP5 PUSH1 0x20 SWAP8 SWAP5 PUSH1 0xFF SWAP8 SWAP5 PUSH1 0x1 SWAP5 AND DUP7 MSTORE DUP6 DUP10 MSTORE DUP7 DUP7 KECCAK256 ADD SWAP1 PUSH2 0x22C8 JUMP JUMPDEST ADD SWAP1 DUP3 MSTORE DUP5 MSTORE KECCAK256 SLOAD AND PUSH1 0x40 MLOAD SWAP1 ISZERO ISZERO DUP2 MSTORE RETURN JUMPDEST DUP6 DUP1 REVERT JUMPDEST POP SWAP1 CALLVALUE PUSH2 0x280 JUMPI PUSH1 0x80 CALLDATASIZE PUSH1 0x3 NOT ADD SLT PUSH2 0x280 JUMPI PUSH1 0x1 PUSH1 0x1 PUSH1 0x40 SHL SUB DUP2 CALLDATALOAD DUP2 DUP2 GT PUSH2 0xB93 JUMPI PUSH2 0x161A SWAP1 CALLDATASIZE SWAP1 DUP5 ADD PUSH2 0x209A JUMP JUMPDEST SWAP1 PUSH1 0x24 CALLDATALOAD DUP2 DUP2 GT PUSH2 0x6FA JUMPI PUSH2 0x1632 SWAP1 CALLDATASIZE SWAP1 DUP6 ADD PUSH2 0x209A JUMP JUMPDEST PUSH1 0x44 CALLDATALOAD DUP3 DUP2 GT PUSH2 0x15E5 JUMPI PUSH2 0x1649 SWAP1 CALLDATASIZE SWAP1 DUP7 ADD PUSH2 0x2191 JUMP JUMPDEST SWAP2 PUSH1 0x64 CALLDATALOAD SWAP1 DUP2 GT PUSH2 0x15E5 JUMPI PUSH2 0x1661 SWAP1 CALLDATASIZE SWAP1 DUP7 ADD PUSH2 0x2191 JUMP JUMPDEST SWAP3 CALLER DUP7 MSTORE PUSH1 0x20 SWAP5 DUP7 DUP7 MSTORE PUSH2 0x1678 DUP3 PUSH1 0x40 DUP10 KECCAK256 PUSH2 0x2343 JUMP JUMPDEST CALLER DUP8 MSTORE DUP7 DUP7 MSTORE PUSH1 0x1 SWAP1 PUSH2 0x1690 DUP5 DUP4 PUSH1 0x40 DUP12 KECCAK256 ADD PUSH2 0x2343 JUMP JUMPDEST CALLER DUP9 MSTORE DUP8 DUP8 MSTORE PUSH1 0x40 DUP9 KECCAK256 DUP6 MLOAD PUSH1 0x1 PUSH1 0x40 SHL SWAP3 SWAP2 PUSH1 0x2 ADD DUP4 DUP3 GT PUSH2 0x18B9 JUMPI DUP1 SLOAD DUP3 DUP3 SSTORE DUP1 DUP4 LT PUSH2 0x1844 JUMPI JUMPDEST POP DUP11 MSTORE DUP9 DUP11 KECCAK256 DUP11 SWAP1 DUP6 DUP10 DUP13 ADD JUMPDEST DUP13 DUP6 DUP6 LT PUSH2 0x1829 JUMPI POP POP POP POP POP POP CALLER DUP10 MSTORE DUP9 DUP9 MSTORE PUSH1 0x3 PUSH1 0x40 DUP11 KECCAK256 ADD SWAP1 DUP8 MLOAD SWAP3 DUP4 GT PUSH2 0x1816 JUMPI POP DUP1 SLOAD DUP3 DUP3 SSTORE DUP1 DUP4 LT PUSH2 0x17A4 JUMPI JUMPDEST POP DUP9 MSTORE DUP7 DUP9 KECCAK256 DUP9 SWAP1 DUP8 DUP10 ADD JUMPDEST DUP4 DUP4 LT PUSH2 0x1789 JUMPI POP DUP10 PUSH32 0x627DDA018EB8C1473E432FA4A06937EF8127AC6112D8D9F7DD1175F81D394EDE PUSH1 0xA0 DUP12 PUSH2 0x1783 DUP13 PUSH2 0x1775 DUP14 PUSH2 0x1767 DUP15 PUSH2 0x1759 DUP16 PUSH1 0x40 MLOAD SWAP10 DUP11 SWAP10 CALLER DUP12 MSTORE DUP11 ADD MSTORE PUSH1 0xA0 DUP10 ADD SWAP1 PUSH2 0x2000 JUMP JUMPDEST SWAP1 DUP8 DUP3 SUB PUSH1 0x40 DUP10 ADD MSTORE PUSH2 0x2000 JUMP JUMPDEST SWAP1 DUP6 DUP3 SUB PUSH1 0x60 DUP8 ADD MSTORE PUSH2 0x203F JUMP JUMPDEST SWAP1 DUP4 DUP3 SUB PUSH1 0x80 DUP6 ADD MSTORE PUSH2 0x203F JUMP JUMPDEST SUB SWAP1 LOG1 DUP1 RETURN JUMPDEST DUP5 DUP11 DUP3 PUSH2 0x1798 DUP4 SWAP5 MLOAD DUP7 PUSH2 0x2343 JUMP JUMPDEST ADD SWAP3 ADD SWAP3 ADD SWAP2 SWAP1 PUSH2 0x1706 JUMP JUMPDEST DUP2 DUP11 MSTORE DUP4 DUP4 DUP11 DUP13 KECCAK256 SWAP3 DUP4 ADD SWAP3 ADD JUMPDEST DUP3 DUP2 LT PUSH2 0x17C0 JUMPI POP POP PUSH2 0x16FA JUMP JUMPDEST DUP12 PUSH2 0x17CB DUP3 SLOAD PUSH2 0x1ED1 JUMP JUMPDEST DUP1 PUSH2 0x17DB JUMPI JUMPDEST POP POP ADD DUP5 SWAP1 PUSH2 0x17B2 JUMP JUMPDEST DUP13 PUSH1 0x1F DUP1 DUP4 GT PUSH1 0x1 EQ PUSH2 0x17F5 JUMPI POP POP POP DUP2 SSTORE JUMPDEST DUP12 PUSH0 PUSH2 0x17D1 JUMP JUMPDEST PUSH2 0x180D SWAP2 DUP6 DUP6 MSTORE DUP5 KECCAK256 SWAP3 ADD PUSH1 0x5 SHR DUP3 ADD DUP6 DUP4 ADD PUSH2 0x232D JUMP JUMPDEST DUP2 DUP4 SSTORE SSTORE PUSH2 0x17EE JUMP JUMPDEST PUSH4 0x4E487B71 PUSH1 0xE0 SHL DUP11 MSTORE PUSH1 0x41 SWAP1 MSTORE PUSH1 0x24 DUP10 REVERT JUMPDEST DUP2 PUSH2 0x1836 DUP5 SWAP4 MLOAD DUP7 PUSH2 0x2343 JUMP JUMPDEST ADD SWAP3 ADD SWAP3 ADD SWAP2 SWAP1 DUP7 SWAP1 PUSH2 0x16C7 JUMP JUMPDEST DUP6 DUP4 DUP13 DUP15 DUP6 DUP2 MSTORE KECCAK256 SWAP3 DUP4 ADD SWAP3 ADD JUMPDEST DUP3 DUP2 LT PUSH2 0x1860 JUMPI POP POP PUSH2 0x16BA JUMP JUMPDEST DUP14 DUP14 PUSH2 0x186C DUP4 SLOAD PUSH2 0x1ED1 JUMP JUMPDEST SWAP1 DUP2 PUSH2 0x187E JUMPI JUMPDEST POP POP POP ADD DUP7 SWAP1 PUSH2 0x1852 JUMP JUMPDEST PUSH1 0x1F DUP1 DUP4 GT PUSH1 0x1 EQ PUSH2 0x1898 JUMPI POP POP POP DUP2 SSTORE JUMPDEST DUP14 PUSH0 DUP15 PUSH2 0x1873 JUMP JUMPDEST PUSH2 0x18B0 SWAP2 DUP6 DUP6 MSTORE DUP5 KECCAK256 SWAP3 ADD PUSH1 0x5 SHR DUP3 ADD DUP6 DUP4 ADD PUSH2 0x232D JUMP JUMPDEST DUP2 DUP4 SSTORE SSTORE PUSH2 0x1890 JUMP JUMPDEST PUSH4 0x4E487B71 PUSH1 0xE0 SHL DUP12 MSTORE PUSH1 0x41 DUP4 MSTORE PUSH1 0x24 DUP12 REVERT JUMPDEST POP CALLVALUE PUSH2 0x21D JUMPI PUSH2 0x18DB CALLDATASIZE PUSH2 0x2130 JUMP JUMPDEST SWAP4 SWAP7 PUSH1 0x40 SWAP7 SWAP6 SWAP7 SWAP4 SWAP2 SWAP4 MLOAD DUP2 MLOAD PUSH1 0x20 SWAP1 DUP2 DUP5 ADD SWAP1 PUSH2 0x18FA DUP2 DUP6 DUP5 PUSH2 0x1FDF JUMP JUMPDEST PUSH1 0x1 SWAP1 DUP5 ADD DUP2 DUP2 MSTORE DUP5 SWAP1 SUB DUP4 ADD SWAP1 SWAP4 KECCAK256 SLOAD PUSH1 0x1 PUSH1 0x1 PUSH1 0xA0 SHL SUB AND PUSH2 0x1AC9 JUMPI PUSH2 0x1A26 DUP3 PUSH1 0x7 SWAP3 DUP16 DUP9 SWAP1 DUP16 DUP16 DUP16 DUP16 SWAP10 DUP12 SWAP1 DUP14 PUSH1 0x40 MLOAD SWAP3 DUP4 SWAP2 MLOAD PUSH2 0x193C DUP2 DUP5 DUP14 PUSH2 0x1FDF JUMP JUMPDEST DUP3 ADD SWAP1 DUP2 MSTORE SUB ADD SWAP1 KECCAK256 DUP1 SLOAD PUSH1 0x1 PUSH1 0x1 PUSH1 0xA0 SHL SUB NOT AND CALLER OR SWAP1 SSTORE PUSH1 0x40 MLOAD DUP13 MLOAD DUP13 SWAP2 SWAP1 DUP10 SWAP1 DUP3 SWAP1 PUSH2 0x196C DUP2 DUP4 DUP14 PUSH2 0x1FDF JUMP JUMPDEST DUP2 ADD DUP5 DUP2 MSTORE SUB ADD SWAP1 KECCAK256 ADD SSTORE PUSH1 0x2 DUP11 DUP8 DUP14 PUSH1 0x40 MLOAD SWAP3 DUP4 SWAP2 MLOAD PUSH2 0x198E DUP2 DUP5 DUP14 PUSH2 0x1FDF JUMP JUMPDEST DUP3 ADD SWAP1 DUP2 MSTORE SUB ADD SWAP1 KECCAK256 ADD SSTORE PUSH1 0x3 PUSH1 0x40 MLOAD DUP7 DUP2 DUP14 MLOAD PUSH2 0x19AD DUP2 DUP4 DUP12 PUSH2 0x1FDF JUMP JUMPDEST DUP2 ADD DUP14 DUP2 MSTORE SUB ADD SWAP1 KECCAK256 ADD SSTORE PUSH1 0x40 MLOAD DUP5 DUP2 DUP12 MLOAD PUSH2 0x19CA DUP2 DUP4 DUP10 PUSH2 0x1FDF JUMP JUMPDEST DUP2 ADD DUP12 DUP2 MSTORE SUB ADD SWAP1 KECCAK256 ADD SSTORE DUP9 PUSH1 0x5 PUSH1 0x40 MLOAD DUP5 DUP2 DUP12 MLOAD PUSH2 0x19EA DUP2 DUP4 DUP10 PUSH2 0x1FDF JUMP JUMPDEST DUP2 ADD DUP12 DUP2 MSTORE SUB ADD SWAP1 KECCAK256 ADD SSTORE DUP10 PUSH1 0x6 PUSH1 0x40 MLOAD DUP5 DUP2 DUP12 MLOAD PUSH2 0x1A0A DUP2 DUP4 DUP10 PUSH2 0x1FDF JUMP JUMPDEST DUP2 ADD DUP12 DUP2 MSTORE SUB ADD SWAP1 KECCAK256 ADD SSTORE PUSH1 0x40 MLOAD DUP1 SWAP4 DUP2 SWAP3 DUP10 MLOAD SWAP3 DUP4 SWAP2 PUSH2 0x1FDF JUMP JUMPDEST DUP2 ADD DUP7 DUP2 MSTORE SUB ADD SWAP1 KECCAK256 ADD SSTORE PUSH1 0x2 SLOAD SWAP1 PUSH1 0x1 PUSH1 0x40 SHL DUP3 LT ISZERO PUSH2 0x1AB6 JUMPI DUP2 ADD PUSH1 0x2 SSTORE PUSH2 0x1A4F SWAP1 PUSH2 0x229C JUMP JUMPDEST PUSH2 0x1AA4 JUMPI SWAP2 PUSH2 0x1A90 DUP3 PUSH2 0x1A8B PUSH32 0x9C96CEAD8F7FC8142F1AF61E373480446B35D81BB5DFA183FD3880C45DF68AD5 SWAP11 SWAP10 SWAP9 SWAP7 SWAP5 PUSH2 0x1A9E SWAP9 SWAP7 PUSH2 0x2343 JUMP JUMPDEST PUSH2 0x243F JUMP JUMPDEST SWAP9 PUSH1 0x40 MLOAD SWAP8 DUP9 SWAP8 CALLER DUP10 PUSH2 0x22EE JUMP JUMPDEST SUB SWAP1 LOG2 DUP1 RETURN JUMPDEST PUSH4 0x4E487B71 PUSH1 0xE0 SHL DUP11 MSTORE DUP10 DUP12 MSTORE PUSH1 0x24 DUP11 REVERT JUMPDEST PUSH4 0x4E487B71 PUSH1 0xE0 SHL DUP12 MSTORE PUSH1 0x41 DUP13 MSTORE PUSH1 0x24 DUP12 REVERT JUMPDEST PUSH1 0x40 MLOAD PUSH3 0x461BCD PUSH1 0xE5 SHL DUP2 MSTORE DUP1 DUP15 ADD DUP4 SWAP1 MSTORE PUSH1 0x17 PUSH1 0x24 DUP3 ADD MSTORE PUSH23 0x29BAB13532B1BA1030B63932B0B23C9032BC34B9BA3997 PUSH1 0x49 SHL PUSH1 0x44 DUP3 ADD MSTORE PUSH1 0x64 SWAP1 REVERT JUMPDEST POP CALLVALUE PUSH2 0x21D JUMPI PUSH2 0x1B16 CALLDATASIZE PUSH2 0x20EF JUMP JUMPDEST SWAP1 PUSH1 0x40 MLOAD DUP2 MLOAD SWAP3 PUSH2 0x1B4F PUSH1 0x20 SWAP5 PUSH2 0x1B30 DUP2 DUP6 DUP9 DUP9 ADD PUSH2 0x1FDF JUMP JUMPDEST DUP4 ADD PUSH1 0x1 DUP2 MSTORE DUP4 DUP7 PUSH1 0x1 DUP1 PUSH1 0xA0 SHL SUB SWAP6 DUP7 SWAP4 SUB ADD SWAP1 KECCAK256 SLOAD AND ISZERO ISZERO PUSH2 0x245F JUMP JUMPDEST CALLER DUP6 MSTORE DUP5 DUP5 MSTORE PUSH2 0x1B6D PUSH1 0x1 PUSH1 0xFF PUSH1 0x2 PUSH2 0x481 DUP11 PUSH1 0x40 DUP12 KECCAK256 ADD DUP9 PUSH2 0x22C8 JUMP JUMPDEST AND SWAP2 DUP3 DUP5 MSTORE DUP4 DUP2 MSTORE PUSH2 0x1B8D PUSH1 0x1 PUSH1 0xFF PUSH1 0x2 PUSH2 0x1127 DUP10 PUSH1 0x40 DUP11 KECCAK256 ADD DUP8 PUSH2 0x22C8 JUMP JUMPDEST PUSH2 0x1B99 DUP4 CALLER EQ ISZERO PUSH2 0x2565 JUMP JUMPDEST DUP3 DUP5 MSTORE DUP4 DUP2 MSTORE PUSH1 0x1 PUSH2 0x1BB0 DUP7 PUSH1 0x40 DUP8 KECCAK256 ADD DUP5 PUSH2 0x22C8 JUMP JUMPDEST ADD CALLER DUP6 MSTORE DUP2 MSTORE PUSH1 0xFF PUSH1 0x40 DUP6 KECCAK256 SLOAD AND ISZERO PUSH2 0x1C5E JUMPI DUP3 DUP5 MSTORE DUP4 DUP2 MSTORE PUSH2 0x1BD8 DUP6 PUSH1 0x40 DUP7 KECCAK256 ADD DUP4 PUSH2 0x22C8 JUMP JUMPDEST DUP1 SLOAD PUSH0 NOT DUP2 ADD SWAP2 SWAP1 DUP3 GT PUSH2 0x1C4B JUMPI PUSH2 0x11F0 DUP8 PUSH32 0x762E6755472076DF5543749C551BE6860563E0A6140161161DE0BA7FF211B2E3 SWAP5 SWAP4 PUSH2 0x11F7 SWAP4 SSTORE DUP7 DUP9 MSTORE DUP8 DUP5 MSTORE PUSH1 0x1 PUSH2 0x1C29 DUP3 PUSH1 0x40 DUP12 KECCAK256 ADD DUP9 PUSH2 0x22C8 JUMP JUMPDEST CALLER DUP11 MSTORE ADD DUP5 MSTORE PUSH1 0x40 DUP1 DUP10 KECCAK256 DUP1 SLOAD PUSH1 0xFF NOT AND SWAP1 SSTORE DUP8 DUP10 MSTORE DUP9 DUP6 MSTORE DUP9 KECCAK256 ADD DUP6 PUSH2 0x22C8 JUMP JUMPDEST PUSH4 0x4E487B71 PUSH1 0xE0 SHL DUP7 MSTORE PUSH1 0x11 DUP8 MSTORE PUSH1 0x24 DUP7 REVERT JUMPDEST DUP5 PUSH1 0x84 SWAP2 PUSH1 0x40 MLOAD SWAP2 PUSH3 0x461BCD PUSH1 0xE5 SHL DUP4 MSTORE DUP3 ADD MSTORE PUSH1 0x2F PUSH1 0x24 DUP3 ADD MSTORE PUSH32 0x596F752068617665206E6F7420676976656E2061206372656420746F20746869 PUSH1 0x44 DUP3 ADD MSTORE PUSH15 0x39903932BB34B2BBB2B9103CB2BA17 PUSH1 0x89 SHL PUSH1 0x64 DUP3 ADD MSTORE REVERT JUMPDEST POP SWAP1 CALLVALUE PUSH2 0x280 JUMPI PUSH1 0x20 CALLDATASIZE PUSH1 0x3 NOT ADD SLT PUSH2 0x280 JUMPI PUSH2 0x1CE1 PUSH1 0x1 DUP1 PUSH1 0xA0 SHL SUB PUSH1 0x6 SLOAD AND CALLER EQ PUSH2 0x2677 JUMP JUMPDEST PUSH2 0x1CF4 PUSH1 0x1 PUSH1 0xFF PUSH1 0xD SLOAD AND ISZERO ISZERO EQ PUSH2 0x2710 JUMP JUMPDEST CALLDATALOAD DUP2 MSTORE PUSH1 0x3 PUSH1 0x20 MSTORE PUSH1 0x40 DUP2 KECCAK256 PUSH1 0xF ADD DUP1 SLOAD PUSH1 0xFF NOT AND SWAP1 SSTORE DUP1 RETURN JUMPDEST POP SWAP1 CALLVALUE PUSH2 0x280 JUMPI DUP2 PUSH1 0x3 NOT CALLDATASIZE ADD SLT PUSH2 0x280 JUMPI PUSH1 0x20 SWAP1 SLOAD PUSH1 0x40 MLOAD SWAP1 DUP2 MSTORE RETURN JUMPDEST POP CALLVALUE PUSH2 0x21D JUMPI PUSH1 0x20 CALLDATASIZE PUSH1 0x3 NOT ADD SLT PUSH2 0x21D JUMPI PUSH2 0x1DAA SWAP1 PUSH1 0x40 SWAP1 PUSH1 0x1 PUSH1 0x1 PUSH1 0xA0 SHL SUB PUSH2 0x1D55 PUSH2 0x2025 JUMP JUMPDEST AND DUP2 MSTORE DUP1 PUSH1 0x20 MSTORE KECCAK256 PUSH2 0x219 PUSH2 0x1D69 DUP3 PUSH2 0x1F3E JUMP JUMPDEST SWAP2 PUSH2 0x1DC6 PUSH2 0x1D79 PUSH1 0x1 DUP4 ADD PUSH2 0x1F3E JUMP JUMPDEST SWAP2 PUSH2 0x1DB8 PUSH2 0x1D95 PUSH1 0x3 PUSH2 0x1D8E PUSH1 0x2 DUP6 ADD PUSH2 0x26BC JUMP JUMPDEST SWAP4 ADD PUSH2 0x26BC JUMP JUMPDEST SWAP4 PUSH1 0x40 MLOAD SWAP8 DUP9 SWAP8 PUSH1 0x80 DUP10 MSTORE PUSH1 0x80 DUP10 ADD SWAP1 PUSH2 0x2000 JUMP JUMPDEST SWAP1 DUP8 DUP3 SUB PUSH1 0x20 DUP10 ADD MSTORE PUSH2 0x2000 JUMP JUMPDEST SWAP1 DUP6 DUP3 SUB PUSH1 0x40 DUP8 ADD MSTORE PUSH2 0x203F JUMP JUMPDEST SWAP1 DUP4 DUP3 SUB PUSH1 0x60 DUP6 ADD MSTORE PUSH2 0x203F JUMP JUMPDEST POP CALLVALUE PUSH2 0x21D JUMPI PUSH1 0x20 CALLDATASIZE PUSH1 0x3 NOT ADD SLT PUSH2 0x21D JUMPI DUP2 CALLDATALOAD DUP2 MSTORE PUSH1 0x3 PUSH1 0x20 MSTORE PUSH1 0x40 SWAP1 KECCAK256 DUP1 SLOAD PUSH1 0x1 PUSH1 0x1 PUSH1 0xA0 SHL SUB AND SWAP2 SWAP1 PUSH2 0x1E0C PUSH1 0x1 DUP3 ADD PUSH2 0x1F3E JUMP JUMPDEST SWAP2 PUSH1 0x2 DUP3 ADD SLOAD SWAP2 PUSH1 0x3 DUP2 ADD SLOAD SWAP2 DUP2 ADD SLOAD PUSH1 0x5 DUP3 ADD SLOAD PUSH1 0x6 DUP4 ADD SLOAD PUSH1 0x7 DUP5 ADD SLOAD PUSH1 0x8 DUP6 ADD SLOAD PUSH1 0x9 DUP7 ADD SLOAD SWAP2 PUSH1 0xA DUP8 ADD SLOAD SWAP4 PUSH1 0xB DUP9 ADD SLOAD SWAP6 PUSH1 0xC DUP10 ADD SLOAD SWAP8 PUSH1 0xD DUP11 ADD SLOAD SWAP10 PUSH1 0xF ADD SLOAD SWAP11 PUSH1 0x40 MLOAD SWAP15 DUP16 SWAP15 DUP16 SWAP2 DUP3 MSTORE PUSH2 0x200 DUP1 PUSH1 0x20 DUP5 ADD MSTORE DUP3 ADD PUSH2 0x1E71 SWAP2 PUSH2 0x2000 JUMP JUMPDEST SWAP14 PUSH1 0x40 DUP3 ADD MSTORE PUSH1 0x60 ADD MSTORE PUSH1 0x80 DUP14 ADD MSTORE PUSH1 0xA0 DUP13 ADD MSTORE PUSH1 0xC0 DUP12 ADD MSTORE PUSH1 0xE0 DUP11 ADD MSTORE PUSH2 0x100 DUP10 ADD MSTORE PUSH2 0x120 DUP9 ADD MSTORE PUSH2 0x140 DUP8 ADD MSTORE PUSH2 0x160 DUP7 ADD MSTORE PUSH2 0x180 DUP6 ADD MSTORE PUSH2 0x1A0 DUP5 ADD MSTORE PUSH1 0xFF DUP2 AND ISZERO ISZERO PUSH2 0x1C0 DUP5 ADD MSTORE PUSH1 0x8 SHR PUSH1 0xFF AND ISZERO ISZERO PUSH2 0x1E0 DUP4 ADD MSTORE SUB SWAP1 RETURN JUMPDEST SWAP1 PUSH1 0x1 DUP3 DUP2 SHR SWAP3 AND DUP1 ISZERO PUSH2 0x1EFF JUMPI JUMPDEST PUSH1 0x20 DUP4 LT EQ PUSH2 0x1EEB JUMPI JUMP JUMPDEST PUSH4 0x4E487B71 PUSH1 0xE0 SHL PUSH0 MSTORE PUSH1 0x22 PUSH1 0x4 MSTORE PUSH1 0x24 PUSH0 REVERT JUMPDEST SWAP2 PUSH1 0x7F AND SWAP2 PUSH2 0x1EE0 JUMP JUMPDEST SWAP1 PUSH1 0x1F DUP1 NOT SWAP2 ADD AND DUP2 ADD SWAP1 DUP2 LT PUSH1 0x1 PUSH1 0x1 PUSH1 0x40 SHL SUB DUP3 GT OR PUSH2 0x1F2A JUMPI PUSH1 0x40 MSTORE JUMP JUMPDEST PUSH4 0x4E487B71 PUSH1 0xE0 SHL PUSH0 MSTORE PUSH1 0x41 PUSH1 0x4 MSTORE PUSH1 0x24 PUSH0 REVERT JUMPDEST SWAP1 PUSH1 0x40 MLOAD SWAP2 DUP3 PUSH0 DUP3 SLOAD SWAP3 PUSH2 0x1F51 DUP5 PUSH2 0x1ED1 JUMP JUMPDEST SWAP1 DUP2 DUP5 MSTORE PUSH1 0x1 SWAP5 DUP6 DUP2 AND SWAP1 DUP2 PUSH0 EQ PUSH2 0x1FBC JUMPI POP PUSH1 0x1 EQ PUSH2 0x1F7C JUMPI JUMPDEST POP POP PUSH2 0x1F7A SWAP3 POP SUB DUP4 PUSH2 0x1F09 JUMP JUMPDEST JUMP JUMPDEST SWAP1 SWAP4 SWAP2 POP PUSH0 MSTORE PUSH1 0x20 SWAP1 DUP2 PUSH0 KECCAK256 SWAP4 PUSH0 SWAP2 JUMPDEST DUP2 DUP4 LT PUSH2 0x1FA4 JUMPI POP POP PUSH2 0x1F7A SWAP4 POP DUP3 ADD ADD PUSH0 DUP1 PUSH2 0x1F6C JUMP JUMPDEST DUP6 SLOAD DUP9 DUP5 ADD DUP6 ADD MSTORE SWAP5 DUP6 ADD SWAP5 DUP8 SWAP5 POP SWAP2 DUP4 ADD SWAP2 PUSH2 0x1F8C JUMP JUMPDEST SWAP2 POP POP PUSH2 0x1F7A SWAP5 POP PUSH1 0x20 SWAP3 POP PUSH1 0xFF NOT AND DUP3 DUP5 ADD MSTORE ISZERO ISZERO PUSH1 0x5 SHL DUP3 ADD ADD PUSH0 DUP1 PUSH2 0x1F6C JUMP JUMPDEST PUSH0 JUMPDEST DUP4 DUP2 LT PUSH2 0x1FF0 JUMPI POP POP PUSH0 SWAP2 ADD MSTORE JUMP JUMPDEST DUP2 DUP2 ADD MLOAD DUP4 DUP3 ADD MSTORE PUSH1 0x20 ADD PUSH2 0x1FE1 JUMP JUMPDEST SWAP1 PUSH1 0x20 SWAP2 PUSH2 0x2019 DUP2 MLOAD DUP1 SWAP3 DUP2 DUP6 MSTORE DUP6 DUP1 DUP7 ADD SWAP2 ADD PUSH2 0x1FDF JUMP JUMPDEST PUSH1 0x1F ADD PUSH1 0x1F NOT AND ADD ADD SWAP1 JUMP JUMPDEST PUSH1 0x4 CALLDATALOAD SWAP1 PUSH1 0x1 PUSH1 0x1 PUSH1 0xA0 SHL SUB DUP3 AND DUP3 SUB PUSH2 0x203B JUMPI JUMP JUMPDEST PUSH0 DUP1 REVERT JUMPDEST SWAP1 DUP1 DUP3 MLOAD SWAP1 DUP2 DUP2 MSTORE PUSH1 0x20 DUP1 SWAP2 ADD SWAP3 DUP2 DUP1 DUP5 PUSH1 0x5 SHL DUP4 ADD ADD SWAP6 ADD SWAP4 PUSH0 SWAP2 JUMPDEST DUP5 DUP4 LT PUSH2 0x206C JUMPI POP POP POP POP POP POP SWAP1 JUMP JUMPDEST SWAP1 SWAP2 SWAP3 SWAP4 SWAP5 SWAP6 DUP5 DUP1 PUSH2 0x208A PUSH1 0x1 SWAP4 PUSH1 0x1F NOT DUP7 DUP3 SUB ADD DUP8 MSTORE DUP11 MLOAD PUSH2 0x2000 JUMP JUMPDEST SWAP9 ADD SWAP4 ADD SWAP4 ADD SWAP2 SWAP5 SWAP4 SWAP3 SWAP1 PUSH2 0x205C JUMP JUMPDEST DUP2 PUSH1 0x1F DUP3 ADD SLT ISZERO PUSH2 0x203B JUMPI DUP1 CALLDATALOAD SWAP1 PUSH1 0x1 PUSH1 0x1 PUSH1 0x40 SHL SUB DUP3 GT PUSH2 0x1F2A JUMPI PUSH1 0x40 MLOAD SWAP3 PUSH2 0x20CE PUSH1 0x1F DUP5 ADD PUSH1 0x1F NOT AND PUSH1 0x20 ADD DUP6 PUSH2 0x1F09 JUMP JUMPDEST DUP3 DUP5 MSTORE PUSH1 0x20 DUP4 DUP4 ADD ADD GT PUSH2 0x203B JUMPI DUP2 PUSH0 SWAP3 PUSH1 0x20 DUP1 SWAP4 ADD DUP4 DUP7 ADD CALLDATACOPY DUP4 ADD ADD MSTORE SWAP1 JUMP JUMPDEST PUSH1 0x40 PUSH1 0x3 NOT DUP3 ADD SLT PUSH2 0x203B JUMPI PUSH1 0x4 CALLDATALOAD SWAP1 PUSH1 0x1 PUSH1 0x1 PUSH1 0x40 SHL SUB DUP3 GT PUSH2 0x203B JUMPI PUSH2 0x2119 SWAP2 PUSH1 0x4 ADD PUSH2 0x209A JUMP JUMPDEST SWAP1 PUSH1 0x24 CALLDATALOAD PUSH1 0x1 PUSH1 0x1 PUSH1 0xA0 SHL SUB DUP2 AND DUP2 SUB PUSH2 0x203B JUMPI SWAP1 JUMP JUMPDEST PUSH2 0x100 PUSH1 0x3 NOT DUP3 ADD SLT PUSH2 0x203B JUMPI PUSH1 0x4 CALLDATALOAD SWAP1 PUSH1 0x1 PUSH1 0x1 PUSH1 0x40 SHL SUB DUP3 GT PUSH2 0x203B JUMPI PUSH2 0x215B SWAP2 PUSH1 0x4 ADD PUSH2 0x209A JUMP JUMPDEST SWAP1 PUSH1 0x24 CALLDATALOAD SWAP1 PUSH1 0x44 CALLDATALOAD SWAP1 PUSH1 0x64 CALLDATALOAD SWAP1 PUSH1 0x84 CALLDATALOAD SWAP1 PUSH1 0xA4 CALLDATALOAD SWAP1 PUSH1 0xC4 CALLDATALOAD SWAP1 PUSH1 0xE4 CALLDATALOAD SWAP1 JUMP JUMPDEST PUSH1 0x1 PUSH1 0x1 PUSH1 0x40 SHL SUB DUP2 GT PUSH2 0x1F2A JUMPI PUSH1 0x5 SHL PUSH1 0x20 ADD SWAP1 JUMP JUMPDEST SWAP1 DUP1 PUSH1 0x1F DUP4 ADD SLT ISZERO PUSH2 0x203B JUMPI DUP2 CALLDATALOAD SWAP1 PUSH2 0x21A9 DUP3 PUSH2 0x217A JUMP JUMPDEST SWAP3 PUSH2 0x21B7 PUSH1 0x40 MLOAD SWAP5 DUP6 PUSH2 0x1F09 JUMP JUMPDEST DUP3 DUP5 MSTORE PUSH1 0x20 SWAP3 DUP4 DUP1 DUP7 ADD SWAP2 PUSH1 0x5 SHL DUP4 ADD ADD SWAP3 DUP1 DUP5 GT PUSH2 0x203B JUMPI DUP5 DUP4 ADD SWAP2 JUMPDEST DUP5 DUP4 LT PUSH2 0x21E5 JUMPI POP POP POP POP POP POP SWAP1 JUMP JUMPDEST DUP3 CALLDATALOAD PUSH1 0x1 PUSH1 0x1 PUSH1 0x40 SHL SUB DUP2 GT PUSH2 0x203B JUMPI DUP7 SWAP2 PUSH2 0x2206 DUP5 DUP5 DUP1 SWAP5 DUP10 ADD ADD PUSH2 0x209A JUMP JUMPDEST DUP2 MSTORE ADD SWAP3 ADD SWAP2 PUSH2 0x21D5 JUMP JUMPDEST SWAP1 PUSH1 0x20 PUSH1 0x3 NOT DUP4 ADD SLT PUSH2 0x203B JUMPI PUSH1 0x4 CALLDATALOAD PUSH1 0x1 PUSH1 0x1 PUSH1 0x40 SHL SUB SWAP3 DUP4 DUP3 GT PUSH2 0x203B JUMPI DUP1 PUSH1 0x23 DUP4 ADD SLT ISZERO PUSH2 0x203B JUMPI DUP2 PUSH1 0x4 ADD CALLDATALOAD SWAP4 DUP5 GT PUSH2 0x203B JUMPI PUSH1 0x24 DUP5 DUP4 ADD ADD GT PUSH2 0x203B JUMPI PUSH1 0x24 ADD SWAP2 SWAP1 JUMP JUMPDEST SWAP1 PUSH1 0x40 PUSH1 0x3 NOT DUP4 ADD SLT PUSH2 0x203B JUMPI PUSH1 0x4 CALLDATALOAD PUSH1 0x1 PUSH1 0x1 PUSH1 0xA0 SHL SUB DUP2 AND DUP2 SUB PUSH2 0x203B JUMPI SWAP2 PUSH1 0x24 CALLDATALOAD SWAP1 PUSH1 0x1 PUSH1 0x1 PUSH1 0x40 SHL SUB DUP3 GT PUSH2 0x203B JUMPI PUSH2 0x2299 SWAP2 PUSH1 0x4 ADD PUSH2 0x209A JUMP JUMPDEST SWAP1 JUMP JUMPDEST PUSH1 0x2 SLOAD DUP2 LT ISZERO PUSH2 0x22B4 JUMPI PUSH1 0x2 PUSH0 MSTORE PUSH1 0x20 PUSH0 KECCAK256 ADD SWAP1 PUSH0 SWAP1 JUMP JUMPDEST PUSH4 0x4E487B71 PUSH1 0xE0 SHL PUSH0 MSTORE PUSH1 0x32 PUSH1 0x4 MSTORE PUSH1 0x24 PUSH0 REVERT JUMPDEST PUSH1 0x20 SWAP1 PUSH2 0x22E2 SWAP3 DUP3 PUSH1 0x40 MLOAD SWAP5 DUP4 DUP7 DUP1 SWAP6 MLOAD SWAP4 DUP5 SWAP3 ADD PUSH2 0x1FDF JUMP JUMPDEST DUP3 ADD SWAP1 DUP2 MSTORE SUB ADD SWAP1 KECCAK256 SWAP1 JUMP JUMPDEST SWAP5 SWAP2 SWAP3 PUSH1 0xE0 SWAP7 SWAP4 SWAP10 SWAP9 SWAP8 SWAP5 SWAP2 SWAP10 PUSH2 0x100 DUP8 ADD SWAP11 PUSH1 0x1 DUP1 PUSH1 0xA0 SHL SUB AND DUP8 MSTORE PUSH1 0x20 DUP8 ADD MSTORE PUSH1 0x40 DUP7 ADD MSTORE PUSH1 0x60 DUP6 ADD MSTORE PUSH1 0x80 DUP5 ADD MSTORE PUSH1 0xA0 DUP4 ADD MSTORE PUSH1 0xC0 DUP3 ADD MSTORE ADD MSTORE JUMP JUMPDEST DUP2 DUP2 LT PUSH2 0x2338 JUMPI POP POP JUMP JUMPDEST PUSH0 DUP2 SSTORE PUSH1 0x1 ADD PUSH2 0x232D JUMP JUMPDEST SWAP2 SWAP1 SWAP2 DUP3 MLOAD PUSH1 0x1 PUSH1 0x1 PUSH1 0x40 SHL SUB DUP2 GT PUSH2 0x1F2A JUMPI PUSH2 0x2360 DUP3 SLOAD PUSH2 0x1ED1 JUMP JUMPDEST PUSH1 0x1F DUP2 GT PUSH2 0x2404 JUMPI JUMPDEST POP PUSH1 0x20 DUP1 PUSH1 0x1F DUP4 GT PUSH1 0x1 EQ PUSH2 0x23A4 JUMPI POP DUP2 SWAP3 SWAP4 SWAP5 PUSH0 SWAP3 PUSH2 0x2399 JUMPI JUMPDEST POP POP DUP2 PUSH1 0x1 SHL SWAP2 PUSH0 NOT SWAP1 PUSH1 0x3 SHL SHR NOT AND OR SWAP1 SSTORE JUMP JUMPDEST ADD MLOAD SWAP1 POP PUSH0 DUP1 PUSH2 0x2384 JUMP JUMPDEST SWAP1 PUSH1 0x1F NOT DUP4 AND SWAP6 DUP5 PUSH0 MSTORE DUP3 PUSH0 KECCAK256 SWAP3 PUSH0 SWAP1 JUMPDEST DUP9 DUP3 LT PUSH2 0x23EC JUMPI POP POP DUP4 PUSH1 0x1 SWAP6 SWAP7 SWAP8 LT PUSH2 0x23D4 JUMPI JUMPDEST POP POP POP DUP2 SHL ADD SWAP1 SSTORE JUMP JUMPDEST ADD MLOAD PUSH0 NOT PUSH1 0xF8 DUP5 PUSH1 0x3 SHL AND SHR NOT AND SWAP1 SSTORE PUSH0 DUP1 DUP1 PUSH2 0x23CA JUMP JUMPDEST DUP1 PUSH1 0x1 DUP6 SWAP7 DUP3 SWAP5 SWAP7 DUP7 ADD MLOAD DUP2 SSTORE ADD SWAP6 ADD SWAP4 ADD SWAP1 PUSH2 0x23B5 JUMP JUMPDEST PUSH2 0x242F SWAP1 DUP4 PUSH0 MSTORE PUSH1 0x20 PUSH0 KECCAK256 PUSH1 0x1F DUP5 ADD PUSH1 0x5 SHR DUP2 ADD SWAP2 PUSH1 0x20 DUP6 LT PUSH2 0x2435 JUMPI JUMPDEST PUSH1 0x1F ADD PUSH1 0x5 SHR ADD SWAP1 PUSH2 0x232D JUMP JUMPDEST PUSH0 PUSH2 0x2369 JUMP JUMPDEST SWAP1 SWAP2 POP DUP2 SWAP1 PUSH2 0x2422 JUMP JUMPDEST PUSH2 0x2457 SWAP1 PUSH1 0x20 PUSH1 0x40 MLOAD SWAP3 DUP3 DUP5 DUP1 SWAP5 MLOAD SWAP4 DUP5 SWAP3 ADD PUSH2 0x1FDF JUMP JUMPDEST DUP2 ADD SUB SWAP1 KECCAK256 SWAP1 JUMP JUMPDEST ISZERO PUSH2 0x2466 JUMPI JUMP JUMPDEST PUSH1 0x40 MLOAD PUSH3 0x461BCD PUSH1 0xE5 SHL DUP2 MSTORE PUSH1 0x20 PUSH1 0x4 DUP3 ADD MSTORE PUSH1 0x16 PUSH1 0x24 DUP3 ADD MSTORE PUSH22 0x29BAB13532B1BA103237B2B9B713BA1032BC34B9BA17 PUSH1 0x51 SHL PUSH1 0x44 DUP3 ADD MSTORE PUSH1 0x64 SWAP1 REVERT JUMPDEST ISZERO PUSH2 0x24AB JUMPI JUMP JUMPDEST PUSH1 0x40 MLOAD PUSH3 0x461BCD PUSH1 0xE5 SHL DUP2 MSTORE PUSH1 0x20 PUSH1 0x4 DUP3 ADD MSTORE PUSH1 0x28 PUSH1 0x24 DUP3 ADD MSTORE PUSH32 0x596F7520617265206E6F74206120726576696577657220666F72207468697320 PUSH1 0x44 DUP3 ADD MSTORE PUSH8 0x39BAB13532B1BA17 PUSH1 0xC1 SHL PUSH1 0x64 DUP3 ADD MSTORE PUSH1 0x84 SWAP1 REVERT JUMPDEST ISZERO PUSH2 0x2508 JUMPI JUMP JUMPDEST PUSH1 0x40 MLOAD PUSH3 0x461BCD PUSH1 0xE5 SHL DUP2 MSTORE PUSH1 0x20 PUSH1 0x4 DUP3 ADD MSTORE PUSH1 0x2F PUSH1 0x24 DUP3 ADD MSTORE PUSH32 0x54617267657420726576696577657220646F65736E277420657869737420666F PUSH1 0x44 DUP3 ADD MSTORE PUSH15 0x39103A3434B99039BAB13532B1BA17 PUSH1 0x89 SHL PUSH1 0x64 DUP3 ADD MSTORE PUSH1 0x84 SWAP1 REVERT JUMPDEST ISZERO PUSH2 0x256C JUMPI JUMP JUMPDEST PUSH1 0x40 MLOAD PUSH3 0x461BCD PUSH1 0xE5 SHL DUP2 MSTORE PUSH1 0x20 PUSH1 0x4 DUP3 ADD MSTORE PUSH1 0x1F PUSH1 0x24 DUP3 ADD MSTORE PUSH32 0x596F752063616E6E6F74206564697420796F7572206F776E2063726564732E00 PUSH1 0x44 DUP3 ADD MSTORE PUSH1 0x64 SWAP1 REVERT JUMPDEST SWAP2 SWAP1 DUP3 ADD DUP1 SWAP3 GT PUSH2 0x25BE JUMPI JUMP JUMPDEST PUSH4 0x4E487B71 PUSH1 0xE0 SHL PUSH0 MSTORE PUSH1 0x11 PUSH1 0x4 MSTORE PUSH1 0x24 PUSH0 REVERT JUMPDEST SWAP1 DUP2 PUSH1 0x20 SWAP2 SUB SLT PUSH2 0x203B JUMPI MLOAD DUP1 ISZERO ISZERO DUP2 SUB PUSH2 0x203B JUMPI SWAP1 JUMP JUMPDEST PUSH0 NOT DUP2 EQ PUSH2 0x25BE JUMPI PUSH1 0x1 ADD SWAP1 JUMP JUMPDEST PUSH0 SWAP3 SWAP2 DUP2 SLOAD PUSH2 0x2606 DUP2 PUSH2 0x1ED1 JUMP JUMPDEST SWAP3 PUSH1 0x1 SWAP2 DUP1 DUP4 AND SWAP1 DUP2 ISZERO PUSH2 0x265C JUMPI POP PUSH1 0x1 EQ PUSH2 0x2623 JUMPI JUMPDEST POP POP POP POP JUMP JUMPDEST SWAP1 SWAP2 SWAP3 SWAP4 SWAP5 POP PUSH0 MSTORE PUSH1 0x20 SWAP1 DUP2 PUSH0 KECCAK256 SWAP1 PUSH0 SWAP2 JUMPDEST DUP6 DUP4 LT PUSH2 0x264B JUMPI POP POP POP POP ADD SWAP1 PUSH0 DUP1 DUP1 DUP1 PUSH2 0x261D JUMP JUMPDEST DUP1 SLOAD DUP6 DUP5 ADD MSTORE SWAP2 DUP4 ADD SWAP2 DUP2 ADD PUSH2 0x2635 JUMP JUMPDEST PUSH1 0xFF NOT AND DUP5 MSTORE POP POP POP DUP2 ISZERO ISZERO SWAP1 SWAP2 MUL ADD SWAP2 POP PUSH0 DUP1 DUP1 DUP1 PUSH2 0x261D JUMP JUMPDEST ISZERO PUSH2 0x267E JUMPI JUMP JUMPDEST PUSH1 0x40 MLOAD PUSH3 0x461BCD PUSH1 0xE5 SHL DUP2 MSTORE PUSH1 0x20 PUSH1 0x4 DUP3 ADD MSTORE PUSH1 0x16 PUSH1 0x24 DUP3 ADD MSTORE PUSH22 0x2737BA103A34329031B7B73A3930B1BA1037BBB732B9 PUSH1 0x51 SHL PUSH1 0x44 DUP3 ADD MSTORE PUSH1 0x64 SWAP1 REVERT JUMPDEST SWAP1 DUP2 SLOAD PUSH2 0x26C8 DUP2 PUSH2 0x217A JUMP JUMPDEST SWAP3 PUSH2 0x26D6 PUSH1 0x40 MLOAD SWAP5 DUP6 PUSH2 0x1F09 JUMP JUMPDEST DUP2 DUP5 MSTORE PUSH0 SWAP1 DUP2 MSTORE PUSH1 0x20 DUP1 DUP3 KECCAK256 DUP2 DUP7 ADD JUMPDEST DUP5 DUP5 LT PUSH2 0x26F4 JUMPI POP POP POP POP POP JUMP JUMPDEST PUSH1 0x1 DUP4 DUP2 SWAP3 PUSH2 0x2702 DUP6 PUSH2 0x1F3E JUMP JUMPDEST DUP2 MSTORE ADD SWAP3 ADD SWAP4 ADD SWAP3 SWAP1 PUSH2 0x26E6 JUMP JUMPDEST ISZERO PUSH2 0x2717 JUMPI JUMP JUMPDEST PUSH1 0x40 MLOAD PUSH3 0x461BCD PUSH1 0xE5 SHL DUP2 MSTORE PUSH1 0x20 PUSH1 0x4 DUP3 ADD MSTORE PUSH1 0x18 PUSH1 0x24 DUP3 ADD MSTORE PUSH24 0x436F6E7472616374204E6F7420496E20446576204D6F6465 PUSH1 0x40 SHL PUSH1 0x44 DUP3 ADD MSTORE PUSH1 0x64 SWAP1 REVERT INVALID LOG2 PUSH5 0x6970667358 0x22 SLT KECCAK256 0x5E SWAP11 0xA9 KECCAK256 DUP10 MSIZE CALLDATACOPY REVERT 0xE8 RETURN PUSH25 0xC0F4947EE558CA257BA7E50797DB7B16F82F49C38064736F6C PUSH4 0x43000814 STOP CALLER "},"methodIdentifiers":{"AutomationContract()":"408958d6","addCredsToReviewer(string,address)":"585e01e4","addSelfAsReviewer(string)":"6f20d2a8","checkUpKeep(bytes)":"5e6c102e","createSubject(string,uint256,uint256,uint256,uint256,uint256,uint256,uint256)":"3371ef7d","getProposalResults(uint256)":"5bdcd008","getProposalVote(address,uint256)":"68535709","getReviewerCreds(address,string)":"598f921b","getReviewerInfo(address)":"072c1f41","getReviewerIsReviewer(address,string)":"e99d966f","getSubjectInfo(string)":"d39686a7","hasReviewerGivenCred(address,string,address)":"3e8e033d","openVoteTime()":"9b1cb58e","performUpkeep(bytes)":"4585e33b","proposalCounter()":"0c0512e9","proposalFeeInLink()":"7823e226","proposalQueueCounter()":"9cd2cadc","proposals(uint256)":"013cf08b","propose(string,uint256,uint256,uint256,uint256,uint256,uint256,uint256)":"ac923334","removeCredsFromReviewer(string,address)":"18f6b962","removeSelfAsReviewer(string)":"66ea653a","setAutomationRegistry(address)":"5ff2d2aa","setCreds(uint256,address,string)":"9498b081","setFee(uint256)":"69fe0e2d","setOpenVoteTime(uint256)":"8640f718","setProposalCounter(uint256)":"8b640440","setProposalInactive(uint256)":"1282f609","setUpkkepId(uint256)":"5787a0cc","subjectNames(uint256)":"fc687c80","subjects(string)":"fe290423","updateReviewerInfo(string,string,string[],string[])":"38a87e55","upkeepId()":"d2aa789f","vote(uint256,bool)":"c9d27afe"}}}}}