{"contracts/tgetherMemberInfo.sol":{"tgetherMembersInfo":{"abi":[{"inputs":[],"stateMutability":"nonpayable","type":"constructor"},{"anonymous":false,"inputs":[{"indexed":true,"internalType":"address","name":"memberAddress","type":"address"},{"indexed":true,"internalType":"string","name":"name","type":"string"},{"indexed":false,"internalType":"string","name":"description","type":"string"},{"indexed":false,"internalType":"string[]","name":"degrees","type":"string[]"},{"indexed":false,"internalType":"string[]","name":"awards","type":"string[]"},{"indexed":false,"internalType":"string","name":"endpoint","type":"string"}],"name":"MemberInfo","type":"event"},{"inputs":[{"internalType":"address","name":"","type":"address"}],"name":"MembersInfo","outputs":[{"internalType":"string","name":"name","type":"string"},{"internalType":"string","name":"description","type":"string"},{"internalType":"string","name":"endpoint","type":"string"}],"stateMutability":"view","type":"function"},{"inputs":[{"internalType":"address","name":"_address","type":"address"}],"name":"getMemberInfo","outputs":[{"internalType":"string","name":"_name","type":"string"},{"internalType":"string","name":"_description","type":"string"},{"internalType":"string[]","name":"_degrees","type":"string[]"},{"internalType":"string[]","name":"_awards","type":"string[]"},{"internalType":"string","name":"_endpoint","type":"string"}],"stateMutability":"view","type":"function"},{"inputs":[{"internalType":"string","name":"_name","type":"string"},{"internalType":"string","name":"_description","type":"string"},{"internalType":"string[]","name":"_degrees","type":"string[]"},{"internalType":"string[]","name":"_awards","type":"string[]"},{"internalType":"string","name":"_endpoint","type":"string"}],"name":"updateMemberInfo","outputs":[],"stateMutability":"nonpayable","type":"function"}],"evm":{"bytecode":{"linkReferences":{},"object":"6080806040523461002857600180546001600160a01b03191633179055610ccb908161002d8239f35b5f80fdfe60806040526004361015610011575f80fd5b5f3560e01c80635f1231ea146108dd5780638cddee08146100ce576392a1b23b1461003a575f80fd5b346100ca5760203660031901126100ca576004356001600160a01b038116908190036100ca575f525f6020526100aa60405f206100c661007982610b8a565b916100b8610095600461008e60018501610b8a565b9301610b8a565b916040519586956060875260608701906109c5565b9085820360208701526109c5565b9083820360408501526109c5565b0390f35b5f80fd5b346100ca5760a03660031901126100ca576004356001600160401b0381116100ca576100fe903690600401610a66565b6024356001600160401b0381116100ca5761011d903690600401610a66565b6044356001600160401b0381116100ca5761013c903690600401610ad2565b906064356001600160401b0381116100ca5761015c903690600401610ad2565b906084356001600160401b0381116100ca5761017c903690600401610a66565b91335f525f60205260405f2085516001600160401b038111610485576101a28254610b52565b601f81116108ad575b50806020601f8211600114610849575f9161083e575b508160011b915f199060031b1c19161790555b335f525f602052600160405f200182516001600160401b038111610485576101fc8254610b52565b601f811161080e575b50806020601f82116001146107ab575f916107a0575b508160011b915f199060031b1c19161790555b335f525f602052600260405f20018451600160401b811161048557815481835580821061072f575b5060208601915f5260205f20915f905b8282106106225750505050335f525f602052600360405f20018151600160401b81116104855781548183558082106105b1575b5060208301915f5260205f20915f905b8282106104995750505050335f525f602052600460405f2001948351956001600160401b038711610485576102de8154610b52565b601f811161044a575b50602096601f81116001146103b2579261038561035d6103a294610393948761037799987f981fcfd4e48ae5b4ea31f02a5c5b7b669c510f9fea5c9b39ff7388bee8b8c5c49b9c9d5f916103a7575b508160011b915f199060031b1c19161790555b6020604051928284809451938492016109a4565b8101039020986040519687966080885260808801906109c5565b9086820360208801526109ea565b9084820360408601526109ea565b828103606084015233956109c5565b0390a3005b90508c01518e610336565b601f198116825f5260205f20905f5b81811061043257506103a29461039394600185610385958c9d9e7f981fcfd4e48ae5b4ea31f02a5c5b7b669c510f9fea5c9b39ff7388bee8b8c5c49d6103779d9c9961035d981061041a575b505050811b019055610349565b01515f1960f88460031b161c191690558e808e61040d565b888b0151835560209a8b019a600190930192016103c1565b61047590825f5260205f20601f8a0160051c81019160208b1061047b575b601f0160051c0190610c2b565b876102e7565b9091508190610468565b634e487b7160e01b5f52604160045260245ffd5b80518051906001600160401b038211610485576104b68654610b52565b601f8111610576575b50602090601f831160011461050a5792826001949360209386955f926104ff575b50505f19600383901b1c191690841b1787555b019401910190926102a9565b015190508e806104e0565b90865f5260205f20915f5b601f198516811061055e575083602093600196938796938794601f19811610610546575b505050811b0187556104f3565b01515f1960f88460031b161c191690558e8080610539565b91926020600181928685015181550194019201610515565b6105a190875f5260205f206005601f8601811c820192602087106105a7575b601f01901c0190610c2b565b8b6104bf565b9192508291610595565b825f5260205f20908282015b81830181106105cd575050610299565b806105da60019254610b52565b806105e7575b50016105bd565b601f811183146105fc57505f81555b8b6105e0565b5f90828252610619601f60208420920160051c8201858301610c2b565b818355556105f6565b80518051906001600160401b0382116104855761063f8654610b52565b601f81116106ff575b50602090601f83116001146106935792826001949360209386955f92610688575b50505f19600383901b1c191690841b1787555b01940191019092610266565b015190508e80610669565b90865f5260205f20915f5b601f19851681106106e7575083602093600196938796938794601f198116106106cf575b505050811b01875561067c565b01515f1960f88460031b161c191690558e80806106c2565b9192602060018192868501518155019401920161069e565b61072990875f5260205f206005601f8601811c820192602087106105a757601f01901c0190610c2b565b8b610648565b825f5260205f20908282015b818301811061074b575050610256565b8061075860019254610b52565b80610765575b500161073b565b601f8111831461077a57505f81555b8b61075e565b5f90828252610797601f60208420920160051c8201858301610c2b565b81835555610774565b90508401518861021b565b9150825f5260205f205f925b601f19831684106107f6576001935082601f198116106107de575b5050811b01905561022e565b8601515f1960f88460031b161c1916905588806107d2565b868101518255602093840193600190920191016107b7565b61083890835f5260205f20601f840160051c8101916020851061047b57601f0160051c0190610c2b565b87610205565b9050870151886101c1565b5f848152602081209250601f198416905b8a828210610895575050908360019493921061087d575b5050811b0190556101d4565b8901515f1960f88460031b161c191690558880610871565b6001849560209395849301518155019401920161085a565b6108d790835f5260205f20601f840160051c8101916020851061047b57601f0160051c0190610c2b565b876101ab565b346100ca5760203660031901126100ca576004356001600160a01b038116908190036100ca575f525f60205261096c60405f206100c661091c82610b8a565b9161099661092c60018301610b8a565b9161098861093c60028301610c41565b61097a610957600461095060038701610c41565b9501610b8a565b95604051998a9960a08b5260a08b01906109c5565b9089820360208b01526109c5565b9087820360408901526109ea565b9085820360608701526109ea565b9083820360808501526109c5565b5f5b8381106109b55750505f910152565b81810151838201526020016109a6565b906020916109de815180928185528580860191016109a4565b601f01601f1916010190565b908082519081815260208091019281808460051b8301019501935f915b848310610a175750505050505090565b9091929394958480610a35600193601f198682030187528a516109c5565b9801930193019194939290610a07565b90601f801991011681019081106001600160401b0382111761048557604052565b81601f820112156100ca578035906001600160401b0382116104855760405192610a9a601f8401601f191660200185610a45565b828452602083830101116100ca57815f926020809301838601378301015290565b6001600160401b0381116104855760051b60200190565b9080601f830112156100ca57813590610aea82610abb565b92610af86040519485610a45565b828452602092838086019160051b830101928084116100ca57848301915b848310610b265750505050505090565b82356001600160401b0381116100ca578691610b4784848094890101610a66565b815201920191610b16565b90600182811c92168015610b80575b6020831014610b6c57565b634e487b7160e01b5f52602260045260245ffd5b91607f1691610b61565b9060405191825f825492610b9d84610b52565b9081845260019485811690815f14610c085750600114610bc8575b5050610bc692500383610a45565b565b909391505f52602090815f20935f915b818310610bf0575050610bc693508201015f80610bb8565b85548884018501529485019487945091830191610bd8565b915050610bc694506020925060ff191682840152151560051b8201015f80610bb8565b818110610c36575050565b5f8155600101610c2b565b908154610c4d81610abb565b92610c5b6040519485610a45565b8184525f90815260208082208186015b848410610c79575050505050565b6001838192610c8785610b8a565b815201920193019290610c6b56fea264697066735822122092a947601760043d7c39e8b4988915bb2e9060cfa8e9ae92c26ccad30248357164736f6c63430008140033","opcodes":"PUSH1 0x80 DUP1 PUSH1 0x40 MSTORE CALLVALUE PUSH2 0x28 JUMPI PUSH1 0x1 DUP1 SLOAD PUSH1 0x1 PUSH1 0x1 PUSH1 0xA0 SHL SUB NOT AND CALLER OR SWAP1 SSTORE PUSH2 0xCCB SWAP1 DUP2 PUSH2 0x2D DUP3 CODECOPY RETURN JUMPDEST PUSH0 DUP1 REVERT INVALID PUSH1 0x80 PUSH1 0x40 MSTORE PUSH1 0x4 CALLDATASIZE LT ISZERO PUSH2 0x11 JUMPI PUSH0 DUP1 REVERT JUMPDEST PUSH0 CALLDATALOAD PUSH1 0xE0 SHR DUP1 PUSH4 0x5F1231EA EQ PUSH2 0x8DD JUMPI DUP1 PUSH4 0x8CDDEE08 EQ PUSH2 0xCE JUMPI PUSH4 0x92A1B23B EQ PUSH2 0x3A JUMPI PUSH0 DUP1 REVERT JUMPDEST CALLVALUE PUSH2 0xCA JUMPI PUSH1 0x20 CALLDATASIZE PUSH1 0x3 NOT ADD SLT PUSH2 0xCA JUMPI PUSH1 0x4 CALLDATALOAD PUSH1 0x1 PUSH1 0x1 PUSH1 0xA0 SHL SUB DUP2 AND SWAP1 DUP2 SWAP1 SUB PUSH2 0xCA JUMPI PUSH0 MSTORE PUSH0 PUSH1 0x20 MSTORE PUSH2 0xAA PUSH1 0x40 PUSH0 KECCAK256 PUSH2 0xC6 PUSH2 0x79 DUP3 PUSH2 0xB8A JUMP JUMPDEST SWAP2 PUSH2 0xB8 PUSH2 0x95 PUSH1 0x4 PUSH2 0x8E PUSH1 0x1 DUP6 ADD PUSH2 0xB8A JUMP JUMPDEST SWAP4 ADD PUSH2 0xB8A JUMP JUMPDEST SWAP2 PUSH1 0x40 MLOAD SWAP6 DUP7 SWAP6 PUSH1 0x60 DUP8 MSTORE PUSH1 0x60 DUP8 ADD SWAP1 PUSH2 0x9C5 JUMP JUMPDEST SWAP1 DUP6 DUP3 SUB PUSH1 0x20 DUP8 ADD MSTORE PUSH2 0x9C5 JUMP JUMPDEST SWAP1 DUP4 DUP3 SUB PUSH1 0x40 DUP6 ADD MSTORE PUSH2 0x9C5 JUMP JUMPDEST SUB SWAP1 RETURN JUMPDEST PUSH0 DUP1 REVERT JUMPDEST CALLVALUE PUSH2 0xCA JUMPI PUSH1 0xA0 CALLDATASIZE PUSH1 0x3 NOT ADD SLT PUSH2 0xCA JUMPI PUSH1 0x4 CALLDATALOAD PUSH1 0x1 PUSH1 0x1 PUSH1 0x40 SHL SUB DUP2 GT PUSH2 0xCA JUMPI PUSH2 0xFE SWAP1 CALLDATASIZE SWAP1 PUSH1 0x4 ADD PUSH2 0xA66 JUMP JUMPDEST PUSH1 0x24 CALLDATALOAD PUSH1 0x1 PUSH1 0x1 PUSH1 0x40 SHL SUB DUP2 GT PUSH2 0xCA JUMPI PUSH2 0x11D SWAP1 CALLDATASIZE SWAP1 PUSH1 0x4 ADD PUSH2 0xA66 JUMP JUMPDEST PUSH1 0x44 CALLDATALOAD PUSH1 0x1 PUSH1 0x1 PUSH1 0x40 SHL SUB DUP2 GT PUSH2 0xCA JUMPI PUSH2 0x13C SWAP1 CALLDATASIZE SWAP1 PUSH1 0x4 ADD PUSH2 0xAD2 JUMP JUMPDEST SWAP1 PUSH1 0x64 CALLDATALOAD PUSH1 0x1 PUSH1 0x1 PUSH1 0x40 SHL SUB DUP2 GT PUSH2 0xCA JUMPI PUSH2 0x15C SWAP1 CALLDATASIZE SWAP1 PUSH1 0x4 ADD PUSH2 0xAD2 JUMP JUMPDEST SWAP1 PUSH1 0x84 CALLDATALOAD PUSH1 0x1 PUSH1 0x1 PUSH1 0x40 SHL SUB DUP2 GT PUSH2 0xCA JUMPI PUSH2 0x17C SWAP1 CALLDATASIZE SWAP1 PUSH1 0x4 ADD PUSH2 0xA66 JUMP JUMPDEST SWAP2 CALLER PUSH0 MSTORE PUSH0 PUSH1 0x20 MSTORE PUSH1 0x40 PUSH0 KECCAK256 DUP6 MLOAD PUSH1 0x1 PUSH1 0x1 PUSH1 0x40 SHL SUB DUP2 GT PUSH2 0x485 JUMPI PUSH2 0x1A2 DUP3 SLOAD PUSH2 0xB52 JUMP JUMPDEST PUSH1 0x1F DUP2 GT PUSH2 0x8AD JUMPI JUMPDEST POP DUP1 PUSH1 0x20 PUSH1 0x1F DUP3 GT PUSH1 0x1 EQ PUSH2 0x849 JUMPI PUSH0 SWAP2 PUSH2 0x83E JUMPI JUMPDEST POP DUP2 PUSH1 0x1 SHL SWAP2 PUSH0 NOT SWAP1 PUSH1 0x3 SHL SHR NOT AND OR SWAP1 SSTORE JUMPDEST CALLER PUSH0 MSTORE PUSH0 PUSH1 0x20 MSTORE PUSH1 0x1 PUSH1 0x40 PUSH0 KECCAK256 ADD DUP3 MLOAD PUSH1 0x1 PUSH1 0x1 PUSH1 0x40 SHL SUB DUP2 GT PUSH2 0x485 JUMPI PUSH2 0x1FC DUP3 SLOAD PUSH2 0xB52 JUMP JUMPDEST PUSH1 0x1F DUP2 GT PUSH2 0x80E JUMPI JUMPDEST POP DUP1 PUSH1 0x20 PUSH1 0x1F DUP3 GT PUSH1 0x1 EQ PUSH2 0x7AB JUMPI PUSH0 SWAP2 PUSH2 0x7A0 JUMPI JUMPDEST POP DUP2 PUSH1 0x1 SHL SWAP2 PUSH0 NOT SWAP1 PUSH1 0x3 SHL SHR NOT AND OR SWAP1 SSTORE JUMPDEST CALLER PUSH0 MSTORE PUSH0 PUSH1 0x20 MSTORE PUSH1 0x2 PUSH1 0x40 PUSH0 KECCAK256 ADD DUP5 MLOAD PUSH1 0x1 PUSH1 0x40 SHL DUP2 GT PUSH2 0x485 JUMPI DUP2 SLOAD DUP2 DUP4 SSTORE DUP1 DUP3 LT PUSH2 0x72F JUMPI JUMPDEST POP PUSH1 0x20 DUP7 ADD SWAP2 PUSH0 MSTORE PUSH1 0x20 PUSH0 KECCAK256 SWAP2 PUSH0 SWAP1 JUMPDEST DUP3 DUP3 LT PUSH2 0x622 JUMPI POP POP POP POP CALLER PUSH0 MSTORE PUSH0 PUSH1 0x20 MSTORE PUSH1 0x3 PUSH1 0x40 PUSH0 KECCAK256 ADD DUP2 MLOAD PUSH1 0x1 PUSH1 0x40 SHL DUP2 GT PUSH2 0x485 JUMPI DUP2 SLOAD DUP2 DUP4 SSTORE DUP1 DUP3 LT PUSH2 0x5B1 JUMPI JUMPDEST POP PUSH1 0x20 DUP4 ADD SWAP2 PUSH0 MSTORE PUSH1 0x20 PUSH0 KECCAK256 SWAP2 PUSH0 SWAP1 JUMPDEST DUP3 DUP3 LT PUSH2 0x499 JUMPI POP POP POP POP CALLER PUSH0 MSTORE PUSH0 PUSH1 0x20 MSTORE PUSH1 0x4 PUSH1 0x40 PUSH0 KECCAK256 ADD SWAP5 DUP4 MLOAD SWAP6 PUSH1 0x1 PUSH1 0x1 PUSH1 0x40 SHL SUB DUP8 GT PUSH2 0x485 JUMPI PUSH2 0x2DE DUP2 SLOAD PUSH2 0xB52 JUMP JUMPDEST PUSH1 0x1F DUP2 GT PUSH2 0x44A JUMPI JUMPDEST POP PUSH1 0x20 SWAP7 PUSH1 0x1F DUP2 GT PUSH1 0x1 EQ PUSH2 0x3B2 JUMPI SWAP3 PUSH2 0x385 PUSH2 0x35D PUSH2 0x3A2 SWAP5 PUSH2 0x393 SWAP5 DUP8 PUSH2 0x377 SWAP10 SWAP9 PUSH32 0x981FCFD4E48AE5B4EA31F02A5C5B7B669C510F9FEA5C9B39FF7388BEE8B8C5C4 SWAP12 SWAP13 SWAP14 PUSH0 SWAP2 PUSH2 0x3A7 JUMPI JUMPDEST POP DUP2 PUSH1 0x1 SHL SWAP2 PUSH0 NOT SWAP1 PUSH1 0x3 SHL SHR NOT AND OR SWAP1 SSTORE JUMPDEST PUSH1 0x20 PUSH1 0x40 MLOAD SWAP3 DUP3 DUP5 DUP1 SWAP5 MLOAD SWAP4 DUP5 SWAP3 ADD PUSH2 0x9A4 JUMP JUMPDEST DUP2 ADD SUB SWAP1 KECCAK256 SWAP9 PUSH1 0x40 MLOAD SWAP7 DUP8 SWAP7 PUSH1 0x80 DUP9 MSTORE PUSH1 0x80 DUP9 ADD SWAP1 PUSH2 0x9C5 JUMP JUMPDEST SWAP1 DUP7 DUP3 SUB PUSH1 0x20 DUP9 ADD MSTORE PUSH2 0x9EA JUMP JUMPDEST SWAP1 DUP5 DUP3 SUB PUSH1 0x40 DUP7 ADD MSTORE PUSH2 0x9EA JUMP JUMPDEST DUP3 DUP2 SUB PUSH1 0x60 DUP5 ADD MSTORE CALLER SWAP6 PUSH2 0x9C5 JUMP JUMPDEST SUB SWAP1 LOG3 STOP JUMPDEST SWAP1 POP DUP13 ADD MLOAD DUP15 PUSH2 0x336 JUMP JUMPDEST PUSH1 0x1F NOT DUP2 AND DUP3 PUSH0 MSTORE PUSH1 0x20 PUSH0 KECCAK256 SWAP1 PUSH0 JUMPDEST DUP2 DUP2 LT PUSH2 0x432 JUMPI POP PUSH2 0x3A2 SWAP5 PUSH2 0x393 SWAP5 PUSH1 0x1 DUP6 PUSH2 0x385 SWAP6 DUP13 SWAP14 SWAP15 PUSH32 0x981FCFD4E48AE5B4EA31F02A5C5B7B669C510F9FEA5C9B39FF7388BEE8B8C5C4 SWAP14 PUSH2 0x377 SWAP14 SWAP13 SWAP10 PUSH2 0x35D SWAP9 LT PUSH2 0x41A JUMPI JUMPDEST POP POP POP DUP2 SHL ADD SWAP1 SSTORE PUSH2 0x349 JUMP JUMPDEST ADD MLOAD PUSH0 NOT PUSH1 0xF8 DUP5 PUSH1 0x3 SHL AND SHR NOT AND SWAP1 SSTORE DUP15 DUP1 DUP15 PUSH2 0x40D JUMP JUMPDEST DUP9 DUP12 ADD MLOAD DUP4 SSTORE PUSH1 0x20 SWAP11 DUP12 ADD SWAP11 PUSH1 0x1 SWAP1 SWAP4 ADD SWAP3 ADD PUSH2 0x3C1 JUMP JUMPDEST PUSH2 0x475 SWAP1 DUP3 PUSH0 MSTORE PUSH1 0x20 PUSH0 KECCAK256 PUSH1 0x1F DUP11 ADD PUSH1 0x5 SHR DUP2 ADD SWAP2 PUSH1 0x20 DUP12 LT PUSH2 0x47B JUMPI JUMPDEST PUSH1 0x1F ADD PUSH1 0x5 SHR ADD SWAP1 PUSH2 0xC2B JUMP JUMPDEST DUP8 PUSH2 0x2E7 JUMP JUMPDEST SWAP1 SWAP2 POP DUP2 SWAP1 PUSH2 0x468 JUMP JUMPDEST PUSH4 0x4E487B71 PUSH1 0xE0 SHL PUSH0 MSTORE PUSH1 0x41 PUSH1 0x4 MSTORE PUSH1 0x24 PUSH0 REVERT JUMPDEST DUP1 MLOAD DUP1 MLOAD SWAP1 PUSH1 0x1 PUSH1 0x1 PUSH1 0x40 SHL SUB DUP3 GT PUSH2 0x485 JUMPI PUSH2 0x4B6 DUP7 SLOAD PUSH2 0xB52 JUMP JUMPDEST PUSH1 0x1F DUP2 GT PUSH2 0x576 JUMPI JUMPDEST POP PUSH1 0x20 SWAP1 PUSH1 0x1F DUP4 GT PUSH1 0x1 EQ PUSH2 0x50A JUMPI SWAP3 DUP3 PUSH1 0x1 SWAP5 SWAP4 PUSH1 0x20 SWAP4 DUP7 SWAP6 PUSH0 SWAP3 PUSH2 0x4FF JUMPI JUMPDEST POP POP PUSH0 NOT PUSH1 0x3 DUP4 SWAP1 SHL SHR NOT AND SWAP1 DUP5 SHL OR DUP8 SSTORE JUMPDEST ADD SWAP5 ADD SWAP2 ADD SWAP1 SWAP3 PUSH2 0x2A9 JUMP JUMPDEST ADD MLOAD SWAP1 POP DUP15 DUP1 PUSH2 0x4E0 JUMP JUMPDEST SWAP1 DUP7 PUSH0 MSTORE PUSH1 0x20 PUSH0 KECCAK256 SWAP2 PUSH0 JUMPDEST PUSH1 0x1F NOT DUP6 AND DUP2 LT PUSH2 0x55E JUMPI POP DUP4 PUSH1 0x20 SWAP4 PUSH1 0x1 SWAP7 SWAP4 DUP8 SWAP7 SWAP4 DUP8 SWAP5 PUSH1 0x1F NOT DUP2 AND LT PUSH2 0x546 JUMPI JUMPDEST POP POP POP DUP2 SHL ADD DUP8 SSTORE PUSH2 0x4F3 JUMP JUMPDEST ADD MLOAD PUSH0 NOT PUSH1 0xF8 DUP5 PUSH1 0x3 SHL AND SHR NOT AND SWAP1 SSTORE DUP15 DUP1 DUP1 PUSH2 0x539 JUMP JUMPDEST SWAP2 SWAP3 PUSH1 0x20 PUSH1 0x1 DUP2 SWAP3 DUP7 DUP6 ADD MLOAD DUP2 SSTORE ADD SWAP5 ADD SWAP3 ADD PUSH2 0x515 JUMP JUMPDEST PUSH2 0x5A1 SWAP1 DUP8 PUSH0 MSTORE PUSH1 0x20 PUSH0 KECCAK256 PUSH1 0x5 PUSH1 0x1F DUP7 ADD DUP2 SHR DUP3 ADD SWAP3 PUSH1 0x20 DUP8 LT PUSH2 0x5A7 JUMPI JUMPDEST PUSH1 0x1F ADD SWAP1 SHR ADD SWAP1 PUSH2 0xC2B JUMP JUMPDEST DUP12 PUSH2 0x4BF JUMP JUMPDEST SWAP2 SWAP3 POP DUP3 SWAP2 PUSH2 0x595 JUMP JUMPDEST DUP3 PUSH0 MSTORE PUSH1 0x20 PUSH0 KECCAK256 SWAP1 DUP3 DUP3 ADD JUMPDEST DUP2 DUP4 ADD DUP2 LT PUSH2 0x5CD JUMPI POP POP PUSH2 0x299 JUMP JUMPDEST DUP1 PUSH2 0x5DA PUSH1 0x1 SWAP3 SLOAD PUSH2 0xB52 JUMP JUMPDEST DUP1 PUSH2 0x5E7 JUMPI JUMPDEST POP ADD PUSH2 0x5BD JUMP JUMPDEST PUSH1 0x1F DUP2 GT DUP4 EQ PUSH2 0x5FC JUMPI POP PUSH0 DUP2 SSTORE JUMPDEST DUP12 PUSH2 0x5E0 JUMP JUMPDEST PUSH0 SWAP1 DUP3 DUP3 MSTORE PUSH2 0x619 PUSH1 0x1F PUSH1 0x20 DUP5 KECCAK256 SWAP3 ADD PUSH1 0x5 SHR DUP3 ADD DUP6 DUP4 ADD PUSH2 0xC2B JUMP JUMPDEST DUP2 DUP4 SSTORE SSTORE PUSH2 0x5F6 JUMP JUMPDEST DUP1 MLOAD DUP1 MLOAD SWAP1 PUSH1 0x1 PUSH1 0x1 PUSH1 0x40 SHL SUB DUP3 GT PUSH2 0x485 JUMPI PUSH2 0x63F DUP7 SLOAD PUSH2 0xB52 JUMP JUMPDEST PUSH1 0x1F DUP2 GT PUSH2 0x6FF JUMPI JUMPDEST POP PUSH1 0x20 SWAP1 PUSH1 0x1F DUP4 GT PUSH1 0x1 EQ PUSH2 0x693 JUMPI SWAP3 DUP3 PUSH1 0x1 SWAP5 SWAP4 PUSH1 0x20 SWAP4 DUP7 SWAP6 PUSH0 SWAP3 PUSH2 0x688 JUMPI JUMPDEST POP POP PUSH0 NOT PUSH1 0x3 DUP4 SWAP1 SHL SHR NOT AND SWAP1 DUP5 SHL OR DUP8 SSTORE JUMPDEST ADD SWAP5 ADD SWAP2 ADD SWAP1 SWAP3 PUSH2 0x266 JUMP JUMPDEST ADD MLOAD SWAP1 POP DUP15 DUP1 PUSH2 0x669 JUMP JUMPDEST SWAP1 DUP7 PUSH0 MSTORE PUSH1 0x20 PUSH0 KECCAK256 SWAP2 PUSH0 JUMPDEST PUSH1 0x1F NOT DUP6 AND DUP2 LT PUSH2 0x6E7 JUMPI POP DUP4 PUSH1 0x20 SWAP4 PUSH1 0x1 SWAP7 SWAP4 DUP8 SWAP7 SWAP4 DUP8 SWAP5 PUSH1 0x1F NOT DUP2 AND LT PUSH2 0x6CF JUMPI JUMPDEST POP POP POP DUP2 SHL ADD DUP8 SSTORE PUSH2 0x67C JUMP JUMPDEST ADD MLOAD PUSH0 NOT PUSH1 0xF8 DUP5 PUSH1 0x3 SHL AND SHR NOT AND SWAP1 SSTORE DUP15 DUP1 DUP1 PUSH2 0x6C2 JUMP JUMPDEST SWAP2 SWAP3 PUSH1 0x20 PUSH1 0x1 DUP2 SWAP3 DUP7 DUP6 ADD MLOAD DUP2 SSTORE ADD SWAP5 ADD SWAP3 ADD PUSH2 0x69E JUMP JUMPDEST PUSH2 0x729 SWAP1 DUP8 PUSH0 MSTORE PUSH1 0x20 PUSH0 KECCAK256 PUSH1 0x5 PUSH1 0x1F DUP7 ADD DUP2 SHR DUP3 ADD SWAP3 PUSH1 0x20 DUP8 LT PUSH2 0x5A7 JUMPI PUSH1 0x1F ADD SWAP1 SHR ADD SWAP1 PUSH2 0xC2B JUMP JUMPDEST DUP12 PUSH2 0x648 JUMP JUMPDEST DUP3 PUSH0 MSTORE PUSH1 0x20 PUSH0 KECCAK256 SWAP1 DUP3 DUP3 ADD JUMPDEST DUP2 DUP4 ADD DUP2 LT PUSH2 0x74B JUMPI POP POP PUSH2 0x256 JUMP JUMPDEST DUP1 PUSH2 0x758 PUSH1 0x1 SWAP3 SLOAD PUSH2 0xB52 JUMP JUMPDEST DUP1 PUSH2 0x765 JUMPI JUMPDEST POP ADD PUSH2 0x73B JUMP JUMPDEST PUSH1 0x1F DUP2 GT DUP4 EQ PUSH2 0x77A JUMPI POP PUSH0 DUP2 SSTORE JUMPDEST DUP12 PUSH2 0x75E JUMP JUMPDEST PUSH0 SWAP1 DUP3 DUP3 MSTORE PUSH2 0x797 PUSH1 0x1F PUSH1 0x20 DUP5 KECCAK256 SWAP3 ADD PUSH1 0x5 SHR DUP3 ADD DUP6 DUP4 ADD PUSH2 0xC2B JUMP JUMPDEST DUP2 DUP4 SSTORE SSTORE PUSH2 0x774 JUMP JUMPDEST SWAP1 POP DUP5 ADD MLOAD DUP9 PUSH2 0x21B JUMP JUMPDEST SWAP2 POP DUP3 PUSH0 MSTORE PUSH1 0x20 PUSH0 KECCAK256 PUSH0 SWAP3 JUMPDEST PUSH1 0x1F NOT DUP4 AND DUP5 LT PUSH2 0x7F6 JUMPI PUSH1 0x1 SWAP4 POP DUP3 PUSH1 0x1F NOT DUP2 AND LT PUSH2 0x7DE JUMPI JUMPDEST POP POP DUP2 SHL ADD SWAP1 SSTORE PUSH2 0x22E JUMP JUMPDEST DUP7 ADD MLOAD PUSH0 NOT PUSH1 0xF8 DUP5 PUSH1 0x3 SHL AND SHR NOT AND SWAP1 SSTORE DUP9 DUP1 PUSH2 0x7D2 JUMP JUMPDEST DUP7 DUP2 ADD MLOAD DUP3 SSTORE PUSH1 0x20 SWAP4 DUP5 ADD SWAP4 PUSH1 0x1 SWAP1 SWAP3 ADD SWAP2 ADD PUSH2 0x7B7 JUMP JUMPDEST PUSH2 0x838 SWAP1 DUP4 PUSH0 MSTORE PUSH1 0x20 PUSH0 KECCAK256 PUSH1 0x1F DUP5 ADD PUSH1 0x5 SHR DUP2 ADD SWAP2 PUSH1 0x20 DUP6 LT PUSH2 0x47B JUMPI PUSH1 0x1F ADD PUSH1 0x5 SHR ADD SWAP1 PUSH2 0xC2B JUMP JUMPDEST DUP8 PUSH2 0x205 JUMP JUMPDEST SWAP1 POP DUP8 ADD MLOAD DUP9 PUSH2 0x1C1 JUMP JUMPDEST PUSH0 DUP5 DUP2 MSTORE PUSH1 0x20 DUP2 KECCAK256 SWAP3 POP PUSH1 0x1F NOT DUP5 AND SWAP1 JUMPDEST DUP11 DUP3 DUP3 LT PUSH2 0x895 JUMPI POP POP SWAP1 DUP4 PUSH1 0x1 SWAP5 SWAP4 SWAP3 LT PUSH2 0x87D JUMPI JUMPDEST POP POP DUP2 SHL ADD SWAP1 SSTORE PUSH2 0x1D4 JUMP JUMPDEST DUP10 ADD MLOAD PUSH0 NOT PUSH1 0xF8 DUP5 PUSH1 0x3 SHL AND SHR NOT AND SWAP1 SSTORE DUP9 DUP1 PUSH2 0x871 JUMP JUMPDEST PUSH1 0x1 DUP5 SWAP6 PUSH1 0x20 SWAP4 SWAP6 DUP5 SWAP4 ADD MLOAD DUP2 SSTORE ADD SWAP5 ADD SWAP3 ADD PUSH2 0x85A JUMP JUMPDEST PUSH2 0x8D7 SWAP1 DUP4 PUSH0 MSTORE PUSH1 0x20 PUSH0 KECCAK256 PUSH1 0x1F DUP5 ADD PUSH1 0x5 SHR DUP2 ADD SWAP2 PUSH1 0x20 DUP6 LT PUSH2 0x47B JUMPI PUSH1 0x1F ADD PUSH1 0x5 SHR ADD SWAP1 PUSH2 0xC2B JUMP JUMPDEST DUP8 PUSH2 0x1AB JUMP JUMPDEST CALLVALUE PUSH2 0xCA JUMPI PUSH1 0x20 CALLDATASIZE PUSH1 0x3 NOT ADD SLT PUSH2 0xCA JUMPI PUSH1 0x4 CALLDATALOAD PUSH1 0x1 PUSH1 0x1 PUSH1 0xA0 SHL SUB DUP2 AND SWAP1 DUP2 SWAP1 SUB PUSH2 0xCA JUMPI PUSH0 MSTORE PUSH0 PUSH1 0x20 MSTORE PUSH2 0x96C PUSH1 0x40 PUSH0 KECCAK256 PUSH2 0xC6 PUSH2 0x91C DUP3 PUSH2 0xB8A JUMP JUMPDEST SWAP2 PUSH2 0x996 PUSH2 0x92C PUSH1 0x1 DUP4 ADD PUSH2 0xB8A JUMP JUMPDEST SWAP2 PUSH2 0x988 PUSH2 0x93C PUSH1 0x2 DUP4 ADD PUSH2 0xC41 JUMP JUMPDEST PUSH2 0x97A PUSH2 0x957 PUSH1 0x4 PUSH2 0x950 PUSH1 0x3 DUP8 ADD PUSH2 0xC41 JUMP JUMPDEST SWAP6 ADD PUSH2 0xB8A JUMP JUMPDEST SWAP6 PUSH1 0x40 MLOAD SWAP10 DUP11 SWAP10 PUSH1 0xA0 DUP12 MSTORE PUSH1 0xA0 DUP12 ADD SWAP1 PUSH2 0x9C5 JUMP JUMPDEST SWAP1 DUP10 DUP3 SUB PUSH1 0x20 DUP12 ADD MSTORE PUSH2 0x9C5 JUMP JUMPDEST SWAP1 DUP8 DUP3 SUB PUSH1 0x40 DUP10 ADD MSTORE PUSH2 0x9EA JUMP JUMPDEST SWAP1 DUP6 DUP3 SUB PUSH1 0x60 DUP8 ADD MSTORE PUSH2 0x9EA JUMP JUMPDEST SWAP1 DUP4 DUP3 SUB PUSH1 0x80 DUP6 ADD MSTORE PUSH2 0x9C5 JUMP JUMPDEST PUSH0 JUMPDEST DUP4 DUP2 LT PUSH2 0x9B5 JUMPI POP POP PUSH0 SWAP2 ADD MSTORE JUMP JUMPDEST DUP2 DUP2 ADD MLOAD DUP4 DUP3 ADD MSTORE PUSH1 0x20 ADD PUSH2 0x9A6 JUMP JUMPDEST SWAP1 PUSH1 0x20 SWAP2 PUSH2 0x9DE DUP2 MLOAD DUP1 SWAP3 DUP2 DUP6 MSTORE DUP6 DUP1 DUP7 ADD SWAP2 ADD PUSH2 0x9A4 JUMP JUMPDEST PUSH1 0x1F ADD PUSH1 0x1F NOT AND ADD ADD SWAP1 JUMP JUMPDEST SWAP1 DUP1 DUP3 MLOAD SWAP1 DUP2 DUP2 MSTORE PUSH1 0x20 DUP1 SWAP2 ADD SWAP3 DUP2 DUP1 DUP5 PUSH1 0x5 SHL DUP4 ADD ADD SWAP6 ADD SWAP4 PUSH0 SWAP2 JUMPDEST DUP5 DUP4 LT PUSH2 0xA17 JUMPI POP POP POP POP POP POP SWAP1 JUMP JUMPDEST SWAP1 SWAP2 SWAP3 SWAP4 SWAP5 SWAP6 DUP5 DUP1 PUSH2 0xA35 PUSH1 0x1 SWAP4 PUSH1 0x1F NOT DUP7 DUP3 SUB ADD DUP8 MSTORE DUP11 MLOAD PUSH2 0x9C5 JUMP JUMPDEST SWAP9 ADD SWAP4 ADD SWAP4 ADD SWAP2 SWAP5 SWAP4 SWAP3 SWAP1 PUSH2 0xA07 JUMP JUMPDEST SWAP1 PUSH1 0x1F DUP1 NOT SWAP2 ADD AND DUP2 ADD SWAP1 DUP2 LT PUSH1 0x1 PUSH1 0x1 PUSH1 0x40 SHL SUB DUP3 GT OR PUSH2 0x485 JUMPI PUSH1 0x40 MSTORE JUMP JUMPDEST DUP2 PUSH1 0x1F DUP3 ADD SLT ISZERO PUSH2 0xCA JUMPI DUP1 CALLDATALOAD SWAP1 PUSH1 0x1 PUSH1 0x1 PUSH1 0x40 SHL SUB DUP3 GT PUSH2 0x485 JUMPI PUSH1 0x40 MLOAD SWAP3 PUSH2 0xA9A PUSH1 0x1F DUP5 ADD PUSH1 0x1F NOT AND PUSH1 0x20 ADD DUP6 PUSH2 0xA45 JUMP JUMPDEST DUP3 DUP5 MSTORE PUSH1 0x20 DUP4 DUP4 ADD ADD GT PUSH2 0xCA JUMPI DUP2 PUSH0 SWAP3 PUSH1 0x20 DUP1 SWAP4 ADD DUP4 DUP7 ADD CALLDATACOPY DUP4 ADD ADD MSTORE SWAP1 JUMP JUMPDEST PUSH1 0x1 PUSH1 0x1 PUSH1 0x40 SHL SUB DUP2 GT PUSH2 0x485 JUMPI PUSH1 0x5 SHL PUSH1 0x20 ADD SWAP1 JUMP JUMPDEST SWAP1 DUP1 PUSH1 0x1F DUP4 ADD SLT ISZERO PUSH2 0xCA JUMPI DUP2 CALLDATALOAD SWAP1 PUSH2 0xAEA DUP3 PUSH2 0xABB JUMP JUMPDEST SWAP3 PUSH2 0xAF8 PUSH1 0x40 MLOAD SWAP5 DUP6 PUSH2 0xA45 JUMP JUMPDEST DUP3 DUP5 MSTORE PUSH1 0x20 SWAP3 DUP4 DUP1 DUP7 ADD SWAP2 PUSH1 0x5 SHL DUP4 ADD ADD SWAP3 DUP1 DUP5 GT PUSH2 0xCA JUMPI DUP5 DUP4 ADD SWAP2 JUMPDEST DUP5 DUP4 LT PUSH2 0xB26 JUMPI POP POP POP POP POP POP SWAP1 JUMP JUMPDEST DUP3 CALLDATALOAD PUSH1 0x1 PUSH1 0x1 PUSH1 0x40 SHL SUB DUP2 GT PUSH2 0xCA JUMPI DUP7 SWAP2 PUSH2 0xB47 DUP5 DUP5 DUP1 SWAP5 DUP10 ADD ADD PUSH2 0xA66 JUMP JUMPDEST DUP2 MSTORE ADD SWAP3 ADD SWAP2 PUSH2 0xB16 JUMP JUMPDEST SWAP1 PUSH1 0x1 DUP3 DUP2 SHR SWAP3 AND DUP1 ISZERO PUSH2 0xB80 JUMPI JUMPDEST PUSH1 0x20 DUP4 LT EQ PUSH2 0xB6C JUMPI JUMP JUMPDEST PUSH4 0x4E487B71 PUSH1 0xE0 SHL PUSH0 MSTORE PUSH1 0x22 PUSH1 0x4 MSTORE PUSH1 0x24 PUSH0 REVERT JUMPDEST SWAP2 PUSH1 0x7F AND SWAP2 PUSH2 0xB61 JUMP JUMPDEST SWAP1 PUSH1 0x40 MLOAD SWAP2 DUP3 PUSH0 DUP3 SLOAD SWAP3 PUSH2 0xB9D DUP5 PUSH2 0xB52 JUMP JUMPDEST SWAP1 DUP2 DUP5 MSTORE PUSH1 0x1 SWAP5 DUP6 DUP2 AND SWAP1 DUP2 PUSH0 EQ PUSH2 0xC08 JUMPI POP PUSH1 0x1 EQ PUSH2 0xBC8 JUMPI JUMPDEST POP POP PUSH2 0xBC6 SWAP3 POP SUB DUP4 PUSH2 0xA45 JUMP JUMPDEST JUMP JUMPDEST SWAP1 SWAP4 SWAP2 POP PUSH0 MSTORE PUSH1 0x20 SWAP1 DUP2 PUSH0 KECCAK256 SWAP4 PUSH0 SWAP2 JUMPDEST DUP2 DUP4 LT PUSH2 0xBF0 JUMPI POP POP PUSH2 0xBC6 SWAP4 POP DUP3 ADD ADD PUSH0 DUP1 PUSH2 0xBB8 JUMP JUMPDEST DUP6 SLOAD DUP9 DUP5 ADD DUP6 ADD MSTORE SWAP5 DUP6 ADD SWAP5 DUP8 SWAP5 POP SWAP2 DUP4 ADD SWAP2 PUSH2 0xBD8 JUMP JUMPDEST SWAP2 POP POP PUSH2 0xBC6 SWAP5 POP PUSH1 0x20 SWAP3 POP PUSH1 0xFF NOT AND DUP3 DUP5 ADD MSTORE ISZERO ISZERO PUSH1 0x5 SHL DUP3 ADD ADD PUSH0 DUP1 PUSH2 0xBB8 JUMP JUMPDEST DUP2 DUP2 LT PUSH2 0xC36 JUMPI POP POP JUMP JUMPDEST PUSH0 DUP2 SSTORE PUSH1 0x1 ADD PUSH2 0xC2B JUMP JUMPDEST SWAP1 DUP2 SLOAD PUSH2 0xC4D DUP2 PUSH2 0xABB JUMP JUMPDEST SWAP3 PUSH2 0xC5B PUSH1 0x40 MLOAD SWAP5 DUP6 PUSH2 0xA45 JUMP JUMPDEST DUP2 DUP5 MSTORE PUSH0 SWAP1 DUP2 MSTORE PUSH1 0x20 DUP1 DUP3 KECCAK256 DUP2 DUP7 ADD JUMPDEST DUP5 DUP5 LT PUSH2 0xC79 JUMPI POP POP POP POP POP JUMP JUMPDEST PUSH1 0x1 DUP4 DUP2 SWAP3 PUSH2 0xC87 DUP6 PUSH2 0xB8A JUMP JUMPDEST DUP2 MSTORE ADD SWAP3 ADD SWAP4 ADD SWAP3 SWAP1 PUSH2 0xC6B JUMP INVALID LOG2 PUSH5 0x6970667358 0x22 SLT KECCAK256 SWAP3 0xA9 SELFBALANCE PUSH1 0x17 PUSH1 0x4 RETURNDATASIZE PUSH29 0x39E8B4988915BB2E9060CFA8E9AE92C26CCAD30248357164736F6C6343 STOP ADDMOD EQ STOP CALLER "},"methodIdentifiers":{"MembersInfo(address)":"92a1b23b","getMemberInfo(address)":"5f1231ea","updateMemberInfo(string,string,string[],string[],string)":"8cddee08"}}}}}