{"contracts/learntgether.sol":{"learntgether":{"abi":[{"inputs":[{"internalType":"address","name":"_linkTokenAddress","type":"address"},{"internalType":"address","name":"_automationAddress","type":"address"},{"internalType":"uint256","name":"_feePrice","type":"uint256"}],"stateMutability":"nonpayable","type":"constructor"},{"anonymous":false,"inputs":[{"indexed":true,"internalType":"string","name":"subjectName","type":"string"},{"indexed":true,"internalType":"address","name":"reviewer","type":"address"}],"name":"CredsAdded","type":"event"},{"anonymous":false,"inputs":[{"indexed":true,"internalType":"string","name":"subjectName","type":"string"},{"indexed":true,"internalType":"address","name":"reviewer","type":"address"}],"name":"CredsRemoved","type":"event"},{"anonymous":false,"inputs":[{"indexed":false,"internalType":"address","name":"proposer","type":"address"},{"indexed":false,"internalType":"string","name":"subjectName","type":"string"},{"indexed":false,"internalType":"uint256","name":"numReviewsForAcceptance","type":"uint256"},{"indexed":false,"internalType":"uint256","name":"credsNeededForReview","type":"uint256"},{"indexed":false,"internalType":"uint256","name":"percentAcceptsNeeded","type":"uint256"},{"indexed":false,"internalType":"uint256","name":"minCredsToProposeVote","type":"uint256"},{"indexed":false,"internalType":"uint256","name":"minCredsToVote","type":"uint256"},{"indexed":false,"internalType":"uint256","name":"maxCredsCountedForVote","type":"uint256"},{"indexed":false,"internalType":"uint256","name":"minProposalVotes","type":"uint256"},{"indexed":false,"internalType":"uint256","name":"timestamp","type":"uint256"}],"name":"ProposalCreated","type":"event"},{"anonymous":false,"inputs":[{"indexed":true,"internalType":"string","name":"subjectName","type":"string"},{"indexed":true,"internalType":"address","name":"reviewerAddress","type":"address"}],"name":"ReviewerAdded","type":"event"},{"anonymous":false,"inputs":[{"indexed":true,"internalType":"string","name":"subjectName","type":"string"},{"indexed":false,"internalType":"address","name":"creator","type":"address"},{"indexed":false,"internalType":"uint256","name":"numReviewsForAcceptance","type":"uint256"},{"indexed":false,"internalType":"uint256","name":"credsNeededForReview","type":"uint256"},{"indexed":false,"internalType":"uint256","name":"percentAcceptsNeeded","type":"uint256"},{"indexed":false,"internalType":"uint256","name":"minCredsToProposeVote","type":"uint256"},{"indexed":false,"internalType":"uint256","name":"minCredsToVote","type":"uint256"},{"indexed":false,"internalType":"uint256","name":"maxCredsCountedForVote","type":"uint256"},{"indexed":false,"internalType":"uint256","name":"minProposalVotes","type":"uint256"}],"name":"SubjectCreated","type":"event"},{"anonymous":false,"inputs":[{"indexed":true,"internalType":"uint256","name":"proposalId","type":"uint256"},{"indexed":true,"internalType":"address","name":"voter","type":"address"},{"indexed":false,"internalType":"bool","name":"voteChoice","type":"bool"}],"name":"Voted","type":"event"},{"inputs":[],"name":"AutomationContract","outputs":[{"internalType":"contract ChainlinkAutomation","name":"","type":"address"}],"stateMutability":"view","type":"function"},{"inputs":[{"internalType":"string","name":"_subjectName","type":"string"},{"internalType":"address","name":"_reviewer","type":"address"}],"name":"addCredsToReviewer","outputs":[],"stateMutability":"nonpayable","type":"function"},{"inputs":[{"internalType":"string","name":"_subjectName","type":"string"},{"internalType":"string","name":"_name","type":"string"},{"internalType":"string","name":"_description","type":"string"},{"internalType":"string[]","name":"_degrees","type":"string[]"},{"internalType":"string[]","name":"_awards","type":"string[]"}],"name":"addSelfAsReviewer","outputs":[],"stateMutability":"nonpayable","type":"function"},{"inputs":[{"internalType":"bytes","name":"","type":"bytes"}],"name":"checkUpKeep","outputs":[{"internalType":"bool","name":"upkeepNeeded","type":"bool"},{"internalType":"bytes","name":"","type":"bytes"}],"stateMutability":"view","type":"function"},{"inputs":[{"internalType":"string","name":"_subjectName","type":"string"},{"internalType":"uint256","name":"_numReviewsForAcceptance","type":"uint256"},{"internalType":"uint256","name":"_credsNeededForReview","type":"uint256"},{"internalType":"uint256","name":"_percentAcceptsNeeded","type":"uint256"},{"internalType":"uint256","name":"_minCredsToProposeVote","type":"uint256"},{"internalType":"uint256","name":"_minCredsToVote","type":"uint256"},{"internalType":"uint256","name":"_maxCredsCountedForVote","type":"uint256"},{"internalType":"uint256","name":"_minProposalVotes","type":"uint256"}],"name":"createSubject","outputs":[],"stateMutability":"nonpayable","type":"function"},{"inputs":[{"internalType":"bytes","name":"","type":"bytes"}],"name":"performUpkeep","outputs":[],"stateMutability":"nonpayable","type":"function"},{"inputs":[],"name":"proposalFeeInLink","outputs":[{"internalType":"uint256","name":"","type":"uint256"}],"stateMutability":"view","type":"function"},{"inputs":[{"internalType":"uint256","name":"","type":"uint256"}],"name":"proposals","outputs":[{"internalType":"address","name":"proposer","type":"address"},{"internalType":"string","name":"subjectName","type":"string"},{"internalType":"uint256","name":"numReviewsForAcceptance","type":"uint256"},{"internalType":"uint256","name":"credsNeededForReview","type":"uint256"},{"internalType":"uint256","name":"percentAcceptsNeeded","type":"uint256"},{"internalType":"uint256","name":"minCredsToProposeVote","type":"uint256"},{"internalType":"uint256","name":"minCredsToVote","type":"uint256"},{"internalType":"uint256","name":"maxCredsCountedForVote","type":"uint256"},{"internalType":"uint256","name":"minProposalVotes","type":"uint256"},{"internalType":"uint256","name":"timestamp","type":"uint256"},{"internalType":"uint256","name":"yesVotes","type":"uint256"},{"internalType":"uint256","name":"noVotes","type":"uint256"},{"internalType":"uint256","name":"yesCreds","type":"uint256"},{"internalType":"uint256","name":"noCreds","type":"uint256"}],"stateMutability":"view","type":"function"},{"inputs":[{"internalType":"string","name":"_subjectName","type":"string"},{"internalType":"uint256","name":"_numReviewsForAcceptance","type":"uint256"},{"internalType":"uint256","name":"_credsNeededForReview","type":"uint256"},{"internalType":"uint256","name":"_percentAcceptsNeeded","type":"uint256"},{"internalType":"uint256","name":"_minCredsToProposeVote","type":"uint256"},{"internalType":"uint256","name":"_minCredsToVote","type":"uint256"},{"internalType":"uint256","name":"_maxCredsCountedForVote","type":"uint256"},{"internalType":"uint256","name":"_minProposalVotes","type":"uint256"}],"name":"propose","outputs":[],"stateMutability":"nonpayable","type":"function"},{"inputs":[{"internalType":"string","name":"_subjectName","type":"string"},{"internalType":"address","name":"_reviewer","type":"address"}],"name":"removeCredsFromReviewer","outputs":[],"stateMutability":"nonpayable","type":"function"},{"inputs":[{"internalType":"address","name":"_contractAddress","type":"address"}],"name":"setAutomationRegistry","outputs":[],"stateMutability":"nonpayable","type":"function"},{"inputs":[{"internalType":"uint256","name":"_feePrice","type":"uint256"}],"name":"setFee","outputs":[],"stateMutability":"nonpayable","type":"function"},{"inputs":[{"internalType":"uint256","name":"_votetime","type":"uint256"}],"name":"setOpenVoteTime","outputs":[],"stateMutability":"nonpayable","type":"function"},{"inputs":[{"internalType":"uint256","name":"_upkeepId","type":"uint256"}],"name":"setUpkkepId","outputs":[],"stateMutability":"nonpayable","type":"function"},{"inputs":[{"internalType":"uint256","name":"","type":"uint256"}],"name":"subjectNames","outputs":[{"internalType":"string","name":"","type":"string"}],"stateMutability":"view","type":"function"},{"inputs":[{"internalType":"string","name":"","type":"string"}],"name":"subjects","outputs":[{"internalType":"address","name":"creator","type":"address"},{"internalType":"uint256","name":"numReviewsForAcceptance","type":"uint256"},{"internalType":"uint256","name":"credsNeededForReview","type":"uint256"},{"internalType":"uint256","name":"percentAcceptsNeeded","type":"uint256"},{"internalType":"uint256","name":"minCredsToProposeVote","type":"uint256"},{"internalType":"uint256","name":"minCredsToVote","type":"uint256"},{"internalType":"uint256","name":"maxCredsCountedForVote","type":"uint256"},{"internalType":"uint256","name":"minProposalVotes","type":"uint256"}],"stateMutability":"view","type":"function"},{"inputs":[{"internalType":"uint256","name":"proposalId","type":"uint256"},{"internalType":"bool","name":"voteChoice","type":"bool"}],"name":"vote","outputs":[],"stateMutability":"nonpayable","type":"function"}],"evm":{"bytecode":{"linkReferences":{},"object":"608034620000a557601f62001f2e38819003918201601f19168301916001600160401b03831184841017620000a957808492606094604052833981010312620000a5576200004d81620000bd565b9060406200005e60208301620000bd565b9101519160018060a01b0319913383600654161760065560018060a01b0380921683600554161760055516906009541617600955600755604051611e5b9081620000d38239f35b5f80fd5b634e487b7160e01b5f52604160045260245ffd5b51906001600160a01b0382168203620000a55756fe6040608081526004361015610012575f80fd5b5f803560e01c8063013cf08b146116f057806318f6b962146114a85780633371ef7d1461127b578063408958d6146112525780634585e33b1461106d5780635787a0cc1461103d578063585e01e414610de65780635e6c102e14610d5c5780635ff2d2aa14610d0e57806369fe0e2d14610cde57806374daa149146108985780637823e226146108795780638640f71814610849578063ac92333414610458578063c9d27afe146101db578063fc687c80146101735763fe290423146100d6575f80fd5b34610170576020366003190112610170576004356001600160401b03811161016c5761011f9161010c6020923690600401611922565b90828551948386809551938492016118dc565b8201908152030190209061016860018060a01b03835416916002840154936003810154600482015460058301549060068401549260086007860154950154955198899889611b48565b0390f35b5080fd5b80fd5b50903461016c57602036600319011261016c576004356001548110156101d75761019c90611ad2565b9290926101c357506101b06101689261183b565b90519182916020835260208301906118fd565b634e487b7160e01b81526004819052602490fd5b8280fd5b50346101705781600319360112610170576004359160249283358015159283820361045457600454831015610417578285526020916002835281862096600191610226838a0161183b565b9184518484519188818d8289019561023f8184896118dc565b82019081520301902001335f5287526102643360018060a01b03885f20541614611cfe565b600e8b0193335f5284885260ff875f2054166103da578786926102919289519384928392519283916118dc565b81018d81520301902001335f52865283855f20015460068b015481106103975760078b0154908181111561038f5750915b1561034057600a8a0180549185830180931161032e57507ff2913dbe661ee2acc4a046d8fbcdc792373bda34c41c6086484b5345e5785e5f9798999a61030f92600c925501918254611dbf565b90555b335f528352815f209060ff19825416179055519384523393a380f35b634e487b7160e01b8b5260116004528afd5b600b8a0180549185830180931161032e57507ff2913dbe661ee2acc4a046d8fbcdc792373bda34c41c6086484b5345e5785e5f9798999a61038892600d925501918254611dbf565b9055610312565b9050916102c2565b855162461bcd60e51b815260048101889052601b818401527f496e73756666696369656e7420637265647320746f20766f74652e00000000006044820152606490fd5b865162461bcd60e51b815260048101899052601781850152762cb7ba903430bb329030b63932b0b23c903b37ba32b21760491b6044820152606490fd5b5162461bcd60e51b81526020600482015260188187015277283937b837b9b0b6103237b2b9903737ba1032bc34b9ba1760411b6044820152606490fd5b8480fd5b5080913461084657610469366119bc565b9460018060a09b999a989b9693969594951b0360055416600754908851916323b872dd60e01b835233600484015230602484015260448301528160648160209c8d945af1908115610720578c9161080c575b50156107d2578651895190898b01916104d58183856118dc565b81018d81528190038a019020546001600160a01b0316156107965787600561056e8b8f948e95855196805161050b818a866118dc565b8801828152888560019a8b93030190200133835284526105373360018060a01b03898520541614611cfe565b8787518581845161054981838a6118dc565b81018681520301902001338352845287878320015496519485938492519283916118dc565b820190815203019020015411610752576004548c5260028952878c2080546001600160a01b031916331781556105a68b838301611b9d565b8b6002820155826003820155836004820155846005820155856006820155866007820155876008820155600942910155600454600354600160401b81101561073e57906105fb82846106139401600355611b30565b90919082549060031b91821b915f19901b1916179055565b6004545f19811461072a570160045560018060a01b03600954168b600a5460075490833b156101d757604490838c51958694859363085f452560e41b8552600485015260248401525af18015610720576106d6575b507f3f33fae0a54ff18815b236d9451459bb96255ffc3c13b43794e8507ad23db453996106a688519a8b9a338c5261014080918d01528b01906118fd565b978901526060880152608087015260a086015260c085015260e0840152610100830152426101208301520390a180f35b6001600160401b03811161070c5787527f3f33fae0a54ff18815b236d9451459bb96255ffc3c13b43794e8507ad23db453610668565b634e487b7160e01b8c52604160045260248cfd5b88513d8e823e3d90fd5b634e487b7160e01b8d52601160045260248dfd5b634e487b7160e01b8e52604160045260248efd5b875162461bcd60e51b8152600481018a9052601e60248201527f496e73756666696369656e7420637265647320746f2070726f706f73652e00006044820152606490fd5b875162461bcd60e51b8152600481018a9052601560248201527414dd589a9958dd08191bd95cdb89dd08195e1a5cdd605a1b6044820152606490fd5b865162461bcd60e51b8152600481018990526013602482015272119959481d1c985b9cd9995c8819985a5b1959606a1b6044820152606490fd5b90508881813d831161083f575b6108238183611806565b8101031261083b5751801515810361083b575f6104bb565b8b80fd5b503d610819565b50fd5b50346101705760203660031901126101705761087060018060a01b03600654163314611de0565b60043560085580f35b50903461016c578160031936011261016c576020906007549051908152f35b50903461016c5760a036600319011261016c576001600160401b0390600435828111610cda576108cc903690600401611922565b91602435818111610454576108e5903690600401611922565b604435828111610cd6576108fd903690600401611922565b90606435838111610cd257610916903690600401611a4f565b92608435908111610cd25761092f903690600401611a4f565b84519486519360209384890195610947818a896118dc565b88018a8152888660019a8b930301902001338b52855260018060a01b03838b205416610c795790610a02610a3492896109e8888a8f8f858b518581845161098f81838a6118dc565b8101868152030190200133835284528a82203360018060a01b0319825416179055858b51858184516109c281838a6118dc565b81018681520301902001338352845281868c822001558a519485938492519283916118dc565b82019081520301902001338d5287526003858d2001611b9d565b87610a1a86888d8d88519485938492519283916118dc565b82019081520301902001338b5285526004838b2001611b9d565b85815184818a51610a4681838b6118dc565b81018c815203019020338a520183528088208551600160401b966005969287019088831161070c5786908c84845491818655828210610bf7575b50505091818b959394929401908d52838d208d915b838310610bd45750505050839291610aba918b600696519384928392519283916118dc565b81018d81520301902001338a528452882001928151948511610bc0578354858555839291818710610b46575b50500191865280862086925b848410610b2b578733610b0489611c99565b7fbdfa00028aa6c888a03528a2075ea227b56f2f5182dcf6691bc7c5e37220b2898380a380f35b858382610b3a83945186611b9d565b01920193019290610af2565b858a528787858c2093840193015b838110610b62575050610ae6565b9091929394508a610b7382546117ce565b80610b87575b505001908785949392610b54565b601f808211600114610b9f57505081555b8a5f610b79565b610bb7908484528984209201861c8201858301611b87565b81835555610b98565b634e487b7160e01b88526041600452602488fd5b9485610be7889496989395975186611b9d565b01920192018a9492889492610a95565b8d9150858152868582209384019301905b838210610c19579050869150610a80565b909192939450610c2982546117ce565b80610c3d575b505001908b8993928f610c08565b8b8d601f808411600114610c59575050505081555b8e5f610c2f565b610c709286865285209301901c8201858301611b87565b81835555610c52565b825162461bcd60e51b815260048101869052602c60248201527f596f752061726520616c7265616479206120726576696577657220666f72207460448201526b3434b99039bab13532b1ba1760a11b6064820152608490fd5b8680fd5b8580fd5b8380fd5b503461017057602036600319011261017057610d0560018060a01b03600654163314611de0565b60043560075580f35b5034610170576020366003190112610170576004356001600160a01b03818116918290036101d757610d4590600654163314611de0565b600980546001600160a01b03191691909117905580f35b50903461016c57610d6c36611a06565b5050610d76611afe565b90549060031b1c825260209060028252610d996009828520015460085490611dbf565b42119080519384928352818484015260609384518093850152815b838110610dd1575050828201840152601f01601f19168101030190f35b60808101518782018701528694508101610db4565b503461017057610df53661197b565b908351918151946020610e3181850197610e1081888b6118dc565b86018781528690038201909520546001600160a01b03959086161515611cb9565b610ea08251938551610e4481878c6118dc565b85018881528584600197889303019020013389528352610e6a3388868b20541614611cfe565b8685610e81858c8851809381928d519283916118dc565b81018d815203019020019116968791828a528452848920541614611d5b565b843314610ff157828251828180610ebb8c8a519283916118dc565b81018a815203019020018587528152600282872001338752815260ff8287205416610f9957828251828180610ef48c8a519283916118dc565b81018a8152030190200185875281528282872001805490848201809211610f855782610f5e9798998693610f3393558551809381928a519283916118dc565b81018b815203019020018688528152600282882001903388525285209060ff19825416179055611c99565b7f5e36b8330e422094fde705d9432461ca3ff3b9404457b25fd96baf77b605a6748380a380f35b634e487b7160e01b88526011600452602488fd5b608491519062461bcd60e51b82526004820152602d60248201527f596f7527766520616c726561647920676976656e2061206372656420746f207460448201526c3434b9903932bb34b2bbb2b91760991b6064820152fd5b608491519062461bcd60e51b82526004820152602160248201527f596f752063616e6e6f742061646420637265647320746f20796f757273656c666044820152601760f91b6064820152fd5b50346101705760203660031901126101705761106460018060a01b03600654163314611de0565b600435600a5580f35b50903461016c5761107d36611a06565b5050611087611afe565b919054600392831b1c8352602090600282526110ac6009828620015460085490611dbf565b42116110b6578380f35b6110be611afe565b905490841b1c84526002825280842091600a830154600b8401541080611241575b611172575b505050805460018111611133575b50805490811561111f575f199182019161110b83611b30565b9091825491841b1b19169055555f80808380f35b634e487b7160e01b83526031600452602483fd5b5f19810190811161115e5761114a61115891611b30565b905490831b1c6105fb611afe565b5f6110f2565b634e487b7160e01b83526011600452602483fd5b60018084019251928691815491611188836117ce565b9282811690811561122757506001146111f6575b505050916008929181838886955203019020926002810154600285015584810154858501556004810154600485015560058101546005850155600681015460068501556007810154600785015501549101555f80806110e4565b885283882091925087915b8383106112165750505082018183600861119c565b805486840152918401918101611201565b60ff1916875250505080151502830190508183600861119c565b50600c830154600d840154106110df565b50903461016c578160031936011261016c5760095490516001600160a01b039091168152602090f35b50903461016c5761128b366119bc565b949688949194939293518151602091828401916112a98183856118dc565b81018d815281900383019020546001600160a01b031661146a576113c488926008928e8e8e8e825186818c516112e081838b6118dc565b81018781520301902080546001600160a01b0319163317905582518a51600291908890829061131081838c6118dc565b81018881520301902001556003825186818c5161132e81838b6118dc565b8101878152030190200155886004825186818c5161134d81838b6118dc565b8101878152030190200155896005825186818c5161136c81838b6118dc565b81018781520301902001558a6006825186818c5161138b81838b6118dc565b81018781520301902001558b6007825186818c516113aa81838b6118dc565b8101878152030190200155518094819389519283916118dc565b8201908152030190200155600154600160401b811015611456578060016113ee9201600155611ad2565b61144257916114308261142b61143c9896947f9c96cead8f7fc8142f1af61e373480446b35d81bb5dfa183fd3880c45df68ad59c9b9a9896611b9d565b611c99565b99519788973389611b48565b0390a280f35b634e487b7160e01b8b5260048b905260248bfd5b634e487b7160e01b8b52604160045260248bfd5b8a5162461bcd60e51b815260048101839052601760248201527629bab13532b1ba1030b63932b0b23c9032bc34b9ba399760491b6044820152606490fd5b5034610170576114b73661197b565b92908151918151946020906114f5828501976114d481888b6118dc565b86018781528690038301909520546001600160a01b03959086161515611cb9565b611564835191855161150881858c6118dc565b8301888152838560019586930301902001338952845261152e3388878b20541614611cfe565b8683611545868c8951809381928d519283916118dc565b81018d815203019020019116968791828a528552858920541614611d5b565b84331461169e5780835183818061157f8c8a519283916118dc565b81018a815203019020018587528252600283872001338752825260ff838720541615611648578083518381806115b98c8a519283916118dc565b81018a815203019020868852018252828620810180545f19810191908211610f85576116219697986115f89285925585518093819289519283916118dc565b81018a81520301902086885201815281862033875260020190528420805460ff19169055611c99565b7f1e8a0a2dcb862255253b893b953460b9526eb6c2bc86fd2d3163a449b3d3d7b48380a380f35b50608491519062461bcd60e51b82526004820152602a60248201527f596f7520686176656e277420676976656e2061206372656420746f2074686973604482015269103932bb34b2bbb2b91760b11b6064820152fd5b50608491519062461bcd60e51b82526004820152602660248201527f596f752063616e6e6f742072656d6f76652063726564732066726f6d20796f756044820152653939b2b6331760d11b6064820152fd5b50903461016c57602036600319011261016c57600435825260026020529081902080546001600160a01b0316826117296001840161183b565b9260028101546003820154600483015460058401546006850154600786015490600887015492600988015494600a89015496600b8a015498600c8b01549a600d01549b519e8f9e8f9e8f9081526101c0908160208201520161178a916118fd565b9d015260608d015260808c015260a08b015260c08a015260e08901526101008801526101208701526101408601526101608501526101808401526101a08301520390f35b90600182811c921680156117fc575b60208310146117e857565b634e487b7160e01b5f52602260045260245ffd5b91607f16916117dd565b90601f801991011681019081106001600160401b0382111761182757604052565b634e487b7160e01b5f52604160045260245ffd5b9060405191825f82549261184e846117ce565b9081845260019485811690815f146118b95750600114611879575b505061187792500383611806565b565b909391505f52602090815f20935f915b8183106118a157505061187793508201015f80611869565b85548884018501529485019487945091830191611889565b91505061187794506020925060ff191682840152151560051b8201015f80611869565b5f5b8381106118ed5750505f910152565b81810151838201526020016118de565b90602091611916815180928185528580860191016118dc565b601f01601f1916010190565b81601f82011215611977578035906001600160401b0382116118275760405192611956601f8401601f191660200185611806565b8284526020838301011161197757815f926020809301838601378301015290565b5f80fd5b604060031982011261197757600435906001600160401b038211611977576119a591600401611922565b906024356001600160a01b03811681036119775790565b61010060031982011261197757600435906001600160401b038211611977576119e791600401611922565b906024359060443590606435906084359060a4359060c4359060e43590565b906020600319830112611977576004356001600160401b039283821161197757806023830112156119775781600401359384116119775760248483010111611977576024019190565b9080601f83011215611977578135906001600160401b0392838311611827578260051b60405194602094611a8586840188611806565b865284808701928401019380851161197757858401925b858410611aad575050505050505090565b8335838111611977578791611ac7848480948a0101611922565b815201930192611a9c565b600154811015611aea5760015f5260205f2001905f90565b634e487b7160e01b5f52603260045260245ffd5b60035415611aea5760035f9081527fc2575a0e9e593c00f959f8c92f12db2869c3395a3b0502d05e2516446f71f85b91565b600354811015611aea5760035f5260205f2001905f90565b94919260e0969399989794919961010087019a60018060a01b03168752602087015260408601526060850152608084015260a083015260c08201520152565b818110611b92575050565b5f8155600101611b87565b91909182516001600160401b03811161182757611bba82546117ce565b601f8111611c5e575b50602080601f8311600114611bfe5750819293945f92611bf3575b50508160011b915f199060031b1c1916179055565b015190505f80611bde565b90601f19831695845f52825f20925f905b888210611c4657505083600195969710611c2e575b505050811b019055565b01515f1960f88460031b161c191690555f8080611c24565b80600185968294968601518155019501930190611c0f565b611c8990835f5260205f20601f840160051c81019160208510611c8f575b601f0160051c0190611b87565b5f611bc3565b9091508190611c7c565b611cb1906020604051928284809451938492016118dc565b810103902090565b15611cc057565b60405162461bcd60e51b815260206004820152601660248201527529bab13532b1ba103237b2b9b713ba1032bc34b9ba1760511b6044820152606490fd5b15611d0557565b60405162461bcd60e51b815260206004820152602860248201527f596f7520617265206e6f74206120726576696577657220666f7220746869732060448201526739bab13532b1ba1760c11b6064820152608490fd5b15611d6257565b60405162461bcd60e51b815260206004820152602f60248201527f54617267657420726576696577657220646f65736e277420657869737420666f60448201526e39103a3434b99039bab13532b1ba1760891b6064820152608490fd5b91908201809211611dcc57565b634e487b7160e01b5f52601160045260245ffd5b15611de757565b60405162461bcd60e51b81526020600482015260166024820152752737ba103a34329031b7b73a3930b1ba1037bbb732b960511b6044820152606490fdfea26469706673582212209a2e1e9b602a1e88631cb5731a41263b38e541f442ec4899f9341c925bd83a8864736f6c63430008140033","opcodes":"PUSH1 0x80 CALLVALUE PUSH3 0xA5 JUMPI PUSH1 0x1F PUSH3 0x1F2E CODESIZE DUP2 SWAP1 SUB SWAP2 DUP3 ADD PUSH1 0x1F NOT AND DUP4 ADD SWAP2 PUSH1 0x1 PUSH1 0x1 PUSH1 0x40 SHL SUB DUP4 GT DUP5 DUP5 LT OR PUSH3 0xA9 JUMPI DUP1 DUP5 SWAP3 PUSH1 0x60 SWAP5 PUSH1 0x40 MSTORE DUP4 CODECOPY DUP2 ADD SUB SLT PUSH3 0xA5 JUMPI PUSH3 0x4D DUP2 PUSH3 0xBD JUMP JUMPDEST SWAP1 PUSH1 0x40 PUSH3 0x5E PUSH1 0x20 DUP4 ADD PUSH3 0xBD JUMP JUMPDEST SWAP2 ADD MLOAD SWAP2 PUSH1 0x1 DUP1 PUSH1 0xA0 SHL SUB NOT SWAP2 CALLER DUP4 PUSH1 0x6 SLOAD AND OR PUSH1 0x6 SSTORE PUSH1 0x1 DUP1 PUSH1 0xA0 SHL SUB DUP1 SWAP3 AND DUP4 PUSH1 0x5 SLOAD AND OR PUSH1 0x5 SSTORE AND SWAP1 PUSH1 0x9 SLOAD AND OR PUSH1 0x9 SSTORE PUSH1 0x7 SSTORE PUSH1 0x40 MLOAD PUSH2 0x1E5B SWAP1 DUP2 PUSH3 0xD3 DUP3 CODECOPY RETURN JUMPDEST PUSH0 DUP1 REVERT JUMPDEST PUSH4 0x4E487B71 PUSH1 0xE0 SHL PUSH0 MSTORE PUSH1 0x41 PUSH1 0x4 MSTORE PUSH1 0x24 PUSH0 REVERT JUMPDEST MLOAD SWAP1 PUSH1 0x1 PUSH1 0x1 PUSH1 0xA0 SHL SUB DUP3 AND DUP3 SUB PUSH3 0xA5 JUMPI JUMP INVALID PUSH1 0x40 PUSH1 0x80 DUP2 MSTORE PUSH1 0x4 CALLDATASIZE LT ISZERO PUSH2 0x12 JUMPI PUSH0 DUP1 REVERT JUMPDEST PUSH0 DUP1 CALLDATALOAD PUSH1 0xE0 SHR DUP1 PUSH4 0x13CF08B EQ PUSH2 0x16F0 JUMPI DUP1 PUSH4 0x18F6B962 EQ PUSH2 0x14A8 JUMPI DUP1 PUSH4 0x3371EF7D EQ PUSH2 0x127B JUMPI DUP1 PUSH4 0x408958D6 EQ PUSH2 0x1252 JUMPI DUP1 PUSH4 0x4585E33B EQ PUSH2 0x106D JUMPI DUP1 PUSH4 0x5787A0CC EQ PUSH2 0x103D JUMPI DUP1 PUSH4 0x585E01E4 EQ PUSH2 0xDE6 JUMPI DUP1 PUSH4 0x5E6C102E EQ PUSH2 0xD5C JUMPI DUP1 PUSH4 0x5FF2D2AA EQ PUSH2 0xD0E JUMPI DUP1 PUSH4 0x69FE0E2D EQ PUSH2 0xCDE JUMPI DUP1 PUSH4 0x74DAA149 EQ PUSH2 0x898 JUMPI DUP1 PUSH4 0x7823E226 EQ PUSH2 0x879 JUMPI DUP1 PUSH4 0x8640F718 EQ PUSH2 0x849 JUMPI DUP1 PUSH4 0xAC923334 EQ PUSH2 0x458 JUMPI DUP1 PUSH4 0xC9D27AFE EQ PUSH2 0x1DB JUMPI DUP1 PUSH4 0xFC687C80 EQ PUSH2 0x173 JUMPI PUSH4 0xFE290423 EQ PUSH2 0xD6 JUMPI PUSH0 DUP1 REVERT JUMPDEST CALLVALUE PUSH2 0x170 JUMPI PUSH1 0x20 CALLDATASIZE PUSH1 0x3 NOT ADD SLT PUSH2 0x170 JUMPI PUSH1 0x4 CALLDATALOAD PUSH1 0x1 PUSH1 0x1 PUSH1 0x40 SHL SUB DUP2 GT PUSH2 0x16C JUMPI PUSH2 0x11F SWAP2 PUSH2 0x10C PUSH1 0x20 SWAP3 CALLDATASIZE SWAP1 PUSH1 0x4 ADD PUSH2 0x1922 JUMP JUMPDEST SWAP1 DUP3 DUP6 MLOAD SWAP5 DUP4 DUP7 DUP1 SWAP6 MLOAD SWAP4 DUP5 SWAP3 ADD PUSH2 0x18DC JUMP JUMPDEST DUP3 ADD SWAP1 DUP2 MSTORE SUB ADD SWAP1 KECCAK256 SWAP1 PUSH2 0x168 PUSH1 0x1 DUP1 PUSH1 0xA0 SHL SUB DUP4 SLOAD AND SWAP2 PUSH1 0x2 DUP5 ADD SLOAD SWAP4 PUSH1 0x3 DUP2 ADD SLOAD PUSH1 0x4 DUP3 ADD SLOAD PUSH1 0x5 DUP4 ADD SLOAD SWAP1 PUSH1 0x6 DUP5 ADD SLOAD SWAP3 PUSH1 0x8 PUSH1 0x7 DUP7 ADD SLOAD SWAP6 ADD SLOAD SWAP6 MLOAD SWAP9 DUP10 SWAP9 DUP10 PUSH2 0x1B48 JUMP JUMPDEST SUB SWAP1 RETURN JUMPDEST POP DUP1 REVERT JUMPDEST DUP1 REVERT JUMPDEST POP SWAP1 CALLVALUE PUSH2 0x16C JUMPI PUSH1 0x20 CALLDATASIZE PUSH1 0x3 NOT ADD SLT PUSH2 0x16C JUMPI PUSH1 0x4 CALLDATALOAD PUSH1 0x1 SLOAD DUP2 LT ISZERO PUSH2 0x1D7 JUMPI PUSH2 0x19C SWAP1 PUSH2 0x1AD2 JUMP JUMPDEST SWAP3 SWAP1 SWAP3 PUSH2 0x1C3 JUMPI POP PUSH2 0x1B0 PUSH2 0x168 SWAP3 PUSH2 0x183B JUMP JUMPDEST SWAP1 MLOAD SWAP2 DUP3 SWAP2 PUSH1 0x20 DUP4 MSTORE PUSH1 0x20 DUP4 ADD SWAP1 PUSH2 0x18FD JUMP JUMPDEST PUSH4 0x4E487B71 PUSH1 0xE0 SHL DUP2 MSTORE PUSH1 0x4 DUP2 SWAP1 MSTORE PUSH1 0x24 SWAP1 REVERT JUMPDEST DUP3 DUP1 REVERT JUMPDEST POP CALLVALUE PUSH2 0x170 JUMPI DUP2 PUSH1 0x3 NOT CALLDATASIZE ADD SLT PUSH2 0x170 JUMPI PUSH1 0x4 CALLDATALOAD SWAP2 PUSH1 0x24 SWAP3 DUP4 CALLDATALOAD DUP1 ISZERO ISZERO SWAP3 DUP4 DUP3 SUB PUSH2 0x454 JUMPI PUSH1 0x4 SLOAD DUP4 LT ISZERO PUSH2 0x417 JUMPI DUP3 DUP6 MSTORE PUSH1 0x20 SWAP2 PUSH1 0x2 DUP4 MSTORE DUP2 DUP7 KECCAK256 SWAP7 PUSH1 0x1 SWAP2 PUSH2 0x226 DUP4 DUP11 ADD PUSH2 0x183B JUMP JUMPDEST SWAP2 DUP5 MLOAD DUP5 DUP5 MLOAD SWAP2 DUP9 DUP2 DUP14 DUP3 DUP10 ADD SWAP6 PUSH2 0x23F DUP2 DUP5 DUP10 PUSH2 0x18DC JUMP JUMPDEST DUP3 ADD SWAP1 DUP2 MSTORE SUB ADD SWAP1 KECCAK256 ADD CALLER PUSH0 MSTORE DUP8 MSTORE PUSH2 0x264 CALLER PUSH1 0x1 DUP1 PUSH1 0xA0 SHL SUB DUP9 PUSH0 KECCAK256 SLOAD AND EQ PUSH2 0x1CFE JUMP JUMPDEST PUSH1 0xE DUP12 ADD SWAP4 CALLER PUSH0 MSTORE DUP5 DUP9 MSTORE PUSH1 0xFF DUP8 PUSH0 KECCAK256 SLOAD AND PUSH2 0x3DA JUMPI DUP8 DUP7 SWAP3 PUSH2 0x291 SWAP3 DUP10 MLOAD SWAP4 DUP5 SWAP3 DUP4 SWAP3 MLOAD SWAP3 DUP4 SWAP2 PUSH2 0x18DC JUMP JUMPDEST DUP2 ADD DUP14 DUP2 MSTORE SUB ADD SWAP1 KECCAK256 ADD CALLER PUSH0 MSTORE DUP7 MSTORE DUP4 DUP6 PUSH0 KECCAK256 ADD SLOAD PUSH1 0x6 DUP12 ADD SLOAD DUP2 LT PUSH2 0x397 JUMPI PUSH1 0x7 DUP12 ADD SLOAD SWAP1 DUP2 DUP2 GT ISZERO PUSH2 0x38F JUMPI POP SWAP2 JUMPDEST ISZERO PUSH2 0x340 JUMPI PUSH1 0xA DUP11 ADD DUP1 SLOAD SWAP2 DUP6 DUP4 ADD DUP1 SWAP4 GT PUSH2 0x32E JUMPI POP PUSH32 0xF2913DBE661EE2ACC4A046D8FBCDC792373BDA34C41C6086484B5345E5785E5F SWAP8 SWAP9 SWAP10 SWAP11 PUSH2 0x30F SWAP3 PUSH1 0xC SWAP3 SSTORE ADD SWAP2 DUP3 SLOAD PUSH2 0x1DBF JUMP JUMPDEST SWAP1 SSTORE JUMPDEST CALLER PUSH0 MSTORE DUP4 MSTORE DUP2 PUSH0 KECCAK256 SWAP1 PUSH1 0xFF NOT DUP3 SLOAD AND OR SWAP1 SSTORE MLOAD SWAP4 DUP5 MSTORE CALLER SWAP4 LOG3 DUP1 RETURN JUMPDEST PUSH4 0x4E487B71 PUSH1 0xE0 SHL DUP12 MSTORE PUSH1 0x11 PUSH1 0x4 MSTORE DUP11 REVERT JUMPDEST PUSH1 0xB DUP11 ADD DUP1 SLOAD SWAP2 DUP6 DUP4 ADD DUP1 SWAP4 GT PUSH2 0x32E JUMPI POP PUSH32 0xF2913DBE661EE2ACC4A046D8FBCDC792373BDA34C41C6086484B5345E5785E5F SWAP8 SWAP9 SWAP10 SWAP11 PUSH2 0x388 SWAP3 PUSH1 0xD SWAP3 SSTORE ADD SWAP2 DUP3 SLOAD PUSH2 0x1DBF JUMP JUMPDEST SWAP1 SSTORE PUSH2 0x312 JUMP JUMPDEST SWAP1 POP SWAP2 PUSH2 0x2C2 JUMP JUMPDEST DUP6 MLOAD PUSH3 0x461BCD PUSH1 0xE5 SHL DUP2 MSTORE PUSH1 0x4 DUP2 ADD DUP9 SWAP1 MSTORE PUSH1 0x1B DUP2 DUP5 ADD MSTORE PUSH32 0x496E73756666696369656E7420637265647320746F20766F74652E0000000000 PUSH1 0x44 DUP3 ADD MSTORE PUSH1 0x64 SWAP1 REVERT JUMPDEST DUP7 MLOAD PUSH3 0x461BCD PUSH1 0xE5 SHL DUP2 MSTORE PUSH1 0x4 DUP2 ADD DUP10 SWAP1 MSTORE PUSH1 0x17 DUP2 DUP6 ADD MSTORE PUSH23 0x2CB7BA903430BB329030B63932B0B23C903B37BA32B217 PUSH1 0x49 SHL PUSH1 0x44 DUP3 ADD MSTORE PUSH1 0x64 SWAP1 REVERT JUMPDEST MLOAD PUSH3 0x461BCD PUSH1 0xE5 SHL DUP2 MSTORE PUSH1 0x20 PUSH1 0x4 DUP3 ADD MSTORE PUSH1 0x18 DUP2 DUP8 ADD MSTORE PUSH24 0x283937B837B9B0B6103237B2B9903737BA1032BC34B9BA17 PUSH1 0x41 SHL PUSH1 0x44 DUP3 ADD MSTORE PUSH1 0x64 SWAP1 REVERT JUMPDEST DUP5 DUP1 REVERT JUMPDEST POP DUP1 SWAP2 CALLVALUE PUSH2 0x846 JUMPI PUSH2 0x469 CALLDATASIZE PUSH2 0x19BC JUMP JUMPDEST SWAP5 PUSH1 0x1 DUP1 PUSH1 0xA0 SWAP12 SWAP10 SWAP11 SWAP9 SWAP12 SWAP7 SWAP4 SWAP7 SWAP6 SWAP5 SWAP6 SHL SUB PUSH1 0x5 SLOAD AND PUSH1 0x7 SLOAD SWAP1 DUP9 MLOAD SWAP2 PUSH4 0x23B872DD PUSH1 0xE0 SHL DUP4 MSTORE CALLER PUSH1 0x4 DUP5 ADD MSTORE ADDRESS PUSH1 0x24 DUP5 ADD MSTORE PUSH1 0x44 DUP4 ADD MSTORE DUP2 PUSH1 0x64 DUP2 PUSH1 0x20 SWAP13 DUP14 SWAP5 GAS CALL SWAP1 DUP2 ISZERO PUSH2 0x720 JUMPI DUP13 SWAP2 PUSH2 0x80C JUMPI JUMPDEST POP ISZERO PUSH2 0x7D2 JUMPI DUP7 MLOAD DUP10 MLOAD SWAP1 DUP10 DUP12 ADD SWAP2 PUSH2 0x4D5 DUP2 DUP4 DUP6 PUSH2 0x18DC JUMP JUMPDEST DUP2 ADD DUP14 DUP2 MSTORE DUP2 SWAP1 SUB DUP11 ADD SWAP1 KECCAK256 SLOAD PUSH1 0x1 PUSH1 0x1 PUSH1 0xA0 SHL SUB AND ISZERO PUSH2 0x796 JUMPI DUP8 PUSH1 0x5 PUSH2 0x56E DUP12 DUP16 SWAP5 DUP15 SWAP6 DUP6 MLOAD SWAP7 DUP1 MLOAD PUSH2 0x50B DUP2 DUP11 DUP7 PUSH2 0x18DC JUMP JUMPDEST DUP9 ADD DUP3 DUP2 MSTORE DUP9 DUP6 PUSH1 0x1 SWAP11 DUP12 SWAP4 SUB ADD SWAP1 KECCAK256 ADD CALLER DUP4 MSTORE DUP5 MSTORE PUSH2 0x537 CALLER PUSH1 0x1 DUP1 PUSH1 0xA0 SHL SUB DUP10 DUP6 KECCAK256 SLOAD AND EQ PUSH2 0x1CFE JUMP JUMPDEST DUP8 DUP8 MLOAD DUP6 DUP2 DUP5 MLOAD PUSH2 0x549 DUP2 DUP4 DUP11 PUSH2 0x18DC JUMP JUMPDEST DUP2 ADD DUP7 DUP2 MSTORE SUB ADD SWAP1 KECCAK256 ADD CALLER DUP4 MSTORE DUP5 MSTORE DUP8 DUP8 DUP4 KECCAK256 ADD SLOAD SWAP7 MLOAD SWAP5 DUP6 SWAP4 DUP5 SWAP3 MLOAD SWAP3 DUP4 SWAP2 PUSH2 0x18DC JUMP JUMPDEST DUP3 ADD SWAP1 DUP2 MSTORE SUB ADD SWAP1 KECCAK256 ADD SLOAD GT PUSH2 0x752 JUMPI PUSH1 0x4 SLOAD DUP13 MSTORE PUSH1 0x2 DUP10 MSTORE DUP8 DUP13 KECCAK256 DUP1 SLOAD PUSH1 0x1 PUSH1 0x1 PUSH1 0xA0 SHL SUB NOT AND CALLER OR DUP2 SSTORE PUSH2 0x5A6 DUP12 DUP4 DUP4 ADD PUSH2 0x1B9D JUMP JUMPDEST DUP12 PUSH1 0x2 DUP3 ADD SSTORE DUP3 PUSH1 0x3 DUP3 ADD SSTORE DUP4 PUSH1 0x4 DUP3 ADD SSTORE DUP5 PUSH1 0x5 DUP3 ADD SSTORE DUP6 PUSH1 0x6 DUP3 ADD SSTORE DUP7 PUSH1 0x7 DUP3 ADD SSTORE DUP8 PUSH1 0x8 DUP3 ADD SSTORE PUSH1 0x9 TIMESTAMP SWAP2 ADD SSTORE PUSH1 0x4 SLOAD PUSH1 0x3 SLOAD PUSH1 0x1 PUSH1 0x40 SHL DUP2 LT ISZERO PUSH2 0x73E JUMPI SWAP1 PUSH2 0x5FB DUP3 DUP5 PUSH2 0x613 SWAP5 ADD PUSH1 0x3 SSTORE PUSH2 0x1B30 JUMP JUMPDEST SWAP1 SWAP2 SWAP1 DUP3 SLOAD SWAP1 PUSH1 0x3 SHL SWAP2 DUP3 SHL SWAP2 PUSH0 NOT SWAP1 SHL NOT AND OR SWAP1 SSTORE JUMP JUMPDEST PUSH1 0x4 SLOAD PUSH0 NOT DUP2 EQ PUSH2 0x72A JUMPI ADD PUSH1 0x4 SSTORE PUSH1 0x1 DUP1 PUSH1 0xA0 SHL SUB PUSH1 0x9 SLOAD AND DUP12 PUSH1 0xA SLOAD PUSH1 0x7 SLOAD SWAP1 DUP4 EXTCODESIZE ISZERO PUSH2 0x1D7 JUMPI PUSH1 0x44 SWAP1 DUP4 DUP13 MLOAD SWAP6 DUP7 SWAP5 DUP6 SWAP4 PUSH4 0x85F4525 PUSH1 0xE4 SHL DUP6 MSTORE PUSH1 0x4 DUP6 ADD MSTORE PUSH1 0x24 DUP5 ADD MSTORE GAS CALL DUP1 ISZERO PUSH2 0x720 JUMPI PUSH2 0x6D6 JUMPI JUMPDEST POP PUSH32 0x3F33FAE0A54FF18815B236D9451459BB96255FFC3C13B43794E8507AD23DB453 SWAP10 PUSH2 0x6A6 DUP9 MLOAD SWAP11 DUP12 SWAP11 CALLER DUP13 MSTORE PUSH2 0x140 DUP1 SWAP2 DUP14 ADD MSTORE DUP12 ADD SWAP1 PUSH2 0x18FD JUMP JUMPDEST SWAP8 DUP10 ADD MSTORE PUSH1 0x60 DUP9 ADD MSTORE PUSH1 0x80 DUP8 ADD MSTORE PUSH1 0xA0 DUP7 ADD MSTORE PUSH1 0xC0 DUP6 ADD MSTORE PUSH1 0xE0 DUP5 ADD MSTORE PUSH2 0x100 DUP4 ADD MSTORE TIMESTAMP PUSH2 0x120 DUP4 ADD MSTORE SUB SWAP1 LOG1 DUP1 RETURN JUMPDEST PUSH1 0x1 PUSH1 0x1 PUSH1 0x40 SHL SUB DUP2 GT PUSH2 0x70C JUMPI DUP8 MSTORE PUSH32 0x3F33FAE0A54FF18815B236D9451459BB96255FFC3C13B43794E8507AD23DB453 PUSH2 0x668 JUMP JUMPDEST PUSH4 0x4E487B71 PUSH1 0xE0 SHL DUP13 MSTORE PUSH1 0x41 PUSH1 0x4 MSTORE PUSH1 0x24 DUP13 REVERT JUMPDEST DUP9 MLOAD RETURNDATASIZE DUP15 DUP3 RETURNDATACOPY RETURNDATASIZE SWAP1 REVERT JUMPDEST PUSH4 0x4E487B71 PUSH1 0xE0 SHL DUP14 MSTORE PUSH1 0x11 PUSH1 0x4 MSTORE PUSH1 0x24 DUP14 REVERT JUMPDEST PUSH4 0x4E487B71 PUSH1 0xE0 SHL DUP15 MSTORE PUSH1 0x41 PUSH1 0x4 MSTORE PUSH1 0x24 DUP15 REVERT JUMPDEST DUP8 MLOAD PUSH3 0x461BCD PUSH1 0xE5 SHL DUP2 MSTORE PUSH1 0x4 DUP2 ADD DUP11 SWAP1 MSTORE PUSH1 0x1E PUSH1 0x24 DUP3 ADD MSTORE PUSH32 0x496E73756666696369656E7420637265647320746F2070726F706F73652E0000 PUSH1 0x44 DUP3 ADD MSTORE PUSH1 0x64 SWAP1 REVERT JUMPDEST DUP8 MLOAD PUSH3 0x461BCD PUSH1 0xE5 SHL DUP2 MSTORE PUSH1 0x4 DUP2 ADD DUP11 SWAP1 MSTORE PUSH1 0x15 PUSH1 0x24 DUP3 ADD MSTORE PUSH21 0x14DD589A9958DD08191BD95CDB89DD08195E1A5CDD PUSH1 0x5A SHL PUSH1 0x44 DUP3 ADD MSTORE PUSH1 0x64 SWAP1 REVERT JUMPDEST DUP7 MLOAD PUSH3 0x461BCD PUSH1 0xE5 SHL DUP2 MSTORE PUSH1 0x4 DUP2 ADD DUP10 SWAP1 MSTORE PUSH1 0x13 PUSH1 0x24 DUP3 ADD MSTORE PUSH19 0x119959481D1C985B9CD9995C8819985A5B1959 PUSH1 0x6A SHL PUSH1 0x44 DUP3 ADD MSTORE PUSH1 0x64 SWAP1 REVERT JUMPDEST SWAP1 POP DUP9 DUP2 DUP2 RETURNDATASIZE DUP4 GT PUSH2 0x83F JUMPI JUMPDEST PUSH2 0x823 DUP2 DUP4 PUSH2 0x1806 JUMP JUMPDEST DUP2 ADD SUB SLT PUSH2 0x83B JUMPI MLOAD DUP1 ISZERO ISZERO DUP2 SUB PUSH2 0x83B JUMPI PUSH0 PUSH2 0x4BB JUMP JUMPDEST DUP12 DUP1 REVERT JUMPDEST POP RETURNDATASIZE PUSH2 0x819 JUMP JUMPDEST POP REVERT JUMPDEST POP CALLVALUE PUSH2 0x170 JUMPI PUSH1 0x20 CALLDATASIZE PUSH1 0x3 NOT ADD SLT PUSH2 0x170 JUMPI PUSH2 0x870 PUSH1 0x1 DUP1 PUSH1 0xA0 SHL SUB PUSH1 0x6 SLOAD AND CALLER EQ PUSH2 0x1DE0 JUMP JUMPDEST PUSH1 0x4 CALLDATALOAD PUSH1 0x8 SSTORE DUP1 RETURN JUMPDEST POP SWAP1 CALLVALUE PUSH2 0x16C JUMPI DUP2 PUSH1 0x3 NOT CALLDATASIZE ADD SLT PUSH2 0x16C JUMPI PUSH1 0x20 SWAP1 PUSH1 0x7 SLOAD SWAP1 MLOAD SWAP1 DUP2 MSTORE RETURN JUMPDEST POP SWAP1 CALLVALUE PUSH2 0x16C JUMPI PUSH1 0xA0 CALLDATASIZE PUSH1 0x3 NOT ADD SLT PUSH2 0x16C JUMPI PUSH1 0x1 PUSH1 0x1 PUSH1 0x40 SHL SUB SWAP1 PUSH1 0x4 CALLDATALOAD DUP3 DUP2 GT PUSH2 0xCDA JUMPI PUSH2 0x8CC SWAP1 CALLDATASIZE SWAP1 PUSH1 0x4 ADD PUSH2 0x1922 JUMP JUMPDEST SWAP2 PUSH1 0x24 CALLDATALOAD DUP2 DUP2 GT PUSH2 0x454 JUMPI PUSH2 0x8E5 SWAP1 CALLDATASIZE SWAP1 PUSH1 0x4 ADD PUSH2 0x1922 JUMP JUMPDEST PUSH1 0x44 CALLDATALOAD DUP3 DUP2 GT PUSH2 0xCD6 JUMPI PUSH2 0x8FD SWAP1 CALLDATASIZE SWAP1 PUSH1 0x4 ADD PUSH2 0x1922 JUMP JUMPDEST SWAP1 PUSH1 0x64 CALLDATALOAD DUP4 DUP2 GT PUSH2 0xCD2 JUMPI PUSH2 0x916 SWAP1 CALLDATASIZE SWAP1 PUSH1 0x4 ADD PUSH2 0x1A4F JUMP JUMPDEST SWAP3 PUSH1 0x84 CALLDATALOAD SWAP1 DUP2 GT PUSH2 0xCD2 JUMPI PUSH2 0x92F SWAP1 CALLDATASIZE SWAP1 PUSH1 0x4 ADD PUSH2 0x1A4F JUMP JUMPDEST DUP5 MLOAD SWAP5 DUP7 MLOAD SWAP4 PUSH1 0x20 SWAP4 DUP5 DUP10 ADD SWAP6 PUSH2 0x947 DUP2 DUP11 DUP10 PUSH2 0x18DC JUMP JUMPDEST DUP9 ADD DUP11 DUP2 MSTORE DUP9 DUP7 PUSH1 0x1 SWAP11 DUP12 SWAP4 SUB ADD SWAP1 KECCAK256 ADD CALLER DUP12 MSTORE DUP6 MSTORE PUSH1 0x1 DUP1 PUSH1 0xA0 SHL SUB DUP4 DUP12 KECCAK256 SLOAD AND PUSH2 0xC79 JUMPI SWAP1 PUSH2 0xA02 PUSH2 0xA34 SWAP3 DUP10 PUSH2 0x9E8 DUP9 DUP11 DUP16 DUP16 DUP6 DUP12 MLOAD DUP6 DUP2 DUP5 MLOAD PUSH2 0x98F DUP2 DUP4 DUP11 PUSH2 0x18DC JUMP JUMPDEST DUP2 ADD DUP7 DUP2 MSTORE SUB ADD SWAP1 KECCAK256 ADD CALLER DUP4 MSTORE DUP5 MSTORE DUP11 DUP3 KECCAK256 CALLER PUSH1 0x1 DUP1 PUSH1 0xA0 SHL SUB NOT DUP3 SLOAD AND OR SWAP1 SSTORE DUP6 DUP12 MLOAD DUP6 DUP2 DUP5 MLOAD PUSH2 0x9C2 DUP2 DUP4 DUP11 PUSH2 0x18DC JUMP JUMPDEST DUP2 ADD DUP7 DUP2 MSTORE SUB ADD SWAP1 KECCAK256 ADD CALLER DUP4 MSTORE DUP5 MSTORE DUP2 DUP7 DUP13 DUP3 KECCAK256 ADD SSTORE DUP11 MLOAD SWAP5 DUP6 SWAP4 DUP5 SWAP3 MLOAD SWAP3 DUP4 SWAP2 PUSH2 0x18DC JUMP JUMPDEST DUP3 ADD SWAP1 DUP2 MSTORE SUB ADD SWAP1 KECCAK256 ADD CALLER DUP14 MSTORE DUP8 MSTORE PUSH1 0x3 DUP6 DUP14 KECCAK256 ADD PUSH2 0x1B9D JUMP JUMPDEST DUP8 PUSH2 0xA1A DUP7 DUP9 DUP14 DUP14 DUP9 MLOAD SWAP5 DUP6 SWAP4 DUP5 SWAP3 MLOAD SWAP3 DUP4 SWAP2 PUSH2 0x18DC JUMP JUMPDEST DUP3 ADD SWAP1 DUP2 MSTORE SUB ADD SWAP1 KECCAK256 ADD CALLER DUP12 MSTORE DUP6 MSTORE PUSH1 0x4 DUP4 DUP12 KECCAK256 ADD PUSH2 0x1B9D JUMP JUMPDEST DUP6 DUP2 MLOAD DUP5 DUP2 DUP11 MLOAD PUSH2 0xA46 DUP2 DUP4 DUP12 PUSH2 0x18DC JUMP JUMPDEST DUP2 ADD DUP13 DUP2 MSTORE SUB ADD SWAP1 KECCAK256 CALLER DUP11 MSTORE ADD DUP4 MSTORE DUP1 DUP9 KECCAK256 DUP6 MLOAD PUSH1 0x1 PUSH1 0x40 SHL SWAP7 PUSH1 0x5 SWAP7 SWAP3 DUP8 ADD SWAP1 DUP9 DUP4 GT PUSH2 0x70C JUMPI DUP7 SWAP1 DUP13 DUP5 DUP5 SLOAD SWAP2 DUP2 DUP7 SSTORE DUP3 DUP3 LT PUSH2 0xBF7 JUMPI JUMPDEST POP POP POP SWAP2 DUP2 DUP12 SWAP6 SWAP4 SWAP5 SWAP3 SWAP5 ADD SWAP1 DUP14 MSTORE DUP4 DUP14 KECCAK256 DUP14 SWAP2 JUMPDEST DUP4 DUP4 LT PUSH2 0xBD4 JUMPI POP POP POP POP DUP4 SWAP3 SWAP2 PUSH2 0xABA SWAP2 DUP12 PUSH1 0x6 SWAP7 MLOAD SWAP4 DUP5 SWAP3 DUP4 SWAP3 MLOAD SWAP3 DUP4 SWAP2 PUSH2 0x18DC JUMP JUMPDEST DUP2 ADD DUP14 DUP2 MSTORE SUB ADD SWAP1 KECCAK256 ADD CALLER DUP11 MSTORE DUP5 MSTORE DUP9 KECCAK256 ADD SWAP3 DUP2 MLOAD SWAP5 DUP6 GT PUSH2 0xBC0 JUMPI DUP4 SLOAD DUP6 DUP6 SSTORE DUP4 SWAP3 SWAP2 DUP2 DUP8 LT PUSH2 0xB46 JUMPI JUMPDEST POP POP ADD SWAP2 DUP7 MSTORE DUP1 DUP7 KECCAK256 DUP7 SWAP3 JUMPDEST DUP5 DUP5 LT PUSH2 0xB2B JUMPI DUP8 CALLER PUSH2 0xB04 DUP10 PUSH2 0x1C99 JUMP JUMPDEST PUSH32 0xBDFA00028AA6C888A03528A2075EA227B56F2F5182DCF6691BC7C5E37220B289 DUP4 DUP1 LOG3 DUP1 RETURN JUMPDEST DUP6 DUP4 DUP3 PUSH2 0xB3A DUP4 SWAP5 MLOAD DUP7 PUSH2 0x1B9D JUMP JUMPDEST ADD SWAP3 ADD SWAP4 ADD SWAP3 SWAP1 PUSH2 0xAF2 JUMP JUMPDEST DUP6 DUP11 MSTORE DUP8 DUP8 DUP6 DUP13 KECCAK256 SWAP4 DUP5 ADD SWAP4 ADD JUMPDEST DUP4 DUP2 LT PUSH2 0xB62 JUMPI POP POP PUSH2 0xAE6 JUMP JUMPDEST SWAP1 SWAP2 SWAP3 SWAP4 SWAP5 POP DUP11 PUSH2 0xB73 DUP3 SLOAD PUSH2 0x17CE JUMP JUMPDEST DUP1 PUSH2 0xB87 JUMPI JUMPDEST POP POP ADD SWAP1 DUP8 DUP6 SWAP5 SWAP4 SWAP3 PUSH2 0xB54 JUMP JUMPDEST PUSH1 0x1F DUP1 DUP3 GT PUSH1 0x1 EQ PUSH2 0xB9F JUMPI POP POP DUP2 SSTORE JUMPDEST DUP11 PUSH0 PUSH2 0xB79 JUMP JUMPDEST PUSH2 0xBB7 SWAP1 DUP5 DUP5 MSTORE DUP10 DUP5 KECCAK256 SWAP3 ADD DUP7 SHR DUP3 ADD DUP6 DUP4 ADD PUSH2 0x1B87 JUMP JUMPDEST DUP2 DUP4 SSTORE SSTORE PUSH2 0xB98 JUMP JUMPDEST PUSH4 0x4E487B71 PUSH1 0xE0 SHL DUP9 MSTORE PUSH1 0x41 PUSH1 0x4 MSTORE PUSH1 0x24 DUP9 REVERT JUMPDEST SWAP5 DUP6 PUSH2 0xBE7 DUP9 SWAP5 SWAP7 SWAP9 SWAP4 SWAP6 SWAP8 MLOAD DUP7 PUSH2 0x1B9D JUMP JUMPDEST ADD SWAP3 ADD SWAP3 ADD DUP11 SWAP5 SWAP3 DUP9 SWAP5 SWAP3 PUSH2 0xA95 JUMP JUMPDEST DUP14 SWAP2 POP DUP6 DUP2 MSTORE DUP7 DUP6 DUP3 KECCAK256 SWAP4 DUP5 ADD SWAP4 ADD SWAP1 JUMPDEST DUP4 DUP3 LT PUSH2 0xC19 JUMPI SWAP1 POP DUP7 SWAP2 POP PUSH2 0xA80 JUMP JUMPDEST SWAP1 SWAP2 SWAP3 SWAP4 SWAP5 POP PUSH2 0xC29 DUP3 SLOAD PUSH2 0x17CE JUMP JUMPDEST DUP1 PUSH2 0xC3D JUMPI JUMPDEST POP POP ADD SWAP1 DUP12 DUP10 SWAP4 SWAP3 DUP16 PUSH2 0xC08 JUMP JUMPDEST DUP12 DUP14 PUSH1 0x1F DUP1 DUP5 GT PUSH1 0x1 EQ PUSH2 0xC59 JUMPI POP POP POP POP DUP2 SSTORE JUMPDEST DUP15 PUSH0 PUSH2 0xC2F JUMP JUMPDEST PUSH2 0xC70 SWAP3 DUP7 DUP7 MSTORE DUP6 KECCAK256 SWAP4 ADD SWAP1 SHR DUP3 ADD DUP6 DUP4 ADD PUSH2 0x1B87 JUMP JUMPDEST DUP2 DUP4 SSTORE SSTORE PUSH2 0xC52 JUMP JUMPDEST DUP3 MLOAD PUSH3 0x461BCD PUSH1 0xE5 SHL DUP2 MSTORE PUSH1 0x4 DUP2 ADD DUP7 SWAP1 MSTORE PUSH1 0x2C PUSH1 0x24 DUP3 ADD MSTORE PUSH32 0x596F752061726520616C7265616479206120726576696577657220666F722074 PUSH1 0x44 DUP3 ADD MSTORE PUSH12 0x3434B99039BAB13532B1BA17 PUSH1 0xA1 SHL PUSH1 0x64 DUP3 ADD MSTORE PUSH1 0x84 SWAP1 REVERT JUMPDEST DUP7 DUP1 REVERT JUMPDEST DUP6 DUP1 REVERT JUMPDEST DUP4 DUP1 REVERT JUMPDEST POP CALLVALUE PUSH2 0x170 JUMPI PUSH1 0x20 CALLDATASIZE PUSH1 0x3 NOT ADD SLT PUSH2 0x170 JUMPI PUSH2 0xD05 PUSH1 0x1 DUP1 PUSH1 0xA0 SHL SUB PUSH1 0x6 SLOAD AND CALLER EQ PUSH2 0x1DE0 JUMP JUMPDEST PUSH1 0x4 CALLDATALOAD PUSH1 0x7 SSTORE DUP1 RETURN JUMPDEST POP CALLVALUE PUSH2 0x170 JUMPI PUSH1 0x20 CALLDATASIZE PUSH1 0x3 NOT ADD SLT PUSH2 0x170 JUMPI PUSH1 0x4 CALLDATALOAD PUSH1 0x1 PUSH1 0x1 PUSH1 0xA0 SHL SUB DUP2 DUP2 AND SWAP2 DUP3 SWAP1 SUB PUSH2 0x1D7 JUMPI PUSH2 0xD45 SWAP1 PUSH1 0x6 SLOAD AND CALLER EQ PUSH2 0x1DE0 JUMP JUMPDEST PUSH1 0x9 DUP1 SLOAD PUSH1 0x1 PUSH1 0x1 PUSH1 0xA0 SHL SUB NOT AND SWAP2 SWAP1 SWAP2 OR SWAP1 SSTORE DUP1 RETURN JUMPDEST POP SWAP1 CALLVALUE PUSH2 0x16C JUMPI PUSH2 0xD6C CALLDATASIZE PUSH2 0x1A06 JUMP JUMPDEST POP POP PUSH2 0xD76 PUSH2 0x1AFE JUMP JUMPDEST SWAP1 SLOAD SWAP1 PUSH1 0x3 SHL SHR DUP3 MSTORE PUSH1 0x20 SWAP1 PUSH1 0x2 DUP3 MSTORE PUSH2 0xD99 PUSH1 0x9 DUP3 DUP6 KECCAK256 ADD SLOAD PUSH1 0x8 SLOAD SWAP1 PUSH2 0x1DBF JUMP JUMPDEST TIMESTAMP GT SWAP1 DUP1 MLOAD SWAP4 DUP5 SWAP3 DUP4 MSTORE DUP2 DUP5 DUP5 ADD MSTORE PUSH1 0x60 SWAP4 DUP5 MLOAD DUP1 SWAP4 DUP6 ADD MSTORE DUP2 JUMPDEST DUP4 DUP2 LT PUSH2 0xDD1 JUMPI POP POP DUP3 DUP3 ADD DUP5 ADD MSTORE PUSH1 0x1F ADD PUSH1 0x1F NOT AND DUP2 ADD SUB ADD SWAP1 RETURN JUMPDEST PUSH1 0x80 DUP2 ADD MLOAD DUP8 DUP3 ADD DUP8 ADD MSTORE DUP7 SWAP5 POP DUP2 ADD PUSH2 0xDB4 JUMP JUMPDEST POP CALLVALUE PUSH2 0x170 JUMPI PUSH2 0xDF5 CALLDATASIZE PUSH2 0x197B JUMP JUMPDEST SWAP1 DUP4 MLOAD SWAP2 DUP2 MLOAD SWAP5 PUSH1 0x20 PUSH2 0xE31 DUP2 DUP6 ADD SWAP8 PUSH2 0xE10 DUP2 DUP9 DUP12 PUSH2 0x18DC JUMP JUMPDEST DUP7 ADD DUP8 DUP2 MSTORE DUP7 SWAP1 SUB DUP3 ADD SWAP1 SWAP6 KECCAK256 SLOAD PUSH1 0x1 PUSH1 0x1 PUSH1 0xA0 SHL SUB SWAP6 SWAP1 DUP7 AND ISZERO ISZERO PUSH2 0x1CB9 JUMP JUMPDEST PUSH2 0xEA0 DUP3 MLOAD SWAP4 DUP6 MLOAD PUSH2 0xE44 DUP2 DUP8 DUP13 PUSH2 0x18DC JUMP JUMPDEST DUP6 ADD DUP9 DUP2 MSTORE DUP6 DUP5 PUSH1 0x1 SWAP8 DUP9 SWAP4 SUB ADD SWAP1 KECCAK256 ADD CALLER DUP10 MSTORE DUP4 MSTORE PUSH2 0xE6A CALLER DUP9 DUP7 DUP12 KECCAK256 SLOAD AND EQ PUSH2 0x1CFE JUMP JUMPDEST DUP7 DUP6 PUSH2 0xE81 DUP6 DUP13 DUP9 MLOAD DUP1 SWAP4 DUP2 SWAP3 DUP14 MLOAD SWAP3 DUP4 SWAP2 PUSH2 0x18DC JUMP JUMPDEST DUP2 ADD DUP14 DUP2 MSTORE SUB ADD SWAP1 KECCAK256 ADD SWAP2 AND SWAP7 DUP8 SWAP2 DUP3 DUP11 MSTORE DUP5 MSTORE DUP5 DUP10 KECCAK256 SLOAD AND EQ PUSH2 0x1D5B JUMP JUMPDEST DUP5 CALLER EQ PUSH2 0xFF1 JUMPI DUP3 DUP3 MLOAD DUP3 DUP2 DUP1 PUSH2 0xEBB DUP13 DUP11 MLOAD SWAP3 DUP4 SWAP2 PUSH2 0x18DC JUMP JUMPDEST DUP2 ADD DUP11 DUP2 MSTORE SUB ADD SWAP1 KECCAK256 ADD DUP6 DUP8 MSTORE DUP2 MSTORE PUSH1 0x2 DUP3 DUP8 KECCAK256 ADD CALLER DUP8 MSTORE DUP2 MSTORE PUSH1 0xFF DUP3 DUP8 KECCAK256 SLOAD AND PUSH2 0xF99 JUMPI DUP3 DUP3 MLOAD DUP3 DUP2 DUP1 PUSH2 0xEF4 DUP13 DUP11 MLOAD SWAP3 DUP4 SWAP2 PUSH2 0x18DC JUMP JUMPDEST DUP2 ADD DUP11 DUP2 MSTORE SUB ADD SWAP1 KECCAK256 ADD DUP6 DUP8 MSTORE DUP2 MSTORE DUP3 DUP3 DUP8 KECCAK256 ADD DUP1 SLOAD SWAP1 DUP5 DUP3 ADD DUP1 SWAP3 GT PUSH2 0xF85 JUMPI DUP3 PUSH2 0xF5E SWAP8 SWAP9 SWAP10 DUP7 SWAP4 PUSH2 0xF33 SWAP4 SSTORE DUP6 MLOAD DUP1 SWAP4 DUP2 SWAP3 DUP11 MLOAD SWAP3 DUP4 SWAP2 PUSH2 0x18DC JUMP JUMPDEST DUP2 ADD DUP12 DUP2 MSTORE SUB ADD SWAP1 KECCAK256 ADD DUP7 DUP9 MSTORE DUP2 MSTORE PUSH1 0x2 DUP3 DUP9 KECCAK256 ADD SWAP1 CALLER DUP9 MSTORE MSTORE DUP6 KECCAK256 SWAP1 PUSH1 0xFF NOT DUP3 SLOAD AND OR SWAP1 SSTORE PUSH2 0x1C99 JUMP JUMPDEST PUSH32 0x5E36B8330E422094FDE705D9432461CA3FF3B9404457B25FD96BAF77B605A674 DUP4 DUP1 LOG3 DUP1 RETURN JUMPDEST PUSH4 0x4E487B71 PUSH1 0xE0 SHL DUP9 MSTORE PUSH1 0x11 PUSH1 0x4 MSTORE PUSH1 0x24 DUP9 REVERT JUMPDEST PUSH1 0x84 SWAP2 MLOAD SWAP1 PUSH3 0x461BCD PUSH1 0xE5 SHL DUP3 MSTORE PUSH1 0x4 DUP3 ADD MSTORE PUSH1 0x2D PUSH1 0x24 DUP3 ADD MSTORE PUSH32 0x596F7527766520616C726561647920676976656E2061206372656420746F2074 PUSH1 0x44 DUP3 ADD MSTORE PUSH13 0x3434B9903932BB34B2BBB2B917 PUSH1 0x99 SHL PUSH1 0x64 DUP3 ADD MSTORE REVERT JUMPDEST PUSH1 0x84 SWAP2 MLOAD SWAP1 PUSH3 0x461BCD PUSH1 0xE5 SHL DUP3 MSTORE PUSH1 0x4 DUP3 ADD MSTORE PUSH1 0x21 PUSH1 0x24 DUP3 ADD MSTORE PUSH32 0x596F752063616E6E6F742061646420637265647320746F20796F757273656C66 PUSH1 0x44 DUP3 ADD MSTORE PUSH1 0x17 PUSH1 0xF9 SHL PUSH1 0x64 DUP3 ADD MSTORE REVERT JUMPDEST POP CALLVALUE PUSH2 0x170 JUMPI PUSH1 0x20 CALLDATASIZE PUSH1 0x3 NOT ADD SLT PUSH2 0x170 JUMPI PUSH2 0x1064 PUSH1 0x1 DUP1 PUSH1 0xA0 SHL SUB PUSH1 0x6 SLOAD AND CALLER EQ PUSH2 0x1DE0 JUMP JUMPDEST PUSH1 0x4 CALLDATALOAD PUSH1 0xA SSTORE DUP1 RETURN JUMPDEST POP SWAP1 CALLVALUE PUSH2 0x16C JUMPI PUSH2 0x107D CALLDATASIZE PUSH2 0x1A06 JUMP JUMPDEST POP POP PUSH2 0x1087 PUSH2 0x1AFE JUMP JUMPDEST SWAP2 SWAP1 SLOAD PUSH1 0x3 SWAP3 DUP4 SHL SHR DUP4 MSTORE PUSH1 0x20 SWAP1 PUSH1 0x2 DUP3 MSTORE PUSH2 0x10AC PUSH1 0x9 DUP3 DUP7 KECCAK256 ADD SLOAD PUSH1 0x8 SLOAD SWAP1 PUSH2 0x1DBF JUMP JUMPDEST TIMESTAMP GT PUSH2 0x10B6 JUMPI DUP4 DUP1 RETURN JUMPDEST PUSH2 0x10BE PUSH2 0x1AFE JUMP JUMPDEST SWAP1 SLOAD SWAP1 DUP5 SHL SHR DUP5 MSTORE PUSH1 0x2 DUP3 MSTORE DUP1 DUP5 KECCAK256 SWAP2 PUSH1 0xA DUP4 ADD SLOAD PUSH1 0xB DUP5 ADD SLOAD LT DUP1 PUSH2 0x1241 JUMPI JUMPDEST PUSH2 0x1172 JUMPI JUMPDEST POP POP POP DUP1 SLOAD PUSH1 0x1 DUP2 GT PUSH2 0x1133 JUMPI JUMPDEST POP DUP1 SLOAD SWAP1 DUP2 ISZERO PUSH2 0x111F JUMPI PUSH0 NOT SWAP2 DUP3 ADD SWAP2 PUSH2 0x110B DUP4 PUSH2 0x1B30 JUMP JUMPDEST SWAP1 SWAP2 DUP3 SLOAD SWAP2 DUP5 SHL SHL NOT AND SWAP1 SSTORE SSTORE PUSH0 DUP1 DUP1 DUP4 DUP1 RETURN JUMPDEST PUSH4 0x4E487B71 PUSH1 0xE0 SHL DUP4 MSTORE PUSH1 0x31 PUSH1 0x4 MSTORE PUSH1 0x24 DUP4 REVERT JUMPDEST PUSH0 NOT DUP2 ADD SWAP1 DUP2 GT PUSH2 0x115E JUMPI PUSH2 0x114A PUSH2 0x1158 SWAP2 PUSH2 0x1B30 JUMP JUMPDEST SWAP1 SLOAD SWAP1 DUP4 SHL SHR PUSH2 0x5FB PUSH2 0x1AFE JUMP JUMPDEST PUSH0 PUSH2 0x10F2 JUMP JUMPDEST PUSH4 0x4E487B71 PUSH1 0xE0 SHL DUP4 MSTORE PUSH1 0x11 PUSH1 0x4 MSTORE PUSH1 0x24 DUP4 REVERT JUMPDEST PUSH1 0x1 DUP1 DUP5 ADD SWAP3 MLOAD SWAP3 DUP7 SWAP2 DUP2 SLOAD SWAP2 PUSH2 0x1188 DUP4 PUSH2 0x17CE JUMP JUMPDEST SWAP3 DUP3 DUP2 AND SWAP1 DUP2 ISZERO PUSH2 0x1227 JUMPI POP PUSH1 0x1 EQ PUSH2 0x11F6 JUMPI JUMPDEST POP POP POP SWAP2 PUSH1 0x8 SWAP3 SWAP2 DUP2 DUP4 DUP9 DUP7 SWAP6 MSTORE SUB ADD SWAP1 KECCAK256 SWAP3 PUSH1 0x2 DUP2 ADD SLOAD PUSH1 0x2 DUP6 ADD SSTORE DUP5 DUP2 ADD SLOAD DUP6 DUP6 ADD SSTORE PUSH1 0x4 DUP2 ADD SLOAD PUSH1 0x4 DUP6 ADD SSTORE PUSH1 0x5 DUP2 ADD SLOAD PUSH1 0x5 DUP6 ADD SSTORE PUSH1 0x6 DUP2 ADD SLOAD PUSH1 0x6 DUP6 ADD SSTORE PUSH1 0x7 DUP2 ADD SLOAD PUSH1 0x7 DUP6 ADD SSTORE ADD SLOAD SWAP2 ADD SSTORE PUSH0 DUP1 DUP1 PUSH2 0x10E4 JUMP JUMPDEST DUP9 MSTORE DUP4 DUP9 KECCAK256 SWAP2 SWAP3 POP DUP8 SWAP2 JUMPDEST DUP4 DUP4 LT PUSH2 0x1216 JUMPI POP POP POP DUP3 ADD DUP2 DUP4 PUSH1 0x8 PUSH2 0x119C JUMP JUMPDEST DUP1 SLOAD DUP7 DUP5 ADD MSTORE SWAP2 DUP5 ADD SWAP2 DUP2 ADD PUSH2 0x1201 JUMP JUMPDEST PUSH1 0xFF NOT AND DUP8 MSTORE POP POP POP DUP1 ISZERO ISZERO MUL DUP4 ADD SWAP1 POP DUP2 DUP4 PUSH1 0x8 PUSH2 0x119C JUMP JUMPDEST POP PUSH1 0xC DUP4 ADD SLOAD PUSH1 0xD DUP5 ADD SLOAD LT PUSH2 0x10DF JUMP JUMPDEST POP SWAP1 CALLVALUE PUSH2 0x16C JUMPI DUP2 PUSH1 0x3 NOT CALLDATASIZE ADD SLT PUSH2 0x16C JUMPI PUSH1 0x9 SLOAD SWAP1 MLOAD PUSH1 0x1 PUSH1 0x1 PUSH1 0xA0 SHL SUB SWAP1 SWAP2 AND DUP2 MSTORE PUSH1 0x20 SWAP1 RETURN JUMPDEST POP SWAP1 CALLVALUE PUSH2 0x16C JUMPI PUSH2 0x128B CALLDATASIZE PUSH2 0x19BC JUMP JUMPDEST SWAP5 SWAP7 DUP9 SWAP5 SWAP2 SWAP5 SWAP4 SWAP3 SWAP4 MLOAD DUP2 MLOAD PUSH1 0x20 SWAP2 DUP3 DUP5 ADD SWAP2 PUSH2 0x12A9 DUP2 DUP4 DUP6 PUSH2 0x18DC JUMP JUMPDEST DUP2 ADD DUP14 DUP2 MSTORE DUP2 SWAP1 SUB DUP4 ADD SWAP1 KECCAK256 SLOAD PUSH1 0x1 PUSH1 0x1 PUSH1 0xA0 SHL SUB AND PUSH2 0x146A JUMPI PUSH2 0x13C4 DUP9 SWAP3 PUSH1 0x8 SWAP3 DUP15 DUP15 DUP15 DUP15 DUP3 MLOAD DUP7 DUP2 DUP13 MLOAD PUSH2 0x12E0 DUP2 DUP4 DUP12 PUSH2 0x18DC JUMP JUMPDEST DUP2 ADD DUP8 DUP2 MSTORE SUB ADD SWAP1 KECCAK256 DUP1 SLOAD PUSH1 0x1 PUSH1 0x1 PUSH1 0xA0 SHL SUB NOT AND CALLER OR SWAP1 SSTORE DUP3 MLOAD DUP11 MLOAD PUSH1 0x2 SWAP2 SWAP1 DUP9 SWAP1 DUP3 SWAP1 PUSH2 0x1310 DUP2 DUP4 DUP13 PUSH2 0x18DC JUMP JUMPDEST DUP2 ADD DUP9 DUP2 MSTORE SUB ADD SWAP1 KECCAK256 ADD SSTORE PUSH1 0x3 DUP3 MLOAD DUP7 DUP2 DUP13 MLOAD PUSH2 0x132E DUP2 DUP4 DUP12 PUSH2 0x18DC JUMP JUMPDEST DUP2 ADD DUP8 DUP2 MSTORE SUB ADD SWAP1 KECCAK256 ADD SSTORE DUP9 PUSH1 0x4 DUP3 MLOAD DUP7 DUP2 DUP13 MLOAD PUSH2 0x134D DUP2 DUP4 DUP12 PUSH2 0x18DC JUMP JUMPDEST DUP2 ADD DUP8 DUP2 MSTORE SUB ADD SWAP1 KECCAK256 ADD SSTORE DUP10 PUSH1 0x5 DUP3 MLOAD DUP7 DUP2 DUP13 MLOAD PUSH2 0x136C DUP2 DUP4 DUP12 PUSH2 0x18DC JUMP JUMPDEST DUP2 ADD DUP8 DUP2 MSTORE SUB ADD SWAP1 KECCAK256 ADD SSTORE DUP11 PUSH1 0x6 DUP3 MLOAD DUP7 DUP2 DUP13 MLOAD PUSH2 0x138B DUP2 DUP4 DUP12 PUSH2 0x18DC JUMP JUMPDEST DUP2 ADD DUP8 DUP2 MSTORE SUB ADD SWAP1 KECCAK256 ADD SSTORE DUP12 PUSH1 0x7 DUP3 MLOAD DUP7 DUP2 DUP13 MLOAD PUSH2 0x13AA DUP2 DUP4 DUP12 PUSH2 0x18DC JUMP JUMPDEST DUP2 ADD DUP8 DUP2 MSTORE SUB ADD SWAP1 KECCAK256 ADD SSTORE MLOAD DUP1 SWAP5 DUP2 SWAP4 DUP10 MLOAD SWAP3 DUP4 SWAP2 PUSH2 0x18DC JUMP JUMPDEST DUP3 ADD SWAP1 DUP2 MSTORE SUB ADD SWAP1 KECCAK256 ADD SSTORE PUSH1 0x1 SLOAD PUSH1 0x1 PUSH1 0x40 SHL DUP2 LT ISZERO PUSH2 0x1456 JUMPI DUP1 PUSH1 0x1 PUSH2 0x13EE SWAP3 ADD PUSH1 0x1 SSTORE PUSH2 0x1AD2 JUMP JUMPDEST PUSH2 0x1442 JUMPI SWAP2 PUSH2 0x1430 DUP3 PUSH2 0x142B PUSH2 0x143C SWAP9 SWAP7 SWAP5 PUSH32 0x9C96CEAD8F7FC8142F1AF61E373480446B35D81BB5DFA183FD3880C45DF68AD5 SWAP13 SWAP12 SWAP11 SWAP9 SWAP7 PUSH2 0x1B9D JUMP JUMPDEST PUSH2 0x1C99 JUMP JUMPDEST SWAP10 MLOAD SWAP8 DUP9 SWAP8 CALLER DUP10 PUSH2 0x1B48 JUMP JUMPDEST SUB SWAP1 LOG2 DUP1 RETURN JUMPDEST PUSH4 0x4E487B71 PUSH1 0xE0 SHL DUP12 MSTORE PUSH1 0x4 DUP12 SWAP1 MSTORE PUSH1 0x24 DUP12 REVERT JUMPDEST PUSH4 0x4E487B71 PUSH1 0xE0 SHL DUP12 MSTORE PUSH1 0x41 PUSH1 0x4 MSTORE PUSH1 0x24 DUP12 REVERT JUMPDEST DUP11 MLOAD PUSH3 0x461BCD PUSH1 0xE5 SHL DUP2 MSTORE PUSH1 0x4 DUP2 ADD DUP4 SWAP1 MSTORE PUSH1 0x17 PUSH1 0x24 DUP3 ADD MSTORE PUSH23 0x29BAB13532B1BA1030B63932B0B23C9032BC34B9BA3997 PUSH1 0x49 SHL PUSH1 0x44 DUP3 ADD MSTORE PUSH1 0x64 SWAP1 REVERT JUMPDEST POP CALLVALUE PUSH2 0x170 JUMPI PUSH2 0x14B7 CALLDATASIZE PUSH2 0x197B JUMP JUMPDEST SWAP3 SWAP1 DUP2 MLOAD SWAP2 DUP2 MLOAD SWAP5 PUSH1 0x20 SWAP1 PUSH2 0x14F5 DUP3 DUP6 ADD SWAP8 PUSH2 0x14D4 DUP2 DUP9 DUP12 PUSH2 0x18DC JUMP JUMPDEST DUP7 ADD DUP8 DUP2 MSTORE DUP7 SWAP1 SUB DUP4 ADD SWAP1 SWAP6 KECCAK256 SLOAD PUSH1 0x1 PUSH1 0x1 PUSH1 0xA0 SHL SUB SWAP6 SWAP1 DUP7 AND ISZERO ISZERO PUSH2 0x1CB9 JUMP JUMPDEST PUSH2 0x1564 DUP4 MLOAD SWAP2 DUP6 MLOAD PUSH2 0x1508 DUP2 DUP6 DUP13 PUSH2 0x18DC JUMP JUMPDEST DUP4 ADD DUP9 DUP2 MSTORE DUP4 DUP6 PUSH1 0x1 SWAP6 DUP7 SWAP4 SUB ADD SWAP1 KECCAK256 ADD CALLER DUP10 MSTORE DUP5 MSTORE PUSH2 0x152E CALLER DUP9 DUP8 DUP12 KECCAK256 SLOAD AND EQ PUSH2 0x1CFE JUMP JUMPDEST DUP7 DUP4 PUSH2 0x1545 DUP7 DUP13 DUP10 MLOAD DUP1 SWAP4 DUP2 SWAP3 DUP14 MLOAD SWAP3 DUP4 SWAP2 PUSH2 0x18DC JUMP JUMPDEST DUP2 ADD DUP14 DUP2 MSTORE SUB ADD SWAP1 KECCAK256 ADD SWAP2 AND SWAP7 DUP8 SWAP2 DUP3 DUP11 MSTORE DUP6 MSTORE DUP6 DUP10 KECCAK256 SLOAD AND EQ PUSH2 0x1D5B JUMP JUMPDEST DUP5 CALLER EQ PUSH2 0x169E JUMPI DUP1 DUP4 MLOAD DUP4 DUP2 DUP1 PUSH2 0x157F DUP13 DUP11 MLOAD SWAP3 DUP4 SWAP2 PUSH2 0x18DC JUMP JUMPDEST DUP2 ADD DUP11 DUP2 MSTORE SUB ADD SWAP1 KECCAK256 ADD DUP6 DUP8 MSTORE DUP3 MSTORE PUSH1 0x2 DUP4 DUP8 KECCAK256 ADD CALLER DUP8 MSTORE DUP3 MSTORE PUSH1 0xFF DUP4 DUP8 KECCAK256 SLOAD AND ISZERO PUSH2 0x1648 JUMPI DUP1 DUP4 MLOAD DUP4 DUP2 DUP1 PUSH2 0x15B9 DUP13 DUP11 MLOAD SWAP3 DUP4 SWAP2 PUSH2 0x18DC JUMP JUMPDEST DUP2 ADD DUP11 DUP2 MSTORE SUB ADD SWAP1 KECCAK256 DUP7 DUP9 MSTORE ADD DUP3 MSTORE DUP3 DUP7 KECCAK256 DUP2 ADD DUP1 SLOAD PUSH0 NOT DUP2 ADD SWAP2 SWAP1 DUP3 GT PUSH2 0xF85 JUMPI PUSH2 0x1621 SWAP7 SWAP8 SWAP9 PUSH2 0x15F8 SWAP3 DUP6 SWAP3 SSTORE DUP6 MLOAD DUP1 SWAP4 DUP2 SWAP3 DUP10 MLOAD SWAP3 DUP4 SWAP2 PUSH2 0x18DC JUMP JUMPDEST DUP2 ADD DUP11 DUP2 MSTORE SUB ADD SWAP1 KECCAK256 DUP7 DUP9 MSTORE ADD DUP2 MSTORE DUP2 DUP7 KECCAK256 CALLER DUP8 MSTORE PUSH1 0x2 ADD SWAP1 MSTORE DUP5 KECCAK256 DUP1 SLOAD PUSH1 0xFF NOT AND SWAP1 SSTORE PUSH2 0x1C99 JUMP JUMPDEST PUSH32 0x1E8A0A2DCB862255253B893B953460B9526EB6C2BC86FD2D3163A449B3D3D7B4 DUP4 DUP1 LOG3 DUP1 RETURN JUMPDEST POP PUSH1 0x84 SWAP2 MLOAD SWAP1 PUSH3 0x461BCD PUSH1 0xE5 SHL DUP3 MSTORE PUSH1 0x4 DUP3 ADD MSTORE PUSH1 0x2A PUSH1 0x24 DUP3 ADD MSTORE PUSH32 0x596F7520686176656E277420676976656E2061206372656420746F2074686973 PUSH1 0x44 DUP3 ADD MSTORE PUSH10 0x103932BB34B2BBB2B917 PUSH1 0xB1 SHL PUSH1 0x64 DUP3 ADD MSTORE REVERT JUMPDEST POP PUSH1 0x84 SWAP2 MLOAD SWAP1 PUSH3 0x461BCD PUSH1 0xE5 SHL DUP3 MSTORE PUSH1 0x4 DUP3 ADD MSTORE PUSH1 0x26 PUSH1 0x24 DUP3 ADD MSTORE PUSH32 0x596F752063616E6E6F742072656D6F76652063726564732066726F6D20796F75 PUSH1 0x44 DUP3 ADD MSTORE PUSH6 0x3939B2B63317 PUSH1 0xD1 SHL PUSH1 0x64 DUP3 ADD MSTORE REVERT JUMPDEST POP SWAP1 CALLVALUE PUSH2 0x16C JUMPI PUSH1 0x20 CALLDATASIZE PUSH1 0x3 NOT ADD SLT PUSH2 0x16C JUMPI PUSH1 0x4 CALLDATALOAD DUP3 MSTORE PUSH1 0x2 PUSH1 0x20 MSTORE SWAP1 DUP2 SWAP1 KECCAK256 DUP1 SLOAD PUSH1 0x1 PUSH1 0x1 PUSH1 0xA0 SHL SUB AND DUP3 PUSH2 0x1729 PUSH1 0x1 DUP5 ADD PUSH2 0x183B JUMP JUMPDEST SWAP3 PUSH1 0x2 DUP2 ADD SLOAD PUSH1 0x3 DUP3 ADD SLOAD PUSH1 0x4 DUP4 ADD SLOAD PUSH1 0x5 DUP5 ADD SLOAD PUSH1 0x6 DUP6 ADD SLOAD PUSH1 0x7 DUP7 ADD SLOAD SWAP1 PUSH1 0x8 DUP8 ADD SLOAD SWAP3 PUSH1 0x9 DUP9 ADD SLOAD SWAP5 PUSH1 0xA DUP10 ADD SLOAD SWAP7 PUSH1 0xB DUP11 ADD SLOAD SWAP9 PUSH1 0xC DUP12 ADD SLOAD SWAP11 PUSH1 0xD ADD SLOAD SWAP12 MLOAD SWAP15 DUP16 SWAP15 DUP16 SWAP15 DUP16 SWAP1 DUP2 MSTORE PUSH2 0x1C0 SWAP1 DUP2 PUSH1 0x20 DUP3 ADD MSTORE ADD PUSH2 0x178A SWAP2 PUSH2 0x18FD JUMP JUMPDEST SWAP14 ADD MSTORE PUSH1 0x60 DUP14 ADD MSTORE PUSH1 0x80 DUP13 ADD MSTORE PUSH1 0xA0 DUP12 ADD MSTORE PUSH1 0xC0 DUP11 ADD MSTORE PUSH1 0xE0 DUP10 ADD MSTORE PUSH2 0x100 DUP9 ADD MSTORE PUSH2 0x120 DUP8 ADD MSTORE PUSH2 0x140 DUP7 ADD MSTORE PUSH2 0x160 DUP6 ADD MSTORE PUSH2 0x180 DUP5 ADD MSTORE PUSH2 0x1A0 DUP4 ADD MSTORE SUB SWAP1 RETURN JUMPDEST SWAP1 PUSH1 0x1 DUP3 DUP2 SHR SWAP3 AND DUP1 ISZERO PUSH2 0x17FC JUMPI JUMPDEST PUSH1 0x20 DUP4 LT EQ PUSH2 0x17E8 JUMPI JUMP JUMPDEST PUSH4 0x4E487B71 PUSH1 0xE0 SHL PUSH0 MSTORE PUSH1 0x22 PUSH1 0x4 MSTORE PUSH1 0x24 PUSH0 REVERT JUMPDEST SWAP2 PUSH1 0x7F AND SWAP2 PUSH2 0x17DD JUMP JUMPDEST SWAP1 PUSH1 0x1F DUP1 NOT SWAP2 ADD AND DUP2 ADD SWAP1 DUP2 LT PUSH1 0x1 PUSH1 0x1 PUSH1 0x40 SHL SUB DUP3 GT OR PUSH2 0x1827 JUMPI PUSH1 0x40 MSTORE JUMP JUMPDEST PUSH4 0x4E487B71 PUSH1 0xE0 SHL PUSH0 MSTORE PUSH1 0x41 PUSH1 0x4 MSTORE PUSH1 0x24 PUSH0 REVERT JUMPDEST SWAP1 PUSH1 0x40 MLOAD SWAP2 DUP3 PUSH0 DUP3 SLOAD SWAP3 PUSH2 0x184E DUP5 PUSH2 0x17CE JUMP JUMPDEST SWAP1 DUP2 DUP5 MSTORE PUSH1 0x1 SWAP5 DUP6 DUP2 AND SWAP1 DUP2 PUSH0 EQ PUSH2 0x18B9 JUMPI POP PUSH1 0x1 EQ PUSH2 0x1879 JUMPI JUMPDEST POP POP PUSH2 0x1877 SWAP3 POP SUB DUP4 PUSH2 0x1806 JUMP JUMPDEST JUMP JUMPDEST SWAP1 SWAP4 SWAP2 POP PUSH0 MSTORE PUSH1 0x20 SWAP1 DUP2 PUSH0 KECCAK256 SWAP4 PUSH0 SWAP2 JUMPDEST DUP2 DUP4 LT PUSH2 0x18A1 JUMPI POP POP PUSH2 0x1877 SWAP4 POP DUP3 ADD ADD PUSH0 DUP1 PUSH2 0x1869 JUMP JUMPDEST DUP6 SLOAD DUP9 DUP5 ADD DUP6 ADD MSTORE SWAP5 DUP6 ADD SWAP5 DUP8 SWAP5 POP SWAP2 DUP4 ADD SWAP2 PUSH2 0x1889 JUMP JUMPDEST SWAP2 POP POP PUSH2 0x1877 SWAP5 POP PUSH1 0x20 SWAP3 POP PUSH1 0xFF NOT AND DUP3 DUP5 ADD MSTORE ISZERO ISZERO PUSH1 0x5 SHL DUP3 ADD ADD PUSH0 DUP1 PUSH2 0x1869 JUMP JUMPDEST PUSH0 JUMPDEST DUP4 DUP2 LT PUSH2 0x18ED JUMPI POP POP PUSH0 SWAP2 ADD MSTORE JUMP JUMPDEST DUP2 DUP2 ADD MLOAD DUP4 DUP3 ADD MSTORE PUSH1 0x20 ADD PUSH2 0x18DE JUMP JUMPDEST SWAP1 PUSH1 0x20 SWAP2 PUSH2 0x1916 DUP2 MLOAD DUP1 SWAP3 DUP2 DUP6 MSTORE DUP6 DUP1 DUP7 ADD SWAP2 ADD PUSH2 0x18DC JUMP JUMPDEST PUSH1 0x1F ADD PUSH1 0x1F NOT AND ADD ADD SWAP1 JUMP JUMPDEST DUP2 PUSH1 0x1F DUP3 ADD SLT ISZERO PUSH2 0x1977 JUMPI DUP1 CALLDATALOAD SWAP1 PUSH1 0x1 PUSH1 0x1 PUSH1 0x40 SHL SUB DUP3 GT PUSH2 0x1827 JUMPI PUSH1 0x40 MLOAD SWAP3 PUSH2 0x1956 PUSH1 0x1F DUP5 ADD PUSH1 0x1F NOT AND PUSH1 0x20 ADD DUP6 PUSH2 0x1806 JUMP JUMPDEST DUP3 DUP5 MSTORE PUSH1 0x20 DUP4 DUP4 ADD ADD GT PUSH2 0x1977 JUMPI DUP2 PUSH0 SWAP3 PUSH1 0x20 DUP1 SWAP4 ADD DUP4 DUP7 ADD CALLDATACOPY DUP4 ADD ADD MSTORE SWAP1 JUMP JUMPDEST PUSH0 DUP1 REVERT JUMPDEST PUSH1 0x40 PUSH1 0x3 NOT DUP3 ADD SLT PUSH2 0x1977 JUMPI PUSH1 0x4 CALLDATALOAD SWAP1 PUSH1 0x1 PUSH1 0x1 PUSH1 0x40 SHL SUB DUP3 GT PUSH2 0x1977 JUMPI PUSH2 0x19A5 SWAP2 PUSH1 0x4 ADD PUSH2 0x1922 JUMP JUMPDEST SWAP1 PUSH1 0x24 CALLDATALOAD PUSH1 0x1 PUSH1 0x1 PUSH1 0xA0 SHL SUB DUP2 AND DUP2 SUB PUSH2 0x1977 JUMPI SWAP1 JUMP JUMPDEST PUSH2 0x100 PUSH1 0x3 NOT DUP3 ADD SLT PUSH2 0x1977 JUMPI PUSH1 0x4 CALLDATALOAD SWAP1 PUSH1 0x1 PUSH1 0x1 PUSH1 0x40 SHL SUB DUP3 GT PUSH2 0x1977 JUMPI PUSH2 0x19E7 SWAP2 PUSH1 0x4 ADD PUSH2 0x1922 JUMP JUMPDEST SWAP1 PUSH1 0x24 CALLDATALOAD SWAP1 PUSH1 0x44 CALLDATALOAD SWAP1 PUSH1 0x64 CALLDATALOAD SWAP1 PUSH1 0x84 CALLDATALOAD SWAP1 PUSH1 0xA4 CALLDATALOAD SWAP1 PUSH1 0xC4 CALLDATALOAD SWAP1 PUSH1 0xE4 CALLDATALOAD SWAP1 JUMP JUMPDEST SWAP1 PUSH1 0x20 PUSH1 0x3 NOT DUP4 ADD SLT PUSH2 0x1977 JUMPI PUSH1 0x4 CALLDATALOAD PUSH1 0x1 PUSH1 0x1 PUSH1 0x40 SHL SUB SWAP3 DUP4 DUP3 GT PUSH2 0x1977 JUMPI DUP1 PUSH1 0x23 DUP4 ADD SLT ISZERO PUSH2 0x1977 JUMPI DUP2 PUSH1 0x4 ADD CALLDATALOAD SWAP4 DUP5 GT PUSH2 0x1977 JUMPI PUSH1 0x24 DUP5 DUP4 ADD ADD GT PUSH2 0x1977 JUMPI PUSH1 0x24 ADD SWAP2 SWAP1 JUMP JUMPDEST SWAP1 DUP1 PUSH1 0x1F DUP4 ADD SLT ISZERO PUSH2 0x1977 JUMPI DUP2 CALLDATALOAD SWAP1 PUSH1 0x1 PUSH1 0x1 PUSH1 0x40 SHL SUB SWAP3 DUP4 DUP4 GT PUSH2 0x1827 JUMPI DUP3 PUSH1 0x5 SHL PUSH1 0x40 MLOAD SWAP5 PUSH1 0x20 SWAP5 PUSH2 0x1A85 DUP7 DUP5 ADD DUP9 PUSH2 0x1806 JUMP JUMPDEST DUP7 MSTORE DUP5 DUP1 DUP8 ADD SWAP3 DUP5 ADD ADD SWAP4 DUP1 DUP6 GT PUSH2 0x1977 JUMPI DUP6 DUP5 ADD SWAP3 JUMPDEST DUP6 DUP5 LT PUSH2 0x1AAD JUMPI POP POP POP POP POP POP POP SWAP1 JUMP JUMPDEST DUP4 CALLDATALOAD DUP4 DUP2 GT PUSH2 0x1977 JUMPI DUP8 SWAP2 PUSH2 0x1AC7 DUP5 DUP5 DUP1 SWAP5 DUP11 ADD ADD PUSH2 0x1922 JUMP JUMPDEST DUP2 MSTORE ADD SWAP4 ADD SWAP3 PUSH2 0x1A9C JUMP JUMPDEST PUSH1 0x1 SLOAD DUP2 LT ISZERO PUSH2 0x1AEA JUMPI PUSH1 0x1 PUSH0 MSTORE PUSH1 0x20 PUSH0 KECCAK256 ADD SWAP1 PUSH0 SWAP1 JUMP JUMPDEST PUSH4 0x4E487B71 PUSH1 0xE0 SHL PUSH0 MSTORE PUSH1 0x32 PUSH1 0x4 MSTORE PUSH1 0x24 PUSH0 REVERT JUMPDEST PUSH1 0x3 SLOAD ISZERO PUSH2 0x1AEA JUMPI PUSH1 0x3 PUSH0 SWAP1 DUP2 MSTORE PUSH32 0xC2575A0E9E593C00F959F8C92F12DB2869C3395A3B0502D05E2516446F71F85B SWAP2 JUMP JUMPDEST PUSH1 0x3 SLOAD DUP2 LT ISZERO PUSH2 0x1AEA JUMPI PUSH1 0x3 PUSH0 MSTORE PUSH1 0x20 PUSH0 KECCAK256 ADD SWAP1 PUSH0 SWAP1 JUMP JUMPDEST SWAP5 SWAP2 SWAP3 PUSH1 0xE0 SWAP7 SWAP4 SWAP10 SWAP9 SWAP8 SWAP5 SWAP2 SWAP10 PUSH2 0x100 DUP8 ADD SWAP11 PUSH1 0x1 DUP1 PUSH1 0xA0 SHL SUB AND DUP8 MSTORE PUSH1 0x20 DUP8 ADD MSTORE PUSH1 0x40 DUP7 ADD MSTORE PUSH1 0x60 DUP6 ADD MSTORE PUSH1 0x80 DUP5 ADD MSTORE PUSH1 0xA0 DUP4 ADD MSTORE PUSH1 0xC0 DUP3 ADD MSTORE ADD MSTORE JUMP JUMPDEST DUP2 DUP2 LT PUSH2 0x1B92 JUMPI POP POP JUMP JUMPDEST PUSH0 DUP2 SSTORE PUSH1 0x1 ADD PUSH2 0x1B87 JUMP JUMPDEST SWAP2 SWAP1 SWAP2 DUP3 MLOAD PUSH1 0x1 PUSH1 0x1 PUSH1 0x40 SHL SUB DUP2 GT PUSH2 0x1827 JUMPI PUSH2 0x1BBA DUP3 SLOAD PUSH2 0x17CE JUMP JUMPDEST PUSH1 0x1F DUP2 GT PUSH2 0x1C5E JUMPI JUMPDEST POP PUSH1 0x20 DUP1 PUSH1 0x1F DUP4 GT PUSH1 0x1 EQ PUSH2 0x1BFE JUMPI POP DUP2 SWAP3 SWAP4 SWAP5 PUSH0 SWAP3 PUSH2 0x1BF3 JUMPI JUMPDEST POP POP DUP2 PUSH1 0x1 SHL SWAP2 PUSH0 NOT SWAP1 PUSH1 0x3 SHL SHR NOT AND OR SWAP1 SSTORE JUMP JUMPDEST ADD MLOAD SWAP1 POP PUSH0 DUP1 PUSH2 0x1BDE JUMP JUMPDEST SWAP1 PUSH1 0x1F NOT DUP4 AND SWAP6 DUP5 PUSH0 MSTORE DUP3 PUSH0 KECCAK256 SWAP3 PUSH0 SWAP1 JUMPDEST DUP9 DUP3 LT PUSH2 0x1C46 JUMPI POP POP DUP4 PUSH1 0x1 SWAP6 SWAP7 SWAP8 LT PUSH2 0x1C2E JUMPI JUMPDEST POP POP POP DUP2 SHL ADD SWAP1 SSTORE JUMP JUMPDEST ADD MLOAD PUSH0 NOT PUSH1 0xF8 DUP5 PUSH1 0x3 SHL AND SHR NOT AND SWAP1 SSTORE PUSH0 DUP1 DUP1 PUSH2 0x1C24 JUMP JUMPDEST DUP1 PUSH1 0x1 DUP6 SWAP7 DUP3 SWAP5 SWAP7 DUP7 ADD MLOAD DUP2 SSTORE ADD SWAP6 ADD SWAP4 ADD SWAP1 PUSH2 0x1C0F JUMP JUMPDEST PUSH2 0x1C89 SWAP1 DUP4 PUSH0 MSTORE PUSH1 0x20 PUSH0 KECCAK256 PUSH1 0x1F DUP5 ADD PUSH1 0x5 SHR DUP2 ADD SWAP2 PUSH1 0x20 DUP6 LT PUSH2 0x1C8F JUMPI JUMPDEST PUSH1 0x1F ADD PUSH1 0x5 SHR ADD SWAP1 PUSH2 0x1B87 JUMP JUMPDEST PUSH0 PUSH2 0x1BC3 JUMP JUMPDEST SWAP1 SWAP2 POP DUP2 SWAP1 PUSH2 0x1C7C JUMP JUMPDEST PUSH2 0x1CB1 SWAP1 PUSH1 0x20 PUSH1 0x40 MLOAD SWAP3 DUP3 DUP5 DUP1 SWAP5 MLOAD SWAP4 DUP5 SWAP3 ADD PUSH2 0x18DC JUMP JUMPDEST DUP2 ADD SUB SWAP1 KECCAK256 SWAP1 JUMP JUMPDEST ISZERO PUSH2 0x1CC0 JUMPI JUMP JUMPDEST PUSH1 0x40 MLOAD PUSH3 0x461BCD PUSH1 0xE5 SHL DUP2 MSTORE PUSH1 0x20 PUSH1 0x4 DUP3 ADD MSTORE PUSH1 0x16 PUSH1 0x24 DUP3 ADD MSTORE PUSH22 0x29BAB13532B1BA103237B2B9B713BA1032BC34B9BA17 PUSH1 0x51 SHL PUSH1 0x44 DUP3 ADD MSTORE PUSH1 0x64 SWAP1 REVERT JUMPDEST ISZERO PUSH2 0x1D05 JUMPI JUMP JUMPDEST PUSH1 0x40 MLOAD PUSH3 0x461BCD PUSH1 0xE5 SHL DUP2 MSTORE PUSH1 0x20 PUSH1 0x4 DUP3 ADD MSTORE PUSH1 0x28 PUSH1 0x24 DUP3 ADD MSTORE PUSH32 0x596F7520617265206E6F74206120726576696577657220666F72207468697320 PUSH1 0x44 DUP3 ADD MSTORE PUSH8 0x39BAB13532B1BA17 PUSH1 0xC1 SHL PUSH1 0x64 DUP3 ADD MSTORE PUSH1 0x84 SWAP1 REVERT JUMPDEST ISZERO PUSH2 0x1D62 JUMPI JUMP JUMPDEST PUSH1 0x40 MLOAD PUSH3 0x461BCD PUSH1 0xE5 SHL DUP2 MSTORE PUSH1 0x20 PUSH1 0x4 DUP3 ADD MSTORE PUSH1 0x2F PUSH1 0x24 DUP3 ADD MSTORE PUSH32 0x54617267657420726576696577657220646F65736E277420657869737420666F PUSH1 0x44 DUP3 ADD MSTORE PUSH15 0x39103A3434B99039BAB13532B1BA17 PUSH1 0x89 SHL PUSH1 0x64 DUP3 ADD MSTORE PUSH1 0x84 SWAP1 REVERT JUMPDEST SWAP2 SWAP1 DUP3 ADD DUP1 SWAP3 GT PUSH2 0x1DCC JUMPI JUMP JUMPDEST PUSH4 0x4E487B71 PUSH1 0xE0 SHL PUSH0 MSTORE PUSH1 0x11 PUSH1 0x4 MSTORE PUSH1 0x24 PUSH0 REVERT JUMPDEST ISZERO PUSH2 0x1DE7 JUMPI JUMP JUMPDEST PUSH1 0x40 MLOAD PUSH3 0x461BCD PUSH1 0xE5 SHL DUP2 MSTORE PUSH1 0x20 PUSH1 0x4 DUP3 ADD MSTORE PUSH1 0x16 PUSH1 0x24 DUP3 ADD MSTORE PUSH22 0x2737BA103A34329031B7B73A3930B1BA1037BBB732B9 PUSH1 0x51 SHL PUSH1 0x44 DUP3 ADD MSTORE PUSH1 0x64 SWAP1 REVERT INVALID LOG2 PUSH5 0x6970667358 0x22 SLT KECCAK256 SWAP11 0x2E 0x1E SWAP12 PUSH1 0x2A 0x1E DUP9 PUSH4 0x1CB5731A COINBASE 0x26 EXTCODESIZE CODESIZE 0xE5 COINBASE DELEGATECALL TIMESTAMP 0xEC BASEFEE SWAP10 0xF9 CALLVALUE SHR SWAP3 JUMPDEST 0xD8 GASPRICE DUP9 PUSH5 0x736F6C6343 STOP ADDMOD EQ STOP CALLER "},"methodIdentifiers":{"AutomationContract()":"408958d6","addCredsToReviewer(string,address)":"585e01e4","addSelfAsReviewer(string,string,string,string[],string[])":"74daa149","checkUpKeep(bytes)":"5e6c102e","createSubject(string,uint256,uint256,uint256,uint256,uint256,uint256,uint256)":"3371ef7d","performUpkeep(bytes)":"4585e33b","proposalFeeInLink()":"7823e226","proposals(uint256)":"013cf08b","propose(string,uint256,uint256,uint256,uint256,uint256,uint256,uint256)":"ac923334","removeCredsFromReviewer(string,address)":"18f6b962","setAutomationRegistry(address)":"5ff2d2aa","setFee(uint256)":"69fe0e2d","setOpenVoteTime(uint256)":"8640f718","setUpkkepId(uint256)":"5787a0cc","subjectNames(uint256)":"fc687c80","subjects(string)":"fe290423","vote(uint256,bool)":"c9d27afe"}}}}}