{"contracts/learntgetherMembers.sol":{"learntgetherMembers":{"abi":[{"inputs":[],"stateMutability":"nonpayable","type":"constructor"},{"anonymous":false,"inputs":[{"indexed":true,"internalType":"string","name":"communityName","type":"string"},{"indexed":true,"internalType":"address","name":"memberAddress","type":"address"},{"indexed":true,"internalType":"address","name":"actor","type":"address"},{"indexed":false,"internalType":"int256","name":"creds","type":"int256"}],"name":"AddedNegCred","type":"event"},{"anonymous":false,"inputs":[{"indexed":true,"internalType":"string","name":"communityName","type":"string"},{"indexed":true,"internalType":"address","name":"memberAddress","type":"address"},{"indexed":true,"internalType":"address","name":"actor","type":"address"},{"indexed":false,"internalType":"int256","name":"creds","type":"int256"}],"name":"AddedPosCred","type":"event"},{"anonymous":false,"inputs":[{"indexed":true,"internalType":"address","name":"memberAddress","type":"address"},{"indexed":true,"internalType":"string","name":"communityName","type":"string"},{"indexed":false,"internalType":"int256","name":"creds","type":"int256"},{"indexed":true,"internalType":"uint256","name":"timestamp","type":"uint256"}],"name":"Creds","type":"event"},{"anonymous":false,"inputs":[{"indexed":true,"internalType":"string","name":"communityName","type":"string"},{"indexed":true,"internalType":"address","name":"memberAddress","type":"address"},{"indexed":true,"internalType":"address","name":"actor","type":"address"},{"indexed":false,"internalType":"int256","name":"index","type":"int256"}],"name":"IndexUpdated","type":"event"},{"anonymous":false,"inputs":[{"indexed":true,"internalType":"string","name":"communityName","type":"string"},{"indexed":true,"internalType":"address","name":"memberAddress","type":"address"}],"name":"MemberAdded","type":"event"},{"anonymous":false,"inputs":[{"indexed":true,"internalType":"address","name":"memberAddress","type":"address"},{"indexed":true,"internalType":"string","name":"name","type":"string"},{"indexed":false,"internalType":"string","name":"description","type":"string"},{"indexed":false,"internalType":"string[]","name":"degrees","type":"string[]"},{"indexed":false,"internalType":"string[]","name":"awards","type":"string[]"}],"name":"MemberInfo","type":"event"},{"anonymous":false,"inputs":[{"indexed":true,"internalType":"string","name":"communityName","type":"string"},{"indexed":true,"internalType":"address","name":"memberAddress","type":"address"}],"name":"MemberInvited","type":"event"},{"anonymous":false,"inputs":[{"indexed":true,"internalType":"string","name":"communityName","type":"string"},{"indexed":true,"internalType":"address","name":"memberAddress","type":"address"}],"name":"MemberRemoved","type":"event"},{"anonymous":false,"inputs":[{"indexed":true,"internalType":"string","name":"communityName","type":"string"},{"indexed":true,"internalType":"address","name":"memberAddress","type":"address"}],"name":"MemberUninvited","type":"event"},{"anonymous":false,"inputs":[{"indexed":true,"internalType":"string","name":"communityName","type":"string"},{"indexed":true,"internalType":"address","name":"memberAddress","type":"address"},{"indexed":true,"internalType":"address","name":"actor","type":"address"},{"indexed":false,"internalType":"int256","name":"creds","type":"int256"}],"name":"RemovedNegCred","type":"event"},{"anonymous":false,"inputs":[{"indexed":true,"internalType":"string","name":"communityName","type":"string"},{"indexed":true,"internalType":"address","name":"memberAddress","type":"address"},{"indexed":true,"internalType":"address","name":"actor","type":"address"},{"indexed":false,"internalType":"int256","name":"creds","type":"int256"}],"name":"RemovedPosCred","type":"event"},{"inputs":[{"internalType":"string","name":"_communityName","type":"string"},{"internalType":"address","name":"_member","type":"address"}],"name":"addNegCredsToMember","outputs":[],"stateMutability":"nonpayable","type":"function"},{"inputs":[{"internalType":"string","name":"_communityName","type":"string"},{"internalType":"address","name":"_member","type":"address"}],"name":"addPosCredsToMember","outputs":[],"stateMutability":"nonpayable","type":"function"},{"inputs":[{"internalType":"string","name":"_communityName","type":"string"}],"name":"addSelfAsMember","outputs":[],"stateMutability":"nonpayable","type":"function"},{"inputs":[],"name":"communityContract","outputs":[{"internalType":"contract learntgetherCommuityInterface","name":"","type":"address"}],"stateMutability":"view","type":"function"},{"inputs":[{"internalType":"address","name":"_memberAddress","type":"address"},{"internalType":"string","name":"_communityName","type":"string"}],"name":"getIsInvited","outputs":[{"internalType":"bool","name":"","type":"bool"}],"stateMutability":"view","type":"function"},{"inputs":[{"internalType":"address","name":"_memberAddress","type":"address"},{"internalType":"string","name":"_communityName","type":"string"}],"name":"getIsMember","outputs":[{"internalType":"bool","name":"","type":"bool"}],"stateMutability":"view","type":"function"},{"inputs":[{"internalType":"address","name":"_memberAddress","type":"address"},{"internalType":"address","name":"_credGiverAddress","type":"address"},{"internalType":"string","name":"_communityName","type":"string"}],"name":"getMemberCredIndex","outputs":[{"internalType":"int256","name":"index","type":"int256"}],"stateMutability":"view","type":"function"},{"inputs":[{"internalType":"address","name":"_memberAddress","type":"address"},{"internalType":"string","name":"_communityName","type":"string"}],"name":"getMemberCreds","outputs":[{"internalType":"int256","name":"creds","type":"int256"}],"stateMutability":"view","type":"function"},{"inputs":[{"internalType":"address","name":"_memberAddress","type":"address"}],"name":"getMemberInfo","outputs":[{"internalType":"string","name":"name","type":"string"},{"internalType":"string","name":"descripion","type":"string"},{"internalType":"string[]","name":"degrees","type":"string[]"},{"internalType":"string[]","name":"awards","type":"string[]"}],"stateMutability":"view","type":"function"},{"inputs":[{"internalType":"address","name":"_memberAddress","type":"address"},{"internalType":"string","name":"_communityName","type":"string"}],"name":"getMemberNegCredsList","outputs":[{"internalType":"address[]","name":"addressList","type":"address[]"}],"stateMutability":"view","type":"function"},{"inputs":[{"internalType":"address","name":"_memberAddress","type":"address"},{"internalType":"string","name":"_communityName","type":"string"}],"name":"getMemberPosCredsList","outputs":[{"internalType":"address[]","name":"addressList","type":"address[]"}],"stateMutability":"view","type":"function"},{"inputs":[{"internalType":"address","name":"_memberAddress","type":"address"},{"internalType":"string","name":"_communityName","type":"string"}],"name":"getReiewerCommunityInfo","outputs":[{"internalType":"int256","name":"_creds","type":"int256"},{"internalType":"address[]","name":"_posCreds","type":"address[]"},{"internalType":"address[]","name":"_negCreds","type":"address[]"}],"stateMutability":"view","type":"function"},{"inputs":[{"internalType":"address","name":"_memberAddress","type":"address"},{"internalType":"string","name":"_communityName","type":"string"},{"internalType":"address","name":"givenBy","type":"address"}],"name":"hasMemberGivenCred","outputs":[{"internalType":"bool","name":"","type":"bool"}],"stateMutability":"view","type":"function"},{"inputs":[{"internalType":"string","name":"_communityName","type":"string"},{"internalType":"address","name":"_memberAddress","type":"address"}],"name":"inviteMember","outputs":[{"internalType":"address","name":"","type":"address"}],"stateMutability":"nonpayable","type":"function"},{"inputs":[{"internalType":"string","name":"","type":"string"},{"internalType":"address","name":"","type":"address"}],"name":"isInvited","outputs":[{"internalType":"bool","name":"","type":"bool"}],"stateMutability":"view","type":"function"},{"inputs":[{"internalType":"string","name":"_communityName","type":"string"},{"internalType":"address","name":"_member","type":"address"}],"name":"removeNegCredsFromMember","outputs":[],"stateMutability":"nonpayable","type":"function"},{"inputs":[{"internalType":"string","name":"_communityName","type":"string"},{"internalType":"address","name":"_member","type":"address"}],"name":"removePosCredsFromMember","outputs":[],"stateMutability":"nonpayable","type":"function"},{"inputs":[{"internalType":"string","name":"_communityName","type":"string"}],"name":"removeSelfAsMember","outputs":[],"stateMutability":"nonpayable","type":"function"},{"inputs":[{"internalType":"address","name":"_contractAddress","type":"address"}],"name":"setlearntgetherCommunities","outputs":[],"stateMutability":"nonpayable","type":"function"},{"inputs":[{"internalType":"string","name":"_communityName","type":"string"},{"internalType":"address","name":"_memberAddress","type":"address"}],"name":"uninviteMember","outputs":[{"internalType":"address","name":"","type":"address"}],"stateMutability":"nonpayable","type":"function"},{"inputs":[{"internalType":"string","name":"_name","type":"string"},{"internalType":"string","name":"_description","type":"string"},{"internalType":"string[]","name":"_degrees","type":"string[]"},{"internalType":"string[]","name":"_awards","type":"string[]"}],"name":"updateMemberInfo","outputs":[],"stateMutability":"nonpayable","type":"function"}],"evm":{"bytecode":{"linkReferences":{},"object":"6080806040523461002857600180546001600160a01b031916331790556129e9908161002d8239f35b5f80fdfe60806040526004361015610011575f80fd5b5f3560e01c806302b5df591461200257806319f553e214611f815780634f64aedd14611be05780635450fdd5146119165780635f1231ea146118705780636b039bb4146115bc5780638c5956c4146111fa5780638e634029146111d257806399d03bf214610ff75780639c419dc914610f6b578063a482857814610f43578063b091c54614610f01578063b66fdab414610ccf578063be42d3af1461063f578063c783acb4146105dd578063ca4f880b146104c7578063cdb43ea4146102b2578063e636f3141461025d578063ef0ed3601461019a578063f3faf99a146101815763fbc3d96c14610100575f80fd5b3461017d57610179610165600361015f610119366120e3565b9060018060a01b0316805f525f60205261014c600160ff60046101418160405f200187612207565b0154161515146127af565b5f525f602052600460405f200190612207565b0161280c565b6040519182916020835260208301906122c4565b0390f35b5f80fd5b3461017d57610179610165600261015f610119366120e3565b3461017d576101a8366120e3565b9060018060a01b031690815f525f6020526101d1600160ff60046101418160405f200186612207565b815f525f60205261017961023361022d60036102266101f6600460405f200187612207565b5495875f525f6020526002610211600460405f200183612207565b01975f525f602052600460405f200190612207565b019461280c565b9361280c565b61024f60405194859485526060602086015260608501906122c4565b9083820360408501526122c4565b3461017d576020610286610270366120e3565b8360409492945193828580945193849201612166565b810160038152030190209060018060a01b03165f52602052602060ff60405f2054166040519015158152f35b3461017d576102c036612125565b60018060a01b0380911690815f526020925f84526102f8600160ff60046102ec8160405f200186612207565b01541615151415612300565b60405191815192858181850195610310818389612166565b81016003815203019020845f52855260ff60405f20541661048b5760025460405163b3f6702d60e01b815260048101879052908216918682806103566024820188612187565b0381865afa801561045357610375925f9161045e575b5016331461237c565b846040518092631efb39a960e11b8252826004830152818061039a6024820188612187565b03915afa908115610453576103f8936103c460016103d59489945f91610426575b501515146123f1565b604051809381928651928391612166565b81016003815203019020835f52845260405f20600160ff19825416179055612448565b9080604051927fbee566e9904e3c5e202405f159f39bc31121d728f2772cabc7cf243bcf63a6475f80a38152f35b6104469150853d871161044c575b61043e818361206d565b8101906123d9565b8a6103bb565b503d610434565b6040513d5f823e3d90fd5b61047e9150883d8a11610484575b610476818361206d565b81019061235d565b8861036c565b503d61046c565b60405162461bcd60e51b8152600481018690526014602482015273155cd95c88105b1c9958591e48125b9d9a5d195960621b6044820152606490fd5b3461017d5760208060031936011261017d576004356001600160401b03811161017d576104f890369060040161208e565b600254604051637b7fcfed60e01b815260048101849052919290819083906001600160a01b0316818061052e6024820189612187565b03915afa918215610453575f9261054c9184916105c0575b506124e8565b33825281815261057260ff600461056881604087200187612207565b015416151561252f565b3382525260046105878160405f200183612207565b0160ff19815416905561059a3391612448565b7fdd403bcc860194e697bd48a94ad259a004827525ef954ad73b044e400f3adfe05f80a3005b6105d79150833d851161044c5761043e818361206d565b85610546565b3461017d57606036600319011261017d576105f6612057565b6024356001600160401b03811161017d5761061590369060040161208e565b906044356001600160a01b038116810361017d5760209261063592612861565b6040519015158152f35b3461017d57608036600319011261017d576004356001600160401b03811161017d5761066f90369060040161208e565b6024356001600160401b03811161017d5761068e90369060040161208e565b906044356001600160401b03811161017d576106ae903690600401612244565b916064356001600160401b03811161017d576106ce903690600401612244565b91335f525f60205260405f2081516001600160401b038111610987576106f4825461258b565b601f8111610c9f575b50806020601f8211600114610c3d575f91610c32575b508160011b915f199060031b1c19161790555b335f525f602052600160405f200182516001600160401b0381116109875761074e825461258b565b601f8111610bf7575b50806020601f8211600114610b95575f91610b8a575b508160011b915f199060031b1c19161790555b335f525f602052600260405f20018451600160401b8111610987578154818355808210610b19575b5060208601915f5260205f20915f905b828210610a0c5750505050335f525f602052600360405f20018351600160401b811161098757815481835580821061099b575b5060208501915f5260205f20915f905b82821061086f5787877f0c666a7d9a69cae45d6fc4d1d8575c0c8312edcccc1c3fb9a49704fb9e9b10cb61084d8961086a61085b6108388c612448565b96604051948594606086526060860190612187565b9084820360208601526121ac565b828103604084015233956121ac565b0390a3005b80518051906001600160401b0382116109875761088c865461258b565b601f811161094c575b50602090601f83116001146108e05792826001949360209386955f926108d5575b50505f19600383901b1c191690841b1787555b019401910190926107fb565b015190508d806108b6565b90865f5260205f20915f5b601f1985168110610934575083602093600196938796938794601f1981161061091c575b505050811b0187556108c9565b01515f1960f88460031b161c191690558d808061090f565b919260206001819286850151815501940192016108eb565b61097790875f5260205f206005601f8601811c8201926020871061097d575b601f01901c01906125c3565b8a610895565b919250829161096b565b634e487b7160e01b5f52604160045260245ffd5b825f5260205f20908282015b81830181106109b75750506107eb565b806109c46001925461258b565b806109d1575b50016109a7565b601f811183146109e657505f81555b8a6109ca565b5f90828252610a03601f60208420920160051c82018583016125c3565b818355556109e0565b80518051906001600160401b03821161098757610a29865461258b565b601f8111610ae9575b50602090601f8311600114610a7d5792826001949360209386955f92610a72575b50505f19600383901b1c191690841b1787555b019401910190926107b8565b015190508d80610a53565b90865f5260205f20915f5b601f1985168110610ad1575083602093600196938796938794601f19811610610ab9575b505050811b018755610a66565b01515f1960f88460031b161c191690558d8080610aac565b91926020600181928685015181550194019201610a88565b610b1390875f5260205f206005601f8601811c8201926020871061097d57601f01901c01906125c3565b8a610a32565b825f5260205f20908282015b8183018110610b355750506107a8565b80610b426001925461258b565b80610b4f575b5001610b25565b601f81118314610b6457505f81555b8a610b48565b5f90828252610b81601f60208420920160051c82018583016125c3565b81835555610b5e565b90508401518761076d565b5f848152602081209250601f198416905b818110610bdf57509083600194939210610bc7575b5050811b019055610780565b8601515f1960f88460031b161c191690558780610bbb565b9192602060018192868b015181550194019201610ba6565b610c2290835f5260205f20601f840160051c81019160208510610c28575b601f0160051c01906125c3565b86610757565b9091508190610c15565b905083015187610713565b5f848152602081209250601f198416905b818110610c8757509083600194939210610c6f575b5050811b019055610726565b8501515f1960f88460031b161c191690558780610c63565b9192602060018192868a015181550194019201610c4e565b610cc990835f5260205f20601f840160051c81019160208510610c2857601f0160051c01906125c3565b866106fd565b3461017d57610cdd36612125565b600254604051637b7fcfed60e01b8152602060048201819052926001600160a01b03929091908490829085168180610d18602482018b612187565b03915afa801561045357610d32915f91610ee457506124e8565b335f525f8352610d5b600160ff6004610d508160405f200189612207565b01541615151461252f565b1690815f525f8152610d86600160ff6004610d7b8160405f200188612207565b0154161515146125d9565b610d928233141561263c565b815f525f81526001610daa600460405f200185612207565b01335f528152610dbe60405f205415612688565b815f525f8152610dd4600460405f200184612207565b610dde81546126e8565b9055815f525f8152610df6600460405f200184612207565b54610e0084612448565b604051918252835f80516020612994833981519152844294a4815f525f8152610e3b336002610e35600460405f200187612207565b016124c3565b815f525f81526002610e53600460405f200185612207565b01545f198101908111610ed057825f525f82526001610e78600460405f200186612207565b01335f52825260405f2055815f525f81527fd0f5d24e816c9fc4cba0f35b280898648e66604fc44212736e778bfefc338b0f610ec4610ebd600460405f200186612207565b5494612448565b916040519485523394a4005b634e487b7160e01b5f52601160045260245ffd5b610efb9150853d871161044c5761043e818361206d565b86610546565b3461017d57602060ff6004610f36610f18366120e3565b6001600160a01b039091165f90815280865260409020830190612207565b0154166040519015158152f35b3461017d576020610286610f5636612125565b92908160405193828580945193849201612166565b3461017d57606036600319011261017d57610f84612057565b6001600160a01b03602435818116929083900361017d57604435906001600160401b03821161017d57600192610fc1610fe193369060040161208e565b9116805f525f60205261014c8460ff60046101418160405f200187612207565b01905f52602052602060405f2054604051908152f35b3461017d5761100536612125565b600254604051637b7fcfed60e01b8152602060048201819052926001600160a01b03929091908490829085168180611040602482018b612187565b03915afa80156104535761105a915f91610ee457506124e8565b335f525f8352611078600160ff6004610d508160405f200189612207565b1690815f525f8152611098600160ff6004610d7b8160405f200188612207565b6110a48233141561263c565b815f525f815260016110bc600460405f200185612207565b01335f5281526110d060405f205415612688565b815f525f81526110e6600460405f200184612207565b6110f08154612704565b9055815f525f8152611108600460405f200184612207565b5461111284612448565b604051918252835f80516020612994833981519152844294a4815f525f8152611147336003610e35600460405f200187612207565b815f525f8152600361115f600460405f200185612207565b01545f198101908111610ed05761117590612715565b825f525f8252600161118d600460405f200186612207565b01335f52825260405f2055815f525f81527f8e3dd53aaad1909975de245668134b898a443d9d797f6a14e77b5cd0606ed541610ec4610ebd600460405f200186612207565b3461017d575f36600319011261017d576002546040516001600160a01b039091168152602090f35b3461017d5761120836612125565b60028054604051637b7fcfed60e01b8152602060048201819052926001600160a01b03929091908490829085168180611244602482018c612187565b03915afa80156104535761125e915f9161159f57506124e8565b335f525f83528160019461127f8660ff6004610d508160405f20018c612207565b1693845f525f845261129e8160ff6004610d7b8160405f20018b612207565b6112aa8533141561263c565b845f525f8452806112c1600460405f200188612207565b01335f5284525f6040812054131561153b57845f525f84526112e9600460405f200187612207565b6112f38154612704565b9055845f525f845261130b600460405f200187612207565b5461131587612448565b604051918252865f80516020612994833981519152874294a4845f525f845280611345600460405f200188612207565b01335f52845260405f2054855f525f8552611373828461136b600460405f20018b612207565b01541161272a565b855f525f85528261138a600460405f200189612207565b01545f199490858101908111610ed0578203611420575b50506113e69250845f525f84526113be600460405f200187612207565b01335f5283525f6040812055835f525f83526113e0600460405f200186612207565b0161276f565b815f525f81527f6c5cfc2553aaffd4cd0342765cdbca370cda07554f00e4e5112884eae468e299610ec4610ebd600460405f200186612207565b865f525f865283611437600460405f20018a612207565b0194875f525f875284611450600460405f20018b612207565b0154908101908111610ed057868883611494868961148e8f5f61147a6113e69f9a6114b99b612468565b99905498825252600460405f200190612207565b01612468565b92909360031b1c169082549060031b9160018060a01b03809116831b921b1916179055565b865f525f8652826114d0600460405f20018a612207565b0190875f525f87526114ed838661148e600460405f20018d612207565b90549060031b1c165f5285528060405f20558561150988612448565b6040519283527fd6fa86004958e4fadc7035e661e86172c72f1ea51e79e8bf8bd3f4103663e8e3873394a486806113a1565b60405162461bcd60e51b815260048101859052603660248201527f596f752068617665206e6f7420676976656e206120706f73697469766520637260448201527532b2103a37903a3434b99036b2b6b132b9103cb2ba1760511b6064820152608490fd5b6115b69150853d871161044c5761043e818361206d565b87610546565b3461017d576115ca36612125565b9060018060a01b0380921690815f526020925f84526115f7600160ff60046102ec8160405f200187612207565b60025460405163b3f6702d60e01b815260048101869052908216918582806116226024820188612187565b0381865afa801561045357611640925f91611853575016331461237c565b836040518092631efb39a960e11b825282600483015281806116656024820188612187565b03915afa90811561045357611686916001915f9161183657501515146123f1565b60405181519084818185019361169d818387612166565b81016003815203019020835f52845260ff60405f205416156117fc578233146117b757836116d691604051809381928651928391612166565b81016003815203019020825f52835260405f209060ff199182815416905560405191635848e2a360e11b83528360048401526040602484015284838061171f6044820186612187565b0381305afa92831561045357611748936001915f9161179a575b50151514611776575b50612448565b9080604051927fe19753ef16cb08d80c81e7c26df1578544dc02c0a7538cf0d3fc2355dc180bca5f80a38152f35b835f525f8552600461178d8160405f200184612207565b0190815416905584611742565b6117b19150873d891161044c5761043e818361206d565b87611739565b60405162461bcd60e51b815260048101859052601d60248201527f596f752063616e6e6f7420756e696e7669746520796f757273656c662e0000006044820152606490fd5b60405162461bcd60e51b815260048101859052601260248201527113595b58995c88139bdd08125b9d9a5d195960721b6044820152606490fd5b61184d9150863d881161044c5761043e818361206d565b866103bb565b61186a9150873d891161048457610476818361206d565b8761036c565b3461017d57602036600319011261017d576001600160a01b03611891612057565b165f525f6020526118ec60405f206101796118ab826128a0565b916119086118bb600183016128a0565b916118fa6118d760036118d06002850161293f565b930161293f565b93604051978897608089526080890190612187565b908782036020890152612187565b9085820360408701526121ac565b9083820360608501526121ac565b3461017d5760208060031936011261017d576004356001600160401b03811161017d5761194790369060040161208e565b9060018060a01b0360025416604051637b7fcfed60e01b81528260048201528281806119766024820188612187565b0381855afa908115610453575f91611bc3575b5015611b8357335f525f8252600160ff60046119aa8160405f200187612207565b015416151514611b2a57816040518092631efb39a960e11b825282600483015281806119d96024820189612187565b03915afa8015610453576001915f91611b0d575b50151514611a85575b5f903382528181526004611a0f81604085200185612207565b01600160ff19825416179055338252818152611a3c6002611a366004604086200186612207565b01612491565b33825252611a556003611a36600460405f200184612207565b611a5f3391612448565b7ff038f0d708fc70f18d5815d07a62a3b40d2035dc6af7429865f612242ff870585f80a3005b60405181818451611a998183858901612166565b81016003815203019020335f528152600160ff60405f205416151503156119f6576084906040519062461bcd60e51b82526004820152602660248201527f596f7520617265206e6f7420696e766974656420746f207468697320636f6d6d6044820152653ab734ba3c9760d11b6064820152fd5b611b249150833d851161044c5761043e818361206d565b846119ed565b60405162461bcd60e51b815260048101839052602b60248201527f596f752061726520616c72656164792061206d656d626572206f66207468697360448201526a1031b7b6b6bab734ba3c9760a91b6064820152608490fd5b60405162461bcd60e51b815260048101839052601860248201527710dbdb5b5d5b9a5d1e48111bd95cc81b9bdd08115e1a5cdd60421b6044820152606490fd5b611bda9150833d851161044c5761043e818361206d565b84611989565b3461017d57611bee36612125565b600254604051637b7fcfed60e01b81526020600482018190526001600160a01b039390929091908390829086168180611c2a602482018b612187565b03915afa801561045357611c44915f91611f6a57506124e8565b335f525f825282600191611c658360ff6004610d508160405f20018b612207565b1692835f525f8352611c848260ff6004610d7b8160405f20018a612207565b611c908433141561263c565b835f525f835281611ca7600460405f200187612207565b01335f5283525f60408120541215611f0657835f525f8352611ccf600460405f200186612207565b611cd981546126e8565b9055835f525f8352611cf1600460405f200186612207565b54611cfb86612448565b604051918252855f80516020612994833981519152864294a4835f525f835281611d2b600460405f200187612207565b01335f528352611d3e60405f2054612715565b91845f525f8452600391611d5d828461136b600460405f20018b612207565b855f525f855282611d74600460405f200189612207565b01545f199490858101908111610ed0578103611de2575b5050611da89250845f525f84526113be600460405f200187612207565b815f525f81527fd6d87a1ec8d7320486a7705035a72a09149f3c5e25dcccb14a1c99eebc86d6c0610ec4610ebd600460405f200186612207565b865f525f865283611df9600460405f20018a612207565b0194875f525f875284611e12600460405f20018b612207565b0154908101908111610ed0578783611eb5848861148e8e611e81611eca9a8f99611da89f90611e4091612468565b905490861b1c16885f525f8a52611e62868661148e600460405f200187612207565b90919082549060031b9160018060a01b03809116831b921b1916179055565b5f611e8b85612715565b988882528181528c611ea36004604085200185612207565b0198825252600460405f200190612207565b905490881b1c165f52875260405f2055612715565b85611ed488612448565b6040519283527fd6fa86004958e4fadc7035e661e86172c72f1ea51e79e8bf8bd3f4103663e8e3873394a48680611d8b565b60405162461bcd60e51b815260048101849052603660248201527f596f752068617665206e6f7420676976656e2061206e6567617469766520637260448201527532b2103a37903a3434b99036b2b6b132b9103cb2ba1760511b6064820152608490fd5b610efb9150843d861161044c5761043e818361206d565b3461017d57602036600319011261017d57611f9a612057565b6001546001600160a01b03919082163303611fc4571660018060a01b031960025416176002555f80f35b60405162461bcd60e51b81526020600482015260166024820152752737ba103a34329031b7b73a3930b1ba1037bbb732b960511b6044820152606490fd5b3461017d57602061204e612015366120e3565b9060018060a01b0316805f525f845261203c600160ff60046101418160405f200187612207565b5f525f8352600460405f200190612207565b54604051908152f35b600435906001600160a01b038216820361017d57565b90601f801991011681019081106001600160401b0382111761098757604052565b81601f8201121561017d578035906001600160401b03821161098757604051926120c2601f8401601f19166020018561206d565b8284526020838301011161017d57815f926020809301838601378301015290565b90604060031983011261017d576004356001600160a01b038116810361017d5791602435906001600160401b03821161017d576121229160040161208e565b90565b604060031982011261017d57600435906001600160401b03821161017d5761214f9160040161208e565b906024356001600160a01b038116810361017d5790565b5f5b8381106121775750505f910152565b8181015183820152602001612168565b906020916121a081518092818552858086019101612166565b601f01601f1916010190565b908082519081815260208091019281808460051b8301019501935f915b8483106121d95750505050505090565b90919293949584806121f7600193601f198682030187528a51612187565b98019301930191949392906121c9565b602090612221928260405194838680955193849201612166565b82019081520301902090565b6001600160401b0381116109875760051b60200190565b9080601f8301121561017d5781359061225c8261222d565b9261226a604051948561206d565b828452602092838086019160051b8301019280841161017d57848301915b8483106122985750505050505090565b82356001600160401b03811161017d5786916122b98484809489010161208e565b815201920191612288565b9081518082526020808093019301915f5b8281106122e3575050505090565b83516001600160a01b0316855293810193928101926001016122d5565b1561230757565b60405162461bcd60e51b815260206004820152602860248201527f4d656d62657220616c726561647920657869737473206f66207468697320636f60448201526736b6bab734ba3c9760c11b6064820152608490fd5b9081602091031261017d57516001600160a01b038116810361017d5790565b1561238357565b60405162461bcd60e51b815260206004820152602860248201527f596f7520617265206e6f7420746865206f776e6572206f66207468697320636f60448201526736b6bab734ba3c9760c11b6064820152608490fd5b9081602091031261017d5751801515810361017d5790565b156123f857565b60405162461bcd60e51b815260206004820152602260248201527f5468697320636f6d6d756e697479206973206e6f7420696e76697465206f6e6c6044820152613c9760f11b6064820152608490fd5b61246090602060405192828480945193849201612166565b810103902090565b805482101561247d575f5260205f2001905f90565b634e487b7160e01b5f52603260045260245ffd5b8054600160401b811015610987576124ae91600182018155612468565b81549060018060a01b039060031b1b19169055565b80549190600160401b8310156109875782611e629160016124e695018155612468565b565b156124ef57565b60405162461bcd60e51b815260206004820152601860248201527710dbdb5b5d5b9a5d1e48111bd95cc8139bdd08115e1a5cdd60421b6044820152606490fd5b1561253657565b60405162461bcd60e51b815260206004820152602760248201527f596f7520617265206e6f742061206d656d626572206f66207468697320636f6d60448201526636bab734ba3c9760c91b6064820152608490fd5b90600182811c921680156125b9575b60208310146125a557565b634e487b7160e01b5f52602260045260245ffd5b91607f169161259a565b8181106125ce575050565b5f81556001016125c3565b156125e057565b60405162461bcd60e51b815260206004820152602e60248201527f546172676574206d656d62657220646f65736e2774206578697374206f66207460448201526d3434b99031b7b6b6bab734ba3c9760911b6064820152608490fd5b1561264357565b60405162461bcd60e51b815260206004820152601f60248201527f596f752063616e6e6f74206564697420796f7572206f776e2063726564732e006044820152606490fd5b1561268f57565b60405162461bcd60e51b815260206004820152602b60248201527f596f7527766520616c726561647920676976656e2061206372656420746f207460448201526a3434b99036b2b6b132b91760a91b6064820152608490fd5b9060018201915f600184129112908015821691151617610ed057565b905f198201918213600116610ed057565b90815f03918083055f191490151715610ed057565b1561273157565b60405162461bcd60e51b815260206004820152601660248201527554686973207573657220686173206e6f20437265647360501b6044820152606490fd5b8054801561279b575f1901906127858282612468565b81549060018060a01b039060031b1b1916905555565b634e487b7160e01b5f52603160045260245ffd5b156127b657565b60405162461bcd60e51b815260206004820152602860248201527f4d656d62657220446f6573204e6f7420457869737420466f72207468697320636044820152676f6d6d756e69747960c01b6064820152608490fd5b906040519182815491828252602092838301915f52835f20935f905b82821061283e575050506124e69250038361206d565b85546001600160a01b031684526001958601958895509381019390910190612828565b91906001612886818060a01b0392835f96168652856020526004604087200190612207565b01911682526020526040812054155f146121225750600190565b9060405191825f8254926128b38461258b565b9081845260019485811690815f1461291c57506001146128dc575b50506124e69250038361206d565b909391505f52602090815f20935f915b8183106129045750506124e693508201015f806128ce565b855488840185015294850194879450918301916128ec565b9150506124e694506020925060ff191682840152151560051b8201015f806128ce565b90815461294b8161222d565b92612959604051948561206d565b8184525f90815260208082208186015b848410612977575050505050565b6001838192612985856128a0565b81520192019301929061296956fe1956a939e1963127a6802bc7dff8c43f9bc551a0bf97efc611706570e4108402a2646970667358221220ea7923f235ad7066e4e0bd55d3a3111279840650680988baf0fcbdfbfdf8608864736f6c63430008140033","opcodes":"PUSH1 0x80 DUP1 PUSH1 0x40 MSTORE CALLVALUE PUSH2 0x28 JUMPI PUSH1 0x1 DUP1 SLOAD PUSH1 0x1 PUSH1 0x1 PUSH1 0xA0 SHL SUB NOT AND CALLER OR SWAP1 SSTORE PUSH2 0x29E9 SWAP1 DUP2 PUSH2 0x2D DUP3 CODECOPY RETURN JUMPDEST PUSH0 DUP1 REVERT INVALID PUSH1 0x80 PUSH1 0x40 MSTORE PUSH1 0x4 CALLDATASIZE LT ISZERO PUSH2 0x11 JUMPI PUSH0 DUP1 REVERT JUMPDEST PUSH0 CALLDATALOAD PUSH1 0xE0 SHR DUP1 PUSH4 0x2B5DF59 EQ PUSH2 0x2002 JUMPI DUP1 PUSH4 0x19F553E2 EQ PUSH2 0x1F81 JUMPI DUP1 PUSH4 0x4F64AEDD EQ PUSH2 0x1BE0 JUMPI DUP1 PUSH4 0x5450FDD5 EQ PUSH2 0x1916 JUMPI DUP1 PUSH4 0x5F1231EA EQ PUSH2 0x1870 JUMPI DUP1 PUSH4 0x6B039BB4 EQ PUSH2 0x15BC JUMPI DUP1 PUSH4 0x8C5956C4 EQ PUSH2 0x11FA JUMPI DUP1 PUSH4 0x8E634029 EQ PUSH2 0x11D2 JUMPI DUP1 PUSH4 0x99D03BF2 EQ PUSH2 0xFF7 JUMPI DUP1 PUSH4 0x9C419DC9 EQ PUSH2 0xF6B JUMPI DUP1 PUSH4 0xA4828578 EQ PUSH2 0xF43 JUMPI DUP1 PUSH4 0xB091C546 EQ PUSH2 0xF01 JUMPI DUP1 PUSH4 0xB66FDAB4 EQ PUSH2 0xCCF JUMPI DUP1 PUSH4 0xBE42D3AF EQ PUSH2 0x63F JUMPI DUP1 PUSH4 0xC783ACB4 EQ PUSH2 0x5DD JUMPI DUP1 PUSH4 0xCA4F880B EQ PUSH2 0x4C7 JUMPI DUP1 PUSH4 0xCDB43EA4 EQ PUSH2 0x2B2 JUMPI DUP1 PUSH4 0xE636F314 EQ PUSH2 0x25D JUMPI DUP1 PUSH4 0xEF0ED360 EQ PUSH2 0x19A JUMPI DUP1 PUSH4 0xF3FAF99A EQ PUSH2 0x181 JUMPI PUSH4 0xFBC3D96C EQ PUSH2 0x100 JUMPI PUSH0 DUP1 REVERT JUMPDEST CALLVALUE PUSH2 0x17D JUMPI PUSH2 0x179 PUSH2 0x165 PUSH1 0x3 PUSH2 0x15F PUSH2 0x119 CALLDATASIZE PUSH2 0x20E3 JUMP JUMPDEST SWAP1 PUSH1 0x1 DUP1 PUSH1 0xA0 SHL SUB AND DUP1 PUSH0 MSTORE PUSH0 PUSH1 0x20 MSTORE PUSH2 0x14C PUSH1 0x1 PUSH1 0xFF PUSH1 0x4 PUSH2 0x141 DUP2 PUSH1 0x40 PUSH0 KECCAK256 ADD DUP8 PUSH2 0x2207 JUMP JUMPDEST ADD SLOAD AND ISZERO ISZERO EQ PUSH2 0x27AF JUMP JUMPDEST PUSH0 MSTORE PUSH0 PUSH1 0x20 MSTORE PUSH1 0x4 PUSH1 0x40 PUSH0 KECCAK256 ADD SWAP1 PUSH2 0x2207 JUMP JUMPDEST ADD PUSH2 0x280C JUMP JUMPDEST PUSH1 0x40 MLOAD SWAP2 DUP3 SWAP2 PUSH1 0x20 DUP4 MSTORE PUSH1 0x20 DUP4 ADD SWAP1 PUSH2 0x22C4 JUMP JUMPDEST SUB SWAP1 RETURN JUMPDEST PUSH0 DUP1 REVERT JUMPDEST CALLVALUE PUSH2 0x17D JUMPI PUSH2 0x179 PUSH2 0x165 PUSH1 0x2 PUSH2 0x15F PUSH2 0x119 CALLDATASIZE PUSH2 0x20E3 JUMP JUMPDEST CALLVALUE PUSH2 0x17D JUMPI PUSH2 0x1A8 CALLDATASIZE PUSH2 0x20E3 JUMP JUMPDEST SWAP1 PUSH1 0x1 DUP1 PUSH1 0xA0 SHL SUB AND SWAP1 DUP2 PUSH0 MSTORE PUSH0 PUSH1 0x20 MSTORE PUSH2 0x1D1 PUSH1 0x1 PUSH1 0xFF PUSH1 0x4 PUSH2 0x141 DUP2 PUSH1 0x40 PUSH0 KECCAK256 ADD DUP7 PUSH2 0x2207 JUMP JUMPDEST DUP2 PUSH0 MSTORE PUSH0 PUSH1 0x20 MSTORE PUSH2 0x179 PUSH2 0x233 PUSH2 0x22D PUSH1 0x3 PUSH2 0x226 PUSH2 0x1F6 PUSH1 0x4 PUSH1 0x40 PUSH0 KECCAK256 ADD DUP8 PUSH2 0x2207 JUMP JUMPDEST SLOAD SWAP6 DUP8 PUSH0 MSTORE PUSH0 PUSH1 0x20 MSTORE PUSH1 0x2 PUSH2 0x211 PUSH1 0x4 PUSH1 0x40 PUSH0 KECCAK256 ADD DUP4 PUSH2 0x2207 JUMP JUMPDEST ADD SWAP8 PUSH0 MSTORE PUSH0 PUSH1 0x20 MSTORE PUSH1 0x4 PUSH1 0x40 PUSH0 KECCAK256 ADD SWAP1 PUSH2 0x2207 JUMP JUMPDEST ADD SWAP5 PUSH2 0x280C JUMP JUMPDEST SWAP4 PUSH2 0x280C JUMP JUMPDEST PUSH2 0x24F PUSH1 0x40 MLOAD SWAP5 DUP6 SWAP5 DUP6 MSTORE PUSH1 0x60 PUSH1 0x20 DUP7 ADD MSTORE PUSH1 0x60 DUP6 ADD SWAP1 PUSH2 0x22C4 JUMP JUMPDEST SWAP1 DUP4 DUP3 SUB PUSH1 0x40 DUP6 ADD MSTORE PUSH2 0x22C4 JUMP JUMPDEST CALLVALUE PUSH2 0x17D JUMPI PUSH1 0x20 PUSH2 0x286 PUSH2 0x270 CALLDATASIZE PUSH2 0x20E3 JUMP JUMPDEST DUP4 PUSH1 0x40 SWAP5 SWAP3 SWAP5 MLOAD SWAP4 DUP3 DUP6 DUP1 SWAP5 MLOAD SWAP4 DUP5 SWAP3 ADD PUSH2 0x2166 JUMP JUMPDEST DUP2 ADD PUSH1 0x3 DUP2 MSTORE SUB ADD SWAP1 KECCAK256 SWAP1 PUSH1 0x1 DUP1 PUSH1 0xA0 SHL SUB AND PUSH0 MSTORE PUSH1 0x20 MSTORE PUSH1 0x20 PUSH1 0xFF PUSH1 0x40 PUSH0 KECCAK256 SLOAD AND PUSH1 0x40 MLOAD SWAP1 ISZERO ISZERO DUP2 MSTORE RETURN JUMPDEST CALLVALUE PUSH2 0x17D JUMPI PUSH2 0x2C0 CALLDATASIZE PUSH2 0x2125 JUMP JUMPDEST PUSH1 0x1 DUP1 PUSH1 0xA0 SHL SUB DUP1 SWAP2 AND SWAP1 DUP2 PUSH0 MSTORE PUSH1 0x20 SWAP3 PUSH0 DUP5 MSTORE PUSH2 0x2F8 PUSH1 0x1 PUSH1 0xFF PUSH1 0x4 PUSH2 0x2EC DUP2 PUSH1 0x40 PUSH0 KECCAK256 ADD DUP7 PUSH2 0x2207 JUMP JUMPDEST ADD SLOAD AND ISZERO ISZERO EQ ISZERO PUSH2 0x2300 JUMP JUMPDEST PUSH1 0x40 MLOAD SWAP2 DUP2 MLOAD SWAP3 DUP6 DUP2 DUP2 DUP6 ADD SWAP6 PUSH2 0x310 DUP2 DUP4 DUP10 PUSH2 0x2166 JUMP JUMPDEST DUP2 ADD PUSH1 0x3 DUP2 MSTORE SUB ADD SWAP1 KECCAK256 DUP5 PUSH0 MSTORE DUP6 MSTORE PUSH1 0xFF PUSH1 0x40 PUSH0 KECCAK256 SLOAD AND PUSH2 0x48B JUMPI PUSH1 0x2 SLOAD PUSH1 0x40 MLOAD PUSH4 0xB3F6702D PUSH1 0xE0 SHL DUP2 MSTORE PUSH1 0x4 DUP2 ADD DUP8 SWAP1 MSTORE SWAP1 DUP3 AND SWAP2 DUP7 DUP3 DUP1 PUSH2 0x356 PUSH1 0x24 DUP3 ADD DUP9 PUSH2 0x2187 JUMP JUMPDEST SUB DUP2 DUP7 GAS STATICCALL DUP1 ISZERO PUSH2 0x453 JUMPI PUSH2 0x375 SWAP3 PUSH0 SWAP2 PUSH2 0x45E JUMPI JUMPDEST POP AND CALLER EQ PUSH2 0x237C JUMP JUMPDEST DUP5 PUSH1 0x40 MLOAD DUP1 SWAP3 PUSH4 0x1EFB39A9 PUSH1 0xE1 SHL DUP3 MSTORE DUP3 PUSH1 0x4 DUP4 ADD MSTORE DUP2 DUP1 PUSH2 0x39A PUSH1 0x24 DUP3 ADD DUP9 PUSH2 0x2187 JUMP JUMPDEST SUB SWAP2 GAS STATICCALL SWAP1 DUP2 ISZERO PUSH2 0x453 JUMPI PUSH2 0x3F8 SWAP4 PUSH2 0x3C4 PUSH1 0x1 PUSH2 0x3D5 SWAP5 DUP10 SWAP5 PUSH0 SWAP2 PUSH2 0x426 JUMPI JUMPDEST POP ISZERO ISZERO EQ PUSH2 0x23F1 JUMP JUMPDEST PUSH1 0x40 MLOAD DUP1 SWAP4 DUP2 SWAP3 DUP7 MLOAD SWAP3 DUP4 SWAP2 PUSH2 0x2166 JUMP JUMPDEST DUP2 ADD PUSH1 0x3 DUP2 MSTORE SUB ADD SWAP1 KECCAK256 DUP4 PUSH0 MSTORE DUP5 MSTORE PUSH1 0x40 PUSH0 KECCAK256 PUSH1 0x1 PUSH1 0xFF NOT DUP3 SLOAD AND OR SWAP1 SSTORE PUSH2 0x2448 JUMP JUMPDEST SWAP1 DUP1 PUSH1 0x40 MLOAD SWAP3 PUSH32 0xBEE566E9904E3C5E202405F159F39BC31121D728F2772CABC7CF243BCF63A647 PUSH0 DUP1 LOG3 DUP2 MSTORE RETURN JUMPDEST PUSH2 0x446 SWAP2 POP DUP6 RETURNDATASIZE DUP8 GT PUSH2 0x44C JUMPI JUMPDEST PUSH2 0x43E DUP2 DUP4 PUSH2 0x206D JUMP JUMPDEST DUP2 ADD SWAP1 PUSH2 0x23D9 JUMP JUMPDEST DUP11 PUSH2 0x3BB JUMP JUMPDEST POP RETURNDATASIZE PUSH2 0x434 JUMP JUMPDEST PUSH1 0x40 MLOAD RETURNDATASIZE PUSH0 DUP3 RETURNDATACOPY RETURNDATASIZE SWAP1 REVERT JUMPDEST PUSH2 0x47E SWAP2 POP DUP9 RETURNDATASIZE DUP11 GT PUSH2 0x484 JUMPI JUMPDEST PUSH2 0x476 DUP2 DUP4 PUSH2 0x206D JUMP JUMPDEST DUP2 ADD SWAP1 PUSH2 0x235D JUMP JUMPDEST DUP9 PUSH2 0x36C JUMP JUMPDEST POP RETURNDATASIZE PUSH2 0x46C JUMP JUMPDEST PUSH1 0x40 MLOAD PUSH3 0x461BCD PUSH1 0xE5 SHL DUP2 MSTORE PUSH1 0x4 DUP2 ADD DUP7 SWAP1 MSTORE PUSH1 0x14 PUSH1 0x24 DUP3 ADD MSTORE PUSH20 0x155CD95C88105B1C9958591E48125B9D9A5D1959 PUSH1 0x62 SHL PUSH1 0x44 DUP3 ADD MSTORE PUSH1 0x64 SWAP1 REVERT JUMPDEST CALLVALUE PUSH2 0x17D JUMPI PUSH1 0x20 DUP1 PUSH1 0x3 NOT CALLDATASIZE ADD SLT PUSH2 0x17D JUMPI PUSH1 0x4 CALLDATALOAD PUSH1 0x1 PUSH1 0x1 PUSH1 0x40 SHL SUB DUP2 GT PUSH2 0x17D JUMPI PUSH2 0x4F8 SWAP1 CALLDATASIZE SWAP1 PUSH1 0x4 ADD PUSH2 0x208E JUMP JUMPDEST PUSH1 0x2 SLOAD PUSH1 0x40 MLOAD PUSH4 0x7B7FCFED PUSH1 0xE0 SHL DUP2 MSTORE PUSH1 0x4 DUP2 ADD DUP5 SWAP1 MSTORE SWAP2 SWAP3 SWAP1 DUP2 SWAP1 DUP4 SWAP1 PUSH1 0x1 PUSH1 0x1 PUSH1 0xA0 SHL SUB AND DUP2 DUP1 PUSH2 0x52E PUSH1 0x24 DUP3 ADD DUP10 PUSH2 0x2187 JUMP JUMPDEST SUB SWAP2 GAS STATICCALL SWAP2 DUP3 ISZERO PUSH2 0x453 JUMPI PUSH0 SWAP3 PUSH2 0x54C SWAP2 DUP5 SWAP2 PUSH2 0x5C0 JUMPI JUMPDEST POP PUSH2 0x24E8 JUMP JUMPDEST CALLER DUP3 MSTORE DUP2 DUP2 MSTORE PUSH2 0x572 PUSH1 0xFF PUSH1 0x4 PUSH2 0x568 DUP2 PUSH1 0x40 DUP8 KECCAK256 ADD DUP8 PUSH2 0x2207 JUMP JUMPDEST ADD SLOAD AND ISZERO ISZERO PUSH2 0x252F JUMP JUMPDEST CALLER DUP3 MSTORE MSTORE PUSH1 0x4 PUSH2 0x587 DUP2 PUSH1 0x40 PUSH0 KECCAK256 ADD DUP4 PUSH2 0x2207 JUMP JUMPDEST ADD PUSH1 0xFF NOT DUP2 SLOAD AND SWAP1 SSTORE PUSH2 0x59A CALLER SWAP2 PUSH2 0x2448 JUMP JUMPDEST PUSH32 0xDD403BCC860194E697BD48A94AD259A004827525EF954AD73B044E400F3ADFE0 PUSH0 DUP1 LOG3 STOP JUMPDEST PUSH2 0x5D7 SWAP2 POP DUP4 RETURNDATASIZE DUP6 GT PUSH2 0x44C JUMPI PUSH2 0x43E DUP2 DUP4 PUSH2 0x206D JUMP JUMPDEST DUP6 PUSH2 0x546 JUMP JUMPDEST CALLVALUE PUSH2 0x17D JUMPI PUSH1 0x60 CALLDATASIZE PUSH1 0x3 NOT ADD SLT PUSH2 0x17D JUMPI PUSH2 0x5F6 PUSH2 0x2057 JUMP JUMPDEST PUSH1 0x24 CALLDATALOAD PUSH1 0x1 PUSH1 0x1 PUSH1 0x40 SHL SUB DUP2 GT PUSH2 0x17D JUMPI PUSH2 0x615 SWAP1 CALLDATASIZE SWAP1 PUSH1 0x4 ADD PUSH2 0x208E JUMP JUMPDEST SWAP1 PUSH1 0x44 CALLDATALOAD PUSH1 0x1 PUSH1 0x1 PUSH1 0xA0 SHL SUB DUP2 AND DUP2 SUB PUSH2 0x17D JUMPI PUSH1 0x20 SWAP3 PUSH2 0x635 SWAP3 PUSH2 0x2861 JUMP JUMPDEST PUSH1 0x40 MLOAD SWAP1 ISZERO ISZERO DUP2 MSTORE RETURN JUMPDEST CALLVALUE PUSH2 0x17D JUMPI PUSH1 0x80 CALLDATASIZE PUSH1 0x3 NOT ADD SLT PUSH2 0x17D JUMPI PUSH1 0x4 CALLDATALOAD PUSH1 0x1 PUSH1 0x1 PUSH1 0x40 SHL SUB DUP2 GT PUSH2 0x17D JUMPI PUSH2 0x66F SWAP1 CALLDATASIZE SWAP1 PUSH1 0x4 ADD PUSH2 0x208E JUMP JUMPDEST PUSH1 0x24 CALLDATALOAD PUSH1 0x1 PUSH1 0x1 PUSH1 0x40 SHL SUB DUP2 GT PUSH2 0x17D JUMPI PUSH2 0x68E SWAP1 CALLDATASIZE SWAP1 PUSH1 0x4 ADD PUSH2 0x208E JUMP JUMPDEST SWAP1 PUSH1 0x44 CALLDATALOAD PUSH1 0x1 PUSH1 0x1 PUSH1 0x40 SHL SUB DUP2 GT PUSH2 0x17D JUMPI PUSH2 0x6AE SWAP1 CALLDATASIZE SWAP1 PUSH1 0x4 ADD PUSH2 0x2244 JUMP JUMPDEST SWAP2 PUSH1 0x64 CALLDATALOAD PUSH1 0x1 PUSH1 0x1 PUSH1 0x40 SHL SUB DUP2 GT PUSH2 0x17D JUMPI PUSH2 0x6CE SWAP1 CALLDATASIZE SWAP1 PUSH1 0x4 ADD PUSH2 0x2244 JUMP JUMPDEST SWAP2 CALLER PUSH0 MSTORE PUSH0 PUSH1 0x20 MSTORE PUSH1 0x40 PUSH0 KECCAK256 DUP2 MLOAD PUSH1 0x1 PUSH1 0x1 PUSH1 0x40 SHL SUB DUP2 GT PUSH2 0x987 JUMPI PUSH2 0x6F4 DUP3 SLOAD PUSH2 0x258B JUMP JUMPDEST PUSH1 0x1F DUP2 GT PUSH2 0xC9F JUMPI JUMPDEST POP DUP1 PUSH1 0x20 PUSH1 0x1F DUP3 GT PUSH1 0x1 EQ PUSH2 0xC3D JUMPI PUSH0 SWAP2 PUSH2 0xC32 JUMPI JUMPDEST POP DUP2 PUSH1 0x1 SHL SWAP2 PUSH0 NOT SWAP1 PUSH1 0x3 SHL SHR NOT AND OR SWAP1 SSTORE JUMPDEST CALLER PUSH0 MSTORE PUSH0 PUSH1 0x20 MSTORE PUSH1 0x1 PUSH1 0x40 PUSH0 KECCAK256 ADD DUP3 MLOAD PUSH1 0x1 PUSH1 0x1 PUSH1 0x40 SHL SUB DUP2 GT PUSH2 0x987 JUMPI PUSH2 0x74E DUP3 SLOAD PUSH2 0x258B JUMP JUMPDEST PUSH1 0x1F DUP2 GT PUSH2 0xBF7 JUMPI JUMPDEST POP DUP1 PUSH1 0x20 PUSH1 0x1F DUP3 GT PUSH1 0x1 EQ PUSH2 0xB95 JUMPI PUSH0 SWAP2 PUSH2 0xB8A JUMPI JUMPDEST POP DUP2 PUSH1 0x1 SHL SWAP2 PUSH0 NOT SWAP1 PUSH1 0x3 SHL SHR NOT AND OR SWAP1 SSTORE JUMPDEST CALLER PUSH0 MSTORE PUSH0 PUSH1 0x20 MSTORE PUSH1 0x2 PUSH1 0x40 PUSH0 KECCAK256 ADD DUP5 MLOAD PUSH1 0x1 PUSH1 0x40 SHL DUP2 GT PUSH2 0x987 JUMPI DUP2 SLOAD DUP2 DUP4 SSTORE DUP1 DUP3 LT PUSH2 0xB19 JUMPI JUMPDEST POP PUSH1 0x20 DUP7 ADD SWAP2 PUSH0 MSTORE PUSH1 0x20 PUSH0 KECCAK256 SWAP2 PUSH0 SWAP1 JUMPDEST DUP3 DUP3 LT PUSH2 0xA0C JUMPI POP POP POP POP CALLER PUSH0 MSTORE PUSH0 PUSH1 0x20 MSTORE PUSH1 0x3 PUSH1 0x40 PUSH0 KECCAK256 ADD DUP4 MLOAD PUSH1 0x1 PUSH1 0x40 SHL DUP2 GT PUSH2 0x987 JUMPI DUP2 SLOAD DUP2 DUP4 SSTORE DUP1 DUP3 LT PUSH2 0x99B JUMPI JUMPDEST POP PUSH1 0x20 DUP6 ADD SWAP2 PUSH0 MSTORE PUSH1 0x20 PUSH0 KECCAK256 SWAP2 PUSH0 SWAP1 JUMPDEST DUP3 DUP3 LT PUSH2 0x86F JUMPI DUP8 DUP8 PUSH32 0xC666A7D9A69CAE45D6FC4D1D8575C0C8312EDCCCC1C3FB9A49704FB9E9B10CB PUSH2 0x84D DUP10 PUSH2 0x86A PUSH2 0x85B PUSH2 0x838 DUP13 PUSH2 0x2448 JUMP JUMPDEST SWAP7 PUSH1 0x40 MLOAD SWAP5 DUP6 SWAP5 PUSH1 0x60 DUP7 MSTORE PUSH1 0x60 DUP7 ADD SWAP1 PUSH2 0x2187 JUMP JUMPDEST SWAP1 DUP5 DUP3 SUB PUSH1 0x20 DUP7 ADD MSTORE PUSH2 0x21AC JUMP JUMPDEST DUP3 DUP2 SUB PUSH1 0x40 DUP5 ADD MSTORE CALLER SWAP6 PUSH2 0x21AC JUMP JUMPDEST SUB SWAP1 LOG3 STOP JUMPDEST DUP1 MLOAD DUP1 MLOAD SWAP1 PUSH1 0x1 PUSH1 0x1 PUSH1 0x40 SHL SUB DUP3 GT PUSH2 0x987 JUMPI PUSH2 0x88C DUP7 SLOAD PUSH2 0x258B JUMP JUMPDEST PUSH1 0x1F DUP2 GT PUSH2 0x94C JUMPI JUMPDEST POP PUSH1 0x20 SWAP1 PUSH1 0x1F DUP4 GT PUSH1 0x1 EQ PUSH2 0x8E0 JUMPI SWAP3 DUP3 PUSH1 0x1 SWAP5 SWAP4 PUSH1 0x20 SWAP4 DUP7 SWAP6 PUSH0 SWAP3 PUSH2 0x8D5 JUMPI JUMPDEST POP POP PUSH0 NOT PUSH1 0x3 DUP4 SWAP1 SHL SHR NOT AND SWAP1 DUP5 SHL OR DUP8 SSTORE JUMPDEST ADD SWAP5 ADD SWAP2 ADD SWAP1 SWAP3 PUSH2 0x7FB JUMP JUMPDEST ADD MLOAD SWAP1 POP DUP14 DUP1 PUSH2 0x8B6 JUMP JUMPDEST SWAP1 DUP7 PUSH0 MSTORE PUSH1 0x20 PUSH0 KECCAK256 SWAP2 PUSH0 JUMPDEST PUSH1 0x1F NOT DUP6 AND DUP2 LT PUSH2 0x934 JUMPI POP DUP4 PUSH1 0x20 SWAP4 PUSH1 0x1 SWAP7 SWAP4 DUP8 SWAP7 SWAP4 DUP8 SWAP5 PUSH1 0x1F NOT DUP2 AND LT PUSH2 0x91C JUMPI JUMPDEST POP POP POP DUP2 SHL ADD DUP8 SSTORE PUSH2 0x8C9 JUMP JUMPDEST ADD MLOAD PUSH0 NOT PUSH1 0xF8 DUP5 PUSH1 0x3 SHL AND SHR NOT AND SWAP1 SSTORE DUP14 DUP1 DUP1 PUSH2 0x90F JUMP JUMPDEST SWAP2 SWAP3 PUSH1 0x20 PUSH1 0x1 DUP2 SWAP3 DUP7 DUP6 ADD MLOAD DUP2 SSTORE ADD SWAP5 ADD SWAP3 ADD PUSH2 0x8EB JUMP JUMPDEST PUSH2 0x977 SWAP1 DUP8 PUSH0 MSTORE PUSH1 0x20 PUSH0 KECCAK256 PUSH1 0x5 PUSH1 0x1F DUP7 ADD DUP2 SHR DUP3 ADD SWAP3 PUSH1 0x20 DUP8 LT PUSH2 0x97D JUMPI JUMPDEST PUSH1 0x1F ADD SWAP1 SHR ADD SWAP1 PUSH2 0x25C3 JUMP JUMPDEST DUP11 PUSH2 0x895 JUMP JUMPDEST SWAP2 SWAP3 POP DUP3 SWAP2 PUSH2 0x96B JUMP JUMPDEST PUSH4 0x4E487B71 PUSH1 0xE0 SHL PUSH0 MSTORE PUSH1 0x41 PUSH1 0x4 MSTORE PUSH1 0x24 PUSH0 REVERT JUMPDEST DUP3 PUSH0 MSTORE PUSH1 0x20 PUSH0 KECCAK256 SWAP1 DUP3 DUP3 ADD JUMPDEST DUP2 DUP4 ADD DUP2 LT PUSH2 0x9B7 JUMPI POP POP PUSH2 0x7EB JUMP JUMPDEST DUP1 PUSH2 0x9C4 PUSH1 0x1 SWAP3 SLOAD PUSH2 0x258B JUMP JUMPDEST DUP1 PUSH2 0x9D1 JUMPI JUMPDEST POP ADD PUSH2 0x9A7 JUMP JUMPDEST PUSH1 0x1F DUP2 GT DUP4 EQ PUSH2 0x9E6 JUMPI POP PUSH0 DUP2 SSTORE JUMPDEST DUP11 PUSH2 0x9CA JUMP JUMPDEST PUSH0 SWAP1 DUP3 DUP3 MSTORE PUSH2 0xA03 PUSH1 0x1F PUSH1 0x20 DUP5 KECCAK256 SWAP3 ADD PUSH1 0x5 SHR DUP3 ADD DUP6 DUP4 ADD PUSH2 0x25C3 JUMP JUMPDEST DUP2 DUP4 SSTORE SSTORE PUSH2 0x9E0 JUMP JUMPDEST DUP1 MLOAD DUP1 MLOAD SWAP1 PUSH1 0x1 PUSH1 0x1 PUSH1 0x40 SHL SUB DUP3 GT PUSH2 0x987 JUMPI PUSH2 0xA29 DUP7 SLOAD PUSH2 0x258B JUMP JUMPDEST PUSH1 0x1F DUP2 GT PUSH2 0xAE9 JUMPI JUMPDEST POP PUSH1 0x20 SWAP1 PUSH1 0x1F DUP4 GT PUSH1 0x1 EQ PUSH2 0xA7D JUMPI SWAP3 DUP3 PUSH1 0x1 SWAP5 SWAP4 PUSH1 0x20 SWAP4 DUP7 SWAP6 PUSH0 SWAP3 PUSH2 0xA72 JUMPI JUMPDEST POP POP PUSH0 NOT PUSH1 0x3 DUP4 SWAP1 SHL SHR NOT AND SWAP1 DUP5 SHL OR DUP8 SSTORE JUMPDEST ADD SWAP5 ADD SWAP2 ADD SWAP1 SWAP3 PUSH2 0x7B8 JUMP JUMPDEST ADD MLOAD SWAP1 POP DUP14 DUP1 PUSH2 0xA53 JUMP JUMPDEST SWAP1 DUP7 PUSH0 MSTORE PUSH1 0x20 PUSH0 KECCAK256 SWAP2 PUSH0 JUMPDEST PUSH1 0x1F NOT DUP6 AND DUP2 LT PUSH2 0xAD1 JUMPI POP DUP4 PUSH1 0x20 SWAP4 PUSH1 0x1 SWAP7 SWAP4 DUP8 SWAP7 SWAP4 DUP8 SWAP5 PUSH1 0x1F NOT DUP2 AND LT PUSH2 0xAB9 JUMPI JUMPDEST POP POP POP DUP2 SHL ADD DUP8 SSTORE PUSH2 0xA66 JUMP JUMPDEST ADD MLOAD PUSH0 NOT PUSH1 0xF8 DUP5 PUSH1 0x3 SHL AND SHR NOT AND SWAP1 SSTORE DUP14 DUP1 DUP1 PUSH2 0xAAC JUMP JUMPDEST SWAP2 SWAP3 PUSH1 0x20 PUSH1 0x1 DUP2 SWAP3 DUP7 DUP6 ADD MLOAD DUP2 SSTORE ADD SWAP5 ADD SWAP3 ADD PUSH2 0xA88 JUMP JUMPDEST PUSH2 0xB13 SWAP1 DUP8 PUSH0 MSTORE PUSH1 0x20 PUSH0 KECCAK256 PUSH1 0x5 PUSH1 0x1F DUP7 ADD DUP2 SHR DUP3 ADD SWAP3 PUSH1 0x20 DUP8 LT PUSH2 0x97D JUMPI PUSH1 0x1F ADD SWAP1 SHR ADD SWAP1 PUSH2 0x25C3 JUMP JUMPDEST DUP11 PUSH2 0xA32 JUMP JUMPDEST DUP3 PUSH0 MSTORE PUSH1 0x20 PUSH0 KECCAK256 SWAP1 DUP3 DUP3 ADD JUMPDEST DUP2 DUP4 ADD DUP2 LT PUSH2 0xB35 JUMPI POP POP PUSH2 0x7A8 JUMP JUMPDEST DUP1 PUSH2 0xB42 PUSH1 0x1 SWAP3 SLOAD PUSH2 0x258B JUMP JUMPDEST DUP1 PUSH2 0xB4F JUMPI JUMPDEST POP ADD PUSH2 0xB25 JUMP JUMPDEST PUSH1 0x1F DUP2 GT DUP4 EQ PUSH2 0xB64 JUMPI POP PUSH0 DUP2 SSTORE JUMPDEST DUP11 PUSH2 0xB48 JUMP JUMPDEST PUSH0 SWAP1 DUP3 DUP3 MSTORE PUSH2 0xB81 PUSH1 0x1F PUSH1 0x20 DUP5 KECCAK256 SWAP3 ADD PUSH1 0x5 SHR DUP3 ADD DUP6 DUP4 ADD PUSH2 0x25C3 JUMP JUMPDEST DUP2 DUP4 SSTORE SSTORE PUSH2 0xB5E JUMP JUMPDEST SWAP1 POP DUP5 ADD MLOAD DUP8 PUSH2 0x76D JUMP JUMPDEST PUSH0 DUP5 DUP2 MSTORE PUSH1 0x20 DUP2 KECCAK256 SWAP3 POP PUSH1 0x1F NOT DUP5 AND SWAP1 JUMPDEST DUP2 DUP2 LT PUSH2 0xBDF JUMPI POP SWAP1 DUP4 PUSH1 0x1 SWAP5 SWAP4 SWAP3 LT PUSH2 0xBC7 JUMPI JUMPDEST POP POP DUP2 SHL ADD SWAP1 SSTORE PUSH2 0x780 JUMP JUMPDEST DUP7 ADD MLOAD PUSH0 NOT PUSH1 0xF8 DUP5 PUSH1 0x3 SHL AND SHR NOT AND SWAP1 SSTORE DUP8 DUP1 PUSH2 0xBBB JUMP JUMPDEST SWAP2 SWAP3 PUSH1 0x20 PUSH1 0x1 DUP2 SWAP3 DUP7 DUP12 ADD MLOAD DUP2 SSTORE ADD SWAP5 ADD SWAP3 ADD PUSH2 0xBA6 JUMP JUMPDEST PUSH2 0xC22 SWAP1 DUP4 PUSH0 MSTORE PUSH1 0x20 PUSH0 KECCAK256 PUSH1 0x1F DUP5 ADD PUSH1 0x5 SHR DUP2 ADD SWAP2 PUSH1 0x20 DUP6 LT PUSH2 0xC28 JUMPI JUMPDEST PUSH1 0x1F ADD PUSH1 0x5 SHR ADD SWAP1 PUSH2 0x25C3 JUMP JUMPDEST DUP7 PUSH2 0x757 JUMP JUMPDEST SWAP1 SWAP2 POP DUP2 SWAP1 PUSH2 0xC15 JUMP JUMPDEST SWAP1 POP DUP4 ADD MLOAD DUP8 PUSH2 0x713 JUMP JUMPDEST PUSH0 DUP5 DUP2 MSTORE PUSH1 0x20 DUP2 KECCAK256 SWAP3 POP PUSH1 0x1F NOT DUP5 AND SWAP1 JUMPDEST DUP2 DUP2 LT PUSH2 0xC87 JUMPI POP SWAP1 DUP4 PUSH1 0x1 SWAP5 SWAP4 SWAP3 LT PUSH2 0xC6F JUMPI JUMPDEST POP POP DUP2 SHL ADD SWAP1 SSTORE PUSH2 0x726 JUMP JUMPDEST DUP6 ADD MLOAD PUSH0 NOT PUSH1 0xF8 DUP5 PUSH1 0x3 SHL AND SHR NOT AND SWAP1 SSTORE DUP8 DUP1 PUSH2 0xC63 JUMP JUMPDEST SWAP2 SWAP3 PUSH1 0x20 PUSH1 0x1 DUP2 SWAP3 DUP7 DUP11 ADD MLOAD DUP2 SSTORE ADD SWAP5 ADD SWAP3 ADD PUSH2 0xC4E JUMP JUMPDEST PUSH2 0xCC9 SWAP1 DUP4 PUSH0 MSTORE PUSH1 0x20 PUSH0 KECCAK256 PUSH1 0x1F DUP5 ADD PUSH1 0x5 SHR DUP2 ADD SWAP2 PUSH1 0x20 DUP6 LT PUSH2 0xC28 JUMPI PUSH1 0x1F ADD PUSH1 0x5 SHR ADD SWAP1 PUSH2 0x25C3 JUMP JUMPDEST DUP7 PUSH2 0x6FD JUMP JUMPDEST CALLVALUE PUSH2 0x17D JUMPI PUSH2 0xCDD CALLDATASIZE PUSH2 0x2125 JUMP JUMPDEST PUSH1 0x2 SLOAD PUSH1 0x40 MLOAD PUSH4 0x7B7FCFED PUSH1 0xE0 SHL DUP2 MSTORE PUSH1 0x20 PUSH1 0x4 DUP3 ADD DUP2 SWAP1 MSTORE SWAP3 PUSH1 0x1 PUSH1 0x1 PUSH1 0xA0 SHL SUB SWAP3 SWAP1 SWAP2 SWAP1 DUP5 SWAP1 DUP3 SWAP1 DUP6 AND DUP2 DUP1 PUSH2 0xD18 PUSH1 0x24 DUP3 ADD DUP12 PUSH2 0x2187 JUMP JUMPDEST SUB SWAP2 GAS STATICCALL DUP1 ISZERO PUSH2 0x453 JUMPI PUSH2 0xD32 SWAP2 PUSH0 SWAP2 PUSH2 0xEE4 JUMPI POP PUSH2 0x24E8 JUMP JUMPDEST CALLER PUSH0 MSTORE PUSH0 DUP4 MSTORE PUSH2 0xD5B PUSH1 0x1 PUSH1 0xFF PUSH1 0x4 PUSH2 0xD50 DUP2 PUSH1 0x40 PUSH0 KECCAK256 ADD DUP10 PUSH2 0x2207 JUMP JUMPDEST ADD SLOAD AND ISZERO ISZERO EQ PUSH2 0x252F JUMP JUMPDEST AND SWAP1 DUP2 PUSH0 MSTORE PUSH0 DUP2 MSTORE PUSH2 0xD86 PUSH1 0x1 PUSH1 0xFF PUSH1 0x4 PUSH2 0xD7B DUP2 PUSH1 0x40 PUSH0 KECCAK256 ADD DUP9 PUSH2 0x2207 JUMP JUMPDEST ADD SLOAD AND ISZERO ISZERO EQ PUSH2 0x25D9 JUMP JUMPDEST PUSH2 0xD92 DUP3 CALLER EQ ISZERO PUSH2 0x263C JUMP JUMPDEST DUP2 PUSH0 MSTORE PUSH0 DUP2 MSTORE PUSH1 0x1 PUSH2 0xDAA PUSH1 0x4 PUSH1 0x40 PUSH0 KECCAK256 ADD DUP6 PUSH2 0x2207 JUMP JUMPDEST ADD CALLER PUSH0 MSTORE DUP2 MSTORE PUSH2 0xDBE PUSH1 0x40 PUSH0 KECCAK256 SLOAD ISZERO PUSH2 0x2688 JUMP JUMPDEST DUP2 PUSH0 MSTORE PUSH0 DUP2 MSTORE PUSH2 0xDD4 PUSH1 0x4 PUSH1 0x40 PUSH0 KECCAK256 ADD DUP5 PUSH2 0x2207 JUMP JUMPDEST PUSH2 0xDDE DUP2 SLOAD PUSH2 0x26E8 JUMP JUMPDEST SWAP1 SSTORE DUP2 PUSH0 MSTORE PUSH0 DUP2 MSTORE PUSH2 0xDF6 PUSH1 0x4 PUSH1 0x40 PUSH0 KECCAK256 ADD DUP5 PUSH2 0x2207 JUMP JUMPDEST SLOAD PUSH2 0xE00 DUP5 PUSH2 0x2448 JUMP JUMPDEST PUSH1 0x40 MLOAD SWAP2 DUP3 MSTORE DUP4 PUSH0 DUP1 MLOAD PUSH1 0x20 PUSH2 0x2994 DUP4 CODECOPY DUP2 MLOAD SWAP2 MSTORE DUP5 TIMESTAMP SWAP5 LOG4 DUP2 PUSH0 MSTORE PUSH0 DUP2 MSTORE PUSH2 0xE3B CALLER PUSH1 0x2 PUSH2 0xE35 PUSH1 0x4 PUSH1 0x40 PUSH0 KECCAK256 ADD DUP8 PUSH2 0x2207 JUMP JUMPDEST ADD PUSH2 0x24C3 JUMP JUMPDEST DUP2 PUSH0 MSTORE PUSH0 DUP2 MSTORE PUSH1 0x2 PUSH2 0xE53 PUSH1 0x4 PUSH1 0x40 PUSH0 KECCAK256 ADD DUP6 PUSH2 0x2207 JUMP JUMPDEST ADD SLOAD PUSH0 NOT DUP2 ADD SWAP1 DUP2 GT PUSH2 0xED0 JUMPI DUP3 PUSH0 MSTORE PUSH0 DUP3 MSTORE PUSH1 0x1 PUSH2 0xE78 PUSH1 0x4 PUSH1 0x40 PUSH0 KECCAK256 ADD DUP7 PUSH2 0x2207 JUMP JUMPDEST ADD CALLER PUSH0 MSTORE DUP3 MSTORE PUSH1 0x40 PUSH0 KECCAK256 SSTORE DUP2 PUSH0 MSTORE PUSH0 DUP2 MSTORE PUSH32 0xD0F5D24E816C9FC4CBA0F35B280898648E66604FC44212736E778BFEFC338B0F PUSH2 0xEC4 PUSH2 0xEBD PUSH1 0x4 PUSH1 0x40 PUSH0 KECCAK256 ADD DUP7 PUSH2 0x2207 JUMP JUMPDEST SLOAD SWAP5 PUSH2 0x2448 JUMP JUMPDEST SWAP2 PUSH1 0x40 MLOAD SWAP5 DUP6 MSTORE CALLER SWAP5 LOG4 STOP JUMPDEST PUSH4 0x4E487B71 PUSH1 0xE0 SHL PUSH0 MSTORE PUSH1 0x11 PUSH1 0x4 MSTORE PUSH1 0x24 PUSH0 REVERT JUMPDEST PUSH2 0xEFB SWAP2 POP DUP6 RETURNDATASIZE DUP8 GT PUSH2 0x44C JUMPI PUSH2 0x43E DUP2 DUP4 PUSH2 0x206D JUMP JUMPDEST DUP7 PUSH2 0x546 JUMP JUMPDEST CALLVALUE PUSH2 0x17D JUMPI PUSH1 0x20 PUSH1 0xFF PUSH1 0x4 PUSH2 0xF36 PUSH2 0xF18 CALLDATASIZE PUSH2 0x20E3 JUMP JUMPDEST PUSH1 0x1 PUSH1 0x1 PUSH1 0xA0 SHL SUB SWAP1 SWAP2 AND PUSH0 SWAP1 DUP2 MSTORE DUP1 DUP7 MSTORE PUSH1 0x40 SWAP1 KECCAK256 DUP4 ADD SWAP1 PUSH2 0x2207 JUMP JUMPDEST ADD SLOAD AND PUSH1 0x40 MLOAD SWAP1 ISZERO ISZERO DUP2 MSTORE RETURN JUMPDEST CALLVALUE PUSH2 0x17D JUMPI PUSH1 0x20 PUSH2 0x286 PUSH2 0xF56 CALLDATASIZE PUSH2 0x2125 JUMP JUMPDEST SWAP3 SWAP1 DUP2 PUSH1 0x40 MLOAD SWAP4 DUP3 DUP6 DUP1 SWAP5 MLOAD SWAP4 DUP5 SWAP3 ADD PUSH2 0x2166 JUMP JUMPDEST CALLVALUE PUSH2 0x17D JUMPI PUSH1 0x60 CALLDATASIZE PUSH1 0x3 NOT ADD SLT PUSH2 0x17D JUMPI PUSH2 0xF84 PUSH2 0x2057 JUMP JUMPDEST PUSH1 0x1 PUSH1 0x1 PUSH1 0xA0 SHL SUB PUSH1 0x24 CALLDATALOAD DUP2 DUP2 AND SWAP3 SWAP1 DUP4 SWAP1 SUB PUSH2 0x17D JUMPI PUSH1 0x44 CALLDATALOAD SWAP1 PUSH1 0x1 PUSH1 0x1 PUSH1 0x40 SHL SUB DUP3 GT PUSH2 0x17D JUMPI PUSH1 0x1 SWAP3 PUSH2 0xFC1 PUSH2 0xFE1 SWAP4 CALLDATASIZE SWAP1 PUSH1 0x4 ADD PUSH2 0x208E JUMP JUMPDEST SWAP2 AND DUP1 PUSH0 MSTORE PUSH0 PUSH1 0x20 MSTORE PUSH2 0x14C DUP5 PUSH1 0xFF PUSH1 0x4 PUSH2 0x141 DUP2 PUSH1 0x40 PUSH0 KECCAK256 ADD DUP8 PUSH2 0x2207 JUMP JUMPDEST ADD SWAP1 PUSH0 MSTORE PUSH1 0x20 MSTORE PUSH1 0x20 PUSH1 0x40 PUSH0 KECCAK256 SLOAD PUSH1 0x40 MLOAD SWAP1 DUP2 MSTORE RETURN JUMPDEST CALLVALUE PUSH2 0x17D JUMPI PUSH2 0x1005 CALLDATASIZE PUSH2 0x2125 JUMP JUMPDEST PUSH1 0x2 SLOAD PUSH1 0x40 MLOAD PUSH4 0x7B7FCFED PUSH1 0xE0 SHL DUP2 MSTORE PUSH1 0x20 PUSH1 0x4 DUP3 ADD DUP2 SWAP1 MSTORE SWAP3 PUSH1 0x1 PUSH1 0x1 PUSH1 0xA0 SHL SUB SWAP3 SWAP1 SWAP2 SWAP1 DUP5 SWAP1 DUP3 SWAP1 DUP6 AND DUP2 DUP1 PUSH2 0x1040 PUSH1 0x24 DUP3 ADD DUP12 PUSH2 0x2187 JUMP JUMPDEST SUB SWAP2 GAS STATICCALL DUP1 ISZERO PUSH2 0x453 JUMPI PUSH2 0x105A SWAP2 PUSH0 SWAP2 PUSH2 0xEE4 JUMPI POP PUSH2 0x24E8 JUMP JUMPDEST CALLER PUSH0 MSTORE PUSH0 DUP4 MSTORE PUSH2 0x1078 PUSH1 0x1 PUSH1 0xFF PUSH1 0x4 PUSH2 0xD50 DUP2 PUSH1 0x40 PUSH0 KECCAK256 ADD DUP10 PUSH2 0x2207 JUMP JUMPDEST AND SWAP1 DUP2 PUSH0 MSTORE PUSH0 DUP2 MSTORE PUSH2 0x1098 PUSH1 0x1 PUSH1 0xFF PUSH1 0x4 PUSH2 0xD7B DUP2 PUSH1 0x40 PUSH0 KECCAK256 ADD DUP9 PUSH2 0x2207 JUMP JUMPDEST PUSH2 0x10A4 DUP3 CALLER EQ ISZERO PUSH2 0x263C JUMP JUMPDEST DUP2 PUSH0 MSTORE PUSH0 DUP2 MSTORE PUSH1 0x1 PUSH2 0x10BC PUSH1 0x4 PUSH1 0x40 PUSH0 KECCAK256 ADD DUP6 PUSH2 0x2207 JUMP JUMPDEST ADD CALLER PUSH0 MSTORE DUP2 MSTORE PUSH2 0x10D0 PUSH1 0x40 PUSH0 KECCAK256 SLOAD ISZERO PUSH2 0x2688 JUMP JUMPDEST DUP2 PUSH0 MSTORE PUSH0 DUP2 MSTORE PUSH2 0x10E6 PUSH1 0x4 PUSH1 0x40 PUSH0 KECCAK256 ADD DUP5 PUSH2 0x2207 JUMP JUMPDEST PUSH2 0x10F0 DUP2 SLOAD PUSH2 0x2704 JUMP JUMPDEST SWAP1 SSTORE DUP2 PUSH0 MSTORE PUSH0 DUP2 MSTORE PUSH2 0x1108 PUSH1 0x4 PUSH1 0x40 PUSH0 KECCAK256 ADD DUP5 PUSH2 0x2207 JUMP JUMPDEST SLOAD PUSH2 0x1112 DUP5 PUSH2 0x2448 JUMP JUMPDEST PUSH1 0x40 MLOAD SWAP2 DUP3 MSTORE DUP4 PUSH0 DUP1 MLOAD PUSH1 0x20 PUSH2 0x2994 DUP4 CODECOPY DUP2 MLOAD SWAP2 MSTORE DUP5 TIMESTAMP SWAP5 LOG4 DUP2 PUSH0 MSTORE PUSH0 DUP2 MSTORE PUSH2 0x1147 CALLER PUSH1 0x3 PUSH2 0xE35 PUSH1 0x4 PUSH1 0x40 PUSH0 KECCAK256 ADD DUP8 PUSH2 0x2207 JUMP JUMPDEST DUP2 PUSH0 MSTORE PUSH0 DUP2 MSTORE PUSH1 0x3 PUSH2 0x115F PUSH1 0x4 PUSH1 0x40 PUSH0 KECCAK256 ADD DUP6 PUSH2 0x2207 JUMP JUMPDEST ADD SLOAD PUSH0 NOT DUP2 ADD SWAP1 DUP2 GT PUSH2 0xED0 JUMPI PUSH2 0x1175 SWAP1 PUSH2 0x2715 JUMP JUMPDEST DUP3 PUSH0 MSTORE PUSH0 DUP3 MSTORE PUSH1 0x1 PUSH2 0x118D PUSH1 0x4 PUSH1 0x40 PUSH0 KECCAK256 ADD DUP7 PUSH2 0x2207 JUMP JUMPDEST ADD CALLER PUSH0 MSTORE DUP3 MSTORE PUSH1 0x40 PUSH0 KECCAK256 SSTORE DUP2 PUSH0 MSTORE PUSH0 DUP2 MSTORE PUSH32 0x8E3DD53AAAD1909975DE245668134B898A443D9D797F6A14E77B5CD0606ED541 PUSH2 0xEC4 PUSH2 0xEBD PUSH1 0x4 PUSH1 0x40 PUSH0 KECCAK256 ADD DUP7 PUSH2 0x2207 JUMP JUMPDEST CALLVALUE PUSH2 0x17D JUMPI PUSH0 CALLDATASIZE PUSH1 0x3 NOT ADD SLT PUSH2 0x17D JUMPI PUSH1 0x2 SLOAD PUSH1 0x40 MLOAD PUSH1 0x1 PUSH1 0x1 PUSH1 0xA0 SHL SUB SWAP1 SWAP2 AND DUP2 MSTORE PUSH1 0x20 SWAP1 RETURN JUMPDEST CALLVALUE PUSH2 0x17D JUMPI PUSH2 0x1208 CALLDATASIZE PUSH2 0x2125 JUMP JUMPDEST PUSH1 0x2 DUP1 SLOAD PUSH1 0x40 MLOAD PUSH4 0x7B7FCFED PUSH1 0xE0 SHL DUP2 MSTORE PUSH1 0x20 PUSH1 0x4 DUP3 ADD DUP2 SWAP1 MSTORE SWAP3 PUSH1 0x1 PUSH1 0x1 PUSH1 0xA0 SHL SUB SWAP3 SWAP1 SWAP2 SWAP1 DUP5 SWAP1 DUP3 SWAP1 DUP6 AND DUP2 DUP1 PUSH2 0x1244 PUSH1 0x24 DUP3 ADD DUP13 PUSH2 0x2187 JUMP JUMPDEST SUB SWAP2 GAS STATICCALL DUP1 ISZERO PUSH2 0x453 JUMPI PUSH2 0x125E SWAP2 PUSH0 SWAP2 PUSH2 0x159F JUMPI POP PUSH2 0x24E8 JUMP JUMPDEST CALLER PUSH0 MSTORE PUSH0 DUP4 MSTORE DUP2 PUSH1 0x1 SWAP5 PUSH2 0x127F DUP7 PUSH1 0xFF PUSH1 0x4 PUSH2 0xD50 DUP2 PUSH1 0x40 PUSH0 KECCAK256 ADD DUP13 PUSH2 0x2207 JUMP JUMPDEST AND SWAP4 DUP5 PUSH0 MSTORE PUSH0 DUP5 MSTORE PUSH2 0x129E DUP2 PUSH1 0xFF PUSH1 0x4 PUSH2 0xD7B DUP2 PUSH1 0x40 PUSH0 KECCAK256 ADD DUP12 PUSH2 0x2207 JUMP JUMPDEST PUSH2 0x12AA DUP6 CALLER EQ ISZERO PUSH2 0x263C JUMP JUMPDEST DUP5 PUSH0 MSTORE PUSH0 DUP5 MSTORE DUP1 PUSH2 0x12C1 PUSH1 0x4 PUSH1 0x40 PUSH0 KECCAK256 ADD DUP9 PUSH2 0x2207 JUMP JUMPDEST ADD CALLER PUSH0 MSTORE DUP5 MSTORE PUSH0 PUSH1 0x40 DUP2 KECCAK256 SLOAD SGT ISZERO PUSH2 0x153B JUMPI DUP5 PUSH0 MSTORE PUSH0 DUP5 MSTORE PUSH2 0x12E9 PUSH1 0x4 PUSH1 0x40 PUSH0 KECCAK256 ADD DUP8 PUSH2 0x2207 JUMP JUMPDEST PUSH2 0x12F3 DUP2 SLOAD PUSH2 0x2704 JUMP JUMPDEST SWAP1 SSTORE DUP5 PUSH0 MSTORE PUSH0 DUP5 MSTORE PUSH2 0x130B PUSH1 0x4 PUSH1 0x40 PUSH0 KECCAK256 ADD DUP8 PUSH2 0x2207 JUMP JUMPDEST SLOAD PUSH2 0x1315 DUP8 PUSH2 0x2448 JUMP JUMPDEST PUSH1 0x40 MLOAD SWAP2 DUP3 MSTORE DUP7 PUSH0 DUP1 MLOAD PUSH1 0x20 PUSH2 0x2994 DUP4 CODECOPY DUP2 MLOAD SWAP2 MSTORE DUP8 TIMESTAMP SWAP5 LOG4 DUP5 PUSH0 MSTORE PUSH0 DUP5 MSTORE DUP1 PUSH2 0x1345 PUSH1 0x4 PUSH1 0x40 PUSH0 KECCAK256 ADD DUP9 PUSH2 0x2207 JUMP JUMPDEST ADD CALLER PUSH0 MSTORE DUP5 MSTORE PUSH1 0x40 PUSH0 KECCAK256 SLOAD DUP6 PUSH0 MSTORE PUSH0 DUP6 MSTORE PUSH2 0x1373 DUP3 DUP5 PUSH2 0x136B PUSH1 0x4 PUSH1 0x40 PUSH0 KECCAK256 ADD DUP12 PUSH2 0x2207 JUMP JUMPDEST ADD SLOAD GT PUSH2 0x272A JUMP JUMPDEST DUP6 PUSH0 MSTORE PUSH0 DUP6 MSTORE DUP3 PUSH2 0x138A PUSH1 0x4 PUSH1 0x40 PUSH0 KECCAK256 ADD DUP10 PUSH2 0x2207 JUMP JUMPDEST ADD SLOAD PUSH0 NOT SWAP5 SWAP1 DUP6 DUP2 ADD SWAP1 DUP2 GT PUSH2 0xED0 JUMPI DUP3 SUB PUSH2 0x1420 JUMPI JUMPDEST POP POP PUSH2 0x13E6 SWAP3 POP DUP5 PUSH0 MSTORE PUSH0 DUP5 MSTORE PUSH2 0x13BE PUSH1 0x4 PUSH1 0x40 PUSH0 KECCAK256 ADD DUP8 PUSH2 0x2207 JUMP JUMPDEST ADD CALLER PUSH0 MSTORE DUP4 MSTORE PUSH0 PUSH1 0x40 DUP2 KECCAK256 SSTORE DUP4 PUSH0 MSTORE PUSH0 DUP4 MSTORE PUSH2 0x13E0 PUSH1 0x4 PUSH1 0x40 PUSH0 KECCAK256 ADD DUP7 PUSH2 0x2207 JUMP JUMPDEST ADD PUSH2 0x276F JUMP JUMPDEST DUP2 PUSH0 MSTORE PUSH0 DUP2 MSTORE PUSH32 0x6C5CFC2553AAFFD4CD0342765CDBCA370CDA07554F00E4E5112884EAE468E299 PUSH2 0xEC4 PUSH2 0xEBD PUSH1 0x4 PUSH1 0x40 PUSH0 KECCAK256 ADD DUP7 PUSH2 0x2207 JUMP JUMPDEST DUP7 PUSH0 MSTORE PUSH0 DUP7 MSTORE DUP4 PUSH2 0x1437 PUSH1 0x4 PUSH1 0x40 PUSH0 KECCAK256 ADD DUP11 PUSH2 0x2207 JUMP JUMPDEST ADD SWAP5 DUP8 PUSH0 MSTORE PUSH0 DUP8 MSTORE DUP5 PUSH2 0x1450 PUSH1 0x4 PUSH1 0x40 PUSH0 KECCAK256 ADD DUP12 PUSH2 0x2207 JUMP JUMPDEST ADD SLOAD SWAP1 DUP2 ADD SWAP1 DUP2 GT PUSH2 0xED0 JUMPI DUP7 DUP9 DUP4 PUSH2 0x1494 DUP7 DUP10 PUSH2 0x148E DUP16 PUSH0 PUSH2 0x147A PUSH2 0x13E6 SWAP16 SWAP11 PUSH2 0x14B9 SWAP12 PUSH2 0x2468 JUMP JUMPDEST SWAP10 SWAP1 SLOAD SWAP9 DUP3 MSTORE MSTORE PUSH1 0x4 PUSH1 0x40 PUSH0 KECCAK256 ADD SWAP1 PUSH2 0x2207 JUMP JUMPDEST ADD PUSH2 0x2468 JUMP JUMPDEST SWAP3 SWAP1 SWAP4 PUSH1 0x3 SHL SHR AND SWAP1 DUP3 SLOAD SWAP1 PUSH1 0x3 SHL SWAP2 PUSH1 0x1 DUP1 PUSH1 0xA0 SHL SUB DUP1 SWAP2 AND DUP4 SHL SWAP3 SHL NOT AND OR SWAP1 SSTORE JUMP JUMPDEST DUP7 PUSH0 MSTORE PUSH0 DUP7 MSTORE DUP3 PUSH2 0x14D0 PUSH1 0x4 PUSH1 0x40 PUSH0 KECCAK256 ADD DUP11 PUSH2 0x2207 JUMP JUMPDEST ADD SWAP1 DUP8 PUSH0 MSTORE PUSH0 DUP8 MSTORE PUSH2 0x14ED DUP4 DUP7 PUSH2 0x148E PUSH1 0x4 PUSH1 0x40 PUSH0 KECCAK256 ADD DUP14 PUSH2 0x2207 JUMP JUMPDEST SWAP1 SLOAD SWAP1 PUSH1 0x3 SHL SHR AND PUSH0 MSTORE DUP6 MSTORE DUP1 PUSH1 0x40 PUSH0 KECCAK256 SSTORE DUP6 PUSH2 0x1509 DUP9 PUSH2 0x2448 JUMP JUMPDEST PUSH1 0x40 MLOAD SWAP3 DUP4 MSTORE PUSH32 0xD6FA86004958E4FADC7035E661E86172C72F1EA51E79E8BF8BD3F4103663E8E3 DUP8 CALLER SWAP5 LOG4 DUP7 DUP1 PUSH2 0x13A1 JUMP JUMPDEST PUSH1 0x40 MLOAD PUSH3 0x461BCD PUSH1 0xE5 SHL DUP2 MSTORE PUSH1 0x4 DUP2 ADD DUP6 SWAP1 MSTORE PUSH1 0x36 PUSH1 0x24 DUP3 ADD MSTORE PUSH32 0x596F752068617665206E6F7420676976656E206120706F736974697665206372 PUSH1 0x44 DUP3 ADD MSTORE PUSH22 0x32B2103A37903A3434B99036B2B6B132B9103CB2BA17 PUSH1 0x51 SHL PUSH1 0x64 DUP3 ADD MSTORE PUSH1 0x84 SWAP1 REVERT JUMPDEST PUSH2 0x15B6 SWAP2 POP DUP6 RETURNDATASIZE DUP8 GT PUSH2 0x44C JUMPI PUSH2 0x43E DUP2 DUP4 PUSH2 0x206D JUMP JUMPDEST DUP8 PUSH2 0x546 JUMP JUMPDEST CALLVALUE PUSH2 0x17D JUMPI PUSH2 0x15CA CALLDATASIZE PUSH2 0x2125 JUMP JUMPDEST SWAP1 PUSH1 0x1 DUP1 PUSH1 0xA0 SHL SUB DUP1 SWAP3 AND SWAP1 DUP2 PUSH0 MSTORE PUSH1 0x20 SWAP3 PUSH0 DUP5 MSTORE PUSH2 0x15F7 PUSH1 0x1 PUSH1 0xFF PUSH1 0x4 PUSH2 0x2EC DUP2 PUSH1 0x40 PUSH0 KECCAK256 ADD DUP8 PUSH2 0x2207 JUMP JUMPDEST PUSH1 0x2 SLOAD PUSH1 0x40 MLOAD PUSH4 0xB3F6702D PUSH1 0xE0 SHL DUP2 MSTORE PUSH1 0x4 DUP2 ADD DUP7 SWAP1 MSTORE SWAP1 DUP3 AND SWAP2 DUP6 DUP3 DUP1 PUSH2 0x1622 PUSH1 0x24 DUP3 ADD DUP9 PUSH2 0x2187 JUMP JUMPDEST SUB DUP2 DUP7 GAS STATICCALL DUP1 ISZERO PUSH2 0x453 JUMPI PUSH2 0x1640 SWAP3 PUSH0 SWAP2 PUSH2 0x1853 JUMPI POP AND CALLER EQ PUSH2 0x237C JUMP JUMPDEST DUP4 PUSH1 0x40 MLOAD DUP1 SWAP3 PUSH4 0x1EFB39A9 PUSH1 0xE1 SHL DUP3 MSTORE DUP3 PUSH1 0x4 DUP4 ADD MSTORE DUP2 DUP1 PUSH2 0x1665 PUSH1 0x24 DUP3 ADD DUP9 PUSH2 0x2187 JUMP JUMPDEST SUB SWAP2 GAS STATICCALL SWAP1 DUP2 ISZERO PUSH2 0x453 JUMPI PUSH2 0x1686 SWAP2 PUSH1 0x1 SWAP2 PUSH0 SWAP2 PUSH2 0x1836 JUMPI POP ISZERO ISZERO EQ PUSH2 0x23F1 JUMP JUMPDEST PUSH1 0x40 MLOAD DUP2 MLOAD SWAP1 DUP5 DUP2 DUP2 DUP6 ADD SWAP4 PUSH2 0x169D DUP2 DUP4 DUP8 PUSH2 0x2166 JUMP JUMPDEST DUP2 ADD PUSH1 0x3 DUP2 MSTORE SUB ADD SWAP1 KECCAK256 DUP4 PUSH0 MSTORE DUP5 MSTORE PUSH1 0xFF PUSH1 0x40 PUSH0 KECCAK256 SLOAD AND ISZERO PUSH2 0x17FC JUMPI DUP3 CALLER EQ PUSH2 0x17B7 JUMPI DUP4 PUSH2 0x16D6 SWAP2 PUSH1 0x40 MLOAD DUP1 SWAP4 DUP2 SWAP3 DUP7 MLOAD SWAP3 DUP4 SWAP2 PUSH2 0x2166 JUMP JUMPDEST DUP2 ADD PUSH1 0x3 DUP2 MSTORE SUB ADD SWAP1 KECCAK256 DUP3 PUSH0 MSTORE DUP4 MSTORE PUSH1 0x40 PUSH0 KECCAK256 SWAP1 PUSH1 0xFF NOT SWAP2 DUP3 DUP2 SLOAD AND SWAP1 SSTORE PUSH1 0x40 MLOAD SWAP2 PUSH4 0x5848E2A3 PUSH1 0xE1 SHL DUP4 MSTORE DUP4 PUSH1 0x4 DUP5 ADD MSTORE PUSH1 0x40 PUSH1 0x24 DUP5 ADD MSTORE DUP5 DUP4 DUP1 PUSH2 0x171F PUSH1 0x44 DUP3 ADD DUP7 PUSH2 0x2187 JUMP JUMPDEST SUB DUP2 ADDRESS GAS STATICCALL SWAP3 DUP4 ISZERO PUSH2 0x453 JUMPI PUSH2 0x1748 SWAP4 PUSH1 0x1 SWAP2 PUSH0 SWAP2 PUSH2 0x179A JUMPI JUMPDEST POP ISZERO ISZERO EQ PUSH2 0x1776 JUMPI JUMPDEST POP PUSH2 0x2448 JUMP JUMPDEST SWAP1 DUP1 PUSH1 0x40 MLOAD SWAP3 PUSH32 0xE19753EF16CB08D80C81E7C26DF1578544DC02C0A7538CF0D3FC2355DC180BCA PUSH0 DUP1 LOG3 DUP2 MSTORE RETURN JUMPDEST DUP4 PUSH0 MSTORE PUSH0 DUP6 MSTORE PUSH1 0x4 PUSH2 0x178D DUP2 PUSH1 0x40 PUSH0 KECCAK256 ADD DUP5 PUSH2 0x2207 JUMP JUMPDEST ADD SWAP1 DUP2 SLOAD AND SWAP1 SSTORE DUP5 PUSH2 0x1742 JUMP JUMPDEST PUSH2 0x17B1 SWAP2 POP DUP8 RETURNDATASIZE DUP10 GT PUSH2 0x44C JUMPI PUSH2 0x43E DUP2 DUP4 PUSH2 0x206D JUMP JUMPDEST DUP8 PUSH2 0x1739 JUMP JUMPDEST PUSH1 0x40 MLOAD PUSH3 0x461BCD PUSH1 0xE5 SHL DUP2 MSTORE PUSH1 0x4 DUP2 ADD DUP6 SWAP1 MSTORE PUSH1 0x1D PUSH1 0x24 DUP3 ADD MSTORE PUSH32 0x596F752063616E6E6F7420756E696E7669746520796F757273656C662E000000 PUSH1 0x44 DUP3 ADD MSTORE PUSH1 0x64 SWAP1 REVERT JUMPDEST PUSH1 0x40 MLOAD PUSH3 0x461BCD PUSH1 0xE5 SHL DUP2 MSTORE PUSH1 0x4 DUP2 ADD DUP6 SWAP1 MSTORE PUSH1 0x12 PUSH1 0x24 DUP3 ADD MSTORE PUSH18 0x13595B58995C88139BDD08125B9D9A5D1959 PUSH1 0x72 SHL PUSH1 0x44 DUP3 ADD MSTORE PUSH1 0x64 SWAP1 REVERT JUMPDEST PUSH2 0x184D SWAP2 POP DUP7 RETURNDATASIZE DUP9 GT PUSH2 0x44C JUMPI PUSH2 0x43E DUP2 DUP4 PUSH2 0x206D JUMP JUMPDEST DUP7 PUSH2 0x3BB JUMP JUMPDEST PUSH2 0x186A SWAP2 POP DUP8 RETURNDATASIZE DUP10 GT PUSH2 0x484 JUMPI PUSH2 0x476 DUP2 DUP4 PUSH2 0x206D JUMP JUMPDEST DUP8 PUSH2 0x36C JUMP JUMPDEST CALLVALUE PUSH2 0x17D JUMPI PUSH1 0x20 CALLDATASIZE PUSH1 0x3 NOT ADD SLT PUSH2 0x17D JUMPI PUSH1 0x1 PUSH1 0x1 PUSH1 0xA0 SHL SUB PUSH2 0x1891 PUSH2 0x2057 JUMP JUMPDEST AND PUSH0 MSTORE PUSH0 PUSH1 0x20 MSTORE PUSH2 0x18EC PUSH1 0x40 PUSH0 KECCAK256 PUSH2 0x179 PUSH2 0x18AB DUP3 PUSH2 0x28A0 JUMP JUMPDEST SWAP2 PUSH2 0x1908 PUSH2 0x18BB PUSH1 0x1 DUP4 ADD PUSH2 0x28A0 JUMP JUMPDEST SWAP2 PUSH2 0x18FA PUSH2 0x18D7 PUSH1 0x3 PUSH2 0x18D0 PUSH1 0x2 DUP6 ADD PUSH2 0x293F JUMP JUMPDEST SWAP4 ADD PUSH2 0x293F JUMP JUMPDEST SWAP4 PUSH1 0x40 MLOAD SWAP8 DUP9 SWAP8 PUSH1 0x80 DUP10 MSTORE PUSH1 0x80 DUP10 ADD SWAP1 PUSH2 0x2187 JUMP JUMPDEST SWAP1 DUP8 DUP3 SUB PUSH1 0x20 DUP10 ADD MSTORE PUSH2 0x2187 JUMP JUMPDEST SWAP1 DUP6 DUP3 SUB PUSH1 0x40 DUP8 ADD MSTORE PUSH2 0x21AC JUMP JUMPDEST SWAP1 DUP4 DUP3 SUB PUSH1 0x60 DUP6 ADD MSTORE PUSH2 0x21AC JUMP JUMPDEST CALLVALUE PUSH2 0x17D JUMPI PUSH1 0x20 DUP1 PUSH1 0x3 NOT CALLDATASIZE ADD SLT PUSH2 0x17D JUMPI PUSH1 0x4 CALLDATALOAD PUSH1 0x1 PUSH1 0x1 PUSH1 0x40 SHL SUB DUP2 GT PUSH2 0x17D JUMPI PUSH2 0x1947 SWAP1 CALLDATASIZE SWAP1 PUSH1 0x4 ADD PUSH2 0x208E JUMP JUMPDEST SWAP1 PUSH1 0x1 DUP1 PUSH1 0xA0 SHL SUB PUSH1 0x2 SLOAD AND PUSH1 0x40 MLOAD PUSH4 0x7B7FCFED PUSH1 0xE0 SHL DUP2 MSTORE DUP3 PUSH1 0x4 DUP3 ADD MSTORE DUP3 DUP2 DUP1 PUSH2 0x1976 PUSH1 0x24 DUP3 ADD DUP9 PUSH2 0x2187 JUMP JUMPDEST SUB DUP2 DUP6 GAS STATICCALL SWAP1 DUP2 ISZERO PUSH2 0x453 JUMPI PUSH0 SWAP2 PUSH2 0x1BC3 JUMPI JUMPDEST POP ISZERO PUSH2 0x1B83 JUMPI CALLER PUSH0 MSTORE PUSH0 DUP3 MSTORE PUSH1 0x1 PUSH1 0xFF PUSH1 0x4 PUSH2 0x19AA DUP2 PUSH1 0x40 PUSH0 KECCAK256 ADD DUP8 PUSH2 0x2207 JUMP JUMPDEST ADD SLOAD AND ISZERO ISZERO EQ PUSH2 0x1B2A JUMPI DUP2 PUSH1 0x40 MLOAD DUP1 SWAP3 PUSH4 0x1EFB39A9 PUSH1 0xE1 SHL DUP3 MSTORE DUP3 PUSH1 0x4 DUP4 ADD MSTORE DUP2 DUP1 PUSH2 0x19D9 PUSH1 0x24 DUP3 ADD DUP10 PUSH2 0x2187 JUMP JUMPDEST SUB SWAP2 GAS STATICCALL DUP1 ISZERO PUSH2 0x453 JUMPI PUSH1 0x1 SWAP2 PUSH0 SWAP2 PUSH2 0x1B0D JUMPI JUMPDEST POP ISZERO ISZERO EQ PUSH2 0x1A85 JUMPI JUMPDEST PUSH0 SWAP1 CALLER DUP3 MSTORE DUP2 DUP2 MSTORE PUSH1 0x4 PUSH2 0x1A0F DUP2 PUSH1 0x40 DUP6 KECCAK256 ADD DUP6 PUSH2 0x2207 JUMP JUMPDEST ADD PUSH1 0x1 PUSH1 0xFF NOT DUP3 SLOAD AND OR SWAP1 SSTORE CALLER DUP3 MSTORE DUP2 DUP2 MSTORE PUSH2 0x1A3C PUSH1 0x2 PUSH2 0x1A36 PUSH1 0x4 PUSH1 0x40 DUP7 KECCAK256 ADD DUP7 PUSH2 0x2207 JUMP JUMPDEST ADD PUSH2 0x2491 JUMP JUMPDEST CALLER DUP3 MSTORE MSTORE PUSH2 0x1A55 PUSH1 0x3 PUSH2 0x1A36 PUSH1 0x4 PUSH1 0x40 PUSH0 KECCAK256 ADD DUP5 PUSH2 0x2207 JUMP JUMPDEST PUSH2 0x1A5F CALLER SWAP2 PUSH2 0x2448 JUMP JUMPDEST PUSH32 0xF038F0D708FC70F18D5815D07A62A3B40D2035DC6AF7429865F612242FF87058 PUSH0 DUP1 LOG3 STOP JUMPDEST PUSH1 0x40 MLOAD DUP2 DUP2 DUP5 MLOAD PUSH2 0x1A99 DUP2 DUP4 DUP6 DUP10 ADD PUSH2 0x2166 JUMP JUMPDEST DUP2 ADD PUSH1 0x3 DUP2 MSTORE SUB ADD SWAP1 KECCAK256 CALLER PUSH0 MSTORE DUP2 MSTORE PUSH1 0x1 PUSH1 0xFF PUSH1 0x40 PUSH0 KECCAK256 SLOAD AND ISZERO ISZERO SUB ISZERO PUSH2 0x19F6 JUMPI PUSH1 0x84 SWAP1 PUSH1 0x40 MLOAD SWAP1 PUSH3 0x461BCD PUSH1 0xE5 SHL DUP3 MSTORE PUSH1 0x4 DUP3 ADD MSTORE PUSH1 0x26 PUSH1 0x24 DUP3 ADD MSTORE PUSH32 0x596F7520617265206E6F7420696E766974656420746F207468697320636F6D6D PUSH1 0x44 DUP3 ADD MSTORE PUSH6 0x3AB734BA3C97 PUSH1 0xD1 SHL PUSH1 0x64 DUP3 ADD MSTORE REVERT JUMPDEST PUSH2 0x1B24 SWAP2 POP DUP4 RETURNDATASIZE DUP6 GT PUSH2 0x44C JUMPI PUSH2 0x43E DUP2 DUP4 PUSH2 0x206D JUMP JUMPDEST DUP5 PUSH2 0x19ED JUMP JUMPDEST PUSH1 0x40 MLOAD PUSH3 0x461BCD PUSH1 0xE5 SHL DUP2 MSTORE PUSH1 0x4 DUP2 ADD DUP4 SWAP1 MSTORE PUSH1 0x2B PUSH1 0x24 DUP3 ADD MSTORE PUSH32 0x596F752061726520616C72656164792061206D656D626572206F662074686973 PUSH1 0x44 DUP3 ADD MSTORE PUSH11 0x1031B7B6B6BAB734BA3C97 PUSH1 0xA9 SHL PUSH1 0x64 DUP3 ADD MSTORE PUSH1 0x84 SWAP1 REVERT JUMPDEST PUSH1 0x40 MLOAD PUSH3 0x461BCD PUSH1 0xE5 SHL DUP2 MSTORE PUSH1 0x4 DUP2 ADD DUP4 SWAP1 MSTORE PUSH1 0x18 PUSH1 0x24 DUP3 ADD MSTORE PUSH24 0x10DBDB5B5D5B9A5D1E48111BD95CC81B9BDD08115E1A5CDD PUSH1 0x42 SHL PUSH1 0x44 DUP3 ADD MSTORE PUSH1 0x64 SWAP1 REVERT JUMPDEST PUSH2 0x1BDA SWAP2 POP DUP4 RETURNDATASIZE DUP6 GT PUSH2 0x44C JUMPI PUSH2 0x43E DUP2 DUP4 PUSH2 0x206D JUMP JUMPDEST DUP5 PUSH2 0x1989 JUMP JUMPDEST CALLVALUE PUSH2 0x17D JUMPI PUSH2 0x1BEE CALLDATASIZE PUSH2 0x2125 JUMP JUMPDEST PUSH1 0x2 SLOAD PUSH1 0x40 MLOAD PUSH4 0x7B7FCFED PUSH1 0xE0 SHL DUP2 MSTORE PUSH1 0x20 PUSH1 0x4 DUP3 ADD DUP2 SWAP1 MSTORE PUSH1 0x1 PUSH1 0x1 PUSH1 0xA0 SHL SUB SWAP4 SWAP1 SWAP3 SWAP1 SWAP2 SWAP1 DUP4 SWAP1 DUP3 SWAP1 DUP7 AND DUP2 DUP1 PUSH2 0x1C2A PUSH1 0x24 DUP3 ADD DUP12 PUSH2 0x2187 JUMP JUMPDEST SUB SWAP2 GAS STATICCALL DUP1 ISZERO PUSH2 0x453 JUMPI PUSH2 0x1C44 SWAP2 PUSH0 SWAP2 PUSH2 0x1F6A JUMPI POP PUSH2 0x24E8 JUMP JUMPDEST CALLER PUSH0 MSTORE PUSH0 DUP3 MSTORE DUP3 PUSH1 0x1 SWAP2 PUSH2 0x1C65 DUP4 PUSH1 0xFF PUSH1 0x4 PUSH2 0xD50 DUP2 PUSH1 0x40 PUSH0 KECCAK256 ADD DUP12 PUSH2 0x2207 JUMP JUMPDEST AND SWAP3 DUP4 PUSH0 MSTORE PUSH0 DUP4 MSTORE PUSH2 0x1C84 DUP3 PUSH1 0xFF PUSH1 0x4 PUSH2 0xD7B DUP2 PUSH1 0x40 PUSH0 KECCAK256 ADD DUP11 PUSH2 0x2207 JUMP JUMPDEST PUSH2 0x1C90 DUP5 CALLER EQ ISZERO PUSH2 0x263C JUMP JUMPDEST DUP4 PUSH0 MSTORE PUSH0 DUP4 MSTORE DUP2 PUSH2 0x1CA7 PUSH1 0x4 PUSH1 0x40 PUSH0 KECCAK256 ADD DUP8 PUSH2 0x2207 JUMP JUMPDEST ADD CALLER PUSH0 MSTORE DUP4 MSTORE PUSH0 PUSH1 0x40 DUP2 KECCAK256 SLOAD SLT ISZERO PUSH2 0x1F06 JUMPI DUP4 PUSH0 MSTORE PUSH0 DUP4 MSTORE PUSH2 0x1CCF PUSH1 0x4 PUSH1 0x40 PUSH0 KECCAK256 ADD DUP7 PUSH2 0x2207 JUMP JUMPDEST PUSH2 0x1CD9 DUP2 SLOAD PUSH2 0x26E8 JUMP JUMPDEST SWAP1 SSTORE DUP4 PUSH0 MSTORE PUSH0 DUP4 MSTORE PUSH2 0x1CF1 PUSH1 0x4 PUSH1 0x40 PUSH0 KECCAK256 ADD DUP7 PUSH2 0x2207 JUMP JUMPDEST SLOAD PUSH2 0x1CFB DUP7 PUSH2 0x2448 JUMP JUMPDEST PUSH1 0x40 MLOAD SWAP2 DUP3 MSTORE DUP6 PUSH0 DUP1 MLOAD PUSH1 0x20 PUSH2 0x2994 DUP4 CODECOPY DUP2 MLOAD SWAP2 MSTORE DUP7 TIMESTAMP SWAP5 LOG4 DUP4 PUSH0 MSTORE PUSH0 DUP4 MSTORE DUP2 PUSH2 0x1D2B PUSH1 0x4 PUSH1 0x40 PUSH0 KECCAK256 ADD DUP8 PUSH2 0x2207 JUMP JUMPDEST ADD CALLER PUSH0 MSTORE DUP4 MSTORE PUSH2 0x1D3E PUSH1 0x40 PUSH0 KECCAK256 SLOAD PUSH2 0x2715 JUMP JUMPDEST SWAP2 DUP5 PUSH0 MSTORE PUSH0 DUP5 MSTORE PUSH1 0x3 SWAP2 PUSH2 0x1D5D DUP3 DUP5 PUSH2 0x136B PUSH1 0x4 PUSH1 0x40 PUSH0 KECCAK256 ADD DUP12 PUSH2 0x2207 JUMP JUMPDEST DUP6 PUSH0 MSTORE PUSH0 DUP6 MSTORE DUP3 PUSH2 0x1D74 PUSH1 0x4 PUSH1 0x40 PUSH0 KECCAK256 ADD DUP10 PUSH2 0x2207 JUMP JUMPDEST ADD SLOAD PUSH0 NOT SWAP5 SWAP1 DUP6 DUP2 ADD SWAP1 DUP2 GT PUSH2 0xED0 JUMPI DUP2 SUB PUSH2 0x1DE2 JUMPI JUMPDEST POP POP PUSH2 0x1DA8 SWAP3 POP DUP5 PUSH0 MSTORE PUSH0 DUP5 MSTORE PUSH2 0x13BE PUSH1 0x4 PUSH1 0x40 PUSH0 KECCAK256 ADD DUP8 PUSH2 0x2207 JUMP JUMPDEST DUP2 PUSH0 MSTORE PUSH0 DUP2 MSTORE PUSH32 0xD6D87A1EC8D7320486A7705035A72A09149F3C5E25DCCCB14A1C99EEBC86D6C0 PUSH2 0xEC4 PUSH2 0xEBD PUSH1 0x4 PUSH1 0x40 PUSH0 KECCAK256 ADD DUP7 PUSH2 0x2207 JUMP JUMPDEST DUP7 PUSH0 MSTORE PUSH0 DUP7 MSTORE DUP4 PUSH2 0x1DF9 PUSH1 0x4 PUSH1 0x40 PUSH0 KECCAK256 ADD DUP11 PUSH2 0x2207 JUMP JUMPDEST ADD SWAP5 DUP8 PUSH0 MSTORE PUSH0 DUP8 MSTORE DUP5 PUSH2 0x1E12 PUSH1 0x4 PUSH1 0x40 PUSH0 KECCAK256 ADD DUP12 PUSH2 0x2207 JUMP JUMPDEST ADD SLOAD SWAP1 DUP2 ADD SWAP1 DUP2 GT PUSH2 0xED0 JUMPI DUP8 DUP4 PUSH2 0x1EB5 DUP5 DUP9 PUSH2 0x148E DUP15 PUSH2 0x1E81 PUSH2 0x1ECA SWAP11 DUP16 SWAP10 PUSH2 0x1DA8 SWAP16 SWAP1 PUSH2 0x1E40 SWAP2 PUSH2 0x2468 JUMP JUMPDEST SWAP1 SLOAD SWAP1 DUP7 SHL SHR AND DUP9 PUSH0 MSTORE PUSH0 DUP11 MSTORE PUSH2 0x1E62 DUP7 DUP7 PUSH2 0x148E PUSH1 0x4 PUSH1 0x40 PUSH0 KECCAK256 ADD DUP8 PUSH2 0x2207 JUMP JUMPDEST SWAP1 SWAP2 SWAP1 DUP3 SLOAD SWAP1 PUSH1 0x3 SHL SWAP2 PUSH1 0x1 DUP1 PUSH1 0xA0 SHL SUB DUP1 SWAP2 AND DUP4 SHL SWAP3 SHL NOT AND OR SWAP1 SSTORE JUMP JUMPDEST PUSH0 PUSH2 0x1E8B DUP6 PUSH2 0x2715 JUMP JUMPDEST SWAP9 DUP9 DUP3 MSTORE DUP2 DUP2 MSTORE DUP13 PUSH2 0x1EA3 PUSH1 0x4 PUSH1 0x40 DUP6 KECCAK256 ADD DUP6 PUSH2 0x2207 JUMP JUMPDEST ADD SWAP9 DUP3 MSTORE MSTORE PUSH1 0x4 PUSH1 0x40 PUSH0 KECCAK256 ADD SWAP1 PUSH2 0x2207 JUMP JUMPDEST SWAP1 SLOAD SWAP1 DUP9 SHL SHR AND PUSH0 MSTORE DUP8 MSTORE PUSH1 0x40 PUSH0 KECCAK256 SSTORE PUSH2 0x2715 JUMP JUMPDEST DUP6 PUSH2 0x1ED4 DUP9 PUSH2 0x2448 JUMP JUMPDEST PUSH1 0x40 MLOAD SWAP3 DUP4 MSTORE PUSH32 0xD6FA86004958E4FADC7035E661E86172C72F1EA51E79E8BF8BD3F4103663E8E3 DUP8 CALLER SWAP5 LOG4 DUP7 DUP1 PUSH2 0x1D8B JUMP JUMPDEST PUSH1 0x40 MLOAD PUSH3 0x461BCD PUSH1 0xE5 SHL DUP2 MSTORE PUSH1 0x4 DUP2 ADD DUP5 SWAP1 MSTORE PUSH1 0x36 PUSH1 0x24 DUP3 ADD MSTORE PUSH32 0x596F752068617665206E6F7420676976656E2061206E65676174697665206372 PUSH1 0x44 DUP3 ADD MSTORE PUSH22 0x32B2103A37903A3434B99036B2B6B132B9103CB2BA17 PUSH1 0x51 SHL PUSH1 0x64 DUP3 ADD MSTORE PUSH1 0x84 SWAP1 REVERT JUMPDEST PUSH2 0xEFB SWAP2 POP DUP5 RETURNDATASIZE DUP7 GT PUSH2 0x44C JUMPI PUSH2 0x43E DUP2 DUP4 PUSH2 0x206D JUMP JUMPDEST CALLVALUE PUSH2 0x17D JUMPI PUSH1 0x20 CALLDATASIZE PUSH1 0x3 NOT ADD SLT PUSH2 0x17D JUMPI PUSH2 0x1F9A PUSH2 0x2057 JUMP JUMPDEST PUSH1 0x1 SLOAD PUSH1 0x1 PUSH1 0x1 PUSH1 0xA0 SHL SUB SWAP2 SWAP1 DUP3 AND CALLER SUB PUSH2 0x1FC4 JUMPI AND PUSH1 0x1 DUP1 PUSH1 0xA0 SHL SUB NOT PUSH1 0x2 SLOAD AND OR PUSH1 0x2 SSTORE PUSH0 DUP1 RETURN JUMPDEST PUSH1 0x40 MLOAD PUSH3 0x461BCD PUSH1 0xE5 SHL DUP2 MSTORE PUSH1 0x20 PUSH1 0x4 DUP3 ADD MSTORE PUSH1 0x16 PUSH1 0x24 DUP3 ADD MSTORE PUSH22 0x2737BA103A34329031B7B73A3930B1BA1037BBB732B9 PUSH1 0x51 SHL PUSH1 0x44 DUP3 ADD MSTORE PUSH1 0x64 SWAP1 REVERT JUMPDEST CALLVALUE PUSH2 0x17D JUMPI PUSH1 0x20 PUSH2 0x204E PUSH2 0x2015 CALLDATASIZE PUSH2 0x20E3 JUMP JUMPDEST SWAP1 PUSH1 0x1 DUP1 PUSH1 0xA0 SHL SUB AND DUP1 PUSH0 MSTORE PUSH0 DUP5 MSTORE PUSH2 0x203C PUSH1 0x1 PUSH1 0xFF PUSH1 0x4 PUSH2 0x141 DUP2 PUSH1 0x40 PUSH0 KECCAK256 ADD DUP8 PUSH2 0x2207 JUMP JUMPDEST PUSH0 MSTORE PUSH0 DUP4 MSTORE PUSH1 0x4 PUSH1 0x40 PUSH0 KECCAK256 ADD SWAP1 PUSH2 0x2207 JUMP JUMPDEST SLOAD PUSH1 0x40 MLOAD SWAP1 DUP2 MSTORE RETURN JUMPDEST PUSH1 0x4 CALLDATALOAD SWAP1 PUSH1 0x1 PUSH1 0x1 PUSH1 0xA0 SHL SUB DUP3 AND DUP3 SUB PUSH2 0x17D JUMPI JUMP JUMPDEST SWAP1 PUSH1 0x1F DUP1 NOT SWAP2 ADD AND DUP2 ADD SWAP1 DUP2 LT PUSH1 0x1 PUSH1 0x1 PUSH1 0x40 SHL SUB DUP3 GT OR PUSH2 0x987 JUMPI PUSH1 0x40 MSTORE JUMP JUMPDEST DUP2 PUSH1 0x1F DUP3 ADD SLT ISZERO PUSH2 0x17D JUMPI DUP1 CALLDATALOAD SWAP1 PUSH1 0x1 PUSH1 0x1 PUSH1 0x40 SHL SUB DUP3 GT PUSH2 0x987 JUMPI PUSH1 0x40 MLOAD SWAP3 PUSH2 0x20C2 PUSH1 0x1F DUP5 ADD PUSH1 0x1F NOT AND PUSH1 0x20 ADD DUP6 PUSH2 0x206D JUMP JUMPDEST DUP3 DUP5 MSTORE PUSH1 0x20 DUP4 DUP4 ADD ADD GT PUSH2 0x17D JUMPI DUP2 PUSH0 SWAP3 PUSH1 0x20 DUP1 SWAP4 ADD DUP4 DUP7 ADD CALLDATACOPY DUP4 ADD ADD MSTORE SWAP1 JUMP JUMPDEST SWAP1 PUSH1 0x40 PUSH1 0x3 NOT DUP4 ADD SLT PUSH2 0x17D JUMPI PUSH1 0x4 CALLDATALOAD PUSH1 0x1 PUSH1 0x1 PUSH1 0xA0 SHL SUB DUP2 AND DUP2 SUB PUSH2 0x17D JUMPI SWAP2 PUSH1 0x24 CALLDATALOAD SWAP1 PUSH1 0x1 PUSH1 0x1 PUSH1 0x40 SHL SUB DUP3 GT PUSH2 0x17D JUMPI PUSH2 0x2122 SWAP2 PUSH1 0x4 ADD PUSH2 0x208E JUMP JUMPDEST SWAP1 JUMP JUMPDEST PUSH1 0x40 PUSH1 0x3 NOT DUP3 ADD SLT PUSH2 0x17D JUMPI PUSH1 0x4 CALLDATALOAD SWAP1 PUSH1 0x1 PUSH1 0x1 PUSH1 0x40 SHL SUB DUP3 GT PUSH2 0x17D JUMPI PUSH2 0x214F SWAP2 PUSH1 0x4 ADD PUSH2 0x208E JUMP JUMPDEST SWAP1 PUSH1 0x24 CALLDATALOAD PUSH1 0x1 PUSH1 0x1 PUSH1 0xA0 SHL SUB DUP2 AND DUP2 SUB PUSH2 0x17D JUMPI SWAP1 JUMP JUMPDEST PUSH0 JUMPDEST DUP4 DUP2 LT PUSH2 0x2177 JUMPI POP POP PUSH0 SWAP2 ADD MSTORE JUMP JUMPDEST DUP2 DUP2 ADD MLOAD DUP4 DUP3 ADD MSTORE PUSH1 0x20 ADD PUSH2 0x2168 JUMP JUMPDEST SWAP1 PUSH1 0x20 SWAP2 PUSH2 0x21A0 DUP2 MLOAD DUP1 SWAP3 DUP2 DUP6 MSTORE DUP6 DUP1 DUP7 ADD SWAP2 ADD PUSH2 0x2166 JUMP JUMPDEST PUSH1 0x1F ADD PUSH1 0x1F NOT AND ADD ADD SWAP1 JUMP JUMPDEST SWAP1 DUP1 DUP3 MLOAD SWAP1 DUP2 DUP2 MSTORE PUSH1 0x20 DUP1 SWAP2 ADD SWAP3 DUP2 DUP1 DUP5 PUSH1 0x5 SHL DUP4 ADD ADD SWAP6 ADD SWAP4 PUSH0 SWAP2 JUMPDEST DUP5 DUP4 LT PUSH2 0x21D9 JUMPI POP POP POP POP POP POP SWAP1 JUMP JUMPDEST SWAP1 SWAP2 SWAP3 SWAP4 SWAP5 SWAP6 DUP5 DUP1 PUSH2 0x21F7 PUSH1 0x1 SWAP4 PUSH1 0x1F NOT DUP7 DUP3 SUB ADD DUP8 MSTORE DUP11 MLOAD PUSH2 0x2187 JUMP JUMPDEST SWAP9 ADD SWAP4 ADD SWAP4 ADD SWAP2 SWAP5 SWAP4 SWAP3 SWAP1 PUSH2 0x21C9 JUMP JUMPDEST PUSH1 0x20 SWAP1 PUSH2 0x2221 SWAP3 DUP3 PUSH1 0x40 MLOAD SWAP5 DUP4 DUP7 DUP1 SWAP6 MLOAD SWAP4 DUP5 SWAP3 ADD PUSH2 0x2166 JUMP JUMPDEST DUP3 ADD SWAP1 DUP2 MSTORE SUB ADD SWAP1 KECCAK256 SWAP1 JUMP JUMPDEST PUSH1 0x1 PUSH1 0x1 PUSH1 0x40 SHL SUB DUP2 GT PUSH2 0x987 JUMPI PUSH1 0x5 SHL PUSH1 0x20 ADD SWAP1 JUMP JUMPDEST SWAP1 DUP1 PUSH1 0x1F DUP4 ADD SLT ISZERO PUSH2 0x17D JUMPI DUP2 CALLDATALOAD SWAP1 PUSH2 0x225C DUP3 PUSH2 0x222D JUMP JUMPDEST SWAP3 PUSH2 0x226A PUSH1 0x40 MLOAD SWAP5 DUP6 PUSH2 0x206D JUMP JUMPDEST DUP3 DUP5 MSTORE PUSH1 0x20 SWAP3 DUP4 DUP1 DUP7 ADD SWAP2 PUSH1 0x5 SHL DUP4 ADD ADD SWAP3 DUP1 DUP5 GT PUSH2 0x17D JUMPI DUP5 DUP4 ADD SWAP2 JUMPDEST DUP5 DUP4 LT PUSH2 0x2298 JUMPI POP POP POP POP POP POP SWAP1 JUMP JUMPDEST DUP3 CALLDATALOAD PUSH1 0x1 PUSH1 0x1 PUSH1 0x40 SHL SUB DUP2 GT PUSH2 0x17D JUMPI DUP7 SWAP2 PUSH2 0x22B9 DUP5 DUP5 DUP1 SWAP5 DUP10 ADD ADD PUSH2 0x208E JUMP JUMPDEST DUP2 MSTORE ADD SWAP3 ADD SWAP2 PUSH2 0x2288 JUMP JUMPDEST SWAP1 DUP2 MLOAD DUP1 DUP3 MSTORE PUSH1 0x20 DUP1 DUP1 SWAP4 ADD SWAP4 ADD SWAP2 PUSH0 JUMPDEST DUP3 DUP2 LT PUSH2 0x22E3 JUMPI POP POP POP POP SWAP1 JUMP JUMPDEST DUP4 MLOAD PUSH1 0x1 PUSH1 0x1 PUSH1 0xA0 SHL SUB AND DUP6 MSTORE SWAP4 DUP2 ADD SWAP4 SWAP3 DUP2 ADD SWAP3 PUSH1 0x1 ADD PUSH2 0x22D5 JUMP JUMPDEST ISZERO PUSH2 0x2307 JUMPI JUMP JUMPDEST PUSH1 0x40 MLOAD PUSH3 0x461BCD PUSH1 0xE5 SHL DUP2 MSTORE PUSH1 0x20 PUSH1 0x4 DUP3 ADD MSTORE PUSH1 0x28 PUSH1 0x24 DUP3 ADD MSTORE PUSH32 0x4D656D62657220616C726561647920657869737473206F66207468697320636F PUSH1 0x44 DUP3 ADD MSTORE PUSH8 0x36B6BAB734BA3C97 PUSH1 0xC1 SHL PUSH1 0x64 DUP3 ADD MSTORE PUSH1 0x84 SWAP1 REVERT JUMPDEST SWAP1 DUP2 PUSH1 0x20 SWAP2 SUB SLT PUSH2 0x17D JUMPI MLOAD PUSH1 0x1 PUSH1 0x1 PUSH1 0xA0 SHL SUB DUP2 AND DUP2 SUB PUSH2 0x17D JUMPI SWAP1 JUMP JUMPDEST ISZERO PUSH2 0x2383 JUMPI JUMP JUMPDEST PUSH1 0x40 MLOAD PUSH3 0x461BCD PUSH1 0xE5 SHL DUP2 MSTORE PUSH1 0x20 PUSH1 0x4 DUP3 ADD MSTORE PUSH1 0x28 PUSH1 0x24 DUP3 ADD MSTORE PUSH32 0x596F7520617265206E6F7420746865206F776E6572206F66207468697320636F PUSH1 0x44 DUP3 ADD MSTORE PUSH8 0x36B6BAB734BA3C97 PUSH1 0xC1 SHL PUSH1 0x64 DUP3 ADD MSTORE PUSH1 0x84 SWAP1 REVERT JUMPDEST SWAP1 DUP2 PUSH1 0x20 SWAP2 SUB SLT PUSH2 0x17D JUMPI MLOAD DUP1 ISZERO ISZERO DUP2 SUB PUSH2 0x17D JUMPI SWAP1 JUMP JUMPDEST ISZERO PUSH2 0x23F8 JUMPI JUMP JUMPDEST PUSH1 0x40 MLOAD PUSH3 0x461BCD PUSH1 0xE5 SHL DUP2 MSTORE PUSH1 0x20 PUSH1 0x4 DUP3 ADD MSTORE PUSH1 0x22 PUSH1 0x24 DUP3 ADD MSTORE PUSH32 0x5468697320636F6D6D756E697479206973206E6F7420696E76697465206F6E6C PUSH1 0x44 DUP3 ADD MSTORE PUSH2 0x3C97 PUSH1 0xF1 SHL PUSH1 0x64 DUP3 ADD MSTORE PUSH1 0x84 SWAP1 REVERT JUMPDEST PUSH2 0x2460 SWAP1 PUSH1 0x20 PUSH1 0x40 MLOAD SWAP3 DUP3 DUP5 DUP1 SWAP5 MLOAD SWAP4 DUP5 SWAP3 ADD PUSH2 0x2166 JUMP JUMPDEST DUP2 ADD SUB SWAP1 KECCAK256 SWAP1 JUMP JUMPDEST DUP1 SLOAD DUP3 LT ISZERO PUSH2 0x247D JUMPI PUSH0 MSTORE PUSH1 0x20 PUSH0 KECCAK256 ADD SWAP1 PUSH0 SWAP1 JUMP JUMPDEST PUSH4 0x4E487B71 PUSH1 0xE0 SHL PUSH0 MSTORE PUSH1 0x32 PUSH1 0x4 MSTORE PUSH1 0x24 PUSH0 REVERT JUMPDEST DUP1 SLOAD PUSH1 0x1 PUSH1 0x40 SHL DUP2 LT ISZERO PUSH2 0x987 JUMPI PUSH2 0x24AE SWAP2 PUSH1 0x1 DUP3 ADD DUP2 SSTORE PUSH2 0x2468 JUMP JUMPDEST DUP2 SLOAD SWAP1 PUSH1 0x1 DUP1 PUSH1 0xA0 SHL SUB SWAP1 PUSH1 0x3 SHL SHL NOT AND SWAP1 SSTORE JUMP JUMPDEST DUP1 SLOAD SWAP2 SWAP1 PUSH1 0x1 PUSH1 0x40 SHL DUP4 LT ISZERO PUSH2 0x987 JUMPI DUP3 PUSH2 0x1E62 SWAP2 PUSH1 0x1 PUSH2 0x24E6 SWAP6 ADD DUP2 SSTORE PUSH2 0x2468 JUMP JUMPDEST JUMP JUMPDEST ISZERO PUSH2 0x24EF JUMPI JUMP JUMPDEST PUSH1 0x40 MLOAD PUSH3 0x461BCD PUSH1 0xE5 SHL DUP2 MSTORE PUSH1 0x20 PUSH1 0x4 DUP3 ADD MSTORE PUSH1 0x18 PUSH1 0x24 DUP3 ADD MSTORE PUSH24 0x10DBDB5B5D5B9A5D1E48111BD95CC8139BDD08115E1A5CDD PUSH1 0x42 SHL PUSH1 0x44 DUP3 ADD MSTORE PUSH1 0x64 SWAP1 REVERT JUMPDEST ISZERO PUSH2 0x2536 JUMPI JUMP JUMPDEST PUSH1 0x40 MLOAD PUSH3 0x461BCD PUSH1 0xE5 SHL DUP2 MSTORE PUSH1 0x20 PUSH1 0x4 DUP3 ADD MSTORE PUSH1 0x27 PUSH1 0x24 DUP3 ADD MSTORE PUSH32 0x596F7520617265206E6F742061206D656D626572206F66207468697320636F6D PUSH1 0x44 DUP3 ADD MSTORE PUSH7 0x36BAB734BA3C97 PUSH1 0xC9 SHL PUSH1 0x64 DUP3 ADD MSTORE PUSH1 0x84 SWAP1 REVERT JUMPDEST SWAP1 PUSH1 0x1 DUP3 DUP2 SHR SWAP3 AND DUP1 ISZERO PUSH2 0x25B9 JUMPI JUMPDEST PUSH1 0x20 DUP4 LT EQ PUSH2 0x25A5 JUMPI JUMP JUMPDEST PUSH4 0x4E487B71 PUSH1 0xE0 SHL PUSH0 MSTORE PUSH1 0x22 PUSH1 0x4 MSTORE PUSH1 0x24 PUSH0 REVERT JUMPDEST SWAP2 PUSH1 0x7F AND SWAP2 PUSH2 0x259A JUMP JUMPDEST DUP2 DUP2 LT PUSH2 0x25CE JUMPI POP POP JUMP JUMPDEST PUSH0 DUP2 SSTORE PUSH1 0x1 ADD PUSH2 0x25C3 JUMP JUMPDEST ISZERO PUSH2 0x25E0 JUMPI JUMP JUMPDEST PUSH1 0x40 MLOAD PUSH3 0x461BCD PUSH1 0xE5 SHL DUP2 MSTORE PUSH1 0x20 PUSH1 0x4 DUP3 ADD MSTORE PUSH1 0x2E PUSH1 0x24 DUP3 ADD MSTORE PUSH32 0x546172676574206D656D62657220646F65736E2774206578697374206F662074 PUSH1 0x44 DUP3 ADD MSTORE PUSH14 0x3434B99031B7B6B6BAB734BA3C97 PUSH1 0x91 SHL PUSH1 0x64 DUP3 ADD MSTORE PUSH1 0x84 SWAP1 REVERT JUMPDEST ISZERO PUSH2 0x2643 JUMPI JUMP JUMPDEST PUSH1 0x40 MLOAD PUSH3 0x461BCD PUSH1 0xE5 SHL DUP2 MSTORE PUSH1 0x20 PUSH1 0x4 DUP3 ADD MSTORE PUSH1 0x1F PUSH1 0x24 DUP3 ADD MSTORE PUSH32 0x596F752063616E6E6F74206564697420796F7572206F776E2063726564732E00 PUSH1 0x44 DUP3 ADD MSTORE PUSH1 0x64 SWAP1 REVERT JUMPDEST ISZERO PUSH2 0x268F JUMPI JUMP JUMPDEST PUSH1 0x40 MLOAD PUSH3 0x461BCD PUSH1 0xE5 SHL DUP2 MSTORE PUSH1 0x20 PUSH1 0x4 DUP3 ADD MSTORE PUSH1 0x2B PUSH1 0x24 DUP3 ADD MSTORE PUSH32 0x596F7527766520616C726561647920676976656E2061206372656420746F2074 PUSH1 0x44 DUP3 ADD MSTORE PUSH11 0x3434B99036B2B6B132B917 PUSH1 0xA9 SHL PUSH1 0x64 DUP3 ADD MSTORE PUSH1 0x84 SWAP1 REVERT JUMPDEST SWAP1 PUSH1 0x1 DUP3 ADD SWAP2 PUSH0 PUSH1 0x1 DUP5 SLT SWAP2 SLT SWAP1 DUP1 ISZERO DUP3 AND SWAP2 ISZERO AND OR PUSH2 0xED0 JUMPI JUMP JUMPDEST SWAP1 PUSH0 NOT DUP3 ADD SWAP2 DUP3 SGT PUSH1 0x1 AND PUSH2 0xED0 JUMPI JUMP JUMPDEST SWAP1 DUP2 PUSH0 SUB SWAP2 DUP1 DUP4 SDIV PUSH0 NOT EQ SWAP1 ISZERO OR ISZERO PUSH2 0xED0 JUMPI JUMP JUMPDEST ISZERO PUSH2 0x2731 JUMPI JUMP JUMPDEST PUSH1 0x40 MLOAD PUSH3 0x461BCD PUSH1 0xE5 SHL DUP2 MSTORE PUSH1 0x20 PUSH1 0x4 DUP3 ADD MSTORE PUSH1 0x16 PUSH1 0x24 DUP3 ADD MSTORE PUSH22 0x54686973207573657220686173206E6F204372656473 PUSH1 0x50 SHL PUSH1 0x44 DUP3 ADD MSTORE PUSH1 0x64 SWAP1 REVERT JUMPDEST DUP1 SLOAD DUP1 ISZERO PUSH2 0x279B JUMPI PUSH0 NOT ADD SWAP1 PUSH2 0x2785 DUP3 DUP3 PUSH2 0x2468 JUMP JUMPDEST DUP2 SLOAD SWAP1 PUSH1 0x1 DUP1 PUSH1 0xA0 SHL SUB SWAP1 PUSH1 0x3 SHL SHL NOT AND SWAP1 SSTORE SSTORE JUMP JUMPDEST PUSH4 0x4E487B71 PUSH1 0xE0 SHL PUSH0 MSTORE PUSH1 0x31 PUSH1 0x4 MSTORE PUSH1 0x24 PUSH0 REVERT JUMPDEST ISZERO PUSH2 0x27B6 JUMPI JUMP JUMPDEST PUSH1 0x40 MLOAD PUSH3 0x461BCD PUSH1 0xE5 SHL DUP2 MSTORE PUSH1 0x20 PUSH1 0x4 DUP3 ADD MSTORE PUSH1 0x28 PUSH1 0x24 DUP3 ADD MSTORE PUSH32 0x4D656D62657220446F6573204E6F7420457869737420466F7220746869732063 PUSH1 0x44 DUP3 ADD MSTORE PUSH8 0x6F6D6D756E697479 PUSH1 0xC0 SHL PUSH1 0x64 DUP3 ADD MSTORE PUSH1 0x84 SWAP1 REVERT JUMPDEST SWAP1 PUSH1 0x40 MLOAD SWAP2 DUP3 DUP2 SLOAD SWAP2 DUP3 DUP3 MSTORE PUSH1 0x20 SWAP3 DUP4 DUP4 ADD SWAP2 PUSH0 MSTORE DUP4 PUSH0 KECCAK256 SWAP4 PUSH0 SWAP1 JUMPDEST DUP3 DUP3 LT PUSH2 0x283E JUMPI POP POP POP PUSH2 0x24E6 SWAP3 POP SUB DUP4 PUSH2 0x206D JUMP JUMPDEST DUP6 SLOAD PUSH1 0x1 PUSH1 0x1 PUSH1 0xA0 SHL SUB AND DUP5 MSTORE PUSH1 0x1 SWAP6 DUP7 ADD SWAP6 DUP9 SWAP6 POP SWAP4 DUP2 ADD SWAP4 SWAP1 SWAP2 ADD SWAP1 PUSH2 0x2828 JUMP JUMPDEST SWAP2 SWAP1 PUSH1 0x1 PUSH2 0x2886 DUP2 DUP1 PUSH1 0xA0 SHL SUB SWAP3 DUP4 PUSH0 SWAP7 AND DUP7 MSTORE DUP6 PUSH1 0x20 MSTORE PUSH1 0x4 PUSH1 0x40 DUP8 KECCAK256 ADD SWAP1 PUSH2 0x2207 JUMP JUMPDEST ADD SWAP2 AND DUP3 MSTORE PUSH1 0x20 MSTORE PUSH1 0x40 DUP2 KECCAK256 SLOAD ISZERO PUSH0 EQ PUSH2 0x2122 JUMPI POP PUSH1 0x1 SWAP1 JUMP JUMPDEST SWAP1 PUSH1 0x40 MLOAD SWAP2 DUP3 PUSH0 DUP3 SLOAD SWAP3 PUSH2 0x28B3 DUP5 PUSH2 0x258B JUMP JUMPDEST SWAP1 DUP2 DUP5 MSTORE PUSH1 0x1 SWAP5 DUP6 DUP2 AND SWAP1 DUP2 PUSH0 EQ PUSH2 0x291C JUMPI POP PUSH1 0x1 EQ PUSH2 0x28DC JUMPI JUMPDEST POP POP PUSH2 0x24E6 SWAP3 POP SUB DUP4 PUSH2 0x206D JUMP JUMPDEST SWAP1 SWAP4 SWAP2 POP PUSH0 MSTORE PUSH1 0x20 SWAP1 DUP2 PUSH0 KECCAK256 SWAP4 PUSH0 SWAP2 JUMPDEST DUP2 DUP4 LT PUSH2 0x2904 JUMPI POP POP PUSH2 0x24E6 SWAP4 POP DUP3 ADD ADD PUSH0 DUP1 PUSH2 0x28CE JUMP JUMPDEST DUP6 SLOAD DUP9 DUP5 ADD DUP6 ADD MSTORE SWAP5 DUP6 ADD SWAP5 DUP8 SWAP5 POP SWAP2 DUP4 ADD SWAP2 PUSH2 0x28EC JUMP JUMPDEST SWAP2 POP POP PUSH2 0x24E6 SWAP5 POP PUSH1 0x20 SWAP3 POP PUSH1 0xFF NOT AND DUP3 DUP5 ADD MSTORE ISZERO ISZERO PUSH1 0x5 SHL DUP3 ADD ADD PUSH0 DUP1 PUSH2 0x28CE JUMP JUMPDEST SWAP1 DUP2 SLOAD PUSH2 0x294B DUP2 PUSH2 0x222D JUMP JUMPDEST SWAP3 PUSH2 0x2959 PUSH1 0x40 MLOAD SWAP5 DUP6 PUSH2 0x206D JUMP JUMPDEST DUP2 DUP5 MSTORE PUSH0 SWAP1 DUP2 MSTORE PUSH1 0x20 DUP1 DUP3 KECCAK256 DUP2 DUP7 ADD JUMPDEST DUP5 DUP5 LT PUSH2 0x2977 JUMPI POP POP POP POP POP JUMP JUMPDEST PUSH1 0x1 DUP4 DUP2 SWAP3 PUSH2 0x2985 DUP6 PUSH2 0x28A0 JUMP JUMPDEST DUP2 MSTORE ADD SWAP3 ADD SWAP4 ADD SWAP3 SWAP1 PUSH2 0x2969 JUMP INVALID NOT JUMP 0xA9 CODECOPY 0xE1 SWAP7 BALANCE 0x27 0xA6 DUP1 0x2B 0xC7 0xDF 0xF8 0xC4 EXTCODEHASH SWAP12 0xC5 MLOAD LOG0 0xBF SWAP8 0xEF 0xC6 GT PUSH17 0x6570E4108402A2646970667358221220EA PUSH26 0x23F235AD7066E4E0BD55D3A3111279840650680988BAF0FCBDFB REVERT 0xF8 PUSH1 0x88 PUSH5 0x736F6C6343 STOP ADDMOD EQ STOP CALLER "},"methodIdentifiers":{"addNegCredsToMember(string,address)":"99d03bf2","addPosCredsToMember(string,address)":"b66fdab4","addSelfAsMember(string)":"5450fdd5","communityContract()":"8e634029","getIsInvited(address,string)":"e636f314","getIsMember(address,string)":"b091c546","getMemberCredIndex(address,address,string)":"9c419dc9","getMemberCreds(address,string)":"02b5df59","getMemberInfo(address)":"5f1231ea","getMemberNegCredsList(address,string)":"fbc3d96c","getMemberPosCredsList(address,string)":"f3faf99a","getReiewerCommunityInfo(address,string)":"ef0ed360","hasMemberGivenCred(address,string,address)":"c783acb4","inviteMember(string,address)":"cdb43ea4","isInvited(string,address)":"a4828578","removeNegCredsFromMember(string,address)":"4f64aedd","removePosCredsFromMember(string,address)":"8c5956c4","removeSelfAsMember(string)":"ca4f880b","setlearntgetherCommunities(address)":"19f553e2","uninviteMember(string,address)":"6b039bb4","updateMemberInfo(string,string,string[],string[])":"be42d3af"}}}}}