{"contracts/tgetherCommunities.sol":{"tgetherCommunities":{"abi":[{"inputs":[{"internalType":"uint256","name":"_feePrice","type":"uint256"},{"internalType":"address","name":"_fundContract","type":"address"}],"stateMutability":"nonpayable","type":"constructor"},{"anonymous":false,"inputs":[{"indexed":true,"internalType":"string","name":"communityName","type":"string"},{"indexed":false,"internalType":"address","name":"creator","type":"address"},{"indexed":false,"internalType":"bool","name":"isInviteOnly","type":"bool"}],"name":"CommunityCreated","type":"event"},{"anonymous":false,"inputs":[{"indexed":true,"internalType":"string","name":"communityName","type":"string"},{"indexed":false,"internalType":"uint256","name":"minCredsToProposeVote","type":"uint256"},{"indexed":false,"internalType":"uint256","name":"minCredsToVote","type":"uint256"},{"indexed":false,"internalType":"uint256","name":"maxCredsCountedForVote","type":"uint256"},{"indexed":false,"internalType":"uint256","name":"minProposalVotes","type":"uint256"},{"indexed":false,"internalType":"address","name":"memberAccessContract","type":"address"},{"indexed":false,"internalType":"uint256","name":"proposalTime","type":"uint256"},{"indexed":false,"internalType":"uint256","name":"proposalDelay","type":"uint256"},{"indexed":false,"internalType":"bool","name":"isInviteOnly","type":"bool"}],"name":"CommunityInfo","type":"event"},{"anonymous":false,"inputs":[{"indexed":true,"internalType":"string","name":"communityName","type":"string"},{"indexed":true,"internalType":"uint256","name":"proposalId","type":"uint256"},{"indexed":false,"internalType":"uint256","name":"minCredsToProposeVote","type":"uint256"},{"indexed":false,"internalType":"uint256","name":"minCredsToVote","type":"uint256"},{"indexed":false,"internalType":"uint256","name":"maxCredsCountedForVote","type":"uint256"},{"indexed":false,"internalType":"uint256","name":"minProposalVotes","type":"uint256"},{"indexed":false,"internalType":"address","name":"memberAccessContract","type":"address"},{"indexed":false,"internalType":"uint256","name":"proposalTime","type":"uint256"},{"indexed":false,"internalType":"uint256","name":"proposalDelay","type":"uint256"},{"indexed":false,"internalType":"bool","name":"isInviteOnly","type":"bool"}],"name":"CommunityProposalParams","type":"event"},{"anonymous":false,"inputs":[{"indexed":true,"internalType":"address","name":"contractAddress","type":"address"},{"indexed":true,"internalType":"uint256","name":"proposalId","type":"uint256"},{"indexed":true,"internalType":"address","name":"proposer","type":"address"}],"name":"CustomProposalCreated","type":"event"},{"anonymous":false,"inputs":[{"indexed":true,"internalType":"address","name":"contractAddress","type":"address"},{"indexed":true,"internalType":"uint256","name":"proposalId","type":"uint256"},{"indexed":true,"internalType":"bool","name":"passed","type":"bool"}],"name":"CustomProposalResult","type":"event"},{"anonymous":false,"inputs":[{"indexed":false,"internalType":"uint256","name":"proposalId","type":"uint256"},{"indexed":false,"internalType":"uint256","name":"activeProposalsIndex","type":"uint256"}],"name":"IndexChange","type":"event"},{"anonymous":false,"inputs":[{"indexed":true,"internalType":"uint256","name":"proposalId","type":"uint256"},{"indexed":true,"internalType":"address","name":"proposer","type":"address"},{"indexed":true,"internalType":"string","name":"communityName","type":"string"},{"indexed":false,"internalType":"uint256","name":"timestamp","type":"uint256"},{"indexed":false,"internalType":"uint256","name":"propType","type":"uint256"}],"name":"ProposalCreated","type":"event"},{"anonymous":false,"inputs":[{"indexed":true,"internalType":"uint256","name":"proposalId","type":"uint256"},{"indexed":true,"internalType":"bool","name":"passed","type":"bool"}],"name":"ProposalResult","type":"event"},{"anonymous":false,"inputs":[{"indexed":true,"internalType":"uint256","name":"proposalId","type":"uint256"},{"indexed":true,"internalType":"address","name":"voter","type":"address"},{"indexed":true,"internalType":"bool","name":"voteChoice","type":"bool"},{"indexed":false,"internalType":"uint256","name":"credsToCount","type":"uint256"}],"name":"Voted","type":"event"},{"inputs":[{"internalType":"uint256","name":"","type":"uint256"}],"name":"CommunityNames","outputs":[{"internalType":"string","name":"","type":"string"}],"stateMutability":"view","type":"function"},{"inputs":[{"internalType":"string","name":"_communityName","type":"string"},{"internalType":"uint256","name":"_minCredsToProposeVote","type":"uint256"},{"internalType":"uint256","name":"_minCredsToVote","type":"uint256"},{"internalType":"uint256","name":"_maxCredsCountedForVote","type":"uint256"},{"internalType":"uint256","name":"_minProposalVotes","type":"uint256"},{"internalType":"address","name":"_credsAccessAddress","type":"address"},{"internalType":"uint256","name":"_proposalTime","type":"uint256"},{"internalType":"uint256","name":"_proposalDelay","type":"uint256"},{"internalType":"bool","name":"_isInviteOnly","type":"bool"}],"name":"CommunityProposal","outputs":[{"internalType":"uint256","name":"","type":"uint256"}],"stateMutability":"payable","type":"function"},{"inputs":[{"internalType":"uint256","name":"","type":"uint256"}],"name":"CommunityProposals","outputs":[{"internalType":"uint256","name":"minCredsToProposeVote","type":"uint256"},{"internalType":"uint256","name":"minCredsToVote","type":"uint256"},{"internalType":"uint256","name":"maxCredsCountedForVote","type":"uint256"},{"internalType":"uint256","name":"minProposalVotes","type":"uint256"},{"internalType":"address","name":"memberAccessContract","type":"address"},{"internalType":"uint256","name":"proposalTime","type":"uint256"},{"internalType":"uint256","name":"proposalDelay","type":"uint256"},{"internalType":"bool","name":"isInviteOnly","type":"bool"}],"stateMutability":"view","type":"function"},{"inputs":[{"internalType":"string","name":"_communityName","type":"string"},{"internalType":"address","name":"_contractAddress","type":"address"}],"name":"CustomProposal","outputs":[{"internalType":"uint256","name":"","type":"uint256"}],"stateMutability":"payable","type":"function"},{"inputs":[{"internalType":"uint256","name":"","type":"uint256"}],"name":"CustomProposals","outputs":[{"internalType":"address","name":"","type":"address"}],"stateMutability":"view","type":"function"},{"inputs":[],"name":"FundContract","outputs":[{"internalType":"contract tgetherFundInterface","name":"","type":"address"}],"stateMutability":"view","type":"function"},{"inputs":[],"name":"MemberContract","outputs":[{"internalType":"contract tgetherMembersInterface","name":"","type":"address"}],"stateMutability":"view","type":"function"},{"inputs":[{"internalType":"string","name":"_communityName","type":"string"},{"internalType":"address","name":"_newOwner","type":"address"}],"name":"changeCommunityOwner","outputs":[],"stateMutability":"nonpayable","type":"function"},{"inputs":[{"internalType":"bytes","name":"","type":"bytes"}],"name":"checkUpkeep","outputs":[{"internalType":"bool","name":"upkeepNeeded","type":"bool"},{"internalType":"bytes","name":"","type":"bytes"}],"stateMutability":"view","type":"function"},{"inputs":[{"internalType":"string","name":"","type":"string"}],"name":"communities","outputs":[{"internalType":"address","name":"creator","type":"address"},{"internalType":"uint256","name":"minCredsToProposeVote","type":"uint256"},{"internalType":"uint256","name":"minCredsToVote","type":"uint256"},{"internalType":"uint256","name":"maxCredsCountedForVote","type":"uint256"},{"internalType":"uint256","name":"minProposalVotes","type":"uint256"},{"internalType":"address","name":"memberAccessContract","type":"address"},{"internalType":"uint256","name":"proposalTime","type":"uint256"},{"internalType":"uint256","name":"proposalDelay","type":"uint256"},{"internalType":"bool","name":"isInviteOnly","type":"bool"}],"stateMutability":"view","type":"function"},{"inputs":[{"internalType":"string","name":"_communityName","type":"string"},{"internalType":"uint256","name":"_minCredsToProposeVote","type":"uint256"},{"internalType":"uint256","name":"_minCredsToVote","type":"uint256"},{"internalType":"uint256","name":"_maxCredsCountedForVote","type":"uint256"},{"internalType":"uint256","name":"_minProposalVotes","type":"uint256"},{"internalType":"address","name":"_memberAccessContract","type":"address"},{"internalType":"uint256","name":"_proposalTime","type":"uint256"},{"internalType":"uint256","name":"_proposalDelay","type":"uint256"},{"internalType":"bool","name":"_isInviteOnly","type":"bool"}],"name":"createCommunity","outputs":[],"stateMutability":"nonpayable","type":"function"},{"inputs":[],"name":"fee","outputs":[{"internalType":"uint256","name":"","type":"uint256"}],"stateMutability":"view","type":"function"},{"inputs":[{"internalType":"uint256","name":"_propId","type":"uint256"}],"name":"getActiveProposalIndex","outputs":[{"internalType":"uint256","name":"","type":"uint256"}],"stateMutability":"view","type":"function"},{"inputs":[],"name":"getActiveProposalsLength","outputs":[{"internalType":"uint256","name":"","type":"uint256"}],"stateMutability":"view","type":"function"},{"inputs":[{"internalType":"string","name":"_communityName","type":"string"}],"name":"getCommunityExists","outputs":[{"internalType":"bool","name":"","type":"bool"}],"stateMutability":"view","type":"function"},{"inputs":[{"internalType":"string","name":"_communityName","type":"string"}],"name":"getCommunityInfo","outputs":[{"internalType":"uint256","name":"minCredsToProposeVote","type":"uint256"},{"internalType":"uint256","name":"minCredsToVote","type":"uint256"},{"internalType":"uint256","name":"maxCredsCountedForVote","type":"uint256"},{"internalType":"uint256","name":"minProposalVotes","type":"uint256"},{"internalType":"uint256","name":"proposalTime","type":"uint256"},{"internalType":"uint256","name":"proposalDelay","type":"uint256"},{"internalType":"bool","name":"isInviteOnly","type":"bool"}],"stateMutability":"view","type":"function"},{"inputs":[{"internalType":"string","name":"_communityName","type":"string"}],"name":"getCommunityIsInviteOnly","outputs":[{"internalType":"bool","name":"","type":"bool"}],"stateMutability":"view","type":"function"},{"inputs":[{"internalType":"string","name":"_communityName","type":"string"},{"internalType":"address","name":"_add","type":"address"}],"name":"getCommunityIsOwner","outputs":[{"internalType":"bool","name":"","type":"bool"}],"stateMutability":"view","type":"function"},{"inputs":[{"internalType":"string","name":"_communityName","type":"string"}],"name":"getCommunityOwner","outputs":[{"internalType":"address","name":"","type":"address"}],"stateMutability":"view","type":"function"},{"inputs":[],"name":"getFee","outputs":[{"internalType":"uint256","name":"","type":"uint256"}],"stateMutability":"view","type":"function"},{"inputs":[{"internalType":"string","name":"_communityName","type":"string"}],"name":"getMemberAccessContract","outputs":[{"internalType":"address","name":"","type":"address"}],"stateMutability":"view","type":"function"},{"inputs":[{"internalType":"uint256","name":"_numIdsreturned","type":"uint256"},{"internalType":"uint256","name":"_pageNumber","type":"uint256"}],"name":"getPaginatedActiveProposals","outputs":[{"internalType":"uint256[]","name":"","type":"uint256[]"},{"internalType":"uint256","name":"numPages","type":"uint256"}],"stateMutability":"view","type":"function"},{"inputs":[{"internalType":"string","name":"_communityName","type":"string"},{"internalType":"uint256","name":"_numIdsreturned","type":"uint256"},{"internalType":"uint256","name":"_pageNumber","type":"uint256"}],"name":"getPaginatedCommunityProposals","outputs":[{"internalType":"uint256[]","name":"","type":"uint256[]"},{"internalType":"uint256","name":"numPages","type":"uint256"}],"stateMutability":"view","type":"function"},{"inputs":[{"internalType":"uint256","name":"_proposalId","type":"uint256"}],"name":"getProposalResults","outputs":[{"internalType":"bool","name":"isActive","type":"bool"},{"internalType":"bool","name":"passed","type":"bool"}],"stateMutability":"view","type":"function"},{"inputs":[{"internalType":"uint256","name":"_proposalId","type":"uint256"}],"name":"getProposalType","outputs":[{"internalType":"uint256","name":"","type":"uint256"}],"stateMutability":"view","type":"function"},{"inputs":[{"internalType":"address","name":"_address","type":"address"},{"internalType":"uint256","name":"_proposalId","type":"uint256"}],"name":"getProposalVote","outputs":[{"internalType":"uint256","name":"approveVotes","type":"uint256"},{"internalType":"uint256","name":"approveCreds","type":"uint256"},{"internalType":"uint256","name":"denyVotes","type":"uint256"},{"internalType":"uint256","name":"denyCreds","type":"uint256"},{"internalType":"bool","name":"","type":"bool"}],"stateMutability":"view","type":"function"},{"inputs":[{"internalType":"address","name":"","type":"address"}],"name":"hasOpenProposal","outputs":[{"internalType":"bool","name":"","type":"bool"}],"stateMutability":"view","type":"function"},{"inputs":[{"internalType":"bytes","name":"_performData","type":"bytes"}],"name":"performUpkeep","outputs":[],"stateMutability":"nonpayable","type":"function"},{"inputs":[{"internalType":"string","name":"","type":"string"},{"internalType":"uint256","name":"","type":"uint256"}],"name":"porposalsByCommunity","outputs":[{"internalType":"uint256","name":"","type":"uint256"}],"stateMutability":"view","type":"function"},{"inputs":[{"internalType":"uint256","name":"","type":"uint256"}],"name":"proposals","outputs":[{"internalType":"address","name":"proposer","type":"address"},{"internalType":"string","name":"communityName","type":"string"},{"internalType":"uint256","name":"timestamp","type":"uint256"},{"internalType":"uint256","name":"propType","type":"uint256"},{"internalType":"uint256","name":"activeProposalsIndex","type":"uint256"},{"internalType":"uint256","name":"approveVotes","type":"uint256"},{"internalType":"uint256","name":"denyVotes","type":"uint256"},{"internalType":"uint256","name":"approveCreds","type":"uint256"},{"internalType":"uint256","name":"denyCreds","type":"uint256"},{"internalType":"bool","name":"isActive","type":"bool"},{"internalType":"bool","name":"passed","type":"bool"}],"stateMutability":"view","type":"function"},{"inputs":[{"internalType":"uint256","name":"_feePrice","type":"uint256"}],"name":"setFee","outputs":[],"stateMutability":"nonpayable","type":"function"},{"inputs":[{"internalType":"address","name":"_contract","type":"address"}],"name":"setFundContract","outputs":[],"stateMutability":"nonpayable","type":"function"},{"inputs":[{"internalType":"uint256","name":"_mpt","type":"uint256"}],"name":"setMaxProposalTime","outputs":[],"stateMutability":"nonpayable","type":"function"},{"inputs":[{"internalType":"uint256","name":"_propId","type":"uint256"}],"name":"setProposalCanceled","outputs":[],"stateMutability":"nonpayable","type":"function"},{"inputs":[{"internalType":"uint256","name":"_count","type":"uint256"}],"name":"setProposalCounter","outputs":[],"stateMutability":"nonpayable","type":"function"},{"inputs":[{"internalType":"uint256","name":"_proposalId","type":"uint256"}],"name":"setProposalInactive","outputs":[],"stateMutability":"nonpayable","type":"function"},{"inputs":[{"internalType":"uint256","name":"_upkeepId","type":"uint256"}],"name":"setUpkkepId","outputs":[],"stateMutability":"nonpayable","type":"function"},{"inputs":[{"internalType":"address","name":"_contractAddress","type":"address"}],"name":"settgetherMembersContract","outputs":[],"stateMutability":"nonpayable","type":"function"},{"inputs":[],"name":"upkeepId","outputs":[{"internalType":"uint256","name":"","type":"uint256"}],"stateMutability":"view","type":"function"},{"inputs":[{"internalType":"uint256","name":"proposalId","type":"uint256"},{"internalType":"bool","name":"voteChoice","type":"bool"}],"name":"vote","outputs":[],"stateMutability":"nonpayable","type":"function"}],"evm":{"bytecode":{"linkReferences":{},"object":"608034620000ee57601f62002dd138819003918201601f19168301916001600160401b03831184841017620000da578084926040948552833981010312620000ee5780516020909101516001600160a01b03811690819003620000ee5760018060a01b03193381600a541617600a55600d541617600d55600b5562786450600355600160055560075468010000000000000000811015620000da576001810180600755811015620000c6575f9060078252602082200155604051612cde9081620000f38239f35b634e487b7160e01b5f52603260045260245ffd5b634e487b7160e01b5f52604160045260245ffd5b5f80fdfe60806040526004361015610011575f80fd5b5f3560e01c8063013cf08b1461223b5780630163b9681461221357806304413d86146121ae5780630dc85f7d146121635780631282f6091461212057806328adc2401461205a578063298a575014611f8957806331b4ea2e14611c0b5780633df6735214611b835780634585e33b1461181e578063495d855e146118015780635787a0cc146117d357806359144baa1461178b5780635bdcd0081461174e5780636219f11714611499578063685357091461142257806369fe0e2d146113f45780636e04ff0d146112a1578063789aa8f61461117c5780637b7fcfed146111135780638126d895146110b1578063860eb3d91461100b5780638a94aea414610fc35780638b64044014610f955780638ed8067e14610f6d57806390943a8b14610f3b578063a169093b14610f0d578063a64108d514610d91578063b07bcbc514610aac578063b3f6702d14610a2c578063b60a85ae146109ff578063c2c2e5f814610986578063c9d27afe14610539578063cbe02a9f146104a5578063ced72f8714610212578063d0d8392314610279578063d2aa789f1461025c578063d978ffba1461022f578063ddca3f43146102125763ff1225d9146101d1575f80fd5b3461020e57602036600319011261020e576001600160a01b036101f2612496565b165f526009602052602060ff60405f2054166040519015158152f35b5f80fd5b3461020e575f36600319011261020e576020600b54604051908152f35b3461020e57602036600319011261020e576004355f5260066020526020600360405f200154604051908152f35b3461020e575f36600319011261020e576020600e54604051908152f35b3461020e5760208060031936011261020e576004355f8181526006835260409020546001600160a01b0316330361046457805f5260068252600160ff600a60405f2001541615150361041f57805f5260068252600460405f200154916007549060018211156103db575f1982019182116103c75783826006935f9603610330575b50508284525281600460408220600a810160ff198154169055015561031d612b2f565b5f80516020612c898339815191528280a3005b7ff041f52db3fd2f56a979d9dd319aa6a6e399c198410349cf154eb4b4568d7daa91610388610360604093612519565b905461036b84612519565b91909260031b1c9082549060031b91821b915f19901b1916179055565b61039181612519565b90549060031b1c875284845280600483892001556103ae81612519565b90549060031b1c90825191825284820152a184806102fa565b634e487b7160e01b5f52601160045260245ffd5b6064906040519062461bcd60e51b82526004820152601d60248201527f546865726520617265206e6f206163746976652050726f706f73616c730000006044820152fd5b60405162461bcd60e51b815260048101839052601b60248201527f546869732070726f706f73616c206973206e6f742061637469766500000000006044820152606490fd5b60405162461bcd60e51b81526004810183905260196024820152785573657220646964206e6f742070726f706f7365207468697360381b6044820152606490fd5b3461020e57602036600319011261020e576004356001600160401b03811161020e576104d76020913690600401612441565b60056105258360405193805190610514838201926104f68189866123fb565b87015f8152878560018060a01b03998a930301902054161515612bb2565b6040519384928392519283916123fb565b81015f815203019020015416604051908152f35b3461020e57604036600319011261020e5760248035801515916004359083830361020e5760055482101561094757815f526020906006825260405f20906001918260ff600a8301541615150361090357600281015491838201926105a960076105a1866129ed565b015482612a7b565b42101590816108d3575b501561089757600c54604051635848e2a360e11b81526001600160a01b0390911693908681806105e7853360048401612a88565b0381885afa80156107cd5786915f9161086a575b50151503610816576009830193335f5284875260ff60405f2054166107d8578660405180926302b5df5960e01b8252818061063a873360048401612a88565b03915afa9081156107cd575f916107a0575b506002610658836129ed565b0154811261075c57600361066b836129ed565b015481131561075457506106806003916129ed565b0154965b1561070557600582018054918583018093116106f25750916007917f7c2de587c00d75474a0c6c6fa96fd3b45dc974cd4e8a75f712bb84c950dce1b59695949355016106d1878254612a7b565b90555b335f52825260405f209060ff198254161790556040519384523393a4005b634e487b7160e01b5f9081526011600452fd5b600682018054918583018093116106f25750916008917f7c2de587c00d75474a0c6c6fa96fd3b45dc974cd4e8a75f712bb84c950dce1b596959493550161074d878254612a7b565b90556106d4565b905096610684565b60405162461bcd60e51b815260048101889052601b818501527f496e73756666696369656e7420637265647320746f20766f74652e00000000006044820152606490fd5b90508681813d83116107c6575b6107b78183612339565b8101031261020e57518a61064c565b503d6107ad565b6040513d5f823e3d90fd5b60405162461bcd60e51b815260048101889052601781850152762cb7ba903430bb329030b63932b0b23c903b37ba32b21760491b6044820152606490fd5b60405162461bcd60e51b8152600481018790526027818401527f596f7520617265206e6f742061206d656d626572206f66207468697320636f6d60448201526636bab734ba3c9760c91b6064820152608490fd5b61088a9150883d8a11610890575b6108828183612339565b810190612856565b8b6105fb565b503d610878565b8460166064926040519262461bcd60e51b84526004840152820152754e6f742041637469766520566f74696e672054696d6560501b6044820152fd5b6108fa91506108ef9060076108e7876129ed565b015490612a7b565b60066108e7866129ed565b421115896105b3565b60405162461bcd60e51b815260048101859052601c818401527f50726f706f73616c206973206e6f206c6f6e67657220416374697665000000006044820152606490fd5b60649060186040519162461bcd60e51b83526020600484015282015277283937b837b9b0b6103237b2b9903737ba1032bc34b9ba1760411b6044820152fd5b3461020e57604036600319011261020e576004356001600160401b03811161020e576109b6903690600401612441565b6109d260206024359281604051938285809451938492016123fb565b81016008815203019020805482101561020e576020916109f191612531565b90546040519160031b1c8152f35b3461020e57602036600319011261020e576004355f5260066020526020600460405f200154604051908152f35b3461020e57602036600319011261020e576004356001600160401b03811161020e57610a5e6020913690600401612441565b610a99826040519280519061051483820192610a7b8188866123fb565b86015f8152868560018060a01b039889930301902054161515612bb2565b81015f8152030190205416604051908152f35b610ab5366124ac565b604051825190602093610aee85820193610ad08185876123fb565b83015f8152838760018060a01b0395869303019020541615156127a2565b325f5260098552610b0660ff60405f205416156127e8565b81600c541690604051635848e2a360e11b8152868180610b2a85326004840161286e565b0381865afa9081156107cd57610b4d916001915f91610d74575b50151514612893565b8560405180936302b5df5960e01b82528180610b6d86326004840161286e565b03915afa80156107cd5786925f91610d42575b50610bab90600160405185818651610b9981838d6123fb565b81015f815203019020015413156128f0565b610bb8600b54341461293c565b60059485545f5260068352610c7260405f2092610c6385600a60018060a01b0319963288825416178155610bef856001830161267a565b426002820155600754600482015560026003820155019860ff199960018b8254161790558a5493610c1f81612782565b604051428152600285820152867f6c98a8c940418b35614f0cd02412d5c9606faff474cbb6cdd6640ba5d1a9f06b60403393a46040519384928392519283916123fb565b810160088152030190206129bc565b85545f52600483528360405f209116809282541617905560248554604051948593849232917f6a319039caa9a0b231fc1a3d10d617c656e322ebac0d326e9d0c95cbde9248a45f80a4600d54633de5599d60e11b83523060048401523491165af19081156107cd575f91610d25575b501561020e57335f5260098352600160405f2091825416179055610d058154612981565b610d0f81546129df565b8091555f1981019081116103c757604051908152f35b610d3c9150843d8611610890576108828183612339565b84610ce1565b83819492503d8311610d6d575b610d598183612339565b8101031261020e57610bab86925190610b80565b503d610d4f565b610d8b9150893d8b11610890576108828183612339565b89610b44565b3461020e5760208060031936011261020e57600435906001600160401b03821161020e57610dc560e0923690600401612441565b9060405191610dfe81519383830194610ddf8183886123fb565b5f90820190815281900384019020546001600160a01b03161515612bb2565b600160405183818451610e1281838a6123fb565b81015f815203019020015492600260405184818551610e328183886123fb565b81015f8152030190200154600360405185818651610e518183896123fb565b81015f8152030190200154600460405186818751610e7081838a6123fb565b81015f81520301902001549160ff6008610eda886006610e9d828a8c6040519384928392519283916123fb565b81015f815203019020015497600760405183818d51610ebd8183886123fb565b81015f8152030190200154996040519384928392519283916123fb565b81015f8152030190200154169560405197885287015260408601526060850152608084015260a0830152151560c0820152f35b3461020e57602036600319011261020e57610f3360018060a01b03600a54163314612b6d565b600435600355005b3461020e57602036600319011261020e576004355f526004602052602060018060a01b0360405f205416604051908152f35b3461020e575f36600319011261020e57600d546040516001600160a01b039091168152602090f35b3461020e57602036600319011261020e57610fbb60018060a01b03600a54163314612b6d565b600435600555005b3461020e57602036600319011261020e57610fdc612496565b600a546001600160a01b039190610ff69083163314612b6d565b1660018060a01b0319600c541617600c555f80f35b3461020e57604036600319011261020e5760043561102881612c11565b905f61103682602435612c43565b906110418383612a7b565b90600754928383116110a9575b905b82821061107657856110628686612c6a565b90611072604051928392836125f7565b0390f35b61109d6110a39161108684612519565b90549060031b1c611097828a612c56565b526129df565b916129df565b90611050565b83925061104e565b3461020e57602036600319011261020e576004355f52600260205260405f208054611072600183015492600281015490600381015460018060a01b0360048301541660058301549160ff60076006860154950154169460405198899889612639565b3461020e57602036600319011261020e576004356001600160401b03811161020e576111456020913690600401612441565b8161115960405192838151938492016123fb565b5f90820190815281900382019020546040516001600160a01b0390911615158152f35b3461020e57606036600319011261020e576004356001600160401b03811161020e576111ac903690600401612441565b6024356111b881612c11565b915f6111c683604435612c43565b916111d18484612a7b565b9060405191815193602095868401956111eb8187896123fb565b85019487816008978881520301902054831161127d575b905b8282106112375788611062896112288a8a8a8a6040519485938492519283916123fb565b82019081520301902054612c6a565b61109d61127791611266846112588b8b604051809381928d519283916123fb565b81018c815203019020612531565b90549060031b1c611097828d612c56565b90611204565b91506040518681855161129181838b6123fb565b8101878152030190205491611202565b3461020e576112af366125ae565b50505f8060078054908161131d575b50506040519060208201526020815260408101918183106001600160401b0384111761130957826040521515825260406060820152603f1990611304608082018261241c565b030190f35b634e487b7160e01b5f52604160045260245ffd5b5f9060015b8381106113305750506112be565b61133981612519565b9054600391821b1c5f526113a060066020908082528061137e600260405f20015461136388612519565b905490881b1c5f52828552886108e7600160405f20016129ed565b9261138887612519565b905490871b1c5f52526108e7600160405f20016129ed565b42811115806113e2575b6113bf575b50506113ba906129df565b611322565b9550955091506113ba6001956113d484612519565b9054911b1c949290876113af565b5084811115806113aa575084156113aa565b3461020e57602036600319011261020e5761141a60018060a01b03600a54163314612b6d565b600435600b55005b3461020e57604036600319011261020e5760a061143d612496565b6024355f52600660205260405f206005810154916007820154916009600682015491600881015493600180891b03165f520160205260ff60405f2054169260405194855260208501526040840152606083015215156080820152f35b3461020e576114a736612546565b92829491929897959891604051895190602097888c01926114c98184866123fb565b82015f8152828a60018060a01b0394859303019020541661170d57918b89928b8f8e8c97600354809111611704575b50926008959261162e95926116499998956040518781875161151b81838c6123fb565b81015f8152030190209260018060a01b0319933385825416179055600160405189818061154c8c8c519283916123fb565b81015f815203019020015560026040518881885161156b81838d6123fb565b81015f815203019020015560036040518781875161158a81838c6123fb565b81015f8152030190200155896004604051878187516115aa81838c6123fb565b81015f81520301902001556005604051868186516115c981838b6123fb565b81015f81520301902001918b1690825416179055896006604051858185516115f281838a6123fb565b81015f81520301902001558a60076040518581855161161281838a6123fb565b81015f81520301902001556040519384928392519283916123fb565b81015f815203019020019060ff801983541691151516179055565b600154600160401b8110156113095780600161166892016001556124ed565b6116f157896116ec9761169f7fa33e969841918d6c70510ff52aaf2f08256c371553465cdd2beb001c23b0f5049c6116df9461267a565b7f770333f2d96faae538a5391fa34d7f90a88dc8af3aadcb1735c43839cb69556660406116cb84612782565b928151903382528b151590820152a2612782565b9960405198899889612639565b0390a2005b634e487b7160e01b5f525f60045260245ffd5b9a5060086114f8565b60405162461bcd60e51b8152600481018a9052601960248201527821b7b6b6bab734ba3c9030b63932b0b23c9032bc34b9ba399760391b6044820152606490fd5b3461020e57602036600319011261020e576004355f5260066020526040600a815f20015460ff8251918181161515835260081c1615156020820152f35b3461020e57602036600319011261020e576117a4612496565b600a546001600160a01b0391906117be9083163314612b6d565b1660018060a01b0319600d541617600d555f80f35b3461020e57602036600319011261020e576117f960018060a01b03600a54163314612b6d565b600435600e55005b3461020e575f36600319011261020e576020600754604051908152f35b3461020e5761182c366125ae565b819060209283918101031261020e573590815f5260069182825260405f2060029061187b6118668383015460076108e760018096016129ed565b845f52868652866108e78460405f20016129ed565b8315159081611b78575b81611b6e575b5061189257005b825f5284845260405f20916005830154868401548082119182611b3e575b82611b1c575b505015611aa8578160038401548281145f14611a0e57505050825f5260048452808360018060a01b0360405f2054167fca5be02c86f988b49c8f55fa1445e2252a5de3afaa608cc35db41feb6c22f83a5f80a45b825f80516020612c898339815191525f80a3815f52838352600a60405f200161010061ff00198254161790555b546001600160a01b03165f908152600983526040808220805460ff199081169091558383528585529120600a81018054909216909155600401546007545f1981019081116103c75780820361199f575b50505f52525f600460408220015561199d612b2f565b005b7ff041f52db3fd2f56a979d9dd319aa6a6e399c198410349cf154eb4b4568d7daa916119cf610360604093612519565b6119d881612519565b90549060031b1c5f52858552806004835f2001556119f581612519565b90549060031b1c90825191825285820152a18380611987565b14611a1a575b5061190a565b611aa290600860ff6007611a2f8688016129ed565b93885f52808a5260405f2090815488870155878201548187015581015460038601556003810154600486015560018060a01b03600482015416600586019060018060a01b031982541617905560058101548b8601558a8101548286015501541691019060ff801983541691151516179055565b85611a14565b9050825f52848452600a60405f200161ff001981541690555f835f80516020612c898339815191528280a3600382015403611937576004835260405f9081205483906001600160a01b03167fca5be02c86f988b49c8f55fa1445e2252a5de3afaa608cc35db41feb6c22f83a8380a4611937565b611b269250612a7b565b6004611b338486016129ed565b0154111587806118b6565b915060078501546008860154108015611b58575b916118b0565b506003611b668587016129ed565b015415611b52565b905015158661188b565b428111159150611885565b3461020e57602036600319011261020e576004356001600160401b03811161020e5760ff6008611bf56020611bbd81953690600401612441565b6040519061051481519284830193611bd68183876123fb565b5f90820190815281900385019020546001600160a01b03161515612bb2565b81015f8152030190200154166040519015158152f35b611c1436612546565b92611c5660206040999698979994939451611c358c828151948592016123fb565b5f918101918252908190036020019020546001600160a01b031615156127a2565b325f526009602052611c6f60ff60405f205416156127e8565b600c54604051635848e2a360e11b81526001600160a01b039091169060208180611c9d8e326004840161286e565b0381855afa9081156107cd57611ce292611cc660016020948f945f91611f6c5750151514612893565b60405180809581946302b5df5960e01b8352326004840161286e565b03915afa9081156107cd578a905f92611f2a575b5097611d3f611e7596959493926001610b9960207f65513f3a4b238816f691e4322be549c10eeaa1ef78fe116618b0d83e5ca252b69d81604051938285809451938492016123fb565b611d4c600b54341461293c565b84836005545f5260026020528c60405f2091600354809111611f20575b50600660205260405f2080546001600160a01b03191632178155611e6993926007929091611e1b9190611d9f826001830161267a565b4260028201558454600482015560016003820155600a600160ff19828401541617910155610c63602060055492611dd581612782565b604051428152600184820152857f6c98a8c940418b35614f0cd02412d5c9606faff474cbb6cdd6640ba5d1a9f06b60403393a481604051938285809451938492016123fb565b8a81558b60018201558d60028201558460038201556004810160018060a01b03871660018060a01b0319825416179055866005820155876006820155019060ff801983541691151516179055565b6116df6005549b612782565b0390a3600d54604051633de5599d60e11b8152306004820152906020908290602490829034906001600160a01b03165af19081156107cd575f91611f01575b501561020e57335f52600960205260405f20600160ff19825416179055611edc600554612981565b611ee76005546129df565b806005555f1981019081116103c757602090604051908152f35b611f1a915060203d602011610890576108828183612339565b81611eb4565b9550611e69611d69565b959493929150506020853d602011611f64575b81611f4a60209383612339565b8101031261020e5793519293919290919089611d3f611cf6565b3d9150611f3d565b611f839150863d8811610890576108828183612339565b5f610b44565b3461020e57611f97366124ac565b90604051908051906020810191611faf8185856123fb565b83015f815283602060018060a01b03958693030190205416330361200557611fe5916020916040519384928392519283916123fb565b5f9082019081520301902080546001600160a01b03191691909216179055005b60405162461bcd60e51b815260206004820152602760248201527f55736572206973206e6f7420746865206f776e6572206f66207468697320636f6044820152666d6d756e69747960c81b6064820152608490fd5b3461020e57602036600319011261020e576004356001600160401b03811161020e576120a56020612092610120933690600401612441565b81604051938285809451938492016123fb565b81015f81520301902060018060a01b0380825416916001810154916002820154906003830154906004840154906005850154169160068501549360ff600860078801549701541696604051988952602089015260408801526060870152608086015260a085015260c084015260e08301521515610100820152f35b3461020e57602036600319011261020e5761214660018060a01b03600a54163314612b6d565b6004355f908152600660205260409020600a01805460ff19169055005b3461020e57602036600319011261020e5760043560015481101561020e5761218a906124ed565b6116f15761219a6110729161235a565b60405191829160208352602083019061241c565b3461020e576020806121bf366124ac565b91906121fd8260405192805190610514838201926121de8188866123fb565b86015f81528660018060a01b0398899889930301902054161515612bb2565b81015f8152030190205416906040519216148152f35b3461020e575f36600319011261020e57600c546040516001600160a01b039091168152602090f35b3461020e57602036600319011261020e576004355f90815260066020526040902080546001600160a01b03166122736001830161235a565b9160ff60028201549160038101549060048101546005820154600683015490600784015492600a6008860154950154956122c16040519b8c9b8c5260208c61016091829101528c019061241c565b9860408b015260608a0152608089015260a088015260c087015260e0860152610100850152818116151561012085015260081c1615156101408301520390f35b90600182811c9216801561232f575b602083101461231b57565b634e487b7160e01b5f52602260045260245ffd5b91607f1691612310565b90601f801991011681019081106001600160401b0382111761130957604052565b9060405191825f82549261236d84612301565b9081845260019485811690815f146123d85750600114612398575b505061239692500383612339565b565b909391505f52602090815f20935f915b8183106123c057505061239693508201015f80612388565b855488840185015294850194879450918301916123a8565b91505061239694506020925060ff191682840152151560051b8201015f80612388565b5f5b83811061240c5750505f910152565b81810151838201526020016123fd565b90602091612435815180928185528580860191016123fb565b601f01601f1916010190565b81601f8201121561020e578035906001600160401b0382116113095760405192612475601f8401601f191660200185612339565b8284526020838301011161020e57815f926020809301838601378301015290565b600435906001600160a01b038216820361020e57565b604060031982011261020e57600435906001600160401b03821161020e576124d691600401612441565b906024356001600160a01b038116810361020e5790565b6001548110156125055760015f5260205f2001905f90565b634e487b7160e01b5f52603260045260245ffd5b6007548110156125055760075f5260205f2001905f90565b8054821015612505575f5260205f2001905f90565b61012060031982011261020e57600435906001600160401b03821161020e5761257191600401612441565b906024359060443590606435906084359060a4356001600160a01b038116810361020e579060c4359060e4359061010435801515810361020e5790565b90602060031983011261020e576004356001600160401b039283821161020e578060238301121561020e57816004013593841161020e576024848301011161020e576024019190565b9291906040840160408552815180915260608501906020809301905f5b848282106126255750505050930152565b835185529384019390920191600101612614565b969390989794919260e0969361010089019a895260208901526040880152606087015260018060a01b0316608086015260a085015260c08401521515910152565b91909182516001600160401b038111611309576126978254612301565b601f811161273b575b50602080601f83116001146126db5750819293945f926126d0575b50508160011b915f199060031b1c1916179055565b015190505f806126bb565b90601f19831695845f52825f20925f905b8882106127235750508360019596971061270b575b505050811b019055565b01515f1960f88460031b161c191690555f8080612701565b806001859682949686015181550195019301906126ec565b5f83815260208120601f840160051c81019260208510612778575b601f0160051c01915b82811061276d5750506126a0565b81815560010161275f565b9092508290612756565b61279a906020604051928284809451938492016123fb565b810103902090565b156127a957565b60405162461bcd60e51b815260206004820152601760248201527610dbdb5b5d5b9a5d1e48191bd95cdb89dd08195e1a5cdd604a1b6044820152606490fd5b156127ef57565b60405162461bcd60e51b815260206004820152603960248201527f5573657220686173204f70656e205265766965772c20506c65617365207761696044820152783a103ab73a34b6361034ba1034b990383937b1b2b9b9b2b21760391b6064820152608490fd5b9081602091031261020e5751801515810361020e5790565b6001600160a01b0390911681526040602082018190526128909291019061241c565b90565b1561289a57565b60405162461bcd60e51b815260206004820152602860248201527f596f7520617265206e6f742061206d656d62657220666f72207468697320636f60448201526736b6bab734ba3c9760c11b6064820152608490fd5b156128f757565b60405162461bcd60e51b815260206004820152601e60248201527f496e73756666696369656e7420637265647320746f2070726f706f73652e00006044820152606490fd5b1561294357565b60405162461bcd60e51b81526020600482015260166024820152754d7573742073656e642070726f706f73616c2066656560501b6044820152606490fd5b60075490600160401b821015611309576129a48260016123969401600755612519565b90919082549060031b91821b915f19901b1916179055565b80549190600160401b83101561130957826129a491600161239695018155612531565b5f1981146103c75760010190565b60405190815f82546129fe81612301565b93600191808316908115612a5f5750600114612a25575b5050602092505f81520301902090565b9091505f52602090815f20905f915b858310612a4b575050505060209181015f80612a15565b805487840152869450918301918101612a34565b92505050602093915060ff191682528015150281015f80612a15565b919082018092116103c757565b919060018060a01b031682526020916040838201525f928254612aaa81612301565b9384604085015260019182811690815f14612b0a5750600114612ad0575b505050505090565b5f908152828120949550935b858510612af6575050506060925001015f80808080612ac8565b805485850160600152938201938101612adc565b93505050506060935060ff929192191683830152151560051b01015f80808080612ac8565b6007548015612b59575f1990810190612b4782612519565b909182549160031b1b19169055600755565b634e487b7160e01b5f52603160045260245ffd5b15612b7457565b60405162461bcd60e51b81526020600482015260166024820152752737ba103a34329031b7b73a3930b1ba1037bbb732b960511b6044820152606490fd5b15612bb957565b60405162461bcd60e51b815260206004820152601960248201527810dbdb5b5d5b9a5d1e48111bd95cc8139bdd08115e1cda5cdd603a1b6044820152606490fd5b6001600160401b0381116113095760051b60200190565b90612c1b82612bfa565b612c286040519182612339565b8281528092612c39601f1991612bfa565b0190602036910137565b818102929181159184041417156103c757565b80518210156125055760209160051b010190565b8115612c74570490565b634e487b7160e01b5f52601260045260245ffdfe35baaec8d9c9da1c77f27119243a4384b49eae2bf0680aa0eebe3b62d28574a5a26469706673582212204758a6c687993481b182922306ff98c94bd5d204342c149c86bc38cb7c4441f764736f6c63430008140033","opcodes":"PUSH1 0x80 CALLVALUE PUSH3 0xEE JUMPI PUSH1 0x1F PUSH3 0x2DD1 CODESIZE DUP2 SWAP1 SUB SWAP2 DUP3 ADD PUSH1 0x1F NOT AND DUP4 ADD SWAP2 PUSH1 0x1 PUSH1 0x1 PUSH1 0x40 SHL SUB DUP4 GT DUP5 DUP5 LT OR PUSH3 0xDA JUMPI DUP1 DUP5 SWAP3 PUSH1 0x40 SWAP5 DUP6 MSTORE DUP4 CODECOPY DUP2 ADD SUB SLT PUSH3 0xEE JUMPI DUP1 MLOAD PUSH1 0x20 SWAP1 SWAP2 ADD MLOAD PUSH1 0x1 PUSH1 0x1 PUSH1 0xA0 SHL SUB DUP2 AND SWAP1 DUP2 SWAP1 SUB PUSH3 0xEE JUMPI PUSH1 0x1 DUP1 PUSH1 0xA0 SHL SUB NOT CALLER DUP2 PUSH1 0xA SLOAD AND OR PUSH1 0xA SSTORE PUSH1 0xD SLOAD AND OR PUSH1 0xD SSTORE PUSH1 0xB SSTORE PUSH3 0x786450 PUSH1 0x3 SSTORE PUSH1 0x1 PUSH1 0x5 SSTORE PUSH1 0x7 SLOAD PUSH9 0x10000000000000000 DUP2 LT ISZERO PUSH3 0xDA JUMPI PUSH1 0x1 DUP2 ADD DUP1 PUSH1 0x7 SSTORE DUP2 LT ISZERO PUSH3 0xC6 JUMPI PUSH0 SWAP1 PUSH1 0x7 DUP3 MSTORE PUSH1 0x20 DUP3 KECCAK256 ADD SSTORE PUSH1 0x40 MLOAD PUSH2 0x2CDE SWAP1 DUP2 PUSH3 0xF3 DUP3 CODECOPY RETURN JUMPDEST PUSH4 0x4E487B71 PUSH1 0xE0 SHL PUSH0 MSTORE PUSH1 0x32 PUSH1 0x4 MSTORE PUSH1 0x24 PUSH0 REVERT JUMPDEST PUSH4 0x4E487B71 PUSH1 0xE0 SHL PUSH0 MSTORE PUSH1 0x41 PUSH1 0x4 MSTORE PUSH1 0x24 PUSH0 REVERT JUMPDEST PUSH0 DUP1 REVERT INVALID PUSH1 0x80 PUSH1 0x40 MSTORE PUSH1 0x4 CALLDATASIZE LT ISZERO PUSH2 0x11 JUMPI PUSH0 DUP1 REVERT JUMPDEST PUSH0 CALLDATALOAD PUSH1 0xE0 SHR DUP1 PUSH4 0x13CF08B EQ PUSH2 0x223B JUMPI DUP1 PUSH4 0x163B968 EQ PUSH2 0x2213 JUMPI DUP1 PUSH4 0x4413D86 EQ PUSH2 0x21AE JUMPI DUP1 PUSH4 0xDC85F7D EQ PUSH2 0x2163 JUMPI DUP1 PUSH4 0x1282F609 EQ PUSH2 0x2120 JUMPI DUP1 PUSH4 0x28ADC240 EQ PUSH2 0x205A JUMPI DUP1 PUSH4 0x298A5750 EQ PUSH2 0x1F89 JUMPI DUP1 PUSH4 0x31B4EA2E EQ PUSH2 0x1C0B JUMPI DUP1 PUSH4 0x3DF67352 EQ PUSH2 0x1B83 JUMPI DUP1 PUSH4 0x4585E33B EQ PUSH2 0x181E JUMPI DUP1 PUSH4 0x495D855E EQ PUSH2 0x1801 JUMPI DUP1 PUSH4 0x5787A0CC EQ PUSH2 0x17D3 JUMPI DUP1 PUSH4 0x59144BAA EQ PUSH2 0x178B JUMPI DUP1 PUSH4 0x5BDCD008 EQ PUSH2 0x174E JUMPI DUP1 PUSH4 0x6219F117 EQ PUSH2 0x1499 JUMPI DUP1 PUSH4 0x68535709 EQ PUSH2 0x1422 JUMPI DUP1 PUSH4 0x69FE0E2D EQ PUSH2 0x13F4 JUMPI DUP1 PUSH4 0x6E04FF0D EQ PUSH2 0x12A1 JUMPI DUP1 PUSH4 0x789AA8F6 EQ PUSH2 0x117C JUMPI DUP1 PUSH4 0x7B7FCFED EQ PUSH2 0x1113 JUMPI DUP1 PUSH4 0x8126D895 EQ PUSH2 0x10B1 JUMPI DUP1 PUSH4 0x860EB3D9 EQ PUSH2 0x100B JUMPI DUP1 PUSH4 0x8A94AEA4 EQ PUSH2 0xFC3 JUMPI DUP1 PUSH4 0x8B640440 EQ PUSH2 0xF95 JUMPI DUP1 PUSH4 0x8ED8067E EQ PUSH2 0xF6D JUMPI DUP1 PUSH4 0x90943A8B EQ PUSH2 0xF3B JUMPI DUP1 PUSH4 0xA169093B EQ PUSH2 0xF0D JUMPI DUP1 PUSH4 0xA64108D5 EQ PUSH2 0xD91 JUMPI DUP1 PUSH4 0xB07BCBC5 EQ PUSH2 0xAAC JUMPI DUP1 PUSH4 0xB3F6702D EQ PUSH2 0xA2C JUMPI DUP1 PUSH4 0xB60A85AE EQ PUSH2 0x9FF JUMPI DUP1 PUSH4 0xC2C2E5F8 EQ PUSH2 0x986 JUMPI DUP1 PUSH4 0xC9D27AFE EQ PUSH2 0x539 JUMPI DUP1 PUSH4 0xCBE02A9F EQ PUSH2 0x4A5 JUMPI DUP1 PUSH4 0xCED72F87 EQ PUSH2 0x212 JUMPI DUP1 PUSH4 0xD0D83923 EQ PUSH2 0x279 JUMPI DUP1 PUSH4 0xD2AA789F EQ PUSH2 0x25C JUMPI DUP1 PUSH4 0xD978FFBA EQ PUSH2 0x22F JUMPI DUP1 PUSH4 0xDDCA3F43 EQ PUSH2 0x212 JUMPI PUSH4 0xFF1225D9 EQ PUSH2 0x1D1 JUMPI PUSH0 DUP1 REVERT JUMPDEST CALLVALUE PUSH2 0x20E JUMPI PUSH1 0x20 CALLDATASIZE PUSH1 0x3 NOT ADD SLT PUSH2 0x20E JUMPI PUSH1 0x1 PUSH1 0x1 PUSH1 0xA0 SHL SUB PUSH2 0x1F2 PUSH2 0x2496 JUMP JUMPDEST AND PUSH0 MSTORE PUSH1 0x9 PUSH1 0x20 MSTORE PUSH1 0x20 PUSH1 0xFF PUSH1 0x40 PUSH0 KECCAK256 SLOAD AND PUSH1 0x40 MLOAD SWAP1 ISZERO ISZERO DUP2 MSTORE RETURN JUMPDEST PUSH0 DUP1 REVERT JUMPDEST CALLVALUE PUSH2 0x20E JUMPI PUSH0 CALLDATASIZE PUSH1 0x3 NOT ADD SLT PUSH2 0x20E JUMPI PUSH1 0x20 PUSH1 0xB SLOAD PUSH1 0x40 MLOAD SWAP1 DUP2 MSTORE RETURN JUMPDEST CALLVALUE PUSH2 0x20E JUMPI PUSH1 0x20 CALLDATASIZE PUSH1 0x3 NOT ADD SLT PUSH2 0x20E JUMPI PUSH1 0x4 CALLDATALOAD PUSH0 MSTORE PUSH1 0x6 PUSH1 0x20 MSTORE PUSH1 0x20 PUSH1 0x3 PUSH1 0x40 PUSH0 KECCAK256 ADD SLOAD PUSH1 0x40 MLOAD SWAP1 DUP2 MSTORE RETURN JUMPDEST CALLVALUE PUSH2 0x20E JUMPI PUSH0 CALLDATASIZE PUSH1 0x3 NOT ADD SLT PUSH2 0x20E JUMPI PUSH1 0x20 PUSH1 0xE SLOAD PUSH1 0x40 MLOAD SWAP1 DUP2 MSTORE RETURN JUMPDEST CALLVALUE PUSH2 0x20E JUMPI PUSH1 0x20 DUP1 PUSH1 0x3 NOT CALLDATASIZE ADD SLT PUSH2 0x20E JUMPI PUSH1 0x4 CALLDATALOAD PUSH0 DUP2 DUP2 MSTORE PUSH1 0x6 DUP4 MSTORE PUSH1 0x40 SWAP1 KECCAK256 SLOAD PUSH1 0x1 PUSH1 0x1 PUSH1 0xA0 SHL SUB AND CALLER SUB PUSH2 0x464 JUMPI DUP1 PUSH0 MSTORE PUSH1 0x6 DUP3 MSTORE PUSH1 0x1 PUSH1 0xFF PUSH1 0xA PUSH1 0x40 PUSH0 KECCAK256 ADD SLOAD AND ISZERO ISZERO SUB PUSH2 0x41F JUMPI DUP1 PUSH0 MSTORE PUSH1 0x6 DUP3 MSTORE PUSH1 0x4 PUSH1 0x40 PUSH0 KECCAK256 ADD SLOAD SWAP2 PUSH1 0x7 SLOAD SWAP1 PUSH1 0x1 DUP3 GT ISZERO PUSH2 0x3DB JUMPI PUSH0 NOT DUP3 ADD SWAP2 DUP3 GT PUSH2 0x3C7 JUMPI DUP4 DUP3 PUSH1 0x6 SWAP4 PUSH0 SWAP7 SUB PUSH2 0x330 JUMPI JUMPDEST POP POP DUP3 DUP5 MSTORE MSTORE DUP2 PUSH1 0x4 PUSH1 0x40 DUP3 KECCAK256 PUSH1 0xA DUP2 ADD PUSH1 0xFF NOT DUP2 SLOAD AND SWAP1 SSTORE ADD SSTORE PUSH2 0x31D PUSH2 0x2B2F JUMP JUMPDEST PUSH0 DUP1 MLOAD PUSH1 0x20 PUSH2 0x2C89 DUP4 CODECOPY DUP2 MLOAD SWAP2 MSTORE DUP3 DUP1 LOG3 STOP JUMPDEST PUSH32 0xF041F52DB3FD2F56A979D9DD319AA6A6E399C198410349CF154EB4B4568D7DAA SWAP2 PUSH2 0x388 PUSH2 0x360 PUSH1 0x40 SWAP4 PUSH2 0x2519 JUMP JUMPDEST SWAP1 SLOAD PUSH2 0x36B DUP5 PUSH2 0x2519 JUMP JUMPDEST SWAP2 SWAP1 SWAP3 PUSH1 0x3 SHL SHR SWAP1 DUP3 SLOAD SWAP1 PUSH1 0x3 SHL SWAP2 DUP3 SHL SWAP2 PUSH0 NOT SWAP1 SHL NOT AND OR SWAP1 SSTORE JUMP JUMPDEST PUSH2 0x391 DUP2 PUSH2 0x2519 JUMP JUMPDEST SWAP1 SLOAD SWAP1 PUSH1 0x3 SHL SHR DUP8 MSTORE DUP5 DUP5 MSTORE DUP1 PUSH1 0x4 DUP4 DUP10 KECCAK256 ADD SSTORE PUSH2 0x3AE DUP2 PUSH2 0x2519 JUMP JUMPDEST SWAP1 SLOAD SWAP1 PUSH1 0x3 SHL SHR SWAP1 DUP3 MLOAD SWAP2 DUP3 MSTORE DUP5 DUP3 ADD MSTORE LOG1 DUP5 DUP1 PUSH2 0x2FA JUMP JUMPDEST PUSH4 0x4E487B71 PUSH1 0xE0 SHL PUSH0 MSTORE PUSH1 0x11 PUSH1 0x4 MSTORE PUSH1 0x24 PUSH0 REVERT JUMPDEST PUSH1 0x64 SWAP1 PUSH1 0x40 MLOAD SWAP1 PUSH3 0x461BCD PUSH1 0xE5 SHL DUP3 MSTORE PUSH1 0x4 DUP3 ADD MSTORE PUSH1 0x1D PUSH1 0x24 DUP3 ADD MSTORE PUSH32 0x546865726520617265206E6F206163746976652050726F706F73616C73000000 PUSH1 0x44 DUP3 ADD MSTORE REVERT JUMPDEST PUSH1 0x40 MLOAD PUSH3 0x461BCD PUSH1 0xE5 SHL DUP2 MSTORE PUSH1 0x4 DUP2 ADD DUP4 SWAP1 MSTORE PUSH1 0x1B PUSH1 0x24 DUP3 ADD MSTORE PUSH32 0x546869732070726F706F73616C206973206E6F74206163746976650000000000 PUSH1 0x44 DUP3 ADD MSTORE PUSH1 0x64 SWAP1 REVERT JUMPDEST PUSH1 0x40 MLOAD PUSH3 0x461BCD PUSH1 0xE5 SHL DUP2 MSTORE PUSH1 0x4 DUP2 ADD DUP4 SWAP1 MSTORE PUSH1 0x19 PUSH1 0x24 DUP3 ADD MSTORE PUSH25 0x5573657220646964206E6F742070726F706F73652074686973 PUSH1 0x38 SHL PUSH1 0x44 DUP3 ADD MSTORE PUSH1 0x64 SWAP1 REVERT JUMPDEST CALLVALUE PUSH2 0x20E JUMPI PUSH1 0x20 CALLDATASIZE PUSH1 0x3 NOT ADD SLT PUSH2 0x20E JUMPI PUSH1 0x4 CALLDATALOAD PUSH1 0x1 PUSH1 0x1 PUSH1 0x40 SHL SUB DUP2 GT PUSH2 0x20E JUMPI PUSH2 0x4D7 PUSH1 0x20 SWAP2 CALLDATASIZE SWAP1 PUSH1 0x4 ADD PUSH2 0x2441 JUMP JUMPDEST PUSH1 0x5 PUSH2 0x525 DUP4 PUSH1 0x40 MLOAD SWAP4 DUP1 MLOAD SWAP1 PUSH2 0x514 DUP4 DUP3 ADD SWAP3 PUSH2 0x4F6 DUP2 DUP10 DUP7 PUSH2 0x23FB JUMP JUMPDEST DUP8 ADD PUSH0 DUP2 MSTORE DUP8 DUP6 PUSH1 0x1 DUP1 PUSH1 0xA0 SHL SUB SWAP10 DUP11 SWAP4 SUB ADD SWAP1 KECCAK256 SLOAD AND ISZERO ISZERO PUSH2 0x2BB2 JUMP JUMPDEST PUSH1 0x40 MLOAD SWAP4 DUP5 SWAP3 DUP4 SWAP3 MLOAD SWAP3 DUP4 SWAP2 PUSH2 0x23FB JUMP JUMPDEST DUP2 ADD PUSH0 DUP2 MSTORE SUB ADD SWAP1 KECCAK256 ADD SLOAD AND PUSH1 0x40 MLOAD SWAP1 DUP2 MSTORE RETURN JUMPDEST CALLVALUE PUSH2 0x20E JUMPI PUSH1 0x40 CALLDATASIZE PUSH1 0x3 NOT ADD SLT PUSH2 0x20E JUMPI PUSH1 0x24 DUP1 CALLDATALOAD DUP1 ISZERO ISZERO SWAP2 PUSH1 0x4 CALLDATALOAD SWAP1 DUP4 DUP4 SUB PUSH2 0x20E JUMPI PUSH1 0x5 SLOAD DUP3 LT ISZERO PUSH2 0x947 JUMPI DUP2 PUSH0 MSTORE PUSH1 0x20 SWAP1 PUSH1 0x6 DUP3 MSTORE PUSH1 0x40 PUSH0 KECCAK256 SWAP1 PUSH1 0x1 SWAP2 DUP3 PUSH1 0xFF PUSH1 0xA DUP4 ADD SLOAD AND ISZERO ISZERO SUB PUSH2 0x903 JUMPI PUSH1 0x2 DUP2 ADD SLOAD SWAP2 DUP4 DUP3 ADD SWAP3 PUSH2 0x5A9 PUSH1 0x7 PUSH2 0x5A1 DUP7 PUSH2 0x29ED JUMP JUMPDEST ADD SLOAD DUP3 PUSH2 0x2A7B JUMP JUMPDEST TIMESTAMP LT ISZERO SWAP1 DUP2 PUSH2 0x8D3 JUMPI JUMPDEST POP ISZERO PUSH2 0x897 JUMPI PUSH1 0xC SLOAD PUSH1 0x40 MLOAD PUSH4 0x5848E2A3 PUSH1 0xE1 SHL DUP2 MSTORE PUSH1 0x1 PUSH1 0x1 PUSH1 0xA0 SHL SUB SWAP1 SWAP2 AND SWAP4 SWAP1 DUP7 DUP2 DUP1 PUSH2 0x5E7 DUP6 CALLER PUSH1 0x4 DUP5 ADD PUSH2 0x2A88 JUMP JUMPDEST SUB DUP2 DUP9 GAS STATICCALL DUP1 ISZERO PUSH2 0x7CD JUMPI DUP7 SWAP2 PUSH0 SWAP2 PUSH2 0x86A JUMPI JUMPDEST POP ISZERO ISZERO SUB PUSH2 0x816 JUMPI PUSH1 0x9 DUP4 ADD SWAP4 CALLER PUSH0 MSTORE DUP5 DUP8 MSTORE PUSH1 0xFF PUSH1 0x40 PUSH0 KECCAK256 SLOAD AND PUSH2 0x7D8 JUMPI DUP7 PUSH1 0x40 MLOAD DUP1 SWAP3 PUSH4 0x2B5DF59 PUSH1 0xE0 SHL DUP3 MSTORE DUP2 DUP1 PUSH2 0x63A DUP8 CALLER PUSH1 0x4 DUP5 ADD PUSH2 0x2A88 JUMP JUMPDEST SUB SWAP2 GAS STATICCALL SWAP1 DUP2 ISZERO PUSH2 0x7CD JUMPI PUSH0 SWAP2 PUSH2 0x7A0 JUMPI JUMPDEST POP PUSH1 0x2 PUSH2 0x658 DUP4 PUSH2 0x29ED JUMP JUMPDEST ADD SLOAD DUP2 SLT PUSH2 0x75C JUMPI PUSH1 0x3 PUSH2 0x66B DUP4 PUSH2 0x29ED JUMP JUMPDEST ADD SLOAD DUP2 SGT ISZERO PUSH2 0x754 JUMPI POP PUSH2 0x680 PUSH1 0x3 SWAP2 PUSH2 0x29ED JUMP JUMPDEST ADD SLOAD SWAP7 JUMPDEST ISZERO PUSH2 0x705 JUMPI PUSH1 0x5 DUP3 ADD DUP1 SLOAD SWAP2 DUP6 DUP4 ADD DUP1 SWAP4 GT PUSH2 0x6F2 JUMPI POP SWAP2 PUSH1 0x7 SWAP2 PUSH32 0x7C2DE587C00D75474A0C6C6FA96FD3B45DC974CD4E8A75F712BB84C950DCE1B5 SWAP7 SWAP6 SWAP5 SWAP4 SSTORE ADD PUSH2 0x6D1 DUP8 DUP3 SLOAD PUSH2 0x2A7B JUMP JUMPDEST SWAP1 SSTORE JUMPDEST CALLER PUSH0 MSTORE DUP3 MSTORE PUSH1 0x40 PUSH0 KECCAK256 SWAP1 PUSH1 0xFF NOT DUP3 SLOAD AND OR SWAP1 SSTORE PUSH1 0x40 MLOAD SWAP4 DUP5 MSTORE CALLER SWAP4 LOG4 STOP JUMPDEST PUSH4 0x4E487B71 PUSH1 0xE0 SHL PUSH0 SWAP1 DUP2 MSTORE PUSH1 0x11 PUSH1 0x4 MSTORE REVERT JUMPDEST PUSH1 0x6 DUP3 ADD DUP1 SLOAD SWAP2 DUP6 DUP4 ADD DUP1 SWAP4 GT PUSH2 0x6F2 JUMPI POP SWAP2 PUSH1 0x8 SWAP2 PUSH32 0x7C2DE587C00D75474A0C6C6FA96FD3B45DC974CD4E8A75F712BB84C950DCE1B5 SWAP7 SWAP6 SWAP5 SWAP4 SSTORE ADD PUSH2 0x74D DUP8 DUP3 SLOAD PUSH2 0x2A7B JUMP JUMPDEST SWAP1 SSTORE PUSH2 0x6D4 JUMP JUMPDEST SWAP1 POP SWAP7 PUSH2 0x684 JUMP JUMPDEST PUSH1 0x40 MLOAD PUSH3 0x461BCD PUSH1 0xE5 SHL DUP2 MSTORE PUSH1 0x4 DUP2 ADD DUP9 SWAP1 MSTORE PUSH1 0x1B DUP2 DUP6 ADD MSTORE PUSH32 0x496E73756666696369656E7420637265647320746F20766F74652E0000000000 PUSH1 0x44 DUP3 ADD MSTORE PUSH1 0x64 SWAP1 REVERT JUMPDEST SWAP1 POP DUP7 DUP2 DUP2 RETURNDATASIZE DUP4 GT PUSH2 0x7C6 JUMPI JUMPDEST PUSH2 0x7B7 DUP2 DUP4 PUSH2 0x2339 JUMP JUMPDEST DUP2 ADD SUB SLT PUSH2 0x20E JUMPI MLOAD DUP11 PUSH2 0x64C JUMP JUMPDEST POP RETURNDATASIZE PUSH2 0x7AD JUMP JUMPDEST PUSH1 0x40 MLOAD RETURNDATASIZE PUSH0 DUP3 RETURNDATACOPY RETURNDATASIZE SWAP1 REVERT JUMPDEST PUSH1 0x40 MLOAD PUSH3 0x461BCD PUSH1 0xE5 SHL DUP2 MSTORE PUSH1 0x4 DUP2 ADD DUP9 SWAP1 MSTORE PUSH1 0x17 DUP2 DUP6 ADD MSTORE PUSH23 0x2CB7BA903430BB329030B63932B0B23C903B37BA32B217 PUSH1 0x49 SHL PUSH1 0x44 DUP3 ADD MSTORE PUSH1 0x64 SWAP1 REVERT JUMPDEST PUSH1 0x40 MLOAD PUSH3 0x461BCD PUSH1 0xE5 SHL DUP2 MSTORE PUSH1 0x4 DUP2 ADD DUP8 SWAP1 MSTORE PUSH1 0x27 DUP2 DUP5 ADD MSTORE PUSH32 0x596F7520617265206E6F742061206D656D626572206F66207468697320636F6D PUSH1 0x44 DUP3 ADD MSTORE PUSH7 0x36BAB734BA3C97 PUSH1 0xC9 SHL PUSH1 0x64 DUP3 ADD MSTORE PUSH1 0x84 SWAP1 REVERT JUMPDEST PUSH2 0x88A SWAP2 POP DUP9 RETURNDATASIZE DUP11 GT PUSH2 0x890 JUMPI JUMPDEST PUSH2 0x882 DUP2 DUP4 PUSH2 0x2339 JUMP JUMPDEST DUP2 ADD SWAP1 PUSH2 0x2856 JUMP JUMPDEST DUP12 PUSH2 0x5FB JUMP JUMPDEST POP RETURNDATASIZE PUSH2 0x878 JUMP JUMPDEST DUP5 PUSH1 0x16 PUSH1 0x64 SWAP3 PUSH1 0x40 MLOAD SWAP3 PUSH3 0x461BCD PUSH1 0xE5 SHL DUP5 MSTORE PUSH1 0x4 DUP5 ADD MSTORE DUP3 ADD MSTORE PUSH22 0x4E6F742041637469766520566F74696E672054696D65 PUSH1 0x50 SHL PUSH1 0x44 DUP3 ADD MSTORE REVERT JUMPDEST PUSH2 0x8FA SWAP2 POP PUSH2 0x8EF SWAP1 PUSH1 0x7 PUSH2 0x8E7 DUP8 PUSH2 0x29ED JUMP JUMPDEST ADD SLOAD SWAP1 PUSH2 0x2A7B JUMP JUMPDEST PUSH1 0x6 PUSH2 0x8E7 DUP7 PUSH2 0x29ED JUMP JUMPDEST TIMESTAMP GT ISZERO DUP10 PUSH2 0x5B3 JUMP JUMPDEST PUSH1 0x40 MLOAD PUSH3 0x461BCD PUSH1 0xE5 SHL DUP2 MSTORE PUSH1 0x4 DUP2 ADD DUP6 SWAP1 MSTORE PUSH1 0x1C DUP2 DUP5 ADD MSTORE PUSH32 0x50726F706F73616C206973206E6F206C6F6E6765722041637469766500000000 PUSH1 0x44 DUP3 ADD MSTORE PUSH1 0x64 SWAP1 REVERT JUMPDEST PUSH1 0x64 SWAP1 PUSH1 0x18 PUSH1 0x40 MLOAD SWAP2 PUSH3 0x461BCD PUSH1 0xE5 SHL DUP4 MSTORE PUSH1 0x20 PUSH1 0x4 DUP5 ADD MSTORE DUP3 ADD MSTORE PUSH24 0x283937B837B9B0B6103237B2B9903737BA1032BC34B9BA17 PUSH1 0x41 SHL PUSH1 0x44 DUP3 ADD MSTORE REVERT JUMPDEST CALLVALUE PUSH2 0x20E JUMPI PUSH1 0x40 CALLDATASIZE PUSH1 0x3 NOT ADD SLT PUSH2 0x20E JUMPI PUSH1 0x4 CALLDATALOAD PUSH1 0x1 PUSH1 0x1 PUSH1 0x40 SHL SUB DUP2 GT PUSH2 0x20E JUMPI PUSH2 0x9B6 SWAP1 CALLDATASIZE SWAP1 PUSH1 0x4 ADD PUSH2 0x2441 JUMP JUMPDEST PUSH2 0x9D2 PUSH1 0x20 PUSH1 0x24 CALLDATALOAD SWAP3 DUP2 PUSH1 0x40 MLOAD SWAP4 DUP3 DUP6 DUP1 SWAP5 MLOAD SWAP4 DUP5 SWAP3 ADD PUSH2 0x23FB JUMP JUMPDEST DUP2 ADD PUSH1 0x8 DUP2 MSTORE SUB ADD SWAP1 KECCAK256 DUP1 SLOAD DUP3 LT ISZERO PUSH2 0x20E JUMPI PUSH1 0x20 SWAP2 PUSH2 0x9F1 SWAP2 PUSH2 0x2531 JUMP JUMPDEST SWAP1 SLOAD PUSH1 0x40 MLOAD SWAP2 PUSH1 0x3 SHL SHR DUP2 MSTORE RETURN JUMPDEST CALLVALUE PUSH2 0x20E JUMPI PUSH1 0x20 CALLDATASIZE PUSH1 0x3 NOT ADD SLT PUSH2 0x20E JUMPI PUSH1 0x4 CALLDATALOAD PUSH0 MSTORE PUSH1 0x6 PUSH1 0x20 MSTORE PUSH1 0x20 PUSH1 0x4 PUSH1 0x40 PUSH0 KECCAK256 ADD SLOAD PUSH1 0x40 MLOAD SWAP1 DUP2 MSTORE RETURN JUMPDEST CALLVALUE PUSH2 0x20E JUMPI PUSH1 0x20 CALLDATASIZE PUSH1 0x3 NOT ADD SLT PUSH2 0x20E JUMPI PUSH1 0x4 CALLDATALOAD PUSH1 0x1 PUSH1 0x1 PUSH1 0x40 SHL SUB DUP2 GT PUSH2 0x20E JUMPI PUSH2 0xA5E PUSH1 0x20 SWAP2 CALLDATASIZE SWAP1 PUSH1 0x4 ADD PUSH2 0x2441 JUMP JUMPDEST PUSH2 0xA99 DUP3 PUSH1 0x40 MLOAD SWAP3 DUP1 MLOAD SWAP1 PUSH2 0x514 DUP4 DUP3 ADD SWAP3 PUSH2 0xA7B DUP2 DUP9 DUP7 PUSH2 0x23FB JUMP JUMPDEST DUP7 ADD PUSH0 DUP2 MSTORE DUP7 DUP6 PUSH1 0x1 DUP1 PUSH1 0xA0 SHL SUB SWAP9 DUP10 SWAP4 SUB ADD SWAP1 KECCAK256 SLOAD AND ISZERO ISZERO PUSH2 0x2BB2 JUMP JUMPDEST DUP2 ADD PUSH0 DUP2 MSTORE SUB ADD SWAP1 KECCAK256 SLOAD AND PUSH1 0x40 MLOAD SWAP1 DUP2 MSTORE RETURN JUMPDEST PUSH2 0xAB5 CALLDATASIZE PUSH2 0x24AC JUMP JUMPDEST PUSH1 0x40 MLOAD DUP3 MLOAD SWAP1 PUSH1 0x20 SWAP4 PUSH2 0xAEE DUP6 DUP3 ADD SWAP4 PUSH2 0xAD0 DUP2 DUP6 DUP8 PUSH2 0x23FB JUMP JUMPDEST DUP4 ADD PUSH0 DUP2 MSTORE DUP4 DUP8 PUSH1 0x1 DUP1 PUSH1 0xA0 SHL SUB SWAP6 DUP7 SWAP4 SUB ADD SWAP1 KECCAK256 SLOAD AND ISZERO ISZERO PUSH2 0x27A2 JUMP JUMPDEST ORIGIN PUSH0 MSTORE PUSH1 0x9 DUP6 MSTORE PUSH2 0xB06 PUSH1 0xFF PUSH1 0x40 PUSH0 KECCAK256 SLOAD AND ISZERO PUSH2 0x27E8 JUMP JUMPDEST DUP2 PUSH1 0xC SLOAD AND SWAP1 PUSH1 0x40 MLOAD PUSH4 0x5848E2A3 PUSH1 0xE1 SHL DUP2 MSTORE DUP7 DUP2 DUP1 PUSH2 0xB2A DUP6 ORIGIN PUSH1 0x4 DUP5 ADD PUSH2 0x286E JUMP JUMPDEST SUB DUP2 DUP7 GAS STATICCALL SWAP1 DUP2 ISZERO PUSH2 0x7CD JUMPI PUSH2 0xB4D SWAP2 PUSH1 0x1 SWAP2 PUSH0 SWAP2 PUSH2 0xD74 JUMPI JUMPDEST POP ISZERO ISZERO EQ PUSH2 0x2893 JUMP JUMPDEST DUP6 PUSH1 0x40 MLOAD DUP1 SWAP4 PUSH4 0x2B5DF59 PUSH1 0xE0 SHL DUP3 MSTORE DUP2 DUP1 PUSH2 0xB6D DUP7 ORIGIN PUSH1 0x4 DUP5 ADD PUSH2 0x286E JUMP JUMPDEST SUB SWAP2 GAS STATICCALL DUP1 ISZERO PUSH2 0x7CD JUMPI DUP7 SWAP3 PUSH0 SWAP2 PUSH2 0xD42 JUMPI JUMPDEST POP PUSH2 0xBAB SWAP1 PUSH1 0x1 PUSH1 0x40 MLOAD DUP6 DUP2 DUP7 MLOAD PUSH2 0xB99 DUP2 DUP4 DUP14 PUSH2 0x23FB JUMP JUMPDEST DUP2 ADD PUSH0 DUP2 MSTORE SUB ADD SWAP1 KECCAK256 ADD SLOAD SGT ISZERO PUSH2 0x28F0 JUMP JUMPDEST PUSH2 0xBB8 PUSH1 0xB SLOAD CALLVALUE EQ PUSH2 0x293C JUMP JUMPDEST PUSH1 0x5 SWAP5 DUP6 SLOAD PUSH0 MSTORE PUSH1 0x6 DUP4 MSTORE PUSH2 0xC72 PUSH1 0x40 PUSH0 KECCAK256 SWAP3 PUSH2 0xC63 DUP6 PUSH1 0xA PUSH1 0x1 DUP1 PUSH1 0xA0 SHL SUB NOT SWAP7 ORIGIN DUP9 DUP3 SLOAD AND OR DUP2 SSTORE PUSH2 0xBEF DUP6 PUSH1 0x1 DUP4 ADD PUSH2 0x267A JUMP JUMPDEST TIMESTAMP PUSH1 0x2 DUP3 ADD SSTORE PUSH1 0x7 SLOAD PUSH1 0x4 DUP3 ADD SSTORE PUSH1 0x2 PUSH1 0x3 DUP3 ADD SSTORE ADD SWAP9 PUSH1 0xFF NOT SWAP10 PUSH1 0x1 DUP12 DUP3 SLOAD AND OR SWAP1 SSTORE DUP11 SLOAD SWAP4 PUSH2 0xC1F DUP2 PUSH2 0x2782 JUMP JUMPDEST PUSH1 0x40 MLOAD TIMESTAMP DUP2 MSTORE PUSH1 0x2 DUP6 DUP3 ADD MSTORE DUP7 PUSH32 0x6C98A8C940418B35614F0CD02412D5C9606FAFF474CBB6CDD6640BA5D1A9F06B PUSH1 0x40 CALLER SWAP4 LOG4 PUSH1 0x40 MLOAD SWAP4 DUP5 SWAP3 DUP4 SWAP3 MLOAD SWAP3 DUP4 SWAP2 PUSH2 0x23FB JUMP JUMPDEST DUP2 ADD PUSH1 0x8 DUP2 MSTORE SUB ADD SWAP1 KECCAK256 PUSH2 0x29BC JUMP JUMPDEST DUP6 SLOAD PUSH0 MSTORE PUSH1 0x4 DUP4 MSTORE DUP4 PUSH1 0x40 PUSH0 KECCAK256 SWAP2 AND DUP1 SWAP3 DUP3 SLOAD AND OR SWAP1 SSTORE PUSH1 0x24 DUP6 SLOAD PUSH1 0x40 MLOAD SWAP5 DUP6 SWAP4 DUP5 SWAP3 ORIGIN SWAP2 PUSH32 0x6A319039CAA9A0B231FC1A3D10D617C656E322EBAC0D326E9D0C95CBDE9248A4 PUSH0 DUP1 LOG4 PUSH1 0xD SLOAD PUSH4 0x3DE5599D PUSH1 0xE1 SHL DUP4 MSTORE ADDRESS PUSH1 0x4 DUP5 ADD MSTORE CALLVALUE SWAP2 AND GAS CALL SWAP1 DUP2 ISZERO PUSH2 0x7CD JUMPI PUSH0 SWAP2 PUSH2 0xD25 JUMPI JUMPDEST POP ISZERO PUSH2 0x20E JUMPI CALLER PUSH0 MSTORE PUSH1 0x9 DUP4 MSTORE PUSH1 0x1 PUSH1 0x40 PUSH0 KECCAK256 SWAP2 DUP3 SLOAD AND OR SWAP1 SSTORE PUSH2 0xD05 DUP2 SLOAD PUSH2 0x2981 JUMP JUMPDEST PUSH2 0xD0F DUP2 SLOAD PUSH2 0x29DF JUMP JUMPDEST DUP1 SWAP2 SSTORE PUSH0 NOT DUP2 ADD SWAP1 DUP2 GT PUSH2 0x3C7 JUMPI PUSH1 0x40 MLOAD SWAP1 DUP2 MSTORE RETURN JUMPDEST PUSH2 0xD3C SWAP2 POP DUP5 RETURNDATASIZE DUP7 GT PUSH2 0x890 JUMPI PUSH2 0x882 DUP2 DUP4 PUSH2 0x2339 JUMP JUMPDEST DUP5 PUSH2 0xCE1 JUMP JUMPDEST DUP4 DUP2 SWAP5 SWAP3 POP RETURNDATASIZE DUP4 GT PUSH2 0xD6D JUMPI JUMPDEST PUSH2 0xD59 DUP2 DUP4 PUSH2 0x2339 JUMP JUMPDEST DUP2 ADD SUB SLT PUSH2 0x20E JUMPI PUSH2 0xBAB DUP7 SWAP3 MLOAD SWAP1 PUSH2 0xB80 JUMP JUMPDEST POP RETURNDATASIZE PUSH2 0xD4F JUMP JUMPDEST PUSH2 0xD8B SWAP2 POP DUP10 RETURNDATASIZE DUP12 GT PUSH2 0x890 JUMPI PUSH2 0x882 DUP2 DUP4 PUSH2 0x2339 JUMP JUMPDEST DUP10 PUSH2 0xB44 JUMP JUMPDEST CALLVALUE PUSH2 0x20E JUMPI PUSH1 0x20 DUP1 PUSH1 0x3 NOT CALLDATASIZE ADD SLT PUSH2 0x20E JUMPI PUSH1 0x4 CALLDATALOAD SWAP1 PUSH1 0x1 PUSH1 0x1 PUSH1 0x40 SHL SUB DUP3 GT PUSH2 0x20E JUMPI PUSH2 0xDC5 PUSH1 0xE0 SWAP3 CALLDATASIZE SWAP1 PUSH1 0x4 ADD PUSH2 0x2441 JUMP JUMPDEST SWAP1 PUSH1 0x40 MLOAD SWAP2 PUSH2 0xDFE DUP2 MLOAD SWAP4 DUP4 DUP4 ADD SWAP5 PUSH2 0xDDF DUP2 DUP4 DUP9 PUSH2 0x23FB JUMP JUMPDEST PUSH0 SWAP1 DUP3 ADD SWAP1 DUP2 MSTORE DUP2 SWAP1 SUB DUP5 ADD SWAP1 KECCAK256 SLOAD PUSH1 0x1 PUSH1 0x1 PUSH1 0xA0 SHL SUB AND ISZERO ISZERO PUSH2 0x2BB2 JUMP JUMPDEST PUSH1 0x1 PUSH1 0x40 MLOAD DUP4 DUP2 DUP5 MLOAD PUSH2 0xE12 DUP2 DUP4 DUP11 PUSH2 0x23FB JUMP JUMPDEST DUP2 ADD PUSH0 DUP2 MSTORE SUB ADD SWAP1 KECCAK256 ADD SLOAD SWAP3 PUSH1 0x2 PUSH1 0x40 MLOAD DUP5 DUP2 DUP6 MLOAD PUSH2 0xE32 DUP2 DUP4 DUP9 PUSH2 0x23FB JUMP JUMPDEST DUP2 ADD PUSH0 DUP2 MSTORE SUB ADD SWAP1 KECCAK256 ADD SLOAD PUSH1 0x3 PUSH1 0x40 MLOAD DUP6 DUP2 DUP7 MLOAD PUSH2 0xE51 DUP2 DUP4 DUP10 PUSH2 0x23FB JUMP JUMPDEST DUP2 ADD PUSH0 DUP2 MSTORE SUB ADD SWAP1 KECCAK256 ADD SLOAD PUSH1 0x4 PUSH1 0x40 MLOAD DUP7 DUP2 DUP8 MLOAD PUSH2 0xE70 DUP2 DUP4 DUP11 PUSH2 0x23FB JUMP JUMPDEST DUP2 ADD PUSH0 DUP2 MSTORE SUB ADD SWAP1 KECCAK256 ADD SLOAD SWAP2 PUSH1 0xFF PUSH1 0x8 PUSH2 0xEDA DUP9 PUSH1 0x6 PUSH2 0xE9D DUP3 DUP11 DUP13 PUSH1 0x40 MLOAD SWAP4 DUP5 SWAP3 DUP4 SWAP3 MLOAD SWAP3 DUP4 SWAP2 PUSH2 0x23FB JUMP JUMPDEST DUP2 ADD PUSH0 DUP2 MSTORE SUB ADD SWAP1 KECCAK256 ADD SLOAD SWAP8 PUSH1 0x7 PUSH1 0x40 MLOAD DUP4 DUP2 DUP14 MLOAD PUSH2 0xEBD DUP2 DUP4 DUP9 PUSH2 0x23FB JUMP JUMPDEST DUP2 ADD PUSH0 DUP2 MSTORE SUB ADD SWAP1 KECCAK256 ADD SLOAD SWAP10 PUSH1 0x40 MLOAD SWAP4 DUP5 SWAP3 DUP4 SWAP3 MLOAD SWAP3 DUP4 SWAP2 PUSH2 0x23FB JUMP JUMPDEST DUP2 ADD PUSH0 DUP2 MSTORE SUB ADD SWAP1 KECCAK256 ADD SLOAD AND SWAP6 PUSH1 0x40 MLOAD SWAP8 DUP9 MSTORE DUP8 ADD MSTORE PUSH1 0x40 DUP7 ADD MSTORE PUSH1 0x60 DUP6 ADD MSTORE PUSH1 0x80 DUP5 ADD MSTORE PUSH1 0xA0 DUP4 ADD MSTORE ISZERO ISZERO PUSH1 0xC0 DUP3 ADD MSTORE RETURN JUMPDEST CALLVALUE PUSH2 0x20E JUMPI PUSH1 0x20 CALLDATASIZE PUSH1 0x3 NOT ADD SLT PUSH2 0x20E JUMPI PUSH2 0xF33 PUSH1 0x1 DUP1 PUSH1 0xA0 SHL SUB PUSH1 0xA SLOAD AND CALLER EQ PUSH2 0x2B6D JUMP JUMPDEST PUSH1 0x4 CALLDATALOAD PUSH1 0x3 SSTORE STOP JUMPDEST CALLVALUE PUSH2 0x20E JUMPI PUSH1 0x20 CALLDATASIZE PUSH1 0x3 NOT ADD SLT PUSH2 0x20E JUMPI PUSH1 0x4 CALLDATALOAD PUSH0 MSTORE PUSH1 0x4 PUSH1 0x20 MSTORE PUSH1 0x20 PUSH1 0x1 DUP1 PUSH1 0xA0 SHL SUB PUSH1 0x40 PUSH0 KECCAK256 SLOAD AND PUSH1 0x40 MLOAD SWAP1 DUP2 MSTORE RETURN JUMPDEST CALLVALUE PUSH2 0x20E JUMPI PUSH0 CALLDATASIZE PUSH1 0x3 NOT ADD SLT PUSH2 0x20E JUMPI PUSH1 0xD SLOAD PUSH1 0x40 MLOAD PUSH1 0x1 PUSH1 0x1 PUSH1 0xA0 SHL SUB SWAP1 SWAP2 AND DUP2 MSTORE PUSH1 0x20 SWAP1 RETURN JUMPDEST CALLVALUE PUSH2 0x20E JUMPI PUSH1 0x20 CALLDATASIZE PUSH1 0x3 NOT ADD SLT PUSH2 0x20E JUMPI PUSH2 0xFBB PUSH1 0x1 DUP1 PUSH1 0xA0 SHL SUB PUSH1 0xA SLOAD AND CALLER EQ PUSH2 0x2B6D JUMP JUMPDEST PUSH1 0x4 CALLDATALOAD PUSH1 0x5 SSTORE STOP JUMPDEST CALLVALUE PUSH2 0x20E JUMPI PUSH1 0x20 CALLDATASIZE PUSH1 0x3 NOT ADD SLT PUSH2 0x20E JUMPI PUSH2 0xFDC PUSH2 0x2496 JUMP JUMPDEST PUSH1 0xA SLOAD PUSH1 0x1 PUSH1 0x1 PUSH1 0xA0 SHL SUB SWAP2 SWAP1 PUSH2 0xFF6 SWAP1 DUP4 AND CALLER EQ PUSH2 0x2B6D JUMP JUMPDEST AND PUSH1 0x1 DUP1 PUSH1 0xA0 SHL SUB NOT PUSH1 0xC SLOAD AND OR PUSH1 0xC SSTORE PUSH0 DUP1 RETURN JUMPDEST CALLVALUE PUSH2 0x20E JUMPI PUSH1 0x40 CALLDATASIZE PUSH1 0x3 NOT ADD SLT PUSH2 0x20E JUMPI PUSH1 0x4 CALLDATALOAD PUSH2 0x1028 DUP2 PUSH2 0x2C11 JUMP JUMPDEST SWAP1 PUSH0 PUSH2 0x1036 DUP3 PUSH1 0x24 CALLDATALOAD PUSH2 0x2C43 JUMP JUMPDEST SWAP1 PUSH2 0x1041 DUP4 DUP4 PUSH2 0x2A7B JUMP JUMPDEST SWAP1 PUSH1 0x7 SLOAD SWAP3 DUP4 DUP4 GT PUSH2 0x10A9 JUMPI JUMPDEST SWAP1 JUMPDEST DUP3 DUP3 LT PUSH2 0x1076 JUMPI DUP6 PUSH2 0x1062 DUP7 DUP7 PUSH2 0x2C6A JUMP JUMPDEST SWAP1 PUSH2 0x1072 PUSH1 0x40 MLOAD SWAP3 DUP4 SWAP3 DUP4 PUSH2 0x25F7 JUMP JUMPDEST SUB SWAP1 RETURN JUMPDEST PUSH2 0x109D PUSH2 0x10A3 SWAP2 PUSH2 0x1086 DUP5 PUSH2 0x2519 JUMP JUMPDEST SWAP1 SLOAD SWAP1 PUSH1 0x3 SHL SHR PUSH2 0x1097 DUP3 DUP11 PUSH2 0x2C56 JUMP JUMPDEST MSTORE PUSH2 0x29DF JUMP JUMPDEST SWAP2 PUSH2 0x29DF JUMP JUMPDEST SWAP1 PUSH2 0x1050 JUMP JUMPDEST DUP4 SWAP3 POP PUSH2 0x104E JUMP JUMPDEST CALLVALUE PUSH2 0x20E JUMPI PUSH1 0x20 CALLDATASIZE PUSH1 0x3 NOT ADD SLT PUSH2 0x20E JUMPI PUSH1 0x4 CALLDATALOAD PUSH0 MSTORE PUSH1 0x2 PUSH1 0x20 MSTORE PUSH1 0x40 PUSH0 KECCAK256 DUP1 SLOAD PUSH2 0x1072 PUSH1 0x1 DUP4 ADD SLOAD SWAP3 PUSH1 0x2 DUP2 ADD SLOAD SWAP1 PUSH1 0x3 DUP2 ADD SLOAD PUSH1 0x1 DUP1 PUSH1 0xA0 SHL SUB PUSH1 0x4 DUP4 ADD SLOAD AND PUSH1 0x5 DUP4 ADD SLOAD SWAP2 PUSH1 0xFF PUSH1 0x7 PUSH1 0x6 DUP7 ADD SLOAD SWAP6 ADD SLOAD AND SWAP5 PUSH1 0x40 MLOAD SWAP9 DUP10 SWAP9 DUP10 PUSH2 0x2639 JUMP JUMPDEST CALLVALUE PUSH2 0x20E JUMPI PUSH1 0x20 CALLDATASIZE PUSH1 0x3 NOT ADD SLT PUSH2 0x20E JUMPI PUSH1 0x4 CALLDATALOAD PUSH1 0x1 PUSH1 0x1 PUSH1 0x40 SHL SUB DUP2 GT PUSH2 0x20E JUMPI PUSH2 0x1145 PUSH1 0x20 SWAP2 CALLDATASIZE SWAP1 PUSH1 0x4 ADD PUSH2 0x2441 JUMP JUMPDEST DUP2 PUSH2 0x1159 PUSH1 0x40 MLOAD SWAP3 DUP4 DUP2 MLOAD SWAP4 DUP5 SWAP3 ADD PUSH2 0x23FB JUMP JUMPDEST PUSH0 SWAP1 DUP3 ADD SWAP1 DUP2 MSTORE DUP2 SWAP1 SUB DUP3 ADD SWAP1 KECCAK256 SLOAD PUSH1 0x40 MLOAD PUSH1 0x1 PUSH1 0x1 PUSH1 0xA0 SHL SUB SWAP1 SWAP2 AND ISZERO ISZERO DUP2 MSTORE RETURN JUMPDEST CALLVALUE PUSH2 0x20E JUMPI PUSH1 0x60 CALLDATASIZE PUSH1 0x3 NOT ADD SLT PUSH2 0x20E JUMPI PUSH1 0x4 CALLDATALOAD PUSH1 0x1 PUSH1 0x1 PUSH1 0x40 SHL SUB DUP2 GT PUSH2 0x20E JUMPI PUSH2 0x11AC SWAP1 CALLDATASIZE SWAP1 PUSH1 0x4 ADD PUSH2 0x2441 JUMP JUMPDEST PUSH1 0x24 CALLDATALOAD PUSH2 0x11B8 DUP2 PUSH2 0x2C11 JUMP JUMPDEST SWAP2 PUSH0 PUSH2 0x11C6 DUP4 PUSH1 0x44 CALLDATALOAD PUSH2 0x2C43 JUMP JUMPDEST SWAP2 PUSH2 0x11D1 DUP5 DUP5 PUSH2 0x2A7B JUMP JUMPDEST SWAP1 PUSH1 0x40 MLOAD SWAP2 DUP2 MLOAD SWAP4 PUSH1 0x20 SWAP6 DUP7 DUP5 ADD SWAP6 PUSH2 0x11EB DUP2 DUP8 DUP10 PUSH2 0x23FB JUMP JUMPDEST DUP6 ADD SWAP5 DUP8 DUP2 PUSH1 0x8 SWAP8 DUP9 DUP2 MSTORE SUB ADD SWAP1 KECCAK256 SLOAD DUP4 GT PUSH2 0x127D JUMPI JUMPDEST SWAP1 JUMPDEST DUP3 DUP3 LT PUSH2 0x1237 JUMPI DUP9 PUSH2 0x1062 DUP10 PUSH2 0x1228 DUP11 DUP11 DUP11 DUP11 PUSH1 0x40 MLOAD SWAP5 DUP6 SWAP4 DUP5 SWAP3 MLOAD SWAP3 DUP4 SWAP2 PUSH2 0x23FB JUMP JUMPDEST DUP3 ADD SWAP1 DUP2 MSTORE SUB ADD SWAP1 KECCAK256 SLOAD PUSH2 0x2C6A JUMP JUMPDEST PUSH2 0x109D PUSH2 0x1277 SWAP2 PUSH2 0x1266 DUP5 PUSH2 0x1258 DUP12 DUP12 PUSH1 0x40 MLOAD DUP1 SWAP4 DUP2 SWAP3 DUP14 MLOAD SWAP3 DUP4 SWAP2 PUSH2 0x23FB JUMP JUMPDEST DUP2 ADD DUP13 DUP2 MSTORE SUB ADD SWAP1 KECCAK256 PUSH2 0x2531 JUMP JUMPDEST SWAP1 SLOAD SWAP1 PUSH1 0x3 SHL SHR PUSH2 0x1097 DUP3 DUP14 PUSH2 0x2C56 JUMP JUMPDEST SWAP1 PUSH2 0x1204 JUMP JUMPDEST SWAP2 POP PUSH1 0x40 MLOAD DUP7 DUP2 DUP6 MLOAD PUSH2 0x1291 DUP2 DUP4 DUP12 PUSH2 0x23FB JUMP JUMPDEST DUP2 ADD DUP8 DUP2 MSTORE SUB ADD SWAP1 KECCAK256 SLOAD SWAP2 PUSH2 0x1202 JUMP JUMPDEST CALLVALUE PUSH2 0x20E JUMPI PUSH2 0x12AF CALLDATASIZE PUSH2 0x25AE JUMP JUMPDEST POP POP PUSH0 DUP1 PUSH1 0x7 DUP1 SLOAD SWAP1 DUP2 PUSH2 0x131D JUMPI JUMPDEST POP POP PUSH1 0x40 MLOAD SWAP1 PUSH1 0x20 DUP3 ADD MSTORE PUSH1 0x20 DUP2 MSTORE PUSH1 0x40 DUP2 ADD SWAP2 DUP2 DUP4 LT PUSH1 0x1 PUSH1 0x1 PUSH1 0x40 SHL SUB DUP5 GT OR PUSH2 0x1309 JUMPI DUP3 PUSH1 0x40 MSTORE ISZERO ISZERO DUP3 MSTORE PUSH1 0x40 PUSH1 0x60 DUP3 ADD MSTORE PUSH1 0x3F NOT SWAP1 PUSH2 0x1304 PUSH1 0x80 DUP3 ADD DUP3 PUSH2 0x241C JUMP JUMPDEST SUB ADD SWAP1 RETURN JUMPDEST PUSH4 0x4E487B71 PUSH1 0xE0 SHL PUSH0 MSTORE PUSH1 0x41 PUSH1 0x4 MSTORE PUSH1 0x24 PUSH0 REVERT JUMPDEST PUSH0 SWAP1 PUSH1 0x1 JUMPDEST DUP4 DUP2 LT PUSH2 0x1330 JUMPI POP POP PUSH2 0x12BE JUMP JUMPDEST PUSH2 0x1339 DUP2 PUSH2 0x2519 JUMP JUMPDEST SWAP1 SLOAD PUSH1 0x3 SWAP2 DUP3 SHL SHR PUSH0 MSTORE PUSH2 0x13A0 PUSH1 0x6 PUSH1 0x20 SWAP1 DUP1 DUP3 MSTORE DUP1 PUSH2 0x137E PUSH1 0x2 PUSH1 0x40 PUSH0 KECCAK256 ADD SLOAD PUSH2 0x1363 DUP9 PUSH2 0x2519 JUMP JUMPDEST SWAP1 SLOAD SWAP1 DUP9 SHL SHR PUSH0 MSTORE DUP3 DUP6 MSTORE DUP9 PUSH2 0x8E7 PUSH1 0x1 PUSH1 0x40 PUSH0 KECCAK256 ADD PUSH2 0x29ED JUMP JUMPDEST SWAP3 PUSH2 0x1388 DUP8 PUSH2 0x2519 JUMP JUMPDEST SWAP1 SLOAD SWAP1 DUP8 SHL SHR PUSH0 MSTORE MSTORE PUSH2 0x8E7 PUSH1 0x1 PUSH1 0x40 PUSH0 KECCAK256 ADD PUSH2 0x29ED JUMP JUMPDEST TIMESTAMP DUP2 GT ISZERO DUP1 PUSH2 0x13E2 JUMPI JUMPDEST PUSH2 0x13BF JUMPI JUMPDEST POP POP PUSH2 0x13BA SWAP1 PUSH2 0x29DF JUMP JUMPDEST PUSH2 0x1322 JUMP JUMPDEST SWAP6 POP SWAP6 POP SWAP2 POP PUSH2 0x13BA PUSH1 0x1 SWAP6 PUSH2 0x13D4 DUP5 PUSH2 0x2519 JUMP JUMPDEST SWAP1 SLOAD SWAP2 SHL SHR SWAP5 SWAP3 SWAP1 DUP8 PUSH2 0x13AF JUMP JUMPDEST POP DUP5 DUP2 GT ISZERO DUP1 PUSH2 0x13AA JUMPI POP DUP5 ISZERO PUSH2 0x13AA JUMP JUMPDEST CALLVALUE PUSH2 0x20E JUMPI PUSH1 0x20 CALLDATASIZE PUSH1 0x3 NOT ADD SLT PUSH2 0x20E JUMPI PUSH2 0x141A PUSH1 0x1 DUP1 PUSH1 0xA0 SHL SUB PUSH1 0xA SLOAD AND CALLER EQ PUSH2 0x2B6D JUMP JUMPDEST PUSH1 0x4 CALLDATALOAD PUSH1 0xB SSTORE STOP JUMPDEST CALLVALUE PUSH2 0x20E JUMPI PUSH1 0x40 CALLDATASIZE PUSH1 0x3 NOT ADD SLT PUSH2 0x20E JUMPI PUSH1 0xA0 PUSH2 0x143D PUSH2 0x2496 JUMP JUMPDEST PUSH1 0x24 CALLDATALOAD PUSH0 MSTORE PUSH1 0x6 PUSH1 0x20 MSTORE PUSH1 0x40 PUSH0 KECCAK256 PUSH1 0x5 DUP2 ADD SLOAD SWAP2 PUSH1 0x7 DUP3 ADD SLOAD SWAP2 PUSH1 0x9 PUSH1 0x6 DUP3 ADD SLOAD SWAP2 PUSH1 0x8 DUP2 ADD SLOAD SWAP4 PUSH1 0x1 DUP1 DUP10 SHL SUB AND PUSH0 MSTORE ADD PUSH1 0x20 MSTORE PUSH1 0xFF PUSH1 0x40 PUSH0 KECCAK256 SLOAD AND SWAP3 PUSH1 0x40 MLOAD SWAP5 DUP6 MSTORE PUSH1 0x20 DUP6 ADD MSTORE PUSH1 0x40 DUP5 ADD MSTORE PUSH1 0x60 DUP4 ADD MSTORE ISZERO ISZERO PUSH1 0x80 DUP3 ADD MSTORE RETURN JUMPDEST CALLVALUE PUSH2 0x20E JUMPI PUSH2 0x14A7 CALLDATASIZE PUSH2 0x2546 JUMP JUMPDEST SWAP3 DUP3 SWAP5 SWAP2 SWAP3 SWAP9 SWAP8 SWAP6 SWAP9 SWAP2 PUSH1 0x40 MLOAD DUP10 MLOAD SWAP1 PUSH1 0x20 SWAP8 DUP9 DUP13 ADD SWAP3 PUSH2 0x14C9 DUP2 DUP5 DUP7 PUSH2 0x23FB JUMP JUMPDEST DUP3 ADD PUSH0 DUP2 MSTORE DUP3 DUP11 PUSH1 0x1 DUP1 PUSH1 0xA0 SHL SUB SWAP5 DUP6 SWAP4 SUB ADD SWAP1 KECCAK256 SLOAD AND PUSH2 0x170D JUMPI SWAP2 DUP12 DUP10 SWAP3 DUP12 DUP16 DUP15 DUP13 SWAP8 PUSH1 0x3 SLOAD DUP1 SWAP2 GT PUSH2 0x1704 JUMPI JUMPDEST POP SWAP3 PUSH1 0x8 SWAP6 SWAP3 PUSH2 0x162E SWAP6 SWAP3 PUSH2 0x1649 SWAP10 SWAP9 SWAP6 PUSH1 0x40 MLOAD DUP8 DUP2 DUP8 MLOAD PUSH2 0x151B DUP2 DUP4 DUP13 PUSH2 0x23FB JUMP JUMPDEST DUP2 ADD PUSH0 DUP2 MSTORE SUB ADD SWAP1 KECCAK256 SWAP3 PUSH1 0x1 DUP1 PUSH1 0xA0 SHL SUB NOT SWAP4 CALLER DUP6 DUP3 SLOAD AND OR SWAP1 SSTORE PUSH1 0x1 PUSH1 0x40 MLOAD DUP10 DUP2 DUP1 PUSH2 0x154C DUP13 DUP13 MLOAD SWAP3 DUP4 SWAP2 PUSH2 0x23FB JUMP JUMPDEST DUP2 ADD PUSH0 DUP2 MSTORE SUB ADD SWAP1 KECCAK256 ADD SSTORE PUSH1 0x2 PUSH1 0x40 MLOAD DUP9 DUP2 DUP9 MLOAD PUSH2 0x156B DUP2 DUP4 DUP14 PUSH2 0x23FB JUMP JUMPDEST DUP2 ADD PUSH0 DUP2 MSTORE SUB ADD SWAP1 KECCAK256 ADD SSTORE PUSH1 0x3 PUSH1 0x40 MLOAD DUP8 DUP2 DUP8 MLOAD PUSH2 0x158A DUP2 DUP4 DUP13 PUSH2 0x23FB JUMP JUMPDEST DUP2 ADD PUSH0 DUP2 MSTORE SUB ADD SWAP1 KECCAK256 ADD SSTORE DUP10 PUSH1 0x4 PUSH1 0x40 MLOAD DUP8 DUP2 DUP8 MLOAD PUSH2 0x15AA DUP2 DUP4 DUP13 PUSH2 0x23FB JUMP JUMPDEST DUP2 ADD PUSH0 DUP2 MSTORE SUB ADD SWAP1 KECCAK256 ADD SSTORE PUSH1 0x5 PUSH1 0x40 MLOAD DUP7 DUP2 DUP7 MLOAD PUSH2 0x15C9 DUP2 DUP4 DUP12 PUSH2 0x23FB JUMP JUMPDEST DUP2 ADD PUSH0 DUP2 MSTORE SUB ADD SWAP1 KECCAK256 ADD SWAP2 DUP12 AND SWAP1 DUP3 SLOAD AND OR SWAP1 SSTORE DUP10 PUSH1 0x6 PUSH1 0x40 MLOAD DUP6 DUP2 DUP6 MLOAD PUSH2 0x15F2 DUP2 DUP4 DUP11 PUSH2 0x23FB JUMP JUMPDEST DUP2 ADD PUSH0 DUP2 MSTORE SUB ADD SWAP1 KECCAK256 ADD SSTORE DUP11 PUSH1 0x7 PUSH1 0x40 MLOAD DUP6 DUP2 DUP6 MLOAD PUSH2 0x1612 DUP2 DUP4 DUP11 PUSH2 0x23FB JUMP JUMPDEST DUP2 ADD PUSH0 DUP2 MSTORE SUB ADD SWAP1 KECCAK256 ADD SSTORE PUSH1 0x40 MLOAD SWAP4 DUP5 SWAP3 DUP4 SWAP3 MLOAD SWAP3 DUP4 SWAP2 PUSH2 0x23FB JUMP JUMPDEST DUP2 ADD PUSH0 DUP2 MSTORE SUB ADD SWAP1 KECCAK256 ADD SWAP1 PUSH1 0xFF DUP1 NOT DUP4 SLOAD AND SWAP2 ISZERO ISZERO AND OR SWAP1 SSTORE JUMP JUMPDEST PUSH1 0x1 SLOAD PUSH1 0x1 PUSH1 0x40 SHL DUP2 LT ISZERO PUSH2 0x1309 JUMPI DUP1 PUSH1 0x1 PUSH2 0x1668 SWAP3 ADD PUSH1 0x1 SSTORE PUSH2 0x24ED JUMP JUMPDEST PUSH2 0x16F1 JUMPI DUP10 PUSH2 0x16EC SWAP8 PUSH2 0x169F PUSH32 0xA33E969841918D6C70510FF52AAF2F08256C371553465CDD2BEB001C23B0F504 SWAP13 PUSH2 0x16DF SWAP5 PUSH2 0x267A JUMP JUMPDEST PUSH32 0x770333F2D96FAAE538A5391FA34D7F90A88DC8AF3AADCB1735C43839CB695566 PUSH1 0x40 PUSH2 0x16CB DUP5 PUSH2 0x2782 JUMP JUMPDEST SWAP3 DUP2 MLOAD SWAP1 CALLER DUP3 MSTORE DUP12 ISZERO ISZERO SWAP1 DUP3 ADD MSTORE LOG2 PUSH2 0x2782 JUMP JUMPDEST SWAP10 PUSH1 0x40 MLOAD SWAP9 DUP10 SWAP9 DUP10 PUSH2 0x2639 JUMP JUMPDEST SUB SWAP1 LOG2 STOP JUMPDEST PUSH4 0x4E487B71 PUSH1 0xE0 SHL PUSH0 MSTORE PUSH0 PUSH1 0x4 MSTORE PUSH1 0x24 PUSH0 REVERT JUMPDEST SWAP11 POP PUSH1 0x8 PUSH2 0x14F8 JUMP JUMPDEST PUSH1 0x40 MLOAD PUSH3 0x461BCD PUSH1 0xE5 SHL DUP2 MSTORE PUSH1 0x4 DUP2 ADD DUP11 SWAP1 MSTORE PUSH1 0x19 PUSH1 0x24 DUP3 ADD MSTORE PUSH25 0x21B7B6B6BAB734BA3C9030B63932B0B23C9032BC34B9BA3997 PUSH1 0x39 SHL PUSH1 0x44 DUP3 ADD MSTORE PUSH1 0x64 SWAP1 REVERT JUMPDEST CALLVALUE PUSH2 0x20E JUMPI PUSH1 0x20 CALLDATASIZE PUSH1 0x3 NOT ADD SLT PUSH2 0x20E JUMPI PUSH1 0x4 CALLDATALOAD PUSH0 MSTORE PUSH1 0x6 PUSH1 0x20 MSTORE PUSH1 0x40 PUSH1 0xA DUP2 PUSH0 KECCAK256 ADD SLOAD PUSH1 0xFF DUP3 MLOAD SWAP2 DUP2 DUP2 AND ISZERO ISZERO DUP4 MSTORE PUSH1 0x8 SHR AND ISZERO ISZERO PUSH1 0x20 DUP3 ADD MSTORE RETURN JUMPDEST CALLVALUE PUSH2 0x20E JUMPI PUSH1 0x20 CALLDATASIZE PUSH1 0x3 NOT ADD SLT PUSH2 0x20E JUMPI PUSH2 0x17A4 PUSH2 0x2496 JUMP JUMPDEST PUSH1 0xA SLOAD PUSH1 0x1 PUSH1 0x1 PUSH1 0xA0 SHL SUB SWAP2 SWAP1 PUSH2 0x17BE SWAP1 DUP4 AND CALLER EQ PUSH2 0x2B6D JUMP JUMPDEST AND PUSH1 0x1 DUP1 PUSH1 0xA0 SHL SUB NOT PUSH1 0xD SLOAD AND OR PUSH1 0xD SSTORE PUSH0 DUP1 RETURN JUMPDEST CALLVALUE PUSH2 0x20E JUMPI PUSH1 0x20 CALLDATASIZE PUSH1 0x3 NOT ADD SLT PUSH2 0x20E JUMPI PUSH2 0x17F9 PUSH1 0x1 DUP1 PUSH1 0xA0 SHL SUB PUSH1 0xA SLOAD AND CALLER EQ PUSH2 0x2B6D JUMP JUMPDEST PUSH1 0x4 CALLDATALOAD PUSH1 0xE SSTORE STOP JUMPDEST CALLVALUE PUSH2 0x20E JUMPI PUSH0 CALLDATASIZE PUSH1 0x3 NOT ADD SLT PUSH2 0x20E JUMPI PUSH1 0x20 PUSH1 0x7 SLOAD PUSH1 0x40 MLOAD SWAP1 DUP2 MSTORE RETURN JUMPDEST CALLVALUE PUSH2 0x20E JUMPI PUSH2 0x182C CALLDATASIZE PUSH2 0x25AE JUMP JUMPDEST DUP2 SWAP1 PUSH1 0x20 SWAP3 DUP4 SWAP2 DUP2 ADD SUB SLT PUSH2 0x20E JUMPI CALLDATALOAD SWAP1 DUP2 PUSH0 MSTORE PUSH1 0x6 SWAP2 DUP3 DUP3 MSTORE PUSH1 0x40 PUSH0 KECCAK256 PUSH1 0x2 SWAP1 PUSH2 0x187B PUSH2 0x1866 DUP4 DUP4 ADD SLOAD PUSH1 0x7 PUSH2 0x8E7 PUSH1 0x1 DUP1 SWAP7 ADD PUSH2 0x29ED JUMP JUMPDEST DUP5 PUSH0 MSTORE DUP7 DUP7 MSTORE DUP7 PUSH2 0x8E7 DUP5 PUSH1 0x40 PUSH0 KECCAK256 ADD PUSH2 0x29ED JUMP JUMPDEST DUP4 ISZERO ISZERO SWAP1 DUP2 PUSH2 0x1B78 JUMPI JUMPDEST DUP2 PUSH2 0x1B6E JUMPI JUMPDEST POP PUSH2 0x1892 JUMPI STOP JUMPDEST DUP3 PUSH0 MSTORE DUP5 DUP5 MSTORE PUSH1 0x40 PUSH0 KECCAK256 SWAP2 PUSH1 0x5 DUP4 ADD SLOAD DUP7 DUP5 ADD SLOAD DUP1 DUP3 GT SWAP2 DUP3 PUSH2 0x1B3E JUMPI JUMPDEST DUP3 PUSH2 0x1B1C JUMPI JUMPDEST POP POP ISZERO PUSH2 0x1AA8 JUMPI DUP2 PUSH1 0x3 DUP5 ADD SLOAD DUP3 DUP2 EQ PUSH0 EQ PUSH2 0x1A0E JUMPI POP POP POP DUP3 PUSH0 MSTORE PUSH1 0x4 DUP5 MSTORE DUP1 DUP4 PUSH1 0x1 DUP1 PUSH1 0xA0 SHL SUB PUSH1 0x40 PUSH0 KECCAK256 SLOAD AND PUSH32 0xCA5BE02C86F988B49C8F55FA1445E2252A5DE3AFAA608CC35DB41FEB6C22F83A PUSH0 DUP1 LOG4 JUMPDEST DUP3 PUSH0 DUP1 MLOAD PUSH1 0x20 PUSH2 0x2C89 DUP4 CODECOPY DUP2 MLOAD SWAP2 MSTORE PUSH0 DUP1 LOG3 DUP2 PUSH0 MSTORE DUP4 DUP4 MSTORE PUSH1 0xA PUSH1 0x40 PUSH0 KECCAK256 ADD PUSH2 0x100 PUSH2 0xFF00 NOT DUP3 SLOAD AND OR SWAP1 SSTORE JUMPDEST SLOAD PUSH1 0x1 PUSH1 0x1 PUSH1 0xA0 SHL SUB AND PUSH0 SWAP1 DUP2 MSTORE PUSH1 0x9 DUP4 MSTORE PUSH1 0x40 DUP1 DUP3 KECCAK256 DUP1 SLOAD PUSH1 0xFF NOT SWAP1 DUP2 AND SWAP1 SWAP2 SSTORE DUP4 DUP4 MSTORE DUP6 DUP6 MSTORE SWAP2 KECCAK256 PUSH1 0xA DUP2 ADD DUP1 SLOAD SWAP1 SWAP3 AND SWAP1 SWAP2 SSTORE PUSH1 0x4 ADD SLOAD PUSH1 0x7 SLOAD PUSH0 NOT DUP2 ADD SWAP1 DUP2 GT PUSH2 0x3C7 JUMPI DUP1 DUP3 SUB PUSH2 0x199F JUMPI JUMPDEST POP POP PUSH0 MSTORE MSTORE PUSH0 PUSH1 0x4 PUSH1 0x40 DUP3 KECCAK256 ADD SSTORE PUSH2 0x199D PUSH2 0x2B2F JUMP JUMPDEST STOP JUMPDEST PUSH32 0xF041F52DB3FD2F56A979D9DD319AA6A6E399C198410349CF154EB4B4568D7DAA SWAP2 PUSH2 0x19CF PUSH2 0x360 PUSH1 0x40 SWAP4 PUSH2 0x2519 JUMP JUMPDEST PUSH2 0x19D8 DUP2 PUSH2 0x2519 JUMP JUMPDEST SWAP1 SLOAD SWAP1 PUSH1 0x3 SHL SHR PUSH0 MSTORE DUP6 DUP6 MSTORE DUP1 PUSH1 0x4 DUP4 PUSH0 KECCAK256 ADD SSTORE PUSH2 0x19F5 DUP2 PUSH2 0x2519 JUMP JUMPDEST SWAP1 SLOAD SWAP1 PUSH1 0x3 SHL SHR SWAP1 DUP3 MLOAD SWAP2 DUP3 MSTORE DUP6 DUP3 ADD MSTORE LOG1 DUP4 DUP1 PUSH2 0x1987 JUMP JUMPDEST EQ PUSH2 0x1A1A JUMPI JUMPDEST POP PUSH2 0x190A JUMP JUMPDEST PUSH2 0x1AA2 SWAP1 PUSH1 0x8 PUSH1 0xFF PUSH1 0x7 PUSH2 0x1A2F DUP7 DUP9 ADD PUSH2 0x29ED JUMP JUMPDEST SWAP4 DUP9 PUSH0 MSTORE DUP1 DUP11 MSTORE PUSH1 0x40 PUSH0 KECCAK256 SWAP1 DUP2 SLOAD DUP9 DUP8 ADD SSTORE DUP8 DUP3 ADD SLOAD DUP2 DUP8 ADD SSTORE DUP2 ADD SLOAD PUSH1 0x3 DUP7 ADD SSTORE PUSH1 0x3 DUP2 ADD SLOAD PUSH1 0x4 DUP7 ADD SSTORE PUSH1 0x1 DUP1 PUSH1 0xA0 SHL SUB PUSH1 0x4 DUP3 ADD SLOAD AND PUSH1 0x5 DUP7 ADD SWAP1 PUSH1 0x1 DUP1 PUSH1 0xA0 SHL SUB NOT DUP3 SLOAD AND OR SWAP1 SSTORE PUSH1 0x5 DUP2 ADD SLOAD DUP12 DUP7 ADD SSTORE DUP11 DUP2 ADD SLOAD DUP3 DUP7 ADD SSTORE ADD SLOAD AND SWAP2 ADD SWAP1 PUSH1 0xFF DUP1 NOT DUP4 SLOAD AND SWAP2 ISZERO ISZERO AND OR SWAP1 SSTORE JUMP JUMPDEST DUP6 PUSH2 0x1A14 JUMP JUMPDEST SWAP1 POP DUP3 PUSH0 MSTORE DUP5 DUP5 MSTORE PUSH1 0xA PUSH1 0x40 PUSH0 KECCAK256 ADD PUSH2 0xFF00 NOT DUP2 SLOAD AND SWAP1 SSTORE PUSH0 DUP4 PUSH0 DUP1 MLOAD PUSH1 0x20 PUSH2 0x2C89 DUP4 CODECOPY DUP2 MLOAD SWAP2 MSTORE DUP3 DUP1 LOG3 PUSH1 0x3 DUP3 ADD SLOAD SUB PUSH2 0x1937 JUMPI PUSH1 0x4 DUP4 MSTORE PUSH1 0x40 PUSH0 SWAP1 DUP2 KECCAK256 SLOAD DUP4 SWAP1 PUSH1 0x1 PUSH1 0x1 PUSH1 0xA0 SHL SUB AND PUSH32 0xCA5BE02C86F988B49C8F55FA1445E2252A5DE3AFAA608CC35DB41FEB6C22F83A DUP4 DUP1 LOG4 PUSH2 0x1937 JUMP JUMPDEST PUSH2 0x1B26 SWAP3 POP PUSH2 0x2A7B JUMP JUMPDEST PUSH1 0x4 PUSH2 0x1B33 DUP5 DUP7 ADD PUSH2 0x29ED JUMP JUMPDEST ADD SLOAD GT ISZERO DUP8 DUP1 PUSH2 0x18B6 JUMP JUMPDEST SWAP2 POP PUSH1 0x7 DUP6 ADD SLOAD PUSH1 0x8 DUP7 ADD SLOAD LT DUP1 ISZERO PUSH2 0x1B58 JUMPI JUMPDEST SWAP2 PUSH2 0x18B0 JUMP JUMPDEST POP PUSH1 0x3 PUSH2 0x1B66 DUP6 DUP8 ADD PUSH2 0x29ED JUMP JUMPDEST ADD SLOAD ISZERO PUSH2 0x1B52 JUMP JUMPDEST SWAP1 POP ISZERO ISZERO DUP7 PUSH2 0x188B JUMP JUMPDEST TIMESTAMP DUP2 GT ISZERO SWAP2 POP PUSH2 0x1885 JUMP JUMPDEST CALLVALUE PUSH2 0x20E JUMPI PUSH1 0x20 CALLDATASIZE PUSH1 0x3 NOT ADD SLT PUSH2 0x20E JUMPI PUSH1 0x4 CALLDATALOAD PUSH1 0x1 PUSH1 0x1 PUSH1 0x40 SHL SUB DUP2 GT PUSH2 0x20E JUMPI PUSH1 0xFF PUSH1 0x8 PUSH2 0x1BF5 PUSH1 0x20 PUSH2 0x1BBD DUP2 SWAP6 CALLDATASIZE SWAP1 PUSH1 0x4 ADD PUSH2 0x2441 JUMP JUMPDEST PUSH1 0x40 MLOAD SWAP1 PUSH2 0x514 DUP2 MLOAD SWAP3 DUP5 DUP4 ADD SWAP4 PUSH2 0x1BD6 DUP2 DUP4 DUP8 PUSH2 0x23FB JUMP JUMPDEST PUSH0 SWAP1 DUP3 ADD SWAP1 DUP2 MSTORE DUP2 SWAP1 SUB DUP6 ADD SWAP1 KECCAK256 SLOAD PUSH1 0x1 PUSH1 0x1 PUSH1 0xA0 SHL SUB AND ISZERO ISZERO PUSH2 0x2BB2 JUMP JUMPDEST DUP2 ADD PUSH0 DUP2 MSTORE SUB ADD SWAP1 KECCAK256 ADD SLOAD AND PUSH1 0x40 MLOAD SWAP1 ISZERO ISZERO DUP2 MSTORE RETURN JUMPDEST PUSH2 0x1C14 CALLDATASIZE PUSH2 0x2546 JUMP JUMPDEST SWAP3 PUSH2 0x1C56 PUSH1 0x20 PUSH1 0x40 SWAP10 SWAP7 SWAP9 SWAP8 SWAP10 SWAP5 SWAP4 SWAP5 MLOAD PUSH2 0x1C35 DUP13 DUP3 DUP2 MLOAD SWAP5 DUP6 SWAP3 ADD PUSH2 0x23FB JUMP JUMPDEST PUSH0 SWAP2 DUP2 ADD SWAP2 DUP3 MSTORE SWAP1 DUP2 SWAP1 SUB PUSH1 0x20 ADD SWAP1 KECCAK256 SLOAD PUSH1 0x1 PUSH1 0x1 PUSH1 0xA0 SHL SUB AND ISZERO ISZERO PUSH2 0x27A2 JUMP JUMPDEST ORIGIN PUSH0 MSTORE PUSH1 0x9 PUSH1 0x20 MSTORE PUSH2 0x1C6F PUSH1 0xFF PUSH1 0x40 PUSH0 KECCAK256 SLOAD AND ISZERO PUSH2 0x27E8 JUMP JUMPDEST PUSH1 0xC SLOAD PUSH1 0x40 MLOAD PUSH4 0x5848E2A3 PUSH1 0xE1 SHL DUP2 MSTORE PUSH1 0x1 PUSH1 0x1 PUSH1 0xA0 SHL SUB SWAP1 SWAP2 AND SWAP1 PUSH1 0x20 DUP2 DUP1 PUSH2 0x1C9D DUP15 ORIGIN PUSH1 0x4 DUP5 ADD PUSH2 0x286E JUMP JUMPDEST SUB DUP2 DUP6 GAS STATICCALL SWAP1 DUP2 ISZERO PUSH2 0x7CD JUMPI PUSH2 0x1CE2 SWAP3 PUSH2 0x1CC6 PUSH1 0x1 PUSH1 0x20 SWAP5 DUP16 SWAP5 PUSH0 SWAP2 PUSH2 0x1F6C JUMPI POP ISZERO ISZERO EQ PUSH2 0x2893 JUMP JUMPDEST PUSH1 0x40 MLOAD DUP1 DUP1 SWAP6 DUP2 SWAP5 PUSH4 0x2B5DF59 PUSH1 0xE0 SHL DUP4 MSTORE ORIGIN PUSH1 0x4 DUP5 ADD PUSH2 0x286E JUMP JUMPDEST SUB SWAP2 GAS STATICCALL SWAP1 DUP2 ISZERO PUSH2 0x7CD JUMPI DUP11 SWAP1 PUSH0 SWAP3 PUSH2 0x1F2A JUMPI JUMPDEST POP SWAP8 PUSH2 0x1D3F PUSH2 0x1E75 SWAP7 SWAP6 SWAP5 SWAP4 SWAP3 PUSH1 0x1 PUSH2 0xB99 PUSH1 0x20 PUSH32 0x65513F3A4B238816F691E4322BE549C10EEAA1EF78FE116618B0D83E5CA252B6 SWAP14 DUP2 PUSH1 0x40 MLOAD SWAP4 DUP3 DUP6 DUP1 SWAP5 MLOAD SWAP4 DUP5 SWAP3 ADD PUSH2 0x23FB JUMP JUMPDEST PUSH2 0x1D4C PUSH1 0xB SLOAD CALLVALUE EQ PUSH2 0x293C JUMP JUMPDEST DUP5 DUP4 PUSH1 0x5 SLOAD PUSH0 MSTORE PUSH1 0x2 PUSH1 0x20 MSTORE DUP13 PUSH1 0x40 PUSH0 KECCAK256 SWAP2 PUSH1 0x3 SLOAD DUP1 SWAP2 GT PUSH2 0x1F20 JUMPI JUMPDEST POP PUSH1 0x6 PUSH1 0x20 MSTORE PUSH1 0x40 PUSH0 KECCAK256 DUP1 SLOAD PUSH1 0x1 PUSH1 0x1 PUSH1 0xA0 SHL SUB NOT AND ORIGIN OR DUP2 SSTORE PUSH2 0x1E69 SWAP4 SWAP3 PUSH1 0x7 SWAP3 SWAP1 SWAP2 PUSH2 0x1E1B SWAP2 SWAP1 PUSH2 0x1D9F DUP3 PUSH1 0x1 DUP4 ADD PUSH2 0x267A JUMP JUMPDEST TIMESTAMP PUSH1 0x2 DUP3 ADD SSTORE DUP5 SLOAD PUSH1 0x4 DUP3 ADD SSTORE PUSH1 0x1 PUSH1 0x3 DUP3 ADD SSTORE PUSH1 0xA PUSH1 0x1 PUSH1 0xFF NOT DUP3 DUP5 ADD SLOAD AND OR SWAP2 ADD SSTORE PUSH2 0xC63 PUSH1 0x20 PUSH1 0x5 SLOAD SWAP3 PUSH2 0x1DD5 DUP2 PUSH2 0x2782 JUMP JUMPDEST PUSH1 0x40 MLOAD TIMESTAMP DUP2 MSTORE PUSH1 0x1 DUP5 DUP3 ADD MSTORE DUP6 PUSH32 0x6C98A8C940418B35614F0CD02412D5C9606FAFF474CBB6CDD6640BA5D1A9F06B PUSH1 0x40 CALLER SWAP4 LOG4 DUP2 PUSH1 0x40 MLOAD SWAP4 DUP3 DUP6 DUP1 SWAP5 MLOAD SWAP4 DUP5 SWAP3 ADD PUSH2 0x23FB JUMP JUMPDEST DUP11 DUP2 SSTORE DUP12 PUSH1 0x1 DUP3 ADD SSTORE DUP14 PUSH1 0x2 DUP3 ADD SSTORE DUP5 PUSH1 0x3 DUP3 ADD SSTORE PUSH1 0x4 DUP2 ADD PUSH1 0x1 DUP1 PUSH1 0xA0 SHL SUB DUP8 AND PUSH1 0x1 DUP1 PUSH1 0xA0 SHL SUB NOT DUP3 SLOAD AND OR SWAP1 SSTORE DUP7 PUSH1 0x5 DUP3 ADD SSTORE DUP8 PUSH1 0x6 DUP3 ADD SSTORE ADD SWAP1 PUSH1 0xFF DUP1 NOT DUP4 SLOAD AND SWAP2 ISZERO ISZERO AND OR SWAP1 SSTORE JUMP JUMPDEST PUSH2 0x16DF PUSH1 0x5 SLOAD SWAP12 PUSH2 0x2782 JUMP JUMPDEST SUB SWAP1 LOG3 PUSH1 0xD SLOAD PUSH1 0x40 MLOAD PUSH4 0x3DE5599D PUSH1 0xE1 SHL DUP2 MSTORE ADDRESS PUSH1 0x4 DUP3 ADD MSTORE SWAP1 PUSH1 0x20 SWAP1 DUP3 SWAP1 PUSH1 0x24 SWAP1 DUP3 SWAP1 CALLVALUE SWAP1 PUSH1 0x1 PUSH1 0x1 PUSH1 0xA0 SHL SUB AND GAS CALL SWAP1 DUP2 ISZERO PUSH2 0x7CD JUMPI PUSH0 SWAP2 PUSH2 0x1F01 JUMPI JUMPDEST POP ISZERO PUSH2 0x20E JUMPI CALLER PUSH0 MSTORE PUSH1 0x9 PUSH1 0x20 MSTORE PUSH1 0x40 PUSH0 KECCAK256 PUSH1 0x1 PUSH1 0xFF NOT DUP3 SLOAD AND OR SWAP1 SSTORE PUSH2 0x1EDC PUSH1 0x5 SLOAD PUSH2 0x2981 JUMP JUMPDEST PUSH2 0x1EE7 PUSH1 0x5 SLOAD PUSH2 0x29DF JUMP JUMPDEST DUP1 PUSH1 0x5 SSTORE PUSH0 NOT DUP2 ADD SWAP1 DUP2 GT PUSH2 0x3C7 JUMPI PUSH1 0x20 SWAP1 PUSH1 0x40 MLOAD SWAP1 DUP2 MSTORE RETURN JUMPDEST PUSH2 0x1F1A SWAP2 POP PUSH1 0x20 RETURNDATASIZE PUSH1 0x20 GT PUSH2 0x890 JUMPI PUSH2 0x882 DUP2 DUP4 PUSH2 0x2339 JUMP JUMPDEST DUP2 PUSH2 0x1EB4 JUMP JUMPDEST SWAP6 POP PUSH2 0x1E69 PUSH2 0x1D69 JUMP JUMPDEST SWAP6 SWAP5 SWAP4 SWAP3 SWAP2 POP POP PUSH1 0x20 DUP6 RETURNDATASIZE PUSH1 0x20 GT PUSH2 0x1F64 JUMPI JUMPDEST DUP2 PUSH2 0x1F4A PUSH1 0x20 SWAP4 DUP4 PUSH2 0x2339 JUMP JUMPDEST DUP2 ADD SUB SLT PUSH2 0x20E JUMPI SWAP4 MLOAD SWAP3 SWAP4 SWAP2 SWAP3 SWAP1 SWAP2 SWAP1 DUP10 PUSH2 0x1D3F PUSH2 0x1CF6 JUMP JUMPDEST RETURNDATASIZE SWAP2 POP PUSH2 0x1F3D JUMP JUMPDEST PUSH2 0x1F83 SWAP2 POP DUP7 RETURNDATASIZE DUP9 GT PUSH2 0x890 JUMPI PUSH2 0x882 DUP2 DUP4 PUSH2 0x2339 JUMP JUMPDEST PUSH0 PUSH2 0xB44 JUMP JUMPDEST CALLVALUE PUSH2 0x20E JUMPI PUSH2 0x1F97 CALLDATASIZE PUSH2 0x24AC JUMP JUMPDEST SWAP1 PUSH1 0x40 MLOAD SWAP1 DUP1 MLOAD SWAP1 PUSH1 0x20 DUP2 ADD SWAP2 PUSH2 0x1FAF DUP2 DUP6 DUP6 PUSH2 0x23FB JUMP JUMPDEST DUP4 ADD PUSH0 DUP2 MSTORE DUP4 PUSH1 0x20 PUSH1 0x1 DUP1 PUSH1 0xA0 SHL SUB SWAP6 DUP7 SWAP4 SUB ADD SWAP1 KECCAK256 SLOAD AND CALLER SUB PUSH2 0x2005 JUMPI PUSH2 0x1FE5 SWAP2 PUSH1 0x20 SWAP2 PUSH1 0x40 MLOAD SWAP4 DUP5 SWAP3 DUP4 SWAP3 MLOAD SWAP3 DUP4 SWAP2 PUSH2 0x23FB JUMP JUMPDEST PUSH0 SWAP1 DUP3 ADD SWAP1 DUP2 MSTORE SUB ADD SWAP1 KECCAK256 DUP1 SLOAD PUSH1 0x1 PUSH1 0x1 PUSH1 0xA0 SHL SUB NOT AND SWAP2 SWAP1 SWAP3 AND OR SWAP1 SSTORE STOP JUMPDEST PUSH1 0x40 MLOAD PUSH3 0x461BCD PUSH1 0xE5 SHL DUP2 MSTORE PUSH1 0x20 PUSH1 0x4 DUP3 ADD MSTORE PUSH1 0x27 PUSH1 0x24 DUP3 ADD MSTORE PUSH32 0x55736572206973206E6F7420746865206F776E6572206F66207468697320636F PUSH1 0x44 DUP3 ADD MSTORE PUSH7 0x6D6D756E697479 PUSH1 0xC8 SHL PUSH1 0x64 DUP3 ADD MSTORE PUSH1 0x84 SWAP1 REVERT JUMPDEST CALLVALUE PUSH2 0x20E JUMPI PUSH1 0x20 CALLDATASIZE PUSH1 0x3 NOT ADD SLT PUSH2 0x20E JUMPI PUSH1 0x4 CALLDATALOAD PUSH1 0x1 PUSH1 0x1 PUSH1 0x40 SHL SUB DUP2 GT PUSH2 0x20E JUMPI PUSH2 0x20A5 PUSH1 0x20 PUSH2 0x2092 PUSH2 0x120 SWAP4 CALLDATASIZE SWAP1 PUSH1 0x4 ADD PUSH2 0x2441 JUMP JUMPDEST DUP2 PUSH1 0x40 MLOAD SWAP4 DUP3 DUP6 DUP1 SWAP5 MLOAD SWAP4 DUP5 SWAP3 ADD PUSH2 0x23FB JUMP JUMPDEST DUP2 ADD PUSH0 DUP2 MSTORE SUB ADD SWAP1 KECCAK256 PUSH1 0x1 DUP1 PUSH1 0xA0 SHL SUB DUP1 DUP3 SLOAD AND SWAP2 PUSH1 0x1 DUP2 ADD SLOAD SWAP2 PUSH1 0x2 DUP3 ADD SLOAD SWAP1 PUSH1 0x3 DUP4 ADD SLOAD SWAP1 PUSH1 0x4 DUP5 ADD SLOAD SWAP1 PUSH1 0x5 DUP6 ADD SLOAD AND SWAP2 PUSH1 0x6 DUP6 ADD SLOAD SWAP4 PUSH1 0xFF PUSH1 0x8 PUSH1 0x7 DUP9 ADD SLOAD SWAP8 ADD SLOAD AND SWAP7 PUSH1 0x40 MLOAD SWAP9 DUP10 MSTORE PUSH1 0x20 DUP10 ADD MSTORE PUSH1 0x40 DUP9 ADD MSTORE PUSH1 0x60 DUP8 ADD MSTORE PUSH1 0x80 DUP7 ADD MSTORE PUSH1 0xA0 DUP6 ADD MSTORE PUSH1 0xC0 DUP5 ADD MSTORE PUSH1 0xE0 DUP4 ADD MSTORE ISZERO ISZERO PUSH2 0x100 DUP3 ADD MSTORE RETURN JUMPDEST CALLVALUE PUSH2 0x20E JUMPI PUSH1 0x20 CALLDATASIZE PUSH1 0x3 NOT ADD SLT PUSH2 0x20E JUMPI PUSH2 0x2146 PUSH1 0x1 DUP1 PUSH1 0xA0 SHL SUB PUSH1 0xA SLOAD AND CALLER EQ PUSH2 0x2B6D JUMP JUMPDEST PUSH1 0x4 CALLDATALOAD PUSH0 SWAP1 DUP2 MSTORE PUSH1 0x6 PUSH1 0x20 MSTORE PUSH1 0x40 SWAP1 KECCAK256 PUSH1 0xA ADD DUP1 SLOAD PUSH1 0xFF NOT AND SWAP1 SSTORE STOP JUMPDEST CALLVALUE PUSH2 0x20E JUMPI PUSH1 0x20 CALLDATASIZE PUSH1 0x3 NOT ADD SLT PUSH2 0x20E JUMPI PUSH1 0x4 CALLDATALOAD PUSH1 0x1 SLOAD DUP2 LT ISZERO PUSH2 0x20E JUMPI PUSH2 0x218A SWAP1 PUSH2 0x24ED JUMP JUMPDEST PUSH2 0x16F1 JUMPI PUSH2 0x219A PUSH2 0x1072 SWAP2 PUSH2 0x235A JUMP JUMPDEST PUSH1 0x40 MLOAD SWAP2 DUP3 SWAP2 PUSH1 0x20 DUP4 MSTORE PUSH1 0x20 DUP4 ADD SWAP1 PUSH2 0x241C JUMP JUMPDEST CALLVALUE PUSH2 0x20E JUMPI PUSH1 0x20 DUP1 PUSH2 0x21BF CALLDATASIZE PUSH2 0x24AC JUMP JUMPDEST SWAP2 SWAP1 PUSH2 0x21FD DUP3 PUSH1 0x40 MLOAD SWAP3 DUP1 MLOAD SWAP1 PUSH2 0x514 DUP4 DUP3 ADD SWAP3 PUSH2 0x21DE DUP2 DUP9 DUP7 PUSH2 0x23FB JUMP JUMPDEST DUP7 ADD PUSH0 DUP2 MSTORE DUP7 PUSH1 0x1 DUP1 PUSH1 0xA0 SHL SUB SWAP9 DUP10 SWAP9 DUP10 SWAP4 SUB ADD SWAP1 KECCAK256 SLOAD AND ISZERO ISZERO PUSH2 0x2BB2 JUMP JUMPDEST DUP2 ADD PUSH0 DUP2 MSTORE SUB ADD SWAP1 KECCAK256 SLOAD AND SWAP1 PUSH1 0x40 MLOAD SWAP3 AND EQ DUP2 MSTORE RETURN JUMPDEST CALLVALUE PUSH2 0x20E JUMPI PUSH0 CALLDATASIZE PUSH1 0x3 NOT ADD SLT PUSH2 0x20E JUMPI PUSH1 0xC SLOAD PUSH1 0x40 MLOAD PUSH1 0x1 PUSH1 0x1 PUSH1 0xA0 SHL SUB SWAP1 SWAP2 AND DUP2 MSTORE PUSH1 0x20 SWAP1 RETURN JUMPDEST CALLVALUE PUSH2 0x20E JUMPI PUSH1 0x20 CALLDATASIZE PUSH1 0x3 NOT ADD SLT PUSH2 0x20E JUMPI PUSH1 0x4 CALLDATALOAD PUSH0 SWAP1 DUP2 MSTORE PUSH1 0x6 PUSH1 0x20 MSTORE PUSH1 0x40 SWAP1 KECCAK256 DUP1 SLOAD PUSH1 0x1 PUSH1 0x1 PUSH1 0xA0 SHL SUB AND PUSH2 0x2273 PUSH1 0x1 DUP4 ADD PUSH2 0x235A JUMP JUMPDEST SWAP2 PUSH1 0xFF PUSH1 0x2 DUP3 ADD SLOAD SWAP2 PUSH1 0x3 DUP2 ADD SLOAD SWAP1 PUSH1 0x4 DUP2 ADD SLOAD PUSH1 0x5 DUP3 ADD SLOAD PUSH1 0x6 DUP4 ADD SLOAD SWAP1 PUSH1 0x7 DUP5 ADD SLOAD SWAP3 PUSH1 0xA PUSH1 0x8 DUP7 ADD SLOAD SWAP6 ADD SLOAD SWAP6 PUSH2 0x22C1 PUSH1 0x40 MLOAD SWAP12 DUP13 SWAP12 DUP13 MSTORE PUSH1 0x20 DUP13 PUSH2 0x160 SWAP2 DUP3 SWAP2 ADD MSTORE DUP13 ADD SWAP1 PUSH2 0x241C JUMP JUMPDEST SWAP9 PUSH1 0x40 DUP12 ADD MSTORE PUSH1 0x60 DUP11 ADD MSTORE PUSH1 0x80 DUP10 ADD MSTORE PUSH1 0xA0 DUP9 ADD MSTORE PUSH1 0xC0 DUP8 ADD MSTORE PUSH1 0xE0 DUP7 ADD MSTORE PUSH2 0x100 DUP6 ADD MSTORE DUP2 DUP2 AND ISZERO ISZERO PUSH2 0x120 DUP6 ADD MSTORE PUSH1 0x8 SHR AND ISZERO ISZERO PUSH2 0x140 DUP4 ADD MSTORE SUB SWAP1 RETURN JUMPDEST SWAP1 PUSH1 0x1 DUP3 DUP2 SHR SWAP3 AND DUP1 ISZERO PUSH2 0x232F JUMPI JUMPDEST PUSH1 0x20 DUP4 LT EQ PUSH2 0x231B JUMPI JUMP JUMPDEST PUSH4 0x4E487B71 PUSH1 0xE0 SHL PUSH0 MSTORE PUSH1 0x22 PUSH1 0x4 MSTORE PUSH1 0x24 PUSH0 REVERT JUMPDEST SWAP2 PUSH1 0x7F AND SWAP2 PUSH2 0x2310 JUMP JUMPDEST SWAP1 PUSH1 0x1F DUP1 NOT SWAP2 ADD AND DUP2 ADD SWAP1 DUP2 LT PUSH1 0x1 PUSH1 0x1 PUSH1 0x40 SHL SUB DUP3 GT OR PUSH2 0x1309 JUMPI PUSH1 0x40 MSTORE JUMP JUMPDEST SWAP1 PUSH1 0x40 MLOAD SWAP2 DUP3 PUSH0 DUP3 SLOAD SWAP3 PUSH2 0x236D DUP5 PUSH2 0x2301 JUMP JUMPDEST SWAP1 DUP2 DUP5 MSTORE PUSH1 0x1 SWAP5 DUP6 DUP2 AND SWAP1 DUP2 PUSH0 EQ PUSH2 0x23D8 JUMPI POP PUSH1 0x1 EQ PUSH2 0x2398 JUMPI JUMPDEST POP POP PUSH2 0x2396 SWAP3 POP SUB DUP4 PUSH2 0x2339 JUMP JUMPDEST JUMP JUMPDEST SWAP1 SWAP4 SWAP2 POP PUSH0 MSTORE PUSH1 0x20 SWAP1 DUP2 PUSH0 KECCAK256 SWAP4 PUSH0 SWAP2 JUMPDEST DUP2 DUP4 LT PUSH2 0x23C0 JUMPI POP POP PUSH2 0x2396 SWAP4 POP DUP3 ADD ADD PUSH0 DUP1 PUSH2 0x2388 JUMP JUMPDEST DUP6 SLOAD DUP9 DUP5 ADD DUP6 ADD MSTORE SWAP5 DUP6 ADD SWAP5 DUP8 SWAP5 POP SWAP2 DUP4 ADD SWAP2 PUSH2 0x23A8 JUMP JUMPDEST SWAP2 POP POP PUSH2 0x2396 SWAP5 POP PUSH1 0x20 SWAP3 POP PUSH1 0xFF NOT AND DUP3 DUP5 ADD MSTORE ISZERO ISZERO PUSH1 0x5 SHL DUP3 ADD ADD PUSH0 DUP1 PUSH2 0x2388 JUMP JUMPDEST PUSH0 JUMPDEST DUP4 DUP2 LT PUSH2 0x240C JUMPI POP POP PUSH0 SWAP2 ADD MSTORE JUMP JUMPDEST DUP2 DUP2 ADD MLOAD DUP4 DUP3 ADD MSTORE PUSH1 0x20 ADD PUSH2 0x23FD JUMP JUMPDEST SWAP1 PUSH1 0x20 SWAP2 PUSH2 0x2435 DUP2 MLOAD DUP1 SWAP3 DUP2 DUP6 MSTORE DUP6 DUP1 DUP7 ADD SWAP2 ADD PUSH2 0x23FB JUMP JUMPDEST PUSH1 0x1F ADD PUSH1 0x1F NOT AND ADD ADD SWAP1 JUMP JUMPDEST DUP2 PUSH1 0x1F DUP3 ADD SLT ISZERO PUSH2 0x20E JUMPI DUP1 CALLDATALOAD SWAP1 PUSH1 0x1 PUSH1 0x1 PUSH1 0x40 SHL SUB DUP3 GT PUSH2 0x1309 JUMPI PUSH1 0x40 MLOAD SWAP3 PUSH2 0x2475 PUSH1 0x1F DUP5 ADD PUSH1 0x1F NOT AND PUSH1 0x20 ADD DUP6 PUSH2 0x2339 JUMP JUMPDEST DUP3 DUP5 MSTORE PUSH1 0x20 DUP4 DUP4 ADD ADD GT PUSH2 0x20E JUMPI DUP2 PUSH0 SWAP3 PUSH1 0x20 DUP1 SWAP4 ADD DUP4 DUP7 ADD CALLDATACOPY DUP4 ADD ADD MSTORE SWAP1 JUMP JUMPDEST PUSH1 0x4 CALLDATALOAD SWAP1 PUSH1 0x1 PUSH1 0x1 PUSH1 0xA0 SHL SUB DUP3 AND DUP3 SUB PUSH2 0x20E JUMPI JUMP JUMPDEST PUSH1 0x40 PUSH1 0x3 NOT DUP3 ADD SLT PUSH2 0x20E JUMPI PUSH1 0x4 CALLDATALOAD SWAP1 PUSH1 0x1 PUSH1 0x1 PUSH1 0x40 SHL SUB DUP3 GT PUSH2 0x20E JUMPI PUSH2 0x24D6 SWAP2 PUSH1 0x4 ADD PUSH2 0x2441 JUMP JUMPDEST SWAP1 PUSH1 0x24 CALLDATALOAD PUSH1 0x1 PUSH1 0x1 PUSH1 0xA0 SHL SUB DUP2 AND DUP2 SUB PUSH2 0x20E JUMPI SWAP1 JUMP JUMPDEST PUSH1 0x1 SLOAD DUP2 LT ISZERO PUSH2 0x2505 JUMPI PUSH1 0x1 PUSH0 MSTORE PUSH1 0x20 PUSH0 KECCAK256 ADD SWAP1 PUSH0 SWAP1 JUMP JUMPDEST PUSH4 0x4E487B71 PUSH1 0xE0 SHL PUSH0 MSTORE PUSH1 0x32 PUSH1 0x4 MSTORE PUSH1 0x24 PUSH0 REVERT JUMPDEST PUSH1 0x7 SLOAD DUP2 LT ISZERO PUSH2 0x2505 JUMPI PUSH1 0x7 PUSH0 MSTORE PUSH1 0x20 PUSH0 KECCAK256 ADD SWAP1 PUSH0 SWAP1 JUMP JUMPDEST DUP1 SLOAD DUP3 LT ISZERO PUSH2 0x2505 JUMPI PUSH0 MSTORE PUSH1 0x20 PUSH0 KECCAK256 ADD SWAP1 PUSH0 SWAP1 JUMP JUMPDEST PUSH2 0x120 PUSH1 0x3 NOT DUP3 ADD SLT PUSH2 0x20E JUMPI PUSH1 0x4 CALLDATALOAD SWAP1 PUSH1 0x1 PUSH1 0x1 PUSH1 0x40 SHL SUB DUP3 GT PUSH2 0x20E JUMPI PUSH2 0x2571 SWAP2 PUSH1 0x4 ADD PUSH2 0x2441 JUMP JUMPDEST SWAP1 PUSH1 0x24 CALLDATALOAD SWAP1 PUSH1 0x44 CALLDATALOAD SWAP1 PUSH1 0x64 CALLDATALOAD SWAP1 PUSH1 0x84 CALLDATALOAD SWAP1 PUSH1 0xA4 CALLDATALOAD PUSH1 0x1 PUSH1 0x1 PUSH1 0xA0 SHL SUB DUP2 AND DUP2 SUB PUSH2 0x20E JUMPI SWAP1 PUSH1 0xC4 CALLDATALOAD SWAP1 PUSH1 0xE4 CALLDATALOAD SWAP1 PUSH2 0x104 CALLDATALOAD DUP1 ISZERO ISZERO DUP2 SUB PUSH2 0x20E JUMPI SWAP1 JUMP JUMPDEST SWAP1 PUSH1 0x20 PUSH1 0x3 NOT DUP4 ADD SLT PUSH2 0x20E JUMPI PUSH1 0x4 CALLDATALOAD PUSH1 0x1 PUSH1 0x1 PUSH1 0x40 SHL SUB SWAP3 DUP4 DUP3 GT PUSH2 0x20E JUMPI DUP1 PUSH1 0x23 DUP4 ADD SLT ISZERO PUSH2 0x20E JUMPI DUP2 PUSH1 0x4 ADD CALLDATALOAD SWAP4 DUP5 GT PUSH2 0x20E JUMPI PUSH1 0x24 DUP5 DUP4 ADD ADD GT PUSH2 0x20E JUMPI PUSH1 0x24 ADD SWAP2 SWAP1 JUMP JUMPDEST SWAP3 SWAP2 SWAP1 PUSH1 0x40 DUP5 ADD PUSH1 0x40 DUP6 MSTORE DUP2 MLOAD DUP1 SWAP2 MSTORE PUSH1 0x60 DUP6 ADD SWAP1 PUSH1 0x20 DUP1 SWAP4 ADD SWAP1 PUSH0 JUMPDEST DUP5 DUP3 DUP3 LT PUSH2 0x2625 JUMPI POP POP POP POP SWAP4 ADD MSTORE JUMP JUMPDEST DUP4 MLOAD DUP6 MSTORE SWAP4 DUP5 ADD SWAP4 SWAP1 SWAP3 ADD SWAP2 PUSH1 0x1 ADD PUSH2 0x2614 JUMP JUMPDEST SWAP7 SWAP4 SWAP1 SWAP9 SWAP8 SWAP5 SWAP2 SWAP3 PUSH1 0xE0 SWAP7 SWAP4 PUSH2 0x100 DUP10 ADD SWAP11 DUP10 MSTORE PUSH1 0x20 DUP10 ADD MSTORE PUSH1 0x40 DUP9 ADD MSTORE PUSH1 0x60 DUP8 ADD MSTORE PUSH1 0x1 DUP1 PUSH1 0xA0 SHL SUB AND PUSH1 0x80 DUP7 ADD MSTORE PUSH1 0xA0 DUP6 ADD MSTORE PUSH1 0xC0 DUP5 ADD MSTORE ISZERO ISZERO SWAP2 ADD MSTORE JUMP JUMPDEST SWAP2 SWAP1 SWAP2 DUP3 MLOAD PUSH1 0x1 PUSH1 0x1 PUSH1 0x40 SHL SUB DUP2 GT PUSH2 0x1309 JUMPI PUSH2 0x2697 DUP3 SLOAD PUSH2 0x2301 JUMP JUMPDEST PUSH1 0x1F DUP2 GT PUSH2 0x273B JUMPI JUMPDEST POP PUSH1 0x20 DUP1 PUSH1 0x1F DUP4 GT PUSH1 0x1 EQ PUSH2 0x26DB JUMPI POP DUP2 SWAP3 SWAP4 SWAP5 PUSH0 SWAP3 PUSH2 0x26D0 JUMPI JUMPDEST POP POP DUP2 PUSH1 0x1 SHL SWAP2 PUSH0 NOT SWAP1 PUSH1 0x3 SHL SHR NOT AND OR SWAP1 SSTORE JUMP JUMPDEST ADD MLOAD SWAP1 POP PUSH0 DUP1 PUSH2 0x26BB JUMP JUMPDEST SWAP1 PUSH1 0x1F NOT DUP4 AND SWAP6 DUP5 PUSH0 MSTORE DUP3 PUSH0 KECCAK256 SWAP3 PUSH0 SWAP1 JUMPDEST DUP9 DUP3 LT PUSH2 0x2723 JUMPI POP POP DUP4 PUSH1 0x1 SWAP6 SWAP7 SWAP8 LT PUSH2 0x270B JUMPI JUMPDEST POP POP POP DUP2 SHL ADD SWAP1 SSTORE JUMP JUMPDEST ADD MLOAD PUSH0 NOT PUSH1 0xF8 DUP5 PUSH1 0x3 SHL AND SHR NOT AND SWAP1 SSTORE PUSH0 DUP1 DUP1 PUSH2 0x2701 JUMP JUMPDEST DUP1 PUSH1 0x1 DUP6 SWAP7 DUP3 SWAP5 SWAP7 DUP7 ADD MLOAD DUP2 SSTORE ADD SWAP6 ADD SWAP4 ADD SWAP1 PUSH2 0x26EC JUMP JUMPDEST PUSH0 DUP4 DUP2 MSTORE PUSH1 0x20 DUP2 KECCAK256 PUSH1 0x1F DUP5 ADD PUSH1 0x5 SHR DUP2 ADD SWAP3 PUSH1 0x20 DUP6 LT PUSH2 0x2778 JUMPI JUMPDEST PUSH1 0x1F ADD PUSH1 0x5 SHR ADD SWAP2 JUMPDEST DUP3 DUP2 LT PUSH2 0x276D JUMPI POP POP PUSH2 0x26A0 JUMP JUMPDEST DUP2 DUP2 SSTORE PUSH1 0x1 ADD PUSH2 0x275F JUMP JUMPDEST SWAP1 SWAP3 POP DUP3 SWAP1 PUSH2 0x2756 JUMP JUMPDEST PUSH2 0x279A SWAP1 PUSH1 0x20 PUSH1 0x40 MLOAD SWAP3 DUP3 DUP5 DUP1 SWAP5 MLOAD SWAP4 DUP5 SWAP3 ADD PUSH2 0x23FB JUMP JUMPDEST DUP2 ADD SUB SWAP1 KECCAK256 SWAP1 JUMP JUMPDEST ISZERO PUSH2 0x27A9 JUMPI JUMP JUMPDEST PUSH1 0x40 MLOAD PUSH3 0x461BCD PUSH1 0xE5 SHL DUP2 MSTORE PUSH1 0x20 PUSH1 0x4 DUP3 ADD MSTORE PUSH1 0x17 PUSH1 0x24 DUP3 ADD MSTORE PUSH23 0x10DBDB5B5D5B9A5D1E48191BD95CDB89DD08195E1A5CDD PUSH1 0x4A SHL PUSH1 0x44 DUP3 ADD MSTORE PUSH1 0x64 SWAP1 REVERT JUMPDEST ISZERO PUSH2 0x27EF JUMPI JUMP JUMPDEST PUSH1 0x40 MLOAD PUSH3 0x461BCD PUSH1 0xE5 SHL DUP2 MSTORE PUSH1 0x20 PUSH1 0x4 DUP3 ADD MSTORE PUSH1 0x39 PUSH1 0x24 DUP3 ADD MSTORE PUSH32 0x5573657220686173204F70656E205265766965772C20506C6561736520776169 PUSH1 0x44 DUP3 ADD MSTORE PUSH25 0x3A103AB73A34B6361034BA1034B990383937B1B2B9B9B2B217 PUSH1 0x39 SHL PUSH1 0x64 DUP3 ADD MSTORE PUSH1 0x84 SWAP1 REVERT JUMPDEST SWAP1 DUP2 PUSH1 0x20 SWAP2 SUB SLT PUSH2 0x20E JUMPI MLOAD DUP1 ISZERO ISZERO DUP2 SUB PUSH2 0x20E JUMPI SWAP1 JUMP JUMPDEST PUSH1 0x1 PUSH1 0x1 PUSH1 0xA0 SHL SUB SWAP1 SWAP2 AND DUP2 MSTORE PUSH1 0x40 PUSH1 0x20 DUP3 ADD DUP2 SWAP1 MSTORE PUSH2 0x2890 SWAP3 SWAP2 ADD SWAP1 PUSH2 0x241C JUMP JUMPDEST SWAP1 JUMP JUMPDEST ISZERO PUSH2 0x289A JUMPI JUMP JUMPDEST PUSH1 0x40 MLOAD PUSH3 0x461BCD PUSH1 0xE5 SHL DUP2 MSTORE PUSH1 0x20 PUSH1 0x4 DUP3 ADD MSTORE PUSH1 0x28 PUSH1 0x24 DUP3 ADD MSTORE PUSH32 0x596F7520617265206E6F742061206D656D62657220666F72207468697320636F PUSH1 0x44 DUP3 ADD MSTORE PUSH8 0x36B6BAB734BA3C97 PUSH1 0xC1 SHL PUSH1 0x64 DUP3 ADD MSTORE PUSH1 0x84 SWAP1 REVERT JUMPDEST ISZERO PUSH2 0x28F7 JUMPI JUMP JUMPDEST PUSH1 0x40 MLOAD PUSH3 0x461BCD PUSH1 0xE5 SHL DUP2 MSTORE PUSH1 0x20 PUSH1 0x4 DUP3 ADD MSTORE PUSH1 0x1E PUSH1 0x24 DUP3 ADD MSTORE PUSH32 0x496E73756666696369656E7420637265647320746F2070726F706F73652E0000 PUSH1 0x44 DUP3 ADD MSTORE PUSH1 0x64 SWAP1 REVERT JUMPDEST ISZERO PUSH2 0x2943 JUMPI JUMP JUMPDEST PUSH1 0x40 MLOAD PUSH3 0x461BCD PUSH1 0xE5 SHL DUP2 MSTORE PUSH1 0x20 PUSH1 0x4 DUP3 ADD MSTORE PUSH1 0x16 PUSH1 0x24 DUP3 ADD MSTORE PUSH22 0x4D7573742073656E642070726F706F73616C20666565 PUSH1 0x50 SHL PUSH1 0x44 DUP3 ADD MSTORE PUSH1 0x64 SWAP1 REVERT JUMPDEST PUSH1 0x7 SLOAD SWAP1 PUSH1 0x1 PUSH1 0x40 SHL DUP3 LT ISZERO PUSH2 0x1309 JUMPI PUSH2 0x29A4 DUP3 PUSH1 0x1 PUSH2 0x2396 SWAP5 ADD PUSH1 0x7 SSTORE PUSH2 0x2519 JUMP JUMPDEST SWAP1 SWAP2 SWAP1 DUP3 SLOAD SWAP1 PUSH1 0x3 SHL SWAP2 DUP3 SHL SWAP2 PUSH0 NOT SWAP1 SHL NOT AND OR SWAP1 SSTORE JUMP JUMPDEST DUP1 SLOAD SWAP2 SWAP1 PUSH1 0x1 PUSH1 0x40 SHL DUP4 LT ISZERO PUSH2 0x1309 JUMPI DUP3 PUSH2 0x29A4 SWAP2 PUSH1 0x1 PUSH2 0x2396 SWAP6 ADD DUP2 SSTORE PUSH2 0x2531 JUMP JUMPDEST PUSH0 NOT DUP2 EQ PUSH2 0x3C7 JUMPI PUSH1 0x1 ADD SWAP1 JUMP JUMPDEST PUSH1 0x40 MLOAD SWAP1 DUP2 PUSH0 DUP3 SLOAD PUSH2 0x29FE DUP2 PUSH2 0x2301 JUMP JUMPDEST SWAP4 PUSH1 0x1 SWAP2 DUP1 DUP4 AND SWAP1 DUP2 ISZERO PUSH2 0x2A5F JUMPI POP PUSH1 0x1 EQ PUSH2 0x2A25 JUMPI JUMPDEST POP POP PUSH1 0x20 SWAP3 POP PUSH0 DUP2 MSTORE SUB ADD SWAP1 KECCAK256 SWAP1 JUMP JUMPDEST SWAP1 SWAP2 POP PUSH0 MSTORE PUSH1 0x20 SWAP1 DUP2 PUSH0 KECCAK256 SWAP1 PUSH0 SWAP2 JUMPDEST DUP6 DUP4 LT PUSH2 0x2A4B JUMPI POP POP POP POP PUSH1 0x20 SWAP2 DUP2 ADD PUSH0 DUP1 PUSH2 0x2A15 JUMP JUMPDEST DUP1 SLOAD DUP8 DUP5 ADD MSTORE DUP7 SWAP5 POP SWAP2 DUP4 ADD SWAP2 DUP2 ADD PUSH2 0x2A34 JUMP JUMPDEST SWAP3 POP POP POP PUSH1 0x20 SWAP4 SWAP2 POP PUSH1 0xFF NOT AND DUP3 MSTORE DUP1 ISZERO ISZERO MUL DUP2 ADD PUSH0 DUP1 PUSH2 0x2A15 JUMP JUMPDEST SWAP2 SWAP1 DUP3 ADD DUP1 SWAP3 GT PUSH2 0x3C7 JUMPI JUMP JUMPDEST SWAP2 SWAP1 PUSH1 0x1 DUP1 PUSH1 0xA0 SHL SUB AND DUP3 MSTORE PUSH1 0x20 SWAP2 PUSH1 0x40 DUP4 DUP3 ADD MSTORE PUSH0 SWAP3 DUP3 SLOAD PUSH2 0x2AAA DUP2 PUSH2 0x2301 JUMP JUMPDEST SWAP4 DUP5 PUSH1 0x40 DUP6 ADD MSTORE PUSH1 0x1 SWAP2 DUP3 DUP2 AND SWAP1 DUP2 PUSH0 EQ PUSH2 0x2B0A JUMPI POP PUSH1 0x1 EQ PUSH2 0x2AD0 JUMPI JUMPDEST POP POP POP POP POP SWAP1 JUMP JUMPDEST PUSH0 SWAP1 DUP2 MSTORE DUP3 DUP2 KECCAK256 SWAP5 SWAP6 POP SWAP4 JUMPDEST DUP6 DUP6 LT PUSH2 0x2AF6 JUMPI POP POP POP PUSH1 0x60 SWAP3 POP ADD ADD PUSH0 DUP1 DUP1 DUP1 DUP1 PUSH2 0x2AC8 JUMP JUMPDEST DUP1 SLOAD DUP6 DUP6 ADD PUSH1 0x60 ADD MSTORE SWAP4 DUP3 ADD SWAP4 DUP2 ADD PUSH2 0x2ADC JUMP JUMPDEST SWAP4 POP POP POP POP PUSH1 0x60 SWAP4 POP PUSH1 0xFF SWAP3 SWAP2 SWAP3 NOT AND DUP4 DUP4 ADD MSTORE ISZERO ISZERO PUSH1 0x5 SHL ADD ADD PUSH0 DUP1 DUP1 DUP1 DUP1 PUSH2 0x2AC8 JUMP JUMPDEST PUSH1 0x7 SLOAD DUP1 ISZERO PUSH2 0x2B59 JUMPI PUSH0 NOT SWAP1 DUP2 ADD SWAP1 PUSH2 0x2B47 DUP3 PUSH2 0x2519 JUMP JUMPDEST SWAP1 SWAP2 DUP3 SLOAD SWAP2 PUSH1 0x3 SHL SHL NOT AND SWAP1 SSTORE PUSH1 0x7 SSTORE JUMP JUMPDEST PUSH4 0x4E487B71 PUSH1 0xE0 SHL PUSH0 MSTORE PUSH1 0x31 PUSH1 0x4 MSTORE PUSH1 0x24 PUSH0 REVERT JUMPDEST ISZERO PUSH2 0x2B74 JUMPI JUMP JUMPDEST PUSH1 0x40 MLOAD PUSH3 0x461BCD PUSH1 0xE5 SHL DUP2 MSTORE PUSH1 0x20 PUSH1 0x4 DUP3 ADD MSTORE PUSH1 0x16 PUSH1 0x24 DUP3 ADD MSTORE PUSH22 0x2737BA103A34329031B7B73A3930B1BA1037BBB732B9 PUSH1 0x51 SHL PUSH1 0x44 DUP3 ADD MSTORE PUSH1 0x64 SWAP1 REVERT JUMPDEST ISZERO PUSH2 0x2BB9 JUMPI JUMP JUMPDEST PUSH1 0x40 MLOAD PUSH3 0x461BCD PUSH1 0xE5 SHL DUP2 MSTORE PUSH1 0x20 PUSH1 0x4 DUP3 ADD MSTORE PUSH1 0x19 PUSH1 0x24 DUP3 ADD MSTORE PUSH25 0x10DBDB5B5D5B9A5D1E48111BD95CC8139BDD08115E1CDA5CDD PUSH1 0x3A SHL PUSH1 0x44 DUP3 ADD MSTORE PUSH1 0x64 SWAP1 REVERT JUMPDEST PUSH1 0x1 PUSH1 0x1 PUSH1 0x40 SHL SUB DUP2 GT PUSH2 0x1309 JUMPI PUSH1 0x5 SHL PUSH1 0x20 ADD SWAP1 JUMP JUMPDEST SWAP1 PUSH2 0x2C1B DUP3 PUSH2 0x2BFA JUMP JUMPDEST PUSH2 0x2C28 PUSH1 0x40 MLOAD SWAP2 DUP3 PUSH2 0x2339 JUMP JUMPDEST DUP3 DUP2 MSTORE DUP1 SWAP3 PUSH2 0x2C39 PUSH1 0x1F NOT SWAP2 PUSH2 0x2BFA JUMP JUMPDEST ADD SWAP1 PUSH1 0x20 CALLDATASIZE SWAP2 ADD CALLDATACOPY JUMP JUMPDEST DUP2 DUP2 MUL SWAP3 SWAP2 DUP2 ISZERO SWAP2 DUP5 DIV EQ OR ISZERO PUSH2 0x3C7 JUMPI JUMP JUMPDEST DUP1 MLOAD DUP3 LT ISZERO PUSH2 0x2505 JUMPI PUSH1 0x20 SWAP2 PUSH1 0x5 SHL ADD ADD SWAP1 JUMP JUMPDEST DUP2 ISZERO PUSH2 0x2C74 JUMPI DIV SWAP1 JUMP JUMPDEST PUSH4 0x4E487B71 PUSH1 0xE0 SHL PUSH0 MSTORE PUSH1 0x12 PUSH1 0x4 MSTORE PUSH1 0x24 PUSH0 REVERT INVALID CALLDATALOAD 0xBA 0xAE 0xC8 0xD9 0xC9 0xDA SHR PUSH24 0xF27119243A4384B49EAE2BF0680AA0EEBE3B62D28574A5A2 PUSH5 0x6970667358 0x22 SLT KECCAK256 SELFBALANCE PC 0xA6 0xC6 DUP8 SWAP10 CALLVALUE DUP2 0xB1 DUP3 SWAP3 0x23 MOD SELFDESTRUCT SWAP9 0xC9 0x4B 0xD5 0xD2 DIV CALLVALUE 0x2C EQ SWAP13 DUP7 0xBC CODESIZE 0xCB PUSH29 0x4441F764736F6C63430008140033000000000000000000000000000000 "},"methodIdentifiers":{"CommunityNames(uint256)":"0dc85f7d","CommunityProposal(string,uint256,uint256,uint256,uint256,address,uint256,uint256,bool)":"31b4ea2e","CommunityProposals(uint256)":"8126d895","CustomProposal(string,address)":"b07bcbc5","CustomProposals(uint256)":"90943a8b","FundContract()":"8ed8067e","MemberContract()":"0163b968","changeCommunityOwner(string,address)":"298a5750","checkUpkeep(bytes)":"6e04ff0d","communities(string)":"28adc240","createCommunity(string,uint256,uint256,uint256,uint256,address,uint256,uint256,bool)":"6219f117","fee()":"ddca3f43","getActiveProposalIndex(uint256)":"b60a85ae","getActiveProposalsLength()":"495d855e","getCommunityExists(string)":"7b7fcfed","getCommunityInfo(string)":"a64108d5","getCommunityIsInviteOnly(string)":"3df67352","getCommunityIsOwner(string,address)":"04413d86","getCommunityOwner(string)":"b3f6702d","getFee()":"ced72f87","getMemberAccessContract(string)":"cbe02a9f","getPaginatedActiveProposals(uint256,uint256)":"860eb3d9","getPaginatedCommunityProposals(string,uint256,uint256)":"789aa8f6","getProposalResults(uint256)":"5bdcd008","getProposalType(uint256)":"d978ffba","getProposalVote(address,uint256)":"68535709","hasOpenProposal(address)":"ff1225d9","performUpkeep(bytes)":"4585e33b","porposalsByCommunity(string,uint256)":"c2c2e5f8","proposals(uint256)":"013cf08b","setFee(uint256)":"69fe0e2d","setFundContract(address)":"59144baa","setMaxProposalTime(uint256)":"a169093b","setProposalCanceled(uint256)":"d0d83923","setProposalCounter(uint256)":"8b640440","setProposalInactive(uint256)":"1282f609","setUpkkepId(uint256)":"5787a0cc","settgetherMembersContract(address)":"8a94aea4","upkeepId()":"d2aa789f","vote(uint256,bool)":"c9d27afe"}}}}}