{"contracts/MOCKFundContract.sol":{"MOCKFundContract":{"abi":[{"inputs":[{"internalType":"address","name":"_contractAddress","type":"address"}],"name":"fundUpkeep","outputs":[{"internalType":"bool","name":"","type":"bool"}],"stateMutability":"payable","type":"function"}],"evm":{"bytecode":{"linkReferences":{},"object":"6080806040523460145760b490816100198239f35b5f80fdfe60808060405260043610156011575f80fd5b5f3560e01c637bcab33a146023575f80fd5b6020366003190112605057600435906001600160a01b0382168203605057604a6020926054565b15158152f35b5f80fd5b3415908115606b575b50156066575f90565b600190565b6001600160a01b031633141590505f605d56fea264697066735822122084831223c6bf50e00183c8889d46d8a7ceba709a9e723c7e8756a976970487e264736f6c63430008140033","opcodes":"PUSH1 0x80 DUP1 PUSH1 0x40 MSTORE CALLVALUE PUSH1 0x14 JUMPI PUSH1 0xB4 SWAP1 DUP2 PUSH2 0x19 DUP3 CODECOPY RETURN JUMPDEST PUSH0 DUP1 REVERT INVALID PUSH1 0x80 DUP1 PUSH1 0x40 MSTORE PUSH1 0x4 CALLDATASIZE LT ISZERO PUSH1 0x11 JUMPI PUSH0 DUP1 REVERT JUMPDEST PUSH0 CALLDATALOAD PUSH1 0xE0 SHR PUSH4 0x7BCAB33A EQ PUSH1 0x23 JUMPI PUSH0 DUP1 REVERT JUMPDEST PUSH1 0x20 CALLDATASIZE PUSH1 0x3 NOT ADD SLT PUSH1 0x50 JUMPI PUSH1 0x4 CALLDATALOAD SWAP1 PUSH1 0x1 PUSH1 0x1 PUSH1 0xA0 SHL SUB DUP3 AND DUP3 SUB PUSH1 0x50 JUMPI PUSH1 0x4A PUSH1 0x20 SWAP3 PUSH1 0x54 JUMP JUMPDEST ISZERO ISZERO DUP2 MSTORE RETURN JUMPDEST PUSH0 DUP1 REVERT JUMPDEST CALLVALUE ISZERO SWAP1 DUP2 ISZERO PUSH1 0x6B JUMPI JUMPDEST POP ISZERO PUSH1 0x66 JUMPI PUSH0 SWAP1 JUMP JUMPDEST PUSH1 0x1 SWAP1 JUMP JUMPDEST PUSH1 0x1 PUSH1 0x1 PUSH1 0xA0 SHL SUB AND CALLER EQ ISZERO SWAP1 POP PUSH0 PUSH1 0x5D JUMP INVALID LOG2 PUSH5 0x6970667358 0x22 SLT KECCAK256 DUP5 DUP4 SLT 0x23 0xC6 0xBF POP 0xE0 ADD DUP4 0xC8 DUP9 SWAP14 CHAINID 0xD8 0xA7 0xCE 0xBA PUSH17 0x9A9E723C7E8756A976970487E264736F6C PUSH4 0x43000814 STOP CALLER "},"methodIdentifiers":{"fundUpkeep(address)":"7bcab33a"}}}}}