{"contracts/learntgehterPostConsensus.sol":{"learntgetherPostConsensus":{"abi":[{"inputs":[{"internalType":"address","name":"_CommunityConsensusAddress","type":"address"},{"internalType":"address","name":"_MembersContract","type":"address"},{"internalType":"address","name":"_PostContract","type":"address"},{"internalType":"uint256","name":"_fee","type":"uint256"},{"internalType":"address payable","name":"_feeAddress","type":"address"}],"stateMutability":"nonpayable","type":"constructor"},{"anonymous":false,"inputs":[{"indexed":false,"internalType":"uint256","name":"communitySubmissionId","type":"uint256"},{"indexed":false,"internalType":"uint256","name":"index","type":"uint256"}],"name":"ActiveSubmissionsIndexUpdated","type":"event"},{"anonymous":false,"inputs":[{"indexed":true,"internalType":"uint256","name":"communtiySubmissionId","type":"uint256"},{"indexed":true,"internalType":"string","name":"communityName","type":"string"},{"indexed":false,"internalType":"uint256","name":"timestamp","type":"uint256"},{"indexed":false,"internalType":"uint256","name":"consensusTime","type":"uint256"}],"name":"CommunitySubmitted","type":"event"},{"anonymous":false,"inputs":[{"indexed":true,"internalType":"uint256","name":"communitySubmissionId","type":"uint256"},{"indexed":false,"internalType":"uint256","name":"postId","type":"uint256"},{"indexed":false,"internalType":"string","name":"newConsensus","type":"string"}],"name":"ConsensusUpdated","type":"event"},{"anonymous":false,"inputs":[{"indexed":false,"internalType":"uint256","name":"postId","type":"uint256"},{"indexed":false,"internalType":"string","name":"keyword","type":"string"}],"name":"Keywords","type":"event"},{"anonymous":false,"inputs":[{"indexed":true,"internalType":"uint256","name":"postId","type":"uint256"},{"indexed":true,"internalType":"uint256","name":"communitySubmissionId","type":"uint256"}],"name":"PostSubmission","type":"event"},{"anonymous":false,"inputs":[{"indexed":true,"internalType":"uint256","name":"reviewId","type":"uint256"},{"indexed":true,"internalType":"uint256","name":"communitySubmissionId","type":"uint256"},{"indexed":true,"internalType":"address","name":"member","type":"address"}],"name":"ReviewCreated","type":"event"},{"anonymous":false,"inputs":[{"indexed":true,"internalType":"uint256","name":"reviewId","type":"uint256"},{"indexed":false,"internalType":"string","name":"consensus","type":"string"},{"indexed":false,"internalType":"uint256","name":"creds","type":"uint256"},{"indexed":false,"internalType":"string","name":"content","type":"string"}],"name":"ReviewSubmitted","type":"event"},{"inputs":[{"internalType":"uint256","name":"","type":"uint256"}],"name":"ActiveSubmissions","outputs":[{"internalType":"uint256","name":"","type":"uint256"}],"stateMutability":"view","type":"function"},{"inputs":[{"internalType":"uint256","name":"","type":"uint256"}],"name":"ActiveSubmissionsIndexes","outputs":[{"internalType":"uint256","name":"","type":"uint256"}],"stateMutability":"view","type":"function"},{"inputs":[],"name":"CommunityConsensusContract","outputs":[{"internalType":"contract learntgetherCommunityConsensusInterface","name":"","type":"address"}],"stateMutability":"view","type":"function"},{"inputs":[{"internalType":"uint256","name":"","type":"uint256"}],"name":"CommunitySubmissionToPost","outputs":[{"internalType":"uint256","name":"","type":"uint256"}],"stateMutability":"view","type":"function"},{"inputs":[{"internalType":"uint256","name":"","type":"uint256"}],"name":"CommunitySubmissions","outputs":[{"internalType":"string","name":"communityName","type":"string"},{"internalType":"string","name":"consensusType","type":"string"},{"internalType":"uint256","name":"timestamp","type":"uint256"},{"internalType":"uint256","name":"consensusTime","type":"uint256"}],"stateMutability":"view","type":"function"},{"inputs":[],"name":"MembersContract","outputs":[{"internalType":"contract learntgetherMembersInterface","name":"","type":"address"}],"stateMutability":"view","type":"function"},{"inputs":[{"internalType":"uint256","name":"","type":"uint256"},{"internalType":"uint256","name":"","type":"uint256"}],"name":"PostSubmissionList","outputs":[{"internalType":"uint256","name":"","type":"uint256"}],"stateMutability":"view","type":"function"},{"inputs":[],"name":"PostsContract","outputs":[{"internalType":"contract learntgetherPostsInterface","name":"","type":"address"}],"stateMutability":"view","type":"function"},{"inputs":[],"name":"checkUpkeep","outputs":[{"internalType":"bool","name":"upkeepNeeded","type":"bool"},{"internalType":"bytes","name":"performData","type":"bytes"}],"stateMutability":"view","type":"function"},{"inputs":[],"name":"consensusFee","outputs":[{"internalType":"uint256","name":"","type":"uint256"}],"stateMutability":"view","type":"function"},{"inputs":[],"name":"csCounter","outputs":[{"internalType":"uint256","name":"","type":"uint256"}],"stateMutability":"view","type":"function"},{"inputs":[],"name":"getActiveSubmissions","outputs":[{"internalType":"uint256[]","name":"","type":"uint256[]"}],"stateMutability":"view","type":"function"},{"inputs":[{"internalType":"uint256","name":"_postId","type":"uint256"}],"name":"getActiveSubmissionsIndex","outputs":[{"internalType":"uint256","name":"","type":"uint256"}],"stateMutability":"view","type":"function"},{"inputs":[],"name":"getActiveSubmissionsLength","outputs":[{"internalType":"uint256","name":"","type":"uint256"}],"stateMutability":"view","type":"function"},{"inputs":[{"internalType":"uint256","name":"_communitySubmissionId","type":"uint256"}],"name":"getCommunitySubmission","outputs":[{"components":[{"internalType":"string","name":"communityName","type":"string"},{"internalType":"string","name":"consensusType","type":"string"},{"internalType":"uint256","name":"timestamp","type":"uint256"},{"internalType":"uint256","name":"consensusTime","type":"uint256"}],"internalType":"struct learntgetherPostConsensus.CommunitySubmission","name":"","type":"tuple"}],"stateMutability":"view","type":"function"},{"inputs":[{"internalType":"uint256","name":"_submissionId","type":"uint256"}],"name":"getPostConsesous","outputs":[{"internalType":"string","name":"consensus","type":"string"}],"stateMutability":"view","type":"function"},{"inputs":[{"internalType":"uint256","name":"_reviewId","type":"uint256"}],"name":"getReview","outputs":[{"components":[{"internalType":"address","name":"member","type":"address"},{"internalType":"string","name":"content","type":"string"},{"internalType":"uint256","name":"consensus","type":"uint256"},{"internalType":"string","name":"consensusType","type":"string"},{"internalType":"uint256","name":"creds","type":"uint256"}],"internalType":"struct learntgetherPostConsensus.Review","name":"","type":"tuple"}],"stateMutability":"view","type":"function"},{"inputs":[{"internalType":"uint256","name":"_reviewid","type":"uint256"}],"name":"getReviewConsenous","outputs":[{"internalType":"uint256","name":"consensus","type":"uint256"},{"internalType":"uint256","name":"creds","type":"uint256"}],"stateMutability":"view","type":"function"},{"inputs":[{"internalType":"uint256","name":"_submissionId","type":"uint256"}],"name":"getReviewsForSubmission","outputs":[{"internalType":"uint256[]","name":"","type":"uint256[]"}],"stateMutability":"view","type":"function"},{"inputs":[{"internalType":"uint256","name":"","type":"uint256"},{"internalType":"address","name":"","type":"address"}],"name":"hasReviewed","outputs":[{"internalType":"bool","name":"","type":"bool"}],"stateMutability":"view","type":"function"},{"inputs":[],"name":"maxReviews","outputs":[{"internalType":"uint256","name":"","type":"uint256"}],"stateMutability":"view","type":"function"},{"inputs":[{"internalType":"bytes","name":"_performData","type":"bytes"}],"name":"performUpkeep","outputs":[],"stateMutability":"nonpayable","type":"function"},{"inputs":[{"internalType":"uint256","name":"","type":"uint256"},{"internalType":"string","name":"","type":"string"}],"name":"postCommunities","outputs":[{"internalType":"uint256","name":"","type":"uint256"}],"stateMutability":"view","type":"function"},{"inputs":[],"name":"reviewCounter","outputs":[{"internalType":"uint256","name":"","type":"uint256"}],"stateMutability":"view","type":"function"},{"inputs":[{"internalType":"uint256","name":"","type":"uint256"}],"name":"reviews","outputs":[{"internalType":"address","name":"member","type":"address"},{"internalType":"string","name":"content","type":"string"},{"internalType":"uint256","name":"consensus","type":"uint256"},{"internalType":"string","name":"consensusType","type":"string"},{"internalType":"uint256","name":"creds","type":"uint256"}],"stateMutability":"view","type":"function"},{"inputs":[{"internalType":"address","name":"_contractAddress","type":"address"}],"name":"setAutomationRegistry","outputs":[],"stateMutability":"nonpayable","type":"function"},{"inputs":[{"internalType":"address","name":"_contractAddress","type":"address"}],"name":"setCommunitiesContract","outputs":[],"stateMutability":"nonpayable","type":"function"},{"inputs":[{"internalType":"uint256","name":"_feePrice","type":"uint256"}],"name":"setFee","outputs":[],"stateMutability":"nonpayable","type":"function"},{"inputs":[{"internalType":"address payable","name":"_feeAddress","type":"address"}],"name":"setFeeAddress","outputs":[],"stateMutability":"nonpayable","type":"function"},{"inputs":[{"internalType":"uint256","name":"_maxreviews","type":"uint256"}],"name":"setMaxReviews","outputs":[],"stateMutability":"nonpayable","type":"function"},{"inputs":[{"internalType":"address","name":"_contractAddress","type":"address"}],"name":"setMembersContract","outputs":[],"stateMutability":"nonpayable","type":"function"},{"inputs":[{"internalType":"address","name":"_contractAddress","type":"address"}],"name":"setPostsContract","outputs":[],"stateMutability":"nonpayable","type":"function"},{"inputs":[{"internalType":"string[]","name":"_deafultArray","type":"string[]"}],"name":"setdefaultConsenousTypes","outputs":[],"stateMutability":"nonpayable","type":"function"},{"inputs":[{"internalType":"uint256","name":"_communitySubmissionId","type":"uint256"},{"internalType":"string","name":"_content","type":"string"},{"internalType":"uint256","name":"_consensus","type":"uint256"}],"name":"submitReview","outputs":[{"internalType":"uint256","name":"","type":"uint256"}],"stateMutability":"nonpayable","type":"function"},{"inputs":[{"internalType":"uint256","name":"_postId","type":"uint256"},{"internalType":"string","name":"_communityName","type":"string"}],"name":"submitToCommunity","outputs":[{"internalType":"uint256","name":"","type":"uint256"}],"stateMutability":"payable","type":"function"},{"inputs":[{"internalType":"uint256","name":"","type":"uint256"},{"internalType":"uint256","name":"","type":"uint256"}],"name":"submmisionReviews","outputs":[{"internalType":"uint256","name":"","type":"uint256"}],"stateMutability":"view","type":"function"}],"evm":{"bytecode":{"linkReferences":{},"object":"608034620003b957601f62002b6738819003918201601f191683019291906001600160401b03841183851017620001fe578160a09284926040968752833981010312620003b9576200005181620003dd565b906200006060208201620003dd565b906200006e848201620003dd565b6060820151608090920151926001600160a01b0384168403620003b9578551606081016001600160401b03811182821017620001fe578752620000b0620003bd565b6012815271436f6e73656e736f75732050656e64696e6760701b60208201528152620000db620003bd565b90600891828152671058d8d95c1d195960c21b6020820152602082015262000102620003bd565b8281526714995a9958dd195960c21b602082015288820152815460038355806003106200033b575b50905f5260205f20905f905b60038210620002125750505060018060a01b0319943386601254161760125560018060a01b031685600d541617600d5560018060a01b031684600e541617600e5560018060a01b031683600f541617600f5560105560018060a01b03169060135416176013556001600655600160025560095468010000000000000000811015620001fe576001810180600955811015620001ea575f90600982526020822001556064601155516127219081620004468239f35b634e487b7160e01b5f52603260045260245ffd5b634e487b7160e01b5f52604160045260245ffd5b80518051906001600160401b038211620001fe57620002328554620003f2565b601f8111620002fb575b50602090601f83116001146200028b5792826001949360209386955f926200027f575b50505f19600383901b1c191690841b1786555b0193019101909162000136565b015190505f806200025f565b90855f5260205f20915f5b601f1985168110620002e257509260209260019592869583601f19811610620002c9575b505050831b8301865562000272565b01515f1960f88460031b161c191690555f8080620002ba565b9192602060018192868501518155019401920162000296565b6200032990865f5260205f206005601f8601811c8201926020871062000330575b601f01901c01906200042d565b5f6200023c565b91925082916200031c565b5f83815260036020822092830192015b8281106200035b5750506200012a565b80826200036b60019354620003f2565b806200037b575b5050016200034b565b601f8111841462000392575081555b825f62000372565b828252620003af601f60208420920160051c82018583016200042d565b818355556200038a565b5f80fd5b60408051919082016001600160401b03811183821017620001fe57604052565b51906001600160a01b0382168203620003b957565b90600182811c9216801562000422575b60208310146200040e57565b634e487b7160e01b5f52602260045260245ffd5b91607f169162000402565b81811062000439575050565b5f81556001016200042d56fe6080806040526004361015610012575f80fd5b5f3560e01c908163059597f7146121a9575080631651902a1461217a5780633c09203b1461211e5780634215c5e4146121015780634585e33b14611dcf57806347631adb14611da75780634ed5981214611d8a5780635ff2d2aa14611d2e5780636356eea41461166d57806369fe0e2d146116335780636c79bd2b146115ce57806374f0c641146115b15780637c7198cc146115635780638705fcd41461150057806393a018be14610b21578063990581b614611400578063a13abdad14611088578063a59400411461106b578063ac97980d14611041578063ad2957ff14610fe5578063b9e2fc3e14610faf578063bdf5db3914610f2c578063c5dce24d14610e9f578063d1a34aa314610e57578063d39065fa14610dfb578063d3a3f77114610db7578063d8db380714610b4b578063de78ab7c14610b21578063de8b32c514610a4c578063e148577614610a24578063e168b3a814610a07578063e83ddcea14610960578063ea487a92146108f9578063ee8eb507146108c2578063eeb0cf76146108845763fa1396f5146101a8575f80fd5b6101b136612441565b600f54604051632c89540360e21b8152600481018490526001600160a01b0393916020908290602490829088165afa90811561079c575f91610865575b501561082a5782600d5416906040516324c9db2f60e01b8152602060048201526020818061021f6024820188612353565b0381865afa90811561079c575f916107fb575b50156107a75760206040518093633bebe05160e01b8252826004830152818061025e6024820189612353565b03915afa91821561079c575f92610764575b5060405161027d81612240565b8381526040519060208201956001600160401b039683811088821117610522576040525f83526020820192835242604083015284606083015284155f146105a557506040516102cb8161225b565b600d81526c4e6f20436f6e73656e736f757360981b602082015282525b6002545f525f60205260405f20918151805190888211610522578190610318826103128854612378565b886124dd565b602090601f8311600114610541575f92610536575b50508160011b915f199060031b1c19161783555b51958651908111610522576103668161035d6001860154612378565b600186016124dd565b6020601f82116001146104b05791816060926003946104779a5f926104a5575b50505f1982861b1c1916600191821b17908501555b604081015160028501550151910155805f5260036020526103c260405f20600254906124a2565b6002545f5260016020528060405f20557fd3f28a1c655091033012bc55d258bf3cbd4ea4fb8bc2ff81c626a2aad9354e46604060025494858481955f526004602052610460845f20838651602081885194828a0195610422818489612332565b82019081520301902055855194859485947fe4c157bdf18b292c67a85f8afa9036d1fd70e345be3ad305fafc7841c4801a3f5f80a351928391612332565b8101039020938151904282526020820152a3612520565b806002555f19810190811161049157602090604051908152f35b634e487b7160e01b5f52601160045260245ffd5b015190505f80610386565b600184015f5260205f20975f5b601f198416811061050a5750826104779960039593600193606096601f198116106104f3575b505050811b01600185015561039b565b01515f1983881b60f8161c191690555f80806104e3565b828201518a55600190990198602092830192016104bd565b634e487b7160e01b5f52604160045260245ffd5b015190505f8061032d565b5f878152602081209350601f198516905b81811061058d5750908460019594939210610575575b505050811b018355610341565b01515f1960f88460031b161c191690555f8080610568565b92936020600181928786015181550195019301610552565b6010543403610726575f808080933490601354165af13d15610721573d6105cb81612297565b906105d96040519283612276565b81525f60203d92013e5b156106e557600854156106d15760085f5260405161062c81610625817ff3f7a9fe364faab93b216da50a3214154f22a0a2b415b23a84c8169e8b636ee36123b0565b0382612276565b825260025460095490600160401b8210156105225761065482600161066c94016009556121e2565b90919082549060031b91821b915f19901b1916179055565b6009545f1990818101908111610491576002545f52600a60205260405f205560025490600954908101908111610491577f2f5a4ee168dca9eaef284f1844a3d24d74ba63a5fccc947454fc07515c8b37749160409182519182526020820152a16102e8565b634e487b7160e01b5f52603260045260245ffd5b60405162461bcd60e51b81526020600482015260146024820152732330b4b632b2103a379039b2b7321022ba3432b960611b6044820152606490fd5b6105e3565b60405162461bcd60e51b81526020600482015260166024820152754d7573742073656e642070726f706f73616c2066656560501b6044820152606490fd5b9091506020813d602011610794575b8161078060209383612276565b810103126107905751905f610270565b5f80fd5b3d9150610773565b6040513d5f823e3d90fd5b60405162461bcd60e51b815260206004820152602660248201527f436f6d6d756e69747920436f6e73656e73757320506172616d7320646f6e277460448201526508195e1a5cdd60d21b6064820152608490fd5b61081d915060203d602011610823575b6108158183612276565b81019061248a565b5f610232565b503d61080b565b60405162461bcd60e51b8152602060048201526013602482015272141bdcdd08191bd95cc81b9bdd08195e1a5cdd606a1b6044820152606490fd5b61087e915060203d602011610823576108158183612276565b5f6101ee565b3461079057610892366121cc565b905f52600360205260405f208054821015610790576020916108b3916121fa565b90549060031b1c604051908152f35b3461079057602036600319011261079057600435600954811015610790576108eb6020916121e2565b90546040519160031b1c8152f35b3461079057602036600319011261079057600435805f525f602052610926600260405f200154151561252e565b5f525f60205261095c610625610948600160405f2001604051928380926123b0565b604051918291602083526020830190612353565b0390f35b34610790576020366003190112610790576004355f52600560205260405f2060018060a01b03815416604051916109a58361099e81600185016123b0565b0384612276565b6109fd60028201546004604051936109cb856109c481600385016123b0565b0386612276565b0154926109ea604051968796875260a0602088015260a0870190612353565b9160408601528482036060860152612353565b9060808301520390f35b34610790575f366003190112610790576020600654604051908152f35b34610790575f36600319011261079057600e546040516001600160a01b039091168152602090f35b3461079057602080600319360112610790576080905f6060604051610a7081612240565b818152818482015282604082015201526004355f525f815260405f2060405191610a9983612240565b604051610aaa8161062581866123b0565b8352610b10604051610ac38161062581600188016123b0565b828501908152610afd60036002860154956040880196875201549360608701948552604051978897828952519188015260a0870190612353565b9051858203601f19016040870152612353565b915160608401525160808301520390f35b34610790576020366003190112610790576004355f52600a602052602060405f2054604051908152f35b346107905760208060031936011261079057600435906001600160401b0390818311610790573660238401121561079057826004013591610b8b83612473565b93610b996040519586612276565b83855282850194859160249687600597881b8301019136831161079057888101915b838310610d91575050601254610be89250336001600160a01b039182161491508115610d83575b506125ac565b5193600160401b8511610d70576008549085600855818610610d01575b5050939060085f52825f20915f955b858710610c1d57005b8051805190848211610cee57908691610c4082610c3a8954612378565b896124dd565b8290601f8311600114610c87579180600195928695945f92610c7c575b50505f19600383901b1c191690841b1787555b01940196019592610c14565b015190508c80610c5d565b90601f19831691885f52845f20925f5b818110610cd65750916001969391858897969410610cbe575b505050831b83018755610c70565b01515f1960f88460031b161c191690558b8080610cb0565b8284015185558b966001909501949384019301610c97565b83634e487b7160e01b5f5260416004525ffd5b60085f5285855f2092830192015b828110610d1c5750610c05565b80610d2960019254612378565b80610d36575b5001610d0f565b601f908181118414610d4e5750505f81555b89610d2f565b610d675f928484528a84209201861c82018583016124c7565b81835555610d48565b85634e487b7160e01b5f5260416004525ffd5b9050600c5416331488610be2565b8235878111610790578891610dac83928d36918701016122b2565b815201920191610bbb565b34610790576020610de981610dcb36612441565b905f526004825260405f208260405194838680955193849201612332565b82019081520301902054604051908152f35b3461079057602036600319011261079057610e1461220f565b6012546001600160a01b039190821633148015610e4a575b610e35906125ac565b1660018060a01b0319600f541617600f555f80f35b50600c5482163314610e2c565b3461079057602036600319011261079057601254610e8990336001600160a01b0391821614908115610e9157506125ac565b600435601155005b9050600c5416331482610be2565b34610790576020366003190112610790576004355f525f602052610f0f60405f2060405190610ed982610ed281846123b0565b0383612276565b604051610eed8161062581600186016123b0565b610f1d6003600284015493015491604051958695608087526080870190612353565b908582036020870152612353565b91604084015260608301520390f35b34610790575f36600319011261079057604051600980548083525f918252602080840193927f6e1540171b6c0c960b71a7020d9f60077f6af931a8bbf590da0223dacf75c7af92915b828210610f985761095c85610f8c81890382612276565b604051918291826122f8565b835486529485019460019384019390910190610f75565b34610790576020366003190112610790576004355f5260056020526040805f206004600282015491015482519182526020820152f35b3461079057602036600319011261079057610ffe61220f565b6012546001600160a01b039190821633148015611034575b61101f906125ac565b1660018060a01b0319600d541617600d555f80f35b50600c5482163314611016565b34610790576020366003190112610790576004355f526001602052602060405f2054604051908152f35b34610790575f366003190112610790576020600254604051908152f35b34610790575f366003190112610790575f805f600954806110da575b5050604051916020830152602082526110bc8261225b565b61095c60405192839215158352604060208401526040830190612353565b5f60015b82811061136857505050806110f4575b806110a4565b90915060018060a01b03600d5416815f525f60205260405f209060606040518092632691798960e01b8252602060048301528180611137602497888301906123b0565b03915afa91821561079c575f905f925f94611327575b50845f52600760205260405f2091604051808460208296549384815201905f5260205f20925f5b81811061130e57505061118992500384612276565b825193818510156111ab575050505050506111a390612597565b905b826110ee565b5f935f95601154908181115f146113065750905b5f5b82811061124f5750505050831580918115611245575b50156111f15750505050506111eb90612597565b906111a5565b6064830292808404606414901517156112315761121e5750041061121557906111a5565b6111eb90612597565b634e487b7160e01b5f9081526012600452fd5b50634e487b7160e01b5f9081526011600452fd5b90508410886111d7565b6112598183612583565b5160405190635cf17e1f60e11b825260048201526040818881305afa801561079c5785905f925f916112cb575b50101561129d575b5061129890612520565b6111c1565b976112a9600291612520565b98146112b6575b8b61128e565b956112c361129891612520565b9690506112b0565b925050506040813d6040116112fe575b816112e860409383612276565b810103126107905784602082519201518e611286565b3d91506112db565b9050906111bf565b8454835260019485019488945060209093019201611174565b92509250506060813d8211611360575b8161134460609383612276565b810103126107905780516020820151604090920151928661114d565b3d9150611337565b611371816121e2565b9054600391821b1c5f526113ac60205f81525f600260408220015491611396866121e2565b905490861b1c8252528260405f20015490612576565b42811115806113ee575b6113cb575b50506113c690612520565b6110de565b9450945090506113c66001946113e0836121e2565b9054911b1c939190876113bb565b5083811115806113b6575083156113b6565b3461079057602080600319360112610790575f608060405161142181612225565b82815260608482015282604082015260608082015201526004355f526005815260405f20906040519061145382612225565b82546001600160a01b03908116835260405190936114f5919061147d82610ed281600185016123b0565b8385019182526114dc600282015492604087019384526004604051936114aa856109c481600385016123b0565b6060890194855201549560808801968752604051988998828a525116908801525160a0604088015260c0870190612353565b9151606086015251848203601f19016080860152612353565b905160a08301520390f35b34610790576020366003190112610790576004356001600160a01b0381811691829003610790578061153f9160125416331490811561155557506125ac565b601380546001600160a01b031916919091179055005b9050600c5416331483610be2565b34610790576040366003190112610790576024356001600160a01b03811690819003610790576004355f52600b60205260405f20905f52602052602060ff60405f2054166040519015158152f35b34610790575f366003190112610790576020600954604051908152f35b3461079057602080600319360112610790576004355f526007815260405f209060405190818184549182815201935f52815f20915f905b82821061161c5761095c85610f8c81890382612276565b835486529485019460019384019390910190611605565b346107905760203660031901126107905760125461166590336001600160a01b0391821614908115610e9157506125ac565b600435601055005b34610790576060366003190112610790576024356001600160401b0381116107905761169d9036906004016122b2565b6004355f525f6020526116b8600260405f200154151561252e565b6116f75f60018060a01b03600d541660043582528160205260408220906040518080958194626e7c3160e91b83526020600484015260248301906123b0565b03915afa90811561079c575f91611c18575b50604435916001831115611bd457611725600854835190612576565b8311611b94576004355f52600b60205260405f20335f5260205260ff60405f205416611b45576117b5916004355f52600b60205260405f20335f5260205260405f20600160ff19825416179055602060018060a01b03600e54166004355f525f825260405f209060405180809781946302b5df5960e01b83523360048401526040602484015260448301906123b0565b03915afa92831561079c575f93611b11575b5060085490818511611aed57505f19908482018581116104915710156106d1576118056106259160085f528560205f200101604051928380926123b0565b6040519361181285612225565b338552602085019083825260408601528160608601528360808601526006545f52600560205260405f209060018060a01b0386511660018060a01b03198354161782555180516001600160401b038111610522578060018401926118808261187a8654612378565b866124dd565b602090601f8311600114611a89575f92611a7e575b50508160011b915f199060031b1c19161790555b6040850151600282015560608501519485516001600160401b038111610522576118e3816118da6003860154612378565b600386016124dd565b6020601f82116001146119e55760807fdf5898210dfd85b69a1551c8ec0bb02719a41f3283eadd1145b9bffc9f2e17309593836119a596946004946119c09c5f926119da575b50508160011b915f199060031b1c19161760038501555b01519101556004355f52600760205261195f60405f20600654906124a2565b6119b8600654958695604051948594336004358a7f953de3727de1848ea7329bee97a44132bdd8271d8d663eb90bc2772f21541ec85f80a4606086526060860190612353565b9160208501528382036040850152612353565b0390a2612520565b806006555f19810190811161049157602090604051908152f35b015190508c80611929565b600384015f5260205f20975f5b601f1984168110611a6657507fdf5898210dfd85b69a1551c8ec0bb02719a41f3283eadd1145b9bffc9f2e173095936001846119c09b6004956080956119a59a98601f19811610611a4e575b505050811b016003850155611940565b01515f1960f88460031b161c191690558c8080611a3e565b828201518a55600190990198602092830192016119f2565b015190508880611895565b5f858152602081209350601f198516905b818110611ad55750908460019594939210611abd575b505050811b0190556118a9565b01515f1960f88460031b161c19169055888080611ab0565b92936020600181928786015181550195019301611a9a565b908403848111610491575f19810190811161049157611b0b91612583565b51611805565b9092506020813d602011611b3d575b81611b2d60209383612276565b81010312610790575191846117c7565b3d9150611b20565b60405162461bcd60e51b815260206004820152602160248201527f596f7527766520616c7265616479207265766965776564207468697320706f736044820152601d60fa1b6064820152608490fd5b60405162461bcd60e51b8152602060048201526018602482015277436f6e73656e736f7573204e6f7420496e20426f756e647360401b6044820152606490fd5b606460405162461bcd60e51b815260206004820152602060248201527f436f6e73656e736f7573206d75732062652067726561746572207468616e20316044820152fd5b3d9150815f823e611c298282612276565b60208183810103126107905780516001600160401b03811161079057828201601f828401011215610790578082015190611c6282612473565b93611c706040519586612276565b828552602085019080850160208560051b85880101011161079057602083860101915b60208560051b85880101018310611cb05750505050505082611709565b82516001600160401b03811161079057828701603f82878a010101121561079057602081868901010151611ce381612297565b92611cf16040519485612276565b818452848901604083858a8d01010101116107905783611d21602095938b604088978c8980990193010101612332565b8152019301929050611c93565b3461079057602036600319011261079057611d4761220f565b6012546001600160a01b039190821633148015611d7d575b611d68906125ac565b1660018060a01b0319600c541617600c555f80f35b50600c5482163314611d5f565b34610790575f366003190112610790576020601154604051908152f35b34610790575f36600319011261079057600d546040516001600160a01b039091168152602090f35b3461079057602080600319360112610790576001600160401b0390600435828111610790573660238201121561079057806004013592831161079057828101602493368583011161079057601254849190611e3e90336001600160a01b0391821614908115610d8357506125ac565b14611e4557005b818391031261079057820135905f8213156120d95760015b821515806120b3575b8061209d575b80612089575b611e7857005b6001901515810361203857600854811015612025577f3ed188edba0c6b2d9b7a54cec2942f1cab56a63a4dcfdca5ff11706ffdf25b1e839160085f52611ecd81855f2001845f525f86528260405f2001612617565b825f5280845260405f2054905f855260405f200190611efd604051928392835260408784015260408301906123b0565b0390a2815f52600a815260405f205490600954925f199384810190811161201257808403611f6f575b50600a92505f52525f60408120556009548015611f5c5781019150611f4a826121e2565b909182549160031b1b19169055600955005b82634e487b7160e01b5f5260316004525ffd5b611f7b611fa3916121e2565b9054611f86866121e2565b91909260031b1c9082549060031b91821b915f19901b1916179055565b600954928484019384116120125760407f2f5a4ee168dca9eaef284f1844a3d24d74ba63a5fccc947454fc07515c8b377491611fe0600a966121e2565b90549060031b1c5f5285855280825f2055611ffa816121e2565b90549060031b1c90825191825285820152a185611f26565b85634e487b7160e01b5f5260116004525ffd5b83634e487b7160e01b5f5260326004525ffd5b60085460021015612025577f3ed188edba0c6b2d9b7a54cec2942f1cab56a63a4dcfdca5ff11706ffdf25b1e839160085f526120846002855f2001845f525f86528260405f2001612617565b611ecd565b50825f52600a825260405f20541515611e72565b50825f525f8252600260405f2001541515611e6c565b50825f525f82526120d160405f206003600282015491015490612576565b421015611e66565b5f91600160ff1b81146120ee575f0391611e5d565b83634e487b7160e01b5f5260116004525ffd5b34610790575f366003190112610790576020601054604051908152f35b346107905760203660031901126107905761213761220f565b6012546001600160a01b03919082163314801561216d575b612158906125ac565b1660018060a01b0319600e541617600e555f80f35b50600c548216331461214f565b3461079057612188366121cc565b905f52600760205260405f208054821015610790576020916108eb916121fa565b34610790575f36600319011261079057600f546001600160a01b03168152602090f35b6040906003190112610790576004359060243590565b6009548110156106d15760095f5260205f2001905f90565b80548210156106d1575f5260205f2001905f90565b600435906001600160a01b038216820361079057565b60a081019081106001600160401b0382111761052257604052565b608081019081106001600160401b0382111761052257604052565b604081019081106001600160401b0382111761052257604052565b90601f801991011681019081106001600160401b0382111761052257604052565b6001600160401b03811161052257601f01601f191660200190565b81601f82011215610790578035906122c982612297565b926122d76040519485612276565b8284526020838301011161079057815f926020809301838601378301015290565b602090816040818301928281528551809452019301915f5b82811061231e575050505090565b835185529381019392810192600101612310565b5f5b8381106123435750505f910152565b8181015183820152602001612334565b9060209161236c81518092818552858086019101612332565b601f01601f1916010190565b90600182811c921680156123a6575b602083101461239257565b634e487b7160e01b5f52602260045260245ffd5b91607f1691612387565b905f92918054916123c083612378565b9182825260019384811690815f1461241e57506001146123e1575b50505050565b90919394505f52602092835f2092845f945b83861061240a57505050500101905f8080806123db565b8054858701830152940193859082016123f3565b9294505050602093945060ff191683830152151560051b0101905f8080806123db565b9060406003198301126107905760043591602435906001600160401b03821161079057612470916004016122b2565b90565b6001600160401b0381116105225760051b60200190565b90816020910312610790575180151581036107905790565b80549190600160401b83101561052257826106549160016124c5950181556121fa565b565b8181106124d2575050565b5f81556001016124c7565b9190601f81116124ec57505050565b6124c5925f5260205f20906020601f840160051c83019310612516575b601f0160051c01906124c7565b9091508190612509565b5f1981146104915760010190565b1561253557565b60405162461bcd60e51b815260206004820152601960248201527814dd589b5a5cdcda5bdb88191bd95cc81b9bdd08195e1a5cdd603a1b6044820152606490fd5b9190820180921161049157565b80518210156106d15760209160051b010190565b90815f03918083055f19149015171561049157565b156125b357565b60405162461bcd60e51b815260206004820152603660248201527f4e6f742074686520636f6e7472616374206f776e6572206f72204175746f6d616044820152751d1a5bdb88149959da5cdd1c9e4810dbdb9d1c9858dd60521b6064820152608490fd5b908082146126e7576126298154612378565b906001600160401b0382116105225781906126488261187a8654612378565b5f90601f831160011461267c575f92612671575b50508160011b915f199060031b1c1916179055565b015490505f8061265c565b81526020808220858352818320935090601f1985169083905b8282106126ce5750509084600195949392106126b6575b505050811b019055565b01545f1960f88460031b161c191690555f80806126ac565b8495819295850154815560018091019601940190612695565b505056fea2646970667358221220ed27828a478b591432b53c9c229a9d264a3436851f9e0aad2d9f586d38c6c06164736f6c63430008140033","opcodes":"PUSH1 0x80 CALLVALUE PUSH3 0x3B9 JUMPI PUSH1 0x1F PUSH3 0x2B67 CODESIZE DUP2 SWAP1 SUB SWAP2 DUP3 ADD PUSH1 0x1F NOT AND DUP4 ADD SWAP3 SWAP2 SWAP1 PUSH1 0x1 PUSH1 0x1 PUSH1 0x40 SHL SUB DUP5 GT DUP4 DUP6 LT OR PUSH3 0x1FE JUMPI DUP2 PUSH1 0xA0 SWAP3 DUP5 SWAP3 PUSH1 0x40 SWAP7 DUP8 MSTORE DUP4 CODECOPY DUP2 ADD SUB SLT PUSH3 0x3B9 JUMPI PUSH3 0x51 DUP2 PUSH3 0x3DD JUMP JUMPDEST SWAP1 PUSH3 0x60 PUSH1 0x20 DUP3 ADD PUSH3 0x3DD JUMP JUMPDEST SWAP1 PUSH3 0x6E DUP5 DUP3 ADD PUSH3 0x3DD JUMP JUMPDEST PUSH1 0x60 DUP3 ADD MLOAD PUSH1 0x80 SWAP1 SWAP3 ADD MLOAD SWAP3 PUSH1 0x1 PUSH1 0x1 PUSH1 0xA0 SHL SUB DUP5 AND DUP5 SUB PUSH3 0x3B9 JUMPI DUP6 MLOAD PUSH1 0x60 DUP2 ADD PUSH1 0x1 PUSH1 0x1 PUSH1 0x40 SHL SUB DUP2 GT DUP3 DUP3 LT OR PUSH3 0x1FE JUMPI DUP8 MSTORE PUSH3 0xB0 PUSH3 0x3BD JUMP JUMPDEST PUSH1 0x12 DUP2 MSTORE PUSH18 0x436F6E73656E736F75732050656E64696E67 PUSH1 0x70 SHL PUSH1 0x20 DUP3 ADD MSTORE DUP2 MSTORE PUSH3 0xDB PUSH3 0x3BD JUMP JUMPDEST SWAP1 PUSH1 0x8 SWAP2 DUP3 DUP2 MSTORE PUSH8 0x1058D8D95C1D1959 PUSH1 0xC2 SHL PUSH1 0x20 DUP3 ADD MSTORE PUSH1 0x20 DUP3 ADD MSTORE PUSH3 0x102 PUSH3 0x3BD JUMP JUMPDEST DUP3 DUP2 MSTORE PUSH8 0x14995A9958DD1959 PUSH1 0xC2 SHL PUSH1 0x20 DUP3 ADD MSTORE DUP9 DUP3 ADD MSTORE DUP2 SLOAD PUSH1 0x3 DUP4 SSTORE DUP1 PUSH1 0x3 LT PUSH3 0x33B JUMPI JUMPDEST POP SWAP1 PUSH0 MSTORE PUSH1 0x20 PUSH0 KECCAK256 SWAP1 PUSH0 SWAP1 JUMPDEST PUSH1 0x3 DUP3 LT PUSH3 0x212 JUMPI POP POP POP PUSH1 0x1 DUP1 PUSH1 0xA0 SHL SUB NOT SWAP5 CALLER DUP7 PUSH1 0x12 SLOAD AND OR PUSH1 0x12 SSTORE PUSH1 0x1 DUP1 PUSH1 0xA0 SHL SUB AND DUP6 PUSH1 0xD SLOAD AND OR PUSH1 0xD SSTORE PUSH1 0x1 DUP1 PUSH1 0xA0 SHL SUB AND DUP5 PUSH1 0xE SLOAD AND OR PUSH1 0xE SSTORE PUSH1 0x1 DUP1 PUSH1 0xA0 SHL SUB AND DUP4 PUSH1 0xF SLOAD AND OR PUSH1 0xF SSTORE PUSH1 0x10 SSTORE PUSH1 0x1 DUP1 PUSH1 0xA0 SHL SUB AND SWAP1 PUSH1 0x13 SLOAD AND OR PUSH1 0x13 SSTORE PUSH1 0x1 PUSH1 0x6 SSTORE PUSH1 0x1 PUSH1 0x2 SSTORE PUSH1 0x9 SLOAD PUSH9 0x10000000000000000 DUP2 LT ISZERO PUSH3 0x1FE JUMPI PUSH1 0x1 DUP2 ADD DUP1 PUSH1 0x9 SSTORE DUP2 LT ISZERO PUSH3 0x1EA JUMPI PUSH0 SWAP1 PUSH1 0x9 DUP3 MSTORE PUSH1 0x20 DUP3 KECCAK256 ADD SSTORE PUSH1 0x64 PUSH1 0x11 SSTORE MLOAD PUSH2 0x2721 SWAP1 DUP2 PUSH3 0x446 DUP3 CODECOPY RETURN JUMPDEST PUSH4 0x4E487B71 PUSH1 0xE0 SHL PUSH0 MSTORE PUSH1 0x32 PUSH1 0x4 MSTORE PUSH1 0x24 PUSH0 REVERT JUMPDEST PUSH4 0x4E487B71 PUSH1 0xE0 SHL PUSH0 MSTORE PUSH1 0x41 PUSH1 0x4 MSTORE PUSH1 0x24 PUSH0 REVERT JUMPDEST DUP1 MLOAD DUP1 MLOAD SWAP1 PUSH1 0x1 PUSH1 0x1 PUSH1 0x40 SHL SUB DUP3 GT PUSH3 0x1FE JUMPI PUSH3 0x232 DUP6 SLOAD PUSH3 0x3F2 JUMP JUMPDEST PUSH1 0x1F DUP2 GT PUSH3 0x2FB JUMPI JUMPDEST POP PUSH1 0x20 SWAP1 PUSH1 0x1F DUP4 GT PUSH1 0x1 EQ PUSH3 0x28B JUMPI SWAP3 DUP3 PUSH1 0x1 SWAP5 SWAP4 PUSH1 0x20 SWAP4 DUP7 SWAP6 PUSH0 SWAP3 PUSH3 0x27F JUMPI JUMPDEST POP POP PUSH0 NOT PUSH1 0x3 DUP4 SWAP1 SHL SHR NOT AND SWAP1 DUP5 SHL OR DUP7 SSTORE JUMPDEST ADD SWAP4 ADD SWAP2 ADD SWAP1 SWAP2 PUSH3 0x136 JUMP JUMPDEST ADD MLOAD SWAP1 POP PUSH0 DUP1 PUSH3 0x25F JUMP JUMPDEST SWAP1 DUP6 PUSH0 MSTORE PUSH1 0x20 PUSH0 KECCAK256 SWAP2 PUSH0 JUMPDEST PUSH1 0x1F NOT DUP6 AND DUP2 LT PUSH3 0x2E2 JUMPI POP SWAP3 PUSH1 0x20 SWAP3 PUSH1 0x1 SWAP6 SWAP3 DUP7 SWAP6 DUP4 PUSH1 0x1F NOT DUP2 AND LT PUSH3 0x2C9 JUMPI JUMPDEST POP POP POP DUP4 SHL DUP4 ADD DUP7 SSTORE PUSH3 0x272 JUMP JUMPDEST ADD MLOAD PUSH0 NOT PUSH1 0xF8 DUP5 PUSH1 0x3 SHL AND SHR NOT AND SWAP1 SSTORE PUSH0 DUP1 DUP1 PUSH3 0x2BA JUMP JUMPDEST SWAP2 SWAP3 PUSH1 0x20 PUSH1 0x1 DUP2 SWAP3 DUP7 DUP6 ADD MLOAD DUP2 SSTORE ADD SWAP5 ADD SWAP3 ADD PUSH3 0x296 JUMP JUMPDEST PUSH3 0x329 SWAP1 DUP7 PUSH0 MSTORE PUSH1 0x20 PUSH0 KECCAK256 PUSH1 0x5 PUSH1 0x1F DUP7 ADD DUP2 SHR DUP3 ADD SWAP3 PUSH1 0x20 DUP8 LT PUSH3 0x330 JUMPI JUMPDEST PUSH1 0x1F ADD SWAP1 SHR ADD SWAP1 PUSH3 0x42D JUMP JUMPDEST PUSH0 PUSH3 0x23C JUMP JUMPDEST SWAP2 SWAP3 POP DUP3 SWAP2 PUSH3 0x31C JUMP JUMPDEST PUSH0 DUP4 DUP2 MSTORE PUSH1 0x3 PUSH1 0x20 DUP3 KECCAK256 SWAP3 DUP4 ADD SWAP3 ADD JUMPDEST DUP3 DUP2 LT PUSH3 0x35B JUMPI POP POP PUSH3 0x12A JUMP JUMPDEST DUP1 DUP3 PUSH3 0x36B PUSH1 0x1 SWAP4 SLOAD PUSH3 0x3F2 JUMP JUMPDEST DUP1 PUSH3 0x37B JUMPI JUMPDEST POP POP ADD PUSH3 0x34B JUMP JUMPDEST PUSH1 0x1F DUP2 GT DUP5 EQ PUSH3 0x392 JUMPI POP DUP2 SSTORE JUMPDEST DUP3 PUSH0 PUSH3 0x372 JUMP JUMPDEST DUP3 DUP3 MSTORE PUSH3 0x3AF PUSH1 0x1F PUSH1 0x20 DUP5 KECCAK256 SWAP3 ADD PUSH1 0x5 SHR DUP3 ADD DUP6 DUP4 ADD PUSH3 0x42D JUMP JUMPDEST DUP2 DUP4 SSTORE SSTORE PUSH3 0x38A JUMP JUMPDEST PUSH0 DUP1 REVERT JUMPDEST PUSH1 0x40 DUP1 MLOAD SWAP2 SWAP1 DUP3 ADD PUSH1 0x1 PUSH1 0x1 PUSH1 0x40 SHL SUB DUP2 GT DUP4 DUP3 LT OR PUSH3 0x1FE JUMPI PUSH1 0x40 MSTORE JUMP JUMPDEST MLOAD SWAP1 PUSH1 0x1 PUSH1 0x1 PUSH1 0xA0 SHL SUB DUP3 AND DUP3 SUB PUSH3 0x3B9 JUMPI JUMP JUMPDEST SWAP1 PUSH1 0x1 DUP3 DUP2 SHR SWAP3 AND DUP1 ISZERO PUSH3 0x422 JUMPI JUMPDEST PUSH1 0x20 DUP4 LT EQ PUSH3 0x40E JUMPI JUMP JUMPDEST PUSH4 0x4E487B71 PUSH1 0xE0 SHL PUSH0 MSTORE PUSH1 0x22 PUSH1 0x4 MSTORE PUSH1 0x24 PUSH0 REVERT JUMPDEST SWAP2 PUSH1 0x7F AND SWAP2 PUSH3 0x402 JUMP JUMPDEST DUP2 DUP2 LT PUSH3 0x439 JUMPI POP POP JUMP JUMPDEST PUSH0 DUP2 SSTORE PUSH1 0x1 ADD PUSH3 0x42D JUMP INVALID PUSH1 0x80 DUP1 PUSH1 0x40 MSTORE PUSH1 0x4 CALLDATASIZE LT ISZERO PUSH2 0x12 JUMPI PUSH0 DUP1 REVERT JUMPDEST PUSH0 CALLDATALOAD PUSH1 0xE0 SHR SWAP1 DUP2 PUSH4 0x59597F7 EQ PUSH2 0x21A9 JUMPI POP DUP1 PUSH4 0x1651902A EQ PUSH2 0x217A JUMPI DUP1 PUSH4 0x3C09203B EQ PUSH2 0x211E JUMPI DUP1 PUSH4 0x4215C5E4 EQ PUSH2 0x2101 JUMPI DUP1 PUSH4 0x4585E33B EQ PUSH2 0x1DCF JUMPI DUP1 PUSH4 0x47631ADB EQ PUSH2 0x1DA7 JUMPI DUP1 PUSH4 0x4ED59812 EQ PUSH2 0x1D8A JUMPI DUP1 PUSH4 0x5FF2D2AA EQ PUSH2 0x1D2E JUMPI DUP1 PUSH4 0x6356EEA4 EQ PUSH2 0x166D JUMPI DUP1 PUSH4 0x69FE0E2D EQ PUSH2 0x1633 JUMPI DUP1 PUSH4 0x6C79BD2B EQ PUSH2 0x15CE JUMPI DUP1 PUSH4 0x74F0C641 EQ PUSH2 0x15B1 JUMPI DUP1 PUSH4 0x7C7198CC EQ PUSH2 0x1563 JUMPI DUP1 PUSH4 0x8705FCD4 EQ PUSH2 0x1500 JUMPI DUP1 PUSH4 0x93A018BE EQ PUSH2 0xB21 JUMPI DUP1 PUSH4 0x990581B6 EQ PUSH2 0x1400 JUMPI DUP1 PUSH4 0xA13ABDAD EQ PUSH2 0x1088 JUMPI DUP1 PUSH4 0xA5940041 EQ PUSH2 0x106B JUMPI DUP1 PUSH4 0xAC97980D EQ PUSH2 0x1041 JUMPI DUP1 PUSH4 0xAD2957FF EQ PUSH2 0xFE5 JUMPI DUP1 PUSH4 0xB9E2FC3E EQ PUSH2 0xFAF JUMPI DUP1 PUSH4 0xBDF5DB39 EQ PUSH2 0xF2C JUMPI DUP1 PUSH4 0xC5DCE24D EQ PUSH2 0xE9F JUMPI DUP1 PUSH4 0xD1A34AA3 EQ PUSH2 0xE57 JUMPI DUP1 PUSH4 0xD39065FA EQ PUSH2 0xDFB JUMPI DUP1 PUSH4 0xD3A3F771 EQ PUSH2 0xDB7 JUMPI DUP1 PUSH4 0xD8DB3807 EQ PUSH2 0xB4B JUMPI DUP1 PUSH4 0xDE78AB7C EQ PUSH2 0xB21 JUMPI DUP1 PUSH4 0xDE8B32C5 EQ PUSH2 0xA4C JUMPI DUP1 PUSH4 0xE1485776 EQ PUSH2 0xA24 JUMPI DUP1 PUSH4 0xE168B3A8 EQ PUSH2 0xA07 JUMPI DUP1 PUSH4 0xE83DDCEA EQ PUSH2 0x960 JUMPI DUP1 PUSH4 0xEA487A92 EQ PUSH2 0x8F9 JUMPI DUP1 PUSH4 0xEE8EB507 EQ PUSH2 0x8C2 JUMPI DUP1 PUSH4 0xEEB0CF76 EQ PUSH2 0x884 JUMPI PUSH4 0xFA1396F5 EQ PUSH2 0x1A8 JUMPI PUSH0 DUP1 REVERT JUMPDEST PUSH2 0x1B1 CALLDATASIZE PUSH2 0x2441 JUMP JUMPDEST PUSH1 0xF SLOAD PUSH1 0x40 MLOAD PUSH4 0x2C895403 PUSH1 0xE2 SHL DUP2 MSTORE PUSH1 0x4 DUP2 ADD DUP5 SWAP1 MSTORE PUSH1 0x1 PUSH1 0x1 PUSH1 0xA0 SHL SUB SWAP4 SWAP2 PUSH1 0x20 SWAP1 DUP3 SWAP1 PUSH1 0x24 SWAP1 DUP3 SWAP1 DUP9 AND GAS STATICCALL SWAP1 DUP2 ISZERO PUSH2 0x79C JUMPI PUSH0 SWAP2 PUSH2 0x865 JUMPI JUMPDEST POP ISZERO PUSH2 0x82A JUMPI DUP3 PUSH1 0xD SLOAD AND SWAP1 PUSH1 0x40 MLOAD PUSH4 0x24C9DB2F PUSH1 0xE0 SHL DUP2 MSTORE PUSH1 0x20 PUSH1 0x4 DUP3 ADD MSTORE PUSH1 0x20 DUP2 DUP1 PUSH2 0x21F PUSH1 0x24 DUP3 ADD DUP9 PUSH2 0x2353 JUMP JUMPDEST SUB DUP2 DUP7 GAS STATICCALL SWAP1 DUP2 ISZERO PUSH2 0x79C JUMPI PUSH0 SWAP2 PUSH2 0x7FB JUMPI JUMPDEST POP ISZERO PUSH2 0x7A7 JUMPI PUSH1 0x20 PUSH1 0x40 MLOAD DUP1 SWAP4 PUSH4 0x3BEBE051 PUSH1 0xE0 SHL DUP3 MSTORE DUP3 PUSH1 0x4 DUP4 ADD MSTORE DUP2 DUP1 PUSH2 0x25E PUSH1 0x24 DUP3 ADD DUP10 PUSH2 0x2353 JUMP JUMPDEST SUB SWAP2 GAS STATICCALL SWAP2 DUP3 ISZERO PUSH2 0x79C JUMPI PUSH0 SWAP3 PUSH2 0x764 JUMPI JUMPDEST POP PUSH1 0x40 MLOAD PUSH2 0x27D DUP2 PUSH2 0x2240 JUMP JUMPDEST DUP4 DUP2 MSTORE PUSH1 0x40 MLOAD SWAP1 PUSH1 0x20 DUP3 ADD SWAP6 PUSH1 0x1 PUSH1 0x1 PUSH1 0x40 SHL SUB SWAP7 DUP4 DUP2 LT DUP9 DUP3 GT OR PUSH2 0x522 JUMPI PUSH1 0x40 MSTORE PUSH0 DUP4 MSTORE PUSH1 0x20 DUP3 ADD SWAP3 DUP4 MSTORE TIMESTAMP PUSH1 0x40 DUP4 ADD MSTORE DUP5 PUSH1 0x60 DUP4 ADD MSTORE DUP5 ISZERO PUSH0 EQ PUSH2 0x5A5 JUMPI POP PUSH1 0x40 MLOAD PUSH2 0x2CB DUP2 PUSH2 0x225B JUMP JUMPDEST PUSH1 0xD DUP2 MSTORE PUSH13 0x4E6F20436F6E73656E736F7573 PUSH1 0x98 SHL PUSH1 0x20 DUP3 ADD MSTORE DUP3 MSTORE JUMPDEST PUSH1 0x2 SLOAD PUSH0 MSTORE PUSH0 PUSH1 0x20 MSTORE PUSH1 0x40 PUSH0 KECCAK256 SWAP2 DUP2 MLOAD DUP1 MLOAD SWAP1 DUP9 DUP3 GT PUSH2 0x522 JUMPI DUP2 SWAP1 PUSH2 0x318 DUP3 PUSH2 0x312 DUP9 SLOAD PUSH2 0x2378 JUMP JUMPDEST DUP9 PUSH2 0x24DD JUMP JUMPDEST PUSH1 0x20 SWAP1 PUSH1 0x1F DUP4 GT PUSH1 0x1 EQ PUSH2 0x541 JUMPI PUSH0 SWAP3 PUSH2 0x536 JUMPI JUMPDEST POP POP DUP2 PUSH1 0x1 SHL SWAP2 PUSH0 NOT SWAP1 PUSH1 0x3 SHL SHR NOT AND OR DUP4 SSTORE JUMPDEST MLOAD SWAP6 DUP7 MLOAD SWAP1 DUP2 GT PUSH2 0x522 JUMPI PUSH2 0x366 DUP2 PUSH2 0x35D PUSH1 0x1 DUP7 ADD SLOAD PUSH2 0x2378 JUMP JUMPDEST PUSH1 0x1 DUP7 ADD PUSH2 0x24DD JUMP JUMPDEST PUSH1 0x20 PUSH1 0x1F DUP3 GT PUSH1 0x1 EQ PUSH2 0x4B0 JUMPI SWAP2 DUP2 PUSH1 0x60 SWAP3 PUSH1 0x3 SWAP5 PUSH2 0x477 SWAP11 PUSH0 SWAP3 PUSH2 0x4A5 JUMPI JUMPDEST POP POP PUSH0 NOT DUP3 DUP7 SHL SHR NOT AND PUSH1 0x1 SWAP2 DUP3 SHL OR SWAP1 DUP6 ADD SSTORE JUMPDEST PUSH1 0x40 DUP2 ADD MLOAD PUSH1 0x2 DUP6 ADD SSTORE ADD MLOAD SWAP2 ADD SSTORE DUP1 PUSH0 MSTORE PUSH1 0x3 PUSH1 0x20 MSTORE PUSH2 0x3C2 PUSH1 0x40 PUSH0 KECCAK256 PUSH1 0x2 SLOAD SWAP1 PUSH2 0x24A2 JUMP JUMPDEST PUSH1 0x2 SLOAD PUSH0 MSTORE PUSH1 0x1 PUSH1 0x20 MSTORE DUP1 PUSH1 0x40 PUSH0 KECCAK256 SSTORE PUSH32 0xD3F28A1C655091033012BC55D258BF3CBD4EA4FB8BC2FF81C626A2AAD9354E46 PUSH1 0x40 PUSH1 0x2 SLOAD SWAP5 DUP6 DUP5 DUP2 SWAP6 PUSH0 MSTORE PUSH1 0x4 PUSH1 0x20 MSTORE PUSH2 0x460 DUP5 PUSH0 KECCAK256 DUP4 DUP7 MLOAD PUSH1 0x20 DUP2 DUP9 MLOAD SWAP5 DUP3 DUP11 ADD SWAP6 PUSH2 0x422 DUP2 DUP5 DUP10 PUSH2 0x2332 JUMP JUMPDEST DUP3 ADD SWAP1 DUP2 MSTORE SUB ADD SWAP1 KECCAK256 SSTORE DUP6 MLOAD SWAP5 DUP6 SWAP5 DUP6 SWAP5 PUSH32 0xE4C157BDF18B292C67A85F8AFA9036D1FD70E345BE3AD305FAFC7841C4801A3F PUSH0 DUP1 LOG3 MLOAD SWAP3 DUP4 SWAP2 PUSH2 0x2332 JUMP JUMPDEST DUP2 ADD SUB SWAP1 KECCAK256 SWAP4 DUP2 MLOAD SWAP1 TIMESTAMP DUP3 MSTORE PUSH1 0x20 DUP3 ADD MSTORE LOG3 PUSH2 0x2520 JUMP JUMPDEST DUP1 PUSH1 0x2 SSTORE PUSH0 NOT DUP2 ADD SWAP1 DUP2 GT PUSH2 0x491 JUMPI PUSH1 0x20 SWAP1 PUSH1 0x40 MLOAD SWAP1 DUP2 MSTORE RETURN JUMPDEST PUSH4 0x4E487B71 PUSH1 0xE0 SHL PUSH0 MSTORE PUSH1 0x11 PUSH1 0x4 MSTORE PUSH1 0x24 PUSH0 REVERT JUMPDEST ADD MLOAD SWAP1 POP PUSH0 DUP1 PUSH2 0x386 JUMP JUMPDEST PUSH1 0x1 DUP5 ADD PUSH0 MSTORE PUSH1 0x20 PUSH0 KECCAK256 SWAP8 PUSH0 JUMPDEST PUSH1 0x1F NOT DUP5 AND DUP2 LT PUSH2 0x50A JUMPI POP DUP3 PUSH2 0x477 SWAP10 PUSH1 0x3 SWAP6 SWAP4 PUSH1 0x1 SWAP4 PUSH1 0x60 SWAP7 PUSH1 0x1F NOT DUP2 AND LT PUSH2 0x4F3 JUMPI JUMPDEST POP POP POP DUP2 SHL ADD PUSH1 0x1 DUP6 ADD SSTORE PUSH2 0x39B JUMP JUMPDEST ADD MLOAD PUSH0 NOT DUP4 DUP9 SHL PUSH1 0xF8 AND SHR NOT AND SWAP1 SSTORE PUSH0 DUP1 DUP1 PUSH2 0x4E3 JUMP JUMPDEST DUP3 DUP3 ADD MLOAD DUP11 SSTORE PUSH1 0x1 SWAP1 SWAP10 ADD SWAP9 PUSH1 0x20 SWAP3 DUP4 ADD SWAP3 ADD PUSH2 0x4BD JUMP JUMPDEST PUSH4 0x4E487B71 PUSH1 0xE0 SHL PUSH0 MSTORE PUSH1 0x41 PUSH1 0x4 MSTORE PUSH1 0x24 PUSH0 REVERT JUMPDEST ADD MLOAD SWAP1 POP PUSH0 DUP1 PUSH2 0x32D JUMP JUMPDEST PUSH0 DUP8 DUP2 MSTORE PUSH1 0x20 DUP2 KECCAK256 SWAP4 POP PUSH1 0x1F NOT DUP6 AND SWAP1 JUMPDEST DUP2 DUP2 LT PUSH2 0x58D JUMPI POP SWAP1 DUP5 PUSH1 0x1 SWAP6 SWAP5 SWAP4 SWAP3 LT PUSH2 0x575 JUMPI JUMPDEST POP POP POP DUP2 SHL ADD DUP4 SSTORE PUSH2 0x341 JUMP JUMPDEST ADD MLOAD PUSH0 NOT PUSH1 0xF8 DUP5 PUSH1 0x3 SHL AND SHR NOT AND SWAP1 SSTORE PUSH0 DUP1 DUP1 PUSH2 0x568 JUMP JUMPDEST SWAP3 SWAP4 PUSH1 0x20 PUSH1 0x1 DUP2 SWAP3 DUP8 DUP7 ADD MLOAD DUP2 SSTORE ADD SWAP6 ADD SWAP4 ADD PUSH2 0x552 JUMP JUMPDEST PUSH1 0x10 SLOAD CALLVALUE SUB PUSH2 0x726 JUMPI PUSH0 DUP1 DUP1 DUP1 SWAP4 CALLVALUE SWAP1 PUSH1 0x13 SLOAD AND GAS CALL RETURNDATASIZE ISZERO PUSH2 0x721 JUMPI RETURNDATASIZE PUSH2 0x5CB DUP2 PUSH2 0x2297 JUMP JUMPDEST SWAP1 PUSH2 0x5D9 PUSH1 0x40 MLOAD SWAP3 DUP4 PUSH2 0x2276 JUMP JUMPDEST DUP2 MSTORE PUSH0 PUSH1 0x20 RETURNDATASIZE SWAP3 ADD RETURNDATACOPY JUMPDEST ISZERO PUSH2 0x6E5 JUMPI PUSH1 0x8 SLOAD ISZERO PUSH2 0x6D1 JUMPI PUSH1 0x8 PUSH0 MSTORE PUSH1 0x40 MLOAD PUSH2 0x62C DUP2 PUSH2 0x625 DUP2 PUSH32 0xF3F7A9FE364FAAB93B216DA50A3214154F22A0A2B415B23A84C8169E8B636EE3 PUSH2 0x23B0 JUMP JUMPDEST SUB DUP3 PUSH2 0x2276 JUMP JUMPDEST DUP3 MSTORE PUSH1 0x2 SLOAD PUSH1 0x9 SLOAD SWAP1 PUSH1 0x1 PUSH1 0x40 SHL DUP3 LT ISZERO PUSH2 0x522 JUMPI PUSH2 0x654 DUP3 PUSH1 0x1 PUSH2 0x66C SWAP5 ADD PUSH1 0x9 SSTORE PUSH2 0x21E2 JUMP JUMPDEST SWAP1 SWAP2 SWAP1 DUP3 SLOAD SWAP1 PUSH1 0x3 SHL SWAP2 DUP3 SHL SWAP2 PUSH0 NOT SWAP1 SHL NOT AND OR SWAP1 SSTORE JUMP JUMPDEST PUSH1 0x9 SLOAD PUSH0 NOT SWAP1 DUP2 DUP2 ADD SWAP1 DUP2 GT PUSH2 0x491 JUMPI PUSH1 0x2 SLOAD PUSH0 MSTORE PUSH1 0xA PUSH1 0x20 MSTORE PUSH1 0x40 PUSH0 KECCAK256 SSTORE PUSH1 0x2 SLOAD SWAP1 PUSH1 0x9 SLOAD SWAP1 DUP2 ADD SWAP1 DUP2 GT PUSH2 0x491 JUMPI PUSH32 0x2F5A4EE168DCA9EAEF284F1844A3D24D74BA63A5FCCC947454FC07515C8B3774 SWAP2 PUSH1 0x40 SWAP2 DUP3 MLOAD SWAP2 DUP3 MSTORE PUSH1 0x20 DUP3 ADD MSTORE LOG1 PUSH2 0x2E8 JUMP JUMPDEST PUSH4 0x4E487B71 PUSH1 0xE0 SHL PUSH0 MSTORE PUSH1 0x32 PUSH1 0x4 MSTORE PUSH1 0x24 PUSH0 REVERT JUMPDEST PUSH1 0x40 MLOAD PUSH3 0x461BCD PUSH1 0xE5 SHL DUP2 MSTORE PUSH1 0x20 PUSH1 0x4 DUP3 ADD MSTORE PUSH1 0x14 PUSH1 0x24 DUP3 ADD MSTORE PUSH20 0x2330B4B632B2103A379039B2B7321022BA3432B9 PUSH1 0x61 SHL PUSH1 0x44 DUP3 ADD MSTORE PUSH1 0x64 SWAP1 REVERT JUMPDEST PUSH2 0x5E3 JUMP JUMPDEST PUSH1 0x40 MLOAD PUSH3 0x461BCD PUSH1 0xE5 SHL DUP2 MSTORE PUSH1 0x20 PUSH1 0x4 DUP3 ADD MSTORE PUSH1 0x16 PUSH1 0x24 DUP3 ADD MSTORE PUSH22 0x4D7573742073656E642070726F706F73616C20666565 PUSH1 0x50 SHL PUSH1 0x44 DUP3 ADD MSTORE PUSH1 0x64 SWAP1 REVERT JUMPDEST SWAP1 SWAP2 POP PUSH1 0x20 DUP2 RETURNDATASIZE PUSH1 0x20 GT PUSH2 0x794 JUMPI JUMPDEST DUP2 PUSH2 0x780 PUSH1 0x20 SWAP4 DUP4 PUSH2 0x2276 JUMP JUMPDEST DUP2 ADD SUB SLT PUSH2 0x790 JUMPI MLOAD SWAP1 PUSH0 PUSH2 0x270 JUMP JUMPDEST PUSH0 DUP1 REVERT JUMPDEST RETURNDATASIZE SWAP2 POP PUSH2 0x773 JUMP JUMPDEST PUSH1 0x40 MLOAD RETURNDATASIZE PUSH0 DUP3 RETURNDATACOPY RETURNDATASIZE SWAP1 REVERT JUMPDEST PUSH1 0x40 MLOAD PUSH3 0x461BCD PUSH1 0xE5 SHL DUP2 MSTORE PUSH1 0x20 PUSH1 0x4 DUP3 ADD MSTORE PUSH1 0x26 PUSH1 0x24 DUP3 ADD MSTORE PUSH32 0x436F6D6D756E69747920436F6E73656E73757320506172616D7320646F6E2774 PUSH1 0x44 DUP3 ADD MSTORE PUSH6 0x8195E1A5CDD PUSH1 0xD2 SHL PUSH1 0x64 DUP3 ADD MSTORE PUSH1 0x84 SWAP1 REVERT JUMPDEST PUSH2 0x81D SWAP2 POP PUSH1 0x20 RETURNDATASIZE PUSH1 0x20 GT PUSH2 0x823 JUMPI JUMPDEST PUSH2 0x815 DUP2 DUP4 PUSH2 0x2276 JUMP JUMPDEST DUP2 ADD SWAP1 PUSH2 0x248A JUMP JUMPDEST PUSH0 PUSH2 0x232 JUMP JUMPDEST POP RETURNDATASIZE PUSH2 0x80B JUMP JUMPDEST PUSH1 0x40 MLOAD PUSH3 0x461BCD PUSH1 0xE5 SHL DUP2 MSTORE PUSH1 0x20 PUSH1 0x4 DUP3 ADD MSTORE PUSH1 0x13 PUSH1 0x24 DUP3 ADD MSTORE PUSH19 0x141BDCDD08191BD95CC81B9BDD08195E1A5CDD PUSH1 0x6A SHL PUSH1 0x44 DUP3 ADD MSTORE PUSH1 0x64 SWAP1 REVERT JUMPDEST PUSH2 0x87E SWAP2 POP PUSH1 0x20 RETURNDATASIZE PUSH1 0x20 GT PUSH2 0x823 JUMPI PUSH2 0x815 DUP2 DUP4 PUSH2 0x2276 JUMP JUMPDEST PUSH0 PUSH2 0x1EE JUMP JUMPDEST CALLVALUE PUSH2 0x790 JUMPI PUSH2 0x892 CALLDATASIZE PUSH2 0x21CC JUMP JUMPDEST SWAP1 PUSH0 MSTORE PUSH1 0x3 PUSH1 0x20 MSTORE PUSH1 0x40 PUSH0 KECCAK256 DUP1 SLOAD DUP3 LT ISZERO PUSH2 0x790 JUMPI PUSH1 0x20 SWAP2 PUSH2 0x8B3 SWAP2 PUSH2 0x21FA JUMP JUMPDEST SWAP1 SLOAD SWAP1 PUSH1 0x3 SHL SHR PUSH1 0x40 MLOAD SWAP1 DUP2 MSTORE RETURN JUMPDEST CALLVALUE PUSH2 0x790 JUMPI PUSH1 0x20 CALLDATASIZE PUSH1 0x3 NOT ADD SLT PUSH2 0x790 JUMPI PUSH1 0x4 CALLDATALOAD PUSH1 0x9 SLOAD DUP2 LT ISZERO PUSH2 0x790 JUMPI PUSH2 0x8EB PUSH1 0x20 SWAP2 PUSH2 0x21E2 JUMP JUMPDEST SWAP1 SLOAD PUSH1 0x40 MLOAD SWAP2 PUSH1 0x3 SHL SHR DUP2 MSTORE RETURN JUMPDEST CALLVALUE PUSH2 0x790 JUMPI PUSH1 0x20 CALLDATASIZE PUSH1 0x3 NOT ADD SLT PUSH2 0x790 JUMPI PUSH1 0x4 CALLDATALOAD DUP1 PUSH0 MSTORE PUSH0 PUSH1 0x20 MSTORE PUSH2 0x926 PUSH1 0x2 PUSH1 0x40 PUSH0 KECCAK256 ADD SLOAD ISZERO ISZERO PUSH2 0x252E JUMP JUMPDEST PUSH0 MSTORE PUSH0 PUSH1 0x20 MSTORE PUSH2 0x95C PUSH2 0x625 PUSH2 0x948 PUSH1 0x1 PUSH1 0x40 PUSH0 KECCAK256 ADD PUSH1 0x40 MLOAD SWAP3 DUP4 DUP1 SWAP3 PUSH2 0x23B0 JUMP JUMPDEST PUSH1 0x40 MLOAD SWAP2 DUP3 SWAP2 PUSH1 0x20 DUP4 MSTORE PUSH1 0x20 DUP4 ADD SWAP1 PUSH2 0x2353 JUMP JUMPDEST SUB SWAP1 RETURN JUMPDEST CALLVALUE PUSH2 0x790 JUMPI PUSH1 0x20 CALLDATASIZE PUSH1 0x3 NOT ADD SLT PUSH2 0x790 JUMPI PUSH1 0x4 CALLDATALOAD PUSH0 MSTORE PUSH1 0x5 PUSH1 0x20 MSTORE PUSH1 0x40 PUSH0 KECCAK256 PUSH1 0x1 DUP1 PUSH1 0xA0 SHL SUB DUP2 SLOAD AND PUSH1 0x40 MLOAD SWAP2 PUSH2 0x9A5 DUP4 PUSH2 0x99E DUP2 PUSH1 0x1 DUP6 ADD PUSH2 0x23B0 JUMP JUMPDEST SUB DUP5 PUSH2 0x2276 JUMP JUMPDEST PUSH2 0x9FD PUSH1 0x2 DUP3 ADD SLOAD PUSH1 0x4 PUSH1 0x40 MLOAD SWAP4 PUSH2 0x9CB DUP6 PUSH2 0x9C4 DUP2 PUSH1 0x3 DUP6 ADD PUSH2 0x23B0 JUMP JUMPDEST SUB DUP7 PUSH2 0x2276 JUMP JUMPDEST ADD SLOAD SWAP3 PUSH2 0x9EA PUSH1 0x40 MLOAD SWAP7 DUP8 SWAP7 DUP8 MSTORE PUSH1 0xA0 PUSH1 0x20 DUP9 ADD MSTORE PUSH1 0xA0 DUP8 ADD SWAP1 PUSH2 0x2353 JUMP JUMPDEST SWAP2 PUSH1 0x40 DUP7 ADD MSTORE DUP5 DUP3 SUB PUSH1 0x60 DUP7 ADD MSTORE PUSH2 0x2353 JUMP JUMPDEST SWAP1 PUSH1 0x80 DUP4 ADD MSTORE SUB SWAP1 RETURN JUMPDEST CALLVALUE PUSH2 0x790 JUMPI PUSH0 CALLDATASIZE PUSH1 0x3 NOT ADD SLT PUSH2 0x790 JUMPI PUSH1 0x20 PUSH1 0x6 SLOAD PUSH1 0x40 MLOAD SWAP1 DUP2 MSTORE RETURN JUMPDEST CALLVALUE PUSH2 0x790 JUMPI PUSH0 CALLDATASIZE PUSH1 0x3 NOT ADD SLT PUSH2 0x790 JUMPI PUSH1 0xE SLOAD PUSH1 0x40 MLOAD PUSH1 0x1 PUSH1 0x1 PUSH1 0xA0 SHL SUB SWAP1 SWAP2 AND DUP2 MSTORE PUSH1 0x20 SWAP1 RETURN JUMPDEST CALLVALUE PUSH2 0x790 JUMPI PUSH1 0x20 DUP1 PUSH1 0x3 NOT CALLDATASIZE ADD SLT PUSH2 0x790 JUMPI PUSH1 0x80 SWAP1 PUSH0 PUSH1 0x60 PUSH1 0x40 MLOAD PUSH2 0xA70 DUP2 PUSH2 0x2240 JUMP JUMPDEST DUP2 DUP2 MSTORE DUP2 DUP5 DUP3 ADD MSTORE DUP3 PUSH1 0x40 DUP3 ADD MSTORE ADD MSTORE PUSH1 0x4 CALLDATALOAD PUSH0 MSTORE PUSH0 DUP2 MSTORE PUSH1 0x40 PUSH0 KECCAK256 PUSH1 0x40 MLOAD SWAP2 PUSH2 0xA99 DUP4 PUSH2 0x2240 JUMP JUMPDEST PUSH1 0x40 MLOAD PUSH2 0xAAA DUP2 PUSH2 0x625 DUP2 DUP7 PUSH2 0x23B0 JUMP JUMPDEST DUP4 MSTORE PUSH2 0xB10 PUSH1 0x40 MLOAD PUSH2 0xAC3 DUP2 PUSH2 0x625 DUP2 PUSH1 0x1 DUP9 ADD PUSH2 0x23B0 JUMP JUMPDEST DUP3 DUP6 ADD SWAP1 DUP2 MSTORE PUSH2 0xAFD PUSH1 0x3 PUSH1 0x2 DUP7 ADD SLOAD SWAP6 PUSH1 0x40 DUP9 ADD SWAP7 DUP8 MSTORE ADD SLOAD SWAP4 PUSH1 0x60 DUP8 ADD SWAP5 DUP6 MSTORE PUSH1 0x40 MLOAD SWAP8 DUP9 SWAP8 DUP3 DUP10 MSTORE MLOAD SWAP2 DUP9 ADD MSTORE PUSH1 0xA0 DUP8 ADD SWAP1 PUSH2 0x2353 JUMP JUMPDEST SWAP1 MLOAD DUP6 DUP3 SUB PUSH1 0x1F NOT ADD PUSH1 0x40 DUP8 ADD MSTORE PUSH2 0x2353 JUMP JUMPDEST SWAP2 MLOAD PUSH1 0x60 DUP5 ADD MSTORE MLOAD PUSH1 0x80 DUP4 ADD MSTORE SUB SWAP1 RETURN JUMPDEST CALLVALUE PUSH2 0x790 JUMPI PUSH1 0x20 CALLDATASIZE PUSH1 0x3 NOT ADD SLT PUSH2 0x790 JUMPI PUSH1 0x4 CALLDATALOAD PUSH0 MSTORE PUSH1 0xA PUSH1 0x20 MSTORE PUSH1 0x20 PUSH1 0x40 PUSH0 KECCAK256 SLOAD PUSH1 0x40 MLOAD SWAP1 DUP2 MSTORE RETURN JUMPDEST CALLVALUE PUSH2 0x790 JUMPI PUSH1 0x20 DUP1 PUSH1 0x3 NOT CALLDATASIZE ADD SLT PUSH2 0x790 JUMPI PUSH1 0x4 CALLDATALOAD SWAP1 PUSH1 0x1 PUSH1 0x1 PUSH1 0x40 SHL SUB SWAP1 DUP2 DUP4 GT PUSH2 0x790 JUMPI CALLDATASIZE PUSH1 0x23 DUP5 ADD SLT ISZERO PUSH2 0x790 JUMPI DUP3 PUSH1 0x4 ADD CALLDATALOAD SWAP2 PUSH2 0xB8B DUP4 PUSH2 0x2473 JUMP JUMPDEST SWAP4 PUSH2 0xB99 PUSH1 0x40 MLOAD SWAP6 DUP7 PUSH2 0x2276 JUMP JUMPDEST DUP4 DUP6 MSTORE DUP3 DUP6 ADD SWAP5 DUP6 SWAP2 PUSH1 0x24 SWAP7 DUP8 PUSH1 0x5 SWAP8 DUP9 SHL DUP4 ADD ADD SWAP2 CALLDATASIZE DUP4 GT PUSH2 0x790 JUMPI DUP9 DUP2 ADD SWAP2 JUMPDEST DUP4 DUP4 LT PUSH2 0xD91 JUMPI POP POP PUSH1 0x12 SLOAD PUSH2 0xBE8 SWAP3 POP CALLER PUSH1 0x1 PUSH1 0x1 PUSH1 0xA0 SHL SUB SWAP2 DUP3 AND EQ SWAP2 POP DUP2 ISZERO PUSH2 0xD83 JUMPI JUMPDEST POP PUSH2 0x25AC JUMP JUMPDEST MLOAD SWAP4 PUSH1 0x1 PUSH1 0x40 SHL DUP6 GT PUSH2 0xD70 JUMPI PUSH1 0x8 SLOAD SWAP1 DUP6 PUSH1 0x8 SSTORE DUP2 DUP7 LT PUSH2 0xD01 JUMPI JUMPDEST POP POP SWAP4 SWAP1 PUSH1 0x8 PUSH0 MSTORE DUP3 PUSH0 KECCAK256 SWAP2 PUSH0 SWAP6 JUMPDEST DUP6 DUP8 LT PUSH2 0xC1D JUMPI STOP JUMPDEST DUP1 MLOAD DUP1 MLOAD SWAP1 DUP5 DUP3 GT PUSH2 0xCEE JUMPI SWAP1 DUP7 SWAP2 PUSH2 0xC40 DUP3 PUSH2 0xC3A DUP10 SLOAD PUSH2 0x2378 JUMP JUMPDEST DUP10 PUSH2 0x24DD JUMP JUMPDEST DUP3 SWAP1 PUSH1 0x1F DUP4 GT PUSH1 0x1 EQ PUSH2 0xC87 JUMPI SWAP2 DUP1 PUSH1 0x1 SWAP6 SWAP3 DUP7 SWAP6 SWAP5 PUSH0 SWAP3 PUSH2 0xC7C JUMPI JUMPDEST POP POP PUSH0 NOT PUSH1 0x3 DUP4 SWAP1 SHL SHR NOT AND SWAP1 DUP5 SHL OR DUP8 SSTORE JUMPDEST ADD SWAP5 ADD SWAP7 ADD SWAP6 SWAP3 PUSH2 0xC14 JUMP JUMPDEST ADD MLOAD SWAP1 POP DUP13 DUP1 PUSH2 0xC5D JUMP JUMPDEST SWAP1 PUSH1 0x1F NOT DUP4 AND SWAP2 DUP9 PUSH0 MSTORE DUP5 PUSH0 KECCAK256 SWAP3 PUSH0 JUMPDEST DUP2 DUP2 LT PUSH2 0xCD6 JUMPI POP SWAP2 PUSH1 0x1 SWAP7 SWAP4 SWAP2 DUP6 DUP9 SWAP8 SWAP7 SWAP5 LT PUSH2 0xCBE JUMPI JUMPDEST POP POP POP DUP4 SHL DUP4 ADD DUP8 SSTORE PUSH2 0xC70 JUMP JUMPDEST ADD MLOAD PUSH0 NOT PUSH1 0xF8 DUP5 PUSH1 0x3 SHL AND SHR NOT AND SWAP1 SSTORE DUP12 DUP1 DUP1 PUSH2 0xCB0 JUMP JUMPDEST DUP3 DUP5 ADD MLOAD DUP6 SSTORE DUP12 SWAP7 PUSH1 0x1 SWAP1 SWAP6 ADD SWAP5 SWAP4 DUP5 ADD SWAP4 ADD PUSH2 0xC97 JUMP JUMPDEST DUP4 PUSH4 0x4E487B71 PUSH1 0xE0 SHL PUSH0 MSTORE PUSH1 0x41 PUSH1 0x4 MSTORE PUSH0 REVERT JUMPDEST PUSH1 0x8 PUSH0 MSTORE DUP6 DUP6 PUSH0 KECCAK256 SWAP3 DUP4 ADD SWAP3 ADD JUMPDEST DUP3 DUP2 LT PUSH2 0xD1C JUMPI POP PUSH2 0xC05 JUMP JUMPDEST DUP1 PUSH2 0xD29 PUSH1 0x1 SWAP3 SLOAD PUSH2 0x2378 JUMP JUMPDEST DUP1 PUSH2 0xD36 JUMPI JUMPDEST POP ADD PUSH2 0xD0F JUMP JUMPDEST PUSH1 0x1F SWAP1 DUP2 DUP2 GT DUP5 EQ PUSH2 0xD4E JUMPI POP POP PUSH0 DUP2 SSTORE JUMPDEST DUP10 PUSH2 0xD2F JUMP JUMPDEST PUSH2 0xD67 PUSH0 SWAP3 DUP5 DUP5 MSTORE DUP11 DUP5 KECCAK256 SWAP3 ADD DUP7 SHR DUP3 ADD DUP6 DUP4 ADD PUSH2 0x24C7 JUMP JUMPDEST DUP2 DUP4 SSTORE SSTORE PUSH2 0xD48 JUMP JUMPDEST DUP6 PUSH4 0x4E487B71 PUSH1 0xE0 SHL PUSH0 MSTORE PUSH1 0x41 PUSH1 0x4 MSTORE PUSH0 REVERT JUMPDEST SWAP1 POP PUSH1 0xC SLOAD AND CALLER EQ DUP9 PUSH2 0xBE2 JUMP JUMPDEST DUP3 CALLDATALOAD DUP8 DUP2 GT PUSH2 0x790 JUMPI DUP9 SWAP2 PUSH2 0xDAC DUP4 SWAP3 DUP14 CALLDATASIZE SWAP2 DUP8 ADD ADD PUSH2 0x22B2 JUMP JUMPDEST DUP2 MSTORE ADD SWAP3 ADD SWAP2 PUSH2 0xBBB JUMP JUMPDEST CALLVALUE PUSH2 0x790 JUMPI PUSH1 0x20 PUSH2 0xDE9 DUP2 PUSH2 0xDCB CALLDATASIZE PUSH2 0x2441 JUMP JUMPDEST SWAP1 PUSH0 MSTORE PUSH1 0x4 DUP3 MSTORE PUSH1 0x40 PUSH0 KECCAK256 DUP3 PUSH1 0x40 MLOAD SWAP5 DUP4 DUP7 DUP1 SWAP6 MLOAD SWAP4 DUP5 SWAP3 ADD PUSH2 0x2332 JUMP JUMPDEST DUP3 ADD SWAP1 DUP2 MSTORE SUB ADD SWAP1 KECCAK256 SLOAD PUSH1 0x40 MLOAD SWAP1 DUP2 MSTORE RETURN JUMPDEST CALLVALUE PUSH2 0x790 JUMPI PUSH1 0x20 CALLDATASIZE PUSH1 0x3 NOT ADD SLT PUSH2 0x790 JUMPI PUSH2 0xE14 PUSH2 0x220F JUMP JUMPDEST PUSH1 0x12 SLOAD PUSH1 0x1 PUSH1 0x1 PUSH1 0xA0 SHL SUB SWAP2 SWAP1 DUP3 AND CALLER EQ DUP1 ISZERO PUSH2 0xE4A JUMPI JUMPDEST PUSH2 0xE35 SWAP1 PUSH2 0x25AC JUMP JUMPDEST AND PUSH1 0x1 DUP1 PUSH1 0xA0 SHL SUB NOT PUSH1 0xF SLOAD AND OR PUSH1 0xF SSTORE PUSH0 DUP1 RETURN JUMPDEST POP PUSH1 0xC SLOAD DUP3 AND CALLER EQ PUSH2 0xE2C JUMP JUMPDEST CALLVALUE PUSH2 0x790 JUMPI PUSH1 0x20 CALLDATASIZE PUSH1 0x3 NOT ADD SLT PUSH2 0x790 JUMPI PUSH1 0x12 SLOAD PUSH2 0xE89 SWAP1 CALLER PUSH1 0x1 PUSH1 0x1 PUSH1 0xA0 SHL SUB SWAP2 DUP3 AND EQ SWAP1 DUP2 ISZERO PUSH2 0xE91 JUMPI POP PUSH2 0x25AC JUMP JUMPDEST PUSH1 0x4 CALLDATALOAD PUSH1 0x11 SSTORE STOP JUMPDEST SWAP1 POP PUSH1 0xC SLOAD AND CALLER EQ DUP3 PUSH2 0xBE2 JUMP JUMPDEST CALLVALUE PUSH2 0x790 JUMPI PUSH1 0x20 CALLDATASIZE PUSH1 0x3 NOT ADD SLT PUSH2 0x790 JUMPI PUSH1 0x4 CALLDATALOAD PUSH0 MSTORE PUSH0 PUSH1 0x20 MSTORE PUSH2 0xF0F PUSH1 0x40 PUSH0 KECCAK256 PUSH1 0x40 MLOAD SWAP1 PUSH2 0xED9 DUP3 PUSH2 0xED2 DUP2 DUP5 PUSH2 0x23B0 JUMP JUMPDEST SUB DUP4 PUSH2 0x2276 JUMP JUMPDEST PUSH1 0x40 MLOAD PUSH2 0xEED DUP2 PUSH2 0x625 DUP2 PUSH1 0x1 DUP7 ADD PUSH2 0x23B0 JUMP JUMPDEST PUSH2 0xF1D PUSH1 0x3 PUSH1 0x2 DUP5 ADD SLOAD SWAP4 ADD SLOAD SWAP2 PUSH1 0x40 MLOAD SWAP6 DUP7 SWAP6 PUSH1 0x80 DUP8 MSTORE PUSH1 0x80 DUP8 ADD SWAP1 PUSH2 0x2353 JUMP JUMPDEST SWAP1 DUP6 DUP3 SUB PUSH1 0x20 DUP8 ADD MSTORE PUSH2 0x2353 JUMP JUMPDEST SWAP2 PUSH1 0x40 DUP5 ADD MSTORE PUSH1 0x60 DUP4 ADD MSTORE SUB SWAP1 RETURN JUMPDEST CALLVALUE PUSH2 0x790 JUMPI PUSH0 CALLDATASIZE PUSH1 0x3 NOT ADD SLT PUSH2 0x790 JUMPI PUSH1 0x40 MLOAD PUSH1 0x9 DUP1 SLOAD DUP1 DUP4 MSTORE PUSH0 SWAP2 DUP3 MSTORE PUSH1 0x20 DUP1 DUP5 ADD SWAP4 SWAP3 PUSH32 0x6E1540171B6C0C960B71A7020D9F60077F6AF931A8BBF590DA0223DACF75C7AF SWAP3 SWAP2 JUMPDEST DUP3 DUP3 LT PUSH2 0xF98 JUMPI PUSH2 0x95C DUP6 PUSH2 0xF8C DUP2 DUP10 SUB DUP3 PUSH2 0x2276 JUMP JUMPDEST PUSH1 0x40 MLOAD SWAP2 DUP3 SWAP2 DUP3 PUSH2 0x22F8 JUMP JUMPDEST DUP4 SLOAD DUP7 MSTORE SWAP5 DUP6 ADD SWAP5 PUSH1 0x1 SWAP4 DUP5 ADD SWAP4 SWAP1 SWAP2 ADD SWAP1 PUSH2 0xF75 JUMP JUMPDEST CALLVALUE PUSH2 0x790 JUMPI PUSH1 0x20 CALLDATASIZE PUSH1 0x3 NOT ADD SLT PUSH2 0x790 JUMPI PUSH1 0x4 CALLDATALOAD PUSH0 MSTORE PUSH1 0x5 PUSH1 0x20 MSTORE PUSH1 0x40 DUP1 PUSH0 KECCAK256 PUSH1 0x4 PUSH1 0x2 DUP3 ADD SLOAD SWAP2 ADD SLOAD DUP3 MLOAD SWAP2 DUP3 MSTORE PUSH1 0x20 DUP3 ADD MSTORE RETURN JUMPDEST CALLVALUE PUSH2 0x790 JUMPI PUSH1 0x20 CALLDATASIZE PUSH1 0x3 NOT ADD SLT PUSH2 0x790 JUMPI PUSH2 0xFFE PUSH2 0x220F JUMP JUMPDEST PUSH1 0x12 SLOAD PUSH1 0x1 PUSH1 0x1 PUSH1 0xA0 SHL SUB SWAP2 SWAP1 DUP3 AND CALLER EQ DUP1 ISZERO PUSH2 0x1034 JUMPI JUMPDEST PUSH2 0x101F SWAP1 PUSH2 0x25AC JUMP JUMPDEST AND PUSH1 0x1 DUP1 PUSH1 0xA0 SHL SUB NOT PUSH1 0xD SLOAD AND OR PUSH1 0xD SSTORE PUSH0 DUP1 RETURN JUMPDEST POP PUSH1 0xC SLOAD DUP3 AND CALLER EQ PUSH2 0x1016 JUMP JUMPDEST CALLVALUE PUSH2 0x790 JUMPI PUSH1 0x20 CALLDATASIZE PUSH1 0x3 NOT ADD SLT PUSH2 0x790 JUMPI PUSH1 0x4 CALLDATALOAD PUSH0 MSTORE PUSH1 0x1 PUSH1 0x20 MSTORE PUSH1 0x20 PUSH1 0x40 PUSH0 KECCAK256 SLOAD PUSH1 0x40 MLOAD SWAP1 DUP2 MSTORE RETURN JUMPDEST CALLVALUE PUSH2 0x790 JUMPI PUSH0 CALLDATASIZE PUSH1 0x3 NOT ADD SLT PUSH2 0x790 JUMPI PUSH1 0x20 PUSH1 0x2 SLOAD PUSH1 0x40 MLOAD SWAP1 DUP2 MSTORE RETURN JUMPDEST CALLVALUE PUSH2 0x790 JUMPI PUSH0 CALLDATASIZE PUSH1 0x3 NOT ADD SLT PUSH2 0x790 JUMPI PUSH0 DUP1 PUSH0 PUSH1 0x9 SLOAD DUP1 PUSH2 0x10DA JUMPI JUMPDEST POP POP PUSH1 0x40 MLOAD SWAP2 PUSH1 0x20 DUP4 ADD MSTORE PUSH1 0x20 DUP3 MSTORE PUSH2 0x10BC DUP3 PUSH2 0x225B JUMP JUMPDEST PUSH2 0x95C PUSH1 0x40 MLOAD SWAP3 DUP4 SWAP3 ISZERO ISZERO DUP4 MSTORE PUSH1 0x40 PUSH1 0x20 DUP5 ADD MSTORE PUSH1 0x40 DUP4 ADD SWAP1 PUSH2 0x2353 JUMP JUMPDEST PUSH0 PUSH1 0x1 JUMPDEST DUP3 DUP2 LT PUSH2 0x1368 JUMPI POP POP POP DUP1 PUSH2 0x10F4 JUMPI JUMPDEST DUP1 PUSH2 0x10A4 JUMP JUMPDEST SWAP1 SWAP2 POP PUSH1 0x1 DUP1 PUSH1 0xA0 SHL SUB PUSH1 0xD SLOAD AND DUP2 PUSH0 MSTORE PUSH0 PUSH1 0x20 MSTORE PUSH1 0x40 PUSH0 KECCAK256 SWAP1 PUSH1 0x60 PUSH1 0x40 MLOAD DUP1 SWAP3 PUSH4 0x26917989 PUSH1 0xE0 SHL DUP3 MSTORE PUSH1 0x20 PUSH1 0x4 DUP4 ADD MSTORE DUP2 DUP1 PUSH2 0x1137 PUSH1 0x24 SWAP8 DUP9 DUP4 ADD SWAP1 PUSH2 0x23B0 JUMP JUMPDEST SUB SWAP2 GAS STATICCALL SWAP2 DUP3 ISZERO PUSH2 0x79C JUMPI PUSH0 SWAP1 PUSH0 SWAP3 PUSH0 SWAP5 PUSH2 0x1327 JUMPI JUMPDEST POP DUP5 PUSH0 MSTORE PUSH1 0x7 PUSH1 0x20 MSTORE PUSH1 0x40 PUSH0 KECCAK256 SWAP2 PUSH1 0x40 MLOAD DUP1 DUP5 PUSH1 0x20 DUP3 SWAP7 SLOAD SWAP4 DUP5 DUP2 MSTORE ADD SWAP1 PUSH0 MSTORE PUSH1 0x20 PUSH0 KECCAK256 SWAP3 PUSH0 JUMPDEST DUP2 DUP2 LT PUSH2 0x130E JUMPI POP POP PUSH2 0x1189 SWAP3 POP SUB DUP5 PUSH2 0x2276 JUMP JUMPDEST DUP3 MLOAD SWAP4 DUP2 DUP6 LT ISZERO PUSH2 0x11AB JUMPI POP POP POP POP POP POP PUSH2 0x11A3 SWAP1 PUSH2 0x2597 JUMP JUMPDEST SWAP1 JUMPDEST DUP3 PUSH2 0x10EE JUMP JUMPDEST PUSH0 SWAP4 PUSH0 SWAP6 PUSH1 0x11 SLOAD SWAP1 DUP2 DUP2 GT PUSH0 EQ PUSH2 0x1306 JUMPI POP SWAP1 JUMPDEST PUSH0 JUMPDEST DUP3 DUP2 LT PUSH2 0x124F JUMPI POP POP POP POP DUP4 ISZERO DUP1 SWAP2 DUP2 ISZERO PUSH2 0x1245 JUMPI JUMPDEST POP ISZERO PUSH2 0x11F1 JUMPI POP POP POP POP POP PUSH2 0x11EB SWAP1 PUSH2 0x2597 JUMP JUMPDEST SWAP1 PUSH2 0x11A5 JUMP JUMPDEST PUSH1 0x64 DUP4 MUL SWAP3 DUP1 DUP5 DIV PUSH1 0x64 EQ SWAP1 ISZERO OR ISZERO PUSH2 0x1231 JUMPI PUSH2 0x121E JUMPI POP DIV LT PUSH2 0x1215 JUMPI SWAP1 PUSH2 0x11A5 JUMP JUMPDEST PUSH2 0x11EB SWAP1 PUSH2 0x2597 JUMP JUMPDEST PUSH4 0x4E487B71 PUSH1 0xE0 SHL PUSH0 SWAP1 DUP2 MSTORE PUSH1 0x12 PUSH1 0x4 MSTORE REVERT JUMPDEST POP PUSH4 0x4E487B71 PUSH1 0xE0 SHL PUSH0 SWAP1 DUP2 MSTORE PUSH1 0x11 PUSH1 0x4 MSTORE REVERT JUMPDEST SWAP1 POP DUP5 LT DUP9 PUSH2 0x11D7 JUMP JUMPDEST PUSH2 0x1259 DUP2 DUP4 PUSH2 0x2583 JUMP JUMPDEST MLOAD PUSH1 0x40 MLOAD SWAP1 PUSH4 0x5CF17E1F PUSH1 0xE1 SHL DUP3 MSTORE PUSH1 0x4 DUP3 ADD MSTORE PUSH1 0x40 DUP2 DUP9 DUP2 ADDRESS GAS STATICCALL DUP1 ISZERO PUSH2 0x79C JUMPI DUP6 SWAP1 PUSH0 SWAP3 PUSH0 SWAP2 PUSH2 0x12CB JUMPI JUMPDEST POP LT ISZERO PUSH2 0x129D JUMPI JUMPDEST POP PUSH2 0x1298 SWAP1 PUSH2 0x2520 JUMP JUMPDEST PUSH2 0x11C1 JUMP JUMPDEST SWAP8 PUSH2 0x12A9 PUSH1 0x2 SWAP2 PUSH2 0x2520 JUMP JUMPDEST SWAP9 EQ PUSH2 0x12B6 JUMPI JUMPDEST DUP12 PUSH2 0x128E JUMP JUMPDEST SWAP6 PUSH2 0x12C3 PUSH2 0x1298 SWAP2 PUSH2 0x2520 JUMP JUMPDEST SWAP7 SWAP1 POP PUSH2 0x12B0 JUMP JUMPDEST SWAP3 POP POP POP PUSH1 0x40 DUP2 RETURNDATASIZE PUSH1 0x40 GT PUSH2 0x12FE JUMPI JUMPDEST DUP2 PUSH2 0x12E8 PUSH1 0x40 SWAP4 DUP4 PUSH2 0x2276 JUMP JUMPDEST DUP2 ADD SUB SLT PUSH2 0x790 JUMPI DUP5 PUSH1 0x20 DUP3 MLOAD SWAP3 ADD MLOAD DUP15 PUSH2 0x1286 JUMP JUMPDEST RETURNDATASIZE SWAP2 POP PUSH2 0x12DB JUMP JUMPDEST SWAP1 POP SWAP1 PUSH2 0x11BF JUMP JUMPDEST DUP5 SLOAD DUP4 MSTORE PUSH1 0x1 SWAP5 DUP6 ADD SWAP5 DUP9 SWAP5 POP PUSH1 0x20 SWAP1 SWAP4 ADD SWAP3 ADD PUSH2 0x1174 JUMP JUMPDEST SWAP3 POP SWAP3 POP POP PUSH1 0x60 DUP2 RETURNDATASIZE DUP3 GT PUSH2 0x1360 JUMPI JUMPDEST DUP2 PUSH2 0x1344 PUSH1 0x60 SWAP4 DUP4 PUSH2 0x2276 JUMP JUMPDEST DUP2 ADD SUB SLT PUSH2 0x790 JUMPI DUP1 MLOAD PUSH1 0x20 DUP3 ADD MLOAD PUSH1 0x40 SWAP1 SWAP3 ADD MLOAD SWAP3 DUP7 PUSH2 0x114D JUMP JUMPDEST RETURNDATASIZE SWAP2 POP PUSH2 0x1337 JUMP JUMPDEST PUSH2 0x1371 DUP2 PUSH2 0x21E2 JUMP JUMPDEST SWAP1 SLOAD PUSH1 0x3 SWAP2 DUP3 SHL SHR PUSH0 MSTORE PUSH2 0x13AC PUSH1 0x20 PUSH0 DUP2 MSTORE PUSH0 PUSH1 0x2 PUSH1 0x40 DUP3 KECCAK256 ADD SLOAD SWAP2 PUSH2 0x1396 DUP7 PUSH2 0x21E2 JUMP JUMPDEST SWAP1 SLOAD SWAP1 DUP7 SHL SHR DUP3 MSTORE MSTORE DUP3 PUSH1 0x40 PUSH0 KECCAK256 ADD SLOAD SWAP1 PUSH2 0x2576 JUMP JUMPDEST TIMESTAMP DUP2 GT ISZERO DUP1 PUSH2 0x13EE JUMPI JUMPDEST PUSH2 0x13CB JUMPI JUMPDEST POP POP PUSH2 0x13C6 SWAP1 PUSH2 0x2520 JUMP JUMPDEST PUSH2 0x10DE JUMP JUMPDEST SWAP5 POP SWAP5 POP SWAP1 POP PUSH2 0x13C6 PUSH1 0x1 SWAP5 PUSH2 0x13E0 DUP4 PUSH2 0x21E2 JUMP JUMPDEST SWAP1 SLOAD SWAP2 SHL SHR SWAP4 SWAP2 SWAP1 DUP8 PUSH2 0x13BB JUMP JUMPDEST POP DUP4 DUP2 GT ISZERO DUP1 PUSH2 0x13B6 JUMPI POP DUP4 ISZERO PUSH2 0x13B6 JUMP JUMPDEST CALLVALUE PUSH2 0x790 JUMPI PUSH1 0x20 DUP1 PUSH1 0x3 NOT CALLDATASIZE ADD SLT PUSH2 0x790 JUMPI PUSH0 PUSH1 0x80 PUSH1 0x40 MLOAD PUSH2 0x1421 DUP2 PUSH2 0x2225 JUMP JUMPDEST DUP3 DUP2 MSTORE PUSH1 0x60 DUP5 DUP3 ADD MSTORE DUP3 PUSH1 0x40 DUP3 ADD MSTORE PUSH1 0x60 DUP1 DUP3 ADD MSTORE ADD MSTORE PUSH1 0x4 CALLDATALOAD PUSH0 MSTORE PUSH1 0x5 DUP2 MSTORE PUSH1 0x40 PUSH0 KECCAK256 SWAP1 PUSH1 0x40 MLOAD SWAP1 PUSH2 0x1453 DUP3 PUSH2 0x2225 JUMP JUMPDEST DUP3 SLOAD PUSH1 0x1 PUSH1 0x1 PUSH1 0xA0 SHL SUB SWAP1 DUP2 AND DUP4 MSTORE PUSH1 0x40 MLOAD SWAP1 SWAP4 PUSH2 0x14F5 SWAP2 SWAP1 PUSH2 0x147D DUP3 PUSH2 0xED2 DUP2 PUSH1 0x1 DUP6 ADD PUSH2 0x23B0 JUMP JUMPDEST DUP4 DUP6 ADD SWAP2 DUP3 MSTORE PUSH2 0x14DC PUSH1 0x2 DUP3 ADD SLOAD SWAP3 PUSH1 0x40 DUP8 ADD SWAP4 DUP5 MSTORE PUSH1 0x4 PUSH1 0x40 MLOAD SWAP4 PUSH2 0x14AA DUP6 PUSH2 0x9C4 DUP2 PUSH1 0x3 DUP6 ADD PUSH2 0x23B0 JUMP JUMPDEST PUSH1 0x60 DUP10 ADD SWAP5 DUP6 MSTORE ADD SLOAD SWAP6 PUSH1 0x80 DUP9 ADD SWAP7 DUP8 MSTORE PUSH1 0x40 MLOAD SWAP9 DUP10 SWAP9 DUP3 DUP11 MSTORE MLOAD AND SWAP1 DUP9 ADD MSTORE MLOAD PUSH1 0xA0 PUSH1 0x40 DUP9 ADD MSTORE PUSH1 0xC0 DUP8 ADD SWAP1 PUSH2 0x2353 JUMP JUMPDEST SWAP2 MLOAD PUSH1 0x60 DUP7 ADD MSTORE MLOAD DUP5 DUP3 SUB PUSH1 0x1F NOT ADD PUSH1 0x80 DUP7 ADD MSTORE PUSH2 0x2353 JUMP JUMPDEST SWAP1 MLOAD PUSH1 0xA0 DUP4 ADD MSTORE SUB SWAP1 RETURN JUMPDEST CALLVALUE PUSH2 0x790 JUMPI PUSH1 0x20 CALLDATASIZE PUSH1 0x3 NOT ADD SLT PUSH2 0x790 JUMPI PUSH1 0x4 CALLDATALOAD PUSH1 0x1 PUSH1 0x1 PUSH1 0xA0 SHL SUB DUP2 DUP2 AND SWAP2 DUP3 SWAP1 SUB PUSH2 0x790 JUMPI DUP1 PUSH2 0x153F SWAP2 PUSH1 0x12 SLOAD AND CALLER EQ SWAP1 DUP2 ISZERO PUSH2 0x1555 JUMPI POP PUSH2 0x25AC JUMP JUMPDEST PUSH1 0x13 DUP1 SLOAD PUSH1 0x1 PUSH1 0x1 PUSH1 0xA0 SHL SUB NOT AND SWAP2 SWAP1 SWAP2 OR SWAP1 SSTORE STOP JUMPDEST SWAP1 POP PUSH1 0xC SLOAD AND CALLER EQ DUP4 PUSH2 0xBE2 JUMP JUMPDEST CALLVALUE PUSH2 0x790 JUMPI PUSH1 0x40 CALLDATASIZE PUSH1 0x3 NOT ADD SLT PUSH2 0x790 JUMPI PUSH1 0x24 CALLDATALOAD PUSH1 0x1 PUSH1 0x1 PUSH1 0xA0 SHL SUB DUP2 AND SWAP1 DUP2 SWAP1 SUB PUSH2 0x790 JUMPI PUSH1 0x4 CALLDATALOAD PUSH0 MSTORE PUSH1 0xB PUSH1 0x20 MSTORE PUSH1 0x40 PUSH0 KECCAK256 SWAP1 PUSH0 MSTORE PUSH1 0x20 MSTORE PUSH1 0x20 PUSH1 0xFF PUSH1 0x40 PUSH0 KECCAK256 SLOAD AND PUSH1 0x40 MLOAD SWAP1 ISZERO ISZERO DUP2 MSTORE RETURN JUMPDEST CALLVALUE PUSH2 0x790 JUMPI PUSH0 CALLDATASIZE PUSH1 0x3 NOT ADD SLT PUSH2 0x790 JUMPI PUSH1 0x20 PUSH1 0x9 SLOAD PUSH1 0x40 MLOAD SWAP1 DUP2 MSTORE RETURN JUMPDEST CALLVALUE PUSH2 0x790 JUMPI PUSH1 0x20 DUP1 PUSH1 0x3 NOT CALLDATASIZE ADD SLT PUSH2 0x790 JUMPI PUSH1 0x4 CALLDATALOAD PUSH0 MSTORE PUSH1 0x7 DUP2 MSTORE PUSH1 0x40 PUSH0 KECCAK256 SWAP1 PUSH1 0x40 MLOAD SWAP1 DUP2 DUP2 DUP5 SLOAD SWAP2 DUP3 DUP2 MSTORE ADD SWAP4 PUSH0 MSTORE DUP2 PUSH0 KECCAK256 SWAP2 PUSH0 SWAP1 JUMPDEST DUP3 DUP3 LT PUSH2 0x161C JUMPI PUSH2 0x95C DUP6 PUSH2 0xF8C DUP2 DUP10 SUB DUP3 PUSH2 0x2276 JUMP JUMPDEST DUP4 SLOAD DUP7 MSTORE SWAP5 DUP6 ADD SWAP5 PUSH1 0x1 SWAP4 DUP5 ADD SWAP4 SWAP1 SWAP2 ADD SWAP1 PUSH2 0x1605 JUMP JUMPDEST CALLVALUE PUSH2 0x790 JUMPI PUSH1 0x20 CALLDATASIZE PUSH1 0x3 NOT ADD SLT PUSH2 0x790 JUMPI PUSH1 0x12 SLOAD PUSH2 0x1665 SWAP1 CALLER PUSH1 0x1 PUSH1 0x1 PUSH1 0xA0 SHL SUB SWAP2 DUP3 AND EQ SWAP1 DUP2 ISZERO PUSH2 0xE91 JUMPI POP PUSH2 0x25AC JUMP JUMPDEST PUSH1 0x4 CALLDATALOAD PUSH1 0x10 SSTORE STOP JUMPDEST CALLVALUE PUSH2 0x790 JUMPI PUSH1 0x60 CALLDATASIZE PUSH1 0x3 NOT ADD SLT PUSH2 0x790 JUMPI PUSH1 0x24 CALLDATALOAD PUSH1 0x1 PUSH1 0x1 PUSH1 0x40 SHL SUB DUP2 GT PUSH2 0x790 JUMPI PUSH2 0x169D SWAP1 CALLDATASIZE SWAP1 PUSH1 0x4 ADD PUSH2 0x22B2 JUMP JUMPDEST PUSH1 0x4 CALLDATALOAD PUSH0 MSTORE PUSH0 PUSH1 0x20 MSTORE PUSH2 0x16B8 PUSH1 0x2 PUSH1 0x40 PUSH0 KECCAK256 ADD SLOAD ISZERO ISZERO PUSH2 0x252E JUMP JUMPDEST PUSH2 0x16F7 PUSH0 PUSH1 0x1 DUP1 PUSH1 0xA0 SHL SUB PUSH1 0xD SLOAD AND PUSH1 0x4 CALLDATALOAD DUP3 MSTORE DUP2 PUSH1 0x20 MSTORE PUSH1 0x40 DUP3 KECCAK256 SWAP1 PUSH1 0x40 MLOAD DUP1 DUP1 SWAP6 DUP2 SWAP5 PUSH3 0x6E7C31 PUSH1 0xE9 SHL DUP4 MSTORE PUSH1 0x20 PUSH1 0x4 DUP5 ADD MSTORE PUSH1 0x24 DUP4 ADD SWAP1 PUSH2 0x23B0 JUMP JUMPDEST SUB SWAP2 GAS STATICCALL SWAP1 DUP2 ISZERO PUSH2 0x79C JUMPI PUSH0 SWAP2 PUSH2 0x1C18 JUMPI JUMPDEST POP PUSH1 0x44 CALLDATALOAD SWAP2 PUSH1 0x1 DUP4 GT ISZERO PUSH2 0x1BD4 JUMPI PUSH2 0x1725 PUSH1 0x8 SLOAD DUP4 MLOAD SWAP1 PUSH2 0x2576 JUMP JUMPDEST DUP4 GT PUSH2 0x1B94 JUMPI PUSH1 0x4 CALLDATALOAD PUSH0 MSTORE PUSH1 0xB PUSH1 0x20 MSTORE PUSH1 0x40 PUSH0 KECCAK256 CALLER PUSH0 MSTORE PUSH1 0x20 MSTORE PUSH1 0xFF PUSH1 0x40 PUSH0 KECCAK256 SLOAD AND PUSH2 0x1B45 JUMPI PUSH2 0x17B5 SWAP2 PUSH1 0x4 CALLDATALOAD PUSH0 MSTORE PUSH1 0xB PUSH1 0x20 MSTORE PUSH1 0x40 PUSH0 KECCAK256 CALLER PUSH0 MSTORE PUSH1 0x20 MSTORE PUSH1 0x40 PUSH0 KECCAK256 PUSH1 0x1 PUSH1 0xFF NOT DUP3 SLOAD AND OR SWAP1 SSTORE PUSH1 0x20 PUSH1 0x1 DUP1 PUSH1 0xA0 SHL SUB PUSH1 0xE SLOAD AND PUSH1 0x4 CALLDATALOAD PUSH0 MSTORE PUSH0 DUP3 MSTORE PUSH1 0x40 PUSH0 KECCAK256 SWAP1 PUSH1 0x40 MLOAD DUP1 DUP1 SWAP8 DUP2 SWAP5 PUSH4 0x2B5DF59 PUSH1 0xE0 SHL DUP4 MSTORE CALLER PUSH1 0x4 DUP5 ADD MSTORE PUSH1 0x40 PUSH1 0x24 DUP5 ADD MSTORE PUSH1 0x44 DUP4 ADD SWAP1 PUSH2 0x23B0 JUMP JUMPDEST SUB SWAP2 GAS STATICCALL SWAP3 DUP4 ISZERO PUSH2 0x79C JUMPI PUSH0 SWAP4 PUSH2 0x1B11 JUMPI JUMPDEST POP PUSH1 0x8 SLOAD SWAP1 DUP2 DUP6 GT PUSH2 0x1AED JUMPI POP PUSH0 NOT SWAP1 DUP5 DUP3 ADD DUP6 DUP2 GT PUSH2 0x491 JUMPI LT ISZERO PUSH2 0x6D1 JUMPI PUSH2 0x1805 PUSH2 0x625 SWAP2 PUSH1 0x8 PUSH0 MSTORE DUP6 PUSH1 0x20 PUSH0 KECCAK256 ADD ADD PUSH1 0x40 MLOAD SWAP3 DUP4 DUP1 SWAP3 PUSH2 0x23B0 JUMP JUMPDEST PUSH1 0x40 MLOAD SWAP4 PUSH2 0x1812 DUP6 PUSH2 0x2225 JUMP JUMPDEST CALLER DUP6 MSTORE PUSH1 0x20 DUP6 ADD SWAP1 DUP4 DUP3 MSTORE PUSH1 0x40 DUP7 ADD MSTORE DUP2 PUSH1 0x60 DUP7 ADD MSTORE DUP4 PUSH1 0x80 DUP7 ADD MSTORE PUSH1 0x6 SLOAD PUSH0 MSTORE PUSH1 0x5 PUSH1 0x20 MSTORE PUSH1 0x40 PUSH0 KECCAK256 SWAP1 PUSH1 0x1 DUP1 PUSH1 0xA0 SHL SUB DUP7 MLOAD AND PUSH1 0x1 DUP1 PUSH1 0xA0 SHL SUB NOT DUP4 SLOAD AND OR DUP3 SSTORE MLOAD DUP1 MLOAD PUSH1 0x1 PUSH1 0x1 PUSH1 0x40 SHL SUB DUP2 GT PUSH2 0x522 JUMPI DUP1 PUSH1 0x1 DUP5 ADD SWAP3 PUSH2 0x1880 DUP3 PUSH2 0x187A DUP7 SLOAD PUSH2 0x2378 JUMP JUMPDEST DUP7 PUSH2 0x24DD JUMP JUMPDEST PUSH1 0x20 SWAP1 PUSH1 0x1F DUP4 GT PUSH1 0x1 EQ PUSH2 0x1A89 JUMPI PUSH0 SWAP3 PUSH2 0x1A7E JUMPI JUMPDEST POP POP DUP2 PUSH1 0x1 SHL SWAP2 PUSH0 NOT SWAP1 PUSH1 0x3 SHL SHR NOT AND OR SWAP1 SSTORE JUMPDEST PUSH1 0x40 DUP6 ADD MLOAD PUSH1 0x2 DUP3 ADD SSTORE PUSH1 0x60 DUP6 ADD MLOAD SWAP5 DUP6 MLOAD PUSH1 0x1 PUSH1 0x1 PUSH1 0x40 SHL SUB DUP2 GT PUSH2 0x522 JUMPI PUSH2 0x18E3 DUP2 PUSH2 0x18DA PUSH1 0x3 DUP7 ADD SLOAD PUSH2 0x2378 JUMP JUMPDEST PUSH1 0x3 DUP7 ADD PUSH2 0x24DD JUMP JUMPDEST PUSH1 0x20 PUSH1 0x1F DUP3 GT PUSH1 0x1 EQ PUSH2 0x19E5 JUMPI PUSH1 0x80 PUSH32 0xDF5898210DFD85B69A1551C8EC0BB02719A41F3283EADD1145B9BFFC9F2E1730 SWAP6 SWAP4 DUP4 PUSH2 0x19A5 SWAP7 SWAP5 PUSH1 0x4 SWAP5 PUSH2 0x19C0 SWAP13 PUSH0 SWAP3 PUSH2 0x19DA JUMPI JUMPDEST POP POP DUP2 PUSH1 0x1 SHL SWAP2 PUSH0 NOT SWAP1 PUSH1 0x3 SHL SHR NOT AND OR PUSH1 0x3 DUP6 ADD SSTORE JUMPDEST ADD MLOAD SWAP2 ADD SSTORE PUSH1 0x4 CALLDATALOAD PUSH0 MSTORE PUSH1 0x7 PUSH1 0x20 MSTORE PUSH2 0x195F PUSH1 0x40 PUSH0 KECCAK256 PUSH1 0x6 SLOAD SWAP1 PUSH2 0x24A2 JUMP JUMPDEST PUSH2 0x19B8 PUSH1 0x6 SLOAD SWAP6 DUP7 SWAP6 PUSH1 0x40 MLOAD SWAP5 DUP6 SWAP5 CALLER PUSH1 0x4 CALLDATALOAD DUP11 PUSH32 0x953DE3727DE1848EA7329BEE97A44132BDD8271D8D663EB90BC2772F21541EC8 PUSH0 DUP1 LOG4 PUSH1 0x60 DUP7 MSTORE PUSH1 0x60 DUP7 ADD SWAP1 PUSH2 0x2353 JUMP JUMPDEST SWAP2 PUSH1 0x20 DUP6 ADD MSTORE DUP4 DUP3 SUB PUSH1 0x40 DUP6 ADD MSTORE PUSH2 0x2353 JUMP JUMPDEST SUB SWAP1 LOG2 PUSH2 0x2520 JUMP JUMPDEST DUP1 PUSH1 0x6 SSTORE PUSH0 NOT DUP2 ADD SWAP1 DUP2 GT PUSH2 0x491 JUMPI PUSH1 0x20 SWAP1 PUSH1 0x40 MLOAD SWAP1 DUP2 MSTORE RETURN JUMPDEST ADD MLOAD SWAP1 POP DUP13 DUP1 PUSH2 0x1929 JUMP JUMPDEST PUSH1 0x3 DUP5 ADD PUSH0 MSTORE PUSH1 0x20 PUSH0 KECCAK256 SWAP8 PUSH0 JUMPDEST PUSH1 0x1F NOT DUP5 AND DUP2 LT PUSH2 0x1A66 JUMPI POP PUSH32 0xDF5898210DFD85B69A1551C8EC0BB02719A41F3283EADD1145B9BFFC9F2E1730 SWAP6 SWAP4 PUSH1 0x1 DUP5 PUSH2 0x19C0 SWAP12 PUSH1 0x4 SWAP6 PUSH1 0x80 SWAP6 PUSH2 0x19A5 SWAP11 SWAP9 PUSH1 0x1F NOT DUP2 AND LT PUSH2 0x1A4E JUMPI JUMPDEST POP POP POP DUP2 SHL ADD PUSH1 0x3 DUP6 ADD SSTORE PUSH2 0x1940 JUMP JUMPDEST ADD MLOAD PUSH0 NOT PUSH1 0xF8 DUP5 PUSH1 0x3 SHL AND SHR NOT AND SWAP1 SSTORE DUP13 DUP1 DUP1 PUSH2 0x1A3E JUMP JUMPDEST DUP3 DUP3 ADD MLOAD DUP11 SSTORE PUSH1 0x1 SWAP1 SWAP10 ADD SWAP9 PUSH1 0x20 SWAP3 DUP4 ADD SWAP3 ADD PUSH2 0x19F2 JUMP JUMPDEST ADD MLOAD SWAP1 POP DUP9 DUP1 PUSH2 0x1895 JUMP JUMPDEST PUSH0 DUP6 DUP2 MSTORE PUSH1 0x20 DUP2 KECCAK256 SWAP4 POP PUSH1 0x1F NOT DUP6 AND SWAP1 JUMPDEST DUP2 DUP2 LT PUSH2 0x1AD5 JUMPI POP SWAP1 DUP5 PUSH1 0x1 SWAP6 SWAP5 SWAP4 SWAP3 LT PUSH2 0x1ABD JUMPI JUMPDEST POP POP POP DUP2 SHL ADD SWAP1 SSTORE PUSH2 0x18A9 JUMP JUMPDEST ADD MLOAD PUSH0 NOT PUSH1 0xF8 DUP5 PUSH1 0x3 SHL AND SHR NOT AND SWAP1 SSTORE DUP9 DUP1 DUP1 PUSH2 0x1AB0 JUMP JUMPDEST SWAP3 SWAP4 PUSH1 0x20 PUSH1 0x1 DUP2 SWAP3 DUP8 DUP7 ADD MLOAD DUP2 SSTORE ADD SWAP6 ADD SWAP4 ADD PUSH2 0x1A9A JUMP JUMPDEST SWAP1 DUP5 SUB DUP5 DUP2 GT PUSH2 0x491 JUMPI PUSH0 NOT DUP2 ADD SWAP1 DUP2 GT PUSH2 0x491 JUMPI PUSH2 0x1B0B SWAP2 PUSH2 0x2583 JUMP JUMPDEST MLOAD PUSH2 0x1805 JUMP JUMPDEST SWAP1 SWAP3 POP PUSH1 0x20 DUP2 RETURNDATASIZE PUSH1 0x20 GT PUSH2 0x1B3D JUMPI JUMPDEST DUP2 PUSH2 0x1B2D PUSH1 0x20 SWAP4 DUP4 PUSH2 0x2276 JUMP JUMPDEST DUP2 ADD SUB SLT PUSH2 0x790 JUMPI MLOAD SWAP2 DUP5 PUSH2 0x17C7 JUMP JUMPDEST RETURNDATASIZE SWAP2 POP PUSH2 0x1B20 JUMP JUMPDEST PUSH1 0x40 MLOAD PUSH3 0x461BCD PUSH1 0xE5 SHL DUP2 MSTORE PUSH1 0x20 PUSH1 0x4 DUP3 ADD MSTORE PUSH1 0x21 PUSH1 0x24 DUP3 ADD MSTORE PUSH32 0x596F7527766520616C7265616479207265766965776564207468697320706F73 PUSH1 0x44 DUP3 ADD MSTORE PUSH1 0x1D PUSH1 0xFA SHL PUSH1 0x64 DUP3 ADD MSTORE PUSH1 0x84 SWAP1 REVERT JUMPDEST PUSH1 0x40 MLOAD PUSH3 0x461BCD PUSH1 0xE5 SHL DUP2 MSTORE PUSH1 0x20 PUSH1 0x4 DUP3 ADD MSTORE PUSH1 0x18 PUSH1 0x24 DUP3 ADD MSTORE PUSH24 0x436F6E73656E736F7573204E6F7420496E20426F756E6473 PUSH1 0x40 SHL PUSH1 0x44 DUP3 ADD MSTORE PUSH1 0x64 SWAP1 REVERT JUMPDEST PUSH1 0x64 PUSH1 0x40 MLOAD PUSH3 0x461BCD PUSH1 0xE5 SHL DUP2 MSTORE PUSH1 0x20 PUSH1 0x4 DUP3 ADD MSTORE PUSH1 0x20 PUSH1 0x24 DUP3 ADD MSTORE PUSH32 0x436F6E73656E736F7573206D75732062652067726561746572207468616E2031 PUSH1 0x44 DUP3 ADD MSTORE REVERT JUMPDEST RETURNDATASIZE SWAP2 POP DUP2 PUSH0 DUP3 RETURNDATACOPY PUSH2 0x1C29 DUP3 DUP3 PUSH2 0x2276 JUMP JUMPDEST PUSH1 0x20 DUP2 DUP4 DUP2 ADD SUB SLT PUSH2 0x790 JUMPI DUP1 MLOAD PUSH1 0x1 PUSH1 0x1 PUSH1 0x40 SHL SUB DUP2 GT PUSH2 0x790 JUMPI DUP3 DUP3 ADD PUSH1 0x1F DUP3 DUP5 ADD ADD SLT ISZERO PUSH2 0x790 JUMPI DUP1 DUP3 ADD MLOAD SWAP1 PUSH2 0x1C62 DUP3 PUSH2 0x2473 JUMP JUMPDEST SWAP4 PUSH2 0x1C70 PUSH1 0x40 MLOAD SWAP6 DUP7 PUSH2 0x2276 JUMP JUMPDEST DUP3 DUP6 MSTORE PUSH1 0x20 DUP6 ADD SWAP1 DUP1 DUP6 ADD PUSH1 0x20 DUP6 PUSH1 0x5 SHL DUP6 DUP9 ADD ADD ADD GT PUSH2 0x790 JUMPI PUSH1 0x20 DUP4 DUP7 ADD ADD SWAP2 JUMPDEST PUSH1 0x20 DUP6 PUSH1 0x5 SHL DUP6 DUP9 ADD ADD ADD DUP4 LT PUSH2 0x1CB0 JUMPI POP POP POP POP POP POP DUP3 PUSH2 0x1709 JUMP JUMPDEST DUP3 MLOAD PUSH1 0x1 PUSH1 0x1 PUSH1 0x40 SHL SUB DUP2 GT PUSH2 0x790 JUMPI DUP3 DUP8 ADD PUSH1 0x3F DUP3 DUP8 DUP11 ADD ADD ADD SLT ISZERO PUSH2 0x790 JUMPI PUSH1 0x20 DUP2 DUP7 DUP10 ADD ADD ADD MLOAD PUSH2 0x1CE3 DUP2 PUSH2 0x2297 JUMP JUMPDEST SWAP3 PUSH2 0x1CF1 PUSH1 0x40 MLOAD SWAP5 DUP6 PUSH2 0x2276 JUMP JUMPDEST DUP2 DUP5 MSTORE DUP5 DUP10 ADD PUSH1 0x40 DUP4 DUP6 DUP11 DUP14 ADD ADD ADD ADD GT PUSH2 0x790 JUMPI DUP4 PUSH2 0x1D21 PUSH1 0x20 SWAP6 SWAP4 DUP12 PUSH1 0x40 DUP9 SWAP8 DUP13 DUP10 DUP1 SWAP10 ADD SWAP4 ADD ADD ADD PUSH2 0x2332 JUMP JUMPDEST DUP2 MSTORE ADD SWAP4 ADD SWAP3 SWAP1 POP PUSH2 0x1C93 JUMP JUMPDEST CALLVALUE PUSH2 0x790 JUMPI PUSH1 0x20 CALLDATASIZE PUSH1 0x3 NOT ADD SLT PUSH2 0x790 JUMPI PUSH2 0x1D47 PUSH2 0x220F JUMP JUMPDEST PUSH1 0x12 SLOAD PUSH1 0x1 PUSH1 0x1 PUSH1 0xA0 SHL SUB SWAP2 SWAP1 DUP3 AND CALLER EQ DUP1 ISZERO PUSH2 0x1D7D JUMPI JUMPDEST PUSH2 0x1D68 SWAP1 PUSH2 0x25AC JUMP JUMPDEST AND PUSH1 0x1 DUP1 PUSH1 0xA0 SHL SUB NOT PUSH1 0xC SLOAD AND OR PUSH1 0xC SSTORE PUSH0 DUP1 RETURN JUMPDEST POP PUSH1 0xC SLOAD DUP3 AND CALLER EQ PUSH2 0x1D5F JUMP JUMPDEST CALLVALUE PUSH2 0x790 JUMPI PUSH0 CALLDATASIZE PUSH1 0x3 NOT ADD SLT PUSH2 0x790 JUMPI PUSH1 0x20 PUSH1 0x11 SLOAD PUSH1 0x40 MLOAD SWAP1 DUP2 MSTORE RETURN JUMPDEST CALLVALUE PUSH2 0x790 JUMPI PUSH0 CALLDATASIZE PUSH1 0x3 NOT ADD SLT PUSH2 0x790 JUMPI PUSH1 0xD SLOAD PUSH1 0x40 MLOAD PUSH1 0x1 PUSH1 0x1 PUSH1 0xA0 SHL SUB SWAP1 SWAP2 AND DUP2 MSTORE PUSH1 0x20 SWAP1 RETURN JUMPDEST CALLVALUE PUSH2 0x790 JUMPI PUSH1 0x20 DUP1 PUSH1 0x3 NOT CALLDATASIZE ADD SLT PUSH2 0x790 JUMPI PUSH1 0x1 PUSH1 0x1 PUSH1 0x40 SHL SUB SWAP1 PUSH1 0x4 CALLDATALOAD DUP3 DUP2 GT PUSH2 0x790 JUMPI CALLDATASIZE PUSH1 0x23 DUP3 ADD SLT ISZERO PUSH2 0x790 JUMPI DUP1 PUSH1 0x4 ADD CALLDATALOAD SWAP3 DUP4 GT PUSH2 0x790 JUMPI DUP3 DUP2 ADD PUSH1 0x24 SWAP4 CALLDATASIZE DUP6 DUP4 ADD GT PUSH2 0x790 JUMPI PUSH1 0x12 SLOAD DUP5 SWAP2 SWAP1 PUSH2 0x1E3E SWAP1 CALLER PUSH1 0x1 PUSH1 0x1 PUSH1 0xA0 SHL SUB SWAP2 DUP3 AND EQ SWAP1 DUP2 ISZERO PUSH2 0xD83 JUMPI POP PUSH2 0x25AC JUMP JUMPDEST EQ PUSH2 0x1E45 JUMPI STOP JUMPDEST DUP2 DUP4 SWAP2 SUB SLT PUSH2 0x790 JUMPI DUP3 ADD CALLDATALOAD SWAP1 PUSH0 DUP3 SGT ISZERO PUSH2 0x20D9 JUMPI PUSH1 0x1 JUMPDEST DUP3 ISZERO ISZERO DUP1 PUSH2 0x20B3 JUMPI JUMPDEST DUP1 PUSH2 0x209D JUMPI JUMPDEST DUP1 PUSH2 0x2089 JUMPI JUMPDEST PUSH2 0x1E78 JUMPI STOP JUMPDEST PUSH1 0x1 SWAP1 ISZERO ISZERO DUP2 SUB PUSH2 0x2038 JUMPI PUSH1 0x8 SLOAD DUP2 LT ISZERO PUSH2 0x2025 JUMPI PUSH32 0x3ED188EDBA0C6B2D9B7A54CEC2942F1CAB56A63A4DCFDCA5FF11706FFDF25B1E DUP4 SWAP2 PUSH1 0x8 PUSH0 MSTORE PUSH2 0x1ECD DUP2 DUP6 PUSH0 KECCAK256 ADD DUP5 PUSH0 MSTORE PUSH0 DUP7 MSTORE DUP3 PUSH1 0x40 PUSH0 KECCAK256 ADD PUSH2 0x2617 JUMP JUMPDEST DUP3 PUSH0 MSTORE DUP1 DUP5 MSTORE PUSH1 0x40 PUSH0 KECCAK256 SLOAD SWAP1 PUSH0 DUP6 MSTORE PUSH1 0x40 PUSH0 KECCAK256 ADD SWAP1 PUSH2 0x1EFD PUSH1 0x40 MLOAD SWAP3 DUP4 SWAP3 DUP4 MSTORE PUSH1 0x40 DUP8 DUP5 ADD MSTORE PUSH1 0x40 DUP4 ADD SWAP1 PUSH2 0x23B0 JUMP JUMPDEST SUB SWAP1 LOG2 DUP2 PUSH0 MSTORE PUSH1 0xA DUP2 MSTORE PUSH1 0x40 PUSH0 KECCAK256 SLOAD SWAP1 PUSH1 0x9 SLOAD SWAP3 PUSH0 NOT SWAP4 DUP5 DUP2 ADD SWAP1 DUP2 GT PUSH2 0x2012 JUMPI DUP1 DUP5 SUB PUSH2 0x1F6F JUMPI JUMPDEST POP PUSH1 0xA SWAP3 POP PUSH0 MSTORE MSTORE PUSH0 PUSH1 0x40 DUP2 KECCAK256 SSTORE PUSH1 0x9 SLOAD DUP1 ISZERO PUSH2 0x1F5C JUMPI DUP2 ADD SWAP2 POP PUSH2 0x1F4A DUP3 PUSH2 0x21E2 JUMP JUMPDEST SWAP1 SWAP2 DUP3 SLOAD SWAP2 PUSH1 0x3 SHL SHL NOT AND SWAP1 SSTORE PUSH1 0x9 SSTORE STOP JUMPDEST DUP3 PUSH4 0x4E487B71 PUSH1 0xE0 SHL PUSH0 MSTORE PUSH1 0x31 PUSH1 0x4 MSTORE PUSH0 REVERT JUMPDEST PUSH2 0x1F7B PUSH2 0x1FA3 SWAP2 PUSH2 0x21E2 JUMP JUMPDEST SWAP1 SLOAD PUSH2 0x1F86 DUP7 PUSH2 0x21E2 JUMP JUMPDEST SWAP2 SWAP1 SWAP3 PUSH1 0x3 SHL SHR SWAP1 DUP3 SLOAD SWAP1 PUSH1 0x3 SHL SWAP2 DUP3 SHL SWAP2 PUSH0 NOT SWAP1 SHL NOT AND OR SWAP1 SSTORE JUMP JUMPDEST PUSH1 0x9 SLOAD SWAP3 DUP5 DUP5 ADD SWAP4 DUP5 GT PUSH2 0x2012 JUMPI PUSH1 0x40 PUSH32 0x2F5A4EE168DCA9EAEF284F1844A3D24D74BA63A5FCCC947454FC07515C8B3774 SWAP2 PUSH2 0x1FE0 PUSH1 0xA SWAP7 PUSH2 0x21E2 JUMP JUMPDEST SWAP1 SLOAD SWAP1 PUSH1 0x3 SHL SHR PUSH0 MSTORE DUP6 DUP6 MSTORE DUP1 DUP3 PUSH0 KECCAK256 SSTORE PUSH2 0x1FFA DUP2 PUSH2 0x21E2 JUMP JUMPDEST SWAP1 SLOAD SWAP1 PUSH1 0x3 SHL SHR SWAP1 DUP3 MLOAD SWAP2 DUP3 MSTORE DUP6 DUP3 ADD MSTORE LOG1 DUP6 PUSH2 0x1F26 JUMP JUMPDEST DUP6 PUSH4 0x4E487B71 PUSH1 0xE0 SHL PUSH0 MSTORE PUSH1 0x11 PUSH1 0x4 MSTORE PUSH0 REVERT JUMPDEST DUP4 PUSH4 0x4E487B71 PUSH1 0xE0 SHL PUSH0 MSTORE PUSH1 0x32 PUSH1 0x4 MSTORE PUSH0 REVERT JUMPDEST PUSH1 0x8 SLOAD PUSH1 0x2 LT ISZERO PUSH2 0x2025 JUMPI PUSH32 0x3ED188EDBA0C6B2D9B7A54CEC2942F1CAB56A63A4DCFDCA5FF11706FFDF25B1E DUP4 SWAP2 PUSH1 0x8 PUSH0 MSTORE PUSH2 0x2084 PUSH1 0x2 DUP6 PUSH0 KECCAK256 ADD DUP5 PUSH0 MSTORE PUSH0 DUP7 MSTORE DUP3 PUSH1 0x40 PUSH0 KECCAK256 ADD PUSH2 0x2617 JUMP JUMPDEST PUSH2 0x1ECD JUMP JUMPDEST POP DUP3 PUSH0 MSTORE PUSH1 0xA DUP3 MSTORE PUSH1 0x40 PUSH0 KECCAK256 SLOAD ISZERO ISZERO PUSH2 0x1E72 JUMP JUMPDEST POP DUP3 PUSH0 MSTORE PUSH0 DUP3 MSTORE PUSH1 0x2 PUSH1 0x40 PUSH0 KECCAK256 ADD SLOAD ISZERO ISZERO PUSH2 0x1E6C JUMP JUMPDEST POP DUP3 PUSH0 MSTORE PUSH0 DUP3 MSTORE PUSH2 0x20D1 PUSH1 0x40 PUSH0 KECCAK256 PUSH1 0x3 PUSH1 0x2 DUP3 ADD SLOAD SWAP2 ADD SLOAD SWAP1 PUSH2 0x2576 JUMP JUMPDEST TIMESTAMP LT ISZERO PUSH2 0x1E66 JUMP JUMPDEST PUSH0 SWAP2 PUSH1 0x1 PUSH1 0xFF SHL DUP2 EQ PUSH2 0x20EE JUMPI PUSH0 SUB SWAP2 PUSH2 0x1E5D JUMP JUMPDEST DUP4 PUSH4 0x4E487B71 PUSH1 0xE0 SHL PUSH0 MSTORE PUSH1 0x11 PUSH1 0x4 MSTORE PUSH0 REVERT JUMPDEST CALLVALUE PUSH2 0x790 JUMPI PUSH0 CALLDATASIZE PUSH1 0x3 NOT ADD SLT PUSH2 0x790 JUMPI PUSH1 0x20 PUSH1 0x10 SLOAD PUSH1 0x40 MLOAD SWAP1 DUP2 MSTORE RETURN JUMPDEST CALLVALUE PUSH2 0x790 JUMPI PUSH1 0x20 CALLDATASIZE PUSH1 0x3 NOT ADD SLT PUSH2 0x790 JUMPI PUSH2 0x2137 PUSH2 0x220F JUMP JUMPDEST PUSH1 0x12 SLOAD PUSH1 0x1 PUSH1 0x1 PUSH1 0xA0 SHL SUB SWAP2 SWAP1 DUP3 AND CALLER EQ DUP1 ISZERO PUSH2 0x216D JUMPI JUMPDEST PUSH2 0x2158 SWAP1 PUSH2 0x25AC JUMP JUMPDEST AND PUSH1 0x1 DUP1 PUSH1 0xA0 SHL SUB NOT PUSH1 0xE SLOAD AND OR PUSH1 0xE SSTORE PUSH0 DUP1 RETURN JUMPDEST POP PUSH1 0xC SLOAD DUP3 AND CALLER EQ PUSH2 0x214F JUMP JUMPDEST CALLVALUE PUSH2 0x790 JUMPI PUSH2 0x2188 CALLDATASIZE PUSH2 0x21CC JUMP JUMPDEST SWAP1 PUSH0 MSTORE PUSH1 0x7 PUSH1 0x20 MSTORE PUSH1 0x40 PUSH0 KECCAK256 DUP1 SLOAD DUP3 LT ISZERO PUSH2 0x790 JUMPI PUSH1 0x20 SWAP2 PUSH2 0x8EB SWAP2 PUSH2 0x21FA JUMP JUMPDEST CALLVALUE PUSH2 0x790 JUMPI PUSH0 CALLDATASIZE PUSH1 0x3 NOT ADD SLT PUSH2 0x790 JUMPI PUSH1 0xF SLOAD PUSH1 0x1 PUSH1 0x1 PUSH1 0xA0 SHL SUB AND DUP2 MSTORE PUSH1 0x20 SWAP1 RETURN JUMPDEST PUSH1 0x40 SWAP1 PUSH1 0x3 NOT ADD SLT PUSH2 0x790 JUMPI PUSH1 0x4 CALLDATALOAD SWAP1 PUSH1 0x24 CALLDATALOAD SWAP1 JUMP JUMPDEST PUSH1 0x9 SLOAD DUP2 LT ISZERO PUSH2 0x6D1 JUMPI PUSH1 0x9 PUSH0 MSTORE PUSH1 0x20 PUSH0 KECCAK256 ADD SWAP1 PUSH0 SWAP1 JUMP JUMPDEST DUP1 SLOAD DUP3 LT ISZERO PUSH2 0x6D1 JUMPI PUSH0 MSTORE PUSH1 0x20 PUSH0 KECCAK256 ADD SWAP1 PUSH0 SWAP1 JUMP JUMPDEST PUSH1 0x4 CALLDATALOAD SWAP1 PUSH1 0x1 PUSH1 0x1 PUSH1 0xA0 SHL SUB DUP3 AND DUP3 SUB PUSH2 0x790 JUMPI JUMP JUMPDEST PUSH1 0xA0 DUP2 ADD SWAP1 DUP2 LT PUSH1 0x1 PUSH1 0x1 PUSH1 0x40 SHL SUB DUP3 GT OR PUSH2 0x522 JUMPI PUSH1 0x40 MSTORE JUMP JUMPDEST PUSH1 0x80 DUP2 ADD SWAP1 DUP2 LT PUSH1 0x1 PUSH1 0x1 PUSH1 0x40 SHL SUB DUP3 GT OR PUSH2 0x522 JUMPI PUSH1 0x40 MSTORE JUMP JUMPDEST PUSH1 0x40 DUP2 ADD SWAP1 DUP2 LT PUSH1 0x1 PUSH1 0x1 PUSH1 0x40 SHL SUB DUP3 GT OR PUSH2 0x522 JUMPI PUSH1 0x40 MSTORE JUMP JUMPDEST SWAP1 PUSH1 0x1F DUP1 NOT SWAP2 ADD AND DUP2 ADD SWAP1 DUP2 LT PUSH1 0x1 PUSH1 0x1 PUSH1 0x40 SHL SUB DUP3 GT OR PUSH2 0x522 JUMPI PUSH1 0x40 MSTORE JUMP JUMPDEST PUSH1 0x1 PUSH1 0x1 PUSH1 0x40 SHL SUB DUP2 GT PUSH2 0x522 JUMPI PUSH1 0x1F ADD PUSH1 0x1F NOT AND PUSH1 0x20 ADD SWAP1 JUMP JUMPDEST DUP2 PUSH1 0x1F DUP3 ADD SLT ISZERO PUSH2 0x790 JUMPI DUP1 CALLDATALOAD SWAP1 PUSH2 0x22C9 DUP3 PUSH2 0x2297 JUMP JUMPDEST SWAP3 PUSH2 0x22D7 PUSH1 0x40 MLOAD SWAP5 DUP6 PUSH2 0x2276 JUMP JUMPDEST DUP3 DUP5 MSTORE PUSH1 0x20 DUP4 DUP4 ADD ADD GT PUSH2 0x790 JUMPI DUP2 PUSH0 SWAP3 PUSH1 0x20 DUP1 SWAP4 ADD DUP4 DUP7 ADD CALLDATACOPY DUP4 ADD ADD MSTORE SWAP1 JUMP JUMPDEST PUSH1 0x20 SWAP1 DUP2 PUSH1 0x40 DUP2 DUP4 ADD SWAP3 DUP3 DUP2 MSTORE DUP6 MLOAD DUP1 SWAP5 MSTORE ADD SWAP4 ADD SWAP2 PUSH0 JUMPDEST DUP3 DUP2 LT PUSH2 0x231E JUMPI POP POP POP POP SWAP1 JUMP JUMPDEST DUP4 MLOAD DUP6 MSTORE SWAP4 DUP2 ADD SWAP4 SWAP3 DUP2 ADD SWAP3 PUSH1 0x1 ADD PUSH2 0x2310 JUMP JUMPDEST PUSH0 JUMPDEST DUP4 DUP2 LT PUSH2 0x2343 JUMPI POP POP PUSH0 SWAP2 ADD MSTORE JUMP JUMPDEST DUP2 DUP2 ADD MLOAD DUP4 DUP3 ADD MSTORE PUSH1 0x20 ADD PUSH2 0x2334 JUMP JUMPDEST SWAP1 PUSH1 0x20 SWAP2 PUSH2 0x236C DUP2 MLOAD DUP1 SWAP3 DUP2 DUP6 MSTORE DUP6 DUP1 DUP7 ADD SWAP2 ADD PUSH2 0x2332 JUMP JUMPDEST PUSH1 0x1F ADD PUSH1 0x1F NOT AND ADD ADD SWAP1 JUMP JUMPDEST SWAP1 PUSH1 0x1 DUP3 DUP2 SHR SWAP3 AND DUP1 ISZERO PUSH2 0x23A6 JUMPI JUMPDEST PUSH1 0x20 DUP4 LT EQ PUSH2 0x2392 JUMPI JUMP JUMPDEST PUSH4 0x4E487B71 PUSH1 0xE0 SHL PUSH0 MSTORE PUSH1 0x22 PUSH1 0x4 MSTORE PUSH1 0x24 PUSH0 REVERT JUMPDEST SWAP2 PUSH1 0x7F AND SWAP2 PUSH2 0x2387 JUMP JUMPDEST SWAP1 PUSH0 SWAP3 SWAP2 DUP1 SLOAD SWAP2 PUSH2 0x23C0 DUP4 PUSH2 0x2378 JUMP JUMPDEST SWAP2 DUP3 DUP3 MSTORE PUSH1 0x1 SWAP4 DUP5 DUP2 AND SWAP1 DUP2 PUSH0 EQ PUSH2 0x241E JUMPI POP PUSH1 0x1 EQ PUSH2 0x23E1 JUMPI JUMPDEST POP POP POP POP JUMP JUMPDEST SWAP1 SWAP2 SWAP4 SWAP5 POP PUSH0 MSTORE PUSH1 0x20 SWAP3 DUP4 PUSH0 KECCAK256 SWAP3 DUP5 PUSH0 SWAP5 JUMPDEST DUP4 DUP7 LT PUSH2 0x240A JUMPI POP POP POP POP ADD ADD SWAP1 PUSH0 DUP1 DUP1 DUP1 PUSH2 0x23DB JUMP JUMPDEST DUP1 SLOAD DUP6 DUP8 ADD DUP4 ADD MSTORE SWAP5 ADD SWAP4 DUP6 SWAP1 DUP3 ADD PUSH2 0x23F3 JUMP JUMPDEST SWAP3 SWAP5 POP POP POP PUSH1 0x20 SWAP4 SWAP5 POP PUSH1 0xFF NOT AND DUP4 DUP4 ADD MSTORE ISZERO ISZERO PUSH1 0x5 SHL ADD ADD SWAP1 PUSH0 DUP1 DUP1 DUP1 PUSH2 0x23DB JUMP JUMPDEST SWAP1 PUSH1 0x40 PUSH1 0x3 NOT DUP4 ADD SLT PUSH2 0x790 JUMPI PUSH1 0x4 CALLDATALOAD SWAP2 PUSH1 0x24 CALLDATALOAD SWAP1 PUSH1 0x1 PUSH1 0x1 PUSH1 0x40 SHL SUB DUP3 GT PUSH2 0x790 JUMPI PUSH2 0x2470 SWAP2 PUSH1 0x4 ADD PUSH2 0x22B2 JUMP JUMPDEST SWAP1 JUMP JUMPDEST PUSH1 0x1 PUSH1 0x1 PUSH1 0x40 SHL SUB DUP2 GT PUSH2 0x522 JUMPI PUSH1 0x5 SHL PUSH1 0x20 ADD SWAP1 JUMP JUMPDEST SWAP1 DUP2 PUSH1 0x20 SWAP2 SUB SLT PUSH2 0x790 JUMPI MLOAD DUP1 ISZERO ISZERO DUP2 SUB PUSH2 0x790 JUMPI SWAP1 JUMP JUMPDEST DUP1 SLOAD SWAP2 SWAP1 PUSH1 0x1 PUSH1 0x40 SHL DUP4 LT ISZERO PUSH2 0x522 JUMPI DUP3 PUSH2 0x654 SWAP2 PUSH1 0x1 PUSH2 0x24C5 SWAP6 ADD DUP2 SSTORE PUSH2 0x21FA JUMP JUMPDEST JUMP JUMPDEST DUP2 DUP2 LT PUSH2 0x24D2 JUMPI POP POP JUMP JUMPDEST PUSH0 DUP2 SSTORE PUSH1 0x1 ADD PUSH2 0x24C7 JUMP JUMPDEST SWAP2 SWAP1 PUSH1 0x1F DUP2 GT PUSH2 0x24EC JUMPI POP POP POP JUMP JUMPDEST PUSH2 0x24C5 SWAP3 PUSH0 MSTORE PUSH1 0x20 PUSH0 KECCAK256 SWAP1 PUSH1 0x20 PUSH1 0x1F DUP5 ADD PUSH1 0x5 SHR DUP4 ADD SWAP4 LT PUSH2 0x2516 JUMPI JUMPDEST PUSH1 0x1F ADD PUSH1 0x5 SHR ADD SWAP1 PUSH2 0x24C7 JUMP JUMPDEST SWAP1 SWAP2 POP DUP2 SWAP1 PUSH2 0x2509 JUMP JUMPDEST PUSH0 NOT DUP2 EQ PUSH2 0x491 JUMPI PUSH1 0x1 ADD SWAP1 JUMP JUMPDEST ISZERO PUSH2 0x2535 JUMPI JUMP JUMPDEST PUSH1 0x40 MLOAD PUSH3 0x461BCD PUSH1 0xE5 SHL DUP2 MSTORE PUSH1 0x20 PUSH1 0x4 DUP3 ADD MSTORE PUSH1 0x19 PUSH1 0x24 DUP3 ADD MSTORE PUSH25 0x14DD589B5A5CDCDA5BDB88191BD95CC81B9BDD08195E1A5CDD PUSH1 0x3A SHL PUSH1 0x44 DUP3 ADD MSTORE PUSH1 0x64 SWAP1 REVERT JUMPDEST SWAP2 SWAP1 DUP3 ADD DUP1 SWAP3 GT PUSH2 0x491 JUMPI JUMP JUMPDEST DUP1 MLOAD DUP3 LT ISZERO PUSH2 0x6D1 JUMPI PUSH1 0x20 SWAP2 PUSH1 0x5 SHL ADD ADD SWAP1 JUMP JUMPDEST SWAP1 DUP2 PUSH0 SUB SWAP2 DUP1 DUP4 SDIV PUSH0 NOT EQ SWAP1 ISZERO OR ISZERO PUSH2 0x491 JUMPI JUMP JUMPDEST ISZERO PUSH2 0x25B3 JUMPI JUMP JUMPDEST PUSH1 0x40 MLOAD PUSH3 0x461BCD PUSH1 0xE5 SHL DUP2 MSTORE PUSH1 0x20 PUSH1 0x4 DUP3 ADD MSTORE PUSH1 0x36 PUSH1 0x24 DUP3 ADD MSTORE PUSH32 0x4E6F742074686520636F6E7472616374206F776E6572206F72204175746F6D61 PUSH1 0x44 DUP3 ADD MSTORE PUSH22 0x1D1A5BDB88149959DA5CDD1C9E4810DBDB9D1C9858DD PUSH1 0x52 SHL PUSH1 0x64 DUP3 ADD MSTORE PUSH1 0x84 SWAP1 REVERT JUMPDEST SWAP1 DUP1 DUP3 EQ PUSH2 0x26E7 JUMPI PUSH2 0x2629 DUP2 SLOAD PUSH2 0x2378 JUMP JUMPDEST SWAP1 PUSH1 0x1 PUSH1 0x1 PUSH1 0x40 SHL SUB DUP3 GT PUSH2 0x522 JUMPI DUP2 SWAP1 PUSH2 0x2648 DUP3 PUSH2 0x187A DUP7 SLOAD PUSH2 0x2378 JUMP JUMPDEST PUSH0 SWAP1 PUSH1 0x1F DUP4 GT PUSH1 0x1 EQ PUSH2 0x267C JUMPI PUSH0 SWAP3 PUSH2 0x2671 JUMPI JUMPDEST POP POP DUP2 PUSH1 0x1 SHL SWAP2 PUSH0 NOT SWAP1 PUSH1 0x3 SHL SHR NOT AND OR SWAP1 SSTORE JUMP JUMPDEST ADD SLOAD SWAP1 POP PUSH0 DUP1 PUSH2 0x265C JUMP JUMPDEST DUP2 MSTORE PUSH1 0x20 DUP1 DUP3 KECCAK256 DUP6 DUP4 MSTORE DUP2 DUP4 KECCAK256 SWAP4 POP SWAP1 PUSH1 0x1F NOT DUP6 AND SWAP1 DUP4 SWAP1 JUMPDEST DUP3 DUP3 LT PUSH2 0x26CE JUMPI POP POP SWAP1 DUP5 PUSH1 0x1 SWAP6 SWAP5 SWAP4 SWAP3 LT PUSH2 0x26B6 JUMPI JUMPDEST POP POP POP DUP2 SHL ADD SWAP1 SSTORE JUMP JUMPDEST ADD SLOAD PUSH0 NOT PUSH1 0xF8 DUP5 PUSH1 0x3 SHL AND SHR NOT AND SWAP1 SSTORE PUSH0 DUP1 DUP1 PUSH2 0x26AC JUMP JUMPDEST DUP5 SWAP6 DUP2 SWAP3 SWAP6 DUP6 ADD SLOAD DUP2 SSTORE PUSH1 0x1 DUP1 SWAP2 ADD SWAP7 ADD SWAP5 ADD SWAP1 PUSH2 0x2695 JUMP JUMPDEST POP POP JUMP INVALID LOG2 PUSH5 0x6970667358 0x22 SLT KECCAK256 0xED 0x27 DUP3 DUP11 SELFBALANCE DUP12 MSIZE EQ ORIGIN 0xB5 EXTCODECOPY SWAP13 0x22 SWAP11 SWAP14 0x26 0x4A CALLVALUE CALLDATASIZE DUP6 0x1F SWAP15 EXP 0xAD 0x2D SWAP16 PC PUSH14 0x38C6C06164736F6C634300081400 CALLER "},"methodIdentifiers":{"ActiveSubmissions(uint256)":"ee8eb507","ActiveSubmissionsIndexes(uint256)":"93a018be","CommunityConsensusContract()":"47631adb","CommunitySubmissionToPost(uint256)":"ac97980d","CommunitySubmissions(uint256)":"c5dce24d","MembersContract()":"e1485776","PostSubmissionList(uint256,uint256)":"eeb0cf76","PostsContract()":"059597f7","checkUpkeep()":"a13abdad","consensusFee()":"4215c5e4","csCounter()":"a5940041","getActiveSubmissions()":"bdf5db39","getActiveSubmissionsIndex(uint256)":"de78ab7c","getActiveSubmissionsLength()":"74f0c641","getCommunitySubmission(uint256)":"de8b32c5","getPostConsesous(uint256)":"ea487a92","getReview(uint256)":"990581b6","getReviewConsenous(uint256)":"b9e2fc3e","getReviewsForSubmission(uint256)":"6c79bd2b","hasReviewed(uint256,address)":"7c7198cc","maxReviews()":"4ed59812","performUpkeep(bytes)":"4585e33b","postCommunities(uint256,string)":"d3a3f771","reviewCounter()":"e168b3a8","reviews(uint256)":"e83ddcea","setAutomationRegistry(address)":"5ff2d2aa","setCommunitiesContract(address)":"ad2957ff","setFee(uint256)":"69fe0e2d","setFeeAddress(address)":"8705fcd4","setMaxReviews(uint256)":"d1a34aa3","setMembersContract(address)":"3c09203b","setPostsContract(address)":"d39065fa","setdefaultConsenousTypes(string[])":"d8db3807","submitReview(uint256,string,uint256)":"6356eea4","submitToCommunity(uint256,string)":"fa1396f5","submmisionReviews(uint256,uint256)":"1651902a"}}}}}