{"contracts/tgetherIncentives.sol":{"tgetherIncentives":{"abi":[{"inputs":[{"internalType":"uint256","name":"_feePrice","type":"uint256"},{"internalType":"address","name":"_communityContractAddress","type":"address"},{"internalType":"uint256","name":"_communityFee","type":"uint256"},{"internalType":"address","name":"_fundContract","type":"address"}],"stateMutability":"nonpayable","type":"constructor"},{"anonymous":false,"inputs":[{"indexed":false,"internalType":"string","name":"communityName","type":"string"},{"indexed":false,"internalType":"enum tgetherIncentives.IncentiveStructure","name":"structure","type":"uint8"},{"indexed":false,"internalType":"uint256","name":"communityFee","type":"uint256"},{"indexed":false,"internalType":"address payable","name":"contractReceiveAddress","type":"address"}],"name":"IncentiveParamsUpdated","type":"event"},{"anonymous":false,"inputs":[{"indexed":false,"internalType":"uint256","name":"proposalId","type":"uint256"},{"indexed":false,"internalType":"address","name":"proposer","type":"address"},{"indexed":false,"internalType":"string","name":"communityName","type":"string"},{"indexed":false,"internalType":"enum tgetherIncentives.IncentiveStructure","name":"structure","type":"uint8"},{"indexed":false,"internalType":"uint256","name":"communityFee","type":"uint256"},{"indexed":false,"internalType":"address payable","name":"contractReceiveAddress","type":"address"}],"name":"IncentiveProposalCreated","type":"event"},{"anonymous":false,"inputs":[{"indexed":false,"internalType":"string","name":"communityName","type":"string"},{"indexed":false,"internalType":"enum tgetherIncentives.IncentiveStructure","name":"structure","type":"uint8"},{"indexed":false,"internalType":"uint256","name":"communityFee","type":"uint256"},{"indexed":false,"internalType":"address payable","name":"contractReceiveAddress","type":"address"}],"name":"IncentiveStructureSet","type":"event"},{"inputs":[],"name":"CommunityContract","outputs":[{"internalType":"contract tgetherCommunitiesInterface","name":"","type":"address"}],"stateMutability":"view","type":"function"},{"inputs":[{"internalType":"uint256","name":"","type":"uint256"}],"name":"ContractParameterKeys","outputs":[{"internalType":"string","name":"","type":"string"}],"stateMutability":"view","type":"function"},{"inputs":[],"name":"FundContract","outputs":[{"internalType":"contract tgetherFundInterface","name":"","type":"address"}],"stateMutability":"view","type":"function"},{"inputs":[{"internalType":"uint256","name":"","type":"uint256"}],"name":"IncentiveProposals","outputs":[{"internalType":"address","name":"proposer","type":"address"},{"internalType":"string","name":"communityName","type":"string"},{"internalType":"enum tgetherIncentives.IncentiveStructure","name":"structure","type":"uint8"},{"internalType":"uint256","name":"communityFee","type":"uint256"},{"internalType":"address payable","name":"contractReceiveAddress","type":"address"},{"internalType":"bool","name":"upkeeped","type":"bool"},{"internalType":"bool","name":"passed","type":"bool"}],"stateMutability":"view","type":"function"},{"inputs":[{"internalType":"string","name":"","type":"string"}],"name":"IncentiveStructures","outputs":[{"internalType":"enum tgetherIncentives.IncentiveStructure","name":"structure","type":"uint8"},{"internalType":"uint256","name":"communityFee","type":"uint256"},{"internalType":"address payable","name":"contractReceiveAddress","type":"address"},{"internalType":"bool","name":"isSet","type":"bool"}],"stateMutability":"view","type":"function"},{"inputs":[],"name":"TGCommunitiesFee","outputs":[{"internalType":"uint256","name":"","type":"uint256"}],"stateMutability":"view","type":"function"},{"inputs":[{"internalType":"bytes32","name":"_address","type":"bytes32"}],"name":"bytes32ToAddress","outputs":[{"internalType":"address","name":"","type":"address"}],"stateMutability":"pure","type":"function"},{"inputs":[{"components":[{"internalType":"uint256","name":"index","type":"uint256"},{"internalType":"uint256","name":"timestamp","type":"uint256"},{"internalType":"bytes32","name":"txHash","type":"bytes32"},{"internalType":"uint256","name":"blockNumber","type":"uint256"},{"internalType":"bytes32","name":"blockHash","type":"bytes32"},{"internalType":"address","name":"source","type":"address"},{"internalType":"bytes32[]","name":"topics","type":"bytes32[]"},{"internalType":"bytes","name":"data","type":"bytes"}],"internalType":"struct Log","name":"log","type":"tuple"},{"internalType":"bytes","name":"","type":"bytes"}],"name":"checkLog","outputs":[{"internalType":"bool","name":"upkeepNeeded","type":"bool"},{"internalType":"bytes","name":"performData","type":"bytes"}],"stateMutability":"view","type":"function"},{"inputs":[{"internalType":"string","name":"_communityName","type":"string"},{"internalType":"enum tgetherIncentives.IncentiveStructure","name":"_structure","type":"uint8"},{"internalType":"uint256","name":"_communityFee","type":"uint256"},{"internalType":"address payable","name":"_contractReceiveAddress","type":"address"}],"name":"createProposal","outputs":[{"internalType":"uint256","name":"","type":"uint256"}],"stateMutability":"payable","type":"function"},{"inputs":[{"internalType":"string","name":"_communityName","type":"string"},{"internalType":"bytes","name":"_params","type":"bytes"}],"name":"createProposalAsBytes","outputs":[{"internalType":"uint256","name":"","type":"uint256"}],"stateMutability":"payable","type":"function"},{"inputs":[],"name":"fee","outputs":[{"internalType":"uint256","name":"","type":"uint256"}],"stateMutability":"view","type":"function"},{"inputs":[{"internalType":"string","name":"_communityName","type":"string"}],"name":"getCommunityFeeInfo","outputs":[{"internalType":"uint256","name":"_communityFee","type":"uint256"},{"internalType":"address","name":"_contractReceiveAddress","type":"address"}],"stateMutability":"view","type":"function"},{"inputs":[],"name":"getContractParameterKeys","outputs":[{"internalType":"string[]","name":"","type":"string[]"}],"stateMutability":"view","type":"function"},{"inputs":[],"name":"getFee","outputs":[{"internalType":"uint256","name":"","type":"uint256"}],"stateMutability":"view","type":"function"},{"inputs":[{"internalType":"string","name":"_communityName","type":"string"}],"name":"getIncentiveParamsExist","outputs":[{"internalType":"bool","name":"_isSet","type":"bool"}],"stateMutability":"view","type":"function"},{"inputs":[{"internalType":"string","name":"_communityName","type":"string"}],"name":"getIncentiveStructure","outputs":[{"internalType":"enum tgetherIncentives.IncentiveStructure","name":"","type":"uint8"}],"stateMutability":"view","type":"function"},{"inputs":[{"internalType":"string","name":"_communityName","type":"string"}],"name":"getInctiveStructure","outputs":[{"internalType":"enum tgetherIncentives.IncentiveStructure","name":"","type":"uint8"}],"stateMutability":"view","type":"function"},{"inputs":[{"internalType":"string","name":"_communityName","type":"string"}],"name":"getParams","outputs":[{"internalType":"bytes","name":"","type":"bytes"}],"stateMutability":"view","type":"function"},{"inputs":[{"internalType":"uint256","name":"_proposalId","type":"uint256"}],"name":"getProposal","outputs":[{"components":[{"internalType":"address","name":"proposer","type":"address"},{"internalType":"string","name":"communityName","type":"string"},{"internalType":"enum tgetherIncentives.IncentiveStructure","name":"structure","type":"uint8"},{"internalType":"uint256","name":"communityFee","type":"uint256"},{"internalType":"address payable","name":"contractReceiveAddress","type":"address"},{"internalType":"bool","name":"upkeeped","type":"bool"},{"internalType":"bool","name":"passed","type":"bool"}],"internalType":"struct tgetherIncentives.IncentiveProposal","name":"","type":"tuple"}],"stateMutability":"view","type":"function"},{"inputs":[{"internalType":"bytes","name":"_performData","type":"bytes"}],"name":"performUpkeep","outputs":[],"stateMutability":"nonpayable","type":"function"},{"inputs":[{"internalType":"uint256","name":"_feePrice","type":"uint256"}],"name":"setFee","outputs":[],"stateMutability":"nonpayable","type":"function"},{"inputs":[{"internalType":"address","name":"_contract","type":"address"}],"name":"setFundContract","outputs":[],"stateMutability":"nonpayable","type":"function"},{"inputs":[{"internalType":"string","name":"_communityName","type":"string"},{"internalType":"bytes","name":"_params","type":"bytes"}],"name":"setParametersAsBytes","outputs":[],"stateMutability":"nonpayable","type":"function"},{"inputs":[{"internalType":"string","name":"_communityName","type":"string"},{"internalType":"enum tgetherIncentives.IncentiveStructure","name":"_structure","type":"uint8"},{"internalType":"uint256","name":"_communityFee","type":"uint256"},{"internalType":"address payable","name":"_contractReceiveAddress","type":"address"}],"name":"setParams","outputs":[],"stateMutability":"nonpayable","type":"function"},{"inputs":[{"internalType":"address","name":"_contractAddress","type":"address"}],"name":"settgetherCommunityContract","outputs":[],"stateMutability":"nonpayable","type":"function"},{"inputs":[],"name":"thisAddress","outputs":[{"internalType":"address","name":"","type":"address"}],"stateMutability":"view","type":"function"},{"inputs":[],"name":"totalFee","outputs":[{"internalType":"uint256","name":"","type":"uint256"}],"stateMutability":"view","type":"function"},{"inputs":[],"name":"updateTotalFee","outputs":[],"stateMutability":"nonpayable","type":"function"},{"inputs":[],"name":"upkeepId","outputs":[{"internalType":"uint256","name":"","type":"uint256"}],"stateMutability":"view","type":"function"}],"evm":{"bytecode":{"linkReferences":{},"object":"6080346200039c57601f62001f4c38819003828101601f199081168501946001600160401b0393919290918487118388101762000388578160809284926040998a528339810103126200039c578051936020906200005f828401620003c0565b620000716060898601519501620003c0565b91885195608087018781108982111762000388578a5262000091620003a0565b600981526873747275637475726560b81b868201528752620000b2620003a0565b600c81526b636f6d6d756e69747946656560a01b8682015285880152620000d8620003a0565b601681527f636f6e7472616374526563656976654164647265737300000000000000000000868201528a8801526200010f620003a0565b94600595868152641a5cd4d95d60da1b8282015260608901526002549760049889600255808a106200030e575b5060025f908152828120909a89989796958c9594935b8c8710620001cf575050505050505060018060a01b031991308360095416176009553383600354161760035560018060a01b0380921683600854161760085516906007541617600755858455558301809311620001bc57505060065551611b239081620004298239f35b634e487b7160e01b825260119052602490fd5b809192939495969798999a5051805190848211620002fa57908e87928d620001f88954620003d5565b878111620002bf575b50508391868411600114620002565792600195928192879695926200024a575b50505f19600383901b1c191690841b1787555b0194019601949392908a99989796929162000152565b015190505f8062000221565b91908a8416898452858420935b818110620002a657509160019693918588979694106200028d575b505050831b8301875562000234565b01515f1960f88460031b161c191690555f80806200027e565b8284015185558b96600190950194938401930162000263565b620002e8918a85528685209089808801821c830193898910620002f0575b01901c019062000410565b8d5f62000201565b93508293620002dd565b50634e487b7160e01b8e5260418d5260248efd5b5f600281528a84822092830192015b8281106200032d5750506200013c565b80826200033d60019354620003d5565b806200034d575b5050016200031d565b898111841462000363575081555b825f62000344565b8282526200037e8d8b8a85209301901c820185830162000410565b818355556200035b565b634e487b7160e01b5f52604160045260245ffd5b5f80fd5b60408051919082016001600160401b038111838210176200038857604052565b51906001600160a01b03821682036200039c57565b90600182811c9216801562000405575b6020831014620003f157565b634e487b7160e01b5f52602260045260245ffd5b91607f1691620003e5565b8181106200041c575050565b5f81556001016200041056fe60806040526004361015610011575f80fd5b5f3560e01c806304189d0b146110da57806310dbfe24146108805780631a216bbd146110cc5780631df4ccfc146110af5780632299bbbf1461107c5780632775df2f1461105f57806340691db414610f245780634585e33b146108d157806359144baa146108855780635c593e1e146108805780635ced058e1461085957806369fe0e2d1461082b578063701a7a1d14610795578063769d5984146106f65780637d926d77146106115780637fa431f8146105eb5780638ed8067e146105c3578063b169499a1461055e578063bac4cd07146104d0578063c7f758a814610390578063cc271aa31461033d578063ced72f87146102db578063d2aa789f14610320578063d4dca69b146102f8578063ddca3f43146102db578063e6ffabd414610225578063eae7254d14610209578063f0642315146101e15763f284918014610158575f80fd5b346101dd5760203660031901126101dd576004356001600160401b0381116101dd57602061018d6101a0923690600401611162565b81604051938285809451938492016112ae565b81015f81520301902060ff815416906101d96002600183015492015460405193849360ff8360a01c169260018060a01b031691856113cd565b0390f35b5f80fd5b346101dd575f3660031901126101dd576008546040516001600160a01b039091168152602090f35b346101dd5761022361021a36611216565b92919091611481565b005b346101dd575f3660031901126101dd576004602060018060a01b0361024f81600354163314611a73565b600854166040519283809263ced72f8760e01b82525afa9081156102d0575f9161029f575b508060055560045490810180911161028b57600655005b634e487b7160e01b5f52601160045260245ffd5b90506020813d82116102c8575b816102b960209383611141565b810103126101dd575181610274565b3d91506102ac565b6040513d5f823e3d90fd5b346101dd575f3660031901126101dd576020600454604051908152f35b346101dd575f3660031901126101dd576009546040516001600160a01b039091168152602090f35b346101dd575f3660031901126101dd576020600a54604051908152f35b346101dd5760203660031901126101dd576004356001600160401b0381116101dd5760ff6002610377602061018d81953690600401611162565b81015f815203019020015460a01c166040519015158152f35b346101dd576020806003193601126101dd575f60c06040516103b181611126565b8281526060848201528260408201528260608201528260808201528260a082015201526004355f526001815260405f2090604051906103ef82611126565b82546001600160a01b0390811683529261040b6001820161132c565b9180840192835260ff600283015416604085019360028210156104bc578691855260046003850154946060880195865201549361049b61048f6080890193858816855260a08a019660ff8960a01c161515885260ff60c08c019960a81c16151589526040519b8c9b828d525116908b01525160e060408b01526101008a01906112cf565b965160608901906111b7565b516080870152511660a085015251151560c084015251151560e08301520390f35b634e487b7160e01b5f52602160045260245ffd5b346101dd5760203660031901126101dd576004356001600160401b0381116101dd576105026040913690600401611162565b8151600260018351926020818187019561051d8183896112ae565b81015f81520301902001549261053a8551938492519283916112ae565b8201915f835260208160018060a01b03940301902001541682519182526020820152f35b346101dd5760203660031901126101dd576004356002548110156101dd5760025f526101d9906105af907f405787fa12a823e0f2b7631cc41b3ba8828b3321ca811111fa75cd3aa3bb5ace0161132c565b6040519182916020835260208301906112cf565b346101dd575f3660031901126101dd576007546040516001600160a01b039091168152602090f35b346101dd5761022361021a6105ff36611268565b602080829493945183010191016113fd565b346101dd575f3660031901126101dd576002546001600160401b0381116106e25760405190602090610648828260051b0184611141565b808352818301908160025f52835f205f915b8383106106c05750505050604051918083019381845251809452604083019360408160051b85010192915f955b8287106106945785850386f35b9091929382806106b0600193603f198a820301865288516112cf565b9601920196019592919092610687565b60018681926106d1859a999a61132c565b81520192019201919095949561065a565b634e487b7160e01b5f52604160045260245ffd5b346101dd5760203660031901126101dd576004355f52600160205260405f2060018060a01b03808254169060ff61072f6001850161132c565b938160028201541692600460038301549201549161076d610762604051988998895260e060208a015260e08901906112cf565b9560408801906111b7565b606086015281166080850152818160a01c16151560a085015260a81c16151560c08301520390f35b346101dd576020806003193601126101dd576004356001600160401b0381116101dd578161018d6107ca923690600401611162565b81015f8152030190209061081760ff835416926108096002600183015492015460405195869360ff8360a01c169260018060a01b0316918786016113cd565b03601f198101845283611141565b6101d96040519282849384528301906112cf565b346101dd5760203660031901126101dd5761085160018060a01b03600354163314611a73565b600480359055005b346101dd5760203660031901126101dd576040516004356001600160a01b03168152602090f35b6111c4565b346101dd5760203660031901126101dd576004356001600160a01b03818116918290036101dd576108bb90600354163314611a73565b600780546001600160a01b031916919091179055005b346101dd5760203660031901126101dd576004356001600160401b0381116101dd57366023820112156101dd5780600401356001600160401b0381116101dd5781013660248201116101dd578160209103126101dd5760248101355f908152600160205260409020546001600160a01b031661094957005b60085460408051630b7b9a0160e31b81526024848101356004830152909283919082906001600160a01b03165afa9081156102d0575f905f92610edc575b501561098f57005b15610cac5760248101355f52600160205260405f20604051916109b183611126565b81546001600160a01b031683526109ca6001830161132c565b602084015260ff6002830154169160028310156104bc57602492604085015260038101546060850152600460018060a01b03910154166080840152600160a0840152600160c084015201355f52600160205260405f209060018060a01b0381511660018060a01b031983541617825560208101519182516001600160401b0381116106e257610a5c60018301546112f4565b601f8111610c68575b506020601f8211600114610bfe57819293945f92610bf3575b50508160011b915f199060031b1c19161760018201555b60408201519060028210156104bc57610ab360049260028301611430565b6060830151600382015560808301519101805460a08085015160c086015160ff60a81b90151560a81b166001600160b01b03199093166001600160a01b0390951694909417931515901b60ff60a01b16929092179190911790556020808201516040518151909291839190610b2d908290849086016112ae565b81015f8152030190209060408101519160028310156104bc57610b717f91e539976736a32bc7caf897d76ead0f1298c607b98630f1dbf4ae9ccfdcf0589382611430565b610bd2606083015180600184015560ff602060018060a01b03608087015116956002860196875490848160018060a01b0319841617808b5560a01c1615610bd7575b505001519354169360018060a01b039054169060405194859485611448565b0390a1005b6001600160a81b031990911617600160a01b1787558880610bb3565b015190508480610a7e565b600183015f5260205f20905f5b601f1984168110610c505750600193949583601f19811610610c38575b505050811b016001820155610a95565b01515f1960f88460031b161c19169055848080610c28565b9091602060018192858a015181550193019101610c0b565b600183015f5260205f20601f830160051c810160208410610ca5575b601f830160051c82018110610c9a575050610a65565b5f8155600101610c84565b5080610c84565b60248101355f52600160205260405f2060405190610cc982611126565b80546001600160a01b03168252610ce26001820161132c565b926020830193845260ff6002830154169160028310156104bc57602492604085015260038101546060850152600460018060a01b03910154166080840152600160a08401525f60c084015201355f52600160205260405f209160018060a01b0382511660018060a01b0319845416178355519182516001600160401b0381116106e257610d7260018301546112f4565b601f8111610e98575b506020601f8211600114610e3057819293945f92610e25575b50508160011b915f199060031b1c19161760018201555b604082015160028110156104bc5781610dcb600492600260c09501611430565b6060840151600382015560808401519101805460a080860151949095015160ff60a81b90151560a81b166001600160b01b03199091166001600160a01b039093169290921792151590931b60ff60a01b1691909117179055005b015190508480610d94565b601f19821690600184015f5260205f20915f5b818110610e8057509583600195969710610e68575b505050811b016001820155610dab565b01515f1960f88460031b161c19169055848080610e58565b9192602060018192868b015181550194019201610e43565b600183015f5260205f20601f830160051c810160208410610ed5575b601f830160051c82018110610eca575050610d7b565b5f8155600101610eb4565b5080610eb4565b9150506040813d604011610f1c575b81610ef860409383611141565b810103126101dd57610f156020610f0e83611659565b9201611659565b9083610987565b3d9150610eeb565b346101dd576003196040368201126101dd576001600160401b03906004358281116101dd57610100816004019282360301126101dd576024358381116101dd57610f72903690600401611162565b5060c45f910191610f838382611ab8565b6001949194101561104b57610f9791611ab8565b6002101561104b57604001359160018060a01b0390816020816009541692013516149081611033575b5080611016575b61100e575b604051916020830152602082526040820192828410908411176106e257826040521515825260406060820152603f199061100960808201826112cf565b030190f35b506001610fcc565b50815f52600160205260ff600460405f20015460a01c1615610fc7565b9050825f52600160205260405f205416151584610fc0565b634e487b7160e01b5f52603260045260245ffd5b346101dd575f3660031901126101dd576020600554604051908152f35b60206110a761109e61108d36611268565b8480829493945183010191016113fd565b92919091611666565b604051908152f35b346101dd575f3660031901126101dd576020600654604051908152f35b60206110a761109e36611216565b346101dd5760203660031901126101dd576004356001600160a01b03818116918290036101dd5761111090600354163314611a73565b600880546001600160a01b031916919091179055005b60e081019081106001600160401b038211176106e257604052565b90601f801991011681019081106001600160401b038211176106e257604052565b81601f820112156101dd578035906001600160401b0382116106e25760405192611196601f8401601f191660200185611141565b828452602083830101116101dd57815f926020809301838601378301015290565b9060028210156104bc5752565b346101dd5760203660031901126101dd576004356001600160401b0381116101dd5760ff6111fc602061018d81943690600401611162565b81015f815203019020541661121460405180926111b7565bf35b60806003198201126101dd57600435906001600160401b0382116101dd5761124091600401611162565b9060243560028110156101dd5790604435906064356001600160a01b03811681036101dd5790565b9060406003198301126101dd576001600160401b036004358181116101dd578361129491600401611162565b926024359182116101dd576112ab91600401611162565b90565b5f5b8381106112bf5750505f910152565b81810151838201526020016112b0565b906020916112e8815180928185528580860191016112ae565b601f01601f1916010190565b90600182811c92168015611322575b602083101461130e57565b634e487b7160e01b5f52602260045260245ffd5b91607f1691611303565b9060405191825f82549261133f846112f4565b9081845260019485811690815f146113aa575060011461136a575b505061136892500383611141565b565b909391505f52602090815f20935f915b81831061139257505061136893508201015f8061135a565b8554888401850152948501948794509183019161137a565b91505061136894506020925060ff191682840152151560051b8201015f8061135a565b92606092959491956113e38560808101986111b7565b60208501526001600160a01b031660408401521515910152565b908160609103126101dd57805160028110156101dd57916040602083015192015160018060a01b03811681036101dd5790565b9060028110156104bc5760ff80198354169116179055565b9261146e6114636060949796936080875260808701906112cf565b9660208601906111b7565b60408401526001600160a01b0316910152565b6008546040805163b3f6702d60e01b81526020600482018190529197969495939493926001600160a01b0392919082908290851681806114c4602482018c6112cf565b03915afa90811561164f575f91611612575b5082339116036115cf57875160ff60028751928481818b01956114fa8183896112ae565b81015f815203019020015460a01c166115925791600261154d8a9361158d9796957ffd50b4e15ec361806ddcbe1d256b1c1354ec1e795aa839a328c9e13a245498f79b9c51809381928c519283916112ae565b81015f8152030190206115608982611430565b600181018590550180546001600160a81b03191691851691909117600160a01b1790555194859485611448565b0390a1565b885162461bcd60e51b815260048101839052601660248201527514185c985b595d195c9cc8185b1c9958591e481cd95d60521b6044820152606490fd5b60649088519062461bcd60e51b82526004820152601f60248201527f4e6f7420746865206f776e6572206f66207468697320636f6d6d756e697479006044820152fd5b8281813d8311611648575b6116278183611141565b81010312611644575190838216820361164157505f6114d6565b80fd5b5080fd5b503d61161d565b89513d5f823e3d90fd5b519081151582036101dd57565b929190926006543403611a3e5781158015611a2c575b156119ed576008546005546009546040805163b07bcbc560e01b81526004810191909152969260209288926001600160a01b03928316928492918391166116c6604483018a6112cf565b90602483015203925af19485156102d0575f956119b9575b508415611979575f85815260016020526040902080546001600160a01b0319163317815582516001600160401b0381116106e25761171f60018301546112f4565b601f8111611935575b506020601f82116001146118c9579080600493925f916118be575b508160011b915f199060031b1c19161760018201555b6117668360028301611430565b600381018590550180546001600160a01b0319166001600160a01b0395861690811790915560075460055491953492830392911690821161028b57600954604051633de5599d60e11b81526001600160a01b0390911660048201529160209183916024918391905af19081156102d0575f91611884575b5015611847577ffa5b4cf8647cae9211a0088685c4e4610e9464dd64cc7ad7152c4fe69e04ae349361182c9361183760405195869589875233602088015260c0604088015260c08701906112cf565b9360608601906111b7565b608084015260a08301520390a190565b60405162461bcd60e51b8152602060048201526015602482015274119d5b991a5b99c81d5c1ad9595c0819985a5b1959605a1b6044820152606490fd5b906020823d6020116118b6575b8161189e60209383611141565b8101031261164157506118b090611659565b5f6117dd565b3d9150611891565b90508501515f611743565b600183015f5260205f20905f5b601f198416811061191d5750916001916004949382601f19811610611905575b5050811b016001820155611759565b8701515f1960f88460031b161c191690555f806118f6565b9091602060018192858a0151815501930191016118d6565b600183015f5260205f20601f830160051c810160208410611972575b601f830160051c82018110611967575050611728565b5f8155600101611951565b5080611951565b60405162461bcd60e51b8152602060048201526018602482015277141c9bdc1bdcd85b0818dc99585d1a5bdb8819985a5b195960421b6044820152606490fd5b90946020823d6020116119e5575b816119d460209383611141565b81010312611641575051935f6116de565b3d91506119c7565b60405162461bcd60e51b8152602060048201526017602482015276496e76616c69642072656365697665206164647265737360481b6044820152606490fd5b506001600160a01b038316151561167c565b60405162461bcd60e51b815260206004820152600d60248201526c496e636f72726563742066656560981b6044820152606490fd5b15611a7a57565b60405162461bcd60e51b81526020600482015260166024820152752737ba103a34329031b7b73a3930b1ba1037bbb732b960511b6044820152606490fd5b903590601e19813603018212156101dd57018035906001600160401b0382116101dd57602001918160051b360383136101dd5756fea26469706673582212206710c15d0da3a44ff464c028fa4f4069fc19b1d6c72c8d83ef394d98c1a5732a64736f6c63430008140033","opcodes":"PUSH1 0x80 CALLVALUE PUSH3 0x39C JUMPI PUSH1 0x1F PUSH3 0x1F4C CODESIZE DUP2 SWAP1 SUB DUP3 DUP2 ADD PUSH1 0x1F NOT SWAP1 DUP2 AND DUP6 ADD SWAP5 PUSH1 0x1 PUSH1 0x1 PUSH1 0x40 SHL SUB SWAP4 SWAP2 SWAP3 SWAP1 SWAP2 DUP5 DUP8 GT DUP4 DUP9 LT OR PUSH3 0x388 JUMPI DUP2 PUSH1 0x80 SWAP3 DUP5 SWAP3 PUSH1 0x40 SWAP10 DUP11 MSTORE DUP4 CODECOPY DUP2 ADD SUB SLT PUSH3 0x39C JUMPI DUP1 MLOAD SWAP4 PUSH1 0x20 SWAP1 PUSH3 0x5F DUP3 DUP5 ADD PUSH3 0x3C0 JUMP JUMPDEST PUSH3 0x71 PUSH1 0x60 DUP10 DUP7 ADD MLOAD SWAP6 ADD PUSH3 0x3C0 JUMP JUMPDEST SWAP2 DUP9 MLOAD SWAP6 PUSH1 0x80 DUP8 ADD DUP8 DUP2 LT DUP10 DUP3 GT OR PUSH3 0x388 JUMPI DUP11 MSTORE PUSH3 0x91 PUSH3 0x3A0 JUMP JUMPDEST PUSH1 0x9 DUP2 MSTORE PUSH9 0x737472756374757265 PUSH1 0xB8 SHL DUP7 DUP3 ADD MSTORE DUP8 MSTORE PUSH3 0xB2 PUSH3 0x3A0 JUMP JUMPDEST PUSH1 0xC DUP2 MSTORE PUSH12 0x636F6D6D756E697479466565 PUSH1 0xA0 SHL DUP7 DUP3 ADD MSTORE DUP6 DUP9 ADD MSTORE PUSH3 0xD8 PUSH3 0x3A0 JUMP JUMPDEST PUSH1 0x16 DUP2 MSTORE PUSH32 0x636F6E7472616374526563656976654164647265737300000000000000000000 DUP7 DUP3 ADD MSTORE DUP11 DUP9 ADD MSTORE PUSH3 0x10F PUSH3 0x3A0 JUMP JUMPDEST SWAP5 PUSH1 0x5 SWAP6 DUP7 DUP2 MSTORE PUSH5 0x1A5CD4D95D PUSH1 0xDA SHL DUP3 DUP3 ADD MSTORE PUSH1 0x60 DUP10 ADD MSTORE PUSH1 0x2 SLOAD SWAP8 PUSH1 0x4 SWAP9 DUP10 PUSH1 0x2 SSTORE DUP1 DUP11 LT PUSH3 0x30E JUMPI JUMPDEST POP PUSH1 0x2 PUSH0 SWAP1 DUP2 MSTORE DUP3 DUP2 KECCAK256 SWAP1 SWAP11 DUP10 SWAP9 SWAP8 SWAP7 SWAP6 DUP13 SWAP6 SWAP5 SWAP4 JUMPDEST DUP13 DUP8 LT PUSH3 0x1CF JUMPI POP POP POP POP POP POP POP PUSH1 0x1 DUP1 PUSH1 0xA0 SHL SUB NOT SWAP2 ADDRESS DUP4 PUSH1 0x9 SLOAD AND OR PUSH1 0x9 SSTORE CALLER DUP4 PUSH1 0x3 SLOAD AND OR PUSH1 0x3 SSTORE PUSH1 0x1 DUP1 PUSH1 0xA0 SHL SUB DUP1 SWAP3 AND DUP4 PUSH1 0x8 SLOAD AND OR PUSH1 0x8 SSTORE AND SWAP1 PUSH1 0x7 SLOAD AND OR PUSH1 0x7 SSTORE DUP6 DUP5 SSTORE SSTORE DUP4 ADD DUP1 SWAP4 GT PUSH3 0x1BC JUMPI POP POP PUSH1 0x6 SSTORE MLOAD PUSH2 0x1B23 SWAP1 DUP2 PUSH3 0x429 DUP3 CODECOPY RETURN JUMPDEST PUSH4 0x4E487B71 PUSH1 0xE0 SHL DUP3 MSTORE PUSH1 0x11 SWAP1 MSTORE PUSH1 0x24 SWAP1 REVERT JUMPDEST DUP1 SWAP2 SWAP3 SWAP4 SWAP5 SWAP6 SWAP7 SWAP8 SWAP9 SWAP10 SWAP11 POP MLOAD DUP1 MLOAD SWAP1 DUP5 DUP3 GT PUSH3 0x2FA JUMPI SWAP1 DUP15 DUP8 SWAP3 DUP14 PUSH3 0x1F8 DUP10 SLOAD PUSH3 0x3D5 JUMP JUMPDEST DUP8 DUP2 GT PUSH3 0x2BF JUMPI JUMPDEST POP POP DUP4 SWAP2 DUP7 DUP5 GT PUSH1 0x1 EQ PUSH3 0x256 JUMPI SWAP3 PUSH1 0x1 SWAP6 SWAP3 DUP2 SWAP3 DUP8 SWAP7 SWAP6 SWAP3 PUSH3 0x24A JUMPI JUMPDEST POP POP PUSH0 NOT PUSH1 0x3 DUP4 SWAP1 SHL SHR NOT AND SWAP1 DUP5 SHL OR DUP8 SSTORE JUMPDEST ADD SWAP5 ADD SWAP7 ADD SWAP5 SWAP4 SWAP3 SWAP1 DUP11 SWAP10 SWAP9 SWAP8 SWAP7 SWAP3 SWAP2 PUSH3 0x152 JUMP JUMPDEST ADD MLOAD SWAP1 POP PUSH0 DUP1 PUSH3 0x221 JUMP JUMPDEST SWAP2 SWAP1 DUP11 DUP5 AND DUP10 DUP5 MSTORE DUP6 DUP5 KECCAK256 SWAP4 JUMPDEST DUP2 DUP2 LT PUSH3 0x2A6 JUMPI POP SWAP2 PUSH1 0x1 SWAP7 SWAP4 SWAP2 DUP6 DUP9 SWAP8 SWAP7 SWAP5 LT PUSH3 0x28D JUMPI JUMPDEST POP POP POP DUP4 SHL DUP4 ADD DUP8 SSTORE PUSH3 0x234 JUMP JUMPDEST ADD MLOAD PUSH0 NOT PUSH1 0xF8 DUP5 PUSH1 0x3 SHL AND SHR NOT AND SWAP1 SSTORE PUSH0 DUP1 DUP1 PUSH3 0x27E JUMP JUMPDEST DUP3 DUP5 ADD MLOAD DUP6 SSTORE DUP12 SWAP7 PUSH1 0x1 SWAP1 SWAP6 ADD SWAP5 SWAP4 DUP5 ADD SWAP4 ADD PUSH3 0x263 JUMP JUMPDEST PUSH3 0x2E8 SWAP2 DUP11 DUP6 MSTORE DUP7 DUP6 KECCAK256 SWAP1 DUP10 DUP1 DUP9 ADD DUP3 SHR DUP4 ADD SWAP4 DUP10 DUP10 LT PUSH3 0x2F0 JUMPI JUMPDEST ADD SWAP1 SHR ADD SWAP1 PUSH3 0x410 JUMP JUMPDEST DUP14 PUSH0 PUSH3 0x201 JUMP JUMPDEST SWAP4 POP DUP3 SWAP4 PUSH3 0x2DD JUMP JUMPDEST POP PUSH4 0x4E487B71 PUSH1 0xE0 SHL DUP15 MSTORE PUSH1 0x41 DUP14 MSTORE PUSH1 0x24 DUP15 REVERT JUMPDEST PUSH0 PUSH1 0x2 DUP2 MSTORE DUP11 DUP5 DUP3 KECCAK256 SWAP3 DUP4 ADD SWAP3 ADD JUMPDEST DUP3 DUP2 LT PUSH3 0x32D JUMPI POP POP PUSH3 0x13C JUMP JUMPDEST DUP1 DUP3 PUSH3 0x33D PUSH1 0x1 SWAP4 SLOAD PUSH3 0x3D5 JUMP JUMPDEST DUP1 PUSH3 0x34D JUMPI JUMPDEST POP POP ADD PUSH3 0x31D JUMP JUMPDEST DUP10 DUP2 GT DUP5 EQ PUSH3 0x363 JUMPI POP DUP2 SSTORE JUMPDEST DUP3 PUSH0 PUSH3 0x344 JUMP JUMPDEST DUP3 DUP3 MSTORE PUSH3 0x37E DUP14 DUP12 DUP11 DUP6 KECCAK256 SWAP4 ADD SWAP1 SHR DUP3 ADD DUP6 DUP4 ADD PUSH3 0x410 JUMP JUMPDEST DUP2 DUP4 SSTORE SSTORE PUSH3 0x35B JUMP JUMPDEST PUSH4 0x4E487B71 PUSH1 0xE0 SHL PUSH0 MSTORE PUSH1 0x41 PUSH1 0x4 MSTORE PUSH1 0x24 PUSH0 REVERT JUMPDEST PUSH0 DUP1 REVERT JUMPDEST PUSH1 0x40 DUP1 MLOAD SWAP2 SWAP1 DUP3 ADD PUSH1 0x1 PUSH1 0x1 PUSH1 0x40 SHL SUB DUP2 GT DUP4 DUP3 LT OR PUSH3 0x388 JUMPI PUSH1 0x40 MSTORE JUMP JUMPDEST MLOAD SWAP1 PUSH1 0x1 PUSH1 0x1 PUSH1 0xA0 SHL SUB DUP3 AND DUP3 SUB PUSH3 0x39C JUMPI JUMP JUMPDEST SWAP1 PUSH1 0x1 DUP3 DUP2 SHR SWAP3 AND DUP1 ISZERO PUSH3 0x405 JUMPI JUMPDEST PUSH1 0x20 DUP4 LT EQ PUSH3 0x3F1 JUMPI JUMP JUMPDEST PUSH4 0x4E487B71 PUSH1 0xE0 SHL PUSH0 MSTORE PUSH1 0x22 PUSH1 0x4 MSTORE PUSH1 0x24 PUSH0 REVERT JUMPDEST SWAP2 PUSH1 0x7F AND SWAP2 PUSH3 0x3E5 JUMP JUMPDEST DUP2 DUP2 LT PUSH3 0x41C JUMPI POP POP JUMP JUMPDEST PUSH0 DUP2 SSTORE PUSH1 0x1 ADD PUSH3 0x410 JUMP INVALID PUSH1 0x80 PUSH1 0x40 MSTORE PUSH1 0x4 CALLDATASIZE LT ISZERO PUSH2 0x11 JUMPI PUSH0 DUP1 REVERT JUMPDEST PUSH0 CALLDATALOAD PUSH1 0xE0 SHR DUP1 PUSH4 0x4189D0B EQ PUSH2 0x10DA JUMPI DUP1 PUSH4 0x10DBFE24 EQ PUSH2 0x880 JUMPI DUP1 PUSH4 0x1A216BBD EQ PUSH2 0x10CC JUMPI DUP1 PUSH4 0x1DF4CCFC EQ PUSH2 0x10AF JUMPI DUP1 PUSH4 0x2299BBBF EQ PUSH2 0x107C JUMPI DUP1 PUSH4 0x2775DF2F EQ PUSH2 0x105F JUMPI DUP1 PUSH4 0x40691DB4 EQ PUSH2 0xF24 JUMPI DUP1 PUSH4 0x4585E33B EQ PUSH2 0x8D1 JUMPI DUP1 PUSH4 0x59144BAA EQ PUSH2 0x885 JUMPI DUP1 PUSH4 0x5C593E1E EQ PUSH2 0x880 JUMPI DUP1 PUSH4 0x5CED058E EQ PUSH2 0x859 JUMPI DUP1 PUSH4 0x69FE0E2D EQ PUSH2 0x82B JUMPI DUP1 PUSH4 0x701A7A1D EQ PUSH2 0x795 JUMPI DUP1 PUSH4 0x769D5984 EQ PUSH2 0x6F6 JUMPI DUP1 PUSH4 0x7D926D77 EQ PUSH2 0x611 JUMPI DUP1 PUSH4 0x7FA431F8 EQ PUSH2 0x5EB JUMPI DUP1 PUSH4 0x8ED8067E EQ PUSH2 0x5C3 JUMPI DUP1 PUSH4 0xB169499A EQ PUSH2 0x55E JUMPI DUP1 PUSH4 0xBAC4CD07 EQ PUSH2 0x4D0 JUMPI DUP1 PUSH4 0xC7F758A8 EQ PUSH2 0x390 JUMPI DUP1 PUSH4 0xCC271AA3 EQ PUSH2 0x33D JUMPI DUP1 PUSH4 0xCED72F87 EQ PUSH2 0x2DB JUMPI DUP1 PUSH4 0xD2AA789F EQ PUSH2 0x320 JUMPI DUP1 PUSH4 0xD4DCA69B EQ PUSH2 0x2F8 JUMPI DUP1 PUSH4 0xDDCA3F43 EQ PUSH2 0x2DB JUMPI DUP1 PUSH4 0xE6FFABD4 EQ PUSH2 0x225 JUMPI DUP1 PUSH4 0xEAE7254D EQ PUSH2 0x209 JUMPI DUP1 PUSH4 0xF0642315 EQ PUSH2 0x1E1 JUMPI PUSH4 0xF2849180 EQ PUSH2 0x158 JUMPI PUSH0 DUP1 REVERT JUMPDEST CALLVALUE PUSH2 0x1DD JUMPI PUSH1 0x20 CALLDATASIZE PUSH1 0x3 NOT ADD SLT PUSH2 0x1DD JUMPI PUSH1 0x4 CALLDATALOAD PUSH1 0x1 PUSH1 0x1 PUSH1 0x40 SHL SUB DUP2 GT PUSH2 0x1DD JUMPI PUSH1 0x20 PUSH2 0x18D PUSH2 0x1A0 SWAP3 CALLDATASIZE SWAP1 PUSH1 0x4 ADD PUSH2 0x1162 JUMP JUMPDEST DUP2 PUSH1 0x40 MLOAD SWAP4 DUP3 DUP6 DUP1 SWAP5 MLOAD SWAP4 DUP5 SWAP3 ADD PUSH2 0x12AE JUMP JUMPDEST DUP2 ADD PUSH0 DUP2 MSTORE SUB ADD SWAP1 KECCAK256 PUSH1 0xFF DUP2 SLOAD AND SWAP1 PUSH2 0x1D9 PUSH1 0x2 PUSH1 0x1 DUP4 ADD SLOAD SWAP3 ADD SLOAD PUSH1 0x40 MLOAD SWAP4 DUP5 SWAP4 PUSH1 0xFF DUP4 PUSH1 0xA0 SHR AND SWAP3 PUSH1 0x1 DUP1 PUSH1 0xA0 SHL SUB AND SWAP2 DUP6 PUSH2 0x13CD JUMP JUMPDEST SUB SWAP1 RETURN JUMPDEST PUSH0 DUP1 REVERT JUMPDEST CALLVALUE PUSH2 0x1DD JUMPI PUSH0 CALLDATASIZE PUSH1 0x3 NOT ADD SLT PUSH2 0x1DD JUMPI PUSH1 0x8 SLOAD PUSH1 0x40 MLOAD PUSH1 0x1 PUSH1 0x1 PUSH1 0xA0 SHL SUB SWAP1 SWAP2 AND DUP2 MSTORE PUSH1 0x20 SWAP1 RETURN JUMPDEST CALLVALUE PUSH2 0x1DD JUMPI PUSH2 0x223 PUSH2 0x21A CALLDATASIZE PUSH2 0x1216 JUMP JUMPDEST SWAP3 SWAP2 SWAP1 SWAP2 PUSH2 0x1481 JUMP JUMPDEST STOP JUMPDEST CALLVALUE PUSH2 0x1DD JUMPI PUSH0 CALLDATASIZE PUSH1 0x3 NOT ADD SLT PUSH2 0x1DD JUMPI PUSH1 0x4 PUSH1 0x20 PUSH1 0x1 DUP1 PUSH1 0xA0 SHL SUB PUSH2 0x24F DUP2 PUSH1 0x3 SLOAD AND CALLER EQ PUSH2 0x1A73 JUMP JUMPDEST PUSH1 0x8 SLOAD AND PUSH1 0x40 MLOAD SWAP3 DUP4 DUP1 SWAP3 PUSH4 0xCED72F87 PUSH1 0xE0 SHL DUP3 MSTORE GAS STATICCALL SWAP1 DUP2 ISZERO PUSH2 0x2D0 JUMPI PUSH0 SWAP2 PUSH2 0x29F JUMPI JUMPDEST POP DUP1 PUSH1 0x5 SSTORE PUSH1 0x4 SLOAD SWAP1 DUP2 ADD DUP1 SWAP2 GT PUSH2 0x28B JUMPI PUSH1 0x6 SSTORE STOP JUMPDEST PUSH4 0x4E487B71 PUSH1 0xE0 SHL PUSH0 MSTORE PUSH1 0x11 PUSH1 0x4 MSTORE PUSH1 0x24 PUSH0 REVERT JUMPDEST SWAP1 POP PUSH1 0x20 DUP2 RETURNDATASIZE DUP3 GT PUSH2 0x2C8 JUMPI JUMPDEST DUP2 PUSH2 0x2B9 PUSH1 0x20 SWAP4 DUP4 PUSH2 0x1141 JUMP JUMPDEST DUP2 ADD SUB SLT PUSH2 0x1DD JUMPI MLOAD DUP2 PUSH2 0x274 JUMP JUMPDEST RETURNDATASIZE SWAP2 POP PUSH2 0x2AC JUMP JUMPDEST PUSH1 0x40 MLOAD RETURNDATASIZE PUSH0 DUP3 RETURNDATACOPY RETURNDATASIZE SWAP1 REVERT JUMPDEST CALLVALUE PUSH2 0x1DD JUMPI PUSH0 CALLDATASIZE PUSH1 0x3 NOT ADD SLT PUSH2 0x1DD JUMPI PUSH1 0x20 PUSH1 0x4 SLOAD PUSH1 0x40 MLOAD SWAP1 DUP2 MSTORE RETURN JUMPDEST CALLVALUE PUSH2 0x1DD JUMPI PUSH0 CALLDATASIZE PUSH1 0x3 NOT ADD SLT PUSH2 0x1DD JUMPI PUSH1 0x9 SLOAD PUSH1 0x40 MLOAD PUSH1 0x1 PUSH1 0x1 PUSH1 0xA0 SHL SUB SWAP1 SWAP2 AND DUP2 MSTORE PUSH1 0x20 SWAP1 RETURN JUMPDEST CALLVALUE PUSH2 0x1DD JUMPI PUSH0 CALLDATASIZE PUSH1 0x3 NOT ADD SLT PUSH2 0x1DD JUMPI PUSH1 0x20 PUSH1 0xA SLOAD PUSH1 0x40 MLOAD SWAP1 DUP2 MSTORE RETURN JUMPDEST CALLVALUE PUSH2 0x1DD JUMPI PUSH1 0x20 CALLDATASIZE PUSH1 0x3 NOT ADD SLT PUSH2 0x1DD JUMPI PUSH1 0x4 CALLDATALOAD PUSH1 0x1 PUSH1 0x1 PUSH1 0x40 SHL SUB DUP2 GT PUSH2 0x1DD JUMPI PUSH1 0xFF PUSH1 0x2 PUSH2 0x377 PUSH1 0x20 PUSH2 0x18D DUP2 SWAP6 CALLDATASIZE SWAP1 PUSH1 0x4 ADD PUSH2 0x1162 JUMP JUMPDEST DUP2 ADD PUSH0 DUP2 MSTORE SUB ADD SWAP1 KECCAK256 ADD SLOAD PUSH1 0xA0 SHR AND PUSH1 0x40 MLOAD SWAP1 ISZERO ISZERO DUP2 MSTORE RETURN JUMPDEST CALLVALUE PUSH2 0x1DD JUMPI PUSH1 0x20 DUP1 PUSH1 0x3 NOT CALLDATASIZE ADD SLT PUSH2 0x1DD JUMPI PUSH0 PUSH1 0xC0 PUSH1 0x40 MLOAD PUSH2 0x3B1 DUP2 PUSH2 0x1126 JUMP JUMPDEST DUP3 DUP2 MSTORE PUSH1 0x60 DUP5 DUP3 ADD MSTORE DUP3 PUSH1 0x40 DUP3 ADD MSTORE DUP3 PUSH1 0x60 DUP3 ADD MSTORE DUP3 PUSH1 0x80 DUP3 ADD MSTORE DUP3 PUSH1 0xA0 DUP3 ADD MSTORE ADD MSTORE PUSH1 0x4 CALLDATALOAD PUSH0 MSTORE PUSH1 0x1 DUP2 MSTORE PUSH1 0x40 PUSH0 KECCAK256 SWAP1 PUSH1 0x40 MLOAD SWAP1 PUSH2 0x3EF DUP3 PUSH2 0x1126 JUMP JUMPDEST DUP3 SLOAD PUSH1 0x1 PUSH1 0x1 PUSH1 0xA0 SHL SUB SWAP1 DUP2 AND DUP4 MSTORE SWAP3 PUSH2 0x40B PUSH1 0x1 DUP3 ADD PUSH2 0x132C JUMP JUMPDEST SWAP2 DUP1 DUP5 ADD SWAP3 DUP4 MSTORE PUSH1 0xFF PUSH1 0x2 DUP4 ADD SLOAD AND PUSH1 0x40 DUP6 ADD SWAP4 PUSH1 0x2 DUP3 LT ISZERO PUSH2 0x4BC JUMPI DUP7 SWAP2 DUP6 MSTORE PUSH1 0x4 PUSH1 0x3 DUP6 ADD SLOAD SWAP5 PUSH1 0x60 DUP9 ADD SWAP6 DUP7 MSTORE ADD SLOAD SWAP4 PUSH2 0x49B PUSH2 0x48F PUSH1 0x80 DUP10 ADD SWAP4 DUP6 DUP9 AND DUP6 MSTORE PUSH1 0xA0 DUP11 ADD SWAP7 PUSH1 0xFF DUP10 PUSH1 0xA0 SHR AND ISZERO ISZERO DUP9 MSTORE PUSH1 0xFF PUSH1 0xC0 DUP13 ADD SWAP10 PUSH1 0xA8 SHR AND ISZERO ISZERO DUP10 MSTORE PUSH1 0x40 MLOAD SWAP12 DUP13 SWAP12 DUP3 DUP14 MSTORE MLOAD AND SWAP1 DUP12 ADD MSTORE MLOAD PUSH1 0xE0 PUSH1 0x40 DUP12 ADD MSTORE PUSH2 0x100 DUP11 ADD SWAP1 PUSH2 0x12CF JUMP JUMPDEST SWAP7 MLOAD PUSH1 0x60 DUP10 ADD SWAP1 PUSH2 0x11B7 JUMP JUMPDEST MLOAD PUSH1 0x80 DUP8 ADD MSTORE MLOAD AND PUSH1 0xA0 DUP6 ADD MSTORE MLOAD ISZERO ISZERO PUSH1 0xC0 DUP5 ADD MSTORE MLOAD ISZERO ISZERO PUSH1 0xE0 DUP4 ADD MSTORE SUB SWAP1 RETURN JUMPDEST PUSH4 0x4E487B71 PUSH1 0xE0 SHL PUSH0 MSTORE PUSH1 0x21 PUSH1 0x4 MSTORE PUSH1 0x24 PUSH0 REVERT JUMPDEST CALLVALUE PUSH2 0x1DD JUMPI PUSH1 0x20 CALLDATASIZE PUSH1 0x3 NOT ADD SLT PUSH2 0x1DD JUMPI PUSH1 0x4 CALLDATALOAD PUSH1 0x1 PUSH1 0x1 PUSH1 0x40 SHL SUB DUP2 GT PUSH2 0x1DD JUMPI PUSH2 0x502 PUSH1 0x40 SWAP2 CALLDATASIZE SWAP1 PUSH1 0x4 ADD PUSH2 0x1162 JUMP JUMPDEST DUP2 MLOAD PUSH1 0x2 PUSH1 0x1 DUP4 MLOAD SWAP3 PUSH1 0x20 DUP2 DUP2 DUP8 ADD SWAP6 PUSH2 0x51D DUP2 DUP4 DUP10 PUSH2 0x12AE JUMP JUMPDEST DUP2 ADD PUSH0 DUP2 MSTORE SUB ADD SWAP1 KECCAK256 ADD SLOAD SWAP3 PUSH2 0x53A DUP6 MLOAD SWAP4 DUP5 SWAP3 MLOAD SWAP3 DUP4 SWAP2 PUSH2 0x12AE JUMP JUMPDEST DUP3 ADD SWAP2 PUSH0 DUP4 MSTORE PUSH1 0x20 DUP2 PUSH1 0x1 DUP1 PUSH1 0xA0 SHL SUB SWAP5 SUB ADD SWAP1 KECCAK256 ADD SLOAD AND DUP3 MLOAD SWAP2 DUP3 MSTORE PUSH1 0x20 DUP3 ADD MSTORE RETURN JUMPDEST CALLVALUE PUSH2 0x1DD JUMPI PUSH1 0x20 CALLDATASIZE PUSH1 0x3 NOT ADD SLT PUSH2 0x1DD JUMPI PUSH1 0x4 CALLDATALOAD PUSH1 0x2 SLOAD DUP2 LT ISZERO PUSH2 0x1DD JUMPI PUSH1 0x2 PUSH0 MSTORE PUSH2 0x1D9 SWAP1 PUSH2 0x5AF SWAP1 PUSH32 0x405787FA12A823E0F2B7631CC41B3BA8828B3321CA811111FA75CD3AA3BB5ACE ADD PUSH2 0x132C JUMP JUMPDEST PUSH1 0x40 MLOAD SWAP2 DUP3 SWAP2 PUSH1 0x20 DUP4 MSTORE PUSH1 0x20 DUP4 ADD SWAP1 PUSH2 0x12CF JUMP JUMPDEST CALLVALUE PUSH2 0x1DD JUMPI PUSH0 CALLDATASIZE PUSH1 0x3 NOT ADD SLT PUSH2 0x1DD JUMPI PUSH1 0x7 SLOAD PUSH1 0x40 MLOAD PUSH1 0x1 PUSH1 0x1 PUSH1 0xA0 SHL SUB SWAP1 SWAP2 AND DUP2 MSTORE PUSH1 0x20 SWAP1 RETURN JUMPDEST CALLVALUE PUSH2 0x1DD JUMPI PUSH2 0x223 PUSH2 0x21A PUSH2 0x5FF CALLDATASIZE PUSH2 0x1268 JUMP JUMPDEST PUSH1 0x20 DUP1 DUP3 SWAP5 SWAP4 SWAP5 MLOAD DUP4 ADD ADD SWAP2 ADD PUSH2 0x13FD JUMP JUMPDEST CALLVALUE PUSH2 0x1DD JUMPI PUSH0 CALLDATASIZE PUSH1 0x3 NOT ADD SLT PUSH2 0x1DD JUMPI PUSH1 0x2 SLOAD PUSH1 0x1 PUSH1 0x1 PUSH1 0x40 SHL SUB DUP2 GT PUSH2 0x6E2 JUMPI PUSH1 0x40 MLOAD SWAP1 PUSH1 0x20 SWAP1 PUSH2 0x648 DUP3 DUP3 PUSH1 0x5 SHL ADD DUP5 PUSH2 0x1141 JUMP JUMPDEST DUP1 DUP4 MSTORE DUP2 DUP4 ADD SWAP1 DUP2 PUSH1 0x2 PUSH0 MSTORE DUP4 PUSH0 KECCAK256 PUSH0 SWAP2 JUMPDEST DUP4 DUP4 LT PUSH2 0x6C0 JUMPI POP POP POP POP PUSH1 0x40 MLOAD SWAP2 DUP1 DUP4 ADD SWAP4 DUP2 DUP5 MSTORE MLOAD DUP1 SWAP5 MSTORE PUSH1 0x40 DUP4 ADD SWAP4 PUSH1 0x40 DUP2 PUSH1 0x5 SHL DUP6 ADD ADD SWAP3 SWAP2 PUSH0 SWAP6 JUMPDEST DUP3 DUP8 LT PUSH2 0x694 JUMPI DUP6 DUP6 SUB DUP7 RETURN JUMPDEST SWAP1 SWAP2 SWAP3 SWAP4 DUP3 DUP1 PUSH2 0x6B0 PUSH1 0x1 SWAP4 PUSH1 0x3F NOT DUP11 DUP3 SUB ADD DUP7 MSTORE DUP9 MLOAD PUSH2 0x12CF JUMP JUMPDEST SWAP7 ADD SWAP3 ADD SWAP7 ADD SWAP6 SWAP3 SWAP2 SWAP1 SWAP3 PUSH2 0x687 JUMP JUMPDEST PUSH1 0x1 DUP7 DUP2 SWAP3 PUSH2 0x6D1 DUP6 SWAP11 SWAP10 SWAP11 PUSH2 0x132C JUMP JUMPDEST DUP2 MSTORE ADD SWAP3 ADD SWAP3 ADD SWAP2 SWAP1 SWAP6 SWAP5 SWAP6 PUSH2 0x65A JUMP JUMPDEST PUSH4 0x4E487B71 PUSH1 0xE0 SHL PUSH0 MSTORE PUSH1 0x41 PUSH1 0x4 MSTORE PUSH1 0x24 PUSH0 REVERT JUMPDEST CALLVALUE PUSH2 0x1DD JUMPI PUSH1 0x20 CALLDATASIZE PUSH1 0x3 NOT ADD SLT PUSH2 0x1DD JUMPI PUSH1 0x4 CALLDATALOAD PUSH0 MSTORE PUSH1 0x1 PUSH1 0x20 MSTORE PUSH1 0x40 PUSH0 KECCAK256 PUSH1 0x1 DUP1 PUSH1 0xA0 SHL SUB DUP1 DUP3 SLOAD AND SWAP1 PUSH1 0xFF PUSH2 0x72F PUSH1 0x1 DUP6 ADD PUSH2 0x132C JUMP JUMPDEST SWAP4 DUP2 PUSH1 0x2 DUP3 ADD SLOAD AND SWAP3 PUSH1 0x4 PUSH1 0x3 DUP4 ADD SLOAD SWAP3 ADD SLOAD SWAP2 PUSH2 0x76D PUSH2 0x762 PUSH1 0x40 MLOAD SWAP9 DUP10 SWAP9 DUP10 MSTORE PUSH1 0xE0 PUSH1 0x20 DUP11 ADD MSTORE PUSH1 0xE0 DUP10 ADD SWAP1 PUSH2 0x12CF JUMP JUMPDEST SWAP6 PUSH1 0x40 DUP9 ADD SWAP1 PUSH2 0x11B7 JUMP JUMPDEST PUSH1 0x60 DUP7 ADD MSTORE DUP2 AND PUSH1 0x80 DUP6 ADD MSTORE DUP2 DUP2 PUSH1 0xA0 SHR AND ISZERO ISZERO PUSH1 0xA0 DUP6 ADD MSTORE PUSH1 0xA8 SHR AND ISZERO ISZERO PUSH1 0xC0 DUP4 ADD MSTORE SUB SWAP1 RETURN JUMPDEST CALLVALUE PUSH2 0x1DD JUMPI PUSH1 0x20 DUP1 PUSH1 0x3 NOT CALLDATASIZE ADD SLT PUSH2 0x1DD JUMPI PUSH1 0x4 CALLDATALOAD PUSH1 0x1 PUSH1 0x1 PUSH1 0x40 SHL SUB DUP2 GT PUSH2 0x1DD JUMPI DUP2 PUSH2 0x18D PUSH2 0x7CA SWAP3 CALLDATASIZE SWAP1 PUSH1 0x4 ADD PUSH2 0x1162 JUMP JUMPDEST DUP2 ADD PUSH0 DUP2 MSTORE SUB ADD SWAP1 KECCAK256 SWAP1 PUSH2 0x817 PUSH1 0xFF DUP4 SLOAD AND SWAP3 PUSH2 0x809 PUSH1 0x2 PUSH1 0x1 DUP4 ADD SLOAD SWAP3 ADD SLOAD PUSH1 0x40 MLOAD SWAP6 DUP7 SWAP4 PUSH1 0xFF DUP4 PUSH1 0xA0 SHR AND SWAP3 PUSH1 0x1 DUP1 PUSH1 0xA0 SHL SUB AND SWAP2 DUP8 DUP7 ADD PUSH2 0x13CD JUMP JUMPDEST SUB PUSH1 0x1F NOT DUP2 ADD DUP5 MSTORE DUP4 PUSH2 0x1141 JUMP JUMPDEST PUSH2 0x1D9 PUSH1 0x40 MLOAD SWAP3 DUP3 DUP5 SWAP4 DUP5 MSTORE DUP4 ADD SWAP1 PUSH2 0x12CF JUMP JUMPDEST CALLVALUE PUSH2 0x1DD JUMPI PUSH1 0x20 CALLDATASIZE PUSH1 0x3 NOT ADD SLT PUSH2 0x1DD JUMPI PUSH2 0x851 PUSH1 0x1 DUP1 PUSH1 0xA0 SHL SUB PUSH1 0x3 SLOAD AND CALLER EQ PUSH2 0x1A73 JUMP JUMPDEST PUSH1 0x4 DUP1 CALLDATALOAD SWAP1 SSTORE STOP JUMPDEST CALLVALUE PUSH2 0x1DD JUMPI PUSH1 0x20 CALLDATASIZE PUSH1 0x3 NOT ADD SLT PUSH2 0x1DD JUMPI PUSH1 0x40 MLOAD PUSH1 0x4 CALLDATALOAD PUSH1 0x1 PUSH1 0x1 PUSH1 0xA0 SHL SUB AND DUP2 MSTORE PUSH1 0x20 SWAP1 RETURN JUMPDEST PUSH2 0x11C4 JUMP JUMPDEST CALLVALUE PUSH2 0x1DD JUMPI PUSH1 0x20 CALLDATASIZE PUSH1 0x3 NOT ADD SLT PUSH2 0x1DD JUMPI PUSH1 0x4 CALLDATALOAD PUSH1 0x1 PUSH1 0x1 PUSH1 0xA0 SHL SUB DUP2 DUP2 AND SWAP2 DUP3 SWAP1 SUB PUSH2 0x1DD JUMPI PUSH2 0x8BB SWAP1 PUSH1 0x3 SLOAD AND CALLER EQ PUSH2 0x1A73 JUMP JUMPDEST PUSH1 0x7 DUP1 SLOAD PUSH1 0x1 PUSH1 0x1 PUSH1 0xA0 SHL SUB NOT AND SWAP2 SWAP1 SWAP2 OR SWAP1 SSTORE STOP JUMPDEST CALLVALUE PUSH2 0x1DD JUMPI PUSH1 0x20 CALLDATASIZE PUSH1 0x3 NOT ADD SLT PUSH2 0x1DD JUMPI PUSH1 0x4 CALLDATALOAD PUSH1 0x1 PUSH1 0x1 PUSH1 0x40 SHL SUB DUP2 GT PUSH2 0x1DD JUMPI CALLDATASIZE PUSH1 0x23 DUP3 ADD SLT ISZERO PUSH2 0x1DD JUMPI DUP1 PUSH1 0x4 ADD CALLDATALOAD PUSH1 0x1 PUSH1 0x1 PUSH1 0x40 SHL SUB DUP2 GT PUSH2 0x1DD JUMPI DUP2 ADD CALLDATASIZE PUSH1 0x24 DUP3 ADD GT PUSH2 0x1DD JUMPI DUP2 PUSH1 0x20 SWAP2 SUB SLT PUSH2 0x1DD JUMPI PUSH1 0x24 DUP2 ADD CALLDATALOAD PUSH0 SWAP1 DUP2 MSTORE PUSH1 0x1 PUSH1 0x20 MSTORE PUSH1 0x40 SWAP1 KECCAK256 SLOAD PUSH1 0x1 PUSH1 0x1 PUSH1 0xA0 SHL SUB AND PUSH2 0x949 JUMPI STOP JUMPDEST PUSH1 0x8 SLOAD PUSH1 0x40 DUP1 MLOAD PUSH4 0xB7B9A01 PUSH1 0xE3 SHL DUP2 MSTORE PUSH1 0x24 DUP5 DUP2 ADD CALLDATALOAD PUSH1 0x4 DUP4 ADD MSTORE SWAP1 SWAP3 DUP4 SWAP2 SWAP1 DUP3 SWAP1 PUSH1 0x1 PUSH1 0x1 PUSH1 0xA0 SHL SUB AND GAS STATICCALL SWAP1 DUP2 ISZERO PUSH2 0x2D0 JUMPI PUSH0 SWAP1 PUSH0 SWAP3 PUSH2 0xEDC JUMPI JUMPDEST POP ISZERO PUSH2 0x98F JUMPI STOP JUMPDEST ISZERO PUSH2 0xCAC JUMPI PUSH1 0x24 DUP2 ADD CALLDATALOAD PUSH0 MSTORE PUSH1 0x1 PUSH1 0x20 MSTORE PUSH1 0x40 PUSH0 KECCAK256 PUSH1 0x40 MLOAD SWAP2 PUSH2 0x9B1 DUP4 PUSH2 0x1126 JUMP JUMPDEST DUP2 SLOAD PUSH1 0x1 PUSH1 0x1 PUSH1 0xA0 SHL SUB AND DUP4 MSTORE PUSH2 0x9CA PUSH1 0x1 DUP4 ADD PUSH2 0x132C JUMP JUMPDEST PUSH1 0x20 DUP5 ADD MSTORE PUSH1 0xFF PUSH1 0x2 DUP4 ADD SLOAD AND SWAP2 PUSH1 0x2 DUP4 LT ISZERO PUSH2 0x4BC JUMPI PUSH1 0x24 SWAP3 PUSH1 0x40 DUP6 ADD MSTORE PUSH1 0x3 DUP2 ADD SLOAD PUSH1 0x60 DUP6 ADD MSTORE PUSH1 0x4 PUSH1 0x1 DUP1 PUSH1 0xA0 SHL SUB SWAP2 ADD SLOAD AND PUSH1 0x80 DUP5 ADD MSTORE PUSH1 0x1 PUSH1 0xA0 DUP5 ADD MSTORE PUSH1 0x1 PUSH1 0xC0 DUP5 ADD MSTORE ADD CALLDATALOAD PUSH0 MSTORE PUSH1 0x1 PUSH1 0x20 MSTORE PUSH1 0x40 PUSH0 KECCAK256 SWAP1 PUSH1 0x1 DUP1 PUSH1 0xA0 SHL SUB DUP2 MLOAD AND PUSH1 0x1 DUP1 PUSH1 0xA0 SHL SUB NOT DUP4 SLOAD AND OR DUP3 SSTORE PUSH1 0x20 DUP2 ADD MLOAD SWAP2 DUP3 MLOAD PUSH1 0x1 PUSH1 0x1 PUSH1 0x40 SHL SUB DUP2 GT PUSH2 0x6E2 JUMPI PUSH2 0xA5C PUSH1 0x1 DUP4 ADD SLOAD PUSH2 0x12F4 JUMP JUMPDEST PUSH1 0x1F DUP2 GT PUSH2 0xC68 JUMPI JUMPDEST POP PUSH1 0x20 PUSH1 0x1F DUP3 GT PUSH1 0x1 EQ PUSH2 0xBFE JUMPI DUP2 SWAP3 SWAP4 SWAP5 PUSH0 SWAP3 PUSH2 0xBF3 JUMPI JUMPDEST POP POP DUP2 PUSH1 0x1 SHL SWAP2 PUSH0 NOT SWAP1 PUSH1 0x3 SHL SHR NOT AND OR PUSH1 0x1 DUP3 ADD SSTORE JUMPDEST PUSH1 0x40 DUP3 ADD MLOAD SWAP1 PUSH1 0x2 DUP3 LT ISZERO PUSH2 0x4BC JUMPI PUSH2 0xAB3 PUSH1 0x4 SWAP3 PUSH1 0x2 DUP4 ADD PUSH2 0x1430 JUMP JUMPDEST PUSH1 0x60 DUP4 ADD MLOAD PUSH1 0x3 DUP3 ADD SSTORE PUSH1 0x80 DUP4 ADD MLOAD SWAP2 ADD DUP1 SLOAD PUSH1 0xA0 DUP1 DUP6 ADD MLOAD PUSH1 0xC0 DUP7 ADD MLOAD PUSH1 0xFF PUSH1 0xA8 SHL SWAP1 ISZERO ISZERO PUSH1 0xA8 SHL AND PUSH1 0x1 PUSH1 0x1 PUSH1 0xB0 SHL SUB NOT SWAP1 SWAP4 AND PUSH1 0x1 PUSH1 0x1 PUSH1 0xA0 SHL SUB SWAP1 SWAP6 AND SWAP5 SWAP1 SWAP5 OR SWAP4 ISZERO ISZERO SWAP1 SHL PUSH1 0xFF PUSH1 0xA0 SHL AND SWAP3 SWAP1 SWAP3 OR SWAP2 SWAP1 SWAP2 OR SWAP1 SSTORE PUSH1 0x20 DUP1 DUP3 ADD MLOAD PUSH1 0x40 MLOAD DUP2 MLOAD SWAP1 SWAP3 SWAP2 DUP4 SWAP2 SWAP1 PUSH2 0xB2D SWAP1 DUP3 SWAP1 DUP5 SWAP1 DUP7 ADD PUSH2 0x12AE JUMP JUMPDEST DUP2 ADD PUSH0 DUP2 MSTORE SUB ADD SWAP1 KECCAK256 SWAP1 PUSH1 0x40 DUP2 ADD MLOAD SWAP2 PUSH1 0x2 DUP4 LT ISZERO PUSH2 0x4BC JUMPI PUSH2 0xB71 PUSH32 0x91E539976736A32BC7CAF897D76EAD0F1298C607B98630F1DBF4AE9CCFDCF058 SWAP4 DUP3 PUSH2 0x1430 JUMP JUMPDEST PUSH2 0xBD2 PUSH1 0x60 DUP4 ADD MLOAD DUP1 PUSH1 0x1 DUP5 ADD SSTORE PUSH1 0xFF PUSH1 0x20 PUSH1 0x1 DUP1 PUSH1 0xA0 SHL SUB PUSH1 0x80 DUP8 ADD MLOAD AND SWAP6 PUSH1 0x2 DUP7 ADD SWAP7 DUP8 SLOAD SWAP1 DUP5 DUP2 PUSH1 0x1 DUP1 PUSH1 0xA0 SHL SUB NOT DUP5 AND OR DUP1 DUP12 SSTORE PUSH1 0xA0 SHR AND ISZERO PUSH2 0xBD7 JUMPI JUMPDEST POP POP ADD MLOAD SWAP4 SLOAD AND SWAP4 PUSH1 0x1 DUP1 PUSH1 0xA0 SHL SUB SWAP1 SLOAD AND SWAP1 PUSH1 0x40 MLOAD SWAP5 DUP6 SWAP5 DUP6 PUSH2 0x1448 JUMP JUMPDEST SUB SWAP1 LOG1 STOP JUMPDEST PUSH1 0x1 PUSH1 0x1 PUSH1 0xA8 SHL SUB NOT SWAP1 SWAP2 AND OR PUSH1 0x1 PUSH1 0xA0 SHL OR DUP8 SSTORE DUP9 DUP1 PUSH2 0xBB3 JUMP JUMPDEST ADD MLOAD SWAP1 POP DUP5 DUP1 PUSH2 0xA7E JUMP JUMPDEST PUSH1 0x1 DUP4 ADD PUSH0 MSTORE PUSH1 0x20 PUSH0 KECCAK256 SWAP1 PUSH0 JUMPDEST PUSH1 0x1F NOT DUP5 AND DUP2 LT PUSH2 0xC50 JUMPI POP PUSH1 0x1 SWAP4 SWAP5 SWAP6 DUP4 PUSH1 0x1F NOT DUP2 AND LT PUSH2 0xC38 JUMPI JUMPDEST POP POP POP DUP2 SHL ADD PUSH1 0x1 DUP3 ADD SSTORE PUSH2 0xA95 JUMP JUMPDEST ADD MLOAD PUSH0 NOT PUSH1 0xF8 DUP5 PUSH1 0x3 SHL AND SHR NOT AND SWAP1 SSTORE DUP5 DUP1 DUP1 PUSH2 0xC28 JUMP JUMPDEST SWAP1 SWAP2 PUSH1 0x20 PUSH1 0x1 DUP2 SWAP3 DUP6 DUP11 ADD MLOAD DUP2 SSTORE ADD SWAP4 ADD SWAP2 ADD PUSH2 0xC0B JUMP JUMPDEST PUSH1 0x1 DUP4 ADD PUSH0 MSTORE PUSH1 0x20 PUSH0 KECCAK256 PUSH1 0x1F DUP4 ADD PUSH1 0x5 SHR DUP2 ADD PUSH1 0x20 DUP5 LT PUSH2 0xCA5 JUMPI JUMPDEST PUSH1 0x1F DUP4 ADD PUSH1 0x5 SHR DUP3 ADD DUP2 LT PUSH2 0xC9A JUMPI POP POP PUSH2 0xA65 JUMP JUMPDEST PUSH0 DUP2 SSTORE PUSH1 0x1 ADD PUSH2 0xC84 JUMP JUMPDEST POP DUP1 PUSH2 0xC84 JUMP JUMPDEST PUSH1 0x24 DUP2 ADD CALLDATALOAD PUSH0 MSTORE PUSH1 0x1 PUSH1 0x20 MSTORE PUSH1 0x40 PUSH0 KECCAK256 PUSH1 0x40 MLOAD SWAP1 PUSH2 0xCC9 DUP3 PUSH2 0x1126 JUMP JUMPDEST DUP1 SLOAD PUSH1 0x1 PUSH1 0x1 PUSH1 0xA0 SHL SUB AND DUP3 MSTORE PUSH2 0xCE2 PUSH1 0x1 DUP3 ADD PUSH2 0x132C JUMP JUMPDEST SWAP3 PUSH1 0x20 DUP4 ADD SWAP4 DUP5 MSTORE PUSH1 0xFF PUSH1 0x2 DUP4 ADD SLOAD AND SWAP2 PUSH1 0x2 DUP4 LT ISZERO PUSH2 0x4BC JUMPI PUSH1 0x24 SWAP3 PUSH1 0x40 DUP6 ADD MSTORE PUSH1 0x3 DUP2 ADD SLOAD PUSH1 0x60 DUP6 ADD MSTORE PUSH1 0x4 PUSH1 0x1 DUP1 PUSH1 0xA0 SHL SUB SWAP2 ADD SLOAD AND PUSH1 0x80 DUP5 ADD MSTORE PUSH1 0x1 PUSH1 0xA0 DUP5 ADD MSTORE PUSH0 PUSH1 0xC0 DUP5 ADD MSTORE ADD CALLDATALOAD PUSH0 MSTORE PUSH1 0x1 PUSH1 0x20 MSTORE PUSH1 0x40 PUSH0 KECCAK256 SWAP2 PUSH1 0x1 DUP1 PUSH1 0xA0 SHL SUB DUP3 MLOAD AND PUSH1 0x1 DUP1 PUSH1 0xA0 SHL SUB NOT DUP5 SLOAD AND OR DUP4 SSTORE MLOAD SWAP2 DUP3 MLOAD PUSH1 0x1 PUSH1 0x1 PUSH1 0x40 SHL SUB DUP2 GT PUSH2 0x6E2 JUMPI PUSH2 0xD72 PUSH1 0x1 DUP4 ADD SLOAD PUSH2 0x12F4 JUMP JUMPDEST PUSH1 0x1F DUP2 GT PUSH2 0xE98 JUMPI JUMPDEST POP PUSH1 0x20 PUSH1 0x1F DUP3 GT PUSH1 0x1 EQ PUSH2 0xE30 JUMPI DUP2 SWAP3 SWAP4 SWAP5 PUSH0 SWAP3 PUSH2 0xE25 JUMPI JUMPDEST POP POP DUP2 PUSH1 0x1 SHL SWAP2 PUSH0 NOT SWAP1 PUSH1 0x3 SHL SHR NOT AND OR PUSH1 0x1 DUP3 ADD SSTORE JUMPDEST PUSH1 0x40 DUP3 ADD MLOAD PUSH1 0x2 DUP2 LT ISZERO PUSH2 0x4BC JUMPI DUP2 PUSH2 0xDCB PUSH1 0x4 SWAP3 PUSH1 0x2 PUSH1 0xC0 SWAP6 ADD PUSH2 0x1430 JUMP JUMPDEST PUSH1 0x60 DUP5 ADD MLOAD PUSH1 0x3 DUP3 ADD SSTORE PUSH1 0x80 DUP5 ADD MLOAD SWAP2 ADD DUP1 SLOAD PUSH1 0xA0 DUP1 DUP7 ADD MLOAD SWAP5 SWAP1 SWAP6 ADD MLOAD PUSH1 0xFF PUSH1 0xA8 SHL SWAP1 ISZERO ISZERO PUSH1 0xA8 SHL AND PUSH1 0x1 PUSH1 0x1 PUSH1 0xB0 SHL SUB NOT SWAP1 SWAP2 AND PUSH1 0x1 PUSH1 0x1 PUSH1 0xA0 SHL SUB SWAP1 SWAP4 AND SWAP3 SWAP1 SWAP3 OR SWAP3 ISZERO ISZERO SWAP1 SWAP4 SHL PUSH1 0xFF PUSH1 0xA0 SHL AND SWAP2 SWAP1 SWAP2 OR OR SWAP1 SSTORE STOP JUMPDEST ADD MLOAD SWAP1 POP DUP5 DUP1 PUSH2 0xD94 JUMP JUMPDEST PUSH1 0x1F NOT DUP3 AND SWAP1 PUSH1 0x1 DUP5 ADD PUSH0 MSTORE PUSH1 0x20 PUSH0 KECCAK256 SWAP2 PUSH0 JUMPDEST DUP2 DUP2 LT PUSH2 0xE80 JUMPI POP SWAP6 DUP4 PUSH1 0x1 SWAP6 SWAP7 SWAP8 LT PUSH2 0xE68 JUMPI JUMPDEST POP POP POP DUP2 SHL ADD PUSH1 0x1 DUP3 ADD SSTORE PUSH2 0xDAB JUMP JUMPDEST ADD MLOAD PUSH0 NOT PUSH1 0xF8 DUP5 PUSH1 0x3 SHL AND SHR NOT AND SWAP1 SSTORE DUP5 DUP1 DUP1 PUSH2 0xE58 JUMP JUMPDEST SWAP2 SWAP3 PUSH1 0x20 PUSH1 0x1 DUP2 SWAP3 DUP7 DUP12 ADD MLOAD DUP2 SSTORE ADD SWAP5 ADD SWAP3 ADD PUSH2 0xE43 JUMP JUMPDEST PUSH1 0x1 DUP4 ADD PUSH0 MSTORE PUSH1 0x20 PUSH0 KECCAK256 PUSH1 0x1F DUP4 ADD PUSH1 0x5 SHR DUP2 ADD PUSH1 0x20 DUP5 LT PUSH2 0xED5 JUMPI JUMPDEST PUSH1 0x1F DUP4 ADD PUSH1 0x5 SHR DUP3 ADD DUP2 LT PUSH2 0xECA JUMPI POP POP PUSH2 0xD7B JUMP JUMPDEST PUSH0 DUP2 SSTORE PUSH1 0x1 ADD PUSH2 0xEB4 JUMP JUMPDEST POP DUP1 PUSH2 0xEB4 JUMP JUMPDEST SWAP2 POP POP PUSH1 0x40 DUP2 RETURNDATASIZE PUSH1 0x40 GT PUSH2 0xF1C JUMPI JUMPDEST DUP2 PUSH2 0xEF8 PUSH1 0x40 SWAP4 DUP4 PUSH2 0x1141 JUMP JUMPDEST DUP2 ADD SUB SLT PUSH2 0x1DD JUMPI PUSH2 0xF15 PUSH1 0x20 PUSH2 0xF0E DUP4 PUSH2 0x1659 JUMP JUMPDEST SWAP3 ADD PUSH2 0x1659 JUMP JUMPDEST SWAP1 DUP4 PUSH2 0x987 JUMP JUMPDEST RETURNDATASIZE SWAP2 POP PUSH2 0xEEB JUMP JUMPDEST CALLVALUE PUSH2 0x1DD JUMPI PUSH1 0x3 NOT PUSH1 0x40 CALLDATASIZE DUP3 ADD SLT PUSH2 0x1DD JUMPI PUSH1 0x1 PUSH1 0x1 PUSH1 0x40 SHL SUB SWAP1 PUSH1 0x4 CALLDATALOAD DUP3 DUP2 GT PUSH2 0x1DD JUMPI PUSH2 0x100 DUP2 PUSH1 0x4 ADD SWAP3 DUP3 CALLDATASIZE SUB ADD SLT PUSH2 0x1DD JUMPI PUSH1 0x24 CALLDATALOAD DUP4 DUP2 GT PUSH2 0x1DD JUMPI PUSH2 0xF72 SWAP1 CALLDATASIZE SWAP1 PUSH1 0x4 ADD PUSH2 0x1162 JUMP JUMPDEST POP PUSH1 0xC4 PUSH0 SWAP2 ADD SWAP2 PUSH2 0xF83 DUP4 DUP3 PUSH2 0x1AB8 JUMP JUMPDEST PUSH1 0x1 SWAP5 SWAP2 SWAP5 LT ISZERO PUSH2 0x104B JUMPI PUSH2 0xF97 SWAP2 PUSH2 0x1AB8 JUMP JUMPDEST PUSH1 0x2 LT ISZERO PUSH2 0x104B JUMPI PUSH1 0x40 ADD CALLDATALOAD SWAP2 PUSH1 0x1 DUP1 PUSH1 0xA0 SHL SUB SWAP1 DUP2 PUSH1 0x20 DUP2 PUSH1 0x9 SLOAD AND SWAP3 ADD CALLDATALOAD AND EQ SWAP1 DUP2 PUSH2 0x1033 JUMPI JUMPDEST POP DUP1 PUSH2 0x1016 JUMPI JUMPDEST PUSH2 0x100E JUMPI JUMPDEST PUSH1 0x40 MLOAD SWAP2 PUSH1 0x20 DUP4 ADD MSTORE PUSH1 0x20 DUP3 MSTORE PUSH1 0x40 DUP3 ADD SWAP3 DUP3 DUP5 LT SWAP1 DUP5 GT OR PUSH2 0x6E2 JUMPI DUP3 PUSH1 0x40 MSTORE ISZERO ISZERO DUP3 MSTORE PUSH1 0x40 PUSH1 0x60 DUP3 ADD MSTORE PUSH1 0x3F NOT SWAP1 PUSH2 0x1009 PUSH1 0x80 DUP3 ADD DUP3 PUSH2 0x12CF JUMP JUMPDEST SUB ADD SWAP1 RETURN JUMPDEST POP PUSH1 0x1 PUSH2 0xFCC JUMP JUMPDEST POP DUP2 PUSH0 MSTORE PUSH1 0x1 PUSH1 0x20 MSTORE PUSH1 0xFF PUSH1 0x4 PUSH1 0x40 PUSH0 KECCAK256 ADD SLOAD PUSH1 0xA0 SHR AND ISZERO PUSH2 0xFC7 JUMP JUMPDEST SWAP1 POP DUP3 PUSH0 MSTORE PUSH1 0x1 PUSH1 0x20 MSTORE PUSH1 0x40 PUSH0 KECCAK256 SLOAD AND ISZERO ISZERO DUP5 PUSH2 0xFC0 JUMP JUMPDEST PUSH4 0x4E487B71 PUSH1 0xE0 SHL PUSH0 MSTORE PUSH1 0x32 PUSH1 0x4 MSTORE PUSH1 0x24 PUSH0 REVERT JUMPDEST CALLVALUE PUSH2 0x1DD JUMPI PUSH0 CALLDATASIZE PUSH1 0x3 NOT ADD SLT PUSH2 0x1DD JUMPI PUSH1 0x20 PUSH1 0x5 SLOAD PUSH1 0x40 MLOAD SWAP1 DUP2 MSTORE RETURN JUMPDEST PUSH1 0x20 PUSH2 0x10A7 PUSH2 0x109E PUSH2 0x108D CALLDATASIZE PUSH2 0x1268 JUMP JUMPDEST DUP5 DUP1 DUP3 SWAP5 SWAP4 SWAP5 MLOAD DUP4 ADD ADD SWAP2 ADD PUSH2 0x13FD JUMP JUMPDEST SWAP3 SWAP2 SWAP1 SWAP2 PUSH2 0x1666 JUMP JUMPDEST PUSH1 0x40 MLOAD SWAP1 DUP2 MSTORE RETURN JUMPDEST CALLVALUE PUSH2 0x1DD JUMPI PUSH0 CALLDATASIZE PUSH1 0x3 NOT ADD SLT PUSH2 0x1DD JUMPI PUSH1 0x20 PUSH1 0x6 SLOAD PUSH1 0x40 MLOAD SWAP1 DUP2 MSTORE RETURN JUMPDEST PUSH1 0x20 PUSH2 0x10A7 PUSH2 0x109E CALLDATASIZE PUSH2 0x1216 JUMP JUMPDEST CALLVALUE PUSH2 0x1DD JUMPI PUSH1 0x20 CALLDATASIZE PUSH1 0x3 NOT ADD SLT PUSH2 0x1DD JUMPI PUSH1 0x4 CALLDATALOAD PUSH1 0x1 PUSH1 0x1 PUSH1 0xA0 SHL SUB DUP2 DUP2 AND SWAP2 DUP3 SWAP1 SUB PUSH2 0x1DD JUMPI PUSH2 0x1110 SWAP1 PUSH1 0x3 SLOAD AND CALLER EQ PUSH2 0x1A73 JUMP JUMPDEST PUSH1 0x8 DUP1 SLOAD PUSH1 0x1 PUSH1 0x1 PUSH1 0xA0 SHL SUB NOT AND SWAP2 SWAP1 SWAP2 OR SWAP1 SSTORE STOP JUMPDEST PUSH1 0xE0 DUP2 ADD SWAP1 DUP2 LT PUSH1 0x1 PUSH1 0x1 PUSH1 0x40 SHL SUB DUP3 GT OR PUSH2 0x6E2 JUMPI PUSH1 0x40 MSTORE JUMP JUMPDEST SWAP1 PUSH1 0x1F DUP1 NOT SWAP2 ADD AND DUP2 ADD SWAP1 DUP2 LT PUSH1 0x1 PUSH1 0x1 PUSH1 0x40 SHL SUB DUP3 GT OR PUSH2 0x6E2 JUMPI PUSH1 0x40 MSTORE JUMP JUMPDEST DUP2 PUSH1 0x1F DUP3 ADD SLT ISZERO PUSH2 0x1DD JUMPI DUP1 CALLDATALOAD SWAP1 PUSH1 0x1 PUSH1 0x1 PUSH1 0x40 SHL SUB DUP3 GT PUSH2 0x6E2 JUMPI PUSH1 0x40 MLOAD SWAP3 PUSH2 0x1196 PUSH1 0x1F DUP5 ADD PUSH1 0x1F NOT AND PUSH1 0x20 ADD DUP6 PUSH2 0x1141 JUMP JUMPDEST DUP3 DUP5 MSTORE PUSH1 0x20 DUP4 DUP4 ADD ADD GT PUSH2 0x1DD JUMPI DUP2 PUSH0 SWAP3 PUSH1 0x20 DUP1 SWAP4 ADD DUP4 DUP7 ADD CALLDATACOPY DUP4 ADD ADD MSTORE SWAP1 JUMP JUMPDEST SWAP1 PUSH1 0x2 DUP3 LT ISZERO PUSH2 0x4BC JUMPI MSTORE JUMP JUMPDEST CALLVALUE PUSH2 0x1DD JUMPI PUSH1 0x20 CALLDATASIZE PUSH1 0x3 NOT ADD SLT PUSH2 0x1DD JUMPI PUSH1 0x4 CALLDATALOAD PUSH1 0x1 PUSH1 0x1 PUSH1 0x40 SHL SUB DUP2 GT PUSH2 0x1DD JUMPI PUSH1 0xFF PUSH2 0x11FC PUSH1 0x20 PUSH2 0x18D DUP2 SWAP5 CALLDATASIZE SWAP1 PUSH1 0x4 ADD PUSH2 0x1162 JUMP JUMPDEST DUP2 ADD PUSH0 DUP2 MSTORE SUB ADD SWAP1 KECCAK256 SLOAD AND PUSH2 0x1214 PUSH1 0x40 MLOAD DUP1 SWAP3 PUSH2 0x11B7 JUMP JUMPDEST RETURN JUMPDEST PUSH1 0x80 PUSH1 0x3 NOT DUP3 ADD SLT PUSH2 0x1DD JUMPI PUSH1 0x4 CALLDATALOAD SWAP1 PUSH1 0x1 PUSH1 0x1 PUSH1 0x40 SHL SUB DUP3 GT PUSH2 0x1DD JUMPI PUSH2 0x1240 SWAP2 PUSH1 0x4 ADD PUSH2 0x1162 JUMP JUMPDEST SWAP1 PUSH1 0x24 CALLDATALOAD PUSH1 0x2 DUP2 LT ISZERO PUSH2 0x1DD JUMPI SWAP1 PUSH1 0x44 CALLDATALOAD SWAP1 PUSH1 0x64 CALLDATALOAD PUSH1 0x1 PUSH1 0x1 PUSH1 0xA0 SHL SUB DUP2 AND DUP2 SUB PUSH2 0x1DD JUMPI SWAP1 JUMP JUMPDEST SWAP1 PUSH1 0x40 PUSH1 0x3 NOT DUP4 ADD SLT PUSH2 0x1DD JUMPI PUSH1 0x1 PUSH1 0x1 PUSH1 0x40 SHL SUB PUSH1 0x4 CALLDATALOAD DUP2 DUP2 GT PUSH2 0x1DD JUMPI DUP4 PUSH2 0x1294 SWAP2 PUSH1 0x4 ADD PUSH2 0x1162 JUMP JUMPDEST SWAP3 PUSH1 0x24 CALLDATALOAD SWAP2 DUP3 GT PUSH2 0x1DD JUMPI PUSH2 0x12AB SWAP2 PUSH1 0x4 ADD PUSH2 0x1162 JUMP JUMPDEST SWAP1 JUMP JUMPDEST PUSH0 JUMPDEST DUP4 DUP2 LT PUSH2 0x12BF JUMPI POP POP PUSH0 SWAP2 ADD MSTORE JUMP JUMPDEST DUP2 DUP2 ADD MLOAD DUP4 DUP3 ADD MSTORE PUSH1 0x20 ADD PUSH2 0x12B0 JUMP JUMPDEST SWAP1 PUSH1 0x20 SWAP2 PUSH2 0x12E8 DUP2 MLOAD DUP1 SWAP3 DUP2 DUP6 MSTORE DUP6 DUP1 DUP7 ADD SWAP2 ADD PUSH2 0x12AE JUMP JUMPDEST PUSH1 0x1F ADD PUSH1 0x1F NOT AND ADD ADD SWAP1 JUMP JUMPDEST SWAP1 PUSH1 0x1 DUP3 DUP2 SHR SWAP3 AND DUP1 ISZERO PUSH2 0x1322 JUMPI JUMPDEST PUSH1 0x20 DUP4 LT EQ PUSH2 0x130E JUMPI JUMP JUMPDEST PUSH4 0x4E487B71 PUSH1 0xE0 SHL PUSH0 MSTORE PUSH1 0x22 PUSH1 0x4 MSTORE PUSH1 0x24 PUSH0 REVERT JUMPDEST SWAP2 PUSH1 0x7F AND SWAP2 PUSH2 0x1303 JUMP JUMPDEST SWAP1 PUSH1 0x40 MLOAD SWAP2 DUP3 PUSH0 DUP3 SLOAD SWAP3 PUSH2 0x133F DUP5 PUSH2 0x12F4 JUMP JUMPDEST SWAP1 DUP2 DUP5 MSTORE PUSH1 0x1 SWAP5 DUP6 DUP2 AND SWAP1 DUP2 PUSH0 EQ PUSH2 0x13AA JUMPI POP PUSH1 0x1 EQ PUSH2 0x136A JUMPI JUMPDEST POP POP PUSH2 0x1368 SWAP3 POP SUB DUP4 PUSH2 0x1141 JUMP JUMPDEST JUMP JUMPDEST SWAP1 SWAP4 SWAP2 POP PUSH0 MSTORE PUSH1 0x20 SWAP1 DUP2 PUSH0 KECCAK256 SWAP4 PUSH0 SWAP2 JUMPDEST DUP2 DUP4 LT PUSH2 0x1392 JUMPI POP POP PUSH2 0x1368 SWAP4 POP DUP3 ADD ADD PUSH0 DUP1 PUSH2 0x135A JUMP JUMPDEST DUP6 SLOAD DUP9 DUP5 ADD DUP6 ADD MSTORE SWAP5 DUP6 ADD SWAP5 DUP8 SWAP5 POP SWAP2 DUP4 ADD SWAP2 PUSH2 0x137A JUMP JUMPDEST SWAP2 POP POP PUSH2 0x1368 SWAP5 POP PUSH1 0x20 SWAP3 POP PUSH1 0xFF NOT AND DUP3 DUP5 ADD MSTORE ISZERO ISZERO PUSH1 0x5 SHL DUP3 ADD ADD PUSH0 DUP1 PUSH2 0x135A JUMP JUMPDEST SWAP3 PUSH1 0x60 SWAP3 SWAP6 SWAP5 SWAP2 SWAP6 PUSH2 0x13E3 DUP6 PUSH1 0x80 DUP2 ADD SWAP9 PUSH2 0x11B7 JUMP JUMPDEST PUSH1 0x20 DUP6 ADD MSTORE PUSH1 0x1 PUSH1 0x1 PUSH1 0xA0 SHL SUB AND PUSH1 0x40 DUP5 ADD MSTORE ISZERO ISZERO SWAP2 ADD MSTORE JUMP JUMPDEST SWAP1 DUP2 PUSH1 0x60 SWAP2 SUB SLT PUSH2 0x1DD JUMPI DUP1 MLOAD PUSH1 0x2 DUP2 LT ISZERO PUSH2 0x1DD JUMPI SWAP2 PUSH1 0x40 PUSH1 0x20 DUP4 ADD MLOAD SWAP3 ADD MLOAD PUSH1 0x1 DUP1 PUSH1 0xA0 SHL SUB DUP2 AND DUP2 SUB PUSH2 0x1DD JUMPI SWAP1 JUMP JUMPDEST SWAP1 PUSH1 0x2 DUP2 LT ISZERO PUSH2 0x4BC JUMPI PUSH1 0xFF DUP1 NOT DUP4 SLOAD AND SWAP2 AND OR SWAP1 SSTORE JUMP JUMPDEST SWAP3 PUSH2 0x146E PUSH2 0x1463 PUSH1 0x60 SWAP5 SWAP8 SWAP7 SWAP4 PUSH1 0x80 DUP8 MSTORE PUSH1 0x80 DUP8 ADD SWAP1 PUSH2 0x12CF JUMP JUMPDEST SWAP7 PUSH1 0x20 DUP7 ADD SWAP1 PUSH2 0x11B7 JUMP JUMPDEST PUSH1 0x40 DUP5 ADD MSTORE PUSH1 0x1 PUSH1 0x1 PUSH1 0xA0 SHL SUB AND SWAP2 ADD MSTORE JUMP JUMPDEST PUSH1 0x8 SLOAD PUSH1 0x40 DUP1 MLOAD PUSH4 0xB3F6702D PUSH1 0xE0 SHL DUP2 MSTORE PUSH1 0x20 PUSH1 0x4 DUP3 ADD DUP2 SWAP1 MSTORE SWAP2 SWAP8 SWAP7 SWAP5 SWAP6 SWAP4 SWAP5 SWAP4 SWAP3 PUSH1 0x1 PUSH1 0x1 PUSH1 0xA0 SHL SUB SWAP3 SWAP2 SWAP1 DUP3 SWAP1 DUP3 SWAP1 DUP6 AND DUP2 DUP1 PUSH2 0x14C4 PUSH1 0x24 DUP3 ADD DUP13 PUSH2 0x12CF JUMP JUMPDEST SUB SWAP2 GAS STATICCALL SWAP1 DUP2 ISZERO PUSH2 0x164F JUMPI PUSH0 SWAP2 PUSH2 0x1612 JUMPI JUMPDEST POP DUP3 CALLER SWAP2 AND SUB PUSH2 0x15CF JUMPI DUP8 MLOAD PUSH1 0xFF PUSH1 0x2 DUP8 MLOAD SWAP3 DUP5 DUP2 DUP2 DUP12 ADD SWAP6 PUSH2 0x14FA DUP2 DUP4 DUP10 PUSH2 0x12AE JUMP JUMPDEST DUP2 ADD PUSH0 DUP2 MSTORE SUB ADD SWAP1 KECCAK256 ADD SLOAD PUSH1 0xA0 SHR AND PUSH2 0x1592 JUMPI SWAP2 PUSH1 0x2 PUSH2 0x154D DUP11 SWAP4 PUSH2 0x158D SWAP8 SWAP7 SWAP6 PUSH32 0xFD50B4E15EC361806DDCBE1D256B1C1354EC1E795AA839A328C9E13A245498F7 SWAP12 SWAP13 MLOAD DUP1 SWAP4 DUP2 SWAP3 DUP13 MLOAD SWAP3 DUP4 SWAP2 PUSH2 0x12AE JUMP JUMPDEST DUP2 ADD PUSH0 DUP2 MSTORE SUB ADD SWAP1 KECCAK256 PUSH2 0x1560 DUP10 DUP3 PUSH2 0x1430 JUMP JUMPDEST PUSH1 0x1 DUP2 ADD DUP6 SWAP1 SSTORE ADD DUP1 SLOAD PUSH1 0x1 PUSH1 0x1 PUSH1 0xA8 SHL SUB NOT AND SWAP2 DUP6 AND SWAP2 SWAP1 SWAP2 OR PUSH1 0x1 PUSH1 0xA0 SHL OR SWAP1 SSTORE MLOAD SWAP5 DUP6 SWAP5 DUP6 PUSH2 0x1448 JUMP JUMPDEST SUB SWAP1 LOG1 JUMP JUMPDEST DUP9 MLOAD PUSH3 0x461BCD PUSH1 0xE5 SHL DUP2 MSTORE PUSH1 0x4 DUP2 ADD DUP4 SWAP1 MSTORE PUSH1 0x16 PUSH1 0x24 DUP3 ADD MSTORE PUSH22 0x14185C985B595D195C9CC8185B1C9958591E481CD95D PUSH1 0x52 SHL PUSH1 0x44 DUP3 ADD MSTORE PUSH1 0x64 SWAP1 REVERT JUMPDEST PUSH1 0x64 SWAP1 DUP9 MLOAD SWAP1 PUSH3 0x461BCD PUSH1 0xE5 SHL DUP3 MSTORE PUSH1 0x4 DUP3 ADD MSTORE PUSH1 0x1F PUSH1 0x24 DUP3 ADD MSTORE PUSH32 0x4E6F7420746865206F776E6572206F66207468697320636F6D6D756E69747900 PUSH1 0x44 DUP3 ADD MSTORE REVERT JUMPDEST DUP3 DUP2 DUP2 RETURNDATASIZE DUP4 GT PUSH2 0x1648 JUMPI JUMPDEST PUSH2 0x1627 DUP2 DUP4 PUSH2 0x1141 JUMP JUMPDEST DUP2 ADD SUB SLT PUSH2 0x1644 JUMPI MLOAD SWAP1 DUP4 DUP3 AND DUP3 SUB PUSH2 0x1641 JUMPI POP PUSH0 PUSH2 0x14D6 JUMP JUMPDEST DUP1 REVERT JUMPDEST POP DUP1 REVERT JUMPDEST POP RETURNDATASIZE PUSH2 0x161D JUMP JUMPDEST DUP10 MLOAD RETURNDATASIZE PUSH0 DUP3 RETURNDATACOPY RETURNDATASIZE SWAP1 REVERT JUMPDEST MLOAD SWAP1 DUP2 ISZERO ISZERO DUP3 SUB PUSH2 0x1DD JUMPI JUMP JUMPDEST SWAP3 SWAP2 SWAP1 SWAP3 PUSH1 0x6 SLOAD CALLVALUE SUB PUSH2 0x1A3E JUMPI DUP2 ISZERO DUP1 ISZERO PUSH2 0x1A2C JUMPI JUMPDEST ISZERO PUSH2 0x19ED JUMPI PUSH1 0x8 SLOAD PUSH1 0x5 SLOAD PUSH1 0x9 SLOAD PUSH1 0x40 DUP1 MLOAD PUSH4 0xB07BCBC5 PUSH1 0xE0 SHL DUP2 MSTORE PUSH1 0x4 DUP2 ADD SWAP2 SWAP1 SWAP2 MSTORE SWAP7 SWAP3 PUSH1 0x20 SWAP3 DUP9 SWAP3 PUSH1 0x1 PUSH1 0x1 PUSH1 0xA0 SHL SUB SWAP3 DUP4 AND SWAP3 DUP5 SWAP3 SWAP2 DUP4 SWAP2 AND PUSH2 0x16C6 PUSH1 0x44 DUP4 ADD DUP11 PUSH2 0x12CF JUMP JUMPDEST SWAP1 PUSH1 0x24 DUP4 ADD MSTORE SUB SWAP3 GAS CALL SWAP5 DUP6 ISZERO PUSH2 0x2D0 JUMPI PUSH0 SWAP6 PUSH2 0x19B9 JUMPI JUMPDEST POP DUP5 ISZERO PUSH2 0x1979 JUMPI PUSH0 DUP6 DUP2 MSTORE PUSH1 0x1 PUSH1 0x20 MSTORE PUSH1 0x40 SWAP1 KECCAK256 DUP1 SLOAD PUSH1 0x1 PUSH1 0x1 PUSH1 0xA0 SHL SUB NOT AND CALLER OR DUP2 SSTORE DUP3 MLOAD PUSH1 0x1 PUSH1 0x1 PUSH1 0x40 SHL SUB DUP2 GT PUSH2 0x6E2 JUMPI PUSH2 0x171F PUSH1 0x1 DUP4 ADD SLOAD PUSH2 0x12F4 JUMP JUMPDEST PUSH1 0x1F DUP2 GT PUSH2 0x1935 JUMPI JUMPDEST POP PUSH1 0x20 PUSH1 0x1F DUP3 GT PUSH1 0x1 EQ PUSH2 0x18C9 JUMPI SWAP1 DUP1 PUSH1 0x4 SWAP4 SWAP3 PUSH0 SWAP2 PUSH2 0x18BE JUMPI JUMPDEST POP DUP2 PUSH1 0x1 SHL SWAP2 PUSH0 NOT SWAP1 PUSH1 0x3 SHL SHR NOT AND OR PUSH1 0x1 DUP3 ADD SSTORE JUMPDEST PUSH2 0x1766 DUP4 PUSH1 0x2 DUP4 ADD PUSH2 0x1430 JUMP JUMPDEST PUSH1 0x3 DUP2 ADD DUP6 SWAP1 SSTORE ADD DUP1 SLOAD PUSH1 0x1 PUSH1 0x1 PUSH1 0xA0 SHL SUB NOT AND PUSH1 0x1 PUSH1 0x1 PUSH1 0xA0 SHL SUB SWAP6 DUP7 AND SWAP1 DUP2 OR SWAP1 SWAP2 SSTORE PUSH1 0x7 SLOAD PUSH1 0x5 SLOAD SWAP2 SWAP6 CALLVALUE SWAP3 DUP4 SUB SWAP3 SWAP2 AND SWAP1 DUP3 GT PUSH2 0x28B JUMPI PUSH1 0x9 SLOAD PUSH1 0x40 MLOAD PUSH4 0x3DE5599D PUSH1 0xE1 SHL DUP2 MSTORE PUSH1 0x1 PUSH1 0x1 PUSH1 0xA0 SHL SUB SWAP1 SWAP2 AND PUSH1 0x4 DUP3 ADD MSTORE SWAP2 PUSH1 0x20 SWAP2 DUP4 SWAP2 PUSH1 0x24 SWAP2 DUP4 SWAP2 SWAP1 GAS CALL SWAP1 DUP2 ISZERO PUSH2 0x2D0 JUMPI PUSH0 SWAP2 PUSH2 0x1884 JUMPI JUMPDEST POP ISZERO PUSH2 0x1847 JUMPI PUSH32 0xFA5B4CF8647CAE9211A0088685C4E4610E9464DD64CC7AD7152C4FE69E04AE34 SWAP4 PUSH2 0x182C SWAP4 PUSH2 0x1837 PUSH1 0x40 MLOAD SWAP6 DUP7 SWAP6 DUP10 DUP8 MSTORE CALLER PUSH1 0x20 DUP9 ADD MSTORE PUSH1 0xC0 PUSH1 0x40 DUP9 ADD MSTORE PUSH1 0xC0 DUP8 ADD SWAP1 PUSH2 0x12CF JUMP JUMPDEST SWAP4 PUSH1 0x60 DUP7 ADD SWAP1 PUSH2 0x11B7 JUMP JUMPDEST PUSH1 0x80 DUP5 ADD MSTORE PUSH1 0xA0 DUP4 ADD MSTORE SUB SWAP1 LOG1 SWAP1 JUMP JUMPDEST PUSH1 0x40 MLOAD PUSH3 0x461BCD PUSH1 0xE5 SHL DUP2 MSTORE PUSH1 0x20 PUSH1 0x4 DUP3 ADD MSTORE PUSH1 0x15 PUSH1 0x24 DUP3 ADD MSTORE PUSH21 0x119D5B991A5B99C81D5C1AD9595C0819985A5B1959 PUSH1 0x5A SHL PUSH1 0x44 DUP3 ADD MSTORE PUSH1 0x64 SWAP1 REVERT JUMPDEST SWAP1 PUSH1 0x20 DUP3 RETURNDATASIZE PUSH1 0x20 GT PUSH2 0x18B6 JUMPI JUMPDEST DUP2 PUSH2 0x189E PUSH1 0x20 SWAP4 DUP4 PUSH2 0x1141 JUMP JUMPDEST DUP2 ADD SUB SLT PUSH2 0x1641 JUMPI POP PUSH2 0x18B0 SWAP1 PUSH2 0x1659 JUMP JUMPDEST PUSH0 PUSH2 0x17DD JUMP JUMPDEST RETURNDATASIZE SWAP2 POP PUSH2 0x1891 JUMP JUMPDEST SWAP1 POP DUP6 ADD MLOAD PUSH0 PUSH2 0x1743 JUMP JUMPDEST PUSH1 0x1 DUP4 ADD PUSH0 MSTORE PUSH1 0x20 PUSH0 KECCAK256 SWAP1 PUSH0 JUMPDEST PUSH1 0x1F NOT DUP5 AND DUP2 LT PUSH2 0x191D JUMPI POP SWAP2 PUSH1 0x1 SWAP2 PUSH1 0x4 SWAP5 SWAP4 DUP3 PUSH1 0x1F NOT DUP2 AND LT PUSH2 0x1905 JUMPI JUMPDEST POP POP DUP2 SHL ADD PUSH1 0x1 DUP3 ADD SSTORE PUSH2 0x1759 JUMP JUMPDEST DUP8 ADD MLOAD PUSH0 NOT PUSH1 0xF8 DUP5 PUSH1 0x3 SHL AND SHR NOT AND SWAP1 SSTORE PUSH0 DUP1 PUSH2 0x18F6 JUMP JUMPDEST SWAP1 SWAP2 PUSH1 0x20 PUSH1 0x1 DUP2 SWAP3 DUP6 DUP11 ADD MLOAD DUP2 SSTORE ADD SWAP4 ADD SWAP2 ADD PUSH2 0x18D6 JUMP JUMPDEST PUSH1 0x1 DUP4 ADD PUSH0 MSTORE PUSH1 0x20 PUSH0 KECCAK256 PUSH1 0x1F DUP4 ADD PUSH1 0x5 SHR DUP2 ADD PUSH1 0x20 DUP5 LT PUSH2 0x1972 JUMPI JUMPDEST PUSH1 0x1F DUP4 ADD PUSH1 0x5 SHR DUP3 ADD DUP2 LT PUSH2 0x1967 JUMPI POP POP PUSH2 0x1728 JUMP JUMPDEST PUSH0 DUP2 SSTORE PUSH1 0x1 ADD PUSH2 0x1951 JUMP JUMPDEST POP DUP1 PUSH2 0x1951 JUMP JUMPDEST PUSH1 0x40 MLOAD PUSH3 0x461BCD PUSH1 0xE5 SHL DUP2 MSTORE PUSH1 0x20 PUSH1 0x4 DUP3 ADD MSTORE PUSH1 0x18 PUSH1 0x24 DUP3 ADD MSTORE PUSH24 0x141C9BDC1BDCD85B0818DC99585D1A5BDB8819985A5B1959 PUSH1 0x42 SHL PUSH1 0x44 DUP3 ADD MSTORE PUSH1 0x64 SWAP1 REVERT JUMPDEST SWAP1 SWAP5 PUSH1 0x20 DUP3 RETURNDATASIZE PUSH1 0x20 GT PUSH2 0x19E5 JUMPI JUMPDEST DUP2 PUSH2 0x19D4 PUSH1 0x20 SWAP4 DUP4 PUSH2 0x1141 JUMP JUMPDEST DUP2 ADD SUB SLT PUSH2 0x1641 JUMPI POP MLOAD SWAP4 PUSH0 PUSH2 0x16DE JUMP JUMPDEST RETURNDATASIZE SWAP2 POP PUSH2 0x19C7 JUMP JUMPDEST PUSH1 0x40 MLOAD PUSH3 0x461BCD PUSH1 0xE5 SHL DUP2 MSTORE PUSH1 0x20 PUSH1 0x4 DUP3 ADD MSTORE PUSH1 0x17 PUSH1 0x24 DUP3 ADD MSTORE PUSH23 0x496E76616C696420726563656976652061646472657373 PUSH1 0x48 SHL PUSH1 0x44 DUP3 ADD MSTORE PUSH1 0x64 SWAP1 REVERT JUMPDEST POP PUSH1 0x1 PUSH1 0x1 PUSH1 0xA0 SHL SUB DUP4 AND ISZERO ISZERO PUSH2 0x167C JUMP JUMPDEST PUSH1 0x40 MLOAD PUSH3 0x461BCD PUSH1 0xE5 SHL DUP2 MSTORE PUSH1 0x20 PUSH1 0x4 DUP3 ADD MSTORE PUSH1 0xD PUSH1 0x24 DUP3 ADD MSTORE PUSH13 0x496E636F727265637420666565 PUSH1 0x98 SHL PUSH1 0x44 DUP3 ADD MSTORE PUSH1 0x64 SWAP1 REVERT JUMPDEST ISZERO PUSH2 0x1A7A JUMPI JUMP JUMPDEST PUSH1 0x40 MLOAD PUSH3 0x461BCD PUSH1 0xE5 SHL DUP2 MSTORE PUSH1 0x20 PUSH1 0x4 DUP3 ADD MSTORE PUSH1 0x16 PUSH1 0x24 DUP3 ADD MSTORE PUSH22 0x2737BA103A34329031B7B73A3930B1BA1037BBB732B9 PUSH1 0x51 SHL PUSH1 0x44 DUP3 ADD MSTORE PUSH1 0x64 SWAP1 REVERT JUMPDEST SWAP1 CALLDATALOAD SWAP1 PUSH1 0x1E NOT DUP2 CALLDATASIZE SUB ADD DUP3 SLT ISZERO PUSH2 0x1DD JUMPI ADD DUP1 CALLDATALOAD SWAP1 PUSH1 0x1 PUSH1 0x1 PUSH1 0x40 SHL SUB DUP3 GT PUSH2 0x1DD JUMPI PUSH1 0x20 ADD SWAP2 DUP2 PUSH1 0x5 SHL CALLDATASIZE SUB DUP4 SGT PUSH2 0x1DD JUMPI JUMP INVALID LOG2 PUSH5 0x6970667358 0x22 SLT KECCAK256 PUSH8 0x10C15D0DA3A44FF4 PUSH5 0xC028FA4F40 PUSH10 0xFC19B1D6C72C8D83EF39 0x4D SWAP9 0xC1 0xA5 PUSH20 0x2A64736F6C634300081400330000000000000000 "},"methodIdentifiers":{"CommunityContract()":"f0642315","ContractParameterKeys(uint256)":"b169499a","FundContract()":"8ed8067e","IncentiveProposals(uint256)":"769d5984","IncentiveStructures(string)":"f2849180","TGCommunitiesFee()":"2775df2f","bytes32ToAddress(bytes32)":"5ced058e","checkLog((uint256,uint256,bytes32,uint256,bytes32,address,bytes32[],bytes),bytes)":"40691db4","createProposal(string,uint8,uint256,address)":"1a216bbd","createProposalAsBytes(string,bytes)":"2299bbbf","fee()":"ddca3f43","getCommunityFeeInfo(string)":"bac4cd07","getContractParameterKeys()":"7d926d77","getFee()":"ced72f87","getIncentiveParamsExist(string)":"cc271aa3","getIncentiveStructure(string)":"5c593e1e","getInctiveStructure(string)":"10dbfe24","getParams(string)":"701a7a1d","getProposal(uint256)":"c7f758a8","performUpkeep(bytes)":"4585e33b","setFee(uint256)":"69fe0e2d","setFundContract(address)":"59144baa","setParametersAsBytes(string,bytes)":"7fa431f8","setParams(string,uint8,uint256,address)":"eae7254d","settgetherCommunityContract(address)":"04189d0b","thisAddress()":"d4dca69b","totalFee()":"1df4ccfc","updateTotalFee()":"e6ffabd4","upkeepId()":"d2aa789f"}}}}}