{"contracts/tgetherCommunityEnrollment.sol":{"CommunityEnrollment":{"abi":[{"inputs":[{"internalType":"address","name":"_registryAddress","type":"address"},{"internalType":"address","name":"_communitiesContract","type":"address"}],"stateMutability":"nonpayable","type":"constructor"},{"anonymous":false,"inputs":[{"indexed":false,"internalType":"string","name":"community","type":"string"},{"indexed":false,"internalType":"string","name":"parameterGroup","type":"string"}],"name":"CommunityEnrolled","type":"event"},{"anonymous":false,"inputs":[{"indexed":false,"internalType":"string","name":"community","type":"string"},{"indexed":false,"internalType":"string","name":"parameterGroup","type":"string"}],"name":"CommunityUnenrolled","type":"event"},{"inputs":[],"name":"CommunitiesContract","outputs":[{"internalType":"contract CommunitiesInterface","name":"","type":"address"}],"stateMutability":"view","type":"function"},{"inputs":[{"internalType":"string","name":"","type":"string"},{"internalType":"uint256","name":"","type":"uint256"}],"name":"CommunityParameterGroups","outputs":[{"internalType":"string","name":"","type":"string"}],"stateMutability":"view","type":"function"},{"inputs":[{"internalType":"string","name":"","type":"string"},{"internalType":"string","name":"","type":"string"}],"name":"ParamGroupMapping","outputs":[{"internalType":"uint256","name":"index","type":"uint256"},{"internalType":"bool","name":"isEnrolled","type":"bool"}],"stateMutability":"view","type":"function"},{"inputs":[{"internalType":"string","name":"_community","type":"string"},{"internalType":"string","name":"_parameterGroup","type":"string"}],"name":"enrollCommunityInParameterGroup","outputs":[],"stateMutability":"nonpayable","type":"function"},{"inputs":[{"internalType":"string","name":"_community","type":"string"}],"name":"getCommunityParameterGroups","outputs":[{"internalType":"string[]","name":"","type":"string[]"}],"stateMutability":"view","type":"function"},{"inputs":[],"name":"owner","outputs":[{"internalType":"address","name":"","type":"address"}],"stateMutability":"view","type":"function"},{"inputs":[],"name":"registry","outputs":[{"internalType":"contract ParameterGroupRegistry","name":"","type":"address"}],"stateMutability":"view","type":"function"},{"inputs":[{"internalType":"address","name":"_communitiesContract","type":"address"}],"name":"setCommunitiesContract","outputs":[],"stateMutability":"nonpayable","type":"function"},{"inputs":[{"internalType":"address","name":"_registryAddress","type":"address"}],"name":"setParameterGroupRegistryContract","outputs":[],"stateMutability":"nonpayable","type":"function"},{"inputs":[{"internalType":"string","name":"_community","type":"string"},{"internalType":"string","name":"_parameterGroup","type":"string"}],"name":"unenrollCommunityFromParameterGroup","outputs":[],"stateMutability":"nonpayable","type":"function"}],"evm":{"bytecode":{"linkReferences":{},"object":"60803461013657601f61168338819003918201601f19168301916001600160401b0383118484101761013a57808492604094855283398101031261013657610052602061004b8361014e565b920161014e565b6001600160a01b03918216919082156100f1571680156100a05760018060a01b0319918260025416176002558160035416176003553390600454161760045560405161152090816101638239f35b60405162461bcd60e51b8152602060048201526024808201527f496e76616c696420636f6d6d756e697469657320636f6e7472616374206164646044820152637265737360e01b6064820152608490fd5b60405162461bcd60e51b815260206004820152601860248201527f496e76616c6964207265676973747279206164647265737300000000000000006044820152606490fd5b5f80fd5b634e487b7160e01b5f52604160045260245ffd5b51906001600160a01b03821682036101365756fe60406080815260049081361015610014575f80fd5b5f91823560e01c80630906ef4b14610ae95780631aba3a8314610a965780637b10399914610a6d5780638da5cb5b14610a465780639eaccaf01461099f5780639f53b93014610874578063ad2957ff146107d0578063b00a45141461073d578063c02c6416146107105763f68c5bf61461008c575f80fd5b3461070c5761009a36611150565b6003548451637b7fcfed60e01b815260208186018190529294916024916001600160a01b03918216908581806100d28782018b6112df565b0381855afa908115610702578a916106e5575b50885163b3f6702d60e01b8152858101879052908682806101088882018c6112df565b0381865afa918215610568578b926106c6575b50868a51809463cbe02a9f60e01b82528289830152818061013f8d8b8301906112df565b03915afa928315610568578b93610697575b501561065a5782809116331491821561064d575b5050156105d2578651855160ff86880191610181818585611196565b83018b815261019a84896001968794030190208b6111b7565b0154166105725760025489516334581e9960e01b81528681018890529087908290861681806101cb8a82018f6112df565b03915afa908115610568578b9161053b575b50156104f9578851868189516101f4818387611196565b8101858152030190205415610483575b885186818951610215818387611196565b810185815203019020805490600160401b821015610471579061023c9184820181556111dd565b919091610460578851916001600160401b039283811161044e5761026a816102648454611206565b84611351565b80898e6001601f8411146103e357916103d8575b505f19600383901b1c191690851b1790555b895187818a516102a1818387611196565b810186815203019020545f1981019081116103c6578a5192838c01908111848210176103b4576102f4898e9a99989796948e969461030394885285528c8286019787895251938492839251928391611196565b81018c8152030190208b6111b7565b90518155019051151560ff8019835416911617905560025416803b156103b057610348938580948a5196879586948593635ac5892d60e11b855284015282018b6112df565b03925af180156103a65761038e575b50506103887fce6a2f2243191b7b0a7a1dc668353de17564e84d2f630da9bc6b395c2552d155935192839283611394565b0390a180f35b610397906110af565b6103a257835f610357565b8380fd5b85513d84823e3d90fd5b8480fd5b86604189634e487b7160e01b5f52525ffd5b634e487b7160e01b8c5260118752858cfd5b90508b01515f61027e565b908793508d601f198416908684528d80852094915b83831061042d575050508311610415575b5050811b019055610290565b8d01515f1960f88460031b161c191690555f80610409565b948482949597989293960151815501940192019088949392918f8e906103f8565b634e487b7160e01b8d5260418852868dfd5b634e487b7160e01b8b528a8652848bfd5b634e487b7160e01b8c5260418752858cfd5b885186818951610494818387611196565b810185815203019020805490600160401b82101561047157906104bb9184820181556111dd565b61046057806104cb5f9254611206565b601f81116104db575b5055610204565b8183528883206104f391601f0160051c81019061133b565b5f6104d4565b885162461bcd60e51b8152808601879052601e818601527f506172616d657465722067726f757020646f6573206e6f7420657869737400006044820152606490fd5b61055b9150873d8911610561575b61055381836110d6565b810190611304565b5f6101dd565b503d610549565b8a513d8d823e3d90fd5b885162461bcd60e51b81528086018790526035818601527f436f6d6d756e69747920697320616c726561647920656e726f6c6c656420696e6044820152740207468697320706172616d657465722067726f757605c1b6064820152608490fd5b50604b9060a49387519362461bcd60e51b85528401528201527f4f6e6c792074686520636f6d6d756e697479206f776e6572206f72204d656d6260448201527f65722041636365737320436f6e74726163742063616e20656e726f6c6c20746860648201526a6520636f6d6d756e69747960a81b6084820152fd5b909150163314815f610165565b885162461bcd60e51b81528086018790526018818601527710dbdb5b5d5b9a5d1e48191bd95cc81b9bdd08195e1a5cdd60421b6044820152606490fd5b6106b8919350873d89116106bf575b6106b081836110d6565b81019061131c565b915f610151565b503d6106a6565b6106de919250873d89116106bf576106b081836110d6565b905f61011b565b6106fc9150863d88116105615761055381836110d6565b5f6100e5565b89513d8c823e3d90fd5b8280fd5b50503461073957816003193601126107395760035490516001600160a01b039091168152602090f35b5080fd5b503461070c57602036600319011261070c5780356001600160a01b0381811693918490036103b057610773908354163314611493565b8215610792575050600280546001600160a01b03191691909117905580f35b906020606492519162461bcd60e51b83528201526018602482015277496e76616c6964207265676973747279206164647265737360401b6044820152fd5b503461070c57602036600319011261070c5780356001600160a01b0381811693918490036103b057610806908354163314611493565b8215610825575050600380546001600160a01b03191691909117905580f35b906020608492519162461bcd60e51b83528201526024808201527f496e76616c696420636f6d6d756e697469657320636f6e7472616374206164646044820152637265737360e01b6064820152fd5b508290346107395760208060031936011261070c576001600160401b039082358281116103b0576108a890369085016110f7565b94816108bc82519788815193849201611196565b86019582816001988981520301902093845493841161098c575091849086928451916108ed828260051b01846110d6565b8083528183018097855282852085915b83831061095f57505050508451948186019282875251809352808601908360051b8701019693905b8382106109325786880387f35b9091929394838061094e839a603f198b820301865289516112df565b999701959493919091019101610925565b90878086819c9a9594610976859d999a9b9d61123e565b81520192019201925098969897959493976108fd565b634e487b7160e01b865260419052602485fd5b509134610a435781600319360112610a435782356001600160401b038111610739576109ce90369085016110f7565b6109e960206024359281865193828580945193849201611196565b81016001815203019020805482101561070c5790610a06916111dd565b939093610a3157610a2d83610a1a8661123e565b90519182916020835260208301906112df565b0390f35b634e487b7160e01b8252819052602490fd5b80fd5b503461070c578260031936011261070c575490516001600160a01b03909116815260209150f35b50503461073957816003193601126107395760025490516001600160a01b039091168152602090f35b828434610a4357610ad190610ac26020610aaf36611150565b9382875194838680955193849201611196565b820190815203019020906111b7565b60ff6001825492015416825191825215156020820152f35b5082903461073957610afa36611150565b9184519082519160209060ff82860194610b15818488611196565b8201888152610b2e8385600195869403019020896111b7565b0154161561105257600354885163b3f6702d60e01b81528481018490526024956001600160a01b039392909190841690858180610b6d8b82018d6112df565b0381855afa908115611048579085918c9161102b575b50163314908115610fbf575b5015610f4157610bb88a5185818a51610ba9818388611196565b81018d815203019020896111b7565b5480151580610f1e575b15610edc578a5185818a51610bd8818388611196565b810186815203019020545f199190828101908111610eca5786818b8f938503610d8d575b50505090505185818a51610c11818388611196565b8101868152030190209081548015610d7b570190610c2f82826111dd565b610d6a578b9493610c7493610c65938784610c4b8c9654611206565b80610d2f575b505050558d51809381928d51928391611196565b810186815203019020896111b7565b82815501556002541691823b15610d2b5791610cac93918780948a519687958694859363ddc67cf560e01b855284015282018a6112df565b03925af18015610d2157610cec575b506103887f224865bd608cf70d4e4284438240df92d856cb3484c80036f9f252c3540eb2b893945192839283611394565b7f224865bd608cf70d4e4284438240df92d856cb3484c80036f9f252c3540eb2b893610d1a610388926110af565b9350610cbb565b85513d86823e3d90fd5b8680fd5b82601f8211600114610d47575050555b875f80610c51565b9091808252610d63601f898420940160051c84018c850161133b565b5555610d3f565b634e487b7160e01b8c528b8852888cfd5b634e487b7160e01b8c5260318852888cfd5b82610dba8693610dac610dd9968b8d8a51809481938a51928391611196565b8201908152030190206111dd565b509451809251610dcb81838c611196565b81018a8152030190206111dd565b610eb9578c8e610deb8d948b946113b9565b610e2d85610e1f858a855182818b51610e05818387611196565b81018a815203019020988651938492839251928391611196565b81018d8152030190206111dd565b5090519382859392805491610e4183611206565b928c8116908115610ea05750600114610e69575b505050815203019020558b8b86828b610bfc565b809293945052898582205b838310610e89575050508201908f5f81610e55565b8054888401528d96889650909201918b9101610e74565b60ff1916875250505080151502830191508f5f81610e55565b634e487b7160e01b8d528c8952898dfd5b634e487b7160e01b8c5260118852888cfd5b8a5162461bcd60e51b8152808701869052601e818901527f496e76616c696420696e64657820666f7220756e656e726f6c6c6d656e7400006044820152606490fd5b508a5185818a51610f30818388611196565b810186815203019020548110610bc2565b895162461bcd60e51b8152808601859052604d818801527f4f6e6c792074686520636f6d6d756e697479206f776e6572206f72204d656d6260448201527f65722041636365737320436f6e74726163742063616e20756e656e726f6c6c2060648201526c74686520636f6d6d756e69747960981b608482015260a490fd5b8b5163cbe02a9f60e01b81528781018790529150859082908180610fe58c82018e6112df565b03915afa908115611021579084918b91611004575b501633148b610b8f565b61101b9150863d88116106bf576106b081836110d6565b8c610ffa565b8b513d8c823e3d90fd5b6110429150873d89116106bf576106b081836110d6565b8d610b83565b8c513d8d823e3d90fd5b875162461bcd60e51b8152808401839052603160248201527f436f6d6d756e697479206973206e6f7420656e726f6c6c656420696e2074686960448201527007320706172616d657465722067726f757607c1b6064820152608490fd5b6001600160401b0381116110c257604052565b634e487b7160e01b5f52604160045260245ffd5b90601f801991011681019081106001600160401b038211176110c257604052565b81601f8201121561114c578035906001600160401b0382116110c2576040519261112b601f8401601f1916602001856110d6565b8284526020838301011161114c57815f926020809301838601378301015290565b5f80fd5b90604060031983011261114c576001600160401b0360043581811161114c578361117c916004016110f7565b9260243591821161114c57611193916004016110f7565b90565b5f5b8381106111a75750505f910152565b8181015183820152602001611198565b6020906111d1928260405194838680955193849201611196565b82019081520301902090565b80548210156111f2575f5260205f2001905f90565b634e487b7160e01b5f52603260045260245ffd5b90600182811c92168015611234575b602083101461122057565b634e487b7160e01b5f52602260045260245ffd5b91607f1691611215565b9060405191825f82549261125184611206565b9081845260019485811690815f146112bc575060011461127c575b505061127a925003836110d6565b565b909391505f52602090815f20935f915b8183106112a457505061127a93508201015f8061126c565b8554888401850152948501948794509183019161128c565b91505061127a94506020925060ff191682840152151560051b8201015f8061126c565b906020916112f881518092818552858086019101611196565b601f01601f1916010190565b9081602091031261114c5751801515810361114c5790565b9081602091031261114c57516001600160a01b038116810361114c5790565b818110611346575050565b5f815560010161133b565b9190601f811161136057505050565b61127a925f5260205f20906020601f840160051c8301931061138a575b601f0160051c019061133b565b909150819061137d565b90916113ab611193936040845260408401906112df565b9160208184039101526112df565b9080821461148f576113cb8154611206565b906001600160401b0382116110c25781906113f0826113ea8654611206565b86611351565b5f90601f8311600114611424575f92611419575b50508160011b915f199060031b1c1916179055565b015490505f80611404565b81526020808220858352818320935090601f1985169083905b82821061147657505090846001959493921061145e575b505050811b019055565b01545f1960f88460031b161c191690555f8080611454565b849581929585015481556001809101960194019061143d565b5050565b1561149a57565b60405162461bcd60e51b815260206004820152602260248201527f4f6e6c79206f776e65722063616e20706572666f726d2074686973206163746960448201526137b760f11b6064820152608490fdfea2646970667358221220510a200d60e668b434050ba0939eb12b38c3ae0b4cf4a13ebcf063be2cec74a664736f6c63430008140033","opcodes":"PUSH1 0x80 CALLVALUE PUSH2 0x136 JUMPI PUSH1 0x1F PUSH2 0x1683 CODESIZE DUP2 SWAP1 SUB SWAP2 DUP3 ADD PUSH1 0x1F NOT AND DUP4 ADD SWAP2 PUSH1 0x1 PUSH1 0x1 PUSH1 0x40 SHL SUB DUP4 GT DUP5 DUP5 LT OR PUSH2 0x13A JUMPI DUP1 DUP5 SWAP3 PUSH1 0x40 SWAP5 DUP6 MSTORE DUP4 CODECOPY DUP2 ADD SUB SLT PUSH2 0x136 JUMPI PUSH2 0x52 PUSH1 0x20 PUSH2 0x4B DUP4 PUSH2 0x14E JUMP JUMPDEST SWAP3 ADD PUSH2 0x14E JUMP JUMPDEST PUSH1 0x1 PUSH1 0x1 PUSH1 0xA0 SHL SUB SWAP2 DUP3 AND SWAP2 SWAP1 DUP3 ISZERO PUSH2 0xF1 JUMPI AND DUP1 ISZERO PUSH2 0xA0 JUMPI PUSH1 0x1 DUP1 PUSH1 0xA0 SHL SUB NOT SWAP2 DUP3 PUSH1 0x2 SLOAD AND OR PUSH1 0x2 SSTORE DUP2 PUSH1 0x3 SLOAD AND OR PUSH1 0x3 SSTORE CALLER SWAP1 PUSH1 0x4 SLOAD AND OR PUSH1 0x4 SSTORE PUSH1 0x40 MLOAD PUSH2 0x1520 SWAP1 DUP2 PUSH2 0x163 DUP3 CODECOPY RETURN JUMPDEST PUSH1 0x40 MLOAD PUSH3 0x461BCD PUSH1 0xE5 SHL DUP2 MSTORE PUSH1 0x20 PUSH1 0x4 DUP3 ADD MSTORE PUSH1 0x24 DUP1 DUP3 ADD MSTORE PUSH32 0x496E76616C696420636F6D6D756E697469657320636F6E747261637420616464 PUSH1 0x44 DUP3 ADD MSTORE PUSH4 0x72657373 PUSH1 0xE0 SHL PUSH1 0x64 DUP3 ADD MSTORE PUSH1 0x84 SWAP1 REVERT JUMPDEST PUSH1 0x40 MLOAD PUSH3 0x461BCD PUSH1 0xE5 SHL DUP2 MSTORE PUSH1 0x20 PUSH1 0x4 DUP3 ADD MSTORE PUSH1 0x18 PUSH1 0x24 DUP3 ADD MSTORE PUSH32 0x496E76616C696420726567697374727920616464726573730000000000000000 PUSH1 0x44 DUP3 ADD MSTORE PUSH1 0x64 SWAP1 REVERT JUMPDEST PUSH0 DUP1 REVERT JUMPDEST PUSH4 0x4E487B71 PUSH1 0xE0 SHL PUSH0 MSTORE PUSH1 0x41 PUSH1 0x4 MSTORE PUSH1 0x24 PUSH0 REVERT JUMPDEST MLOAD SWAP1 PUSH1 0x1 PUSH1 0x1 PUSH1 0xA0 SHL SUB DUP3 AND DUP3 SUB PUSH2 0x136 JUMPI JUMP INVALID PUSH1 0x40 PUSH1 0x80 DUP2 MSTORE PUSH1 0x4 SWAP1 DUP2 CALLDATASIZE LT ISZERO PUSH2 0x14 JUMPI PUSH0 DUP1 REVERT JUMPDEST PUSH0 SWAP2 DUP3 CALLDATALOAD PUSH1 0xE0 SHR DUP1 PUSH4 0x906EF4B EQ PUSH2 0xAE9 JUMPI DUP1 PUSH4 0x1ABA3A83 EQ PUSH2 0xA96 JUMPI DUP1 PUSH4 0x7B103999 EQ PUSH2 0xA6D JUMPI DUP1 PUSH4 0x8DA5CB5B EQ PUSH2 0xA46 JUMPI DUP1 PUSH4 0x9EACCAF0 EQ PUSH2 0x99F JUMPI DUP1 PUSH4 0x9F53B930 EQ PUSH2 0x874 JUMPI DUP1 PUSH4 0xAD2957FF EQ PUSH2 0x7D0 JUMPI DUP1 PUSH4 0xB00A4514 EQ PUSH2 0x73D JUMPI DUP1 PUSH4 0xC02C6416 EQ PUSH2 0x710 JUMPI PUSH4 0xF68C5BF6 EQ PUSH2 0x8C JUMPI PUSH0 DUP1 REVERT JUMPDEST CALLVALUE PUSH2 0x70C JUMPI PUSH2 0x9A CALLDATASIZE PUSH2 0x1150 JUMP JUMPDEST PUSH1 0x3 SLOAD DUP5 MLOAD PUSH4 0x7B7FCFED PUSH1 0xE0 SHL DUP2 MSTORE PUSH1 0x20 DUP2 DUP7 ADD DUP2 SWAP1 MSTORE SWAP3 SWAP5 SWAP2 PUSH1 0x24 SWAP2 PUSH1 0x1 PUSH1 0x1 PUSH1 0xA0 SHL SUB SWAP2 DUP3 AND SWAP1 DUP6 DUP2 DUP1 PUSH2 0xD2 DUP8 DUP3 ADD DUP12 PUSH2 0x12DF JUMP JUMPDEST SUB DUP2 DUP6 GAS STATICCALL SWAP1 DUP2 ISZERO PUSH2 0x702 JUMPI DUP11 SWAP2 PUSH2 0x6E5 JUMPI JUMPDEST POP DUP9 MLOAD PUSH4 0xB3F6702D PUSH1 0xE0 SHL DUP2 MSTORE DUP6 DUP2 ADD DUP8 SWAP1 MSTORE SWAP1 DUP7 DUP3 DUP1 PUSH2 0x108 DUP9 DUP3 ADD DUP13 PUSH2 0x12DF JUMP JUMPDEST SUB DUP2 DUP7 GAS STATICCALL SWAP2 DUP3 ISZERO PUSH2 0x568 JUMPI DUP12 SWAP3 PUSH2 0x6C6 JUMPI JUMPDEST POP DUP7 DUP11 MLOAD DUP1 SWAP5 PUSH4 0xCBE02A9F PUSH1 0xE0 SHL DUP3 MSTORE DUP3 DUP10 DUP4 ADD MSTORE DUP2 DUP1 PUSH2 0x13F DUP14 DUP12 DUP4 ADD SWAP1 PUSH2 0x12DF JUMP JUMPDEST SUB SWAP2 GAS STATICCALL SWAP3 DUP4 ISZERO PUSH2 0x568 JUMPI DUP12 SWAP4 PUSH2 0x697 JUMPI JUMPDEST POP ISZERO PUSH2 0x65A JUMPI DUP3 DUP1 SWAP2 AND CALLER EQ SWAP2 DUP3 ISZERO PUSH2 0x64D JUMPI JUMPDEST POP POP ISZERO PUSH2 0x5D2 JUMPI DUP7 MLOAD DUP6 MLOAD PUSH1 0xFF DUP7 DUP9 ADD SWAP2 PUSH2 0x181 DUP2 DUP6 DUP6 PUSH2 0x1196 JUMP JUMPDEST DUP4 ADD DUP12 DUP2 MSTORE PUSH2 0x19A DUP5 DUP10 PUSH1 0x1 SWAP7 DUP8 SWAP5 SUB ADD SWAP1 KECCAK256 DUP12 PUSH2 0x11B7 JUMP JUMPDEST ADD SLOAD AND PUSH2 0x572 JUMPI PUSH1 0x2 SLOAD DUP10 MLOAD PUSH4 0x34581E99 PUSH1 0xE0 SHL DUP2 MSTORE DUP7 DUP2 ADD DUP9 SWAP1 MSTORE SWAP1 DUP8 SWAP1 DUP3 SWAP1 DUP7 AND DUP2 DUP1 PUSH2 0x1CB DUP11 DUP3 ADD DUP16 PUSH2 0x12DF JUMP JUMPDEST SUB SWAP2 GAS STATICCALL SWAP1 DUP2 ISZERO PUSH2 0x568 JUMPI DUP12 SWAP2 PUSH2 0x53B JUMPI JUMPDEST POP ISZERO PUSH2 0x4F9 JUMPI DUP9 MLOAD DUP7 DUP2 DUP10 MLOAD PUSH2 0x1F4 DUP2 DUP4 DUP8 PUSH2 0x1196 JUMP JUMPDEST DUP2 ADD DUP6 DUP2 MSTORE SUB ADD SWAP1 KECCAK256 SLOAD ISZERO PUSH2 0x483 JUMPI JUMPDEST DUP9 MLOAD DUP7 DUP2 DUP10 MLOAD PUSH2 0x215 DUP2 DUP4 DUP8 PUSH2 0x1196 JUMP JUMPDEST DUP2 ADD DUP6 DUP2 MSTORE SUB ADD SWAP1 KECCAK256 DUP1 SLOAD SWAP1 PUSH1 0x1 PUSH1 0x40 SHL DUP3 LT ISZERO PUSH2 0x471 JUMPI SWAP1 PUSH2 0x23C SWAP2 DUP5 DUP3 ADD DUP2 SSTORE PUSH2 0x11DD JUMP JUMPDEST SWAP2 SWAP1 SWAP2 PUSH2 0x460 JUMPI DUP9 MLOAD SWAP2 PUSH1 0x1 PUSH1 0x1 PUSH1 0x40 SHL SUB SWAP3 DUP4 DUP2 GT PUSH2 0x44E JUMPI PUSH2 0x26A DUP2 PUSH2 0x264 DUP5 SLOAD PUSH2 0x1206 JUMP JUMPDEST DUP5 PUSH2 0x1351 JUMP JUMPDEST DUP1 DUP10 DUP15 PUSH1 0x1 PUSH1 0x1F DUP5 GT EQ PUSH2 0x3E3 JUMPI SWAP2 PUSH2 0x3D8 JUMPI JUMPDEST POP PUSH0 NOT PUSH1 0x3 DUP4 SWAP1 SHL SHR NOT AND SWAP1 DUP6 SHL OR SWAP1 SSTORE JUMPDEST DUP10 MLOAD DUP8 DUP2 DUP11 MLOAD PUSH2 0x2A1 DUP2 DUP4 DUP8 PUSH2 0x1196 JUMP JUMPDEST DUP2 ADD DUP7 DUP2 MSTORE SUB ADD SWAP1 KECCAK256 SLOAD PUSH0 NOT DUP2 ADD SWAP1 DUP2 GT PUSH2 0x3C6 JUMPI DUP11 MLOAD SWAP3 DUP4 DUP13 ADD SWAP1 DUP2 GT DUP5 DUP3 LT OR PUSH2 0x3B4 JUMPI PUSH2 0x2F4 DUP10 DUP15 SWAP11 SWAP10 SWAP9 SWAP8 SWAP7 SWAP5 DUP15 SWAP7 SWAP5 PUSH2 0x303 SWAP5 DUP9 MSTORE DUP6 MSTORE DUP13 DUP3 DUP7 ADD SWAP8 DUP8 DUP10 MSTORE MLOAD SWAP4 DUP5 SWAP3 DUP4 SWAP3 MLOAD SWAP3 DUP4 SWAP2 PUSH2 0x1196 JUMP JUMPDEST DUP2 ADD DUP13 DUP2 MSTORE SUB ADD SWAP1 KECCAK256 DUP12 PUSH2 0x11B7 JUMP JUMPDEST SWAP1 MLOAD DUP2 SSTORE ADD SWAP1 MLOAD ISZERO ISZERO PUSH1 0xFF DUP1 NOT DUP4 SLOAD AND SWAP2 AND OR SWAP1 SSTORE PUSH1 0x2 SLOAD AND DUP1 EXTCODESIZE ISZERO PUSH2 0x3B0 JUMPI PUSH2 0x348 SWAP4 DUP6 DUP1 SWAP5 DUP11 MLOAD SWAP7 DUP8 SWAP6 DUP7 SWAP5 DUP6 SWAP4 PUSH4 0x5AC5892D PUSH1 0xE1 SHL DUP6 MSTORE DUP5 ADD MSTORE DUP3 ADD DUP12 PUSH2 0x12DF JUMP JUMPDEST SUB SWAP3 GAS CALL DUP1 ISZERO PUSH2 0x3A6 JUMPI PUSH2 0x38E JUMPI JUMPDEST POP POP PUSH2 0x388 PUSH32 0xCE6A2F2243191B7B0A7A1DC668353DE17564E84D2F630DA9BC6B395C2552D155 SWAP4 MLOAD SWAP3 DUP4 SWAP3 DUP4 PUSH2 0x1394 JUMP JUMPDEST SUB SWAP1 LOG1 DUP1 RETURN JUMPDEST PUSH2 0x397 SWAP1 PUSH2 0x10AF JUMP JUMPDEST PUSH2 0x3A2 JUMPI DUP4 PUSH0 PUSH2 0x357 JUMP JUMPDEST DUP4 DUP1 REVERT JUMPDEST DUP6 MLOAD RETURNDATASIZE DUP5 DUP3 RETURNDATACOPY RETURNDATASIZE SWAP1 REVERT JUMPDEST DUP5 DUP1 REVERT JUMPDEST DUP7 PUSH1 0x41 DUP10 PUSH4 0x4E487B71 PUSH1 0xE0 SHL PUSH0 MSTORE MSTORE PUSH0 REVERT JUMPDEST PUSH4 0x4E487B71 PUSH1 0xE0 SHL DUP13 MSTORE PUSH1 0x11 DUP8 MSTORE DUP6 DUP13 REVERT JUMPDEST SWAP1 POP DUP12 ADD MLOAD PUSH0 PUSH2 0x27E JUMP JUMPDEST SWAP1 DUP8 SWAP4 POP DUP14 PUSH1 0x1F NOT DUP5 AND SWAP1 DUP7 DUP5 MSTORE DUP14 DUP1 DUP6 KECCAK256 SWAP5 SWAP2 JUMPDEST DUP4 DUP4 LT PUSH2 0x42D JUMPI POP POP POP DUP4 GT PUSH2 0x415 JUMPI JUMPDEST POP POP DUP2 SHL ADD SWAP1 SSTORE PUSH2 0x290 JUMP JUMPDEST DUP14 ADD MLOAD PUSH0 NOT PUSH1 0xF8 DUP5 PUSH1 0x3 SHL AND SHR NOT AND SWAP1 SSTORE PUSH0 DUP1 PUSH2 0x409 JUMP JUMPDEST SWAP5 DUP5 DUP3 SWAP5 SWAP6 SWAP8 SWAP9 SWAP3 SWAP4 SWAP7 ADD MLOAD DUP2 SSTORE ADD SWAP5 ADD SWAP3 ADD SWAP1 DUP9 SWAP5 SWAP4 SWAP3 SWAP2 DUP16 DUP15 SWAP1 PUSH2 0x3F8 JUMP JUMPDEST PUSH4 0x4E487B71 PUSH1 0xE0 SHL DUP14 MSTORE PUSH1 0x41 DUP9 MSTORE DUP7 DUP14 REVERT JUMPDEST PUSH4 0x4E487B71 PUSH1 0xE0 SHL DUP12 MSTORE DUP11 DUP7 MSTORE DUP5 DUP12 REVERT JUMPDEST PUSH4 0x4E487B71 PUSH1 0xE0 SHL DUP13 MSTORE PUSH1 0x41 DUP8 MSTORE DUP6 DUP13 REVERT JUMPDEST DUP9 MLOAD DUP7 DUP2 DUP10 MLOAD PUSH2 0x494 DUP2 DUP4 DUP8 PUSH2 0x1196 JUMP JUMPDEST DUP2 ADD DUP6 DUP2 MSTORE SUB ADD SWAP1 KECCAK256 DUP1 SLOAD SWAP1 PUSH1 0x1 PUSH1 0x40 SHL DUP3 LT ISZERO PUSH2 0x471 JUMPI SWAP1 PUSH2 0x4BB SWAP2 DUP5 DUP3 ADD DUP2 SSTORE PUSH2 0x11DD JUMP JUMPDEST PUSH2 0x460 JUMPI DUP1 PUSH2 0x4CB PUSH0 SWAP3 SLOAD PUSH2 0x1206 JUMP JUMPDEST PUSH1 0x1F DUP2 GT PUSH2 0x4DB JUMPI JUMPDEST POP SSTORE PUSH2 0x204 JUMP JUMPDEST DUP2 DUP4 MSTORE DUP9 DUP4 KECCAK256 PUSH2 0x4F3 SWAP2 PUSH1 0x1F ADD PUSH1 0x5 SHR DUP2 ADD SWAP1 PUSH2 0x133B JUMP JUMPDEST PUSH0 PUSH2 0x4D4 JUMP JUMPDEST DUP9 MLOAD PUSH3 0x461BCD PUSH1 0xE5 SHL DUP2 MSTORE DUP1 DUP7 ADD DUP8 SWAP1 MSTORE PUSH1 0x1E DUP2 DUP7 ADD MSTORE PUSH32 0x506172616D657465722067726F757020646F6573206E6F742065786973740000 PUSH1 0x44 DUP3 ADD MSTORE PUSH1 0x64 SWAP1 REVERT JUMPDEST PUSH2 0x55B SWAP2 POP DUP8 RETURNDATASIZE DUP10 GT PUSH2 0x561 JUMPI JUMPDEST PUSH2 0x553 DUP2 DUP4 PUSH2 0x10D6 JUMP JUMPDEST DUP2 ADD SWAP1 PUSH2 0x1304 JUMP JUMPDEST PUSH0 PUSH2 0x1DD JUMP JUMPDEST POP RETURNDATASIZE PUSH2 0x549 JUMP JUMPDEST DUP11 MLOAD RETURNDATASIZE DUP14 DUP3 RETURNDATACOPY RETURNDATASIZE SWAP1 REVERT JUMPDEST DUP9 MLOAD PUSH3 0x461BCD PUSH1 0xE5 SHL DUP2 MSTORE DUP1 DUP7 ADD DUP8 SWAP1 MSTORE PUSH1 0x35 DUP2 DUP7 ADD MSTORE PUSH32 0x436F6D6D756E69747920697320616C726561647920656E726F6C6C656420696E PUSH1 0x44 DUP3 ADD MSTORE PUSH21 0x207468697320706172616D657465722067726F757 PUSH1 0x5C SHL PUSH1 0x64 DUP3 ADD MSTORE PUSH1 0x84 SWAP1 REVERT JUMPDEST POP PUSH1 0x4B SWAP1 PUSH1 0xA4 SWAP4 DUP8 MLOAD SWAP4 PUSH3 0x461BCD PUSH1 0xE5 SHL DUP6 MSTORE DUP5 ADD MSTORE DUP3 ADD MSTORE PUSH32 0x4F6E6C792074686520636F6D6D756E697479206F776E6572206F72204D656D62 PUSH1 0x44 DUP3 ADD MSTORE PUSH32 0x65722041636365737320436F6E74726163742063616E20656E726F6C6C207468 PUSH1 0x64 DUP3 ADD MSTORE PUSH11 0x6520636F6D6D756E697479 PUSH1 0xA8 SHL PUSH1 0x84 DUP3 ADD MSTORE REVERT JUMPDEST SWAP1 SWAP2 POP AND CALLER EQ DUP2 PUSH0 PUSH2 0x165 JUMP JUMPDEST DUP9 MLOAD PUSH3 0x461BCD PUSH1 0xE5 SHL DUP2 MSTORE DUP1 DUP7 ADD DUP8 SWAP1 MSTORE PUSH1 0x18 DUP2 DUP7 ADD MSTORE PUSH24 0x10DBDB5B5D5B9A5D1E48191BD95CC81B9BDD08195E1A5CDD PUSH1 0x42 SHL PUSH1 0x44 DUP3 ADD MSTORE PUSH1 0x64 SWAP1 REVERT JUMPDEST PUSH2 0x6B8 SWAP2 SWAP4 POP DUP8 RETURNDATASIZE DUP10 GT PUSH2 0x6BF JUMPI JUMPDEST PUSH2 0x6B0 DUP2 DUP4 PUSH2 0x10D6 JUMP JUMPDEST DUP2 ADD SWAP1 PUSH2 0x131C JUMP JUMPDEST SWAP2 PUSH0 PUSH2 0x151 JUMP JUMPDEST POP RETURNDATASIZE PUSH2 0x6A6 JUMP JUMPDEST PUSH2 0x6DE SWAP2 SWAP3 POP DUP8 RETURNDATASIZE DUP10 GT PUSH2 0x6BF JUMPI PUSH2 0x6B0 DUP2 DUP4 PUSH2 0x10D6 JUMP JUMPDEST SWAP1 PUSH0 PUSH2 0x11B JUMP JUMPDEST PUSH2 0x6FC SWAP2 POP DUP7 RETURNDATASIZE DUP9 GT PUSH2 0x561 JUMPI PUSH2 0x553 DUP2 DUP4 PUSH2 0x10D6 JUMP JUMPDEST PUSH0 PUSH2 0xE5 JUMP JUMPDEST DUP10 MLOAD RETURNDATASIZE DUP13 DUP3 RETURNDATACOPY RETURNDATASIZE SWAP1 REVERT JUMPDEST DUP3 DUP1 REVERT JUMPDEST POP POP CALLVALUE PUSH2 0x739 JUMPI DUP2 PUSH1 0x3 NOT CALLDATASIZE ADD SLT PUSH2 0x739 JUMPI PUSH1 0x3 SLOAD SWAP1 MLOAD PUSH1 0x1 PUSH1 0x1 PUSH1 0xA0 SHL SUB SWAP1 SWAP2 AND DUP2 MSTORE PUSH1 0x20 SWAP1 RETURN JUMPDEST POP DUP1 REVERT JUMPDEST POP CALLVALUE PUSH2 0x70C JUMPI PUSH1 0x20 CALLDATASIZE PUSH1 0x3 NOT ADD SLT PUSH2 0x70C JUMPI DUP1 CALLDATALOAD PUSH1 0x1 PUSH1 0x1 PUSH1 0xA0 SHL SUB DUP2 DUP2 AND SWAP4 SWAP2 DUP5 SWAP1 SUB PUSH2 0x3B0 JUMPI PUSH2 0x773 SWAP1 DUP4 SLOAD AND CALLER EQ PUSH2 0x1493 JUMP JUMPDEST DUP3 ISZERO PUSH2 0x792 JUMPI POP POP PUSH1 0x2 DUP1 SLOAD PUSH1 0x1 PUSH1 0x1 PUSH1 0xA0 SHL SUB NOT AND SWAP2 SWAP1 SWAP2 OR SWAP1 SSTORE DUP1 RETURN JUMPDEST SWAP1 PUSH1 0x20 PUSH1 0x64 SWAP3 MLOAD SWAP2 PUSH3 0x461BCD PUSH1 0xE5 SHL DUP4 MSTORE DUP3 ADD MSTORE PUSH1 0x18 PUSH1 0x24 DUP3 ADD MSTORE PUSH24 0x496E76616C69642072656769737472792061646472657373 PUSH1 0x40 SHL PUSH1 0x44 DUP3 ADD MSTORE REVERT JUMPDEST POP CALLVALUE PUSH2 0x70C JUMPI PUSH1 0x20 CALLDATASIZE PUSH1 0x3 NOT ADD SLT PUSH2 0x70C JUMPI DUP1 CALLDATALOAD PUSH1 0x1 PUSH1 0x1 PUSH1 0xA0 SHL SUB DUP2 DUP2 AND SWAP4 SWAP2 DUP5 SWAP1 SUB PUSH2 0x3B0 JUMPI PUSH2 0x806 SWAP1 DUP4 SLOAD AND CALLER EQ PUSH2 0x1493 JUMP JUMPDEST DUP3 ISZERO PUSH2 0x825 JUMPI POP POP PUSH1 0x3 DUP1 SLOAD PUSH1 0x1 PUSH1 0x1 PUSH1 0xA0 SHL SUB NOT AND SWAP2 SWAP1 SWAP2 OR SWAP1 SSTORE DUP1 RETURN JUMPDEST SWAP1 PUSH1 0x20 PUSH1 0x84 SWAP3 MLOAD SWAP2 PUSH3 0x461BCD PUSH1 0xE5 SHL DUP4 MSTORE DUP3 ADD MSTORE PUSH1 0x24 DUP1 DUP3 ADD MSTORE PUSH32 0x496E76616C696420636F6D6D756E697469657320636F6E747261637420616464 PUSH1 0x44 DUP3 ADD MSTORE PUSH4 0x72657373 PUSH1 0xE0 SHL PUSH1 0x64 DUP3 ADD MSTORE REVERT JUMPDEST POP DUP3 SWAP1 CALLVALUE PUSH2 0x739 JUMPI PUSH1 0x20 DUP1 PUSH1 0x3 NOT CALLDATASIZE ADD SLT PUSH2 0x70C JUMPI PUSH1 0x1 PUSH1 0x1 PUSH1 0x40 SHL SUB SWAP1 DUP3 CALLDATALOAD DUP3 DUP2 GT PUSH2 0x3B0 JUMPI PUSH2 0x8A8 SWAP1 CALLDATASIZE SWAP1 DUP6 ADD PUSH2 0x10F7 JUMP JUMPDEST SWAP5 DUP2 PUSH2 0x8BC DUP3 MLOAD SWAP8 DUP9 DUP2 MLOAD SWAP4 DUP5 SWAP3 ADD PUSH2 0x1196 JUMP JUMPDEST DUP7 ADD SWAP6 DUP3 DUP2 PUSH1 0x1 SWAP9 DUP10 DUP2 MSTORE SUB ADD SWAP1 KECCAK256 SWAP4 DUP5 SLOAD SWAP4 DUP5 GT PUSH2 0x98C JUMPI POP SWAP2 DUP5 SWAP1 DUP7 SWAP3 DUP5 MLOAD SWAP2 PUSH2 0x8ED DUP3 DUP3 PUSH1 0x5 SHL ADD DUP5 PUSH2 0x10D6 JUMP JUMPDEST DUP1 DUP4 MSTORE DUP2 DUP4 ADD DUP1 SWAP8 DUP6 MSTORE DUP3 DUP6 KECCAK256 DUP6 SWAP2 JUMPDEST DUP4 DUP4 LT PUSH2 0x95F JUMPI POP POP POP POP DUP5 MLOAD SWAP5 DUP2 DUP7 ADD SWAP3 DUP3 DUP8 MSTORE MLOAD DUP1 SWAP4 MSTORE DUP1 DUP7 ADD SWAP1 DUP4 PUSH1 0x5 SHL DUP8 ADD ADD SWAP7 SWAP4 SWAP1 JUMPDEST DUP4 DUP3 LT PUSH2 0x932 JUMPI DUP7 DUP9 SUB DUP8 RETURN JUMPDEST SWAP1 SWAP2 SWAP3 SWAP4 SWAP5 DUP4 DUP1 PUSH2 0x94E DUP4 SWAP11 PUSH1 0x3F NOT DUP12 DUP3 SUB ADD DUP7 MSTORE DUP10 MLOAD PUSH2 0x12DF JUMP JUMPDEST SWAP10 SWAP8 ADD SWAP6 SWAP5 SWAP4 SWAP2 SWAP1 SWAP2 ADD SWAP2 ADD PUSH2 0x925 JUMP JUMPDEST SWAP1 DUP8 DUP1 DUP7 DUP2 SWAP13 SWAP11 SWAP6 SWAP5 PUSH2 0x976 DUP6 SWAP14 SWAP10 SWAP11 SWAP12 SWAP14 PUSH2 0x123E JUMP JUMPDEST DUP2 MSTORE ADD SWAP3 ADD SWAP3 ADD SWAP3 POP SWAP9 SWAP7 SWAP9 SWAP8 SWAP6 SWAP5 SWAP4 SWAP8 PUSH2 0x8FD JUMP JUMPDEST PUSH4 0x4E487B71 PUSH1 0xE0 SHL DUP7 MSTORE PUSH1 0x41 SWAP1 MSTORE PUSH1 0x24 DUP6 REVERT JUMPDEST POP SWAP2 CALLVALUE PUSH2 0xA43 JUMPI DUP2 PUSH1 0x3 NOT CALLDATASIZE ADD SLT PUSH2 0xA43 JUMPI DUP3 CALLDATALOAD PUSH1 0x1 PUSH1 0x1 PUSH1 0x40 SHL SUB DUP2 GT PUSH2 0x739 JUMPI PUSH2 0x9CE SWAP1 CALLDATASIZE SWAP1 DUP6 ADD PUSH2 0x10F7 JUMP JUMPDEST PUSH2 0x9E9 PUSH1 0x20 PUSH1 0x24 CALLDATALOAD SWAP3 DUP2 DUP7 MLOAD SWAP4 DUP3 DUP6 DUP1 SWAP5 MLOAD SWAP4 DUP5 SWAP3 ADD PUSH2 0x1196 JUMP JUMPDEST DUP2 ADD PUSH1 0x1 DUP2 MSTORE SUB ADD SWAP1 KECCAK256 DUP1 SLOAD DUP3 LT ISZERO PUSH2 0x70C JUMPI SWAP1 PUSH2 0xA06 SWAP2 PUSH2 0x11DD JUMP JUMPDEST SWAP4 SWAP1 SWAP4 PUSH2 0xA31 JUMPI PUSH2 0xA2D DUP4 PUSH2 0xA1A DUP7 PUSH2 0x123E JUMP JUMPDEST SWAP1 MLOAD SWAP2 DUP3 SWAP2 PUSH1 0x20 DUP4 MSTORE PUSH1 0x20 DUP4 ADD SWAP1 PUSH2 0x12DF JUMP JUMPDEST SUB SWAP1 RETURN JUMPDEST PUSH4 0x4E487B71 PUSH1 0xE0 SHL DUP3 MSTORE DUP2 SWAP1 MSTORE PUSH1 0x24 SWAP1 REVERT JUMPDEST DUP1 REVERT JUMPDEST POP CALLVALUE PUSH2 0x70C JUMPI DUP3 PUSH1 0x3 NOT CALLDATASIZE ADD SLT PUSH2 0x70C JUMPI SLOAD SWAP1 MLOAD PUSH1 0x1 PUSH1 0x1 PUSH1 0xA0 SHL SUB SWAP1 SWAP2 AND DUP2 MSTORE PUSH1 0x20 SWAP2 POP RETURN JUMPDEST POP POP CALLVALUE PUSH2 0x739 JUMPI DUP2 PUSH1 0x3 NOT CALLDATASIZE ADD SLT PUSH2 0x739 JUMPI PUSH1 0x2 SLOAD SWAP1 MLOAD PUSH1 0x1 PUSH1 0x1 PUSH1 0xA0 SHL SUB SWAP1 SWAP2 AND DUP2 MSTORE PUSH1 0x20 SWAP1 RETURN JUMPDEST DUP3 DUP5 CALLVALUE PUSH2 0xA43 JUMPI PUSH2 0xAD1 SWAP1 PUSH2 0xAC2 PUSH1 0x20 PUSH2 0xAAF CALLDATASIZE PUSH2 0x1150 JUMP JUMPDEST SWAP4 DUP3 DUP8 MLOAD SWAP5 DUP4 DUP7 DUP1 SWAP6 MLOAD SWAP4 DUP5 SWAP3 ADD PUSH2 0x1196 JUMP JUMPDEST DUP3 ADD SWAP1 DUP2 MSTORE SUB ADD SWAP1 KECCAK256 SWAP1 PUSH2 0x11B7 JUMP JUMPDEST PUSH1 0xFF PUSH1 0x1 DUP3 SLOAD SWAP3 ADD SLOAD AND DUP3 MLOAD SWAP2 DUP3 MSTORE ISZERO ISZERO PUSH1 0x20 DUP3 ADD MSTORE RETURN JUMPDEST POP DUP3 SWAP1 CALLVALUE PUSH2 0x739 JUMPI PUSH2 0xAFA CALLDATASIZE PUSH2 0x1150 JUMP JUMPDEST SWAP2 DUP5 MLOAD SWAP1 DUP3 MLOAD SWAP2 PUSH1 0x20 SWAP1 PUSH1 0xFF DUP3 DUP7 ADD SWAP5 PUSH2 0xB15 DUP2 DUP5 DUP9 PUSH2 0x1196 JUMP JUMPDEST DUP3 ADD DUP9 DUP2 MSTORE PUSH2 0xB2E DUP4 DUP6 PUSH1 0x1 SWAP6 DUP7 SWAP5 SUB ADD SWAP1 KECCAK256 DUP10 PUSH2 0x11B7 JUMP JUMPDEST ADD SLOAD AND ISZERO PUSH2 0x1052 JUMPI PUSH1 0x3 SLOAD DUP9 MLOAD PUSH4 0xB3F6702D PUSH1 0xE0 SHL DUP2 MSTORE DUP5 DUP2 ADD DUP5 SWAP1 MSTORE PUSH1 0x24 SWAP6 PUSH1 0x1 PUSH1 0x1 PUSH1 0xA0 SHL SUB SWAP4 SWAP3 SWAP1 SWAP2 SWAP1 DUP5 AND SWAP1 DUP6 DUP2 DUP1 PUSH2 0xB6D DUP12 DUP3 ADD DUP14 PUSH2 0x12DF JUMP JUMPDEST SUB DUP2 DUP6 GAS STATICCALL SWAP1 DUP2 ISZERO PUSH2 0x1048 JUMPI SWAP1 DUP6 SWAP2 DUP13 SWAP2 PUSH2 0x102B JUMPI JUMPDEST POP AND CALLER EQ SWAP1 DUP2 ISZERO PUSH2 0xFBF JUMPI JUMPDEST POP ISZERO PUSH2 0xF41 JUMPI PUSH2 0xBB8 DUP11 MLOAD DUP6 DUP2 DUP11 MLOAD PUSH2 0xBA9 DUP2 DUP4 DUP9 PUSH2 0x1196 JUMP JUMPDEST DUP2 ADD DUP14 DUP2 MSTORE SUB ADD SWAP1 KECCAK256 DUP10 PUSH2 0x11B7 JUMP JUMPDEST SLOAD DUP1 ISZERO ISZERO DUP1 PUSH2 0xF1E JUMPI JUMPDEST ISZERO PUSH2 0xEDC JUMPI DUP11 MLOAD DUP6 DUP2 DUP11 MLOAD PUSH2 0xBD8 DUP2 DUP4 DUP9 PUSH2 0x1196 JUMP JUMPDEST DUP2 ADD DUP7 DUP2 MSTORE SUB ADD SWAP1 KECCAK256 SLOAD PUSH0 NOT SWAP2 SWAP1 DUP3 DUP2 ADD SWAP1 DUP2 GT PUSH2 0xECA JUMPI DUP7 DUP2 DUP12 DUP16 SWAP4 DUP6 SUB PUSH2 0xD8D JUMPI JUMPDEST POP POP POP SWAP1 POP MLOAD DUP6 DUP2 DUP11 MLOAD PUSH2 0xC11 DUP2 DUP4 DUP9 PUSH2 0x1196 JUMP JUMPDEST DUP2 ADD DUP7 DUP2 MSTORE SUB ADD SWAP1 KECCAK256 SWAP1 DUP2 SLOAD DUP1 ISZERO PUSH2 0xD7B JUMPI ADD SWAP1 PUSH2 0xC2F DUP3 DUP3 PUSH2 0x11DD JUMP JUMPDEST PUSH2 0xD6A JUMPI DUP12 SWAP5 SWAP4 PUSH2 0xC74 SWAP4 PUSH2 0xC65 SWAP4 DUP8 DUP5 PUSH2 0xC4B DUP13 SWAP7 SLOAD PUSH2 0x1206 JUMP JUMPDEST DUP1 PUSH2 0xD2F JUMPI JUMPDEST POP POP POP SSTORE DUP14 MLOAD DUP1 SWAP4 DUP2 SWAP3 DUP14 MLOAD SWAP3 DUP4 SWAP2 PUSH2 0x1196 JUMP JUMPDEST DUP2 ADD DUP7 DUP2 MSTORE SUB ADD SWAP1 KECCAK256 DUP10 PUSH2 0x11B7 JUMP JUMPDEST DUP3 DUP2 SSTORE ADD SSTORE PUSH1 0x2 SLOAD AND SWAP2 DUP3 EXTCODESIZE ISZERO PUSH2 0xD2B JUMPI SWAP2 PUSH2 0xCAC SWAP4 SWAP2 DUP8 DUP1 SWAP5 DUP11 MLOAD SWAP7 DUP8 SWAP6 DUP7 SWAP5 DUP6 SWAP4 PUSH4 0xDDC67CF5 PUSH1 0xE0 SHL DUP6 MSTORE DUP5 ADD MSTORE DUP3 ADD DUP11 PUSH2 0x12DF JUMP JUMPDEST SUB SWAP3 GAS CALL DUP1 ISZERO PUSH2 0xD21 JUMPI PUSH2 0xCEC JUMPI JUMPDEST POP PUSH2 0x388 PUSH32 0x224865BD608CF70D4E4284438240DF92D856CB3484C80036F9F252C3540EB2B8 SWAP4 SWAP5 MLOAD SWAP3 DUP4 SWAP3 DUP4 PUSH2 0x1394 JUMP JUMPDEST PUSH32 0x224865BD608CF70D4E4284438240DF92D856CB3484C80036F9F252C3540EB2B8 SWAP4 PUSH2 0xD1A PUSH2 0x388 SWAP3 PUSH2 0x10AF JUMP JUMPDEST SWAP4 POP PUSH2 0xCBB JUMP JUMPDEST DUP6 MLOAD RETURNDATASIZE DUP7 DUP3 RETURNDATACOPY RETURNDATASIZE SWAP1 REVERT JUMPDEST DUP7 DUP1 REVERT JUMPDEST DUP3 PUSH1 0x1F DUP3 GT PUSH1 0x1 EQ PUSH2 0xD47 JUMPI POP POP SSTORE JUMPDEST DUP8 PUSH0 DUP1 PUSH2 0xC51 JUMP JUMPDEST SWAP1 SWAP2 DUP1 DUP3 MSTORE PUSH2 0xD63 PUSH1 0x1F DUP10 DUP5 KECCAK256 SWAP5 ADD PUSH1 0x5 SHR DUP5 ADD DUP13 DUP6 ADD PUSH2 0x133B JUMP JUMPDEST SSTORE SSTORE PUSH2 0xD3F JUMP JUMPDEST PUSH4 0x4E487B71 PUSH1 0xE0 SHL DUP13 MSTORE DUP12 DUP9 MSTORE DUP9 DUP13 REVERT JUMPDEST PUSH4 0x4E487B71 PUSH1 0xE0 SHL DUP13 MSTORE PUSH1 0x31 DUP9 MSTORE DUP9 DUP13 REVERT JUMPDEST DUP3 PUSH2 0xDBA DUP7 SWAP4 PUSH2 0xDAC PUSH2 0xDD9 SWAP7 DUP12 DUP14 DUP11 MLOAD DUP1 SWAP5 DUP2 SWAP4 DUP11 MLOAD SWAP3 DUP4 SWAP2 PUSH2 0x1196 JUMP JUMPDEST DUP3 ADD SWAP1 DUP2 MSTORE SUB ADD SWAP1 KECCAK256 PUSH2 0x11DD JUMP JUMPDEST POP SWAP5 MLOAD DUP1 SWAP3 MLOAD PUSH2 0xDCB DUP2 DUP4 DUP13 PUSH2 0x1196 JUMP JUMPDEST DUP2 ADD DUP11 DUP2 MSTORE SUB ADD SWAP1 KECCAK256 PUSH2 0x11DD JUMP JUMPDEST PUSH2 0xEB9 JUMPI DUP13 DUP15 PUSH2 0xDEB DUP14 SWAP5 DUP12 SWAP5 PUSH2 0x13B9 JUMP JUMPDEST PUSH2 0xE2D DUP6 PUSH2 0xE1F DUP6 DUP11 DUP6 MLOAD DUP3 DUP2 DUP12 MLOAD PUSH2 0xE05 DUP2 DUP4 DUP8 PUSH2 0x1196 JUMP JUMPDEST DUP2 ADD DUP11 DUP2 MSTORE SUB ADD SWAP1 KECCAK256 SWAP9 DUP7 MLOAD SWAP4 DUP5 SWAP3 DUP4 SWAP3 MLOAD SWAP3 DUP4 SWAP2 PUSH2 0x1196 JUMP JUMPDEST DUP2 ADD DUP14 DUP2 MSTORE SUB ADD SWAP1 KECCAK256 PUSH2 0x11DD JUMP JUMPDEST POP SWAP1 MLOAD SWAP4 DUP3 DUP6 SWAP4 SWAP3 DUP1 SLOAD SWAP2 PUSH2 0xE41 DUP4 PUSH2 0x1206 JUMP JUMPDEST SWAP3 DUP13 DUP2 AND SWAP1 DUP2 ISZERO PUSH2 0xEA0 JUMPI POP PUSH1 0x1 EQ PUSH2 0xE69 JUMPI JUMPDEST POP POP POP DUP2 MSTORE SUB ADD SWAP1 KECCAK256 SSTORE DUP12 DUP12 DUP7 DUP3 DUP12 PUSH2 0xBFC JUMP JUMPDEST DUP1 SWAP3 SWAP4 SWAP5 POP MSTORE DUP10 DUP6 DUP3 KECCAK256 JUMPDEST DUP4 DUP4 LT PUSH2 0xE89 JUMPI POP POP POP DUP3 ADD SWAP1 DUP16 PUSH0 DUP2 PUSH2 0xE55 JUMP JUMPDEST DUP1 SLOAD DUP9 DUP5 ADD MSTORE DUP14 SWAP7 DUP9 SWAP7 POP SWAP1 SWAP3 ADD SWAP2 DUP12 SWAP2 ADD PUSH2 0xE74 JUMP JUMPDEST PUSH1 0xFF NOT AND DUP8 MSTORE POP POP POP DUP1 ISZERO ISZERO MUL DUP4 ADD SWAP2 POP DUP16 PUSH0 DUP2 PUSH2 0xE55 JUMP JUMPDEST PUSH4 0x4E487B71 PUSH1 0xE0 SHL DUP14 MSTORE DUP13 DUP10 MSTORE DUP10 DUP14 REVERT JUMPDEST PUSH4 0x4E487B71 PUSH1 0xE0 SHL DUP13 MSTORE PUSH1 0x11 DUP9 MSTORE DUP9 DUP13 REVERT JUMPDEST DUP11 MLOAD PUSH3 0x461BCD PUSH1 0xE5 SHL DUP2 MSTORE DUP1 DUP8 ADD DUP7 SWAP1 MSTORE PUSH1 0x1E DUP2 DUP10 ADD MSTORE PUSH32 0x496E76616C696420696E64657820666F7220756E656E726F6C6C6D656E740000 PUSH1 0x44 DUP3 ADD MSTORE PUSH1 0x64 SWAP1 REVERT JUMPDEST POP DUP11 MLOAD DUP6 DUP2 DUP11 MLOAD PUSH2 0xF30 DUP2 DUP4 DUP9 PUSH2 0x1196 JUMP JUMPDEST DUP2 ADD DUP7 DUP2 MSTORE SUB ADD SWAP1 KECCAK256 SLOAD DUP2 LT PUSH2 0xBC2 JUMP JUMPDEST DUP10 MLOAD PUSH3 0x461BCD PUSH1 0xE5 SHL DUP2 MSTORE DUP1 DUP7 ADD DUP6 SWAP1 MSTORE PUSH1 0x4D DUP2 DUP9 ADD MSTORE PUSH32 0x4F6E6C792074686520636F6D6D756E697479206F776E6572206F72204D656D62 PUSH1 0x44 DUP3 ADD MSTORE PUSH32 0x65722041636365737320436F6E74726163742063616E20756E656E726F6C6C20 PUSH1 0x64 DUP3 ADD MSTORE PUSH13 0x74686520636F6D6D756E697479 PUSH1 0x98 SHL PUSH1 0x84 DUP3 ADD MSTORE PUSH1 0xA4 SWAP1 REVERT JUMPDEST DUP12 MLOAD PUSH4 0xCBE02A9F PUSH1 0xE0 SHL DUP2 MSTORE DUP8 DUP2 ADD DUP8 SWAP1 MSTORE SWAP2 POP DUP6 SWAP1 DUP3 SWAP1 DUP2 DUP1 PUSH2 0xFE5 DUP13 DUP3 ADD DUP15 PUSH2 0x12DF JUMP JUMPDEST SUB SWAP2 GAS STATICCALL SWAP1 DUP2 ISZERO PUSH2 0x1021 JUMPI SWAP1 DUP5 SWAP2 DUP12 SWAP2 PUSH2 0x1004 JUMPI JUMPDEST POP AND CALLER EQ DUP12 PUSH2 0xB8F JUMP JUMPDEST PUSH2 0x101B SWAP2 POP DUP7 RETURNDATASIZE DUP9 GT PUSH2 0x6BF JUMPI PUSH2 0x6B0 DUP2 DUP4 PUSH2 0x10D6 JUMP JUMPDEST DUP13 PUSH2 0xFFA JUMP JUMPDEST DUP12 MLOAD RETURNDATASIZE DUP13 DUP3 RETURNDATACOPY RETURNDATASIZE SWAP1 REVERT JUMPDEST PUSH2 0x1042 SWAP2 POP DUP8 RETURNDATASIZE DUP10 GT PUSH2 0x6BF JUMPI PUSH2 0x6B0 DUP2 DUP4 PUSH2 0x10D6 JUMP JUMPDEST DUP14 PUSH2 0xB83 JUMP JUMPDEST DUP13 MLOAD RETURNDATASIZE DUP14 DUP3 RETURNDATACOPY RETURNDATASIZE SWAP1 REVERT JUMPDEST DUP8 MLOAD PUSH3 0x461BCD PUSH1 0xE5 SHL DUP2 MSTORE DUP1 DUP5 ADD DUP4 SWAP1 MSTORE PUSH1 0x31 PUSH1 0x24 DUP3 ADD MSTORE PUSH32 0x436F6D6D756E697479206973206E6F7420656E726F6C6C656420696E20746869 PUSH1 0x44 DUP3 ADD MSTORE PUSH17 0x7320706172616D657465722067726F757 PUSH1 0x7C SHL PUSH1 0x64 DUP3 ADD MSTORE PUSH1 0x84 SWAP1 REVERT JUMPDEST PUSH1 0x1 PUSH1 0x1 PUSH1 0x40 SHL SUB DUP2 GT PUSH2 0x10C2 JUMPI PUSH1 0x40 MSTORE JUMP JUMPDEST PUSH4 0x4E487B71 PUSH1 0xE0 SHL PUSH0 MSTORE PUSH1 0x41 PUSH1 0x4 MSTORE PUSH1 0x24 PUSH0 REVERT JUMPDEST SWAP1 PUSH1 0x1F DUP1 NOT SWAP2 ADD AND DUP2 ADD SWAP1 DUP2 LT PUSH1 0x1 PUSH1 0x1 PUSH1 0x40 SHL SUB DUP3 GT OR PUSH2 0x10C2 JUMPI PUSH1 0x40 MSTORE JUMP JUMPDEST DUP2 PUSH1 0x1F DUP3 ADD SLT ISZERO PUSH2 0x114C JUMPI DUP1 CALLDATALOAD SWAP1 PUSH1 0x1 PUSH1 0x1 PUSH1 0x40 SHL SUB DUP3 GT PUSH2 0x10C2 JUMPI PUSH1 0x40 MLOAD SWAP3 PUSH2 0x112B PUSH1 0x1F DUP5 ADD PUSH1 0x1F NOT AND PUSH1 0x20 ADD DUP6 PUSH2 0x10D6 JUMP JUMPDEST DUP3 DUP5 MSTORE PUSH1 0x20 DUP4 DUP4 ADD ADD GT PUSH2 0x114C JUMPI DUP2 PUSH0 SWAP3 PUSH1 0x20 DUP1 SWAP4 ADD DUP4 DUP7 ADD CALLDATACOPY DUP4 ADD ADD MSTORE SWAP1 JUMP JUMPDEST PUSH0 DUP1 REVERT JUMPDEST SWAP1 PUSH1 0x40 PUSH1 0x3 NOT DUP4 ADD SLT PUSH2 0x114C JUMPI PUSH1 0x1 PUSH1 0x1 PUSH1 0x40 SHL SUB PUSH1 0x4 CALLDATALOAD DUP2 DUP2 GT PUSH2 0x114C JUMPI DUP4 PUSH2 0x117C SWAP2 PUSH1 0x4 ADD PUSH2 0x10F7 JUMP JUMPDEST SWAP3 PUSH1 0x24 CALLDATALOAD SWAP2 DUP3 GT PUSH2 0x114C JUMPI PUSH2 0x1193 SWAP2 PUSH1 0x4 ADD PUSH2 0x10F7 JUMP JUMPDEST SWAP1 JUMP JUMPDEST PUSH0 JUMPDEST DUP4 DUP2 LT PUSH2 0x11A7 JUMPI POP POP PUSH0 SWAP2 ADD MSTORE JUMP JUMPDEST DUP2 DUP2 ADD MLOAD DUP4 DUP3 ADD MSTORE PUSH1 0x20 ADD PUSH2 0x1198 JUMP JUMPDEST PUSH1 0x20 SWAP1 PUSH2 0x11D1 SWAP3 DUP3 PUSH1 0x40 MLOAD SWAP5 DUP4 DUP7 DUP1 SWAP6 MLOAD SWAP4 DUP5 SWAP3 ADD PUSH2 0x1196 JUMP JUMPDEST DUP3 ADD SWAP1 DUP2 MSTORE SUB ADD SWAP1 KECCAK256 SWAP1 JUMP JUMPDEST DUP1 SLOAD DUP3 LT ISZERO PUSH2 0x11F2 JUMPI PUSH0 MSTORE PUSH1 0x20 PUSH0 KECCAK256 ADD SWAP1 PUSH0 SWAP1 JUMP JUMPDEST PUSH4 0x4E487B71 PUSH1 0xE0 SHL PUSH0 MSTORE PUSH1 0x32 PUSH1 0x4 MSTORE PUSH1 0x24 PUSH0 REVERT JUMPDEST SWAP1 PUSH1 0x1 DUP3 DUP2 SHR SWAP3 AND DUP1 ISZERO PUSH2 0x1234 JUMPI JUMPDEST PUSH1 0x20 DUP4 LT EQ PUSH2 0x1220 JUMPI JUMP JUMPDEST PUSH4 0x4E487B71 PUSH1 0xE0 SHL PUSH0 MSTORE PUSH1 0x22 PUSH1 0x4 MSTORE PUSH1 0x24 PUSH0 REVERT JUMPDEST SWAP2 PUSH1 0x7F AND SWAP2 PUSH2 0x1215 JUMP JUMPDEST SWAP1 PUSH1 0x40 MLOAD SWAP2 DUP3 PUSH0 DUP3 SLOAD SWAP3 PUSH2 0x1251 DUP5 PUSH2 0x1206 JUMP JUMPDEST SWAP1 DUP2 DUP5 MSTORE PUSH1 0x1 SWAP5 DUP6 DUP2 AND SWAP1 DUP2 PUSH0 EQ PUSH2 0x12BC JUMPI POP PUSH1 0x1 EQ PUSH2 0x127C JUMPI JUMPDEST POP POP PUSH2 0x127A SWAP3 POP SUB DUP4 PUSH2 0x10D6 JUMP JUMPDEST JUMP JUMPDEST SWAP1 SWAP4 SWAP2 POP PUSH0 MSTORE PUSH1 0x20 SWAP1 DUP2 PUSH0 KECCAK256 SWAP4 PUSH0 SWAP2 JUMPDEST DUP2 DUP4 LT PUSH2 0x12A4 JUMPI POP POP PUSH2 0x127A SWAP4 POP DUP3 ADD ADD PUSH0 DUP1 PUSH2 0x126C JUMP JUMPDEST DUP6 SLOAD DUP9 DUP5 ADD DUP6 ADD MSTORE SWAP5 DUP6 ADD SWAP5 DUP8 SWAP5 POP SWAP2 DUP4 ADD SWAP2 PUSH2 0x128C JUMP JUMPDEST SWAP2 POP POP PUSH2 0x127A SWAP5 POP PUSH1 0x20 SWAP3 POP PUSH1 0xFF NOT AND DUP3 DUP5 ADD MSTORE ISZERO ISZERO PUSH1 0x5 SHL DUP3 ADD ADD PUSH0 DUP1 PUSH2 0x126C JUMP JUMPDEST SWAP1 PUSH1 0x20 SWAP2 PUSH2 0x12F8 DUP2 MLOAD DUP1 SWAP3 DUP2 DUP6 MSTORE DUP6 DUP1 DUP7 ADD SWAP2 ADD PUSH2 0x1196 JUMP JUMPDEST PUSH1 0x1F ADD PUSH1 0x1F NOT AND ADD ADD SWAP1 JUMP JUMPDEST SWAP1 DUP2 PUSH1 0x20 SWAP2 SUB SLT PUSH2 0x114C JUMPI MLOAD DUP1 ISZERO ISZERO DUP2 SUB PUSH2 0x114C JUMPI SWAP1 JUMP JUMPDEST SWAP1 DUP2 PUSH1 0x20 SWAP2 SUB SLT PUSH2 0x114C JUMPI MLOAD PUSH1 0x1 PUSH1 0x1 PUSH1 0xA0 SHL SUB DUP2 AND DUP2 SUB PUSH2 0x114C JUMPI SWAP1 JUMP JUMPDEST DUP2 DUP2 LT PUSH2 0x1346 JUMPI POP POP JUMP JUMPDEST PUSH0 DUP2 SSTORE PUSH1 0x1 ADD PUSH2 0x133B JUMP JUMPDEST SWAP2 SWAP1 PUSH1 0x1F DUP2 GT PUSH2 0x1360 JUMPI POP POP POP JUMP JUMPDEST PUSH2 0x127A SWAP3 PUSH0 MSTORE PUSH1 0x20 PUSH0 KECCAK256 SWAP1 PUSH1 0x20 PUSH1 0x1F DUP5 ADD PUSH1 0x5 SHR DUP4 ADD SWAP4 LT PUSH2 0x138A JUMPI JUMPDEST PUSH1 0x1F ADD PUSH1 0x5 SHR ADD SWAP1 PUSH2 0x133B JUMP JUMPDEST SWAP1 SWAP2 POP DUP2 SWAP1 PUSH2 0x137D JUMP JUMPDEST SWAP1 SWAP2 PUSH2 0x13AB PUSH2 0x1193 SWAP4 PUSH1 0x40 DUP5 MSTORE PUSH1 0x40 DUP5 ADD SWAP1 PUSH2 0x12DF JUMP JUMPDEST SWAP2 PUSH1 0x20 DUP2 DUP5 SUB SWAP2 ADD MSTORE PUSH2 0x12DF JUMP JUMPDEST SWAP1 DUP1 DUP3 EQ PUSH2 0x148F JUMPI PUSH2 0x13CB DUP2 SLOAD PUSH2 0x1206 JUMP JUMPDEST SWAP1 PUSH1 0x1 PUSH1 0x1 PUSH1 0x40 SHL SUB DUP3 GT PUSH2 0x10C2 JUMPI DUP2 SWAP1 PUSH2 0x13F0 DUP3 PUSH2 0x13EA DUP7 SLOAD PUSH2 0x1206 JUMP JUMPDEST DUP7 PUSH2 0x1351 JUMP JUMPDEST PUSH0 SWAP1 PUSH1 0x1F DUP4 GT PUSH1 0x1 EQ PUSH2 0x1424 JUMPI PUSH0 SWAP3 PUSH2 0x1419 JUMPI JUMPDEST POP POP DUP2 PUSH1 0x1 SHL SWAP2 PUSH0 NOT SWAP1 PUSH1 0x3 SHL SHR NOT AND OR SWAP1 SSTORE JUMP JUMPDEST ADD SLOAD SWAP1 POP PUSH0 DUP1 PUSH2 0x1404 JUMP JUMPDEST DUP2 MSTORE PUSH1 0x20 DUP1 DUP3 KECCAK256 DUP6 DUP4 MSTORE DUP2 DUP4 KECCAK256 SWAP4 POP SWAP1 PUSH1 0x1F NOT DUP6 AND SWAP1 DUP4 SWAP1 JUMPDEST DUP3 DUP3 LT PUSH2 0x1476 JUMPI POP POP SWAP1 DUP5 PUSH1 0x1 SWAP6 SWAP5 SWAP4 SWAP3 LT PUSH2 0x145E JUMPI JUMPDEST POP POP POP DUP2 SHL ADD SWAP1 SSTORE JUMP JUMPDEST ADD SLOAD PUSH0 NOT PUSH1 0xF8 DUP5 PUSH1 0x3 SHL AND SHR NOT AND SWAP1 SSTORE PUSH0 DUP1 DUP1 PUSH2 0x1454 JUMP JUMPDEST DUP5 SWAP6 DUP2 SWAP3 SWAP6 DUP6 ADD SLOAD DUP2 SSTORE PUSH1 0x1 DUP1 SWAP2 ADD SWAP7 ADD SWAP5 ADD SWAP1 PUSH2 0x143D JUMP JUMPDEST POP POP JUMP JUMPDEST ISZERO PUSH2 0x149A JUMPI JUMP JUMPDEST PUSH1 0x40 MLOAD PUSH3 0x461BCD PUSH1 0xE5 SHL DUP2 MSTORE PUSH1 0x20 PUSH1 0x4 DUP3 ADD MSTORE PUSH1 0x22 PUSH1 0x24 DUP3 ADD MSTORE PUSH32 0x4F6E6C79206F776E65722063616E20706572666F726D20746869732061637469 PUSH1 0x44 DUP3 ADD MSTORE PUSH2 0x37B7 PUSH1 0xF1 SHL PUSH1 0x64 DUP3 ADD MSTORE PUSH1 0x84 SWAP1 REVERT INVALID LOG2 PUSH5 0x6970667358 0x22 SLT KECCAK256 MLOAD EXP KECCAK256 0xD PUSH1 0xE6 PUSH9 0xB434050BA0939EB12B CODESIZE 0xC3 0xAE SIGNEXTEND 0x4C DELEGATECALL LOG1 RETURNDATACOPY 0xBC CREATE PUSH4 0xBE2CEC74 0xA6 PUSH5 0x736F6C6343 STOP ADDMOD EQ STOP CALLER "},"methodIdentifiers":{"CommunitiesContract()":"c02c6416","CommunityParameterGroups(string,uint256)":"9eaccaf0","ParamGroupMapping(string,string)":"1aba3a83","enrollCommunityInParameterGroup(string,string)":"f68c5bf6","getCommunityParameterGroups(string)":"9f53b930","owner()":"8da5cb5b","registry()":"7b103999","setCommunitiesContract(address)":"ad2957ff","setParameterGroupRegistryContract(address)":"b00a4514","unenrollCommunityFromParameterGroup(string,string)":"0906ef4b"}}}}}