{"contracts/CommuntiesLane.sol":{"CommunitiesLane":{"abi":[{"inputs":[{"internalType":"address","name":"_fundContractAddress","type":"address"},{"internalType":"address","name":"_communitiesContractAddress","type":"address"},{"internalType":"address","name":"_laneRegistryContract","type":"address"}],"stateMutability":"nonpayable","type":"constructor"},{"anonymous":false,"inputs":[{"indexed":false,"internalType":"uint256","name":"proposalId","type":"uint256"},{"indexed":false,"internalType":"uint256","name":"newIndex","type":"uint256"}],"name":"IndexChange","type":"event"},{"anonymous":false,"inputs":[{"indexed":false,"internalType":"uint256","name":"proposalId","type":"uint256"}],"name":"ProposalRemoved","type":"event"},{"inputs":[{"internalType":"uint256","name":"proposalId","type":"uint256"}],"name":"appendToLane","outputs":[{"internalType":"uint256","name":"","type":"uint256"}],"stateMutability":"payable","type":"function"},{"inputs":[{"internalType":"bytes","name":"","type":"bytes"}],"name":"checkUpkeep","outputs":[{"internalType":"bool","name":"upkeepNeeded","type":"bool"},{"internalType":"bytes","name":"performData","type":"bytes"}],"stateMutability":"view","type":"function"},{"inputs":[],"name":"communitiesContract","outputs":[{"internalType":"address","name":"","type":"address"}],"stateMutability":"view","type":"function"},{"inputs":[],"name":"fundContract","outputs":[{"internalType":"contract FundContract","name":"","type":"address"}],"stateMutability":"view","type":"function"},{"inputs":[{"internalType":"uint256","name":"index","type":"uint256"}],"name":"getProposalByIndex","outputs":[{"internalType":"uint256","name":"","type":"uint256"}],"stateMutability":"view","type":"function"},{"inputs":[],"name":"getProposalCount","outputs":[{"internalType":"uint256","name":"","type":"uint256"}],"stateMutability":"view","type":"function"},{"inputs":[{"internalType":"uint256","name":"proposalId","type":"uint256"}],"name":"getProposalIndex","outputs":[{"internalType":"uint256","name":"","type":"uint256"}],"stateMutability":"view","type":"function"},{"inputs":[],"name":"laneId","outputs":[{"internalType":"uint256","name":"","type":"uint256"}],"stateMutability":"view","type":"function"},{"inputs":[],"name":"laneRegistryContract","outputs":[{"internalType":"address","name":"","type":"address"}],"stateMutability":"view","type":"function"},{"inputs":[],"name":"owner","outputs":[{"internalType":"address","name":"","type":"address"}],"stateMutability":"view","type":"function"},{"inputs":[{"internalType":"bytes","name":"_performData","type":"bytes"}],"name":"performUpkeep","outputs":[],"stateMutability":"nonpayable","type":"function"},{"inputs":[{"internalType":"uint256","name":"","type":"uint256"}],"name":"proposalIndex","outputs":[{"internalType":"uint256","name":"","type":"uint256"}],"stateMutability":"view","type":"function"},{"inputs":[{"internalType":"uint256","name":"","type":"uint256"}],"name":"proposals","outputs":[{"internalType":"uint256","name":"","type":"uint256"}],"stateMutability":"view","type":"function"},{"inputs":[],"name":"registry","outputs":[{"internalType":"address","name":"","type":"address"}],"stateMutability":"view","type":"function"},{"inputs":[{"internalType":"uint256","name":"proposalId","type":"uint256"}],"name":"removeProposal","outputs":[],"stateMutability":"nonpayable","type":"function"},{"inputs":[{"internalType":"address","name":"_fundContractAddress","type":"address"}],"name":"setFundContract","outputs":[],"stateMutability":"nonpayable","type":"function"},{"inputs":[{"internalType":"address","name":"_registry","type":"address"}],"name":"setRegistry","outputs":[],"stateMutability":"nonpayable","type":"function"}],"evm":{"bytecode":{"linkReferences":{},"object":"6080806040523461010657606081610c79803803809161001f828561010a565b833981010312610106576020816100365f93610141565b9061004e6040610047858401610141565b9201610141565b60018060a01b0319913383600254161760025560018060a01b0391828092168460045416176004551692838360055416176005551690600754161760075560246040518094819362034db960e61b83523060048401525af19081156100fb575f916100c7575b50600655604051610b2390816101568239f35b906020823d82116100f3575b816100e06020938361010a565b810103126100f05750515f6100b4565b80fd5b3d91506100d3565b6040513d5f823e3d90fd5b5f80fd5b601f909101601f19168101906001600160401b0382119082101761012d57604052565b634e487b7160e01b5f52604160045260245ffd5b51906001600160a01b03821682036101065756fe60406080815260049081361015610014575f80fd5b5f91823560e01c908163013cf08b14610812578163362681e9146107ea57816337d1d3891461077e5781633eab6bac146107555781634585e33b1461064c5781634ce4e6c7146105cb57816359144baa1461057e5781635c61c853146105275781636e04ff0d1461039c5781637b103999146103735781638da5cb5b1461034a578163a91ee0dc146102fd578163a993983b1461016c578163b14af44d1461014057508063bd097e2114610118578063c08cc02d146100fc5763da5c2dfc146100db575f80fd5b346100f857816003193601126100f8576020906006549051908152f35b5080fd5b50346100f857816003193601126100f857602091549051908152f35b50346100f857816003193601126100f85760075490516001600160a01b039091168152602090f35b9050346101685782600319360112610168575490516001600160a01b03909116815260209150f35b8280fd5b8284602092836003193601126100f8576005548135906001600160a01b0390811633036102c7578560249160075416865192838092633de5599d60e11b8252308883015234905af19081156102bd578491610283575b5015610248578254600160401b81101561023557816101e982600161020194018755610838565b90919082549060031b91821b915f19901b1916179055565b82545f19810192908311610222575082526001845282822055549051908152f35b634e487b7160e01b845260119052602483fd5b634e487b7160e01b845260418352602484fd5b835162461bcd60e51b81528083018690526015602482015274155c1ad9595c081c185e5b595b9d0819985a5b1959605a1b6044820152606490fd5b90508581813d83116102b6575b61029a8183610902565b810103126102b2575180151581036102b257866101c2565b8380fd5b503d610290565b85513d86823e3d90fd5b845162461bcd60e51b8152808401879052601060248201526f4e6f742074686520726567697374727960801b6044820152606490fd5b8390346100f85760203660031901126100f857356001600160a01b03818116918290036101685761033390600254163314610aa8565b600580546001600160a01b03191691909117905580f35b5050346100f857816003193601126100f85760025490516001600160a01b039091168152602090f35b5050346100f857816003193601126100f85760035490516001600160a01b039091168152602090f35b90508234610524576103ad3661088c565b505080548254919384928392906001600160a01b031683805b8381106104545750505050805192602095868501528584528184019484861067ffffffffffffffff8711176104415750848252151584526060830152815190816080840152805b82811061042d575082820160a00152601f01601f19168101036060019150f35b808691850160a0838201519101520161040d565b604190634e487b7160e01b5f525260245ffd5b61045d81610838565b90549060031b1c855190631798788360e11b8252808a8301526020918281602481895afa92831561051a5789936104e6575b505042821115806104d4575b6104c5575b50505f1981146104b2576001016103c6565b634e487b7160e01b865260118852602486fd5b995060019750915089806104a0565b50838211158061049b5750831561049b565b9080929350813d8311610513575b6104fe8183610902565b8101031261050f5751908b8061048f565b8780fd5b503d6104f4565b88513d8b823e3d90fd5b80fd5b8383346100f85760203660031901126100f857610560816020943593848152600186522054925f19841490811591610566575b50610924565b51908152f35b9050610570610864565b90549060031b1c148561055a565b8390346100f85760203660031901126100f857356001600160a01b0381811691829003610168576105b490600254163314610aa8565b600780546001600160a01b03191691909117905580f35b9190503461016857602036600319011261016857600254336001600160a01b039182161490811561063f575b501561060b5750610608903561096a565b80f35b906020606492519162461bcd60e51b8352820152600e60248201526d139bdd08185d5d1a1bdc9a5e995960921b6044820152fd5b905082541633145f6105f7565b839150346100f85761065d3661088c565b602082828197940103126102b25782546001600160a01b0391908216803b1561073257868691602083604489878a5198899788968794634585e33b60e01b8652850152816024850152848401378181018301849052601f01601f191681010301925af1801561074b57610736575b506106d784953561096a565b6005541691600654845493803b156107325785928360449286519788958694632e6cfb9160e11b865285015260248401525af190811561072957506107195750f35b610722906108da565b6105245780f35b513d84823e3d90fd5b8580fd5b936107446106d796956108da565b93946106cb565b83513d87823e3d90fd5b5050346100f857816003193601126100f85760055490516001600160a01b039091168152602090f35b839150346100f85760203660031901126100f857803591548210156107b7576020836107a984610838565b91905490519160031b1c8152f35b606490602084519162461bcd60e51b8352820152600d60248201526c092dcecc2d8d2c840d2dcc8caf609b1b6044820152fd5b9050346101685760203660031901126101685760209282913581526001845220549051908152f35b905034610168576020366003190112610168573591805483101561052457506107a96020925b905f9182548110156108505782805260208320019190565b634e487b7160e01b83526032600452602483fd5b5f9081541561087857818052602082209190565b634e487b7160e01b82526032600452602482fd5b9060206003198301126108d65760043567ffffffffffffffff928382116108d657806023830112156108d65781600401359384116108d657602484830101116108d6576024019190565b5f80fd5b67ffffffffffffffff81116108ee57604052565b634e487b7160e01b5f52604160045260245ffd5b90601f8019910116810190811067ffffffffffffffff8211176108ee57604052565b1561092b57565b60405162461bcd60e51b8152602060048201526017602482015276141c9bdc1bdcd85b08191bd95cc81b9bdd08195e1a5cdd604a1b6044820152606490fd5b5f818152600160205260408082205490915f1991828114801590610a8c575b61099290610924565b8154838101908111610a7857806109a98692610838565b90549060031b1c908303610a29575b50505080548015610a1557918360209492827fd412ca680e6dcd7bc731a6c8d9ad74bea65b8d0dd85d47d29377d99c53326cf79795016109f781610838565b8582549160031b1b19169055815584815260018652205551908152a1565b634e487b7160e01b82526031600452602482fd5b82610a58826101e97ff041f52db3fd2f56a979d9dd319aa6a6e399c198410349cf154eb4b4568d7daa96610838565b8185526001602052808386205582519182526020820152a15f83816109b8565b634e487b7160e01b83526011600452602483fd5b5061099285610a99610864565b90549060031b1c149050610989565b15610aaf57565b60405162461bcd60e51b81526020600482015260166024820152752737ba103a34329031b7b73a3930b1ba1037bbb732b960511b6044820152606490fdfea2646970667358221220f90e7dc3bc7de9a286856d197ffc36381fdad7e02d2e760966e79db1ba2be46664736f6c63430008140033","opcodes":"PUSH1 0x80 DUP1 PUSH1 0x40 MSTORE CALLVALUE PUSH2 0x106 JUMPI PUSH1 0x60 DUP2 PUSH2 0xC79 DUP1 CODESIZE SUB DUP1 SWAP2 PUSH2 0x1F DUP3 DUP6 PUSH2 0x10A JUMP JUMPDEST DUP4 CODECOPY DUP2 ADD SUB SLT PUSH2 0x106 JUMPI PUSH1 0x20 DUP2 PUSH2 0x36 PUSH0 SWAP4 PUSH2 0x141 JUMP JUMPDEST SWAP1 PUSH2 0x4E PUSH1 0x40 PUSH2 0x47 DUP6 DUP5 ADD PUSH2 0x141 JUMP JUMPDEST SWAP3 ADD PUSH2 0x141 JUMP JUMPDEST PUSH1 0x1 DUP1 PUSH1 0xA0 SHL SUB NOT SWAP2 CALLER DUP4 PUSH1 0x2 SLOAD AND OR PUSH1 0x2 SSTORE PUSH1 0x1 DUP1 PUSH1 0xA0 SHL SUB SWAP2 DUP3 DUP1 SWAP3 AND DUP5 PUSH1 0x4 SLOAD AND OR PUSH1 0x4 SSTORE AND SWAP3 DUP4 DUP4 PUSH1 0x5 SLOAD AND OR PUSH1 0x5 SSTORE AND SWAP1 PUSH1 0x7 SLOAD AND OR PUSH1 0x7 SSTORE PUSH1 0x24 PUSH1 0x40 MLOAD DUP1 SWAP5 DUP2 SWAP4 PUSH3 0x34DB9 PUSH1 0xE6 SHL DUP4 MSTORE ADDRESS PUSH1 0x4 DUP5 ADD MSTORE GAS CALL SWAP1 DUP2 ISZERO PUSH2 0xFB JUMPI PUSH0 SWAP2 PUSH2 0xC7 JUMPI JUMPDEST POP PUSH1 0x6 SSTORE PUSH1 0x40 MLOAD PUSH2 0xB23 SWAP1 DUP2 PUSH2 0x156 DUP3 CODECOPY RETURN JUMPDEST SWAP1 PUSH1 0x20 DUP3 RETURNDATASIZE DUP3 GT PUSH2 0xF3 JUMPI JUMPDEST DUP2 PUSH2 0xE0 PUSH1 0x20 SWAP4 DUP4 PUSH2 0x10A JUMP JUMPDEST DUP2 ADD SUB SLT PUSH2 0xF0 JUMPI POP MLOAD PUSH0 PUSH2 0xB4 JUMP JUMPDEST DUP1 REVERT JUMPDEST RETURNDATASIZE SWAP2 POP PUSH2 0xD3 JUMP JUMPDEST PUSH1 0x40 MLOAD RETURNDATASIZE PUSH0 DUP3 RETURNDATACOPY RETURNDATASIZE SWAP1 REVERT JUMPDEST PUSH0 DUP1 REVERT JUMPDEST PUSH1 0x1F SWAP1 SWAP2 ADD PUSH1 0x1F NOT AND DUP2 ADD SWAP1 PUSH1 0x1 PUSH1 0x1 PUSH1 0x40 SHL SUB DUP3 GT SWAP1 DUP3 LT OR PUSH2 0x12D JUMPI PUSH1 0x40 MSTORE JUMP JUMPDEST PUSH4 0x4E487B71 PUSH1 0xE0 SHL PUSH0 MSTORE PUSH1 0x41 PUSH1 0x4 MSTORE PUSH1 0x24 PUSH0 REVERT JUMPDEST MLOAD SWAP1 PUSH1 0x1 PUSH1 0x1 PUSH1 0xA0 SHL SUB DUP3 AND DUP3 SUB PUSH2 0x106 JUMPI JUMP INVALID PUSH1 0x40 PUSH1 0x80 DUP2 MSTORE PUSH1 0x4 SWAP1 DUP2 CALLDATASIZE LT ISZERO PUSH2 0x14 JUMPI PUSH0 DUP1 REVERT JUMPDEST PUSH0 SWAP2 DUP3 CALLDATALOAD PUSH1 0xE0 SHR SWAP1 DUP2 PUSH4 0x13CF08B EQ PUSH2 0x812 JUMPI DUP2 PUSH4 0x362681E9 EQ PUSH2 0x7EA JUMPI DUP2 PUSH4 0x37D1D389 EQ PUSH2 0x77E JUMPI DUP2 PUSH4 0x3EAB6BAC EQ PUSH2 0x755 JUMPI DUP2 PUSH4 0x4585E33B EQ PUSH2 0x64C JUMPI DUP2 PUSH4 0x4CE4E6C7 EQ PUSH2 0x5CB JUMPI DUP2 PUSH4 0x59144BAA EQ PUSH2 0x57E JUMPI DUP2 PUSH4 0x5C61C853 EQ PUSH2 0x527 JUMPI DUP2 PUSH4 0x6E04FF0D EQ PUSH2 0x39C JUMPI DUP2 PUSH4 0x7B103999 EQ PUSH2 0x373 JUMPI DUP2 PUSH4 0x8DA5CB5B EQ PUSH2 0x34A JUMPI DUP2 PUSH4 0xA91EE0DC EQ PUSH2 0x2FD JUMPI DUP2 PUSH4 0xA993983B EQ PUSH2 0x16C JUMPI DUP2 PUSH4 0xB14AF44D EQ PUSH2 0x140 JUMPI POP DUP1 PUSH4 0xBD097E21 EQ PUSH2 0x118 JUMPI DUP1 PUSH4 0xC08CC02D EQ PUSH2 0xFC JUMPI PUSH4 0xDA5C2DFC EQ PUSH2 0xDB JUMPI PUSH0 DUP1 REVERT JUMPDEST CALLVALUE PUSH2 0xF8 JUMPI DUP2 PUSH1 0x3 NOT CALLDATASIZE ADD SLT PUSH2 0xF8 JUMPI PUSH1 0x20 SWAP1 PUSH1 0x6 SLOAD SWAP1 MLOAD SWAP1 DUP2 MSTORE RETURN JUMPDEST POP DUP1 REVERT JUMPDEST POP CALLVALUE PUSH2 0xF8 JUMPI DUP2 PUSH1 0x3 NOT CALLDATASIZE ADD SLT PUSH2 0xF8 JUMPI PUSH1 0x20 SWAP2 SLOAD SWAP1 MLOAD SWAP1 DUP2 MSTORE RETURN JUMPDEST POP CALLVALUE PUSH2 0xF8 JUMPI DUP2 PUSH1 0x3 NOT CALLDATASIZE ADD SLT PUSH2 0xF8 JUMPI PUSH1 0x7 SLOAD SWAP1 MLOAD PUSH1 0x1 PUSH1 0x1 PUSH1 0xA0 SHL SUB SWAP1 SWAP2 AND DUP2 MSTORE PUSH1 0x20 SWAP1 RETURN JUMPDEST SWAP1 POP CALLVALUE PUSH2 0x168 JUMPI DUP3 PUSH1 0x3 NOT CALLDATASIZE ADD SLT PUSH2 0x168 JUMPI SLOAD SWAP1 MLOAD PUSH1 0x1 PUSH1 0x1 PUSH1 0xA0 SHL SUB SWAP1 SWAP2 AND DUP2 MSTORE PUSH1 0x20 SWAP2 POP RETURN JUMPDEST DUP3 DUP1 REVERT JUMPDEST DUP3 DUP5 PUSH1 0x20 SWAP3 DUP4 PUSH1 0x3 NOT CALLDATASIZE ADD SLT PUSH2 0xF8 JUMPI PUSH1 0x5 SLOAD DUP2 CALLDATALOAD SWAP1 PUSH1 0x1 PUSH1 0x1 PUSH1 0xA0 SHL SUB SWAP1 DUP2 AND CALLER SUB PUSH2 0x2C7 JUMPI DUP6 PUSH1 0x24 SWAP2 PUSH1 0x7 SLOAD AND DUP7 MLOAD SWAP3 DUP4 DUP1 SWAP3 PUSH4 0x3DE5599D PUSH1 0xE1 SHL DUP3 MSTORE ADDRESS DUP9 DUP4 ADD MSTORE CALLVALUE SWAP1 GAS CALL SWAP1 DUP2 ISZERO PUSH2 0x2BD JUMPI DUP5 SWAP2 PUSH2 0x283 JUMPI JUMPDEST POP ISZERO PUSH2 0x248 JUMPI DUP3 SLOAD PUSH1 0x1 PUSH1 0x40 SHL DUP2 LT ISZERO PUSH2 0x235 JUMPI DUP2 PUSH2 0x1E9 DUP3 PUSH1 0x1 PUSH2 0x201 SWAP5 ADD DUP8 SSTORE PUSH2 0x838 JUMP JUMPDEST SWAP1 SWAP2 SWAP1 DUP3 SLOAD SWAP1 PUSH1 0x3 SHL SWAP2 DUP3 SHL SWAP2 PUSH0 NOT SWAP1 SHL NOT AND OR SWAP1 SSTORE JUMP JUMPDEST DUP3 SLOAD PUSH0 NOT DUP2 ADD SWAP3 SWAP1 DUP4 GT PUSH2 0x222 JUMPI POP DUP3 MSTORE PUSH1 0x1 DUP5 MSTORE DUP3 DUP3 KECCAK256 SSTORE SLOAD SWAP1 MLOAD SWAP1 DUP2 MSTORE RETURN JUMPDEST PUSH4 0x4E487B71 PUSH1 0xE0 SHL DUP5 MSTORE PUSH1 0x11 SWAP1 MSTORE PUSH1 0x24 DUP4 REVERT JUMPDEST PUSH4 0x4E487B71 PUSH1 0xE0 SHL DUP5 MSTORE PUSH1 0x41 DUP4 MSTORE PUSH1 0x24 DUP5 REVERT JUMPDEST DUP4 MLOAD PUSH3 0x461BCD PUSH1 0xE5 SHL DUP2 MSTORE DUP1 DUP4 ADD DUP7 SWAP1 MSTORE PUSH1 0x15 PUSH1 0x24 DUP3 ADD MSTORE PUSH21 0x155C1AD9595C081C185E5B595B9D0819985A5B1959 PUSH1 0x5A SHL PUSH1 0x44 DUP3 ADD MSTORE PUSH1 0x64 SWAP1 REVERT JUMPDEST SWAP1 POP DUP6 DUP2 DUP2 RETURNDATASIZE DUP4 GT PUSH2 0x2B6 JUMPI JUMPDEST PUSH2 0x29A DUP2 DUP4 PUSH2 0x902 JUMP JUMPDEST DUP2 ADD SUB SLT PUSH2 0x2B2 JUMPI MLOAD DUP1 ISZERO ISZERO DUP2 SUB PUSH2 0x2B2 JUMPI DUP7 PUSH2 0x1C2 JUMP JUMPDEST DUP4 DUP1 REVERT JUMPDEST POP RETURNDATASIZE PUSH2 0x290 JUMP JUMPDEST DUP6 MLOAD RETURNDATASIZE DUP7 DUP3 RETURNDATACOPY RETURNDATASIZE SWAP1 REVERT JUMPDEST DUP5 MLOAD PUSH3 0x461BCD PUSH1 0xE5 SHL DUP2 MSTORE DUP1 DUP5 ADD DUP8 SWAP1 MSTORE PUSH1 0x10 PUSH1 0x24 DUP3 ADD MSTORE PUSH16 0x4E6F7420746865207265676973747279 PUSH1 0x80 SHL PUSH1 0x44 DUP3 ADD MSTORE PUSH1 0x64 SWAP1 REVERT JUMPDEST DUP4 SWAP1 CALLVALUE PUSH2 0xF8 JUMPI PUSH1 0x20 CALLDATASIZE PUSH1 0x3 NOT ADD SLT PUSH2 0xF8 JUMPI CALLDATALOAD PUSH1 0x1 PUSH1 0x1 PUSH1 0xA0 SHL SUB DUP2 DUP2 AND SWAP2 DUP3 SWAP1 SUB PUSH2 0x168 JUMPI PUSH2 0x333 SWAP1 PUSH1 0x2 SLOAD AND CALLER EQ PUSH2 0xAA8 JUMP JUMPDEST PUSH1 0x5 DUP1 SLOAD PUSH1 0x1 PUSH1 0x1 PUSH1 0xA0 SHL SUB NOT AND SWAP2 SWAP1 SWAP2 OR SWAP1 SSTORE DUP1 RETURN JUMPDEST POP POP CALLVALUE PUSH2 0xF8 JUMPI DUP2 PUSH1 0x3 NOT CALLDATASIZE ADD SLT PUSH2 0xF8 JUMPI PUSH1 0x2 SLOAD SWAP1 MLOAD PUSH1 0x1 PUSH1 0x1 PUSH1 0xA0 SHL SUB SWAP1 SWAP2 AND DUP2 MSTORE PUSH1 0x20 SWAP1 RETURN JUMPDEST POP POP CALLVALUE PUSH2 0xF8 JUMPI DUP2 PUSH1 0x3 NOT CALLDATASIZE ADD SLT PUSH2 0xF8 JUMPI PUSH1 0x3 SLOAD SWAP1 MLOAD PUSH1 0x1 PUSH1 0x1 PUSH1 0xA0 SHL SUB SWAP1 SWAP2 AND DUP2 MSTORE PUSH1 0x20 SWAP1 RETURN JUMPDEST SWAP1 POP DUP3 CALLVALUE PUSH2 0x524 JUMPI PUSH2 0x3AD CALLDATASIZE PUSH2 0x88C JUMP JUMPDEST POP POP DUP1 SLOAD DUP3 SLOAD SWAP2 SWAP4 DUP5 SWAP3 DUP4 SWAP3 SWAP1 PUSH1 0x1 PUSH1 0x1 PUSH1 0xA0 SHL SUB AND DUP4 DUP1 JUMPDEST DUP4 DUP2 LT PUSH2 0x454 JUMPI POP POP POP POP DUP1 MLOAD SWAP3 PUSH1 0x20 SWAP6 DUP7 DUP6 ADD MSTORE DUP6 DUP5 MSTORE DUP2 DUP5 ADD SWAP5 DUP5 DUP7 LT PUSH8 0xFFFFFFFFFFFFFFFF DUP8 GT OR PUSH2 0x441 JUMPI POP DUP5 DUP3 MSTORE ISZERO ISZERO DUP5 MSTORE PUSH1 0x60 DUP4 ADD MSTORE DUP2 MLOAD SWAP1 DUP2 PUSH1 0x80 DUP5 ADD MSTORE DUP1 JUMPDEST DUP3 DUP2 LT PUSH2 0x42D JUMPI POP DUP3 DUP3 ADD PUSH1 0xA0 ADD MSTORE PUSH1 0x1F ADD PUSH1 0x1F NOT AND DUP2 ADD SUB PUSH1 0x60 ADD SWAP2 POP RETURN JUMPDEST DUP1 DUP7 SWAP2 DUP6 ADD PUSH1 0xA0 DUP4 DUP3 ADD MLOAD SWAP2 ADD MSTORE ADD PUSH2 0x40D JUMP JUMPDEST PUSH1 0x41 SWAP1 PUSH4 0x4E487B71 PUSH1 0xE0 SHL PUSH0 MSTORE MSTORE PUSH1 0x24 PUSH0 REVERT JUMPDEST PUSH2 0x45D DUP2 PUSH2 0x838 JUMP JUMPDEST SWAP1 SLOAD SWAP1 PUSH1 0x3 SHL SHR DUP6 MLOAD SWAP1 PUSH4 0x17987883 PUSH1 0xE1 SHL DUP3 MSTORE DUP1 DUP11 DUP4 ADD MSTORE PUSH1 0x20 SWAP2 DUP3 DUP2 PUSH1 0x24 DUP2 DUP10 GAS STATICCALL SWAP3 DUP4 ISZERO PUSH2 0x51A JUMPI DUP10 SWAP4 PUSH2 0x4E6 JUMPI JUMPDEST POP POP TIMESTAMP DUP3 GT ISZERO DUP1 PUSH2 0x4D4 JUMPI JUMPDEST PUSH2 0x4C5 JUMPI JUMPDEST POP POP PUSH0 NOT DUP2 EQ PUSH2 0x4B2 JUMPI PUSH1 0x1 ADD PUSH2 0x3C6 JUMP JUMPDEST PUSH4 0x4E487B71 PUSH1 0xE0 SHL DUP7 MSTORE PUSH1 0x11 DUP9 MSTORE PUSH1 0x24 DUP7 REVERT JUMPDEST SWAP10 POP PUSH1 0x1 SWAP8 POP SWAP2 POP DUP10 DUP1 PUSH2 0x4A0 JUMP JUMPDEST POP DUP4 DUP3 GT ISZERO DUP1 PUSH2 0x49B JUMPI POP DUP4 ISZERO PUSH2 0x49B JUMP JUMPDEST SWAP1 DUP1 SWAP3 SWAP4 POP DUP2 RETURNDATASIZE DUP4 GT PUSH2 0x513 JUMPI JUMPDEST PUSH2 0x4FE DUP2 DUP4 PUSH2 0x902 JUMP JUMPDEST DUP2 ADD SUB SLT PUSH2 0x50F JUMPI MLOAD SWAP1 DUP12 DUP1 PUSH2 0x48F JUMP JUMPDEST DUP8 DUP1 REVERT JUMPDEST POP RETURNDATASIZE PUSH2 0x4F4 JUMP JUMPDEST DUP9 MLOAD RETURNDATASIZE DUP12 DUP3 RETURNDATACOPY RETURNDATASIZE SWAP1 REVERT JUMPDEST DUP1 REVERT JUMPDEST DUP4 DUP4 CALLVALUE PUSH2 0xF8 JUMPI PUSH1 0x20 CALLDATASIZE PUSH1 0x3 NOT ADD SLT PUSH2 0xF8 JUMPI PUSH2 0x560 DUP2 PUSH1 0x20 SWAP5 CALLDATALOAD SWAP4 DUP5 DUP2 MSTORE PUSH1 0x1 DUP7 MSTORE KECCAK256 SLOAD SWAP3 PUSH0 NOT DUP5 EQ SWAP1 DUP2 ISZERO SWAP2 PUSH2 0x566 JUMPI JUMPDEST POP PUSH2 0x924 JUMP JUMPDEST MLOAD SWAP1 DUP2 MSTORE RETURN JUMPDEST SWAP1 POP PUSH2 0x570 PUSH2 0x864 JUMP JUMPDEST SWAP1 SLOAD SWAP1 PUSH1 0x3 SHL SHR EQ DUP6 PUSH2 0x55A JUMP JUMPDEST DUP4 SWAP1 CALLVALUE PUSH2 0xF8 JUMPI PUSH1 0x20 CALLDATASIZE PUSH1 0x3 NOT ADD SLT PUSH2 0xF8 JUMPI CALLDATALOAD PUSH1 0x1 PUSH1 0x1 PUSH1 0xA0 SHL SUB DUP2 DUP2 AND SWAP2 DUP3 SWAP1 SUB PUSH2 0x168 JUMPI PUSH2 0x5B4 SWAP1 PUSH1 0x2 SLOAD AND CALLER EQ PUSH2 0xAA8 JUMP JUMPDEST PUSH1 0x7 DUP1 SLOAD PUSH1 0x1 PUSH1 0x1 PUSH1 0xA0 SHL SUB NOT AND SWAP2 SWAP1 SWAP2 OR SWAP1 SSTORE DUP1 RETURN JUMPDEST SWAP2 SWAP1 POP CALLVALUE PUSH2 0x168 JUMPI PUSH1 0x20 CALLDATASIZE PUSH1 0x3 NOT ADD SLT PUSH2 0x168 JUMPI PUSH1 0x2 SLOAD CALLER PUSH1 0x1 PUSH1 0x1 PUSH1 0xA0 SHL SUB SWAP2 DUP3 AND EQ SWAP1 DUP2 ISZERO PUSH2 0x63F JUMPI JUMPDEST POP ISZERO PUSH2 0x60B JUMPI POP PUSH2 0x608 SWAP1 CALLDATALOAD PUSH2 0x96A JUMP JUMPDEST DUP1 RETURN JUMPDEST SWAP1 PUSH1 0x20 PUSH1 0x64 SWAP3 MLOAD SWAP2 PUSH3 0x461BCD PUSH1 0xE5 SHL DUP4 MSTORE DUP3 ADD MSTORE PUSH1 0xE PUSH1 0x24 DUP3 ADD MSTORE PUSH14 0x139BDD08185D5D1A1BDC9A5E9959 PUSH1 0x92 SHL PUSH1 0x44 DUP3 ADD MSTORE REVERT JUMPDEST SWAP1 POP DUP3 SLOAD AND CALLER EQ PUSH0 PUSH2 0x5F7 JUMP JUMPDEST DUP4 SWAP2 POP CALLVALUE PUSH2 0xF8 JUMPI PUSH2 0x65D CALLDATASIZE PUSH2 0x88C JUMP JUMPDEST PUSH1 0x20 DUP3 DUP3 DUP2 SWAP8 SWAP5 ADD SUB SLT PUSH2 0x2B2 JUMPI DUP3 SLOAD PUSH1 0x1 PUSH1 0x1 PUSH1 0xA0 SHL SUB SWAP2 SWAP1 DUP3 AND DUP1 EXTCODESIZE ISZERO PUSH2 0x732 JUMPI DUP7 DUP7 SWAP2 PUSH1 0x20 DUP4 PUSH1 0x44 DUP10 DUP8 DUP11 MLOAD SWAP9 DUP10 SWAP8 DUP9 SWAP7 DUP8 SWAP5 PUSH4 0x4585E33B PUSH1 0xE0 SHL DUP7 MSTORE DUP6 ADD MSTORE DUP2 PUSH1 0x24 DUP6 ADD MSTORE DUP5 DUP5 ADD CALLDATACOPY DUP2 DUP2 ADD DUP4 ADD DUP5 SWAP1 MSTORE PUSH1 0x1F ADD PUSH1 0x1F NOT AND DUP2 ADD SUB ADD SWAP3 GAS CALL DUP1 ISZERO PUSH2 0x74B JUMPI PUSH2 0x736 JUMPI JUMPDEST POP PUSH2 0x6D7 DUP5 SWAP6 CALLDATALOAD PUSH2 0x96A JUMP JUMPDEST PUSH1 0x5 SLOAD AND SWAP2 PUSH1 0x6 SLOAD DUP5 SLOAD SWAP4 DUP1 EXTCODESIZE ISZERO PUSH2 0x732 JUMPI DUP6 SWAP3 DUP4 PUSH1 0x44 SWAP3 DUP7 MLOAD SWAP8 DUP9 SWAP6 DUP7 SWAP5 PUSH4 0x2E6CFB91 PUSH1 0xE1 SHL DUP7 MSTORE DUP6 ADD MSTORE PUSH1 0x24 DUP5 ADD MSTORE GAS CALL SWAP1 DUP2 ISZERO PUSH2 0x729 JUMPI POP PUSH2 0x719 JUMPI POP RETURN JUMPDEST PUSH2 0x722 SWAP1 PUSH2 0x8DA JUMP JUMPDEST PUSH2 0x524 JUMPI DUP1 RETURN JUMPDEST MLOAD RETURNDATASIZE DUP5 DUP3 RETURNDATACOPY RETURNDATASIZE SWAP1 REVERT JUMPDEST DUP6 DUP1 REVERT JUMPDEST SWAP4 PUSH2 0x744 PUSH2 0x6D7 SWAP7 SWAP6 PUSH2 0x8DA JUMP JUMPDEST SWAP4 SWAP5 PUSH2 0x6CB JUMP JUMPDEST DUP4 MLOAD RETURNDATASIZE DUP8 DUP3 RETURNDATACOPY RETURNDATASIZE SWAP1 REVERT JUMPDEST POP POP CALLVALUE PUSH2 0xF8 JUMPI DUP2 PUSH1 0x3 NOT CALLDATASIZE ADD SLT PUSH2 0xF8 JUMPI PUSH1 0x5 SLOAD SWAP1 MLOAD PUSH1 0x1 PUSH1 0x1 PUSH1 0xA0 SHL SUB SWAP1 SWAP2 AND DUP2 MSTORE PUSH1 0x20 SWAP1 RETURN JUMPDEST DUP4 SWAP2 POP CALLVALUE PUSH2 0xF8 JUMPI PUSH1 0x20 CALLDATASIZE PUSH1 0x3 NOT ADD SLT PUSH2 0xF8 JUMPI DUP1 CALLDATALOAD SWAP2 SLOAD DUP3 LT ISZERO PUSH2 0x7B7 JUMPI PUSH1 0x20 DUP4 PUSH2 0x7A9 DUP5 PUSH2 0x838 JUMP JUMPDEST SWAP2 SWAP1 SLOAD SWAP1 MLOAD SWAP2 PUSH1 0x3 SHL SHR DUP2 MSTORE RETURN JUMPDEST PUSH1 0x64 SWAP1 PUSH1 0x20 DUP5 MLOAD SWAP2 PUSH3 0x461BCD PUSH1 0xE5 SHL DUP4 MSTORE DUP3 ADD MSTORE PUSH1 0xD PUSH1 0x24 DUP3 ADD MSTORE PUSH13 0x92DCECC2D8D2C840D2DCC8CAF PUSH1 0x9B SHL PUSH1 0x44 DUP3 ADD MSTORE REVERT JUMPDEST SWAP1 POP CALLVALUE PUSH2 0x168 JUMPI PUSH1 0x20 CALLDATASIZE PUSH1 0x3 NOT ADD SLT PUSH2 0x168 JUMPI PUSH1 0x20 SWAP3 DUP3 SWAP2 CALLDATALOAD DUP2 MSTORE PUSH1 0x1 DUP5 MSTORE KECCAK256 SLOAD SWAP1 MLOAD SWAP1 DUP2 MSTORE RETURN JUMPDEST SWAP1 POP CALLVALUE PUSH2 0x168 JUMPI PUSH1 0x20 CALLDATASIZE PUSH1 0x3 NOT ADD SLT PUSH2 0x168 JUMPI CALLDATALOAD SWAP2 DUP1 SLOAD DUP4 LT ISZERO PUSH2 0x524 JUMPI POP PUSH2 0x7A9 PUSH1 0x20 SWAP3 JUMPDEST SWAP1 PUSH0 SWAP2 DUP3 SLOAD DUP2 LT ISZERO PUSH2 0x850 JUMPI DUP3 DUP1 MSTORE PUSH1 0x20 DUP4 KECCAK256 ADD SWAP2 SWAP1 JUMP JUMPDEST PUSH4 0x4E487B71 PUSH1 0xE0 SHL DUP4 MSTORE PUSH1 0x32 PUSH1 0x4 MSTORE PUSH1 0x24 DUP4 REVERT JUMPDEST PUSH0 SWAP1 DUP2 SLOAD ISZERO PUSH2 0x878 JUMPI DUP2 DUP1 MSTORE PUSH1 0x20 DUP3 KECCAK256 SWAP2 SWAP1 JUMP JUMPDEST PUSH4 0x4E487B71 PUSH1 0xE0 SHL DUP3 MSTORE PUSH1 0x32 PUSH1 0x4 MSTORE PUSH1 0x24 DUP3 REVERT JUMPDEST SWAP1 PUSH1 0x20 PUSH1 0x3 NOT DUP4 ADD SLT PUSH2 0x8D6 JUMPI PUSH1 0x4 CALLDATALOAD PUSH8 0xFFFFFFFFFFFFFFFF SWAP3 DUP4 DUP3 GT PUSH2 0x8D6 JUMPI DUP1 PUSH1 0x23 DUP4 ADD SLT ISZERO PUSH2 0x8D6 JUMPI DUP2 PUSH1 0x4 ADD CALLDATALOAD SWAP4 DUP5 GT PUSH2 0x8D6 JUMPI PUSH1 0x24 DUP5 DUP4 ADD ADD GT PUSH2 0x8D6 JUMPI PUSH1 0x24 ADD SWAP2 SWAP1 JUMP JUMPDEST PUSH0 DUP1 REVERT JUMPDEST PUSH8 0xFFFFFFFFFFFFFFFF DUP2 GT PUSH2 0x8EE JUMPI PUSH1 0x40 MSTORE JUMP JUMPDEST PUSH4 0x4E487B71 PUSH1 0xE0 SHL PUSH0 MSTORE PUSH1 0x41 PUSH1 0x4 MSTORE PUSH1 0x24 PUSH0 REVERT JUMPDEST SWAP1 PUSH1 0x1F DUP1 NOT SWAP2 ADD AND DUP2 ADD SWAP1 DUP2 LT PUSH8 0xFFFFFFFFFFFFFFFF DUP3 GT OR PUSH2 0x8EE JUMPI PUSH1 0x40 MSTORE JUMP JUMPDEST ISZERO PUSH2 0x92B JUMPI JUMP JUMPDEST PUSH1 0x40 MLOAD PUSH3 0x461BCD PUSH1 0xE5 SHL DUP2 MSTORE PUSH1 0x20 PUSH1 0x4 DUP3 ADD MSTORE PUSH1 0x17 PUSH1 0x24 DUP3 ADD MSTORE PUSH23 0x141C9BDC1BDCD85B08191BD95CC81B9BDD08195E1A5CDD PUSH1 0x4A SHL PUSH1 0x44 DUP3 ADD MSTORE PUSH1 0x64 SWAP1 REVERT JUMPDEST PUSH0 DUP2 DUP2 MSTORE PUSH1 0x1 PUSH1 0x20 MSTORE PUSH1 0x40 DUP1 DUP3 KECCAK256 SLOAD SWAP1 SWAP2 PUSH0 NOT SWAP2 DUP3 DUP2 EQ DUP1 ISZERO SWAP1 PUSH2 0xA8C JUMPI JUMPDEST PUSH2 0x992 SWAP1 PUSH2 0x924 JUMP JUMPDEST DUP2 SLOAD DUP4 DUP2 ADD SWAP1 DUP2 GT PUSH2 0xA78 JUMPI DUP1 PUSH2 0x9A9 DUP7 SWAP3 PUSH2 0x838 JUMP JUMPDEST SWAP1 SLOAD SWAP1 PUSH1 0x3 SHL SHR SWAP1 DUP4 SUB PUSH2 0xA29 JUMPI JUMPDEST POP POP POP DUP1 SLOAD DUP1 ISZERO PUSH2 0xA15 JUMPI SWAP2 DUP4 PUSH1 0x20 SWAP5 SWAP3 DUP3 PUSH32 0xD412CA680E6DCD7BC731A6C8D9AD74BEA65B8D0DD85D47D29377D99C53326CF7 SWAP8 SWAP6 ADD PUSH2 0x9F7 DUP2 PUSH2 0x838 JUMP JUMPDEST DUP6 DUP3 SLOAD SWAP2 PUSH1 0x3 SHL SHL NOT AND SWAP1 SSTORE DUP2 SSTORE DUP5 DUP2 MSTORE PUSH1 0x1 DUP7 MSTORE KECCAK256 SSTORE MLOAD SWAP1 DUP2 MSTORE LOG1 JUMP JUMPDEST PUSH4 0x4E487B71 PUSH1 0xE0 SHL DUP3 MSTORE PUSH1 0x31 PUSH1 0x4 MSTORE PUSH1 0x24 DUP3 REVERT JUMPDEST DUP3 PUSH2 0xA58 DUP3 PUSH2 0x1E9 PUSH32 0xF041F52DB3FD2F56A979D9DD319AA6A6E399C198410349CF154EB4B4568D7DAA SWAP7 PUSH2 0x838 JUMP JUMPDEST DUP2 DUP6 MSTORE PUSH1 0x1 PUSH1 0x20 MSTORE DUP1 DUP4 DUP7 KECCAK256 SSTORE DUP3 MLOAD SWAP2 DUP3 MSTORE PUSH1 0x20 DUP3 ADD MSTORE LOG1 PUSH0 DUP4 DUP2 PUSH2 0x9B8 JUMP JUMPDEST PUSH4 0x4E487B71 PUSH1 0xE0 SHL DUP4 MSTORE PUSH1 0x11 PUSH1 0x4 MSTORE PUSH1 0x24 DUP4 REVERT JUMPDEST POP PUSH2 0x992 DUP6 PUSH2 0xA99 PUSH2 0x864 JUMP JUMPDEST SWAP1 SLOAD SWAP1 PUSH1 0x3 SHL SHR EQ SWAP1 POP PUSH2 0x989 JUMP JUMPDEST ISZERO PUSH2 0xAAF JUMPI JUMP JUMPDEST PUSH1 0x40 MLOAD PUSH3 0x461BCD PUSH1 0xE5 SHL DUP2 MSTORE PUSH1 0x20 PUSH1 0x4 DUP3 ADD MSTORE PUSH1 0x16 PUSH1 0x24 DUP3 ADD MSTORE PUSH22 0x2737BA103A34329031B7B73A3930B1BA1037BBB732B9 PUSH1 0x51 SHL PUSH1 0x44 DUP3 ADD MSTORE PUSH1 0x64 SWAP1 REVERT INVALID LOG2 PUSH5 0x6970667358 0x22 SLT KECCAK256 0xF9 0xE PUSH30 0xC3BC7DE9A286856D197FFC36381FDAD7E02D2E760966E79DB1BA2BE46664 PUSH20 0x6F6C634300081400330000000000000000000000 "},"methodIdentifiers":{"appendToLane(uint256)":"a993983b","checkUpkeep(bytes)":"6e04ff0d","communitiesContract()":"b14af44d","fundContract()":"bd097e21","getProposalByIndex(uint256)":"37d1d389","getProposalCount()":"c08cc02d","getProposalIndex(uint256)":"5c61c853","laneId()":"da5c2dfc","laneRegistryContract()":"3eab6bac","owner()":"8da5cb5b","performUpkeep(bytes)":"4585e33b","proposalIndex(uint256)":"362681e9","proposals(uint256)":"013cf08b","registry()":"7b103999","removeProposal(uint256)":"4ce4e6c7","setFundContract(address)":"59144baa","setRegistry(address)":"a91ee0dc"}}}}}