{"contracts/tgetherCommunities.sol":{"tgetherCommunities":{"abi":[{"inputs":[{"internalType":"uint256","name":"_feePrice","type":"uint256"}],"stateMutability":"nonpayable","type":"constructor"},{"anonymous":false,"inputs":[{"indexed":true,"internalType":"string","name":"communityName","type":"string"},{"indexed":false,"internalType":"address","name":"creator","type":"address"},{"indexed":false,"internalType":"bool","name":"isInviteOnly","type":"bool"}],"name":"CommunityCreated","type":"event"},{"anonymous":false,"inputs":[{"indexed":true,"internalType":"string","name":"communityName","type":"string"},{"indexed":false,"internalType":"uint256","name":"minCredsToProposeVote","type":"uint256"},{"indexed":false,"internalType":"uint256","name":"minCredsToVote","type":"uint256"},{"indexed":false,"internalType":"uint256","name":"maxCredsCountedForVote","type":"uint256"},{"indexed":false,"internalType":"uint256","name":"minProposalVotes","type":"uint256"},{"indexed":false,"internalType":"address","name":"memberAccessContract","type":"address"},{"indexed":false,"internalType":"uint256","name":"proposalTime","type":"uint256"},{"indexed":false,"internalType":"uint256","name":"proposalDelay","type":"uint256"},{"indexed":false,"internalType":"bool","name":"isInviteOnly","type":"bool"}],"name":"CommunityInfo","type":"event"},{"anonymous":false,"inputs":[{"indexed":true,"internalType":"string","name":"communityName","type":"string"},{"indexed":true,"internalType":"uint256","name":"proposalId","type":"uint256"},{"indexed":false,"internalType":"uint256","name":"minCredsToProposeVote","type":"uint256"},{"indexed":false,"internalType":"uint256","name":"minCredsToVote","type":"uint256"},{"indexed":false,"internalType":"uint256","name":"maxCredsCountedForVote","type":"uint256"},{"indexed":false,"internalType":"uint256","name":"minProposalVotes","type":"uint256"},{"indexed":false,"internalType":"address","name":"memberAccessContract","type":"address"},{"indexed":false,"internalType":"uint256","name":"proposalTime","type":"uint256"},{"indexed":false,"internalType":"uint256","name":"proposalDelay","type":"uint256"},{"indexed":false,"internalType":"bool","name":"isInviteOnly","type":"bool"}],"name":"CommunityProposalParams","type":"event"},{"anonymous":false,"inputs":[{"indexed":true,"internalType":"address","name":"contractAddress","type":"address"},{"indexed":true,"internalType":"uint256","name":"proposalId","type":"uint256"},{"indexed":true,"internalType":"address","name":"proposer","type":"address"}],"name":"CustomProposalCreated","type":"event"},{"anonymous":false,"inputs":[{"indexed":true,"internalType":"address","name":"contractAddress","type":"address"},{"indexed":true,"internalType":"uint256","name":"proposalId","type":"uint256"},{"indexed":true,"internalType":"bool","name":"passed","type":"bool"}],"name":"CustomProposalResult","type":"event"},{"anonymous":false,"inputs":[{"indexed":true,"internalType":"uint256","name":"proposalId","type":"uint256"},{"indexed":true,"internalType":"address","name":"proposer","type":"address"},{"indexed":true,"internalType":"string","name":"communityName","type":"string"},{"indexed":false,"internalType":"uint256","name":"timestamp","type":"uint256"},{"indexed":false,"internalType":"uint256","name":"propType","type":"uint256"}],"name":"ProposalCreated","type":"event"},{"anonymous":false,"inputs":[{"indexed":true,"internalType":"uint256","name":"proposalId","type":"uint256"},{"indexed":true,"internalType":"bool","name":"passed","type":"bool"}],"name":"ProposalResult","type":"event"},{"anonymous":false,"inputs":[{"indexed":true,"internalType":"uint256","name":"proposalId","type":"uint256"},{"indexed":true,"internalType":"address","name":"voter","type":"address"},{"indexed":true,"internalType":"bool","name":"voteChoice","type":"bool"},{"indexed":false,"internalType":"uint256","name":"credsToCount","type":"uint256"}],"name":"Voted","type":"event"},{"inputs":[{"internalType":"uint256","name":"","type":"uint256"}],"name":"CommunityNames","outputs":[{"internalType":"string","name":"","type":"string"}],"stateMutability":"view","type":"function"},{"inputs":[{"internalType":"string","name":"_communityName","type":"string"},{"internalType":"uint256","name":"_minCredsToProposeVote","type":"uint256"},{"internalType":"uint256","name":"_minCredsToVote","type":"uint256"},{"internalType":"uint256","name":"_maxCredsCountedForVote","type":"uint256"},{"internalType":"uint256","name":"_minProposalVotes","type":"uint256"},{"internalType":"address","name":"_credsAccessAddress","type":"address"},{"internalType":"uint256","name":"_proposalTime","type":"uint256"},{"internalType":"uint256","name":"_proposalDelay","type":"uint256"},{"internalType":"bool","name":"_isInviteOnly","type":"bool"}],"name":"CommunityProposal","outputs":[{"internalType":"uint256","name":"","type":"uint256"}],"stateMutability":"payable","type":"function"},{"inputs":[{"internalType":"uint256","name":"","type":"uint256"}],"name":"CommunityProposals","outputs":[{"internalType":"uint256","name":"minCredsToProposeVote","type":"uint256"},{"internalType":"uint256","name":"minCredsToVote","type":"uint256"},{"internalType":"uint256","name":"maxCredsCountedForVote","type":"uint256"},{"internalType":"uint256","name":"minProposalVotes","type":"uint256"},{"internalType":"address","name":"memberAccessContract","type":"address"},{"internalType":"uint256","name":"proposalTime","type":"uint256"},{"internalType":"uint256","name":"proposalDelay","type":"uint256"},{"internalType":"bool","name":"isInviteOnly","type":"bool"}],"stateMutability":"view","type":"function"},{"inputs":[{"internalType":"string","name":"_communityName","type":"string"},{"internalType":"address","name":"_contractAddress","type":"address"}],"name":"CustomProposal","outputs":[{"internalType":"uint256","name":"","type":"uint256"}],"stateMutability":"payable","type":"function"},{"inputs":[{"internalType":"uint256","name":"","type":"uint256"}],"name":"CustomProposals","outputs":[{"internalType":"address","name":"","type":"address"}],"stateMutability":"view","type":"function"},{"inputs":[],"name":"MemberContract","outputs":[{"internalType":"contract tgetherMembersInterface","name":"","type":"address"}],"stateMutability":"view","type":"function"},{"inputs":[{"internalType":"string","name":"_communityName","type":"string"},{"internalType":"address","name":"_newOwner","type":"address"}],"name":"changeCommunityOwner","outputs":[],"stateMutability":"nonpayable","type":"function"},{"inputs":[{"internalType":"string","name":"","type":"string"}],"name":"communities","outputs":[{"internalType":"address","name":"creator","type":"address"},{"internalType":"uint256","name":"minCredsToProposeVote","type":"uint256"},{"internalType":"uint256","name":"minCredsToVote","type":"uint256"},{"internalType":"uint256","name":"maxCredsCountedForVote","type":"uint256"},{"internalType":"uint256","name":"minProposalVotes","type":"uint256"},{"internalType":"address","name":"memberAccessContract","type":"address"},{"internalType":"uint256","name":"proposalTime","type":"uint256"},{"internalType":"uint256","name":"proposalDelay","type":"uint256"},{"internalType":"bool","name":"isInviteOnly","type":"bool"}],"stateMutability":"view","type":"function"},{"inputs":[{"internalType":"string","name":"_communityName","type":"string"},{"internalType":"uint256","name":"_minCredsToProposeVote","type":"uint256"},{"internalType":"uint256","name":"_minCredsToVote","type":"uint256"},{"internalType":"uint256","name":"_maxCredsCountedForVote","type":"uint256"},{"internalType":"uint256","name":"_minProposalVotes","type":"uint256"},{"internalType":"address","name":"_memberAccessContract","type":"address"},{"internalType":"uint256","name":"_proposalTime","type":"uint256"},{"internalType":"uint256","name":"_proposalDelay","type":"uint256"},{"internalType":"bool","name":"_isInviteOnly","type":"bool"}],"name":"createCommunity","outputs":[],"stateMutability":"nonpayable","type":"function"},{"inputs":[],"name":"fee","outputs":[{"internalType":"uint256","name":"","type":"uint256"}],"stateMutability":"view","type":"function"},{"inputs":[{"internalType":"string","name":"_communityName","type":"string"}],"name":"getCommunityExists","outputs":[{"internalType":"bool","name":"","type":"bool"}],"stateMutability":"view","type":"function"},{"inputs":[{"internalType":"string","name":"_communityName","type":"string"}],"name":"getCommunityInfo","outputs":[{"internalType":"uint256","name":"minCredsToProposeVote","type":"uint256"},{"internalType":"uint256","name":"minCredsToVote","type":"uint256"},{"internalType":"uint256","name":"maxCredsCountedForVote","type":"uint256"},{"internalType":"uint256","name":"minProposalVotes","type":"uint256"},{"internalType":"uint256","name":"proposalTime","type":"uint256"},{"internalType":"uint256","name":"proposalDelay","type":"uint256"},{"internalType":"bool","name":"isInviteOnly","type":"bool"}],"stateMutability":"view","type":"function"},{"inputs":[{"internalType":"string","name":"_communityName","type":"string"}],"name":"getCommunityIsInviteOnly","outputs":[{"internalType":"bool","name":"","type":"bool"}],"stateMutability":"view","type":"function"},{"inputs":[{"internalType":"string","name":"_communityName","type":"string"},{"internalType":"address","name":"_add","type":"address"}],"name":"getCommunityIsOwner","outputs":[{"internalType":"bool","name":"","type":"bool"}],"stateMutability":"view","type":"function"},{"inputs":[{"internalType":"string","name":"_communityName","type":"string"}],"name":"getCommunityOwner","outputs":[{"internalType":"address","name":"","type":"address"}],"stateMutability":"view","type":"function"},{"inputs":[],"name":"getFee","outputs":[{"internalType":"uint256","name":"","type":"uint256"}],"stateMutability":"view","type":"function"},{"inputs":[{"internalType":"uint256","name":"_propId","type":"uint256"}],"name":"getLaneId","outputs":[{"internalType":"uint256","name":"","type":"uint256"}],"stateMutability":"view","type":"function"},{"inputs":[{"internalType":"string","name":"_communityName","type":"string"}],"name":"getMemberAccessContract","outputs":[{"internalType":"address","name":"","type":"address"}],"stateMutability":"view","type":"function"},{"inputs":[{"internalType":"string","name":"_communityName","type":"string"},{"internalType":"uint256","name":"_numIdsreturned","type":"uint256"},{"internalType":"uint256","name":"_pageNumber","type":"uint256"}],"name":"getPaginatedCommunityProposals","outputs":[{"internalType":"uint256[]","name":"","type":"uint256[]"},{"internalType":"uint256","name":"numPages","type":"uint256"}],"stateMutability":"view","type":"function"},{"inputs":[{"internalType":"uint256","name":"_proposalId","type":"uint256"}],"name":"getProposalResults","outputs":[{"internalType":"bool","name":"isActive","type":"bool"},{"internalType":"bool","name":"passed","type":"bool"}],"stateMutability":"view","type":"function"},{"inputs":[{"internalType":"uint256","name":"_proposalId","type":"uint256"}],"name":"getProposalType","outputs":[{"internalType":"uint256","name":"","type":"uint256"}],"stateMutability":"view","type":"function"},{"inputs":[{"internalType":"address","name":"_address","type":"address"},{"internalType":"uint256","name":"_proposalId","type":"uint256"}],"name":"getProposalVote","outputs":[{"internalType":"uint256","name":"approveVotes","type":"uint256"},{"internalType":"uint256","name":"approveCreds","type":"uint256"},{"internalType":"uint256","name":"denyVotes","type":"uint256"},{"internalType":"uint256","name":"denyCreds","type":"uint256"},{"internalType":"bool","name":"","type":"bool"}],"stateMutability":"view","type":"function"},{"inputs":[{"internalType":"uint256","name":"_propId","type":"uint256"}],"name":"getVoteEnd","outputs":[{"internalType":"uint256","name":"","type":"uint256"}],"stateMutability":"view","type":"function"},{"inputs":[{"internalType":"address","name":"","type":"address"}],"name":"hasOpenProposal","outputs":[{"internalType":"bool","name":"","type":"bool"}],"stateMutability":"view","type":"function"},{"inputs":[],"name":"laneRegistryContract","outputs":[{"internalType":"contract laneRegistryInterface","name":"","type":"address"}],"stateMutability":"view","type":"function"},{"inputs":[{"internalType":"bytes","name":"_performData","type":"bytes"}],"name":"performUpkeep","outputs":[],"stateMutability":"nonpayable","type":"function"},{"inputs":[{"internalType":"string","name":"","type":"string"},{"internalType":"uint256","name":"","type":"uint256"}],"name":"porposalsByCommunity","outputs":[{"internalType":"uint256","name":"","type":"uint256"}],"stateMutability":"view","type":"function"},{"inputs":[{"internalType":"uint256","name":"","type":"uint256"}],"name":"proposals","outputs":[{"internalType":"address","name":"proposer","type":"address"},{"internalType":"string","name":"communityName","type":"string"},{"internalType":"uint256","name":"timestamp","type":"uint256"},{"internalType":"uint256","name":"propType","type":"uint256"},{"internalType":"uint256","name":"laneId","type":"uint256"},{"internalType":"uint256","name":"approveVotes","type":"uint256"},{"internalType":"uint256","name":"denyVotes","type":"uint256"},{"internalType":"uint256","name":"approveCreds","type":"uint256"},{"internalType":"uint256","name":"denyCreds","type":"uint256"},{"internalType":"bool","name":"isActive","type":"bool"},{"internalType":"bool","name":"passed","type":"bool"}],"stateMutability":"view","type":"function"},{"inputs":[{"internalType":"uint256","name":"_feePrice","type":"uint256"}],"name":"setFee","outputs":[],"stateMutability":"nonpayable","type":"function"},{"inputs":[{"internalType":"address","name":"_contractAddress","type":"address"}],"name":"setLaneRegistryContract","outputs":[],"stateMutability":"nonpayable","type":"function"},{"inputs":[{"internalType":"uint256","name":"_mpt","type":"uint256"}],"name":"setMaxProposalTime","outputs":[],"stateMutability":"nonpayable","type":"function"},{"inputs":[{"internalType":"uint256","name":"_propId","type":"uint256"}],"name":"setProposalCanceled","outputs":[],"stateMutability":"nonpayable","type":"function"},{"inputs":[{"internalType":"uint256","name":"_count","type":"uint256"}],"name":"setProposalCounter","outputs":[],"stateMutability":"nonpayable","type":"function"},{"inputs":[{"internalType":"uint256","name":"_proposalId","type":"uint256"}],"name":"setProposalInactive","outputs":[],"stateMutability":"nonpayable","type":"function"},{"inputs":[{"internalType":"uint256","name":"_upkeepId","type":"uint256"}],"name":"setUpkkepId","outputs":[],"stateMutability":"nonpayable","type":"function"},{"inputs":[{"internalType":"address","name":"_contractAddress","type":"address"}],"name":"settgetherMembersContract","outputs":[],"stateMutability":"nonpayable","type":"function"},{"inputs":[],"name":"upkeepId","outputs":[{"internalType":"uint256","name":"","type":"uint256"}],"stateMutability":"view","type":"function"},{"inputs":[{"internalType":"uint256","name":"proposalId","type":"uint256"},{"internalType":"bool","name":"voteChoice","type":"bool"}],"name":"vote","outputs":[],"stateMutability":"nonpayable","type":"function"}],"evm":{"bytecode":{"linkReferences":{},"object":"60803461006f57601f612b4038819003918201601f19168301916001600160401b038311848410176100735780849260209460405283398101031261006f5751600980546001600160a01b03191633179055600a55627864506003556001600555604051612ab890816100888239f35b5f80fd5b634e487b7160e01b5f52604160045260245ffdfe60806040526004361015610011575f80fd5b5f803560e01c8063013cf08b146121c05780630163b9681461219757806304413d86146121305780630dc85f7d146120cd5780631282f6091461208a578063247c3a381461204257806328adc24014611f79578063298a575014611ea55780632f30f10614611e4d57806331b4ea2e14611a895780633df6735214611a005780633eab6bac146119d75780634585e33b146116a45780635787a0cc146116745780635bdcd008146116365780636219f1171461135657806368535709146112dc57806369fe0e2d146112ac578063789aa8f6146110b85780637b7fcfed1461104e5780638126d89514610fe75780638a94aea414610f9f5780638b64044014610f6f57806390943a8b14610f3c578063a169093b14610f0c578063a64108d514610d8f578063b07bcbc514610a4d578063b3f6702d146109c8578063c2c2e5f81461094c578063c972f98514610920578063c9d27afe146104ca578063cbe02a9f1461042d578063ced72f87146101fd578063d0d8392314610266578063d2aa789f14610248578063d978ffba1461021b578063ddca3f43146101fd5763ff1225d9146101bc575f80fd5b346101fa5760203660031901126101fa5760209060ff906040906001600160a01b036101e6612432565b168152600884522054166040519015158152f35b80fd5b50346101fa57806003193601126101fa576020600a54604051908152f35b50346101fa5760203660031901126101fa5760036040602092600435815260068452200154604051908152f35b50346101fa57806003193601126101fa576020600d54604051908152f35b50346101fa57602090816003193601126101fa576004358082526006835260408220546001600160a01b0390811633036103ec5781835260068452600160ff600a604086200154161515036103a757829381600c541683855260068252816004604087200154602460405180948193636f0817eb60e11b835260048301525afa91821561039c578592610360575b505016803b1561035c57602483926040519485938492634ce4e6c760e01b845260048401525af1801561035157610329575080f35b6001600160401b03811161033d5760405280f35b634e487b7160e01b82526041600452602482fd5b6040513d84823e3d90fd5b5050fd5b90809250813d8311610395575b61037781836122bd565b8101031261039057518181168103610390575f806102f4565b505050fd5b503d61036d565b6040513d87823e3d90fd5b60405162461bcd60e51b815260048101859052601b60248201527f546869732070726f706f73616c206973206e6f742061637469766500000000006044820152606490fd5b60405162461bcd60e51b81526004810185905260196024820152785573657220646964206e6f742070726f706f7365207468697360381b6044820152606490fd5b50346101fa5760203660031901126101fa576004356001600160401b0381116104c6579060056104b26020610467819536906004016123d9565b604051948151916104a184820193610480818a87612393565b88018381528890038501909720546001600160a01b03979088161515612a23565b604051948593849251928391612393565b820190815203019020015416604051908152f35b5080fd5b50346101fa5760403660031901126101fa5760248035801515916004359083830361091c576005548210156108dd578185526020906006825260408620906001918260ff600a83015416151503610899576002810154918382019261053b60076105338661289c565b01548261292a565b4210159081610869575b501561082d57600b54604051635848e2a360e11b81526001600160a01b039091169390868180610579853360048401612937565b0381885afa80156107635786918c91610800575b501515036107ac576009830193338b5284875260ff60408c20541661076e578660405180926302b5df5960e01b825281806105cc873360048401612937565b03915afa908115610763578b91610732575b5060026105ea8361289c565b015481126106ee5760036105fd8361289c565b01548113156106e6575061061260039161289c565b0154965b1561069757600582018054918583018093116106855750916007917f7c2de587c00d75474a0c6c6fa96fd3b45dc974cd4e8a75f712bb84c950dce1b596959493550161066387825461292a565b90555b3388528252604087209060ff198254161790556040519384523393a480f35b634e487b7160e01b8b5260116004528afd5b600682018054918583018093116106855750916008917f7c2de587c00d75474a0c6c6fa96fd3b45dc974cd4e8a75f712bb84c950dce1b59695949355016106df87825461292a565b9055610666565b905096610616565b60405162461bcd60e51b815260048101889052601b818501527f496e73756666696369656e7420637265647320746f20766f74652e00000000006044820152606490fd5b90508681813d831161075c575b61074981836122bd565b8101031261075857515f6105de565b8a80fd5b503d61073f565b6040513d8d823e3d90fd5b60405162461bcd60e51b815260048101889052601781850152762cb7ba903430bb329030b63932b0b23c903b37ba32b21760491b6044820152606490fd5b60405162461bcd60e51b8152600481018790526027818401527f596f7520617265206e6f742061206d656d626572206f66207468697320636f6d60448201526636bab734ba3c9760c91b6064820152608490fd5b6108209150883d8a11610826575b61081881836122bd565b81019061274f565b5f61058d565b503d61080e565b8460166064926040519262461bcd60e51b84526004840152820152754e6f742041637469766520566f74696e672054696d6560501b6044820152fd5b610890915061088590600761087d8761289c565b01549061292a565b600661087d8661289c565b4211155f610545565b60405162461bcd60e51b815260048101859052601c818401527f50726f706f73616c206973206e6f206c6f6e67657220416374697665000000006044820152606490fd5b60649060186040519162461bcd60e51b83526020600484015282015277283937b837b9b0b6103237b2b9903737ba1032bc34b9ba1760411b6044820152fd5b8480fd5b50346101fa5760203660031901126101fa57600460406020928235815260068452200154604051908152f35b50346101fa5760403660031901126101fa576004356001600160401b0381116104c65761097d9036906004016123d9565b9061099a6020602435938160405193828580945193849201612393565b810160078152030190209081548310156101fa5760206109ba84846124b5565b90546040519160031b1c8152f35b50346101fa5760203660031901126101fa576004356001600160401b0381116104c65790610a3a6020610a00819436906004016123d9565b604051938151916104a184820193610a19818987612393565b87018381528790038501909620546001600160a01b03969087161515612a23565b8201908152030190205416604051908152f35b50610a5736612448565b91604051825190602094610a9486860193610a73818587612393565b83018581528390038701909220546001600160a01b0392908316151561269b565b32845260088652610aac60ff604086205416156126e1565b81600b5416604051635848e2a360e11b8152878180610acf8a3260048401612767565b0381855afa908115610d8457610af2916001918891610d67575b5015151461278c565b8660405180926302b5df5960e01b82528180610b128b3260048401612767565b03915afa801561039c578590610d38575b610b4e9150600160405189818a51610b3c81838c612393565b81018a815203019020015413156127e9565b610b5b600a543414612835565b6005948554855260068752610bf8876040872095600a60018060a01b0319973289825416178155610b8f8660018301612573565b4260028201556002600382015501600160ff19825416179055885493610bb48161267b565b604051428152600285820152867f6c98a8c940418b35614f0cd02412d5c9606faff474cbb6cdd6640ba5d1a9f06b60403393a4604051938492839251928391612393565b81016007815203019020805490600160401b821015610d245791610c28828a9695946001610c40950181556124b5565b90919082549060031b91821b915f19901b1916179055565b8554855260048352816040862091168094825416179055602485549360405194859384928232917f6a319039caa9a0b231fc1a3d10d617c656e322ebac0d326e9d0c95cbde9248a48b80a4600c54169063a993983b60e01b8352600483015234905af1908115610351578291610cf7575b5082548252600684526004604083200155610ccc825461287a565b8092555f198201918211610ce35750604051908152f35b634e487b7160e01b81526011600452602490fd5b90508381813d8311610d1d575b610d0e81836122bd565b810103126104c657515f610cb1565b503d610d04565b634e487b7160e01b87526041600452602487fd5b508681813d8311610d60575b610d4e81836122bd565b8101031261091c57610b4e9051610b23565b503d610d44565b610d7e91508a3d8c116108265761081881836122bd565b5f610ae9565b6040513d88823e3d90fd5b50346101fa57602090816003193601126101fa57600435916001600160401b0383116104c657610dc560e09336906004016123d9565b60405192610dfb82519484840195610dde818389612393565b810183815281900385019020546001600160a01b03161515612a23565b600160405184818551610e0f81838b612393565b810185815203019020015493600260405185818651610e2f818388612393565b8101868152030190200154600360405186818751610e4e818389612393565b81018781520301902001549060ff6008610ed9886004610e7b82898c604051938492839251928391612393565b81018c815203019020015496600660405183818d51610e9b818388612393565b81018d81520301902001549860078b84604051809251610ebc818389612393565b81018581520301902001549a604051948593849251928391612393565b8201908152030190200154169560405197885287015260408601526060850152608084015260a0830152151560c0820152f35b50346101fa5760203660031901126101fa57610f3360018060a01b036009541633146129de565b60043560035580f35b50346101fa5760203660031901126101fa57602090600435815260048252604060018060a01b0391205416604051908152f35b50346101fa5760203660031901126101fa57610f9660018060a01b036009541633146129de565b60043560055580f35b50346101fa5760203660031901126101fa57610fb9612432565b6009546001600160a01b039190610fd390831633146129de565b1660018060a01b0319600b541617600b5580f35b50346101fa5760203660031901126101fa576040906004358152600260205220805461104a600183015492600281015490600381015460018060a01b0360048301541660058301549160ff60076006860154950154169460405198899889612532565b0390f35b50346101fa5760203660031901126101fa576004356001600160401b0381116104c6579061108260209236906004016123d9565b826110966040519283815193849201612393565b81019182529081900382019020546040516001600160a01b0390911615158152f35b50346101fa5760603660031901126101fa576004356001600160401b0381116104c6576110e99036906004016123d9565b6024906044359082356110fb81612a6b565b9361110960405195866122bd565b81855261111582612a6b565b9360209384870195601f190136873787908483029280840486149015171561129957611141858461292a565b916040519282519488840195611158818789612393565b850194898160079788815203019020548211611275575b90889492959391955b8187106111fd5750506111979450604051948593849251928391612393565b820190815203019020549082156111eb57506040805181815295519086018190526060860194905b8088106111d457505084955004908301520390f35b9094848060019288518152019601970196906111bf565b634e487b7160e01b8752601260045286fd5b9091939592945061122a836040518b818061121c8c8b51928391612393565b81018a8152030190206124b5565b9054908c518310156112625760031b1c600582901b8c018a0152611257906112519061287a565b9261287a565b949290889492611178565b634e487b7160e01b8e526032600452888efd5b90506040518881855161128981838b612393565b810187815203019020549061116f565b634e487b7160e01b895260116004528389fd5b50346101fa5760203660031901126101fa576112d360018060a01b036009541633146129de565b600435600a5580f35b50346101fa5760403660031901126101fa5760a0906112f9612432565b9060243581526006602052604081209160058301549260ff604060078301549460096006850154946008810154966001808c1b03168352016020522054169260405194855260208501526040840152606083015215156080820152f35b50346101fa57611365366124ca565b9497829392979697949194936040518251906020928d8486019361138a818587612393565b83019081528290038401909120546001600160a01b03919082166115f5578992918d8f928d8f916003548091116115eb575b50936114f89389899488946008986001611412896115139e9d60405182818a516113e7818387612393565b81018d81520301902097848060a01b031998338a825416179055604051938492839251928391612393565b81018a815203019020015560028d8860405180925161143281838d612393565b810189815203019020015560038c8760405180925161145281838c612393565b81018881520301902001558b60048c8760405180925161147381838c612393565b810188815203019020015560058b8660405180925161149381838b612393565b81018781520301902001918d16908254161790558b600660405185818d516114bc81838a612393565b81018681520301902001558c600760405185818d516114dc81838a612393565b8101868152030190200155604051809481938b51928391612393565b820190815203019020019060ff801983541691151516179055565b600154600160401b8110156115d7578060016115329201600155612489565b6115c357827fa33e969841918d6c70510ff52aaf2f08256c371553465cdd2beb001c23b0f5049a99989694926115706115bd9997956115b094612573565b7f770333f2d96faae538a5391fa34d7f90a88dc8af3aadcb1735c43839cb695566604061159c8461267b565b928151903382528b151590820152a261267b565b9960405198899889612532565b0390a280f35b634e487b7160e01b8c5260048c905260248cfd5b634e487b7160e01b8c52604160045260248cfd5b9b506114f86113bc565b60405162461bcd60e51b815260048101859052601960248201527821b7b6b6bab734ba3c9030b63932b0b23c9032bc34b9ba399760391b6044820152606490fd5b50346101fa5760203660031901126101fa57600a604080926004358152600660205220015460ff8251918181161515835260081c1615156020820152f35b50346101fa5760203660031901126101fa5761169b60018060a01b036009541633146129de565b600435600d5580f35b50346101fa576020806003193601126104c6576004356001600160401b038082116119d357366023830112156119d35781600401359081116119d35781013660248201116119d35781839103126119cf5760240135908183526006908181526040842060029061173861172383830154600761087d600180960161289c565b8688528585528561087d8460408b200161289c565b85151590816119c4575b816119ba575b50611751578580f35b8486528383526040862091600583015485840154808211918261198a575b82611968575b5050156118e1578160038401548281145f1461184757505050848652600483526040862054819086906001600160a01b03167fca5be02c86f988b49c8f55fa1445e2252a5de3afaa608cc35db41feb6c22f83a8980a45b847f35baaec8d9c9da1c77f27119243a4384b49eae2bf0680aa0eebe3b62d28574a58780a383855282825260408520600a01805461ff0019166101001790555b546001600160a01b03168452600881526040808520805460ff199081169091559385529190528220600a01805490911690555f808080808580f35b14611853575b506117cc565b6118db90600860ff600761186886880161289c565b938a8c5280895260408c2090815488870155878201548187015581015460038601556003810154600486015560018060a01b03600482015416600586019060018060a01b031982541617905560058101548a860155898101548286015501541691019060ff801983541691151516179055565b5f61184d565b85875284845260408720600a01805461ff0019169055905085857f35baaec8d9c9da1c77f27119243a4384b49eae2bf0680aa0eebe3b62d28574a58280a360038201540361180c57600482526040852054859085906001600160a01b03167fca5be02c86f988b49c8f55fa1445e2252a5de3afaa608cc35db41feb6c22f83a8380a461180c565b611972925061292a565b600461197f84860161289c565b015411155f80611775565b9150600785015460088601541080156119a4575b9161176f565b5060036119b285870161289c565b01541561199e565b905015155f611748565b428111159150611742565b8280fd5b8380fd5b50346101fa57806003193601126101fa57600c546040516001600160a01b039091168152602090f35b50346101fa5760203660031901126101fa576004356001600160401b0381116104c6576008611a7360208094611a3c60ff9536906004016123d9565b90604051916104a181519385830194611a56818388612393565b810184815281900386019020546001600160a01b03161515612a23565b8201908152030190200154166040519015158152f35b50611a93366124ca565b92909198979693611ad46020604098979851611ab58b82815194859201612393565b9081018b81528190036020019020546001600160a01b0316151561269b565b3289526008602052611aed60ff60408b205416156126e1565b600b54604051635848e2a360e11b81526001600160a01b039091169060208180611b1b8d3260048401612767565b0381855afa90811561076357611b6192611b4560016020948f948f9591611e36575015151461278c565b60405180809581946302b5df5960e01b83523260048401612767565b03915afa908115611e2b57908a8a928192611dee575b50611b976020611ba9946001938260405194838680955193849201612393565b820190815203019020015413156127e9565b611bb6600a543414612835565b6005548952600260205260408920600354808c11611de6575b50600660205260408a2080546001600160a01b03191632178155600a90611bf98b60018301612573565b4260028201556001600382015501600160ff19825416179055600554611c1e8a61267b565b60405142815260016020820152827f6c98a8c940418b35614f0cd02412d5c9606faff474cbb6cdd6640ba5d1a9f06b60403393a4611c6b60208b8160405193828580945193849201612393565b81016007815203019020805490600160401b821015611dd2578760076115b09e9f95611cce7f65513f3a4b238816f691e4322be549c10eeaa1ef78fe116618b0d83e5ca252b69d9c9b9996610c2887611d1c976001611d279f9d9a0181556124b5565b8a81558b60018201558d60028201558460038201556004810160018060a01b03871660018060a01b0319825416179055866005820155876006820155019060ff801983541691151516179055565b6005549b8c9b61267b565b0390a3600c5460405163a993983b60e01b815260048101929092526020908290602490829034906001600160a01b03165af1908115610351578291611da0575b50600554825260066020526004604083200155611d8560055461287a565b90816005555f198201918211610ce357602082604051908152f35b90506020813d602011611dca575b81611dbb602093836122bd565b810103126104c657515f611d67565b3d9150611dae565b634e487b7160e01b8d52604160045260248dfd5b9a505f611bcf565b925050506020813d602011611e23575b81611e0b602093836122bd565b81010312611e1f575188908a611b97611b77565b8980fd5b3d9150611dfe565b6040513d8c823e3d90fd5b610d7e9150863d88116108265761081881836122bd565b50346101fa5760203660031901126101fa57611e9d602091600661087d6001604060043594858152848852611e90828220600761087d866002840154930161289c565b958152848852200161289c565b604051908152f35b50346101fa57611eb436612448565b90604051908051906020810191611ecc818585612393565b8301858152839003602001909220546001600160a01b03929083163303611f2457611f0591602091604051938492839251928391612393565b81018681520301902080546001600160a01b0319169190921617905580f35b60405162461bcd60e51b815260206004820152602760248201527f55736572206973206e6f7420746865206f776e6572206f66207468697320636f6044820152666d6d756e69747960c81b6064820152608490fd5b50346101fa5760203660031901126101fa576004356001600160401b0381116104c657602061012092611fb3611fc79336906004016123d9565b908260405194838680955193849201612393565b82019081520301902060018060a01b0380825416916001810154916002820154906003830154906004840154906005850154169160068501549360ff600860078801549701541696604051988952602089015260408801526060870152608086015260a085015260c084015260e08301521515610100820152f35b50346101fa5760203660031901126101fa5761205c612432565b6009546001600160a01b03919061207690831633146129de565b1660018060a01b0319600c541617600c5580f35b50346101fa5760203660031901126101fa576120b160018060a01b036009541633146129de565b6004358152600660205260408120600a01805460ff1916905580f35b50346101fa5760203660031901126101fa576004356001548110156104c6576120f590612489565b91909161211c5761104a612108836122f2565b6040519182916020835260208301906123b4565b634e487b7160e01b81526004819052602490fd5b50346101fa57602080809261218161214736612448565b9490604051938151916104a184820193612162818987612393565b87018381528760018060a01b03998a998a930301902054161515612a23565b8201908152030190205416906040519216148152f35b50346101fa57806003193601126101fa57600b546040516001600160a01b039091168152602090f35b50346101fa5760203660031901126101fa57600435815260066020526040902080546001600160a01b03166121f7600183016122f2565b9160ff60028201549160038101549060048101546005820154600683015490600784015492600a6008860154950154956122456040519b8c9b8c5260208c61016091829101528c01906123b4565b9860408b015260608a0152608089015260a088015260c087015260e0860152610100850152818116151561012085015260081c1615156101408301520390f35b90600182811c921680156122b3575b602083101461229f57565b634e487b7160e01b5f52602260045260245ffd5b91607f1691612294565b90601f801991011681019081106001600160401b038211176122de57604052565b634e487b7160e01b5f52604160045260245ffd5b9060405191825f82549261230584612285565b9081845260019485811690815f146123705750600114612330575b505061232e925003836122bd565b565b909391505f52602090815f20935f915b81831061235857505061232e93508201015f80612320565b85548884018501529485019487945091830191612340565b91505061232e94506020925060ff191682840152151560051b8201015f80612320565b5f5b8381106123a45750505f910152565b8181015183820152602001612395565b906020916123cd81518092818552858086019101612393565b601f01601f1916010190565b81601f8201121561242e578035906001600160401b0382116122de576040519261240d601f8401601f1916602001856122bd565b8284526020838301011161242e57815f926020809301838601378301015290565b5f80fd5b600435906001600160a01b038216820361242e57565b604060031982011261242e57600435906001600160401b03821161242e57612472916004016123d9565b906024356001600160a01b038116810361242e5790565b6001548110156124a15760015f5260205f2001905f90565b634e487b7160e01b5f52603260045260245ffd5b80548210156124a1575f5260205f2001905f90565b61012060031982011261242e57600435906001600160401b03821161242e576124f5916004016123d9565b906024359060443590606435906084359060a4356001600160a01b038116810361242e579060c4359060e4359061010435801515810361242e5790565b969390989794919260e0969361010089019a895260208901526040880152606087015260018060a01b0316608086015260a085015260c08401521515910152565b91909182516001600160401b0381116122de576125908254612285565b601f8111612634575b50602080601f83116001146125d45750819293945f926125c9575b50508160011b915f199060031b1c1916179055565b015190505f806125b4565b90601f19831695845f52825f20925f905b88821061261c57505083600195969710612604575b505050811b019055565b01515f1960f88460031b161c191690555f80806125fa565b806001859682949686015181550195019301906125e5565b5f83815260208120601f840160051c81019260208510612671575b601f0160051c01915b828110612666575050612599565b818155600101612658565b909250829061264f565b61269390602060405192828480945193849201612393565b810103902090565b156126a257565b60405162461bcd60e51b815260206004820152601760248201527610dbdb5b5d5b9a5d1e48191bd95cdb89dd08195e1a5cdd604a1b6044820152606490fd5b156126e857565b60405162461bcd60e51b815260206004820152603960248201527f5573657220686173204f70656e205265766965772c20506c65617365207761696044820152783a103ab73a34b6361034ba1034b990383937b1b2b9b9b2b21760391b6064820152608490fd5b9081602091031261242e5751801515810361242e5790565b6001600160a01b039091168152604060208201819052612789929101906123b4565b90565b1561279357565b60405162461bcd60e51b815260206004820152602860248201527f596f7520617265206e6f742061206d656d62657220666f72207468697320636f60448201526736b6bab734ba3c9760c11b6064820152608490fd5b156127f057565b60405162461bcd60e51b815260206004820152601e60248201527f496e73756666696369656e7420637265647320746f2070726f706f73652e00006044820152606490fd5b1561283c57565b60405162461bcd60e51b81526020600482015260166024820152754d7573742073656e642070726f706f73616c2066656560501b6044820152606490fd5b5f1981146128885760010190565b634e487b7160e01b5f52601160045260245ffd5b60405190815f82546128ad81612285565b9360019180831690811561290e57506001146128d4575b5050602092505f81520301902090565b9091505f52602090815f20905f915b8583106128fa575050505060209181015f806128c4565b8054878401528694509183019181016128e3565b92505050602093915060ff191682528015150281015f806128c4565b9190820180921161288857565b919060018060a01b031682526020916040838201525f92825461295981612285565b9384604085015260019182811690815f146129b9575060011461297f575b505050505090565b5f908152828120949550935b8585106129a5575050506060925001015f80808080612977565b80548585016060015293820193810161298b565b93505050506060935060ff929192191683830152151560051b01015f80808080612977565b156129e557565b60405162461bcd60e51b81526020600482015260166024820152752737ba103a34329031b7b73a3930b1ba1037bbb732b960511b6044820152606490fd5b15612a2a57565b60405162461bcd60e51b815260206004820152601960248201527810dbdb5b5d5b9a5d1e48111bd95cc8139bdd08115e1cda5cdd603a1b6044820152606490fd5b6001600160401b0381116122de5760051b6020019056fea2646970667358221220434f4c8a3345491994be8e656e12b2c97ed906033def80b23e83a680c4bdea3864736f6c63430008140033","opcodes":"PUSH1 0x80 CALLVALUE PUSH2 0x6F JUMPI PUSH1 0x1F PUSH2 0x2B40 CODESIZE DUP2 SWAP1 SUB SWAP2 DUP3 ADD PUSH1 0x1F NOT AND DUP4 ADD SWAP2 PUSH1 0x1 PUSH1 0x1 PUSH1 0x40 SHL SUB DUP4 GT DUP5 DUP5 LT OR PUSH2 0x73 JUMPI DUP1 DUP5 SWAP3 PUSH1 0x20 SWAP5 PUSH1 0x40 MSTORE DUP4 CODECOPY DUP2 ADD SUB SLT PUSH2 0x6F JUMPI MLOAD PUSH1 0x9 DUP1 SLOAD PUSH1 0x1 PUSH1 0x1 PUSH1 0xA0 SHL SUB NOT AND CALLER OR SWAP1 SSTORE PUSH1 0xA SSTORE PUSH3 0x786450 PUSH1 0x3 SSTORE PUSH1 0x1 PUSH1 0x5 SSTORE PUSH1 0x40 MLOAD PUSH2 0x2AB8 SWAP1 DUP2 PUSH2 0x88 DUP3 CODECOPY RETURN JUMPDEST PUSH0 DUP1 REVERT JUMPDEST PUSH4 0x4E487B71 PUSH1 0xE0 SHL PUSH0 MSTORE PUSH1 0x41 PUSH1 0x4 MSTORE PUSH1 0x24 PUSH0 REVERT INVALID PUSH1 0x80 PUSH1 0x40 MSTORE PUSH1 0x4 CALLDATASIZE LT ISZERO PUSH2 0x11 JUMPI PUSH0 DUP1 REVERT JUMPDEST PUSH0 DUP1 CALLDATALOAD PUSH1 0xE0 SHR DUP1 PUSH4 0x13CF08B EQ PUSH2 0x21C0 JUMPI DUP1 PUSH4 0x163B968 EQ PUSH2 0x2197 JUMPI DUP1 PUSH4 0x4413D86 EQ PUSH2 0x2130 JUMPI DUP1 PUSH4 0xDC85F7D EQ PUSH2 0x20CD JUMPI DUP1 PUSH4 0x1282F609 EQ PUSH2 0x208A JUMPI DUP1 PUSH4 0x247C3A38 EQ PUSH2 0x2042 JUMPI DUP1 PUSH4 0x28ADC240 EQ PUSH2 0x1F79 JUMPI DUP1 PUSH4 0x298A5750 EQ PUSH2 0x1EA5 JUMPI DUP1 PUSH4 0x2F30F106 EQ PUSH2 0x1E4D JUMPI DUP1 PUSH4 0x31B4EA2E EQ PUSH2 0x1A89 JUMPI DUP1 PUSH4 0x3DF67352 EQ PUSH2 0x1A00 JUMPI DUP1 PUSH4 0x3EAB6BAC EQ PUSH2 0x19D7 JUMPI DUP1 PUSH4 0x4585E33B EQ PUSH2 0x16A4 JUMPI DUP1 PUSH4 0x5787A0CC EQ PUSH2 0x1674 JUMPI DUP1 PUSH4 0x5BDCD008 EQ PUSH2 0x1636 JUMPI DUP1 PUSH4 0x6219F117 EQ PUSH2 0x1356 JUMPI DUP1 PUSH4 0x68535709 EQ PUSH2 0x12DC JUMPI DUP1 PUSH4 0x69FE0E2D EQ PUSH2 0x12AC JUMPI DUP1 PUSH4 0x789AA8F6 EQ PUSH2 0x10B8 JUMPI DUP1 PUSH4 0x7B7FCFED EQ PUSH2 0x104E JUMPI DUP1 PUSH4 0x8126D895 EQ PUSH2 0xFE7 JUMPI DUP1 PUSH4 0x8A94AEA4 EQ PUSH2 0xF9F JUMPI DUP1 PUSH4 0x8B640440 EQ PUSH2 0xF6F JUMPI DUP1 PUSH4 0x90943A8B EQ PUSH2 0xF3C JUMPI DUP1 PUSH4 0xA169093B EQ PUSH2 0xF0C JUMPI DUP1 PUSH4 0xA64108D5 EQ PUSH2 0xD8F JUMPI DUP1 PUSH4 0xB07BCBC5 EQ PUSH2 0xA4D JUMPI DUP1 PUSH4 0xB3F6702D EQ PUSH2 0x9C8 JUMPI DUP1 PUSH4 0xC2C2E5F8 EQ PUSH2 0x94C JUMPI DUP1 PUSH4 0xC972F985 EQ PUSH2 0x920 JUMPI DUP1 PUSH4 0xC9D27AFE EQ PUSH2 0x4CA JUMPI DUP1 PUSH4 0xCBE02A9F EQ PUSH2 0x42D JUMPI DUP1 PUSH4 0xCED72F87 EQ PUSH2 0x1FD JUMPI DUP1 PUSH4 0xD0D83923 EQ PUSH2 0x266 JUMPI DUP1 PUSH4 0xD2AA789F EQ PUSH2 0x248 JUMPI DUP1 PUSH4 0xD978FFBA EQ PUSH2 0x21B JUMPI DUP1 PUSH4 0xDDCA3F43 EQ PUSH2 0x1FD JUMPI PUSH4 0xFF1225D9 EQ PUSH2 0x1BC JUMPI PUSH0 DUP1 REVERT JUMPDEST CALLVALUE PUSH2 0x1FA JUMPI PUSH1 0x20 CALLDATASIZE PUSH1 0x3 NOT ADD SLT PUSH2 0x1FA JUMPI PUSH1 0x20 SWAP1 PUSH1 0xFF SWAP1 PUSH1 0x40 SWAP1 PUSH1 0x1 PUSH1 0x1 PUSH1 0xA0 SHL SUB PUSH2 0x1E6 PUSH2 0x2432 JUMP JUMPDEST AND DUP2 MSTORE PUSH1 0x8 DUP5 MSTORE KECCAK256 SLOAD AND PUSH1 0x40 MLOAD SWAP1 ISZERO ISZERO DUP2 MSTORE RETURN JUMPDEST DUP1 REVERT JUMPDEST POP CALLVALUE PUSH2 0x1FA JUMPI DUP1 PUSH1 0x3 NOT CALLDATASIZE ADD SLT PUSH2 0x1FA JUMPI PUSH1 0x20 PUSH1 0xA SLOAD PUSH1 0x40 MLOAD SWAP1 DUP2 MSTORE RETURN JUMPDEST POP CALLVALUE PUSH2 0x1FA JUMPI PUSH1 0x20 CALLDATASIZE PUSH1 0x3 NOT ADD SLT PUSH2 0x1FA JUMPI PUSH1 0x3 PUSH1 0x40 PUSH1 0x20 SWAP3 PUSH1 0x4 CALLDATALOAD DUP2 MSTORE PUSH1 0x6 DUP5 MSTORE KECCAK256 ADD SLOAD PUSH1 0x40 MLOAD SWAP1 DUP2 MSTORE RETURN JUMPDEST POP CALLVALUE PUSH2 0x1FA JUMPI DUP1 PUSH1 0x3 NOT CALLDATASIZE ADD SLT PUSH2 0x1FA JUMPI PUSH1 0x20 PUSH1 0xD SLOAD PUSH1 0x40 MLOAD SWAP1 DUP2 MSTORE RETURN JUMPDEST POP CALLVALUE PUSH2 0x1FA JUMPI PUSH1 0x20 SWAP1 DUP2 PUSH1 0x3 NOT CALLDATASIZE ADD SLT PUSH2 0x1FA JUMPI PUSH1 0x4 CALLDATALOAD DUP1 DUP3 MSTORE PUSH1 0x6 DUP4 MSTORE PUSH1 0x40 DUP3 KECCAK256 SLOAD PUSH1 0x1 PUSH1 0x1 PUSH1 0xA0 SHL SUB SWAP1 DUP2 AND CALLER SUB PUSH2 0x3EC JUMPI DUP2 DUP4 MSTORE PUSH1 0x6 DUP5 MSTORE PUSH1 0x1 PUSH1 0xFF PUSH1 0xA PUSH1 0x40 DUP7 KECCAK256 ADD SLOAD AND ISZERO ISZERO SUB PUSH2 0x3A7 JUMPI DUP3 SWAP4 DUP2 PUSH1 0xC SLOAD AND DUP4 DUP6 MSTORE PUSH1 0x6 DUP3 MSTORE DUP2 PUSH1 0x4 PUSH1 0x40 DUP8 KECCAK256 ADD SLOAD PUSH1 0x24 PUSH1 0x40 MLOAD DUP1 SWAP5 DUP2 SWAP4 PUSH4 0x6F0817EB PUSH1 0xE1 SHL DUP4 MSTORE PUSH1 0x4 DUP4 ADD MSTORE GAS STATICCALL SWAP2 DUP3 ISZERO PUSH2 0x39C JUMPI DUP6 SWAP3 PUSH2 0x360 JUMPI JUMPDEST POP POP AND DUP1 EXTCODESIZE ISZERO PUSH2 0x35C JUMPI PUSH1 0x24 DUP4 SWAP3 PUSH1 0x40 MLOAD SWAP5 DUP6 SWAP4 DUP5 SWAP3 PUSH4 0x4CE4E6C7 PUSH1 0xE0 SHL DUP5 MSTORE PUSH1 0x4 DUP5 ADD MSTORE GAS CALL DUP1 ISZERO PUSH2 0x351 JUMPI PUSH2 0x329 JUMPI POP DUP1 RETURN JUMPDEST PUSH1 0x1 PUSH1 0x1 PUSH1 0x40 SHL SUB DUP2 GT PUSH2 0x33D JUMPI PUSH1 0x40 MSTORE DUP1 RETURN JUMPDEST PUSH4 0x4E487B71 PUSH1 0xE0 SHL DUP3 MSTORE PUSH1 0x41 PUSH1 0x4 MSTORE PUSH1 0x24 DUP3 REVERT JUMPDEST PUSH1 0x40 MLOAD RETURNDATASIZE DUP5 DUP3 RETURNDATACOPY RETURNDATASIZE SWAP1 REVERT JUMPDEST POP POP REVERT JUMPDEST SWAP1 DUP1 SWAP3 POP DUP2 RETURNDATASIZE DUP4 GT PUSH2 0x395 JUMPI JUMPDEST PUSH2 0x377 DUP2 DUP4 PUSH2 0x22BD JUMP JUMPDEST DUP2 ADD SUB SLT PUSH2 0x390 JUMPI MLOAD DUP2 DUP2 AND DUP2 SUB PUSH2 0x390 JUMPI PUSH0 DUP1 PUSH2 0x2F4 JUMP JUMPDEST POP POP POP REVERT JUMPDEST POP RETURNDATASIZE PUSH2 0x36D JUMP JUMPDEST PUSH1 0x40 MLOAD RETURNDATASIZE DUP8 DUP3 RETURNDATACOPY RETURNDATASIZE SWAP1 REVERT JUMPDEST PUSH1 0x40 MLOAD PUSH3 0x461BCD PUSH1 0xE5 SHL DUP2 MSTORE PUSH1 0x4 DUP2 ADD DUP6 SWAP1 MSTORE PUSH1 0x1B PUSH1 0x24 DUP3 ADD MSTORE PUSH32 0x546869732070726F706F73616C206973206E6F74206163746976650000000000 PUSH1 0x44 DUP3 ADD MSTORE PUSH1 0x64 SWAP1 REVERT JUMPDEST PUSH1 0x40 MLOAD PUSH3 0x461BCD PUSH1 0xE5 SHL DUP2 MSTORE PUSH1 0x4 DUP2 ADD DUP6 SWAP1 MSTORE PUSH1 0x19 PUSH1 0x24 DUP3 ADD MSTORE PUSH25 0x5573657220646964206E6F742070726F706F73652074686973 PUSH1 0x38 SHL PUSH1 0x44 DUP3 ADD MSTORE PUSH1 0x64 SWAP1 REVERT JUMPDEST POP CALLVALUE PUSH2 0x1FA JUMPI PUSH1 0x20 CALLDATASIZE PUSH1 0x3 NOT ADD SLT PUSH2 0x1FA JUMPI PUSH1 0x4 CALLDATALOAD PUSH1 0x1 PUSH1 0x1 PUSH1 0x40 SHL SUB DUP2 GT PUSH2 0x4C6 JUMPI SWAP1 PUSH1 0x5 PUSH2 0x4B2 PUSH1 0x20 PUSH2 0x467 DUP2 SWAP6 CALLDATASIZE SWAP1 PUSH1 0x4 ADD PUSH2 0x23D9 JUMP JUMPDEST PUSH1 0x40 MLOAD SWAP5 DUP2 MLOAD SWAP2 PUSH2 0x4A1 DUP5 DUP3 ADD SWAP4 PUSH2 0x480 DUP2 DUP11 DUP8 PUSH2 0x2393 JUMP JUMPDEST DUP9 ADD DUP4 DUP2 MSTORE DUP9 SWAP1 SUB DUP6 ADD SWAP1 SWAP8 KECCAK256 SLOAD PUSH1 0x1 PUSH1 0x1 PUSH1 0xA0 SHL SUB SWAP8 SWAP1 DUP9 AND ISZERO ISZERO PUSH2 0x2A23 JUMP JUMPDEST PUSH1 0x40 MLOAD SWAP5 DUP6 SWAP4 DUP5 SWAP3 MLOAD SWAP3 DUP4 SWAP2 PUSH2 0x2393 JUMP JUMPDEST DUP3 ADD SWAP1 DUP2 MSTORE SUB ADD SWAP1 KECCAK256 ADD SLOAD AND PUSH1 0x40 MLOAD SWAP1 DUP2 MSTORE RETURN JUMPDEST POP DUP1 REVERT JUMPDEST POP CALLVALUE PUSH2 0x1FA JUMPI PUSH1 0x40 CALLDATASIZE PUSH1 0x3 NOT ADD SLT PUSH2 0x1FA JUMPI PUSH1 0x24 DUP1 CALLDATALOAD DUP1 ISZERO ISZERO SWAP2 PUSH1 0x4 CALLDATALOAD SWAP1 DUP4 DUP4 SUB PUSH2 0x91C JUMPI PUSH1 0x5 SLOAD DUP3 LT ISZERO PUSH2 0x8DD JUMPI DUP2 DUP6 MSTORE PUSH1 0x20 SWAP1 PUSH1 0x6 DUP3 MSTORE PUSH1 0x40 DUP7 KECCAK256 SWAP1 PUSH1 0x1 SWAP2 DUP3 PUSH1 0xFF PUSH1 0xA DUP4 ADD SLOAD AND ISZERO ISZERO SUB PUSH2 0x899 JUMPI PUSH1 0x2 DUP2 ADD SLOAD SWAP2 DUP4 DUP3 ADD SWAP3 PUSH2 0x53B PUSH1 0x7 PUSH2 0x533 DUP7 PUSH2 0x289C JUMP JUMPDEST ADD SLOAD DUP3 PUSH2 0x292A JUMP JUMPDEST TIMESTAMP LT ISZERO SWAP1 DUP2 PUSH2 0x869 JUMPI JUMPDEST POP ISZERO PUSH2 0x82D JUMPI PUSH1 0xB SLOAD PUSH1 0x40 MLOAD PUSH4 0x5848E2A3 PUSH1 0xE1 SHL DUP2 MSTORE PUSH1 0x1 PUSH1 0x1 PUSH1 0xA0 SHL SUB SWAP1 SWAP2 AND SWAP4 SWAP1 DUP7 DUP2 DUP1 PUSH2 0x579 DUP6 CALLER PUSH1 0x4 DUP5 ADD PUSH2 0x2937 JUMP JUMPDEST SUB DUP2 DUP9 GAS STATICCALL DUP1 ISZERO PUSH2 0x763 JUMPI DUP7 SWAP2 DUP13 SWAP2 PUSH2 0x800 JUMPI JUMPDEST POP ISZERO ISZERO SUB PUSH2 0x7AC JUMPI PUSH1 0x9 DUP4 ADD SWAP4 CALLER DUP12 MSTORE DUP5 DUP8 MSTORE PUSH1 0xFF PUSH1 0x40 DUP13 KECCAK256 SLOAD AND PUSH2 0x76E JUMPI DUP7 PUSH1 0x40 MLOAD DUP1 SWAP3 PUSH4 0x2B5DF59 PUSH1 0xE0 SHL DUP3 MSTORE DUP2 DUP1 PUSH2 0x5CC DUP8 CALLER PUSH1 0x4 DUP5 ADD PUSH2 0x2937 JUMP JUMPDEST SUB SWAP2 GAS STATICCALL SWAP1 DUP2 ISZERO PUSH2 0x763 JUMPI DUP12 SWAP2 PUSH2 0x732 JUMPI JUMPDEST POP PUSH1 0x2 PUSH2 0x5EA DUP4 PUSH2 0x289C JUMP JUMPDEST ADD SLOAD DUP2 SLT PUSH2 0x6EE JUMPI PUSH1 0x3 PUSH2 0x5FD DUP4 PUSH2 0x289C JUMP JUMPDEST ADD SLOAD DUP2 SGT ISZERO PUSH2 0x6E6 JUMPI POP PUSH2 0x612 PUSH1 0x3 SWAP2 PUSH2 0x289C JUMP JUMPDEST ADD SLOAD SWAP7 JUMPDEST ISZERO PUSH2 0x697 JUMPI PUSH1 0x5 DUP3 ADD DUP1 SLOAD SWAP2 DUP6 DUP4 ADD DUP1 SWAP4 GT PUSH2 0x685 JUMPI POP SWAP2 PUSH1 0x7 SWAP2 PUSH32 0x7C2DE587C00D75474A0C6C6FA96FD3B45DC974CD4E8A75F712BB84C950DCE1B5 SWAP7 SWAP6 SWAP5 SWAP4 SSTORE ADD PUSH2 0x663 DUP8 DUP3 SLOAD PUSH2 0x292A JUMP JUMPDEST SWAP1 SSTORE JUMPDEST CALLER DUP9 MSTORE DUP3 MSTORE PUSH1 0x40 DUP8 KECCAK256 SWAP1 PUSH1 0xFF NOT DUP3 SLOAD AND OR SWAP1 SSTORE PUSH1 0x40 MLOAD SWAP4 DUP5 MSTORE CALLER SWAP4 LOG4 DUP1 RETURN JUMPDEST PUSH4 0x4E487B71 PUSH1 0xE0 SHL DUP12 MSTORE PUSH1 0x11 PUSH1 0x4 MSTORE DUP11 REVERT JUMPDEST PUSH1 0x6 DUP3 ADD DUP1 SLOAD SWAP2 DUP6 DUP4 ADD DUP1 SWAP4 GT PUSH2 0x685 JUMPI POP SWAP2 PUSH1 0x8 SWAP2 PUSH32 0x7C2DE587C00D75474A0C6C6FA96FD3B45DC974CD4E8A75F712BB84C950DCE1B5 SWAP7 SWAP6 SWAP5 SWAP4 SSTORE ADD PUSH2 0x6DF DUP8 DUP3 SLOAD PUSH2 0x292A JUMP JUMPDEST SWAP1 SSTORE PUSH2 0x666 JUMP JUMPDEST SWAP1 POP SWAP7 PUSH2 0x616 JUMP JUMPDEST PUSH1 0x40 MLOAD PUSH3 0x461BCD PUSH1 0xE5 SHL DUP2 MSTORE PUSH1 0x4 DUP2 ADD DUP9 SWAP1 MSTORE PUSH1 0x1B DUP2 DUP6 ADD MSTORE PUSH32 0x496E73756666696369656E7420637265647320746F20766F74652E0000000000 PUSH1 0x44 DUP3 ADD MSTORE PUSH1 0x64 SWAP1 REVERT JUMPDEST SWAP1 POP DUP7 DUP2 DUP2 RETURNDATASIZE DUP4 GT PUSH2 0x75C JUMPI JUMPDEST PUSH2 0x749 DUP2 DUP4 PUSH2 0x22BD JUMP JUMPDEST DUP2 ADD SUB SLT PUSH2 0x758 JUMPI MLOAD PUSH0 PUSH2 0x5DE JUMP JUMPDEST DUP11 DUP1 REVERT JUMPDEST POP RETURNDATASIZE PUSH2 0x73F JUMP JUMPDEST PUSH1 0x40 MLOAD RETURNDATASIZE DUP14 DUP3 RETURNDATACOPY RETURNDATASIZE SWAP1 REVERT JUMPDEST PUSH1 0x40 MLOAD PUSH3 0x461BCD PUSH1 0xE5 SHL DUP2 MSTORE PUSH1 0x4 DUP2 ADD DUP9 SWAP1 MSTORE PUSH1 0x17 DUP2 DUP6 ADD MSTORE PUSH23 0x2CB7BA903430BB329030B63932B0B23C903B37BA32B217 PUSH1 0x49 SHL PUSH1 0x44 DUP3 ADD MSTORE PUSH1 0x64 SWAP1 REVERT JUMPDEST PUSH1 0x40 MLOAD PUSH3 0x461BCD PUSH1 0xE5 SHL DUP2 MSTORE PUSH1 0x4 DUP2 ADD DUP8 SWAP1 MSTORE PUSH1 0x27 DUP2 DUP5 ADD MSTORE PUSH32 0x596F7520617265206E6F742061206D656D626572206F66207468697320636F6D PUSH1 0x44 DUP3 ADD MSTORE PUSH7 0x36BAB734BA3C97 PUSH1 0xC9 SHL PUSH1 0x64 DUP3 ADD MSTORE PUSH1 0x84 SWAP1 REVERT JUMPDEST PUSH2 0x820 SWAP2 POP DUP9 RETURNDATASIZE DUP11 GT PUSH2 0x826 JUMPI JUMPDEST PUSH2 0x818 DUP2 DUP4 PUSH2 0x22BD JUMP JUMPDEST DUP2 ADD SWAP1 PUSH2 0x274F JUMP JUMPDEST PUSH0 PUSH2 0x58D JUMP JUMPDEST POP RETURNDATASIZE PUSH2 0x80E JUMP JUMPDEST DUP5 PUSH1 0x16 PUSH1 0x64 SWAP3 PUSH1 0x40 MLOAD SWAP3 PUSH3 0x461BCD PUSH1 0xE5 SHL DUP5 MSTORE PUSH1 0x4 DUP5 ADD MSTORE DUP3 ADD MSTORE PUSH22 0x4E6F742041637469766520566F74696E672054696D65 PUSH1 0x50 SHL PUSH1 0x44 DUP3 ADD MSTORE REVERT JUMPDEST PUSH2 0x890 SWAP2 POP PUSH2 0x885 SWAP1 PUSH1 0x7 PUSH2 0x87D DUP8 PUSH2 0x289C JUMP JUMPDEST ADD SLOAD SWAP1 PUSH2 0x292A JUMP JUMPDEST PUSH1 0x6 PUSH2 0x87D DUP7 PUSH2 0x289C JUMP JUMPDEST TIMESTAMP GT ISZERO PUSH0 PUSH2 0x545 JUMP JUMPDEST PUSH1 0x40 MLOAD PUSH3 0x461BCD PUSH1 0xE5 SHL DUP2 MSTORE PUSH1 0x4 DUP2 ADD DUP6 SWAP1 MSTORE PUSH1 0x1C DUP2 DUP5 ADD MSTORE PUSH32 0x50726F706F73616C206973206E6F206C6F6E6765722041637469766500000000 PUSH1 0x44 DUP3 ADD MSTORE PUSH1 0x64 SWAP1 REVERT JUMPDEST PUSH1 0x64 SWAP1 PUSH1 0x18 PUSH1 0x40 MLOAD SWAP2 PUSH3 0x461BCD PUSH1 0xE5 SHL DUP4 MSTORE PUSH1 0x20 PUSH1 0x4 DUP5 ADD MSTORE DUP3 ADD MSTORE PUSH24 0x283937B837B9B0B6103237B2B9903737BA1032BC34B9BA17 PUSH1 0x41 SHL PUSH1 0x44 DUP3 ADD MSTORE REVERT JUMPDEST DUP5 DUP1 REVERT JUMPDEST POP CALLVALUE PUSH2 0x1FA JUMPI PUSH1 0x20 CALLDATASIZE PUSH1 0x3 NOT ADD SLT PUSH2 0x1FA JUMPI PUSH1 0x4 PUSH1 0x40 PUSH1 0x20 SWAP3 DUP3 CALLDATALOAD DUP2 MSTORE PUSH1 0x6 DUP5 MSTORE KECCAK256 ADD SLOAD PUSH1 0x40 MLOAD SWAP1 DUP2 MSTORE RETURN JUMPDEST POP CALLVALUE PUSH2 0x1FA JUMPI PUSH1 0x40 CALLDATASIZE PUSH1 0x3 NOT ADD SLT PUSH2 0x1FA JUMPI PUSH1 0x4 CALLDATALOAD PUSH1 0x1 PUSH1 0x1 PUSH1 0x40 SHL SUB DUP2 GT PUSH2 0x4C6 JUMPI PUSH2 0x97D SWAP1 CALLDATASIZE SWAP1 PUSH1 0x4 ADD PUSH2 0x23D9 JUMP JUMPDEST SWAP1 PUSH2 0x99A PUSH1 0x20 PUSH1 0x24 CALLDATALOAD SWAP4 DUP2 PUSH1 0x40 MLOAD SWAP4 DUP3 DUP6 DUP1 SWAP5 MLOAD SWAP4 DUP5 SWAP3 ADD PUSH2 0x2393 JUMP JUMPDEST DUP2 ADD PUSH1 0x7 DUP2 MSTORE SUB ADD SWAP1 KECCAK256 SWAP1 DUP2 SLOAD DUP4 LT ISZERO PUSH2 0x1FA JUMPI PUSH1 0x20 PUSH2 0x9BA DUP5 DUP5 PUSH2 0x24B5 JUMP JUMPDEST SWAP1 SLOAD PUSH1 0x40 MLOAD SWAP2 PUSH1 0x3 SHL SHR DUP2 MSTORE RETURN JUMPDEST POP CALLVALUE PUSH2 0x1FA JUMPI PUSH1 0x20 CALLDATASIZE PUSH1 0x3 NOT ADD SLT PUSH2 0x1FA JUMPI PUSH1 0x4 CALLDATALOAD PUSH1 0x1 PUSH1 0x1 PUSH1 0x40 SHL SUB DUP2 GT PUSH2 0x4C6 JUMPI SWAP1 PUSH2 0xA3A PUSH1 0x20 PUSH2 0xA00 DUP2 SWAP5 CALLDATASIZE SWAP1 PUSH1 0x4 ADD PUSH2 0x23D9 JUMP JUMPDEST PUSH1 0x40 MLOAD SWAP4 DUP2 MLOAD SWAP2 PUSH2 0x4A1 DUP5 DUP3 ADD SWAP4 PUSH2 0xA19 DUP2 DUP10 DUP8 PUSH2 0x2393 JUMP JUMPDEST DUP8 ADD DUP4 DUP2 MSTORE DUP8 SWAP1 SUB DUP6 ADD SWAP1 SWAP7 KECCAK256 SLOAD PUSH1 0x1 PUSH1 0x1 PUSH1 0xA0 SHL SUB SWAP7 SWAP1 DUP8 AND ISZERO ISZERO PUSH2 0x2A23 JUMP JUMPDEST DUP3 ADD SWAP1 DUP2 MSTORE SUB ADD SWAP1 KECCAK256 SLOAD AND PUSH1 0x40 MLOAD SWAP1 DUP2 MSTORE RETURN JUMPDEST POP PUSH2 0xA57 CALLDATASIZE PUSH2 0x2448 JUMP JUMPDEST SWAP2 PUSH1 0x40 MLOAD DUP3 MLOAD SWAP1 PUSH1 0x20 SWAP5 PUSH2 0xA94 DUP7 DUP7 ADD SWAP4 PUSH2 0xA73 DUP2 DUP6 DUP8 PUSH2 0x2393 JUMP JUMPDEST DUP4 ADD DUP6 DUP2 MSTORE DUP4 SWAP1 SUB DUP8 ADD SWAP1 SWAP3 KECCAK256 SLOAD PUSH1 0x1 PUSH1 0x1 PUSH1 0xA0 SHL SUB SWAP3 SWAP1 DUP4 AND ISZERO ISZERO PUSH2 0x269B JUMP JUMPDEST ORIGIN DUP5 MSTORE PUSH1 0x8 DUP7 MSTORE PUSH2 0xAAC PUSH1 0xFF PUSH1 0x40 DUP7 KECCAK256 SLOAD AND ISZERO PUSH2 0x26E1 JUMP JUMPDEST DUP2 PUSH1 0xB SLOAD AND PUSH1 0x40 MLOAD PUSH4 0x5848E2A3 PUSH1 0xE1 SHL DUP2 MSTORE DUP8 DUP2 DUP1 PUSH2 0xACF DUP11 ORIGIN PUSH1 0x4 DUP5 ADD PUSH2 0x2767 JUMP JUMPDEST SUB DUP2 DUP6 GAS STATICCALL SWAP1 DUP2 ISZERO PUSH2 0xD84 JUMPI PUSH2 0xAF2 SWAP2 PUSH1 0x1 SWAP2 DUP9 SWAP2 PUSH2 0xD67 JUMPI JUMPDEST POP ISZERO ISZERO EQ PUSH2 0x278C JUMP JUMPDEST DUP7 PUSH1 0x40 MLOAD DUP1 SWAP3 PUSH4 0x2B5DF59 PUSH1 0xE0 SHL DUP3 MSTORE DUP2 DUP1 PUSH2 0xB12 DUP12 ORIGIN PUSH1 0x4 DUP5 ADD PUSH2 0x2767 JUMP JUMPDEST SUB SWAP2 GAS STATICCALL DUP1 ISZERO PUSH2 0x39C JUMPI DUP6 SWAP1 PUSH2 0xD38 JUMPI JUMPDEST PUSH2 0xB4E SWAP2 POP PUSH1 0x1 PUSH1 0x40 MLOAD DUP10 DUP2 DUP11 MLOAD PUSH2 0xB3C DUP2 DUP4 DUP13 PUSH2 0x2393 JUMP JUMPDEST DUP2 ADD DUP11 DUP2 MSTORE SUB ADD SWAP1 KECCAK256 ADD SLOAD SGT ISZERO PUSH2 0x27E9 JUMP JUMPDEST PUSH2 0xB5B PUSH1 0xA SLOAD CALLVALUE EQ PUSH2 0x2835 JUMP JUMPDEST PUSH1 0x5 SWAP5 DUP6 SLOAD DUP6 MSTORE PUSH1 0x6 DUP8 MSTORE PUSH2 0xBF8 DUP8 PUSH1 0x40 DUP8 KECCAK256 SWAP6 PUSH1 0xA PUSH1 0x1 DUP1 PUSH1 0xA0 SHL SUB NOT SWAP8 ORIGIN DUP10 DUP3 SLOAD AND OR DUP2 SSTORE PUSH2 0xB8F DUP7 PUSH1 0x1 DUP4 ADD PUSH2 0x2573 JUMP JUMPDEST TIMESTAMP PUSH1 0x2 DUP3 ADD SSTORE PUSH1 0x2 PUSH1 0x3 DUP3 ADD SSTORE ADD PUSH1 0x1 PUSH1 0xFF NOT DUP3 SLOAD AND OR SWAP1 SSTORE DUP9 SLOAD SWAP4 PUSH2 0xBB4 DUP2 PUSH2 0x267B JUMP JUMPDEST PUSH1 0x40 MLOAD TIMESTAMP DUP2 MSTORE PUSH1 0x2 DUP6 DUP3 ADD MSTORE DUP7 PUSH32 0x6C98A8C940418B35614F0CD02412D5C9606FAFF474CBB6CDD6640BA5D1A9F06B PUSH1 0x40 CALLER SWAP4 LOG4 PUSH1 0x40 MLOAD SWAP4 DUP5 SWAP3 DUP4 SWAP3 MLOAD SWAP3 DUP4 SWAP2 PUSH2 0x2393 JUMP JUMPDEST DUP2 ADD PUSH1 0x7 DUP2 MSTORE SUB ADD SWAP1 KECCAK256 DUP1 SLOAD SWAP1 PUSH1 0x1 PUSH1 0x40 SHL DUP3 LT ISZERO PUSH2 0xD24 JUMPI SWAP2 PUSH2 0xC28 DUP3 DUP11 SWAP7 SWAP6 SWAP5 PUSH1 0x1 PUSH2 0xC40 SWAP6 ADD DUP2 SSTORE PUSH2 0x24B5 JUMP JUMPDEST SWAP1 SWAP2 SWAP1 DUP3 SLOAD SWAP1 PUSH1 0x3 SHL SWAP2 DUP3 SHL SWAP2 PUSH0 NOT SWAP1 SHL NOT AND OR SWAP1 SSTORE JUMP JUMPDEST DUP6 SLOAD DUP6 MSTORE PUSH1 0x4 DUP4 MSTORE DUP2 PUSH1 0x40 DUP7 KECCAK256 SWAP2 AND DUP1 SWAP5 DUP3 SLOAD AND OR SWAP1 SSTORE PUSH1 0x24 DUP6 SLOAD SWAP4 PUSH1 0x40 MLOAD SWAP5 DUP6 SWAP4 DUP5 SWAP3 DUP3 ORIGIN SWAP2 PUSH32 0x6A319039CAA9A0B231FC1A3D10D617C656E322EBAC0D326E9D0C95CBDE9248A4 DUP12 DUP1 LOG4 PUSH1 0xC SLOAD AND SWAP1 PUSH4 0xA993983B PUSH1 0xE0 SHL DUP4 MSTORE PUSH1 0x4 DUP4 ADD MSTORE CALLVALUE SWAP1 GAS CALL SWAP1 DUP2 ISZERO PUSH2 0x351 JUMPI DUP3 SWAP2 PUSH2 0xCF7 JUMPI JUMPDEST POP DUP3 SLOAD DUP3 MSTORE PUSH1 0x6 DUP5 MSTORE PUSH1 0x4 PUSH1 0x40 DUP4 KECCAK256 ADD SSTORE PUSH2 0xCCC DUP3 SLOAD PUSH2 0x287A JUMP JUMPDEST DUP1 SWAP3 SSTORE PUSH0 NOT DUP3 ADD SWAP2 DUP3 GT PUSH2 0xCE3 JUMPI POP PUSH1 0x40 MLOAD SWAP1 DUP2 MSTORE RETURN JUMPDEST PUSH4 0x4E487B71 PUSH1 0xE0 SHL DUP2 MSTORE PUSH1 0x11 PUSH1 0x4 MSTORE PUSH1 0x24 SWAP1 REVERT JUMPDEST SWAP1 POP DUP4 DUP2 DUP2 RETURNDATASIZE DUP4 GT PUSH2 0xD1D JUMPI JUMPDEST PUSH2 0xD0E DUP2 DUP4 PUSH2 0x22BD JUMP JUMPDEST DUP2 ADD SUB SLT PUSH2 0x4C6 JUMPI MLOAD PUSH0 PUSH2 0xCB1 JUMP JUMPDEST POP RETURNDATASIZE PUSH2 0xD04 JUMP JUMPDEST PUSH4 0x4E487B71 PUSH1 0xE0 SHL DUP8 MSTORE PUSH1 0x41 PUSH1 0x4 MSTORE PUSH1 0x24 DUP8 REVERT JUMPDEST POP DUP7 DUP2 DUP2 RETURNDATASIZE DUP4 GT PUSH2 0xD60 JUMPI JUMPDEST PUSH2 0xD4E DUP2 DUP4 PUSH2 0x22BD JUMP JUMPDEST DUP2 ADD SUB SLT PUSH2 0x91C JUMPI PUSH2 0xB4E SWAP1 MLOAD PUSH2 0xB23 JUMP JUMPDEST POP RETURNDATASIZE PUSH2 0xD44 JUMP JUMPDEST PUSH2 0xD7E SWAP2 POP DUP11 RETURNDATASIZE DUP13 GT PUSH2 0x826 JUMPI PUSH2 0x818 DUP2 DUP4 PUSH2 0x22BD JUMP JUMPDEST PUSH0 PUSH2 0xAE9 JUMP JUMPDEST PUSH1 0x40 MLOAD RETURNDATASIZE DUP9 DUP3 RETURNDATACOPY RETURNDATASIZE SWAP1 REVERT JUMPDEST POP CALLVALUE PUSH2 0x1FA JUMPI PUSH1 0x20 SWAP1 DUP2 PUSH1 0x3 NOT CALLDATASIZE ADD SLT PUSH2 0x1FA JUMPI PUSH1 0x4 CALLDATALOAD SWAP2 PUSH1 0x1 PUSH1 0x1 PUSH1 0x40 SHL SUB DUP4 GT PUSH2 0x4C6 JUMPI PUSH2 0xDC5 PUSH1 0xE0 SWAP4 CALLDATASIZE SWAP1 PUSH1 0x4 ADD PUSH2 0x23D9 JUMP JUMPDEST PUSH1 0x40 MLOAD SWAP3 PUSH2 0xDFB DUP3 MLOAD SWAP5 DUP5 DUP5 ADD SWAP6 PUSH2 0xDDE DUP2 DUP4 DUP10 PUSH2 0x2393 JUMP JUMPDEST DUP2 ADD DUP4 DUP2 MSTORE DUP2 SWAP1 SUB DUP6 ADD SWAP1 KECCAK256 SLOAD PUSH1 0x1 PUSH1 0x1 PUSH1 0xA0 SHL SUB AND ISZERO ISZERO PUSH2 0x2A23 JUMP JUMPDEST PUSH1 0x1 PUSH1 0x40 MLOAD DUP5 DUP2 DUP6 MLOAD PUSH2 0xE0F DUP2 DUP4 DUP12 PUSH2 0x2393 JUMP JUMPDEST DUP2 ADD DUP6 DUP2 MSTORE SUB ADD SWAP1 KECCAK256 ADD SLOAD SWAP4 PUSH1 0x2 PUSH1 0x40 MLOAD DUP6 DUP2 DUP7 MLOAD PUSH2 0xE2F DUP2 DUP4 DUP9 PUSH2 0x2393 JUMP JUMPDEST DUP2 ADD DUP7 DUP2 MSTORE SUB ADD SWAP1 KECCAK256 ADD SLOAD PUSH1 0x3 PUSH1 0x40 MLOAD DUP7 DUP2 DUP8 MLOAD PUSH2 0xE4E DUP2 DUP4 DUP10 PUSH2 0x2393 JUMP JUMPDEST DUP2 ADD DUP8 DUP2 MSTORE SUB ADD SWAP1 KECCAK256 ADD SLOAD SWAP1 PUSH1 0xFF PUSH1 0x8 PUSH2 0xED9 DUP9 PUSH1 0x4 PUSH2 0xE7B DUP3 DUP10 DUP13 PUSH1 0x40 MLOAD SWAP4 DUP5 SWAP3 DUP4 SWAP3 MLOAD SWAP3 DUP4 SWAP2 PUSH2 0x2393 JUMP JUMPDEST DUP2 ADD DUP13 DUP2 MSTORE SUB ADD SWAP1 KECCAK256 ADD SLOAD SWAP7 PUSH1 0x6 PUSH1 0x40 MLOAD DUP4 DUP2 DUP14 MLOAD PUSH2 0xE9B DUP2 DUP4 DUP9 PUSH2 0x2393 JUMP JUMPDEST DUP2 ADD DUP14 DUP2 MSTORE SUB ADD SWAP1 KECCAK256 ADD SLOAD SWAP9 PUSH1 0x7 DUP12 DUP5 PUSH1 0x40 MLOAD DUP1 SWAP3 MLOAD PUSH2 0xEBC DUP2 DUP4 DUP10 PUSH2 0x2393 JUMP JUMPDEST DUP2 ADD DUP6 DUP2 MSTORE SUB ADD SWAP1 KECCAK256 ADD SLOAD SWAP11 PUSH1 0x40 MLOAD SWAP5 DUP6 SWAP4 DUP5 SWAP3 MLOAD SWAP3 DUP4 SWAP2 PUSH2 0x2393 JUMP JUMPDEST DUP3 ADD SWAP1 DUP2 MSTORE SUB ADD SWAP1 KECCAK256 ADD SLOAD AND SWAP6 PUSH1 0x40 MLOAD SWAP8 DUP9 MSTORE DUP8 ADD MSTORE PUSH1 0x40 DUP7 ADD MSTORE PUSH1 0x60 DUP6 ADD MSTORE PUSH1 0x80 DUP5 ADD MSTORE PUSH1 0xA0 DUP4 ADD MSTORE ISZERO ISZERO PUSH1 0xC0 DUP3 ADD MSTORE RETURN JUMPDEST POP CALLVALUE PUSH2 0x1FA JUMPI PUSH1 0x20 CALLDATASIZE PUSH1 0x3 NOT ADD SLT PUSH2 0x1FA JUMPI PUSH2 0xF33 PUSH1 0x1 DUP1 PUSH1 0xA0 SHL SUB PUSH1 0x9 SLOAD AND CALLER EQ PUSH2 0x29DE JUMP JUMPDEST PUSH1 0x4 CALLDATALOAD PUSH1 0x3 SSTORE DUP1 RETURN JUMPDEST POP CALLVALUE PUSH2 0x1FA JUMPI PUSH1 0x20 CALLDATASIZE PUSH1 0x3 NOT ADD SLT PUSH2 0x1FA JUMPI PUSH1 0x20 SWAP1 PUSH1 0x4 CALLDATALOAD DUP2 MSTORE PUSH1 0x4 DUP3 MSTORE PUSH1 0x40 PUSH1 0x1 DUP1 PUSH1 0xA0 SHL SUB SWAP2 KECCAK256 SLOAD AND PUSH1 0x40 MLOAD SWAP1 DUP2 MSTORE RETURN JUMPDEST POP CALLVALUE PUSH2 0x1FA JUMPI PUSH1 0x20 CALLDATASIZE PUSH1 0x3 NOT ADD SLT PUSH2 0x1FA JUMPI PUSH2 0xF96 PUSH1 0x1 DUP1 PUSH1 0xA0 SHL SUB PUSH1 0x9 SLOAD AND CALLER EQ PUSH2 0x29DE JUMP JUMPDEST PUSH1 0x4 CALLDATALOAD PUSH1 0x5 SSTORE DUP1 RETURN JUMPDEST POP CALLVALUE PUSH2 0x1FA JUMPI PUSH1 0x20 CALLDATASIZE PUSH1 0x3 NOT ADD SLT PUSH2 0x1FA JUMPI PUSH2 0xFB9 PUSH2 0x2432 JUMP JUMPDEST PUSH1 0x9 SLOAD PUSH1 0x1 PUSH1 0x1 PUSH1 0xA0 SHL SUB SWAP2 SWAP1 PUSH2 0xFD3 SWAP1 DUP4 AND CALLER EQ PUSH2 0x29DE JUMP JUMPDEST AND PUSH1 0x1 DUP1 PUSH1 0xA0 SHL SUB NOT PUSH1 0xB SLOAD AND OR PUSH1 0xB SSTORE DUP1 RETURN JUMPDEST POP CALLVALUE PUSH2 0x1FA JUMPI PUSH1 0x20 CALLDATASIZE PUSH1 0x3 NOT ADD SLT PUSH2 0x1FA JUMPI PUSH1 0x40 SWAP1 PUSH1 0x4 CALLDATALOAD DUP2 MSTORE PUSH1 0x2 PUSH1 0x20 MSTORE KECCAK256 DUP1 SLOAD PUSH2 0x104A PUSH1 0x1 DUP4 ADD SLOAD SWAP3 PUSH1 0x2 DUP2 ADD SLOAD SWAP1 PUSH1 0x3 DUP2 ADD SLOAD PUSH1 0x1 DUP1 PUSH1 0xA0 SHL SUB PUSH1 0x4 DUP4 ADD SLOAD AND PUSH1 0x5 DUP4 ADD SLOAD SWAP2 PUSH1 0xFF PUSH1 0x7 PUSH1 0x6 DUP7 ADD SLOAD SWAP6 ADD SLOAD AND SWAP5 PUSH1 0x40 MLOAD SWAP9 DUP10 SWAP9 DUP10 PUSH2 0x2532 JUMP JUMPDEST SUB SWAP1 RETURN JUMPDEST POP CALLVALUE PUSH2 0x1FA JUMPI PUSH1 0x20 CALLDATASIZE PUSH1 0x3 NOT ADD SLT PUSH2 0x1FA JUMPI PUSH1 0x4 CALLDATALOAD PUSH1 0x1 PUSH1 0x1 PUSH1 0x40 SHL SUB DUP2 GT PUSH2 0x4C6 JUMPI SWAP1 PUSH2 0x1082 PUSH1 0x20 SWAP3 CALLDATASIZE SWAP1 PUSH1 0x4 ADD PUSH2 0x23D9 JUMP JUMPDEST DUP3 PUSH2 0x1096 PUSH1 0x40 MLOAD SWAP3 DUP4 DUP2 MLOAD SWAP4 DUP5 SWAP3 ADD PUSH2 0x2393 JUMP JUMPDEST DUP2 ADD SWAP2 DUP3 MSTORE SWAP1 DUP2 SWAP1 SUB DUP3 ADD SWAP1 KECCAK256 SLOAD PUSH1 0x40 MLOAD PUSH1 0x1 PUSH1 0x1 PUSH1 0xA0 SHL SUB SWAP1 SWAP2 AND ISZERO ISZERO DUP2 MSTORE RETURN JUMPDEST POP CALLVALUE PUSH2 0x1FA JUMPI PUSH1 0x60 CALLDATASIZE PUSH1 0x3 NOT ADD SLT PUSH2 0x1FA JUMPI PUSH1 0x4 CALLDATALOAD PUSH1 0x1 PUSH1 0x1 PUSH1 0x40 SHL SUB DUP2 GT PUSH2 0x4C6 JUMPI PUSH2 0x10E9 SWAP1 CALLDATASIZE SWAP1 PUSH1 0x4 ADD PUSH2 0x23D9 JUMP JUMPDEST PUSH1 0x24 SWAP1 PUSH1 0x44 CALLDATALOAD SWAP1 DUP3 CALLDATALOAD PUSH2 0x10FB DUP2 PUSH2 0x2A6B JUMP JUMPDEST SWAP4 PUSH2 0x1109 PUSH1 0x40 MLOAD SWAP6 DUP7 PUSH2 0x22BD JUMP JUMPDEST DUP2 DUP6 MSTORE PUSH2 0x1115 DUP3 PUSH2 0x2A6B JUMP JUMPDEST SWAP4 PUSH1 0x20 SWAP4 DUP5 DUP8 ADD SWAP6 PUSH1 0x1F NOT ADD CALLDATASIZE DUP8 CALLDATACOPY DUP8 SWAP1 DUP5 DUP4 MUL SWAP3 DUP1 DUP5 DIV DUP7 EQ SWAP1 ISZERO OR ISZERO PUSH2 0x1299 JUMPI PUSH2 0x1141 DUP6 DUP5 PUSH2 0x292A JUMP JUMPDEST SWAP2 PUSH1 0x40 MLOAD SWAP3 DUP3 MLOAD SWAP5 DUP9 DUP5 ADD SWAP6 PUSH2 0x1158 DUP2 DUP8 DUP10 PUSH2 0x2393 JUMP JUMPDEST DUP6 ADD SWAP5 DUP10 DUP2 PUSH1 0x7 SWAP8 DUP9 DUP2 MSTORE SUB ADD SWAP1 KECCAK256 SLOAD DUP3 GT PUSH2 0x1275 JUMPI JUMPDEST SWAP1 DUP9 SWAP5 SWAP3 SWAP6 SWAP4 SWAP2 SWAP6 JUMPDEST DUP2 DUP8 LT PUSH2 0x11FD JUMPI POP POP PUSH2 0x1197 SWAP5 POP PUSH1 0x40 MLOAD SWAP5 DUP6 SWAP4 DUP5 SWAP3 MLOAD SWAP3 DUP4 SWAP2 PUSH2 0x2393 JUMP JUMPDEST DUP3 ADD SWAP1 DUP2 MSTORE SUB ADD SWAP1 KECCAK256 SLOAD SWAP1 DUP3 ISZERO PUSH2 0x11EB JUMPI POP PUSH1 0x40 DUP1 MLOAD DUP2 DUP2 MSTORE SWAP6 MLOAD SWAP1 DUP7 ADD DUP2 SWAP1 MSTORE PUSH1 0x60 DUP7 ADD SWAP5 SWAP1 JUMPDEST DUP1 DUP9 LT PUSH2 0x11D4 JUMPI POP POP DUP5 SWAP6 POP DIV SWAP1 DUP4 ADD MSTORE SUB SWAP1 RETURN JUMPDEST SWAP1 SWAP5 DUP5 DUP1 PUSH1 0x1 SWAP3 DUP9 MLOAD DUP2 MSTORE ADD SWAP7 ADD SWAP8 ADD SWAP7 SWAP1 PUSH2 0x11BF JUMP JUMPDEST PUSH4 0x4E487B71 PUSH1 0xE0 SHL DUP8 MSTORE PUSH1 0x12 PUSH1 0x4 MSTORE DUP7 REVERT JUMPDEST SWAP1 SWAP2 SWAP4 SWAP6 SWAP3 SWAP5 POP PUSH2 0x122A DUP4 PUSH1 0x40 MLOAD DUP12 DUP2 DUP1 PUSH2 0x121C DUP13 DUP12 MLOAD SWAP3 DUP4 SWAP2 PUSH2 0x2393 JUMP JUMPDEST DUP2 ADD DUP11 DUP2 MSTORE SUB ADD SWAP1 KECCAK256 PUSH2 0x24B5 JUMP JUMPDEST SWAP1 SLOAD SWAP1 DUP13 MLOAD DUP4 LT ISZERO PUSH2 0x1262 JUMPI PUSH1 0x3 SHL SHR PUSH1 0x5 DUP3 SWAP1 SHL DUP13 ADD DUP11 ADD MSTORE PUSH2 0x1257 SWAP1 PUSH2 0x1251 SWAP1 PUSH2 0x287A JUMP JUMPDEST SWAP3 PUSH2 0x287A JUMP JUMPDEST SWAP5 SWAP3 SWAP1 DUP9 SWAP5 SWAP3 PUSH2 0x1178 JUMP JUMPDEST PUSH4 0x4E487B71 PUSH1 0xE0 SHL DUP15 MSTORE PUSH1 0x32 PUSH1 0x4 MSTORE DUP9 DUP15 REVERT JUMPDEST SWAP1 POP PUSH1 0x40 MLOAD DUP9 DUP2 DUP6 MLOAD PUSH2 0x1289 DUP2 DUP4 DUP12 PUSH2 0x2393 JUMP JUMPDEST DUP2 ADD DUP8 DUP2 MSTORE SUB ADD SWAP1 KECCAK256 SLOAD SWAP1 PUSH2 0x116F JUMP JUMPDEST PUSH4 0x4E487B71 PUSH1 0xE0 SHL DUP10 MSTORE PUSH1 0x11 PUSH1 0x4 MSTORE DUP4 DUP10 REVERT JUMPDEST POP CALLVALUE PUSH2 0x1FA JUMPI PUSH1 0x20 CALLDATASIZE PUSH1 0x3 NOT ADD SLT PUSH2 0x1FA JUMPI PUSH2 0x12D3 PUSH1 0x1 DUP1 PUSH1 0xA0 SHL SUB PUSH1 0x9 SLOAD AND CALLER EQ PUSH2 0x29DE JUMP JUMPDEST PUSH1 0x4 CALLDATALOAD PUSH1 0xA SSTORE DUP1 RETURN JUMPDEST POP CALLVALUE PUSH2 0x1FA JUMPI PUSH1 0x40 CALLDATASIZE PUSH1 0x3 NOT ADD SLT PUSH2 0x1FA JUMPI PUSH1 0xA0 SWAP1 PUSH2 0x12F9 PUSH2 0x2432 JUMP JUMPDEST SWAP1 PUSH1 0x24 CALLDATALOAD DUP2 MSTORE PUSH1 0x6 PUSH1 0x20 MSTORE PUSH1 0x40 DUP2 KECCAK256 SWAP2 PUSH1 0x5 DUP4 ADD SLOAD SWAP3 PUSH1 0xFF PUSH1 0x40 PUSH1 0x7 DUP4 ADD SLOAD SWAP5 PUSH1 0x9 PUSH1 0x6 DUP6 ADD SLOAD SWAP5 PUSH1 0x8 DUP2 ADD SLOAD SWAP7 PUSH1 0x1 DUP1 DUP13 SHL SUB AND DUP4 MSTORE ADD PUSH1 0x20 MSTORE KECCAK256 SLOAD AND SWAP3 PUSH1 0x40 MLOAD SWAP5 DUP6 MSTORE PUSH1 0x20 DUP6 ADD MSTORE PUSH1 0x40 DUP5 ADD MSTORE PUSH1 0x60 DUP4 ADD MSTORE ISZERO ISZERO PUSH1 0x80 DUP3 ADD MSTORE RETURN JUMPDEST POP CALLVALUE PUSH2 0x1FA JUMPI PUSH2 0x1365 CALLDATASIZE PUSH2 0x24CA JUMP JUMPDEST SWAP5 SWAP8 DUP3 SWAP4 SWAP3 SWAP8 SWAP7 SWAP8 SWAP5 SWAP2 SWAP5 SWAP4 PUSH1 0x40 MLOAD DUP3 MLOAD SWAP1 PUSH1 0x20 SWAP3 DUP14 DUP5 DUP7 ADD SWAP4 PUSH2 0x138A DUP2 DUP6 DUP8 PUSH2 0x2393 JUMP JUMPDEST DUP4 ADD SWAP1 DUP2 MSTORE DUP3 SWAP1 SUB DUP5 ADD SWAP1 SWAP2 KECCAK256 SLOAD PUSH1 0x1 PUSH1 0x1 PUSH1 0xA0 SHL SUB SWAP2 SWAP1 DUP3 AND PUSH2 0x15F5 JUMPI DUP10 SWAP3 SWAP2 DUP14 DUP16 SWAP3 DUP14 DUP16 SWAP2 PUSH1 0x3 SLOAD DUP1 SWAP2 GT PUSH2 0x15EB JUMPI JUMPDEST POP SWAP4 PUSH2 0x14F8 SWAP4 DUP10 DUP10 SWAP5 DUP9 SWAP5 PUSH1 0x8 SWAP9 PUSH1 0x1 PUSH2 0x1412 DUP10 PUSH2 0x1513 SWAP15 SWAP14 PUSH1 0x40 MLOAD DUP3 DUP2 DUP11 MLOAD PUSH2 0x13E7 DUP2 DUP4 DUP8 PUSH2 0x2393 JUMP JUMPDEST DUP2 ADD DUP14 DUP2 MSTORE SUB ADD SWAP1 KECCAK256 SWAP8 DUP5 DUP1 PUSH1 0xA0 SHL SUB NOT SWAP9 CALLER DUP11 DUP3 SLOAD AND OR SWAP1 SSTORE PUSH1 0x40 MLOAD SWAP4 DUP5 SWAP3 DUP4 SWAP3 MLOAD SWAP3 DUP4 SWAP2 PUSH2 0x2393 JUMP JUMPDEST DUP2 ADD DUP11 DUP2 MSTORE SUB ADD SWAP1 KECCAK256 ADD SSTORE PUSH1 0x2 DUP14 DUP9 PUSH1 0x40 MLOAD DUP1 SWAP3 MLOAD PUSH2 0x1432 DUP2 DUP4 DUP14 PUSH2 0x2393 JUMP JUMPDEST DUP2 ADD DUP10 DUP2 MSTORE SUB ADD SWAP1 KECCAK256 ADD SSTORE PUSH1 0x3 DUP13 DUP8 PUSH1 0x40 MLOAD DUP1 SWAP3 MLOAD PUSH2 0x1452 DUP2 DUP4 DUP13 PUSH2 0x2393 JUMP JUMPDEST DUP2 ADD DUP9 DUP2 MSTORE SUB ADD SWAP1 KECCAK256 ADD SSTORE DUP12 PUSH1 0x4 DUP13 DUP8 PUSH1 0x40 MLOAD DUP1 SWAP3 MLOAD PUSH2 0x1473 DUP2 DUP4 DUP13 PUSH2 0x2393 JUMP JUMPDEST DUP2 ADD DUP9 DUP2 MSTORE SUB ADD SWAP1 KECCAK256 ADD SSTORE PUSH1 0x5 DUP12 DUP7 PUSH1 0x40 MLOAD DUP1 SWAP3 MLOAD PUSH2 0x1493 DUP2 DUP4 DUP12 PUSH2 0x2393 JUMP JUMPDEST DUP2 ADD DUP8 DUP2 MSTORE SUB ADD SWAP1 KECCAK256 ADD SWAP2 DUP14 AND SWAP1 DUP3 SLOAD AND OR SWAP1 SSTORE DUP12 PUSH1 0x6 PUSH1 0x40 MLOAD DUP6 DUP2 DUP14 MLOAD PUSH2 0x14BC DUP2 DUP4 DUP11 PUSH2 0x2393 JUMP JUMPDEST DUP2 ADD DUP7 DUP2 MSTORE SUB ADD SWAP1 KECCAK256 ADD SSTORE DUP13 PUSH1 0x7 PUSH1 0x40 MLOAD DUP6 DUP2 DUP14 MLOAD PUSH2 0x14DC DUP2 DUP4 DUP11 PUSH2 0x2393 JUMP JUMPDEST DUP2 ADD DUP7 DUP2 MSTORE SUB ADD SWAP1 KECCAK256 ADD SSTORE PUSH1 0x40 MLOAD DUP1 SWAP5 DUP2 SWAP4 DUP12 MLOAD SWAP3 DUP4 SWAP2 PUSH2 0x2393 JUMP JUMPDEST DUP3 ADD SWAP1 DUP2 MSTORE SUB ADD SWAP1 KECCAK256 ADD SWAP1 PUSH1 0xFF DUP1 NOT DUP4 SLOAD AND SWAP2 ISZERO ISZERO AND OR SWAP1 SSTORE JUMP JUMPDEST PUSH1 0x1 SLOAD PUSH1 0x1 PUSH1 0x40 SHL DUP2 LT ISZERO PUSH2 0x15D7 JUMPI DUP1 PUSH1 0x1 PUSH2 0x1532 SWAP3 ADD PUSH1 0x1 SSTORE PUSH2 0x2489 JUMP JUMPDEST PUSH2 0x15C3 JUMPI DUP3 PUSH32 0xA33E969841918D6C70510FF52AAF2F08256C371553465CDD2BEB001C23B0F504 SWAP11 SWAP10 SWAP9 SWAP7 SWAP5 SWAP3 PUSH2 0x1570 PUSH2 0x15BD SWAP10 SWAP8 SWAP6 PUSH2 0x15B0 SWAP5 PUSH2 0x2573 JUMP JUMPDEST PUSH32 0x770333F2D96FAAE538A5391FA34D7F90A88DC8AF3AADCB1735C43839CB695566 PUSH1 0x40 PUSH2 0x159C DUP5 PUSH2 0x267B JUMP JUMPDEST SWAP3 DUP2 MLOAD SWAP1 CALLER DUP3 MSTORE DUP12 ISZERO ISZERO SWAP1 DUP3 ADD MSTORE LOG2 PUSH2 0x267B JUMP JUMPDEST SWAP10 PUSH1 0x40 MLOAD SWAP9 DUP10 SWAP9 DUP10 PUSH2 0x2532 JUMP JUMPDEST SUB SWAP1 LOG2 DUP1 RETURN JUMPDEST PUSH4 0x4E487B71 PUSH1 0xE0 SHL DUP13 MSTORE PUSH1 0x4 DUP13 SWAP1 MSTORE PUSH1 0x24 DUP13 REVERT JUMPDEST PUSH4 0x4E487B71 PUSH1 0xE0 SHL DUP13 MSTORE PUSH1 0x41 PUSH1 0x4 MSTORE PUSH1 0x24 DUP13 REVERT JUMPDEST SWAP12 POP PUSH2 0x14F8 PUSH2 0x13BC JUMP JUMPDEST PUSH1 0x40 MLOAD PUSH3 0x461BCD PUSH1 0xE5 SHL DUP2 MSTORE PUSH1 0x4 DUP2 ADD DUP6 SWAP1 MSTORE PUSH1 0x19 PUSH1 0x24 DUP3 ADD MSTORE PUSH25 0x21B7B6B6BAB734BA3C9030B63932B0B23C9032BC34B9BA3997 PUSH1 0x39 SHL PUSH1 0x44 DUP3 ADD MSTORE PUSH1 0x64 SWAP1 REVERT JUMPDEST POP CALLVALUE PUSH2 0x1FA JUMPI PUSH1 0x20 CALLDATASIZE PUSH1 0x3 NOT ADD SLT PUSH2 0x1FA JUMPI PUSH1 0xA PUSH1 0x40 DUP1 SWAP3 PUSH1 0x4 CALLDATALOAD DUP2 MSTORE PUSH1 0x6 PUSH1 0x20 MSTORE KECCAK256 ADD SLOAD PUSH1 0xFF DUP3 MLOAD SWAP2 DUP2 DUP2 AND ISZERO ISZERO DUP4 MSTORE PUSH1 0x8 SHR AND ISZERO ISZERO PUSH1 0x20 DUP3 ADD MSTORE RETURN JUMPDEST POP CALLVALUE PUSH2 0x1FA JUMPI PUSH1 0x20 CALLDATASIZE PUSH1 0x3 NOT ADD SLT PUSH2 0x1FA JUMPI PUSH2 0x169B PUSH1 0x1 DUP1 PUSH1 0xA0 SHL SUB PUSH1 0x9 SLOAD AND CALLER EQ PUSH2 0x29DE JUMP JUMPDEST PUSH1 0x4 CALLDATALOAD PUSH1 0xD SSTORE DUP1 RETURN JUMPDEST POP CALLVALUE PUSH2 0x1FA JUMPI PUSH1 0x20 DUP1 PUSH1 0x3 NOT CALLDATASIZE ADD SLT PUSH2 0x4C6 JUMPI PUSH1 0x4 CALLDATALOAD PUSH1 0x1 PUSH1 0x1 PUSH1 0x40 SHL SUB DUP1 DUP3 GT PUSH2 0x19D3 JUMPI CALLDATASIZE PUSH1 0x23 DUP4 ADD SLT ISZERO PUSH2 0x19D3 JUMPI DUP2 PUSH1 0x4 ADD CALLDATALOAD SWAP1 DUP2 GT PUSH2 0x19D3 JUMPI DUP2 ADD CALLDATASIZE PUSH1 0x24 DUP3 ADD GT PUSH2 0x19D3 JUMPI DUP2 DUP4 SWAP2 SUB SLT PUSH2 0x19CF JUMPI PUSH1 0x24 ADD CALLDATALOAD SWAP1 DUP2 DUP4 MSTORE PUSH1 0x6 SWAP1 DUP2 DUP2 MSTORE PUSH1 0x40 DUP5 KECCAK256 PUSH1 0x2 SWAP1 PUSH2 0x1738 PUSH2 0x1723 DUP4 DUP4 ADD SLOAD PUSH1 0x7 PUSH2 0x87D PUSH1 0x1 DUP1 SWAP7 ADD PUSH2 0x289C JUMP JUMPDEST DUP7 DUP9 MSTORE DUP6 DUP6 MSTORE DUP6 PUSH2 0x87D DUP5 PUSH1 0x40 DUP12 KECCAK256 ADD PUSH2 0x289C JUMP JUMPDEST DUP6 ISZERO ISZERO SWAP1 DUP2 PUSH2 0x19C4 JUMPI JUMPDEST DUP2 PUSH2 0x19BA JUMPI JUMPDEST POP PUSH2 0x1751 JUMPI DUP6 DUP1 RETURN JUMPDEST DUP5 DUP7 MSTORE DUP4 DUP4 MSTORE PUSH1 0x40 DUP7 KECCAK256 SWAP2 PUSH1 0x5 DUP4 ADD SLOAD DUP6 DUP5 ADD SLOAD DUP1 DUP3 GT SWAP2 DUP3 PUSH2 0x198A JUMPI JUMPDEST DUP3 PUSH2 0x1968 JUMPI JUMPDEST POP POP ISZERO PUSH2 0x18E1 JUMPI DUP2 PUSH1 0x3 DUP5 ADD SLOAD DUP3 DUP2 EQ PUSH0 EQ PUSH2 0x1847 JUMPI POP POP POP DUP5 DUP7 MSTORE PUSH1 0x4 DUP4 MSTORE PUSH1 0x40 DUP7 KECCAK256 SLOAD DUP2 SWAP1 DUP7 SWAP1 PUSH1 0x1 PUSH1 0x1 PUSH1 0xA0 SHL SUB AND PUSH32 0xCA5BE02C86F988B49C8F55FA1445E2252A5DE3AFAA608CC35DB41FEB6C22F83A DUP10 DUP1 LOG4 JUMPDEST DUP5 PUSH32 0x35BAAEC8D9C9DA1C77F27119243A4384B49EAE2BF0680AA0EEBE3B62D28574A5 DUP8 DUP1 LOG3 DUP4 DUP6 MSTORE DUP3 DUP3 MSTORE PUSH1 0x40 DUP6 KECCAK256 PUSH1 0xA ADD DUP1 SLOAD PUSH2 0xFF00 NOT AND PUSH2 0x100 OR SWAP1 SSTORE JUMPDEST SLOAD PUSH1 0x1 PUSH1 0x1 PUSH1 0xA0 SHL SUB AND DUP5 MSTORE PUSH1 0x8 DUP2 MSTORE PUSH1 0x40 DUP1 DUP6 KECCAK256 DUP1 SLOAD PUSH1 0xFF NOT SWAP1 DUP2 AND SWAP1 SWAP2 SSTORE SWAP4 DUP6 MSTORE SWAP2 SWAP1 MSTORE DUP3 KECCAK256 PUSH1 0xA ADD DUP1 SLOAD SWAP1 SWAP2 AND SWAP1 SSTORE PUSH0 DUP1 DUP1 DUP1 DUP1 DUP6 DUP1 RETURN JUMPDEST EQ PUSH2 0x1853 JUMPI JUMPDEST POP PUSH2 0x17CC JUMP JUMPDEST PUSH2 0x18DB SWAP1 PUSH1 0x8 PUSH1 0xFF PUSH1 0x7 PUSH2 0x1868 DUP7 DUP9 ADD PUSH2 0x289C JUMP JUMPDEST SWAP4 DUP11 DUP13 MSTORE DUP1 DUP10 MSTORE PUSH1 0x40 DUP13 KECCAK256 SWAP1 DUP2 SLOAD DUP9 DUP8 ADD SSTORE DUP8 DUP3 ADD SLOAD DUP2 DUP8 ADD SSTORE DUP2 ADD SLOAD PUSH1 0x3 DUP7 ADD SSTORE PUSH1 0x3 DUP2 ADD SLOAD PUSH1 0x4 DUP7 ADD SSTORE PUSH1 0x1 DUP1 PUSH1 0xA0 SHL SUB PUSH1 0x4 DUP3 ADD SLOAD AND PUSH1 0x5 DUP7 ADD SWAP1 PUSH1 0x1 DUP1 PUSH1 0xA0 SHL SUB NOT DUP3 SLOAD AND OR SWAP1 SSTORE PUSH1 0x5 DUP2 ADD SLOAD DUP11 DUP7 ADD SSTORE DUP10 DUP2 ADD SLOAD DUP3 DUP7 ADD SSTORE ADD SLOAD AND SWAP2 ADD SWAP1 PUSH1 0xFF DUP1 NOT DUP4 SLOAD AND SWAP2 ISZERO ISZERO AND OR SWAP1 SSTORE JUMP JUMPDEST PUSH0 PUSH2 0x184D JUMP JUMPDEST DUP6 DUP8 MSTORE DUP5 DUP5 MSTORE PUSH1 0x40 DUP8 KECCAK256 PUSH1 0xA ADD DUP1 SLOAD PUSH2 0xFF00 NOT AND SWAP1 SSTORE SWAP1 POP DUP6 DUP6 PUSH32 0x35BAAEC8D9C9DA1C77F27119243A4384B49EAE2BF0680AA0EEBE3B62D28574A5 DUP3 DUP1 LOG3 PUSH1 0x3 DUP3 ADD SLOAD SUB PUSH2 0x180C JUMPI PUSH1 0x4 DUP3 MSTORE PUSH1 0x40 DUP6 KECCAK256 SLOAD DUP6 SWAP1 DUP6 SWAP1 PUSH1 0x1 PUSH1 0x1 PUSH1 0xA0 SHL SUB AND PUSH32 0xCA5BE02C86F988B49C8F55FA1445E2252A5DE3AFAA608CC35DB41FEB6C22F83A DUP4 DUP1 LOG4 PUSH2 0x180C JUMP JUMPDEST PUSH2 0x1972 SWAP3 POP PUSH2 0x292A JUMP JUMPDEST PUSH1 0x4 PUSH2 0x197F DUP5 DUP7 ADD PUSH2 0x289C JUMP JUMPDEST ADD SLOAD GT ISZERO PUSH0 DUP1 PUSH2 0x1775 JUMP JUMPDEST SWAP2 POP PUSH1 0x7 DUP6 ADD SLOAD PUSH1 0x8 DUP7 ADD SLOAD LT DUP1 ISZERO PUSH2 0x19A4 JUMPI JUMPDEST SWAP2 PUSH2 0x176F JUMP JUMPDEST POP PUSH1 0x3 PUSH2 0x19B2 DUP6 DUP8 ADD PUSH2 0x289C JUMP JUMPDEST ADD SLOAD ISZERO PUSH2 0x199E JUMP JUMPDEST SWAP1 POP ISZERO ISZERO PUSH0 PUSH2 0x1748 JUMP JUMPDEST TIMESTAMP DUP2 GT ISZERO SWAP2 POP PUSH2 0x1742 JUMP JUMPDEST DUP3 DUP1 REVERT JUMPDEST DUP4 DUP1 REVERT JUMPDEST POP CALLVALUE PUSH2 0x1FA JUMPI DUP1 PUSH1 0x3 NOT CALLDATASIZE ADD SLT PUSH2 0x1FA JUMPI PUSH1 0xC SLOAD PUSH1 0x40 MLOAD PUSH1 0x1 PUSH1 0x1 PUSH1 0xA0 SHL SUB SWAP1 SWAP2 AND DUP2 MSTORE PUSH1 0x20 SWAP1 RETURN JUMPDEST POP CALLVALUE PUSH2 0x1FA JUMPI PUSH1 0x20 CALLDATASIZE PUSH1 0x3 NOT ADD SLT PUSH2 0x1FA JUMPI PUSH1 0x4 CALLDATALOAD PUSH1 0x1 PUSH1 0x1 PUSH1 0x40 SHL SUB DUP2 GT PUSH2 0x4C6 JUMPI PUSH1 0x8 PUSH2 0x1A73 PUSH1 0x20 DUP1 SWAP5 PUSH2 0x1A3C PUSH1 0xFF SWAP6 CALLDATASIZE SWAP1 PUSH1 0x4 ADD PUSH2 0x23D9 JUMP JUMPDEST SWAP1 PUSH1 0x40 MLOAD SWAP2 PUSH2 0x4A1 DUP2 MLOAD SWAP4 DUP6 DUP4 ADD SWAP5 PUSH2 0x1A56 DUP2 DUP4 DUP9 PUSH2 0x2393 JUMP JUMPDEST DUP2 ADD DUP5 DUP2 MSTORE DUP2 SWAP1 SUB DUP7 ADD SWAP1 KECCAK256 SLOAD PUSH1 0x1 PUSH1 0x1 PUSH1 0xA0 SHL SUB AND ISZERO ISZERO PUSH2 0x2A23 JUMP JUMPDEST DUP3 ADD SWAP1 DUP2 MSTORE SUB ADD SWAP1 KECCAK256 ADD SLOAD AND PUSH1 0x40 MLOAD SWAP1 ISZERO ISZERO DUP2 MSTORE RETURN JUMPDEST POP PUSH2 0x1A93 CALLDATASIZE PUSH2 0x24CA JUMP JUMPDEST SWAP3 SWAP1 SWAP2 SWAP9 SWAP8 SWAP7 SWAP4 PUSH2 0x1AD4 PUSH1 0x20 PUSH1 0x40 SWAP9 SWAP8 SWAP9 MLOAD PUSH2 0x1AB5 DUP12 DUP3 DUP2 MLOAD SWAP5 DUP6 SWAP3 ADD PUSH2 0x2393 JUMP JUMPDEST SWAP1 DUP2 ADD DUP12 DUP2 MSTORE DUP2 SWAP1 SUB PUSH1 0x20 ADD SWAP1 KECCAK256 SLOAD PUSH1 0x1 PUSH1 0x1 PUSH1 0xA0 SHL SUB AND ISZERO ISZERO PUSH2 0x269B JUMP JUMPDEST ORIGIN DUP10 MSTORE PUSH1 0x8 PUSH1 0x20 MSTORE PUSH2 0x1AED PUSH1 0xFF PUSH1 0x40 DUP12 KECCAK256 SLOAD AND ISZERO PUSH2 0x26E1 JUMP JUMPDEST PUSH1 0xB SLOAD PUSH1 0x40 MLOAD PUSH4 0x5848E2A3 PUSH1 0xE1 SHL DUP2 MSTORE PUSH1 0x1 PUSH1 0x1 PUSH1 0xA0 SHL SUB SWAP1 SWAP2 AND SWAP1 PUSH1 0x20 DUP2 DUP1 PUSH2 0x1B1B DUP14 ORIGIN PUSH1 0x4 DUP5 ADD PUSH2 0x2767 JUMP JUMPDEST SUB DUP2 DUP6 GAS STATICCALL SWAP1 DUP2 ISZERO PUSH2 0x763 JUMPI PUSH2 0x1B61 SWAP3 PUSH2 0x1B45 PUSH1 0x1 PUSH1 0x20 SWAP5 DUP16 SWAP5 DUP16 SWAP6 SWAP2 PUSH2 0x1E36 JUMPI POP ISZERO ISZERO EQ PUSH2 0x278C JUMP JUMPDEST PUSH1 0x40 MLOAD DUP1 DUP1 SWAP6 DUP2 SWAP5 PUSH4 0x2B5DF59 PUSH1 0xE0 SHL DUP4 MSTORE ORIGIN PUSH1 0x4 DUP5 ADD PUSH2 0x2767 JUMP JUMPDEST SUB SWAP2 GAS STATICCALL SWAP1 DUP2 ISZERO PUSH2 0x1E2B JUMPI SWAP1 DUP11 DUP11 SWAP3 DUP2 SWAP3 PUSH2 0x1DEE JUMPI JUMPDEST POP PUSH2 0x1B97 PUSH1 0x20 PUSH2 0x1BA9 SWAP5 PUSH1 0x1 SWAP4 DUP3 PUSH1 0x40 MLOAD SWAP5 DUP4 DUP7 DUP1 SWAP6 MLOAD SWAP4 DUP5 SWAP3 ADD PUSH2 0x2393 JUMP JUMPDEST DUP3 ADD SWAP1 DUP2 MSTORE SUB ADD SWAP1 KECCAK256 ADD SLOAD SGT ISZERO PUSH2 0x27E9 JUMP JUMPDEST PUSH2 0x1BB6 PUSH1 0xA SLOAD CALLVALUE EQ PUSH2 0x2835 JUMP JUMPDEST PUSH1 0x5 SLOAD DUP10 MSTORE PUSH1 0x2 PUSH1 0x20 MSTORE PUSH1 0x40 DUP10 KECCAK256 PUSH1 0x3 SLOAD DUP1 DUP13 GT PUSH2 0x1DE6 JUMPI JUMPDEST POP PUSH1 0x6 PUSH1 0x20 MSTORE PUSH1 0x40 DUP11 KECCAK256 DUP1 SLOAD PUSH1 0x1 PUSH1 0x1 PUSH1 0xA0 SHL SUB NOT AND ORIGIN OR DUP2 SSTORE PUSH1 0xA SWAP1 PUSH2 0x1BF9 DUP12 PUSH1 0x1 DUP4 ADD PUSH2 0x2573 JUMP JUMPDEST TIMESTAMP PUSH1 0x2 DUP3 ADD SSTORE PUSH1 0x1 PUSH1 0x3 DUP3 ADD SSTORE ADD PUSH1 0x1 PUSH1 0xFF NOT DUP3 SLOAD AND OR SWAP1 SSTORE PUSH1 0x5 SLOAD PUSH2 0x1C1E DUP11 PUSH2 0x267B JUMP JUMPDEST PUSH1 0x40 MLOAD TIMESTAMP DUP2 MSTORE PUSH1 0x1 PUSH1 0x20 DUP3 ADD MSTORE DUP3 PUSH32 0x6C98A8C940418B35614F0CD02412D5C9606FAFF474CBB6CDD6640BA5D1A9F06B PUSH1 0x40 CALLER SWAP4 LOG4 PUSH2 0x1C6B PUSH1 0x20 DUP12 DUP2 PUSH1 0x40 MLOAD SWAP4 DUP3 DUP6 DUP1 SWAP5 MLOAD SWAP4 DUP5 SWAP3 ADD PUSH2 0x2393 JUMP JUMPDEST DUP2 ADD PUSH1 0x7 DUP2 MSTORE SUB ADD SWAP1 KECCAK256 DUP1 SLOAD SWAP1 PUSH1 0x1 PUSH1 0x40 SHL DUP3 LT ISZERO PUSH2 0x1DD2 JUMPI DUP8 PUSH1 0x7 PUSH2 0x15B0 SWAP15 SWAP16 SWAP6 PUSH2 0x1CCE PUSH32 0x65513F3A4B238816F691E4322BE549C10EEAA1EF78FE116618B0D83E5CA252B6 SWAP14 SWAP13 SWAP12 SWAP10 SWAP7 PUSH2 0xC28 DUP8 PUSH2 0x1D1C SWAP8 PUSH1 0x1 PUSH2 0x1D27 SWAP16 SWAP14 SWAP11 ADD DUP2 SSTORE PUSH2 0x24B5 JUMP JUMPDEST DUP11 DUP2 SSTORE DUP12 PUSH1 0x1 DUP3 ADD SSTORE DUP14 PUSH1 0x2 DUP3 ADD SSTORE DUP5 PUSH1 0x3 DUP3 ADD SSTORE PUSH1 0x4 DUP2 ADD PUSH1 0x1 DUP1 PUSH1 0xA0 SHL SUB DUP8 AND PUSH1 0x1 DUP1 PUSH1 0xA0 SHL SUB NOT DUP3 SLOAD AND OR SWAP1 SSTORE DUP7 PUSH1 0x5 DUP3 ADD SSTORE DUP8 PUSH1 0x6 DUP3 ADD SSTORE ADD SWAP1 PUSH1 0xFF DUP1 NOT DUP4 SLOAD AND SWAP2 ISZERO ISZERO AND OR SWAP1 SSTORE JUMP JUMPDEST PUSH1 0x5 SLOAD SWAP12 DUP13 SWAP12 PUSH2 0x267B JUMP JUMPDEST SUB SWAP1 LOG3 PUSH1 0xC SLOAD PUSH1 0x40 MLOAD PUSH4 0xA993983B PUSH1 0xE0 SHL DUP2 MSTORE PUSH1 0x4 DUP2 ADD SWAP3 SWAP1 SWAP3 MSTORE PUSH1 0x20 SWAP1 DUP3 SWAP1 PUSH1 0x24 SWAP1 DUP3 SWAP1 CALLVALUE SWAP1 PUSH1 0x1 PUSH1 0x1 PUSH1 0xA0 SHL SUB AND GAS CALL SWAP1 DUP2 ISZERO PUSH2 0x351 JUMPI DUP3 SWAP2 PUSH2 0x1DA0 JUMPI JUMPDEST POP PUSH1 0x5 SLOAD DUP3 MSTORE PUSH1 0x6 PUSH1 0x20 MSTORE PUSH1 0x4 PUSH1 0x40 DUP4 KECCAK256 ADD SSTORE PUSH2 0x1D85 PUSH1 0x5 SLOAD PUSH2 0x287A JUMP JUMPDEST SWAP1 DUP2 PUSH1 0x5 SSTORE PUSH0 NOT DUP3 ADD SWAP2 DUP3 GT PUSH2 0xCE3 JUMPI PUSH1 0x20 DUP3 PUSH1 0x40 MLOAD SWAP1 DUP2 MSTORE RETURN JUMPDEST SWAP1 POP PUSH1 0x20 DUP2 RETURNDATASIZE PUSH1 0x20 GT PUSH2 0x1DCA JUMPI JUMPDEST DUP2 PUSH2 0x1DBB PUSH1 0x20 SWAP4 DUP4 PUSH2 0x22BD JUMP JUMPDEST DUP2 ADD SUB SLT PUSH2 0x4C6 JUMPI MLOAD PUSH0 PUSH2 0x1D67 JUMP JUMPDEST RETURNDATASIZE SWAP2 POP PUSH2 0x1DAE JUMP JUMPDEST PUSH4 0x4E487B71 PUSH1 0xE0 SHL DUP14 MSTORE PUSH1 0x41 PUSH1 0x4 MSTORE PUSH1 0x24 DUP14 REVERT JUMPDEST SWAP11 POP PUSH0 PUSH2 0x1BCF JUMP JUMPDEST SWAP3 POP POP POP PUSH1 0x20 DUP2 RETURNDATASIZE PUSH1 0x20 GT PUSH2 0x1E23 JUMPI JUMPDEST DUP2 PUSH2 0x1E0B PUSH1 0x20 SWAP4 DUP4 PUSH2 0x22BD JUMP JUMPDEST DUP2 ADD SUB SLT PUSH2 0x1E1F JUMPI MLOAD DUP9 SWAP1 DUP11 PUSH2 0x1B97 PUSH2 0x1B77 JUMP JUMPDEST DUP10 DUP1 REVERT JUMPDEST RETURNDATASIZE SWAP2 POP PUSH2 0x1DFE JUMP JUMPDEST PUSH1 0x40 MLOAD RETURNDATASIZE DUP13 DUP3 RETURNDATACOPY RETURNDATASIZE SWAP1 REVERT JUMPDEST PUSH2 0xD7E SWAP2 POP DUP7 RETURNDATASIZE DUP9 GT PUSH2 0x826 JUMPI PUSH2 0x818 DUP2 DUP4 PUSH2 0x22BD JUMP JUMPDEST POP CALLVALUE PUSH2 0x1FA JUMPI PUSH1 0x20 CALLDATASIZE PUSH1 0x3 NOT ADD SLT PUSH2 0x1FA JUMPI PUSH2 0x1E9D PUSH1 0x20 SWAP2 PUSH1 0x6 PUSH2 0x87D PUSH1 0x1 PUSH1 0x40 PUSH1 0x4 CALLDATALOAD SWAP5 DUP6 DUP2 MSTORE DUP5 DUP9 MSTORE PUSH2 0x1E90 DUP3 DUP3 KECCAK256 PUSH1 0x7 PUSH2 0x87D DUP7 PUSH1 0x2 DUP5 ADD SLOAD SWAP4 ADD PUSH2 0x289C JUMP JUMPDEST SWAP6 DUP2 MSTORE DUP5 DUP9 MSTORE KECCAK256 ADD PUSH2 0x289C JUMP JUMPDEST PUSH1 0x40 MLOAD SWAP1 DUP2 MSTORE RETURN JUMPDEST POP CALLVALUE PUSH2 0x1FA JUMPI PUSH2 0x1EB4 CALLDATASIZE PUSH2 0x2448 JUMP JUMPDEST SWAP1 PUSH1 0x40 MLOAD SWAP1 DUP1 MLOAD SWAP1 PUSH1 0x20 DUP2 ADD SWAP2 PUSH2 0x1ECC DUP2 DUP6 DUP6 PUSH2 0x2393 JUMP JUMPDEST DUP4 ADD DUP6 DUP2 MSTORE DUP4 SWAP1 SUB PUSH1 0x20 ADD SWAP1 SWAP3 KECCAK256 SLOAD PUSH1 0x1 PUSH1 0x1 PUSH1 0xA0 SHL SUB SWAP3 SWAP1 DUP4 AND CALLER SUB PUSH2 0x1F24 JUMPI PUSH2 0x1F05 SWAP2 PUSH1 0x20 SWAP2 PUSH1 0x40 MLOAD SWAP4 DUP5 SWAP3 DUP4 SWAP3 MLOAD SWAP3 DUP4 SWAP2 PUSH2 0x2393 JUMP JUMPDEST DUP2 ADD DUP7 DUP2 MSTORE SUB ADD SWAP1 KECCAK256 DUP1 SLOAD PUSH1 0x1 PUSH1 0x1 PUSH1 0xA0 SHL SUB NOT AND SWAP2 SWAP1 SWAP3 AND OR SWAP1 SSTORE DUP1 RETURN JUMPDEST PUSH1 0x40 MLOAD PUSH3 0x461BCD PUSH1 0xE5 SHL DUP2 MSTORE PUSH1 0x20 PUSH1 0x4 DUP3 ADD MSTORE PUSH1 0x27 PUSH1 0x24 DUP3 ADD MSTORE PUSH32 0x55736572206973206E6F7420746865206F776E6572206F66207468697320636F PUSH1 0x44 DUP3 ADD MSTORE PUSH7 0x6D6D756E697479 PUSH1 0xC8 SHL PUSH1 0x64 DUP3 ADD MSTORE PUSH1 0x84 SWAP1 REVERT JUMPDEST POP CALLVALUE PUSH2 0x1FA JUMPI PUSH1 0x20 CALLDATASIZE PUSH1 0x3 NOT ADD SLT PUSH2 0x1FA JUMPI PUSH1 0x4 CALLDATALOAD PUSH1 0x1 PUSH1 0x1 PUSH1 0x40 SHL SUB DUP2 GT PUSH2 0x4C6 JUMPI PUSH1 0x20 PUSH2 0x120 SWAP3 PUSH2 0x1FB3 PUSH2 0x1FC7 SWAP4 CALLDATASIZE SWAP1 PUSH1 0x4 ADD PUSH2 0x23D9 JUMP JUMPDEST SWAP1 DUP3 PUSH1 0x40 MLOAD SWAP5 DUP4 DUP7 DUP1 SWAP6 MLOAD SWAP4 DUP5 SWAP3 ADD PUSH2 0x2393 JUMP JUMPDEST DUP3 ADD SWAP1 DUP2 MSTORE SUB ADD SWAP1 KECCAK256 PUSH1 0x1 DUP1 PUSH1 0xA0 SHL SUB DUP1 DUP3 SLOAD AND SWAP2 PUSH1 0x1 DUP2 ADD SLOAD SWAP2 PUSH1 0x2 DUP3 ADD SLOAD SWAP1 PUSH1 0x3 DUP4 ADD SLOAD SWAP1 PUSH1 0x4 DUP5 ADD SLOAD SWAP1 PUSH1 0x5 DUP6 ADD SLOAD AND SWAP2 PUSH1 0x6 DUP6 ADD SLOAD SWAP4 PUSH1 0xFF PUSH1 0x8 PUSH1 0x7 DUP9 ADD SLOAD SWAP8 ADD SLOAD AND SWAP7 PUSH1 0x40 MLOAD SWAP9 DUP10 MSTORE PUSH1 0x20 DUP10 ADD MSTORE PUSH1 0x40 DUP9 ADD MSTORE PUSH1 0x60 DUP8 ADD MSTORE PUSH1 0x80 DUP7 ADD MSTORE PUSH1 0xA0 DUP6 ADD MSTORE PUSH1 0xC0 DUP5 ADD MSTORE PUSH1 0xE0 DUP4 ADD MSTORE ISZERO ISZERO PUSH2 0x100 DUP3 ADD MSTORE RETURN JUMPDEST POP CALLVALUE PUSH2 0x1FA JUMPI PUSH1 0x20 CALLDATASIZE PUSH1 0x3 NOT ADD SLT PUSH2 0x1FA JUMPI PUSH2 0x205C PUSH2 0x2432 JUMP JUMPDEST PUSH1 0x9 SLOAD PUSH1 0x1 PUSH1 0x1 PUSH1 0xA0 SHL SUB SWAP2 SWAP1 PUSH2 0x2076 SWAP1 DUP4 AND CALLER EQ PUSH2 0x29DE JUMP JUMPDEST AND PUSH1 0x1 DUP1 PUSH1 0xA0 SHL SUB NOT PUSH1 0xC SLOAD AND OR PUSH1 0xC SSTORE DUP1 RETURN JUMPDEST POP CALLVALUE PUSH2 0x1FA JUMPI PUSH1 0x20 CALLDATASIZE PUSH1 0x3 NOT ADD SLT PUSH2 0x1FA JUMPI PUSH2 0x20B1 PUSH1 0x1 DUP1 PUSH1 0xA0 SHL SUB PUSH1 0x9 SLOAD AND CALLER EQ PUSH2 0x29DE JUMP JUMPDEST PUSH1 0x4 CALLDATALOAD DUP2 MSTORE PUSH1 0x6 PUSH1 0x20 MSTORE PUSH1 0x40 DUP2 KECCAK256 PUSH1 0xA ADD DUP1 SLOAD PUSH1 0xFF NOT AND SWAP1 SSTORE DUP1 RETURN JUMPDEST POP CALLVALUE PUSH2 0x1FA JUMPI PUSH1 0x20 CALLDATASIZE PUSH1 0x3 NOT ADD SLT PUSH2 0x1FA JUMPI PUSH1 0x4 CALLDATALOAD PUSH1 0x1 SLOAD DUP2 LT ISZERO PUSH2 0x4C6 JUMPI PUSH2 0x20F5 SWAP1 PUSH2 0x2489 JUMP JUMPDEST SWAP2 SWAP1 SWAP2 PUSH2 0x211C JUMPI PUSH2 0x104A PUSH2 0x2108 DUP4 PUSH2 0x22F2 JUMP JUMPDEST PUSH1 0x40 MLOAD SWAP2 DUP3 SWAP2 PUSH1 0x20 DUP4 MSTORE PUSH1 0x20 DUP4 ADD SWAP1 PUSH2 0x23B4 JUMP JUMPDEST PUSH4 0x4E487B71 PUSH1 0xE0 SHL DUP2 MSTORE PUSH1 0x4 DUP2 SWAP1 MSTORE PUSH1 0x24 SWAP1 REVERT JUMPDEST POP CALLVALUE PUSH2 0x1FA JUMPI PUSH1 0x20 DUP1 DUP1 SWAP3 PUSH2 0x2181 PUSH2 0x2147 CALLDATASIZE PUSH2 0x2448 JUMP JUMPDEST SWAP5 SWAP1 PUSH1 0x40 MLOAD SWAP4 DUP2 MLOAD SWAP2 PUSH2 0x4A1 DUP5 DUP3 ADD SWAP4 PUSH2 0x2162 DUP2 DUP10 DUP8 PUSH2 0x2393 JUMP JUMPDEST DUP8 ADD DUP4 DUP2 MSTORE DUP8 PUSH1 0x1 DUP1 PUSH1 0xA0 SHL SUB SWAP10 DUP11 SWAP10 DUP11 SWAP4 SUB ADD SWAP1 KECCAK256 SLOAD AND ISZERO ISZERO PUSH2 0x2A23 JUMP JUMPDEST DUP3 ADD SWAP1 DUP2 MSTORE SUB ADD SWAP1 KECCAK256 SLOAD AND SWAP1 PUSH1 0x40 MLOAD SWAP3 AND EQ DUP2 MSTORE RETURN JUMPDEST POP CALLVALUE PUSH2 0x1FA JUMPI DUP1 PUSH1 0x3 NOT CALLDATASIZE ADD SLT PUSH2 0x1FA JUMPI PUSH1 0xB SLOAD PUSH1 0x40 MLOAD PUSH1 0x1 PUSH1 0x1 PUSH1 0xA0 SHL SUB SWAP1 SWAP2 AND DUP2 MSTORE PUSH1 0x20 SWAP1 RETURN JUMPDEST POP CALLVALUE PUSH2 0x1FA JUMPI PUSH1 0x20 CALLDATASIZE PUSH1 0x3 NOT ADD SLT PUSH2 0x1FA JUMPI PUSH1 0x4 CALLDATALOAD DUP2 MSTORE PUSH1 0x6 PUSH1 0x20 MSTORE PUSH1 0x40 SWAP1 KECCAK256 DUP1 SLOAD PUSH1 0x1 PUSH1 0x1 PUSH1 0xA0 SHL SUB AND PUSH2 0x21F7 PUSH1 0x1 DUP4 ADD PUSH2 0x22F2 JUMP JUMPDEST SWAP2 PUSH1 0xFF PUSH1 0x2 DUP3 ADD SLOAD SWAP2 PUSH1 0x3 DUP2 ADD SLOAD SWAP1 PUSH1 0x4 DUP2 ADD SLOAD PUSH1 0x5 DUP3 ADD SLOAD PUSH1 0x6 DUP4 ADD SLOAD SWAP1 PUSH1 0x7 DUP5 ADD SLOAD SWAP3 PUSH1 0xA PUSH1 0x8 DUP7 ADD SLOAD SWAP6 ADD SLOAD SWAP6 PUSH2 0x2245 PUSH1 0x40 MLOAD SWAP12 DUP13 SWAP12 DUP13 MSTORE PUSH1 0x20 DUP13 PUSH2 0x160 SWAP2 DUP3 SWAP2 ADD MSTORE DUP13 ADD SWAP1 PUSH2 0x23B4 JUMP JUMPDEST SWAP9 PUSH1 0x40 DUP12 ADD MSTORE PUSH1 0x60 DUP11 ADD MSTORE PUSH1 0x80 DUP10 ADD MSTORE PUSH1 0xA0 DUP9 ADD MSTORE PUSH1 0xC0 DUP8 ADD MSTORE PUSH1 0xE0 DUP7 ADD MSTORE PUSH2 0x100 DUP6 ADD MSTORE DUP2 DUP2 AND ISZERO ISZERO PUSH2 0x120 DUP6 ADD MSTORE PUSH1 0x8 SHR AND ISZERO ISZERO PUSH2 0x140 DUP4 ADD MSTORE SUB SWAP1 RETURN JUMPDEST SWAP1 PUSH1 0x1 DUP3 DUP2 SHR SWAP3 AND DUP1 ISZERO PUSH2 0x22B3 JUMPI JUMPDEST PUSH1 0x20 DUP4 LT EQ PUSH2 0x229F JUMPI JUMP JUMPDEST PUSH4 0x4E487B71 PUSH1 0xE0 SHL PUSH0 MSTORE PUSH1 0x22 PUSH1 0x4 MSTORE PUSH1 0x24 PUSH0 REVERT JUMPDEST SWAP2 PUSH1 0x7F AND SWAP2 PUSH2 0x2294 JUMP JUMPDEST SWAP1 PUSH1 0x1F DUP1 NOT SWAP2 ADD AND DUP2 ADD SWAP1 DUP2 LT PUSH1 0x1 PUSH1 0x1 PUSH1 0x40 SHL SUB DUP3 GT OR PUSH2 0x22DE JUMPI PUSH1 0x40 MSTORE JUMP JUMPDEST PUSH4 0x4E487B71 PUSH1 0xE0 SHL PUSH0 MSTORE PUSH1 0x41 PUSH1 0x4 MSTORE PUSH1 0x24 PUSH0 REVERT JUMPDEST SWAP1 PUSH1 0x40 MLOAD SWAP2 DUP3 PUSH0 DUP3 SLOAD SWAP3 PUSH2 0x2305 DUP5 PUSH2 0x2285 JUMP JUMPDEST SWAP1 DUP2 DUP5 MSTORE PUSH1 0x1 SWAP5 DUP6 DUP2 AND SWAP1 DUP2 PUSH0 EQ PUSH2 0x2370 JUMPI POP PUSH1 0x1 EQ PUSH2 0x2330 JUMPI JUMPDEST POP POP PUSH2 0x232E SWAP3 POP SUB DUP4 PUSH2 0x22BD JUMP JUMPDEST JUMP JUMPDEST SWAP1 SWAP4 SWAP2 POP PUSH0 MSTORE PUSH1 0x20 SWAP1 DUP2 PUSH0 KECCAK256 SWAP4 PUSH0 SWAP2 JUMPDEST DUP2 DUP4 LT PUSH2 0x2358 JUMPI POP POP PUSH2 0x232E SWAP4 POP DUP3 ADD ADD PUSH0 DUP1 PUSH2 0x2320 JUMP JUMPDEST DUP6 SLOAD DUP9 DUP5 ADD DUP6 ADD MSTORE SWAP5 DUP6 ADD SWAP5 DUP8 SWAP5 POP SWAP2 DUP4 ADD SWAP2 PUSH2 0x2340 JUMP JUMPDEST SWAP2 POP POP PUSH2 0x232E SWAP5 POP PUSH1 0x20 SWAP3 POP PUSH1 0xFF NOT AND DUP3 DUP5 ADD MSTORE ISZERO ISZERO PUSH1 0x5 SHL DUP3 ADD ADD PUSH0 DUP1 PUSH2 0x2320 JUMP JUMPDEST PUSH0 JUMPDEST DUP4 DUP2 LT PUSH2 0x23A4 JUMPI POP POP PUSH0 SWAP2 ADD MSTORE JUMP JUMPDEST DUP2 DUP2 ADD MLOAD DUP4 DUP3 ADD MSTORE PUSH1 0x20 ADD PUSH2 0x2395 JUMP JUMPDEST SWAP1 PUSH1 0x20 SWAP2 PUSH2 0x23CD DUP2 MLOAD DUP1 SWAP3 DUP2 DUP6 MSTORE DUP6 DUP1 DUP7 ADD SWAP2 ADD PUSH2 0x2393 JUMP JUMPDEST PUSH1 0x1F ADD PUSH1 0x1F NOT AND ADD ADD SWAP1 JUMP JUMPDEST DUP2 PUSH1 0x1F DUP3 ADD SLT ISZERO PUSH2 0x242E JUMPI DUP1 CALLDATALOAD SWAP1 PUSH1 0x1 PUSH1 0x1 PUSH1 0x40 SHL SUB DUP3 GT PUSH2 0x22DE JUMPI PUSH1 0x40 MLOAD SWAP3 PUSH2 0x240D PUSH1 0x1F DUP5 ADD PUSH1 0x1F NOT AND PUSH1 0x20 ADD DUP6 PUSH2 0x22BD JUMP JUMPDEST DUP3 DUP5 MSTORE PUSH1 0x20 DUP4 DUP4 ADD ADD GT PUSH2 0x242E JUMPI DUP2 PUSH0 SWAP3 PUSH1 0x20 DUP1 SWAP4 ADD DUP4 DUP7 ADD CALLDATACOPY DUP4 ADD ADD MSTORE SWAP1 JUMP JUMPDEST PUSH0 DUP1 REVERT JUMPDEST PUSH1 0x4 CALLDATALOAD SWAP1 PUSH1 0x1 PUSH1 0x1 PUSH1 0xA0 SHL SUB DUP3 AND DUP3 SUB PUSH2 0x242E JUMPI JUMP JUMPDEST PUSH1 0x40 PUSH1 0x3 NOT DUP3 ADD SLT PUSH2 0x242E JUMPI PUSH1 0x4 CALLDATALOAD SWAP1 PUSH1 0x1 PUSH1 0x1 PUSH1 0x40 SHL SUB DUP3 GT PUSH2 0x242E JUMPI PUSH2 0x2472 SWAP2 PUSH1 0x4 ADD PUSH2 0x23D9 JUMP JUMPDEST SWAP1 PUSH1 0x24 CALLDATALOAD PUSH1 0x1 PUSH1 0x1 PUSH1 0xA0 SHL SUB DUP2 AND DUP2 SUB PUSH2 0x242E JUMPI SWAP1 JUMP JUMPDEST PUSH1 0x1 SLOAD DUP2 LT ISZERO PUSH2 0x24A1 JUMPI PUSH1 0x1 PUSH0 MSTORE PUSH1 0x20 PUSH0 KECCAK256 ADD SWAP1 PUSH0 SWAP1 JUMP JUMPDEST PUSH4 0x4E487B71 PUSH1 0xE0 SHL PUSH0 MSTORE PUSH1 0x32 PUSH1 0x4 MSTORE PUSH1 0x24 PUSH0 REVERT JUMPDEST DUP1 SLOAD DUP3 LT ISZERO PUSH2 0x24A1 JUMPI PUSH0 MSTORE PUSH1 0x20 PUSH0 KECCAK256 ADD SWAP1 PUSH0 SWAP1 JUMP JUMPDEST PUSH2 0x120 PUSH1 0x3 NOT DUP3 ADD SLT PUSH2 0x242E JUMPI PUSH1 0x4 CALLDATALOAD SWAP1 PUSH1 0x1 PUSH1 0x1 PUSH1 0x40 SHL SUB DUP3 GT PUSH2 0x242E JUMPI PUSH2 0x24F5 SWAP2 PUSH1 0x4 ADD PUSH2 0x23D9 JUMP JUMPDEST SWAP1 PUSH1 0x24 CALLDATALOAD SWAP1 PUSH1 0x44 CALLDATALOAD SWAP1 PUSH1 0x64 CALLDATALOAD SWAP1 PUSH1 0x84 CALLDATALOAD SWAP1 PUSH1 0xA4 CALLDATALOAD PUSH1 0x1 PUSH1 0x1 PUSH1 0xA0 SHL SUB DUP2 AND DUP2 SUB PUSH2 0x242E JUMPI SWAP1 PUSH1 0xC4 CALLDATALOAD SWAP1 PUSH1 0xE4 CALLDATALOAD SWAP1 PUSH2 0x104 CALLDATALOAD DUP1 ISZERO ISZERO DUP2 SUB PUSH2 0x242E JUMPI SWAP1 JUMP JUMPDEST SWAP7 SWAP4 SWAP1 SWAP9 SWAP8 SWAP5 SWAP2 SWAP3 PUSH1 0xE0 SWAP7 SWAP4 PUSH2 0x100 DUP10 ADD SWAP11 DUP10 MSTORE PUSH1 0x20 DUP10 ADD MSTORE PUSH1 0x40 DUP9 ADD MSTORE PUSH1 0x60 DUP8 ADD MSTORE PUSH1 0x1 DUP1 PUSH1 0xA0 SHL SUB AND PUSH1 0x80 DUP7 ADD MSTORE PUSH1 0xA0 DUP6 ADD MSTORE PUSH1 0xC0 DUP5 ADD MSTORE ISZERO ISZERO SWAP2 ADD MSTORE JUMP JUMPDEST SWAP2 SWAP1 SWAP2 DUP3 MLOAD PUSH1 0x1 PUSH1 0x1 PUSH1 0x40 SHL SUB DUP2 GT PUSH2 0x22DE JUMPI PUSH2 0x2590 DUP3 SLOAD PUSH2 0x2285 JUMP JUMPDEST PUSH1 0x1F DUP2 GT PUSH2 0x2634 JUMPI JUMPDEST POP PUSH1 0x20 DUP1 PUSH1 0x1F DUP4 GT PUSH1 0x1 EQ PUSH2 0x25D4 JUMPI POP DUP2 SWAP3 SWAP4 SWAP5 PUSH0 SWAP3 PUSH2 0x25C9 JUMPI JUMPDEST POP POP DUP2 PUSH1 0x1 SHL SWAP2 PUSH0 NOT SWAP1 PUSH1 0x3 SHL SHR NOT AND OR SWAP1 SSTORE JUMP JUMPDEST ADD MLOAD SWAP1 POP PUSH0 DUP1 PUSH2 0x25B4 JUMP JUMPDEST SWAP1 PUSH1 0x1F NOT DUP4 AND SWAP6 DUP5 PUSH0 MSTORE DUP3 PUSH0 KECCAK256 SWAP3 PUSH0 SWAP1 JUMPDEST DUP9 DUP3 LT PUSH2 0x261C JUMPI POP POP DUP4 PUSH1 0x1 SWAP6 SWAP7 SWAP8 LT PUSH2 0x2604 JUMPI JUMPDEST POP POP POP DUP2 SHL ADD SWAP1 SSTORE JUMP JUMPDEST ADD MLOAD PUSH0 NOT PUSH1 0xF8 DUP5 PUSH1 0x3 SHL AND SHR NOT AND SWAP1 SSTORE PUSH0 DUP1 DUP1 PUSH2 0x25FA JUMP JUMPDEST DUP1 PUSH1 0x1 DUP6 SWAP7 DUP3 SWAP5 SWAP7 DUP7 ADD MLOAD DUP2 SSTORE ADD SWAP6 ADD SWAP4 ADD SWAP1 PUSH2 0x25E5 JUMP JUMPDEST PUSH0 DUP4 DUP2 MSTORE PUSH1 0x20 DUP2 KECCAK256 PUSH1 0x1F DUP5 ADD PUSH1 0x5 SHR DUP2 ADD SWAP3 PUSH1 0x20 DUP6 LT PUSH2 0x2671 JUMPI JUMPDEST PUSH1 0x1F ADD PUSH1 0x5 SHR ADD SWAP2 JUMPDEST DUP3 DUP2 LT PUSH2 0x2666 JUMPI POP POP PUSH2 0x2599 JUMP JUMPDEST DUP2 DUP2 SSTORE PUSH1 0x1 ADD PUSH2 0x2658 JUMP JUMPDEST SWAP1 SWAP3 POP DUP3 SWAP1 PUSH2 0x264F JUMP JUMPDEST PUSH2 0x2693 SWAP1 PUSH1 0x20 PUSH1 0x40 MLOAD SWAP3 DUP3 DUP5 DUP1 SWAP5 MLOAD SWAP4 DUP5 SWAP3 ADD PUSH2 0x2393 JUMP JUMPDEST DUP2 ADD SUB SWAP1 KECCAK256 SWAP1 JUMP JUMPDEST ISZERO PUSH2 0x26A2 JUMPI JUMP JUMPDEST PUSH1 0x40 MLOAD PUSH3 0x461BCD PUSH1 0xE5 SHL DUP2 MSTORE PUSH1 0x20 PUSH1 0x4 DUP3 ADD MSTORE PUSH1 0x17 PUSH1 0x24 DUP3 ADD MSTORE PUSH23 0x10DBDB5B5D5B9A5D1E48191BD95CDB89DD08195E1A5CDD PUSH1 0x4A SHL PUSH1 0x44 DUP3 ADD MSTORE PUSH1 0x64 SWAP1 REVERT JUMPDEST ISZERO PUSH2 0x26E8 JUMPI JUMP JUMPDEST PUSH1 0x40 MLOAD PUSH3 0x461BCD PUSH1 0xE5 SHL DUP2 MSTORE PUSH1 0x20 PUSH1 0x4 DUP3 ADD MSTORE PUSH1 0x39 PUSH1 0x24 DUP3 ADD MSTORE PUSH32 0x5573657220686173204F70656E205265766965772C20506C6561736520776169 PUSH1 0x44 DUP3 ADD MSTORE PUSH25 0x3A103AB73A34B6361034BA1034B990383937B1B2B9B9B2B217 PUSH1 0x39 SHL PUSH1 0x64 DUP3 ADD MSTORE PUSH1 0x84 SWAP1 REVERT JUMPDEST SWAP1 DUP2 PUSH1 0x20 SWAP2 SUB SLT PUSH2 0x242E JUMPI MLOAD DUP1 ISZERO ISZERO DUP2 SUB PUSH2 0x242E JUMPI SWAP1 JUMP JUMPDEST PUSH1 0x1 PUSH1 0x1 PUSH1 0xA0 SHL SUB SWAP1 SWAP2 AND DUP2 MSTORE PUSH1 0x40 PUSH1 0x20 DUP3 ADD DUP2 SWAP1 MSTORE PUSH2 0x2789 SWAP3 SWAP2 ADD SWAP1 PUSH2 0x23B4 JUMP JUMPDEST SWAP1 JUMP JUMPDEST ISZERO PUSH2 0x2793 JUMPI JUMP JUMPDEST PUSH1 0x40 MLOAD PUSH3 0x461BCD PUSH1 0xE5 SHL DUP2 MSTORE PUSH1 0x20 PUSH1 0x4 DUP3 ADD MSTORE PUSH1 0x28 PUSH1 0x24 DUP3 ADD MSTORE PUSH32 0x596F7520617265206E6F742061206D656D62657220666F72207468697320636F PUSH1 0x44 DUP3 ADD MSTORE PUSH8 0x36B6BAB734BA3C97 PUSH1 0xC1 SHL PUSH1 0x64 DUP3 ADD MSTORE PUSH1 0x84 SWAP1 REVERT JUMPDEST ISZERO PUSH2 0x27F0 JUMPI JUMP JUMPDEST PUSH1 0x40 MLOAD PUSH3 0x461BCD PUSH1 0xE5 SHL DUP2 MSTORE PUSH1 0x20 PUSH1 0x4 DUP3 ADD MSTORE PUSH1 0x1E PUSH1 0x24 DUP3 ADD MSTORE PUSH32 0x496E73756666696369656E7420637265647320746F2070726F706F73652E0000 PUSH1 0x44 DUP3 ADD MSTORE PUSH1 0x64 SWAP1 REVERT JUMPDEST ISZERO PUSH2 0x283C JUMPI JUMP JUMPDEST PUSH1 0x40 MLOAD PUSH3 0x461BCD PUSH1 0xE5 SHL DUP2 MSTORE PUSH1 0x20 PUSH1 0x4 DUP3 ADD MSTORE PUSH1 0x16 PUSH1 0x24 DUP3 ADD MSTORE PUSH22 0x4D7573742073656E642070726F706F73616C20666565 PUSH1 0x50 SHL PUSH1 0x44 DUP3 ADD MSTORE PUSH1 0x64 SWAP1 REVERT JUMPDEST PUSH0 NOT DUP2 EQ PUSH2 0x2888 JUMPI PUSH1 0x1 ADD SWAP1 JUMP JUMPDEST PUSH4 0x4E487B71 PUSH1 0xE0 SHL PUSH0 MSTORE PUSH1 0x11 PUSH1 0x4 MSTORE PUSH1 0x24 PUSH0 REVERT JUMPDEST PUSH1 0x40 MLOAD SWAP1 DUP2 PUSH0 DUP3 SLOAD PUSH2 0x28AD DUP2 PUSH2 0x2285 JUMP JUMPDEST SWAP4 PUSH1 0x1 SWAP2 DUP1 DUP4 AND SWAP1 DUP2 ISZERO PUSH2 0x290E JUMPI POP PUSH1 0x1 EQ PUSH2 0x28D4 JUMPI JUMPDEST POP POP PUSH1 0x20 SWAP3 POP PUSH0 DUP2 MSTORE SUB ADD SWAP1 KECCAK256 SWAP1 JUMP JUMPDEST SWAP1 SWAP2 POP PUSH0 MSTORE PUSH1 0x20 SWAP1 DUP2 PUSH0 KECCAK256 SWAP1 PUSH0 SWAP2 JUMPDEST DUP6 DUP4 LT PUSH2 0x28FA JUMPI POP POP POP POP PUSH1 0x20 SWAP2 DUP2 ADD PUSH0 DUP1 PUSH2 0x28C4 JUMP JUMPDEST DUP1 SLOAD DUP8 DUP5 ADD MSTORE DUP7 SWAP5 POP SWAP2 DUP4 ADD SWAP2 DUP2 ADD PUSH2 0x28E3 JUMP JUMPDEST SWAP3 POP POP POP PUSH1 0x20 SWAP4 SWAP2 POP PUSH1 0xFF NOT AND DUP3 MSTORE DUP1 ISZERO ISZERO MUL DUP2 ADD PUSH0 DUP1 PUSH2 0x28C4 JUMP JUMPDEST SWAP2 SWAP1 DUP3 ADD DUP1 SWAP3 GT PUSH2 0x2888 JUMPI JUMP JUMPDEST SWAP2 SWAP1 PUSH1 0x1 DUP1 PUSH1 0xA0 SHL SUB AND DUP3 MSTORE PUSH1 0x20 SWAP2 PUSH1 0x40 DUP4 DUP3 ADD MSTORE PUSH0 SWAP3 DUP3 SLOAD PUSH2 0x2959 DUP2 PUSH2 0x2285 JUMP JUMPDEST SWAP4 DUP5 PUSH1 0x40 DUP6 ADD MSTORE PUSH1 0x1 SWAP2 DUP3 DUP2 AND SWAP1 DUP2 PUSH0 EQ PUSH2 0x29B9 JUMPI POP PUSH1 0x1 EQ PUSH2 0x297F JUMPI JUMPDEST POP POP POP POP POP SWAP1 JUMP JUMPDEST PUSH0 SWAP1 DUP2 MSTORE DUP3 DUP2 KECCAK256 SWAP5 SWAP6 POP SWAP4 JUMPDEST DUP6 DUP6 LT PUSH2 0x29A5 JUMPI POP POP POP PUSH1 0x60 SWAP3 POP ADD ADD PUSH0 DUP1 DUP1 DUP1 DUP1 PUSH2 0x2977 JUMP JUMPDEST DUP1 SLOAD DUP6 DUP6 ADD PUSH1 0x60 ADD MSTORE SWAP4 DUP3 ADD SWAP4 DUP2 ADD PUSH2 0x298B JUMP JUMPDEST SWAP4 POP POP POP POP PUSH1 0x60 SWAP4 POP PUSH1 0xFF SWAP3 SWAP2 SWAP3 NOT AND DUP4 DUP4 ADD MSTORE ISZERO ISZERO PUSH1 0x5 SHL ADD ADD PUSH0 DUP1 DUP1 DUP1 DUP1 PUSH2 0x2977 JUMP JUMPDEST ISZERO PUSH2 0x29E5 JUMPI JUMP JUMPDEST PUSH1 0x40 MLOAD PUSH3 0x461BCD PUSH1 0xE5 SHL DUP2 MSTORE PUSH1 0x20 PUSH1 0x4 DUP3 ADD MSTORE PUSH1 0x16 PUSH1 0x24 DUP3 ADD MSTORE PUSH22 0x2737BA103A34329031B7B73A3930B1BA1037BBB732B9 PUSH1 0x51 SHL PUSH1 0x44 DUP3 ADD MSTORE PUSH1 0x64 SWAP1 REVERT JUMPDEST ISZERO PUSH2 0x2A2A JUMPI JUMP JUMPDEST PUSH1 0x40 MLOAD PUSH3 0x461BCD PUSH1 0xE5 SHL DUP2 MSTORE PUSH1 0x20 PUSH1 0x4 DUP3 ADD MSTORE PUSH1 0x19 PUSH1 0x24 DUP3 ADD MSTORE PUSH25 0x10DBDB5B5D5B9A5D1E48111BD95CC8139BDD08115E1CDA5CDD PUSH1 0x3A SHL PUSH1 0x44 DUP3 ADD MSTORE PUSH1 0x64 SWAP1 REVERT JUMPDEST PUSH1 0x1 PUSH1 0x1 PUSH1 0x40 SHL SUB DUP2 GT PUSH2 0x22DE JUMPI PUSH1 0x5 SHL PUSH1 0x20 ADD SWAP1 JUMP INVALID LOG2 PUSH5 0x6970667358 0x22 SLT KECCAK256 NUMBER 0x4F 0x4C DUP11 CALLER GASLIMIT 0x49 NOT SWAP5 0xBE DUP15 PUSH6 0x6E12B2C97ED9 MOD SUB RETURNDATASIZE 0xEF DUP1 0xB2 RETURNDATACOPY DUP4 0xA6 DUP1 0xC4 0xBD 0xEA CODESIZE PUSH5 0x736F6C6343 STOP ADDMOD EQ STOP CALLER "},"methodIdentifiers":{"CommunityNames(uint256)":"0dc85f7d","CommunityProposal(string,uint256,uint256,uint256,uint256,address,uint256,uint256,bool)":"31b4ea2e","CommunityProposals(uint256)":"8126d895","CustomProposal(string,address)":"b07bcbc5","CustomProposals(uint256)":"90943a8b","MemberContract()":"0163b968","changeCommunityOwner(string,address)":"298a5750","communities(string)":"28adc240","createCommunity(string,uint256,uint256,uint256,uint256,address,uint256,uint256,bool)":"6219f117","fee()":"ddca3f43","getCommunityExists(string)":"7b7fcfed","getCommunityInfo(string)":"a64108d5","getCommunityIsInviteOnly(string)":"3df67352","getCommunityIsOwner(string,address)":"04413d86","getCommunityOwner(string)":"b3f6702d","getFee()":"ced72f87","getLaneId(uint256)":"c972f985","getMemberAccessContract(string)":"cbe02a9f","getPaginatedCommunityProposals(string,uint256,uint256)":"789aa8f6","getProposalResults(uint256)":"5bdcd008","getProposalType(uint256)":"d978ffba","getProposalVote(address,uint256)":"68535709","getVoteEnd(uint256)":"2f30f106","hasOpenProposal(address)":"ff1225d9","laneRegistryContract()":"3eab6bac","performUpkeep(bytes)":"4585e33b","porposalsByCommunity(string,uint256)":"c2c2e5f8","proposals(uint256)":"013cf08b","setFee(uint256)":"69fe0e2d","setLaneRegistryContract(address)":"247c3a38","setMaxProposalTime(uint256)":"a169093b","setProposalCanceled(uint256)":"d0d83923","setProposalCounter(uint256)":"8b640440","setProposalInactive(uint256)":"1282f609","setUpkkepId(uint256)":"5787a0cc","settgetherMembersContract(address)":"8a94aea4","upkeepId()":"d2aa789f","vote(uint256,bool)":"c9d27afe"}}}}}