{"contracts/tgetherFund.sol":{"tgetherFund":{"abi":[{"inputs":[],"stateMutability":"nonpayable","type":"constructor"},{"inputs":[],"name":"LINK","outputs":[{"internalType":"contract IERC677","name":"","type":"address"}],"stateMutability":"view","type":"function"},{"inputs":[],"name":"checkBal","outputs":[{"internalType":"uint256","name":"","type":"uint256"}],"stateMutability":"view","type":"function"},{"inputs":[{"internalType":"address","name":"_contractAddress","type":"address"}],"name":"fundUpkeep","outputs":[{"internalType":"bool","name":"","type":"bool"}],"stateMutability":"payable","type":"function"},{"inputs":[{"internalType":"address","name":"_address","type":"address"},{"internalType":"uint256","name":"_upkeep","type":"uint256"}],"name":"setUpkeeps","outputs":[],"stateMutability":"nonpayable","type":"function"},{"inputs":[],"name":"sushiSwapRouter","outputs":[{"internalType":"contract ISushiSwapRouter","name":"","type":"address"}],"stateMutability":"view","type":"function"},{"inputs":[{"internalType":"address","name":"_address","type":"address"}],"name":"updateRegistrar","outputs":[],"stateMutability":"nonpayable","type":"function"}],"evm":{"bytecode":{"linkReferences":{},"object":"608080604052346100805760018060a01b0319731b02da8cb0d097eb8d57a175b88c7d8b47997506815f5416175f5573f97f4df75117a78c1a5a0dbb814af92458539fb48160015416176001557337d9dc70bfcd8bc77ec2858836b923c560e891d18160025416176002553390600354161760035561087990816100858239f35b5f80fdfe6080604081815260049182361015610015575f80fd5b5f92833560e01c9182631b6b6d23146106c0575081632058ad6b14610628578163592b700a146105e05781637bcab33a146100d6578163f6fd54fe1461008e575063fd829a2314610064575f80fd5b3461008a578160031936011261008a57905490516001600160a01b039091168152602090f35b5080fd5b9050346100d257816003193601126100d2576100a86106e5565b6003546001600160a01b0391906100c290831633146107ec565b1683526020526024359082205580f35b8280fd5b9050826020928360031936011261008a576100ef6106e5565b9134156105a5576001600160a01b03928316808252848652828220541561008a5782519367ffffffffffffffff906060860182811187821017610592578552600286528786019285368537818554169386516315ab88c960e31b81528a818b81895afa90811561058857879161054e575b5088511561053b578316815260019483865416895187101561052857888a0152603c4201918242116105155787918b918d948b51958694637ff36ab560e01b865286608487019187015260249e8f8701608090525180915260a4860193918c88915b8383106104ee575050505050839182913060448401526064830152039134905af19081610454575b506102ce57505050508060033d116102be575b506308c379a014610249575b90606493601a92519362461bcd60e51b85528401528201527f53776170206661696c65643a20556e6b6e6f776e206572726f720000000000006044820152fd5b610251610735565b8061025c5750610209565b9091826102a2602d6102ba955180956c029bbb0b8103330b4b632b21d1609d1b8a830152610292815180928c86860191016107a6565b810103600d8101865201846106ff565b5194859462461bcd60e51b86528501528301906107c7565b0390fd5b90508381803e5160e01c856101fd565b9088979293969181885416928751926370a0823160e01b845230868501528a848381885afa93841561044a578894610417575b5083156103d55760025416918752848a5287872054948851958b8701528a865288860196868810908811176103c4575050848752630200057560e51b85526044840152606483015260606084830152869083908186603f198661036760a48201826107c7565b0301925af180156103ba57908691610384575b5050505051908152f35b813d83116103b3575b61039781856106ff565b8101031261008a5751801515036103b05780848161037a565b80fd5b503d61038d565b84513d85823e3d90fd5b634e487b7160e01b88526041905286fd5b885162461bcd60e51b81528087018c9052601a818401527f4e6f204c494e4b2072656365697665642066726f6d20737761700000000000006044820152606490fd5b9093508a81813d8311610443575b61042f81836106ff565b8101031261043f5751928b610301565b8780fd5b503d610425565b89513d8a823e3d90fd5b3d8088833e61046381836106ff565b8101908b8183031261043f578051908682116104d8570181601f8201121561043f578051908682116104dc578c808360051b938c51906104a5838701836106ff565b815201928201019283116104d857908c809201905b8382106104c9575050506101ea565b815181529082019082016104ba565b8880fd5b634e487b7160e01b895260418c528a89fd5b9295909397508291949698508b88511681520195019101908f928c9694928c8997956101c2565b634e487b7160e01b885260118b52602488fd5b634e487b7160e01b885260328b52602488fd5b634e487b7160e01b875260328a52602487fd5b90508a81813d8311610581575b61056581836106ff565b8101031261057d5751838116810361057d578b610160565b8680fd5b503d61055b565b88513d89823e3d90fd5b634e487b7160e01b855260418852602485fd5b815162461bcd60e51b81528085018690526015602482015274125b9cdd59999a58da595b9d08115512081cd95b9d605a1b6044820152606490fd5b83346103b05760203660031901126103b0576105fa6106e5565b6003546001600160a01b03919061061490831633146107ec565b1660018060a01b0319600254161760025580f35b919050346100d257826003193601126100d25760015481516370a0823160e01b81523093810193909352602090839060249082906001600160a01b03165afa9182156106b657839261067f575b6020838351908152f35b9091506020813d82116106ae575b8161069a602093836106ff565b810103126100d2576020925051905f610675565b3d915061068d565b81513d85823e3d90fd5b84903461008a578160031936011261008a576001546001600160a01b03168152602090f35b600435906001600160a01b03821682036106fb57565b5f80fd5b90601f8019910116810190811067ffffffffffffffff82111761072157604052565b634e487b7160e01b5f52604160045260245ffd5b5f60443d1061079257604051600319913d83016004833e815167ffffffffffffffff918282113d6024840111176107955781840194855193841161079d573d850101602084870101116107955750610792929101602001906106ff565b90565b949350505050565b50949350505050565b5f5b8381106107b75750505f910152565b81810151838201526020016107a8565b906020916107e0815180928185528580860191016107a6565b601f01601f1916010190565b156107f357565b60405162461bcd60e51b815260206004820152602260248201527f4f6e6c79206f776e65722063616e20706572666f726d2074686973206163746960448201526137b760f11b6064820152608490fdfea264697066735822122028fd174006e9be8f68bb620bb541dbdc14975e00bbae16e3122a6da6292cdda264736f6c63430008140033","opcodes":"PUSH1 0x80 DUP1 PUSH1 0x40 MSTORE CALLVALUE PUSH2 0x80 JUMPI PUSH1 0x1 DUP1 PUSH1 0xA0 SHL SUB NOT PUSH20 0x1B02DA8CB0D097EB8D57A175B88C7D8B47997506 DUP2 PUSH0 SLOAD AND OR PUSH0 SSTORE PUSH20 0xF97F4DF75117A78C1A5A0DBB814AF92458539FB4 DUP2 PUSH1 0x1 SLOAD AND OR PUSH1 0x1 SSTORE PUSH20 0x37D9DC70BFCD8BC77EC2858836B923C560E891D1 DUP2 PUSH1 0x2 SLOAD AND OR PUSH1 0x2 SSTORE CALLER SWAP1 PUSH1 0x3 SLOAD AND OR PUSH1 0x3 SSTORE PUSH2 0x879 SWAP1 DUP2 PUSH2 0x85 DUP3 CODECOPY RETURN JUMPDEST PUSH0 DUP1 REVERT INVALID PUSH1 0x80 PUSH1 0x40 DUP2 DUP2 MSTORE PUSH1 0x4 SWAP2 DUP3 CALLDATASIZE LT ISZERO PUSH2 0x15 JUMPI PUSH0 DUP1 REVERT JUMPDEST PUSH0 SWAP3 DUP4 CALLDATALOAD PUSH1 0xE0 SHR SWAP2 DUP3 PUSH4 0x1B6B6D23 EQ PUSH2 0x6C0 JUMPI POP DUP2 PUSH4 0x2058AD6B EQ PUSH2 0x628 JUMPI DUP2 PUSH4 0x592B700A EQ PUSH2 0x5E0 JUMPI DUP2 PUSH4 0x7BCAB33A EQ PUSH2 0xD6 JUMPI DUP2 PUSH4 0xF6FD54FE EQ PUSH2 0x8E JUMPI POP PUSH4 0xFD829A23 EQ PUSH2 0x64 JUMPI PUSH0 DUP1 REVERT JUMPDEST CALLVALUE PUSH2 0x8A JUMPI DUP2 PUSH1 0x3 NOT CALLDATASIZE ADD SLT PUSH2 0x8A JUMPI SWAP1 SLOAD SWAP1 MLOAD PUSH1 0x1 PUSH1 0x1 PUSH1 0xA0 SHL SUB SWAP1 SWAP2 AND DUP2 MSTORE PUSH1 0x20 SWAP1 RETURN JUMPDEST POP DUP1 REVERT JUMPDEST SWAP1 POP CALLVALUE PUSH2 0xD2 JUMPI DUP2 PUSH1 0x3 NOT CALLDATASIZE ADD SLT PUSH2 0xD2 JUMPI PUSH2 0xA8 PUSH2 0x6E5 JUMP JUMPDEST PUSH1 0x3 SLOAD PUSH1 0x1 PUSH1 0x1 PUSH1 0xA0 SHL SUB SWAP2 SWAP1 PUSH2 0xC2 SWAP1 DUP4 AND CALLER EQ PUSH2 0x7EC JUMP JUMPDEST AND DUP4 MSTORE PUSH1 0x20 MSTORE PUSH1 0x24 CALLDATALOAD SWAP1 DUP3 KECCAK256 SSTORE DUP1 RETURN JUMPDEST DUP3 DUP1 REVERT JUMPDEST SWAP1 POP DUP3 PUSH1 0x20 SWAP3 DUP4 PUSH1 0x3 NOT CALLDATASIZE ADD SLT PUSH2 0x8A JUMPI PUSH2 0xEF PUSH2 0x6E5 JUMP JUMPDEST SWAP2 CALLVALUE ISZERO PUSH2 0x5A5 JUMPI PUSH1 0x1 PUSH1 0x1 PUSH1 0xA0 SHL SUB SWAP3 DUP4 AND DUP1 DUP3 MSTORE DUP5 DUP7 MSTORE DUP3 DUP3 KECCAK256 SLOAD ISZERO PUSH2 0x8A JUMPI DUP3 MLOAD SWAP4 PUSH8 0xFFFFFFFFFFFFFFFF SWAP1 PUSH1 0x60 DUP7 ADD DUP3 DUP2 GT DUP8 DUP3 LT OR PUSH2 0x592 JUMPI DUP6 MSTORE PUSH1 0x2 DUP7 MSTORE DUP8 DUP7 ADD SWAP3 DUP6 CALLDATASIZE DUP6 CALLDATACOPY DUP2 DUP6 SLOAD AND SWAP4 DUP7 MLOAD PUSH4 0x15AB88C9 PUSH1 0xE3 SHL DUP2 MSTORE DUP11 DUP2 DUP12 DUP2 DUP10 GAS STATICCALL SWAP1 DUP2 ISZERO PUSH2 0x588 JUMPI DUP8 SWAP2 PUSH2 0x54E JUMPI JUMPDEST POP DUP9 MLOAD ISZERO PUSH2 0x53B JUMPI DUP4 AND DUP2 MSTORE PUSH1 0x1 SWAP5 DUP4 DUP7 SLOAD AND DUP10 MLOAD DUP8 LT ISZERO PUSH2 0x528 JUMPI DUP9 DUP11 ADD MSTORE PUSH1 0x3C TIMESTAMP ADD SWAP2 DUP3 TIMESTAMP GT PUSH2 0x515 JUMPI DUP8 SWAP2 DUP12 SWAP2 DUP14 SWAP5 DUP12 MLOAD SWAP6 DUP7 SWAP5 PUSH4 0x7FF36AB5 PUSH1 0xE0 SHL DUP7 MSTORE DUP7 PUSH1 0x84 DUP8 ADD SWAP2 DUP8 ADD MSTORE PUSH1 0x24 SWAP15 DUP16 DUP8 ADD PUSH1 0x80 SWAP1 MSTORE MLOAD DUP1 SWAP2 MSTORE PUSH1 0xA4 DUP7 ADD SWAP4 SWAP2 DUP13 DUP9 SWAP2 JUMPDEST DUP4 DUP4 LT PUSH2 0x4EE JUMPI POP POP POP POP POP DUP4 SWAP2 DUP3 SWAP2 ADDRESS PUSH1 0x44 DUP5 ADD MSTORE PUSH1 0x64 DUP4 ADD MSTORE SUB SWAP2 CALLVALUE SWAP1 GAS CALL SWAP1 DUP2 PUSH2 0x454 JUMPI JUMPDEST POP PUSH2 0x2CE JUMPI POP POP POP POP DUP1 PUSH1 0x3 RETURNDATASIZE GT PUSH2 0x2BE JUMPI JUMPDEST POP PUSH4 0x8C379A0 EQ PUSH2 0x249 JUMPI JUMPDEST SWAP1 PUSH1 0x64 SWAP4 PUSH1 0x1A SWAP3 MLOAD SWAP4 PUSH3 0x461BCD PUSH1 0xE5 SHL DUP6 MSTORE DUP5 ADD MSTORE DUP3 ADD MSTORE PUSH32 0x53776170206661696C65643A20556E6B6E6F776E206572726F72000000000000 PUSH1 0x44 DUP3 ADD MSTORE REVERT JUMPDEST PUSH2 0x251 PUSH2 0x735 JUMP JUMPDEST DUP1 PUSH2 0x25C JUMPI POP PUSH2 0x209 JUMP JUMPDEST SWAP1 SWAP2 DUP3 PUSH2 0x2A2 PUSH1 0x2D PUSH2 0x2BA SWAP6 MLOAD DUP1 SWAP6 PUSH13 0x29BBB0B8103330B4B632B21D1 PUSH1 0x9D SHL DUP11 DUP4 ADD MSTORE PUSH2 0x292 DUP2 MLOAD DUP1 SWAP3 DUP13 DUP7 DUP7 ADD SWAP2 ADD PUSH2 0x7A6 JUMP JUMPDEST DUP2 ADD SUB PUSH1 0xD DUP2 ADD DUP7 MSTORE ADD DUP5 PUSH2 0x6FF JUMP JUMPDEST MLOAD SWAP5 DUP6 SWAP5 PUSH3 0x461BCD PUSH1 0xE5 SHL DUP7 MSTORE DUP6 ADD MSTORE DUP4 ADD SWAP1 PUSH2 0x7C7 JUMP JUMPDEST SUB SWAP1 REVERT JUMPDEST SWAP1 POP DUP4 DUP2 DUP1 RETURNDATACOPY MLOAD PUSH1 0xE0 SHR DUP6 PUSH2 0x1FD JUMP JUMPDEST SWAP1 DUP9 SWAP8 SWAP3 SWAP4 SWAP7 SWAP2 DUP2 DUP9 SLOAD AND SWAP3 DUP8 MLOAD SWAP3 PUSH4 0x70A08231 PUSH1 0xE0 SHL DUP5 MSTORE ADDRESS DUP7 DUP6 ADD MSTORE DUP11 DUP5 DUP4 DUP2 DUP9 GAS STATICCALL SWAP4 DUP5 ISZERO PUSH2 0x44A JUMPI DUP9 SWAP5 PUSH2 0x417 JUMPI JUMPDEST POP DUP4 ISZERO PUSH2 0x3D5 JUMPI PUSH1 0x2 SLOAD AND SWAP2 DUP8 MSTORE DUP5 DUP11 MSTORE DUP8 DUP8 KECCAK256 SLOAD SWAP5 DUP9 MLOAD SWAP6 DUP12 DUP8 ADD MSTORE DUP11 DUP7 MSTORE DUP9 DUP7 ADD SWAP7 DUP7 DUP9 LT SWAP1 DUP9 GT OR PUSH2 0x3C4 JUMPI POP POP DUP5 DUP8 MSTORE PUSH4 0x2000575 PUSH1 0xE5 SHL DUP6 MSTORE PUSH1 0x44 DUP5 ADD MSTORE PUSH1 0x64 DUP4 ADD MSTORE PUSH1 0x60 PUSH1 0x84 DUP4 ADD MSTORE DUP7 SWAP1 DUP4 SWAP1 DUP2 DUP7 PUSH1 0x3F NOT DUP7 PUSH2 0x367 PUSH1 0xA4 DUP3 ADD DUP3 PUSH2 0x7C7 JUMP JUMPDEST SUB ADD SWAP3 GAS CALL DUP1 ISZERO PUSH2 0x3BA JUMPI SWAP1 DUP7 SWAP2 PUSH2 0x384 JUMPI JUMPDEST POP POP POP POP MLOAD SWAP1 DUP2 MSTORE RETURN JUMPDEST DUP2 RETURNDATASIZE DUP4 GT PUSH2 0x3B3 JUMPI JUMPDEST PUSH2 0x397 DUP2 DUP6 PUSH2 0x6FF JUMP JUMPDEST DUP2 ADD SUB SLT PUSH2 0x8A JUMPI MLOAD DUP1 ISZERO ISZERO SUB PUSH2 0x3B0 JUMPI DUP1 DUP5 DUP2 PUSH2 0x37A JUMP JUMPDEST DUP1 REVERT JUMPDEST POP RETURNDATASIZE PUSH2 0x38D JUMP JUMPDEST DUP5 MLOAD RETURNDATASIZE DUP6 DUP3 RETURNDATACOPY RETURNDATASIZE SWAP1 REVERT JUMPDEST PUSH4 0x4E487B71 PUSH1 0xE0 SHL DUP9 MSTORE PUSH1 0x41 SWAP1 MSTORE DUP7 REVERT JUMPDEST DUP9 MLOAD PUSH3 0x461BCD PUSH1 0xE5 SHL DUP2 MSTORE DUP1 DUP8 ADD DUP13 SWAP1 MSTORE PUSH1 0x1A DUP2 DUP5 ADD MSTORE PUSH32 0x4E6F204C494E4B2072656365697665642066726F6D2073776170000000000000 PUSH1 0x44 DUP3 ADD MSTORE PUSH1 0x64 SWAP1 REVERT JUMPDEST SWAP1 SWAP4 POP DUP11 DUP2 DUP2 RETURNDATASIZE DUP4 GT PUSH2 0x443 JUMPI JUMPDEST PUSH2 0x42F DUP2 DUP4 PUSH2 0x6FF JUMP JUMPDEST DUP2 ADD SUB SLT PUSH2 0x43F JUMPI MLOAD SWAP3 DUP12 PUSH2 0x301 JUMP JUMPDEST DUP8 DUP1 REVERT JUMPDEST POP RETURNDATASIZE PUSH2 0x425 JUMP JUMPDEST DUP10 MLOAD RETURNDATASIZE DUP11 DUP3 RETURNDATACOPY RETURNDATASIZE SWAP1 REVERT JUMPDEST RETURNDATASIZE DUP1 DUP9 DUP4 RETURNDATACOPY PUSH2 0x463 DUP2 DUP4 PUSH2 0x6FF JUMP JUMPDEST DUP2 ADD SWAP1 DUP12 DUP2 DUP4 SUB SLT PUSH2 0x43F JUMPI DUP1 MLOAD SWAP1 DUP7 DUP3 GT PUSH2 0x4D8 JUMPI ADD DUP2 PUSH1 0x1F DUP3 ADD SLT ISZERO PUSH2 0x43F JUMPI DUP1 MLOAD SWAP1 DUP7 DUP3 GT PUSH2 0x4DC JUMPI DUP13 DUP1 DUP4 PUSH1 0x5 SHL SWAP4 DUP13 MLOAD SWAP1 PUSH2 0x4A5 DUP4 DUP8 ADD DUP4 PUSH2 0x6FF JUMP JUMPDEST DUP2 MSTORE ADD SWAP3 DUP3 ADD ADD SWAP3 DUP4 GT PUSH2 0x4D8 JUMPI SWAP1 DUP13 DUP1 SWAP3 ADD SWAP1 JUMPDEST DUP4 DUP3 LT PUSH2 0x4C9 JUMPI POP POP POP PUSH2 0x1EA JUMP JUMPDEST DUP2 MLOAD DUP2 MSTORE SWAP1 DUP3 ADD SWAP1 DUP3 ADD PUSH2 0x4BA JUMP JUMPDEST DUP9 DUP1 REVERT JUMPDEST PUSH4 0x4E487B71 PUSH1 0xE0 SHL DUP10 MSTORE PUSH1 0x41 DUP13 MSTORE DUP11 DUP10 REVERT JUMPDEST SWAP3 SWAP6 SWAP1 SWAP4 SWAP8 POP DUP3 SWAP2 SWAP5 SWAP7 SWAP9 POP DUP12 DUP9 MLOAD AND DUP2 MSTORE ADD SWAP6 ADD SWAP2 ADD SWAP1 DUP16 SWAP3 DUP13 SWAP7 SWAP5 SWAP3 DUP13 DUP10 SWAP8 SWAP6 PUSH2 0x1C2 JUMP JUMPDEST PUSH4 0x4E487B71 PUSH1 0xE0 SHL DUP9 MSTORE PUSH1 0x11 DUP12 MSTORE PUSH1 0x24 DUP9 REVERT JUMPDEST PUSH4 0x4E487B71 PUSH1 0xE0 SHL DUP9 MSTORE PUSH1 0x32 DUP12 MSTORE PUSH1 0x24 DUP9 REVERT JUMPDEST PUSH4 0x4E487B71 PUSH1 0xE0 SHL DUP8 MSTORE PUSH1 0x32 DUP11 MSTORE PUSH1 0x24 DUP8 REVERT JUMPDEST SWAP1 POP DUP11 DUP2 DUP2 RETURNDATASIZE DUP4 GT PUSH2 0x581 JUMPI JUMPDEST PUSH2 0x565 DUP2 DUP4 PUSH2 0x6FF JUMP JUMPDEST DUP2 ADD SUB SLT PUSH2 0x57D JUMPI MLOAD DUP4 DUP2 AND DUP2 SUB PUSH2 0x57D JUMPI DUP12 PUSH2 0x160 JUMP JUMPDEST DUP7 DUP1 REVERT JUMPDEST POP RETURNDATASIZE PUSH2 0x55B JUMP JUMPDEST DUP9 MLOAD RETURNDATASIZE DUP10 DUP3 RETURNDATACOPY RETURNDATASIZE SWAP1 REVERT JUMPDEST PUSH4 0x4E487B71 PUSH1 0xE0 SHL DUP6 MSTORE PUSH1 0x41 DUP9 MSTORE PUSH1 0x24 DUP6 REVERT JUMPDEST DUP2 MLOAD PUSH3 0x461BCD PUSH1 0xE5 SHL DUP2 MSTORE DUP1 DUP6 ADD DUP7 SWAP1 MSTORE PUSH1 0x15 PUSH1 0x24 DUP3 ADD MSTORE PUSH21 0x125B9CDD59999A58DA595B9D08115512081CD95B9D PUSH1 0x5A SHL PUSH1 0x44 DUP3 ADD MSTORE PUSH1 0x64 SWAP1 REVERT JUMPDEST DUP4 CALLVALUE PUSH2 0x3B0 JUMPI PUSH1 0x20 CALLDATASIZE PUSH1 0x3 NOT ADD SLT PUSH2 0x3B0 JUMPI PUSH2 0x5FA PUSH2 0x6E5 JUMP JUMPDEST PUSH1 0x3 SLOAD PUSH1 0x1 PUSH1 0x1 PUSH1 0xA0 SHL SUB SWAP2 SWAP1 PUSH2 0x614 SWAP1 DUP4 AND CALLER EQ PUSH2 0x7EC JUMP JUMPDEST AND PUSH1 0x1 DUP1 PUSH1 0xA0 SHL SUB NOT PUSH1 0x2 SLOAD AND OR PUSH1 0x2 SSTORE DUP1 RETURN JUMPDEST SWAP2 SWAP1 POP CALLVALUE PUSH2 0xD2 JUMPI DUP3 PUSH1 0x3 NOT CALLDATASIZE ADD SLT PUSH2 0xD2 JUMPI PUSH1 0x1 SLOAD DUP2 MLOAD PUSH4 0x70A08231 PUSH1 0xE0 SHL DUP2 MSTORE ADDRESS SWAP4 DUP2 ADD SWAP4 SWAP1 SWAP4 MSTORE PUSH1 0x20 SWAP1 DUP4 SWAP1 PUSH1 0x24 SWAP1 DUP3 SWAP1 PUSH1 0x1 PUSH1 0x1 PUSH1 0xA0 SHL SUB AND GAS STATICCALL SWAP2 DUP3 ISZERO PUSH2 0x6B6 JUMPI DUP4 SWAP3 PUSH2 0x67F JUMPI JUMPDEST PUSH1 0x20 DUP4 DUP4 MLOAD SWAP1 DUP2 MSTORE RETURN JUMPDEST SWAP1 SWAP2 POP PUSH1 0x20 DUP2 RETURNDATASIZE DUP3 GT PUSH2 0x6AE JUMPI JUMPDEST DUP2 PUSH2 0x69A PUSH1 0x20 SWAP4 DUP4 PUSH2 0x6FF JUMP JUMPDEST DUP2 ADD SUB SLT PUSH2 0xD2 JUMPI PUSH1 0x20 SWAP3 POP MLOAD SWAP1 PUSH0 PUSH2 0x675 JUMP JUMPDEST RETURNDATASIZE SWAP2 POP PUSH2 0x68D JUMP JUMPDEST DUP2 MLOAD RETURNDATASIZE DUP6 DUP3 RETURNDATACOPY RETURNDATASIZE SWAP1 REVERT JUMPDEST DUP5 SWAP1 CALLVALUE PUSH2 0x8A JUMPI DUP2 PUSH1 0x3 NOT CALLDATASIZE ADD SLT PUSH2 0x8A JUMPI PUSH1 0x1 SLOAD PUSH1 0x1 PUSH1 0x1 PUSH1 0xA0 SHL SUB AND DUP2 MSTORE PUSH1 0x20 SWAP1 RETURN JUMPDEST PUSH1 0x4 CALLDATALOAD SWAP1 PUSH1 0x1 PUSH1 0x1 PUSH1 0xA0 SHL SUB DUP3 AND DUP3 SUB PUSH2 0x6FB JUMPI JUMP JUMPDEST PUSH0 DUP1 REVERT JUMPDEST SWAP1 PUSH1 0x1F DUP1 NOT SWAP2 ADD AND DUP2 ADD SWAP1 DUP2 LT PUSH8 0xFFFFFFFFFFFFFFFF DUP3 GT OR PUSH2 0x721 JUMPI PUSH1 0x40 MSTORE JUMP JUMPDEST PUSH4 0x4E487B71 PUSH1 0xE0 SHL PUSH0 MSTORE PUSH1 0x41 PUSH1 0x4 MSTORE PUSH1 0x24 PUSH0 REVERT JUMPDEST PUSH0 PUSH1 0x44 RETURNDATASIZE LT PUSH2 0x792 JUMPI PUSH1 0x40 MLOAD PUSH1 0x3 NOT SWAP2 RETURNDATASIZE DUP4 ADD PUSH1 0x4 DUP4 RETURNDATACOPY DUP2 MLOAD PUSH8 0xFFFFFFFFFFFFFFFF SWAP2 DUP3 DUP3 GT RETURNDATASIZE PUSH1 0x24 DUP5 ADD GT OR PUSH2 0x795 JUMPI DUP2 DUP5 ADD SWAP5 DUP6 MLOAD SWAP4 DUP5 GT PUSH2 0x79D JUMPI RETURNDATASIZE DUP6 ADD ADD PUSH1 0x20 DUP5 DUP8 ADD ADD GT PUSH2 0x795 JUMPI POP PUSH2 0x792 SWAP3 SWAP2 ADD PUSH1 0x20 ADD SWAP1 PUSH2 0x6FF JUMP JUMPDEST SWAP1 JUMP JUMPDEST SWAP5 SWAP4 POP POP POP POP JUMP JUMPDEST POP SWAP5 SWAP4 POP POP POP POP JUMP JUMPDEST PUSH0 JUMPDEST DUP4 DUP2 LT PUSH2 0x7B7 JUMPI POP POP PUSH0 SWAP2 ADD MSTORE JUMP JUMPDEST DUP2 DUP2 ADD MLOAD DUP4 DUP3 ADD MSTORE PUSH1 0x20 ADD PUSH2 0x7A8 JUMP JUMPDEST SWAP1 PUSH1 0x20 SWAP2 PUSH2 0x7E0 DUP2 MLOAD DUP1 SWAP3 DUP2 DUP6 MSTORE DUP6 DUP1 DUP7 ADD SWAP2 ADD PUSH2 0x7A6 JUMP JUMPDEST PUSH1 0x1F ADD PUSH1 0x1F NOT AND ADD ADD SWAP1 JUMP JUMPDEST ISZERO PUSH2 0x7F3 JUMPI JUMP JUMPDEST PUSH1 0x40 MLOAD PUSH3 0x461BCD PUSH1 0xE5 SHL DUP2 MSTORE PUSH1 0x20 PUSH1 0x4 DUP3 ADD MSTORE PUSH1 0x22 PUSH1 0x24 DUP3 ADD MSTORE PUSH32 0x4F6E6C79206F776E65722063616E20706572666F726D20746869732061637469 PUSH1 0x44 DUP3 ADD MSTORE PUSH2 0x37B7 PUSH1 0xF1 SHL PUSH1 0x64 DUP3 ADD MSTORE PUSH1 0x84 SWAP1 REVERT INVALID LOG2 PUSH5 0x6970667358 0x22 SLT KECCAK256 0x28 REVERT OR BLOCKHASH MOD 0xE9 0xBE DUP16 PUSH9 0xBB620BB541DBDC1497 0x5E STOP 0xBB 0xAE AND 0xE3 SLT 0x2A PUSH14 0xA6292CDDA264736F6C6343000814 STOP CALLER "},"methodIdentifiers":{"LINK()":"1b6b6d23","checkBal()":"2058ad6b","fundUpkeep(address)":"7bcab33a","setUpkeeps(address,uint256)":"f6fd54fe","sushiSwapRouter()":"fd829a23","updateRegistrar(address)":"592b700a"}}}}}