{"contracts/learntgehterPosts.sol":{"learntgetherPosts":{"abi":[{"inputs":[],"stateMutability":"nonpayable","type":"constructor"},{"anonymous":false,"inputs":[{"indexed":true,"internalType":"address","name":"owner","type":"address"},{"indexed":true,"internalType":"address","name":"approved","type":"address"},{"indexed":true,"internalType":"uint256","name":"tokenId","type":"uint256"}],"name":"Approval","type":"event"},{"anonymous":false,"inputs":[{"indexed":true,"internalType":"address","name":"owner","type":"address"},{"indexed":true,"internalType":"address","name":"operator","type":"address"},{"indexed":false,"internalType":"bool","name":"approved","type":"bool"}],"name":"ApprovalForAll","type":"event"},{"anonymous":false,"inputs":[{"indexed":false,"internalType":"uint256","name":"postId","type":"uint256"},{"indexed":false,"internalType":"string","name":"keyword","type":"string"}],"name":"Keywords","type":"event"},{"anonymous":false,"inputs":[{"indexed":true,"internalType":"uint256","name":"postId","type":"uint256"},{"indexed":false,"internalType":"string","name":"content","type":"string"},{"indexed":false,"internalType":"string","name":"title","type":"string"},{"indexed":false,"internalType":"string","name":"description","type":"string"}],"name":"PostInfo","type":"event"},{"anonymous":false,"inputs":[{"indexed":true,"internalType":"uint256","name":"postId","type":"uint256"},{"indexed":true,"internalType":"address","name":"authorAddress","type":"address"},{"indexed":false,"internalType":"string","name":"authorName","type":"string"}],"name":"PostMintedTo","type":"event"},{"anonymous":false,"inputs":[{"indexed":true,"internalType":"address","name":"from","type":"address"},{"indexed":true,"internalType":"address","name":"to","type":"address"},{"indexed":true,"internalType":"uint256","name":"tokenId","type":"uint256"}],"name":"Transfer","type":"event"},{"inputs":[{"internalType":"uint256","name":"_postId","type":"uint256"},{"internalType":"string","name":"_keyword","type":"string"}],"name":"addKeyword","outputs":[],"stateMutability":"nonpayable","type":"function"},{"inputs":[{"internalType":"address","name":"to","type":"address"},{"internalType":"uint256","name":"tokenId","type":"uint256"}],"name":"approve","outputs":[],"stateMutability":"nonpayable","type":"function"},{"inputs":[{"internalType":"address","name":"owner","type":"address"}],"name":"balanceOf","outputs":[{"internalType":"uint256","name":"","type":"uint256"}],"stateMutability":"view","type":"function"},{"inputs":[],"name":"consensusAddress","outputs":[{"internalType":"address","name":"","type":"address"}],"stateMutability":"view","type":"function"},{"inputs":[{"internalType":"uint256","name":"tokenId","type":"uint256"}],"name":"getApproved","outputs":[{"internalType":"address","name":"","type":"address"}],"stateMutability":"view","type":"function"},{"inputs":[{"internalType":"uint256","name":"_postId","type":"uint256"}],"name":"getPost","outputs":[{"components":[{"internalType":"string","name":"content","type":"string"},{"internalType":"string","name":"title","type":"string"},{"internalType":"address","name":"authorAddress","type":"address"},{"internalType":"string","name":"authorName","type":"string"},{"internalType":"string","name":"description","type":"string"}],"internalType":"struct learntgetherPosts.Post","name":"","type":"tuple"}],"stateMutability":"view","type":"function"},{"inputs":[{"internalType":"uint256","name":"_postId","type":"uint256"}],"name":"getPostExists","outputs":[{"internalType":"bool","name":"","type":"bool"}],"stateMutability":"view","type":"function"},{"inputs":[],"name":"incrementToken","outputs":[],"stateMutability":"nonpayable","type":"function"},{"inputs":[{"internalType":"address","name":"owner","type":"address"},{"internalType":"address","name":"operator","type":"address"}],"name":"isApprovedForAll","outputs":[{"internalType":"bool","name":"","type":"bool"}],"stateMutability":"view","type":"function"},{"inputs":[{"internalType":"string","name":"_content","type":"string"},{"internalType":"string","name":"_title","type":"string"},{"internalType":"string","name":"_authorName","type":"string"},{"internalType":"string","name":"_description","type":"string"}],"name":"mintPost","outputs":[{"internalType":"uint256","name":"","type":"uint256"}],"stateMutability":"nonpayable","type":"function"},{"inputs":[],"name":"name","outputs":[{"internalType":"string","name":"","type":"string"}],"stateMutability":"view","type":"function"},{"inputs":[],"name":"owner","outputs":[{"internalType":"address","name":"","type":"address"}],"stateMutability":"view","type":"function"},{"inputs":[{"internalType":"uint256","name":"tokenId","type":"uint256"}],"name":"ownerOf","outputs":[{"internalType":"address","name":"","type":"address"}],"stateMutability":"view","type":"function"},{"inputs":[{"internalType":"uint256","name":"","type":"uint256"}],"name":"posts","outputs":[{"internalType":"string","name":"content","type":"string"},{"internalType":"string","name":"title","type":"string"},{"internalType":"address","name":"authorAddress","type":"address"},{"internalType":"string","name":"authorName","type":"string"},{"internalType":"string","name":"description","type":"string"}],"stateMutability":"view","type":"function"},{"inputs":[{"internalType":"address","name":"from","type":"address"},{"internalType":"address","name":"to","type":"address"},{"internalType":"uint256","name":"tokenId","type":"uint256"}],"name":"safeTransferFrom","outputs":[],"stateMutability":"nonpayable","type":"function"},{"inputs":[{"internalType":"address","name":"from","type":"address"},{"internalType":"address","name":"to","type":"address"},{"internalType":"uint256","name":"tokenId","type":"uint256"},{"internalType":"bytes","name":"_data","type":"bytes"}],"name":"safeTransferFrom","outputs":[],"stateMutability":"nonpayable","type":"function"},{"inputs":[{"internalType":"address","name":"operator","type":"address"},{"internalType":"bool","name":"approved","type":"bool"}],"name":"setApprovalForAll","outputs":[],"stateMutability":"nonpayable","type":"function"},{"inputs":[{"internalType":"address","name":"_v2ContractAddress","type":"address"}],"name":"setV2ContractAddress","outputs":[],"stateMutability":"nonpayable","type":"function"},{"inputs":[{"internalType":"bytes4","name":"interfaceId","type":"bytes4"}],"name":"supportsInterface","outputs":[{"internalType":"bool","name":"","type":"bool"}],"stateMutability":"view","type":"function"},{"inputs":[],"name":"symbol","outputs":[{"internalType":"string","name":"","type":"string"}],"stateMutability":"view","type":"function"},{"inputs":[{"internalType":"uint256","name":"index","type":"uint256"}],"name":"tokenByIndex","outputs":[{"internalType":"uint256","name":"","type":"uint256"}],"stateMutability":"view","type":"function"},{"inputs":[{"internalType":"address","name":"owner","type":"address"},{"internalType":"uint256","name":"index","type":"uint256"}],"name":"tokenOfOwnerByIndex","outputs":[{"internalType":"uint256","name":"","type":"uint256"}],"stateMutability":"view","type":"function"},{"inputs":[{"internalType":"uint256","name":"tokenId","type":"uint256"}],"name":"tokenURI","outputs":[{"internalType":"string","name":"","type":"string"}],"stateMutability":"view","type":"function"},{"inputs":[],"name":"totalSupply","outputs":[{"internalType":"uint256","name":"","type":"uint256"}],"stateMutability":"view","type":"function"},{"inputs":[{"internalType":"address","name":"from","type":"address"},{"internalType":"address","name":"to","type":"address"},{"internalType":"uint256","name":"tokenId","type":"uint256"}],"name":"transferFrom","outputs":[],"stateMutability":"nonpayable","type":"function"},{"inputs":[{"internalType":"uint256","name":"_tokenId","type":"uint256"}],"name":"transferNFTsToV2","outputs":[],"stateMutability":"nonpayable","type":"function"},{"inputs":[{"internalType":"address","name":"to","type":"address"},{"internalType":"uint256","name":"tokenId","type":"uint256"}],"name":"transferToken","outputs":[],"stateMutability":"nonpayable","type":"function"},{"inputs":[],"name":"v2ContractAddress","outputs":[{"internalType":"address","name":"","type":"address"}],"stateMutability":"view","type":"function"}],"evm":{"bytecode":{"linkReferences":{},"object":"60803462000325576001600160401b0390604090808201838111828210176200031157825260118152602092704c6561726e74676574686572506f73747360781b848301528251838101818110838211176200031157845260038152624c544760e81b8582015282519082821162000311575f8054926001958685811c9516801562000306575b89861014620002f2578190601f958681116200029f575b5089908683116001146200023c57849262000230575b50505f19600383901b1c191690861b1781555b81519384116200021c5784548581811c9116801562000211575b88821014620001fd57838111620001b5575b5086928411600114620001505783949596509262000144575b50505f19600383901b1c191690821b1781555b3360018060a01b0319600c541617600c55600a5401600a55516123ff90816200032a8239f35b015190505f806200010b565b9190601f1984169685845280842093905b8882106200019d575050838596971062000184575b505050811b0181556200011e565b01515f1960f88460031b161c191690555f808062000176565b80878596829496860151815501950193019062000161565b8582528782208480870160051c8201928a8810620001f3575b0160051c019086905b828110620001e7575050620000f2565b838155018690620001d7565b92508192620001ce565b634e487b7160e01b82526022600452602482fd5b90607f1690620000e0565b634e487b7160e01b81526041600452602490fd5b015190505f80620000b3565b8480528a85208994509190601f198416865b8d8282106200028857505084116200026f575b505050811b018155620000c6565b01515f1960f88460031b161c191690555f808062000261565b8385015186558c979095019493840193016200024e565b9091508380528984208680850160051c8201928c8610620002e8575b918a91869594930160051c01915b828110620002d95750506200009d565b8681558594508a9101620002c9565b92508192620002bb565b634e487b7160e01b83526022600452602483fd5b94607f169462000086565b634e487b7160e01b5f52604160045260245ffd5b5f80fdfe60806040526004361015610011575f80fd5b5f3560e01c806301ffc9a7146101d457806306fdde03146101cf578063081812fc146101ca578063095ea7b3146101c55780630b1e7f83146101c05780631072cbea146101bb57806318160ddd146101b657806323b872dd146101b15780632f745c59146101ac578063336c1ad7146101a757806340731c24146101a257806342842e0e1461019d5780634f6ccce7146101985780636352211e146101935780636a0204291461018e57806370a08231146101895780637b4f6d92146101845780637d67e9671461017f5780638da5cb5b1461017a57806395d89b4114610175578063a22cb46514610170578063ae54e32b1461016b578063b225500c14610166578063b88d4fde14610161578063c87b56dd1461015c578063d242d34e14610157578063e985e9c5146101525763f6a800ee1461014d575f80fd5b611174565b611118565b611080565b610f98565b610f39565b610f11565b610ee9565b610e05565b610d77565b610d4f565b610cbd565b610c09565b610bde565b610bb6565b610b98565b610aee565b610ac7565b610a19565b61088e565b6107dc565b6107b3565b610761565b6106ce565b610622565b6103ed565b610391565b6102d1565b6101ef565b6001600160e01b03198116036101eb57565b5f80fd5b346101eb5760203660031901126101eb57602060043561020e816101d9565b63ffffffff60e01b1663780e9d6360e01b8114908115610234575b506040519015158152f35b6380ac58cd60e01b811491508115610266575b8115610255575b505f610229565b6301ffc9a760e01b1490505f61024e565b635b5e139f60e01b81149150610247565b5f5b8381106102885750505f910152565b8181015183820152602001610279565b906020916102b181518092818552858086019101610277565b601f01601f1916010190565b9060206102ce928181520190610298565b90565b346101eb575f8060031936011261038e576040518180546102f1816104d9565b80845290600190818116908115610366575060011461032b575b6103278461031b81880382610560565b604051918291826102bd565b0390f35b93508180526020938483205b82841061035357505050816103279361031b928201019361030b565b8054858501870152928501928101610337565b610327965061031b9450602092508593915060ff191682840152151560051b8201019361030b565b80fd5b346101eb5760203660031901126101eb5760206103af600435611327565b6040516001600160a01b039091168152f35b600435906001600160a01b03821682036101eb57565b602435906001600160a01b03821682036101eb57565b346101eb5760403660031901126101eb576104066103c1565b6024356104128161121a565b916001600160a01b03808416908216811461048a576104449361043f913314908115610446575b506112ba565b6117ea565b005b6001600160a01b03165f908152600560205260409020610484915061047d9033905b9060018060a01b03165f5260205260405f2090565b5460ff1690565b5f610439565b60405162461bcd60e51b815260206004820152602160248201527f4552433732313a20617070726f76616c20746f2063757272656e74206f776e656044820152603960f91b6064820152608490fd5b90600182811c92168015610507575b60208310146104f357565b634e487b7160e01b5f52602260045260245ffd5b91607f16916104e8565b634e487b7160e01b5f52604160045260245ffd5b60a081019081106001600160401b0382111761054057604052565b610511565b602081019081106001600160401b0382111761054057604052565b90601f801991011681019081106001600160401b0382111761054057604052565b9060405191825f825492610594846104d9565b9081845260019485811690815f146105ff57506001146105bf575b50506105bd92500383610560565b565b909391505f52602090815f20935f915b8183106105e75750506105bd93508201015f806105af565b855488840185015294850194879450918301916105cf565b9150506105bd94506020925060ff191682840152151560051b8201015f806105af565b346101eb5760203660031901126101eb576004355f52600b60205261069f60405f2061032761065082610581565b916106c061066060018301610581565b9160018060a01b03600282015416906106ad61068a600461068360038501610581565b9301610581565b9460405198899860a08a5260a08a0190610298565b9088820360208a0152610298565b9160408701528582036060870152610298565b908382036080850152610298565b346101eb5760403660031901126101eb576106e76103c1565b6024356106f38161121a565b336001600160a01b039091160361070e576104449133611657565b60405162461bcd60e51b815260206004820152602560248201527f4f6e6c7920746865206f776e65722063616e207472616e7366657220746865206044820152643a37b5b2b760d91b6064820152608490fd5b346101eb575f3660031901126101eb576020600854604051908152f35b60609060031901126101eb576001600160a01b039060043582811681036101eb579160243590811681036101eb579060443590565b346101eb576104446107c43661077e565b916107d76107d284336114d3565b6113b7565b611657565b346101eb5760403660031901126101eb576107f56103c1565b60243590610802816111a4565b821015610835576001600160a01b03165f9081526006602090815260408083209383529281529082902054915191825290f35b60405162461bcd60e51b815260206004820152602b60248201527f455243373231456e756d657261626c653a206f776e657220696e646578206f7560448201526a74206f6620626f756e647360a81b6064820152608490fd5b346101eb5760203660031901126101eb57600d54600435906020906001600160a01b0316916108dc6001600160a01b036108cb818616151561230b565b6108d48361121a565b1633146121f7565b610901816108fa6108f5825f52600b60205260405f2090565b612243565b943361141d565b600d5461092490610918906001600160a01b031681565b6001600160a01b031690565b60408401516001600160a01b03165f60608601519361096686880151976080815191015190604051998a98899788966306b72f8f60e11b88526004880161236c565b03925af1801561099d5761097657005b6104449060203d8111610996575b61098e8183610560565b810190612357565b503d610984565b6118bc565b906102ce91602081526109c1825160a0602084015260c0830190610298565b9060a06080610a096109e5602087015195601f199687878303016040880152610298565b600180851b0360408801511660608601526060870151868683030184870152610298565b9401519282850301910152610298565b346101eb5760203660031901126101eb57610327608060408051610a3c81610525565b60609281848093528260208201525f84820152828082015201526004355f52600b602052610ab86004825f20835194610a7486610525565b610a7d82610581565b8652610a8b60018301610581565b602087015260028201546001600160a01b031685870152610aae60038301610581565b9086015201610581565b608083015251918291826109a2565b346101eb57610444610ad83661077e565b9060405192610ae684610545565b5f8452611430565b346101eb5760203660031901126101eb57600435600854811015610b3e5760085f527ff3f7a9fe364faab93b216da50a3214154f22a0a2b415b23a84c8169e8b636ee30154604051908152602090f35b60405162461bcd60e51b815260206004820152602c60248201527f455243373231456e756d657261626c653a20676c6f62616c20696e646578206f60448201526b7574206f6620626f756e647360a01b6064820152608490fd5b346101eb5760203660031901126101eb5760206103af60043561121a565b346101eb575f3660031901126101eb57600d546040516001600160a01b039091168152602090f35b346101eb5760203660031901126101eb576020610c01610bfc6103c1565b6111a4565b604051908152f35b346101eb5760203660031901126101eb57610c226103c1565b600c546001600160a01b039190610c3c90831633146122c4565b1660018060a01b0319600d541617600d555f80f35b6001600160401b03811161054057601f01601f191660200190565b929192610c7882610c51565b91610c866040519384610560565b8294818452818301116101eb578281602093845f960137010152565b9080601f830112156101eb578160206102ce93359101610c6c565b346101eb5760403660031901126101eb576024356004356001600160401b0382116101eb57610d117f0b290e01b548ae78ace76449298ed234c42194d80af9f7dfe02fc4f7de07b9d3923690600401610ca2565b90610d2e610d1e8261121a565b6001600160a01b031633146121f7565b610d4a6040519283928352604060208401526040830190610298565b0390a1005b346101eb575f3660031901126101eb57600c546040516001600160a01b039091168152602090f35b346101eb575f8060031936011261038e57604051816001805490610d9a826104d9565b808552918181169081156103665750600114610dc0576103278461031b81880382610560565b80945082526020938483205b828410610de857505050816103279361031b928201019361030b565b8054858501870152928501928101610dcc565b801515036101eb57565b346101eb5760403660031901126101eb57610e1e6103c1565b602435610e2a81610dfb565b6001600160a01b03821691338314610ea85781610e65610e7692335f52600560205260405f209060018060a01b03165f5260205260405f2090565b9060ff801983541691151516179055565b604051901515815233907f17307eab39ab6107e8899845ad3d59bd9653f200f220920489ca2b5937696c3190602090a3005b60405162461bcd60e51b815260206004820152601960248201527822a9219b99189d1030b8383937bb32903a379031b0b63632b960391b6044820152606490fd5b346101eb575f3660031901126101eb57600e546040516001600160a01b039091168152602090f35b346101eb5760203660031901126101eb576020610f2f6004356122a4565b6040519015158152f35b346101eb5760803660031901126101eb57610f526103c1565b610f5a6103d7565b606435916001600160401b0383116101eb57366023840112156101eb57610f8e610444933690602481600401359101610c6c565b9160443591611430565b346101eb5760203660031901126101eb576004355f818152600260205260409020546001600160a01b03161561102357610fd0611291565b8051156110115761031b610ffd91611003610fed61032795611cb6565b60405194859360208501906112a3565b906112a3565b03601f198101835282610560565b505061032761101e611291565b61031b565b60405162461bcd60e51b815260206004820152602f60248201527f4552433732314d657461646174613a2055524920717565727920666f72206e6f60448201526e3732bc34b9ba32b73a103a37b5b2b760891b6064820152608490fd5b346101eb5760803660031901126101eb576001600160401b036004358181116101eb576110b1903690600401610ca2565b906024358181116101eb576110ca903690600401610ca2565b916044358281116101eb576110e3903690600401610ca2565b6064359283116101eb5761032793611102611108943690600401610ca2565b92611ff3565b6040519081529081906020820190565b346101eb5760403660031901126101eb57602060ff6111686111386103c1565b6111406103d7565b6001600160a01b039182165f9081526005865260408082209290931681526020919091522090565b54166040519015158152f35b346101eb575f3660031901126101eb5761119960018060a01b03600c541633146122c4565b600a80546001019055005b6001600160a01b031680156111c2575f52600360205260405f205490565b60405162461bcd60e51b815260206004820152602a60248201527f4552433732313a2062616c616e636520717565727920666f7220746865207a65604482015269726f206164647265737360b01b6064820152608490fd5b5f908152600260205260409020546001600160a01b0316801561123a5790565b60405162461bcd60e51b815260206004820152602960248201527f4552433732313a206f776e657220717565727920666f72206e6f6e657869737460448201526832b73a103a37b5b2b760b91b6064820152608490fd5b6040519061129e82610545565b5f8252565b906112b660209282815194859201610277565b0190565b156112c157565b60405162461bcd60e51b815260206004820152603860248201527f4552433732313a20617070726f76652063616c6c6572206973206e6f74206f776044820152771b995c881b9bdc88185c1c1c9bdd995908199bdc88185b1b60421b6064820152608490fd5b5f818152600260205260409020546001600160a01b03161561135d575f908152600460205260409020546001600160a01b031690565b60405162461bcd60e51b815260206004820152602c60248201527f4552433732313a20617070726f76656420717565727920666f72206e6f6e657860448201526b34b9ba32b73a103a37b5b2b760a11b6064820152608490fd5b156113be57565b60405162461bcd60e51b815260206004820152603160248201527f4552433732313a207472616e736665722063616c6c6572206973206e6f74206f6044820152701ddb995c881b9bdc88185c1c1c9bdd9959607a1b6064820152608490fd5b90916105bd9260405192610ae684610545565b916105bd9391611457936114476107d284336114d3565b611452838383611657565b6119b5565b6114af565b60809060208152603260208201527f4552433732313a207472616e7366657220746f206e6f6e20455243373231526560408201527131b2b4bb32b91034b6b83632b6b2b73a32b960711b60608201520190565b156114b657565b60405162461bcd60e51b8152806114cf6004820161145c565b0390fd5b5f828152600260205260409020546001600160a01b031615611562576114f88261121a565b6001600160a01b03828116828216811494909190851561154a575b505050821561152157505090565b6001600160a01b03165f90815260056020526040902060ff92506115459190610468565b541690565b6115579192939550611327565b1614915f8080611513565b60405162461bcd60e51b815260206004820152602c60248201527f4552433732313a206f70657261746f7220717565727920666f72206e6f6e657860448201526b34b9ba32b73a103a37b5b2b760a11b6064820152608490fd5b156115c357565b60405162461bcd60e51b8152602060048201526024808201527f4552433732313a207472616e7366657220746f20746865207a65726f206164646044820152637265737360e01b6064820152608490fd5b634e487b7160e01b5f52601160045260245ffd5b5f1981019190821161163657565b611614565b906001820180921161163657565b603001908160301161163657565b906116618361121a565b6001600160a01b038381169290918216839003611740576116ba61171a9282169461168d8615156115bc565b611698878483611a2f565b6116a187611797565b6001600160a01b03165f90815260036020526040902090565b6116c48154611628565b90556001600160a01b0381165f9081526003602052604090206116e7815461163b565b90556116fb855f52600260205260405f2090565b80546001600160a01b0319166001600160a01b03909216919091179055565b7fddf252ad1be2c89b69c2b068fc378daa952ba7f163c4a11628f55a4df523b3ef5f80a4565b60405162461bcd60e51b815260206004820152602960248201527f4552433732313a207472616e73666572206f6620746f6b656e2074686174206960448201526839903737ba1037bbb760b91b6064820152608490fd5b5f81815260046020526040812080546001600160a01b03191690556001600160a01b036117c38361121a565b167f8c5be1e5ebec7d5bd14f71427d1e84f3dd0314c0f7b2291e5b200ac8c7c3b9258280a4565b5f82815260046020526040902080546001600160a01b0319166001600160a01b0383161790556001600160a01b03806118228461121a565b169116907f8c5be1e5ebec7d5bd14f71427d1e84f3dd0314c0f7b2291e5b200ac8c7c3b9255f80a4565b908160209103126101eb57516102ce816101d9565b6102ce939260809260018060a01b031682525f602083015260408201528160608201520190610298565b6001600160a01b0391821681529116602082015260408101919091526080606082018190526102ce92910190610298565b6040513d5f823e3d90fd5b3d156118f1573d906118d882610c51565b916118e66040519384610560565b82523d5f602084013e565b606090565b909190803b156119ad576119276020915f93604051948580948193630a85bd0160e11b998a84523360048501611861565b03926001600160a01b03165af15f918161197d575b5061196f576119496118c7565b8051908161196a5760405162461bcd60e51b8152806114cf6004820161145c565b602001fd5b6001600160e01b0319161490565b61199f91925060203d81116119a6575b6119978183610560565b81019061184c565b905f61193c565b503d61198d565b505050600190565b92909190823b156119e757611927926020925f604051809681958294630a85bd0160e11b9a8b8552336004860161188b565b50505050600190565b634e487b7160e01b5f52603260045260245ffd5b90611a0e81611b73565b6001600160a01b038216611a26576105bd9150611bcd565b6105bd91611b3c565b9091906001600160a01b038082169182611a695750611a4d83611b73565b831680611a605750506105bd9150611bcd565b03611a26575050565b8185168303611a79575b50611a4d565b611a82816111a4565b5f19810190811161163657611ae690611ad95f9387855260076020526040852054838103611aed575b5084611abf895f52600760205260405f2090565b556001600160a01b03165f90815260066020526040902090565b905f5260205260405f2090565b555f611a73565b878652600660205260408620848752602052611b35604087205480611b2684611ad98760018060a01b03165f52600660205260405f2090565b555f52600760205260405f2090565b555f611aab565b604090611b48816111a4565b925f9160018060a01b0316825260066020528282208483526020528083832055815260076020522055565b600854815f5260096020528060405f2055600160401b811015610540576001810180600855811015611bc85760085f527ff3f7a9fe364faab93b216da50a3214154f22a0a2b415b23a84c8169e8b636ee30155565b6119f0565b600880545f19929083810190808211611636575f928084526009602052816040852054931015611bc85784845285826020862001015491831015611bc8578392611c2d611c3c9387865280836020882001555f52600960205260405f2090565b555f52600960205260405f2090565b558154928315611c5f578084019380851015611bc8578383526020832001015555565b634e487b7160e01b82526031600452602482fd5b90611c7d82610c51565b611c8a6040519182610560565b8281528092611c9b601f1991610c51565b0190602036910137565b908151811015611bc8570160200190565b8015611d40575f818181805b611d255750611cd081611c73565b935b611cdc5750505090565b611ce590611628565b90600a90611d10611d00611cfa848406611649565b60ff1690565b60f81b6001600160f81b03191690565b841a611d1c8487611ca5565b53049081611cd2565b91505f198114611636576001600a9101910480849291611cc2565b50604051604081018181106001600160401b038211176105405760405260018152600360fc1b602082015290565b90601f8111611d7c57505050565b5f91825260208220906020601f850160051c83019410611db7575b601f0160051c01915b828110611dac57505050565b818155600101611da0565b9092508290611d97565b91909182516001600160401b03811161054057611de881611de284546104d9565b84611d6e565b602080601f8311600114611e225750819293945f92611e17575b50508160011b915f199060031b1c1916179055565b015190505f80611e02565b90601f19831695611e36855f5260205f2090565b925f905b888210611e7157505083600195969710611e59575b505050811b019055565b01515f1960f88460031b161c191690555f8080611e4f565b80600185968294968601518155019501930190611e3a565b91909182519283516001600160401b03811161054057611eb381611ead85546104d9565b85611d6e565b6020948590601f8311600114611f46576105bd95968360809460049694611efb945f92611f3b575b50508160011b915f199060031b1c19161786555b82015160018601611dc1565b60408101516002850180546001600160a01b0319166001600160a01b03909216919091179055611f32606082015160038601611dc1565b01519101611dc1565b015190505f80611edb565b90601f19831691611f5a865f5260205f2090565b925f5b818110611fa557508460049694611efb946105bd9a9b9460809860019510611f8d575b505050811b018655611eef565b01515f1960f88460031b161c191690555f8080611f80565b929389600181928786015181550195019301611f5d565b91611fe590611fd76102ce9593606086526060860190610298565b908482036020860152610298565b916040818403910152610298565b909192600a5493604090815161200881610525565b8481528560208201523383820152816060820152836080820152825161202d81610545565b5f81523315612168579261216292612125899896936121006114577f41d9ee46553ca41d124afede342bf442c55b026baacc09a8e03e44ac6a05fae09a9861209761209261208e8f5f52600260205260018060a01b0360405f205416151590565b1590565b6121ab565b6120a18d33611a04565b335f9081526003602052604090206120b9815461163b565b90556120d28d6116fb33915f52600260205260405f2090565b8c335f7fddf252ad1be2c89b69c2b068fc378daa952ba7f163c4a11628f55a4df523b3ef8180a48c336118f6565b61210e6001600a5401600a55565b6121208a5f52600b60205260405f2090565b611e89565b877ff186850512b83bbf0f335f7c800bedbe0614ce9d5dbf664fd16bb7a2ef97683a8351806121553395826102bd565b0390a35193849384611fbc565b0390a290565b6064845162461bcd60e51b815260206004820152602060248201527f4552433732313a206d696e7420746f20746865207a65726f20616464726573736044820152fd5b156121b257565b60405162461bcd60e51b815260206004820152601c60248201527f4552433732313a20746f6b656e20616c7265616479206d696e746564000000006044820152606490fd5b156121fe57565b60405162461bcd60e51b815260206004820152601a60248201527f4e6f7420746865206f776e6572206f662074686520746f6b656e0000000000006044820152606490fd5b9060405161225081610525565b608061229f6004839561226281610581565b855261227060018201610581565b602086015260028101546001600160a01b0316604086015261229460038201610581565b606086015201610581565b910152565b6001600160a01b03906122b69061121a565b166122bf575f90565b600190565b156122cb57565b60405162461bcd60e51b815260206004820152601860248201527702737ba103a34329031b7b73a3930b1ba1037bbb732b910360451b6044820152606490fd5b1561231257565b60405162461bcd60e51b815260206004820152601b60248201527f563220636f6e74726163742061646472657373206e6f742073657400000000006044820152606490fd5b908160209103126101eb57516102ce81610dfb565b94919361239f6123bb946102ce98966123ad94895260018060a01b0316602089015260c0604089015260c0880190610298565b908682036060880152610298565b908482036080860152610298565b9160a081840391015261029856fea2646970667358221220dfd866f39fba6cab7820ced2401256e5497f5c8b2856db5dd33fb1c56036618f64736f6c63430008140033","opcodes":"PUSH1 0x80 CALLVALUE PUSH3 0x325 JUMPI PUSH1 0x1 PUSH1 0x1 PUSH1 0x40 SHL SUB SWAP1 PUSH1 0x40 SWAP1 DUP1 DUP3 ADD DUP4 DUP2 GT DUP3 DUP3 LT OR PUSH3 0x311 JUMPI DUP3 MSTORE PUSH1 0x11 DUP2 MSTORE PUSH1 0x20 SWAP3 PUSH17 0x4C6561726E74676574686572506F737473 PUSH1 0x78 SHL DUP5 DUP4 ADD MSTORE DUP3 MLOAD DUP4 DUP2 ADD DUP2 DUP2 LT DUP4 DUP3 GT OR PUSH3 0x311 JUMPI DUP5 MSTORE PUSH1 0x3 DUP2 MSTORE PUSH3 0x4C5447 PUSH1 0xE8 SHL DUP6 DUP3 ADD MSTORE DUP3 MLOAD SWAP1 DUP3 DUP3 GT PUSH3 0x311 JUMPI PUSH0 DUP1 SLOAD SWAP3 PUSH1 0x1 SWAP6 DUP7 DUP6 DUP2 SHR SWAP6 AND DUP1 ISZERO PUSH3 0x306 JUMPI JUMPDEST DUP10 DUP7 LT EQ PUSH3 0x2F2 JUMPI DUP2 SWAP1 PUSH1 0x1F SWAP6 DUP7 DUP2 GT PUSH3 0x29F JUMPI JUMPDEST POP DUP10 SWAP1 DUP7 DUP4 GT PUSH1 0x1 EQ PUSH3 0x23C JUMPI DUP5 SWAP3 PUSH3 0x230 JUMPI JUMPDEST POP POP PUSH0 NOT PUSH1 0x3 DUP4 SWAP1 SHL SHR NOT AND SWAP1 DUP7 SHL OR DUP2 SSTORE JUMPDEST DUP2 MLOAD SWAP4 DUP5 GT PUSH3 0x21C JUMPI DUP5 SLOAD DUP6 DUP2 DUP2 SHR SWAP2 AND DUP1 ISZERO PUSH3 0x211 JUMPI JUMPDEST DUP9 DUP3 LT EQ PUSH3 0x1FD JUMPI DUP4 DUP2 GT PUSH3 0x1B5 JUMPI JUMPDEST POP DUP7 SWAP3 DUP5 GT PUSH1 0x1 EQ PUSH3 0x150 JUMPI DUP4 SWAP5 SWAP6 SWAP7 POP SWAP3 PUSH3 0x144 JUMPI JUMPDEST POP POP PUSH0 NOT PUSH1 0x3 DUP4 SWAP1 SHL SHR NOT AND SWAP1 DUP3 SHL OR DUP2 SSTORE JUMPDEST CALLER PUSH1 0x1 DUP1 PUSH1 0xA0 SHL SUB NOT PUSH1 0xC SLOAD AND OR PUSH1 0xC SSTORE PUSH1 0xA SLOAD ADD PUSH1 0xA SSTORE MLOAD PUSH2 0x23FF SWAP1 DUP2 PUSH3 0x32A DUP3 CODECOPY RETURN JUMPDEST ADD MLOAD SWAP1 POP PUSH0 DUP1 PUSH3 0x10B JUMP JUMPDEST SWAP2 SWAP1 PUSH1 0x1F NOT DUP5 AND SWAP7 DUP6 DUP5 MSTORE DUP1 DUP5 KECCAK256 SWAP4 SWAP1 JUMPDEST DUP9 DUP3 LT PUSH3 0x19D JUMPI POP POP DUP4 DUP6 SWAP7 SWAP8 LT PUSH3 0x184 JUMPI JUMPDEST POP POP POP DUP2 SHL ADD DUP2 SSTORE PUSH3 0x11E JUMP JUMPDEST ADD MLOAD PUSH0 NOT PUSH1 0xF8 DUP5 PUSH1 0x3 SHL AND SHR NOT AND SWAP1 SSTORE PUSH0 DUP1 DUP1 PUSH3 0x176 JUMP JUMPDEST DUP1 DUP8 DUP6 SWAP7 DUP3 SWAP5 SWAP7 DUP7 ADD MLOAD DUP2 SSTORE ADD SWAP6 ADD SWAP4 ADD SWAP1 PUSH3 0x161 JUMP JUMPDEST DUP6 DUP3 MSTORE DUP8 DUP3 KECCAK256 DUP5 DUP1 DUP8 ADD PUSH1 0x5 SHR DUP3 ADD SWAP3 DUP11 DUP9 LT PUSH3 0x1F3 JUMPI JUMPDEST ADD PUSH1 0x5 SHR ADD SWAP1 DUP7 SWAP1 JUMPDEST DUP3 DUP2 LT PUSH3 0x1E7 JUMPI POP POP PUSH3 0xF2 JUMP JUMPDEST DUP4 DUP2 SSTORE ADD DUP7 SWAP1 PUSH3 0x1D7 JUMP JUMPDEST SWAP3 POP DUP2 SWAP3 PUSH3 0x1CE JUMP JUMPDEST PUSH4 0x4E487B71 PUSH1 0xE0 SHL DUP3 MSTORE PUSH1 0x22 PUSH1 0x4 MSTORE PUSH1 0x24 DUP3 REVERT JUMPDEST SWAP1 PUSH1 0x7F AND SWAP1 PUSH3 0xE0 JUMP JUMPDEST PUSH4 0x4E487B71 PUSH1 0xE0 SHL DUP2 MSTORE PUSH1 0x41 PUSH1 0x4 MSTORE PUSH1 0x24 SWAP1 REVERT JUMPDEST ADD MLOAD SWAP1 POP PUSH0 DUP1 PUSH3 0xB3 JUMP JUMPDEST DUP5 DUP1 MSTORE DUP11 DUP6 KECCAK256 DUP10 SWAP5 POP SWAP2 SWAP1 PUSH1 0x1F NOT DUP5 AND DUP7 JUMPDEST DUP14 DUP3 DUP3 LT PUSH3 0x288 JUMPI POP POP DUP5 GT PUSH3 0x26F JUMPI JUMPDEST POP POP POP DUP2 SHL ADD DUP2 SSTORE PUSH3 0xC6 JUMP JUMPDEST ADD MLOAD PUSH0 NOT PUSH1 0xF8 DUP5 PUSH1 0x3 SHL AND SHR NOT AND SWAP1 SSTORE PUSH0 DUP1 DUP1 PUSH3 0x261 JUMP JUMPDEST DUP4 DUP6 ADD MLOAD DUP7 SSTORE DUP13 SWAP8 SWAP1 SWAP6 ADD SWAP5 SWAP4 DUP5 ADD SWAP4 ADD PUSH3 0x24E JUMP JUMPDEST SWAP1 SWAP2 POP DUP4 DUP1 MSTORE DUP10 DUP5 KECCAK256 DUP7 DUP1 DUP6 ADD PUSH1 0x5 SHR DUP3 ADD SWAP3 DUP13 DUP7 LT PUSH3 0x2E8 JUMPI JUMPDEST SWAP2 DUP11 SWAP2 DUP7 SWAP6 SWAP5 SWAP4 ADD PUSH1 0x5 SHR ADD SWAP2 JUMPDEST DUP3 DUP2 LT PUSH3 0x2D9 JUMPI POP POP PUSH3 0x9D JUMP JUMPDEST DUP7 DUP2 SSTORE DUP6 SWAP5 POP DUP11 SWAP2 ADD PUSH3 0x2C9 JUMP JUMPDEST SWAP3 POP DUP2 SWAP3 PUSH3 0x2BB JUMP JUMPDEST PUSH4 0x4E487B71 PUSH1 0xE0 SHL DUP4 MSTORE PUSH1 0x22 PUSH1 0x4 MSTORE PUSH1 0x24 DUP4 REVERT JUMPDEST SWAP5 PUSH1 0x7F AND SWAP5 PUSH3 0x86 JUMP JUMPDEST PUSH4 0x4E487B71 PUSH1 0xE0 SHL PUSH0 MSTORE PUSH1 0x41 PUSH1 0x4 MSTORE PUSH1 0x24 PUSH0 REVERT JUMPDEST PUSH0 DUP1 REVERT INVALID PUSH1 0x80 PUSH1 0x40 MSTORE PUSH1 0x4 CALLDATASIZE LT ISZERO PUSH2 0x11 JUMPI PUSH0 DUP1 REVERT JUMPDEST PUSH0 CALLDATALOAD PUSH1 0xE0 SHR DUP1 PUSH4 0x1FFC9A7 EQ PUSH2 0x1D4 JUMPI DUP1 PUSH4 0x6FDDE03 EQ PUSH2 0x1CF JUMPI DUP1 PUSH4 0x81812FC EQ PUSH2 0x1CA JUMPI DUP1 PUSH4 0x95EA7B3 EQ PUSH2 0x1C5 JUMPI DUP1 PUSH4 0xB1E7F83 EQ PUSH2 0x1C0 JUMPI DUP1 PUSH4 0x1072CBEA EQ PUSH2 0x1BB JUMPI DUP1 PUSH4 0x18160DDD EQ PUSH2 0x1B6 JUMPI DUP1 PUSH4 0x23B872DD EQ PUSH2 0x1B1 JUMPI DUP1 PUSH4 0x2F745C59 EQ PUSH2 0x1AC JUMPI DUP1 PUSH4 0x336C1AD7 EQ PUSH2 0x1A7 JUMPI DUP1 PUSH4 0x40731C24 EQ PUSH2 0x1A2 JUMPI DUP1 PUSH4 0x42842E0E EQ PUSH2 0x19D JUMPI DUP1 PUSH4 0x4F6CCCE7 EQ PUSH2 0x198 JUMPI DUP1 PUSH4 0x6352211E EQ PUSH2 0x193 JUMPI DUP1 PUSH4 0x6A020429 EQ PUSH2 0x18E JUMPI DUP1 PUSH4 0x70A08231 EQ PUSH2 0x189 JUMPI DUP1 PUSH4 0x7B4F6D92 EQ PUSH2 0x184 JUMPI DUP1 PUSH4 0x7D67E967 EQ PUSH2 0x17F JUMPI DUP1 PUSH4 0x8DA5CB5B EQ PUSH2 0x17A JUMPI DUP1 PUSH4 0x95D89B41 EQ PUSH2 0x175 JUMPI DUP1 PUSH4 0xA22CB465 EQ PUSH2 0x170 JUMPI DUP1 PUSH4 0xAE54E32B EQ PUSH2 0x16B JUMPI DUP1 PUSH4 0xB225500C EQ PUSH2 0x166 JUMPI DUP1 PUSH4 0xB88D4FDE EQ PUSH2 0x161 JUMPI DUP1 PUSH4 0xC87B56DD EQ PUSH2 0x15C JUMPI DUP1 PUSH4 0xD242D34E EQ PUSH2 0x157 JUMPI DUP1 PUSH4 0xE985E9C5 EQ PUSH2 0x152 JUMPI PUSH4 0xF6A800EE EQ PUSH2 0x14D JUMPI PUSH0 DUP1 REVERT JUMPDEST PUSH2 0x1174 JUMP JUMPDEST PUSH2 0x1118 JUMP JUMPDEST PUSH2 0x1080 JUMP JUMPDEST PUSH2 0xF98 JUMP JUMPDEST PUSH2 0xF39 JUMP JUMPDEST PUSH2 0xF11 JUMP JUMPDEST PUSH2 0xEE9 JUMP JUMPDEST PUSH2 0xE05 JUMP JUMPDEST PUSH2 0xD77 JUMP JUMPDEST PUSH2 0xD4F JUMP JUMPDEST PUSH2 0xCBD JUMP JUMPDEST PUSH2 0xC09 JUMP JUMPDEST PUSH2 0xBDE JUMP JUMPDEST PUSH2 0xBB6 JUMP JUMPDEST PUSH2 0xB98 JUMP JUMPDEST PUSH2 0xAEE JUMP JUMPDEST PUSH2 0xAC7 JUMP JUMPDEST PUSH2 0xA19 JUMP JUMPDEST PUSH2 0x88E JUMP JUMPDEST PUSH2 0x7DC JUMP JUMPDEST PUSH2 0x7B3 JUMP JUMPDEST PUSH2 0x761 JUMP JUMPDEST PUSH2 0x6CE JUMP JUMPDEST PUSH2 0x622 JUMP JUMPDEST PUSH2 0x3ED JUMP JUMPDEST PUSH2 0x391 JUMP JUMPDEST PUSH2 0x2D1 JUMP JUMPDEST PUSH2 0x1EF JUMP JUMPDEST PUSH1 0x1 PUSH1 0x1 PUSH1 0xE0 SHL SUB NOT DUP2 AND SUB PUSH2 0x1EB JUMPI JUMP JUMPDEST PUSH0 DUP1 REVERT JUMPDEST CALLVALUE PUSH2 0x1EB JUMPI PUSH1 0x20 CALLDATASIZE PUSH1 0x3 NOT ADD SLT PUSH2 0x1EB JUMPI PUSH1 0x20 PUSH1 0x4 CALLDATALOAD PUSH2 0x20E DUP2 PUSH2 0x1D9 JUMP JUMPDEST PUSH4 0xFFFFFFFF PUSH1 0xE0 SHL AND PUSH4 0x780E9D63 PUSH1 0xE0 SHL DUP2 EQ SWAP1 DUP2 ISZERO PUSH2 0x234 JUMPI JUMPDEST POP PUSH1 0x40 MLOAD SWAP1 ISZERO ISZERO DUP2 MSTORE RETURN JUMPDEST PUSH4 0x80AC58CD PUSH1 0xE0 SHL DUP2 EQ SWAP2 POP DUP2 ISZERO PUSH2 0x266 JUMPI JUMPDEST DUP2 ISZERO PUSH2 0x255 JUMPI JUMPDEST POP PUSH0 PUSH2 0x229 JUMP JUMPDEST PUSH4 0x1FFC9A7 PUSH1 0xE0 SHL EQ SWAP1 POP PUSH0 PUSH2 0x24E JUMP JUMPDEST PUSH4 0x5B5E139F PUSH1 0xE0 SHL DUP2 EQ SWAP2 POP PUSH2 0x247 JUMP JUMPDEST PUSH0 JUMPDEST DUP4 DUP2 LT PUSH2 0x288 JUMPI POP POP PUSH0 SWAP2 ADD MSTORE JUMP JUMPDEST DUP2 DUP2 ADD MLOAD DUP4 DUP3 ADD MSTORE PUSH1 0x20 ADD PUSH2 0x279 JUMP JUMPDEST SWAP1 PUSH1 0x20 SWAP2 PUSH2 0x2B1 DUP2 MLOAD DUP1 SWAP3 DUP2 DUP6 MSTORE DUP6 DUP1 DUP7 ADD SWAP2 ADD PUSH2 0x277 JUMP JUMPDEST PUSH1 0x1F ADD PUSH1 0x1F NOT AND ADD ADD SWAP1 JUMP JUMPDEST SWAP1 PUSH1 0x20 PUSH2 0x2CE SWAP3 DUP2 DUP2 MSTORE ADD SWAP1 PUSH2 0x298 JUMP JUMPDEST SWAP1 JUMP JUMPDEST CALLVALUE PUSH2 0x1EB JUMPI PUSH0 DUP1 PUSH1 0x3 NOT CALLDATASIZE ADD SLT PUSH2 0x38E JUMPI PUSH1 0x40 MLOAD DUP2 DUP1 SLOAD PUSH2 0x2F1 DUP2 PUSH2 0x4D9 JUMP JUMPDEST DUP1 DUP5 MSTORE SWAP1 PUSH1 0x1 SWAP1 DUP2 DUP2 AND SWAP1 DUP2 ISZERO PUSH2 0x366 JUMPI POP PUSH1 0x1 EQ PUSH2 0x32B JUMPI JUMPDEST PUSH2 0x327 DUP5 PUSH2 0x31B DUP2 DUP9 SUB DUP3 PUSH2 0x560 JUMP JUMPDEST PUSH1 0x40 MLOAD SWAP2 DUP3 SWAP2 DUP3 PUSH2 0x2BD JUMP JUMPDEST SUB SWAP1 RETURN JUMPDEST SWAP4 POP DUP2 DUP1 MSTORE PUSH1 0x20 SWAP4 DUP5 DUP4 KECCAK256 JUMPDEST DUP3 DUP5 LT PUSH2 0x353 JUMPI POP POP POP DUP2 PUSH2 0x327 SWAP4 PUSH2 0x31B SWAP3 DUP3 ADD ADD SWAP4 PUSH2 0x30B JUMP JUMPDEST DUP1 SLOAD DUP6 DUP6 ADD DUP8 ADD MSTORE SWAP3 DUP6 ADD SWAP3 DUP2 ADD PUSH2 0x337 JUMP JUMPDEST PUSH2 0x327 SWAP7 POP PUSH2 0x31B SWAP5 POP PUSH1 0x20 SWAP3 POP DUP6 SWAP4 SWAP2 POP PUSH1 0xFF NOT AND DUP3 DUP5 ADD MSTORE ISZERO ISZERO PUSH1 0x5 SHL DUP3 ADD ADD SWAP4 PUSH2 0x30B JUMP JUMPDEST DUP1 REVERT JUMPDEST CALLVALUE PUSH2 0x1EB JUMPI PUSH1 0x20 CALLDATASIZE PUSH1 0x3 NOT ADD SLT PUSH2 0x1EB JUMPI PUSH1 0x20 PUSH2 0x3AF PUSH1 0x4 CALLDATALOAD PUSH2 0x1327 JUMP JUMPDEST PUSH1 0x40 MLOAD PUSH1 0x1 PUSH1 0x1 PUSH1 0xA0 SHL SUB SWAP1 SWAP2 AND DUP2 MSTORE RETURN JUMPDEST PUSH1 0x4 CALLDATALOAD SWAP1 PUSH1 0x1 PUSH1 0x1 PUSH1 0xA0 SHL SUB DUP3 AND DUP3 SUB PUSH2 0x1EB JUMPI JUMP JUMPDEST PUSH1 0x24 CALLDATALOAD SWAP1 PUSH1 0x1 PUSH1 0x1 PUSH1 0xA0 SHL SUB DUP3 AND DUP3 SUB PUSH2 0x1EB JUMPI JUMP JUMPDEST CALLVALUE PUSH2 0x1EB JUMPI PUSH1 0x40 CALLDATASIZE PUSH1 0x3 NOT ADD SLT PUSH2 0x1EB JUMPI PUSH2 0x406 PUSH2 0x3C1 JUMP JUMPDEST PUSH1 0x24 CALLDATALOAD PUSH2 0x412 DUP2 PUSH2 0x121A JUMP JUMPDEST SWAP2 PUSH1 0x1 PUSH1 0x1 PUSH1 0xA0 SHL SUB DUP1 DUP5 AND SWAP1 DUP3 AND DUP2 EQ PUSH2 0x48A JUMPI PUSH2 0x444 SWAP4 PUSH2 0x43F SWAP2 CALLER EQ SWAP1 DUP2 ISZERO PUSH2 0x446 JUMPI JUMPDEST POP PUSH2 0x12BA JUMP JUMPDEST PUSH2 0x17EA JUMP JUMPDEST STOP JUMPDEST PUSH1 0x1 PUSH1 0x1 PUSH1 0xA0 SHL SUB AND PUSH0 SWAP1 DUP2 MSTORE PUSH1 0x5 PUSH1 0x20 MSTORE PUSH1 0x40 SWAP1 KECCAK256 PUSH2 0x484 SWAP2 POP PUSH2 0x47D SWAP1 CALLER SWAP1 JUMPDEST SWAP1 PUSH1 0x1 DUP1 PUSH1 0xA0 SHL SUB AND PUSH0 MSTORE PUSH1 0x20 MSTORE PUSH1 0x40 PUSH0 KECCAK256 SWAP1 JUMP JUMPDEST SLOAD PUSH1 0xFF AND SWAP1 JUMP JUMPDEST PUSH0 PUSH2 0x439 JUMP JUMPDEST PUSH1 0x40 MLOAD PUSH3 0x461BCD PUSH1 0xE5 SHL DUP2 MSTORE PUSH1 0x20 PUSH1 0x4 DUP3 ADD MSTORE PUSH1 0x21 PUSH1 0x24 DUP3 ADD MSTORE PUSH32 0x4552433732313A20617070726F76616C20746F2063757272656E74206F776E65 PUSH1 0x44 DUP3 ADD MSTORE PUSH1 0x39 PUSH1 0xF9 SHL PUSH1 0x64 DUP3 ADD MSTORE PUSH1 0x84 SWAP1 REVERT JUMPDEST SWAP1 PUSH1 0x1 DUP3 DUP2 SHR SWAP3 AND DUP1 ISZERO PUSH2 0x507 JUMPI JUMPDEST PUSH1 0x20 DUP4 LT EQ PUSH2 0x4F3 JUMPI JUMP JUMPDEST PUSH4 0x4E487B71 PUSH1 0xE0 SHL PUSH0 MSTORE PUSH1 0x22 PUSH1 0x4 MSTORE PUSH1 0x24 PUSH0 REVERT JUMPDEST SWAP2 PUSH1 0x7F AND SWAP2 PUSH2 0x4E8 JUMP JUMPDEST PUSH4 0x4E487B71 PUSH1 0xE0 SHL PUSH0 MSTORE PUSH1 0x41 PUSH1 0x4 MSTORE PUSH1 0x24 PUSH0 REVERT JUMPDEST PUSH1 0xA0 DUP2 ADD SWAP1 DUP2 LT PUSH1 0x1 PUSH1 0x1 PUSH1 0x40 SHL SUB DUP3 GT OR PUSH2 0x540 JUMPI PUSH1 0x40 MSTORE JUMP JUMPDEST PUSH2 0x511 JUMP JUMPDEST PUSH1 0x20 DUP2 ADD SWAP1 DUP2 LT PUSH1 0x1 PUSH1 0x1 PUSH1 0x40 SHL SUB DUP3 GT OR PUSH2 0x540 JUMPI PUSH1 0x40 MSTORE JUMP JUMPDEST SWAP1 PUSH1 0x1F DUP1 NOT SWAP2 ADD AND DUP2 ADD SWAP1 DUP2 LT PUSH1 0x1 PUSH1 0x1 PUSH1 0x40 SHL SUB DUP3 GT OR PUSH2 0x540 JUMPI PUSH1 0x40 MSTORE JUMP JUMPDEST SWAP1 PUSH1 0x40 MLOAD SWAP2 DUP3 PUSH0 DUP3 SLOAD SWAP3 PUSH2 0x594 DUP5 PUSH2 0x4D9 JUMP JUMPDEST SWAP1 DUP2 DUP5 MSTORE PUSH1 0x1 SWAP5 DUP6 DUP2 AND SWAP1 DUP2 PUSH0 EQ PUSH2 0x5FF JUMPI POP PUSH1 0x1 EQ PUSH2 0x5BF JUMPI JUMPDEST POP POP PUSH2 0x5BD SWAP3 POP SUB DUP4 PUSH2 0x560 JUMP JUMPDEST JUMP JUMPDEST SWAP1 SWAP4 SWAP2 POP PUSH0 MSTORE PUSH1 0x20 SWAP1 DUP2 PUSH0 KECCAK256 SWAP4 PUSH0 SWAP2 JUMPDEST DUP2 DUP4 LT PUSH2 0x5E7 JUMPI POP POP PUSH2 0x5BD SWAP4 POP DUP3 ADD ADD PUSH0 DUP1 PUSH2 0x5AF JUMP JUMPDEST DUP6 SLOAD DUP9 DUP5 ADD DUP6 ADD MSTORE SWAP5 DUP6 ADD SWAP5 DUP8 SWAP5 POP SWAP2 DUP4 ADD SWAP2 PUSH2 0x5CF JUMP JUMPDEST SWAP2 POP POP PUSH2 0x5BD SWAP5 POP PUSH1 0x20 SWAP3 POP PUSH1 0xFF NOT AND DUP3 DUP5 ADD MSTORE ISZERO ISZERO PUSH1 0x5 SHL DUP3 ADD ADD PUSH0 DUP1 PUSH2 0x5AF JUMP JUMPDEST CALLVALUE PUSH2 0x1EB JUMPI PUSH1 0x20 CALLDATASIZE PUSH1 0x3 NOT ADD SLT PUSH2 0x1EB JUMPI PUSH1 0x4 CALLDATALOAD PUSH0 MSTORE PUSH1 0xB PUSH1 0x20 MSTORE PUSH2 0x69F PUSH1 0x40 PUSH0 KECCAK256 PUSH2 0x327 PUSH2 0x650 DUP3 PUSH2 0x581 JUMP JUMPDEST SWAP2 PUSH2 0x6C0 PUSH2 0x660 PUSH1 0x1 DUP4 ADD PUSH2 0x581 JUMP JUMPDEST SWAP2 PUSH1 0x1 DUP1 PUSH1 0xA0 SHL SUB PUSH1 0x2 DUP3 ADD SLOAD AND SWAP1 PUSH2 0x6AD PUSH2 0x68A PUSH1 0x4 PUSH2 0x683 PUSH1 0x3 DUP6 ADD PUSH2 0x581 JUMP JUMPDEST SWAP4 ADD PUSH2 0x581 JUMP JUMPDEST SWAP5 PUSH1 0x40 MLOAD SWAP9 DUP10 SWAP9 PUSH1 0xA0 DUP11 MSTORE PUSH1 0xA0 DUP11 ADD SWAP1 PUSH2 0x298 JUMP JUMPDEST SWAP1 DUP9 DUP3 SUB PUSH1 0x20 DUP11 ADD MSTORE PUSH2 0x298 JUMP JUMPDEST SWAP2 PUSH1 0x40 DUP8 ADD MSTORE DUP6 DUP3 SUB PUSH1 0x60 DUP8 ADD MSTORE PUSH2 0x298 JUMP JUMPDEST SWAP1 DUP4 DUP3 SUB PUSH1 0x80 DUP6 ADD MSTORE PUSH2 0x298 JUMP JUMPDEST CALLVALUE PUSH2 0x1EB JUMPI PUSH1 0x40 CALLDATASIZE PUSH1 0x3 NOT ADD SLT PUSH2 0x1EB JUMPI PUSH2 0x6E7 PUSH2 0x3C1 JUMP JUMPDEST PUSH1 0x24 CALLDATALOAD PUSH2 0x6F3 DUP2 PUSH2 0x121A JUMP JUMPDEST CALLER PUSH1 0x1 PUSH1 0x1 PUSH1 0xA0 SHL SUB SWAP1 SWAP2 AND SUB PUSH2 0x70E JUMPI PUSH2 0x444 SWAP2 CALLER PUSH2 0x1657 JUMP JUMPDEST PUSH1 0x40 MLOAD PUSH3 0x461BCD PUSH1 0xE5 SHL DUP2 MSTORE PUSH1 0x20 PUSH1 0x4 DUP3 ADD MSTORE PUSH1 0x25 PUSH1 0x24 DUP3 ADD MSTORE PUSH32 0x4F6E6C7920746865206F776E65722063616E207472616E736665722074686520 PUSH1 0x44 DUP3 ADD MSTORE PUSH5 0x3A37B5B2B7 PUSH1 0xD9 SHL PUSH1 0x64 DUP3 ADD MSTORE PUSH1 0x84 SWAP1 REVERT JUMPDEST CALLVALUE PUSH2 0x1EB JUMPI PUSH0 CALLDATASIZE PUSH1 0x3 NOT ADD SLT PUSH2 0x1EB JUMPI PUSH1 0x20 PUSH1 0x8 SLOAD PUSH1 0x40 MLOAD SWAP1 DUP2 MSTORE RETURN JUMPDEST PUSH1 0x60 SWAP1 PUSH1 0x3 NOT ADD SLT PUSH2 0x1EB JUMPI PUSH1 0x1 PUSH1 0x1 PUSH1 0xA0 SHL SUB SWAP1 PUSH1 0x4 CALLDATALOAD DUP3 DUP2 AND DUP2 SUB PUSH2 0x1EB JUMPI SWAP2 PUSH1 0x24 CALLDATALOAD SWAP1 DUP2 AND DUP2 SUB PUSH2 0x1EB JUMPI SWAP1 PUSH1 0x44 CALLDATALOAD SWAP1 JUMP JUMPDEST CALLVALUE PUSH2 0x1EB JUMPI PUSH2 0x444 PUSH2 0x7C4 CALLDATASIZE PUSH2 0x77E JUMP JUMPDEST SWAP2 PUSH2 0x7D7 PUSH2 0x7D2 DUP5 CALLER PUSH2 0x14D3 JUMP JUMPDEST PUSH2 0x13B7 JUMP JUMPDEST PUSH2 0x1657 JUMP JUMPDEST CALLVALUE PUSH2 0x1EB JUMPI PUSH1 0x40 CALLDATASIZE PUSH1 0x3 NOT ADD SLT PUSH2 0x1EB JUMPI PUSH2 0x7F5 PUSH2 0x3C1 JUMP JUMPDEST PUSH1 0x24 CALLDATALOAD SWAP1 PUSH2 0x802 DUP2 PUSH2 0x11A4 JUMP JUMPDEST DUP3 LT ISZERO PUSH2 0x835 JUMPI PUSH1 0x1 PUSH1 0x1 PUSH1 0xA0 SHL SUB AND PUSH0 SWAP1 DUP2 MSTORE PUSH1 0x6 PUSH1 0x20 SWAP1 DUP2 MSTORE PUSH1 0x40 DUP1 DUP4 KECCAK256 SWAP4 DUP4 MSTORE SWAP3 DUP2 MSTORE SWAP1 DUP3 SWAP1 KECCAK256 SLOAD SWAP2 MLOAD SWAP2 DUP3 MSTORE SWAP1 RETURN JUMPDEST PUSH1 0x40 MLOAD PUSH3 0x461BCD PUSH1 0xE5 SHL DUP2 MSTORE PUSH1 0x20 PUSH1 0x4 DUP3 ADD MSTORE PUSH1 0x2B PUSH1 0x24 DUP3 ADD MSTORE PUSH32 0x455243373231456E756D657261626C653A206F776E657220696E646578206F75 PUSH1 0x44 DUP3 ADD MSTORE PUSH11 0x74206F6620626F756E6473 PUSH1 0xA8 SHL PUSH1 0x64 DUP3 ADD MSTORE PUSH1 0x84 SWAP1 REVERT JUMPDEST CALLVALUE PUSH2 0x1EB JUMPI PUSH1 0x20 CALLDATASIZE PUSH1 0x3 NOT ADD SLT PUSH2 0x1EB JUMPI PUSH1 0xD SLOAD PUSH1 0x4 CALLDATALOAD SWAP1 PUSH1 0x20 SWAP1 PUSH1 0x1 PUSH1 0x1 PUSH1 0xA0 SHL SUB AND SWAP2 PUSH2 0x8DC PUSH1 0x1 PUSH1 0x1 PUSH1 0xA0 SHL SUB PUSH2 0x8CB DUP2 DUP7 AND ISZERO ISZERO PUSH2 0x230B JUMP JUMPDEST PUSH2 0x8D4 DUP4 PUSH2 0x121A JUMP JUMPDEST AND CALLER EQ PUSH2 0x21F7 JUMP JUMPDEST PUSH2 0x901 DUP2 PUSH2 0x8FA PUSH2 0x8F5 DUP3 PUSH0 MSTORE PUSH1 0xB PUSH1 0x20 MSTORE PUSH1 0x40 PUSH0 KECCAK256 SWAP1 JUMP JUMPDEST PUSH2 0x2243 JUMP JUMPDEST SWAP5 CALLER PUSH2 0x141D JUMP JUMPDEST PUSH1 0xD SLOAD PUSH2 0x924 SWAP1 PUSH2 0x918 SWAP1 PUSH1 0x1 PUSH1 0x1 PUSH1 0xA0 SHL SUB AND DUP2 JUMP JUMPDEST PUSH1 0x1 PUSH1 0x1 PUSH1 0xA0 SHL SUB AND SWAP1 JUMP JUMPDEST PUSH1 0x40 DUP5 ADD MLOAD PUSH1 0x1 PUSH1 0x1 PUSH1 0xA0 SHL SUB AND PUSH0 PUSH1 0x60 DUP7 ADD MLOAD SWAP4 PUSH2 0x966 DUP7 DUP9 ADD MLOAD SWAP8 PUSH1 0x80 DUP2 MLOAD SWAP2 ADD MLOAD SWAP1 PUSH1 0x40 MLOAD SWAP10 DUP11 SWAP9 DUP10 SWAP8 DUP9 SWAP7 PUSH4 0x6B72F8F PUSH1 0xE1 SHL DUP9 MSTORE PUSH1 0x4 DUP9 ADD PUSH2 0x236C JUMP JUMPDEST SUB SWAP3 GAS CALL DUP1 ISZERO PUSH2 0x99D JUMPI PUSH2 0x976 JUMPI STOP JUMPDEST PUSH2 0x444 SWAP1 PUSH1 0x20 RETURNDATASIZE DUP2 GT PUSH2 0x996 JUMPI JUMPDEST PUSH2 0x98E DUP2 DUP4 PUSH2 0x560 JUMP JUMPDEST DUP2 ADD SWAP1 PUSH2 0x2357 JUMP JUMPDEST POP RETURNDATASIZE PUSH2 0x984 JUMP JUMPDEST PUSH2 0x18BC JUMP JUMPDEST SWAP1 PUSH2 0x2CE SWAP2 PUSH1 0x20 DUP2 MSTORE PUSH2 0x9C1 DUP3 MLOAD PUSH1 0xA0 PUSH1 0x20 DUP5 ADD MSTORE PUSH1 0xC0 DUP4 ADD SWAP1 PUSH2 0x298 JUMP JUMPDEST SWAP1 PUSH1 0xA0 PUSH1 0x80 PUSH2 0xA09 PUSH2 0x9E5 PUSH1 0x20 DUP8 ADD MLOAD SWAP6 PUSH1 0x1F NOT SWAP7 DUP8 DUP8 DUP4 SUB ADD PUSH1 0x40 DUP9 ADD MSTORE PUSH2 0x298 JUMP JUMPDEST PUSH1 0x1 DUP1 DUP6 SHL SUB PUSH1 0x40 DUP9 ADD MLOAD AND PUSH1 0x60 DUP7 ADD MSTORE PUSH1 0x60 DUP8 ADD MLOAD DUP7 DUP7 DUP4 SUB ADD DUP5 DUP8 ADD MSTORE PUSH2 0x298 JUMP JUMPDEST SWAP5 ADD MLOAD SWAP3 DUP3 DUP6 SUB ADD SWAP2 ADD MSTORE PUSH2 0x298 JUMP JUMPDEST CALLVALUE PUSH2 0x1EB JUMPI PUSH1 0x20 CALLDATASIZE PUSH1 0x3 NOT ADD SLT PUSH2 0x1EB JUMPI PUSH2 0x327 PUSH1 0x80 PUSH1 0x40 DUP1 MLOAD PUSH2 0xA3C DUP2 PUSH2 0x525 JUMP JUMPDEST PUSH1 0x60 SWAP3 DUP2 DUP5 DUP1 SWAP4 MSTORE DUP3 PUSH1 0x20 DUP3 ADD MSTORE PUSH0 DUP5 DUP3 ADD MSTORE DUP3 DUP1 DUP3 ADD MSTORE ADD MSTORE PUSH1 0x4 CALLDATALOAD PUSH0 MSTORE PUSH1 0xB PUSH1 0x20 MSTORE PUSH2 0xAB8 PUSH1 0x4 DUP3 PUSH0 KECCAK256 DUP4 MLOAD SWAP5 PUSH2 0xA74 DUP7 PUSH2 0x525 JUMP JUMPDEST PUSH2 0xA7D DUP3 PUSH2 0x581 JUMP JUMPDEST DUP7 MSTORE PUSH2 0xA8B PUSH1 0x1 DUP4 ADD PUSH2 0x581 JUMP JUMPDEST PUSH1 0x20 DUP8 ADD MSTORE PUSH1 0x2 DUP3 ADD SLOAD PUSH1 0x1 PUSH1 0x1 PUSH1 0xA0 SHL SUB AND DUP6 DUP8 ADD MSTORE PUSH2 0xAAE PUSH1 0x3 DUP4 ADD PUSH2 0x581 JUMP JUMPDEST SWAP1 DUP7 ADD MSTORE ADD PUSH2 0x581 JUMP JUMPDEST PUSH1 0x80 DUP4 ADD MSTORE MLOAD SWAP2 DUP3 SWAP2 DUP3 PUSH2 0x9A2 JUMP JUMPDEST CALLVALUE PUSH2 0x1EB JUMPI PUSH2 0x444 PUSH2 0xAD8 CALLDATASIZE PUSH2 0x77E JUMP JUMPDEST SWAP1 PUSH1 0x40 MLOAD SWAP3 PUSH2 0xAE6 DUP5 PUSH2 0x545 JUMP JUMPDEST PUSH0 DUP5 MSTORE PUSH2 0x1430 JUMP JUMPDEST CALLVALUE PUSH2 0x1EB JUMPI PUSH1 0x20 CALLDATASIZE PUSH1 0x3 NOT ADD SLT PUSH2 0x1EB JUMPI PUSH1 0x4 CALLDATALOAD PUSH1 0x8 SLOAD DUP2 LT ISZERO PUSH2 0xB3E JUMPI PUSH1 0x8 PUSH0 MSTORE PUSH32 0xF3F7A9FE364FAAB93B216DA50A3214154F22A0A2B415B23A84C8169E8B636EE3 ADD SLOAD PUSH1 0x40 MLOAD SWAP1 DUP2 MSTORE PUSH1 0x20 SWAP1 RETURN JUMPDEST PUSH1 0x40 MLOAD PUSH3 0x461BCD PUSH1 0xE5 SHL DUP2 MSTORE PUSH1 0x20 PUSH1 0x4 DUP3 ADD MSTORE PUSH1 0x2C PUSH1 0x24 DUP3 ADD MSTORE PUSH32 0x455243373231456E756D657261626C653A20676C6F62616C20696E646578206F PUSH1 0x44 DUP3 ADD MSTORE PUSH12 0x7574206F6620626F756E6473 PUSH1 0xA0 SHL PUSH1 0x64 DUP3 ADD MSTORE PUSH1 0x84 SWAP1 REVERT JUMPDEST CALLVALUE PUSH2 0x1EB JUMPI PUSH1 0x20 CALLDATASIZE PUSH1 0x3 NOT ADD SLT PUSH2 0x1EB JUMPI PUSH1 0x20 PUSH2 0x3AF PUSH1 0x4 CALLDATALOAD PUSH2 0x121A JUMP JUMPDEST CALLVALUE PUSH2 0x1EB JUMPI PUSH0 CALLDATASIZE PUSH1 0x3 NOT ADD SLT PUSH2 0x1EB JUMPI PUSH1 0xD SLOAD PUSH1 0x40 MLOAD PUSH1 0x1 PUSH1 0x1 PUSH1 0xA0 SHL SUB SWAP1 SWAP2 AND DUP2 MSTORE PUSH1 0x20 SWAP1 RETURN JUMPDEST CALLVALUE PUSH2 0x1EB JUMPI PUSH1 0x20 CALLDATASIZE PUSH1 0x3 NOT ADD SLT PUSH2 0x1EB JUMPI PUSH1 0x20 PUSH2 0xC01 PUSH2 0xBFC PUSH2 0x3C1 JUMP JUMPDEST PUSH2 0x11A4 JUMP JUMPDEST PUSH1 0x40 MLOAD SWAP1 DUP2 MSTORE RETURN JUMPDEST CALLVALUE PUSH2 0x1EB JUMPI PUSH1 0x20 CALLDATASIZE PUSH1 0x3 NOT ADD SLT PUSH2 0x1EB JUMPI PUSH2 0xC22 PUSH2 0x3C1 JUMP JUMPDEST PUSH1 0xC SLOAD PUSH1 0x1 PUSH1 0x1 PUSH1 0xA0 SHL SUB SWAP2 SWAP1 PUSH2 0xC3C SWAP1 DUP4 AND CALLER EQ PUSH2 0x22C4 JUMP JUMPDEST AND PUSH1 0x1 DUP1 PUSH1 0xA0 SHL SUB NOT PUSH1 0xD SLOAD AND OR PUSH1 0xD SSTORE PUSH0 DUP1 RETURN JUMPDEST PUSH1 0x1 PUSH1 0x1 PUSH1 0x40 SHL SUB DUP2 GT PUSH2 0x540 JUMPI PUSH1 0x1F ADD PUSH1 0x1F NOT AND PUSH1 0x20 ADD SWAP1 JUMP JUMPDEST SWAP3 SWAP2 SWAP3 PUSH2 0xC78 DUP3 PUSH2 0xC51 JUMP JUMPDEST SWAP2 PUSH2 0xC86 PUSH1 0x40 MLOAD SWAP4 DUP5 PUSH2 0x560 JUMP JUMPDEST DUP3 SWAP5 DUP2 DUP5 MSTORE DUP2 DUP4 ADD GT PUSH2 0x1EB JUMPI DUP3 DUP2 PUSH1 0x20 SWAP4 DUP5 PUSH0 SWAP7 ADD CALLDATACOPY ADD ADD MSTORE JUMP JUMPDEST SWAP1 DUP1 PUSH1 0x1F DUP4 ADD SLT ISZERO PUSH2 0x1EB JUMPI DUP2 PUSH1 0x20 PUSH2 0x2CE SWAP4 CALLDATALOAD SWAP2 ADD PUSH2 0xC6C JUMP JUMPDEST CALLVALUE PUSH2 0x1EB JUMPI PUSH1 0x40 CALLDATASIZE PUSH1 0x3 NOT ADD SLT PUSH2 0x1EB JUMPI PUSH1 0x24 CALLDATALOAD PUSH1 0x4 CALLDATALOAD PUSH1 0x1 PUSH1 0x1 PUSH1 0x40 SHL SUB DUP3 GT PUSH2 0x1EB JUMPI PUSH2 0xD11 PUSH32 0xB290E01B548AE78ACE76449298ED234C42194D80AF9F7DFE02FC4F7DE07B9D3 SWAP3 CALLDATASIZE SWAP1 PUSH1 0x4 ADD PUSH2 0xCA2 JUMP JUMPDEST SWAP1 PUSH2 0xD2E PUSH2 0xD1E DUP3 PUSH2 0x121A JUMP JUMPDEST PUSH1 0x1 PUSH1 0x1 PUSH1 0xA0 SHL SUB AND CALLER EQ PUSH2 0x21F7 JUMP JUMPDEST PUSH2 0xD4A PUSH1 0x40 MLOAD SWAP3 DUP4 SWAP3 DUP4 MSTORE PUSH1 0x40 PUSH1 0x20 DUP5 ADD MSTORE PUSH1 0x40 DUP4 ADD SWAP1 PUSH2 0x298 JUMP JUMPDEST SUB SWAP1 LOG1 STOP JUMPDEST CALLVALUE PUSH2 0x1EB JUMPI PUSH0 CALLDATASIZE PUSH1 0x3 NOT ADD SLT PUSH2 0x1EB JUMPI PUSH1 0xC SLOAD PUSH1 0x40 MLOAD PUSH1 0x1 PUSH1 0x1 PUSH1 0xA0 SHL SUB SWAP1 SWAP2 AND DUP2 MSTORE PUSH1 0x20 SWAP1 RETURN JUMPDEST CALLVALUE PUSH2 0x1EB JUMPI PUSH0 DUP1 PUSH1 0x3 NOT CALLDATASIZE ADD SLT PUSH2 0x38E JUMPI PUSH1 0x40 MLOAD DUP2 PUSH1 0x1 DUP1 SLOAD SWAP1 PUSH2 0xD9A DUP3 PUSH2 0x4D9 JUMP JUMPDEST DUP1 DUP6 MSTORE SWAP2 DUP2 DUP2 AND SWAP1 DUP2 ISZERO PUSH2 0x366 JUMPI POP PUSH1 0x1 EQ PUSH2 0xDC0 JUMPI PUSH2 0x327 DUP5 PUSH2 0x31B DUP2 DUP9 SUB DUP3 PUSH2 0x560 JUMP JUMPDEST DUP1 SWAP5 POP DUP3 MSTORE PUSH1 0x20 SWAP4 DUP5 DUP4 KECCAK256 JUMPDEST DUP3 DUP5 LT PUSH2 0xDE8 JUMPI POP POP POP DUP2 PUSH2 0x327 SWAP4 PUSH2 0x31B SWAP3 DUP3 ADD ADD SWAP4 PUSH2 0x30B JUMP JUMPDEST DUP1 SLOAD DUP6 DUP6 ADD DUP8 ADD MSTORE SWAP3 DUP6 ADD SWAP3 DUP2 ADD PUSH2 0xDCC JUMP JUMPDEST DUP1 ISZERO ISZERO SUB PUSH2 0x1EB JUMPI JUMP JUMPDEST CALLVALUE PUSH2 0x1EB JUMPI PUSH1 0x40 CALLDATASIZE PUSH1 0x3 NOT ADD SLT PUSH2 0x1EB JUMPI PUSH2 0xE1E PUSH2 0x3C1 JUMP JUMPDEST PUSH1 0x24 CALLDATALOAD PUSH2 0xE2A DUP2 PUSH2 0xDFB JUMP JUMPDEST PUSH1 0x1 PUSH1 0x1 PUSH1 0xA0 SHL SUB DUP3 AND SWAP2 CALLER DUP4 EQ PUSH2 0xEA8 JUMPI DUP2 PUSH2 0xE65 PUSH2 0xE76 SWAP3 CALLER PUSH0 MSTORE PUSH1 0x5 PUSH1 0x20 MSTORE PUSH1 0x40 PUSH0 KECCAK256 SWAP1 PUSH1 0x1 DUP1 PUSH1 0xA0 SHL SUB AND PUSH0 MSTORE PUSH1 0x20 MSTORE PUSH1 0x40 PUSH0 KECCAK256 SWAP1 JUMP JUMPDEST SWAP1 PUSH1 0xFF DUP1 NOT DUP4 SLOAD AND SWAP2 ISZERO ISZERO AND OR SWAP1 SSTORE JUMP JUMPDEST PUSH1 0x40 MLOAD SWAP1 ISZERO ISZERO DUP2 MSTORE CALLER SWAP1 PUSH32 0x17307EAB39AB6107E8899845AD3D59BD9653F200F220920489CA2B5937696C31 SWAP1 PUSH1 0x20 SWAP1 LOG3 STOP JUMPDEST PUSH1 0x40 MLOAD PUSH3 0x461BCD PUSH1 0xE5 SHL DUP2 MSTORE PUSH1 0x20 PUSH1 0x4 DUP3 ADD MSTORE PUSH1 0x19 PUSH1 0x24 DUP3 ADD MSTORE PUSH25 0x22A9219B99189D1030B8383937BB32903A379031B0B63632B9 PUSH1 0x39 SHL PUSH1 0x44 DUP3 ADD MSTORE PUSH1 0x64 SWAP1 REVERT JUMPDEST CALLVALUE PUSH2 0x1EB JUMPI PUSH0 CALLDATASIZE PUSH1 0x3 NOT ADD SLT PUSH2 0x1EB JUMPI PUSH1 0xE SLOAD PUSH1 0x40 MLOAD PUSH1 0x1 PUSH1 0x1 PUSH1 0xA0 SHL SUB SWAP1 SWAP2 AND DUP2 MSTORE PUSH1 0x20 SWAP1 RETURN JUMPDEST CALLVALUE PUSH2 0x1EB JUMPI PUSH1 0x20 CALLDATASIZE PUSH1 0x3 NOT ADD SLT PUSH2 0x1EB JUMPI PUSH1 0x20 PUSH2 0xF2F PUSH1 0x4 CALLDATALOAD PUSH2 0x22A4 JUMP JUMPDEST PUSH1 0x40 MLOAD SWAP1 ISZERO ISZERO DUP2 MSTORE RETURN JUMPDEST CALLVALUE PUSH2 0x1EB JUMPI PUSH1 0x80 CALLDATASIZE PUSH1 0x3 NOT ADD SLT PUSH2 0x1EB JUMPI PUSH2 0xF52 PUSH2 0x3C1 JUMP JUMPDEST PUSH2 0xF5A PUSH2 0x3D7 JUMP JUMPDEST PUSH1 0x64 CALLDATALOAD SWAP2 PUSH1 0x1 PUSH1 0x1 PUSH1 0x40 SHL SUB DUP4 GT PUSH2 0x1EB JUMPI CALLDATASIZE PUSH1 0x23 DUP5 ADD SLT ISZERO PUSH2 0x1EB JUMPI PUSH2 0xF8E PUSH2 0x444 SWAP4 CALLDATASIZE SWAP1 PUSH1 0x24 DUP2 PUSH1 0x4 ADD CALLDATALOAD SWAP2 ADD PUSH2 0xC6C JUMP JUMPDEST SWAP2 PUSH1 0x44 CALLDATALOAD SWAP2 PUSH2 0x1430 JUMP JUMPDEST CALLVALUE PUSH2 0x1EB JUMPI PUSH1 0x20 CALLDATASIZE PUSH1 0x3 NOT ADD SLT PUSH2 0x1EB JUMPI PUSH1 0x4 CALLDATALOAD PUSH0 DUP2 DUP2 MSTORE PUSH1 0x2 PUSH1 0x20 MSTORE PUSH1 0x40 SWAP1 KECCAK256 SLOAD PUSH1 0x1 PUSH1 0x1 PUSH1 0xA0 SHL SUB AND ISZERO PUSH2 0x1023 JUMPI PUSH2 0xFD0 PUSH2 0x1291 JUMP JUMPDEST DUP1 MLOAD ISZERO PUSH2 0x1011 JUMPI PUSH2 0x31B PUSH2 0xFFD SWAP2 PUSH2 0x1003 PUSH2 0xFED PUSH2 0x327 SWAP6 PUSH2 0x1CB6 JUMP JUMPDEST PUSH1 0x40 MLOAD SWAP5 DUP6 SWAP4 PUSH1 0x20 DUP6 ADD SWAP1 PUSH2 0x12A3 JUMP JUMPDEST SWAP1 PUSH2 0x12A3 JUMP JUMPDEST SUB PUSH1 0x1F NOT DUP2 ADD DUP4 MSTORE DUP3 PUSH2 0x560 JUMP JUMPDEST POP POP PUSH2 0x327 PUSH2 0x101E PUSH2 0x1291 JUMP JUMPDEST PUSH2 0x31B JUMP JUMPDEST PUSH1 0x40 MLOAD PUSH3 0x461BCD PUSH1 0xE5 SHL DUP2 MSTORE PUSH1 0x20 PUSH1 0x4 DUP3 ADD MSTORE PUSH1 0x2F PUSH1 0x24 DUP3 ADD MSTORE PUSH32 0x4552433732314D657461646174613A2055524920717565727920666F72206E6F PUSH1 0x44 DUP3 ADD MSTORE PUSH15 0x3732BC34B9BA32B73A103A37B5B2B7 PUSH1 0x89 SHL PUSH1 0x64 DUP3 ADD MSTORE PUSH1 0x84 SWAP1 REVERT JUMPDEST CALLVALUE PUSH2 0x1EB JUMPI PUSH1 0x80 CALLDATASIZE PUSH1 0x3 NOT ADD SLT PUSH2 0x1EB JUMPI PUSH1 0x1 PUSH1 0x1 PUSH1 0x40 SHL SUB PUSH1 0x4 CALLDATALOAD DUP2 DUP2 GT PUSH2 0x1EB JUMPI PUSH2 0x10B1 SWAP1 CALLDATASIZE SWAP1 PUSH1 0x4 ADD PUSH2 0xCA2 JUMP JUMPDEST SWAP1 PUSH1 0x24 CALLDATALOAD DUP2 DUP2 GT PUSH2 0x1EB JUMPI PUSH2 0x10CA SWAP1 CALLDATASIZE SWAP1 PUSH1 0x4 ADD PUSH2 0xCA2 JUMP JUMPDEST SWAP2 PUSH1 0x44 CALLDATALOAD DUP3 DUP2 GT PUSH2 0x1EB JUMPI PUSH2 0x10E3 SWAP1 CALLDATASIZE SWAP1 PUSH1 0x4 ADD PUSH2 0xCA2 JUMP JUMPDEST PUSH1 0x64 CALLDATALOAD SWAP3 DUP4 GT PUSH2 0x1EB JUMPI PUSH2 0x327 SWAP4 PUSH2 0x1102 PUSH2 0x1108 SWAP5 CALLDATASIZE SWAP1 PUSH1 0x4 ADD PUSH2 0xCA2 JUMP JUMPDEST SWAP3 PUSH2 0x1FF3 JUMP JUMPDEST PUSH1 0x40 MLOAD SWAP1 DUP2 MSTORE SWAP1 DUP2 SWAP1 PUSH1 0x20 DUP3 ADD SWAP1 JUMP JUMPDEST CALLVALUE PUSH2 0x1EB JUMPI PUSH1 0x40 CALLDATASIZE PUSH1 0x3 NOT ADD SLT PUSH2 0x1EB JUMPI PUSH1 0x20 PUSH1 0xFF PUSH2 0x1168 PUSH2 0x1138 PUSH2 0x3C1 JUMP JUMPDEST PUSH2 0x1140 PUSH2 0x3D7 JUMP JUMPDEST PUSH1 0x1 PUSH1 0x1 PUSH1 0xA0 SHL SUB SWAP2 DUP3 AND PUSH0 SWAP1 DUP2 MSTORE PUSH1 0x5 DUP7 MSTORE PUSH1 0x40 DUP1 DUP3 KECCAK256 SWAP3 SWAP1 SWAP4 AND DUP2 MSTORE PUSH1 0x20 SWAP2 SWAP1 SWAP2 MSTORE KECCAK256 SWAP1 JUMP JUMPDEST SLOAD AND PUSH1 0x40 MLOAD SWAP1 ISZERO ISZERO DUP2 MSTORE RETURN JUMPDEST CALLVALUE PUSH2 0x1EB JUMPI PUSH0 CALLDATASIZE PUSH1 0x3 NOT ADD SLT PUSH2 0x1EB JUMPI PUSH2 0x1199 PUSH1 0x1 DUP1 PUSH1 0xA0 SHL SUB PUSH1 0xC SLOAD AND CALLER EQ PUSH2 0x22C4 JUMP JUMPDEST PUSH1 0xA DUP1 SLOAD PUSH1 0x1 ADD SWAP1 SSTORE STOP JUMPDEST PUSH1 0x1 PUSH1 0x1 PUSH1 0xA0 SHL SUB AND DUP1 ISZERO PUSH2 0x11C2 JUMPI PUSH0 MSTORE PUSH1 0x3 PUSH1 0x20 MSTORE PUSH1 0x40 PUSH0 KECCAK256 SLOAD SWAP1 JUMP JUMPDEST PUSH1 0x40 MLOAD PUSH3 0x461BCD PUSH1 0xE5 SHL DUP2 MSTORE PUSH1 0x20 PUSH1 0x4 DUP3 ADD MSTORE PUSH1 0x2A PUSH1 0x24 DUP3 ADD MSTORE PUSH32 0x4552433732313A2062616C616E636520717565727920666F7220746865207A65 PUSH1 0x44 DUP3 ADD MSTORE PUSH10 0x726F2061646472657373 PUSH1 0xB0 SHL PUSH1 0x64 DUP3 ADD MSTORE PUSH1 0x84 SWAP1 REVERT JUMPDEST PUSH0 SWAP1 DUP2 MSTORE PUSH1 0x2 PUSH1 0x20 MSTORE PUSH1 0x40 SWAP1 KECCAK256 SLOAD PUSH1 0x1 PUSH1 0x1 PUSH1 0xA0 SHL SUB AND DUP1 ISZERO PUSH2 0x123A JUMPI SWAP1 JUMP JUMPDEST PUSH1 0x40 MLOAD PUSH3 0x461BCD PUSH1 0xE5 SHL DUP2 MSTORE PUSH1 0x20 PUSH1 0x4 DUP3 ADD MSTORE PUSH1 0x29 PUSH1 0x24 DUP3 ADD MSTORE PUSH32 0x4552433732313A206F776E657220717565727920666F72206E6F6E6578697374 PUSH1 0x44 DUP3 ADD MSTORE PUSH9 0x32B73A103A37B5B2B7 PUSH1 0xB9 SHL PUSH1 0x64 DUP3 ADD MSTORE PUSH1 0x84 SWAP1 REVERT JUMPDEST PUSH1 0x40 MLOAD SWAP1 PUSH2 0x129E DUP3 PUSH2 0x545 JUMP JUMPDEST PUSH0 DUP3 MSTORE JUMP JUMPDEST SWAP1 PUSH2 0x12B6 PUSH1 0x20 SWAP3 DUP3 DUP2 MLOAD SWAP5 DUP6 SWAP3 ADD PUSH2 0x277 JUMP JUMPDEST ADD SWAP1 JUMP JUMPDEST ISZERO PUSH2 0x12C1 JUMPI JUMP JUMPDEST PUSH1 0x40 MLOAD PUSH3 0x461BCD PUSH1 0xE5 SHL DUP2 MSTORE PUSH1 0x20 PUSH1 0x4 DUP3 ADD MSTORE PUSH1 0x38 PUSH1 0x24 DUP3 ADD MSTORE PUSH32 0x4552433732313A20617070726F76652063616C6C6572206973206E6F74206F77 PUSH1 0x44 DUP3 ADD MSTORE PUSH24 0x1B995C881B9BDC88185C1C1C9BDD995908199BDC88185B1B PUSH1 0x42 SHL PUSH1 0x64 DUP3 ADD MSTORE PUSH1 0x84 SWAP1 REVERT JUMPDEST PUSH0 DUP2 DUP2 MSTORE PUSH1 0x2 PUSH1 0x20 MSTORE PUSH1 0x40 SWAP1 KECCAK256 SLOAD PUSH1 0x1 PUSH1 0x1 PUSH1 0xA0 SHL SUB AND ISZERO PUSH2 0x135D JUMPI PUSH0 SWAP1 DUP2 MSTORE PUSH1 0x4 PUSH1 0x20 MSTORE PUSH1 0x40 SWAP1 KECCAK256 SLOAD PUSH1 0x1 PUSH1 0x1 PUSH1 0xA0 SHL SUB AND SWAP1 JUMP JUMPDEST PUSH1 0x40 MLOAD PUSH3 0x461BCD PUSH1 0xE5 SHL DUP2 MSTORE PUSH1 0x20 PUSH1 0x4 DUP3 ADD MSTORE PUSH1 0x2C PUSH1 0x24 DUP3 ADD MSTORE PUSH32 0x4552433732313A20617070726F76656420717565727920666F72206E6F6E6578 PUSH1 0x44 DUP3 ADD MSTORE PUSH12 0x34B9BA32B73A103A37B5B2B7 PUSH1 0xA1 SHL PUSH1 0x64 DUP3 ADD MSTORE PUSH1 0x84 SWAP1 REVERT JUMPDEST ISZERO PUSH2 0x13BE JUMPI JUMP JUMPDEST PUSH1 0x40 MLOAD PUSH3 0x461BCD PUSH1 0xE5 SHL DUP2 MSTORE PUSH1 0x20 PUSH1 0x4 DUP3 ADD MSTORE PUSH1 0x31 PUSH1 0x24 DUP3 ADD MSTORE PUSH32 0x4552433732313A207472616E736665722063616C6C6572206973206E6F74206F PUSH1 0x44 DUP3 ADD MSTORE PUSH17 0x1DDB995C881B9BDC88185C1C1C9BDD9959 PUSH1 0x7A SHL PUSH1 0x64 DUP3 ADD MSTORE PUSH1 0x84 SWAP1 REVERT JUMPDEST SWAP1 SWAP2 PUSH2 0x5BD SWAP3 PUSH1 0x40 MLOAD SWAP3 PUSH2 0xAE6 DUP5 PUSH2 0x545 JUMP JUMPDEST SWAP2 PUSH2 0x5BD SWAP4 SWAP2 PUSH2 0x1457 SWAP4 PUSH2 0x1447 PUSH2 0x7D2 DUP5 CALLER PUSH2 0x14D3 JUMP JUMPDEST PUSH2 0x1452 DUP4 DUP4 DUP4 PUSH2 0x1657 JUMP JUMPDEST PUSH2 0x19B5 JUMP JUMPDEST PUSH2 0x14AF JUMP JUMPDEST PUSH1 0x80 SWAP1 PUSH1 0x20 DUP2 MSTORE PUSH1 0x32 PUSH1 0x20 DUP3 ADD MSTORE PUSH32 0x4552433732313A207472616E7366657220746F206E6F6E204552433732315265 PUSH1 0x40 DUP3 ADD MSTORE PUSH18 0x31B2B4BB32B91034B6B83632B6B2B73A32B9 PUSH1 0x71 SHL PUSH1 0x60 DUP3 ADD MSTORE ADD SWAP1 JUMP JUMPDEST ISZERO PUSH2 0x14B6 JUMPI JUMP JUMPDEST PUSH1 0x40 MLOAD PUSH3 0x461BCD PUSH1 0xE5 SHL DUP2 MSTORE DUP1 PUSH2 0x14CF PUSH1 0x4 DUP3 ADD PUSH2 0x145C JUMP JUMPDEST SUB SWAP1 REVERT JUMPDEST PUSH0 DUP3 DUP2 MSTORE PUSH1 0x2 PUSH1 0x20 MSTORE PUSH1 0x40 SWAP1 KECCAK256 SLOAD PUSH1 0x1 PUSH1 0x1 PUSH1 0xA0 SHL SUB AND ISZERO PUSH2 0x1562 JUMPI PUSH2 0x14F8 DUP3 PUSH2 0x121A JUMP JUMPDEST PUSH1 0x1 PUSH1 0x1 PUSH1 0xA0 SHL SUB DUP3 DUP2 AND DUP3 DUP3 AND DUP2 EQ SWAP5 SWAP1 SWAP2 SWAP1 DUP6 ISZERO PUSH2 0x154A JUMPI JUMPDEST POP POP POP DUP3 ISZERO PUSH2 0x1521 JUMPI POP POP SWAP1 JUMP JUMPDEST PUSH1 0x1 PUSH1 0x1 PUSH1 0xA0 SHL SUB AND PUSH0 SWAP1 DUP2 MSTORE PUSH1 0x5 PUSH1 0x20 MSTORE PUSH1 0x40 SWAP1 KECCAK256 PUSH1 0xFF SWAP3 POP PUSH2 0x1545 SWAP2 SWAP1 PUSH2 0x468 JUMP JUMPDEST SLOAD AND SWAP1 JUMP JUMPDEST PUSH2 0x1557 SWAP2 SWAP3 SWAP4 SWAP6 POP PUSH2 0x1327 JUMP JUMPDEST AND EQ SWAP2 PUSH0 DUP1 DUP1 PUSH2 0x1513 JUMP JUMPDEST PUSH1 0x40 MLOAD PUSH3 0x461BCD PUSH1 0xE5 SHL DUP2 MSTORE PUSH1 0x20 PUSH1 0x4 DUP3 ADD MSTORE PUSH1 0x2C PUSH1 0x24 DUP3 ADD MSTORE PUSH32 0x4552433732313A206F70657261746F7220717565727920666F72206E6F6E6578 PUSH1 0x44 DUP3 ADD MSTORE PUSH12 0x34B9BA32B73A103A37B5B2B7 PUSH1 0xA1 SHL PUSH1 0x64 DUP3 ADD MSTORE PUSH1 0x84 SWAP1 REVERT JUMPDEST ISZERO PUSH2 0x15C3 JUMPI JUMP JUMPDEST PUSH1 0x40 MLOAD PUSH3 0x461BCD PUSH1 0xE5 SHL DUP2 MSTORE PUSH1 0x20 PUSH1 0x4 DUP3 ADD MSTORE PUSH1 0x24 DUP1 DUP3 ADD MSTORE PUSH32 0x4552433732313A207472616E7366657220746F20746865207A65726F20616464 PUSH1 0x44 DUP3 ADD MSTORE PUSH4 0x72657373 PUSH1 0xE0 SHL PUSH1 0x64 DUP3 ADD MSTORE PUSH1 0x84 SWAP1 REVERT JUMPDEST PUSH4 0x4E487B71 PUSH1 0xE0 SHL PUSH0 MSTORE PUSH1 0x11 PUSH1 0x4 MSTORE PUSH1 0x24 PUSH0 REVERT JUMPDEST PUSH0 NOT DUP2 ADD SWAP2 SWAP1 DUP3 GT PUSH2 0x1636 JUMPI JUMP JUMPDEST PUSH2 0x1614 JUMP JUMPDEST SWAP1 PUSH1 0x1 DUP3 ADD DUP1 SWAP3 GT PUSH2 0x1636 JUMPI JUMP JUMPDEST PUSH1 0x30 ADD SWAP1 DUP2 PUSH1 0x30 GT PUSH2 0x1636 JUMPI JUMP JUMPDEST SWAP1 PUSH2 0x1661 DUP4 PUSH2 0x121A JUMP JUMPDEST PUSH1 0x1 PUSH1 0x1 PUSH1 0xA0 SHL SUB DUP4 DUP2 AND SWAP3 SWAP1 SWAP2 DUP3 AND DUP4 SWAP1 SUB PUSH2 0x1740 JUMPI PUSH2 0x16BA PUSH2 0x171A SWAP3 DUP3 AND SWAP5 PUSH2 0x168D DUP7 ISZERO ISZERO PUSH2 0x15BC JUMP JUMPDEST PUSH2 0x1698 DUP8 DUP5 DUP4 PUSH2 0x1A2F JUMP JUMPDEST PUSH2 0x16A1 DUP8 PUSH2 0x1797 JUMP JUMPDEST PUSH1 0x1 PUSH1 0x1 PUSH1 0xA0 SHL SUB AND PUSH0 SWAP1 DUP2 MSTORE PUSH1 0x3 PUSH1 0x20 MSTORE PUSH1 0x40 SWAP1 KECCAK256 SWAP1 JUMP JUMPDEST PUSH2 0x16C4 DUP2 SLOAD PUSH2 0x1628 JUMP JUMPDEST SWAP1 SSTORE PUSH1 0x1 PUSH1 0x1 PUSH1 0xA0 SHL SUB DUP2 AND PUSH0 SWAP1 DUP2 MSTORE PUSH1 0x3 PUSH1 0x20 MSTORE PUSH1 0x40 SWAP1 KECCAK256 PUSH2 0x16E7 DUP2 SLOAD PUSH2 0x163B JUMP JUMPDEST SWAP1 SSTORE PUSH2 0x16FB DUP6 PUSH0 MSTORE PUSH1 0x2 PUSH1 0x20 MSTORE PUSH1 0x40 PUSH0 KECCAK256 SWAP1 JUMP JUMPDEST DUP1 SLOAD PUSH1 0x1 PUSH1 0x1 PUSH1 0xA0 SHL SUB NOT AND PUSH1 0x1 PUSH1 0x1 PUSH1 0xA0 SHL SUB SWAP1 SWAP3 AND SWAP2 SWAP1 SWAP2 OR SWAP1 SSTORE JUMP JUMPDEST PUSH32 0xDDF252AD1BE2C89B69C2B068FC378DAA952BA7F163C4A11628F55A4DF523B3EF PUSH0 DUP1 LOG4 JUMP JUMPDEST PUSH1 0x40 MLOAD PUSH3 0x461BCD PUSH1 0xE5 SHL DUP2 MSTORE PUSH1 0x20 PUSH1 0x4 DUP3 ADD MSTORE PUSH1 0x29 PUSH1 0x24 DUP3 ADD MSTORE PUSH32 0x4552433732313A207472616E73666572206F6620746F6B656E20746861742069 PUSH1 0x44 DUP3 ADD MSTORE PUSH9 0x39903737BA1037BBB7 PUSH1 0xB9 SHL PUSH1 0x64 DUP3 ADD MSTORE PUSH1 0x84 SWAP1 REVERT JUMPDEST PUSH0 DUP2 DUP2 MSTORE PUSH1 0x4 PUSH1 0x20 MSTORE PUSH1 0x40 DUP2 KECCAK256 DUP1 SLOAD PUSH1 0x1 PUSH1 0x1 PUSH1 0xA0 SHL SUB NOT AND SWAP1 SSTORE PUSH1 0x1 PUSH1 0x1 PUSH1 0xA0 SHL SUB PUSH2 0x17C3 DUP4 PUSH2 0x121A JUMP JUMPDEST AND PUSH32 0x8C5BE1E5EBEC7D5BD14F71427D1E84F3DD0314C0F7B2291E5B200AC8C7C3B925 DUP3 DUP1 LOG4 JUMP JUMPDEST PUSH0 DUP3 DUP2 MSTORE PUSH1 0x4 PUSH1 0x20 MSTORE PUSH1 0x40 SWAP1 KECCAK256 DUP1 SLOAD PUSH1 0x1 PUSH1 0x1 PUSH1 0xA0 SHL SUB NOT AND PUSH1 0x1 PUSH1 0x1 PUSH1 0xA0 SHL SUB DUP4 AND OR SWAP1 SSTORE PUSH1 0x1 PUSH1 0x1 PUSH1 0xA0 SHL SUB DUP1 PUSH2 0x1822 DUP5 PUSH2 0x121A JUMP JUMPDEST AND SWAP2 AND SWAP1 PUSH32 0x8C5BE1E5EBEC7D5BD14F71427D1E84F3DD0314C0F7B2291E5B200AC8C7C3B925 PUSH0 DUP1 LOG4 JUMP JUMPDEST SWAP1 DUP2 PUSH1 0x20 SWAP2 SUB SLT PUSH2 0x1EB JUMPI MLOAD PUSH2 0x2CE DUP2 PUSH2 0x1D9 JUMP JUMPDEST PUSH2 0x2CE SWAP4 SWAP3 PUSH1 0x80 SWAP3 PUSH1 0x1 DUP1 PUSH1 0xA0 SHL SUB AND DUP3 MSTORE PUSH0 PUSH1 0x20 DUP4 ADD MSTORE PUSH1 0x40 DUP3 ADD MSTORE DUP2 PUSH1 0x60 DUP3 ADD MSTORE ADD SWAP1 PUSH2 0x298 JUMP JUMPDEST PUSH1 0x1 PUSH1 0x1 PUSH1 0xA0 SHL SUB SWAP2 DUP3 AND DUP2 MSTORE SWAP2 AND PUSH1 0x20 DUP3 ADD MSTORE PUSH1 0x40 DUP2 ADD SWAP2 SWAP1 SWAP2 MSTORE PUSH1 0x80 PUSH1 0x60 DUP3 ADD DUP2 SWAP1 MSTORE PUSH2 0x2CE SWAP3 SWAP2 ADD SWAP1 PUSH2 0x298 JUMP JUMPDEST PUSH1 0x40 MLOAD RETURNDATASIZE PUSH0 DUP3 RETURNDATACOPY RETURNDATASIZE SWAP1 REVERT JUMPDEST RETURNDATASIZE ISZERO PUSH2 0x18F1 JUMPI RETURNDATASIZE SWAP1 PUSH2 0x18D8 DUP3 PUSH2 0xC51 JUMP JUMPDEST SWAP2 PUSH2 0x18E6 PUSH1 0x40 MLOAD SWAP4 DUP5 PUSH2 0x560 JUMP JUMPDEST DUP3 MSTORE RETURNDATASIZE PUSH0 PUSH1 0x20 DUP5 ADD RETURNDATACOPY JUMP JUMPDEST PUSH1 0x60 SWAP1 JUMP JUMPDEST SWAP1 SWAP2 SWAP1 DUP1 EXTCODESIZE ISZERO PUSH2 0x19AD JUMPI PUSH2 0x1927 PUSH1 0x20 SWAP2 PUSH0 SWAP4 PUSH1 0x40 MLOAD SWAP5 DUP6 DUP1 SWAP5 DUP2 SWAP4 PUSH4 0xA85BD01 PUSH1 0xE1 SHL SWAP10 DUP11 DUP5 MSTORE CALLER PUSH1 0x4 DUP6 ADD PUSH2 0x1861 JUMP JUMPDEST SUB SWAP3 PUSH1 0x1 PUSH1 0x1 PUSH1 0xA0 SHL SUB AND GAS CALL PUSH0 SWAP2 DUP2 PUSH2 0x197D JUMPI JUMPDEST POP PUSH2 0x196F JUMPI PUSH2 0x1949 PUSH2 0x18C7 JUMP JUMPDEST DUP1 MLOAD SWAP1 DUP2 PUSH2 0x196A JUMPI PUSH1 0x40 MLOAD PUSH3 0x461BCD PUSH1 0xE5 SHL DUP2 MSTORE DUP1 PUSH2 0x14CF PUSH1 0x4 DUP3 ADD PUSH2 0x145C JUMP JUMPDEST PUSH1 0x20 ADD REVERT JUMPDEST PUSH1 0x1 PUSH1 0x1 PUSH1 0xE0 SHL SUB NOT AND EQ SWAP1 JUMP JUMPDEST PUSH2 0x199F SWAP2 SWAP3 POP PUSH1 0x20 RETURNDATASIZE DUP2 GT PUSH2 0x19A6 JUMPI JUMPDEST PUSH2 0x1997 DUP2 DUP4 PUSH2 0x560 JUMP JUMPDEST DUP2 ADD SWAP1 PUSH2 0x184C JUMP JUMPDEST SWAP1 PUSH0 PUSH2 0x193C JUMP JUMPDEST POP RETURNDATASIZE PUSH2 0x198D JUMP JUMPDEST POP POP POP PUSH1 0x1 SWAP1 JUMP JUMPDEST SWAP3 SWAP1 SWAP2 SWAP1 DUP3 EXTCODESIZE ISZERO PUSH2 0x19E7 JUMPI PUSH2 0x1927 SWAP3 PUSH1 0x20 SWAP3 PUSH0 PUSH1 0x40 MLOAD DUP1 SWAP7 DUP2 SWAP6 DUP3 SWAP5 PUSH4 0xA85BD01 PUSH1 0xE1 SHL SWAP11 DUP12 DUP6 MSTORE CALLER PUSH1 0x4 DUP7 ADD PUSH2 0x188B JUMP JUMPDEST POP POP POP POP PUSH1 0x1 SWAP1 JUMP JUMPDEST PUSH4 0x4E487B71 PUSH1 0xE0 SHL PUSH0 MSTORE PUSH1 0x32 PUSH1 0x4 MSTORE PUSH1 0x24 PUSH0 REVERT JUMPDEST SWAP1 PUSH2 0x1A0E DUP2 PUSH2 0x1B73 JUMP JUMPDEST PUSH1 0x1 PUSH1 0x1 PUSH1 0xA0 SHL SUB DUP3 AND PUSH2 0x1A26 JUMPI PUSH2 0x5BD SWAP2 POP PUSH2 0x1BCD JUMP JUMPDEST PUSH2 0x5BD SWAP2 PUSH2 0x1B3C JUMP JUMPDEST SWAP1 SWAP2 SWAP1 PUSH1 0x1 PUSH1 0x1 PUSH1 0xA0 SHL SUB DUP1 DUP3 AND SWAP2 DUP3 PUSH2 0x1A69 JUMPI POP PUSH2 0x1A4D DUP4 PUSH2 0x1B73 JUMP JUMPDEST DUP4 AND DUP1 PUSH2 0x1A60 JUMPI POP POP PUSH2 0x5BD SWAP2 POP PUSH2 0x1BCD JUMP JUMPDEST SUB PUSH2 0x1A26 JUMPI POP POP JUMP JUMPDEST DUP2 DUP6 AND DUP4 SUB PUSH2 0x1A79 JUMPI JUMPDEST POP PUSH2 0x1A4D JUMP JUMPDEST PUSH2 0x1A82 DUP2 PUSH2 0x11A4 JUMP JUMPDEST PUSH0 NOT DUP2 ADD SWAP1 DUP2 GT PUSH2 0x1636 JUMPI PUSH2 0x1AE6 SWAP1 PUSH2 0x1AD9 PUSH0 SWAP4 DUP8 DUP6 MSTORE PUSH1 0x7 PUSH1 0x20 MSTORE PUSH1 0x40 DUP6 KECCAK256 SLOAD DUP4 DUP2 SUB PUSH2 0x1AED JUMPI JUMPDEST POP DUP5 PUSH2 0x1ABF DUP10 PUSH0 MSTORE PUSH1 0x7 PUSH1 0x20 MSTORE PUSH1 0x40 PUSH0 KECCAK256 SWAP1 JUMP JUMPDEST SSTORE PUSH1 0x1 PUSH1 0x1 PUSH1 0xA0 SHL SUB AND PUSH0 SWAP1 DUP2 MSTORE PUSH1 0x6 PUSH1 0x20 MSTORE PUSH1 0x40 SWAP1 KECCAK256 SWAP1 JUMP JUMPDEST SWAP1 PUSH0 MSTORE PUSH1 0x20 MSTORE PUSH1 0x40 PUSH0 KECCAK256 SWAP1 JUMP JUMPDEST SSTORE PUSH0 PUSH2 0x1A73 JUMP JUMPDEST DUP8 DUP7 MSTORE PUSH1 0x6 PUSH1 0x20 MSTORE PUSH1 0x40 DUP7 KECCAK256 DUP5 DUP8 MSTORE PUSH1 0x20 MSTORE PUSH2 0x1B35 PUSH1 0x40 DUP8 KECCAK256 SLOAD DUP1 PUSH2 0x1B26 DUP5 PUSH2 0x1AD9 DUP8 PUSH1 0x1 DUP1 PUSH1 0xA0 SHL SUB AND PUSH0 MSTORE PUSH1 0x6 PUSH1 0x20 MSTORE PUSH1 0x40 PUSH0 KECCAK256 SWAP1 JUMP JUMPDEST SSTORE PUSH0 MSTORE PUSH1 0x7 PUSH1 0x20 MSTORE PUSH1 0x40 PUSH0 KECCAK256 SWAP1 JUMP JUMPDEST SSTORE PUSH0 PUSH2 0x1AAB JUMP JUMPDEST PUSH1 0x40 SWAP1 PUSH2 0x1B48 DUP2 PUSH2 0x11A4 JUMP JUMPDEST SWAP3 PUSH0 SWAP2 PUSH1 0x1 DUP1 PUSH1 0xA0 SHL SUB AND DUP3 MSTORE PUSH1 0x6 PUSH1 0x20 MSTORE DUP3 DUP3 KECCAK256 DUP5 DUP4 MSTORE PUSH1 0x20 MSTORE DUP1 DUP4 DUP4 KECCAK256 SSTORE DUP2 MSTORE PUSH1 0x7 PUSH1 0x20 MSTORE KECCAK256 SSTORE JUMP JUMPDEST PUSH1 0x8 SLOAD DUP2 PUSH0 MSTORE PUSH1 0x9 PUSH1 0x20 MSTORE DUP1 PUSH1 0x40 PUSH0 KECCAK256 SSTORE PUSH1 0x1 PUSH1 0x40 SHL DUP2 LT ISZERO PUSH2 0x540 JUMPI PUSH1 0x1 DUP2 ADD DUP1 PUSH1 0x8 SSTORE DUP2 LT ISZERO PUSH2 0x1BC8 JUMPI PUSH1 0x8 PUSH0 MSTORE PUSH32 0xF3F7A9FE364FAAB93B216DA50A3214154F22A0A2B415B23A84C8169E8B636EE3 ADD SSTORE JUMP JUMPDEST PUSH2 0x19F0 JUMP JUMPDEST PUSH1 0x8 DUP1 SLOAD PUSH0 NOT SWAP3 SWAP1 DUP4 DUP2 ADD SWAP1 DUP1 DUP3 GT PUSH2 0x1636 JUMPI PUSH0 SWAP3 DUP1 DUP5 MSTORE PUSH1 0x9 PUSH1 0x20 MSTORE DUP2 PUSH1 0x40 DUP6 KECCAK256 SLOAD SWAP4 LT ISZERO PUSH2 0x1BC8 JUMPI DUP5 DUP5 MSTORE DUP6 DUP3 PUSH1 0x20 DUP7 KECCAK256 ADD ADD SLOAD SWAP2 DUP4 LT ISZERO PUSH2 0x1BC8 JUMPI DUP4 SWAP3 PUSH2 0x1C2D PUSH2 0x1C3C SWAP4 DUP8 DUP7 MSTORE DUP1 DUP4 PUSH1 0x20 DUP9 KECCAK256 ADD SSTORE PUSH0 MSTORE PUSH1 0x9 PUSH1 0x20 MSTORE PUSH1 0x40 PUSH0 KECCAK256 SWAP1 JUMP JUMPDEST SSTORE PUSH0 MSTORE PUSH1 0x9 PUSH1 0x20 MSTORE PUSH1 0x40 PUSH0 KECCAK256 SWAP1 JUMP JUMPDEST SSTORE DUP2 SLOAD SWAP3 DUP4 ISZERO PUSH2 0x1C5F JUMPI DUP1 DUP5 ADD SWAP4 DUP1 DUP6 LT ISZERO PUSH2 0x1BC8 JUMPI DUP4 DUP4 MSTORE PUSH1 0x20 DUP4 KECCAK256 ADD ADD SSTORE SSTORE JUMP JUMPDEST PUSH4 0x4E487B71 PUSH1 0xE0 SHL DUP3 MSTORE PUSH1 0x31 PUSH1 0x4 MSTORE PUSH1 0x24 DUP3 REVERT JUMPDEST SWAP1 PUSH2 0x1C7D DUP3 PUSH2 0xC51 JUMP JUMPDEST PUSH2 0x1C8A PUSH1 0x40 MLOAD SWAP2 DUP3 PUSH2 0x560 JUMP JUMPDEST DUP3 DUP2 MSTORE DUP1 SWAP3 PUSH2 0x1C9B PUSH1 0x1F NOT SWAP2 PUSH2 0xC51 JUMP JUMPDEST ADD SWAP1 PUSH1 0x20 CALLDATASIZE SWAP2 ADD CALLDATACOPY JUMP JUMPDEST SWAP1 DUP2 MLOAD DUP2 LT ISZERO PUSH2 0x1BC8 JUMPI ADD PUSH1 0x20 ADD SWAP1 JUMP JUMPDEST DUP1 ISZERO PUSH2 0x1D40 JUMPI PUSH0 DUP2 DUP2 DUP2 DUP1 JUMPDEST PUSH2 0x1D25 JUMPI POP PUSH2 0x1CD0 DUP2 PUSH2 0x1C73 JUMP JUMPDEST SWAP4 JUMPDEST PUSH2 0x1CDC JUMPI POP POP POP SWAP1 JUMP JUMPDEST PUSH2 0x1CE5 SWAP1 PUSH2 0x1628 JUMP JUMPDEST SWAP1 PUSH1 0xA SWAP1 PUSH2 0x1D10 PUSH2 0x1D00 PUSH2 0x1CFA DUP5 DUP5 MOD PUSH2 0x1649 JUMP JUMPDEST PUSH1 0xFF AND SWAP1 JUMP JUMPDEST PUSH1 0xF8 SHL PUSH1 0x1 PUSH1 0x1 PUSH1 0xF8 SHL SUB NOT AND SWAP1 JUMP JUMPDEST DUP5 BYTE PUSH2 0x1D1C DUP5 DUP8 PUSH2 0x1CA5 JUMP JUMPDEST MSTORE8 DIV SWAP1 DUP2 PUSH2 0x1CD2 JUMP JUMPDEST SWAP2 POP PUSH0 NOT DUP2 EQ PUSH2 0x1636 JUMPI PUSH1 0x1 PUSH1 0xA SWAP2 ADD SWAP2 DIV DUP1 DUP5 SWAP3 SWAP2 PUSH2 0x1CC2 JUMP JUMPDEST POP PUSH1 0x40 MLOAD PUSH1 0x40 DUP2 ADD DUP2 DUP2 LT PUSH1 0x1 PUSH1 0x1 PUSH1 0x40 SHL SUB DUP3 GT OR PUSH2 0x540 JUMPI PUSH1 0x40 MSTORE PUSH1 0x1 DUP2 MSTORE PUSH1 0x3 PUSH1 0xFC SHL PUSH1 0x20 DUP3 ADD MSTORE SWAP1 JUMP JUMPDEST SWAP1 PUSH1 0x1F DUP2 GT PUSH2 0x1D7C JUMPI POP POP POP JUMP JUMPDEST PUSH0 SWAP2 DUP3 MSTORE PUSH1 0x20 DUP3 KECCAK256 SWAP1 PUSH1 0x20 PUSH1 0x1F DUP6 ADD PUSH1 0x5 SHR DUP4 ADD SWAP5 LT PUSH2 0x1DB7 JUMPI JUMPDEST PUSH1 0x1F ADD PUSH1 0x5 SHR ADD SWAP2 JUMPDEST DUP3 DUP2 LT PUSH2 0x1DAC JUMPI POP POP POP JUMP JUMPDEST DUP2 DUP2 SSTORE PUSH1 0x1 ADD PUSH2 0x1DA0 JUMP JUMPDEST SWAP1 SWAP3 POP DUP3 SWAP1 PUSH2 0x1D97 JUMP JUMPDEST SWAP2 SWAP1 SWAP2 DUP3 MLOAD PUSH1 0x1 PUSH1 0x1 PUSH1 0x40 SHL SUB DUP2 GT PUSH2 0x540 JUMPI PUSH2 0x1DE8 DUP2 PUSH2 0x1DE2 DUP5 SLOAD PUSH2 0x4D9 JUMP JUMPDEST DUP5 PUSH2 0x1D6E JUMP JUMPDEST PUSH1 0x20 DUP1 PUSH1 0x1F DUP4 GT PUSH1 0x1 EQ PUSH2 0x1E22 JUMPI POP DUP2 SWAP3 SWAP4 SWAP5 PUSH0 SWAP3 PUSH2 0x1E17 JUMPI JUMPDEST POP POP DUP2 PUSH1 0x1 SHL SWAP2 PUSH0 NOT SWAP1 PUSH1 0x3 SHL SHR NOT AND OR SWAP1 SSTORE JUMP JUMPDEST ADD MLOAD SWAP1 POP PUSH0 DUP1 PUSH2 0x1E02 JUMP JUMPDEST SWAP1 PUSH1 0x1F NOT DUP4 AND SWAP6 PUSH2 0x1E36 DUP6 PUSH0 MSTORE PUSH1 0x20 PUSH0 KECCAK256 SWAP1 JUMP JUMPDEST SWAP3 PUSH0 SWAP1 JUMPDEST DUP9 DUP3 LT PUSH2 0x1E71 JUMPI POP POP DUP4 PUSH1 0x1 SWAP6 SWAP7 SWAP8 LT PUSH2 0x1E59 JUMPI JUMPDEST POP POP POP DUP2 SHL ADD SWAP1 SSTORE JUMP JUMPDEST ADD MLOAD PUSH0 NOT PUSH1 0xF8 DUP5 PUSH1 0x3 SHL AND SHR NOT AND SWAP1 SSTORE PUSH0 DUP1 DUP1 PUSH2 0x1E4F JUMP JUMPDEST DUP1 PUSH1 0x1 DUP6 SWAP7 DUP3 SWAP5 SWAP7 DUP7 ADD MLOAD DUP2 SSTORE ADD SWAP6 ADD SWAP4 ADD SWAP1 PUSH2 0x1E3A JUMP JUMPDEST SWAP2 SWAP1 SWAP2 DUP3 MLOAD SWAP3 DUP4 MLOAD PUSH1 0x1 PUSH1 0x1 PUSH1 0x40 SHL SUB DUP2 GT PUSH2 0x540 JUMPI PUSH2 0x1EB3 DUP2 PUSH2 0x1EAD DUP6 SLOAD PUSH2 0x4D9 JUMP JUMPDEST DUP6 PUSH2 0x1D6E JUMP JUMPDEST PUSH1 0x20 SWAP5 DUP6 SWAP1 PUSH1 0x1F DUP4 GT PUSH1 0x1 EQ PUSH2 0x1F46 JUMPI PUSH2 0x5BD SWAP6 SWAP7 DUP4 PUSH1 0x80 SWAP5 PUSH1 0x4 SWAP7 SWAP5 PUSH2 0x1EFB SWAP5 PUSH0 SWAP3 PUSH2 0x1F3B JUMPI JUMPDEST POP POP DUP2 PUSH1 0x1 SHL SWAP2 PUSH0 NOT SWAP1 PUSH1 0x3 SHL SHR NOT AND OR DUP7 SSTORE JUMPDEST DUP3 ADD MLOAD PUSH1 0x1 DUP7 ADD PUSH2 0x1DC1 JUMP JUMPDEST PUSH1 0x40 DUP2 ADD MLOAD PUSH1 0x2 DUP6 ADD DUP1 SLOAD PUSH1 0x1 PUSH1 0x1 PUSH1 0xA0 SHL SUB NOT AND PUSH1 0x1 PUSH1 0x1 PUSH1 0xA0 SHL SUB SWAP1 SWAP3 AND SWAP2 SWAP1 SWAP2 OR SWAP1 SSTORE PUSH2 0x1F32 PUSH1 0x60 DUP3 ADD MLOAD PUSH1 0x3 DUP7 ADD PUSH2 0x1DC1 JUMP JUMPDEST ADD MLOAD SWAP2 ADD PUSH2 0x1DC1 JUMP JUMPDEST ADD MLOAD SWAP1 POP PUSH0 DUP1 PUSH2 0x1EDB JUMP JUMPDEST SWAP1 PUSH1 0x1F NOT DUP4 AND SWAP2 PUSH2 0x1F5A DUP7 PUSH0 MSTORE PUSH1 0x20 PUSH0 KECCAK256 SWAP1 JUMP JUMPDEST SWAP3 PUSH0 JUMPDEST DUP2 DUP2 LT PUSH2 0x1FA5 JUMPI POP DUP5 PUSH1 0x4 SWAP7 SWAP5 PUSH2 0x1EFB SWAP5 PUSH2 0x5BD SWAP11 SWAP12 SWAP5 PUSH1 0x80 SWAP9 PUSH1 0x1 SWAP6 LT PUSH2 0x1F8D JUMPI JUMPDEST POP POP POP DUP2 SHL ADD DUP7 SSTORE PUSH2 0x1EEF JUMP JUMPDEST ADD MLOAD PUSH0 NOT PUSH1 0xF8 DUP5 PUSH1 0x3 SHL AND SHR NOT AND SWAP1 SSTORE PUSH0 DUP1 DUP1 PUSH2 0x1F80 JUMP JUMPDEST SWAP3 SWAP4 DUP10 PUSH1 0x1 DUP2 SWAP3 DUP8 DUP7 ADD MLOAD DUP2 SSTORE ADD SWAP6 ADD SWAP4 ADD PUSH2 0x1F5D JUMP JUMPDEST SWAP2 PUSH2 0x1FE5 SWAP1 PUSH2 0x1FD7 PUSH2 0x2CE SWAP6 SWAP4 PUSH1 0x60 DUP7 MSTORE PUSH1 0x60 DUP7 ADD SWAP1 PUSH2 0x298 JUMP JUMPDEST SWAP1 DUP5 DUP3 SUB PUSH1 0x20 DUP7 ADD MSTORE PUSH2 0x298 JUMP JUMPDEST SWAP2 PUSH1 0x40 DUP2 DUP5 SUB SWAP2 ADD MSTORE PUSH2 0x298 JUMP JUMPDEST SWAP1 SWAP2 SWAP3 PUSH1 0xA SLOAD SWAP4 PUSH1 0x40 SWAP1 DUP2 MLOAD PUSH2 0x2008 DUP2 PUSH2 0x525 JUMP JUMPDEST DUP5 DUP2 MSTORE DUP6 PUSH1 0x20 DUP3 ADD MSTORE CALLER DUP4 DUP3 ADD MSTORE DUP2 PUSH1 0x60 DUP3 ADD MSTORE DUP4 PUSH1 0x80 DUP3 ADD MSTORE DUP3 MLOAD PUSH2 0x202D DUP2 PUSH2 0x545 JUMP JUMPDEST PUSH0 DUP2 MSTORE CALLER ISZERO PUSH2 0x2168 JUMPI SWAP3 PUSH2 0x2162 SWAP3 PUSH2 0x2125 DUP10 SWAP9 SWAP7 SWAP4 PUSH2 0x2100 PUSH2 0x1457 PUSH32 0x41D9EE46553CA41D124AFEDE342BF442C55B026BAACC09A8E03E44AC6A05FAE0 SWAP11 SWAP9 PUSH2 0x2097 PUSH2 0x2092 PUSH2 0x208E DUP16 PUSH0 MSTORE PUSH1 0x2 PUSH1 0x20 MSTORE PUSH1 0x1 DUP1 PUSH1 0xA0 SHL SUB PUSH1 0x40 PUSH0 KECCAK256 SLOAD AND ISZERO ISZERO SWAP1 JUMP JUMPDEST ISZERO SWAP1 JUMP JUMPDEST PUSH2 0x21AB JUMP JUMPDEST PUSH2 0x20A1 DUP14 CALLER PUSH2 0x1A04 JUMP JUMPDEST CALLER PUSH0 SWAP1 DUP2 MSTORE PUSH1 0x3 PUSH1 0x20 MSTORE PUSH1 0x40 SWAP1 KECCAK256 PUSH2 0x20B9 DUP2 SLOAD PUSH2 0x163B JUMP JUMPDEST SWAP1 SSTORE PUSH2 0x20D2 DUP14 PUSH2 0x16FB CALLER SWAP2 PUSH0 MSTORE PUSH1 0x2 PUSH1 0x20 MSTORE PUSH1 0x40 PUSH0 KECCAK256 SWAP1 JUMP JUMPDEST DUP13 CALLER PUSH0 PUSH32 0xDDF252AD1BE2C89B69C2B068FC378DAA952BA7F163C4A11628F55A4DF523B3EF DUP2 DUP1 LOG4 DUP13 CALLER PUSH2 0x18F6 JUMP JUMPDEST PUSH2 0x210E PUSH1 0x1 PUSH1 0xA SLOAD ADD PUSH1 0xA SSTORE JUMP JUMPDEST PUSH2 0x2120 DUP11 PUSH0 MSTORE PUSH1 0xB PUSH1 0x20 MSTORE PUSH1 0x40 PUSH0 KECCAK256 SWAP1 JUMP JUMPDEST PUSH2 0x1E89 JUMP JUMPDEST DUP8 PUSH32 0xF186850512B83BBF0F335F7C800BEDBE0614CE9D5DBF664FD16BB7A2EF97683A DUP4 MLOAD DUP1 PUSH2 0x2155 CALLER SWAP6 DUP3 PUSH2 0x2BD JUMP JUMPDEST SUB SWAP1 LOG3 MLOAD SWAP4 DUP5 SWAP4 DUP5 PUSH2 0x1FBC JUMP JUMPDEST SUB SWAP1 LOG2 SWAP1 JUMP JUMPDEST PUSH1 0x64 DUP5 MLOAD PUSH3 0x461BCD PUSH1 0xE5 SHL DUP2 MSTORE PUSH1 0x20 PUSH1 0x4 DUP3 ADD MSTORE PUSH1 0x20 PUSH1 0x24 DUP3 ADD MSTORE PUSH32 0x4552433732313A206D696E7420746F20746865207A65726F2061646472657373 PUSH1 0x44 DUP3 ADD MSTORE REVERT JUMPDEST ISZERO PUSH2 0x21B2 JUMPI JUMP JUMPDEST PUSH1 0x40 MLOAD PUSH3 0x461BCD PUSH1 0xE5 SHL DUP2 MSTORE PUSH1 0x20 PUSH1 0x4 DUP3 ADD MSTORE PUSH1 0x1C PUSH1 0x24 DUP3 ADD MSTORE PUSH32 0x4552433732313A20746F6B656E20616C7265616479206D696E74656400000000 PUSH1 0x44 DUP3 ADD MSTORE PUSH1 0x64 SWAP1 REVERT JUMPDEST ISZERO PUSH2 0x21FE JUMPI JUMP JUMPDEST PUSH1 0x40 MLOAD PUSH3 0x461BCD PUSH1 0xE5 SHL DUP2 MSTORE PUSH1 0x20 PUSH1 0x4 DUP3 ADD MSTORE PUSH1 0x1A PUSH1 0x24 DUP3 ADD MSTORE PUSH32 0x4E6F7420746865206F776E6572206F662074686520746F6B656E000000000000 PUSH1 0x44 DUP3 ADD MSTORE PUSH1 0x64 SWAP1 REVERT JUMPDEST SWAP1 PUSH1 0x40 MLOAD PUSH2 0x2250 DUP2 PUSH2 0x525 JUMP JUMPDEST PUSH1 0x80 PUSH2 0x229F PUSH1 0x4 DUP4 SWAP6 PUSH2 0x2262 DUP2 PUSH2 0x581 JUMP JUMPDEST DUP6 MSTORE PUSH2 0x2270 PUSH1 0x1 DUP3 ADD PUSH2 0x581 JUMP JUMPDEST PUSH1 0x20 DUP7 ADD MSTORE PUSH1 0x2 DUP2 ADD SLOAD PUSH1 0x1 PUSH1 0x1 PUSH1 0xA0 SHL SUB AND PUSH1 0x40 DUP7 ADD MSTORE PUSH2 0x2294 PUSH1 0x3 DUP3 ADD PUSH2 0x581 JUMP JUMPDEST PUSH1 0x60 DUP7 ADD MSTORE ADD PUSH2 0x581 JUMP JUMPDEST SWAP2 ADD MSTORE JUMP JUMPDEST PUSH1 0x1 PUSH1 0x1 PUSH1 0xA0 SHL SUB SWAP1 PUSH2 0x22B6 SWAP1 PUSH2 0x121A JUMP JUMPDEST AND PUSH2 0x22BF JUMPI PUSH0 SWAP1 JUMP JUMPDEST PUSH1 0x1 SWAP1 JUMP JUMPDEST ISZERO PUSH2 0x22CB JUMPI JUMP JUMPDEST PUSH1 0x40 MLOAD PUSH3 0x461BCD PUSH1 0xE5 SHL DUP2 MSTORE PUSH1 0x20 PUSH1 0x4 DUP3 ADD MSTORE PUSH1 0x18 PUSH1 0x24 DUP3 ADD MSTORE PUSH24 0x2737BA103A34329031B7B73A3930B1BA1037BBB732B9103 PUSH1 0x45 SHL PUSH1 0x44 DUP3 ADD MSTORE PUSH1 0x64 SWAP1 REVERT JUMPDEST ISZERO PUSH2 0x2312 JUMPI JUMP JUMPDEST PUSH1 0x40 MLOAD PUSH3 0x461BCD PUSH1 0xE5 SHL DUP2 MSTORE PUSH1 0x20 PUSH1 0x4 DUP3 ADD MSTORE PUSH1 0x1B PUSH1 0x24 DUP3 ADD MSTORE PUSH32 0x563220636F6E74726163742061646472657373206E6F74207365740000000000 PUSH1 0x44 DUP3 ADD MSTORE PUSH1 0x64 SWAP1 REVERT JUMPDEST SWAP1 DUP2 PUSH1 0x20 SWAP2 SUB SLT PUSH2 0x1EB JUMPI MLOAD PUSH2 0x2CE DUP2 PUSH2 0xDFB JUMP JUMPDEST SWAP5 SWAP2 SWAP4 PUSH2 0x239F PUSH2 0x23BB SWAP5 PUSH2 0x2CE SWAP9 SWAP7 PUSH2 0x23AD SWAP5 DUP10 MSTORE PUSH1 0x1 DUP1 PUSH1 0xA0 SHL SUB AND PUSH1 0x20 DUP10 ADD MSTORE PUSH1 0xC0 PUSH1 0x40 DUP10 ADD MSTORE PUSH1 0xC0 DUP9 ADD SWAP1 PUSH2 0x298 JUMP JUMPDEST SWAP1 DUP7 DUP3 SUB PUSH1 0x60 DUP9 ADD MSTORE PUSH2 0x298 JUMP JUMPDEST SWAP1 DUP5 DUP3 SUB PUSH1 0x80 DUP7 ADD MSTORE PUSH2 0x298 JUMP JUMPDEST SWAP2 PUSH1 0xA0 DUP2 DUP5 SUB SWAP2 ADD MSTORE PUSH2 0x298 JUMP INVALID LOG2 PUSH5 0x6970667358 0x22 SLT KECCAK256 0xDF 0xD8 PUSH7 0xF39FBA6CAB7820 0xCE 0xD2 BLOCKHASH SLT JUMP 0xE5 0x49 PUSH32 0x5C8B2856DB5DD33FB1C56036618F64736F6C6343000814003300000000000000 "},"methodIdentifiers":{"addKeyword(uint256,string)":"7d67e967","approve(address,uint256)":"095ea7b3","balanceOf(address)":"70a08231","consensusAddress()":"ae54e32b","getApproved(uint256)":"081812fc","getPost(uint256)":"40731c24","getPostExists(uint256)":"b225500c","incrementToken()":"f6a800ee","isApprovedForAll(address,address)":"e985e9c5","mintPost(string,string,string,string)":"d242d34e","name()":"06fdde03","owner()":"8da5cb5b","ownerOf(uint256)":"6352211e","posts(uint256)":"0b1e7f83","safeTransferFrom(address,address,uint256)":"42842e0e","safeTransferFrom(address,address,uint256,bytes)":"b88d4fde","setApprovalForAll(address,bool)":"a22cb465","setV2ContractAddress(address)":"7b4f6d92","supportsInterface(bytes4)":"01ffc9a7","symbol()":"95d89b41","tokenByIndex(uint256)":"4f6ccce7","tokenOfOwnerByIndex(address,uint256)":"2f745c59","tokenURI(uint256)":"c87b56dd","totalSupply()":"18160ddd","transferFrom(address,address,uint256)":"23b872dd","transferNFTsToV2(uint256)":"336c1ad7","transferToken(address,uint256)":"1072cbea","v2ContractAddress()":"6a020429"}}}}}