{"contracts/learntgehterPostConsensus.sol":{"learntgetherPostConsensus":{"abi":[{"inputs":[{"internalType":"address","name":"_CommunityConsensusAddress","type":"address"},{"internalType":"address","name":"_MembersContract","type":"address"},{"internalType":"address","name":"_PostContract","type":"address"},{"internalType":"uint256","name":"_fee","type":"uint256"},{"internalType":"address payable","name":"_feeAddress","type":"address"}],"stateMutability":"nonpayable","type":"constructor"},{"anonymous":false,"inputs":[{"indexed":false,"internalType":"uint256","name":"communitySubmissionId","type":"uint256"},{"indexed":false,"internalType":"uint256","name":"index","type":"uint256"}],"name":"ActiveSubmissionsIndexUpdated","type":"event"},{"anonymous":false,"inputs":[{"indexed":true,"internalType":"uint256","name":"communtiySubmissionId","type":"uint256"},{"indexed":true,"internalType":"string","name":"communityName","type":"string"},{"indexed":false,"internalType":"uint256","name":"timestamp","type":"uint256"},{"indexed":false,"internalType":"uint256","name":"consensusTime","type":"uint256"}],"name":"CommunitySubmitted","type":"event"},{"anonymous":false,"inputs":[{"indexed":true,"internalType":"uint256","name":"communitySubmissionId","type":"uint256"},{"indexed":false,"internalType":"uint256","name":"postId","type":"uint256"},{"indexed":false,"internalType":"string","name":"newConsensus","type":"string"}],"name":"ConsensusUpdated","type":"event"},{"anonymous":false,"inputs":[{"indexed":false,"internalType":"uint256","name":"postId","type":"uint256"},{"indexed":false,"internalType":"string","name":"keyword","type":"string"}],"name":"Keywords","type":"event"},{"anonymous":false,"inputs":[{"indexed":true,"internalType":"uint256","name":"postId","type":"uint256"},{"indexed":true,"internalType":"uint256","name":"communitySubmissionId","type":"uint256"}],"name":"PostSubmission","type":"event"},{"anonymous":false,"inputs":[{"indexed":true,"internalType":"uint256","name":"reviewId","type":"uint256"},{"indexed":true,"internalType":"uint256","name":"communitySubmissionId","type":"uint256"},{"indexed":true,"internalType":"address","name":"member","type":"address"}],"name":"ReviewCreated","type":"event"},{"anonymous":false,"inputs":[{"indexed":true,"internalType":"uint256","name":"reviewId","type":"uint256"},{"indexed":false,"internalType":"string","name":"consensus","type":"string"},{"indexed":false,"internalType":"uint256","name":"creds","type":"uint256"},{"indexed":false,"internalType":"string","name":"content","type":"string"}],"name":"ReviewSubmitted","type":"event"},{"inputs":[{"internalType":"uint256","name":"","type":"uint256"}],"name":"ActiveSubmissions","outputs":[{"internalType":"uint256","name":"","type":"uint256"}],"stateMutability":"view","type":"function"},{"inputs":[{"internalType":"uint256","name":"","type":"uint256"}],"name":"ActiveSubmissionsIndexes","outputs":[{"internalType":"uint256","name":"","type":"uint256"}],"stateMutability":"view","type":"function"},{"inputs":[],"name":"CommunityConsensusContract","outputs":[{"internalType":"contract learntgetherCommunityConsensusInterface","name":"","type":"address"}],"stateMutability":"view","type":"function"},{"inputs":[{"internalType":"uint256","name":"","type":"uint256"}],"name":"CommunitySubmissionToPost","outputs":[{"internalType":"uint256","name":"","type":"uint256"}],"stateMutability":"view","type":"function"},{"inputs":[{"internalType":"uint256","name":"","type":"uint256"}],"name":"CommunitySubmissions","outputs":[{"internalType":"string","name":"communityName","type":"string"},{"internalType":"string","name":"consensusType","type":"string"},{"internalType":"uint256","name":"timestamp","type":"uint256"},{"internalType":"uint256","name":"consensusTime","type":"uint256"}],"stateMutability":"view","type":"function"},{"inputs":[],"name":"MembersContract","outputs":[{"internalType":"contract learntgetherMembersInterface","name":"","type":"address"}],"stateMutability":"view","type":"function"},{"inputs":[{"internalType":"uint256","name":"","type":"uint256"},{"internalType":"uint256","name":"","type":"uint256"}],"name":"PostSubmissionList","outputs":[{"internalType":"uint256","name":"","type":"uint256"}],"stateMutability":"view","type":"function"},{"inputs":[],"name":"PostsContract","outputs":[{"internalType":"contract learntgetherPostsInterface","name":"","type":"address"}],"stateMutability":"view","type":"function"},{"inputs":[],"name":"checkUpKeep","outputs":[{"internalType":"bool","name":"upkeepNeeded","type":"bool"},{"internalType":"bytes","name":"performData","type":"bytes"}],"stateMutability":"view","type":"function"},{"inputs":[],"name":"consensusFee","outputs":[{"internalType":"uint256","name":"","type":"uint256"}],"stateMutability":"view","type":"function"},{"inputs":[],"name":"csCounter","outputs":[{"internalType":"uint256","name":"","type":"uint256"}],"stateMutability":"view","type":"function"},{"inputs":[],"name":"getActiveSubmissions","outputs":[{"internalType":"uint256[]","name":"","type":"uint256[]"}],"stateMutability":"view","type":"function"},{"inputs":[{"internalType":"uint256","name":"_postId","type":"uint256"}],"name":"getActiveSubmissionsIndex","outputs":[{"internalType":"uint256","name":"","type":"uint256"}],"stateMutability":"view","type":"function"},{"inputs":[],"name":"getActiveSubmissionsLength","outputs":[{"internalType":"uint256","name":"","type":"uint256"}],"stateMutability":"view","type":"function"},{"inputs":[{"internalType":"uint256","name":"_communitySubmissionId","type":"uint256"}],"name":"getCommunitySubmission","outputs":[{"components":[{"internalType":"string","name":"communityName","type":"string"},{"internalType":"string","name":"consensusType","type":"string"},{"internalType":"uint256","name":"timestamp","type":"uint256"},{"internalType":"uint256","name":"consensusTime","type":"uint256"}],"internalType":"struct learntgetherPostConsensus.CommunitySubmission","name":"","type":"tuple"}],"stateMutability":"view","type":"function"},{"inputs":[{"internalType":"uint256","name":"_submissionId","type":"uint256"}],"name":"getPostConsesous","outputs":[{"internalType":"string","name":"consensus","type":"string"}],"stateMutability":"view","type":"function"},{"inputs":[{"internalType":"uint256","name":"_reviewId","type":"uint256"}],"name":"getReview","outputs":[{"components":[{"internalType":"address","name":"member","type":"address"},{"internalType":"string","name":"content","type":"string"},{"internalType":"uint256","name":"consensus","type":"uint256"},{"internalType":"string","name":"consensusType","type":"string"},{"internalType":"uint256","name":"creds","type":"uint256"}],"internalType":"struct learntgetherPostConsensus.Review","name":"","type":"tuple"}],"stateMutability":"view","type":"function"},{"inputs":[{"internalType":"uint256","name":"_reviewid","type":"uint256"}],"name":"getReviewConsenous","outputs":[{"internalType":"uint256","name":"consensus","type":"uint256"},{"internalType":"uint256","name":"creds","type":"uint256"}],"stateMutability":"view","type":"function"},{"inputs":[{"internalType":"uint256","name":"_submissionId","type":"uint256"}],"name":"getReviewsForSubmission","outputs":[{"internalType":"uint256[]","name":"","type":"uint256[]"}],"stateMutability":"view","type":"function"},{"inputs":[{"internalType":"uint256","name":"","type":"uint256"},{"internalType":"address","name":"","type":"address"}],"name":"hasReviewed","outputs":[{"internalType":"bool","name":"","type":"bool"}],"stateMutability":"view","type":"function"},{"inputs":[],"name":"maxReviews","outputs":[{"internalType":"uint256","name":"","type":"uint256"}],"stateMutability":"view","type":"function"},{"inputs":[{"internalType":"bytes","name":"_performData","type":"bytes"}],"name":"performUpkeep","outputs":[],"stateMutability":"nonpayable","type":"function"},{"inputs":[{"internalType":"uint256","name":"","type":"uint256"},{"internalType":"string","name":"","type":"string"}],"name":"postCommunities","outputs":[{"internalType":"uint256","name":"","type":"uint256"}],"stateMutability":"view","type":"function"},{"inputs":[],"name":"reviewCounter","outputs":[{"internalType":"uint256","name":"","type":"uint256"}],"stateMutability":"view","type":"function"},{"inputs":[{"internalType":"uint256","name":"","type":"uint256"}],"name":"reviews","outputs":[{"internalType":"address","name":"member","type":"address"},{"internalType":"string","name":"content","type":"string"},{"internalType":"uint256","name":"consensus","type":"uint256"},{"internalType":"string","name":"consensusType","type":"string"},{"internalType":"uint256","name":"creds","type":"uint256"}],"stateMutability":"view","type":"function"},{"inputs":[{"internalType":"address","name":"_contractAddress","type":"address"}],"name":"setAutomationRegistry","outputs":[],"stateMutability":"nonpayable","type":"function"},{"inputs":[{"internalType":"address","name":"_contractAddress","type":"address"}],"name":"setCommunitiesContract","outputs":[],"stateMutability":"nonpayable","type":"function"},{"inputs":[{"internalType":"uint256","name":"_feePrice","type":"uint256"}],"name":"setFee","outputs":[],"stateMutability":"nonpayable","type":"function"},{"inputs":[{"internalType":"address payable","name":"_feeAddress","type":"address"}],"name":"setFeeAddress","outputs":[],"stateMutability":"nonpayable","type":"function"},{"inputs":[{"internalType":"uint256","name":"_maxreviews","type":"uint256"}],"name":"setMaxReviews","outputs":[],"stateMutability":"nonpayable","type":"function"},{"inputs":[{"internalType":"address","name":"_contractAddress","type":"address"}],"name":"setMembersContract","outputs":[],"stateMutability":"nonpayable","type":"function"},{"inputs":[{"internalType":"address","name":"_contractAddress","type":"address"}],"name":"setPostsContract","outputs":[],"stateMutability":"nonpayable","type":"function"},{"inputs":[{"internalType":"string[]","name":"_deafultArray","type":"string[]"}],"name":"setdefaultConsenousTypes","outputs":[],"stateMutability":"nonpayable","type":"function"},{"inputs":[{"internalType":"uint256","name":"_communitySubmissionId","type":"uint256"},{"internalType":"string","name":"_content","type":"string"},{"internalType":"uint256","name":"_consensus","type":"uint256"}],"name":"submitReview","outputs":[{"internalType":"uint256","name":"","type":"uint256"}],"stateMutability":"nonpayable","type":"function"},{"inputs":[{"internalType":"uint256","name":"_postId","type":"uint256"},{"internalType":"string","name":"_communityName","type":"string"}],"name":"submitToCommunity","outputs":[{"internalType":"uint256","name":"","type":"uint256"}],"stateMutability":"payable","type":"function"},{"inputs":[{"internalType":"uint256","name":"","type":"uint256"},{"internalType":"uint256","name":"","type":"uint256"}],"name":"submmisionReviews","outputs":[{"internalType":"uint256","name":"","type":"uint256"}],"stateMutability":"view","type":"function"}],"evm":{"bytecode":{"linkReferences":{},"object":"608034620003b957601f62002c4a38819003918201601f191683019291906001600160401b03841183851017620001fe578160a09284926040968752833981010312620003b9576200005181620003dd565b906200006060208201620003dd565b906200006e848201620003dd565b6060820151608090920151926001600160a01b0384168403620003b9578551606081016001600160401b03811182821017620001fe578752620000b0620003bd565b6012815271436f6e73656e736f75732050656e64696e6760701b60208201528152620000db620003bd565b90600891828152671058d8d95c1d195960c21b6020820152602082015262000102620003bd565b8281526714995a9958dd195960c21b602082015288820152815460038355806003106200033b575b50905f5260205f20905f905b60038210620002125750505060018060a01b0319943386601254161760125560018060a01b031685600d541617600d5560018060a01b031684600e541617600e5560018060a01b031683600f541617600f5560105560018060a01b03169060135416176013556001600655600160025560095468010000000000000000811015620001fe576001810180600955811015620001ea575f90600982526020822001556064601155516128049081620004468239f35b634e487b7160e01b5f52603260045260245ffd5b634e487b7160e01b5f52604160045260245ffd5b80518051906001600160401b038211620001fe57620002328554620003f2565b601f8111620002fb575b50602090601f83116001146200028b5792826001949360209386955f926200027f575b50505f19600383901b1c191690841b1786555b0193019101909162000136565b015190505f806200025f565b90855f5260205f20915f5b601f1985168110620002e257509260209260019592869583601f19811610620002c9575b505050831b8301865562000272565b01515f1960f88460031b161c191690555f8080620002ba565b9192602060018192868501518155019401920162000296565b6200032990865f5260205f206005601f8601811c8201926020871062000330575b601f01901c01906200042d565b5f6200023c565b91925082916200031c565b5f83815260036020822092830192015b8281106200035b5750506200012a565b80826200036b60019354620003f2565b806200037b575b5050016200034b565b601f8111841462000392575081555b825f62000372565b828252620003af601f60208420920160051c82018583016200042d565b818355556200038a565b5f80fd5b60408051919082016001600160401b03811183821017620001fe57604052565b51906001600160a01b0382168203620003b957565b90600182811c9216801562000422575b60208310146200040e57565b634e487b7160e01b5f52602260045260245ffd5b91607f169162000402565b81811062000439575050565b5f81556001016200042d56fe6080806040526004361015610012575f80fd5b5f3560e01c908163059597f71461223e575080631651902a1461220f5780633c09203b146121b35780634215c5e4146121965780634585e33b14611e6457806347631adb14611e3c5780634ed5981214611e1f5780635ff2d2aa14611dc35780636356eea41461170257806369fe0e2d146116c85780636c79bd2b1461166357806374f0c641146116465780637c7198cc146115f85780638705fcd41461159557806393a018be14610bb6578063990581b614611495578063a594004114611478578063ac97980d1461144e578063ad2957ff146113f2578063b9e2fc3e146113bc578063bdf5db3914611339578063c5dce24d146112ac578063c8249d8a14610f34578063d1a34aa314610eec578063d39065fa14610e90578063d3a3f77114610e4c578063d8db380714610be0578063de78ab7c14610bb6578063de8b32c514610ae1578063e148577614610ab9578063e168b3a814610a9c578063e83ddcea146109f5578063ea487a921461098e578063ee8eb50714610957578063eeb0cf76146109195763fa1396f5146101a8575f80fd5b6101b1366124d6565b6101e96040516101c0816122f0565b60178152767375626d697474696e6720746f20636f6d6d756e69747960481b6020820152612780565b600f54604051632c89540360e21b8152600481018490526001600160a01b0393916020908290602490829088165afa908115610831575f916108fa575b50156108bf5761025860405161023b816122f0565b600b81526a706f73742065786973747360a81b6020820152612780565b82600d5416906040516324c9db2f60e01b8152602060048201526020818061028360248201886123e8565b0381865afa908115610831575f91610890575b501561083c576102cd6040516102ab816122f0565b601081526f636f6d6d756e6974792065786973747360801b6020820152612780565b60206040518093633bebe05160e01b825282600483015281806102f360248201896123e8565b03915afa918215610831575f926107f9575b50604051610312816122d5565b8381526040519060208201956001600160401b0396838110888211176105b7576040525f83526020820192835242604083015284606083015284155f1461063a5750604051610360816122f0565b600d81526c4e6f20436f6e73656e736f757360981b602082015282525b6002545f525f60205260405f209181518051908882116105b75781906103ad826103a7885461240d565b88612572565b602090601f83116001146105d6575f926105cb575b50508160011b915f199060031b1c19161783555b519586519081116105b7576103fb816103f2600186015461240d565b60018601612572565b6020601f821160011461054557918160609260039461050c9a5f9261053a575b50505f1982861b1c1916600191821b17908501555b604081015160028501550151910155805f52600360205261045760405f2060025490612537565b6002545f5260016020528060405f20557fd3f28a1c655091033012bc55d258bf3cbd4ea4fb8bc2ff81c626a2aad9354e46604060025494858481955f5260046020526104f5845f20838651602081885194828a01956104b78184896123c7565b82019081520301902055855194859485947fe4c157bdf18b292c67a85f8afa9036d1fd70e345be3ad305fafc7841c4801a3f5f80a3519283916123c7565b8101039020938151904282526020820152a36125b5565b806002555f19810190811161052657602090604051908152f35b634e487b7160e01b5f52601160045260245ffd5b015190505f8061041b565b600184015f5260205f20975f5b601f198416811061059f57508261050c9960039593600193606096601f19811610610588575b505050811b016001850155610430565b01515f1983881b60f8161c191690555f8080610578565b828201518a5560019099019860209283019201610552565b634e487b7160e01b5f52604160045260245ffd5b015190505f806103c2565b5f878152602081209350601f198516905b818110610622575090846001959493921061060a575b505050811b0183556103d6565b01515f1960f88460031b161c191690555f80806105fd565b929360206001819287860151815501950193016105e7565b60105434036107bb575f808080933490601354165af13d156107b6573d6106608161232c565b9061066e604051928361230b565b81525f60203d92013e5b1561077a57600854156107665760085f526040516106c1816106ba817ff3f7a9fe364faab93b216da50a3214154f22a0a2b415b23a84c8169e8b636ee3612445565b038261230b565b825260025460095490600160401b8210156105b7576106e98260016107019401600955612277565b90919082549060031b91821b915f19901b1916179055565b6009545f1990818101908111610526576002545f52600a60205260405f205560025490600954908101908111610526577f2f5a4ee168dca9eaef284f1844a3d24d74ba63a5fccc947454fc07515c8b37749160409182519182526020820152a161037d565b634e487b7160e01b5f52603260045260245ffd5b60405162461bcd60e51b81526020600482015260146024820152732330b4b632b2103a379039b2b7321022ba3432b960611b6044820152606490fd5b610678565b60405162461bcd60e51b81526020600482015260166024820152754d7573742073656e642070726f706f73616c2066656560501b6044820152606490fd5b9091506020813d602011610829575b816108156020938361230b565b810103126108255751905f610305565b5f80fd5b3d9150610808565b6040513d5f823e3d90fd5b60405162461bcd60e51b815260206004820152602660248201527f436f6d6d756e69747920436f6e73656e73757320506172616d7320646f6e277460448201526508195e1a5cdd60d21b6064820152608490fd5b6108b2915060203d6020116108b8575b6108aa818361230b565b81019061251f565b5f610296565b503d6108a0565b60405162461bcd60e51b8152602060048201526013602482015272141bdcdd08191bd95cc81b9bdd08195e1a5cdd606a1b6044820152606490fd5b610913915060203d6020116108b8576108aa818361230b565b5f610226565b346108255761092736612261565b905f52600360205260405f208054821015610825576020916109489161228f565b90549060031b1c604051908152f35b346108255760203660031901126108255760043560095481101561082557610980602091612277565b90546040519160031b1c8152f35b3461082557602036600319011261082557600435805f525f6020526109bb600260405f20015415156125c3565b5f525f6020526109f16106ba6109dd600160405f200160405192838092612445565b6040519182916020835260208301906123e8565b0390f35b34610825576020366003190112610825576004355f52600560205260405f2060018060a01b0381541660405191610a3a83610a338160018501612445565b038461230b565b610a926002820154600460405193610a6085610a598160038501612445565b038661230b565b015492610a7f604051968796875260a0602088015260a08701906123e8565b91604086015284820360608601526123e8565b9060808301520390f35b34610825575f366003190112610825576020600654604051908152f35b34610825575f36600319011261082557600e546040516001600160a01b039091168152602090f35b3461082557602080600319360112610825576080905f6060604051610b05816122d5565b818152818482015282604082015201526004355f525f815260405f2060405191610b2e836122d5565b604051610b3f816106ba8186612445565b8352610ba5604051610b58816106ba8160018801612445565b828501908152610b9260036002860154956040880196875201549360608701948552604051978897828952519188015260a08701906123e8565b9051858203601f190160408701526123e8565b915160608401525160808301520390f35b34610825576020366003190112610825576004355f52600a602052602060405f2054604051908152f35b346108255760208060031936011261082557600435906001600160401b0390818311610825573660238401121561082557826004013591610c2083612508565b93610c2e604051958661230b565b83855282850194859160249687600597881b8301019136831161082557888101915b838310610e26575050601254610c7d9250336001600160a01b039182161491508115610e18575b50612641565b5193600160401b8511610e05576008549085600855818610610d96575b5050939060085f52825f20915f955b858710610cb257005b8051805190848211610d8357908691610cd582610ccf895461240d565b89612572565b8290601f8311600114610d1c579180600195928695945f92610d11575b50505f19600383901b1c191690841b1787555b01940196019592610ca9565b015190508c80610cf2565b90601f19831691885f52845f20925f5b818110610d6b5750916001969391858897969410610d53575b505050831b83018755610d05565b01515f1960f88460031b161c191690558b8080610d45565b8284015185558b966001909501949384019301610d2c565b83634e487b7160e01b5f5260416004525ffd5b60085f5285855f2092830192015b828110610db15750610c9a565b80610dbe6001925461240d565b80610dcb575b5001610da4565b601f908181118414610de35750505f81555b89610dc4565b610dfc5f928484528a84209201861c820185830161255c565b81835555610ddd565b85634e487b7160e01b5f5260416004525ffd5b9050600c5416331488610c77565b8235878111610825578891610e4183928d3691870101612347565b815201920191610c50565b34610825576020610e7e81610e60366124d6565b905f526004825260405f2082604051948386809551938492016123c7565b82019081520301902054604051908152f35b3461082557602036600319011261082557610ea96122a4565b6012546001600160a01b039190821633148015610edf575b610eca90612641565b1660018060a01b0319600f541617600f555f80f35b50600c5482163314610ec1565b3461082557602036600319011261082557601254610f1e90336001600160a01b0391821614908115610f265750612641565b600435601155005b9050600c5416331482610c77565b34610825575f366003190112610825575f805f60095480610f86575b505060405191602083015260208252610f68826122f0565b6109f1604051928392151583526040602084015260408301906123e8565b5f60015b8281106112145750505080610fa0575b80610f50565b90915060018060a01b03600d5416815f525f60205260405f209060606040518092632691798960e01b8252602060048301528180610fe360249788830190612445565b03915afa918215610831575f905f925f946111d3575b50845f52600760205260405f2091604051808460208296549384815201905f5260205f20925f5b8181106111ba5750506110359250038461230b565b825193818510156110575750505050505061104f9061262c565b905b82610f9a565b5f935f95601154908181115f146111b25750905b5f5b8281106110fb57505050508315809181156110f1575b501561109d5750505050506110979061262c565b90611051565b6064830292808404606414901517156110dd576110ca575004106110c15790611051565b6110979061262c565b634e487b7160e01b5f9081526012600452fd5b50634e487b7160e01b5f9081526011600452fd5b9050841088611083565b6111058183612618565b5160405190635cf17e1f60e11b825260048201526040818881305afa80156108315785905f925f91611177575b501015611149575b50611144906125b5565b61106d565b976111556002916125b5565b9814611162575b8b61113a565b9561116f611144916125b5565b96905061115c565b925050506040813d6040116111aa575b816111946040938361230b565b810103126108255784602082519201518e611132565b3d9150611187565b90509061106b565b8454835260019485019488945060209093019201611020565b92509250506060813d821161120c575b816111f06060938361230b565b8101031261082557805160208201516040909201519286610ff9565b3d91506111e3565b61121d81612277565b9054600391821b1c5f5261125860205f81525f60026040822001549161124286612277565b905490861b1c8252528260405f2001549061260b565b428111158061129a575b611277575b5050611272906125b5565b610f8a565b94509450905061127260019461128c83612277565b9054911b1c93919087611267565b50838111158061126257508315611262565b34610825576020366003190112610825576004355f525f60205261131c60405f20604051906112e6826112df8184612445565b038361230b565b6040516112fa816106ba8160018601612445565b61132a60036002840154930154916040519586956080875260808701906123e8565b9085820360208701526123e8565b91604084015260608301520390f35b34610825575f36600319011261082557604051600980548083525f918252602080840193927f6e1540171b6c0c960b71a7020d9f60077f6af931a8bbf590da0223dacf75c7af92915b8282106113a5576109f1856113998189038261230b565b6040519182918261238d565b835486529485019460019384019390910190611382565b34610825576020366003190112610825576004355f5260056020526040805f206004600282015491015482519182526020820152f35b346108255760203660031901126108255761140b6122a4565b6012546001600160a01b039190821633148015611441575b61142c90612641565b1660018060a01b0319600d541617600d555f80f35b50600c5482163314611423565b34610825576020366003190112610825576004355f526001602052602060405f2054604051908152f35b34610825575f366003190112610825576020600254604051908152f35b3461082557602080600319360112610825575f60806040516114b6816122ba565b82815260608482015282604082015260608082015201526004355f526005815260405f2090604051906114e8826122ba565b82546001600160a01b039081168352604051909361158a9190611512826112df8160018501612445565b8385019182526115716002820154926040870193845260046040519361153f85610a598160038501612445565b6060890194855201549560808801968752604051988998828a525116908801525160a0604088015260c08701906123e8565b9151606086015251848203601f190160808601526123e8565b905160a08301520390f35b34610825576020366003190112610825576004356001600160a01b038181169182900361082557806115d4916012541633149081156115ea5750612641565b601380546001600160a01b031916919091179055005b9050600c5416331483610c77565b34610825576040366003190112610825576024356001600160a01b03811690819003610825576004355f52600b60205260405f20905f52602052602060ff60405f2054166040519015158152f35b34610825575f366003190112610825576020600954604051908152f35b3461082557602080600319360112610825576004355f526007815260405f209060405190818184549182815201935f52815f20915f905b8282106116b1576109f1856113998189038261230b565b83548652948501946001938401939091019061169a565b34610825576020366003190112610825576012546116fa90336001600160a01b0391821614908115610f265750612641565b600435601055005b34610825576060366003190112610825576024356001600160401b03811161082557611732903690600401612347565b6004355f525f60205261174d600260405f20015415156125c3565b61178c5f60018060a01b03600d541660043582528160205260408220906040518080958194626e7c3160e91b8352602060048401526024830190612445565b03915afa908115610831575f91611cad575b50604435916001831115611c69576117ba60085483519061260b565b8311611c29576004355f52600b60205260405f20335f5260205260ff60405f205416611bda5761184a916004355f52600b60205260405f20335f5260205260405f20600160ff19825416179055602060018060a01b03600e54166004355f525f825260405f209060405180809781946302b5df5960e01b8352336004840152604060248401526044830190612445565b03915afa928315610831575f93611ba6575b5060085490818511611b8257505f19908482018581116105265710156107665761189a6106ba9160085f528560205f20010160405192838092612445565b604051936118a7856122ba565b338552602085019083825260408601528160608601528360808601526006545f52600560205260405f209060018060a01b0386511660018060a01b03198354161782555180516001600160401b0381116105b7578060018401926119158261190f865461240d565b86612572565b602090601f8311600114611b1e575f92611b13575b50508160011b915f199060031b1c19161790555b6040850151600282015560608501519485516001600160401b0381116105b7576119788161196f600386015461240d565b60038601612572565b6020601f8211600114611a7a5760807fdf5898210dfd85b69a1551c8ec0bb02719a41f3283eadd1145b9bffc9f2e1730959383611a3a9694600494611a559c5f92611a6f575b50508160011b915f199060031b1c19161760038501555b01519101556004355f5260076020526119f460405f2060065490612537565b611a4d600654958695604051948594336004358a7f953de3727de1848ea7329bee97a44132bdd8271d8d663eb90bc2772f21541ec85f80a46060865260608601906123e8565b91602085015283820360408501526123e8565b0390a26125b5565b806006555f19810190811161052657602090604051908152f35b015190508c806119be565b600384015f5260205f20975f5b601f1984168110611afb57507fdf5898210dfd85b69a1551c8ec0bb02719a41f3283eadd1145b9bffc9f2e17309593600184611a559b600495608095611a3a9a98601f19811610611ae3575b505050811b0160038501556119d5565b01515f1960f88460031b161c191690558c8080611ad3565b828201518a5560019099019860209283019201611a87565b01519050888061192a565b5f858152602081209350601f198516905b818110611b6a5750908460019594939210611b52575b505050811b01905561193e565b01515f1960f88460031b161c19169055888080611b45565b92936020600181928786015181550195019301611b2f565b908403848111610526575f19810190811161052657611ba091612618565b5161189a565b9092506020813d602011611bd2575b81611bc26020938361230b565b810103126108255751918461185c565b3d9150611bb5565b60405162461bcd60e51b815260206004820152602160248201527f596f7527766520616c7265616479207265766965776564207468697320706f736044820152601d60fa1b6064820152608490fd5b60405162461bcd60e51b8152602060048201526018602482015277436f6e73656e736f7573204e6f7420496e20426f756e647360401b6044820152606490fd5b606460405162461bcd60e51b815260206004820152602060248201527f436f6e73656e736f7573206d75732062652067726561746572207468616e20316044820152fd5b3d9150815f823e611cbe828261230b565b60208183810103126108255780516001600160401b03811161082557828201601f828401011215610825578082015190611cf782612508565b93611d05604051958661230b565b828552602085019080850160208560051b85880101011161082557602083860101915b60208560051b85880101018310611d45575050505050508261179e565b82516001600160401b03811161082557828701603f82878a010101121561082557602081868901010151611d788161232c565b92611d86604051948561230b565b818452848901604083858a8d01010101116108255783611db6602095938b604088978c89809901930101016123c7565b8152019301929050611d28565b3461082557602036600319011261082557611ddc6122a4565b6012546001600160a01b039190821633148015611e12575b611dfd90612641565b1660018060a01b0319600c541617600c555f80f35b50600c5482163314611df4565b34610825575f366003190112610825576020601154604051908152f35b34610825575f36600319011261082557600d546040516001600160a01b039091168152602090f35b3461082557602080600319360112610825576001600160401b0390600435828111610825573660238201121561082557806004013592831161082557828101602493368583011161082557601254849190611ed390336001600160a01b0391821614908115610e185750612641565b14611eda57005b818391031261082557820135905f82131561216e5760015b82151580612148575b80612132575b8061211e575b611f0d57005b600190151581036120cd576008548110156120ba577f3ed188edba0c6b2d9b7a54cec2942f1cab56a63a4dcfdca5ff11706ffdf25b1e839160085f52611f6281855f2001845f525f86528260405f20016126ac565b825f5280845260405f2054905f855260405f200190611f9260405192839283526040878401526040830190612445565b0390a2815f52600a815260405f205490600954925f19938481019081116120a757808403612004575b50600a92505f52525f60408120556009548015611ff15781019150611fdf82612277565b909182549160031b1b19169055600955005b82634e487b7160e01b5f5260316004525ffd5b61201061203891612277565b905461201b86612277565b91909260031b1c9082549060031b91821b915f19901b1916179055565b600954928484019384116120a75760407f2f5a4ee168dca9eaef284f1844a3d24d74ba63a5fccc947454fc07515c8b377491612075600a96612277565b90549060031b1c5f5285855280825f205561208f81612277565b90549060031b1c90825191825285820152a185611fbb565b85634e487b7160e01b5f5260116004525ffd5b83634e487b7160e01b5f5260326004525ffd5b600854600210156120ba577f3ed188edba0c6b2d9b7a54cec2942f1cab56a63a4dcfdca5ff11706ffdf25b1e839160085f526121196002855f2001845f525f86528260405f20016126ac565b611f62565b50825f52600a825260405f20541515611f07565b50825f525f8252600260405f2001541515611f01565b50825f525f825261216660405f20600360028201549101549061260b565b421015611efb565b5f91600160ff1b8114612183575f0391611ef2565b83634e487b7160e01b5f5260116004525ffd5b34610825575f366003190112610825576020601054604051908152f35b34610825576020366003190112610825576121cc6122a4565b6012546001600160a01b039190821633148015612202575b6121ed90612641565b1660018060a01b0319600e541617600e555f80f35b50600c54821633146121e4565b346108255761221d36612261565b905f52600760205260405f208054821015610825576020916109809161228f565b34610825575f36600319011261082557600f546001600160a01b03168152602090f35b6040906003190112610825576004359060243590565b6009548110156107665760095f5260205f2001905f90565b8054821015610766575f5260205f2001905f90565b600435906001600160a01b038216820361082557565b60a081019081106001600160401b038211176105b757604052565b608081019081106001600160401b038211176105b757604052565b604081019081106001600160401b038211176105b757604052565b90601f801991011681019081106001600160401b038211176105b757604052565b6001600160401b0381116105b757601f01601f191660200190565b81601f820112156108255780359061235e8261232c565b9261236c604051948561230b565b8284526020838301011161082557815f926020809301838601378301015290565b602090816040818301928281528551809452019301915f5b8281106123b3575050505090565b8351855293810193928101926001016123a5565b5f5b8381106123d85750505f910152565b81810151838201526020016123c9565b90602091612401815180928185528580860191016123c7565b601f01601f1916010190565b90600182811c9216801561243b575b602083101461242757565b634e487b7160e01b5f52602260045260245ffd5b91607f169161241c565b905f92918054916124558361240d565b9182825260019384811690815f146124b35750600114612476575b50505050565b90919394505f52602092835f2092845f945b83861061249f57505050500101905f808080612470565b805485870183015294019385908201612488565b9294505050602093945060ff191683830152151560051b0101905f808080612470565b9060406003198301126108255760043591602435906001600160401b0382116108255761250591600401612347565b90565b6001600160401b0381116105b75760051b60200190565b90816020910312610825575180151581036108255790565b80549190600160401b8310156105b757826106e991600161255a9501815561228f565b565b818110612567575050565b5f815560010161255c565b9190601f811161258157505050565b61255a925f5260205f20906020601f840160051c830193106125ab575b601f0160051c019061255c565b909150819061259e565b5f1981146105265760010190565b156125ca57565b60405162461bcd60e51b815260206004820152601960248201527814dd589b5a5cdcda5bdb88191bd95cc81b9bdd08195e1a5cdd603a1b6044820152606490fd5b9190820180921161052657565b80518210156107665760209160051b010190565b90815f03918083055f19149015171561052657565b1561264857565b60405162461bcd60e51b815260206004820152603660248201527f4e6f742074686520636f6e7472616374206f776e6572206f72204175746f6d616044820152751d1a5bdb88149959da5cdd1c9e4810dbdb9d1c9858dd60521b6064820152608490fd5b9080821461277c576126be815461240d565b906001600160401b0382116105b75781906126dd8261190f865461240d565b5f90601f8311600114612711575f92612706575b50508160011b915f199060031b1c1916179055565b015490505f806126f1565b81526020808220858352818320935090601f1985169083905b82821061276357505090846001959493921061274b575b505050811b019055565b01545f1960f88460031b161c191690555f8080612741565b849581929585015481556001809101960194019061272a565b5050565b5f80916040516127bb816127ad602082019463104c13eb60e21b86526020602484015260448301906123e8565b03601f19810183528261230b565b51906a636f6e736f6c652e6c6f675afa5056fea2646970667358221220166887c5b5143f5488d1bbf2480876f8a2669568567b1b679bae015f0a2c69e164736f6c63430008140033","opcodes":"PUSH1 0x80 CALLVALUE PUSH3 0x3B9 JUMPI PUSH1 0x1F PUSH3 0x2C4A CODESIZE DUP2 SWAP1 SUB SWAP2 DUP3 ADD PUSH1 0x1F NOT AND DUP4 ADD SWAP3 SWAP2 SWAP1 PUSH1 0x1 PUSH1 0x1 PUSH1 0x40 SHL SUB DUP5 GT DUP4 DUP6 LT OR PUSH3 0x1FE JUMPI DUP2 PUSH1 0xA0 SWAP3 DUP5 SWAP3 PUSH1 0x40 SWAP7 DUP8 MSTORE DUP4 CODECOPY DUP2 ADD SUB SLT PUSH3 0x3B9 JUMPI PUSH3 0x51 DUP2 PUSH3 0x3DD JUMP JUMPDEST SWAP1 PUSH3 0x60 PUSH1 0x20 DUP3 ADD PUSH3 0x3DD JUMP JUMPDEST SWAP1 PUSH3 0x6E DUP5 DUP3 ADD PUSH3 0x3DD JUMP JUMPDEST PUSH1 0x60 DUP3 ADD MLOAD PUSH1 0x80 SWAP1 SWAP3 ADD MLOAD SWAP3 PUSH1 0x1 PUSH1 0x1 PUSH1 0xA0 SHL SUB DUP5 AND DUP5 SUB PUSH3 0x3B9 JUMPI DUP6 MLOAD PUSH1 0x60 DUP2 ADD PUSH1 0x1 PUSH1 0x1 PUSH1 0x40 SHL SUB DUP2 GT DUP3 DUP3 LT OR PUSH3 0x1FE JUMPI DUP8 MSTORE PUSH3 0xB0 PUSH3 0x3BD JUMP JUMPDEST PUSH1 0x12 DUP2 MSTORE PUSH18 0x436F6E73656E736F75732050656E64696E67 PUSH1 0x70 SHL PUSH1 0x20 DUP3 ADD MSTORE DUP2 MSTORE PUSH3 0xDB PUSH3 0x3BD JUMP JUMPDEST SWAP1 PUSH1 0x8 SWAP2 DUP3 DUP2 MSTORE PUSH8 0x1058D8D95C1D1959 PUSH1 0xC2 SHL PUSH1 0x20 DUP3 ADD MSTORE PUSH1 0x20 DUP3 ADD MSTORE PUSH3 0x102 PUSH3 0x3BD JUMP JUMPDEST DUP3 DUP2 MSTORE PUSH8 0x14995A9958DD1959 PUSH1 0xC2 SHL PUSH1 0x20 DUP3 ADD MSTORE DUP9 DUP3 ADD MSTORE DUP2 SLOAD PUSH1 0x3 DUP4 SSTORE DUP1 PUSH1 0x3 LT PUSH3 0x33B JUMPI JUMPDEST POP SWAP1 PUSH0 MSTORE PUSH1 0x20 PUSH0 KECCAK256 SWAP1 PUSH0 SWAP1 JUMPDEST PUSH1 0x3 DUP3 LT PUSH3 0x212 JUMPI POP POP POP PUSH1 0x1 DUP1 PUSH1 0xA0 SHL SUB NOT SWAP5 CALLER DUP7 PUSH1 0x12 SLOAD AND OR PUSH1 0x12 SSTORE PUSH1 0x1 DUP1 PUSH1 0xA0 SHL SUB AND DUP6 PUSH1 0xD SLOAD AND OR PUSH1 0xD SSTORE PUSH1 0x1 DUP1 PUSH1 0xA0 SHL SUB AND DUP5 PUSH1 0xE SLOAD AND OR PUSH1 0xE SSTORE PUSH1 0x1 DUP1 PUSH1 0xA0 SHL SUB AND DUP4 PUSH1 0xF SLOAD AND OR PUSH1 0xF SSTORE PUSH1 0x10 SSTORE PUSH1 0x1 DUP1 PUSH1 0xA0 SHL SUB AND SWAP1 PUSH1 0x13 SLOAD AND OR PUSH1 0x13 SSTORE PUSH1 0x1 PUSH1 0x6 SSTORE PUSH1 0x1 PUSH1 0x2 SSTORE PUSH1 0x9 SLOAD PUSH9 0x10000000000000000 DUP2 LT ISZERO PUSH3 0x1FE JUMPI PUSH1 0x1 DUP2 ADD DUP1 PUSH1 0x9 SSTORE DUP2 LT ISZERO PUSH3 0x1EA JUMPI PUSH0 SWAP1 PUSH1 0x9 DUP3 MSTORE PUSH1 0x20 DUP3 KECCAK256 ADD SSTORE PUSH1 0x64 PUSH1 0x11 SSTORE MLOAD PUSH2 0x2804 SWAP1 DUP2 PUSH3 0x446 DUP3 CODECOPY RETURN JUMPDEST PUSH4 0x4E487B71 PUSH1 0xE0 SHL PUSH0 MSTORE PUSH1 0x32 PUSH1 0x4 MSTORE PUSH1 0x24 PUSH0 REVERT JUMPDEST PUSH4 0x4E487B71 PUSH1 0xE0 SHL PUSH0 MSTORE PUSH1 0x41 PUSH1 0x4 MSTORE PUSH1 0x24 PUSH0 REVERT JUMPDEST DUP1 MLOAD DUP1 MLOAD SWAP1 PUSH1 0x1 PUSH1 0x1 PUSH1 0x40 SHL SUB DUP3 GT PUSH3 0x1FE JUMPI PUSH3 0x232 DUP6 SLOAD PUSH3 0x3F2 JUMP JUMPDEST PUSH1 0x1F DUP2 GT PUSH3 0x2FB JUMPI JUMPDEST POP PUSH1 0x20 SWAP1 PUSH1 0x1F DUP4 GT PUSH1 0x1 EQ PUSH3 0x28B JUMPI SWAP3 DUP3 PUSH1 0x1 SWAP5 SWAP4 PUSH1 0x20 SWAP4 DUP7 SWAP6 PUSH0 SWAP3 PUSH3 0x27F JUMPI JUMPDEST POP POP PUSH0 NOT PUSH1 0x3 DUP4 SWAP1 SHL SHR NOT AND SWAP1 DUP5 SHL OR DUP7 SSTORE JUMPDEST ADD SWAP4 ADD SWAP2 ADD SWAP1 SWAP2 PUSH3 0x136 JUMP JUMPDEST ADD MLOAD SWAP1 POP PUSH0 DUP1 PUSH3 0x25F JUMP JUMPDEST SWAP1 DUP6 PUSH0 MSTORE PUSH1 0x20 PUSH0 KECCAK256 SWAP2 PUSH0 JUMPDEST PUSH1 0x1F NOT DUP6 AND DUP2 LT PUSH3 0x2E2 JUMPI POP SWAP3 PUSH1 0x20 SWAP3 PUSH1 0x1 SWAP6 SWAP3 DUP7 SWAP6 DUP4 PUSH1 0x1F NOT DUP2 AND LT PUSH3 0x2C9 JUMPI JUMPDEST POP POP POP DUP4 SHL DUP4 ADD DUP7 SSTORE PUSH3 0x272 JUMP JUMPDEST ADD MLOAD PUSH0 NOT PUSH1 0xF8 DUP5 PUSH1 0x3 SHL AND SHR NOT AND SWAP1 SSTORE PUSH0 DUP1 DUP1 PUSH3 0x2BA JUMP JUMPDEST SWAP2 SWAP3 PUSH1 0x20 PUSH1 0x1 DUP2 SWAP3 DUP7 DUP6 ADD MLOAD DUP2 SSTORE ADD SWAP5 ADD SWAP3 ADD PUSH3 0x296 JUMP JUMPDEST PUSH3 0x329 SWAP1 DUP7 PUSH0 MSTORE PUSH1 0x20 PUSH0 KECCAK256 PUSH1 0x5 PUSH1 0x1F DUP7 ADD DUP2 SHR DUP3 ADD SWAP3 PUSH1 0x20 DUP8 LT PUSH3 0x330 JUMPI JUMPDEST PUSH1 0x1F ADD SWAP1 SHR ADD SWAP1 PUSH3 0x42D JUMP JUMPDEST PUSH0 PUSH3 0x23C JUMP JUMPDEST SWAP2 SWAP3 POP DUP3 SWAP2 PUSH3 0x31C JUMP JUMPDEST PUSH0 DUP4 DUP2 MSTORE PUSH1 0x3 PUSH1 0x20 DUP3 KECCAK256 SWAP3 DUP4 ADD SWAP3 ADD JUMPDEST DUP3 DUP2 LT PUSH3 0x35B JUMPI POP POP PUSH3 0x12A JUMP JUMPDEST DUP1 DUP3 PUSH3 0x36B PUSH1 0x1 SWAP4 SLOAD PUSH3 0x3F2 JUMP JUMPDEST DUP1 PUSH3 0x37B JUMPI JUMPDEST POP POP ADD PUSH3 0x34B JUMP JUMPDEST PUSH1 0x1F DUP2 GT DUP5 EQ PUSH3 0x392 JUMPI POP DUP2 SSTORE JUMPDEST DUP3 PUSH0 PUSH3 0x372 JUMP JUMPDEST DUP3 DUP3 MSTORE PUSH3 0x3AF PUSH1 0x1F PUSH1 0x20 DUP5 KECCAK256 SWAP3 ADD PUSH1 0x5 SHR DUP3 ADD DUP6 DUP4 ADD PUSH3 0x42D JUMP JUMPDEST DUP2 DUP4 SSTORE SSTORE PUSH3 0x38A JUMP JUMPDEST PUSH0 DUP1 REVERT JUMPDEST PUSH1 0x40 DUP1 MLOAD SWAP2 SWAP1 DUP3 ADD PUSH1 0x1 PUSH1 0x1 PUSH1 0x40 SHL SUB DUP2 GT DUP4 DUP3 LT OR PUSH3 0x1FE JUMPI PUSH1 0x40 MSTORE JUMP JUMPDEST MLOAD SWAP1 PUSH1 0x1 PUSH1 0x1 PUSH1 0xA0 SHL SUB DUP3 AND DUP3 SUB PUSH3 0x3B9 JUMPI JUMP JUMPDEST SWAP1 PUSH1 0x1 DUP3 DUP2 SHR SWAP3 AND DUP1 ISZERO PUSH3 0x422 JUMPI JUMPDEST PUSH1 0x20 DUP4 LT EQ PUSH3 0x40E JUMPI JUMP JUMPDEST PUSH4 0x4E487B71 PUSH1 0xE0 SHL PUSH0 MSTORE PUSH1 0x22 PUSH1 0x4 MSTORE PUSH1 0x24 PUSH0 REVERT JUMPDEST SWAP2 PUSH1 0x7F AND SWAP2 PUSH3 0x402 JUMP JUMPDEST DUP2 DUP2 LT PUSH3 0x439 JUMPI POP POP JUMP JUMPDEST PUSH0 DUP2 SSTORE PUSH1 0x1 ADD PUSH3 0x42D JUMP INVALID PUSH1 0x80 DUP1 PUSH1 0x40 MSTORE PUSH1 0x4 CALLDATASIZE LT ISZERO PUSH2 0x12 JUMPI PUSH0 DUP1 REVERT JUMPDEST PUSH0 CALLDATALOAD PUSH1 0xE0 SHR SWAP1 DUP2 PUSH4 0x59597F7 EQ PUSH2 0x223E JUMPI POP DUP1 PUSH4 0x1651902A EQ PUSH2 0x220F JUMPI DUP1 PUSH4 0x3C09203B EQ PUSH2 0x21B3 JUMPI DUP1 PUSH4 0x4215C5E4 EQ PUSH2 0x2196 JUMPI DUP1 PUSH4 0x4585E33B EQ PUSH2 0x1E64 JUMPI DUP1 PUSH4 0x47631ADB EQ PUSH2 0x1E3C JUMPI DUP1 PUSH4 0x4ED59812 EQ PUSH2 0x1E1F JUMPI DUP1 PUSH4 0x5FF2D2AA EQ PUSH2 0x1DC3 JUMPI DUP1 PUSH4 0x6356EEA4 EQ PUSH2 0x1702 JUMPI DUP1 PUSH4 0x69FE0E2D EQ PUSH2 0x16C8 JUMPI DUP1 PUSH4 0x6C79BD2B EQ PUSH2 0x1663 JUMPI DUP1 PUSH4 0x74F0C641 EQ PUSH2 0x1646 JUMPI DUP1 PUSH4 0x7C7198CC EQ PUSH2 0x15F8 JUMPI DUP1 PUSH4 0x8705FCD4 EQ PUSH2 0x1595 JUMPI DUP1 PUSH4 0x93A018BE EQ PUSH2 0xBB6 JUMPI DUP1 PUSH4 0x990581B6 EQ PUSH2 0x1495 JUMPI DUP1 PUSH4 0xA5940041 EQ PUSH2 0x1478 JUMPI DUP1 PUSH4 0xAC97980D EQ PUSH2 0x144E JUMPI DUP1 PUSH4 0xAD2957FF EQ PUSH2 0x13F2 JUMPI DUP1 PUSH4 0xB9E2FC3E EQ PUSH2 0x13BC JUMPI DUP1 PUSH4 0xBDF5DB39 EQ PUSH2 0x1339 JUMPI DUP1 PUSH4 0xC5DCE24D EQ PUSH2 0x12AC JUMPI DUP1 PUSH4 0xC8249D8A EQ PUSH2 0xF34 JUMPI DUP1 PUSH4 0xD1A34AA3 EQ PUSH2 0xEEC JUMPI DUP1 PUSH4 0xD39065FA EQ PUSH2 0xE90 JUMPI DUP1 PUSH4 0xD3A3F771 EQ PUSH2 0xE4C JUMPI DUP1 PUSH4 0xD8DB3807 EQ PUSH2 0xBE0 JUMPI DUP1 PUSH4 0xDE78AB7C EQ PUSH2 0xBB6 JUMPI DUP1 PUSH4 0xDE8B32C5 EQ PUSH2 0xAE1 JUMPI DUP1 PUSH4 0xE1485776 EQ PUSH2 0xAB9 JUMPI DUP1 PUSH4 0xE168B3A8 EQ PUSH2 0xA9C JUMPI DUP1 PUSH4 0xE83DDCEA EQ PUSH2 0x9F5 JUMPI DUP1 PUSH4 0xEA487A92 EQ PUSH2 0x98E JUMPI DUP1 PUSH4 0xEE8EB507 EQ PUSH2 0x957 JUMPI DUP1 PUSH4 0xEEB0CF76 EQ PUSH2 0x919 JUMPI PUSH4 0xFA1396F5 EQ PUSH2 0x1A8 JUMPI PUSH0 DUP1 REVERT JUMPDEST PUSH2 0x1B1 CALLDATASIZE PUSH2 0x24D6 JUMP JUMPDEST PUSH2 0x1E9 PUSH1 0x40 MLOAD PUSH2 0x1C0 DUP2 PUSH2 0x22F0 JUMP JUMPDEST PUSH1 0x17 DUP2 MSTORE PUSH23 0x7375626D697474696E6720746F20636F6D6D756E697479 PUSH1 0x48 SHL PUSH1 0x20 DUP3 ADD MSTORE PUSH2 0x2780 JUMP JUMPDEST PUSH1 0xF SLOAD PUSH1 0x40 MLOAD PUSH4 0x2C895403 PUSH1 0xE2 SHL DUP2 MSTORE PUSH1 0x4 DUP2 ADD DUP5 SWAP1 MSTORE PUSH1 0x1 PUSH1 0x1 PUSH1 0xA0 SHL SUB SWAP4 SWAP2 PUSH1 0x20 SWAP1 DUP3 SWAP1 PUSH1 0x24 SWAP1 DUP3 SWAP1 DUP9 AND GAS STATICCALL SWAP1 DUP2 ISZERO PUSH2 0x831 JUMPI PUSH0 SWAP2 PUSH2 0x8FA JUMPI JUMPDEST POP ISZERO PUSH2 0x8BF JUMPI PUSH2 0x258 PUSH1 0x40 MLOAD PUSH2 0x23B DUP2 PUSH2 0x22F0 JUMP JUMPDEST PUSH1 0xB DUP2 MSTORE PUSH11 0x706F737420657869737473 PUSH1 0xA8 SHL PUSH1 0x20 DUP3 ADD MSTORE PUSH2 0x2780 JUMP JUMPDEST DUP3 PUSH1 0xD SLOAD AND SWAP1 PUSH1 0x40 MLOAD PUSH4 0x24C9DB2F PUSH1 0xE0 SHL DUP2 MSTORE PUSH1 0x20 PUSH1 0x4 DUP3 ADD MSTORE PUSH1 0x20 DUP2 DUP1 PUSH2 0x283 PUSH1 0x24 DUP3 ADD DUP9 PUSH2 0x23E8 JUMP JUMPDEST SUB DUP2 DUP7 GAS STATICCALL SWAP1 DUP2 ISZERO PUSH2 0x831 JUMPI PUSH0 SWAP2 PUSH2 0x890 JUMPI JUMPDEST POP ISZERO PUSH2 0x83C JUMPI PUSH2 0x2CD PUSH1 0x40 MLOAD PUSH2 0x2AB DUP2 PUSH2 0x22F0 JUMP JUMPDEST PUSH1 0x10 DUP2 MSTORE PUSH16 0x636F6D6D756E69747920657869737473 PUSH1 0x80 SHL PUSH1 0x20 DUP3 ADD MSTORE PUSH2 0x2780 JUMP JUMPDEST PUSH1 0x20 PUSH1 0x40 MLOAD DUP1 SWAP4 PUSH4 0x3BEBE051 PUSH1 0xE0 SHL DUP3 MSTORE DUP3 PUSH1 0x4 DUP4 ADD MSTORE DUP2 DUP1 PUSH2 0x2F3 PUSH1 0x24 DUP3 ADD DUP10 PUSH2 0x23E8 JUMP JUMPDEST SUB SWAP2 GAS STATICCALL SWAP2 DUP3 ISZERO PUSH2 0x831 JUMPI PUSH0 SWAP3 PUSH2 0x7F9 JUMPI JUMPDEST POP PUSH1 0x40 MLOAD PUSH2 0x312 DUP2 PUSH2 0x22D5 JUMP JUMPDEST DUP4 DUP2 MSTORE PUSH1 0x40 MLOAD SWAP1 PUSH1 0x20 DUP3 ADD SWAP6 PUSH1 0x1 PUSH1 0x1 PUSH1 0x40 SHL SUB SWAP7 DUP4 DUP2 LT DUP9 DUP3 GT OR PUSH2 0x5B7 JUMPI PUSH1 0x40 MSTORE PUSH0 DUP4 MSTORE PUSH1 0x20 DUP3 ADD SWAP3 DUP4 MSTORE TIMESTAMP PUSH1 0x40 DUP4 ADD MSTORE DUP5 PUSH1 0x60 DUP4 ADD MSTORE DUP5 ISZERO PUSH0 EQ PUSH2 0x63A JUMPI POP PUSH1 0x40 MLOAD PUSH2 0x360 DUP2 PUSH2 0x22F0 JUMP JUMPDEST PUSH1 0xD DUP2 MSTORE PUSH13 0x4E6F20436F6E73656E736F7573 PUSH1 0x98 SHL PUSH1 0x20 DUP3 ADD MSTORE DUP3 MSTORE JUMPDEST PUSH1 0x2 SLOAD PUSH0 MSTORE PUSH0 PUSH1 0x20 MSTORE PUSH1 0x40 PUSH0 KECCAK256 SWAP2 DUP2 MLOAD DUP1 MLOAD SWAP1 DUP9 DUP3 GT PUSH2 0x5B7 JUMPI DUP2 SWAP1 PUSH2 0x3AD DUP3 PUSH2 0x3A7 DUP9 SLOAD PUSH2 0x240D JUMP JUMPDEST DUP9 PUSH2 0x2572 JUMP JUMPDEST PUSH1 0x20 SWAP1 PUSH1 0x1F DUP4 GT PUSH1 0x1 EQ PUSH2 0x5D6 JUMPI PUSH0 SWAP3 PUSH2 0x5CB JUMPI JUMPDEST POP POP DUP2 PUSH1 0x1 SHL SWAP2 PUSH0 NOT SWAP1 PUSH1 0x3 SHL SHR NOT AND OR DUP4 SSTORE JUMPDEST MLOAD SWAP6 DUP7 MLOAD SWAP1 DUP2 GT PUSH2 0x5B7 JUMPI PUSH2 0x3FB DUP2 PUSH2 0x3F2 PUSH1 0x1 DUP7 ADD SLOAD PUSH2 0x240D JUMP JUMPDEST PUSH1 0x1 DUP7 ADD PUSH2 0x2572 JUMP JUMPDEST PUSH1 0x20 PUSH1 0x1F DUP3 GT PUSH1 0x1 EQ PUSH2 0x545 JUMPI SWAP2 DUP2 PUSH1 0x60 SWAP3 PUSH1 0x3 SWAP5 PUSH2 0x50C SWAP11 PUSH0 SWAP3 PUSH2 0x53A JUMPI JUMPDEST POP POP PUSH0 NOT DUP3 DUP7 SHL SHR NOT AND PUSH1 0x1 SWAP2 DUP3 SHL OR SWAP1 DUP6 ADD SSTORE JUMPDEST PUSH1 0x40 DUP2 ADD MLOAD PUSH1 0x2 DUP6 ADD SSTORE ADD MLOAD SWAP2 ADD SSTORE DUP1 PUSH0 MSTORE PUSH1 0x3 PUSH1 0x20 MSTORE PUSH2 0x457 PUSH1 0x40 PUSH0 KECCAK256 PUSH1 0x2 SLOAD SWAP1 PUSH2 0x2537 JUMP JUMPDEST PUSH1 0x2 SLOAD PUSH0 MSTORE PUSH1 0x1 PUSH1 0x20 MSTORE DUP1 PUSH1 0x40 PUSH0 KECCAK256 SSTORE PUSH32 0xD3F28A1C655091033012BC55D258BF3CBD4EA4FB8BC2FF81C626A2AAD9354E46 PUSH1 0x40 PUSH1 0x2 SLOAD SWAP5 DUP6 DUP5 DUP2 SWAP6 PUSH0 MSTORE PUSH1 0x4 PUSH1 0x20 MSTORE PUSH2 0x4F5 DUP5 PUSH0 KECCAK256 DUP4 DUP7 MLOAD PUSH1 0x20 DUP2 DUP9 MLOAD SWAP5 DUP3 DUP11 ADD SWAP6 PUSH2 0x4B7 DUP2 DUP5 DUP10 PUSH2 0x23C7 JUMP JUMPDEST DUP3 ADD SWAP1 DUP2 MSTORE SUB ADD SWAP1 KECCAK256 SSTORE DUP6 MLOAD SWAP5 DUP6 SWAP5 DUP6 SWAP5 PUSH32 0xE4C157BDF18B292C67A85F8AFA9036D1FD70E345BE3AD305FAFC7841C4801A3F PUSH0 DUP1 LOG3 MLOAD SWAP3 DUP4 SWAP2 PUSH2 0x23C7 JUMP JUMPDEST DUP2 ADD SUB SWAP1 KECCAK256 SWAP4 DUP2 MLOAD SWAP1 TIMESTAMP DUP3 MSTORE PUSH1 0x20 DUP3 ADD MSTORE LOG3 PUSH2 0x25B5 JUMP JUMPDEST DUP1 PUSH1 0x2 SSTORE PUSH0 NOT DUP2 ADD SWAP1 DUP2 GT PUSH2 0x526 JUMPI PUSH1 0x20 SWAP1 PUSH1 0x40 MLOAD SWAP1 DUP2 MSTORE RETURN JUMPDEST PUSH4 0x4E487B71 PUSH1 0xE0 SHL PUSH0 MSTORE PUSH1 0x11 PUSH1 0x4 MSTORE PUSH1 0x24 PUSH0 REVERT JUMPDEST ADD MLOAD SWAP1 POP PUSH0 DUP1 PUSH2 0x41B JUMP JUMPDEST PUSH1 0x1 DUP5 ADD PUSH0 MSTORE PUSH1 0x20 PUSH0 KECCAK256 SWAP8 PUSH0 JUMPDEST PUSH1 0x1F NOT DUP5 AND DUP2 LT PUSH2 0x59F JUMPI POP DUP3 PUSH2 0x50C SWAP10 PUSH1 0x3 SWAP6 SWAP4 PUSH1 0x1 SWAP4 PUSH1 0x60 SWAP7 PUSH1 0x1F NOT DUP2 AND LT PUSH2 0x588 JUMPI JUMPDEST POP POP POP DUP2 SHL ADD PUSH1 0x1 DUP6 ADD SSTORE PUSH2 0x430 JUMP JUMPDEST ADD MLOAD PUSH0 NOT DUP4 DUP9 SHL PUSH1 0xF8 AND SHR NOT AND SWAP1 SSTORE PUSH0 DUP1 DUP1 PUSH2 0x578 JUMP JUMPDEST DUP3 DUP3 ADD MLOAD DUP11 SSTORE PUSH1 0x1 SWAP1 SWAP10 ADD SWAP9 PUSH1 0x20 SWAP3 DUP4 ADD SWAP3 ADD PUSH2 0x552 JUMP JUMPDEST PUSH4 0x4E487B71 PUSH1 0xE0 SHL PUSH0 MSTORE PUSH1 0x41 PUSH1 0x4 MSTORE PUSH1 0x24 PUSH0 REVERT JUMPDEST ADD MLOAD SWAP1 POP PUSH0 DUP1 PUSH2 0x3C2 JUMP JUMPDEST PUSH0 DUP8 DUP2 MSTORE PUSH1 0x20 DUP2 KECCAK256 SWAP4 POP PUSH1 0x1F NOT DUP6 AND SWAP1 JUMPDEST DUP2 DUP2 LT PUSH2 0x622 JUMPI POP SWAP1 DUP5 PUSH1 0x1 SWAP6 SWAP5 SWAP4 SWAP3 LT PUSH2 0x60A JUMPI JUMPDEST POP POP POP DUP2 SHL ADD DUP4 SSTORE PUSH2 0x3D6 JUMP JUMPDEST ADD MLOAD PUSH0 NOT PUSH1 0xF8 DUP5 PUSH1 0x3 SHL AND SHR NOT AND SWAP1 SSTORE PUSH0 DUP1 DUP1 PUSH2 0x5FD JUMP JUMPDEST SWAP3 SWAP4 PUSH1 0x20 PUSH1 0x1 DUP2 SWAP3 DUP8 DUP7 ADD MLOAD DUP2 SSTORE ADD SWAP6 ADD SWAP4 ADD PUSH2 0x5E7 JUMP JUMPDEST PUSH1 0x10 SLOAD CALLVALUE SUB PUSH2 0x7BB JUMPI PUSH0 DUP1 DUP1 DUP1 SWAP4 CALLVALUE SWAP1 PUSH1 0x13 SLOAD AND GAS CALL RETURNDATASIZE ISZERO PUSH2 0x7B6 JUMPI RETURNDATASIZE PUSH2 0x660 DUP2 PUSH2 0x232C JUMP JUMPDEST SWAP1 PUSH2 0x66E PUSH1 0x40 MLOAD SWAP3 DUP4 PUSH2 0x230B JUMP JUMPDEST DUP2 MSTORE PUSH0 PUSH1 0x20 RETURNDATASIZE SWAP3 ADD RETURNDATACOPY JUMPDEST ISZERO PUSH2 0x77A JUMPI PUSH1 0x8 SLOAD ISZERO PUSH2 0x766 JUMPI PUSH1 0x8 PUSH0 MSTORE PUSH1 0x40 MLOAD PUSH2 0x6C1 DUP2 PUSH2 0x6BA DUP2 PUSH32 0xF3F7A9FE364FAAB93B216DA50A3214154F22A0A2B415B23A84C8169E8B636EE3 PUSH2 0x2445 JUMP JUMPDEST SUB DUP3 PUSH2 0x230B JUMP JUMPDEST DUP3 MSTORE PUSH1 0x2 SLOAD PUSH1 0x9 SLOAD SWAP1 PUSH1 0x1 PUSH1 0x40 SHL DUP3 LT ISZERO PUSH2 0x5B7 JUMPI PUSH2 0x6E9 DUP3 PUSH1 0x1 PUSH2 0x701 SWAP5 ADD PUSH1 0x9 SSTORE PUSH2 0x2277 JUMP JUMPDEST SWAP1 SWAP2 SWAP1 DUP3 SLOAD SWAP1 PUSH1 0x3 SHL SWAP2 DUP3 SHL SWAP2 PUSH0 NOT SWAP1 SHL NOT AND OR SWAP1 SSTORE JUMP JUMPDEST PUSH1 0x9 SLOAD PUSH0 NOT SWAP1 DUP2 DUP2 ADD SWAP1 DUP2 GT PUSH2 0x526 JUMPI PUSH1 0x2 SLOAD PUSH0 MSTORE PUSH1 0xA PUSH1 0x20 MSTORE PUSH1 0x40 PUSH0 KECCAK256 SSTORE PUSH1 0x2 SLOAD SWAP1 PUSH1 0x9 SLOAD SWAP1 DUP2 ADD SWAP1 DUP2 GT PUSH2 0x526 JUMPI PUSH32 0x2F5A4EE168DCA9EAEF284F1844A3D24D74BA63A5FCCC947454FC07515C8B3774 SWAP2 PUSH1 0x40 SWAP2 DUP3 MLOAD SWAP2 DUP3 MSTORE PUSH1 0x20 DUP3 ADD MSTORE LOG1 PUSH2 0x37D JUMP JUMPDEST PUSH4 0x4E487B71 PUSH1 0xE0 SHL PUSH0 MSTORE PUSH1 0x32 PUSH1 0x4 MSTORE PUSH1 0x24 PUSH0 REVERT JUMPDEST PUSH1 0x40 MLOAD PUSH3 0x461BCD PUSH1 0xE5 SHL DUP2 MSTORE PUSH1 0x20 PUSH1 0x4 DUP3 ADD MSTORE PUSH1 0x14 PUSH1 0x24 DUP3 ADD MSTORE PUSH20 0x2330B4B632B2103A379039B2B7321022BA3432B9 PUSH1 0x61 SHL PUSH1 0x44 DUP3 ADD MSTORE PUSH1 0x64 SWAP1 REVERT JUMPDEST PUSH2 0x678 JUMP JUMPDEST PUSH1 0x40 MLOAD PUSH3 0x461BCD PUSH1 0xE5 SHL DUP2 MSTORE PUSH1 0x20 PUSH1 0x4 DUP3 ADD MSTORE PUSH1 0x16 PUSH1 0x24 DUP3 ADD MSTORE PUSH22 0x4D7573742073656E642070726F706F73616C20666565 PUSH1 0x50 SHL PUSH1 0x44 DUP3 ADD MSTORE PUSH1 0x64 SWAP1 REVERT JUMPDEST SWAP1 SWAP2 POP PUSH1 0x20 DUP2 RETURNDATASIZE PUSH1 0x20 GT PUSH2 0x829 JUMPI JUMPDEST DUP2 PUSH2 0x815 PUSH1 0x20 SWAP4 DUP4 PUSH2 0x230B JUMP JUMPDEST DUP2 ADD SUB SLT PUSH2 0x825 JUMPI MLOAD SWAP1 PUSH0 PUSH2 0x305 JUMP JUMPDEST PUSH0 DUP1 REVERT JUMPDEST RETURNDATASIZE SWAP2 POP PUSH2 0x808 JUMP JUMPDEST PUSH1 0x40 MLOAD RETURNDATASIZE PUSH0 DUP3 RETURNDATACOPY RETURNDATASIZE SWAP1 REVERT JUMPDEST PUSH1 0x40 MLOAD PUSH3 0x461BCD PUSH1 0xE5 SHL DUP2 MSTORE PUSH1 0x20 PUSH1 0x4 DUP3 ADD MSTORE PUSH1 0x26 PUSH1 0x24 DUP3 ADD MSTORE PUSH32 0x436F6D6D756E69747920436F6E73656E73757320506172616D7320646F6E2774 PUSH1 0x44 DUP3 ADD MSTORE PUSH6 0x8195E1A5CDD PUSH1 0xD2 SHL PUSH1 0x64 DUP3 ADD MSTORE PUSH1 0x84 SWAP1 REVERT JUMPDEST PUSH2 0x8B2 SWAP2 POP PUSH1 0x20 RETURNDATASIZE PUSH1 0x20 GT PUSH2 0x8B8 JUMPI JUMPDEST PUSH2 0x8AA DUP2 DUP4 PUSH2 0x230B JUMP JUMPDEST DUP2 ADD SWAP1 PUSH2 0x251F JUMP JUMPDEST PUSH0 PUSH2 0x296 JUMP JUMPDEST POP RETURNDATASIZE PUSH2 0x8A0 JUMP JUMPDEST PUSH1 0x40 MLOAD PUSH3 0x461BCD PUSH1 0xE5 SHL DUP2 MSTORE PUSH1 0x20 PUSH1 0x4 DUP3 ADD MSTORE PUSH1 0x13 PUSH1 0x24 DUP3 ADD MSTORE PUSH19 0x141BDCDD08191BD95CC81B9BDD08195E1A5CDD PUSH1 0x6A SHL PUSH1 0x44 DUP3 ADD MSTORE PUSH1 0x64 SWAP1 REVERT JUMPDEST PUSH2 0x913 SWAP2 POP PUSH1 0x20 RETURNDATASIZE PUSH1 0x20 GT PUSH2 0x8B8 JUMPI PUSH2 0x8AA DUP2 DUP4 PUSH2 0x230B JUMP JUMPDEST PUSH0 PUSH2 0x226 JUMP JUMPDEST CALLVALUE PUSH2 0x825 JUMPI PUSH2 0x927 CALLDATASIZE PUSH2 0x2261 JUMP JUMPDEST SWAP1 PUSH0 MSTORE PUSH1 0x3 PUSH1 0x20 MSTORE PUSH1 0x40 PUSH0 KECCAK256 DUP1 SLOAD DUP3 LT ISZERO PUSH2 0x825 JUMPI PUSH1 0x20 SWAP2 PUSH2 0x948 SWAP2 PUSH2 0x228F JUMP JUMPDEST SWAP1 SLOAD SWAP1 PUSH1 0x3 SHL SHR PUSH1 0x40 MLOAD SWAP1 DUP2 MSTORE RETURN JUMPDEST CALLVALUE PUSH2 0x825 JUMPI PUSH1 0x20 CALLDATASIZE PUSH1 0x3 NOT ADD SLT PUSH2 0x825 JUMPI PUSH1 0x4 CALLDATALOAD PUSH1 0x9 SLOAD DUP2 LT ISZERO PUSH2 0x825 JUMPI PUSH2 0x980 PUSH1 0x20 SWAP2 PUSH2 0x2277 JUMP JUMPDEST SWAP1 SLOAD PUSH1 0x40 MLOAD SWAP2 PUSH1 0x3 SHL SHR DUP2 MSTORE RETURN JUMPDEST CALLVALUE PUSH2 0x825 JUMPI PUSH1 0x20 CALLDATASIZE PUSH1 0x3 NOT ADD SLT PUSH2 0x825 JUMPI PUSH1 0x4 CALLDATALOAD DUP1 PUSH0 MSTORE PUSH0 PUSH1 0x20 MSTORE PUSH2 0x9BB PUSH1 0x2 PUSH1 0x40 PUSH0 KECCAK256 ADD SLOAD ISZERO ISZERO PUSH2 0x25C3 JUMP JUMPDEST PUSH0 MSTORE PUSH0 PUSH1 0x20 MSTORE PUSH2 0x9F1 PUSH2 0x6BA PUSH2 0x9DD PUSH1 0x1 PUSH1 0x40 PUSH0 KECCAK256 ADD PUSH1 0x40 MLOAD SWAP3 DUP4 DUP1 SWAP3 PUSH2 0x2445 JUMP JUMPDEST PUSH1 0x40 MLOAD SWAP2 DUP3 SWAP2 PUSH1 0x20 DUP4 MSTORE PUSH1 0x20 DUP4 ADD SWAP1 PUSH2 0x23E8 JUMP JUMPDEST SUB SWAP1 RETURN JUMPDEST CALLVALUE PUSH2 0x825 JUMPI PUSH1 0x20 CALLDATASIZE PUSH1 0x3 NOT ADD SLT PUSH2 0x825 JUMPI PUSH1 0x4 CALLDATALOAD PUSH0 MSTORE PUSH1 0x5 PUSH1 0x20 MSTORE PUSH1 0x40 PUSH0 KECCAK256 PUSH1 0x1 DUP1 PUSH1 0xA0 SHL SUB DUP2 SLOAD AND PUSH1 0x40 MLOAD SWAP2 PUSH2 0xA3A DUP4 PUSH2 0xA33 DUP2 PUSH1 0x1 DUP6 ADD PUSH2 0x2445 JUMP JUMPDEST SUB DUP5 PUSH2 0x230B JUMP JUMPDEST PUSH2 0xA92 PUSH1 0x2 DUP3 ADD SLOAD PUSH1 0x4 PUSH1 0x40 MLOAD SWAP4 PUSH2 0xA60 DUP6 PUSH2 0xA59 DUP2 PUSH1 0x3 DUP6 ADD PUSH2 0x2445 JUMP JUMPDEST SUB DUP7 PUSH2 0x230B JUMP JUMPDEST ADD SLOAD SWAP3 PUSH2 0xA7F PUSH1 0x40 MLOAD SWAP7 DUP8 SWAP7 DUP8 MSTORE PUSH1 0xA0 PUSH1 0x20 DUP9 ADD MSTORE PUSH1 0xA0 DUP8 ADD SWAP1 PUSH2 0x23E8 JUMP JUMPDEST SWAP2 PUSH1 0x40 DUP7 ADD MSTORE DUP5 DUP3 SUB PUSH1 0x60 DUP7 ADD MSTORE PUSH2 0x23E8 JUMP JUMPDEST SWAP1 PUSH1 0x80 DUP4 ADD MSTORE SUB SWAP1 RETURN JUMPDEST CALLVALUE PUSH2 0x825 JUMPI PUSH0 CALLDATASIZE PUSH1 0x3 NOT ADD SLT PUSH2 0x825 JUMPI PUSH1 0x20 PUSH1 0x6 SLOAD PUSH1 0x40 MLOAD SWAP1 DUP2 MSTORE RETURN JUMPDEST CALLVALUE PUSH2 0x825 JUMPI PUSH0 CALLDATASIZE PUSH1 0x3 NOT ADD SLT PUSH2 0x825 JUMPI PUSH1 0xE SLOAD PUSH1 0x40 MLOAD PUSH1 0x1 PUSH1 0x1 PUSH1 0xA0 SHL SUB SWAP1 SWAP2 AND DUP2 MSTORE PUSH1 0x20 SWAP1 RETURN JUMPDEST CALLVALUE PUSH2 0x825 JUMPI PUSH1 0x20 DUP1 PUSH1 0x3 NOT CALLDATASIZE ADD SLT PUSH2 0x825 JUMPI PUSH1 0x80 SWAP1 PUSH0 PUSH1 0x60 PUSH1 0x40 MLOAD PUSH2 0xB05 DUP2 PUSH2 0x22D5 JUMP JUMPDEST DUP2 DUP2 MSTORE DUP2 DUP5 DUP3 ADD MSTORE DUP3 PUSH1 0x40 DUP3 ADD MSTORE ADD MSTORE PUSH1 0x4 CALLDATALOAD PUSH0 MSTORE PUSH0 DUP2 MSTORE PUSH1 0x40 PUSH0 KECCAK256 PUSH1 0x40 MLOAD SWAP2 PUSH2 0xB2E DUP4 PUSH2 0x22D5 JUMP JUMPDEST PUSH1 0x40 MLOAD PUSH2 0xB3F DUP2 PUSH2 0x6BA DUP2 DUP7 PUSH2 0x2445 JUMP JUMPDEST DUP4 MSTORE PUSH2 0xBA5 PUSH1 0x40 MLOAD PUSH2 0xB58 DUP2 PUSH2 0x6BA DUP2 PUSH1 0x1 DUP9 ADD PUSH2 0x2445 JUMP JUMPDEST DUP3 DUP6 ADD SWAP1 DUP2 MSTORE PUSH2 0xB92 PUSH1 0x3 PUSH1 0x2 DUP7 ADD SLOAD SWAP6 PUSH1 0x40 DUP9 ADD SWAP7 DUP8 MSTORE ADD SLOAD SWAP4 PUSH1 0x60 DUP8 ADD SWAP5 DUP6 MSTORE PUSH1 0x40 MLOAD SWAP8 DUP9 SWAP8 DUP3 DUP10 MSTORE MLOAD SWAP2 DUP9 ADD MSTORE PUSH1 0xA0 DUP8 ADD SWAP1 PUSH2 0x23E8 JUMP JUMPDEST SWAP1 MLOAD DUP6 DUP3 SUB PUSH1 0x1F NOT ADD PUSH1 0x40 DUP8 ADD MSTORE PUSH2 0x23E8 JUMP JUMPDEST SWAP2 MLOAD PUSH1 0x60 DUP5 ADD MSTORE MLOAD PUSH1 0x80 DUP4 ADD MSTORE SUB SWAP1 RETURN JUMPDEST CALLVALUE PUSH2 0x825 JUMPI PUSH1 0x20 CALLDATASIZE PUSH1 0x3 NOT ADD SLT PUSH2 0x825 JUMPI PUSH1 0x4 CALLDATALOAD PUSH0 MSTORE PUSH1 0xA PUSH1 0x20 MSTORE PUSH1 0x20 PUSH1 0x40 PUSH0 KECCAK256 SLOAD PUSH1 0x40 MLOAD SWAP1 DUP2 MSTORE RETURN JUMPDEST CALLVALUE PUSH2 0x825 JUMPI PUSH1 0x20 DUP1 PUSH1 0x3 NOT CALLDATASIZE ADD SLT PUSH2 0x825 JUMPI PUSH1 0x4 CALLDATALOAD SWAP1 PUSH1 0x1 PUSH1 0x1 PUSH1 0x40 SHL SUB SWAP1 DUP2 DUP4 GT PUSH2 0x825 JUMPI CALLDATASIZE PUSH1 0x23 DUP5 ADD SLT ISZERO PUSH2 0x825 JUMPI DUP3 PUSH1 0x4 ADD CALLDATALOAD SWAP2 PUSH2 0xC20 DUP4 PUSH2 0x2508 JUMP JUMPDEST SWAP4 PUSH2 0xC2E PUSH1 0x40 MLOAD SWAP6 DUP7 PUSH2 0x230B JUMP JUMPDEST DUP4 DUP6 MSTORE DUP3 DUP6 ADD SWAP5 DUP6 SWAP2 PUSH1 0x24 SWAP7 DUP8 PUSH1 0x5 SWAP8 DUP9 SHL DUP4 ADD ADD SWAP2 CALLDATASIZE DUP4 GT PUSH2 0x825 JUMPI DUP9 DUP2 ADD SWAP2 JUMPDEST DUP4 DUP4 LT PUSH2 0xE26 JUMPI POP POP PUSH1 0x12 SLOAD PUSH2 0xC7D SWAP3 POP CALLER PUSH1 0x1 PUSH1 0x1 PUSH1 0xA0 SHL SUB SWAP2 DUP3 AND EQ SWAP2 POP DUP2 ISZERO PUSH2 0xE18 JUMPI JUMPDEST POP PUSH2 0x2641 JUMP JUMPDEST MLOAD SWAP4 PUSH1 0x1 PUSH1 0x40 SHL DUP6 GT PUSH2 0xE05 JUMPI PUSH1 0x8 SLOAD SWAP1 DUP6 PUSH1 0x8 SSTORE DUP2 DUP7 LT PUSH2 0xD96 JUMPI JUMPDEST POP POP SWAP4 SWAP1 PUSH1 0x8 PUSH0 MSTORE DUP3 PUSH0 KECCAK256 SWAP2 PUSH0 SWAP6 JUMPDEST DUP6 DUP8 LT PUSH2 0xCB2 JUMPI STOP JUMPDEST DUP1 MLOAD DUP1 MLOAD SWAP1 DUP5 DUP3 GT PUSH2 0xD83 JUMPI SWAP1 DUP7 SWAP2 PUSH2 0xCD5 DUP3 PUSH2 0xCCF DUP10 SLOAD PUSH2 0x240D JUMP JUMPDEST DUP10 PUSH2 0x2572 JUMP JUMPDEST DUP3 SWAP1 PUSH1 0x1F DUP4 GT PUSH1 0x1 EQ PUSH2 0xD1C JUMPI SWAP2 DUP1 PUSH1 0x1 SWAP6 SWAP3 DUP7 SWAP6 SWAP5 PUSH0 SWAP3 PUSH2 0xD11 JUMPI JUMPDEST POP POP PUSH0 NOT PUSH1 0x3 DUP4 SWAP1 SHL SHR NOT AND SWAP1 DUP5 SHL OR DUP8 SSTORE JUMPDEST ADD SWAP5 ADD SWAP7 ADD SWAP6 SWAP3 PUSH2 0xCA9 JUMP JUMPDEST ADD MLOAD SWAP1 POP DUP13 DUP1 PUSH2 0xCF2 JUMP JUMPDEST SWAP1 PUSH1 0x1F NOT DUP4 AND SWAP2 DUP9 PUSH0 MSTORE DUP5 PUSH0 KECCAK256 SWAP3 PUSH0 JUMPDEST DUP2 DUP2 LT PUSH2 0xD6B JUMPI POP SWAP2 PUSH1 0x1 SWAP7 SWAP4 SWAP2 DUP6 DUP9 SWAP8 SWAP7 SWAP5 LT PUSH2 0xD53 JUMPI JUMPDEST POP POP POP DUP4 SHL DUP4 ADD DUP8 SSTORE PUSH2 0xD05 JUMP JUMPDEST ADD MLOAD PUSH0 NOT PUSH1 0xF8 DUP5 PUSH1 0x3 SHL AND SHR NOT AND SWAP1 SSTORE DUP12 DUP1 DUP1 PUSH2 0xD45 JUMP JUMPDEST DUP3 DUP5 ADD MLOAD DUP6 SSTORE DUP12 SWAP7 PUSH1 0x1 SWAP1 SWAP6 ADD SWAP5 SWAP4 DUP5 ADD SWAP4 ADD PUSH2 0xD2C JUMP JUMPDEST DUP4 PUSH4 0x4E487B71 PUSH1 0xE0 SHL PUSH0 MSTORE PUSH1 0x41 PUSH1 0x4 MSTORE PUSH0 REVERT JUMPDEST PUSH1 0x8 PUSH0 MSTORE DUP6 DUP6 PUSH0 KECCAK256 SWAP3 DUP4 ADD SWAP3 ADD JUMPDEST DUP3 DUP2 LT PUSH2 0xDB1 JUMPI POP PUSH2 0xC9A JUMP JUMPDEST DUP1 PUSH2 0xDBE PUSH1 0x1 SWAP3 SLOAD PUSH2 0x240D JUMP JUMPDEST DUP1 PUSH2 0xDCB JUMPI JUMPDEST POP ADD PUSH2 0xDA4 JUMP JUMPDEST PUSH1 0x1F SWAP1 DUP2 DUP2 GT DUP5 EQ PUSH2 0xDE3 JUMPI POP POP PUSH0 DUP2 SSTORE JUMPDEST DUP10 PUSH2 0xDC4 JUMP JUMPDEST PUSH2 0xDFC PUSH0 SWAP3 DUP5 DUP5 MSTORE DUP11 DUP5 KECCAK256 SWAP3 ADD DUP7 SHR DUP3 ADD DUP6 DUP4 ADD PUSH2 0x255C JUMP JUMPDEST DUP2 DUP4 SSTORE SSTORE PUSH2 0xDDD JUMP JUMPDEST DUP6 PUSH4 0x4E487B71 PUSH1 0xE0 SHL PUSH0 MSTORE PUSH1 0x41 PUSH1 0x4 MSTORE PUSH0 REVERT JUMPDEST SWAP1 POP PUSH1 0xC SLOAD AND CALLER EQ DUP9 PUSH2 0xC77 JUMP JUMPDEST DUP3 CALLDATALOAD DUP8 DUP2 GT PUSH2 0x825 JUMPI DUP9 SWAP2 PUSH2 0xE41 DUP4 SWAP3 DUP14 CALLDATASIZE SWAP2 DUP8 ADD ADD PUSH2 0x2347 JUMP JUMPDEST DUP2 MSTORE ADD SWAP3 ADD SWAP2 PUSH2 0xC50 JUMP JUMPDEST CALLVALUE PUSH2 0x825 JUMPI PUSH1 0x20 PUSH2 0xE7E DUP2 PUSH2 0xE60 CALLDATASIZE PUSH2 0x24D6 JUMP JUMPDEST SWAP1 PUSH0 MSTORE PUSH1 0x4 DUP3 MSTORE PUSH1 0x40 PUSH0 KECCAK256 DUP3 PUSH1 0x40 MLOAD SWAP5 DUP4 DUP7 DUP1 SWAP6 MLOAD SWAP4 DUP5 SWAP3 ADD PUSH2 0x23C7 JUMP JUMPDEST DUP3 ADD SWAP1 DUP2 MSTORE SUB ADD SWAP1 KECCAK256 SLOAD PUSH1 0x40 MLOAD SWAP1 DUP2 MSTORE RETURN JUMPDEST CALLVALUE PUSH2 0x825 JUMPI PUSH1 0x20 CALLDATASIZE PUSH1 0x3 NOT ADD SLT PUSH2 0x825 JUMPI PUSH2 0xEA9 PUSH2 0x22A4 JUMP JUMPDEST PUSH1 0x12 SLOAD PUSH1 0x1 PUSH1 0x1 PUSH1 0xA0 SHL SUB SWAP2 SWAP1 DUP3 AND CALLER EQ DUP1 ISZERO PUSH2 0xEDF JUMPI JUMPDEST PUSH2 0xECA SWAP1 PUSH2 0x2641 JUMP JUMPDEST AND PUSH1 0x1 DUP1 PUSH1 0xA0 SHL SUB NOT PUSH1 0xF SLOAD AND OR PUSH1 0xF SSTORE PUSH0 DUP1 RETURN JUMPDEST POP PUSH1 0xC SLOAD DUP3 AND CALLER EQ PUSH2 0xEC1 JUMP JUMPDEST CALLVALUE PUSH2 0x825 JUMPI PUSH1 0x20 CALLDATASIZE PUSH1 0x3 NOT ADD SLT PUSH2 0x825 JUMPI PUSH1 0x12 SLOAD PUSH2 0xF1E SWAP1 CALLER PUSH1 0x1 PUSH1 0x1 PUSH1 0xA0 SHL SUB SWAP2 DUP3 AND EQ SWAP1 DUP2 ISZERO PUSH2 0xF26 JUMPI POP PUSH2 0x2641 JUMP JUMPDEST PUSH1 0x4 CALLDATALOAD PUSH1 0x11 SSTORE STOP JUMPDEST SWAP1 POP PUSH1 0xC SLOAD AND CALLER EQ DUP3 PUSH2 0xC77 JUMP JUMPDEST CALLVALUE PUSH2 0x825 JUMPI PUSH0 CALLDATASIZE PUSH1 0x3 NOT ADD SLT PUSH2 0x825 JUMPI PUSH0 DUP1 PUSH0 PUSH1 0x9 SLOAD DUP1 PUSH2 0xF86 JUMPI JUMPDEST POP POP PUSH1 0x40 MLOAD SWAP2 PUSH1 0x20 DUP4 ADD MSTORE PUSH1 0x20 DUP3 MSTORE PUSH2 0xF68 DUP3 PUSH2 0x22F0 JUMP JUMPDEST PUSH2 0x9F1 PUSH1 0x40 MLOAD SWAP3 DUP4 SWAP3 ISZERO ISZERO DUP4 MSTORE PUSH1 0x40 PUSH1 0x20 DUP5 ADD MSTORE PUSH1 0x40 DUP4 ADD SWAP1 PUSH2 0x23E8 JUMP JUMPDEST PUSH0 PUSH1 0x1 JUMPDEST DUP3 DUP2 LT PUSH2 0x1214 JUMPI POP POP POP DUP1 PUSH2 0xFA0 JUMPI JUMPDEST DUP1 PUSH2 0xF50 JUMP JUMPDEST SWAP1 SWAP2 POP PUSH1 0x1 DUP1 PUSH1 0xA0 SHL SUB PUSH1 0xD SLOAD AND DUP2 PUSH0 MSTORE PUSH0 PUSH1 0x20 MSTORE PUSH1 0x40 PUSH0 KECCAK256 SWAP1 PUSH1 0x60 PUSH1 0x40 MLOAD DUP1 SWAP3 PUSH4 0x26917989 PUSH1 0xE0 SHL DUP3 MSTORE PUSH1 0x20 PUSH1 0x4 DUP4 ADD MSTORE DUP2 DUP1 PUSH2 0xFE3 PUSH1 0x24 SWAP8 DUP9 DUP4 ADD SWAP1 PUSH2 0x2445 JUMP JUMPDEST SUB SWAP2 GAS STATICCALL SWAP2 DUP3 ISZERO PUSH2 0x831 JUMPI PUSH0 SWAP1 PUSH0 SWAP3 PUSH0 SWAP5 PUSH2 0x11D3 JUMPI JUMPDEST POP DUP5 PUSH0 MSTORE PUSH1 0x7 PUSH1 0x20 MSTORE PUSH1 0x40 PUSH0 KECCAK256 SWAP2 PUSH1 0x40 MLOAD DUP1 DUP5 PUSH1 0x20 DUP3 SWAP7 SLOAD SWAP4 DUP5 DUP2 MSTORE ADD SWAP1 PUSH0 MSTORE PUSH1 0x20 PUSH0 KECCAK256 SWAP3 PUSH0 JUMPDEST DUP2 DUP2 LT PUSH2 0x11BA JUMPI POP POP PUSH2 0x1035 SWAP3 POP SUB DUP5 PUSH2 0x230B JUMP JUMPDEST DUP3 MLOAD SWAP4 DUP2 DUP6 LT ISZERO PUSH2 0x1057 JUMPI POP POP POP POP POP POP PUSH2 0x104F SWAP1 PUSH2 0x262C JUMP JUMPDEST SWAP1 JUMPDEST DUP3 PUSH2 0xF9A JUMP JUMPDEST PUSH0 SWAP4 PUSH0 SWAP6 PUSH1 0x11 SLOAD SWAP1 DUP2 DUP2 GT PUSH0 EQ PUSH2 0x11B2 JUMPI POP SWAP1 JUMPDEST PUSH0 JUMPDEST DUP3 DUP2 LT PUSH2 0x10FB JUMPI POP POP POP POP DUP4 ISZERO DUP1 SWAP2 DUP2 ISZERO PUSH2 0x10F1 JUMPI JUMPDEST POP ISZERO PUSH2 0x109D JUMPI POP POP POP POP POP PUSH2 0x1097 SWAP1 PUSH2 0x262C JUMP JUMPDEST SWAP1 PUSH2 0x1051 JUMP JUMPDEST PUSH1 0x64 DUP4 MUL SWAP3 DUP1 DUP5 DIV PUSH1 0x64 EQ SWAP1 ISZERO OR ISZERO PUSH2 0x10DD JUMPI PUSH2 0x10CA JUMPI POP DIV LT PUSH2 0x10C1 JUMPI SWAP1 PUSH2 0x1051 JUMP JUMPDEST PUSH2 0x1097 SWAP1 PUSH2 0x262C JUMP JUMPDEST PUSH4 0x4E487B71 PUSH1 0xE0 SHL PUSH0 SWAP1 DUP2 MSTORE PUSH1 0x12 PUSH1 0x4 MSTORE REVERT JUMPDEST POP PUSH4 0x4E487B71 PUSH1 0xE0 SHL PUSH0 SWAP1 DUP2 MSTORE PUSH1 0x11 PUSH1 0x4 MSTORE REVERT JUMPDEST SWAP1 POP DUP5 LT DUP9 PUSH2 0x1083 JUMP JUMPDEST PUSH2 0x1105 DUP2 DUP4 PUSH2 0x2618 JUMP JUMPDEST MLOAD PUSH1 0x40 MLOAD SWAP1 PUSH4 0x5CF17E1F PUSH1 0xE1 SHL DUP3 MSTORE PUSH1 0x4 DUP3 ADD MSTORE PUSH1 0x40 DUP2 DUP9 DUP2 ADDRESS GAS STATICCALL DUP1 ISZERO PUSH2 0x831 JUMPI DUP6 SWAP1 PUSH0 SWAP3 PUSH0 SWAP2 PUSH2 0x1177 JUMPI JUMPDEST POP LT ISZERO PUSH2 0x1149 JUMPI JUMPDEST POP PUSH2 0x1144 SWAP1 PUSH2 0x25B5 JUMP JUMPDEST PUSH2 0x106D JUMP JUMPDEST SWAP8 PUSH2 0x1155 PUSH1 0x2 SWAP2 PUSH2 0x25B5 JUMP JUMPDEST SWAP9 EQ PUSH2 0x1162 JUMPI JUMPDEST DUP12 PUSH2 0x113A JUMP JUMPDEST SWAP6 PUSH2 0x116F PUSH2 0x1144 SWAP2 PUSH2 0x25B5 JUMP JUMPDEST SWAP7 SWAP1 POP PUSH2 0x115C JUMP JUMPDEST SWAP3 POP POP POP PUSH1 0x40 DUP2 RETURNDATASIZE PUSH1 0x40 GT PUSH2 0x11AA JUMPI JUMPDEST DUP2 PUSH2 0x1194 PUSH1 0x40 SWAP4 DUP4 PUSH2 0x230B JUMP JUMPDEST DUP2 ADD SUB SLT PUSH2 0x825 JUMPI DUP5 PUSH1 0x20 DUP3 MLOAD SWAP3 ADD MLOAD DUP15 PUSH2 0x1132 JUMP JUMPDEST RETURNDATASIZE SWAP2 POP PUSH2 0x1187 JUMP JUMPDEST SWAP1 POP SWAP1 PUSH2 0x106B JUMP JUMPDEST DUP5 SLOAD DUP4 MSTORE PUSH1 0x1 SWAP5 DUP6 ADD SWAP5 DUP9 SWAP5 POP PUSH1 0x20 SWAP1 SWAP4 ADD SWAP3 ADD PUSH2 0x1020 JUMP JUMPDEST SWAP3 POP SWAP3 POP POP PUSH1 0x60 DUP2 RETURNDATASIZE DUP3 GT PUSH2 0x120C JUMPI JUMPDEST DUP2 PUSH2 0x11F0 PUSH1 0x60 SWAP4 DUP4 PUSH2 0x230B JUMP JUMPDEST DUP2 ADD SUB SLT PUSH2 0x825 JUMPI DUP1 MLOAD PUSH1 0x20 DUP3 ADD MLOAD PUSH1 0x40 SWAP1 SWAP3 ADD MLOAD SWAP3 DUP7 PUSH2 0xFF9 JUMP JUMPDEST RETURNDATASIZE SWAP2 POP PUSH2 0x11E3 JUMP JUMPDEST PUSH2 0x121D DUP2 PUSH2 0x2277 JUMP JUMPDEST SWAP1 SLOAD PUSH1 0x3 SWAP2 DUP3 SHL SHR PUSH0 MSTORE PUSH2 0x1258 PUSH1 0x20 PUSH0 DUP2 MSTORE PUSH0 PUSH1 0x2 PUSH1 0x40 DUP3 KECCAK256 ADD SLOAD SWAP2 PUSH2 0x1242 DUP7 PUSH2 0x2277 JUMP JUMPDEST SWAP1 SLOAD SWAP1 DUP7 SHL SHR DUP3 MSTORE MSTORE DUP3 PUSH1 0x40 PUSH0 KECCAK256 ADD SLOAD SWAP1 PUSH2 0x260B JUMP JUMPDEST TIMESTAMP DUP2 GT ISZERO DUP1 PUSH2 0x129A JUMPI JUMPDEST PUSH2 0x1277 JUMPI JUMPDEST POP POP PUSH2 0x1272 SWAP1 PUSH2 0x25B5 JUMP JUMPDEST PUSH2 0xF8A JUMP JUMPDEST SWAP5 POP SWAP5 POP SWAP1 POP PUSH2 0x1272 PUSH1 0x1 SWAP5 PUSH2 0x128C DUP4 PUSH2 0x2277 JUMP JUMPDEST SWAP1 SLOAD SWAP2 SHL SHR SWAP4 SWAP2 SWAP1 DUP8 PUSH2 0x1267 JUMP JUMPDEST POP DUP4 DUP2 GT ISZERO DUP1 PUSH2 0x1262 JUMPI POP DUP4 ISZERO PUSH2 0x1262 JUMP JUMPDEST CALLVALUE PUSH2 0x825 JUMPI PUSH1 0x20 CALLDATASIZE PUSH1 0x3 NOT ADD SLT PUSH2 0x825 JUMPI PUSH1 0x4 CALLDATALOAD PUSH0 MSTORE PUSH0 PUSH1 0x20 MSTORE PUSH2 0x131C PUSH1 0x40 PUSH0 KECCAK256 PUSH1 0x40 MLOAD SWAP1 PUSH2 0x12E6 DUP3 PUSH2 0x12DF DUP2 DUP5 PUSH2 0x2445 JUMP JUMPDEST SUB DUP4 PUSH2 0x230B JUMP JUMPDEST PUSH1 0x40 MLOAD PUSH2 0x12FA DUP2 PUSH2 0x6BA DUP2 PUSH1 0x1 DUP7 ADD PUSH2 0x2445 JUMP JUMPDEST PUSH2 0x132A PUSH1 0x3 PUSH1 0x2 DUP5 ADD SLOAD SWAP4 ADD SLOAD SWAP2 PUSH1 0x40 MLOAD SWAP6 DUP7 SWAP6 PUSH1 0x80 DUP8 MSTORE PUSH1 0x80 DUP8 ADD SWAP1 PUSH2 0x23E8 JUMP JUMPDEST SWAP1 DUP6 DUP3 SUB PUSH1 0x20 DUP8 ADD MSTORE PUSH2 0x23E8 JUMP JUMPDEST SWAP2 PUSH1 0x40 DUP5 ADD MSTORE PUSH1 0x60 DUP4 ADD MSTORE SUB SWAP1 RETURN JUMPDEST CALLVALUE PUSH2 0x825 JUMPI PUSH0 CALLDATASIZE PUSH1 0x3 NOT ADD SLT PUSH2 0x825 JUMPI PUSH1 0x40 MLOAD PUSH1 0x9 DUP1 SLOAD DUP1 DUP4 MSTORE PUSH0 SWAP2 DUP3 MSTORE PUSH1 0x20 DUP1 DUP5 ADD SWAP4 SWAP3 PUSH32 0x6E1540171B6C0C960B71A7020D9F60077F6AF931A8BBF590DA0223DACF75C7AF SWAP3 SWAP2 JUMPDEST DUP3 DUP3 LT PUSH2 0x13A5 JUMPI PUSH2 0x9F1 DUP6 PUSH2 0x1399 DUP2 DUP10 SUB DUP3 PUSH2 0x230B JUMP JUMPDEST PUSH1 0x40 MLOAD SWAP2 DUP3 SWAP2 DUP3 PUSH2 0x238D JUMP JUMPDEST DUP4 SLOAD DUP7 MSTORE SWAP5 DUP6 ADD SWAP5 PUSH1 0x1 SWAP4 DUP5 ADD SWAP4 SWAP1 SWAP2 ADD SWAP1 PUSH2 0x1382 JUMP JUMPDEST CALLVALUE PUSH2 0x825 JUMPI PUSH1 0x20 CALLDATASIZE PUSH1 0x3 NOT ADD SLT PUSH2 0x825 JUMPI PUSH1 0x4 CALLDATALOAD PUSH0 MSTORE PUSH1 0x5 PUSH1 0x20 MSTORE PUSH1 0x40 DUP1 PUSH0 KECCAK256 PUSH1 0x4 PUSH1 0x2 DUP3 ADD SLOAD SWAP2 ADD SLOAD DUP3 MLOAD SWAP2 DUP3 MSTORE PUSH1 0x20 DUP3 ADD MSTORE RETURN JUMPDEST CALLVALUE PUSH2 0x825 JUMPI PUSH1 0x20 CALLDATASIZE PUSH1 0x3 NOT ADD SLT PUSH2 0x825 JUMPI PUSH2 0x140B PUSH2 0x22A4 JUMP JUMPDEST PUSH1 0x12 SLOAD PUSH1 0x1 PUSH1 0x1 PUSH1 0xA0 SHL SUB SWAP2 SWAP1 DUP3 AND CALLER EQ DUP1 ISZERO PUSH2 0x1441 JUMPI JUMPDEST PUSH2 0x142C SWAP1 PUSH2 0x2641 JUMP JUMPDEST AND PUSH1 0x1 DUP1 PUSH1 0xA0 SHL SUB NOT PUSH1 0xD SLOAD AND OR PUSH1 0xD SSTORE PUSH0 DUP1 RETURN JUMPDEST POP PUSH1 0xC SLOAD DUP3 AND CALLER EQ PUSH2 0x1423 JUMP JUMPDEST CALLVALUE PUSH2 0x825 JUMPI PUSH1 0x20 CALLDATASIZE PUSH1 0x3 NOT ADD SLT PUSH2 0x825 JUMPI PUSH1 0x4 CALLDATALOAD PUSH0 MSTORE PUSH1 0x1 PUSH1 0x20 MSTORE PUSH1 0x20 PUSH1 0x40 PUSH0 KECCAK256 SLOAD PUSH1 0x40 MLOAD SWAP1 DUP2 MSTORE RETURN JUMPDEST CALLVALUE PUSH2 0x825 JUMPI PUSH0 CALLDATASIZE PUSH1 0x3 NOT ADD SLT PUSH2 0x825 JUMPI PUSH1 0x20 PUSH1 0x2 SLOAD PUSH1 0x40 MLOAD SWAP1 DUP2 MSTORE RETURN JUMPDEST CALLVALUE PUSH2 0x825 JUMPI PUSH1 0x20 DUP1 PUSH1 0x3 NOT CALLDATASIZE ADD SLT PUSH2 0x825 JUMPI PUSH0 PUSH1 0x80 PUSH1 0x40 MLOAD PUSH2 0x14B6 DUP2 PUSH2 0x22BA JUMP JUMPDEST DUP3 DUP2 MSTORE PUSH1 0x60 DUP5 DUP3 ADD MSTORE DUP3 PUSH1 0x40 DUP3 ADD MSTORE PUSH1 0x60 DUP1 DUP3 ADD MSTORE ADD MSTORE PUSH1 0x4 CALLDATALOAD PUSH0 MSTORE PUSH1 0x5 DUP2 MSTORE PUSH1 0x40 PUSH0 KECCAK256 SWAP1 PUSH1 0x40 MLOAD SWAP1 PUSH2 0x14E8 DUP3 PUSH2 0x22BA JUMP JUMPDEST DUP3 SLOAD PUSH1 0x1 PUSH1 0x1 PUSH1 0xA0 SHL SUB SWAP1 DUP2 AND DUP4 MSTORE PUSH1 0x40 MLOAD SWAP1 SWAP4 PUSH2 0x158A SWAP2 SWAP1 PUSH2 0x1512 DUP3 PUSH2 0x12DF DUP2 PUSH1 0x1 DUP6 ADD PUSH2 0x2445 JUMP JUMPDEST DUP4 DUP6 ADD SWAP2 DUP3 MSTORE PUSH2 0x1571 PUSH1 0x2 DUP3 ADD SLOAD SWAP3 PUSH1 0x40 DUP8 ADD SWAP4 DUP5 MSTORE PUSH1 0x4 PUSH1 0x40 MLOAD SWAP4 PUSH2 0x153F DUP6 PUSH2 0xA59 DUP2 PUSH1 0x3 DUP6 ADD PUSH2 0x2445 JUMP JUMPDEST PUSH1 0x60 DUP10 ADD SWAP5 DUP6 MSTORE ADD SLOAD SWAP6 PUSH1 0x80 DUP9 ADD SWAP7 DUP8 MSTORE PUSH1 0x40 MLOAD SWAP9 DUP10 SWAP9 DUP3 DUP11 MSTORE MLOAD AND SWAP1 DUP9 ADD MSTORE MLOAD PUSH1 0xA0 PUSH1 0x40 DUP9 ADD MSTORE PUSH1 0xC0 DUP8 ADD SWAP1 PUSH2 0x23E8 JUMP JUMPDEST SWAP2 MLOAD PUSH1 0x60 DUP7 ADD MSTORE MLOAD DUP5 DUP3 SUB PUSH1 0x1F NOT ADD PUSH1 0x80 DUP7 ADD MSTORE PUSH2 0x23E8 JUMP JUMPDEST SWAP1 MLOAD PUSH1 0xA0 DUP4 ADD MSTORE SUB SWAP1 RETURN JUMPDEST CALLVALUE PUSH2 0x825 JUMPI PUSH1 0x20 CALLDATASIZE PUSH1 0x3 NOT ADD SLT PUSH2 0x825 JUMPI PUSH1 0x4 CALLDATALOAD PUSH1 0x1 PUSH1 0x1 PUSH1 0xA0 SHL SUB DUP2 DUP2 AND SWAP2 DUP3 SWAP1 SUB PUSH2 0x825 JUMPI DUP1 PUSH2 0x15D4 SWAP2 PUSH1 0x12 SLOAD AND CALLER EQ SWAP1 DUP2 ISZERO PUSH2 0x15EA JUMPI POP PUSH2 0x2641 JUMP JUMPDEST PUSH1 0x13 DUP1 SLOAD PUSH1 0x1 PUSH1 0x1 PUSH1 0xA0 SHL SUB NOT AND SWAP2 SWAP1 SWAP2 OR SWAP1 SSTORE STOP JUMPDEST SWAP1 POP PUSH1 0xC SLOAD AND CALLER EQ DUP4 PUSH2 0xC77 JUMP JUMPDEST CALLVALUE PUSH2 0x825 JUMPI PUSH1 0x40 CALLDATASIZE PUSH1 0x3 NOT ADD SLT PUSH2 0x825 JUMPI PUSH1 0x24 CALLDATALOAD PUSH1 0x1 PUSH1 0x1 PUSH1 0xA0 SHL SUB DUP2 AND SWAP1 DUP2 SWAP1 SUB PUSH2 0x825 JUMPI PUSH1 0x4 CALLDATALOAD PUSH0 MSTORE PUSH1 0xB PUSH1 0x20 MSTORE PUSH1 0x40 PUSH0 KECCAK256 SWAP1 PUSH0 MSTORE PUSH1 0x20 MSTORE PUSH1 0x20 PUSH1 0xFF PUSH1 0x40 PUSH0 KECCAK256 SLOAD AND PUSH1 0x40 MLOAD SWAP1 ISZERO ISZERO DUP2 MSTORE RETURN JUMPDEST CALLVALUE PUSH2 0x825 JUMPI PUSH0 CALLDATASIZE PUSH1 0x3 NOT ADD SLT PUSH2 0x825 JUMPI PUSH1 0x20 PUSH1 0x9 SLOAD PUSH1 0x40 MLOAD SWAP1 DUP2 MSTORE RETURN JUMPDEST CALLVALUE PUSH2 0x825 JUMPI PUSH1 0x20 DUP1 PUSH1 0x3 NOT CALLDATASIZE ADD SLT PUSH2 0x825 JUMPI PUSH1 0x4 CALLDATALOAD PUSH0 MSTORE PUSH1 0x7 DUP2 MSTORE PUSH1 0x40 PUSH0 KECCAK256 SWAP1 PUSH1 0x40 MLOAD SWAP1 DUP2 DUP2 DUP5 SLOAD SWAP2 DUP3 DUP2 MSTORE ADD SWAP4 PUSH0 MSTORE DUP2 PUSH0 KECCAK256 SWAP2 PUSH0 SWAP1 JUMPDEST DUP3 DUP3 LT PUSH2 0x16B1 JUMPI PUSH2 0x9F1 DUP6 PUSH2 0x1399 DUP2 DUP10 SUB DUP3 PUSH2 0x230B JUMP JUMPDEST DUP4 SLOAD DUP7 MSTORE SWAP5 DUP6 ADD SWAP5 PUSH1 0x1 SWAP4 DUP5 ADD SWAP4 SWAP1 SWAP2 ADD SWAP1 PUSH2 0x169A JUMP JUMPDEST CALLVALUE PUSH2 0x825 JUMPI PUSH1 0x20 CALLDATASIZE PUSH1 0x3 NOT ADD SLT PUSH2 0x825 JUMPI PUSH1 0x12 SLOAD PUSH2 0x16FA SWAP1 CALLER PUSH1 0x1 PUSH1 0x1 PUSH1 0xA0 SHL SUB SWAP2 DUP3 AND EQ SWAP1 DUP2 ISZERO PUSH2 0xF26 JUMPI POP PUSH2 0x2641 JUMP JUMPDEST PUSH1 0x4 CALLDATALOAD PUSH1 0x10 SSTORE STOP JUMPDEST CALLVALUE PUSH2 0x825 JUMPI PUSH1 0x60 CALLDATASIZE PUSH1 0x3 NOT ADD SLT PUSH2 0x825 JUMPI PUSH1 0x24 CALLDATALOAD PUSH1 0x1 PUSH1 0x1 PUSH1 0x40 SHL SUB DUP2 GT PUSH2 0x825 JUMPI PUSH2 0x1732 SWAP1 CALLDATASIZE SWAP1 PUSH1 0x4 ADD PUSH2 0x2347 JUMP JUMPDEST PUSH1 0x4 CALLDATALOAD PUSH0 MSTORE PUSH0 PUSH1 0x20 MSTORE PUSH2 0x174D PUSH1 0x2 PUSH1 0x40 PUSH0 KECCAK256 ADD SLOAD ISZERO ISZERO PUSH2 0x25C3 JUMP JUMPDEST PUSH2 0x178C PUSH0 PUSH1 0x1 DUP1 PUSH1 0xA0 SHL SUB PUSH1 0xD SLOAD AND PUSH1 0x4 CALLDATALOAD DUP3 MSTORE DUP2 PUSH1 0x20 MSTORE PUSH1 0x40 DUP3 KECCAK256 SWAP1 PUSH1 0x40 MLOAD DUP1 DUP1 SWAP6 DUP2 SWAP5 PUSH3 0x6E7C31 PUSH1 0xE9 SHL DUP4 MSTORE PUSH1 0x20 PUSH1 0x4 DUP5 ADD MSTORE PUSH1 0x24 DUP4 ADD SWAP1 PUSH2 0x2445 JUMP JUMPDEST SUB SWAP2 GAS STATICCALL SWAP1 DUP2 ISZERO PUSH2 0x831 JUMPI PUSH0 SWAP2 PUSH2 0x1CAD JUMPI JUMPDEST POP PUSH1 0x44 CALLDATALOAD SWAP2 PUSH1 0x1 DUP4 GT ISZERO PUSH2 0x1C69 JUMPI PUSH2 0x17BA PUSH1 0x8 SLOAD DUP4 MLOAD SWAP1 PUSH2 0x260B JUMP JUMPDEST DUP4 GT PUSH2 0x1C29 JUMPI PUSH1 0x4 CALLDATALOAD PUSH0 MSTORE PUSH1 0xB PUSH1 0x20 MSTORE PUSH1 0x40 PUSH0 KECCAK256 CALLER PUSH0 MSTORE PUSH1 0x20 MSTORE PUSH1 0xFF PUSH1 0x40 PUSH0 KECCAK256 SLOAD AND PUSH2 0x1BDA JUMPI PUSH2 0x184A SWAP2 PUSH1 0x4 CALLDATALOAD PUSH0 MSTORE PUSH1 0xB PUSH1 0x20 MSTORE PUSH1 0x40 PUSH0 KECCAK256 CALLER PUSH0 MSTORE PUSH1 0x20 MSTORE PUSH1 0x40 PUSH0 KECCAK256 PUSH1 0x1 PUSH1 0xFF NOT DUP3 SLOAD AND OR SWAP1 SSTORE PUSH1 0x20 PUSH1 0x1 DUP1 PUSH1 0xA0 SHL SUB PUSH1 0xE SLOAD AND PUSH1 0x4 CALLDATALOAD PUSH0 MSTORE PUSH0 DUP3 MSTORE PUSH1 0x40 PUSH0 KECCAK256 SWAP1 PUSH1 0x40 MLOAD DUP1 DUP1 SWAP8 DUP2 SWAP5 PUSH4 0x2B5DF59 PUSH1 0xE0 SHL DUP4 MSTORE CALLER PUSH1 0x4 DUP5 ADD MSTORE PUSH1 0x40 PUSH1 0x24 DUP5 ADD MSTORE PUSH1 0x44 DUP4 ADD SWAP1 PUSH2 0x2445 JUMP JUMPDEST SUB SWAP2 GAS STATICCALL SWAP3 DUP4 ISZERO PUSH2 0x831 JUMPI PUSH0 SWAP4 PUSH2 0x1BA6 JUMPI JUMPDEST POP PUSH1 0x8 SLOAD SWAP1 DUP2 DUP6 GT PUSH2 0x1B82 JUMPI POP PUSH0 NOT SWAP1 DUP5 DUP3 ADD DUP6 DUP2 GT PUSH2 0x526 JUMPI LT ISZERO PUSH2 0x766 JUMPI PUSH2 0x189A PUSH2 0x6BA SWAP2 PUSH1 0x8 PUSH0 MSTORE DUP6 PUSH1 0x20 PUSH0 KECCAK256 ADD ADD PUSH1 0x40 MLOAD SWAP3 DUP4 DUP1 SWAP3 PUSH2 0x2445 JUMP JUMPDEST PUSH1 0x40 MLOAD SWAP4 PUSH2 0x18A7 DUP6 PUSH2 0x22BA JUMP JUMPDEST CALLER DUP6 MSTORE PUSH1 0x20 DUP6 ADD SWAP1 DUP4 DUP3 MSTORE PUSH1 0x40 DUP7 ADD MSTORE DUP2 PUSH1 0x60 DUP7 ADD MSTORE DUP4 PUSH1 0x80 DUP7 ADD MSTORE PUSH1 0x6 SLOAD PUSH0 MSTORE PUSH1 0x5 PUSH1 0x20 MSTORE PUSH1 0x40 PUSH0 KECCAK256 SWAP1 PUSH1 0x1 DUP1 PUSH1 0xA0 SHL SUB DUP7 MLOAD AND PUSH1 0x1 DUP1 PUSH1 0xA0 SHL SUB NOT DUP4 SLOAD AND OR DUP3 SSTORE MLOAD DUP1 MLOAD PUSH1 0x1 PUSH1 0x1 PUSH1 0x40 SHL SUB DUP2 GT PUSH2 0x5B7 JUMPI DUP1 PUSH1 0x1 DUP5 ADD SWAP3 PUSH2 0x1915 DUP3 PUSH2 0x190F DUP7 SLOAD PUSH2 0x240D JUMP JUMPDEST DUP7 PUSH2 0x2572 JUMP JUMPDEST PUSH1 0x20 SWAP1 PUSH1 0x1F DUP4 GT PUSH1 0x1 EQ PUSH2 0x1B1E JUMPI PUSH0 SWAP3 PUSH2 0x1B13 JUMPI JUMPDEST POP POP DUP2 PUSH1 0x1 SHL SWAP2 PUSH0 NOT SWAP1 PUSH1 0x3 SHL SHR NOT AND OR SWAP1 SSTORE JUMPDEST PUSH1 0x40 DUP6 ADD MLOAD PUSH1 0x2 DUP3 ADD SSTORE PUSH1 0x60 DUP6 ADD MLOAD SWAP5 DUP6 MLOAD PUSH1 0x1 PUSH1 0x1 PUSH1 0x40 SHL SUB DUP2 GT PUSH2 0x5B7 JUMPI PUSH2 0x1978 DUP2 PUSH2 0x196F PUSH1 0x3 DUP7 ADD SLOAD PUSH2 0x240D JUMP JUMPDEST PUSH1 0x3 DUP7 ADD PUSH2 0x2572 JUMP JUMPDEST PUSH1 0x20 PUSH1 0x1F DUP3 GT PUSH1 0x1 EQ PUSH2 0x1A7A JUMPI PUSH1 0x80 PUSH32 0xDF5898210DFD85B69A1551C8EC0BB02719A41F3283EADD1145B9BFFC9F2E1730 SWAP6 SWAP4 DUP4 PUSH2 0x1A3A SWAP7 SWAP5 PUSH1 0x4 SWAP5 PUSH2 0x1A55 SWAP13 PUSH0 SWAP3 PUSH2 0x1A6F JUMPI JUMPDEST POP POP DUP2 PUSH1 0x1 SHL SWAP2 PUSH0 NOT SWAP1 PUSH1 0x3 SHL SHR NOT AND OR PUSH1 0x3 DUP6 ADD SSTORE JUMPDEST ADD MLOAD SWAP2 ADD SSTORE PUSH1 0x4 CALLDATALOAD PUSH0 MSTORE PUSH1 0x7 PUSH1 0x20 MSTORE PUSH2 0x19F4 PUSH1 0x40 PUSH0 KECCAK256 PUSH1 0x6 SLOAD SWAP1 PUSH2 0x2537 JUMP JUMPDEST PUSH2 0x1A4D PUSH1 0x6 SLOAD SWAP6 DUP7 SWAP6 PUSH1 0x40 MLOAD SWAP5 DUP6 SWAP5 CALLER PUSH1 0x4 CALLDATALOAD DUP11 PUSH32 0x953DE3727DE1848EA7329BEE97A44132BDD8271D8D663EB90BC2772F21541EC8 PUSH0 DUP1 LOG4 PUSH1 0x60 DUP7 MSTORE PUSH1 0x60 DUP7 ADD SWAP1 PUSH2 0x23E8 JUMP JUMPDEST SWAP2 PUSH1 0x20 DUP6 ADD MSTORE DUP4 DUP3 SUB PUSH1 0x40 DUP6 ADD MSTORE PUSH2 0x23E8 JUMP JUMPDEST SUB SWAP1 LOG2 PUSH2 0x25B5 JUMP JUMPDEST DUP1 PUSH1 0x6 SSTORE PUSH0 NOT DUP2 ADD SWAP1 DUP2 GT PUSH2 0x526 JUMPI PUSH1 0x20 SWAP1 PUSH1 0x40 MLOAD SWAP1 DUP2 MSTORE RETURN JUMPDEST ADD MLOAD SWAP1 POP DUP13 DUP1 PUSH2 0x19BE JUMP JUMPDEST PUSH1 0x3 DUP5 ADD PUSH0 MSTORE PUSH1 0x20 PUSH0 KECCAK256 SWAP8 PUSH0 JUMPDEST PUSH1 0x1F NOT DUP5 AND DUP2 LT PUSH2 0x1AFB JUMPI POP PUSH32 0xDF5898210DFD85B69A1551C8EC0BB02719A41F3283EADD1145B9BFFC9F2E1730 SWAP6 SWAP4 PUSH1 0x1 DUP5 PUSH2 0x1A55 SWAP12 PUSH1 0x4 SWAP6 PUSH1 0x80 SWAP6 PUSH2 0x1A3A SWAP11 SWAP9 PUSH1 0x1F NOT DUP2 AND LT PUSH2 0x1AE3 JUMPI JUMPDEST POP POP POP DUP2 SHL ADD PUSH1 0x3 DUP6 ADD SSTORE PUSH2 0x19D5 JUMP JUMPDEST ADD MLOAD PUSH0 NOT PUSH1 0xF8 DUP5 PUSH1 0x3 SHL AND SHR NOT AND SWAP1 SSTORE DUP13 DUP1 DUP1 PUSH2 0x1AD3 JUMP JUMPDEST DUP3 DUP3 ADD MLOAD DUP11 SSTORE PUSH1 0x1 SWAP1 SWAP10 ADD SWAP9 PUSH1 0x20 SWAP3 DUP4 ADD SWAP3 ADD PUSH2 0x1A87 JUMP JUMPDEST ADD MLOAD SWAP1 POP DUP9 DUP1 PUSH2 0x192A JUMP JUMPDEST PUSH0 DUP6 DUP2 MSTORE PUSH1 0x20 DUP2 KECCAK256 SWAP4 POP PUSH1 0x1F NOT DUP6 AND SWAP1 JUMPDEST DUP2 DUP2 LT PUSH2 0x1B6A JUMPI POP SWAP1 DUP5 PUSH1 0x1 SWAP6 SWAP5 SWAP4 SWAP3 LT PUSH2 0x1B52 JUMPI JUMPDEST POP POP POP DUP2 SHL ADD SWAP1 SSTORE PUSH2 0x193E JUMP JUMPDEST ADD MLOAD PUSH0 NOT PUSH1 0xF8 DUP5 PUSH1 0x3 SHL AND SHR NOT AND SWAP1 SSTORE DUP9 DUP1 DUP1 PUSH2 0x1B45 JUMP JUMPDEST SWAP3 SWAP4 PUSH1 0x20 PUSH1 0x1 DUP2 SWAP3 DUP8 DUP7 ADD MLOAD DUP2 SSTORE ADD SWAP6 ADD SWAP4 ADD PUSH2 0x1B2F JUMP JUMPDEST SWAP1 DUP5 SUB DUP5 DUP2 GT PUSH2 0x526 JUMPI PUSH0 NOT DUP2 ADD SWAP1 DUP2 GT PUSH2 0x526 JUMPI PUSH2 0x1BA0 SWAP2 PUSH2 0x2618 JUMP JUMPDEST MLOAD PUSH2 0x189A JUMP JUMPDEST SWAP1 SWAP3 POP PUSH1 0x20 DUP2 RETURNDATASIZE PUSH1 0x20 GT PUSH2 0x1BD2 JUMPI JUMPDEST DUP2 PUSH2 0x1BC2 PUSH1 0x20 SWAP4 DUP4 PUSH2 0x230B JUMP JUMPDEST DUP2 ADD SUB SLT PUSH2 0x825 JUMPI MLOAD SWAP2 DUP5 PUSH2 0x185C JUMP JUMPDEST RETURNDATASIZE SWAP2 POP PUSH2 0x1BB5 JUMP JUMPDEST PUSH1 0x40 MLOAD PUSH3 0x461BCD PUSH1 0xE5 SHL DUP2 MSTORE PUSH1 0x20 PUSH1 0x4 DUP3 ADD MSTORE PUSH1 0x21 PUSH1 0x24 DUP3 ADD MSTORE PUSH32 0x596F7527766520616C7265616479207265766965776564207468697320706F73 PUSH1 0x44 DUP3 ADD MSTORE PUSH1 0x1D PUSH1 0xFA SHL PUSH1 0x64 DUP3 ADD MSTORE PUSH1 0x84 SWAP1 REVERT JUMPDEST PUSH1 0x40 MLOAD PUSH3 0x461BCD PUSH1 0xE5 SHL DUP2 MSTORE PUSH1 0x20 PUSH1 0x4 DUP3 ADD MSTORE PUSH1 0x18 PUSH1 0x24 DUP3 ADD MSTORE PUSH24 0x436F6E73656E736F7573204E6F7420496E20426F756E6473 PUSH1 0x40 SHL PUSH1 0x44 DUP3 ADD MSTORE PUSH1 0x64 SWAP1 REVERT JUMPDEST PUSH1 0x64 PUSH1 0x40 MLOAD PUSH3 0x461BCD PUSH1 0xE5 SHL DUP2 MSTORE PUSH1 0x20 PUSH1 0x4 DUP3 ADD MSTORE PUSH1 0x20 PUSH1 0x24 DUP3 ADD MSTORE PUSH32 0x436F6E73656E736F7573206D75732062652067726561746572207468616E2031 PUSH1 0x44 DUP3 ADD MSTORE REVERT JUMPDEST RETURNDATASIZE SWAP2 POP DUP2 PUSH0 DUP3 RETURNDATACOPY PUSH2 0x1CBE DUP3 DUP3 PUSH2 0x230B JUMP JUMPDEST PUSH1 0x20 DUP2 DUP4 DUP2 ADD SUB SLT PUSH2 0x825 JUMPI DUP1 MLOAD PUSH1 0x1 PUSH1 0x1 PUSH1 0x40 SHL SUB DUP2 GT PUSH2 0x825 JUMPI DUP3 DUP3 ADD PUSH1 0x1F DUP3 DUP5 ADD ADD SLT ISZERO PUSH2 0x825 JUMPI DUP1 DUP3 ADD MLOAD SWAP1 PUSH2 0x1CF7 DUP3 PUSH2 0x2508 JUMP JUMPDEST SWAP4 PUSH2 0x1D05 PUSH1 0x40 MLOAD SWAP6 DUP7 PUSH2 0x230B JUMP JUMPDEST DUP3 DUP6 MSTORE PUSH1 0x20 DUP6 ADD SWAP1 DUP1 DUP6 ADD PUSH1 0x20 DUP6 PUSH1 0x5 SHL DUP6 DUP9 ADD ADD ADD GT PUSH2 0x825 JUMPI PUSH1 0x20 DUP4 DUP7 ADD ADD SWAP2 JUMPDEST PUSH1 0x20 DUP6 PUSH1 0x5 SHL DUP6 DUP9 ADD ADD ADD DUP4 LT PUSH2 0x1D45 JUMPI POP POP POP POP POP POP DUP3 PUSH2 0x179E JUMP JUMPDEST DUP3 MLOAD PUSH1 0x1 PUSH1 0x1 PUSH1 0x40 SHL SUB DUP2 GT PUSH2 0x825 JUMPI DUP3 DUP8 ADD PUSH1 0x3F DUP3 DUP8 DUP11 ADD ADD ADD SLT ISZERO PUSH2 0x825 JUMPI PUSH1 0x20 DUP2 DUP7 DUP10 ADD ADD ADD MLOAD PUSH2 0x1D78 DUP2 PUSH2 0x232C JUMP JUMPDEST SWAP3 PUSH2 0x1D86 PUSH1 0x40 MLOAD SWAP5 DUP6 PUSH2 0x230B JUMP JUMPDEST DUP2 DUP5 MSTORE DUP5 DUP10 ADD PUSH1 0x40 DUP4 DUP6 DUP11 DUP14 ADD ADD ADD ADD GT PUSH2 0x825 JUMPI DUP4 PUSH2 0x1DB6 PUSH1 0x20 SWAP6 SWAP4 DUP12 PUSH1 0x40 DUP9 SWAP8 DUP13 DUP10 DUP1 SWAP10 ADD SWAP4 ADD ADD ADD PUSH2 0x23C7 JUMP JUMPDEST DUP2 MSTORE ADD SWAP4 ADD SWAP3 SWAP1 POP PUSH2 0x1D28 JUMP JUMPDEST CALLVALUE PUSH2 0x825 JUMPI PUSH1 0x20 CALLDATASIZE PUSH1 0x3 NOT ADD SLT PUSH2 0x825 JUMPI PUSH2 0x1DDC PUSH2 0x22A4 JUMP JUMPDEST PUSH1 0x12 SLOAD PUSH1 0x1 PUSH1 0x1 PUSH1 0xA0 SHL SUB SWAP2 SWAP1 DUP3 AND CALLER EQ DUP1 ISZERO PUSH2 0x1E12 JUMPI JUMPDEST PUSH2 0x1DFD SWAP1 PUSH2 0x2641 JUMP JUMPDEST AND PUSH1 0x1 DUP1 PUSH1 0xA0 SHL SUB NOT PUSH1 0xC SLOAD AND OR PUSH1 0xC SSTORE PUSH0 DUP1 RETURN JUMPDEST POP PUSH1 0xC SLOAD DUP3 AND CALLER EQ PUSH2 0x1DF4 JUMP JUMPDEST CALLVALUE PUSH2 0x825 JUMPI PUSH0 CALLDATASIZE PUSH1 0x3 NOT ADD SLT PUSH2 0x825 JUMPI PUSH1 0x20 PUSH1 0x11 SLOAD PUSH1 0x40 MLOAD SWAP1 DUP2 MSTORE RETURN JUMPDEST CALLVALUE PUSH2 0x825 JUMPI PUSH0 CALLDATASIZE PUSH1 0x3 NOT ADD SLT PUSH2 0x825 JUMPI PUSH1 0xD SLOAD PUSH1 0x40 MLOAD PUSH1 0x1 PUSH1 0x1 PUSH1 0xA0 SHL SUB SWAP1 SWAP2 AND DUP2 MSTORE PUSH1 0x20 SWAP1 RETURN JUMPDEST CALLVALUE PUSH2 0x825 JUMPI PUSH1 0x20 DUP1 PUSH1 0x3 NOT CALLDATASIZE ADD SLT PUSH2 0x825 JUMPI PUSH1 0x1 PUSH1 0x1 PUSH1 0x40 SHL SUB SWAP1 PUSH1 0x4 CALLDATALOAD DUP3 DUP2 GT PUSH2 0x825 JUMPI CALLDATASIZE PUSH1 0x23 DUP3 ADD SLT ISZERO PUSH2 0x825 JUMPI DUP1 PUSH1 0x4 ADD CALLDATALOAD SWAP3 DUP4 GT PUSH2 0x825 JUMPI DUP3 DUP2 ADD PUSH1 0x24 SWAP4 CALLDATASIZE DUP6 DUP4 ADD GT PUSH2 0x825 JUMPI PUSH1 0x12 SLOAD DUP5 SWAP2 SWAP1 PUSH2 0x1ED3 SWAP1 CALLER PUSH1 0x1 PUSH1 0x1 PUSH1 0xA0 SHL SUB SWAP2 DUP3 AND EQ SWAP1 DUP2 ISZERO PUSH2 0xE18 JUMPI POP PUSH2 0x2641 JUMP JUMPDEST EQ PUSH2 0x1EDA JUMPI STOP JUMPDEST DUP2 DUP4 SWAP2 SUB SLT PUSH2 0x825 JUMPI DUP3 ADD CALLDATALOAD SWAP1 PUSH0 DUP3 SGT ISZERO PUSH2 0x216E JUMPI PUSH1 0x1 JUMPDEST DUP3 ISZERO ISZERO DUP1 PUSH2 0x2148 JUMPI JUMPDEST DUP1 PUSH2 0x2132 JUMPI JUMPDEST DUP1 PUSH2 0x211E JUMPI JUMPDEST PUSH2 0x1F0D JUMPI STOP JUMPDEST PUSH1 0x1 SWAP1 ISZERO ISZERO DUP2 SUB PUSH2 0x20CD JUMPI PUSH1 0x8 SLOAD DUP2 LT ISZERO PUSH2 0x20BA JUMPI PUSH32 0x3ED188EDBA0C6B2D9B7A54CEC2942F1CAB56A63A4DCFDCA5FF11706FFDF25B1E DUP4 SWAP2 PUSH1 0x8 PUSH0 MSTORE PUSH2 0x1F62 DUP2 DUP6 PUSH0 KECCAK256 ADD DUP5 PUSH0 MSTORE PUSH0 DUP7 MSTORE DUP3 PUSH1 0x40 PUSH0 KECCAK256 ADD PUSH2 0x26AC JUMP JUMPDEST DUP3 PUSH0 MSTORE DUP1 DUP5 MSTORE PUSH1 0x40 PUSH0 KECCAK256 SLOAD SWAP1 PUSH0 DUP6 MSTORE PUSH1 0x40 PUSH0 KECCAK256 ADD SWAP1 PUSH2 0x1F92 PUSH1 0x40 MLOAD SWAP3 DUP4 SWAP3 DUP4 MSTORE PUSH1 0x40 DUP8 DUP5 ADD MSTORE PUSH1 0x40 DUP4 ADD SWAP1 PUSH2 0x2445 JUMP JUMPDEST SUB SWAP1 LOG2 DUP2 PUSH0 MSTORE PUSH1 0xA DUP2 MSTORE PUSH1 0x40 PUSH0 KECCAK256 SLOAD SWAP1 PUSH1 0x9 SLOAD SWAP3 PUSH0 NOT SWAP4 DUP5 DUP2 ADD SWAP1 DUP2 GT PUSH2 0x20A7 JUMPI DUP1 DUP5 SUB PUSH2 0x2004 JUMPI JUMPDEST POP PUSH1 0xA SWAP3 POP PUSH0 MSTORE MSTORE PUSH0 PUSH1 0x40 DUP2 KECCAK256 SSTORE PUSH1 0x9 SLOAD DUP1 ISZERO PUSH2 0x1FF1 JUMPI DUP2 ADD SWAP2 POP PUSH2 0x1FDF DUP3 PUSH2 0x2277 JUMP JUMPDEST SWAP1 SWAP2 DUP3 SLOAD SWAP2 PUSH1 0x3 SHL SHL NOT AND SWAP1 SSTORE PUSH1 0x9 SSTORE STOP JUMPDEST DUP3 PUSH4 0x4E487B71 PUSH1 0xE0 SHL PUSH0 MSTORE PUSH1 0x31 PUSH1 0x4 MSTORE PUSH0 REVERT JUMPDEST PUSH2 0x2010 PUSH2 0x2038 SWAP2 PUSH2 0x2277 JUMP JUMPDEST SWAP1 SLOAD PUSH2 0x201B DUP7 PUSH2 0x2277 JUMP JUMPDEST SWAP2 SWAP1 SWAP3 PUSH1 0x3 SHL SHR SWAP1 DUP3 SLOAD SWAP1 PUSH1 0x3 SHL SWAP2 DUP3 SHL SWAP2 PUSH0 NOT SWAP1 SHL NOT AND OR SWAP1 SSTORE JUMP JUMPDEST PUSH1 0x9 SLOAD SWAP3 DUP5 DUP5 ADD SWAP4 DUP5 GT PUSH2 0x20A7 JUMPI PUSH1 0x40 PUSH32 0x2F5A4EE168DCA9EAEF284F1844A3D24D74BA63A5FCCC947454FC07515C8B3774 SWAP2 PUSH2 0x2075 PUSH1 0xA SWAP7 PUSH2 0x2277 JUMP JUMPDEST SWAP1 SLOAD SWAP1 PUSH1 0x3 SHL SHR PUSH0 MSTORE DUP6 DUP6 MSTORE DUP1 DUP3 PUSH0 KECCAK256 SSTORE PUSH2 0x208F DUP2 PUSH2 0x2277 JUMP JUMPDEST SWAP1 SLOAD SWAP1 PUSH1 0x3 SHL SHR SWAP1 DUP3 MLOAD SWAP2 DUP3 MSTORE DUP6 DUP3 ADD MSTORE LOG1 DUP6 PUSH2 0x1FBB JUMP JUMPDEST DUP6 PUSH4 0x4E487B71 PUSH1 0xE0 SHL PUSH0 MSTORE PUSH1 0x11 PUSH1 0x4 MSTORE PUSH0 REVERT JUMPDEST DUP4 PUSH4 0x4E487B71 PUSH1 0xE0 SHL PUSH0 MSTORE PUSH1 0x32 PUSH1 0x4 MSTORE PUSH0 REVERT JUMPDEST PUSH1 0x8 SLOAD PUSH1 0x2 LT ISZERO PUSH2 0x20BA JUMPI PUSH32 0x3ED188EDBA0C6B2D9B7A54CEC2942F1CAB56A63A4DCFDCA5FF11706FFDF25B1E DUP4 SWAP2 PUSH1 0x8 PUSH0 MSTORE PUSH2 0x2119 PUSH1 0x2 DUP6 PUSH0 KECCAK256 ADD DUP5 PUSH0 MSTORE PUSH0 DUP7 MSTORE DUP3 PUSH1 0x40 PUSH0 KECCAK256 ADD PUSH2 0x26AC JUMP JUMPDEST PUSH2 0x1F62 JUMP JUMPDEST POP DUP3 PUSH0 MSTORE PUSH1 0xA DUP3 MSTORE PUSH1 0x40 PUSH0 KECCAK256 SLOAD ISZERO ISZERO PUSH2 0x1F07 JUMP JUMPDEST POP DUP3 PUSH0 MSTORE PUSH0 DUP3 MSTORE PUSH1 0x2 PUSH1 0x40 PUSH0 KECCAK256 ADD SLOAD ISZERO ISZERO PUSH2 0x1F01 JUMP JUMPDEST POP DUP3 PUSH0 MSTORE PUSH0 DUP3 MSTORE PUSH2 0x2166 PUSH1 0x40 PUSH0 KECCAK256 PUSH1 0x3 PUSH1 0x2 DUP3 ADD SLOAD SWAP2 ADD SLOAD SWAP1 PUSH2 0x260B JUMP JUMPDEST TIMESTAMP LT ISZERO PUSH2 0x1EFB JUMP JUMPDEST PUSH0 SWAP2 PUSH1 0x1 PUSH1 0xFF SHL DUP2 EQ PUSH2 0x2183 JUMPI PUSH0 SUB SWAP2 PUSH2 0x1EF2 JUMP JUMPDEST DUP4 PUSH4 0x4E487B71 PUSH1 0xE0 SHL PUSH0 MSTORE PUSH1 0x11 PUSH1 0x4 MSTORE PUSH0 REVERT JUMPDEST CALLVALUE PUSH2 0x825 JUMPI PUSH0 CALLDATASIZE PUSH1 0x3 NOT ADD SLT PUSH2 0x825 JUMPI PUSH1 0x20 PUSH1 0x10 SLOAD PUSH1 0x40 MLOAD SWAP1 DUP2 MSTORE RETURN JUMPDEST CALLVALUE PUSH2 0x825 JUMPI PUSH1 0x20 CALLDATASIZE PUSH1 0x3 NOT ADD SLT PUSH2 0x825 JUMPI PUSH2 0x21CC PUSH2 0x22A4 JUMP JUMPDEST PUSH1 0x12 SLOAD PUSH1 0x1 PUSH1 0x1 PUSH1 0xA0 SHL SUB SWAP2 SWAP1 DUP3 AND CALLER EQ DUP1 ISZERO PUSH2 0x2202 JUMPI JUMPDEST PUSH2 0x21ED SWAP1 PUSH2 0x2641 JUMP JUMPDEST AND PUSH1 0x1 DUP1 PUSH1 0xA0 SHL SUB NOT PUSH1 0xE SLOAD AND OR PUSH1 0xE SSTORE PUSH0 DUP1 RETURN JUMPDEST POP PUSH1 0xC SLOAD DUP3 AND CALLER EQ PUSH2 0x21E4 JUMP JUMPDEST CALLVALUE PUSH2 0x825 JUMPI PUSH2 0x221D CALLDATASIZE PUSH2 0x2261 JUMP JUMPDEST SWAP1 PUSH0 MSTORE PUSH1 0x7 PUSH1 0x20 MSTORE PUSH1 0x40 PUSH0 KECCAK256 DUP1 SLOAD DUP3 LT ISZERO PUSH2 0x825 JUMPI PUSH1 0x20 SWAP2 PUSH2 0x980 SWAP2 PUSH2 0x228F JUMP JUMPDEST CALLVALUE PUSH2 0x825 JUMPI PUSH0 CALLDATASIZE PUSH1 0x3 NOT ADD SLT PUSH2 0x825 JUMPI PUSH1 0xF SLOAD PUSH1 0x1 PUSH1 0x1 PUSH1 0xA0 SHL SUB AND DUP2 MSTORE PUSH1 0x20 SWAP1 RETURN JUMPDEST PUSH1 0x40 SWAP1 PUSH1 0x3 NOT ADD SLT PUSH2 0x825 JUMPI PUSH1 0x4 CALLDATALOAD SWAP1 PUSH1 0x24 CALLDATALOAD SWAP1 JUMP JUMPDEST PUSH1 0x9 SLOAD DUP2 LT ISZERO PUSH2 0x766 JUMPI PUSH1 0x9 PUSH0 MSTORE PUSH1 0x20 PUSH0 KECCAK256 ADD SWAP1 PUSH0 SWAP1 JUMP JUMPDEST DUP1 SLOAD DUP3 LT ISZERO PUSH2 0x766 JUMPI PUSH0 MSTORE PUSH1 0x20 PUSH0 KECCAK256 ADD SWAP1 PUSH0 SWAP1 JUMP JUMPDEST PUSH1 0x4 CALLDATALOAD SWAP1 PUSH1 0x1 PUSH1 0x1 PUSH1 0xA0 SHL SUB DUP3 AND DUP3 SUB PUSH2 0x825 JUMPI JUMP JUMPDEST PUSH1 0xA0 DUP2 ADD SWAP1 DUP2 LT PUSH1 0x1 PUSH1 0x1 PUSH1 0x40 SHL SUB DUP3 GT OR PUSH2 0x5B7 JUMPI PUSH1 0x40 MSTORE JUMP JUMPDEST PUSH1 0x80 DUP2 ADD SWAP1 DUP2 LT PUSH1 0x1 PUSH1 0x1 PUSH1 0x40 SHL SUB DUP3 GT OR PUSH2 0x5B7 JUMPI PUSH1 0x40 MSTORE JUMP JUMPDEST PUSH1 0x40 DUP2 ADD SWAP1 DUP2 LT PUSH1 0x1 PUSH1 0x1 PUSH1 0x40 SHL SUB DUP3 GT OR PUSH2 0x5B7 JUMPI PUSH1 0x40 MSTORE JUMP JUMPDEST SWAP1 PUSH1 0x1F DUP1 NOT SWAP2 ADD AND DUP2 ADD SWAP1 DUP2 LT PUSH1 0x1 PUSH1 0x1 PUSH1 0x40 SHL SUB DUP3 GT OR PUSH2 0x5B7 JUMPI PUSH1 0x40 MSTORE JUMP JUMPDEST PUSH1 0x1 PUSH1 0x1 PUSH1 0x40 SHL SUB DUP2 GT PUSH2 0x5B7 JUMPI PUSH1 0x1F ADD PUSH1 0x1F NOT AND PUSH1 0x20 ADD SWAP1 JUMP JUMPDEST DUP2 PUSH1 0x1F DUP3 ADD SLT ISZERO PUSH2 0x825 JUMPI DUP1 CALLDATALOAD SWAP1 PUSH2 0x235E DUP3 PUSH2 0x232C JUMP JUMPDEST SWAP3 PUSH2 0x236C PUSH1 0x40 MLOAD SWAP5 DUP6 PUSH2 0x230B JUMP JUMPDEST DUP3 DUP5 MSTORE PUSH1 0x20 DUP4 DUP4 ADD ADD GT PUSH2 0x825 JUMPI DUP2 PUSH0 SWAP3 PUSH1 0x20 DUP1 SWAP4 ADD DUP4 DUP7 ADD CALLDATACOPY DUP4 ADD ADD MSTORE SWAP1 JUMP JUMPDEST PUSH1 0x20 SWAP1 DUP2 PUSH1 0x40 DUP2 DUP4 ADD SWAP3 DUP3 DUP2 MSTORE DUP6 MLOAD DUP1 SWAP5 MSTORE ADD SWAP4 ADD SWAP2 PUSH0 JUMPDEST DUP3 DUP2 LT PUSH2 0x23B3 JUMPI POP POP POP POP SWAP1 JUMP JUMPDEST DUP4 MLOAD DUP6 MSTORE SWAP4 DUP2 ADD SWAP4 SWAP3 DUP2 ADD SWAP3 PUSH1 0x1 ADD PUSH2 0x23A5 JUMP JUMPDEST PUSH0 JUMPDEST DUP4 DUP2 LT PUSH2 0x23D8 JUMPI POP POP PUSH0 SWAP2 ADD MSTORE JUMP JUMPDEST DUP2 DUP2 ADD MLOAD DUP4 DUP3 ADD MSTORE PUSH1 0x20 ADD PUSH2 0x23C9 JUMP JUMPDEST SWAP1 PUSH1 0x20 SWAP2 PUSH2 0x2401 DUP2 MLOAD DUP1 SWAP3 DUP2 DUP6 MSTORE DUP6 DUP1 DUP7 ADD SWAP2 ADD PUSH2 0x23C7 JUMP JUMPDEST PUSH1 0x1F ADD PUSH1 0x1F NOT AND ADD ADD SWAP1 JUMP JUMPDEST SWAP1 PUSH1 0x1 DUP3 DUP2 SHR SWAP3 AND DUP1 ISZERO PUSH2 0x243B JUMPI JUMPDEST PUSH1 0x20 DUP4 LT EQ PUSH2 0x2427 JUMPI JUMP JUMPDEST PUSH4 0x4E487B71 PUSH1 0xE0 SHL PUSH0 MSTORE PUSH1 0x22 PUSH1 0x4 MSTORE PUSH1 0x24 PUSH0 REVERT JUMPDEST SWAP2 PUSH1 0x7F AND SWAP2 PUSH2 0x241C JUMP JUMPDEST SWAP1 PUSH0 SWAP3 SWAP2 DUP1 SLOAD SWAP2 PUSH2 0x2455 DUP4 PUSH2 0x240D JUMP JUMPDEST SWAP2 DUP3 DUP3 MSTORE PUSH1 0x1 SWAP4 DUP5 DUP2 AND SWAP1 DUP2 PUSH0 EQ PUSH2 0x24B3 JUMPI POP PUSH1 0x1 EQ PUSH2 0x2476 JUMPI JUMPDEST POP POP POP POP JUMP JUMPDEST SWAP1 SWAP2 SWAP4 SWAP5 POP PUSH0 MSTORE PUSH1 0x20 SWAP3 DUP4 PUSH0 KECCAK256 SWAP3 DUP5 PUSH0 SWAP5 JUMPDEST DUP4 DUP7 LT PUSH2 0x249F JUMPI POP POP POP POP ADD ADD SWAP1 PUSH0 DUP1 DUP1 DUP1 PUSH2 0x2470 JUMP JUMPDEST DUP1 SLOAD DUP6 DUP8 ADD DUP4 ADD MSTORE SWAP5 ADD SWAP4 DUP6 SWAP1 DUP3 ADD PUSH2 0x2488 JUMP JUMPDEST SWAP3 SWAP5 POP POP POP PUSH1 0x20 SWAP4 SWAP5 POP PUSH1 0xFF NOT AND DUP4 DUP4 ADD MSTORE ISZERO ISZERO PUSH1 0x5 SHL ADD ADD SWAP1 PUSH0 DUP1 DUP1 DUP1 PUSH2 0x2470 JUMP JUMPDEST SWAP1 PUSH1 0x40 PUSH1 0x3 NOT DUP4 ADD SLT PUSH2 0x825 JUMPI PUSH1 0x4 CALLDATALOAD SWAP2 PUSH1 0x24 CALLDATALOAD SWAP1 PUSH1 0x1 PUSH1 0x1 PUSH1 0x40 SHL SUB DUP3 GT PUSH2 0x825 JUMPI PUSH2 0x2505 SWAP2 PUSH1 0x4 ADD PUSH2 0x2347 JUMP JUMPDEST SWAP1 JUMP JUMPDEST PUSH1 0x1 PUSH1 0x1 PUSH1 0x40 SHL SUB DUP2 GT PUSH2 0x5B7 JUMPI PUSH1 0x5 SHL PUSH1 0x20 ADD SWAP1 JUMP JUMPDEST SWAP1 DUP2 PUSH1 0x20 SWAP2 SUB SLT PUSH2 0x825 JUMPI MLOAD DUP1 ISZERO ISZERO DUP2 SUB PUSH2 0x825 JUMPI SWAP1 JUMP JUMPDEST DUP1 SLOAD SWAP2 SWAP1 PUSH1 0x1 PUSH1 0x40 SHL DUP4 LT ISZERO PUSH2 0x5B7 JUMPI DUP3 PUSH2 0x6E9 SWAP2 PUSH1 0x1 PUSH2 0x255A SWAP6 ADD DUP2 SSTORE PUSH2 0x228F JUMP JUMPDEST JUMP JUMPDEST DUP2 DUP2 LT PUSH2 0x2567 JUMPI POP POP JUMP JUMPDEST PUSH0 DUP2 SSTORE PUSH1 0x1 ADD PUSH2 0x255C JUMP JUMPDEST SWAP2 SWAP1 PUSH1 0x1F DUP2 GT PUSH2 0x2581 JUMPI POP POP POP JUMP JUMPDEST PUSH2 0x255A SWAP3 PUSH0 MSTORE PUSH1 0x20 PUSH0 KECCAK256 SWAP1 PUSH1 0x20 PUSH1 0x1F DUP5 ADD PUSH1 0x5 SHR DUP4 ADD SWAP4 LT PUSH2 0x25AB JUMPI JUMPDEST PUSH1 0x1F ADD PUSH1 0x5 SHR ADD SWAP1 PUSH2 0x255C JUMP JUMPDEST SWAP1 SWAP2 POP DUP2 SWAP1 PUSH2 0x259E JUMP JUMPDEST PUSH0 NOT DUP2 EQ PUSH2 0x526 JUMPI PUSH1 0x1 ADD SWAP1 JUMP JUMPDEST ISZERO PUSH2 0x25CA JUMPI JUMP JUMPDEST PUSH1 0x40 MLOAD PUSH3 0x461BCD PUSH1 0xE5 SHL DUP2 MSTORE PUSH1 0x20 PUSH1 0x4 DUP3 ADD MSTORE PUSH1 0x19 PUSH1 0x24 DUP3 ADD MSTORE PUSH25 0x14DD589B5A5CDCDA5BDB88191BD95CC81B9BDD08195E1A5CDD PUSH1 0x3A SHL PUSH1 0x44 DUP3 ADD MSTORE PUSH1 0x64 SWAP1 REVERT JUMPDEST SWAP2 SWAP1 DUP3 ADD DUP1 SWAP3 GT PUSH2 0x526 JUMPI JUMP JUMPDEST DUP1 MLOAD DUP3 LT ISZERO PUSH2 0x766 JUMPI PUSH1 0x20 SWAP2 PUSH1 0x5 SHL ADD ADD SWAP1 JUMP JUMPDEST SWAP1 DUP2 PUSH0 SUB SWAP2 DUP1 DUP4 SDIV PUSH0 NOT EQ SWAP1 ISZERO OR ISZERO PUSH2 0x526 JUMPI JUMP JUMPDEST ISZERO PUSH2 0x2648 JUMPI JUMP JUMPDEST PUSH1 0x40 MLOAD PUSH3 0x461BCD PUSH1 0xE5 SHL DUP2 MSTORE PUSH1 0x20 PUSH1 0x4 DUP3 ADD MSTORE PUSH1 0x36 PUSH1 0x24 DUP3 ADD MSTORE PUSH32 0x4E6F742074686520636F6E7472616374206F776E6572206F72204175746F6D61 PUSH1 0x44 DUP3 ADD MSTORE PUSH22 0x1D1A5BDB88149959DA5CDD1C9E4810DBDB9D1C9858DD PUSH1 0x52 SHL PUSH1 0x64 DUP3 ADD MSTORE PUSH1 0x84 SWAP1 REVERT JUMPDEST SWAP1 DUP1 DUP3 EQ PUSH2 0x277C JUMPI PUSH2 0x26BE DUP2 SLOAD PUSH2 0x240D JUMP JUMPDEST SWAP1 PUSH1 0x1 PUSH1 0x1 PUSH1 0x40 SHL SUB DUP3 GT PUSH2 0x5B7 JUMPI DUP2 SWAP1 PUSH2 0x26DD DUP3 PUSH2 0x190F DUP7 SLOAD PUSH2 0x240D JUMP JUMPDEST PUSH0 SWAP1 PUSH1 0x1F DUP4 GT PUSH1 0x1 EQ PUSH2 0x2711 JUMPI PUSH0 SWAP3 PUSH2 0x2706 JUMPI JUMPDEST POP POP DUP2 PUSH1 0x1 SHL SWAP2 PUSH0 NOT SWAP1 PUSH1 0x3 SHL SHR NOT AND OR SWAP1 SSTORE JUMP JUMPDEST ADD SLOAD SWAP1 POP PUSH0 DUP1 PUSH2 0x26F1 JUMP JUMPDEST DUP2 MSTORE PUSH1 0x20 DUP1 DUP3 KECCAK256 DUP6 DUP4 MSTORE DUP2 DUP4 KECCAK256 SWAP4 POP SWAP1 PUSH1 0x1F NOT DUP6 AND SWAP1 DUP4 SWAP1 JUMPDEST DUP3 DUP3 LT PUSH2 0x2763 JUMPI POP POP SWAP1 DUP5 PUSH1 0x1 SWAP6 SWAP5 SWAP4 SWAP3 LT PUSH2 0x274B JUMPI JUMPDEST POP POP POP DUP2 SHL ADD SWAP1 SSTORE JUMP JUMPDEST ADD SLOAD PUSH0 NOT PUSH1 0xF8 DUP5 PUSH1 0x3 SHL AND SHR NOT AND SWAP1 SSTORE PUSH0 DUP1 DUP1 PUSH2 0x2741 JUMP JUMPDEST DUP5 SWAP6 DUP2 SWAP3 SWAP6 DUP6 ADD SLOAD DUP2 SSTORE PUSH1 0x1 DUP1 SWAP2 ADD SWAP7 ADD SWAP5 ADD SWAP1 PUSH2 0x272A JUMP JUMPDEST POP POP JUMP JUMPDEST PUSH0 DUP1 SWAP2 PUSH1 0x40 MLOAD PUSH2 0x27BB DUP2 PUSH2 0x27AD PUSH1 0x20 DUP3 ADD SWAP5 PUSH4 0x104C13EB PUSH1 0xE2 SHL DUP7 MSTORE PUSH1 0x20 PUSH1 0x24 DUP5 ADD MSTORE PUSH1 0x44 DUP4 ADD SWAP1 PUSH2 0x23E8 JUMP JUMPDEST SUB PUSH1 0x1F NOT DUP2 ADD DUP4 MSTORE DUP3 PUSH2 0x230B JUMP JUMPDEST MLOAD SWAP1 PUSH11 0x636F6E736F6C652E6C6F67 GAS STATICCALL POP JUMP INVALID LOG2 PUSH5 0x6970667358 0x22 SLT KECCAK256 AND PUSH9 0x87C5B5143F5488D1BB CALLCODE BASEFEE ADDMOD PUSH23 0xF8A2669568567B1B679BAE015F0A2C69E164736F6C6343 STOP ADDMOD EQ STOP CALLER "},"methodIdentifiers":{"ActiveSubmissions(uint256)":"ee8eb507","ActiveSubmissionsIndexes(uint256)":"93a018be","CommunityConsensusContract()":"47631adb","CommunitySubmissionToPost(uint256)":"ac97980d","CommunitySubmissions(uint256)":"c5dce24d","MembersContract()":"e1485776","PostSubmissionList(uint256,uint256)":"eeb0cf76","PostsContract()":"059597f7","checkUpKeep()":"c8249d8a","consensusFee()":"4215c5e4","csCounter()":"a5940041","getActiveSubmissions()":"bdf5db39","getActiveSubmissionsIndex(uint256)":"de78ab7c","getActiveSubmissionsLength()":"74f0c641","getCommunitySubmission(uint256)":"de8b32c5","getPostConsesous(uint256)":"ea487a92","getReview(uint256)":"990581b6","getReviewConsenous(uint256)":"b9e2fc3e","getReviewsForSubmission(uint256)":"6c79bd2b","hasReviewed(uint256,address)":"7c7198cc","maxReviews()":"4ed59812","performUpkeep(bytes)":"4585e33b","postCommunities(uint256,string)":"d3a3f771","reviewCounter()":"e168b3a8","reviews(uint256)":"e83ddcea","setAutomationRegistry(address)":"5ff2d2aa","setCommunitiesContract(address)":"ad2957ff","setFee(uint256)":"69fe0e2d","setFeeAddress(address)":"8705fcd4","setMaxReviews(uint256)":"d1a34aa3","setMembersContract(address)":"3c09203b","setPostsContract(address)":"d39065fa","setdefaultConsenousTypes(string[])":"d8db3807","submitReview(uint256,string,uint256)":"6356eea4","submitToCommunity(uint256,string)":"fa1396f5","submmisionReviews(uint256,uint256)":"1651902a"}}}}}