{
  "_format": "hh-sol-artifact-1",
  "contractName": "LaneRegistry",
  "sourceName": "contracts/LaneRegistry.sol",
  "abi": [
    {
      "inputs": [
        {
          "internalType": "address",
          "name": "_contractAddress",
          "type": "address"
        }
      ],
      "stateMutability": "nonpayable",
      "type": "constructor"
    },
    {
      "inputs": [
        {
          "internalType": "address",
          "name": "_contractAddress",
          "type": "address"
        }
      ],
      "name": "addLane",
      "outputs": [
        {
          "internalType": "uint256",
          "name": "",
          "type": "uint256"
        }
      ],
      "stateMutability": "nonpayable",
      "type": "function"
    },
    {
      "inputs": [
        {
          "internalType": "uint256",
          "name": "proposalId",
          "type": "uint256"
        }
      ],
      "name": "appendToLane",
      "outputs": [
        {
          "internalType": "uint256",
          "name": "",
          "type": "uint256"
        }
      ],
      "stateMutability": "payable",
      "type": "function"
    },
    {
      "inputs": [],
      "name": "getIntakeContractAddress",
      "outputs": [
        {
          "internalType": "address",
          "name": "",
          "type": "address"
        }
      ],
      "stateMutability": "view",
      "type": "function"
    },
    {
      "inputs": [
        {
          "internalType": "uint256",
          "name": "laneId",
          "type": "uint256"
        }
      ],
      "name": "getLaneContractAddress",
      "outputs": [
        {
          "internalType": "address",
          "name": "",
          "type": "address"
        }
      ],
      "stateMutability": "view",
      "type": "function"
    },
    {
      "inputs": [],
      "name": "intakeContract",
      "outputs": [
        {
          "internalType": "address",
          "name": "",
          "type": "address"
        }
      ],
      "stateMutability": "view",
      "type": "function"
    },
    {
      "inputs": [
        {
          "internalType": "address",
          "name": "",
          "type": "address"
        }
      ],
      "name": "laneAddresses",
      "outputs": [
        {
          "internalType": "uint256",
          "name": "",
          "type": "uint256"
        }
      ],
      "stateMutability": "view",
      "type": "function"
    },
    {
      "inputs": [],
      "name": "laneCount",
      "outputs": [
        {
          "internalType": "uint256",
          "name": "",
          "type": "uint256"
        }
      ],
      "stateMutability": "view",
      "type": "function"
    },
    {
      "inputs": [
        {
          "internalType": "uint256",
          "name": "",
          "type": "uint256"
        }
      ],
      "name": "laneMap",
      "outputs": [
        {
          "internalType": "address",
          "name": "contractAddress",
          "type": "address"
        },
        {
          "internalType": "uint256",
          "name": "laneLength",
          "type": "uint256"
        }
      ],
      "stateMutability": "view",
      "type": "function"
    },
    {
      "inputs": [],
      "name": "lowestLaneLengthId",
      "outputs": [
        {
          "internalType": "uint256",
          "name": "",
          "type": "uint256"
        }
      ],
      "stateMutability": "view",
      "type": "function"
    },
    {
      "inputs": [],
      "name": "owner",
      "outputs": [
        {
          "internalType": "address",
          "name": "",
          "type": "address"
        }
      ],
      "stateMutability": "view",
      "type": "function"
    },
    {
      "inputs": [
        {
          "internalType": "uint256",
          "name": "laneId",
          "type": "uint256"
        },
        {
          "internalType": "uint256",
          "name": "newLength",
          "type": "uint256"
        }
      ],
      "name": "reportLaneLength",
      "outputs": [],
      "stateMutability": "nonpayable",
      "type": "function"
    },
    {
      "inputs": [
        {
          "internalType": "uint256",
          "name": "",
          "type": "uint256"
        }
      ],
      "name": "zeroLengthArray",
      "outputs": [
        {
          "internalType": "uint256",
          "name": "",
          "type": "uint256"
        }
      ],
      "stateMutability": "view",
      "type": "function"
    }
  ],
  "bytecode": "0x60803461008357601f6106fd38819003918201601f19168301916001600160401b038311848410176100875780849260209460405283398101031261008357516001600160a01b038116908190036100835760018060a01b031933816003541617600355600160045560055416176005555f600655604051610661908161009c8239f35b5f80fd5b634e487b7160e01b5f52604160045260245ffdfe60806040818152600480361015610014575f80fd5b5f92833560e01c908162d36e401461042f57508063182f9fe1146103f65780632197a3841461011257806330c31870146103d75780634a55afd1146103ba5780634beff6f9146103825780635cd9f722146103035780638da5cb5b146102da578063a993983b1461013f578063d8db3e3e14610112578063de102fd6146100e05763effc1823146100a3575f80fd5b346100dc5760203660031901126100dc57359180548310156100d957506100cb60209261055d565b91905490519160031b1c8152f35b80fd5b8280fd5b50346100dc5760203660031901126100dc5735825260016020908152918190205490516001600160a01b039091168152f35b50503461013b578160031936011261013b5760055490516001600160a01b039091168152602090f35b5080fd5b509190602092836003193601126100dc576005546001600160a01b0393908416330361029e578054801594908561028d575f1981810191821161027a576101858261055d565b90549060031b1c9661026757918160249594936101a28a9461055d565b909182549160031b1b1916905583555b86835260018252858320541685519485809263a993983b60e01b825286358783015234905af191821561025b5781926101f9575b50506101f39150836105d1565b51908152f35b90915085903d8711610253575b601f8201601f191684019067ffffffffffffffff8211858310176102405750869184918652810103126100d957506101f390515f806101e6565b634e487b7160e01b845260419052602483fd5b3d9150610206565b508351903d90823e3d90fd5b634e487b7160e01b845260318552602484fd5b634e487b7160e01b845260118552602484fd5b5093509060249185600654956101b2565b5083606492519162461bcd60e51b83528201526017602482015276139bdd081d1a19481a5b9d185ad94818dbdb9d1c9858dd604a1b6044820152fd5b50503461013b578160031936011261013b5760035490516001600160a01b039091168152602090f35b50346100dc57816003193601126100dc5780358084526001602052828420549092906001600160a01b031633036103445783610341602435856105d1565b80f35b906020606492519162461bcd60e51b83528201526018602482015277139bdd08185d5d1a1bdc9a5e9959081d1bc81c995c1bdc9d60421b6044820152fd5b50346100dc5760203660031901126100dc579181923581526001602052206001808060a01b0382541691015482519182526020820152f35b50346100dc57826003193601126100dc5760209250549051908152f35b50503461013b578160031936011261013b576020906006549051908152f35b50346100dc5760203660031901126100dc57356001600160a01b038116908190036100dc57828291602094526002845220549051908152f35b90508284346100d9576020938460031936011261013b576001600160a01b0381358181169590869003610559578160035416320361051f575083519084820182811067ffffffffffffffff82111761050c578552858252868201848152835485526001808952868620935184546001600160a01b03191693169290921783555191015580546104bd90610589565b8054938252600285528383832055600654610503575b5f1984146104f0576001840180825584116104f057505051908152f35b634e487b7160e01b825260119052602490fd5b836006556104d3565b634e487b7160e01b855260418452602485fd5b62461bcd60e51b815282810187905260166024820152752737ba103a34329031b7b73a3930b1ba1037bbb732b960511b6044820152606490fd5b8380fd5b905f9182548110156105755782805260208320019190565b634e487b7160e01b83526032600452602483fd5b5f54600160401b8110156105bd578060016105a692015f5561055d565b819291549060031b91821b915f19901b1916179055565b634e487b7160e01b5f52604160045260245ffd5b90815f52600160205280600160405f200155801561061d575b6006545f526001602052600160405f200154809110908115610614575b5061060f5750565b600655565b9050155f610607565b61062682610589565b6105ea56fea264697066735822122031154e5f97c51a4264ac5c35a9bb9977d7a7b45e6918135248d454134a470b7564736f6c63430008140033",
  "linkReferences": {},
  "deployedLinkReferences": {}
}