{
  "_format": "hh-sol-artifact-1",
  "contractName": "tgetherPostConsensus",
  "sourceName": "contracts/tgehterPostConsensus.sol",
  "abi": [
    {
      "inputs": [
        {
          "internalType": "address",
          "name": "_CommunityConsensusAddress",
          "type": "address"
        },
        {
          "internalType": "address",
          "name": "_MembersContract",
          "type": "address"
        },
        {
          "internalType": "address",
          "name": "_PostContract",
          "type": "address"
        },
        {
          "internalType": "uint256",
          "name": "_fee",
          "type": "uint256"
        },
        {
          "internalType": "address payable",
          "name": "_feeAddress",
          "type": "address"
        }
      ],
      "stateMutability": "nonpayable",
      "type": "constructor"
    },
    {
      "anonymous": false,
      "inputs": [
        {
          "indexed": false,
          "internalType": "uint256",
          "name": "communitySubmissionId",
          "type": "uint256"
        },
        {
          "indexed": false,
          "internalType": "uint256",
          "name": "index",
          "type": "uint256"
        }
      ],
      "name": "ActiveSubmissionsIndexUpdated",
      "type": "event"
    },
    {
      "anonymous": false,
      "inputs": [
        {
          "indexed": true,
          "internalType": "uint256",
          "name": "communtiySubmissionId",
          "type": "uint256"
        },
        {
          "indexed": true,
          "internalType": "string",
          "name": "communityName",
          "type": "string"
        },
        {
          "indexed": false,
          "internalType": "uint256",
          "name": "timestamp",
          "type": "uint256"
        },
        {
          "indexed": false,
          "internalType": "uint256",
          "name": "consensusTime",
          "type": "uint256"
        }
      ],
      "name": "CommunitySubmitted",
      "type": "event"
    },
    {
      "anonymous": false,
      "inputs": [
        {
          "indexed": true,
          "internalType": "uint256",
          "name": "communitySubmissionId",
          "type": "uint256"
        },
        {
          "indexed": false,
          "internalType": "uint256",
          "name": "postId",
          "type": "uint256"
        },
        {
          "indexed": false,
          "internalType": "string",
          "name": "newConsensus",
          "type": "string"
        }
      ],
      "name": "ConsensusUpdated",
      "type": "event"
    },
    {
      "anonymous": false,
      "inputs": [
        {
          "indexed": false,
          "internalType": "uint256",
          "name": "postId",
          "type": "uint256"
        },
        {
          "indexed": false,
          "internalType": "string",
          "name": "keyword",
          "type": "string"
        }
      ],
      "name": "Keywords",
      "type": "event"
    },
    {
      "anonymous": false,
      "inputs": [
        {
          "indexed": true,
          "internalType": "uint256",
          "name": "postId",
          "type": "uint256"
        },
        {
          "indexed": true,
          "internalType": "uint256",
          "name": "communitySubmissionId",
          "type": "uint256"
        }
      ],
      "name": "PostSubmission",
      "type": "event"
    },
    {
      "anonymous": false,
      "inputs": [
        {
          "indexed": true,
          "internalType": "uint256",
          "name": "reviewId",
          "type": "uint256"
        },
        {
          "indexed": true,
          "internalType": "uint256",
          "name": "communitySubmissionId",
          "type": "uint256"
        },
        {
          "indexed": true,
          "internalType": "address",
          "name": "member",
          "type": "address"
        }
      ],
      "name": "ReviewCreated",
      "type": "event"
    },
    {
      "anonymous": false,
      "inputs": [
        {
          "indexed": true,
          "internalType": "uint256",
          "name": "reviewId",
          "type": "uint256"
        },
        {
          "indexed": false,
          "internalType": "string",
          "name": "consensus",
          "type": "string"
        },
        {
          "indexed": false,
          "internalType": "uint256",
          "name": "creds",
          "type": "uint256"
        },
        {
          "indexed": false,
          "internalType": "string",
          "name": "content",
          "type": "string"
        }
      ],
      "name": "ReviewSubmitted",
      "type": "event"
    },
    {
      "inputs": [
        {
          "internalType": "uint256",
          "name": "",
          "type": "uint256"
        }
      ],
      "name": "ActiveSubmissions",
      "outputs": [
        {
          "internalType": "uint256",
          "name": "",
          "type": "uint256"
        }
      ],
      "stateMutability": "view",
      "type": "function"
    },
    {
      "inputs": [
        {
          "internalType": "uint256",
          "name": "",
          "type": "uint256"
        }
      ],
      "name": "ActiveSubmissionsIndexes",
      "outputs": [
        {
          "internalType": "uint256",
          "name": "",
          "type": "uint256"
        }
      ],
      "stateMutability": "view",
      "type": "function"
    },
    {
      "inputs": [],
      "name": "CommunityConsensusContract",
      "outputs": [
        {
          "internalType": "contract tgetherCommunityConsensusInterface",
          "name": "",
          "type": "address"
        }
      ],
      "stateMutability": "view",
      "type": "function"
    },
    {
      "inputs": [
        {
          "internalType": "uint256",
          "name": "",
          "type": "uint256"
        }
      ],
      "name": "CommunitySubmissionToPost",
      "outputs": [
        {
          "internalType": "uint256",
          "name": "",
          "type": "uint256"
        }
      ],
      "stateMutability": "view",
      "type": "function"
    },
    {
      "inputs": [
        {
          "internalType": "uint256",
          "name": "",
          "type": "uint256"
        }
      ],
      "name": "CommunitySubmissions",
      "outputs": [
        {
          "internalType": "string",
          "name": "communityName",
          "type": "string"
        },
        {
          "internalType": "string",
          "name": "consensusType",
          "type": "string"
        },
        {
          "internalType": "uint256",
          "name": "timestamp",
          "type": "uint256"
        },
        {
          "internalType": "uint256",
          "name": "consensusTime",
          "type": "uint256"
        }
      ],
      "stateMutability": "view",
      "type": "function"
    },
    {
      "inputs": [],
      "name": "MembersContract",
      "outputs": [
        {
          "internalType": "contract tgetherMembersInterface",
          "name": "",
          "type": "address"
        }
      ],
      "stateMutability": "view",
      "type": "function"
    },
    {
      "inputs": [
        {
          "internalType": "uint256",
          "name": "",
          "type": "uint256"
        },
        {
          "internalType": "uint256",
          "name": "",
          "type": "uint256"
        }
      ],
      "name": "PostSubmissionList",
      "outputs": [
        {
          "internalType": "uint256",
          "name": "",
          "type": "uint256"
        }
      ],
      "stateMutability": "view",
      "type": "function"
    },
    {
      "inputs": [],
      "name": "PostsContract",
      "outputs": [
        {
          "internalType": "contract tgetherPostsInterface",
          "name": "",
          "type": "address"
        }
      ],
      "stateMutability": "view",
      "type": "function"
    },
    {
      "inputs": [
        {
          "internalType": "bytes",
          "name": "",
          "type": "bytes"
        }
      ],
      "name": "checkUpkeep",
      "outputs": [
        {
          "internalType": "bool",
          "name": "upkeepNeeded",
          "type": "bool"
        },
        {
          "internalType": "bytes",
          "name": "",
          "type": "bytes"
        }
      ],
      "stateMutability": "view",
      "type": "function"
    },
    {
      "inputs": [],
      "name": "consensusFee",
      "outputs": [
        {
          "internalType": "uint256",
          "name": "",
          "type": "uint256"
        }
      ],
      "stateMutability": "view",
      "type": "function"
    },
    {
      "inputs": [],
      "name": "csCounter",
      "outputs": [
        {
          "internalType": "uint256",
          "name": "",
          "type": "uint256"
        }
      ],
      "stateMutability": "view",
      "type": "function"
    },
    {
      "inputs": [],
      "name": "getActiveSubmissions",
      "outputs": [
        {
          "internalType": "uint256[]",
          "name": "",
          "type": "uint256[]"
        }
      ],
      "stateMutability": "view",
      "type": "function"
    },
    {
      "inputs": [
        {
          "internalType": "uint256",
          "name": "_postId",
          "type": "uint256"
        }
      ],
      "name": "getActiveSubmissionsIndex",
      "outputs": [
        {
          "internalType": "uint256",
          "name": "",
          "type": "uint256"
        }
      ],
      "stateMutability": "view",
      "type": "function"
    },
    {
      "inputs": [],
      "name": "getActiveSubmissionsLength",
      "outputs": [
        {
          "internalType": "uint256",
          "name": "",
          "type": "uint256"
        }
      ],
      "stateMutability": "view",
      "type": "function"
    },
    {
      "inputs": [
        {
          "internalType": "uint256",
          "name": "_communitySubmissionId",
          "type": "uint256"
        }
      ],
      "name": "getCommunitySubmission",
      "outputs": [
        {
          "components": [
            {
              "internalType": "string",
              "name": "communityName",
              "type": "string"
            },
            {
              "internalType": "string",
              "name": "consensusType",
              "type": "string"
            },
            {
              "internalType": "uint256",
              "name": "timestamp",
              "type": "uint256"
            },
            {
              "internalType": "uint256",
              "name": "consensusTime",
              "type": "uint256"
            }
          ],
          "internalType": "struct tgetherPostConsensus.CommunitySubmission",
          "name": "",
          "type": "tuple"
        }
      ],
      "stateMutability": "view",
      "type": "function"
    },
    {
      "inputs": [
        {
          "internalType": "uint256",
          "name": "_submissionId",
          "type": "uint256"
        }
      ],
      "name": "getPostConsesous",
      "outputs": [
        {
          "internalType": "string",
          "name": "consensus",
          "type": "string"
        }
      ],
      "stateMutability": "view",
      "type": "function"
    },
    {
      "inputs": [
        {
          "internalType": "uint256",
          "name": "_postId",
          "type": "uint256"
        }
      ],
      "name": "getPostSubmissionList",
      "outputs": [
        {
          "internalType": "uint256[]",
          "name": "",
          "type": "uint256[]"
        }
      ],
      "stateMutability": "view",
      "type": "function"
    },
    {
      "inputs": [
        {
          "internalType": "uint256",
          "name": "_reviewId",
          "type": "uint256"
        }
      ],
      "name": "getReview",
      "outputs": [
        {
          "components": [
            {
              "internalType": "address",
              "name": "member",
              "type": "address"
            },
            {
              "internalType": "string",
              "name": "content",
              "type": "string"
            },
            {
              "internalType": "uint256",
              "name": "consensus",
              "type": "uint256"
            },
            {
              "internalType": "string",
              "name": "consensusType",
              "type": "string"
            },
            {
              "internalType": "uint256",
              "name": "creds",
              "type": "uint256"
            }
          ],
          "internalType": "struct tgetherPostConsensus.Review",
          "name": "",
          "type": "tuple"
        }
      ],
      "stateMutability": "view",
      "type": "function"
    },
    {
      "inputs": [
        {
          "internalType": "uint256",
          "name": "_reviewid",
          "type": "uint256"
        }
      ],
      "name": "getReviewConsenous",
      "outputs": [
        {
          "internalType": "uint256",
          "name": "consensus",
          "type": "uint256"
        },
        {
          "internalType": "uint256",
          "name": "creds",
          "type": "uint256"
        }
      ],
      "stateMutability": "view",
      "type": "function"
    },
    {
      "inputs": [
        {
          "internalType": "uint256",
          "name": "_submissionId",
          "type": "uint256"
        }
      ],
      "name": "getReviewsForSubmission",
      "outputs": [
        {
          "internalType": "uint256[]",
          "name": "",
          "type": "uint256[]"
        }
      ],
      "stateMutability": "view",
      "type": "function"
    },
    {
      "inputs": [
        {
          "internalType": "uint256",
          "name": "",
          "type": "uint256"
        },
        {
          "internalType": "address",
          "name": "",
          "type": "address"
        }
      ],
      "name": "hasReviewed",
      "outputs": [
        {
          "internalType": "bool",
          "name": "",
          "type": "bool"
        }
      ],
      "stateMutability": "view",
      "type": "function"
    },
    {
      "inputs": [],
      "name": "maxReviews",
      "outputs": [
        {
          "internalType": "uint256",
          "name": "",
          "type": "uint256"
        }
      ],
      "stateMutability": "view",
      "type": "function"
    },
    {
      "inputs": [
        {
          "internalType": "bytes",
          "name": "_performData",
          "type": "bytes"
        }
      ],
      "name": "performUpkeep",
      "outputs": [],
      "stateMutability": "nonpayable",
      "type": "function"
    },
    {
      "inputs": [
        {
          "internalType": "uint256",
          "name": "",
          "type": "uint256"
        },
        {
          "internalType": "string",
          "name": "",
          "type": "string"
        }
      ],
      "name": "postCommunities",
      "outputs": [
        {
          "internalType": "uint256",
          "name": "",
          "type": "uint256"
        }
      ],
      "stateMutability": "view",
      "type": "function"
    },
    {
      "inputs": [],
      "name": "reviewCounter",
      "outputs": [
        {
          "internalType": "uint256",
          "name": "",
          "type": "uint256"
        }
      ],
      "stateMutability": "view",
      "type": "function"
    },
    {
      "inputs": [
        {
          "internalType": "uint256",
          "name": "",
          "type": "uint256"
        }
      ],
      "name": "reviews",
      "outputs": [
        {
          "internalType": "address",
          "name": "member",
          "type": "address"
        },
        {
          "internalType": "string",
          "name": "content",
          "type": "string"
        },
        {
          "internalType": "uint256",
          "name": "consensus",
          "type": "uint256"
        },
        {
          "internalType": "string",
          "name": "consensusType",
          "type": "string"
        },
        {
          "internalType": "uint256",
          "name": "creds",
          "type": "uint256"
        }
      ],
      "stateMutability": "view",
      "type": "function"
    },
    {
      "inputs": [
        {
          "internalType": "address",
          "name": "_contractAddress",
          "type": "address"
        }
      ],
      "name": "setAutomationRegistry",
      "outputs": [],
      "stateMutability": "nonpayable",
      "type": "function"
    },
    {
      "inputs": [
        {
          "internalType": "address",
          "name": "_contractAddress",
          "type": "address"
        }
      ],
      "name": "setCommunitiesContract",
      "outputs": [],
      "stateMutability": "nonpayable",
      "type": "function"
    },
    {
      "inputs": [
        {
          "internalType": "uint256",
          "name": "_feePrice",
          "type": "uint256"
        }
      ],
      "name": "setFee",
      "outputs": [],
      "stateMutability": "nonpayable",
      "type": "function"
    },
    {
      "inputs": [
        {
          "internalType": "address payable",
          "name": "_feeAddress",
          "type": "address"
        }
      ],
      "name": "setFeeAddress",
      "outputs": [],
      "stateMutability": "nonpayable",
      "type": "function"
    },
    {
      "inputs": [
        {
          "internalType": "uint256",
          "name": "_maxreviews",
          "type": "uint256"
        }
      ],
      "name": "setMaxReviews",
      "outputs": [],
      "stateMutability": "nonpayable",
      "type": "function"
    },
    {
      "inputs": [
        {
          "internalType": "address",
          "name": "_contractAddress",
          "type": "address"
        }
      ],
      "name": "setMembersContract",
      "outputs": [],
      "stateMutability": "nonpayable",
      "type": "function"
    },
    {
      "inputs": [
        {
          "internalType": "address",
          "name": "_contractAddress",
          "type": "address"
        }
      ],
      "name": "setPostsContract",
      "outputs": [],
      "stateMutability": "nonpayable",
      "type": "function"
    },
    {
      "inputs": [
        {
          "internalType": "string[]",
          "name": "_deafultArray",
          "type": "string[]"
        }
      ],
      "name": "setdefaultConsenousTypes",
      "outputs": [],
      "stateMutability": "nonpayable",
      "type": "function"
    },
    {
      "inputs": [
        {
          "internalType": "uint256",
          "name": "_communitySubmissionId",
          "type": "uint256"
        },
        {
          "internalType": "string",
          "name": "_content",
          "type": "string"
        },
        {
          "internalType": "uint256",
          "name": "_consensus",
          "type": "uint256"
        }
      ],
      "name": "submitReview",
      "outputs": [
        {
          "internalType": "uint256",
          "name": "",
          "type": "uint256"
        }
      ],
      "stateMutability": "nonpayable",
      "type": "function"
    },
    {
      "inputs": [
        {
          "internalType": "uint256",
          "name": "_postId",
          "type": "uint256"
        },
        {
          "internalType": "string",
          "name": "_communityName",
          "type": "string"
        }
      ],
      "name": "submitToCommunity",
      "outputs": [
        {
          "internalType": "uint256",
          "name": "",
          "type": "uint256"
        }
      ],
      "stateMutability": "payable",
      "type": "function"
    },
    {
      "inputs": [
        {
          "internalType": "uint256",
          "name": "",
          "type": "uint256"
        },
        {
          "internalType": "uint256",
          "name": "",
          "type": "uint256"
        }
      ],
      "name": "submmisionReviews",
      "outputs": [
        {
          "internalType": "uint256",
          "name": "",
          "type": "uint256"
        }
      ],
      "stateMutability": "view",
      "type": "function"
    }
  ],
  "bytecode": "0x608034620003b957601f62002bb838819003918201601f191683019291906001600160401b03841183851017620001fe578160a09284926040968752833981010312620003b9576200005181620003dd565b906200006060208201620003dd565b906200006e848201620003dd565b6060820151608090920151926001600160a01b0384168403620003b9578551606081016001600160401b03811182821017620001fe578752620000b0620003bd565b6012815271436f6e73656e736f75732050656e64696e6760701b60208201528152620000db620003bd565b90600891828152671058d8d95c1d195960c21b6020820152602082015262000102620003bd565b8281526714995a9958dd195960c21b602082015288820152815460038355806003106200033b575b50905f5260205f20905f905b60038210620002125750505060018060a01b0319943386601254161760125560018060a01b031685600d541617600d5560018060a01b031684600e541617600e5560018060a01b031683600f541617600f5560105560018060a01b03169060135416176013556001600655600160025560095468010000000000000000811015620001fe576001810180600955811015620001ea575f90600982526020822001556064601155516127729081620004468239f35b634e487b7160e01b5f52603260045260245ffd5b634e487b7160e01b5f52604160045260245ffd5b80518051906001600160401b038211620001fe57620002328554620003f2565b601f8111620002fb575b50602090601f83116001146200028b5792826001949360209386955f926200027f575b50505f19600383901b1c191690841b1786555b0193019101909162000136565b015190505f806200025f565b90855f5260205f20915f5b601f1985168110620002e257509260209260019592869583601f19811610620002c9575b505050831b8301865562000272565b01515f1960f88460031b161c191690555f8080620002ba565b9192602060018192868501518155019401920162000296565b6200032990865f5260205f206005601f8601811c8201926020871062000330575b601f01901c01906200042d565b5f6200023c565b91925082916200031c565b5f83815260036020822092830192015b8281106200035b5750506200012a565b80826200036b60019354620003f2565b806200037b575b5050016200034b565b601f8111841462000392575081555b825f62000372565b828252620003af601f60208420920160051c82018583016200042d565b818355556200038a565b5f80fd5b60408051919082016001600160401b03811183821017620001fe57604052565b51906001600160a01b0382168203620003b957565b90600182811c9216801562000422575b60208310146200040e57565b634e487b7160e01b5f52602260045260245ffd5b91607f169162000402565b81811062000439575050565b5f81556001016200042d56fe6080806040526004361015610012575f80fd5b5f3560e01c908163059597f7146121b1575080631651902a146121825780631ea490511461211d5780633c09203b146120c15780634215c5e4146120a45780634585e33b14611dda57806347631adb14611db25780634ed5981214611d955780635ff2d2aa14611d395780636356eea41461167857806369fe0e2d1461163e5780636c79bd2b146115d95780636e04ff0d1461126157806374f0c641146112445780637c7198cc146111f65780638705fcd41461119357806393a018be14610b2c578063990581b614611093578063a594004114611076578063ac97980d1461104c578063ad2957ff14610ff0578063b9e2fc3e14610fba578063bdf5db3914610f37578063c5dce24d14610eaa578063d1a34aa314610e62578063d39065fa14610e06578063d3a3f77114610dc2578063d8db380714610b56578063de78ab7c14610b2c578063de8b32c514610a57578063e148577614610a2f578063e168b3a814610a12578063e83ddcea1461096b578063ea487a9214610904578063ee8eb507146108cd578063eeb0cf761461088f5763fa1396f5146101b3575f80fd5b6101bc36612492565b600f54604051632c89540360e21b8152600481018490526001600160a01b0393916020908290602490829088165afa9081156107a7575f91610870575b50156108355782600d5416906040516324c9db2f60e01b8152602060048201526020818061022a60248201886123a4565b0381865afa9081156107a7575f91610806575b50156107b25760206040518093633bebe05160e01b8252826004830152818061026960248201896123a4565b03915afa9182156107a7575f9261076f575b50604051610288816122cb565b8381526040519060208201956001600160401b03968381108882111761052d576040525f83526020820192835242604083015284606083015284155f146105b057506040516102d6816122e6565b600d81526c4e6f20436f6e73656e736f757360981b602082015282525b6002545f525f60205260405f2091815180519088821161052d5781906103238261031d88546123c9565b8861252e565b602090601f831160011461054c575f92610541575b50508160011b915f199060031b1c19161783555b5195865190811161052d576103718161036860018601546123c9565b6001860161252e565b6020601f82116001146104bb5791816060926003946104829a5f926104b0575b50505f1982861b1c1916600191821b17908501555b604081015160028501550151910155805f5260036020526103cd60405f20600254906124f3565b6002545f5260016020528060405f20557fd3f28a1c655091033012bc55d258bf3cbd4ea4fb8bc2ff81c626a2aad9354e46604060025494858481955f52600460205261046b845f20838651602081885194828a019561042d818489612383565b82019081520301902055855194859485947fe4c157bdf18b292c67a85f8afa9036d1fd70e345be3ad305fafc7841c4801a3f5f80a351928391612383565b8101039020938151904282526020820152a3612571565b806002555f19810190811161049c57602090604051908152f35b634e487b7160e01b5f52601160045260245ffd5b015190505f80610391565b600184015f5260205f20975f5b601f19841681106105155750826104829960039593600193606096601f198116106104fe575b505050811b0160018501556103a6565b01515f1983881b60f8161c191690555f80806104ee565b828201518a55600190990198602092830192016104c8565b634e487b7160e01b5f52604160045260245ffd5b015190505f80610338565b5f878152602081209350601f198516905b8181106105985750908460019594939210610580575b505050811b01835561034c565b01515f1960f88460031b161c191690555f8080610573565b9293602060018192878601518155019501930161055d565b6010543403610731575f808080933490601354165af13d1561072c573d6105d681612322565b906105e46040519283612301565b81525f60203d92013e5b156106f057600854156106dc5760085f5260405161063781610630817ff3f7a9fe364faab93b216da50a3214154f22a0a2b415b23a84c8169e8b636ee3612401565b0382612301565b825260025460095490600160401b82101561052d5761065f82600161067794016009556121ea565b90919082549060031b91821b915f19901b1916179055565b6009545f199081810190811161049c576002545f52600a60205260405f20556002549060095490810190811161049c577f2f5a4ee168dca9eaef284f1844a3d24d74ba63a5fccc947454fc07515c8b37749160409182519182526020820152a16102f3565b634e487b7160e01b5f52603260045260245ffd5b60405162461bcd60e51b81526020600482015260146024820152732330b4b632b2103a379039b2b7321022ba3432b960611b6044820152606490fd5b6105ee565b60405162461bcd60e51b81526020600482015260166024820152754d7573742073656e642070726f706f73616c2066656560501b6044820152606490fd5b9091506020813d60201161079f575b8161078b60209383612301565b8101031261079b5751905f61027b565b5f80fd5b3d915061077e565b6040513d5f823e3d90fd5b60405162461bcd60e51b815260206004820152602660248201527f436f6d6d756e69747920436f6e73656e73757320506172616d7320646f6e277460448201526508195e1a5cdd60d21b6064820152608490fd5b610828915060203d60201161082e575b6108208183612301565b8101906124db565b5f61023d565b503d610816565b60405162461bcd60e51b8152602060048201526013602482015272141bdcdd08191bd95cc81b9bdd08195e1a5cdd606a1b6044820152606490fd5b610889915060203d60201161082e576108208183612301565b5f6101f9565b3461079b5761089d366121d4565b905f52600360205260405f20805482101561079b576020916108be91612202565b90549060031b1c604051908152f35b3461079b57602036600319011261079b5760043560095481101561079b576108f66020916121ea565b90546040519160031b1c8152f35b3461079b57602036600319011261079b57600435805f525f602052610931600260405f200154151561257f565b5f525f602052610967610630610953600160405f200160405192838092612401565b6040519182916020835260208301906123a4565b0390f35b3461079b57602036600319011261079b576004355f52600560205260405f2060018060a01b03815416604051916109b0836109a98160018501612401565b0384612301565b610a0860028201546004604051936109d6856109cf8160038501612401565b0386612301565b0154926109f5604051968796875260a0602088015260a08701906123a4565b91604086015284820360608601526123a4565b9060808301520390f35b3461079b575f36600319011261079b576020600654604051908152f35b3461079b575f36600319011261079b57600e546040516001600160a01b039091168152602090f35b3461079b5760208060031936011261079b576080905f6060604051610a7b816122cb565b818152818482015282604082015201526004355f525f815260405f2060405191610aa4836122cb565b604051610ab5816106308186612401565b8352610b1b604051610ace816106308160018801612401565b828501908152610b0860036002860154956040880196875201549360608701948552604051978897828952519188015260a08701906123a4565b9051858203601f190160408701526123a4565b915160608401525160808301520390f35b3461079b57602036600319011261079b576004355f52600a602052602060405f2054604051908152f35b3461079b5760208060031936011261079b57600435906001600160401b039081831161079b573660238401121561079b57826004013591610b96836124c4565b93610ba46040519586612301565b83855282850194859160249687600597881b8301019136831161079b57888101915b838310610d9c575050601254610bf39250336001600160a01b039182161491508115610d8e575b506125fd565b5193600160401b8511610d7b576008549085600855818610610d0c575b5050939060085f52825f20915f955b858710610c2857005b8051805190848211610cf957908691610c4b82610c4589546123c9565b8961252e565b8290601f8311600114610c92579180600195928695945f92610c87575b50505f19600383901b1c191690841b1787555b01940196019592610c1f565b015190508c80610c68565b90601f19831691885f52845f20925f5b818110610ce15750916001969391858897969410610cc9575b505050831b83018755610c7b565b01515f1960f88460031b161c191690558b8080610cbb565b8284015185558b966001909501949384019301610ca2565b83634e487b7160e01b5f5260416004525ffd5b60085f5285855f2092830192015b828110610d275750610c10565b80610d34600192546123c9565b80610d41575b5001610d1a565b601f908181118414610d595750505f81555b89610d3a565b610d725f928484528a84209201861c8201858301612518565b81835555610d53565b85634e487b7160e01b5f5260416004525ffd5b9050600c5416331488610bed565b823587811161079b578891610db783928d369187010161233d565b815201920191610bc6565b3461079b576020610df481610dd636612492565b905f526004825260405f208260405194838680955193849201612383565b82019081520301902054604051908152f35b3461079b57602036600319011261079b57610e1f612251565b6012546001600160a01b039190821633148015610e55575b610e40906125fd565b1660018060a01b0319600f541617600f555f80f35b50600c5482163314610e37565b3461079b57602036600319011261079b57601254610e9490336001600160a01b0391821614908115610e9c57506125fd565b600435601155005b9050600c5416331482610bed565b3461079b57602036600319011261079b576004355f525f602052610f1a60405f2060405190610ee482610edd8184612401565b0383612301565b604051610ef8816106308160018601612401565b610f2860036002840154930154916040519586956080875260808701906123a4565b9085820360208701526123a4565b91604084015260608301520390f35b3461079b575f36600319011261079b57604051600980548083525f918252602080840193927f6e1540171b6c0c960b71a7020d9f60077f6af931a8bbf590da0223dacf75c7af92915b828210610fa35761096785610f9781890382612301565b60405191829182612217565b835486529485019460019384019390910190610f80565b3461079b57602036600319011261079b576004355f5260056020526040805f206004600282015491015482519182526020820152f35b3461079b57602036600319011261079b57611009612251565b6012546001600160a01b03919082163314801561103f575b61102a906125fd565b1660018060a01b0319600d541617600d555f80f35b50600c5482163314611021565b3461079b57602036600319011261079b576004355f526001602052602060405f2054604051908152f35b3461079b575f36600319011261079b576020600254604051908152f35b3461079b5760208060031936011261079b575f60806040516110b4816122b0565b82815260608482015282604082015260608082015201526004355f526005815260405f2090604051906110e6826122b0565b82546001600160a01b0390811683526040519093611188919061111082610edd8160018501612401565b83850191825261116f6002820154926040870193845260046040519361113d856109cf8160038501612401565b6060890194855201549560808801968752604051988998828a525116908801525160a0604088015260c08701906123a4565b9151606086015251848203601f190160808601526123a4565b905160a08301520390f35b3461079b57602036600319011261079b576004356001600160a01b038181169182900361079b57806111d2916012541633149081156111e857506125fd565b601380546001600160a01b031916919091179055005b9050600c5416331483610bed565b3461079b57604036600319011261079b576024356001600160a01b0381169081900361079b576004355f52600b60205260405f20905f52602052602060ff60405f2054166040519015158152f35b3461079b575f36600319011261079b576020600954604051908152f35b3461079b5761126f36612267565b50505f805f600954806112b3575b505060405191602083015260208252611295826122e6565b610967604051928392151583526040602084015260408301906123a4565b5f60015b82811061154157505050806112cd575b8061127d565b90915060018060a01b03600d5416815f525f60205260405f209060606040518092632691798960e01b825260206004830152818061131060249788830190612401565b03915afa9182156107a7575f905f925f94611500575b50845f52600760205260405f2091604051808460208296549384815201905f5260205f20925f5b8181106114e757505061136292500384612301565b825193818510156113845750505050505061137c906125e8565b905b826112c7565b5f935f95601154908181115f146114df5750905b5f5b828110611428575050505083158091811561141e575b50156113ca5750505050506113c4906125e8565b9061137e565b60648302928084046064149015171561140a576113f7575004106113ee579061137e565b6113c4906125e8565b634e487b7160e01b5f9081526012600452fd5b50634e487b7160e01b5f9081526011600452fd5b90508410886113b0565b61143281836125d4565b5160405190635cf17e1f60e11b825260048201526040818881305afa80156107a75785905f925f916114a4575b501015611476575b5061147190612571565b61139a565b97611482600291612571565b981461148f575b8b611467565b9561149c61147191612571565b969050611489565b925050506040813d6040116114d7575b816114c160409383612301565b8101031261079b5784602082519201518e61145f565b3d91506114b4565b905090611398565b845483526001948501948894506020909301920161134d565b92509250506060813d8211611539575b8161151d60609383612301565b8101031261079b57805160208201516040909201519286611326565b3d9150611510565b61154a816121ea565b9054600391821b1c5f5261158560205f81525f60026040822001549161156f866121ea565b905490861b1c8252528260405f200154906125c7565b42811115806115c7575b6115a4575b505061159f90612571565b6112b7565b94509450905061159f6001946115b9836121ea565b9054911b1c93919087611594565b50838111158061158f5750831561158f565b3461079b5760208060031936011261079b576004355f526007815260405f209060405190818184549182815201935f52815f20915f905b8282106116275761096785610f9781890382612301565b835486529485019460019384019390910190611610565b3461079b57602036600319011261079b5760125461167090336001600160a01b0391821614908115610e9c57506125fd565b600435601055005b3461079b57606036600319011261079b576024356001600160401b03811161079b576116a890369060040161233d565b6004355f525f6020526116c3600260405f200154151561257f565b6117025f60018060a01b03600d541660043582528160205260408220906040518080958194626e7c3160e91b8352602060048401526024830190612401565b03915afa9081156107a7575f91611c23575b50604435916001831115611bdf576117306008548351906125c7565b8311611b9f576004355f52600b60205260405f20335f5260205260ff60405f205416611b50576117c0916004355f52600b60205260405f20335f5260205260405f20600160ff19825416179055602060018060a01b03600e54166004355f525f825260405f209060405180809781946302b5df5960e01b8352336004840152604060248401526044830190612401565b03915afa9283156107a7575f93611b1c575b5060085490818511611af857505f199084820185811161049c5710156106dc576118106106309160085f528560205f20010160405192838092612401565b6040519361181d856122b0565b338552602085019083825260408601528160608601528360808601526006545f52600560205260405f209060018060a01b0386511660018060a01b03198354161782555180516001600160401b03811161052d5780600184019261188b8261188586546123c9565b8661252e565b602090601f8311600114611a94575f92611a89575b50508160011b915f199060031b1c19161790555b6040850151600282015560608501519485516001600160401b03811161052d576118ee816118e560038601546123c9565b6003860161252e565b6020601f82116001146119f05760807fdf5898210dfd85b69a1551c8ec0bb02719a41f3283eadd1145b9bffc9f2e17309593836119b096946004946119cb9c5f926119e5575b50508160011b915f199060031b1c19161760038501555b01519101556004355f52600760205261196a60405f20600654906124f3565b6119c3600654958695604051948594336004358a7f953de3727de1848ea7329bee97a44132bdd8271d8d663eb90bc2772f21541ec85f80a46060865260608601906123a4565b91602085015283820360408501526123a4565b0390a2612571565b806006555f19810190811161049c57602090604051908152f35b015190508c80611934565b600384015f5260205f20975f5b601f1984168110611a7157507fdf5898210dfd85b69a1551c8ec0bb02719a41f3283eadd1145b9bffc9f2e173095936001846119cb9b6004956080956119b09a98601f19811610611a59575b505050811b01600385015561194b565b01515f1960f88460031b161c191690558c8080611a49565b828201518a55600190990198602092830192016119fd565b0151905088806118a0565b5f858152602081209350601f198516905b818110611ae05750908460019594939210611ac8575b505050811b0190556118b4565b01515f1960f88460031b161c19169055888080611abb565b92936020600181928786015181550195019301611aa5565b90840384811161049c575f19810190811161049c57611b16916125d4565b51611810565b9092506020813d602011611b48575b81611b3860209383612301565b8101031261079b575191846117d2565b3d9150611b2b565b60405162461bcd60e51b815260206004820152602160248201527f596f7527766520616c7265616479207265766965776564207468697320706f736044820152601d60fa1b6064820152608490fd5b60405162461bcd60e51b8152602060048201526018602482015277436f6e73656e736f7573204e6f7420496e20426f756e647360401b6044820152606490fd5b606460405162461bcd60e51b815260206004820152602060248201527f436f6e73656e736f7573206d75732062652067726561746572207468616e20316044820152fd5b3d9150815f823e611c348282612301565b602081838101031261079b5780516001600160401b03811161079b57828201601f82840101121561079b578082015190611c6d826124c4565b93611c7b6040519586612301565b828552602085019080850160208560051b85880101011161079b57602083860101915b60208560051b85880101018310611cbb5750505050505082611714565b82516001600160401b03811161079b57828701603f82878a010101121561079b57602081868901010151611cee81612322565b92611cfc6040519485612301565b818452848901604083858a8d010101011161079b5783611d2c602095938b604088978c8980990193010101612383565b8152019301929050611c9e565b3461079b57602036600319011261079b57611d52612251565b6012546001600160a01b039190821633148015611d88575b611d73906125fd565b1660018060a01b0319600c541617600c555f80f35b50600c5482163314611d6a565b3461079b575f36600319011261079b576020601154604051908152f35b3461079b575f36600319011261079b57600d546040516001600160a01b039091168152602090f35b3461079b57611de836612267565b90611e0760018060a01b038060125416331490811561209657506125fd565b602091828114611e1357005b8183918101031261079b5735905f8213156120815760015b8215158061205b575b80612045575b80612031575b611e4657005b60019015158103611fe0576008548110156106dc577f3ed188edba0c6b2d9b7a54cec2942f1cab56a63a4dcfdca5ff11706ffdf25b1e839160085f52611e9b81855f2001845f525f86528260405f2001612668565b825f5280845260405f2054905f855260405f200190611ecb60405192839283526040878401526040830190612401565b0390a2815f52600a815260405f205490600954925f199384810190811161049c57808403611f3d575b50600a92505f52525f60408120556009548015611f2957810190611f17826121ea565b909182549160031b1b19169055600955005b634e487b7160e01b5f52603160045260245ffd5b611f49611f71916121ea565b9054611f54866121ea565b91909260031b1c9082549060031b91821b915f19901b1916179055565b6009549284840193841161049c5760407f2f5a4ee168dca9eaef284f1844a3d24d74ba63a5fccc947454fc07515c8b377491611fae600a966121ea565b90549060031b1c5f5285855280825f2055611fc8816121ea565b90549060031b1c90825191825285820152a184611ef4565b600854600210156106dc577f3ed188edba0c6b2d9b7a54cec2942f1cab56a63a4dcfdca5ff11706ffdf25b1e839160085f5261202c6002855f2001845f525f86528260405f2001612668565b611e9b565b50825f52600a825260405f20541515611e40565b50825f525f8252600260405f2001541515611e3a565b50825f525f825261207960405f2060036002820154910154906125c7565b421015611e34565b5f91600160ff1b811461049c575f0391611e2b565b9050600c5416331484610bed565b3461079b575f36600319011261079b576020601054604051908152f35b3461079b57602036600319011261079b576120da612251565b6012546001600160a01b039190821633148015612110575b6120fb906125fd565b1660018060a01b0319600e541617600e555f80f35b50600c54821633146120f2565b3461079b5760208060031936011261079b576004355f526003815260405f209060405190818184549182815201935f52815f20915f905b82821061216b5761096785610f9781890382612301565b835486529485019460019384019390910190612154565b3461079b57612190366121d4565b905f52600760205260405f20805482101561079b576020916108f691612202565b3461079b575f36600319011261079b57600f546001600160a01b03168152602090f35b604090600319011261079b576004359060243590565b6009548110156106dc5760095f5260205f2001905f90565b80548210156106dc575f5260205f2001905f90565b602090816040818301928281528551809452019301915f5b82811061223d575050505090565b83518552938101939281019260010161222f565b600435906001600160a01b038216820361079b57565b90602060031983011261079b576004356001600160401b039283821161079b578060238301121561079b57816004013593841161079b576024848301011161079b576024019190565b60a081019081106001600160401b0382111761052d57604052565b608081019081106001600160401b0382111761052d57604052565b604081019081106001600160401b0382111761052d57604052565b90601f801991011681019081106001600160401b0382111761052d57604052565b6001600160401b03811161052d57601f01601f191660200190565b81601f8201121561079b5780359061235482612322565b926123626040519485612301565b8284526020838301011161079b57815f926020809301838601378301015290565b5f5b8381106123945750505f910152565b8181015183820152602001612385565b906020916123bd81518092818552858086019101612383565b601f01601f1916010190565b90600182811c921680156123f7575b60208310146123e357565b634e487b7160e01b5f52602260045260245ffd5b91607f16916123d8565b905f9291805491612411836123c9565b9182825260019384811690815f1461246f5750600114612432575b50505050565b90919394505f52602092835f2092845f945b83861061245b57505050500101905f80808061242c565b805485870183015294019385908201612444565b9294505050602093945060ff191683830152151560051b0101905f80808061242c565b90604060031983011261079b5760043591602435906001600160401b03821161079b576124c19160040161233d565b90565b6001600160401b03811161052d5760051b60200190565b9081602091031261079b5751801515810361079b5790565b80549190600160401b83101561052d578261065f91600161251695018155612202565b565b818110612523575050565b5f8155600101612518565b9190601f811161253d57505050565b612516925f5260205f20906020601f840160051c83019310612567575b601f0160051c0190612518565b909150819061255a565b5f19811461049c5760010190565b1561258657565b60405162461bcd60e51b815260206004820152601960248201527814dd589b5a5cdcda5bdb88191bd95cc81b9bdd08195e1a5cdd603a1b6044820152606490fd5b9190820180921161049c57565b80518210156106dc5760209160051b010190565b90815f03918083055f19149015171561049c57565b1561260457565b60405162461bcd60e51b815260206004820152603660248201527f4e6f742074686520636f6e7472616374206f776e6572206f72204175746f6d616044820152751d1a5bdb88149959da5cdd1c9e4810dbdb9d1c9858dd60521b6064820152608490fd5b908082146127385761267a81546123c9565b906001600160401b03821161052d5781906126998261188586546123c9565b5f90601f83116001146126cd575f926126c2575b50508160011b915f199060031b1c1916179055565b015490505f806126ad565b81526020808220858352818320935090601f1985169083905b82821061271f575050908460019594939210612707575b505050811b019055565b01545f1960f88460031b161c191690555f80806126fd565b84958192958501548155600180910196019401906126e6565b505056fea26469706673582212200136ee1b2b2e5e5821629126773cf7ebd2ed1426323f2c1a4dcc7211780b7d1f64736f6c63430008140033",
  "linkReferences": {},
  "deployedLinkReferences": {}
}