{
  "_format": "hh-sol-artifact-1",
  "contractName": "tgetherPostConsensus",
  "sourceName": "contracts/tgehterPostConsensus.sol",
  "abi": [
    {
      "inputs": [
        {
          "internalType": "address",
          "name": "_CommunityConsensusAddress",
          "type": "address"
        },
        {
          "internalType": "address",
          "name": "_MembersContract",
          "type": "address"
        },
        {
          "internalType": "address",
          "name": "_PostContract",
          "type": "address"
        },
        {
          "internalType": "uint256",
          "name": "_fee",
          "type": "uint256"
        }
      ],
      "stateMutability": "nonpayable",
      "type": "constructor"
    },
    {
      "anonymous": false,
      "inputs": [
        {
          "indexed": true,
          "internalType": "uint256",
          "name": "communtiySubmissionId",
          "type": "uint256"
        },
        {
          "indexed": true,
          "internalType": "string",
          "name": "communityName",
          "type": "string"
        },
        {
          "indexed": false,
          "internalType": "uint256",
          "name": "timestamp",
          "type": "uint256"
        },
        {
          "indexed": false,
          "internalType": "uint256",
          "name": "consensusTime",
          "type": "uint256"
        }
      ],
      "name": "CommunitySubmitted",
      "type": "event"
    },
    {
      "anonymous": false,
      "inputs": [
        {
          "indexed": true,
          "internalType": "uint256",
          "name": "communitySubmissionId",
          "type": "uint256"
        },
        {
          "indexed": false,
          "internalType": "uint256",
          "name": "postId",
          "type": "uint256"
        },
        {
          "indexed": false,
          "internalType": "string",
          "name": "newConsensus",
          "type": "string"
        }
      ],
      "name": "ConsensusUpdated",
      "type": "event"
    },
    {
      "anonymous": false,
      "inputs": [
        {
          "indexed": false,
          "internalType": "uint256",
          "name": "postId",
          "type": "uint256"
        },
        {
          "indexed": false,
          "internalType": "string",
          "name": "keyword",
          "type": "string"
        }
      ],
      "name": "Keywords",
      "type": "event"
    },
    {
      "anonymous": false,
      "inputs": [
        {
          "indexed": true,
          "internalType": "uint256",
          "name": "postId",
          "type": "uint256"
        },
        {
          "indexed": true,
          "internalType": "uint256",
          "name": "communitySubmissionId",
          "type": "uint256"
        }
      ],
      "name": "PostSubmission",
      "type": "event"
    },
    {
      "anonymous": false,
      "inputs": [
        {
          "indexed": true,
          "internalType": "uint256",
          "name": "reviewId",
          "type": "uint256"
        },
        {
          "indexed": true,
          "internalType": "uint256",
          "name": "communitySubmissionId",
          "type": "uint256"
        },
        {
          "indexed": true,
          "internalType": "address",
          "name": "member",
          "type": "address"
        }
      ],
      "name": "ReviewCreated",
      "type": "event"
    },
    {
      "anonymous": false,
      "inputs": [
        {
          "indexed": true,
          "internalType": "uint256",
          "name": "reviewId",
          "type": "uint256"
        },
        {
          "indexed": false,
          "internalType": "string",
          "name": "consensus",
          "type": "string"
        },
        {
          "indexed": false,
          "internalType": "uint256",
          "name": "creds",
          "type": "uint256"
        },
        {
          "indexed": false,
          "internalType": "string",
          "name": "content",
          "type": "string"
        },
        {
          "indexed": false,
          "internalType": "bool",
          "name": "afterConsensus",
          "type": "bool"
        }
      ],
      "name": "ReviewSubmitted",
      "type": "event"
    },
    {
      "inputs": [],
      "name": "CommunityConsensusContract",
      "outputs": [
        {
          "internalType": "contract tgetherCommunityConsensusInterface",
          "name": "",
          "type": "address"
        }
      ],
      "stateMutability": "view",
      "type": "function"
    },
    {
      "inputs": [
        {
          "internalType": "uint256",
          "name": "",
          "type": "uint256"
        }
      ],
      "name": "CommunitySubmissionToPost",
      "outputs": [
        {
          "internalType": "uint256",
          "name": "",
          "type": "uint256"
        }
      ],
      "stateMutability": "view",
      "type": "function"
    },
    {
      "inputs": [
        {
          "internalType": "uint256",
          "name": "",
          "type": "uint256"
        }
      ],
      "name": "CommunitySubmissions",
      "outputs": [
        {
          "internalType": "string",
          "name": "communityName",
          "type": "string"
        },
        {
          "internalType": "uint256",
          "name": "timestamp",
          "type": "uint256"
        },
        {
          "internalType": "uint256",
          "name": "consensusTime",
          "type": "uint256"
        },
        {
          "internalType": "enum tgetherPostConsensus.Consensus",
          "name": "consensus",
          "type": "uint8"
        }
      ],
      "stateMutability": "view",
      "type": "function"
    },
    {
      "inputs": [],
      "name": "MembersContract",
      "outputs": [
        {
          "internalType": "contract tgetherMembersInterface",
          "name": "",
          "type": "address"
        }
      ],
      "stateMutability": "view",
      "type": "function"
    },
    {
      "inputs": [
        {
          "internalType": "uint256",
          "name": "",
          "type": "uint256"
        },
        {
          "internalType": "uint256",
          "name": "",
          "type": "uint256"
        }
      ],
      "name": "PostSubmissionList",
      "outputs": [
        {
          "internalType": "uint256",
          "name": "",
          "type": "uint256"
        }
      ],
      "stateMutability": "view",
      "type": "function"
    },
    {
      "inputs": [],
      "name": "PostsContract",
      "outputs": [
        {
          "internalType": "contract tgetherPostsInterface",
          "name": "",
          "type": "address"
        }
      ],
      "stateMutability": "view",
      "type": "function"
    },
    {
      "inputs": [
        {
          "internalType": "uint256",
          "name": "",
          "type": "uint256"
        }
      ],
      "name": "SubmissionLane",
      "outputs": [
        {
          "internalType": "uint256",
          "name": "",
          "type": "uint256"
        }
      ],
      "stateMutability": "view",
      "type": "function"
    },
    {
      "inputs": [],
      "name": "consensusFee",
      "outputs": [
        {
          "internalType": "uint256",
          "name": "",
          "type": "uint256"
        }
      ],
      "stateMutability": "view",
      "type": "function"
    },
    {
      "inputs": [],
      "name": "csCounter",
      "outputs": [
        {
          "internalType": "uint256",
          "name": "",
          "type": "uint256"
        }
      ],
      "stateMutability": "view",
      "type": "function"
    },
    {
      "inputs": [
        {
          "internalType": "uint256",
          "name": "submissionId",
          "type": "uint256"
        }
      ],
      "name": "getCheckSubmissionForUpkeep",
      "outputs": [
        {
          "internalType": "bool",
          "name": "upkeepNeeded",
          "type": "bool"
        },
        {
          "internalType": "int256",
          "name": "resultId",
          "type": "int256"
        }
      ],
      "stateMutability": "view",
      "type": "function"
    },
    {
      "inputs": [
        {
          "internalType": "uint256",
          "name": "_communitySubmissionId",
          "type": "uint256"
        }
      ],
      "name": "getCommunitySubmission",
      "outputs": [
        {
          "components": [
            {
              "internalType": "string",
              "name": "communityName",
              "type": "string"
            },
            {
              "internalType": "uint256",
              "name": "timestamp",
              "type": "uint256"
            },
            {
              "internalType": "uint256",
              "name": "consensusTime",
              "type": "uint256"
            },
            {
              "internalType": "enum tgetherPostConsensus.Consensus",
              "name": "consensus",
              "type": "uint8"
            }
          ],
          "internalType": "struct tgetherPostConsensus.CommunitySubmission",
          "name": "",
          "type": "tuple"
        }
      ],
      "stateMutability": "view",
      "type": "function"
    },
    {
      "inputs": [
        {
          "internalType": "uint256",
          "name": "_submissionId",
          "type": "uint256"
        }
      ],
      "name": "getPostConsesous",
      "outputs": [
        {
          "internalType": "enum tgetherPostConsensus.Consensus",
          "name": "",
          "type": "uint8"
        }
      ],
      "stateMutability": "view",
      "type": "function"
    },
    {
      "inputs": [
        {
          "internalType": "uint256",
          "name": "_postId",
          "type": "uint256"
        }
      ],
      "name": "getPostSubmissionCommunity",
      "outputs": [
        {
          "internalType": "string",
          "name": "",
          "type": "string"
        }
      ],
      "stateMutability": "view",
      "type": "function"
    },
    {
      "inputs": [
        {
          "internalType": "uint256",
          "name": "_postId",
          "type": "uint256"
        }
      ],
      "name": "getPostSubmissionConsensus",
      "outputs": [
        {
          "internalType": "string",
          "name": "",
          "type": "string"
        }
      ],
      "stateMutability": "view",
      "type": "function"
    },
    {
      "inputs": [
        {
          "internalType": "uint256",
          "name": "_postId",
          "type": "uint256"
        }
      ],
      "name": "getPostSubmissionList",
      "outputs": [
        {
          "internalType": "uint256[]",
          "name": "",
          "type": "uint256[]"
        }
      ],
      "stateMutability": "view",
      "type": "function"
    },
    {
      "inputs": [
        {
          "internalType": "uint256",
          "name": "_reviewId",
          "type": "uint256"
        }
      ],
      "name": "getReview",
      "outputs": [
        {
          "components": [
            {
              "internalType": "address",
              "name": "member",
              "type": "address"
            },
            {
              "internalType": "string",
              "name": "content",
              "type": "string"
            },
            {
              "internalType": "uint256",
              "name": "consensus",
              "type": "uint256"
            },
            {
              "internalType": "string",
              "name": "consensusType",
              "type": "string"
            },
            {
              "internalType": "uint256",
              "name": "creds",
              "type": "uint256"
            },
            {
              "internalType": "bool",
              "name": "afterConsensus",
              "type": "bool"
            }
          ],
          "internalType": "struct tgetherPostConsensus.Review",
          "name": "",
          "type": "tuple"
        }
      ],
      "stateMutability": "view",
      "type": "function"
    },
    {
      "inputs": [
        {
          "internalType": "uint256",
          "name": "_reviewid",
          "type": "uint256"
        }
      ],
      "name": "getReviewConsenous",
      "outputs": [
        {
          "internalType": "uint256",
          "name": "consensus",
          "type": "uint256"
        },
        {
          "internalType": "uint256",
          "name": "creds",
          "type": "uint256"
        },
        {
          "internalType": "bool",
          "name": "afterConsensus",
          "type": "bool"
        }
      ],
      "stateMutability": "view",
      "type": "function"
    },
    {
      "inputs": [
        {
          "internalType": "uint256",
          "name": "_submissionId",
          "type": "uint256"
        }
      ],
      "name": "getReviewsForSubmission",
      "outputs": [
        {
          "internalType": "uint256[]",
          "name": "",
          "type": "uint256[]"
        }
      ],
      "stateMutability": "view",
      "type": "function"
    },
    {
      "inputs": [
        {
          "internalType": "uint256",
          "name": "_submissionId",
          "type": "uint256"
        }
      ],
      "name": "getSubmissionExpiration",
      "outputs": [
        {
          "internalType": "uint256",
          "name": "",
          "type": "uint256"
        }
      ],
      "stateMutability": "view",
      "type": "function"
    },
    {
      "inputs": [
        {
          "internalType": "uint256",
          "name": "",
          "type": "uint256"
        },
        {
          "internalType": "address",
          "name": "",
          "type": "address"
        }
      ],
      "name": "hasReviewed",
      "outputs": [
        {
          "internalType": "bool",
          "name": "",
          "type": "bool"
        }
      ],
      "stateMutability": "view",
      "type": "function"
    },
    {
      "inputs": [
        {
          "internalType": "uint256",
          "name": "submissionId",
          "type": "uint256"
        }
      ],
      "name": "manualUpkeepPost",
      "outputs": [],
      "stateMutability": "nonpayable",
      "type": "function"
    },
    {
      "inputs": [],
      "name": "maxReviews",
      "outputs": [
        {
          "internalType": "uint256",
          "name": "",
          "type": "uint256"
        }
      ],
      "stateMutability": "view",
      "type": "function"
    },
    {
      "inputs": [
        {
          "internalType": "bytes",
          "name": "performData",
          "type": "bytes"
        }
      ],
      "name": "performUpkeep",
      "outputs": [],
      "stateMutability": "nonpayable",
      "type": "function"
    },
    {
      "inputs": [
        {
          "internalType": "uint256",
          "name": "",
          "type": "uint256"
        },
        {
          "internalType": "string",
          "name": "",
          "type": "string"
        }
      ],
      "name": "postCommunities",
      "outputs": [
        {
          "internalType": "uint256",
          "name": "",
          "type": "uint256"
        }
      ],
      "stateMutability": "view",
      "type": "function"
    },
    {
      "inputs": [],
      "name": "reviewCounter",
      "outputs": [
        {
          "internalType": "uint256",
          "name": "",
          "type": "uint256"
        }
      ],
      "stateMutability": "view",
      "type": "function"
    },
    {
      "inputs": [
        {
          "internalType": "uint256",
          "name": "",
          "type": "uint256"
        }
      ],
      "name": "reviews",
      "outputs": [
        {
          "internalType": "address",
          "name": "member",
          "type": "address"
        },
        {
          "internalType": "string",
          "name": "content",
          "type": "string"
        },
        {
          "internalType": "uint256",
          "name": "consensus",
          "type": "uint256"
        },
        {
          "internalType": "string",
          "name": "consensusType",
          "type": "string"
        },
        {
          "internalType": "uint256",
          "name": "creds",
          "type": "uint256"
        },
        {
          "internalType": "bool",
          "name": "afterConsensus",
          "type": "bool"
        }
      ],
      "stateMutability": "view",
      "type": "function"
    },
    {
      "inputs": [
        {
          "internalType": "address",
          "name": "_contractAddress",
          "type": "address"
        }
      ],
      "name": "setAutomationRegistry",
      "outputs": [],
      "stateMutability": "nonpayable",
      "type": "function"
    },
    {
      "inputs": [
        {
          "internalType": "address",
          "name": "_contractAddress",
          "type": "address"
        }
      ],
      "name": "setCommunitiesContract",
      "outputs": [],
      "stateMutability": "nonpayable",
      "type": "function"
    },
    {
      "inputs": [
        {
          "internalType": "uint256",
          "name": "_feePrice",
          "type": "uint256"
        }
      ],
      "name": "setFee",
      "outputs": [],
      "stateMutability": "nonpayable",
      "type": "function"
    },
    {
      "inputs": [
        {
          "internalType": "address",
          "name": "_contract",
          "type": "address"
        }
      ],
      "name": "setLaneRegistry",
      "outputs": [],
      "stateMutability": "nonpayable",
      "type": "function"
    },
    {
      "inputs": [
        {
          "internalType": "uint256",
          "name": "_maxreviews",
          "type": "uint256"
        }
      ],
      "name": "setMaxReviews",
      "outputs": [],
      "stateMutability": "nonpayable",
      "type": "function"
    },
    {
      "inputs": [
        {
          "internalType": "address",
          "name": "_contractAddress",
          "type": "address"
        }
      ],
      "name": "setMembersContract",
      "outputs": [],
      "stateMutability": "nonpayable",
      "type": "function"
    },
    {
      "inputs": [
        {
          "internalType": "address",
          "name": "_contractAddress",
          "type": "address"
        }
      ],
      "name": "setPostsContract",
      "outputs": [],
      "stateMutability": "nonpayable",
      "type": "function"
    },
    {
      "inputs": [
        {
          "internalType": "string[]",
          "name": "_deafultArray",
          "type": "string[]"
        }
      ],
      "name": "setdefaultConsenousTypes",
      "outputs": [],
      "stateMutability": "nonpayable",
      "type": "function"
    },
    {
      "inputs": [
        {
          "internalType": "uint256",
          "name": "_communitySubmissionId",
          "type": "uint256"
        },
        {
          "internalType": "string",
          "name": "_content",
          "type": "string"
        },
        {
          "internalType": "uint256",
          "name": "_consensus",
          "type": "uint256"
        }
      ],
      "name": "submitReview",
      "outputs": [
        {
          "internalType": "uint256",
          "name": "",
          "type": "uint256"
        }
      ],
      "stateMutability": "nonpayable",
      "type": "function"
    },
    {
      "inputs": [
        {
          "internalType": "uint256",
          "name": "_postId",
          "type": "uint256"
        },
        {
          "internalType": "string",
          "name": "_communityName",
          "type": "string"
        }
      ],
      "name": "submitToCommunity",
      "outputs": [
        {
          "internalType": "uint256",
          "name": "",
          "type": "uint256"
        }
      ],
      "stateMutability": "payable",
      "type": "function"
    },
    {
      "inputs": [
        {
          "internalType": "uint256",
          "name": "",
          "type": "uint256"
        },
        {
          "internalType": "uint256",
          "name": "",
          "type": "uint256"
        }
      ],
      "name": "submmisionReviews",
      "outputs": [
        {
          "internalType": "uint256",
          "name": "",
          "type": "uint256"
        }
      ],
      "stateMutability": "view",
      "type": "function"
    }
  ],
  "bytecode": "0x6080346200033c5762002ba180380391601f19601f91818386011681019460018060401b03948287108688111762000328578160809284926040998a528339810103126200033c57620000528162000360565b926020906200006382840162000360565b9360606200007389860162000360565b94015196885190606082018281108282111762000328578a526200009662000340565b6012815271436f6e73656e736f75732050656e64696e6760701b868201528252620000c062000340565b60088152671058d8d95c1d195960c21b8682015285830152620000e262000340565b600881526714995a9958dd195960c21b868201528a8301526009549160039283600955808410620002ae575b5092915f94600986528686209386955b83871062000187578d8d8d8d8d60018060a01b0319923384601254161760125560018060a01b03928380921685600c541617600c551683600d541617600d551690600e541617600e55601055600160075560016002556064601155516127d89081620003c98239f35b80518051908682116200029a57908a91620001a3895462000375565b8681116200025f575b5082908b878411600114620001f6579260019592819287969592620001ea575b50505f19828a1b1c191690841b1789555b019601960195946200011e565b015190505f80620001cc565b50898c52838c2091908387168d5b8181106200024657509160019693918588979694106200022e575b505050831b83018955620001dd565b01515f19838b1b60f8161c191690555f80806200021f565b8284015185558f96600190950194938401930162000204565b62000289908a8d52848d20600589808701821c83019388881062000290575b01901c0190620003b0565b5f620001ac565b935082936200027e565b634e487b7160e01b8a52604160045260248afd5b5f600981528488822092830192015b828110620002cd5750506200010e565b8082620002dd6001935462000375565b80620002ed575b505001620002bd565b8a8111841462000303575081555b825f620002e4565b8282526200031e8b8d8420920160051c8201858301620003b0565b81835555620002fb565b634e487b7160e01b5f52604160045260245ffd5b5f80fd5b60408051919082016001600160401b038111838210176200032857604052565b51906001600160a01b03821682036200033c57565b90600182811c92168015620003a5575b60208310146200039157565b634e487b7160e01b5f52602260045260245ffd5b91607f169162000385565b818110620003bc575050565b5f8155600101620003b056fe6080806040526004361015610012575f80fd5b5f90813560e01c908163059597f714611eed575080631651902a14611ead5780631ea4905114611e4857806334ca35c414611c3d5780633c09203b14611bf55780634215c5e414611bd75780634585e33b146119e357806347631adb146119ba5780634ed598121461199c5780635ff2d2aa146119545780636356eea414611110578063651fa206146110c857806369fe0e2d146110985780636c79bd2b146110275780637c7198cc14610fd757806385dba40114610775578063884b80f214610fad578063990581b614610e93578063a594004114610e75578063ac97980d14610e4b578063ad2957ff14610e03578063b9e2fc3e14610db9578063c5dce24d14610d3e578063d1a34aa314610d0e578063d39065fa14610cc6578063d3a3f77114610c80578063d46219a214610c45578063d8db3807146109aa578063de8b32c5146108c2578063e148577614610899578063e168b3a81461087b578063e83ddcea146107c7578063ea487a921461077a578063eabccdb614610775578063eeb0cf7614610734578063f2793902146107045763fa1396f5146101b5575f80fd5b6101be366121d7565b600e54604051632c89540360e21b8152600481018490526001600160a01b0393916020908290602490829088165afa9081156105ee5785916106c6575b501561068b5782600c5416916040516324c9db2f60e01b8152602060048201526020818061022c6024820186612095565b0381875afa90811561057157869161064d575b50156105f95760206040518094633bebe05160e01b8252826004830152818061026b6024820187612095565b03915afa9283156105ee5785936105ba575b506040519361028b85611fbc565b8185524260208601528360408601526001606086015283155f146104ea57508460608501525b6002549384865285602052604086209080518051906001600160401b0382116104d6576102de8454612101565b601f811161049b575b50602090601f83116001146104355760609392918a918361042a575b50508160011b915f199060031b1c19161783555b6020810151600184015560408101516002840155015190600482101561041657927fe4c157bdf18b292c67a85f8afa9036d1fd70e345be3ad305fafc7841c4801a3f6020976103fd7fd3f28a1c655091033012bc55d258bf3cbd4ea4fb8bc2ff81c626a2aad9354e469561039160409660038c9a01612243565b84835260038b526103a48887852061225b565b87835260018b52848684205584835260048b52858320908887518d81845195828601966103d281848a612074565b820190815203019020556103e760025461228f565b600255888751968796868897a351928391612074565b81010390209381519042825287820152a3604051908152f35b634e487b7160e01b87526021600452602487fd5b015190505f80610303565b848a5260208a209190601f1984168b5b818110610483575091600193918560609796941061046b575b505050811b018355610317565b01515f1960f88460031b161c191690555f808061045e565b92936020600181928786015181550195019301610445565b6104c690858b5260208b20601f850160051c810191602086106104cc575b601f0160051c019061222d565b5f6102e7565b90915081906104b9565b634e487b7160e01b89526041600452602489fd5b601054340361057c57600f5416602060025460246040518094819363a993983b60e01b8352600483015234905af190811561057157869161053b575b506002548652600560205260408620556102b1565b90506020813d602011610569575b8161055660209383611ff2565b8101031261056557515f610526565b5f80fd5b3d9150610549565b6040513d88823e3d90fd5b60405162461bcd60e51b81526020600482015260166024820152754d7573742073656e642070726f706f73616c2066656560501b6044820152606490fd5b9092506020813d6020116105e6575b816105d660209383611ff2565b810103126105655751915f61027d565b3d91506105c9565b6040513d87823e3d90fd5b60405162461bcd60e51b815260206004820152602660248201527f436f6d6d756e69747920436f6e73656e73757320506172616d7320646f6e277460448201526508195e1a5cdd60d21b6064820152608490fd5b90506020813d602011610683575b8161066860209383611ff2565b8101031261067f5761067990612220565b5f61023f565b8580fd5b3d915061065b565b60405162461bcd60e51b8152602060048201526013602482015272141bdcdd08191bd95cc81b9bdd08195e1a5cdd606a1b6044820152606490fd5b90506020813d6020116106fc575b816106e160209383611ff2565b810103126106f8576106f290612220565b5f6101fb565b8480fd5b3d91506106d4565b5034610731576020366003190112610731576040610723600435612481565b825191151582526020820152f35b80fd5b50346107315761074336611f12565b919081526003602052604081209081548310156107315760206107668484611f28565b90549060031b1c604051908152f35b6120ba565b50346107315760203660031901126107315760ff600360406020936004358082528186526107af60018484200154151561229d565b8152808552200154166107c560405180926121ca565bf35b5034610731576020366003190112610731576004358152600660205260409081902080549151916001600160a01b031690610810836108098160018501612139565b0384611ff2565b600281015461086a6040519161082d836108098160038801612139565b60ff600560048601549501541692610857604051978897885260c0602089015260c0880190612095565b9160408701528582036060870152612095565b916080840152151560a08301520390f35b50346107315780600319360112610731576020600754604051908152f35b5034610731578060031936011261073157600d546040516001600160a01b039091168152602090f35b503461073157602090816003193601126107315780604091606083516108e781611fbc565b818152828682015282858201520152600435815280835220906040519061090d82611fbc565b6040516109258161091e8187612139565b0382611ff2565b825260018301549080830191825260ff60036002860154956040860196875201541693606084019060048610156109965761097a610992936080978452604051978897828952519188015260a0870190612095565b935160408601525160608501525160808401906121ca565b0390f35b634e487b7160e01b5f52602160045260245ffd5b503461073157602080600319360112610c41576004356001600160401b0391828211610c3d5736602383011215610c3d5781600401356109e981612209565b936109f76040519586611ff2565b81855282850194859460249687600595861b83010191368311610c3957888101915b838310610c0f5750505050610a3960018060a01b0360125416331461275d565b5193600160401b8511610bfc5760095485600955808610610b8b575b509491600987528387209287965b868810610a6e578880f35b8051805190858211610b7857908791610a878854612101565b908c601f9285848211610b44575b5050508c84928411600114610ade579260019592819287969592610ad3575b50505f19600383901b1c191690841b1788555b01950197019693610a63565b015190505f80610ab4565b9190601f1984168a8452858420935b818110610b2c5750916001969391858897969410610b14575b505050831b83018855610ac7565b01515f1960f88460031b161c191690555f8080610b06565b8284015185558c966001909501949384019301610aed565b828c610b67945220848087018b1c820192888810610b6f575b018a1c019061222d565b8c5f85610a95565b92508192610b5d565b634e487b7160e01b8b526041600452838bfd5b600988528585892091820191015b818110610ba65750610a55565b8089610bb460019354612101565b80610bc2575b505001610b99565b601f8082118514610bdb575050505f81555b895f610bba565b610bf3908484528a84209201891c820185830161222d565b5f835555610bd4565b634e487b7160e01b875260416004528587fd5b8235868111610c35578891610c2a83928d369187010161202e565b815201920191610a19565b8b80fd5b8980fd5b8380fd5b5080fd5b503461073157602036600319011261073157610c78604060209260043581528084522060026001820154910154906122e5565b604051908152f35b503461073157610cb4602080926040610c98366121d7565b9290815260048452208260405194838680955193849201612074565b82019081520301902054604051908152f35b503461073157602036600319011261073157610ce0611f77565b6012546001600160a01b039190610cfa908316331461275d565b1660018060a01b0319600e541617600e5580f35b503461073157602036600319011261073157610d3560018060a01b0360125416331461275d565b60043560115580f35b5034610731576020366003190112610731576040610da4916004358152806020522060405190610d7982610d728184612139565b0383611ff2565b61099260018201549160ff600360028301549201541690604051958695608087526080870190612095565b936020860152604085015260608401906121ca565b5034610731576020366003190112610731576040606091600435815260066020522060028101549060ff600560048301549201541690604051928352602083015215156040820152f35b503461073157602036600319011261073157610e1d611f77565b6012546001600160a01b039190610e37908316331461275d565b1660018060a01b0319600c541617600c5580f35b50346107315760203660031901126107315760406020916004358152600183522054604051908152f35b50346107315780600319360112610731576020600254604051908152f35b50346107315760209081600319360112610731578060409160a08351610eb881611f8d565b828152606086820152828582015260608082015282608082015201526004358152600683522060405190610eeb82611f8d565b60018060a01b0392838254168352610f9a604051610f108161091e8160018801612139565b82850190815260028401549060408601918252610f8160405191610f3b836108098160038b01612139565b6060880192835260ff600560048901549860808b01998a520154169560a089019615158752604051998a99828b525116908901525160c0604089015260e0880190612095565b9151606087015251858203601f19016080870152612095565b915160a084015251151560c08301520390f35b50346107315760203660031901126107315760406020916004358152600583522054604051908152f35b5034610731576040366003190112610731576024356001600160a01b0381169190829003610565576040906004358152600a60205220905f52602052602060ff60405f2054166040519015158152f35b503461073157602080600319360112610c415760043582526008815260408220916040518092808554928381520194835280832092905b828210611081576109928561107581890382611ff2565b60405191829182611f3d565b83548652948501946001938401939091019061105e565b5034610731576020366003190112610731576110bf60018060a01b0360125416331461275d565b60043560105580f35b5034610731576020366003190112610731576110e2611f77565b6012546001600160a01b0391906110fc908316331461275d565b1660018060a01b0319600f541617600f5580f35b5034610731576060366003190112610731576024356001600160401b038111610c415761114190369060040161202e565b9060043581528060205261115d6001604083200154151561229d565b61119c8160018060a01b03600c541660043582528160205260408220906040518080958194626e7c3160e91b8352602060048401526024830190612139565b03915afa908115611949578291611821575b50600160443511156117dd576111c86009548251906122e5565b6044351161179d576004358252600a60205260408220335f5260205260ff60405f20541661174e5761125a906004358352600a60205260408320335f5260205260405f20600160ff19825416179055602060018060a01b03600d54166004358552848252604085209060405180809681946302b5df5960e01b8352336004840152604060248401526044830190612139565b03915afa91821561174357839261170f575b506009549060443582106116be57505f19906044358083019081116116aa571015611696576112b161091e9160095f5260443560205f20010160405192838092612139565b925b829360043584528360205260ff600360408620015416600481101561168257600103611679575b604051946112e786611f8d565b3386526020860195838752604435604082015282606082015284608082015281151560a082015260075486526006602052604086209660018060a01b0382511660018060a01b03198954161788555180516001600160401b0381116115c7578060018a01926113568454612101565b601f8111611649575b50602090601f83116001146115e6578a926115db575b50508160011b915f199060031b1c19161790555b6040810151600288015560608101519687516001600160401b0381116115c7576113b66003830154612101565b601f8111611594575b506020601f82116001146114f957600561149c9593837ffab0b7cc55d5c47eef9ab7fcd4c01a41a4ddfa36cec643d2a9cb97b3f57915d498969460a0948d9e6114bf9e926114ee575b50508160011b915f199060031b1c19161760038201555b6080840151600482015501910151151560ff8019835416911617905560043588526008602052611455604089206007549061225b565b6114af600754968796604051958695338d8b7f953de3727de1848ea7329bee97a44132bdd8271d8d663eb90bc2772f21541ec86004359280a4608087526080870190612095565b9160208601528482036040860152612095565b90151560608301520390a261228f565b90816007555f1982019182116114da57602082604051908152f35b634e487b7160e01b81526011600452602490fd5b015190505f80611408565b6003830189526020892099895b601f198416811061157c575061149c95936001846114bf9c9d60a0956005957ffab0b7cc55d5c47eef9ab7fcd4c01a41a4ddfa36cec643d2a9cb97b3f57915d49c9a98601f19811610611564575b505050811b01600382015561141f565b01515f1960f88460031b161c191690555f8080611554565b828201518c556001909b019a60209283019201611506565b6115c190600384018a5260208a20601f840160051c810191602085106104cc57601f0160051c019061222d565b5f6113bf565b634e487b7160e01b88526041600452602488fd5b015190505f80611375565b848b5260208b209250601f1984168b5b8181106116315750908460019594939210611619575b505050811b019055611389565b01515f1960f88460031b161c191690555f808061160c565b929360206001819287860151815501950193016115f6565b61167390858c5260208c20601f850160051c810191602086106104cc57601f0160051c019061222d565b5f61135f565b600194506112da565b634e487b7160e01b85526021600452602485fd5b634e487b7160e01b5f52603260045260245ffd5b634e487b7160e01b85526011600452602485fd5b6044359182039182116116fb575f1982019182116116e757906116e0916122f2565b51926112b3565b634e487b7160e01b84526011600452602484fd5b634e487b7160e01b5f52601160045260245ffd5b9091506020813d60201161173b575b8161172b60209383611ff2565b810103126105655751905f61126c565b3d915061171e565b6040513d85823e3d90fd5b60405162461bcd60e51b815260206004820152602160248201527f596f7527766520616c7265616479207265766965776564207468697320706f736044820152601d60fa1b6064820152608490fd5b60405162461bcd60e51b8152602060048201526018602482015277436f6e73656e736f7573204e6f7420496e20426f756e647360401b6044820152606490fd5b606460405162461bcd60e51b815260206004820152602060248201527f436f6e73656e736f7573206d75732062652067726561746572207468616e20316044820152fd5b90503d8083833e6118328183611ff2565b60208282810103126119455781516001600160401b038111610c3d57818301601f828501011215610c3d57808301519061186b82612209565b936118796040519586611ff2565b828552602085019184820160208560051b83850101011161194157602081830101925b60208560051b838501010184106118b9575050505050505f6111ae565b83516001600160401b03811161193d57868401603f828587010101121561193d576020818486010101516118ec81612013565b916118fa6040519384611ff2565b81835288860160408383888a010101011161193957928261192c60209593869594604087809701918a8c010101612074565b815201940193905061189c565b8a80fd5b8880fd5b8680fd5b8280fd5b6040513d84823e3d90fd5b50346107315760203660031901126107315761196e611f77565b6012546001600160a01b039190611988908316331461275d565b1660018060a01b0319600b541617600b5580f35b50346107315780600319360112610731576020601154604051908152f35b5034610731578060031936011261073157600c546040516001600160a01b039091168152602090f35b503461073157602080600319360112610c41576001600160401b0390600435828111610c3d5736602382011215610c3d578060040135928311610c3d57828101602493368583011161067f578303611b93578183910312610c3d578201359183831215611b8d57611a5383612306565b60018060a01b0380600f5416828752600585528460408820548560405180948193636f0817eb60e11b835260048301525afa908115611b82578791611b55575b501691823303611b04579083916040518094819363d670d4a960e01b835260048301525afa8015611af957611ad0575b83611acd84612335565b80f35b813d8311611af2575b611ae38183611ff2565b81010312610565575f80611ac3565b503d611ad9565b6040513d86823e3d90fd5b8360256084926040519262461bcd60e51b845260048401528201527f4f6e6c79206c616e6520636f6e74726163742063616e20706572666f726d20756044820152640706b6565760dc1b6064820152fd5b611b759150853d8711611b7b575b611b6d8183611ff2565b810190612316565b5f611a93565b503d611b63565b6040513d89823e3d90fd5b82611a53565b60405162461bcd60e51b815260048101849052601a818601527f496e76616c696420706572666f726d44617461206c656e6774680000000000006044820152606490fd5b50346107315780600319360112610731576020601054604051908152f35b503461073157602036600319011261073157611c0f611f77565b6012546001600160a01b039190611c29908316331461275d565b1660018060a01b0319600d541617600d5580f35b503461073157602080600319360112610c41576004358015611e0b57808352828252600160408420015415611db357611c7590612481565b919015611d605781611c878493612335565b82811215611d5a57611c9890612306565b905b60018060a01b039081600f541683855260058252816040862054602460405180948193636f0817eb60e11b835260048301525afa9182156105ee578592611d3d575b505016803b15611d39576024839260405194859384926302e43da960e31b845260048401525af1801561194957611d11575080f35b6001600160401b038111611d255760405280f35b634e487b7160e01b82526041600452602482fd5b5050fd5b611d539250803d10611b7b57611b6d8183611ff2565b5f80611cdc565b90611c9a565b60405162461bcd60e51b815260206004820152602560248201527f55706b656570206e6f74206e656564656420666f722074686973207375626d6960448201526439b9b4b7b760d91b6064820152608490fd5b60405162461bcd60e51b815260048101839052602a60248201527f5375626d697373696f6e20646f6573206e6f74206578697374206f72206973206044820152696e6f742061637469766560b01b6064820152608490fd5b60405162461bcd60e51b8152600481018390526015602482015274125b9d985b1a59081cdd589b5a5cdcda5bdb881251605a1b6044820152606490fd5b503461073157602080600319360112610c415760043582526003815260408220916040518092808554928381520194835280832092905b828210611e96576109928561107581890382611ff2565b835486529485019460019384019390910190611e7f565b503461073157611ebc36611f12565b91908152600860205260408120908154831015610731576020611edf8484611f28565b90546040519160031b1c8152f35b905034610c415781600319360112610c4157600e546001600160a01b03168152602090f35b6040906003190112610565576004359060243590565b8054821015611696575f5260205f2001905f90565b602090816040818301928281528551809452019301915f5b828110611f63575050505090565b835185529381019392810192600101611f55565b600435906001600160a01b038216820361056557565b60c081019081106001600160401b03821117611fa857604052565b634e487b7160e01b5f52604160045260245ffd5b608081019081106001600160401b03821117611fa857604052565b604081019081106001600160401b03821117611fa857604052565b90601f801991011681019081106001600160401b03821117611fa857604052565b6001600160401b038111611fa857601f01601f191660200190565b81601f820112156105655780359061204582612013565b926120536040519485611ff2565b8284526020838301011161056557815f926020809301838601378301015290565b5f5b8381106120855750505f910152565b8181015183820152602001612076565b906020916120ae81518092818552858086019101612074565b601f01601f1916010190565b34610565576020366003190112610565576004355f525f60205261099261091e6120ed60405f2060405192838092612139565b604051918291602083526020830190612095565b90600182811c9216801561212f575b602083101461211b57565b634e487b7160e01b5f52602260045260245ffd5b91607f1691612110565b905f929180549161214983612101565b9182825260019384811690815f146121a7575060011461216a575b50505050565b90919394505f52602092835f2092845f945b83861061219357505050500101905f808080612164565b80548587018301529401938590820161217c565b9294505050602093945060ff191683830152151560051b0101905f808080612164565b9060048210156109965752565b9060406003198301126105655760043591602435906001600160401b038211610565576122069160040161202e565b90565b6001600160401b038111611fa85760051b60200190565b5190811515820361056557565b818110612238575050565b5f815560010161222d565b9060048110156109965760ff80198354169116179055565b8054600160401b811015611fa85761227891600182018155611f28565b819291549060031b91821b915f19901b1916179055565b5f1981146116fb5760010190565b156122a457565b60405162461bcd60e51b815260206004820152601960248201527814dd589b5a5cdcda5bdb88191bd95cc81b9bdd08195e1a5cdd603a1b6044820152606490fd5b919082018092116116fb57565b80518210156116965760209160051b010190565b600160ff1b81146116fb575f0390565b9081602091031261056557516001600160a01b03811681036105655790565b5f919082811390811561247257905b8115158061244b575b80612434575b15611d60571561242d5760025b81845260209084825261237a604091600383882001612243565b82855260018252808520549085835260ff6003828820015416600481101561041657906002612403927f3ed188edba0c6b2d9b7a54cec2942f1cab56a63a4dcfdca5ff11706ffdf25b1e96979850145f146124085780516123da81611fd7565b60088152671058d8d95c1d195960c21b85820152905b8080519586958652850152830190612095565b0390a2565b805161241381611fd7565b600881526714995a9958dd195960c21b85820152906123f0565b6003612360565b508184528360205260016040852001541515612353565b508184528360205261246a6040852060026001820154910154906122e5565b42101561234d565b61247b90612306565b90612344565b5f915f91805f525f6020526124a360405f2060026001820154910154906122e5565b4210156124ad5750565b925090506122066001926124d1565b90815f03918083055f1914901517156116fb57565b60018060a01b03600c54165f90828252602090828252604092838120845192632691798960e01b84528360049186838301526060958691818061251960249889830190612139565b03915afa96871561275457849185908699612718575b508986526008885281862090825180838b8295549384815201908a528b8a20928a5b8d8282106127025750505061256892500383611ff2565b838251106126ef57869787998351601154908181115f146126e75750935b895b85811061260f5750505050505050851580918115612605575b506125f5576064850294808604606414901517156125e3576125d25750505004106125c95790565b612206906124bc565b634e487b7160e01b83526012905281fd5b50634e487b7160e01b83526011905281fd5b50505050505050612206906124bc565b905086105f6125a1565b61261981836122f2565b51875190635cf17e1f60e11b82528a82015284818c81305afa80156126dd578c879181938291612699575b5061268d57101561265f575b5061265a9061228f565b612588565b9c61266b60029161228f565b9d14612678575b5f612650565b9a61268561265a9161228f565b9b9050612672565b50505061265a9061228f565b93505050508481813d83116126d6575b6126b38183611ff2565b81010312610c35578581516126cd8a878501519401612220565b9092905f612644565b503d6126a9565b88513d8e823e3d90fd5b905093612586565b50505050505050505050612206906124bc565b8554845260019586019588955093019201612551565b92505096508481813d831161274d575b6127328183611ff2565b81010312610c3d57805196808783015192015197915f61252f565b503d612728565b513d85823e3d90fd5b1561276457565b60405162461bcd60e51b81526020600482015260166024820152752737ba103a34329031b7b73a3930b1ba1037bbb732b960511b6044820152606490fdfea2646970667358221220e2bb4f3fa5befcbe6f8dc8c01af6b625e6380f094500aabe6090b9f1d440fab164736f6c63430008140033",
  "linkReferences": {},
  "deployedLinkReferences": {}
}