{
  "_format": "hh-sol-artifact-1",
  "contractName": "tgetherPostConsensus",
  "sourceName": "contracts/tgehterPostConsensus.sol",
  "abi": [
    {
      "inputs": [
        {
          "internalType": "address",
          "name": "_CommunityConsensusAddress",
          "type": "address"
        },
        {
          "internalType": "address",
          "name": "_MembersContract",
          "type": "address"
        },
        {
          "internalType": "address",
          "name": "_PostContract",
          "type": "address"
        },
        {
          "internalType": "uint256",
          "name": "_fee",
          "type": "uint256"
        },
        {
          "internalType": "address payable",
          "name": "_feeAddress",
          "type": "address"
        }
      ],
      "stateMutability": "nonpayable",
      "type": "constructor"
    },
    {
      "anonymous": false,
      "inputs": [
        {
          "indexed": false,
          "internalType": "uint256",
          "name": "communitySubmissionId",
          "type": "uint256"
        },
        {
          "indexed": false,
          "internalType": "uint256",
          "name": "index",
          "type": "uint256"
        }
      ],
      "name": "ActiveSubmissionsIndexUpdated",
      "type": "event"
    },
    {
      "anonymous": false,
      "inputs": [
        {
          "indexed": true,
          "internalType": "uint256",
          "name": "communtiySubmissionId",
          "type": "uint256"
        },
        {
          "indexed": true,
          "internalType": "string",
          "name": "communityName",
          "type": "string"
        },
        {
          "indexed": false,
          "internalType": "uint256",
          "name": "timestamp",
          "type": "uint256"
        },
        {
          "indexed": false,
          "internalType": "uint256",
          "name": "consensusTime",
          "type": "uint256"
        }
      ],
      "name": "CommunitySubmitted",
      "type": "event"
    },
    {
      "anonymous": false,
      "inputs": [
        {
          "indexed": true,
          "internalType": "uint256",
          "name": "communitySubmissionId",
          "type": "uint256"
        },
        {
          "indexed": false,
          "internalType": "uint256",
          "name": "postId",
          "type": "uint256"
        },
        {
          "indexed": false,
          "internalType": "string",
          "name": "newConsensus",
          "type": "string"
        }
      ],
      "name": "ConsensusUpdated",
      "type": "event"
    },
    {
      "anonymous": false,
      "inputs": [
        {
          "indexed": false,
          "internalType": "uint256",
          "name": "postId",
          "type": "uint256"
        },
        {
          "indexed": false,
          "internalType": "string",
          "name": "keyword",
          "type": "string"
        }
      ],
      "name": "Keywords",
      "type": "event"
    },
    {
      "anonymous": false,
      "inputs": [
        {
          "indexed": true,
          "internalType": "uint256",
          "name": "postId",
          "type": "uint256"
        },
        {
          "indexed": true,
          "internalType": "uint256",
          "name": "communitySubmissionId",
          "type": "uint256"
        }
      ],
      "name": "PostSubmission",
      "type": "event"
    },
    {
      "anonymous": false,
      "inputs": [
        {
          "indexed": true,
          "internalType": "uint256",
          "name": "reviewId",
          "type": "uint256"
        },
        {
          "indexed": true,
          "internalType": "uint256",
          "name": "communitySubmissionId",
          "type": "uint256"
        },
        {
          "indexed": true,
          "internalType": "address",
          "name": "member",
          "type": "address"
        }
      ],
      "name": "ReviewCreated",
      "type": "event"
    },
    {
      "anonymous": false,
      "inputs": [
        {
          "indexed": true,
          "internalType": "uint256",
          "name": "reviewId",
          "type": "uint256"
        },
        {
          "indexed": false,
          "internalType": "string",
          "name": "consensus",
          "type": "string"
        },
        {
          "indexed": false,
          "internalType": "uint256",
          "name": "creds",
          "type": "uint256"
        },
        {
          "indexed": false,
          "internalType": "string",
          "name": "content",
          "type": "string"
        },
        {
          "indexed": false,
          "internalType": "bool",
          "name": "afterConsensus",
          "type": "bool"
        }
      ],
      "name": "ReviewSubmitted",
      "type": "event"
    },
    {
      "inputs": [
        {
          "internalType": "uint256",
          "name": "",
          "type": "uint256"
        }
      ],
      "name": "ActiveSubmissions",
      "outputs": [
        {
          "internalType": "uint256",
          "name": "",
          "type": "uint256"
        }
      ],
      "stateMutability": "view",
      "type": "function"
    },
    {
      "inputs": [
        {
          "internalType": "uint256",
          "name": "",
          "type": "uint256"
        }
      ],
      "name": "ActiveSubmissionsIndexes",
      "outputs": [
        {
          "internalType": "uint256",
          "name": "",
          "type": "uint256"
        }
      ],
      "stateMutability": "view",
      "type": "function"
    },
    {
      "inputs": [],
      "name": "CommunityConsensusContract",
      "outputs": [
        {
          "internalType": "contract tgetherCommunityConsensusInterface",
          "name": "",
          "type": "address"
        }
      ],
      "stateMutability": "view",
      "type": "function"
    },
    {
      "inputs": [
        {
          "internalType": "uint256",
          "name": "",
          "type": "uint256"
        }
      ],
      "name": "CommunitySubmissionToPost",
      "outputs": [
        {
          "internalType": "uint256",
          "name": "",
          "type": "uint256"
        }
      ],
      "stateMutability": "view",
      "type": "function"
    },
    {
      "inputs": [
        {
          "internalType": "uint256",
          "name": "",
          "type": "uint256"
        }
      ],
      "name": "CommunitySubmissions",
      "outputs": [
        {
          "internalType": "string",
          "name": "communityName",
          "type": "string"
        },
        {
          "internalType": "string",
          "name": "consensusType",
          "type": "string"
        },
        {
          "internalType": "uint256",
          "name": "timestamp",
          "type": "uint256"
        },
        {
          "internalType": "uint256",
          "name": "consensusTime",
          "type": "uint256"
        }
      ],
      "stateMutability": "view",
      "type": "function"
    },
    {
      "inputs": [],
      "name": "MembersContract",
      "outputs": [
        {
          "internalType": "contract tgetherMembersInterface",
          "name": "",
          "type": "address"
        }
      ],
      "stateMutability": "view",
      "type": "function"
    },
    {
      "inputs": [
        {
          "internalType": "uint256",
          "name": "",
          "type": "uint256"
        },
        {
          "internalType": "uint256",
          "name": "",
          "type": "uint256"
        }
      ],
      "name": "PostSubmissionList",
      "outputs": [
        {
          "internalType": "uint256",
          "name": "",
          "type": "uint256"
        }
      ],
      "stateMutability": "view",
      "type": "function"
    },
    {
      "inputs": [],
      "name": "PostsContract",
      "outputs": [
        {
          "internalType": "contract tgetherPostsInterface",
          "name": "",
          "type": "address"
        }
      ],
      "stateMutability": "view",
      "type": "function"
    },
    {
      "inputs": [
        {
          "internalType": "bytes",
          "name": "",
          "type": "bytes"
        }
      ],
      "name": "checkUpkeep",
      "outputs": [
        {
          "internalType": "bool",
          "name": "upkeepNeeded",
          "type": "bool"
        },
        {
          "internalType": "bytes",
          "name": "",
          "type": "bytes"
        }
      ],
      "stateMutability": "view",
      "type": "function"
    },
    {
      "inputs": [],
      "name": "consensusFee",
      "outputs": [
        {
          "internalType": "uint256",
          "name": "",
          "type": "uint256"
        }
      ],
      "stateMutability": "view",
      "type": "function"
    },
    {
      "inputs": [],
      "name": "csCounter",
      "outputs": [
        {
          "internalType": "uint256",
          "name": "",
          "type": "uint256"
        }
      ],
      "stateMutability": "view",
      "type": "function"
    },
    {
      "inputs": [],
      "name": "getActiveSubmissions",
      "outputs": [
        {
          "internalType": "uint256[]",
          "name": "",
          "type": "uint256[]"
        }
      ],
      "stateMutability": "view",
      "type": "function"
    },
    {
      "inputs": [
        {
          "internalType": "uint256",
          "name": "_postId",
          "type": "uint256"
        }
      ],
      "name": "getActiveSubmissionsIndex",
      "outputs": [
        {
          "internalType": "uint256",
          "name": "",
          "type": "uint256"
        }
      ],
      "stateMutability": "view",
      "type": "function"
    },
    {
      "inputs": [],
      "name": "getActiveSubmissionsLength",
      "outputs": [
        {
          "internalType": "uint256",
          "name": "",
          "type": "uint256"
        }
      ],
      "stateMutability": "view",
      "type": "function"
    },
    {
      "inputs": [
        {
          "internalType": "uint256",
          "name": "_communitySubmissionId",
          "type": "uint256"
        }
      ],
      "name": "getCommunitySubmission",
      "outputs": [
        {
          "components": [
            {
              "internalType": "string",
              "name": "communityName",
              "type": "string"
            },
            {
              "internalType": "string",
              "name": "consensusType",
              "type": "string"
            },
            {
              "internalType": "uint256",
              "name": "timestamp",
              "type": "uint256"
            },
            {
              "internalType": "uint256",
              "name": "consensusTime",
              "type": "uint256"
            }
          ],
          "internalType": "struct tgetherPostConsensus.CommunitySubmission",
          "name": "",
          "type": "tuple"
        }
      ],
      "stateMutability": "view",
      "type": "function"
    },
    {
      "inputs": [
        {
          "internalType": "uint256",
          "name": "_submissionId",
          "type": "uint256"
        }
      ],
      "name": "getPostConsesous",
      "outputs": [
        {
          "internalType": "string",
          "name": "consensus",
          "type": "string"
        }
      ],
      "stateMutability": "view",
      "type": "function"
    },
    {
      "inputs": [
        {
          "internalType": "uint256",
          "name": "_postId",
          "type": "uint256"
        }
      ],
      "name": "getPostSubmissionList",
      "outputs": [
        {
          "internalType": "uint256[]",
          "name": "",
          "type": "uint256[]"
        }
      ],
      "stateMutability": "view",
      "type": "function"
    },
    {
      "inputs": [
        {
          "internalType": "uint256",
          "name": "_reviewId",
          "type": "uint256"
        }
      ],
      "name": "getReview",
      "outputs": [
        {
          "components": [
            {
              "internalType": "address",
              "name": "member",
              "type": "address"
            },
            {
              "internalType": "string",
              "name": "content",
              "type": "string"
            },
            {
              "internalType": "uint256",
              "name": "consensus",
              "type": "uint256"
            },
            {
              "internalType": "string",
              "name": "consensusType",
              "type": "string"
            },
            {
              "internalType": "uint256",
              "name": "creds",
              "type": "uint256"
            },
            {
              "internalType": "bool",
              "name": "afterConsensus",
              "type": "bool"
            }
          ],
          "internalType": "struct tgetherPostConsensus.Review",
          "name": "",
          "type": "tuple"
        }
      ],
      "stateMutability": "view",
      "type": "function"
    },
    {
      "inputs": [
        {
          "internalType": "uint256",
          "name": "_reviewid",
          "type": "uint256"
        }
      ],
      "name": "getReviewConsenous",
      "outputs": [
        {
          "internalType": "uint256",
          "name": "consensus",
          "type": "uint256"
        },
        {
          "internalType": "uint256",
          "name": "creds",
          "type": "uint256"
        }
      ],
      "stateMutability": "view",
      "type": "function"
    },
    {
      "inputs": [
        {
          "internalType": "uint256",
          "name": "_submissionId",
          "type": "uint256"
        }
      ],
      "name": "getReviewsForSubmission",
      "outputs": [
        {
          "internalType": "uint256[]",
          "name": "",
          "type": "uint256[]"
        }
      ],
      "stateMutability": "view",
      "type": "function"
    },
    {
      "inputs": [
        {
          "internalType": "uint256",
          "name": "",
          "type": "uint256"
        },
        {
          "internalType": "address",
          "name": "",
          "type": "address"
        }
      ],
      "name": "hasReviewed",
      "outputs": [
        {
          "internalType": "bool",
          "name": "",
          "type": "bool"
        }
      ],
      "stateMutability": "view",
      "type": "function"
    },
    {
      "inputs": [],
      "name": "maxReviews",
      "outputs": [
        {
          "internalType": "uint256",
          "name": "",
          "type": "uint256"
        }
      ],
      "stateMutability": "view",
      "type": "function"
    },
    {
      "inputs": [
        {
          "internalType": "bytes",
          "name": "_performData",
          "type": "bytes"
        }
      ],
      "name": "performUpkeep",
      "outputs": [],
      "stateMutability": "nonpayable",
      "type": "function"
    },
    {
      "inputs": [
        {
          "internalType": "uint256",
          "name": "",
          "type": "uint256"
        },
        {
          "internalType": "string",
          "name": "",
          "type": "string"
        }
      ],
      "name": "postCommunities",
      "outputs": [
        {
          "internalType": "uint256",
          "name": "",
          "type": "uint256"
        }
      ],
      "stateMutability": "view",
      "type": "function"
    },
    {
      "inputs": [],
      "name": "reviewCounter",
      "outputs": [
        {
          "internalType": "uint256",
          "name": "",
          "type": "uint256"
        }
      ],
      "stateMutability": "view",
      "type": "function"
    },
    {
      "inputs": [
        {
          "internalType": "uint256",
          "name": "",
          "type": "uint256"
        }
      ],
      "name": "reviews",
      "outputs": [
        {
          "internalType": "address",
          "name": "member",
          "type": "address"
        },
        {
          "internalType": "string",
          "name": "content",
          "type": "string"
        },
        {
          "internalType": "uint256",
          "name": "consensus",
          "type": "uint256"
        },
        {
          "internalType": "string",
          "name": "consensusType",
          "type": "string"
        },
        {
          "internalType": "uint256",
          "name": "creds",
          "type": "uint256"
        },
        {
          "internalType": "bool",
          "name": "afterConsensus",
          "type": "bool"
        }
      ],
      "stateMutability": "view",
      "type": "function"
    },
    {
      "inputs": [
        {
          "internalType": "address",
          "name": "_contractAddress",
          "type": "address"
        }
      ],
      "name": "setAutomationRegistry",
      "outputs": [],
      "stateMutability": "nonpayable",
      "type": "function"
    },
    {
      "inputs": [
        {
          "internalType": "address",
          "name": "_contractAddress",
          "type": "address"
        }
      ],
      "name": "setCommunitiesContract",
      "outputs": [],
      "stateMutability": "nonpayable",
      "type": "function"
    },
    {
      "inputs": [
        {
          "internalType": "uint256",
          "name": "_feePrice",
          "type": "uint256"
        }
      ],
      "name": "setFee",
      "outputs": [],
      "stateMutability": "nonpayable",
      "type": "function"
    },
    {
      "inputs": [
        {
          "internalType": "address payable",
          "name": "_feeAddress",
          "type": "address"
        }
      ],
      "name": "setFeeAddress",
      "outputs": [],
      "stateMutability": "nonpayable",
      "type": "function"
    },
    {
      "inputs": [
        {
          "internalType": "uint256",
          "name": "_maxreviews",
          "type": "uint256"
        }
      ],
      "name": "setMaxReviews",
      "outputs": [],
      "stateMutability": "nonpayable",
      "type": "function"
    },
    {
      "inputs": [
        {
          "internalType": "address",
          "name": "_contractAddress",
          "type": "address"
        }
      ],
      "name": "setMembersContract",
      "outputs": [],
      "stateMutability": "nonpayable",
      "type": "function"
    },
    {
      "inputs": [
        {
          "internalType": "address",
          "name": "_contractAddress",
          "type": "address"
        }
      ],
      "name": "setPostsContract",
      "outputs": [],
      "stateMutability": "nonpayable",
      "type": "function"
    },
    {
      "inputs": [
        {
          "internalType": "string[]",
          "name": "_deafultArray",
          "type": "string[]"
        }
      ],
      "name": "setdefaultConsenousTypes",
      "outputs": [],
      "stateMutability": "nonpayable",
      "type": "function"
    },
    {
      "inputs": [
        {
          "internalType": "uint256",
          "name": "_communitySubmissionId",
          "type": "uint256"
        },
        {
          "internalType": "string",
          "name": "_content",
          "type": "string"
        },
        {
          "internalType": "uint256",
          "name": "_consensus",
          "type": "uint256"
        }
      ],
      "name": "submitReview",
      "outputs": [
        {
          "internalType": "uint256",
          "name": "",
          "type": "uint256"
        }
      ],
      "stateMutability": "nonpayable",
      "type": "function"
    },
    {
      "inputs": [
        {
          "internalType": "uint256",
          "name": "_postId",
          "type": "uint256"
        },
        {
          "internalType": "string",
          "name": "_communityName",
          "type": "string"
        }
      ],
      "name": "submitToCommunity",
      "outputs": [
        {
          "internalType": "uint256",
          "name": "",
          "type": "uint256"
        }
      ],
      "stateMutability": "payable",
      "type": "function"
    },
    {
      "inputs": [
        {
          "internalType": "uint256",
          "name": "",
          "type": "uint256"
        },
        {
          "internalType": "uint256",
          "name": "",
          "type": "uint256"
        }
      ],
      "name": "submmisionReviews",
      "outputs": [
        {
          "internalType": "uint256",
          "name": "",
          "type": "uint256"
        }
      ],
      "stateMutability": "view",
      "type": "function"
    }
  ],
  "bytecode": "0x608034620003b957601f62002c3438819003918201601f191683019291906001600160401b03841183851017620001fe578160a09284926040968752833981010312620003b9576200005181620003dd565b906200006060208201620003dd565b906200006e848201620003dd565b6060820151608090920151926001600160a01b0384168403620003b9578551606081016001600160401b03811182821017620001fe578752620000b0620003bd565b6012815271436f6e73656e736f75732050656e64696e6760701b60208201528152620000db620003bd565b90600891828152671058d8d95c1d195960c21b6020820152602082015262000102620003bd565b8281526714995a9958dd195960c21b602082015288820152815460038355806003106200033b575b50905f5260205f20905f905b60038210620002125750505060018060a01b0319943386601254161760125560018060a01b031685600d541617600d5560018060a01b031684600e541617600e5560018060a01b031683600f541617600f5560105560018060a01b03169060135416176013556001600655600160025560095468010000000000000000811015620001fe576001810180600955811015620001ea575f90600982526020822001556064601155516127ee9081620004468239f35b634e487b7160e01b5f52603260045260245ffd5b634e487b7160e01b5f52604160045260245ffd5b80518051906001600160401b038211620001fe57620002328554620003f2565b601f8111620002fb575b50602090601f83116001146200028b5792826001949360209386955f926200027f575b50505f19600383901b1c191690841b1786555b0193019101909162000136565b015190505f806200025f565b90855f5260205f20915f5b601f1985168110620002e257509260209260019592869583601f19811610620002c9575b505050831b8301865562000272565b01515f1960f88460031b161c191690555f8080620002ba565b9192602060018192868501518155019401920162000296565b6200032990865f5260205f206005601f8601811c8201926020871062000330575b601f01901c01906200042d565b5f6200023c565b91925082916200031c565b5f83815260036020822092830192015b8281106200035b5750506200012a565b80826200036b60019354620003f2565b806200037b575b5050016200034b565b601f8111841462000392575081555b825f62000372565b828252620003af601f60208420920160051c82018583016200042d565b818355556200038a565b5f80fd5b60408051919082016001600160401b03811183821017620001fe57604052565b51906001600160a01b0382168203620003b957565b90600182811c9216801562000422575b60208310146200040e57565b634e487b7160e01b5f52602260045260245ffd5b91607f169162000402565b81811062000439575050565b5f81556001016200042d56fe6080806040526004361015610012575f80fd5b5f3560e01c908163059597f71461222d575080631651902a146121fe5780631ea49051146121995780633c09203b1461213d5780634215c5e4146121205780634585e33b14611e5657806347631adb14611e2e5780634ed5981214611e115780635ff2d2aa14611db55780636356eea41461169b57806369fe0e2d146116615780636c79bd2b146115fc5780636e04ff0d1461128457806374f0c641146112675780637c7198cc146112195780638705fcd4146111b657806393a018be14610b35578063990581b61461109c578063a59400411461107f578063ac97980d14611055578063ad2957ff14610ff9578063b9e2fc3e14610fc3578063bdf5db3914610f40578063c5dce24d14610eb3578063d1a34aa314610e6b578063d39065fa14610e0f578063d3a3f77114610dcb578063d8db380714610b5f578063de78ab7c14610b35578063de8b32c514610a60578063e148577614610a38578063e168b3a814610a1b578063e83ddcea1461096b578063ea487a9214610904578063ee8eb507146108cd578063eeb0cf761461088f5763fa1396f5146101b3575f80fd5b6101bc3661250e565b600f54604051632c89540360e21b8152600481018490526001600160a01b0393916020908290602490829088165afa9081156107a7575f91610870575b50156108355782600d5416906040516324c9db2f60e01b8152602060048201526020818061022a6024820188612420565b0381865afa9081156107a7575f91610806575b50156107b25760206040518093633bebe05160e01b825282600483015281806102696024820189612420565b03915afa9182156107a7575f9261076f575b5060405161028881612347565b8381526040519060208201956001600160401b03968381108882111761052d576040525f83526020820192835242604083015284606083015284155f146105b057506040516102d681612362565b600d81526c4e6f20436f6e73656e736f757360981b602082015282525b6002545f525f60205260405f2091815180519088821161052d5781906103238261031d8854612445565b886125aa565b602090601f831160011461054c575f92610541575b50508160011b915f199060031b1c19161783555b5195865190811161052d57610371816103686001860154612445565b600186016125aa565b6020601f82116001146104bb5791816060926003946104829a5f926104b0575b50505f1982861b1c1916600191821b17908501555b604081015160028501550151910155805f5260036020526103cd60405f206002549061256f565b6002545f5260016020528060405f20557fd3f28a1c655091033012bc55d258bf3cbd4ea4fb8bc2ff81c626a2aad9354e46604060025494858481955f52600460205261046b845f20838651602081885194828a019561042d8184896123ff565b82019081520301902055855194859485947fe4c157bdf18b292c67a85f8afa9036d1fd70e345be3ad305fafc7841c4801a3f5f80a3519283916123ff565b8101039020938151904282526020820152a36125ed565b806002555f19810190811161049c57602090604051908152f35b634e487b7160e01b5f52601160045260245ffd5b015190505f80610391565b600184015f5260205f20975f5b601f19841681106105155750826104829960039593600193606096601f198116106104fe575b505050811b0160018501556103a6565b01515f1983881b60f8161c191690555f80806104ee565b828201518a55600190990198602092830192016104c8565b634e487b7160e01b5f52604160045260245ffd5b015190505f80610338565b5f878152602081209350601f198516905b8181106105985750908460019594939210610580575b505050811b01835561034c565b01515f1960f88460031b161c191690555f8080610573565b9293602060018192878601518155019501930161055d565b6010543403610731575f808080933490601354165af13d1561072c573d6105d68161239e565b906105e4604051928361237d565b81525f60203d92013e5b156106f057600854156106dc5760085f5260405161063781610630817ff3f7a9fe364faab93b216da50a3214154f22a0a2b415b23a84c8169e8b636ee361247d565b038261237d565b825260025460095490600160401b82101561052d5761065f8260016106779401600955612266565b90919082549060031b91821b915f19901b1916179055565b6009545f199081810190811161049c576002545f52600a60205260405f20556002549060095490810190811161049c577f2f5a4ee168dca9eaef284f1844a3d24d74ba63a5fccc947454fc07515c8b37749160409182519182526020820152a16102f3565b634e487b7160e01b5f52603260045260245ffd5b60405162461bcd60e51b81526020600482015260146024820152732330b4b632b2103a379039b2b7321022ba3432b960611b6044820152606490fd5b6105ee565b60405162461bcd60e51b81526020600482015260166024820152754d7573742073656e642070726f706f73616c2066656560501b6044820152606490fd5b9091506020813d60201161079f575b8161078b6020938361237d565b8101031261079b5751905f61027b565b5f80fd5b3d915061077e565b6040513d5f823e3d90fd5b60405162461bcd60e51b815260206004820152602660248201527f436f6d6d756e69747920436f6e73656e73757320506172616d7320646f6e277460448201526508195e1a5cdd60d21b6064820152608490fd5b610828915060203d60201161082e575b610820818361237d565b810190612557565b5f61023d565b503d610816565b60405162461bcd60e51b8152602060048201526013602482015272141bdcdd08191bd95cc81b9bdd08195e1a5cdd606a1b6044820152606490fd5b610889915060203d60201161082e57610820818361237d565b5f6101f9565b3461079b5761089d36612250565b905f52600360205260405f20805482101561079b576020916108be9161227e565b90549060031b1c604051908152f35b3461079b57602036600319011261079b5760043560095481101561079b576108f6602091612266565b90546040519160031b1c8152f35b3461079b57602036600319011261079b57600435805f525f602052610931600260405f20015415156125fb565b5f525f602052610967610630610953600160405f20016040519283809261247d565b604051918291602083526020830190612420565b0390f35b3461079b57602036600319011261079b576004355f52600560205260405f2060018060a01b03815416604051916109b0836109a9816001850161247d565b038461237d565b6002810154610a0a604051916109cd836109a9816003880161247d565b60ff6005600486015495015416926109f7604051978897885260c0602089015260c0880190612420565b9160408701528582036060870152612420565b916080840152151560a08301520390f35b3461079b575f36600319011261079b576020600654604051908152f35b3461079b575f36600319011261079b57600e546040516001600160a01b039091168152602090f35b3461079b5760208060031936011261079b576080905f6060604051610a8481612347565b818152818482015282604082015201526004355f525f815260405f2060405191610aad83612347565b604051610abe81610630818661247d565b8352610b24604051610ad781610630816001880161247d565b828501908152610b1160036002860154956040880196875201549360608701948552604051978897828952519188015260a0870190612420565b9051858203601f19016040870152612420565b915160608401525160808301520390f35b3461079b57602036600319011261079b576004355f52600a602052602060405f2054604051908152f35b3461079b5760208060031936011261079b57600435906001600160401b039081831161079b573660238401121561079b57826004013591610b9f83612540565b93610bad604051958661237d565b83855282850194859160249687600597881b8301019136831161079b57888101915b838310610da5575050601254610bfc9250336001600160a01b039182161491508115610d97575b50612679565b5193600160401b8511610d84576008549085600855818610610d15575b5050939060085f52825f20915f955b858710610c3157005b8051805190848211610d0257908691610c5482610c4e8954612445565b896125aa565b8290601f8311600114610c9b579180600195928695945f92610c90575b50505f19600383901b1c191690841b1787555b01940196019592610c28565b015190508c80610c71565b90601f19831691885f52845f20925f5b818110610cea5750916001969391858897969410610cd2575b505050831b83018755610c84565b01515f1960f88460031b161c191690558b8080610cc4565b8284015185558b966001909501949384019301610cab565b83634e487b7160e01b5f5260416004525ffd5b60085f5285855f2092830192015b828110610d305750610c19565b80610d3d60019254612445565b80610d4a575b5001610d23565b601f908181118414610d625750505f81555b89610d43565b610d7b5f928484528a84209201861c8201858301612594565b81835555610d5c565b85634e487b7160e01b5f5260416004525ffd5b9050600c5416331488610bf6565b823587811161079b578891610dc083928d36918701016123b9565b815201920191610bcf565b3461079b576020610dfd81610ddf3661250e565b905f526004825260405f2082604051948386809551938492016123ff565b82019081520301902054604051908152f35b3461079b57602036600319011261079b57610e286122cd565b6012546001600160a01b039190821633148015610e5e575b610e4990612679565b1660018060a01b0319600f541617600f555f80f35b50600c5482163314610e40565b3461079b57602036600319011261079b57601254610e9d90336001600160a01b0391821614908115610ea55750612679565b600435601155005b9050600c5416331482610bf6565b3461079b57602036600319011261079b576004355f525f602052610f2360405f2060405190610eed82610ee6818461247d565b038361237d565b604051610f0181610630816001860161247d565b610f316003600284015493015491604051958695608087526080870190612420565b908582036020870152612420565b91604084015260608301520390f35b3461079b575f36600319011261079b57604051600980548083525f918252602080840193927f6e1540171b6c0c960b71a7020d9f60077f6af931a8bbf590da0223dacf75c7af92915b828210610fac5761096785610fa08189038261237d565b60405191829182612293565b835486529485019460019384019390910190610f89565b3461079b57602036600319011261079b576004355f5260056020526040805f206004600282015491015482519182526020820152f35b3461079b57602036600319011261079b576110126122cd565b6012546001600160a01b039190821633148015611048575b61103390612679565b1660018060a01b0319600d541617600d555f80f35b50600c548216331461102a565b3461079b57602036600319011261079b576004355f526001602052602060405f2054604051908152f35b3461079b575f36600319011261079b576020600254604051908152f35b3461079b5760208060031936011261079b575f60a06040516110bd8161232c565b82815260608482015282604082015260608082015282608082015201526004355f526005815260405f20604051906110f48261232c565b60018060a01b03928382541683526111a360405161111981610630816001880161247d565b8285019081526002840154906040860191825261118a60405191611144836109a98160038b0161247d565b6060880192835260ff600560048901549860808b01998a520154169560a089019615158752604051998a99828b525116908901525160c0604089015260e0880190612420565b9151606087015251858203601f19016080870152612420565b915160a084015251151560c08301520390f35b3461079b57602036600319011261079b576004356001600160a01b038181169182900361079b57806111f59160125416331490811561120b5750612679565b601380546001600160a01b031916919091179055005b9050600c5416331483610bf6565b3461079b57604036600319011261079b576024356001600160a01b0381169081900361079b576004355f52600b60205260405f20905f52602052602060ff60405f2054166040519015158152f35b3461079b575f36600319011261079b576020600954604051908152f35b3461079b57611292366122e3565b50505f805f600954806112d6575b5050604051916020830152602082526112b882612362565b61096760405192839215158352604060208401526040830190612420565b5f60015b82811061156457505050806112f0575b806112a0565b90915060018060a01b03600d5416815f525f60205260405f209060606040518092632691798960e01b82526020600483015281806113336024978883019061247d565b03915afa9182156107a7575f905f925f94611523575b50845f52600760205260405f2091604051808460208296549384815201905f5260205f20925f5b81811061150a5750506113859250038461237d565b825193818510156113a75750505050505061139f90612664565b905b826112ea565b5f935f95601154908181115f146115025750905b5f5b82811061144b5750505050831580918115611441575b50156113ed5750505050506113e790612664565b906113a1565b60648302928084046064149015171561142d5761141a5750041061141157906113a1565b6113e790612664565b634e487b7160e01b5f9081526012600452fd5b50634e487b7160e01b5f9081526011600452fd5b90508410886113d3565b6114558183612650565b5160405190635cf17e1f60e11b825260048201526040818881305afa80156107a75785905f925f916114c7575b501015611499575b50611494906125ed565b6113bd565b976114a56002916125ed565b98146114b2575b8b61148a565b956114bf611494916125ed565b9690506114ac565b925050506040813d6040116114fa575b816114e46040938361237d565b8101031261079b5784602082519201518e611482565b3d91506114d7565b9050906113bb565b8454835260019485019488945060209093019201611370565b92509250506060813d821161155c575b816115406060938361237d565b8101031261079b57805160208201516040909201519286611349565b3d9150611533565b61156d81612266565b9054600391821b1c5f526115a860205f81525f60026040822001549161159286612266565b905490861b1c8252528260405f20015490612643565b42811115806115ea575b6115c7575b50506115c2906125ed565b6112da565b9450945090506115c26001946115dc83612266565b9054911b1c939190876115b7565b5083811115806115b2575083156115b2565b3461079b5760208060031936011261079b576004355f526007815260405f209060405190818184549182815201935f52815f20915f905b82821061164a5761096785610fa08189038261237d565b835486529485019460019384019390910190611633565b3461079b57602036600319011261079b5760125461169390336001600160a01b0391821614908115610ea55750612679565b600435601055005b3461079b57606036600319011261079b576024356001600160401b03811161079b576116cb9036906004016123b9565b6004355f525f6020526116e6600260405f20015415156125fb565b6117255f60018060a01b03600d541660043582528160205260408220906040518080958194626e7c3160e91b835260206004840152602483019061247d565b03915afa9081156107a7575f91611c9f575b50604435916001831115611c5b57611753600854835190612643565b8311611c1b576004355f52600b60205260405f20335f5260205260ff60405f205416611bcc576117e3916004355f52600b60205260405f20335f5260205260405f20600160ff19825416179055602060018060a01b03600e54166004355f525f825260405f209060405180809781946302b5df5960e01b835233600484015260406024840152604483019061247d565b03915afa9283156107a7575f93611b98575b5060085490818511611b7457505f199084820185811161049c5710156106dc576118336106309160085f528560205f2001016040519283809261247d565b5f6004355f525f60205261185460405f206003600282015491015490612643565b421015611b6c575b6040516118688161232c565b3381526020810195848752604082015282606082015284608082015281151560a08201526006545f52600560205260405f209560018060a01b0382511660018060a01b03198854161787555180516001600160401b03811161052d578060018901926118de826118d88654612445565b866125aa565b602090601f8311600114611b08575f92611afd575b50508160011b915f199060031b1c19161790555b6040810151600287015560608101519586516001600160401b03811161052d57611941816119386003850154612445565b600385016125aa565b6020601f8211600114611a63576005611a1b9593837ffab0b7cc55d5c47eef9ab7fcd4c01a41a4ddfa36cec643d2a9cb97b3f57915d498969460a094611a3e9d5f92611a58575b50508160011b915f199060031b1c19161760038201555b6080840151600482015501910151151560ff801983541691161790556004355f5260076020526119d560405f206006549061256f565b611a2e600654968796604051958695336004358b7f953de3727de1848ea7329bee97a44132bdd8271d8d663eb90bc2772f21541ec85f80a4608087526080870190612420565b9160208601528482036040860152612420565b90151560608301520390a26125ed565b806006555f19810190811161049c57602090604051908152f35b015190508d80611988565b600383015f5260205f20985f5b601f1984168110611ae55750611a1b9593600184611a3e9c60a0956005957ffab0b7cc55d5c47eef9ab7fcd4c01a41a4ddfa36cec643d2a9cb97b3f57915d49c9a98601f19811610611acd575b505050811b01600382015561199f565b01515f1960f88460031b161c191690558d8080611abd565b828201518b556001909a019960209283019201611a70565b0151905089806118f3565b5f858152602081209350601f198516905b818110611b545750908460019594939210611b3c575b505050811b019055611907565b01515f1960f88460031b161c19169055898080611b2f565b92936020600181928786015181550195019301611b19565b50600161185c565b90840384811161049c575f19810190811161049c57611b9291612650565b51611833565b9092506020813d602011611bc4575b81611bb46020938361237d565b8101031261079b575191846117f5565b3d9150611ba7565b60405162461bcd60e51b815260206004820152602160248201527f596f7527766520616c7265616479207265766965776564207468697320706f736044820152601d60fa1b6064820152608490fd5b60405162461bcd60e51b8152602060048201526018602482015277436f6e73656e736f7573204e6f7420496e20426f756e647360401b6044820152606490fd5b606460405162461bcd60e51b815260206004820152602060248201527f436f6e73656e736f7573206d75732062652067726561746572207468616e20316044820152fd5b3d9150815f823e611cb0828261237d565b602081838101031261079b5780516001600160401b03811161079b57828201601f82840101121561079b578082015190611ce982612540565b93611cf7604051958661237d565b828552602085019080850160208560051b85880101011161079b57602083860101915b60208560051b85880101018310611d375750505050505082611737565b82516001600160401b03811161079b57828701603f82878a010101121561079b57602081868901010151611d6a8161239e565b92611d78604051948561237d565b818452848901604083858a8d010101011161079b5783611da8602095938b604088978c89809901930101016123ff565b8152019301929050611d1a565b3461079b57602036600319011261079b57611dce6122cd565b6012546001600160a01b039190821633148015611e04575b611def90612679565b1660018060a01b0319600c541617600c555f80f35b50600c5482163314611de6565b3461079b575f36600319011261079b576020601154604051908152f35b3461079b575f36600319011261079b57600d546040516001600160a01b039091168152602090f35b3461079b57611e64366122e3565b90611e8360018060a01b03806012541633149081156121125750612679565b602091828114611e8f57005b8183918101031261079b5735905f8213156120fd5760015b821515806120d7575b806120c1575b806120ad575b611ec257005b6001901515810361205c576008548110156106dc577f3ed188edba0c6b2d9b7a54cec2942f1cab56a63a4dcfdca5ff11706ffdf25b1e839160085f52611f1781855f2001845f525f86528260405f20016126e4565b825f5280845260405f2054905f855260405f200190611f476040519283928352604087840152604083019061247d565b0390a2815f52600a815260405f205490600954925f199384810190811161049c57808403611fb9575b50600a92505f52525f60408120556009548015611fa557810190611f9382612266565b909182549160031b1b19169055600955005b634e487b7160e01b5f52603160045260245ffd5b611fc5611fed91612266565b9054611fd086612266565b91909260031b1c9082549060031b91821b915f19901b1916179055565b6009549284840193841161049c5760407f2f5a4ee168dca9eaef284f1844a3d24d74ba63a5fccc947454fc07515c8b37749161202a600a96612266565b90549060031b1c5f5285855280825f205561204481612266565b90549060031b1c90825191825285820152a184611f70565b600854600210156106dc577f3ed188edba0c6b2d9b7a54cec2942f1cab56a63a4dcfdca5ff11706ffdf25b1e839160085f526120a86002855f2001845f525f86528260405f20016126e4565b611f17565b50825f52600a825260405f20541515611ebc565b50825f525f8252600260405f2001541515611eb6565b50825f525f82526120f560405f206003600282015491015490612643565b421015611eb0565b5f91600160ff1b811461049c575f0391611ea7565b9050600c5416331484610bf6565b3461079b575f36600319011261079b576020601054604051908152f35b3461079b57602036600319011261079b576121566122cd565b6012546001600160a01b03919082163314801561218c575b61217790612679565b1660018060a01b0319600e541617600e555f80f35b50600c548216331461216e565b3461079b5760208060031936011261079b576004355f526003815260405f209060405190818184549182815201935f52815f20915f905b8282106121e75761096785610fa08189038261237d565b8354865294850194600193840193909101906121d0565b3461079b5761220c36612250565b905f52600760205260405f20805482101561079b576020916108f69161227e565b3461079b575f36600319011261079b57600f546001600160a01b03168152602090f35b604090600319011261079b576004359060243590565b6009548110156106dc5760095f5260205f2001905f90565b80548210156106dc575f5260205f2001905f90565b602090816040818301928281528551809452019301915f5b8281106122b9575050505090565b8351855293810193928101926001016122ab565b600435906001600160a01b038216820361079b57565b90602060031983011261079b576004356001600160401b039283821161079b578060238301121561079b57816004013593841161079b576024848301011161079b576024019190565b60c081019081106001600160401b0382111761052d57604052565b608081019081106001600160401b0382111761052d57604052565b604081019081106001600160401b0382111761052d57604052565b90601f801991011681019081106001600160401b0382111761052d57604052565b6001600160401b03811161052d57601f01601f191660200190565b81601f8201121561079b578035906123d08261239e565b926123de604051948561237d565b8284526020838301011161079b57815f926020809301838601378301015290565b5f5b8381106124105750505f910152565b8181015183820152602001612401565b90602091612439815180928185528580860191016123ff565b601f01601f1916010190565b90600182811c92168015612473575b602083101461245f57565b634e487b7160e01b5f52602260045260245ffd5b91607f1691612454565b905f929180549161248d83612445565b9182825260019384811690815f146124eb57506001146124ae575b50505050565b90919394505f52602092835f2092845f945b8386106124d757505050500101905f8080806124a8565b8054858701830152940193859082016124c0565b9294505050602093945060ff191683830152151560051b0101905f8080806124a8565b90604060031983011261079b5760043591602435906001600160401b03821161079b5761253d916004016123b9565b90565b6001600160401b03811161052d5760051b60200190565b9081602091031261079b5751801515810361079b5790565b80549190600160401b83101561052d578261065f9160016125929501815561227e565b565b81811061259f575050565b5f8155600101612594565b9190601f81116125b957505050565b612592925f5260205f20906020601f840160051c830193106125e3575b601f0160051c0190612594565b90915081906125d6565b5f19811461049c5760010190565b1561260257565b60405162461bcd60e51b815260206004820152601960248201527814dd589b5a5cdcda5bdb88191bd95cc81b9bdd08195e1a5cdd603a1b6044820152606490fd5b9190820180921161049c57565b80518210156106dc5760209160051b010190565b90815f03918083055f19149015171561049c57565b1561268057565b60405162461bcd60e51b815260206004820152603660248201527f4e6f742074686520636f6e7472616374206f776e6572206f72204175746f6d616044820152751d1a5bdb88149959da5cdd1c9e4810dbdb9d1c9858dd60521b6064820152608490fd5b908082146127b4576126f68154612445565b906001600160401b03821161052d578190612715826118d88654612445565b5f90601f8311600114612749575f9261273e575b50508160011b915f199060031b1c1916179055565b015490505f80612729565b81526020808220858352818320935090601f1985169083905b82821061279b575050908460019594939210612783575b505050811b019055565b01545f1960f88460031b161c191690555f8080612779565b8495819295850154815560018091019601940190612762565b505056fea264697066735822122070b411927370350f4e3f67356b5a81979b72d408aae1913fe5ce93b7afb5ae9164736f6c63430008140033",
  "linkReferences": {},
  "deployedLinkReferences": {}
}