{
  "_format": "hh-sol-artifact-1",
  "contractName": "tgetherPostConsensus",
  "sourceName": "contracts/tgehterPostConsensus.sol",
  "abi": [
    {
      "inputs": [
        {
          "internalType": "address",
          "name": "_CommunityConsensusAddress",
          "type": "address"
        },
        {
          "internalType": "address",
          "name": "_MembersContract",
          "type": "address"
        },
        {
          "internalType": "address",
          "name": "_PostContract",
          "type": "address"
        },
        {
          "internalType": "uint256",
          "name": "_fee",
          "type": "uint256"
        }
      ],
      "stateMutability": "nonpayable",
      "type": "constructor"
    },
    {
      "anonymous": false,
      "inputs": [
        {
          "indexed": true,
          "internalType": "uint256",
          "name": "communtiySubmissionId",
          "type": "uint256"
        },
        {
          "indexed": true,
          "internalType": "string",
          "name": "communityName",
          "type": "string"
        },
        {
          "indexed": false,
          "internalType": "uint256",
          "name": "timestamp",
          "type": "uint256"
        },
        {
          "indexed": false,
          "internalType": "uint256",
          "name": "consensusTime",
          "type": "uint256"
        }
      ],
      "name": "CommunitySubmitted",
      "type": "event"
    },
    {
      "anonymous": false,
      "inputs": [
        {
          "indexed": true,
          "internalType": "uint256",
          "name": "communitySubmissionId",
          "type": "uint256"
        },
        {
          "indexed": false,
          "internalType": "uint256",
          "name": "postId",
          "type": "uint256"
        },
        {
          "indexed": false,
          "internalType": "string",
          "name": "newConsensus",
          "type": "string"
        }
      ],
      "name": "ConsensusUpdated",
      "type": "event"
    },
    {
      "anonymous": false,
      "inputs": [
        {
          "indexed": false,
          "internalType": "uint256",
          "name": "postId",
          "type": "uint256"
        },
        {
          "indexed": false,
          "internalType": "string",
          "name": "keyword",
          "type": "string"
        }
      ],
      "name": "Keywords",
      "type": "event"
    },
    {
      "anonymous": false,
      "inputs": [
        {
          "indexed": true,
          "internalType": "uint256",
          "name": "postId",
          "type": "uint256"
        },
        {
          "indexed": true,
          "internalType": "uint256",
          "name": "communitySubmissionId",
          "type": "uint256"
        }
      ],
      "name": "PostSubmission",
      "type": "event"
    },
    {
      "anonymous": false,
      "inputs": [
        {
          "indexed": true,
          "internalType": "uint256",
          "name": "reviewId",
          "type": "uint256"
        },
        {
          "indexed": true,
          "internalType": "uint256",
          "name": "communitySubmissionId",
          "type": "uint256"
        },
        {
          "indexed": true,
          "internalType": "address",
          "name": "member",
          "type": "address"
        }
      ],
      "name": "ReviewCreated",
      "type": "event"
    },
    {
      "anonymous": false,
      "inputs": [
        {
          "indexed": true,
          "internalType": "uint256",
          "name": "reviewId",
          "type": "uint256"
        },
        {
          "indexed": false,
          "internalType": "string",
          "name": "consensus",
          "type": "string"
        },
        {
          "indexed": false,
          "internalType": "uint256",
          "name": "creds",
          "type": "uint256"
        },
        {
          "indexed": false,
          "internalType": "string",
          "name": "content",
          "type": "string"
        },
        {
          "indexed": false,
          "internalType": "bool",
          "name": "afterConsensus",
          "type": "bool"
        }
      ],
      "name": "ReviewSubmitted",
      "type": "event"
    },
    {
      "inputs": [],
      "name": "CommunityConsensusContract",
      "outputs": [
        {
          "internalType": "contract tgetherCommunityConsensusInterface",
          "name": "",
          "type": "address"
        }
      ],
      "stateMutability": "view",
      "type": "function"
    },
    {
      "inputs": [
        {
          "internalType": "uint256",
          "name": "",
          "type": "uint256"
        }
      ],
      "name": "CommunitySubmissionToPost",
      "outputs": [
        {
          "internalType": "uint256",
          "name": "",
          "type": "uint256"
        }
      ],
      "stateMutability": "view",
      "type": "function"
    },
    {
      "inputs": [
        {
          "internalType": "uint256",
          "name": "",
          "type": "uint256"
        }
      ],
      "name": "CommunitySubmissions",
      "outputs": [
        {
          "internalType": "string",
          "name": "communityName",
          "type": "string"
        },
        {
          "internalType": "uint256",
          "name": "timestamp",
          "type": "uint256"
        },
        {
          "internalType": "uint256",
          "name": "consensusTime",
          "type": "uint256"
        },
        {
          "internalType": "enum tgetherPostConsensus.Consensus",
          "name": "consensus",
          "type": "uint8"
        }
      ],
      "stateMutability": "view",
      "type": "function"
    },
    {
      "inputs": [],
      "name": "MembersContract",
      "outputs": [
        {
          "internalType": "contract tgetherMembersInterface",
          "name": "",
          "type": "address"
        }
      ],
      "stateMutability": "view",
      "type": "function"
    },
    {
      "inputs": [
        {
          "internalType": "uint256",
          "name": "",
          "type": "uint256"
        },
        {
          "internalType": "uint256",
          "name": "",
          "type": "uint256"
        }
      ],
      "name": "PostSubmissionList",
      "outputs": [
        {
          "internalType": "uint256",
          "name": "",
          "type": "uint256"
        }
      ],
      "stateMutability": "view",
      "type": "function"
    },
    {
      "inputs": [],
      "name": "PostsContract",
      "outputs": [
        {
          "internalType": "contract tgetherPostsInterface",
          "name": "",
          "type": "address"
        }
      ],
      "stateMutability": "view",
      "type": "function"
    },
    {
      "inputs": [
        {
          "internalType": "uint256",
          "name": "",
          "type": "uint256"
        }
      ],
      "name": "SubmissionLane",
      "outputs": [
        {
          "internalType": "uint256",
          "name": "",
          "type": "uint256"
        }
      ],
      "stateMutability": "view",
      "type": "function"
    },
    {
      "inputs": [],
      "name": "consensusFee",
      "outputs": [
        {
          "internalType": "uint256",
          "name": "",
          "type": "uint256"
        }
      ],
      "stateMutability": "view",
      "type": "function"
    },
    {
      "inputs": [],
      "name": "csCounter",
      "outputs": [
        {
          "internalType": "uint256",
          "name": "",
          "type": "uint256"
        }
      ],
      "stateMutability": "view",
      "type": "function"
    },
    {
      "inputs": [
        {
          "internalType": "uint256",
          "name": "submissionId",
          "type": "uint256"
        }
      ],
      "name": "getCheckSubmissionForUpkeep",
      "outputs": [
        {
          "internalType": "bool",
          "name": "upkeepNeeded",
          "type": "bool"
        },
        {
          "internalType": "int256",
          "name": "resultId",
          "type": "int256"
        }
      ],
      "stateMutability": "view",
      "type": "function"
    },
    {
      "inputs": [
        {
          "internalType": "uint256",
          "name": "_communitySubmissionId",
          "type": "uint256"
        }
      ],
      "name": "getCommunitySubmission",
      "outputs": [
        {
          "components": [
            {
              "internalType": "string",
              "name": "communityName",
              "type": "string"
            },
            {
              "internalType": "uint256",
              "name": "timestamp",
              "type": "uint256"
            },
            {
              "internalType": "uint256",
              "name": "consensusTime",
              "type": "uint256"
            },
            {
              "internalType": "enum tgetherPostConsensus.Consensus",
              "name": "consensus",
              "type": "uint8"
            }
          ],
          "internalType": "struct tgetherPostConsensus.CommunitySubmission",
          "name": "",
          "type": "tuple"
        }
      ],
      "stateMutability": "view",
      "type": "function"
    },
    {
      "inputs": [
        {
          "internalType": "uint256",
          "name": "_submissionId",
          "type": "uint256"
        }
      ],
      "name": "getPostConsesous",
      "outputs": [
        {
          "internalType": "enum tgetherPostConsensus.Consensus",
          "name": "",
          "type": "uint8"
        }
      ],
      "stateMutability": "view",
      "type": "function"
    },
    {
      "inputs": [
        {
          "internalType": "uint256",
          "name": "_postId",
          "type": "uint256"
        }
      ],
      "name": "getPostSubmissionCommunity",
      "outputs": [
        {
          "internalType": "string",
          "name": "",
          "type": "string"
        }
      ],
      "stateMutability": "view",
      "type": "function"
    },
    {
      "inputs": [
        {
          "internalType": "uint256",
          "name": "_postId",
          "type": "uint256"
        }
      ],
      "name": "getPostSubmissionConsensus",
      "outputs": [
        {
          "internalType": "string",
          "name": "",
          "type": "string"
        }
      ],
      "stateMutability": "view",
      "type": "function"
    },
    {
      "inputs": [
        {
          "internalType": "uint256",
          "name": "_postId",
          "type": "uint256"
        }
      ],
      "name": "getPostSubmissionList",
      "outputs": [
        {
          "internalType": "uint256[]",
          "name": "",
          "type": "uint256[]"
        }
      ],
      "stateMutability": "view",
      "type": "function"
    },
    {
      "inputs": [
        {
          "internalType": "uint256",
          "name": "_reviewId",
          "type": "uint256"
        }
      ],
      "name": "getReview",
      "outputs": [
        {
          "components": [
            {
              "internalType": "address",
              "name": "member",
              "type": "address"
            },
            {
              "internalType": "string",
              "name": "content",
              "type": "string"
            },
            {
              "internalType": "uint256",
              "name": "consensus",
              "type": "uint256"
            },
            {
              "internalType": "string",
              "name": "consensusType",
              "type": "string"
            },
            {
              "internalType": "uint256",
              "name": "creds",
              "type": "uint256"
            },
            {
              "internalType": "bool",
              "name": "afterConsensus",
              "type": "bool"
            }
          ],
          "internalType": "struct tgetherPostConsensus.Review",
          "name": "",
          "type": "tuple"
        }
      ],
      "stateMutability": "view",
      "type": "function"
    },
    {
      "inputs": [
        {
          "internalType": "uint256",
          "name": "_reviewid",
          "type": "uint256"
        }
      ],
      "name": "getReviewConsenous",
      "outputs": [
        {
          "internalType": "uint256",
          "name": "consensus",
          "type": "uint256"
        },
        {
          "internalType": "uint256",
          "name": "creds",
          "type": "uint256"
        },
        {
          "internalType": "bool",
          "name": "afterConsensus",
          "type": "bool"
        }
      ],
      "stateMutability": "view",
      "type": "function"
    },
    {
      "inputs": [
        {
          "internalType": "uint256",
          "name": "_submissionId",
          "type": "uint256"
        }
      ],
      "name": "getReviewsForSubmission",
      "outputs": [
        {
          "internalType": "uint256[]",
          "name": "",
          "type": "uint256[]"
        }
      ],
      "stateMutability": "view",
      "type": "function"
    },
    {
      "inputs": [
        {
          "internalType": "uint256",
          "name": "_submissionId",
          "type": "uint256"
        }
      ],
      "name": "getSubmissionExpiration",
      "outputs": [
        {
          "internalType": "uint256",
          "name": "",
          "type": "uint256"
        }
      ],
      "stateMutability": "view",
      "type": "function"
    },
    {
      "inputs": [
        {
          "internalType": "uint256",
          "name": "",
          "type": "uint256"
        },
        {
          "internalType": "address",
          "name": "",
          "type": "address"
        }
      ],
      "name": "hasReviewed",
      "outputs": [
        {
          "internalType": "bool",
          "name": "",
          "type": "bool"
        }
      ],
      "stateMutability": "view",
      "type": "function"
    },
    {
      "inputs": [
        {
          "internalType": "uint256",
          "name": "submissionId",
          "type": "uint256"
        }
      ],
      "name": "manualUpkeepPost",
      "outputs": [],
      "stateMutability": "nonpayable",
      "type": "function"
    },
    {
      "inputs": [],
      "name": "maxReviews",
      "outputs": [
        {
          "internalType": "uint256",
          "name": "",
          "type": "uint256"
        }
      ],
      "stateMutability": "view",
      "type": "function"
    },
    {
      "inputs": [
        {
          "internalType": "bytes",
          "name": "performData",
          "type": "bytes"
        }
      ],
      "name": "performUpkeep",
      "outputs": [],
      "stateMutability": "nonpayable",
      "type": "function"
    },
    {
      "inputs": [
        {
          "internalType": "uint256",
          "name": "",
          "type": "uint256"
        },
        {
          "internalType": "string",
          "name": "",
          "type": "string"
        }
      ],
      "name": "postCommunities",
      "outputs": [
        {
          "internalType": "uint256",
          "name": "",
          "type": "uint256"
        }
      ],
      "stateMutability": "view",
      "type": "function"
    },
    {
      "inputs": [],
      "name": "reviewCounter",
      "outputs": [
        {
          "internalType": "uint256",
          "name": "",
          "type": "uint256"
        }
      ],
      "stateMutability": "view",
      "type": "function"
    },
    {
      "inputs": [
        {
          "internalType": "uint256",
          "name": "",
          "type": "uint256"
        }
      ],
      "name": "reviews",
      "outputs": [
        {
          "internalType": "address",
          "name": "member",
          "type": "address"
        },
        {
          "internalType": "string",
          "name": "content",
          "type": "string"
        },
        {
          "internalType": "uint256",
          "name": "consensus",
          "type": "uint256"
        },
        {
          "internalType": "string",
          "name": "consensusType",
          "type": "string"
        },
        {
          "internalType": "uint256",
          "name": "creds",
          "type": "uint256"
        },
        {
          "internalType": "bool",
          "name": "afterConsensus",
          "type": "bool"
        }
      ],
      "stateMutability": "view",
      "type": "function"
    },
    {
      "inputs": [
        {
          "internalType": "address",
          "name": "_contractAddress",
          "type": "address"
        }
      ],
      "name": "setAutomationRegistry",
      "outputs": [],
      "stateMutability": "nonpayable",
      "type": "function"
    },
    {
      "inputs": [
        {
          "internalType": "address",
          "name": "_contractAddress",
          "type": "address"
        }
      ],
      "name": "setCommunitiesContract",
      "outputs": [],
      "stateMutability": "nonpayable",
      "type": "function"
    },
    {
      "inputs": [
        {
          "internalType": "uint256",
          "name": "_feePrice",
          "type": "uint256"
        }
      ],
      "name": "setFee",
      "outputs": [],
      "stateMutability": "nonpayable",
      "type": "function"
    },
    {
      "inputs": [
        {
          "internalType": "address",
          "name": "_contract",
          "type": "address"
        }
      ],
      "name": "setLaneRegistry",
      "outputs": [],
      "stateMutability": "nonpayable",
      "type": "function"
    },
    {
      "inputs": [
        {
          "internalType": "uint256",
          "name": "_maxreviews",
          "type": "uint256"
        }
      ],
      "name": "setMaxReviews",
      "outputs": [],
      "stateMutability": "nonpayable",
      "type": "function"
    },
    {
      "inputs": [
        {
          "internalType": "address",
          "name": "_contractAddress",
          "type": "address"
        }
      ],
      "name": "setMembersContract",
      "outputs": [],
      "stateMutability": "nonpayable",
      "type": "function"
    },
    {
      "inputs": [
        {
          "internalType": "address",
          "name": "_contractAddress",
          "type": "address"
        }
      ],
      "name": "setPostsContract",
      "outputs": [],
      "stateMutability": "nonpayable",
      "type": "function"
    },
    {
      "inputs": [
        {
          "internalType": "string[]",
          "name": "_deafultArray",
          "type": "string[]"
        }
      ],
      "name": "setdefaultConsenousTypes",
      "outputs": [],
      "stateMutability": "nonpayable",
      "type": "function"
    },
    {
      "inputs": [
        {
          "internalType": "uint256",
          "name": "_communitySubmissionId",
          "type": "uint256"
        },
        {
          "internalType": "string",
          "name": "_content",
          "type": "string"
        },
        {
          "internalType": "uint256",
          "name": "_consensus",
          "type": "uint256"
        }
      ],
      "name": "submitReview",
      "outputs": [
        {
          "internalType": "uint256",
          "name": "",
          "type": "uint256"
        }
      ],
      "stateMutability": "nonpayable",
      "type": "function"
    },
    {
      "inputs": [
        {
          "internalType": "uint256",
          "name": "_postId",
          "type": "uint256"
        },
        {
          "internalType": "string",
          "name": "_communityName",
          "type": "string"
        }
      ],
      "name": "submitToCommunity",
      "outputs": [
        {
          "internalType": "uint256",
          "name": "",
          "type": "uint256"
        }
      ],
      "stateMutability": "payable",
      "type": "function"
    },
    {
      "inputs": [
        {
          "internalType": "uint256",
          "name": "",
          "type": "uint256"
        },
        {
          "internalType": "uint256",
          "name": "",
          "type": "uint256"
        }
      ],
      "name": "submmisionReviews",
      "outputs": [
        {
          "internalType": "uint256",
          "name": "",
          "type": "uint256"
        }
      ],
      "stateMutability": "view",
      "type": "function"
    }
  ],
  "bytecode": "0x6080346200033c5762002b9580380391601f19601f91818386011681019460018060401b03948287108688111762000328578160809284926040998a528339810103126200033c57620000528162000360565b926020906200006382840162000360565b9360606200007389860162000360565b94015196885190606082018281108282111762000328578a526200009662000340565b6012815271436f6e73656e736f75732050656e64696e6760701b868201528252620000c062000340565b60088152671058d8d95c1d195960c21b8682015285830152620000e262000340565b600881526714995a9958dd195960c21b868201528a8301526009549160039283600955808410620002ae575b5092915f94600986528686209386955b83871062000187578d8d8d8d8d60018060a01b0319923384601254161760125560018060a01b03928380921685600c541617600c551683600d541617600d551690600e541617600e55601055600160075560016002556064601155516127cc9081620003c98239f35b80518051908682116200029a57908a91620001a3895462000375565b8681116200025f575b5082908b878411600114620001f6579260019592819287969592620001ea575b50505f19828a1b1c191690841b1789555b019601960195946200011e565b015190505f80620001cc565b50898c52838c2091908387168d5b8181106200024657509160019693918588979694106200022e575b505050831b83018955620001dd565b01515f19838b1b60f8161c191690555f80806200021f565b8284015185558f96600190950194938401930162000204565b62000289908a8d52848d20600589808701821c83019388881062000290575b01901c0190620003b0565b5f620001ac565b935082936200027e565b634e487b7160e01b8a52604160045260248afd5b5f600981528488822092830192015b828110620002cd5750506200010e565b8082620002dd6001935462000375565b80620002ed575b505001620002bd565b8a8111841462000303575081555b825f620002e4565b8282526200031e8b8d8420920160051c8201858301620003b0565b81835555620002fb565b634e487b7160e01b5f52604160045260245ffd5b5f80fd5b60408051919082016001600160401b038111838210176200032857604052565b51906001600160a01b03821682036200033c57565b90600182811c92168015620003a5575b60208310146200039157565b634e487b7160e01b5f52602260045260245ffd5b91607f169162000385565b818110620003bc575050565b5f8155600101620003b056fe6080806040526004361015610012575f80fd5b5f90813560e01c908163059597f714611ee1575080631651902a14611ea15780631ea4905114611e3c57806334ca35c414611c315780633c09203b14611be95780634215c5e414611bcb5780634585e33b146119d757806347631adb146119ae5780634ed59812146119905780635ff2d2aa146119485780636356eea414611104578063651fa206146110bc57806369fe0e2d1461108c5780636c79bd2b1461101b5780637c7198cc14610fcb57806385dba40114610769578063884b80f214610fa1578063990581b614610e87578063a594004114610e69578063ac97980d14610e3f578063ad2957ff14610df7578063b9e2fc3e14610dad578063c5dce24d14610d32578063d1a34aa314610d02578063d39065fa14610cba578063d3a3f77114610c74578063d46219a214610c39578063d8db38071461099e578063de8b32c5146108b6578063e14857761461088d578063e168b3a81461086f578063e83ddcea146107bb578063ea487a921461076e578063eabccdb614610769578063eeb0cf7614610728578063f2793902146106f85763fa1396f5146101b5575f80fd5b6101be366121cb565b600e54604051632c89540360e21b8152600481018490526001600160a01b0393916020908290602490829088165afa9081156105e25785916106ba575b501561067f5782600c5416916040516324c9db2f60e01b8152602060048201526020818061022c6024820186612089565b0381875afa908115610565578691610641575b50156105ed5760206040518094633bebe05160e01b8252826004830152818061026b6024820187612089565b03915afa9283156105e25785936105ae575b506040519361028b85611fb0565b8185524260208601528360408601526001606086015283155f146104de57508460608501525b6002549384865285602052604086209080518051906001600160401b0382116104ca576102de84546120f5565b601f811161048f575b50602090601f83116001146104295760609392918a918361041e575b50508160011b915f199060031b1c19161783555b6020810151600184015560408101516002840155015190600482101561040a57927fe4c157bdf18b292c67a85f8afa9036d1fd70e345be3ad305fafc7841c4801a3f6020976103f17fd3f28a1c655091033012bc55d258bf3cbd4ea4fb8bc2ff81c626a2aad9354e469561039160409660038c9a01612237565b84835260038b526103a48887852061224f565b84835260048b52858320908887518d81845195828601966103c681848a612068565b820190815203019020556103db600254612283565b600255888751968796868897a351928391612068565b81010390209381519042825287820152a3604051908152f35b634e487b7160e01b87526021600452602487fd5b015190505f80610303565b848a5260208a209190601f1984168b5b818110610477575091600193918560609796941061045f575b505050811b018355610317565b01515f1960f88460031b161c191690555f8080610452565b92936020600181928786015181550195019301610439565b6104ba90858b5260208b20601f850160051c810191602086106104c0575b601f0160051c0190612221565b5f6102e7565b90915081906104ad565b634e487b7160e01b89526041600452602489fd5b601054340361057057600f5416602060025460246040518094819363a993983b60e01b8352600483015234905af190811561056557869161052f575b506002548652600560205260408620556102b1565b90506020813d60201161055d575b8161054a60209383611fe6565b8101031261055957515f61051a565b5f80fd5b3d915061053d565b6040513d88823e3d90fd5b60405162461bcd60e51b81526020600482015260166024820152754d7573742073656e642070726f706f73616c2066656560501b6044820152606490fd5b9092506020813d6020116105da575b816105ca60209383611fe6565b810103126105595751915f61027d565b3d91506105bd565b6040513d87823e3d90fd5b60405162461bcd60e51b815260206004820152602660248201527f436f6d6d756e69747920436f6e73656e73757320506172616d7320646f6e277460448201526508195e1a5cdd60d21b6064820152608490fd5b90506020813d602011610677575b8161065c60209383611fe6565b810103126106735761066d90612214565b5f61023f565b8580fd5b3d915061064f565b60405162461bcd60e51b8152602060048201526013602482015272141bdcdd08191bd95cc81b9bdd08195e1a5cdd606a1b6044820152606490fd5b90506020813d6020116106f0575b816106d560209383611fe6565b810103126106ec576106e690612214565b5f6101fb565b8480fd5b3d91506106c8565b5034610725576020366003190112610725576040610717600435612475565b825191151582526020820152f35b80fd5b50346107255761073736611f06565b9190815260036020526040812090815483101561072557602061075a8484611f1c565b90549060031b1c604051908152f35b6120ae565b50346107255760203660031901126107255760ff600360406020936004358082528186526107a3600184842001541515612291565b8152808552200154166107b960405180926121be565bf35b5034610725576020366003190112610725576004358152600660205260409081902080549151916001600160a01b031690610804836107fd816001850161212d565b0384611fe6565b600281015461085e60405191610821836107fd816003880161212d565b60ff60056004860154950154169261084b604051978897885260c0602089015260c0880190612089565b9160408701528582036060870152612089565b916080840152151560a08301520390f35b50346107255780600319360112610725576020600754604051908152f35b5034610725578060031936011261072557600d546040516001600160a01b039091168152602090f35b503461072557602090816003193601126107255780604091606083516108db81611fb0565b818152828682015282858201520152600435815280835220906040519061090182611fb0565b60405161091981610912818761212d565b0382611fe6565b825260018301549080830191825260ff600360028601549560408601968752015416936060840190600486101561098a5761096e610986936080978452604051978897828952519188015260a0870190612089565b935160408601525160608501525160808401906121be565b0390f35b634e487b7160e01b5f52602160045260245ffd5b503461072557602080600319360112610c35576004356001600160401b0391828211610c315736602383011215610c315781600401356109dd816121fd565b936109eb6040519586611fe6565b81855282850194859460249687600595861b83010191368311610c2d57888101915b838310610c035750505050610a2d60018060a01b03601254163314612751565b5193600160401b8511610bf05760095485600955808610610b7f575b509491600987528387209287965b868810610a62578880f35b8051805190858211610b6c57908791610a7b88546120f5565b908c601f9285848211610b38575b5050508c84928411600114610ad2579260019592819287969592610ac7575b50505f19600383901b1c191690841b1788555b01950197019693610a57565b015190505f80610aa8565b9190601f1984168a8452858420935b818110610b205750916001969391858897969410610b08575b505050831b83018855610abb565b01515f1960f88460031b161c191690555f8080610afa565b8284015185558c966001909501949384019301610ae1565b828c610b5b945220848087018b1c820192888810610b63575b018a1c0190612221565b8c5f85610a89565b92508192610b51565b634e487b7160e01b8b526041600452838bfd5b600988528585892091820191015b818110610b9a5750610a49565b8089610ba8600193546120f5565b80610bb6575b505001610b8d565b601f8082118514610bcf575050505f81555b895f610bae565b610be7908484528a84209201891c8201858301612221565b5f835555610bc8565b634e487b7160e01b875260416004528587fd5b8235868111610c29578891610c1e83928d3691870101612022565b815201920191610a0d565b8b80fd5b8980fd5b8380fd5b5080fd5b503461072557602036600319011261072557610c6c604060209260043581528084522060026001820154910154906122d9565b604051908152f35b503461072557610ca8602080926040610c8c366121cb565b9290815260048452208260405194838680955193849201612068565b82019081520301902054604051908152f35b503461072557602036600319011261072557610cd4611f6b565b6012546001600160a01b039190610cee9083163314612751565b1660018060a01b0319600e541617600e5580f35b503461072557602036600319011261072557610d2960018060a01b03601254163314612751565b60043560115580f35b5034610725576020366003190112610725576040610d98916004358152806020522060405190610d6d82610d66818461212d565b0383611fe6565b61098660018201549160ff600360028301549201541690604051958695608087526080870190612089565b936020860152604085015260608401906121be565b5034610725576020366003190112610725576040606091600435815260066020522060028101549060ff600560048301549201541690604051928352602083015215156040820152f35b503461072557602036600319011261072557610e11611f6b565b6012546001600160a01b039190610e2b9083163314612751565b1660018060a01b0319600c541617600c5580f35b50346107255760203660031901126107255760406020916004358152600183522054604051908152f35b50346107255780600319360112610725576020600254604051908152f35b50346107255760209081600319360112610725578060409160a08351610eac81611f81565b828152606086820152828582015260608082015282608082015201526004358152600683522060405190610edf82611f81565b60018060a01b0392838254168352610f8e604051610f0481610912816001880161212d565b82850190815260028401549060408601918252610f7560405191610f2f836107fd8160038b0161212d565b6060880192835260ff600560048901549860808b01998a520154169560a089019615158752604051998a99828b525116908901525160c0604089015260e0880190612089565b9151606087015251858203601f19016080870152612089565b915160a084015251151560c08301520390f35b50346107255760203660031901126107255760406020916004358152600583522054604051908152f35b5034610725576040366003190112610725576024356001600160a01b0381169190829003610559576040906004358152600a60205220905f52602052602060ff60405f2054166040519015158152f35b503461072557602080600319360112610c355760043582526008815260408220916040518092808554928381520194835280832092905b828210611075576109868561106981890382611fe6565b60405191829182611f31565b835486529485019460019384019390910190611052565b5034610725576020366003190112610725576110b360018060a01b03601254163314612751565b60043560105580f35b5034610725576020366003190112610725576110d6611f6b565b6012546001600160a01b0391906110f09083163314612751565b1660018060a01b0319600f541617600f5580f35b5034610725576060366003190112610725576024356001600160401b038111610c3557611135903690600401612022565b9060043581528060205261115160016040832001541515612291565b6111908160018060a01b03600c541660043582528160205260408220906040518080958194626e7c3160e91b835260206004840152602483019061212d565b03915afa90811561193d578291611815575b50600160443511156117d1576111bc6009548251906122d9565b60443511611791576004358252600a60205260408220335f5260205260ff60405f2054166117425761124e906004358352600a60205260408320335f5260205260405f20600160ff19825416179055602060018060a01b03600d54166004358552848252604085209060405180809681946302b5df5960e01b835233600484015260406024840152604483019061212d565b03915afa918215611737578392611703575b506009549060443582106116b257505f199060443580830190811161169e57101561168a576112a56109129160095f5260443560205f2001016040519283809261212d565b925b829360043584528360205260ff60036040862001541660048110156116765760010361166d575b604051946112db86611f81565b3386526020860195838752604435604082015282606082015284608082015281151560a082015260075486526006602052604086209660018060a01b0382511660018060a01b03198954161788555180516001600160401b0381116115bb578060018a019261134a84546120f5565b601f811161163d575b50602090601f83116001146115da578a926115cf575b50508160011b915f199060031b1c19161790555b6040810151600288015560608101519687516001600160401b0381116115bb576113aa60038301546120f5565b601f8111611588575b506020601f82116001146114ed5760056114909593837ffab0b7cc55d5c47eef9ab7fcd4c01a41a4ddfa36cec643d2a9cb97b3f57915d498969460a0948d9e6114b39e926114e2575b50508160011b915f199060031b1c19161760038201555b6080840151600482015501910151151560ff8019835416911617905560043588526008602052611449604089206007549061224f565b6114a3600754968796604051958695338d8b7f953de3727de1848ea7329bee97a44132bdd8271d8d663eb90bc2772f21541ec86004359280a4608087526080870190612089565b9160208601528482036040860152612089565b90151560608301520390a2612283565b90816007555f1982019182116114ce57602082604051908152f35b634e487b7160e01b81526011600452602490fd5b015190505f806113fc565b6003830189526020892099895b601f1984168110611570575061149095936001846114b39c9d60a0956005957ffab0b7cc55d5c47eef9ab7fcd4c01a41a4ddfa36cec643d2a9cb97b3f57915d49c9a98601f19811610611558575b505050811b016003820155611413565b01515f1960f88460031b161c191690555f8080611548565b828201518c556001909b019a602092830192016114fa565b6115b590600384018a5260208a20601f840160051c810191602085106104c057601f0160051c0190612221565b5f6113b3565b634e487b7160e01b88526041600452602488fd5b015190505f80611369565b848b5260208b209250601f1984168b5b818110611625575090846001959493921061160d575b505050811b01905561137d565b01515f1960f88460031b161c191690555f8080611600565b929360206001819287860151815501950193016115ea565b61166790858c5260208c20601f850160051c810191602086106104c057601f0160051c0190612221565b5f611353565b600194506112ce565b634e487b7160e01b85526021600452602485fd5b634e487b7160e01b5f52603260045260245ffd5b634e487b7160e01b85526011600452602485fd5b6044359182039182116116ef575f1982019182116116db57906116d4916122e6565b51926112a7565b634e487b7160e01b84526011600452602484fd5b634e487b7160e01b5f52601160045260245ffd5b9091506020813d60201161172f575b8161171f60209383611fe6565b810103126105595751905f611260565b3d9150611712565b6040513d85823e3d90fd5b60405162461bcd60e51b815260206004820152602160248201527f596f7527766520616c7265616479207265766965776564207468697320706f736044820152601d60fa1b6064820152608490fd5b60405162461bcd60e51b8152602060048201526018602482015277436f6e73656e736f7573204e6f7420496e20426f756e647360401b6044820152606490fd5b606460405162461bcd60e51b815260206004820152602060248201527f436f6e73656e736f7573206d75732062652067726561746572207468616e20316044820152fd5b90503d8083833e6118268183611fe6565b60208282810103126119395781516001600160401b038111610c3157818301601f828501011215610c3157808301519061185f826121fd565b9361186d6040519586611fe6565b828552602085019184820160208560051b83850101011161193557602081830101925b60208560051b838501010184106118ad575050505050505f6111a2565b83516001600160401b03811161193157868401603f8285870101011215611931576020818486010101516118e081612007565b916118ee6040519384611fe6565b81835288860160408383888a010101011161192d57928261192060209593869594604087809701918a8c010101612068565b8152019401939050611890565b8a80fd5b8880fd5b8680fd5b8280fd5b6040513d84823e3d90fd5b503461072557602036600319011261072557611962611f6b565b6012546001600160a01b03919061197c9083163314612751565b1660018060a01b0319600b541617600b5580f35b50346107255780600319360112610725576020601154604051908152f35b5034610725578060031936011261072557600c546040516001600160a01b039091168152602090f35b503461072557602080600319360112610c35576001600160401b0390600435828111610c315736602382011215610c31578060040135928311610c31578281016024933685830111610673578303611b87578183910312610c31578201359183831215611b8157611a47836122fa565b60018060a01b0380600f5416828752600585528460408820548560405180948193636f0817eb60e11b835260048301525afa908115611b76578791611b49575b501691823303611af8579083916040518094819363d670d4a960e01b835260048301525afa8015611aed57611ac4575b83611ac184612329565b80f35b813d8311611ae6575b611ad78183611fe6565b81010312610559575f80611ab7565b503d611acd565b6040513d86823e3d90fd5b8360256084926040519262461bcd60e51b845260048401528201527f4f6e6c79206c616e6520636f6e74726163742063616e20706572666f726d20756044820152640706b6565760dc1b6064820152fd5b611b699150853d8711611b6f575b611b618183611fe6565b81019061230a565b5f611a87565b503d611b57565b6040513d89823e3d90fd5b82611a47565b60405162461bcd60e51b815260048101849052601a818601527f496e76616c696420706572666f726d44617461206c656e6774680000000000006044820152606490fd5b50346107255780600319360112610725576020601054604051908152f35b503461072557602036600319011261072557611c03611f6b565b6012546001600160a01b039190611c1d9083163314612751565b1660018060a01b0319600d541617600d5580f35b503461072557602080600319360112610c35576004358015611dff57808352828252600160408420015415611da757611c6990612475565b919015611d545781611c7b8493612329565b82811215611d4e57611c8c906122fa565b905b60018060a01b039081600f541683855260058252816040862054602460405180948193636f0817eb60e11b835260048301525afa9182156105e2578592611d31575b505016803b15611d2d576024839260405194859384926302e43da960e31b845260048401525af1801561193d57611d05575080f35b6001600160401b038111611d195760405280f35b634e487b7160e01b82526041600452602482fd5b5050fd5b611d479250803d10611b6f57611b618183611fe6565b5f80611cd0565b90611c8e565b60405162461bcd60e51b815260206004820152602560248201527f55706b656570206e6f74206e656564656420666f722074686973207375626d6960448201526439b9b4b7b760d91b6064820152608490fd5b60405162461bcd60e51b815260048101839052602a60248201527f5375626d697373696f6e20646f6573206e6f74206578697374206f72206973206044820152696e6f742061637469766560b01b6064820152608490fd5b60405162461bcd60e51b8152600481018390526015602482015274125b9d985b1a59081cdd589b5a5cdcda5bdb881251605a1b6044820152606490fd5b503461072557602080600319360112610c355760043582526003815260408220916040518092808554928381520194835280832092905b828210611e8a576109868561106981890382611fe6565b835486529485019460019384019390910190611e73565b503461072557611eb036611f06565b91908152600860205260408120908154831015610725576020611ed38484611f1c565b90546040519160031b1c8152f35b905034610c355781600319360112610c3557600e546001600160a01b03168152602090f35b6040906003190112610559576004359060243590565b805482101561168a575f5260205f2001905f90565b602090816040818301928281528551809452019301915f5b828110611f57575050505090565b835185529381019392810192600101611f49565b600435906001600160a01b038216820361055957565b60c081019081106001600160401b03821117611f9c57604052565b634e487b7160e01b5f52604160045260245ffd5b608081019081106001600160401b03821117611f9c57604052565b604081019081106001600160401b03821117611f9c57604052565b90601f801991011681019081106001600160401b03821117611f9c57604052565b6001600160401b038111611f9c57601f01601f191660200190565b81601f820112156105595780359061203982612007565b926120476040519485611fe6565b8284526020838301011161055957815f926020809301838601378301015290565b5f5b8381106120795750505f910152565b818101518382015260200161206a565b906020916120a281518092818552858086019101612068565b601f01601f1916010190565b34610559576020366003190112610559576004355f525f6020526109866109126120e160405f206040519283809261212d565b604051918291602083526020830190612089565b90600182811c92168015612123575b602083101461210f57565b634e487b7160e01b5f52602260045260245ffd5b91607f1691612104565b905f929180549161213d836120f5565b9182825260019384811690815f1461219b575060011461215e575b50505050565b90919394505f52602092835f2092845f945b83861061218757505050500101905f808080612158565b805485870183015294019385908201612170565b9294505050602093945060ff191683830152151560051b0101905f808080612158565b90600482101561098a5752565b9060406003198301126105595760043591602435906001600160401b038211610559576121fa91600401612022565b90565b6001600160401b038111611f9c5760051b60200190565b5190811515820361055957565b81811061222c575050565b5f8155600101612221565b90600481101561098a5760ff80198354169116179055565b8054600160401b811015611f9c5761226c91600182018155611f1c565b819291549060031b91821b915f19901b1916179055565b5f1981146116ef5760010190565b1561229857565b60405162461bcd60e51b815260206004820152601960248201527814dd589b5a5cdcda5bdb88191bd95cc81b9bdd08195e1a5cdd603a1b6044820152606490fd5b919082018092116116ef57565b805182101561168a5760209160051b010190565b600160ff1b81146116ef575f0390565b9081602091031261055957516001600160a01b03811681036105595790565b5f919082811390811561246657905b8115158061243f575b80612428575b15611d5457156124215760025b81845260209084825261236e604091600383882001612237565b82855260018252808520549085835260ff6003828820015416600481101561040a579060026123f7927f3ed188edba0c6b2d9b7a54cec2942f1cab56a63a4dcfdca5ff11706ffdf25b1e96979850145f146123fc5780516123ce81611fcb565b60088152671058d8d95c1d195960c21b85820152905b8080519586958652850152830190612089565b0390a2565b805161240781611fcb565b600881526714995a9958dd195960c21b85820152906123e4565b6003612354565b508184528360205260016040852001541515612347565b508184528360205261245e6040852060026001820154910154906122d9565b421015612341565b61246f906122fa565b90612338565b5f915f91805f525f60205261249760405f2060026001820154910154906122d9565b4210156124a15750565b925090506121fa6001926124c5565b90815f03918083055f1914901517156116ef57565b60018060a01b03600c54165f90828252602090828252604092838120845192632691798960e01b84528360049186838301526060958691818061250d6024988983019061212d565b03915afa9687156127485784918590869961270c575b508986526008885281862090825180838b8295549384815201908a528b8a20928a5b8d8282106126f65750505061255c92500383611fe6565b838251106126e357869787998351601154908181115f146126db5750935b895b85811061260357505050505050508515809181156125f9575b506125e9576064850294808604606414901517156125d7576125c65750505004106125bd5790565b6121fa906124b0565b634e487b7160e01b83526012905281fd5b50634e487b7160e01b83526011905281fd5b505050505050506121fa906124b0565b905086105f612595565b61260d81836122e6565b51875190635cf17e1f60e11b82528a82015284818c81305afa80156126d1578c87918193829161268d575b50612681571015612653575b5061264e90612283565b61257c565b9c61265f600291612283565b9d1461266c575b5f612644565b9a61267961264e91612283565b9b9050612666565b50505061264e90612283565b93505050508481813d83116126ca575b6126a78183611fe6565b81010312610c29578581516126c18a878501519401612214565b9092905f612638565b503d61269d565b88513d8e823e3d90fd5b90509361257a565b505050505050505050506121fa906124b0565b8554845260019586019588955093019201612545565b92505096508481813d8311612741575b6127268183611fe6565b81010312610c3157805196808783015192015197915f612523565b503d61271c565b513d85823e3d90fd5b1561275857565b60405162461bcd60e51b81526020600482015260166024820152752737ba103a34329031b7b73a3930b1ba1037bbb732b960511b6044820152606490fdfea264697066735822122057c93060b13465f2677d2400e4284fd288d78ff6325b65d81200a1433cda256964736f6c63430008140033",
  "linkReferences": {},
  "deployedLinkReferences": {}
}