{
  "_format": "hh-sol-artifact-1",
  "contractName": "tgetherPosts",
  "sourceName": "contracts/tgehterPosts.sol",
  "abi": [
    {
      "inputs": [],
      "stateMutability": "nonpayable",
      "type": "constructor"
    },
    {
      "anonymous": false,
      "inputs": [
        {
          "indexed": true,
          "internalType": "address",
          "name": "owner",
          "type": "address"
        },
        {
          "indexed": true,
          "internalType": "address",
          "name": "approved",
          "type": "address"
        },
        {
          "indexed": true,
          "internalType": "uint256",
          "name": "tokenId",
          "type": "uint256"
        }
      ],
      "name": "Approval",
      "type": "event"
    },
    {
      "anonymous": false,
      "inputs": [
        {
          "indexed": true,
          "internalType": "address",
          "name": "owner",
          "type": "address"
        },
        {
          "indexed": true,
          "internalType": "address",
          "name": "operator",
          "type": "address"
        },
        {
          "indexed": false,
          "internalType": "bool",
          "name": "approved",
          "type": "bool"
        }
      ],
      "name": "ApprovalForAll",
      "type": "event"
    },
    {
      "anonymous": false,
      "inputs": [
        {
          "indexed": false,
          "internalType": "uint256",
          "name": "postId",
          "type": "uint256"
        },
        {
          "indexed": false,
          "internalType": "string",
          "name": "keyword",
          "type": "string"
        }
      ],
      "name": "Keywords",
      "type": "event"
    },
    {
      "anonymous": false,
      "inputs": [
        {
          "indexed": true,
          "internalType": "uint256",
          "name": "postId",
          "type": "uint256"
        },
        {
          "indexed": false,
          "internalType": "string",
          "name": "content",
          "type": "string"
        },
        {
          "indexed": false,
          "internalType": "string",
          "name": "title",
          "type": "string"
        },
        {
          "indexed": false,
          "internalType": "string",
          "name": "description",
          "type": "string"
        }
      ],
      "name": "PostInfo",
      "type": "event"
    },
    {
      "anonymous": false,
      "inputs": [
        {
          "indexed": true,
          "internalType": "uint256",
          "name": "postId",
          "type": "uint256"
        },
        {
          "indexed": true,
          "internalType": "address",
          "name": "authorAddress",
          "type": "address"
        },
        {
          "indexed": false,
          "internalType": "string",
          "name": "authorName",
          "type": "string"
        }
      ],
      "name": "PostMintedTo",
      "type": "event"
    },
    {
      "anonymous": false,
      "inputs": [
        {
          "indexed": true,
          "internalType": "address",
          "name": "from",
          "type": "address"
        },
        {
          "indexed": true,
          "internalType": "address",
          "name": "to",
          "type": "address"
        },
        {
          "indexed": true,
          "internalType": "uint256",
          "name": "tokenId",
          "type": "uint256"
        }
      ],
      "name": "Transfer",
      "type": "event"
    },
    {
      "inputs": [
        {
          "internalType": "uint256",
          "name": "_postId",
          "type": "uint256"
        },
        {
          "internalType": "string",
          "name": "_keyword",
          "type": "string"
        }
      ],
      "name": "addKeyword",
      "outputs": [],
      "stateMutability": "nonpayable",
      "type": "function"
    },
    {
      "inputs": [
        {
          "internalType": "address",
          "name": "to",
          "type": "address"
        },
        {
          "internalType": "uint256",
          "name": "tokenId",
          "type": "uint256"
        }
      ],
      "name": "approve",
      "outputs": [],
      "stateMutability": "nonpayable",
      "type": "function"
    },
    {
      "inputs": [
        {
          "internalType": "address",
          "name": "owner",
          "type": "address"
        }
      ],
      "name": "balanceOf",
      "outputs": [
        {
          "internalType": "uint256",
          "name": "",
          "type": "uint256"
        }
      ],
      "stateMutability": "view",
      "type": "function"
    },
    {
      "inputs": [],
      "name": "consensusAddress",
      "outputs": [
        {
          "internalType": "address",
          "name": "",
          "type": "address"
        }
      ],
      "stateMutability": "view",
      "type": "function"
    },
    {
      "inputs": [
        {
          "internalType": "uint256",
          "name": "tokenId",
          "type": "uint256"
        }
      ],
      "name": "getApproved",
      "outputs": [
        {
          "internalType": "address",
          "name": "",
          "type": "address"
        }
      ],
      "stateMutability": "view",
      "type": "function"
    },
    {
      "inputs": [
        {
          "internalType": "uint256",
          "name": "_postId",
          "type": "uint256"
        }
      ],
      "name": "getPost",
      "outputs": [
        {
          "components": [
            {
              "internalType": "string",
              "name": "content",
              "type": "string"
            },
            {
              "internalType": "string",
              "name": "title",
              "type": "string"
            },
            {
              "internalType": "address",
              "name": "authorAddress",
              "type": "address"
            },
            {
              "internalType": "string",
              "name": "authorName",
              "type": "string"
            },
            {
              "internalType": "string",
              "name": "description",
              "type": "string"
            }
          ],
          "internalType": "struct tgetherPosts.Post",
          "name": "",
          "type": "tuple"
        }
      ],
      "stateMutability": "view",
      "type": "function"
    },
    {
      "inputs": [
        {
          "internalType": "uint256",
          "name": "_postId",
          "type": "uint256"
        }
      ],
      "name": "getPostExists",
      "outputs": [
        {
          "internalType": "bool",
          "name": "",
          "type": "bool"
        }
      ],
      "stateMutability": "view",
      "type": "function"
    },
    {
      "inputs": [],
      "name": "incrementToken",
      "outputs": [],
      "stateMutability": "nonpayable",
      "type": "function"
    },
    {
      "inputs": [
        {
          "internalType": "address",
          "name": "owner",
          "type": "address"
        },
        {
          "internalType": "address",
          "name": "operator",
          "type": "address"
        }
      ],
      "name": "isApprovedForAll",
      "outputs": [
        {
          "internalType": "bool",
          "name": "",
          "type": "bool"
        }
      ],
      "stateMutability": "view",
      "type": "function"
    },
    {
      "inputs": [
        {
          "internalType": "string",
          "name": "_content",
          "type": "string"
        },
        {
          "internalType": "string",
          "name": "_title",
          "type": "string"
        },
        {
          "internalType": "string",
          "name": "_authorName",
          "type": "string"
        },
        {
          "internalType": "string",
          "name": "_description",
          "type": "string"
        }
      ],
      "name": "mintPost",
      "outputs": [
        {
          "internalType": "uint256",
          "name": "",
          "type": "uint256"
        }
      ],
      "stateMutability": "nonpayable",
      "type": "function"
    },
    {
      "inputs": [],
      "name": "name",
      "outputs": [
        {
          "internalType": "string",
          "name": "",
          "type": "string"
        }
      ],
      "stateMutability": "view",
      "type": "function"
    },
    {
      "inputs": [],
      "name": "owner",
      "outputs": [
        {
          "internalType": "address",
          "name": "",
          "type": "address"
        }
      ],
      "stateMutability": "view",
      "type": "function"
    },
    {
      "inputs": [
        {
          "internalType": "uint256",
          "name": "tokenId",
          "type": "uint256"
        }
      ],
      "name": "ownerOf",
      "outputs": [
        {
          "internalType": "address",
          "name": "",
          "type": "address"
        }
      ],
      "stateMutability": "view",
      "type": "function"
    },
    {
      "inputs": [
        {
          "internalType": "uint256",
          "name": "",
          "type": "uint256"
        }
      ],
      "name": "posts",
      "outputs": [
        {
          "internalType": "string",
          "name": "content",
          "type": "string"
        },
        {
          "internalType": "string",
          "name": "title",
          "type": "string"
        },
        {
          "internalType": "address",
          "name": "authorAddress",
          "type": "address"
        },
        {
          "internalType": "string",
          "name": "authorName",
          "type": "string"
        },
        {
          "internalType": "string",
          "name": "description",
          "type": "string"
        }
      ],
      "stateMutability": "view",
      "type": "function"
    },
    {
      "inputs": [
        {
          "internalType": "address",
          "name": "from",
          "type": "address"
        },
        {
          "internalType": "address",
          "name": "to",
          "type": "address"
        },
        {
          "internalType": "uint256",
          "name": "tokenId",
          "type": "uint256"
        }
      ],
      "name": "safeTransferFrom",
      "outputs": [],
      "stateMutability": "nonpayable",
      "type": "function"
    },
    {
      "inputs": [
        {
          "internalType": "address",
          "name": "from",
          "type": "address"
        },
        {
          "internalType": "address",
          "name": "to",
          "type": "address"
        },
        {
          "internalType": "uint256",
          "name": "tokenId",
          "type": "uint256"
        },
        {
          "internalType": "bytes",
          "name": "data",
          "type": "bytes"
        }
      ],
      "name": "safeTransferFrom",
      "outputs": [],
      "stateMutability": "nonpayable",
      "type": "function"
    },
    {
      "inputs": [
        {
          "internalType": "address",
          "name": "operator",
          "type": "address"
        },
        {
          "internalType": "bool",
          "name": "approved",
          "type": "bool"
        }
      ],
      "name": "setApprovalForAll",
      "outputs": [],
      "stateMutability": "nonpayable",
      "type": "function"
    },
    {
      "inputs": [
        {
          "internalType": "address",
          "name": "_v2ContractAddress",
          "type": "address"
        }
      ],
      "name": "setV2ContractAddress",
      "outputs": [],
      "stateMutability": "nonpayable",
      "type": "function"
    },
    {
      "inputs": [
        {
          "internalType": "bytes4",
          "name": "interfaceId",
          "type": "bytes4"
        }
      ],
      "name": "supportsInterface",
      "outputs": [
        {
          "internalType": "bool",
          "name": "",
          "type": "bool"
        }
      ],
      "stateMutability": "view",
      "type": "function"
    },
    {
      "inputs": [],
      "name": "symbol",
      "outputs": [
        {
          "internalType": "string",
          "name": "",
          "type": "string"
        }
      ],
      "stateMutability": "view",
      "type": "function"
    },
    {
      "inputs": [
        {
          "internalType": "uint256",
          "name": "index",
          "type": "uint256"
        }
      ],
      "name": "tokenByIndex",
      "outputs": [
        {
          "internalType": "uint256",
          "name": "",
          "type": "uint256"
        }
      ],
      "stateMutability": "view",
      "type": "function"
    },
    {
      "inputs": [
        {
          "internalType": "address",
          "name": "owner",
          "type": "address"
        },
        {
          "internalType": "uint256",
          "name": "index",
          "type": "uint256"
        }
      ],
      "name": "tokenOfOwnerByIndex",
      "outputs": [
        {
          "internalType": "uint256",
          "name": "",
          "type": "uint256"
        }
      ],
      "stateMutability": "view",
      "type": "function"
    },
    {
      "inputs": [
        {
          "internalType": "uint256",
          "name": "tokenId",
          "type": "uint256"
        }
      ],
      "name": "tokenURI",
      "outputs": [
        {
          "internalType": "string",
          "name": "",
          "type": "string"
        }
      ],
      "stateMutability": "view",
      "type": "function"
    },
    {
      "inputs": [],
      "name": "totalSupply",
      "outputs": [
        {
          "internalType": "uint256",
          "name": "",
          "type": "uint256"
        }
      ],
      "stateMutability": "view",
      "type": "function"
    },
    {
      "inputs": [
        {
          "internalType": "address",
          "name": "from",
          "type": "address"
        },
        {
          "internalType": "address",
          "name": "to",
          "type": "address"
        },
        {
          "internalType": "uint256",
          "name": "tokenId",
          "type": "uint256"
        }
      ],
      "name": "transferFrom",
      "outputs": [],
      "stateMutability": "nonpayable",
      "type": "function"
    },
    {
      "inputs": [
        {
          "internalType": "uint256",
          "name": "_tokenId",
          "type": "uint256"
        }
      ],
      "name": "transferNFTsToV2",
      "outputs": [],
      "stateMutability": "nonpayable",
      "type": "function"
    },
    {
      "inputs": [
        {
          "internalType": "address",
          "name": "to",
          "type": "address"
        },
        {
          "internalType": "uint256",
          "name": "tokenId",
          "type": "uint256"
        }
      ],
      "name": "transferToken",
      "outputs": [],
      "stateMutability": "nonpayable",
      "type": "function"
    },
    {
      "inputs": [],
      "name": "v2ContractAddress",
      "outputs": [
        {
          "internalType": "address",
          "name": "",
          "type": "address"
        }
      ],
      "stateMutability": "view",
      "type": "function"
    }
  ],
  "bytecode": "0x60803462000325576001600160401b0390604090808201838111828210176200031157825260118152602092704c6561726e74676574686572506f73747360781b848301528251838101818110838211176200031157845260038152624c544760e81b8582015282519082821162000311575f8054926001958685811c9516801562000306575b89861014620002f2578190601f958681116200029f575b5089908683116001146200023c57849262000230575b50505f19600383901b1c191690861b1781555b81519384116200021c5784548581811c9116801562000211575b88821014620001fd57838111620001b5575b5086928411600114620001505783949596509262000144575b50505f19600383901b1c191690821b1781555b3360018060a01b0319600c541617600c55600a5401600a55516120b390816200032a8239f35b015190505f806200010b565b9190601f1984169685845280842093905b8882106200019d575050838596971062000184575b505050811b0181556200011e565b01515f1960f88460031b161c191690555f808062000176565b80878596829496860151815501950193019062000161565b8582528782208480870160051c8201928a8810620001f3575b0160051c019086905b828110620001e7575050620000f2565b838155018690620001d7565b92508192620001ce565b634e487b7160e01b82526022600452602482fd5b90607f1690620000e0565b634e487b7160e01b81526041600452602490fd5b015190505f80620000b3565b8480528a85208994509190601f198416865b8d8282106200028857505084116200026f575b505050811b018155620000c6565b01515f1960f88460031b161c191690555f808062000261565b8385015186558c979095019493840193016200024e565b9091508380528984208680850160051c8201928c8610620002e8575b918a91869594930160051c01915b828110620002d95750506200009d565b8681558594508a9101620002c9565b92508192620002bb565b634e487b7160e01b83526022600452602483fd5b94607f169462000086565b634e487b7160e01b5f52604160045260245ffd5b5f80fdfe6080806040526004361015610012575f80fd5b5f3560e01c90816301ffc9a7146115db5750806306fdde031461153c578063081812fc1461151e578063095ea7b3146113aa5780630b1e7f83146112fe5780631072cbea1461126b57806318160ddd1461124e57806323b872dd1461122a5780632f745c591461117c578063336c1ad714610fad57806340731c2414610e9957806342842e0e14610e825780634f6ccce714610df15780636352211e14610dc15780636a02042914610d9957806370a0823114610d6e5780637b4f6d9214610d265780637d67e96714610c945780638da5cb5b14610c6c57806395d89b4114610bac578063a22cb46514610ae2578063ae54e32b14610aba578063b225500c14610a92578063b88d4fde14610a10578063c87b56dd146109a2578063d242d34e146101d6578063e985e9c5146101845763f6a800ee14610150575f80fd5b34610180575f3660031901126101805761017560018060a01b03600c54163314612036565b600a80546001019055005b5f80fd5b346101805760403660031901126101805761019d61169e565b6101a56116b4565b9060018060a01b038091165f52600560205260405f2091165f52602052602060ff60405f2054166040519015158152f35b34610180576080366003190112610180576004356001600160401b03811161018057610206903690600401611880565b6024356001600160401b03811161018057610225903690600401611880565b6044356001600160401b03811161018057610244903690600401611880565b906064356001600160401b03811161018057610264903690600401611880565b90600a549260405161027581611702565b85815282602082015233604082015281606082015283608082015260405161029c8161171d565b5f8152331561095e575f868152600260205260409020546102c9906001600160a01b031615155b15611f7e565b600854865f5260096020528060405f2055600160401b811015610705576103c891610319886103018460016103c39601600855611f52565b90919082549060031b91821b915f19901b1916179055565b6103223361189e565b335f52600660205260405f20815f526020528860405f2055885f52600760205260405f20556103676102c3895f52600260205260018060a01b0360405f205416151590565b335f52600360205260405f2060018154019055875f52600260205260405f203360018060a01b031982541617905587335f7fddf252ad1be2c89b69c2b068fc378daa952ba7f163c4a11628f55a4df523b3ef8180a48733611db1565b611a92565b6001600a5401600a55845f52600b60205260405f209080518051906001600160401b0382116107055781906103fd85546116ca565b601f8111610911575b50602090601f83116001146108a9575f9261089e575b50508160011b915f199060031b1c19161782555b60208101518051906001600160401b03821161070557819061045560018601546116ca565b601f811161084e575b50602090601f83116001146107e0575f926107d5575b50508160011b915f199060031b1c19161760018301555b60408101516002830180546001600160a01b0319166001600160a01b039290921691909117905560608101518051906001600160401b038211610705576104d560038501546116ca565b601f8111610791575b50602090601f83116001146107245760809392915f9183610719575b50508160011b915f199060031b1c19161760038401555b01518051906001600160401b0382116107055761053160048401546116ca565b601f81116106bd575b50918695939160209895938990601f831160011461062357936105f296936004846105ff957f41d9ee46553ca41d124afede342bf442c55b026baacc09a8e03e44ac6a05fae09b999561060d995f92610618575b50508160011b915f199060031b1c1916179101555b887ff186850512b83bbf0f335f7c800bedbe0614ce9d5dbf664fd16bb7a2ef97683a6040518d8152806105db33956020830190611660565b0390a3604051958695606087526060870190611660565b908582038b870152611660565b908382036040850152611660565b0390a2604051908152f35b015190508f8061058e565b90601f19831691600485015f528b5f20925f5b8181106106a357506001857f41d9ee46553ca41d124afede342bf442c55b026baacc09a8e03e44ac6a05fae09b999561060d99956105f29c99956105ff996004961061068b575b505050811b019101556105a3565b01515f1960f88460031b161c191690558f808061067d565b8284015185558c9b50600190940193928d01928d01610636565b600484015f5260205f20601f840160051c810191602085106106fb575b601f0160051c01905b8181106106f0575061053a565b5f81556001016106e3565b90915081906106da565b634e487b7160e01b5f52604160045260245ffd5b015190508a806104fa565b90601f19831691600386015f5260205f20925f5b8181106107795750916001939185608097969410610761575b505050811b016003840155610511565b01515f1960f88460031b161c191690558a8080610751565b92936020600181928786015181550195019301610738565b600385015f5260205f20601f840160051c8101602085106107ce575b601f830160051c820181106107c35750506104de565b5f81556001016107ad565b50806107ad565b015190508980610474565b9250600185015f5260205f20905f935b601f1984168510610833576001945083601f1981161061081b575b505050811b01600183015561048b565b01515f1960f88460031b161c1916905589808061080b565b818101518355602094850194600190930192909101906107f0565b909150600185015f5260205f20601f840160051c810160208510610897575b90849392915b601f830160051c8201811061088957505061045e565b5f8155859450600101610873565b508061086d565b01519050898061041c565b9250845f5260205f20905f935b601f19841685106108f6576001945083601f198116106108de575b505050811b018255610430565b01515f1960f88460031b161c191690558980806108d1565b818101518355602094850194600190930192909101906108b6565b909150845f5260205f20601f840160051c810160208510610957575b90849392915b601f830160051c82018110610949575050610406565b5f8155859450600101610933565b508061092d565b606460405162461bcd60e51b815260206004820152602060248201527f4552433732313a206d696e7420746f20746865207a65726f20616464726573736044820152fd5b34610180576020366003190112610180576004355f908152600260205260409020546109d8906001600160a01b03161515611913565b5f6040516109e58161171d565b52610a0c6040516109f58161171d565b5f8152604051918291602083526020830190611660565b0390f35b3461018057608036600319011261018057610a2961169e565b610a316116b4565b90606435906044356001600160401b038311610180573660238401121561018057610a9093610a6d6103c394369060248160040135910161184a565b92610a80610a7b8433611ab6565b6119b8565b610a8b838383611b7a565b611ecd565b005b34610180576020366003190112610180576020610ab0600435612016565b6040519015158152f35b34610180575f36600319011261018057600e546040516001600160a01b039091168152602090f35b3461018057604036600319011261018057610afb61169e565b60243590811515809203610180576001600160a01b031690338214610b6b57335f52600560205260405f20825f5260205260405f2060ff1981541660ff83161790556040519081527f17307eab39ab6107e8899845ad3d59bd9653f200f220920489ca2b5937696c3160203392a3005b60405162461bcd60e51b815260206004820152601960248201527822a9219b99189d1030b8383937bb32903a379031b0b63632b960391b6044820152606490fd5b34610180575f366003190112610180576040515f9060018054610bce816116ca565b80845290828116908115610c445750600114610c09575b610a0c83610bf581870382611738565b604051918291602083526020830190611660565b9250805f52602092835f20915f925b828410610c3157505050810190910190610bf581610be5565b8054858501870152928501928101610c18565b610a0c9550610bf593506020915091849260ff191682840152151560051b8201019350610be5565b34610180575f36600319011261018057600c546040516001600160a01b039091168152602090f35b34610180576040366003190112610180576024356004356001600160401b03821161018057610ce87f0b290e01b548ae78ace76449298ed234c42194d80af9f7dfe02fc4f7de07b9d3923690600401611880565b90610d05610cf58261195a565b6001600160a01b03163314611fca565b610d216040519283928352604060208401526040830190611660565b0390a1005b3461018057602036600319011261018057610d3f61169e565b600c546001600160a01b039190610d599083163314612036565b1660018060a01b0319600d541617600d555f80f35b34610180576020366003190112610180576020610d91610d8c61169e565b61189e565b604051908152f35b34610180575f36600319011261018057600d546040516001600160a01b039091168152602090f35b34610180576020366003190112610180576020610ddf60043561195a565b6040516001600160a01b039091168152f35b3461018057602036600319011261018057600435600854811015610e2857610e1a602091611f52565b90546040519160031b1c8152f35b60405162461bcd60e51b815260206004820152602c60248201527f455243373231456e756d657261626c653a20676c6f62616c20696e646578206f60448201526b7574206f6620626f756e647360a01b6064820152608490fd5b3461018057610a90610e93366117fa565b91611a1a565b346101805760208060031936011261018057608090604051610eba81611702565b606092818480935282848201525f6040820152828082015201526004355f52600b8152610a0c60405f2060405193610ef185611702565b610efa82611759565b8552610f9c610f0b60018401611759565b9185870192835260018060a01b0393846002820154169160408901928352610f476004610f3a60038501611759565b93838c0194855201611759565b9560808a01968752610f85610f6f8a60a06040519d8e9d8e5251918d015260c08c0190611660565b965196601f1997888c83030160408d0152611660565b935116908801525183878303016080880152611660565b9151908483030160a0850152611660565b34610180576003196020368201811361018057600d546001600160a01b0390811692906004358415611137579081610fe685949361195a565b610ff39083163314611fca565b805f52600b845260405f20906040519661100c88611702565b61101583611759565b885261102360018401611759565b94868901958652846002850154169460408a019586526003850161104690611759565b9460608b0195865260040161105a90611759565b9260808b0193845284339161106e92611a1a565b80600d5416955116935195519851915191604051998a97889687966306b72f8f60e11b8852600488015260248701526044860160c0905260c486016110b291611660565b838682030160648701526110c591611660565b828582030160848601526110d891611660565b908382030160a48401526110eb91611660565b03915a905f91f1801561112c576110fe57005b81813d8311611125575b6111128183611738565b8101031261018057518015150361018057005b503d611108565b6040513d5f823e3d90fd5b60405162461bcd60e51b815260048101859052601b60248201527f563220636f6e74726163742061646472657373206e6f742073657400000000006044820152606490fd5b346101805760403660031901126101805761119561169e565b602435906111a28161189e565b8210156111d15760018060a01b03165f52600660205260405f20905f52602052602060405f2054604051908152f35b60405162461bcd60e51b815260206004820152602b60248201527f455243373231456e756d657261626c653a206f776e657220696e646578206f7560448201526a74206f6620626f756e647360a81b6064820152608490fd5b3461018057610a9061123b366117fa565b91611249610a7b8433611ab6565b611b7a565b34610180575f366003190112610180576020600854604051908152f35b346101805760403660031901126101805761128461169e565b6024356112908161195a565b336001600160a01b03909116036112ab57610a909133611b7a565b60405162461bcd60e51b815260206004820152602560248201527f4f6e6c7920746865206f776e65722063616e207472616e7366657220746865206044820152643a37b5b2b760d91b6064820152608490fd5b34610180576020366003190112610180576004355f52600b60205261137b60405f20610a0c61132c82611759565b9161139c61133c60018301611759565b9160018060a01b0360028201541690611389611366600461135f60038501611759565b9301611759565b9460405198899860a08a5260a08a0190611660565b9088820360208a0152611660565b9160408701528582036060870152611660565b908382036080850152611660565b34610180576040366003190112610180576113c361169e565b602435906001600160a01b0380806113da8561195a565b169216918083146114cf578033149081156114ae575b5015611443575f83815260046020526040902080546001600160a01b0319168317905561141c8361195a565b167f8c5be1e5ebec7d5bd14f71427d1e84f3dd0314c0f7b2291e5b200ac8c7c3b9255f80a4005b60405162461bcd60e51b815260206004820152603d60248201527f4552433732313a20617070726f76652063616c6c6572206973206e6f7420746f60448201527f6b656e206f776e6572206f7220617070726f76656420666f7220616c6c0000006064820152608490fd5b90505f52600560205260405f20335f5260205260ff60405f205416846113f0565b60405162461bcd60e51b815260206004820152602160248201527f4552433732313a20617070726f76616c20746f2063757272656e74206f776e656044820152603960f91b6064820152608490fd5b34610180576020366003190112610180576020610ddf60043561197c565b34610180575f366003190112610180576040515f905f5461155c816116ca565b808352600191808316908115610c44575060011461158457610a0c83610bf581870382611738565b5f80805260209450917f290decd9548b62a8d60345a988386fc84ba6bc95484008f6362f93160ef3e5635b8284106115c857505050810190910190610bf581610be5565b80548585018701529285019281016115af565b34610180576020366003190112610180576004359063ffffffff60e01b82168092036101805760209163780e9d6360e01b811490811561161d575b5015158152f35b6380ac58cd60e01b81149150811561164f575b811561163e575b5083611616565b6301ffc9a760e01b14905083611637565b635b5e139f60e01b81149150611630565b91908251928382525f5b84811061168a575050825f602080949584010152601f8019910116010190565b60208183018101518483018201520161166a565b600435906001600160a01b038216820361018057565b602435906001600160a01b038216820361018057565b90600182811c921680156116f8575b60208310146116e457565b634e487b7160e01b5f52602260045260245ffd5b91607f16916116d9565b60a081019081106001600160401b0382111761070557604052565b602081019081106001600160401b0382111761070557604052565b90601f801991011681019081106001600160401b0382111761070557604052565b9060405191825f82549261176c846116ca565b9081845260019485811690815f146117d75750600114611797575b505061179592500383611738565b565b909391505f52602090815f20935f915b8183106117bf57505061179593508201015f80611787565b855488840185015294850194879450918301916117a7565b91505061179594506020925060ff191682840152151560051b8201015f80611787565b6060906003190112610180576001600160a01b0390600435828116810361018057916024359081168103610180579060443590565b6001600160401b03811161070557601f01601f191660200190565b9291926118568261182f565b916118646040519384611738565b829481845281830111610180578281602093845f960137010152565b9080601f830112156101805781602061189b9335910161184a565b90565b6001600160a01b031680156118bc575f52600360205260405f205490565b60405162461bcd60e51b815260206004820152602960248201527f4552433732313a2061646472657373207a65726f206973206e6f7420612076616044820152683634b21037bbb732b960b91b6064820152608490fd5b1561191a57565b60405162461bcd60e51b8152602060048201526018602482015277115490cdcc8c4e881a5b9d985b1a59081d1bdad95b88125160421b6044820152606490fd5b5f908152600260205260409020546001600160a01b031661189b811515611913565b5f8181526002602052604090205461199e906001600160a01b03161515611913565b5f908152600460205260409020546001600160a01b031690565b156119bf57565b60405162461bcd60e51b815260206004820152602d60248201527f4552433732313a2063616c6c6572206973206e6f7420746f6b656e206f776e6560448201526c1c881bdc88185c1c1c9bdd9959609a1b6064820152608490fd5b611795926103c39260405192611a2f8461171d565b5f8452610a80610a7b8433611ab6565b60809060208152603260208201527f4552433732313a207472616e7366657220746f206e6f6e20455243373231526560408201527131b2b4bb32b91034b6b83632b6b2b73a32b960711b60608201520190565b15611a9957565b60405162461bcd60e51b815280611ab260048201611a3f565b0390fd5b906001600160a01b038080611aca8461195a565b16931691838314938415611afd575b508315611ae7575b50505090565b611af39192935061197c565b16145f8080611ae1565b9093505f52600560205260405f20825f5260205260ff60405f205416925f611ad9565b15611b2757565b60405162461bcd60e51b815260206004820152602560248201527f4552433732313a207472616e736665722066726f6d20696e636f72726563742060448201526437bbb732b960d91b6064820152608490fd5b611b9e91611b878461195a565b6001600160a01b0393848416939185168414611b20565b838216938415611d6057839182611cab57506008545f8781526009602052604090208190559150600160401b82101561070557611c0392611bea87610301856001899701600855611f52565b828603611c79575b50611bfc8661195a565b1614611b20565b7fddf252ad1be2c89b69c2b068fc378daa952ba7f163c4a11628f55a4df523b3ef5f84815260046020526040812060018060a01b0319908181541690558382526003602052604082205f1981540190558482526040822060018154019055858252600260205284604083209182541617905580a4565b611c829061189e565b60405f87815260066020528181208382526020528882822055888152600760205220555f611bf2565b858303611cbd575b50611c0392611bea565b611cc891925061189e565b5f19810191908211611d4c57611c039284925f908882526020906007825260409182842054828103611d15575b508a84528383812055868452600681528284209184525281205592611cb3565b878552600682528385208386528252838520548886526006835284862082875283528085872055855260078252838520555f611cf5565b634e487b7160e01b5f52601160045260245ffd5b60405162461bcd60e51b8152602060048201526024808201527f4552433732313a207472616e7366657220746f20746865207a65726f206164646044820152637265737360e01b6064820152608490fd5b91929091803b15611ec457611dfd936040519081630a85bd0160e11b938482523360048301525f9687602484015260448301526080606483015281878160209a8b966084830190611660565b03926001600160a01b03165af1849181611e80575b50611e6f575050503d5f14611e67573d611e2b8161182f565b90611e396040519283611738565b81528091833d92013e5b80519182611e645760405162461bcd60e51b815280611ab260048201611a3f565b01fd5b506060611e43565b6001600160e01b0319161492509050565b9091508581813d8311611ebd575b611e988183611738565b81010312611eb957516001600160e01b031981168103611eb957905f611e12565b8480fd5b503d611e8e565b50915050600190565b92939190803b15611f4857611f1f946040518092630a85bd0160e11b9485835233600484015260018060a01b03809816602484015260448301526080606483015281806020998a956084830190611660565b03915f988991165af1849181611e805750611e6f575050503d5f14611e67573d611e2b8161182f565b5050915050600190565b600854811015611f6a5760085f5260205f2001905f90565b634e487b7160e01b5f52603260045260245ffd5b15611f8557565b60405162461bcd60e51b815260206004820152601c60248201527f4552433732313a20746f6b656e20616c7265616479206d696e746564000000006044820152606490fd5b15611fd157565b60405162461bcd60e51b815260206004820152601a60248201527f4e6f7420746865206f776e6572206f662074686520746f6b656e0000000000006044820152606490fd5b6001600160a01b03906120289061195a565b16612031575f90565b600190565b1561203d57565b60405162461bcd60e51b815260206004820152601860248201527702737ba103a34329031b7b73a3930b1ba1037bbb732b910360451b6044820152606490fdfea2646970667358221220b324fb4a6a47e0daf3c6af4afc12277515b4b7768108831e3e30b88adc2140a264736f6c63430008140033",
  "linkReferences": {},
  "deployedLinkReferences": {}
}