{
  "_format": "hh-sol-artifact-1",
  "contractName": "MockLinkToken",
  "sourceName": "contracts/MockLinkToken.sol",
  "abi": [
    {
      "anonymous": false,
      "inputs": [
        {
          "indexed": true,
          "internalType": "address",
          "name": "owner",
          "type": "address"
        },
        {
          "indexed": true,
          "internalType": "address",
          "name": "spender",
          "type": "address"
        },
        {
          "indexed": false,
          "internalType": "uint256",
          "name": "value",
          "type": "uint256"
        }
      ],
      "name": "Approval",
      "type": "event"
    },
    {
      "anonymous": false,
      "inputs": [
        {
          "indexed": true,
          "internalType": "address",
          "name": "from",
          "type": "address"
        },
        {
          "indexed": true,
          "internalType": "address",
          "name": "to",
          "type": "address"
        },
        {
          "indexed": false,
          "internalType": "uint256",
          "name": "value",
          "type": "uint256"
        }
      ],
      "name": "Transfer",
      "type": "event"
    },
    {
      "inputs": [
        {
          "internalType": "address",
          "name": "spender",
          "type": "address"
        },
        {
          "internalType": "uint256",
          "name": "value",
          "type": "uint256"
        }
      ],
      "name": "approve",
      "outputs": [
        {
          "internalType": "bool",
          "name": "",
          "type": "bool"
        }
      ],
      "stateMutability": "nonpayable",
      "type": "function"
    },
    {
      "inputs": [
        {
          "internalType": "address",
          "name": "owner",
          "type": "address"
        }
      ],
      "name": "balanceOf",
      "outputs": [
        {
          "internalType": "uint256",
          "name": "",
          "type": "uint256"
        }
      ],
      "stateMutability": "view",
      "type": "function"
    },
    {
      "inputs": [
        {
          "internalType": "address",
          "name": "to",
          "type": "address"
        },
        {
          "internalType": "uint256",
          "name": "value",
          "type": "uint256"
        }
      ],
      "name": "mint",
      "outputs": [],
      "stateMutability": "nonpayable",
      "type": "function"
    },
    {
      "inputs": [
        {
          "internalType": "address",
          "name": "to",
          "type": "address"
        },
        {
          "internalType": "uint256",
          "name": "value",
          "type": "uint256"
        }
      ],
      "name": "transfer",
      "outputs": [
        {
          "internalType": "bool",
          "name": "",
          "type": "bool"
        }
      ],
      "stateMutability": "nonpayable",
      "type": "function"
    },
    {
      "inputs": [
        {
          "internalType": "address",
          "name": "from",
          "type": "address"
        },
        {
          "internalType": "address",
          "name": "to",
          "type": "address"
        },
        {
          "internalType": "uint256",
          "name": "value",
          "type": "uint256"
        }
      ],
      "name": "transferFrom",
      "outputs": [
        {
          "internalType": "bool",
          "name": "",
          "type": "bool"
        }
      ],
      "stateMutability": "nonpayable",
      "type": "function"
    }
  ],
  "bytecode": "0x60808060405234610016576103cf908161001b8239f35b5f80fdfe608060408181526004361015610013575f80fd5b5f91823560e01c908163095ea7b31461027b5750806323b872dd1461016e57806340c10f191461011957806370a08231146100e35763a9059cbb14610056575f80fd5b346100df57806003193601126100df576020916100716102ee565b826024359133845283865261008b83838620541015610308565b33845283865281842061009f84825461034b565b90556001600160a01b0316808452838652922080546100bf90839061036c565b905582519081525f8051602061037a833981519152843392a35160018152f35b5080fd5b50346100df5760203660031901126100df5760209181906001600160a01b0361010a6102ee565b16815280845220549051908152f35b50346100df57806003193601126100df57815f8051602061037a83398151915260206101436102ee565b6024359060018060a01b03169485855284835280852061016483825461036c565b905551908152a380f35b50346100df5760603660031901126100df576101886102ee565b6024356001600160a01b038181169291839003610277576044359116908185526020948086526101bd82868320541015610308565b82815260018652848120338252865281858220541061023e575f8051602061037a833981519152918582858994528084528181206101fc84825461034b565b905586815280845281812061021284825461036c565b90558581526001845281812033825284522061022f82825461034b565b90558551908152a35160018152f35b845162461bcd60e51b8152600481018790526012602482015271105b1b1bddd85b98d948195e18d95959195960721b6044820152606490fd5b8480fd5b9050346102ea57816003193601126102ea57916020928261029a6102ee565b92602435918291338152600188528181209560018060a01b0316958682528852205581527f8c5be1e5ebec7d5bd14f71427d1e84f3dd0314c0f7b2291e5b200ac8c7c3b925843392a35160018152f35b8280fd5b600435906001600160a01b038216820361030457565b5f80fd5b1561030f57565b60405162461bcd60e51b8152602060048201526014602482015273496e73756666696369656e742062616c616e636560601b6044820152606490fd5b9190820391821161035857565b634e487b7160e01b5f52601160045260245ffd5b919082018092116103585756feddf252ad1be2c89b69c2b068fc378daa952ba7f163c4a11628f55a4df523b3efa264697066735822122010187a7a87457cc0e23bda31fbc1f89943672fae09a6959dc9b1c950bc32aa2264736f6c63430008140033",
  "linkReferences": {},
  "deployedLinkReferences": {}
}