{
  "_format": "hh-sol-artifact-1",
  "contractName": "learntgetherMembersInfo",
  "sourceName": "contracts/learntgetherMemberInfo.sol",
  "abi": [
    {
      "inputs": [],
      "stateMutability": "nonpayable",
      "type": "constructor"
    },
    {
      "anonymous": false,
      "inputs": [
        {
          "indexed": true,
          "internalType": "address",
          "name": "memberAddress",
          "type": "address"
        },
        {
          "indexed": true,
          "internalType": "string",
          "name": "name",
          "type": "string"
        },
        {
          "indexed": false,
          "internalType": "string",
          "name": "description",
          "type": "string"
        },
        {
          "indexed": false,
          "internalType": "string[]",
          "name": "degrees",
          "type": "string[]"
        },
        {
          "indexed": false,
          "internalType": "string[]",
          "name": "awards",
          "type": "string[]"
        },
        {
          "indexed": false,
          "internalType": "string",
          "name": "endpoint",
          "type": "string"
        }
      ],
      "name": "MemberInfo",
      "type": "event"
    },
    {
      "inputs": [
        {
          "internalType": "address",
          "name": "",
          "type": "address"
        }
      ],
      "name": "MembersInfo",
      "outputs": [
        {
          "internalType": "string",
          "name": "name",
          "type": "string"
        },
        {
          "internalType": "string",
          "name": "description",
          "type": "string"
        },
        {
          "internalType": "string",
          "name": "endpoint",
          "type": "string"
        }
      ],
      "stateMutability": "view",
      "type": "function"
    },
    {
      "inputs": [
        {
          "internalType": "address",
          "name": "_address",
          "type": "address"
        }
      ],
      "name": "getMemberInfo",
      "outputs": [
        {
          "internalType": "string",
          "name": "_name",
          "type": "string"
        },
        {
          "internalType": "string",
          "name": "_description",
          "type": "string"
        },
        {
          "internalType": "string[]",
          "name": "_degrees",
          "type": "string[]"
        },
        {
          "internalType": "string[]",
          "name": "_awards",
          "type": "string[]"
        },
        {
          "internalType": "string",
          "name": "_endpoint",
          "type": "string"
        }
      ],
      "stateMutability": "view",
      "type": "function"
    },
    {
      "inputs": [
        {
          "internalType": "string",
          "name": "",
          "type": "string"
        },
        {
          "internalType": "address",
          "name": "",
          "type": "address"
        }
      ],
      "name": "isInvited",
      "outputs": [
        {
          "internalType": "bool",
          "name": "",
          "type": "bool"
        }
      ],
      "stateMutability": "view",
      "type": "function"
    },
    {
      "inputs": [
        {
          "internalType": "string",
          "name": "_name",
          "type": "string"
        },
        {
          "internalType": "string",
          "name": "_description",
          "type": "string"
        },
        {
          "internalType": "string[]",
          "name": "_degrees",
          "type": "string[]"
        },
        {
          "internalType": "string[]",
          "name": "_awards",
          "type": "string[]"
        },
        {
          "internalType": "string",
          "name": "_endpoint",
          "type": "string"
        }
      ],
      "name": "updateMemberInfo",
      "outputs": [],
      "stateMutability": "nonpayable",
      "type": "function"
    }
  ],
  "bytecode": "0x6080806040523461002857600180546001600160a01b03191633179055610d67908161002d8239f35b5f80fdfe60806040526004361015610011575f80fd5b5f3560e01c80635f1231ea146109675780638cddee081461015857806392a1b23b146100cc5763a482857814610045575f80fd5b346100c85760403660031901126100c8576004356001600160401b0381116100c857610075903690600401610b02565b6024356001600160a01b03811691908290036100c85760206100a4918160405193828580945193849201610a40565b81016002815203019020905f52602052602060ff60405f2054166040519015158152f35b5f80fd5b346100c85760203660031901126100c8576001600160a01b036100ed610a2a565b165f525f60205261013860405f2061015461010782610c26565b91610146610123600461011c60018501610c26565b9301610c26565b91604051958695606087526060870190610a61565b908582036020870152610a61565b908382036040850152610a61565b0390f35b346100c85760a03660031901126100c8576004356001600160401b0381116100c857610188903690600401610b02565b6024356001600160401b0381116100c8576101a7903690600401610b02565b6044356001600160401b0381116100c8576101c6903690600401610b6e565b906064356001600160401b0381116100c8576101e6903690600401610b6e565b906084356001600160401b0381116100c857610206903690600401610b02565b91335f525f60205260405f2085516001600160401b03811161050f5761022c8254610bee565b601f8111610937575b50806020601f82116001146108d3575f916108c8575b508160011b915f199060031b1c19161790555b335f525f602052600160405f200182516001600160401b03811161050f576102868254610bee565b601f8111610898575b50806020601f8211600114610835575f9161082a575b508160011b915f199060031b1c19161790555b335f525f602052600260405f20018451600160401b811161050f5781548183558082106107b9575b5060208601915f5260205f20915f905b8282106106ac5750505050335f525f602052600360405f20018151600160401b811161050f57815481835580821061063b575b5060208301915f5260205f20915f905b8282106105235750505050335f525f602052600460405f2001948351956001600160401b03871161050f576103688154610bee565b601f81116104d4575b50602096601f811160011461043c579261040f6103e761042c9461041d948761040199987f981fcfd4e48ae5b4ea31f02a5c5b7b669c510f9fea5c9b39ff7388bee8b8c5c49b9c9d5f91610431575b508160011b915f199060031b1c19161790555b602060405192828480945193849201610a40565b810103902098604051968796608088526080880190610a61565b908682036020880152610a86565b908482036040860152610a86565b82810360608401523395610a61565b0390a3005b90508c01518e6103c0565b601f198116825f5260205f20905f5b8181106104bc575061042c9461041d9460018561040f958c9d9e7f981fcfd4e48ae5b4ea31f02a5c5b7b669c510f9fea5c9b39ff7388bee8b8c5c49d6104019d9c996103e798106104a4575b505050811b0190556103d3565b01515f1960f88460031b161c191690558e808e610497565b888b0151835560209a8b019a6001909301920161044b565b6104ff90825f5260205f20601f8a0160051c81019160208b10610505575b601f0160051c0190610cc7565b87610371565b90915081906104f2565b634e487b7160e01b5f52604160045260245ffd5b80518051906001600160401b03821161050f576105408654610bee565b601f8111610600575b50602090601f83116001146105945792826001949360209386955f92610589575b50505f19600383901b1c191690841b1787555b01940191019092610333565b015190508e8061056a565b90865f5260205f20915f5b601f19851681106105e8575083602093600196938796938794601f198116106105d0575b505050811b01875561057d565b01515f1960f88460031b161c191690558e80806105c3565b9192602060018192868501518155019401920161059f565b61062b90875f5260205f206005601f8601811c82019260208710610631575b601f01901c0190610cc7565b8b610549565b919250829161061f565b825f5260205f20908282015b8183018110610657575050610323565b8061066460019254610bee565b80610671575b5001610647565b601f8111831461068657505f81555b8b61066a565b5f908282526106a3601f60208420920160051c8201858301610cc7565b81835555610680565b80518051906001600160401b03821161050f576106c98654610bee565b601f8111610789575b50602090601f831160011461071d5792826001949360209386955f92610712575b50505f19600383901b1c191690841b1787555b019401910190926102f0565b015190508e806106f3565b90865f5260205f20915f5b601f1985168110610771575083602093600196938796938794601f19811610610759575b505050811b018755610706565b01515f1960f88460031b161c191690558e808061074c565b91926020600181928685015181550194019201610728565b6107b390875f5260205f206005601f8601811c8201926020871061063157601f01901c0190610cc7565b8b6106d2565b825f5260205f20908282015b81830181106107d55750506102e0565b806107e260019254610bee565b806107ef575b50016107c5565b601f8111831461080457505f81555b8b6107e8565b5f90828252610821601f60208420920160051c8201858301610cc7565b818355556107fe565b9050840151886102a5565b9150825f5260205f205f925b601f1983168410610880576001935082601f19811610610868575b5050811b0190556102b8565b8601515f1960f88460031b161c19169055888061085c565b86810151825560209384019360019092019101610841565b6108c290835f5260205f20601f840160051c8101916020851061050557601f0160051c0190610cc7565b8761028f565b90508701518861024b565b5f848152602081209250601f198416905b8a82821061091f5750509083600194939210610907575b5050811b01905561025e565b8901515f1960f88460031b161c1916905588806108fb565b600184956020939584930151815501940192016108e4565b61096190835f5260205f20601f840160051c8101916020851061050557601f0160051c0190610cc7565b87610235565b346100c85760203660031901126100c8576001600160a01b03610988610a2a565b165f525f6020526109f260405f206101546109a282610c26565b91610a1c6109b260018301610c26565b91610a0e6109c260028301610cdd565b610a006109dd60046109d660038701610cdd565b9501610c26565b95604051998a9960a08b5260a08b0190610a61565b9089820360208b0152610a61565b908782036040890152610a86565b908582036060870152610a86565b908382036080850152610a61565b600435906001600160a01b03821682036100c857565b5f5b838110610a515750505f910152565b8181015183820152602001610a42565b90602091610a7a81518092818552858086019101610a40565b601f01601f1916010190565b908082519081815260208091019281808460051b8301019501935f915b848310610ab35750505050505090565b9091929394958480610ad1600193601f198682030187528a51610a61565b9801930193019194939290610aa3565b90601f801991011681019081106001600160401b0382111761050f57604052565b81601f820112156100c8578035906001600160401b03821161050f5760405192610b36601f8401601f191660200185610ae1565b828452602083830101116100c857815f926020809301838601378301015290565b6001600160401b03811161050f5760051b60200190565b9080601f830112156100c857813590610b8682610b57565b92610b946040519485610ae1565b828452602092838086019160051b830101928084116100c857848301915b848310610bc25750505050505090565b82356001600160401b0381116100c8578691610be384848094890101610b02565b815201920191610bb2565b90600182811c92168015610c1c575b6020831014610c0857565b634e487b7160e01b5f52602260045260245ffd5b91607f1691610bfd565b9060405191825f825492610c3984610bee565b9081845260019485811690815f14610ca45750600114610c64575b5050610c6292500383610ae1565b565b909391505f52602090815f20935f915b818310610c8c575050610c6293508201015f80610c54565b85548884018501529485019487945091830191610c74565b915050610c6294506020925060ff191682840152151560051b8201015f80610c54565b818110610cd2575050565b5f8155600101610cc7565b908154610ce981610b57565b92610cf76040519485610ae1565b8184525f90815260208082208186015b848410610d15575050505050565b6001838192610d2385610c26565b815201920193019290610d0756fea2646970667358221220448227b9701c12174189f0d090f1b310ba7ca808388a27bf1fe2e1b4c104e2e264736f6c63430008140033",
  "linkReferences": {},
  "deployedLinkReferences": {}
}