{
  "_format": "hh-sol-artifact-1",
  "contractName": "CommunityEnrollment",
  "sourceName": "contracts/tgetherCommunityEnrollment.sol",
  "abi": [
    {
      "inputs": [
        {
          "internalType": "address",
          "name": "_registryAddress",
          "type": "address"
        },
        {
          "internalType": "address",
          "name": "_communitiesContract",
          "type": "address"
        }
      ],
      "stateMutability": "nonpayable",
      "type": "constructor"
    },
    {
      "anonymous": false,
      "inputs": [
        {
          "indexed": false,
          "internalType": "string",
          "name": "community",
          "type": "string"
        },
        {
          "indexed": false,
          "internalType": "string",
          "name": "parameterGroup",
          "type": "string"
        }
      ],
      "name": "CommunityEnrolled",
      "type": "event"
    },
    {
      "anonymous": false,
      "inputs": [
        {
          "indexed": false,
          "internalType": "string",
          "name": "community",
          "type": "string"
        },
        {
          "indexed": false,
          "internalType": "string",
          "name": "parameterGroup",
          "type": "string"
        }
      ],
      "name": "CommunityUnenrolled",
      "type": "event"
    },
    {
      "inputs": [],
      "name": "CommunitiesContract",
      "outputs": [
        {
          "internalType": "contract CommunitiesInterface",
          "name": "",
          "type": "address"
        }
      ],
      "stateMutability": "view",
      "type": "function"
    },
    {
      "inputs": [
        {
          "internalType": "string",
          "name": "",
          "type": "string"
        },
        {
          "internalType": "uint256",
          "name": "",
          "type": "uint256"
        }
      ],
      "name": "CommunityParameterGroups",
      "outputs": [
        {
          "internalType": "string",
          "name": "",
          "type": "string"
        }
      ],
      "stateMutability": "view",
      "type": "function"
    },
    {
      "inputs": [
        {
          "internalType": "string",
          "name": "",
          "type": "string"
        },
        {
          "internalType": "string",
          "name": "",
          "type": "string"
        }
      ],
      "name": "ParamGroupMapping",
      "outputs": [
        {
          "internalType": "uint256",
          "name": "index",
          "type": "uint256"
        },
        {
          "internalType": "bool",
          "name": "isEnrolled",
          "type": "bool"
        }
      ],
      "stateMutability": "view",
      "type": "function"
    },
    {
      "inputs": [
        {
          "internalType": "string",
          "name": "_community",
          "type": "string"
        },
        {
          "internalType": "string",
          "name": "_parameterGroup",
          "type": "string"
        }
      ],
      "name": "enrollCommunityInParameterGroup",
      "outputs": [],
      "stateMutability": "nonpayable",
      "type": "function"
    },
    {
      "inputs": [
        {
          "internalType": "string",
          "name": "_community",
          "type": "string"
        }
      ],
      "name": "getCommunityParameterGroups",
      "outputs": [
        {
          "internalType": "string[]",
          "name": "",
          "type": "string[]"
        }
      ],
      "stateMutability": "view",
      "type": "function"
    },
    {
      "inputs": [],
      "name": "owner",
      "outputs": [
        {
          "internalType": "address",
          "name": "",
          "type": "address"
        }
      ],
      "stateMutability": "view",
      "type": "function"
    },
    {
      "inputs": [],
      "name": "registry",
      "outputs": [
        {
          "internalType": "contract ParameterGroupRegistry",
          "name": "",
          "type": "address"
        }
      ],
      "stateMutability": "view",
      "type": "function"
    },
    {
      "inputs": [
        {
          "internalType": "address",
          "name": "_communitiesContract",
          "type": "address"
        }
      ],
      "name": "setCommunitiesContract",
      "outputs": [],
      "stateMutability": "nonpayable",
      "type": "function"
    },
    {
      "inputs": [
        {
          "internalType": "address",
          "name": "_registryAddress",
          "type": "address"
        }
      ],
      "name": "setParameterGroupRegistryContract",
      "outputs": [],
      "stateMutability": "nonpayable",
      "type": "function"
    },
    {
      "inputs": [
        {
          "internalType": "string",
          "name": "_community",
          "type": "string"
        },
        {
          "internalType": "string",
          "name": "_parameterGroup",
          "type": "string"
        }
      ],
      "name": "unenrollCommunityFromParameterGroup",
      "outputs": [],
      "stateMutability": "nonpayable",
      "type": "function"
    }
  ],
  "bytecode": "0x60803461013657601f61168338819003918201601f19168301916001600160401b0383118484101761013a57808492604094855283398101031261013657610052602061004b8361014e565b920161014e565b6001600160a01b03918216919082156100f1571680156100a05760018060a01b0319918260025416176002558160035416176003553390600454161760045560405161152090816101638239f35b60405162461bcd60e51b8152602060048201526024808201527f496e76616c696420636f6d6d756e697469657320636f6e7472616374206164646044820152637265737360e01b6064820152608490fd5b60405162461bcd60e51b815260206004820152601860248201527f496e76616c6964207265676973747279206164647265737300000000000000006044820152606490fd5b5f80fd5b634e487b7160e01b5f52604160045260245ffd5b51906001600160a01b03821682036101365756fe60406080815260049081361015610014575f80fd5b5f91823560e01c80630906ef4b14610ae95780631aba3a8314610a965780637b10399914610a6d5780638da5cb5b14610a465780639eaccaf01461099f5780639f53b93014610874578063ad2957ff146107d0578063b00a45141461073d578063c02c6416146107105763f68c5bf61461008c575f80fd5b3461070c5761009a36611150565b6003548451637b7fcfed60e01b815260208186018190529294916024916001600160a01b03918216908581806100d28782018b6112df565b0381855afa908115610702578a916106e5575b50885163b3f6702d60e01b8152858101879052908682806101088882018c6112df565b0381865afa918215610568578b926106c6575b50868a51809463cbe02a9f60e01b82528289830152818061013f8d8b8301906112df565b03915afa928315610568578b93610697575b501561065a5782809116331491821561064d575b5050156105d2578651855160ff86880191610181818585611196565b83018b815261019a84896001968794030190208b6111b7565b0154166105725760025489516334581e9960e01b81528681018890529087908290861681806101cb8a82018f6112df565b03915afa908115610568578b9161053b575b50156104f9578851868189516101f4818387611196565b8101858152030190205415610483575b885186818951610215818387611196565b810185815203019020805490600160401b821015610471579061023c9184820181556111dd565b919091610460578851916001600160401b039283811161044e5761026a816102648454611206565b84611351565b80898e6001601f8411146103e357916103d8575b505f19600383901b1c191690851b1790555b895187818a516102a1818387611196565b810186815203019020545f1981019081116103c6578a5192838c01908111848210176103b4576102f4898e9a99989796948e969461030394885285528c8286019787895251938492839251928391611196565b81018c8152030190208b6111b7565b90518155019051151560ff8019835416911617905560025416803b156103b057610348938580948a5196879586948593635ac5892d60e11b855284015282018b6112df565b03925af180156103a65761038e575b50506103887fce6a2f2243191b7b0a7a1dc668353de17564e84d2f630da9bc6b395c2552d155935192839283611394565b0390a180f35b610397906110af565b6103a257835f610357565b8380fd5b85513d84823e3d90fd5b8480fd5b86604189634e487b7160e01b5f52525ffd5b634e487b7160e01b8c5260118752858cfd5b90508b01515f61027e565b908793508d601f198416908684528d80852094915b83831061042d575050508311610415575b5050811b019055610290565b8d01515f1960f88460031b161c191690555f80610409565b948482949597989293960151815501940192019088949392918f8e906103f8565b634e487b7160e01b8d5260418852868dfd5b634e487b7160e01b8b528a8652848bfd5b634e487b7160e01b8c5260418752858cfd5b885186818951610494818387611196565b810185815203019020805490600160401b82101561047157906104bb9184820181556111dd565b61046057806104cb5f9254611206565b601f81116104db575b5055610204565b8183528883206104f391601f0160051c81019061133b565b5f6104d4565b885162461bcd60e51b8152808601879052601e818601527f506172616d657465722067726f757020646f6573206e6f7420657869737400006044820152606490fd5b61055b9150873d8911610561575b61055381836110d6565b810190611304565b5f6101dd565b503d610549565b8a513d8d823e3d90fd5b885162461bcd60e51b81528086018790526035818601527f436f6d6d756e69747920697320616c726561647920656e726f6c6c656420696e6044820152740207468697320706172616d657465722067726f757605c1b6064820152608490fd5b50604b9060a49387519362461bcd60e51b85528401528201527f4f6e6c792074686520636f6d6d756e697479206f776e6572206f72204d656d6260448201527f65722041636365737320436f6e74726163742063616e20656e726f6c6c20746860648201526a6520636f6d6d756e69747960a81b6084820152fd5b909150163314815f610165565b885162461bcd60e51b81528086018790526018818601527710dbdb5b5d5b9a5d1e48191bd95cc81b9bdd08195e1a5cdd60421b6044820152606490fd5b6106b8919350873d89116106bf575b6106b081836110d6565b81019061131c565b915f610151565b503d6106a6565b6106de919250873d89116106bf576106b081836110d6565b905f61011b565b6106fc9150863d88116105615761055381836110d6565b5f6100e5565b89513d8c823e3d90fd5b8280fd5b50503461073957816003193601126107395760035490516001600160a01b039091168152602090f35b5080fd5b503461070c57602036600319011261070c5780356001600160a01b0381811693918490036103b057610773908354163314611493565b8215610792575050600280546001600160a01b03191691909117905580f35b906020606492519162461bcd60e51b83528201526018602482015277496e76616c6964207265676973747279206164647265737360401b6044820152fd5b503461070c57602036600319011261070c5780356001600160a01b0381811693918490036103b057610806908354163314611493565b8215610825575050600380546001600160a01b03191691909117905580f35b906020608492519162461bcd60e51b83528201526024808201527f496e76616c696420636f6d6d756e697469657320636f6e7472616374206164646044820152637265737360e01b6064820152fd5b508290346107395760208060031936011261070c576001600160401b039082358281116103b0576108a890369085016110f7565b94816108bc82519788815193849201611196565b86019582816001988981520301902093845493841161098c575091849086928451916108ed828260051b01846110d6565b8083528183018097855282852085915b83831061095f57505050508451948186019282875251809352808601908360051b8701019693905b8382106109325786880387f35b9091929394838061094e839a603f198b820301865289516112df565b999701959493919091019101610925565b90878086819c9a9594610976859d999a9b9d61123e565b81520192019201925098969897959493976108fd565b634e487b7160e01b865260419052602485fd5b509134610a435781600319360112610a435782356001600160401b038111610739576109ce90369085016110f7565b6109e960206024359281865193828580945193849201611196565b81016001815203019020805482101561070c5790610a06916111dd565b939093610a3157610a2d83610a1a8661123e565b90519182916020835260208301906112df565b0390f35b634e487b7160e01b8252819052602490fd5b80fd5b503461070c578260031936011261070c575490516001600160a01b03909116815260209150f35b50503461073957816003193601126107395760025490516001600160a01b039091168152602090f35b828434610a4357610ad190610ac26020610aaf36611150565b9382875194838680955193849201611196565b820190815203019020906111b7565b60ff6001825492015416825191825215156020820152f35b5082903461073957610afa36611150565b9184519082519160209060ff82860194610b15818488611196565b8201888152610b2e8385600195869403019020896111b7565b0154161561105257600354885163b3f6702d60e01b81528481018490526024956001600160a01b039392909190841690858180610b6d8b82018d6112df565b0381855afa908115611048579085918c9161102b575b50163314908115610fbf575b5015610f4157610bb88a5185818a51610ba9818388611196565b81018d815203019020896111b7565b5480151580610f1e575b15610edc578a5185818a51610bd8818388611196565b810186815203019020545f199190828101908111610eca5786818b8f938503610d8d575b50505090505185818a51610c11818388611196565b8101868152030190209081548015610d7b570190610c2f82826111dd565b610d6a578b9493610c7493610c65938784610c4b8c9654611206565b80610d2f575b505050558d51809381928d51928391611196565b810186815203019020896111b7565b82815501556002541691823b15610d2b5791610cac93918780948a519687958694859363ddc67cf560e01b855284015282018a6112df565b03925af18015610d2157610cec575b506103887f224865bd608cf70d4e4284438240df92d856cb3484c80036f9f252c3540eb2b893945192839283611394565b7f224865bd608cf70d4e4284438240df92d856cb3484c80036f9f252c3540eb2b893610d1a610388926110af565b9350610cbb565b85513d86823e3d90fd5b8680fd5b82601f8211600114610d47575050555b875f80610c51565b9091808252610d63601f898420940160051c84018c850161133b565b5555610d3f565b634e487b7160e01b8c528b8852888cfd5b634e487b7160e01b8c5260318852888cfd5b82610dba8693610dac610dd9968b8d8a51809481938a51928391611196565b8201908152030190206111dd565b509451809251610dcb81838c611196565b81018a8152030190206111dd565b610eb9578c8e610deb8d948b946113b9565b610e2d85610e1f858a855182818b51610e05818387611196565b81018a815203019020988651938492839251928391611196565b81018d8152030190206111dd565b5090519382859392805491610e4183611206565b928c8116908115610ea05750600114610e69575b505050815203019020558b8b86828b610bfc565b809293945052898582205b838310610e89575050508201908f5f81610e55565b8054888401528d96889650909201918b9101610e74565b60ff1916875250505080151502830191508f5f81610e55565b634e487b7160e01b8d528c8952898dfd5b634e487b7160e01b8c5260118852888cfd5b8a5162461bcd60e51b8152808701869052601e818901527f496e76616c696420696e64657820666f7220756e656e726f6c6c6d656e7400006044820152606490fd5b508a5185818a51610f30818388611196565b810186815203019020548110610bc2565b895162461bcd60e51b8152808601859052604d818801527f4f6e6c792074686520636f6d6d756e697479206f776e6572206f72204d656d6260448201527f65722041636365737320436f6e74726163742063616e20756e656e726f6c6c2060648201526c74686520636f6d6d756e69747960981b608482015260a490fd5b8b5163cbe02a9f60e01b81528781018790529150859082908180610fe58c82018e6112df565b03915afa908115611021579084918b91611004575b501633148b610b8f565b61101b9150863d88116106bf576106b081836110d6565b8c610ffa565b8b513d8c823e3d90fd5b6110429150873d89116106bf576106b081836110d6565b8d610b83565b8c513d8d823e3d90fd5b875162461bcd60e51b8152808401839052603160248201527f436f6d6d756e697479206973206e6f7420656e726f6c6c656420696e2074686960448201527007320706172616d657465722067726f757607c1b6064820152608490fd5b6001600160401b0381116110c257604052565b634e487b7160e01b5f52604160045260245ffd5b90601f801991011681019081106001600160401b038211176110c257604052565b81601f8201121561114c578035906001600160401b0382116110c2576040519261112b601f8401601f1916602001856110d6565b8284526020838301011161114c57815f926020809301838601378301015290565b5f80fd5b90604060031983011261114c576001600160401b0360043581811161114c578361117c916004016110f7565b9260243591821161114c57611193916004016110f7565b90565b5f5b8381106111a75750505f910152565b8181015183820152602001611198565b6020906111d1928260405194838680955193849201611196565b82019081520301902090565b80548210156111f2575f5260205f2001905f90565b634e487b7160e01b5f52603260045260245ffd5b90600182811c92168015611234575b602083101461122057565b634e487b7160e01b5f52602260045260245ffd5b91607f1691611215565b9060405191825f82549261125184611206565b9081845260019485811690815f146112bc575060011461127c575b505061127a925003836110d6565b565b909391505f52602090815f20935f915b8183106112a457505061127a93508201015f8061126c565b8554888401850152948501948794509183019161128c565b91505061127a94506020925060ff191682840152151560051b8201015f8061126c565b906020916112f881518092818552858086019101611196565b601f01601f1916010190565b9081602091031261114c5751801515810361114c5790565b9081602091031261114c57516001600160a01b038116810361114c5790565b818110611346575050565b5f815560010161133b565b9190601f811161136057505050565b61127a925f5260205f20906020601f840160051c8301931061138a575b601f0160051c019061133b565b909150819061137d565b90916113ab611193936040845260408401906112df565b9160208184039101526112df565b9080821461148f576113cb8154611206565b906001600160401b0382116110c25781906113f0826113ea8654611206565b86611351565b5f90601f8311600114611424575f92611419575b50508160011b915f199060031b1c1916179055565b015490505f80611404565b81526020808220858352818320935090601f1985169083905b82821061147657505090846001959493921061145e575b505050811b019055565b01545f1960f88460031b161c191690555f8080611454565b849581929585015481556001809101960194019061143d565b5050565b1561149a57565b60405162461bcd60e51b815260206004820152602260248201527f4f6e6c79206f776e65722063616e20706572666f726d2074686973206163746960448201526137b760f11b6064820152608490fdfea2646970667358221220510a200d60e668b434050ba0939eb12b38c3ae0b4cf4a13ebcf063be2cec74a664736f6c63430008140033",
  "linkReferences": {},
  "deployedLinkReferences": {}
}