{
  "_format": "hh-sol-artifact-1",
  "contractName": "MockAutomationContract",
  "sourceName": "contracts/MockAutomationContract.sol",
  "abi": [
    {
      "inputs": [
        {
          "internalType": "address",
          "name": "_linkTokenAddress",
          "type": "address"
        }
      ],
      "stateMutability": "nonpayable",
      "type": "constructor"
    },
    {
      "anonymous": false,
      "inputs": [
        {
          "indexed": false,
          "internalType": "uint256",
          "name": "upkeepId",
          "type": "uint256"
        },
        {
          "indexed": false,
          "internalType": "uint256",
          "name": "amount",
          "type": "uint256"
        }
      ],
      "name": "FundsAdded",
      "type": "event"
    },
    {
      "inputs": [
        {
          "internalType": "uint256",
          "name": "upkeepId",
          "type": "uint256"
        },
        {
          "internalType": "uint256",
          "name": "amount",
          "type": "uint256"
        }
      ],
      "name": "addFunds",
      "outputs": [],
      "stateMutability": "nonpayable",
      "type": "function"
    }
  ],
  "bytecode": "0x60803461007357601f61022438819003918201601f19168301916001600160401b038311848410176100775780849260209460405283398101031261007357516001600160a01b03811690819003610073575f80546001600160a01b031916919091179055604051610198908161008c8239f35b5f80fd5b634e487b7160e01b5f52604160045260245ffdfe608060408181526004361015610013575f80fd5b5f90813560e01c6385f4525014610028575f80fd5b3461015e578060031936011261015e57816024359360018060a01b038254166323b872dd60e01b82523360048301523060248301528560448301528160648160209586945af19081156101515784916100ec575b50156100b4577ff5e4934928a1e45d88c7a5aa2661fe0a801ca5017922e15122d74f1880155e1a92938251916004358352820152a180f35b606491519062461bcd60e51b825260048201526013602482015272119959481d1c985b9cd9995c8819985a5b1959606a1b6044820152fd5b9050813d831161014a575b601f8101601f1916820167ffffffffffffffff811183821017610136578391839186528101031261013257518015158103610132575f61007c565b8380fd5b634e487b7160e01b86526041600452602486fd5b503d6100f7565b50505051903d90823e3d90fd5b5080fdfea264697066735822122098df8f618160ab0f50f9e352ad5dc1f55c0d7fc831b75323abb30f7262904eed64736f6c63430008140033",
  "linkReferences": {},
  "deployedLinkReferences": {}
}