{
  "_format": "hh-sol-artifact-1",
  "contractName": "learntgetherReviewers",
  "sourceName": "contracts/learntgetherReviewers.sol",
  "abi": [
    {
      "inputs": [],
      "stateMutability": "nonpayable",
      "type": "constructor"
    },
    {
      "anonymous": false,
      "inputs": [
        {
          "indexed": true,
          "internalType": "string",
          "name": "subjectName",
          "type": "string"
        },
        {
          "indexed": true,
          "internalType": "address",
          "name": "reviewer",
          "type": "address"
        },
        {
          "indexed": false,
          "internalType": "uint256",
          "name": "creds",
          "type": "uint256"
        }
      ],
      "name": "CredsAdded",
      "type": "event"
    },
    {
      "anonymous": false,
      "inputs": [
        {
          "indexed": true,
          "internalType": "string",
          "name": "subjectName",
          "type": "string"
        },
        {
          "indexed": true,
          "internalType": "address",
          "name": "reviewer",
          "type": "address"
        },
        {
          "indexed": false,
          "internalType": "uint256",
          "name": "creds",
          "type": "uint256"
        }
      ],
      "name": "CredsRemoved",
      "type": "event"
    },
    {
      "anonymous": false,
      "inputs": [
        {
          "indexed": true,
          "internalType": "string",
          "name": "subjectName",
          "type": "string"
        },
        {
          "indexed": true,
          "internalType": "address",
          "name": "reviewerAddress",
          "type": "address"
        }
      ],
      "name": "ReviewerAdded",
      "type": "event"
    },
    {
      "anonymous": false,
      "inputs": [
        {
          "indexed": false,
          "internalType": "address",
          "name": "reviewerAddress",
          "type": "address"
        },
        {
          "indexed": false,
          "internalType": "string",
          "name": "name",
          "type": "string"
        },
        {
          "indexed": false,
          "internalType": "string",
          "name": "description",
          "type": "string"
        },
        {
          "indexed": false,
          "internalType": "string[]",
          "name": "degrees",
          "type": "string[]"
        },
        {
          "indexed": false,
          "internalType": "string[]",
          "name": "awards",
          "type": "string[]"
        }
      ],
      "name": "ReviewerInfo",
      "type": "event"
    },
    {
      "anonymous": false,
      "inputs": [
        {
          "indexed": true,
          "internalType": "string",
          "name": "subjectName",
          "type": "string"
        },
        {
          "indexed": true,
          "internalType": "address",
          "name": "reviewerAddress",
          "type": "address"
        }
      ],
      "name": "ReviewerRemoved",
      "type": "event"
    },
    {
      "inputs": [
        {
          "internalType": "string",
          "name": "_subjectName",
          "type": "string"
        },
        {
          "internalType": "address",
          "name": "_reviewer",
          "type": "address"
        }
      ],
      "name": "addCredsToReviewer",
      "outputs": [],
      "stateMutability": "nonpayable",
      "type": "function"
    },
    {
      "inputs": [
        {
          "internalType": "string",
          "name": "_subjectName",
          "type": "string"
        }
      ],
      "name": "addSelfAsReviewer",
      "outputs": [],
      "stateMutability": "nonpayable",
      "type": "function"
    },
    {
      "inputs": [
        {
          "internalType": "address",
          "name": "_reviewerAddress",
          "type": "address"
        },
        {
          "internalType": "string",
          "name": "_subjectName",
          "type": "string"
        }
      ],
      "name": "getIsReviewer",
      "outputs": [
        {
          "internalType": "bool",
          "name": "",
          "type": "bool"
        }
      ],
      "stateMutability": "view",
      "type": "function"
    },
    {
      "inputs": [
        {
          "internalType": "address",
          "name": "_reviewerAddress",
          "type": "address"
        },
        {
          "internalType": "string",
          "name": "_subjectName",
          "type": "string"
        }
      ],
      "name": "getReiewerSubjectInfo",
      "outputs": [
        {
          "internalType": "uint256",
          "name": "_creds",
          "type": "uint256"
        },
        {
          "internalType": "address[]",
          "name": "_credAddresses",
          "type": "address[]"
        }
      ],
      "stateMutability": "view",
      "type": "function"
    },
    {
      "inputs": [
        {
          "internalType": "address",
          "name": "_reviewerAddress",
          "type": "address"
        },
        {
          "internalType": "address",
          "name": "_credAddress",
          "type": "address"
        },
        {
          "internalType": "string",
          "name": "_subjectName",
          "type": "string"
        }
      ],
      "name": "getReviewerCredIndex",
      "outputs": [
        {
          "internalType": "uint256",
          "name": "index",
          "type": "uint256"
        }
      ],
      "stateMutability": "view",
      "type": "function"
    },
    {
      "inputs": [
        {
          "internalType": "address",
          "name": "_reviewerAddress",
          "type": "address"
        },
        {
          "internalType": "string",
          "name": "_subjectName",
          "type": "string"
        }
      ],
      "name": "getReviewerCreds",
      "outputs": [
        {
          "internalType": "uint256",
          "name": "creds",
          "type": "uint256"
        }
      ],
      "stateMutability": "view",
      "type": "function"
    },
    {
      "inputs": [
        {
          "internalType": "address",
          "name": "_reviewerAddress",
          "type": "address"
        },
        {
          "internalType": "string",
          "name": "_subjectName",
          "type": "string"
        }
      ],
      "name": "getReviewerCredsList",
      "outputs": [
        {
          "internalType": "address[]",
          "name": "addressList",
          "type": "address[]"
        }
      ],
      "stateMutability": "view",
      "type": "function"
    },
    {
      "inputs": [
        {
          "internalType": "address",
          "name": "_reviewerAddress",
          "type": "address"
        }
      ],
      "name": "getReviewerInfo",
      "outputs": [
        {
          "internalType": "string",
          "name": "name",
          "type": "string"
        },
        {
          "internalType": "string",
          "name": "descripion",
          "type": "string"
        },
        {
          "internalType": "string[]",
          "name": "degrees",
          "type": "string[]"
        },
        {
          "internalType": "string[]",
          "name": "awards",
          "type": "string[]"
        }
      ],
      "stateMutability": "view",
      "type": "function"
    },
    {
      "inputs": [
        {
          "internalType": "address",
          "name": "_reviewerAddress",
          "type": "address"
        },
        {
          "internalType": "string",
          "name": "_subjectName",
          "type": "string"
        },
        {
          "internalType": "address",
          "name": "givenBy",
          "type": "address"
        }
      ],
      "name": "hasReviewerGivenCred",
      "outputs": [
        {
          "internalType": "bool",
          "name": "",
          "type": "bool"
        }
      ],
      "stateMutability": "view",
      "type": "function"
    },
    {
      "inputs": [
        {
          "internalType": "string",
          "name": "_subjectName",
          "type": "string"
        },
        {
          "internalType": "address",
          "name": "_reviewer",
          "type": "address"
        }
      ],
      "name": "removeCredsFromReviewer",
      "outputs": [],
      "stateMutability": "nonpayable",
      "type": "function"
    },
    {
      "inputs": [
        {
          "internalType": "string",
          "name": "_subjectName",
          "type": "string"
        }
      ],
      "name": "removeSelfAsReviewer",
      "outputs": [],
      "stateMutability": "nonpayable",
      "type": "function"
    },
    {
      "inputs": [
        {
          "internalType": "address",
          "name": "_contractAddress",
          "type": "address"
        }
      ],
      "name": "setlearntgetherSubjects",
      "outputs": [],
      "stateMutability": "nonpayable",
      "type": "function"
    },
    {
      "inputs": [],
      "name": "subjectsContract",
      "outputs": [
        {
          "internalType": "contract learntgetherSubjectsInterface",
          "name": "",
          "type": "address"
        }
      ],
      "stateMutability": "view",
      "type": "function"
    },
    {
      "inputs": [
        {
          "internalType": "string",
          "name": "_name",
          "type": "string"
        },
        {
          "internalType": "string",
          "name": "_description",
          "type": "string"
        },
        {
          "internalType": "string[]",
          "name": "_degrees",
          "type": "string[]"
        },
        {
          "internalType": "string[]",
          "name": "_awards",
          "type": "string[]"
        }
      ],
      "name": "updateReviewerInfo",
      "outputs": [],
      "stateMutability": "nonpayable",
      "type": "function"
    }
  ],
  "bytecode": "0x6080806040523461002857600180546001600160a01b03191633179055611e29908161002d8239f35b5f80fdfe60806040526004361015610011575f80fd5b5f3560e01c8063016f11b3146116bf578063072c1f411461161957806318f6b962146111025780632faa64ce146110da57806330e29a3a1461103657806338a87e55146109af5780633e8e033d1461094d578063585e01e414610640578063598f921b146105e057806366ea653a1461049d5780636e405a5f1461041c5780636f20d2a8146101ba57806385d9d19f1461010d576397206ab7146100b3575f80fd5b3461010957602060ff60036100f3836100cb366117fe565b9060018060a01b03165f525f8252600460405f2001826040519483868095519384920161187c565b8201908152030190200154166040519015158152f35b5f80fd5b34610109576101926101a16002610123366117fe565b939060018060a01b0316805f526020809581925f8352610174600160ff6003600460405f200160405197888092895161016081858d019d8e61187c565b820190815203019020015416151514611bf6565b5f525f8352600460405f20019060405194859384925192839161187c565b82019081520301902001611c53565b906101b6604051928284938452830190611840565b0390f35b3461010957602080600319360112610109576004356001600160401b038111610109576101eb9036906004016117a9565b600254604051632dac55d960e01b81526004810184905291926001600160a01b039290918290829085168180610224602482018a61189d565b03915afa908115610411575f916103e4575b50156103a757335f525f8152600460405f2001600160ff60036040518581895196828b019761026681848b61187c565b82019081520301902001541615151461034d576002916102d591335f525f82526003600460405f20018360405180928a516102a281848961187c565b82019081520301902001600160ff19825416179055335f525f8252600460405f200160405180948193895192839161187c565b820190815203019020018054600160401b811015610339576102fc91600182018155611a0d565b909182549160031b1b191690556103133391611a36565b7fbdfa00028aa6c888a03528a2075ea227b56f2f5182dcf6691bc7c5e37220b2895f80a3005b634e487b7160e01b5f52604160045260245ffd5b60405162461bcd60e51b815260048101839052602c60248201527f596f752061726520616c7265616479206120726576696577657220666f72207460448201526b3434b99039bab13532b1ba1760a11b6064820152608490fd5b6064906040519062461bcd60e51b82526004820152601660248201527514dd589a9958dd08111bd95cc81b9bdd08115e1a5cdd60521b6044820152fd5b6104049150823d841161040a575b6103fc8183611788565b8101906119f5565b84610236565b503d6103f2565b6040513d5f823e3d90fd5b3461010957602036600319011261010957610435611772565b6001546001600160a01b0391908216330361045f571660018060a01b031960025416176002555f80f35b60405162461bcd60e51b81526020600482015260166024820152752737ba103a34329031b7b73a3930b1ba1037bbb732b960511b6044820152606490fd5b3461010957602080600319360112610109576004356001600160401b038111610109576104ce9036906004016117a9565b600254604051632dac55d960e01b815260048101849052919290819083906001600160a01b03168180610504602482018961189d565b03915afa90811561041157610526610581926003945f916105c3575b50611a56565b335f525f8152600460405f200161056360ff8560405185818a5196828c019761055081848b61187c565b8201908152030190200154161515611a9b565b335f525f8252600460405f200160405180948193885192839161187c565b8201908152030190200160ff19815416905561059d3391611a36565b7fffcf81133aec081f5d14dbff5c602986674612ec939e52e1960baeedf3bc53325f80a3005b6105da9150833d851161040a576103fc8183611788565b86610520565b346101095761062e6105f1366117fe565b919060018060a01b0316805f526020809381925f8352610174600160ff6003600460405f200160405197888092895161016081858d019d8e61187c565b82019081520301902054604051908152f35b346101095761064e3661191d565b600254604051632dac55d960e01b81526020600482018190526001600160a01b03949392909190829082908716818061068a602482018a61189d565b03915afa8015610411576106a4915f916105c35750611a56565b335f525f8152600460405f200193604051926106ea855196848701976106cb81888b61187c565b860190815260ff600387876001998a9503019020015416151514611a9b565b1693845f525f82526107288360ff6003600460405f20018660405180928b5161071481848c61187c565b820190815203019020015416151514611b46565b61073485331415611baa565b845f525f825282600460405f2001836040518092885161075581848961187c565b82019081520301902001335f52825260405f20546108f257845f525f8252600460405f2001826040518092875161078d81848861187c565b8201908152030190208054908482018092116108de5755845f525f82526002600460405f200183604051809288516107c681848961187c565b82019081520301902001805490600160401b82101561033957816107f1918661080f94018155611a0d565b81546001600160a01b0360039290921b91821b19163390911b179055565b845f525f82526002600460405f2001836040518092885161083181848961187c565b82019081520301902001545f1981019081116108de57826108d4926108c4927ff40892af1cef89c48077c1923285cac4d53fc49e28d7d981f0cd804b2570401096895f525f8452600460405f20018460405180928c5161089281848a61187c565b82019081520301902001335f52835260405f2055875f525f8252600460405f2001604051809481938a5192839161187c565b8201908152030190205493611a36565b92604051908152a3005b634e487b7160e01b5f52601160045260245ffd5b60405162461bcd60e51b815260048101839052602d60248201527f596f7527766520616c726561647920676976656e2061206372656420746f207460448201526c3434b9903932bb34b2bbb2b91760991b6064820152608490fd5b3461010957606036600319011261010957610966611772565b6024356001600160401b038111610109576109859036906004016117a9565b906044356001600160a01b0381168103610109576020926109a592611caa565b6040519015158152f35b34610109576080366003190112610109576004356001600160401b038111610109576109df9036906004016117a9565b6024356001600160401b038111610109576109fe9036906004016117a9565b6044356001600160401b03811161010957610a1d903690600401611975565b6064356001600160401b03811161010957610a3c903690600401611975565b91335f525f60205260405f2084516001600160401b03811161033957610a628254611af8565b601f8111611006575b50806020601f8211600114610fa4575f91610f99575b508160011b915f199060031b1c19161790555b335f525f602052600160405f200181516001600160401b03811161033957610abc8254611af8565b601f8111610f5e575b50806020601f8211600114610efc575f91610ef1575b508160011b915f199060031b1c19161790555b335f525f602052600260405f20018251600160401b8111610339578154818355808210610e80575b5060208401915f5260205f20915f905b828210610d735750505050335f525f602052600360405f20018351600160401b8111610339578154818355808210610d02575b5060208501915f5260205f20915f905b828210610bea577f627dda018eb8c1473e432fa4a06937ef8127ac6112d8d9f7dd1175f81d394ede610bbb89610be58a610bd78b610bc98c60405197889733895260a060208a015260a089019061189d565b90878203604089015261189d565b9085820360608701526118c2565b9083820360808501526118c2565b0390a1005b80518051906001600160401b03821161033957610c078654611af8565b601f8111610cc7575b50602090601f8311600114610c5b5792826001949360209386955f92610c50575b50505f19600383901b1c191690841b1787555b01940191019092610b69565b015190508d80610c31565b90865f5260205f20915f5b601f1985168110610caf575083602093600196938796938794601f19811610610c97575b505050811b018755610c44565b01515f1960f88460031b161c191690558d8080610c8a565b91926020600181928685015181550194019201610c66565b610cf290875f5260205f206005601f8601811c82019260208710610cf8575b601f01901c0190611b30565b8a610c10565b9192508291610ce6565b825f5260205f20908282015b8183018110610d1e575050610b59565b80610d2b60019254611af8565b80610d38575b5001610d0e565b601f81118314610d4d57505f81555b8a610d31565b5f90828252610d6a601f60208420920160051c8201858301611b30565b81835555610d47565b80518051906001600160401b03821161033957610d908654611af8565b601f8111610e50575b50602090601f8311600114610de45792826001949360209386955f92610dd9575b50505f19600383901b1c191690841b1787555b01940191019092610b26565b015190508d80610dba565b90865f5260205f20915f5b601f1985168110610e38575083602093600196938796938794601f19811610610e20575b505050811b018755610dcd565b01515f1960f88460031b161c191690558d8080610e13565b91926020600181928685015181550194019201610def565b610e7a90875f5260205f206005601f8601811c82019260208710610cf857601f01901c0190611b30565b8a610d99565b825f5260205f20908282015b8183018110610e9c575050610b16565b80610ea960019254611af8565b80610eb6575b5001610e8c565b601f81118314610ecb57505f81555b8a610eaf565b5f90828252610ee8601f60208420920160051c8201858301611b30565b81835555610ec5565b905083015187610adb565b5f848152602081209250601f198416905b818110610f4657509083600194939210610f2e575b5050811b019055610aee565b8501515f1960f88460031b161c191690558780610f22565b9192602060018192868a015181550194019201610f0d565b610f8990835f5260205f20601f840160051c81019160208510610f8f575b601f0160051c0190611b30565b86610ac5565b9091508190610f7c565b905086015187610a81565b5f848152602081209250601f198416905b818110610fee57509083600194939210610fd6575b5050811b019055610a94565b8801515f1960f88460031b161c191690558780610fca565b9192602060018192868d015181550194019201610fb5565b61103090835f5260205f20601f840160051c81019160208510610f8f57601f0160051c0190611b30565b86610a6b565b346101095760603660031901126101095761104f611772565b6024356001600160a01b0381811691829003610109576044356001600160401b0381116101095760019161108a6110be9236906004016117a9565b9416805f526020809581925f83526101748660ff6003600460405f200160405197888092895161016081858d019d8e61187c565b82019081520301902001905f52815260405f2054604051908152f35b34610109575f366003190112610109576002546040516001600160a01b039091168152602090f35b34610109576111103661191d565b60028054604051632dac55d960e01b8152602060048201819052929493916001600160a01b0391602491859082908516818061114e8782018c61189d565b03915afa801561041157611168915f916115fc5750611a56565b335f525f8452600460405f20019282604051916111af885196888a019761119081878b61187c565b850190815260ff6003868b600198899503019020015416151514611a9b565b1696875f525f86526111de8260ff60036107148a8a8d600460405f20019060405194859384925192839161187c565b6111ea88331415611baa565b875f525f865281600460405f20018760405180928b5161120b81848d61187c565b82019081520301902001335f52865260405f2054156115a057875f525f8652600460405f20018660405180928a5161124481848c61187c565b82019081520301902080545f1993918482019182116115505755885f525f8752806112838888600460405f20018c60405194859384925192839161187c565b82019081520301902001335f52875260405f2054895f525f885281836112be8a8a8d600460405f20019060405194859384925192839161187c565b8201908152030190200154111561156357895f525f8852826112f48989600460405f20018d60405194859384925192839161187c565b82019081520301902001548481019081116115505781036113f5575b50885f525f8752600460405f20018760405180928b5161133181848d61187c565b82019081520301902001335f5286525f6040812055875f525f8652600460405f20018660405180928a5161136681848c61187c565b820190815203019020019182549081156113e25750936108d4936108c4938796937f762e6755472076df5543749c551be6860563e0a6140161161de0ba7ff211b2e3989401916113b68383611a0d565b909182549160031b1b1916905555875f525f8252600460405f2001604051809481938a5192839161187c565b634e487b7160e01b5f9081526031600452fd5b895f525f88528261141a8989600460405f20018d60405194859384925192839161187c565b820190815203019020018a5f525f89528361144a8a8a8d600460405f20019060405194859384925192839161187c565b82019081520301902001549085820191821161153d5761152683866114ae8f958f8f91908f918f61147f6114dc92829b611a0d565b90549060031b1c168a5f525f85526114bd8888600460405f2001886040518092816114ae8c8c5192839161187c565b82019081520301902001611a0d565b90919082549060031b9160018060a01b03809116831b921b1916179055565b885f525f83528a600460405f200184604051809285516114fd81848a61187c565b82019081520301902001985f525f8352600460405f20019060405194859384925192839161187c565b90549060031b1c165f52885260405f205589611310565b86634e487b7160e01b5f5260116004525ffd5b85634e487b7160e01b5f5260116004525ffd5b60405162461bcd60e51b8152600481018990526016818701527554686973207573657220686173206e6f20437265647360501b6044820152606490fd5b60405162461bcd60e51b815260048101879052602f818501527f596f752068617665206e6f7420676976656e2061206372656420746f2074686960448201526e39903932bb34b2bbb2b9103cb2ba1760891b6064820152608490fd5b6116139150863d881161040a576103fc8183611788565b88610520565b34610109576020366003190112610109576001600160a01b0361163a611772565b165f525f60205261169560405f206101b661165482611d00565b916116b161166460018301611d00565b916116a3611680600361167960028501611d9f565b9301611d9f565b9360405197889760808952608089019061189d565b90878203602089015261189d565b9085820360408701526118c2565b9083820360608501526118c2565b34610109576116cd366117fe565b9060018060a01b0316805f526101b661175c6002610192602080965f8252600460405f200190611713600160ff600360405187818751988289019961016081848d61187c565b875f525f8352600460405f2001836040518092845161173381848961187c565b82019081520301902054975f525f8352600460405f20019060405194859384925192839161187c565b6040805194859485528401526040830190611840565b600435906001600160a01b038216820361010957565b90601f801991011681019081106001600160401b0382111761033957604052565b81601f82011215610109578035906001600160401b03821161033957604051926117dd601f8401601f191660200185611788565b8284526020838301011161010957815f926020809301838601378301015290565b906040600319830112610109576004356001600160a01b03811681036101095791602435906001600160401b0382116101095761183d916004016117a9565b90565b9081518082526020808093019301915f5b82811061185f575050505090565b83516001600160a01b031685529381019392810192600101611851565b5f5b83811061188d5750505f910152565b818101518382015260200161187e565b906020916118b68151809281855285808601910161187c565b601f01601f1916010190565b908082519081815260208091019281808460051b8301019501935f915b8483106118ef5750505050505090565b909192939495848061190d600193601f198682030187528a5161189d565b98019301930191949392906118df565b604060031982011261010957600435906001600160401b03821161010957611947916004016117a9565b906024356001600160a01b03811681036101095790565b6001600160401b0381116103395760051b60200190565b9080601f830112156101095781359061198d8261195e565b9261199b6040519485611788565b828452602092838086019160051b8301019280841161010957848301915b8483106119c95750505050505090565b82356001600160401b0381116101095786916119ea848480948901016117a9565b8152019201916119b9565b90816020910312610109575180151581036101095790565b8054821015611a22575f5260205f2001905f90565b634e487b7160e01b5f52603260045260245ffd5b611a4e9060206040519282848094519384920161187c565b810103902090565b15611a5d57565b60405162461bcd60e51b815260206004820152601660248201527514dd589a9958dd08111bd95cc8139bdd08115e1a5cdd60521b6044820152606490fd5b15611aa257565b60405162461bcd60e51b815260206004820152602860248201527f596f7520617265206e6f74206120726576696577657220666f7220746869732060448201526739bab13532b1ba1760c11b6064820152608490fd5b90600182811c92168015611b26575b6020831014611b1257565b634e487b7160e01b5f52602260045260245ffd5b91607f1691611b07565b818110611b3b575050565b5f8155600101611b30565b15611b4d57565b60405162461bcd60e51b815260206004820152602f60248201527f54617267657420726576696577657220646f65736e277420657869737420666f60448201526e39103a3434b99039bab13532b1ba1760891b6064820152608490fd5b15611bb157565b60405162461bcd60e51b815260206004820152601f60248201527f596f752063616e6e6f74206564697420796f7572206f776e2063726564732e006044820152606490fd5b15611bfd57565b60405162461bcd60e51b815260206004820152602860248201527f526576696577657220446f6573204e6f7420457869737420466f722074686973604482015267081cdd589a9958dd60c21b6064820152608490fd5b906040519182815491828252602092838301915f52835f20935f905b828210611c8757505050611c8592500383611788565b565b85546001600160a01b031684526001958601958895509381019390910190611c6f565b91906001611cdd6020828060a01b0393845f9716875286825260046040882001826040519483868095519384920161187c565b82019081520301902001911682526020526040812054155f1461183d5750600190565b9060405191825f825492611d1384611af8565b9081845260019485811690815f14611d7c5750600114611d3c575b5050611c8592500383611788565b909391505f52602090815f20935f915b818310611d64575050611c8593508201015f80611d2e565b85548884018501529485019487945091830191611d4c565b915050611c8594506020925060ff191682840152151560051b8201015f80611d2e565b908154611dab8161195e565b92611db96040519485611788565b8184525f90815260208082208186015b848410611dd7575050505050565b6001838192611de585611d00565b815201920193019290611dc956fea2646970667358221220713ba5f33aa856835beafae833d8871b3879f8639232facc14a0e3a30950adbf64736f6c63430008140033",
  "linkReferences": {},
  "deployedLinkReferences": {}
}