{
  "_format": "hh-sol-artifact-1",
  "contractName": "PostConsensusLane",
  "sourceName": "contracts/PostConsensusLane.sol",
  "abi": [
    {
      "inputs": [
        {
          "internalType": "address",
          "name": "_fundContractAddress",
          "type": "address"
        },
        {
          "internalType": "address",
          "name": "_postConsensus",
          "type": "address"
        },
        {
          "internalType": "address",
          "name": "_laneRegistryContract",
          "type": "address"
        }
      ],
      "stateMutability": "nonpayable",
      "type": "constructor"
    },
    {
      "anonymous": false,
      "inputs": [
        {
          "indexed": false,
          "internalType": "uint256",
          "name": "postId",
          "type": "uint256"
        },
        {
          "indexed": false,
          "internalType": "uint256",
          "name": "newIndex",
          "type": "uint256"
        }
      ],
      "name": "IndexChange",
      "type": "event"
    },
    {
      "anonymous": false,
      "inputs": [
        {
          "indexed": false,
          "internalType": "uint256",
          "name": "postId",
          "type": "uint256"
        }
      ],
      "name": "PostRemoved",
      "type": "event"
    },
    {
      "inputs": [
        {
          "internalType": "uint256",
          "name": "postId",
          "type": "uint256"
        }
      ],
      "name": "appendToLane",
      "outputs": [
        {
          "internalType": "uint256",
          "name": "",
          "type": "uint256"
        }
      ],
      "stateMutability": "payable",
      "type": "function"
    },
    {
      "inputs": [],
      "name": "automationForwarder",
      "outputs": [
        {
          "internalType": "address",
          "name": "",
          "type": "address"
        }
      ],
      "stateMutability": "view",
      "type": "function"
    },
    {
      "inputs": [
        {
          "internalType": "bytes",
          "name": "",
          "type": "bytes"
        }
      ],
      "name": "checkUpkeep",
      "outputs": [
        {
          "internalType": "bool",
          "name": "upkeepNeeded",
          "type": "bool"
        },
        {
          "internalType": "bytes",
          "name": "performData",
          "type": "bytes"
        }
      ],
      "stateMutability": "view",
      "type": "function"
    },
    {
      "inputs": [],
      "name": "fundContract",
      "outputs": [
        {
          "internalType": "contract FundContract",
          "name": "",
          "type": "address"
        }
      ],
      "stateMutability": "view",
      "type": "function"
    },
    {
      "inputs": [
        {
          "internalType": "uint256",
          "name": "index",
          "type": "uint256"
        }
      ],
      "name": "getPostByIndex",
      "outputs": [
        {
          "internalType": "uint256",
          "name": "",
          "type": "uint256"
        }
      ],
      "stateMutability": "view",
      "type": "function"
    },
    {
      "inputs": [],
      "name": "getPostCount",
      "outputs": [
        {
          "internalType": "uint256",
          "name": "",
          "type": "uint256"
        }
      ],
      "stateMutability": "view",
      "type": "function"
    },
    {
      "inputs": [
        {
          "internalType": "uint256",
          "name": "postId",
          "type": "uint256"
        }
      ],
      "name": "getpostIndex",
      "outputs": [
        {
          "internalType": "uint256",
          "name": "",
          "type": "uint256"
        }
      ],
      "stateMutability": "view",
      "type": "function"
    },
    {
      "inputs": [],
      "name": "laneId",
      "outputs": [
        {
          "internalType": "uint256",
          "name": "",
          "type": "uint256"
        }
      ],
      "stateMutability": "view",
      "type": "function"
    },
    {
      "inputs": [],
      "name": "laneRegistryContract",
      "outputs": [
        {
          "internalType": "address",
          "name": "",
          "type": "address"
        }
      ],
      "stateMutability": "view",
      "type": "function"
    },
    {
      "inputs": [],
      "name": "owner",
      "outputs": [
        {
          "internalType": "address",
          "name": "",
          "type": "address"
        }
      ],
      "stateMutability": "view",
      "type": "function"
    },
    {
      "inputs": [
        {
          "internalType": "bytes",
          "name": "_performData",
          "type": "bytes"
        }
      ],
      "name": "performUpkeep",
      "outputs": [],
      "stateMutability": "nonpayable",
      "type": "function"
    },
    {
      "inputs": [],
      "name": "postConsensus",
      "outputs": [
        {
          "internalType": "address",
          "name": "",
          "type": "address"
        }
      ],
      "stateMutability": "view",
      "type": "function"
    },
    {
      "inputs": [
        {
          "internalType": "uint256",
          "name": "",
          "type": "uint256"
        }
      ],
      "name": "postIndex",
      "outputs": [
        {
          "internalType": "uint256",
          "name": "",
          "type": "uint256"
        }
      ],
      "stateMutability": "view",
      "type": "function"
    },
    {
      "inputs": [
        {
          "internalType": "uint256",
          "name": "",
          "type": "uint256"
        }
      ],
      "name": "posts",
      "outputs": [
        {
          "internalType": "uint256",
          "name": "",
          "type": "uint256"
        }
      ],
      "stateMutability": "view",
      "type": "function"
    },
    {
      "inputs": [],
      "name": "registry",
      "outputs": [
        {
          "internalType": "address",
          "name": "",
          "type": "address"
        }
      ],
      "stateMutability": "view",
      "type": "function"
    },
    {
      "inputs": [
        {
          "internalType": "uint256",
          "name": "postId",
          "type": "uint256"
        }
      ],
      "name": "removePost",
      "outputs": [],
      "stateMutability": "nonpayable",
      "type": "function"
    },
    {
      "inputs": [
        {
          "internalType": "address",
          "name": "_forwarder",
          "type": "address"
        }
      ],
      "name": "setForwarder",
      "outputs": [],
      "stateMutability": "nonpayable",
      "type": "function"
    },
    {
      "inputs": [
        {
          "internalType": "address",
          "name": "_fundContractAddress",
          "type": "address"
        }
      ],
      "name": "setFundContract",
      "outputs": [],
      "stateMutability": "nonpayable",
      "type": "function"
    },
    {
      "inputs": [
        {
          "internalType": "address",
          "name": "_registry",
          "type": "address"
        }
      ],
      "name": "setRegistry",
      "outputs": [],
      "stateMutability": "nonpayable",
      "type": "function"
    }
  ],
  "bytecode": "0x608080604052346200011a5760608162000e4280380380916200002382856200011e565b8339810103126200011a576020816200003d5f9362000156565b906200005960406200005185840162000156565b920162000156565b60018060a01b0319913383600254161760025560018060a01b0391828092168460045416176004551692838360055416176005551690600854161760085560246040518094819362034db960e61b83523060048401525af19081156200010f575f91620000d5575b50600755604051610cd690816200016c8239f35b906020823d821162000106575b81620000f1602093836200011e565b81010312620001035750515f620000c1565b80fd5b3d9150620000e2565b6040513d5f823e3d90fd5b5f80fd5b601f909101601f19168101906001600160401b038211908210176200014257604052565b634e487b7160e01b5f52604160045260245ffd5b51906001600160a01b03821682036200011a5756fe60806040818152600480361015610014575f80fd5b5f92833560e01c908163025f9d63146109bd575080630b1e7f83146109945780631721ed48146109145780633b2786cb146108eb5780633eab6bac146108c25780634585e33b1461072e57806359144baa146106e15780636e04ff0d146104c45780637b1039991461049b5780638da5cb5b14610472578063a91ee0dc14610425578063a993983b14610295578063b9998a2414610248578063bcc954071461022b578063bd097e2114610202578063d670d4a9146101aa578063da5c2dfc1461018b578063fb35005c1461011b5763fc68e09f146100f1575f80fd5b346101175760203660031901126101175760209282913581526001845220549051908152f35b8280fd5b50829034610187576020366003190112610187578035915482101561015457602083610146846109e2565b91905490519160031b1c8152f35b606490602084519162461bcd60e51b8352820152600d60248201526c092dcecc2d8d2c840d2dcc8caf609b1b6044820152fd5b5080fd5b5050346101875781600319360112610187576020906007549051908152f35b50919034610187576020366003190112610187576101e4816020943593848152600186522054925f198414908115916101ea575b50610adb565b51908152f35b90506101f4610a0e565b90549060031b1c145f6101de565b50503461018757816003193601126101875760085490516001600160a01b039091168152602090f35b505034610187578160031936011261018757602091549051908152f35b83823461018757602036600319011261018757356001600160a01b03818116918290036101175761027e90600254163314610c5b565b600680546001600160a01b03191691909117905580f35b509160209283600319360112610187576005548135906001600160a01b0390811633036103ef578560249160085416865192838092633de5599d60e11b8252308883015234905af19081156103e55784916103ac575b5015610371578254600160401b81101561035e578161031282600161032a940187556109e2565b90919082549060031b91821b915f19901b1916179055565b82545f1981019290831161034b575082526001845282822055549051908152f35b634e487b7160e01b845260119052602483fd5b634e487b7160e01b845260418352602484fd5b835162461bcd60e51b81528083018690526015602482015274155c1ad9595c081c185e5b595b9d0819985a5b1959605a1b6044820152606490fd5b90508581813d83116103de575b6103c38183610aac565b810103126103da576103d490610ace565b5f6102eb565b8380fd5b503d6103b9565b85513d86823e3d90fd5b845162461bcd60e51b8152808401879052601060248201526f4e6f742074686520726567697374727960801b6044820152606490fd5b83823461018757602036600319011261018757356001600160a01b03818116918290036101175761045b90600254163314610c5b565b600580546001600160a01b03191691909117905580f35b50503461018757816003193601126101875760025490516001600160a01b039091168152602090f35b50503461018757816003193601126101875760035490516001600160a01b039091168152602090f35b50919034610187576104d536610a36565b5050606091828194828354908161053b575b505050939190815194859315158452602090838286015280518094860152825b84811061052557505050828201840152601f01601f19168101030190f35b8181018301518882018801528795508201610507565b82546001600160a01b03169185805b8281106106135750505080156104e75790925084919650602482518094819363793c9c8160e11b83528a8301525afa90811561060957829083926105cc575b50948351916020830152602082528382019082821067ffffffffffffffff8311176105b9575083525f80806104e7565b604190634e487b7160e01b5f525260245ffd5b809250848092503d8311610602575b6105e58183610aac565b810103126101875760206105f882610ace565b910151905f610589565b503d6105db565b83513d84823e3d90fd5b61061c816109e2565b90549060031b1c8951636a310cd160e11b8152818882015260209081816024818b5afa9182156106d7578b926106a5575b50504281111580610693575b610683575b50505f1981146106705760010161054a565b634e487b7160e01b885260118652602488fd5b60019c5090945091505f8061065e565b50838111158061065957508315610659565b90809250813d83116106d0575b6106bc8183610aac565b810103126106cc57515f8061064d565b8980fd5b503d6106b2565b8c513d8d823e3d90fd5b83823461018757602036600319011261018757356001600160a01b03818116918290036101175761071790600254163314610c5b565b600880546001600160a01b03191691909117905580f35b508290346101875761073f36610a36565b6006549194916001600160a01b0391908216330361087f57602086828101031261087b5785358581121561087557600160ff1b8114610862578503955b82855416803b1561085e57908691602083604489878a5198899788968794634585e33b60e01b8652850152816024850152848401378181018301849052601f01601f191681010301925af180156108545761083f575b506107dd8495610b1d565b6005541691600754845493803b1561083b5785928360449286519788958694632e6cfb9160e11b865285015260248401525af1908115610832575061081f5750f35b61082890610a84565b61082f5780f35b80fd5b513d84823e3d90fd5b8580fd5b9361084d6107dd9695610a84565b93946107d2565b83513d87823e3d90fd5b8680fd5b634e487b7160e01b865260118552602486fd5b9561077c565b8480fd5b825162461bcd60e51b8152602081860152601c60248201527f4e6f7420746865206175746f6d6174696f6e20666f72776172646572000000006044820152606490fd5b50503461018757816003193601126101875760055490516001600160a01b039091168152602090f35b50503461018757816003193601126101875760065490516001600160a01b039091168152602090f35b50903461011757602036600319011261011757600254336001600160a01b0391821614908115610987575b501561095357506109509035610b1d565b80f35b906020606492519162461bcd60e51b8352820152600e60248201526d139bdd08185d5d1a1bdc9a5e995960921b6044820152fd5b905082541633145f61093f565b5034610117576020366003190112610117573591805483101561082f57506101466020926109e2565b92505034610117578260031936011261011757546001600160a01b0316815260209150f35b905f9182548110156109fa5782805260208320019190565b634e487b7160e01b83526032600452602483fd5b5f90815415610a2257818052602082209190565b634e487b7160e01b82526032600452602482fd5b906020600319830112610a805760043567ffffffffffffffff92838211610a805780602383011215610a80578160040135938411610a805760248483010111610a80576024019190565b5f80fd5b67ffffffffffffffff8111610a9857604052565b634e487b7160e01b5f52604160045260245ffd5b90601f8019910116810190811067ffffffffffffffff821117610a9857604052565b51908115158203610a8057565b15610ae257565b60405162461bcd60e51b8152602060048201526013602482015272141bdcdd08191bd95cc81b9bdd08195e1a5cdd606a1b6044820152606490fd5b5f818152600160205260408082205490915f1991828114801590610c3f575b610b4590610adb565b8154838101908111610c2b5780610b5c86926109e2565b90549060031b1c908303610bdc575b50505080548015610bc857918360209492827f4323787dc7b9146e99da5553dee506c8d881e5da3d09774f8b421274287532be979501610baa816109e2565b8582549160031b1b19169055815584815260018652205551908152a1565b634e487b7160e01b82526031600452602482fd5b82610c0b826103127ff041f52db3fd2f56a979d9dd319aa6a6e399c198410349cf154eb4b4568d7daa966109e2565b8185526001602052808386205582519182526020820152a15f8381610b6b565b634e487b7160e01b83526011600452602483fd5b50610b4585610c4c610a0e565b90549060031b1c149050610b3c565b15610c6257565b60405162461bcd60e51b81526020600482015260166024820152752737ba103a34329031b7b73a3930b1ba1037bbb732b960511b6044820152606490fdfea26469706673582212206e2448f4cc160eef6ffa89f0f36aaef52048823d92f3a2a5caf6087cdf6b9dc564736f6c63430008140033",
  "linkReferences": {},
  "deployedLinkReferences": {}
}