{
  "_format": "hh-sol-artifact-1",
  "contractName": "tgetherMembers",
  "sourceName": "contracts/tgetherMembers.sol",
  "abi": [
    {
      "inputs": [],
      "stateMutability": "nonpayable",
      "type": "constructor"
    },
    {
      "anonymous": false,
      "inputs": [
        {
          "indexed": true,
          "internalType": "string",
          "name": "communityName",
          "type": "string"
        },
        {
          "indexed": true,
          "internalType": "address",
          "name": "memberAddress",
          "type": "address"
        },
        {
          "indexed": true,
          "internalType": "address",
          "name": "actor",
          "type": "address"
        },
        {
          "indexed": false,
          "internalType": "int256",
          "name": "creds",
          "type": "int256"
        }
      ],
      "name": "AddedNegCred",
      "type": "event"
    },
    {
      "anonymous": false,
      "inputs": [
        {
          "indexed": true,
          "internalType": "string",
          "name": "communityName",
          "type": "string"
        },
        {
          "indexed": true,
          "internalType": "address",
          "name": "memberAddress",
          "type": "address"
        },
        {
          "indexed": true,
          "internalType": "address",
          "name": "actor",
          "type": "address"
        },
        {
          "indexed": false,
          "internalType": "int256",
          "name": "creds",
          "type": "int256"
        }
      ],
      "name": "AddedPosCred",
      "type": "event"
    },
    {
      "anonymous": false,
      "inputs": [
        {
          "indexed": true,
          "internalType": "address",
          "name": "memberAddress",
          "type": "address"
        },
        {
          "indexed": true,
          "internalType": "string",
          "name": "communityName",
          "type": "string"
        },
        {
          "indexed": false,
          "internalType": "int256",
          "name": "creds",
          "type": "int256"
        },
        {
          "indexed": true,
          "internalType": "uint256",
          "name": "timestamp",
          "type": "uint256"
        }
      ],
      "name": "Creds",
      "type": "event"
    },
    {
      "anonymous": false,
      "inputs": [
        {
          "indexed": true,
          "internalType": "string",
          "name": "communityName",
          "type": "string"
        },
        {
          "indexed": true,
          "internalType": "address",
          "name": "memberAddress",
          "type": "address"
        },
        {
          "indexed": true,
          "internalType": "address",
          "name": "actor",
          "type": "address"
        },
        {
          "indexed": false,
          "internalType": "int256",
          "name": "index",
          "type": "int256"
        }
      ],
      "name": "IndexUpdated",
      "type": "event"
    },
    {
      "anonymous": false,
      "inputs": [
        {
          "indexed": true,
          "internalType": "string",
          "name": "communityName",
          "type": "string"
        },
        {
          "indexed": true,
          "internalType": "address",
          "name": "memberAddress",
          "type": "address"
        }
      ],
      "name": "MemberAdded",
      "type": "event"
    },
    {
      "anonymous": false,
      "inputs": [
        {
          "indexed": true,
          "internalType": "address",
          "name": "memberAddress",
          "type": "address"
        },
        {
          "indexed": true,
          "internalType": "string",
          "name": "name",
          "type": "string"
        },
        {
          "indexed": false,
          "internalType": "string",
          "name": "description",
          "type": "string"
        },
        {
          "indexed": false,
          "internalType": "string[]",
          "name": "degrees",
          "type": "string[]"
        },
        {
          "indexed": false,
          "internalType": "string[]",
          "name": "awards",
          "type": "string[]"
        }
      ],
      "name": "MemberInfo",
      "type": "event"
    },
    {
      "anonymous": false,
      "inputs": [
        {
          "indexed": true,
          "internalType": "string",
          "name": "communityName",
          "type": "string"
        },
        {
          "indexed": true,
          "internalType": "address",
          "name": "memberAddress",
          "type": "address"
        }
      ],
      "name": "MemberInvited",
      "type": "event"
    },
    {
      "anonymous": false,
      "inputs": [
        {
          "indexed": true,
          "internalType": "string",
          "name": "communityName",
          "type": "string"
        },
        {
          "indexed": true,
          "internalType": "address",
          "name": "memberAddress",
          "type": "address"
        }
      ],
      "name": "MemberRemoved",
      "type": "event"
    },
    {
      "anonymous": false,
      "inputs": [
        {
          "indexed": true,
          "internalType": "string",
          "name": "communityName",
          "type": "string"
        },
        {
          "indexed": true,
          "internalType": "address",
          "name": "memberAddress",
          "type": "address"
        }
      ],
      "name": "MemberUninvited",
      "type": "event"
    },
    {
      "anonymous": false,
      "inputs": [
        {
          "indexed": true,
          "internalType": "string",
          "name": "communityName",
          "type": "string"
        },
        {
          "indexed": true,
          "internalType": "address",
          "name": "memberAddress",
          "type": "address"
        },
        {
          "indexed": true,
          "internalType": "address",
          "name": "actor",
          "type": "address"
        },
        {
          "indexed": false,
          "internalType": "int256",
          "name": "creds",
          "type": "int256"
        }
      ],
      "name": "RemovedNegCred",
      "type": "event"
    },
    {
      "anonymous": false,
      "inputs": [
        {
          "indexed": true,
          "internalType": "string",
          "name": "communityName",
          "type": "string"
        },
        {
          "indexed": true,
          "internalType": "address",
          "name": "memberAddress",
          "type": "address"
        },
        {
          "indexed": true,
          "internalType": "address",
          "name": "actor",
          "type": "address"
        },
        {
          "indexed": false,
          "internalType": "int256",
          "name": "creds",
          "type": "int256"
        }
      ],
      "name": "RemovedPosCred",
      "type": "event"
    },
    {
      "inputs": [
        {
          "internalType": "string",
          "name": "_community",
          "type": "string"
        },
        {
          "internalType": "address",
          "name": "_member",
          "type": "address"
        }
      ],
      "name": "addNegCredsToMember",
      "outputs": [],
      "stateMutability": "nonpayable",
      "type": "function"
    },
    {
      "inputs": [
        {
          "internalType": "string",
          "name": "_community",
          "type": "string"
        },
        {
          "internalType": "address",
          "name": "_member",
          "type": "address"
        }
      ],
      "name": "addPosCredsToMember",
      "outputs": [],
      "stateMutability": "nonpayable",
      "type": "function"
    },
    {
      "inputs": [
        {
          "internalType": "string",
          "name": "_community",
          "type": "string"
        }
      ],
      "name": "addSelfAsMember",
      "outputs": [],
      "stateMutability": "nonpayable",
      "type": "function"
    },
    {
      "inputs": [],
      "name": "communityContract",
      "outputs": [
        {
          "internalType": "contract tgetherCommuityInterface",
          "name": "",
          "type": "address"
        }
      ],
      "stateMutability": "view",
      "type": "function"
    },
    {
      "inputs": [
        {
          "internalType": "string",
          "name": "_community",
          "type": "string"
        },
        {
          "internalType": "address",
          "name": "_member",
          "type": "address"
        },
        {
          "internalType": "int256",
          "name": "_creds",
          "type": "int256"
        }
      ],
      "name": "contractSetCred",
      "outputs": [
        {
          "internalType": "int256",
          "name": "",
          "type": "int256"
        }
      ],
      "stateMutability": "nonpayable",
      "type": "function"
    },
    {
      "inputs": [
        {
          "internalType": "address",
          "name": "_member",
          "type": "address"
        },
        {
          "internalType": "string",
          "name": "_community",
          "type": "string"
        }
      ],
      "name": "getIsInvited",
      "outputs": [
        {
          "internalType": "bool",
          "name": "",
          "type": "bool"
        }
      ],
      "stateMutability": "view",
      "type": "function"
    },
    {
      "inputs": [
        {
          "internalType": "address",
          "name": "_member",
          "type": "address"
        },
        {
          "internalType": "string",
          "name": "_community",
          "type": "string"
        }
      ],
      "name": "getIsMember",
      "outputs": [
        {
          "internalType": "bool",
          "name": "",
          "type": "bool"
        }
      ],
      "stateMutability": "view",
      "type": "function"
    },
    {
      "inputs": [
        {
          "internalType": "address",
          "name": "_member",
          "type": "address"
        }
      ],
      "name": "getMemberCommunities",
      "outputs": [
        {
          "internalType": "string[]",
          "name": "",
          "type": "string[]"
        }
      ],
      "stateMutability": "view",
      "type": "function"
    },
    {
      "inputs": [
        {
          "internalType": "address",
          "name": "_memberAddress",
          "type": "address"
        },
        {
          "internalType": "address",
          "name": "_credGiverAddress",
          "type": "address"
        },
        {
          "internalType": "string",
          "name": "_communityName",
          "type": "string"
        }
      ],
      "name": "getMemberCredIndex",
      "outputs": [
        {
          "internalType": "int256",
          "name": "index",
          "type": "int256"
        }
      ],
      "stateMutability": "view",
      "type": "function"
    },
    {
      "inputs": [
        {
          "internalType": "address",
          "name": "_member",
          "type": "address"
        },
        {
          "internalType": "string",
          "name": "_community",
          "type": "string"
        }
      ],
      "name": "getMemberCreds",
      "outputs": [
        {
          "internalType": "int256",
          "name": "creds",
          "type": "int256"
        }
      ],
      "stateMutability": "view",
      "type": "function"
    },
    {
      "inputs": [
        {
          "internalType": "address",
          "name": "_member",
          "type": "address"
        },
        {
          "internalType": "string",
          "name": "_community",
          "type": "string"
        }
      ],
      "name": "getMemberNegCredsList",
      "outputs": [
        {
          "internalType": "address[]",
          "name": "addressList",
          "type": "address[]"
        }
      ],
      "stateMutability": "view",
      "type": "function"
    },
    {
      "inputs": [
        {
          "internalType": "address",
          "name": "_member",
          "type": "address"
        },
        {
          "internalType": "string",
          "name": "_community",
          "type": "string"
        }
      ],
      "name": "getMemberPosCredsList",
      "outputs": [
        {
          "internalType": "address[]",
          "name": "addressList",
          "type": "address[]"
        }
      ],
      "stateMutability": "view",
      "type": "function"
    },
    {
      "inputs": [
        {
          "internalType": "address",
          "name": "_member",
          "type": "address"
        },
        {
          "internalType": "string",
          "name": "_community",
          "type": "string"
        },
        {
          "internalType": "address",
          "name": "givenBy",
          "type": "address"
        }
      ],
      "name": "hasMemberGivenCred",
      "outputs": [
        {
          "internalType": "bool",
          "name": "",
          "type": "bool"
        }
      ],
      "stateMutability": "view",
      "type": "function"
    },
    {
      "inputs": [
        {
          "internalType": "string",
          "name": "_community",
          "type": "string"
        },
        {
          "internalType": "address",
          "name": "_member",
          "type": "address"
        }
      ],
      "name": "inviteMember",
      "outputs": [
        {
          "internalType": "address",
          "name": "",
          "type": "address"
        }
      ],
      "stateMutability": "nonpayable",
      "type": "function"
    },
    {
      "inputs": [
        {
          "internalType": "string",
          "name": "",
          "type": "string"
        },
        {
          "internalType": "address",
          "name": "",
          "type": "address"
        }
      ],
      "name": "isInvited",
      "outputs": [
        {
          "internalType": "bool",
          "name": "",
          "type": "bool"
        }
      ],
      "stateMutability": "view",
      "type": "function"
    },
    {
      "inputs": [
        {
          "internalType": "address",
          "name": "",
          "type": "address"
        },
        {
          "internalType": "uint256",
          "name": "",
          "type": "uint256"
        }
      ],
      "name": "memberCommunities",
      "outputs": [
        {
          "internalType": "string",
          "name": "",
          "type": "string"
        }
      ],
      "stateMutability": "view",
      "type": "function"
    },
    {
      "inputs": [
        {
          "internalType": "string",
          "name": "_community",
          "type": "string"
        },
        {
          "internalType": "address",
          "name": "_member",
          "type": "address"
        }
      ],
      "name": "removeNegCredsFromMember",
      "outputs": [],
      "stateMutability": "nonpayable",
      "type": "function"
    },
    {
      "inputs": [
        {
          "internalType": "string",
          "name": "_community",
          "type": "string"
        },
        {
          "internalType": "address",
          "name": "_member",
          "type": "address"
        }
      ],
      "name": "removePosCredsFromMember",
      "outputs": [],
      "stateMutability": "nonpayable",
      "type": "function"
    },
    {
      "inputs": [
        {
          "internalType": "string",
          "name": "_community",
          "type": "string"
        }
      ],
      "name": "removeSelfAsMember",
      "outputs": [],
      "stateMutability": "nonpayable",
      "type": "function"
    },
    {
      "inputs": [
        {
          "internalType": "address",
          "name": "_contractAddress",
          "type": "address"
        }
      ],
      "name": "settgetherCommunities",
      "outputs": [],
      "stateMutability": "nonpayable",
      "type": "function"
    },
    {
      "inputs": [
        {
          "internalType": "string",
          "name": "_community",
          "type": "string"
        },
        {
          "internalType": "address",
          "name": "_member",
          "type": "address"
        }
      ],
      "name": "uninviteMember",
      "outputs": [
        {
          "internalType": "address",
          "name": "",
          "type": "address"
        }
      ],
      "stateMutability": "nonpayable",
      "type": "function"
    }
  ],
  "bytecode": "0x6080806040523461002857600280546001600160a01b031916331790556129f9908161002d8239f35b5f80fdfe60406080815260049081361015610014575f80fd5b5f91823560e01c90816302b5df59146121cb578163455958a0146121465781634f64aedd14611e715781635450fdd514611a295781636255de33146119ab5781636b039bb4146116035781638c5956c4146111d45781638e634029146111ab57816399d03bf214610fb95781639c419dc914610f41578163a482857814610f13578163b091c54614610ef7578163b66fdab414610c57578163bf2a3b7414610ad8578163bf7cb216146109cb578163c783acb41461095c578163ca4f880b146105ee578163cdb43ea414610265578163e636f3141461020e57508063f3faf99a146101935763fbc3d96c14610107575f80fd5b3461018f57610115366122cf565b91909260018060a01b03809416815260036101386020948386528484209061249a565b01938251908194808754938481520196845280842093915b838310610176576101728787610168828c0383612259565b51918291826124c0565b0390f35b8454811688529681019660019485019490920191610150565b5080fd5b503461018f576101a2366122cf565b91909260018060a01b03809416815260026101c56020948386528484209061249a565b01938251908194808754938481520196845280842093915b8383106101f5576101728787610168828c0383612259565b84548116885296810196600194850194909201916101dd565b905034610261578160209360ff9261023d86610229366122cf565b909382875194838680955193849201612454565b8201908152030190206001600160a01b039091168252855220549151911615158152f35b8280fd5b83833461018f5761027536612311565b919060018060a01b0380931692838552602095858752806102988588208561249a565b015461059a578351918351928881818701956102b5818389612454565b810185815203019020868852885260ff85882054166105605780600354169085519063cbe02a9f60e01b8083528a858401528a83806102f7602482018b612475565b0381875afa928315610556578a93610537575b50875163b3f6702d60e01b81528581018c90528b818061032d602482018c612475565b0381885afa90811561052d579083918c91610510575b501633149283610505575b508215610493575b505015610440578785518092631efb39a960e11b825282858301528180610380602482018a612475565b03915afa90811561043657887fbee566e9904e3c5e202405f159f39bc31121d728f2772cabc7cf243bcf63a64794610400946103cf60018b9a99966103df968e91610409575b5015151461253a565b8751809481938751928391612454565b8201908152030190208588528852838720805460ff19166001179055612591565b91519480a38152f35b6104299150863d881161042f575b6104218183612259565b810190612522565b8f6103c6565b503d610417565b85513d89823e3d90fd5b845162461bcd60e51b8152808301899052602760248201527f596f7520646f6e742068617665207065726d697373696f6e20696e76697465206044820152664d656d6265727360c81b6064820152608490fd5b909150865190815289848201528981806104b0602482018a612475565b0381865afa9081156104fb5789916104ce575b501633148980610356565b6104ee91508a3d8c116104f4575b6104e68183612259565b810190612503565b8a6104c3565b503d6104dc565b87513d8b823e3d90fd5b82161592508b61034e565b61052791508d803d106104f4576104e68183612259565b8d610343565b89513d8d823e3d90fd5b61054f9193508b3d8d116104f4576104e68183612259565b918b61030a565b88513d8c823e3d90fd5b845162461bcd60e51b81528083018990526014602482015273155cd95c88105b1c9958591e48125b9d9a5d195960621b6044820152606490fd5b835162461bcd60e51b8152908101879052602860248201527f4d656d62657220616c726561647920657869737473206f66207468697320636f60448201526736b6bab734ba3c9760c11b6064820152608490fd5b83833461018f57602092836003193601126102615780356001600160401b03811161095857610620903690830161227a565b6003548351637b7fcfed60e01b815283810187905260249692949291829082906001600160a01b031681806106578c82018b612475565b03915afa90811561094e5790610674918791610931575b5061264a565b338552848152826106878387208661249a565b0154156108e157338552848152826106a18387208661249a565b01543386526001808352838720545f19989192908981019081116108cf5781036107c7575b5033875281835283872097885480156107b55701916106e5838a612352565b9290926107a5575092879594928987846107329761070483975461237b565b9081610765575b505050505533825281815281856107248583208a61249a565b01553382525283208461249a565b015561073e3391612591565b7fdd403bcc860194e697bd48a94ad259a004827525ef954ad73b044e400f3adfe08380a380f35b8390601f831160011461078057505050555b838b808061070b565b61079e90848394959352601f898520950160051c85019085016125b1565b5555610777565b634e487b7160e01b895288875288fd5b634e487b7160e01b8952603187528289fd5b3388528284528488208054908a82019182116108bd57906107e791612352565b503389528385526107fa82878b20612352565b6108ac579061080891612691565b338852878452858589208486528561082284898d20612352565b508851928c918054906108348261237b565b91868b821691825f1461089457505060011461085d575b505081528290030190200155886106c6565b909192508d528c888482205b83831061087d57505050830190838f61084b565b8054878401528d97508b95909201918a9101610869565b925094505060ff19168352801515028201918f61084b565b634e487b7160e01b8a52898852838afd5b634e487b7160e01b8a5260118852838afd5b634e487b7160e01b8952601187528289fd5b905162461bcd60e51b8152918201526027818501527f596f7520617265206e6f742061206d656d626572206f66207468697320636f6d60448201526636bab734ba3c9760c91b6064820152608490fd5b6109489150833d851161042f576104218183612259565b8861066e565b83513d88823e3d90fd5b8380fd5b905034610261576060366003190112610261576109776121fa565b90602435906001600160401b0382116109c7576109969136910161227a565b604435939091906001600160a01b03851685036109c45750926109bb91602094612962565b90519015158152f35b80fd5b8480fd5b83833461018f5760209283600319360112610261576001600160a01b036109f06121fa565b168352600193848152828420928354926001600160401b038411610ac557509184908692845191610a26828260051b0184612259565b8083528183018097855282852085915b838310610a9857505050508451948186019282875251809352808601908360051b8701019693905b838210610a6b5786880387f35b90919293948380610a87839a603f198b82030186528951612475565b999701959493919091019101610a5e565b90878086819c9a9594610aaf859d999a9b9d6123b3565b8152019201920192509896989795949397610a36565b634e487b7160e01b865260419052602485fd5b8284346109c45760603660031901126109c45782356001600160401b03811161018f57610b08903690850161227a565b90610b11612214565b600354845163cbe02a9f60e01b81526020818801819052966001600160a01b0393929091908890829086168180610b4b602482018c612475565b03915afa908115610c4d579084918691610c30575b50168033149081610c26575b5080610c07575b15610bac5750918491610ba4949316808252818752604435610b978484208661249a565b558152808652209061249a565b549051908152f35b855162461bcd60e51b8152908101879052602f60248201527f4e6f742074686520637265642061636365737320636f6e7472616374206f722060448201526e2ab9b2b9103737ba1036b2b6b132b960891b6064820152608490fd5b50828216845283875280610c1d8786208761249a565b01541515610b73565b9050151588610b6c565b610c479150893d8b116104f4576104e68183612259565b89610b60565b87513d87823e3d90fd5b90503461026157610c6736612311565b6003548451637b7fcfed60e01b8152602081860181905293956001600160a01b0392831695909493909291848180610ca2602482018c612475565b03818a5afa908115610eed57839291610cc1918b91610ed0575061264a565b338952888552610ce084610cd7888c208b61249a565b0154151561276b565b1694858852878452610d0183610cf8878b208a61249a565b015415156127af565b610d0d863314156127ef565b838551809263cbe02a9f60e01b825282868301528180610d30602482018d612475565b03915afa908115610ec65790610d5092918991610ea9575b50161561283b565b8386528582526001610d648488208761249a565b013387528252610d778387205415612896565b838652858252610d898387208661249a565b805490600182019188600184129112908015821691151617610e965755838652858252610db88387208661249a565b54610dc286612591565b8451918252855f805160206129a4833981519152854294a4838652858252610df8336002610df2868a208961249a565b01612627565b8386528582526002610e0c8488208761249a565b01545f19810191908211610e835750907fd0f5d24e816c9fc4cba0f35b280898648e66604fc44212736e778bfefc338b0f918487528682526001610e528589208861249a565b01338852825283872055838652858152610e78610e718488208761249a565b5495612591565b92519485523394a480f35b634e487b7160e01b875260119052602486fd5b634e487b7160e01b885260118352602488fd5b610ec09150853d87116104f4576104e68183612259565b5f610d48565b85513d8a823e3d90fd5b610ee79150873d891161042f576104218183612259565b5f61066e565b86513d8b823e3d90fd5b50503461018f576020906109bb610f0d366122cf565b90612930565b905034610261578160209360ff9261023d86610f2e36612311565b9382875194838680955193849201612454565b90503461026157606036600319011261026157610f5c6121fa565b610f64612214565b916044356001600160401b038111610fb557916001610fa5610f8e8796946020999636910161227a565b828060a01b0380941686528589528686209061249a565b0191168252845220549051908152f35b8580fd5b90503461026157610fc936612311565b6003548451637b7fcfed60e01b8152602081860181905293956001600160a01b0392831695909493909291848180611004602482018c612475565b03818a5afa908115610eed57839291611023918b91610ed0575061264a565b33895288855261103984610cd7888c208b61249a565b169485885287845261105183610cf8878b208a61249a565b61105d863314156127ef565b838551809263cbe02a9f60e01b825282868301528180611080602482018d612475565b03915afa908115610ec6579061109f92918991610ea95750161561283b565b83865285825260016110b38488208761249a565b0133875282526110c68387205415612896565b8386528582526110d88387208661249a565b9081545f199283820191821360011661119857558487528683526110fe8488208761249a565b5461110887612591565b8551918252865f805160206129a4833981519152864294a4848752868352611138336003610df2878b208a61249a565b848752868352600361114c8589208861249a565b0154918201918211610e835750906111847f8e3dd53aaad1909975de245668134b898a443d9d797f6a14e77b5cd0606ed541926128f6565b8487528682526001610e528589208861249a565b634e487b7160e01b895260118352602489fd5b50503461018f578160031936011261018f5760035490516001600160a01b039091168152602090f35b8284346109c4576111e436612311565b9260018060a01b0393846003541695825195637b7fcfed60e01b8752602092838389015260249784818061121a8c82018b612475565b03818d5afa9081156115f95798809a61127686610cf88a888e9f988e9f9e8f610cd78f9b9286836112a09f948f61125c611267988e9884916115e2575061264a565b33825252209061249a565b169c8d8152808852208d61249a565b611282893314156127ef565b8751808095819463cbe02a9f60e01b8352868a84015282018d612475565b03915afa908115610ec65790829189916115c5575b50166115765784875286835260016112cf8589208861249a565b0133885283528387205491878313801561156f575b8551906112f08261222a565b603682527f596f752068617665206e6f7420676976656e206120706f736974697665206372868301527532b2103a37903a3434b99036b2b6b132b9103cb2ba1760511b878301521561154b575085885287845261134f8589208861249a565b9182545f1993848201918b8684129112908015821691151617611539575586895288855261137f868a208961249a565b5461138989612591565b8751918252885f805160206129a4833981519152884294a486895288855260026113b5878b208a61249a565b0193898554928584019384116115275783830361146a575b5090508791505287845260016113e5868a208961249a565b0133895284528785812055825490811561145857507f6c5cfc2553aaffd4cd0342765cdbca370cda07554f00e4e5112884eae468e299939291019061144261142d8383612352565b81549060018060a01b039060031b1b19169055565b55838652858152610e78610e718488208761249a565b634e487b7160e01b8952603190528888fd5b6114ac8161147b6114ea968a612352565b90549060031b1c1661148d858a612352565b90919082549060031b9160018060a01b03809116831b921b1916179055565b60016114c98a6114bb8661291f565b948d8152808c52208d61249a565b01906114d58489612352565b90549060031b1c168c528752878b205561291f565b866114f489612591565b87519283527fd6fa86004958e4fadc7035e661e86172c72f1ea51e79e8bf8bd3f4103663e8e3873394a4898089816113cd565b634e487b7160e01b8252601185528c82fd5b634e487b7160e01b8b52601184528b8bfd5b855162461bcd60e51b8152918201859052819061156b90828c0190612475565b0390fd5b50876112e4565b5060258760849385519362461bcd60e51b85528401528201527f436f6d6d756e6974792055736573206120637265642061636365737320636f6e6044820152641d1c9858dd60da1b6064820152fd5b6115dc9150853d87116104f4576104e68183612259565b8a6112b5565b610ee79150833d851161042f576104218183612259565b86513d8a823e3d90fd5b83833461018f5761161336612311565b600354835163cbe02a9f60e01b80825260208289018190529793959493926024926001600160a01b0392918316918a82806116508882018b612475565b0381865afa918215610556578a9261198c575b50875163b3f6702d60e01b81528681018c90528b81806116858982018c612475565b0381875afa90811561052d57859182918e8e9261196f575b50501633149283611964575b5050811561190c575b50156118b8578886518092631efb39a960e11b8252828783015281806116da8882018b612475565b03915afa9081156115f9576116fb916001918a9161189b575015151461253a565b845190845191898181880194611712818388612454565b8101878152030190209616958688528852600160ff868920541615150361186457853314611822578761174f918651809381928851928391612454565b8101858152030190208587528752838620805460ff191690558351635848e2a360e11b81528083018690529081018490528681806117906044820187612475565b0381305afa9081156118185792867fe19753ef16cb08d80c81e7c26df1578544dc02c0a7538cf0d3fc2355dc180bca9360016104009489989784916117fb575b501515146117e0575b5050612591565b868252818a526117f28683208461249a565b015586896117d9565b61181291508c8d3d1061042f576104218183612259565b8c6117d0565b84513d88823e3d90fd5b845162461bcd60e51b8152808401899052601d818401527f596f752063616e6e6f7420756e696e7669746520796f757273656c662e0000006044820152606490fd5b845162461bcd60e51b81528084018990526012818401527113595b58995c88139bdd08125b9d9a5d195960721b6044820152606490fd5b6118b291508b3d8d1161042f576104218183612259565b8b6103c6565b855162461bcd60e51b81528085018a90526029818501527f596f7520646f6e742068617665207065726d697373696f6e20756e696e76697460448201526865204d656d6265727360b81b6064820152608490fd5b9050865190815289858201528981806119278782018a612475565b0381855afa9081156104fb579083918a91611947575b501633148a6116b2565b61195e91508b3d8d116104f4576104e68183612259565b8b61193d565b16159150838c6116a9565b6119859250803d106104f4576104e68183612259565b8e8e61169d565b6119a49192508b3d8d116104f4576104e68183612259565b908b611663565b8284346109c457816003193601126109c4576119c56121fa565b6001600160a01b0316815260016020528181208054602435919082101561026157906119f091612352565b939093611a175761017283611a04866123b3565b9051918291602083526020830190612475565b634e487b7160e01b8252819052602490fd5b9190503461026157602080600319360112610958576001600160401b038335818111610fb557611a5c903690860161227a565b9360018060a01b0360035416845192637b7fcfed60e01b84528483850152602493858180611a8c8882018c612475565b0381865afa9081156104fb578991611e54575b5015611e175733885287855282611ab8878a208961249a565b0154611dc1578486518093631efb39a960e11b825282868301528180611ae08982018d612475565b03915afa9182156115f9578892611da2575b5060018092151514611d1f575b3388528185528588208054908115611cc4575b5050338852818552858820805490600160401b821015611cb25790611b3b918482018155612352565b919091611ca1578751908111611c8f57611b5f81611b59845461237b565b846125c7565b8086601f8211600114611c32578a91611c27575b505f19600383901b1c191690831b1790555b3387528352838620545f19810192908311611c1657509285600393611bd393611be596338452838352611bba8585208a61249a565b0155338252818152611bd96002611bd38585208a61249a565b0161260a565b3382525285208461249a565b611bef3391612591565b7ff038f0d708fc70f18d5815d07a62a3b40d2035dc6af7429865f612242ff870588380a380f35b634e487b7160e01b87526011825286fd5b90508801515f611b73565b838b52878b2085935090601f1983168c5b8a8d838310611c7a575050508311611c62575b5050811b019055611b85565b8a01515f1960f88460031b161c191690555f80611c56565b84015185558896909401939283019201611c43565b634e487b7160e01b8952604184528489fd5b634e487b7160e01b89528884528489fd5b634e487b7160e01b8a5260418552858afd5b600160401b821015611cb25790611cdf918482018155612352565b611ca15780611cef5f925461237b565b601f8111611d01575b50555f80611b12565b818b52878b20611d1991601f0160051c8101906125b1565b5f611cf8565b8551858181611d348b83815193849201612454565b81018681520301902033895285528588205460ff1615158214611aff57855162461bcd60e51b81528084018690526026818601527f596f7520617265206e6f7420696e766974656420746f207468697320636f6d6d6044820152653ab734ba3c9760d11b6064820152608490fd5b611dba919250853d871161042f576104218183612259565b905f611af2565b855162461bcd60e51b8152808401869052602b818601527f596f752061726520616c72656164792061206d656d626572206f66207468697360448201526a1031b7b6b6bab734ba3c9760a91b6064820152608490fd5b855162461bcd60e51b81528084018690526018818601527710dbdb5b5d5b9a5d1e48111bd95cc81b9bdd08115e1a5cdd60421b6044820152606490fd5b611e6b9150863d881161042f576104218183612259565b5f611a9f565b8284346109c457611e8136612311565b9260018060a01b0393846003541695825195637b7fcfed60e01b87526020928383890152602497848180611eb78c82018b612475565b03818d5afa9081156115f95798809a61127686610cf88a888e9f988e9f9e8f610cd78f9b928683611ef99f948f61125c611267988e9884916115e2575061264a565b03915afa908115610ec6579082918991612129575b5016611576578487528683526001611f288589208861249a565b013388528352838720548451611f3d8161222a565b602381527f48617665206e6f7420676976656e2061206e6567617469766520637265642079858201526232ba1760e91b86820152888212156121085750858852878452611f8c8589208861249a565b80549060018201918a6001841291129080158216911516176120f65790611fe8929155868952888552611fc1868a208961249a565b54611fcb89612591565b8751918252885f805160206129a4833981519152884294a46128f6565b918588528784526003611ffd868a208961249a565b0192835490895f199485840193841161152757838303612078575b509050879150528784526001612030868a208961249a565b0133895284528785812055825490811561145857507fd6d87a1ec8d7320486a7705035a72a09149f3c5e25dcccb14a1c99eebc86d6c0939291019061144261142d8383612352565b6120898161147b6120b9968a612352565b60016120988a6114bb866128f6565b01906120a48489612352565b90549060031b1c168c528752878b20556128f6565b866120c389612591565b87519283527fd6fa86004958e4fadc7035e661e86172c72f1ea51e79e8bf8bd3f4103663e8e3873394a489808981612018565b634e487b7160e01b8a52601185528a8afd5b855162461bcd60e51b815280850186905290819061156b90828d0190612475565b6121409150853d87116104f4576104e68183612259565b8a611f0e565b905034610261576020366003190112610261576121616121fa565b6002546001600160a01b0393919291908416330361218f5750501660018060a01b0319600354161760035580f35b906020606492519162461bcd60e51b835282015260166024820152752737ba103a34329031b7b73a3930b1ba1037bbb732b960511b6044820152fd5b50503461018f57610ba4602092826121e2366122cf565b6001600160a01b03909116835282865291209061249a565b600435906001600160a01b038216820361221057565b5f80fd5b602435906001600160a01b038216820361221057565b606081019081106001600160401b0382111761224557604052565b634e487b7160e01b5f52604160045260245ffd5b90601f801991011681019081106001600160401b0382111761224557604052565b81601f82011215612210578035906001600160401b03821161224557604051926122ae601f8401601f191660200185612259565b8284526020838301011161221057815f926020809301838601378301015290565b906040600319830112612210576004356001600160a01b03811681036122105791602435906001600160401b0382116122105761230e9160040161227a565b90565b604060031982011261221057600435906001600160401b0382116122105761233b9160040161227a565b906024356001600160a01b03811681036122105790565b8054821015612367575f5260205f2001905f90565b634e487b7160e01b5f52603260045260245ffd5b90600182811c921680156123a9575b602083101461239557565b634e487b7160e01b5f52602260045260245ffd5b91607f169161238a565b9060405191825f8254926123c68461237b565b9081845260019485811690815f1461243157506001146123f1575b50506123ef92500383612259565b565b909391505f52602090815f20935f915b8183106124195750506123ef93508201015f806123e1565b85548884018501529485019487945091830191612401565b9150506123ef94506020925060ff191682840152151560051b8201015f806123e1565b5f5b8381106124655750505f910152565b8181015183820152602001612456565b9060209161248e81518092818552858086019101612454565b601f01601f1916010190565b6020906124b4928260405194838680955193849201612454565b82019081520301902090565b602090816040818301928281528551809452019301915f5b8281106124e6575050505090565b83516001600160a01b0316855293810193928101926001016124d8565b9081602091031261221057516001600160a01b03811681036122105790565b90816020910312612210575180151581036122105790565b1561254157565b60405162461bcd60e51b815260206004820152602260248201527f5468697320636f6d6d756e697479206973206e6f7420696e76697465206f6e6c6044820152613c9760f11b6064820152608490fd5b6125a990602060405192828480945193849201612454565b810103902090565b8181106125bc575050565b5f81556001016125b1565b9190601f81116125d657505050565b6123ef925f5260205f20906020601f840160051c83019310612600575b601f0160051c01906125b1565b90915081906125f3565b8054600160401b8110156122455761142d91600182018155612352565b80549190600160401b831015612245578261148d9160016123ef95018155612352565b1561265157565b60405162461bcd60e51b815260206004820152601860248201527710dbdb5b5d5b9a5d1e48111bd95cc8139bdd08115e1a5cdd60421b6044820152606490fd5b90808214612767576126a3815461237b565b906001600160401b0382116122455781906126c8826126c2865461237b565b866125c7565b5f90601f83116001146126fc575f926126f1575b50508160011b915f199060031b1c1916179055565b015490505f806126dc565b81526020808220858352818320935090601f1985169083905b82821061274e575050908460019594939210612736575b505050811b019055565b01545f1960f88460031b161c191690555f808061272c565b8495819295850154815560018091019601940190612715565b5050565b1561277257565b60405162461bcd60e51b81526020600482015260156024820152742cb7ba9030b932903737ba10309036b2b6b132b91760591b6044820152606490fd5b156127b657565b60405162461bcd60e51b8152602060048201526011602482015270546172676574206d656d62657220444e4560781b6044820152606490fd5b156127f657565b60405162461bcd60e51b815260206004820152601a60248201527f596f752063616e6e6f742065646974206f776e2063726564732e0000000000006044820152606490fd5b1561284257565b60405162461bcd60e51b815260206004820152602660248201527f436f6d6d6d756e6974792055736573206120637265642061636365737320636f6044820152651b9d1c9858dd60d21b6064820152608490fd5b1561289d57565b60405162461bcd60e51b815260206004820152602b60248201527f596f7527766520616c726561647920676976656e2061206372656420746f207460448201526a3434b99036b2b6b132b91760a91b6064820152608490fd5b90815f03918083055f19149015171561290b57565b634e487b7160e01b5f52601160045260245ffd5b908115600183800514171561290b57565b6001600160a01b03165f908152602081905260409020600491612953919061249a565b015461295d575f90565b600190565b6001600160a01b039081165f9081526020819052604081209093926001916129899161249a565b9190921683520160205260408120541561230e575060019056fe1956a939e1963127a6802bc7dff8c43f9bc551a0bf97efc611706570e4108402a26469706673582212208f92b2a075eaa1c395c6ee7eb16ad9412e8879c6f1f3fcd68ccbe994932931e864736f6c63430008140033",
  "linkReferences": {},
  "deployedLinkReferences": {}
}