{
  "_format": "hh-sol-artifact-1",
  "contractName": "tgetherCommunityConsensus",
  "sourceName": "contracts/tgetherCommunityConsensus.sol",
  "abi": [
    {
      "inputs": [
        {
          "internalType": "uint256",
          "name": "_feePrice",
          "type": "uint256"
        },
        {
          "internalType": "address",
          "name": "_communityContractAddress",
          "type": "address"
        },
        {
          "internalType": "uint256",
          "name": "_communityFee",
          "type": "uint256"
        },
        {
          "internalType": "address",
          "name": "_fundContract",
          "type": "address"
        }
      ],
      "stateMutability": "nonpayable",
      "type": "constructor"
    },
    {
      "anonymous": false,
      "inputs": [
        {
          "indexed": true,
          "internalType": "string",
          "name": "communityName",
          "type": "string"
        },
        {
          "indexed": false,
          "internalType": "uint256",
          "name": "numReviewsForAcceptance",
          "type": "uint256"
        },
        {
          "indexed": false,
          "internalType": "uint256",
          "name": "credsNeededForReview",
          "type": "uint256"
        },
        {
          "indexed": false,
          "internalType": "uint256",
          "name": "percentAcceptsNeeded",
          "type": "uint256"
        },
        {
          "indexed": false,
          "internalType": "uint256",
          "name": "consensusTime",
          "type": "uint256"
        },
        {
          "indexed": false,
          "internalType": "string[]",
          "name": "consensusTypes",
          "type": "string[]"
        }
      ],
      "name": "CCParamCreated",
      "type": "event"
    },
    {
      "anonymous": false,
      "inputs": [
        {
          "indexed": true,
          "internalType": "uint256",
          "name": "proposalId",
          "type": "uint256"
        },
        {
          "indexed": false,
          "internalType": "address",
          "name": "proposer",
          "type": "address"
        },
        {
          "indexed": false,
          "internalType": "uint256",
          "name": "numReviewsForAcceptance",
          "type": "uint256"
        },
        {
          "indexed": false,
          "internalType": "uint256",
          "name": "credsNeededForReview",
          "type": "uint256"
        },
        {
          "indexed": false,
          "internalType": "uint256",
          "name": "percentAcceptsNeeded",
          "type": "uint256"
        },
        {
          "indexed": false,
          "internalType": "uint256",
          "name": "consensusTime",
          "type": "uint256"
        },
        {
          "indexed": false,
          "internalType": "string[]",
          "name": "consensusTypes",
          "type": "string[]"
        }
      ],
      "name": "CCProposalCreated",
      "type": "event"
    },
    {
      "inputs": [
        {
          "internalType": "uint256",
          "name": "",
          "type": "uint256"
        }
      ],
      "name": "CommunityConsensusProposals",
      "outputs": [
        {
          "internalType": "address",
          "name": "proposer",
          "type": "address"
        },
        {
          "internalType": "string",
          "name": "communityName",
          "type": "string"
        },
        {
          "internalType": "uint256",
          "name": "numReviewsForAcceptance",
          "type": "uint256"
        },
        {
          "internalType": "uint256",
          "name": "credsNeededForReview",
          "type": "uint256"
        },
        {
          "internalType": "uint256",
          "name": "percentAcceptsNeeded",
          "type": "uint256"
        },
        {
          "internalType": "uint256",
          "name": "consensusTime",
          "type": "uint256"
        },
        {
          "internalType": "bool",
          "name": "upkeeped",
          "type": "bool"
        },
        {
          "internalType": "bool",
          "name": "passed",
          "type": "bool"
        }
      ],
      "stateMutability": "view",
      "type": "function"
    },
    {
      "inputs": [],
      "name": "CommunityContract",
      "outputs": [
        {
          "internalType": "contract tgetherCommuunitiesInterfact",
          "name": "",
          "type": "address"
        }
      ],
      "stateMutability": "view",
      "type": "function"
    },
    {
      "inputs": [
        {
          "internalType": "string",
          "name": "",
          "type": "string"
        },
        {
          "internalType": "uint256",
          "name": "",
          "type": "uint256"
        }
      ],
      "name": "ConsensusProposalArray",
      "outputs": [
        {
          "internalType": "uint256",
          "name": "",
          "type": "uint256"
        }
      ],
      "stateMutability": "view",
      "type": "function"
    },
    {
      "inputs": [
        {
          "internalType": "string",
          "name": "_communityName",
          "type": "string"
        },
        {
          "internalType": "uint256",
          "name": "_numReviewsForAcceptance",
          "type": "uint256"
        },
        {
          "internalType": "uint256",
          "name": "_credsNeededForReview",
          "type": "uint256"
        },
        {
          "internalType": "uint256",
          "name": "_percentAcceptsNeeded",
          "type": "uint256"
        },
        {
          "internalType": "uint256",
          "name": "_consensusTime",
          "type": "uint256"
        },
        {
          "internalType": "string[]",
          "name": "_consensusTypes",
          "type": "string[]"
        }
      ],
      "name": "CreateCCProposal",
      "outputs": [
        {
          "internalType": "uint256",
          "name": "",
          "type": "uint256"
        }
      ],
      "stateMutability": "payable",
      "type": "function"
    },
    {
      "inputs": [],
      "name": "FundContract",
      "outputs": [
        {
          "internalType": "contract tgetherFundInterface",
          "name": "",
          "type": "address"
        }
      ],
      "stateMutability": "view",
      "type": "function"
    },
    {
      "inputs": [],
      "name": "UpdateTotalFee",
      "outputs": [],
      "stateMutability": "nonpayable",
      "type": "function"
    },
    {
      "inputs": [
        {
          "internalType": "bytes32",
          "name": "_address",
          "type": "bytes32"
        }
      ],
      "name": "bytes32ToAddress",
      "outputs": [
        {
          "internalType": "address",
          "name": "",
          "type": "address"
        }
      ],
      "stateMutability": "pure",
      "type": "function"
    },
    {
      "inputs": [
        {
          "components": [
            {
              "internalType": "uint256",
              "name": "index",
              "type": "uint256"
            },
            {
              "internalType": "uint256",
              "name": "timestamp",
              "type": "uint256"
            },
            {
              "internalType": "bytes32",
              "name": "txHash",
              "type": "bytes32"
            },
            {
              "internalType": "uint256",
              "name": "blockNumber",
              "type": "uint256"
            },
            {
              "internalType": "bytes32",
              "name": "blockHash",
              "type": "bytes32"
            },
            {
              "internalType": "address",
              "name": "source",
              "type": "address"
            },
            {
              "internalType": "bytes32[]",
              "name": "topics",
              "type": "bytes32[]"
            },
            {
              "internalType": "bytes",
              "name": "data",
              "type": "bytes"
            }
          ],
          "internalType": "struct Log",
          "name": "log",
          "type": "tuple"
        },
        {
          "internalType": "bytes",
          "name": "",
          "type": "bytes"
        }
      ],
      "name": "checkLog",
      "outputs": [
        {
          "internalType": "bool",
          "name": "upkeepNeeded",
          "type": "bool"
        },
        {
          "internalType": "bytes",
          "name": "performData",
          "type": "bytes"
        }
      ],
      "stateMutability": "view",
      "type": "function"
    },
    {
      "inputs": [
        {
          "internalType": "string",
          "name": "",
          "type": "string"
        }
      ],
      "name": "communityConsensus",
      "outputs": [
        {
          "internalType": "uint256",
          "name": "numReviewsForAcceptance",
          "type": "uint256"
        },
        {
          "internalType": "uint256",
          "name": "credsNeededForReview",
          "type": "uint256"
        },
        {
          "internalType": "uint256",
          "name": "percentAcceptsNeeded",
          "type": "uint256"
        },
        {
          "internalType": "uint256",
          "name": "consensusTime",
          "type": "uint256"
        },
        {
          "internalType": "bool",
          "name": "isSet",
          "type": "bool"
        }
      ],
      "stateMutability": "view",
      "type": "function"
    },
    {
      "inputs": [],
      "name": "communityFee",
      "outputs": [
        {
          "internalType": "uint256",
          "name": "",
          "type": "uint256"
        }
      ],
      "stateMutability": "view",
      "type": "function"
    },
    {
      "inputs": [],
      "name": "fee",
      "outputs": [
        {
          "internalType": "uint256",
          "name": "",
          "type": "uint256"
        }
      ],
      "stateMutability": "view",
      "type": "function"
    },
    {
      "inputs": [
        {
          "internalType": "string",
          "name": "_communityName",
          "type": "string"
        }
      ],
      "name": "getCCParams",
      "outputs": [
        {
          "internalType": "uint256",
          "name": "_numReviewsForAcceptance",
          "type": "uint256"
        },
        {
          "internalType": "uint256",
          "name": "_credsNeededForReview",
          "type": "uint256"
        },
        {
          "internalType": "uint256",
          "name": "_percentAcceptsNeeded",
          "type": "uint256"
        },
        {
          "internalType": "uint256",
          "name": "_consensusTime",
          "type": "uint256"
        },
        {
          "internalType": "string[]",
          "name": "_consensusTypes",
          "type": "string[]"
        },
        {
          "internalType": "bool",
          "name": "_isSet",
          "type": "bool"
        }
      ],
      "stateMutability": "view",
      "type": "function"
    },
    {
      "inputs": [
        {
          "internalType": "string",
          "name": "_communityName",
          "type": "string"
        }
      ],
      "name": "getCCParamsExist",
      "outputs": [
        {
          "internalType": "bool",
          "name": "_isSet",
          "type": "bool"
        }
      ],
      "stateMutability": "view",
      "type": "function"
    },
    {
      "inputs": [
        {
          "internalType": "string",
          "name": "_communityName",
          "type": "string"
        }
      ],
      "name": "getCommunityConsensousTime",
      "outputs": [
        {
          "internalType": "uint256",
          "name": "",
          "type": "uint256"
        }
      ],
      "stateMutability": "view",
      "type": "function"
    },
    {
      "inputs": [
        {
          "internalType": "string",
          "name": "_communityName",
          "type": "string"
        }
      ],
      "name": "getCommunityConsensousTypes",
      "outputs": [
        {
          "internalType": "string[]",
          "name": "consensusTypes",
          "type": "string[]"
        }
      ],
      "stateMutability": "view",
      "type": "function"
    },
    {
      "inputs": [
        {
          "internalType": "string",
          "name": "_communityName",
          "type": "string"
        }
      ],
      "name": "getCommunityReviewParams",
      "outputs": [
        {
          "internalType": "uint256",
          "name": "numReviewsForAcceptance",
          "type": "uint256"
        },
        {
          "internalType": "uint256",
          "name": "credsNeededForReview",
          "type": "uint256"
        },
        {
          "internalType": "uint256",
          "name": "percentAcceptsNeeded",
          "type": "uint256"
        }
      ],
      "stateMutability": "view",
      "type": "function"
    },
    {
      "inputs": [
        {
          "internalType": "string",
          "name": "_communityName",
          "type": "string"
        }
      ],
      "name": "getConsensusProposalArray",
      "outputs": [
        {
          "internalType": "uint256[]",
          "name": "",
          "type": "uint256[]"
        }
      ],
      "stateMutability": "view",
      "type": "function"
    },
    {
      "inputs": [],
      "name": "maxConsensusTime",
      "outputs": [
        {
          "internalType": "uint256",
          "name": "",
          "type": "uint256"
        }
      ],
      "stateMutability": "view",
      "type": "function"
    },
    {
      "inputs": [
        {
          "internalType": "bytes",
          "name": "_performData",
          "type": "bytes"
        }
      ],
      "name": "performUpkeep",
      "outputs": [],
      "stateMutability": "nonpayable",
      "type": "function"
    },
    {
      "inputs": [
        {
          "internalType": "string",
          "name": "_communityName",
          "type": "string"
        },
        {
          "internalType": "uint256",
          "name": "_numReviewsForAcceptance",
          "type": "uint256"
        },
        {
          "internalType": "uint256",
          "name": "_credsNeededForReview",
          "type": "uint256"
        },
        {
          "internalType": "uint256",
          "name": "_percentAcceptsNeeded",
          "type": "uint256"
        },
        {
          "internalType": "uint256",
          "name": "_consensusTime",
          "type": "uint256"
        },
        {
          "internalType": "string[]",
          "name": "_consensusTypes",
          "type": "string[]"
        }
      ],
      "name": "setCCParams",
      "outputs": [
        {
          "internalType": "bool",
          "name": "",
          "type": "bool"
        }
      ],
      "stateMutability": "nonpayable",
      "type": "function"
    },
    {
      "inputs": [
        {
          "internalType": "uint256",
          "name": "_feePrice",
          "type": "uint256"
        }
      ],
      "name": "setFee",
      "outputs": [],
      "stateMutability": "nonpayable",
      "type": "function"
    },
    {
      "inputs": [
        {
          "internalType": "address",
          "name": "_contract",
          "type": "address"
        }
      ],
      "name": "setFundContract",
      "outputs": [],
      "stateMutability": "nonpayable",
      "type": "function"
    },
    {
      "inputs": [
        {
          "internalType": "uint256",
          "name": "_mrt",
          "type": "uint256"
        }
      ],
      "name": "setMaxConsensusTime",
      "outputs": [],
      "stateMutability": "nonpayable",
      "type": "function"
    },
    {
      "inputs": [
        {
          "internalType": "address",
          "name": "_contractAddress",
          "type": "address"
        }
      ],
      "name": "settgetherCommunityContract",
      "outputs": [],
      "stateMutability": "nonpayable",
      "type": "function"
    },
    {
      "inputs": [],
      "name": "totalFee",
      "outputs": [
        {
          "internalType": "uint256",
          "name": "",
          "type": "uint256"
        }
      ],
      "stateMutability": "view",
      "type": "function"
    },
    {
      "inputs": [],
      "name": "upkeepId",
      "outputs": [
        {
          "internalType": "uint256",
          "name": "",
          "type": "uint256"
        }
      ],
      "stateMutability": "view",
      "type": "function"
    }
  ],
  "bytecode": "0x608034620000e157601f6200253238819003918201601f19168301916001600160401b03831184841017620000e557808492608094604052833981010312620000e1578051906200005360208201620000f9565b62000066606060408401519301620000f9565b9060018060a01b0319913083600a541617600a553383600354161760035560018060a01b038092168360095416176009551690600854161760085581600455806006558101809111620000cd576007556278645060055560405161242390816200010f8239f35b634e487b7160e01b5f52601160045260245ffd5b5f80fd5b634e487b7160e01b5f52604160045260245ffd5b51906001600160a01b0382168203620000e15756fe60806040526004361015610011575f80fd5b5f3560e01c806304189d0b14611fa557806313a292ee14611f775780631df4ccfc14611f5a5780631e6a248814611ebc57806324c9db2f14611e6c5780632627bc1e14611df25780632691798914611d475780632dc5f3d714611c875780633bebe05114611c3c57806340691db414611af35780634585e33b14610faf5780634e2413e814610c1657806359144baa14610bca5780635ced058e14610ba357806369fe0e2d14610b755780638961be6b14610b585780638ed8067e14610b3057806394977f7414610ab7578063a804535d14610422578063abb7d06c146102e6578063d1dda68f14610230578063d2aa789f14610213578063dcf862001461019d578063ddca3f4314610180578063f0642315146101585763f6eeda9d14610137575f80fd5b34610154575f366003190112610154576020600554604051908152f35b5f80fd5b34610154575f366003190112610154576009546040516001600160a01b039091168152602090f35b34610154575f366003190112610154576020600454604051908152f35b34610154576020366003190112610154576004356001600160401b038111610154576101fb60046101ec60206101d961020f9536908501612192565b8160405193828580945193849201612107565b81015f81520301902001612312565b6040519182916020835260208301906122a1565b0390f35b34610154575f366003190112610154576020600b54604051908152f35b34610154575f366003190112610154576004602060018060a01b0361025a816003541633146123a8565b600954166040519283809263ced72f8760e01b82525afa9081156102db575f916102aa575b508060065560045490810180911161029657600755005b634e487b7160e01b5f52601160045260245ffd5b90506020813d82116102d3575b816102c460209383612045565b8101031261015457518161027f565b3d91506102b7565b6040513d5f823e3d90fd5b3461015457602080600319360112610154576004356001600160401b03811161015457610317903690600401612192565b60405190610416815192848181850195610332818389612107565b81015f8152030190205492600160405186818651610351818388612107565b81015f815203019020015490600260405187818751610371818388612107565b81015f81520301902001546103ef60ff60056103dd8a60036103a082898d604051938492839251928391612107565b81015f81520301902001549660048b836040518092516103c1818388612107565b81015f815203019020019a604051938492839251928391612107565b81015f81520301902001541695612312565b9260405197889788528701526040860152606085015260c0608085015260c08401906122a1565b90151560a08301520390f35b61042b366121c7565b91928195946007543403610a7d576009546006546040805163b07bcbc560e01b8152600481019190915298916020918a916001600160a01b031690829081610476604482018e612128565b30602483015203925af19788156102db575f98610a49575b508715610a0d5787947fc3c31a458b47a6df81fa50913e5e50a8d7903a95b235b5aa6b16fd81c7b05e17946105a892600554809111610a05575b50865f52600160205260405f209761055160076040519a6104e88c612029565b80546001600160a01b03168c5261050160018201612066565b60208d0152600281015460408d0152600381015460608d0152600481015460808d0152600581015460a08d015260ff60068201548d60c0838316151591015260081c16151560e08d015201612312565b503389528960208a01528460408a01528560608a01528060808a01528160a08a0152826101008a0152604051958695338752602087015260408601526060850152608084015260c060a084015260c08301906122a1565b0390a260085460065434908103916001600160a01b031690821161029657602090602460405180948193633de5599d60e11b83523060048401525af19081156102db575f916109cb575b501561015457825f52600160205260405f209060018060a01b0381511660018060a01b031983541617825560208101518051906001600160401b03821161077d576106406001850154611ff1565b601f8111610998575b50602090601f8311600114610928576101009392915f918361091d575b50508160011b915f199060031b1c19161760018401555b60408101516002840155606081015160038401556080810151600484015560a08101516005840155600683016106c560c08301511515829060ff801983541691151516179055565b60e0820151815461ff00191690151560081b61ff00161790550151805190600160401b821161077d5760078301548260078501558083106108a9575b5060206007910192015f5260205f20915f905b82821061079157856107356020878160405193828580945193849201612107565b8101600281520301902090815491600160401b83101561077d578261076191600160209501815561228c565b81549060031b9083821b915f19901b1916179055604051908152f35b634e487b7160e01b5f52604160045260245ffd5b80518051906001600160401b03821161077d576107ae8654611ff1565b601f811161086e575b50602090601f83116001146108025792826001949360209386955f926107f7575b50505f19600383901b1c191690841b1787555b01940191019092610714565b015190508b806107d8565b90865f5260205f20915f5b601f1985168110610856575083602093600196938796938794601f1981161061083e575b505050811b0187556107eb565b01515f1960f88460031b161c191690558b8080610831565b9192602060018192868501518155019401920161080d565b61089990875f5260205f20601f850160051c8101916020861061089f575b601f0160051c01906122fc565b886107b7565b909150819061088c565b600784015f5260205f20908382015b81830181106108c8575050610701565b806108d560019254611ff1565b806108e2575b50016108b8565b601f811183146108f757505f81555b896108db565b5f90828252610914601f60208420920160051c82018583016122fc565b818355556108f1565b015190508780610666565b90600185015f5260205f20915f5b601f198516811061098057509183916001936101009695601f19811610610968575b505050811b01600184015561067d565b01515f1960f88460031b161c19169055878080610958565b91926020600181928685015181550194019201610936565b6109c590600186015f5260205f20601f850160051c8101916020861061089f57601f0160051c01906122fc565b86610649565b90506020813d6020116109fd575b816109e660209383612045565b81010312610154576109f790612366565b846105f2565b3d91506109d9565b90508a6104c8565b60405162461bcd60e51b8152602060048201526014602482015273141c9bdc1bdcd85b081b9bdd0818dc99585d195960621b6044820152606490fd5b9097506020813d602011610a75575b81610a6560209383612045565b810103126101545751968861048e565b3d9150610a58565b60405162461bcd60e51b8152602060048201526012602482015271119959481c1c9a58d9481b9bdd081cd95b9d60721b6044820152606490fd5b34610154576040366003190112610154576004356001600160401b03811161015457610ae7903690600401612192565b610b036020602435928160405193828580945193849201612107565b81016002815203019020805482101561015457602091610b229161228c565b90546040519160031b1c8152f35b34610154575f366003190112610154576008546040516001600160a01b039091168152602090f35b34610154575f366003190112610154576020600654604051908152f35b3461015457602036600319011261015457610b9b60018060a01b036003541633146123a8565b600480359055005b34610154576020366003190112610154576040516004356001600160a01b03168152602090f35b34610154576020366003190112610154576004356001600160a01b038181169182900361015457610c00906003541633146123a8565b600880546001600160a01b031916919091179055005b3461015457610c24366121c7565b949290809360018060a01b038060095416906020604051809363b3f6702d60e01b82528260048301528180610c5c6024820189612128565b03915afa9182156102db575f92610f72575b5033911603610f1d576040519160ff600583519460208181870197610c9481838b612107565b81015f815203019020015416610ec557600554809111610ebb575b50610cc891602091604051938492839251928391612107565b5f9082019081520301902093845560018401556002830155600382015581516004820192600160401b821161077d578354828555808310610e4a575b50602001925f5260205f20925f905b828210610d345760058401600160ff19825416179055602060405160018152f35b80518051906001600160401b03821161077d57610d518754611ff1565b90601f91828111610e12575b506020918311600114610da65792826001949360209386955f92610d9b575b50505f19600383901b1c191690841b1788555b01950191019093610d13565b015190508a80610d7c565b90875f5260205f20915f5b601f1985168110610dfa575083602093600196938796938794601f19811610610de2575b505050811b018855610d8f565b01515f1960f88460031b161c191690558a8080610dd5565b91926020600181928685015181550194019201610db1565b610e3b90895f5260205f208480870160051c82019260208810610e41575b0160051c01906122fc565b88610d5d565b92508192610e30565b845f528260205f2091820191015b818110610e655750610d04565b80610e7260019254611ff1565b80610e7f575b5001610e58565b601f908181118414610e975750505f81555b87610e78565b610eb25f9284845260208420920160051c82018583016122fc565b81835555610e91565b9450610cc8610caf565b60405162461bcd60e51b815260206004820152602a60248201527f436f6d6d756e69747920436f6e73656e73757320506172616d657465727320616044820152691b1c9958591e481cd95d60b21b6064820152608490fd5b60405162461bcd60e51b815260206004820152602760248201527f55736572206973206e6f7420746865206f776e6572206f66207468697320636f6044820152666d6d756e69747960c81b6064820152608490fd5b9091506020813d602011610fa7575b81610f8e60209383612045565b8101031261015457518181168103610154579089610c6e565b3d9150610f81565b34610154576020366003190112610154576004356001600160401b03811161015457366023820112156101545780600401356001600160401b038111610154578101366024820111610154578160209103126101545760248101355f908152600160205260409020546001600160a01b031661102757005b60095460408051630b7b9a0160e31b81526024848101356004830152909283919082906001600160a01b03165afa9081156102db575f905f92611aab575b501561106d57005b156117255760248101355f526001602052602460405f20916110ff60076040519461109786612029565b80546001600160a01b031686526110b060018201612066565b6020870152600281015460408701526003810154606087015260048101546080870152600581015460a087015260ff6006820154818116151560c089015260081c16151560e087015201612312565b610100840152600160c0840152600160e084015201355f52600160205260405f209060018060a01b0381511660018060a01b031983541617825560208101519182516001600160401b03811161077d5761115c6001830154611ff1565b601f81116116f2575b506020601f821160011461168857819293945f9261167d575b50508160011b915f199060031b1c19161760018201555b60408201516002820155606082015160038201556080820151600482015560a08201516005820155600681016111dd60c08401511515829060ff801983541691151516179055565b60e0830151815461ff00191690151560081b61ff0016179055610100820151805190600160401b821161077d576007830154826007850155808310611609575b5060206007910192015f5260205f20915f905b8282106114fc57505050506112576020808301518160405193828580945193849201612107565b81015f81520301902060408201518155606082015160018201556080820151600282015560a08201516003820155610100820151805190600160401b821161077d576004830154826004850155808310611488575b5060200190600483015f5260205f20915f905b82821061137b5750505050600501805460ff81161561136b575b50507f31344930ea150241e9734be108a301e6dff82664e95d744e8d7ab6885674532a6020820151604083015161136660608501519260808601519561133861010060a083015192015192602060405192828480945193849201612107565b810103902096604051958695865260208601526040850152606084015260a0608084015260a08301906122a1565b0390a2005b60ff1916600117905581806112d9565b80518051906001600160401b03821161077d576113988654611ff1565b601f8111611458575b50602090601f83116001146113ec5792826001949360209386955f926113e1575b50505f19600383901b1c191690841b1787555b019401910190926112bf565b015190508b806113c2565b90865f5260205f20915f5b601f1985168110611440575083602093600196938796938794601f19811610611428575b505050811b0187556113d5565b01515f1960f88460031b161c191690558b808061141b565b919260206001819286850151815501940192016113f7565b61148290875f5260205f20601f850160051c8101916020861061089f57601f0160051c01906122fc565b886113a1565b600484015f5260205f20908382015b81830181106114a75750506112ac565b806114b460019254611ff1565b806114c1575b5001611497565b601f811183146114d657505f81555b886114ba565b5f908282526114f3601f60208420920160051c82018583016122fc565b818355556114d0565b80518051906001600160401b03821161077d576115198654611ff1565b601f81116115d9575b50602090601f831160011461156d5792826001949360209386955f92611562575b50505f19600383901b1c191690841b1787555b01940191019092611230565b015190508a80611543565b90865f5260205f20915f5b601f19851681106115c1575083602093600196938796938794601f198116106115a9575b505050811b018755611556565b01515f1960f88460031b161c191690558a808061159c565b91926020600181928685015181550194019201611578565b61160390875f5260205f20601f850160051c8101916020861061089f57601f0160051c01906122fc565b87611522565b600784015f5260205f20908382015b818301811061162857505061121d565b8061163560019254611ff1565b80611642575b5001611618565b601f8111831461165757505f81555b8861163b565b5f90828252611674601f60208420920160051c82018583016122fc565b81835555611651565b01519050848061117e565b600183015f5260205f20905f5b601f19841681106116da5750600193949583601f198116106116c2575b505050811b016001820155611195565b01515f1960f88460031b161c191690558480806116b2565b9091602060018192858a015181550193019101611695565b61171f90600184015f5260205f20601f840160051c8101916020851061089f57601f0160051c01906122fc565b84611165565b60248101355f526001602052602460405f209161174a60076040519461109786612029565b610100840152600160c08401525f60e084015201355f52600160205260405f2060018060a01b0382511660018060a01b031982541617815560208201518051906001600160401b03821161077d576117a56001840154611ff1565b601f8111611a78575b50602090601f8311600114611a0657918061010094926007945f926119fb575b50508160011b915f199060031b1c19161760018201555b60408401516002820155606084015160038201556080840151600482015560a084015160058201556006810161182d60c08601511515829060ff801983541691151516179055565b60e0850151151561ff0082549160081b169061ff00191617905501910151805190600160401b821161077d57825482845580831061198b575b50602001915f5260205f20915f905b82821061187e57005b80518051906001600160401b03821161077d5761189b8654611ff1565b601f811161195b575b50602090601f83116001146118ef5792826001949360209386955f926118e4575b50505f19600383901b1c191690841b1787555b01940191019092611875565b0151905089806118c5565b90865f5260205f20915f5b601f1985168110611943575083602093600196938796938794601f1981161061192b575b505050811b0187556118d8565b01515f1960f88460031b161c1916905589808061191e565b919260206001819286850151815501940192016118fa565b61198590875f5260205f20601f850160051c8101916020861061089f57601f0160051c01906122fc565b866118a4565b835f528260205f2091820191015b8181106119a65750611866565b806119b360019254611ff1565b806119c0575b5001611999565b601f811183146119d557505f81555b866119b9565b5f908282526119f2601f60208420920160051c82018583016122fc565b818355556119cf565b0151905086806117ce565b90600184015f5260205f20915f5b601f1985168110611a60575092610100949260019260079583601f19811610611a48575b505050811b0160018201556117e5565b01515f1960f88460031b161c19169055868080611a38565b91926020600181928685015181550194019201611a14565b611aa590600185015f5260205f20601f850160051c8101916020861061089f57601f0160051c01906122fc565b846117ae565b9150506040813d604011611aeb575b81611ac760409383612045565b8101031261015457611ae46020611add83612366565b9201612366565b9083611065565b3d9150611aba565b3461015457600319604036820112610154576001600160401b0390600435828111610154576101008160040192823603011261015457602435838111610154573660238201121561015457611b5290369060248160040135910161214d565b5060c45f910191611b638382612373565b60019491941015611c2857611b7791612373565b60021015611c2857604001359160018060a01b039081602081600a541692013516149081611c10575b5080611bf6575b611bee575b6040519160208301526020825260408201928284109084111761077d57826040521515825260406060820152603f1990611be96080820182612128565b030190f35b506001611bac565b50815f52600160205260ff600660405f2001541615611ba7565b9050825f52600160205260405f205416151584611ba0565b634e487b7160e01b5f52603260045260245ffd5b34610154576020366003190112610154576004356001600160401b038111610154576003611c7460206101d981943690600401612192565b81015f8152030190200154604051908152f35b3461015457602080600319360112610154576004356001600160401b03811161015457816101d9611cbc923690600401612192565b81016002815203019020604051908183825491828152019081925f52845f20905f5b86828210611d33578686611cf482880383612045565b60405192839281840190828552518091526040840192915f5b828110611d1c57505050500390f35b835185528695509381019392810192600101611d0d565b835485529093019260019283019201611cde565b346101545760208060031936011261015457600435906001600160401b03821161015457611d7b6060923690600401612192565b90604051916002611dd683835195818181870198611d9a81838c612107565b81015f8152030190205495600160405183818851611db9818388612107565b81015f815203019020015494604051938492839251928391612107565b81015f8152030190200154916040519384528301526040820152f35b34610154576020366003190112610154576004356001600160401b03811161015457611e2960206101d960a0933690600401612192565b81015f815203019020805490600181015490600281015460ff60056003840154930154169260405194855260208501526040840152606083015215156080820152f35b34610154576020366003190112610154576004356001600160401b0381116101545760ff6005611ea660206101d981953690600401612192565b81015f8152030190200154166040519015158152f35b34610154576020366003190112610154576004355f52600160205260405f2060018060a01b03815416611ef160018301612066565b9160ff60028201549160038101549060048101546006600583015492015492611f2c60405198899889526101008060208b0152890190612128565b9560408801526060870152608086015260a0850152818116151560c085015260081c16151560e08301520390f35b34610154575f366003190112610154576020600754604051908152f35b3461015457602036600319011261015457611f9d60018060a01b036003541633146123a8565b600435600555005b34610154576020366003190112610154576004356001600160a01b038181169182900361015457611fdb906003541633146123a8565b600980546001600160a01b031916919091179055005b90600182811c9216801561201f575b602083101461200b57565b634e487b7160e01b5f52602260045260245ffd5b91607f1691612000565b61012081019081106001600160401b0382111761077d57604052565b90601f801991011681019081106001600160401b0382111761077d57604052565b9060405191825f82549261207984611ff1565b9081845260019485811690815f146120e457506001146120a4575b50506120a292500383612045565b565b909391505f52602090815f20935f915b8183106120cc5750506120a293508201015f80612094565b855488840185015294850194879450918301916120b4565b9150506120a294506020925060ff191682840152151560051b8201015f80612094565b5f5b8381106121185750505f910152565b8181015183820152602001612109565b9060209161214181518092818552858086019101612107565b601f01601f1916010190565b9291926001600160401b03821161077d5760405191612176601f8201601f191660200184612045565b829481845281830111610154578281602093845f960137010152565b9080601f83011215610154578160206121ad9335910161214d565b90565b6001600160401b03811161077d5760051b60200190565b9060c0600319830112610154576001600160401b0360043581811161015457836121f391600401612192565b92602480359360443593606435936084359360a435928084116101545782602385011215610154578360040135612229816121b0565b946122376040519687612045565b818652602094848688019360051b8301019481861161015457808301935b86851061226757505050505050505090565b843586811161015457889161228185858594890101612192565b815201940193612255565b8054821015611c28575f5260205f2001905f90565b908082519081815260208091019281808460051b8301019501935f915b8483106122ce5750505050505090565b90919293949584806122ec600193601f198682030187528a51612128565b98019301930191949392906122be565b818110612307575050565b5f81556001016122fc565b90815461231e816121b0565b9261232c6040519485612045565b8184525f90815260208082208186015b84841061234a575050505050565b600183819261235885612066565b81520192019301929061233c565b5190811515820361015457565b903590601e198136030182121561015457018035906001600160401b03821161015457602001918160051b3603831361015457565b156123af57565b60405162461bcd60e51b81526020600482015260166024820152752737ba103a34329031b7b73a3930b1ba1037bbb732b960511b6044820152606490fdfea2646970667358221220a41dc26aca32724fcd1f1583655114432b1a768fd2d19062aace3f5bec1c3b0964736f6c63430008140033",
  "linkReferences": {},
  "deployedLinkReferences": {}
}