{
  "_format": "hh-sol-artifact-1",
  "contractName": "tgetherCommunityConsensus",
  "sourceName": "contracts/tgetherCommunityConsensus.sol",
  "abi": [
    {
      "inputs": [
        {
          "internalType": "uint256",
          "name": "_feePrice",
          "type": "uint256"
        },
        {
          "internalType": "address",
          "name": "_communityContractAddress",
          "type": "address"
        },
        {
          "internalType": "uint256",
          "name": "_communityFee",
          "type": "uint256"
        },
        {
          "internalType": "address payable",
          "name": "_feeAddress",
          "type": "address"
        }
      ],
      "stateMutability": "nonpayable",
      "type": "constructor"
    },
    {
      "anonymous": false,
      "inputs": [
        {
          "indexed": true,
          "internalType": "string",
          "name": "communityName",
          "type": "string"
        },
        {
          "indexed": false,
          "internalType": "uint256",
          "name": "numReviewsForAcceptance",
          "type": "uint256"
        },
        {
          "indexed": false,
          "internalType": "uint256",
          "name": "credsNeededForReview",
          "type": "uint256"
        },
        {
          "indexed": false,
          "internalType": "uint256",
          "name": "percentAcceptsNeeded",
          "type": "uint256"
        },
        {
          "indexed": false,
          "internalType": "uint256",
          "name": "consensusTime",
          "type": "uint256"
        },
        {
          "indexed": false,
          "internalType": "string[]",
          "name": "consensusTypes",
          "type": "string[]"
        }
      ],
      "name": "CCParamCreated",
      "type": "event"
    },
    {
      "anonymous": false,
      "inputs": [
        {
          "indexed": true,
          "internalType": "uint256",
          "name": "proposalId",
          "type": "uint256"
        },
        {
          "indexed": false,
          "internalType": "address",
          "name": "proposer",
          "type": "address"
        },
        {
          "indexed": false,
          "internalType": "uint256",
          "name": "numReviewsForAcceptance",
          "type": "uint256"
        },
        {
          "indexed": false,
          "internalType": "uint256",
          "name": "credsNeededForReview",
          "type": "uint256"
        },
        {
          "indexed": false,
          "internalType": "uint256",
          "name": "percentAcceptsNeeded",
          "type": "uint256"
        },
        {
          "indexed": false,
          "internalType": "uint256",
          "name": "consensusTime",
          "type": "uint256"
        },
        {
          "indexed": false,
          "internalType": "string[]",
          "name": "consensusTypes",
          "type": "string[]"
        }
      ],
      "name": "CCProposalCreated",
      "type": "event"
    },
    {
      "inputs": [
        {
          "internalType": "uint256",
          "name": "",
          "type": "uint256"
        }
      ],
      "name": "CommunityConsensusProposals",
      "outputs": [
        {
          "internalType": "address",
          "name": "proposer",
          "type": "address"
        },
        {
          "internalType": "string",
          "name": "communityName",
          "type": "string"
        },
        {
          "internalType": "uint256",
          "name": "numReviewsForAcceptance",
          "type": "uint256"
        },
        {
          "internalType": "uint256",
          "name": "credsNeededForReview",
          "type": "uint256"
        },
        {
          "internalType": "uint256",
          "name": "percentAcceptsNeeded",
          "type": "uint256"
        },
        {
          "internalType": "uint256",
          "name": "consensusTime",
          "type": "uint256"
        },
        {
          "internalType": "bool",
          "name": "upkeeped",
          "type": "bool"
        },
        {
          "internalType": "bool",
          "name": "passed",
          "type": "bool"
        }
      ],
      "stateMutability": "view",
      "type": "function"
    },
    {
      "inputs": [],
      "name": "CommunityContract",
      "outputs": [
        {
          "internalType": "contract tgetherCommuunitiesInterfact",
          "name": "",
          "type": "address"
        }
      ],
      "stateMutability": "view",
      "type": "function"
    },
    {
      "inputs": [
        {
          "internalType": "string",
          "name": "",
          "type": "string"
        },
        {
          "internalType": "uint256",
          "name": "",
          "type": "uint256"
        }
      ],
      "name": "ConsensusProposalArray",
      "outputs": [
        {
          "internalType": "uint256",
          "name": "",
          "type": "uint256"
        }
      ],
      "stateMutability": "view",
      "type": "function"
    },
    {
      "inputs": [
        {
          "internalType": "string",
          "name": "_communityName",
          "type": "string"
        },
        {
          "internalType": "uint256",
          "name": "_numReviewsForAcceptance",
          "type": "uint256"
        },
        {
          "internalType": "uint256",
          "name": "_credsNeededForReview",
          "type": "uint256"
        },
        {
          "internalType": "uint256",
          "name": "_percentAcceptsNeeded",
          "type": "uint256"
        },
        {
          "internalType": "uint256",
          "name": "_consensusTime",
          "type": "uint256"
        },
        {
          "internalType": "string[]",
          "name": "_consensusTypes",
          "type": "string[]"
        }
      ],
      "name": "CreateCCProposal",
      "outputs": [
        {
          "internalType": "uint256",
          "name": "",
          "type": "uint256"
        }
      ],
      "stateMutability": "payable",
      "type": "function"
    },
    {
      "inputs": [],
      "name": "UpdateTotalFee",
      "outputs": [],
      "stateMutability": "nonpayable",
      "type": "function"
    },
    {
      "inputs": [
        {
          "internalType": "bytes32",
          "name": "_address",
          "type": "bytes32"
        }
      ],
      "name": "bytes32ToAddress",
      "outputs": [
        {
          "internalType": "address",
          "name": "",
          "type": "address"
        }
      ],
      "stateMutability": "pure",
      "type": "function"
    },
    {
      "inputs": [
        {
          "components": [
            {
              "internalType": "uint256",
              "name": "index",
              "type": "uint256"
            },
            {
              "internalType": "uint256",
              "name": "timestamp",
              "type": "uint256"
            },
            {
              "internalType": "bytes32",
              "name": "txHash",
              "type": "bytes32"
            },
            {
              "internalType": "uint256",
              "name": "blockNumber",
              "type": "uint256"
            },
            {
              "internalType": "bytes32",
              "name": "blockHash",
              "type": "bytes32"
            },
            {
              "internalType": "address",
              "name": "source",
              "type": "address"
            },
            {
              "internalType": "bytes32[]",
              "name": "topics",
              "type": "bytes32[]"
            },
            {
              "internalType": "bytes",
              "name": "data",
              "type": "bytes"
            }
          ],
          "internalType": "struct Log",
          "name": "log",
          "type": "tuple"
        },
        {
          "internalType": "bytes",
          "name": "",
          "type": "bytes"
        }
      ],
      "name": "checkLog",
      "outputs": [
        {
          "internalType": "bool",
          "name": "upkeepNeeded",
          "type": "bool"
        },
        {
          "internalType": "bytes",
          "name": "performData",
          "type": "bytes"
        }
      ],
      "stateMutability": "view",
      "type": "function"
    },
    {
      "inputs": [
        {
          "internalType": "string",
          "name": "",
          "type": "string"
        }
      ],
      "name": "communityConsensus",
      "outputs": [
        {
          "internalType": "uint256",
          "name": "numReviewsForAcceptance",
          "type": "uint256"
        },
        {
          "internalType": "uint256",
          "name": "credsNeededForReview",
          "type": "uint256"
        },
        {
          "internalType": "uint256",
          "name": "percentAcceptsNeeded",
          "type": "uint256"
        },
        {
          "internalType": "uint256",
          "name": "consensusTime",
          "type": "uint256"
        },
        {
          "internalType": "bool",
          "name": "isSet",
          "type": "bool"
        }
      ],
      "stateMutability": "view",
      "type": "function"
    },
    {
      "inputs": [],
      "name": "communityFee",
      "outputs": [
        {
          "internalType": "uint256",
          "name": "",
          "type": "uint256"
        }
      ],
      "stateMutability": "view",
      "type": "function"
    },
    {
      "inputs": [],
      "name": "fee",
      "outputs": [
        {
          "internalType": "uint256",
          "name": "",
          "type": "uint256"
        }
      ],
      "stateMutability": "view",
      "type": "function"
    },
    {
      "inputs": [],
      "name": "feeAddress",
      "outputs": [
        {
          "internalType": "address payable",
          "name": "",
          "type": "address"
        }
      ],
      "stateMutability": "view",
      "type": "function"
    },
    {
      "inputs": [
        {
          "internalType": "string",
          "name": "_communityName",
          "type": "string"
        }
      ],
      "name": "getCCParams",
      "outputs": [
        {
          "internalType": "uint256",
          "name": "_numReviewsForAcceptance",
          "type": "uint256"
        },
        {
          "internalType": "uint256",
          "name": "_credsNeededForReview",
          "type": "uint256"
        },
        {
          "internalType": "uint256",
          "name": "_percentAcceptsNeeded",
          "type": "uint256"
        },
        {
          "internalType": "uint256",
          "name": "_consensusTime",
          "type": "uint256"
        },
        {
          "internalType": "string[]",
          "name": "_consensusTypes",
          "type": "string[]"
        },
        {
          "internalType": "bool",
          "name": "_isSet",
          "type": "bool"
        }
      ],
      "stateMutability": "view",
      "type": "function"
    },
    {
      "inputs": [
        {
          "internalType": "string",
          "name": "_communityName",
          "type": "string"
        }
      ],
      "name": "getCCParamsExist",
      "outputs": [
        {
          "internalType": "bool",
          "name": "_isSet",
          "type": "bool"
        }
      ],
      "stateMutability": "view",
      "type": "function"
    },
    {
      "inputs": [
        {
          "internalType": "string",
          "name": "_communityName",
          "type": "string"
        }
      ],
      "name": "getCommunityConsensousTime",
      "outputs": [
        {
          "internalType": "uint256",
          "name": "",
          "type": "uint256"
        }
      ],
      "stateMutability": "view",
      "type": "function"
    },
    {
      "inputs": [
        {
          "internalType": "string",
          "name": "_communityName",
          "type": "string"
        }
      ],
      "name": "getCommunityConsensousTypes",
      "outputs": [
        {
          "internalType": "string[]",
          "name": "consensusTypes",
          "type": "string[]"
        }
      ],
      "stateMutability": "view",
      "type": "function"
    },
    {
      "inputs": [
        {
          "internalType": "string",
          "name": "_communityName",
          "type": "string"
        }
      ],
      "name": "getCommunityReviewParams",
      "outputs": [
        {
          "internalType": "uint256",
          "name": "numReviewsForAcceptance",
          "type": "uint256"
        },
        {
          "internalType": "uint256",
          "name": "credsNeededForReview",
          "type": "uint256"
        },
        {
          "internalType": "uint256",
          "name": "percentAcceptsNeeded",
          "type": "uint256"
        }
      ],
      "stateMutability": "view",
      "type": "function"
    },
    {
      "inputs": [
        {
          "internalType": "string",
          "name": "_communityName",
          "type": "string"
        }
      ],
      "name": "getConsensusProposalArray",
      "outputs": [
        {
          "internalType": "uint256[]",
          "name": "",
          "type": "uint256[]"
        }
      ],
      "stateMutability": "view",
      "type": "function"
    },
    {
      "inputs": [],
      "name": "maxConsensusTime",
      "outputs": [
        {
          "internalType": "uint256",
          "name": "",
          "type": "uint256"
        }
      ],
      "stateMutability": "view",
      "type": "function"
    },
    {
      "inputs": [
        {
          "internalType": "bytes",
          "name": "_performData",
          "type": "bytes"
        }
      ],
      "name": "performUpkeep",
      "outputs": [],
      "stateMutability": "nonpayable",
      "type": "function"
    },
    {
      "inputs": [
        {
          "internalType": "string",
          "name": "_communityName",
          "type": "string"
        },
        {
          "internalType": "uint256",
          "name": "_numReviewsForAcceptance",
          "type": "uint256"
        },
        {
          "internalType": "uint256",
          "name": "_credsNeededForReview",
          "type": "uint256"
        },
        {
          "internalType": "uint256",
          "name": "_percentAcceptsNeeded",
          "type": "uint256"
        },
        {
          "internalType": "uint256",
          "name": "_consensusTime",
          "type": "uint256"
        },
        {
          "internalType": "string[]",
          "name": "_consensusTypes",
          "type": "string[]"
        }
      ],
      "name": "setCCParams",
      "outputs": [
        {
          "internalType": "bool",
          "name": "",
          "type": "bool"
        }
      ],
      "stateMutability": "nonpayable",
      "type": "function"
    },
    {
      "inputs": [
        {
          "internalType": "uint256",
          "name": "_feePrice",
          "type": "uint256"
        }
      ],
      "name": "setFee",
      "outputs": [],
      "stateMutability": "nonpayable",
      "type": "function"
    },
    {
      "inputs": [
        {
          "internalType": "address payable",
          "name": "_feeAddress",
          "type": "address"
        }
      ],
      "name": "setFeeAddress",
      "outputs": [],
      "stateMutability": "nonpayable",
      "type": "function"
    },
    {
      "inputs": [
        {
          "internalType": "uint256",
          "name": "_mrt",
          "type": "uint256"
        }
      ],
      "name": "setMaxConsensusTime",
      "outputs": [],
      "stateMutability": "nonpayable",
      "type": "function"
    },
    {
      "inputs": [
        {
          "internalType": "address",
          "name": "_contractAddress",
          "type": "address"
        }
      ],
      "name": "settgetherCommunityContract",
      "outputs": [],
      "stateMutability": "nonpayable",
      "type": "function"
    },
    {
      "inputs": [],
      "name": "totalFee",
      "outputs": [
        {
          "internalType": "uint256",
          "name": "",
          "type": "uint256"
        }
      ],
      "stateMutability": "view",
      "type": "function"
    },
    {
      "inputs": [],
      "name": "upkeepId",
      "outputs": [
        {
          "internalType": "uint256",
          "name": "",
          "type": "uint256"
        }
      ],
      "stateMutability": "view",
      "type": "function"
    }
  ],
  "bytecode": "0x6080346100de57601f6200253038819003918201601f19168301916001600160401b038311848410176100e2578084926080946040528339810103126100de57805160208201519091906001600160a01b0390818116908190036100de57606060408401519301519182168092036100de5760018060a01b0319903082600a541617600a55338260035416176003558160095416176009556008541617600855816004558060065581018091116100ca57600755627864506005556040516124399081620000f78239f35b634e487b7160e01b5f52601160045260245ffd5b5f80fd5b634e487b7160e01b5f52604160045260245ffdfe60806040526004361015610011575f80fd5b5f3560e01c806304189d0b14611faf57806313a292ee14611f815780631df4ccfc14611f645780631e6a248814611ec657806324c9db2f14611e765780632627bc1e14611dfc5780632691798914611d515780632dc5f3d714611c915780633bebe05114611c4657806340691db414611afd5780634127535814611ad55780634585e33b14610f915780634e2413e814610bf85780635ced058e14610bd157806369fe0e2d14610ba35780638705fcd414610b575780638961be6b14610b3a57806394977f7414610ac1578063a804535d14610422578063abb7d06c146102e6578063d1dda68f14610230578063d2aa789f14610213578063dcf862001461019d578063ddca3f4314610180578063f0642315146101585763f6eeda9d14610137575f80fd5b34610154575f366003190112610154576020600554604051908152f35b5f80fd5b34610154575f366003190112610154576009546040516001600160a01b039091168152602090f35b34610154575f366003190112610154576020600454604051908152f35b34610154576020366003190112610154576004356001600160401b038111610154576101fb60046101ec60206101d961020f95369085016121a8565b8160405193828580945193849201612111565b81015f81520301902001612328565b6040519182916020835260208301906122b7565b0390f35b34610154575f366003190112610154576020600b54604051908152f35b34610154575f366003190112610154576004602060018060a01b0361025a816003541633146123be565b600954166040519283809263ced72f8760e01b82525afa9081156102db575f916102aa575b508060065560045490810180911161029657600755005b634e487b7160e01b5f52601160045260245ffd5b90506020813d82116102d3575b816102c46020938361204f565b8101031261015457518161027f565b3d91506102b7565b6040513d5f823e3d90fd5b3461015457602080600319360112610154576004356001600160401b038111610154576103179036906004016121a8565b60405190610416815192848181850195610332818389612111565b81015f8152030190205492600160405186818651610351818388612111565b81015f815203019020015490600260405187818751610371818388612111565b81015f81520301902001546103ef60ff60056103dd8a60036103a082898d604051938492839251928391612111565b81015f81520301902001549660048b836040518092516103c1818388612111565b81015f815203019020019a604051938492839251928391612111565b81015f81520301902001541695612328565b9260405197889788528701526040860152606085015260c0608085015260c08401906122b7565b90151560a08301520390f35b61042b366121dd565b91928195946007543403610a87576009546006546040805163b07bcbc560e01b8152600481019190915298916020918a916001600160a01b031690829081610476604482018e612132565b30602483015203925af19788156102db575f98610a53575b508715610a175787947fc3c31a458b47a6df81fa50913e5e50a8d7903a95b235b5aa6b16fd81c7b05e17946105a892600554809111610a0f575b50865f52600160205260405f209761055160076040519a6104e88c612033565b80546001600160a01b03168c5261050160018201612070565b60208d0152600281015460408d0152600381015460608d0152600481015460808d0152600581015460a08d015260ff60068201548d60c0838316151591015260081c16151560e08d015201612328565b503389528960208a01528460408a01528560608a01528060808a01528160a08a0152826101008a0152604051958695338752602087015260408601526060850152608084015260c060a084015260c08301906122b7565b0390a260085460065434908103916001600160a01b0316908211610296575f80809381935af13d15610a0a573d6105de81612157565b906105ec604051928361204f565b81525f60203d92013e5b156109ce57825f52600160205260405f209060018060a01b0381511660018060a01b031983541617825560208101518051906001600160401b038211610780576106436001850154611ffb565b601f811161099b575b50602090601f831160011461092b576101009392915f9183610920575b50508160011b915f199060031b1c19161760018401555b60408101516002840155606081015160038401556080810151600484015560a08101516005840155600683016106c860c08301511515829060ff801983541691151516179055565b60e0820151815461ff00191690151560081b61ff00161790550151805190600160401b82116107805760078301548260078501558083106108ac575b5060206007910192015f5260205f20915f905b82821061079457856107386020878160405193828580945193849201612111565b8101600281520301902090815491600160401b83101561078057826107649160016020950181556122a2565b81549060031b9083821b915f19901b1916179055604051908152f35b634e487b7160e01b5f52604160045260245ffd5b80518051906001600160401b038211610780576107b18654611ffb565b601f8111610871575b50602090601f83116001146108055792826001949360209386955f926107fa575b50505f19600383901b1c191690841b1787555b01940191019092610717565b015190508b806107db565b90865f5260205f20915f5b601f1985168110610859575083602093600196938796938794601f19811610610841575b505050811b0187556107ee565b01515f1960f88460031b161c191690558b8080610834565b91926020600181928685015181550194019201610810565b61089c90875f5260205f20601f850160051c810191602086106108a2575b601f0160051c0190612312565b886107ba565b909150819061088f565b600784015f5260205f20908382015b81830181106108cb575050610704565b806108d860019254611ffb565b806108e5575b50016108bb565b601f811183146108fa57505f81555b896108de565b5f90828252610917601f60208420920160051c8201858301612312565b818355556108f4565b015190508780610669565b90600185015f5260205f20915f5b601f198516811061098357509183916001936101009695601f1981161061096b575b505050811b016001840155610680565b01515f1960f88460031b161c1916905587808061095b565b91926020600181928685015181550194019201610939565b6109c890600186015f5260205f20601f850160051c810191602086106108a257601f0160051c0190612312565b8661064c565b60405162461bcd60e51b81526020600482015260146024820152732330b4b632b2103a379039b2b7321022ba3432b960611b6044820152606490fd5b6105f6565b90508a6104c8565b60405162461bcd60e51b8152602060048201526014602482015273141c9bdc1bdcd85b081b9bdd0818dc99585d195960621b6044820152606490fd5b9097506020813d602011610a7f575b81610a6f6020938361204f565b810103126101545751968861048e565b3d9150610a62565b60405162461bcd60e51b8152602060048201526012602482015271119959481c1c9a58d9481b9bdd081cd95b9d60721b6044820152606490fd5b34610154576040366003190112610154576004356001600160401b03811161015457610af19036906004016121a8565b610b0d6020602435928160405193828580945193849201612111565b81016002815203019020805482101561015457602091610b2c916122a2565b90546040519160031b1c8152f35b34610154575f366003190112610154576020600654604051908152f35b34610154576020366003190112610154576004356001600160a01b038181169182900361015457610b8d906003541633146123be565b600880546001600160a01b031916919091179055005b3461015457602036600319011261015457610bc960018060a01b036003541633146123be565b600480359055005b34610154576020366003190112610154576040516004356001600160a01b03168152602090f35b3461015457610c06366121dd565b949290809360018060a01b038060095416906020604051809363b3f6702d60e01b82528260048301528180610c3e6024820189612132565b03915afa9182156102db575f92610f54575b5033911603610eff576040519160ff600583519460208181870197610c7681838b612111565b81015f815203019020015416610ea757600554809111610e9d575b50610caa91602091604051938492839251928391612111565b5f9082019081520301902093845560018401556002830155600382015581516004820192600160401b8211610780578354828555808310610e2c575b50602001925f5260205f20925f905b828210610d165760058401600160ff19825416179055602060405160018152f35b80518051906001600160401b03821161078057610d338754611ffb565b90601f91828111610df4575b506020918311600114610d885792826001949360209386955f92610d7d575b50505f19600383901b1c191690841b1788555b01950191019093610cf5565b015190508a80610d5e565b90875f5260205f20915f5b601f1985168110610ddc575083602093600196938796938794601f19811610610dc4575b505050811b018855610d71565b01515f1960f88460031b161c191690558a8080610db7565b91926020600181928685015181550194019201610d93565b610e1d90895f5260205f208480870160051c82019260208810610e23575b0160051c0190612312565b88610d3f565b92508192610e12565b845f528260205f2091820191015b818110610e475750610ce6565b80610e5460019254611ffb565b80610e61575b5001610e3a565b601f908181118414610e795750505f81555b87610e5a565b610e945f9284845260208420920160051c8201858301612312565b81835555610e73565b9450610caa610c91565b60405162461bcd60e51b815260206004820152602a60248201527f436f6d6d756e69747920436f6e73656e73757320506172616d657465727320616044820152691b1c9958591e481cd95d60b21b6064820152608490fd5b60405162461bcd60e51b815260206004820152602760248201527f55736572206973206e6f7420746865206f776e6572206f66207468697320636f6044820152666d6d756e69747960c81b6064820152608490fd5b9091506020813d602011610f89575b81610f706020938361204f565b8101031261015457518181168103610154579089610c50565b3d9150610f63565b34610154576020366003190112610154576004356001600160401b03811161015457366023820112156101545780600401356001600160401b038111610154578101366024820111610154578160209103126101545760248101355f908152600160205260409020546001600160a01b031661100957005b60095460408051630b7b9a0160e31b81526024848101356004830152909283919082906001600160a01b03165afa9081156102db575f905f92611a8d575b501561104f57005b156117075760248101355f526001602052602460405f20916110e160076040519461107986612033565b80546001600160a01b0316865261109260018201612070565b6020870152600281015460408701526003810154606087015260048101546080870152600581015460a087015260ff6006820154818116151560c089015260081c16151560e087015201612328565b610100840152600160c0840152600160e084015201355f52600160205260405f209060018060a01b0381511660018060a01b031983541617825560208101519182516001600160401b0381116107805761113e6001830154611ffb565b601f81116116d4575b506020601f821160011461166a57819293945f9261165f575b50508160011b915f199060031b1c19161760018201555b60408201516002820155606082015160038201556080820151600482015560a08201516005820155600681016111bf60c08401511515829060ff801983541691151516179055565b60e0830151815461ff00191690151560081b61ff0016179055610100820151805190600160401b82116107805760078301548260078501558083106115eb575b5060206007910192015f5260205f20915f905b8282106114de57505050506112396020808301518160405193828580945193849201612111565b81015f81520301902060408201518155606082015160018201556080820151600282015560a08201516003820155610100820151805190600160401b821161078057600483015482600485015580831061146a575b5060200190600483015f5260205f20915f905b82821061135d5750505050600501805460ff81161561134d575b50507f31344930ea150241e9734be108a301e6dff82664e95d744e8d7ab6885674532a6020820151604083015161134860608501519260808601519561131a61010060a083015192015192602060405192828480945193849201612111565b810103902096604051958695865260208601526040850152606084015260a0608084015260a08301906122b7565b0390a2005b60ff1916600117905581806112bb565b80518051906001600160401b0382116107805761137a8654611ffb565b601f811161143a575b50602090601f83116001146113ce5792826001949360209386955f926113c3575b50505f19600383901b1c191690841b1787555b019401910190926112a1565b015190508b806113a4565b90865f5260205f20915f5b601f1985168110611422575083602093600196938796938794601f1981161061140a575b505050811b0187556113b7565b01515f1960f88460031b161c191690558b80806113fd565b919260206001819286850151815501940192016113d9565b61146490875f5260205f20601f850160051c810191602086106108a257601f0160051c0190612312565b88611383565b600484015f5260205f20908382015b818301811061148957505061128e565b8061149660019254611ffb565b806114a3575b5001611479565b601f811183146114b857505f81555b8861149c565b5f908282526114d5601f60208420920160051c8201858301612312565b818355556114b2565b80518051906001600160401b038211610780576114fb8654611ffb565b601f81116115bb575b50602090601f831160011461154f5792826001949360209386955f92611544575b50505f19600383901b1c191690841b1787555b01940191019092611212565b015190508a80611525565b90865f5260205f20915f5b601f19851681106115a3575083602093600196938796938794601f1981161061158b575b505050811b018755611538565b01515f1960f88460031b161c191690558a808061157e565b9192602060018192868501518155019401920161155a565b6115e590875f5260205f20601f850160051c810191602086106108a257601f0160051c0190612312565b87611504565b600784015f5260205f20908382015b818301811061160a5750506111ff565b8061161760019254611ffb565b80611624575b50016115fa565b601f8111831461163957505f81555b8861161d565b5f90828252611656601f60208420920160051c8201858301612312565b81835555611633565b015190508480611160565b600183015f5260205f20905f5b601f19841681106116bc5750600193949583601f198116106116a4575b505050811b016001820155611177565b01515f1960f88460031b161c19169055848080611694565b9091602060018192858a015181550193019101611677565b61170190600184015f5260205f20601f840160051c810191602085106108a257601f0160051c0190612312565b84611147565b60248101355f526001602052602460405f209161172c60076040519461107986612033565b610100840152600160c08401525f60e084015201355f52600160205260405f2060018060a01b0382511660018060a01b031982541617815560208201518051906001600160401b038211610780576117876001840154611ffb565b601f8111611a5a575b50602090601f83116001146119e857918061010094926007945f926119dd575b50508160011b915f199060031b1c19161760018201555b60408401516002820155606084015160038201556080840151600482015560a084015160058201556006810161180f60c08601511515829060ff801983541691151516179055565b60e0850151151561ff0082549160081b169061ff00191617905501910151805190600160401b821161078057825482845580831061196d575b50602001915f5260205f20915f905b82821061186057005b80518051906001600160401b0382116107805761187d8654611ffb565b601f811161193d575b50602090601f83116001146118d15792826001949360209386955f926118c6575b50505f19600383901b1c191690841b1787555b01940191019092611857565b0151905089806118a7565b90865f5260205f20915f5b601f1985168110611925575083602093600196938796938794601f1981161061190d575b505050811b0187556118ba565b01515f1960f88460031b161c19169055898080611900565b919260206001819286850151815501940192016118dc565b61196790875f5260205f20601f850160051c810191602086106108a257601f0160051c0190612312565b86611886565b835f528260205f2091820191015b8181106119885750611848565b8061199560019254611ffb565b806119a2575b500161197b565b601f811183146119b757505f81555b8661199b565b5f908282526119d4601f60208420920160051c8201858301612312565b818355556119b1565b0151905086806117b0565b90600184015f5260205f20915f5b601f1985168110611a42575092610100949260019260079583601f19811610611a2a575b505050811b0160018201556117c7565b01515f1960f88460031b161c19169055868080611a1a565b919260206001819286850151815501940192016119f6565b611a8790600185015f5260205f20601f850160051c810191602086106108a257601f0160051c0190612312565b84611790565b9150506040813d604011611acd575b81611aa96040938361204f565b8101031261015457611ac66020611abf836123b1565b92016123b1565b9083611047565b3d9150611a9c565b34610154575f366003190112610154576008546040516001600160a01b039091168152602090f35b3461015457600319604036820112610154576001600160401b0390600435828111610154576101008160040192823603011261015457602435838111610154573660238201121561015457611b5c903690602481600401359101612172565b5060c45f910191611b6d838261237c565b60019491941015611c3257611b819161237c565b60021015611c3257604001359160018060a01b039081602081600a541692013516149081611c1a575b5080611c00575b611bf8575b6040519160208301526020825260408201928284109084111761078057826040521515825260406060820152603f1990611bf36080820182612132565b030190f35b506001611bb6565b50815f52600160205260ff600660405f2001541615611bb1565b9050825f52600160205260405f205416151584611baa565b634e487b7160e01b5f52603260045260245ffd5b34610154576020366003190112610154576004356001600160401b038111610154576003611c7e60206101d9819436906004016121a8565b81015f8152030190200154604051908152f35b3461015457602080600319360112610154576004356001600160401b03811161015457816101d9611cc69236906004016121a8565b81016002815203019020604051908183825491828152019081925f52845f20905f5b86828210611d3d578686611cfe8288038361204f565b60405192839281840190828552518091526040840192915f5b828110611d2657505050500390f35b835185528695509381019392810192600101611d17565b835485529093019260019283019201611ce8565b346101545760208060031936011261015457600435906001600160401b03821161015457611d8560609236906004016121a8565b90604051916002611de083835195818181870198611da481838c612111565b81015f8152030190205495600160405183818851611dc3818388612111565b81015f815203019020015494604051938492839251928391612111565b81015f8152030190200154916040519384528301526040820152f35b34610154576020366003190112610154576004356001600160401b03811161015457611e3360206101d960a09336906004016121a8565b81015f815203019020805490600181015490600281015460ff60056003840154930154169260405194855260208501526040840152606083015215156080820152f35b34610154576020366003190112610154576004356001600160401b0381116101545760ff6005611eb060206101d9819536906004016121a8565b81015f8152030190200154166040519015158152f35b34610154576020366003190112610154576004355f52600160205260405f2060018060a01b03815416611efb60018301612070565b9160ff60028201549160038101549060048101546006600583015492015492611f3660405198899889526101008060208b0152890190612132565b9560408801526060870152608086015260a0850152818116151560c085015260081c16151560e08301520390f35b34610154575f366003190112610154576020600754604051908152f35b3461015457602036600319011261015457611fa760018060a01b036003541633146123be565b600435600555005b34610154576020366003190112610154576004356001600160a01b038181169182900361015457611fe5906003541633146123be565b600980546001600160a01b031916919091179055005b90600182811c92168015612029575b602083101461201557565b634e487b7160e01b5f52602260045260245ffd5b91607f169161200a565b61012081019081106001600160401b0382111761078057604052565b90601f801991011681019081106001600160401b0382111761078057604052565b9060405191825f82549261208384611ffb565b9081845260019485811690815f146120ee57506001146120ae575b50506120ac9250038361204f565b565b909391505f52602090815f20935f915b8183106120d65750506120ac93508201015f8061209e565b855488840185015294850194879450918301916120be565b9150506120ac94506020925060ff191682840152151560051b8201015f8061209e565b5f5b8381106121225750505f910152565b8181015183820152602001612113565b9060209161214b81518092818552858086019101612111565b601f01601f1916010190565b6001600160401b03811161078057601f01601f191660200190565b92919261217e82612157565b9161218c604051938461204f565b829481845281830111610154578281602093845f960137010152565b9080601f83011215610154578160206121c393359101612172565b90565b6001600160401b0381116107805760051b60200190565b9060c0600319830112610154576001600160401b036004358181116101545783612209916004016121a8565b92602480359360443593606435936084359360a43592808411610154578260238501121561015457836004013561223f816121c6565b9461224d604051968761204f565b818652602094848688019360051b8301019481861161015457808301935b86851061227d57505050505050505090565b8435868111610154578891612297858585948901016121a8565b81520194019361226b565b8054821015611c32575f5260205f2001905f90565b908082519081815260208091019281808460051b8301019501935f915b8483106122e45750505050505090565b9091929394958480612302600193601f198682030187528a51612132565b98019301930191949392906122d4565b81811061231d575050565b5f8155600101612312565b908154612334816121c6565b92612342604051948561204f565b8184525f90815260208082208186015b848410612360575050505050565b600183819261236e85612070565b815201920193019290612352565b903590601e198136030182121561015457018035906001600160401b03821161015457602001918160051b3603831361015457565b5190811515820361015457565b156123c557565b60405162461bcd60e51b81526020600482015260166024820152752737ba103a34329031b7b73a3930b1ba1037bbb732b960511b6044820152606490fdfea2646970667358221220d841b619aaf317b2307b68ae4e4ddf81733e6b584456440e62434a70b474abf964736f6c63430008140033",
  "linkReferences": {},
  "deployedLinkReferences": {}
}