{
  "_format": "hh-sol-artifact-1",
  "contractName": "learntgetherPosts",
  "sourceName": "contracts/learntgehterPosts.sol",
  "abi": [
    {
      "inputs": [],
      "stateMutability": "nonpayable",
      "type": "constructor"
    },
    {
      "anonymous": false,
      "inputs": [
        {
          "indexed": true,
          "internalType": "address",
          "name": "owner",
          "type": "address"
        },
        {
          "indexed": true,
          "internalType": "address",
          "name": "approved",
          "type": "address"
        },
        {
          "indexed": true,
          "internalType": "uint256",
          "name": "tokenId",
          "type": "uint256"
        }
      ],
      "name": "Approval",
      "type": "event"
    },
    {
      "anonymous": false,
      "inputs": [
        {
          "indexed": true,
          "internalType": "address",
          "name": "owner",
          "type": "address"
        },
        {
          "indexed": true,
          "internalType": "address",
          "name": "operator",
          "type": "address"
        },
        {
          "indexed": false,
          "internalType": "bool",
          "name": "approved",
          "type": "bool"
        }
      ],
      "name": "ApprovalForAll",
      "type": "event"
    },
    {
      "anonymous": false,
      "inputs": [
        {
          "indexed": false,
          "internalType": "uint256",
          "name": "postId",
          "type": "uint256"
        },
        {
          "indexed": false,
          "internalType": "string",
          "name": "keyword",
          "type": "string"
        }
      ],
      "name": "Keywords",
      "type": "event"
    },
    {
      "anonymous": false,
      "inputs": [
        {
          "indexed": true,
          "internalType": "uint256",
          "name": "postId",
          "type": "uint256"
        },
        {
          "indexed": false,
          "internalType": "string",
          "name": "content",
          "type": "string"
        },
        {
          "indexed": false,
          "internalType": "string",
          "name": "title",
          "type": "string"
        },
        {
          "indexed": false,
          "internalType": "string",
          "name": "description",
          "type": "string"
        }
      ],
      "name": "PostInfo",
      "type": "event"
    },
    {
      "anonymous": false,
      "inputs": [
        {
          "indexed": true,
          "internalType": "uint256",
          "name": "postId",
          "type": "uint256"
        },
        {
          "indexed": true,
          "internalType": "address",
          "name": "authorAddress",
          "type": "address"
        },
        {
          "indexed": false,
          "internalType": "string",
          "name": "authorName",
          "type": "string"
        }
      ],
      "name": "PostMintedTo",
      "type": "event"
    },
    {
      "anonymous": false,
      "inputs": [
        {
          "indexed": true,
          "internalType": "address",
          "name": "from",
          "type": "address"
        },
        {
          "indexed": true,
          "internalType": "address",
          "name": "to",
          "type": "address"
        },
        {
          "indexed": true,
          "internalType": "uint256",
          "name": "tokenId",
          "type": "uint256"
        }
      ],
      "name": "Transfer",
      "type": "event"
    },
    {
      "inputs": [
        {
          "internalType": "uint256",
          "name": "_postId",
          "type": "uint256"
        },
        {
          "internalType": "string",
          "name": "_keyword",
          "type": "string"
        }
      ],
      "name": "addKeyword",
      "outputs": [],
      "stateMutability": "nonpayable",
      "type": "function"
    },
    {
      "inputs": [
        {
          "internalType": "address",
          "name": "to",
          "type": "address"
        },
        {
          "internalType": "uint256",
          "name": "tokenId",
          "type": "uint256"
        }
      ],
      "name": "approve",
      "outputs": [],
      "stateMutability": "nonpayable",
      "type": "function"
    },
    {
      "inputs": [
        {
          "internalType": "address",
          "name": "owner",
          "type": "address"
        }
      ],
      "name": "balanceOf",
      "outputs": [
        {
          "internalType": "uint256",
          "name": "",
          "type": "uint256"
        }
      ],
      "stateMutability": "view",
      "type": "function"
    },
    {
      "inputs": [],
      "name": "consensusAddress",
      "outputs": [
        {
          "internalType": "address",
          "name": "",
          "type": "address"
        }
      ],
      "stateMutability": "view",
      "type": "function"
    },
    {
      "inputs": [
        {
          "internalType": "uint256",
          "name": "tokenId",
          "type": "uint256"
        }
      ],
      "name": "getApproved",
      "outputs": [
        {
          "internalType": "address",
          "name": "",
          "type": "address"
        }
      ],
      "stateMutability": "view",
      "type": "function"
    },
    {
      "inputs": [
        {
          "internalType": "uint256",
          "name": "_postId",
          "type": "uint256"
        }
      ],
      "name": "getPost",
      "outputs": [
        {
          "components": [
            {
              "internalType": "string",
              "name": "content",
              "type": "string"
            },
            {
              "internalType": "string",
              "name": "title",
              "type": "string"
            },
            {
              "internalType": "address",
              "name": "authorAddress",
              "type": "address"
            },
            {
              "internalType": "string",
              "name": "authorName",
              "type": "string"
            },
            {
              "internalType": "string",
              "name": "description",
              "type": "string"
            }
          ],
          "internalType": "struct learntgetherPosts.Post",
          "name": "",
          "type": "tuple"
        }
      ],
      "stateMutability": "view",
      "type": "function"
    },
    {
      "inputs": [
        {
          "internalType": "uint256",
          "name": "_postId",
          "type": "uint256"
        }
      ],
      "name": "getPostExists",
      "outputs": [
        {
          "internalType": "bool",
          "name": "",
          "type": "bool"
        }
      ],
      "stateMutability": "view",
      "type": "function"
    },
    {
      "inputs": [],
      "name": "incrementToken",
      "outputs": [],
      "stateMutability": "nonpayable",
      "type": "function"
    },
    {
      "inputs": [
        {
          "internalType": "address",
          "name": "owner",
          "type": "address"
        },
        {
          "internalType": "address",
          "name": "operator",
          "type": "address"
        }
      ],
      "name": "isApprovedForAll",
      "outputs": [
        {
          "internalType": "bool",
          "name": "",
          "type": "bool"
        }
      ],
      "stateMutability": "view",
      "type": "function"
    },
    {
      "inputs": [
        {
          "internalType": "string",
          "name": "_content",
          "type": "string"
        },
        {
          "internalType": "string",
          "name": "_title",
          "type": "string"
        },
        {
          "internalType": "string",
          "name": "_authorName",
          "type": "string"
        },
        {
          "internalType": "string",
          "name": "_description",
          "type": "string"
        }
      ],
      "name": "mintPost",
      "outputs": [
        {
          "internalType": "uint256",
          "name": "",
          "type": "uint256"
        }
      ],
      "stateMutability": "nonpayable",
      "type": "function"
    },
    {
      "inputs": [],
      "name": "name",
      "outputs": [
        {
          "internalType": "string",
          "name": "",
          "type": "string"
        }
      ],
      "stateMutability": "view",
      "type": "function"
    },
    {
      "inputs": [],
      "name": "owner",
      "outputs": [
        {
          "internalType": "address",
          "name": "",
          "type": "address"
        }
      ],
      "stateMutability": "view",
      "type": "function"
    },
    {
      "inputs": [
        {
          "internalType": "uint256",
          "name": "tokenId",
          "type": "uint256"
        }
      ],
      "name": "ownerOf",
      "outputs": [
        {
          "internalType": "address",
          "name": "",
          "type": "address"
        }
      ],
      "stateMutability": "view",
      "type": "function"
    },
    {
      "inputs": [
        {
          "internalType": "uint256",
          "name": "",
          "type": "uint256"
        }
      ],
      "name": "posts",
      "outputs": [
        {
          "internalType": "string",
          "name": "content",
          "type": "string"
        },
        {
          "internalType": "string",
          "name": "title",
          "type": "string"
        },
        {
          "internalType": "address",
          "name": "authorAddress",
          "type": "address"
        },
        {
          "internalType": "string",
          "name": "authorName",
          "type": "string"
        },
        {
          "internalType": "string",
          "name": "description",
          "type": "string"
        }
      ],
      "stateMutability": "view",
      "type": "function"
    },
    {
      "inputs": [
        {
          "internalType": "address",
          "name": "from",
          "type": "address"
        },
        {
          "internalType": "address",
          "name": "to",
          "type": "address"
        },
        {
          "internalType": "uint256",
          "name": "tokenId",
          "type": "uint256"
        }
      ],
      "name": "safeTransferFrom",
      "outputs": [],
      "stateMutability": "nonpayable",
      "type": "function"
    },
    {
      "inputs": [
        {
          "internalType": "address",
          "name": "from",
          "type": "address"
        },
        {
          "internalType": "address",
          "name": "to",
          "type": "address"
        },
        {
          "internalType": "uint256",
          "name": "tokenId",
          "type": "uint256"
        },
        {
          "internalType": "bytes",
          "name": "_data",
          "type": "bytes"
        }
      ],
      "name": "safeTransferFrom",
      "outputs": [],
      "stateMutability": "nonpayable",
      "type": "function"
    },
    {
      "inputs": [
        {
          "internalType": "address",
          "name": "operator",
          "type": "address"
        },
        {
          "internalType": "bool",
          "name": "approved",
          "type": "bool"
        }
      ],
      "name": "setApprovalForAll",
      "outputs": [],
      "stateMutability": "nonpayable",
      "type": "function"
    },
    {
      "inputs": [
        {
          "internalType": "address",
          "name": "_v2ContractAddress",
          "type": "address"
        }
      ],
      "name": "setV2ContractAddress",
      "outputs": [],
      "stateMutability": "nonpayable",
      "type": "function"
    },
    {
      "inputs": [
        {
          "internalType": "bytes4",
          "name": "interfaceId",
          "type": "bytes4"
        }
      ],
      "name": "supportsInterface",
      "outputs": [
        {
          "internalType": "bool",
          "name": "",
          "type": "bool"
        }
      ],
      "stateMutability": "view",
      "type": "function"
    },
    {
      "inputs": [],
      "name": "symbol",
      "outputs": [
        {
          "internalType": "string",
          "name": "",
          "type": "string"
        }
      ],
      "stateMutability": "view",
      "type": "function"
    },
    {
      "inputs": [
        {
          "internalType": "uint256",
          "name": "index",
          "type": "uint256"
        }
      ],
      "name": "tokenByIndex",
      "outputs": [
        {
          "internalType": "uint256",
          "name": "",
          "type": "uint256"
        }
      ],
      "stateMutability": "view",
      "type": "function"
    },
    {
      "inputs": [
        {
          "internalType": "address",
          "name": "owner",
          "type": "address"
        },
        {
          "internalType": "uint256",
          "name": "index",
          "type": "uint256"
        }
      ],
      "name": "tokenOfOwnerByIndex",
      "outputs": [
        {
          "internalType": "uint256",
          "name": "",
          "type": "uint256"
        }
      ],
      "stateMutability": "view",
      "type": "function"
    },
    {
      "inputs": [
        {
          "internalType": "uint256",
          "name": "tokenId",
          "type": "uint256"
        }
      ],
      "name": "tokenURI",
      "outputs": [
        {
          "internalType": "string",
          "name": "",
          "type": "string"
        }
      ],
      "stateMutability": "view",
      "type": "function"
    },
    {
      "inputs": [],
      "name": "totalSupply",
      "outputs": [
        {
          "internalType": "uint256",
          "name": "",
          "type": "uint256"
        }
      ],
      "stateMutability": "view",
      "type": "function"
    },
    {
      "inputs": [
        {
          "internalType": "address",
          "name": "from",
          "type": "address"
        },
        {
          "internalType": "address",
          "name": "to",
          "type": "address"
        },
        {
          "internalType": "uint256",
          "name": "tokenId",
          "type": "uint256"
        }
      ],
      "name": "transferFrom",
      "outputs": [],
      "stateMutability": "nonpayable",
      "type": "function"
    },
    {
      "inputs": [
        {
          "internalType": "uint256",
          "name": "_tokenId",
          "type": "uint256"
        }
      ],
      "name": "transferNFTsToV2",
      "outputs": [],
      "stateMutability": "nonpayable",
      "type": "function"
    },
    {
      "inputs": [
        {
          "internalType": "address",
          "name": "to",
          "type": "address"
        },
        {
          "internalType": "uint256",
          "name": "tokenId",
          "type": "uint256"
        }
      ],
      "name": "transferToken",
      "outputs": [],
      "stateMutability": "nonpayable",
      "type": "function"
    },
    {
      "inputs": [],
      "name": "v2ContractAddress",
      "outputs": [
        {
          "internalType": "address",
          "name": "",
          "type": "address"
        }
      ],
      "stateMutability": "view",
      "type": "function"
    }
  ],
  "bytecode": "0x60803462000325576001600160401b0390604090808201838111828210176200031157825260118152602092704c6561726e74676574686572506f73747360781b848301528251838101818110838211176200031157845260038152624c544760e81b8582015282519082821162000311575f8054926001958685811c9516801562000306575b89861014620002f2578190601f958681116200029f575b5089908683116001146200023c57849262000230575b50505f19600383901b1c191690861b1781555b81519384116200021c5784548581811c9116801562000211575b88821014620001fd57838111620001b5575b5086928411600114620001505783949596509262000144575b50505f19600383901b1c191690821b1781555b3360018060a01b0319600c541617600c55600a5401600a55516123ff90816200032a8239f35b015190505f806200010b565b9190601f1984169685845280842093905b8882106200019d575050838596971062000184575b505050811b0181556200011e565b01515f1960f88460031b161c191690555f808062000176565b80878596829496860151815501950193019062000161565b8582528782208480870160051c8201928a8810620001f3575b0160051c019086905b828110620001e7575050620000f2565b838155018690620001d7565b92508192620001ce565b634e487b7160e01b82526022600452602482fd5b90607f1690620000e0565b634e487b7160e01b81526041600452602490fd5b015190505f80620000b3565b8480528a85208994509190601f198416865b8d8282106200028857505084116200026f575b505050811b018155620000c6565b01515f1960f88460031b161c191690555f808062000261565b8385015186558c979095019493840193016200024e565b9091508380528984208680850160051c8201928c8610620002e8575b918a91869594930160051c01915b828110620002d95750506200009d565b8681558594508a9101620002c9565b92508192620002bb565b634e487b7160e01b83526022600452602483fd5b94607f169462000086565b634e487b7160e01b5f52604160045260245ffd5b5f80fdfe60806040526004361015610011575f80fd5b5f3560e01c806301ffc9a7146101d457806306fdde03146101cf578063081812fc146101ca578063095ea7b3146101c55780630b1e7f83146101c05780631072cbea146101bb57806318160ddd146101b657806323b872dd146101b15780632f745c59146101ac578063336c1ad7146101a757806340731c24146101a257806342842e0e1461019d5780634f6ccce7146101985780636352211e146101935780636a0204291461018e57806370a08231146101895780637b4f6d92146101845780637d67e9671461017f5780638da5cb5b1461017a57806395d89b4114610175578063a22cb46514610170578063ae54e32b1461016b578063b225500c14610166578063b88d4fde14610161578063c87b56dd1461015c578063d242d34e14610157578063e985e9c5146101525763f6a800ee1461014d575f80fd5b611174565b611118565b611080565b610f98565b610f39565b610f11565b610ee9565b610e05565b610d77565b610d4f565b610cbd565b610c09565b610bde565b610bb6565b610b98565b610aee565b610ac7565b610a19565b61088e565b6107dc565b6107b3565b610761565b6106ce565b610622565b6103ed565b610391565b6102d1565b6101ef565b6001600160e01b03198116036101eb57565b5f80fd5b346101eb5760203660031901126101eb57602060043561020e816101d9565b63ffffffff60e01b1663780e9d6360e01b8114908115610234575b506040519015158152f35b6380ac58cd60e01b811491508115610266575b8115610255575b505f610229565b6301ffc9a760e01b1490505f61024e565b635b5e139f60e01b81149150610247565b5f5b8381106102885750505f910152565b8181015183820152602001610279565b906020916102b181518092818552858086019101610277565b601f01601f1916010190565b9060206102ce928181520190610298565b90565b346101eb575f8060031936011261038e576040518180546102f1816104d9565b80845290600190818116908115610366575060011461032b575b6103278461031b81880382610560565b604051918291826102bd565b0390f35b93508180526020938483205b82841061035357505050816103279361031b928201019361030b565b8054858501870152928501928101610337565b610327965061031b9450602092508593915060ff191682840152151560051b8201019361030b565b80fd5b346101eb5760203660031901126101eb5760206103af600435611327565b6040516001600160a01b039091168152f35b600435906001600160a01b03821682036101eb57565b602435906001600160a01b03821682036101eb57565b346101eb5760403660031901126101eb576104066103c1565b6024356104128161121a565b916001600160a01b03808416908216811461048a576104449361043f913314908115610446575b506112ba565b6117ea565b005b6001600160a01b03165f908152600560205260409020610484915061047d9033905b9060018060a01b03165f5260205260405f2090565b5460ff1690565b5f610439565b60405162461bcd60e51b815260206004820152602160248201527f4552433732313a20617070726f76616c20746f2063757272656e74206f776e656044820152603960f91b6064820152608490fd5b90600182811c92168015610507575b60208310146104f357565b634e487b7160e01b5f52602260045260245ffd5b91607f16916104e8565b634e487b7160e01b5f52604160045260245ffd5b60a081019081106001600160401b0382111761054057604052565b610511565b602081019081106001600160401b0382111761054057604052565b90601f801991011681019081106001600160401b0382111761054057604052565b9060405191825f825492610594846104d9565b9081845260019485811690815f146105ff57506001146105bf575b50506105bd92500383610560565b565b909391505f52602090815f20935f915b8183106105e75750506105bd93508201015f806105af565b855488840185015294850194879450918301916105cf565b9150506105bd94506020925060ff191682840152151560051b8201015f806105af565b346101eb5760203660031901126101eb576004355f52600b60205261069f60405f2061032761065082610581565b916106c061066060018301610581565b9160018060a01b03600282015416906106ad61068a600461068360038501610581565b9301610581565b9460405198899860a08a5260a08a0190610298565b9088820360208a0152610298565b9160408701528582036060870152610298565b908382036080850152610298565b346101eb5760403660031901126101eb576106e76103c1565b6024356106f38161121a565b336001600160a01b039091160361070e576104449133611657565b60405162461bcd60e51b815260206004820152602560248201527f4f6e6c7920746865206f776e65722063616e207472616e7366657220746865206044820152643a37b5b2b760d91b6064820152608490fd5b346101eb575f3660031901126101eb576020600854604051908152f35b60609060031901126101eb576001600160a01b039060043582811681036101eb579160243590811681036101eb579060443590565b346101eb576104446107c43661077e565b916107d76107d284336114d3565b6113b7565b611657565b346101eb5760403660031901126101eb576107f56103c1565b60243590610802816111a4565b821015610835576001600160a01b03165f9081526006602090815260408083209383529281529082902054915191825290f35b60405162461bcd60e51b815260206004820152602b60248201527f455243373231456e756d657261626c653a206f776e657220696e646578206f7560448201526a74206f6620626f756e647360a81b6064820152608490fd5b346101eb5760203660031901126101eb57600d54600435906020906001600160a01b0316916108dc6001600160a01b036108cb818616151561230b565b6108d48361121a565b1633146121f7565b610901816108fa6108f5825f52600b60205260405f2090565b612243565b943361141d565b600d5461092490610918906001600160a01b031681565b6001600160a01b031690565b60408401516001600160a01b03165f60608601519361096686880151976080815191015190604051998a98899788966306b72f8f60e11b88526004880161236c565b03925af1801561099d5761097657005b6104449060203d8111610996575b61098e8183610560565b810190612357565b503d610984565b6118bc565b906102ce91602081526109c1825160a0602084015260c0830190610298565b9060a06080610a096109e5602087015195601f199687878303016040880152610298565b600180851b0360408801511660608601526060870151868683030184870152610298565b9401519282850301910152610298565b346101eb5760203660031901126101eb57610327608060408051610a3c81610525565b60609281848093528260208201525f84820152828082015201526004355f52600b602052610ab86004825f20835194610a7486610525565b610a7d82610581565b8652610a8b60018301610581565b602087015260028201546001600160a01b031685870152610aae60038301610581565b9086015201610581565b608083015251918291826109a2565b346101eb57610444610ad83661077e565b9060405192610ae684610545565b5f8452611430565b346101eb5760203660031901126101eb57600435600854811015610b3e5760085f527ff3f7a9fe364faab93b216da50a3214154f22a0a2b415b23a84c8169e8b636ee30154604051908152602090f35b60405162461bcd60e51b815260206004820152602c60248201527f455243373231456e756d657261626c653a20676c6f62616c20696e646578206f60448201526b7574206f6620626f756e647360a01b6064820152608490fd5b346101eb5760203660031901126101eb5760206103af60043561121a565b346101eb575f3660031901126101eb57600d546040516001600160a01b039091168152602090f35b346101eb5760203660031901126101eb576020610c01610bfc6103c1565b6111a4565b604051908152f35b346101eb5760203660031901126101eb57610c226103c1565b600c546001600160a01b039190610c3c90831633146122c4565b1660018060a01b0319600d541617600d555f80f35b6001600160401b03811161054057601f01601f191660200190565b929192610c7882610c51565b91610c866040519384610560565b8294818452818301116101eb578281602093845f960137010152565b9080601f830112156101eb578160206102ce93359101610c6c565b346101eb5760403660031901126101eb576024356004356001600160401b0382116101eb57610d117f0b290e01b548ae78ace76449298ed234c42194d80af9f7dfe02fc4f7de07b9d3923690600401610ca2565b90610d2e610d1e8261121a565b6001600160a01b031633146121f7565b610d4a6040519283928352604060208401526040830190610298565b0390a1005b346101eb575f3660031901126101eb57600c546040516001600160a01b039091168152602090f35b346101eb575f8060031936011261038e57604051816001805490610d9a826104d9565b808552918181169081156103665750600114610dc0576103278461031b81880382610560565b80945082526020938483205b828410610de857505050816103279361031b928201019361030b565b8054858501870152928501928101610dcc565b801515036101eb57565b346101eb5760403660031901126101eb57610e1e6103c1565b602435610e2a81610dfb565b6001600160a01b03821691338314610ea85781610e65610e7692335f52600560205260405f209060018060a01b03165f5260205260405f2090565b9060ff801983541691151516179055565b604051901515815233907f17307eab39ab6107e8899845ad3d59bd9653f200f220920489ca2b5937696c3190602090a3005b60405162461bcd60e51b815260206004820152601960248201527822a9219b99189d1030b8383937bb32903a379031b0b63632b960391b6044820152606490fd5b346101eb575f3660031901126101eb57600e546040516001600160a01b039091168152602090f35b346101eb5760203660031901126101eb576020610f2f6004356122a4565b6040519015158152f35b346101eb5760803660031901126101eb57610f526103c1565b610f5a6103d7565b606435916001600160401b0383116101eb57366023840112156101eb57610f8e610444933690602481600401359101610c6c565b9160443591611430565b346101eb5760203660031901126101eb576004355f818152600260205260409020546001600160a01b03161561102357610fd0611291565b8051156110115761031b610ffd91611003610fed61032795611cb6565b60405194859360208501906112a3565b906112a3565b03601f198101835282610560565b505061032761101e611291565b61031b565b60405162461bcd60e51b815260206004820152602f60248201527f4552433732314d657461646174613a2055524920717565727920666f72206e6f60448201526e3732bc34b9ba32b73a103a37b5b2b760891b6064820152608490fd5b346101eb5760803660031901126101eb576001600160401b036004358181116101eb576110b1903690600401610ca2565b906024358181116101eb576110ca903690600401610ca2565b916044358281116101eb576110e3903690600401610ca2565b6064359283116101eb5761032793611102611108943690600401610ca2565b92611ff3565b6040519081529081906020820190565b346101eb5760403660031901126101eb57602060ff6111686111386103c1565b6111406103d7565b6001600160a01b039182165f9081526005865260408082209290931681526020919091522090565b54166040519015158152f35b346101eb575f3660031901126101eb5761119960018060a01b03600c541633146122c4565b600a80546001019055005b6001600160a01b031680156111c2575f52600360205260405f205490565b60405162461bcd60e51b815260206004820152602a60248201527f4552433732313a2062616c616e636520717565727920666f7220746865207a65604482015269726f206164647265737360b01b6064820152608490fd5b5f908152600260205260409020546001600160a01b0316801561123a5790565b60405162461bcd60e51b815260206004820152602960248201527f4552433732313a206f776e657220717565727920666f72206e6f6e657869737460448201526832b73a103a37b5b2b760b91b6064820152608490fd5b6040519061129e82610545565b5f8252565b906112b660209282815194859201610277565b0190565b156112c157565b60405162461bcd60e51b815260206004820152603860248201527f4552433732313a20617070726f76652063616c6c6572206973206e6f74206f776044820152771b995c881b9bdc88185c1c1c9bdd995908199bdc88185b1b60421b6064820152608490fd5b5f818152600260205260409020546001600160a01b03161561135d575f908152600460205260409020546001600160a01b031690565b60405162461bcd60e51b815260206004820152602c60248201527f4552433732313a20617070726f76656420717565727920666f72206e6f6e657860448201526b34b9ba32b73a103a37b5b2b760a11b6064820152608490fd5b156113be57565b60405162461bcd60e51b815260206004820152603160248201527f4552433732313a207472616e736665722063616c6c6572206973206e6f74206f6044820152701ddb995c881b9bdc88185c1c1c9bdd9959607a1b6064820152608490fd5b90916105bd9260405192610ae684610545565b916105bd9391611457936114476107d284336114d3565b611452838383611657565b6119b5565b6114af565b60809060208152603260208201527f4552433732313a207472616e7366657220746f206e6f6e20455243373231526560408201527131b2b4bb32b91034b6b83632b6b2b73a32b960711b60608201520190565b156114b657565b60405162461bcd60e51b8152806114cf6004820161145c565b0390fd5b5f828152600260205260409020546001600160a01b031615611562576114f88261121a565b6001600160a01b03828116828216811494909190851561154a575b505050821561152157505090565b6001600160a01b03165f90815260056020526040902060ff92506115459190610468565b541690565b6115579192939550611327565b1614915f8080611513565b60405162461bcd60e51b815260206004820152602c60248201527f4552433732313a206f70657261746f7220717565727920666f72206e6f6e657860448201526b34b9ba32b73a103a37b5b2b760a11b6064820152608490fd5b156115c357565b60405162461bcd60e51b8152602060048201526024808201527f4552433732313a207472616e7366657220746f20746865207a65726f206164646044820152637265737360e01b6064820152608490fd5b634e487b7160e01b5f52601160045260245ffd5b5f1981019190821161163657565b611614565b906001820180921161163657565b603001908160301161163657565b906116618361121a565b6001600160a01b038381169290918216839003611740576116ba61171a9282169461168d8615156115bc565b611698878483611a2f565b6116a187611797565b6001600160a01b03165f90815260036020526040902090565b6116c48154611628565b90556001600160a01b0381165f9081526003602052604090206116e7815461163b565b90556116fb855f52600260205260405f2090565b80546001600160a01b0319166001600160a01b03909216919091179055565b7fddf252ad1be2c89b69c2b068fc378daa952ba7f163c4a11628f55a4df523b3ef5f80a4565b60405162461bcd60e51b815260206004820152602960248201527f4552433732313a207472616e73666572206f6620746f6b656e2074686174206960448201526839903737ba1037bbb760b91b6064820152608490fd5b5f81815260046020526040812080546001600160a01b03191690556001600160a01b036117c38361121a565b167f8c5be1e5ebec7d5bd14f71427d1e84f3dd0314c0f7b2291e5b200ac8c7c3b9258280a4565b5f82815260046020526040902080546001600160a01b0319166001600160a01b0383161790556001600160a01b03806118228461121a565b169116907f8c5be1e5ebec7d5bd14f71427d1e84f3dd0314c0f7b2291e5b200ac8c7c3b9255f80a4565b908160209103126101eb57516102ce816101d9565b6102ce939260809260018060a01b031682525f602083015260408201528160608201520190610298565b6001600160a01b0391821681529116602082015260408101919091526080606082018190526102ce92910190610298565b6040513d5f823e3d90fd5b3d156118f1573d906118d882610c51565b916118e66040519384610560565b82523d5f602084013e565b606090565b909190803b156119ad576119276020915f93604051948580948193630a85bd0160e11b998a84523360048501611861565b03926001600160a01b03165af15f918161197d575b5061196f576119496118c7565b8051908161196a5760405162461bcd60e51b8152806114cf6004820161145c565b602001fd5b6001600160e01b0319161490565b61199f91925060203d81116119a6575b6119978183610560565b81019061184c565b905f61193c565b503d61198d565b505050600190565b92909190823b156119e757611927926020925f604051809681958294630a85bd0160e11b9a8b8552336004860161188b565b50505050600190565b634e487b7160e01b5f52603260045260245ffd5b90611a0e81611b73565b6001600160a01b038216611a26576105bd9150611bcd565b6105bd91611b3c565b9091906001600160a01b038082169182611a695750611a4d83611b73565b831680611a605750506105bd9150611bcd565b03611a26575050565b8185168303611a79575b50611a4d565b611a82816111a4565b5f19810190811161163657611ae690611ad95f9387855260076020526040852054838103611aed575b5084611abf895f52600760205260405f2090565b556001600160a01b03165f90815260066020526040902090565b905f5260205260405f2090565b555f611a73565b878652600660205260408620848752602052611b35604087205480611b2684611ad98760018060a01b03165f52600660205260405f2090565b555f52600760205260405f2090565b555f611aab565b604090611b48816111a4565b925f9160018060a01b0316825260066020528282208483526020528083832055815260076020522055565b600854815f5260096020528060405f2055600160401b811015610540576001810180600855811015611bc85760085f527ff3f7a9fe364faab93b216da50a3214154f22a0a2b415b23a84c8169e8b636ee30155565b6119f0565b600880545f19929083810190808211611636575f928084526009602052816040852054931015611bc85784845285826020862001015491831015611bc8578392611c2d611c3c9387865280836020882001555f52600960205260405f2090565b555f52600960205260405f2090565b558154928315611c5f578084019380851015611bc8578383526020832001015555565b634e487b7160e01b82526031600452602482fd5b90611c7d82610c51565b611c8a6040519182610560565b8281528092611c9b601f1991610c51565b0190602036910137565b908151811015611bc8570160200190565b8015611d40575f818181805b611d255750611cd081611c73565b935b611cdc5750505090565b611ce590611628565b90600a90611d10611d00611cfa848406611649565b60ff1690565b60f81b6001600160f81b03191690565b841a611d1c8487611ca5565b53049081611cd2565b91505f198114611636576001600a9101910480849291611cc2565b50604051604081018181106001600160401b038211176105405760405260018152600360fc1b602082015290565b90601f8111611d7c57505050565b5f91825260208220906020601f850160051c83019410611db7575b601f0160051c01915b828110611dac57505050565b818155600101611da0565b9092508290611d97565b91909182516001600160401b03811161054057611de881611de284546104d9565b84611d6e565b602080601f8311600114611e225750819293945f92611e17575b50508160011b915f199060031b1c1916179055565b015190505f80611e02565b90601f19831695611e36855f5260205f2090565b925f905b888210611e7157505083600195969710611e59575b505050811b019055565b01515f1960f88460031b161c191690555f8080611e4f565b80600185968294968601518155019501930190611e3a565b91909182519283516001600160401b03811161054057611eb381611ead85546104d9565b85611d6e565b6020948590601f8311600114611f46576105bd95968360809460049694611efb945f92611f3b575b50508160011b915f199060031b1c19161786555b82015160018601611dc1565b60408101516002850180546001600160a01b0319166001600160a01b03909216919091179055611f32606082015160038601611dc1565b01519101611dc1565b015190505f80611edb565b90601f19831691611f5a865f5260205f2090565b925f5b818110611fa557508460049694611efb946105bd9a9b9460809860019510611f8d575b505050811b018655611eef565b01515f1960f88460031b161c191690555f8080611f80565b929389600181928786015181550195019301611f5d565b91611fe590611fd76102ce9593606086526060860190610298565b908482036020860152610298565b916040818403910152610298565b909192600a5493604090815161200881610525565b8481528560208201523383820152816060820152836080820152825161202d81610545565b5f81523315612168579261216292612125899896936121006114577f41d9ee46553ca41d124afede342bf442c55b026baacc09a8e03e44ac6a05fae09a9861209761209261208e8f5f52600260205260018060a01b0360405f205416151590565b1590565b6121ab565b6120a18d33611a04565b335f9081526003602052604090206120b9815461163b565b90556120d28d6116fb33915f52600260205260405f2090565b8c335f7fddf252ad1be2c89b69c2b068fc378daa952ba7f163c4a11628f55a4df523b3ef8180a48c336118f6565b61210e6001600a5401600a55565b6121208a5f52600b60205260405f2090565b611e89565b877ff186850512b83bbf0f335f7c800bedbe0614ce9d5dbf664fd16bb7a2ef97683a8351806121553395826102bd565b0390a35193849384611fbc565b0390a290565b6064845162461bcd60e51b815260206004820152602060248201527f4552433732313a206d696e7420746f20746865207a65726f20616464726573736044820152fd5b156121b257565b60405162461bcd60e51b815260206004820152601c60248201527f4552433732313a20746f6b656e20616c7265616479206d696e746564000000006044820152606490fd5b156121fe57565b60405162461bcd60e51b815260206004820152601a60248201527f4e6f7420746865206f776e6572206f662074686520746f6b656e0000000000006044820152606490fd5b9060405161225081610525565b608061229f6004839561226281610581565b855261227060018201610581565b602086015260028101546001600160a01b0316604086015261229460038201610581565b606086015201610581565b910152565b6001600160a01b03906122b69061121a565b166122bf575f90565b600190565b156122cb57565b60405162461bcd60e51b815260206004820152601860248201527702737ba103a34329031b7b73a3930b1ba1037bbb732b910360451b6044820152606490fd5b1561231257565b60405162461bcd60e51b815260206004820152601b60248201527f563220636f6e74726163742061646472657373206e6f742073657400000000006044820152606490fd5b908160209103126101eb57516102ce81610dfb565b94919361239f6123bb946102ce98966123ad94895260018060a01b0316602089015260c0604089015260c0880190610298565b908682036060880152610298565b908482036080860152610298565b9160a081840391015261029856fea2646970667358221220dfd866f39fba6cab7820ced2401256e5497f5c8b2856db5dd33fb1c56036618f64736f6c63430008140033",
  "linkReferences": {},
  "deployedLinkReferences": {}
}