{
  "_format": "hh-sol-artifact-1",
  "contractName": "tgetherIncentives",
  "sourceName": "contracts/tgetherIncentives.sol",
  "abi": [
    {
      "inputs": [
        {
          "internalType": "uint256",
          "name": "_feePrice",
          "type": "uint256"
        },
        {
          "internalType": "address",
          "name": "_communityContractAddress",
          "type": "address"
        },
        {
          "internalType": "uint256",
          "name": "_communityFee",
          "type": "uint256"
        },
        {
          "internalType": "address",
          "name": "_fundContract",
          "type": "address"
        }
      ],
      "stateMutability": "nonpayable",
      "type": "constructor"
    },
    {
      "anonymous": false,
      "inputs": [
        {
          "indexed": false,
          "internalType": "uint256",
          "name": "porposalId",
          "type": "uint256"
        },
        {
          "indexed": false,
          "internalType": "address",
          "name": "proposer",
          "type": "address"
        },
        {
          "indexed": false,
          "internalType": "string",
          "name": "communityName",
          "type": "string"
        },
        {
          "indexed": false,
          "internalType": "enum tgetherIncentives.IncentiveStructure",
          "name": "structure",
          "type": "uint8"
        },
        {
          "indexed": false,
          "internalType": "uint256",
          "name": "communityFee",
          "type": "uint256"
        },
        {
          "indexed": false,
          "internalType": "address payable",
          "name": "contractRecieveAddress",
          "type": "address"
        }
      ],
      "name": "IncentiveProposalCreated",
      "type": "event"
    },
    {
      "anonymous": false,
      "inputs": [
        {
          "indexed": false,
          "internalType": "string",
          "name": "communityName",
          "type": "string"
        },
        {
          "indexed": false,
          "internalType": "enum tgetherIncentives.IncentiveStructure",
          "name": "structure",
          "type": "uint8"
        },
        {
          "indexed": false,
          "internalType": "uint256",
          "name": "communityFee",
          "type": "uint256"
        },
        {
          "indexed": false,
          "internalType": "address payable",
          "name": "contractRecieveAddress",
          "type": "address"
        }
      ],
      "name": "IncentiveStructureSet",
      "type": "event"
    },
    {
      "anonymous": false,
      "inputs": [
        {
          "indexed": false,
          "internalType": "string",
          "name": "communityName",
          "type": "string"
        },
        {
          "indexed": false,
          "internalType": "enum tgetherIncentives.IncentiveStructure",
          "name": "structure",
          "type": "uint8"
        },
        {
          "indexed": false,
          "internalType": "uint256",
          "name": "communityFee",
          "type": "uint256"
        },
        {
          "indexed": false,
          "internalType": "address payable",
          "name": "contractRecieveAddress",
          "type": "address"
        }
      ],
      "name": "IncetniveParamsUpdated",
      "type": "event"
    },
    {
      "inputs": [],
      "name": "CommunityContract",
      "outputs": [
        {
          "internalType": "contract tgetherCommuunitiesInterfact",
          "name": "",
          "type": "address"
        }
      ],
      "stateMutability": "view",
      "type": "function"
    },
    {
      "inputs": [
        {
          "internalType": "uint256",
          "name": "",
          "type": "uint256"
        }
      ],
      "name": "ContractParameterKeys",
      "outputs": [
        {
          "internalType": "string",
          "name": "",
          "type": "string"
        }
      ],
      "stateMutability": "view",
      "type": "function"
    },
    {
      "inputs": [],
      "name": "FundContract",
      "outputs": [
        {
          "internalType": "contract tgetherFundInterface",
          "name": "",
          "type": "address"
        }
      ],
      "stateMutability": "view",
      "type": "function"
    },
    {
      "inputs": [
        {
          "internalType": "uint256",
          "name": "",
          "type": "uint256"
        }
      ],
      "name": "IncentiveProposals",
      "outputs": [
        {
          "internalType": "address",
          "name": "proposer",
          "type": "address"
        },
        {
          "internalType": "string",
          "name": "communityName",
          "type": "string"
        },
        {
          "internalType": "enum tgetherIncentives.IncentiveStructure",
          "name": "structure",
          "type": "uint8"
        },
        {
          "internalType": "uint256",
          "name": "communityFee",
          "type": "uint256"
        },
        {
          "internalType": "address payable",
          "name": "contractRecieveAddress",
          "type": "address"
        },
        {
          "internalType": "bool",
          "name": "upkeeped",
          "type": "bool"
        },
        {
          "internalType": "bool",
          "name": "passed",
          "type": "bool"
        }
      ],
      "stateMutability": "view",
      "type": "function"
    },
    {
      "inputs": [
        {
          "internalType": "string",
          "name": "",
          "type": "string"
        }
      ],
      "name": "IncentiveStructures",
      "outputs": [
        {
          "internalType": "enum tgetherIncentives.IncentiveStructure",
          "name": "structure",
          "type": "uint8"
        },
        {
          "internalType": "uint256",
          "name": "communityFee",
          "type": "uint256"
        },
        {
          "internalType": "address payable",
          "name": "contractRecieveAddress",
          "type": "address"
        },
        {
          "internalType": "bool",
          "name": "isSet",
          "type": "bool"
        }
      ],
      "stateMutability": "view",
      "type": "function"
    },
    {
      "inputs": [],
      "name": "TGcommunitiesFee",
      "outputs": [
        {
          "internalType": "uint256",
          "name": "",
          "type": "uint256"
        }
      ],
      "stateMutability": "view",
      "type": "function"
    },
    {
      "inputs": [],
      "name": "UpdateTotalFee",
      "outputs": [],
      "stateMutability": "nonpayable",
      "type": "function"
    },
    {
      "inputs": [
        {
          "internalType": "bytes32",
          "name": "_address",
          "type": "bytes32"
        }
      ],
      "name": "bytes32ToAddress",
      "outputs": [
        {
          "internalType": "address",
          "name": "",
          "type": "address"
        }
      ],
      "stateMutability": "pure",
      "type": "function"
    },
    {
      "inputs": [
        {
          "components": [
            {
              "internalType": "uint256",
              "name": "index",
              "type": "uint256"
            },
            {
              "internalType": "uint256",
              "name": "timestamp",
              "type": "uint256"
            },
            {
              "internalType": "bytes32",
              "name": "txHash",
              "type": "bytes32"
            },
            {
              "internalType": "uint256",
              "name": "blockNumber",
              "type": "uint256"
            },
            {
              "internalType": "bytes32",
              "name": "blockHash",
              "type": "bytes32"
            },
            {
              "internalType": "address",
              "name": "source",
              "type": "address"
            },
            {
              "internalType": "bytes32[]",
              "name": "topics",
              "type": "bytes32[]"
            },
            {
              "internalType": "bytes",
              "name": "data",
              "type": "bytes"
            }
          ],
          "internalType": "struct Log",
          "name": "log",
          "type": "tuple"
        },
        {
          "internalType": "bytes",
          "name": "",
          "type": "bytes"
        }
      ],
      "name": "checkLog",
      "outputs": [
        {
          "internalType": "bool",
          "name": "upkeepNeeded",
          "type": "bool"
        },
        {
          "internalType": "bytes",
          "name": "performData",
          "type": "bytes"
        }
      ],
      "stateMutability": "view",
      "type": "function"
    },
    {
      "inputs": [
        {
          "internalType": "string",
          "name": "_communityName",
          "type": "string"
        },
        {
          "internalType": "enum tgetherIncentives.IncentiveStructure",
          "name": "_structure",
          "type": "uint8"
        },
        {
          "internalType": "uint256",
          "name": "_communityFee",
          "type": "uint256"
        },
        {
          "internalType": "address payable",
          "name": "_contractRecieveAddress",
          "type": "address"
        }
      ],
      "name": "createProposal",
      "outputs": [
        {
          "internalType": "uint256",
          "name": "",
          "type": "uint256"
        }
      ],
      "stateMutability": "payable",
      "type": "function"
    },
    {
      "inputs": [],
      "name": "fee",
      "outputs": [
        {
          "internalType": "uint256",
          "name": "",
          "type": "uint256"
        }
      ],
      "stateMutability": "view",
      "type": "function"
    },
    {
      "inputs": [
        {
          "internalType": "string",
          "name": "_communityName",
          "type": "string"
        }
      ],
      "name": "getCommunityFeeInfo",
      "outputs": [
        {
          "internalType": "uint256",
          "name": "_communityFee",
          "type": "uint256"
        },
        {
          "internalType": "address",
          "name": "_contractRecieveAddress",
          "type": "address"
        }
      ],
      "stateMutability": "view",
      "type": "function"
    },
    {
      "inputs": [
        {
          "internalType": "string",
          "name": "_communityName",
          "type": "string"
        }
      ],
      "name": "getIncentiveParamsExist",
      "outputs": [
        {
          "internalType": "bool",
          "name": "_isSet",
          "type": "bool"
        }
      ],
      "stateMutability": "view",
      "type": "function"
    },
    {
      "inputs": [
        {
          "internalType": "string",
          "name": "_communityName",
          "type": "string"
        }
      ],
      "name": "getInctiveStructure",
      "outputs": [
        {
          "internalType": "enum tgetherIncentives.IncentiveStructure",
          "name": "",
          "type": "uint8"
        }
      ],
      "stateMutability": "view",
      "type": "function"
    },
    {
      "inputs": [
        {
          "internalType": "string",
          "name": "_communityName",
          "type": "string"
        }
      ],
      "name": "getParams",
      "outputs": [
        {
          "internalType": "enum tgetherIncentives.IncentiveStructure",
          "name": "structure",
          "type": "uint8"
        },
        {
          "internalType": "uint256",
          "name": "_communityFee",
          "type": "uint256"
        },
        {
          "internalType": "address",
          "name": "_contractRecieveAddress",
          "type": "address"
        },
        {
          "internalType": "bool",
          "name": "_isSet",
          "type": "bool"
        }
      ],
      "stateMutability": "view",
      "type": "function"
    },
    {
      "inputs": [
        {
          "internalType": "uint256",
          "name": "_proposalId",
          "type": "uint256"
        }
      ],
      "name": "getProposal",
      "outputs": [
        {
          "components": [
            {
              "internalType": "address",
              "name": "proposer",
              "type": "address"
            },
            {
              "internalType": "string",
              "name": "communityName",
              "type": "string"
            },
            {
              "internalType": "enum tgetherIncentives.IncentiveStructure",
              "name": "structure",
              "type": "uint8"
            },
            {
              "internalType": "uint256",
              "name": "communityFee",
              "type": "uint256"
            },
            {
              "internalType": "address payable",
              "name": "contractRecieveAddress",
              "type": "address"
            },
            {
              "internalType": "bool",
              "name": "upkeeped",
              "type": "bool"
            },
            {
              "internalType": "bool",
              "name": "passed",
              "type": "bool"
            }
          ],
          "internalType": "struct tgetherIncentives.IncentiveProposal",
          "name": "",
          "type": "tuple"
        }
      ],
      "stateMutability": "view",
      "type": "function"
    },
    {
      "inputs": [
        {
          "internalType": "bytes",
          "name": "_performData",
          "type": "bytes"
        }
      ],
      "name": "performUpkeep",
      "outputs": [],
      "stateMutability": "nonpayable",
      "type": "function"
    },
    {
      "inputs": [
        {
          "internalType": "uint256",
          "name": "_feePrice",
          "type": "uint256"
        }
      ],
      "name": "setFee",
      "outputs": [],
      "stateMutability": "nonpayable",
      "type": "function"
    },
    {
      "inputs": [
        {
          "internalType": "address",
          "name": "_contract",
          "type": "address"
        }
      ],
      "name": "setFundContract",
      "outputs": [],
      "stateMutability": "nonpayable",
      "type": "function"
    },
    {
      "inputs": [
        {
          "internalType": "string",
          "name": "_communityName",
          "type": "string"
        },
        {
          "internalType": "enum tgetherIncentives.IncentiveStructure",
          "name": "_structure",
          "type": "uint8"
        },
        {
          "internalType": "uint256",
          "name": "_communityFee",
          "type": "uint256"
        },
        {
          "internalType": "address payable",
          "name": "_contractRecieveAddress",
          "type": "address"
        }
      ],
      "name": "setParams",
      "outputs": [
        {
          "internalType": "bool",
          "name": "",
          "type": "bool"
        }
      ],
      "stateMutability": "nonpayable",
      "type": "function"
    },
    {
      "inputs": [
        {
          "internalType": "address",
          "name": "_contractAddress",
          "type": "address"
        }
      ],
      "name": "settgetherCommunityContract",
      "outputs": [],
      "stateMutability": "nonpayable",
      "type": "function"
    },
    {
      "inputs": [],
      "name": "totalFee",
      "outputs": [
        {
          "internalType": "uint256",
          "name": "",
          "type": "uint256"
        }
      ],
      "stateMutability": "view",
      "type": "function"
    },
    {
      "inputs": [],
      "name": "upkeepId",
      "outputs": [
        {
          "internalType": "uint256",
          "name": "",
          "type": "uint256"
        }
      ],
      "stateMutability": "view",
      "type": "function"
    }
  ],
  "bytecode": "0x6080346200039c57601f62001e6538819003828101601f199081168501946001600160401b0393919290918487118388101762000388578160809284926040998a528339810103126200039c578051936020906200005f828401620003c0565b620000716060898601519501620003c0565b91885195608087018781108982111762000388578a5262000091620003a0565b600981526873747275637475726560b81b868201528752620000b2620003a0565b600c81526b636f6d6d756e69747946656560a01b8682015285880152620000d8620003a0565b601681527f636f6e7472616374526563696576654164647265737300000000000000000000868201528a8801526200010f620003a0565b94600595868152641a5cd4d95d60da1b8282015260608901526002549760049889600255808a106200030e575b5060025f908152828120909a89989796958c9594935b8c8710620001cf575050505050505060018060a01b031991308360095416176009553383600354161760035560018060a01b0380921683600854161760085516906007541617600755858455558301809311620001bc57505060065551611a3c9081620004298239f35b634e487b7160e01b825260119052602490fd5b809192939495969798999a5051805190848211620002fa57908e87928d620001f88954620003d5565b878111620002bf575b50508391868411600114620002565792600195928192879695926200024a575b50505f19600383901b1c191690841b1787555b0194019601949392908a99989796929162000152565b015190505f8062000221565b91908a8416898452858420935b818110620002a657509160019693918588979694106200028d575b505050831b8301875562000234565b01515f1960f88460031b161c191690555f80806200027e565b8284015185558b96600190950194938401930162000263565b620002e8918a85528685209089808801821c830193898910620002f0575b01901c019062000410565b8d5f62000201565b93508293620002dd565b50634e487b7160e01b8e5260418d5260248efd5b5f600281528a84822092830192015b8281106200032d5750506200013c565b80826200033d60019354620003d5565b806200034d575b5050016200031d565b898111841462000363575081555b825f62000344565b8282526200037e8d8b8a85209301901c820185830162000410565b818355556200035b565b634e487b7160e01b5f52604160045260245ffd5b5f80fd5b60408051919082016001600160401b038111838210176200038857604052565b51906001600160a01b03821682036200039c57565b90600182811c9216801562000405575b6020831014620003f157565b634e487b7160e01b5f52602260045260245ffd5b91607f1691620003e5565b8181106200041c575050565b5f81556001016200041056fe6080806040526004361015610012575f80fd5b5f3560e01c90816303c0b3151461169f5750806304189d0b1461165357806310dbfe24146116015780631a216bbd1461117d5780631df4ccfc1461116057806340691db4146110145780634585e33b1461099e57806359144baa146109525780635ced058e1461092b57806369fe0e2d146108fd578063701a7a1d14610812578063769d5984146107735780638ed8067e1461074b578063b169499a146106e2578063bac4cd0714610654578063c7f758a81461052a578063cc271aa3146104d7578063d1dda68f1461042c578063d2aa789f1461040f578063ddca3f43146103f2578063eae7254d146101d8578063f0642315146101b05763f284918014610119575f80fd5b346101ac5760203660031901126101ac576004356001600160401b0381116101ac576101636020610150608093369060040161173a565b81604051938285809451938492016117b7565b81015f81520301902060ff8082541691600260018201549101549061018b6040518095611758565b60208401526001600160a01b038116604084015260a01c1615156060820152f35b5f80fd5b346101ac575f3660031901126101ac576008546040516001600160a01b039091168152602090f35b346101ac576101e636611765565b60085460405163b3f6702d60e01b8152602060048201819052956001600160a01b0395949093929091908790829088168180610225602482018a6117d8565b03915afa9081156103e7575f916103b1575b50853391160361035c5760405160ff600285519289818189019561025c8183896117b7565b81015f815203019020015460a01c1661031e57918160026102b5897ffd50b4e15ec361806ddcbe1d256b1c1354ec1e795aa839a328c9e13a245498f79897966102f99661030c575b604051809381928a519283916117b7565b81015f8152030190206102c88782611922565b600181018390550180546001600160a81b03191697831697909717600160a01b17968790556040519485948561193a565b0390a160ff6040519160a01c1615158152f35b6103198b871615156118d6565b6102a4565b60405162461bcd60e51b815260048101889052601660248201527514185c985b595d195c9cc8185b1c9958591e481cd95d60521b6044820152606490fd5b60405162461bcd60e51b815260048101879052602760248201527f55736572206973206e6f7420746865206f776e6572206f66207468697320636f6044820152666d6d756e69747960c81b6064820152608490fd5b90508681813d83116103e0575b6103c881836116d4565b810103126101ac575185811681036101ac5787610237565b503d6103be565b6040513d5f823e3d90fd5b346101ac575f3660031901126101ac576020600454604051908152f35b346101ac575f3660031901126101ac576020600a54604051908152f35b346101ac575f3660031901126101ac576004602060018060a01b03610456816003541633146119c1565b600854166040519283809263ced72f8760e01b82525afa9081156103e7575f916104a6575b508060055560045490810180911161049257600655005b634e487b7160e01b5f52601160045260245ffd5b90506020813d82116104cf575b816104c0602093836116d4565b810103126101ac57518161047b565b3d91506104b3565b346101ac5760203660031901126101ac576004356001600160401b0381116101ac5760ff600261051160206101508195369060040161173a565b81015f815203019020015460a01c166040519015158152f35b346101ac576020806003193601126101ac575f60c060405161054b816116b9565b8281526060848201528260408201528260608201528260808201528260a082015201526004355f526001815260405f209060405190610589826116b9565b82546001600160a01b039081168352926105a560018201611835565b918084019283528460ff600284015416936105c4604087019586611973565b6004600385015494606088019586520154936106336106276080890193858816855260a08a019660ff8960a01c161515885260ff60c08c019960a81c16151589526040519b8c9b828d525116908b01525160e060408b01526101008a01906117d8565b96516060890190611758565b516080870152511660a085015251151560c084015251151560e08301520390f35b346101ac5760203660031901126101ac576004356001600160401b0381116101ac57610686604091369060040161173a565b815160026001835192602081818701956106a18183896117b7565b81015f8152030190200154926106be8551938492519283916117b7565b8201915f835260208160018060a01b03940301902001541682519182526020820152f35b346101ac5760203660031901126101ac576004356002548110156101ac5760025f5261074790610733907f405787fa12a823e0f2b7631cc41b3ba8828b3321ca811111fa75cd3aa3bb5ace01611835565b6040519182916020835260208301906117d8565b0390f35b346101ac575f3660031901126101ac576007546040516001600160a01b039091168152602090f35b346101ac5760203660031901126101ac576004355f52600160205260405f2060018060a01b03808254169060ff6107ac60018501611835565b93816002820154169260046003830154920154916107ea6107df604051988998895260e060208a015260e08901906117d8565b956040880190611758565b606086015281166080850152818160a01c16151560a085015260a81c16151560c08301520390f35b346101ac576020806003193601126101ac57600435906001600160401b0382116101ac57610846608092369060040161173a565b906040519160ff81519383818185019661086181838a6117b7565b81015f81520301902054169260ff60026108cf8560016040518281895161088981838c6117b7565b81015f8152030190200154946040518488516108a68184866117b7565b8201915f8352848160018060a01b039403019020015416966040519384928392519283916117b7565b81015f815203019020015460a01c16926108ec6040518096611758565b840152604083015215156060820152f35b346101ac5760203660031901126101ac5761092360018060a01b036003541633146119c1565b600480359055005b346101ac5760203660031901126101ac576040516004356001600160a01b03168152602090f35b346101ac5760203660031901126101ac576004356001600160a01b03818116918290036101ac57610988906003541633146119c1565b600780546001600160a01b031916919091179055005b346101ac5760203660031901126101ac576004356001600160401b0381116101ac57366023820112156101ac5780600401356001600160401b0381116101ac5781013660248201116101ac578160209103126101ac5760248101355f908152600160205260409020546001600160a01b0316610a1657005b60085460408051630b7b9a0160e31b81526024848101356004830152909283919082906001600160a01b03165afa9081156103e7575f905f92610fcc575b5015610a5c57005b15610d9e5760248101355f526001602052602460405f209160405192610a81846116b9565b80546001600160a01b03168452610a9a60018201611835565b6020850152610ab360ff60028301541660408601611973565b60038101546060850152600460018060a01b03910154166080840152600160a0840152600160c084015201355f52600160205260405f209060018060a01b0381511660018060a01b031983541617825560208101519182516001600160401b038111610d8a57610b2660018301546117fd565b601f8111610d46575b506020601f8211600114610cdc57819293945f92610cd1575b50508160011b915f199060031b1c19161760018201555b6040820151906002821015610cbd57610b7d60049260028301611922565b6060830151600382015560808301519101805460a08085015160c086015160ff60a81b90151560a81b166001600160b01b03199093166001600160a01b0390951694909417931515901b60ff60a01b16929092179190911790556020808201516040518151909291839190610bf7908290849086016117b7565b81015f815203019020906040810151916002831015610cbd57610c3b7fd9237f0aa8acc77de66789c96f4a41c3aeb6142849b759750d482eb1361598349382611922565b610c9c606083015180600184015560ff602060018060a01b03608087015116956002860196875490848160018060a01b0319841617808b5560a01c1615610ca1575b505001519354169360018060a01b03905416906040519485948561193a565b0390a1005b6001600160a81b031990911617600160a01b1787558880610c7d565b634e487b7160e01b5f52602160045260245ffd5b015190508480610b48565b600183015f5260205f20905f5b601f1984168110610d2e5750600193949583601f19811610610d16575b505050811b016001820155610b5f565b01515f1960f88460031b161c19169055848080610d06565b9091602060018192858a015181550193019101610ce9565b600183015f5260205f20601f830160051c810160208410610d83575b601f830160051c82018110610d78575050610b2f565b5f8155600101610d62565b5080610d62565b634e487b7160e01b5f52604160045260245ffd5b60248101355f526001602052602460405f209160405192610dbe846116b9565b80546001600160a01b03168452610dd760018201611835565b6020850152610df060ff60028301541660408601611973565b60038101546060850152600460018060a01b03910154166080840152600160a08401525f60c084015201355f52600160205260405f209060018060a01b0381511660018060a01b031983541617825560208101519182516001600160401b038111610d8a57610e6260018301546117fd565b601f8111610f88575b506020601f8211600114610f2057819293945f92610f15575b50508160011b915f199060031b1c19161760018201555b60408201516002811015610cbd5781610ebb600492600260c09501611922565b6060840151600382015560808401519101805460a080860151949095015160ff60a81b90151560a81b166001600160b01b03199091166001600160a01b039093169290921792151590931b60ff60a01b1691909117179055005b015190508480610e84565b601f19821690600184015f5260205f20915f5b818110610f7057509583600195969710610f58575b505050811b016001820155610e9b565b01515f1960f88460031b161c19169055848080610f48565b9192602060018192868b015181550194019201610f33565b600183015f5260205f20601f830160051c810160208410610fc5575b601f830160051c82018110610fba575050610e6b565b5f8155600101610fa4565b5080610fa4565b9150506040813d60401161100c575b81610fe8604093836116d4565b810103126101ac576110056020610ffe8361197f565b920161197f565b9083610a54565b3d9150610fdb565b346101ac576003196040368201126101ac576001600160401b03906004358281116101ac57610100816004019282360301126101ac576024358381116101ac57366023820112156101ac576110739036906024816004013591016116f5565b5060c45f910191611084838261198c565b6001949194101561114c576110989161198c565b6002101561114c57604001359160018060a01b0390816020816009541692013516149081611134575b5080611117575b61110f575b60405191602083015260208252604082019282841090841117610d8a57826040521515825260406060820152603f199061110a60808201826117d8565b030190f35b5060016110cd565b50815f52600160205260ff600460405f20015460a01c16156110c8565b9050825f52600160205260405f2054161515846110c1565b634e487b7160e01b5f52603260045260245ffd5b346101ac575f3660031901126101ac576020600654604051908152f35b61118636611765565b92919060065434036115cc57806115b3575b60018060a01b03600854169260206005546040519586809263b07bcbc560e01b825260406004830152816111cf60448201886117d8565b30602483015203925af19384156103e7575f9461157f575b508315611543577ffa5b4cf8647cae9211a0088685c4e4610e9464dd64cc7ad7152c4fe69e04ae34926112e592855f52600160205260405f209660ff6004604051996112328b6116b9565b80546001600160a01b03168b5261124b60018201611835565b60208c01526112638360028301541660408d01611973565b600381015460608c015201546001600160a01b03811660808b015260a081811c83161515908b015260a81c16151560c0890152338852602088018490526112ad8360408a01611973565b81606089015260018060a01b0316908160808901526112f060405195869589875233602088015260c0604088015260c08701906117d8565b936060860190611758565b608084015260a08301520390a160075460055434908103916001600160a01b031690821161049257602090602460405180948193633de5599d60e11b83523060048401525af19081156103e7575f91611509575b50156101ac57805f52600160205260405f209060018060a01b0383511660018060a01b031983541617825560208301519283516001600160401b038111610d8a5761139260018501546117fd565b601f81116114c5575b506020601f821160011461145a5781929394955f9261144f575b50508160011b915f199060031b1c19161760018401555b6040810151926002841015610cbd576004816113ef602096600260c09501611922565b6060840151600382015560808401519101805460a080860151949095015160ff60a81b90151560a81b166001600160b01b03199091166001600160a01b039093169290921792151590931b60ff60a01b1691909117179055604051908152f35b0151905085806113b5565b600185015f5260205f20905f5b601f19841681106114ad575060019394959683601f19811610611495575b505050811b0160018401556113cc565b01515f1960f88460031b161c19169055858080611485565b9091602060018192858b015181550193019101611467565b600185015f5260205f20601f830160051c810160208410611502575b601f830160051c820181106114f757505061139b565b5f81556001016114e1565b50806114e1565b90506020813d60201161153b575b81611524602093836116d4565b810103126101ac576115359061197f565b83611344565b3d9150611517565b60405162461bcd60e51b8152602060048201526014602482015273141c9bdc1bdcd85b081b9bdd0818dc99585d195960621b6044820152606490fd5b9093506020813d6020116115ab575b8161159b602093836116d4565b810103126101ac575192856111e7565b3d915061158e565b6115c76001600160a01b03851615156118d6565b611198565b60405162461bcd60e51b815260206004820152600d60248201526c496e636f72726563742066656560981b6044820152606490fd5b346101ac5760203660031901126101ac576004356001600160401b0381116101ac5760ff61163960206101508194369060040161173a565b81015f81520301902054166116516040518092611758565bf35b346101ac5760203660031901126101ac576004356001600160a01b03818116918290036101ac57611689906003541633146119c1565b600880546001600160a01b031916919091179055005b346101ac575f3660031901126101ac576020906005548152f35b60e081019081106001600160401b03821117610d8a57604052565b90601f801991011681019081106001600160401b03821117610d8a57604052565b9291926001600160401b038211610d8a576040519161171e601f8201601f1916602001846116d4565b8294818452818301116101ac578281602093845f960137010152565b9080601f830112156101ac57816020611755933591016116f5565b90565b906002821015610cbd5752565b60806003198201126101ac57600435906001600160401b0382116101ac5761178f9160040161173a565b9060243560028110156101ac5790604435906064356001600160a01b03811681036101ac5790565b5f5b8381106117c85750505f910152565b81810151838201526020016117b9565b906020916117f1815180928185528580860191016117b7565b601f01601f1916010190565b90600182811c9216801561182b575b602083101461181757565b634e487b7160e01b5f52602260045260245ffd5b91607f169161180c565b9060405191825f825492611848846117fd565b9081845260019485811690815f146118b35750600114611873575b5050611871925003836116d4565b565b909391505f52602090815f20935f915b81831061189b57505061187193508201015f80611863565b85548884018501529485019487945091830191611883565b91505061187194506020925060ff191682840152151560051b8201015f80611863565b156118dd57565b60405162461bcd60e51b815260206004820152601b60248201527f53656e64696e6720616464726573732063616e6e6f74206265203000000000006044820152606490fd5b906002811015610cbd5760ff80198354169116179055565b926119606119556060949796936080875260808701906117d8565b966020860190611758565b60408401526001600160a01b0316910152565b6002821015610cbd5752565b519081151582036101ac57565b903590601e19813603018212156101ac57018035906001600160401b0382116101ac57602001918160051b360383136101ac57565b156119c857565b60405162461bcd60e51b81526020600482015260166024820152752737ba103a34329031b7b73a3930b1ba1037bbb732b960511b6044820152606490fdfea26469706673582212207de7ca1e6e76d0b9d66508442a0928356154205a5f6ad521b33d2d20aed059db64736f6c63430008140033",
  "linkReferences": {},
  "deployedLinkReferences": {}
}