{
  "_format": "hh-sol-artifact-1",
  "contractName": "learntgetherCommunityConsensus",
  "sourceName": "contracts/learntgetherCommunityConsensus.sol",
  "abi": [
    {
      "inputs": [
        {
          "internalType": "uint256",
          "name": "_feePrice",
          "type": "uint256"
        },
        {
          "internalType": "address",
          "name": "_communityContractAddress",
          "type": "address"
        },
        {
          "internalType": "uint256",
          "name": "_communityFee",
          "type": "uint256"
        },
        {
          "internalType": "address payable",
          "name": "_feeAddress",
          "type": "address"
        }
      ],
      "stateMutability": "nonpayable",
      "type": "constructor"
    },
    {
      "anonymous": false,
      "inputs": [
        {
          "indexed": true,
          "internalType": "string",
          "name": "communityName",
          "type": "string"
        },
        {
          "indexed": false,
          "internalType": "uint256",
          "name": "numReviewsForAcceptance",
          "type": "uint256"
        },
        {
          "indexed": false,
          "internalType": "uint256",
          "name": "credsNeededForReview",
          "type": "uint256"
        },
        {
          "indexed": false,
          "internalType": "uint256",
          "name": "percentAcceptsNeeded",
          "type": "uint256"
        },
        {
          "indexed": false,
          "internalType": "uint256",
          "name": "consensusTime",
          "type": "uint256"
        },
        {
          "indexed": false,
          "internalType": "string[]",
          "name": "consensusTypes",
          "type": "string[]"
        }
      ],
      "name": "CCParamCreated",
      "type": "event"
    },
    {
      "anonymous": false,
      "inputs": [
        {
          "indexed": true,
          "internalType": "uint256",
          "name": "proposalId",
          "type": "uint256"
        },
        {
          "indexed": false,
          "internalType": "address",
          "name": "proposer",
          "type": "address"
        },
        {
          "indexed": false,
          "internalType": "uint256",
          "name": "numReviewsForAcceptance",
          "type": "uint256"
        },
        {
          "indexed": false,
          "internalType": "uint256",
          "name": "credsNeededForReview",
          "type": "uint256"
        },
        {
          "indexed": false,
          "internalType": "uint256",
          "name": "percentAcceptsNeeded",
          "type": "uint256"
        },
        {
          "indexed": false,
          "internalType": "uint256",
          "name": "consensusTime",
          "type": "uint256"
        },
        {
          "indexed": false,
          "internalType": "string[]",
          "name": "consensusTypes",
          "type": "string[]"
        }
      ],
      "name": "CCProposalCreated",
      "type": "event"
    },
    {
      "inputs": [
        {
          "internalType": "uint256",
          "name": "",
          "type": "uint256"
        }
      ],
      "name": "CommunityConsensusProposals",
      "outputs": [
        {
          "internalType": "address",
          "name": "proposer",
          "type": "address"
        },
        {
          "internalType": "string",
          "name": "communityName",
          "type": "string"
        },
        {
          "internalType": "uint256",
          "name": "numReviewsForAcceptance",
          "type": "uint256"
        },
        {
          "internalType": "uint256",
          "name": "credsNeededForReview",
          "type": "uint256"
        },
        {
          "internalType": "uint256",
          "name": "percentAcceptsNeeded",
          "type": "uint256"
        },
        {
          "internalType": "uint256",
          "name": "consensusTime",
          "type": "uint256"
        },
        {
          "internalType": "bool",
          "name": "upkeeped",
          "type": "bool"
        },
        {
          "internalType": "bool",
          "name": "passed",
          "type": "bool"
        }
      ],
      "stateMutability": "view",
      "type": "function"
    },
    {
      "inputs": [],
      "name": "CommunityContract",
      "outputs": [
        {
          "internalType": "contract learntgtetherCommuunitiesInterfact",
          "name": "",
          "type": "address"
        }
      ],
      "stateMutability": "view",
      "type": "function"
    },
    {
      "inputs": [
        {
          "internalType": "string",
          "name": "_communityName",
          "type": "string"
        },
        {
          "internalType": "uint256",
          "name": "_numReviewsForAcceptance",
          "type": "uint256"
        },
        {
          "internalType": "uint256",
          "name": "_credsNeededForReview",
          "type": "uint256"
        },
        {
          "internalType": "uint256",
          "name": "_percentAcceptsNeeded",
          "type": "uint256"
        },
        {
          "internalType": "uint256",
          "name": "_consensusTime",
          "type": "uint256"
        },
        {
          "internalType": "string[]",
          "name": "_consensusTypes",
          "type": "string[]"
        }
      ],
      "name": "CreateCCProposal",
      "outputs": [
        {
          "internalType": "uint256",
          "name": "",
          "type": "uint256"
        }
      ],
      "stateMutability": "payable",
      "type": "function"
    },
    {
      "inputs": [],
      "name": "UpdateTotalFee",
      "outputs": [],
      "stateMutability": "nonpayable",
      "type": "function"
    },
    {
      "inputs": [
        {
          "internalType": "bytes32",
          "name": "_address",
          "type": "bytes32"
        }
      ],
      "name": "bytes32ToAddress",
      "outputs": [
        {
          "internalType": "address",
          "name": "",
          "type": "address"
        }
      ],
      "stateMutability": "pure",
      "type": "function"
    },
    {
      "inputs": [
        {
          "components": [
            {
              "internalType": "uint256",
              "name": "index",
              "type": "uint256"
            },
            {
              "internalType": "uint256",
              "name": "timestamp",
              "type": "uint256"
            },
            {
              "internalType": "bytes32",
              "name": "txHash",
              "type": "bytes32"
            },
            {
              "internalType": "uint256",
              "name": "blockNumber",
              "type": "uint256"
            },
            {
              "internalType": "bytes32",
              "name": "blockHash",
              "type": "bytes32"
            },
            {
              "internalType": "address",
              "name": "source",
              "type": "address"
            },
            {
              "internalType": "bytes32[]",
              "name": "topics",
              "type": "bytes32[]"
            },
            {
              "internalType": "bytes",
              "name": "data",
              "type": "bytes"
            }
          ],
          "internalType": "struct learntgetherCommunityConsensus.Log",
          "name": "log",
          "type": "tuple"
        },
        {
          "internalType": "bytes",
          "name": "",
          "type": "bytes"
        }
      ],
      "name": "checkLog",
      "outputs": [
        {
          "internalType": "bool",
          "name": "upkeepNeeded",
          "type": "bool"
        },
        {
          "internalType": "bytes",
          "name": "_performData",
          "type": "bytes"
        }
      ],
      "stateMutability": "view",
      "type": "function"
    },
    {
      "inputs": [
        {
          "internalType": "string",
          "name": "",
          "type": "string"
        }
      ],
      "name": "communityConsensus",
      "outputs": [
        {
          "internalType": "uint256",
          "name": "numReviewsForAcceptance",
          "type": "uint256"
        },
        {
          "internalType": "uint256",
          "name": "credsNeededForReview",
          "type": "uint256"
        },
        {
          "internalType": "uint256",
          "name": "percentAcceptsNeeded",
          "type": "uint256"
        },
        {
          "internalType": "uint256",
          "name": "consensusTime",
          "type": "uint256"
        },
        {
          "internalType": "bool",
          "name": "isSet",
          "type": "bool"
        }
      ],
      "stateMutability": "view",
      "type": "function"
    },
    {
      "inputs": [],
      "name": "communityFee",
      "outputs": [
        {
          "internalType": "uint256",
          "name": "",
          "type": "uint256"
        }
      ],
      "stateMutability": "view",
      "type": "function"
    },
    {
      "inputs": [],
      "name": "fee",
      "outputs": [
        {
          "internalType": "uint256",
          "name": "",
          "type": "uint256"
        }
      ],
      "stateMutability": "view",
      "type": "function"
    },
    {
      "inputs": [],
      "name": "feeAddress",
      "outputs": [
        {
          "internalType": "address payable",
          "name": "",
          "type": "address"
        }
      ],
      "stateMutability": "view",
      "type": "function"
    },
    {
      "inputs": [
        {
          "internalType": "string",
          "name": "_communityName",
          "type": "string"
        }
      ],
      "name": "getCCParams",
      "outputs": [
        {
          "internalType": "uint256",
          "name": "_numReviewsForAcceptance",
          "type": "uint256"
        },
        {
          "internalType": "uint256",
          "name": "_credsNeededForReview",
          "type": "uint256"
        },
        {
          "internalType": "uint256",
          "name": "_percentAcceptsNeeded",
          "type": "uint256"
        },
        {
          "internalType": "uint256",
          "name": "_consensusTime",
          "type": "uint256"
        },
        {
          "internalType": "string[]",
          "name": "_consensusTypes",
          "type": "string[]"
        },
        {
          "internalType": "bool",
          "name": "_isSet",
          "type": "bool"
        }
      ],
      "stateMutability": "view",
      "type": "function"
    },
    {
      "inputs": [
        {
          "internalType": "string",
          "name": "_communityName",
          "type": "string"
        }
      ],
      "name": "getCCParamsExist",
      "outputs": [
        {
          "internalType": "bool",
          "name": "_isSet",
          "type": "bool"
        }
      ],
      "stateMutability": "view",
      "type": "function"
    },
    {
      "inputs": [
        {
          "internalType": "string",
          "name": "_communityName",
          "type": "string"
        }
      ],
      "name": "getCommunityConsensousTime",
      "outputs": [
        {
          "internalType": "uint256",
          "name": "",
          "type": "uint256"
        }
      ],
      "stateMutability": "view",
      "type": "function"
    },
    {
      "inputs": [
        {
          "internalType": "string",
          "name": "_communityName",
          "type": "string"
        }
      ],
      "name": "getCommunityConsensousTypes",
      "outputs": [
        {
          "internalType": "string[]",
          "name": "consensusTypes",
          "type": "string[]"
        }
      ],
      "stateMutability": "view",
      "type": "function"
    },
    {
      "inputs": [
        {
          "internalType": "string",
          "name": "_communityName",
          "type": "string"
        }
      ],
      "name": "getCommunityReviewParams",
      "outputs": [
        {
          "internalType": "uint256",
          "name": "numReviewsForAcceptance",
          "type": "uint256"
        },
        {
          "internalType": "uint256",
          "name": "credsNeededForReview",
          "type": "uint256"
        },
        {
          "internalType": "uint256",
          "name": "percentAcceptsNeeded",
          "type": "uint256"
        }
      ],
      "stateMutability": "view",
      "type": "function"
    },
    {
      "inputs": [],
      "name": "maxConsensusTime",
      "outputs": [
        {
          "internalType": "uint256",
          "name": "",
          "type": "uint256"
        }
      ],
      "stateMutability": "view",
      "type": "function"
    },
    {
      "inputs": [
        {
          "internalType": "bytes",
          "name": "_performData",
          "type": "bytes"
        }
      ],
      "name": "performUpkeep",
      "outputs": [],
      "stateMutability": "nonpayable",
      "type": "function"
    },
    {
      "inputs": [
        {
          "internalType": "string",
          "name": "_communityName",
          "type": "string"
        },
        {
          "internalType": "uint256",
          "name": "_numReviewsForAcceptance",
          "type": "uint256"
        },
        {
          "internalType": "uint256",
          "name": "_credsNeededForReview",
          "type": "uint256"
        },
        {
          "internalType": "uint256",
          "name": "_percentAcceptsNeeded",
          "type": "uint256"
        },
        {
          "internalType": "uint256",
          "name": "_consensusTime",
          "type": "uint256"
        },
        {
          "internalType": "string[]",
          "name": "_consensusTypes",
          "type": "string[]"
        }
      ],
      "name": "setCCParams",
      "outputs": [
        {
          "internalType": "bool",
          "name": "",
          "type": "bool"
        }
      ],
      "stateMutability": "nonpayable",
      "type": "function"
    },
    {
      "inputs": [
        {
          "internalType": "uint256",
          "name": "_feePrice",
          "type": "uint256"
        }
      ],
      "name": "setFee",
      "outputs": [],
      "stateMutability": "nonpayable",
      "type": "function"
    },
    {
      "inputs": [
        {
          "internalType": "address payable",
          "name": "_feeAddress",
          "type": "address"
        }
      ],
      "name": "setFeeAddress",
      "outputs": [],
      "stateMutability": "nonpayable",
      "type": "function"
    },
    {
      "inputs": [
        {
          "internalType": "uint256",
          "name": "_mrt",
          "type": "uint256"
        }
      ],
      "name": "setMaxConsensusTime",
      "outputs": [],
      "stateMutability": "nonpayable",
      "type": "function"
    },
    {
      "inputs": [
        {
          "internalType": "address",
          "name": "_contractAddress",
          "type": "address"
        }
      ],
      "name": "setlearntgetherCommunityContract",
      "outputs": [],
      "stateMutability": "nonpayable",
      "type": "function"
    },
    {
      "inputs": [],
      "name": "totalFee",
      "outputs": [
        {
          "internalType": "uint256",
          "name": "",
          "type": "uint256"
        }
      ],
      "stateMutability": "view",
      "type": "function"
    },
    {
      "inputs": [],
      "name": "upkeepId",
      "outputs": [
        {
          "internalType": "uint256",
          "name": "",
          "type": "uint256"
        }
      ],
      "stateMutability": "view",
      "type": "function"
    }
  ],
  "bytecode": "0x6080346100de57601f6200236f38819003918201601f19168301916001600160401b038311848410176100e2578084926080946040528339810103126100de57805160208201519091906001600160a01b0390818116908190036100de57606060408401519301519182168092036100de5760018060a01b03199030826009541617600955338260025416176002558160085416176008556007541617600755816003558060055581018091116100ca57600655627864506004556040516122789081620000f78239f35b634e487b7160e01b5f52601160045260245ffd5b5f80fd5b634e487b7160e01b5f52604160045260245ffdfe60806040526004361015610011575f80fd5b5f3560e01c806313a292ee14611e215780631df4ccfc14611e045780631e6a248814611d6657806324c9db2f14611d165780632627bc1e14611c9c5780632691798914611bf15780633bebe05114611ba657806340691db414611a635780634127535814611a3b5780634585e33b14610ef75780634e2413e814610b5e5780635ced058e14610b3757806369fe0e2d14610b095780638003822e14610abd5780638705fcd414610a715780638961be6b14610a54578063a804535d1461040c578063abb7d06c146102d0578063d1dda68f1461021a578063d2aa789f146101fd578063dcf8620014610187578063ddca3f431461016a578063f0642315146101425763f6eeda9d14610121575f80fd5b3461013e575f36600319011261013e576020600454604051908152f35b5f80fd5b3461013e575f36600319011261013e576008546040516001600160a01b039091168152602090f35b3461013e575f36600319011261013e576020600354604051908152f35b3461013e57602036600319011261013e576004356001600160401b03811161013e576101e560046101d660206101c36101f99536908501611ffc565b8160405193828580945193849201611f65565b81015f81520301902001612167565b6040519182916020835260208301906120f6565b0390f35b3461013e575f36600319011261013e576020600a54604051908152f35b3461013e575f36600319011261013e576004602060018060a01b03610244816002541633146121fd565b600854166040519283809263ced72f8760e01b82525afa9081156102c5575f91610294575b508060055560035490810180911161028057600655005b634e487b7160e01b5f52601160045260245ffd5b90506020813d82116102bd575b816102ae60209383611ea3565b8101031261013e575181610269565b3d91506102a1565b6040513d5f823e3d90fd5b3461013e5760208060031936011261013e576004356001600160401b03811161013e57610301903690600401611ffc565b6040519061040081519284818185019561031c818389611f65565b81015f815203019020549260016040518681865161033b818388611f65565b81015f81520301902001549060026040518781875161035b818388611f65565b81015f81520301902001546103d960ff60056103c78a600361038a82898d604051938492839251928391611f65565b81015f81520301902001549660048b836040518092516103ab818388611f65565b81015f815203019020019a604051938492839251928391611f65565b81015f81520301902001541695612167565b9260405197889788528701526040860152606085015260c0608085015260c08401906120f6565b90151560a08301520390f35b61041536612031565b938195929391956006543403610a1a5760018060a01b03600854169560206005546040519889809263b07bcbc560e01b8252604060048301528161045c604482018c611f86565b30602483015203925af19687156102c5575f976109e6575b5086156109aa576104ce9787967fc3c31a458b47a6df81fa50913e5e50a8d7903a95b235b5aa6b16fd81c7b05e1796610592946004548091116109a2575b50885f52600160205261053c600760405f206040519d8e611e87565b80546001600160a01b03168e528d60206104ea60018401611ec4565b9101528d604060028301549101528d606060038301549101528d608060048301549101528d60a060058301549101528d60e060ff6006840154818116151560c085015260081c16151591015201612167565b50338b5260208b01528460408b01528560608b01528060808b01528160a08b0152826101008b0152604051958695338752602087015260408601526060850152608084015260c060a084015260c08301906120f6565b0390a260075460055434908103916001600160a01b0316908211610280575f80809381935af13d1561099d573d6105c881611fab565b906105d66040519283611ea3565b81525f60203d92013e5b1561096157805f52600160205260405f209060018060a01b0383511660018060a01b031983541617825560208301519283516001600160401b03811161082b5761062d6001850154611e4f565b601f811161092e575b506020601f82116001146108be5781906101009495965f926108b3575b50508160011b915f199060031b1c19161760018501555b60408101516002850155606081015160038501556080810151600485015560a08101516005850155600684016106b260c08301511515829060ff801983541691151516179055565b60e0820151815461ff00191690151560081b61ff00161790550151805190600160401b821161082b57600784015482600786015580831061083f575b5060206007910193015f5260205f20925f905b82821061071357602084604051908152f35b80518051906001600160401b03821161082b576107308754611e4f565b601f81116107f0575b50602090601f83116001146107845792826001949360209386955f92610779575b50505f19600383901b1c191690841b1788555b01950191019093610701565b015190508a8061075a565b90875f5260205f20915f5b601f19851681106107d8575083602093600196938796938794601f198116106107c0575b505050811b01885561076d565b01515f1960f88460031b161c191690558a80806107b3565b9192602060018192868501518155019401920161078f565b61081b90885f5260205f20601f850160051c81019160208610610821575b601f0160051c0190612151565b87610739565b909150819061080e565b634e487b7160e01b5f52604160045260245ffd5b600785015f5260205f20908382015b818301811061085e5750506106ee565b8061086b60019254611e4f565b80610878575b500161084e565b601f8111831461088d57505f81555b88610871565b5f908282526108aa601f60208420920160051c8201858301612151565b81835555610887565b015190508680610653565b600185015f5260205f20955f5b601f19841681106109165750958291610100959697600194601f198116106108fe575b505050811b01600185015561066a565b01515f1960f88460031b161c191690558680806108ee565b828201518855600190970196602092830192016108cb565b61095b90600186015f5260205f20601f840160051c8101916020851061082157601f0160051c0190612151565b85610636565b60405162461bcd60e51b81526020600482015260146024820152732330b4b632b2103a379039b2b7321022ba3432b960611b6044820152606490fd5b6105e0565b92508b6104b2565b60405162461bcd60e51b8152602060048201526014602482015273141c9bdc1bdcd85b081b9bdd0818dc99585d195960621b6044820152606490fd5b9096506020813d602011610a12575b81610a0260209383611ea3565b8101031261013e57519588610474565b3d91506109f5565b60405162461bcd60e51b8152602060048201526012602482015271119959481c1c9a58d9481b9bdd081cd95b9d60721b6044820152606490fd5b3461013e575f36600319011261013e576020600554604051908152f35b3461013e57602036600319011261013e576004356001600160a01b038181169182900361013e57610aa7906002541633146121fd565b600780546001600160a01b031916919091179055005b3461013e57602036600319011261013e576004356001600160a01b038181169182900361013e57610af3906002541633146121fd565b600880546001600160a01b031916919091179055005b3461013e57602036600319011261013e57610b2f60018060a01b036002541633146121fd565b600435600355005b3461013e57602036600319011261013e576040516004356001600160a01b03168152602090f35b3461013e57610b6c36612031565b949290809360018060a01b038060085416906020604051809363b3f6702d60e01b82528260048301528180610ba46024820189611f86565b03915afa9182156102c5575f92610eba575b5033911603610e65576040519160ff600583519460208181870197610bdc81838b611f65565b81015f815203019020015416610e0d57600454809111610e03575b50610c1091602091604051938492839251928391611f65565b5f9082019081520301902093845560018401556002830155600382015581516004820192600160401b821161082b578354828555808310610d92575b50602001925f5260205f20925f905b828210610c7c5760058401600160ff19825416179055602060405160018152f35b80518051906001600160401b03821161082b57610c998754611e4f565b90601f91828111610d5a575b506020918311600114610cee5792826001949360209386955f92610ce3575b50505f19600383901b1c191690841b1788555b01950191019093610c5b565b015190508a80610cc4565b90875f5260205f20915f5b601f1985168110610d42575083602093600196938796938794601f19811610610d2a575b505050811b018855610cd7565b01515f1960f88460031b161c191690558a8080610d1d565b91926020600181928685015181550194019201610cf9565b610d8390895f5260205f208480870160051c82019260208810610d89575b0160051c0190612151565b88610ca5565b92508192610d78565b845f528260205f2091820191015b818110610dad5750610c4c565b80610dba60019254611e4f565b80610dc7575b5001610da0565b601f908181118414610ddf5750505f81555b87610dc0565b610dfa5f9284845260208420920160051c8201858301612151565b81835555610dd9565b9450610c10610bf7565b60405162461bcd60e51b815260206004820152602a60248201527f436f6d6d756e69747920436f6e73656e73757320506172616d657465727320616044820152691b1c9958591e481cd95d60b21b6064820152608490fd5b60405162461bcd60e51b815260206004820152602760248201527f55736572206973206e6f7420746865206f776e6572206f66207468697320636f6044820152666d6d756e69747960c81b6064820152608490fd5b9091506020813d602011610eef575b81610ed660209383611ea3565b8101031261013e5751818116810361013e579089610bb6565b3d9150610ec9565b3461013e57602036600319011261013e576004356001600160401b03811161013e573660238201121561013e5780600401356001600160401b03811161013e57810136602482011161013e5781602091031261013e5760248101355f908152600160205260409020546001600160a01b0316610f6f57005b60085460408051630b7b9a0160e31b81526024848101356004830152909283919082906001600160a01b03165afa9081156102c5575f905f926119f3575b5015610fb557005b1561166d5760248101355f526001602052602460405f2091611047600760405194610fdf86611e87565b80546001600160a01b03168652610ff860018201611ec4565b6020870152600281015460408701526003810154606087015260048101546080870152600581015460a087015260ff6006820154818116151560c089015260081c16151560e087015201612167565b610100840152600160c0840152600160e084015201355f52600160205260405f209060018060a01b0381511660018060a01b031983541617825560208101519182516001600160401b03811161082b576110a46001830154611e4f565b601f811161163a575b506020601f82116001146115d057819293945f926115c5575b50508160011b915f199060031b1c19161760018201555b60408201516002820155606082015160038201556080820151600482015560a082015160058201556006810161112560c08401511515829060ff801983541691151516179055565b60e0830151815461ff00191690151560081b61ff0016179055610100820151805190600160401b821161082b576007830154826007850155808310611551575b5060206007910192015f5260205f20915f905b828210611444575050505061119f6020808301518160405193828580945193849201611f65565b81015f81520301902060408201518155606082015160018201556080820151600282015560a08201516003820155610100820151805190600160401b821161082b5760048301548260048501558083106113d0575b5060200190600483015f5260205f20915f905b8282106112c35750505050600501805460ff8116156112b3575b50507f31344930ea150241e9734be108a301e6dff82664e95d744e8d7ab6885674532a602082015160408301516112ae60608501519260808601519561128061010060a083015192015192602060405192828480945193849201611f65565b810103902096604051958695865260208601526040850152606084015260a0608084015260a08301906120f6565b0390a2005b60ff191660011790558180611221565b80518051906001600160401b03821161082b576112e08654611e4f565b601f81116113a0575b50602090601f83116001146113345792826001949360209386955f92611329575b50505f19600383901b1c191690841b1787555b01940191019092611207565b015190508b8061130a565b90865f5260205f20915f5b601f1985168110611388575083602093600196938796938794601f19811610611370575b505050811b01875561131d565b01515f1960f88460031b161c191690558b8080611363565b9192602060018192868501518155019401920161133f565b6113ca90875f5260205f20601f850160051c8101916020861061082157601f0160051c0190612151565b886112e9565b600484015f5260205f20908382015b81830181106113ef5750506111f4565b806113fc60019254611e4f565b80611409575b50016113df565b601f8111831461141e57505f81555b88611402565b5f9082825261143b601f60208420920160051c8201858301612151565b81835555611418565b80518051906001600160401b03821161082b576114618654611e4f565b601f8111611521575b50602090601f83116001146114b55792826001949360209386955f926114aa575b50505f19600383901b1c191690841b1787555b01940191019092611178565b015190508a8061148b565b90865f5260205f20915f5b601f1985168110611509575083602093600196938796938794601f198116106114f1575b505050811b01875561149e565b01515f1960f88460031b161c191690558a80806114e4565b919260206001819286850151815501940192016114c0565b61154b90875f5260205f20601f850160051c8101916020861061082157601f0160051c0190612151565b8761146a565b600784015f5260205f20908382015b8183018110611570575050611165565b8061157d60019254611e4f565b8061158a575b5001611560565b601f8111831461159f57505f81555b88611583565b5f908282526115bc601f60208420920160051c8201858301612151565b81835555611599565b0151905084806110c6565b600183015f5260205f20905f5b601f19841681106116225750600193949583601f1981161061160a575b505050811b0160018201556110dd565b01515f1960f88460031b161c191690558480806115fa565b9091602060018192858a0151815501930191016115dd565b61166790600184015f5260205f20601f840160051c8101916020851061082157601f0160051c0190612151565b846110ad565b60248101355f526001602052602460405f2091611692600760405194610fdf86611e87565b610100840152600160c08401525f60e084015201355f52600160205260405f2060018060a01b0382511660018060a01b031982541617815560208201518051906001600160401b03821161082b576116ed6001840154611e4f565b601f81116119c0575b50602090601f831160011461194e57918061010094926007945f92611943575b50508160011b915f199060031b1c19161760018201555b60408401516002820155606084015160038201556080840151600482015560a084015160058201556006810161177560c08601511515829060ff801983541691151516179055565b60e0850151151561ff0082549160081b169061ff00191617905501910151805190600160401b821161082b5782548284558083106118d3575b50602001915f5260205f20915f905b8282106117c657005b80518051906001600160401b03821161082b576117e38654611e4f565b601f81116118a3575b50602090601f83116001146118375792826001949360209386955f9261182c575b50505f19600383901b1c191690841b1787555b019401910190926117bd565b01519050898061180d565b90865f5260205f20915f5b601f198516811061188b575083602093600196938796938794601f19811610611873575b505050811b018755611820565b01515f1960f88460031b161c19169055898080611866565b91926020600181928685015181550194019201611842565b6118cd90875f5260205f20601f850160051c8101916020861061082157601f0160051c0190612151565b866117ec565b835f528260205f2091820191015b8181106118ee57506117ae565b806118fb60019254611e4f565b80611908575b50016118e1565b601f8111831461191d57505f81555b86611901565b5f9082825261193a601f60208420920160051c8201858301612151565b81835555611917565b015190508680611716565b90600184015f5260205f20915f5b601f19851681106119a8575092610100949260019260079583601f19811610611990575b505050811b01600182015561172d565b01515f1960f88460031b161c19169055868080611980565b9192602060018192868501518155019401920161195c565b6119ed90600185015f5260205f20601f850160051c8101916020861061082157601f0160051c0190612151565b846116f6565b9150506040813d604011611a33575b81611a0f60409383611ea3565b8101031261013e57611a2c6020611a25836121f0565b92016121f0565b9083610fad565b3d9150611a02565b3461013e575f36600319011261013e576007546040516001600160a01b039091168152602090f35b3461013e5760031960403682011261013e576001600160401b039060043582811161013e576101008160040192823603011261013e5760243583811161013e573660238201121561013e57611ac2903690602481600401359101611fc6565b5060c45f910191611ad383826121bb565b93909315611b9257611ae4916121bb565b60011015611b9257602001359160018060a01b0390818060095416913516149081611b7a575b5080611b60575b611b58575b6040519160208301526020825260408201928284109084111761082b57826040521515825260406060820152603f1990611b536080820182611f86565b030190f35b506001611b16565b50815f52600160205260ff600660405f2001541615611b11565b9050825f52600160205260405f205416151584611b0a565b634e487b7160e01b5f52603260045260245ffd5b3461013e57602036600319011261013e576004356001600160401b03811161013e576003611bde60206101c381943690600401611ffc565b81015f8152030190200154604051908152f35b3461013e5760208060031936011261013e57600435906001600160401b03821161013e57611c256060923690600401611ffc565b90604051916002611c8083835195818181870198611c4481838c611f65565b81015f8152030190205495600160405183818851611c63818388611f65565b81015f815203019020015494604051938492839251928391611f65565b81015f8152030190200154916040519384528301526040820152f35b3461013e57602036600319011261013e576004356001600160401b03811161013e57611cd360206101c360a0933690600401611ffc565b81015f815203019020805490600181015490600281015460ff60056003840154930154169260405194855260208501526040840152606083015215156080820152f35b3461013e57602036600319011261013e576004356001600160401b03811161013e5760ff6005611d5060206101c381953690600401611ffc565b81015f8152030190200154166040519015158152f35b3461013e57602036600319011261013e576004355f52600160205260405f2060018060a01b03815416611d9b60018301611ec4565b9160ff60028201549160038101549060048101546006600583015492015492611dd660405198899889526101008060208b0152890190611f86565b9560408801526060870152608086015260a0850152818116151560c085015260081c16151560e08301520390f35b3461013e575f36600319011261013e576020600654604051908152f35b3461013e57602036600319011261013e57611e4760018060a01b036002541633146121fd565b600480359055005b90600182811c92168015611e7d575b6020831014611e6957565b634e487b7160e01b5f52602260045260245ffd5b91607f1691611e5e565b61012081019081106001600160401b0382111761082b57604052565b90601f801991011681019081106001600160401b0382111761082b57604052565b9060405191825f825492611ed784611e4f565b9081845260019485811690815f14611f425750600114611f02575b5050611f0092500383611ea3565b565b909391505f52602090815f20935f915b818310611f2a575050611f0093508201015f80611ef2565b85548884018501529485019487945091830191611f12565b915050611f0094506020925060ff191682840152151560051b8201015f80611ef2565b5f5b838110611f765750505f910152565b8181015183820152602001611f67565b90602091611f9f81518092818552858086019101611f65565b601f01601f1916010190565b6001600160401b03811161082b57601f01601f191660200190565b929192611fd282611fab565b91611fe06040519384611ea3565b82948184528183011161013e578281602093845f960137010152565b9080601f8301121561013e5781602061201793359101611fc6565b90565b6001600160401b03811161082b5760051b60200190565b9060c060031983011261013e576001600160401b0360043581811161013e578361205d91600401611ffc565b92602480359360443593606435936084359360a4359280841161013e578260238501121561013e5783600401356120938161201a565b946120a16040519687611ea3565b818652602094848688019360051b8301019481861161013e57808301935b8685106120d157505050505050505090565b843586811161013e5788916120eb85858594890101611ffc565b8152019401936120bf565b908082519081815260208091019281808460051b8301019501935f915b8483106121235750505050505090565b9091929394958480612141600193601f198682030187528a51611f86565b9801930193019194939290612113565b81811061215c575050565b5f8155600101612151565b9081546121738161201a565b926121816040519485611ea3565b8184525f90815260208082208186015b84841061219f575050505050565b60018381926121ad85611ec4565b815201920193019290612191565b903590601e198136030182121561013e57018035906001600160401b03821161013e57602001918160051b3603831361013e57565b5190811515820361013e57565b1561220457565b60405162461bcd60e51b81526020600482015260166024820152752737ba103a34329031b7b73a3930b1ba1037bbb732b960511b6044820152606490fdfea26469706673582212206705c17d7934340c138201c19ee80669b5a65d28b4ca23fc224db559e42226eb64736f6c63430008140033",
  "linkReferences": {},
  "deployedLinkReferences": {}
}