{
  "_format": "hh-sol-artifact-1",
  "contractName": "tgetherFund",
  "sourceName": "contracts/tgetherFund.sol",
  "abi": [
    {
      "inputs": [],
      "stateMutability": "nonpayable",
      "type": "constructor"
    },
    {
      "inputs": [],
      "name": "LINK",
      "outputs": [
        {
          "internalType": "contract IERC677",
          "name": "",
          "type": "address"
        }
      ],
      "stateMutability": "view",
      "type": "function"
    },
    {
      "inputs": [],
      "name": "checkBal",
      "outputs": [
        {
          "internalType": "uint256",
          "name": "",
          "type": "uint256"
        }
      ],
      "stateMutability": "view",
      "type": "function"
    },
    {
      "inputs": [
        {
          "internalType": "address",
          "name": "_contractAddress",
          "type": "address"
        }
      ],
      "name": "fundUpkeep",
      "outputs": [
        {
          "internalType": "bool",
          "name": "",
          "type": "bool"
        }
      ],
      "stateMutability": "payable",
      "type": "function"
    },
    {
      "inputs": [
        {
          "internalType": "address",
          "name": "_address",
          "type": "address"
        },
        {
          "internalType": "uint256",
          "name": "_upkeep",
          "type": "uint256"
        }
      ],
      "name": "setUpkeeps",
      "outputs": [],
      "stateMutability": "nonpayable",
      "type": "function"
    },
    {
      "inputs": [],
      "name": "sushiSwapRouter",
      "outputs": [
        {
          "internalType": "contract ISushiSwapRouter",
          "name": "",
          "type": "address"
        }
      ],
      "stateMutability": "view",
      "type": "function"
    },
    {
      "inputs": [
        {
          "internalType": "address",
          "name": "_address",
          "type": "address"
        }
      ],
      "name": "updateRegistrar",
      "outputs": [],
      "stateMutability": "nonpayable",
      "type": "function"
    }
  ],
  "bytecode": "0x608080604052346100805760018060a01b0319731b02da8cb0d097eb8d57a175b88c7d8b47997506815f5416175f5573f97f4df75117a78c1a5a0dbb814af92458539fb48160015416176001557337d9dc70bfcd8bc77ec2858836b923c560e891d18160025416176002553390600354161760035561087990816100858239f35b5f80fdfe6080604081815260049182361015610015575f80fd5b5f92833560e01c9182631b6b6d23146106c0575081632058ad6b14610628578163592b700a146105e05781637bcab33a146100d6578163f6fd54fe1461008e575063fd829a2314610064575f80fd5b3461008a578160031936011261008a57905490516001600160a01b039091168152602090f35b5080fd5b9050346100d257816003193601126100d2576100a86106e5565b6003546001600160a01b0391906100c290831633146107ec565b1683526020526024359082205580f35b8280fd5b9050826020928360031936011261008a576100ef6106e5565b9134156105a5576001600160a01b03928316808252848652828220541561008a5782519367ffffffffffffffff906060860182811187821017610592578552600286528786019285368537818554169386516315ab88c960e31b81528a818b81895afa90811561058857879161054e575b5088511561053b578316815260019483865416895187101561052857888a0152603c4201918242116105155787918b918d948b51958694637ff36ab560e01b865286608487019187015260249e8f8701608090525180915260a4860193918c88915b8383106104ee575050505050839182913060448401526064830152039134905af19081610454575b506102ce57505050508060033d116102be575b506308c379a014610249575b90606493601a92519362461bcd60e51b85528401528201527f53776170206661696c65643a20556e6b6e6f776e206572726f720000000000006044820152fd5b610251610735565b8061025c5750610209565b9091826102a2602d6102ba955180956c029bbb0b8103330b4b632b21d1609d1b8a830152610292815180928c86860191016107a6565b810103600d8101865201846106ff565b5194859462461bcd60e51b86528501528301906107c7565b0390fd5b90508381803e5160e01c856101fd565b9088979293969181885416928751926370a0823160e01b845230868501528a848381885afa93841561044a578894610417575b5083156103d55760025416918752848a5287872054948851958b8701528a865288860196868810908811176103c4575050848752630200057560e51b85526044840152606483015260606084830152869083908186603f198661036760a48201826107c7565b0301925af180156103ba57908691610384575b5050505051908152f35b813d83116103b3575b61039781856106ff565b8101031261008a5751801515036103b05780848161037a565b80fd5b503d61038d565b84513d85823e3d90fd5b634e487b7160e01b88526041905286fd5b885162461bcd60e51b81528087018c9052601a818401527f4e6f204c494e4b2072656365697665642066726f6d20737761700000000000006044820152606490fd5b9093508a81813d8311610443575b61042f81836106ff565b8101031261043f5751928b610301565b8780fd5b503d610425565b89513d8a823e3d90fd5b3d8088833e61046381836106ff565b8101908b8183031261043f578051908682116104d8570181601f8201121561043f578051908682116104dc578c808360051b938c51906104a5838701836106ff565b815201928201019283116104d857908c809201905b8382106104c9575050506101ea565b815181529082019082016104ba565b8880fd5b634e487b7160e01b895260418c528a89fd5b9295909397508291949698508b88511681520195019101908f928c9694928c8997956101c2565b634e487b7160e01b885260118b52602488fd5b634e487b7160e01b885260328b52602488fd5b634e487b7160e01b875260328a52602487fd5b90508a81813d8311610581575b61056581836106ff565b8101031261057d5751838116810361057d578b610160565b8680fd5b503d61055b565b88513d89823e3d90fd5b634e487b7160e01b855260418852602485fd5b815162461bcd60e51b81528085018690526015602482015274125b9cdd59999a58da595b9d08115512081cd95b9d605a1b6044820152606490fd5b83346103b05760203660031901126103b0576105fa6106e5565b6003546001600160a01b03919061061490831633146107ec565b1660018060a01b0319600254161760025580f35b919050346100d257826003193601126100d25760015481516370a0823160e01b81523093810193909352602090839060249082906001600160a01b03165afa9182156106b657839261067f575b6020838351908152f35b9091506020813d82116106ae575b8161069a602093836106ff565b810103126100d2576020925051905f610675565b3d915061068d565b81513d85823e3d90fd5b84903461008a578160031936011261008a576001546001600160a01b03168152602090f35b600435906001600160a01b03821682036106fb57565b5f80fd5b90601f8019910116810190811067ffffffffffffffff82111761072157604052565b634e487b7160e01b5f52604160045260245ffd5b5f60443d1061079257604051600319913d83016004833e815167ffffffffffffffff918282113d6024840111176107955781840194855193841161079d573d850101602084870101116107955750610792929101602001906106ff565b90565b949350505050565b50949350505050565b5f5b8381106107b75750505f910152565b81810151838201526020016107a8565b906020916107e0815180928185528580860191016107a6565b601f01601f1916010190565b156107f357565b60405162461bcd60e51b815260206004820152602260248201527f4f6e6c79206f776e65722063616e20706572666f726d2074686973206163746960448201526137b760f11b6064820152608490fdfea264697066735822122021d08a625a5386516e271154d652b766f1060b56e49057dc7355ff728380a82a64736f6c63430008140033",
  "linkReferences": {},
  "deployedLinkReferences": {}
}