{
  "_format": "hh-sol-artifact-1",
  "contractName": "ArticleNFT",
  "sourceName": "contracts/ArticleNFT.sol",
  "abi": [
    {
      "inputs": [
        {
          "internalType": "string",
          "name": "_name",
          "type": "string"
        },
        {
          "internalType": "string",
          "name": "_symbol",
          "type": "string"
        }
      ],
      "stateMutability": "nonpayable",
      "type": "constructor"
    },
    {
      "anonymous": false,
      "inputs": [
        {
          "indexed": true,
          "internalType": "address",
          "name": "owner",
          "type": "address"
        },
        {
          "indexed": true,
          "internalType": "address",
          "name": "approved",
          "type": "address"
        },
        {
          "indexed": true,
          "internalType": "uint256",
          "name": "tokenId",
          "type": "uint256"
        }
      ],
      "name": "Approval",
      "type": "event"
    },
    {
      "anonymous": false,
      "inputs": [
        {
          "indexed": true,
          "internalType": "address",
          "name": "owner",
          "type": "address"
        },
        {
          "indexed": true,
          "internalType": "address",
          "name": "operator",
          "type": "address"
        },
        {
          "indexed": false,
          "internalType": "bool",
          "name": "approved",
          "type": "bool"
        }
      ],
      "name": "ApprovalForAll",
      "type": "event"
    },
    {
      "anonymous": false,
      "inputs": [
        {
          "indexed": true,
          "internalType": "address",
          "name": "previousOwner",
          "type": "address"
        },
        {
          "indexed": true,
          "internalType": "address",
          "name": "newOwner",
          "type": "address"
        }
      ],
      "name": "OwnershipTransferred",
      "type": "event"
    },
    {
      "anonymous": false,
      "inputs": [
        {
          "indexed": true,
          "internalType": "address",
          "name": "from",
          "type": "address"
        },
        {
          "indexed": true,
          "internalType": "address",
          "name": "to",
          "type": "address"
        },
        {
          "indexed": true,
          "internalType": "uint256",
          "name": "tokenId",
          "type": "uint256"
        }
      ],
      "name": "Transfer",
      "type": "event"
    },
    {
      "inputs": [
        {
          "internalType": "address",
          "name": "to",
          "type": "address"
        },
        {
          "internalType": "uint256",
          "name": "tokenId",
          "type": "uint256"
        }
      ],
      "name": "approve",
      "outputs": [],
      "stateMutability": "nonpayable",
      "type": "function"
    },
    {
      "inputs": [
        {
          "internalType": "address",
          "name": "owner",
          "type": "address"
        }
      ],
      "name": "balanceOf",
      "outputs": [
        {
          "internalType": "uint256",
          "name": "",
          "type": "uint256"
        }
      ],
      "stateMutability": "view",
      "type": "function"
    },
    {
      "inputs": [
        {
          "internalType": "uint256",
          "name": "tokenId",
          "type": "uint256"
        }
      ],
      "name": "getApproved",
      "outputs": [
        {
          "internalType": "address",
          "name": "",
          "type": "address"
        }
      ],
      "stateMutability": "view",
      "type": "function"
    },
    {
      "inputs": [
        {
          "internalType": "uint256",
          "name": "_articleId",
          "type": "uint256"
        }
      ],
      "name": "getArticle",
      "outputs": [
        {
          "internalType": "string",
          "name": "",
          "type": "string"
        },
        {
          "internalType": "string",
          "name": "",
          "type": "string"
        },
        {
          "internalType": "address",
          "name": "",
          "type": "address"
        },
        {
          "internalType": "bool",
          "name": "",
          "type": "bool"
        },
        {
          "internalType": "string",
          "name": "",
          "type": "string"
        }
      ],
      "stateMutability": "view",
      "type": "function"
    },
    {
      "inputs": [
        {
          "internalType": "address",
          "name": "owner",
          "type": "address"
        },
        {
          "internalType": "address",
          "name": "operator",
          "type": "address"
        }
      ],
      "name": "isApprovedForAll",
      "outputs": [
        {
          "internalType": "bool",
          "name": "",
          "type": "bool"
        }
      ],
      "stateMutability": "view",
      "type": "function"
    },
    {
      "inputs": [
        {
          "internalType": "string",
          "name": "_title",
          "type": "string"
        },
        {
          "internalType": "string",
          "name": "_author",
          "type": "string"
        },
        {
          "internalType": "bool",
          "name": "_peerReviewed",
          "type": "bool"
        },
        {
          "internalType": "string",
          "name": "_ipfsHash",
          "type": "string"
        }
      ],
      "name": "mint",
      "outputs": [
        {
          "internalType": "uint256",
          "name": "",
          "type": "uint256"
        }
      ],
      "stateMutability": "nonpayable",
      "type": "function"
    },
    {
      "inputs": [],
      "name": "name",
      "outputs": [
        {
          "internalType": "string",
          "name": "",
          "type": "string"
        }
      ],
      "stateMutability": "view",
      "type": "function"
    },
    {
      "inputs": [],
      "name": "owner",
      "outputs": [
        {
          "internalType": "address",
          "name": "",
          "type": "address"
        }
      ],
      "stateMutability": "view",
      "type": "function"
    },
    {
      "inputs": [
        {
          "internalType": "uint256",
          "name": "tokenId",
          "type": "uint256"
        }
      ],
      "name": "ownerOf",
      "outputs": [
        {
          "internalType": "address",
          "name": "",
          "type": "address"
        }
      ],
      "stateMutability": "view",
      "type": "function"
    },
    {
      "inputs": [],
      "name": "renounceOwnership",
      "outputs": [],
      "stateMutability": "nonpayable",
      "type": "function"
    },
    {
      "inputs": [
        {
          "internalType": "address",
          "name": "from",
          "type": "address"
        },
        {
          "internalType": "address",
          "name": "to",
          "type": "address"
        },
        {
          "internalType": "uint256",
          "name": "tokenId",
          "type": "uint256"
        }
      ],
      "name": "safeTransferFrom",
      "outputs": [],
      "stateMutability": "nonpayable",
      "type": "function"
    },
    {
      "inputs": [
        {
          "internalType": "address",
          "name": "from",
          "type": "address"
        },
        {
          "internalType": "address",
          "name": "to",
          "type": "address"
        },
        {
          "internalType": "uint256",
          "name": "tokenId",
          "type": "uint256"
        },
        {
          "internalType": "bytes",
          "name": "data",
          "type": "bytes"
        }
      ],
      "name": "safeTransferFrom",
      "outputs": [],
      "stateMutability": "nonpayable",
      "type": "function"
    },
    {
      "inputs": [
        {
          "internalType": "address",
          "name": "operator",
          "type": "address"
        },
        {
          "internalType": "bool",
          "name": "approved",
          "type": "bool"
        }
      ],
      "name": "setApprovalForAll",
      "outputs": [],
      "stateMutability": "nonpayable",
      "type": "function"
    },
    {
      "inputs": [
        {
          "internalType": "bytes4",
          "name": "interfaceId",
          "type": "bytes4"
        }
      ],
      "name": "supportsInterface",
      "outputs": [
        {
          "internalType": "bool",
          "name": "",
          "type": "bool"
        }
      ],
      "stateMutability": "view",
      "type": "function"
    },
    {
      "inputs": [],
      "name": "symbol",
      "outputs": [
        {
          "internalType": "string",
          "name": "",
          "type": "string"
        }
      ],
      "stateMutability": "view",
      "type": "function"
    },
    {
      "inputs": [
        {
          "internalType": "uint256",
          "name": "tokenId",
          "type": "uint256"
        }
      ],
      "name": "tokenURI",
      "outputs": [
        {
          "internalType": "string",
          "name": "",
          "type": "string"
        }
      ],
      "stateMutability": "view",
      "type": "function"
    },
    {
      "inputs": [
        {
          "internalType": "address",
          "name": "from",
          "type": "address"
        },
        {
          "internalType": "address",
          "name": "to",
          "type": "address"
        },
        {
          "internalType": "uint256",
          "name": "tokenId",
          "type": "uint256"
        }
      ],
      "name": "transferFrom",
      "outputs": [],
      "stateMutability": "nonpayable",
      "type": "function"
    },
    {
      "inputs": [
        {
          "internalType": "address",
          "name": "newOwner",
          "type": "address"
        }
      ],
      "name": "transferOwnership",
      "outputs": [],
      "stateMutability": "nonpayable",
      "type": "function"
    }
  ],
  "bytecode": "0x60806040523480156200001157600080fd5b506040516200391a3803806200391a8339818101604052810190620000379190620002e8565b818181600090816200004a9190620005b8565b5080600190816200005c9190620005b8565b5050506200007f620000736200008760201b60201c565b6200008f60201b60201c565b50506200069f565b600033905090565b6000600760009054906101000a900473ffffffffffffffffffffffffffffffffffffffff16905081600760006101000a81548173ffffffffffffffffffffffffffffffffffffffff021916908373ffffffffffffffffffffffffffffffffffffffff1602179055508173ffffffffffffffffffffffffffffffffffffffff168173ffffffffffffffffffffffffffffffffffffffff167f8be0079c531659141344cd1fd0a4f28419497f9722a3daafe3b4186f6b6457e060405160405180910390a35050565b6000604051905090565b600080fd5b600080fd5b600080fd5b600080fd5b6000601f19601f8301169050919050565b7f4e487b7100000000000000000000000000000000000000000000000000000000600052604160045260246000fd5b620001be8262000173565b810181811067ffffffffffffffff82111715620001e057620001df62000184565b5b80604052505050565b6000620001f562000155565b9050620002038282620001b3565b919050565b600067ffffffffffffffff82111562000226576200022562000184565b5b620002318262000173565b9050602081019050919050565b60005b838110156200025e57808201518184015260208101905062000241565b60008484015250505050565b6000620002816200027b8462000208565b620001e9565b905082815260208101848484011115620002a0576200029f6200016e565b5b620002ad8482856200023e565b509392505050565b600082601f830112620002cd57620002cc62000169565b5b8151620002df8482602086016200026a565b91505092915050565b600080604083850312156200030257620003016200015f565b5b600083015167ffffffffffffffff81111562000323576200032262000164565b5b6200033185828601620002b5565b925050602083015167ffffffffffffffff81111562000355576200035462000164565b5b6200036385828601620002b5565b9150509250929050565b600081519050919050565b7f4e487b7100000000000000000000000000000000000000000000000000000000600052602260045260246000fd5b60006002820490506001821680620003c057607f821691505b602082108103620003d657620003d562000378565b5b50919050565b60008190508160005260206000209050919050565b60006020601f8301049050919050565b600082821b905092915050565b600060088302620004407fffffffffffffffffffffffffffffffffffffffffffffffffffffffffffffffff8262000401565b6200044c868362000401565b95508019841693508086168417925050509392505050565b6000819050919050565b6000819050919050565b600062000499620004936200048d8462000464565b6200046e565b62000464565b9050919050565b6000819050919050565b620004b58362000478565b620004cd620004c482620004a0565b8484546200040e565b825550505050565b600090565b620004e4620004d5565b620004f1818484620004aa565b505050565b5b8181101562000519576200050d600082620004da565b600181019050620004f7565b5050565b601f82111562000568576200053281620003dc565b6200053d84620003f1565b810160208510156200054d578190505b620005656200055c85620003f1565b830182620004f6565b50505b505050565b600082821c905092915050565b60006200058d600019846008026200056d565b1980831691505092915050565b6000620005a883836200057a565b9150826002028217905092915050565b620005c3826200036d565b67ffffffffffffffff811115620005df57620005de62000184565b5b620005eb8254620003a7565b620005f88282856200051d565b600060209050601f8311600181146200063057600084156200061b578287015190505b6200062785826200059a565b86555062000697565b601f1984166200064086620003dc565b60005b828110156200066a5784890151825560018201915060208501945060208101905062000643565b868310156200068a578489015162000686601f8916826200057a565b8355505b6001600288020188555050505b505050505050565b61326b80620006af6000396000f3fe608060405234801561001057600080fd5b50600436106101165760003560e01c80638da5cb5b116100a2578063b88d4fde11610071578063b88d4fde146102df578063bd85d867146102fb578063c87b56dd1461032f578063e985e9c51461035f578063f2fde38b1461038f57610116565b80638da5cb5b14610257578063953214061461027557806395d89b41146102a5578063a22cb465146102c357610116565b806323b872dd116100e957806323b872dd146101b557806342842e0e146101d15780636352211e146101ed57806370a082311461021d578063715018a61461024d57610116565b806301ffc9a71461011b57806306fdde031461014b578063081812fc14610169578063095ea7b314610199575b600080fd5b61013560048036038101906101309190611f66565b6103ab565b6040516101429190611fae565b60405180910390f35b61015361048d565b6040516101609190612059565b60405180910390f35b610183600480360381019061017e91906120b1565b61051f565b604051610190919061211f565b60405180910390f35b6101b360048036038101906101ae9190612166565b610565565b005b6101cf60048036038101906101ca91906121a6565b61067c565b005b6101eb60048036038101906101e691906121a6565b6106dc565b005b610207600480360381019061020291906120b1565b6106fc565b604051610214919061211f565b60405180910390f35b610237600480360381019061023291906121f9565b610782565b6040516102449190612235565b60405180910390f35b610255610839565b005b61025f61084d565b60405161026c919061211f565b60405180910390f35b61028f600480360381019061028a91906123b1565b610877565b60405161029c9190612235565b60405180910390f35b6102ad6109b7565b6040516102ba9190612059565b60405180910390f35b6102dd60048036038101906102d8919061246c565b610a49565b005b6102f960048036038101906102f4919061254d565b610a5f565b005b610315600480360381019061031091906120b1565b610ac1565b6040516103269594939291906125d0565b60405180910390f35b610349600480360381019061034491906120b1565b610cea565b6040516103569190612059565b60405180910390f35b61037960048036038101906103749190612638565b610dfc565b6040516103869190611fae565b60405180910390f35b6103a960048036038101906103a491906121f9565b610e90565b005b60007f80ac58cd000000000000000000000000000000000000000000000000000000007bffffffffffffffffffffffffffffffffffffffffffffffffffffffff1916827bffffffffffffffffffffffffffffffffffffffffffffffffffffffff1916148061047657507f5b5e139f000000000000000000000000000000000000000000000000000000007bffffffffffffffffffffffffffffffffffffffffffffffffffffffff1916827bffffffffffffffffffffffffffffffffffffffffffffffffffffffff1916145b80610486575061048582610f13565b5b9050919050565b60606000805461049c906126a7565b80601f01602080910402602001604051908101604052809291908181526020018280546104c8906126a7565b80156105155780601f106104ea57610100808354040283529160200191610515565b820191906000526020600020905b8154815290600101906020018083116104f857829003601f168201915b5050505050905090565b600061052a82610f7d565b6004600083815260200190815260200160002060009054906101000a900473ffffffffffffffffffffffffffffffffffffffff169050919050565b6000610570826106fc565b90508073ffffffffffffffffffffffffffffffffffffffff168373ffffffffffffffffffffffffffffffffffffffff16036105e0576040517f08c379a00000000000000000000000000000000000000000000000000000000081526004016105d79061274a565b60405180910390fd5b8073ffffffffffffffffffffffffffffffffffffffff166105ff610fc8565b73ffffffffffffffffffffffffffffffffffffffff16148061062e575061062d81610628610fc8565b610dfc565b5b61066d576040517f08c379a0000000000000000000000000000000000000000000000000000000008152600401610664906127dc565b60405180910390fd5b6106778383610fd0565b505050565b61068d610687610fc8565b82611089565b6106cc576040517f08c379a00000000000000000000000000000000000000000000000000000000081526004016106c39061286e565b60405180910390fd5b6106d783838361111e565b505050565b6106f783838360405180602001604052806000815250610a5f565b505050565b60008061070883611417565b9050600073ffffffffffffffffffffffffffffffffffffffff168173ffffffffffffffffffffffffffffffffffffffff1603610779576040517f08c379a0000000000000000000000000000000000000000000000000000000008152600401610770906128da565b60405180910390fd5b80915050919050565b60008073ffffffffffffffffffffffffffffffffffffffff168273ffffffffffffffffffffffffffffffffffffffff16036107f2576040517f08c379a00000000000000000000000000000000000000000000000000000000081526004016107e99061296c565b60405180910390fd5b600360008373ffffffffffffffffffffffffffffffffffffffff1673ffffffffffffffffffffffffffffffffffffffff168152602001908152602001600020549050919050565b610841611454565b61084b60006114d2565b565b6000600760009054906101000a900473ffffffffffffffffffffffffffffffffffffffff16905090565b600080600880549050905060086040518060a001604052808881526020018781526020013373ffffffffffffffffffffffffffffffffffffffff168152602001861515815260200185815250908060018154018082558091505060019003906000526020600020906004020160009091909190915060008201518160000190816109019190612b38565b5060208201518160010190816109179190612b38565b5060408201518160020160006101000a81548173ffffffffffffffffffffffffffffffffffffffff021916908373ffffffffffffffffffffffffffffffffffffffff16021790555060608201518160020160146101000a81548160ff02191690831515021790555060808201518160030190816109949190612b38565b5050506109a13382611598565b6109ab81846115b6565b80915050949350505050565b6060600180546109c6906126a7565b80601f01602080910402602001604051908101604052809291908181526020018280546109f2906126a7565b8015610a3f5780601f10610a1457610100808354040283529160200191610a3f565b820191906000526020600020905b815481529060010190602001808311610a2257829003601f168201915b5050505050905090565b610a5b610a54610fc8565b8383611623565b5050565b610a70610a6a610fc8565b83611089565b610aaf576040517f08c379a0000000000000000000000000000000000000000000000000000000008152600401610aa69061286e565b60405180910390fd5b610abb8484848461178f565b50505050565b6060806000806060600060088781548110610adf57610ade612c0a565b5b9060005260206000209060040201905080600001816001018260020160009054906101000a900473ffffffffffffffffffffffffffffffffffffffff168360020160149054906101000a900460ff1684600301848054610b3e906126a7565b80601f0160208091040260200160405190810160405280929190818152602001828054610b6a906126a7565b8015610bb75780601f10610b8c57610100808354040283529160200191610bb7565b820191906000526020600020905b815481529060010190602001808311610b9a57829003601f168201915b50505050509450838054610bca906126a7565b80601f0160208091040260200160405190810160405280929190818152602001828054610bf6906126a7565b8015610c435780601f10610c1857610100808354040283529160200191610c43565b820191906000526020600020905b815481529060010190602001808311610c2657829003601f168201915b50505050509350808054610c56906126a7565b80601f0160208091040260200160405190810160405280929190818152602001828054610c82906126a7565b8015610ccf5780601f10610ca457610100808354040283529160200191610ccf565b820191906000526020600020905b815481529060010190602001808311610cb257829003601f168201915b50505050509050955095509550955095505091939590929450565b6060610cf582610f7d565b6000600660008481526020019081526020016000208054610d15906126a7565b80601f0160208091040260200160405190810160405280929190818152602001828054610d41906126a7565b8015610d8e5780601f10610d6357610100808354040283529160200191610d8e565b820191906000526020600020905b815481529060010190602001808311610d7157829003601f168201915b505050505090506000610d9f6117eb565b90506000815103610db4578192505050610df7565b600082511115610de9578082604051602001610dd1929190612c75565b60405160208183030381529060405292505050610df7565b610df284611802565b925050505b919050565b6000600560008473ffffffffffffffffffffffffffffffffffffffff1673ffffffffffffffffffffffffffffffffffffffff16815260200190815260200160002060008373ffffffffffffffffffffffffffffffffffffffff1673ffffffffffffffffffffffffffffffffffffffff16815260200190815260200160002060009054906101000a900460ff16905092915050565b610e98611454565b600073ffffffffffffffffffffffffffffffffffffffff168173ffffffffffffffffffffffffffffffffffffffff1603610f07576040517f08c379a0000000000000000000000000000000000000000000000000000000008152600401610efe90612d0b565b60405180910390fd5b610f10816114d2565b50565b60007f01ffc9a7000000000000000000000000000000000000000000000000000000007bffffffffffffffffffffffffffffffffffffffffffffffffffffffff1916827bffffffffffffffffffffffffffffffffffffffffffffffffffffffff1916149050919050565b610f868161186a565b610fc5576040517f08c379a0000000000000000000000000000000000000000000000000000000008152600401610fbc906128da565b60405180910390fd5b50565b600033905090565b816004600083815260200190815260200160002060006101000a81548173ffffffffffffffffffffffffffffffffffffffff021916908373ffffffffffffffffffffffffffffffffffffffff160217905550808273ffffffffffffffffffffffffffffffffffffffff16611043836106fc565b73ffffffffffffffffffffffffffffffffffffffff167f8c5be1e5ebec7d5bd14f71427d1e84f3dd0314c0f7b2291e5b200ac8c7c3b92560405160405180910390a45050565b600080611095836106fc565b90508073ffffffffffffffffffffffffffffffffffffffff168473ffffffffffffffffffffffffffffffffffffffff1614806110d757506110d68185610dfc565b5b8061111557508373ffffffffffffffffffffffffffffffffffffffff166110fd8461051f565b73ffffffffffffffffffffffffffffffffffffffff16145b91505092915050565b8273ffffffffffffffffffffffffffffffffffffffff1661113e826106fc565b73ffffffffffffffffffffffffffffffffffffffff1614611194576040517f08c379a000000000000000000000000000000000000000000000000000000000815260040161118b90612d9d565b60405180910390fd5b600073ffffffffffffffffffffffffffffffffffffffff168273ffffffffffffffffffffffffffffffffffffffff1603611203576040517f08c379a00000000000000000000000000000000000000000000000000000000081526004016111fa90612e2f565b60405180910390fd5b61121083838360016118ab565b8273ffffffffffffffffffffffffffffffffffffffff16611230826106fc565b73ffffffffffffffffffffffffffffffffffffffff1614611286576040517f08c379a000000000000000000000000000000000000000000000000000000000815260040161127d90612d9d565b60405180910390fd5b6004600082815260200190815260200160002060006101000a81549073ffffffffffffffffffffffffffffffffffffffff02191690556001600360008573ffffffffffffffffffffffffffffffffffffffff1673ffffffffffffffffffffffffffffffffffffffff168152602001908152602001600020600082825403925050819055506001600360008473ffffffffffffffffffffffffffffffffffffffff1673ffffffffffffffffffffffffffffffffffffffff16815260200190815260200160002060008282540192505081905550816002600083815260200190815260200160002060006101000a81548173ffffffffffffffffffffffffffffffffffffffff021916908373ffffffffffffffffffffffffffffffffffffffff160217905550808273ffffffffffffffffffffffffffffffffffffffff168473ffffffffffffffffffffffffffffffffffffffff167fddf252ad1be2c89b69c2b068fc378daa952ba7f163c4a11628f55a4df523b3ef60405160405180910390a461141283838360016118b1565b505050565b60006002600083815260200190815260200160002060009054906101000a900473ffffffffffffffffffffffffffffffffffffffff169050919050565b61145c610fc8565b73ffffffffffffffffffffffffffffffffffffffff1661147a61084d565b73ffffffffffffffffffffffffffffffffffffffff16146114d0576040517f08c379a00000000000000000000000000000000000000000000000000000000081526004016114c790612e9b565b60405180910390fd5b565b6000600760009054906101000a900473ffffffffffffffffffffffffffffffffffffffff16905081600760006101000a81548173ffffffffffffffffffffffffffffffffffffffff021916908373ffffffffffffffffffffffffffffffffffffffff1602179055508173ffffffffffffffffffffffffffffffffffffffff168173ffffffffffffffffffffffffffffffffffffffff167f8be0079c531659141344cd1fd0a4f28419497f9722a3daafe3b4186f6b6457e060405160405180910390a35050565b6115b28282604051806020016040528060008152506118b7565b5050565b6115bf8261186a565b6115fe576040517f08c379a00000000000000000000000000000000000000000000000000000000081526004016115f590612f2d565b60405180910390fd5b8060066000848152602001908152602001600020908161161e9190612b38565b505050565b8173ffffffffffffffffffffffffffffffffffffffff168373ffffffffffffffffffffffffffffffffffffffff1603611691576040517f08c379a000000000000000000000000000000000000000000000000000000000815260040161168890612f99565b60405180910390fd5b80600560008573ffffffffffffffffffffffffffffffffffffffff1673ffffffffffffffffffffffffffffffffffffffff16815260200190815260200160002060008473ffffffffffffffffffffffffffffffffffffffff1673ffffffffffffffffffffffffffffffffffffffff16815260200190815260200160002060006101000a81548160ff0219169083151502179055508173ffffffffffffffffffffffffffffffffffffffff168373ffffffffffffffffffffffffffffffffffffffff167f17307eab39ab6107e8899845ad3d59bd9653f200f220920489ca2b5937696c31836040516117829190611fae565b60405180910390a3505050565b61179a84848461111e565b6117a684848484611912565b6117e5576040517f08c379a00000000000000000000000000000000000000000000000000000000081526004016117dc9061302b565b60405180910390fd5b50505050565b606060405180602001604052806000815250905090565b606061180d82610f7d565b60006118176117eb565b905060008151116118375760405180602001604052806000815250611862565b8061184184611a99565b604051602001611852929190612c75565b6040516020818303038152906040525b915050919050565b60008073ffffffffffffffffffffffffffffffffffffffff1661188c83611417565b73ffffffffffffffffffffffffffffffffffffffff1614159050919050565b50505050565b50505050565b6118c18383611b67565b6118ce6000848484611912565b61190d576040517f08c379a00000000000000000000000000000000000000000000000000000000081526004016119049061302b565b60405180910390fd5b505050565b60006119338473ffffffffffffffffffffffffffffffffffffffff16611d84565b15611a8c578373ffffffffffffffffffffffffffffffffffffffff1663150b7a0261195c610fc8565b8786866040518563ffffffff1660e01b815260040161197e94939291906130a0565b6020604051808303816000875af19250505080156119ba57506040513d601f19601f820116820180604052508101906119b79190613101565b60015b611a3c573d80600081146119ea576040519150601f19603f3d011682016040523d82523d6000602084013e6119ef565b606091505b506000815103611a34576040517f08c379a0000000000000000000000000000000000000000000000000000000008152600401611a2b9061302b565b60405180910390fd5b805181602001fd5b63150b7a0260e01b7bffffffffffffffffffffffffffffffffffffffffffffffffffffffff1916817bffffffffffffffffffffffffffffffffffffffffffffffffffffffff191614915050611a91565b600190505b949350505050565b606060006001611aa884611da7565b01905060008167ffffffffffffffff811115611ac757611ac661225a565b5b6040519080825280601f01601f191660200182016040528015611af95781602001600182028036833780820191505090505b509050600082602001820190505b600115611b5c578080600190039150507f3031323334353637383961626364656600000000000000000000000000000000600a86061a8153600a8581611b5057611b4f61312e565b5b04945060008503611b07575b819350505050919050565b600073ffffffffffffffffffffffffffffffffffffffff168273ffffffffffffffffffffffffffffffffffffffff1603611bd6576040517f08c379a0000000000000000000000000000000000000000000000000000000008152600401611bcd906131a9565b60405180910390fd5b611bdf8161186a565b15611c1f576040517f08c379a0000000000000000000000000000000000000000000000000000000008152600401611c1690613215565b60405180910390fd5b611c2d6000838360016118ab565b611c368161186a565b15611c76576040517f08c379a0000000000000000000000000000000000000000000000000000000008152600401611c6d90613215565b60405180910390fd5b6001600360008473ffffffffffffffffffffffffffffffffffffffff1673ffffffffffffffffffffffffffffffffffffffff16815260200190815260200160002060008282540192505081905550816002600083815260200190815260200160002060006101000a81548173ffffffffffffffffffffffffffffffffffffffff021916908373ffffffffffffffffffffffffffffffffffffffff160217905550808273ffffffffffffffffffffffffffffffffffffffff16600073ffffffffffffffffffffffffffffffffffffffff167fddf252ad1be2c89b69c2b068fc378daa952ba7f163c4a11628f55a4df523b3ef60405160405180910390a4611d806000838360016118b1565b5050565b6000808273ffffffffffffffffffffffffffffffffffffffff163b119050919050565b600080600090507a184f03e93ff9f4daa797ed6e38ed64bf6a1f0100000000000000008310611e05577a184f03e93ff9f4daa797ed6e38ed64bf6a1f0100000000000000008381611dfb57611dfa61312e565b5b0492506040810190505b6d04ee2d6d415b85acef81000000008310611e42576d04ee2d6d415b85acef81000000008381611e3857611e3761312e565b5b0492506020810190505b662386f26fc100008310611e7157662386f26fc100008381611e6757611e6661312e565b5b0492506010810190505b6305f5e1008310611e9a576305f5e1008381611e9057611e8f61312e565b5b0492506008810190505b6127108310611ebf576127108381611eb557611eb461312e565b5b0492506004810190505b60648310611ee25760648381611ed857611ed761312e565b5b0492506002810190505b600a8310611ef1576001810190505b80915050919050565b6000604051905090565b600080fd5b600080fd5b60007fffffffff0000000000000000000000000000000000000000000000000000000082169050919050565b611f4381611f0e565b8114611f4e57600080fd5b50565b600081359050611f6081611f3a565b92915050565b600060208284031215611f7c57611f7b611f04565b5b6000611f8a84828501611f51565b91505092915050565b60008115159050919050565b611fa881611f93565b82525050565b6000602082019050611fc36000830184611f9f565b92915050565b600081519050919050565b600082825260208201905092915050565b60005b83811015612003578082015181840152602081019050611fe8565b60008484015250505050565b6000601f19601f8301169050919050565b600061202b82611fc9565b6120358185611fd4565b9350612045818560208601611fe5565b61204e8161200f565b840191505092915050565b600060208201905081810360008301526120738184612020565b905092915050565b6000819050919050565b61208e8161207b565b811461209957600080fd5b50565b6000813590506120ab81612085565b92915050565b6000602082840312156120c7576120c6611f04565b5b60006120d58482850161209c565b91505092915050565b600073ffffffffffffffffffffffffffffffffffffffff82169050919050565b6000612109826120de565b9050919050565b612119816120fe565b82525050565b60006020820190506121346000830184612110565b92915050565b612143816120fe565b811461214e57600080fd5b50565b6000813590506121608161213a565b92915050565b6000806040838503121561217d5761217c611f04565b5b600061218b85828601612151565b925050602061219c8582860161209c565b9150509250929050565b6000806000606084860312156121bf576121be611f04565b5b60006121cd86828701612151565b93505060206121de86828701612151565b92505060406121ef8682870161209c565b9150509250925092565b60006020828403121561220f5761220e611f04565b5b600061221d84828501612151565b91505092915050565b61222f8161207b565b82525050565b600060208201905061224a6000830184612226565b92915050565b600080fd5b600080fd5b7f4e487b7100000000000000000000000000000000000000000000000000000000600052604160045260246000fd5b6122928261200f565b810181811067ffffffffffffffff821117156122b1576122b061225a565b5b80604052505050565b60006122c4611efa565b90506122d08282612289565b919050565b600067ffffffffffffffff8211156122f0576122ef61225a565b5b6122f98261200f565b9050602081019050919050565b82818337600083830152505050565b6000612328612323846122d5565b6122ba565b90508281526020810184848401111561234457612343612255565b5b61234f848285612306565b509392505050565b600082601f83011261236c5761236b612250565b5b813561237c848260208601612315565b91505092915050565b61238e81611f93565b811461239957600080fd5b50565b6000813590506123ab81612385565b92915050565b600080600080608085870312156123cb576123ca611f04565b5b600085013567ffffffffffffffff8111156123e9576123e8611f09565b5b6123f587828801612357565b945050602085013567ffffffffffffffff81111561241657612415611f09565b5b61242287828801612357565b93505060406124338782880161239c565b925050606085013567ffffffffffffffff81111561245457612453611f09565b5b61246087828801612357565b91505092959194509250565b6000806040838503121561248357612482611f04565b5b600061249185828601612151565b92505060206124a28582860161239c565b9150509250929050565b600067ffffffffffffffff8211156124c7576124c661225a565b5b6124d08261200f565b9050602081019050919050565b60006124f06124eb846124ac565b6122ba565b90508281526020810184848401111561250c5761250b612255565b5b612517848285612306565b509392505050565b600082601f83011261253457612533612250565b5b81356125448482602086016124dd565b91505092915050565b6000806000806080858703121561256757612566611f04565b5b600061257587828801612151565b945050602061258687828801612151565b93505060406125978782880161209c565b925050606085013567ffffffffffffffff8111156125b8576125b7611f09565b5b6125c48782880161251f565b91505092959194509250565b600060a08201905081810360008301526125ea8188612020565b905081810360208301526125fe8187612020565b905061260d6040830186612110565b61261a6060830185611f9f565b818103608083015261262c8184612020565b90509695505050505050565b6000806040838503121561264f5761264e611f04565b5b600061265d85828601612151565b925050602061266e85828601612151565b9150509250929050565b7f4e487b7100000000000000000000000000000000000000000000000000000000600052602260045260246000fd5b600060028204905060018216806126bf57607f821691505b6020821081036126d2576126d1612678565b5b50919050565b7f4552433732313a20617070726f76616c20746f2063757272656e74206f776e6560008201527f7200000000000000000000000000000000000000000000000000000000000000602082015250565b6000612734602183611fd4565b915061273f826126d8565b604082019050919050565b6000602082019050818103600083015261276381612727565b9050919050565b7f4552433732313a20617070726f76652063616c6c6572206973206e6f7420746f60008201527f6b656e206f776e6572206f7220617070726f76656420666f7220616c6c000000602082015250565b60006127c6603d83611fd4565b91506127d18261276a565b604082019050919050565b600060208201905081810360008301526127f5816127b9565b9050919050565b7f4552433732313a2063616c6c6572206973206e6f7420746f6b656e206f776e6560008201527f72206f7220617070726f76656400000000000000000000000000000000000000602082015250565b6000612858602d83611fd4565b9150612863826127fc565b604082019050919050565b600060208201905081810360008301526128878161284b565b9050919050565b7f4552433732313a20696e76616c696420746f6b656e2049440000000000000000600082015250565b60006128c4601883611fd4565b91506128cf8261288e565b602082019050919050565b600060208201905081810360008301526128f3816128b7565b9050919050565b7f4552433732313a2061646472657373207a65726f206973206e6f74206120766160008201527f6c6964206f776e65720000000000000000000000000000000000000000000000602082015250565b6000612956602983611fd4565b9150612961826128fa565b604082019050919050565b6000602082019050818103600083015261298581612949565b9050919050565b60008190508160005260206000209050919050565b60006020601f8301049050919050565b600082821b905092915050565b6000600883026129ee7fffffffffffffffffffffffffffffffffffffffffffffffffffffffffffffffff826129b1565b6129f886836129b1565b95508019841693508086168417925050509392505050565b6000819050919050565b6000612a35612a30612a2b8461207b565b612a10565b61207b565b9050919050565b6000819050919050565b612a4f83612a1a565b612a63612a5b82612a3c565b8484546129be565b825550505050565b600090565b612a78612a6b565b612a83818484612a46565b505050565b5b81811015612aa757612a9c600082612a70565b600181019050612a89565b5050565b601f821115612aec57612abd8161298c565b612ac6846129a1565b81016020851015612ad5578190505b612ae9612ae1856129a1565b830182612a88565b50505b505050565b600082821c905092915050565b6000612b0f60001984600802612af1565b1980831691505092915050565b6000612b288383612afe565b9150826002028217905092915050565b612b4182611fc9565b67ffffffffffffffff811115612b5a57612b5961225a565b5b612b6482546126a7565b612b6f828285612aab565b600060209050601f831160018114612ba25760008415612b90578287015190505b612b9a8582612b1c565b865550612c02565b601f198416612bb08661298c565b60005b82811015612bd857848901518255600182019150602085019450602081019050612bb3565b86831015612bf55784890151612bf1601f891682612afe565b8355505b6001600288020188555050505b505050505050565b7f4e487b7100000000000000000000000000000000000000000000000000000000600052603260045260246000fd5b600081905092915050565b6000612c4f82611fc9565b612c598185612c39565b9350612c69818560208601611fe5565b80840191505092915050565b6000612c818285612c44565b9150612c8d8284612c44565b91508190509392505050565b7f4f776e61626c653a206e6577206f776e657220697320746865207a65726f206160008201527f6464726573730000000000000000000000000000000000000000000000000000602082015250565b6000612cf5602683611fd4565b9150612d0082612c99565b604082019050919050565b60006020820190508181036000830152612d2481612ce8565b9050919050565b7f4552433732313a207472616e736665722066726f6d20696e636f72726563742060008201527f6f776e6572000000000000000000000000000000000000000000000000000000602082015250565b6000612d87602583611fd4565b9150612d9282612d2b565b604082019050919050565b60006020820190508181036000830152612db681612d7a565b9050919050565b7f4552433732313a207472616e7366657220746f20746865207a65726f2061646460008201527f7265737300000000000000000000000000000000000000000000000000000000602082015250565b6000612e19602483611fd4565b9150612e2482612dbd565b604082019050919050565b60006020820190508181036000830152612e4881612e0c565b9050919050565b7f4f776e61626c653a2063616c6c6572206973206e6f7420746865206f776e6572600082015250565b6000612e85602083611fd4565b9150612e9082612e4f565b602082019050919050565b60006020820190508181036000830152612eb481612e78565b9050919050565b7f45524337323155524953746f726167653a2055524920736574206f66206e6f6e60008201527f6578697374656e7420746f6b656e000000000000000000000000000000000000602082015250565b6000612f17602e83611fd4565b9150612f2282612ebb565b604082019050919050565b60006020820190508181036000830152612f4681612f0a565b9050919050565b7f4552433732313a20617070726f766520746f2063616c6c657200000000000000600082015250565b6000612f83601983611fd4565b9150612f8e82612f4d565b602082019050919050565b60006020820190508181036000830152612fb281612f76565b9050919050565b7f4552433732313a207472616e7366657220746f206e6f6e20455243373231526560008201527f63656976657220696d706c656d656e7465720000000000000000000000000000602082015250565b6000613015603283611fd4565b915061302082612fb9565b604082019050919050565b6000602082019050818103600083015261304481613008565b9050919050565b600081519050919050565b600082825260208201905092915050565b60006130728261304b565b61307c8185613056565b935061308c818560208601611fe5565b6130958161200f565b840191505092915050565b60006080820190506130b56000830187612110565b6130c26020830186612110565b6130cf6040830185612226565b81810360608301526130e18184613067565b905095945050505050565b6000815190506130fb81611f3a565b92915050565b60006020828403121561311757613116611f04565b5b6000613125848285016130ec565b91505092915050565b7f4e487b7100000000000000000000000000000000000000000000000000000000600052601260045260246000fd5b7f4552433732313a206d696e7420746f20746865207a65726f2061646472657373600082015250565b6000613193602083611fd4565b915061319e8261315d565b602082019050919050565b600060208201905081810360008301526131c281613186565b9050919050565b7f4552433732313a20746f6b656e20616c7265616479206d696e74656400000000600082015250565b60006131ff601c83611fd4565b915061320a826131c9565b602082019050919050565b6000602082019050818103600083015261322e816131f2565b905091905056fea2646970667358221220386a7bf5cd91a7f528286b4d5fc0fb7c38445f1daba1dca2df23692751cf6f8864736f6c63430008120033",
  "linkReferences": {},
  "deployedLinkReferences": {}
}