{
  "_format": "hh-sol-artifact-1",
  "contractName": "learntgetherCommunities",
  "sourceName": "contracts/learntgetherCommunities.sol",
  "abi": [
    {
      "inputs": [
        {
          "internalType": "uint256",
          "name": "_feePrice",
          "type": "uint256"
        },
        {
          "internalType": "address payable",
          "name": "_feeAddress",
          "type": "address"
        }
      ],
      "stateMutability": "nonpayable",
      "type": "constructor"
    },
    {
      "anonymous": false,
      "inputs": [
        {
          "indexed": true,
          "internalType": "string",
          "name": "communityName",
          "type": "string"
        },
        {
          "indexed": false,
          "internalType": "address",
          "name": "creator",
          "type": "address"
        },
        {
          "indexed": false,
          "internalType": "bool",
          "name": "isInviteOnly",
          "type": "bool"
        }
      ],
      "name": "CommunityCreated",
      "type": "event"
    },
    {
      "anonymous": false,
      "inputs": [
        {
          "indexed": true,
          "internalType": "string",
          "name": "communityName",
          "type": "string"
        },
        {
          "indexed": false,
          "internalType": "uint256",
          "name": "minCredsToProposeVote",
          "type": "uint256"
        },
        {
          "indexed": false,
          "internalType": "uint256",
          "name": "minCredsToVote",
          "type": "uint256"
        },
        {
          "indexed": false,
          "internalType": "uint256",
          "name": "maxCredsCountedForVote",
          "type": "uint256"
        },
        {
          "indexed": false,
          "internalType": "uint256",
          "name": "minProposalVotes",
          "type": "uint256"
        },
        {
          "indexed": false,
          "internalType": "uint256",
          "name": "proposalTime",
          "type": "uint256"
        },
        {
          "indexed": false,
          "internalType": "uint256",
          "name": "proposalDelay",
          "type": "uint256"
        },
        {
          "indexed": false,
          "internalType": "bool",
          "name": "isInviteOnly",
          "type": "bool"
        }
      ],
      "name": "CommunityInfo",
      "type": "event"
    },
    {
      "anonymous": false,
      "inputs": [
        {
          "indexed": true,
          "internalType": "string",
          "name": "communityName",
          "type": "string"
        },
        {
          "indexed": true,
          "internalType": "uint256",
          "name": "proposalId",
          "type": "uint256"
        },
        {
          "indexed": false,
          "internalType": "uint256",
          "name": "minCredsToProposeVote",
          "type": "uint256"
        },
        {
          "indexed": false,
          "internalType": "uint256",
          "name": "minCredsToVote",
          "type": "uint256"
        },
        {
          "indexed": false,
          "internalType": "uint256",
          "name": "maxCredsCountedForVote",
          "type": "uint256"
        },
        {
          "indexed": false,
          "internalType": "uint256",
          "name": "minProposalVotes",
          "type": "uint256"
        },
        {
          "indexed": false,
          "internalType": "uint256",
          "name": "proposalTime",
          "type": "uint256"
        },
        {
          "indexed": false,
          "internalType": "uint256",
          "name": "proposalDelay",
          "type": "uint256"
        },
        {
          "indexed": false,
          "internalType": "bool",
          "name": "isInviteOnly",
          "type": "bool"
        }
      ],
      "name": "CommunityProposalParams",
      "type": "event"
    },
    {
      "anonymous": false,
      "inputs": [
        {
          "indexed": true,
          "internalType": "address",
          "name": "contractAddress",
          "type": "address"
        },
        {
          "indexed": true,
          "internalType": "uint256",
          "name": "proposalId",
          "type": "uint256"
        },
        {
          "indexed": true,
          "internalType": "address",
          "name": "proposer",
          "type": "address"
        }
      ],
      "name": "CustomProposalCreated",
      "type": "event"
    },
    {
      "anonymous": false,
      "inputs": [
        {
          "indexed": true,
          "internalType": "address",
          "name": "contractAddress",
          "type": "address"
        },
        {
          "indexed": true,
          "internalType": "uint256",
          "name": "proposalId",
          "type": "uint256"
        },
        {
          "indexed": true,
          "internalType": "bool",
          "name": "passed",
          "type": "bool"
        }
      ],
      "name": "CustomProposalResult",
      "type": "event"
    },
    {
      "anonymous": false,
      "inputs": [
        {
          "indexed": false,
          "internalType": "uint256",
          "name": "proposalId",
          "type": "uint256"
        },
        {
          "indexed": false,
          "internalType": "uint256",
          "name": "activeProposalsIndex",
          "type": "uint256"
        }
      ],
      "name": "IndexChange",
      "type": "event"
    },
    {
      "anonymous": false,
      "inputs": [
        {
          "indexed": true,
          "internalType": "uint256",
          "name": "proposalId",
          "type": "uint256"
        },
        {
          "indexed": true,
          "internalType": "address",
          "name": "proposer",
          "type": "address"
        },
        {
          "indexed": true,
          "internalType": "string",
          "name": "communityName",
          "type": "string"
        },
        {
          "indexed": false,
          "internalType": "uint256",
          "name": "timestamp",
          "type": "uint256"
        },
        {
          "indexed": false,
          "internalType": "uint256",
          "name": "propType",
          "type": "uint256"
        }
      ],
      "name": "ProposalCreated",
      "type": "event"
    },
    {
      "anonymous": false,
      "inputs": [
        {
          "indexed": true,
          "internalType": "uint256",
          "name": "proposalId",
          "type": "uint256"
        },
        {
          "indexed": true,
          "internalType": "bool",
          "name": "passed",
          "type": "bool"
        }
      ],
      "name": "ProposalResult",
      "type": "event"
    },
    {
      "anonymous": false,
      "inputs": [
        {
          "indexed": true,
          "internalType": "uint256",
          "name": "proposalId",
          "type": "uint256"
        },
        {
          "indexed": true,
          "internalType": "address",
          "name": "voter",
          "type": "address"
        },
        {
          "indexed": true,
          "internalType": "bool",
          "name": "voteChoice",
          "type": "bool"
        },
        {
          "indexed": false,
          "internalType": "uint256",
          "name": "credsToCount",
          "type": "uint256"
        }
      ],
      "name": "Voted",
      "type": "event"
    },
    {
      "inputs": [
        {
          "internalType": "uint256",
          "name": "",
          "type": "uint256"
        }
      ],
      "name": "CommunityNames",
      "outputs": [
        {
          "internalType": "string",
          "name": "",
          "type": "string"
        }
      ],
      "stateMutability": "view",
      "type": "function"
    },
    {
      "inputs": [
        {
          "internalType": "string",
          "name": "_communityName",
          "type": "string"
        },
        {
          "internalType": "uint256",
          "name": "_minCredsToProposeVote",
          "type": "uint256"
        },
        {
          "internalType": "uint256",
          "name": "_minCredsToVote",
          "type": "uint256"
        },
        {
          "internalType": "uint256",
          "name": "_maxCredsCountedForVote",
          "type": "uint256"
        },
        {
          "internalType": "uint256",
          "name": "_minProposalVotes",
          "type": "uint256"
        },
        {
          "internalType": "uint256",
          "name": "_proposalTime",
          "type": "uint256"
        },
        {
          "internalType": "uint256",
          "name": "_proposalDelay",
          "type": "uint256"
        },
        {
          "internalType": "bool",
          "name": "_isInviteOnly",
          "type": "bool"
        }
      ],
      "name": "CommunityProposal",
      "outputs": [
        {
          "internalType": "uint256",
          "name": "",
          "type": "uint256"
        }
      ],
      "stateMutability": "payable",
      "type": "function"
    },
    {
      "inputs": [
        {
          "internalType": "uint256",
          "name": "",
          "type": "uint256"
        }
      ],
      "name": "CommunityProposals",
      "outputs": [
        {
          "internalType": "uint256",
          "name": "minCredsToProposeVote",
          "type": "uint256"
        },
        {
          "internalType": "uint256",
          "name": "minCredsToVote",
          "type": "uint256"
        },
        {
          "internalType": "uint256",
          "name": "maxCredsCountedForVote",
          "type": "uint256"
        },
        {
          "internalType": "uint256",
          "name": "minProposalVotes",
          "type": "uint256"
        },
        {
          "internalType": "uint256",
          "name": "proposalTime",
          "type": "uint256"
        },
        {
          "internalType": "uint256",
          "name": "proposalDelay",
          "type": "uint256"
        },
        {
          "internalType": "bool",
          "name": "isInviteOnly",
          "type": "bool"
        }
      ],
      "stateMutability": "view",
      "type": "function"
    },
    {
      "inputs": [
        {
          "internalType": "string",
          "name": "_communityName",
          "type": "string"
        },
        {
          "internalType": "address",
          "name": "_contractAddress",
          "type": "address"
        }
      ],
      "name": "CustomProposal",
      "outputs": [
        {
          "internalType": "uint256",
          "name": "",
          "type": "uint256"
        }
      ],
      "stateMutability": "payable",
      "type": "function"
    },
    {
      "inputs": [
        {
          "internalType": "uint256",
          "name": "",
          "type": "uint256"
        }
      ],
      "name": "CustomProposals",
      "outputs": [
        {
          "internalType": "address",
          "name": "",
          "type": "address"
        }
      ],
      "stateMutability": "view",
      "type": "function"
    },
    {
      "inputs": [],
      "name": "MemberContract",
      "outputs": [
        {
          "internalType": "contract learntgetherMembersInterface",
          "name": "",
          "type": "address"
        }
      ],
      "stateMutability": "view",
      "type": "function"
    },
    {
      "inputs": [
        {
          "internalType": "string",
          "name": "_communityName",
          "type": "string"
        },
        {
          "internalType": "address",
          "name": "_newOwner",
          "type": "address"
        }
      ],
      "name": "changeCommunityOwner",
      "outputs": [],
      "stateMutability": "nonpayable",
      "type": "function"
    },
    {
      "inputs": [],
      "name": "checkUpKeep",
      "outputs": [
        {
          "internalType": "bool",
          "name": "upkeepNeeded",
          "type": "bool"
        },
        {
          "internalType": "bytes",
          "name": "performData",
          "type": "bytes"
        }
      ],
      "stateMutability": "view",
      "type": "function"
    },
    {
      "inputs": [
        {
          "internalType": "string",
          "name": "",
          "type": "string"
        }
      ],
      "name": "communities",
      "outputs": [
        {
          "internalType": "address",
          "name": "creator",
          "type": "address"
        },
        {
          "internalType": "uint256",
          "name": "minCredsToProposeVote",
          "type": "uint256"
        },
        {
          "internalType": "uint256",
          "name": "minCredsToVote",
          "type": "uint256"
        },
        {
          "internalType": "uint256",
          "name": "maxCredsCountedForVote",
          "type": "uint256"
        },
        {
          "internalType": "uint256",
          "name": "minProposalVotes",
          "type": "uint256"
        },
        {
          "internalType": "uint256",
          "name": "proposalTime",
          "type": "uint256"
        },
        {
          "internalType": "uint256",
          "name": "proposalDelay",
          "type": "uint256"
        },
        {
          "internalType": "bool",
          "name": "isInviteOnly",
          "type": "bool"
        }
      ],
      "stateMutability": "view",
      "type": "function"
    },
    {
      "inputs": [
        {
          "internalType": "string",
          "name": "_communityName",
          "type": "string"
        },
        {
          "internalType": "uint256",
          "name": "_minCredsToProposeVote",
          "type": "uint256"
        },
        {
          "internalType": "uint256",
          "name": "_minCredsToVote",
          "type": "uint256"
        },
        {
          "internalType": "uint256",
          "name": "_maxCredsCountedForVote",
          "type": "uint256"
        },
        {
          "internalType": "uint256",
          "name": "_minProposalVotes",
          "type": "uint256"
        },
        {
          "internalType": "uint256",
          "name": "_proposalTime",
          "type": "uint256"
        },
        {
          "internalType": "uint256",
          "name": "_proposalDelay",
          "type": "uint256"
        },
        {
          "internalType": "bool",
          "name": "_isInviteOnly",
          "type": "bool"
        }
      ],
      "name": "createCommunity",
      "outputs": [],
      "stateMutability": "nonpayable",
      "type": "function"
    },
    {
      "inputs": [],
      "name": "fee",
      "outputs": [
        {
          "internalType": "uint256",
          "name": "",
          "type": "uint256"
        }
      ],
      "stateMutability": "view",
      "type": "function"
    },
    {
      "inputs": [
        {
          "internalType": "uint256",
          "name": "_propId",
          "type": "uint256"
        }
      ],
      "name": "getActiveProposalIndex",
      "outputs": [
        {
          "internalType": "uint256",
          "name": "",
          "type": "uint256"
        }
      ],
      "stateMutability": "view",
      "type": "function"
    },
    {
      "inputs": [],
      "name": "getActiveProposalsLength",
      "outputs": [
        {
          "internalType": "uint256",
          "name": "",
          "type": "uint256"
        }
      ],
      "stateMutability": "view",
      "type": "function"
    },
    {
      "inputs": [
        {
          "internalType": "string",
          "name": "_communityName",
          "type": "string"
        }
      ],
      "name": "getCommunityExists",
      "outputs": [
        {
          "internalType": "bool",
          "name": "",
          "type": "bool"
        }
      ],
      "stateMutability": "view",
      "type": "function"
    },
    {
      "inputs": [
        {
          "internalType": "string",
          "name": "_communityName",
          "type": "string"
        }
      ],
      "name": "getCommunityInfo",
      "outputs": [
        {
          "internalType": "uint256",
          "name": "minCredsToProposeVote",
          "type": "uint256"
        },
        {
          "internalType": "uint256",
          "name": "minCredsToVote",
          "type": "uint256"
        },
        {
          "internalType": "uint256",
          "name": "maxCredsCountedForVote",
          "type": "uint256"
        },
        {
          "internalType": "uint256",
          "name": "minProposalVotes",
          "type": "uint256"
        },
        {
          "internalType": "uint256",
          "name": "proposalTime",
          "type": "uint256"
        },
        {
          "internalType": "uint256",
          "name": "proposalDelay",
          "type": "uint256"
        },
        {
          "internalType": "bool",
          "name": "isInviteOnly",
          "type": "bool"
        }
      ],
      "stateMutability": "view",
      "type": "function"
    },
    {
      "inputs": [
        {
          "internalType": "string",
          "name": "_communityName",
          "type": "string"
        }
      ],
      "name": "getCommunityIsInviteOnly",
      "outputs": [
        {
          "internalType": "bool",
          "name": "",
          "type": "bool"
        }
      ],
      "stateMutability": "view",
      "type": "function"
    },
    {
      "inputs": [
        {
          "internalType": "string",
          "name": "_communityName",
          "type": "string"
        },
        {
          "internalType": "address",
          "name": "_add",
          "type": "address"
        }
      ],
      "name": "getCommunityIsOwner",
      "outputs": [
        {
          "internalType": "bool",
          "name": "",
          "type": "bool"
        }
      ],
      "stateMutability": "view",
      "type": "function"
    },
    {
      "inputs": [
        {
          "internalType": "string",
          "name": "_communityName",
          "type": "string"
        }
      ],
      "name": "getCommunityOwner",
      "outputs": [
        {
          "internalType": "address",
          "name": "",
          "type": "address"
        }
      ],
      "stateMutability": "view",
      "type": "function"
    },
    {
      "inputs": [],
      "name": "getFee",
      "outputs": [
        {
          "internalType": "uint256",
          "name": "",
          "type": "uint256"
        }
      ],
      "stateMutability": "view",
      "type": "function"
    },
    {
      "inputs": [
        {
          "internalType": "uint256",
          "name": "_proposalId",
          "type": "uint256"
        }
      ],
      "name": "getProposalResults",
      "outputs": [
        {
          "internalType": "bool",
          "name": "isActive",
          "type": "bool"
        },
        {
          "internalType": "bool",
          "name": "passed",
          "type": "bool"
        }
      ],
      "stateMutability": "view",
      "type": "function"
    },
    {
      "inputs": [
        {
          "internalType": "uint256",
          "name": "_proposalId",
          "type": "uint256"
        }
      ],
      "name": "getProposalType",
      "outputs": [
        {
          "internalType": "uint256",
          "name": "",
          "type": "uint256"
        }
      ],
      "stateMutability": "view",
      "type": "function"
    },
    {
      "inputs": [
        {
          "internalType": "address",
          "name": "_address",
          "type": "address"
        },
        {
          "internalType": "uint256",
          "name": "_proposalId",
          "type": "uint256"
        }
      ],
      "name": "getProposalVote",
      "outputs": [
        {
          "internalType": "uint256",
          "name": "approveVotes",
          "type": "uint256"
        },
        {
          "internalType": "uint256",
          "name": "approveCreds",
          "type": "uint256"
        },
        {
          "internalType": "uint256",
          "name": "denyVotes",
          "type": "uint256"
        },
        {
          "internalType": "uint256",
          "name": "denyCreds",
          "type": "uint256"
        },
        {
          "internalType": "bool",
          "name": "",
          "type": "bool"
        }
      ],
      "stateMutability": "view",
      "type": "function"
    },
    {
      "inputs": [
        {
          "internalType": "bytes",
          "name": "_performData",
          "type": "bytes"
        }
      ],
      "name": "performUpkeep",
      "outputs": [],
      "stateMutability": "nonpayable",
      "type": "function"
    },
    {
      "inputs": [
        {
          "internalType": "uint256",
          "name": "",
          "type": "uint256"
        }
      ],
      "name": "proposals",
      "outputs": [
        {
          "internalType": "address",
          "name": "proposer",
          "type": "address"
        },
        {
          "internalType": "string",
          "name": "communityName",
          "type": "string"
        },
        {
          "internalType": "uint256",
          "name": "timestamp",
          "type": "uint256"
        },
        {
          "internalType": "uint256",
          "name": "propType",
          "type": "uint256"
        },
        {
          "internalType": "uint256",
          "name": "activeProposalsIndex",
          "type": "uint256"
        },
        {
          "internalType": "uint256",
          "name": "approveVotes",
          "type": "uint256"
        },
        {
          "internalType": "uint256",
          "name": "denyVotes",
          "type": "uint256"
        },
        {
          "internalType": "uint256",
          "name": "approveCreds",
          "type": "uint256"
        },
        {
          "internalType": "uint256",
          "name": "denyCreds",
          "type": "uint256"
        },
        {
          "internalType": "bool",
          "name": "isActive",
          "type": "bool"
        },
        {
          "internalType": "bool",
          "name": "passed",
          "type": "bool"
        }
      ],
      "stateMutability": "view",
      "type": "function"
    },
    {
      "inputs": [
        {
          "internalType": "uint256",
          "name": "_feePrice",
          "type": "uint256"
        }
      ],
      "name": "setFee",
      "outputs": [],
      "stateMutability": "nonpayable",
      "type": "function"
    },
    {
      "inputs": [
        {
          "internalType": "address payable",
          "name": "_feeAddress",
          "type": "address"
        }
      ],
      "name": "setFeeAddress",
      "outputs": [],
      "stateMutability": "nonpayable",
      "type": "function"
    },
    {
      "inputs": [
        {
          "internalType": "uint256",
          "name": "_mpt",
          "type": "uint256"
        }
      ],
      "name": "setMaxProposalTime",
      "outputs": [],
      "stateMutability": "nonpayable",
      "type": "function"
    },
    {
      "inputs": [
        {
          "internalType": "uint256",
          "name": "_propId",
          "type": "uint256"
        }
      ],
      "name": "setProposalCanceled",
      "outputs": [],
      "stateMutability": "nonpayable",
      "type": "function"
    },
    {
      "inputs": [
        {
          "internalType": "uint256",
          "name": "_count",
          "type": "uint256"
        }
      ],
      "name": "setProposalCounter",
      "outputs": [],
      "stateMutability": "nonpayable",
      "type": "function"
    },
    {
      "inputs": [
        {
          "internalType": "uint256",
          "name": "_proposalId",
          "type": "uint256"
        }
      ],
      "name": "setProposalInactive",
      "outputs": [],
      "stateMutability": "nonpayable",
      "type": "function"
    },
    {
      "inputs": [
        {
          "internalType": "uint256",
          "name": "_upkeepId",
          "type": "uint256"
        }
      ],
      "name": "setUpkkepId",
      "outputs": [],
      "stateMutability": "nonpayable",
      "type": "function"
    },
    {
      "inputs": [
        {
          "internalType": "address",
          "name": "_contractAddress",
          "type": "address"
        }
      ],
      "name": "setlearntgetherMembersContract",
      "outputs": [],
      "stateMutability": "nonpayable",
      "type": "function"
    },
    {
      "inputs": [],
      "name": "upkeepId",
      "outputs": [
        {
          "internalType": "uint256",
          "name": "",
          "type": "uint256"
        }
      ],
      "stateMutability": "view",
      "type": "function"
    },
    {
      "inputs": [
        {
          "internalType": "uint256",
          "name": "proposalId",
          "type": "uint256"
        },
        {
          "internalType": "bool",
          "name": "voteChoice",
          "type": "bool"
        }
      ],
      "name": "vote",
      "outputs": [],
      "stateMutability": "nonpayable",
      "type": "function"
    }
  ],
  "bytecode": "0x608034620000ee57601f6200286138819003918201601f19168301916001600160401b03831184841017620000da578084926040948552833981010312620000ee5780516020909101516001600160a01b03811690819003620000ee5760018060a01b031933816009541617600955600b541617600b55600a5562786450600355600160055560075468010000000000000000811015620000da576001810180600755811015620000c6575f906007825260208220015560405161276e9081620000f38239f35b634e487b7160e01b5f52603260045260245ffd5b634e487b7160e01b5f52604160045260245ffd5b5f80fdfe60806040526004361015610011575f80fd5b5f3560e01c8063013cf08b14611dc25780630163b96814611d9a57806304413d8614611d3557806305d852d714611a2a5780630dc85f7d146119df5780630fd2a34a1461174f5780631282f6091461170c57806325f8729f146116c457806328adc2401461160e578063298a57501461153d5780633df67352146114b55780634585e33b14611139578063495d855e1461111c5780635787a0cc146110ee5780635bdcd008146110b1578063685357091461103a57806369fe0e2d1461100c5780637b7fcfed14610fa35780638126d89514610f4e5780638705fcd414610f025780638b64044014610ed457806390943a8b14610ea2578063a169093b14610e74578063a64108d514610d13578063b07bcbc514610a81578063b3f6702d146109f0578063b60a85ae146109c3578063c8249d8a14610873578063c9d27afe14610426578063ced72f871461018f578063d0d83923146101fa578063d2aa789f146101dd578063d978ffba146101b05763ddca3f431461018f575f80fd5b346101ac575f3660031901126101ac576020600a54604051908152f35b5f80fd5b346101ac5760203660031901126101ac576004355f5260066020526020600360405f200154604051908152f35b346101ac575f3660031901126101ac576020600d54604051908152f35b346101ac576020806003193601126101ac576004355f8181526006835260409020546001600160a01b031633036103e557805f5260068252600160ff600a60405f200154161515036103a057805f5260068252600460405f2001549160075490600182111561035c575f1982019182116103485783826006935f96036102b1575b50508284525281600460408220600a810160ff198154169055015561029e61264d565b5f805160206127198339815191528280a3005b7ff041f52db3fd2f56a979d9dd319aa6a6e399c198410349cf154eb4b4568d7daa916103096102e16040936120ff565b90546102ec846120ff565b91909260031b1c9082549060031b91821b915f19901b1916179055565b610312816120ff565b90549060031b1c8752848452806004838920015561032f816120ff565b90549060031b1c90825191825284820152a1848061027b565b634e487b7160e01b5f52601160045260245ffd5b6064906040519062461bcd60e51b82526004820152601d60248201527f546865726520617265206e6f206163746976652050726f706f73616c730000006044820152fd5b60405162461bcd60e51b815260048101839052601b60248201527f546869732070726f706f73616c206973206e6f742061637469766500000000006044820152606490fd5b60405162461bcd60e51b81526004810183905260196024820152785573657220646964206e6f742070726f706f7365207468697360381b6044820152606490fd5b346101ac5760403660031901126101ac576024803580151591600435908383036101ac5760055482101561083457815f526020906006825260405f20906001918260ff600a830154161515036107f05760028101549183820192610496600661048e8661250b565b015482612599565b42101590816107c0575b501561078457600c54604051635848e2a360e11b81526001600160a01b0390911693908681806104d48533600484016125a6565b0381885afa80156106ba5786915f91610757575b50151503610703576009830193335f5284875260ff60405f2054166106c5578660405180926302b5df5960e01b825281806105278733600484016125a6565b03915afa9081156106ba575f9161068d575b5060026105458361250b565b015481106106495760036105588361250b565b0154811115610641575061056d60039161250b565b0154965b156105f257600582018054918583018093116105df5750916007917f7c2de587c00d75474a0c6c6fa96fd3b45dc974cd4e8a75f712bb84c950dce1b59695949355016105be878254612599565b90555b335f52825260405f209060ff198254161790556040519384523393a4005b634e487b7160e01b5f9081526011600452fd5b600682018054918583018093116105df5750916008917f7c2de587c00d75474a0c6c6fa96fd3b45dc974cd4e8a75f712bb84c950dce1b596959493550161063a878254612599565b90556105c1565b905096610571565b60405162461bcd60e51b815260048101889052601b818501527f496e73756666696369656e7420637265647320746f20766f74652e00000000006044820152606490fd5b90508681813d83116106b3575b6106a48183611ec0565b810103126101ac57518a610539565b503d61069a565b6040513d5f823e3d90fd5b60405162461bcd60e51b815260048101889052601781850152762cb7ba903430bb329030b63932b0b23c903b37ba32b21760491b6044820152606490fd5b60405162461bcd60e51b8152600481018790526027818401527f596f7520617265206e6f742061206d656d626572206f66207468697320636f6d60448201526636bab734ba3c9760c91b6064820152608490fd5b6107779150883d8a1161077d575b61076f8183611ec0565b810190612325565b8b6104e8565b503d610765565b8460166064926040519262461bcd60e51b84526004840152820152754e6f742041637469766520566f74696e672054696d6560501b6044820152fd5b6107e791506107dc9060066107d48761250b565b015490612599565b60056107d48661250b565b421115896104a0565b60405162461bcd60e51b815260048101859052601c818401527f50726f706f73616c206973206e6f206c6f6e67657220416374697665000000006044820152606490fd5b60649060186040519162461bcd60e51b83526020600484015282015277283937b837b9b0b6103237b2b9903737ba1032bc34b9ba1760411b6044820152fd5b346101ac575f3660031901126101ac575f80600754806108ec575b506040519060208201526020815260408101918183106001600160401b038411176108d857826040521515825260406060820152603f19906108d36080820182611fa3565b030190f35b634e487b7160e01b5f52604160045260245ffd5b5f60015b8281106108fe57505061088e565b610907816120ff565b9054600391821b1c5f5261096f600660209080825261094b600260405f200154610930876120ff565b905490871b1c5f52828452826107d4600160405f200161250b565b91610955866120ff565b905490861b1c5f525260056107d4600160405f200161250b565b42811115806109b1575b61098e575b5050610989906124fd565b6108f0565b9450945090506109896001946109a3836120ff565b9054911b1c9391908661097e565b50838111158061097957508315610979565b346101ac5760203660031901126101ac576004355f5260066020526020600460405f200154604051908152f35b346101ac5760203660031901126101ac576004356001600160401b0381116101ac57610a226020913690600401611fe3565b610a6e8260405192805190610a5d83820192610a3f818886611f82565b86015f8152868560018060a01b0398899303019020541615156126d0565b604051938492839251928391611f82565b81015f8152030190205416604051908152f35b610a8a3661203f565b60405191805192602093610ac485840191610aa6818585611f82565b83015f8152838760018060a01b039586930301902054161515612271565b325f5260088552610adc60ff60405f205416156122b7565b81600c5416604051635848e2a360e11b8152868180610aff88326004840161233d565b0381855afa9081156106ba57610b22916001915f91610cf6575b50151514612362565b8560405180926302b5df5960e01b82528180610b4289326004840161233d565b03915afa9182156106ba5786915f93610cc3575b505f610c8594610b8e82956001610b7c859786978c604051938492839251928391611f82565b810188815203019020015411156123bf565b610b9b600a54341461240b565b60058054835260068a526040832080546001600160a01b031990811633178255919990600a90610bce8b60018301612149565b426002820155600754600482015560026003820155019860ff199960018b825416179055610bfd8b5491612251565b8c600260405191428352820152827f6c98a8c940418b35614f0cd02412d5c9606faff474cbb6cdd6640ba5d1a9f06b60403393a4845260048b5282604085209116809282541617905532908954907f6a319039caa9a0b231fc1a3d10d617c656e322ebac0d326e9d0c95cbde9248a48580a43490600b54165af1610c7f612450565b5061247f565b325f5260088352600160405f2091825416179055610ca381546124c2565b610cad81546124fd565b8091555f19810190811161034857604051908152f35b828195939294503d8311610cef575b610cdc8183611ec0565b810103126101ac5791519085905f610b56565b503d610cd2565b610d0d9150893d8b1161077d5761076f8183611ec0565b89610b19565b346101ac576020806003193601126101ac576004356001600160401b0381116101ac57610d44903690600401611fe3565b610e7060405192610d7f83519482850195610d60818389611f82565b5f90820190815281900383019020546001600160a01b031615156126d0565b600160405182818651610d9381838b611f82565b81015f815203019020015492600260405183818451610db381838c611f82565b81015f815203019020015494600360405184818551610dd3818388611f82565b81015f81520301902001549260ff6007610e57600460405185818951610dfa81838c611f82565b81015f815203019020015493600560405182818a51610e1a81838d611f82565b81015f815203019020015495600660405183818b51610e3a818388611f82565b81015f815203019020015497604051938492839251928391611f82565b81015f8152030190200154169360405197889788612117565b0390f35b346101ac5760203660031901126101ac57610e9a60018060a01b0360095416331461268b565b600435600355005b346101ac5760203660031901126101ac576004355f526004602052602060018060a01b0360405f205416604051908152f35b346101ac5760203660031901126101ac57610efa60018060a01b0360095416331461268b565b600435600555005b346101ac5760203660031901126101ac576004356001600160a01b03818116918290036101ac57610f389060095416331461268b565b600b80546001600160a01b031916919091179055005b346101ac5760203660031901126101ac576004355f52600260205260405f208054610e70600183015492600281015490600381015460048201549060ff60066005850154940154169360405197889788612117565b346101ac5760203660031901126101ac576004356001600160401b0381116101ac57610fd56020913690600401611fe3565b81610fe96040519283815193849201611f82565b5f90820190815281900382019020546040516001600160a01b0390911615158152f35b346101ac5760203660031901126101ac5761103260018060a01b0360095416331461268b565b600435600a55005b346101ac5760403660031901126101ac5760a0611055612029565b6024355f52600660205260405f206005810154916007820154916009600682015491600881015493600180891b03165f520160205260ff60405f2054169260405194855260208501526040840152606083015215156080820152f35b346101ac5760203660031901126101ac576004355f5260066020526040600a815f20015460ff8251918181161515835260081c1615156020820152f35b346101ac5760203660031901126101ac5761111460018060a01b0360095416331461268b565b600435600d55005b346101ac575f3660031901126101ac576020600754604051908152f35b346101ac576020806003193601126101ac576004356001600160401b038082116101ac57366023830112156101ac5781600401359081116101ac5781013660248201116101ac5781839103126101ac576024013590815f5260069182825260405f206002906111cc6111b683830154876107d4600180960161250b565b845f5286865260056107d48460405f200161250b565b83151590816114aa575b816114a0575b506111e357005b825f5284845260405f20916005830154868401548082119182611470575b8261144e575b5050156113da578160038401548281145f1461135f57505050825f5260048452808360018060a01b0360405f2054167fca5be02c86f988b49c8f55fa1445e2252a5de3afaa608cc35db41feb6c22f83a5f80a45b825f805160206127198339815191525f80a3815f52838352600a60405f200161010061ff00198254161790555b546001600160a01b03165f908152600883526040808220805460ff199081169091558383528585529120600a81018054909216909155600401546007545f198101908111610348578082036112f0575b50505f52525f60046040822001556112ee61264d565b005b7ff041f52db3fd2f56a979d9dd319aa6a6e399c198410349cf154eb4b4568d7daa916113206102e16040936120ff565b611329816120ff565b90549060031b1c5f52858552806004835f200155611346816120ff565b90549060031b1c90825191825285820152a183806112d8565b1461136b575b5061125b565b6113d490600760ff8861137f86880161250b565b93885f52808a5260405f209081548887015587820154818701558101546003860155600381015460048601556004810154600586015560058101548286015501541691019060ff801983541691151516179055565b85611365565b9050825f52848452600a60405f200161ff001981541690555f835f805160206127198339815191528280a3600382015403611288576004835260405f9081205483906001600160a01b03167fca5be02c86f988b49c8f55fa1445e2252a5de3afaa608cc35db41feb6c22f83a8380a4611288565b6114589250612599565b600461146584860161250b565b015411158780611207565b91506007850154600886015410801561148a575b91611201565b50600361149885870161250b565b015415611484565b90501515866111dc565b4281111591506111d6565b346101ac5760203660031901126101ac576004356001600160401b0381116101ac5760ff600761152760206114ef81953690600401611fe3565b60405190610a5d81519284830193611508818387611f82565b5f90820190815281900385019020546001600160a01b031615156126d0565b81015f8152030190200154166040519015158152f35b346101ac5761154b3661203f565b90604051908051906020810191611563818585611f82565b83015f815283602060018060a01b0395869303019020541633036115b95761159991602091604051938492839251928391611f82565b5f9082019081520301902080546001600160a01b03191691909216179055005b60405162461bcd60e51b815260206004820152602760248201527f55736572206973206e6f7420746865206f776e6572206f66207468697320636f6044820152666d6d756e69747960c81b6064820152608490fd5b346101ac5760203660031901126101ac576004356001600160401b0381116101ac576116596020611646610100933690600401611fe3565b8160405193828580945193849201611f82565b81015f81520301902060018060a01b03815416906001810154906002810154600382015460048301549060058401549260ff600760068701549601541695604051978852602088015260408701526060860152608085015260a084015260c0830152151560e0820152f35b346101ac5760203660031901126101ac576116dd612029565b6009546001600160a01b0391906116f7908316331461268b565b1660018060a01b0319600c541617600c555f80f35b346101ac5760203660031901126101ac5761173260018060a01b0360095416331461268b565b6004355f908152600660205260409020600a01805460ff19169055005b346101ac5761175d36612080565b919283979694979060405194885190602096878b019261177e818386611f82565b5f90820190815281900388019020546001600160a01b031661199e578591858b8d8c8c8c96600354809111611994575b506118d9979693600796936118be9693600693604051888186516117d381838d611f82565b5f9082019081520301902080546001600160a01b031916331790556040518451600191908a90829061180681838e611f82565b81015f815203019020015560026040518881865161182581838d611f82565b81015f815203019020015560036040518781855161184481838c611f82565b81015f81520301902001558960046040518781855161186481838c611f82565b81015f81520301902001558a60056040518781855161188481838c611f82565b81015f8152030190200155846040518092516118a1818389611f82565b81015f81520301902001558d604051938492839251928391611f82565b81015f815203019020019060ff801983541691151516179055565b600154600160401b8110156108d8578060016118f892016001556120d3565b611981578861197c9661192f7f777540ff7476a10f183ac2df8c1352dbfa17491bdfc9158e83c3e47059afe2709b61196f94612149565b7f770333f2d96faae538a5391fa34d7f90a88dc8af3aadcb1735c43839cb695566604061195b84612251565b928151903382528a151590820152a2612251565b9860405197889788612117565b0390a2005b634e487b7160e01b5f525f60045260245ffd5b99506118d96117ae565b60405162461bcd60e51b815260048101889052601960248201527821b7b6b6bab734ba3c9030b63932b0b23c9032bc34b9ba399760391b6044820152606490fd5b346101ac5760203660031901126101ac576004356001548110156101ac57611a06906120d3565b61198157611a16610e7091611ee1565b604051918291602083526020830190611fa3565b611a3336612080565b91611a7260206040989597969851611a518b82815194859201611f82565b5f918101918252908190036020019020546001600160a01b03161515612271565b325f526008602052611a8b60ff60405f205416156122b7565b600c54604051635848e2a360e11b81526001600160a01b039091169060208180611ab98d326004840161233d565b0381855afa9081156106ba57611afe92611ae260016020948e945f91611d185750151514612362565b60405180809581946302b5df5960e01b8352326004840161233d565b03915afa9081156106ba5789905f92611cda575b5096611b6c611c6a959493926001611b5a60207fc4c5972d4c396666ce7e75aafa84c10e6886f488c1c9012568f7c5bf58f81af29c8160405193828580945193849201611f82565b81015f815203019020015411156123bf565b611b79600a54341461240b565b83826005545f52600260205260405f2090600354809111611cd1575b506006602081905260405f2080546001600160a01b03191633178155611c5e939290611bc48f60018301612149565b426002820155600754600482015560016003820155600a600160ff198284015416179101558d611bf660055491612251565b9060405190428252600160208301527f6c98a8c940418b35614f0cd02412d5c9606faff474cbb6cdd6640ba5d1a9f06b60403393a48981558a60018201558c6002820155846003820155856004820155866005820155019060ff801983541691151516179055565b61196f6005549a612251565b0390a3611c8a5f8080803460018060a01b03600b54165af1610c7f612450565b335f52600860205260405f20600160ff19825416179055611cac6005546124c2565b611cb76005546124fd565b806005555f19810190811161034857602090604051908152f35b93506006611b95565b9493929150506020843d602011611d10575b81611cf960209383611ec0565b810103126101ac5792519192909188611b6c611b12565b3d9150611cec565b611d2f9150863d881161077d5761076f8183611ec0565b8f610b19565b346101ac57602080611d463661203f565b9190611d848260405192805190610a5d83820192611d65818886611f82565b86015f81528660018060a01b03988998899303019020541615156126d0565b81015f8152030190205416906040519216148152f35b346101ac575f3660031901126101ac57600c546040516001600160a01b039091168152602090f35b346101ac5760203660031901126101ac576004355f90815260066020526040902080546001600160a01b0316611dfa60018301611ee1565b9160ff60028201549160038101549060048101546005820154600683015490600784015492600a600886015495015495611e486040519b8c9b8c5260208c61016091829101528c0190611fa3565b9860408b015260608a0152608089015260a088015260c087015260e0860152610100850152818116151561012085015260081c1615156101408301520390f35b90600182811c92168015611eb6575b6020831014611ea257565b634e487b7160e01b5f52602260045260245ffd5b91607f1691611e97565b90601f801991011681019081106001600160401b038211176108d857604052565b9060405191825f825492611ef484611e88565b9081845260019485811690815f14611f5f5750600114611f1f575b5050611f1d92500383611ec0565b565b909391505f52602090815f20935f915b818310611f47575050611f1d93508201015f80611f0f565b85548884018501529485019487945091830191611f2f565b915050611f1d94506020925060ff191682840152151560051b8201015f80611f0f565b5f5b838110611f935750505f910152565b8181015183820152602001611f84565b90602091611fbc81518092818552858086019101611f82565b601f01601f1916010190565b6001600160401b0381116108d857601f01601f191660200190565b81601f820112156101ac57803590611ffa82611fc8565b926120086040519485611ec0565b828452602083830101116101ac57815f926020809301838601378301015290565b600435906001600160a01b03821682036101ac57565b60406003198201126101ac57600435906001600160401b0382116101ac5761206991600401611fe3565b906024356001600160a01b03811681036101ac5790565b6101006003198201126101ac57600435906001600160401b0382116101ac576120ab91600401611fe3565b906024359060443590606435906084359060a4359060c4359060e43580151581036101ac5790565b6001548110156120eb5760015f5260205f2001905f90565b634e487b7160e01b5f52603260045260245ffd5b6007548110156120eb5760075f5260205f2001905f90565b959260c09592989794919860e08801998852602088015260408701526060860152608085015260a08401521515910152565b91909182516001600160401b0381116108d8576121668254611e88565b601f811161220a575b50602080601f83116001146121aa5750819293945f9261219f575b50508160011b915f199060031b1c1916179055565b015190505f8061218a565b90601f19831695845f52825f20925f905b8882106121f2575050836001959697106121da575b505050811b019055565b01515f1960f88460031b161c191690555f80806121d0565b806001859682949686015181550195019301906121bb565b5f83815260208120601f840160051c81019260208510612247575b601f0160051c01915b82811061223c57505061216f565b81815560010161222e565b9092508290612225565b61226990602060405192828480945193849201611f82565b810103902090565b1561227857565b60405162461bcd60e51b815260206004820152601760248201527610dbdb5b5d5b9a5d1e48191bd95cdb89dd08195e1a5cdd604a1b6044820152606490fd5b156122be57565b60405162461bcd60e51b815260206004820152603960248201527f5573657220686173204f70656e205265766965772c20506c65617365207761696044820152783a103ab73a34b6361034ba1034b990383937b1b2b9b9b2b21760391b6064820152608490fd5b908160209103126101ac575180151581036101ac5790565b6001600160a01b03909116815260406020820181905261235f92910190611fa3565b90565b1561236957565b60405162461bcd60e51b815260206004820152602860248201527f596f7520617265206e6f742061206d656d62657220666f72207468697320636f60448201526736b6bab734ba3c9760c11b6064820152608490fd5b156123c657565b60405162461bcd60e51b815260206004820152601e60248201527f496e73756666696369656e7420637265647320746f2070726f706f73652e00006044820152606490fd5b1561241257565b60405162461bcd60e51b81526020600482015260166024820152754d7573742073656e642070726f706f73616c2066656560501b6044820152606490fd5b3d1561247a573d9061246182611fc8565b9161246f6040519384611ec0565b82523d5f602084013e565b606090565b1561248657565b60405162461bcd60e51b81526020600482015260146024820152732330b4b632b2103a379039b2b7321022ba3432b960611b6044820152606490fd5b60075490600160401b8210156108d8576124e5826001611f1d94016007556120ff565b90919082549060031b91821b915f19901b1916179055565b5f1981146103485760010190565b60405190815f825461251c81611e88565b9360019180831690811561257d5750600114612543575b5050602092505f81520301902090565b9091505f52602090815f20905f915b858310612569575050505060209181015f80612533565b805487840152869450918301918101612552565b92505050602093915060ff191682528015150281015f80612533565b9190820180921161034857565b919060018060a01b031682526020916040838201525f9282546125c881611e88565b9384604085015260019182811690815f1461262857506001146125ee575b505050505090565b5f908152828120949550935b858510612614575050506060925001015f808080806125e6565b8054858501606001529382019381016125fa565b93505050506060935060ff929192191683830152151560051b01015f808080806125e6565b6007548015612677575f1990810190612665826120ff565b909182549160031b1b19169055600755565b634e487b7160e01b5f52603160045260245ffd5b1561269257565b60405162461bcd60e51b81526020600482015260166024820152752737ba103a34329031b7b73a3930b1ba1037bbb732b960511b6044820152606490fd5b156126d757565b60405162461bcd60e51b815260206004820152601960248201527810dbdb5b5d5b9a5d1e48111bd95cc8139bdd08115e1cda5cdd603a1b6044820152606490fdfe35baaec8d9c9da1c77f27119243a4384b49eae2bf0680aa0eebe3b62d28574a5a2646970667358221220b239c6fb713a0282059340e9522a80bb453ad823f0143b04a3aa01d5350e210164736f6c63430008140033",
  "linkReferences": {},
  "deployedLinkReferences": {}
}