{
  "_format": "hh-sol-artifact-1",
  "contractName": "learntgetherCommunities",
  "sourceName": "contracts/learntgetherCommunities.sol",
  "abi": [
    {
      "inputs": [
        {
          "internalType": "uint256",
          "name": "_feePrice",
          "type": "uint256"
        }
      ],
      "stateMutability": "nonpayable",
      "type": "constructor"
    },
    {
      "anonymous": false,
      "inputs": [
        {
          "indexed": true,
          "internalType": "string",
          "name": "communityName",
          "type": "string"
        },
        {
          "indexed": false,
          "internalType": "string[]",
          "name": "consenousTypes",
          "type": "string[]"
        }
      ],
      "name": "CommunityConesousTypes",
      "type": "event"
    },
    {
      "anonymous": false,
      "inputs": [
        {
          "indexed": true,
          "internalType": "string",
          "name": "communityName",
          "type": "string"
        },
        {
          "indexed": false,
          "internalType": "address",
          "name": "creator",
          "type": "address"
        },
        {
          "indexed": false,
          "internalType": "uint256",
          "name": "consenousTime",
          "type": "uint256"
        },
        {
          "indexed": false,
          "internalType": "bool",
          "name": "isInviteOnly",
          "type": "bool"
        }
      ],
      "name": "CommunityCreated",
      "type": "event"
    },
    {
      "anonymous": false,
      "inputs": [
        {
          "indexed": true,
          "internalType": "string",
          "name": "communityName",
          "type": "string"
        },
        {
          "indexed": false,
          "internalType": "uint256",
          "name": "numReviewsForAcceptance",
          "type": "uint256"
        },
        {
          "indexed": false,
          "internalType": "uint256",
          "name": "credsNeededForReview",
          "type": "uint256"
        },
        {
          "indexed": false,
          "internalType": "uint256",
          "name": "percentAcceptsNeeded",
          "type": "uint256"
        }
      ],
      "name": "CommunityInfo",
      "type": "event"
    },
    {
      "anonymous": false,
      "inputs": [
        {
          "indexed": true,
          "internalType": "uint256",
          "name": "proposalId",
          "type": "uint256"
        },
        {
          "indexed": false,
          "internalType": "uint256",
          "name": "numReviewsForAcceptance",
          "type": "uint256"
        },
        {
          "indexed": false,
          "internalType": "uint256",
          "name": "credsNeededForReview",
          "type": "uint256"
        },
        {
          "indexed": false,
          "internalType": "uint256",
          "name": "percentAcceptsNeeded",
          "type": "uint256"
        },
        {
          "indexed": false,
          "internalType": "uint256",
          "name": "consenousTime",
          "type": "uint256"
        },
        {
          "indexed": false,
          "internalType": "string[]",
          "name": "consenousTypes",
          "type": "string[]"
        },
        {
          "indexed": false,
          "internalType": "bool",
          "name": "isInviteOnly",
          "type": "bool"
        }
      ],
      "name": "CommunityProposalCreated",
      "type": "event"
    },
    {
      "anonymous": false,
      "inputs": [
        {
          "indexed": true,
          "internalType": "string",
          "name": "communityName",
          "type": "string"
        },
        {
          "indexed": false,
          "internalType": "uint256",
          "name": "minCredsToProposeVote",
          "type": "uint256"
        },
        {
          "indexed": false,
          "internalType": "uint256",
          "name": "minCredsToVote",
          "type": "uint256"
        },
        {
          "indexed": false,
          "internalType": "uint256",
          "name": "maxCredsCountedForVote",
          "type": "uint256"
        },
        {
          "indexed": false,
          "internalType": "uint256",
          "name": "minProposalVotes",
          "type": "uint256"
        },
        {
          "indexed": false,
          "internalType": "uint256",
          "name": "proposalTime",
          "type": "uint256"
        },
        {
          "indexed": false,
          "internalType": "uint256",
          "name": "proposalDelay",
          "type": "uint256"
        }
      ],
      "name": "CommunityProposalParams",
      "type": "event"
    },
    {
      "anonymous": false,
      "inputs": [
        {
          "indexed": true,
          "internalType": "address",
          "name": "contractAddress",
          "type": "address"
        },
        {
          "indexed": true,
          "internalType": "uint256",
          "name": "proposalId",
          "type": "uint256"
        },
        {
          "indexed": true,
          "internalType": "address",
          "name": "proposer",
          "type": "address"
        }
      ],
      "name": "CustomProposalCreated",
      "type": "event"
    },
    {
      "anonymous": false,
      "inputs": [
        {
          "indexed": true,
          "internalType": "address",
          "name": "contractAddress",
          "type": "address"
        },
        {
          "indexed": true,
          "internalType": "uint256",
          "name": "proposalId",
          "type": "uint256"
        },
        {
          "indexed": true,
          "internalType": "bool",
          "name": "passed",
          "type": "bool"
        }
      ],
      "name": "CustomProposalResult",
      "type": "event"
    },
    {
      "anonymous": false,
      "inputs": [
        {
          "indexed": false,
          "internalType": "uint256",
          "name": "proposalId",
          "type": "uint256"
        },
        {
          "indexed": false,
          "internalType": "uint256",
          "name": "activeProposalsIndex",
          "type": "uint256"
        }
      ],
      "name": "IndexChange",
      "type": "event"
    },
    {
      "anonymous": false,
      "inputs": [
        {
          "indexed": true,
          "internalType": "uint256",
          "name": "proposalId",
          "type": "uint256"
        },
        {
          "indexed": false,
          "internalType": "uint256",
          "name": "minCredsToProposeVote",
          "type": "uint256"
        },
        {
          "indexed": false,
          "internalType": "uint256",
          "name": "minCredsToVote",
          "type": "uint256"
        },
        {
          "indexed": false,
          "internalType": "uint256",
          "name": "maxCredsCountedForVote",
          "type": "uint256"
        },
        {
          "indexed": false,
          "internalType": "uint256",
          "name": "minProposalVotes",
          "type": "uint256"
        },
        {
          "indexed": false,
          "internalType": "uint256",
          "name": "proposalTime",
          "type": "uint256"
        },
        {
          "indexed": false,
          "internalType": "uint256",
          "name": "proposalDelay",
          "type": "uint256"
        }
      ],
      "name": "PropParamProposalCreated",
      "type": "event"
    },
    {
      "anonymous": false,
      "inputs": [
        {
          "indexed": true,
          "internalType": "uint256",
          "name": "proposalId",
          "type": "uint256"
        },
        {
          "indexed": true,
          "internalType": "address",
          "name": "proposer",
          "type": "address"
        },
        {
          "indexed": true,
          "internalType": "string",
          "name": "communityName",
          "type": "string"
        },
        {
          "indexed": false,
          "internalType": "uint256",
          "name": "timestamp",
          "type": "uint256"
        },
        {
          "indexed": false,
          "internalType": "uint256",
          "name": "propType",
          "type": "uint256"
        }
      ],
      "name": "ProposalCreated",
      "type": "event"
    },
    {
      "anonymous": false,
      "inputs": [
        {
          "indexed": true,
          "internalType": "uint256",
          "name": "proposalId",
          "type": "uint256"
        },
        {
          "indexed": true,
          "internalType": "bool",
          "name": "passed",
          "type": "bool"
        }
      ],
      "name": "ProposalResult",
      "type": "event"
    },
    {
      "anonymous": false,
      "inputs": [
        {
          "indexed": true,
          "internalType": "uint256",
          "name": "proposalId",
          "type": "uint256"
        },
        {
          "indexed": true,
          "internalType": "address",
          "name": "voter",
          "type": "address"
        },
        {
          "indexed": true,
          "internalType": "bool",
          "name": "voteChoice",
          "type": "bool"
        },
        {
          "indexed": false,
          "internalType": "uint256",
          "name": "credsToCount",
          "type": "uint256"
        }
      ],
      "name": "Voted",
      "type": "event"
    },
    {
      "inputs": [
        {
          "internalType": "uint256",
          "name": "",
          "type": "uint256"
        }
      ],
      "name": "CommunityNames",
      "outputs": [
        {
          "internalType": "string",
          "name": "",
          "type": "string"
        }
      ],
      "stateMutability": "view",
      "type": "function"
    },
    {
      "inputs": [
        {
          "internalType": "string",
          "name": "",
          "type": "string"
        },
        {
          "internalType": "uint256",
          "name": "",
          "type": "uint256"
        }
      ],
      "name": "CommunityProposals",
      "outputs": [
        {
          "internalType": "uint256",
          "name": "",
          "type": "uint256"
        }
      ],
      "stateMutability": "view",
      "type": "function"
    },
    {
      "inputs": [
        {
          "internalType": "string",
          "name": "_communityName",
          "type": "string"
        },
        {
          "internalType": "address",
          "name": "_contractAddress",
          "type": "address"
        }
      ],
      "name": "CustomProposal",
      "outputs": [
        {
          "internalType": "uint256",
          "name": "",
          "type": "uint256"
        }
      ],
      "stateMutability": "payable",
      "type": "function"
    },
    {
      "inputs": [
        {
          "internalType": "uint256",
          "name": "",
          "type": "uint256"
        }
      ],
      "name": "CustomProposals",
      "outputs": [
        {
          "internalType": "address",
          "name": "",
          "type": "address"
        }
      ],
      "stateMutability": "view",
      "type": "function"
    },
    {
      "inputs": [],
      "name": "MemberContract",
      "outputs": [
        {
          "internalType": "contract learntgetherMembersInterface",
          "name": "",
          "type": "address"
        }
      ],
      "stateMutability": "view",
      "type": "function"
    },
    {
      "inputs": [
        {
          "internalType": "string",
          "name": "_communityName",
          "type": "string"
        },
        {
          "internalType": "uint256",
          "name": "_minCredsToProposeVote",
          "type": "uint256"
        },
        {
          "internalType": "uint256",
          "name": "_minCredsToVote",
          "type": "uint256"
        },
        {
          "internalType": "uint256",
          "name": "_maxCredsCountedForVote",
          "type": "uint256"
        },
        {
          "internalType": "uint256",
          "name": "_minProposalVotes",
          "type": "uint256"
        },
        {
          "internalType": "uint256",
          "name": "_proposalTime",
          "type": "uint256"
        },
        {
          "internalType": "uint256",
          "name": "_proposalDelay",
          "type": "uint256"
        }
      ],
      "name": "PropParamProposal",
      "outputs": [
        {
          "internalType": "uint256",
          "name": "",
          "type": "uint256"
        }
      ],
      "stateMutability": "payable",
      "type": "function"
    },
    {
      "inputs": [
        {
          "internalType": "string",
          "name": "_communityName",
          "type": "string"
        },
        {
          "internalType": "address",
          "name": "_newOwner",
          "type": "address"
        }
      ],
      "name": "changeCommunityOwner",
      "outputs": [],
      "stateMutability": "nonpayable",
      "type": "function"
    },
    {
      "inputs": [],
      "name": "checkUpKeep",
      "outputs": [
        {
          "internalType": "bool",
          "name": "upkeepNeeded",
          "type": "bool"
        },
        {
          "internalType": "bytes",
          "name": "performData",
          "type": "bytes"
        }
      ],
      "stateMutability": "view",
      "type": "function"
    },
    {
      "inputs": [
        {
          "internalType": "string",
          "name": "",
          "type": "string"
        }
      ],
      "name": "communities",
      "outputs": [
        {
          "internalType": "address",
          "name": "creator",
          "type": "address"
        },
        {
          "internalType": "uint256",
          "name": "numReviewsForAcceptance",
          "type": "uint256"
        },
        {
          "internalType": "uint256",
          "name": "credsNeededForReview",
          "type": "uint256"
        },
        {
          "internalType": "uint256",
          "name": "percentAcceptsNeeded",
          "type": "uint256"
        },
        {
          "internalType": "uint256",
          "name": "consenousTime",
          "type": "uint256"
        },
        {
          "internalType": "bool",
          "name": "isInviteOnly",
          "type": "bool"
        }
      ],
      "stateMutability": "view",
      "type": "function"
    },
    {
      "inputs": [
        {
          "internalType": "uint256",
          "name": "",
          "type": "uint256"
        }
      ],
      "name": "communityParamProposals",
      "outputs": [
        {
          "internalType": "uint256",
          "name": "numReviewsForAcceptance",
          "type": "uint256"
        },
        {
          "internalType": "uint256",
          "name": "credsNeededForReview",
          "type": "uint256"
        },
        {
          "internalType": "uint256",
          "name": "percentAcceptsNeeded",
          "type": "uint256"
        },
        {
          "internalType": "uint256",
          "name": "consenousTime",
          "type": "uint256"
        },
        {
          "internalType": "bool",
          "name": "isInviteOnly",
          "type": "bool"
        }
      ],
      "stateMutability": "view",
      "type": "function"
    },
    {
      "inputs": [
        {
          "internalType": "string",
          "name": "_communityName",
          "type": "string"
        },
        {
          "internalType": "uint256",
          "name": "_numReviewsForAcceptance",
          "type": "uint256"
        },
        {
          "internalType": "uint256",
          "name": "_credsNeededForReview",
          "type": "uint256"
        },
        {
          "internalType": "uint256",
          "name": "_percentAcceptsNeeded",
          "type": "uint256"
        },
        {
          "internalType": "uint256",
          "name": "_consenousTime",
          "type": "uint256"
        },
        {
          "internalType": "string[]",
          "name": "_consenousTypes",
          "type": "string[]"
        },
        {
          "internalType": "bool",
          "name": "_isInviteOnly",
          "type": "bool"
        }
      ],
      "name": "communityProposal",
      "outputs": [
        {
          "internalType": "uint256",
          "name": "",
          "type": "uint256"
        }
      ],
      "stateMutability": "payable",
      "type": "function"
    },
    {
      "inputs": [
        {
          "internalType": "string",
          "name": "",
          "type": "string"
        }
      ],
      "name": "communityProposalParams",
      "outputs": [
        {
          "internalType": "uint256",
          "name": "minCredsToProposeVote",
          "type": "uint256"
        },
        {
          "internalType": "uint256",
          "name": "minCredsToVote",
          "type": "uint256"
        },
        {
          "internalType": "uint256",
          "name": "maxCredsCountedForVote",
          "type": "uint256"
        },
        {
          "internalType": "uint256",
          "name": "minProposalVotes",
          "type": "uint256"
        },
        {
          "internalType": "uint256",
          "name": "proposalTime",
          "type": "uint256"
        },
        {
          "internalType": "uint256",
          "name": "proposalDelay",
          "type": "uint256"
        }
      ],
      "stateMutability": "view",
      "type": "function"
    },
    {
      "inputs": [
        {
          "internalType": "string",
          "name": "_communityName",
          "type": "string"
        },
        {
          "internalType": "uint256",
          "name": "_numReviewsForAcceptance",
          "type": "uint256"
        },
        {
          "internalType": "uint256",
          "name": "_credsNeededForReview",
          "type": "uint256"
        },
        {
          "internalType": "uint256",
          "name": "_percentAcceptsNeeded",
          "type": "uint256"
        },
        {
          "internalType": "uint256",
          "name": "_consenousTime",
          "type": "uint256"
        },
        {
          "internalType": "string[]",
          "name": "_consenousTypes",
          "type": "string[]"
        },
        {
          "internalType": "bool",
          "name": "_isInviteOnly",
          "type": "bool"
        },
        {
          "internalType": "uint256",
          "name": "_minCredsToProposeVote",
          "type": "uint256"
        },
        {
          "internalType": "uint256",
          "name": "_minCredsToVote",
          "type": "uint256"
        },
        {
          "internalType": "uint256",
          "name": "_maxCredsCountedForVote",
          "type": "uint256"
        },
        {
          "internalType": "uint256",
          "name": "_minProposalVotes",
          "type": "uint256"
        },
        {
          "internalType": "uint256",
          "name": "_proposalTime",
          "type": "uint256"
        },
        {
          "internalType": "uint256",
          "name": "_proposalDelay",
          "type": "uint256"
        }
      ],
      "name": "createCommunity",
      "outputs": [],
      "stateMutability": "nonpayable",
      "type": "function"
    },
    {
      "inputs": [],
      "name": "fee",
      "outputs": [
        {
          "internalType": "uint256",
          "name": "",
          "type": "uint256"
        }
      ],
      "stateMutability": "view",
      "type": "function"
    },
    {
      "inputs": [
        {
          "internalType": "uint256",
          "name": "_propId",
          "type": "uint256"
        }
      ],
      "name": "getActiveProposalIndex",
      "outputs": [
        {
          "internalType": "uint256",
          "name": "",
          "type": "uint256"
        }
      ],
      "stateMutability": "view",
      "type": "function"
    },
    {
      "inputs": [],
      "name": "getActiveProposalsLength",
      "outputs": [
        {
          "internalType": "uint256",
          "name": "",
          "type": "uint256"
        }
      ],
      "stateMutability": "view",
      "type": "function"
    },
    {
      "inputs": [
        {
          "internalType": "string",
          "name": "_communityName",
          "type": "string"
        }
      ],
      "name": "getCommunityConsensousTime",
      "outputs": [
        {
          "internalType": "uint256",
          "name": "consenousTime",
          "type": "uint256"
        }
      ],
      "stateMutability": "view",
      "type": "function"
    },
    {
      "inputs": [
        {
          "internalType": "string",
          "name": "_communityName",
          "type": "string"
        }
      ],
      "name": "getCommunityConsensousTypes",
      "outputs": [
        {
          "internalType": "string[]",
          "name": "consenousTypes",
          "type": "string[]"
        }
      ],
      "stateMutability": "view",
      "type": "function"
    },
    {
      "inputs": [
        {
          "internalType": "string",
          "name": "_communityName",
          "type": "string"
        }
      ],
      "name": "getCommunityExists",
      "outputs": [
        {
          "internalType": "bool",
          "name": "",
          "type": "bool"
        }
      ],
      "stateMutability": "view",
      "type": "function"
    },
    {
      "inputs": [
        {
          "internalType": "string",
          "name": "_communityName",
          "type": "string"
        }
      ],
      "name": "getCommunityInfo",
      "outputs": [
        {
          "internalType": "uint256",
          "name": "numReviewsForAcceptance",
          "type": "uint256"
        },
        {
          "internalType": "uint256",
          "name": "credsNeededForReview",
          "type": "uint256"
        },
        {
          "internalType": "uint256",
          "name": "percentAcceptsNeeded",
          "type": "uint256"
        },
        {
          "internalType": "uint256",
          "name": "consenousTime",
          "type": "uint256"
        },
        {
          "internalType": "string[]",
          "name": "consenousTypes",
          "type": "string[]"
        }
      ],
      "stateMutability": "view",
      "type": "function"
    },
    {
      "inputs": [
        {
          "internalType": "string",
          "name": "_communityName",
          "type": "string"
        }
      ],
      "name": "getCommunityIsInviteOnly",
      "outputs": [
        {
          "internalType": "bool",
          "name": "",
          "type": "bool"
        }
      ],
      "stateMutability": "view",
      "type": "function"
    },
    {
      "inputs": [
        {
          "internalType": "string",
          "name": "_communityName",
          "type": "string"
        }
      ],
      "name": "getCommunityIsOwner",
      "outputs": [
        {
          "internalType": "bool",
          "name": "",
          "type": "bool"
        }
      ],
      "stateMutability": "view",
      "type": "function"
    },
    {
      "inputs": [
        {
          "internalType": "string",
          "name": "_communityName",
          "type": "string"
        }
      ],
      "name": "getCommunityOwner",
      "outputs": [
        {
          "internalType": "address",
          "name": "",
          "type": "address"
        }
      ],
      "stateMutability": "view",
      "type": "function"
    },
    {
      "inputs": [
        {
          "internalType": "uint256",
          "name": "_proposalId",
          "type": "uint256"
        }
      ],
      "name": "getCommunityProposal",
      "outputs": [
        {
          "internalType": "uint256",
          "name": "numReviewsForAcceptance",
          "type": "uint256"
        },
        {
          "internalType": "uint256",
          "name": "credsNeededForReview",
          "type": "uint256"
        },
        {
          "internalType": "uint256",
          "name": "percentAcceptsNeeded",
          "type": "uint256"
        },
        {
          "internalType": "uint256",
          "name": "consenousTime",
          "type": "uint256"
        },
        {
          "internalType": "string[]",
          "name": "consenousTypes",
          "type": "string[]"
        },
        {
          "internalType": "bool",
          "name": "isInviteOnly",
          "type": "bool"
        }
      ],
      "stateMutability": "view",
      "type": "function"
    },
    {
      "inputs": [
        {
          "internalType": "string",
          "name": "_communityName",
          "type": "string"
        }
      ],
      "name": "getCommunityProposalInfo",
      "outputs": [
        {
          "internalType": "uint256",
          "name": "minCredsToProposeVote",
          "type": "uint256"
        },
        {
          "internalType": "uint256",
          "name": "minCredsToVote",
          "type": "uint256"
        },
        {
          "internalType": "uint256",
          "name": "maxCredsCountedForVote",
          "type": "uint256"
        },
        {
          "internalType": "uint256",
          "name": "minProposalVotes",
          "type": "uint256"
        },
        {
          "internalType": "uint256",
          "name": "proposalTime",
          "type": "uint256"
        },
        {
          "internalType": "uint256",
          "name": "proposalDelay",
          "type": "uint256"
        }
      ],
      "stateMutability": "view",
      "type": "function"
    },
    {
      "inputs": [
        {
          "internalType": "string",
          "name": "_communityName",
          "type": "string"
        }
      ],
      "name": "getCommunityReviewParams",
      "outputs": [
        {
          "internalType": "uint256",
          "name": "numReviewsForAcceptance",
          "type": "uint256"
        },
        {
          "internalType": "uint256",
          "name": "credsNeededForReview",
          "type": "uint256"
        },
        {
          "internalType": "uint256",
          "name": "percentAcceptsNeeded",
          "type": "uint256"
        }
      ],
      "stateMutability": "view",
      "type": "function"
    },
    {
      "inputs": [
        {
          "internalType": "uint256",
          "name": "_proposalId",
          "type": "uint256"
        }
      ],
      "name": "getCustomProposal",
      "outputs": [
        {
          "internalType": "address",
          "name": "",
          "type": "address"
        }
      ],
      "stateMutability": "view",
      "type": "function"
    },
    {
      "inputs": [
        {
          "internalType": "string",
          "name": "_communityName",
          "type": "string"
        }
      ],
      "name": "getNumberReviewsForAcceptance",
      "outputs": [
        {
          "internalType": "uint256",
          "name": "",
          "type": "uint256"
        }
      ],
      "stateMutability": "view",
      "type": "function"
    },
    {
      "inputs": [
        {
          "internalType": "uint256",
          "name": "_proposalId",
          "type": "uint256"
        }
      ],
      "name": "getPoroposalConesnous",
      "outputs": [
        {
          "internalType": "string[]",
          "name": "consenousTypes",
          "type": "string[]"
        }
      ],
      "stateMutability": "view",
      "type": "function"
    },
    {
      "inputs": [
        {
          "internalType": "uint256",
          "name": "_proposalId",
          "type": "uint256"
        }
      ],
      "name": "getPropParamProposal",
      "outputs": [
        {
          "internalType": "uint256",
          "name": "minCredsToProposeVote",
          "type": "uint256"
        },
        {
          "internalType": "uint256",
          "name": "minCredsToVote",
          "type": "uint256"
        },
        {
          "internalType": "uint256",
          "name": "maxCredsCountedForVote",
          "type": "uint256"
        },
        {
          "internalType": "uint256",
          "name": "minProposalVotes",
          "type": "uint256"
        },
        {
          "internalType": "uint256",
          "name": "proposalTime",
          "type": "uint256"
        },
        {
          "internalType": "uint256",
          "name": "proposalDelay",
          "type": "uint256"
        }
      ],
      "stateMutability": "view",
      "type": "function"
    },
    {
      "inputs": [
        {
          "internalType": "uint256",
          "name": "_proposalId",
          "type": "uint256"
        }
      ],
      "name": "getProposalResults",
      "outputs": [
        {
          "internalType": "bool",
          "name": "isActive",
          "type": "bool"
        },
        {
          "internalType": "bool",
          "name": "passed",
          "type": "bool"
        }
      ],
      "stateMutability": "view",
      "type": "function"
    },
    {
      "inputs": [
        {
          "internalType": "uint256",
          "name": "_proposalId",
          "type": "uint256"
        }
      ],
      "name": "getProposalType",
      "outputs": [
        {
          "internalType": "uint256",
          "name": "",
          "type": "uint256"
        }
      ],
      "stateMutability": "view",
      "type": "function"
    },
    {
      "inputs": [
        {
          "internalType": "address",
          "name": "_address",
          "type": "address"
        },
        {
          "internalType": "uint256",
          "name": "_proposalId",
          "type": "uint256"
        }
      ],
      "name": "getProposalVote",
      "outputs": [
        {
          "internalType": "uint256",
          "name": "approveVotes",
          "type": "uint256"
        },
        {
          "internalType": "uint256",
          "name": "approveCreds",
          "type": "uint256"
        },
        {
          "internalType": "uint256",
          "name": "denyVotes",
          "type": "uint256"
        },
        {
          "internalType": "uint256",
          "name": "denyCreds",
          "type": "uint256"
        },
        {
          "internalType": "bool",
          "name": "",
          "type": "bool"
        }
      ],
      "stateMutability": "view",
      "type": "function"
    },
    {
      "inputs": [
        {
          "internalType": "bytes",
          "name": "_performData",
          "type": "bytes"
        }
      ],
      "name": "performUpkeep",
      "outputs": [],
      "stateMutability": "nonpayable",
      "type": "function"
    },
    {
      "inputs": [
        {
          "internalType": "uint256",
          "name": "",
          "type": "uint256"
        }
      ],
      "name": "propParamProposals",
      "outputs": [
        {
          "internalType": "uint256",
          "name": "minCredsToProposeVote",
          "type": "uint256"
        },
        {
          "internalType": "uint256",
          "name": "minCredsToVote",
          "type": "uint256"
        },
        {
          "internalType": "uint256",
          "name": "maxCredsCountedForVote",
          "type": "uint256"
        },
        {
          "internalType": "uint256",
          "name": "minProposalVotes",
          "type": "uint256"
        },
        {
          "internalType": "uint256",
          "name": "proposalTime",
          "type": "uint256"
        },
        {
          "internalType": "uint256",
          "name": "proposalDelay",
          "type": "uint256"
        }
      ],
      "stateMutability": "view",
      "type": "function"
    },
    {
      "inputs": [
        {
          "internalType": "uint256",
          "name": "",
          "type": "uint256"
        }
      ],
      "name": "proposals",
      "outputs": [
        {
          "internalType": "address",
          "name": "proposer",
          "type": "address"
        },
        {
          "internalType": "string",
          "name": "communityName",
          "type": "string"
        },
        {
          "internalType": "uint256",
          "name": "timestamp",
          "type": "uint256"
        },
        {
          "internalType": "uint256",
          "name": "propType",
          "type": "uint256"
        },
        {
          "internalType": "uint256",
          "name": "activeProposalsIndex",
          "type": "uint256"
        },
        {
          "internalType": "uint256",
          "name": "approveVotes",
          "type": "uint256"
        },
        {
          "internalType": "uint256",
          "name": "denyVotes",
          "type": "uint256"
        },
        {
          "internalType": "uint256",
          "name": "approveCreds",
          "type": "uint256"
        },
        {
          "internalType": "uint256",
          "name": "denyCreds",
          "type": "uint256"
        },
        {
          "internalType": "bool",
          "name": "isActive",
          "type": "bool"
        },
        {
          "internalType": "bool",
          "name": "passed",
          "type": "bool"
        }
      ],
      "stateMutability": "view",
      "type": "function"
    },
    {
      "inputs": [
        {
          "internalType": "uint256",
          "name": "_feePrice",
          "type": "uint256"
        }
      ],
      "name": "setFee",
      "outputs": [],
      "stateMutability": "nonpayable",
      "type": "function"
    },
    {
      "inputs": [
        {
          "internalType": "uint256",
          "name": "_mrt",
          "type": "uint256"
        }
      ],
      "name": "setMaxConsenousTime",
      "outputs": [],
      "stateMutability": "nonpayable",
      "type": "function"
    },
    {
      "inputs": [
        {
          "internalType": "uint256",
          "name": "_mpt",
          "type": "uint256"
        }
      ],
      "name": "setMaxProposalTime",
      "outputs": [],
      "stateMutability": "nonpayable",
      "type": "function"
    },
    {
      "inputs": [
        {
          "internalType": "uint256",
          "name": "_propId",
          "type": "uint256"
        }
      ],
      "name": "setProposalCanceled",
      "outputs": [],
      "stateMutability": "nonpayable",
      "type": "function"
    },
    {
      "inputs": [
        {
          "internalType": "uint256",
          "name": "_count",
          "type": "uint256"
        }
      ],
      "name": "setProposalCounter",
      "outputs": [],
      "stateMutability": "nonpayable",
      "type": "function"
    },
    {
      "inputs": [
        {
          "internalType": "uint256",
          "name": "_proposalId",
          "type": "uint256"
        }
      ],
      "name": "setProposalInactive",
      "outputs": [],
      "stateMutability": "nonpayable",
      "type": "function"
    },
    {
      "inputs": [
        {
          "internalType": "uint256",
          "name": "_upkeepId",
          "type": "uint256"
        }
      ],
      "name": "setUpkkepId",
      "outputs": [],
      "stateMutability": "nonpayable",
      "type": "function"
    },
    {
      "inputs": [
        {
          "internalType": "address",
          "name": "_contractAddress",
          "type": "address"
        }
      ],
      "name": "setlearntgetherMembersContract",
      "outputs": [],
      "stateMutability": "nonpayable",
      "type": "function"
    },
    {
      "inputs": [],
      "name": "upkeepId",
      "outputs": [
        {
          "internalType": "uint256",
          "name": "",
          "type": "uint256"
        }
      ],
      "stateMutability": "view",
      "type": "function"
    },
    {
      "inputs": [
        {
          "internalType": "uint256",
          "name": "proposalId",
          "type": "uint256"
        },
        {
          "internalType": "bool",
          "name": "voteChoice",
          "type": "bool"
        }
      ],
      "name": "vote",
      "outputs": [],
      "stateMutability": "nonpayable",
      "type": "function"
    }
  ],
  "bytecode": "0x608034620000d257601f620038d938819003918201601f19168301916001600160401b03831184841017620000be57808492602094604052833981010312620000d25751600d80546001600160a01b03191633179055600e5562786450600a819055600b55600160065560095468010000000000000000811015620000be576001810180600955811015620000aa575f90600982526020822001556040516138029081620000d78239f35b634e487b7160e01b5f52603260045260245ffd5b634e487b7160e01b5f52604160045260245ffd5b5f80fdfe60806040526004361015610011575f80fd5b5f3560e01c8062fb332b14612b95578063013cf08b14612acf5780630163b96814612aa75780630dc85f7d14612a5c5780630e5f60bd146127815780631282f6091461273e57806325f8729f146126f6578063269179891461262857806328adc2401461259b578063298a5750146124ca5780632bc2d705146124925780633bebe051146124485780633df67352146103e15780634585e33b14611fe1578063495d855e14611fc45780635787a0cc14611f965780635993ed0d14611f1d5780635bdcd00814611ee05780636853570914611e5e57806369fe0e2d14611e305780636c9fcd9914611d525780637b7fcfed14611ce95780638b64044014611cbb57806390943a8b14611c89578063a169093b14611c5b578063a258999d14611b5d578063a64108d514611a50578063ae9cff5e146119b1578063b07bcbc51461176c578063b3f6702d146116ec578063b5a890c6146115b2578063b60a85ae14611585578063bd719788146110bb578063c356ce4514610d55578063c8249d8a14610c04578063c9d27afe1461074b578063cdadc3021461071d578063d0d83923146104f4578063d2aa789f146104d7578063d978ffba146104aa578063dcf8620014610403578063ddca3f43146103e6578063e8e4d0d1146103e1578063eabeb2eb14610376578063ed9a9c36146102665763edd9012314610212575f80fd5b34610262576020366003190112610262576004355f52600460205260405f20805461025e6001830154926002810154906003810154600560048301549201549260405196879687612c98565b0390f35b5f80fd5b34610262576020806003193601126102625760043590604051636cbc7fdd60e11b81528260048201528181602481305afa801561036b575f9061033d575b60019150036102ed576003915f525260405f20805461025e600183015492600281015460038201546102e0600460ff6005860154169401613738565b9160405196879687612fbf565b6084906040519062461bcd60e51b825260048201526024808201527f50726f706f73616c206973206e6f74206120636f6d6d756e6974792070726f706044820152631bdcd85b60e21b6064820152fd5b508181813d8311610364575b6103538183612c01565b8101031261026257600190516102a4565b503d610349565b6040513d5f823e3d90fd5b34610262576020366003190112610262576004355f52600360205260405f20805461025e60018301549260028101549060ff6005600383015492015416916040519586958693909594919260809360a086019786526020860152604085015260608401521515910152565b612e6e565b34610262575f366003190112610262576020600e54604051908152f35b3461026257602080600319360112610262576004356001600160401b0381116102625760056104868361043d610495943690600401612c22565b6040519061047581519284830193610456818387612c77565b5f90820190815281900385019020546001600160a01b031615156136f0565b604051938492839251928391612c77565b81015f81520301902001613738565b9061025e604051928284938452830190612ebe565b34610262576020366003190112610262576004355f5260076020526020600360405f200154604051908152f35b34610262575f366003190112610262576020601054604051908152f35b3461026257602080600319360112610262576004355f8181526007835260409020546001600160a01b031633036106dc57805f5260078252600160ff600a60405f2001541615150361069757805f5260078252600460405f20015491600954908115610653575f19820191821161063f5783826007935f96036105a8575b50508284525281600460408220600a810160ff198154169055015561059561366d565b5f8051602061378d8339815191528280a3005b7ff041f52db3fd2f56a979d9dd319aa6a6e399c198410349cf154eb4b4568d7daa916106006105d8604093612dea565b90546105e384612dea565b91909260031b1c9082549060031b91821b915f19901b1916179055565b61060981612dea565b90549060031b1c8752848452806004838920015561062681612dea565b90549060031b1c90825191825284820152a18480610572565b634e487b7160e01b5f52601160045260245ffd5b6064906040519062461bcd60e51b82526004820152601d60248201527f546865726520617265206e6f206163746976652050726f706f73616c730000006044820152fd5b60405162461bcd60e51b815260048101839052601b60248201527f546869732070726f706f73616c206973206e6f742061637469766500000000006044820152606490fd5b60405162461bcd60e51b81526004810183905260196024820152785573657220646964206e6f742070726f706f7365207468697360381b6044820152606490fd5b346102625760203660031901126102625761074360018060a01b03600d541633146136ab565b600435600b55005b346102625760403660031901126102625760248035801515916004359083830361026257600654821015610bc557815f526020906007825260405f20906001918260ff600a83015416151503610b8157600281015491838201926107bb60056107b38661340b565b015482613494565b4210159081610b51575b5015610b1557600f54604051635848e2a360e11b81526001600160a01b0390911693908681806107f98533600484016134a1565b0381885afa801561036b5786915f91610ae8575b50151503610a94576009830193335f5284875260ff60405f205416610a56578660405180926302b5df5960e01b8252818061084c8733600484016134a1565b03915afa90811561036b575f91610a29575b50856108698361340b565b015481106109e557600261087c8361340b565b01548111156109dd5750604051865f9280549061089882612cc0565b918981169081156109c5575060011461098d575b505081838860029552030190200154965b1561093e576005820180549185830180931161092b5750916007917f7c2de587c00d75474a0c6c6fa96fd3b45dc974cd4e8a75f712bb84c950dce1b596959493550161090a878254613494565b90555b335f52825260405f209060ff198254161790556040519384523393a4005b634e487b7160e01b5f9081526011600452fd5b6006820180549185830180931161092b5750916008917f7c2de587c00d75474a0c6c6fa96fd3b45dc974cd4e8a75f712bb84c950dce1b5969594935501610986878254613494565b905561090d565b90919293505f52815f20875f915b8383106109b157505050820191908160026108ac565b8054838701528a949092019189910161099b565b60ff19168552505080151502820192508160026108ac565b9050966108bd565b60405162461bcd60e51b815260048101889052601b818501527f496e73756666696369656e7420637265647320746f20766f74652e00000000006044820152606490fd5b90508681813d8311610a4f575b610a408183612c01565b8101031261026257518a61085e565b503d610a36565b60405162461bcd60e51b815260048101889052601781850152762cb7ba903430bb329030b63932b0b23c903b37ba32b21760491b6044820152606490fd5b60405162461bcd60e51b8152600481018790526027818401527f596f7520617265206e6f742061206d656d626572206f66207468697320636f6d60448201526636bab734ba3c9760c91b6064820152608490fd5b610b089150883d8a11610b0e575b610b008183612c01565b810190613274565b8b61080d565b503d610af6565b8460166064926040519262461bcd60e51b84526004840152820152754e6f742041637469766520566f74696e672054696d6560501b6044820152fd5b610b789150610b6d906005610b658761340b565b015490613494565b6004610b658661340b565b421115896107c5565b60405162461bcd60e51b815260048101859052601c818401527f50726f706f73616c206973206e6f206c6f6e67657220416374697665000000006044820152606490fd5b60649060186040519162461bcd60e51b83526020600484015282015277283937b837b9b0b6103237b2b9903737ba1032bc34b9ba1760411b6044820152fd5b34610262575f366003190112610262575f8060095480610c7d575b506040519060208201526020815260408101918183106001600160401b03841117610c6957826040521515825260406060820152603f1990610c646080820182612d99565b030190f35b634e487b7160e01b5f52604160045260245ffd5b5f60015b828110610c8f575050610c1f565b610c9881612dea565b9054600391821b1c5f52610d016007602090808252610cdd600260405f200154610cc187612dea565b905490871b1c5f528284526005610b65600160405f200161340b565b91610ce786612dea565b905490861b1c5f52526004610b65600160405f200161340b565b4281111580610d43575b610d20575b5050610d1b906133fd565b610c81565b945094509050610d1b600194610d3583612dea565b9054911b1c93919086610d10565b508381111580610d0b57508315610d0b565b60e0366003190112610262576001600160401b0360043581811161026257610d81903690600401612c22565b9060a43590811161026257610d9a903690600401612f30565b610da2612fb0565b91604051610dd88251610db9818460208701612c77565b82015f815282602060018060a01b0394859303019020541615156131c0565b335f52600c602052610df160ff60405f20541615613206565b600f5416604051635848e2a360e11b815260208180610e1486336004840161328c565b0381855afa90811561036b57610e37916001915f9161109c575b501515146132b1565b602060405180926302b5df5960e01b82528180610e5887336004840161328c565b03915afa801561036b575f90611068575b610e9591506040516020818551610e838183858a01612c77565b8101600181520301902054111561330e565b610ea2600e54341461335a565b608435906006545f52600360205260405f20600b54808411611060575b50600760205260405f2080546001600160a01b03191633178155600a90610ee984600183016130df565b42600282015560095460048201556001600382015501600160ff19825416179055600654610f16836131a0565b9060405190428252600160208301525f805160206137ad83398151915260403393a460243581556044356001820155606435600282015582600382015560048101845190610f64828261300d565b60208601905f5260205f205f915b8383106110435760058501805460ff191660ff8b1515161790556110296110218a7fd416165fded554314340d3df7fafea0758e0c3ca3e1d11fa3d5949e196fdb9178b8b611006610ff360208e335f52600c825260405f20600160ff19825416179055610fe060065461339f565b8160405193828580945193849201612c77565b81016008815203019020600654906133da565b60065494859460405193849360643560443560243587612fbf565b0390a26133fd565b806006555f19810190811161063f57602090604051908152f35b6001602082611054839451866130df565b01920192019190610f72565b925085610ebf565b506020813d602011611094575b8161108260209383612c01565b8101031261026257610e959051610e69565b3d9150611075565b6110b5915060203d602011610b0e57610b008183612c01565b87610e2e565b34610262576101a0366003190112610262576001600160401b03600435818111610262576110ed903690600401612c22565b9060a43590811161026257611106903690600401612f30565b61110e612fb0565b90608435906101643593604051815161112b818360208601612c77565b5f9082019081528190036020019020546001600160a01b031661154457600b5480841161153c575b50600a54808611611534575b5060405160208183516111758183858801612c77565b5f9082019081520301902080546001600160a01b0319163317905560405181516001906111a6818460208701612c77565b8201915f835260208160243594030190200155604051600282516111ce818460208701612c77565b8201915f83526020816044359403019020015560405160038251916111f7838260208701612c77565b5f8382015260208160643594810103019020015582600460405160208185516112238183858a01612c77565b81015f8152030190200155600560405160208184516112458183858901612c77565b81015f8152030190200182519061125c828261300d565b60208401905f5260205f205f915b83831061151757505050506112ab84600660405160208186516112908183858b01612c77565b81015f815203019020019060ff801983541691151516179055565b6040518151906112bf828260208601612c77565b60018282015260208160e435938101030190205560405160018251916112e9838260208701612c77565b8183820152602081610104359481010301902001556040516002825191611314838260208701612c77565b600183820152602081610124359481010301902001556040516003825191611340838260208701612c77565b60018382015260208161014435948101030190200155846004604051602081855161136e8183858a01612c77565b8101600181520301902001556040516005825191611390838260208701612c77565b60018382015260208161018435948101030190200155600254600160401b811015610c69578060016113c59201600255612dbe565b929092611504577f12635b6c13bebfec4953c19529e35a5280c14802589492cc55f7abf477460e53947fe15a12cf7bec55171d4c75527dba8490d7250925e02581c648566a5e393d858260606114ff96611422866114de986130df565b61142b866131a0565b9360405191338352602083015215156040820152a2611449826131a0565b7f1940ba4355e83c6991c1529b8813d6e2a0689158afd29c636c49949a5ed4226260405180611491606435604435602435846040919493926060820195825260208201520152565b0390a27fe4f8e767b6409f0bd3e68aba6497e74237bf975f22e66f0328802c57da2145c56114d66114c1846131a0565b92604051918291602083526020830190612ebe565b0390a26131a0565b92604051918291610184359061014435610124356101043560e43587612c98565b0390a2005b634e487b7160e01b5f525f60045260245ffd5b6001602082611528839451866130df565b0192019201919061126a565b94508561115f565b925085611153565b60405162461bcd60e51b815260206004820152601960248201527821b7b6b6bab734ba3c9030b63932b0b23c9032bc34b9ba399760391b6044820152606490fd5b34610262576020366003190112610262576004355f5260076020526020600460405f200154604051908152f35b3461026257602080600319360112610262576004356001600160401b038111610262576115e3903690600401612c22565b61025e60405161161d835191858501926115fe818386612c77565b5f90820190815281900386019020546001600160a01b031615156136f0565b60405192805161162e818685612c77565b840193858160019687815203019020549360056116d4826040518981875161165781838c612c77565b81018481520301902001549760026040518281885161167781838d612c77565b810188815203019020015495600360405183818951611697818388612c77565b810189815203019020015494600460405184818a516116b7818389612c77565b810185815203019020015496604051948593849251928391612c77565b82019081520301902001549260405196879687612c98565b34610262576020366003190112610262576004356001600160401b0381116102625761171e6020913690600401612c22565b61175982604051928051906104758382019261173b818886612c77565b86015f8152868560018060a01b0398899303019020541615156136f0565b81015f8152030190205416604051908152f35b61177536612e2d565b604051918051926020936117af85840191611791818585612c77565b83015f8152838760018060a01b0395869303019020541615156131c0565b335f52600c85526117c760ff60405f20541615613206565b81600f541690604051635848e2a360e11b81528681806117eb88336004840161328c565b0381865afa90811561036b5761180d916001915f9161199457501515146132b1565b8560405180936302b5df5960e01b8252818061182d89336004840161328c565b03915afa90811561036b5786925f92611961575b5061185b92610e8391604051809381928951928391612c77565b611868600e54341461335a565b60069283545f526007855260405f2091600a60018060a01b031993338582541617815561189886600183016130df565b4260028201556009546004820155600380820155019360ff19946001868254161790556118c68654916131a0565b604051428152600389820152825f805160206137ad83398151915260403393a45f526005865260405f209116809282541617905533908354907f6a319039caa9a0b231fc1a3d10d617c656e322ebac0d326e9d0c95cbde9248a45f80a4335f52600c8352600160405f2091825416179055611941815461339f565b61194b81546133fd565b8091555f19810190811161063f57604051908152f35b8381949293503d831161198d575b6119798183612c01565b81010312610262579051859161185b611841565b503d61196f565b6119ab9150893d8b11610b0e57610b008183612c01565b89610e2e565b346102625760208060031936011261026257600435805f52600782526001600360405f200154146119f1575f5260038152610495600460405f2001613738565b60405162461bcd60e51b815260048101839052603160248201527f50726f706f73616c20446f6573204e6f7420457873697374206f72206973206e6044820152706f7420746865205269676874205479706560781b6064820152608490fd5b3461026257602080600319360112610262576004356001600160401b03811161026257611a81903690600401612c22565b61025e604051611a9c835191858501926115fe818386612c77565b600160405185818651611ab0818388612c77565b81015f815203019020015492600260405186818451611ad0818389612c77565b81015f815203019020015491611b36600561048688600360405182818951611af981838c612c77565b81015f815203019020015494600460405183818a51611b19818388612c77565b81015f815203019020015496604051938492839251928391612c77565b9260405196879687528601526040850152606084015260a0608084015260a0830190612ebe565b34610262576020806003193601126102625760043590604051636cbc7fdd60e11b81528260048201528181602481305afa801561036b575f90611c2d575b6002915003611bdb576004915f525260405f20805461025e6001830154926002810154906003810154600560048301549201549260405196879687612c98565b6084906040519062461bcd60e51b82526004820152602560248201527f50726f706f73616c206973206e6f7420612050726f7020506172616d2070726f6044820152641c1bdcd85b60da1b6064820152fd5b508181813d8311611c54575b611c438183612c01565b810103126102625760029051611b9b565b503d611c39565b3461026257602036600319011261026257611c8160018060a01b03600d541633146136ab565b600435600a55005b34610262576020366003190112610262576004355f526005602052602060018060a01b0360405f205416604051908152f35b3461026257602036600319011261026257611ce160018060a01b03600d541633146136ab565b600435600655005b34610262576020366003190112610262576004356001600160401b03811161026257611d1b6020913690600401612c22565b81611d2f6040519283815193849201612c77565b5f90820190815281900382019020546040516001600160a01b0390911615158152f35b346102625760208060031936011261026257600435604051636cbc7fdd60e11b81528160048201528281602481305afa801561036b575f90611e02575b6003915003611db3575f526005815260018060a01b0360405f205416604051908152f35b60405162461bcd60e51b815260048101839052602160248201527f50726f706f73616c206973206e6f74206120437573746f6d2070726f706f73616044820152601b60fa1b6064820152608490fd5b508281813d8311611e29575b611e188183612c01565b810103126102625760039051611d8f565b503d611e0e565b3461026257602036600319011261026257611e5660018060a01b03600d541633146136ab565b600435600e55005b3461026257604036600319011261026257611e77612e17565b6024355f908152600760208181526040808420600581015493810154600682015460088301546001600160a01b03989098168752600990920184529482902054825194855292840194909452820192909252606081019290925260ff161515608082015260a090f35b34610262576020366003190112610262576004355f5260076020526040600a815f20015460ff8251918181161515835260081c1615156020820152f35b34610262576040366003190112610262576004356001600160401b03811161026257611f4d903690600401612c22565b611f696020602435928160405193828580945193849201612c77565b81016008815203019020805482101561026257602091611f8891612e02565b90546040519160031b1c8152f35b3461026257602036600319011261026257611fbc60018060a01b03600d541633146136ab565b600435601055005b34610262575f366003190112610262576020600954604051908152f35b3461026257602080600319360112610262576004356001600160401b038082116102625736602383011215610262578160040135908111610262578101366024820111610262578183910312610262576024013590815f5260079182825260405f20600290818101549161207861206260059485610b65600180970161340b565b855f528787526004610b658560405f200161340b565b841515908161243d575b81612433575b5061208f57005b8492845f528684528460405f20928284015460068501548082119182612405575b826123e3575b50501561236657600390818501548281145f1461221157505050600494505f528552818460018060a01b0360405f2054167fca5be02c86f988b49c8f55fa1445e2252a5de3afaa608cc35db41feb6c22f83a5f80a45b81845f8051602061378d8339815191525f80a3835f52858552600a60405f200161010061ff00198254161790555b546001600160a01b03165f908152600c85526040808220805460ff1990811690941790558482528686529020600a8101805490921690915501546009545f19810190811161063f578082036121a2575b50505f52525f60046040822001556121a061366d565b005b7ff041f52db3fd2f56a979d9dd319aa6a6e399c198410349cf154eb4b4568d7daa916121d26105d8604093612dea565b6121db81612dea565b90549060031b1c5f52858552806004835f2001556121f881612dea565b90549060031b1c90825191825285820152a1838061218a565b929392808703612306575060405185870180545f9161222f82612cc0565b918a81169081156122ec57506001146122b6575b505092612292600460ff94838c86849e6122b19c9b988b5f60069d5203019020995f525260405f209081548c8a01558b820154818a015581015484890155838101548289015501838701613620565b895f528a5260405f2001541691019060ff801983541691151516179055565b61210c565b9091505f52885f205f905b8282106122d657505081016122926004612243565b8054828501528c9a8c98509091019089016122c1565b60ff19168552505080151502820190506122926004612243565b60049750819294501461231c575b50505061210c565b819061232986860161340b565b93885f52878a5260405f20918254865587830154888701558083015490860155808201549085015586810154878501550154910155868080612314565b50600494505f52868652600a60405f200161ff001981541690555f855f8051602061378d8339815191528280a3600380830154146123a5575b5061213a565b855260405f9081205485906001600160a01b03167fca5be02c86f988b49c8f55fa1445e2252a5de3afaa608cc35db41feb6c22f83a8380a48661239f565b6123ed9250613494565b60036123fa87870161340b565b015411158a806120b6565b91508a860154600887015410801561241e575b916120b0565b508261242b88880161340b565b015415612418565b9050151587612088565b428111159150612082565b34610262576020366003190112610262576004356001600160401b03811161026257600461247f602061043d819436908501612c22565b81015f8152030190200154604051908152f35b34610262576020366003190112610262576004356001600160401b03811161026257600161247f6020610fe081943690600401612c22565b34610262576124d836612e2d565b906040519080519060208101916124f0818585612c77565b83015f815283602060018060a01b0395869303019020541633036125465761252691602091604051938492839251928391612c77565b5f9082019081520301902080546001600160a01b03191691909216179055005b60405162461bcd60e51b815260206004820152602760248201527f55736572206973206e6f7420746865206f776e6572206f66207468697320636f6044820152666d6d756e69747960c81b6064820152608490fd5b34610262576020366003190112610262576004356001600160401b038111610262576125d26020610fe060c0933690600401612c22565b81015f81520301902060018060a01b0381541690600181015490600281015460038201549060ff6006600485015494015416936040519586526020860152604085015260608401526080830152151560a0820152f35b3461026257602080600319360112610262576004356001600160401b03811161026257612659903690600401612c22565b9061025e60036126ce6040519361269a8651958288019661267b81838a612c77565b5f90820190815281900383019020546001600160a01b031615156136f0565b6001604051828189516126ae81838c612c77565b81015f815203019020015494600260405183818a51611b19818388612c77565b81015f8152030190200154604051938493846040919493926060820195825260208201520152565b346102625760203660031901126102625761270f612e17565b600d546001600160a01b03919061272990831633146136ab565b1660018060a01b0319600f541617600f555f80f35b346102625760203660031901126102625761276460018060a01b03600d541633146136ab565b6004355f908152600760205260409020600a01805460ff19169055005b60e0366003190112610262576004356001600160401b038111610262576127ac903690600401612c22565b6040519080516020926127e5848401926127c7818486612c77565b82015f8152828660018060a01b0394859303019020541615156131c0565b335f52600c84526127fd60ff60405f20541615613206565b600f541660405192635848e2a360e11b845284848061282084336004840161328c565b0381855afa93841561036b575f94612a3d575b50612843600180951515146132b1565b8460405180936302b5df5960e01b8252818061286386336004840161328c565b03915afa801561036b5785925f91612a0a575b50926129d092916128a7611941956040518581855161289681838a612c77565b81018b81520301902054111561330e565b6128b4600e54341461335a565b60a43560069687545f52600485528760405f20600a548085116129e2575b506007875260405f2080546001600160a01b031916331781557f21932c3489904f014aba20cc9461e5338e3ce0249d632ab65cc1a9449eaa2f049190600a9061291d888783016130df565b426002820155600954600482015560026003820155019460ff19958587825416179055835461294b886131a0565b906040519042825260028c8301525f805160206137ad83398151915260403393a46129b1600560243592838555604435948589820155606435978860028301556084359182600382015583600482015560c4359485910155549760405196879687612c98565b0390a2335f52600c855260405f2091825416179055610475865461339f565b810160088152030190208254906133da565b93507f21932c3489904f014aba20cc9461e5338e3ce0249d632ab65cc1a9449eaa2f046128d2565b8381939492503d8311612a36575b612a228183612c01565b8101031261026257518491906129d0612876565b503d612a18565b612a55919450853d8711610b0e57610b008183612c01565b9285612833565b346102625760203660031901126102625760043560025481101561026257612a8390612dbe565b61150457612a9361025e91612cf8565b604051918291602083526020830190612d99565b34610262575f36600319011261026257600f546040516001600160a01b039091168152602090f35b34610262576020366003190112610262576004355f90815260076020526040902080546001600160a01b0316612b0760018301612cf8565b9160ff60028201549160038101549060048101546005820154600683015490600784015492600a600886015495015495612b556040519b8c9b8c5260208c61016091829101528c0190612d99565b9860408b015260608a0152608089015260a088015260c087015260e0860152610100850152818116151561012085015260081c1615156101408301520390f35b34610262576020366003190112610262576004356001600160401b038111610262576020610fe0612bca923690600401612c22565b81016001815203019020805461025e6001830154926002810154906003810154600560048301549201549260405196879687612c98565b90601f801991011681019081106001600160401b03821117610c6957604052565b81601f82011215610262578035906001600160401b038211610c695760405192612c56601f8401601f191660200185612c01565b8284526020838301011161026257815f926020809301838601378301015290565b5f5b838110612c885750505f910152565b8181015183820152602001612c79565b9260a094919796959260c0850198855260208501526040840152606083015260808201520152565b90600182811c92168015612cee575b6020831014612cda57565b634e487b7160e01b5f52602260045260245ffd5b91607f1691612ccf565b9060405191825f825492612d0b84612cc0565b9081845260019485811690815f14612d765750600114612d36575b5050612d3492500383612c01565b565b909391505f52602090815f20935f915b818310612d5e575050612d3493508201015f80612d26565b85548884018501529485019487945091830191612d46565b915050612d3494506020925060ff191682840152151560051b8201015f80612d26565b90602091612db281518092818552858086019101612c77565b601f01601f1916010190565b600254811015612dd65760025f5260205f2001905f90565b634e487b7160e01b5f52603260045260245ffd5b600954811015612dd65760095f5260205f2001905f90565b8054821015612dd6575f5260205f2001905f90565b600435906001600160a01b038216820361026257565b604060031982011261026257600435906001600160401b03821161026257612e5791600401612c22565b906024356001600160a01b03811681036102625790565b34610262576020366003190112610262576004356001600160401b0381116102625760ff6006612ea8602061043d81953690600401612c22565b81015f8152030190200154166040519015158152f35b908082519081815260208091019281808460051b8301019501935f915b848310612eeb5750505050505090565b9091929394958480612f09600193601f198682030187528a51612d99565b9801930193019194939290612edb565b6001600160401b038111610c695760051b60200190565b9080601f8301121561026257813590612f4882612f19565b92612f566040519485612c01565b828452602092838086019160051b8301019280841161026257848301915b848310612f845750505050505090565b82356001600160401b038111610262578691612fa584848094890101612c22565b815201920191612f74565b60c43590811515820361026257565b949192612fef9360a09592989798875260208701526040860152606085015260c0608085015260c0840190612ebe565b931515910152565b818110613002575050565b5f8155600101612ff7565b600160401b8211610c695780549180825582811061302a57505050565b5f91825260209081832093840193015b8381106130475750505050565b808361305560019354612cc0565b80613063575b50500161303a565b601f808211851461307a57505081555b835f61305b565b61309390848452868420920160051c8201858301612ff7565b81835555613073565b9190601f81116130ab57505050565b612d34925f5260205f20906020601f840160051c830193106130d5575b601f0160051c0190612ff7565b90915081906130c8565b91909182516001600160401b038111610c6957613106816131008454612cc0565b8461309c565b602080601f83116001146131405750819293945f92613135575b50508160011b915f199060031b1c1916179055565b015190505f80613120565b90601f19831695845f52825f20925f905b88821061318857505083600195969710613170575b505050811b019055565b01515f1960f88460031b161c191690555f8080613166565b80600185968294968601518155019501930190613151565b6131b890602060405192828480945193849201612c77565b810103902090565b156131c757565b60405162461bcd60e51b815260206004820152601760248201527610dbdb5b5d5b9a5d1e48191bd95cdb89dd08195e1a5cdd604a1b6044820152606490fd5b1561320d57565b60405162461bcd60e51b815260206004820152603960248201527f5573657220686173204f70656e205265766965772c20506c65617365207761696044820152783a103ab73a34b6361034ba1034b990383937b1b2b9b9b2b21760391b6064820152608490fd5b90816020910312610262575180151581036102625790565b6001600160a01b0390911681526040602082018190526132ae92910190612d99565b90565b156132b857565b60405162461bcd60e51b815260206004820152602860248201527f596f7520617265206e6f742061206d656d62657220666f72207468697320636f60448201526736b6bab734ba3c9760c11b6064820152608490fd5b1561331557565b60405162461bcd60e51b815260206004820152601e60248201527f496e73756666696369656e7420637265647320746f2070726f706f73652e00006044820152606490fd5b1561336157565b60405162461bcd60e51b81526020600482015260166024820152754d7573742073656e642070726f706f73616c2066656560501b6044820152606490fd5b60095490600160401b821015610c69576133c2826001612d349401600955612dea565b90919082549060031b91821b915f19901b1916179055565b80549190600160401b831015610c6957826133c2916001612d3495018155612e02565b5f19811461063f5760010190565b60405190815f82549261341d84612cc0565b9060019485811690815f1461347c5750600114613443575b505060209281520301902090565b5f9081526020808220959350905b82811061346857505060209350820190925f613435565b855487820152948301948694508101613451565b60ff191685525050801515028201905060205f613435565b9190820180921161063f57565b919060018060a01b031682526020916040838201525f9282546134c381612cc0565b9384604085015260019182811690815f1461352357506001146134e9575b505050505090565b5f908152828120949550935b85851061350f575050506060925001015f808080806134e1565b8054858501606001529382019381016134f5565b93505050506060935060ff929192191683830152151560051b01015f808080806134e1565b9080821461361c5761355a8154612cc0565b906001600160401b038211610c6957819061357f826135798654612cc0565b8661309c565b5f90601f83116001146135b2575f926135a75750508160011b915f199060031b1c1916179055565b015490505f80613120565b81526020808220858352818320935090601f1985169083905b8282106136035750509084600195949392106135eb57505050811b019055565b01545f1960f88460031b161c191690555f8080613166565b84958192958501548155600180910196019401906135cb565b5050565b81811461361c57815491613634838361300d565b5f5260205f20905f5260205f20905f905b8382106136525750505050565b8061365f60019285613548565b928101929181019101613645565b6009548015613697575f199081019061368582612dea565b909182549160031b1b19169055600955565b634e487b7160e01b5f52603160045260245ffd5b156136b257565b60405162461bcd60e51b81526020600482015260166024820152752737ba103a34329031b7b73a3930b1ba1037bbb732b960511b6044820152606490fd5b156136f757565b60405162461bcd60e51b815260206004820152601960248201527810dbdb5b5d5b9a5d1e48111bd95cc8139bdd08115e1cda5cdd603a1b6044820152606490fd5b90815461374481612f19565b926137526040519485612c01565b8184525f90815260208082208186015b848410613770575050505050565b600183819261377e85612cf8565b81520192019301929061376256fe35baaec8d9c9da1c77f27119243a4384b49eae2bf0680aa0eebe3b62d28574a56c98a8c940418b35614f0cd02412d5c9606faff474cbb6cdd6640ba5d1a9f06ba2646970667358221220fad4743cf4bd92058fdf2e7f1dc8ae8fcea165f51dc21775a25167402e68ab5064736f6c63430008140033",
  "linkReferences": {},
  "deployedLinkReferences": {}
}