{
  "_format": "hh-sol-artifact-1",
  "contractName": "learntgetherCommunities",
  "sourceName": "contracts/learntgetherCommunities.sol",
  "abi": [
    {
      "inputs": [
        {
          "internalType": "uint256",
          "name": "_feePrice",
          "type": "uint256"
        },
        {
          "internalType": "address payable",
          "name": "_feeAddress",
          "type": "address"
        }
      ],
      "stateMutability": "nonpayable",
      "type": "constructor"
    },
    {
      "anonymous": false,
      "inputs": [
        {
          "indexed": true,
          "internalType": "string",
          "name": "communityName",
          "type": "string"
        },
        {
          "indexed": false,
          "internalType": "address",
          "name": "creator",
          "type": "address"
        },
        {
          "indexed": false,
          "internalType": "bool",
          "name": "isInviteOnly",
          "type": "bool"
        }
      ],
      "name": "CommunityCreated",
      "type": "event"
    },
    {
      "anonymous": false,
      "inputs": [
        {
          "indexed": true,
          "internalType": "string",
          "name": "communityName",
          "type": "string"
        },
        {
          "indexed": false,
          "internalType": "uint256",
          "name": "minCredsToProposeVote",
          "type": "uint256"
        },
        {
          "indexed": false,
          "internalType": "uint256",
          "name": "minCredsToVote",
          "type": "uint256"
        },
        {
          "indexed": false,
          "internalType": "uint256",
          "name": "maxCredsCountedForVote",
          "type": "uint256"
        },
        {
          "indexed": false,
          "internalType": "uint256",
          "name": "minProposalVotes",
          "type": "uint256"
        },
        {
          "indexed": false,
          "internalType": "address",
          "name": "memberAccessContract",
          "type": "address"
        },
        {
          "indexed": false,
          "internalType": "uint256",
          "name": "proposalTime",
          "type": "uint256"
        },
        {
          "indexed": false,
          "internalType": "uint256",
          "name": "proposalDelay",
          "type": "uint256"
        },
        {
          "indexed": false,
          "internalType": "bool",
          "name": "isInviteOnly",
          "type": "bool"
        }
      ],
      "name": "CommunityInfo",
      "type": "event"
    },
    {
      "anonymous": false,
      "inputs": [
        {
          "indexed": true,
          "internalType": "string",
          "name": "communityName",
          "type": "string"
        },
        {
          "indexed": true,
          "internalType": "uint256",
          "name": "proposalId",
          "type": "uint256"
        },
        {
          "indexed": false,
          "internalType": "uint256",
          "name": "minCredsToProposeVote",
          "type": "uint256"
        },
        {
          "indexed": false,
          "internalType": "uint256",
          "name": "minCredsToVote",
          "type": "uint256"
        },
        {
          "indexed": false,
          "internalType": "uint256",
          "name": "maxCredsCountedForVote",
          "type": "uint256"
        },
        {
          "indexed": false,
          "internalType": "uint256",
          "name": "minProposalVotes",
          "type": "uint256"
        },
        {
          "indexed": false,
          "internalType": "address",
          "name": "memberAccessContract",
          "type": "address"
        },
        {
          "indexed": false,
          "internalType": "uint256",
          "name": "proposalTime",
          "type": "uint256"
        },
        {
          "indexed": false,
          "internalType": "uint256",
          "name": "proposalDelay",
          "type": "uint256"
        },
        {
          "indexed": false,
          "internalType": "bool",
          "name": "isInviteOnly",
          "type": "bool"
        }
      ],
      "name": "CommunityProposalParams",
      "type": "event"
    },
    {
      "anonymous": false,
      "inputs": [
        {
          "indexed": true,
          "internalType": "address",
          "name": "contractAddress",
          "type": "address"
        },
        {
          "indexed": true,
          "internalType": "uint256",
          "name": "proposalId",
          "type": "uint256"
        },
        {
          "indexed": true,
          "internalType": "address",
          "name": "proposer",
          "type": "address"
        }
      ],
      "name": "CustomProposalCreated",
      "type": "event"
    },
    {
      "anonymous": false,
      "inputs": [
        {
          "indexed": true,
          "internalType": "address",
          "name": "contractAddress",
          "type": "address"
        },
        {
          "indexed": true,
          "internalType": "uint256",
          "name": "proposalId",
          "type": "uint256"
        },
        {
          "indexed": true,
          "internalType": "bool",
          "name": "passed",
          "type": "bool"
        }
      ],
      "name": "CustomProposalResult",
      "type": "event"
    },
    {
      "anonymous": false,
      "inputs": [
        {
          "indexed": false,
          "internalType": "uint256",
          "name": "proposalId",
          "type": "uint256"
        },
        {
          "indexed": false,
          "internalType": "uint256",
          "name": "activeProposalsIndex",
          "type": "uint256"
        }
      ],
      "name": "IndexChange",
      "type": "event"
    },
    {
      "anonymous": false,
      "inputs": [
        {
          "indexed": true,
          "internalType": "uint256",
          "name": "proposalId",
          "type": "uint256"
        },
        {
          "indexed": true,
          "internalType": "address",
          "name": "proposer",
          "type": "address"
        },
        {
          "indexed": true,
          "internalType": "string",
          "name": "communityName",
          "type": "string"
        },
        {
          "indexed": false,
          "internalType": "uint256",
          "name": "timestamp",
          "type": "uint256"
        },
        {
          "indexed": false,
          "internalType": "uint256",
          "name": "propType",
          "type": "uint256"
        }
      ],
      "name": "ProposalCreated",
      "type": "event"
    },
    {
      "anonymous": false,
      "inputs": [
        {
          "indexed": true,
          "internalType": "uint256",
          "name": "proposalId",
          "type": "uint256"
        },
        {
          "indexed": true,
          "internalType": "bool",
          "name": "passed",
          "type": "bool"
        }
      ],
      "name": "ProposalResult",
      "type": "event"
    },
    {
      "anonymous": false,
      "inputs": [
        {
          "indexed": true,
          "internalType": "uint256",
          "name": "proposalId",
          "type": "uint256"
        },
        {
          "indexed": true,
          "internalType": "address",
          "name": "voter",
          "type": "address"
        },
        {
          "indexed": true,
          "internalType": "bool",
          "name": "voteChoice",
          "type": "bool"
        },
        {
          "indexed": false,
          "internalType": "uint256",
          "name": "credsToCount",
          "type": "uint256"
        }
      ],
      "name": "Voted",
      "type": "event"
    },
    {
      "inputs": [
        {
          "internalType": "uint256",
          "name": "",
          "type": "uint256"
        }
      ],
      "name": "CommunityNames",
      "outputs": [
        {
          "internalType": "string",
          "name": "",
          "type": "string"
        }
      ],
      "stateMutability": "view",
      "type": "function"
    },
    {
      "inputs": [
        {
          "internalType": "string",
          "name": "_communityName",
          "type": "string"
        },
        {
          "internalType": "uint256",
          "name": "_minCredsToProposeVote",
          "type": "uint256"
        },
        {
          "internalType": "uint256",
          "name": "_minCredsToVote",
          "type": "uint256"
        },
        {
          "internalType": "uint256",
          "name": "_maxCredsCountedForVote",
          "type": "uint256"
        },
        {
          "internalType": "uint256",
          "name": "_minProposalVotes",
          "type": "uint256"
        },
        {
          "internalType": "address",
          "name": "_credsAccessAddress",
          "type": "address"
        },
        {
          "internalType": "uint256",
          "name": "_proposalTime",
          "type": "uint256"
        },
        {
          "internalType": "uint256",
          "name": "_proposalDelay",
          "type": "uint256"
        },
        {
          "internalType": "bool",
          "name": "_isInviteOnly",
          "type": "bool"
        }
      ],
      "name": "CommunityProposal",
      "outputs": [
        {
          "internalType": "uint256",
          "name": "",
          "type": "uint256"
        }
      ],
      "stateMutability": "payable",
      "type": "function"
    },
    {
      "inputs": [
        {
          "internalType": "uint256",
          "name": "",
          "type": "uint256"
        }
      ],
      "name": "CommunityProposals",
      "outputs": [
        {
          "internalType": "uint256",
          "name": "minCredsToProposeVote",
          "type": "uint256"
        },
        {
          "internalType": "uint256",
          "name": "minCredsToVote",
          "type": "uint256"
        },
        {
          "internalType": "uint256",
          "name": "maxCredsCountedForVote",
          "type": "uint256"
        },
        {
          "internalType": "uint256",
          "name": "minProposalVotes",
          "type": "uint256"
        },
        {
          "internalType": "address",
          "name": "memberAccessContract",
          "type": "address"
        },
        {
          "internalType": "uint256",
          "name": "proposalTime",
          "type": "uint256"
        },
        {
          "internalType": "uint256",
          "name": "proposalDelay",
          "type": "uint256"
        },
        {
          "internalType": "bool",
          "name": "isInviteOnly",
          "type": "bool"
        }
      ],
      "stateMutability": "view",
      "type": "function"
    },
    {
      "inputs": [
        {
          "internalType": "string",
          "name": "_communityName",
          "type": "string"
        },
        {
          "internalType": "address",
          "name": "_contractAddress",
          "type": "address"
        }
      ],
      "name": "CustomProposal",
      "outputs": [
        {
          "internalType": "uint256",
          "name": "",
          "type": "uint256"
        }
      ],
      "stateMutability": "payable",
      "type": "function"
    },
    {
      "inputs": [
        {
          "internalType": "uint256",
          "name": "",
          "type": "uint256"
        }
      ],
      "name": "CustomProposals",
      "outputs": [
        {
          "internalType": "address",
          "name": "",
          "type": "address"
        }
      ],
      "stateMutability": "view",
      "type": "function"
    },
    {
      "inputs": [],
      "name": "MemberContract",
      "outputs": [
        {
          "internalType": "contract learntgetherMembersInterface",
          "name": "",
          "type": "address"
        }
      ],
      "stateMutability": "view",
      "type": "function"
    },
    {
      "inputs": [
        {
          "internalType": "string",
          "name": "_communityName",
          "type": "string"
        },
        {
          "internalType": "address",
          "name": "_newOwner",
          "type": "address"
        }
      ],
      "name": "changeCommunityOwner",
      "outputs": [],
      "stateMutability": "nonpayable",
      "type": "function"
    },
    {
      "inputs": [],
      "name": "checkUpKeep",
      "outputs": [
        {
          "internalType": "bool",
          "name": "upkeepNeeded",
          "type": "bool"
        },
        {
          "internalType": "bytes",
          "name": "performData",
          "type": "bytes"
        }
      ],
      "stateMutability": "view",
      "type": "function"
    },
    {
      "inputs": [
        {
          "internalType": "string",
          "name": "",
          "type": "string"
        }
      ],
      "name": "communities",
      "outputs": [
        {
          "internalType": "address",
          "name": "creator",
          "type": "address"
        },
        {
          "internalType": "uint256",
          "name": "minCredsToProposeVote",
          "type": "uint256"
        },
        {
          "internalType": "uint256",
          "name": "minCredsToVote",
          "type": "uint256"
        },
        {
          "internalType": "uint256",
          "name": "maxCredsCountedForVote",
          "type": "uint256"
        },
        {
          "internalType": "uint256",
          "name": "minProposalVotes",
          "type": "uint256"
        },
        {
          "internalType": "address",
          "name": "memberAccessContract",
          "type": "address"
        },
        {
          "internalType": "uint256",
          "name": "proposalTime",
          "type": "uint256"
        },
        {
          "internalType": "uint256",
          "name": "proposalDelay",
          "type": "uint256"
        },
        {
          "internalType": "bool",
          "name": "isInviteOnly",
          "type": "bool"
        }
      ],
      "stateMutability": "view",
      "type": "function"
    },
    {
      "inputs": [
        {
          "internalType": "string",
          "name": "_communityName",
          "type": "string"
        },
        {
          "internalType": "uint256",
          "name": "_minCredsToProposeVote",
          "type": "uint256"
        },
        {
          "internalType": "uint256",
          "name": "_minCredsToVote",
          "type": "uint256"
        },
        {
          "internalType": "uint256",
          "name": "_maxCredsCountedForVote",
          "type": "uint256"
        },
        {
          "internalType": "uint256",
          "name": "_minProposalVotes",
          "type": "uint256"
        },
        {
          "internalType": "address",
          "name": "_memberAccessContract",
          "type": "address"
        },
        {
          "internalType": "uint256",
          "name": "_proposalTime",
          "type": "uint256"
        },
        {
          "internalType": "uint256",
          "name": "_proposalDelay",
          "type": "uint256"
        },
        {
          "internalType": "bool",
          "name": "_isInviteOnly",
          "type": "bool"
        }
      ],
      "name": "createCommunity",
      "outputs": [],
      "stateMutability": "nonpayable",
      "type": "function"
    },
    {
      "inputs": [],
      "name": "fee",
      "outputs": [
        {
          "internalType": "uint256",
          "name": "",
          "type": "uint256"
        }
      ],
      "stateMutability": "view",
      "type": "function"
    },
    {
      "inputs": [
        {
          "internalType": "uint256",
          "name": "_propId",
          "type": "uint256"
        }
      ],
      "name": "getActiveProposalIndex",
      "outputs": [
        {
          "internalType": "uint256",
          "name": "",
          "type": "uint256"
        }
      ],
      "stateMutability": "view",
      "type": "function"
    },
    {
      "inputs": [],
      "name": "getActiveProposalsLength",
      "outputs": [
        {
          "internalType": "uint256",
          "name": "",
          "type": "uint256"
        }
      ],
      "stateMutability": "view",
      "type": "function"
    },
    {
      "inputs": [
        {
          "internalType": "string",
          "name": "_communityName",
          "type": "string"
        }
      ],
      "name": "getCommunityExists",
      "outputs": [
        {
          "internalType": "bool",
          "name": "",
          "type": "bool"
        }
      ],
      "stateMutability": "view",
      "type": "function"
    },
    {
      "inputs": [
        {
          "internalType": "string",
          "name": "_communityName",
          "type": "string"
        }
      ],
      "name": "getCommunityInfo",
      "outputs": [
        {
          "internalType": "uint256",
          "name": "minCredsToProposeVote",
          "type": "uint256"
        },
        {
          "internalType": "uint256",
          "name": "minCredsToVote",
          "type": "uint256"
        },
        {
          "internalType": "uint256",
          "name": "maxCredsCountedForVote",
          "type": "uint256"
        },
        {
          "internalType": "uint256",
          "name": "minProposalVotes",
          "type": "uint256"
        },
        {
          "internalType": "uint256",
          "name": "proposalTime",
          "type": "uint256"
        },
        {
          "internalType": "uint256",
          "name": "proposalDelay",
          "type": "uint256"
        },
        {
          "internalType": "bool",
          "name": "isInviteOnly",
          "type": "bool"
        }
      ],
      "stateMutability": "view",
      "type": "function"
    },
    {
      "inputs": [
        {
          "internalType": "string",
          "name": "_communityName",
          "type": "string"
        }
      ],
      "name": "getCommunityIsInviteOnly",
      "outputs": [
        {
          "internalType": "bool",
          "name": "",
          "type": "bool"
        }
      ],
      "stateMutability": "view",
      "type": "function"
    },
    {
      "inputs": [
        {
          "internalType": "string",
          "name": "_communityName",
          "type": "string"
        },
        {
          "internalType": "address",
          "name": "_add",
          "type": "address"
        }
      ],
      "name": "getCommunityIsOwner",
      "outputs": [
        {
          "internalType": "bool",
          "name": "",
          "type": "bool"
        }
      ],
      "stateMutability": "view",
      "type": "function"
    },
    {
      "inputs": [
        {
          "internalType": "string",
          "name": "_communityName",
          "type": "string"
        }
      ],
      "name": "getCommunityOwner",
      "outputs": [
        {
          "internalType": "address",
          "name": "",
          "type": "address"
        }
      ],
      "stateMutability": "view",
      "type": "function"
    },
    {
      "inputs": [],
      "name": "getFee",
      "outputs": [
        {
          "internalType": "uint256",
          "name": "",
          "type": "uint256"
        }
      ],
      "stateMutability": "view",
      "type": "function"
    },
    {
      "inputs": [
        {
          "internalType": "string",
          "name": "_communityName",
          "type": "string"
        }
      ],
      "name": "getMemberAccessContract",
      "outputs": [
        {
          "internalType": "address",
          "name": "",
          "type": "address"
        }
      ],
      "stateMutability": "view",
      "type": "function"
    },
    {
      "inputs": [
        {
          "internalType": "uint256",
          "name": "_numIdsreturned",
          "type": "uint256"
        },
        {
          "internalType": "uint256",
          "name": "_pageNumber",
          "type": "uint256"
        }
      ],
      "name": "getPaginatedActiveProposals",
      "outputs": [
        {
          "internalType": "uint256[]",
          "name": "",
          "type": "uint256[]"
        },
        {
          "internalType": "uint256",
          "name": "numPages",
          "type": "uint256"
        }
      ],
      "stateMutability": "view",
      "type": "function"
    },
    {
      "inputs": [
        {
          "internalType": "string",
          "name": "_communityName",
          "type": "string"
        },
        {
          "internalType": "uint256",
          "name": "_numIdsreturned",
          "type": "uint256"
        },
        {
          "internalType": "uint256",
          "name": "_pageNumber",
          "type": "uint256"
        }
      ],
      "name": "getPaginatedCommunityProposals",
      "outputs": [
        {
          "internalType": "uint256[]",
          "name": "",
          "type": "uint256[]"
        },
        {
          "internalType": "uint256",
          "name": "numPages",
          "type": "uint256"
        }
      ],
      "stateMutability": "view",
      "type": "function"
    },
    {
      "inputs": [
        {
          "internalType": "uint256",
          "name": "_proposalId",
          "type": "uint256"
        }
      ],
      "name": "getProposalResults",
      "outputs": [
        {
          "internalType": "bool",
          "name": "isActive",
          "type": "bool"
        },
        {
          "internalType": "bool",
          "name": "passed",
          "type": "bool"
        }
      ],
      "stateMutability": "view",
      "type": "function"
    },
    {
      "inputs": [
        {
          "internalType": "uint256",
          "name": "_proposalId",
          "type": "uint256"
        }
      ],
      "name": "getProposalType",
      "outputs": [
        {
          "internalType": "uint256",
          "name": "",
          "type": "uint256"
        }
      ],
      "stateMutability": "view",
      "type": "function"
    },
    {
      "inputs": [
        {
          "internalType": "address",
          "name": "_address",
          "type": "address"
        },
        {
          "internalType": "uint256",
          "name": "_proposalId",
          "type": "uint256"
        }
      ],
      "name": "getProposalVote",
      "outputs": [
        {
          "internalType": "uint256",
          "name": "approveVotes",
          "type": "uint256"
        },
        {
          "internalType": "uint256",
          "name": "approveCreds",
          "type": "uint256"
        },
        {
          "internalType": "uint256",
          "name": "denyVotes",
          "type": "uint256"
        },
        {
          "internalType": "uint256",
          "name": "denyCreds",
          "type": "uint256"
        },
        {
          "internalType": "bool",
          "name": "",
          "type": "bool"
        }
      ],
      "stateMutability": "view",
      "type": "function"
    },
    {
      "inputs": [
        {
          "internalType": "bytes",
          "name": "_performData",
          "type": "bytes"
        }
      ],
      "name": "performUpkeep",
      "outputs": [],
      "stateMutability": "nonpayable",
      "type": "function"
    },
    {
      "inputs": [
        {
          "internalType": "string",
          "name": "",
          "type": "string"
        },
        {
          "internalType": "uint256",
          "name": "",
          "type": "uint256"
        }
      ],
      "name": "porposalsByCommunity",
      "outputs": [
        {
          "internalType": "uint256",
          "name": "",
          "type": "uint256"
        }
      ],
      "stateMutability": "view",
      "type": "function"
    },
    {
      "inputs": [
        {
          "internalType": "uint256",
          "name": "",
          "type": "uint256"
        }
      ],
      "name": "proposals",
      "outputs": [
        {
          "internalType": "address",
          "name": "proposer",
          "type": "address"
        },
        {
          "internalType": "string",
          "name": "communityName",
          "type": "string"
        },
        {
          "internalType": "uint256",
          "name": "timestamp",
          "type": "uint256"
        },
        {
          "internalType": "uint256",
          "name": "propType",
          "type": "uint256"
        },
        {
          "internalType": "uint256",
          "name": "activeProposalsIndex",
          "type": "uint256"
        },
        {
          "internalType": "uint256",
          "name": "approveVotes",
          "type": "uint256"
        },
        {
          "internalType": "uint256",
          "name": "denyVotes",
          "type": "uint256"
        },
        {
          "internalType": "uint256",
          "name": "approveCreds",
          "type": "uint256"
        },
        {
          "internalType": "uint256",
          "name": "denyCreds",
          "type": "uint256"
        },
        {
          "internalType": "bool",
          "name": "isActive",
          "type": "bool"
        },
        {
          "internalType": "bool",
          "name": "passed",
          "type": "bool"
        }
      ],
      "stateMutability": "view",
      "type": "function"
    },
    {
      "inputs": [
        {
          "internalType": "uint256",
          "name": "_feePrice",
          "type": "uint256"
        }
      ],
      "name": "setFee",
      "outputs": [],
      "stateMutability": "nonpayable",
      "type": "function"
    },
    {
      "inputs": [
        {
          "internalType": "address payable",
          "name": "_feeAddress",
          "type": "address"
        }
      ],
      "name": "setFeeAddress",
      "outputs": [],
      "stateMutability": "nonpayable",
      "type": "function"
    },
    {
      "inputs": [
        {
          "internalType": "uint256",
          "name": "_mpt",
          "type": "uint256"
        }
      ],
      "name": "setMaxProposalTime",
      "outputs": [],
      "stateMutability": "nonpayable",
      "type": "function"
    },
    {
      "inputs": [
        {
          "internalType": "uint256",
          "name": "_propId",
          "type": "uint256"
        }
      ],
      "name": "setProposalCanceled",
      "outputs": [],
      "stateMutability": "nonpayable",
      "type": "function"
    },
    {
      "inputs": [
        {
          "internalType": "uint256",
          "name": "_count",
          "type": "uint256"
        }
      ],
      "name": "setProposalCounter",
      "outputs": [],
      "stateMutability": "nonpayable",
      "type": "function"
    },
    {
      "inputs": [
        {
          "internalType": "uint256",
          "name": "_proposalId",
          "type": "uint256"
        }
      ],
      "name": "setProposalInactive",
      "outputs": [],
      "stateMutability": "nonpayable",
      "type": "function"
    },
    {
      "inputs": [
        {
          "internalType": "uint256",
          "name": "_upkeepId",
          "type": "uint256"
        }
      ],
      "name": "setUpkkepId",
      "outputs": [],
      "stateMutability": "nonpayable",
      "type": "function"
    },
    {
      "inputs": [
        {
          "internalType": "address",
          "name": "_contractAddress",
          "type": "address"
        }
      ],
      "name": "setlearntgetherMembersContract",
      "outputs": [],
      "stateMutability": "nonpayable",
      "type": "function"
    },
    {
      "inputs": [],
      "name": "upkeepId",
      "outputs": [
        {
          "internalType": "uint256",
          "name": "",
          "type": "uint256"
        }
      ],
      "stateMutability": "view",
      "type": "function"
    },
    {
      "inputs": [
        {
          "internalType": "uint256",
          "name": "proposalId",
          "type": "uint256"
        },
        {
          "internalType": "bool",
          "name": "voteChoice",
          "type": "bool"
        }
      ],
      "name": "vote",
      "outputs": [],
      "stateMutability": "nonpayable",
      "type": "function"
    }
  ],
  "bytecode": "0x608034620000ee57601f62002d7d38819003918201601f19168301916001600160401b03831184841017620000da578084926040948552833981010312620000ee5780516020909101516001600160a01b03811690819003620000ee5760018060a01b03193381600a541617600a55600c541617600c55600b5562786450600355600160055560075468010000000000000000811015620000da576001810180600755811015620000c6575f9060078252602082200155604051612c8a9081620000f38239f35b634e487b7160e01b5f52603260045260245ffd5b634e487b7160e01b5f52604160045260245ffd5b5f80fdfe60806040526004361015610011575f80fd5b5f3560e01c8063013cf08b146121b25780630163b9681461218a57806304413d86146121255780630dc85f7d146120da5780631282f6091461209757806325f8729f1461204f57806328adc24014611f89578063298a575014611eb857806331b4ea2e14611b575780633df6735214611acf5780634585e33b14611734578063495d855e146117175780635787a0cc146116e95780635bdcd008146116ac5780636219f117146113f7578063685357091461138057806369fe0e2d14611352578063789aa8f61461122d5780637b7fcfed146111c45780638126d89514611162578063860eb3d9146110bc5780638705fcd4146110705780638b6404401461104257806390943a8b14611010578063a169093b14610fe2578063a64108d514610e66578063b07bcbc514610bac578063b3f6702d14610b2c578063b60a85ae14610aff578063c2c2e5f814610a86578063c8249d8a14610933578063c9d27afe146104e6578063cbe02a9f14610452578063ced72f87146101bb578063d0d8392314610226578063d2aa789f14610209578063d978ffba146101dc5763ddca3f43146101bb575f80fd5b346101d8575f3660031901126101d8576020600b54604051908152f35b5f80fd5b346101d85760203660031901126101d8576004355f5260066020526020600360405f200154604051908152f35b346101d8575f3660031901126101d8576020600e54604051908152f35b346101d8576020806003193601126101d8576004355f8181526006835260409020546001600160a01b0316330361041157805f5260068252600160ff600a60405f200154161515036103cc57805f5260068252600460405f20015491600754906001821115610388575f1982019182116103745783826006935f96036102dd575b50508284525281600460408220600a810160ff19815416905501556102ca612adb565b5f80516020612c358339815191528280a3005b7ff041f52db3fd2f56a979d9dd319aa6a6e399c198410349cf154eb4b4568d7daa9161033561030d60409361249c565b90546103188461249c565b91909260031b1c9082549060031b91821b915f19901b1916179055565b61033e8161249c565b90549060031b1c8752848452806004838920015561035b8161249c565b90549060031b1c90825191825284820152a184806102a7565b634e487b7160e01b5f52601160045260245ffd5b6064906040519062461bcd60e51b82526004820152601d60248201527f546865726520617265206e6f206163746976652050726f706f73616c730000006044820152fd5b60405162461bcd60e51b815260048101839052601b60248201527f546869732070726f706f73616c206973206e6f742061637469766500000000006044820152606490fd5b60405162461bcd60e51b81526004810183905260196024820152785573657220646964206e6f742070726f706f7365207468697360381b6044820152606490fd5b346101d85760203660031901126101d8576004356001600160401b0381116101d85761048460209136906004016123d3565b60056104d283604051938051906104c1838201926104a3818986612372565b87015f8152878560018060a01b03998a930301902054161515612b5e565b604051938492839251928391612372565b81015f815203019020015416604051908152f35b346101d85760403660031901126101d8576024803580151591600435908383036101d8576005548210156108f457815f526020906006825260405f20906001918260ff600a830154161515036108b05760028101549183820192610556600761054e86612999565b015482612a27565b4210159081610880575b501561084457600d54604051635848e2a360e11b81526001600160a01b039091169390868180610594853360048401612a34565b0381885afa801561077a5786915f91610817575b501515036107c3576009830193335f5284875260ff60405f205416610785578660405180926302b5df5960e01b825281806105e7873360048401612a34565b03915afa90811561077a575f9161074d575b50600261060583612999565b0154811061070957600361061883612999565b0154811115610701575061062d600391612999565b0154965b156106b2576005820180549185830180931161069f5750916007917f7c2de587c00d75474a0c6c6fa96fd3b45dc974cd4e8a75f712bb84c950dce1b596959493550161067e878254612a27565b90555b335f52825260405f209060ff198254161790556040519384523393a4005b634e487b7160e01b5f9081526011600452fd5b6006820180549185830180931161069f5750916008917f7c2de587c00d75474a0c6c6fa96fd3b45dc974cd4e8a75f712bb84c950dce1b59695949355016106fa878254612a27565b9055610681565b905096610631565b60405162461bcd60e51b815260048101889052601b818501527f496e73756666696369656e7420637265647320746f20766f74652e00000000006044820152606490fd5b90508681813d8311610773575b61076481836122b0565b810103126101d857518a6105f9565b503d61075a565b6040513d5f823e3d90fd5b60405162461bcd60e51b815260048101889052601781850152762cb7ba903430bb329030b63932b0b23c903b37ba32b21760491b6044820152606490fd5b60405162461bcd60e51b8152600481018790526027818401527f596f7520617265206e6f742061206d656d626572206f66207468697320636f6d60448201526636bab734ba3c9760c91b6064820152608490fd5b6108379150883d8a1161083d575b61082f81836122b0565b810190612790565b8b6105a8565b503d610825565b8460166064926040519262461bcd60e51b84526004840152820152754e6f742041637469766520566f74696e672054696d6560501b6044820152fd5b6108a7915061089c90600761089487612999565b015490612a27565b600661089486612999565b42111589610560565b60405162461bcd60e51b815260048101859052601c818401527f50726f706f73616c206973206e6f206c6f6e67657220416374697665000000006044820152606490fd5b60649060186040519162461bcd60e51b83526020600484015282015277283937b837b9b0b6103237b2b9903737ba1032bc34b9ba1760411b6044820152fd5b346101d8575f3660031901126101d8575f806007805490816109af575b50506040519060208201526020815260408101918183106001600160401b0384111761099b57826040521515825260406060820152603f19906109966080820182612393565b030190f35b634e487b7160e01b5f52604160045260245ffd5b5f9060015b8381106109c2575050610950565b6109cb8161249c565b9054600391821b1c5f52610a32600660209080825280610a10600260405f2001546109f58861249c565b905490881b1c5f5282855288610894600160405f2001612999565b92610a1a8761249c565b905490871b1c5f5252610894600160405f2001612999565b4281111580610a74575b610a51575b5050610a4c9061298b565b6109b4565b955095509150610a4c600195610a668461249c565b9054911b1c94929087610a41565b508481111580610a3c57508415610a3c565b346101d85760403660031901126101d8576004356001600160401b0381116101d857610ab69036906004016123d3565b610ad26020602435928160405193828580945193849201612372565b8101600881520301902080548210156101d857602091610af1916124b4565b90546040519160031b1c8152f35b346101d85760203660031901126101d8576004355f5260066020526020600460405f200154604051908152f35b346101d85760203660031901126101d8576004356001600160401b0381116101d857610b5e60209136906004016123d3565b610b9982604051928051906104c183820192610b7b818886612372565b86015f8152868560018060a01b039889930301902054161515612b5e565b81015f8152030190205416604051908152f35b610bb53661242f565b604051825190602093610bee85820193610bd0818587612372565b83015f8152838760018060a01b0395869303019020541615156126dc565b325f5260098552610c0660ff60405f20541615612722565b81600d5416604051635848e2a360e11b8152868180610c298632600484016127a8565b0381855afa90811561077a57610c4c916001915f91610e49575b501515146127cd565b8560405180926302b5df5960e01b82528180610c6c8732600484016127a8565b03915afa90811561077a575f91610e1c575b5060405186818451610c9181838a612372565b81015f815203019020600101541115610ca99061282a565b600b543414610cb790612876565b600580545f908152600687526040902080546001600160a01b0319908116331782559195919290610ceb82600183016125b4565b42600282015560075460048201556003810160029055600a019460ff199586815416600117905587875492610d1f816126bc565b6040514281528381016002905285339160407f6c98a8c940418b35614f0cd02412d5c9606faff474cbb6cdd6640ba5d1a9f06b91a460405180938192518092610d6792612372565b8101600881520301902090610d7b91612968565b84545f52600486528260405f209116809282541617905532908454907f6a319039caa9a0b231fc1a3d10d617c656e322ebac0d326e9d0c95cbde9248a45f80a43490600c54165a5f809381938293f1610dd26128bb565b50610ddc906128ea565b325f526009835260405f209081541660011790558054610dfb9061292d565b8054610e069061298b565b8091555f19810190811161037457604051908152f35b90508581813d8311610e42575b610e3381836122b0565b810103126101d8575186610c7e565b503d610e29565b610e609150893d8b1161083d5761082f81836122b0565b89610c43565b346101d8576020806003193601126101d857600435906001600160401b0382116101d857610e9a60e09236906004016123d3565b9060405191610ed381519383830194610eb4818388612372565b5f90820190815281900384019020546001600160a01b03161515612b5e565b600160405183818451610ee781838a612372565b81015f815203019020015492600260405184818551610f07818388612372565b81015f8152030190200154600360405185818651610f26818389612372565b81015f8152030190200154600460405186818751610f4581838a612372565b81015f81520301902001549160ff6008610faf886006610f72828a8c604051938492839251928391612372565b81015f815203019020015497600760405183818d51610f92818388612372565b81015f815203019020015499604051938492839251928391612372565b81015f8152030190200154169560405197885287015260408601526060850152608084015260a0830152151560c0820152f35b346101d85760203660031901126101d85761100860018060a01b03600a54163314612b19565b600435600355005b346101d85760203660031901126101d8576004355f526004602052602060018060a01b0360405f205416604051908152f35b346101d85760203660031901126101d85761106860018060a01b03600a54163314612b19565b600435600555005b346101d85760203660031901126101d8576004356001600160a01b03818116918290036101d8576110a690600a54163314612b19565b600c80546001600160a01b031916919091179055005b346101d85760403660031901126101d8576004356110d981612bbd565b905f6110e782602435612bef565b906110f28383612a27565b906007549283831161115a575b905b82821061112757856111138686612c16565b9061112360405192839283612531565b0390f35b61114e611154916111378461249c565b90549060031b1c611148828a612c02565b5261298b565b9161298b565b90611101565b8392506110ff565b346101d85760203660031901126101d8576004355f52600260205260405f208054611123600183015492600281015490600381015460018060a01b0360048301541660058301549160ff60076006860154950154169460405198899889612573565b346101d85760203660031901126101d8576004356001600160401b0381116101d8576111f660209136906004016123d3565b8161120a6040519283815193849201612372565b5f90820190815281900382019020546040516001600160a01b0390911615158152f35b346101d85760603660031901126101d8576004356001600160401b0381116101d85761125d9036906004016123d3565b60243561126981612bbd565b915f61127783604435612bef565b916112828484612a27565b90604051918151936020958684019561129c818789612372565b85019487816008978881520301902054831161132e575b905b8282106112e85788611113896112d98a8a8a8a604051948593849251928391612372565b82019081520301902054612c16565b61114e61132891611317846113098b8b604051809381928d51928391612372565b81018c8152030190206124b4565b90549060031b1c611148828d612c02565b906112b5565b91506040518681855161134281838b612372565b81018781520301902054916112b3565b346101d85760203660031901126101d85761137860018060a01b03600a54163314612b19565b600435600b55005b346101d85760403660031901126101d85760a061139b612419565b6024355f52600660205260405f206005810154916007820154916009600682015491600881015493600180891b03165f520160205260ff60405f2054169260405194855260208501526040840152606083015215156080820152f35b346101d857611405366124c9565b92829491929897959891604051895190602097888c0192611427818486612372565b82015f8152828a60018060a01b0394859303019020541661166b57918b89928b8f8e8c97600354809111611662575b50926008959261158c95926115a79998956040518781875161147981838c612372565b81015f8152030190209260018060a01b031993338582541617905560016040518981806114aa8c8c51928391612372565b81015f81520301902001556002604051888188516114c981838d612372565b81015f81520301902001556003604051878187516114e881838c612372565b81015f81520301902001558960046040518781875161150881838c612372565b81015f815203019020015560056040518681865161152781838b612372565b81015f81520301902001918b16908254161790558960066040518581855161155081838a612372565b81015f81520301902001558a60076040518581855161157081838a612372565b81015f8152030190200155604051938492839251928391612372565b81015f815203019020019060ff801983541691151516179055565b600154600160401b81101561099b578060016115c69201600155612470565b61164f578961164a976115fd7fa33e969841918d6c70510ff52aaf2f08256c371553465cdd2beb001c23b0f5049c61163d946125b4565b7f770333f2d96faae538a5391fa34d7f90a88dc8af3aadcb1735c43839cb6955666040611629846126bc565b928151903382528b151590820152a26126bc565b9960405198899889612573565b0390a2005b634e487b7160e01b5f525f60045260245ffd5b9a506008611456565b60405162461bcd60e51b8152600481018a9052601960248201527821b7b6b6bab734ba3c9030b63932b0b23c9032bc34b9ba399760391b6044820152606490fd5b346101d85760203660031901126101d8576004355f5260066020526040600a815f20015460ff8251918181161515835260081c1615156020820152f35b346101d85760203660031901126101d85761170f60018060a01b03600a54163314612b19565b600435600e55005b346101d8575f3660031901126101d8576020600754604051908152f35b346101d8576020806003193601126101d8576004356001600160401b038082116101d857366023830112156101d85781600401359081116101d85781013660248201116101d85781839103126101d8576024013590815f5260069182825260405f206002906117c76117b28383015460076108946001809601612999565b845f52868652866108948460405f2001612999565b8315159081611ac4575b81611aba575b506117de57005b825f5284845260405f20916005830154868401548082119182611a8a575b82611a68575b5050156119f4578160038401548281145f1461195a57505050825f5260048452808360018060a01b0360405f2054167fca5be02c86f988b49c8f55fa1445e2252a5de3afaa608cc35db41feb6c22f83a5f80a45b825f80516020612c358339815191525f80a3815f52838352600a60405f200161010061ff00198254161790555b546001600160a01b03165f908152600983526040808220805460ff199081169091558383528585529120600a81018054909216909155600401546007545f198101908111610374578082036118eb575b50505f52525f60046040822001556118e9612adb565b005b7ff041f52db3fd2f56a979d9dd319aa6a6e399c198410349cf154eb4b4568d7daa9161191b61030d60409361249c565b6119248161249c565b90549060031b1c5f52858552806004835f2001556119418161249c565b90549060031b1c90825191825285820152a183806118d3565b14611966575b50611856565b6119ee90600860ff600761197b868801612999565b93885f52808a5260405f2090815488870155878201548187015581015460038601556003810154600486015560018060a01b03600482015416600586019060018060a01b031982541617905560058101548b8601558a8101548286015501541691019060ff801983541691151516179055565b85611960565b9050825f52848452600a60405f200161ff001981541690555f835f80516020612c358339815191528280a3600382015403611883576004835260405f9081205483906001600160a01b03167fca5be02c86f988b49c8f55fa1445e2252a5de3afaa608cc35db41feb6c22f83a8380a4611883565b611a729250612a27565b6004611a7f848601612999565b015411158780611802565b915060078501546008860154108015611aa4575b916117fc565b506003611ab2858701612999565b015415611a9e565b90501515866117d7565b4281111591506117d1565b346101d85760203660031901126101d8576004356001600160401b0381116101d85760ff6008611b416020611b09819536906004016123d3565b604051906104c181519284830193611b22818387612372565b5f90820190815281900385019020546001600160a01b03161515612b5e565b81015f8152030190200154166040519015158152f35b611b60366124c9565b92611ba260206040999698979994939451611b818c82815194859201612372565b5f918101918252908190036020019020546001600160a01b031615156126dc565b325f526009602052611bbb60ff60405f20541615612722565b600d54604051635848e2a360e11b81526001600160a01b039091169060208180611be98e32600484016127a8565b0381855afa90811561077a57611c2e92611c1260016020948f945f91611e9b57501515146127cd565b60405180809581946302b5df5960e01b835232600484016127a8565b03915afa90811561077a578a905f92611e59575b5097611c9d611de296959493926001611c8b60207f65513f3a4b238816f691e4322be549c10eeaa1ef78fe116618b0d83e5ca252b69d8160405193828580945193849201612372565b81015f8152030190200154111561282a565b611caa600b543414612876565b84836005545f5260026020528c60405f2091600354809111611e4f575b50600660205260405f2080546001600160a01b03191633178155611dd693926007929091611d889190611cfd82600183016125b4565b4260028201558454600482015560016003820155600a600160ff19828401541617910155611d79602060055492611d33816126bc565b604051428152600184820152857f6c98a8c940418b35614f0cd02412d5c9606faff474cbb6cdd6640ba5d1a9f06b60403393a48160405193828580945193849201612372565b81016008815203019020612968565b8a81558b60018201558d60028201558460038201556004810160018060a01b03871660018060a01b0319825416179055866005820155876006820155019060ff801983541691151516179055565b61163d6005549b6126bc565b0390a3611e085f8080803460018060a01b03600c54165af1611e026128bb565b506128ea565b335f52600960205260405f20600160ff19825416179055611e2a60055461292d565b611e3560055461298b565b806005555f19810190811161037457602090604051908152f35b9550611dd6611cc7565b959493929150506020853d602011611e93575b81611e79602093836122b0565b810103126101d85793519293919290919089611c9d611c42565b3d9150611e6c565b611eb29150863d881161083d5761082f81836122b0565b5f610c43565b346101d857611ec63661242f565b90604051908051906020810191611ede818585612372565b83015f815283602060018060a01b039586930301902054163303611f3457611f1491602091604051938492839251928391612372565b5f9082019081520301902080546001600160a01b03191691909216179055005b60405162461bcd60e51b815260206004820152602760248201527f55736572206973206e6f7420746865206f776e6572206f66207468697320636f6044820152666d6d756e69747960c81b6064820152608490fd5b346101d85760203660031901126101d8576004356001600160401b0381116101d857611fd46020611fc16101209336906004016123d3565b8160405193828580945193849201612372565b81015f81520301902060018060a01b0380825416916001810154916002820154906003830154906004840154906005850154169160068501549360ff600860078801549701541696604051988952602089015260408801526060870152608086015260a085015260c084015260e08301521515610100820152f35b346101d85760203660031901126101d857612068612419565b600a546001600160a01b0391906120829083163314612b19565b1660018060a01b0319600d541617600d555f80f35b346101d85760203660031901126101d8576120bd60018060a01b03600a54163314612b19565b6004355f908152600660205260409020600a01805460ff19169055005b346101d85760203660031901126101d8576004356001548110156101d85761210190612470565b61164f57612111611123916122d1565b604051918291602083526020830190612393565b346101d8576020806121363661242f565b919061217482604051928051906104c183820192612155818886612372565b86015f81528660018060a01b0398899889930301902054161515612b5e565b81015f8152030190205416906040519216148152f35b346101d8575f3660031901126101d857600d546040516001600160a01b039091168152602090f35b346101d85760203660031901126101d8576004355f90815260066020526040902080546001600160a01b03166121ea600183016122d1565b9160ff60028201549160038101549060048101546005820154600683015490600784015492600a6008860154950154956122386040519b8c9b8c5260208c61016091829101528c0190612393565b9860408b015260608a0152608089015260a088015260c087015260e0860152610100850152818116151561012085015260081c1615156101408301520390f35b90600182811c921680156122a6575b602083101461229257565b634e487b7160e01b5f52602260045260245ffd5b91607f1691612287565b90601f801991011681019081106001600160401b0382111761099b57604052565b9060405191825f8254926122e484612278565b9081845260019485811690815f1461234f575060011461230f575b505061230d925003836122b0565b565b909391505f52602090815f20935f915b81831061233757505061230d93508201015f806122ff565b8554888401850152948501948794509183019161231f565b91505061230d94506020925060ff191682840152151560051b8201015f806122ff565b5f5b8381106123835750505f910152565b8181015183820152602001612374565b906020916123ac81518092818552858086019101612372565b601f01601f1916010190565b6001600160401b03811161099b57601f01601f191660200190565b81601f820112156101d8578035906123ea826123b8565b926123f860405194856122b0565b828452602083830101116101d857815f926020809301838601378301015290565b600435906001600160a01b03821682036101d857565b60406003198201126101d857600435906001600160401b0382116101d857612459916004016123d3565b906024356001600160a01b03811681036101d85790565b6001548110156124885760015f5260205f2001905f90565b634e487b7160e01b5f52603260045260245ffd5b6007548110156124885760075f5260205f2001905f90565b8054821015612488575f5260205f2001905f90565b6101206003198201126101d857600435906001600160401b0382116101d8576124f4916004016123d3565b906024359060443590606435906084359060a4356001600160a01b03811681036101d8579060c4359060e435906101043580151581036101d85790565b9291906040840160408552815180915260608501906020809301905f5b8482821061255f5750505050930152565b83518552938401939092019160010161254e565b969390989794919260e0969361010089019a895260208901526040880152606087015260018060a01b0316608086015260a085015260c08401521515910152565b91909182516001600160401b03811161099b576125d18254612278565b601f8111612675575b50602080601f83116001146126155750819293945f9261260a575b50508160011b915f199060031b1c1916179055565b015190505f806125f5565b90601f19831695845f52825f20925f905b88821061265d57505083600195969710612645575b505050811b019055565b01515f1960f88460031b161c191690555f808061263b565b80600185968294968601518155019501930190612626565b5f83815260208120601f840160051c810192602085106126b2575b601f0160051c01915b8281106126a75750506125da565b818155600101612699565b9092508290612690565b6126d490602060405192828480945193849201612372565b810103902090565b156126e357565b60405162461bcd60e51b815260206004820152601760248201527610dbdb5b5d5b9a5d1e48191bd95cdb89dd08195e1a5cdd604a1b6044820152606490fd5b1561272957565b60405162461bcd60e51b815260206004820152603960248201527f5573657220686173204f70656e205265766965772c20506c65617365207761696044820152783a103ab73a34b6361034ba1034b990383937b1b2b9b9b2b21760391b6064820152608490fd5b908160209103126101d8575180151581036101d85790565b6001600160a01b0390911681526040602082018190526127ca92910190612393565b90565b156127d457565b60405162461bcd60e51b815260206004820152602860248201527f596f7520617265206e6f742061206d656d62657220666f72207468697320636f60448201526736b6bab734ba3c9760c11b6064820152608490fd5b1561283157565b60405162461bcd60e51b815260206004820152601e60248201527f496e73756666696369656e7420637265647320746f2070726f706f73652e00006044820152606490fd5b1561287d57565b60405162461bcd60e51b81526020600482015260166024820152754d7573742073656e642070726f706f73616c2066656560501b6044820152606490fd5b3d156128e5573d906128cc826123b8565b916128da60405193846122b0565b82523d5f602084013e565b606090565b156128f157565b60405162461bcd60e51b81526020600482015260146024820152732330b4b632b2103a379039b2b7321022ba3432b960611b6044820152606490fd5b60075490600160401b82101561099b5761295082600161230d940160075561249c565b90919082549060031b91821b915f19901b1916179055565b80549190600160401b83101561099b578261295091600161230d950181556124b4565b5f1981146103745760010190565b60405190815f82546129aa81612278565b93600191808316908115612a0b57506001146129d1575b5050602092505f81520301902090565b9091505f52602090815f20905f915b8583106129f7575050505060209181015f806129c1565b8054878401528694509183019181016129e0565b92505050602093915060ff191682528015150281015f806129c1565b9190820180921161037457565b919060018060a01b031682526020916040838201525f928254612a5681612278565b9384604085015260019182811690815f14612ab65750600114612a7c575b505050505090565b5f908152828120949550935b858510612aa2575050506060925001015f80808080612a74565b805485850160600152938201938101612a88565b93505050506060935060ff929192191683830152151560051b01015f80808080612a74565b6007548015612b05575f1990810190612af38261249c565b909182549160031b1b19169055600755565b634e487b7160e01b5f52603160045260245ffd5b15612b2057565b60405162461bcd60e51b81526020600482015260166024820152752737ba103a34329031b7b73a3930b1ba1037bbb732b960511b6044820152606490fd5b15612b6557565b60405162461bcd60e51b815260206004820152601960248201527810dbdb5b5d5b9a5d1e48111bd95cc8139bdd08115e1cda5cdd603a1b6044820152606490fd5b6001600160401b03811161099b5760051b60200190565b90612bc782612ba6565b612bd460405191826122b0565b8281528092612be5601f1991612ba6565b0190602036910137565b8181029291811591840414171561037457565b80518210156124885760209160051b010190565b8115612c20570490565b634e487b7160e01b5f52601260045260245ffdfe35baaec8d9c9da1c77f27119243a4384b49eae2bf0680aa0eebe3b62d28574a5a26469706673582212203af2f4265de126060633bc590435d4356269a33d798151359c948b3a5f47bc8264736f6c63430008140033",
  "linkReferences": {},
  "deployedLinkReferences": {}
}