{
  "_format": "hh-sol-artifact-1",
  "contractName": "learntgetherCommunities",
  "sourceName": "contracts/learntgetherCommunities.sol",
  "abi": [
    {
      "inputs": [
        {
          "internalType": "uint256",
          "name": "_feePrice",
          "type": "uint256"
        },
        {
          "internalType": "address payable",
          "name": "_feeAddress",
          "type": "address"
        }
      ],
      "stateMutability": "nonpayable",
      "type": "constructor"
    },
    {
      "anonymous": false,
      "inputs": [
        {
          "indexed": true,
          "internalType": "string",
          "name": "communityName",
          "type": "string"
        },
        {
          "indexed": false,
          "internalType": "address",
          "name": "creator",
          "type": "address"
        },
        {
          "indexed": false,
          "internalType": "bool",
          "name": "isInviteOnly",
          "type": "bool"
        }
      ],
      "name": "CommunityCreated",
      "type": "event"
    },
    {
      "anonymous": false,
      "inputs": [
        {
          "indexed": true,
          "internalType": "string",
          "name": "communityName",
          "type": "string"
        },
        {
          "indexed": false,
          "internalType": "uint256",
          "name": "minCredsToProposeVote",
          "type": "uint256"
        },
        {
          "indexed": false,
          "internalType": "uint256",
          "name": "minCredsToVote",
          "type": "uint256"
        },
        {
          "indexed": false,
          "internalType": "uint256",
          "name": "maxCredsCountedForVote",
          "type": "uint256"
        },
        {
          "indexed": false,
          "internalType": "uint256",
          "name": "minProposalVotes",
          "type": "uint256"
        },
        {
          "indexed": false,
          "internalType": "address",
          "name": "memberAccessContract",
          "type": "address"
        },
        {
          "indexed": false,
          "internalType": "uint256",
          "name": "proposalTime",
          "type": "uint256"
        },
        {
          "indexed": false,
          "internalType": "uint256",
          "name": "proposalDelay",
          "type": "uint256"
        },
        {
          "indexed": false,
          "internalType": "bool",
          "name": "isInviteOnly",
          "type": "bool"
        }
      ],
      "name": "CommunityInfo",
      "type": "event"
    },
    {
      "anonymous": false,
      "inputs": [
        {
          "indexed": true,
          "internalType": "string",
          "name": "communityName",
          "type": "string"
        },
        {
          "indexed": true,
          "internalType": "uint256",
          "name": "proposalId",
          "type": "uint256"
        },
        {
          "indexed": false,
          "internalType": "uint256",
          "name": "minCredsToProposeVote",
          "type": "uint256"
        },
        {
          "indexed": false,
          "internalType": "uint256",
          "name": "minCredsToVote",
          "type": "uint256"
        },
        {
          "indexed": false,
          "internalType": "uint256",
          "name": "maxCredsCountedForVote",
          "type": "uint256"
        },
        {
          "indexed": false,
          "internalType": "uint256",
          "name": "minProposalVotes",
          "type": "uint256"
        },
        {
          "indexed": false,
          "internalType": "address",
          "name": "memberAccessContract",
          "type": "address"
        },
        {
          "indexed": false,
          "internalType": "uint256",
          "name": "proposalTime",
          "type": "uint256"
        },
        {
          "indexed": false,
          "internalType": "uint256",
          "name": "proposalDelay",
          "type": "uint256"
        },
        {
          "indexed": false,
          "internalType": "bool",
          "name": "isInviteOnly",
          "type": "bool"
        }
      ],
      "name": "CommunityProposalParams",
      "type": "event"
    },
    {
      "anonymous": false,
      "inputs": [
        {
          "indexed": true,
          "internalType": "address",
          "name": "contractAddress",
          "type": "address"
        },
        {
          "indexed": true,
          "internalType": "uint256",
          "name": "proposalId",
          "type": "uint256"
        },
        {
          "indexed": true,
          "internalType": "address",
          "name": "proposer",
          "type": "address"
        }
      ],
      "name": "CustomProposalCreated",
      "type": "event"
    },
    {
      "anonymous": false,
      "inputs": [
        {
          "indexed": true,
          "internalType": "address",
          "name": "contractAddress",
          "type": "address"
        },
        {
          "indexed": true,
          "internalType": "uint256",
          "name": "proposalId",
          "type": "uint256"
        },
        {
          "indexed": true,
          "internalType": "bool",
          "name": "passed",
          "type": "bool"
        }
      ],
      "name": "CustomProposalResult",
      "type": "event"
    },
    {
      "anonymous": false,
      "inputs": [
        {
          "indexed": false,
          "internalType": "uint256",
          "name": "proposalId",
          "type": "uint256"
        },
        {
          "indexed": false,
          "internalType": "uint256",
          "name": "activeProposalsIndex",
          "type": "uint256"
        }
      ],
      "name": "IndexChange",
      "type": "event"
    },
    {
      "anonymous": false,
      "inputs": [
        {
          "indexed": true,
          "internalType": "uint256",
          "name": "proposalId",
          "type": "uint256"
        },
        {
          "indexed": true,
          "internalType": "address",
          "name": "proposer",
          "type": "address"
        },
        {
          "indexed": true,
          "internalType": "string",
          "name": "communityName",
          "type": "string"
        },
        {
          "indexed": false,
          "internalType": "uint256",
          "name": "timestamp",
          "type": "uint256"
        },
        {
          "indexed": false,
          "internalType": "uint256",
          "name": "propType",
          "type": "uint256"
        }
      ],
      "name": "ProposalCreated",
      "type": "event"
    },
    {
      "anonymous": false,
      "inputs": [
        {
          "indexed": true,
          "internalType": "uint256",
          "name": "proposalId",
          "type": "uint256"
        },
        {
          "indexed": true,
          "internalType": "bool",
          "name": "passed",
          "type": "bool"
        }
      ],
      "name": "ProposalResult",
      "type": "event"
    },
    {
      "anonymous": false,
      "inputs": [
        {
          "indexed": true,
          "internalType": "uint256",
          "name": "proposalId",
          "type": "uint256"
        },
        {
          "indexed": true,
          "internalType": "address",
          "name": "voter",
          "type": "address"
        },
        {
          "indexed": true,
          "internalType": "bool",
          "name": "voteChoice",
          "type": "bool"
        },
        {
          "indexed": false,
          "internalType": "uint256",
          "name": "credsToCount",
          "type": "uint256"
        }
      ],
      "name": "Voted",
      "type": "event"
    },
    {
      "inputs": [
        {
          "internalType": "uint256",
          "name": "",
          "type": "uint256"
        }
      ],
      "name": "CommunityNames",
      "outputs": [
        {
          "internalType": "string",
          "name": "",
          "type": "string"
        }
      ],
      "stateMutability": "view",
      "type": "function"
    },
    {
      "inputs": [
        {
          "internalType": "string",
          "name": "_communityName",
          "type": "string"
        },
        {
          "internalType": "uint256",
          "name": "_minCredsToProposeVote",
          "type": "uint256"
        },
        {
          "internalType": "uint256",
          "name": "_minCredsToVote",
          "type": "uint256"
        },
        {
          "internalType": "uint256",
          "name": "_maxCredsCountedForVote",
          "type": "uint256"
        },
        {
          "internalType": "uint256",
          "name": "_minProposalVotes",
          "type": "uint256"
        },
        {
          "internalType": "address",
          "name": "_credsAccessAddress",
          "type": "address"
        },
        {
          "internalType": "uint256",
          "name": "_proposalTime",
          "type": "uint256"
        },
        {
          "internalType": "uint256",
          "name": "_proposalDelay",
          "type": "uint256"
        },
        {
          "internalType": "bool",
          "name": "_isInviteOnly",
          "type": "bool"
        }
      ],
      "name": "CommunityProposal",
      "outputs": [
        {
          "internalType": "uint256",
          "name": "",
          "type": "uint256"
        }
      ],
      "stateMutability": "payable",
      "type": "function"
    },
    {
      "inputs": [
        {
          "internalType": "uint256",
          "name": "",
          "type": "uint256"
        }
      ],
      "name": "CommunityProposals",
      "outputs": [
        {
          "internalType": "uint256",
          "name": "minCredsToProposeVote",
          "type": "uint256"
        },
        {
          "internalType": "uint256",
          "name": "minCredsToVote",
          "type": "uint256"
        },
        {
          "internalType": "uint256",
          "name": "maxCredsCountedForVote",
          "type": "uint256"
        },
        {
          "internalType": "uint256",
          "name": "minProposalVotes",
          "type": "uint256"
        },
        {
          "internalType": "address",
          "name": "memberAccessContract",
          "type": "address"
        },
        {
          "internalType": "uint256",
          "name": "proposalTime",
          "type": "uint256"
        },
        {
          "internalType": "uint256",
          "name": "proposalDelay",
          "type": "uint256"
        },
        {
          "internalType": "bool",
          "name": "isInviteOnly",
          "type": "bool"
        }
      ],
      "stateMutability": "view",
      "type": "function"
    },
    {
      "inputs": [
        {
          "internalType": "string",
          "name": "_communityName",
          "type": "string"
        },
        {
          "internalType": "address",
          "name": "_contractAddress",
          "type": "address"
        }
      ],
      "name": "CustomProposal",
      "outputs": [
        {
          "internalType": "uint256",
          "name": "",
          "type": "uint256"
        }
      ],
      "stateMutability": "payable",
      "type": "function"
    },
    {
      "inputs": [
        {
          "internalType": "uint256",
          "name": "",
          "type": "uint256"
        }
      ],
      "name": "CustomProposals",
      "outputs": [
        {
          "internalType": "address",
          "name": "",
          "type": "address"
        }
      ],
      "stateMutability": "view",
      "type": "function"
    },
    {
      "inputs": [],
      "name": "MemberContract",
      "outputs": [
        {
          "internalType": "contract learntgetherMembersInterface",
          "name": "",
          "type": "address"
        }
      ],
      "stateMutability": "view",
      "type": "function"
    },
    {
      "inputs": [
        {
          "internalType": "string",
          "name": "_communityName",
          "type": "string"
        },
        {
          "internalType": "address",
          "name": "_newOwner",
          "type": "address"
        }
      ],
      "name": "changeCommunityOwner",
      "outputs": [],
      "stateMutability": "nonpayable",
      "type": "function"
    },
    {
      "inputs": [],
      "name": "checkUpkeep",
      "outputs": [
        {
          "internalType": "bool",
          "name": "upkeepNeeded",
          "type": "bool"
        },
        {
          "internalType": "bytes",
          "name": "performData",
          "type": "bytes"
        }
      ],
      "stateMutability": "view",
      "type": "function"
    },
    {
      "inputs": [
        {
          "internalType": "string",
          "name": "",
          "type": "string"
        }
      ],
      "name": "communities",
      "outputs": [
        {
          "internalType": "address",
          "name": "creator",
          "type": "address"
        },
        {
          "internalType": "uint256",
          "name": "minCredsToProposeVote",
          "type": "uint256"
        },
        {
          "internalType": "uint256",
          "name": "minCredsToVote",
          "type": "uint256"
        },
        {
          "internalType": "uint256",
          "name": "maxCredsCountedForVote",
          "type": "uint256"
        },
        {
          "internalType": "uint256",
          "name": "minProposalVotes",
          "type": "uint256"
        },
        {
          "internalType": "address",
          "name": "memberAccessContract",
          "type": "address"
        },
        {
          "internalType": "uint256",
          "name": "proposalTime",
          "type": "uint256"
        },
        {
          "internalType": "uint256",
          "name": "proposalDelay",
          "type": "uint256"
        },
        {
          "internalType": "bool",
          "name": "isInviteOnly",
          "type": "bool"
        }
      ],
      "stateMutability": "view",
      "type": "function"
    },
    {
      "inputs": [
        {
          "internalType": "string",
          "name": "_communityName",
          "type": "string"
        },
        {
          "internalType": "uint256",
          "name": "_minCredsToProposeVote",
          "type": "uint256"
        },
        {
          "internalType": "uint256",
          "name": "_minCredsToVote",
          "type": "uint256"
        },
        {
          "internalType": "uint256",
          "name": "_maxCredsCountedForVote",
          "type": "uint256"
        },
        {
          "internalType": "uint256",
          "name": "_minProposalVotes",
          "type": "uint256"
        },
        {
          "internalType": "address",
          "name": "_memberAccessContract",
          "type": "address"
        },
        {
          "internalType": "uint256",
          "name": "_proposalTime",
          "type": "uint256"
        },
        {
          "internalType": "uint256",
          "name": "_proposalDelay",
          "type": "uint256"
        },
        {
          "internalType": "bool",
          "name": "_isInviteOnly",
          "type": "bool"
        }
      ],
      "name": "createCommunity",
      "outputs": [],
      "stateMutability": "nonpayable",
      "type": "function"
    },
    {
      "inputs": [],
      "name": "fee",
      "outputs": [
        {
          "internalType": "uint256",
          "name": "",
          "type": "uint256"
        }
      ],
      "stateMutability": "view",
      "type": "function"
    },
    {
      "inputs": [
        {
          "internalType": "uint256",
          "name": "_propId",
          "type": "uint256"
        }
      ],
      "name": "getActiveProposalIndex",
      "outputs": [
        {
          "internalType": "uint256",
          "name": "",
          "type": "uint256"
        }
      ],
      "stateMutability": "view",
      "type": "function"
    },
    {
      "inputs": [],
      "name": "getActiveProposalsLength",
      "outputs": [
        {
          "internalType": "uint256",
          "name": "",
          "type": "uint256"
        }
      ],
      "stateMutability": "view",
      "type": "function"
    },
    {
      "inputs": [
        {
          "internalType": "string",
          "name": "_communityName",
          "type": "string"
        }
      ],
      "name": "getCommunityExists",
      "outputs": [
        {
          "internalType": "bool",
          "name": "",
          "type": "bool"
        }
      ],
      "stateMutability": "view",
      "type": "function"
    },
    {
      "inputs": [
        {
          "internalType": "string",
          "name": "_communityName",
          "type": "string"
        }
      ],
      "name": "getCommunityInfo",
      "outputs": [
        {
          "internalType": "uint256",
          "name": "minCredsToProposeVote",
          "type": "uint256"
        },
        {
          "internalType": "uint256",
          "name": "minCredsToVote",
          "type": "uint256"
        },
        {
          "internalType": "uint256",
          "name": "maxCredsCountedForVote",
          "type": "uint256"
        },
        {
          "internalType": "uint256",
          "name": "minProposalVotes",
          "type": "uint256"
        },
        {
          "internalType": "uint256",
          "name": "proposalTime",
          "type": "uint256"
        },
        {
          "internalType": "uint256",
          "name": "proposalDelay",
          "type": "uint256"
        },
        {
          "internalType": "bool",
          "name": "isInviteOnly",
          "type": "bool"
        }
      ],
      "stateMutability": "view",
      "type": "function"
    },
    {
      "inputs": [
        {
          "internalType": "string",
          "name": "_communityName",
          "type": "string"
        }
      ],
      "name": "getCommunityIsInviteOnly",
      "outputs": [
        {
          "internalType": "bool",
          "name": "",
          "type": "bool"
        }
      ],
      "stateMutability": "view",
      "type": "function"
    },
    {
      "inputs": [
        {
          "internalType": "string",
          "name": "_communityName",
          "type": "string"
        },
        {
          "internalType": "address",
          "name": "_add",
          "type": "address"
        }
      ],
      "name": "getCommunityIsOwner",
      "outputs": [
        {
          "internalType": "bool",
          "name": "",
          "type": "bool"
        }
      ],
      "stateMutability": "view",
      "type": "function"
    },
    {
      "inputs": [
        {
          "internalType": "string",
          "name": "_communityName",
          "type": "string"
        }
      ],
      "name": "getCommunityOwner",
      "outputs": [
        {
          "internalType": "address",
          "name": "",
          "type": "address"
        }
      ],
      "stateMutability": "view",
      "type": "function"
    },
    {
      "inputs": [],
      "name": "getFee",
      "outputs": [
        {
          "internalType": "uint256",
          "name": "",
          "type": "uint256"
        }
      ],
      "stateMutability": "view",
      "type": "function"
    },
    {
      "inputs": [
        {
          "internalType": "string",
          "name": "_communityName",
          "type": "string"
        }
      ],
      "name": "getMemberAccessContract",
      "outputs": [
        {
          "internalType": "address",
          "name": "",
          "type": "address"
        }
      ],
      "stateMutability": "view",
      "type": "function"
    },
    {
      "inputs": [
        {
          "internalType": "uint256",
          "name": "_numIdsreturned",
          "type": "uint256"
        },
        {
          "internalType": "uint256",
          "name": "_pageNumber",
          "type": "uint256"
        }
      ],
      "name": "getPaginatedActiveProposals",
      "outputs": [
        {
          "internalType": "uint256[]",
          "name": "",
          "type": "uint256[]"
        },
        {
          "internalType": "uint256",
          "name": "numPages",
          "type": "uint256"
        }
      ],
      "stateMutability": "view",
      "type": "function"
    },
    {
      "inputs": [
        {
          "internalType": "string",
          "name": "_communityName",
          "type": "string"
        },
        {
          "internalType": "uint256",
          "name": "_numIdsreturned",
          "type": "uint256"
        },
        {
          "internalType": "uint256",
          "name": "_pageNumber",
          "type": "uint256"
        }
      ],
      "name": "getPaginatedCommunityProposals",
      "outputs": [
        {
          "internalType": "uint256[]",
          "name": "",
          "type": "uint256[]"
        },
        {
          "internalType": "uint256",
          "name": "numPages",
          "type": "uint256"
        }
      ],
      "stateMutability": "view",
      "type": "function"
    },
    {
      "inputs": [
        {
          "internalType": "uint256",
          "name": "_proposalId",
          "type": "uint256"
        }
      ],
      "name": "getProposalResults",
      "outputs": [
        {
          "internalType": "bool",
          "name": "isActive",
          "type": "bool"
        },
        {
          "internalType": "bool",
          "name": "passed",
          "type": "bool"
        }
      ],
      "stateMutability": "view",
      "type": "function"
    },
    {
      "inputs": [
        {
          "internalType": "uint256",
          "name": "_proposalId",
          "type": "uint256"
        }
      ],
      "name": "getProposalType",
      "outputs": [
        {
          "internalType": "uint256",
          "name": "",
          "type": "uint256"
        }
      ],
      "stateMutability": "view",
      "type": "function"
    },
    {
      "inputs": [
        {
          "internalType": "address",
          "name": "_address",
          "type": "address"
        },
        {
          "internalType": "uint256",
          "name": "_proposalId",
          "type": "uint256"
        }
      ],
      "name": "getProposalVote",
      "outputs": [
        {
          "internalType": "uint256",
          "name": "approveVotes",
          "type": "uint256"
        },
        {
          "internalType": "uint256",
          "name": "approveCreds",
          "type": "uint256"
        },
        {
          "internalType": "uint256",
          "name": "denyVotes",
          "type": "uint256"
        },
        {
          "internalType": "uint256",
          "name": "denyCreds",
          "type": "uint256"
        },
        {
          "internalType": "bool",
          "name": "",
          "type": "bool"
        }
      ],
      "stateMutability": "view",
      "type": "function"
    },
    {
      "inputs": [
        {
          "internalType": "address",
          "name": "",
          "type": "address"
        }
      ],
      "name": "hasOpenProposal",
      "outputs": [
        {
          "internalType": "bool",
          "name": "",
          "type": "bool"
        }
      ],
      "stateMutability": "view",
      "type": "function"
    },
    {
      "inputs": [
        {
          "internalType": "bytes",
          "name": "_performData",
          "type": "bytes"
        }
      ],
      "name": "performUpkeep",
      "outputs": [],
      "stateMutability": "nonpayable",
      "type": "function"
    },
    {
      "inputs": [
        {
          "internalType": "string",
          "name": "",
          "type": "string"
        },
        {
          "internalType": "uint256",
          "name": "",
          "type": "uint256"
        }
      ],
      "name": "porposalsByCommunity",
      "outputs": [
        {
          "internalType": "uint256",
          "name": "",
          "type": "uint256"
        }
      ],
      "stateMutability": "view",
      "type": "function"
    },
    {
      "inputs": [
        {
          "internalType": "uint256",
          "name": "",
          "type": "uint256"
        }
      ],
      "name": "proposals",
      "outputs": [
        {
          "internalType": "address",
          "name": "proposer",
          "type": "address"
        },
        {
          "internalType": "string",
          "name": "communityName",
          "type": "string"
        },
        {
          "internalType": "uint256",
          "name": "timestamp",
          "type": "uint256"
        },
        {
          "internalType": "uint256",
          "name": "propType",
          "type": "uint256"
        },
        {
          "internalType": "uint256",
          "name": "activeProposalsIndex",
          "type": "uint256"
        },
        {
          "internalType": "uint256",
          "name": "approveVotes",
          "type": "uint256"
        },
        {
          "internalType": "uint256",
          "name": "denyVotes",
          "type": "uint256"
        },
        {
          "internalType": "uint256",
          "name": "approveCreds",
          "type": "uint256"
        },
        {
          "internalType": "uint256",
          "name": "denyCreds",
          "type": "uint256"
        },
        {
          "internalType": "bool",
          "name": "isActive",
          "type": "bool"
        },
        {
          "internalType": "bool",
          "name": "passed",
          "type": "bool"
        }
      ],
      "stateMutability": "view",
      "type": "function"
    },
    {
      "inputs": [
        {
          "internalType": "uint256",
          "name": "_feePrice",
          "type": "uint256"
        }
      ],
      "name": "setFee",
      "outputs": [],
      "stateMutability": "nonpayable",
      "type": "function"
    },
    {
      "inputs": [
        {
          "internalType": "address payable",
          "name": "_feeAddress",
          "type": "address"
        }
      ],
      "name": "setFeeAddress",
      "outputs": [],
      "stateMutability": "nonpayable",
      "type": "function"
    },
    {
      "inputs": [
        {
          "internalType": "uint256",
          "name": "_mpt",
          "type": "uint256"
        }
      ],
      "name": "setMaxProposalTime",
      "outputs": [],
      "stateMutability": "nonpayable",
      "type": "function"
    },
    {
      "inputs": [
        {
          "internalType": "uint256",
          "name": "_propId",
          "type": "uint256"
        }
      ],
      "name": "setProposalCanceled",
      "outputs": [],
      "stateMutability": "nonpayable",
      "type": "function"
    },
    {
      "inputs": [
        {
          "internalType": "uint256",
          "name": "_count",
          "type": "uint256"
        }
      ],
      "name": "setProposalCounter",
      "outputs": [],
      "stateMutability": "nonpayable",
      "type": "function"
    },
    {
      "inputs": [
        {
          "internalType": "uint256",
          "name": "_proposalId",
          "type": "uint256"
        }
      ],
      "name": "setProposalInactive",
      "outputs": [],
      "stateMutability": "nonpayable",
      "type": "function"
    },
    {
      "inputs": [
        {
          "internalType": "uint256",
          "name": "_upkeepId",
          "type": "uint256"
        }
      ],
      "name": "setUpkkepId",
      "outputs": [],
      "stateMutability": "nonpayable",
      "type": "function"
    },
    {
      "inputs": [
        {
          "internalType": "address",
          "name": "_contractAddress",
          "type": "address"
        }
      ],
      "name": "setlearntgetherMembersContract",
      "outputs": [],
      "stateMutability": "nonpayable",
      "type": "function"
    },
    {
      "inputs": [],
      "name": "upkeepId",
      "outputs": [
        {
          "internalType": "uint256",
          "name": "",
          "type": "uint256"
        }
      ],
      "stateMutability": "view",
      "type": "function"
    },
    {
      "inputs": [
        {
          "internalType": "uint256",
          "name": "proposalId",
          "type": "uint256"
        },
        {
          "internalType": "bool",
          "name": "voteChoice",
          "type": "bool"
        }
      ],
      "name": "vote",
      "outputs": [],
      "stateMutability": "nonpayable",
      "type": "function"
    }
  ],
  "bytecode": "0x608034620000ee57601f62002dc538819003918201601f19168301916001600160401b03831184841017620000da578084926040948552833981010312620000ee5780516020909101516001600160a01b03811690819003620000ee5760018060a01b03193381600a541617600a55600c541617600c55600b5562786450600355600160055560075468010000000000000000811015620000da576001810180600755811015620000c6575f9060078252602082200155604051612cd29081620000f38239f35b634e487b7160e01b5f52603260045260245ffd5b634e487b7160e01b5f52604160045260245ffd5b5f80fdfe60806040526004361015610011575f80fd5b5f3560e01c8063013cf08b146121fa5780630163b968146121d257806304413d861461216d5780630dc85f7d146121225780631282f609146120df57806325f8729f1461209757806328adc24014611fd1578063298a575014611f0057806331b4ea2e14611b9f5780633df6735214611b175780634585e33b1461177c578063495d855e1461175f5780635787a0cc146117315780635bdcd008146116f45780636219f1171461143f57806368535709146113c857806369fe0e2d1461139a578063789aa8f6146112755780637b7fcfed1461120c5780638126d895146111aa578063860eb3d9146111045780638705fcd4146110b85780638b6404401461108a57806390943a8b14611058578063a13abdad14610f05578063a169093b14610ed7578063a64108d514610d5b578063b07bcbc514610aa1578063b3f6702d14610a21578063b60a85ae146109f4578063c2c2e5f81461097b578063c9d27afe1461052e578063cbe02a9f1461049a578063ced72f8714610207578063d0d839231461026e578063d2aa789f14610251578063d978ffba14610224578063ddca3f43146102075763ff1225d9146101c6575f80fd5b34610203576020366003190112610203576001600160a01b036101e7612461565b165f526009602052602060ff60405f2054166040519015158152f35b5f80fd5b34610203575f366003190112610203576020600b54604051908152f35b34610203576020366003190112610203576004355f5260066020526020600360405f200154604051908152f35b34610203575f366003190112610203576020600e54604051908152f35b3461020357602080600319360112610203576004355f8181526006835260409020546001600160a01b0316330361045957805f5260068252600160ff600a60405f2001541615150361041457805f5260068252600460405f200154916007549060018211156103d0575f1982019182116103bc5783826006935f9603610325575b50508284525281600460408220600a810160ff1981541690550155610312612b23565b5f80516020612c7d8339815191528280a3005b7ff041f52db3fd2f56a979d9dd319aa6a6e399c198410349cf154eb4b4568d7daa9161037d6103556040936124e4565b9054610360846124e4565b91909260031b1c9082549060031b91821b915f19901b1916179055565b610386816124e4565b90549060031b1c875284845280600483892001556103a3816124e4565b90549060031b1c90825191825284820152a184806102ef565b634e487b7160e01b5f52601160045260245ffd5b6064906040519062461bcd60e51b82526004820152601d60248201527f546865726520617265206e6f206163746976652050726f706f73616c730000006044820152fd5b60405162461bcd60e51b815260048101839052601b60248201527f546869732070726f706f73616c206973206e6f742061637469766500000000006044820152606490fd5b60405162461bcd60e51b81526004810183905260196024820152785573657220646964206e6f742070726f706f7365207468697360381b6044820152606490fd5b34610203576020366003190112610203576004356001600160401b038111610203576104cc602091369060040161241b565b600561051a8360405193805190610509838201926104eb8189866123ba565b87015f8152878560018060a01b03998a930301902054161515612ba6565b6040519384928392519283916123ba565b81015f815203019020015416604051908152f35b34610203576040366003190112610203576024803580151591600435908383036102035760055482101561093c57815f526020906006825260405f20906001918260ff600a830154161515036108f8576002810154918382019261059e6007610596866129e1565b015482612a6f565b42101590816108c8575b501561088c57600d54604051635848e2a360e11b81526001600160a01b0390911693908681806105dc853360048401612a7c565b0381885afa80156107c25786915f9161085f575b5015150361080b576009830193335f5284875260ff60405f2054166107cd578660405180926302b5df5960e01b8252818061062f873360048401612a7c565b03915afa9081156107c2575f91610795575b50600261064d836129e1565b01548112610751576003610660836129e1565b015481131561074957506106756003916129e1565b0154965b156106fa57600582018054918583018093116106e75750916007917f7c2de587c00d75474a0c6c6fa96fd3b45dc974cd4e8a75f712bb84c950dce1b59695949355016106c6878254612a6f565b90555b335f52825260405f209060ff198254161790556040519384523393a4005b634e487b7160e01b5f9081526011600452fd5b600682018054918583018093116106e75750916008917f7c2de587c00d75474a0c6c6fa96fd3b45dc974cd4e8a75f712bb84c950dce1b5969594935501610742878254612a6f565b90556106c9565b905096610679565b60405162461bcd60e51b815260048101889052601b818501527f496e73756666696369656e7420637265647320746f20766f74652e00000000006044820152606490fd5b90508681813d83116107bb575b6107ac81836122f8565b8101031261020357518a610641565b503d6107a2565b6040513d5f823e3d90fd5b60405162461bcd60e51b815260048101889052601781850152762cb7ba903430bb329030b63932b0b23c903b37ba32b21760491b6044820152606490fd5b60405162461bcd60e51b8152600481018790526027818401527f596f7520617265206e6f742061206d656d626572206f66207468697320636f6d60448201526636bab734ba3c9760c91b6064820152608490fd5b61087f9150883d8a11610885575b61087781836122f8565b8101906127d8565b8b6105f0565b503d61086d565b8460166064926040519262461bcd60e51b84526004840152820152754e6f742041637469766520566f74696e672054696d6560501b6044820152fd5b6108ef91506108e49060076108dc876129e1565b015490612a6f565b60066108dc866129e1565b421115896105a8565b60405162461bcd60e51b815260048101859052601c818401527f50726f706f73616c206973206e6f206c6f6e67657220416374697665000000006044820152606490fd5b60649060186040519162461bcd60e51b83526020600484015282015277283937b837b9b0b6103237b2b9903737ba1032bc34b9ba1760411b6044820152fd5b34610203576040366003190112610203576004356001600160401b038111610203576109ab90369060040161241b565b6109c760206024359281604051938285809451938492016123ba565b810160088152030190208054821015610203576020916109e6916124fc565b90546040519160031b1c8152f35b34610203576020366003190112610203576004355f5260066020526020600460405f200154604051908152f35b34610203576020366003190112610203576004356001600160401b03811161020357610a53602091369060040161241b565b610a8e826040519280519061050983820192610a708188866123ba565b86015f8152868560018060a01b039889930301902054161515612ba6565b81015f8152030190205416604051908152f35b610aaa36612477565b604051825190602093610ae385820193610ac58185876123ba565b83015f8152838760018060a01b039586930301902054161515612724565b325f5260098552610afb60ff60405f2054161561276a565b81600d5416604051635848e2a360e11b8152868180610b1e8632600484016127f0565b0381855afa9081156107c257610b41916001915f91610d3e575b50151514612815565b8560405180926302b5df5960e01b82528180610b618732600484016127f0565b03915afa9081156107c2575f91610d11575b5060405186818451610b8681838a6123ba565b81015f815203019020600101541315610b9e90612872565b600b543414610bac906128be565b600580545f908152600687526040902080546001600160a01b0319908116331782559195919290610be082600183016125fc565b42600282015560075460048201556003810160029055600a019460ff199586815416600117905587875492610c1481612704565b6040514281528381016002905285339160407f6c98a8c940418b35614f0cd02412d5c9606faff474cbb6cdd6640ba5d1a9f06b91a460405180938192518092610c5c926123ba565b8101600881520301902090610c70916129b0565b84545f52600486528260405f209116809282541617905532908454907f6a319039caa9a0b231fc1a3d10d617c656e322ebac0d326e9d0c95cbde9248a45f80a43490600c54165a5f809381938293f1610cc7612903565b50610cd190612932565b325f526009835260405f209081541660011790558054610cf090612975565b8054610cfb906129d3565b8091555f1981019081116103bc57604051908152f35b90508581813d8311610d37575b610d2881836122f8565b81010312610203575186610b73565b503d610d1e565b610d559150893d8b116108855761087781836122f8565b89610b38565b346102035760208060031936011261020357600435906001600160401b03821161020357610d8f60e092369060040161241b565b9060405191610dc881519383830194610da98183886123ba565b5f90820190815281900384019020546001600160a01b03161515612ba6565b600160405183818451610ddc81838a6123ba565b81015f815203019020015492600260405184818551610dfc8183886123ba565b81015f8152030190200154600360405185818651610e1b8183896123ba565b81015f8152030190200154600460405186818751610e3a81838a6123ba565b81015f81520301902001549160ff6008610ea4886006610e67828a8c6040519384928392519283916123ba565b81015f815203019020015497600760405183818d51610e878183886123ba565b81015f8152030190200154996040519384928392519283916123ba565b81015f8152030190200154169560405197885287015260408601526060850152608084015260a0830152151560c0820152f35b3461020357602036600319011261020357610efd60018060a01b03600a54163314612b61565b600435600355005b34610203575f366003190112610203575f80600780549081610f81575b50506040519060208201526020815260408101918183106001600160401b03841117610f6d57826040521515825260406060820152603f1990610f6860808201826123db565b030190f35b634e487b7160e01b5f52604160045260245ffd5b5f9060015b838110610f94575050610f22565b610f9d816124e4565b9054600391821b1c5f52611004600660209080825280610fe2600260405f200154610fc7886124e4565b905490881b1c5f52828552886108dc600160405f20016129e1565b92610fec876124e4565b905490871b1c5f52526108dc600160405f20016129e1565b4281111580611046575b611023575b505061101e906129d3565b610f86565b95509550915061101e600195611038846124e4565b9054911b1c94929087611013565b50848111158061100e5750841561100e565b34610203576020366003190112610203576004355f526004602052602060018060a01b0360405f205416604051908152f35b34610203576020366003190112610203576110b060018060a01b03600a54163314612b61565b600435600555005b34610203576020366003190112610203576004356001600160a01b0381811691829003610203576110ee90600a54163314612b61565b600c80546001600160a01b031916919091179055005b346102035760403660031901126102035760043561112181612c05565b905f61112f82602435612c37565b9061113a8383612a6f565b90600754928383116111a2575b905b82821061116f578561115b8686612c5e565b9061116b60405192839283612579565b0390f35b61119661119c9161117f846124e4565b90549060031b1c611190828a612c4a565b526129d3565b916129d3565b90611149565b839250611147565b34610203576020366003190112610203576004355f52600260205260405f20805461116b600183015492600281015490600381015460018060a01b0360048301541660058301549160ff600760068601549501541694604051988998896125bb565b34610203576020366003190112610203576004356001600160401b0381116102035761123e602091369060040161241b565b8161125260405192838151938492016123ba565b5f90820190815281900382019020546040516001600160a01b0390911615158152f35b34610203576060366003190112610203576004356001600160401b038111610203576112a590369060040161241b565b6024356112b181612c05565b915f6112bf83604435612c37565b916112ca8484612a6f565b9060405191815193602095868401956112e48187896123ba565b850194878160089788815203019020548311611376575b905b828210611330578861115b896113218a8a8a8a6040519485938492519283916123ba565b82019081520301902054612c5e565b6111966113709161135f846113518b8b604051809381928d519283916123ba565b81018c8152030190206124fc565b90549060031b1c611190828d612c4a565b906112fd565b91506040518681855161138a81838b6123ba565b81018781520301902054916112fb565b34610203576020366003190112610203576113c060018060a01b03600a54163314612b61565b600435600b55005b346102035760403660031901126102035760a06113e3612461565b6024355f52600660205260405f206005810154916007820154916009600682015491600881015493600180891b03165f520160205260ff60405f2054169260405194855260208501526040840152606083015215156080820152f35b346102035761144d36612511565b92829491929897959891604051895190602097888c019261146f8184866123ba565b82015f8152828a60018060a01b039485930301902054166116b357918b89928b8f8e8c976003548091116116aa575b5092600895926115d495926115ef999895604051878187516114c181838c6123ba565b81015f8152030190209260018060a01b031993338582541617905560016040518981806114f28c8c519283916123ba565b81015f815203019020015560026040518881885161151181838d6123ba565b81015f815203019020015560036040518781875161153081838c6123ba565b81015f81520301902001558960046040518781875161155081838c6123ba565b81015f815203019020015560056040518681865161156f81838b6123ba565b81015f81520301902001918b16908254161790558960066040518581855161159881838a6123ba565b81015f81520301902001558a6007604051858185516115b881838a6123ba565b81015f81520301902001556040519384928392519283916123ba565b81015f815203019020019060ff801983541691151516179055565b600154600160401b811015610f6d5780600161160e92016001556124b8565b6116975789611692976116457fa33e969841918d6c70510ff52aaf2f08256c371553465cdd2beb001c23b0f5049c611685946125fc565b7f770333f2d96faae538a5391fa34d7f90a88dc8af3aadcb1735c43839cb695566604061167184612704565b928151903382528b151590820152a2612704565b99604051988998896125bb565b0390a2005b634e487b7160e01b5f525f60045260245ffd5b9a50600861149e565b60405162461bcd60e51b8152600481018a9052601960248201527821b7b6b6bab734ba3c9030b63932b0b23c9032bc34b9ba399760391b6044820152606490fd5b34610203576020366003190112610203576004355f5260066020526040600a815f20015460ff8251918181161515835260081c1615156020820152f35b346102035760203660031901126102035761175760018060a01b03600a54163314612b61565b600435600e55005b34610203575f366003190112610203576020600754604051908152f35b3461020357602080600319360112610203576004356001600160401b038082116102035736602383011215610203578160040135908111610203578101366024820111610203578183910312610203576024013590815f5260069182825260405f2060029061180f6117fa8383015460076108dc60018096016129e1565b845f52868652866108dc8460405f20016129e1565b8315159081611b0c575b81611b02575b5061182657005b825f5284845260405f20916005830154868401548082119182611ad2575b82611ab0575b505015611a3c578160038401548281145f146119a257505050825f5260048452808360018060a01b0360405f2054167fca5be02c86f988b49c8f55fa1445e2252a5de3afaa608cc35db41feb6c22f83a5f80a45b825f80516020612c7d8339815191525f80a3815f52838352600a60405f200161010061ff00198254161790555b546001600160a01b03165f908152600983526040808220805460ff199081169091558383528585529120600a81018054909216909155600401546007545f1981019081116103bc57808203611933575b50505f52525f6004604082200155611931612b23565b005b7ff041f52db3fd2f56a979d9dd319aa6a6e399c198410349cf154eb4b4568d7daa916119636103556040936124e4565b61196c816124e4565b90549060031b1c5f52858552806004835f200155611989816124e4565b90549060031b1c90825191825285820152a1838061191b565b146119ae575b5061189e565b611a3690600860ff60076119c38688016129e1565b93885f52808a5260405f2090815488870155878201548187015581015460038601556003810154600486015560018060a01b03600482015416600586019060018060a01b031982541617905560058101548b8601558a8101548286015501541691019060ff801983541691151516179055565b856119a8565b9050825f52848452600a60405f200161ff001981541690555f835f80516020612c7d8339815191528280a36003820154036118cb576004835260405f9081205483906001600160a01b03167fca5be02c86f988b49c8f55fa1445e2252a5de3afaa608cc35db41feb6c22f83a8380a46118cb565b611aba9250612a6f565b6004611ac78486016129e1565b01541115878061184a565b915060078501546008860154108015611aec575b91611844565b506003611afa8587016129e1565b015415611ae6565b905015158661181f565b428111159150611819565b34610203576020366003190112610203576004356001600160401b0381116102035760ff6008611b896020611b518195369060040161241b565b6040519061050981519284830193611b6a8183876123ba565b5f90820190815281900385019020546001600160a01b03161515612ba6565b81015f8152030190200154166040519015158152f35b611ba836612511565b92611bea60206040999698979994939451611bc98c828151948592016123ba565b5f918101918252908190036020019020546001600160a01b03161515612724565b325f526009602052611c0360ff60405f2054161561276a565b600d54604051635848e2a360e11b81526001600160a01b039091169060208180611c318e32600484016127f0565b0381855afa9081156107c257611c7692611c5a60016020948f945f91611ee35750151514612815565b60405180809581946302b5df5960e01b835232600484016127f0565b03915afa9081156107c2578a905f92611ea1575b5097611ce5611e2a96959493926001611cd360207f65513f3a4b238816f691e4322be549c10eeaa1ef78fe116618b0d83e5ca252b69d81604051938285809451938492016123ba565b81015f81520301902001541315612872565b611cf2600b5434146128be565b84836005545f5260026020528c60405f2091600354809111611e97575b50600660205260405f2080546001600160a01b03191633178155611e1e93926007929091611dd09190611d4582600183016125fc565b4260028201558454600482015560016003820155600a600160ff19828401541617910155611dc1602060055492611d7b81612704565b604051428152600184820152857f6c98a8c940418b35614f0cd02412d5c9606faff474cbb6cdd6640ba5d1a9f06b60403393a481604051938285809451938492016123ba565b810160088152030190206129b0565b8a81558b60018201558d60028201558460038201556004810160018060a01b03871660018060a01b0319825416179055866005820155876006820155019060ff801983541691151516179055565b6116856005549b612704565b0390a3611e505f8080803460018060a01b03600c54165af1611e4a612903565b50612932565b335f52600960205260405f20600160ff19825416179055611e72600554612975565b611e7d6005546129d3565b806005555f1981019081116103bc57602090604051908152f35b9550611e1e611d0f565b959493929150506020853d602011611edb575b81611ec1602093836122f8565b810103126102035793519293919290919089611ce5611c8a565b3d9150611eb4565b611efa9150863d88116108855761087781836122f8565b5f610b38565b3461020357611f0e36612477565b90604051908051906020810191611f268185856123ba565b83015f815283602060018060a01b039586930301902054163303611f7c57611f5c916020916040519384928392519283916123ba565b5f9082019081520301902080546001600160a01b03191691909216179055005b60405162461bcd60e51b815260206004820152602760248201527f55736572206973206e6f7420746865206f776e6572206f66207468697320636f6044820152666d6d756e69747960c81b6064820152608490fd5b34610203576020366003190112610203576004356001600160401b0381116102035761201c602061200961012093369060040161241b565b81604051938285809451938492016123ba565b81015f81520301902060018060a01b0380825416916001810154916002820154906003830154906004840154906005850154169160068501549360ff600860078801549701541696604051988952602089015260408801526060870152608086015260a085015260c084015260e08301521515610100820152f35b34610203576020366003190112610203576120b0612461565b600a546001600160a01b0391906120ca9083163314612b61565b1660018060a01b0319600d541617600d555f80f35b346102035760203660031901126102035761210560018060a01b03600a54163314612b61565b6004355f908152600660205260409020600a01805460ff19169055005b346102035760203660031901126102035760043560015481101561020357612149906124b8565b6116975761215961116b91612319565b6040519182916020835260208301906123db565b346102035760208061217e36612477565b91906121bc82604051928051906105098382019261219d8188866123ba565b86015f81528660018060a01b0398899889930301902054161515612ba6565b81015f8152030190205416906040519216148152f35b34610203575f36600319011261020357600d546040516001600160a01b039091168152602090f35b34610203576020366003190112610203576004355f90815260066020526040902080546001600160a01b031661223260018301612319565b9160ff60028201549160038101549060048101546005820154600683015490600784015492600a6008860154950154956122806040519b8c9b8c5260208c61016091829101528c01906123db565b9860408b015260608a0152608089015260a088015260c087015260e0860152610100850152818116151561012085015260081c1615156101408301520390f35b90600182811c921680156122ee575b60208310146122da57565b634e487b7160e01b5f52602260045260245ffd5b91607f16916122cf565b90601f801991011681019081106001600160401b03821117610f6d57604052565b9060405191825f82549261232c846122c0565b9081845260019485811690815f146123975750600114612357575b5050612355925003836122f8565b565b909391505f52602090815f20935f915b81831061237f57505061235593508201015f80612347565b85548884018501529485019487945091830191612367565b91505061235594506020925060ff191682840152151560051b8201015f80612347565b5f5b8381106123cb5750505f910152565b81810151838201526020016123bc565b906020916123f4815180928185528580860191016123ba565b601f01601f1916010190565b6001600160401b038111610f6d57601f01601f191660200190565b81601f820112156102035780359061243282612400565b9261244060405194856122f8565b8284526020838301011161020357815f926020809301838601378301015290565b600435906001600160a01b038216820361020357565b604060031982011261020357600435906001600160401b038211610203576124a19160040161241b565b906024356001600160a01b03811681036102035790565b6001548110156124d05760015f5260205f2001905f90565b634e487b7160e01b5f52603260045260245ffd5b6007548110156124d05760075f5260205f2001905f90565b80548210156124d0575f5260205f2001905f90565b61012060031982011261020357600435906001600160401b0382116102035761253c9160040161241b565b906024359060443590606435906084359060a4356001600160a01b0381168103610203579060c4359060e435906101043580151581036102035790565b9291906040840160408552815180915260608501906020809301905f5b848282106125a75750505050930152565b835185529384019390920191600101612596565b969390989794919260e0969361010089019a895260208901526040880152606087015260018060a01b0316608086015260a085015260c08401521515910152565b91909182516001600160401b038111610f6d5761261982546122c0565b601f81116126bd575b50602080601f831160011461265d5750819293945f92612652575b50508160011b915f199060031b1c1916179055565b015190505f8061263d565b90601f19831695845f52825f20925f905b8882106126a55750508360019596971061268d575b505050811b019055565b01515f1960f88460031b161c191690555f8080612683565b8060018596829496860151815501950193019061266e565b5f83815260208120601f840160051c810192602085106126fa575b601f0160051c01915b8281106126ef575050612622565b8181556001016126e1565b90925082906126d8565b61271c906020604051928284809451938492016123ba565b810103902090565b1561272b57565b60405162461bcd60e51b815260206004820152601760248201527610dbdb5b5d5b9a5d1e48191bd95cdb89dd08195e1a5cdd604a1b6044820152606490fd5b1561277157565b60405162461bcd60e51b815260206004820152603960248201527f5573657220686173204f70656e205265766965772c20506c65617365207761696044820152783a103ab73a34b6361034ba1034b990383937b1b2b9b9b2b21760391b6064820152608490fd5b90816020910312610203575180151581036102035790565b6001600160a01b039091168152604060208201819052612812929101906123db565b90565b1561281c57565b60405162461bcd60e51b815260206004820152602860248201527f596f7520617265206e6f742061206d656d62657220666f72207468697320636f60448201526736b6bab734ba3c9760c11b6064820152608490fd5b1561287957565b60405162461bcd60e51b815260206004820152601e60248201527f496e73756666696369656e7420637265647320746f2070726f706f73652e00006044820152606490fd5b156128c557565b60405162461bcd60e51b81526020600482015260166024820152754d7573742073656e642070726f706f73616c2066656560501b6044820152606490fd5b3d1561292d573d9061291482612400565b9161292260405193846122f8565b82523d5f602084013e565b606090565b1561293957565b60405162461bcd60e51b81526020600482015260146024820152732330b4b632b2103a379039b2b7321022ba3432b960611b6044820152606490fd5b60075490600160401b821015610f6d5761299882600161235594016007556124e4565b90919082549060031b91821b915f19901b1916179055565b80549190600160401b831015610f6d5782612998916001612355950181556124fc565b5f1981146103bc5760010190565b60405190815f82546129f2816122c0565b93600191808316908115612a535750600114612a19575b5050602092505f81520301902090565b9091505f52602090815f20905f915b858310612a3f575050505060209181015f80612a09565b805487840152869450918301918101612a28565b92505050602093915060ff191682528015150281015f80612a09565b919082018092116103bc57565b919060018060a01b031682526020916040838201525f928254612a9e816122c0565b9384604085015260019182811690815f14612afe5750600114612ac4575b505050505090565b5f908152828120949550935b858510612aea575050506060925001015f80808080612abc565b805485850160600152938201938101612ad0565b93505050506060935060ff929192191683830152151560051b01015f80808080612abc565b6007548015612b4d575f1990810190612b3b826124e4565b909182549160031b1b19169055600755565b634e487b7160e01b5f52603160045260245ffd5b15612b6857565b60405162461bcd60e51b81526020600482015260166024820152752737ba103a34329031b7b73a3930b1ba1037bbb732b960511b6044820152606490fd5b15612bad57565b60405162461bcd60e51b815260206004820152601960248201527810dbdb5b5d5b9a5d1e48111bd95cc8139bdd08115e1cda5cdd603a1b6044820152606490fd5b6001600160401b038111610f6d5760051b60200190565b90612c0f82612bee565b612c1c60405191826122f8565b8281528092612c2d601f1991612bee565b0190602036910137565b818102929181159184041417156103bc57565b80518210156124d05760209160051b010190565b8115612c68570490565b634e487b7160e01b5f52601260045260245ffdfe35baaec8d9c9da1c77f27119243a4384b49eae2bf0680aa0eebe3b62d28574a5a2646970667358221220f42a1e8db15247a15a89feda0b573648a33fd7324f886d0aac7d012ad617313964736f6c63430008140033",
  "linkReferences": {},
  "deployedLinkReferences": {}
}