{
  "_format": "hh-sol-artifact-1",
  "contractName": "tgetherCommunities",
  "sourceName": "contracts/tgetherCommunities.sol",
  "abi": [
    {
      "inputs": [
        {
          "internalType": "uint256",
          "name": "_feePrice",
          "type": "uint256"
        },
        {
          "internalType": "address",
          "name": "_fundContract",
          "type": "address"
        }
      ],
      "stateMutability": "nonpayable",
      "type": "constructor"
    },
    {
      "anonymous": false,
      "inputs": [
        {
          "indexed": true,
          "internalType": "string",
          "name": "communityName",
          "type": "string"
        },
        {
          "indexed": false,
          "internalType": "address",
          "name": "creator",
          "type": "address"
        },
        {
          "indexed": false,
          "internalType": "bool",
          "name": "isInviteOnly",
          "type": "bool"
        }
      ],
      "name": "CommunityCreated",
      "type": "event"
    },
    {
      "anonymous": false,
      "inputs": [
        {
          "indexed": true,
          "internalType": "string",
          "name": "communityName",
          "type": "string"
        },
        {
          "indexed": false,
          "internalType": "uint256",
          "name": "minCredsToProposeVote",
          "type": "uint256"
        },
        {
          "indexed": false,
          "internalType": "uint256",
          "name": "minCredsToVote",
          "type": "uint256"
        },
        {
          "indexed": false,
          "internalType": "uint256",
          "name": "maxCredsCountedForVote",
          "type": "uint256"
        },
        {
          "indexed": false,
          "internalType": "uint256",
          "name": "minProposalVotes",
          "type": "uint256"
        },
        {
          "indexed": false,
          "internalType": "address",
          "name": "memberAccessContract",
          "type": "address"
        },
        {
          "indexed": false,
          "internalType": "uint256",
          "name": "proposalTime",
          "type": "uint256"
        },
        {
          "indexed": false,
          "internalType": "uint256",
          "name": "proposalDelay",
          "type": "uint256"
        },
        {
          "indexed": false,
          "internalType": "bool",
          "name": "isInviteOnly",
          "type": "bool"
        }
      ],
      "name": "CommunityInfo",
      "type": "event"
    },
    {
      "anonymous": false,
      "inputs": [
        {
          "indexed": true,
          "internalType": "string",
          "name": "communityName",
          "type": "string"
        },
        {
          "indexed": true,
          "internalType": "uint256",
          "name": "proposalId",
          "type": "uint256"
        },
        {
          "indexed": false,
          "internalType": "uint256",
          "name": "minCredsToProposeVote",
          "type": "uint256"
        },
        {
          "indexed": false,
          "internalType": "uint256",
          "name": "minCredsToVote",
          "type": "uint256"
        },
        {
          "indexed": false,
          "internalType": "uint256",
          "name": "maxCredsCountedForVote",
          "type": "uint256"
        },
        {
          "indexed": false,
          "internalType": "uint256",
          "name": "minProposalVotes",
          "type": "uint256"
        },
        {
          "indexed": false,
          "internalType": "address",
          "name": "memberAccessContract",
          "type": "address"
        },
        {
          "indexed": false,
          "internalType": "uint256",
          "name": "proposalTime",
          "type": "uint256"
        },
        {
          "indexed": false,
          "internalType": "uint256",
          "name": "proposalDelay",
          "type": "uint256"
        },
        {
          "indexed": false,
          "internalType": "bool",
          "name": "isInviteOnly",
          "type": "bool"
        }
      ],
      "name": "CommunityProposalParams",
      "type": "event"
    },
    {
      "anonymous": false,
      "inputs": [
        {
          "indexed": true,
          "internalType": "address",
          "name": "contractAddress",
          "type": "address"
        },
        {
          "indexed": true,
          "internalType": "uint256",
          "name": "proposalId",
          "type": "uint256"
        },
        {
          "indexed": true,
          "internalType": "address",
          "name": "proposer",
          "type": "address"
        }
      ],
      "name": "CustomProposalCreated",
      "type": "event"
    },
    {
      "anonymous": false,
      "inputs": [
        {
          "indexed": true,
          "internalType": "address",
          "name": "contractAddress",
          "type": "address"
        },
        {
          "indexed": true,
          "internalType": "uint256",
          "name": "proposalId",
          "type": "uint256"
        },
        {
          "indexed": true,
          "internalType": "bool",
          "name": "passed",
          "type": "bool"
        }
      ],
      "name": "CustomProposalResult",
      "type": "event"
    },
    {
      "anonymous": false,
      "inputs": [
        {
          "indexed": false,
          "internalType": "uint256",
          "name": "proposalId",
          "type": "uint256"
        },
        {
          "indexed": false,
          "internalType": "uint256",
          "name": "activeProposalsIndex",
          "type": "uint256"
        }
      ],
      "name": "IndexChange",
      "type": "event"
    },
    {
      "anonymous": false,
      "inputs": [
        {
          "indexed": true,
          "internalType": "uint256",
          "name": "proposalId",
          "type": "uint256"
        },
        {
          "indexed": true,
          "internalType": "address",
          "name": "proposer",
          "type": "address"
        },
        {
          "indexed": true,
          "internalType": "string",
          "name": "communityName",
          "type": "string"
        },
        {
          "indexed": false,
          "internalType": "uint256",
          "name": "timestamp",
          "type": "uint256"
        },
        {
          "indexed": false,
          "internalType": "uint256",
          "name": "propType",
          "type": "uint256"
        }
      ],
      "name": "ProposalCreated",
      "type": "event"
    },
    {
      "anonymous": false,
      "inputs": [
        {
          "indexed": true,
          "internalType": "uint256",
          "name": "proposalId",
          "type": "uint256"
        },
        {
          "indexed": true,
          "internalType": "bool",
          "name": "passed",
          "type": "bool"
        }
      ],
      "name": "ProposalResult",
      "type": "event"
    },
    {
      "anonymous": false,
      "inputs": [
        {
          "indexed": true,
          "internalType": "uint256",
          "name": "proposalId",
          "type": "uint256"
        },
        {
          "indexed": true,
          "internalType": "address",
          "name": "voter",
          "type": "address"
        },
        {
          "indexed": true,
          "internalType": "bool",
          "name": "voteChoice",
          "type": "bool"
        },
        {
          "indexed": false,
          "internalType": "uint256",
          "name": "credsToCount",
          "type": "uint256"
        }
      ],
      "name": "Voted",
      "type": "event"
    },
    {
      "inputs": [
        {
          "internalType": "uint256",
          "name": "",
          "type": "uint256"
        }
      ],
      "name": "CommunityNames",
      "outputs": [
        {
          "internalType": "string",
          "name": "",
          "type": "string"
        }
      ],
      "stateMutability": "view",
      "type": "function"
    },
    {
      "inputs": [
        {
          "internalType": "string",
          "name": "_communityName",
          "type": "string"
        },
        {
          "internalType": "uint256",
          "name": "_minCredsToProposeVote",
          "type": "uint256"
        },
        {
          "internalType": "uint256",
          "name": "_minCredsToVote",
          "type": "uint256"
        },
        {
          "internalType": "uint256",
          "name": "_maxCredsCountedForVote",
          "type": "uint256"
        },
        {
          "internalType": "uint256",
          "name": "_minProposalVotes",
          "type": "uint256"
        },
        {
          "internalType": "address",
          "name": "_credsAccessAddress",
          "type": "address"
        },
        {
          "internalType": "uint256",
          "name": "_proposalTime",
          "type": "uint256"
        },
        {
          "internalType": "uint256",
          "name": "_proposalDelay",
          "type": "uint256"
        },
        {
          "internalType": "bool",
          "name": "_isInviteOnly",
          "type": "bool"
        }
      ],
      "name": "CommunityProposal",
      "outputs": [
        {
          "internalType": "uint256",
          "name": "",
          "type": "uint256"
        }
      ],
      "stateMutability": "payable",
      "type": "function"
    },
    {
      "inputs": [
        {
          "internalType": "uint256",
          "name": "",
          "type": "uint256"
        }
      ],
      "name": "CommunityProposals",
      "outputs": [
        {
          "internalType": "uint256",
          "name": "minCredsToProposeVote",
          "type": "uint256"
        },
        {
          "internalType": "uint256",
          "name": "minCredsToVote",
          "type": "uint256"
        },
        {
          "internalType": "uint256",
          "name": "maxCredsCountedForVote",
          "type": "uint256"
        },
        {
          "internalType": "uint256",
          "name": "minProposalVotes",
          "type": "uint256"
        },
        {
          "internalType": "address",
          "name": "memberAccessContract",
          "type": "address"
        },
        {
          "internalType": "uint256",
          "name": "proposalTime",
          "type": "uint256"
        },
        {
          "internalType": "uint256",
          "name": "proposalDelay",
          "type": "uint256"
        },
        {
          "internalType": "bool",
          "name": "isInviteOnly",
          "type": "bool"
        }
      ],
      "stateMutability": "view",
      "type": "function"
    },
    {
      "inputs": [
        {
          "internalType": "string",
          "name": "_communityName",
          "type": "string"
        },
        {
          "internalType": "address",
          "name": "_contractAddress",
          "type": "address"
        }
      ],
      "name": "CustomProposal",
      "outputs": [
        {
          "internalType": "uint256",
          "name": "",
          "type": "uint256"
        }
      ],
      "stateMutability": "payable",
      "type": "function"
    },
    {
      "inputs": [
        {
          "internalType": "uint256",
          "name": "",
          "type": "uint256"
        }
      ],
      "name": "CustomProposals",
      "outputs": [
        {
          "internalType": "address",
          "name": "",
          "type": "address"
        }
      ],
      "stateMutability": "view",
      "type": "function"
    },
    {
      "inputs": [],
      "name": "FundContract",
      "outputs": [
        {
          "internalType": "contract tgetherFundInterface",
          "name": "",
          "type": "address"
        }
      ],
      "stateMutability": "view",
      "type": "function"
    },
    {
      "inputs": [],
      "name": "MemberContract",
      "outputs": [
        {
          "internalType": "contract tgetherMembersInterface",
          "name": "",
          "type": "address"
        }
      ],
      "stateMutability": "view",
      "type": "function"
    },
    {
      "inputs": [
        {
          "internalType": "string",
          "name": "_communityName",
          "type": "string"
        },
        {
          "internalType": "address",
          "name": "_newOwner",
          "type": "address"
        }
      ],
      "name": "changeCommunityOwner",
      "outputs": [],
      "stateMutability": "nonpayable",
      "type": "function"
    },
    {
      "inputs": [
        {
          "internalType": "bytes",
          "name": "",
          "type": "bytes"
        }
      ],
      "name": "checkUpkeep",
      "outputs": [
        {
          "internalType": "bool",
          "name": "upkeepNeeded",
          "type": "bool"
        },
        {
          "internalType": "bytes",
          "name": "",
          "type": "bytes"
        }
      ],
      "stateMutability": "view",
      "type": "function"
    },
    {
      "inputs": [
        {
          "internalType": "string",
          "name": "",
          "type": "string"
        }
      ],
      "name": "communities",
      "outputs": [
        {
          "internalType": "address",
          "name": "creator",
          "type": "address"
        },
        {
          "internalType": "uint256",
          "name": "minCredsToProposeVote",
          "type": "uint256"
        },
        {
          "internalType": "uint256",
          "name": "minCredsToVote",
          "type": "uint256"
        },
        {
          "internalType": "uint256",
          "name": "maxCredsCountedForVote",
          "type": "uint256"
        },
        {
          "internalType": "uint256",
          "name": "minProposalVotes",
          "type": "uint256"
        },
        {
          "internalType": "address",
          "name": "memberAccessContract",
          "type": "address"
        },
        {
          "internalType": "uint256",
          "name": "proposalTime",
          "type": "uint256"
        },
        {
          "internalType": "uint256",
          "name": "proposalDelay",
          "type": "uint256"
        },
        {
          "internalType": "bool",
          "name": "isInviteOnly",
          "type": "bool"
        }
      ],
      "stateMutability": "view",
      "type": "function"
    },
    {
      "inputs": [
        {
          "internalType": "string",
          "name": "_communityName",
          "type": "string"
        },
        {
          "internalType": "uint256",
          "name": "_minCredsToProposeVote",
          "type": "uint256"
        },
        {
          "internalType": "uint256",
          "name": "_minCredsToVote",
          "type": "uint256"
        },
        {
          "internalType": "uint256",
          "name": "_maxCredsCountedForVote",
          "type": "uint256"
        },
        {
          "internalType": "uint256",
          "name": "_minProposalVotes",
          "type": "uint256"
        },
        {
          "internalType": "address",
          "name": "_memberAccessContract",
          "type": "address"
        },
        {
          "internalType": "uint256",
          "name": "_proposalTime",
          "type": "uint256"
        },
        {
          "internalType": "uint256",
          "name": "_proposalDelay",
          "type": "uint256"
        },
        {
          "internalType": "bool",
          "name": "_isInviteOnly",
          "type": "bool"
        }
      ],
      "name": "createCommunity",
      "outputs": [],
      "stateMutability": "nonpayable",
      "type": "function"
    },
    {
      "inputs": [],
      "name": "fee",
      "outputs": [
        {
          "internalType": "uint256",
          "name": "",
          "type": "uint256"
        }
      ],
      "stateMutability": "view",
      "type": "function"
    },
    {
      "inputs": [
        {
          "internalType": "uint256",
          "name": "_propId",
          "type": "uint256"
        }
      ],
      "name": "getActiveProposalIndex",
      "outputs": [
        {
          "internalType": "uint256",
          "name": "",
          "type": "uint256"
        }
      ],
      "stateMutability": "view",
      "type": "function"
    },
    {
      "inputs": [],
      "name": "getActiveProposalsLength",
      "outputs": [
        {
          "internalType": "uint256",
          "name": "",
          "type": "uint256"
        }
      ],
      "stateMutability": "view",
      "type": "function"
    },
    {
      "inputs": [
        {
          "internalType": "string",
          "name": "_communityName",
          "type": "string"
        }
      ],
      "name": "getCommunityExists",
      "outputs": [
        {
          "internalType": "bool",
          "name": "",
          "type": "bool"
        }
      ],
      "stateMutability": "view",
      "type": "function"
    },
    {
      "inputs": [
        {
          "internalType": "string",
          "name": "_communityName",
          "type": "string"
        }
      ],
      "name": "getCommunityInfo",
      "outputs": [
        {
          "internalType": "uint256",
          "name": "minCredsToProposeVote",
          "type": "uint256"
        },
        {
          "internalType": "uint256",
          "name": "minCredsToVote",
          "type": "uint256"
        },
        {
          "internalType": "uint256",
          "name": "maxCredsCountedForVote",
          "type": "uint256"
        },
        {
          "internalType": "uint256",
          "name": "minProposalVotes",
          "type": "uint256"
        },
        {
          "internalType": "uint256",
          "name": "proposalTime",
          "type": "uint256"
        },
        {
          "internalType": "uint256",
          "name": "proposalDelay",
          "type": "uint256"
        },
        {
          "internalType": "bool",
          "name": "isInviteOnly",
          "type": "bool"
        }
      ],
      "stateMutability": "view",
      "type": "function"
    },
    {
      "inputs": [
        {
          "internalType": "string",
          "name": "_communityName",
          "type": "string"
        }
      ],
      "name": "getCommunityIsInviteOnly",
      "outputs": [
        {
          "internalType": "bool",
          "name": "",
          "type": "bool"
        }
      ],
      "stateMutability": "view",
      "type": "function"
    },
    {
      "inputs": [
        {
          "internalType": "string",
          "name": "_communityName",
          "type": "string"
        },
        {
          "internalType": "address",
          "name": "_add",
          "type": "address"
        }
      ],
      "name": "getCommunityIsOwner",
      "outputs": [
        {
          "internalType": "bool",
          "name": "",
          "type": "bool"
        }
      ],
      "stateMutability": "view",
      "type": "function"
    },
    {
      "inputs": [
        {
          "internalType": "string",
          "name": "_communityName",
          "type": "string"
        }
      ],
      "name": "getCommunityOwner",
      "outputs": [
        {
          "internalType": "address",
          "name": "",
          "type": "address"
        }
      ],
      "stateMutability": "view",
      "type": "function"
    },
    {
      "inputs": [],
      "name": "getFee",
      "outputs": [
        {
          "internalType": "uint256",
          "name": "",
          "type": "uint256"
        }
      ],
      "stateMutability": "view",
      "type": "function"
    },
    {
      "inputs": [
        {
          "internalType": "string",
          "name": "_communityName",
          "type": "string"
        }
      ],
      "name": "getMemberAccessContract",
      "outputs": [
        {
          "internalType": "address",
          "name": "",
          "type": "address"
        }
      ],
      "stateMutability": "view",
      "type": "function"
    },
    {
      "inputs": [
        {
          "internalType": "uint256",
          "name": "_numIdsreturned",
          "type": "uint256"
        },
        {
          "internalType": "uint256",
          "name": "_pageNumber",
          "type": "uint256"
        }
      ],
      "name": "getPaginatedActiveProposals",
      "outputs": [
        {
          "internalType": "uint256[]",
          "name": "",
          "type": "uint256[]"
        },
        {
          "internalType": "uint256",
          "name": "numPages",
          "type": "uint256"
        }
      ],
      "stateMutability": "view",
      "type": "function"
    },
    {
      "inputs": [
        {
          "internalType": "string",
          "name": "_communityName",
          "type": "string"
        },
        {
          "internalType": "uint256",
          "name": "_numIdsreturned",
          "type": "uint256"
        },
        {
          "internalType": "uint256",
          "name": "_pageNumber",
          "type": "uint256"
        }
      ],
      "name": "getPaginatedCommunityProposals",
      "outputs": [
        {
          "internalType": "uint256[]",
          "name": "",
          "type": "uint256[]"
        },
        {
          "internalType": "uint256",
          "name": "numPages",
          "type": "uint256"
        }
      ],
      "stateMutability": "view",
      "type": "function"
    },
    {
      "inputs": [
        {
          "internalType": "uint256",
          "name": "_proposalId",
          "type": "uint256"
        }
      ],
      "name": "getProposalResults",
      "outputs": [
        {
          "internalType": "bool",
          "name": "isActive",
          "type": "bool"
        },
        {
          "internalType": "bool",
          "name": "passed",
          "type": "bool"
        }
      ],
      "stateMutability": "view",
      "type": "function"
    },
    {
      "inputs": [
        {
          "internalType": "uint256",
          "name": "_proposalId",
          "type": "uint256"
        }
      ],
      "name": "getProposalType",
      "outputs": [
        {
          "internalType": "uint256",
          "name": "",
          "type": "uint256"
        }
      ],
      "stateMutability": "view",
      "type": "function"
    },
    {
      "inputs": [
        {
          "internalType": "address",
          "name": "_address",
          "type": "address"
        },
        {
          "internalType": "uint256",
          "name": "_proposalId",
          "type": "uint256"
        }
      ],
      "name": "getProposalVote",
      "outputs": [
        {
          "internalType": "uint256",
          "name": "approveVotes",
          "type": "uint256"
        },
        {
          "internalType": "uint256",
          "name": "approveCreds",
          "type": "uint256"
        },
        {
          "internalType": "uint256",
          "name": "denyVotes",
          "type": "uint256"
        },
        {
          "internalType": "uint256",
          "name": "denyCreds",
          "type": "uint256"
        },
        {
          "internalType": "bool",
          "name": "",
          "type": "bool"
        }
      ],
      "stateMutability": "view",
      "type": "function"
    },
    {
      "inputs": [
        {
          "internalType": "address",
          "name": "",
          "type": "address"
        }
      ],
      "name": "hasOpenProposal",
      "outputs": [
        {
          "internalType": "bool",
          "name": "",
          "type": "bool"
        }
      ],
      "stateMutability": "view",
      "type": "function"
    },
    {
      "inputs": [
        {
          "internalType": "bytes",
          "name": "_performData",
          "type": "bytes"
        }
      ],
      "name": "performUpkeep",
      "outputs": [],
      "stateMutability": "nonpayable",
      "type": "function"
    },
    {
      "inputs": [
        {
          "internalType": "string",
          "name": "",
          "type": "string"
        },
        {
          "internalType": "uint256",
          "name": "",
          "type": "uint256"
        }
      ],
      "name": "porposalsByCommunity",
      "outputs": [
        {
          "internalType": "uint256",
          "name": "",
          "type": "uint256"
        }
      ],
      "stateMutability": "view",
      "type": "function"
    },
    {
      "inputs": [
        {
          "internalType": "uint256",
          "name": "",
          "type": "uint256"
        }
      ],
      "name": "proposals",
      "outputs": [
        {
          "internalType": "address",
          "name": "proposer",
          "type": "address"
        },
        {
          "internalType": "string",
          "name": "communityName",
          "type": "string"
        },
        {
          "internalType": "uint256",
          "name": "timestamp",
          "type": "uint256"
        },
        {
          "internalType": "uint256",
          "name": "propType",
          "type": "uint256"
        },
        {
          "internalType": "uint256",
          "name": "activeProposalsIndex",
          "type": "uint256"
        },
        {
          "internalType": "uint256",
          "name": "approveVotes",
          "type": "uint256"
        },
        {
          "internalType": "uint256",
          "name": "denyVotes",
          "type": "uint256"
        },
        {
          "internalType": "uint256",
          "name": "approveCreds",
          "type": "uint256"
        },
        {
          "internalType": "uint256",
          "name": "denyCreds",
          "type": "uint256"
        },
        {
          "internalType": "bool",
          "name": "isActive",
          "type": "bool"
        },
        {
          "internalType": "bool",
          "name": "passed",
          "type": "bool"
        }
      ],
      "stateMutability": "view",
      "type": "function"
    },
    {
      "inputs": [
        {
          "internalType": "uint256",
          "name": "_feePrice",
          "type": "uint256"
        }
      ],
      "name": "setFee",
      "outputs": [],
      "stateMutability": "nonpayable",
      "type": "function"
    },
    {
      "inputs": [
        {
          "internalType": "address",
          "name": "_contract",
          "type": "address"
        }
      ],
      "name": "setFundContract",
      "outputs": [],
      "stateMutability": "nonpayable",
      "type": "function"
    },
    {
      "inputs": [
        {
          "internalType": "uint256",
          "name": "_mpt",
          "type": "uint256"
        }
      ],
      "name": "setMaxProposalTime",
      "outputs": [],
      "stateMutability": "nonpayable",
      "type": "function"
    },
    {
      "inputs": [
        {
          "internalType": "uint256",
          "name": "_propId",
          "type": "uint256"
        }
      ],
      "name": "setProposalCanceled",
      "outputs": [],
      "stateMutability": "nonpayable",
      "type": "function"
    },
    {
      "inputs": [
        {
          "internalType": "uint256",
          "name": "_count",
          "type": "uint256"
        }
      ],
      "name": "setProposalCounter",
      "outputs": [],
      "stateMutability": "nonpayable",
      "type": "function"
    },
    {
      "inputs": [
        {
          "internalType": "uint256",
          "name": "_proposalId",
          "type": "uint256"
        }
      ],
      "name": "setProposalInactive",
      "outputs": [],
      "stateMutability": "nonpayable",
      "type": "function"
    },
    {
      "inputs": [
        {
          "internalType": "uint256",
          "name": "_upkeepId",
          "type": "uint256"
        }
      ],
      "name": "setUpkkepId",
      "outputs": [],
      "stateMutability": "nonpayable",
      "type": "function"
    },
    {
      "inputs": [
        {
          "internalType": "address",
          "name": "_contractAddress",
          "type": "address"
        }
      ],
      "name": "settgetherMembersContract",
      "outputs": [],
      "stateMutability": "nonpayable",
      "type": "function"
    },
    {
      "inputs": [],
      "name": "upkeepId",
      "outputs": [
        {
          "internalType": "uint256",
          "name": "",
          "type": "uint256"
        }
      ],
      "stateMutability": "view",
      "type": "function"
    },
    {
      "inputs": [
        {
          "internalType": "uint256",
          "name": "proposalId",
          "type": "uint256"
        },
        {
          "internalType": "bool",
          "name": "voteChoice",
          "type": "bool"
        }
      ],
      "name": "vote",
      "outputs": [],
      "stateMutability": "nonpayable",
      "type": "function"
    }
  ],
  "bytecode": "0x608034620000ee57601f62002dd138819003918201601f19168301916001600160401b03831184841017620000da578084926040948552833981010312620000ee5780516020909101516001600160a01b03811690819003620000ee5760018060a01b03193381600a541617600a55600d541617600d55600b5562786450600355600160055560075468010000000000000000811015620000da576001810180600755811015620000c6575f9060078252602082200155604051612cde9081620000f38239f35b634e487b7160e01b5f52603260045260245ffd5b634e487b7160e01b5f52604160045260245ffd5b5f80fdfe60806040526004361015610011575f80fd5b5f3560e01c8063013cf08b1461223b5780630163b9681461221357806304413d86146121ae5780630dc85f7d146121635780631282f6091461212057806328adc2401461205a578063298a575014611f8957806331b4ea2e14611c0b5780633df6735214611b835780634585e33b1461181e578063495d855e146118015780635787a0cc146117d357806359144baa1461178b5780635bdcd0081461174e5780636219f11714611499578063685357091461142257806369fe0e2d146113f45780636e04ff0d146112a1578063789aa8f61461117c5780637b7fcfed146111135780638126d895146110b1578063860eb3d91461100b5780638a94aea414610fc35780638b64044014610f955780638ed8067e14610f6d57806390943a8b14610f3b578063a169093b14610f0d578063a64108d514610d91578063b07bcbc514610aac578063b3f6702d14610a2c578063b60a85ae146109ff578063c2c2e5f814610986578063c9d27afe14610539578063cbe02a9f146104a5578063ced72f8714610212578063d0d8392314610279578063d2aa789f1461025c578063d978ffba1461022f578063ddca3f43146102125763ff1225d9146101d1575f80fd5b3461020e57602036600319011261020e576001600160a01b036101f2612496565b165f526009602052602060ff60405f2054166040519015158152f35b5f80fd5b3461020e575f36600319011261020e576020600b54604051908152f35b3461020e57602036600319011261020e576004355f5260066020526020600360405f200154604051908152f35b3461020e575f36600319011261020e576020600e54604051908152f35b3461020e5760208060031936011261020e576004355f8181526006835260409020546001600160a01b0316330361046457805f5260068252600160ff600a60405f2001541615150361041f57805f5260068252600460405f200154916007549060018211156103db575f1982019182116103c75783826006935f9603610330575b50508284525281600460408220600a810160ff198154169055015561031d612b2f565b5f80516020612c898339815191528280a3005b7ff041f52db3fd2f56a979d9dd319aa6a6e399c198410349cf154eb4b4568d7daa91610388610360604093612519565b905461036b84612519565b91909260031b1c9082549060031b91821b915f19901b1916179055565b61039181612519565b90549060031b1c875284845280600483892001556103ae81612519565b90549060031b1c90825191825284820152a184806102fa565b634e487b7160e01b5f52601160045260245ffd5b6064906040519062461bcd60e51b82526004820152601d60248201527f546865726520617265206e6f206163746976652050726f706f73616c730000006044820152fd5b60405162461bcd60e51b815260048101839052601b60248201527f546869732070726f706f73616c206973206e6f742061637469766500000000006044820152606490fd5b60405162461bcd60e51b81526004810183905260196024820152785573657220646964206e6f742070726f706f7365207468697360381b6044820152606490fd5b3461020e57602036600319011261020e576004356001600160401b03811161020e576104d76020913690600401612441565b60056105258360405193805190610514838201926104f68189866123fb565b87015f8152878560018060a01b03998a930301902054161515612bb2565b6040519384928392519283916123fb565b81015f815203019020015416604051908152f35b3461020e57604036600319011261020e5760248035801515916004359083830361020e5760055482101561094757815f526020906006825260405f20906001918260ff600a8301541615150361090357600281015491838201926105a960076105a1866129ed565b015482612a7b565b42101590816108d3575b501561089757600c54604051635848e2a360e11b81526001600160a01b0390911693908681806105e7853360048401612a88565b0381885afa80156107cd5786915f9161086a575b50151503610816576009830193335f5284875260ff60405f2054166107d8578660405180926302b5df5960e01b8252818061063a873360048401612a88565b03915afa9081156107cd575f916107a0575b506002610658836129ed565b0154811261075c57600361066b836129ed565b015481131561075457506106806003916129ed565b0154965b1561070557600582018054918583018093116106f25750916007917f7c2de587c00d75474a0c6c6fa96fd3b45dc974cd4e8a75f712bb84c950dce1b59695949355016106d1878254612a7b565b90555b335f52825260405f209060ff198254161790556040519384523393a4005b634e487b7160e01b5f9081526011600452fd5b600682018054918583018093116106f25750916008917f7c2de587c00d75474a0c6c6fa96fd3b45dc974cd4e8a75f712bb84c950dce1b596959493550161074d878254612a7b565b90556106d4565b905096610684565b60405162461bcd60e51b815260048101889052601b818501527f496e73756666696369656e7420637265647320746f20766f74652e00000000006044820152606490fd5b90508681813d83116107c6575b6107b78183612339565b8101031261020e57518a61064c565b503d6107ad565b6040513d5f823e3d90fd5b60405162461bcd60e51b815260048101889052601781850152762cb7ba903430bb329030b63932b0b23c903b37ba32b21760491b6044820152606490fd5b60405162461bcd60e51b8152600481018790526027818401527f596f7520617265206e6f742061206d656d626572206f66207468697320636f6d60448201526636bab734ba3c9760c91b6064820152608490fd5b61088a9150883d8a11610890575b6108828183612339565b810190612856565b8b6105fb565b503d610878565b8460166064926040519262461bcd60e51b84526004840152820152754e6f742041637469766520566f74696e672054696d6560501b6044820152fd5b6108fa91506108ef9060076108e7876129ed565b015490612a7b565b60066108e7866129ed565b421115896105b3565b60405162461bcd60e51b815260048101859052601c818401527f50726f706f73616c206973206e6f206c6f6e67657220416374697665000000006044820152606490fd5b60649060186040519162461bcd60e51b83526020600484015282015277283937b837b9b0b6103237b2b9903737ba1032bc34b9ba1760411b6044820152fd5b3461020e57604036600319011261020e576004356001600160401b03811161020e576109b6903690600401612441565b6109d260206024359281604051938285809451938492016123fb565b81016008815203019020805482101561020e576020916109f191612531565b90546040519160031b1c8152f35b3461020e57602036600319011261020e576004355f5260066020526020600460405f200154604051908152f35b3461020e57602036600319011261020e576004356001600160401b03811161020e57610a5e6020913690600401612441565b610a99826040519280519061051483820192610a7b8188866123fb565b86015f8152868560018060a01b039889930301902054161515612bb2565b81015f8152030190205416604051908152f35b610ab5366124ac565b604051825190602093610aee85820193610ad08185876123fb565b83015f8152838760018060a01b0395869303019020541615156127a2565b325f5260098552610b0660ff60405f205416156127e8565b81600c541690604051635848e2a360e11b8152868180610b2a85326004840161286e565b0381865afa9081156107cd57610b4d916001915f91610d74575b50151514612893565b8560405180936302b5df5960e01b82528180610b6d86326004840161286e565b03915afa80156107cd5786925f91610d42575b50610bab90600160405185818651610b9981838d6123fb565b81015f815203019020015413156128f0565b610bb8600b54341461293c565b60059485545f5260068352610c7260405f2092610c6385600a60018060a01b0319963288825416178155610bef856001830161267a565b426002820155600754600482015560026003820155019860ff199960018b8254161790558a5493610c1f81612782565b604051428152600285820152867f6c98a8c940418b35614f0cd02412d5c9606faff474cbb6cdd6640ba5d1a9f06b60403393a46040519384928392519283916123fb565b810160088152030190206129bc565b85545f52600483528360405f209116809282541617905560248554604051948593849232917f6a319039caa9a0b231fc1a3d10d617c656e322ebac0d326e9d0c95cbde9248a45f80a4600d54633de5599d60e11b83523060048401523491165af19081156107cd575f91610d25575b501561020e57335f5260098352600160405f2091825416179055610d058154612981565b610d0f81546129df565b8091555f1981019081116103c757604051908152f35b610d3c9150843d8611610890576108828183612339565b84610ce1565b83819492503d8311610d6d575b610d598183612339565b8101031261020e57610bab86925190610b80565b503d610d4f565b610d8b9150893d8b11610890576108828183612339565b89610b44565b3461020e5760208060031936011261020e57600435906001600160401b03821161020e57610dc560e0923690600401612441565b9060405191610dfe81519383830194610ddf8183886123fb565b5f90820190815281900384019020546001600160a01b03161515612bb2565b600160405183818451610e1281838a6123fb565b81015f815203019020015492600260405184818551610e328183886123fb565b81015f8152030190200154600360405185818651610e518183896123fb565b81015f8152030190200154600460405186818751610e7081838a6123fb565b81015f81520301902001549160ff6008610eda886006610e9d828a8c6040519384928392519283916123fb565b81015f815203019020015497600760405183818d51610ebd8183886123fb565b81015f8152030190200154996040519384928392519283916123fb565b81015f8152030190200154169560405197885287015260408601526060850152608084015260a0830152151560c0820152f35b3461020e57602036600319011261020e57610f3360018060a01b03600a54163314612b6d565b600435600355005b3461020e57602036600319011261020e576004355f526004602052602060018060a01b0360405f205416604051908152f35b3461020e575f36600319011261020e57600d546040516001600160a01b039091168152602090f35b3461020e57602036600319011261020e57610fbb60018060a01b03600a54163314612b6d565b600435600555005b3461020e57602036600319011261020e57610fdc612496565b600a546001600160a01b039190610ff69083163314612b6d565b1660018060a01b0319600c541617600c555f80f35b3461020e57604036600319011261020e5760043561102881612c11565b905f61103682602435612c43565b906110418383612a7b565b90600754928383116110a9575b905b82821061107657856110628686612c6a565b90611072604051928392836125f7565b0390f35b61109d6110a39161108684612519565b90549060031b1c611097828a612c56565b526129df565b916129df565b90611050565b83925061104e565b3461020e57602036600319011261020e576004355f52600260205260405f208054611072600183015492600281015490600381015460018060a01b0360048301541660058301549160ff60076006860154950154169460405198899889612639565b3461020e57602036600319011261020e576004356001600160401b03811161020e576111456020913690600401612441565b8161115960405192838151938492016123fb565b5f90820190815281900382019020546040516001600160a01b0390911615158152f35b3461020e57606036600319011261020e576004356001600160401b03811161020e576111ac903690600401612441565b6024356111b881612c11565b915f6111c683604435612c43565b916111d18484612a7b565b9060405191815193602095868401956111eb8187896123fb565b85019487816008978881520301902054831161127d575b905b8282106112375788611062896112288a8a8a8a6040519485938492519283916123fb565b82019081520301902054612c6a565b61109d61127791611266846112588b8b604051809381928d519283916123fb565b81018c815203019020612531565b90549060031b1c611097828d612c56565b90611204565b91506040518681855161129181838b6123fb565b8101878152030190205491611202565b3461020e576112af366125ae565b50505f8060078054908161131d575b50506040519060208201526020815260408101918183106001600160401b0384111761130957826040521515825260406060820152603f1990611304608082018261241c565b030190f35b634e487b7160e01b5f52604160045260245ffd5b5f9060015b8381106113305750506112be565b61133981612519565b9054600391821b1c5f526113a060066020908082528061137e600260405f20015461136388612519565b905490881b1c5f52828552886108e7600160405f20016129ed565b9261138887612519565b905490871b1c5f52526108e7600160405f20016129ed565b42811115806113e2575b6113bf575b50506113ba906129df565b611322565b9550955091506113ba6001956113d484612519565b9054911b1c949290876113af565b5084811115806113aa575084156113aa565b3461020e57602036600319011261020e5761141a60018060a01b03600a54163314612b6d565b600435600b55005b3461020e57604036600319011261020e5760a061143d612496565b6024355f52600660205260405f206005810154916007820154916009600682015491600881015493600180891b03165f520160205260ff60405f2054169260405194855260208501526040840152606083015215156080820152f35b3461020e576114a736612546565b92829491929897959891604051895190602097888c01926114c98184866123fb565b82015f8152828a60018060a01b0394859303019020541661170d57918b89928b8f8e8c97600354809111611704575b50926008959261162e95926116499998956040518781875161151b81838c6123fb565b81015f8152030190209260018060a01b0319933385825416179055600160405189818061154c8c8c519283916123fb565b81015f815203019020015560026040518881885161156b81838d6123fb565b81015f815203019020015560036040518781875161158a81838c6123fb565b81015f8152030190200155896004604051878187516115aa81838c6123fb565b81015f81520301902001556005604051868186516115c981838b6123fb565b81015f81520301902001918b1690825416179055896006604051858185516115f281838a6123fb565b81015f81520301902001558a60076040518581855161161281838a6123fb565b81015f81520301902001556040519384928392519283916123fb565b81015f815203019020019060ff801983541691151516179055565b600154600160401b8110156113095780600161166892016001556124ed565b6116f157896116ec9761169f7fa33e969841918d6c70510ff52aaf2f08256c371553465cdd2beb001c23b0f5049c6116df9461267a565b7f770333f2d96faae538a5391fa34d7f90a88dc8af3aadcb1735c43839cb69556660406116cb84612782565b928151903382528b151590820152a2612782565b9960405198899889612639565b0390a2005b634e487b7160e01b5f525f60045260245ffd5b9a5060086114f8565b60405162461bcd60e51b8152600481018a9052601960248201527821b7b6b6bab734ba3c9030b63932b0b23c9032bc34b9ba399760391b6044820152606490fd5b3461020e57602036600319011261020e576004355f5260066020526040600a815f20015460ff8251918181161515835260081c1615156020820152f35b3461020e57602036600319011261020e576117a4612496565b600a546001600160a01b0391906117be9083163314612b6d565b1660018060a01b0319600d541617600d555f80f35b3461020e57602036600319011261020e576117f960018060a01b03600a54163314612b6d565b600435600e55005b3461020e575f36600319011261020e576020600754604051908152f35b3461020e5761182c366125ae565b819060209283918101031261020e573590815f5260069182825260405f2060029061187b6118668383015460076108e760018096016129ed565b845f52868652866108e78460405f20016129ed565b8315159081611b78575b81611b6e575b5061189257005b825f5284845260405f20916005830154868401548082119182611b3e575b82611b1c575b505015611aa8578160038401548281145f14611a0e57505050825f5260048452808360018060a01b0360405f2054167fca5be02c86f988b49c8f55fa1445e2252a5de3afaa608cc35db41feb6c22f83a5f80a45b825f80516020612c898339815191525f80a3815f52838352600a60405f200161010061ff00198254161790555b546001600160a01b03165f908152600983526040808220805460ff199081169091558383528585529120600a81018054909216909155600401546007545f1981019081116103c75780820361199f575b50505f52525f600460408220015561199d612b2f565b005b7ff041f52db3fd2f56a979d9dd319aa6a6e399c198410349cf154eb4b4568d7daa916119cf610360604093612519565b6119d881612519565b90549060031b1c5f52858552806004835f2001556119f581612519565b90549060031b1c90825191825285820152a18380611987565b14611a1a575b5061190a565b611aa290600860ff6007611a2f8688016129ed565b93885f52808a5260405f2090815488870155878201548187015581015460038601556003810154600486015560018060a01b03600482015416600586019060018060a01b031982541617905560058101548b8601558a8101548286015501541691019060ff801983541691151516179055565b85611a14565b9050825f52848452600a60405f200161ff001981541690555f835f80516020612c898339815191528280a3600382015403611937576004835260405f9081205483906001600160a01b03167fca5be02c86f988b49c8f55fa1445e2252a5de3afaa608cc35db41feb6c22f83a8380a4611937565b611b269250612a7b565b6004611b338486016129ed565b0154111587806118b6565b915060078501546008860154108015611b58575b916118b0565b506003611b668587016129ed565b015415611b52565b905015158661188b565b428111159150611885565b3461020e57602036600319011261020e576004356001600160401b03811161020e5760ff6008611bf56020611bbd81953690600401612441565b6040519061051481519284830193611bd68183876123fb565b5f90820190815281900385019020546001600160a01b03161515612bb2565b81015f8152030190200154166040519015158152f35b611c1436612546565b92611c5660206040999698979994939451611c358c828151948592016123fb565b5f918101918252908190036020019020546001600160a01b031615156127a2565b325f526009602052611c6f60ff60405f205416156127e8565b600c54604051635848e2a360e11b81526001600160a01b039091169060208180611c9d8e326004840161286e565b0381855afa9081156107cd57611ce292611cc660016020948f945f91611f6c5750151514612893565b60405180809581946302b5df5960e01b8352326004840161286e565b03915afa9081156107cd578a905f92611f2a575b5097611d3f611e7596959493926001610b9960207f65513f3a4b238816f691e4322be549c10eeaa1ef78fe116618b0d83e5ca252b69d81604051938285809451938492016123fb565b611d4c600b54341461293c565b84836005545f5260026020528c60405f2091600354809111611f20575b50600660205260405f2080546001600160a01b03191632178155611e6993926007929091611e1b9190611d9f826001830161267a565b4260028201558454600482015560016003820155600a600160ff19828401541617910155610c63602060055492611dd581612782565b604051428152600184820152857f6c98a8c940418b35614f0cd02412d5c9606faff474cbb6cdd6640ba5d1a9f06b60403393a481604051938285809451938492016123fb565b8a81558b60018201558d60028201558460038201556004810160018060a01b03871660018060a01b0319825416179055866005820155876006820155019060ff801983541691151516179055565b6116df6005549b612782565b0390a3600d54604051633de5599d60e11b8152306004820152906020908290602490829034906001600160a01b03165af19081156107cd575f91611f01575b501561020e57335f52600960205260405f20600160ff19825416179055611edc600554612981565b611ee76005546129df565b806005555f1981019081116103c757602090604051908152f35b611f1a915060203d602011610890576108828183612339565b81611eb4565b9550611e69611d69565b959493929150506020853d602011611f64575b81611f4a60209383612339565b8101031261020e5793519293919290919089611d3f611cf6565b3d9150611f3d565b611f839150863d8811610890576108828183612339565b5f610b44565b3461020e57611f97366124ac565b90604051908051906020810191611faf8185856123fb565b83015f815283602060018060a01b03958693030190205416330361200557611fe5916020916040519384928392519283916123fb565b5f9082019081520301902080546001600160a01b03191691909216179055005b60405162461bcd60e51b815260206004820152602760248201527f55736572206973206e6f7420746865206f776e6572206f66207468697320636f6044820152666d6d756e69747960c81b6064820152608490fd5b3461020e57602036600319011261020e576004356001600160401b03811161020e576120a56020612092610120933690600401612441565b81604051938285809451938492016123fb565b81015f81520301902060018060a01b0380825416916001810154916002820154906003830154906004840154906005850154169160068501549360ff600860078801549701541696604051988952602089015260408801526060870152608086015260a085015260c084015260e08301521515610100820152f35b3461020e57602036600319011261020e5761214660018060a01b03600a54163314612b6d565b6004355f908152600660205260409020600a01805460ff19169055005b3461020e57602036600319011261020e5760043560015481101561020e5761218a906124ed565b6116f15761219a6110729161235a565b60405191829160208352602083019061241c565b3461020e576020806121bf366124ac565b91906121fd8260405192805190610514838201926121de8188866123fb565b86015f81528660018060a01b0398899889930301902054161515612bb2565b81015f8152030190205416906040519216148152f35b3461020e575f36600319011261020e57600c546040516001600160a01b039091168152602090f35b3461020e57602036600319011261020e576004355f90815260066020526040902080546001600160a01b03166122736001830161235a565b9160ff60028201549160038101549060048101546005820154600683015490600784015492600a6008860154950154956122c16040519b8c9b8c5260208c61016091829101528c019061241c565b9860408b015260608a0152608089015260a088015260c087015260e0860152610100850152818116151561012085015260081c1615156101408301520390f35b90600182811c9216801561232f575b602083101461231b57565b634e487b7160e01b5f52602260045260245ffd5b91607f1691612310565b90601f801991011681019081106001600160401b0382111761130957604052565b9060405191825f82549261236d84612301565b9081845260019485811690815f146123d85750600114612398575b505061239692500383612339565b565b909391505f52602090815f20935f915b8183106123c057505061239693508201015f80612388565b855488840185015294850194879450918301916123a8565b91505061239694506020925060ff191682840152151560051b8201015f80612388565b5f5b83811061240c5750505f910152565b81810151838201526020016123fd565b90602091612435815180928185528580860191016123fb565b601f01601f1916010190565b81601f8201121561020e578035906001600160401b0382116113095760405192612475601f8401601f191660200185612339565b8284526020838301011161020e57815f926020809301838601378301015290565b600435906001600160a01b038216820361020e57565b604060031982011261020e57600435906001600160401b03821161020e576124d691600401612441565b906024356001600160a01b038116810361020e5790565b6001548110156125055760015f5260205f2001905f90565b634e487b7160e01b5f52603260045260245ffd5b6007548110156125055760075f5260205f2001905f90565b8054821015612505575f5260205f2001905f90565b61012060031982011261020e57600435906001600160401b03821161020e5761257191600401612441565b906024359060443590606435906084359060a4356001600160a01b038116810361020e579060c4359060e4359061010435801515810361020e5790565b90602060031983011261020e576004356001600160401b039283821161020e578060238301121561020e57816004013593841161020e576024848301011161020e576024019190565b9291906040840160408552815180915260608501906020809301905f5b848282106126255750505050930152565b835185529384019390920191600101612614565b969390989794919260e0969361010089019a895260208901526040880152606087015260018060a01b0316608086015260a085015260c08401521515910152565b91909182516001600160401b038111611309576126978254612301565b601f811161273b575b50602080601f83116001146126db5750819293945f926126d0575b50508160011b915f199060031b1c1916179055565b015190505f806126bb565b90601f19831695845f52825f20925f905b8882106127235750508360019596971061270b575b505050811b019055565b01515f1960f88460031b161c191690555f8080612701565b806001859682949686015181550195019301906126ec565b5f83815260208120601f840160051c81019260208510612778575b601f0160051c01915b82811061276d5750506126a0565b81815560010161275f565b9092508290612756565b61279a906020604051928284809451938492016123fb565b810103902090565b156127a957565b60405162461bcd60e51b815260206004820152601760248201527610dbdb5b5d5b9a5d1e48191bd95cdb89dd08195e1a5cdd604a1b6044820152606490fd5b156127ef57565b60405162461bcd60e51b815260206004820152603960248201527f5573657220686173204f70656e205265766965772c20506c65617365207761696044820152783a103ab73a34b6361034ba1034b990383937b1b2b9b9b2b21760391b6064820152608490fd5b9081602091031261020e5751801515810361020e5790565b6001600160a01b0390911681526040602082018190526128909291019061241c565b90565b1561289a57565b60405162461bcd60e51b815260206004820152602860248201527f596f7520617265206e6f742061206d656d62657220666f72207468697320636f60448201526736b6bab734ba3c9760c11b6064820152608490fd5b156128f757565b60405162461bcd60e51b815260206004820152601e60248201527f496e73756666696369656e7420637265647320746f2070726f706f73652e00006044820152606490fd5b1561294357565b60405162461bcd60e51b81526020600482015260166024820152754d7573742073656e642070726f706f73616c2066656560501b6044820152606490fd5b60075490600160401b821015611309576129a48260016123969401600755612519565b90919082549060031b91821b915f19901b1916179055565b80549190600160401b83101561130957826129a491600161239695018155612531565b5f1981146103c75760010190565b60405190815f82546129fe81612301565b93600191808316908115612a5f5750600114612a25575b5050602092505f81520301902090565b9091505f52602090815f20905f915b858310612a4b575050505060209181015f80612a15565b805487840152869450918301918101612a34565b92505050602093915060ff191682528015150281015f80612a15565b919082018092116103c757565b919060018060a01b031682526020916040838201525f928254612aaa81612301565b9384604085015260019182811690815f14612b0a5750600114612ad0575b505050505090565b5f908152828120949550935b858510612af6575050506060925001015f80808080612ac8565b805485850160600152938201938101612adc565b93505050506060935060ff929192191683830152151560051b01015f80808080612ac8565b6007548015612b59575f1990810190612b4782612519565b909182549160031b1b19169055600755565b634e487b7160e01b5f52603160045260245ffd5b15612b7457565b60405162461bcd60e51b81526020600482015260166024820152752737ba103a34329031b7b73a3930b1ba1037bbb732b960511b6044820152606490fd5b15612bb957565b60405162461bcd60e51b815260206004820152601960248201527810dbdb5b5d5b9a5d1e48111bd95cc8139bdd08115e1cda5cdd603a1b6044820152606490fd5b6001600160401b0381116113095760051b60200190565b90612c1b82612bfa565b612c286040519182612339565b8281528092612c39601f1991612bfa565b0190602036910137565b818102929181159184041417156103c757565b80518210156125055760209160051b010190565b8115612c74570490565b634e487b7160e01b5f52601260045260245ffdfe35baaec8d9c9da1c77f27119243a4384b49eae2bf0680aa0eebe3b62d28574a5a26469706673582212204758a6c687993481b182922306ff98c94bd5d204342c149c86bc38cb7c4441f764736f6c63430008140033",
  "linkReferences": {},
  "deployedLinkReferences": {}
}