{
  "_format": "hh-sol-artifact-1",
  "contractName": "tgetherCommunities",
  "sourceName": "contracts/tgetherCommunities.sol",
  "abi": [
    {
      "inputs": [
        {
          "internalType": "uint256",
          "name": "_feePrice",
          "type": "uint256"
        },
        {
          "internalType": "address payable",
          "name": "_feeAddress",
          "type": "address"
        }
      ],
      "stateMutability": "nonpayable",
      "type": "constructor"
    },
    {
      "anonymous": false,
      "inputs": [
        {
          "indexed": true,
          "internalType": "string",
          "name": "communityName",
          "type": "string"
        },
        {
          "indexed": false,
          "internalType": "address",
          "name": "creator",
          "type": "address"
        },
        {
          "indexed": false,
          "internalType": "bool",
          "name": "isInviteOnly",
          "type": "bool"
        }
      ],
      "name": "CommunityCreated",
      "type": "event"
    },
    {
      "anonymous": false,
      "inputs": [
        {
          "indexed": true,
          "internalType": "string",
          "name": "communityName",
          "type": "string"
        },
        {
          "indexed": false,
          "internalType": "uint256",
          "name": "minCredsToProposeVote",
          "type": "uint256"
        },
        {
          "indexed": false,
          "internalType": "uint256",
          "name": "minCredsToVote",
          "type": "uint256"
        },
        {
          "indexed": false,
          "internalType": "uint256",
          "name": "maxCredsCountedForVote",
          "type": "uint256"
        },
        {
          "indexed": false,
          "internalType": "uint256",
          "name": "minProposalVotes",
          "type": "uint256"
        },
        {
          "indexed": false,
          "internalType": "address",
          "name": "memberAccessContract",
          "type": "address"
        },
        {
          "indexed": false,
          "internalType": "uint256",
          "name": "proposalTime",
          "type": "uint256"
        },
        {
          "indexed": false,
          "internalType": "uint256",
          "name": "proposalDelay",
          "type": "uint256"
        },
        {
          "indexed": false,
          "internalType": "bool",
          "name": "isInviteOnly",
          "type": "bool"
        }
      ],
      "name": "CommunityInfo",
      "type": "event"
    },
    {
      "anonymous": false,
      "inputs": [
        {
          "indexed": true,
          "internalType": "string",
          "name": "communityName",
          "type": "string"
        },
        {
          "indexed": true,
          "internalType": "uint256",
          "name": "proposalId",
          "type": "uint256"
        },
        {
          "indexed": false,
          "internalType": "uint256",
          "name": "minCredsToProposeVote",
          "type": "uint256"
        },
        {
          "indexed": false,
          "internalType": "uint256",
          "name": "minCredsToVote",
          "type": "uint256"
        },
        {
          "indexed": false,
          "internalType": "uint256",
          "name": "maxCredsCountedForVote",
          "type": "uint256"
        },
        {
          "indexed": false,
          "internalType": "uint256",
          "name": "minProposalVotes",
          "type": "uint256"
        },
        {
          "indexed": false,
          "internalType": "address",
          "name": "memberAccessContract",
          "type": "address"
        },
        {
          "indexed": false,
          "internalType": "uint256",
          "name": "proposalTime",
          "type": "uint256"
        },
        {
          "indexed": false,
          "internalType": "uint256",
          "name": "proposalDelay",
          "type": "uint256"
        },
        {
          "indexed": false,
          "internalType": "bool",
          "name": "isInviteOnly",
          "type": "bool"
        }
      ],
      "name": "CommunityProposalParams",
      "type": "event"
    },
    {
      "anonymous": false,
      "inputs": [
        {
          "indexed": true,
          "internalType": "address",
          "name": "contractAddress",
          "type": "address"
        },
        {
          "indexed": true,
          "internalType": "uint256",
          "name": "proposalId",
          "type": "uint256"
        },
        {
          "indexed": true,
          "internalType": "address",
          "name": "proposer",
          "type": "address"
        }
      ],
      "name": "CustomProposalCreated",
      "type": "event"
    },
    {
      "anonymous": false,
      "inputs": [
        {
          "indexed": true,
          "internalType": "address",
          "name": "contractAddress",
          "type": "address"
        },
        {
          "indexed": true,
          "internalType": "uint256",
          "name": "proposalId",
          "type": "uint256"
        },
        {
          "indexed": true,
          "internalType": "bool",
          "name": "passed",
          "type": "bool"
        }
      ],
      "name": "CustomProposalResult",
      "type": "event"
    },
    {
      "anonymous": false,
      "inputs": [
        {
          "indexed": false,
          "internalType": "uint256",
          "name": "proposalId",
          "type": "uint256"
        },
        {
          "indexed": false,
          "internalType": "uint256",
          "name": "activeProposalsIndex",
          "type": "uint256"
        }
      ],
      "name": "IndexChange",
      "type": "event"
    },
    {
      "anonymous": false,
      "inputs": [
        {
          "indexed": true,
          "internalType": "uint256",
          "name": "proposalId",
          "type": "uint256"
        },
        {
          "indexed": true,
          "internalType": "address",
          "name": "proposer",
          "type": "address"
        },
        {
          "indexed": true,
          "internalType": "string",
          "name": "communityName",
          "type": "string"
        },
        {
          "indexed": false,
          "internalType": "uint256",
          "name": "timestamp",
          "type": "uint256"
        },
        {
          "indexed": false,
          "internalType": "uint256",
          "name": "propType",
          "type": "uint256"
        }
      ],
      "name": "ProposalCreated",
      "type": "event"
    },
    {
      "anonymous": false,
      "inputs": [
        {
          "indexed": true,
          "internalType": "uint256",
          "name": "proposalId",
          "type": "uint256"
        },
        {
          "indexed": true,
          "internalType": "bool",
          "name": "passed",
          "type": "bool"
        }
      ],
      "name": "ProposalResult",
      "type": "event"
    },
    {
      "anonymous": false,
      "inputs": [
        {
          "indexed": true,
          "internalType": "uint256",
          "name": "proposalId",
          "type": "uint256"
        },
        {
          "indexed": true,
          "internalType": "address",
          "name": "voter",
          "type": "address"
        },
        {
          "indexed": true,
          "internalType": "bool",
          "name": "voteChoice",
          "type": "bool"
        },
        {
          "indexed": false,
          "internalType": "uint256",
          "name": "credsToCount",
          "type": "uint256"
        }
      ],
      "name": "Voted",
      "type": "event"
    },
    {
      "inputs": [
        {
          "internalType": "uint256",
          "name": "",
          "type": "uint256"
        }
      ],
      "name": "CommunityNames",
      "outputs": [
        {
          "internalType": "string",
          "name": "",
          "type": "string"
        }
      ],
      "stateMutability": "view",
      "type": "function"
    },
    {
      "inputs": [
        {
          "internalType": "string",
          "name": "_communityName",
          "type": "string"
        },
        {
          "internalType": "uint256",
          "name": "_minCredsToProposeVote",
          "type": "uint256"
        },
        {
          "internalType": "uint256",
          "name": "_minCredsToVote",
          "type": "uint256"
        },
        {
          "internalType": "uint256",
          "name": "_maxCredsCountedForVote",
          "type": "uint256"
        },
        {
          "internalType": "uint256",
          "name": "_minProposalVotes",
          "type": "uint256"
        },
        {
          "internalType": "address",
          "name": "_credsAccessAddress",
          "type": "address"
        },
        {
          "internalType": "uint256",
          "name": "_proposalTime",
          "type": "uint256"
        },
        {
          "internalType": "uint256",
          "name": "_proposalDelay",
          "type": "uint256"
        },
        {
          "internalType": "bool",
          "name": "_isInviteOnly",
          "type": "bool"
        }
      ],
      "name": "CommunityProposal",
      "outputs": [
        {
          "internalType": "uint256",
          "name": "",
          "type": "uint256"
        }
      ],
      "stateMutability": "payable",
      "type": "function"
    },
    {
      "inputs": [
        {
          "internalType": "uint256",
          "name": "",
          "type": "uint256"
        }
      ],
      "name": "CommunityProposals",
      "outputs": [
        {
          "internalType": "uint256",
          "name": "minCredsToProposeVote",
          "type": "uint256"
        },
        {
          "internalType": "uint256",
          "name": "minCredsToVote",
          "type": "uint256"
        },
        {
          "internalType": "uint256",
          "name": "maxCredsCountedForVote",
          "type": "uint256"
        },
        {
          "internalType": "uint256",
          "name": "minProposalVotes",
          "type": "uint256"
        },
        {
          "internalType": "address",
          "name": "memberAccessContract",
          "type": "address"
        },
        {
          "internalType": "uint256",
          "name": "proposalTime",
          "type": "uint256"
        },
        {
          "internalType": "uint256",
          "name": "proposalDelay",
          "type": "uint256"
        },
        {
          "internalType": "bool",
          "name": "isInviteOnly",
          "type": "bool"
        }
      ],
      "stateMutability": "view",
      "type": "function"
    },
    {
      "inputs": [
        {
          "internalType": "string",
          "name": "_communityName",
          "type": "string"
        },
        {
          "internalType": "address",
          "name": "_contractAddress",
          "type": "address"
        }
      ],
      "name": "CustomProposal",
      "outputs": [
        {
          "internalType": "uint256",
          "name": "",
          "type": "uint256"
        }
      ],
      "stateMutability": "payable",
      "type": "function"
    },
    {
      "inputs": [
        {
          "internalType": "uint256",
          "name": "",
          "type": "uint256"
        }
      ],
      "name": "CustomProposals",
      "outputs": [
        {
          "internalType": "address",
          "name": "",
          "type": "address"
        }
      ],
      "stateMutability": "view",
      "type": "function"
    },
    {
      "inputs": [],
      "name": "MemberContract",
      "outputs": [
        {
          "internalType": "contract tgetherMembersInterface",
          "name": "",
          "type": "address"
        }
      ],
      "stateMutability": "view",
      "type": "function"
    },
    {
      "inputs": [
        {
          "internalType": "string",
          "name": "_communityName",
          "type": "string"
        },
        {
          "internalType": "address",
          "name": "_newOwner",
          "type": "address"
        }
      ],
      "name": "changeCommunityOwner",
      "outputs": [],
      "stateMutability": "nonpayable",
      "type": "function"
    },
    {
      "inputs": [
        {
          "internalType": "bytes",
          "name": "",
          "type": "bytes"
        }
      ],
      "name": "checkUpkeep",
      "outputs": [
        {
          "internalType": "bool",
          "name": "upkeepNeeded",
          "type": "bool"
        },
        {
          "internalType": "bytes",
          "name": "",
          "type": "bytes"
        }
      ],
      "stateMutability": "view",
      "type": "function"
    },
    {
      "inputs": [
        {
          "internalType": "string",
          "name": "",
          "type": "string"
        }
      ],
      "name": "communities",
      "outputs": [
        {
          "internalType": "address",
          "name": "creator",
          "type": "address"
        },
        {
          "internalType": "uint256",
          "name": "minCredsToProposeVote",
          "type": "uint256"
        },
        {
          "internalType": "uint256",
          "name": "minCredsToVote",
          "type": "uint256"
        },
        {
          "internalType": "uint256",
          "name": "maxCredsCountedForVote",
          "type": "uint256"
        },
        {
          "internalType": "uint256",
          "name": "minProposalVotes",
          "type": "uint256"
        },
        {
          "internalType": "address",
          "name": "memberAccessContract",
          "type": "address"
        },
        {
          "internalType": "uint256",
          "name": "proposalTime",
          "type": "uint256"
        },
        {
          "internalType": "uint256",
          "name": "proposalDelay",
          "type": "uint256"
        },
        {
          "internalType": "bool",
          "name": "isInviteOnly",
          "type": "bool"
        }
      ],
      "stateMutability": "view",
      "type": "function"
    },
    {
      "inputs": [
        {
          "internalType": "string",
          "name": "_communityName",
          "type": "string"
        },
        {
          "internalType": "uint256",
          "name": "_minCredsToProposeVote",
          "type": "uint256"
        },
        {
          "internalType": "uint256",
          "name": "_minCredsToVote",
          "type": "uint256"
        },
        {
          "internalType": "uint256",
          "name": "_maxCredsCountedForVote",
          "type": "uint256"
        },
        {
          "internalType": "uint256",
          "name": "_minProposalVotes",
          "type": "uint256"
        },
        {
          "internalType": "address",
          "name": "_memberAccessContract",
          "type": "address"
        },
        {
          "internalType": "uint256",
          "name": "_proposalTime",
          "type": "uint256"
        },
        {
          "internalType": "uint256",
          "name": "_proposalDelay",
          "type": "uint256"
        },
        {
          "internalType": "bool",
          "name": "_isInviteOnly",
          "type": "bool"
        }
      ],
      "name": "createCommunity",
      "outputs": [],
      "stateMutability": "nonpayable",
      "type": "function"
    },
    {
      "inputs": [],
      "name": "fee",
      "outputs": [
        {
          "internalType": "uint256",
          "name": "",
          "type": "uint256"
        }
      ],
      "stateMutability": "view",
      "type": "function"
    },
    {
      "inputs": [
        {
          "internalType": "uint256",
          "name": "_propId",
          "type": "uint256"
        }
      ],
      "name": "getActiveProposalIndex",
      "outputs": [
        {
          "internalType": "uint256",
          "name": "",
          "type": "uint256"
        }
      ],
      "stateMutability": "view",
      "type": "function"
    },
    {
      "inputs": [],
      "name": "getActiveProposalsLength",
      "outputs": [
        {
          "internalType": "uint256",
          "name": "",
          "type": "uint256"
        }
      ],
      "stateMutability": "view",
      "type": "function"
    },
    {
      "inputs": [
        {
          "internalType": "string",
          "name": "_communityName",
          "type": "string"
        }
      ],
      "name": "getCommunityExists",
      "outputs": [
        {
          "internalType": "bool",
          "name": "",
          "type": "bool"
        }
      ],
      "stateMutability": "view",
      "type": "function"
    },
    {
      "inputs": [
        {
          "internalType": "string",
          "name": "_communityName",
          "type": "string"
        }
      ],
      "name": "getCommunityInfo",
      "outputs": [
        {
          "internalType": "uint256",
          "name": "minCredsToProposeVote",
          "type": "uint256"
        },
        {
          "internalType": "uint256",
          "name": "minCredsToVote",
          "type": "uint256"
        },
        {
          "internalType": "uint256",
          "name": "maxCredsCountedForVote",
          "type": "uint256"
        },
        {
          "internalType": "uint256",
          "name": "minProposalVotes",
          "type": "uint256"
        },
        {
          "internalType": "uint256",
          "name": "proposalTime",
          "type": "uint256"
        },
        {
          "internalType": "uint256",
          "name": "proposalDelay",
          "type": "uint256"
        },
        {
          "internalType": "bool",
          "name": "isInviteOnly",
          "type": "bool"
        }
      ],
      "stateMutability": "view",
      "type": "function"
    },
    {
      "inputs": [
        {
          "internalType": "string",
          "name": "_communityName",
          "type": "string"
        }
      ],
      "name": "getCommunityIsInviteOnly",
      "outputs": [
        {
          "internalType": "bool",
          "name": "",
          "type": "bool"
        }
      ],
      "stateMutability": "view",
      "type": "function"
    },
    {
      "inputs": [
        {
          "internalType": "string",
          "name": "_communityName",
          "type": "string"
        },
        {
          "internalType": "address",
          "name": "_add",
          "type": "address"
        }
      ],
      "name": "getCommunityIsOwner",
      "outputs": [
        {
          "internalType": "bool",
          "name": "",
          "type": "bool"
        }
      ],
      "stateMutability": "view",
      "type": "function"
    },
    {
      "inputs": [
        {
          "internalType": "string",
          "name": "_communityName",
          "type": "string"
        }
      ],
      "name": "getCommunityOwner",
      "outputs": [
        {
          "internalType": "address",
          "name": "",
          "type": "address"
        }
      ],
      "stateMutability": "view",
      "type": "function"
    },
    {
      "inputs": [],
      "name": "getFee",
      "outputs": [
        {
          "internalType": "uint256",
          "name": "",
          "type": "uint256"
        }
      ],
      "stateMutability": "view",
      "type": "function"
    },
    {
      "inputs": [
        {
          "internalType": "string",
          "name": "_communityName",
          "type": "string"
        }
      ],
      "name": "getMemberAccessContract",
      "outputs": [
        {
          "internalType": "address",
          "name": "",
          "type": "address"
        }
      ],
      "stateMutability": "view",
      "type": "function"
    },
    {
      "inputs": [
        {
          "internalType": "uint256",
          "name": "_numIdsreturned",
          "type": "uint256"
        },
        {
          "internalType": "uint256",
          "name": "_pageNumber",
          "type": "uint256"
        }
      ],
      "name": "getPaginatedActiveProposals",
      "outputs": [
        {
          "internalType": "uint256[]",
          "name": "",
          "type": "uint256[]"
        },
        {
          "internalType": "uint256",
          "name": "numPages",
          "type": "uint256"
        }
      ],
      "stateMutability": "view",
      "type": "function"
    },
    {
      "inputs": [
        {
          "internalType": "string",
          "name": "_communityName",
          "type": "string"
        },
        {
          "internalType": "uint256",
          "name": "_numIdsreturned",
          "type": "uint256"
        },
        {
          "internalType": "uint256",
          "name": "_pageNumber",
          "type": "uint256"
        }
      ],
      "name": "getPaginatedCommunityProposals",
      "outputs": [
        {
          "internalType": "uint256[]",
          "name": "",
          "type": "uint256[]"
        },
        {
          "internalType": "uint256",
          "name": "numPages",
          "type": "uint256"
        }
      ],
      "stateMutability": "view",
      "type": "function"
    },
    {
      "inputs": [
        {
          "internalType": "uint256",
          "name": "_proposalId",
          "type": "uint256"
        }
      ],
      "name": "getProposalResults",
      "outputs": [
        {
          "internalType": "bool",
          "name": "isActive",
          "type": "bool"
        },
        {
          "internalType": "bool",
          "name": "passed",
          "type": "bool"
        }
      ],
      "stateMutability": "view",
      "type": "function"
    },
    {
      "inputs": [
        {
          "internalType": "uint256",
          "name": "_proposalId",
          "type": "uint256"
        }
      ],
      "name": "getProposalType",
      "outputs": [
        {
          "internalType": "uint256",
          "name": "",
          "type": "uint256"
        }
      ],
      "stateMutability": "view",
      "type": "function"
    },
    {
      "inputs": [
        {
          "internalType": "address",
          "name": "_address",
          "type": "address"
        },
        {
          "internalType": "uint256",
          "name": "_proposalId",
          "type": "uint256"
        }
      ],
      "name": "getProposalVote",
      "outputs": [
        {
          "internalType": "uint256",
          "name": "approveVotes",
          "type": "uint256"
        },
        {
          "internalType": "uint256",
          "name": "approveCreds",
          "type": "uint256"
        },
        {
          "internalType": "uint256",
          "name": "denyVotes",
          "type": "uint256"
        },
        {
          "internalType": "uint256",
          "name": "denyCreds",
          "type": "uint256"
        },
        {
          "internalType": "bool",
          "name": "",
          "type": "bool"
        }
      ],
      "stateMutability": "view",
      "type": "function"
    },
    {
      "inputs": [
        {
          "internalType": "address",
          "name": "",
          "type": "address"
        }
      ],
      "name": "hasOpenProposal",
      "outputs": [
        {
          "internalType": "bool",
          "name": "",
          "type": "bool"
        }
      ],
      "stateMutability": "view",
      "type": "function"
    },
    {
      "inputs": [
        {
          "internalType": "bytes",
          "name": "_performData",
          "type": "bytes"
        }
      ],
      "name": "performUpkeep",
      "outputs": [],
      "stateMutability": "nonpayable",
      "type": "function"
    },
    {
      "inputs": [
        {
          "internalType": "string",
          "name": "",
          "type": "string"
        },
        {
          "internalType": "uint256",
          "name": "",
          "type": "uint256"
        }
      ],
      "name": "porposalsByCommunity",
      "outputs": [
        {
          "internalType": "uint256",
          "name": "",
          "type": "uint256"
        }
      ],
      "stateMutability": "view",
      "type": "function"
    },
    {
      "inputs": [
        {
          "internalType": "uint256",
          "name": "",
          "type": "uint256"
        }
      ],
      "name": "proposals",
      "outputs": [
        {
          "internalType": "address",
          "name": "proposer",
          "type": "address"
        },
        {
          "internalType": "string",
          "name": "communityName",
          "type": "string"
        },
        {
          "internalType": "uint256",
          "name": "timestamp",
          "type": "uint256"
        },
        {
          "internalType": "uint256",
          "name": "propType",
          "type": "uint256"
        },
        {
          "internalType": "uint256",
          "name": "activeProposalsIndex",
          "type": "uint256"
        },
        {
          "internalType": "uint256",
          "name": "approveVotes",
          "type": "uint256"
        },
        {
          "internalType": "uint256",
          "name": "denyVotes",
          "type": "uint256"
        },
        {
          "internalType": "uint256",
          "name": "approveCreds",
          "type": "uint256"
        },
        {
          "internalType": "uint256",
          "name": "denyCreds",
          "type": "uint256"
        },
        {
          "internalType": "bool",
          "name": "isActive",
          "type": "bool"
        },
        {
          "internalType": "bool",
          "name": "passed",
          "type": "bool"
        }
      ],
      "stateMutability": "view",
      "type": "function"
    },
    {
      "inputs": [
        {
          "internalType": "uint256",
          "name": "_feePrice",
          "type": "uint256"
        }
      ],
      "name": "setFee",
      "outputs": [],
      "stateMutability": "nonpayable",
      "type": "function"
    },
    {
      "inputs": [
        {
          "internalType": "address payable",
          "name": "_feeAddress",
          "type": "address"
        }
      ],
      "name": "setFeeAddress",
      "outputs": [],
      "stateMutability": "nonpayable",
      "type": "function"
    },
    {
      "inputs": [
        {
          "internalType": "uint256",
          "name": "_mpt",
          "type": "uint256"
        }
      ],
      "name": "setMaxProposalTime",
      "outputs": [],
      "stateMutability": "nonpayable",
      "type": "function"
    },
    {
      "inputs": [
        {
          "internalType": "uint256",
          "name": "_propId",
          "type": "uint256"
        }
      ],
      "name": "setProposalCanceled",
      "outputs": [],
      "stateMutability": "nonpayable",
      "type": "function"
    },
    {
      "inputs": [
        {
          "internalType": "uint256",
          "name": "_count",
          "type": "uint256"
        }
      ],
      "name": "setProposalCounter",
      "outputs": [],
      "stateMutability": "nonpayable",
      "type": "function"
    },
    {
      "inputs": [
        {
          "internalType": "uint256",
          "name": "_proposalId",
          "type": "uint256"
        }
      ],
      "name": "setProposalInactive",
      "outputs": [],
      "stateMutability": "nonpayable",
      "type": "function"
    },
    {
      "inputs": [
        {
          "internalType": "uint256",
          "name": "_upkeepId",
          "type": "uint256"
        }
      ],
      "name": "setUpkkepId",
      "outputs": [],
      "stateMutability": "nonpayable",
      "type": "function"
    },
    {
      "inputs": [
        {
          "internalType": "address",
          "name": "_contractAddress",
          "type": "address"
        }
      ],
      "name": "settgetherMembersContract",
      "outputs": [],
      "stateMutability": "nonpayable",
      "type": "function"
    },
    {
      "inputs": [],
      "name": "upkeepId",
      "outputs": [
        {
          "internalType": "uint256",
          "name": "",
          "type": "uint256"
        }
      ],
      "stateMutability": "view",
      "type": "function"
    },
    {
      "inputs": [
        {
          "internalType": "uint256",
          "name": "proposalId",
          "type": "uint256"
        },
        {
          "internalType": "bool",
          "name": "voteChoice",
          "type": "bool"
        }
      ],
      "name": "vote",
      "outputs": [],
      "stateMutability": "nonpayable",
      "type": "function"
    }
  ],
  "bytecode": "0x608034620000ee57601f62002e4738819003918201601f19168301916001600160401b03831184841017620000da578084926040948552833981010312620000ee5780516020909101516001600160a01b03811690819003620000ee5760018060a01b03193381600a541617600a55600c541617600c55600b5562786450600355600160055560075468010000000000000000811015620000da576001810180600755811015620000c6575f9060078252602082200155604051612d549081620000f38239f35b634e487b7160e01b5f52603260045260245ffd5b634e487b7160e01b5f52604160045260245ffd5b5f80fdfe60806040526004361015610011575f80fd5b5f3560e01c8063013cf08b146122335780630163b9681461220b57806304413d86146121a65780630dc85f7d1461215b5780631282f6091461211857806328adc24014612052578063298a575014611f8157806331b4ea2e14611c205780633df6735214611b985780634585e33b14611833578063495d855e146118165780635787a0cc146117e85780635bdcd008146117ab5780636219f117146114f6578063685357091461147f57806369fe0e2d146114515780636e04ff0d146112fe578063789aa8f6146111d95780637b7fcfed146111705780638126d8951461110e578063860eb3d9146110685780638705fcd41461101c5780638a94aea414610fd45780638b64044014610fa657806390943a8b14610f74578063a169093b14610f46578063a64108d514610dca578063b07bcbc514610b10578063b3f6702d14610a90578063b60a85ae14610a63578063c2c2e5f8146109ea578063c9d27afe1461052e578063cbe02a9f1461049a578063ced72f8714610207578063d0d839231461026e578063d2aa789f14610251578063d978ffba14610224578063ddca3f43146102075763ff1225d9146101c6575f80fd5b34610203576020366003190112610203576001600160a01b036101e761249a565b165f526009602052602060ff60405f2054166040519015158152f35b5f80fd5b34610203575f366003190112610203576020600b54604051908152f35b34610203576020366003190112610203576004355f5260066020526020600360405f200154604051908152f35b34610203575f366003190112610203576020600e54604051908152f35b3461020357602080600319360112610203576004355f8181526006835260409020546001600160a01b0316330361045957805f5260068252600160ff600a60405f2001541615150361041457805f5260068252600460405f200154916007549060018211156103d0575f1982019182116103bc5783826006935f9603610325575b50508284525281600460408220600a810160ff1981541690550155610312612ba5565b5f80516020612cff8339815191528280a3005b7ff041f52db3fd2f56a979d9dd319aa6a6e399c198410349cf154eb4b4568d7daa9161037d61035560409361251d565b90546103608461251d565b91909260031b1c9082549060031b91821b915f19901b1916179055565b6103868161251d565b90549060031b1c875284845280600483892001556103a38161251d565b90549060031b1c90825191825284820152a184806102ef565b634e487b7160e01b5f52601160045260245ffd5b6064906040519062461bcd60e51b82526004820152601d60248201527f546865726520617265206e6f206163746976652050726f706f73616c730000006044820152fd5b60405162461bcd60e51b815260048101839052601b60248201527f546869732070726f706f73616c206973206e6f742061637469766500000000006044820152606490fd5b60405162461bcd60e51b81526004810183905260196024820152785573657220646964206e6f742070726f706f7365207468697360381b6044820152606490fd5b34610203576020366003190112610203576004356001600160401b038111610203576104cc6020913690600401612454565b600561051a8360405193805190610509838201926104eb8189866123f3565b87015f8152878560018060a01b03998a930301902054161515612c28565b6040519384928392519283916123f3565b81015f815203019020015416604051908152f35b3461020357604036600319011261020357602480358015159160043590838303610203576005548210156109ab57815f526020906006825260405f20906001918260ff600a830154161515036109675760028101549183820192604051865f8654610598816122f9565b90898116908115610951575060011461091e575b505f8152829003019020600701546105c49082612af1565b42101590816108ee575b50156108b257600d54604051635848e2a360e11b81526001600160a01b039091169390868180610602853360048401612afe565b0381885afa80156107e85786915f91610885575b50151503610831576009830193335f5284875260ff60405f2054166107f3578660405180926302b5df5960e01b82528180610655873360048401612afe565b03915afa9081156107e8575f916107bb575b50600261067383612a63565b0154811261077757600361068683612a63565b015481131561076f575061069b600391612a63565b0154965b15610720576005820180549185830180931161070d5750916007917f7c2de587c00d75474a0c6c6fa96fd3b45dc974cd4e8a75f712bb84c950dce1b59695949355016106ec878254612af1565b90555b335f52825260405f209060ff198254161790556040519384523393a4005b634e487b7160e01b5f9081526011600452fd5b6006820180549185830180931161070d5750916008917f7c2de587c00d75474a0c6c6fa96fd3b45dc974cd4e8a75f712bb84c950dce1b5969594935501610768878254612af1565b90556106ef565b90509661069f565b60405162461bcd60e51b815260048101889052601b818501527f496e73756666696369656e7420637265647320746f20766f74652e00000000006044820152606490fd5b90508681813d83116107e1575b6107d28183612331565b8101031261020357518a610667565b503d6107c8565b6040513d5f823e3d90fd5b60405162461bcd60e51b815260048101889052601781850152762cb7ba903430bb329030b63932b0b23c903b37ba32b21760491b6044820152606490fd5b60405162461bcd60e51b8152600481018790526027818401527f596f7520617265206e6f742061206d656d626572206f66207468697320636f6d60448201526636bab734ba3c9760c91b6064820152608490fd5b6108a59150883d8a116108ab575b61089d8183612331565b81019061285a565b8b610616565b503d610893565b8460166064926040519262461bcd60e51b84526004840152820152754e6f742041637469766520566f74696e672054696d6560501b6044820152fd5b610915915061090a90600761090287612a63565b015490612af1565b600661090286612a63565b421115896105ce565b9050865f52815f20885f915b83831061093d57505050820160076105ac565b8054838701528b94909201918a910161092a565b60ff1916855250801515028301905060076105ac565b60405162461bcd60e51b815260048101859052601c818401527f50726f706f73616c206973206e6f206c6f6e67657220416374697665000000006044820152606490fd5b60649060186040519162461bcd60e51b83526020600484015282015277283937b837b9b0b6103237b2b9903737ba1032bc34b9ba1760411b6044820152fd5b34610203576040366003190112610203576004356001600160401b03811161020357610a1a903690600401612454565b610a3660206024359281604051938285809451938492016123f3565b81016008815203019020805482101561020357602091610a5591612535565b90546040519160031b1c8152f35b34610203576020366003190112610203576004355f5260066020526020600460405f200154604051908152f35b34610203576020366003190112610203576004356001600160401b03811161020357610ac26020913690600401612454565b610afd826040519280519061050983820192610adf8188866123f3565b86015f8152868560018060a01b039889930301902054161515612c28565b81015f8152030190205416604051908152f35b610b19366124b0565b604051825190602093610b5285820193610b348185876123f3565b83015f8152838760018060a01b0395869303019020541615156127a6565b325f5260098552610b6a60ff60405f205416156127ec565b81600d5416604051635848e2a360e11b8152868180610b8d863260048401612872565b0381855afa9081156107e857610bb0916001915f91610dad575b50151514612897565b8560405180926302b5df5960e01b82528180610bd0873260048401612872565b03915afa9081156107e8575f91610d80575b5060405186818451610bf581838a6123f3565b81015f815203019020600101541315610c0d906128f4565b600b543414610c1b90612940565b600580545f908152600687526040902080546001600160a01b0319908116331782559195919290610c4f826001830161267e565b42600282015560075460048201556003810160029055600a019460ff199586815416600117905587875492610c8381612786565b6040514281528381016002905285339160407f6c98a8c940418b35614f0cd02412d5c9606faff474cbb6cdd6640ba5d1a9f06b91a460405180938192518092610ccb926123f3565b8101600881520301902090610cdf91612a32565b84545f52600486528260405f209116809282541617905532908454907f6a319039caa9a0b231fc1a3d10d617c656e322ebac0d326e9d0c95cbde9248a45f80a43490600c54165a5f809381938293f1610d36612985565b50610d40906129b4565b325f526009835260405f209081541660011790558054610d5f906129f7565b8054610d6a90612a55565b8091555f1981019081116103bc57604051908152f35b90508581813d8311610da6575b610d978183612331565b81010312610203575186610be2565b503d610d8d565b610dc49150893d8b116108ab5761089d8183612331565b89610ba7565b346102035760208060031936011261020357600435906001600160401b03821161020357610dfe60e0923690600401612454565b9060405191610e3781519383830194610e188183886123f3565b5f90820190815281900384019020546001600160a01b03161515612c28565b600160405183818451610e4b81838a6123f3565b81015f815203019020015492600260405184818551610e6b8183886123f3565b81015f8152030190200154600360405185818651610e8a8183896123f3565b81015f8152030190200154600460405186818751610ea981838a6123f3565b81015f81520301902001549160ff6008610f13886006610ed6828a8c6040519384928392519283916123f3565b81015f815203019020015497600760405183818d51610ef68183886123f3565b81015f8152030190200154996040519384928392519283916123f3565b81015f8152030190200154169560405197885287015260408601526060850152608084015260a0830152151560c0820152f35b3461020357602036600319011261020357610f6c60018060a01b03600a54163314612be3565b600435600355005b34610203576020366003190112610203576004355f526004602052602060018060a01b0360405f205416604051908152f35b3461020357602036600319011261020357610fcc60018060a01b03600a54163314612be3565b600435600555005b3461020357602036600319011261020357610fed61249a565b600a546001600160a01b0391906110079083163314612be3565b1660018060a01b0319600d541617600d555f80f35b34610203576020366003190112610203576004356001600160a01b03818116918290036102035761105290600a54163314612be3565b600c80546001600160a01b031916919091179055005b346102035760403660031901126102035760043561108581612c87565b905f61109382602435612cb9565b9061109e8383612af1565b9060075492838311611106575b905b8282106110d357856110bf8686612ce0565b906110cf604051928392836125fb565b0390f35b6110fa611100916110e38461251d565b90549060031b1c6110f4828a612ccc565b52612a55565b91612a55565b906110ad565b8392506110ab565b34610203576020366003190112610203576004355f52600260205260405f2080546110cf600183015492600281015490600381015460018060a01b0360048301541660058301549160ff6007600686015495015416946040519889988961263d565b34610203576020366003190112610203576004356001600160401b038111610203576111a26020913690600401612454565b816111b660405192838151938492016123f3565b5f90820190815281900382019020546040516001600160a01b0390911615158152f35b34610203576060366003190112610203576004356001600160401b03811161020357611209903690600401612454565b60243561121581612c87565b915f61122383604435612cb9565b9161122e8484612af1565b9060405191815193602095868401956112488187896123f3565b8501948781600897888152030190205483116112da575b905b82821061129457886110bf896112858a8a8a8a6040519485938492519283916123f3565b82019081520301902054612ce0565b6110fa6112d4916112c3846112b58b8b604051809381928d519283916123f3565b81018c815203019020612535565b90549060031b1c6110f4828d612ccc565b90611261565b9150604051868185516112ee81838b6123f3565b810187815203019020549161125f565b346102035761130c366125b2565b50505f8060078054908161137a575b50506040519060208201526020815260408101918183106001600160401b0384111761136657826040521515825260406060820152603f19906113616080820182612414565b030190f35b634e487b7160e01b5f52604160045260245ffd5b5f9060015b83811061138d57505061131b565b6113968161251d565b9054600391821b1c5f526113fd6006602090808252806113db600260405f2001546113c08861251d565b905490881b1c5f5282855288610902600160405f2001612a63565b926113e58761251d565b905490871b1c5f5252610902600160405f2001612a63565b428111158061143f575b61141c575b505061141790612a55565b61137f565b9550955091506114176001956114318461251d565b9054911b1c9492908761140c565b50848111158061140757508415611407565b346102035760203660031901126102035761147760018060a01b03600a54163314612be3565b600435600b55005b346102035760403660031901126102035760a061149a61249a565b6024355f52600660205260405f206005810154916007820154916009600682015491600881015493600180891b03165f520160205260ff60405f2054169260405194855260208501526040840152606083015215156080820152f35b34610203576115043661254a565b92829491929897959891604051895190602097888c01926115268184866123f3565b82015f8152828a60018060a01b0394859303019020541661176a57918b89928b8f8e8c97600354809111611761575b50926008959261168b95926116a69998956040518781875161157881838c6123f3565b81015f8152030190209260018060a01b031993338582541617905560016040518981806115a98c8c519283916123f3565b81015f81520301902001556002604051888188516115c881838d6123f3565b81015f81520301902001556003604051878187516115e781838c6123f3565b81015f81520301902001558960046040518781875161160781838c6123f3565b81015f815203019020015560056040518681865161162681838b6123f3565b81015f81520301902001918b16908254161790558960066040518581855161164f81838a6123f3565b81015f81520301902001558a60076040518581855161166f81838a6123f3565b81015f81520301902001556040519384928392519283916123f3565b81015f815203019020019060ff801983541691151516179055565b600154600160401b811015611366578060016116c592016001556124f1565b61174e5789611749976116fc7fa33e969841918d6c70510ff52aaf2f08256c371553465cdd2beb001c23b0f5049c61173c9461267e565b7f770333f2d96faae538a5391fa34d7f90a88dc8af3aadcb1735c43839cb695566604061172884612786565b928151903382528b151590820152a2612786565b996040519889988961263d565b0390a2005b634e487b7160e01b5f525f60045260245ffd5b9a506008611555565b60405162461bcd60e51b8152600481018a9052601960248201527821b7b6b6bab734ba3c9030b63932b0b23c9032bc34b9ba399760391b6044820152606490fd5b34610203576020366003190112610203576004355f5260066020526040600a815f20015460ff8251918181161515835260081c1615156020820152f35b346102035760203660031901126102035761180e60018060a01b03600a54163314612be3565b600435600e55005b34610203575f366003190112610203576020600754604051908152f35b3461020357611841366125b2565b8190602092839181010312610203573590815f5260069182825260405f2060029061189061187b8383015460076109026001809601612a63565b845f52868652866109028460405f2001612a63565b8315159081611b8d575b81611b83575b506118a757005b825f5284845260405f20916005830154868401548082119182611b53575b82611b31575b505015611abd578160038401548281145f14611a2357505050825f5260048452808360018060a01b0360405f2054167fca5be02c86f988b49c8f55fa1445e2252a5de3afaa608cc35db41feb6c22f83a5f80a45b825f80516020612cff8339815191525f80a3815f52838352600a60405f200161010061ff00198254161790555b546001600160a01b03165f908152600983526040808220805460ff199081169091558383528585529120600a81018054909216909155600401546007545f1981019081116103bc578082036119b4575b50505f52525f60046040822001556119b2612ba5565b005b7ff041f52db3fd2f56a979d9dd319aa6a6e399c198410349cf154eb4b4568d7daa916119e461035560409361251d565b6119ed8161251d565b90549060031b1c5f52858552806004835f200155611a0a8161251d565b90549060031b1c90825191825285820152a1838061199c565b14611a2f575b5061191f565b611ab790600860ff6007611a44868801612a63565b93885f52808a5260405f2090815488870155878201548187015581015460038601556003810154600486015560018060a01b03600482015416600586019060018060a01b031982541617905560058101548b8601558a8101548286015501541691019060ff801983541691151516179055565b85611a29565b9050825f52848452600a60405f200161ff001981541690555f835f80516020612cff8339815191528280a360038201540361194c576004835260405f9081205483906001600160a01b03167fca5be02c86f988b49c8f55fa1445e2252a5de3afaa608cc35db41feb6c22f83a8380a461194c565b611b3b9250612af1565b6004611b48848601612a63565b0154111587806118cb565b915060078501546008860154108015611b6d575b916118c5565b506003611b7b858701612a63565b015415611b67565b90501515866118a0565b42811115915061189a565b34610203576020366003190112610203576004356001600160401b0381116102035760ff6008611c0a6020611bd281953690600401612454565b6040519061050981519284830193611beb8183876123f3565b5f90820190815281900385019020546001600160a01b03161515612c28565b81015f8152030190200154166040519015158152f35b611c293661254a565b92611c6b60206040999698979994939451611c4a8c828151948592016123f3565b5f918101918252908190036020019020546001600160a01b031615156127a6565b325f526009602052611c8460ff60405f205416156127ec565b600d54604051635848e2a360e11b81526001600160a01b039091169060208180611cb28e3260048401612872565b0381855afa9081156107e857611cf792611cdb60016020948f945f91611f645750151514612897565b60405180809581946302b5df5960e01b83523260048401612872565b03915afa9081156107e8578a905f92611f22575b5097611d66611eab96959493926001611d5460207f65513f3a4b238816f691e4322be549c10eeaa1ef78fe116618b0d83e5ca252b69d81604051938285809451938492016123f3565b81015f815203019020015413156128f4565b611d73600b543414612940565b84836005545f5260026020528c60405f2091600354809111611f18575b50600660205260405f2080546001600160a01b03191633178155611e9f93926007929091611e519190611dc6826001830161267e565b4260028201558454600482015560016003820155600a600160ff19828401541617910155611e42602060055492611dfc81612786565b604051428152600184820152857f6c98a8c940418b35614f0cd02412d5c9606faff474cbb6cdd6640ba5d1a9f06b60403393a481604051938285809451938492016123f3565b81016008815203019020612a32565b8a81558b60018201558d60028201558460038201556004810160018060a01b03871660018060a01b0319825416179055866005820155876006820155019060ff801983541691151516179055565b61173c6005549b612786565b0390a3611ed15f8080803460018060a01b03600c54165af1611ecb612985565b506129b4565b335f52600960205260405f20600160ff19825416179055611ef36005546129f7565b611efe600554612a55565b806005555f1981019081116103bc57602090604051908152f35b9550611e9f611d90565b959493929150506020853d602011611f5c575b81611f4260209383612331565b810103126102035793519293919290919089611d66611d0b565b3d9150611f35565b611f7b9150863d88116108ab5761089d8183612331565b5f610ba7565b3461020357611f8f366124b0565b90604051908051906020810191611fa78185856123f3565b83015f815283602060018060a01b039586930301902054163303611ffd57611fdd916020916040519384928392519283916123f3565b5f9082019081520301902080546001600160a01b03191691909216179055005b60405162461bcd60e51b815260206004820152602760248201527f55736572206973206e6f7420746865206f776e6572206f66207468697320636f6044820152666d6d756e69747960c81b6064820152608490fd5b34610203576020366003190112610203576004356001600160401b0381116102035761209d602061208a610120933690600401612454565b81604051938285809451938492016123f3565b81015f81520301902060018060a01b0380825416916001810154916002820154906003830154906004840154906005850154169160068501549360ff600860078801549701541696604051988952602089015260408801526060870152608086015260a085015260c084015260e08301521515610100820152f35b346102035760203660031901126102035761213e60018060a01b03600a54163314612be3565b6004355f908152600660205260409020600a01805460ff19169055005b346102035760203660031901126102035760043560015481101561020357612182906124f1565b61174e576121926110cf91612352565b604051918291602083526020830190612414565b34610203576020806121b7366124b0565b91906121f58260405192805190610509838201926121d68188866123f3565b86015f81528660018060a01b0398899889930301902054161515612c28565b81015f8152030190205416906040519216148152f35b34610203575f36600319011261020357600d546040516001600160a01b039091168152602090f35b34610203576020366003190112610203576004355f90815260066020526040902080546001600160a01b031661226b60018301612352565b9160ff60028201549160038101549060048101546005820154600683015490600784015492600a6008860154950154956122b96040519b8c9b8c5260208c61016091829101528c0190612414565b9860408b015260608a0152608089015260a088015260c087015260e0860152610100850152818116151561012085015260081c1615156101408301520390f35b90600182811c92168015612327575b602083101461231357565b634e487b7160e01b5f52602260045260245ffd5b91607f1691612308565b90601f801991011681019081106001600160401b0382111761136657604052565b9060405191825f825492612365846122f9565b9081845260019485811690815f146123d05750600114612390575b505061238e92500383612331565b565b909391505f52602090815f20935f915b8183106123b857505061238e93508201015f80612380565b855488840185015294850194879450918301916123a0565b91505061238e94506020925060ff191682840152151560051b8201015f80612380565b5f5b8381106124045750505f910152565b81810151838201526020016123f5565b9060209161242d815180928185528580860191016123f3565b601f01601f1916010190565b6001600160401b03811161136657601f01601f191660200190565b81601f820112156102035780359061246b82612439565b926124796040519485612331565b8284526020838301011161020357815f926020809301838601378301015290565b600435906001600160a01b038216820361020357565b604060031982011261020357600435906001600160401b038211610203576124da91600401612454565b906024356001600160a01b03811681036102035790565b6001548110156125095760015f5260205f2001905f90565b634e487b7160e01b5f52603260045260245ffd5b6007548110156125095760075f5260205f2001905f90565b8054821015612509575f5260205f2001905f90565b61012060031982011261020357600435906001600160401b0382116102035761257591600401612454565b906024359060443590606435906084359060a4356001600160a01b0381168103610203579060c4359060e435906101043580151581036102035790565b906020600319830112610203576004356001600160401b039283821161020357806023830112156102035781600401359384116102035760248483010111610203576024019190565b9291906040840160408552815180915260608501906020809301905f5b848282106126295750505050930152565b835185529384019390920191600101612618565b969390989794919260e0969361010089019a895260208901526040880152606087015260018060a01b0316608086015260a085015260c08401521515910152565b91909182516001600160401b0381116113665761269b82546122f9565b601f811161273f575b50602080601f83116001146126df5750819293945f926126d4575b50508160011b915f199060031b1c1916179055565b015190505f806126bf565b90601f19831695845f52825f20925f905b8882106127275750508360019596971061270f575b505050811b019055565b01515f1960f88460031b161c191690555f8080612705565b806001859682949686015181550195019301906126f0565b5f83815260208120601f840160051c8101926020851061277c575b601f0160051c01915b8281106127715750506126a4565b818155600101612763565b909250829061275a565b61279e906020604051928284809451938492016123f3565b810103902090565b156127ad57565b60405162461bcd60e51b815260206004820152601760248201527610dbdb5b5d5b9a5d1e48191bd95cdb89dd08195e1a5cdd604a1b6044820152606490fd5b156127f357565b60405162461bcd60e51b815260206004820152603960248201527f5573657220686173204f70656e205265766965772c20506c65617365207761696044820152783a103ab73a34b6361034ba1034b990383937b1b2b9b9b2b21760391b6064820152608490fd5b90816020910312610203575180151581036102035790565b6001600160a01b03909116815260406020820181905261289492910190612414565b90565b1561289e57565b60405162461bcd60e51b815260206004820152602860248201527f596f7520617265206e6f742061206d656d62657220666f72207468697320636f60448201526736b6bab734ba3c9760c11b6064820152608490fd5b156128fb57565b60405162461bcd60e51b815260206004820152601e60248201527f496e73756666696369656e7420637265647320746f2070726f706f73652e00006044820152606490fd5b1561294757565b60405162461bcd60e51b81526020600482015260166024820152754d7573742073656e642070726f706f73616c2066656560501b6044820152606490fd5b3d156129af573d9061299682612439565b916129a46040519384612331565b82523d5f602084013e565b606090565b156129bb57565b60405162461bcd60e51b81526020600482015260146024820152732330b4b632b2103a379039b2b7321022ba3432b960611b6044820152606490fd5b60075490600160401b82101561136657612a1a82600161238e940160075561251d565b90919082549060031b91821b915f19901b1916179055565b80549190600160401b8310156113665782612a1a91600161238e95018155612535565b5f1981146103bc5760010190565b60405190815f8254612a74816122f9565b93600191808316908115612ad55750600114612a9b575b5050602092505f81520301902090565b9091505f52602090815f20905f915b858310612ac1575050505060209181015f80612a8b565b805487840152869450918301918101612aaa565b92505050602093915060ff191682528015150281015f80612a8b565b919082018092116103bc57565b919060018060a01b031682526020916040838201525f928254612b20816122f9565b9384604085015260019182811690815f14612b805750600114612b46575b505050505090565b5f908152828120949550935b858510612b6c575050506060925001015f80808080612b3e565b805485850160600152938201938101612b52565b93505050506060935060ff929192191683830152151560051b01015f80808080612b3e565b6007548015612bcf575f1990810190612bbd8261251d565b909182549160031b1b19169055600755565b634e487b7160e01b5f52603160045260245ffd5b15612bea57565b60405162461bcd60e51b81526020600482015260166024820152752737ba103a34329031b7b73a3930b1ba1037bbb732b960511b6044820152606490fd5b15612c2f57565b60405162461bcd60e51b815260206004820152601960248201527810dbdb5b5d5b9a5d1e48111bd95cc8139bdd08115e1cda5cdd603a1b6044820152606490fd5b6001600160401b0381116113665760051b60200190565b90612c9182612c70565b612c9e6040519182612331565b8281528092612caf601f1991612c70565b0190602036910137565b818102929181159184041417156103bc57565b80518210156125095760209160051b010190565b8115612cea570490565b634e487b7160e01b5f52601260045260245ffdfe35baaec8d9c9da1c77f27119243a4384b49eae2bf0680aa0eebe3b62d28574a5a26469706673582212201fe4f493d0268eb75d55aa75bfa0df6c746166242423fa558d2ed9e55cdc795d64736f6c63430008140033",
  "linkReferences": {},
  "deployedLinkReferences": {}
}