{
  "_format": "hh-sol-artifact-1",
  "contractName": "tgetherCommunities",
  "sourceName": "contracts/tgetherCommunities.sol",
  "abi": [
    {
      "inputs": [
        {
          "internalType": "uint256",
          "name": "_feePrice",
          "type": "uint256"
        }
      ],
      "stateMutability": "nonpayable",
      "type": "constructor"
    },
    {
      "anonymous": false,
      "inputs": [
        {
          "indexed": true,
          "internalType": "string",
          "name": "communityName",
          "type": "string"
        },
        {
          "indexed": false,
          "internalType": "address",
          "name": "creator",
          "type": "address"
        },
        {
          "indexed": false,
          "internalType": "bool",
          "name": "isInviteOnly",
          "type": "bool"
        }
      ],
      "name": "CommunityCreated",
      "type": "event"
    },
    {
      "anonymous": false,
      "inputs": [
        {
          "indexed": true,
          "internalType": "string",
          "name": "communityName",
          "type": "string"
        },
        {
          "indexed": false,
          "internalType": "uint256",
          "name": "minCredsToProposeVote",
          "type": "uint256"
        },
        {
          "indexed": false,
          "internalType": "uint256",
          "name": "minCredsToVote",
          "type": "uint256"
        },
        {
          "indexed": false,
          "internalType": "uint256",
          "name": "maxCredsCountedForVote",
          "type": "uint256"
        },
        {
          "indexed": false,
          "internalType": "uint256",
          "name": "minProposalVotes",
          "type": "uint256"
        },
        {
          "indexed": false,
          "internalType": "address",
          "name": "memberAccessContract",
          "type": "address"
        },
        {
          "indexed": false,
          "internalType": "uint256",
          "name": "proposalTime",
          "type": "uint256"
        },
        {
          "indexed": false,
          "internalType": "uint256",
          "name": "proposalDelay",
          "type": "uint256"
        },
        {
          "indexed": false,
          "internalType": "bool",
          "name": "isInviteOnly",
          "type": "bool"
        }
      ],
      "name": "CommunityInfo",
      "type": "event"
    },
    {
      "anonymous": false,
      "inputs": [
        {
          "indexed": true,
          "internalType": "string",
          "name": "communityName",
          "type": "string"
        },
        {
          "indexed": true,
          "internalType": "uint256",
          "name": "proposalId",
          "type": "uint256"
        },
        {
          "indexed": false,
          "internalType": "uint256",
          "name": "minCredsToProposeVote",
          "type": "uint256"
        },
        {
          "indexed": false,
          "internalType": "uint256",
          "name": "minCredsToVote",
          "type": "uint256"
        },
        {
          "indexed": false,
          "internalType": "uint256",
          "name": "maxCredsCountedForVote",
          "type": "uint256"
        },
        {
          "indexed": false,
          "internalType": "uint256",
          "name": "minProposalVotes",
          "type": "uint256"
        },
        {
          "indexed": false,
          "internalType": "address",
          "name": "memberAccessContract",
          "type": "address"
        },
        {
          "indexed": false,
          "internalType": "uint256",
          "name": "proposalTime",
          "type": "uint256"
        },
        {
          "indexed": false,
          "internalType": "uint256",
          "name": "proposalDelay",
          "type": "uint256"
        },
        {
          "indexed": false,
          "internalType": "bool",
          "name": "isInviteOnly",
          "type": "bool"
        }
      ],
      "name": "CommunityProposalParams",
      "type": "event"
    },
    {
      "anonymous": false,
      "inputs": [
        {
          "indexed": true,
          "internalType": "address",
          "name": "contractAddress",
          "type": "address"
        },
        {
          "indexed": true,
          "internalType": "uint256",
          "name": "proposalId",
          "type": "uint256"
        },
        {
          "indexed": true,
          "internalType": "address",
          "name": "proposer",
          "type": "address"
        }
      ],
      "name": "CustomProposalCreated",
      "type": "event"
    },
    {
      "anonymous": false,
      "inputs": [
        {
          "indexed": true,
          "internalType": "address",
          "name": "contractAddress",
          "type": "address"
        },
        {
          "indexed": true,
          "internalType": "uint256",
          "name": "proposalId",
          "type": "uint256"
        },
        {
          "indexed": true,
          "internalType": "bool",
          "name": "passed",
          "type": "bool"
        }
      ],
      "name": "CustomProposalResult",
      "type": "event"
    },
    {
      "anonymous": false,
      "inputs": [
        {
          "indexed": true,
          "internalType": "uint256",
          "name": "proposalId",
          "type": "uint256"
        },
        {
          "indexed": true,
          "internalType": "address",
          "name": "proposer",
          "type": "address"
        },
        {
          "indexed": true,
          "internalType": "string",
          "name": "communityName",
          "type": "string"
        },
        {
          "indexed": false,
          "internalType": "uint256",
          "name": "timestamp",
          "type": "uint256"
        },
        {
          "indexed": false,
          "internalType": "uint256",
          "name": "propType",
          "type": "uint256"
        }
      ],
      "name": "ProposalCreated",
      "type": "event"
    },
    {
      "anonymous": false,
      "inputs": [
        {
          "indexed": true,
          "internalType": "uint256",
          "name": "proposalId",
          "type": "uint256"
        },
        {
          "indexed": true,
          "internalType": "bool",
          "name": "passed",
          "type": "bool"
        }
      ],
      "name": "ProposalResult",
      "type": "event"
    },
    {
      "anonymous": false,
      "inputs": [
        {
          "indexed": true,
          "internalType": "uint256",
          "name": "proposalId",
          "type": "uint256"
        },
        {
          "indexed": true,
          "internalType": "address",
          "name": "voter",
          "type": "address"
        },
        {
          "indexed": true,
          "internalType": "bool",
          "name": "voteChoice",
          "type": "bool"
        },
        {
          "indexed": false,
          "internalType": "uint256",
          "name": "credsToCount",
          "type": "uint256"
        }
      ],
      "name": "Voted",
      "type": "event"
    },
    {
      "inputs": [
        {
          "internalType": "uint256",
          "name": "",
          "type": "uint256"
        }
      ],
      "name": "CommunityNames",
      "outputs": [
        {
          "internalType": "string",
          "name": "",
          "type": "string"
        }
      ],
      "stateMutability": "view",
      "type": "function"
    },
    {
      "inputs": [
        {
          "internalType": "string",
          "name": "_communityName",
          "type": "string"
        },
        {
          "internalType": "uint256",
          "name": "_minCredsToProposeVote",
          "type": "uint256"
        },
        {
          "internalType": "uint256",
          "name": "_minCredsToVote",
          "type": "uint256"
        },
        {
          "internalType": "uint256",
          "name": "_maxCredsCountedForVote",
          "type": "uint256"
        },
        {
          "internalType": "uint256",
          "name": "_minProposalVotes",
          "type": "uint256"
        },
        {
          "internalType": "address",
          "name": "_credsAccessAddress",
          "type": "address"
        },
        {
          "internalType": "uint256",
          "name": "_proposalTime",
          "type": "uint256"
        },
        {
          "internalType": "uint256",
          "name": "_proposalDelay",
          "type": "uint256"
        },
        {
          "internalType": "bool",
          "name": "_isInviteOnly",
          "type": "bool"
        }
      ],
      "name": "CommunityProposal",
      "outputs": [
        {
          "internalType": "uint256",
          "name": "",
          "type": "uint256"
        }
      ],
      "stateMutability": "payable",
      "type": "function"
    },
    {
      "inputs": [
        {
          "internalType": "uint256",
          "name": "",
          "type": "uint256"
        }
      ],
      "name": "CommunityProposals",
      "outputs": [
        {
          "internalType": "uint256",
          "name": "minCredsToProposeVote",
          "type": "uint256"
        },
        {
          "internalType": "uint256",
          "name": "minCredsToVote",
          "type": "uint256"
        },
        {
          "internalType": "uint256",
          "name": "maxCredsCountedForVote",
          "type": "uint256"
        },
        {
          "internalType": "uint256",
          "name": "minProposalVotes",
          "type": "uint256"
        },
        {
          "internalType": "address",
          "name": "memberAccessContract",
          "type": "address"
        },
        {
          "internalType": "uint256",
          "name": "proposalTime",
          "type": "uint256"
        },
        {
          "internalType": "uint256",
          "name": "proposalDelay",
          "type": "uint256"
        },
        {
          "internalType": "bool",
          "name": "isInviteOnly",
          "type": "bool"
        }
      ],
      "stateMutability": "view",
      "type": "function"
    },
    {
      "inputs": [
        {
          "internalType": "string",
          "name": "_communityName",
          "type": "string"
        },
        {
          "internalType": "address",
          "name": "_contractAddress",
          "type": "address"
        }
      ],
      "name": "CustomProposal",
      "outputs": [
        {
          "internalType": "uint256",
          "name": "",
          "type": "uint256"
        }
      ],
      "stateMutability": "payable",
      "type": "function"
    },
    {
      "inputs": [
        {
          "internalType": "uint256",
          "name": "",
          "type": "uint256"
        }
      ],
      "name": "CustomProposals",
      "outputs": [
        {
          "internalType": "address",
          "name": "",
          "type": "address"
        }
      ],
      "stateMutability": "view",
      "type": "function"
    },
    {
      "inputs": [],
      "name": "MemberContract",
      "outputs": [
        {
          "internalType": "contract tgetherMembersInterface",
          "name": "",
          "type": "address"
        }
      ],
      "stateMutability": "view",
      "type": "function"
    },
    {
      "inputs": [
        {
          "internalType": "string",
          "name": "_communityName",
          "type": "string"
        },
        {
          "internalType": "address",
          "name": "_newOwner",
          "type": "address"
        }
      ],
      "name": "changeCommunityOwner",
      "outputs": [],
      "stateMutability": "nonpayable",
      "type": "function"
    },
    {
      "inputs": [
        {
          "internalType": "string",
          "name": "",
          "type": "string"
        }
      ],
      "name": "communities",
      "outputs": [
        {
          "internalType": "address",
          "name": "creator",
          "type": "address"
        },
        {
          "internalType": "uint256",
          "name": "minCredsToProposeVote",
          "type": "uint256"
        },
        {
          "internalType": "uint256",
          "name": "minCredsToVote",
          "type": "uint256"
        },
        {
          "internalType": "uint256",
          "name": "maxCredsCountedForVote",
          "type": "uint256"
        },
        {
          "internalType": "uint256",
          "name": "minProposalVotes",
          "type": "uint256"
        },
        {
          "internalType": "address",
          "name": "memberAccessContract",
          "type": "address"
        },
        {
          "internalType": "uint256",
          "name": "proposalTime",
          "type": "uint256"
        },
        {
          "internalType": "uint256",
          "name": "proposalDelay",
          "type": "uint256"
        },
        {
          "internalType": "bool",
          "name": "isInviteOnly",
          "type": "bool"
        }
      ],
      "stateMutability": "view",
      "type": "function"
    },
    {
      "inputs": [
        {
          "internalType": "string",
          "name": "_communityName",
          "type": "string"
        },
        {
          "internalType": "uint256",
          "name": "_minCredsToProposeVote",
          "type": "uint256"
        },
        {
          "internalType": "uint256",
          "name": "_minCredsToVote",
          "type": "uint256"
        },
        {
          "internalType": "uint256",
          "name": "_maxCredsCountedForVote",
          "type": "uint256"
        },
        {
          "internalType": "uint256",
          "name": "_minProposalVotes",
          "type": "uint256"
        },
        {
          "internalType": "address",
          "name": "_memberAccessContract",
          "type": "address"
        },
        {
          "internalType": "uint256",
          "name": "_proposalTime",
          "type": "uint256"
        },
        {
          "internalType": "uint256",
          "name": "_proposalDelay",
          "type": "uint256"
        },
        {
          "internalType": "bool",
          "name": "_isInviteOnly",
          "type": "bool"
        }
      ],
      "name": "createCommunity",
      "outputs": [],
      "stateMutability": "nonpayable",
      "type": "function"
    },
    {
      "inputs": [],
      "name": "fee",
      "outputs": [
        {
          "internalType": "uint256",
          "name": "",
          "type": "uint256"
        }
      ],
      "stateMutability": "view",
      "type": "function"
    },
    {
      "inputs": [
        {
          "internalType": "string",
          "name": "_communityName",
          "type": "string"
        }
      ],
      "name": "getCommunityExists",
      "outputs": [
        {
          "internalType": "bool",
          "name": "",
          "type": "bool"
        }
      ],
      "stateMutability": "view",
      "type": "function"
    },
    {
      "inputs": [
        {
          "internalType": "string",
          "name": "_communityName",
          "type": "string"
        }
      ],
      "name": "getCommunityInfo",
      "outputs": [
        {
          "internalType": "uint256",
          "name": "minCredsToProposeVote",
          "type": "uint256"
        },
        {
          "internalType": "uint256",
          "name": "minCredsToVote",
          "type": "uint256"
        },
        {
          "internalType": "uint256",
          "name": "maxCredsCountedForVote",
          "type": "uint256"
        },
        {
          "internalType": "uint256",
          "name": "minProposalVotes",
          "type": "uint256"
        },
        {
          "internalType": "uint256",
          "name": "proposalTime",
          "type": "uint256"
        },
        {
          "internalType": "uint256",
          "name": "proposalDelay",
          "type": "uint256"
        },
        {
          "internalType": "bool",
          "name": "isInviteOnly",
          "type": "bool"
        }
      ],
      "stateMutability": "view",
      "type": "function"
    },
    {
      "inputs": [
        {
          "internalType": "string",
          "name": "_communityName",
          "type": "string"
        }
      ],
      "name": "getCommunityIsInviteOnly",
      "outputs": [
        {
          "internalType": "bool",
          "name": "",
          "type": "bool"
        }
      ],
      "stateMutability": "view",
      "type": "function"
    },
    {
      "inputs": [
        {
          "internalType": "string",
          "name": "_communityName",
          "type": "string"
        },
        {
          "internalType": "address",
          "name": "_add",
          "type": "address"
        }
      ],
      "name": "getCommunityIsOwner",
      "outputs": [
        {
          "internalType": "bool",
          "name": "",
          "type": "bool"
        }
      ],
      "stateMutability": "view",
      "type": "function"
    },
    {
      "inputs": [
        {
          "internalType": "string",
          "name": "_communityName",
          "type": "string"
        }
      ],
      "name": "getCommunityOwner",
      "outputs": [
        {
          "internalType": "address",
          "name": "",
          "type": "address"
        }
      ],
      "stateMutability": "view",
      "type": "function"
    },
    {
      "inputs": [],
      "name": "getFee",
      "outputs": [
        {
          "internalType": "uint256",
          "name": "",
          "type": "uint256"
        }
      ],
      "stateMutability": "view",
      "type": "function"
    },
    {
      "inputs": [
        {
          "internalType": "uint256",
          "name": "_propId",
          "type": "uint256"
        }
      ],
      "name": "getLaneId",
      "outputs": [
        {
          "internalType": "uint256",
          "name": "",
          "type": "uint256"
        }
      ],
      "stateMutability": "view",
      "type": "function"
    },
    {
      "inputs": [
        {
          "internalType": "string",
          "name": "_communityName",
          "type": "string"
        }
      ],
      "name": "getMemberAccessContract",
      "outputs": [
        {
          "internalType": "address",
          "name": "",
          "type": "address"
        }
      ],
      "stateMutability": "view",
      "type": "function"
    },
    {
      "inputs": [
        {
          "internalType": "string",
          "name": "_communityName",
          "type": "string"
        },
        {
          "internalType": "uint256",
          "name": "_numIdsreturned",
          "type": "uint256"
        },
        {
          "internalType": "uint256",
          "name": "_pageNumber",
          "type": "uint256"
        }
      ],
      "name": "getPaginatedCommunityProposals",
      "outputs": [
        {
          "internalType": "uint256[]",
          "name": "",
          "type": "uint256[]"
        },
        {
          "internalType": "uint256",
          "name": "numPages",
          "type": "uint256"
        }
      ],
      "stateMutability": "view",
      "type": "function"
    },
    {
      "inputs": [
        {
          "internalType": "uint256",
          "name": "_proposalId",
          "type": "uint256"
        }
      ],
      "name": "getProposalResults",
      "outputs": [
        {
          "internalType": "bool",
          "name": "isActive",
          "type": "bool"
        },
        {
          "internalType": "bool",
          "name": "passed",
          "type": "bool"
        }
      ],
      "stateMutability": "view",
      "type": "function"
    },
    {
      "inputs": [
        {
          "internalType": "uint256",
          "name": "_proposalId",
          "type": "uint256"
        }
      ],
      "name": "getProposalType",
      "outputs": [
        {
          "internalType": "uint256",
          "name": "",
          "type": "uint256"
        }
      ],
      "stateMutability": "view",
      "type": "function"
    },
    {
      "inputs": [
        {
          "internalType": "address",
          "name": "_address",
          "type": "address"
        },
        {
          "internalType": "uint256",
          "name": "_proposalId",
          "type": "uint256"
        }
      ],
      "name": "getProposalVote",
      "outputs": [
        {
          "internalType": "uint256",
          "name": "approveVotes",
          "type": "uint256"
        },
        {
          "internalType": "uint256",
          "name": "approveCreds",
          "type": "uint256"
        },
        {
          "internalType": "uint256",
          "name": "denyVotes",
          "type": "uint256"
        },
        {
          "internalType": "uint256",
          "name": "denyCreds",
          "type": "uint256"
        },
        {
          "internalType": "bool",
          "name": "",
          "type": "bool"
        }
      ],
      "stateMutability": "view",
      "type": "function"
    },
    {
      "inputs": [
        {
          "internalType": "uint256",
          "name": "_propId",
          "type": "uint256"
        }
      ],
      "name": "getVoteEnd",
      "outputs": [
        {
          "internalType": "uint256",
          "name": "",
          "type": "uint256"
        }
      ],
      "stateMutability": "view",
      "type": "function"
    },
    {
      "inputs": [
        {
          "internalType": "address",
          "name": "",
          "type": "address"
        }
      ],
      "name": "hasOpenProposal",
      "outputs": [
        {
          "internalType": "bool",
          "name": "",
          "type": "bool"
        }
      ],
      "stateMutability": "view",
      "type": "function"
    },
    {
      "inputs": [],
      "name": "laneRegistryContract",
      "outputs": [
        {
          "internalType": "contract laneRegistryInterface",
          "name": "",
          "type": "address"
        }
      ],
      "stateMutability": "view",
      "type": "function"
    },
    {
      "inputs": [
        {
          "internalType": "bytes",
          "name": "_performData",
          "type": "bytes"
        }
      ],
      "name": "performUpkeep",
      "outputs": [],
      "stateMutability": "nonpayable",
      "type": "function"
    },
    {
      "inputs": [
        {
          "internalType": "string",
          "name": "",
          "type": "string"
        },
        {
          "internalType": "uint256",
          "name": "",
          "type": "uint256"
        }
      ],
      "name": "porposalsByCommunity",
      "outputs": [
        {
          "internalType": "uint256",
          "name": "",
          "type": "uint256"
        }
      ],
      "stateMutability": "view",
      "type": "function"
    },
    {
      "inputs": [
        {
          "internalType": "uint256",
          "name": "",
          "type": "uint256"
        }
      ],
      "name": "proposals",
      "outputs": [
        {
          "internalType": "address",
          "name": "proposer",
          "type": "address"
        },
        {
          "internalType": "string",
          "name": "communityName",
          "type": "string"
        },
        {
          "internalType": "uint256",
          "name": "timestamp",
          "type": "uint256"
        },
        {
          "internalType": "uint256",
          "name": "propType",
          "type": "uint256"
        },
        {
          "internalType": "uint256",
          "name": "laneId",
          "type": "uint256"
        },
        {
          "internalType": "uint256",
          "name": "approveVotes",
          "type": "uint256"
        },
        {
          "internalType": "uint256",
          "name": "denyVotes",
          "type": "uint256"
        },
        {
          "internalType": "uint256",
          "name": "approveCreds",
          "type": "uint256"
        },
        {
          "internalType": "uint256",
          "name": "denyCreds",
          "type": "uint256"
        },
        {
          "internalType": "bool",
          "name": "isActive",
          "type": "bool"
        },
        {
          "internalType": "bool",
          "name": "passed",
          "type": "bool"
        }
      ],
      "stateMutability": "view",
      "type": "function"
    },
    {
      "inputs": [
        {
          "internalType": "uint256",
          "name": "_feePrice",
          "type": "uint256"
        }
      ],
      "name": "setFee",
      "outputs": [],
      "stateMutability": "nonpayable",
      "type": "function"
    },
    {
      "inputs": [
        {
          "internalType": "address",
          "name": "_contractAddress",
          "type": "address"
        }
      ],
      "name": "setLaneRegistryContract",
      "outputs": [],
      "stateMutability": "nonpayable",
      "type": "function"
    },
    {
      "inputs": [
        {
          "internalType": "uint256",
          "name": "_mpt",
          "type": "uint256"
        }
      ],
      "name": "setMaxProposalTime",
      "outputs": [],
      "stateMutability": "nonpayable",
      "type": "function"
    },
    {
      "inputs": [
        {
          "internalType": "uint256",
          "name": "_propId",
          "type": "uint256"
        }
      ],
      "name": "setProposalCanceled",
      "outputs": [],
      "stateMutability": "nonpayable",
      "type": "function"
    },
    {
      "inputs": [
        {
          "internalType": "uint256",
          "name": "_count",
          "type": "uint256"
        }
      ],
      "name": "setProposalCounter",
      "outputs": [],
      "stateMutability": "nonpayable",
      "type": "function"
    },
    {
      "inputs": [
        {
          "internalType": "uint256",
          "name": "_proposalId",
          "type": "uint256"
        }
      ],
      "name": "setProposalInactive",
      "outputs": [],
      "stateMutability": "nonpayable",
      "type": "function"
    },
    {
      "inputs": [
        {
          "internalType": "uint256",
          "name": "_upkeepId",
          "type": "uint256"
        }
      ],
      "name": "setUpkkepId",
      "outputs": [],
      "stateMutability": "nonpayable",
      "type": "function"
    },
    {
      "inputs": [
        {
          "internalType": "address",
          "name": "_contractAddress",
          "type": "address"
        }
      ],
      "name": "settgetherMembersContract",
      "outputs": [],
      "stateMutability": "nonpayable",
      "type": "function"
    },
    {
      "inputs": [],
      "name": "upkeepId",
      "outputs": [
        {
          "internalType": "uint256",
          "name": "",
          "type": "uint256"
        }
      ],
      "stateMutability": "view",
      "type": "function"
    },
    {
      "inputs": [
        {
          "internalType": "uint256",
          "name": "proposalId",
          "type": "uint256"
        },
        {
          "internalType": "bool",
          "name": "voteChoice",
          "type": "bool"
        }
      ],
      "name": "vote",
      "outputs": [],
      "stateMutability": "nonpayable",
      "type": "function"
    }
  ],
  "bytecode": "0x60803461006f57601f612b4038819003918201601f19168301916001600160401b038311848410176100735780849260209460405283398101031261006f5751600980546001600160a01b03191633179055600a55627864506003556001600555604051612ab890816100888239f35b5f80fd5b634e487b7160e01b5f52604160045260245ffdfe60806040526004361015610011575f80fd5b5f803560e01c8063013cf08b146121c05780630163b9681461219757806304413d86146121305780630dc85f7d146120cd5780631282f6091461208a578063247c3a381461204257806328adc24014611f79578063298a575014611ea55780632f30f10614611e4d57806331b4ea2e14611a895780633df6735214611a005780633eab6bac146119d75780634585e33b146116a45780635787a0cc146116745780635bdcd008146116365780636219f1171461135657806368535709146112dc57806369fe0e2d146112ac578063789aa8f6146110b85780637b7fcfed1461104e5780638126d89514610fe75780638a94aea414610f9f5780638b64044014610f6f57806390943a8b14610f3c578063a169093b14610f0c578063a64108d514610d8f578063b07bcbc514610a4d578063b3f6702d146109c8578063c2c2e5f81461094c578063c972f98514610920578063c9d27afe146104ca578063cbe02a9f1461042d578063ced72f87146101fd578063d0d8392314610266578063d2aa789f14610248578063d978ffba1461021b578063ddca3f43146101fd5763ff1225d9146101bc575f80fd5b346101fa5760203660031901126101fa5760209060ff906040906001600160a01b036101e6612432565b168152600884522054166040519015158152f35b80fd5b50346101fa57806003193601126101fa576020600a54604051908152f35b50346101fa5760203660031901126101fa5760036040602092600435815260068452200154604051908152f35b50346101fa57806003193601126101fa576020600d54604051908152f35b50346101fa57602090816003193601126101fa576004358082526006835260408220546001600160a01b0390811633036103ec5781835260068452600160ff600a604086200154161515036103a757829381600c541683855260068252816004604087200154602460405180948193636f0817eb60e11b835260048301525afa91821561039c578592610360575b505016803b1561035c57602483926040519485938492634ce4e6c760e01b845260048401525af1801561035157610329575080f35b6001600160401b03811161033d5760405280f35b634e487b7160e01b82526041600452602482fd5b6040513d84823e3d90fd5b5050fd5b90809250813d8311610395575b61037781836122bd565b8101031261039057518181168103610390575f806102f4565b505050fd5b503d61036d565b6040513d87823e3d90fd5b60405162461bcd60e51b815260048101859052601b60248201527f546869732070726f706f73616c206973206e6f742061637469766500000000006044820152606490fd5b60405162461bcd60e51b81526004810185905260196024820152785573657220646964206e6f742070726f706f7365207468697360381b6044820152606490fd5b50346101fa5760203660031901126101fa576004356001600160401b0381116104c6579060056104b26020610467819536906004016123d9565b604051948151916104a184820193610480818a87612393565b88018381528890038501909720546001600160a01b03979088161515612a23565b604051948593849251928391612393565b820190815203019020015416604051908152f35b5080fd5b50346101fa5760403660031901126101fa5760248035801515916004359083830361091c576005548210156108dd578185526020906006825260408620906001918260ff600a83015416151503610899576002810154918382019261053b60076105338661289c565b01548261292a565b4210159081610869575b501561082d57600b54604051635848e2a360e11b81526001600160a01b039091169390868180610579853360048401612937565b0381885afa80156107635786918c91610800575b501515036107ac576009830193338b5284875260ff60408c20541661076e578660405180926302b5df5960e01b825281806105cc873360048401612937565b03915afa908115610763578b91610732575b5060026105ea8361289c565b015481126106ee5760036105fd8361289c565b01548113156106e6575061061260039161289c565b0154965b1561069757600582018054918583018093116106855750916007917f7c2de587c00d75474a0c6c6fa96fd3b45dc974cd4e8a75f712bb84c950dce1b596959493550161066387825461292a565b90555b3388528252604087209060ff198254161790556040519384523393a480f35b634e487b7160e01b8b5260116004528afd5b600682018054918583018093116106855750916008917f7c2de587c00d75474a0c6c6fa96fd3b45dc974cd4e8a75f712bb84c950dce1b59695949355016106df87825461292a565b9055610666565b905096610616565b60405162461bcd60e51b815260048101889052601b818501527f496e73756666696369656e7420637265647320746f20766f74652e00000000006044820152606490fd5b90508681813d831161075c575b61074981836122bd565b8101031261075857515f6105de565b8a80fd5b503d61073f565b6040513d8d823e3d90fd5b60405162461bcd60e51b815260048101889052601781850152762cb7ba903430bb329030b63932b0b23c903b37ba32b21760491b6044820152606490fd5b60405162461bcd60e51b8152600481018790526027818401527f596f7520617265206e6f742061206d656d626572206f66207468697320636f6d60448201526636bab734ba3c9760c91b6064820152608490fd5b6108209150883d8a11610826575b61081881836122bd565b81019061274f565b5f61058d565b503d61080e565b8460166064926040519262461bcd60e51b84526004840152820152754e6f742041637469766520566f74696e672054696d6560501b6044820152fd5b610890915061088590600761087d8761289c565b01549061292a565b600661087d8661289c565b4211155f610545565b60405162461bcd60e51b815260048101859052601c818401527f50726f706f73616c206973206e6f206c6f6e67657220416374697665000000006044820152606490fd5b60649060186040519162461bcd60e51b83526020600484015282015277283937b837b9b0b6103237b2b9903737ba1032bc34b9ba1760411b6044820152fd5b8480fd5b50346101fa5760203660031901126101fa57600460406020928235815260068452200154604051908152f35b50346101fa5760403660031901126101fa576004356001600160401b0381116104c65761097d9036906004016123d9565b9061099a6020602435938160405193828580945193849201612393565b810160078152030190209081548310156101fa5760206109ba84846124b5565b90546040519160031b1c8152f35b50346101fa5760203660031901126101fa576004356001600160401b0381116104c65790610a3a6020610a00819436906004016123d9565b604051938151916104a184820193610a19818987612393565b87018381528790038501909620546001600160a01b03969087161515612a23565b8201908152030190205416604051908152f35b50610a5736612448565b91604051825190602094610a9486860193610a73818587612393565b83018581528390038701909220546001600160a01b0392908316151561269b565b32845260088652610aac60ff604086205416156126e1565b81600b5416604051635848e2a360e11b8152878180610acf8a3260048401612767565b0381855afa908115610d8457610af2916001918891610d67575b5015151461278c565b8660405180926302b5df5960e01b82528180610b128b3260048401612767565b03915afa801561039c578590610d38575b610b4e9150600160405189818a51610b3c81838c612393565b81018a815203019020015413156127e9565b610b5b600a543414612835565b6005948554855260068752610bf8876040872095600a60018060a01b0319973289825416178155610b8f8660018301612573565b4260028201556002600382015501600160ff19825416179055885493610bb48161267b565b604051428152600285820152867f6c98a8c940418b35614f0cd02412d5c9606faff474cbb6cdd6640ba5d1a9f06b60403393a4604051938492839251928391612393565b81016007815203019020805490600160401b821015610d245791610c28828a9695946001610c40950181556124b5565b90919082549060031b91821b915f19901b1916179055565b8554855260048352816040862091168094825416179055602485549360405194859384928232917f6a319039caa9a0b231fc1a3d10d617c656e322ebac0d326e9d0c95cbde9248a48b80a4600c54169063a993983b60e01b8352600483015234905af1908115610351578291610cf7575b5082548252600684526004604083200155610ccc825461287a565b8092555f198201918211610ce35750604051908152f35b634e487b7160e01b81526011600452602490fd5b90508381813d8311610d1d575b610d0e81836122bd565b810103126104c657515f610cb1565b503d610d04565b634e487b7160e01b87526041600452602487fd5b508681813d8311610d60575b610d4e81836122bd565b8101031261091c57610b4e9051610b23565b503d610d44565b610d7e91508a3d8c116108265761081881836122bd565b5f610ae9565b6040513d88823e3d90fd5b50346101fa57602090816003193601126101fa57600435916001600160401b0383116104c657610dc560e09336906004016123d9565b60405192610dfb82519484840195610dde818389612393565b810183815281900385019020546001600160a01b03161515612a23565b600160405184818551610e0f81838b612393565b810185815203019020015493600260405185818651610e2f818388612393565b8101868152030190200154600360405186818751610e4e818389612393565b81018781520301902001549060ff6008610ed9886004610e7b82898c604051938492839251928391612393565b81018c815203019020015496600660405183818d51610e9b818388612393565b81018d81520301902001549860078b84604051809251610ebc818389612393565b81018581520301902001549a604051948593849251928391612393565b8201908152030190200154169560405197885287015260408601526060850152608084015260a0830152151560c0820152f35b50346101fa5760203660031901126101fa57610f3360018060a01b036009541633146129de565b60043560035580f35b50346101fa5760203660031901126101fa57602090600435815260048252604060018060a01b0391205416604051908152f35b50346101fa5760203660031901126101fa57610f9660018060a01b036009541633146129de565b60043560055580f35b50346101fa5760203660031901126101fa57610fb9612432565b6009546001600160a01b039190610fd390831633146129de565b1660018060a01b0319600b541617600b5580f35b50346101fa5760203660031901126101fa576040906004358152600260205220805461104a600183015492600281015490600381015460018060a01b0360048301541660058301549160ff60076006860154950154169460405198899889612532565b0390f35b50346101fa5760203660031901126101fa576004356001600160401b0381116104c6579061108260209236906004016123d9565b826110966040519283815193849201612393565b81019182529081900382019020546040516001600160a01b0390911615158152f35b50346101fa5760603660031901126101fa576004356001600160401b0381116104c6576110e99036906004016123d9565b6024906044359082356110fb81612a6b565b9361110960405195866122bd565b81855261111582612a6b565b9360209384870195601f190136873787908483029280840486149015171561129957611141858461292a565b916040519282519488840195611158818789612393565b850194898160079788815203019020548211611275575b90889492959391955b8187106111fd5750506111979450604051948593849251928391612393565b820190815203019020549082156111eb57506040805181815295519086018190526060860194905b8088106111d457505084955004908301520390f35b9094848060019288518152019601970196906111bf565b634e487b7160e01b8752601260045286fd5b9091939592945061122a836040518b818061121c8c8b51928391612393565b81018a8152030190206124b5565b9054908c518310156112625760031b1c600582901b8c018a0152611257906112519061287a565b9261287a565b949290889492611178565b634e487b7160e01b8e526032600452888efd5b90506040518881855161128981838b612393565b810187815203019020549061116f565b634e487b7160e01b895260116004528389fd5b50346101fa5760203660031901126101fa576112d360018060a01b036009541633146129de565b600435600a5580f35b50346101fa5760403660031901126101fa5760a0906112f9612432565b9060243581526006602052604081209160058301549260ff604060078301549460096006850154946008810154966001808c1b03168352016020522054169260405194855260208501526040840152606083015215156080820152f35b50346101fa57611365366124ca565b9497829392979697949194936040518251906020928d8486019361138a818587612393565b83019081528290038401909120546001600160a01b03919082166115f5578992918d8f928d8f916003548091116115eb575b50936114f89389899488946008986001611412896115139e9d60405182818a516113e7818387612393565b81018d81520301902097848060a01b031998338a825416179055604051938492839251928391612393565b81018a815203019020015560028d8860405180925161143281838d612393565b810189815203019020015560038c8760405180925161145281838c612393565b81018881520301902001558b60048c8760405180925161147381838c612393565b810188815203019020015560058b8660405180925161149381838b612393565b81018781520301902001918d16908254161790558b600660405185818d516114bc81838a612393565b81018681520301902001558c600760405185818d516114dc81838a612393565b8101868152030190200155604051809481938b51928391612393565b820190815203019020019060ff801983541691151516179055565b600154600160401b8110156115d7578060016115329201600155612489565b6115c357827fa33e969841918d6c70510ff52aaf2f08256c371553465cdd2beb001c23b0f5049a99989694926115706115bd9997956115b094612573565b7f770333f2d96faae538a5391fa34d7f90a88dc8af3aadcb1735c43839cb695566604061159c8461267b565b928151903382528b151590820152a261267b565b9960405198899889612532565b0390a280f35b634e487b7160e01b8c5260048c905260248cfd5b634e487b7160e01b8c52604160045260248cfd5b9b506114f86113bc565b60405162461bcd60e51b815260048101859052601960248201527821b7b6b6bab734ba3c9030b63932b0b23c9032bc34b9ba399760391b6044820152606490fd5b50346101fa5760203660031901126101fa57600a604080926004358152600660205220015460ff8251918181161515835260081c1615156020820152f35b50346101fa5760203660031901126101fa5761169b60018060a01b036009541633146129de565b600435600d5580f35b50346101fa576020806003193601126104c6576004356001600160401b038082116119d357366023830112156119d35781600401359081116119d35781013660248201116119d35781839103126119cf5760240135908183526006908181526040842060029061173861172383830154600761087d600180960161289c565b8688528585528561087d8460408b200161289c565b85151590816119c4575b816119ba575b50611751578580f35b8486528383526040862091600583015485840154808211918261198a575b82611968575b5050156118e1578160038401548281145f1461184757505050848652600483526040862054819086906001600160a01b03167fca5be02c86f988b49c8f55fa1445e2252a5de3afaa608cc35db41feb6c22f83a8980a45b847f35baaec8d9c9da1c77f27119243a4384b49eae2bf0680aa0eebe3b62d28574a58780a383855282825260408520600a01805461ff0019166101001790555b546001600160a01b03168452600881526040808520805460ff199081169091559385529190528220600a01805490911690555f808080808580f35b14611853575b506117cc565b6118db90600860ff600761186886880161289c565b938a8c5280895260408c2090815488870155878201548187015581015460038601556003810154600486015560018060a01b03600482015416600586019060018060a01b031982541617905560058101548a860155898101548286015501541691019060ff801983541691151516179055565b5f61184d565b85875284845260408720600a01805461ff0019169055905085857f35baaec8d9c9da1c77f27119243a4384b49eae2bf0680aa0eebe3b62d28574a58280a360038201540361180c57600482526040852054859085906001600160a01b03167fca5be02c86f988b49c8f55fa1445e2252a5de3afaa608cc35db41feb6c22f83a8380a461180c565b611972925061292a565b600461197f84860161289c565b015411155f80611775565b9150600785015460088601541080156119a4575b9161176f565b5060036119b285870161289c565b01541561199e565b905015155f611748565b428111159150611742565b8280fd5b8380fd5b50346101fa57806003193601126101fa57600c546040516001600160a01b039091168152602090f35b50346101fa5760203660031901126101fa576004356001600160401b0381116104c6576008611a7360208094611a3c60ff9536906004016123d9565b90604051916104a181519385830194611a56818388612393565b810184815281900386019020546001600160a01b03161515612a23565b8201908152030190200154166040519015158152f35b50611a93366124ca565b92909198979693611ad46020604098979851611ab58b82815194859201612393565b9081018b81528190036020019020546001600160a01b0316151561269b565b3289526008602052611aed60ff60408b205416156126e1565b600b54604051635848e2a360e11b81526001600160a01b039091169060208180611b1b8d3260048401612767565b0381855afa90811561076357611b6192611b4560016020948f948f9591611e36575015151461278c565b60405180809581946302b5df5960e01b83523260048401612767565b03915afa908115611e2b57908a8a928192611dee575b50611b976020611ba9946001938260405194838680955193849201612393565b820190815203019020015413156127e9565b611bb6600a543414612835565b6005548952600260205260408920600354808c11611de6575b50600660205260408a2080546001600160a01b03191632178155600a90611bf98b60018301612573565b4260028201556001600382015501600160ff19825416179055600554611c1e8a61267b565b60405142815260016020820152827f6c98a8c940418b35614f0cd02412d5c9606faff474cbb6cdd6640ba5d1a9f06b60403393a4611c6b60208b8160405193828580945193849201612393565b81016007815203019020805490600160401b821015611dd2578760076115b09e9f95611cce7f65513f3a4b238816f691e4322be549c10eeaa1ef78fe116618b0d83e5ca252b69d9c9b9996610c2887611d1c976001611d279f9d9a0181556124b5565b8a81558b60018201558d60028201558460038201556004810160018060a01b03871660018060a01b0319825416179055866005820155876006820155019060ff801983541691151516179055565b6005549b8c9b61267b565b0390a3600c5460405163a993983b60e01b815260048101929092526020908290602490829034906001600160a01b03165af1908115610351578291611da0575b50600554825260066020526004604083200155611d8560055461287a565b90816005555f198201918211610ce357602082604051908152f35b90506020813d602011611dca575b81611dbb602093836122bd565b810103126104c657515f611d67565b3d9150611dae565b634e487b7160e01b8d52604160045260248dfd5b9a505f611bcf565b925050506020813d602011611e23575b81611e0b602093836122bd565b81010312611e1f575188908a611b97611b77565b8980fd5b3d9150611dfe565b6040513d8c823e3d90fd5b610d7e9150863d88116108265761081881836122bd565b50346101fa5760203660031901126101fa57611e9d602091600661087d6001604060043594858152848852611e90828220600761087d866002840154930161289c565b958152848852200161289c565b604051908152f35b50346101fa57611eb436612448565b90604051908051906020810191611ecc818585612393565b8301858152839003602001909220546001600160a01b03929083163303611f2457611f0591602091604051938492839251928391612393565b81018681520301902080546001600160a01b0319169190921617905580f35b60405162461bcd60e51b815260206004820152602760248201527f55736572206973206e6f7420746865206f776e6572206f66207468697320636f6044820152666d6d756e69747960c81b6064820152608490fd5b50346101fa5760203660031901126101fa576004356001600160401b0381116104c657602061012092611fb3611fc79336906004016123d9565b908260405194838680955193849201612393565b82019081520301902060018060a01b0380825416916001810154916002820154906003830154906004840154906005850154169160068501549360ff600860078801549701541696604051988952602089015260408801526060870152608086015260a085015260c084015260e08301521515610100820152f35b50346101fa5760203660031901126101fa5761205c612432565b6009546001600160a01b03919061207690831633146129de565b1660018060a01b0319600c541617600c5580f35b50346101fa5760203660031901126101fa576120b160018060a01b036009541633146129de565b6004358152600660205260408120600a01805460ff1916905580f35b50346101fa5760203660031901126101fa576004356001548110156104c6576120f590612489565b91909161211c5761104a612108836122f2565b6040519182916020835260208301906123b4565b634e487b7160e01b81526004819052602490fd5b50346101fa57602080809261218161214736612448565b9490604051938151916104a184820193612162818987612393565b87018381528760018060a01b03998a998a930301902054161515612a23565b8201908152030190205416906040519216148152f35b50346101fa57806003193601126101fa57600b546040516001600160a01b039091168152602090f35b50346101fa5760203660031901126101fa57600435815260066020526040902080546001600160a01b03166121f7600183016122f2565b9160ff60028201549160038101549060048101546005820154600683015490600784015492600a6008860154950154956122456040519b8c9b8c5260208c61016091829101528c01906123b4565b9860408b015260608a0152608089015260a088015260c087015260e0860152610100850152818116151561012085015260081c1615156101408301520390f35b90600182811c921680156122b3575b602083101461229f57565b634e487b7160e01b5f52602260045260245ffd5b91607f1691612294565b90601f801991011681019081106001600160401b038211176122de57604052565b634e487b7160e01b5f52604160045260245ffd5b9060405191825f82549261230584612285565b9081845260019485811690815f146123705750600114612330575b505061232e925003836122bd565b565b909391505f52602090815f20935f915b81831061235857505061232e93508201015f80612320565b85548884018501529485019487945091830191612340565b91505061232e94506020925060ff191682840152151560051b8201015f80612320565b5f5b8381106123a45750505f910152565b8181015183820152602001612395565b906020916123cd81518092818552858086019101612393565b601f01601f1916010190565b81601f8201121561242e578035906001600160401b0382116122de576040519261240d601f8401601f1916602001856122bd565b8284526020838301011161242e57815f926020809301838601378301015290565b5f80fd5b600435906001600160a01b038216820361242e57565b604060031982011261242e57600435906001600160401b03821161242e57612472916004016123d9565b906024356001600160a01b038116810361242e5790565b6001548110156124a15760015f5260205f2001905f90565b634e487b7160e01b5f52603260045260245ffd5b80548210156124a1575f5260205f2001905f90565b61012060031982011261242e57600435906001600160401b03821161242e576124f5916004016123d9565b906024359060443590606435906084359060a4356001600160a01b038116810361242e579060c4359060e4359061010435801515810361242e5790565b969390989794919260e0969361010089019a895260208901526040880152606087015260018060a01b0316608086015260a085015260c08401521515910152565b91909182516001600160401b0381116122de576125908254612285565b601f8111612634575b50602080601f83116001146125d45750819293945f926125c9575b50508160011b915f199060031b1c1916179055565b015190505f806125b4565b90601f19831695845f52825f20925f905b88821061261c57505083600195969710612604575b505050811b019055565b01515f1960f88460031b161c191690555f80806125fa565b806001859682949686015181550195019301906125e5565b5f83815260208120601f840160051c81019260208510612671575b601f0160051c01915b828110612666575050612599565b818155600101612658565b909250829061264f565b61269390602060405192828480945193849201612393565b810103902090565b156126a257565b60405162461bcd60e51b815260206004820152601760248201527610dbdb5b5d5b9a5d1e48191bd95cdb89dd08195e1a5cdd604a1b6044820152606490fd5b156126e857565b60405162461bcd60e51b815260206004820152603960248201527f5573657220686173204f70656e205265766965772c20506c65617365207761696044820152783a103ab73a34b6361034ba1034b990383937b1b2b9b9b2b21760391b6064820152608490fd5b9081602091031261242e5751801515810361242e5790565b6001600160a01b039091168152604060208201819052612789929101906123b4565b90565b1561279357565b60405162461bcd60e51b815260206004820152602860248201527f596f7520617265206e6f742061206d656d62657220666f72207468697320636f60448201526736b6bab734ba3c9760c11b6064820152608490fd5b156127f057565b60405162461bcd60e51b815260206004820152601e60248201527f496e73756666696369656e7420637265647320746f2070726f706f73652e00006044820152606490fd5b1561283c57565b60405162461bcd60e51b81526020600482015260166024820152754d7573742073656e642070726f706f73616c2066656560501b6044820152606490fd5b5f1981146128885760010190565b634e487b7160e01b5f52601160045260245ffd5b60405190815f82546128ad81612285565b9360019180831690811561290e57506001146128d4575b5050602092505f81520301902090565b9091505f52602090815f20905f915b8583106128fa575050505060209181015f806128c4565b8054878401528694509183019181016128e3565b92505050602093915060ff191682528015150281015f806128c4565b9190820180921161288857565b919060018060a01b031682526020916040838201525f92825461295981612285565b9384604085015260019182811690815f146129b9575060011461297f575b505050505090565b5f908152828120949550935b8585106129a5575050506060925001015f80808080612977565b80548585016060015293820193810161298b565b93505050506060935060ff929192191683830152151560051b01015f80808080612977565b156129e557565b60405162461bcd60e51b81526020600482015260166024820152752737ba103a34329031b7b73a3930b1ba1037bbb732b960511b6044820152606490fd5b15612a2a57565b60405162461bcd60e51b815260206004820152601960248201527810dbdb5b5d5b9a5d1e48111bd95cc8139bdd08115e1cda5cdd603a1b6044820152606490fd5b6001600160401b0381116122de5760051b6020019056fea2646970667358221220434f4c8a3345491994be8e656e12b2c97ed906033def80b23e83a680c4bdea3864736f6c63430008140033",
  "linkReferences": {},
  "deployedLinkReferences": {}
}