{
  "_format": "hh-sol-artifact-1",
  "contractName": "MOCKFundContract",
  "sourceName": "contracts/MOCKFundContract.sol",
  "abi": [
    {
      "inputs": [
        {
          "internalType": "address",
          "name": "_contractAddress",
          "type": "address"
        }
      ],
      "name": "fundUpkeep",
      "outputs": [
        {
          "internalType": "bool",
          "name": "",
          "type": "bool"
        }
      ],
      "stateMutability": "payable",
      "type": "function"
    }
  ],
  "bytecode": "0x6080806040523460145760b490816100198239f35b5f80fdfe60808060405260043610156011575f80fd5b5f3560e01c637bcab33a146023575f80fd5b6020366003190112605057600435906001600160a01b0382168203605057604a6020926054565b15158152f35b5f80fd5b3415908115606b575b50156066575f90565b600190565b6001600160a01b031633141590505f605d56fea264697066735822122084831223c6bf50e00183c8889d46d8a7ceba709a9e723c7e8756a976970487e264736f6c63430008140033",
  "linkReferences": {},
  "deployedLinkReferences": {}
}