{
  "_format": "hh-sol-artifact-1",
  "contractName": "tgetherParameterGroupRegistry",
  "sourceName": "contracts/tgetherParameterGroupRegistry.sol",
  "abi": [
    {
      "inputs": [],
      "stateMutability": "nonpayable",
      "type": "constructor"
    },
    {
      "anonymous": false,
      "inputs": [
        {
          "indexed": false,
          "internalType": "string",
          "name": "name",
          "type": "string"
        },
        {
          "indexed": false,
          "internalType": "address",
          "name": "oldAddress",
          "type": "address"
        },
        {
          "indexed": false,
          "internalType": "address",
          "name": "newAddress",
          "type": "address"
        }
      ],
      "name": "ContractAddressUpdated",
      "type": "event"
    },
    {
      "anonymous": false,
      "inputs": [
        {
          "indexed": false,
          "internalType": "string",
          "name": "name",
          "type": "string"
        },
        {
          "indexed": false,
          "internalType": "uint256",
          "name": "newCount",
          "type": "uint256"
        }
      ],
      "name": "EnrollmentCountUpdated",
      "type": "event"
    },
    {
      "anonymous": false,
      "inputs": [
        {
          "indexed": false,
          "internalType": "string",
          "name": "name",
          "type": "string"
        },
        {
          "indexed": false,
          "internalType": "address",
          "name": "oldOwner",
          "type": "address"
        },
        {
          "indexed": false,
          "internalType": "address",
          "name": "newOwner",
          "type": "address"
        }
      ],
      "name": "OwnerUpdated",
      "type": "event"
    },
    {
      "anonymous": false,
      "inputs": [
        {
          "indexed": true,
          "internalType": "string",
          "name": "name",
          "type": "string"
        },
        {
          "indexed": true,
          "internalType": "address",
          "name": "contractAddress",
          "type": "address"
        },
        {
          "indexed": false,
          "internalType": "address",
          "name": "owner",
          "type": "address"
        },
        {
          "indexed": false,
          "internalType": "string",
          "name": "description",
          "type": "string"
        },
        {
          "indexed": true,
          "internalType": "uint256",
          "name": "id",
          "type": "uint256"
        }
      ],
      "name": "ParameterGroupRegistered",
      "type": "event"
    },
    {
      "inputs": [],
      "name": "communityEnrollmentContract",
      "outputs": [
        {
          "internalType": "address",
          "name": "",
          "type": "address"
        }
      ],
      "stateMutability": "view",
      "type": "function"
    },
    {
      "inputs": [
        {
          "internalType": "string",
          "name": "_name",
          "type": "string"
        }
      ],
      "name": "decrementEnrollmentCount",
      "outputs": [],
      "stateMutability": "nonpayable",
      "type": "function"
    },
    {
      "inputs": [
        {
          "internalType": "string",
          "name": "_name",
          "type": "string"
        },
        {
          "internalType": "address",
          "name": "_contractAddress",
          "type": "address"
        },
        {
          "internalType": "string",
          "name": "_encodedABI",
          "type": "string"
        },
        {
          "internalType": "string",
          "name": "_description",
          "type": "string"
        }
      ],
      "name": "editParameterGroup",
      "outputs": [],
      "stateMutability": "nonpayable",
      "type": "function"
    },
    {
      "inputs": [
        {
          "internalType": "address",
          "name": "_contractAddress",
          "type": "address"
        }
      ],
      "name": "getParameterGroupByAddress",
      "outputs": [
        {
          "components": [
            {
              "internalType": "string",
              "name": "name",
              "type": "string"
            },
            {
              "internalType": "address",
              "name": "contractAddress",
              "type": "address"
            },
            {
              "internalType": "string",
              "name": "encodedABI",
              "type": "string"
            },
            {
              "internalType": "string",
              "name": "description",
              "type": "string"
            },
            {
              "internalType": "address",
              "name": "owner",
              "type": "address"
            },
            {
              "internalType": "uint256",
              "name": "enrollmentCount",
              "type": "uint256"
            },
            {
              "internalType": "uint256",
              "name": "id",
              "type": "uint256"
            }
          ],
          "internalType": "struct tgetherParameterGroupRegistry.ParameterGroup",
          "name": "",
          "type": "tuple"
        }
      ],
      "stateMutability": "view",
      "type": "function"
    },
    {
      "inputs": [
        {
          "internalType": "string",
          "name": "_name",
          "type": "string"
        }
      ],
      "name": "getParameterGroupExists",
      "outputs": [
        {
          "internalType": "bool",
          "name": "",
          "type": "bool"
        }
      ],
      "stateMutability": "view",
      "type": "function"
    },
    {
      "inputs": [
        {
          "internalType": "uint256",
          "name": "_amt",
          "type": "uint256"
        },
        {
          "internalType": "uint256",
          "name": "_pageNum",
          "type": "uint256"
        }
      ],
      "name": "getParameterGroupNamesPaginated",
      "outputs": [
        {
          "internalType": "string[]",
          "name": "",
          "type": "string[]"
        }
      ],
      "stateMutability": "view",
      "type": "function"
    },
    {
      "inputs": [
        {
          "internalType": "string",
          "name": "_name",
          "type": "string"
        }
      ],
      "name": "incrementEnrollmentCount",
      "outputs": [],
      "stateMutability": "nonpayable",
      "type": "function"
    },
    {
      "inputs": [],
      "name": "owner",
      "outputs": [
        {
          "internalType": "address",
          "name": "",
          "type": "address"
        }
      ],
      "stateMutability": "view",
      "type": "function"
    },
    {
      "inputs": [],
      "name": "parameterGroupCount",
      "outputs": [
        {
          "internalType": "uint256",
          "name": "",
          "type": "uint256"
        }
      ],
      "stateMutability": "view",
      "type": "function"
    },
    {
      "inputs": [
        {
          "internalType": "uint256",
          "name": "",
          "type": "uint256"
        }
      ],
      "name": "parameterGroupIds",
      "outputs": [
        {
          "internalType": "string",
          "name": "",
          "type": "string"
        }
      ],
      "stateMutability": "view",
      "type": "function"
    },
    {
      "inputs": [
        {
          "internalType": "address",
          "name": "",
          "type": "address"
        }
      ],
      "name": "parameterGroupNamesByAddress",
      "outputs": [
        {
          "internalType": "string",
          "name": "",
          "type": "string"
        }
      ],
      "stateMutability": "view",
      "type": "function"
    },
    {
      "inputs": [
        {
          "internalType": "uint256",
          "name": "",
          "type": "uint256"
        }
      ],
      "name": "parameterGroupNamesById",
      "outputs": [
        {
          "internalType": "string",
          "name": "",
          "type": "string"
        }
      ],
      "stateMutability": "view",
      "type": "function"
    },
    {
      "inputs": [
        {
          "internalType": "string",
          "name": "",
          "type": "string"
        }
      ],
      "name": "parameterGroupsByName",
      "outputs": [
        {
          "internalType": "string",
          "name": "name",
          "type": "string"
        },
        {
          "internalType": "address",
          "name": "contractAddress",
          "type": "address"
        },
        {
          "internalType": "string",
          "name": "encodedABI",
          "type": "string"
        },
        {
          "internalType": "string",
          "name": "description",
          "type": "string"
        },
        {
          "internalType": "address",
          "name": "owner",
          "type": "address"
        },
        {
          "internalType": "uint256",
          "name": "enrollmentCount",
          "type": "uint256"
        },
        {
          "internalType": "uint256",
          "name": "id",
          "type": "uint256"
        }
      ],
      "stateMutability": "view",
      "type": "function"
    },
    {
      "inputs": [
        {
          "internalType": "string",
          "name": "_name",
          "type": "string"
        },
        {
          "internalType": "address",
          "name": "_contractAddress",
          "type": "address"
        },
        {
          "internalType": "string",
          "name": "_encodedABI",
          "type": "string"
        },
        {
          "internalType": "string",
          "name": "_description",
          "type": "string"
        }
      ],
      "name": "registerParameterGroup",
      "outputs": [],
      "stateMutability": "nonpayable",
      "type": "function"
    },
    {
      "inputs": [
        {
          "internalType": "address",
          "name": "_address",
          "type": "address"
        }
      ],
      "name": "setCommunityEnrollmentContract",
      "outputs": [],
      "stateMutability": "nonpayable",
      "type": "function"
    },
    {
      "inputs": [
        {
          "internalType": "string",
          "name": "_name",
          "type": "string"
        },
        {
          "internalType": "address",
          "name": "_newAddress",
          "type": "address"
        }
      ],
      "name": "updateContractAddress",
      "outputs": [],
      "stateMutability": "nonpayable",
      "type": "function"
    },
    {
      "inputs": [
        {
          "internalType": "string",
          "name": "_name",
          "type": "string"
        },
        {
          "internalType": "address",
          "name": "_newOwner",
          "type": "address"
        }
      ],
      "name": "updateOwner",
      "outputs": [],
      "stateMutability": "nonpayable",
      "type": "function"
    }
  ],
  "bytecode": "0x6080806040523461002d57600680546001600160a01b03191633179055600160045561159490816100328239f35b5f80fdfe60406080815260049081361015610014575f80fd5b5f803560e01c8063260118cd14610f315780632a4d8c2a14610dcf57806334581e9914610d6957806338aed2f714610bdd5780636fdf4b1414610bbf5780637bee5d131461093e578063887e5f48146109035780638da5cb5b146108da5780639cbc90e614610892578063a212f60114610869578063b319692f14610783578063b58b125a146106ba578063d9d0bc8b1461054e578063ddc67cf5146103b8578063df22d38a14610239578063e39d22dc146101425763fbd61666146100d8575f80fd5b3461013f57602036600319011261013f57823560035481101561013b576100fe906111ec565b939093610129576101258361011286610fe3565b90519182916020835260208301906110a5565b0390f35b634e487b7160e01b8252819052602490fd5b5080fd5b80fd5b50823461013b5761015236611139565b845160208184516101668183858901611084565b81018781520301902060018101546001600160a01b0391859161018c9084161515611454565b0190815490808216953387036101ea57506001600160a01b0319909116908316179055935192937f7d19f93590534d2cce4c1a78a48b1dc4501feeff13106aee90fbb77b5abe8d0a939283926101e4929190846114a0565b0390a180f35b60849060208a519162461bcd60e51b8352820152602360248201527f4f6e6c7920746865206f776e65722063616e20757064617465206f776e65727360448201526206869760ec1b6064820152fd5b509190346103b45761024a3661117a565b9193929460018060a01b0390610265826006541633146114cf565b866102978360018b60208a51809282885198019761028481848b611084565b8201908152030190200154161515611454565b855183838a516102a8818587611084565b8301928c84526020813395030190200154160361035d5760067f9a52091f0c1324342293a52b987697d1afef630b68b88fa5cb95f4843e048b1495949361035793610332610307602061034c968f8f8e51948593849251928391611084565b8201908152030190206001810180546001600160a01b0319169c85169c8d17905596600288016112a8565b61033f87600388016112a8565b85015416930154976113a4565b9451928392836113c4565b0390a480f35b855162461bcd60e51b8152602081840152602b60248201527f4f6e6c7920746865206f776e65722063616e206564697420746865207061726160448201526a06d657465722067726f75760ac1b6064820152608490fd5b8280fd5b50903461013b57602090816003193601126103b45783356001600160401b03811161054a576103ea90369086016110ca565b9160018060a01b03610401816005541633146113e6565b61043083519160018651938581818a019661041d81838a611084565b81018b8152030190200154161515611454565b6005835183818751610443818388611084565b8101898152030190200154156104f5576005835183818751610466818388611084565b81018981520301902001805480156104e2575f19019055825184519596507fb5d6d4f279e94103034092b974c0c4f6fb820ec2abe1fd65563515167b882d8b95600592849183916104ba9082908490611084565b81018981520301902001546104d883519484869586528501906110a5565b918301520390a180f35b634e487b7160e01b875260118852602487fd5b825162461bcd60e51b8152808701839052602960248201527f456e726f6c6c6d656e7420636f756e742063616e6e6f74206265206c657373206044820152687468616e207a65726f60b81b6064820152608490fd5b8380fd5b50823461013b57602092836003193601126103b45761056b611123565b848083519561057987610f93565b806060978881528184820152888782015288808201528160808201528160a082015260c00152600160a01b600190038094168152600282528481206105bd90610fe3565b90855193848381945192839101916105d492611084565b820190815203019020908251946105ea86610f93565b6105f383610fe3565b8652600183015482168787019081529461060f60028501610fe3565b878601908152958361062360038701610fe3565b92848a0193845286015416966080890197885260058601549560a08a01968752600601549660c08a019788528581519b8c9b818d5251908c0160e090526101008c0161066e916110a5565b935116908a01525190601f1993848a830301908a015261068d916110a5565b9051918782030160808801526106a2916110a5565b93511660a08501525160c08401525160e08301520390f35b509190346103b4576020908160031936011261054a5782356001600160401b03811161077f577fb5d6d4f279e94103034092b974c0c4f6fb820ec2abe1fd65563515167b882d8b9361070e913691016110ca565b9160056104ba828561074760018060a01b0361072e8187541633146113e6565b60018b858a51809282885198019761028481848b611084565b83865183818a51610759818388611084565b81018d8152030190200161076d8154611270565b90558551809381928951928391611084565b8480fd5b5091346103b45760203660031901126103b45780356001600160401b03811161054a576020610835946107bc6107cf93369086016110ca565b9082865194838680955193849201611084565b820190815203019020916107e283610fe3565b9261085560018060a01b03936108478560018501541661080460028601610fe3565b9661081160038701610fe3565b938601541696600660058701549601549680519a8b9a60e08c5260e08c01906110a5565b9260208b0152898303908a01526110a5565b9086820360608801526110a5565b92608085015260a084015260c08301520390f35b50903461013b578160031936011261013b5760055490516001600160a01b039091168152602090f35b503461013f57602036600319011261013f576108ac611123565b6006546001600160a01b0391906108c690831633146114cf565b1660018060a01b0319600554161760055580f35b50903461013b578160031936011261013b5760065490516001600160a01b039091168152602090f35b50903461013b57602036600319011261013b57610125916101129082906001600160a01b03610930611123565b168152600260205220610fe3565b5091346103b45761094e3661117a565b91839195935115610b7057835194825160209283850191610970818a85611084565b88018a81528890038401909720600101546001600160a01b0397908816610b2d57871696878a5260028452868a20546109a890610f5b565b156109b290611218565b868a84549a8b936109c285611270565b87558351956109d087610f93565b898752888701928d845285880190815260608801918c83528a8c60808b019733895260a08c0199818b5260c08d019b8c525180948193518092610a1292611084565b8201908152030190209751610a2790896112a8565b92516001880180549184166001600160a01b03199283161790559251610a5090600289016112a8565b51610a5e90600388016112a8565b86860192511690825416179055516005830155519060060155600354600160401b811015610b1a57806001610a9692016003556111ec565b919091610b0857508260027f9a52091f0c1324342293a52b987697d1afef630b68b88fa5cb95f4843e048b149593610ad461035796610afc956112a8565b898b5260018152610ae783898d206112a8565b888b5252610af781878b206112a8565b6113a4565b935191829133836113c4565b634e487b7160e01b8952889052602488fd5b634e487b7160e01b895260418252602489fd5b865162461bcd60e51b8152808401859052601e60248201527f506172616d657465722067726f757020616c72656164792065786973747300006044820152606490fd5b835162461bcd60e51b81526020818701526024808201527f506172616d657465722067726f7570206e616d652063616e6e6f7420626520656044820152636d70747960e01b6064820152608490fd5b5091346103b457826003193601126103b45760209250549051908152f35b50823461013b57610bed36611139565b845180835160209281610c04859383858a01611084565b810188815203019020936001850180549160018060a01b0390818181861699610c2e8b1515611454565b0154163303610d0f5750928798927fa90fb318cef160851f542872dfce25dadafdfde152ba8cc05e3f0b882842e53c989286956101e49716809281865260028552610c85610c7e88882054610f5b565b1515611218565b6001600160a01b031916179055825260028152828220610ca69087906112a8565b8682526002815282822090610cbb8254610f5b565b9081610cd0575b5050505051938493846114a0565b8390601f8311600114610ceb57505050555b86888080610cc2565b8382528120929091610d0890601f0160051c840160018501611292565b5555610ce2565b895162461bcd60e51b8152908101859052602e60248201527f4f6e6c7920746865206f776e65722063616e207570646174652074686520636f60448201526d6e7472616374206164647265737360901b6064820152608490fd5b5091346103b45760203660031901126103b45780356001600160401b03811161054a57610d9e602094926001923691016110ca565b84610db185519283815193849201611084565b81019283528481838060a01b03940301902001541615159051908152f35b50823461013b578260031936011261013b5780359060243591828102928184041481151715610f1e57820190818311610f0b5750600354808211610f03575b50610e198282611526565b91610e2383611533565b92610e3086519485610fc2565b808452610e3f601f1991611533565b01845b818110610ef2575050805b828110610eb257505050825191602080840190808552835180925280868601968360051b870101940192955b828710610e865785850386f35b909192938280610ea2600193603f198a820301865288516110a5565b9601920196019592919092610e79565b80610ee7610ec2610eed936111ec565b50610ed6610ed08685611526565b91610fe3565b610ee0828961154a565b528661154a565b50611270565b610e4d565b806060602080938801015201610e42565b905084610e0e565b634e487b7160e01b845260119052602483fd5b634e487b7160e01b845260118252602484fd5b5091346103b45760203660031901126103b457816101259361011292358152600160205220610fe3565b90600182811c92168015610f89575b6020831014610f7557565b634e487b7160e01b5f52602260045260245ffd5b91607f1691610f6a565b60e081019081106001600160401b03821117610fae57604052565b634e487b7160e01b5f52604160045260245ffd5b90601f801991011681019081106001600160401b03821117610fae57604052565b9060405191825f825492610ff684610f5b565b9081845260019485811690815f146110615750600114611021575b505061101f92500383610fc2565b565b909391505f52602090815f20935f915b81831061104957505061101f93508201015f80611011565b85548884018501529485019487945091830191611031565b91505061101f94506020925060ff191682840152151560051b8201015f80611011565b5f5b8381106110955750505f910152565b8181015183820152602001611086565b906020916110be81518092818552858086019101611084565b601f01601f1916010190565b81601f8201121561111f578035906001600160401b038211610fae57604051926110fe601f8401601f191660200185610fc2565b8284526020838301011161111f57815f926020809301838601378301015290565b5f80fd5b600435906001600160a01b038216820361111f57565b604060031982011261111f57600435906001600160401b03821161111f57611163916004016110ca565b906024356001600160a01b038116810361111f5790565b608060031982011261111f576001600160401b039060043582811161111f57816111a6916004016110ca565b926024356001600160a01b038116810361111f579260443581811161111f57836111d2916004016110ca565b9260643591821161111f576111e9916004016110ca565b90565b6003548110156112045760035f5260205f2001905f90565b634e487b7160e01b5f52603260045260245ffd5b1561121f57565b60405162461bcd60e51b815260206004820152602360248201527f436f6e7472616374206164647265737320616c726561647920726567697374656044820152621c995960ea1b6064820152608490fd5b5f19811461127e5760010190565b634e487b7160e01b5f52601160045260245ffd5b81811061129d575050565b5f8155600101611292565b91909182516001600160401b038111610fae576112c58254610f5b565b601f8111611369575b50602080601f83116001146113095750819293945f926112fe575b50508160011b915f199060031b1c1916179055565b015190505f806112e9565b90601f19831695845f52825f20925f905b88821061135157505083600195969710611339575b505050811b019055565b01515f1960f88460031b161c191690555f808061132f565b8060018596829496860151815501950193019061131a565b61139490835f5260205f20601f840160051c8101916020851061139a575b601f0160051c0190611292565b5f6112ce565b9091508190611387565b6113bc90602060405192828480945193849201611084565b810103902090565b6001600160a01b0390911681526040602082018190526111e9929101906110a5565b156113ed57565b60405162461bcd60e51b815260206004820152603960248201527f4f6e6c7920436f6d6d756e697479456e726f6c6c6d656e7420636f6e747261636044820152783a1031b0b7103832b93337b936903a3434b99030b1ba34b7b760391b6064820152608490fd5b1561145b57565b60405162461bcd60e51b815260206004820152601e60248201527f506172616d657465722067726f757020646f6573206e6f7420657869737400006044820152606490fd5b916114b86040929594956060855260608501906110a5565b6001600160a01b0391821660208501529416910152565b156114d657565b60405162461bcd60e51b815260206004820152602260248201527f4f6e6c79206f776e65722063616e20706572666f726d2074686973206163746960448201526137b760f11b6064820152608490fd5b9190820391821161127e57565b6001600160401b038111610fae5760051b60200190565b80518210156112045760209160051b01019056fea2646970667358221220f0f7451734da1c7dee8a6c3c1d249d56d42ac2be6353de6eb924c988aec9f30e64736f6c63430008140033",
  "linkReferences": {},
  "deployedLinkReferences": {}
}