{
  "_format": "hh-sol-artifact-1",
  "contractName": "CommunitiesLane",
  "sourceName": "contracts/CommuntiesLane.sol",
  "abi": [
    {
      "inputs": [
        {
          "internalType": "address",
          "name": "_fundContractAddress",
          "type": "address"
        },
        {
          "internalType": "address",
          "name": "_communitiesContractAddress",
          "type": "address"
        },
        {
          "internalType": "address",
          "name": "_laneRegistryContract",
          "type": "address"
        }
      ],
      "stateMutability": "nonpayable",
      "type": "constructor"
    },
    {
      "anonymous": false,
      "inputs": [
        {
          "indexed": false,
          "internalType": "uint256",
          "name": "proposalId",
          "type": "uint256"
        },
        {
          "indexed": false,
          "internalType": "uint256",
          "name": "newIndex",
          "type": "uint256"
        }
      ],
      "name": "IndexChange",
      "type": "event"
    },
    {
      "anonymous": false,
      "inputs": [
        {
          "indexed": false,
          "internalType": "uint256",
          "name": "proposalId",
          "type": "uint256"
        }
      ],
      "name": "ProposalRemoved",
      "type": "event"
    },
    {
      "inputs": [
        {
          "internalType": "uint256",
          "name": "proposalId",
          "type": "uint256"
        }
      ],
      "name": "appendToLane",
      "outputs": [
        {
          "internalType": "uint256",
          "name": "",
          "type": "uint256"
        }
      ],
      "stateMutability": "payable",
      "type": "function"
    },
    {
      "inputs": [
        {
          "internalType": "bytes",
          "name": "",
          "type": "bytes"
        }
      ],
      "name": "checkUpkeep",
      "outputs": [
        {
          "internalType": "bool",
          "name": "upkeepNeeded",
          "type": "bool"
        },
        {
          "internalType": "bytes",
          "name": "performData",
          "type": "bytes"
        }
      ],
      "stateMutability": "view",
      "type": "function"
    },
    {
      "inputs": [],
      "name": "communitiesContract",
      "outputs": [
        {
          "internalType": "address",
          "name": "",
          "type": "address"
        }
      ],
      "stateMutability": "view",
      "type": "function"
    },
    {
      "inputs": [],
      "name": "fundContract",
      "outputs": [
        {
          "internalType": "contract FundContract",
          "name": "",
          "type": "address"
        }
      ],
      "stateMutability": "view",
      "type": "function"
    },
    {
      "inputs": [
        {
          "internalType": "uint256",
          "name": "index",
          "type": "uint256"
        }
      ],
      "name": "getProposalByIndex",
      "outputs": [
        {
          "internalType": "uint256",
          "name": "",
          "type": "uint256"
        }
      ],
      "stateMutability": "view",
      "type": "function"
    },
    {
      "inputs": [],
      "name": "getProposalCount",
      "outputs": [
        {
          "internalType": "uint256",
          "name": "",
          "type": "uint256"
        }
      ],
      "stateMutability": "view",
      "type": "function"
    },
    {
      "inputs": [
        {
          "internalType": "uint256",
          "name": "proposalId",
          "type": "uint256"
        }
      ],
      "name": "getProposalIndex",
      "outputs": [
        {
          "internalType": "uint256",
          "name": "",
          "type": "uint256"
        }
      ],
      "stateMutability": "view",
      "type": "function"
    },
    {
      "inputs": [],
      "name": "laneId",
      "outputs": [
        {
          "internalType": "uint256",
          "name": "",
          "type": "uint256"
        }
      ],
      "stateMutability": "view",
      "type": "function"
    },
    {
      "inputs": [],
      "name": "laneRegistryContract",
      "outputs": [
        {
          "internalType": "address",
          "name": "",
          "type": "address"
        }
      ],
      "stateMutability": "view",
      "type": "function"
    },
    {
      "inputs": [],
      "name": "owner",
      "outputs": [
        {
          "internalType": "address",
          "name": "",
          "type": "address"
        }
      ],
      "stateMutability": "view",
      "type": "function"
    },
    {
      "inputs": [
        {
          "internalType": "bytes",
          "name": "_performData",
          "type": "bytes"
        }
      ],
      "name": "performUpkeep",
      "outputs": [],
      "stateMutability": "nonpayable",
      "type": "function"
    },
    {
      "inputs": [
        {
          "internalType": "uint256",
          "name": "",
          "type": "uint256"
        }
      ],
      "name": "proposalIndex",
      "outputs": [
        {
          "internalType": "uint256",
          "name": "",
          "type": "uint256"
        }
      ],
      "stateMutability": "view",
      "type": "function"
    },
    {
      "inputs": [
        {
          "internalType": "uint256",
          "name": "",
          "type": "uint256"
        }
      ],
      "name": "proposals",
      "outputs": [
        {
          "internalType": "uint256",
          "name": "",
          "type": "uint256"
        }
      ],
      "stateMutability": "view",
      "type": "function"
    },
    {
      "inputs": [],
      "name": "registry",
      "outputs": [
        {
          "internalType": "address",
          "name": "",
          "type": "address"
        }
      ],
      "stateMutability": "view",
      "type": "function"
    },
    {
      "inputs": [
        {
          "internalType": "uint256",
          "name": "proposalId",
          "type": "uint256"
        }
      ],
      "name": "removeProposal",
      "outputs": [],
      "stateMutability": "nonpayable",
      "type": "function"
    },
    {
      "inputs": [
        {
          "internalType": "address",
          "name": "_fundContractAddress",
          "type": "address"
        }
      ],
      "name": "setFundContract",
      "outputs": [],
      "stateMutability": "nonpayable",
      "type": "function"
    },
    {
      "inputs": [
        {
          "internalType": "address",
          "name": "_registry",
          "type": "address"
        }
      ],
      "name": "setRegistry",
      "outputs": [],
      "stateMutability": "nonpayable",
      "type": "function"
    }
  ],
  "bytecode": "0x6080806040523461010657606081610c79803803809161001f828561010a565b833981010312610106576020816100365f93610141565b9061004e6040610047858401610141565b9201610141565b60018060a01b0319913383600254161760025560018060a01b0391828092168460045416176004551692838360055416176005551690600754161760075560246040518094819362034db960e61b83523060048401525af19081156100fb575f916100c7575b50600655604051610b2390816101568239f35b906020823d82116100f3575b816100e06020938361010a565b810103126100f05750515f6100b4565b80fd5b3d91506100d3565b6040513d5f823e3d90fd5b5f80fd5b601f909101601f19168101906001600160401b0382119082101761012d57604052565b634e487b7160e01b5f52604160045260245ffd5b51906001600160a01b03821682036101065756fe60406080815260049081361015610014575f80fd5b5f91823560e01c908163013cf08b14610812578163362681e9146107ea57816337d1d3891461077e5781633eab6bac146107555781634585e33b1461064c5781634ce4e6c7146105cb57816359144baa1461057e5781635c61c853146105275781636e04ff0d1461039c5781637b103999146103735781638da5cb5b1461034a578163a91ee0dc146102fd578163a993983b1461016c578163b14af44d1461014057508063bd097e2114610118578063c08cc02d146100fc5763da5c2dfc146100db575f80fd5b346100f857816003193601126100f8576020906006549051908152f35b5080fd5b50346100f857816003193601126100f857602091549051908152f35b50346100f857816003193601126100f85760075490516001600160a01b039091168152602090f35b9050346101685782600319360112610168575490516001600160a01b03909116815260209150f35b8280fd5b8284602092836003193601126100f8576005548135906001600160a01b0390811633036102c7578560249160075416865192838092633de5599d60e11b8252308883015234905af19081156102bd578491610283575b5015610248578254600160401b81101561023557816101e982600161020194018755610838565b90919082549060031b91821b915f19901b1916179055565b82545f19810192908311610222575082526001845282822055549051908152f35b634e487b7160e01b845260119052602483fd5b634e487b7160e01b845260418352602484fd5b835162461bcd60e51b81528083018690526015602482015274155c1ad9595c081c185e5b595b9d0819985a5b1959605a1b6044820152606490fd5b90508581813d83116102b6575b61029a8183610902565b810103126102b2575180151581036102b257866101c2565b8380fd5b503d610290565b85513d86823e3d90fd5b845162461bcd60e51b8152808401879052601060248201526f4e6f742074686520726567697374727960801b6044820152606490fd5b8390346100f85760203660031901126100f857356001600160a01b03818116918290036101685761033390600254163314610aa8565b600580546001600160a01b03191691909117905580f35b5050346100f857816003193601126100f85760025490516001600160a01b039091168152602090f35b5050346100f857816003193601126100f85760035490516001600160a01b039091168152602090f35b90508234610524576103ad3661088c565b505080548254919384928392906001600160a01b031683805b8381106104545750505050805192602095868501528584528184019484861067ffffffffffffffff8711176104415750848252151584526060830152815190816080840152805b82811061042d575082820160a00152601f01601f19168101036060019150f35b808691850160a0838201519101520161040d565b604190634e487b7160e01b5f525260245ffd5b61045d81610838565b90549060031b1c855190631798788360e11b8252808a8301526020918281602481895afa92831561051a5789936104e6575b505042821115806104d4575b6104c5575b50505f1981146104b2576001016103c6565b634e487b7160e01b865260118852602486fd5b995060019750915089806104a0565b50838211158061049b5750831561049b565b9080929350813d8311610513575b6104fe8183610902565b8101031261050f5751908b8061048f565b8780fd5b503d6104f4565b88513d8b823e3d90fd5b80fd5b8383346100f85760203660031901126100f857610560816020943593848152600186522054925f19841490811591610566575b50610924565b51908152f35b9050610570610864565b90549060031b1c148561055a565b8390346100f85760203660031901126100f857356001600160a01b0381811691829003610168576105b490600254163314610aa8565b600780546001600160a01b03191691909117905580f35b9190503461016857602036600319011261016857600254336001600160a01b039182161490811561063f575b501561060b5750610608903561096a565b80f35b906020606492519162461bcd60e51b8352820152600e60248201526d139bdd08185d5d1a1bdc9a5e995960921b6044820152fd5b905082541633145f6105f7565b839150346100f85761065d3661088c565b602082828197940103126102b25782546001600160a01b0391908216803b1561073257868691602083604489878a5198899788968794634585e33b60e01b8652850152816024850152848401378181018301849052601f01601f191681010301925af1801561074b57610736575b506106d784953561096a565b6005541691600654845493803b156107325785928360449286519788958694632e6cfb9160e11b865285015260248401525af190811561072957506107195750f35b610722906108da565b6105245780f35b513d84823e3d90fd5b8580fd5b936107446106d796956108da565b93946106cb565b83513d87823e3d90fd5b5050346100f857816003193601126100f85760055490516001600160a01b039091168152602090f35b839150346100f85760203660031901126100f857803591548210156107b7576020836107a984610838565b91905490519160031b1c8152f35b606490602084519162461bcd60e51b8352820152600d60248201526c092dcecc2d8d2c840d2dcc8caf609b1b6044820152fd5b9050346101685760203660031901126101685760209282913581526001845220549051908152f35b905034610168576020366003190112610168573591805483101561052457506107a96020925b905f9182548110156108505782805260208320019190565b634e487b7160e01b83526032600452602483fd5b5f9081541561087857818052602082209190565b634e487b7160e01b82526032600452602482fd5b9060206003198301126108d65760043567ffffffffffffffff928382116108d657806023830112156108d65781600401359384116108d657602484830101116108d6576024019190565b5f80fd5b67ffffffffffffffff81116108ee57604052565b634e487b7160e01b5f52604160045260245ffd5b90601f8019910116810190811067ffffffffffffffff8211176108ee57604052565b1561092b57565b60405162461bcd60e51b8152602060048201526017602482015276141c9bdc1bdcd85b08191bd95cc81b9bdd08195e1a5cdd604a1b6044820152606490fd5b5f818152600160205260408082205490915f1991828114801590610a8c575b61099290610924565b8154838101908111610a7857806109a98692610838565b90549060031b1c908303610a29575b50505080548015610a1557918360209492827fd412ca680e6dcd7bc731a6c8d9ad74bea65b8d0dd85d47d29377d99c53326cf79795016109f781610838565b8582549160031b1b19169055815584815260018652205551908152a1565b634e487b7160e01b82526031600452602482fd5b82610a58826101e97ff041f52db3fd2f56a979d9dd319aa6a6e399c198410349cf154eb4b4568d7daa96610838565b8185526001602052808386205582519182526020820152a15f83816109b8565b634e487b7160e01b83526011600452602483fd5b5061099285610a99610864565b90549060031b1c149050610989565b15610aaf57565b60405162461bcd60e51b81526020600482015260166024820152752737ba103a34329031b7b73a3930b1ba1037bbb732b960511b6044820152606490fdfea2646970667358221220f90e7dc3bc7de9a286856d197ffc36381fdad7e02d2e760966e79db1ba2be46664736f6c63430008140033",
  "linkReferences": {},
  "deployedLinkReferences": {}
}