{
  "_format": "hh-sol-artifact-1",
  "contractName": "tgetherFundTest",
  "sourceName": "contracts/testnetFundContract.sol",
  "abi": [
    {
      "inputs": [],
      "stateMutability": "nonpayable",
      "type": "constructor"
    },
    {
      "inputs": [],
      "name": "LINK",
      "outputs": [
        {
          "internalType": "contract IERC677",
          "name": "",
          "type": "address"
        }
      ],
      "stateMutability": "view",
      "type": "function"
    },
    {
      "inputs": [],
      "name": "checkBal",
      "outputs": [
        {
          "internalType": "uint256",
          "name": "",
          "type": "uint256"
        }
      ],
      "stateMutability": "view",
      "type": "function"
    },
    {
      "inputs": [
        {
          "internalType": "address",
          "name": "_contractAddress",
          "type": "address"
        }
      ],
      "name": "fundUpkeep",
      "outputs": [
        {
          "internalType": "bool",
          "name": "",
          "type": "bool"
        }
      ],
      "stateMutability": "payable",
      "type": "function"
    },
    {
      "inputs": [
        {
          "internalType": "address",
          "name": "_address",
          "type": "address"
        },
        {
          "internalType": "uint256",
          "name": "_upkeep",
          "type": "uint256"
        }
      ],
      "name": "setUpkeeps",
      "outputs": [],
      "stateMutability": "nonpayable",
      "type": "function"
    },
    {
      "inputs": [
        {
          "internalType": "address",
          "name": "_address",
          "type": "address"
        }
      ],
      "name": "updateRegistrar",
      "outputs": [],
      "stateMutability": "nonpayable",
      "type": "function"
    }
  ],
  "bytecode": "0x608080604052346100625760018060a01b031973b1d4538b4571d411f07960ef2838ce337fe1e80e815f5416175f55738194399b3f11fca2e8ccefc4c9a658c61b8bf412816001541617600155339060025416176002556104df90816100678239f35b5f80fdfe6080604081815260049182361015610015575f80fd5b5f92833560e01c9182631b6b6d23146103c6575081632058ad6b1461032b578163592b700a146102e05781637bcab33a146100a1575063f6fd54fe14610059575f80fd5b3461009d578060031936011261009d576100716103ea565b6002546001600160a01b03919061008b9083163314610452565b16825260036020526024359082205580f35b5080fd5b82846020928360031936011261009d576001600160a01b0391826100c36103ea565b169283825260038652848220541561029d578082541685516323b872dd60e01b8152328582015230602482015287816064818766470de4df820000968760448401525af1908115610293578491610266575b501561022c57818354169160015416948352600387528583205494865195888701528786528686019486861067ffffffffffffffff87111761021957509184918893838952630200057560e51b84526044880152606487015260606084870152838680518060a483015285835b8281106101fc57505080820160c401839052601f01601f1916810103608401918391905af19081156101f1575083906101c0575b5050505160018152f35b6101e09285903d87116101e9575b6101d88285610404565b01019061043a565b508280826101b6565b3d91506101ce565b8451903d90823e3d90fd5b9283018082015160c4909101528895508793508992879101610182565b634e487b7160e01b855260419052602484fd5b855162461bcd60e51b8152808501889052601460248201527313125392c81d1c985b9cd9995c8819985a5b195960621b6044820152606490fd5b6102869150883d8a1161028c575b61027e8183610404565b81019061043a565b88610115565b503d610274565b87513d86823e3d90fd5b845162461bcd60e51b8152808401879052601f60248201527f4e6f2075706b6565702073657420666f72207468697320636f6e7472616374006044820152606490fd5b8334610328576020366003190112610328576102fa6103ea565b6002546001600160a01b0391906103149083163314610452565b1660018060a01b0319600154161760015580f35b80fd5b919050346103b057826003193601126103b057825481516370a0823160e01b81523093810193909352602090839060249082906001600160a01b03165afa9182156103bc578392610381575b6020838351908152f35b9091506020813d82116103b4575b8161039c60209383610404565b810103126103b0576020925051905f610377565b8280fd5b3d915061038f565b81513d85823e3d90fd5b84903461009d578160031936011261009d5790546001600160a01b03168152602090f35b600435906001600160a01b038216820361040057565b5f80fd5b90601f8019910116810190811067ffffffffffffffff82111761042657604052565b634e487b7160e01b5f52604160045260245ffd5b90816020910312610400575180151581036104005790565b1561045957565b60405162461bcd60e51b815260206004820152602260248201527f4f6e6c79206f776e65722063616e20706572666f726d2074686973206163746960448201526137b760f11b6064820152608490fdfea2646970667358221220b87b2e3aec83630fb7caecd878fcafa0eddb8c3c8f4cbb5191dbe86b393bd36d64736f6c63430008140033",
  "linkReferences": {},
  "deployedLinkReferences": {}
}