{
  "_format": "hh-sol-artifact-1",
  "contractName": "learntgetherArticles",
  "sourceName": "contracts/learntgehterArticles.sol",
  "abi": [
    {
      "inputs": [
        {
          "internalType": "address",
          "name": "_SubjectsContract",
          "type": "address"
        },
        {
          "internalType": "address",
          "name": "_ReviewersContract",
          "type": "address"
        },
        {
          "internalType": "address",
          "name": "_automationContract",
          "type": "address"
        },
        {
          "internalType": "address",
          "name": "_linkTokenAddress",
          "type": "address"
        },
        {
          "internalType": "uint256",
          "name": "_fee",
          "type": "uint256"
        }
      ],
      "stateMutability": "nonpayable",
      "type": "constructor"
    },
    {
      "anonymous": false,
      "inputs": [
        {
          "indexed": false,
          "internalType": "uint256",
          "name": "articleId",
          "type": "uint256"
        },
        {
          "indexed": false,
          "internalType": "uint256",
          "name": "index",
          "type": "uint256"
        }
      ],
      "name": "ActiveReviewIndex",
      "type": "event"
    },
    {
      "anonymous": false,
      "inputs": [
        {
          "indexed": true,
          "internalType": "address",
          "name": "owner",
          "type": "address"
        },
        {
          "indexed": true,
          "internalType": "address",
          "name": "approved",
          "type": "address"
        },
        {
          "indexed": true,
          "internalType": "uint256",
          "name": "tokenId",
          "type": "uint256"
        }
      ],
      "name": "Approval",
      "type": "event"
    },
    {
      "anonymous": false,
      "inputs": [
        {
          "indexed": true,
          "internalType": "address",
          "name": "owner",
          "type": "address"
        },
        {
          "indexed": true,
          "internalType": "address",
          "name": "operator",
          "type": "address"
        },
        {
          "indexed": false,
          "internalType": "bool",
          "name": "approved",
          "type": "bool"
        }
      ],
      "name": "ApprovalForAll",
      "type": "event"
    },
    {
      "anonymous": false,
      "inputs": [
        {
          "indexed": true,
          "internalType": "uint256",
          "name": "articleId",
          "type": "uint256"
        },
        {
          "indexed": true,
          "internalType": "address",
          "name": "authorAddress",
          "type": "address"
        },
        {
          "indexed": false,
          "internalType": "string",
          "name": "authorName",
          "type": "string"
        },
        {
          "indexed": false,
          "internalType": "string",
          "name": "title",
          "type": "string"
        },
        {
          "indexed": false,
          "internalType": "string",
          "name": "subjectName",
          "type": "string"
        },
        {
          "indexed": false,
          "internalType": "string",
          "name": "consensousType",
          "type": "string"
        },
        {
          "indexed": false,
          "internalType": "string",
          "name": "ipfsHash",
          "type": "string"
        },
        {
          "indexed": false,
          "internalType": "string",
          "name": "description",
          "type": "string"
        }
      ],
      "name": "ArticleMinted",
      "type": "event"
    },
    {
      "anonymous": false,
      "inputs": [
        {
          "indexed": true,
          "internalType": "uint256",
          "name": "articleId",
          "type": "uint256"
        },
        {
          "indexed": false,
          "internalType": "string",
          "name": "newConsensus",
          "type": "string"
        }
      ],
      "name": "ConsensusUpdated",
      "type": "event"
    },
    {
      "anonymous": false,
      "inputs": [
        {
          "indexed": false,
          "internalType": "uint256",
          "name": "articleId",
          "type": "uint256"
        },
        {
          "indexed": false,
          "internalType": "string",
          "name": "keyword",
          "type": "string"
        }
      ],
      "name": "Keywords",
      "type": "event"
    },
    {
      "anonymous": false,
      "inputs": [
        {
          "indexed": true,
          "internalType": "address",
          "name": "previousOwner",
          "type": "address"
        },
        {
          "indexed": true,
          "internalType": "address",
          "name": "newOwner",
          "type": "address"
        }
      ],
      "name": "OwnershipTransferred",
      "type": "event"
    },
    {
      "anonymous": false,
      "inputs": [
        {
          "indexed": false,
          "internalType": "uint256",
          "name": "reviewId",
          "type": "uint256"
        },
        {
          "indexed": true,
          "internalType": "uint256",
          "name": "articleId",
          "type": "uint256"
        },
        {
          "indexed": true,
          "internalType": "address",
          "name": "reviewer",
          "type": "address"
        },
        {
          "indexed": false,
          "internalType": "uint256",
          "name": "consensus",
          "type": "uint256"
        },
        {
          "indexed": false,
          "internalType": "string",
          "name": "consensousType",
          "type": "string"
        },
        {
          "indexed": false,
          "internalType": "uint256",
          "name": "creds",
          "type": "uint256"
        },
        {
          "indexed": false,
          "internalType": "string",
          "name": "ipfsHash",
          "type": "string"
        }
      ],
      "name": "ReviewSubmitted",
      "type": "event"
    },
    {
      "anonymous": false,
      "inputs": [
        {
          "indexed": true,
          "internalType": "address",
          "name": "from",
          "type": "address"
        },
        {
          "indexed": true,
          "internalType": "address",
          "name": "to",
          "type": "address"
        },
        {
          "indexed": true,
          "internalType": "uint256",
          "name": "tokenId",
          "type": "uint256"
        }
      ],
      "name": "Transfer",
      "type": "event"
    },
    {
      "inputs": [
        {
          "internalType": "uint256",
          "name": "",
          "type": "uint256"
        }
      ],
      "name": "ActiveReviews",
      "outputs": [
        {
          "internalType": "uint256",
          "name": "",
          "type": "uint256"
        }
      ],
      "stateMutability": "view",
      "type": "function"
    },
    {
      "inputs": [
        {
          "internalType": "uint256",
          "name": "",
          "type": "uint256"
        }
      ],
      "name": "ActiveReviewsIndexes",
      "outputs": [
        {
          "internalType": "uint256",
          "name": "",
          "type": "uint256"
        }
      ],
      "stateMutability": "view",
      "type": "function"
    },
    {
      "inputs": [],
      "name": "AutomationContract",
      "outputs": [
        {
          "internalType": "contract ChainlinkAutomationInterface",
          "name": "",
          "type": "address"
        }
      ],
      "stateMutability": "view",
      "type": "function"
    },
    {
      "inputs": [],
      "name": "ReviewersContract",
      "outputs": [
        {
          "internalType": "contract learntgetherReviewersInterface",
          "name": "",
          "type": "address"
        }
      ],
      "stateMutability": "view",
      "type": "function"
    },
    {
      "inputs": [],
      "name": "SubjectsContract",
      "outputs": [
        {
          "internalType": "contract learntgetherSubjectsInterface",
          "name": "",
          "type": "address"
        }
      ],
      "stateMutability": "view",
      "type": "function"
    },
    {
      "inputs": [
        {
          "internalType": "uint256",
          "name": "_articleId",
          "type": "uint256"
        },
        {
          "internalType": "string",
          "name": "_keyword",
          "type": "string"
        }
      ],
      "name": "addKeyword",
      "outputs": [],
      "stateMutability": "nonpayable",
      "type": "function"
    },
    {
      "inputs": [
        {
          "internalType": "address",
          "name": "to",
          "type": "address"
        },
        {
          "internalType": "uint256",
          "name": "tokenId",
          "type": "uint256"
        }
      ],
      "name": "approve",
      "outputs": [],
      "stateMutability": "nonpayable",
      "type": "function"
    },
    {
      "inputs": [
        {
          "internalType": "uint256",
          "name": "",
          "type": "uint256"
        },
        {
          "internalType": "uint256",
          "name": "",
          "type": "uint256"
        }
      ],
      "name": "articleReviews",
      "outputs": [
        {
          "internalType": "uint256",
          "name": "",
          "type": "uint256"
        }
      ],
      "stateMutability": "view",
      "type": "function"
    },
    {
      "inputs": [
        {
          "internalType": "uint256",
          "name": "",
          "type": "uint256"
        }
      ],
      "name": "articles",
      "outputs": [
        {
          "internalType": "string",
          "name": "ipfsHash",
          "type": "string"
        },
        {
          "internalType": "string",
          "name": "title",
          "type": "string"
        },
        {
          "internalType": "address",
          "name": "authorAddress",
          "type": "address"
        },
        {
          "internalType": "string",
          "name": "authorName",
          "type": "string"
        },
        {
          "internalType": "string",
          "name": "description",
          "type": "string"
        },
        {
          "internalType": "string",
          "name": "subjectName",
          "type": "string"
        },
        {
          "internalType": "string",
          "name": "consensousType",
          "type": "string"
        },
        {
          "internalType": "uint256",
          "name": "timestamp",
          "type": "uint256"
        },
        {
          "internalType": "uint256",
          "name": "reviewTime",
          "type": "uint256"
        }
      ],
      "stateMutability": "view",
      "type": "function"
    },
    {
      "inputs": [
        {
          "internalType": "address",
          "name": "owner",
          "type": "address"
        }
      ],
      "name": "balanceOf",
      "outputs": [
        {
          "internalType": "uint256",
          "name": "",
          "type": "uint256"
        }
      ],
      "stateMutability": "view",
      "type": "function"
    },
    {
      "inputs": [
        {
          "internalType": "bytes",
          "name": "",
          "type": "bytes"
        }
      ],
      "name": "checkUpKeep",
      "outputs": [
        {
          "internalType": "bool",
          "name": "upkeepNeeded",
          "type": "bool"
        },
        {
          "internalType": "bytes",
          "name": "performData",
          "type": "bytes"
        }
      ],
      "stateMutability": "view",
      "type": "function"
    },
    {
      "inputs": [],
      "name": "getActiveReviews",
      "outputs": [
        {
          "internalType": "uint256[]",
          "name": "",
          "type": "uint256[]"
        }
      ],
      "stateMutability": "view",
      "type": "function"
    },
    {
      "inputs": [
        {
          "internalType": "uint256",
          "name": "_articleId",
          "type": "uint256"
        }
      ],
      "name": "getActiveReviewsIndex",
      "outputs": [
        {
          "internalType": "uint256",
          "name": "",
          "type": "uint256"
        }
      ],
      "stateMutability": "view",
      "type": "function"
    },
    {
      "inputs": [],
      "name": "getActiveReviewsLength",
      "outputs": [
        {
          "internalType": "uint256",
          "name": "",
          "type": "uint256"
        }
      ],
      "stateMutability": "view",
      "type": "function"
    },
    {
      "inputs": [
        {
          "internalType": "uint256",
          "name": "tokenId",
          "type": "uint256"
        }
      ],
      "name": "getApproved",
      "outputs": [
        {
          "internalType": "address",
          "name": "",
          "type": "address"
        }
      ],
      "stateMutability": "view",
      "type": "function"
    },
    {
      "inputs": [
        {
          "internalType": "string",
          "name": "_subjectName",
          "type": "string"
        },
        {
          "internalType": "string",
          "name": "_ipfsHash",
          "type": "string"
        }
      ],
      "name": "getArticleByHash",
      "outputs": [
        {
          "components": [
            {
              "internalType": "string",
              "name": "ipfsHash",
              "type": "string"
            },
            {
              "internalType": "string",
              "name": "title",
              "type": "string"
            },
            {
              "internalType": "address",
              "name": "authorAddress",
              "type": "address"
            },
            {
              "internalType": "string",
              "name": "authorName",
              "type": "string"
            },
            {
              "internalType": "string",
              "name": "description",
              "type": "string"
            },
            {
              "internalType": "string",
              "name": "subjectName",
              "type": "string"
            },
            {
              "internalType": "string",
              "name": "consensousType",
              "type": "string"
            },
            {
              "internalType": "uint256",
              "name": "timestamp",
              "type": "uint256"
            },
            {
              "internalType": "uint256",
              "name": "reviewTime",
              "type": "uint256"
            }
          ],
          "internalType": "struct learntgetherArticles.Article",
          "name": "",
          "type": "tuple"
        }
      ],
      "stateMutability": "view",
      "type": "function"
    },
    {
      "inputs": [
        {
          "internalType": "uint256",
          "name": "_tokenId",
          "type": "uint256"
        }
      ],
      "name": "getArticleConsesous",
      "outputs": [
        {
          "internalType": "string",
          "name": "consensus",
          "type": "string"
        }
      ],
      "stateMutability": "view",
      "type": "function"
    },
    {
      "inputs": [
        {
          "internalType": "string",
          "name": "_subjectName",
          "type": "string"
        },
        {
          "internalType": "string",
          "name": "_ipfsHash",
          "type": "string"
        }
      ],
      "name": "getArticleIdByHash",
      "outputs": [
        {
          "internalType": "uint256",
          "name": "",
          "type": "uint256"
        }
      ],
      "stateMutability": "view",
      "type": "function"
    },
    {
      "inputs": [
        {
          "internalType": "uint256",
          "name": "_articleId",
          "type": "uint256"
        }
      ],
      "name": "getArticleReviews",
      "outputs": [
        {
          "internalType": "uint256[]",
          "name": "",
          "type": "uint256[]"
        }
      ],
      "stateMutability": "view",
      "type": "function"
    },
    {
      "inputs": [
        {
          "internalType": "uint256",
          "name": "_reviewId",
          "type": "uint256"
        }
      ],
      "name": "getReview",
      "outputs": [
        {
          "components": [
            {
              "internalType": "address",
              "name": "reviewer",
              "type": "address"
            },
            {
              "internalType": "string",
              "name": "ipfsHash",
              "type": "string"
            },
            {
              "internalType": "uint256",
              "name": "consensous",
              "type": "uint256"
            },
            {
              "internalType": "string",
              "name": "consensousType",
              "type": "string"
            },
            {
              "internalType": "uint256",
              "name": "creds",
              "type": "uint256"
            }
          ],
          "internalType": "struct learntgetherArticles.Review",
          "name": "",
          "type": "tuple"
        }
      ],
      "stateMutability": "view",
      "type": "function"
    },
    {
      "inputs": [
        {
          "internalType": "uint256",
          "name": "_reviewid",
          "type": "uint256"
        }
      ],
      "name": "getReviewConsenous",
      "outputs": [
        {
          "internalType": "uint256",
          "name": "consensous",
          "type": "uint256"
        },
        {
          "internalType": "uint256",
          "name": "creds",
          "type": "uint256"
        }
      ],
      "stateMutability": "view",
      "type": "function"
    },
    {
      "inputs": [
        {
          "internalType": "uint256",
          "name": "_articleId",
          "type": "uint256"
        }
      ],
      "name": "getReviewsForArticle",
      "outputs": [
        {
          "internalType": "uint256[]",
          "name": "",
          "type": "uint256[]"
        }
      ],
      "stateMutability": "view",
      "type": "function"
    },
    {
      "inputs": [
        {
          "internalType": "uint256",
          "name": "",
          "type": "uint256"
        },
        {
          "internalType": "address",
          "name": "",
          "type": "address"
        }
      ],
      "name": "hasReviewed",
      "outputs": [
        {
          "internalType": "bool",
          "name": "",
          "type": "bool"
        }
      ],
      "stateMutability": "view",
      "type": "function"
    },
    {
      "inputs": [],
      "name": "incrementToken",
      "outputs": [],
      "stateMutability": "nonpayable",
      "type": "function"
    },
    {
      "inputs": [
        {
          "internalType": "string",
          "name": "",
          "type": "string"
        },
        {
          "internalType": "string",
          "name": "",
          "type": "string"
        }
      ],
      "name": "ipfsHashToTokenId",
      "outputs": [
        {
          "internalType": "uint256",
          "name": "",
          "type": "uint256"
        }
      ],
      "stateMutability": "view",
      "type": "function"
    },
    {
      "inputs": [
        {
          "internalType": "address",
          "name": "owner",
          "type": "address"
        },
        {
          "internalType": "address",
          "name": "operator",
          "type": "address"
        }
      ],
      "name": "isApprovedForAll",
      "outputs": [
        {
          "internalType": "bool",
          "name": "",
          "type": "bool"
        }
      ],
      "stateMutability": "view",
      "type": "function"
    },
    {
      "inputs": [],
      "name": "maxReviews",
      "outputs": [
        {
          "internalType": "uint256",
          "name": "",
          "type": "uint256"
        }
      ],
      "stateMutability": "view",
      "type": "function"
    },
    {
      "inputs": [
        {
          "internalType": "string",
          "name": "_ipfsHash",
          "type": "string"
        },
        {
          "internalType": "string",
          "name": "_title",
          "type": "string"
        },
        {
          "internalType": "string",
          "name": "_authorName",
          "type": "string"
        },
        {
          "internalType": "string",
          "name": "_description",
          "type": "string"
        },
        {
          "internalType": "string",
          "name": "_subjectName",
          "type": "string"
        }
      ],
      "name": "mintArticle",
      "outputs": [
        {
          "internalType": "uint256",
          "name": "",
          "type": "uint256"
        }
      ],
      "stateMutability": "nonpayable",
      "type": "function"
    },
    {
      "inputs": [],
      "name": "name",
      "outputs": [
        {
          "internalType": "string",
          "name": "",
          "type": "string"
        }
      ],
      "stateMutability": "view",
      "type": "function"
    },
    {
      "inputs": [],
      "name": "openVoteTime",
      "outputs": [
        {
          "internalType": "uint256",
          "name": "",
          "type": "uint256"
        }
      ],
      "stateMutability": "view",
      "type": "function"
    },
    {
      "inputs": [],
      "name": "owner",
      "outputs": [
        {
          "internalType": "address",
          "name": "",
          "type": "address"
        }
      ],
      "stateMutability": "view",
      "type": "function"
    },
    {
      "inputs": [
        {
          "internalType": "uint256",
          "name": "tokenId",
          "type": "uint256"
        }
      ],
      "name": "ownerOf",
      "outputs": [
        {
          "internalType": "address",
          "name": "",
          "type": "address"
        }
      ],
      "stateMutability": "view",
      "type": "function"
    },
    {
      "inputs": [
        {
          "internalType": "bytes",
          "name": "_performData",
          "type": "bytes"
        }
      ],
      "name": "performUpkeep",
      "outputs": [],
      "stateMutability": "nonpayable",
      "type": "function"
    },
    {
      "inputs": [],
      "name": "proposalFeeInLink",
      "outputs": [
        {
          "internalType": "uint256",
          "name": "",
          "type": "uint256"
        }
      ],
      "stateMutability": "view",
      "type": "function"
    },
    {
      "inputs": [],
      "name": "renounceOwnership",
      "outputs": [],
      "stateMutability": "nonpayable",
      "type": "function"
    },
    {
      "inputs": [],
      "name": "reviewCounter",
      "outputs": [
        {
          "internalType": "uint256",
          "name": "",
          "type": "uint256"
        }
      ],
      "stateMutability": "view",
      "type": "function"
    },
    {
      "inputs": [
        {
          "internalType": "uint256",
          "name": "",
          "type": "uint256"
        }
      ],
      "name": "reviews",
      "outputs": [
        {
          "internalType": "address",
          "name": "reviewer",
          "type": "address"
        },
        {
          "internalType": "string",
          "name": "ipfsHash",
          "type": "string"
        },
        {
          "internalType": "uint256",
          "name": "consensous",
          "type": "uint256"
        },
        {
          "internalType": "string",
          "name": "consensousType",
          "type": "string"
        },
        {
          "internalType": "uint256",
          "name": "creds",
          "type": "uint256"
        }
      ],
      "stateMutability": "view",
      "type": "function"
    },
    {
      "inputs": [
        {
          "internalType": "address",
          "name": "from",
          "type": "address"
        },
        {
          "internalType": "address",
          "name": "to",
          "type": "address"
        },
        {
          "internalType": "uint256",
          "name": "tokenId",
          "type": "uint256"
        }
      ],
      "name": "safeTransferFrom",
      "outputs": [],
      "stateMutability": "nonpayable",
      "type": "function"
    },
    {
      "inputs": [
        {
          "internalType": "address",
          "name": "from",
          "type": "address"
        },
        {
          "internalType": "address",
          "name": "to",
          "type": "address"
        },
        {
          "internalType": "uint256",
          "name": "tokenId",
          "type": "uint256"
        },
        {
          "internalType": "bytes",
          "name": "_data",
          "type": "bytes"
        }
      ],
      "name": "safeTransferFrom",
      "outputs": [],
      "stateMutability": "nonpayable",
      "type": "function"
    },
    {
      "inputs": [
        {
          "internalType": "address",
          "name": "operator",
          "type": "address"
        },
        {
          "internalType": "bool",
          "name": "approved",
          "type": "bool"
        }
      ],
      "name": "setApprovalForAll",
      "outputs": [],
      "stateMutability": "nonpayable",
      "type": "function"
    },
    {
      "inputs": [
        {
          "internalType": "address",
          "name": "_contractAddress",
          "type": "address"
        }
      ],
      "name": "setAutomationRegistry",
      "outputs": [],
      "stateMutability": "nonpayable",
      "type": "function"
    },
    {
      "inputs": [
        {
          "internalType": "uint256",
          "name": "_feePrice",
          "type": "uint256"
        }
      ],
      "name": "setFee",
      "outputs": [],
      "stateMutability": "nonpayable",
      "type": "function"
    },
    {
      "inputs": [
        {
          "internalType": "uint256",
          "name": "_maxreviews",
          "type": "uint256"
        }
      ],
      "name": "setMaxReviews",
      "outputs": [],
      "stateMutability": "nonpayable",
      "type": "function"
    },
    {
      "inputs": [
        {
          "internalType": "address",
          "name": "_contractAddress",
          "type": "address"
        }
      ],
      "name": "setReviewersContract",
      "outputs": [],
      "stateMutability": "nonpayable",
      "type": "function"
    },
    {
      "inputs": [
        {
          "internalType": "address",
          "name": "_contractAddress",
          "type": "address"
        }
      ],
      "name": "setSubjectsContract",
      "outputs": [],
      "stateMutability": "nonpayable",
      "type": "function"
    },
    {
      "inputs": [
        {
          "internalType": "uint256",
          "name": "_upkeepId",
          "type": "uint256"
        }
      ],
      "name": "setUpkkepId",
      "outputs": [],
      "stateMutability": "nonpayable",
      "type": "function"
    },
    {
      "inputs": [
        {
          "internalType": "address",
          "name": "_contractAddress",
          "type": "address"
        }
      ],
      "name": "setV2Contract",
      "outputs": [],
      "stateMutability": "nonpayable",
      "type": "function"
    },
    {
      "inputs": [
        {
          "internalType": "string[]",
          "name": "_deafultArray",
          "type": "string[]"
        }
      ],
      "name": "setdefaultConsenousTypes",
      "outputs": [],
      "stateMutability": "nonpayable",
      "type": "function"
    },
    {
      "inputs": [
        {
          "internalType": "uint256",
          "name": "_articleId",
          "type": "uint256"
        },
        {
          "internalType": "string",
          "name": "_ipfsHash",
          "type": "string"
        },
        {
          "internalType": "uint256",
          "name": "_consensous",
          "type": "uint256"
        }
      ],
      "name": "submitReview",
      "outputs": [],
      "stateMutability": "nonpayable",
      "type": "function"
    },
    {
      "inputs": [
        {
          "internalType": "bytes4",
          "name": "interfaceId",
          "type": "bytes4"
        }
      ],
      "name": "supportsInterface",
      "outputs": [
        {
          "internalType": "bool",
          "name": "",
          "type": "bool"
        }
      ],
      "stateMutability": "view",
      "type": "function"
    },
    {
      "inputs": [],
      "name": "symbol",
      "outputs": [
        {
          "internalType": "string",
          "name": "",
          "type": "string"
        }
      ],
      "stateMutability": "view",
      "type": "function"
    },
    {
      "inputs": [
        {
          "internalType": "uint256",
          "name": "index",
          "type": "uint256"
        }
      ],
      "name": "tokenByIndex",
      "outputs": [
        {
          "internalType": "uint256",
          "name": "",
          "type": "uint256"
        }
      ],
      "stateMutability": "view",
      "type": "function"
    },
    {
      "inputs": [
        {
          "internalType": "address",
          "name": "owner",
          "type": "address"
        },
        {
          "internalType": "uint256",
          "name": "index",
          "type": "uint256"
        }
      ],
      "name": "tokenOfOwnerByIndex",
      "outputs": [
        {
          "internalType": "uint256",
          "name": "",
          "type": "uint256"
        }
      ],
      "stateMutability": "view",
      "type": "function"
    },
    {
      "inputs": [
        {
          "internalType": "uint256",
          "name": "tokenId",
          "type": "uint256"
        }
      ],
      "name": "tokenURI",
      "outputs": [
        {
          "internalType": "string",
          "name": "",
          "type": "string"
        }
      ],
      "stateMutability": "view",
      "type": "function"
    },
    {
      "inputs": [],
      "name": "totalSupply",
      "outputs": [
        {
          "internalType": "uint256",
          "name": "",
          "type": "uint256"
        }
      ],
      "stateMutability": "view",
      "type": "function"
    },
    {
      "inputs": [
        {
          "internalType": "address",
          "name": "from",
          "type": "address"
        },
        {
          "internalType": "address",
          "name": "to",
          "type": "address"
        },
        {
          "internalType": "uint256",
          "name": "tokenId",
          "type": "uint256"
        }
      ],
      "name": "transferFrom",
      "outputs": [],
      "stateMutability": "nonpayable",
      "type": "function"
    },
    {
      "inputs": [
        {
          "internalType": "uint256",
          "name": "_tokenId",
          "type": "uint256"
        }
      ],
      "name": "transferNFTsToV2",
      "outputs": [],
      "stateMutability": "nonpayable",
      "type": "function"
    },
    {
      "inputs": [
        {
          "internalType": "address",
          "name": "newOwner",
          "type": "address"
        }
      ],
      "name": "transferOwnership",
      "outputs": [],
      "stateMutability": "nonpayable",
      "type": "function"
    },
    {
      "inputs": [
        {
          "internalType": "address",
          "name": "to",
          "type": "address"
        },
        {
          "internalType": "uint256",
          "name": "tokenId",
          "type": "uint256"
        }
      ],
      "name": "transferToken",
      "outputs": [],
      "stateMutability": "nonpayable",
      "type": "function"
    },
    {
      "inputs": [],
      "name": "upkeepId",
      "outputs": [
        {
          "internalType": "uint256",
          "name": "",
          "type": "uint256"
        }
      ],
      "stateMutability": "view",
      "type": "function"
    }
  ],
  "bytecode": "0x608034620006ca57601f62004daf38819003918201601f19168301916001600160401b03831184841017620003545780849260a094604052833981010312620006ca576200004d81620006ee565b906200005c60208201620006ee565b6200006a60408301620006ee565b9260806200007b60608501620006ee565b9301519362000089620006ce565b601481527f4c6561726e7467657468657241727469636c65730000000000000000000000006020820152620000bd620006ce565b60038152624c544760e81b6020820152815190916001600160401b03821162000354578190620000ee5f5462000703565b601f81116200068b575b50602090601f831160011462000617575f926200060b575b50508160011b915f199060031b1c1916175f555b8051906001600160401b038211620003545781906200014560015462000703565b601f8111620005bf575b50602090601f831160011462000544575f9262000538575b50508160011b915f199060031b1c1916176001555b600a8054336001600160a01b0319821681179092556001600160a01b03167f8be0079c531659141344cd1fd0a4f28419497f9722a3daafe3b4186f6b6457e05f80a36040516001600160401b036060820190811190821117620003545760608101604052620001ea620006ce565b600e81526d5265766965772050656e64696e6760901b6020820152815262000211620006ce565b60088152671058d8d95c1d195960c21b6020820152602082015262000235620006ce565b600881526714995a9958dd195960c21b60208201526040820152600f546003600f558060031062000492575b50600f5f9081525f8051602062004d8f833981519152915b6003821062000368575050601f80546001600160a01b031990811633179091556016805482166001600160a01b0394851690811790915560178054831690911790556018805482169484169490941790935550601980548316938216939093179092556015805490911692909116919091179055601b55600b80546001908101909155600e55601354680100000000000000008110156200035457600181018060135581101562000340575f90601382526020822001556040516145f89081620007578239f35b634e487b7160e01b5f52603260045260245ffd5b634e487b7160e01b5f52604160045260245ffd5b80518051906001600160401b038211620003545762000388855462000703565b601f811162000452575b50602090601f8311600114620003e15792826001949360209386955f92620003d5575b50505f19600383901b1c191690841b1786555b0193019101909162000279565b015190505f80620003b5565b90855f5260205f20915f5b601f198516811062000439575083602093600196938796938794601f1981161062000420575b505050811b018655620003c8565b01515f1960f88460031b161c191690555f808062000412565b91926020600181928685015181550194019201620003ec565b6200048090865f5260205f206005601f8601811c8201926020871062000487575b601f01901c01906200073e565b5f62000392565b919250829162000473565b600f5f525f8051602062004d8f833981519152907f8d1108e10bcb7c27dddfc02ed9d693a074039d026cf4ea4240b40f7d581ac8055b8183018110620004da57505062000261565b80620004e96001925462000703565b80620004f8575b5001620004c8565b601f811183146200050f57505f81555b5f620004f0565b5f908282526200052e601f60208420920160051c82018583016200073e565b8183555562000508565b015190505f8062000167565b60015f90815293505f8051602062004d6f83398151915291905b601f1984168510620005a3576001945083601f198116106200058a575b505050811b016001556200017c565b01515f1960f88460031b161c191690555f80806200057b565b818101518355602094850194600190930192909101906200055e565b60015f52620005f9905f8051602062004d6f833981519152601f850160051c8101916020861062000600575b601f0160051c01906200073e565b5f6200014f565b9091508190620005eb565b015190505f8062000110565b5f8080525f8051602062004d4f8339815191529350601f198516905b81811062000672575090846001959493921062000659575b505050811b015f5562000124565b01515f1960f88460031b161c191690555f80806200064b565b9293602060018192878601518155019501930162000633565b5f8052620006c3905f8051602062004d4f833981519152601f850160051c810191602086106200060057601f0160051c01906200073e565b5f620000f8565b5f80fd5b60408051919082016001600160401b038111838210176200035457604052565b51906001600160a01b0382168203620006ca57565b90600182811c9216801562000733575b60208310146200071f57565b634e487b7160e01b5f52602260045260245ffd5b91607f169162000713565b8181106200074a575050565b5f81556001016200073e56fe60806040526004361015610011575f80fd5b5f3560e01c806301ffc9a7146103ca578063041948ca146103c557806306fdde03146103c0578063081812fc146103bb578063095ea7b3146103b65780630cd305d3146103b15780630f299e34146102d05780631072cbea146103ac57806318160ddd146103a75780631bbb4d46146103a25780632056b05f146102e957806323b872dd1461039d5780632602c258146103985780632f745c5914610393578063336c1ad71461038e5780633e7c204214610389578063408958d61461038457806342842e0e1461037f5780634585e33b1461037a578063461350d9146103755780634ed59812146103705780634f6ccce71461036b57806356f5c94a146103665780635787a0cc146103615780635e6c102e1461035c5780635f23b056146103575780635ff2d2aa146103525780636352211e1461034d5780636356eea41461034857806369fe0e2d1461034357806370a082311461033e578063715018a61461033957806375bca85a146103345780637823e2261461032f5780637c7198cc1461032a5780637d67e967146103255780637eb9fd1d146103205780638da5cb5b1461031b57806395d89b4114610316578063990581b6146103115780639b1cb58e1461030c578063a164205a14610307578063a22cb46514610302578063ac3d8153146102fd578063b88d4fde146102f8578063b9e2fc3e146102f3578063c17589d7146102ee578063c6fea1a6146102e9578063c87b56dd146102e4578063d1a34aa3146102df578063d2aa789f146102da578063d8db3807146102d5578063dfcf5189146102d0578063e168b3a8146102cb578063e83ddcea146102c6578063e985e9c5146102c1578063edcfafe6146102bc578063f0f2e469146102b7578063f2fde38b146102b25763f6a800ee146102ad575f80fd5b61259e565b612508565b6124eb565b6123da565b6122fb565b612254565b612153565b6108a6565b6120b4565b612080565b612052565b611f78565b6109a8565b611f30565b611ef6565b611e97565b611e40565b611d5c565b611d25565b611d08565b611c53565b611b75565b611b4d565b611b05565b611a73565b611a25565b611a08565b6119c0565b611960565b611935565b611907565b611632565b611614565b6115c2565b611518565b6111f5565b6111ae565b611186565b6110dc565b6110bf565b6110a2565b610ffb565b610f8b565b610f63565b610f1e565b610dff565b610d4d565b610cb1565b610a42565b610980565b610963565b6108d0565b610869565b610696565b61063a565b610581565b6104b1565b6103e5565b6001600160e01b03198116036103e157565b5f80fd5b346103e15760203660031901126103e1576020600435610404816103cf565b63ffffffff60e01b1663780e9d6360e01b811490811561042a575b506040519015158152f35b6380ac58cd60e01b81149150811561045c575b811561044b575b505f61041f565b6301ffc9a760e01b1490505f610444565b635b5e139f60e01b8114915061043d565b5f9103126103e157565b602090816040818301928281528551809452019301915f5b82811061049d575050505090565b83518552938101939281019260010161048f565b346103e1575f8060031936011261052457604051601380548083529083526020808301935f8051602061458383398151915292915b82821061050d57610509856104fd81890382610b04565b60405191829182610477565b0390f35b8354865294850194600193840193909101906104e6565b80fd5b5f5b8381106105385750505f910152565b8181015183820152602001610529565b9060209161056181518092818552858086019101610527565b601f01601f1916010190565b90602061057e928181520190610548565b90565b346103e1575f80600319360112610524576040518180546105a181612170565b8084529060019081811690811561061257506001146105d7575b610509846105cb81880382610b04565b6040519182918261056d565b93508180526020938483205b8284106105ff5750505081610509936105cb92820101936105bb565b80548585018701529285019281016105e3565b61050996506105cb9450602092508593915060ff191682840152151560051b820101936105bb565b346103e15760203660031901126103e15760206106586004356127cd565b6040516001600160a01b039091168152f35b600435906001600160a01b03821682036103e157565b602435906001600160a01b03821682036103e157565b346103e15760403660031901126103e1576106af61066a565b6024356106bb816126d7565b916001600160a01b038084169082168114610733576106ed936106e89133149081156106ef575b50612760565b612c9c565b005b6001600160a01b03165f90815260056020526040902061072d91506107269033905b9060018060a01b03165f5260205260405f2090565b5460ff1690565b5f6106e2565b60405162461bcd60e51b815260206004820152602160248201527f4552433732313a20617070726f76616c20746f2063757272656e74206f776e656044820152603960f91b6064820152608490fd5b634e487b7160e01b5f52603260045260245ffd5b6013548110156107ae5760135f5260205f2001905f90565b610782565b600f548110156107ae57600f5f5260205f2001905f90565b600f54156107ae57600f5f9081525f805160206145a383398151915291565b600f54600210156107ae57600f5f9081527f8d1108e10bcb7c27dddfc02ed9d693a074039d026cf4ea4240b40f7d581ac80491565b600f54600110156107ae57600f5f9081527f8d1108e10bcb7c27dddfc02ed9d693a074039d026cf4ea4240b40f7d581ac80391565b80548210156107ae575f5260205f2001905f90565b346103e15760203660031901126103e1576004356013548110156103e15760135f525f805160206145838339815191520154604051908152602090f35b346103e15760203660031901126103e1576004355f526012602052602060405f2054604051908152f35b346103e15760403660031901126103e1576108e961066a565b6024356108f5816126d7565b336001600160a01b0390911603610910576106ed9133612b09565b60405162461bcd60e51b815260206004820152602560248201527f4f6e6c7920746865206f776e65722063616e207472616e7366657220746865206044820152643a37b5b2b760d91b6064820152608490fd5b346103e1575f3660031901126103e1576020600854604051908152f35b346103e1575f3660031901126103e1576018546040516001600160a01b039091168152602090f35b346103e1576020806003193601126103e1576004355f52600c815260405f209060405190818184549182815201935f52815f20915f905b8282106109f657610509856104fd81890382610b04565b8354865294850194600193840193909101906109df565b60609060031901126103e1576001600160a01b039060043582811681036103e1579160243590811681036103e1579060443590565b346103e1576106ed610a5336610a0d565b91610a66610a618433612987565b61284f565b612b09565b634e487b7160e01b5f52604160045260245ffd5b61012081019081106001600160401b03821117610a9b57604052565b610a6b565b60a081019081106001600160401b03821117610a9b57604052565b6001600160401b038111610a9b57604052565b602081019081106001600160401b03821117610a9b57604052565b604081019081106001600160401b03821117610a9b57604052565b90601f801991011681019081106001600160401b03821117610a9b57604052565b60405190610b3282610aa0565b565b60405190610b3282610a7f565b6001600160401b038111610a9b57601f01601f191660200190565b929192610b6882610b41565b91610b766040519384610b04565b8294818452818301116103e1578281602093845f960137010152565b9080601f830112156103e15781602061057e93359101610b5c565b9060406003198301126103e1576001600160401b036004358181116103e15783610bd991600401610b92565b926024359182116103e15761057e91600401610b92565b602081528151610c9a610c1161012092836020860152610140850190610548565b610c85610c71610c5d610c36602089015194601f1995868a83030160408b0152610548565b60408901516001600160a01b031660608901526060890151858983030160808a0152610548565b6080880151848883030160a0890152610548565b60a0870151838783030160c0880152610548565b9060c0860151908583030160e0860152610548565b9260e0810151906101009182850152015191015290565b346103e157610d2a610d19610d21610cc836610bad565b5f610100604095939551610cdb81610a7f565b606080825280602083015283604083015280808301528060808301528060a083015260c08201528260e08201520152610d138461249f565b906124c5565b5415156142c6565b610d138161249f565b545f526010602052610509610d4160405f2061431c565b60405191829182610bf0565b346103e15760403660031901126103e157610d6661066a565b60243590610d7381612661565b821015610da6576001600160a01b03165f9081526006602090815260408083209383529281529082902054915191825290f35b60405162461bcd60e51b815260206004820152602b60248201527f455243373231456e756d657261626c653a206f776e657220696e646578206f7560448201526a74206f6620626f756e647360a81b6064820152608490fd5b346103e15760203660031901126103e157601a54600435906020906001600160a01b031691610e4d6001600160a01b03610e3c81861615156144b3565b610e45836126d7565b16331461427a565b610e7281610e6b610e66825f52601060205260405f2090565b61431c565b94336128b5565b601a54610e9590610e89906001600160a01b031681565b6001600160a01b031690565b60408401516001600160a01b03165f606086015193610ee2868801519760a08101519060c081015160808251920151926040519b8c9a8b998a9863ba833f2360e01b8a5260048a016144ff565b03925af18015610f1957610ef257005b6106ed9060203d8111610f12575b610f0a8183610b04565b81019061330d565b503d610f00565b612d6e565b346103e15760403660031901126103e1576024356004355f52600c60205260405f2080548210156103e157602091610f5591610854565b90546040519160031b1c8152f35b346103e1575f3660031901126103e1576016546040516001600160a01b039091168152602090f35b346103e1576106ed610f9c36610a0d565b9060405192610faa84610ace565b5f84526128c8565b9060206003198301126103e1576004356001600160401b03928382116103e157806023830112156103e15781600401359384116103e157602484830101116103e1576024019190565b346103e15761100936610fb2565b601f54336001600160a01b0391821614908115611094575b5015611030576106ed91614063565b60405162461bcd60e51b815260206004820152603660248201527f4e6f742074686520636f6e7472616374206f776e6572206f72204175746f6d616044820152751d1a5bdb88149959da5cdd1c9e4810dbdb9d1c9858dd60521b6064820152608490fd5b90506017541633145f611021565b346103e1575f3660031901126103e1576020601354604051908152f35b346103e1575f3660031901126103e1576020601d54604051908152f35b346103e15760203660031901126103e15760043560085481101561112c5760085f527ff3f7a9fe364faab93b216da50a3214154f22a0a2b415b23a84c8169e8b636ee30154604051908152602090f35b60405162461bcd60e51b815260206004820152602c60248201527f455243373231456e756d657261626c653a20676c6f62616c20696e646578206f60448201526b7574206f6620626f756e647360a01b6064820152608490fd5b346103e1575f3660031901126103e1576019546040516001600160a01b039091168152602090f35b346103e15760203660031901126103e1576111d460018060a01b03600a541633146125ce565b600435601e55005b60409061057e9392151581528160208201520190610548565b346103e15761120336610fb2565b50505f80816013548061124a575b61122d8361123b84604051938491602083019190602083019252565b03601f198101845283610b04565b610509604051928392836111dc565b60019082825b82811061148357505050831561121157601854611275906001600160a01b0316610e89565b90600561128a865f52601060205260405f2090565b01906040606081518095633d69b07360e01b825281806112ae600498898301613c37565b03915afa948515610f1957809281958297611449575b506112df6112da8a5f52600c60205260405f2090565b613ed9565b918251968588105f1461130a5750505050505050505061123b61130461122d93613f51565b90611211565b81968298601d54908181115f146114415750945b835b8681106113885750505050505050509161123b939161122d9693821590811561137e575b501561135b5750505061135690613f51565b611304565b9061136861136d92613f3b565b6131c7565b10155f036113045761135690613f51565b905082105f611344565b6113b4886113968385613d54565b51815180938192635cf17e1f60e11b83528883019190602083019252565b0381305afa8015610f195785908792889161140e575b5010156113e1575b506113dc906131b9565b611320565b9a6113ec87916131b9565b9b146113f9575b5f6113d2565b986114066113dc916131b9565b9990506113f3565b90506114319192508a3d8c1161143a575b6114298183610b04565b810190613f25565b9190915f6113ca565b503d61141f565b90509461131e565b919350955061147091945060603d811161147c575b6114688183610b04565b810190613ebe565b9491929094955f6112c4565b503d61145e565b6114ca60076114af6114a161149785610796565b90549060031b1c90565b5f52601060205260405f2090565b015460086114c26114a161149786610796565b015490612afc565b4281111580611506575b6114e8575b506114e3906131b9565b611250565b965094505081936114e36114fe61149783610796565b9691906114d9565b5082811115806114d4575082156114d4565b346103e15760a03660031901126103e1576001600160401b03600480358281116103e1576115499036908301610b92565b6024358381116103e1576115609036908401610b92565b6044358481116103e1576115779036908501610b92565b6064358581116103e15761158e9036908601610b92565b916084359586116103e1576115ac6115b29561050997369101610b92565b93613609565b6040519081529081906020820190565b346103e15760203660031901126103e1576115db61066a565b600a546001600160a01b0391906115f590831633146125ce565b1660018060a01b03198181601654161760165560175416176017555f80f35b346103e15760203660031901126103e15760206106586004356126d7565b346103e15760603660031901126103e1576024356004356001600160401b0382116103e1576116686116c7923690600401610b92565b906044359161167e6116798361296b565b613b22565b601854611693906001600160a01b0316610e89565b9260056116a8845f52601060205260405f2090565b01604051809563a511d68560e01b825281805f998a9560048301613c37565b03915afa928315610f19576117ab9486946118e3575b506116e9821515613c48565b6117026116fa600f54865190612afc565b831115613c93565b61173b611736611732610726611720855f52601460205260405f2090565b335f9081526020919091526040902090565b1590565b613cda565b61176161175433610711845f52601460205260405f2090565b805460ff19166001179055565b601954602090611779906001600160a01b0316610e89565b600561178d845f52601060205260405f2090565b0190604051808099819463598f921b60e01b83523360048401613d32565b03915afa948515610f195761188f9561188a957fb888bf347d341b27d6e286de699070e38ae55a4e9db71c274c9d5a3c007a6b079289926118b3575b50600f549081861161189257505061180f61180961180486612ace565b6107b3565b50612239565b61184e61181a610b25565b338152876020820152866040820152826060820152836080820152611849600e545f52600d60205260405f2090565b613d68565b61186c611863855f52600c60205260405f2090565b600e5490613045565b611882600e549660405193849333988a86613e88565b0390a36131b9565b600e55565b80f35b6118a76118a26118ad9388612ae1565b612ace565b90613d54565b5161180f565b6118d591925060203d81116118dc575b6118cd8183610b04565b810190613367565b905f6117e7565b503d6118c3565b6119009194503d8088833e6118f88183610b04565b810190613b67565b925f6116dd565b346103e15760203660031901126103e15761192d60018060a01b03600a541633146125ce565b600435601b55005b346103e15760203660031901126103e157602061195861195361066a565b612661565b604051908152f35b346103e1575f8060031936011261052457600a5481906001600160a01b0381169061198c3383146125ce565b6001600160a01b031916600a557f8be0079c531659141344cd1fd0a4f28419497f9722a3daafe3b4186f6b6457e08280a380f35b346103e15760203660031901126103e1576119d961066a565b600a546001600160a01b0391906119f390831633146125ce565b1660018060a01b031960185416176018555f80f35b346103e1575f3660031901126103e1576020601b54604051908152f35b346103e15760403660031901126103e157602060ff611a67611a45610680565b6004355f526014845260405f209060018060a01b03165f5260205260405f2090565b54166040519015158152f35b346103e15760403660031901126103e1576024356004356001600160401b0382116103e157611ac77f0b290e01b548ae78ace76449298ed234c42194d80af9f7dfe02fc4f7de07b9d3923690600401610b92565b90611ae4611ad4826126d7565b6001600160a01b0316331461427a565b611b006040519283928352604060208401526040830190610548565b0390a1005b346103e15760203660031901126103e157611b1e61066a565b600a546001600160a01b039190611b3890831633146125ce565b1660018060a01b031960195416176019555f80f35b346103e1575f3660031901126103e157600a546040516001600160a01b039091168152602090f35b346103e1575f8060031936011261052457604051816001805490611b9882612170565b808552918181169081156106125750600114611bbe57610509846105cb81880382610b04565b80945082526020938483205b828410611be65750505081610509936105cb92820101936105bb565b8054858501870152928501928101611bca565b6020815260018060a01b03825116602082015260a06080611c4a611c2b602086015184604087015260c0860190610548565b604086015160608601526060860151601f198683030184870152610548565b93015191015290565b346103e15760203660031901126103e15761050960405f60808251611c7781610aa0565b82815260606020820152828482015260608082015201526004355f52600d602052805f20906004815192611caa84610aa0565b80546001600160a01b031684528251611cd181611cca81600186016121a8565b0382610b04565b60208501526002810154838501528251611cf281611cca81600386016121a8565b6060850152015460808301525191829182611bf9565b346103e1575f3660031901126103e1576020601c54604051908152f35b346103e1576020611d49610d19610d21611d3e36610bad565b610d1382949261249f565b54604051908152f35b801515036103e157565b346103e15760403660031901126103e157611d7561066a565b602435611d8181611d52565b6001600160a01b03821691338314611dff5781611dbc611dcd92335f52600560205260405f209060018060a01b03165f5260205260405f2090565b9060ff801983541691151516179055565b604051901515815233907f17307eab39ab6107e8899845ad3d59bd9653f200f220920489ca2b5937696c3190602090a3005b60405162461bcd60e51b815260206004820152601960248201527822a9219b99189d1030b8383937bb32903a379031b0b63632b960391b6044820152606490fd5b346103e15760203660031901126103e157600435611e606116798261296b565b5f526010602052610509611cca611e83600660405f2001604051928380926121a8565b604051918291602083526020830190610548565b346103e15760803660031901126103e157611eb061066a565b611eb8610680565b606435916001600160401b0383116103e157366023840112156103e157611eec6106ed933690602481600401359101610b5c565b91604435916128c8565b346103e15760203660031901126103e157600480355f908152600d6020908152604091829020600281015493015482519384529083015290f35b346103e15760203660031901126103e157611f4961066a565b600a546001600160a01b039190611f6390831633146125ce565b1660018060a01b0319601a541617601a555f80f35b346103e15760203660031901126103e157600435611f958161296b565b15611ff557611fa261274e565b805115611fe3576105cb611fcf91611fd5611fbf610509956131f6565b6040519485936020850190612488565b90612488565b03601f198101835282610b04565b5050610509611ff061274e565b6105cb565b60405162461bcd60e51b815260206004820152602f60248201527f4552433732314d657461646174613a2055524920717565727920666f72206e6f60448201526e3732bc34b9ba32b73a103a37b5b2b760891b6064820152608490fd5b346103e15760203660031901126103e15761207860018060a01b03600a541633146125ce565b600435601d55005b346103e1575f3660031901126103e1576020601e54604051908152f35b6001600160401b038111610a9b5760051b60200190565b346103e1576020806003193601126103e1576001600160401b036004358181116103e157366023820112156103e15780600401356120f18161209d565b926120ff6040519485610b04565b818452848401906024809360051b850101933685116103e157838101925b85841061212d576106ed876143af565b83358381116103e15788916121488392883691870101610b92565b81520193019261211d565b346103e1575f3660031901126103e1576020600e54604051908152f35b90600182811c9216801561219e575b602083101461218a57565b634e487b7160e01b5f52602260045260245ffd5b91607f169161217f565b905f92918054916121b883612170565b9182825260019384811690815f1461221657506001146121d9575b50505050565b90919394505f52602092835f2092845f945b83861061220257505050500101905f8080806121d3565b8054858701830152940193859082016121eb565b9294505050602093945060ff191683830152151560051b0101905f8080806121d3565b90610b3261224d92604051938480926121a8565b0383610b04565b346103e15760203660031901126103e1576004355f52600d60205260405f2060018060a01b03815416604051916122998361229281600185016121a8565b0384610b04565b6122f160028201546004604051936122bf856122b881600385016121a8565b0386610b04565b0154926122de604051968796875260a0602088015260a0870190610548565b9160408601528482036060860152610548565b9060808301520390f35b346103e15760403660031901126103e157602060ff611a6761231b61066a565b612323610680565b6001600160a01b039182165f9081526005865260408082209290931681526020919091522090565b9591946123a66123c29461010099966123896123d0999c9e9d9c61237b6123b4978d610120908181520190610548565b8c810360208e015290610548565b6001600160a01b0390921660408b015289820360608b0152610548565b908782036080890152610548565b9085820360a0870152610548565b9083820360c0850152610548565b9460e08201520152565b346103e15760203660031901126103e1576004355f52601060205260405f2060405161240a81611cca81856121a8565b610509604051926124298461242281600185016121a8565b0385610b04565b60018060a01b036002820154169060405161244b81611cca81600386016121a8565b61245760048301612239565b61246360058401612239565b9061247060068501612239565b926008600786015495015495604051998a998a61234b565b9061249b60209282815194859201610527565b0190565b60206124b8918160405193828580945193849201610527565b8101601181520301902090565b6020906124df928260405194838680955193849201610527565b82019081520301902090565b346103e1576020611d49610d1361250136610bad565b919061249f565b346103e15760203660031901126103e15761252161066a565b600a546001600160a01b039061253a90821633146125ce565b81161561254a576106ed90612619565b60405162461bcd60e51b815260206004820152602660248201527f4f776e61626c653a206e6577206f776e657220697320746865207a65726f206160448201526564647265737360d01b6064820152608490fd5b346103e1575f3660031901126103e1576125c360018060a01b03600a541633146125ce565b600b80546001019055005b156125d557565b606460405162461bcd60e51b815260206004820152602060248201527f4f776e61626c653a2063616c6c6572206973206e6f7420746865206f776e65726044820152fd5b600a80546001600160a01b039283166001600160a01b0319821681179092559091167f8be0079c531659141344cd1fd0a4f28419497f9722a3daafe3b4186f6b6457e05f80a3565b6001600160a01b0316801561267f575f52600360205260405f205490565b60405162461bcd60e51b815260206004820152602a60248201527f4552433732313a2062616c616e636520717565727920666f7220746865207a65604482015269726f206164647265737360b01b6064820152608490fd5b5f908152600260205260409020546001600160a01b031680156126f75790565b60405162461bcd60e51b815260206004820152602960248201527f4552433732313a206f776e657220717565727920666f72206e6f6e657869737460448201526832b73a103a37b5b2b760b91b6064820152608490fd5b6040519061275b82610ace565b5f8252565b1561276757565b60405162461bcd60e51b815260206004820152603860248201527f4552433732313a20617070726f76652063616c6c6572206973206e6f74206f776044820152771b995c881b9bdc88185c1c1c9bdd995908199bdc88185b1b60421b6064820152608490fd5b6127d68161296b565b156127f5575f908152600460205260409020546001600160a01b031690565b60405162461bcd60e51b815260206004820152602c60248201527f4552433732313a20617070726f76656420717565727920666f72206e6f6e657860448201526b34b9ba32b73a103a37b5b2b760a11b6064820152608490fd5b1561285657565b60405162461bcd60e51b815260206004820152603160248201527f4552433732313a207472616e736665722063616c6c6572206973206e6f74206f6044820152701ddb995c881b9bdc88185c1c1c9bdd9959607a1b6064820152608490fd5b9091610b329260405192610faa84610ace565b91610b3293916128ef936128df610a618433612987565b6128ea838383612b09565b612e67565b612947565b60809060208152603260208201527f4552433732313a207472616e7366657220746f206e6f6e20455243373231526560408201527131b2b4bb32b91034b6b83632b6b2b73a32b960711b60608201520190565b1561294e57565b60405162461bcd60e51b815280612967600482016128f4565b0390fd5b5f908152600260205260409020546001600160a01b0316151590565b6129908261296b565b15612a085761299e826126d7565b6001600160a01b0382811682821681149490919085156129f0575b50505082156129c757505090565b6001600160a01b03165f90815260056020526040902060ff92506129eb9190610711565b541690565b6129fd91929395506127cd565b1614915f80806129b9565b60405162461bcd60e51b815260206004820152602c60248201527f4552433732313a206f70657261746f7220717565727920666f72206e6f6e657860448201526b34b9ba32b73a103a37b5b2b760a11b6064820152608490fd5b15612a6957565b60405162461bcd60e51b8152602060048201526024808201527f4552433732313a207472616e7366657220746f20746865207a65726f206164646044820152637265737360e01b6064820152608490fd5b634e487b7160e01b5f52601160045260245ffd5b5f19810191908211612adc57565b612aba565b91908203918211612adc57565b9060018201809211612adc57565b91908201809211612adc57565b90612b13836126d7565b6001600160a01b038381169290918216839003612bf257612b6c612bcc92821694612b3f861515612a62565b612b4a878483612ecd565b612b5387612c49565b6001600160a01b03165f90815260036020526040902090565b612b768154612ace565b90556001600160a01b0381165f908152600360205260409020612b998154612aee565b9055612bad855f52600260205260405f2090565b80546001600160a01b0319166001600160a01b03909216919091179055565b7fddf252ad1be2c89b69c2b068fc378daa952ba7f163c4a11628f55a4df523b3ef5f80a4565b60405162461bcd60e51b815260206004820152602960248201527f4552433732313a207472616e73666572206f6620746f6b656e2074686174206960448201526839903737ba1037bbb760b91b6064820152608490fd5b5f81815260046020526040812080546001600160a01b03191690556001600160a01b03612c75836126d7565b167f8c5be1e5ebec7d5bd14f71427d1e84f3dd0314c0f7b2291e5b200ac8c7c3b9258280a4565b5f82815260046020526040902080546001600160a01b0319166001600160a01b0383161790556001600160a01b0380612cd4846126d7565b169116907f8c5be1e5ebec7d5bd14f71427d1e84f3dd0314c0f7b2291e5b200ac8c7c3b9255f80a4565b908160209103126103e1575161057e816103cf565b61057e939260809260018060a01b031682525f602083015260408201528160608201520190610548565b6001600160a01b03918216815291166020820152604081019190915260806060820181905261057e92910190610548565b6040513d5f823e3d90fd5b3d15612da3573d90612d8a82610b41565b91612d986040519384610b04565b82523d5f602084013e565b606090565b909190803b15612e5f57612dd96020915f93604051948580948193630a85bd0160e11b998a84523360048501612d13565b03926001600160a01b03165af15f9181612e2f575b50612e2157612dfb612d79565b80519081612e1c5760405162461bcd60e51b815280612967600482016128f4565b602001fd5b6001600160e01b0319161490565b612e5191925060203d8111612e58575b612e498183610b04565b810190612cfe565b905f612dee565b503d612e3f565b505050600190565b92909190823b15612e9957612dd9926020925f604051809681958294630a85bd0160e11b9a8b85523360048601612d3d565b50505050600190565b90612eac81613080565b6001600160a01b038216612ec457610b329150613113565b610b3291612fda565b9091906001600160a01b038082169182612f075750612eeb83613080565b831680612efe575050610b329150613113565b03612ec4575050565b8185168303612f17575b50612eeb565b612f2081612661565b5f198101908111612adc57612f8490612f775f9387855260076020526040852054838103612f8b575b5084612f5d895f52600760205260405f2090565b556001600160a01b03165f90815260066020526040902090565b905f5260205260405f2090565b555f612f11565b878652600660205260408620848752602052612fd3604087205480612fc484612f778760018060a01b03165f52600660205260405f2090565b555f52600760205260405f2090565b555f612f49565b604090612fe681612661565b925f9160018060a01b0316825260066020528282208483526020528083832055815260076020522055565b601354600160401b811015610a9b5760018101806013558110156107ae5760135f525f805160206145838339815191520155565b80549190600160401b831015610a9b5782613068916001610b3295018155610854565b90919082549060031b91821b915f19901b1916179055565b600854815f5260096020528060405f2055600160401b811015610a9b5760018101806008558110156107ae5760085f527ff3f7a9fe364faab93b216da50a3214154f22a0a2b415b23a84c8169e8b636ee30155565b60135480156130ff575f198181019190818310156107ae575f916013835260208320010155601355565b634e487b7160e01b5f52603160045260245ffd5b600880545f19929083810190808211612adc575f9280845260096020528160408520549310156107ae57848452858260208620010154918310156107ae5783926131736131829387865280836020882001555f52600960205260405f2090565b555f52600960205260405f2090565b5581549283156131a55780840193808510156107ae578383526020832001015555565b634e487b7160e01b82526031600452602482fd5b5f198114612adc5760010190565b81156131d1570490565b634e487b7160e01b5f52601260045260245ffd5b9081518110156107ae570160200190565b801561329257805f908282935b61327e575061321183610b41565b9261321f6040519485610b04565b80845281601f1961322f83610b41565b013660208701375b6132415750505090565b61324a90612ace565b90600a9060308282068101809111612adc5760f81b6001600160f81b031916841a61327584876131e5565b53049081613237565b9261328a600a916131b9565b930480613203565b5060405161329f81610ae9565b60018152600360fc1b602082015290565b156132b757565b60405162461bcd60e51b815260206004820152602860248201527f49504653206861736820616c72656164792075736564207769746820746869736044820152670814dd589a9958dd60c21b6064820152608490fd5b908160209103126103e1575161057e81611d52565b1561332957565b60405162461bcd60e51b815260206004820152601660248201527514dd589a9958dd08111bd95cc8139bdd08115e1a5cdd60521b6044820152606490fd5b908160209103126103e1575190565b6040519061338382610ae9565b60098252684e6f2052657669657760b81b6020830152565b156133a257565b60405162461bcd60e51b8152602060048201526013602482015272119959481d1c985b9cd9995c8819985a5b1959606a1b6044820152606490fd5b8181106133e8575050565b5f81556001016133dd565b9190601f811161340257505050565b610b32925f5260205f20906020601f840160051c8301931061342c575b601f0160051c01906133dd565b909150819061341f565b91909182516001600160401b038111610a9b5761345d816134578454612170565b846133f3565b602080601f83116001146134975750819293945f9261348c575b50508160011b915f199060031b1c1916179055565b015190505f80613477565b90601f198316956134ab855f5260205f2090565b925f905b8882106134e6575050836001959697106134ce575b505050811b019055565b01515f1960f88460031b161c191690555f80806134c4565b806001859682949686015181550195019301906134af565b90610100600891613510815185613436565b613521602082015160018601613436565b60408101516002850180546001600160a01b0319166001600160a01b03909216919091179055613558606082015160038601613436565b613569608082015160048601613436565b61357a60a082015160058601613436565b61358b60c082015160068601613436565b60e081015160078501550151910155565b9491936135df6135fb946135d161057e99976135c36135ed9660c08c5260c08c0190610548565b908a820360208c0152610548565b9088820360408a0152610548565b908682036060880152610548565b908482036080860152610548565b9160a0818403910152610548565b9392919261362961362261361c8361249f565b876124c5565b54156132b0565b60185461363e906001600160a01b0316610e89565b91604093845196632dac55d960e01b8852602097888180613662886004830161056d565b0381895afa908115610f1957613685916001915f916139d8575b50151514613322565b600b54978087518097631ee44dff60e11b825281806136a78a6004830161056d565b03915afa8015610f195789965f916139bb575b5080159182156139aa576136cc613376565b925b6136d6610b34565b858152828101889052338b820152928b60608501528660808501528860a08501528460c08501524260e085015261010084015215613792575b5090869761376c61378c9594936137477fe67e8665372d778117094ef9242f82e2fb28fc6328b119d80a5ab6520949cb3d9a336139f5565b6137556001600b5401600b55565b6137678b5f52601060205260405f2090565b6134fe565b8861377f6137798961249f565b856124c5565b5551958695339a8761359c565b0390a390565b9096505f816137e46137b2610e896015989796985460018060a01b031690565b601b548c516323b872dd60e01b8152336004820152306024820152604481019190915293849283919082906064820190565b03925af18015610f19576137ff915f9161398d575b5061339b565b60155461385290829061381a906001600160a01b0316610e89565b601754601b548c5163095ea7b360e01b81526001600160a01b03909216600483015260248201529283919082905f9082906044820190565b03925af18015610f195761396f575b5050601654613878906001600160a01b0316610e89565b92601e54601b54853b156103e157895163085f452560e41b815260048101929092526024820152935f908590604490829084905af1978815610f195761376c7fe67e8665372d778117094ef9242f82e2fb28fc6328b119d80a5ab6520949cb3d9861378c968d9b613956575b506138ee8b613011565b6138f9601354612ace565b61390b8c5f52601260205260405f2090565b557f0e151b6219a1f85bf5e747c9bfffda79d67773b9da98a8251092172802c9bcbe613938601354612ace565b84518d81526020810191909152604090a1929394955050979661370f565b8061396361396992610abb565b8061046d565b5f6138e4565b8161398592903d10610f1257610f0a8183610b04565b505f80613861565b6139a49150833d8511610f1257610f0a8183610b04565b5f6137f9565b6139b56118096107cb565b926136ce565b6139d29150823d84116118dc576118cd8183610b04565b5f6136ba565b6139ef91508b3d8d11610f1257610f0a8183610b04565b5f61367c565b90604051613a0281610ace565b5f81526001600160a01b038316918215613ade57613a1f8161296b565b613a995783816128ef94613a3682610b3298612ea2565b6001600160a01b0383165f908152600360205260409020613a578154612aee565b9055613a6f83612bad845f52600260205260405f2090565b5f7fddf252ad1be2c89b69c2b068fc378daa952ba7f163c4a11628f55a4df523b3ef8180a4612da8565b60405162461bcd60e51b815260206004820152601c60248201527f4552433732313a20746f6b656e20616c7265616479206d696e746564000000006044820152606490fd5b606460405162461bcd60e51b815260206004820152602060248201527f4552433732313a206d696e7420746f20746865207a65726f20616464726573736044820152fd5b15613b2957565b60405162461bcd60e51b8152602060048201526016602482015275105c9d1a58db1948191bd95cc81b9bdd08195e1a5cdd60521b6044820152606490fd5b60209081818403126103e15780516001600160401b03918282116103e157019083601f830112156103e1578151613b9d8161209d565b94604092613bad84519788610b04565b828752858088019360051b860101948286116103e157868101935b868510613bda57505050505050505090565b84518381116103e15782019084603f830112156103e1578882015190613bff82610b41565b613c0b89519182610b04565b828152868984860101116103e157613c2c8b949385948b8685019101610527565b815201940193613bc8565b90602061057e9281815201906121a8565b15613c4f57565b606460405162461bcd60e51b815260206004820152602060248201527f436f6e73656e736f7573206d75732062652067726561746572207468616e20306044820152fd5b15613c9a57565b60405162461bcd60e51b8152602060048201526018602482015277436f6e73656e736f7573206e6f7420496e20426f756e647360401b6044820152606490fd5b15613ce157565b60405162461bcd60e51b8152602060048201526024808201527f596f7527766520616c726561647920726576696577656420746869732061727460448201526369636c6560e01b6064820152608490fd5b6001600160a01b03909116815260406020820181905261057e929101906121a8565b80518210156107ae5760209160051b010190565b815181546001600160a01b0319166001600160a01b039190911617815590600190818301602080830151938451916001600160401b038311610a9b57613db883613db28654612170565b866133f3565b80601f8411600114613e1657509180809260809695946004985f94613e0b575b50501b915f199060031b1c19161790555b60408101516002850155613e04606082015160038601613436565b0151910155565b015192505f80613dd8565b91939495601f198416613e2c875f5260205f2090565b935f905b828210613e715750509160049795939185608098969410613e59575b505050811b019055613de9565b01515f1960f88460031b161c191690555f8080613e4c565b808886978294978701518155019601940190613e30565b919261057e9593613eab928452602084015260a0604084015260a0830190610548565b9260608201526080818403910152610548565b908160609103126103e1578051916040602083015192015190565b906040519182815491828252602092838301915f52835f20935f905b828210613f0b57505050610b3292500383610b04565b855484526001958601958895509381019390910190613ef5565b91908260409103126103e1576020825192015190565b90606482029180830460641490151715612adc57565b90815f03918083055f191490151715612adc57565b908160209103126103e1573590565b600160ff1b8114612adc575f0390565b91909182811461405e57613f998354612170565b6001600160401b038111610a9b57613fb5816134578454612170565b5f93601f8211600114613fed5793819293945f92613fe25750508160011b915f199060031b1c1916179055565b015490505f80613477565b613fff601f198316915f5260205f2090565b9461400d845f5260205f2090565b91815b8181106140465750958360019596971061402e57505050811b019055565b01545f1960f88460031b161c191690555f80806134c4565b87830154845560019384019390920191602001614010565b509050565b6020821461406f575050565b61407b91810190613f66565b5f8082131561426a575060015b81151580614234575b80614216575b806141fb575b6140a5575050565b5f9161415a9115156001036141eb576140da6140bf61081f565b5060066140d4845f52601060205260405f2090565b01613f85565b807f98c0c222d59ec9e997128b263105002de2747b52c5c56a9f8468e6c96c44c0ee6141206006614113845f52601060205260405f2090565b0160405191829182613c37565b0390a2614135815f52601260205260405f2090565b546013549061414382612ace565b8103614163575b50505f52601260205260405f2090565b55610b326130d5565b6141a461419b6114976141967f0e151b6219a1f85bf5e747c9bfffda79d67773b9da98a8251092172802c9bcbe95612ace565b610796565b61306883610796565b806141c76141b9611497614196601354612ace565b5f52601260205260405f2090565b556141d461149782610796565b604080519182526020820192909252a15f8061414a565b6141f66140bf6107ea565b6140da565b5061420e825f52601260205260405f2090565b54151561409d565b50600761422b835f52601060205260405f2090565b01541515614097565b50614262600761424c845f52601060205260405f2090565b015460086114c2855f52601060205260405f2090565b421015614091565b6142749091613f75565b90614088565b1561428157565b60405162461bcd60e51b815260206004820152601a60248201527f4e6f7420746865206f776e6572206f662074686520746f6b656e0000000000006044820152606490fd5b156142cd57565b60405162461bcd60e51b815260206004820152602160248201527f495046532068617368206e6f7420617474616368656420746f2041727469636c6044820152606560f81b6064820152608490fd5b906008614327610b34565b9261433181612239565b845261433f60018201612239565b602085015260028101546001600160a01b0316604085015261436360038201612239565b606085015261437460048201612239565b608085015261438560058201612239565b60a085015261439660068201612239565b60c0850152600781015460e08501520154610100830152565b6143c460018060a01b03600a541633146125ce565b805190600160401b8211610a9b57600f5482600f55808310614427575b50600f5f526020908101905f805160206145a38339815191525f925b84841061440b575050505050565b6001838261441b83945186613436565b019201930192906143fd565b600f5f9081525f805160206145a38339815191529182019184015b8281106144505750506143e1565b8061445d60019254612170565b8061446a575b5001614442565b601f9081811184146144825750508281555b5f614463565b836144a292614494855f5260205f2090565b920160051c820191016133dd565b5f818152602081208183555561447c565b156144ba57565b60405162461bcd60e51b815260206004820152601b60248201527f563220636f6e74726163742061646472657373206e6f742073657400000000006044820152606490fd5b96939461454a6145749661453c6145669661057e9c9a96614558968d5260018060a01b031660208d015260408c61010091829101528c0190610548565b908a820360608c0152610548565b9088820360808a0152610548565b9086820360a0880152610548565b9084820360c0860152610548565b9160e081840391015261054856fe66de8ffda797e3de9c05e8fc57b3bf0ec28a930d40b0d285d93c06501cf6a0908d1108e10bcb7c27dddfc02ed9d693a074039d026cf4ea4240b40f7d581ac802a26469706673582212204f357cba2435081d1582a87ee40b687d63289b71aa1c6b1dc51f0da9557202ff64736f6c63430008140033290decd9548b62a8d60345a988386fc84ba6bc95484008f6362f93160ef3e563b10e2d527612073b26eecdfd717e6a320cf44b4afac2b0732d9fcbe2b7fa0cf68d1108e10bcb7c27dddfc02ed9d693a074039d026cf4ea4240b40f7d581ac802",
  "linkReferences": {},
  "deployedLinkReferences": {}
}