{
  "_format": "hh-sol-artifact-1",
  "contractName": "learntgetherArticles",
  "sourceName": "contracts/learntgehterArticles.sol",
  "abi": [
    {
      "inputs": [
        {
          "internalType": "address",
          "name": "_CommunitiesAddress",
          "type": "address"
        },
        {
          "internalType": "address",
          "name": "_MembersContract",
          "type": "address"
        },
        {
          "internalType": "uint256",
          "name": "_fee",
          "type": "uint256"
        }
      ],
      "stateMutability": "nonpayable",
      "type": "constructor"
    },
    {
      "anonymous": false,
      "inputs": [
        {
          "indexed": false,
          "internalType": "uint256",
          "name": "communitySubmissionId",
          "type": "uint256"
        },
        {
          "indexed": false,
          "internalType": "uint256",
          "name": "index",
          "type": "uint256"
        }
      ],
      "name": "ActiveSubmissionsIndexUpdated",
      "type": "event"
    },
    {
      "anonymous": false,
      "inputs": [
        {
          "indexed": true,
          "internalType": "address",
          "name": "owner",
          "type": "address"
        },
        {
          "indexed": true,
          "internalType": "address",
          "name": "approved",
          "type": "address"
        },
        {
          "indexed": true,
          "internalType": "uint256",
          "name": "tokenId",
          "type": "uint256"
        }
      ],
      "name": "Approval",
      "type": "event"
    },
    {
      "anonymous": false,
      "inputs": [
        {
          "indexed": true,
          "internalType": "address",
          "name": "owner",
          "type": "address"
        },
        {
          "indexed": true,
          "internalType": "address",
          "name": "operator",
          "type": "address"
        },
        {
          "indexed": false,
          "internalType": "bool",
          "name": "approved",
          "type": "bool"
        }
      ],
      "name": "ApprovalForAll",
      "type": "event"
    },
    {
      "anonymous": false,
      "inputs": [
        {
          "indexed": true,
          "internalType": "uint256",
          "name": "articleId",
          "type": "uint256"
        },
        {
          "indexed": false,
          "internalType": "string",
          "name": "ipfsHash",
          "type": "string"
        },
        {
          "indexed": false,
          "internalType": "string",
          "name": "title",
          "type": "string"
        },
        {
          "indexed": false,
          "internalType": "string",
          "name": "description",
          "type": "string"
        }
      ],
      "name": "ArticleInfo",
      "type": "event"
    },
    {
      "anonymous": false,
      "inputs": [
        {
          "indexed": true,
          "internalType": "uint256",
          "name": "articleId",
          "type": "uint256"
        },
        {
          "indexed": true,
          "internalType": "address",
          "name": "authorAddress",
          "type": "address"
        },
        {
          "indexed": false,
          "internalType": "string",
          "name": "authorName",
          "type": "string"
        }
      ],
      "name": "ArticleMintedTo",
      "type": "event"
    },
    {
      "anonymous": false,
      "inputs": [
        {
          "indexed": true,
          "internalType": "uint256",
          "name": "communtiySubmissionId",
          "type": "uint256"
        },
        {
          "indexed": true,
          "internalType": "string",
          "name": "communityName",
          "type": "string"
        },
        {
          "indexed": false,
          "internalType": "uint256",
          "name": "timestamp",
          "type": "uint256"
        },
        {
          "indexed": false,
          "internalType": "uint256",
          "name": "consensousTime",
          "type": "uint256"
        }
      ],
      "name": "CommunitySubmitted",
      "type": "event"
    },
    {
      "anonymous": false,
      "inputs": [
        {
          "indexed": true,
          "internalType": "uint256",
          "name": "communitySubmissionId",
          "type": "uint256"
        },
        {
          "indexed": false,
          "internalType": "uint256",
          "name": "articleId",
          "type": "uint256"
        },
        {
          "indexed": false,
          "internalType": "string",
          "name": "newConsensus",
          "type": "string"
        }
      ],
      "name": "ConsensusUpdated",
      "type": "event"
    },
    {
      "anonymous": false,
      "inputs": [
        {
          "indexed": false,
          "internalType": "uint256",
          "name": "articleId",
          "type": "uint256"
        },
        {
          "indexed": false,
          "internalType": "string",
          "name": "keyword",
          "type": "string"
        }
      ],
      "name": "Keywords",
      "type": "event"
    },
    {
      "anonymous": false,
      "inputs": [
        {
          "indexed": true,
          "internalType": "address",
          "name": "previousOwner",
          "type": "address"
        },
        {
          "indexed": true,
          "internalType": "address",
          "name": "newOwner",
          "type": "address"
        }
      ],
      "name": "OwnershipTransferred",
      "type": "event"
    },
    {
      "anonymous": false,
      "inputs": [
        {
          "indexed": true,
          "internalType": "uint256",
          "name": "reviewId",
          "type": "uint256"
        },
        {
          "indexed": true,
          "internalType": "uint256",
          "name": "communitySubmissionId",
          "type": "uint256"
        },
        {
          "indexed": true,
          "internalType": "address",
          "name": "member",
          "type": "address"
        }
      ],
      "name": "ReviewCreated",
      "type": "event"
    },
    {
      "anonymous": false,
      "inputs": [
        {
          "indexed": true,
          "internalType": "uint256",
          "name": "reviewId",
          "type": "uint256"
        },
        {
          "indexed": false,
          "internalType": "string",
          "name": "consensus",
          "type": "string"
        },
        {
          "indexed": false,
          "internalType": "uint256",
          "name": "creds",
          "type": "uint256"
        },
        {
          "indexed": false,
          "internalType": "string",
          "name": "ipfsHash",
          "type": "string"
        }
      ],
      "name": "ReviewSubmitted",
      "type": "event"
    },
    {
      "anonymous": false,
      "inputs": [
        {
          "indexed": true,
          "internalType": "address",
          "name": "from",
          "type": "address"
        },
        {
          "indexed": true,
          "internalType": "address",
          "name": "to",
          "type": "address"
        },
        {
          "indexed": true,
          "internalType": "uint256",
          "name": "tokenId",
          "type": "uint256"
        }
      ],
      "name": "Transfer",
      "type": "event"
    },
    {
      "anonymous": false,
      "inputs": [
        {
          "indexed": true,
          "internalType": "uint256",
          "name": "articleId",
          "type": "uint256"
        },
        {
          "indexed": true,
          "internalType": "uint256",
          "name": "communitySubmissionId",
          "type": "uint256"
        }
      ],
      "name": "articleSubmission",
      "type": "event"
    },
    {
      "inputs": [
        {
          "internalType": "uint256",
          "name": "",
          "type": "uint256"
        }
      ],
      "name": "ActiveSubmissions",
      "outputs": [
        {
          "internalType": "uint256",
          "name": "",
          "type": "uint256"
        }
      ],
      "stateMutability": "view",
      "type": "function"
    },
    {
      "inputs": [
        {
          "internalType": "uint256",
          "name": "",
          "type": "uint256"
        }
      ],
      "name": "ActiveSubmissionsIndexes",
      "outputs": [
        {
          "internalType": "uint256",
          "name": "",
          "type": "uint256"
        }
      ],
      "stateMutability": "view",
      "type": "function"
    },
    {
      "inputs": [],
      "name": "AutomationContract",
      "outputs": [
        {
          "internalType": "contract ChainlinkAutomationInterface",
          "name": "",
          "type": "address"
        }
      ],
      "stateMutability": "view",
      "type": "function"
    },
    {
      "inputs": [],
      "name": "CommunitiesContract",
      "outputs": [
        {
          "internalType": "contract learntgetherCommunitiesInterface",
          "name": "",
          "type": "address"
        }
      ],
      "stateMutability": "view",
      "type": "function"
    },
    {
      "inputs": [
        {
          "internalType": "uint256",
          "name": "",
          "type": "uint256"
        }
      ],
      "name": "CommunitySubmissionToArticle",
      "outputs": [
        {
          "internalType": "uint256",
          "name": "",
          "type": "uint256"
        }
      ],
      "stateMutability": "view",
      "type": "function"
    },
    {
      "inputs": [
        {
          "internalType": "uint256",
          "name": "",
          "type": "uint256"
        }
      ],
      "name": "CommunitySubmissions",
      "outputs": [
        {
          "internalType": "string",
          "name": "communityName",
          "type": "string"
        },
        {
          "internalType": "string",
          "name": "consensousType",
          "type": "string"
        },
        {
          "internalType": "uint256",
          "name": "timestamp",
          "type": "uint256"
        },
        {
          "internalType": "uint256",
          "name": "consensousTime",
          "type": "uint256"
        }
      ],
      "stateMutability": "view",
      "type": "function"
    },
    {
      "inputs": [],
      "name": "MembersContract",
      "outputs": [
        {
          "internalType": "contract learntgetherMembersInterface",
          "name": "",
          "type": "address"
        }
      ],
      "stateMutability": "view",
      "type": "function"
    },
    {
      "inputs": [
        {
          "internalType": "uint256",
          "name": "_articleId",
          "type": "uint256"
        },
        {
          "internalType": "string",
          "name": "_keyword",
          "type": "string"
        }
      ],
      "name": "addKeyword",
      "outputs": [],
      "stateMutability": "nonpayable",
      "type": "function"
    },
    {
      "inputs": [
        {
          "internalType": "address",
          "name": "to",
          "type": "address"
        },
        {
          "internalType": "uint256",
          "name": "tokenId",
          "type": "uint256"
        }
      ],
      "name": "approve",
      "outputs": [],
      "stateMutability": "nonpayable",
      "type": "function"
    },
    {
      "inputs": [
        {
          "internalType": "uint256",
          "name": "",
          "type": "uint256"
        },
        {
          "internalType": "string",
          "name": "",
          "type": "string"
        }
      ],
      "name": "articleCommunities",
      "outputs": [
        {
          "internalType": "uint256",
          "name": "",
          "type": "uint256"
        }
      ],
      "stateMutability": "view",
      "type": "function"
    },
    {
      "inputs": [
        {
          "internalType": "uint256",
          "name": "",
          "type": "uint256"
        },
        {
          "internalType": "uint256",
          "name": "",
          "type": "uint256"
        }
      ],
      "name": "articleSubmissionList",
      "outputs": [
        {
          "internalType": "uint256",
          "name": "",
          "type": "uint256"
        }
      ],
      "stateMutability": "view",
      "type": "function"
    },
    {
      "inputs": [
        {
          "internalType": "uint256",
          "name": "",
          "type": "uint256"
        }
      ],
      "name": "articles",
      "outputs": [
        {
          "internalType": "string",
          "name": "ipfsHash",
          "type": "string"
        },
        {
          "internalType": "string",
          "name": "title",
          "type": "string"
        },
        {
          "internalType": "address",
          "name": "authorAddress",
          "type": "address"
        },
        {
          "internalType": "string",
          "name": "authorName",
          "type": "string"
        },
        {
          "internalType": "string",
          "name": "description",
          "type": "string"
        }
      ],
      "stateMutability": "view",
      "type": "function"
    },
    {
      "inputs": [
        {
          "internalType": "address",
          "name": "owner",
          "type": "address"
        }
      ],
      "name": "balanceOf",
      "outputs": [
        {
          "internalType": "uint256",
          "name": "",
          "type": "uint256"
        }
      ],
      "stateMutability": "view",
      "type": "function"
    },
    {
      "inputs": [
        {
          "internalType": "bytes",
          "name": "",
          "type": "bytes"
        }
      ],
      "name": "checkUpKeep",
      "outputs": [
        {
          "internalType": "bool",
          "name": "upkeepNeeded",
          "type": "bool"
        },
        {
          "internalType": "bytes",
          "name": "performData",
          "type": "bytes"
        }
      ],
      "stateMutability": "view",
      "type": "function"
    },
    {
      "inputs": [],
      "name": "consensousFee",
      "outputs": [
        {
          "internalType": "uint256",
          "name": "",
          "type": "uint256"
        }
      ],
      "stateMutability": "view",
      "type": "function"
    },
    {
      "inputs": [],
      "name": "csCounter",
      "outputs": [
        {
          "internalType": "uint256",
          "name": "",
          "type": "uint256"
        }
      ],
      "stateMutability": "view",
      "type": "function"
    },
    {
      "inputs": [],
      "name": "getActiveSubmissions",
      "outputs": [
        {
          "internalType": "uint256[]",
          "name": "",
          "type": "uint256[]"
        }
      ],
      "stateMutability": "view",
      "type": "function"
    },
    {
      "inputs": [
        {
          "internalType": "uint256",
          "name": "_articleId",
          "type": "uint256"
        }
      ],
      "name": "getActiveSubmissionsIndex",
      "outputs": [
        {
          "internalType": "uint256",
          "name": "",
          "type": "uint256"
        }
      ],
      "stateMutability": "view",
      "type": "function"
    },
    {
      "inputs": [],
      "name": "getActiveSubmissionsLength",
      "outputs": [
        {
          "internalType": "uint256",
          "name": "",
          "type": "uint256"
        }
      ],
      "stateMutability": "view",
      "type": "function"
    },
    {
      "inputs": [
        {
          "internalType": "uint256",
          "name": "tokenId",
          "type": "uint256"
        }
      ],
      "name": "getApproved",
      "outputs": [
        {
          "internalType": "address",
          "name": "",
          "type": "address"
        }
      ],
      "stateMutability": "view",
      "type": "function"
    },
    {
      "inputs": [
        {
          "internalType": "string",
          "name": "_ipfsHash",
          "type": "string"
        }
      ],
      "name": "getArticleByHash",
      "outputs": [
        {
          "components": [
            {
              "internalType": "string",
              "name": "ipfsHash",
              "type": "string"
            },
            {
              "internalType": "string",
              "name": "title",
              "type": "string"
            },
            {
              "internalType": "address",
              "name": "authorAddress",
              "type": "address"
            },
            {
              "internalType": "string",
              "name": "authorName",
              "type": "string"
            },
            {
              "internalType": "string",
              "name": "description",
              "type": "string"
            }
          ],
          "internalType": "struct learntgetherArticles.Article",
          "name": "",
          "type": "tuple"
        }
      ],
      "stateMutability": "view",
      "type": "function"
    },
    {
      "inputs": [
        {
          "internalType": "uint256",
          "name": "_submissionId",
          "type": "uint256"
        }
      ],
      "name": "getArticleConsesous",
      "outputs": [
        {
          "internalType": "string",
          "name": "consensus",
          "type": "string"
        }
      ],
      "stateMutability": "view",
      "type": "function"
    },
    {
      "inputs": [
        {
          "internalType": "string",
          "name": "_ipfsHash",
          "type": "string"
        }
      ],
      "name": "getArticleIdByHash",
      "outputs": [
        {
          "internalType": "uint256",
          "name": "",
          "type": "uint256"
        }
      ],
      "stateMutability": "view",
      "type": "function"
    },
    {
      "inputs": [
        {
          "internalType": "uint256",
          "name": "_reviewId",
          "type": "uint256"
        }
      ],
      "name": "getReview",
      "outputs": [
        {
          "components": [
            {
              "internalType": "address",
              "name": "member",
              "type": "address"
            },
            {
              "internalType": "string",
              "name": "ipfsHash",
              "type": "string"
            },
            {
              "internalType": "uint256",
              "name": "consensous",
              "type": "uint256"
            },
            {
              "internalType": "string",
              "name": "consensousType",
              "type": "string"
            },
            {
              "internalType": "uint256",
              "name": "creds",
              "type": "uint256"
            }
          ],
          "internalType": "struct learntgetherArticles.Review",
          "name": "",
          "type": "tuple"
        }
      ],
      "stateMutability": "view",
      "type": "function"
    },
    {
      "inputs": [
        {
          "internalType": "uint256",
          "name": "_reviewid",
          "type": "uint256"
        }
      ],
      "name": "getReviewConsenous",
      "outputs": [
        {
          "internalType": "uint256",
          "name": "consensous",
          "type": "uint256"
        },
        {
          "internalType": "uint256",
          "name": "creds",
          "type": "uint256"
        }
      ],
      "stateMutability": "view",
      "type": "function"
    },
    {
      "inputs": [
        {
          "internalType": "uint256",
          "name": "_submissionId",
          "type": "uint256"
        }
      ],
      "name": "getReviewsForSubmission",
      "outputs": [
        {
          "internalType": "uint256[]",
          "name": "",
          "type": "uint256[]"
        }
      ],
      "stateMutability": "view",
      "type": "function"
    },
    {
      "inputs": [
        {
          "internalType": "uint256",
          "name": "",
          "type": "uint256"
        },
        {
          "internalType": "address",
          "name": "",
          "type": "address"
        }
      ],
      "name": "hasReviewed",
      "outputs": [
        {
          "internalType": "bool",
          "name": "",
          "type": "bool"
        }
      ],
      "stateMutability": "view",
      "type": "function"
    },
    {
      "inputs": [],
      "name": "incrementToken",
      "outputs": [],
      "stateMutability": "nonpayable",
      "type": "function"
    },
    {
      "inputs": [
        {
          "internalType": "string",
          "name": "",
          "type": "string"
        }
      ],
      "name": "ipfsHashToTokenId",
      "outputs": [
        {
          "internalType": "uint256",
          "name": "",
          "type": "uint256"
        }
      ],
      "stateMutability": "view",
      "type": "function"
    },
    {
      "inputs": [
        {
          "internalType": "address",
          "name": "owner",
          "type": "address"
        },
        {
          "internalType": "address",
          "name": "operator",
          "type": "address"
        }
      ],
      "name": "isApprovedForAll",
      "outputs": [
        {
          "internalType": "bool",
          "name": "",
          "type": "bool"
        }
      ],
      "stateMutability": "view",
      "type": "function"
    },
    {
      "inputs": [],
      "name": "maxReviews",
      "outputs": [
        {
          "internalType": "uint256",
          "name": "",
          "type": "uint256"
        }
      ],
      "stateMutability": "view",
      "type": "function"
    },
    {
      "inputs": [
        {
          "internalType": "string",
          "name": "_ipfsHash",
          "type": "string"
        },
        {
          "internalType": "string",
          "name": "_title",
          "type": "string"
        },
        {
          "internalType": "string",
          "name": "_authorName",
          "type": "string"
        },
        {
          "internalType": "string",
          "name": "_description",
          "type": "string"
        }
      ],
      "name": "mintArticle",
      "outputs": [
        {
          "internalType": "uint256",
          "name": "",
          "type": "uint256"
        }
      ],
      "stateMutability": "nonpayable",
      "type": "function"
    },
    {
      "inputs": [],
      "name": "name",
      "outputs": [
        {
          "internalType": "string",
          "name": "",
          "type": "string"
        }
      ],
      "stateMutability": "view",
      "type": "function"
    },
    {
      "inputs": [],
      "name": "openVoteTime",
      "outputs": [
        {
          "internalType": "uint256",
          "name": "",
          "type": "uint256"
        }
      ],
      "stateMutability": "view",
      "type": "function"
    },
    {
      "inputs": [],
      "name": "owner",
      "outputs": [
        {
          "internalType": "address",
          "name": "",
          "type": "address"
        }
      ],
      "stateMutability": "view",
      "type": "function"
    },
    {
      "inputs": [
        {
          "internalType": "uint256",
          "name": "tokenId",
          "type": "uint256"
        }
      ],
      "name": "ownerOf",
      "outputs": [
        {
          "internalType": "address",
          "name": "",
          "type": "address"
        }
      ],
      "stateMutability": "view",
      "type": "function"
    },
    {
      "inputs": [
        {
          "internalType": "bytes",
          "name": "_performData",
          "type": "bytes"
        }
      ],
      "name": "performUpkeep",
      "outputs": [],
      "stateMutability": "nonpayable",
      "type": "function"
    },
    {
      "inputs": [],
      "name": "renounceOwnership",
      "outputs": [],
      "stateMutability": "nonpayable",
      "type": "function"
    },
    {
      "inputs": [],
      "name": "reviewCounter",
      "outputs": [
        {
          "internalType": "uint256",
          "name": "",
          "type": "uint256"
        }
      ],
      "stateMutability": "view",
      "type": "function"
    },
    {
      "inputs": [
        {
          "internalType": "uint256",
          "name": "",
          "type": "uint256"
        }
      ],
      "name": "reviews",
      "outputs": [
        {
          "internalType": "address",
          "name": "member",
          "type": "address"
        },
        {
          "internalType": "string",
          "name": "ipfsHash",
          "type": "string"
        },
        {
          "internalType": "uint256",
          "name": "consensous",
          "type": "uint256"
        },
        {
          "internalType": "string",
          "name": "consensousType",
          "type": "string"
        },
        {
          "internalType": "uint256",
          "name": "creds",
          "type": "uint256"
        }
      ],
      "stateMutability": "view",
      "type": "function"
    },
    {
      "inputs": [
        {
          "internalType": "address",
          "name": "from",
          "type": "address"
        },
        {
          "internalType": "address",
          "name": "to",
          "type": "address"
        },
        {
          "internalType": "uint256",
          "name": "tokenId",
          "type": "uint256"
        }
      ],
      "name": "safeTransferFrom",
      "outputs": [],
      "stateMutability": "nonpayable",
      "type": "function"
    },
    {
      "inputs": [
        {
          "internalType": "address",
          "name": "from",
          "type": "address"
        },
        {
          "internalType": "address",
          "name": "to",
          "type": "address"
        },
        {
          "internalType": "uint256",
          "name": "tokenId",
          "type": "uint256"
        },
        {
          "internalType": "bytes",
          "name": "_data",
          "type": "bytes"
        }
      ],
      "name": "safeTransferFrom",
      "outputs": [],
      "stateMutability": "nonpayable",
      "type": "function"
    },
    {
      "inputs": [
        {
          "internalType": "address",
          "name": "operator",
          "type": "address"
        },
        {
          "internalType": "bool",
          "name": "approved",
          "type": "bool"
        }
      ],
      "name": "setApprovalForAll",
      "outputs": [],
      "stateMutability": "nonpayable",
      "type": "function"
    },
    {
      "inputs": [
        {
          "internalType": "address",
          "name": "_contractAddress",
          "type": "address"
        }
      ],
      "name": "setAutomationRegistry",
      "outputs": [],
      "stateMutability": "nonpayable",
      "type": "function"
    },
    {
      "inputs": [
        {
          "internalType": "address",
          "name": "_contractAddress",
          "type": "address"
        }
      ],
      "name": "setCommunitiesContract",
      "outputs": [],
      "stateMutability": "nonpayable",
      "type": "function"
    },
    {
      "inputs": [
        {
          "internalType": "uint256",
          "name": "_feePrice",
          "type": "uint256"
        }
      ],
      "name": "setFee",
      "outputs": [],
      "stateMutability": "nonpayable",
      "type": "function"
    },
    {
      "inputs": [
        {
          "internalType": "uint256",
          "name": "_maxreviews",
          "type": "uint256"
        }
      ],
      "name": "setMaxReviews",
      "outputs": [],
      "stateMutability": "nonpayable",
      "type": "function"
    },
    {
      "inputs": [
        {
          "internalType": "address",
          "name": "_contractAddress",
          "type": "address"
        }
      ],
      "name": "setMembersContract",
      "outputs": [],
      "stateMutability": "nonpayable",
      "type": "function"
    },
    {
      "inputs": [
        {
          "internalType": "uint256",
          "name": "_upkeepId",
          "type": "uint256"
        }
      ],
      "name": "setUpkkepId",
      "outputs": [],
      "stateMutability": "nonpayable",
      "type": "function"
    },
    {
      "inputs": [
        {
          "internalType": "address",
          "name": "_contractAddress",
          "type": "address"
        }
      ],
      "name": "setV2Contract",
      "outputs": [],
      "stateMutability": "nonpayable",
      "type": "function"
    },
    {
      "inputs": [
        {
          "internalType": "string[]",
          "name": "_deafultArray",
          "type": "string[]"
        }
      ],
      "name": "setdefaultConsenousTypes",
      "outputs": [],
      "stateMutability": "nonpayable",
      "type": "function"
    },
    {
      "inputs": [
        {
          "internalType": "uint256",
          "name": "_communitySubmissionId",
          "type": "uint256"
        },
        {
          "internalType": "string",
          "name": "_ipfsHash",
          "type": "string"
        },
        {
          "internalType": "uint256",
          "name": "_consensous",
          "type": "uint256"
        }
      ],
      "name": "submitReview",
      "outputs": [
        {
          "internalType": "uint256",
          "name": "",
          "type": "uint256"
        }
      ],
      "stateMutability": "nonpayable",
      "type": "function"
    },
    {
      "inputs": [
        {
          "internalType": "uint256",
          "name": "_articleId",
          "type": "uint256"
        },
        {
          "internalType": "string",
          "name": "_communityName",
          "type": "string"
        }
      ],
      "name": "submitToCommunity",
      "outputs": [
        {
          "internalType": "uint256",
          "name": "",
          "type": "uint256"
        }
      ],
      "stateMutability": "payable",
      "type": "function"
    },
    {
      "inputs": [
        {
          "internalType": "uint256",
          "name": "",
          "type": "uint256"
        },
        {
          "internalType": "uint256",
          "name": "",
          "type": "uint256"
        }
      ],
      "name": "submmisionReviews",
      "outputs": [
        {
          "internalType": "uint256",
          "name": "",
          "type": "uint256"
        }
      ],
      "stateMutability": "view",
      "type": "function"
    },
    {
      "inputs": [
        {
          "internalType": "bytes4",
          "name": "interfaceId",
          "type": "bytes4"
        }
      ],
      "name": "supportsInterface",
      "outputs": [
        {
          "internalType": "bool",
          "name": "",
          "type": "bool"
        }
      ],
      "stateMutability": "view",
      "type": "function"
    },
    {
      "inputs": [],
      "name": "symbol",
      "outputs": [
        {
          "internalType": "string",
          "name": "",
          "type": "string"
        }
      ],
      "stateMutability": "view",
      "type": "function"
    },
    {
      "inputs": [
        {
          "internalType": "uint256",
          "name": "index",
          "type": "uint256"
        }
      ],
      "name": "tokenByIndex",
      "outputs": [
        {
          "internalType": "uint256",
          "name": "",
          "type": "uint256"
        }
      ],
      "stateMutability": "view",
      "type": "function"
    },
    {
      "inputs": [
        {
          "internalType": "address",
          "name": "owner",
          "type": "address"
        },
        {
          "internalType": "uint256",
          "name": "index",
          "type": "uint256"
        }
      ],
      "name": "tokenOfOwnerByIndex",
      "outputs": [
        {
          "internalType": "uint256",
          "name": "",
          "type": "uint256"
        }
      ],
      "stateMutability": "view",
      "type": "function"
    },
    {
      "inputs": [
        {
          "internalType": "uint256",
          "name": "tokenId",
          "type": "uint256"
        }
      ],
      "name": "tokenURI",
      "outputs": [
        {
          "internalType": "string",
          "name": "",
          "type": "string"
        }
      ],
      "stateMutability": "view",
      "type": "function"
    },
    {
      "inputs": [],
      "name": "totalSupply",
      "outputs": [
        {
          "internalType": "uint256",
          "name": "",
          "type": "uint256"
        }
      ],
      "stateMutability": "view",
      "type": "function"
    },
    {
      "inputs": [
        {
          "internalType": "address",
          "name": "from",
          "type": "address"
        },
        {
          "internalType": "address",
          "name": "to",
          "type": "address"
        },
        {
          "internalType": "uint256",
          "name": "tokenId",
          "type": "uint256"
        }
      ],
      "name": "transferFrom",
      "outputs": [],
      "stateMutability": "nonpayable",
      "type": "function"
    },
    {
      "inputs": [
        {
          "internalType": "uint256",
          "name": "_tokenId",
          "type": "uint256"
        }
      ],
      "name": "transferNFTsToV2",
      "outputs": [],
      "stateMutability": "nonpayable",
      "type": "function"
    },
    {
      "inputs": [
        {
          "internalType": "address",
          "name": "newOwner",
          "type": "address"
        }
      ],
      "name": "transferOwnership",
      "outputs": [],
      "stateMutability": "nonpayable",
      "type": "function"
    },
    {
      "inputs": [
        {
          "internalType": "address",
          "name": "to",
          "type": "address"
        },
        {
          "internalType": "uint256",
          "name": "tokenId",
          "type": "uint256"
        }
      ],
      "name": "transferToken",
      "outputs": [],
      "stateMutability": "nonpayable",
      "type": "function"
    },
    {
      "inputs": [],
      "name": "upkeepId",
      "outputs": [
        {
          "internalType": "uint256",
          "name": "",
          "type": "uint256"
        }
      ],
      "stateMutability": "view",
      "type": "function"
    }
  ],
  "bytecode": "0x6080346200067a57601f6200506a38819003918201601f191683019291906001600160401b038411838510176200030b5781606092849260409687528339810103126200067a5762000051816200069e565b908262000061602083016200069e565b910151916200006f6200067e565b601481527f4c6561726e7467657468657241727469636c65730000000000000000000000006020820152620000a36200067e565b60038152624c544760e81b6020820152815190916001600160401b0382116200030b578190620000d45f54620006b3565b601f81116200063b575b50602090601f8311600114620005c7575f92620005bb575b50508160011b915f199060031b1c1916175f555b8051906001600160401b0382116200030b5781906200012b600154620006b3565b601f81116200056f575b50602090601f8311600114620004f8575f92620004ec575b50508160011b915f199060031b1c1916176001555b600a8054336001600160a01b0319821681179092556001600160a01b03167f8be0079c531659141344cd1fd0a4f28419497f9722a3daafe3b4186f6b6457e05f80a38351606081016001600160401b038111828210176200030b578552620001c96200067e565b6012815271436f6e73656e736f75732050656e64696e6760701b60208201528152620001f46200067e565b60088152671058d8d95c1d195960c21b60208201526020820152620002186200067e565b600881526714995a9958dd195960c21b60208201528582015260155460036015558060031062000449575b5060155f9081525f805160206200500a833981519152915b600382106200031f575050602380546001600160a01b03199081163317909155601c805482166001600160a01b03948516179055601d80549091169390921692909217905550601f55600b805460019081019091556013819055600f55601754680100000000000000008110156200030b576001810180601755811015620002f7575f9060178252602082200155516149039081620007078239f35b634e487b7160e01b5f52603260045260245ffd5b634e487b7160e01b5f52604160045260245ffd5b80518051906001600160401b0382116200030b576200033f8554620006b3565b601f811162000409575b50602090601f8311600114620003985792826001949360209386955f926200038c575b50505f19600383901b1c191690841b1786555b019301910190916200025b565b015190505f806200036c565b90855f5260205f20915f5b601f1985168110620003f0575083602093600196938796938794601f19811610620003d7575b505050811b0186556200037f565b01515f1960f88460031b161c191690555f8080620003c9565b91926020600181928685015181550194019201620003a3565b6200043790865f5260205f206005601f8601811c820192602087106200043e575b601f01901c0190620006ee565b5f62000349565b91925082916200042a565b60155f525f805160206200500a833981519152017f55f448fdea98c4d29eb340757ef0a66cd03dbb9538908a6a81d96026b71ec4785b8181106200048e575062000243565b806200049d60019254620006b3565b80620004ac575b50016200047f565b601f81118314620004c357505f81555b5f620004a4565b5f90828252620004e2601f60208420920160051c8201858301620006ee565b81835555620004bc565b015190505f806200014d565b60015f9081525f805160206200504a8339815191529350601f198516905b8181106200055657509084600195949392106200053d575b505050811b0160015562000162565b01515f1960f88460031b161c191690555f80806200052e565b9293602060018192878601518155019501930162000516565b60015f52620005a9905f805160206200504a833981519152601f850160051c81019160208610620005b0575b601f0160051c0190620006ee565b5f62000135565b90915081906200059b565b015190505f80620000f6565b5f8080525f805160206200502a8339815191529350601f198516905b81811062000622575090846001959493921062000609575b505050811b015f556200010a565b01515f1960f88460031b161c191690555f8080620005fb565b92936020600181928786015181550195019301620005e3565b5f805262000673905f805160206200502a833981519152601f850160051c81019160208610620005b057601f0160051c0190620006ee565b5f620000de565b5f80fd5b60408051919082016001600160401b038111838210176200030b57604052565b51906001600160a01b03821682036200067a57565b90600182811c92168015620006e3575b6020831014620006cf57565b634e487b7160e01b5f52602260045260245ffd5b91607f1691620006c3565b818110620006fa575050565b5f8155600101620006ee56fe60806040526004361015610011575f80fd5b5f3560e01c806301ffc9a71461041f57806306fdde031461041a578063081812fc14610415578063095ea7b3146104105780631072cbea1461040b5780631651902a1461040657806318160ddd1461040157806323b872dd146103fc5780632f745c59146103f7578063336c1ad7146103f25780633c09203b146103ed578063408958d6146103e857806342842e0e146103e35780634585e33b146103de5780634ed59812146103d95780634f6ccce7146103d45780635787a0cc146103cf5780635e6c102e146103ca5780635ff2d2aa146103c55780636352211e146103c05780636356eea4146103bb57806369fe0e2d146103b65780636c79bd2b146103b15780636fd00fc8146103ac57806370a08231146103a7578063715018a6146103a257806374f0c6411461039d5780637c7198cc146103985780637d67e9671461039357806389a8d2821461038e5780638da5cb5b1461038957806393a018be1461032057806395d89b4114610384578063990581b61461037f5780639b1cb58e1461037a578063a22cb46514610375578063a594004114610370578063ac3d81531461036b578063ad2957ff14610366578063b88d4fde14610361578063b9e2fc3e1461035c578063bd4a6ae014610357578063bdf5db3914610352578063bfc67d9a1461034d578063c02c641614610348578063c17589d714610343578063c5dce24d1461033e578063c87b56dd14610339578063cfed7cc514610334578063d1a34aa31461032f578063d2aa789f1461032a578063d8db380714610325578063de78ab7c14610320578063e14857761461031b578063e168b3a814610316578063e83ddcea14610311578063e985e9c51461030c578063ed322bc714610307578063edcfafe614610302578063ee8eb507146102fd578063f2fde38b146102f8578063f4f1afed146102f3578063f6a800ee146102ee578063fa1396f5146102e95763ffc488b3146102e4575f80fd5b6129d3565b6126ee565b6126be565b61269a565b612604565b6125c7565b612531565b6124bc565b61246c565b6123c5565b6123a8565b612380565b6119f8565b6122e1565b6122ad565b61227f565b6121f7565b61210f565b612088565b611f5c565b611f34565b611f18565b611e52565b611e1b565b611de1565b611d82565b611d3a565b611cd5565b611cb8565b611bd4565b611bae565b611b00565b611a22565b6119d0565b6119a6565b611939565b6118bc565b61189f565b61183f565b611814565b611739565b611627565b6115bf565b61126e565b61112b565b6110d9565b610db9565b610d72565b610cc8565b610cab565b610c04565b610b94565b610b6c565b610b24565b610a10565b61095e565b610935565b6108e3565b61089e565b610724565b610638565b6105dc565b61051c565b61043a565b6001600160e01b031981160361043657565b5f80fd5b3461043657602036600319011261043657602060043561045981610424565b63ffffffff60e01b1663780e9d6360e01b811490811561047f575b506040519015158152f35b6380ac58cd60e01b8114915081156104b1575b81156104a0575b505f610474565b6301ffc9a760e01b1490505f610499565b635b5e139f60e01b81149150610492565b5f5b8381106104d35750505f910152565b81810151838201526020016104c4565b906020916104fc815180928185528580860191016104c2565b601f01601f1916010190565b9060206105199281815201906104e3565b90565b34610436575f806003193601126105d95760405181805461053c81611fa4565b808452906001908181169081156105b15750600114610576575b61057284610566818803826111b3565b60405191829182610508565b0390f35b93508180526020938483205b82841061059e5750505081610572936105669282010193610556565b8054858501870152928501928101610582565b61057296506105669450602092508593915060ff191682840152151560051b82010193610556565b80fd5b346104365760203660031901126104365760206105fa600435612bf1565b6040516001600160a01b039091168152f35b600435906001600160a01b038216820361043657565b602435906001600160a01b038216820361043657565b346104365760403660031901126104365761065161060c565b60243561065d81612afb565b916001600160a01b0380841690821681146106d55761068f9361068a913314908115610691575b50612b84565b6130c0565b005b6001600160a01b03165f9081526005602052604090206106cf91506106c89033905b9060018060a01b03165f5260205260405f2090565b5460ff1690565b5f610684565b60405162461bcd60e51b815260206004820152602160248201527f4552433732313a20617070726f76616c20746f2063757272656e74206f776e656044820152603960f91b6064820152608490fd5b346104365760403660031901126104365761073d61060c565b60243561074981612afb565b336001600160a01b03909116036107645761068f9133612f2d565b60405162461bcd60e51b815260206004820152602560248201527f4f6e6c7920746865206f776e65722063616e207472616e7366657220746865206044820152643a37b5b2b760d91b6064820152608490fd5b634e487b7160e01b5f52603260045260245ffd5b6017548110156107e35760175f5260205f2001905f90565b6107b7565b6015548110156107e35760155f5260205f2001905f90565b601554156107e35760155f9081525f8051602061488e83398151915291565b601554600210156107e35760155f9081527f55f448fdea98c4d29eb340757ef0a66cd03dbb9538908a6a81d96026b71ec47791565b601554600110156107e35760155f9081527f55f448fdea98c4d29eb340757ef0a66cd03dbb9538908a6a81d96026b71ec47691565b80548210156107e3575f5260205f2001905f90565b34610436576040366003190112610436576024356004355f52601460205260405f208054821015610436576020916108d591610889565b90546040519160031b1c8152f35b34610436575f366003190112610436576020600854604051908152f35b6060906003190112610436576001600160a01b0390600435828116810361043657916024359081168103610436579060443590565b346104365761068f61094636610900565b916109596109548433612d9d565b612c81565b612f2d565b346104365760403660031901126104365761097761060c565b6024359061098481612a85565b8210156109b7576001600160a01b03165f9081526006602090815260408083209383529281529082902054915191825290f35b60405162461bcd60e51b815260206004820152602b60248201527f455243373231456e756d657261626c653a206f776e657220696e646578206f7560448201526a74206f6620626f756e647360a81b6064820152608490fd5b3461043657602036600319011261043657601e54600435906020906001600160a01b031691610a5e6001600160a01b03610a4d81861615156147e4565b610a5683612afb565b1633146145bf565b610a8381610a7c610a77825f52600c60205260405f2090565b614661565b9433612ce7565b601e54610aa690610a9a906001600160a01b031681565b6001600160a01b031690565b60408401516001600160a01b03165f606086015193610ae886880151976080815191015190604051998a98899788966330327a3160e01b885260048801614830565b03925af18015610b1f57610af857005b61068f9060203d8111610b18575b610b1081836111b3565b810190613c60565b503d610b06565b613192565b3461043657602036600319011261043657610b3d61060c565b600a546001600160a01b039190610b5790831633146129f2565b1660018060a01b0319601d541617601d555f80f35b34610436575f36600319011261043657601a546040516001600160a01b039091168152602090f35b346104365761068f610ba536610900565b9060405192610bb38461117d565b5f8452612cfa565b906020600319830112610436576004356001600160401b039283821161043657806023830112156104365781600401359384116104365760248483010111610436576024019190565b3461043657610c1236610bbb565b602354336001600160a01b0391821614908115610c9d575b5015610c395761068f91614394565b60405162461bcd60e51b815260206004820152603660248201527f4e6f742074686520636f6e7472616374206f776e6572206f72204175746f6d616044820152751d1a5bdb88149959da5cdd1c9e4810dbdb9d1c9858dd60521b6064820152608490fd5b9050601b541633145f610c2a565b34610436575f366003190112610436576020602154604051908152f35b3461043657602036600319011261043657600435600854811015610d185760085f527ff3f7a9fe364faab93b216da50a3214154f22a0a2b415b23a84c8169e8b636ee30154604051908152602090f35b60405162461bcd60e51b815260206004820152602c60248201527f455243373231456e756d657261626c653a20676c6f62616c20696e646578206f60448201526b7574206f6620626f756e647360a01b6064820152608490fd5b3461043657602036600319011261043657610d9860018060a01b03600a541633146129f2565b600435602255005b60409061051993921515815281602082015201906104e3565b3461043657610dc736610bbb565b50505f808160175480610e0e575b610df183610dff84604051938491602083019190602083019252565b03601f1981018452836111b3565b61057260405192839283610da0565b60019082825b828110611044575050508315610dd557601c54610e39906001600160a01b0316610a9a565b90610e4c855f52600d60205260405f2090565b906040606081518095632691798960e01b82528180610e6f600498898301613f64565b03915afa948515610b1f5780928195829761100a575b50610ea0610e9b8a5f52601460205260405f2090565b6141f3565b918251968588105f14610ecb57505050505050505050610dff610ec5610df19361426b565b90610dd5565b81968298602154908181115f146110025750945b835b868110610f4957505050505050505091610dff9391610df196938215908115610f3f575b5015610f1c57505050610f179061426b565b610ec5565b90610f29610f2e92614255565b6135eb565b10155f03610ec557610f179061426b565b905082105f610f05565b610f7588610f578385614081565b51815180938192635cf17e1f60e11b83528883019190602083019252565b0381305afa8015610b1f57859087928891610fcf575b501015610fa2575b50610f9d906135dd565b610ee1565b9a610fad87916135dd565b9b14610fba575b5f610f93565b98610fc7610f9d916135dd565b999050610fb4565b9050610ff29192508a3d8c11610ffb575b610fea81836111b3565b81019061423f565b9190915f610f8b565b503d610fe0565b905094610edf565b919350955061103191945060603d811161103d575b61102981836111b3565b8101906141d8565b9491929094955f610e85565b503d61101f565b61108b6002611070611062611058856107cb565b90549060031b1c90565b5f52600d60205260405f2090565b01546003611083611062611058866107cb565b015490612f20565b42811115806110c7575b6110a9575b506110a4906135dd565b610e14565b965094505081936110a46110bf611058836107cb565b96919061109a565b50828111158061109557508215611095565b34610436576020366003190112610436576110f261060c565b600a546001600160a01b03919061110c90831633146129f2565b1660018060a01b03198181601a541617601a55601b541617601b555f80f35b346104365760203660031901126104365760206105fa600435612afb565b634e487b7160e01b5f52604160045260245ffd5b60a081019081106001600160401b0382111761117857604052565b611149565b602081019081106001600160401b0382111761117857604052565b604081019081106001600160401b0382111761117857604052565b90601f801991011681019081106001600160401b0382111761117857604052565b604051906111e18261115d565b565b60405190608082018281106001600160401b0382111761117857604052565b6001600160401b03811161117857601f01601f191660200190565b92919261122982611202565b9161123760405193846111b3565b829481845281830111610436578281602093845f960137010152565b9080601f83011215610436578160206105199335910161121d565b34610436576060366003190112610436576004356024356001600160401b038111610436576112a1903690600401611253565b9061130e604435916112c960026112c0835f52600d60205260405f2090565b01541515613e4c565b601c546112de906001600160a01b0316610a9a565b926112f1825f52600d60205260405f2090565b6040518095626e7c3160e91b825281805f97889560048301613f64565b03915afa928315610b1f576113ef94819461159b575b50611330821515613f75565b611349611341601554865190612f20565b831115613fc0565b61138261137d6113796106c8611367875f52601960205260405f2090565b335f9081526020919091526040902090565b1590565b614007565b6113a861139b336106b3865f52601960205260405f2090565b805460ff19166001179055565b601d546020906113c0906001600160a01b0316610a9a565b6113d2855f52600d60205260405f2090565b9060405180809981946302b5df5960e01b8352336004840161405f565b03915afa928315610b1f576114ff966114fa968395611543575b506114f2907fdf5898210dfd85b69a1551c8ec0bb02719a41f3283eadd1145b9bffc9f2e1730949596601554808811155f1461151d57505061149c61145e61145861145389612ef2565b6107e8565b5061206d565b965b6114686111d4565b3381529083602083015260408201528760608201528860808201526114976013545f52601260205260405f2090565b614095565b6114ba6114b1845f52601460205260405f2090565b60135490613469565b601354968796604051958695897f953de3727de1848ea7329bee97a44132bdd8271d8d663eb90bc2772f21541ec8339380a4846141af565b0390a26135dd565b601355565b61057261150d601354612ef2565b6040519081529081906020820190565b61149c9161153661153161153c938b612f05565b612ef2565b90614081565b5196611460565b7fdf5898210dfd85b69a1551c8ec0bb02719a41f3283eadd1145b9bffc9f2e17309495509061158b6114f29260203d8111611594575b61158381836111b3565b810190613cba565b95945090611409565b503d611579565b6115b89194503d8086833e6115b081836111b3565b810190613e94565b925f611324565b34610436576020366003190112610436576115e560018060a01b03600a541633146129f2565b600435601f55005b602090816040818301928281528551809452019301915f5b828110611613575050505090565b835185529381019392810192600101611605565b3461043657602080600319360112610436576004355f526014815260405f209060405190818184549182815201935f52815f20915f905b8282106116815761057285611675818903826111b3565b604051918291826115ed565b83548652948501946001938401939091019061165e565b602060031982011261043657600435906001600160401b0382116104365761051991600401611253565b9061051991602081526116e1825160a0602084015260c08301906104e3565b9060a06080611729611705602087015195601f1996878783030160408801526104e3565b600180851b03604088015116606086015260608701518686830301848701526104e3565b94015192828503019101526104e3565b3461043657610572608061174c36611698565b611790604091825161175d8161115d565b60609481868093528260208201525f868201528280820152015261178b61178382611ecc565b54151561460b565b611ecc565b545f52600c6020526118056004825f208351946117ac8661115d565b84516117c3816117bc8186611fdc565b03826111b3565b865284516117d8816117bc8160018701611fdc565b602087015260028201546001600160a01b0316858701526117fb6003830161206d565b908601520161206d565b608083015251918291826116c2565b3461043657602036600319011261043657602061183761183261060c565b612a85565b604051908152f35b34610436575f806003193601126105d957600a5481906001600160a01b0381169061186b3383146129f2565b6001600160a01b031916600a557f8be0079c531659141344cd1fd0a4f28419497f9722a3daafe3b4186f6b6457e08280a380f35b34610436575f366003190112610436576020601754604051908152f35b3461043657604036600319011261043657602060ff6118fe6118dc610622565b6004355f526019845260405f209060018060a01b03165f5260205260405f2090565b54166040519015158152f35b9060406003198301126104365760043591602435906001600160401b0382116104365761051991600401611253565b34610436577f0b290e01b548ae78ace76449298ed234c42194d80af9f7dfe02fc4f7de07b9d36119683661190a565b9061198561197582612afb565b6001600160a01b031633146145bf565b6119a160405192839283526040602084015260408301906104e3565b0390a1005b34610436576020366003190112610436576004355f52600e602052602060405f2054604051908152f35b34610436575f36600319011261043657600a546040516001600160a01b039091168152602090f35b34610436576020366003190112610436576004355f526018602052602060405f2054604051908152f35b34610436575f806003193601126105d957604051816001805490611a4582611fa4565b808552918181169081156105b15750600114611a6b5761057284610566818803826111b3565b80945082526020938483205b828410611a935750505081610572936105669282010193610556565b8054858501870152928501928101611a77565b6020815260018060a01b03825116602082015260a06080611af7611ad8602086015184604087015260c08601906104e3565b604086015160608601526060860151601f1986830301848701526104e3565b93015191015290565b346104365760203660031901126104365761057260405f60808251611b248161115d565b82815260606020820152828482015260608082015201526004355f526012602052805f20906004815192611b578461115d565b80546001600160a01b031684528251611b77816117bc8160018601611fdc565b60208501526002810154838501528251611b98816117bc8160038601611fdc565b6060850152015460808301525191829182611aa6565b34610436575f3660031901126104365760208054604051908152f35b8015150361043657565b3461043657604036600319011261043657611bed61060c565b602435611bf981611bca565b6001600160a01b03821691338314611c775781611c34611c4592335f52600560205260405f209060018060a01b03165f5260205260405f2090565b9060ff801983541691151516179055565b604051901515815233907f17307eab39ab6107e8899845ad3d59bd9653f200f220920489ca2b5937696c3190602090a3005b60405162461bcd60e51b815260206004820152601960248201527822a9219b99189d1030b8383937bb32903a379031b0b63632b960391b6044820152606490fd5b34610436575f366003190112610436576020600f54604051908152f35b3461043657602036600319011261043657600435805f52600d602052611d03600260405f2001541515613e4c565b5f52600d6020526105726117bc611d26600160405f200160405192838092611fdc565b6040519182916020835260208301906104e3565b3461043657602036600319011261043657611d5361060c565b600a546001600160a01b039190611d6d90831633146129f2565b1660018060a01b0319601c541617601c555f80f35b3461043657608036600319011261043657611d9b61060c565b611da3610622565b606435916001600160401b038311610436573660238401121561043657611dd761068f93369060248160040135910161121d565b9160443591612cfa565b3461043657602036600319011261043657600480355f90815260126020908152604091829020600281015493015482519384529083015290f35b34610436576040366003190112610436576024356004355f52601060205260405f208054821015610436576020916108d591610889565b34610436575f806003193601126105d957604051601780548083529083526020808301935f805160206148ae83398151915292915b828210611e9e5761057285611675818903826111b3565b835486529485019460019384019390910190611e87565b90611ec8602092828151948592016104c2565b0190565b6020611ee59181604051938285809451938492016104c2565b8101601681520301902090565b602090611f0c9282604051948386809551938492016104c2565b82019081520301902090565b34610436576020611f2b61178b36611698565b54604051908152f35b34610436575f36600319011261043657601c546040516001600160a01b039091168152602090f35b3461043657602036600319011261043657611f7561060c565b600a546001600160a01b039190611f8f90831633146129f2565b1660018060a01b0319601e541617601e555f80f35b90600182811c92168015611fd2575b6020831014611fbe57565b634e487b7160e01b5f52602260045260245ffd5b91607f1691611fb3565b905f9291805491611fec83611fa4565b9182825260019384811690815f1461204a575060011461200d575b50505050565b90919394505f52602092835f2092845f945b83861061203657505050500101905f808080612007565b80548587018301529401938590820161201f565b9294505050602093945060ff191683830152151560051b0101905f808080612007565b906111e16120819260405193848092611fdc565b03836111b3565b34610436576020366003190112610436576004355f52600d6020526120f260405f20604051906120bc826120818184611fdc565b6040516120d0816117bc8160018601611fdc565b61210060036002840154930154916040519586956080875260808701906104e3565b9085820360208701526104e3565b91604084015260608301520390f35b34610436576020366003190112610436576004355f818152600260205260409020546001600160a01b03161561219a57612147612b72565b805115612188576105666121749161217a6121646105729561361a565b6040519485936020850190611eb5565b90611eb5565b03601f1981018352826111b3565b5050610572612195612b72565b610566565b60405162461bcd60e51b815260206004820152602f60248201527f4552433732314d657461646174613a2055524920717565727920666f72206e6f60448201526e3732bc34b9ba32b73a103a37b5b2b760891b6064820152608490fd5b34610436576080366003190112610436576001600160401b0360043581811161043657612228903690600401611253565b9060243581811161043657612241903690600401611253565b916044358281116104365761225a903690600401611253565b606435928311610436576105729361227961150d943690600401611253565b9261395f565b34610436576020366003190112610436576122a560018060a01b03600a541633146129f2565b600435602155005b34610436575f366003190112610436576020602254604051908152f35b6001600160401b0381116111785760051b60200190565b3461043657602080600319360112610436576001600160401b03600435818111610436573660238201121561043657806004013561231e816122ca565b9261232c60405194856111b3565b818452848401906024809360051b8501019336851161043657838101925b85841061235a5761068f876146e0565b83358381116104365788916123758392883691870101611253565b81520193019261234a565b34610436575f36600319011261043657601d546040516001600160a01b039091168152602090f35b34610436575f366003190112610436576020601354604051908152f35b34610436576020366003190112610436576004355f52601260205260405f2060018060a01b038154166040519161240a836124038160018501611fdc565b03846111b3565b6124626002820154600460405193612430856124298160038501611fdc565b03866111b3565b01549261244f604051968796875260a0602088015260a08701906104e3565b91604086015284820360608601526104e3565b9060808301520390f35b3461043657604036600319011261043657602060ff6118fe61248c61060c565b612494610622565b6001600160a01b039182165f9081526005865260408082209290931681526020919091522090565b34610436575f366003190112610436576020601f54604051908152f35b93612506612523936124f861051998969460a0895260a08901906104e3565b9087820360208901526104e3565b6001600160a01b03909216604086015284820360608601526104e3565b9160808184039101526104e3565b34610436576020366003190112610436576004355f52600c6020526040805f20610572600483519261256e846125678184611fdc565b03856111b3565b845194612589866125828160018601611fdc565b03876111b3565b60018060a01b03600283015416906125bd8151936125ae856124298160038501611fdc565b61256783518097819301611fdc565b51958695866124d9565b34610436576020366003190112610436576004356017548110156104365760175f525f805160206148ae8339815191520154604051908152602090f35b346104365760203660031901126104365761261d61060c565b600a546001600160a01b039061263690821633146129f2565b8116156126465761068f90612a3d565b60405162461bcd60e51b815260206004820152602660248201527f4f776e61626c653a206e6577206f776e657220697320746865207a65726f206160448201526564647265737360d01b6064820152608490fd5b34610436576020611f2b6126ad3661190a565b905f526011835260405f2090611ef2565b34610436575f366003190112610436576126e360018060a01b03600a541633146129f2565b600b80546001019055005b6126f73661190a565b5f82815260026020526040902054612719906001600160a01b03161515613bc0565b61273f612737612731845f52601160205260405f2090565b83611ef2565b541515613c05565b601c54612754906001600160a01b0316610a9a565b60408051637b7fcfed60e01b81529092602092918381806127788560048301610508565b0381865afa8015610b1f57612794915f916129b6575b50613c75565b8284518093633bebe05160e01b825281806127b28660048301610508565b03915afa8015610b1f57610572956128f2946128ed945f93612993575b50612825906127dc6111e3565b908582526127e8612b72565b908201908152428983015284606083015284155f1461290c57612809613d0e565b90525b612820600f545f52600d60205260405f2090565b613d37565b61284361283a825f52601060205260405f2090565b600f5490613469565b80612858600f545f52600e60205260405f2090565b557fd3f28a1c655091033012bc55d258bf3cbd4ea4fb8bc2ff81c626a2aad9354e466128e56128cd600f54958685816128a361289d82995f52601160205260405f2090565b85611ef2565b557fe794f9d97acac2412d6c0d25b6fb6c8c4640b17d23e5ab7ee06a2a51f0fcd1a45f80a3613e2c565b88514281526020810195909552939081906040820190565b0390a36135dd565b600f55565b6128fd600f54612ef2565b90519081529081906020820190565b612919601f543414613cc9565b612924611458610800565b9052612931600f54613435565b61293c601754612ef2565b612950600f545f52601860205260405f2090565b557f2f5a4ee168dca9eaef284f1844a3d24d74ba63a5fccc947454fc07515c8b3774600f54612980601754612ef2565b8a519182526020820152604090a161280c565b8193506129af90612825923d86116115945761158381836111b3565b92906127cf565b6129cd9150853d8711610b1857610b1081836111b3565b5f61278e565b34610436576020611f2b6129e636611698565b61178b61178382611ecc565b156129f957565b606460405162461bcd60e51b815260206004820152602060248201527f4f776e61626c653a2063616c6c6572206973206e6f7420746865206f776e65726044820152fd5b600a80546001600160a01b039283166001600160a01b0319821681179092559091167f8be0079c531659141344cd1fd0a4f28419497f9722a3daafe3b4186f6b6457e05f80a3565b6001600160a01b03168015612aa3575f52600360205260405f205490565b60405162461bcd60e51b815260206004820152602a60248201527f4552433732313a2062616c616e636520717565727920666f7220746865207a65604482015269726f206164647265737360b01b6064820152608490fd5b5f908152600260205260409020546001600160a01b03168015612b1b5790565b60405162461bcd60e51b815260206004820152602960248201527f4552433732313a206f776e657220717565727920666f72206e6f6e657869737460448201526832b73a103a37b5b2b760b91b6064820152608490fd5b60405190612b7f8261117d565b5f8252565b15612b8b57565b60405162461bcd60e51b815260206004820152603860248201527f4552433732313a20617070726f76652063616c6c6572206973206e6f74206f776044820152771b995c881b9bdc88185c1c1c9bdd995908199bdc88185b1b60421b6064820152608490fd5b5f818152600260205260409020546001600160a01b031615612c27575f908152600460205260409020546001600160a01b031690565b60405162461bcd60e51b815260206004820152602c60248201527f4552433732313a20617070726f76656420717565727920666f72206e6f6e657860448201526b34b9ba32b73a103a37b5b2b760a11b6064820152608490fd5b15612c8857565b60405162461bcd60e51b815260206004820152603160248201527f4552433732313a207472616e736665722063616c6c6572206973206e6f74206f6044820152701ddb995c881b9bdc88185c1c1c9bdd9959607a1b6064820152608490fd5b90916111e19260405192610bb38461117d565b916111e19391612d2193612d116109548433612d9d565b612d1c838383612f2d565b61328b565b612d79565b60809060208152603260208201527f4552433732313a207472616e7366657220746f206e6f6e20455243373231526560408201527131b2b4bb32b91034b6b83632b6b2b73a32b960711b60608201520190565b15612d8057565b60405162461bcd60e51b815280612d9960048201612d26565b0390fd5b5f828152600260205260409020546001600160a01b031615612e2c57612dc282612afb565b6001600160a01b038281168282168114949091908515612e14575b5050508215612deb57505090565b6001600160a01b03165f90815260056020526040902060ff9250612e0f91906106b3565b541690565b612e219192939550612bf1565b1614915f8080612ddd565b60405162461bcd60e51b815260206004820152602c60248201527f4552433732313a206f70657261746f7220717565727920666f72206e6f6e657860448201526b34b9ba32b73a103a37b5b2b760a11b6064820152608490fd5b15612e8d57565b60405162461bcd60e51b8152602060048201526024808201527f4552433732313a207472616e7366657220746f20746865207a65726f206164646044820152637265737360e01b6064820152608490fd5b634e487b7160e01b5f52601160045260245ffd5b5f19810191908211612f0057565b612ede565b91908203918211612f0057565b9060018201809211612f0057565b91908201809211612f0057565b90612f3783612afb565b6001600160a01b03838116929091821683900361301657612f90612ff092821694612f63861515612e86565b612f6e8784836132f1565b612f778761306d565b6001600160a01b03165f90815260036020526040902090565b612f9a8154612ef2565b90556001600160a01b0381165f908152600360205260409020612fbd8154612f12565b9055612fd1855f52600260205260405f2090565b80546001600160a01b0319166001600160a01b03909216919091179055565b7fddf252ad1be2c89b69c2b068fc378daa952ba7f163c4a11628f55a4df523b3ef5f80a4565b60405162461bcd60e51b815260206004820152602960248201527f4552433732313a207472616e73666572206f6620746f6b656e2074686174206960448201526839903737ba1037bbb760b91b6064820152608490fd5b5f81815260046020526040812080546001600160a01b03191690556001600160a01b0361309983612afb565b167f8c5be1e5ebec7d5bd14f71427d1e84f3dd0314c0f7b2291e5b200ac8c7c3b9258280a4565b5f82815260046020526040902080546001600160a01b0319166001600160a01b0383161790556001600160a01b03806130f884612afb565b169116907f8c5be1e5ebec7d5bd14f71427d1e84f3dd0314c0f7b2291e5b200ac8c7c3b9255f80a4565b90816020910312610436575161051981610424565b610519939260809260018060a01b031682525f6020830152604082015281606082015201906104e3565b6001600160a01b039182168152911660208201526040810191909152608060608201819052610519929101906104e3565b6040513d5f823e3d90fd5b3d156131c7573d906131ae82611202565b916131bc60405193846111b3565b82523d5f602084013e565b606090565b909190803b15613283576131fd6020915f93604051948580948193630a85bd0160e11b998a84523360048501613137565b03926001600160a01b03165af15f9181613253575b506132455761321f61319d565b805190816132405760405162461bcd60e51b815280612d9960048201612d26565b602001fd5b6001600160e01b0319161490565b61327591925060203d811161327c575b61326d81836111b3565b810190613122565b905f613212565b503d613263565b505050600190565b92909190823b156132bd576131fd926020925f604051809681958294630a85bd0160e11b9a8b85523360048601613161565b50505050600190565b906132d0816134a4565b6001600160a01b0382166132e8576111e19150613537565b6111e1916133fe565b9091906001600160a01b03808216918261332b575061330f836134a4565b8316806133225750506111e19150613537565b036132e8575050565b818516830361333b575b5061330f565b61334481612a85565b5f198101908111612f00576133a89061339b5f93878552600760205260408520548381036133af575b5084613381895f52600760205260405f2090565b556001600160a01b03165f90815260066020526040902090565b905f5260205260405f2090565b555f613335565b8786526006602052604086208487526020526133f76040872054806133e88461339b8760018060a01b03165f52600660205260405f2090565b555f52600760205260405f2090565b555f61336d565b60409061340a81612a85565b925f9160018060a01b0316825260066020528282208483526020528083832055815260076020522055565b601754600160401b8110156111785760018101806017558110156107e35760175f525f805160206148ae8339815191520155565b80549190600160401b831015611178578261348c9160016111e195018155610889565b90919082549060031b91821b915f19901b1916179055565b600854815f5260096020528060405f2055600160401b8110156111785760018101806008558110156107e35760085f527ff3f7a9fe364faab93b216da50a3214154f22a0a2b415b23a84c8169e8b636ee30155565b6017548015613523575f198181019190818310156107e3575f916017835260208320010155601755565b634e487b7160e01b5f52603160045260245ffd5b600880545f19929083810190808211612f00575f9280845260096020528160408520549310156107e357848452858260208620010154918310156107e35783926135976135a69387865280836020882001555f52600960205260405f2090565b555f52600960205260405f2090565b5581549283156135c95780840193808510156107e3578383526020832001015555565b634e487b7160e01b82526031600452602482fd5b5f198114612f005760010190565b81156135f5570490565b634e487b7160e01b5f52601260045260245ffd5b9081518110156107e3570160200190565b80156136b657805f908282935b6136a2575061363583611202565b9261364360405194856111b3565b80845281601f1961365383611202565b013660208701375b6136655750505090565b61366e90612ef2565b90600a9060308282068101809111612f005760f81b6001600160f81b031916841a6136998487613609565b5304908161365b565b926136ae600a916135dd565b930480613627565b506040516136c381611198565b60018152600360fc1b602082015290565b8181106136df575050565b5f81556001016136d4565b9190601f81116136f957505050565b6111e1925f5260205f20906020601f840160051c83019310613723575b601f0160051c01906136d4565b9091508190613716565b91909182516001600160401b038111611178576137548161374e8454611fa4565b846136ea565b602080601f831160011461378e5750819293945f92613783575b50508160011b915f199060031b1c1916179055565b015190505f8061376e565b90601f198316956137a2855f5260205f2090565b925f905b8882106137dd575050836001959697106137c5575b505050811b019055565b01515f1960f88460031b161c191690555f80806137bb565b806001859682949686015181550195019301906137a6565b91909182519283516001600160401b0381116111785761381f816138198554611fa4565b856136ea565b6020948590601f83116001146138b2576111e195968360809460049694613867945f926138a7575b50508160011b915f199060031b1c19161786555b8201516001860161372d565b60408101516002850180546001600160a01b0319166001600160a01b0390921691909117905561389e60608201516003860161372d565b0151910161372d565b015190505f80613847565b90601f198316916138c6865f5260205f2090565b925f5b81811061391157508460049694613867946111e19a9b94608098600195106138f9575b505050811b01865561385b565b01515f1960f88460031b161c191690555f80806138ec565b9293896001819287860151815501950193016138c9565b916139519061394361051995936060865260608601906104e3565b9084820360208601526104e3565b9160408184039101526104e3565b9061396982611ecc565b54613a40577f0137d77463a717e7eeb6384500e22861f50abd08c02fc3cbbffdca4b88d8985f91613a3a600b549586956139ef6139a46111d4565b858152602081018790523360408201528260608201528360808201526139ca8933613a85565b6139d86001600b5401600b55565b6139ea895f52600c60205260405f2090565b6137f5565b866139f985611ecc565b55867f51bec9cf7c16439f789ee6fa3346be05dacde5da1fcacfbfc8322de3c239eaf060405180613a2b339582610508565b0390a360405193849384613928565b0390a290565b60405162461bcd60e51b815260206004820152601d60248201527f49504653206861736820616c7265616479206265656e206d696e7465640000006044820152606490fd5b90604051613a928161117d565b5f81526001600160a01b038316918215613b7c575f818152600260205260409020546001600160a01b0316613b37578381612d2194613ad4826111e1986132c6565b6001600160a01b0383165f908152600360205260409020613af58154612f12565b9055613b0d83612fd1845f52600260205260405f2090565b5f7fddf252ad1be2c89b69c2b068fc378daa952ba7f163c4a11628f55a4df523b3ef8180a46131cc565b60405162461bcd60e51b815260206004820152601c60248201527f4552433732313a20746f6b656e20616c7265616479206d696e746564000000006044820152606490fd5b606460405162461bcd60e51b815260206004820152602060248201527f4552433732313a206d696e7420746f20746865207a65726f20616464726573736044820152fd5b15613bc757565b60405162461bcd60e51b8152602060048201526016602482015275105c9d1a58db1948191bd95cc81b9bdd08195e1a5cdd60521b6044820152606490fd5b15613c0c57565b60405162461bcd60e51b815260206004820152602660248201527f41727469636c6520616c7265616479207375626d697474656420746f20636f6d6044820152656d756e69747960d01b6064820152608490fd5b90816020910312610436575161051981611bca565b15613c7c57565b60405162461bcd60e51b815260206004820152601660248201527514dd589a9958dd08191bd95cc81b9bdd08195e1a5cdd60521b6044820152606490fd5b90816020910312610436575190565b15613cd057565b60405162461bcd60e51b81526020600482015260166024820152754d7573742073656e642070726f706f73616c2066656560501b6044820152606490fd5b60405190613d1b82611198565b600d82526c4e6f20436f6e73656e736f757360981b6020830152565b90805180516001600160401b03811161117857613d5e81613d588654611fa4565b866136ea565b6020918290601f8311600114613dbc57928260039593613da0936060965f92613db1575b50508160011b915f1990881b1c19161786558201516001860161372d565b604081015160028501550151910155565b015190505f80613d82565b90601f19831691613dd0875f5260205f2090565b925f5b818110613e15575093613da093606096936001938360039a9810613dfe57505050811b01865561385b565b01515f19838a1b60f8161c191690555f80806138ec565b929386600181928786015181550195019301613dd3565b613e44906020604051928284809451938492016104c2565b810103902090565b15613e5357565b60405162461bcd60e51b815260206004820152601960248201527814dd589b5a5cdcda5bdb88191bd95cc81b9bdd08195e1a5cdd603a1b6044820152606490fd5b60209081818403126104365780516001600160401b039182821161043657019083601f83011215610436578151613eca816122ca565b94604092613eda845197886111b3565b828752858088019360051b8601019482861161043657868101935b868510613f0757505050505050505090565b84518381116104365782019084603f83011215610436578882015190613f2c82611202565b613f38895191826111b3565b8281528689848601011161043657613f598b949385948b86850191016104c2565b815201940193613ef5565b906020610519928181520190611fdc565b15613f7c57565b606460405162461bcd60e51b815260206004820152602060248201527f436f6e73656e736f7573206d75732062652067726561746572207468616e20306044820152fd5b15613fc757565b60405162461bcd60e51b8152602060048201526018602482015277436f6e73656e736f7573204e6f7420496e20426f756e647360401b6044820152606490fd5b1561400e57565b60405162461bcd60e51b8152602060048201526024808201527f596f7527766520616c726561647920726576696577656420746869732061727460448201526369636c6560e01b6064820152608490fd5b6001600160a01b03909116815260406020820181905261051992910190611fdc565b80518210156107e35760209160051b010190565b815181546001600160a01b0319166001600160a01b039190911617815590600190818301602080830151938451916001600160401b038311611178576140df83613d588654611fa4565b80601f841160011461413d57509180809260809695946004985f94614132575b50501b915f199060031b1c19161790555b6040810151600285015561412b60608201516003860161372d565b0151910155565b015192505f806140ff565b91939495601f198416614153875f5260205f2090565b935f905b8282106141985750509160049795939185608098969410614180575b505050811b019055614110565b01515f1960f88460031b161c191690555f8080614173565b808886978294978701518155019601940190614157565b6141c561051994926060835260608301906104e3565b92602082015260408184039101526104e3565b90816060910312610436578051916040602083015192015190565b906040519182815491828252602092838301915f52835f20935f905b828210614225575050506111e1925003836111b3565b85548452600195860195889550938101939091019061420f565b9190826040910312610436576020825192015190565b90606482029180830460641490151715612f0057565b90815f03918083055f191490151715612f0057565b90816020910312610436573590565b600160ff1b8114612f00575f0390565b919091828114614378576142b38354611fa4565b6001600160401b038111611178576142cf8161374e8454611fa4565b5f93601f82116001146143075793819293945f926142fc5750508160011b915f199060031b1c1916179055565b015490505f8061376e565b614319601f198316915f5260205f2090565b94614327845f5260205f2090565b91815b8181106143605750958360019596971061434857505050811b019055565b01545f1960f88460031b161c191690555f80806137bb565b8783015484556001938401939092019160200161432a565b509050565b604090610519939281528160208201520190611fdc565b602082146143a0575050565b6143ac91810190614280565b5f808213156145af575060015b81151580614579575b8061455b575b80614540575b6143d6575050565b5f9161449f9115156001036145305761440b6143f0610854565b506001614405845f52600d60205260405f2090565b0161429f565b807f3ed188edba0c6b2d9b7a54cec2942f1cab56a63a4dcfdca5ff11706ffdf25b1e61443f825f52600e60205260405f2090565b546001614454845f52600d60205260405f2090565b01906144656040519283928361437d565b0390a261447a815f52601860205260405f2090565b546017549061448882612ef2565b81036144a8575b50505f52601860205260405f2090565b556111e16134f9565b6144e96144e06110586144db7f2f5a4ee168dca9eaef284f1844a3d24d74ba63a5fccc947454fc07515c8b377495612ef2565b6107cb565b61348c836107cb565b8061450c6144fe6110586144db601754612ef2565b5f52601860205260405f2090565b55614519611058826107cb565b604080519182526020820192909252a15f8061448f565b61453b6143f061081f565b61440b565b50614553825f52601860205260405f2090565b5415156143ce565b506002614570835f52600d60205260405f2090565b015415156143c8565b506145a76002614591845f52600d60205260405f2090565b01546003611083855f52600d60205260405f2090565b4210156143c2565b6145b9909161428f565b906143b9565b156145c657565b60405162461bcd60e51b815260206004820152601a60248201527f4e6f7420746865206f776e6572206f662074686520746f6b656e0000000000006044820152606490fd5b1561461257565b60405162461bcd60e51b815260206004820152602160248201527f495046532068617368206e6f7420617474616368656420746f2041727469636c6044820152606560f81b6064820152608490fd5b90600460806040936146dc8551916146788361115d565b6124038397805161468d816117bc8187611fdc565b855280516146a2816117bc8160018801611fdc565b602086015260028301546001600160a01b03168186015280516146cc816117bc8160038801611fdc565b6060860152518096819301611fdc565b0152565b6146f560018060a01b03600a541633146129f2565b805190600160401b82116111785760155482601555808310614758575b5060155f526020908101905f8051602061488e8339815191525f925b84841061473c575050505050565b6001838261474c8394518661372d565b0192019301929061472e565b60155f9081525f8051602061488e8339815191529182019184015b828110614781575050614712565b8061478e60019254611fa4565b8061479b575b5001614773565b601f9081811184146147b35750508281555b5f614794565b836147d3926147c5855f5260205f2090565b920160051c820191016136d4565b5f81815260208120818355556147ad565b156147eb57565b60405162461bcd60e51b815260206004820152601b60248201527f563220636f6e74726163742061646472657373206e6f742073657400000000006044820152606490fd5b94919361486361487f94610519989661487194895260018060a01b0316602089015260c0604089015260c08801906104e3565b9086820360608801526104e3565b9084820360808601526104e3565b9160a08184039101526104e356fe55f448fdea98c4d29eb340757ef0a66cd03dbb9538908a6a81d96026b71ec475c624b66cc0138b8fabc209247f72d758e1cf3343756d543badbf24212bed8c15a2646970667358221220ecdec1e95a8a06cabfe7073a112d16e218feda37640ce112db7cadd8fbd05d8964736f6c6343000814003355f448fdea98c4d29eb340757ef0a66cd03dbb9538908a6a81d96026b71ec475290decd9548b62a8d60345a988386fc84ba6bc95484008f6362f93160ef3e563b10e2d527612073b26eecdfd717e6a320cf44b4afac2b0732d9fcbe2b7fa0cf6",
  "linkReferences": {},
  "deployedLinkReferences": {}
}