{
  "_format": "hh-sol-artifact-1",
  "contractName": "learntgetherMembers",
  "sourceName": "contracts/learntgetherMembers.sol",
  "abi": [
    {
      "inputs": [],
      "stateMutability": "nonpayable",
      "type": "constructor"
    },
    {
      "anonymous": false,
      "inputs": [
        {
          "indexed": true,
          "internalType": "string",
          "name": "communityName",
          "type": "string"
        },
        {
          "indexed": true,
          "internalType": "address",
          "name": "memberAddress",
          "type": "address"
        },
        {
          "indexed": true,
          "internalType": "address",
          "name": "actor",
          "type": "address"
        },
        {
          "indexed": false,
          "internalType": "int256",
          "name": "creds",
          "type": "int256"
        }
      ],
      "name": "AddedNegCred",
      "type": "event"
    },
    {
      "anonymous": false,
      "inputs": [
        {
          "indexed": true,
          "internalType": "string",
          "name": "communityName",
          "type": "string"
        },
        {
          "indexed": true,
          "internalType": "address",
          "name": "memberAddress",
          "type": "address"
        },
        {
          "indexed": true,
          "internalType": "address",
          "name": "actor",
          "type": "address"
        },
        {
          "indexed": false,
          "internalType": "int256",
          "name": "creds",
          "type": "int256"
        }
      ],
      "name": "AddedPosCred",
      "type": "event"
    },
    {
      "anonymous": false,
      "inputs": [
        {
          "indexed": true,
          "internalType": "address",
          "name": "memberAddress",
          "type": "address"
        },
        {
          "indexed": true,
          "internalType": "string",
          "name": "communityName",
          "type": "string"
        },
        {
          "indexed": false,
          "internalType": "int256",
          "name": "creds",
          "type": "int256"
        },
        {
          "indexed": true,
          "internalType": "uint256",
          "name": "timestamp",
          "type": "uint256"
        }
      ],
      "name": "Creds",
      "type": "event"
    },
    {
      "anonymous": false,
      "inputs": [
        {
          "indexed": true,
          "internalType": "string",
          "name": "communityName",
          "type": "string"
        },
        {
          "indexed": true,
          "internalType": "address",
          "name": "memberAddress",
          "type": "address"
        },
        {
          "indexed": true,
          "internalType": "address",
          "name": "actor",
          "type": "address"
        },
        {
          "indexed": false,
          "internalType": "int256",
          "name": "index",
          "type": "int256"
        }
      ],
      "name": "IndexUpdated",
      "type": "event"
    },
    {
      "anonymous": false,
      "inputs": [
        {
          "indexed": true,
          "internalType": "string",
          "name": "communityName",
          "type": "string"
        },
        {
          "indexed": true,
          "internalType": "address",
          "name": "memberAddress",
          "type": "address"
        }
      ],
      "name": "MemberAdded",
      "type": "event"
    },
    {
      "anonymous": false,
      "inputs": [
        {
          "indexed": true,
          "internalType": "address",
          "name": "memberAddress",
          "type": "address"
        },
        {
          "indexed": true,
          "internalType": "string",
          "name": "name",
          "type": "string"
        },
        {
          "indexed": false,
          "internalType": "string",
          "name": "description",
          "type": "string"
        },
        {
          "indexed": false,
          "internalType": "string[]",
          "name": "degrees",
          "type": "string[]"
        },
        {
          "indexed": false,
          "internalType": "string[]",
          "name": "awards",
          "type": "string[]"
        }
      ],
      "name": "MemberInfo",
      "type": "event"
    },
    {
      "anonymous": false,
      "inputs": [
        {
          "indexed": true,
          "internalType": "string",
          "name": "communityName",
          "type": "string"
        },
        {
          "indexed": true,
          "internalType": "address",
          "name": "memberAddress",
          "type": "address"
        }
      ],
      "name": "MemberInvited",
      "type": "event"
    },
    {
      "anonymous": false,
      "inputs": [
        {
          "indexed": true,
          "internalType": "string",
          "name": "communityName",
          "type": "string"
        },
        {
          "indexed": true,
          "internalType": "address",
          "name": "memberAddress",
          "type": "address"
        }
      ],
      "name": "MemberRemoved",
      "type": "event"
    },
    {
      "anonymous": false,
      "inputs": [
        {
          "indexed": true,
          "internalType": "string",
          "name": "communityName",
          "type": "string"
        },
        {
          "indexed": true,
          "internalType": "address",
          "name": "memberAddress",
          "type": "address"
        }
      ],
      "name": "MemberUninvited",
      "type": "event"
    },
    {
      "anonymous": false,
      "inputs": [
        {
          "indexed": true,
          "internalType": "string",
          "name": "communityName",
          "type": "string"
        },
        {
          "indexed": true,
          "internalType": "address",
          "name": "memberAddress",
          "type": "address"
        },
        {
          "indexed": true,
          "internalType": "address",
          "name": "actor",
          "type": "address"
        },
        {
          "indexed": false,
          "internalType": "int256",
          "name": "creds",
          "type": "int256"
        }
      ],
      "name": "RemovedNegCred",
      "type": "event"
    },
    {
      "anonymous": false,
      "inputs": [
        {
          "indexed": true,
          "internalType": "string",
          "name": "communityName",
          "type": "string"
        },
        {
          "indexed": true,
          "internalType": "address",
          "name": "memberAddress",
          "type": "address"
        },
        {
          "indexed": true,
          "internalType": "address",
          "name": "actor",
          "type": "address"
        },
        {
          "indexed": false,
          "internalType": "int256",
          "name": "creds",
          "type": "int256"
        }
      ],
      "name": "RemovedPosCred",
      "type": "event"
    },
    {
      "inputs": [
        {
          "internalType": "string",
          "name": "_communityName",
          "type": "string"
        },
        {
          "internalType": "address",
          "name": "_member",
          "type": "address"
        }
      ],
      "name": "addNegCredsToMember",
      "outputs": [],
      "stateMutability": "nonpayable",
      "type": "function"
    },
    {
      "inputs": [
        {
          "internalType": "string",
          "name": "_communityName",
          "type": "string"
        },
        {
          "internalType": "address",
          "name": "_member",
          "type": "address"
        }
      ],
      "name": "addPosCredsToMember",
      "outputs": [],
      "stateMutability": "nonpayable",
      "type": "function"
    },
    {
      "inputs": [
        {
          "internalType": "string",
          "name": "_communityName",
          "type": "string"
        }
      ],
      "name": "addSelfAsMember",
      "outputs": [],
      "stateMutability": "nonpayable",
      "type": "function"
    },
    {
      "inputs": [],
      "name": "communityContract",
      "outputs": [
        {
          "internalType": "contract learntgetherCommuityInterface",
          "name": "",
          "type": "address"
        }
      ],
      "stateMutability": "view",
      "type": "function"
    },
    {
      "inputs": [
        {
          "internalType": "string",
          "name": "_communityName",
          "type": "string"
        },
        {
          "internalType": "address",
          "name": "_memberAddress",
          "type": "address"
        },
        {
          "internalType": "int256",
          "name": "_creds",
          "type": "int256"
        }
      ],
      "name": "contractSetCred",
      "outputs": [
        {
          "internalType": "int256",
          "name": "",
          "type": "int256"
        }
      ],
      "stateMutability": "nonpayable",
      "type": "function"
    },
    {
      "inputs": [
        {
          "internalType": "address",
          "name": "_memberAddress",
          "type": "address"
        },
        {
          "internalType": "string",
          "name": "_communityName",
          "type": "string"
        }
      ],
      "name": "getIsInvited",
      "outputs": [
        {
          "internalType": "bool",
          "name": "",
          "type": "bool"
        }
      ],
      "stateMutability": "view",
      "type": "function"
    },
    {
      "inputs": [
        {
          "internalType": "address",
          "name": "_memberAddress",
          "type": "address"
        },
        {
          "internalType": "string",
          "name": "_communityName",
          "type": "string"
        }
      ],
      "name": "getIsMember",
      "outputs": [
        {
          "internalType": "bool",
          "name": "",
          "type": "bool"
        }
      ],
      "stateMutability": "view",
      "type": "function"
    },
    {
      "inputs": [
        {
          "internalType": "address",
          "name": "_memberAddress",
          "type": "address"
        },
        {
          "internalType": "address",
          "name": "_credGiverAddress",
          "type": "address"
        },
        {
          "internalType": "string",
          "name": "_communityName",
          "type": "string"
        }
      ],
      "name": "getMemberCredIndex",
      "outputs": [
        {
          "internalType": "int256",
          "name": "index",
          "type": "int256"
        }
      ],
      "stateMutability": "view",
      "type": "function"
    },
    {
      "inputs": [
        {
          "internalType": "address",
          "name": "_memberAddress",
          "type": "address"
        },
        {
          "internalType": "string",
          "name": "_communityName",
          "type": "string"
        }
      ],
      "name": "getMemberCreds",
      "outputs": [
        {
          "internalType": "int256",
          "name": "creds",
          "type": "int256"
        }
      ],
      "stateMutability": "view",
      "type": "function"
    },
    {
      "inputs": [
        {
          "internalType": "address",
          "name": "_memberAddress",
          "type": "address"
        },
        {
          "internalType": "string",
          "name": "_communityName",
          "type": "string"
        }
      ],
      "name": "getMemberNegCredsList",
      "outputs": [
        {
          "internalType": "address[]",
          "name": "addressList",
          "type": "address[]"
        }
      ],
      "stateMutability": "view",
      "type": "function"
    },
    {
      "inputs": [
        {
          "internalType": "address",
          "name": "_memberAddress",
          "type": "address"
        },
        {
          "internalType": "string",
          "name": "_communityName",
          "type": "string"
        }
      ],
      "name": "getMemberPosCredsList",
      "outputs": [
        {
          "internalType": "address[]",
          "name": "addressList",
          "type": "address[]"
        }
      ],
      "stateMutability": "view",
      "type": "function"
    },
    {
      "inputs": [
        {
          "internalType": "address",
          "name": "_memberAddress",
          "type": "address"
        },
        {
          "internalType": "string",
          "name": "_communityName",
          "type": "string"
        },
        {
          "internalType": "address",
          "name": "givenBy",
          "type": "address"
        }
      ],
      "name": "hasMemberGivenCred",
      "outputs": [
        {
          "internalType": "bool",
          "name": "",
          "type": "bool"
        }
      ],
      "stateMutability": "view",
      "type": "function"
    },
    {
      "inputs": [
        {
          "internalType": "string",
          "name": "_communityName",
          "type": "string"
        },
        {
          "internalType": "address",
          "name": "_memberAddress",
          "type": "address"
        }
      ],
      "name": "inviteMember",
      "outputs": [
        {
          "internalType": "address",
          "name": "",
          "type": "address"
        }
      ],
      "stateMutability": "nonpayable",
      "type": "function"
    },
    {
      "inputs": [
        {
          "internalType": "string",
          "name": "",
          "type": "string"
        },
        {
          "internalType": "address",
          "name": "",
          "type": "address"
        }
      ],
      "name": "isInvited",
      "outputs": [
        {
          "internalType": "bool",
          "name": "",
          "type": "bool"
        }
      ],
      "stateMutability": "view",
      "type": "function"
    },
    {
      "inputs": [
        {
          "internalType": "address",
          "name": "",
          "type": "address"
        },
        {
          "internalType": "uint256",
          "name": "",
          "type": "uint256"
        }
      ],
      "name": "memberCommunities",
      "outputs": [
        {
          "internalType": "string",
          "name": "",
          "type": "string"
        }
      ],
      "stateMutability": "view",
      "type": "function"
    },
    {
      "inputs": [
        {
          "internalType": "string",
          "name": "_communityName",
          "type": "string"
        },
        {
          "internalType": "address",
          "name": "_member",
          "type": "address"
        }
      ],
      "name": "removeNegCredsFromMember",
      "outputs": [],
      "stateMutability": "nonpayable",
      "type": "function"
    },
    {
      "inputs": [
        {
          "internalType": "string",
          "name": "_communityName",
          "type": "string"
        },
        {
          "internalType": "address",
          "name": "_member",
          "type": "address"
        }
      ],
      "name": "removePosCredsFromMember",
      "outputs": [],
      "stateMutability": "nonpayable",
      "type": "function"
    },
    {
      "inputs": [
        {
          "internalType": "string",
          "name": "_communityName",
          "type": "string"
        }
      ],
      "name": "removeSelfAsMember",
      "outputs": [],
      "stateMutability": "nonpayable",
      "type": "function"
    },
    {
      "inputs": [
        {
          "internalType": "address",
          "name": "_contractAddress",
          "type": "address"
        }
      ],
      "name": "setlearntgetherCommunities",
      "outputs": [],
      "stateMutability": "nonpayable",
      "type": "function"
    },
    {
      "inputs": [
        {
          "internalType": "string",
          "name": "_communityName",
          "type": "string"
        },
        {
          "internalType": "address",
          "name": "_memberAddress",
          "type": "address"
        }
      ],
      "name": "uninviteMember",
      "outputs": [
        {
          "internalType": "address",
          "name": "",
          "type": "address"
        }
      ],
      "stateMutability": "nonpayable",
      "type": "function"
    }
  ],
  "bytecode": "0x6080806040523461002857600280546001600160a01b0319163317905561294f908161002d8239f35b5f80fdfe604060808152600480361015610013575f80fd5b5f91823560e01c806302b5df591461211357806319f553e21461208e5780634f64aedd14611db95780635450fdd5146119735780636255de33146118595780636b039bb4146114b05780638c5956c4146110815780638e6340291461105857806399d03bf214610e665780639c419dc914610dd6578063a482857814610da8578063b091c54614610d8c578063b66fdab414610af5578063bf2a3b7414610976578063c783acb414610907578063ca4f880b146105e3578063cdb43ea414610255578063e636f31414610202578063f3faf99a146101a45763fbc3d96c146100f9575f80fd5b346101a05761014992600361010d3661222c565b60018060a09893981b0380971680855261013b60209786895261013288882085612356565b0154151561285b565b845283865284842090612356565b01938251908194808754938481520196845280842093915b838310610187576101838787610179828c03836121b6565b519182918261237c565b0390f35b8454811688529681019660019485019490920191610161565b8280fd5b50346101a0576101b992600261010d3661222c565b01938251908194808754938481520196845280842093915b8383106101e9576101838787610179828c03836121b6565b84548116885296810196600194850194909201916101d1565b5090346101a0578160209360ff926102318661021d3661222c565b909382875194838680955193849201612310565b8201908152030190206001600160a01b039091168252855220549151911615158152f35b508290346105df576102663661226e565b919060018060a01b03809316928385526020958587528061028985882085612356565b015461058b578351918351928881818701956102a6818389612310565b810185815203019020868852885260ff85882054166105515780600354169085519063cbe02a9f60e01b8083528a858401528a83806102e8602482018b612331565b0381875afa928315610547578a93610528575b50875163b3f6702d60e01b81528581018c90528b818061031e602482018c612331565b0381885afa90811561051e579083918c91610501575b5016331492836104f6575b508215610484575b505015610431578785518092631efb39a960e11b825282858301528180610371602482018a612331565b03915afa90811561042757887fbee566e9904e3c5e202405f159f39bc31121d728f2772cabc7cf243bcf63a647946103f1946103c060018b9a99966103d0968e916103fa575b501515146123f6565b8751809481938751928391612310565b8201908152030190208588528852838720805460ff1916600117905561244d565b91519480a38152f35b61041a9150863d8811610420575b61041281836121b6565b8101906123de565b8f6103b7565b503d610408565b85513d89823e3d90fd5b845162461bcd60e51b8152808301899052602760248201527f596f7520646f6e742068617665207065726d697373696f6e20696e76697465206044820152664d656d6265727360c81b6064820152608490fd5b909150865190815289848201528981806104a1602482018a612331565b0381865afa9081156104ec5789916104bf575b501633148980610347565b6104df91508a3d8c116104e5575b6104d781836121b6565b8101906123bf565b8a6104b4565b503d6104cd565b87513d8b823e3d90fd5b82161592508b61033f565b61051891508d803d106104e5576104d781836121b6565b8d610334565b89513d8d823e3d90fd5b6105409193508b3d8d116104e5576104d781836121b6565b918b6102fb565b88513d8c823e3d90fd5b845162461bcd60e51b81528083018990526014602482015273155cd95c88105b1c9958591e48125b9d9a5d195960621b6044820152606490fd5b835162461bcd60e51b8152908101879052602860248201527f4d656d62657220616c726561647920657869737473206f66207468697320636f60448201526736b6bab734ba3c9760c11b6064820152608490fd5b5080fd5b508290346105df57602092836003193601126101a05780356001600160401b0381116109035761061690369083016121d7565b6003548351637b7fcfed60e01b815283810187905260249692949291829082906001600160a01b0316818061064d8c82018b612331565b03915afa9081156108f9579061066a9187916108dc575b50612508565b3385528481526106898361068084882087612356565b0154151561254f565b3385528481528261069c83872086612356565b01543386526001808352838720545f19989192908981019081116108ca5781036107c2575b5033875281835283872097885480156107b05701916106e0838a6122af565b9290926107a05750928795949289878461072d976106ff8397546122d8565b9081610760575b5050505055338252818152818561071f8583208a612356565b015533825252832084612356565b0155610739339161244d565b7fdd403bcc860194e697bd48a94ad259a004827525ef954ad73b044e400f3adfe08380a380f35b8390601f831160011461077b57505050555b838b8080610706565b61079990848394959352601f898520950160051c850190850161246d565b5555610772565b634e487b7160e01b895288875288fd5b634e487b7160e01b8952603187528289fd5b3388528284528488208054908a82019182116108b857906107e2916122af565b503389528385526107f582878b206122af565b6108a75790610803916125ab565b338852878452858589208486528561081d84898d206122af565b508851928c9180549061082f826122d8565b91868b821691825f1461088f575050600114610858575b505081528290030190200155886106c1565b909192508d528c888482205b83831061087857505050830190838f610846565b8054878401528d97508b95909201918a9101610864565b925094505060ff19168352801515028201918f610846565b634e487b7160e01b8a52898852838afd5b634e487b7160e01b8a5260118852838afd5b634e487b7160e01b8952601187528289fd5b6108f39150833d85116104205761041281836121b6565b88610664565b83513d88823e3d90fd5b8380fd5b5090346101a05760603660031901126101a057610922612157565b90602435906001600160401b03821161097257610941913691016121d7565b604435939091906001600160a01b038516850361096f575092610966916020946128b8565b90519015158152f35b80fd5b8480fd5b50823461096f57606036600319011261096f5782356001600160401b0381116105df576109a690369085016121d7565b906109af612171565b600354845163cbe02a9f60e01b81526020818801819052966001600160a01b03939290919088908290861681806109e9602482018c612331565b03915afa908115610aeb579084918691610ace575b50168033149081610ac4575b5080610aa5575b15610a4a5750918491610a42949316808252818752604435610a3584842086612356565b5581528086522090612356565b549051908152f35b855162461bcd60e51b8152908101879052602f60248201527f4e6f742074686520637265642061636365737320636f6e7472616374206f722060448201526e2ab9b2b9103737ba1036b2b6b132b960891b6064820152608490fd5b50828216845283875280610abb87862087612356565b01541515610a11565b9050151588610a0a565b610ae59150893d8b116104e5576104d781836121b6565b896109fe565b87513d87823e3d90fd5b5090346101a057610b053661226e565b6003548451637b7fcfed60e01b8152602081860181905293956001600160a01b0392831695909493909291848180610b40602482018c612331565b03818a5afa908115610d8257839291610b5f918b91610d655750612508565b338952888552610b7584610680888c208b612356565b1694858852878452610b9683610b8d878b208a612356565b01541515612685565b610ba2863314156126e8565b838551809263cbe02a9f60e01b825282868301528180610bc5602482018d612331565b03915afa908115610d5b5790610be592918991610d3e575b501615612734565b8386528582526001610bf984882087612356565b013387528252610c0c838720541561278f565b838652858252610c1e83872086612356565b805490600182019188600184129112908015821691151617610d2b5755838652858252610c4d83872086612356565b54610c578661244d565b8451918252855f805160206128fa833981519152854294a4838652858252610c8d336002610c87868a2089612356565b016124e5565b8386528582526002610ca184882087612356565b01545f19810191908211610d185750907fd0f5d24e816c9fc4cba0f35b280898648e66604fc44212736e778bfefc338b0f918487528682526001610ce785892088612356565b01338852825283872055838652858152610d0d610d0684882087612356565b549561244d565b92519485523394a480f35b634e487b7160e01b875260119052602486fd5b634e487b7160e01b885260118352602488fd5b610d559150853d87116104e5576104d781836121b6565b5f610bdd565b85513d8a823e3d90fd5b610d7c9150873d89116104205761041281836121b6565b5f610664565b86513d8b823e3d90fd5b8382346105df57602090610966610da23661222c565b90612829565b5090346101a0578160209360ff9261023186610dc33661226e565b9382875194838680955193849201612310565b5090346101a05760603660031901126101a057610df1612157565b610df9612171565b916044356001600160401b038111610e6257916001610e52869593610e2460209996369083016121d7565b90610e44848060a01b0380961691828952888c526101328a8a2085612356565b865285895286862090612356565b0191168252845220549051908152f35b8580fd5b5090346101a057610e763661226e565b6003548451637b7fcfed60e01b8152602081860181905293956001600160a01b0392831695909493909291848180610eb1602482018c612331565b03818a5afa908115610d8257839291610ed0918b91610d655750612508565b338952888552610ee684610680888c208b612356565b1694858852878452610efe83610b8d878b208a612356565b610f0a863314156126e8565b838551809263cbe02a9f60e01b825282868301528180610f2d602482018d612331565b03915afa908115610d5b5790610f4c92918991610d3e57501615612734565b8386528582526001610f6084882087612356565b013387528252610f73838720541561278f565b838652858252610f8583872086612356565b9081545f19928382019182136001166110455755848752868352610fab84882087612356565b54610fb58761244d565b8551918252865f805160206128fa833981519152864294a4848752868352610fe5336003610c87878b208a612356565b8487528683526003610ff985892088612356565b0154918201918211610d185750906110317f8e3dd53aaad1909975de245668134b898a443d9d797f6a14e77b5cd0606ed541926127ef565b8487528682526001610ce785892088612356565b634e487b7160e01b895260118352602489fd5b8382346105df57816003193601126105df5760035490516001600160a01b039091168152602090f35b50823461096f576110913661226e565b9260018060a01b0393846003541695825195637b7fcfed60e01b875260209283838901526024978481806110c78c82018b612331565b03818d5afa9081156114a65798809a61112386610b8d8a888e9f988e9f9e8f6106808f9b92868361114d9f948f611109611114988e98849161148f5750612508565b338252522090612356565b169c8d8152808852208d612356565b61112f893314156126e8565b8751808095819463cbe02a9f60e01b8352868a84015282018d612331565b03915afa908115610d5b579082918991611472575b501661142357848752868352600161117c85892088612356565b0133885283528387205491878313801561141c575b85519061119d82612187565b603682527f596f752068617665206e6f7420676976656e206120706f736974697665206372868301527532b2103a37903a3434b99036b2b6b132b9103cb2ba1760511b87830152156113f857508588528784526111fc85892088612356565b9182545f1993848201918b86841291129080158216911516176113e6575586895288855261122c868a2089612356565b546112368961244d565b8751918252885f805160206128fa833981519152884294a48689528885526002611262878b208a612356565b0193898554928584019384116113d457838303611317575b509050879150528784526001611292868a2089612356565b0133895284528785812055825490811561130557507f6c5cfc2553aaffd4cd0342765cdbca370cda07554f00e4e5112884eae468e29993929101906112ef6112da83836122af565b81549060018060a01b039060031b1b19169055565b55838652858152610d0d610d0684882087612356565b634e487b7160e01b8952603190528888fd5b61135981611328611397968a6122af565b90549060031b1c1661133a858a6122af565b90919082549060031b9160018060a01b03809116831b921b1916179055565b60016113768a61136886612818565b948d8152808c52208d612356565b019061138284896122af565b90549060031b1c168c528752878b2055612818565b866113a18961244d565b87519283527fd6fa86004958e4fadc7035e661e86172c72f1ea51e79e8bf8bd3f4103663e8e3873394a48980898161127a565b634e487b7160e01b8252601185528c82fd5b634e487b7160e01b8b52601184528b8bfd5b855162461bcd60e51b8152918201859052819061141890828c0190612331565b0390fd5b5087611191565b5060258760849385519362461bcd60e51b85528401528201527f436f6d6d756e6974792055736573206120637265642061636365737320636f6e6044820152641d1c9858dd60da1b6064820152fd5b6114899150853d87116104e5576104d781836121b6565b8a611162565b610d7c9150833d85116104205761041281836121b6565b86513d8a823e3d90fd5b508290346105df576114c13661226e565b600354835163cbe02a9f60e01b80825260208289018190529793959493926024926001600160a01b0392918316918a82806114fe8882018b612331565b0381865afa918215610547578a9261183a575b50875163b3f6702d60e01b81528681018c90528b81806115338982018c612331565b0381875afa90811561051e57859182918e8e9261181d575b50501633149283611812575b505081156117ba575b5015611766578886518092631efb39a960e11b8252828783015281806115888882018b612331565b03915afa9081156114a6576115a9916001918a9161174957501515146123f6565b8451908451918981818801946115c0818388612310565b8101878152030190209616958688528852600160ff8689205416151503611712578533146116d057876115fd918651809381928851928391612310565b8101858152030190208587528752838620805460ff191690558351635848e2a360e11b815280830186905290810184905286818061163e6044820187612331565b0381305afa9081156116c65792867fe19753ef16cb08d80c81e7c26df1578544dc02c0a7538cf0d3fc2355dc180bca9360016103f19489989784916116a9575b5015151461168e575b505061244d565b868252818a526116a086832084612356565b01558689611687565b6116c091508c8d3d106104205761041281836121b6565b8c61167e565b84513d88823e3d90fd5b845162461bcd60e51b8152808401899052601d818401527f596f752063616e6e6f7420756e696e7669746520796f757273656c662e0000006044820152606490fd5b845162461bcd60e51b81528084018990526012818401527113595b58995c88139bdd08125b9d9a5d195960721b6044820152606490fd5b61176091508b3d8d116104205761041281836121b6565b8b6103b7565b855162461bcd60e51b81528085018a90526029818501527f596f7520646f6e742068617665207065726d697373696f6e20756e696e76697460448201526865204d656d6265727360b81b6064820152608490fd5b9050865190815289858201528981806117d58782018a612331565b0381855afa9081156104ec579083918a916117f5575b501633148a611560565b61180c91508b3d8d116104e5576104d781836121b6565b8b6117eb565b16159150838c611557565b6118339250803d106104e5576104d781836121b6565b8e8e61154b565b6118529192508b3d8d116104e5576104d781836121b6565b908b611511565b508290346105df57806003193601126105df57611874612157565b6001600160a01b0316825260016020818152828420805491949160243591908210156101a057906118a4916122af565b95909561196157508251948592828254926118be846122d8565b938487528884821691825f146119375750506001146118f9575b8588610183896118ea848a03856121b6565b51928284938452830190612331565b87945081939291528383205b82841061191f57505050820101816118ea610183886118d8565b8054848a018601528895508794909301928101611905565b60ff19168882015294151560051b870190940194508593506118ea925061018391508990506118d8565b634e487b7160e01b8252819052602490fd5b50346101a057602080600319360112610903576001600160401b038335818111610e62576119a490369086016121d7565b9360018060a01b0360035416845192637b7fcfed60e01b845284838501526024938581806119d48882018c612331565b0381865afa9081156104ec578991611d9c575b5015611d5f5733885287855282611a00878a2089612356565b0154611d09578486518093631efb39a960e11b825282868301528180611a288982018d612331565b03915afa9182156114a6578892611cea575b5060018092151514611c67575b3388528185528588208054908115611c0c575b5050338852818552858820805490600160401b821015611bfa5790611a839184820181556122af565b919091611be9578751908111611bd757611aa781611aa184546122d8565b84612483565b8086601f8211600114611b7a578a91611b6f575b505f19600383901b1c191690831b1790555b3387528352838620545f19810192908311611b5e57509285600393611b1b93611b2d96338452838352611b028585208a612356565b0155338252818152611b216002611b1b8585208a612356565b016124c8565b33825252852084612356565b611b37339161244d565b7ff038f0d708fc70f18d5815d07a62a3b40d2035dc6af7429865f612242ff870588380a380f35b634e487b7160e01b87526011825286fd5b90508801515f611abb565b838b52878b2085935090601f1983168c5b8a8d838310611bc2575050508311611baa575b5050811b019055611acd565b8a01515f1960f88460031b161c191690555f80611b9e565b84015185558896909401939283019201611b8b565b634e487b7160e01b8952604184528489fd5b634e487b7160e01b89528884528489fd5b634e487b7160e01b8a5260418552858afd5b600160401b821015611bfa5790611c279184820181556122af565b611be95780611c375f92546122d8565b601f8111611c49575b50555f80611a5a565b818b52878b20611c6191601f0160051c81019061246d565b5f611c40565b8551858181611c7c8b83815193849201612310565b81018681520301902033895285528588205460ff1615158214611a4757855162461bcd60e51b81528084018690526026818601527f596f7520617265206e6f7420696e766974656420746f207468697320636f6d6d6044820152653ab734ba3c9760d11b6064820152608490fd5b611d02919250853d87116104205761041281836121b6565b905f611a3a565b855162461bcd60e51b8152808401869052602b818601527f596f752061726520616c72656164792061206d656d626572206f66207468697360448201526a1031b7b6b6bab734ba3c9760a91b6064820152608490fd5b855162461bcd60e51b81528084018690526018818601527710dbdb5b5d5b9a5d1e48111bd95cc81b9bdd08115e1a5cdd60421b6044820152606490fd5b611db39150863d88116104205761041281836121b6565b5f6119e7565b50823461096f57611dc93661226e565b9260018060a01b0393846003541695825195637b7fcfed60e01b87526020928383890152602497848180611dff8c82018b612331565b03818d5afa9081156114a65798809a61112386610b8d8a888e9f988e9f9e8f6106808f9b928683611e419f948f611109611114988e98849161148f5750612508565b03915afa908115610d5b579082918991612071575b5016611423578487528683526001611e7085892088612356565b013388528352838720548451611e8581612187565b602381527f48617665206e6f7420676976656e2061206e6567617469766520637265642079858201526232ba1760e91b86820152888212156120505750858852878452611ed485892088612356565b80549060018201918a60018412911290801582169115161761203e5790611f30929155868952888552611f09868a2089612356565b54611f138961244d565b8751918252885f805160206128fa833981519152884294a46127ef565b918588528784526003611f45868a2089612356565b0192835490895f19948584019384116113d457838303611fc0575b509050879150528784526001611f78868a2089612356565b0133895284528785812055825490811561130557507fd6d87a1ec8d7320486a7705035a72a09149f3c5e25dcccb14a1c99eebc86d6c093929101906112ef6112da83836122af565b611fd181611328612001968a6122af565b6001611fe08a611368866127ef565b0190611fec84896122af565b90549060031b1c168c528752878b20556127ef565b8661200b8961244d565b87519283527fd6fa86004958e4fadc7035e661e86172c72f1ea51e79e8bf8bd3f4103663e8e3873394a489808981611f60565b634e487b7160e01b8a52601185528a8afd5b855162461bcd60e51b815280850186905290819061141890828d0190612331565b6120889150853d87116104e5576104d781836121b6565b8a611e56565b5090346101a05760203660031901126101a0576120a9612157565b6002546001600160a01b039391929190841633036120d75750501660018060a01b0319600354161760035580f35b906020606492519162461bcd60e51b835282015260166024820152752737ba103a34329031b7b73a3930b1ba1037bbb732b960511b6044820152fd5b5090346101a05761214b82602094610a429361212e3661222c565b949060018060a01b03169182845283895261013285852087612356565b81528086522090612356565b600435906001600160a01b038216820361216d57565b5f80fd5b602435906001600160a01b038216820361216d57565b606081019081106001600160401b038211176121a257604052565b634e487b7160e01b5f52604160045260245ffd5b90601f801991011681019081106001600160401b038211176121a257604052565b81601f8201121561216d578035906001600160401b0382116121a2576040519261220b601f8401601f1916602001856121b6565b8284526020838301011161216d57815f926020809301838601378301015290565b90604060031983011261216d576004356001600160a01b038116810361216d5791602435906001600160401b03821161216d5761226b916004016121d7565b90565b604060031982011261216d57600435906001600160401b03821161216d57612298916004016121d7565b906024356001600160a01b038116810361216d5790565b80548210156122c4575f5260205f2001905f90565b634e487b7160e01b5f52603260045260245ffd5b90600182811c92168015612306575b60208310146122f257565b634e487b7160e01b5f52602260045260245ffd5b91607f16916122e7565b5f5b8381106123215750505f910152565b8181015183820152602001612312565b9060209161234a81518092818552858086019101612310565b601f01601f1916010190565b602090612370928260405194838680955193849201612310565b82019081520301902090565b602090816040818301928281528551809452019301915f5b8281106123a2575050505090565b83516001600160a01b031685529381019392810192600101612394565b9081602091031261216d57516001600160a01b038116810361216d5790565b9081602091031261216d5751801515810361216d5790565b156123fd57565b60405162461bcd60e51b815260206004820152602260248201527f5468697320636f6d6d756e697479206973206e6f7420696e76697465206f6e6c6044820152613c9760f11b6064820152608490fd5b61246590602060405192828480945193849201612310565b810103902090565b818110612478575050565b5f815560010161246d565b9190601f811161249257505050565b6124bc925f5260205f20906020601f840160051c830193106124be575b601f0160051c019061246d565b565b90915081906124af565b8054600160401b8110156121a2576112da916001820181556122af565b80549190600160401b8310156121a2578261133a9160016124bc950181556122af565b1561250f57565b60405162461bcd60e51b815260206004820152601860248201527710dbdb5b5d5b9a5d1e48111bd95cc8139bdd08115e1a5cdd60421b6044820152606490fd5b1561255657565b60405162461bcd60e51b815260206004820152602760248201527f596f7520617265206e6f742061206d656d626572206f66207468697320636f6d60448201526636bab734ba3c9760c91b6064820152608490fd5b90808214612681576125bd81546122d8565b906001600160401b0382116121a25781906125e2826125dc86546122d8565b86612483565b5f90601f8311600114612616575f9261260b575b50508160011b915f199060031b1c1916179055565b015490505f806125f6565b81526020808220858352818320935090601f1985169083905b828210612668575050908460019594939210612650575b505050811b019055565b01545f1960f88460031b161c191690555f8080612646565b849581929585015481556001809101960194019061262f565b5050565b1561268c57565b60405162461bcd60e51b815260206004820152602e60248201527f546172676574206d656d62657220646f65736e2774206578697374206f66207460448201526d3434b99031b7b6b6bab734ba3c9760911b6064820152608490fd5b156126ef57565b60405162461bcd60e51b815260206004820152601f60248201527f596f752063616e6e6f74206564697420796f7572206f776e2063726564732e006044820152606490fd5b1561273b57565b60405162461bcd60e51b815260206004820152602660248201527f436f6d6d6d756e6974792055736573206120637265642061636365737320636f6044820152651b9d1c9858dd60d21b6064820152608490fd5b1561279657565b60405162461bcd60e51b815260206004820152602b60248201527f596f7527766520616c726561647920676976656e2061206372656420746f207460448201526a3434b99036b2b6b132b91760a91b6064820152608490fd5b90815f03918083055f19149015171561280457565b634e487b7160e01b5f52601160045260245ffd5b908115600183800514171561280457565b6001600160a01b03165f90815260208190526040902060049161284c9190612356565b0154612856575f90565b600190565b1561286257565b60405162461bcd60e51b815260206004820152602860248201527f4d656d62657220446f6573204e6f7420457869737420466f72207468697320636044820152676f6d6d756e69747960c01b6064820152608490fd5b6001600160a01b039081165f9081526020819052604081209093926001916128df91612356565b9190921683520160205260408120541561226b575060019056fe1956a939e1963127a6802bc7dff8c43f9bc551a0bf97efc611706570e4108402a264697066735822122026d1b35fea2a9674f10577cecb7fc5e906854b072f0cd0cfbc5bbcc54826c4c864736f6c63430008140033",
  "linkReferences": {},
  "deployedLinkReferences": {}
}