{
  "_format": "hh-sol-artifact-1",
  "contractName": "learntgetherMembers",
  "sourceName": "contracts/learntgetherMembers.sol",
  "abi": [
    {
      "inputs": [],
      "stateMutability": "nonpayable",
      "type": "constructor"
    },
    {
      "anonymous": false,
      "inputs": [
        {
          "indexed": true,
          "internalType": "string",
          "name": "communityName",
          "type": "string"
        },
        {
          "indexed": true,
          "internalType": "address",
          "name": "memberAddress",
          "type": "address"
        },
        {
          "indexed": true,
          "internalType": "address",
          "name": "actor",
          "type": "address"
        },
        {
          "indexed": false,
          "internalType": "int256",
          "name": "creds",
          "type": "int256"
        }
      ],
      "name": "AddedNegCred",
      "type": "event"
    },
    {
      "anonymous": false,
      "inputs": [
        {
          "indexed": true,
          "internalType": "string",
          "name": "communityName",
          "type": "string"
        },
        {
          "indexed": true,
          "internalType": "address",
          "name": "memberAddress",
          "type": "address"
        },
        {
          "indexed": true,
          "internalType": "address",
          "name": "actor",
          "type": "address"
        },
        {
          "indexed": false,
          "internalType": "int256",
          "name": "creds",
          "type": "int256"
        }
      ],
      "name": "AddedPosCred",
      "type": "event"
    },
    {
      "anonymous": false,
      "inputs": [
        {
          "indexed": true,
          "internalType": "address",
          "name": "memberAddress",
          "type": "address"
        },
        {
          "indexed": true,
          "internalType": "string",
          "name": "communityName",
          "type": "string"
        },
        {
          "indexed": false,
          "internalType": "int256",
          "name": "creds",
          "type": "int256"
        },
        {
          "indexed": true,
          "internalType": "uint256",
          "name": "timestamp",
          "type": "uint256"
        }
      ],
      "name": "Creds",
      "type": "event"
    },
    {
      "anonymous": false,
      "inputs": [
        {
          "indexed": true,
          "internalType": "string",
          "name": "communityName",
          "type": "string"
        },
        {
          "indexed": true,
          "internalType": "address",
          "name": "memberAddress",
          "type": "address"
        },
        {
          "indexed": true,
          "internalType": "address",
          "name": "actor",
          "type": "address"
        },
        {
          "indexed": false,
          "internalType": "int256",
          "name": "index",
          "type": "int256"
        }
      ],
      "name": "IndexUpdated",
      "type": "event"
    },
    {
      "anonymous": false,
      "inputs": [
        {
          "indexed": true,
          "internalType": "string",
          "name": "communityName",
          "type": "string"
        },
        {
          "indexed": true,
          "internalType": "address",
          "name": "memberAddress",
          "type": "address"
        }
      ],
      "name": "MemberAdded",
      "type": "event"
    },
    {
      "anonymous": false,
      "inputs": [
        {
          "indexed": true,
          "internalType": "address",
          "name": "memberAddress",
          "type": "address"
        },
        {
          "indexed": true,
          "internalType": "string",
          "name": "name",
          "type": "string"
        },
        {
          "indexed": false,
          "internalType": "string",
          "name": "description",
          "type": "string"
        },
        {
          "indexed": false,
          "internalType": "string[]",
          "name": "degrees",
          "type": "string[]"
        },
        {
          "indexed": false,
          "internalType": "string[]",
          "name": "awards",
          "type": "string[]"
        }
      ],
      "name": "MemberInfo",
      "type": "event"
    },
    {
      "anonymous": false,
      "inputs": [
        {
          "indexed": true,
          "internalType": "string",
          "name": "communityName",
          "type": "string"
        },
        {
          "indexed": true,
          "internalType": "address",
          "name": "memberAddress",
          "type": "address"
        }
      ],
      "name": "MemberInvited",
      "type": "event"
    },
    {
      "anonymous": false,
      "inputs": [
        {
          "indexed": true,
          "internalType": "string",
          "name": "communityName",
          "type": "string"
        },
        {
          "indexed": true,
          "internalType": "address",
          "name": "memberAddress",
          "type": "address"
        }
      ],
      "name": "MemberRemoved",
      "type": "event"
    },
    {
      "anonymous": false,
      "inputs": [
        {
          "indexed": true,
          "internalType": "string",
          "name": "communityName",
          "type": "string"
        },
        {
          "indexed": true,
          "internalType": "address",
          "name": "memberAddress",
          "type": "address"
        }
      ],
      "name": "MemberUninvited",
      "type": "event"
    },
    {
      "anonymous": false,
      "inputs": [
        {
          "indexed": true,
          "internalType": "string",
          "name": "communityName",
          "type": "string"
        },
        {
          "indexed": true,
          "internalType": "address",
          "name": "memberAddress",
          "type": "address"
        },
        {
          "indexed": true,
          "internalType": "address",
          "name": "actor",
          "type": "address"
        },
        {
          "indexed": false,
          "internalType": "int256",
          "name": "creds",
          "type": "int256"
        }
      ],
      "name": "RemovedNegCred",
      "type": "event"
    },
    {
      "anonymous": false,
      "inputs": [
        {
          "indexed": true,
          "internalType": "string",
          "name": "communityName",
          "type": "string"
        },
        {
          "indexed": true,
          "internalType": "address",
          "name": "memberAddress",
          "type": "address"
        },
        {
          "indexed": true,
          "internalType": "address",
          "name": "actor",
          "type": "address"
        },
        {
          "indexed": false,
          "internalType": "int256",
          "name": "creds",
          "type": "int256"
        }
      ],
      "name": "RemovedPosCred",
      "type": "event"
    },
    {
      "inputs": [
        {
          "internalType": "string",
          "name": "_communityName",
          "type": "string"
        },
        {
          "internalType": "address",
          "name": "_member",
          "type": "address"
        }
      ],
      "name": "addNegCredsToMember",
      "outputs": [],
      "stateMutability": "nonpayable",
      "type": "function"
    },
    {
      "inputs": [
        {
          "internalType": "string",
          "name": "_communityName",
          "type": "string"
        },
        {
          "internalType": "address",
          "name": "_member",
          "type": "address"
        }
      ],
      "name": "addPosCredsToMember",
      "outputs": [],
      "stateMutability": "nonpayable",
      "type": "function"
    },
    {
      "inputs": [
        {
          "internalType": "string",
          "name": "_communityName",
          "type": "string"
        }
      ],
      "name": "addSelfAsMember",
      "outputs": [],
      "stateMutability": "nonpayable",
      "type": "function"
    },
    {
      "inputs": [],
      "name": "communityContract",
      "outputs": [
        {
          "internalType": "contract learntgetherCommuityInterface",
          "name": "",
          "type": "address"
        }
      ],
      "stateMutability": "view",
      "type": "function"
    },
    {
      "inputs": [
        {
          "internalType": "address",
          "name": "_memberAddress",
          "type": "address"
        },
        {
          "internalType": "string",
          "name": "_communityName",
          "type": "string"
        }
      ],
      "name": "getIsInvited",
      "outputs": [
        {
          "internalType": "bool",
          "name": "",
          "type": "bool"
        }
      ],
      "stateMutability": "view",
      "type": "function"
    },
    {
      "inputs": [
        {
          "internalType": "address",
          "name": "_memberAddress",
          "type": "address"
        },
        {
          "internalType": "string",
          "name": "_communityName",
          "type": "string"
        }
      ],
      "name": "getIsMember",
      "outputs": [
        {
          "internalType": "bool",
          "name": "",
          "type": "bool"
        }
      ],
      "stateMutability": "view",
      "type": "function"
    },
    {
      "inputs": [
        {
          "internalType": "address",
          "name": "_memberAddress",
          "type": "address"
        },
        {
          "internalType": "address",
          "name": "_credGiverAddress",
          "type": "address"
        },
        {
          "internalType": "string",
          "name": "_communityName",
          "type": "string"
        }
      ],
      "name": "getMemberCredIndex",
      "outputs": [
        {
          "internalType": "int256",
          "name": "index",
          "type": "int256"
        }
      ],
      "stateMutability": "view",
      "type": "function"
    },
    {
      "inputs": [
        {
          "internalType": "address",
          "name": "_memberAddress",
          "type": "address"
        },
        {
          "internalType": "string",
          "name": "_communityName",
          "type": "string"
        }
      ],
      "name": "getMemberCreds",
      "outputs": [
        {
          "internalType": "int256",
          "name": "creds",
          "type": "int256"
        }
      ],
      "stateMutability": "view",
      "type": "function"
    },
    {
      "inputs": [
        {
          "internalType": "address",
          "name": "_memberAddress",
          "type": "address"
        },
        {
          "internalType": "string",
          "name": "_communityName",
          "type": "string"
        }
      ],
      "name": "getMemberNegCredsList",
      "outputs": [
        {
          "internalType": "address[]",
          "name": "addressList",
          "type": "address[]"
        }
      ],
      "stateMutability": "view",
      "type": "function"
    },
    {
      "inputs": [
        {
          "internalType": "address",
          "name": "_memberAddress",
          "type": "address"
        },
        {
          "internalType": "string",
          "name": "_communityName",
          "type": "string"
        }
      ],
      "name": "getMemberPosCredsList",
      "outputs": [
        {
          "internalType": "address[]",
          "name": "addressList",
          "type": "address[]"
        }
      ],
      "stateMutability": "view",
      "type": "function"
    },
    {
      "inputs": [
        {
          "internalType": "address",
          "name": "_memberAddress",
          "type": "address"
        },
        {
          "internalType": "string",
          "name": "_communityName",
          "type": "string"
        }
      ],
      "name": "getReiewerCommunityInfo",
      "outputs": [
        {
          "internalType": "int256",
          "name": "_creds",
          "type": "int256"
        },
        {
          "internalType": "address[]",
          "name": "_posCreds",
          "type": "address[]"
        },
        {
          "internalType": "address[]",
          "name": "_negCreds",
          "type": "address[]"
        }
      ],
      "stateMutability": "view",
      "type": "function"
    },
    {
      "inputs": [
        {
          "internalType": "address",
          "name": "_memberAddress",
          "type": "address"
        },
        {
          "internalType": "string",
          "name": "_communityName",
          "type": "string"
        },
        {
          "internalType": "address",
          "name": "givenBy",
          "type": "address"
        }
      ],
      "name": "hasMemberGivenCred",
      "outputs": [
        {
          "internalType": "bool",
          "name": "",
          "type": "bool"
        }
      ],
      "stateMutability": "view",
      "type": "function"
    },
    {
      "inputs": [
        {
          "internalType": "string",
          "name": "_communityName",
          "type": "string"
        },
        {
          "internalType": "address",
          "name": "_memberAddress",
          "type": "address"
        }
      ],
      "name": "inviteMember",
      "outputs": [
        {
          "internalType": "address",
          "name": "",
          "type": "address"
        }
      ],
      "stateMutability": "nonpayable",
      "type": "function"
    },
    {
      "inputs": [
        {
          "internalType": "string",
          "name": "",
          "type": "string"
        },
        {
          "internalType": "address",
          "name": "",
          "type": "address"
        }
      ],
      "name": "isInvited",
      "outputs": [
        {
          "internalType": "bool",
          "name": "",
          "type": "bool"
        }
      ],
      "stateMutability": "view",
      "type": "function"
    },
    {
      "inputs": [
        {
          "internalType": "string",
          "name": "_communityName",
          "type": "string"
        },
        {
          "internalType": "address",
          "name": "_member",
          "type": "address"
        }
      ],
      "name": "removeNegCredsFromMember",
      "outputs": [],
      "stateMutability": "nonpayable",
      "type": "function"
    },
    {
      "inputs": [
        {
          "internalType": "string",
          "name": "_communityName",
          "type": "string"
        },
        {
          "internalType": "address",
          "name": "_member",
          "type": "address"
        }
      ],
      "name": "removePosCredsFromMember",
      "outputs": [],
      "stateMutability": "nonpayable",
      "type": "function"
    },
    {
      "inputs": [
        {
          "internalType": "string",
          "name": "_communityName",
          "type": "string"
        }
      ],
      "name": "removeSelfAsMember",
      "outputs": [],
      "stateMutability": "nonpayable",
      "type": "function"
    },
    {
      "inputs": [
        {
          "internalType": "address",
          "name": "_contractAddress",
          "type": "address"
        }
      ],
      "name": "setlearntgetherCommunities",
      "outputs": [],
      "stateMutability": "nonpayable",
      "type": "function"
    },
    {
      "inputs": [
        {
          "internalType": "string",
          "name": "_communityName",
          "type": "string"
        },
        {
          "internalType": "address",
          "name": "_memberAddress",
          "type": "address"
        }
      ],
      "name": "uninviteMember",
      "outputs": [
        {
          "internalType": "address",
          "name": "",
          "type": "address"
        }
      ],
      "stateMutability": "nonpayable",
      "type": "function"
    }
  ],
  "bytecode": "0x6080806040523461002857600180546001600160a01b03191633179055612036908161002d8239f35b5f80fdfe60406080815260049081361015610014575f80fd5b5f91823560e01c806302b5df591461185b57806319f553e2146117d75780634f64aedd1461144d5780635450fdd5146111875780636b039bb414610ed95780638c5956c414610b1d5780638e63402914610af457806399d03bf2146109585780639c419dc9146108bc578063a48285781461088e578063b091c54614610851578063b66fdab41461063c578063c783acb4146105d2578063ca4f880b146104b0578063cdb43ea414610299578063e636f31414610243578063ef0ed3601461018c578063f3faf99a146101685763fbc3d96c146100ef575f80fd5b3461016457600361014760ff846101609661014d9561013a60016101123661194d565b9690828060a01b0316938486528560205261012f878720896119f1565b015416151514611eed565b81528060205220906119f1565b01611f4a565b9051918291602083526020830190611a17565b0390f35b8280fd5b503461016457600261014760ff846101609661014d9561013a60016101123661194d565b5091903461023f5761016090610217610211600361020a60ff6101d060016101b33661194d565b9390828060a01b03169b8c8c528b60205261012f8a8d20866119f1565b88885287602052856101e4818a20836119f1565b54988a81528060205260026101fb838320856119f1565b019a81528060205220906119f1565b0195611f4a565b94611f4a565b61023282519586958652606060208701526060860190611a17565b9184830390850152611a17565b5080fd5b50503461023f5760ff816020938461027261025d3661194d565b838694929451938285809451938492016119d0565b6003908201908152030190206001600160a01b039091168252855220549151911615158152f35b5091903461023f576102aa3661198f565b919060018060a01b03809316928385526020958587526102e0600160ff836102d4888b20886119f1565b01541615151415611a53565b8351918351928881818701956102f78183896119d0565b81016003815203019020868852885260ff858820541661047657806002541690855163b3f6702d60e01b81528984820152898180610338602482018a611acf565b0381865afa90811561046c578a949285949261035e928c9161043f575b50163314611af4565b8651938492631efb39a960e11b8452830152818061037f6024820189611acf565b03915afa90811561043557926103dd887fbee566e9904e3c5e202405f159f39bc31121d728f2772cabc7cf243bcf63a647946103cd60016103ff968b9a998d91610408575b50151514611b69565b86518093819286519283916119d0565b810160038152030190208588528852838720600160ff19825416179055611bc0565b91519480a38152f35b6104289150853d871161042e575b61042081836118c3565b810190611b51565b5f6103c4565b503d610416565b84513d88823e3d90fd5b61045f9150863d8811610465575b61045781836118c3565b810190611ab0565b5f610355565b503d61044d565b87513d8b823e3d90fd5b845162461bcd60e51b81528083018990526014602482015273155cd95c88105b1c9958591e48125b9d9a5d195960621b6044820152606490fd5b50903461016457602091826003193601126105ce5780356001600160401b0381116105ca576104e290369083016118f8565b6002548351637b7fcfed60e01b8152838101869052949193918691819087906001600160a01b03168180610519602482018b611acf565b03915afa9586156105c05761056994959661053b9184916105a3575b50611c60565b33825281815261055d60ff866105538686208a6119f1565b0154161515611ca7565b338252528420836119f1565b0160ff19815416905561057c3391611bc0565b7fdd403bcc860194e697bd48a94ad259a004827525ef954ad73b044e400f3adfe08380a380f35b6105ba9150833d851161042e5761042081836118c3565b5f610535565b83513d84823e3d90fd5b8480fd5b8380fd5b5034610164576060366003190112610164576105ec6118a9565b90602435906001600160401b0382116105ca5761060b913691016118f8565b604435939091906001600160a01b038516850361063957509261063091602094611f9f565b90519015158152f35b80fd5b50346101645761064b3661198f565b6002548451637b7fcfed60e01b81526020858201819052939593926001600160a01b03929091908490829085168180610687602482018d611acf565b03915afa90811561084757906106a39189916108305750611c60565b3387528683526106c8600160ff876106bd888c208b6119f1565b015416151514611ca7565b16928386528582526106ef600160ff836106e4878b208a6119f1565b015416151514611d03565b6106fb84331415611d66565b838652858252600161070f848820876119f1565b0133875282526107228387205415611db2565b838652858252610734838720866119f1565b61073e8154611e12565b9055838652858252610752838720866119f1565b5461075c86611bc0565b8451918252855f80516020611fe1833981519152854294a483865285825261079233600261078c868a20896119f1565b01611c3b565b83865285825260026107a6848820876119f1565b01545f1981019190821161081d5750907fd0f5d24e816c9fc4cba0f35b280898648e66604fc44212736e778bfefc338b0f9184875286825260016107ec858920886119f1565b0133885282528387205583865285815261081261080b848820876119f1565b5495611bc0565b92519485523394a480f35b634e487b7160e01b875260119052602486fd5b6105ba9150853d871161042e5761042081836118c3565b85513d8a823e3d90fd5b50346101645760ff906108826020948461086a3661194d565b6001600160a01b0390911683528288529120906119f1565b01541690519015158152f35b50503461023f5760ff81602093846102726108a83661198f565b9290818651938285809451938492016119d0565b5034610164576060366003190112610164576108d66118a9565b6024356001600160a01b038181169391849003610954576044356001600160401b0381116109505760209693869593610933600160ff819661091e61094197369087016118f8565b951693848a52898d5261012f8b8b20876119f1565b8552848852858520906119f1565b01908252845220549051908152f35b8680fd5b8580fd5b5034610164576109673661198f565b6002548451637b7fcfed60e01b81526020858201819052939593926001600160a01b039290919084908290851681806109a3602482018d611acf565b03915afa90811561084757906109bf9189916108305750611c60565b3387528683526109d9600160ff876106bd888c208b6119f1565b16928386528582526109f5600160ff836106e4878b208a6119f1565b610a0184331415611d66565b8386528582526001610a15848820876119f1565b013387528252610a288387205415611db2565b838652858252610a3a838720866119f1565b610a448154611e42565b9055838652858252610a58838720866119f1565b54610a6286611bc0565b8451918252855f80516020611fe1833981519152854294a4838652858252610a9233600361078c868a20896119f1565b8386528582526003610aa6848820876119f1565b01545f1981019190821161081d575090610ae07f8e3dd53aaad1909975de245668134b898a443d9d797f6a14e77b5cd0606ed54192611e53565b84875286825260016107ec858920886119f1565b50503461023f578160031936011261023f5760025490516001600160a01b039091168152602090f35b5091903461023f57610b2e3661198f565b909160018060a01b03916002838154169183518093637b7fcfed60e01b82526020948591828c8301528180610b66602482018d611acf565b03915afa9081156108475791610b85879287948b91610ec25750611c60565b338952888552610ba18960ff8c6106bd6001978894208d6119f1565b1694858852878452610bbc8260ff8b6106e4898d208c6119f1565b610bc886331415611d66565b85885287845281610bdb868a20896119f1565b01338952845287858120541315610e6057858852878452610bfe858920886119f1565b610c088154611e42565b9055858852878452610c1c858920886119f1565b54610c2688611bc0565b8651918252875f80516020611fe1833981519152874294a485885287845281610c51868a20896119f1565b0133895284528488205490868952888552610c7b8385610c73898d208c6119f1565b015411611e68565b86895288855283610c8e878b208a6119f1565b01545f1990818101908111610e4d578303610d18575b5050507f6c5cfc2553aaffd4cd0342765cdbca370cda07554f00e4e5112884eae468e2999291610d0391868952888452610ce0868a20896119f1565b0133895283528785812055858852878352610cfd858920886119f1565b01611ead565b83865285815261081261080b848820876119f1565b878a5289865284610d2b888c208b6119f1565b01888b528a875285610d3f898d208c6119f1565b0154918201918211610e4d578a9b5091610dfb8487610db18d9e9d8c8e9f7f6c5cfc2553aaffd4cd0342765cdbca370cda07554f00e4e5112884eae468e2999e9f988e610ddc610d039f9e9d9c8493610d9791611be0565b90548d85528484528c610db78c8c610db18b8a208d6119f1565b01611be0565b92909360031b1c169082549060031b9160018060a01b03809116831b921b1916179055565b8a82528181528c610def858420876119f1565b019a82525220906119f1565b90549060031b1c168b52855280878b205587610e168a611bc0565b88519283527fd6fa86004958e4fadc7035e661e86172c72f1ea51e79e8bf8bd3f4103663e8e3873394a4909188979695945f610ca4565b634e487b7160e01b8b5260118c5260248bfd5b845162461bcd60e51b8152808a01859052603660248201527f596f752068617665206e6f7420676976656e206120706f73697469766520637260448201527532b2103a37903a3434b99036b2b6b132b9103cb2ba1760511b6064820152608490fd5b6105ba9150873d891161042e5761042081836118c3565b5082903461023f57610eea3661198f565b939060018060a01b0380951692838552602095858752610f14600160ff846102d4888b20886119f1565b806002541690845163b3f6702d60e01b81528884820152888180610f3b6024820189611acf565b0381865afa90811561117d5790610f5c929189916111605750163314611af4565b8684518092631efb39a960e11b825282858301528180610f7f6024820189611acf565b03915afa90811561043557610fa09160019188916111435750151514611b69565b8251825190878181860193610fb68183876119d0565b81016003815203019020858752875260ff84872054161561110b578433146110c85786610fed9185518093819287519283916119d0565b8101600381520301902084865286528285209060ff19918281541690558351635848e2a360e11b815285828201528460248201528781806110316044820188611acf565b0381305afa9081156110be57926103ff926001889796937fe19753ef16cb08d80c81e7c26df1578544dc02c0a7538cf0d3fc2355dc180bca968b916110a1575b50151514611081575b5050611bc0565b868952888a52611093868a20846119f1565b01908154169055888061107a565b6110b891508c8d3d1061042e5761042081836118c3565b8c611071565b85513d89823e3d90fd5b835162461bcd60e51b8152808301889052601d60248201527f596f752063616e6e6f7420756e696e7669746520796f757273656c662e0000006044820152606490fd5b835162461bcd60e51b8152808301889052601260248201527113595b58995c88139bdd08125b9d9a5d195960721b6044820152606490fd5b61115a9150893d8b1161042e5761042081836118c3565b896103c4565b61117791508a3d8c116104655761045781836118c3565b8a610355565b86513d8a823e3d90fd5b509034610164576020806003193601126105ce5782356001600160401b0381116105ca576111b890369085016118f8565b9260018060a01b03600254168351637b7fcfed60e01b815283838201528381806111e5602482018a611acf565b0381855afa9081156110be578791611430575b50156113f357338652858352600160ff83611215878a20896119f1565b01541615151461139d57908291869385518092631efb39a960e11b825282858301528180611246602482018c611acf565b03915afa90811561139357906001918591611376575b501515146112e9575b926003926112a6926112b895338352828252611283848420896119f1565b01600160ff198254161790553382528181526112ac60026112a68585208a6119f1565b01611c09565b338252528520846119f1565b6112c23391611bc0565b7ff038f0d708fc70f18d5815d07a62a3b40d2035dc6af7429865f612242ff870588380a380f35b9091508251828186516112ff8183858b016119d0565b810160038152030190203386528252600160ff848720541615150361132657908491611265565b915162461bcd60e51b815291820152602660248201527f596f7520617265206e6f7420696e766974656420746f207468697320636f6d6d6044820152653ab734ba3c9760d11b6064820152608490fd5b61138d9150843d861161042e5761042081836118c3565b5f61125c565b85513d86823e3d90fd5b50915162461bcd60e51b815291820152602b60248201527f596f752061726520616c72656164792061206d656d626572206f66207468697360448201526a1031b7b6b6bab734ba3c9760a91b6064820152608490fd5b50915162461bcd60e51b815291820152601860248201527710dbdb5b5d5b9a5d1e48111bd95cc81b9bdd08115e1a5cdd60421b6044820152606490fd5b6114479150843d861161042e5761042081836118c3565b5f6111f8565b50346101645761145c3661198f565b60018060a09593951b039283600254169183518093637b7fcfed60e01b8252602094859182868301528180611494602482018d611acf565b03915afa90811561084757916114b487928795948b91610ec25750611c60565b3389528885526114d08960ff856106bd6001988994208d6119f1565b16948588528784526114eb8360ff846106e4898d208c6119f1565b6114f786331415611d66565b8588528784528261150a868a20896119f1565b013389528452878581205412156117755790849291868952888552611531848a20896119f1565b61153b8154611e12565b905586895288855261154f848a20896119f1565b5461155989611bc0565b8551918252885f80516020611fe1833981519152884294a486895288855282611584858b208a6119f1565b01338a528552611596848a2054611e53565b91878a528986526115b1848b610c736003988992208d6119f1565b878a52898652846115c4888c208b6119f1565b01545f1991908281019081116117625790888b8b8e94880361161c575b84927fd6d87a1ec8d7320486a7705035a72a09149f3c5e25dcccb14a1c99eebc86d6c08c610d038d8d868952888452610ce0868a20896119f1565b918961163561164493878e8497825252838820906119f1565b01948d8152808c52208d6119f1565b015492830192831161174f5750928489846116f9848f9a8f610db1908f7fd6d87a1ec8d7320486a7705035a72a09149f3c5e25dcccb14a1c99eebc86d6c09f9e8f610d039f9d90869f839261170d9f6116a0906116dd93611be0565b9054908a1b1c168c84528383526116be8a8a610db18988208b6119f1565b90919082549060031b9160018060a01b03809116831b921b1916179055565b6116e688611e53565b9b8b8352828252610def858420876119f1565b905490881b1c168d528752888c2055611e53565b876117178a611bc0565b88519283527fd6fa86004958e4fadc7035e661e86172c72f1ea51e79e8bf8bd3f4103663e8e3873394a491819394895f888b8b6115e1565b634e487b7160e01b8c526011905260248bfd5b634e487b7160e01b8c526011825260248cfd5b845162461bcd60e51b8152808301859052603660248201527f596f752068617665206e6f7420676976656e2061206e6567617469766520637260448201527532b2103a37903a3434b99036b2b6b132b9103cb2ba1760511b6064820152608490fd5b5034610164576020366003190112610164576117f16118a9565b6001546001600160a01b0393919291908416330361181f5750501660018060a01b0319600254161760025580f35b906020606492519162461bcd60e51b835282015260166024820152752737ba103a34329031b7b73a3930b1ba1037bbb732b960511b6044820152fd5b50346101645760ff826020946118a19361189560016118793661194d565b9690828060a01b031693848652858b5261012f878720896119f1565b815280865220906119f1565b549051908152f35b600435906001600160a01b03821682036118bf57565b5f80fd5b90601f801991011681019081106001600160401b038211176118e457604052565b634e487b7160e01b5f52604160045260245ffd5b81601f820112156118bf578035906001600160401b0382116118e4576040519261192c601f8401601f1916602001856118c3565b828452602083830101116118bf57815f926020809301838601378301015290565b9060406003198301126118bf576004356001600160a01b03811681036118bf5791602435906001600160401b0382116118bf5761198c916004016118f8565b90565b60406003198201126118bf57600435906001600160401b0382116118bf576119b9916004016118f8565b906024356001600160a01b03811681036118bf5790565b5f5b8381106119e15750505f910152565b81810151838201526020016119d2565b602090611a0b9282604051948386809551938492016119d0565b82019081520301902090565b9081518082526020808093019301915f5b828110611a36575050505090565b83516001600160a01b031685529381019392810192600101611a28565b15611a5a57565b60405162461bcd60e51b815260206004820152602860248201527f4d656d62657220616c726561647920657869737473206f66207468697320636f60448201526736b6bab734ba3c9760c11b6064820152608490fd5b908160209103126118bf57516001600160a01b03811681036118bf5790565b90602091611ae8815180928185528580860191016119d0565b601f01601f1916010190565b15611afb57565b60405162461bcd60e51b815260206004820152602860248201527f596f7520617265206e6f7420746865206f776e6572206f66207468697320636f60448201526736b6bab734ba3c9760c11b6064820152608490fd5b908160209103126118bf575180151581036118bf5790565b15611b7057565b60405162461bcd60e51b815260206004820152602260248201527f5468697320636f6d6d756e697479206973206e6f7420696e76697465206f6e6c6044820152613c9760f11b6064820152608490fd5b611bd8906020604051928284809451938492016119d0565b810103902090565b8054821015611bf5575f5260205f2001905f90565b634e487b7160e01b5f52603260045260245ffd5b8054600160401b8110156118e457611c2691600182018155611be0565b81549060018060a01b039060031b1b19169055565b80549190600160401b8310156118e457826116be916001611c5e95018155611be0565b565b15611c6757565b60405162461bcd60e51b815260206004820152601860248201527710dbdb5b5d5b9a5d1e48111bd95cc8139bdd08115e1a5cdd60421b6044820152606490fd5b15611cae57565b60405162461bcd60e51b815260206004820152602760248201527f596f7520617265206e6f742061206d656d626572206f66207468697320636f6d60448201526636bab734ba3c9760c91b6064820152608490fd5b15611d0a57565b60405162461bcd60e51b815260206004820152602e60248201527f546172676574206d656d62657220646f65736e2774206578697374206f66207460448201526d3434b99031b7b6b6bab734ba3c9760911b6064820152608490fd5b15611d6d57565b60405162461bcd60e51b815260206004820152601f60248201527f596f752063616e6e6f74206564697420796f7572206f776e2063726564732e006044820152606490fd5b15611db957565b60405162461bcd60e51b815260206004820152602b60248201527f596f7527766520616c726561647920676976656e2061206372656420746f207460448201526a3434b99036b2b6b132b91760a91b6064820152608490fd5b9060018201915f600184129112908015821691151617611e2e57565b634e487b7160e01b5f52601160045260245ffd5b905f198201918213600116611e2e57565b90815f03918083055f191490151715611e2e57565b15611e6f57565b60405162461bcd60e51b815260206004820152601660248201527554686973207573657220686173206e6f20437265647360501b6044820152606490fd5b80548015611ed9575f190190611ec38282611be0565b81549060018060a01b039060031b1b1916905555565b634e487b7160e01b5f52603160045260245ffd5b15611ef457565b60405162461bcd60e51b815260206004820152602860248201527f4d656d62657220446f6573204e6f7420457869737420466f72207468697320636044820152676f6d6d756e69747960c01b6064820152608490fd5b906040519182815491828252602092838301915f52835f20935f905b828210611f7c57505050611c5e925003836118c3565b85546001600160a01b031684526001958601958895509381019390910190611f66565b6001600160a01b039081165f908152602081905260408120909392600191611fc6916119f1565b01911682526020526040812054155f1461198c575060019056fe1956a939e1963127a6802bc7dff8c43f9bc551a0bf97efc611706570e4108402a2646970667358221220d2029f643098ddad62c0617ee52993aae25e8096174dcb6c0c2a65fb177081fd64736f6c63430008140033",
  "linkReferences": {},
  "deployedLinkReferences": {}
}