{
  "_format": "hh-sol-artifact-1",
  "contractName": "learntgetherMembers",
  "sourceName": "contracts/learntgetherMembers.sol",
  "abi": [
    {
      "inputs": [],
      "stateMutability": "nonpayable",
      "type": "constructor"
    },
    {
      "anonymous": false,
      "inputs": [
        {
          "indexed": true,
          "internalType": "string",
          "name": "communityName",
          "type": "string"
        },
        {
          "indexed": true,
          "internalType": "address",
          "name": "memberAddress",
          "type": "address"
        },
        {
          "indexed": true,
          "internalType": "address",
          "name": "actor",
          "type": "address"
        },
        {
          "indexed": false,
          "internalType": "int256",
          "name": "creds",
          "type": "int256"
        }
      ],
      "name": "AddedNegCred",
      "type": "event"
    },
    {
      "anonymous": false,
      "inputs": [
        {
          "indexed": true,
          "internalType": "string",
          "name": "communityName",
          "type": "string"
        },
        {
          "indexed": true,
          "internalType": "address",
          "name": "memberAddress",
          "type": "address"
        },
        {
          "indexed": true,
          "internalType": "address",
          "name": "actor",
          "type": "address"
        },
        {
          "indexed": false,
          "internalType": "int256",
          "name": "creds",
          "type": "int256"
        }
      ],
      "name": "AddedPosCred",
      "type": "event"
    },
    {
      "anonymous": false,
      "inputs": [
        {
          "indexed": true,
          "internalType": "address",
          "name": "memberAddress",
          "type": "address"
        },
        {
          "indexed": true,
          "internalType": "string",
          "name": "communityName",
          "type": "string"
        },
        {
          "indexed": false,
          "internalType": "int256",
          "name": "creds",
          "type": "int256"
        },
        {
          "indexed": true,
          "internalType": "uint256",
          "name": "timestamp",
          "type": "uint256"
        }
      ],
      "name": "Creds",
      "type": "event"
    },
    {
      "anonymous": false,
      "inputs": [
        {
          "indexed": true,
          "internalType": "string",
          "name": "communityName",
          "type": "string"
        },
        {
          "indexed": true,
          "internalType": "address",
          "name": "memberAddress",
          "type": "address"
        },
        {
          "indexed": true,
          "internalType": "address",
          "name": "actor",
          "type": "address"
        },
        {
          "indexed": false,
          "internalType": "int256",
          "name": "index",
          "type": "int256"
        }
      ],
      "name": "IndexUpdated",
      "type": "event"
    },
    {
      "anonymous": false,
      "inputs": [
        {
          "indexed": true,
          "internalType": "string",
          "name": "communityName",
          "type": "string"
        },
        {
          "indexed": true,
          "internalType": "address",
          "name": "memberAddress",
          "type": "address"
        }
      ],
      "name": "MemberAdded",
      "type": "event"
    },
    {
      "anonymous": false,
      "inputs": [
        {
          "indexed": true,
          "internalType": "address",
          "name": "memberAddress",
          "type": "address"
        },
        {
          "indexed": true,
          "internalType": "string",
          "name": "name",
          "type": "string"
        },
        {
          "indexed": false,
          "internalType": "string",
          "name": "description",
          "type": "string"
        },
        {
          "indexed": false,
          "internalType": "string[]",
          "name": "degrees",
          "type": "string[]"
        },
        {
          "indexed": false,
          "internalType": "string[]",
          "name": "awards",
          "type": "string[]"
        }
      ],
      "name": "MemberInfo",
      "type": "event"
    },
    {
      "anonymous": false,
      "inputs": [
        {
          "indexed": true,
          "internalType": "string",
          "name": "communityName",
          "type": "string"
        },
        {
          "indexed": true,
          "internalType": "address",
          "name": "memberAddress",
          "type": "address"
        }
      ],
      "name": "MemberInvited",
      "type": "event"
    },
    {
      "anonymous": false,
      "inputs": [
        {
          "indexed": true,
          "internalType": "string",
          "name": "communityName",
          "type": "string"
        },
        {
          "indexed": true,
          "internalType": "address",
          "name": "memberAddress",
          "type": "address"
        }
      ],
      "name": "MemberRemoved",
      "type": "event"
    },
    {
      "anonymous": false,
      "inputs": [
        {
          "indexed": true,
          "internalType": "string",
          "name": "communityName",
          "type": "string"
        },
        {
          "indexed": true,
          "internalType": "address",
          "name": "memberAddress",
          "type": "address"
        }
      ],
      "name": "MemberUninvited",
      "type": "event"
    },
    {
      "anonymous": false,
      "inputs": [
        {
          "indexed": true,
          "internalType": "string",
          "name": "communityName",
          "type": "string"
        },
        {
          "indexed": true,
          "internalType": "address",
          "name": "memberAddress",
          "type": "address"
        },
        {
          "indexed": true,
          "internalType": "address",
          "name": "actor",
          "type": "address"
        },
        {
          "indexed": false,
          "internalType": "int256",
          "name": "creds",
          "type": "int256"
        }
      ],
      "name": "RemovedNegCred",
      "type": "event"
    },
    {
      "anonymous": false,
      "inputs": [
        {
          "indexed": true,
          "internalType": "string",
          "name": "communityName",
          "type": "string"
        },
        {
          "indexed": true,
          "internalType": "address",
          "name": "memberAddress",
          "type": "address"
        },
        {
          "indexed": true,
          "internalType": "address",
          "name": "actor",
          "type": "address"
        },
        {
          "indexed": false,
          "internalType": "int256",
          "name": "creds",
          "type": "int256"
        }
      ],
      "name": "RemovedPosCred",
      "type": "event"
    },
    {
      "inputs": [
        {
          "internalType": "string",
          "name": "_communityName",
          "type": "string"
        },
        {
          "internalType": "address",
          "name": "_member",
          "type": "address"
        }
      ],
      "name": "addNegCredsToMember",
      "outputs": [],
      "stateMutability": "nonpayable",
      "type": "function"
    },
    {
      "inputs": [
        {
          "internalType": "string",
          "name": "_communityName",
          "type": "string"
        },
        {
          "internalType": "address",
          "name": "_member",
          "type": "address"
        }
      ],
      "name": "addPosCredsToMember",
      "outputs": [],
      "stateMutability": "nonpayable",
      "type": "function"
    },
    {
      "inputs": [
        {
          "internalType": "string",
          "name": "_communityName",
          "type": "string"
        }
      ],
      "name": "addSelfAsMember",
      "outputs": [],
      "stateMutability": "nonpayable",
      "type": "function"
    },
    {
      "inputs": [],
      "name": "communityContract",
      "outputs": [
        {
          "internalType": "contract learntgetherCommuityInterface",
          "name": "",
          "type": "address"
        }
      ],
      "stateMutability": "view",
      "type": "function"
    },
    {
      "inputs": [
        {
          "internalType": "address",
          "name": "_memberAddress",
          "type": "address"
        },
        {
          "internalType": "string",
          "name": "_communityName",
          "type": "string"
        }
      ],
      "name": "getIsInvited",
      "outputs": [
        {
          "internalType": "bool",
          "name": "",
          "type": "bool"
        }
      ],
      "stateMutability": "view",
      "type": "function"
    },
    {
      "inputs": [
        {
          "internalType": "address",
          "name": "_memberAddress",
          "type": "address"
        },
        {
          "internalType": "string",
          "name": "_communityName",
          "type": "string"
        }
      ],
      "name": "getIsMember",
      "outputs": [
        {
          "internalType": "bool",
          "name": "",
          "type": "bool"
        }
      ],
      "stateMutability": "view",
      "type": "function"
    },
    {
      "inputs": [
        {
          "internalType": "address",
          "name": "_memberAddress",
          "type": "address"
        },
        {
          "internalType": "address",
          "name": "_credGiverAddress",
          "type": "address"
        },
        {
          "internalType": "string",
          "name": "_communityName",
          "type": "string"
        }
      ],
      "name": "getMemberCredIndex",
      "outputs": [
        {
          "internalType": "int256",
          "name": "index",
          "type": "int256"
        }
      ],
      "stateMutability": "view",
      "type": "function"
    },
    {
      "inputs": [
        {
          "internalType": "address",
          "name": "_memberAddress",
          "type": "address"
        },
        {
          "internalType": "string",
          "name": "_communityName",
          "type": "string"
        }
      ],
      "name": "getMemberCreds",
      "outputs": [
        {
          "internalType": "int256",
          "name": "creds",
          "type": "int256"
        }
      ],
      "stateMutability": "view",
      "type": "function"
    },
    {
      "inputs": [
        {
          "internalType": "address",
          "name": "_memberAddress",
          "type": "address"
        }
      ],
      "name": "getMemberInfo",
      "outputs": [
        {
          "internalType": "string",
          "name": "name",
          "type": "string"
        },
        {
          "internalType": "string",
          "name": "descripion",
          "type": "string"
        },
        {
          "internalType": "string[]",
          "name": "degrees",
          "type": "string[]"
        },
        {
          "internalType": "string[]",
          "name": "awards",
          "type": "string[]"
        }
      ],
      "stateMutability": "view",
      "type": "function"
    },
    {
      "inputs": [
        {
          "internalType": "address",
          "name": "_memberAddress",
          "type": "address"
        },
        {
          "internalType": "string",
          "name": "_communityName",
          "type": "string"
        }
      ],
      "name": "getMemberNegCredsList",
      "outputs": [
        {
          "internalType": "address[]",
          "name": "addressList",
          "type": "address[]"
        }
      ],
      "stateMutability": "view",
      "type": "function"
    },
    {
      "inputs": [
        {
          "internalType": "address",
          "name": "_memberAddress",
          "type": "address"
        },
        {
          "internalType": "string",
          "name": "_communityName",
          "type": "string"
        }
      ],
      "name": "getMemberPosCredsList",
      "outputs": [
        {
          "internalType": "address[]",
          "name": "addressList",
          "type": "address[]"
        }
      ],
      "stateMutability": "view",
      "type": "function"
    },
    {
      "inputs": [
        {
          "internalType": "address",
          "name": "_memberAddress",
          "type": "address"
        },
        {
          "internalType": "string",
          "name": "_communityName",
          "type": "string"
        }
      ],
      "name": "getReiewerCommunityInfo",
      "outputs": [
        {
          "internalType": "int256",
          "name": "_creds",
          "type": "int256"
        },
        {
          "internalType": "address[]",
          "name": "_posCreds",
          "type": "address[]"
        },
        {
          "internalType": "address[]",
          "name": "_negCreds",
          "type": "address[]"
        }
      ],
      "stateMutability": "view",
      "type": "function"
    },
    {
      "inputs": [
        {
          "internalType": "address",
          "name": "_memberAddress",
          "type": "address"
        },
        {
          "internalType": "string",
          "name": "_communityName",
          "type": "string"
        },
        {
          "internalType": "address",
          "name": "givenBy",
          "type": "address"
        }
      ],
      "name": "hasMemberGivenCred",
      "outputs": [
        {
          "internalType": "bool",
          "name": "",
          "type": "bool"
        }
      ],
      "stateMutability": "view",
      "type": "function"
    },
    {
      "inputs": [
        {
          "internalType": "string",
          "name": "_communityName",
          "type": "string"
        },
        {
          "internalType": "address",
          "name": "_memberAddress",
          "type": "address"
        }
      ],
      "name": "inviteMember",
      "outputs": [
        {
          "internalType": "address",
          "name": "",
          "type": "address"
        }
      ],
      "stateMutability": "nonpayable",
      "type": "function"
    },
    {
      "inputs": [
        {
          "internalType": "string",
          "name": "",
          "type": "string"
        },
        {
          "internalType": "address",
          "name": "",
          "type": "address"
        }
      ],
      "name": "isInvited",
      "outputs": [
        {
          "internalType": "bool",
          "name": "",
          "type": "bool"
        }
      ],
      "stateMutability": "view",
      "type": "function"
    },
    {
      "inputs": [
        {
          "internalType": "string",
          "name": "_communityName",
          "type": "string"
        },
        {
          "internalType": "address",
          "name": "_member",
          "type": "address"
        }
      ],
      "name": "removeNegCredsFromMember",
      "outputs": [],
      "stateMutability": "nonpayable",
      "type": "function"
    },
    {
      "inputs": [
        {
          "internalType": "string",
          "name": "_communityName",
          "type": "string"
        },
        {
          "internalType": "address",
          "name": "_member",
          "type": "address"
        }
      ],
      "name": "removePosCredsFromMember",
      "outputs": [],
      "stateMutability": "nonpayable",
      "type": "function"
    },
    {
      "inputs": [
        {
          "internalType": "string",
          "name": "_communityName",
          "type": "string"
        }
      ],
      "name": "removeSelfAsMember",
      "outputs": [],
      "stateMutability": "nonpayable",
      "type": "function"
    },
    {
      "inputs": [
        {
          "internalType": "address",
          "name": "_contractAddress",
          "type": "address"
        }
      ],
      "name": "setlearntgetherCommunities",
      "outputs": [],
      "stateMutability": "nonpayable",
      "type": "function"
    },
    {
      "inputs": [
        {
          "internalType": "string",
          "name": "_communityName",
          "type": "string"
        },
        {
          "internalType": "address",
          "name": "_memberAddress",
          "type": "address"
        }
      ],
      "name": "uninviteMember",
      "outputs": [
        {
          "internalType": "address",
          "name": "",
          "type": "address"
        }
      ],
      "stateMutability": "nonpayable",
      "type": "function"
    },
    {
      "inputs": [
        {
          "internalType": "string",
          "name": "_name",
          "type": "string"
        },
        {
          "internalType": "string",
          "name": "_description",
          "type": "string"
        },
        {
          "internalType": "string[]",
          "name": "_degrees",
          "type": "string[]"
        },
        {
          "internalType": "string[]",
          "name": "_awards",
          "type": "string[]"
        }
      ],
      "name": "updateMemberInfo",
      "outputs": [],
      "stateMutability": "nonpayable",
      "type": "function"
    }
  ],
  "bytecode": "0x6080806040523461002857600180546001600160a01b031916331790556129e9908161002d8239f35b5f80fdfe60806040526004361015610011575f80fd5b5f3560e01c806302b5df591461200257806319f553e214611f815780634f64aedd14611be05780635450fdd5146119165780635f1231ea146118705780636b039bb4146115bc5780638c5956c4146111fa5780638e634029146111d257806399d03bf214610ff75780639c419dc914610f6b578063a482857814610f43578063b091c54614610f01578063b66fdab414610ccf578063be42d3af1461063f578063c783acb4146105dd578063ca4f880b146104c7578063cdb43ea4146102b2578063e636f3141461025d578063ef0ed3601461019a578063f3faf99a146101815763fbc3d96c14610100575f80fd5b3461017d57610179610165600361015f610119366120e3565b9060018060a01b0316805f525f60205261014c600160ff60046101418160405f200187612207565b0154161515146127af565b5f525f602052600460405f200190612207565b0161280c565b6040519182916020835260208301906122c4565b0390f35b5f80fd5b3461017d57610179610165600261015f610119366120e3565b3461017d576101a8366120e3565b9060018060a01b031690815f525f6020526101d1600160ff60046101418160405f200186612207565b815f525f60205261017961023361022d60036102266101f6600460405f200187612207565b5495875f525f6020526002610211600460405f200183612207565b01975f525f602052600460405f200190612207565b019461280c565b9361280c565b61024f60405194859485526060602086015260608501906122c4565b9083820360408501526122c4565b3461017d576020610286610270366120e3565b8360409492945193828580945193849201612166565b810160038152030190209060018060a01b03165f52602052602060ff60405f2054166040519015158152f35b3461017d576102c036612125565b60018060a01b0380911690815f526020925f84526102f8600160ff60046102ec8160405f200186612207565b01541615151415612300565b60405191815192858181850195610310818389612166565b81016003815203019020845f52855260ff60405f20541661048b5760025460405163b3f6702d60e01b815260048101879052908216918682806103566024820188612187565b0381865afa801561045357610375925f9161045e575b5016331461237c565b846040518092631efb39a960e11b8252826004830152818061039a6024820188612187565b03915afa908115610453576103f8936103c460016103d59489945f91610426575b501515146123f1565b604051809381928651928391612166565b81016003815203019020835f52845260405f20600160ff19825416179055612448565b9080604051927fbee566e9904e3c5e202405f159f39bc31121d728f2772cabc7cf243bcf63a6475f80a38152f35b6104469150853d871161044c575b61043e818361206d565b8101906123d9565b8a6103bb565b503d610434565b6040513d5f823e3d90fd5b61047e9150883d8a11610484575b610476818361206d565b81019061235d565b8861036c565b503d61046c565b60405162461bcd60e51b8152600481018690526014602482015273155cd95c88105b1c9958591e48125b9d9a5d195960621b6044820152606490fd5b3461017d5760208060031936011261017d576004356001600160401b03811161017d576104f890369060040161208e565b600254604051637b7fcfed60e01b815260048101849052919290819083906001600160a01b0316818061052e6024820189612187565b03915afa918215610453575f9261054c9184916105c0575b506124e8565b33825281815261057260ff600461056881604087200187612207565b015416151561252f565b3382525260046105878160405f200183612207565b0160ff19815416905561059a3391612448565b7fdd403bcc860194e697bd48a94ad259a004827525ef954ad73b044e400f3adfe05f80a3005b6105d79150833d851161044c5761043e818361206d565b85610546565b3461017d57606036600319011261017d576105f6612057565b6024356001600160401b03811161017d5761061590369060040161208e565b906044356001600160a01b038116810361017d5760209261063592612861565b6040519015158152f35b3461017d57608036600319011261017d576004356001600160401b03811161017d5761066f90369060040161208e565b6024356001600160401b03811161017d5761068e90369060040161208e565b906044356001600160401b03811161017d576106ae903690600401612244565b916064356001600160401b03811161017d576106ce903690600401612244565b91335f525f60205260405f2081516001600160401b038111610987576106f4825461258b565b601f8111610c9f575b50806020601f8211600114610c3d575f91610c32575b508160011b915f199060031b1c19161790555b335f525f602052600160405f200182516001600160401b0381116109875761074e825461258b565b601f8111610bf7575b50806020601f8211600114610b95575f91610b8a575b508160011b915f199060031b1c19161790555b335f525f602052600260405f20018451600160401b8111610987578154818355808210610b19575b5060208601915f5260205f20915f905b828210610a0c5750505050335f525f602052600360405f20018351600160401b811161098757815481835580821061099b575b5060208501915f5260205f20915f905b82821061086f5787877f0c666a7d9a69cae45d6fc4d1d8575c0c8312edcccc1c3fb9a49704fb9e9b10cb61084d8961086a61085b6108388c612448565b96604051948594606086526060860190612187565b9084820360208601526121ac565b828103604084015233956121ac565b0390a3005b80518051906001600160401b0382116109875761088c865461258b565b601f811161094c575b50602090601f83116001146108e05792826001949360209386955f926108d5575b50505f19600383901b1c191690841b1787555b019401910190926107fb565b015190508d806108b6565b90865f5260205f20915f5b601f1985168110610934575083602093600196938796938794601f1981161061091c575b505050811b0187556108c9565b01515f1960f88460031b161c191690558d808061090f565b919260206001819286850151815501940192016108eb565b61097790875f5260205f206005601f8601811c8201926020871061097d575b601f01901c01906125c3565b8a610895565b919250829161096b565b634e487b7160e01b5f52604160045260245ffd5b825f5260205f20908282015b81830181106109b75750506107eb565b806109c46001925461258b565b806109d1575b50016109a7565b601f811183146109e657505f81555b8a6109ca565b5f90828252610a03601f60208420920160051c82018583016125c3565b818355556109e0565b80518051906001600160401b03821161098757610a29865461258b565b601f8111610ae9575b50602090601f8311600114610a7d5792826001949360209386955f92610a72575b50505f19600383901b1c191690841b1787555b019401910190926107b8565b015190508d80610a53565b90865f5260205f20915f5b601f1985168110610ad1575083602093600196938796938794601f19811610610ab9575b505050811b018755610a66565b01515f1960f88460031b161c191690558d8080610aac565b91926020600181928685015181550194019201610a88565b610b1390875f5260205f206005601f8601811c8201926020871061097d57601f01901c01906125c3565b8a610a32565b825f5260205f20908282015b8183018110610b355750506107a8565b80610b426001925461258b565b80610b4f575b5001610b25565b601f81118314610b6457505f81555b8a610b48565b5f90828252610b81601f60208420920160051c82018583016125c3565b81835555610b5e565b90508401518761076d565b5f848152602081209250601f198416905b818110610bdf57509083600194939210610bc7575b5050811b019055610780565b8601515f1960f88460031b161c191690558780610bbb565b9192602060018192868b015181550194019201610ba6565b610c2290835f5260205f20601f840160051c81019160208510610c28575b601f0160051c01906125c3565b86610757565b9091508190610c15565b905083015187610713565b5f848152602081209250601f198416905b818110610c8757509083600194939210610c6f575b5050811b019055610726565b8501515f1960f88460031b161c191690558780610c63565b9192602060018192868a015181550194019201610c4e565b610cc990835f5260205f20601f840160051c81019160208510610c2857601f0160051c01906125c3565b866106fd565b3461017d57610cdd36612125565b600254604051637b7fcfed60e01b8152602060048201819052926001600160a01b03929091908490829085168180610d18602482018b612187565b03915afa801561045357610d32915f91610ee457506124e8565b335f525f8352610d5b600160ff6004610d508160405f200189612207565b01541615151461252f565b1690815f525f8152610d86600160ff6004610d7b8160405f200188612207565b0154161515146125d9565b610d928233141561263c565b815f525f81526001610daa600460405f200185612207565b01335f528152610dbe60405f205415612688565b815f525f8152610dd4600460405f200184612207565b610dde81546126e8565b9055815f525f8152610df6600460405f200184612207565b54610e0084612448565b604051918252835f80516020612994833981519152844294a4815f525f8152610e3b336002610e35600460405f200187612207565b016124c3565b815f525f81526002610e53600460405f200185612207565b01545f198101908111610ed057825f525f82526001610e78600460405f200186612207565b01335f52825260405f2055815f525f81527fd0f5d24e816c9fc4cba0f35b280898648e66604fc44212736e778bfefc338b0f610ec4610ebd600460405f200186612207565b5494612448565b916040519485523394a4005b634e487b7160e01b5f52601160045260245ffd5b610efb9150853d871161044c5761043e818361206d565b86610546565b3461017d57602060ff6004610f36610f18366120e3565b6001600160a01b039091165f90815280865260409020830190612207565b0154166040519015158152f35b3461017d576020610286610f5636612125565b92908160405193828580945193849201612166565b3461017d57606036600319011261017d57610f84612057565b6001600160a01b03602435818116929083900361017d57604435906001600160401b03821161017d57600192610fc1610fe193369060040161208e565b9116805f525f60205261014c8460ff60046101418160405f200187612207565b01905f52602052602060405f2054604051908152f35b3461017d5761100536612125565b600254604051637b7fcfed60e01b8152602060048201819052926001600160a01b03929091908490829085168180611040602482018b612187565b03915afa80156104535761105a915f91610ee457506124e8565b335f525f8352611078600160ff6004610d508160405f200189612207565b1690815f525f8152611098600160ff6004610d7b8160405f200188612207565b6110a48233141561263c565b815f525f815260016110bc600460405f200185612207565b01335f5281526110d060405f205415612688565b815f525f81526110e6600460405f200184612207565b6110f08154612704565b9055815f525f8152611108600460405f200184612207565b5461111284612448565b604051918252835f80516020612994833981519152844294a4815f525f8152611147336003610e35600460405f200187612207565b815f525f8152600361115f600460405f200185612207565b01545f198101908111610ed05761117590612715565b825f525f8252600161118d600460405f200186612207565b01335f52825260405f2055815f525f81527f8e3dd53aaad1909975de245668134b898a443d9d797f6a14e77b5cd0606ed541610ec4610ebd600460405f200186612207565b3461017d575f36600319011261017d576002546040516001600160a01b039091168152602090f35b3461017d5761120836612125565b60028054604051637b7fcfed60e01b8152602060048201819052926001600160a01b03929091908490829085168180611244602482018c612187565b03915afa80156104535761125e915f9161159f57506124e8565b335f525f83528160019461127f8660ff6004610d508160405f20018c612207565b1693845f525f845261129e8160ff6004610d7b8160405f20018b612207565b6112aa8533141561263c565b845f525f8452806112c1600460405f200188612207565b01335f5284525f6040812054131561153b57845f525f84526112e9600460405f200187612207565b6112f38154612704565b9055845f525f845261130b600460405f200187612207565b5461131587612448565b604051918252865f80516020612994833981519152874294a4845f525f845280611345600460405f200188612207565b01335f52845260405f2054855f525f8552611373828461136b600460405f20018b612207565b01541161272a565b855f525f85528261138a600460405f200189612207565b01545f199490858101908111610ed0578203611420575b50506113e69250845f525f84526113be600460405f200187612207565b01335f5283525f6040812055835f525f83526113e0600460405f200186612207565b0161276f565b815f525f81527f6c5cfc2553aaffd4cd0342765cdbca370cda07554f00e4e5112884eae468e299610ec4610ebd600460405f200186612207565b865f525f865283611437600460405f20018a612207565b0194875f525f875284611450600460405f20018b612207565b0154908101908111610ed057868883611494868961148e8f5f61147a6113e69f9a6114b99b612468565b99905498825252600460405f200190612207565b01612468565b92909360031b1c169082549060031b9160018060a01b03809116831b921b1916179055565b865f525f8652826114d0600460405f20018a612207565b0190875f525f87526114ed838661148e600460405f20018d612207565b90549060031b1c165f5285528060405f20558561150988612448565b6040519283527fd6fa86004958e4fadc7035e661e86172c72f1ea51e79e8bf8bd3f4103663e8e3873394a486806113a1565b60405162461bcd60e51b815260048101859052603660248201527f596f752068617665206e6f7420676976656e206120706f73697469766520637260448201527532b2103a37903a3434b99036b2b6b132b9103cb2ba1760511b6064820152608490fd5b6115b69150853d871161044c5761043e818361206d565b87610546565b3461017d576115ca36612125565b9060018060a01b0380921690815f526020925f84526115f7600160ff60046102ec8160405f200187612207565b60025460405163b3f6702d60e01b815260048101869052908216918582806116226024820188612187565b0381865afa801561045357611640925f91611853575016331461237c565b836040518092631efb39a960e11b825282600483015281806116656024820188612187565b03915afa90811561045357611686916001915f9161183657501515146123f1565b60405181519084818185019361169d818387612166565b81016003815203019020835f52845260ff60405f205416156117fc578233146117b757836116d691604051809381928651928391612166565b81016003815203019020825f52835260405f209060ff199182815416905560405191635848e2a360e11b83528360048401526040602484015284838061171f6044820186612187565b0381305afa92831561045357611748936001915f9161179a575b50151514611776575b50612448565b9080604051927fe19753ef16cb08d80c81e7c26df1578544dc02c0a7538cf0d3fc2355dc180bca5f80a38152f35b835f525f8552600461178d8160405f200184612207565b0190815416905584611742565b6117b19150873d891161044c5761043e818361206d565b87611739565b60405162461bcd60e51b815260048101859052601d60248201527f596f752063616e6e6f7420756e696e7669746520796f757273656c662e0000006044820152606490fd5b60405162461bcd60e51b815260048101859052601260248201527113595b58995c88139bdd08125b9d9a5d195960721b6044820152606490fd5b61184d9150863d881161044c5761043e818361206d565b866103bb565b61186a9150873d891161048457610476818361206d565b8761036c565b3461017d57602036600319011261017d576001600160a01b03611891612057565b165f525f6020526118ec60405f206101796118ab826128a0565b916119086118bb600183016128a0565b916118fa6118d760036118d06002850161293f565b930161293f565b93604051978897608089526080890190612187565b908782036020890152612187565b9085820360408701526121ac565b9083820360608501526121ac565b3461017d5760208060031936011261017d576004356001600160401b03811161017d5761194790369060040161208e565b9060018060a01b0360025416604051637b7fcfed60e01b81528260048201528281806119766024820188612187565b0381855afa908115610453575f91611bc3575b5015611b8357335f525f8252600160ff60046119aa8160405f200187612207565b015416151514611b2a57816040518092631efb39a960e11b825282600483015281806119d96024820189612187565b03915afa8015610453576001915f91611b0d575b50151514611a85575b5f903382528181526004611a0f81604085200185612207565b01600160ff19825416179055338252818152611a3c6002611a366004604086200186612207565b01612491565b33825252611a556003611a36600460405f200184612207565b611a5f3391612448565b7ff038f0d708fc70f18d5815d07a62a3b40d2035dc6af7429865f612242ff870585f80a3005b60405181818451611a998183858901612166565b81016003815203019020335f528152600160ff60405f205416151503156119f6576084906040519062461bcd60e51b82526004820152602660248201527f596f7520617265206e6f7420696e766974656420746f207468697320636f6d6d6044820152653ab734ba3c9760d11b6064820152fd5b611b249150833d851161044c5761043e818361206d565b846119ed565b60405162461bcd60e51b815260048101839052602b60248201527f596f752061726520616c72656164792061206d656d626572206f66207468697360448201526a1031b7b6b6bab734ba3c9760a91b6064820152608490fd5b60405162461bcd60e51b815260048101839052601860248201527710dbdb5b5d5b9a5d1e48111bd95cc81b9bdd08115e1a5cdd60421b6044820152606490fd5b611bda9150833d851161044c5761043e818361206d565b84611989565b3461017d57611bee36612125565b600254604051637b7fcfed60e01b81526020600482018190526001600160a01b039390929091908390829086168180611c2a602482018b612187565b03915afa801561045357611c44915f91611f6a57506124e8565b335f525f825282600191611c658360ff6004610d508160405f20018b612207565b1692835f525f8352611c848260ff6004610d7b8160405f20018a612207565b611c908433141561263c565b835f525f835281611ca7600460405f200187612207565b01335f5283525f60408120541215611f0657835f525f8352611ccf600460405f200186612207565b611cd981546126e8565b9055835f525f8352611cf1600460405f200186612207565b54611cfb86612448565b604051918252855f80516020612994833981519152864294a4835f525f835281611d2b600460405f200187612207565b01335f528352611d3e60405f2054612715565b91845f525f8452600391611d5d828461136b600460405f20018b612207565b855f525f855282611d74600460405f200189612207565b01545f199490858101908111610ed0578103611de2575b5050611da89250845f525f84526113be600460405f200187612207565b815f525f81527fd6d87a1ec8d7320486a7705035a72a09149f3c5e25dcccb14a1c99eebc86d6c0610ec4610ebd600460405f200186612207565b865f525f865283611df9600460405f20018a612207565b0194875f525f875284611e12600460405f20018b612207565b0154908101908111610ed0578783611eb5848861148e8e611e81611eca9a8f99611da89f90611e4091612468565b905490861b1c16885f525f8a52611e62868661148e600460405f200187612207565b90919082549060031b9160018060a01b03809116831b921b1916179055565b5f611e8b85612715565b988882528181528c611ea36004604085200185612207565b0198825252600460405f200190612207565b905490881b1c165f52875260405f2055612715565b85611ed488612448565b6040519283527fd6fa86004958e4fadc7035e661e86172c72f1ea51e79e8bf8bd3f4103663e8e3873394a48680611d8b565b60405162461bcd60e51b815260048101849052603660248201527f596f752068617665206e6f7420676976656e2061206e6567617469766520637260448201527532b2103a37903a3434b99036b2b6b132b9103cb2ba1760511b6064820152608490fd5b610efb9150843d861161044c5761043e818361206d565b3461017d57602036600319011261017d57611f9a612057565b6001546001600160a01b03919082163303611fc4571660018060a01b031960025416176002555f80f35b60405162461bcd60e51b81526020600482015260166024820152752737ba103a34329031b7b73a3930b1ba1037bbb732b960511b6044820152606490fd5b3461017d57602061204e612015366120e3565b9060018060a01b0316805f525f845261203c600160ff60046101418160405f200187612207565b5f525f8352600460405f200190612207565b54604051908152f35b600435906001600160a01b038216820361017d57565b90601f801991011681019081106001600160401b0382111761098757604052565b81601f8201121561017d578035906001600160401b03821161098757604051926120c2601f8401601f19166020018561206d565b8284526020838301011161017d57815f926020809301838601378301015290565b90604060031983011261017d576004356001600160a01b038116810361017d5791602435906001600160401b03821161017d576121229160040161208e565b90565b604060031982011261017d57600435906001600160401b03821161017d5761214f9160040161208e565b906024356001600160a01b038116810361017d5790565b5f5b8381106121775750505f910152565b8181015183820152602001612168565b906020916121a081518092818552858086019101612166565b601f01601f1916010190565b908082519081815260208091019281808460051b8301019501935f915b8483106121d95750505050505090565b90919293949584806121f7600193601f198682030187528a51612187565b98019301930191949392906121c9565b602090612221928260405194838680955193849201612166565b82019081520301902090565b6001600160401b0381116109875760051b60200190565b9080601f8301121561017d5781359061225c8261222d565b9261226a604051948561206d565b828452602092838086019160051b8301019280841161017d57848301915b8483106122985750505050505090565b82356001600160401b03811161017d5786916122b98484809489010161208e565b815201920191612288565b9081518082526020808093019301915f5b8281106122e3575050505090565b83516001600160a01b0316855293810193928101926001016122d5565b1561230757565b60405162461bcd60e51b815260206004820152602860248201527f4d656d62657220616c726561647920657869737473206f66207468697320636f60448201526736b6bab734ba3c9760c11b6064820152608490fd5b9081602091031261017d57516001600160a01b038116810361017d5790565b1561238357565b60405162461bcd60e51b815260206004820152602860248201527f596f7520617265206e6f7420746865206f776e6572206f66207468697320636f60448201526736b6bab734ba3c9760c11b6064820152608490fd5b9081602091031261017d5751801515810361017d5790565b156123f857565b60405162461bcd60e51b815260206004820152602260248201527f5468697320636f6d6d756e697479206973206e6f7420696e76697465206f6e6c6044820152613c9760f11b6064820152608490fd5b61246090602060405192828480945193849201612166565b810103902090565b805482101561247d575f5260205f2001905f90565b634e487b7160e01b5f52603260045260245ffd5b8054600160401b811015610987576124ae91600182018155612468565b81549060018060a01b039060031b1b19169055565b80549190600160401b8310156109875782611e629160016124e695018155612468565b565b156124ef57565b60405162461bcd60e51b815260206004820152601860248201527710dbdb5b5d5b9a5d1e48111bd95cc8139bdd08115e1a5cdd60421b6044820152606490fd5b1561253657565b60405162461bcd60e51b815260206004820152602760248201527f596f7520617265206e6f742061206d656d626572206f66207468697320636f6d60448201526636bab734ba3c9760c91b6064820152608490fd5b90600182811c921680156125b9575b60208310146125a557565b634e487b7160e01b5f52602260045260245ffd5b91607f169161259a565b8181106125ce575050565b5f81556001016125c3565b156125e057565b60405162461bcd60e51b815260206004820152602e60248201527f546172676574206d656d62657220646f65736e2774206578697374206f66207460448201526d3434b99031b7b6b6bab734ba3c9760911b6064820152608490fd5b1561264357565b60405162461bcd60e51b815260206004820152601f60248201527f596f752063616e6e6f74206564697420796f7572206f776e2063726564732e006044820152606490fd5b1561268f57565b60405162461bcd60e51b815260206004820152602b60248201527f596f7527766520616c726561647920676976656e2061206372656420746f207460448201526a3434b99036b2b6b132b91760a91b6064820152608490fd5b9060018201915f600184129112908015821691151617610ed057565b905f198201918213600116610ed057565b90815f03918083055f191490151715610ed057565b1561273157565b60405162461bcd60e51b815260206004820152601660248201527554686973207573657220686173206e6f20437265647360501b6044820152606490fd5b8054801561279b575f1901906127858282612468565b81549060018060a01b039060031b1b1916905555565b634e487b7160e01b5f52603160045260245ffd5b156127b657565b60405162461bcd60e51b815260206004820152602860248201527f4d656d62657220446f6573204e6f7420457869737420466f72207468697320636044820152676f6d6d756e69747960c01b6064820152608490fd5b906040519182815491828252602092838301915f52835f20935f905b82821061283e575050506124e69250038361206d565b85546001600160a01b031684526001958601958895509381019390910190612828565b91906001612886818060a01b0392835f96168652856020526004604087200190612207565b01911682526020526040812054155f146121225750600190565b9060405191825f8254926128b38461258b565b9081845260019485811690815f1461291c57506001146128dc575b50506124e69250038361206d565b909391505f52602090815f20935f915b8183106129045750506124e693508201015f806128ce565b855488840185015294850194879450918301916128ec565b9150506124e694506020925060ff191682840152151560051b8201015f806128ce565b90815461294b8161222d565b92612959604051948561206d565b8184525f90815260208082208186015b848410612977575050505050565b6001838192612985856128a0565b81520192019301929061296956fe1956a939e1963127a6802bc7dff8c43f9bc551a0bf97efc611706570e4108402a2646970667358221220ea7923f235ad7066e4e0bd55d3a3111279840650680988baf0fcbdfbfdf8608864736f6c63430008140033",
  "linkReferences": {},
  "deployedLinkReferences": {}
}