{
  "_format": "hh-sol-artifact-1",
  "contractName": "learntgetherMembers",
  "sourceName": "contracts/learntgetherMembers.sol",
  "abi": [
    {
      "inputs": [],
      "stateMutability": "nonpayable",
      "type": "constructor"
    },
    {
      "anonymous": false,
      "inputs": [
        {
          "indexed": true,
          "internalType": "string",
          "name": "communityName",
          "type": "string"
        },
        {
          "indexed": true,
          "internalType": "address",
          "name": "memberAddress",
          "type": "address"
        },
        {
          "indexed": true,
          "internalType": "address",
          "name": "actor",
          "type": "address"
        },
        {
          "indexed": false,
          "internalType": "int256",
          "name": "creds",
          "type": "int256"
        }
      ],
      "name": "AddedNegCred",
      "type": "event"
    },
    {
      "anonymous": false,
      "inputs": [
        {
          "indexed": true,
          "internalType": "string",
          "name": "communityName",
          "type": "string"
        },
        {
          "indexed": true,
          "internalType": "address",
          "name": "memberAddress",
          "type": "address"
        },
        {
          "indexed": true,
          "internalType": "address",
          "name": "actor",
          "type": "address"
        },
        {
          "indexed": false,
          "internalType": "int256",
          "name": "creds",
          "type": "int256"
        }
      ],
      "name": "AddedPosCred",
      "type": "event"
    },
    {
      "anonymous": false,
      "inputs": [
        {
          "indexed": true,
          "internalType": "address",
          "name": "memberAddress",
          "type": "address"
        },
        {
          "indexed": true,
          "internalType": "string",
          "name": "communityName",
          "type": "string"
        },
        {
          "indexed": false,
          "internalType": "int256",
          "name": "creds",
          "type": "int256"
        },
        {
          "indexed": true,
          "internalType": "uint256",
          "name": "timestamp",
          "type": "uint256"
        }
      ],
      "name": "Creds",
      "type": "event"
    },
    {
      "anonymous": false,
      "inputs": [
        {
          "indexed": true,
          "internalType": "string",
          "name": "communityName",
          "type": "string"
        },
        {
          "indexed": true,
          "internalType": "address",
          "name": "memberAddress",
          "type": "address"
        },
        {
          "indexed": true,
          "internalType": "address",
          "name": "actor",
          "type": "address"
        },
        {
          "indexed": false,
          "internalType": "int256",
          "name": "index",
          "type": "int256"
        }
      ],
      "name": "IndexUpdated",
      "type": "event"
    },
    {
      "anonymous": false,
      "inputs": [
        {
          "indexed": true,
          "internalType": "string",
          "name": "communityName",
          "type": "string"
        },
        {
          "indexed": true,
          "internalType": "address",
          "name": "memberAddress",
          "type": "address"
        }
      ],
      "name": "MemberAdded",
      "type": "event"
    },
    {
      "anonymous": false,
      "inputs": [
        {
          "indexed": true,
          "internalType": "address",
          "name": "memberAddress",
          "type": "address"
        },
        {
          "indexed": true,
          "internalType": "string",
          "name": "name",
          "type": "string"
        },
        {
          "indexed": false,
          "internalType": "string",
          "name": "description",
          "type": "string"
        },
        {
          "indexed": false,
          "internalType": "string[]",
          "name": "degrees",
          "type": "string[]"
        },
        {
          "indexed": false,
          "internalType": "string[]",
          "name": "awards",
          "type": "string[]"
        }
      ],
      "name": "MemberInfo",
      "type": "event"
    },
    {
      "anonymous": false,
      "inputs": [
        {
          "indexed": true,
          "internalType": "string",
          "name": "communityName",
          "type": "string"
        },
        {
          "indexed": true,
          "internalType": "address",
          "name": "memberAddress",
          "type": "address"
        }
      ],
      "name": "MemberInvited",
      "type": "event"
    },
    {
      "anonymous": false,
      "inputs": [
        {
          "indexed": true,
          "internalType": "string",
          "name": "communityName",
          "type": "string"
        },
        {
          "indexed": true,
          "internalType": "address",
          "name": "memberAddress",
          "type": "address"
        }
      ],
      "name": "MemberRemoved",
      "type": "event"
    },
    {
      "anonymous": false,
      "inputs": [
        {
          "indexed": true,
          "internalType": "string",
          "name": "communityName",
          "type": "string"
        },
        {
          "indexed": true,
          "internalType": "address",
          "name": "memberAddress",
          "type": "address"
        }
      ],
      "name": "MemberUninvited",
      "type": "event"
    },
    {
      "anonymous": false,
      "inputs": [
        {
          "indexed": true,
          "internalType": "string",
          "name": "communityName",
          "type": "string"
        },
        {
          "indexed": true,
          "internalType": "address",
          "name": "memberAddress",
          "type": "address"
        },
        {
          "indexed": true,
          "internalType": "address",
          "name": "actor",
          "type": "address"
        },
        {
          "indexed": false,
          "internalType": "int256",
          "name": "creds",
          "type": "int256"
        }
      ],
      "name": "RemovedNegCred",
      "type": "event"
    },
    {
      "anonymous": false,
      "inputs": [
        {
          "indexed": true,
          "internalType": "string",
          "name": "communityName",
          "type": "string"
        },
        {
          "indexed": true,
          "internalType": "address",
          "name": "memberAddress",
          "type": "address"
        },
        {
          "indexed": true,
          "internalType": "address",
          "name": "actor",
          "type": "address"
        },
        {
          "indexed": false,
          "internalType": "int256",
          "name": "creds",
          "type": "int256"
        }
      ],
      "name": "RemovedPosCred",
      "type": "event"
    },
    {
      "inputs": [
        {
          "internalType": "string",
          "name": "_communityName",
          "type": "string"
        },
        {
          "internalType": "address",
          "name": "_member",
          "type": "address"
        }
      ],
      "name": "addNegCredsToMember",
      "outputs": [],
      "stateMutability": "nonpayable",
      "type": "function"
    },
    {
      "inputs": [
        {
          "internalType": "string",
          "name": "_communityName",
          "type": "string"
        },
        {
          "internalType": "address",
          "name": "_member",
          "type": "address"
        }
      ],
      "name": "addPosCredsToMember",
      "outputs": [],
      "stateMutability": "nonpayable",
      "type": "function"
    },
    {
      "inputs": [
        {
          "internalType": "string",
          "name": "_communityName",
          "type": "string"
        }
      ],
      "name": "addSelfAsMember",
      "outputs": [],
      "stateMutability": "nonpayable",
      "type": "function"
    },
    {
      "inputs": [],
      "name": "communityContract",
      "outputs": [
        {
          "internalType": "contract learntgetherCommuityInterface",
          "name": "",
          "type": "address"
        }
      ],
      "stateMutability": "view",
      "type": "function"
    },
    {
      "inputs": [
        {
          "internalType": "string",
          "name": "_communityName",
          "type": "string"
        },
        {
          "internalType": "address",
          "name": "_memberAddress",
          "type": "address"
        },
        {
          "internalType": "int256",
          "name": "_creds",
          "type": "int256"
        }
      ],
      "name": "contractSetCred",
      "outputs": [
        {
          "internalType": "int256",
          "name": "",
          "type": "int256"
        }
      ],
      "stateMutability": "nonpayable",
      "type": "function"
    },
    {
      "inputs": [
        {
          "internalType": "address",
          "name": "_memberAddress",
          "type": "address"
        },
        {
          "internalType": "string",
          "name": "_communityName",
          "type": "string"
        }
      ],
      "name": "getIsInvited",
      "outputs": [
        {
          "internalType": "bool",
          "name": "",
          "type": "bool"
        }
      ],
      "stateMutability": "view",
      "type": "function"
    },
    {
      "inputs": [
        {
          "internalType": "address",
          "name": "_memberAddress",
          "type": "address"
        },
        {
          "internalType": "string",
          "name": "_communityName",
          "type": "string"
        }
      ],
      "name": "getIsMember",
      "outputs": [
        {
          "internalType": "bool",
          "name": "",
          "type": "bool"
        }
      ],
      "stateMutability": "view",
      "type": "function"
    },
    {
      "inputs": [
        {
          "internalType": "address",
          "name": "_memberAddress",
          "type": "address"
        },
        {
          "internalType": "address",
          "name": "_credGiverAddress",
          "type": "address"
        },
        {
          "internalType": "string",
          "name": "_communityName",
          "type": "string"
        }
      ],
      "name": "getMemberCredIndex",
      "outputs": [
        {
          "internalType": "int256",
          "name": "index",
          "type": "int256"
        }
      ],
      "stateMutability": "view",
      "type": "function"
    },
    {
      "inputs": [
        {
          "internalType": "address",
          "name": "_memberAddress",
          "type": "address"
        },
        {
          "internalType": "string",
          "name": "_communityName",
          "type": "string"
        }
      ],
      "name": "getMemberCreds",
      "outputs": [
        {
          "internalType": "int256",
          "name": "creds",
          "type": "int256"
        }
      ],
      "stateMutability": "view",
      "type": "function"
    },
    {
      "inputs": [
        {
          "internalType": "address",
          "name": "_memberAddress",
          "type": "address"
        },
        {
          "internalType": "string",
          "name": "_communityName",
          "type": "string"
        }
      ],
      "name": "getMemberNegCredsList",
      "outputs": [
        {
          "internalType": "address[]",
          "name": "addressList",
          "type": "address[]"
        }
      ],
      "stateMutability": "view",
      "type": "function"
    },
    {
      "inputs": [
        {
          "internalType": "address",
          "name": "_memberAddress",
          "type": "address"
        },
        {
          "internalType": "string",
          "name": "_communityName",
          "type": "string"
        }
      ],
      "name": "getMemberPosCredsList",
      "outputs": [
        {
          "internalType": "address[]",
          "name": "addressList",
          "type": "address[]"
        }
      ],
      "stateMutability": "view",
      "type": "function"
    },
    {
      "inputs": [
        {
          "internalType": "address",
          "name": "_memberAddress",
          "type": "address"
        },
        {
          "internalType": "string",
          "name": "_communityName",
          "type": "string"
        }
      ],
      "name": "getReiewerCommunityInfo",
      "outputs": [
        {
          "internalType": "int256",
          "name": "_creds",
          "type": "int256"
        },
        {
          "internalType": "address[]",
          "name": "_posCreds",
          "type": "address[]"
        },
        {
          "internalType": "address[]",
          "name": "_negCreds",
          "type": "address[]"
        }
      ],
      "stateMutability": "view",
      "type": "function"
    },
    {
      "inputs": [
        {
          "internalType": "address",
          "name": "_memberAddress",
          "type": "address"
        },
        {
          "internalType": "string",
          "name": "_communityName",
          "type": "string"
        },
        {
          "internalType": "address",
          "name": "givenBy",
          "type": "address"
        }
      ],
      "name": "hasMemberGivenCred",
      "outputs": [
        {
          "internalType": "bool",
          "name": "",
          "type": "bool"
        }
      ],
      "stateMutability": "view",
      "type": "function"
    },
    {
      "inputs": [
        {
          "internalType": "string",
          "name": "_communityName",
          "type": "string"
        },
        {
          "internalType": "address",
          "name": "_memberAddress",
          "type": "address"
        }
      ],
      "name": "inviteMember",
      "outputs": [
        {
          "internalType": "address",
          "name": "",
          "type": "address"
        }
      ],
      "stateMutability": "nonpayable",
      "type": "function"
    },
    {
      "inputs": [
        {
          "internalType": "string",
          "name": "",
          "type": "string"
        },
        {
          "internalType": "address",
          "name": "",
          "type": "address"
        }
      ],
      "name": "isInvited",
      "outputs": [
        {
          "internalType": "bool",
          "name": "",
          "type": "bool"
        }
      ],
      "stateMutability": "view",
      "type": "function"
    },
    {
      "inputs": [
        {
          "internalType": "address",
          "name": "",
          "type": "address"
        },
        {
          "internalType": "uint256",
          "name": "",
          "type": "uint256"
        }
      ],
      "name": "memberCommunities",
      "outputs": [
        {
          "internalType": "string",
          "name": "",
          "type": "string"
        }
      ],
      "stateMutability": "view",
      "type": "function"
    },
    {
      "inputs": [
        {
          "internalType": "string",
          "name": "_communityName",
          "type": "string"
        },
        {
          "internalType": "address",
          "name": "_member",
          "type": "address"
        }
      ],
      "name": "removeNegCredsFromMember",
      "outputs": [],
      "stateMutability": "nonpayable",
      "type": "function"
    },
    {
      "inputs": [
        {
          "internalType": "string",
          "name": "_communityName",
          "type": "string"
        },
        {
          "internalType": "address",
          "name": "_member",
          "type": "address"
        }
      ],
      "name": "removePosCredsFromMember",
      "outputs": [],
      "stateMutability": "nonpayable",
      "type": "function"
    },
    {
      "inputs": [
        {
          "internalType": "string",
          "name": "_communityName",
          "type": "string"
        }
      ],
      "name": "removeSelfAsMember",
      "outputs": [],
      "stateMutability": "nonpayable",
      "type": "function"
    },
    {
      "inputs": [
        {
          "internalType": "address",
          "name": "_contractAddress",
          "type": "address"
        }
      ],
      "name": "setlearntgetherCommunities",
      "outputs": [],
      "stateMutability": "nonpayable",
      "type": "function"
    },
    {
      "inputs": [
        {
          "internalType": "string",
          "name": "_communityName",
          "type": "string"
        },
        {
          "internalType": "address",
          "name": "_memberAddress",
          "type": "address"
        }
      ],
      "name": "uninviteMember",
      "outputs": [
        {
          "internalType": "address",
          "name": "",
          "type": "address"
        }
      ],
      "stateMutability": "nonpayable",
      "type": "function"
    }
  ],
  "bytecode": "0x6080806040523461002857600280546001600160a01b03191633179055612af8908161002d8239f35b5f80fdfe60406080815260049081361015610014575f80fd5b5f91823560e01c806302b5df59146121d457806319f553e2146121505780634f64aedd14611d995780635450fdd5146119525780636255de33146118385780636b039bb41461148b5780638c5956c41461107f5780638e6340291461105657806399d03bf214610e7e5780639c419dc914610def578063a482857814610dc2578063b091c54614610da6578063b66fdab414610b3a578063bf2a3b74146109bb578063c783acb41461094d578063ca4f880b14610629578063cdb43ea41461029f578063e636f3141461024d578063ef0ed36014610199578063f3faf99a146101795763fbc3d96c14610105575f80fd5b3461017557600361015861014b846101719661015e95610124366122d1565b949060018060a01b03169182845283602052610142858520876123fb565b015415156129af565b81528060205220906123fb565b01612a0c565b9051918291602083526020830190612421565b0390f35b8280fd5b503461017557600261015861014b846101719661015e95610124366122d1565b50919034610249576101719061022161021b60036102146101da6101bc366122d1565b919060018060a01b0316998a8a5289602052610142888b20846123fb565b88885287602052856101ee818a20836123fb565b54988a8152806020526002610205838320856123fb565b019a81528060205220906123fb565b0195612a0c565b94612a0c565b61023c82519586958652606060208701526060860190612421565b9184830390850152612421565b5080fd5b5034610175578160209360ff9261027b86610267366122d1565b9093828751948386809551938492016123b5565b8201908152030190206001600160a01b039091168252855220549151911615158152f35b50919034610249576102b036612313565b919060018060a01b0380931692838552602095858752806102d3858820856123fb565b01546105d5578351918351928881818701956102f08183896123b5565b810185815203019020868852885260ff858820541661059b5780600354169085519063cbe02a9f60e01b8083528a858401528a8380610332602482018b6123d6565b0381875afa928315610591578a93610572575b50875163b3f6702d60e01b81528581018c90528b8180610368602482018c6123d6565b0381885afa908115610568579083918c9161054b575b501633149283610540575b5082156104ce575b50501561047b578785518092631efb39a960e11b8252828583015281806103bb602482018a6123d6565b03915afa90811561047157887fbee566e9904e3c5e202405f159f39bc31121d728f2772cabc7cf243bcf63a6479461043b9461040a60018b9a999661041a968e91610444575b50151514612494565b87518094819387519283916123b5565b8201908152030190208588528852838720805460ff191660011790556124eb565b91519480a38152f35b6104649150863d881161046a575b61045c8183612247565b81019061247c565b5f610401565b503d610452565b85513d89823e3d90fd5b845162461bcd60e51b8152808301899052602760248201527f596f7520646f6e742068617665207065726d697373696f6e20696e76697465206044820152664d656d6265727360c81b6064820152608490fd5b909150865190815289848201528981806104eb602482018a6123d6565b0381865afa908115610536578991610509575b501633145f80610391565b61052991508a3d8c1161052f575b6105218183612247565b81019061245d565b5f6104fe565b503d610517565b87513d8b823e3d90fd5b82161592505f610389565b61056291508d803d1061052f576105218183612247565b5f61037e565b89513d8d823e3d90fd5b61058a9193508b3d8d1161052f576105218183612247565b915f610345565b88513d8c823e3d90fd5b845162461bcd60e51b81528083018990526014602482015273155cd95c88105b1c9958591e48125b9d9a5d195960621b6044820152606490fd5b835162461bcd60e51b8152908101879052602860248201527f4d656d62657220616c726561647920657869737473206f66207468697320636f60448201526736b6bab734ba3c9760c11b6064820152608490fd5b5091903461024957602092836003193601126101755780356001600160401b0381116109495761065c903690830161227c565b6003548351637b7fcfed60e01b815283810187905260249692949291829082906001600160a01b031681806106938c82018b6123d6565b03915afa90811561093f57906106b0918791610922575b506125bb565b3385528481526106cf836106c6848820876123fb565b01541515612602565b338552848152826106e2838720866123fb565b01543386526001808352838720545f1998919290898101908111610910578103610808575b5033875281835283872097885480156107f6570191610726838a612354565b9290926107e6575092879594928987846107739761074583975461237d565b90816107a6575b505050505533825281815281856107658583208a6123fb565b0155338252528320846123fb565b015561077f33916124eb565b7fdd403bcc860194e697bd48a94ad259a004827525ef954ad73b044e400f3adfe08380a380f35b8390601f83116001146107c157505050555b838b808061074c565b6107df90848394959352601f898520950160051c850190850161250b565b55556107b8565b634e487b7160e01b895288875288fd5b634e487b7160e01b8952603187528289fd5b3388528284528488208054908a82019182116108fe579061082891612354565b5033895283855261083b82878b20612354565b6108ed57906108499161265e565b338852878452858589208486528561086384898d20612354565b508851928c918054906108758261237d565b91868b821691825f146108d557505060011461089e575b5050815282900301902001555f610707565b909192508d528c888482205b8383106108be57505050830190835f61088c565b8054878401528d97508b95909201918a91016108aa565b925094505060ff19168352801515028201915f61088c565b634e487b7160e01b8a52898852838afd5b634e487b7160e01b8a5260118852838afd5b634e487b7160e01b8952601187528289fd5b6109399150833d851161046a5761045c8183612247565b5f6106aa565b83513d88823e3d90fd5b8380fd5b503461017557606036600319011261017557610967612217565b90602435906001600160401b0382116109b7576109869136910161227c565b604435939091906001600160a01b03851685036109b45750926109ab91602094612a61565b90519015158152f35b80fd5b8480fd5b5091346109b45760603660031901126109b45782356001600160401b038111610249576109eb903690850161227c565b906109f4612231565b600354845163cbe02a9f60e01b81526020818801819052966001600160a01b0393929091908890829086168180610a2e602482018c6123d6565b03915afa908115610b30579084918691610b13575b50168033149081610b09575b5080610aea575b15610a8f5750918491610a87949316808252818752604435610a7a848420866123fb565b55815280865220906123fb565b549051908152f35b855162461bcd60e51b8152908101879052602f60248201527f4e6f742074686520637265642061636365737320636f6e7472616374206f722060448201526e2ab9b2b9103737ba1036b2b6b132b960891b6064820152608490fd5b50828216845283875280610b00878620876123fb565b01541515610a56565b905015155f610a4f565b610b2a9150893d8b1161052f576105218183612247565b5f610a43565b87513d87823e3d90fd5b503461017557610b4936612313565b6003548451637b7fcfed60e01b8152602081860181905293956001600160a01b0392831695909493909291848180610b84602482018c6123d6565b03818a5afa908115610d9c57839291610ba3918b91610d8557506125bb565b338952888552610bb9846106c6888c208b6123fb565b1694858852878452610bda83610bd1878b208a6123fb565b01541515612738565b610be68633141561279b565b838551809263cbe02a9f60e01b825282868301528180610c09602482018d6123d6565b03915afa908115610d7b5790610c2992918991610d5e575b5016156127e7565b8386528582526001610c3d848820876123fb565b013387528252610c508387205415612842565b838652858252610c62838720866123fb565b610c6c81546128a2565b9055838652858252610c80838720866123fb565b54610c8a866124eb565b8451918252855f80516020612aa3833981519152854294a4838652858252610cc0336002610cba868a20896123fb565b01612598565b8386528582526002610cd4848820876123fb565b01545f19810191908211610d4b5750907fd0f5d24e816c9fc4cba0f35b280898648e66604fc44212736e778bfefc338b0f918487528682526001610d1a858920886123fb565b01338852825283872055838652858152610d40610d39848820876123fb565b54956124eb565b92519485523394a480f35b634e487b7160e01b875260119052602486fd5b610d759150853d871161052f576105218183612247565b5f610c21565b85513d8a823e3d90fd5b6109399150873d891161046a5761045c8183612247565b86513d8b823e3d90fd5b505034610249576020906109ab610dbc366122d1565b9061297d565b5034610175578160209360ff9261027b86610ddc36612313565b93828751948386809551938492016123b5565b503461017557606036600319011261017557610e09612217565b610e11612231565b916044356001600160401b038111610e7a57916001610e6a869593610e3c602099963690830161227c565b90610e5c848060a01b0380961691828952888c526101428a8a20856123fb565b8652858952868620906123fb565b0191168252845220549051908152f35b8580fd5b503461017557610e8d36612313565b6003548451637b7fcfed60e01b8152602081860181905293956001600160a01b0392831695909493909291848180610ec8602482018c6123d6565b03818a5afa908115610d9c57839291610ee7918b91610d8557506125bb565b338952888552610efd846106c6888c208b6123fb565b1694858852878452610f1583610bd1878b208a6123fb565b610f218633141561279b565b838551809263cbe02a9f60e01b825282868301528180610f44602482018d6123d6565b03915afa908115610d7b5790610f6392918991610d5e575016156127e7565b8386528582526001610f77848820876123fb565b013387528252610f8a8387205415612842565b838652858252610f9c838720866123fb565b610fa681546128d2565b9055838652858252610fba838720866123fb565b54610fc4866124eb565b8451918252855f80516020612aa3833981519152854294a4838652858252610ff4336003610cba868a20896123fb565b8386528582526003611008848820876123fb565b01545f19810191908211610d4b5750906110427f8e3dd53aaad1909975de245668134b898a443d9d797f6a14e77b5cd0606ed541926128e3565b8487528682526001610d1a858920886123fb565b50503461024957816003193601126102495760035490516001600160a01b039091168152602090f35b50346101755761108e36612313565b6003548451637b7fcfed60e01b8152602081860181905293956001600160a01b03928316959094939092918481806110c9602482018c6123d6565b03818a5afa908115610d9c578392916110e8918b91610d8557506125bb565b3389528885526110fe846106c6888c208b6123fb565b169485885287845261111683610bd1878b208a6123fb565b6111228633141561279b565b838551809263cbe02a9f60e01b825282868301528180611145602482018d6123d6565b03915afa908115610d7b576111649183918a91611474575016156127e7565b8487528683526001611178858920886123fb565b013388528352868481205413156114135784875286835261119b848820876123fb565b6111a581546128d2565b90558487528683526111b9848820876123fb565b546111c3876124eb565b8551918252865f80516020612aa3833981519152864294a484875286835260016111ef858920886123fb565b013388528352838720549085885287845260029261121d600185611215898d208c6123fb565b0154116128f8565b86895288855283611230878b208a6123fb565b01545f1991908281019081116114005784036112bd575b50505050906112a87f6c5cfc2553aaffd4cd0342765cdbca370cda07554f00e4e5112884eae468e299928588528783526001611285868a20896123fb565b01338952835287858120558588528783526112a2858920886123fb565b0161293d565b838652858152610d40610d39848820876123fb565b878a52898652846112d0888c208b6123fb565b0190888b528a8752856112e5898d208c6123fb565b01549283019283116113ed57508261139f85876113588d8f808f988f929e7f6c5cfc2553aaffd4cd0342765cdbca370cda07554f00e4e5112884eae468e2999f819f9d6112a89f9d61133a9061137d95612354565b90549060031b1c16918c82525261135e8888611358878720896123fb565b01612354565b90919082549060031b9160018060a01b03809116831b921b1916179055565b888152808d526001611391838320856123fb565b01988152808d5220906123fb565b90549060031b1c168a52845280868a2055866113ba896124eb565b87519283527fd6fa86004958e4fadc7035e661e86172c72f1ea51e79e8bf8bd3f4103663e8e3863394a491925f80611247565b634e487b7160e01b8b526011905260248afd5b634e487b7160e01b8b526011825260248bfd5b50915162461bcd60e51b815291820152603660248201527f596f752068617665206e6f7420676976656e206120706f73697469766520637260448201527532b2103a37903a3434b99036b2b6b132b9103cb2ba1760511b6064820152608490fd5b610d759150863d881161052f576105218183612247565b509190346102495761149c36612313565b600354835163cbe02a9f60e01b80825260208289018190529793959493926024926001600160a01b0392918316918a82806114d98882018b6123d6565b0381865afa918215610591578a92611819575b50875163b3f6702d60e01b81528681018c90528b818061150e8982018c6123d6565b0381875afa90811561056857859182918e8e926117fc575b505016331492836117f1575b50508115611799575b5015611745578886518092631efb39a960e11b8252828783015281806115638882018b6123d6565b03915afa90811561173b57611584916001918a916117245750151514612494565b84519084519189818188019461159b8183886123b5565b8101878152030190209616958688528852600160ff86892054161515036116ed578533146116ab57876115d89186518093819288519283916123b5565b8101858152030190208587528752838620805460ff191690558351635848e2a360e11b815280830186905290810184905286818061161960448201876123d6565b0381305afa9081156116a15792867fe19753ef16cb08d80c81e7c26df1578544dc02c0a7538cf0d3fc2355dc180bca93600161043b948998978491611684575b50151514611669575b50506124eb565b868252818a5261167b868320846123fb565b0155865f611662565b61169b91508c8d3d1061046a5761045c8183612247565b5f611659565b84513d88823e3d90fd5b845162461bcd60e51b8152808401899052601d818401527f596f752063616e6e6f7420756e696e7669746520796f757273656c662e0000006044820152606490fd5b845162461bcd60e51b81528084018990526012818401527113595b58995c88139bdd08125b9d9a5d195960721b6044820152606490fd5b61046491508b3d8d1161046a5761045c8183612247565b86513d8a823e3d90fd5b855162461bcd60e51b81528085018a90526029818501527f596f7520646f6e742068617665207065726d697373696f6e20756e696e76697460448201526865204d656d6265727360b81b6064820152608490fd5b9050865190815289858201528981806117b48782018a6123d6565b0381855afa908115610536579083918a916117d4575b501633145f61153b565b6117eb91508b3d8d1161052f576105218183612247565b5f6117ca565b16159150835f611532565b6118129250803d1061052f576105218183612247565b5f8e611526565b6118319192508b3d8d1161052f576105218183612247565b905f6114ec565b50919034610249578060031936011261024957611853612217565b6001600160a01b031682526001602081815282842080549194916024359190821015610175579061188391612354565b959095611940575082519485928282549261189d8461237d565b938487528884821691825f146119165750506001146118d8575b8588610171896118c9848a0385612247565b519282849384528301906123d6565b87945081939291528383205b8284106118fe57505050820101816118c96101715f6118b7565b8054848a0186015288955087949093019281016118e4565b60ff19168882015294151560051b870190940194508593506118c9925061017191505f90506118b7565b634e487b7160e01b8252819052602490fd5b50903461017557602080600319360112610949576001600160401b038335818111610e7a57611984903690860161227c565b9360018060a01b0360035416845192637b7fcfed60e01b845284838501526024938581806119b48882018c6123d6565b0381865afa908115610536578991611d7c575b5015611d3f57338852878552826119e0878a20896123fb565b0154611ce9578486518093631efb39a960e11b825282868301528180611a088982018d6123d6565b03915afa91821561173b578892611cca575b5060018092151514611c47575b3388528185528588208054908115611bec575b5050338852818552858820805490600160401b821015611bda5790611a63918482018155612354565b919091611bc9578751908111611bb757611a8781611a81845461237d565b84612521565b8086601f8211600114611b5a578a91611b4f575b505f19600383901b1c191690831b1790555b3387528352838620545f19810192908311611b3e57509285600393611afb93611b0d96338452838352611ae28585208a6123fb565b0155338252818152611b016002611afb8585208a6123fb565b01612566565b338252528520846123fb565b611b1733916124eb565b7ff038f0d708fc70f18d5815d07a62a3b40d2035dc6af7429865f612242ff870588380a380f35b634e487b7160e01b87526011825286fd5b90508801515f611a9b565b838b52878b2085935090601f1983168c5b8a8d838310611ba2575050508311611b8a575b5050811b019055611aad565b8a01515f1960f88460031b161c191690555f80611b7e565b84015185558896909401939283019201611b6b565b634e487b7160e01b8952604184528489fd5b634e487b7160e01b89528884528489fd5b634e487b7160e01b8a5260418552858afd5b600160401b821015611bda5790611c07918482018155612354565b611bc95780611c175f925461237d565b601f8111611c29575b50555f80611a3a565b818b52878b20611c4191601f0160051c81019061250b565b5f611c20565b8551858181611c5c8b838151938492016123b5565b81018681520301902033895285528588205460ff1615158214611a2757855162461bcd60e51b81528084018690526026818601527f596f7520617265206e6f7420696e766974656420746f207468697320636f6d6d6044820152653ab734ba3c9760d11b6064820152608490fd5b611ce2919250853d871161046a5761045c8183612247565b905f611a1a565b855162461bcd60e51b8152808401869052602b818601527f596f752061726520616c72656164792061206d656d626572206f66207468697360448201526a1031b7b6b6bab734ba3c9760a91b6064820152608490fd5b855162461bcd60e51b81528084018690526018818601527710dbdb5b5d5b9a5d1e48111bd95cc81b9bdd08115e1a5cdd60421b6044820152606490fd5b611d939150863d881161046a5761045c8183612247565b5f6119c7565b503461017557611da836612313565b600380548551637b7fcfed60e01b8152602081870181905294966001600160a01b0392831696909594909291858180611de4602482018d6123d6565b03818b5afa90811561214657839291611e03918c9161212f57506125bb565b338a52898652611e19846106c6898d208c6123fb565b1695868952888552611e3183610bd1888c208b6123fb565b611e3d8733141561279b565b848651809263cbe02a9f60e01b825282868301528180611e618d60248301906123d6565b03915afa908115610d9c57611e809183918b91612118575016156127e7565b8588528784526001611e94868a20896123fb565b013389528452878581205412156120b657858852878452611eb7858920886123fb565b611ec181546128a2565b9055858852878452611ed5858920886123fb565b54611edf886124eb565b8651918252875f80516020612aa3833981519152874294a48588528784526001611f0b868a20896123fb565b013389528452611f1d858920546128e3565b91868952888552611f36600185611215898d208c6123fb565b86895288855283611f49878b208a6123fb565b01545f199190828101908111611400578403611f9e575b50505050906112a87fd6d87a1ec8d7320486a7705035a72a09149f3c5e25dcccb14a1c99eebc86d6c0928588528783526001611285868a20896123fb565b878a5289865284611fb1888c208b6123fb565b0190888b528a875285611fc6898d208c6123fb565b01549283019283116113ed57509285888461206584898f8f8e611358927fd6d87a1ec8d7320486a7705035a72a09149f3c5e25dcccb14a1c99eebc86d6c09f9e9c61203a906112a89f6120799e61201c91612354565b905490881b1c168a8352828c5261135e8888611358878720896123fb565b80612044876128e3565b9a8a82528181526001612059858420876123fb565b019a82525220906123fb565b905490871b1c168c528652878b20556128e3565b86612083896124eb565b87519283527fd6fa86004958e4fadc7035e661e86172c72f1ea51e79e8bf8bd3f4103663e8e3863394a491925f80611f60565b845162461bcd60e51b8152808301859052603660248201527f596f752068617665206e6f7420676976656e2061206e6567617469766520637260448201527532b2103a37903a3434b99036b2b6b132b9103cb2ba1760511b6064820152608490fd5b610d759150873d891161052f576105218183612247565b6109399150883d8a1161046a5761045c8183612247565b87513d8c823e3d90fd5b50346101755760203660031901126101755761216a612217565b6002546001600160a01b039391929190841633036121985750501660018060a01b0319600354161760035580f35b906020606492519162461bcd60e51b835282015260166024820152752737ba103a34329031b7b73a3930b1ba1037bbb732b960511b6044820152fd5b50346101755761220b82602094610a87936121ee366122d1565b949060018060a01b031691828452838952610142858520876123fb565b815280865220906123fb565b600435906001600160a01b038216820361222d57565b5f80fd5b602435906001600160a01b038216820361222d57565b90601f801991011681019081106001600160401b0382111761226857604052565b634e487b7160e01b5f52604160045260245ffd5b81601f8201121561222d578035906001600160401b03821161226857604051926122b0601f8401601f191660200185612247565b8284526020838301011161222d57815f926020809301838601378301015290565b90604060031983011261222d576004356001600160a01b038116810361222d5791602435906001600160401b03821161222d576123109160040161227c565b90565b604060031982011261222d57600435906001600160401b03821161222d5761233d9160040161227c565b906024356001600160a01b038116810361222d5790565b8054821015612369575f5260205f2001905f90565b634e487b7160e01b5f52603260045260245ffd5b90600182811c921680156123ab575b602083101461239757565b634e487b7160e01b5f52602260045260245ffd5b91607f169161238c565b5f5b8381106123c65750505f910152565b81810151838201526020016123b7565b906020916123ef815180928185528580860191016123b5565b601f01601f1916010190565b6020906124159282604051948386809551938492016123b5565b82019081520301902090565b9081518082526020808093019301915f5b828110612440575050505090565b83516001600160a01b031685529381019392810192600101612432565b9081602091031261222d57516001600160a01b038116810361222d5790565b9081602091031261222d5751801515810361222d5790565b1561249b57565b60405162461bcd60e51b815260206004820152602260248201527f5468697320636f6d6d756e697479206973206e6f7420696e76697465206f6e6c6044820152613c9760f11b6064820152608490fd5b612503906020604051928284809451938492016123b5565b810103902090565b818110612516575050565b5f815560010161250b565b9190601f811161253057505050565b61255a925f5260205f20906020601f840160051c8301931061255c575b601f0160051c019061250b565b565b909150819061254d565b8054600160401b8110156122685761258391600182018155612354565b81549060018060a01b039060031b1b19169055565b80549190600160401b831015612268578261135e91600161255a95018155612354565b156125c257565b60405162461bcd60e51b815260206004820152601860248201527710dbdb5b5d5b9a5d1e48111bd95cc8139bdd08115e1a5cdd60421b6044820152606490fd5b1561260957565b60405162461bcd60e51b815260206004820152602760248201527f596f7520617265206e6f742061206d656d626572206f66207468697320636f6d60448201526636bab734ba3c9760c91b6064820152608490fd5b9080821461273457612670815461237d565b906001600160401b0382116122685781906126958261268f865461237d565b86612521565b5f90601f83116001146126c9575f926126be575b50508160011b915f199060031b1c1916179055565b015490505f806126a9565b81526020808220858352818320935090601f1985169083905b82821061271b575050908460019594939210612703575b505050811b019055565b01545f1960f88460031b161c191690555f80806126f9565b84958192958501548155600180910196019401906126e2565b5050565b1561273f57565b60405162461bcd60e51b815260206004820152602e60248201527f546172676574206d656d62657220646f65736e2774206578697374206f66207460448201526d3434b99031b7b6b6bab734ba3c9760911b6064820152608490fd5b156127a257565b60405162461bcd60e51b815260206004820152601f60248201527f596f752063616e6e6f74206564697420796f7572206f776e2063726564732e006044820152606490fd5b156127ee57565b60405162461bcd60e51b815260206004820152602660248201527f436f6d6d6d756e6974792055736573206120637265642061636365737320636f6044820152651b9d1c9858dd60d21b6064820152608490fd5b1561284957565b60405162461bcd60e51b815260206004820152602b60248201527f596f7527766520616c726561647920676976656e2061206372656420746f207460448201526a3434b99036b2b6b132b91760a91b6064820152608490fd5b9060018201915f6001841291129080158216911516176128be57565b634e487b7160e01b5f52601160045260245ffd5b905f1982019182136001166128be57565b90815f03918083055f1914901517156128be57565b156128ff57565b60405162461bcd60e51b815260206004820152601660248201527554686973207573657220686173206e6f20437265647360501b6044820152606490fd5b80548015612969575f1901906129538282612354565b81549060018060a01b039060031b1b1916905555565b634e487b7160e01b5f52603160045260245ffd5b6001600160a01b03165f9081526020819052604090206004916129a091906123fb565b01546129aa575f90565b600190565b156129b657565b60405162461bcd60e51b815260206004820152602860248201527f4d656d62657220446f6573204e6f7420457869737420466f72207468697320636044820152676f6d6d756e69747960c01b6064820152608490fd5b906040519182815491828252602092838301915f52835f20935f905b828210612a3e5750505061255a92500383612247565b85546001600160a01b031684526001958601958895509381019390910190612a28565b6001600160a01b039081165f908152602081905260408120909392600191612a88916123fb565b91909216835201602052604081205415612310575060019056fe1956a939e1963127a6802bc7dff8c43f9bc551a0bf97efc611706570e4108402a26469706673582212200246fb86b05815aa18483d77b63d7254430759e2a48f15ad795b79633a44fa8364736f6c63430008140033",
  "linkReferences": {},
  "deployedLinkReferences": {}
}