{
  "_format": "hh-sol-artifact-1",
  "contractName": "tgetherConsensusBounty",
  "sourceName": "contracts/tgetherConsensusBounty.sol",
  "abi": [
    {
      "inputs": [
        {
          "internalType": "address",
          "name": "_tgetherFundAddress",
          "type": "address"
        },
        {
          "internalType": "address",
          "name": "_tgetherPostConsensusAddress",
          "type": "address"
        },
        {
          "internalType": "address",
          "name": "_tgetherCommunityConsensusAddress",
          "type": "address"
        },
        {
          "internalType": "address",
          "name": "_tgetherIncentivesAddress",
          "type": "address"
        },
        {
          "internalType": "uint256",
          "name": "_fee",
          "type": "uint256"
        }
      ],
      "stateMutability": "nonpayable",
      "type": "constructor"
    },
    {
      "anonymous": false,
      "inputs": [
        {
          "indexed": false,
          "internalType": "uint256",
          "name": "bountyId",
          "type": "uint256"
        },
        {
          "indexed": false,
          "internalType": "uint256",
          "name": "submissionId",
          "type": "uint256"
        },
        {
          "indexed": false,
          "internalType": "address",
          "name": "creator",
          "type": "address"
        },
        {
          "indexed": false,
          "internalType": "uint256",
          "name": "amount",
          "type": "uint256"
        }
      ],
      "name": "BountyCreated",
      "type": "event"
    },
    {
      "anonymous": false,
      "inputs": [
        {
          "indexed": false,
          "internalType": "address",
          "name": "recipient",
          "type": "address"
        },
        {
          "indexed": false,
          "internalType": "uint256",
          "name": "amount",
          "type": "uint256"
        }
      ],
      "name": "BountyPaid",
      "type": "event"
    },
    {
      "inputs": [],
      "name": "AutomationContractAddress",
      "outputs": [
        {
          "internalType": "address",
          "name": "",
          "type": "address"
        }
      ],
      "stateMutability": "view",
      "type": "function"
    },
    {
      "inputs": [
        {
          "internalType": "uint256",
          "name": "_submissionId",
          "type": "uint256"
        }
      ],
      "name": "GetPostSubmissionBounties",
      "outputs": [
        {
          "internalType": "uint256[]",
          "name": "",
          "type": "uint256[]"
        }
      ],
      "stateMutability": "view",
      "type": "function"
    },
    {
      "inputs": [
        {
          "internalType": "uint256",
          "name": "",
          "type": "uint256"
        }
      ],
      "name": "bounties",
      "outputs": [
        {
          "internalType": "uint256",
          "name": "bountyAmount",
          "type": "uint256"
        },
        {
          "internalType": "address",
          "name": "bountyCreator",
          "type": "address"
        },
        {
          "internalType": "bool",
          "name": "bountyPaid",
          "type": "bool"
        }
      ],
      "stateMutability": "view",
      "type": "function"
    },
    {
      "inputs": [],
      "name": "bountiesId",
      "outputs": [
        {
          "internalType": "uint256",
          "name": "",
          "type": "uint256"
        }
      ],
      "stateMutability": "view",
      "type": "function"
    },
    {
      "inputs": [
        {
          "components": [
            {
              "internalType": "uint256",
              "name": "index",
              "type": "uint256"
            },
            {
              "internalType": "uint256",
              "name": "timestamp",
              "type": "uint256"
            },
            {
              "internalType": "bytes32",
              "name": "txHash",
              "type": "bytes32"
            },
            {
              "internalType": "uint256",
              "name": "blockNumber",
              "type": "uint256"
            },
            {
              "internalType": "bytes32",
              "name": "blockHash",
              "type": "bytes32"
            },
            {
              "internalType": "address",
              "name": "source",
              "type": "address"
            },
            {
              "internalType": "bytes32[]",
              "name": "topics",
              "type": "bytes32[]"
            },
            {
              "internalType": "bytes",
              "name": "data",
              "type": "bytes"
            }
          ],
          "internalType": "struct Log",
          "name": "log",
          "type": "tuple"
        },
        {
          "internalType": "bytes",
          "name": "",
          "type": "bytes"
        }
      ],
      "name": "checkLog",
      "outputs": [
        {
          "internalType": "bool",
          "name": "upkeepNeeded",
          "type": "bool"
        },
        {
          "internalType": "bytes",
          "name": "performData",
          "type": "bytes"
        }
      ],
      "stateMutability": "view",
      "type": "function"
    },
    {
      "inputs": [
        {
          "internalType": "uint256",
          "name": "_submissionId",
          "type": "uint256"
        }
      ],
      "name": "createBounty",
      "outputs": [
        {
          "internalType": "uint256",
          "name": "",
          "type": "uint256"
        }
      ],
      "stateMutability": "payable",
      "type": "function"
    },
    {
      "inputs": [],
      "name": "fee",
      "outputs": [
        {
          "internalType": "uint256",
          "name": "",
          "type": "uint256"
        }
      ],
      "stateMutability": "view",
      "type": "function"
    },
    {
      "inputs": [
        {
          "internalType": "uint256",
          "name": "_submissionId",
          "type": "uint256"
        }
      ],
      "name": "manualUpkeep",
      "outputs": [],
      "stateMutability": "nonpayable",
      "type": "function"
    },
    {
      "inputs": [],
      "name": "owner",
      "outputs": [
        {
          "internalType": "address",
          "name": "",
          "type": "address"
        }
      ],
      "stateMutability": "view",
      "type": "function"
    },
    {
      "inputs": [
        {
          "internalType": "bytes",
          "name": "_performData",
          "type": "bytes"
        }
      ],
      "name": "performUpkeep",
      "outputs": [],
      "stateMutability": "nonpayable",
      "type": "function"
    },
    {
      "inputs": [
        {
          "internalType": "uint256",
          "name": "",
          "type": "uint256"
        },
        {
          "internalType": "uint256",
          "name": "",
          "type": "uint256"
        }
      ],
      "name": "postSubmissionBounties",
      "outputs": [
        {
          "internalType": "uint256",
          "name": "",
          "type": "uint256"
        }
      ],
      "stateMutability": "view",
      "type": "function"
    },
    {
      "inputs": [
        {
          "internalType": "address",
          "name": "_AutomationContractAddress",
          "type": "address"
        }
      ],
      "name": "setAutomationContractAddress",
      "outputs": [],
      "stateMutability": "nonpayable",
      "type": "function"
    },
    {
      "inputs": [
        {
          "internalType": "uint256",
          "name": "_fee",
          "type": "uint256"
        }
      ],
      "name": "setFee",
      "outputs": [],
      "stateMutability": "nonpayable",
      "type": "function"
    },
    {
      "inputs": [
        {
          "internalType": "address",
          "name": "_tgetherCommunityConsensusAddress",
          "type": "address"
        }
      ],
      "name": "setTgetherCommunityConsensusAddress",
      "outputs": [],
      "stateMutability": "nonpayable",
      "type": "function"
    },
    {
      "inputs": [
        {
          "internalType": "address",
          "name": "_tgetherFundAddress",
          "type": "address"
        }
      ],
      "name": "setTgetherFundAddress",
      "outputs": [],
      "stateMutability": "nonpayable",
      "type": "function"
    },
    {
      "inputs": [
        {
          "internalType": "address",
          "name": "_tgetherIncentivesAddress",
          "type": "address"
        }
      ],
      "name": "setTgetherIncentivesAddress",
      "outputs": [],
      "stateMutability": "nonpayable",
      "type": "function"
    },
    {
      "inputs": [
        {
          "internalType": "address",
          "name": "_tgetherPostConsensusAddress",
          "type": "address"
        }
      ],
      "name": "setTgetherPostConsensusAddress",
      "outputs": [],
      "stateMutability": "nonpayable",
      "type": "function"
    },
    {
      "inputs": [],
      "name": "tgetherCommunityConsensusContract",
      "outputs": [
        {
          "internalType": "contract tgetherCommunityConsensusInterface",
          "name": "",
          "type": "address"
        }
      ],
      "stateMutability": "view",
      "type": "function"
    },
    {
      "inputs": [],
      "name": "tgetherFundContract",
      "outputs": [
        {
          "internalType": "contract tgetherFundInterface",
          "name": "",
          "type": "address"
        }
      ],
      "stateMutability": "view",
      "type": "function"
    },
    {
      "inputs": [],
      "name": "tgetherIncentivesContract",
      "outputs": [
        {
          "internalType": "contract tgetherIncentivesInterface",
          "name": "",
          "type": "address"
        }
      ],
      "stateMutability": "view",
      "type": "function"
    },
    {
      "inputs": [],
      "name": "tgetherPostConsensusContract",
      "outputs": [
        {
          "internalType": "contract tgetherPostConsensusInterface",
          "name": "",
          "type": "address"
        }
      ],
      "stateMutability": "view",
      "type": "function"
    }
  ],
  "bytecode": "0x608034620000e357601f6200200c38819003918201601f19168301916001600160401b03831184841017620000e75780849260a094604052833981010312620000e3576200004d81620000fb565b906200005c60208201620000fb565b906200006b60408201620000fb565b9060806200007c60608301620000fb565b9101519260015f5560018060a01b03928380928160018060a01b031998168860045416176004551686600554161760055516846006541617600655168260075416176007556009553390600a541617600a556001600355604051611efb9081620001118239f35b5f80fd5b634e487b7160e01b5f52604160045260245ffd5b51906001600160a01b0382168203620000e35756fe60a0604081815260049182361015610015575f80fd5b5f92833560e01c9182630ee1bd2514610c0a575081631e28b1c814610be157816324c328f214610bb85781632bf2f01a14610b6b57816337b308ac14610af45781633f28e9fb146105ff57816340691db4146105045781634585e33b146104015781634c87e49b146103d85781634db9e2071461039457816369fe0e2d146103655781638547cb8c146103465781638da5cb5b1461031d578163a383135e146102d0578163ac7f3d7b14610283578163b31926f414610236578163b9935ac31461020e578163bab488be146101c1578163c4ba65bb14610178578163dc2f87441461012a575063ddca3f4314610109575f80fd5b346101265781600319360112610126576020906009549051908152f35b5080fd5b9050346101745760203660031901126101745760609282913581526001602052209060ff60018354930154825193845260018060a01b038116602085015260a01c16151590820152f35b8280fd5b8284346101be57816003193601126101be576024359235815260026020528181209081548410156101be57506020926101b091610d4d565b91905490519160031b1c8152f35b80fd5b83903461012657602036600319011261012657356001600160a01b0381811691829003610174576101f790600a54163314611e6e565b600580546001600160a01b03191691909117905580f35b9050346101745782600319360112610174575490516001600160a01b03909116815260209150f35b83903461012657602036600319011261012657356001600160a01b03818116918290036101745761026c90600a54163314611e6e565b600680546001600160a01b03191691909117905580f35b83903461012657602036600319011261012657356001600160a01b0381811691829003610174576102b990600a54163314611e6e565b600880546001600160a01b03191691909117905580f35b8390346101265760203660031901126101265780356001600160a01b03818116918290036103195761030790600a54163314611e6e565b81546001600160a01b03191617905580f35b8380fd5b505034610126578160031936011261012657600a5490516001600160a01b039091168152602090f35b5050346101265781600319360112610126576020906003549051908152f35b8390346101265760203660031901126101265761038d60018060a01b03600a54163314611e6e565b3560095580f35b839034610126576020366003190112610126576103b9906103b3611979565b35610f29565b6080516103c9575b506001815580f35b6103d2906119cd565b816103c1565b50503461012657816003193601126101265760055490516001600160a01b039091168152602090f35b91905034610174576020366003190112610174578135916001600160401b03918284116105005736602385011215610500578382013592831161050057366024848601011161050057600a54336001600160a01b03918216149081156104f2575b501561048f57846104886104838686610479611979565b6024369201610ccd565b6119cd565b6001815580f35b906020608492519162461bcd60e51b8352820152603760248201527f4e6f742074686520636f6e7472616374206f776e6572206f72204175746f6d616044820152761d1a5bdb88119bdc9dd85c99195c8810dbdb9d1c9858dd604a1b6064820152fd5b90506008541633145f610462565b8480fd5b83915034610126576003199183833601126101be578135916001600160401b03908184116101745761010084360395860112610174576024358281116103195736602382011215610319576105629036906024818501359101610ccd565b50829460609460c4810135916022190182121561050057019181830135908111610319578060051b3603602484011361031957600110156105ec575060448591013591828152600260205220546105d4575b506105d090835193849315158452806020850152830190610d28565b0390f35b90506105e09150610f29565b608051906105d06105b4565b634e487b7160e01b835260329052602482fd5b8383602092836003193601126101745760055482516375243d4960e11b8152823581840181905294602493909290916001600160a01b039182169088818781855afa908115610998578591610ac7575b5083811015610ab457600103610a72578160075416865163755e66db60e11b90818152898682015286818981875afa908115610a4e576106b5949392918a918991610a58575b508c8251968792839263bac4cd0760e01b84528b8401528c830190610d28565b0381855afa938415610a4e578794610a1e575b506106d66009549485610e26565b3411156109d0578690888a518095819382528d8a8301525afa9182156109c657918a916107249388926109a2575b508951808095819463cc271aa360e01b8352868b8401528c830190610d28565b03915afa908115610998578591610963575b501561090e57878284541686885180948193633de5599d60e11b835230898401525af19081156109045784916108cf575b50156108955761077960095434610e54565b85519061078582610c62565b8152878101913383526001878301928684526003548752818b52888720905181550192511682549160ff60a01b9051151560a01b169160018060a81b03191617179055848252600286528382209460035495805490600160401b82101561088257816107fa91600161085b9594018155610d4d565b81549060031b905f19809a831b921b19161790557f555a6ec1bcab187d5c03bcc543a554016e038bf7fb4313e551f96c155889418d60806003549261084160095434610e54565b8951918583528c830152338a8301526060820152a1610e61565b948560035585019485116108725750505051908152f35b634e487b7160e01b825260119052fd5b5050634e487b7160e01b83525060419052fd5b845162461bcd60e51b815280830188905260158186015274155c1ad9595c08199d5b991a5b99c819985a5b1959605a1b6044820152606490fd5b90508781813d83116108fd575b6108e68183610c91565b81010312610319576108f790610e47565b88610767565b503d6108dc565b86513d86823e3d90fd5b855162461bcd60e51b8152808401899052602a818701527f436f6d6d756e697479206d757374206861766520616e20696e63656e746976656044820152692073747275637475726560b01b6064820152608490fd5b90508881813d8311610991575b61097a8183610c91565b810103126105005761098b90610e47565b89610736565b503d610970565b87513d87823e3d90fd5b6109bf9192503d808a833e6109b78183610c91565b810190610dd3565b908c610704565b88513d88823e3d90fd5b885162461bcd60e51b81528087018c90526023818a01527f466565206d757374206265207061696420746f20637265617465206120626f756044820152626e747960e81b6064820152608490fd5b610a3f919450893d8b11610a47575b610a378183610c91565b810190610e0c565b50928b6106c8565b503d610a2d565b89513d89823e3d90fd5b610a6c91503d808b833e6109b78183610c91565b8d610695565b855162461bcd60e51b8152808401899052601e818701527f506f7374206d7573742062652070656e64696e6720636f6e73656e73757300006044820152606490fd5b5050634e487b7160e01b83525060219052fd5b610ae79150893d8b11610aed575b610adf8183610c91565b810190610d76565b8961064f565b503d610ad5565b9190503461017457602091826003193601126103195735835260028252808320815190819485928583549182815201928252858220915b86828210610b545785906105d088610b4584890385610c91565b51928284938452830190610c2f565b835485528895509093019260019283019201610b2b565b83903461012657602036600319011261012657356001600160a01b038181169182900361017457610ba190600a54163314611e6e565b600780546001600160a01b03191691909117905580f35b50503461012657816003193601126101265760085490516001600160a01b039091168152602090f35b50503461012657816003193601126101265760075490516001600160a01b039091168152602090f35b8490346101265781600319360112610126576006546001600160a01b03168152602090f35b9081518082526020808093019301915f5b828110610c4e575050505090565b835185529381019392810192600101610c40565b606081019081106001600160401b03821117610c7d57604052565b634e487b7160e01b5f52604160045260245ffd5b90601f801991011681019081106001600160401b03821117610c7d57604052565b6001600160401b038111610c7d57601f01601f191660200190565b929192610cd982610cb2565b91610ce76040519384610c91565b829481845281830111610d03578281602093845f960137010152565b5f80fd5b5f5b838110610d185750505f910152565b8181015183820152602001610d09565b90602091610d4181518092818552858086019101610d07565b601f01601f1916010190565b8054821015610d62575f5260205f2001905f90565b634e487b7160e01b5f52603260045260245ffd5b90816020910312610d0357516004811015610d035790565b81601f82011215610d03578051610da481610cb2565b92610db26040519485610c91565b81845260208284010111610d0357610dd09160208085019101610d07565b90565b90602082820312610d035781516001600160401b038111610d0357610dd09201610d8e565b51906001600160a01b0382168203610d0357565b9190826040910312610d0357610dd0602083519301610df8565b91908201809211610e3357565b634e487b7160e01b5f52601160045260245ffd5b51908115158203610d0357565b91908203918211610e3357565b5f198114610e335760010190565b6001600160401b038111610c7d5760051b60200190565b90610e9082610e6f565b610e9d6040519182610c91565b8281528092610eae601f1991610e6f565b0190602036910137565b8051821015610d625760209160051b010190565b939291606085019160608652805180935260808601926020809201905f5b818110610f0c5750505085830390860152604091610f0791610c2f565b930152565b82516001600160a01b031686529483019491830191600101610eea565b5f608052805f52600260205260405f2090604051808360208295549384815201905f5260205f20925f5b8181106116c3575050610f6892500383610c91565b81511561169b57600160805260055460405163755e66db60e11b8152600481018390526001600160a01b039091169390925f84602481885afa938415611207575f9461167f575b50600654604051632691798960e01b815260206004820152949060609086906001600160a01b03168180610fe66024820187610d28565b03915afa938415611207575f955f95611644575b50604051636c79bd2b60e01b8152600481018290525f816024818b5afa908115611207575f91611607575b506110308151610e86565b9361103b8251610e86565b925f965f955f985b608051156115f35785518a1015611212578c5f6110608c89610eb8565b51602460405180948193634c82c0db60e11b835260048301525afa908115611207575f91611115575b5060a081015115801590611108575b6110fd5760408101516002036110d757516110d1916110ca916001600160a01b03166110c4828d610eb8565b52610e61565b995b610e61565b98611043565b519099976110d1916110f791906001600160a01b03166110c4828b610eb8565b97610e61565b50986110d190610e61565b508b608082015110611098565b90503d805f833e6111268183610c91565b6020828281010312610d03578151906001600160401b038211610d035760c08284018285010312610d0357604051928360c08101106001600160401b0360c086011117610c7d5760c0840160405261117f838201610df8565b8452602083820101516001600160401b038111610d03576111a7908383019085840101610d8e565b60208501528083016040818101519086015260600151916001600160401b038311610d03576111fd926111e09183019085840101610d8e565b606085015260808382010151608085015260a09283910101610e47565b908201525f611089565b6040513d5f823e3d90fd5b97939b5097509750979386925088935b61122b87610e86565b9661123583610e86565b935f5b8281106115b9575050505f5b82811061157f575050506112579461173a565b805190816113ad5750505061126c8351610e86565b906112778451610e86565b5f915f5b608051156113a2578651811015611318576112968188610eb8565b515f5260805160205260405f20604051906112b082610c62565b8054825260805101546001600160a01b0381166020830181905260a09190911c60ff1615801560408401526112f0575b50506112eb90610e61565b61127b565b94611310916112eb9396611304838a610eb8565b52516110c48287610eb8565b93905f6112e0565b5094509192905b61132881610e86565b9261133282610e86565b945f5b838110611365575050505090611357610dd09260405194859360208501610ecc565b03601f198101835282610c91565b61139d906001600160a01b0361137b8285610eb8565b51166113878289610eb8565b526113928185610eb8565b516110c4828a610eb8565b611335565b50945091929061131f565b9093929194505f92805f52600260205260405f2092604051808560208297549384815201905f5260205f20925f5b8181106115655750506113f092500385610c91565b5f5b608051156115535784518110156114775761140d8186610eb8565b515f5260805160205260405f2060405161142681610c62565b60ff825492838352608051015460018060a01b038116602084015260a01c16159060408215910152611462575b5061145d90610e61565b6113f2565b6114709061145d9297610e26565b9590611453565b50939094925060406114b292965b60018060a01b03600754168251808096819463bac4cd0760e01b8352602060048401526024830190610d28565b03915afa908115611207576114ce925f92611531575b50610e54565b04906114da8451610e86565b935f5b6080511561151f5781518110156115025780846110c46114fd9389610eb8565b6114dd565b50909392610dd09250611357905b60405194859360208501610ecc565b50909392610dd0925061135790611510565b61154b91925060403d604011610a4757610a378183610c91565b50905f6114c8565b50939094925060406114b29296611485565b8454835260805194850194899450602090930192016113db565b95969295929450909250906115ac906001600160a01b036115a08285610eb8565b51166110c48288610eb8565b9188939594918793611244565b909294979896506115e49193955060018060a01b036115d88285610eb8565b51166110c48289610eb8565b918a9597969391899593611238565b97939b509750975097938692508893611222565b90503d805f833e6116188183610c91565b8101602082820312610d035781516001600160401b038111610d035761163e92016116dc565b5f611025565b955093506060853d606011611677575b8161166160609383610c91565b81010312610d035760208551950151935f610ffa565b3d9150611654565b6116949194503d805f833e6109b78183610c91565b925f610faf565b50505f608052604051602081018181106001600160401b03821117610c7d576040525f815290565b8454835260019485019487945060209093019201610f53565b81601f82011215610d03578051916116f383610e6f565b926117016040519485610c91565b808452602092838086019260051b820101928311610d03578301905b82821061172b575050505090565b8151815290830190830161171d565b9290949360609060018060a01b0393846007541691604051948593630436ff8960e21b85526020948591818061177b600498868a8401526024830190610d28565b03915afa958615611207575f9661193f575b50838760055416916024604051809481936375243d4960e11b8352888301525afa938415611207575f94611920575b50506117cb87518a5190610e26565b9482841015918261190d5784159081156118ff575b81156118f5575b506118e95760028110156118d6578061187257505050505061180890610e86565b915f5b815181101561183457808361182361182f9385610eb8565b51166110c48287610eb8565b61180b565b5091935f5b815181101561186c5780836118516118679385610eb8565b51166110c4611861838851610e26565b89610eb8565b611839565b50505050565b909294506001919396979895501461188e575b50505050905090565b6118c35750600281036118a9575050505b805f808080611885565b600391929350146118bb575b5061189f565b90505f6118b5565b602190634e487b7160e01b5f525260245ffd5b602183634e487b7160e01b5f525260245ffd5b50929750505050505050565b905086105f6117e7565b5f93506001861491506117e0565b602184634e487b7160e01b5f525260245ffd5b611937929450803d10610aed57610adf8183610c91565b915f806117bc565b8481819893983d8311611972575b6119578183610c91565b8101031261012657519060028210156101be5750945f61178d565b503d61194d565b60025f54146119885760025f55565b60405162461bcd60e51b815260206004820152601f60248201527f5265656e7472616e637947756172643a207265656e7472616e742063616c6c006044820152606490fd5b9081518201916020606082828601950312610d035780820151936001600160401b0394858111610d035783019080603f83011215610d03578282015195611a1387610e6f565b92604097611a2389519586610c91565b808552888686019160051b83010191848311610d035789879101915b838310611d5c575050505086850151908111610d035760609184611a65928701016116dc565b930151938151845103611d025794849560018060a01b039360248186600554168551928380926375243d4960e11b825260049d8e8301525afa908115611cf8575f91611cdb575b5088811015611cc85760028114908115611cbd575b5015611c71575f5b8451811015611afc57806110cc87611ae4611af79489610eb8565b5116611af0838b610eb8565b5190611d74565b611ac9565b50945094929150602481965f846005541684519384809263755e66db60e11b825289868301525afa918215611c6757611b5e9487915f94611c4c575b50600754169184519586948593849363bac4cd0760e01b85528401526024830190610d28565b03915afa908115611c42575f908192611c22575b5080611c12575b50505f5260028152825f209280518085848297549384815201905f52845f20925f5b86828210611bfc57505050611bb292500385610c91565b5f5b8451811015611bf55780611bcb611bf09287610eb8565b515f90815260018086529084902001805460ff60a01b1916600160a01b179055610e61565b611bb4565b5050509050565b855484526001958601958a955093019201611b9b565b611c1b91611d74565b5f80611b79565b9050611c3b9150853d8711610a4757610a378183610c91565b905f611b72565b85513d5f823e3d90fd5b611c6091943d8091833e6109b78183610c91565b925f611b38565b83513d5f823e3d90fd5b8760849184519162461bcd60e51b8352820152602160248201527f506f7374206d757374206265206163636570746564206f722072656a656374656044820152601960fa1b6064820152fd5b60039150145f611ac1565b602189634e487b7160e01b5f525260245ffd5b611cf29150823d8411610aed57610adf8183610c91565b5f611aac565b84513d5f823e3d90fd5b855162461bcd60e51b815260048101849052602d60248201527f41646472657373657320616e6420616d6f756e7473206d75737420626520746860448201526c0ca40e6c2daca40d8cadccee8d609b1b6064820152608490fd5b8190611d6784610df8565b8152019101908690611a3f565b908015611e2a575f80808084865af13d15611e25573d611d9381610cb2565b90611da16040519283610c91565b81525f60203d92013e5b15611dee57604080516001600160a01b03909316835260208301919091527f31dd4c1bc893bd53887b59c36c1a1b9f60960fa64c231ad0cd3603a1914bda3591a1565b60405162461bcd60e51b815260206004820152600f60248201526e151c985b9cd9995c8819985a5b1959608a1b6044820152606490fd5b611dab565b606460405162461bcd60e51b815260206004820152602060248201527f416d6f756e74206d7573742062652067726561746572207468616e207a65726f6044820152fd5b15611e7557565b60405162461bcd60e51b815260206004820152602260248201527f4f6e6c79206f776e65722063616e20706572666f726d2074686973206163746960448201526137b760f11b6064820152608490fdfea2646970667358221220cb06602a1396eab2d8590cc9a935feef9e5bdbd3f2f2478ca536ebfac1f8eba364736f6c63430008140033",
  "linkReferences": {},
  "deployedLinkReferences": {}
}